{
  "_format": "hh-sol-artifact-1",
  "contractName": "AssetManagerController",
  "sourceName": "contracts/assetManager/implementation/AssetManagerController.sol",
  "abi": [
    {
      "inputs": [],
      "stateMutability": "nonpayable",
      "type": "constructor"
    },
    {
      "anonymous": false,
      "inputs": [
        {
          "indexed": false,
          "internalType": "address",
          "name": "previousAdmin",
          "type": "address"
        },
        {
          "indexed": false,
          "internalType": "address",
          "name": "newAdmin",
          "type": "address"
        }
      ],
      "name": "AdminChanged",
      "type": "event"
    },
    {
      "anonymous": false,
      "inputs": [
        {
          "indexed": true,
          "internalType": "address",
          "name": "agentVault",
          "type": "address"
        },
        {
          "indexed": false,
          "internalType": "uint256",
          "name": "feeBIPS",
          "type": "uint256"
        },
        {
          "indexed": false,
          "internalType": "uint256",
          "name": "mintingVaultCollateralRatioBIPS",
          "type": "uint256"
        },
        {
          "indexed": false,
          "internalType": "uint256",
          "name": "mintingPoolCollateralRatioBIPS",
          "type": "uint256"
        },
        {
          "indexed": false,
          "internalType": "uint256",
          "name": "freeCollateralLots",
          "type": "uint256"
        }
      ],
      "name": "AgentAvailable",
      "type": "event"
    },
    {
      "anonymous": false,
      "inputs": [
        {
          "indexed": true,
          "internalType": "address",
          "name": "agentVault",
          "type": "address"
        },
        {
          "indexed": false,
          "internalType": "uint8",
          "name": "collateralClass",
          "type": "uint8"
        },
        {
          "indexed": false,
          "internalType": "address",
          "name": "token",
          "type": "address"
        }
      ],
      "name": "AgentCollateralTypeChanged",
      "type": "event"
    },
    {
      "anonymous": false,
      "inputs": [
        {
          "indexed": true,
          "internalType": "address",
          "name": "agentVault",
          "type": "address"
        },
        {
          "indexed": false,
          "internalType": "uint256",
          "name": "destroyAllowedAt",
          "type": "uint256"
        }
      ],
      "name": "AgentDestroyAnnounced",
      "type": "event"
    },
    {
      "anonymous": false,
      "inputs": [
        {
          "indexed": true,
          "internalType": "address",
          "name": "agentVault",
          "type": "address"
        }
      ],
      "name": "AgentDestroyed",
      "type": "event"
    },
    {
      "anonymous": false,
      "inputs": [
        {
          "indexed": true,
          "internalType": "address",
          "name": "agentVault",
          "type": "address"
        },
        {
          "indexed": false,
          "internalType": "uint256",
          "name": "timestamp",
          "type": "uint256"
        }
      ],
      "name": "AgentInCCB",
      "type": "event"
    },
    {
      "anonymous": false,
      "inputs": [
        {
          "indexed": true,
          "internalType": "address",
          "name": "agentVault",
          "type": "address"
        },
        {
          "indexed": false,
          "internalType": "string",
          "name": "name",
          "type": "string"
        },
        {
          "indexed": false,
          "internalType": "uint256",
          "name": "value",
          "type": "uint256"
        },
        {
          "indexed": false,
          "internalType": "uint256",
          "name": "validAt",
          "type": "uint256"
        }
      ],
      "name": "AgentSettingChangeAnnounced",
      "type": "event"
    },
    {
      "anonymous": false,
      "inputs": [
        {
          "indexed": true,
          "internalType": "address",
          "name": "agentVault",
          "type": "address"
        },
        {
          "indexed": false,
          "internalType": "string",
          "name": "name",
          "type": "string"
        },
        {
          "indexed": false,
          "internalType": "uint256",
          "name": "value",
          "type": "uint256"
        }
      ],
      "name": "AgentSettingChanged",
      "type": "event"
    },
    {
      "anonymous": false,
      "inputs": [
        {
          "indexed": true,
          "internalType": "address",
          "name": "owner",
          "type": "address"
        },
        {
          "indexed": true,
          "internalType": "address",
          "name": "agentVault",
          "type": "address"
        },
        {
          "components": [
            {
              "internalType": "address",
              "name": "collateralPool",
              "type": "address"
            },
            {
              "internalType": "address",
              "name": "collateralPoolToken",
              "type": "address"
            },
            {
              "internalType": "string",
              "name": "underlyingAddress",
              "type": "string"
            },
            {
              "internalType": "address",
              "name": "vaultCollateralToken",
              "type": "address"
            },
            {
              "internalType": "address",
              "name": "poolWNatToken",
              "type": "address"
            },
            {
              "internalType": "uint256",
              "name": "feeBIPS",
              "type": "uint256"
            },
            {
              "internalType": "uint256",
              "name": "poolFeeShareBIPS",
              "type": "uint256"
            },
            {
              "internalType": "uint256",
              "name": "mintingVaultCollateralRatioBIPS",
              "type": "uint256"
            },
            {
              "internalType": "uint256",
              "name": "mintingPoolCollateralRatioBIPS",
              "type": "uint256"
            },
            {
              "internalType": "uint256",
              "name": "buyFAssetByAgentFactorBIPS",
              "type": "uint256"
            },
            {
              "internalType": "uint256",
              "name": "poolExitCollateralRatioBIPS",
              "type": "uint256"
            },
            {
              "internalType": "uint256",
              "name": "poolTopupCollateralRatioBIPS",
              "type": "uint256"
            },
            {
              "internalType": "uint256",
              "name": "poolTopupTokenPriceFactorBIPS",
              "type": "uint256"
            },
            {
              "internalType": "uint256",
              "name": "handshakeType",
              "type": "uint256"
            }
          ],
          "indexed": false,
          "internalType": "struct IAssetManagerEvents.AgentVaultCreationData",
          "name": "creationData",
          "type": "tuple"
        }
      ],
      "name": "AgentVaultCreated",
      "type": "event"
    },
    {
      "anonymous": false,
      "inputs": [
        {
          "indexed": true,
          "internalType": "address",
          "name": "agentVault",
          "type": "address"
        },
        {
          "indexed": false,
          "internalType": "uint256",
          "name": "exitAllowedAt",
          "type": "uint256"
        }
      ],
      "name": "AvailableAgentExitAnnounced",
      "type": "event"
    },
    {
      "anonymous": false,
      "inputs": [
        {
          "indexed": true,
          "internalType": "address",
          "name": "agentVault",
          "type": "address"
        }
      ],
      "name": "AvailableAgentExited",
      "type": "event"
    },
    {
      "anonymous": false,
      "inputs": [
        {
          "indexed": true,
          "internalType": "address",
          "name": "beacon",
          "type": "address"
        }
      ],
      "name": "BeaconUpgraded",
      "type": "event"
    },
    {
      "anonymous": false,
      "inputs": [
        {
          "indexed": false,
          "internalType": "uint8",
          "name": "collateralClass",
          "type": "uint8"
        },
        {
          "indexed": false,
          "internalType": "address",
          "name": "collateralToken",
          "type": "address"
        },
        {
          "indexed": false,
          "internalType": "uint256",
          "name": "minCollateralRatioBIPS",
          "type": "uint256"
        },
        {
          "indexed": false,
          "internalType": "uint256",
          "name": "ccbMinCollateralRatioBIPS",
          "type": "uint256"
        },
        {
          "indexed": false,
          "internalType": "uint256",
          "name": "safetyMinCollateralRatioBIPS",
          "type": "uint256"
        }
      ],
      "name": "CollateralRatiosChanged",
      "type": "event"
    },
    {
      "anonymous": false,
      "inputs": [
        {
          "indexed": true,
          "internalType": "address",
          "name": "agentVault",
          "type": "address"
        },
        {
          "indexed": true,
          "internalType": "address",
          "name": "minter",
          "type": "address"
        },
        {
          "indexed": true,
          "internalType": "uint256",
          "name": "collateralReservationId",
          "type": "uint256"
        }
      ],
      "name": "CollateralReservationCancelled",
      "type": "event"
    },
    {
      "anonymous": false,
      "inputs": [
        {
          "indexed": true,
          "internalType": "address",
          "name": "agentVault",
          "type": "address"
        },
        {
          "indexed": true,
          "internalType": "address",
          "name": "minter",
          "type": "address"
        },
        {
          "indexed": true,
          "internalType": "uint256",
          "name": "collateralReservationId",
          "type": "uint256"
        },
        {
          "indexed": false,
          "internalType": "uint256",
          "name": "reservedAmountUBA",
          "type": "uint256"
        }
      ],
      "name": "CollateralReservationDeleted",
      "type": "event"
    },
    {
      "anonymous": false,
      "inputs": [
        {
          "indexed": true,
          "internalType": "address",
          "name": "agentVault",
          "type": "address"
        },
        {
          "indexed": true,
          "internalType": "address",
          "name": "minter",
          "type": "address"
        },
        {
          "indexed": true,
          "internalType": "uint256",
          "name": "collateralReservationId",
          "type": "uint256"
        }
      ],
      "name": "CollateralReservationRejected",
      "type": "event"
    },
    {
      "anonymous": false,
      "inputs": [
        {
          "indexed": true,
          "internalType": "address",
          "name": "agentVault",
          "type": "address"
        },
        {
          "indexed": true,
          "internalType": "address",
          "name": "minter",
          "type": "address"
        },
        {
          "indexed": true,
          "internalType": "uint256",
          "name": "collateralReservationId",
          "type": "uint256"
        },
        {
          "indexed": false,
          "internalType": "uint256",
          "name": "valueUBA",
          "type": "uint256"
        },
        {
          "indexed": false,
          "internalType": "uint256",
          "name": "feeUBA",
          "type": "uint256"
        },
        {
          "indexed": false,
          "internalType": "uint256",
          "name": "firstUnderlyingBlock",
          "type": "uint256"
        },
        {
          "indexed": false,
          "internalType": "uint256",
          "name": "lastUnderlyingBlock",
          "type": "uint256"
        },
        {
          "indexed": false,
          "internalType": "uint256",
          "name": "lastUnderlyingTimestamp",
          "type": "uint256"
        },
        {
          "indexed": false,
          "internalType": "string",
          "name": "paymentAddress",
          "type": "string"
        },
        {
          "indexed": false,
          "internalType": "bytes32",
          "name": "paymentReference",
          "type": "bytes32"
        },
        {
          "indexed": false,
          "internalType": "address",
          "name": "executor",
          "type": "address"
        },
        {
          "indexed": false,
          "internalType": "uint256",
          "name": "executorFeeNatWei",
          "type": "uint256"
        }
      ],
      "name": "CollateralReserved",
      "type": "event"
    },
    {
      "anonymous": false,
      "inputs": [
        {
          "indexed": false,
          "internalType": "uint8",
          "name": "collateralClass",
          "type": "uint8"
        },
        {
          "indexed": false,
          "internalType": "address",
          "name": "token",
          "type": "address"
        },
        {
          "indexed": false,
          "internalType": "uint256",
          "name": "decimals",
          "type": "uint256"
        },
        {
          "indexed": false,
          "internalType": "bool",
          "name": "directPricePair",
          "type": "bool"
        },
        {
          "indexed": false,
          "internalType": "string",
          "name": "assetFtsoSymbol",
          "type": "string"
        },
        {
          "indexed": false,
          "internalType": "string",
          "name": "tokenFtsoSymbol",
          "type": "string"
        },
        {
          "indexed": false,
          "internalType": "uint256",
          "name": "minCollateralRatioBIPS",
          "type": "uint256"
        },
        {
          "indexed": false,
          "internalType": "uint256",
          "name": "ccbMinCollateralRatioBIPS",
          "type": "uint256"
        },
        {
          "indexed": false,
          "internalType": "uint256",
          "name": "safetyMinCollateralRatioBIPS",
          "type": "uint256"
        }
      ],
      "name": "CollateralTypeAdded",
      "type": "event"
    },
    {
      "anonymous": false,
      "inputs": [
        {
          "indexed": false,
          "internalType": "uint8",
          "name": "collateralClass",
          "type": "uint8"
        },
        {
          "indexed": false,
          "internalType": "address",
          "name": "collateralToken",
          "type": "address"
        },
        {
          "indexed": false,
          "internalType": "uint256",
          "name": "validUntil",
          "type": "uint256"
        }
      ],
      "name": "CollateralTypeDeprecated",
      "type": "event"
    },
    {
      "anonymous": false,
      "inputs": [
        {
          "indexed": false,
          "internalType": "string",
          "name": "name",
          "type": "string"
        },
        {
          "indexed": false,
          "internalType": "address",
          "name": "value",
          "type": "address"
        }
      ],
      "name": "ContractChanged",
      "type": "event"
    },
    {
      "anonymous": false,
      "inputs": [
        {
          "indexed": false,
          "internalType": "uint256",
          "name": "underlyingBlockNumber",
          "type": "uint256"
        },
        {
          "indexed": false,
          "internalType": "uint256",
          "name": "underlyingBlockTimestamp",
          "type": "uint256"
        },
        {
          "indexed": false,
          "internalType": "uint256",
          "name": "updatedAt",
          "type": "uint256"
        }
      ],
      "name": "CurrentUnderlyingBlockUpdated",
      "type": "event"
    },
    {
      "anonymous": false,
      "inputs": [
        {
          "indexed": true,
          "internalType": "address",
          "name": "agentVault",
          "type": "address"
        },
        {
          "indexed": false,
          "internalType": "bytes32",
          "name": "transactionHash1",
          "type": "bytes32"
        },
        {
          "indexed": false,
          "internalType": "bytes32",
          "name": "transactionHash2",
          "type": "bytes32"
        }
      ],
      "name": "DuplicatePaymentConfirmed",
      "type": "event"
    },
    {
      "anonymous": false,
      "inputs": [
        {
          "indexed": true,
          "internalType": "address",
          "name": "agentVault",
          "type": "address"
        },
        {
          "indexed": false,
          "internalType": "uint256",
          "name": "dustUBA",
          "type": "uint256"
        }
      ],
      "name": "DustChanged",
      "type": "event"
    },
    {
      "anonymous": false,
      "inputs": [],
      "name": "EmergencyPauseCanceled",
      "type": "event"
    },
    {
      "anonymous": false,
      "inputs": [
        {
          "indexed": false,
          "internalType": "uint256",
          "name": "pausedUntil",
          "type": "uint256"
        }
      ],
      "name": "EmergencyPauseTriggered",
      "type": "event"
    },
    {
      "anonymous": false,
      "inputs": [
        {
          "indexed": true,
          "internalType": "address",
          "name": "agentVault",
          "type": "address"
        },
        {
          "indexed": false,
          "internalType": "uint256",
          "name": "timestamp",
          "type": "uint256"
        }
      ],
      "name": "FullLiquidationStarted",
      "type": "event"
    },
    {
      "anonymous": false,
      "inputs": [
        {
          "indexed": false,
          "internalType": "bytes",
          "name": "encodedCall",
          "type": "bytes"
        },
        {
          "indexed": false,
          "internalType": "bytes32",
          "name": "encodedCallHash",
          "type": "bytes32"
        },
        {
          "indexed": false,
          "internalType": "uint256",
          "name": "allowedAfterTimestamp",
          "type": "uint256"
        }
      ],
      "name": "GovernanceCallTimelocked",
      "type": "event"
    },
    {
      "anonymous": false,
      "inputs": [
        {
          "indexed": false,
          "internalType": "address",
          "name": "initialGovernance",
          "type": "address"
        }
      ],
      "name": "GovernanceInitialised",
      "type": "event"
    },
    {
      "anonymous": false,
      "inputs": [
        {
          "indexed": false,
          "internalType": "address",
          "name": "governanceSettings",
          "type": "address"
        }
      ],
      "name": "GovernedProductionModeEntered",
      "type": "event"
    },
    {
      "anonymous": false,
      "inputs": [
        {
          "indexed": true,
          "internalType": "address",
          "name": "agentVault",
          "type": "address"
        },
        {
          "indexed": true,
          "internalType": "address",
          "name": "minter",
          "type": "address"
        },
        {
          "indexed": true,
          "internalType": "uint256",
          "name": "collateralReservationId",
          "type": "uint256"
        },
        {
          "indexed": false,
          "internalType": "string[]",
          "name": "minterUnderlyingAddresses",
          "type": "string[]"
        },
        {
          "indexed": false,
          "internalType": "uint256",
          "name": "valueUBA",
          "type": "uint256"
        },
        {
          "indexed": false,
          "internalType": "uint256",
          "name": "feeUBA",
          "type": "uint256"
        }
      ],
      "name": "HandshakeRequired",
      "type": "event"
    },
    {
      "anonymous": false,
      "inputs": [
        {
          "indexed": true,
          "internalType": "address",
          "name": "agentVault",
          "type": "address"
        },
        {
          "indexed": false,
          "internalType": "bytes32",
          "name": "transactionHash",
          "type": "bytes32"
        }
      ],
      "name": "IllegalPaymentConfirmed",
      "type": "event"
    },
    {
      "anonymous": false,
      "inputs": [
        {
          "indexed": true,
          "internalType": "address",
          "name": "agentVault",
          "type": "address"
        }
      ],
      "name": "LiquidationEnded",
      "type": "event"
    },
    {
      "anonymous": false,
      "inputs": [
        {
          "indexed": true,
          "internalType": "address",
          "name": "agentVault",
          "type": "address"
        },
        {
          "indexed": true,
          "internalType": "address",
          "name": "liquidator",
          "type": "address"
        },
        {
          "indexed": false,
          "internalType": "uint256",
          "name": "valueUBA",
          "type": "uint256"
        },
        {
          "indexed": false,
          "internalType": "uint256",
          "name": "paidVaultCollateralWei",
          "type": "uint256"
        },
        {
          "indexed": false,
          "internalType": "uint256",
          "name": "paidPoolCollateralWei",
          "type": "uint256"
        }
      ],
      "name": "LiquidationPerformed",
      "type": "event"
    },
    {
      "anonymous": false,
      "inputs": [
        {
          "indexed": true,
          "internalType": "address",
          "name": "agentVault",
          "type": "address"
        },
        {
          "indexed": false,
          "internalType": "uint256",
          "name": "timestamp",
          "type": "uint256"
        }
      ],
      "name": "LiquidationStarted",
      "type": "event"
    },
    {
      "anonymous": false,
      "inputs": [
        {
          "indexed": true,
          "internalType": "address",
          "name": "agentVault",
          "type": "address"
        },
        {
          "indexed": true,
          "internalType": "uint256",
          "name": "collateralReservationId",
          "type": "uint256"
        },
        {
          "indexed": false,
          "internalType": "uint256",
          "name": "mintedAmountUBA",
          "type": "uint256"
        },
        {
          "indexed": false,
          "internalType": "uint256",
          "name": "agentFeeUBA",
          "type": "uint256"
        },
        {
          "indexed": false,
          "internalType": "uint256",
          "name": "poolFeeUBA",
          "type": "uint256"
        }
      ],
      "name": "MintingExecuted",
      "type": "event"
    },
    {
      "anonymous": false,
      "inputs": [
        {
          "indexed": true,
          "internalType": "address",
          "name": "agentVault",
          "type": "address"
        },
        {
          "indexed": true,
          "internalType": "address",
          "name": "minter",
          "type": "address"
        },
        {
          "indexed": true,
          "internalType": "uint256",
          "name": "collateralReservationId",
          "type": "uint256"
        },
        {
          "indexed": false,
          "internalType": "uint256",
          "name": "reservedAmountUBA",
          "type": "uint256"
        }
      ],
      "name": "MintingPaymentDefault",
      "type": "event"
    },
    {
      "anonymous": false,
      "inputs": [
        {
          "indexed": true,
          "internalType": "address",
          "name": "agentVault",
          "type": "address"
        },
        {
          "indexed": false,
          "internalType": "uint256",
          "name": "amountWei",
          "type": "uint256"
        },
        {
          "indexed": false,
          "internalType": "uint256",
          "name": "withdrawalAllowedAt",
          "type": "uint256"
        }
      ],
      "name": "PoolTokenRedemptionAnnounced",
      "type": "event"
    },
    {
      "anonymous": false,
      "inputs": [
        {
          "indexed": true,
          "internalType": "address",
          "name": "agentVault",
          "type": "address"
        },
        {
          "indexed": true,
          "internalType": "address",
          "name": "redeemer",
          "type": "address"
        },
        {
          "indexed": false,
          "internalType": "uint256",
          "name": "redemptionAmountUBA",
          "type": "uint256"
        },
        {
          "indexed": false,
          "internalType": "uint256",
          "name": "paidVaultCollateralWei",
          "type": "uint256"
        }
      ],
      "name": "RedeemedInCollateral",
      "type": "event"
    },
    {
      "anonymous": false,
      "inputs": [
        {
          "indexed": true,
          "internalType": "address",
          "name": "agentVault",
          "type": "address"
        },
        {
          "indexed": true,
          "internalType": "address",
          "name": "redeemer",
          "type": "address"
        },
        {
          "indexed": true,
          "internalType": "uint64",
          "name": "requestId",
          "type": "uint64"
        },
        {
          "indexed": false,
          "internalType": "uint256",
          "name": "redemptionAmountUBA",
          "type": "uint256"
        },
        {
          "indexed": false,
          "internalType": "uint256",
          "name": "redeemedVaultCollateralWei",
          "type": "uint256"
        },
        {
          "indexed": false,
          "internalType": "uint256",
          "name": "redeemedPoolCollateralWei",
          "type": "uint256"
        }
      ],
      "name": "RedemptionDefault",
      "type": "event"
    },
    {
      "anonymous": false,
      "inputs": [
        {
          "indexed": true,
          "internalType": "address",
          "name": "agentVault",
          "type": "address"
        },
        {
          "indexed": true,
          "internalType": "address",
          "name": "redeemer",
          "type": "address"
        },
        {
          "indexed": true,
          "internalType": "uint64",
          "name": "requestId",
          "type": "uint64"
        },
        {
          "indexed": false,
          "internalType": "bytes32",
          "name": "transactionHash",
          "type": "bytes32"
        },
        {
          "indexed": false,
          "internalType": "uint256",
          "name": "redemptionAmountUBA",
          "type": "uint256"
        },
        {
          "indexed": false,
          "internalType": "int256",
          "name": "spentUnderlyingUBA",
          "type": "int256"
        }
      ],
      "name": "RedemptionPaymentBlocked",
      "type": "event"
    },
    {
      "anonymous": false,
      "inputs": [
        {
          "indexed": true,
          "internalType": "address",
          "name": "agentVault",
          "type": "address"
        },
        {
          "indexed": true,
          "internalType": "address",
          "name": "redeemer",
          "type": "address"
        },
        {
          "indexed": true,
          "internalType": "uint64",
          "name": "requestId",
          "type": "uint64"
        },
        {
          "indexed": false,
          "internalType": "bytes32",
          "name": "transactionHash",
          "type": "bytes32"
        },
        {
          "indexed": false,
          "internalType": "int256",
          "name": "spentUnderlyingUBA",
          "type": "int256"
        },
        {
          "indexed": false,
          "internalType": "string",
          "name": "failureReason",
          "type": "string"
        }
      ],
      "name": "RedemptionPaymentFailed",
      "type": "event"
    },
    {
      "anonymous": false,
      "inputs": [
        {
          "indexed": true,
          "internalType": "address",
          "name": "agentVault",
          "type": "address"
        },
        {
          "indexed": true,
          "internalType": "address",
          "name": "redeemer",
          "type": "address"
        },
        {
          "indexed": true,
          "internalType": "uint64",
          "name": "requestId",
          "type": "uint64"
        },
        {
          "indexed": false,
          "internalType": "bytes32",
          "name": "transactionHash",
          "type": "bytes32"
        },
        {
          "indexed": false,
          "internalType": "uint256",
          "name": "redemptionAmountUBA",
          "type": "uint256"
        },
        {
          "indexed": false,
          "internalType": "int256",
          "name": "spentUnderlyingUBA",
          "type": "int256"
        }
      ],
      "name": "RedemptionPerformed",
      "type": "event"
    },
    {
      "anonymous": false,
      "inputs": [
        {
          "indexed": true,
          "internalType": "address",
          "name": "agentVault",
          "type": "address"
        },
        {
          "indexed": true,
          "internalType": "address",
          "name": "redeemer",
          "type": "address"
        },
        {
          "indexed": true,
          "internalType": "uint64",
          "name": "requestId",
          "type": "uint64"
        },
        {
          "indexed": false,
          "internalType": "uint256",
          "name": "redemptionAmountUBA",
          "type": "uint256"
        }
      ],
      "name": "RedemptionRejected",
      "type": "event"
    },
    {
      "anonymous": false,
      "inputs": [
        {
          "indexed": true,
          "internalType": "address",
          "name": "redeemer",
          "type": "address"
        },
        {
          "indexed": false,
          "internalType": "uint256",
          "name": "remainingLots",
          "type": "uint256"
        }
      ],
      "name": "RedemptionRequestIncomplete",
      "type": "event"
    },
    {
      "anonymous": false,
      "inputs": [
        {
          "indexed": true,
          "internalType": "address",
          "name": "agentVault",
          "type": "address"
        },
        {
          "indexed": true,
          "internalType": "address",
          "name": "redeemer",
          "type": "address"
        },
        {
          "indexed": true,
          "internalType": "uint64",
          "name": "requestId",
          "type": "uint64"
        }
      ],
      "name": "RedemptionRequestRejected",
      "type": "event"
    },
    {
      "anonymous": false,
      "inputs": [
        {
          "indexed": true,
          "internalType": "address",
          "name": "agentVault",
          "type": "address"
        },
        {
          "indexed": true,
          "internalType": "address",
          "name": "redeemer",
          "type": "address"
        },
        {
          "indexed": true,
          "internalType": "uint64",
          "name": "requestId",
          "type": "uint64"
        },
        {
          "indexed": false,
          "internalType": "uint256",
          "name": "valueTakenOverUBA",
          "type": "uint256"
        },
        {
          "indexed": false,
          "internalType": "address",
          "name": "newAgentVault",
          "type": "address"
        },
        {
          "indexed": false,
          "internalType": "uint64",
          "name": "newRequestId",
          "type": "uint64"
        }
      ],
      "name": "RedemptionRequestTakenOver",
      "type": "event"
    },
    {
      "anonymous": false,
      "inputs": [
        {
          "indexed": true,
          "internalType": "address",
          "name": "agentVault",
          "type": "address"
        },
        {
          "indexed": true,
          "internalType": "address",
          "name": "redeemer",
          "type": "address"
        },
        {
          "indexed": true,
          "internalType": "uint256",
          "name": "requestId",
          "type": "uint256"
        },
        {
          "indexed": false,
          "internalType": "string",
          "name": "paymentAddress",
          "type": "string"
        },
        {
          "indexed": false,
          "internalType": "uint256",
          "name": "valueUBA",
          "type": "uint256"
        },
        {
          "indexed": false,
          "internalType": "uint256",
          "name": "feeUBA",
          "type": "uint256"
        },
        {
          "indexed": false,
          "internalType": "uint256",
          "name": "firstUnderlyingBlock",
          "type": "uint256"
        },
        {
          "indexed": false,
          "internalType": "uint256",
          "name": "lastUnderlyingBlock",
          "type": "uint256"
        },
        {
          "indexed": false,
          "internalType": "uint256",
          "name": "lastUnderlyingTimestamp",
          "type": "uint256"
        },
        {
          "indexed": false,
          "internalType": "bytes32",
          "name": "paymentReference",
          "type": "bytes32"
        },
        {
          "indexed": false,
          "internalType": "address",
          "name": "executor",
          "type": "address"
        },
        {
          "indexed": false,
          "internalType": "uint256",
          "name": "executorFeeNatWei",
          "type": "uint256"
        }
      ],
      "name": "RedemptionRequested",
      "type": "event"
    },
    {
      "anonymous": false,
      "inputs": [
        {
          "indexed": true,
          "internalType": "address",
          "name": "agentVault",
          "type": "address"
        },
        {
          "indexed": true,
          "internalType": "uint256",
          "name": "redemptionTicketId",
          "type": "uint256"
        },
        {
          "indexed": false,
          "internalType": "uint256",
          "name": "ticketValueUBA",
          "type": "uint256"
        }
      ],
      "name": "RedemptionTicketCreated",
      "type": "event"
    },
    {
      "anonymous": false,
      "inputs": [
        {
          "indexed": true,
          "internalType": "address",
          "name": "agentVault",
          "type": "address"
        },
        {
          "indexed": true,
          "internalType": "uint256",
          "name": "redemptionTicketId",
          "type": "uint256"
        }
      ],
      "name": "RedemptionTicketDeleted",
      "type": "event"
    },
    {
      "anonymous": false,
      "inputs": [
        {
          "indexed": true,
          "internalType": "address",
          "name": "agentVault",
          "type": "address"
        },
        {
          "indexed": true,
          "internalType": "uint256",
          "name": "redemptionTicketId",
          "type": "uint256"
        },
        {
          "indexed": false,
          "internalType": "uint256",
          "name": "ticketValueUBA",
          "type": "uint256"
        }
      ],
      "name": "RedemptionTicketUpdated",
      "type": "event"
    },
    {
      "anonymous": false,
      "inputs": [
        {
          "indexed": true,
          "internalType": "address",
          "name": "agentVault",
          "type": "address"
        },
        {
          "indexed": false,
          "internalType": "uint256",
          "name": "valueUBA",
          "type": "uint256"
        }
      ],
      "name": "SelfClose",
      "type": "event"
    },
    {
      "anonymous": false,
      "inputs": [
        {
          "indexed": true,
          "internalType": "address",
          "name": "agentVault",
          "type": "address"
        },
        {
          "indexed": false,
          "internalType": "bool",
          "name": "mintFromFreeUnderlying",
          "type": "bool"
        },
        {
          "indexed": false,
          "internalType": "uint256",
          "name": "mintedAmountUBA",
          "type": "uint256"
        },
        {
          "indexed": false,
          "internalType": "uint256",
          "name": "depositedAmountUBA",
          "type": "uint256"
        },
        {
          "indexed": false,
          "internalType": "uint256",
          "name": "poolFeeUBA",
          "type": "uint256"
        }
      ],
      "name": "SelfMint",
      "type": "event"
    },
    {
      "anonymous": false,
      "inputs": [
        {
          "indexed": false,
          "internalType": "string",
          "name": "name",
          "type": "string"
        },
        {
          "indexed": false,
          "internalType": "uint256[]",
          "name": "value",
          "type": "uint256[]"
        }
      ],
      "name": "SettingArrayChanged",
      "type": "event"
    },
    {
      "anonymous": false,
      "inputs": [
        {
          "indexed": false,
          "internalType": "string",
          "name": "name",
          "type": "string"
        },
        {
          "indexed": false,
          "internalType": "uint256",
          "name": "value",
          "type": "uint256"
        }
      ],
      "name": "SettingChanged",
      "type": "event"
    },
    {
      "anonymous": false,
      "inputs": [
        {
          "indexed": false,
          "internalType": "bytes32",
          "name": "encodedCallHash",
          "type": "bytes32"
        }
      ],
      "name": "TimelockedGovernanceCallCanceled",
      "type": "event"
    },
    {
      "anonymous": false,
      "inputs": [
        {
          "indexed": false,
          "internalType": "bytes32",
          "name": "encodedCallHash",
          "type": "bytes32"
        }
      ],
      "name": "TimelockedGovernanceCallExecuted",
      "type": "event"
    },
    {
      "anonymous": false,
      "inputs": [
        {
          "indexed": true,
          "internalType": "address",
          "name": "agentVault",
          "type": "address"
        },
        {
          "indexed": false,
          "internalType": "int256",
          "name": "underlyingBalanceUBA",
          "type": "int256"
        }
      ],
      "name": "UnderlyingBalanceChanged",
      "type": "event"
    },
    {
      "anonymous": false,
      "inputs": [
        {
          "indexed": true,
          "internalType": "address",
          "name": "agentVault",
          "type": "address"
        },
        {
          "indexed": false,
          "internalType": "int256",
          "name": "balance",
          "type": "int256"
        },
        {
          "indexed": false,
          "internalType": "uint256",
          "name": "requiredBalance",
          "type": "uint256"
        }
      ],
      "name": "UnderlyingBalanceTooLow",
      "type": "event"
    },
    {
      "anonymous": false,
      "inputs": [
        {
          "indexed": true,
          "internalType": "address",
          "name": "agentVault",
          "type": "address"
        },
        {
          "indexed": false,
          "internalType": "bytes32",
          "name": "transactionHash",
          "type": "bytes32"
        },
        {
          "indexed": false,
          "internalType": "uint256",
          "name": "depositedUBA",
          "type": "uint256"
        }
      ],
      "name": "UnderlyingBalanceToppedUp",
      "type": "event"
    },
    {
      "anonymous": false,
      "inputs": [
        {
          "indexed": true,
          "internalType": "address",
          "name": "agentVault",
          "type": "address"
        },
        {
          "indexed": true,
          "internalType": "uint64",
          "name": "announcementId",
          "type": "uint64"
        },
        {
          "indexed": false,
          "internalType": "bytes32",
          "name": "paymentReference",
          "type": "bytes32"
        }
      ],
      "name": "UnderlyingWithdrawalAnnounced",
      "type": "event"
    },
    {
      "anonymous": false,
      "inputs": [
        {
          "indexed": true,
          "internalType": "address",
          "name": "agentVault",
          "type": "address"
        },
        {
          "indexed": true,
          "internalType": "uint64",
          "name": "announcementId",
          "type": "uint64"
        }
      ],
      "name": "UnderlyingWithdrawalCancelled",
      "type": "event"
    },
    {
      "anonymous": false,
      "inputs": [
        {
          "indexed": true,
          "internalType": "address",
          "name": "agentVault",
          "type": "address"
        },
        {
          "indexed": true,
          "internalType": "uint64",
          "name": "announcementId",
          "type": "uint64"
        },
        {
          "indexed": false,
          "internalType": "int256",
          "name": "spentUBA",
          "type": "int256"
        },
        {
          "indexed": false,
          "internalType": "bytes32",
          "name": "transactionHash",
          "type": "bytes32"
        }
      ],
      "name": "UnderlyingWithdrawalConfirmed",
      "type": "event"
    },
    {
      "anonymous": false,
      "inputs": [
        {
          "indexed": true,
          "internalType": "address",
          "name": "implementation",
          "type": "address"
        }
      ],
      "name": "Upgraded",
      "type": "event"
    },
    {
      "anonymous": false,
      "inputs": [
        {
          "indexed": true,
          "internalType": "address",
          "name": "agentVault",
          "type": "address"
        },
        {
          "indexed": false,
          "internalType": "uint256",
          "name": "amountWei",
          "type": "uint256"
        },
        {
          "indexed": false,
          "internalType": "uint256",
          "name": "withdrawalAllowedAt",
          "type": "uint256"
        }
      ],
      "name": "VaultCollateralWithdrawalAnnounced",
      "type": "event"
    },
    {
      "inputs": [
        {
          "internalType": "contract IIAssetManager",
          "name": "_assetManager",
          "type": "address"
        }
      ],
      "name": "addAssetManager",
      "outputs": [],
      "stateMutability": "nonpayable",
      "type": "function"
    },
    {
      "inputs": [
        {
          "internalType": "contract IIAssetManager[]",
          "name": "_assetManagers",
          "type": "address[]"
        },
        {
          "components": [
            {
              "internalType": "enum CollateralType.Class",
              "name": "collateralClass",
              "type": "uint8"
            },
            {
              "internalType": "contract IERC20",
              "name": "token",
              "type": "address"
            },
            {
              "internalType": "uint256",
              "name": "decimals",
              "type": "uint256"
            },
            {
              "internalType": "uint256",
              "name": "validUntil",
              "type": "uint256"
            },
            {
              "internalType": "bool",
              "name": "directPricePair",
              "type": "bool"
            },
            {
              "internalType": "string",
              "name": "assetFtsoSymbol",
              "type": "string"
            },
            {
              "internalType": "string",
              "name": "tokenFtsoSymbol",
              "type": "string"
            },
            {
              "internalType": "uint256",
              "name": "minCollateralRatioBIPS",
              "type": "uint256"
            },
            {
              "internalType": "uint256",
              "name": "ccbMinCollateralRatioBIPS",
              "type": "uint256"
            },
            {
              "internalType": "uint256",
              "name": "safetyMinCollateralRatioBIPS",
              "type": "uint256"
            }
          ],
          "internalType": "struct CollateralType.Data",
          "name": "_data",
          "type": "tuple"
        }
      ],
      "name": "addCollateralType",
      "outputs": [],
      "stateMutability": "nonpayable",
      "type": "function"
    },
    {
      "inputs": [
        {
          "internalType": "address",
          "name": "_address",
          "type": "address"
        }
      ],
      "name": "addEmergencyPauseSender",
      "outputs": [],
      "stateMutability": "nonpayable",
      "type": "function"
    },
    {
      "inputs": [
        {
          "internalType": "address",
          "name": "_assetManager",
          "type": "address"
        }
      ],
      "name": "assetManagerExists",
      "outputs": [
        {
          "internalType": "bool",
          "name": "",
          "type": "bool"
        }
      ],
      "stateMutability": "view",
      "type": "function"
    },
    {
      "inputs": [
        {
          "internalType": "bytes",
          "name": "_encodedCall",
          "type": "bytes"
        }
      ],
      "name": "cancelGovernanceCall",
      "outputs": [],
      "stateMutability": "nonpayable",
      "type": "function"
    },
    {
      "inputs": [
        {
          "internalType": "contract IIAssetManager[]",
          "name": "_assetManagers",
          "type": "address[]"
        },
        {
          "internalType": "enum CollateralType.Class",
          "name": "_class",
          "type": "uint8"
        },
        {
          "internalType": "contract IERC20",
          "name": "_token",
          "type": "address"
        },
        {
          "internalType": "uint256",
          "name": "_invalidationTimeSec",
          "type": "uint256"
        }
      ],
      "name": "deprecateCollateralType",
      "outputs": [],
      "stateMutability": "nonpayable",
      "type": "function"
    },
    {
      "inputs": [
        {
          "internalType": "contract IIAssetManager[]",
          "name": "_assetManagers",
          "type": "address[]"
        },
        {
          "internalType": "uint256",
          "name": "_duration",
          "type": "uint256"
        }
      ],
      "name": "emergencyPause",
      "outputs": [],
      "stateMutability": "nonpayable",
      "type": "function"
    },
    {
      "inputs": [
        {
          "internalType": "bytes",
          "name": "_encodedCall",
          "type": "bytes"
        }
      ],
      "name": "executeGovernanceCall",
      "outputs": [],
      "stateMutability": "nonpayable",
      "type": "function"
    },
    {
      "inputs": [],
      "name": "getAddressUpdater",
      "outputs": [
        {
          "internalType": "address",
          "name": "_addressUpdater",
          "type": "address"
        }
      ],
      "stateMutability": "view",
      "type": "function"
    },
    {
      "inputs": [],
      "name": "getAssetManagers",
      "outputs": [
        {
          "internalType": "contract IIAssetManager[]",
          "name": "",
          "type": "address[]"
        }
      ],
      "stateMutability": "view",
      "type": "function"
    },
    {
      "inputs": [],
      "name": "governance",
      "outputs": [
        {
          "internalType": "address",
          "name": "",
          "type": "address"
        }
      ],
      "stateMutability": "view",
      "type": "function"
    },
    {
      "inputs": [],
      "name": "governanceSettings",
      "outputs": [
        {
          "internalType": "contract IGovernanceSettings",
          "name": "",
          "type": "address"
        }
      ],
      "stateMutability": "view",
      "type": "function"
    },
    {
      "inputs": [
        {
          "internalType": "contract IGovernanceSettings",
          "name": "_governanceSettings",
          "type": "address"
        },
        {
          "internalType": "address",
          "name": "_initialGovernance",
          "type": "address"
        }
      ],
      "name": "initialise",
      "outputs": [],
      "stateMutability": "nonpayable",
      "type": "function"
    },
    {
      "inputs": [
        {
          "internalType": "contract IGovernanceSettings",
          "name": "_governanceSettings",
          "type": "address"
        },
        {
          "internalType": "address",
          "name": "_initialGovernance",
          "type": "address"
        },
        {
          "internalType": "address",
          "name": "_addressUpdater",
          "type": "address"
        }
      ],
      "name": "initialize",
      "outputs": [],
      "stateMutability": "nonpayable",
      "type": "function"
    },
    {
      "inputs": [
        {
          "internalType": "address",
          "name": "_address",
          "type": "address"
        }
      ],
      "name": "isExecutor",
      "outputs": [
        {
          "internalType": "bool",
          "name": "",
          "type": "bool"
        }
      ],
      "stateMutability": "view",
      "type": "function"
    },
    {
      "inputs": [
        {
          "internalType": "contract IIAssetManager[]",
          "name": "_assetManagers",
          "type": "address[]"
        }
      ],
      "name": "pauseMinting",
      "outputs": [],
      "stateMutability": "nonpayable",
      "type": "function"
    },
    {
      "inputs": [],
      "name": "productionMode",
      "outputs": [
        {
          "internalType": "bool",
          "name": "",
          "type": "bool"
        }
      ],
      "stateMutability": "view",
      "type": "function"
    },
    {
      "inputs": [],
      "name": "proxiableUUID",
      "outputs": [
        {
          "internalType": "bytes32",
          "name": "",
          "type": "bytes32"
        }
      ],
      "stateMutability": "view",
      "type": "function"
    },
    {
      "inputs": [
        {
          "internalType": "contract IIAssetManager",
          "name": "_assetManager",
          "type": "address"
        }
      ],
      "name": "removeAssetManager",
      "outputs": [],
      "stateMutability": "nonpayable",
      "type": "function"
    },
    {
      "inputs": [
        {
          "internalType": "address",
          "name": "_address",
          "type": "address"
        }
      ],
      "name": "removeEmergencyPauseSender",
      "outputs": [],
      "stateMutability": "nonpayable",
      "type": "function"
    },
    {
      "inputs": [],
      "name": "replacedBy",
      "outputs": [
        {
          "internalType": "address",
          "name": "",
          "type": "address"
        }
      ],
      "stateMutability": "view",
      "type": "function"
    },
    {
      "inputs": [
        {
          "internalType": "contract IIAssetManager[]",
          "name": "_assetManagers",
          "type": "address[]"
        }
      ],
      "name": "resetEmergencyPauseTotalDuration",
      "outputs": [],
      "stateMutability": "nonpayable",
      "type": "function"
    },
    {
      "inputs": [
        {
          "internalType": "contract IIAssetManager[]",
          "name": "_assetManagers",
          "type": "address[]"
        },
        {
          "internalType": "uint256",
          "name": "_value",
          "type": "uint256"
        }
      ],
      "name": "setAgentExitAvailableTimelockSeconds",
      "outputs": [],
      "stateMutability": "nonpayable",
      "type": "function"
    },
    {
      "inputs": [
        {
          "internalType": "contract IIAssetManager[]",
          "name": "_assetManagers",
          "type": "address[]"
        },
        {
          "internalType": "uint256",
          "name": "_value",
          "type": "uint256"
        }
      ],
      "name": "setAgentFeeChangeTimelockSeconds",
      "outputs": [],
      "stateMutability": "nonpayable",
      "type": "function"
    },
    {
      "inputs": [
        {
          "internalType": "contract IIAssetManager[]",
          "name": "_assetManagers",
          "type": "address[]"
        },
        {
          "internalType": "uint256",
          "name": "_value",
          "type": "uint256"
        }
      ],
      "name": "setAgentMintingCRChangeTimelockSeconds",
      "outputs": [],
      "stateMutability": "nonpayable",
      "type": "function"
    },
    {
      "inputs": [
        {
          "internalType": "contract IIAssetManager[]",
          "name": "_assetManagers",
          "type": "address[]"
        },
        {
          "internalType": "address",
          "name": "_value",
          "type": "address"
        }
      ],
      "name": "setAgentOwnerRegistry",
      "outputs": [],
      "stateMutability": "nonpayable",
      "type": "function"
    },
    {
      "inputs": [
        {
          "internalType": "contract IIAssetManager[]",
          "name": "_assetManagers",
          "type": "address[]"
        },
        {
          "internalType": "uint256",
          "name": "_value",
          "type": "uint256"
        }
      ],
      "name": "setAgentTimelockedOperationWindowSeconds",
      "outputs": [],
      "stateMutability": "nonpayable",
      "type": "function"
    },
    {
      "inputs": [
        {
          "internalType": "contract IIAssetManager[]",
          "name": "_assetManagers",
          "type": "address[]"
        },
        {
          "internalType": "address",
          "name": "_value",
          "type": "address"
        }
      ],
      "name": "setAgentVaultFactory",
      "outputs": [],
      "stateMutability": "nonpayable",
      "type": "function"
    },
    {
      "inputs": [
        {
          "internalType": "contract IIAssetManager[]",
          "name": "_assetManagers",
          "type": "address[]"
        },
        {
          "internalType": "uint256",
          "name": "_value",
          "type": "uint256"
        }
      ],
      "name": "setAnnouncedUnderlyingConfirmationMinSeconds",
      "outputs": [],
      "stateMutability": "nonpayable",
      "type": "function"
    },
    {
      "inputs": [
        {
          "internalType": "contract IIAssetManager[]",
          "name": "_assetManagers",
          "type": "address[]"
        },
        {
          "internalType": "uint256",
          "name": "_value",
          "type": "uint256"
        }
      ],
      "name": "setAttestationWindowSeconds",
      "outputs": [],
      "stateMutability": "nonpayable",
      "type": "function"
    },
    {
      "inputs": [
        {
          "internalType": "contract IIAssetManager[]",
          "name": "_assetManagers",
          "type": "address[]"
        },
        {
          "internalType": "uint256",
          "name": "_value",
          "type": "uint256"
        }
      ],
      "name": "setAverageBlockTimeMS",
      "outputs": [],
      "stateMutability": "nonpayable",
      "type": "function"
    },
    {
      "inputs": [
        {
          "internalType": "contract IIAssetManager[]",
          "name": "_assetManagers",
          "type": "address[]"
        },
        {
          "internalType": "uint256",
          "name": "_value",
          "type": "uint256"
        }
      ],
      "name": "setCancelCollateralReservationAfterSeconds",
      "outputs": [],
      "stateMutability": "nonpayable",
      "type": "function"
    },
    {
      "inputs": [
        {
          "internalType": "contract IIAssetManager[]",
          "name": "_assetManagers",
          "type": "address[]"
        },
        {
          "internalType": "uint256",
          "name": "_value",
          "type": "uint256"
        }
      ],
      "name": "setCcbTimeSeconds",
      "outputs": [],
      "stateMutability": "nonpayable",
      "type": "function"
    },
    {
      "inputs": [
        {
          "internalType": "contract IIAssetManager[]",
          "name": "_assetManagers",
          "type": "address[]"
        },
        {
          "internalType": "address",
          "name": "_value",
          "type": "address"
        }
      ],
      "name": "setCleanerContract",
      "outputs": [],
      "stateMutability": "nonpayable",
      "type": "function"
    },
    {
      "inputs": [
        {
          "internalType": "contract IIAssetManager[]",
          "name": "_assetManagers",
          "type": "address[]"
        },
        {
          "internalType": "address",
          "name": "_value",
          "type": "address"
        }
      ],
      "name": "setCleanupBlockNumberManager",
      "outputs": [],
      "stateMutability": "nonpayable",
      "type": "function"
    },
    {
      "inputs": [
        {
          "internalType": "contract IIAssetManager[]",
          "name": "_assetManagers",
          "type": "address[]"
        },
        {
          "internalType": "address",
          "name": "_value",
          "type": "address"
        }
      ],
      "name": "setCollateralPoolFactory",
      "outputs": [],
      "stateMutability": "nonpayable",
      "type": "function"
    },
    {
      "inputs": [
        {
          "internalType": "contract IIAssetManager[]",
          "name": "_assetManagers",
          "type": "address[]"
        },
        {
          "internalType": "address",
          "name": "_value",
          "type": "address"
        }
      ],
      "name": "setCollateralPoolTokenFactory",
      "outputs": [],
      "stateMutability": "nonpayable",
      "type": "function"
    },
    {
      "inputs": [
        {
          "internalType": "contract IIAssetManager[]",
          "name": "_assetManagers",
          "type": "address[]"
        },
        {
          "internalType": "uint256",
          "name": "_value",
          "type": "uint256"
        }
      ],
      "name": "setCollateralPoolTokenTimelockSeconds",
      "outputs": [],
      "stateMutability": "nonpayable",
      "type": "function"
    },
    {
      "inputs": [
        {
          "internalType": "contract IIAssetManager[]",
          "name": "_assetManagers",
          "type": "address[]"
        },
        {
          "internalType": "enum CollateralType.Class",
          "name": "_class",
          "type": "uint8"
        },
        {
          "internalType": "contract IERC20",
          "name": "_token",
          "type": "address"
        },
        {
          "internalType": "uint256",
          "name": "_minCollateralRatioBIPS",
          "type": "uint256"
        },
        {
          "internalType": "uint256",
          "name": "_ccbMinCollateralRatioBIPS",
          "type": "uint256"
        },
        {
          "internalType": "uint256",
          "name": "_safetyMinCollateralRatioBIPS",
          "type": "uint256"
        }
      ],
      "name": "setCollateralRatiosForToken",
      "outputs": [],
      "stateMutability": "nonpayable",
      "type": "function"
    },
    {
      "inputs": [
        {
          "internalType": "contract IIAssetManager[]",
          "name": "_assetManagers",
          "type": "address[]"
        },
        {
          "internalType": "uint256",
          "name": "_value",
          "type": "uint256"
        }
      ],
      "name": "setCollateralReservationFeeBips",
      "outputs": [],
      "stateMutability": "nonpayable",
      "type": "function"
    },
    {
      "inputs": [
        {
          "internalType": "contract IIAssetManager[]",
          "name": "_assetManagers",
          "type": "address[]"
        },
        {
          "internalType": "uint256",
          "name": "_value",
          "type": "uint256"
        }
      ],
      "name": "setConfirmationByOthersAfterSeconds",
      "outputs": [],
      "stateMutability": "nonpayable",
      "type": "function"
    },
    {
      "inputs": [
        {
          "internalType": "contract IIAssetManager[]",
          "name": "_assetManagers",
          "type": "address[]"
        },
        {
          "internalType": "uint256",
          "name": "_value",
          "type": "uint256"
        }
      ],
      "name": "setConfirmationByOthersRewardUSD5",
      "outputs": [],
      "stateMutability": "nonpayable",
      "type": "function"
    },
    {
      "inputs": [
        {
          "internalType": "contract IIAssetManager[]",
          "name": "_assetManagers",
          "type": "address[]"
        },
        {
          "internalType": "uint256",
          "name": "_value",
          "type": "uint256"
        }
      ],
      "name": "setEmergencyPauseDurationResetAfterSeconds",
      "outputs": [],
      "stateMutability": "nonpayable",
      "type": "function"
    },
    {
      "inputs": [
        {
          "internalType": "contract IIAssetManager[]",
          "name": "_assetManagers",
          "type": "address[]"
        },
        {
          "internalType": "address",
          "name": "_value",
          "type": "address"
        }
      ],
      "name": "setFdcVerification",
      "outputs": [],
      "stateMutability": "nonpayable",
      "type": "function"
    },
    {
      "inputs": [
        {
          "internalType": "contract IIAssetManager[]",
          "name": "_assetManagers",
          "type": "address[]"
        },
        {
          "internalType": "uint256[]",
          "name": "_paymentFactors",
          "type": "uint256[]"
        },
        {
          "internalType": "uint256[]",
          "name": "_vaultCollateralFactors",
          "type": "uint256[]"
        }
      ],
      "name": "setLiquidationPaymentFactors",
      "outputs": [],
      "stateMutability": "nonpayable",
      "type": "function"
    },
    {
      "inputs": [
        {
          "internalType": "contract IIAssetManager[]",
          "name": "_assetManagers",
          "type": "address[]"
        },
        {
          "internalType": "uint256",
          "name": "_value",
          "type": "uint256"
        }
      ],
      "name": "setLiquidationStepSeconds",
      "outputs": [],
      "stateMutability": "nonpayable",
      "type": "function"
    },
    {
      "inputs": [
        {
          "internalType": "contract IIAssetManager[]",
          "name": "_assetManagers",
          "type": "address[]"
        },
        {
          "internalType": "uint256",
          "name": "_value",
          "type": "uint256"
        }
      ],
      "name": "setLotSizeAmg",
      "outputs": [],
      "stateMutability": "nonpayable",
      "type": "function"
    },
    {
      "inputs": [
        {
          "internalType": "contract IIAssetManager[]",
          "name": "_assetManagers",
          "type": "address[]"
        },
        {
          "internalType": "uint256",
          "name": "_value",
          "type": "uint256"
        }
      ],
      "name": "setMaxEmergencyPauseDurationSeconds",
      "outputs": [],
      "stateMutability": "nonpayable",
      "type": "function"
    },
    {
      "inputs": [
        {
          "internalType": "contract IIAssetManager[]",
          "name": "_assetManagers",
          "type": "address[]"
        },
        {
          "internalType": "uint256",
          "name": "_value",
          "type": "uint256"
        }
      ],
      "name": "setMaxRedeemedTickets",
      "outputs": [],
      "stateMutability": "nonpayable",
      "type": "function"
    },
    {
      "inputs": [
        {
          "internalType": "contract IIAssetManager[]",
          "name": "_assetManagers",
          "type": "address[]"
        },
        {
          "internalType": "uint256",
          "name": "_value",
          "type": "uint256"
        }
      ],
      "name": "setMaxTrustedPriceAgeSeconds",
      "outputs": [],
      "stateMutability": "nonpayable",
      "type": "function"
    },
    {
      "inputs": [
        {
          "internalType": "contract IIAssetManager[]",
          "name": "_assetManagers",
          "type": "address[]"
        },
        {
          "internalType": "uint256",
          "name": "_value",
          "type": "uint256"
        }
      ],
      "name": "setMinUnderlyingBackingBips",
      "outputs": [],
      "stateMutability": "nonpayable",
      "type": "function"
    },
    {
      "inputs": [
        {
          "internalType": "contract IIAssetManager[]",
          "name": "_assetManagers",
          "type": "address[]"
        },
        {
          "internalType": "uint256",
          "name": "_value",
          "type": "uint256"
        }
      ],
      "name": "setMinUpdateRepeatTimeSeconds",
      "outputs": [],
      "stateMutability": "nonpayable",
      "type": "function"
    },
    {
      "inputs": [
        {
          "internalType": "contract IIAssetManager[]",
          "name": "_assetManagers",
          "type": "address[]"
        },
        {
          "internalType": "uint256",
          "name": "_value",
          "type": "uint256"
        }
      ],
      "name": "setMintingCapAmg",
      "outputs": [],
      "stateMutability": "nonpayable",
      "type": "function"
    },
    {
      "inputs": [
        {
          "internalType": "contract IIAssetManager[]",
          "name": "_assetManagers",
          "type": "address[]"
        },
        {
          "internalType": "uint256",
          "name": "_value",
          "type": "uint256"
        }
      ],
      "name": "setMintingPoolHoldingsRequiredBIPS",
      "outputs": [],
      "stateMutability": "nonpayable",
      "type": "function"
    },
    {
      "inputs": [
        {
          "internalType": "contract IIAssetManager[]",
          "name": "_assetManagers",
          "type": "address[]"
        },
        {
          "internalType": "uint256",
          "name": "_rewardVaultCollateralWei",
          "type": "uint256"
        },
        {
          "internalType": "uint256",
          "name": "_rewardBIPS",
          "type": "uint256"
        }
      ],
      "name": "setPaymentChallengeReward",
      "outputs": [],
      "stateMutability": "nonpayable",
      "type": "function"
    },
    {
      "inputs": [
        {
          "internalType": "contract IIAssetManager[]",
          "name": "_assetManagers",
          "type": "address[]"
        },
        {
          "internalType": "uint256",
          "name": "_value",
          "type": "uint256"
        }
      ],
      "name": "setPoolExitAndTopupChangeTimelockSeconds",
      "outputs": [],
      "stateMutability": "nonpayable",
      "type": "function"
    },
    {
      "inputs": [
        {
          "internalType": "contract IIAssetManager[]",
          "name": "_assetManagers",
          "type": "address[]"
        },
        {
          "internalType": "address",
          "name": "_value",
          "type": "address"
        }
      ],
      "name": "setPriceReader",
      "outputs": [],
      "stateMutability": "nonpayable",
      "type": "function"
    },
    {
      "inputs": [
        {
          "internalType": "contract IIAssetManager[]",
          "name": "_assetManagers",
          "type": "address[]"
        },
        {
          "internalType": "uint256",
          "name": "_vaultF",
          "type": "uint256"
        },
        {
          "internalType": "uint256",
          "name": "_poolF",
          "type": "uint256"
        }
      ],
      "name": "setRedemptionDefaultFactorBips",
      "outputs": [],
      "stateMutability": "nonpayable",
      "type": "function"
    },
    {
      "inputs": [
        {
          "internalType": "contract IIAssetManager[]",
          "name": "_assetManagers",
          "type": "address[]"
        },
        {
          "internalType": "uint256",
          "name": "_value",
          "type": "uint256"
        }
      ],
      "name": "setRedemptionFeeBips",
      "outputs": [],
      "stateMutability": "nonpayable",
      "type": "function"
    },
    {
      "inputs": [
        {
          "internalType": "contract IIAssetManager[]",
          "name": "_assetManagers",
          "type": "address[]"
        },
        {
          "internalType": "uint256",
          "name": "_value",
          "type": "uint256"
        }
      ],
      "name": "setRedemptionPaymentExtensionSeconds",
      "outputs": [],
      "stateMutability": "nonpayable",
      "type": "function"
    },
    {
      "inputs": [
        {
          "internalType": "contract IIAssetManager[]",
          "name": "_assetManagers",
          "type": "address[]"
        },
        {
          "internalType": "uint256",
          "name": "_value",
          "type": "uint256"
        }
      ],
      "name": "setRejectRedemptionRequestWindowSeconds",
      "outputs": [],
      "stateMutability": "nonpayable",
      "type": "function"
    },
    {
      "inputs": [
        {
          "internalType": "contract IIAssetManager[]",
          "name": "_assetManagers",
          "type": "address[]"
        },
        {
          "internalType": "uint256",
          "name": "_vaultF",
          "type": "uint256"
        },
        {
          "internalType": "uint256",
          "name": "_poolF",
          "type": "uint256"
        }
      ],
      "name": "setRejectedRedemptionDefaultFactorBips",
      "outputs": [],
      "stateMutability": "nonpayable",
      "type": "function"
    },
    {
      "inputs": [
        {
          "internalType": "contract IIAssetManager[]",
          "name": "_assetManagers",
          "type": "address[]"
        },
        {
          "internalType": "uint256",
          "name": "_value",
          "type": "uint256"
        }
      ],
      "name": "setTakeOverRedemptionRequestWindowSeconds",
      "outputs": [],
      "stateMutability": "nonpayable",
      "type": "function"
    },
    {
      "inputs": [
        {
          "internalType": "contract IIAssetManager[]",
          "name": "_assetManagers",
          "type": "address[]"
        },
        {
          "internalType": "uint256",
          "name": "_underlyingBlocks",
          "type": "uint256"
        },
        {
          "internalType": "uint256",
          "name": "_underlyingSeconds",
          "type": "uint256"
        }
      ],
      "name": "setTimeForPayment",
      "outputs": [],
      "stateMutability": "nonpayable",
      "type": "function"
    },
    {
      "inputs": [
        {
          "internalType": "contract IIAssetManager[]",
          "name": "_assetManagers",
          "type": "address[]"
        },
        {
          "internalType": "uint256",
          "name": "_value",
          "type": "uint256"
        }
      ],
      "name": "setTokenInvalidationTimeMinSeconds",
      "outputs": [],
      "stateMutability": "nonpayable",
      "type": "function"
    },
    {
      "inputs": [
        {
          "internalType": "contract IIAssetManager[]",
          "name": "_assetManagers",
          "type": "address[]"
        },
        {
          "internalType": "uint256",
          "name": "_value",
          "type": "uint256"
        },
        {
          "internalType": "uint256",
          "name": "_scheduledAt",
          "type": "uint256"
        }
      ],
      "name": "setTransferFeeMillionths",
      "outputs": [],
      "stateMutability": "nonpayable",
      "type": "function"
    },
    {
      "inputs": [
        {
          "internalType": "contract IIAssetManager[]",
          "name": "_assetManagers",
          "type": "address[]"
        },
        {
          "internalType": "uint256",
          "name": "_value",
          "type": "uint256"
        }
      ],
      "name": "setVaultCollateralBuyForFlareFactorBIPS",
      "outputs": [],
      "stateMutability": "nonpayable",
      "type": "function"
    },
    {
      "inputs": [
        {
          "internalType": "contract IIAssetManager[]",
          "name": "_assetManagers",
          "type": "address[]"
        },
        {
          "internalType": "address",
          "name": "_value",
          "type": "address"
        }
      ],
      "name": "setWhitelist",
      "outputs": [],
      "stateMutability": "nonpayable",
      "type": "function"
    },
    {
      "inputs": [
        {
          "internalType": "contract IIAssetManager[]",
          "name": "_assetManagers",
          "type": "address[]"
        },
        {
          "internalType": "uint256",
          "name": "_value",
          "type": "uint256"
        }
      ],
      "name": "setWithdrawalOrDestroyWaitMinSeconds",
      "outputs": [],
      "stateMutability": "nonpayable",
      "type": "function"
    },
    {
      "inputs": [
        {
          "internalType": "bytes4",
          "name": "_interfaceId",
          "type": "bytes4"
        }
      ],
      "name": "supportsInterface",
      "outputs": [
        {
          "internalType": "bool",
          "name": "",
          "type": "bool"
        }
      ],
      "stateMutability": "pure",
      "type": "function"
    },
    {
      "inputs": [],
      "name": "switchToProductionMode",
      "outputs": [],
      "stateMutability": "nonpayable",
      "type": "function"
    },
    {
      "inputs": [
        {
          "internalType": "contract IIAssetManager[]",
          "name": "_assetManagers",
          "type": "address[]"
        }
      ],
      "name": "terminate",
      "outputs": [],
      "stateMutability": "nonpayable",
      "type": "function"
    },
    {
      "inputs": [
        {
          "internalType": "contract IIAssetManager[]",
          "name": "_assetManagers",
          "type": "address[]"
        }
      ],
      "name": "unpauseMinting",
      "outputs": [],
      "stateMutability": "nonpayable",
      "type": "function"
    },
    {
      "inputs": [
        {
          "internalType": "bytes32[]",
          "name": "_contractNameHashes",
          "type": "bytes32[]"
        },
        {
          "internalType": "address[]",
          "name": "_contractAddresses",
          "type": "address[]"
        }
      ],
      "name": "updateContractAddresses",
      "outputs": [],
      "stateMutability": "nonpayable",
      "type": "function"
    },
    {
      "inputs": [
        {
          "internalType": "contract IIAssetManager[]",
          "name": "_assetManagers",
          "type": "address[]"
        }
      ],
      "name": "updateContracts",
      "outputs": [],
      "stateMutability": "nonpayable",
      "type": "function"
    },
    {
      "inputs": [
        {
          "internalType": "contract IIAssetManager[]",
          "name": "_assetManagers",
          "type": "address[]"
        },
        {
          "internalType": "address",
          "name": "_implementation",
          "type": "address"
        },
        {
          "internalType": "bytes",
          "name": "_callData",
          "type": "bytes"
        }
      ],
      "name": "upgradeFAssetImplementation",
      "outputs": [],
      "stateMutability": "nonpayable",
      "type": "function"
    },
    {
      "inputs": [
        {
          "internalType": "address",
          "name": "newImplementation",
          "type": "address"
        }
      ],
      "name": "upgradeTo",
      "outputs": [],
      "stateMutability": "nonpayable",
      "type": "function"
    },
    {
      "inputs": [
        {
          "internalType": "address",
          "name": "newImplementation",
          "type": "address"
        },
        {
          "internalType": "bytes",
          "name": "data",
          "type": "bytes"
        }
      ],
      "name": "upgradeToAndCall",
      "outputs": [],
      "stateMutability": "payable",
      "type": "function"
    }
  ],
  "bytecode": "0x60a0604052306080523480156200001557600080fd5b506000620000266111118062000056565b6200004f817f714f205b2abd25bef1d06a1af944e38c113fe6160375c4e1d6d5cf28848e771955565b50620001ef565b7f2aa47ee5db910f3b2a06970c443249cc77dbd9f96100cfebc1775ab7fb1d18248054600160a01b900460ff1615620000d65760405162461bcd60e51b815260206004820152601460248201527f696e697469616c6973656420213d2066616c736500000000000000000000000060448201526064015b60405180910390fd5b6001600160a01b0383166200012e5760405162461bcd60e51b815260206004820152601860248201527f676f7665726e616e63652073657474696e6773207a65726f00000000000000006044820152606401620000cd565b6001600160a01b038216620001795760405162461bcd60e51b815260206004820152601060248201526f5f676f7665726e616e6365207a65726f60801b6044820152606401620000cd565b80546001600160a01b038481166001600160a81b031990921691909117600160a01b1782556001820180549184166001600160a01b0319909216821790556040519081527f9789733827840833afc031fb2ef9ab6894271f77bad2085687cf4ae5c7bee4db9060200160405180910390a1505050565b608051614312620002276000396000818161163401528181611674015281816117b1015281816117f1015261187a01526143126000f3fe60806040526004361061045d5760003560e01c80638ca061d41161023f578063ccfb791111610139578063e77ebcab116100b6578063ef88bf131161007a578063ef88bf1314610db5578063efa3d7eb14610dd5578063efe058ef14610df5578063f5a9838314610e15578063f603bf9814610e2a57600080fd5b8063e77ebcab14610d15578063e789e7d414610d35578063ec8e316114610d55578063eddaf29314610d75578063ef098e5514610d9557600080fd5b8063d48b75f6116100fd578063d48b75f614610c69578063debfda3014610c89578063dede95f114610ca9578063e17f212e14610cc9578063e49ee36d14610cf557600080fd5b8063ccfb791114610bc9578063d0c391b514610be9578063d13e499d14610c09578063d285a63614610c29578063d2e5781214610c4957600080fd5b8063b00c0b76116101c7578063be46c73d1161018b578063be46c73d14610b29578063c0c53b8b14610b49578063c38ec41814610b69578063c56e378414610b89578063c6c257cb14610ba957600080fd5b8063b00c0b7614610a87578063b4c0a33314610aa7578063b577fc7614610ac7578063b87b82f014610ae7578063bb6f41b314610b0957600080fd5b8063a391dd9c1161020e578063a391dd9c146109e7578063a6a24e2514610a07578063a82ee3d514610a27578063aeb4155514610a47578063af823a2714610a6757600080fd5b80638ca061d41461096757806397d2fcc614610987578063987ea899146109a75780639e1508a1146109c757600080fd5b806344944a9b1161035b5780635cce89ea116102d8578063758f07f21161029c578063758f07f2146108af578063763d1a16146108cf5780637ad62f51146108ef5780637c703e13146109275780637e3566fe1461094757600080fd5b80635cce89ea1461081a578063617637aa1461083a57806362354e031461085a5780636b76ab0e1461086f5780636f1f1fc01461088f57600080fd5b80635267a15d1161031f5780635267a15d1461076c57806352d1902d146107a2578063556d5118146107c55780635aa6e675146107e55780635b5bad73146107fa57600080fd5b806344944a9b146106d957806347956606146106f95780634a79bc9f146107195780634f1ef28614610739578063512410601461074c57600080fd5b806320c5f99d116103e95780632d5846da116103ad5780632d5846da1461063957806334dc393214610659578063358bca77146106795780633659cfe61461069957806340b9d6b0146106b957600080fd5b806320c5f99d1461059957806326a9055b146105b957806326df3d0c146105d95780632aedabe4146105f95780632af713fc1461061957600080fd5b80630a3eb874116104305780630a3eb874146104f9578063115a6e151461051957806316fc2f6d14610539578063171898fe14610559578063207566711461057957600080fd5b80630117d9871461046257806301ffc9a7146104845780630207aff2146104b957806305a1790a146104d9575b600080fd5b34801561046e57600080fd5b5061048261047d3660046136ae565b610e4a565b005b34801561049057600080fd5b506104a461049f3660046136f2565b610e82565b60405190151581526020015b60405180910390f35b3480156104c557600080fd5b506104826104d43660046136ae565b610eb9565b3480156104e557600080fd5b506104826104f436600461371c565b610ed3565b34801561050557600080fd5b506104826105143660046136ae565b610f1f565b34801561052557600080fd5b506104826105343660046136ae565b610f39565b34801561054557600080fd5b50610482610554366004613787565b610f53565b34801561056557600080fd5b506104826105743660046137f8565b61103b565b34801561058557600080fd5b506104826105943660046136ae565b61104e565b3480156105a557600080fd5b506104826105b4366004613787565b611075565b3480156105c557600080fd5b506104826105d43660046136ae565b611264565b3480156105e557600080fd5b506104826105f43660046136ae565b61127e565b34801561060557600080fd5b506104826106143660046136ae565b61135e565b34801561062557600080fd5b50610482610634366004613815565b611378565b34801561064557600080fd5b506104826106543660046136ae565b61139f565b34801561066557600080fd5b506104826106743660046136ae565b6113b9565b34801561068557600080fd5b506104826106943660046137f8565b6113d3565b3480156106a557600080fd5b506104826106b43660046137f8565b611615565b3480156106c557600080fd5b506104826106d43660046136ae565b6116e6565b3480156106e557600080fd5b506104826106f436600461385b565b611700565b34801561070557600080fd5b506104826107143660046136ae565b611751565b34801561072557600080fd5b50610482610734366004613815565b61176b565b610482610747366004613917565b611792565b34801561075857600080fd5b506104826107673660046136ae565b611853565b34801561077857600080fd5b50600080516020614256833981519152545b6040516001600160a01b0390911681526020016104b0565b3480156107ae57600080fd5b506107b761186d565b6040519081526020016104b0565b3480156107d157600080fd5b506104826107e03660046136ae565b611920565b3480156107f157600080fd5b5061078a61193a565b34801561080657600080fd5b50610482610815366004613966565b6119e3565b34801561082657600080fd5b506104826108353660046136ae565b611a51565b34801561084657600080fd5b506104826108553660046136ae565b611a6b565b34801561086657600080fd5b5061078a611a85565b34801561087b57600080fd5b5061048261088a366004613966565b611aa6565b34801561089b57600080fd5b506104826108aa3660046136ae565b611b14565b3480156108bb57600080fd5b506104826108ca3660046136ae565b611b3b565b3480156108db57600080fd5b506104826108ea366004613a27565b611b55565b3480156108fb57600080fd5b506104a461090a3660046137f8565b6001600160a01b0316600090815260016020526040902054151590565b34801561093357600080fd5b506104826109423660046136ae565b611bbd565b34801561095357600080fd5b506104826109623660046136ae565b611bd7565b34801561097357600080fd5b50610482610982366004613acd565b611bf1565b34801561099357600080fd5b506104826109a2366004613815565b611c64565b3480156109b357600080fd5b506104826109c23660046137f8565b611c8b565b3480156109d357600080fd5b506104826109e23660046136ae565b611de6565b3480156109f357600080fd5b50610482610a0236600461385b565b611e0d565b348015610a1357600080fd5b50610482610a22366004613815565b611e6b565b348015610a3357600080fd5b50610482610a423660046136ae565b611e92565b348015610a5357600080fd5b50610482610a623660046136ae565b611eac565b348015610a7357600080fd5b50610482610a82366004613815565b611ec6565b348015610a9357600080fd5b50610482610aa2366004613b48565b611eed565b348015610ab357600080fd5b50610482610ac2366004613bf6565b611fa4565b348015610ad357600080fd5b5060005461078a906001600160a01b031681565b348015610af357600080fd5b50610afc611ff3565b6040516104b09190613c5d565b348015610b1557600080fd5b50610482610b24366004613815565b612055565b348015610b3557600080fd5b50610482610b443660046136ae565b61207c565b348015610b5557600080fd5b50610482610b64366004613caa565b612096565b348015610b7557600080fd5b50610482610b843660046136ae565b6120b6565b348015610b9557600080fd5b50610482610ba43660046136ae565b6120cf565b348015610bb557600080fd5b50610482610bc43660046137f8565b6120e9565b348015610bd557600080fd5b50610482610be43660046136ae565b6120fc565b348015610bf557600080fd5b50610482610c043660046136ae565b612123565b348015610c1557600080fd5b50610482610c24366004613966565b61214a565b348015610c3557600080fd5b50610482610c443660046136ae565b6123be565b348015610c5557600080fd5b50610482610c6436600461385b565b6123e5565b348015610c7557600080fd5b50610482610c84366004613815565b612436565b348015610c9557600080fd5b506104a4610ca43660046137f8565b61245d565b348015610cb557600080fd5b50610482610cc43660046136ae565b6124f7565b348015610cd557600080fd5b506000805160206142bd83398151915254600160a81b900460ff166104a4565b348015610d0157600080fd5b50610482610d10366004613cf5565b612511565b348015610d2157600080fd5b50610482610d303660046136ae565b61254d565b348015610d4157600080fd5b50610482610d50366004613d29565b612574565b348015610d6157600080fd5b50610482610d70366004613815565b6125cf565b348015610d8157600080fd5b50610482610d9036600461385b565b6125f6565b348015610da157600080fd5b50610482610db0366004613815565b612647565b348015610dc157600080fd5b50610482610dd0366004613d96565b612661565b348015610de157600080fd5b50610482610df03660046136ae565b6127d5565b348015610e0157600080fd5b50610482610e10366004613966565b6127ef565b348015610e2157600080fd5b5061048261285d565b348015610e3657600080fd5b50610482610e4536600461385b565b612931565b610e52612982565b15610e7557610e5f6129b8565b610e718263050f443960e01b836129fc565b5050565b610e716000366000612a4b565b60006001600160e01b031982166301ffc9a760e01b1480610eb357506001600160e01b0319821663580605bb60e11b145b92915050565b610ec1612b62565b610e718263d074339560e01b836129fc565b610edb612b62565b610e718282604051602401610ef09190613e74565b60408051601f198184030181529190526020810180516001600160e01b031663eebbcd5560e01b179052612bbe565b610f27612b62565b610e7182636dc30beb60e11b836129fc565b610f41612b62565b610e71826302c06abf60e41b836129fc565b610f5b612b62565b6040516000805160206142bd83398151915290600090610f7e9085908590613f4f565b6040518091039020905081600201600082815260200190815260200160002054600003610ff25760405162461bcd60e51b815260206004820152601a60248201527f74696d656c6f636b3a20696e76616c69642073656c6563746f7200000000000060448201526064015b60405180910390fd5b6040518181527f69b058d6225c01c1f2a25801ca5b05705fa2e9118e93d518390ba804398c87b19060200160405180910390a16000908152600290910160205260408120555050565b611043612b62565b610e71600382612c71565b611056612982565b15610e75576110636129b8565b610e71826315ebe57360e31b836129fc565b6000805160206142bd83398151915261108d3361245d565b6110c95760405162461bcd60e51b815260206004820152600d60248201526c37b7363c9032bc32b1baba37b960991b6044820152606401610fe9565b600083836040516110db929190613f4f565b604080519182900390912060008181526002850160205291822054909250908190036111495760405162461bcd60e51b815260206004820152601a60248201527f74696d656c6f636b3a20696e76616c69642073656c6563746f720000000000006044820152606401610fe9565b804210156111995760405162461bcd60e51b815260206004820152601960248201527f74696d656c6f636b3a206e6f7420616c6c6f77656420796574000000000000006044820152606401610fe9565b6000828152600284016020526040808220829055845460ff60b01b1916600160b01b1785555130906111ce9088908890613f4f565b6000604051808303816000865af19150503d806000811461120b576040519150601f19603f3d011682016040523d82523d6000602084013e611210565b606091505b5050845460ff60b01b191685556040518481529091507fec1225e5a8a8acb91e03ce648c683c74f5d152a775b9715980999441d714c44f9060200160405180910390a161125c81612c86565b505050505050565b61126c612b62565b610e7182633db7d3b160e11b836129fc565b600061128861193a565b6001600160a01b0316336001600160a01b031614905080806112b057506112b0600333612ca3565b61130f5760405162461bcd60e51b815260206004820152602a60248201527f6f6e6c7920676f7665726e616e6365206f7220656d657267656e63792070617560448201526973652073656e6465727360b01b6064820152608401610fe9565b60405181151560248201526044810183905261135990849060640160408051601f198184030181529190526020810180516001600160e01b0316634d4071c160e01b179052612bbe565b505050565b611366612b62565b610e7182632b4572c760e11b836129fc565b611380612982565b15610e755761138d6129b8565b610e718263be06971960e01b83612cc5565b6113a7612b62565b610e71826337592f4160e21b836129fc565b6113c1612b62565b610e7182639db27f5560e01b836129fc565b6113db612982565b15611605576113e86129b8565b6001600160a01b0381166000908152600160205260408120549081900361140d575050565b600061141a600183613f75565b60025490915060009061142f90600190613f75565b9050808210156114e9576002818154811061144c5761144c613f88565b600091825260209091200154600280546001600160a01b03909216918490811061147857611478613f88565b600091825260209091200180546001600160a01b0319166001600160a01b03929092169190911790556114ac826001613f9e565b60016000600285815481106114c3576114c3613f88565b60009182526020808320909101546001600160a01b031683528201929092526040019020555b60028054806114fa576114fa613fb1565b60008281526020808220830160001990810180546001600160a01b03191690559092019092556001600160a01b03861680835260018252604080842093909355825163f0c0b72560e01b815292513093919263f0c0b72592600480820193918290030181865afa158015611572573d6000803e3d6000fd5b505050506040513d601f19601f820116820180604052508101906115969190613fc7565b6001600160a01b0316036115ff5760405163b928b53360e01b8152600060048201526001600160a01b0385169063b928b53390602401600060405180830381600087803b1580156115e657600080fd5b505af11580156115fa573d6000803e3d6000fd5b505050505b50505050565b6116126000366000612a4b565b50565b61161d612982565b156116055761162a6129b8565b6001600160a01b037f00000000000000000000000000000000000000000000000000000000000000001630036116725760405162461bcd60e51b8152600401610fe990613fe4565b7f00000000000000000000000000000000000000000000000000000000000000006001600160a01b03166116a4612ce7565b6001600160a01b0316146116ca5760405162461bcd60e51b8152600401610fe990614030565b6040805160008082526020820190925261161291839190612cfd565b6116ee612b62565b610e7182632a92649160e01b836129fc565b611708612b62565b604051602481018390526044810182905261135990849060640160408051601f198184030181529190526020810180516001600160e01b0316631529264f60e01b179052612bbe565b611759612b62565b610e71826323c0a60360e11b836129fc565b611773612982565b15610e75576117806129b8565b610e71826309eb52f160e11b83612cc5565b61179a612982565b15610e75576117a76129b8565b6001600160a01b037f00000000000000000000000000000000000000000000000000000000000000001630036117ef5760405162461bcd60e51b8152600401610fe990613fe4565b7f00000000000000000000000000000000000000000000000000000000000000006001600160a01b0316611821612ce7565b6001600160a01b0316146118475760405162461bcd60e51b8152600401610fe990614030565b610e7182826001612cfd565b61185b612b62565b610e7182632d62e08f60e11b836129fc565b6000306001600160a01b037f0000000000000000000000000000000000000000000000000000000000000000161461190d5760405162461bcd60e51b815260206004820152603860248201527f555550535570677261646561626c653a206d757374206e6f742062652063616c60448201527f6c6564207468726f7567682064656c656761746563616c6c00000000000000006064820152608401610fe9565b5060008051602061427683398151915290565b611928612b62565b610e71826340973e9760e11b836129fc565b6000805160206142bd833981519152805460009190600160a81b900460ff166119705760018101546001600160a01b03166119dd565b805460408051631cc9492560e21b815290516001600160a01b03909216916373252494916004808201926020929091908290030181865afa1580156119b9573d6000803e3d6000fd5b505050506040513d601f19601f820116820180604052508101906119dd9190613fc7565b91505090565b6119eb612b62565b610e71828280806020026020016040519081016040528093929190818152602001838360200280828437600092019190915250506040805160048152602481019091526020810180516001600160e01b031663018117f160e31b1790529150612bbe9050565b611a59612b62565b610e718263ad74c72d60e01b836129fc565b611a73612b62565b610e7182636ad6fb4f60e01b836129fc565b60006000805160206142bd8339815191525b546001600160a01b0316919050565b611aae612b62565b610e71828280806020026020016040519081016040528093929190818152602001838360200280828437600092019190915250506040805160048152602481019091526020810180516001600160e01b0316636d47df9560e11b1790529150612bbe9050565b611b1c612982565b15610e7557611b296129b8565b610e71826336f9886b60e11b836129fc565b611b43612b62565b610e718263b2e6a2b560e01b836129fc565b611b5d612982565b15611bb057611b6a6129b8565b611359838383604051602401611b819291906140b8565b60408051601f198184030181529190526020810180516001600160e01b0316633b145b4960e21b179052612bbe565b6113596000366000612a4b565b611bc5612b62565b610e71826351b5fbe760e11b836129fc565b611bdf612b62565b610e7182637cdcda2360e11b836129fc565b611bf9612982565b15611c5757611c066129b8565b611c52868686868686604051602401611c239594939291906140dd565b60408051601f198184030181529190526020810180516001600160e01b031663249f1b5960e01b179052612bbe565b61125c565b61125c6000366000612a4b565b611c6c612982565b15610e7557611c796129b8565b610e718263e443147f60e01b83612cc5565b611c93612982565b1561160557611ca06129b8565b6001600160a01b03811660009081526001602052604081205490036116125760028054600180820183557f405787fa12a823e0f2b7631cc41b3ba8828b3321ca811111fa75cd3aa3bb5ace90910180546001600160a01b0319166001600160a01b03851690811790915591546000838152602092835260409081902091909155805163f0c0b72560e01b8152905130939263f0c0b72592600480820193918290030181865afa158015611d57573d6000803e3d6000fd5b505050506040513d601f19601f82011682018060405250810190611d7b9190613fc7565b6001600160a01b0316036116125760405163b928b53360e01b8152600160048201526001600160a01b0382169063b928b53390602401600060405180830381600087803b158015611dcb57600080fd5b505af1158015611ddf573d6000803e3d6000fd5b5050505050565b611dee612982565b15610e7557611dfb6129b8565b610e718263d57d25c560e01b836129fc565b611e15612982565b15611bb057611e226129b8565b604051602481018390526044810182905261135990849060640160408051601f198184030181529190526020810180516001600160e01b03166334dc4f3f60e11b179052612bbe565b611e73612982565b15610e7557611e806129b8565b610e7182636f83754b60e11b83612cc5565b611e9a612b62565b610e718263dfc5941760e01b836129fc565b611eb4612b62565b610e71826313bcd55560e11b836129fc565b611ece612982565b15610e7557611edb6129b8565b610e7182637f4fcaa960e01b83612cc5565b600080516020614256833981519152546001600160a01b0316336001600160a01b031614611f545760405162461bcd60e51b815260206004820152601460248201527337b7363c9030b2323932b9b9903ab83230ba32b960611b6044820152606401610fe9565b611f9a611f8883836040518060400160405280600e81526020016d20b2323932b9b9aab83230ba32b960911b815250612e68565b60008051602061425683398151915255565b610e718282612f39565b611fac612b62565b6115ff84848484604051602401611fc593929190614117565b60408051601f198184030181529190526020810180516001600160e01b03166298ccf760e51b179052612bbe565b6060600280548060200260200160405190810160405280929190818152602001828054801561204b57602002820191906000526020600020905b81546001600160a01b0316815260019091019060200180831161202d575b5050505050905090565b61205d612982565b15610e755761206a6129b8565b610e7182636dd3d58960e01b83612cc5565b612084612b62565b610e718263cfcb991d60e01b836129fc565b6120a08383612661565b6113598160008051602061425683398151915255565b6120be612b62565b610e71826254d6a960e51b836129fc565b6120d7612b62565b610e71826301b81e7f60e51b836129fc565b6120f1612b62565b610e7160038261303c565b612104612982565b15610e75576121116129b8565b610e718263f35653f160e01b836129fc565b61212b612982565b15610e75576121386129b8565b610e7182636b38c64360e01b836129fc565b60006121626000805160206142568339815191525490565b604051630110ceef60e21b815260206004820152600e60248201526d20b2323932b9b9aab83230ba32b960911b60448201529091506000906001600160a01b038316906304433bbc90606401602060405180830381865afa1580156121cb573d6000803e3d6000fd5b505050506040513d601f19601f820116820180604052508101906121ef9190613fc7565b604051630110ceef60e21b815260206004820152601660248201527520b9b9b2ba26b0b730b3b2b921b7b73a3937b63632b960511b60448201529091506000906001600160a01b038416906304433bbc90606401602060405180830381865afa158015612260573d6000803e3d6000fd5b505050506040513d601f19601f820116820180604052508101906122849190613fc7565b90506000836001600160a01b03166304433bbc6040518163ffffffff1660e01b81526004016122cb9060208082526004908201526315d3985d60e21b604082015260600190565b602060405180830381865afa1580156122e8573d6000803e3d6000fd5b505050506040513d601f19601f8201168201806040525081019061230c9190613fc7565b90506001600160a01b0383161580159061232e57506001600160a01b03821615155b801561234257506001600160a01b03811615155b61237d5760405162461bcd60e51b815260206004820152600c60248201526b61646472657373207a65726f60a01b6044820152606401610fe9565b61125c868680806020026020016040519081016040528093929190818152602001838360200280828437600092019190915250879250869150859050613051565b6123c6612982565b15610e75576123d36129b8565b610e71826346ca288560e11b836129fc565b6123ed612b62565b604051602481018390526044810182905261135990849060640160408051601f198184030181529190526020810180516001600160e01b03166314127e3f60e11b179052612bbe565b61243e612982565b15610e755761244b6129b8565b610e718263cda4c54160e01b83612cc5565b6000805160206142bd833981519152805460009190600160a01b900460ff1680156124f057508054604051630debfda360e41b81526001600160a01b0385811660048301529091169063debfda3090602401602060405180830381865afa1580156124cc573d6000803e3d6000fd5b505050506040513d601f19601f820116820180604052508101906124f0919061413f565b9392505050565b6124ff612b62565b610e718263e68f3fbf60e01b836129fc565b612519612b62565b6040805160048152602481019091526020810180516001600160e01b031663460831c360e01b179052611612908290612bbe565b612555612982565b15610e75576125626129b8565b610e7182637800a11f60e01b836129fc565b61257c612982565b15611bb0576125896129b8565b6113598383836040516024016125a09291906141ac565b60408051601f198184030181529190526020810180516001600160e01b0316636a59860960e01b179052612bbe565b6125d7612982565b15610e75576125e46129b8565b610e718263854cff2f60e01b83612cc5565b6125fe612b62565b604051602481018390526044810182905261135990849060640160408051601f198184030181529190526020810180516001600160e01b0316633479125d60e11b179052612bbe565b61264f612b62565b610e718263f6a494af60e01b83612cc5565b6000805160206142bd8339815191528054600160a01b900460ff16156126c05760405162461bcd60e51b8152602060048201526014602482015273696e697469616c6973656420213d2066616c736560601b6044820152606401610fe9565b6001600160a01b0383166127165760405162461bcd60e51b815260206004820152601860248201527f676f7665726e616e63652073657474696e6773207a65726f00000000000000006044820152606401610fe9565b6001600160a01b03821661275f5760405162461bcd60e51b815260206004820152601060248201526f5f676f7665726e616e6365207a65726f60801b6044820152606401610fe9565b80546001600160a01b038481166001600160a81b031990921691909117600160a01b1782556001820180549184166001600160a01b0319909216821790556040519081527f9789733827840833afc031fb2ef9ab6894271f77bad2085687cf4ae5c7bee4db9060200160405180910390a1505050565b6127dd612b62565b610e7182632ae535ab60e01b836129fc565b6127f7612b62565b610e71828280806020026020016040519081016040528093929190818152602001838360200280828437600092019190915250506040805160048152602481019091526020810180516001600160e01b0316635710019160e11b1790529150612bbe9050565b612865612b62565b6000805160206142bd8339815191528054600160a81b900460ff16156128cd5760405162461bcd60e51b815260206004820152601a60248201527f616c726561647920696e2070726f64756374696f6e206d6f64650000000000006044820152606401610fe9565b6001810180546001600160a01b03191690558054600160a81b60ff60a81b1982161782556040516001600160a01b0390911681527f83af113638b5422f9e977cebc0aaf0eaf2188eb9a8baae7f9d46c42b33a1560c9060200160405180910390a150565b612939612b62565b604051602481018390526044810182905261135990849060640160408051601f198184030181529190526020810180516001600160e01b03166335b35f4b60e01b179052612bbe565b6000805160206142bd833981519152805460009190600160b01b900460ff16806119dd575054600160a81b900460ff1615919050565b6000805160206142bd8339815191528054600160b01b900460ff16156129f4573330146129e7576129e76141d0565b805460ff60b01b19169055565b611612612b62565b611359838383604051602401612a1491815260200190565b60408051601f198184030181529190526020810180516001600160e01b03166001600160e01b031990931692909217909152612bbe565b6000805160206142bd833981519152612a62612b62565b60008484604051612a74929190613f4f565b604080519182900382208454636221a54b60e01b845291519093506000926001600160a01b0390921691636221a54b9160048083019260209291908290030181865afa158015612ac8573d6000803e3d6000fd5b505050506040513d601f19601f82011682018060405250810190612aec91906141e6565b905083811015612af95750825b6000612b058242613f9e565b600084815260028601602052604090819020829055519091507f8c02104dfc280f713854f25297de671710c544c58de69dbde8fb66974ce1ab9e90612b519089908990879086906141ff565b60405180910390a150505050505050565b612b6a61193a565b6001600160a01b0316336001600160a01b031614612bbc5760405162461bcd60e51b815260206004820152600f60248201526e6f6e6c7920676f7665726e616e636560881b6044820152606401610fe9565b565b60005b8251811015611359576000838281518110612bde57612bde613f88565b6020026020010151905060016000826001600160a01b03166001600160a01b0316815260200190815260200160002054600003612c5d5760405162461bcd60e51b815260206004820152601960248201527f4173736574206d616e61676572206e6f74206d616e61676564000000000000006044820152606401610fe9565b612c678184613114565b5050600101612bc1565b60006124f0836001600160a01b038416613158565b3d604051818101604052816000823e8215612c9f578181f35b8181fd5b6001600160a01b038116600090815260018301602052604081205415156124f0565b6040516001600160a01b03821660248201526113599084908490604401612a14565b6000600080516020614276833981519152611a97565b7f4910fdfa16fed3260ed0e7147f7cc6da11a60208b5b9406d12a635614ffd91435460ff1615612d30576113598361324b565b826001600160a01b03166352d1902d6040518163ffffffff1660e01b8152600401602060405180830381865afa925050508015612d8a575060408051601f3d908101601f19168201909252612d87918101906141e6565b60015b612ded5760405162461bcd60e51b815260206004820152602e60248201527f45524331393637557067726164653a206e657720696d706c656d656e7461746960448201526d6f6e206973206e6f74205555505360901b6064820152608401610fe9565b6000805160206142768339815191528114612e5c5760405162461bcd60e51b815260206004820152602960248201527f45524331393637557067726164653a20756e737570706f727465642070726f786044820152681a58589b195555525160ba1b6064820152608401610fe9565b506113598383836132e7565b60008082604051602001612e7c9190614226565b6040516020818303038152906040528051906020012090506000805b8651811015612eea57868181518110612eb357612eb3613f88565b60200260200101518303612ee257858181518110612ed357612ed3613f88565b60200260200101519150612eea565b600101612e98565b506001600160a01b038116612f305760405162461bcd60e51b815260206004820152600c60248201526b61646472657373207a65726f60a01b6044820152606401610fe9565b95945050505050565b6000612f6c83836040518060400160405280600e81526020016d20b2323932b9b9aab83230ba32b960911b815250612e68565b90506000612fa984846040518060400160405280601681526020017520b9b9b2ba26b0b730b3b2b921b7b73a3937b63632b960511b815250612e68565b90506000612fd485856040518060400160405280600481526020016315d3985d60e21b815250612e68565b9050611ddf600280548060200260200160405190810160405280929190818152602001828054801561302f57602002820191906000526020600020905b81546001600160a01b03168152600190910190602001808311613011575b5050505050848484613051565b60006124f0836001600160a01b03841661330c565b600080516020614256833981519152546001600160a01b0316836001600160a01b03161461308f5761308f8360008051602061425683398151915255565b6040516001600160a01b038084166024830152821660448201526130e190859060640160408051601f198184030181529190526020810180516001600160e01b0316636075765d60e01b179052612bbe565b6001600160a01b03821630146115ff57600080546001600160a01b0384166001600160a01b031990911617905550505050565b60606124f0838360006040518060400160405280601e81526020017f416464726573733a206c6f772d6c6576656c2063616c6c206661696c6564000081525061335b565b6000818152600183016020526040812054801561324157600061317c600183613f75565b855490915060009061319090600190613f75565b90508181146131f55760008660000182815481106131b0576131b0613f88565b90600052602060002001549050808760000184815481106131d3576131d3613f88565b6000918252602080832090910192909255918252600188019052604090208390555b855486908061320657613206613fb1565b600190038181906000526020600020016000905590558560010160008681526020019081526020016000206000905560019350505050610eb3565b6000915050610eb3565b6001600160a01b0381163b6132b85760405162461bcd60e51b815260206004820152602d60248201527f455243313936373a206e657720696d706c656d656e746174696f6e206973206e60448201526c1bdd08184818dbdb9d1c9858dd609a1b6064820152608401610fe9565b60008051602061427683398151915280546001600160a01b0319166001600160a01b0392909216919091179055565b6132f083613438565b6000825111806132fd5750805b15611359576115ff8383613478565b600081815260018301602052604081205461335357508154600181810184556000848152602080822090930184905584548482528286019093526040902091909155610eb3565b506000610eb3565b6060824710156133bc5760405162461bcd60e51b815260206004820152602660248201527f416464726573733a20696e73756666696369656e742062616c616e636520666f6044820152651c8818d85b1b60d21b6064820152608401610fe9565b600080866001600160a01b031685876040516133d89190614239565b60006040518083038185875af1925050503d8060008114613415576040519150601f19603f3d011682016040523d82523d6000602084013e61341a565b606091505b509150915061342b8783838761349d565b925050505b949350505050565b6134418161324b565b6040516001600160a01b038216907fbc7cd75a20ee27fd9adebab32041f755214dbc6bffa90cc0225b39da2e5c2d3b90600090a250565b60606124f0838360405180606001604052806027815260200161429660279139613516565b6060831561350c578251600003613505576001600160a01b0385163b6135055760405162461bcd60e51b815260206004820152601d60248201527f416464726573733a2063616c6c20746f206e6f6e2d636f6e74726163740000006044820152606401610fe9565b5081613430565b613430838361358e565b6060600080856001600160a01b0316856040516135339190614239565b600060405180830381855af49150503d806000811461356e576040519150601f19603f3d011682016040523d82523d6000602084013e613573565b606091505b50915091506135848683838761349d565b9695505050505050565b81511561359e5781518083602001fd5b8060405162461bcd60e51b8152600401610fe99190614226565b634e487b7160e01b600052604160045260246000fd5b604051601f8201601f191681016001600160401b03811182821017156135f6576135f66135b8565b604052919050565b60006001600160401b03821115613617576136176135b8565b5060051b60200190565b6001600160a01b038116811461161257600080fd5b600082601f83011261364757600080fd5b8135602061365c613657836135fe565b6135ce565b8083825260208201915060208460051b87010193508684111561367e57600080fd5b602086015b848110156136a357803561369681613621565b8352918301918301613683565b509695505050505050565b600080604083850312156136c157600080fd5b82356001600160401b038111156136d757600080fd5b6136e385828601613636565b95602094909401359450505050565b60006020828403121561370457600080fd5b81356001600160e01b0319811681146124f057600080fd5b6000806040838503121561372f57600080fd5b82356001600160401b038082111561374657600080fd5b61375286838701613636565b9350602085013591508082111561376857600080fd5b508301610140818603121561377c57600080fd5b809150509250929050565b6000806020838503121561379a57600080fd5b82356001600160401b03808211156137b157600080fd5b818501915085601f8301126137c557600080fd5b8135818111156137d457600080fd5b8660208285010111156137e657600080fd5b60209290920196919550909350505050565b60006020828403121561380a57600080fd5b81356124f081613621565b6000806040838503121561382857600080fd5b82356001600160401b0381111561383e57600080fd5b61384a85828601613636565b925050602083013561377c81613621565b60008060006060848603121561387057600080fd5b83356001600160401b0381111561388657600080fd5b61389286828701613636565b9660208601359650604090950135949350505050565b600082601f8301126138b957600080fd5b81356001600160401b038111156138d2576138d26135b8565b6138e5601f8201601f19166020016135ce565b8181528460208386010111156138fa57600080fd5b816020850160208301376000918101602001919091529392505050565b6000806040838503121561392a57600080fd5b823561393581613621565b915060208301356001600160401b0381111561395057600080fd5b61395c858286016138a8565b9150509250929050565b6000806020838503121561397957600080fd5b82356001600160401b038082111561399057600080fd5b818501915085601f8301126139a457600080fd5b8135818111156139b357600080fd5b8660208260051b85010111156137e657600080fd5b600082601f8301126139d957600080fd5b813560206139e9613657836135fe565b8083825260208201915060208460051b870101935086841115613a0b57600080fd5b602086015b848110156136a35780358352918301918301613a10565b600080600060608486031215613a3c57600080fd5b83356001600160401b0380821115613a5357600080fd5b613a5f87838801613636565b94506020860135915080821115613a7557600080fd5b613a81878388016139c8565b93506040860135915080821115613a9757600080fd5b50613aa4868287016139c8565b9150509250925092565b803560038110613abd57600080fd5b919050565b8035613abd81613621565b60008060008060008060c08789031215613ae657600080fd5b86356001600160401b03811115613afc57600080fd5b613b0889828a01613636565b965050613b1760208801613aae565b94506040870135613b2781613621565b959894975094956060810135955060808101359460a0909101359350915050565b60008060408385031215613b5b57600080fd5b82356001600160401b0380821115613b7257600080fd5b818501915085601f830112613b8657600080fd5b81356020613b96613657836135fe565b82815260059290921b84018101918181019089841115613bb557600080fd5b948201945b83861015613bd357853582529482019490820190613bba565b96505086013592505080821115613be957600080fd5b5061395c85828601613636565b60008060008060808587031215613c0c57600080fd5b84356001600160401b03811115613c2257600080fd5b613c2e87828801613636565b945050613c3d60208601613aae565b92506040850135613c4d81613621565b9396929550929360600135925050565b6020808252825182820181905260009190848201906040850190845b81811015613c9e5783516001600160a01b031683529284019291840191600101613c79565b50909695505050505050565b600080600060608486031215613cbf57600080fd5b8335613cca81613621565b92506020840135613cda81613621565b91506040840135613cea81613621565b809150509250925092565b600060208284031215613d0757600080fd5b81356001600160401b03811115613d1d57600080fd5b61343084828501613636565b600080600060608486031215613d3e57600080fd5b83356001600160401b0380821115613d5557600080fd5b613d6187838801613636565b945060208601359150613d7382613621565b90925060408501359080821115613d8957600080fd5b50613aa4868287016138a8565b60008060408385031215613da957600080fd5b8235613db481613621565b9150602083013561377c81613621565b60038110613de257634e487b7160e01b600052602160045260246000fd5b9052565b801515811461161257600080fd5b8035613abd81613de6565b6000808335601e19843603018112613e1657600080fd5b83016020810192503590506001600160401b03811115613e3557600080fd5b803603821315613e4457600080fd5b9250929050565b81835281816020850137506000828201602090810191909152601f909101601f19169091010190565b60208152613e8d60208201613e8884613aae565b613dc4565b6000613e9b60208401613ac2565b6001600160a01b0381166040840152506040830135606083015260608301356080830152613ecb60808401613df4565b80151560a084015250613ee160a0840184613dff565b6101408060c0860152613ef961016086018385613e4b565b9250613f0860c0870187613dff565b868503601f190160e08801529250613f21848483613e4b565b60e0880135610100888101919091528801356101208089019190915290970135919095015250929392505050565b8183823760009101908152919050565b634e487b7160e01b600052601160045260246000fd5b81810381811115610eb357610eb3613f5f565b634e487b7160e01b600052603260045260246000fd5b80820180821115610eb357610eb3613f5f565b634e487b7160e01b600052603160045260246000fd5b600060208284031215613fd957600080fd5b81516124f081613621565b6020808252602c908201527f46756e6374696f6e206d7573742062652063616c6c6564207468726f7567682060408201526b19195b1959d85d1958d85b1b60a21b606082015260800190565b6020808252602c908201527f46756e6374696f6e206d7573742062652063616c6c6564207468726f7567682060408201526b6163746976652070726f787960a01b606082015260800190565b60008151808452602080850194506020840160005b838110156140ad57815187529582019590820190600101614091565b509495945050505050565b6040815260006140cb604083018561407c565b8281036020840152612f30818561407c565b60a081016140eb8288613dc4565b6001600160a01b0395909516602082015260408101939093526060830191909152608090910152919050565b606081016141258286613dc4565b6001600160a01b0393909316602082015260400152919050565b60006020828403121561415157600080fd5b81516124f081613de6565b60005b8381101561417757818101518382015260200161415f565b50506000910152565b6000815180845261419881602086016020860161415c565b601f01601f19169290920160200192915050565b6001600160a01b038316815260406020820181905260009061343090830184614180565b634e487b7160e01b600052600160045260246000fd5b6000602082840312156141f857600080fd5b5051919050565b606081526000614213606083018688613e4b565b6020830194909452506040015292915050565b6020815260006124f06020830184614180565b6000825161424b81846020870161415c565b919091019291505056fe714f205b2abd25bef1d06a1af944e38c113fe6160375c4e1d6d5cf28848e7719360894a13ba1a3210667c828492db98dca3e2076cc3735a920a3ca505d382bbc416464726573733a206c6f772d6c6576656c2064656c65676174652063616c6c206661696c65642aa47ee5db910f3b2a06970c443249cc77dbd9f96100cfebc1775ab7fb1d1824a26469706673582212200a68258d670646c5b91039c3059ea9e2cd19066f499e1f3eabd9fd7d007c013564736f6c63430008170033",
  "linkReferences": {},
  "deployedLinkReferences": {}
}