{
  "_format": "hh-sol-artifact-1",
  "contractName": "FAsset",
  "sourceName": "contracts/fasset/implementation/FAsset.sol",
  "abi": [
    {
      "inputs": [
        {
          "internalType": "address",
          "name": "_governance",
          "type": "address"
        },
        {
          "internalType": "string",
          "name": "_name",
          "type": "string"
        },
        {
          "internalType": "string",
          "name": "_symbol",
          "type": "string"
        },
        {
          "internalType": "uint8",
          "name": "_decimals",
          "type": "uint8"
        }
      ],
      "stateMutability": "nonpayable",
      "type": "constructor"
    },
    {
      "anonymous": false,
      "inputs": [
        {
          "indexed": true,
          "internalType": "address",
          "name": "owner",
          "type": "address"
        },
        {
          "indexed": true,
          "internalType": "address",
          "name": "spender",
          "type": "address"
        },
        {
          "indexed": false,
          "internalType": "uint256",
          "name": "value",
          "type": "uint256"
        }
      ],
      "name": "Approval",
      "type": "event"
    },
    {
      "anonymous": false,
      "inputs": [
        {
          "indexed": false,
          "internalType": "uint256",
          "name": "_blockNumber",
          "type": "uint256"
        }
      ],
      "name": "CreatedTotalSupplyCache",
      "type": "event"
    },
    {
      "anonymous": false,
      "inputs": [
        {
          "indexed": false,
          "internalType": "bytes4",
          "name": "selector",
          "type": "bytes4"
        },
        {
          "indexed": false,
          "internalType": "uint256",
          "name": "allowedAfterTimestamp",
          "type": "uint256"
        },
        {
          "indexed": false,
          "internalType": "bytes",
          "name": "encodedCall",
          "type": "bytes"
        }
      ],
      "name": "GovernanceCallTimelocked",
      "type": "event"
    },
    {
      "anonymous": false,
      "inputs": [
        {
          "indexed": false,
          "internalType": "address",
          "name": "initialGovernance",
          "type": "address"
        }
      ],
      "name": "GovernanceInitialised",
      "type": "event"
    },
    {
      "anonymous": false,
      "inputs": [
        {
          "indexed": false,
          "internalType": "address",
          "name": "governanceSettings",
          "type": "address"
        }
      ],
      "name": "GovernedProductionModeEntered",
      "type": "event"
    },
    {
      "anonymous": false,
      "inputs": [
        {
          "indexed": false,
          "internalType": "bytes4",
          "name": "selector",
          "type": "bytes4"
        },
        {
          "indexed": false,
          "internalType": "uint256",
          "name": "timestamp",
          "type": "uint256"
        }
      ],
      "name": "TimelockedGovernanceCallCanceled",
      "type": "event"
    },
    {
      "anonymous": false,
      "inputs": [
        {
          "indexed": false,
          "internalType": "bytes4",
          "name": "selector",
          "type": "bytes4"
        },
        {
          "indexed": false,
          "internalType": "uint256",
          "name": "timestamp",
          "type": "uint256"
        }
      ],
      "name": "TimelockedGovernanceCallExecuted",
      "type": "event"
    },
    {
      "anonymous": false,
      "inputs": [
        {
          "indexed": true,
          "internalType": "address",
          "name": "from",
          "type": "address"
        },
        {
          "indexed": true,
          "internalType": "address",
          "name": "to",
          "type": "address"
        },
        {
          "indexed": false,
          "internalType": "uint256",
          "name": "value",
          "type": "uint256"
        }
      ],
      "name": "Transfer",
      "type": "event"
    },
    {
      "anonymous": false,
      "inputs": [
        {
          "indexed": false,
          "internalType": "uint256",
          "name": "_contractType",
          "type": "uint256"
        },
        {
          "indexed": false,
          "internalType": "address",
          "name": "_oldContractAddress",
          "type": "address"
        },
        {
          "indexed": false,
          "internalType": "address",
          "name": "_newContractAddress",
          "type": "address"
        }
      ],
      "name": "VotePowerContractChanged",
      "type": "event"
    },
    {
      "inputs": [
        {
          "internalType": "address",
          "name": "owner",
          "type": "address"
        },
        {
          "internalType": "address",
          "name": "spender",
          "type": "address"
        }
      ],
      "name": "allowance",
      "outputs": [
        {
          "internalType": "uint256",
          "name": "",
          "type": "uint256"
        }
      ],
      "stateMutability": "view",
      "type": "function"
    },
    {
      "inputs": [
        {
          "internalType": "address",
          "name": "spender",
          "type": "address"
        },
        {
          "internalType": "uint256",
          "name": "amount",
          "type": "uint256"
        }
      ],
      "name": "approve",
      "outputs": [
        {
          "internalType": "bool",
          "name": "",
          "type": "bool"
        }
      ],
      "stateMutability": "nonpayable",
      "type": "function"
    },
    {
      "inputs": [],
      "name": "assetManager",
      "outputs": [
        {
          "internalType": "address",
          "name": "",
          "type": "address"
        }
      ],
      "stateMutability": "view",
      "type": "function"
    },
    {
      "inputs": [
        {
          "internalType": "address",
          "name": "_owner",
          "type": "address"
        },
        {
          "internalType": "uint256",
          "name": "_count",
          "type": "uint256"
        }
      ],
      "name": "balanceHistoryCleanup",
      "outputs": [
        {
          "internalType": "uint256",
          "name": "",
          "type": "uint256"
        }
      ],
      "stateMutability": "nonpayable",
      "type": "function"
    },
    {
      "inputs": [
        {
          "internalType": "address",
          "name": "account",
          "type": "address"
        }
      ],
      "name": "balanceOf",
      "outputs": [
        {
          "internalType": "uint256",
          "name": "",
          "type": "uint256"
        }
      ],
      "stateMutability": "view",
      "type": "function"
    },
    {
      "inputs": [
        {
          "internalType": "address",
          "name": "_owner",
          "type": "address"
        },
        {
          "internalType": "uint256",
          "name": "_blockNumber",
          "type": "uint256"
        }
      ],
      "name": "balanceOfAt",
      "outputs": [
        {
          "internalType": "uint256",
          "name": "",
          "type": "uint256"
        }
      ],
      "stateMutability": "view",
      "type": "function"
    },
    {
      "inputs": [
        {
          "internalType": "address[]",
          "name": "_delegatees",
          "type": "address[]"
        },
        {
          "internalType": "uint256[]",
          "name": "_bips",
          "type": "uint256[]"
        }
      ],
      "name": "batchDelegate",
      "outputs": [],
      "stateMutability": "nonpayable",
      "type": "function"
    },
    {
      "inputs": [
        {
          "internalType": "address[]",
          "name": "_owners",
          "type": "address[]"
        },
        {
          "internalType": "uint256",
          "name": "_blockNumber",
          "type": "uint256"
        }
      ],
      "name": "batchVotePowerOfAt",
      "outputs": [
        {
          "internalType": "uint256[]",
          "name": "",
          "type": "uint256[]"
        }
      ],
      "stateMutability": "view",
      "type": "function"
    },
    {
      "inputs": [
        {
          "internalType": "address",
          "name": "_owner",
          "type": "address"
        },
        {
          "internalType": "uint256",
          "name": "_amount",
          "type": "uint256"
        }
      ],
      "name": "burn",
      "outputs": [],
      "stateMutability": "nonpayable",
      "type": "function"
    },
    {
      "inputs": [
        {
          "internalType": "bytes4",
          "name": "_selector",
          "type": "bytes4"
        }
      ],
      "name": "cancelGovernanceCall",
      "outputs": [],
      "stateMutability": "nonpayable",
      "type": "function"
    },
    {
      "inputs": [],
      "name": "cleanerContract",
      "outputs": [
        {
          "internalType": "address",
          "name": "",
          "type": "address"
        }
      ],
      "stateMutability": "view",
      "type": "function"
    },
    {
      "inputs": [],
      "name": "cleanupBlockNumber",
      "outputs": [
        {
          "internalType": "uint256",
          "name": "",
          "type": "uint256"
        }
      ],
      "stateMutability": "view",
      "type": "function"
    },
    {
      "inputs": [],
      "name": "cleanupBlockNumberManager",
      "outputs": [
        {
          "internalType": "address",
          "name": "",
          "type": "address"
        }
      ],
      "stateMutability": "view",
      "type": "function"
    },
    {
      "inputs": [],
      "name": "decimals",
      "outputs": [
        {
          "internalType": "uint8",
          "name": "",
          "type": "uint8"
        }
      ],
      "stateMutability": "view",
      "type": "function"
    },
    {
      "inputs": [
        {
          "internalType": "address",
          "name": "spender",
          "type": "address"
        },
        {
          "internalType": "uint256",
          "name": "subtractedValue",
          "type": "uint256"
        }
      ],
      "name": "decreaseAllowance",
      "outputs": [
        {
          "internalType": "bool",
          "name": "",
          "type": "bool"
        }
      ],
      "stateMutability": "nonpayable",
      "type": "function"
    },
    {
      "inputs": [
        {
          "internalType": "address",
          "name": "_to",
          "type": "address"
        },
        {
          "internalType": "uint256",
          "name": "_bips",
          "type": "uint256"
        }
      ],
      "name": "delegate",
      "outputs": [],
      "stateMutability": "nonpayable",
      "type": "function"
    },
    {
      "inputs": [
        {
          "internalType": "address",
          "name": "_to",
          "type": "address"
        },
        {
          "internalType": "uint256",
          "name": "_amount",
          "type": "uint256"
        }
      ],
      "name": "delegateExplicit",
      "outputs": [],
      "stateMutability": "nonpayable",
      "type": "function"
    },
    {
      "inputs": [
        {
          "internalType": "address",
          "name": "_owner",
          "type": "address"
        }
      ],
      "name": "delegatesOf",
      "outputs": [
        {
          "internalType": "address[]",
          "name": "_delegateAddresses",
          "type": "address[]"
        },
        {
          "internalType": "uint256[]",
          "name": "_bips",
          "type": "uint256[]"
        },
        {
          "internalType": "uint256",
          "name": "_count",
          "type": "uint256"
        },
        {
          "internalType": "uint256",
          "name": "_delegationMode",
          "type": "uint256"
        }
      ],
      "stateMutability": "view",
      "type": "function"
    },
    {
      "inputs": [
        {
          "internalType": "address",
          "name": "_owner",
          "type": "address"
        },
        {
          "internalType": "uint256",
          "name": "_blockNumber",
          "type": "uint256"
        }
      ],
      "name": "delegatesOfAt",
      "outputs": [
        {
          "internalType": "address[]",
          "name": "_delegateAddresses",
          "type": "address[]"
        },
        {
          "internalType": "uint256[]",
          "name": "_bips",
          "type": "uint256[]"
        },
        {
          "internalType": "uint256",
          "name": "_count",
          "type": "uint256"
        },
        {
          "internalType": "uint256",
          "name": "_delegationMode",
          "type": "uint256"
        }
      ],
      "stateMutability": "view",
      "type": "function"
    },
    {
      "inputs": [
        {
          "internalType": "address",
          "name": "_who",
          "type": "address"
        }
      ],
      "name": "delegationModeOf",
      "outputs": [
        {
          "internalType": "uint256",
          "name": "",
          "type": "uint256"
        }
      ],
      "stateMutability": "view",
      "type": "function"
    },
    {
      "inputs": [
        {
          "internalType": "bytes4",
          "name": "_selector",
          "type": "bytes4"
        }
      ],
      "name": "executeGovernanceCall",
      "outputs": [],
      "stateMutability": "nonpayable",
      "type": "function"
    },
    {
      "inputs": [],
      "name": "governance",
      "outputs": [
        {
          "internalType": "address",
          "name": "",
          "type": "address"
        }
      ],
      "stateMutability": "view",
      "type": "function"
    },
    {
      "inputs": [],
      "name": "governanceSettings",
      "outputs": [
        {
          "internalType": "contract IGovernanceSettings",
          "name": "",
          "type": "address"
        }
      ],
      "stateMutability": "view",
      "type": "function"
    },
    {
      "inputs": [],
      "name": "governanceVotePower",
      "outputs": [
        {
          "internalType": "contract IGovernanceVotePower",
          "name": "",
          "type": "address"
        }
      ],
      "stateMutability": "view",
      "type": "function"
    },
    {
      "inputs": [
        {
          "internalType": "address",
          "name": "spender",
          "type": "address"
        },
        {
          "internalType": "uint256",
          "name": "addedValue",
          "type": "uint256"
        }
      ],
      "name": "increaseAllowance",
      "outputs": [
        {
          "internalType": "bool",
          "name": "",
          "type": "bool"
        }
      ],
      "stateMutability": "nonpayable",
      "type": "function"
    },
    {
      "inputs": [
        {
          "internalType": "address",
          "name": "_initialGovernance",
          "type": "address"
        }
      ],
      "name": "initialise",
      "outputs": [],
      "stateMutability": "nonpayable",
      "type": "function"
    },
    {
      "inputs": [
        {
          "internalType": "address",
          "name": "_owner",
          "type": "address"
        },
        {
          "internalType": "uint256",
          "name": "_amount",
          "type": "uint256"
        }
      ],
      "name": "mint",
      "outputs": [],
      "stateMutability": "nonpayable",
      "type": "function"
    },
    {
      "inputs": [],
      "name": "name",
      "outputs": [
        {
          "internalType": "string",
          "name": "",
          "type": "string"
        }
      ],
      "stateMutability": "view",
      "type": "function"
    },
    {
      "inputs": [],
      "name": "productionMode",
      "outputs": [
        {
          "internalType": "bool",
          "name": "",
          "type": "bool"
        }
      ],
      "stateMutability": "view",
      "type": "function"
    },
    {
      "inputs": [],
      "name": "readVotePowerContract",
      "outputs": [
        {
          "internalType": "contract IVPContractEvents",
          "name": "",
          "type": "address"
        }
      ],
      "stateMutability": "view",
      "type": "function"
    },
    {
      "inputs": [
        {
          "internalType": "address",
          "name": "_who",
          "type": "address"
        },
        {
          "internalType": "uint256",
          "name": "_blockNumber",
          "type": "uint256"
        }
      ],
      "name": "revokeDelegationAt",
      "outputs": [],
      "stateMutability": "nonpayable",
      "type": "function"
    },
    {
      "inputs": [
        {
          "internalType": "address",
          "name": "_assetManager",
          "type": "address"
        }
      ],
      "name": "setAssetManager",
      "outputs": [],
      "stateMutability": "nonpayable",
      "type": "function"
    },
    {
      "inputs": [
        {
          "internalType": "address",
          "name": "_cleanerContract",
          "type": "address"
        }
      ],
      "name": "setCleanerContract",
      "outputs": [],
      "stateMutability": "nonpayable",
      "type": "function"
    },
    {
      "inputs": [
        {
          "internalType": "uint256",
          "name": "_blockNumber",
          "type": "uint256"
        }
      ],
      "name": "setCleanupBlockNumber",
      "outputs": [],
      "stateMutability": "nonpayable",
      "type": "function"
    },
    {
      "inputs": [
        {
          "internalType": "address",
          "name": "_cleanupBlockNumberManager",
          "type": "address"
        }
      ],
      "name": "setCleanupBlockNumberManager",
      "outputs": [],
      "stateMutability": "nonpayable",
      "type": "function"
    },
    {
      "inputs": [
        {
          "internalType": "contract IIGovernanceVotePower",
          "name": "_governanceVotePower",
          "type": "address"
        }
      ],
      "name": "setGovernanceVotePower",
      "outputs": [],
      "stateMutability": "nonpayable",
      "type": "function"
    },
    {
      "inputs": [
        {
          "internalType": "contract IIVPContract",
          "name": "_vpContract",
          "type": "address"
        }
      ],
      "name": "setReadVpContract",
      "outputs": [],
      "stateMutability": "nonpayable",
      "type": "function"
    },
    {
      "inputs": [
        {
          "internalType": "contract IIVPContract",
          "name": "_vpContract",
          "type": "address"
        }
      ],
      "name": "setWriteVpContract",
      "outputs": [],
      "stateMutability": "nonpayable",
      "type": "function"
    },
    {
      "inputs": [
        {
          "internalType": "bytes4",
          "name": "_interfaceId",
          "type": "bytes4"
        }
      ],
      "name": "supportsInterface",
      "outputs": [
        {
          "internalType": "bool",
          "name": "",
          "type": "bool"
        }
      ],
      "stateMutability": "pure",
      "type": "function"
    },
    {
      "inputs": [],
      "name": "switchToProductionMode",
      "outputs": [],
      "stateMutability": "nonpayable",
      "type": "function"
    },
    {
      "inputs": [],
      "name": "symbol",
      "outputs": [
        {
          "internalType": "string",
          "name": "",
          "type": "string"
        }
      ],
      "stateMutability": "view",
      "type": "function"
    },
    {
      "inputs": [],
      "name": "terminate",
      "outputs": [],
      "stateMutability": "nonpayable",
      "type": "function"
    },
    {
      "inputs": [],
      "name": "terminated",
      "outputs": [
        {
          "internalType": "bool",
          "name": "",
          "type": "bool"
        }
      ],
      "stateMutability": "view",
      "type": "function"
    },
    {
      "inputs": [],
      "name": "terminatedAt",
      "outputs": [
        {
          "internalType": "uint64",
          "name": "",
          "type": "uint64"
        }
      ],
      "stateMutability": "view",
      "type": "function"
    },
    {
      "inputs": [
        {
          "internalType": "bytes4",
          "name": "",
          "type": "bytes4"
        }
      ],
      "name": "timelockedCalls",
      "outputs": [
        {
          "internalType": "uint256",
          "name": "allowedAfterTimestamp",
          "type": "uint256"
        },
        {
          "internalType": "bytes",
          "name": "encodedCall",
          "type": "bytes"
        }
      ],
      "stateMutability": "view",
      "type": "function"
    },
    {
      "inputs": [],
      "name": "totalSupply",
      "outputs": [
        {
          "internalType": "uint256",
          "name": "",
          "type": "uint256"
        }
      ],
      "stateMutability": "view",
      "type": "function"
    },
    {
      "inputs": [
        {
          "internalType": "uint256",
          "name": "_blockNumber",
          "type": "uint256"
        }
      ],
      "name": "totalSupplyAt",
      "outputs": [
        {
          "internalType": "uint256",
          "name": "",
          "type": "uint256"
        }
      ],
      "stateMutability": "view",
      "type": "function"
    },
    {
      "inputs": [
        {
          "internalType": "uint256",
          "name": "_blockNumber",
          "type": "uint256"
        }
      ],
      "name": "totalSupplyCacheCleanup",
      "outputs": [
        {
          "internalType": "uint256",
          "name": "",
          "type": "uint256"
        }
      ],
      "stateMutability": "nonpayable",
      "type": "function"
    },
    {
      "inputs": [
        {
          "internalType": "uint256",
          "name": "_count",
          "type": "uint256"
        }
      ],
      "name": "totalSupplyHistoryCleanup",
      "outputs": [
        {
          "internalType": "uint256",
          "name": "",
          "type": "uint256"
        }
      ],
      "stateMutability": "nonpayable",
      "type": "function"
    },
    {
      "inputs": [],
      "name": "totalVotePower",
      "outputs": [
        {
          "internalType": "uint256",
          "name": "",
          "type": "uint256"
        }
      ],
      "stateMutability": "view",
      "type": "function"
    },
    {
      "inputs": [
        {
          "internalType": "uint256",
          "name": "_blockNumber",
          "type": "uint256"
        }
      ],
      "name": "totalVotePowerAt",
      "outputs": [
        {
          "internalType": "uint256",
          "name": "",
          "type": "uint256"
        }
      ],
      "stateMutability": "view",
      "type": "function"
    },
    {
      "inputs": [
        {
          "internalType": "uint256",
          "name": "_blockNumber",
          "type": "uint256"
        }
      ],
      "name": "totalVotePowerAtCached",
      "outputs": [
        {
          "internalType": "uint256",
          "name": "",
          "type": "uint256"
        }
      ],
      "stateMutability": "nonpayable",
      "type": "function"
    },
    {
      "inputs": [
        {
          "internalType": "address",
          "name": "recipient",
          "type": "address"
        },
        {
          "internalType": "uint256",
          "name": "amount",
          "type": "uint256"
        }
      ],
      "name": "transfer",
      "outputs": [
        {
          "internalType": "bool",
          "name": "",
          "type": "bool"
        }
      ],
      "stateMutability": "nonpayable",
      "type": "function"
    },
    {
      "inputs": [
        {
          "internalType": "address",
          "name": "sender",
          "type": "address"
        },
        {
          "internalType": "address",
          "name": "recipient",
          "type": "address"
        },
        {
          "internalType": "uint256",
          "name": "amount",
          "type": "uint256"
        }
      ],
      "name": "transferFrom",
      "outputs": [
        {
          "internalType": "bool",
          "name": "",
          "type": "bool"
        }
      ],
      "stateMutability": "nonpayable",
      "type": "function"
    },
    {
      "inputs": [],
      "name": "undelegateAll",
      "outputs": [],
      "stateMutability": "nonpayable",
      "type": "function"
    },
    {
      "inputs": [
        {
          "internalType": "address[]",
          "name": "_delegateAddresses",
          "type": "address[]"
        }
      ],
      "name": "undelegateAllExplicit",
      "outputs": [
        {
          "internalType": "uint256",
          "name": "_remainingDelegation",
          "type": "uint256"
        }
      ],
      "stateMutability": "nonpayable",
      "type": "function"
    },
    {
      "inputs": [
        {
          "internalType": "address",
          "name": "_owner",
          "type": "address"
        }
      ],
      "name": "undelegatedVotePowerOf",
      "outputs": [
        {
          "internalType": "uint256",
          "name": "",
          "type": "uint256"
        }
      ],
      "stateMutability": "view",
      "type": "function"
    },
    {
      "inputs": [
        {
          "internalType": "address",
          "name": "_owner",
          "type": "address"
        },
        {
          "internalType": "uint256",
          "name": "_blockNumber",
          "type": "uint256"
        }
      ],
      "name": "undelegatedVotePowerOfAt",
      "outputs": [
        {
          "internalType": "uint256",
          "name": "",
          "type": "uint256"
        }
      ],
      "stateMutability": "view",
      "type": "function"
    },
    {
      "inputs": [
        {
          "internalType": "address",
          "name": "_from",
          "type": "address"
        },
        {
          "internalType": "address",
          "name": "_to",
          "type": "address"
        }
      ],
      "name": "votePowerFromTo",
      "outputs": [
        {
          "internalType": "uint256",
          "name": "",
          "type": "uint256"
        }
      ],
      "stateMutability": "view",
      "type": "function"
    },
    {
      "inputs": [
        {
          "internalType": "address",
          "name": "_from",
          "type": "address"
        },
        {
          "internalType": "address",
          "name": "_to",
          "type": "address"
        },
        {
          "internalType": "uint256",
          "name": "_blockNumber",
          "type": "uint256"
        }
      ],
      "name": "votePowerFromToAt",
      "outputs": [
        {
          "internalType": "uint256",
          "name": "",
          "type": "uint256"
        }
      ],
      "stateMutability": "view",
      "type": "function"
    },
    {
      "inputs": [
        {
          "internalType": "address",
          "name": "_owner",
          "type": "address"
        }
      ],
      "name": "votePowerOf",
      "outputs": [
        {
          "internalType": "uint256",
          "name": "",
          "type": "uint256"
        }
      ],
      "stateMutability": "view",
      "type": "function"
    },
    {
      "inputs": [
        {
          "internalType": "address",
          "name": "_owner",
          "type": "address"
        },
        {
          "internalType": "uint256",
          "name": "_blockNumber",
          "type": "uint256"
        }
      ],
      "name": "votePowerOfAt",
      "outputs": [
        {
          "internalType": "uint256",
          "name": "",
          "type": "uint256"
        }
      ],
      "stateMutability": "view",
      "type": "function"
    },
    {
      "inputs": [
        {
          "internalType": "address",
          "name": "_owner",
          "type": "address"
        },
        {
          "internalType": "uint256",
          "name": "_blockNumber",
          "type": "uint256"
        }
      ],
      "name": "votePowerOfAtCached",
      "outputs": [
        {
          "internalType": "uint256",
          "name": "",
          "type": "uint256"
        }
      ],
      "stateMutability": "nonpayable",
      "type": "function"
    },
    {
      "inputs": [
        {
          "internalType": "address",
          "name": "_owner",
          "type": "address"
        },
        {
          "internalType": "uint256",
          "name": "_blockNumber",
          "type": "uint256"
        }
      ],
      "name": "votePowerOfAtIgnoringRevocation",
      "outputs": [
        {
          "internalType": "uint256",
          "name": "",
          "type": "uint256"
        }
      ],
      "stateMutability": "view",
      "type": "function"
    },
    {
      "inputs": [],
      "name": "vpContractInitialized",
      "outputs": [
        {
          "internalType": "bool",
          "name": "",
          "type": "bool"
        }
      ],
      "stateMutability": "view",
      "type": "function"
    },
    {
      "inputs": [],
      "name": "writeVotePowerContract",
      "outputs": [
        {
          "internalType": "contract IVPContractEvents",
          "name": "",
          "type": "address"
        }
      ],
      "stateMutability": "view",
      "type": "function"
    }
  ],
  "bytecode": "0x60806040526011805460ff60a01b1916905560128054600160a01b600160e01b03191690553480156200003157600080fd5b506040516200530738038062005307833981810160405260808110156200005757600080fd5b8151602083018051604051929492938301929190846401000000008211156200007f57600080fd5b9083019060208201858111156200009557600080fd5b8251640100000000811182820188101715620000b057600080fd5b82525081516020918201929091019080838360005b83811015620000df578181015183820152602001620000c5565b50505050905090810190601f1680156200010d5780820380516001836020036101000a031916815260200191505b50604052602001805160405193929190846401000000008211156200013157600080fd5b9083019060208201858111156200014757600080fd5b82516401000000008111828201881017156200016257600080fd5b82525081516020918201929091019080838360005b838110156200019157818101518382015260200162000177565b50505050905090810190601f168015620001bf5780820380516001836020036101000a031916815260200191505b506040526020908101518551909350869250859185918491829185918591620001ef91600391908501906200032c565b508051620002059060049060208401906200032c565b50506005805460ff19166012179055506001600160a01b038116156200023057620002308162000282565b506001600160a01b038116620002635760405162461bcd60e51b81526004016200025a90620003ec565b60405180910390fd5b5050505062000278816200031660201b60201c565b505050506200044d565b600c54600160a01b900460ff1615620002af5760405162461bcd60e51b81526004016200025a9062000416565b600c8054600160a01b60ff60a01b19909116176001600160a01b0319166001600160a01b0383161790556040517f9789733827840833afc031fb2ef9ab6894271f77bad2085687cf4ae5c7bee4db906200030b908390620003d8565b60405180910390a150565b6005805460ff191660ff92909216919091179055565b828054600181600116156101000203166002900490600052602060002090601f016020900481019282620003645760008555620003af565b82601f106200037f57805160ff1916838001178555620003af565b82800160010185558215620003af579182015b82811115620003af57825182559160200191906001019062000392565b50620003bd929150620003c1565b5090565b5b80821115620003bd5760008155600101620003c2565b6001600160a01b0391909116815260200190565b60208082526010908201526f5f676f7665726e616e6365207a65726f60801b604082015260600190565b60208082526014908201527f696e697469616c6973656420213d2066616c7365000000000000000000000000604082015260600190565b614eaa806200045d6000396000f3fe608060405234801561001057600080fd5b50600436106103e65760003560e01c80638c2b8ae11161020a578063c787a8fc11610125578063e587497e116100b8578063f5a9838311610087578063f5a9838314610f7c578063f5f3d4f714610f84578063f62f8f3a14610f8c578063f683776714610fa9578063f6a494af14610fcf576103e6565b8063e587497e14610ec2578063e64767aa14610eee578063ed475a7914610f24578063f0e292c914610f50576103e6565b8063dc4fcda7116100f4578063dc4fcda714610d61578063dd62ed3e14610e84578063deea13e714610eb2578063e17f212e14610eba576103e6565b8063c787a8fc14610cea578063caeb942b14610cf2578063d06dc3ad14610d0f578063d6aa0b7714610d3b576103e6565b80639d6a890f1161019d578063a9059cbb1161016c578063a9059cbb14610c5c578063b302f39314610c88578063bbd6fbf814610c90578063be0ca74714610cbc576103e6565b80639d6a890f14610bba5780639dc29fac14610be05780639e3bc20814610c0c578063a457c2d714610c30576103e6565b8063981b24d0116101d9578063981b24d014610b675780639b3baa0e14610b845780639ca20e4e14610b8c5780639ca2231a14610b94576103e6565b80638c2b8ae114610b2357806392bfe6d814610b2b57806394217ad114610b5757806395d89b4114610b5f576103e6565b806340c10f19116103055780635ff270791161029857806374e6310e1161026757806374e6310e14610938578063755d10a4146109de5780637de5b8ed14610a045780637f4fcaa914610ad157806383035a8214610af7576103e6565b80635ff27079146108bc57806362354e03146108e357806367fc4029146108eb57806370a0823114610912576103e6565b80634eac870f116102d45780634eac870f146107df5780634ee2cd7e146107e75780635aa6e675146108135780635d6d11eb1461081b576103e6565b806340c10f191461067d57806343060237146106a957806343ea370b146106cf57806349e3c7e5146106ec576103e6565b806318160ddd1161037d578063313ce5671161034c578063313ce567146105f057806331d12a161461060e57806339509351146106345780633e5aa26a14610660576103e6565b806318160ddd14610586578063194307bf1461058e5780631fec092a1461059657806323b872dd146105ba576103e6565b8063095ea7b3116103b9578063095ea7b31461050f5780630c08bf881461053b57806313de97f514610543578063142d101814610560576103e6565b806301ffc9a7146103eb578063026e402b1461042657806304bb4e431461045457806306fdde0314610492575b600080fd5b6104126004803603602081101561040157600080fd5b50356001600160e01b031916610ff5565b604080519115158252519081900360200190f35b6104526004803603604081101561043c57600080fd5b506001600160a01b03813516906020013561109a565b005b6104806004803603604081101561046a57600080fd5b506001600160a01b038135169060200135611111565b60408051918252519081900360200190f35b61049a6111a1565b6040805160208082528351818301528351919283929083019185019080838360005b838110156104d45781810151838201526020016104bc565b50505050905090810190601f1680156105015780820380516001836020036101000a031916815260200191505b509250505060405180910390f35b6104126004803603604081101561052557600080fd5b506001600160a01b0381351690602001356111b0565b6104526111cd565b6104526004803603602081101561055957600080fd5b5035611260565b6104806004803603602081101561057657600080fd5b50356001600160a01b031661141a565b61048061149f565b6104126114a5565b61059e6114bd565b604080516001600160a01b039092168252519081900360200190f35b610412600480360360608110156105d057600080fd5b506001600160a01b038135811691602081013590911690604001356114cc565b6105f8611554565b6040805160ff9092168252519081900360200190f35b6104526004803603602081101561062457600080fd5b50356001600160a01b031661155e565b6104126004803603604081101561064a57600080fd5b506001600160a01b038135169060200135611716565b6104806004803603602081101561067657600080fd5b5035611764565b6104526004803603604081101561069357600080fd5b506001600160a01b03813516906020013561176f565b610452600480360360208110156106bf57600080fd5b50356001600160a01b03166117d1565b610480600480360360208110156106e557600080fd5b50356118ce565b61078f6004803603604081101561070257600080fd5b810190602081018135600160201b81111561071c57600080fd5b82018360208201111561072e57600080fd5b803590602001918460208302840111600160201b8311171561074f57600080fd5b9190808060200260200160405190810160405280939291908181526020018383602002808284376000920191909152509295505091359250611927915050565b60408051602080825283518183015283519192839290830191858101910280838360005b838110156107cb5781810151838201526020016107b3565b505050509050019250505060405180910390f35b61059e6119b2565b610480600480360360408110156107fd57600080fd5b506001600160a01b0381351690602001356119c1565b61059e6119cd565b6104806004803603602081101561083157600080fd5b810190602081018135600160201b81111561084b57600080fd5b82018360208201111561085d57600080fd5b803590602001918460208302840111600160201b8311171561087e57600080fd5b919080806020026020016040519081016040528093929190818152602001838360200280828437600092019190915250929550611a6a945050505050565b610452600480360360208110156108d257600080fd5b50356001600160e01b031916611acf565b61059e611d4e565b6104526004803603602081101561090157600080fd5b50356001600160e01b031916611d59565b6104806004803603602081101561092857600080fd5b50356001600160a01b0316611dff565b61095f6004803603602081101561094e57600080fd5b50356001600160e01b031916611e1a565b6040518083815260200180602001828103825283818151815260200191508051906020019080838360005b838110156109a257818101518382015260200161098a565b50505050905090810190601f1680156109cf5780820380516001836020036101000a031916815260200191505b50935050505060405180910390f35b610452600480360360208110156109f457600080fd5b50356001600160a01b0316611ec1565b610a2a60048036036020811015610a1a57600080fd5b50356001600160a01b0316612122565b604051808060200180602001858152602001848152602001838103835287818151815260200191508051906020019060200280838360005b83811015610a7a578181015183820152602001610a62565b50505050905001838103825286818151815260200191508051906020019060200280838360005b83811015610ab9578181015183820152602001610aa1565b50505050905001965050505050505060405180910390f35b61045260048036036020811015610ae757600080fd5b50356001600160a01b03166121be565b61048060048036036040811015610b0d57600080fd5b506001600160a01b03813516906020013561220d565b61059e61224f565b61048060048036036040811015610b4157600080fd5b506001600160a01b03813516906020013561225e565b61059e612295565b61049a6122a4565b61048060048036036020811015610b7d57600080fd5b50356122ae565b61059e6122b9565b61059e6122c8565b61045260048036036020811015610baa57600080fd5b50356001600160a01b03166122d7565b61045260048036036020811015610bd057600080fd5b50356001600160a01b031661240f565b61045260048036036040811015610bf657600080fd5b506001600160a01b03813516906020013561249e565b610c146124fc565b604080516001600160401b039092168252519081900360200190f35b61041260048036036040811015610c4657600080fd5b506001600160a01b038135169060200135612512565b61041260048036036040811015610c7257600080fd5b506001600160a01b03813516906020013561257a565b61045261258e565b61045260048036036040811015610ca657600080fd5b506001600160a01b0381351690602001356125f9565b61048060048036036040811015610cd257600080fd5b506001600160a01b038135811691602001351661271e565b61041261275f565b61048060048036036020811015610d0857600080fd5b503561276f565b61045260048036036040811015610d2557600080fd5b506001600160a01b03813516906020013561277a565b61048060048036036020811015610d5157600080fd5b50356001600160a01b031661279b565b61045260048036036040811015610d7757600080fd5b810190602081018135600160201b811115610d9157600080fd5b820183602082011115610da357600080fd5b803590602001918460208302840111600160201b83111715610dc457600080fd5b9190808060200260200160405190810160405280939291908181526020018383602002808284376000920191909152509295949360208101935035915050600160201b811115610e1357600080fd5b820183602082011115610e2557600080fd5b803590602001918460208302840111600160201b83111715610e4657600080fd5b9190808060200260200160405190810160405280939291908181526020018383602002808284376000920191909152509295506127da945050505050565b61048060048036036040811015610e9a57600080fd5b506001600160a01b0381358116916020013516612917565b610480612942565b61041261294c565b61048060048036036040811015610ed857600080fd5b506001600160a01b03813516906020013561295c565b61048060048036036060811015610f0457600080fd5b506001600160a01b038135811691602081013590911690604001356129c1565b610a2a60048036036040811015610f3a57600080fd5b506001600160a01b038135169060200135612a5d565b61048060048036036040811015610f6657600080fd5b506001600160a01b038135169060200135612afc565b610452612b3c565b610480612bc6565b61048060048036036020811015610fa257600080fd5b5035612bd0565b61048060048036036020811015610fbf57600080fd5b50356001600160a01b0316612c0e565b61045260048036036020811015610fe557600080fd5b50356001600160a01b0316612c43565b60006001600160e01b031982166301ffc9a760e01b148061102657506001600160e01b031982166336372b0760e01b145b8061104157506001600160e01b031982166302d57e8d60e11b145b8061105c57506001600160e01b03198216635c69525360e01b145b8061107757506001600160e01b03198216638562f30360e01b145b8061109257506001600160e01b03198216633b9010bd60e01b145b90505b919050565b6110a2612dfb565b6001600160a01b0316636230001a33846110bb33611dff565b856040518563ffffffff1660e01b81526004016110db9493929190614426565b600060405180830381600087803b1580156110f557600080fd5b505af1158015611109573d6000803e3d6000fd5b505050505050565b600061111b612e27565b6001600160a01b03166304bb4e4384846040518363ffffffff1660e01b8152600401611148929190614473565b60206040518083038186803b15801561116057600080fd5b505afa158015611174573d6000803e3d6000fd5b505050506040513d601f19601f82011682018060405250810190611198919061439b565b90505b92915050565b60606111ab612e53565b905090565b60006111c46111bd612ee9565b8484612eed565b50600192915050565b6012546001600160a01b03163314611221576040805162461bcd60e51b815260206004820152601260248201527137b7363c9030b9b9b2ba1036b0b730b3b2b960711b604482015290519081900360640190fd5b601254600160a01b90046001600160401b031661125e576012805467ffffffffffffffff60a01b1916600160a01b426001600160401b0316021790555b565b6011546001600160a01b031633146112935760405162461bcd60e51b815260040161128a90614c10565b60405180910390fd5b61129c81612fa1565b600e546001600160a01b03161561131057600e546040516313de97f560e01b81526001600160a01b03909116906313de97f5906112dd908490600401614d55565b600060405180830381600087803b1580156112f757600080fd5b505af115801561130b573d6000803e3d6000fd5b505050505b600f546001600160a01b03161580159061133b5750600e54600f546001600160a01b03908116911614155b156113a357600f546040516313de97f560e01b81526001600160a01b03909116906313de97f590611370908490600401614d55565b600060405180830381600087803b15801561138a57600080fd5b505af115801561139e573d6000803e3d6000fd5b505050505b6010546001600160a01b031615611417576010546040516313de97f560e01b81526001600160a01b03909116906313de97f5906113e4908490600401614d55565b600060405180830381600087803b1580156113fe57600080fd5b505af1158015611412573d6000803e3d6000fd5b505050505b50565b6000611424612e27565b6001600160a01b031663142d1018836040518263ffffffff1660e01b815260040161144f9190614412565b60206040518083038186803b15801561146757600080fd5b505afa15801561147b573d6000803e3d6000fd5b505050506040513d601f19601f82011682018060405250810190611092919061439b565b60025490565b601254600160a01b90046001600160401b0316151590565b600f546001600160a01b031690565b60006114d9848484612fe7565b611549846114e5612ee9565b61154485604051806060016040528060288152602001614e28602891396001600160a01b038a16600090815260016020526040812090611523612ee9565b6001600160a01b0316815260208101919091526040016000205491906130fc565b612eed565b5060015b9392505050565b60006111ab613128565b600c54600160b01b900460ff16806115805750600c54600160a81b900460ff16155b1561170b5761158d613131565b6001600160a01b038116156116a357306001600160a01b0316816001600160a01b031663653718836040518163ffffffff1660e01b815260040160206040518083038186803b1580156115df57600080fd5b505afa1580156115f3573d6000803e3d6000fd5b505050506040513d601f19601f82011682018060405250810190611617919061425b565b6001600160a01b03161461163d5760405162461bcd60e51b815260040161128a90614d13565b806001600160a01b03166313de97f5611654613166565b6040518263ffffffff1660e01b81526004016116709190614d55565b600060405180830381600087803b15801561168a57600080fd5b505af115801561169e573d6000803e3d6000fd5b505050505b600e546040517fbec98a6c0f609cda6b9f23b95824ba6ac733cb57edd17d344f2f279684400739916116e3916000916001600160a01b0316908590614584565b60405180910390a1600e80546001600160a01b0319166001600160a01b038316179055611417565b61141760003661316c565b60006111c4611723612ee9565b846115448560016000611734612ee9565b6001600160a01b03908116825260208083019390935260409182016000908120918c1681529252902054906132c5565b6000611092826122ae565b6012546001600160a01b031633146117c3576040805162461bcd60e51b815260206004820152601260248201527137b7363c9030b9b9b2ba1036b0b730b3b2b960711b604482015290519081900360640190fd5b6117cd82826132ea565b5050565b600c54600160b01b900460ff16806117f35750600c54600160a81b900460ff16155b1561170b57611800613131565b6001600160a01b038116611850576040805162461bcd60e51b81526020600482015260126024820152713d32b9379030b9b9b2ba1036b0b730b3b2b960711b604482015290519081900360640190fd5b6012546001600160a01b0316156118ae576040805162461bcd60e51b815260206004820152601c60248201527f63616e6e6f74207265706c616365206173736574206d616e6167657200000000604482015290519081900360640190fd5b601280546001600160a01b0319166001600160a01b038316179055611417565b600b546000906001600160a01b031633146118fb5760405162461bcd60e51b815260040161128a9061491a565b600a54821061191c5760405162461bcd60e51b815260040161128a90614b24565b6110926009836133aa565b6060611931612e27565b6001600160a01b03166349e3c7e584846040518363ffffffff1660e01b815260040161195e929190614502565b60006040518083038186803b15801561197657600080fd5b505afa15801561198a573d6000803e3d6000fd5b505050506040513d6000823e601f3d908101601f191682016040526111989190810190614349565b6011546001600160a01b031681565b600061119883836133de565b600c54600090600160a81b900460ff166119f257600c546001600160a01b03166111ab565b60076001609c1b016001600160a01b031663732524946040518163ffffffff1660e01b815260040160206040518083038186803b158015611a3257600080fd5b505afa158015611a46573d6000803e3d6000fd5b505050506040513d601f19601f820116820180604052508101906111ab919061425b565b6000611a74612dfb565b6001600160a01b0316630f8b8af733846040518363ffffffff1660e01b8152600401611aa192919061444f565b602060405180830381600087803b158015611abb57600080fd5b505af115801561147b573d6000803e3d6000fd5b604051630debfda360e41b815260076001609c1b019063debfda3090611af9903390600401614412565b60206040518083038186803b158015611b1157600080fd5b505afa158015611b25573d6000803e3d6000fd5b505050506040513d601f19601f82011682018060405250810190611b49919061437b565b611b655760405162461bcd60e51b815260040161128a90614c47565b6001600160e01b031981166000908152600d602052604090208054611b9c5760405162461bcd60e51b815260040161128a90614c6e565b8054421015611bbd5760405162461bcd60e51b815260040161128a906149c6565b6000816001018054600181600116156101000203166002900480601f016020809104026020016040519081016040528092919081815260200182805460018160011615610100020316600290048015611c575780601f10611c2c57610100808354040283529160200191611c57565b820191906000526020600020905b815481529060010190602001808311611c3a57829003601f168201915b505050506001600160e01b031985166000908152600d602052604081208181559293509050611c896001830182614112565b5050600c805460ff60b01b1916600160b01b1790556040516000903090611cb19084906143f6565b6000604051808303816000865af19150503d8060008114611cee576040519150601f19603f3d011682016040523d82523d6000602084013e611cf3565b606091505b5050600c805460ff60b01b191690556040519091507fa7326b57fc9cfe267aaea5e7f0b01757154d265620a0585819416ee9ddd2c43890611d379086904290614524565b60405180910390a1611d488161340f565b50505050565b60076001609c1b0181565b611d6161342c565b6001600160e01b031981166000908152600d6020526040902054611d975760405162461bcd60e51b815260040161128a90614c6e565b7f7735b2391c38a81419c513e30ca578db7158eadd7101511b23e221c654d19cf88142604051611dc8929190614524565b60405180910390a16001600160e01b031981166000908152600d6020526040812081815590611dfa6001830182614112565b505050565b6001600160a01b031660009081526020819052604090205490565b600d602090815260009182526040918290208054600180830180548651600293821615610100026000190190911692909204601f810186900486028301860190965285825291949293909290830182828015611eb75780601f10611e8c57610100808354040283529160200191611eb7565b820191906000526020600020905b815481529060010190602001808311611e9a57829003601f168201915b5050505050905082565b600c54600160b01b900460ff1680611ee35750600c54600160a81b900460ff16155b1561170b57611ef0613131565b6001600160a01b038116156120ba57306001600160a01b0316816001600160a01b031663653718836040518163ffffffff1660e01b815260040160206040518083038186803b158015611f4257600080fd5b505afa158015611f56573d6000803e3d6000fd5b505050506040513d601f19601f82011682018060405250810190611f7a919061425b565b6001600160a01b031614611fa05760405162461bcd60e51b815260040161128a90614d13565b601154600160a01b900460ff1615806120255750806001600160a01b031663aa94d3f26040518163ffffffff1660e01b815260040160206040518083038186803b158015611fed57600080fd5b505afa158015612001573d6000803e3d6000fd5b505050506040513d601f19601f82011682018060405250810190612025919061437b565b6120415760405162461bcd60e51b815260040161128a9061489a565b806001600160a01b03166313de97f5612058613166565b6040518263ffffffff1660e01b81526004016120749190614d55565b600060405180830381600087803b15801561208e57600080fd5b505af11580156120a2573d6000803e3d6000fd5b50506011805460ff60a01b1916600160a01b17905550505b600f546040517fbec98a6c0f609cda6b9f23b95824ba6ac733cb57edd17d344f2f279684400739916120fa916001916001600160a01b0316908590614584565b60405180910390a1600f80546001600160a01b0319166001600160a01b038316179055611417565b606080600080612130612e27565b6001600160a01b0316637de5b8ed866040518263ffffffff1660e01b815260040161215b9190614412565b60006040518083038186803b15801561217357600080fd5b505afa158015612187573d6000803e3d6000fd5b505050506040513d6000823e601f3d908101601f191682016040526121af9190810190614277565b93509350935093509193509193565b600c54600160b01b900460ff16806121e05750600c54600160a81b900460ff16155b1561170b576121ed613131565b601180546001600160a01b0319166001600160a01b038316179055611417565b6000612217612e27565b6001600160a01b031663315039278461223086866119c1565b856040518463ffffffff1660e01b8152600401611148939291906144e1565b6010546001600160a01b031690565b6000612268612e27565b6001600160a01b03166392bfe6d884846040518363ffffffff1660e01b8152600401611148929190614473565b6012546001600160a01b031681565b60606111ab613464565b6000611092826134c5565b600e546001600160a01b031690565b600b546001600160a01b031681565b600c54600160b01b900460ff16806122f95750600c54600160a81b900460ff16155b1561170b57612306613131565b306001600160a01b0316816001600160a01b031663653718836040518163ffffffff1660e01b815260040160206040518083038186803b15801561234957600080fd5b505afa15801561235d573d6000803e3d6000fd5b505050506040513d601f19601f82011682018060405250810190612381919061425b565b6001600160a01b0316146123a75760405162461bcd60e51b815260040161128a906149fd565b6010546040517fbec98a6c0f609cda6b9f23b95824ba6ac733cb57edd17d344f2f279684400739916123e7916002916001600160a01b0316908590614584565b60405180910390a1601080546001600160a01b0319166001600160a01b038316179055611417565b600c54600160a01b900460ff16156124395760405162461bcd60e51b815260040161128a90614bab565b600c8054600160a01b60ff60a01b19909116176001600160a01b0319166001600160a01b0383161790556040517f9789733827840833afc031fb2ef9ab6894271f77bad2085687cf4ae5c7bee4db90612493908390614412565b60405180910390a150565b6012546001600160a01b031633146124f2576040805162461bcd60e51b815260206004820152601260248201527137b7363c9030b9b9b2ba1036b0b730b3b2b960711b604482015290519081900360640190fd5b6117cd82826134f5565b601254600160a01b90046001600160401b031681565b60006111c461251f612ee9565b8461154485604051806060016040528060258152602001614e506025913960016000612549612ee9565b6001600160a01b03908116825260208083019390935260409182016000908120918d168152925290205491906130fc565b60006111c4612587612ee9565b8484612fe7565b612596612dfb565b6001600160a01b03166305109ecf336125ae33611dff565b6040518363ffffffff1660e01b81526004016125cb929190614473565b600060405180830381600087803b1580156125e557600080fd5b505af1158015611d48573d6000803e3d6000fd5b600f54600e546001600160a01b039182169116811561268057816001600160a01b031663c7c62fab338661262d33886119c1565b876040518563ffffffff1660e01b815260040161264d9493929190614426565b600060405180830381600087803b15801561266757600080fd5b505af115801561267b573d6000803e3d6000fd5b505050505b816001600160a01b0316816001600160a01b0316141580156126aa57506001600160a01b03811615155b15611d4857806001600160a01b031663c7c62fab33866126ca33886119c1565b876040518563ffffffff1660e01b81526004016126ea9493929190614426565b600060405180830381600087803b15801561270457600080fd5b505af1925050508015612715575060015b611d4857611d48565b6000612728612e27565b6001600160a01b0316639dc6b9f2848461274187611dff565b6040518463ffffffff1660e01b81526004016111489392919061448c565b601154600160a01b900460ff1681565b6000611092826135cb565b612782612dfb565b6001600160a01b031663404d9e8233846110bb33611dff565b60006127a5612e27565b6001600160a01b0316634a03d556836127bd85611dff565b6040518363ffffffff1660e01b815260040161144f929190614473565b80518251146127fb5760405162461bcd60e51b815260040161128a9061465a565b6000612805612dfb565b9050600061281233611dff565b6040516305109ecf60e01b81529091506001600160a01b038316906305109ecf906128439033908590600401614473565b600060405180830381600087803b15801561285d57600080fd5b505af1158015612871573d6000803e3d6000fd5b5050505060005b845181101561141257826001600160a01b0316636230001a3387848151811061289d57fe5b6020026020010151858886815181106128b257fe5b60200260200101516040518563ffffffff1660e01b81526004016128d99493929190614426565b600060405180830381600087803b1580156128f357600080fd5b505af1158015612907573d6000803e3d6000fd5b5050600190920191506128789050565b6001600160a01b03918216600090815260016020908152604080832093909416825291909152205490565b60006111ab613166565b600c54600160a81b900460ff1681565b6000612966612e27565b6001600160a01b031663e587497e84846040518363ffffffff1660e01b8152600401612993929190614473565b602060405180830381600087803b1580156129ad57600080fd5b505af1158015611174573d6000803e3d6000fd5b60006129cb612e27565b6001600160a01b031663833aca9285856129e588876119c1565b866040518563ffffffff1660e01b8152600401612a059493929190614426565b60206040518083038186803b158015612a1d57600080fd5b505afa158015612a31573d6000803e3d6000fd5b505050506040513d601f19601f82011682018060405250810190612a55919061439b565b949350505050565b606080600080612a6b612e27565b6001600160a01b031663ed475a7987876040518363ffffffff1660e01b8152600401612a98929190614473565b60006040518083038186803b158015612ab057600080fd5b505afa158015612ac4573d6000803e3d6000fd5b505050506040513d6000823e601f3d908101601f19168201604052612aec9190810190614277565b9299919850965090945092505050565b600b546000906001600160a01b03163314612b295760405162461bcd60e51b815260040161128a9061491a565b600a546111989060069085908590613669565b612b4461342c565b600c54600160a81b900460ff1615612b6e5760405162461bcd60e51b815260040161128a906147b6565b600c8054600161ff0160a01b031916600160a81b1790556040517f83af113638b5422f9e977cebc0aaf0eaf2188eb9a8baae7f9d46c42b33a1560c90612bbc9060076001609c1b0190614412565b60405180910390a1565b60006111ab61149f565b600b546000906001600160a01b03163314612bfd5760405162461bcd60e51b815260040161128a9061491a565b600a546110929060079084906136af565b6000612c18612e27565b6001600160a01b031663f6837767836040518263ffffffff1660e01b815260040161144f9190614412565b600c54600160b01b900460ff1680612c655750600c54600160a81b900460ff16155b1561170b57612c72613131565b612c7b8161379c565b600e546001600160a01b031615612cef57600e5460405163f6a494af60e01b81526001600160a01b039091169063f6a494af90612cbc908490600401614412565b600060405180830381600087803b158015612cd657600080fd5b505af1158015612cea573d6000803e3d6000fd5b505050505b600f546001600160a01b031615801590612d1a5750600e54600f546001600160a01b03908116911614155b15612d8257600f5460405163f6a494af60e01b81526001600160a01b039091169063f6a494af90612d4f908490600401614412565b600060405180830381600087803b158015612d6957600080fd5b505af1158015612d7d573d6000803e3d6000fd5b505050505b6010546001600160a01b031615612df65760105460405163f6a494af60e01b81526001600160a01b039091169063f6a494af90612dc3908490600401614412565b600060405180830381600087803b158015612ddd57600080fd5b505af1158015612df1573d6000803e3d6000fd5b505050505b611417565b600f546000906001600160a01b0316806111ab5760405162461bcd60e51b815260040161128a90614949565b600e546000906001600160a01b0316806111ab5760405162461bcd60e51b815260040161128a90614ca5565b60038054604080516020601f6002600019610100600188161502019095169490940493840181900481028201810190925282815260609390929091830182828015612edf5780601f10612eb457610100808354040283529160200191612edf565b820191906000526020600020905b815481529060010190602001808311612ec257829003601f168201915b5050505050905090565b3390565b6001600160a01b038316612f135760405162461bcd60e51b815260040161128a90614ae0565b6001600160a01b038216612f395760405162461bcd60e51b815260040161128a90614689565b6001600160a01b0380841660008181526001602090815260408083209487168084529490915290819020849055517f8c5be1e5ebec7d5bd14f71427d1e84f3dd0314c0f7b2291e5b200ac8c7c3b92590612f94908590614d55565b60405180910390a3505050565b600a54811015612fc35760405162461bcd60e51b815260040161128a90614702565b438110612fe25760405162461bcd60e51b815260040161128a90614619565b600a55565b6001600160a01b03831661300d5760405162461bcd60e51b815260040161128a90614a9b565b6001600160a01b0382166130335760405162461bcd60e51b815260040161128a906145d6565b61303e8383836137be565b61307b81604051806060016040528060268152602001614e02602691396001600160a01b03861660009081526020819052604090205491906130fc565b6001600160a01b0380851660009081526020819052604080822093909355908416815220546130aa90826132c5565b6001600160a01b0380841660008181526020819052604090819020939093559151908516907fddf252ad1be2c89b69c2b068fc378daa952ba7f163c4a11628f55a4df523b3ef90612f94908590614d55565b600081848411156131205760405162461bcd60e51b815260040161128a91906145a3565b505050900390565b60055460ff1690565b600c54600160b01b900460ff161561315e5733301461314c57fe5b600c805460ff60b01b1916905561125e565b61125e61342c565b600a5490565b61317461342c565b600082359050600060076001609c1b016001600160a01b0316636221a54b6040518163ffffffff1660e01b815260040160206040518083038186803b1580156131bc57600080fd5b505afa1580156131d0573d6000803e3d6000fd5b505050506040513d601f19601f820116820180604052508101906131f4919061439b565b905060008142019050604051806040016040528082815260200186868080601f01602080910402602001604051908101604052809392919081815260200183838082843760009201829052509390945250506001600160e01b031986168152600d602090815260409091208351815583820151805191935061327d926001850192910190614156565b509050507fed948300a3694aa01d4a6b258bfd664350193d770c0b51f8387277f6d83ea3b6838287876040516132b6949392919061453e565b60405180910390a15050505050565b6000828201838110156111985760405162461bcd60e51b815260040161128a906146cb565b6001600160a01b0382166133105760405162461bcd60e51b815260040161128a90614cdc565b61331c600083836137be565b60025461332990826132c5565b6002556001600160a01b03821660009081526020819052604090205461334f90826132c5565b6001600160a01b0383166000818152602081905260408082209390935591519091907fddf252ad1be2c89b69c2b068fc378daa952ba7f163c4a11628f55a4df523b3ef9061339e908590614d55565b60405180910390a35050565b600081815260208390526040812054156133d55750600081815260208390526040812055600161119b565b50600092915050565b600081600a548110156134035760405162461bcd60e51b815260040161128a9061484d565b612a5560068585613823565b3d604051818101604052816000823e8215613428578181f35b8181fd5b6134346119cd565b6001600160a01b0316336001600160a01b03161461125e5760405162461bcd60e51b815260040161128a906147ed565b60048054604080516020601f6002600019610100600188161502019095169490940493840181900481028201810190925282815260609390929091830182828015612edf5780601f10612eb457610100808354040283529160200191612edf565b600081600a548110156134ea5760405162461bcd60e51b815260040161128a9061484d565b61154d60078461384e565b6001600160a01b03821661351b5760405162461bcd60e51b815260040161128a90614a5a565b613527826000836137be565b61356481604051806060016040528060228152602001614de0602291396001600160a01b03851660009081526020819052604090205491906130fc565b6001600160a01b03831660009081526020819052604090205560025461358a9082613972565b6002556040516000906001600160a01b038416907fddf252ad1be2c89b69c2b068fc378daa952ba7f163c4a11628f55a4df523b3ef9061339e908590614d55565b600081600a548110156135f05760405162461bcd60e51b815260040161128a9061484d565b43831061360f5760405162461bcd60e51b815260040161128a9061474a565b60008061361f600960078761399a565b915091508015613661577ffec477a10b4fcdfdf1114eb32b3caf6118b2d76d20e1fcb70007274bb4b616be856040516136589190614d55565b60405180910390a15b509392505050565b60006001600160a01b038416156136a4576001600160a01b038416600090815260208690526040902061369d9084846136af565b9050612a55565b506000949350505050565b6000816136be5750600061154d565b6001840154600160401b90046001600160401b0316806136e257600091505061154d565b60018501546001600160401b031660006137086136ff83886132c5565b600185036139f8565b9050815b818110801561373d575060018101600090815260208990526040902054600160c01b90046001600160401b03168610155b156137595760008181526020899052604081205560010161370c565b8281111561378e5761376a81613a0e565b60018901805467ffffffffffffffff19166001600160401b03929092169190911790555b919091039695505050505050565b600b80546001600160a01b0319166001600160a01b0392909216919091179055565b601254600160a01b90046001600160401b031615613818576040805162461bcd60e51b8152602060048201526012602482015271198b585cdcd95d081d195c9b5a5b985d195960721b604482015290519081900360640190fd5b611dfa838383613a37565b6001600160a01b0382166000908152602084905260408120613845818461384e565b95945050505050565b6001820154600090600160401b90046001600160401b03168061387557600091505061119b565b43831015806138a757506000198101600090815260208590526040902054600160c01b90046001600160401b03168310155b156138cf57600019016000908152602084905260409020546001600160c01b0316905061119b565b60018401546001600160401b039081166000818152602087905260409020549091600160c01b9091041684101561392957801561391e5760405162461bcd60e51b815260040161128a90614b5b565b60009250505061119b565b600185015460009061394f9087908490600160401b90046001600160401b031688613bdd565b6000908152602087905260409020546001600160c01b0316935050505092915050565b6000828211156139945760405162461bcd60e51b815260040161128a9061477f565b50900390565b600081815260208490526040812054819080156139c057600019019150600090506139f0565b60006139cc868661384e565b90506139d98160016132c5565b600086815260208990526040902055925060019150505b935093915050565b6000818310613a075781611198565b5090919050565b6000600160401b8210613a335760405162461bcd60e51b815260040161128a90614980565b5090565b816001600160a01b0316836001600160a01b03161415613a695760405162461bcd60e51b815260040161128a90614bd9565b60006001600160a01b038416613a80576000613a89565b613a8984611dff565b905060006001600160a01b038416613aa2576000613aab565b613aab84611dff565b600f549091506001600160a01b03168015613b2b5760405163756da1b160e11b81526001600160a01b0382169063eadb436290613af49089908990889088908b906004016144b0565b600060405180830381600087803b158015613b0e57600080fd5b505af1158015613b22573d6000803e3d6000fd5b50505050613b50565b601154600160a01b900460ff16613b50576011805460ff60a01b1916600160a01b1790555b6010546001600160a01b03168015613bc95760405163756da1b160e11b81526001600160a01b0382169063eadb436290613b96908a908a90899089908c906004016144b0565b600060405180830381600087803b158015613bb057600080fd5b505af1158015613bc4573d6000803e3d6000fd5b505050505b613bd4878787613c67565b50505050505050565b60008381613bec856001613972565b90505b81811115613c5d576000613c196002613c136001613c0d86886132c5565b906132c5565b90613ca7565b600081815260208a90526040902054909150600160c01b90046001600160401b03168510613c4957809250613c57565b613c54816001613972565b91505b50613bef565b5095945050505050565b6001600160a01b038316613c8457613c7f8282613cd9565b611dfa565b6001600160a01b038216613c9c57613c7f8382613d36565b611dfa838383613de5565b6000808211613cc85760405162461bcd60e51b815260040161128a90614816565b818381613cd157fe5b049392505050565b6000613ce982613c0d85436119c1565b9050613cf760068483613e1b565b600a54613d0b906006908590600290613669565b50613d24613d1c83613c0d436122ae565b600790613e39565b600a54611d48906007906002906136af565b6000613d7c8260405180604001604052806016815260200175213ab937103a37b7903134b3903337b91037bbb732b960511b815250613d7586436119c1565b91906130fc565b9050613d8a60068483613e1b565b600a54613d9e906006908590600290613669565b50613d24613d1c836040518060400160405280601d81526020017f4275726e20746f6f2062696720666f7220746f74616c20737570706c79000000815250613d75436122ae565b613df26006848484613ffa565b600a54613e06906006908590600290613669565b50600a54611d48906006908490600290613669565b6001600160a01b0382166000908152602084905260409020611d4881835b6001820154600160401b90046001600160401b031680613ef0576040518060400160405280613e6784614089565b6001600160c01b03168152602001613e7e43613a0e565b6001600160401b03908116909152600080805260208681526040909120835181549490920151909216600160c01b026001600160c01b039182166001600160c01b0319909416939093171691909117905560018301805467ffffffffffffffff60401b1916600160401b179055611dfa565b600019810160009081526020849052604090208054600160c01b90046001600160401b031643811415613f4657613f2684614089565b82546001600160c01b0319166001600160c01b0391909116178255611412565b804311613f4f57fe5b6040518060400160405280613f6386614089565b6001600160c01b03168152602001613f7a43613a0e565b6001600160401b039081169091526000858152602088815260409091208351815494909201518316600160c01b026001600160c01b039283166001600160c01b0319909516949094179091169290921790915560018087018054918601909216600160401b0267ffffffffffffffff60401b199091161790555050505050565b8061400457611d48565b6001600160a01b03831615801561402257506001600160a01b038216155b1561402957fe5b6001600160a01b0383161561405d57600061404e8261404887876140ae565b90613972565b905061405b858583613e1b565b505b6001600160a01b03821615611d4857600061407c82613c0d87866140ae565b9050611412858483613e1b565b6000600160c01b8210613a335760405162461bcd60e51b815260040161128a906148e3565b6001600160a01b0381166000908152602083905260408120612a55816001810154600090600160401b90046001600160401b0316806140f1576000915050611095565b6000190160009081526020929092525060409020546001600160c01b031690565b50805460018160011615610100020316600290046000825580601f106141385750611417565b601f01602090049060005260206000209081019061141791906141da565b828054600181600116156101000203166002900490600052602060002090601f01602090048101928261418c57600085556141d2565b82601f106141a557805160ff19168380011785556141d2565b828001600101855582156141d2579182015b828111156141d25782518255916020019190600101906141b7565b50613a339291505b5b80821115613a3357600081556001016141db565b600082601f8301126141ff578081fd5b8151602061421461420f83614d81565b614d5e565b8281528181019085830183850287018401881015614230578586fd5b855b8581101561424e57815184529284019290840190600101614232565b5090979650505050505050565b60006020828403121561426c578081fd5b815161119881614dca565b6000806000806080858703121561428c578283fd5b84516001600160401b03808211156142a2578485fd5b818701915087601f8301126142b5578485fd5b815160206142c561420f83614d81565b82815281810190858301838502870184018d10156142e157898afd5b8996505b8487101561430c5780516142f881614dca565b8352600196909601959183019183016142e5565b50918a0151919850909350505080821115614325578485fd5b50614332878288016141ef565b604087015160609097015195989097509350505050565b60006020828403121561435a578081fd5b81516001600160401b0381111561436f578182fd5b612a55848285016141ef565b60006020828403121561438c578081fd5b81518015158114611198578182fd5b6000602082840312156143ac578081fd5b5051919050565b6000815180845260208085019450808401835b838110156143eb5781516001600160a01b0316875295820195908201906001016143c6565b509495945050505050565b60008251614408818460208701614d9e565b9190910192915050565b6001600160a01b0391909116815260200190565b6001600160a01b0394851681529290931660208301526040820152606081019190915260800190565b6001600160a01b0383168152604060208201819052600090612a55908301846143b3565b6001600160a01b03929092168252602082015260400190565b6001600160a01b039384168152919092166020820152604081019190915260600190565b6001600160a01b03958616815293909416602084015260408301919091526060820152608081019190915260a00190565b6001600160a01b039390931683526020830191909152604082015260600190565b60006040825261451560408301856143b3565b90508260208301529392505050565b6001600160e01b0319929092168252602082015260400190565b600063ffffffff60e01b861682528460208301526060604083015282606083015282846080840137818301608090810191909152601f909201601f191601019392505050565b9283526001600160a01b03918216602084015216604082015260600190565b60006020825282518060208401526145c2816040850160208701614d9e565b601f01601f19169190910160400192915050565b60208082526023908201527f45524332303a207472616e7366657220746f20746865207a65726f206164647260408201526265737360e81b606082015260800190565b60208082526021908201527f436c65616e757020626c6f636b206d75737420626520696e20746865207061736040820152601d60fa1b606082015260800190565b602080825260159082015274082e4e4c2f240d8cadccee8d040dad2e6dac2e8c6d605b1b604082015260600190565b60208082526022908201527f45524332303a20617070726f766520746f20746865207a65726f206164647265604082015261737360f01b606082015260800190565b6020808252601b908201527f536166654d6174683a206164646974696f6e206f766572666c6f770000000000604082015260600190565b60208082526028908201527f436c65616e757020626c6f636b206e756d626572206d757374206e6576657220604082015267646563726561736560c01b606082015260800190565b6020808252818101527f43616e206f6e6c79206265207573656420666f72207061737420626c6f636b73604082015260600190565b6020808252601e908201527f536166654d6174683a207375627472616374696f6e206f766572666c6f770000604082015260600190565b6020808252601a908201527f616c726561647920696e2070726f64756374696f6e206d6f6465000000000000604082015260600190565b6020808252600f908201526e6f6e6c7920676f7665726e616e636560881b604082015260600190565b6020808252601a908201527f536166654d6174683a206469766973696f6e206279207a65726f000000000000604082015260600190565b6020808252602d908201527f436865636b506f696e7461626c653a2072656164696e672066726f6d20636c6560408201526c616e65642d757020626c6f636b60981b606082015260800190565b60208082526029908201527f5650436f6e7472616374206e6f7420636f6e6669677572656420666f722072656040820152681c1b1858d95b595b9d60ba1b606082015260800190565b6020808252601d908201527f76616c756520646f65736e27742066697420696e203139322062697473000000604082015260600190565b60208082526015908201527413db9b1e4818db19585b995c8818dbdb9d1c9858dd605a1b604082015260600190565b6020808252601e908201527f546f6b656e206d697373696e67207772697465205650436f6e74726163740000604082015260600190565b60208082526026908201527f53616665436173743a2076616c756520646f65736e27742066697420696e203660408201526534206269747360d01b606082015260800190565b60208082526019908201527f74696d656c6f636b3a206e6f7420616c6c6f7765642079657400000000000000604082015260600190565b6020808252603d908201527f476f7665726e616e636520766f746520706f77657220636f6e7472616374206460408201527f6f6573206e6f742062656c6f6e6720746f207468697320746f6b656e2e000000606082015260800190565b60208082526021908201527f45524332303a206275726e2066726f6d20746865207a65726f206164647265736040820152607360f81b606082015260800190565b60208082526025908201527f45524332303a207472616e736665722066726f6d20746865207a65726f206164604082015264647265737360d81b606082015260800190565b60208082526024908201527f45524332303a20617070726f76652066726f6d20746865207a65726f206164646040820152637265737360e01b606082015260800190565b6020808252601e908201527f4e6f20636c65616e757020616674657220636c65616e757020626c6f636b0000604082015260600190565b60208082526030908201527f436865636b506f696e74486973746f72793a2072656164696e672066726f6d2060408201526f636c65616e65642d757020626c6f636b60801b606082015260800190565b602080825260149082015273696e697469616c6973656420213d2066616c736560601b604082015260600190565b60208082526017908201527f43616e6e6f74207472616e7366657220746f2073656c66000000000000000000604082015260600190565b6020808252601a908201527f6f6e6c7920636c65616e757020626c6f636b206d616e61676572000000000000604082015260600190565b6020808252600d908201526c37b7363c9032bc32b1baba37b960991b604082015260600190565b6020808252601a908201527f74696d656c6f636b3a20696e76616c69642073656c6563746f72000000000000604082015260600190565b6020808252601d908201527f546f6b656e206d697373696e672072656164205650436f6e7472616374000000604082015260600190565b6020808252601f908201527f45524332303a206d696e7420746f20746865207a65726f206164647265737300604082015260600190565b60208082526022908201527f5650436f6e7472616374206e6f74206f776e6564206279207468697320746f6b60408201526132b760f11b606082015260800190565b90815260200190565b6040518181016001600160401b0381118282101715614d7957fe5b604052919050565b60006001600160401b03821115614d9457fe5b5060209081020190565b60005b83811015614db9578181015183820152602001614da1565b83811115611d485750506000910152565b6001600160a01b038116811461141757600080fdfe45524332303a206275726e20616d6f756e7420657863656564732062616c616e636545524332303a207472616e7366657220616d6f756e7420657863656564732062616c616e636545524332303a207472616e7366657220616d6f756e74206578636565647320616c6c6f77616e636545524332303a2064656372656173656420616c6c6f77616e63652062656c6f77207a65726fa264697066735822122072fff1cbf3cead9ad16759658d5d7d020a8746501a8bf02b696d69a847f8b66c64736f6c63430007060033",
  "linkReferences": {},
  "deployedLinkReferences": {}
}