{
  "_format": "hh-sol-artifact-1",
  "contractName": "AssetManagerDiamondCutFacet",
  "sourceName": "contracts/assetManager/facets/AssetManagerDiamondCutFacet.sol",
  "abi": [
    {
      "inputs": [
        {
          "internalType": "bytes4",
          "name": "_selector",
          "type": "bytes4"
        }
      ],
      "name": "CannotAddFunctionToDiamondThatAlreadyExists",
      "type": "error"
    },
    {
      "inputs": [
        {
          "internalType": "bytes4[]",
          "name": "_selectors",
          "type": "bytes4[]"
        }
      ],
      "name": "CannotAddSelectorsToZeroAddress",
      "type": "error"
    },
    {
      "inputs": [
        {
          "internalType": "bytes4",
          "name": "_selector",
          "type": "bytes4"
        }
      ],
      "name": "CannotRemoveFunctionThatDoesNotExist",
      "type": "error"
    },
    {
      "inputs": [
        {
          "internalType": "bytes4",
          "name": "_selector",
          "type": "bytes4"
        }
      ],
      "name": "CannotRemoveImmutableFunction",
      "type": "error"
    },
    {
      "inputs": [
        {
          "internalType": "bytes4",
          "name": "_selector",
          "type": "bytes4"
        }
      ],
      "name": "CannotReplaceFunctionThatDoesNotExists",
      "type": "error"
    },
    {
      "inputs": [
        {
          "internalType": "bytes4",
          "name": "_selector",
          "type": "bytes4"
        }
      ],
      "name": "CannotReplaceFunctionWithTheSameFunctionFromTheSameFacet",
      "type": "error"
    },
    {
      "inputs": [
        {
          "internalType": "bytes4[]",
          "name": "_selectors",
          "type": "bytes4[]"
        }
      ],
      "name": "CannotReplaceFunctionsFromFacetWithZeroAddress",
      "type": "error"
    },
    {
      "inputs": [
        {
          "internalType": "bytes4",
          "name": "_selector",
          "type": "bytes4"
        }
      ],
      "name": "CannotReplaceImmutableFunction",
      "type": "error"
    },
    {
      "inputs": [
        {
          "internalType": "uint8",
          "name": "_action",
          "type": "uint8"
        }
      ],
      "name": "IncorrectFacetCutAction",
      "type": "error"
    },
    {
      "inputs": [
        {
          "internalType": "address",
          "name": "_initializationContractAddress",
          "type": "address"
        },
        {
          "internalType": "bytes",
          "name": "_calldata",
          "type": "bytes"
        }
      ],
      "name": "InitializationFunctionReverted",
      "type": "error"
    },
    {
      "inputs": [
        {
          "internalType": "address",
          "name": "_contractAddress",
          "type": "address"
        },
        {
          "internalType": "string",
          "name": "_message",
          "type": "string"
        }
      ],
      "name": "NoBytecodeAtAddress",
      "type": "error"
    },
    {
      "inputs": [
        {
          "internalType": "address",
          "name": "_facetAddress",
          "type": "address"
        }
      ],
      "name": "NoSelectorsProvidedForFacetForCut",
      "type": "error"
    },
    {
      "inputs": [
        {
          "internalType": "address",
          "name": "_facetAddress",
          "type": "address"
        }
      ],
      "name": "RemoveFacetAddressMustBeZeroAddress",
      "type": "error"
    },
    {
      "anonymous": false,
      "inputs": [
        {
          "components": [
            {
              "internalType": "address",
              "name": "facetAddress",
              "type": "address"
            },
            {
              "internalType": "enum IDiamond.FacetCutAction",
              "name": "action",
              "type": "uint8"
            },
            {
              "internalType": "bytes4[]",
              "name": "functionSelectors",
              "type": "bytes4[]"
            }
          ],
          "indexed": false,
          "internalType": "struct IDiamond.FacetCut[]",
          "name": "_diamondCut",
          "type": "tuple[]"
        },
        {
          "indexed": false,
          "internalType": "address",
          "name": "_init",
          "type": "address"
        },
        {
          "indexed": false,
          "internalType": "bytes",
          "name": "_calldata",
          "type": "bytes"
        }
      ],
      "name": "DiamondCut",
      "type": "event"
    },
    {
      "anonymous": false,
      "inputs": [
        {
          "indexed": false,
          "internalType": "bytes",
          "name": "encodedCall",
          "type": "bytes"
        },
        {
          "indexed": false,
          "internalType": "bytes32",
          "name": "encodedCallHash",
          "type": "bytes32"
        },
        {
          "indexed": false,
          "internalType": "uint256",
          "name": "allowedAfterTimestamp",
          "type": "uint256"
        }
      ],
      "name": "GovernanceCallTimelocked",
      "type": "event"
    },
    {
      "anonymous": false,
      "inputs": [
        {
          "indexed": false,
          "internalType": "address",
          "name": "initialGovernance",
          "type": "address"
        }
      ],
      "name": "GovernanceInitialised",
      "type": "event"
    },
    {
      "anonymous": false,
      "inputs": [
        {
          "indexed": false,
          "internalType": "address",
          "name": "governanceSettings",
          "type": "address"
        }
      ],
      "name": "GovernedProductionModeEntered",
      "type": "event"
    },
    {
      "anonymous": false,
      "inputs": [
        {
          "indexed": false,
          "internalType": "bytes32",
          "name": "encodedCallHash",
          "type": "bytes32"
        }
      ],
      "name": "TimelockedGovernanceCallCanceled",
      "type": "event"
    },
    {
      "anonymous": false,
      "inputs": [
        {
          "indexed": false,
          "internalType": "bytes32",
          "name": "encodedCallHash",
          "type": "bytes32"
        }
      ],
      "name": "TimelockedGovernanceCallExecuted",
      "type": "event"
    },
    {
      "inputs": [
        {
          "internalType": "bytes",
          "name": "_encodedCall",
          "type": "bytes"
        }
      ],
      "name": "cancelGovernanceCall",
      "outputs": [],
      "stateMutability": "nonpayable",
      "type": "function"
    },
    {
      "inputs": [
        {
          "components": [
            {
              "internalType": "address",
              "name": "facetAddress",
              "type": "address"
            },
            {
              "internalType": "enum IDiamond.FacetCutAction",
              "name": "action",
              "type": "uint8"
            },
            {
              "internalType": "bytes4[]",
              "name": "functionSelectors",
              "type": "bytes4[]"
            }
          ],
          "internalType": "struct IDiamond.FacetCut[]",
          "name": "_diamondCut",
          "type": "tuple[]"
        },
        {
          "internalType": "address",
          "name": "_init",
          "type": "address"
        },
        {
          "internalType": "bytes",
          "name": "_calldata",
          "type": "bytes"
        }
      ],
      "name": "diamondCut",
      "outputs": [],
      "stateMutability": "nonpayable",
      "type": "function"
    },
    {
      "inputs": [
        {
          "internalType": "bytes",
          "name": "_encodedCall",
          "type": "bytes"
        }
      ],
      "name": "executeGovernanceCall",
      "outputs": [],
      "stateMutability": "nonpayable",
      "type": "function"
    },
    {
      "inputs": [],
      "name": "governance",
      "outputs": [
        {
          "internalType": "address",
          "name": "",
          "type": "address"
        }
      ],
      "stateMutability": "view",
      "type": "function"
    },
    {
      "inputs": [],
      "name": "governanceSettings",
      "outputs": [
        {
          "internalType": "contract IGovernanceSettings",
          "name": "",
          "type": "address"
        }
      ],
      "stateMutability": "view",
      "type": "function"
    },
    {
      "inputs": [
        {
          "internalType": "contract IGovernanceSettings",
          "name": "_governanceSettings",
          "type": "address"
        },
        {
          "internalType": "address",
          "name": "_initialGovernance",
          "type": "address"
        }
      ],
      "name": "initialise",
      "outputs": [],
      "stateMutability": "nonpayable",
      "type": "function"
    },
    {
      "inputs": [
        {
          "internalType": "address",
          "name": "_address",
          "type": "address"
        }
      ],
      "name": "isExecutor",
      "outputs": [
        {
          "internalType": "bool",
          "name": "",
          "type": "bool"
        }
      ],
      "stateMutability": "view",
      "type": "function"
    },
    {
      "inputs": [],
      "name": "productionMode",
      "outputs": [
        {
          "internalType": "bool",
          "name": "",
          "type": "bool"
        }
      ],
      "stateMutability": "view",
      "type": "function"
    },
    {
      "inputs": [],
      "name": "switchToProductionMode",
      "outputs": [],
      "stateMutability": "nonpayable",
      "type": "function"
    }
  ],
  "bytecode": "0x60806040523480156200001157600080fd5b50620000206111118062000026565b620001bf565b7f2aa47ee5db910f3b2a06970c443249cc77dbd9f96100cfebc1775ab7fb1d18248054600160a01b900460ff1615620000a65760405162461bcd60e51b815260206004820152601460248201527f696e697469616c6973656420213d2066616c736500000000000000000000000060448201526064015b60405180910390fd5b6001600160a01b038316620000fe5760405162461bcd60e51b815260206004820152601860248201527f676f7665726e616e63652073657474696e6773207a65726f000000000000000060448201526064016200009d565b6001600160a01b038216620001495760405162461bcd60e51b815260206004820152601060248201526f5f676f7665726e616e6365207a65726f60801b60448201526064016200009d565b80546001600160a01b038481166001600160a81b031990921691909117600160a01b1782556001820180549184166001600160a01b0319909216821790556040519081527f9789733827840833afc031fb2ef9ab6894271f77bad2085687cf4ae5c7bee4db9060200160405180910390a1505050565b611aa480620001cf6000396000f3fe608060405234801561001057600080fd5b50600436106100935760003560e01c806362354e031161006657806362354e03146100f8578063debfda3014610116578063e17f212e14610139578063ef88bf1314610158578063f5a983831461016b57600080fd5b806316fc2f6d146100985780631f931c1c146100ad57806320c5f99d146100c05780635aa6e675146100d3575b600080fd5b6100ab6100a636600461132c565b610173565b005b6100ab6100bb366004611393565b61025b565b6100ab6100ce36600461132c565b6102ff565b6100db6104e6565b6040516001600160a01b0390911681526020015b60405180910390f35b600080516020611a4f833981519152546001600160a01b03166100db565b610129610124366004611445565b61058f565b60405190151581526020016100ef565b600080516020611a4f83398151915254600160a81b900460ff16610129565b6100ab610166366004611462565b610629565b6100ab61079d565b61017b610871565b604051600080516020611a4f8339815191529060009061019e908590859061149b565b60405180910390209050816002016000828152602001908152602001600020546000036102125760405162461bcd60e51b815260206004820152601a60248201527f74696d656c6f636b3a20696e76616c69642073656c6563746f7200000000000060448201526064015b60405180910390fd5b6040518181527f69b058d6225c01c1f2a25801ca5b05705fa2e9118e93d518390ba804398c87b19060200160405180910390a16000908152600290910160205260408120555050565b7f4f24f5c433db0962dac0d2c8b84197a6e6c7cc4e5d9ebe1916a1b6193da2f3515467ffffffffffffffff1661028f6108cd565b156102eb5761029c610903565b6102e66102a9868861153f565b8585858080601f01602080910402602001604051908101604052809392919081815260200183838082843760009201919091525061094a92505050565b6102f7565b6102f760003683610aef565b505050505050565b600080516020611a4f8339815191526103173361058f565b6103535760405162461bcd60e51b815260206004820152600d60248201526c37b7363c9032bc32b1baba37b960991b6044820152606401610209565b6000838360405161036592919061149b565b604080519182900390912060008181526002850160205291822054909250908190036103d35760405162461bcd60e51b815260206004820152601a60248201527f74696d656c6f636b3a20696e76616c69642073656c6563746f720000000000006044820152606401610209565b804210156104235760405162461bcd60e51b815260206004820152601960248201527f74696d656c6f636b3a206e6f7420616c6c6f77656420796574000000000000006044820152606401610209565b6000828152600284016020526040808220829055845460ff60b01b1916600160b01b178555513090610458908890889061149b565b6000604051808303816000865af19150503d8060008114610495576040519150601f19603f3d011682016040523d82523d6000602084013e61049a565b606091505b5050845460ff60b01b191685556040518481529091507fec1225e5a8a8acb91e03ce648c683c74f5d152a775b9715980999441d714c44f9060200160405180910390a16102f781610c06565b600080516020611a4f833981519152805460009190600160a81b900460ff1661051c5760018101546001600160a01b0316610589565b805460408051631cc9492560e21b815290516001600160a01b03909216916373252494916004808201926020929091908290030181865afa158015610565573d6000803e3d6000fd5b505050506040513d601f19601f820116820180604052508101906105899190611685565b91505090565b600080516020611a4f833981519152805460009190600160a01b900460ff16801561062257508054604051630debfda360e41b81526001600160a01b0385811660048301529091169063debfda3090602401602060405180830381865afa1580156105fe573d6000803e3d6000fd5b505050506040513d601f19601f8201168201806040525081019061062291906116a2565b9392505050565b600080516020611a4f8339815191528054600160a01b900460ff16156106885760405162461bcd60e51b8152602060048201526014602482015273696e697469616c6973656420213d2066616c736560601b6044820152606401610209565b6001600160a01b0383166106de5760405162461bcd60e51b815260206004820152601860248201527f676f7665726e616e63652073657474696e6773207a65726f00000000000000006044820152606401610209565b6001600160a01b0382166107275760405162461bcd60e51b815260206004820152601060248201526f5f676f7665726e616e6365207a65726f60801b6044820152606401610209565b80546001600160a01b038481166001600160a81b031990921691909117600160a01b1782556001820180549184166001600160a01b0319909216821790556040519081527f9789733827840833afc031fb2ef9ab6894271f77bad2085687cf4ae5c7bee4db9060200160405180910390a1505050565b6107a5610871565b600080516020611a4f8339815191528054600160a81b900460ff161561080d5760405162461bcd60e51b815260206004820152601a60248201527f616c726561647920696e2070726f64756374696f6e206d6f64650000000000006044820152606401610209565b6001810180546001600160a01b03191690558054600160a81b60ff60a81b1982161782556040516001600160a01b0390911681527f83af113638b5422f9e977cebc0aaf0eaf2188eb9a8baae7f9d46c42b33a1560c9060200160405180910390a150565b6108796104e6565b6001600160a01b0316336001600160a01b0316146108cb5760405162461bcd60e51b815260206004820152600f60248201526e6f6e6c7920676f7665726e616e636560881b6044820152606401610209565b565b600080516020611a4f833981519152805460009190600160b01b900460ff1680610589575054600160a81b900460ff1615919050565b600080516020611a4f8339815191528054600160b01b900460ff161561093f57333014610932576109326116c4565b805460ff60b01b19169055565b610947610871565b50565b60005b8351811015610aa457600084828151811061096a5761096a6116da565b6020026020010151604001519050600085838151811061098c5761098c6116da565b602002602001015160000151905081516000036109c75760405163e767f91f60e01b81526001600160a01b0382166004820152602401610209565b60008684815181106109db576109db6116da565b6020026020010151602001519050600060028111156109fc576109fc6116f0565b816002811115610a0e57610a0e6116f0565b03610a2257610a1d8284610c23565b610a99565b6001816002811115610a3657610a366116f0565b03610a4557610a1d8284610de9565b6002816002811115610a5957610a596116f0565b03610a6857610a1d8284610f66565b806002811115610a7a57610a7a6116f0565b604051633ff4d20f60e11b815260ff9091166004820152602401610209565b50505060010161094d565b507f8faa70878671ccd212d20771b795c50af8fd3ff6cf27f4bde57e5d4de0aeb673838383604051610ad893929190611756565b60405180910390a1610aea82826111f5565b505050565b600080516020611a4f833981519152610b06610871565b60008484604051610b1892919061149b565b604080519182900382208454636221a54b60e01b845291519093506000926001600160a01b0390921691636221a54b9160048083019260209291908290030181865afa158015610b6c573d6000803e3d6000fd5b505050506040513d601f19601f82011682018060405250810190610b909190611859565b905083811015610b9d5750825b6000610ba98242611888565b600084815260028601602052604090819020829055519091507f8c02104dfc280f713854f25297de671710c544c58de69dbde8fb66974ce1ab9e90610bf59089908990879086906118a1565b60405180910390a150505050505050565b3d604051818101604052816000823e8215610c1f578181f35b8181fd5b6001600160a01b038216610c4c57806040516302b8da0760e21b815260040161020991906118e1565b7fc8fcad8db84d3cc18b4c41d551ea0ee66dd599cde068d998e57d5e09332c131d54604080516060810190915260248082527fc8fcad8db84d3cc18b4c41d551ea0ee66dd599cde068d998e57d5e09332c131c9291610cb5918691906119db60208301396112bb565b60005b8351811015610de2576000848281518110610cd557610cd56116da565b6020908102919091018101516001600160e01b031981166000908152918690526040909120549091506001600160a01b03168015610d28578160405163ebbf5d0760e01b8152600401610209919061192f565b6040805180820182526001600160a01b03808a16825261ffff80881660208085019182526001600160e01b0319881660009081528b8252958620945185549251909316600160a01b026001600160b01b0319909216929093169190911717909155600180880180549182018155835291206008820401805460e085901c60046007909416939093026101000a92830263ffffffff909302191691909117905583610dd181611944565b94505060019092019150610cb89050565b5050505050565b7fc8fcad8db84d3cc18b4c41d551ea0ee66dd599cde068d998e57d5e09332c131c6001600160a01b038316610e33578160405163cd98a96f60e01b815260040161020991906118e1565b610e5583604051806060016040528060288152602001611a27602891396112bb565b60005b8251811015610f60576000838281518110610e7557610e756116da565b6020908102919091018101516001600160e01b031981166000908152918590526040909120549091506001600160a01b0316308103610ec95781604051632901806d60e11b8152600401610209919061192f565b856001600160a01b0316816001600160a01b031603610efd5781604051631ac6ce8d60e11b8152600401610209919061192f565b6001600160a01b038116610f265781604051637479f93960e01b8152600401610209919061192f565b506001600160e01b031916600090815260208390526040902080546001600160a01b0319166001600160a01b038616179055600101610e58565b50505050565b7fc8fcad8db84d3cc18b4c41d551ea0ee66dd599cde068d998e57d5e09332c131d547fc8fcad8db84d3cc18b4c41d551ea0ee66dd599cde068d998e57d5e09332c131c906001600160a01b03841615610fdd5760405163d091bc8160e01b81526001600160a01b0385166004820152602401610209565b60005b8351811015610de2576000848281518110610ffd57610ffd6116da565b6020908102919091018101516001600160e01b0319811660009081528683526040908190208151808301909252546001600160a01b038116808352600160a01b90910461ffff16938201939093529092509061106e5781604051637a08a22d60e01b8152600401610209919061192f565b8051306001600160a01b039091160361109c5781604051630df5fd6160e31b8152600401610209919061192f565b836110a681611965565b94505083816020015161ffff16146111845760008560010185815481106110cf576110cf6116da565b90600052602060002090600891828204019190066004029054906101000a900460e01b90508086600101836020015161ffff1681548110611112576111126116da565b600091825260208083206008830401805463ffffffff60079094166004026101000a938402191660e09590951c92909202939093179055838201516001600160e01b03199390931681529087905260409020805461ffff60a01b1916600160a01b61ffff909316929092029190911790555b846001018054806111975761119761197c565b60008281526020808220600860001990940193840401805463ffffffff600460078716026101000a0219169055919092556001600160e01b0319909316815291859052506040902080546001600160b01b0319169055600101610fe0565b6001600160a01b038216611207575050565b611229826040518060600160405280602881526020016119ff602891396112bb565b600080836001600160a01b0316836040516112449190611992565b600060405180830381855af49150503d806000811461127f576040519150601f19603f3d011682016040523d82523d6000602084013e611284565b606091505b509150915081610f605780511561129e5780518082602001fd5b838360405163192105d760e01b81526004016102099291906119ae565b813b6000819003610aea57828260405163919834b960e01b81526004016102099291906119ae565b60008083601f8401126112f557600080fd5b50813567ffffffffffffffff81111561130d57600080fd5b60208301915083602082850101111561132557600080fd5b9250929050565b6000806020838503121561133f57600080fd5b823567ffffffffffffffff81111561135657600080fd5b611362858286016112e3565b90969095509350505050565b6001600160a01b038116811461094757600080fd5b803561138e8161136e565b919050565b6000806000806000606086880312156113ab57600080fd5b853567ffffffffffffffff808211156113c357600080fd5b818801915088601f8301126113d757600080fd5b8135818111156113e657600080fd5b8960208260051b85010111156113fb57600080fd5b6020830197508096505061141160208901611383565b9450604088013591508082111561142757600080fd5b50611434888289016112e3565b969995985093965092949392505050565b60006020828403121561145757600080fd5b81356106228161136e565b6000806040838503121561147557600080fd5b82356114808161136e565b915060208301356114908161136e565b809150509250929050565b8183823760009101908152919050565b634e487b7160e01b600052604160045260246000fd5b6040516060810167ffffffffffffffff811182821017156114e4576114e46114ab565b60405290565b604051601f8201601f1916810167ffffffffffffffff81118282101715611513576115136114ab565b604052919050565b600067ffffffffffffffff821115611535576115356114ab565b5060051b60200190565b600061155261154d8461151b565b6114ea565b83815260208082019190600586811b86013681111561157057600080fd5b865b8181101561167857803567ffffffffffffffff808211156115935760008081fd5b818a019150606082360312156115a95760008081fd5b6115b16114c1565b82356115bc8161136e565b815282870135600381106115d05760008081fd5b81880152604083810135838111156115e85760008081fd5b939093019236601f8501126115ff57600092508283fd5b8335925061160f61154d8461151b565b83815292871b8401880192888101903685111561162c5760008081fd5b948901945b848610156116615785356001600160e01b0319811681146116525760008081fd5b82529489019490890190611631565b918301919091525088525050948301948301611572565b5092979650505050505050565b60006020828403121561169757600080fd5b81516106228161136e565b6000602082840312156116b457600080fd5b8151801515811461062257600080fd5b634e487b7160e01b600052600160045260246000fd5b634e487b7160e01b600052603260045260246000fd5b634e487b7160e01b600052602160045260246000fd5b60005b83811015611721578181015183820152602001611709565b50506000910152565b60008151808452611742816020860160208601611706565b601f01601f19169290920160200192915050565b60006060808301606084528087518083526080925060808601915060808160051b8701016020808b0160005b8481101561182957898403607f19018652815180516001600160a01b031685528381015189860190600381106117c857634e487b7160e01b600052602160045260246000fd5b868601526040918201519186018a905281519081905290840190600090898701905b808310156118145783516001600160e01b03191682529286019260019290920191908601906117ea565b50978501979550505090820190600101611782565b50506001600160a01b038a1690880152868103604088015261184b818961172a565b9a9950505050505050505050565b60006020828403121561186b57600080fd5b5051919050565b634e487b7160e01b600052601160045260246000fd5b8082018082111561189b5761189b611872565b92915050565b606081528360608201528385608083013760006080858301015260006080601f19601f870116830101905083602083015282604083015295945050505050565b6020808252825182820181905260009190848201906040850190845b818110156119235783516001600160e01b031916835292840192918401916001016118fd565b50909695505050505050565b6001600160e01b031991909116815260200190565b600061ffff80831681810361195b5761195b611872565b6001019392505050565b60008161197457611974611872565b506000190190565b634e487b7160e01b600052603160045260246000fd5b600082516119a4818460208701611706565b9190910192915050565b6001600160a01b03831681526040602082018190526000906119d29083018461172a565b94935050505056fe4c69624469616d6f6e644375743a2041646420666163657420686173206e6f20636f64654c69624469616d6f6e644375743a205f696e6974206164647265737320686173206e6f20636f64654c69624469616d6f6e644375743a205265706c61636520666163657420686173206e6f20636f64652aa47ee5db910f3b2a06970c443249cc77dbd9f96100cfebc1775ab7fb1d1824a26469706673582212200d0a6c9ecdb6819d3c9a2baffe189cc1d9d118755edf223fd772a154891bfe3a64736f6c63430008170033",
  "linkReferences": {},
  "deployedLinkReferences": {}
}