{
  "_format": "hh-sol-artifact-1",
  "contractName": "SCProofVerifier",
  "sourceName": "contracts/generated/contracts/SCProofVerifier.sol",
  "abi": [
    {
      "inputs": [
        {
          "internalType": "contract IStateConnector",
          "name": "_stateConnector",
          "type": "address"
        }
      ],
      "stateMutability": "nonpayable",
      "type": "constructor"
    },
    {
      "inputs": [],
      "name": "BALANCE_DECREASING_TRANSACTION",
      "outputs": [
        {
          "internalType": "uint16",
          "name": "",
          "type": "uint16"
        }
      ],
      "stateMutability": "view",
      "type": "function"
    },
    {
      "inputs": [],
      "name": "CONFIRMED_BLOCK_HEIGHT_EXISTS",
      "outputs": [
        {
          "internalType": "uint16",
          "name": "",
          "type": "uint16"
        }
      ],
      "stateMutability": "view",
      "type": "function"
    },
    {
      "inputs": [],
      "name": "PAYMENT",
      "outputs": [
        {
          "internalType": "uint16",
          "name": "",
          "type": "uint16"
        }
      ],
      "stateMutability": "view",
      "type": "function"
    },
    {
      "inputs": [],
      "name": "REFERENCED_PAYMENT_NONEXISTENCE",
      "outputs": [
        {
          "internalType": "uint16",
          "name": "",
          "type": "uint16"
        }
      ],
      "stateMutability": "view",
      "type": "function"
    },
    {
      "inputs": [
        {
          "internalType": "uint256",
          "name": "_stateConnectorRound",
          "type": "uint256"
        }
      ],
      "name": "merkleRootForRound",
      "outputs": [
        {
          "internalType": "bytes32",
          "name": "_merkleRoot",
          "type": "bytes32"
        }
      ],
      "stateMutability": "view",
      "type": "function"
    },
    {
      "inputs": [],
      "name": "stateConnector",
      "outputs": [
        {
          "internalType": "contract IStateConnector",
          "name": "",
          "type": "address"
        }
      ],
      "stateMutability": "view",
      "type": "function"
    },
    {
      "inputs": [
        {
          "internalType": "uint32",
          "name": "_chainId",
          "type": "uint32"
        },
        {
          "components": [
            {
              "internalType": "bytes32[]",
              "name": "merkleProof",
              "type": "bytes32[]"
            },
            {
              "internalType": "uint256",
              "name": "stateConnectorRound",
              "type": "uint256"
            },
            {
              "internalType": "uint64",
              "name": "blockNumber",
              "type": "uint64"
            },
            {
              "internalType": "uint64",
              "name": "blockTimestamp",
              "type": "uint64"
            },
            {
              "internalType": "bytes32",
              "name": "transactionHash",
              "type": "bytes32"
            },
            {
              "internalType": "bytes32",
              "name": "sourceAddressIndicator",
              "type": "bytes32"
            },
            {
              "internalType": "bytes32",
              "name": "sourceAddressHash",
              "type": "bytes32"
            },
            {
              "internalType": "int256",
              "name": "spentAmount",
              "type": "int256"
            },
            {
              "internalType": "bytes32",
              "name": "paymentReference",
              "type": "bytes32"
            }
          ],
          "internalType": "struct ISCProofVerifier.BalanceDecreasingTransaction",
          "name": "_data",
          "type": "tuple"
        }
      ],
      "name": "verifyBalanceDecreasingTransaction",
      "outputs": [
        {
          "internalType": "bool",
          "name": "_proved",
          "type": "bool"
        }
      ],
      "stateMutability": "view",
      "type": "function"
    },
    {
      "inputs": [
        {
          "internalType": "uint32",
          "name": "_chainId",
          "type": "uint32"
        },
        {
          "components": [
            {
              "internalType": "bytes32[]",
              "name": "merkleProof",
              "type": "bytes32[]"
            },
            {
              "internalType": "uint256",
              "name": "stateConnectorRound",
              "type": "uint256"
            },
            {
              "internalType": "uint64",
              "name": "blockNumber",
              "type": "uint64"
            },
            {
              "internalType": "uint64",
              "name": "blockTimestamp",
              "type": "uint64"
            },
            {
              "internalType": "uint8",
              "name": "numberOfConfirmations",
              "type": "uint8"
            },
            {
              "internalType": "uint64",
              "name": "lowestQueryWindowBlockNumber",
              "type": "uint64"
            },
            {
              "internalType": "uint64",
              "name": "lowestQueryWindowBlockTimestamp",
              "type": "uint64"
            }
          ],
          "internalType": "struct ISCProofVerifier.ConfirmedBlockHeightExists",
          "name": "_data",
          "type": "tuple"
        }
      ],
      "name": "verifyConfirmedBlockHeightExists",
      "outputs": [
        {
          "internalType": "bool",
          "name": "_proved",
          "type": "bool"
        }
      ],
      "stateMutability": "view",
      "type": "function"
    },
    {
      "inputs": [
        {
          "internalType": "uint32",
          "name": "_chainId",
          "type": "uint32"
        },
        {
          "components": [
            {
              "internalType": "bytes32[]",
              "name": "merkleProof",
              "type": "bytes32[]"
            },
            {
              "internalType": "uint256",
              "name": "stateConnectorRound",
              "type": "uint256"
            },
            {
              "internalType": "uint64",
              "name": "blockNumber",
              "type": "uint64"
            },
            {
              "internalType": "uint64",
              "name": "blockTimestamp",
              "type": "uint64"
            },
            {
              "internalType": "bytes32",
              "name": "transactionHash",
              "type": "bytes32"
            },
            {
              "internalType": "uint8",
              "name": "inUtxo",
              "type": "uint8"
            },
            {
              "internalType": "uint8",
              "name": "utxo",
              "type": "uint8"
            },
            {
              "internalType": "bytes32",
              "name": "sourceAddressHash",
              "type": "bytes32"
            },
            {
              "internalType": "bytes32",
              "name": "intendedSourceAddressHash",
              "type": "bytes32"
            },
            {
              "internalType": "bytes32",
              "name": "receivingAddressHash",
              "type": "bytes32"
            },
            {
              "internalType": "bytes32",
              "name": "intendedReceivingAddressHash",
              "type": "bytes32"
            },
            {
              "internalType": "int256",
              "name": "spentAmount",
              "type": "int256"
            },
            {
              "internalType": "int256",
              "name": "intendedSpentAmount",
              "type": "int256"
            },
            {
              "internalType": "int256",
              "name": "receivedAmount",
              "type": "int256"
            },
            {
              "internalType": "int256",
              "name": "intendedReceivedAmount",
              "type": "int256"
            },
            {
              "internalType": "bytes32",
              "name": "paymentReference",
              "type": "bytes32"
            },
            {
              "internalType": "bool",
              "name": "oneToOne",
              "type": "bool"
            },
            {
              "internalType": "uint8",
              "name": "status",
              "type": "uint8"
            }
          ],
          "internalType": "struct ISCProofVerifier.Payment",
          "name": "_data",
          "type": "tuple"
        }
      ],
      "name": "verifyPayment",
      "outputs": [
        {
          "internalType": "bool",
          "name": "_proved",
          "type": "bool"
        }
      ],
      "stateMutability": "view",
      "type": "function"
    },
    {
      "inputs": [
        {
          "internalType": "uint32",
          "name": "_chainId",
          "type": "uint32"
        },
        {
          "components": [
            {
              "internalType": "bytes32[]",
              "name": "merkleProof",
              "type": "bytes32[]"
            },
            {
              "internalType": "uint256",
              "name": "stateConnectorRound",
              "type": "uint256"
            },
            {
              "internalType": "uint64",
              "name": "deadlineBlockNumber",
              "type": "uint64"
            },
            {
              "internalType": "uint64",
              "name": "deadlineTimestamp",
              "type": "uint64"
            },
            {
              "internalType": "bytes32",
              "name": "destinationAddressHash",
              "type": "bytes32"
            },
            {
              "internalType": "bytes32",
              "name": "paymentReference",
              "type": "bytes32"
            },
            {
              "internalType": "uint128",
              "name": "amount",
              "type": "uint128"
            },
            {
              "internalType": "uint64",
              "name": "lowerBoundaryBlockNumber",
              "type": "uint64"
            },
            {
              "internalType": "uint64",
              "name": "lowerBoundaryBlockTimestamp",
              "type": "uint64"
            },
            {
              "internalType": "uint64",
              "name": "firstOverflowBlockNumber",
              "type": "uint64"
            },
            {
              "internalType": "uint64",
              "name": "firstOverflowBlockTimestamp",
              "type": "uint64"
            }
          ],
          "internalType": "struct ISCProofVerifier.ReferencedPaymentNonexistence",
          "name": "_data",
          "type": "tuple"
        }
      ],
      "name": "verifyReferencedPaymentNonexistence",
      "outputs": [
        {
          "internalType": "bool",
          "name": "_proved",
          "type": "bool"
        }
      ],
      "stateMutability": "view",
      "type": "function"
    }
  ],
  "bytecode": "0x608060405234801561001057600080fd5b50604051610c48380380610c4883398101604081905261002f91610054565b600080546001600160a01b0319166001600160a01b0392909216919091179055610084565b60006020828403121561006657600080fd5b81516001600160a01b038116811461007d57600080fd5b9392505050565b610bb5806100936000396000f3fe608060405234801561001057600080fd5b506004361061009e5760003560e01c8063883b137f11610066578063883b137f1461012c578063b670671e14610134578063c3a3804a1461013c578063dff292361461014f578063faa386ed1461017057600080fd5b8063025ecb32146100a35780630cbff61d146100d35780630e187396146100ee5780636a94dc8f146101115780636ea7688a14610119575b600080fd5b6000546100b6906001600160a01b031681565b6040516001600160a01b0390911681526020015b60405180910390f35b6100db600481565b60405161ffff90911681526020016100ca565b6101016100fc36600461088b565b610183565b60405190151581526020016100ca565b6100db600281565b6101016101273660046108e1565b6101e7565b6100db600181565b6100db600381565b61010161014a36600461092b565b61023f565b61016261015d366004610976565b610297565b6040519081526020016100ca565b61010161017e36600461098f565b61030b565b60006101e061019283806109da565b808060200260200160405190810160405280939291908181526020018383602002808284376000920191909152506101d1925050506020850135610297565b6101db8686610363565b610437565b9392505050565b60006101e06101f683806109da565b80806020026020016040519081016040528093929190818152602001838360200280828437600092019190915250610235925050506020850135610297565b6101db868661044c565b60006101e061024e83806109da565b8080602002602001604051908101604052809392919081815260200183836020028082843760009201919091525061028d925050506020850135610297565b6101db8686610505565b60008054604051633c70b35760e01b8152600481018490526001600160a01b0390911690633c70b35790602401602060405180830381865afa1580156102e1573d6000803e3d6000fd5b505050506040513d601f19601f820116820180604052508101906103059190610a2b565b92915050565b60006101e061031a83806109da565b80806020026020016040519081016040528093929190818152602001838360200280828437600092019190915250610359925050506020850135610297565b6101db868661069d565b6000600283602084013561037d6060860160408701610a44565b61038d6080870160608801610a44565b86608001358760a001358860c001358960e001358a61010001356040516020016104199a9998979695949392919061ffff9a909a168a5263ffffffff9890981660208a0152604089019690965267ffffffffffffffff948516606089015292909316608087015260a086015260c085019190915260e08401526101008301526101208201526101400190565b60405160208183030381529060405280519060200120905092915050565b60006104448484846107e0565b949350505050565b600060038360208401356104666060860160408701610a44565b6104766080870160608801610a44565b61048660a0880160808901610a6e565b61049660c0890160a08a01610a44565b6104a660e08a0160c08b01610a44565b6040805161ffff90991660208a015263ffffffff90971696880196909652606087019490945267ffffffffffffffff928316608087015290821660a086015260ff1660c085015290811660e08401521661010082015261012001610419565b6000600183602084013561051f6060860160408701610a44565b61052f6080870160608801610a44565b608087013561054460c0890160a08a01610a6e565b61055460e08a0160c08b01610a6e565b6040805161ffff90991660208a015263ffffffff90971696880196909652606087019490945267ffffffffffffffff9283166080870152911660a085015260c084015260ff90811660e0840152166101008201526101200160408051601f1981840301815282825260e08086013560208501526101008087013593850193909352610120808701356060860152610140870135608086015261016087013560a086015261018087013560c08601526101a0870135918501919091526101c086013592840192909252910160408051601f198184030181529190526101e084013561064661022086016102008701610a91565b61065861024087016102208801610a6e565b60405160200161067e93929190928352901515602083015260ff16604082015260600190565b60408051601f1981840301815290829052610419939291602001610ae3565b600060048360208401356106b76060860160408701610a44565b6106c76080870160608801610a44565b608087013560a08801356106e160e08a0160c08b01610b0a565b6040805161ffff90991660208a015263ffffffff90971696880196909652606087019490945267ffffffffffffffff9283166080870152911660a085015260c084015260e08301526001600160801b03166101008201526101200160408051601f1981840301815291905261075d610100840160e08501610a44565b61076f61012085016101008601610a44565b61078161014086016101208701610a44565b61079361016087016101408801610a44565b6040805167ffffffffffffffff9586166020820152938516908401529083166060830152909116608082015260a00160408051601f19818403018152908290526104199291602001610b33565b6000826107ed85846107f6565b14949350505050565b600081815b845181101561083b576108278286838151811061081a5761081a610b42565b6020026020010151610843565b91508061083381610b58565b9150506107fb565b509392505050565b600081831061085f5760008281526020849052604090206101e0565b60008381526020839052604090206101e0565b803563ffffffff8116811461088657600080fd5b919050565b6000806040838503121561089e57600080fd5b6108a783610872565b9150602083013567ffffffffffffffff8111156108c357600080fd5b830161012081860312156108d657600080fd5b809150509250929050565b600080604083850312156108f457600080fd5b6108fd83610872565b9150602083013567ffffffffffffffff81111561091957600080fd5b830160e081860312156108d657600080fd5b6000806040838503121561093e57600080fd5b61094783610872565b9150602083013567ffffffffffffffff81111561096357600080fd5b830161024081860312156108d657600080fd5b60006020828403121561098857600080fd5b5035919050565b600080604083850312156109a257600080fd5b6109ab83610872565b9150602083013567ffffffffffffffff8111156109c757600080fd5b830161016081860312156108d657600080fd5b6000808335601e198436030181126109f157600080fd5b83018035915067ffffffffffffffff821115610a0c57600080fd5b6020019150600581901b3603821315610a2457600080fd5b9250929050565b600060208284031215610a3d57600080fd5b5051919050565b600060208284031215610a5657600080fd5b813567ffffffffffffffff811681146101e057600080fd5b600060208284031215610a8057600080fd5b813560ff811681146101e057600080fd5b600060208284031215610aa357600080fd5b813580151581146101e057600080fd5b6000815160005b81811015610ad45760208185018101518683015201610aba565b50600093019283525090919050565b6000610b01610afb610af58488610ab3565b86610ab3565b84610ab3565b95945050505050565b600060208284031215610b1c57600080fd5b81356001600160801b03811681146101e057600080fd5b6000610444610afb8386610ab3565b634e487b7160e01b600052603260045260246000fd5b600060018201610b7857634e487b7160e01b600052601160045260246000fd5b506001019056fea26469706673582212206b9f20882bd247f5f563be5e8baa9f7a57dc4be43360c617a6ab7103e73eac7764736f6c63430008140033",
  "linkReferences": {},
  "deployedLinkReferences": {}
}