{
  "_format": "hh-sol-artifact-1",
  "contractName": "CollateralPoolTokenFactory",
  "sourceName": "contracts/fasset/implementation/CollateralPoolTokenFactory.sol",
  "abi": [
    {
      "inputs": [
        {
          "internalType": "contract IICollateralPool",
          "name": "_pool",
          "type": "address"
        },
        {
          "internalType": "string",
          "name": "_systemSuffix",
          "type": "string"
        },
        {
          "internalType": "string",
          "name": "_agentSuffix",
          "type": "string"
        }
      ],
      "name": "create",
      "outputs": [
        {
          "internalType": "address",
          "name": "",
          "type": "address"
        }
      ],
      "stateMutability": "nonpayable",
      "type": "function"
    },
    {
      "inputs": [
        {
          "internalType": "bytes4",
          "name": "_interfaceId",
          "type": "bytes4"
        }
      ],
      "name": "supportsInterface",
      "outputs": [
        {
          "internalType": "bool",
          "name": "",
          "type": "bool"
        }
      ],
      "stateMutability": "pure",
      "type": "function"
    }
  ],
  "bytecode": "0x608060405234801561001057600080fd5b50611da2806100206000396000f3fe608060405234801561001057600080fd5b50600436106100365760003560e01c806301ffc9a71461003b578063796d583614610063575b600080fd5b61004e6100493660046101ba565b61008e565b60405190151581526020015b60405180910390f35b61007661007136600461028e565b6100c5565b6040516001600160a01b03909116815260200161005a565b60006001600160e01b031982166301ffc9a760e01b14806100bf57506001600160e01b03198216633cb6ac1b60e11b145b92915050565b6000806040518060400160405280601d81526020017f46417373657420436f6c6c61746572616c20506f6f6c20546f6b656e20000000815250848460405160200161011293929190610334565b6040516020818303038152906040529050600060405180604001604052806005815260200164464350542d60d81b815250858560405160200161015793929190610334565b60405160208183030381529060405290506000868383604051610179906101ad565b610185939291906103b0565b604051809103906000f0801580156101a1573d6000803e3d6000fd5b50979650505050505050565b61197c806103f183390190565b6000602082840312156101cc57600080fd5b81356001600160e01b0319811681146101e457600080fd5b9392505050565b634e487b7160e01b600052604160045260246000fd5b600082601f83011261021257600080fd5b813567ffffffffffffffff8082111561022d5761022d6101eb565b604051601f8301601f19908116603f01168101908282118183101715610255576102556101eb565b8160405283815286602085880101111561026e57600080fd5b836020870160208301376000602085830101528094505050505092915050565b6000806000606084860312156102a357600080fd5b83356001600160a01b03811681146102ba57600080fd5b9250602084013567ffffffffffffffff808211156102d757600080fd5b6102e387838801610201565b935060408601359150808211156102f957600080fd5b5061030686828701610201565b9150509250925092565b60005b8381101561032b578181015183820152602001610313565b50506000910152565b60008451610346818460208901610310565b84519083019061035a818360208901610310565b602d60f81b91019081528351610377816001840160208801610310565b0160010195945050505050565b6000815180845261039c816020860160208601610310565b601f01601f19169290920160200192915050565b6001600160a01b03841681526060602082018190526000906103d490830185610384565b82810360408401526103e68185610384565b969550505050505056fe60a06040523480156200001157600080fd5b506040516200197c3803806200197c833981016040819052620000349162000132565b818160036200004483826200024b565b5060046200005382826200024b565b5050506001600160a01b0390921660805250620003179050565b634e487b7160e01b600052604160045260246000fd5b600082601f8301126200009557600080fd5b81516001600160401b0380821115620000b257620000b26200006d565b604051601f8301601f19908116603f01168101908282118183101715620000dd57620000dd6200006d565b81604052838152602092508683858801011115620000fa57600080fd5b600091505b838210156200011e5785820183015181830184015290820190620000ff565b600093810190920192909252949350505050565b6000806000606084860312156200014857600080fd5b83516001600160a01b03811681146200016057600080fd5b60208501519093506001600160401b03808211156200017e57600080fd5b6200018c8783880162000083565b93506040860151915080821115620001a357600080fd5b50620001b28682870162000083565b9150509250925092565b600181811c90821680620001d157607f821691505b602082108103620001f257634e487b7160e01b600052602260045260246000fd5b50919050565b601f8211156200024657600081815260208120601f850160051c81016020861015620002215750805b601f850160051c820191505b8181101562000242578281556001016200022d565b5050505b505050565b81516001600160401b038111156200026757620002676200006d565b6200027f81620002788454620001bc565b84620001f8565b602080601f831160018114620002b757600084156200029e5750858301515b600019600386901b1c1916600185901b17855562000242565b600085815260208120601f198616915b82811015620002e857888601518255948401946001909101908401620002c7565b5085821015620003075787850151600019600388901b60f8161c191681555b5050505050600190811b01905550565b60805161161862000364600039600081816103170152818161035c015281816104f40152818161069001528181610723015281816107b301528181610eff015261120801526116186000f3fe608060405234801561001057600080fd5b506004361061014c5760003560e01c806376fd4fdf116100c3578063c3bb25a01161007c578063c3bb25a0146102b3578063c7d9f4d1146102c6578063d103be99146102d9578063dd62ed3e146102ec578063e5f71bda146102ff578063ff0eccf61461031257600080fd5b806376fd4fdf1461024c5780637ee68fc41461025f57806388b58c721461027257806395d89b4114610285578063a457c2d71461028d578063a9059cbb146102a057600080fd5b806323b872dd1161011557806323b872dd146101c8578063313ce567146101db57806339509351146101ea57806340c10f19146101fd578063593557361461021057806370a082311461022357600080fd5b8062f55d9d1461015157806301ffc9a71461016657806306fdde031461018e578063095ea7b3146101a357806318160ddd146101b6575b600080fd5b61016461015f366004611340565b610351565b005b610179610174366004611364565b6103a5565b60405190151581526020015b60405180910390f35b6101966103f7565b604051610185919061138e565b6101796101b13660046113dc565b610489565b6002545b604051908152602001610185565b6101796101d6366004611408565b6104a1565b60405160128152602001610185565b6101796101f83660046113dc565b6104c5565b6101ba61020b3660046113dc565b6104e7565b6101ba61021e366004611340565b610653565b6101ba610231366004611340565b6001600160a01b031660009081526020819052604090205490565b61016461025a366004611449565b610685565b6101ba61026d366004611340565b610701565b6101ba610280366004611340565b610791565b6101966107e4565b61017961029b3660046113dc565b6107f3565b6101796102ae3660046113dc565b61086e565b6101ba6102c1366004611340565b61087c565b6101ba6102d4366004611340565b6108aa565b6101ba6102e7366004611340565b6108d2565b6101ba6102fa366004611490565b610991565b61017961030d3660046113dc565b6109bc565b6103397f000000000000000000000000000000000000000000000000000000000000000081565b6040516001600160a01b039091168152602001610185565b336001600160a01b037f000000000000000000000000000000000000000000000000000000000000000016146103a25760405162461bcd60e51b8152600401610399906114c9565b60405180910390fd5b50565b60006001600160e01b031982166301ffc9a760e01b14806103d657506001600160e01b031982166336372b0760e01b145b806103f157506001600160e01b03198216634284fbcf60e11b145b92915050565b606060038054610406906114f7565b80601f0160208091040260200160405190810160405280929190818152602001828054610432906114f7565b801561047f5780601f106104545761010080835404028352916020019161047f565b820191906000526020600020905b81548152906001019060200180831161046257829003601f168201915b5050505050905090565b600033610497818585610ae2565b5060019392505050565b6000336104af858285610c06565b6104ba858585610c80565b506001949350505050565b6000336104978185856104d88383610991565b6104e29190611547565b610ae2565b6000336001600160a01b037f000000000000000000000000000000000000000000000000000000000000000016146105315760405162461bcd60e51b8152600401610399906114c9565b61053b8383610e2f565b6000610545610efa565b90506105518142611547565b91506000811180156105635750600083115b1561064c576001600160a01b038416600090815260056020526040908190208151808301909252908061059586610fe9565b6001600160801b031681526020016105ac85611056565b67ffffffffffffffff1690526001820180548391600091600160801b90046001600160801b03169060106105df8361155a565b82546101009290920a6001600160801b0381810219909316918316021790915590811682526020808301939093526040909101600020835181549490930151929091166001600160c01b031990931692909217600160801b67ffffffffffffffff90921691909102179055505b5092915050565b60008061065f83610791565b9050600061066c846108d2565b905080821161067b578061067d565b815b949350505050565b336001600160a01b037f000000000000000000000000000000000000000000000000000000000000000016146106cd5760405162461bcd60e51b8152600401610399906114c9565b80156106e1576006805460ff191660011790555b6106eb83836110bf565b80156106fc576006805460ff191690555b505050565b60405163c79d245d60e01b81526001600160a01b0382811660048301526000917f00000000000000000000000000000000000000000000000000000000000000009091169063c79d245d906024015b602060405180830381865afa15801561076d573d6000803e3d6000fd5b505050506040513d601f19601f820116820180604052508101906103f19190611580565b604051630af15fdd60e11b81526001600160a01b0382811660048301526000917f0000000000000000000000000000000000000000000000000000000000000000909116906315e2bfba90602401610750565b606060048054610406906114f7565b600033816108018286610991565b9050838110156108615760405162461bcd60e51b815260206004820152602560248201527f45524332303a2064656372656173656420616c6c6f77616e63652062656c6f77604482015264207a65726f60d81b6064820152608401610399565b6104ba8286868403610ae2565b600033610497818585610c80565b6000610887826108d2565b6001600160a01b0383166000908152602081905260409020546103f19190611599565b6000806108b683610701565b905060006108c38461087c565b905080821061067b578061067d565b6001600160a01b038116600090815260056020526040812060018101546001600160801b03600160801b8204811691165b8181101561095f576000818152602084905260409020805442600160801b90910467ffffffffffffffff16111561094c578054610949906001600160801b031686611547565b94505b5080610957816115ac565b915050610903565b506001600160a01b0384166000908152602081905260409020548084106109865780610988565b835b95945050505050565b6001600160a01b03918216600090815260016020908152604080832093909416825291909152205490565b6001600160a01b038216600090815260056020526040812060018101546001600160801b0316825b84811015610a72576001830154600160801b90046001600160801b031682101580610a2e575060008281526020849052604090205442600160801b90910467ffffffffffffffff16115b610a725782600083610a3f816115ac565b908252602082019290925260400160002080546001600160c01b0319169055915080610a6a816115ac565b9150506109e4565b50610a7c81610fe9565b6001830180546fffffffffffffffffffffffffffffffff19166001600160801b039283161790819055600160801b90041681101580610988575060008181526020839052604090205442600160801b90910467ffffffffffffffff161195945050505050565b6001600160a01b038316610b445760405162461bcd60e51b8152602060048201526024808201527f45524332303a20617070726f76652066726f6d20746865207a65726f206164646044820152637265737360e01b6064820152608401610399565b6001600160a01b038216610ba55760405162461bcd60e51b815260206004820152602260248201527f45524332303a20617070726f766520746f20746865207a65726f206164647265604482015261737360f01b6064820152608401610399565b6001600160a01b0383811660008181526001602090815260408083209487168084529482529182902085905590518481527f8c5be1e5ebec7d5bd14f71427d1e84f3dd0314c0f7b2291e5b200ac8c7c3b925910160405180910390a3505050565b6000610c128484610991565b90506000198114610c7a5781811015610c6d5760405162461bcd60e51b815260206004820152601d60248201527f45524332303a20696e73756666696369656e7420616c6c6f77616e63650000006044820152606401610399565b610c7a8484848403610ae2565b50505050565b6001600160a01b038316610ce45760405162461bcd60e51b815260206004820152602560248201527f45524332303a207472616e736665722066726f6d20746865207a65726f206164604482015264647265737360d81b6064820152608401610399565b6001600160a01b038216610d465760405162461bcd60e51b815260206004820152602360248201527f45524332303a207472616e7366657220746f20746865207a65726f206164647260448201526265737360e81b6064820152608401610399565b610d518383836111fd565b6001600160a01b03831660009081526020819052604090205481811015610dc95760405162461bcd60e51b815260206004820152602660248201527f45524332303a207472616e7366657220616d6f756e7420657863656564732062604482015265616c616e636560d01b6064820152608401610399565b6001600160a01b03848116600081815260208181526040808320878703905593871680835291849020805487019055925185815290927fddf252ad1be2c89b69c2b068fc378daa952ba7f163c4a11628f55a4df523b3ef910160405180910390a3610c7a565b6001600160a01b038216610e855760405162461bcd60e51b815260206004820152601f60248201527f45524332303a206d696e7420746f20746865207a65726f2061646472657373006044820152606401610399565b610e91600083836111fd565b8060026000828254610ea39190611547565b90915550506001600160a01b038216600081815260208181526040808320805486019055518481527fddf252ad1be2c89b69c2b068fc378daa952ba7f163c4a11628f55a4df523b3ef910160405180910390a35050565b6000807f00000000000000000000000000000000000000000000000000000000000000006001600160a01b03166394217ad16040518163ffffffff1660e01b8152600401602060405180830381865afa158015610f5b573d6000803e3d6000fd5b505050506040513d601f19601f82011682018060405250810190610f7f91906115c5565b9050806001600160a01b031663177d03076040518163ffffffff1660e01b8152600401602060405180830381865afa158015610fbf573d6000803e3d6000fd5b505050506040513d601f19601f82011682018060405250810190610fe39190611580565b91505090565b60006001600160801b038211156110525760405162461bcd60e51b815260206004820152602760248201527f53616665436173743a2076616c756520646f65736e27742066697420696e20316044820152663238206269747360c81b6064820152608401610399565b5090565b600067ffffffffffffffff8211156110525760405162461bcd60e51b815260206004820152602660248201527f53616665436173743a2076616c756520646f65736e27742066697420696e203660448201526534206269747360d01b6064820152608401610399565b6001600160a01b03821661111f5760405162461bcd60e51b815260206004820152602160248201527f45524332303a206275726e2066726f6d20746865207a65726f206164647265736044820152607360f81b6064820152608401610399565b61112b826000836111fd565b6001600160a01b0382166000908152602081905260409020548181101561119f5760405162461bcd60e51b815260206004820152602260248201527f45524332303a206275726e20616d6f756e7420657863656564732062616c616e604482015261636560f01b6064820152608401610399565b6001600160a01b0383166000818152602081815260408083208686039055600280548790039055518581529192917fddf252ad1be2c89b69c2b068fc378daa952ba7f163c4a11628f55a4df523b3ef910160405180910390a3505050565b336001600160a01b037f0000000000000000000000000000000000000000000000000000000000000000161461129657600061123884610701565b9050808211156112945760405162461bcd60e51b815260206004820152602160248201527f696e73756666696369656e74207472616e7366657261626c652062616c616e636044820152606560f81b6064820152608401610399565b505b60065460ff161580156112b157506001600160a01b03831615155b156106fc576112c183600a6109bc565b5060006112cd8461087c565b905080821115610c7a5760405162461bcd60e51b815260206004820152602360248201527f696e73756666696369656e74206e6f6e2d74696d656c6f636b65642062616c616044820152626e636560e81b6064820152608401610399565b6001600160a01b03811681146103a257600080fd5b60006020828403121561135257600080fd5b813561135d8161132b565b9392505050565b60006020828403121561137657600080fd5b81356001600160e01b03198116811461135d57600080fd5b600060208083528351808285015260005b818110156113bb5785810183015185820160400152820161139f565b506000604082860101526040601f19601f8301168501019250505092915050565b600080604083850312156113ef57600080fd5b82356113fa8161132b565b946020939093013593505050565b60008060006060848603121561141d57600080fd5b83356114288161132b565b925060208401356114388161132b565b929592945050506040919091013590565b60008060006060848603121561145e57600080fd5b83356114698161132b565b9250602084013591506040840135801515811461148557600080fd5b809150509250925092565b600080604083850312156114a357600080fd5b82356114ae8161132b565b915060208301356114be8161132b565b809150509250929050565b6020808252601490820152731bdb9b1e4818dbdb1b185d195c985b081c1bdbdb60621b604082015260600190565b600181811c9082168061150b57607f821691505b60208210810361152b57634e487b7160e01b600052602260045260246000fd5b50919050565b634e487b7160e01b600052601160045260246000fd5b808201808211156103f1576103f1611531565b60006001600160801b0380831681810361157657611576611531565b6001019392505050565b60006020828403121561159257600080fd5b5051919050565b818103818111156103f1576103f1611531565b6000600182016115be576115be611531565b5060010190565b6000602082840312156115d757600080fd5b815161135d8161132b56fea2646970667358221220fb79bdff302a1de18c1eae40fed2cfbb594f1740f25c3937230b267b6604317a64736f6c63430008140033a2646970667358221220f920baf6675bce6d081f95fec0bfb88895d0fa407690f93174c0d0bcff7b646964736f6c63430008140033",
  "linkReferences": {},
  "deployedLinkReferences": {}
}