{
  "_format": "hh-sol-artifact-1",
  "contractName": "ConversionMock",
  "sourceName": "contracts/fasset/library/mock/ConversionMock.sol",
  "abi": [
    {
      "inputs": [
        {
          "internalType": "uint256",
          "name": "_tokenDecimals",
          "type": "uint256"
        },
        {
          "internalType": "uint256",
          "name": "_tokenPrice",
          "type": "uint256"
        },
        {
          "internalType": "uint256",
          "name": "_tokenFtsoDecimals",
          "type": "uint256"
        },
        {
          "internalType": "uint256",
          "name": "_assetPrice",
          "type": "uint256"
        },
        {
          "internalType": "uint256",
          "name": "_assetFtsoDecimals",
          "type": "uint256"
        }
      ],
      "name": "calcAmgToTokenWeiPrice",
      "outputs": [
        {
          "internalType": "uint256",
          "name": "",
          "type": "uint256"
        }
      ],
      "stateMutability": "view",
      "type": "function"
    },
    {
      "inputs": [
        {
          "internalType": "uint256",
          "name": "_valueAMG",
          "type": "uint256"
        },
        {
          "internalType": "uint256",
          "name": "_amgToNATWeiPrice",
          "type": "uint256"
        }
      ],
      "name": "convertAmgToTokenWei",
      "outputs": [
        {
          "internalType": "uint256",
          "name": "",
          "type": "uint256"
        }
      ],
      "stateMutability": "pure",
      "type": "function"
    },
    {
      "inputs": [
        {
          "internalType": "uint256",
          "name": "_valueNATWei",
          "type": "uint256"
        },
        {
          "internalType": "uint256",
          "name": "_amgToNATWeiPrice",
          "type": "uint256"
        }
      ],
      "name": "convertTokenWeiToAMG",
      "outputs": [
        {
          "internalType": "uint256",
          "name": "",
          "type": "uint256"
        }
      ],
      "stateMutability": "pure",
      "type": "function"
    },
    {
      "inputs": [
        {
          "internalType": "uint256",
          "name": "assetDecimals",
          "type": "uint256"
        },
        {
          "internalType": "uint256",
          "name": "assetMintingDecimals",
          "type": "uint256"
        }
      ],
      "name": "setAssetDecimals",
      "outputs": [],
      "stateMutability": "nonpayable",
      "type": "function"
    }
  ],
  "bytecode": "0x608060405234801561001057600080fd5b506106d5806100206000396000f3fe608060405234801561001057600080fd5b506004361061004c5760003560e01c80635170738c146100515780636338489e14610066578063b2ae335d1461008b578063d55f0a4e1461009e575b600080fd5b61006461005f36600461049a565b6100b1565b005b61007961007436600461049a565b61019f565b60405190815260200160405180910390f35b6100796100993660046104bc565b6101b4565b6100796100ac36600461049a565b6101cd565b7fec7e8c1c441439dd40959777f4c577ea0cd42fcc1dbe59d2bd0f5d9c55df8db66100db836101d9565b8160090160146101000a81548160ff021916908360ff160217905550610100826101d9565b60098201805460ff92909216600160a81b0260ff60a81b1990921691909117905561013461012f84600a6105f1565b610243565b600b8201805467ffffffffffffffff191667ffffffffffffffff9290921691909117905561017061016583856105fd565b61012f90600a6105f1565b81600b0160086101000a81548167ffffffffffffffff021916908367ffffffffffffffff160217905550505050565b60006101ab83836102ac565b90505b92915050565b60006101c386868686866102c6565b9695505050505050565b60006101ab838361035f565b600060ff82111561023f5760405162461bcd60e51b815260206004820152602560248201527f53616665436173743a2076616c756520646f65736e27742066697420696e2038604482015264206269747360d81b60648201526084015b60405180910390fd5b5090565b600067ffffffffffffffff82111561023f5760405162461bcd60e51b815260206004820152602660248201527f53616665436173743a2076616c756520646f65736e27742066697420696e203660448201526534206269747360d01b6064820152608401610236565b60006101ab826102be6009600a6105f1565b859190610374565b60007fec7e8c1c441439dd40959777f4c577ea0cd42fcc1dbe59d2bd0f5d9c55df8db68160096102f6878a610614565b6103009190610614565b6009830154909150600090610320908690600160a81b900460ff16610614565b9050808210156103325761033261062c565b61035261033f82846105fd565b61034a90600a6105f1565b87908a610374565b9998505050505050505050565b60006101ab6103706009600a6105f1565b8490845b60008082116103b85760405162461bcd60e51b815260206004820152601060248201526f4469766973696f6e206279207a65726f60801b6044820152606401610236565b836103c557506000610493565b838302838582816103d8576103d8610642565b0414156103f7578281816103ee576103ee610642565b04915050610493565b5060006104048386610658565b90506000610412848761066c565b905060006104208587610658565b9050600061042e868861066c565b90508561043b8285610680565b6104459190610658565b61044f8385610680565b6104598387610680565b886104648689610680565b61046e9190610680565b6104789190610614565b6104829190610614565b61048c9190610614565b9450505050505b9392505050565b600080604083850312156104ad57600080fd5b50508035926020909101359150565b600080600080600060a086880312156104d457600080fd5b505083359560208501359550604085013594606081013594506080013592509050565b634e487b7160e01b600052601160045260246000fd5b600181815b8085111561054857816000190482111561052e5761052e6104f7565b8085161561053b57918102915b93841c9390800290610512565b509250929050565b60008261055f575060016101ae565b8161056c575060006101ae565b8160018114610582576002811461058c576105a8565b60019150506101ae565b60ff84111561059d5761059d6104f7565b50506001821b6101ae565b5060208310610133831016604e8410600b84101617156105cb575081810a6101ae565b6105d5838361050d565b80600019048211156105e9576105e96104f7565b029392505050565b60006101ab8383610550565b60008282101561060f5761060f6104f7565b500390565b60008219821115610627576106276104f7565b500190565b634e487b7160e01b600052600160045260246000fd5b634e487b7160e01b600052601260045260246000fd5b60008261066757610667610642565b500490565b60008261067b5761067b610642565b500690565b600081600019048311821515161561069a5761069a6104f7565b50029056fea2646970667358221220e76b1d91921ead87b67249e76e46502d458d5ca50c5e08e33c530663ba1c43e564736f6c634300080b0033",
  "linkReferences": {},
  "deployedLinkReferences": {}
}