{
  "_format": "hh-sol-artifact-1",
  "contractName": "ConversionMock",
  "sourceName": "contracts/fasset/library/mock/ConversionMock.sol",
  "abi": [
    {
      "inputs": [
        {
          "internalType": "uint256",
          "name": "_valueAMG",
          "type": "uint256"
        },
        {
          "internalType": "uint256",
          "name": "_amgToNATWeiPrice",
          "type": "uint256"
        }
      ],
      "name": "convertAmgToNATWei",
      "outputs": [
        {
          "internalType": "uint256",
          "name": "",
          "type": "uint256"
        }
      ],
      "stateMutability": "pure",
      "type": "function"
    },
    {
      "inputs": [
        {
          "internalType": "uint256",
          "name": "_valueNATWei",
          "type": "uint256"
        },
        {
          "internalType": "uint256",
          "name": "_amgToNATWeiPrice",
          "type": "uint256"
        }
      ],
      "name": "convertNATWeiToAMG",
      "outputs": [
        {
          "internalType": "uint256",
          "name": "",
          "type": "uint256"
        }
      ],
      "stateMutability": "pure",
      "type": "function"
    }
  ],
  "bytecode": "0x608060405234801561001057600080fd5b506102bb806100206000396000f3fe608060405234801561001057600080fd5b50600436106100365760003560e01c80639ee757de1461003b578063a8403bbc14610060575b600080fd5b61004e6100493660046101d8565b610073565b60405190815260200160405180910390f35b61004e61006e3660046101d8565b610086565b600061007f8383610092565b9392505050565b600061007f83836100a3565b600061007f83633b9aca00846100b0565b600061007f8383633b9aca005b60008082116100f85760405162461bcd60e51b815260206004820152601060248201526f4469766973696f6e206279207a65726f60801b604482015260640160405180910390fd5b836101055750600061007f565b83830283858281610118576101186101fa565b0414156101375782818161012e5761012e6101fa565b0491505061007f565b5060006101448386610226565b90506000610152848761023a565b905060006101608587610226565b9050600061016e868861023a565b90508561017b828561024e565b6101859190610226565b61018f838561024e565b610199838761024e565b886101a4868961024e565b6101ae919061024e565b6101b8919061026d565b6101c2919061026d565b6101cc919061026d565b98975050505050505050565b600080604083850312156101eb57600080fd5b50508035926020909101359150565b634e487b7160e01b600052601260045260246000fd5b634e487b7160e01b600052601160045260246000fd5b600082610235576102356101fa565b500490565b600082610249576102496101fa565b500690565b600081600019048311821515161561026857610268610210565b500290565b6000821982111561028057610280610210565b50019056fea264697066735822122089ee9ef71b3d753348c2d4c6a17da5d9b27117fa73183362dfc04ebaf79d440464736f6c634300080b0033",
  "linkReferences": {},
  "deployedLinkReferences": {}
}