{
  "_format": "hh-sol-artifact-1",
  "contractName": "SCProofVerifierMock",
  "sourceName": "contracts/generated/contracts/SCProofVerifierMock.sol",
  "abi": [
    {
      "inputs": [],
      "name": "BALANCE_DECREASING_TRANSACTION",
      "outputs": [
        {
          "internalType": "uint16",
          "name": "",
          "type": "uint16"
        }
      ],
      "stateMutability": "view",
      "type": "function"
    },
    {
      "inputs": [],
      "name": "BUFFER_WINDOW",
      "outputs": [
        {
          "internalType": "uint256",
          "name": "",
          "type": "uint256"
        }
      ],
      "stateMutability": "view",
      "type": "function"
    },
    {
      "inputs": [],
      "name": "CONFIRMED_BLOCK_HEIGHT_EXISTS",
      "outputs": [
        {
          "internalType": "uint16",
          "name": "",
          "type": "uint16"
        }
      ],
      "stateMutability": "view",
      "type": "function"
    },
    {
      "inputs": [],
      "name": "PAYMENT",
      "outputs": [
        {
          "internalType": "uint16",
          "name": "",
          "type": "uint16"
        }
      ],
      "stateMutability": "view",
      "type": "function"
    },
    {
      "inputs": [],
      "name": "REFERENCED_PAYMENT_NONEXISTENCE",
      "outputs": [
        {
          "internalType": "uint16",
          "name": "",
          "type": "uint16"
        }
      ],
      "stateMutability": "view",
      "type": "function"
    },
    {
      "inputs": [],
      "name": "TOTAL_STORED_PROOFS",
      "outputs": [
        {
          "internalType": "uint256",
          "name": "",
          "type": "uint256"
        }
      ],
      "stateMutability": "view",
      "type": "function"
    },
    {
      "inputs": [
        {
          "internalType": "uint256",
          "name": "_stateConnectorRound",
          "type": "uint256"
        }
      ],
      "name": "merkleRootForRound",
      "outputs": [
        {
          "internalType": "bytes32",
          "name": "_merkleRoot",
          "type": "bytes32"
        }
      ],
      "stateMutability": "view",
      "type": "function"
    },
    {
      "inputs": [
        {
          "internalType": "uint256",
          "name": "",
          "type": "uint256"
        }
      ],
      "name": "merkleRoots",
      "outputs": [
        {
          "internalType": "bytes32",
          "name": "",
          "type": "bytes32"
        }
      ],
      "stateMutability": "view",
      "type": "function"
    },
    {
      "inputs": [
        {
          "internalType": "uint256",
          "name": "_stateConnectorRound",
          "type": "uint256"
        },
        {
          "internalType": "bytes32",
          "name": "_merkleRoot",
          "type": "bytes32"
        }
      ],
      "name": "setMerkleRoot",
      "outputs": [],
      "stateMutability": "nonpayable",
      "type": "function"
    },
    {
      "inputs": [
        {
          "internalType": "uint32",
          "name": "_chainId",
          "type": "uint32"
        },
        {
          "components": [
            {
              "internalType": "bytes32[]",
              "name": "merkleProof",
              "type": "bytes32[]"
            },
            {
              "internalType": "uint256",
              "name": "stateConnectorRound",
              "type": "uint256"
            },
            {
              "internalType": "uint64",
              "name": "blockNumber",
              "type": "uint64"
            },
            {
              "internalType": "uint64",
              "name": "blockTimestamp",
              "type": "uint64"
            },
            {
              "internalType": "bytes32",
              "name": "transactionHash",
              "type": "bytes32"
            },
            {
              "internalType": "bytes32",
              "name": "sourceAddressIndicator",
              "type": "bytes32"
            },
            {
              "internalType": "bytes32",
              "name": "sourceAddressHash",
              "type": "bytes32"
            },
            {
              "internalType": "int256",
              "name": "spentAmount",
              "type": "int256"
            },
            {
              "internalType": "bytes32",
              "name": "paymentReference",
              "type": "bytes32"
            }
          ],
          "internalType": "struct ISCProofVerifier.BalanceDecreasingTransaction",
          "name": "_data",
          "type": "tuple"
        }
      ],
      "name": "verifyBalanceDecreasingTransaction",
      "outputs": [
        {
          "internalType": "bool",
          "name": "_proved",
          "type": "bool"
        }
      ],
      "stateMutability": "view",
      "type": "function"
    },
    {
      "inputs": [
        {
          "internalType": "uint32",
          "name": "_chainId",
          "type": "uint32"
        },
        {
          "components": [
            {
              "internalType": "bytes32[]",
              "name": "merkleProof",
              "type": "bytes32[]"
            },
            {
              "internalType": "uint256",
              "name": "stateConnectorRound",
              "type": "uint256"
            },
            {
              "internalType": "uint64",
              "name": "blockNumber",
              "type": "uint64"
            },
            {
              "internalType": "uint64",
              "name": "blockTimestamp",
              "type": "uint64"
            },
            {
              "internalType": "uint8",
              "name": "numberOfConfirmations",
              "type": "uint8"
            },
            {
              "internalType": "uint64",
              "name": "lowestQueryWindowBlockNumber",
              "type": "uint64"
            },
            {
              "internalType": "uint64",
              "name": "lowestQueryWindowBlockTimestamp",
              "type": "uint64"
            }
          ],
          "internalType": "struct ISCProofVerifier.ConfirmedBlockHeightExists",
          "name": "_data",
          "type": "tuple"
        }
      ],
      "name": "verifyConfirmedBlockHeightExists",
      "outputs": [
        {
          "internalType": "bool",
          "name": "_proved",
          "type": "bool"
        }
      ],
      "stateMutability": "view",
      "type": "function"
    },
    {
      "inputs": [
        {
          "internalType": "uint32",
          "name": "_chainId",
          "type": "uint32"
        },
        {
          "components": [
            {
              "internalType": "bytes32[]",
              "name": "merkleProof",
              "type": "bytes32[]"
            },
            {
              "internalType": "uint256",
              "name": "stateConnectorRound",
              "type": "uint256"
            },
            {
              "internalType": "uint64",
              "name": "blockNumber",
              "type": "uint64"
            },
            {
              "internalType": "uint64",
              "name": "blockTimestamp",
              "type": "uint64"
            },
            {
              "internalType": "bytes32",
              "name": "transactionHash",
              "type": "bytes32"
            },
            {
              "internalType": "uint8",
              "name": "inUtxo",
              "type": "uint8"
            },
            {
              "internalType": "uint8",
              "name": "utxo",
              "type": "uint8"
            },
            {
              "internalType": "bytes32",
              "name": "sourceAddressHash",
              "type": "bytes32"
            },
            {
              "internalType": "bytes32",
              "name": "intendedSourceAddressHash",
              "type": "bytes32"
            },
            {
              "internalType": "bytes32",
              "name": "receivingAddressHash",
              "type": "bytes32"
            },
            {
              "internalType": "bytes32",
              "name": "intendedReceivingAddressHash",
              "type": "bytes32"
            },
            {
              "internalType": "int256",
              "name": "spentAmount",
              "type": "int256"
            },
            {
              "internalType": "int256",
              "name": "intendedSpentAmount",
              "type": "int256"
            },
            {
              "internalType": "int256",
              "name": "receivedAmount",
              "type": "int256"
            },
            {
              "internalType": "int256",
              "name": "intendedReceivedAmount",
              "type": "int256"
            },
            {
              "internalType": "bytes32",
              "name": "paymentReference",
              "type": "bytes32"
            },
            {
              "internalType": "bool",
              "name": "oneToOne",
              "type": "bool"
            },
            {
              "internalType": "uint8",
              "name": "status",
              "type": "uint8"
            }
          ],
          "internalType": "struct ISCProofVerifier.Payment",
          "name": "_data",
          "type": "tuple"
        }
      ],
      "name": "verifyPayment",
      "outputs": [
        {
          "internalType": "bool",
          "name": "_proved",
          "type": "bool"
        }
      ],
      "stateMutability": "view",
      "type": "function"
    },
    {
      "inputs": [
        {
          "internalType": "uint32",
          "name": "_chainId",
          "type": "uint32"
        },
        {
          "components": [
            {
              "internalType": "bytes32[]",
              "name": "merkleProof",
              "type": "bytes32[]"
            },
            {
              "internalType": "uint256",
              "name": "stateConnectorRound",
              "type": "uint256"
            },
            {
              "internalType": "uint64",
              "name": "deadlineBlockNumber",
              "type": "uint64"
            },
            {
              "internalType": "uint64",
              "name": "deadlineTimestamp",
              "type": "uint64"
            },
            {
              "internalType": "bytes32",
              "name": "destinationAddressHash",
              "type": "bytes32"
            },
            {
              "internalType": "bytes32",
              "name": "paymentReference",
              "type": "bytes32"
            },
            {
              "internalType": "uint128",
              "name": "amount",
              "type": "uint128"
            },
            {
              "internalType": "uint64",
              "name": "lowerBoundaryBlockNumber",
              "type": "uint64"
            },
            {
              "internalType": "uint64",
              "name": "lowerBoundaryBlockTimestamp",
              "type": "uint64"
            },
            {
              "internalType": "uint64",
              "name": "firstOverflowBlockNumber",
              "type": "uint64"
            },
            {
              "internalType": "uint64",
              "name": "firstOverflowBlockTimestamp",
              "type": "uint64"
            }
          ],
          "internalType": "struct ISCProofVerifier.ReferencedPaymentNonexistence",
          "name": "_data",
          "type": "tuple"
        }
      ],
      "name": "verifyReferencedPaymentNonexistence",
      "outputs": [
        {
          "internalType": "bool",
          "name": "_proved",
          "type": "bool"
        }
      ],
      "stateMutability": "view",
      "type": "function"
    }
  ],
  "bytecode": "0x608060405234801561001057600080fd5b50610c55806100206000396000f3fe608060405234801561001057600080fd5b50600436106100cf5760003560e01c8063883b137f1161008c578063dff2923611610066578063dff292361461018b578063f417c9d81461019e578063f5f59a4a146101a6578063faa386ed146101ae57600080fd5b8063883b137f14610168578063b670671e14610170578063c3a3804a1461017857600080fd5b80630cbff61d146100d45780630e187396146100f457806318712c21146101175780636a94dc8f1461012c5780636ea7688a1461013457806371c5ecb114610147575b600080fd5b6100dc600481565b60405161ffff90911681526020015b60405180910390f35b6101076101023660046108e4565b6101c1565b60405190151581526020016100eb565b61012a61012536600461093a565b610225565b005b6100dc600281565b61010761014236600461095c565b610257565b61015a6101553660046109a6565b6102af565b6040519081526020016100eb565b6100dc600181565b6100dc600381565b6101076101863660046109bf565b6102c7565b61015a6101993660046109a6565b61031f565b61015a610353565b61015a605a81565b6101076101bc366004610a0a565b610364565b600061021e6101d08380610a55565b8080602002602001604051908101604052809392919081815260200183836020028082843760009201919091525061020f92505050602085013561031f565b61021986866103bc565b610490565b9392505050565b806000610236605a62093a80610abc565b6102409085610ad0565b611a40811061025157610251610ae4565b01555050565b600061021e6102668380610a55565b808060200260200160405190810160405280939291908181526020018383602002808284376000920191909152506102a592505050602085013561031f565b61021986866104a5565b600081611a4081106102c057600080fd5b0154905081565b600061021e6102d68380610a55565b8080602002602001604051908101604052809392919081815260200183836020028082843760009201919091525061031592505050602085013561031f565b610219868661055e565b600080610330605a62093a80610abc565b61033a9084610ad0565b611a40811061034b5761034b610ae4565b015492915050565b610361605a62093a80610abc565b81565b600061021e6103738380610a55565b808060200260200160405190810160405280939291908181526020018383602002808284376000920191909152506103b292505050602085013561031f565b61021986866106f6565b600060028360208401356103d66060860160408701610afa565b6103e66080870160608801610afa565b86608001358760a001358860c001358960e001358a61010001356040516020016104729a9998979695949392919061ffff9a909a168a5263ffffffff9890981660208a0152604089019690965267ffffffffffffffff948516606089015292909316608087015260a086015260c085019190915260e08401526101008301526101208201526101400190565b60405160208183030381529060405280519060200120905092915050565b600061049d848484610839565b949350505050565b600060038360208401356104bf6060860160408701610afa565b6104cf6080870160608801610afa565b6104df60a0880160808901610b24565b6104ef60c0890160a08a01610afa565b6104ff60e08a0160c08b01610afa565b6040805161ffff90991660208a015263ffffffff90971696880196909652606087019490945267ffffffffffffffff928316608087015290821660a086015260ff1660c085015290811660e08401521661010082015261012001610472565b600060018360208401356105786060860160408701610afa565b6105886080870160608801610afa565b608087013561059d60c0890160a08a01610b24565b6105ad60e08a0160c08b01610b24565b6040805161ffff90991660208a015263ffffffff90971696880196909652606087019490945267ffffffffffffffff9283166080870152911660a085015260c084015260ff90811660e0840152166101008201526101200160408051601f1981840301815282825260e08086013560208501526101008087013593850193909352610120808701356060860152610140870135608086015261016087013560a086015261018087013560c08601526101a0870135918501919091526101c086013592840192909252910160408051601f198184030181529190526101e084013561069f61022086016102008701610b47565b6106b161024087016102208801610b24565b6040516020016106d793929190928352901515602083015260ff16604082015260600190565b60408051601f1981840301815290829052610472939291602001610b99565b600060048360208401356107106060860160408701610afa565b6107206080870160608801610afa565b608087013560a088013561073a60e08a0160c08b01610bc0565b6040805161ffff90991660208a015263ffffffff90971696880196909652606087019490945267ffffffffffffffff9283166080870152911660a085015260c084015260e08301526001600160801b03166101008201526101200160408051601f198184030181529190526107b6610100840160e08501610afa565b6107c861012085016101008601610afa565b6107da61014086016101208701610afa565b6107ec61016087016101408801610afa565b6040805167ffffffffffffffff9586166020820152938516908401529083166060830152909116608082015260a00160408051601f19818403018152908290526104729291602001610be9565b600082610846858461084f565b14949350505050565b600081815b8451811015610894576108808286838151811061087357610873610ae4565b602002602001015161089c565b91508061088c81610bf8565b915050610854565b509392505050565b60008183106108b857600082815260208490526040902061021e565b600083815260208390526040902061021e565b803563ffffffff811681146108df57600080fd5b919050565b600080604083850312156108f757600080fd5b610900836108cb565b9150602083013567ffffffffffffffff81111561091c57600080fd5b8301610120818603121561092f57600080fd5b809150509250929050565b6000806040838503121561094d57600080fd5b50508035926020909101359150565b6000806040838503121561096f57600080fd5b610978836108cb565b9150602083013567ffffffffffffffff81111561099457600080fd5b830160e0818603121561092f57600080fd5b6000602082840312156109b857600080fd5b5035919050565b600080604083850312156109d257600080fd5b6109db836108cb565b9150602083013567ffffffffffffffff8111156109f757600080fd5b8301610240818603121561092f57600080fd5b60008060408385031215610a1d57600080fd5b610a26836108cb565b9150602083013567ffffffffffffffff811115610a4257600080fd5b8301610160818603121561092f57600080fd5b6000808335601e19843603018112610a6c57600080fd5b83018035915067ffffffffffffffff821115610a8757600080fd5b6020019150600581901b3603821315610a9f57600080fd5b9250929050565b634e487b7160e01b600052601260045260246000fd5b600082610acb57610acb610aa6565b500490565b600082610adf57610adf610aa6565b500690565b634e487b7160e01b600052603260045260246000fd5b600060208284031215610b0c57600080fd5b813567ffffffffffffffff8116811461021e57600080fd5b600060208284031215610b3657600080fd5b813560ff8116811461021e57600080fd5b600060208284031215610b5957600080fd5b8135801515811461021e57600080fd5b6000815160005b81811015610b8a5760208185018101518683015201610b70565b50600093019283525090919050565b6000610bb7610bb1610bab8488610b69565b86610b69565b84610b69565b95945050505050565b600060208284031215610bd257600080fd5b81356001600160801b038116811461021e57600080fd5b600061049d610bb18386610b69565b600060018201610c1857634e487b7160e01b600052601160045260246000fd5b506001019056fea26469706673582212204a17cb69a9af55631dd445666e72453b35e1e3f8c5d5e41f1867f041ae05717264736f6c63430008140033",
  "linkReferences": {},
  "deployedLinkReferences": {}
}