{
  "_format": "hh-sol-artifact-1",
  "contractName": "GovernedMock",
  "sourceName": "contracts/governance/mock/GovernedMock.sol",
  "abi": [
    {
      "inputs": [
        {
          "internalType": "contract IGovernanceSettings",
          "name": "_governanceSettings",
          "type": "address"
        },
        {
          "internalType": "address",
          "name": "_initialGovernance",
          "type": "address"
        }
      ],
      "stateMutability": "nonpayable",
      "type": "constructor"
    },
    {
      "anonymous": false,
      "inputs": [
        {
          "indexed": false,
          "internalType": "bytes4",
          "name": "selector",
          "type": "bytes4"
        },
        {
          "indexed": false,
          "internalType": "uint256",
          "name": "allowedAfterTimestamp",
          "type": "uint256"
        },
        {
          "indexed": false,
          "internalType": "bytes",
          "name": "encodedCall",
          "type": "bytes"
        }
      ],
      "name": "GovernanceCallTimelocked",
      "type": "event"
    },
    {
      "anonymous": false,
      "inputs": [
        {
          "indexed": false,
          "internalType": "address",
          "name": "initialGovernance",
          "type": "address"
        }
      ],
      "name": "GovernanceInitialised",
      "type": "event"
    },
    {
      "anonymous": false,
      "inputs": [
        {
          "indexed": false,
          "internalType": "address",
          "name": "governanceSettings",
          "type": "address"
        }
      ],
      "name": "GovernedProductionModeEntered",
      "type": "event"
    },
    {
      "anonymous": false,
      "inputs": [
        {
          "indexed": false,
          "internalType": "bytes4",
          "name": "selector",
          "type": "bytes4"
        },
        {
          "indexed": false,
          "internalType": "uint256",
          "name": "timestamp",
          "type": "uint256"
        }
      ],
      "name": "TimelockedGovernanceCallCanceled",
      "type": "event"
    },
    {
      "anonymous": false,
      "inputs": [
        {
          "indexed": false,
          "internalType": "bytes4",
          "name": "selector",
          "type": "bytes4"
        },
        {
          "indexed": false,
          "internalType": "uint256",
          "name": "timestamp",
          "type": "uint256"
        }
      ],
      "name": "TimelockedGovernanceCallExecuted",
      "type": "event"
    },
    {
      "inputs": [
        {
          "internalType": "bytes4",
          "name": "_selector",
          "type": "bytes4"
        }
      ],
      "name": "cancelGovernanceCall",
      "outputs": [],
      "stateMutability": "nonpayable",
      "type": "function"
    },
    {
      "inputs": [
        {
          "internalType": "bytes4",
          "name": "_selector",
          "type": "bytes4"
        }
      ],
      "name": "executeGovernanceCall",
      "outputs": [],
      "stateMutability": "nonpayable",
      "type": "function"
    },
    {
      "inputs": [],
      "name": "governance",
      "outputs": [
        {
          "internalType": "address",
          "name": "",
          "type": "address"
        }
      ],
      "stateMutability": "view",
      "type": "function"
    },
    {
      "inputs": [],
      "name": "governanceSettings",
      "outputs": [
        {
          "internalType": "contract IGovernanceSettings",
          "name": "",
          "type": "address"
        }
      ],
      "stateMutability": "view",
      "type": "function"
    },
    {
      "inputs": [
        {
          "internalType": "contract IGovernanceSettings",
          "name": "_governanceSettings",
          "type": "address"
        },
        {
          "internalType": "address",
          "name": "_initialGovernance",
          "type": "address"
        }
      ],
      "name": "initialise",
      "outputs": [],
      "stateMutability": "nonpayable",
      "type": "function"
    },
    {
      "inputs": [
        {
          "internalType": "address",
          "name": "_address",
          "type": "address"
        }
      ],
      "name": "isExecutor",
      "outputs": [
        {
          "internalType": "bool",
          "name": "",
          "type": "bool"
        }
      ],
      "stateMutability": "view",
      "type": "function"
    },
    {
      "inputs": [],
      "name": "productionMode",
      "outputs": [
        {
          "internalType": "bool",
          "name": "",
          "type": "bool"
        }
      ],
      "stateMutability": "view",
      "type": "function"
    },
    {
      "inputs": [],
      "name": "switchToProductionMode",
      "outputs": [],
      "stateMutability": "nonpayable",
      "type": "function"
    },
    {
      "inputs": [
        {
          "internalType": "bytes4",
          "name": "",
          "type": "bytes4"
        }
      ],
      "name": "timelockedCalls",
      "outputs": [
        {
          "internalType": "uint256",
          "name": "allowedAfterTimestamp",
          "type": "uint256"
        },
        {
          "internalType": "bytes",
          "name": "encodedCall",
          "type": "bytes"
        }
      ],
      "stateMutability": "view",
      "type": "function"
    }
  ],
  "bytecode": "0x608060405234801561001057600080fd5b50604051610d7a380380610d7a83398101604081905261002f916101d0565b818161003b8282610044565b5050505061020a565b600054600160a01b900460ff16156100a35760405162461bcd60e51b815260206004820152601460248201527f696e697469616c6973656420213d2066616c736500000000000000000000000060448201526064015b60405180910390fd5b6001600160a01b0382166100f95760405162461bcd60e51b815260206004820152601860248201527f676f7665726e616e63652073657474696e6773207a65726f0000000000000000604482015260640161009a565b6001600160a01b0381166101425760405162461bcd60e51b815260206004820152601060248201526f5f676f7665726e616e6365207a65726f60801b604482015260640161009a565b600080546001600160a01b038481166001600160a81b031990921691909117600160a01b17909155600180549183166001600160a01b0319909216821790556040519081527f9789733827840833afc031fb2ef9ab6894271f77bad2085687cf4ae5c7bee4db9060200160405180910390a15050565b6001600160a01b03811681146101cd57600080fd5b50565b600080604083850312156101e357600080fd5b82516101ee816101b8565b60208401519092506101ff816101b8565b809150509250929050565b610b61806102196000396000f3fe608060405234801561001057600080fd5b50600436106100935760003560e01c806374e6310e1161006657806374e6310e146100f8578063debfda3014610119578063e17f212e1461013c578063ef88bf1314610150578063f5a983831461016357600080fd5b80635aa6e675146100985780635ff27079146100bd57806362354e03146100d257806367fc4029146100e5575b600080fd5b6100a061016b565b6040516001600160a01b0390911681526020015b60405180910390f35b6100d06100cb36600461099c565b610207565b005b6000546100a0906001600160a01b031681565b6100d06100f336600461099c565b610492565b61010b61010636600461099c565b610573565b6040516100b49291906109f1565b61012c610127366004610a40565b610618565b60405190151581526020016100b4565b60005461012c90600160a81b900460ff1681565b6100d061015e366004610a5d565b6106a1565b6100d0610807565b60008054600160a81b900460ff1661018d57506001546001600160a01b031690565b60008054906101000a90046001600160a01b03166001600160a01b031663732524946040518163ffffffff1660e01b8152600401602060405180830381865afa1580156101de573d6000803e3d6000fd5b505050506040513d601f19601f820116820180604052508101906102029190610a96565b905090565b61021033610618565b6102515760405162461bcd60e51b815260206004820152600d60248201526c37b7363c9032bc32b1baba37b960991b60448201526064015b60405180910390fd5b6001600160e01b03198116600090815260026020526040812080549091036102bb5760405162461bcd60e51b815260206004820152601a60248201527f74696d656c6f636b3a20696e76616c69642073656c6563746f720000000000006044820152606401610248565b805442101561030c5760405162461bcd60e51b815260206004820152601960248201527f74696d656c6f636b3a206e6f7420616c6c6f77656420796574000000000000006044820152606401610248565b600081600101805461031d90610ab3565b80601f016020809104026020016040519081016040528092919081815260200182805461034990610ab3565b80156103965780601f1061036b57610100808354040283529160200191610396565b820191906000526020600020905b81548152906001019060200180831161037957829003601f168201915b505050506001600160e01b03198516600090815260026020526040812081815592935090506103c86001830182610946565b50506000805460ff60b01b1916600160b01b17815560405130906103ed908490610aed565b6000604051808303816000865af19150503d806000811461042a576040519150601f19603f3d011682016040523d82523d6000602084013e61042f565b606091505b50506000805460ff60b01b19169055604080516001600160e01b0319871681524260208201529192507fa7326b57fc9cfe267aaea5e7f0b01757154d265620a0585819416ee9ddd2c438910160405180910390a161048c816108cd565b50505050565b61049a6108ea565b6001600160e01b0319811660009081526002602052604081205490036105025760405162461bcd60e51b815260206004820152601a60248201527f74696d656c6f636b3a20696e76616c69642073656c6563746f720000000000006044820152606401610248565b604080516001600160e01b0319831681524260208201527f7735b2391c38a81419c513e30ca578db7158eadd7101511b23e221c654d19cf8910160405180910390a16001600160e01b0319811660009081526002602052604081208181559061056e6001830182610946565b505050565b6002602052600090815260409020805460018201805491929161059590610ab3565b80601f01602080910402602001604051908101604052809291908181526020018280546105c190610ab3565b801561060e5780601f106105e35761010080835404028352916020019161060e565b820191906000526020600020905b8154815290600101906020018083116105f157829003601f168201915b5050505050905082565b60008054600160a01b900460ff16801561069b5750600054604051630debfda360e41b81526001600160a01b0384811660048301529091169063debfda3090602401602060405180830381865afa158015610677573d6000803e3d6000fd5b505050506040513d601f19601f8201168201806040525081019061069b9190610b09565b92915050565b600054600160a01b900460ff16156106f25760405162461bcd60e51b8152602060048201526014602482015273696e697469616c6973656420213d2066616c736560601b6044820152606401610248565b6001600160a01b0382166107485760405162461bcd60e51b815260206004820152601860248201527f676f7665726e616e63652073657474696e6773207a65726f00000000000000006044820152606401610248565b6001600160a01b0381166107915760405162461bcd60e51b815260206004820152601060248201526f5f676f7665726e616e6365207a65726f60801b6044820152606401610248565b600080546001600160a01b038481166001600160a81b031990921691909117600160a01b17909155600180549183166001600160a01b0319909216821790556040519081527f9789733827840833afc031fb2ef9ab6894271f77bad2085687cf4ae5c7bee4db9060200160405180910390a15050565b61080f6108ea565b600054600160a81b900460ff16156108695760405162461bcd60e51b815260206004820152601a60248201527f616c726561647920696e2070726f64756374696f6e206d6f64650000000000006044820152606401610248565b600180546001600160a01b031916905560008054600160a81b60ff60a81b198216179091556040516001600160a01b0390911681527f83af113638b5422f9e977cebc0aaf0eaf2188eb9a8baae7f9d46c42b33a1560c9060200160405180910390a1565b3d604051818101604052816000823e82156108e6578181f35b8181fd5b6108f261016b565b6001600160a01b0316336001600160a01b0316146109445760405162461bcd60e51b815260206004820152600f60248201526e6f6e6c7920676f7665726e616e636560881b6044820152606401610248565b565b50805461095290610ab3565b6000825580601f10610962575050565b601f0160209004906000526020600020908101906109809190610983565b50565b5b808211156109985760008155600101610984565b5090565b6000602082840312156109ae57600080fd5b81356001600160e01b0319811681146109c657600080fd5b9392505050565b60005b838110156109e85781810151838201526020016109d0565b50506000910152565b8281526040602082015260008251806040840152610a168160608501602087016109cd565b601f01601f1916919091016060019392505050565b6001600160a01b038116811461098057600080fd5b600060208284031215610a5257600080fd5b81356109c681610a2b565b60008060408385031215610a7057600080fd5b8235610a7b81610a2b565b91506020830135610a8b81610a2b565b809150509250929050565b600060208284031215610aa857600080fd5b81516109c681610a2b565b600181811c90821680610ac757607f821691505b602082108103610ae757634e487b7160e01b600052602260045260246000fd5b50919050565b60008251610aff8184602087016109cd565b9190910192915050565b600060208284031215610b1b57600080fd5b815180151581146109c657600080fdfea26469706673582212208aa476d4ac5a3c850abd110ae953839ea51c5fd9b5a9537e06131858ed9061d364736f6c63430008140033",
  "linkReferences": {},
  "deployedLinkReferences": {}
}