{
  "_format": "hh-sol-artifact-1",
  "contractName": "CollateralPoolToken",
  "sourceName": "contracts/fasset/implementation/CollateralPoolToken.sol",
  "abi": [
    {
      "inputs": [
        {
          "internalType": "address",
          "name": "_collateralPool",
          "type": "address"
        },
        {
          "internalType": "string",
          "name": "_tokenName",
          "type": "string"
        },
        {
          "internalType": "string",
          "name": "_tokenSymbol",
          "type": "string"
        }
      ],
      "stateMutability": "nonpayable",
      "type": "constructor"
    },
    {
      "anonymous": false,
      "inputs": [
        {
          "indexed": true,
          "internalType": "address",
          "name": "owner",
          "type": "address"
        },
        {
          "indexed": true,
          "internalType": "address",
          "name": "spender",
          "type": "address"
        },
        {
          "indexed": false,
          "internalType": "uint256",
          "name": "value",
          "type": "uint256"
        }
      ],
      "name": "Approval",
      "type": "event"
    },
    {
      "anonymous": false,
      "inputs": [
        {
          "indexed": true,
          "internalType": "address",
          "name": "from",
          "type": "address"
        },
        {
          "indexed": true,
          "internalType": "address",
          "name": "to",
          "type": "address"
        },
        {
          "indexed": false,
          "internalType": "uint256",
          "name": "value",
          "type": "uint256"
        }
      ],
      "name": "Transfer",
      "type": "event"
    },
    {
      "inputs": [
        {
          "internalType": "address",
          "name": "owner",
          "type": "address"
        },
        {
          "internalType": "address",
          "name": "spender",
          "type": "address"
        }
      ],
      "name": "allowance",
      "outputs": [
        {
          "internalType": "uint256",
          "name": "",
          "type": "uint256"
        }
      ],
      "stateMutability": "view",
      "type": "function"
    },
    {
      "inputs": [
        {
          "internalType": "address",
          "name": "spender",
          "type": "address"
        },
        {
          "internalType": "uint256",
          "name": "amount",
          "type": "uint256"
        }
      ],
      "name": "approve",
      "outputs": [
        {
          "internalType": "bool",
          "name": "",
          "type": "bool"
        }
      ],
      "stateMutability": "nonpayable",
      "type": "function"
    },
    {
      "inputs": [
        {
          "internalType": "address",
          "name": "account",
          "type": "address"
        }
      ],
      "name": "balanceOf",
      "outputs": [
        {
          "internalType": "uint256",
          "name": "",
          "type": "uint256"
        }
      ],
      "stateMutability": "view",
      "type": "function"
    },
    {
      "inputs": [
        {
          "internalType": "address",
          "name": "_account",
          "type": "address"
        },
        {
          "internalType": "uint256",
          "name": "_amount",
          "type": "uint256"
        },
        {
          "internalType": "bool",
          "name": "_ignoreTimelocked",
          "type": "bool"
        }
      ],
      "name": "burn",
      "outputs": [],
      "stateMutability": "nonpayable",
      "type": "function"
    },
    {
      "inputs": [
        {
          "internalType": "address",
          "name": "_account",
          "type": "address"
        },
        {
          "internalType": "uint256",
          "name": "_maxTimelockedEntries",
          "type": "uint256"
        }
      ],
      "name": "cleanupExpiredTimelocks",
      "outputs": [
        {
          "internalType": "bool",
          "name": "_cleanedAllExpired",
          "type": "bool"
        }
      ],
      "stateMutability": "nonpayable",
      "type": "function"
    },
    {
      "inputs": [],
      "name": "collateralPool",
      "outputs": [
        {
          "internalType": "address",
          "name": "",
          "type": "address"
        }
      ],
      "stateMutability": "view",
      "type": "function"
    },
    {
      "inputs": [
        {
          "internalType": "address",
          "name": "_account",
          "type": "address"
        }
      ],
      "name": "debtFreeBalanceOf",
      "outputs": [
        {
          "internalType": "uint256",
          "name": "",
          "type": "uint256"
        }
      ],
      "stateMutability": "view",
      "type": "function"
    },
    {
      "inputs": [
        {
          "internalType": "address",
          "name": "_account",
          "type": "address"
        }
      ],
      "name": "debtLockedBalanceOf",
      "outputs": [
        {
          "internalType": "uint256",
          "name": "",
          "type": "uint256"
        }
      ],
      "stateMutability": "view",
      "type": "function"
    },
    {
      "inputs": [],
      "name": "decimals",
      "outputs": [
        {
          "internalType": "uint8",
          "name": "",
          "type": "uint8"
        }
      ],
      "stateMutability": "view",
      "type": "function"
    },
    {
      "inputs": [
        {
          "internalType": "address",
          "name": "spender",
          "type": "address"
        },
        {
          "internalType": "uint256",
          "name": "subtractedValue",
          "type": "uint256"
        }
      ],
      "name": "decreaseAllowance",
      "outputs": [
        {
          "internalType": "bool",
          "name": "",
          "type": "bool"
        }
      ],
      "stateMutability": "nonpayable",
      "type": "function"
    },
    {
      "inputs": [
        {
          "internalType": "address payable",
          "name": "_recipient",
          "type": "address"
        }
      ],
      "name": "destroy",
      "outputs": [],
      "stateMutability": "nonpayable",
      "type": "function"
    },
    {
      "inputs": [
        {
          "internalType": "address",
          "name": "spender",
          "type": "address"
        },
        {
          "internalType": "uint256",
          "name": "addedValue",
          "type": "uint256"
        }
      ],
      "name": "increaseAllowance",
      "outputs": [
        {
          "internalType": "bool",
          "name": "",
          "type": "bool"
        }
      ],
      "stateMutability": "nonpayable",
      "type": "function"
    },
    {
      "inputs": [
        {
          "internalType": "address",
          "name": "_account",
          "type": "address"
        }
      ],
      "name": "lockedBalanceOf",
      "outputs": [
        {
          "internalType": "uint256",
          "name": "",
          "type": "uint256"
        }
      ],
      "stateMutability": "view",
      "type": "function"
    },
    {
      "inputs": [
        {
          "internalType": "address",
          "name": "_account",
          "type": "address"
        },
        {
          "internalType": "uint256",
          "name": "_amount",
          "type": "uint256"
        }
      ],
      "name": "mint",
      "outputs": [
        {
          "internalType": "uint256",
          "name": "_timelockExpiresAt",
          "type": "uint256"
        }
      ],
      "stateMutability": "nonpayable",
      "type": "function"
    },
    {
      "inputs": [],
      "name": "name",
      "outputs": [
        {
          "internalType": "string",
          "name": "",
          "type": "string"
        }
      ],
      "stateMutability": "view",
      "type": "function"
    },
    {
      "inputs": [
        {
          "internalType": "address",
          "name": "_account",
          "type": "address"
        }
      ],
      "name": "nonTimelockedBalanceOf",
      "outputs": [
        {
          "internalType": "uint256",
          "name": "",
          "type": "uint256"
        }
      ],
      "stateMutability": "view",
      "type": "function"
    },
    {
      "inputs": [
        {
          "internalType": "bytes4",
          "name": "_interfaceId",
          "type": "bytes4"
        }
      ],
      "name": "supportsInterface",
      "outputs": [
        {
          "internalType": "bool",
          "name": "",
          "type": "bool"
        }
      ],
      "stateMutability": "pure",
      "type": "function"
    },
    {
      "inputs": [],
      "name": "symbol",
      "outputs": [
        {
          "internalType": "string",
          "name": "",
          "type": "string"
        }
      ],
      "stateMutability": "view",
      "type": "function"
    },
    {
      "inputs": [
        {
          "internalType": "address",
          "name": "_account",
          "type": "address"
        }
      ],
      "name": "timelockedBalanceOf",
      "outputs": [
        {
          "internalType": "uint256",
          "name": "_timelocked",
          "type": "uint256"
        }
      ],
      "stateMutability": "view",
      "type": "function"
    },
    {
      "inputs": [],
      "name": "totalSupply",
      "outputs": [
        {
          "internalType": "uint256",
          "name": "",
          "type": "uint256"
        }
      ],
      "stateMutability": "view",
      "type": "function"
    },
    {
      "inputs": [
        {
          "internalType": "address",
          "name": "to",
          "type": "address"
        },
        {
          "internalType": "uint256",
          "name": "amount",
          "type": "uint256"
        }
      ],
      "name": "transfer",
      "outputs": [
        {
          "internalType": "bool",
          "name": "",
          "type": "bool"
        }
      ],
      "stateMutability": "nonpayable",
      "type": "function"
    },
    {
      "inputs": [
        {
          "internalType": "address",
          "name": "from",
          "type": "address"
        },
        {
          "internalType": "address",
          "name": "to",
          "type": "address"
        },
        {
          "internalType": "uint256",
          "name": "amount",
          "type": "uint256"
        }
      ],
      "name": "transferFrom",
      "outputs": [
        {
          "internalType": "bool",
          "name": "",
          "type": "bool"
        }
      ],
      "stateMutability": "nonpayable",
      "type": "function"
    },
    {
      "inputs": [
        {
          "internalType": "address",
          "name": "_account",
          "type": "address"
        }
      ],
      "name": "transferableBalanceOf",
      "outputs": [
        {
          "internalType": "uint256",
          "name": "",
          "type": "uint256"
        }
      ],
      "stateMutability": "view",
      "type": "function"
    }
  ],
  "bytecode": "0x60806040523480156200001157600080fd5b506040516200186e3803806200186e833981016040819052620000349162000148565b8181600362000044838262000263565b50600462000053828262000263565b5050600580546001600160a01b0319166001600160a01b039590951694909417909355506200032f915050565b634e487b7160e01b600052604160045260246000fd5b600082601f830112620000a857600080fd5b81516001600160401b0380821115620000c557620000c562000080565b604051601f8301601f19908116603f01168101908282118183101715620000f057620000f062000080565b81604052838152602092508660208588010111156200010e57600080fd5b600091505b8382101562000132578582018301518183018401529082019062000113565b6000602085830101528094505050505092915050565b6000806000606084860312156200015e57600080fd5b83516001600160a01b03811681146200017657600080fd5b60208501519093506001600160401b03808211156200019457600080fd5b620001a28783880162000096565b93506040860151915080821115620001b957600080fd5b50620001c88682870162000096565b9150509250925092565b600181811c90821680620001e757607f821691505b6020821081036200020857634e487b7160e01b600052602260045260246000fd5b50919050565b601f8211156200025e576000816000526020600020601f850160051c81016020861015620002395750805b601f850160051c820191505b818110156200025a5782815560010162000245565b5050505b505050565b81516001600160401b038111156200027f576200027f62000080565b6200029781620002908454620001d2565b846200020e565b602080601f831160018114620002cf5760008415620002b65750858301515b600019600386901b1c1916600185901b1785556200025a565b600085815260208120601f198616915b828110156200030057888601518255948401946001909101908401620002df565b50858210156200031f5787850151600019600388901b60f8161c191681555b5050505050600190811b01905550565b61152f806200033f6000396000f3fe608060405234801561001057600080fd5b506004361061014c5760003560e01c806376fd4fdf116100c3578063c3bb25a01161007c578063c3bb25a0146102b3578063c7d9f4d1146102c6578063d103be99146102d9578063dd62ed3e146102ec578063e5f71bda146102ff578063ff0eccf61461031257600080fd5b806376fd4fdf1461024c5780637ee68fc41461025f57806388b58c721461027257806395d89b4114610285578063a457c2d71461028d578063a9059cbb146102a057600080fd5b806323b872dd1161011557806323b872dd146101c8578063313ce567146101db57806339509351146101ea57806340c10f19146101fd578063593557361461021057806370a082311461022357600080fd5b8062f55d9d1461015157806301ffc9a71461016657806306fdde031461018e578063095ea7b3146101a357806318160ddd146101b6575b600080fd5b61016461015f366004611256565b61033d565b005b61017961017436600461127a565b610373565b60405190151581526020015b60405180910390f35b6101966103c5565b60405161018591906112a4565b6101796101b13660046112f3565b610457565b6002545b604051908152602001610185565b6101796101d636600461131f565b61046f565b60405160128152602001610185565b6101796101f83660046112f3565b610493565b6101ba61020b3660046112f3565b6104b5565b6101ba61021e366004611256565b610604565b6101ba610231366004611256565b6001600160a01b031660009081526020819052604090205490565b61016461025a366004611360565b610636565b6101ba61026d366004611256565b610694565b6101ba610280366004611256565b610704565b610196610737565b61017961029b3660046112f3565b610746565b6101796102ae3660046112f3565b6107c1565b6101ba6102c1366004611256565b6107cf565b6101ba6102d4366004611256565b6107fd565b6101ba6102e7366004611256565b610825565b6101ba6102fa3660046113a7565b6108da565b61017961030d3660046112f3565b610905565b600554610325906001600160a01b031681565b6040516001600160a01b039091168152602001610185565b6005546001600160a01b031633146103705760405162461bcd60e51b8152600401610367906113e0565b60405180910390fd5b50565b60006001600160e01b031982166301ffc9a760e01b14806103a457506001600160e01b031982166336372b0760e01b145b806103bf57506001600160e01b03198216634284fbcf60e11b145b92915050565b6060600380546103d49061140e565b80601f01602080910402602001604051908101604052809291908181526020018280546104009061140e565b801561044d5780601f106104225761010080835404028352916020019161044d565b820191906000526020600020905b81548152906001019060200180831161043057829003601f168201915b5050505050905090565b600033610465818585610a21565b5060019392505050565b60003361047d858285610b45565b610488858585610bbf565b506001949350505050565b6000336104658185856104a683836108da565b6104b0919061145e565b610a21565b6005546000906001600160a01b031633146104e25760405162461bcd60e51b8152600401610367906113e0565b6104ec8383610d6e565b60006104f6610e39565b9050610502814261145e565b91506000811180156105145750600083115b156105fd576001600160a01b038416600090815260066020526040908190208151808301909252908061054686610f1d565b6001600160801b0316815260200161055d85610f8a565b67ffffffffffffffff1690526001820180548391600091600160801b90046001600160801b031690601061059083611471565b82546101009290920a6001600160801b0381810219909316918316021790915590811682526020808301939093526040909101600020835181549490930151929091166001600160c01b031990931692909217600160801b67ffffffffffffffff90921691909102179055505b5092915050565b60008061061083610704565b9050600061061d84610825565b905080821161062c578061062e565b815b949350505050565b6005546001600160a01b031633146106605760405162461bcd60e51b8152600401610367906113e0565b8015610674576007805460ff191660011790555b61067e8383610ff3565b801561068f576007805460ff191690555b505050565b60055460405163c79d245d60e01b81526001600160a01b038381166004830152600092169063c79d245d906024015b602060405180830381865afa1580156106e0573d6000803e3d6000fd5b505050506040513d601f19601f820116820180604052508101906103bf9190611497565b600554604051630af15fdd60e11b81526001600160a01b03838116600483015260009216906315e2bfba906024016106c3565b6060600480546103d49061140e565b6000338161075482866108da565b9050838110156107b45760405162461bcd60e51b815260206004820152602560248201527f45524332303a2064656372656173656420616c6c6f77616e63652062656c6f77604482015264207a65726f60d81b6064820152608401610367565b6104888286868403610a21565b600033610465818585610bbf565b60006107da82610825565b6001600160a01b0383166000908152602081905260409020546103bf91906114b0565b60008061080983610694565b90506000610816846107cf565b905080821061062c578061062e565b6001600160a01b038116600090815260066020526040812060018101546001600160801b03600160801b8204811691165b818110156108a8576000818152602084905260409020805442600160801b90910467ffffffffffffffff16111561089f57805461089c906001600160801b03168661145e565b94505b50600101610856565b506001600160a01b0384166000908152602081905260409020548084106108cf57806108d1565b835b95945050505050565b6001600160a01b03918216600090815260016020908152604080832093909416825291909152205490565b6001600160a01b038216600090815260066020526040812060018101546001600160801b0316825b848110156109b1576001830154600160801b90046001600160801b031682101580610977575060008281526020849052604090205442600160801b90910467ffffffffffffffff16115b6109b15782600083610988816114c3565b908252602082019290925260400160002080546001600160c01b0319169055915060010161092d565b506109bb81610f1d565b6001830180546fffffffffffffffffffffffffffffffff19166001600160801b039283161790819055600160801b900416811015806108d1575060008181526020839052604090205442600160801b90910467ffffffffffffffff161195945050505050565b6001600160a01b038316610a835760405162461bcd60e51b8152602060048201526024808201527f45524332303a20617070726f76652066726f6d20746865207a65726f206164646044820152637265737360e01b6064820152608401610367565b6001600160a01b038216610ae45760405162461bcd60e51b815260206004820152602260248201527f45524332303a20617070726f766520746f20746865207a65726f206164647265604482015261737360f01b6064820152608401610367565b6001600160a01b0383811660008181526001602090815260408083209487168084529482529182902085905590518481527f8c5be1e5ebec7d5bd14f71427d1e84f3dd0314c0f7b2291e5b200ac8c7c3b925910160405180910390a3505050565b6000610b5184846108da565b90506000198114610bb95781811015610bac5760405162461bcd60e51b815260206004820152601d60248201527f45524332303a20696e73756666696369656e7420616c6c6f77616e63650000006044820152606401610367565b610bb98484848403610a21565b50505050565b6001600160a01b038316610c235760405162461bcd60e51b815260206004820152602560248201527f45524332303a207472616e736665722066726f6d20746865207a65726f206164604482015264647265737360d81b6064820152608401610367565b6001600160a01b038216610c855760405162461bcd60e51b815260206004820152602360248201527f45524332303a207472616e7366657220746f20746865207a65726f206164647260448201526265737360e81b6064820152608401610367565b610c90838383611131565b6001600160a01b03831660009081526020819052604090205481811015610d085760405162461bcd60e51b815260206004820152602660248201527f45524332303a207472616e7366657220616d6f756e7420657863656564732062604482015265616c616e636560d01b6064820152608401610367565b6001600160a01b03848116600081815260208181526040808320878703905593871680835291849020805487019055925185815290927fddf252ad1be2c89b69c2b068fc378daa952ba7f163c4a11628f55a4df523b3ef910160405180910390a3610bb9565b6001600160a01b038216610dc45760405162461bcd60e51b815260206004820152601f60248201527f45524332303a206d696e7420746f20746865207a65726f2061646472657373006044820152606401610367565b610dd060008383611131565b8060026000828254610de2919061145e565b90915550506001600160a01b038216600081815260208181526040808320805486019055518481527fddf252ad1be2c89b69c2b068fc378daa952ba7f163c4a11628f55a4df523b3ef910160405180910390a35050565b600080600560009054906101000a90046001600160a01b03166001600160a01b03166394217ad16040518163ffffffff1660e01b8152600401602060405180830381865afa158015610e8f573d6000803e3d6000fd5b505050506040513d601f19601f82011682018060405250810190610eb391906114dc565b9050806001600160a01b031663177d03076040518163ffffffff1660e01b8152600401602060405180830381865afa158015610ef3573d6000803e3d6000fd5b505050506040513d601f19601f82011682018060405250810190610f179190611497565b91505090565b60006001600160801b03821115610f865760405162461bcd60e51b815260206004820152602760248201527f53616665436173743a2076616c756520646f65736e27742066697420696e20316044820152663238206269747360c81b6064820152608401610367565b5090565b600067ffffffffffffffff821115610f865760405162461bcd60e51b815260206004820152602660248201527f53616665436173743a2076616c756520646f65736e27742066697420696e203660448201526534206269747360d01b6064820152608401610367565b6001600160a01b0382166110535760405162461bcd60e51b815260206004820152602160248201527f45524332303a206275726e2066726f6d20746865207a65726f206164647265736044820152607360f81b6064820152608401610367565b61105f82600083611131565b6001600160a01b038216600090815260208190526040902054818110156110d35760405162461bcd60e51b815260206004820152602260248201527f45524332303a206275726e20616d6f756e7420657863656564732062616c616e604482015261636560f01b6064820152608401610367565b6001600160a01b0383166000818152602081815260408083208686039055600280548790039055518581529192917fddf252ad1be2c89b69c2b068fc378daa952ba7f163c4a11628f55a4df523b3ef910160405180910390a3505050565b6005546001600160a01b031633146111ac57600061114e84610694565b9050808211156111aa5760405162461bcd60e51b815260206004820152602160248201527f696e73756666696369656e74207472616e7366657261626c652062616c616e636044820152606560f81b6064820152608401610367565b505b60075460ff161580156111c757506001600160a01b03831615155b1561068f576111d783600a610905565b5060006111e3846107cf565b905080821115610bb95760405162461bcd60e51b815260206004820152602360248201527f696e73756666696369656e74206e6f6e2d74696d656c6f636b65642062616c616044820152626e636560e81b6064820152608401610367565b6001600160a01b038116811461037057600080fd5b60006020828403121561126857600080fd5b813561127381611241565b9392505050565b60006020828403121561128c57600080fd5b81356001600160e01b03198116811461127357600080fd5b60006020808352835180602085015260005b818110156112d2578581018301518582016040015282016112b6565b506000604082860101526040601f19601f8301168501019250505092915050565b6000806040838503121561130657600080fd5b823561131181611241565b946020939093013593505050565b60008060006060848603121561133457600080fd5b833561133f81611241565b9250602084013561134f81611241565b929592945050506040919091013590565b60008060006060848603121561137557600080fd5b833561138081611241565b9250602084013591506040840135801515811461139c57600080fd5b809150509250925092565b600080604083850312156113ba57600080fd5b82356113c581611241565b915060208301356113d581611241565b809150509250929050565b6020808252601490820152731bdb9b1e4818dbdb1b185d195c985b081c1bdbdb60621b604082015260600190565b600181811c9082168061142257607f821691505b60208210810361144257634e487b7160e01b600052602260045260246000fd5b50919050565b634e487b7160e01b600052601160045260246000fd5b808201808211156103bf576103bf611448565b60006001600160801b0380831681810361148d5761148d611448565b6001019392505050565b6000602082840312156114a957600080fd5b5051919050565b818103818111156103bf576103bf611448565b6000600182016114d5576114d5611448565b5060010190565b6000602082840312156114ee57600080fd5b81516112738161124156fea264697066735822122043d6b8c17fe73b71ca2e193c98b11737f830280ab79ee556918136b949aba7db64736f6c63430008170033",
  "linkReferences": {},
  "deployedLinkReferences": {}
}