{
  "_format": "hh-sol-artifact-1",
  "contractName": "ReentrancyMock",
  "sourceName": "contracts/openzeppelin/mock/ReentrancyMock.sol",
  "abi": [
    {
      "inputs": [
        {
          "internalType": "bool",
          "name": "_initialize",
          "type": "bool"
        }
      ],
      "stateMutability": "nonpayable",
      "type": "constructor"
    },
    {
      "inputs": [],
      "name": "callback",
      "outputs": [],
      "stateMutability": "nonpayable",
      "type": "function"
    },
    {
      "inputs": [
        {
          "internalType": "contract ReentrancyAttackMock",
          "name": "attacker",
          "type": "address"
        }
      ],
      "name": "countAndCall",
      "outputs": [],
      "stateMutability": "nonpayable",
      "type": "function"
    },
    {
      "inputs": [
        {
          "internalType": "uint256",
          "name": "n",
          "type": "uint256"
        }
      ],
      "name": "countLocalRecursive",
      "outputs": [],
      "stateMutability": "nonpayable",
      "type": "function"
    },
    {
      "inputs": [
        {
          "internalType": "uint256",
          "name": "n",
          "type": "uint256"
        }
      ],
      "name": "countThisRecursive",
      "outputs": [],
      "stateMutability": "nonpayable",
      "type": "function"
    },
    {
      "inputs": [],
      "name": "counter",
      "outputs": [
        {
          "internalType": "uint256",
          "name": "",
          "type": "uint256"
        }
      ],
      "stateMutability": "view",
      "type": "function"
    },
    {
      "inputs": [],
      "name": "guardedCheckEntered",
      "outputs": [],
      "stateMutability": "nonpayable",
      "type": "function"
    },
    {
      "inputs": [],
      "name": "unguardedCheckNotEntered",
      "outputs": [],
      "stateMutability": "view",
      "type": "function"
    }
  ],
  "bytecode": "0x608060405234801561001057600080fd5b5060405161057638038061057683398101604081905261002f91610068565b801561005e5761005e60017f0cd2207518cd3e5213e2c6dbe63d55b60aa893c194a427b7d7f1600408fd5bde55565b5060008055610091565b60006020828403121561007a57600080fd5b8151801515811461008a57600080fd5b9392505050565b6104d6806100a06000396000f3fe608060405234801561001057600080fd5b506004361061007d5760003560e01c806396ffa6901161005b57806396ffa690146100ba578063a408f312146100cd578063b672ad8b146100d5578063cecc95a7146100e857600080fd5b8063083b27321461008257806361bc221a1461008c5780638c5344fa146100a7575b600080fd5b61008a6100f0565b005b61009560005481565b60405190815260200160405180910390f35b61008a6100b53660046103c6565b610119565b61008a6100c83660046103c6565b610238565b61008a61025c565b61008a6100e33660046103df565b610280565b61008a61032a565b6100f8610346565b6101006103ad565b610117600160008051602061048183398151915255565b565b610121610346565b801561021e5761012f6103ad565b60003061013d600184610425565b60405160240161014f91815260200190565b60408051601f198184030181529181526020820180516001600160e01b0316634629a27d60e11b17905251610184919061043e565b6000604051808303816000865af19150503d80600081146101c1576040519150601f19603f3d011682016040523d82523d6000602084013e6101c6565b606091505b505090508061021c5760405162461bcd60e51b815260206004820152601b60248201527f5265656e7472616e63794d6f636b3a206661696c65642063616c6c000000000060448201526064015b60405180910390fd5b505b610235600160008051602061048183398151915255565b50565b610240610346565b801561021e5761024e6103ad565b61021e6100c8600183610425565b610264610346565b6000805160206104818339815191525460021461010057600080fd5b610288610346565b6102906103ad565b604051630a2df1ed60e01b815263041d939960e11b60048201527f083b2732f78169bfaad6b407fa338cc97d697ed69d3915a18239cc111d51a402906001600160a01b03831690630a2df1ed90602401600060405180830381600087803b1580156102fa57600080fd5b505af115801561030e573d6000803e3d6000fd5b5050505050610235600160008051602061048183398151915255565b6000805160206104818339815191525460020361011757600080fd5b6000805160206104818339815191528054600119016103a75760405162461bcd60e51b815260206004820152601f60248201527f5265656e7472616e637947756172643a207265656e7472616e742063616c6c006044820152606401610213565b60029055565b60016000808282546103bf919061046d565b9091555050565b6000602082840312156103d857600080fd5b5035919050565b6000602082840312156103f157600080fd5b81356001600160a01b038116811461040857600080fd5b9392505050565b634e487b7160e01b600052601160045260246000fd5b818103818111156104385761043861040f565b92915050565b6000825160005b8181101561045f5760208186018101518583015201610445565b506000920191825250919050565b808201808211156104385761043861040f56fe0cd2207518cd3e5213e2c6dbe63d55b60aa893c194a427b7d7f1600408fd5bdea26469706673582212202505aa07368412e7a3c1abefd7d4eb2d091fb661968bcb47ca5ceff3f30295ed64736f6c63430008170033",
  "linkReferences": {},
  "deployedLinkReferences": {}
}