{
  "_format": "hh-sol-artifact-1",
  "contractName": "ReentrancyMock",
  "sourceName": "contracts/openzeppelin/mock/ReentrancyMock.sol",
  "abi": [
    {
      "inputs": [
        {
          "internalType": "bool",
          "name": "_initialize",
          "type": "bool"
        }
      ],
      "stateMutability": "nonpayable",
      "type": "constructor"
    },
    {
      "inputs": [],
      "name": "callback",
      "outputs": [],
      "stateMutability": "nonpayable",
      "type": "function"
    },
    {
      "inputs": [
        {
          "internalType": "contract ReentrancyAttackMock",
          "name": "attacker",
          "type": "address"
        }
      ],
      "name": "countAndCall",
      "outputs": [],
      "stateMutability": "nonpayable",
      "type": "function"
    },
    {
      "inputs": [
        {
          "internalType": "uint256",
          "name": "n",
          "type": "uint256"
        }
      ],
      "name": "countLocalRecursive",
      "outputs": [],
      "stateMutability": "nonpayable",
      "type": "function"
    },
    {
      "inputs": [
        {
          "internalType": "uint256",
          "name": "n",
          "type": "uint256"
        }
      ],
      "name": "countThisRecursive",
      "outputs": [],
      "stateMutability": "nonpayable",
      "type": "function"
    },
    {
      "inputs": [],
      "name": "counter",
      "outputs": [
        {
          "internalType": "uint256",
          "name": "",
          "type": "uint256"
        }
      ],
      "stateMutability": "view",
      "type": "function"
    },
    {
      "inputs": [],
      "name": "guardedCheckEntered",
      "outputs": [],
      "stateMutability": "nonpayable",
      "type": "function"
    },
    {
      "inputs": [],
      "name": "unguardedCheckNotEntered",
      "outputs": [],
      "stateMutability": "view",
      "type": "function"
    },
    {
      "inputs": [],
      "name": "unguardedMethodThatShouldFail",
      "outputs": [],
      "stateMutability": "nonpayable",
      "type": "function"
    }
  ],
  "bytecode": "0x608060405234801561001057600080fd5b5060405161062238038061062283398101604081905261002f91610072565b801561003d5761003d610047565b506000805561009b565b61007060017f0cd2207518cd3e5213e2c6dbe63d55b60aa893c194a427b7d7f1600408fd5bde55565b565b60006020828403121561008457600080fd5b8151801515811461009457600080fd5b9392505050565b610578806100aa6000396000f3fe608060405234801561001057600080fd5b50600436106100885760003560e01c806396ffa6901161005b57806396ffa690146100cd578063a408f312146100e0578063b672ad8b146100e8578063cecc95a7146100fb57600080fd5b8063083b27321461008d57806361bc221a146100975780636eea204a146100b25780638c5344fa146100ba575b600080fd5b610095610103565b005b6100a060005481565b60405190815260200160405180910390f35b610095610134565b6100956100c8366004610468565b610144565b6100956100db366004610468565b61026b565b610095610297565b6100956100f6366004610481565b6102bb565b610095610365565b61010b610381565b6101136103e8565b61011b6103f0565b610132600160008051602061052383398151915255565b565b61013c6103e8565b6101326103f0565b61014c610381565b6101546103e8565b8015610251576101626103f0565b6000306101706001846104c7565b60405160240161018291815260200190565b60408051601f198184030181529181526020820180516001600160e01b0316634629a27d60e11b179052516101b791906104e0565b6000604051808303816000865af19150503d80600081146101f4576040519150601f19603f3d011682016040523d82523d6000602084013e6101f9565b606091505b505090508061024f5760405162461bcd60e51b815260206004820152601b60248201527f5265656e7472616e63794d6f636b3a206661696c65642063616c6c000000000060448201526064015b60405180910390fd5b505b610268600160008051602061052383398151915255565b50565b610273610381565b61027b6103e8565b8015610251576102896103f0565b6102516100db6001836104c7565b61029f610381565b6000805160206105238339815191525460021461011b57600080fd5b6102c3610381565b6102cb6103f0565b604051630a2df1ed60e01b815263041d939960e11b60048201527f083b2732f78169bfaad6b407fa338cc97d697ed69d3915a18239cc111d51a402906001600160a01b03831690630a2df1ed90602401600060405180830381600087803b15801561033557600080fd5b505af1158015610349573d6000803e3d6000fd5b5050505050610268600160008051602061052383398151915255565b6000805160206105238339815191525460020361013257600080fd5b6000805160206105238339815191528054600119016103e25760405162461bcd60e51b815260206004820152601f60248201527f5265656e7472616e637947756172643a207265656e7472616e742063616c6c006044820152606401610246565b60029055565b610132610409565b6001600080828254610402919061050f565b9091555050565b600080516020610523833981519152546002146101325760405162461bcd60e51b815260206004820152601f60248201527f5265656e7472616e637947756172643a206775617264207265717569726564006044820152606401610246565b60006020828403121561047a57600080fd5b5035919050565b60006020828403121561049357600080fd5b81356001600160a01b03811681146104aa57600080fd5b9392505050565b634e487b7160e01b600052601160045260246000fd5b818103818111156104da576104da6104b1565b92915050565b6000825160005b8181101561050157602081860181015185830152016104e7565b506000920191825250919050565b808201808211156104da576104da6104b156fe0cd2207518cd3e5213e2c6dbe63d55b60aa893c194a427b7d7f1600408fd5bdea264697066735822122006681d307490988c5024fb7f4918509fb370f5bb301fbee2c03f592ae6a3f59364736f6c63430008170033",
  "linkReferences": {},
  "deployedLinkReferences": {}
}