{
  "_format": "hh-sol-artifact-1",
  "contractName": "AssetManager",
  "sourceName": "contracts/fasset/implementation/AssetManager.sol",
  "abi": [
    {
      "inputs": [
        {
          "components": [
            {
              "internalType": "address",
              "name": "assetManagerController",
              "type": "address"
            },
            {
              "internalType": "address",
              "name": "fAsset",
              "type": "address"
            },
            {
              "internalType": "address",
              "name": "agentVaultFactory",
              "type": "address"
            },
            {
              "internalType": "address",
              "name": "collateralPoolFactory",
              "type": "address"
            },
            {
              "internalType": "address",
              "name": "collateralPoolTokenFactory",
              "type": "address"
            },
            {
              "internalType": "string",
              "name": "poolTokenSuffix",
              "type": "string"
            },
            {
              "internalType": "address",
              "name": "whitelist",
              "type": "address"
            },
            {
              "internalType": "address",
              "name": "agentWhitelist",
              "type": "address"
            },
            {
              "internalType": "address",
              "name": "scProofVerifier",
              "type": "address"
            },
            {
              "internalType": "address",
              "name": "liquidationStrategy",
              "type": "address"
            },
            {
              "internalType": "address payable",
              "name": "burnAddress",
              "type": "address"
            },
            {
              "internalType": "address",
              "name": "priceReader",
              "type": "address"
            },
            {
              "internalType": "uint8",
              "name": "assetDecimals",
              "type": "uint8"
            },
            {
              "internalType": "uint8",
              "name": "assetMintingDecimals",
              "type": "uint8"
            },
            {
              "internalType": "bytes32",
              "name": "chainId",
              "type": "bytes32"
            },
            {
              "internalType": "uint32",
              "name": "averageBlockTimeMS",
              "type": "uint32"
            },
            {
              "internalType": "uint32",
              "name": "mintingPoolHoldingsRequiredBIPS",
              "type": "uint32"
            },
            {
              "internalType": "uint16",
              "name": "collateralReservationFeeBIPS",
              "type": "uint16"
            },
            {
              "internalType": "uint64",
              "name": "assetUnitUBA",
              "type": "uint64"
            },
            {
              "internalType": "uint64",
              "name": "assetMintingGranularityUBA",
              "type": "uint64"
            },
            {
              "internalType": "uint64",
              "name": "lotSizeAMG",
              "type": "uint64"
            },
            {
              "internalType": "uint16",
              "name": "minUnderlyingBackingBIPS",
              "type": "uint16"
            },
            {
              "internalType": "bool",
              "name": "requireEOAAddressProof",
              "type": "bool"
            },
            {
              "internalType": "uint64",
              "name": "mintingCapAMG",
              "type": "uint64"
            },
            {
              "internalType": "uint64",
              "name": "underlyingBlocksForPayment",
              "type": "uint64"
            },
            {
              "internalType": "uint64",
              "name": "underlyingSecondsForPayment",
              "type": "uint64"
            },
            {
              "internalType": "uint16",
              "name": "redemptionFeeBIPS",
              "type": "uint16"
            },
            {
              "internalType": "uint32",
              "name": "redemptionDefaultFactorVaultCollateralBIPS",
              "type": "uint32"
            },
            {
              "internalType": "uint32",
              "name": "redemptionDefaultFactorPoolBIPS",
              "type": "uint32"
            },
            {
              "internalType": "uint64",
              "name": "confirmationByOthersAfterSeconds",
              "type": "uint64"
            },
            {
              "internalType": "uint128",
              "name": "confirmationByOthersRewardUSD5",
              "type": "uint128"
            },
            {
              "internalType": "uint16",
              "name": "maxRedeemedTickets",
              "type": "uint16"
            },
            {
              "internalType": "uint16",
              "name": "paymentChallengeRewardBIPS",
              "type": "uint16"
            },
            {
              "internalType": "uint128",
              "name": "paymentChallengeRewardUSD5",
              "type": "uint128"
            },
            {
              "internalType": "uint64",
              "name": "withdrawalWaitMinSeconds",
              "type": "uint64"
            },
            {
              "internalType": "uint64",
              "name": "maxTrustedPriceAgeSeconds",
              "type": "uint64"
            },
            {
              "internalType": "uint64",
              "name": "ccbTimeSeconds",
              "type": "uint64"
            },
            {
              "internalType": "uint64",
              "name": "attestationWindowSeconds",
              "type": "uint64"
            },
            {
              "internalType": "uint64",
              "name": "minUpdateRepeatTimeSeconds",
              "type": "uint64"
            },
            {
              "internalType": "uint64",
              "name": "buybackCollateralFactorBIPS",
              "type": "uint64"
            },
            {
              "internalType": "uint64",
              "name": "announcedUnderlyingConfirmationMinSeconds",
              "type": "uint64"
            },
            {
              "internalType": "uint64",
              "name": "tokenInvalidationTimeMinSeconds",
              "type": "uint64"
            },
            {
              "internalType": "uint32",
              "name": "vaultCollateralBuyForFlareFactorBIPS",
              "type": "uint32"
            },
            {
              "internalType": "uint64",
              "name": "agentExitAvailableTimelockSeconds",
              "type": "uint64"
            },
            {
              "internalType": "uint64",
              "name": "agentFeeChangeTimelockSeconds",
              "type": "uint64"
            },
            {
              "internalType": "uint64",
              "name": "agentMintingCRChangeTimelockSeconds",
              "type": "uint64"
            },
            {
              "internalType": "uint64",
              "name": "poolExitAndTopupChangeTimelockSeconds",
              "type": "uint64"
            },
            {
              "internalType": "uint64",
              "name": "agentTimelockedOperationWindowSeconds",
              "type": "uint64"
            },
            {
              "internalType": "uint32",
              "name": "collateralPoolTokenTimelockSeconds",
              "type": "uint32"
            }
          ],
          "internalType": "struct AssetManagerSettings.Data",
          "name": "_settings",
          "type": "tuple"
        },
        {
          "components": [
            {
              "internalType": "enum CollateralType.Class",
              "name": "collateralClass",
              "type": "uint8"
            },
            {
              "internalType": "contract IERC20",
              "name": "token",
              "type": "address"
            },
            {
              "internalType": "uint256",
              "name": "decimals",
              "type": "uint256"
            },
            {
              "internalType": "uint256",
              "name": "validUntil",
              "type": "uint256"
            },
            {
              "internalType": "bool",
              "name": "directPricePair",
              "type": "bool"
            },
            {
              "internalType": "string",
              "name": "assetFtsoSymbol",
              "type": "string"
            },
            {
              "internalType": "string",
              "name": "tokenFtsoSymbol",
              "type": "string"
            },
            {
              "internalType": "uint256",
              "name": "minCollateralRatioBIPS",
              "type": "uint256"
            },
            {
              "internalType": "uint256",
              "name": "ccbMinCollateralRatioBIPS",
              "type": "uint256"
            },
            {
              "internalType": "uint256",
              "name": "safetyMinCollateralRatioBIPS",
              "type": "uint256"
            }
          ],
          "internalType": "struct CollateralType.Data[]",
          "name": "_initialCollateralTypes",
          "type": "tuple[]"
        },
        {
          "internalType": "bytes",
          "name": "_initialLiquidationSettings",
          "type": "bytes"
        }
      ],
      "stateMutability": "nonpayable",
      "type": "constructor"
    },
    {
      "anonymous": false,
      "inputs": [
        {
          "indexed": true,
          "internalType": "address",
          "name": "agentVault",
          "type": "address"
        },
        {
          "indexed": false,
          "internalType": "uint256",
          "name": "feeBIPS",
          "type": "uint256"
        },
        {
          "indexed": false,
          "internalType": "uint256",
          "name": "mintingVaultCollateralRatioBIPS",
          "type": "uint256"
        },
        {
          "indexed": false,
          "internalType": "uint256",
          "name": "mintingPoolCollateralRatioBIPS",
          "type": "uint256"
        },
        {
          "indexed": false,
          "internalType": "uint256",
          "name": "freeCollateralLots",
          "type": "uint256"
        }
      ],
      "name": "AgentAvailable",
      "type": "event"
    },
    {
      "anonymous": false,
      "inputs": [
        {
          "indexed": true,
          "internalType": "address",
          "name": "agentVault",
          "type": "address"
        },
        {
          "indexed": false,
          "internalType": "uint8",
          "name": "collateralClass",
          "type": "uint8"
        },
        {
          "indexed": false,
          "internalType": "address",
          "name": "token",
          "type": "address"
        }
      ],
      "name": "AgentCollateralTypeChanged",
      "type": "event"
    },
    {
      "anonymous": false,
      "inputs": [
        {
          "indexed": true,
          "internalType": "address",
          "name": "agentVault",
          "type": "address"
        },
        {
          "indexed": false,
          "internalType": "uint256",
          "name": "destroyAllowedAt",
          "type": "uint256"
        }
      ],
      "name": "AgentDestroyAnnounced",
      "type": "event"
    },
    {
      "anonymous": false,
      "inputs": [
        {
          "indexed": true,
          "internalType": "address",
          "name": "agentVault",
          "type": "address"
        }
      ],
      "name": "AgentDestroyed",
      "type": "event"
    },
    {
      "anonymous": false,
      "inputs": [
        {
          "indexed": true,
          "internalType": "address",
          "name": "agentVault",
          "type": "address"
        },
        {
          "indexed": false,
          "internalType": "uint256",
          "name": "timestamp",
          "type": "uint256"
        }
      ],
      "name": "AgentInCCB",
      "type": "event"
    },
    {
      "anonymous": false,
      "inputs": [
        {
          "indexed": true,
          "internalType": "address",
          "name": "agentVault",
          "type": "address"
        },
        {
          "indexed": false,
          "internalType": "string",
          "name": "name",
          "type": "string"
        },
        {
          "indexed": false,
          "internalType": "uint256",
          "name": "value",
          "type": "uint256"
        },
        {
          "indexed": false,
          "internalType": "uint256",
          "name": "validAt",
          "type": "uint256"
        }
      ],
      "name": "AgentSettingChangeAnnounced",
      "type": "event"
    },
    {
      "anonymous": false,
      "inputs": [
        {
          "indexed": true,
          "internalType": "address",
          "name": "agentVault",
          "type": "address"
        },
        {
          "indexed": false,
          "internalType": "string",
          "name": "name",
          "type": "string"
        },
        {
          "indexed": false,
          "internalType": "uint256",
          "name": "value",
          "type": "uint256"
        }
      ],
      "name": "AgentSettingChanged",
      "type": "event"
    },
    {
      "anonymous": false,
      "inputs": [
        {
          "indexed": true,
          "internalType": "address",
          "name": "owner",
          "type": "address"
        },
        {
          "indexed": false,
          "internalType": "address",
          "name": "agentVault",
          "type": "address"
        },
        {
          "indexed": false,
          "internalType": "address",
          "name": "collateralPool",
          "type": "address"
        },
        {
          "indexed": false,
          "internalType": "string",
          "name": "underlyingAddress",
          "type": "string"
        },
        {
          "indexed": false,
          "internalType": "address",
          "name": "vaultCollateralToken",
          "type": "address"
        },
        {
          "indexed": false,
          "internalType": "uint256",
          "name": "feeBIPS",
          "type": "uint256"
        },
        {
          "indexed": false,
          "internalType": "uint256",
          "name": "poolFeeShareBIPS",
          "type": "uint256"
        },
        {
          "indexed": false,
          "internalType": "uint256",
          "name": "mintingVaultCollateralRatioBIPS",
          "type": "uint256"
        },
        {
          "indexed": false,
          "internalType": "uint256",
          "name": "mintingPoolCollateralRatioBIPS",
          "type": "uint256"
        },
        {
          "indexed": false,
          "internalType": "uint256",
          "name": "buyFAssetByAgentFactorBIPS",
          "type": "uint256"
        },
        {
          "indexed": false,
          "internalType": "uint256",
          "name": "poolExitCollateralRatioBIPS",
          "type": "uint256"
        },
        {
          "indexed": false,
          "internalType": "uint256",
          "name": "poolTopupCollateralRatioBIPS",
          "type": "uint256"
        },
        {
          "indexed": false,
          "internalType": "uint256",
          "name": "poolTopupTokenPriceFactorBIPS",
          "type": "uint256"
        }
      ],
      "name": "AgentVaultCreated",
      "type": "event"
    },
    {
      "anonymous": false,
      "inputs": [
        {
          "indexed": true,
          "internalType": "address",
          "name": "agentVault",
          "type": "address"
        },
        {
          "indexed": false,
          "internalType": "uint256",
          "name": "exitAllowedAt",
          "type": "uint256"
        }
      ],
      "name": "AvailableAgentExitAnnounced",
      "type": "event"
    },
    {
      "anonymous": false,
      "inputs": [
        {
          "indexed": true,
          "internalType": "address",
          "name": "agentVault",
          "type": "address"
        }
      ],
      "name": "AvailableAgentExited",
      "type": "event"
    },
    {
      "anonymous": false,
      "inputs": [
        {
          "indexed": false,
          "internalType": "uint8",
          "name": "collateralClass",
          "type": "uint8"
        },
        {
          "indexed": false,
          "internalType": "address",
          "name": "collateralToken",
          "type": "address"
        },
        {
          "indexed": false,
          "internalType": "uint256",
          "name": "minCollateralRatioBIPS",
          "type": "uint256"
        },
        {
          "indexed": false,
          "internalType": "uint256",
          "name": "ccbMinCollateralRatioBIPS",
          "type": "uint256"
        },
        {
          "indexed": false,
          "internalType": "uint256",
          "name": "safetyMinCollateralRatioBIPS",
          "type": "uint256"
        }
      ],
      "name": "CollateralRatiosChanged",
      "type": "event"
    },
    {
      "anonymous": false,
      "inputs": [
        {
          "indexed": true,
          "internalType": "address",
          "name": "agentVault",
          "type": "address"
        },
        {
          "indexed": true,
          "internalType": "address",
          "name": "minter",
          "type": "address"
        },
        {
          "indexed": false,
          "internalType": "uint256",
          "name": "collateralReservationId",
          "type": "uint256"
        },
        {
          "indexed": false,
          "internalType": "uint256",
          "name": "reservedAmountUBA",
          "type": "uint256"
        }
      ],
      "name": "CollateralReservationDeleted",
      "type": "event"
    },
    {
      "anonymous": false,
      "inputs": [
        {
          "indexed": true,
          "internalType": "address",
          "name": "agentVault",
          "type": "address"
        },
        {
          "indexed": true,
          "internalType": "address",
          "name": "minter",
          "type": "address"
        },
        {
          "indexed": false,
          "internalType": "uint256",
          "name": "collateralReservationId",
          "type": "uint256"
        },
        {
          "indexed": false,
          "internalType": "uint256",
          "name": "valueUBA",
          "type": "uint256"
        },
        {
          "indexed": false,
          "internalType": "uint256",
          "name": "feeUBA",
          "type": "uint256"
        },
        {
          "indexed": false,
          "internalType": "uint256",
          "name": "firstUnderlyingBlock",
          "type": "uint256"
        },
        {
          "indexed": false,
          "internalType": "uint256",
          "name": "lastUnderlyingBlock",
          "type": "uint256"
        },
        {
          "indexed": false,
          "internalType": "uint256",
          "name": "lastUnderlyingTimestamp",
          "type": "uint256"
        },
        {
          "indexed": false,
          "internalType": "string",
          "name": "paymentAddress",
          "type": "string"
        },
        {
          "indexed": false,
          "internalType": "bytes32",
          "name": "paymentReference",
          "type": "bytes32"
        }
      ],
      "name": "CollateralReserved",
      "type": "event"
    },
    {
      "anonymous": false,
      "inputs": [
        {
          "indexed": false,
          "internalType": "uint8",
          "name": "collateralClass",
          "type": "uint8"
        },
        {
          "indexed": false,
          "internalType": "address",
          "name": "token",
          "type": "address"
        },
        {
          "indexed": false,
          "internalType": "uint256",
          "name": "decimals",
          "type": "uint256"
        },
        {
          "indexed": false,
          "internalType": "bool",
          "name": "directPricePair",
          "type": "bool"
        },
        {
          "indexed": false,
          "internalType": "string",
          "name": "assetFtsoSymbol",
          "type": "string"
        },
        {
          "indexed": false,
          "internalType": "string",
          "name": "tokenFtsoSymbol",
          "type": "string"
        },
        {
          "indexed": false,
          "internalType": "uint256",
          "name": "minCollateralRatioBIPS",
          "type": "uint256"
        },
        {
          "indexed": false,
          "internalType": "uint256",
          "name": "ccbMinCollateralRatioBIPS",
          "type": "uint256"
        },
        {
          "indexed": false,
          "internalType": "uint256",
          "name": "safetyMinCollateralRatioBIPS",
          "type": "uint256"
        }
      ],
      "name": "CollateralTypeAdded",
      "type": "event"
    },
    {
      "anonymous": false,
      "inputs": [
        {
          "indexed": false,
          "internalType": "uint8",
          "name": "collateralClass",
          "type": "uint8"
        },
        {
          "indexed": false,
          "internalType": "address",
          "name": "collateralToken",
          "type": "address"
        },
        {
          "indexed": false,
          "internalType": "uint256",
          "name": "validUntil",
          "type": "uint256"
        }
      ],
      "name": "CollateralTypeDeprecated",
      "type": "event"
    },
    {
      "anonymous": false,
      "inputs": [
        {
          "indexed": false,
          "internalType": "string",
          "name": "name",
          "type": "string"
        },
        {
          "indexed": false,
          "internalType": "address",
          "name": "value",
          "type": "address"
        }
      ],
      "name": "ContractChanged",
      "type": "event"
    },
    {
      "anonymous": false,
      "inputs": [
        {
          "indexed": false,
          "internalType": "uint256",
          "name": "underlyingBlockNumber",
          "type": "uint256"
        },
        {
          "indexed": false,
          "internalType": "uint256",
          "name": "underlyingBlockTimestamp",
          "type": "uint256"
        },
        {
          "indexed": false,
          "internalType": "uint256",
          "name": "updatedAt",
          "type": "uint256"
        }
      ],
      "name": "CurrentUnderlyingBlockUpdated",
      "type": "event"
    },
    {
      "anonymous": false,
      "inputs": [
        {
          "indexed": true,
          "internalType": "address",
          "name": "agentVault",
          "type": "address"
        },
        {
          "indexed": false,
          "internalType": "bytes32",
          "name": "transactionHash1",
          "type": "bytes32"
        },
        {
          "indexed": false,
          "internalType": "bytes32",
          "name": "transactionHash2",
          "type": "bytes32"
        }
      ],
      "name": "DuplicatePaymentConfirmed",
      "type": "event"
    },
    {
      "anonymous": false,
      "inputs": [
        {
          "indexed": true,
          "internalType": "address",
          "name": "agentVault",
          "type": "address"
        },
        {
          "indexed": false,
          "internalType": "uint256",
          "name": "dustUBA",
          "type": "uint256"
        }
      ],
      "name": "DustChanged",
      "type": "event"
    },
    {
      "anonymous": false,
      "inputs": [
        {
          "indexed": true,
          "internalType": "address",
          "name": "agentVault",
          "type": "address"
        },
        {
          "indexed": false,
          "internalType": "uint256",
          "name": "redemptionTicketId",
          "type": "uint256"
        },
        {
          "indexed": false,
          "internalType": "uint256",
          "name": "valueUBA",
          "type": "uint256"
        }
      ],
      "name": "DustConvertedToTicket",
      "type": "event"
    },
    {
      "anonymous": false,
      "inputs": [
        {
          "indexed": true,
          "internalType": "address",
          "name": "agentVault",
          "type": "address"
        },
        {
          "indexed": false,
          "internalType": "uint256",
          "name": "timestamp",
          "type": "uint256"
        }
      ],
      "name": "FullLiquidationStarted",
      "type": "event"
    },
    {
      "anonymous": false,
      "inputs": [
        {
          "indexed": true,
          "internalType": "address",
          "name": "agentVault",
          "type": "address"
        },
        {
          "indexed": false,
          "internalType": "bytes32",
          "name": "transactionHash",
          "type": "bytes32"
        }
      ],
      "name": "IllegalPaymentConfirmed",
      "type": "event"
    },
    {
      "anonymous": false,
      "inputs": [
        {
          "indexed": true,
          "internalType": "address",
          "name": "agentVault",
          "type": "address"
        }
      ],
      "name": "LiquidationEnded",
      "type": "event"
    },
    {
      "anonymous": false,
      "inputs": [
        {
          "indexed": true,
          "internalType": "address",
          "name": "agentVault",
          "type": "address"
        },
        {
          "indexed": true,
          "internalType": "address",
          "name": "liquidator",
          "type": "address"
        },
        {
          "indexed": false,
          "internalType": "uint256",
          "name": "valueUBA",
          "type": "uint256"
        }
      ],
      "name": "LiquidationPerformed",
      "type": "event"
    },
    {
      "anonymous": false,
      "inputs": [
        {
          "indexed": true,
          "internalType": "address",
          "name": "agentVault",
          "type": "address"
        },
        {
          "indexed": false,
          "internalType": "uint256",
          "name": "timestamp",
          "type": "uint256"
        }
      ],
      "name": "LiquidationStarted",
      "type": "event"
    },
    {
      "anonymous": false,
      "inputs": [
        {
          "indexed": true,
          "internalType": "address",
          "name": "agentVault",
          "type": "address"
        },
        {
          "indexed": false,
          "internalType": "uint256",
          "name": "collateralReservationId",
          "type": "uint256"
        },
        {
          "indexed": false,
          "internalType": "uint256",
          "name": "redemptionTicketId",
          "type": "uint256"
        },
        {
          "indexed": false,
          "internalType": "uint256",
          "name": "mintedAmountUBA",
          "type": "uint256"
        },
        {
          "indexed": false,
          "internalType": "uint256",
          "name": "agentFeeUBA",
          "type": "uint256"
        },
        {
          "indexed": false,
          "internalType": "uint256",
          "name": "poolFeeUBA",
          "type": "uint256"
        }
      ],
      "name": "MintingExecuted",
      "type": "event"
    },
    {
      "anonymous": false,
      "inputs": [
        {
          "indexed": true,
          "internalType": "address",
          "name": "agentVault",
          "type": "address"
        },
        {
          "indexed": true,
          "internalType": "address",
          "name": "minter",
          "type": "address"
        },
        {
          "indexed": false,
          "internalType": "uint256",
          "name": "collateralReservationId",
          "type": "uint256"
        },
        {
          "indexed": false,
          "internalType": "uint256",
          "name": "reservedAmountUBA",
          "type": "uint256"
        }
      ],
      "name": "MintingPaymentDefault",
      "type": "event"
    },
    {
      "anonymous": false,
      "inputs": [
        {
          "indexed": true,
          "internalType": "address",
          "name": "agentVault",
          "type": "address"
        },
        {
          "indexed": false,
          "internalType": "uint256",
          "name": "amountWei",
          "type": "uint256"
        },
        {
          "indexed": false,
          "internalType": "uint256",
          "name": "withdrawalAllowedAt",
          "type": "uint256"
        }
      ],
      "name": "PoolTokenRedemptionAnnounced",
      "type": "event"
    },
    {
      "anonymous": false,
      "inputs": [
        {
          "indexed": true,
          "internalType": "address",
          "name": "agentVault",
          "type": "address"
        },
        {
          "indexed": true,
          "internalType": "address",
          "name": "redeemer",
          "type": "address"
        },
        {
          "indexed": false,
          "internalType": "uint256",
          "name": "redemptionAmountUBA",
          "type": "uint256"
        },
        {
          "indexed": false,
          "internalType": "uint256",
          "name": "paidVaultCollateralWei",
          "type": "uint256"
        }
      ],
      "name": "RedeemedInCollateral",
      "type": "event"
    },
    {
      "anonymous": false,
      "inputs": [
        {
          "indexed": true,
          "internalType": "address",
          "name": "agentVault",
          "type": "address"
        },
        {
          "indexed": true,
          "internalType": "address",
          "name": "redeemer",
          "type": "address"
        },
        {
          "indexed": false,
          "internalType": "uint256",
          "name": "redemptionAmountUBA",
          "type": "uint256"
        },
        {
          "indexed": false,
          "internalType": "uint256",
          "name": "redeemedVaultCollateralWei",
          "type": "uint256"
        },
        {
          "indexed": false,
          "internalType": "uint256",
          "name": "redeemedPoolCollateralWei",
          "type": "uint256"
        },
        {
          "indexed": false,
          "internalType": "uint64",
          "name": "requestId",
          "type": "uint64"
        }
      ],
      "name": "RedemptionDefault",
      "type": "event"
    },
    {
      "anonymous": false,
      "inputs": [
        {
          "indexed": true,
          "internalType": "address",
          "name": "agentVault",
          "type": "address"
        },
        {
          "indexed": true,
          "internalType": "address",
          "name": "redeemer",
          "type": "address"
        },
        {
          "indexed": false,
          "internalType": "bytes32",
          "name": "transactionHash",
          "type": "bytes32"
        },
        {
          "indexed": false,
          "internalType": "uint256",
          "name": "redemptionAmountUBA",
          "type": "uint256"
        },
        {
          "indexed": false,
          "internalType": "int256",
          "name": "spentUnderlyingUBA",
          "type": "int256"
        },
        {
          "indexed": false,
          "internalType": "uint64",
          "name": "requestId",
          "type": "uint64"
        }
      ],
      "name": "RedemptionPaymentBlocked",
      "type": "event"
    },
    {
      "anonymous": false,
      "inputs": [
        {
          "indexed": true,
          "internalType": "address",
          "name": "agentVault",
          "type": "address"
        },
        {
          "indexed": true,
          "internalType": "address",
          "name": "redeemer",
          "type": "address"
        },
        {
          "indexed": false,
          "internalType": "bytes32",
          "name": "transactionHash",
          "type": "bytes32"
        },
        {
          "indexed": false,
          "internalType": "int256",
          "name": "spentUnderlyingUBA",
          "type": "int256"
        },
        {
          "indexed": false,
          "internalType": "uint64",
          "name": "requestId",
          "type": "uint64"
        },
        {
          "indexed": false,
          "internalType": "string",
          "name": "failureReason",
          "type": "string"
        }
      ],
      "name": "RedemptionPaymentFailed",
      "type": "event"
    },
    {
      "anonymous": false,
      "inputs": [
        {
          "indexed": true,
          "internalType": "address",
          "name": "agentVault",
          "type": "address"
        },
        {
          "indexed": true,
          "internalType": "address",
          "name": "redeemer",
          "type": "address"
        },
        {
          "indexed": false,
          "internalType": "bytes32",
          "name": "transactionHash",
          "type": "bytes32"
        },
        {
          "indexed": false,
          "internalType": "uint256",
          "name": "redemptionAmountUBA",
          "type": "uint256"
        },
        {
          "indexed": false,
          "internalType": "int256",
          "name": "spentUnderlyingUBA",
          "type": "int256"
        },
        {
          "indexed": false,
          "internalType": "uint64",
          "name": "requestId",
          "type": "uint64"
        }
      ],
      "name": "RedemptionPerformed",
      "type": "event"
    },
    {
      "anonymous": false,
      "inputs": [
        {
          "indexed": true,
          "internalType": "address",
          "name": "agentVault",
          "type": "address"
        },
        {
          "indexed": true,
          "internalType": "address",
          "name": "redeemer",
          "type": "address"
        },
        {
          "indexed": false,
          "internalType": "uint256",
          "name": "redemptionAmountUBA",
          "type": "uint256"
        },
        {
          "indexed": false,
          "internalType": "uint64",
          "name": "requestId",
          "type": "uint64"
        }
      ],
      "name": "RedemptionRejected",
      "type": "event"
    },
    {
      "anonymous": false,
      "inputs": [
        {
          "indexed": true,
          "internalType": "address",
          "name": "redeemer",
          "type": "address"
        },
        {
          "indexed": false,
          "internalType": "uint256",
          "name": "remainingLots",
          "type": "uint256"
        }
      ],
      "name": "RedemptionRequestIncomplete",
      "type": "event"
    },
    {
      "anonymous": false,
      "inputs": [
        {
          "indexed": true,
          "internalType": "address",
          "name": "agentVault",
          "type": "address"
        },
        {
          "indexed": true,
          "internalType": "address",
          "name": "redeemer",
          "type": "address"
        },
        {
          "indexed": false,
          "internalType": "uint256",
          "name": "requestId",
          "type": "uint256"
        },
        {
          "indexed": false,
          "internalType": "string",
          "name": "paymentAddress",
          "type": "string"
        },
        {
          "indexed": false,
          "internalType": "uint256",
          "name": "valueUBA",
          "type": "uint256"
        },
        {
          "indexed": false,
          "internalType": "uint256",
          "name": "feeUBA",
          "type": "uint256"
        },
        {
          "indexed": false,
          "internalType": "uint256",
          "name": "firstUnderlyingBlock",
          "type": "uint256"
        },
        {
          "indexed": false,
          "internalType": "uint256",
          "name": "lastUnderlyingBlock",
          "type": "uint256"
        },
        {
          "indexed": false,
          "internalType": "uint256",
          "name": "lastUnderlyingTimestamp",
          "type": "uint256"
        },
        {
          "indexed": false,
          "internalType": "bytes32",
          "name": "paymentReference",
          "type": "bytes32"
        }
      ],
      "name": "RedemptionRequested",
      "type": "event"
    },
    {
      "anonymous": false,
      "inputs": [
        {
          "indexed": true,
          "internalType": "address",
          "name": "agentVault",
          "type": "address"
        },
        {
          "indexed": false,
          "internalType": "uint256",
          "name": "valueUBA",
          "type": "uint256"
        }
      ],
      "name": "SelfClose",
      "type": "event"
    },
    {
      "anonymous": false,
      "inputs": [
        {
          "indexed": false,
          "internalType": "string",
          "name": "name",
          "type": "string"
        },
        {
          "indexed": false,
          "internalType": "uint256[]",
          "name": "value",
          "type": "uint256[]"
        }
      ],
      "name": "SettingArrayChanged",
      "type": "event"
    },
    {
      "anonymous": false,
      "inputs": [
        {
          "indexed": false,
          "internalType": "string",
          "name": "name",
          "type": "string"
        },
        {
          "indexed": false,
          "internalType": "uint256",
          "name": "value",
          "type": "uint256"
        }
      ],
      "name": "SettingChanged",
      "type": "event"
    },
    {
      "anonymous": false,
      "inputs": [
        {
          "indexed": true,
          "internalType": "address",
          "name": "agentVault",
          "type": "address"
        },
        {
          "indexed": false,
          "internalType": "int256",
          "name": "underlyingBalanceUBA",
          "type": "int256"
        }
      ],
      "name": "UnderlyingBalanceChanged",
      "type": "event"
    },
    {
      "anonymous": false,
      "inputs": [
        {
          "indexed": true,
          "internalType": "address",
          "name": "agentVault",
          "type": "address"
        },
        {
          "indexed": false,
          "internalType": "int256",
          "name": "balance",
          "type": "int256"
        },
        {
          "indexed": false,
          "internalType": "uint256",
          "name": "requiredBalance",
          "type": "uint256"
        }
      ],
      "name": "UnderlyingBalanceTooLow",
      "type": "event"
    },
    {
      "anonymous": false,
      "inputs": [
        {
          "indexed": true,
          "internalType": "address",
          "name": "agentVault",
          "type": "address"
        },
        {
          "indexed": false,
          "internalType": "bytes32",
          "name": "transactionHash",
          "type": "bytes32"
        },
        {
          "indexed": false,
          "internalType": "uint256",
          "name": "depositedUBA",
          "type": "uint256"
        }
      ],
      "name": "UnderlyingBalanceToppedUp",
      "type": "event"
    },
    {
      "anonymous": false,
      "inputs": [
        {
          "indexed": true,
          "internalType": "address",
          "name": "agentVault",
          "type": "address"
        },
        {
          "indexed": false,
          "internalType": "uint64",
          "name": "announcementId",
          "type": "uint64"
        },
        {
          "indexed": false,
          "internalType": "bytes32",
          "name": "paymentReference",
          "type": "bytes32"
        }
      ],
      "name": "UnderlyingWithdrawalAnnounced",
      "type": "event"
    },
    {
      "anonymous": false,
      "inputs": [
        {
          "indexed": true,
          "internalType": "address",
          "name": "agentVault",
          "type": "address"
        },
        {
          "indexed": false,
          "internalType": "uint64",
          "name": "announcementId",
          "type": "uint64"
        }
      ],
      "name": "UnderlyingWithdrawalCancelled",
      "type": "event"
    },
    {
      "anonymous": false,
      "inputs": [
        {
          "indexed": true,
          "internalType": "address",
          "name": "agentVault",
          "type": "address"
        },
        {
          "indexed": false,
          "internalType": "int256",
          "name": "spentUBA",
          "type": "int256"
        },
        {
          "indexed": false,
          "internalType": "bytes32",
          "name": "transactionHash",
          "type": "bytes32"
        },
        {
          "indexed": false,
          "internalType": "uint64",
          "name": "announcementId",
          "type": "uint64"
        }
      ],
      "name": "UnderlyingWithdrawalConfirmed",
      "type": "event"
    },
    {
      "anonymous": false,
      "inputs": [
        {
          "indexed": true,
          "internalType": "address",
          "name": "agentVault",
          "type": "address"
        },
        {
          "indexed": false,
          "internalType": "uint256",
          "name": "amountWei",
          "type": "uint256"
        },
        {
          "indexed": false,
          "internalType": "uint256",
          "name": "withdrawalAllowedAt",
          "type": "uint256"
        }
      ],
      "name": "VaultCollateralWithdrawalAnnounced",
      "type": "event"
    },
    {
      "inputs": [
        {
          "components": [
            {
              "internalType": "enum CollateralType.Class",
              "name": "collateralClass",
              "type": "uint8"
            },
            {
              "internalType": "contract IERC20",
              "name": "token",
              "type": "address"
            },
            {
              "internalType": "uint256",
              "name": "decimals",
              "type": "uint256"
            },
            {
              "internalType": "uint256",
              "name": "validUntil",
              "type": "uint256"
            },
            {
              "internalType": "bool",
              "name": "directPricePair",
              "type": "bool"
            },
            {
              "internalType": "string",
              "name": "assetFtsoSymbol",
              "type": "string"
            },
            {
              "internalType": "string",
              "name": "tokenFtsoSymbol",
              "type": "string"
            },
            {
              "internalType": "uint256",
              "name": "minCollateralRatioBIPS",
              "type": "uint256"
            },
            {
              "internalType": "uint256",
              "name": "ccbMinCollateralRatioBIPS",
              "type": "uint256"
            },
            {
              "internalType": "uint256",
              "name": "safetyMinCollateralRatioBIPS",
              "type": "uint256"
            }
          ],
          "internalType": "struct CollateralType.Data",
          "name": "_data",
          "type": "tuple"
        }
      ],
      "name": "addCollateralType",
      "outputs": [],
      "stateMutability": "nonpayable",
      "type": "function"
    },
    {
      "inputs": [
        {
          "internalType": "address",
          "name": "_agentVault",
          "type": "address"
        },
        {
          "internalType": "uint256",
          "name": "_valueNATWei",
          "type": "uint256"
        }
      ],
      "name": "announceAgentPoolTokenRedemption",
      "outputs": [
        {
          "internalType": "uint256",
          "name": "_redemptionAllowedAt",
          "type": "uint256"
        }
      ],
      "stateMutability": "nonpayable",
      "type": "function"
    },
    {
      "inputs": [
        {
          "internalType": "address",
          "name": "_agentVault",
          "type": "address"
        },
        {
          "internalType": "string",
          "name": "_name",
          "type": "string"
        },
        {
          "internalType": "uint256",
          "name": "_value",
          "type": "uint256"
        }
      ],
      "name": "announceAgentSettingUpdate",
      "outputs": [
        {
          "internalType": "uint256",
          "name": "_updateAllowedAt",
          "type": "uint256"
        }
      ],
      "stateMutability": "nonpayable",
      "type": "function"
    },
    {
      "inputs": [
        {
          "internalType": "address",
          "name": "_agentVault",
          "type": "address"
        }
      ],
      "name": "announceDestroyAgent",
      "outputs": [
        {
          "internalType": "uint256",
          "name": "_destroyAllowedAt",
          "type": "uint256"
        }
      ],
      "stateMutability": "nonpayable",
      "type": "function"
    },
    {
      "inputs": [
        {
          "internalType": "address",
          "name": "_agentVault",
          "type": "address"
        }
      ],
      "name": "announceExitAvailableAgentList",
      "outputs": [
        {
          "internalType": "uint256",
          "name": "_exitAllowedAt",
          "type": "uint256"
        }
      ],
      "stateMutability": "nonpayable",
      "type": "function"
    },
    {
      "inputs": [
        {
          "internalType": "address",
          "name": "_agentVault",
          "type": "address"
        }
      ],
      "name": "announceUnderlyingWithdrawal",
      "outputs": [],
      "stateMutability": "nonpayable",
      "type": "function"
    },
    {
      "inputs": [
        {
          "internalType": "address",
          "name": "_agentVault",
          "type": "address"
        },
        {
          "internalType": "uint256",
          "name": "_valueNATWei",
          "type": "uint256"
        }
      ],
      "name": "announceVaultCollateralWithdrawal",
      "outputs": [
        {
          "internalType": "uint256",
          "name": "_withdrawalAllowedAt",
          "type": "uint256"
        }
      ],
      "stateMutability": "nonpayable",
      "type": "function"
    },
    {
      "inputs": [],
      "name": "assetManagerController",
      "outputs": [
        {
          "internalType": "address",
          "name": "",
          "type": "address"
        }
      ],
      "stateMutability": "view",
      "type": "function"
    },
    {
      "inputs": [],
      "name": "assetPriceNatWei",
      "outputs": [
        {
          "internalType": "uint256",
          "name": "_multiplier",
          "type": "uint256"
        },
        {
          "internalType": "uint256",
          "name": "_divisor",
          "type": "uint256"
        }
      ],
      "stateMutability": "view",
      "type": "function"
    },
    {
      "inputs": [
        {
          "internalType": "bool",
          "name": "attached",
          "type": "bool"
        }
      ],
      "name": "attachController",
      "outputs": [],
      "stateMutability": "nonpayable",
      "type": "function"
    },
    {
      "inputs": [
        {
          "internalType": "contract IERC20",
          "name": "_token",
          "type": "address"
        },
        {
          "internalType": "uint256",
          "name": "_valueNATWei",
          "type": "uint256"
        }
      ],
      "name": "beforeCollateralWithdrawal",
      "outputs": [],
      "stateMutability": "nonpayable",
      "type": "function"
    },
    {
      "inputs": [
        {
          "internalType": "address",
          "name": "_agentVault",
          "type": "address"
        }
      ],
      "name": "buybackAgentCollateral",
      "outputs": [],
      "stateMutability": "payable",
      "type": "function"
    },
    {
      "inputs": [
        {
          "internalType": "address",
          "name": "_agentVault",
          "type": "address"
        }
      ],
      "name": "cancelUnderlyingWithdrawal",
      "outputs": [],
      "stateMutability": "nonpayable",
      "type": "function"
    },
    {
      "inputs": [
        {
          "internalType": "uint256",
          "name": "_lots",
          "type": "uint256"
        }
      ],
      "name": "collateralReservationFee",
      "outputs": [
        {
          "internalType": "uint256",
          "name": "_reservationFeeNATWei",
          "type": "uint256"
        }
      ],
      "stateMutability": "view",
      "type": "function"
    },
    {
      "inputs": [
        {
          "components": [
            {
              "internalType": "bytes32[]",
              "name": "merkleProof",
              "type": "bytes32[]"
            },
            {
              "components": [
                {
                  "internalType": "bytes32",
                  "name": "attestationType",
                  "type": "bytes32"
                },
                {
                  "internalType": "bytes32",
                  "name": "sourceId",
                  "type": "bytes32"
                },
                {
                  "internalType": "uint64",
                  "name": "votingRound",
                  "type": "uint64"
                },
                {
                  "internalType": "uint64",
                  "name": "lowestUsedTimestamp",
                  "type": "uint64"
                },
                {
                  "components": [
                    {
                      "internalType": "bytes32",
                      "name": "transactionId",
                      "type": "bytes32"
                    },
                    {
                      "internalType": "uint256",
                      "name": "inUtxo",
                      "type": "uint256"
                    },
                    {
                      "internalType": "uint256",
                      "name": "utxo",
                      "type": "uint256"
                    }
                  ],
                  "internalType": "struct Payment.RequestBody",
                  "name": "requestBody",
                  "type": "tuple"
                },
                {
                  "components": [
                    {
                      "internalType": "uint64",
                      "name": "blockNumber",
                      "type": "uint64"
                    },
                    {
                      "internalType": "uint64",
                      "name": "blockTimestamp",
                      "type": "uint64"
                    },
                    {
                      "internalType": "bytes32",
                      "name": "sourceAddressHash",
                      "type": "bytes32"
                    },
                    {
                      "internalType": "bytes32",
                      "name": "receivingAddressHash",
                      "type": "bytes32"
                    },
                    {
                      "internalType": "bytes32",
                      "name": "intendedReceivingAddressHash",
                      "type": "bytes32"
                    },
                    {
                      "internalType": "int256",
                      "name": "spentAmount",
                      "type": "int256"
                    },
                    {
                      "internalType": "int256",
                      "name": "intendedSpentAmount",
                      "type": "int256"
                    },
                    {
                      "internalType": "int256",
                      "name": "receivedAmount",
                      "type": "int256"
                    },
                    {
                      "internalType": "int256",
                      "name": "intendedReceivedAmount",
                      "type": "int256"
                    },
                    {
                      "internalType": "bytes32",
                      "name": "standardPaymentReference",
                      "type": "bytes32"
                    },
                    {
                      "internalType": "bool",
                      "name": "oneToOne",
                      "type": "bool"
                    },
                    {
                      "internalType": "uint8",
                      "name": "status",
                      "type": "uint8"
                    }
                  ],
                  "internalType": "struct Payment.ResponseBody",
                  "name": "responseBody",
                  "type": "tuple"
                }
              ],
              "internalType": "struct Payment.Response",
              "name": "data",
              "type": "tuple"
            }
          ],
          "internalType": "struct Payment.Proof",
          "name": "_payment",
          "type": "tuple"
        },
        {
          "internalType": "uint256",
          "name": "_redemptionRequestId",
          "type": "uint256"
        }
      ],
      "name": "confirmRedemptionPayment",
      "outputs": [],
      "stateMutability": "nonpayable",
      "type": "function"
    },
    {
      "inputs": [
        {
          "components": [
            {
              "internalType": "bytes32[]",
              "name": "merkleProof",
              "type": "bytes32[]"
            },
            {
              "components": [
                {
                  "internalType": "bytes32",
                  "name": "attestationType",
                  "type": "bytes32"
                },
                {
                  "internalType": "bytes32",
                  "name": "sourceId",
                  "type": "bytes32"
                },
                {
                  "internalType": "uint64",
                  "name": "votingRound",
                  "type": "uint64"
                },
                {
                  "internalType": "uint64",
                  "name": "lowestUsedTimestamp",
                  "type": "uint64"
                },
                {
                  "components": [
                    {
                      "internalType": "bytes32",
                      "name": "transactionId",
                      "type": "bytes32"
                    },
                    {
                      "internalType": "uint256",
                      "name": "inUtxo",
                      "type": "uint256"
                    },
                    {
                      "internalType": "uint256",
                      "name": "utxo",
                      "type": "uint256"
                    }
                  ],
                  "internalType": "struct Payment.RequestBody",
                  "name": "requestBody",
                  "type": "tuple"
                },
                {
                  "components": [
                    {
                      "internalType": "uint64",
                      "name": "blockNumber",
                      "type": "uint64"
                    },
                    {
                      "internalType": "uint64",
                      "name": "blockTimestamp",
                      "type": "uint64"
                    },
                    {
                      "internalType": "bytes32",
                      "name": "sourceAddressHash",
                      "type": "bytes32"
                    },
                    {
                      "internalType": "bytes32",
                      "name": "receivingAddressHash",
                      "type": "bytes32"
                    },
                    {
                      "internalType": "bytes32",
                      "name": "intendedReceivingAddressHash",
                      "type": "bytes32"
                    },
                    {
                      "internalType": "int256",
                      "name": "spentAmount",
                      "type": "int256"
                    },
                    {
                      "internalType": "int256",
                      "name": "intendedSpentAmount",
                      "type": "int256"
                    },
                    {
                      "internalType": "int256",
                      "name": "receivedAmount",
                      "type": "int256"
                    },
                    {
                      "internalType": "int256",
                      "name": "intendedReceivedAmount",
                      "type": "int256"
                    },
                    {
                      "internalType": "bytes32",
                      "name": "standardPaymentReference",
                      "type": "bytes32"
                    },
                    {
                      "internalType": "bool",
                      "name": "oneToOne",
                      "type": "bool"
                    },
                    {
                      "internalType": "uint8",
                      "name": "status",
                      "type": "uint8"
                    }
                  ],
                  "internalType": "struct Payment.ResponseBody",
                  "name": "responseBody",
                  "type": "tuple"
                }
              ],
              "internalType": "struct Payment.Response",
              "name": "data",
              "type": "tuple"
            }
          ],
          "internalType": "struct Payment.Proof",
          "name": "_payment",
          "type": "tuple"
        },
        {
          "internalType": "address",
          "name": "_agentVault",
          "type": "address"
        }
      ],
      "name": "confirmTopupPayment",
      "outputs": [],
      "stateMutability": "nonpayable",
      "type": "function"
    },
    {
      "inputs": [
        {
          "components": [
            {
              "internalType": "bytes32[]",
              "name": "merkleProof",
              "type": "bytes32[]"
            },
            {
              "components": [
                {
                  "internalType": "bytes32",
                  "name": "attestationType",
                  "type": "bytes32"
                },
                {
                  "internalType": "bytes32",
                  "name": "sourceId",
                  "type": "bytes32"
                },
                {
                  "internalType": "uint64",
                  "name": "votingRound",
                  "type": "uint64"
                },
                {
                  "internalType": "uint64",
                  "name": "lowestUsedTimestamp",
                  "type": "uint64"
                },
                {
                  "components": [
                    {
                      "internalType": "bytes32",
                      "name": "transactionId",
                      "type": "bytes32"
                    },
                    {
                      "internalType": "uint256",
                      "name": "inUtxo",
                      "type": "uint256"
                    },
                    {
                      "internalType": "uint256",
                      "name": "utxo",
                      "type": "uint256"
                    }
                  ],
                  "internalType": "struct Payment.RequestBody",
                  "name": "requestBody",
                  "type": "tuple"
                },
                {
                  "components": [
                    {
                      "internalType": "uint64",
                      "name": "blockNumber",
                      "type": "uint64"
                    },
                    {
                      "internalType": "uint64",
                      "name": "blockTimestamp",
                      "type": "uint64"
                    },
                    {
                      "internalType": "bytes32",
                      "name": "sourceAddressHash",
                      "type": "bytes32"
                    },
                    {
                      "internalType": "bytes32",
                      "name": "receivingAddressHash",
                      "type": "bytes32"
                    },
                    {
                      "internalType": "bytes32",
                      "name": "intendedReceivingAddressHash",
                      "type": "bytes32"
                    },
                    {
                      "internalType": "int256",
                      "name": "spentAmount",
                      "type": "int256"
                    },
                    {
                      "internalType": "int256",
                      "name": "intendedSpentAmount",
                      "type": "int256"
                    },
                    {
                      "internalType": "int256",
                      "name": "receivedAmount",
                      "type": "int256"
                    },
                    {
                      "internalType": "int256",
                      "name": "intendedReceivedAmount",
                      "type": "int256"
                    },
                    {
                      "internalType": "bytes32",
                      "name": "standardPaymentReference",
                      "type": "bytes32"
                    },
                    {
                      "internalType": "bool",
                      "name": "oneToOne",
                      "type": "bool"
                    },
                    {
                      "internalType": "uint8",
                      "name": "status",
                      "type": "uint8"
                    }
                  ],
                  "internalType": "struct Payment.ResponseBody",
                  "name": "responseBody",
                  "type": "tuple"
                }
              ],
              "internalType": "struct Payment.Response",
              "name": "data",
              "type": "tuple"
            }
          ],
          "internalType": "struct Payment.Proof",
          "name": "_payment",
          "type": "tuple"
        },
        {
          "internalType": "address",
          "name": "_agentVault",
          "type": "address"
        }
      ],
      "name": "confirmUnderlyingWithdrawal",
      "outputs": [],
      "stateMutability": "nonpayable",
      "type": "function"
    },
    {
      "inputs": [],
      "name": "controllerAttached",
      "outputs": [
        {
          "internalType": "bool",
          "name": "",
          "type": "bool"
        }
      ],
      "stateMutability": "view",
      "type": "function"
    },
    {
      "inputs": [
        {
          "internalType": "address",
          "name": "_agentVault",
          "type": "address"
        }
      ],
      "name": "convertDustToTicket",
      "outputs": [],
      "stateMutability": "nonpayable",
      "type": "function"
    },
    {
      "inputs": [
        {
          "components": [
            {
              "internalType": "bytes32[]",
              "name": "merkleProof",
              "type": "bytes32[]"
            },
            {
              "components": [
                {
                  "internalType": "bytes32",
                  "name": "attestationType",
                  "type": "bytes32"
                },
                {
                  "internalType": "bytes32",
                  "name": "sourceId",
                  "type": "bytes32"
                },
                {
                  "internalType": "uint64",
                  "name": "votingRound",
                  "type": "uint64"
                },
                {
                  "internalType": "uint64",
                  "name": "lowestUsedTimestamp",
                  "type": "uint64"
                },
                {
                  "components": [
                    {
                      "internalType": "string",
                      "name": "addressStr",
                      "type": "string"
                    }
                  ],
                  "internalType": "struct AddressValidity.RequestBody",
                  "name": "requestBody",
                  "type": "tuple"
                },
                {
                  "components": [
                    {
                      "internalType": "bool",
                      "name": "isValid",
                      "type": "bool"
                    },
                    {
                      "internalType": "string",
                      "name": "standardAddress",
                      "type": "string"
                    },
                    {
                      "internalType": "bytes32",
                      "name": "standardAddressHash",
                      "type": "bytes32"
                    }
                  ],
                  "internalType": "struct AddressValidity.ResponseBody",
                  "name": "responseBody",
                  "type": "tuple"
                }
              ],
              "internalType": "struct AddressValidity.Response",
              "name": "data",
              "type": "tuple"
            }
          ],
          "internalType": "struct AddressValidity.Proof",
          "name": "_addressProof",
          "type": "tuple"
        },
        {
          "components": [
            {
              "internalType": "contract IERC20",
              "name": "vaultCollateralToken",
              "type": "address"
            },
            {
              "internalType": "string",
              "name": "poolTokenSuffix",
              "type": "string"
            },
            {
              "internalType": "uint256",
              "name": "feeBIPS",
              "type": "uint256"
            },
            {
              "internalType": "uint256",
              "name": "poolFeeShareBIPS",
              "type": "uint256"
            },
            {
              "internalType": "uint256",
              "name": "mintingVaultCollateralRatioBIPS",
              "type": "uint256"
            },
            {
              "internalType": "uint256",
              "name": "mintingPoolCollateralRatioBIPS",
              "type": "uint256"
            },
            {
              "internalType": "uint256",
              "name": "buyFAssetByAgentFactorBIPS",
              "type": "uint256"
            },
            {
              "internalType": "uint256",
              "name": "poolExitCollateralRatioBIPS",
              "type": "uint256"
            },
            {
              "internalType": "uint256",
              "name": "poolTopupCollateralRatioBIPS",
              "type": "uint256"
            },
            {
              "internalType": "uint256",
              "name": "poolTopupTokenPriceFactorBIPS",
              "type": "uint256"
            }
          ],
          "internalType": "struct AgentSettings.Data",
          "name": "_settings",
          "type": "tuple"
        }
      ],
      "name": "createAgentVault",
      "outputs": [
        {
          "internalType": "address",
          "name": "_agentVault",
          "type": "address"
        }
      ],
      "stateMutability": "nonpayable",
      "type": "function"
    },
    {
      "inputs": [],
      "name": "currentUnderlyingBlock",
      "outputs": [
        {
          "internalType": "uint256",
          "name": "_blockNumber",
          "type": "uint256"
        },
        {
          "internalType": "uint256",
          "name": "_blockTimestamp",
          "type": "uint256"
        }
      ],
      "stateMutability": "view",
      "type": "function"
    },
    {
      "inputs": [
        {
          "internalType": "enum CollateralType.Class",
          "name": "_collateralClass",
          "type": "uint8"
        },
        {
          "internalType": "contract IERC20",
          "name": "_token",
          "type": "address"
        },
        {
          "internalType": "uint256",
          "name": "_invalidationTimeSec",
          "type": "uint256"
        }
      ],
      "name": "deprecateCollateralType",
      "outputs": [],
      "stateMutability": "nonpayable",
      "type": "function"
    },
    {
      "inputs": [
        {
          "internalType": "address",
          "name": "_agentVault",
          "type": "address"
        },
        {
          "internalType": "address payable",
          "name": "_recipient",
          "type": "address"
        }
      ],
      "name": "destroyAgent",
      "outputs": [],
      "stateMutability": "nonpayable",
      "type": "function"
    },
    {
      "inputs": [
        {
          "components": [
            {
              "internalType": "bytes32[]",
              "name": "merkleProof",
              "type": "bytes32[]"
            },
            {
              "components": [
                {
                  "internalType": "bytes32",
                  "name": "attestationType",
                  "type": "bytes32"
                },
                {
                  "internalType": "bytes32",
                  "name": "sourceId",
                  "type": "bytes32"
                },
                {
                  "internalType": "uint64",
                  "name": "votingRound",
                  "type": "uint64"
                },
                {
                  "internalType": "uint64",
                  "name": "lowestUsedTimestamp",
                  "type": "uint64"
                },
                {
                  "components": [
                    {
                      "internalType": "bytes32",
                      "name": "transactionId",
                      "type": "bytes32"
                    },
                    {
                      "internalType": "bytes32",
                      "name": "sourceAddressIndicator",
                      "type": "bytes32"
                    }
                  ],
                  "internalType": "struct BalanceDecreasingTransaction.RequestBody",
                  "name": "requestBody",
                  "type": "tuple"
                },
                {
                  "components": [
                    {
                      "internalType": "uint64",
                      "name": "blockNumber",
                      "type": "uint64"
                    },
                    {
                      "internalType": "uint64",
                      "name": "blockTimestamp",
                      "type": "uint64"
                    },
                    {
                      "internalType": "bytes32",
                      "name": "sourceAddressHash",
                      "type": "bytes32"
                    },
                    {
                      "internalType": "int256",
                      "name": "spentAmount",
                      "type": "int256"
                    },
                    {
                      "internalType": "bytes32",
                      "name": "standardPaymentReference",
                      "type": "bytes32"
                    }
                  ],
                  "internalType": "struct BalanceDecreasingTransaction.ResponseBody",
                  "name": "responseBody",
                  "type": "tuple"
                }
              ],
              "internalType": "struct BalanceDecreasingTransaction.Response",
              "name": "data",
              "type": "tuple"
            }
          ],
          "internalType": "struct BalanceDecreasingTransaction.Proof",
          "name": "_payment1",
          "type": "tuple"
        },
        {
          "components": [
            {
              "internalType": "bytes32[]",
              "name": "merkleProof",
              "type": "bytes32[]"
            },
            {
              "components": [
                {
                  "internalType": "bytes32",
                  "name": "attestationType",
                  "type": "bytes32"
                },
                {
                  "internalType": "bytes32",
                  "name": "sourceId",
                  "type": "bytes32"
                },
                {
                  "internalType": "uint64",
                  "name": "votingRound",
                  "type": "uint64"
                },
                {
                  "internalType": "uint64",
                  "name": "lowestUsedTimestamp",
                  "type": "uint64"
                },
                {
                  "components": [
                    {
                      "internalType": "bytes32",
                      "name": "transactionId",
                      "type": "bytes32"
                    },
                    {
                      "internalType": "bytes32",
                      "name": "sourceAddressIndicator",
                      "type": "bytes32"
                    }
                  ],
                  "internalType": "struct BalanceDecreasingTransaction.RequestBody",
                  "name": "requestBody",
                  "type": "tuple"
                },
                {
                  "components": [
                    {
                      "internalType": "uint64",
                      "name": "blockNumber",
                      "type": "uint64"
                    },
                    {
                      "internalType": "uint64",
                      "name": "blockTimestamp",
                      "type": "uint64"
                    },
                    {
                      "internalType": "bytes32",
                      "name": "sourceAddressHash",
                      "type": "bytes32"
                    },
                    {
                      "internalType": "int256",
                      "name": "spentAmount",
                      "type": "int256"
                    },
                    {
                      "internalType": "bytes32",
                      "name": "standardPaymentReference",
                      "type": "bytes32"
                    }
                  ],
                  "internalType": "struct BalanceDecreasingTransaction.ResponseBody",
                  "name": "responseBody",
                  "type": "tuple"
                }
              ],
              "internalType": "struct BalanceDecreasingTransaction.Response",
              "name": "data",
              "type": "tuple"
            }
          ],
          "internalType": "struct BalanceDecreasingTransaction.Proof",
          "name": "_payment2",
          "type": "tuple"
        },
        {
          "internalType": "address",
          "name": "_agentVault",
          "type": "address"
        }
      ],
      "name": "doublePaymentChallenge",
      "outputs": [],
      "stateMutability": "nonpayable",
      "type": "function"
    },
    {
      "inputs": [
        {
          "internalType": "address",
          "name": "_agentVault",
          "type": "address"
        }
      ],
      "name": "endLiquidation",
      "outputs": [],
      "stateMutability": "nonpayable",
      "type": "function"
    },
    {
      "inputs": [
        {
          "internalType": "address",
          "name": "_agentVault",
          "type": "address"
        },
        {
          "internalType": "string",
          "name": "_name",
          "type": "string"
        }
      ],
      "name": "executeAgentSettingUpdate",
      "outputs": [],
      "stateMutability": "nonpayable",
      "type": "function"
    },
    {
      "inputs": [
        {
          "components": [
            {
              "internalType": "bytes32[]",
              "name": "merkleProof",
              "type": "bytes32[]"
            },
            {
              "components": [
                {
                  "internalType": "bytes32",
                  "name": "attestationType",
                  "type": "bytes32"
                },
                {
                  "internalType": "bytes32",
                  "name": "sourceId",
                  "type": "bytes32"
                },
                {
                  "internalType": "uint64",
                  "name": "votingRound",
                  "type": "uint64"
                },
                {
                  "internalType": "uint64",
                  "name": "lowestUsedTimestamp",
                  "type": "uint64"
                },
                {
                  "components": [
                    {
                      "internalType": "bytes32",
                      "name": "transactionId",
                      "type": "bytes32"
                    },
                    {
                      "internalType": "uint256",
                      "name": "inUtxo",
                      "type": "uint256"
                    },
                    {
                      "internalType": "uint256",
                      "name": "utxo",
                      "type": "uint256"
                    }
                  ],
                  "internalType": "struct Payment.RequestBody",
                  "name": "requestBody",
                  "type": "tuple"
                },
                {
                  "components": [
                    {
                      "internalType": "uint64",
                      "name": "blockNumber",
                      "type": "uint64"
                    },
                    {
                      "internalType": "uint64",
                      "name": "blockTimestamp",
                      "type": "uint64"
                    },
                    {
                      "internalType": "bytes32",
                      "name": "sourceAddressHash",
                      "type": "bytes32"
                    },
                    {
                      "internalType": "bytes32",
                      "name": "receivingAddressHash",
                      "type": "bytes32"
                    },
                    {
                      "internalType": "bytes32",
                      "name": "intendedReceivingAddressHash",
                      "type": "bytes32"
                    },
                    {
                      "internalType": "int256",
                      "name": "spentAmount",
                      "type": "int256"
                    },
                    {
                      "internalType": "int256",
                      "name": "intendedSpentAmount",
                      "type": "int256"
                    },
                    {
                      "internalType": "int256",
                      "name": "receivedAmount",
                      "type": "int256"
                    },
                    {
                      "internalType": "int256",
                      "name": "intendedReceivedAmount",
                      "type": "int256"
                    },
                    {
                      "internalType": "bytes32",
                      "name": "standardPaymentReference",
                      "type": "bytes32"
                    },
                    {
                      "internalType": "bool",
                      "name": "oneToOne",
                      "type": "bool"
                    },
                    {
                      "internalType": "uint8",
                      "name": "status",
                      "type": "uint8"
                    }
                  ],
                  "internalType": "struct Payment.ResponseBody",
                  "name": "responseBody",
                  "type": "tuple"
                }
              ],
              "internalType": "struct Payment.Response",
              "name": "data",
              "type": "tuple"
            }
          ],
          "internalType": "struct Payment.Proof",
          "name": "_payment",
          "type": "tuple"
        },
        {
          "internalType": "uint256",
          "name": "_collateralReservationId",
          "type": "uint256"
        }
      ],
      "name": "executeMinting",
      "outputs": [],
      "stateMutability": "nonpayable",
      "type": "function"
    },
    {
      "inputs": [
        {
          "internalType": "address",
          "name": "_agentVault",
          "type": "address"
        }
      ],
      "name": "exitAvailableAgentList",
      "outputs": [],
      "stateMutability": "nonpayable",
      "type": "function"
    },
    {
      "inputs": [],
      "name": "fAsset",
      "outputs": [
        {
          "internalType": "contract IERC20",
          "name": "",
          "type": "address"
        }
      ],
      "stateMutability": "view",
      "type": "function"
    },
    {
      "inputs": [
        {
          "components": [
            {
              "internalType": "bytes32[]",
              "name": "merkleProof",
              "type": "bytes32[]"
            },
            {
              "components": [
                {
                  "internalType": "bytes32",
                  "name": "attestationType",
                  "type": "bytes32"
                },
                {
                  "internalType": "bytes32",
                  "name": "sourceId",
                  "type": "bytes32"
                },
                {
                  "internalType": "uint64",
                  "name": "votingRound",
                  "type": "uint64"
                },
                {
                  "internalType": "uint64",
                  "name": "lowestUsedTimestamp",
                  "type": "uint64"
                },
                {
                  "components": [
                    {
                      "internalType": "uint64",
                      "name": "blockNumber",
                      "type": "uint64"
                    },
                    {
                      "internalType": "uint64",
                      "name": "queryWindow",
                      "type": "uint64"
                    }
                  ],
                  "internalType": "struct ConfirmedBlockHeightExists.RequestBody",
                  "name": "requestBody",
                  "type": "tuple"
                },
                {
                  "components": [
                    {
                      "internalType": "uint64",
                      "name": "blockTimestamp",
                      "type": "uint64"
                    },
                    {
                      "internalType": "uint64",
                      "name": "numberOfConfirmations",
                      "type": "uint64"
                    },
                    {
                      "internalType": "uint64",
                      "name": "lowestQueryWindowBlockNumber",
                      "type": "uint64"
                    },
                    {
                      "internalType": "uint64",
                      "name": "lowestQueryWindowBlockTimestamp",
                      "type": "uint64"
                    }
                  ],
                  "internalType": "struct ConfirmedBlockHeightExists.ResponseBody",
                  "name": "responseBody",
                  "type": "tuple"
                }
              ],
              "internalType": "struct ConfirmedBlockHeightExists.Response",
              "name": "data",
              "type": "tuple"
            }
          ],
          "internalType": "struct ConfirmedBlockHeightExists.Proof",
          "name": "_proof",
          "type": "tuple"
        },
        {
          "internalType": "uint256",
          "name": "_redemptionRequestId",
          "type": "uint256"
        }
      ],
      "name": "finishRedemptionWithoutPayment",
      "outputs": [],
      "stateMutability": "nonpayable",
      "type": "function"
    },
    {
      "inputs": [
        {
          "components": [
            {
              "internalType": "bytes32[]",
              "name": "merkleProof",
              "type": "bytes32[]"
            },
            {
              "components": [
                {
                  "internalType": "bytes32",
                  "name": "attestationType",
                  "type": "bytes32"
                },
                {
                  "internalType": "bytes32",
                  "name": "sourceId",
                  "type": "bytes32"
                },
                {
                  "internalType": "uint64",
                  "name": "votingRound",
                  "type": "uint64"
                },
                {
                  "internalType": "uint64",
                  "name": "lowestUsedTimestamp",
                  "type": "uint64"
                },
                {
                  "components": [
                    {
                      "internalType": "bytes32",
                      "name": "transactionId",
                      "type": "bytes32"
                    },
                    {
                      "internalType": "bytes32",
                      "name": "sourceAddressIndicator",
                      "type": "bytes32"
                    }
                  ],
                  "internalType": "struct BalanceDecreasingTransaction.RequestBody",
                  "name": "requestBody",
                  "type": "tuple"
                },
                {
                  "components": [
                    {
                      "internalType": "uint64",
                      "name": "blockNumber",
                      "type": "uint64"
                    },
                    {
                      "internalType": "uint64",
                      "name": "blockTimestamp",
                      "type": "uint64"
                    },
                    {
                      "internalType": "bytes32",
                      "name": "sourceAddressHash",
                      "type": "bytes32"
                    },
                    {
                      "internalType": "int256",
                      "name": "spentAmount",
                      "type": "int256"
                    },
                    {
                      "internalType": "bytes32",
                      "name": "standardPaymentReference",
                      "type": "bytes32"
                    }
                  ],
                  "internalType": "struct BalanceDecreasingTransaction.ResponseBody",
                  "name": "responseBody",
                  "type": "tuple"
                }
              ],
              "internalType": "struct BalanceDecreasingTransaction.Response",
              "name": "data",
              "type": "tuple"
            }
          ],
          "internalType": "struct BalanceDecreasingTransaction.Proof[]",
          "name": "_payments",
          "type": "tuple[]"
        },
        {
          "internalType": "address",
          "name": "_agentVault",
          "type": "address"
        }
      ],
      "name": "freeBalanceNegativeChallenge",
      "outputs": [],
      "stateMutability": "nonpayable",
      "type": "function"
    },
    {
      "inputs": [
        {
          "internalType": "address",
          "name": "_agentVault",
          "type": "address"
        }
      ],
      "name": "getAgentInfo",
      "outputs": [
        {
          "components": [
            {
              "internalType": "enum AgentInfo.Status",
              "name": "status",
              "type": "uint8"
            },
            {
              "internalType": "address",
              "name": "ownerManagementAddress",
              "type": "address"
            },
            {
              "internalType": "address",
              "name": "ownerWorkAddress",
              "type": "address"
            },
            {
              "internalType": "address",
              "name": "collateralPool",
              "type": "address"
            },
            {
              "internalType": "string",
              "name": "underlyingAddressString",
              "type": "string"
            },
            {
              "internalType": "bool",
              "name": "publiclyAvailable",
              "type": "bool"
            },
            {
              "internalType": "uint256",
              "name": "feeBIPS",
              "type": "uint256"
            },
            {
              "internalType": "uint256",
              "name": "poolFeeShareBIPS",
              "type": "uint256"
            },
            {
              "internalType": "contract IERC20",
              "name": "vaultCollateralToken",
              "type": "address"
            },
            {
              "internalType": "uint256",
              "name": "mintingVaultCollateralRatioBIPS",
              "type": "uint256"
            },
            {
              "internalType": "uint256",
              "name": "mintingPoolCollateralRatioBIPS",
              "type": "uint256"
            },
            {
              "internalType": "uint256",
              "name": "freeCollateralLots",
              "type": "uint256"
            },
            {
              "internalType": "uint256",
              "name": "totalVaultCollateralWei",
              "type": "uint256"
            },
            {
              "internalType": "uint256",
              "name": "freeVaultCollateralWei",
              "type": "uint256"
            },
            {
              "internalType": "uint256",
              "name": "vaultCollateralRatioBIPS",
              "type": "uint256"
            },
            {
              "internalType": "uint256",
              "name": "totalPoolCollateralNATWei",
              "type": "uint256"
            },
            {
              "internalType": "uint256",
              "name": "freePoolCollateralNATWei",
              "type": "uint256"
            },
            {
              "internalType": "uint256",
              "name": "poolCollateralRatioBIPS",
              "type": "uint256"
            },
            {
              "internalType": "uint256",
              "name": "totalAgentPoolTokensWei",
              "type": "uint256"
            },
            {
              "internalType": "uint256",
              "name": "announcedVaultCollateralWithdrawalWei",
              "type": "uint256"
            },
            {
              "internalType": "uint256",
              "name": "announcedPoolTokensWithdrawalWei",
              "type": "uint256"
            },
            {
              "internalType": "uint256",
              "name": "freeAgentPoolTokensWei",
              "type": "uint256"
            },
            {
              "internalType": "uint256",
              "name": "mintedUBA",
              "type": "uint256"
            },
            {
              "internalType": "uint256",
              "name": "reservedUBA",
              "type": "uint256"
            },
            {
              "internalType": "uint256",
              "name": "redeemingUBA",
              "type": "uint256"
            },
            {
              "internalType": "uint256",
              "name": "poolRedeemingUBA",
              "type": "uint256"
            },
            {
              "internalType": "uint256",
              "name": "dustUBA",
              "type": "uint256"
            },
            {
              "internalType": "uint256",
              "name": "ccbStartTimestamp",
              "type": "uint256"
            },
            {
              "internalType": "uint256",
              "name": "liquidationStartTimestamp",
              "type": "uint256"
            },
            {
              "internalType": "uint256",
              "name": "maxLiquidationAmountUBA",
              "type": "uint256"
            },
            {
              "internalType": "uint256",
              "name": "liquidationPaymentFactorVaultBIPS",
              "type": "uint256"
            },
            {
              "internalType": "uint256",
              "name": "liquidationPaymentFactorPoolBIPS",
              "type": "uint256"
            },
            {
              "internalType": "int256",
              "name": "underlyingBalanceUBA",
              "type": "int256"
            },
            {
              "internalType": "uint256",
              "name": "requiredUnderlyingBalanceUBA",
              "type": "uint256"
            },
            {
              "internalType": "int256",
              "name": "freeUnderlyingBalanceUBA",
              "type": "int256"
            },
            {
              "internalType": "uint256",
              "name": "announcedUnderlyingWithdrawalId",
              "type": "uint256"
            },
            {
              "internalType": "uint256",
              "name": "buyFAssetByAgentFactorBIPS",
              "type": "uint256"
            },
            {
              "internalType": "uint256",
              "name": "poolExitCollateralRatioBIPS",
              "type": "uint256"
            },
            {
              "internalType": "uint256",
              "name": "poolTopupCollateralRatioBIPS",
              "type": "uint256"
            },
            {
              "internalType": "uint256",
              "name": "poolTopupTokenPriceFactorBIPS",
              "type": "uint256"
            }
          ],
          "internalType": "struct AgentInfo.Info",
          "name": "",
          "type": "tuple"
        }
      ],
      "stateMutability": "view",
      "type": "function"
    },
    {
      "inputs": [
        {
          "internalType": "address",
          "name": "_agentVault",
          "type": "address"
        }
      ],
      "name": "getAgentVaultOwner",
      "outputs": [
        {
          "internalType": "address",
          "name": "_ownerManagementAddress",
          "type": "address"
        },
        {
          "internalType": "address",
          "name": "_ownerWorkAddress",
          "type": "address"
        }
      ],
      "stateMutability": "view",
      "type": "function"
    },
    {
      "inputs": [
        {
          "internalType": "uint256",
          "name": "_start",
          "type": "uint256"
        },
        {
          "internalType": "uint256",
          "name": "_end",
          "type": "uint256"
        }
      ],
      "name": "getAllAgents",
      "outputs": [
        {
          "internalType": "address[]",
          "name": "_agents",
          "type": "address[]"
        },
        {
          "internalType": "uint256",
          "name": "_totalLength",
          "type": "uint256"
        }
      ],
      "stateMutability": "view",
      "type": "function"
    },
    {
      "inputs": [
        {
          "internalType": "uint256",
          "name": "_start",
          "type": "uint256"
        },
        {
          "internalType": "uint256",
          "name": "_end",
          "type": "uint256"
        }
      ],
      "name": "getAvailableAgentsDetailedList",
      "outputs": [
        {
          "components": [
            {
              "internalType": "address",
              "name": "agentVault",
              "type": "address"
            },
            {
              "internalType": "uint256",
              "name": "feeBIPS",
              "type": "uint256"
            },
            {
              "internalType": "uint256",
              "name": "mintingVaultCollateralRatioBIPS",
              "type": "uint256"
            },
            {
              "internalType": "uint256",
              "name": "mintingPoolCollateralRatioBIPS",
              "type": "uint256"
            },
            {
              "internalType": "uint256",
              "name": "freeCollateralLots",
              "type": "uint256"
            }
          ],
          "internalType": "struct AvailableAgentInfo.Data[]",
          "name": "_agents",
          "type": "tuple[]"
        },
        {
          "internalType": "uint256",
          "name": "_totalLength",
          "type": "uint256"
        }
      ],
      "stateMutability": "view",
      "type": "function"
    },
    {
      "inputs": [
        {
          "internalType": "uint256",
          "name": "_start",
          "type": "uint256"
        },
        {
          "internalType": "uint256",
          "name": "_end",
          "type": "uint256"
        }
      ],
      "name": "getAvailableAgentsList",
      "outputs": [
        {
          "internalType": "address[]",
          "name": "_agents",
          "type": "address[]"
        },
        {
          "internalType": "uint256",
          "name": "_totalLength",
          "type": "uint256"
        }
      ],
      "stateMutability": "view",
      "type": "function"
    },
    {
      "inputs": [
        {
          "internalType": "address",
          "name": "_agentVault",
          "type": "address"
        }
      ],
      "name": "getCollateralPool",
      "outputs": [
        {
          "internalType": "address",
          "name": "",
          "type": "address"
        }
      ],
      "stateMutability": "view",
      "type": "function"
    },
    {
      "inputs": [],
      "name": "getCollateralPoolTokenTimelockSeconds",
      "outputs": [
        {
          "internalType": "uint256",
          "name": "",
          "type": "uint256"
        }
      ],
      "stateMutability": "view",
      "type": "function"
    },
    {
      "inputs": [
        {
          "internalType": "enum CollateralType.Class",
          "name": "_collateralClass",
          "type": "uint8"
        },
        {
          "internalType": "contract IERC20",
          "name": "_token",
          "type": "address"
        }
      ],
      "name": "getCollateralType",
      "outputs": [
        {
          "components": [
            {
              "internalType": "enum CollateralType.Class",
              "name": "collateralClass",
              "type": "uint8"
            },
            {
              "internalType": "contract IERC20",
              "name": "token",
              "type": "address"
            },
            {
              "internalType": "uint256",
              "name": "decimals",
              "type": "uint256"
            },
            {
              "internalType": "uint256",
              "name": "validUntil",
              "type": "uint256"
            },
            {
              "internalType": "bool",
              "name": "directPricePair",
              "type": "bool"
            },
            {
              "internalType": "string",
              "name": "assetFtsoSymbol",
              "type": "string"
            },
            {
              "internalType": "string",
              "name": "tokenFtsoSymbol",
              "type": "string"
            },
            {
              "internalType": "uint256",
              "name": "minCollateralRatioBIPS",
              "type": "uint256"
            },
            {
              "internalType": "uint256",
              "name": "ccbMinCollateralRatioBIPS",
              "type": "uint256"
            },
            {
              "internalType": "uint256",
              "name": "safetyMinCollateralRatioBIPS",
              "type": "uint256"
            }
          ],
          "internalType": "struct CollateralType.Data",
          "name": "",
          "type": "tuple"
        }
      ],
      "stateMutability": "view",
      "type": "function"
    },
    {
      "inputs": [],
      "name": "getCollateralTypes",
      "outputs": [
        {
          "components": [
            {
              "internalType": "enum CollateralType.Class",
              "name": "collateralClass",
              "type": "uint8"
            },
            {
              "internalType": "contract IERC20",
              "name": "token",
              "type": "address"
            },
            {
              "internalType": "uint256",
              "name": "decimals",
              "type": "uint256"
            },
            {
              "internalType": "uint256",
              "name": "validUntil",
              "type": "uint256"
            },
            {
              "internalType": "bool",
              "name": "directPricePair",
              "type": "bool"
            },
            {
              "internalType": "string",
              "name": "assetFtsoSymbol",
              "type": "string"
            },
            {
              "internalType": "string",
              "name": "tokenFtsoSymbol",
              "type": "string"
            },
            {
              "internalType": "uint256",
              "name": "minCollateralRatioBIPS",
              "type": "uint256"
            },
            {
              "internalType": "uint256",
              "name": "ccbMinCollateralRatioBIPS",
              "type": "uint256"
            },
            {
              "internalType": "uint256",
              "name": "safetyMinCollateralRatioBIPS",
              "type": "uint256"
            }
          ],
          "internalType": "struct CollateralType.Data[]",
          "name": "",
          "type": "tuple[]"
        }
      ],
      "stateMutability": "view",
      "type": "function"
    },
    {
      "inputs": [
        {
          "internalType": "address",
          "name": "_agentVault",
          "type": "address"
        }
      ],
      "name": "getFAssetsBackedByPool",
      "outputs": [
        {
          "internalType": "uint256",
          "name": "",
          "type": "uint256"
        }
      ],
      "stateMutability": "view",
      "type": "function"
    },
    {
      "inputs": [],
      "name": "getLiquidationSettings",
      "outputs": [
        {
          "internalType": "bytes",
          "name": "",
          "type": "bytes"
        }
      ],
      "stateMutability": "view",
      "type": "function"
    },
    {
      "inputs": [],
      "name": "getSettings",
      "outputs": [
        {
          "components": [
            {
              "internalType": "address",
              "name": "assetManagerController",
              "type": "address"
            },
            {
              "internalType": "address",
              "name": "fAsset",
              "type": "address"
            },
            {
              "internalType": "address",
              "name": "agentVaultFactory",
              "type": "address"
            },
            {
              "internalType": "address",
              "name": "collateralPoolFactory",
              "type": "address"
            },
            {
              "internalType": "address",
              "name": "collateralPoolTokenFactory",
              "type": "address"
            },
            {
              "internalType": "string",
              "name": "poolTokenSuffix",
              "type": "string"
            },
            {
              "internalType": "address",
              "name": "whitelist",
              "type": "address"
            },
            {
              "internalType": "address",
              "name": "agentWhitelist",
              "type": "address"
            },
            {
              "internalType": "address",
              "name": "scProofVerifier",
              "type": "address"
            },
            {
              "internalType": "address",
              "name": "liquidationStrategy",
              "type": "address"
            },
            {
              "internalType": "address payable",
              "name": "burnAddress",
              "type": "address"
            },
            {
              "internalType": "address",
              "name": "priceReader",
              "type": "address"
            },
            {
              "internalType": "uint8",
              "name": "assetDecimals",
              "type": "uint8"
            },
            {
              "internalType": "uint8",
              "name": "assetMintingDecimals",
              "type": "uint8"
            },
            {
              "internalType": "bytes32",
              "name": "chainId",
              "type": "bytes32"
            },
            {
              "internalType": "uint32",
              "name": "averageBlockTimeMS",
              "type": "uint32"
            },
            {
              "internalType": "uint32",
              "name": "mintingPoolHoldingsRequiredBIPS",
              "type": "uint32"
            },
            {
              "internalType": "uint16",
              "name": "collateralReservationFeeBIPS",
              "type": "uint16"
            },
            {
              "internalType": "uint64",
              "name": "assetUnitUBA",
              "type": "uint64"
            },
            {
              "internalType": "uint64",
              "name": "assetMintingGranularityUBA",
              "type": "uint64"
            },
            {
              "internalType": "uint64",
              "name": "lotSizeAMG",
              "type": "uint64"
            },
            {
              "internalType": "uint16",
              "name": "minUnderlyingBackingBIPS",
              "type": "uint16"
            },
            {
              "internalType": "bool",
              "name": "requireEOAAddressProof",
              "type": "bool"
            },
            {
              "internalType": "uint64",
              "name": "mintingCapAMG",
              "type": "uint64"
            },
            {
              "internalType": "uint64",
              "name": "underlyingBlocksForPayment",
              "type": "uint64"
            },
            {
              "internalType": "uint64",
              "name": "underlyingSecondsForPayment",
              "type": "uint64"
            },
            {
              "internalType": "uint16",
              "name": "redemptionFeeBIPS",
              "type": "uint16"
            },
            {
              "internalType": "uint32",
              "name": "redemptionDefaultFactorVaultCollateralBIPS",
              "type": "uint32"
            },
            {
              "internalType": "uint32",
              "name": "redemptionDefaultFactorPoolBIPS",
              "type": "uint32"
            },
            {
              "internalType": "uint64",
              "name": "confirmationByOthersAfterSeconds",
              "type": "uint64"
            },
            {
              "internalType": "uint128",
              "name": "confirmationByOthersRewardUSD5",
              "type": "uint128"
            },
            {
              "internalType": "uint16",
              "name": "maxRedeemedTickets",
              "type": "uint16"
            },
            {
              "internalType": "uint16",
              "name": "paymentChallengeRewardBIPS",
              "type": "uint16"
            },
            {
              "internalType": "uint128",
              "name": "paymentChallengeRewardUSD5",
              "type": "uint128"
            },
            {
              "internalType": "uint64",
              "name": "withdrawalWaitMinSeconds",
              "type": "uint64"
            },
            {
              "internalType": "uint64",
              "name": "maxTrustedPriceAgeSeconds",
              "type": "uint64"
            },
            {
              "internalType": "uint64",
              "name": "ccbTimeSeconds",
              "type": "uint64"
            },
            {
              "internalType": "uint64",
              "name": "attestationWindowSeconds",
              "type": "uint64"
            },
            {
              "internalType": "uint64",
              "name": "minUpdateRepeatTimeSeconds",
              "type": "uint64"
            },
            {
              "internalType": "uint64",
              "name": "buybackCollateralFactorBIPS",
              "type": "uint64"
            },
            {
              "internalType": "uint64",
              "name": "announcedUnderlyingConfirmationMinSeconds",
              "type": "uint64"
            },
            {
              "internalType": "uint64",
              "name": "tokenInvalidationTimeMinSeconds",
              "type": "uint64"
            },
            {
              "internalType": "uint32",
              "name": "vaultCollateralBuyForFlareFactorBIPS",
              "type": "uint32"
            },
            {
              "internalType": "uint64",
              "name": "agentExitAvailableTimelockSeconds",
              "type": "uint64"
            },
            {
              "internalType": "uint64",
              "name": "agentFeeChangeTimelockSeconds",
              "type": "uint64"
            },
            {
              "internalType": "uint64",
              "name": "agentMintingCRChangeTimelockSeconds",
              "type": "uint64"
            },
            {
              "internalType": "uint64",
              "name": "poolExitAndTopupChangeTimelockSeconds",
              "type": "uint64"
            },
            {
              "internalType": "uint64",
              "name": "agentTimelockedOperationWindowSeconds",
              "type": "uint64"
            },
            {
              "internalType": "uint32",
              "name": "collateralPoolTokenTimelockSeconds",
              "type": "uint32"
            }
          ],
          "internalType": "struct AssetManagerSettings.Data",
          "name": "",
          "type": "tuple"
        }
      ],
      "stateMutability": "view",
      "type": "function"
    },
    {
      "inputs": [],
      "name": "getWNat",
      "outputs": [
        {
          "internalType": "contract IWNat",
          "name": "",
          "type": "address"
        }
      ],
      "stateMutability": "view",
      "type": "function"
    },
    {
      "inputs": [
        {
          "components": [
            {
              "internalType": "bytes32[]",
              "name": "merkleProof",
              "type": "bytes32[]"
            },
            {
              "components": [
                {
                  "internalType": "bytes32",
                  "name": "attestationType",
                  "type": "bytes32"
                },
                {
                  "internalType": "bytes32",
                  "name": "sourceId",
                  "type": "bytes32"
                },
                {
                  "internalType": "uint64",
                  "name": "votingRound",
                  "type": "uint64"
                },
                {
                  "internalType": "uint64",
                  "name": "lowestUsedTimestamp",
                  "type": "uint64"
                },
                {
                  "components": [
                    {
                      "internalType": "bytes32",
                      "name": "transactionId",
                      "type": "bytes32"
                    },
                    {
                      "internalType": "bytes32",
                      "name": "sourceAddressIndicator",
                      "type": "bytes32"
                    }
                  ],
                  "internalType": "struct BalanceDecreasingTransaction.RequestBody",
                  "name": "requestBody",
                  "type": "tuple"
                },
                {
                  "components": [
                    {
                      "internalType": "uint64",
                      "name": "blockNumber",
                      "type": "uint64"
                    },
                    {
                      "internalType": "uint64",
                      "name": "blockTimestamp",
                      "type": "uint64"
                    },
                    {
                      "internalType": "bytes32",
                      "name": "sourceAddressHash",
                      "type": "bytes32"
                    },
                    {
                      "internalType": "int256",
                      "name": "spentAmount",
                      "type": "int256"
                    },
                    {
                      "internalType": "bytes32",
                      "name": "standardPaymentReference",
                      "type": "bytes32"
                    }
                  ],
                  "internalType": "struct BalanceDecreasingTransaction.ResponseBody",
                  "name": "responseBody",
                  "type": "tuple"
                }
              ],
              "internalType": "struct BalanceDecreasingTransaction.Response",
              "name": "data",
              "type": "tuple"
            }
          ],
          "internalType": "struct BalanceDecreasingTransaction.Proof",
          "name": "_transaction",
          "type": "tuple"
        },
        {
          "internalType": "address",
          "name": "_agentVault",
          "type": "address"
        }
      ],
      "name": "illegalPaymentChallenge",
      "outputs": [],
      "stateMutability": "nonpayable",
      "type": "function"
    },
    {
      "inputs": [
        {
          "internalType": "address",
          "name": "_agentVault",
          "type": "address"
        },
        {
          "internalType": "address",
          "name": "_address",
          "type": "address"
        }
      ],
      "name": "isAgentVaultOwner",
      "outputs": [
        {
          "internalType": "bool",
          "name": "",
          "type": "bool"
        }
      ],
      "stateMutability": "view",
      "type": "function"
    },
    {
      "inputs": [
        {
          "internalType": "address",
          "name": "_agentVault",
          "type": "address"
        },
        {
          "internalType": "contract IERC20",
          "name": "_token",
          "type": "address"
        }
      ],
      "name": "isLockedVaultToken",
      "outputs": [
        {
          "internalType": "bool",
          "name": "",
          "type": "bool"
        }
      ],
      "stateMutability": "view",
      "type": "function"
    },
    {
      "inputs": [
        {
          "internalType": "address",
          "name": "_agentVault",
          "type": "address"
        },
        {
          "internalType": "uint256",
          "name": "_amountUBA",
          "type": "uint256"
        }
      ],
      "name": "liquidate",
      "outputs": [
        {
          "internalType": "uint256",
          "name": "_liquidatedAmountUBA",
          "type": "uint256"
        },
        {
          "internalType": "uint256",
          "name": "_amountPaidVault",
          "type": "uint256"
        },
        {
          "internalType": "uint256",
          "name": "_amountPaidPool",
          "type": "uint256"
        }
      ],
      "stateMutability": "nonpayable",
      "type": "function"
    },
    {
      "inputs": [],
      "name": "lotSize",
      "outputs": [
        {
          "internalType": "uint256",
          "name": "_lotSizeUBA",
          "type": "uint256"
        }
      ],
      "stateMutability": "view",
      "type": "function"
    },
    {
      "inputs": [
        {
          "internalType": "address",
          "name": "_agentVault",
          "type": "address"
        }
      ],
      "name": "makeAgentAvailable",
      "outputs": [],
      "stateMutability": "nonpayable",
      "type": "function"
    },
    {
      "inputs": [
        {
          "internalType": "address",
          "name": "_agentVault",
          "type": "address"
        }
      ],
      "name": "maxRedemptionFromAgent",
      "outputs": [
        {
          "internalType": "uint256",
          "name": "",
          "type": "uint256"
        }
      ],
      "stateMutability": "view",
      "type": "function"
    },
    {
      "inputs": [
        {
          "components": [
            {
              "internalType": "bytes32[]",
              "name": "merkleProof",
              "type": "bytes32[]"
            },
            {
              "components": [
                {
                  "internalType": "bytes32",
                  "name": "attestationType",
                  "type": "bytes32"
                },
                {
                  "internalType": "bytes32",
                  "name": "sourceId",
                  "type": "bytes32"
                },
                {
                  "internalType": "uint64",
                  "name": "votingRound",
                  "type": "uint64"
                },
                {
                  "internalType": "uint64",
                  "name": "lowestUsedTimestamp",
                  "type": "uint64"
                },
                {
                  "components": [
                    {
                      "internalType": "uint64",
                      "name": "minimalBlockNumber",
                      "type": "uint64"
                    },
                    {
                      "internalType": "uint64",
                      "name": "deadlineBlockNumber",
                      "type": "uint64"
                    },
                    {
                      "internalType": "uint64",
                      "name": "deadlineTimestamp",
                      "type": "uint64"
                    },
                    {
                      "internalType": "bytes32",
                      "name": "destinationAddressHash",
                      "type": "bytes32"
                    },
                    {
                      "internalType": "uint256",
                      "name": "amount",
                      "type": "uint256"
                    },
                    {
                      "internalType": "bytes32",
                      "name": "standardPaymentReference",
                      "type": "bytes32"
                    }
                  ],
                  "internalType": "struct ReferencedPaymentNonexistence.RequestBody",
                  "name": "requestBody",
                  "type": "tuple"
                },
                {
                  "components": [
                    {
                      "internalType": "uint64",
                      "name": "minimalBlockTimestamp",
                      "type": "uint64"
                    },
                    {
                      "internalType": "uint64",
                      "name": "firstOverflowBlockNumber",
                      "type": "uint64"
                    },
                    {
                      "internalType": "uint64",
                      "name": "firstOverflowBlockTimestamp",
                      "type": "uint64"
                    }
                  ],
                  "internalType": "struct ReferencedPaymentNonexistence.ResponseBody",
                  "name": "responseBody",
                  "type": "tuple"
                }
              ],
              "internalType": "struct ReferencedPaymentNonexistence.Response",
              "name": "data",
              "type": "tuple"
            }
          ],
          "internalType": "struct ReferencedPaymentNonexistence.Proof",
          "name": "_proof",
          "type": "tuple"
        },
        {
          "internalType": "uint256",
          "name": "_collateralReservationId",
          "type": "uint256"
        }
      ],
      "name": "mintingPaymentDefault",
      "outputs": [],
      "stateMutability": "nonpayable",
      "type": "function"
    },
    {
      "inputs": [],
      "name": "pause",
      "outputs": [],
      "stateMutability": "nonpayable",
      "type": "function"
    },
    {
      "inputs": [],
      "name": "paused",
      "outputs": [
        {
          "internalType": "bool",
          "name": "",
          "type": "bool"
        }
      ],
      "stateMutability": "view",
      "type": "function"
    },
    {
      "inputs": [
        {
          "components": [
            {
              "internalType": "bytes32[]",
              "name": "merkleProof",
              "type": "bytes32[]"
            },
            {
              "components": [
                {
                  "internalType": "bytes32",
                  "name": "attestationType",
                  "type": "bytes32"
                },
                {
                  "internalType": "bytes32",
                  "name": "sourceId",
                  "type": "bytes32"
                },
                {
                  "internalType": "uint64",
                  "name": "votingRound",
                  "type": "uint64"
                },
                {
                  "internalType": "uint64",
                  "name": "lowestUsedTimestamp",
                  "type": "uint64"
                },
                {
                  "components": [
                    {
                      "internalType": "bytes32",
                      "name": "transactionId",
                      "type": "bytes32"
                    },
                    {
                      "internalType": "uint256",
                      "name": "inUtxo",
                      "type": "uint256"
                    },
                    {
                      "internalType": "uint256",
                      "name": "utxo",
                      "type": "uint256"
                    }
                  ],
                  "internalType": "struct Payment.RequestBody",
                  "name": "requestBody",
                  "type": "tuple"
                },
                {
                  "components": [
                    {
                      "internalType": "uint64",
                      "name": "blockNumber",
                      "type": "uint64"
                    },
                    {
                      "internalType": "uint64",
                      "name": "blockTimestamp",
                      "type": "uint64"
                    },
                    {
                      "internalType": "bytes32",
                      "name": "sourceAddressHash",
                      "type": "bytes32"
                    },
                    {
                      "internalType": "bytes32",
                      "name": "receivingAddressHash",
                      "type": "bytes32"
                    },
                    {
                      "internalType": "bytes32",
                      "name": "intendedReceivingAddressHash",
                      "type": "bytes32"
                    },
                    {
                      "internalType": "int256",
                      "name": "spentAmount",
                      "type": "int256"
                    },
                    {
                      "internalType": "int256",
                      "name": "intendedSpentAmount",
                      "type": "int256"
                    },
                    {
                      "internalType": "int256",
                      "name": "receivedAmount",
                      "type": "int256"
                    },
                    {
                      "internalType": "int256",
                      "name": "intendedReceivedAmount",
                      "type": "int256"
                    },
                    {
                      "internalType": "bytes32",
                      "name": "standardPaymentReference",
                      "type": "bytes32"
                    },
                    {
                      "internalType": "bool",
                      "name": "oneToOne",
                      "type": "bool"
                    },
                    {
                      "internalType": "uint8",
                      "name": "status",
                      "type": "uint8"
                    }
                  ],
                  "internalType": "struct Payment.ResponseBody",
                  "name": "responseBody",
                  "type": "tuple"
                }
              ],
              "internalType": "struct Payment.Response",
              "name": "data",
              "type": "tuple"
            }
          ],
          "internalType": "struct Payment.Proof",
          "name": "_payment",
          "type": "tuple"
        }
      ],
      "name": "proveUnderlyingAddressEOA",
      "outputs": [],
      "stateMutability": "nonpayable",
      "type": "function"
    },
    {
      "inputs": [
        {
          "internalType": "uint256",
          "name": "_lots",
          "type": "uint256"
        },
        {
          "internalType": "string",
          "name": "_redeemerUnderlyingAddressString",
          "type": "string"
        }
      ],
      "name": "redeem",
      "outputs": [
        {
          "internalType": "uint256",
          "name": "_redeemedAmountUBA",
          "type": "uint256"
        }
      ],
      "stateMutability": "nonpayable",
      "type": "function"
    },
    {
      "inputs": [
        {
          "internalType": "address",
          "name": "_agentVault",
          "type": "address"
        },
        {
          "internalType": "address",
          "name": "_receiver",
          "type": "address"
        },
        {
          "internalType": "uint256",
          "name": "_amountUBA",
          "type": "uint256"
        },
        {
          "internalType": "string",
          "name": "_receiverUnderlyingAddress",
          "type": "string"
        }
      ],
      "name": "redeemFromAgent",
      "outputs": [],
      "stateMutability": "nonpayable",
      "type": "function"
    },
    {
      "inputs": [
        {
          "internalType": "address",
          "name": "_agentVault",
          "type": "address"
        },
        {
          "internalType": "address",
          "name": "_receiver",
          "type": "address"
        },
        {
          "internalType": "uint256",
          "name": "_amountUBA",
          "type": "uint256"
        }
      ],
      "name": "redeemFromAgentInCollateral",
      "outputs": [],
      "stateMutability": "nonpayable",
      "type": "function"
    },
    {
      "inputs": [
        {
          "components": [
            {
              "internalType": "bytes32[]",
              "name": "merkleProof",
              "type": "bytes32[]"
            },
            {
              "components": [
                {
                  "internalType": "bytes32",
                  "name": "attestationType",
                  "type": "bytes32"
                },
                {
                  "internalType": "bytes32",
                  "name": "sourceId",
                  "type": "bytes32"
                },
                {
                  "internalType": "uint64",
                  "name": "votingRound",
                  "type": "uint64"
                },
                {
                  "internalType": "uint64",
                  "name": "lowestUsedTimestamp",
                  "type": "uint64"
                },
                {
                  "components": [
                    {
                      "internalType": "uint64",
                      "name": "minimalBlockNumber",
                      "type": "uint64"
                    },
                    {
                      "internalType": "uint64",
                      "name": "deadlineBlockNumber",
                      "type": "uint64"
                    },
                    {
                      "internalType": "uint64",
                      "name": "deadlineTimestamp",
                      "type": "uint64"
                    },
                    {
                      "internalType": "bytes32",
                      "name": "destinationAddressHash",
                      "type": "bytes32"
                    },
                    {
                      "internalType": "uint256",
                      "name": "amount",
                      "type": "uint256"
                    },
                    {
                      "internalType": "bytes32",
                      "name": "standardPaymentReference",
                      "type": "bytes32"
                    }
                  ],
                  "internalType": "struct ReferencedPaymentNonexistence.RequestBody",
                  "name": "requestBody",
                  "type": "tuple"
                },
                {
                  "components": [
                    {
                      "internalType": "uint64",
                      "name": "minimalBlockTimestamp",
                      "type": "uint64"
                    },
                    {
                      "internalType": "uint64",
                      "name": "firstOverflowBlockNumber",
                      "type": "uint64"
                    },
                    {
                      "internalType": "uint64",
                      "name": "firstOverflowBlockTimestamp",
                      "type": "uint64"
                    }
                  ],
                  "internalType": "struct ReferencedPaymentNonexistence.ResponseBody",
                  "name": "responseBody",
                  "type": "tuple"
                }
              ],
              "internalType": "struct ReferencedPaymentNonexistence.Response",
              "name": "data",
              "type": "tuple"
            }
          ],
          "internalType": "struct ReferencedPaymentNonexistence.Proof",
          "name": "_proof",
          "type": "tuple"
        },
        {
          "internalType": "uint256",
          "name": "_redemptionRequestId",
          "type": "uint256"
        }
      ],
      "name": "redemptionPaymentDefault",
      "outputs": [],
      "stateMutability": "nonpayable",
      "type": "function"
    },
    {
      "inputs": [
        {
          "components": [
            {
              "internalType": "bytes32[]",
              "name": "merkleProof",
              "type": "bytes32[]"
            },
            {
              "components": [
                {
                  "internalType": "bytes32",
                  "name": "attestationType",
                  "type": "bytes32"
                },
                {
                  "internalType": "bytes32",
                  "name": "sourceId",
                  "type": "bytes32"
                },
                {
                  "internalType": "uint64",
                  "name": "votingRound",
                  "type": "uint64"
                },
                {
                  "internalType": "uint64",
                  "name": "lowestUsedTimestamp",
                  "type": "uint64"
                },
                {
                  "components": [
                    {
                      "internalType": "string",
                      "name": "addressStr",
                      "type": "string"
                    }
                  ],
                  "internalType": "struct AddressValidity.RequestBody",
                  "name": "requestBody",
                  "type": "tuple"
                },
                {
                  "components": [
                    {
                      "internalType": "bool",
                      "name": "isValid",
                      "type": "bool"
                    },
                    {
                      "internalType": "string",
                      "name": "standardAddress",
                      "type": "string"
                    },
                    {
                      "internalType": "bytes32",
                      "name": "standardAddressHash",
                      "type": "bytes32"
                    }
                  ],
                  "internalType": "struct AddressValidity.ResponseBody",
                  "name": "responseBody",
                  "type": "tuple"
                }
              ],
              "internalType": "struct AddressValidity.Response",
              "name": "data",
              "type": "tuple"
            }
          ],
          "internalType": "struct AddressValidity.Proof",
          "name": "_proof",
          "type": "tuple"
        },
        {
          "internalType": "uint256",
          "name": "_redemptionRequestId",
          "type": "uint256"
        }
      ],
      "name": "rejectInvalidRedemption",
      "outputs": [],
      "stateMutability": "nonpayable",
      "type": "function"
    },
    {
      "inputs": [
        {
          "internalType": "address",
          "name": "_agentVault",
          "type": "address"
        },
        {
          "internalType": "uint256",
          "name": "_lots",
          "type": "uint256"
        },
        {
          "internalType": "uint256",
          "name": "_maxMintingFeeBIPS",
          "type": "uint256"
        }
      ],
      "name": "reserveCollateral",
      "outputs": [],
      "stateMutability": "payable",
      "type": "function"
    },
    {
      "inputs": [
        {
          "internalType": "address",
          "name": "_agentVault",
          "type": "address"
        },
        {
          "internalType": "uint256",
          "name": "_amountUBA",
          "type": "uint256"
        }
      ],
      "name": "selfClose",
      "outputs": [
        {
          "internalType": "uint256",
          "name": "_closedAmountUBA",
          "type": "uint256"
        }
      ],
      "stateMutability": "nonpayable",
      "type": "function"
    },
    {
      "inputs": [
        {
          "components": [
            {
              "internalType": "bytes32[]",
              "name": "merkleProof",
              "type": "bytes32[]"
            },
            {
              "components": [
                {
                  "internalType": "bytes32",
                  "name": "attestationType",
                  "type": "bytes32"
                },
                {
                  "internalType": "bytes32",
                  "name": "sourceId",
                  "type": "bytes32"
                },
                {
                  "internalType": "uint64",
                  "name": "votingRound",
                  "type": "uint64"
                },
                {
                  "internalType": "uint64",
                  "name": "lowestUsedTimestamp",
                  "type": "uint64"
                },
                {
                  "components": [
                    {
                      "internalType": "bytes32",
                      "name": "transactionId",
                      "type": "bytes32"
                    },
                    {
                      "internalType": "uint256",
                      "name": "inUtxo",
                      "type": "uint256"
                    },
                    {
                      "internalType": "uint256",
                      "name": "utxo",
                      "type": "uint256"
                    }
                  ],
                  "internalType": "struct Payment.RequestBody",
                  "name": "requestBody",
                  "type": "tuple"
                },
                {
                  "components": [
                    {
                      "internalType": "uint64",
                      "name": "blockNumber",
                      "type": "uint64"
                    },
                    {
                      "internalType": "uint64",
                      "name": "blockTimestamp",
                      "type": "uint64"
                    },
                    {
                      "internalType": "bytes32",
                      "name": "sourceAddressHash",
                      "type": "bytes32"
                    },
                    {
                      "internalType": "bytes32",
                      "name": "receivingAddressHash",
                      "type": "bytes32"
                    },
                    {
                      "internalType": "bytes32",
                      "name": "intendedReceivingAddressHash",
                      "type": "bytes32"
                    },
                    {
                      "internalType": "int256",
                      "name": "spentAmount",
                      "type": "int256"
                    },
                    {
                      "internalType": "int256",
                      "name": "intendedSpentAmount",
                      "type": "int256"
                    },
                    {
                      "internalType": "int256",
                      "name": "receivedAmount",
                      "type": "int256"
                    },
                    {
                      "internalType": "int256",
                      "name": "intendedReceivedAmount",
                      "type": "int256"
                    },
                    {
                      "internalType": "bytes32",
                      "name": "standardPaymentReference",
                      "type": "bytes32"
                    },
                    {
                      "internalType": "bool",
                      "name": "oneToOne",
                      "type": "bool"
                    },
                    {
                      "internalType": "uint8",
                      "name": "status",
                      "type": "uint8"
                    }
                  ],
                  "internalType": "struct Payment.ResponseBody",
                  "name": "responseBody",
                  "type": "tuple"
                }
              ],
              "internalType": "struct Payment.Response",
              "name": "data",
              "type": "tuple"
            }
          ],
          "internalType": "struct Payment.Proof",
          "name": "_payment",
          "type": "tuple"
        },
        {
          "internalType": "address",
          "name": "_agentVault",
          "type": "address"
        },
        {
          "internalType": "uint256",
          "name": "_lots",
          "type": "uint256"
        }
      ],
      "name": "selfMint",
      "outputs": [],
      "stateMutability": "nonpayable",
      "type": "function"
    },
    {
      "inputs": [
        {
          "internalType": "enum CollateralType.Class",
          "name": "_collateralClass",
          "type": "uint8"
        },
        {
          "internalType": "contract IERC20",
          "name": "_token",
          "type": "address"
        },
        {
          "internalType": "uint256",
          "name": "_minCollateralRatioBIPS",
          "type": "uint256"
        },
        {
          "internalType": "uint256",
          "name": "_ccbMinCollateralRatioBIPS",
          "type": "uint256"
        },
        {
          "internalType": "uint256",
          "name": "_safetyMinCollateralRatioBIPS",
          "type": "uint256"
        }
      ],
      "name": "setCollateralRatiosForToken",
      "outputs": [],
      "stateMutability": "nonpayable",
      "type": "function"
    },
    {
      "inputs": [
        {
          "internalType": "address",
          "name": "_ownerWorkAddress",
          "type": "address"
        }
      ],
      "name": "setOwnerWorkAddress",
      "outputs": [],
      "stateMutability": "nonpayable",
      "type": "function"
    },
    {
      "inputs": [
        {
          "internalType": "address",
          "name": "_agentVault",
          "type": "address"
        }
      ],
      "name": "startLiquidation",
      "outputs": [
        {
          "internalType": "uint8",
          "name": "_liquidationStatus",
          "type": "uint8"
        },
        {
          "internalType": "uint256",
          "name": "_liquidationStartAt",
          "type": "uint256"
        }
      ],
      "stateMutability": "nonpayable",
      "type": "function"
    },
    {
      "inputs": [
        {
          "internalType": "bytes4",
          "name": "_interfaceId",
          "type": "bytes4"
        }
      ],
      "name": "supportsInterface",
      "outputs": [
        {
          "internalType": "bool",
          "name": "",
          "type": "bool"
        }
      ],
      "stateMutability": "pure",
      "type": "function"
    },
    {
      "inputs": [
        {
          "internalType": "address",
          "name": "_agentVault",
          "type": "address"
        },
        {
          "internalType": "contract IERC20",
          "name": "_token",
          "type": "address"
        }
      ],
      "name": "switchVaultCollateral",
      "outputs": [],
      "stateMutability": "nonpayable",
      "type": "function"
    },
    {
      "inputs": [],
      "name": "terminate",
      "outputs": [],
      "stateMutability": "nonpayable",
      "type": "function"
    },
    {
      "inputs": [],
      "name": "terminated",
      "outputs": [
        {
          "internalType": "bool",
          "name": "",
          "type": "bool"
        }
      ],
      "stateMutability": "view",
      "type": "function"
    },
    {
      "inputs": [],
      "name": "unpause",
      "outputs": [],
      "stateMutability": "nonpayable",
      "type": "function"
    },
    {
      "inputs": [
        {
          "components": [
            {
              "internalType": "bytes32[]",
              "name": "merkleProof",
              "type": "bytes32[]"
            },
            {
              "components": [
                {
                  "internalType": "bytes32",
                  "name": "attestationType",
                  "type": "bytes32"
                },
                {
                  "internalType": "bytes32",
                  "name": "sourceId",
                  "type": "bytes32"
                },
                {
                  "internalType": "uint64",
                  "name": "votingRound",
                  "type": "uint64"
                },
                {
                  "internalType": "uint64",
                  "name": "lowestUsedTimestamp",
                  "type": "uint64"
                },
                {
                  "components": [
                    {
                      "internalType": "uint64",
                      "name": "blockNumber",
                      "type": "uint64"
                    },
                    {
                      "internalType": "uint64",
                      "name": "queryWindow",
                      "type": "uint64"
                    }
                  ],
                  "internalType": "struct ConfirmedBlockHeightExists.RequestBody",
                  "name": "requestBody",
                  "type": "tuple"
                },
                {
                  "components": [
                    {
                      "internalType": "uint64",
                      "name": "blockTimestamp",
                      "type": "uint64"
                    },
                    {
                      "internalType": "uint64",
                      "name": "numberOfConfirmations",
                      "type": "uint64"
                    },
                    {
                      "internalType": "uint64",
                      "name": "lowestQueryWindowBlockNumber",
                      "type": "uint64"
                    },
                    {
                      "internalType": "uint64",
                      "name": "lowestQueryWindowBlockTimestamp",
                      "type": "uint64"
                    }
                  ],
                  "internalType": "struct ConfirmedBlockHeightExists.ResponseBody",
                  "name": "responseBody",
                  "type": "tuple"
                }
              ],
              "internalType": "struct ConfirmedBlockHeightExists.Response",
              "name": "data",
              "type": "tuple"
            }
          ],
          "internalType": "struct ConfirmedBlockHeightExists.Proof",
          "name": "_proof",
          "type": "tuple"
        },
        {
          "internalType": "uint256",
          "name": "_collateralReservationId",
          "type": "uint256"
        }
      ],
      "name": "unstickMinting",
      "outputs": [],
      "stateMutability": "payable",
      "type": "function"
    },
    {
      "inputs": [
        {
          "internalType": "address",
          "name": "_agentVault",
          "type": "address"
        },
        {
          "internalType": "contract IERC20",
          "name": "_token",
          "type": "address"
        }
      ],
      "name": "updateCollateral",
      "outputs": [],
      "stateMutability": "nonpayable",
      "type": "function"
    },
    {
      "inputs": [
        {
          "components": [
            {
              "internalType": "bytes32[]",
              "name": "merkleProof",
              "type": "bytes32[]"
            },
            {
              "components": [
                {
                  "internalType": "bytes32",
                  "name": "attestationType",
                  "type": "bytes32"
                },
                {
                  "internalType": "bytes32",
                  "name": "sourceId",
                  "type": "bytes32"
                },
                {
                  "internalType": "uint64",
                  "name": "votingRound",
                  "type": "uint64"
                },
                {
                  "internalType": "uint64",
                  "name": "lowestUsedTimestamp",
                  "type": "uint64"
                },
                {
                  "components": [
                    {
                      "internalType": "uint64",
                      "name": "blockNumber",
                      "type": "uint64"
                    },
                    {
                      "internalType": "uint64",
                      "name": "queryWindow",
                      "type": "uint64"
                    }
                  ],
                  "internalType": "struct ConfirmedBlockHeightExists.RequestBody",
                  "name": "requestBody",
                  "type": "tuple"
                },
                {
                  "components": [
                    {
                      "internalType": "uint64",
                      "name": "blockTimestamp",
                      "type": "uint64"
                    },
                    {
                      "internalType": "uint64",
                      "name": "numberOfConfirmations",
                      "type": "uint64"
                    },
                    {
                      "internalType": "uint64",
                      "name": "lowestQueryWindowBlockNumber",
                      "type": "uint64"
                    },
                    {
                      "internalType": "uint64",
                      "name": "lowestQueryWindowBlockTimestamp",
                      "type": "uint64"
                    }
                  ],
                  "internalType": "struct ConfirmedBlockHeightExists.ResponseBody",
                  "name": "responseBody",
                  "type": "tuple"
                }
              ],
              "internalType": "struct ConfirmedBlockHeightExists.Response",
              "name": "data",
              "type": "tuple"
            }
          ],
          "internalType": "struct ConfirmedBlockHeightExists.Proof",
          "name": "_proof",
          "type": "tuple"
        }
      ],
      "name": "updateCurrentBlock",
      "outputs": [],
      "stateMutability": "nonpayable",
      "type": "function"
    },
    {
      "inputs": [
        {
          "internalType": "bytes32",
          "name": "_method",
          "type": "bytes32"
        },
        {
          "internalType": "bytes",
          "name": "_params",
          "type": "bytes"
        }
      ],
      "name": "updateSettings",
      "outputs": [],
      "stateMutability": "nonpayable",
      "type": "function"
    },
    {
      "inputs": [
        {
          "internalType": "address",
          "name": "_agentVault",
          "type": "address"
        }
      ],
      "name": "upgradeWNatContract",
      "outputs": [],
      "stateMutability": "nonpayable",
      "type": "function"
    }
  ],
  "bytecode": "0x60806040523480156200001157600080fd5b5060405162007169380380620071698339810160408190526200003491620005b2565b600160005560405163658f4c6160e01b815273__$498fae630e5f9e2b0d2f5a14b70bbf8a29$__9063658f4c61906200007290869060040162000a55565b60006040518083038186803b1580156200008b57600080fd5b505af4158015620000a0573d6000803e3d6000fd5b505060405163cbcf339b60e01b815273__$b5cdffcf5b8f8ae6fa06e08eee0b808a00$__925063cbcf339b9150620000dd90859060040162000f9c565b60006040518083038186803b158015620000f657600080fd5b505af41580156200010b573d6000803e3d6000fd5b5050505062000120816200012960201b60201c565b505050620010cd565b7fec7e8c1c441439dd40959777f4c577ea0cd42fcc1dbe59d2bd0f5d9c55df8dbf546040516001600160a01b0390911690600090829063439fab91906200017590869060240162001093565b604051602081830303815290604052915060e01b6020820180516001600160e01b0383818316178352505050509050620001b68282620001bc60201b60201c565b50505050565b6060600080846001600160a01b031684604051620001db9190620010af565b600060405180830381855af49150503d806000811462000218576040519150601f19603f3d011682016040523d82523d6000602084013e6200021d565b606091505b5091509150811562000233579150620002469050565b3d604051818101604052816000823e8181fd5b92915050565b634e487b7160e01b600052604160045260246000fd5b60405161014081016001600160401b03811182821017156200028857620002886200024c565b60405290565b60405161062081016001600160401b03811182821017156200028857620002886200024c565b604051601f8201601f191681016001600160401b0381118282101715620002df57620002df6200024c565b604052919050565b80516001600160a01b0381168114620002ff57600080fd5b919050565b60005b838110156200032157818101518382015260200162000307565b50506000910152565b600082601f8301126200033c57600080fd5b81516001600160401b038111156200035857620003586200024c565b6200036d601f8201601f1916602001620002b4565b8181528460208386010111156200038357600080fd5b6200039682602083016020870162000304565b949350505050565b805160ff81168114620002ff57600080fd5b805163ffffffff81168114620002ff57600080fd5b805161ffff81168114620002ff57600080fd5b80516001600160401b0381168114620002ff57600080fd5b80518015158114620002ff57600080fd5b80516001600160801b0381168114620002ff57600080fd5b805160038110620002ff57600080fd5b600082601f8301126200043b57600080fd5b815160206001600160401b03808311156200045a576200045a6200024c565b8260051b6200046b838201620002b4565b93845285810183019383810190888611156200048657600080fd5b84880192505b85831015620005a657825184811115620004a65760008081fd5b8801610140818b03601f1901811315620004c05760008081fd5b620004ca62000262565b620004d788840162000419565b81526040620004e8818501620002e7565b89830152606080850151828401526080915081850151818401525060a062000512818601620003f0565b8284015260c0915081850151898111156200052d5760008081fd5b6200053d8f8c838901016200032a565b82850152505060e08085015189811115620005585760008081fd5b620005688f8c838901016200032a565b83850152506101009150818501518184015250610120808501518284015283850151818401525050808552505050848201915084830192506200048c565b98975050505050505050565b600080600060608486031215620005c857600080fd5b83516001600160401b0380821115620005e057600080fd5b908501906106208288031215620005f657600080fd5b620006006200028e565b6200060b83620002e7565b81526200061b60208401620002e7565b60208201526200062e60408401620002e7565b60408201526200064160608401620002e7565b60608201526200065460808401620002e7565b608082015260a0830151828111156200066c57600080fd5b6200067a898286016200032a565b60a0830152506200068e60c08401620002e7565b60c0820152620006a160e08401620002e7565b60e0820152610100620006b6818501620002e7565b90820152610120620006ca848201620002e7565b90820152610140620006de848201620002e7565b90820152610160620006f2848201620002e7565b90820152610180620007068482016200039e565b908201526101a06200071a8482016200039e565b908201526101c083810151908201526101e062000739818501620003b0565b908201526102006200074d848201620003b0565b9082015261022062000761848201620003c5565b9082015261024062000775848201620003d8565b9082015261026062000789848201620003d8565b908201526102806200079d848201620003d8565b908201526102a0620007b1848201620003c5565b908201526102c0620007c5848201620003f0565b908201526102e0620007d9848201620003d8565b90820152610300620007ed848201620003d8565b9082015261032062000801848201620003d8565b9082015261034062000815848201620003c5565b9082015261036062000829848201620003b0565b908201526103806200083d848201620003b0565b908201526103a062000851848201620003d8565b908201526103c06200086584820162000401565b908201526103e062000879848201620003c5565b908201526104006200088d848201620003c5565b90820152610420620008a184820162000401565b90820152610440620008b5848201620003d8565b90820152610460620008c9848201620003d8565b90820152610480620008dd848201620003d8565b908201526104a0620008f1848201620003d8565b908201526104c062000905848201620003d8565b908201526104e062000919848201620003d8565b908201526105006200092d848201620003d8565b9082015261052062000941848201620003d8565b9082015261054062000955848201620003b0565b9082015261056062000969848201620003d8565b908201526105806200097d848201620003d8565b908201526105a062000991848201620003d8565b908201526105c0620009a5848201620003d8565b908201526105e0620009b9848201620003d8565b90820152610600620009cd848201620003b0565b908201526020870151909550915080821115620009e957600080fd5b620009f78783880162000429565b9350604086015191508082111562000a0e57600080fd5b5062000a1d868287016200032a565b9150509250925092565b6000815180845262000a4181602086016020860162000304565b601f01601f19169290920160200192915050565b6020815262000a706020820183516001600160a01b03169052565b6000602083015162000a8d60408401826001600160a01b03169052565b5060408301516001600160a01b03811660608401525060608301516001600160a01b03811660808401525060808301516001600160a01b03811660a08401525060a08301516106208060c085015262000aeb61064085018362000a27565b915060c085015162000b0860e08601826001600160a01b03169052565b5060e085015161010062000b26818701836001600160a01b03169052565b860151905061012062000b43868201836001600160a01b03169052565b860151905061014062000b60868201836001600160a01b03169052565b860151905061016062000b7d868201836001600160a01b03169052565b860151905061018062000b9a868201836001600160a01b03169052565b86015190506101a062000bb18682018360ff169052565b86015190506101c062000bc88682018360ff169052565b8601516101e086810191909152860151905061020062000bef8187018363ffffffff169052565b860151905061022062000c098682018363ffffffff169052565b860151905061024062000c218682018361ffff169052565b860151905061026062000c3e868201836001600160401b03169052565b860151905061028062000c5b868201836001600160401b03169052565b86015190506102a062000c78868201836001600160401b03169052565b86015190506102c062000c908682018361ffff169052565b86015190506102e062000ca68682018315159052565b860151905061030062000cc3868201836001600160401b03169052565b860151905061032062000ce0868201836001600160401b03169052565b860151905061034062000cfd868201836001600160401b03169052565b860151905061036062000d158682018361ffff169052565b860151905061038062000d2f8682018363ffffffff169052565b86015190506103a062000d498682018363ffffffff169052565b86015190506103c062000d66868201836001600160401b03169052565b86015190506103e062000d83868201836001600160801b03169052565b860151905061040062000d9b8682018361ffff169052565b860151905061042062000db38682018361ffff169052565b860151905061044062000dd0868201836001600160801b03169052565b860151905061046062000ded868201836001600160401b03169052565b860151905061048062000e0a868201836001600160401b03169052565b86015190506104a062000e27868201836001600160401b03169052565b86015190506104c062000e44868201836001600160401b03169052565b86015190506104e062000e61868201836001600160401b03169052565b860151905061050062000e7e868201836001600160401b03169052565b860151905061052062000e9b868201836001600160401b03169052565b860151905061054062000eb8868201836001600160401b03169052565b860151905061056062000ed28682018363ffffffff169052565b860151905061058062000eef868201836001600160401b03169052565b86015190506105a062000f0c868201836001600160401b03169052565b86015190506105c062000f29868201836001600160401b03169052565b86015190506105e062000f46868201836001600160401b03169052565b860151905061060062000f63868201836001600160401b03169052565b9095015163ffffffff1693019290925250919050565b6003811062000f9857634e487b7160e01b600052602160045260246000fd5b9052565b60006020808301818452808551808352604092508286019150828160051b87010184880160005b838110156200108557603f19898403018552815161014062000fe785835162000f79565b888201516001600160a01b0316858a015287820151888601526060808301519086015260808083015115159086015260a080830151818701839052620010308388018262000a27565b9250505060c080830151868303828801526200104d838262000a27565b60e085810151908901526101008086015190890152610120948501519490970193909352505050938601939086019060010162000fc3565b509098975050505050505050565b602081526000620010a8602083018462000a27565b9392505050565b60008251620010c381846020870162000304565b9190910192915050565b61608c80620010dd6000396000f3fe6080604052600436106104475760003560e01c80637e7bfdc611610234578063c0674b461161012e578063ec96c1c9116100b6578063f060b3f11161007a578063f060b3f114610def578063f0c0b72514610e0f578063f19d3c0614610e3a578063f4d000b214610e5a578063f6073bdf14610e7a57600080fd5b8063ec96c1c914610d4d578063ed000b3014610d6f578063ed3762aa14610d8f578063eebbcd5514610daf578063f056af4214610dcf57600080fd5b8063e1c50100116100fd578063e1c5010014610c94578063e415339c14610ccd578063e7732f9114610ced578063e95a0bfd14610d0d578063eb81ca6314610d2d57600080fd5b8063c0674b4614610c14578063d6b93a9f14610c34578063d9d7146314610c54578063de79b8a214610c7457600080fd5b80639584da2a116101bc578063b68af97e11610180578063b68af97e14610b73578063b7f658ab14610b86578063b928b53314610ba6578063bcbaf48714610bc6578063bd60353514610c0157600080fd5b80639584da2a14610ad0578063a046394a14610af0578063a07ea7af14610b10578063b19aec1714610b30578063b5a488a614610b5e57600080fd5b806384807e8d1161020357806384807e8d14610a3b5780638541cc0514610a4e57806385b4bb5314610a6e57806387375f2714610a9057806388b7b33614610ab057600080fd5b80637e7bfdc6146109b65780638003314d146109d657806382dede2614610a045780638456cb5914610a2657600080fd5b80633f4ba83a11610345578063612007e5116102cd57806375a5346a1161029157806375a5346a14610921578063778aadd5146109415780637a2cf412146109615780637b3477c3146109815780637c7db1a5146109a157600080fd5b8063612007e51461086157806365454f941461088157806366a37046146108a15780636e61164f146108c1578063700104f71461090157600080fd5b80634f4fbfca116103145780634f4fbfca146107905780635252f3a2146107b057806353777730146107e85780635c975abb146108145780635e71055c1461084157600080fd5b80633f4ba83a146107195780634610bc231461072e578063469052ad1461075b5780634942f65f1461077b57600080fd5b8063177d0307116103d357806329ff13081161039757806329ff1308146106795780632dabf2d014610699578063345cf8ab146106b9578063368a3593146106d95780633851b614146106f957600080fd5b8063177d0307146105ca578063194307bf146106045780631e8bee0114610619578063249f1b591461063957806324b76fd51461065957600080fd5b80630c08bf881161041a5780630c08bf881461051a5780630c3cdae71461052f5780630ffb0e861461054f57806313199ee01461057d578063152052b01461059d57600080fd5b806301ffc9a71461044c57806302312aec1461048157806304203930146104ab5780630877acff146104cd575b600080fd5b34801561045857600080fd5b5061046c6104673660046137ff565b610e9a565b60405190151581526020015b60405180910390f35b34801561048d57600080fd5b50610496610eec565b60408051928352602083019190915201610478565b3480156104b757600080fd5b506104cb6104c636600461383e565b610f43565b005b3480156104d957600080fd5b507fec7e8c1c441439dd40959777f4c577ea0cd42fcc1dbe59d2bd0f5d9c55df8ddd546001600160401b03620100008204811691600160501b900416610496565b34801561052657600080fd5b506104cb610fb2565b34801561053b57600080fd5b506104cb61054a36600461385b565b6110b2565b34801561055b57600080fd5b5061056f61056a3660046139d6565b611127565b604051908152602001610478565b34801561058957600080fd5b506104cb610598366004613a56565b6111b0565b3480156105a957600080fd5b506105bd6105b836600461383e565b611228565b6040516104789190613b11565b3480156105d657600080fd5b507fec7e8c1c441439dd40959777f4c577ea0cd42fcc1dbe59d2bd0f5d9c55df8dcb5463ffffffff1661056f565b34801561061057600080fd5b5061046c6113f7565b34801561062557600080fd5b5061056f61063436600461383e565b611467565b34801561064557600080fd5b506104cb610654366004613d67565b6114e7565b34801561066557600080fd5b5061056f610674366004613db8565b611565565b34801561068557600080fd5b506104cb610694366004613dfe565b6115f3565b3480156106a557600080fd5b5061056f6106b4366004613e37565b61163b565b3480156106c557600080fd5b506104cb6106d4366004613e68565b61167a565b3480156106e557600080fd5b5061056f6106f4366004613eae565b6116b3565b34801561070557600080fd5b5061056f61071436600461383e565b611704565b34801561072557600080fd5b506104cb611747565b34801561073a57600080fd5b5061074e610749366004613ec7565b6117bc565b6040516104789190613fae565b34801561076757600080fd5b506104cb610776366004613e37565b61189c565b34801561078757600080fd5b5061056f6118e9565b34801561079c57600080fd5b506104cb6107ab366004613fd4565b61196c565b3480156107bc57600080fd5b506107d06107cb36600461383e565b6119a3565b6040516001600160a01b039091168152602001610478565b3480156107f457600080fd5b5060008051602061603783398151915254600160401b900460ff1661046c565b34801561082057600080fd5b50600080516020616037833981519152546001600160401b0316151561046c565b34801561084d57600080fd5b5061056f61085c36600461383e565b6119be565b34801561086d57600080fd5b506104cb61087c36600461383e565b611a01565b34801561088d57600080fd5b506104cb61089c36600461383e565b611a41565b3480156108ad57600080fd5b506104cb6108bc366004614023565b611a81565b3480156108cd57600080fd5b506108e16108dc36600461383e565b611ac2565b604080516001600160a01b03938416815292909116602083015201610478565b34801561090d57600080fd5b5061046c61091c366004613dfe565b611b4b565b34801561092d57600080fd5b506104cb61093c36600461383e565b611bd2565b34801561094d57600080fd5b506104cb61095c366004613dfe565b611c12565b34801561096d57600080fd5b506104cb61097c366004613dfe565b611c5a565b34801561098d57600080fd5b506104cb61099c366004614058565b611ca2565b3480156109ad57600080fd5b506107d0611ce3565b3480156109c257600080fd5b506104cb6109d136600461409c565b611ced565b3480156109e257600080fd5b506109f66109f1366004614121565b611d30565b604051610478929190614143565b348015610a1057600080fd5b50610a19611dc1565b60405161047891906141c1565b348015610a3257600080fd5b506104cb611e34565b6104cb610a49366004614058565b611e9c565b348015610a5a57600080fd5b506104cb610a69366004614223565b611f23565b348015610a7a57600080fd5b50610a83611fb5565b604051610478919061426b565b348015610a9c57600080fd5b506104cb610aab366004614779565b612492565b348015610abc57600080fd5b506107d0610acb3660046147c1565b6124d3565b348015610adc57600080fd5b5061056f610aeb366004613e37565b612559565b348015610afc57600080fd5b506104cb610b0b36600461481a565b6125a3565b348015610b1c57600080fd5b506104cb610b2b36600461383e565b6125e3565b348015610b3c57600080fd5b50610b50610b4b366004614121565b612623565b60405161047892919061484f565b348015610b6a57600080fd5b506107d06126a9565b6104cb610b8136600461383e565b6126b3565b348015610b9257600080fd5b506104cb610ba136600461383e565b61277d565b348015610bb257600080fd5b506104cb610bc13660046148b9565b6127bd565b348015610bd257600080fd5b50610be6610be1366004613e37565b6127f5565b60408051938452602084019290925290820152606001610478565b6104cb610c0f3660046148d6565b612893565b348015610c2057600080fd5b506104cb610c2f36600461383e565b61291c565b348015610c4057600080fd5b5061046c610c4f366004613dfe565b61295c565b348015610c6057600080fd5b5061056f610c6f366004613e37565b612970565b348015610c8057600080fd5b506104cb610c8f366004613e68565b6129ae565b348015610ca057600080fd5b50610cb4610caf36600461383e565b6129e7565b6040805160ff9093168352602083019190915201610478565b348015610cd957600080fd5b50610b50610ce8366004614121565b612a91565b348015610cf957600080fd5b506104cb610d0836600461490b565b612ad6565b348015610d1957600080fd5b506104cb610d2836600461385b565b612b0f565b348015610d3957600080fd5b506104cb610d48366004614944565b612b33565b348015610d5957600080fd5b50610d62612b76565b60405161047891906149b0565b348015610d7b57600080fd5b506104cb610d8a3660046149c3565b612b80565b348015610d9b57600080fd5b5061056f610daa36600461383e565b612bcf565b348015610dbb57600080fd5b506104cb610dca3660046149e3565b612c12565b348015610ddb57600080fd5b506104cb610dea36600461481a565b612c51565b348015610dfb57600080fd5b506104cb610e0a366004614a17565b612c9a565b348015610e1b57600080fd5b50600080516020616017833981519152546001600160a01b03166107d0565b348015610e4657600080fd5b506104cb610e55366004614a82565b612d0d565b348015610e6657600080fd5b506104cb610e7536600461383e565b612d50565b348015610e8657600080fd5b506104cb610e95366004614afd565b612d90565b60006001600160e01b031982166301ffc9a760e01b1480610ecb57506001600160e01b03198216631aeebff760e01b145b80610ee657506001600160e01b0319821663142fdefb60e31b145b92915050565b600080600080516020616017833981519152610f0e610f09612dc7565b612e49565b600d820154909350600160901b90046001600160401b0316610f326009600a614c2b565b610f3c9190614c37565b9150509091565b60405163b42652e960e01b81526001600160a01b038216600482015273__$4054b81dd018f00b16b0262e280b71bd3d$__9063b42652e9906024015b60006040518083038186803b158015610f9757600080fd5b505af4158015610fab573d6000803e3d6000fd5b5050505050565b610fba612e5f565b60008051602061603783398151915254600080516020616017833981519152906001600160401b03161580159061100b575060288101546110089062278d00906001600160401b0316614c4e565b42115b61105c5760405162461bcd60e51b815260206004820152601f60248201527f6173736574206d616e61676572206e6f742070617573656420656e6f7567680060448201526064015b60405180910390fd5b611064612ec8565b6001600160a01b0316630c08bf886040518163ffffffff1660e01b8152600401600060405180830381600087803b15801561109e57600080fd5b505af1158015610fab573d6000803e3d6000fd5b73__$f7c9c0d01068167c22df35ff5943b62148$__63247f29bc836110d684612ef6565b6040518363ffffffff1660e01b81526004016110f3929190614d32565b60006040518083038186803b15801561110b57600080fd5b505af415801561111f573d6000803e3d6000fd5b505050505050565b60405163ccfb491360e01b815260009073__$df85e949fff37977e0d300eb10fcbb4998$__9063ccfb49139061116590879087908790600401614e30565b602060405180830381865af4158015611182573d6000803e3d6000fd5b505050506040513d601f19601f820116820180604052508101906111a69190614e64565b90505b9392505050565b6111b8612e5f565b60405163031836db60e41b815273__$b5cdffcf5b8f8ae6fa06e08eee0b808a00$__906331836db0906111f390869086908690600401614e7d565b60006040518083038186803b15801561120b57600080fd5b505af415801561121f573d6000803e3d6000fd5b50505050505050565b611377604080516105008101909152806000815260200160006001600160a01b0316815260200160006001600160a01b0316815260200160006001600160a01b0316815260200160608152602001600015158152602001600081526020016000815260200160006001600160a01b03168152602001600081526020016000815260200160008152602001600081526020016000815260200160008152602001600081526020016000815260200160008152602001600081526020016000815260200160008152602001600081526020016000815260200160008152602001600081526020016000815260200160008152602001600081526020016000815260200160008152602001600081526020016000815260200160008152602001600081526020016000815260200160008152602001600081526020016000815260200160008152602001600081525090565b604051630152052b60e41b81526001600160a01b038316600482015273__$ec55c6bae1638b00bbedb6b751f1f84e77$__9063152052b090602401600060405180830381865af41580156113cf573d6000803e3d6000fd5b505050506040513d6000823e601f3d908101601f19168201604052610ee69190810190614f1c565b6000611401612ec8565b6001600160a01b031663194307bf6040518163ffffffff1660e01b8152600401602060405180830381865afa15801561143e573d6000803e3d6000fd5b505050506040513d601f19601f82011682018060405250810190611462919061515f565b905090565b604051631e8bee0160e01b81526001600160a01b038216600482015260009073__$4ff30c53c077284d3b777228e6ae31216c$__90631e8bee01906024015b602060405180830381865af41580156114c3573d6000803e3d6000fd5b505050506040513d601f19601f82011682018060405250810190610ee69190614e64565b6114ef612e5f565b60405163314768f160e11b815273__$b5cdffcf5b8f8ae6fa06e08eee0b808a00$__9063628ed1e29061152e908890889088908890889060040161517c565b60006040518083038186803b15801561154657600080fd5b505af415801561155a573d6000803e3d6000fd5b505050505050505050565b600061156f612f62565b73__$4ff30c53c077284d3b777228e6ae31216c$__6326e68cd43361159386612ef6565b856040518463ffffffff1660e01b81526004016115b2939291906151b3565b602060405180830381865af41580156115cf573d6000803e3d6000fd5b505050506040513d601f19601f820116820180604052508101906111a99190614e64565b60405163c61ce7dd60e01b81526001600160a01b0380841660048301528216602482015273__$c7446ca28182994c6c0135601399c1b584$__9063c61ce7dd906044016110f3565b60405163a43ba5ab60e01b815260009073__$c7446ca28182994c6c0135601399c1b584$__9063a43ba5ab906115b29060029087908790600401614e7d565b60405163961b008960e01b815273__$900ca2dd89aa7bd7c22612e1484fcfb277$__9063961b0089906110f39085908590600401615341565b600073__$f7c9c0d01068167c22df35ff5943b62148$__630c7dcd156116d884612ef6565b6040516001600160e01b031960e084901b1681526001600160401b0390911660048201526024016114a6565b60405163fdf6b37560e01b81526001600160a01b038216600482015260009073__$4054b81dd018f00b16b0262e280b71bd3d$__9063fdf6b375906024016114a6565b61174f612e5f565b6000805160206160178339815191526117666113f7565b156117a85760405162461bcd60e51b8152602060048201526012602482015271198b585cdcd95d081d195c9b5a5b985d195960721b6044820152606401611053565b602801805467ffffffffffffffff19169055565b61181e604080516101408101909152806000815260200160006001600160a01b03168152602001600081526020016000815260200160001515815260200160608152602001606081526020016000815260200160008152602001600081525090565b604051631107361560e01b815273__$b5cdffcf5b8f8ae6fa06e08eee0b808a00$__90631107361590611857908690869060040161536b565b600060405180830381865af4158015611874573d6000803e3d6000fd5b505050506040513d6000823e601f3d908101601f191682016040526111a99190810190615473565b6040516325165ca760e11b81526001600160a01b03831660048201523360248201526044810182905273__$c7446ca28182994c6c0135601399c1b584$__90634a2cb94e906064016110f3565b7fec7e8c1c441439dd40959777f4c577ea0cd42fcc1dbe59d2bd0f5d9c55df8dc3547fec7e8c1c441439dd40959777f4c577ea0cd42fcc1dbe59d2bd0f5d9c55df8dc4546000916000805160206160178339815191529161195d91600160901b90046001600160401b0390811691166154a7565b6001600160401b031691505090565b604051630497cc7360e41b815273__$722590fcf677171437eb48cf082465d6d7$__9063497cc73090610f7f9084906004016155bb565b60006119ae8261304e565b546001600160a01b031692915050565b60405163e4c5e4e960e01b81526001600160a01b038216600482015260009073__$8ed6b3b04009dff171844b9d72c92eddd0$__9063e4c5e4e9906024016114a6565b604051630877cd8160e41b81526001600160a01b038216600482015273__$4054b81dd018f00b16b0262e280b71bd3d$__9063877cd81090602401610f7f565b60405163195153e560e21b81526001600160a01b038216600482015273__$c7446ca28182994c6c0135601399c1b584$__906365454f9490602401610f7f565b611a89612f62565b60405163e512e75360e01b815273__$d15fd82c1987b4adc4c1dba5cf0be762b0$__9063e512e753906110f3908590859060040161569e565b604051636e61164f60e01b81526001600160a01b0382166004820152600090819073__$c7446ca28182994c6c0135601399c1b584$__90636e61164f906024016040805180830381865af4158015611b1e573d6000803e3d6000fd5b505050506040513d601f19601f82011682018060405250810190611b4291906156b1565b91509150915091565b604051636a79d06960e11b81526001600160a01b0380841660048301528216602482015260009073__$c7446ca28182994c6c0135601399c1b584$__9063d4f3a0d290604401602060405180830381865af4158015611bae573d6000803e3d6000fd5b505050506040513d601f19601f820116820180604052508101906111a9919061515f565b604051633ad29a3560e11b81526001600160a01b038216600482015273__$8ed6b3b04009dff171844b9d72c92eddd0$__906375a5346a90602401610f7f565b60405163778aadd560e01b81526001600160a01b0380841660048301528216602482015273__$8ed6b3b04009dff171844b9d72c92eddd0$__9063778aadd5906044016110f3565b60405163e3d7785160e01b81526001600160a01b0380841660048301528216602482015273__$c7446ca28182994c6c0135601399c1b584$__9063e3d77851906044016110f3565b73__$2121826b9482dc4a95d5f1c5bc0ffbdf06$__634b6bee8783611cc684612ef6565b6040518363ffffffff1660e01b81526004016110f39291906156e0565b6000611462612ec8565b611cf5612f62565b604051631da71bad60e11b815273__$d15fd82c1987b4adc4c1dba5cf0be762b0$__90633b4e375a906111f39086908690869060040161570b565b60405163825378af60e01b8152600481018390526024810182905260609060009073__$4054b81dd018f00b16b0262e280b71bd3d$__9063825378af90604401600060405180830381865af4158015611d8d573d6000803e3d6000fd5b505050506040513d6000823e601f3d908101601f19168201604052611db591908101906157b5565b915091505b9250929050565b606073__$b5cdffcf5b8f8ae6fa06e08eee0b808a00$__63d80516a56040518163ffffffff1660e01b8152600401600060405180830381865af4158015611e0c573d6000803e3d6000fd5b505050506040513d6000823e601f3d908101601f191682016040526114629190810190615897565b611e3c612e5f565b60008051602061603783398151915254600080516020616017833981519152906001600160401b0316600003611e9957611e7542612ef6565b60288201805467ffffffffffffffff19166001600160401b03929092169190911790555b50565b611ea46130f5565b73__$f7c9c0d01068167c22df35ff5943b62148$__63471b421e83611ec884612ef6565b6040518363ffffffff1660e01b8152600401611ee59291906156e0565b60006040518083038186803b158015611efd57600080fd5b505af4158015611f11573d6000803e3d6000fd5b50505050611f1f6001600055565b5050565b611f2b61314e565b611f336130f5565b73__$db99a4b0b1a8936beb7122d8143ea3b698$__63333203338484611f5885612ef6565b6040518463ffffffff1660e01b8152600401611f7693929190615947565b60006040518083038186803b158015611f8e57600080fd5b505af4158015611fa2573d6000803e3d6000fd5b50505050611fb06001600055565b505050565b604080516106208101825260008082526020820181905291810182905260608082018390526080820183905260a082015260c0810182905260e08101829052610100810182905261012081018290526101408101829052610160810182905261018081018290526101a081018290526101c081018290526101e08101829052610200810182905261022081018290526102408101829052610260810182905261028081018290526102a081018290526102c081018290526102e08101829052610300810182905261032081018290526103408101829052610360810182905261038081018290526103a081018290526103c081018290526103e08101829052610400810182905261042081018290526104408101829052610460810182905261048081018290526104a081018290526104c081018290526104e08101829052610500810182905261052081018290526105408101829052610560810182905261058081018290526105a081018290526105c081018290526105e08101829052610600810191909152600080516020616017833981519152604080516106208101825282546001600160a01b03908116825260018401548116602083015260028401548116928201929092526003830154821660608201526004830154909116608082015260058201805491929160a0840191906121b190615983565b80601f01602080910402602001604051908101604052809291908181526020018280546121dd90615983565b801561222a5780601f106121ff5761010080835404028352916020019161222a565b820191906000526020600020905b81548152906001019060200180831161220d57829003601f168201915b505050918352505060068201546001600160a01b039081166020830152600783015481166040830152600883015481166060830152600983015481166080830152600a830154811660a0830152600b83015490811660c083015260ff600160a01b808304821660e0850152600160a81b9092048116610100840152600c840154610120840152600d84015463ffffffff8082166101408601526401000000008204811661016086015261ffff600160401b80840482166101808801526001600160401b03600160501b80860482166101a08a0152600160901b9586900482166101c08a0152600e8a01548083166101e08b015283810485166102008b015281810490971615156102208a0152600160581b870482166102408a0152600160981b9096048116610260890152600f8901548082166102808a015282810484166102a08a015295860484166102c0890152600160701b860484166102e089015294849004851661030088015260108801546001600160801b038082166103208a0152600160801b80830485166103408b015295909104909216610360880152601188015491821661038088015283820485166103a0880152600160c01b9182900485166103c088015260128801548086166103e08901528181048616610400890152848104861661042089015282900485166104408801526013880154808616610460890152818104861661048089015284810484166104a08901529590950484166104c087015260148701548085166104e08801529485048416610500870152918404831661052086015292041661054083015260159092015490911661056090910152919050565b73__$4ff30c53c077284d3b777228e6ae31216c$__63da8e273d836124b684612ef6565b6040518363ffffffff1660e01b81526004016110f3929190615b8a565b60006124dd61314e565b604051631996db7360e11b815273__$8ed6b3b04009dff171844b9d72c92eddd0$__9063332db6e69061251890309087908790600401615b9d565b602060405180830381865af4158015612535573d6000803e3d6000fd5b505050506040513d601f19601f820116820180604052508101906111a99190615c6b565b604051634ac26d1560e11b81526001600160a01b03831660048201526024810182905260009073__$4ff30c53c077284d3b777228e6ae31216c$__90639584da2a906044016115b2565b73__$305ac64b111b0d775ac583a3c3f22849b9$__62e97928836125c684612ef6565b6040518363ffffffff1660e01b81526004016110f3929190615c88565b60405163a07ea7af60e01b81526001600160a01b038216600482015273__$900ca2dd89aa7bd7c22612e1484fcfb277$__9063a07ea7af90602401610f7f565b60405163b19aec1760e01b8152600481018390526024810182905260609060009073__$c7446ca28182994c6c0135601399c1b584$__9063b19aec17906044015b600060405180830381865af4158015612681573d6000803e3d6000fd5b505050506040513d6000823e601f3d908101601f19168201604052611db59190810190615c9b565b60006114626131a3565b6126bb6130f5565b6126c36113f7565b6127085760405162461bcd60e51b8152602060048201526016602482015275198b585cdcd95d081b9bdd081d195c9b5a5b985d195960521b6044820152606401611053565b604051635b457cbf60e11b81526001600160a01b038216600482015273__$8ed6b3b04009dff171844b9d72c92eddd0$__9063b68af97e9060240160006040518083038186803b15801561275b57600080fd5b505af415801561276f573d6000803e3d6000fd5b50505050611e996001600055565b60405163b7f658ab60e01b81526001600160a01b038216600482015273__$55e854ab37cd1bbaf9fa5a4f99ff154ced$__9063b7f658ab90602401610f7f565b6127c5612e5f565b6000805160206160378339815191528054911515600160401b0268ff000000000000000019909216919091179055565b6000806000612802612f62565b60405163bcbaf48760e01b81526001600160a01b03861660048201526024810185905273__$55e854ab37cd1bbaf9fa5a4f99ff154ced$__9063bcbaf48790604401606060405180830381865af4158015612861573d6000803e3d6000fd5b505050506040513d601f19601f820116820180604052508101906128859190615d3c565b919790965090945092505050565b61289b61314e565b6128a3612f62565b73__$f7c9c0d01068167c22df35ff5943b62148$__63f2821a6233856128c886612ef6565b6128d186612ef6565b6040516001600160e01b031960e087901b1681526001600160a01b0394851660048201529390921660248401526001600160401b0390811660448401521660648201526084016111f3565b604051636033a5a360e11b81526001600160a01b038216600482015273__$900ca2dd89aa7bd7c22612e1484fcfb277$__9063c0674b4690602401610f7f565b60006111a961296a8461304e565b83613231565b60405163a43ba5ab60e01b815260009073__$c7446ca28182994c6c0135601399c1b584$__9063a43ba5ab906115b290849087908790600401614e7d565b604051631b4952bf60e11b815273__$1c6dbe76071682217e38af6fe7e8685bd4$__90633692a57e906110f39085908590600401615341565b6000806129f2612f62565b60405162e1c50160e81b81526001600160a01b0384166004820152600090819073__$55e854ab37cd1bbaf9fa5a4f99ff154ced$__9063e1c50100906024016040805180830381865af4158015612a4d573d6000803e3d6000fd5b505050506040513d601f19601f82011682018060405250810190612a719190615d6a565b91509150816002811115612a8757612a87613a97565b9590945092505050565b6040516315302d6160e31b8152600481018390526024810182905260609060009073__$4054b81dd018f00b16b0262e280b71bd3d$__9063a9816b0890604401612664565b6040516331ec097760e01b815273__$df85e949fff37977e0d300eb10fcbb4998$__906331ec0977906110f39085908590600401615d98565b73__$2121826b9482dc4a95d5f1c5bc0ffbdf06$__63f71ab416836110d684612ef6565b612b3b612f62565b604051635e9a8dfd60e11b815273__$d15fd82c1987b4adc4c1dba5cf0be762b0$__9063bd351bfa906111f390869086908690600401615dbc565b606061146261328b565b604051630ed000b360e41b81526001600160a01b038085166004830152831660248201526044810182905273__$4ff30c53c077284d3b777228e6ae31216c$__9063ed000b30906064016111f3565b60405163769bb15560e11b81526001600160a01b038216600482015260009073__$c7446ca28182994c6c0135601399c1b584$__9063ed3762aa906024016114a6565b612c1a612e5f565b60405163839eddcd60e01b815273__$b5cdffcf5b8f8ae6fa06e08eee0b808a00$__9063839eddcd90610f7f908490600401615dfa565b612c596130f5565b73__$db99a4b0b1a8936beb7122d8143ea3b698$__639060659983612c7d84612ef6565b6040518363ffffffff1660e01b8152600401611ee5929190615c88565b60405163f060b3f160e01b815273__$4ff30c53c077284d3b777228e6ae31216c$__9063f060b3f190612cd7908790879087908790600401615ed5565b60006040518083038186803b158015612cef57600080fd5b505af4158015612d03573d6000803e3d6000fd5b5050505050505050565b612d15612e5f565b6040516302fab52b60e01b815273__$498fae630e5f9e2b0d2f5a14b70bbf8a29$__906302fab52b906111f390869086908690600401615f08565b604051637a68005960e11b81526001600160a01b038216600482015273__$c7446ca28182994c6c0135601399c1b584$__9063f4d000b290602401610f7f565b604051638323a0a960e01b815273__$8ed6b3b04009dff171844b9d72c92eddd0$__90638323a0a990610f7f908490600401615f22565b7fec7e8c1c441439dd40959777f4c577ea0cd42fcc1dbe59d2bd0f5d9c55df8ddd547fec7e8c1c441439dd40959777f4c577ea0cd42fcc1dbe59d2bd0f5d9c55df8dcc8054600092600080516020616017833981519152929161ffff909116908110612e3557612e35615f35565b906000526020600020906004020191505090565b6000612e5682600061330d565b50909392505050565b600080516020616017833981519152546001600160a01b03163314612ec65760405162461bcd60e51b815260206004820152601d60248201527f6f6e6c79206173736574206d616e6167657220636f6e74726f6c6c65720000006044820152606401611053565b565b7fec7e8c1c441439dd40959777f4c577ea0cd42fcc1dbe59d2bd0f5d9c55df8db7546001600160a01b031690565b60006001600160401b03821115612f5e5760405162461bcd60e51b815260206004820152602660248201527f53616665436173743a2076616c756520646f65736e27742066697420696e203660448201526534206269747360d01b6064820152608401611053565b5090565b7fec7e8c1c441439dd40959777f4c577ea0cd42fcc1dbe59d2bd0f5d9c55df8dbc54600080516020616017833981519152906001600160a01b031615611e99576006810154604051633af32abf60e01b81523360048201526001600160a01b0390911690633af32abf90602401602060405180830381865afa158015612fec573d6000803e3d6000fd5b505050506040513d601f19601f82011682018060405250810190613010919061515f565b611e995760405162461bcd60e51b815260206004820152600f60248201526e1b9bdd081dda1a5d195b1a5cdd1959608a1b6044820152606401611053565b7f5bebac0595fee029d42bb673937f5f1cb81cf8641382bc17774635de9b7d796568010000000000000000600160e01b03604083901b161880600060048084015460ff16908111156130a2576130a2613a97565b036130ef5760405162461bcd60e51b815260206004820152601b60248201527f696e76616c6964206167656e74207661756c74206164647265737300000000006044820152606401611053565b50919050565b6002600054036131475760405162461bcd60e51b815260206004820152601f60248201527f5265656e7472616e637947756172643a207265656e7472616e742063616c6c006044820152606401611053565b6002600055565b60008051602061603783398151915254600160401b900460ff16612ec65760405162461bcd60e51b815260206004820152600c60248201526b1b9bdd08185d1d1858da195960a21b6044820152606401611053565b7fec7e8c1c441439dd40959777f4c577ea0cd42fcc1dbe59d2bd0f5d9c55df8ddd547fec7e8c1c441439dd40959777f4c577ea0cd42fcc1dbe59d2bd0f5d9c55df8dcc8054600092600080516020616017833981519152929161ffff90911690811061321157613211615f35565b60009182526020909120600490910201546001600160a01b031692915050565b6001820154600090600080516020616017833981519152906001600160a01b0390811690841681148061328257506001600160a01b0380821660009081526019840160205260409020548582169116145b95945050505050565b7fec7e8c1c441439dd40959777f4c577ea0cd42fcc1dbe59d2bd0f5d9c55df8dbf546040805160048152602481019091526020810180516001600160e01b03166385b4bb5360e01b1790526060916001600160a01b03169060006132ef83836134cc565b9050808060200190518101906133059190615f4b565b935050505090565b6000806000806000806133ac88600101805461332890615983565b80601f016020809104026020016040519081016040528092919081815260200182805461335490615983565b80156133a15780601f10613376576101008083540402835291602001916133a1565b820191906000526020600020905b81548152906001019060200180831161338457829003601f168201915b5050505050886134e0565b8a549295509093509150600160f01b900460ff16156133f35787546000906133e290600160a81b900460ff1660018387866135ce565b96509194508493506134c592505050565b600080600061348e8b600201805461340a90615983565b80601f016020809104026020016040519081016040528092919081815260200182805461343690615983565b80156134835780601f1061345857610100808354040283529160200191613483565b820191906000526020600020905b81548152906001019060200180831161346657829003601f168201915b50505050508b6134e0565b8d5492955090935091506000906134b290600160a81b900460ff1685848a896135ce565b99509497509095506134c5945050505050565b9250925092565b606061365580613282858563ffffffff8416565b7fec7e8c1c441439dd40959777f4c577ea0cd42fcc1dbe59d2bd0f5d9c55df8dc15460009081908190600080516020616017833981519152906001600160a01b031685156135a25760405163e4a0a55b60e01b81526001600160a01b0382169063e4a0a55b90613554908a906004016149b0565b606060405180830381865afa158015613571573d6000803e3d6000fd5b505050506040513d601f19601f820116820180604052508101906135959190615d3c565b94509450945050506134c5565b60405163524f388960e01b81526001600160a01b0382169063524f388990613554908a906004016149b0565b60006000805160206160178339815191528160096135ec878a614c4e565b6135f69190614c4e565b600b830154909150600090613616908690600160a81b900460ff16614c4e565b90508082101561362857613628615f93565b6136486136358284615fa9565b61364090600a614c2b565b87908a6136d9565b9998505050505050505050565b6060600080846001600160a01b0316846040516136729190615fbc565b600060405180830381855af49150503d80600081146136ad576040519150601f19603f3d011682016040523d82523d6000602084013e6136b2565b606091505b509150915081156136c6579150610ee69050565b3d604051818101604052816000823e8181fd5b600080821161371d5760405162461bcd60e51b815260206004820152601060248201526f4469766973696f6e206279207a65726f60801b6044820152606401611053565b8360000361372d575060006111a9565b8383028385828161374057613740615fd8565b040361375e5782818161375557613755615fd8565b049150506111a9565b50600061376b8386615fee565b905060006137798487616002565b905060006137878587615fee565b905060006137958688616002565b9050856137a28285614c37565b6137ac9190615fee565b6137b68385614c37565b6137c08387614c37565b886137cb8689614c37565b6137d59190614c37565b6137df9190614c4e565b6137e99190614c4e565b6137f39190614c4e565b98975050505050505050565b60006020828403121561381157600080fd5b81356001600160e01b0319811681146111a957600080fd5b6001600160a01b0381168114611e9957600080fd5b60006020828403121561385057600080fd5b81356111a981613829565b6000806040838503121561386e57600080fd5b82356001600160401b0381111561388457600080fd5b83016101c0818603121561389757600080fd5b946020939093013593505050565b634e487b7160e01b600052604160045260246000fd5b60405161050081016001600160401b03811182821017156138de576138de6138a5565b60405290565b60405161014081016001600160401b03811182821017156138de576138de6138a5565b60405160a081016001600160401b03811182821017156138de576138de6138a5565b604051601f8201601f191681016001600160401b0381118282101715613951576139516138a5565b604052919050565b60006001600160401b03821115613972576139726138a5565b50601f01601f191660200190565b600082601f83011261399157600080fd5b81356139a461399f82613959565b613929565b8181528460208386010111156139b957600080fd5b816020850160208301376000918101602001919091529392505050565b6000806000606084860312156139eb57600080fd5b83356139f681613829565b925060208401356001600160401b03811115613a1157600080fd5b613a1d86828701613980565b925050604084013590509250925092565b60038110611e9957600080fd5b8035613a4681613a2e565b919050565b8035613a4681613829565b600080600060608486031215613a6b57600080fd5b8335613a7681613a2e565b92506020840135613a8681613829565b929592945050506040919091013590565b634e487b7160e01b600052602160045260246000fd5b60058110613abd57613abd613a97565b9052565b60005b83811015613adc578181015183820152602001613ac4565b50506000910152565b60008151808452613afd816020860160208601613ac1565b601f01601f19169290920160200192915050565b60208152613b23602082018351613aad565b60006020830151613b3f60408401826001600160a01b03169052565b5060408301516001600160a01b03811660608401525060608301516001600160a01b03811660808401525060808301516105008060a0850152613b86610520850183613ae5565b915060a0850151613b9b60c086018215159052565b5060c085015160e085015260e0850151610100818187015280870151915050610120613bd1818701836001600160a01b03169052565b8601516101408681019190915286015161016080870191909152860151610180808701919091528601516101a0808701919091528601516101c0808701919091528601516101e08087019190915286015161020080870191909152860151610220808701919091528601516102408087019190915286015161026080870191909152860151610280808701919091528601516102a0808701919091528601516102c0808701919091528601516102e08087019190915286015161030080870191909152860151610320808701919091528601516103408087019190915286015161036080870191909152860151610380808701919091528601516103a0808701919091528601516103c0808701919091528601516103e08087019190915286015161040080870191909152860151610420808701919091528601516104408087019190915286015161046080870191909152860151610480808701919091528601516104a0808701919091528601516104c0808701919091528601516104e0808701919091529095015193019290925250919050565b600080600080600060a08688031215613d7f57600080fd5b8535613d8a81613a2e565b94506020860135613d9a81613829565b94979496505050506040830135926060810135926080909101359150565b60008060408385031215613dcb57600080fd5b8235915060208301356001600160401b03811115613de857600080fd5b613df485828601613980565b9150509250929050565b60008060408385031215613e1157600080fd5b8235613e1c81613829565b91506020830135613e2c81613829565b809150509250929050565b60008060408385031215613e4a57600080fd5b823561389781613829565b600061028082840312156130ef57600080fd5b60008060408385031215613e7b57600080fd5b82356001600160401b03811115613e9157600080fd5b613e9d85828601613e55565b9250506020830135613e2c81613829565b600060208284031215613ec057600080fd5b5035919050565b60008060408385031215613eda57600080fd5b8235613e1c81613a2e565b60038110611e9957611e99613a97565b613abd81613ee5565b6000610140613f0e848451613ef5565b6020830151613f2860208601826001600160a01b03169052565b5060408301516040850152606083015160608501526080830151613f50608086018215159052565b5060a08301518160a0860152613f6882860182613ae5565b91505060c083015184820360c0860152613f828282613ae5565b60e085810151908701526101008086015190870152610120948501519490950193909352509192915050565b6020815260006111a96020830184613efe565b600061016082840312156130ef57600080fd5b600060208284031215613fe657600080fd5b81356001600160401b03811115613ffc57600080fd5b61400884828501613fc1565b949350505050565b600061018082840312156130ef57600080fd5b6000806040838503121561403657600080fd5b82356001600160401b0381111561404c57600080fd5b613e9d85828601614010565b6000806040838503121561406b57600080fd5b82356001600160401b0381111561408157600080fd5b61408d85828601613fc1565b95602094909401359450505050565b6000806000604084860312156140b157600080fd5b83356001600160401b03808211156140c857600080fd5b818601915086601f8301126140dc57600080fd5b8135818111156140eb57600080fd5b8760208260051b850101111561410057600080fd5b6020928301955093505084013561411681613829565b809150509250925092565b6000806040838503121561413457600080fd5b50508035926020909101359150565b6040808252835182820181905260009190606090818501906020808901865b838110156141ad57815180516001600160a01b031686528381015184870152878101518887015286810151878701526080908101519086015260a09094019390820190600101614162565b505095909501959095525092949350505050565b6000602080830181845280855180835260408601915060408160051b870101925083870160005b8281101561421657603f19888603018452614204858351613efe565b945092850192908501906001016141e8565b5092979650505050505050565b60008060006060848603121561423857600080fd5b83356001600160401b0381111561424e57600080fd5b61425a86828701613e55565b9350506020840135613a8681613829565b602081526142856020820183516001600160a01b03169052565b600060208301516142a160408401826001600160a01b03169052565b5060408301516001600160a01b03811660608401525060608301516001600160a01b03811660808401525060808301516001600160a01b03811660a08401525060a08301516106208060c08501526142fd610640850183613ae5565b915060c085015161431960e08601826001600160a01b03169052565b5060e0850151610100614336818701836001600160a01b03169052565b8601519050610120614352868201836001600160a01b03169052565b860151905061014061436e868201836001600160a01b03169052565b860151905061016061438a868201836001600160a01b03169052565b86015190506101806143a6868201836001600160a01b03169052565b86015190506101a06143bc8682018360ff169052565b86015190506101c06143d28682018360ff169052565b8601516101e08681019190915286015190506102006143f88187018363ffffffff169052565b86015190506102206144118682018363ffffffff169052565b86015190506102406144288682018361ffff169052565b8601519050610260614444868201836001600160401b03169052565b8601519050610280614460868201836001600160401b03169052565b86015190506102a061447c868201836001600160401b03169052565b86015190506102c06144938682018361ffff169052565b86015190506102e06144a88682018315159052565b86015190506103006144c4868201836001600160401b03169052565b86015190506103206144e0868201836001600160401b03169052565b86015190506103406144fc868201836001600160401b03169052565b86015190506103606145138682018361ffff169052565b860151905061038061452c8682018363ffffffff169052565b86015190506103a06145458682018363ffffffff169052565b86015190506103c0614561868201836001600160401b03169052565b86015190506103e061457d868201836001600160801b03169052565b86015190506104006145948682018361ffff169052565b86015190506104206145ab8682018361ffff169052565b86015190506104406145c7868201836001600160801b03169052565b86015190506104606145e3868201836001600160401b03169052565b86015190506104806145ff868201836001600160401b03169052565b86015190506104a061461b868201836001600160401b03169052565b86015190506104c0614637868201836001600160401b03169052565b86015190506104e0614653868201836001600160401b03169052565b860151905061050061466f868201836001600160401b03169052565b860151905061052061468b868201836001600160401b03169052565b86015190506105406146a7868201836001600160401b03169052565b86015190506105606146c08682018363ffffffff169052565b86015190506105806146dc868201836001600160401b03169052565b86015190506105a06146f8868201836001600160401b03169052565b86015190506105c0614714868201836001600160401b03169052565b86015190506105e0614730868201836001600160401b03169052565b860151905061060061474c868201836001600160401b03169052565b86015163ffffffff81168387015290505b5090949350505050565b6000604082840312156130ef57600080fd5b6000806040838503121561478c57600080fd5b82356001600160401b038111156147a257600080fd5b61408d85828601614767565b600061014082840312156130ef57600080fd5b600080604083850312156147d457600080fd5b82356001600160401b03808211156147eb57600080fd5b6147f786838701614767565b9350602085013591508082111561480d57600080fd5b50613df4858286016147ae565b6000806040838503121561482d57600080fd5b82356001600160401b0381111561484357600080fd5b61408d85828601613e55565b604080825283519082018190526000906020906060840190828701845b828110156148915781516001600160a01b03168452928401929084019060010161486c565b50505092019290925292915050565b8015158114611e9957600080fd5b8035613a46816148a0565b6000602082840312156148cb57600080fd5b81356111a9816148a0565b6000806000606084860312156148eb57600080fd5b83356148f681613829565b95602085013595506040909401359392505050565b6000806040838503121561491e57600080fd5b823561492981613829565b915060208301356001600160401b03811115613de857600080fd5b60008060006060848603121561495957600080fd5b83356001600160401b038082111561497057600080fd5b61497c87838801614010565b9450602086013591508082111561499257600080fd5b5061499f86828701614010565b925050604084013561411681613829565b6020815260006111a96020830184613ae5565b6000806000606084860312156149d857600080fd5b8335613a7681613829565b6000602082840312156149f557600080fd5b81356001600160401b03811115614a0b57600080fd5b614008848285016147ae565b60008060008060808587031215614a2d57600080fd5b8435614a3881613829565b93506020850135614a4881613829565b92506040850135915060608501356001600160401b03811115614a6a57600080fd5b614a7687828801613980565b91505092959194509250565b600080600060408486031215614a9757600080fd5b8335925060208401356001600160401b0380821115614ab557600080fd5b818601915086601f830112614ac957600080fd5b813581811115614ad857600080fd5b876020828501011115614aea57600080fd5b6020830194508093505050509250925092565b600060208284031215614b0f57600080fd5b81356001600160401b03811115614b2557600080fd5b61400884828501613e55565b634e487b7160e01b600052601160045260246000fd5b600181815b80851115614b82578160001904821115614b6857614b68614b31565b80851615614b7557918102915b93841c9390800290614b4c565b509250929050565b600082614b9957506001610ee6565b81614ba657506000610ee6565b8160018114614bbc5760028114614bc657614be2565b6001915050610ee6565b60ff841115614bd757614bd7614b31565b50506001821b610ee6565b5060208310610133831016604e8410600b8410161715614c05575081810a610ee6565b614c0f8383614b47565b8060001904821115614c2357614c23614b31565b029392505050565b60006111a98383614b8a565b8082028115828204841417610ee657610ee6614b31565b80820180821115610ee657610ee6614b31565b6000808335601e19843603018112614c7857600080fd5b83016020810192503590506001600160401b03811115614c9757600080fd5b8060051b3603821315611dba57600080fd5b81835260006001600160fb1b03831115614cc257600080fd5b8260051b80836020870137939093016020019392505050565b80356001600160401b0381168114613a4657600080fd5b6001600160401b0380614d0483614cdb565b16835280614d1460208401614cdb565b16602084015280614d2760408401614cdb565b166040840152505050565b604081526000614d428485614c61565b6101c06040850152614d5961020085018284614ca9565b9150506020850135606084015260408501356080840152614d7c60608601614cdb565b6001600160401b0380821660a086015280614d9960808901614cdb565b1660c086015280614dac60a08901614cdb565b1660e0860152614dbe60c08801614cdb565b915061010081831681870152614dd660e08901614cdb565b9250610120828416818801526101409350818901358488015261016092508089013583880152505081870135610180860152614e186101a08601828901614cf2565b50506001600160401b038416602084015290506111a9565b6001600160a01b0384168152606060208201819052600090614e5490830185613ae5565b9050826040830152949350505050565b600060208284031215614e7657600080fd5b5051919050565b60608101614e8a85613ee5565b9381526001600160a01b0392909216602083015260409091015290565b805160058110613a4657600080fd5b8051613a4681613829565b6000614ecf61399f84613959565b9050828152838383011115614ee357600080fd5b6111a9836020830184613ac1565b600082601f830112614f0257600080fd5b6111a983835160208501614ec1565b8051613a46816148a0565b600060208284031215614f2e57600080fd5b81516001600160401b0380821115614f4557600080fd5b908301906105008286031215614f5a57600080fd5b614f626138bb565b614f6b83614ea7565b8152614f7960208401614eb6565b6020820152614f8a60408401614eb6565b6040820152614f9b60608401614eb6565b6060820152608083015182811115614fb257600080fd5b614fbe87828601614ef1565b608083015250614fd060a08401614f11565b60a082015260c083015160c082015260e083015160e08201526101009150614ff9828401614eb6565b9181019190915261012082810151908201526101408083015190820152610160808301519082015261018080830151908201526101a080830151908201526101c080830151908201526101e08083015190820152610200808301519082015261022080830151908201526102408083015190820152610260808301519082015261028080830151908201526102a080830151908201526102c080830151908201526102e08083015190820152610300808301519082015261032080830151908201526103408083015190820152610360808301519082015261038080830151908201526103a080830151908201526103c080830151908201526103e08083015190820152610400808301519082015261042080830151908201526104408083015190820152610460808301519082015261048080830151908201526104a080830151908201526104c080830151908201526104e091820151918101919091529392505050565b60006020828403121561517157600080fd5b81516111a9816148a0565b60a0810161518987613ee5565b9581526001600160a01b039490941660208501526040840192909252606083015260809091015290565b6001600160a01b03841681526001600160401b038316602082015260606040820181905260009061328290830184613ae5565b803560ff81168114613a4657600080fd5b60006102806152068384614c61565b8286526152168387018284614ca9565b92505050602083013560208501526040830135604085015261523a60608401614cdb565b6001600160401b0380821660608701528061525760808701614cdb565b166080870152505060a083013560a085015260c083013560c085015260e083013560e085015261010061529e818601615291838701614cdb565b6001600160401b03169052565b506101206152ad818501614cdb565b6001600160401b0316908501526101408381013590850152610160808401359085015261018080840135908501526101a080840135908501526101c080840135908501526101e08084013590850152610200808401359085015261022080840135908501526102406153208185016148ae565b1515908501526102606153348482016151e6565b60ff81168683015261475d565b60408152600061535460408301856151f7565b905060018060a01b03831660208301529392505050565b6040810161537884613ee5565b9281526001600160a01b039190911660209091015290565b8051613a4681613a2e565b600061014082840312156153ae57600080fd5b6153b66138e4565b90506153c182615390565b81526153cf60208301614eb6565b602082015260408201516040820152606082015160608201526153f460808301614f11565b608082015260a08201516001600160401b038082111561541357600080fd5b61541f85838601614ef1565b60a084015260c084015191508082111561543857600080fd5b5061544584828501614ef1565b60c08301525060e082015160e082015261010080830151818301525061012080830151818301525092915050565b60006020828403121561548557600080fd5b81516001600160401b0381111561549b57600080fd5b6140088482850161539b565b6001600160401b038181168382160280821691908281146154ca576154ca614b31565b505092915050565b60006101606154e18384614c61565b8286526154f18387018284614ca9565b92505050602083013560208501526040830135604085015261551560608401614cdb565b6001600160401b0380821660608701528061553260808701614cdb565b1660808701528061554560a08701614cdb565b1660a08701528061555860c08701614cdb565b1660c08701528061556b60e08701614cdb565b1660e0870152610100915080615582838701614cdb565b1682870152610120915080615598838701614cdb565b16828701526101409150806155ae838701614cdb565b1691909501529392505050565b6020815260006111a960208301846154d2565b60006101806155dd8384614c61565b8286526155ed8387018284614ca9565b92505050602083013560208501526040830135604085015261561160608401614cdb565b6001600160401b0380821660608701528061562e60808701614cdb565b16608087015260a085013560a087015260c085013560c08701528061565560e08701614cdb565b1660e087015261010091508061566c838701614cdb565b169186019190915250610120838101359085015261014080840135908501526101609283013592909301919091525090565b60408152600061535460408301856155ce565b600080604083850312156156c457600080fd5b82516156cf81613829565b6020840151909250613e2c81613829565b6040815260006156f360408301856154d2565b90506001600160401b03831660208301529392505050565b6040808252810183905260006060600585901b830181019083018683805b8881101561577157868503605f190184528235368b900361017e1901811261574f578283fd5b61575b868c83016155ce565b9550506020938401939290920191600101615729565b505050506001600160a01b0393909316602092909201919091525092915050565b60006001600160401b038211156157ab576157ab6138a5565b5060051b60200190565b60008060408084860312156157c957600080fd5b83516001600160401b038111156157df57600080fd5b8401601f810186136157f057600080fd5b8051602061580061399f83615792565b82815260a0928302840182019282820191908a85111561581f57600080fd5b948301945b848610156158845780868c03121561583c5760008081fd5b615844613907565b865161584f81613829565b815286850151858201528787015188820152606080880151908201526080808801519082015283529485019491830191615824565b5097909101519698969750505050505050565b600060208083850312156158aa57600080fd5b82516001600160401b03808211156158c157600080fd5b818501915085601f8301126158d557600080fd5b81516158e361399f82615792565b81815260059190911b8301840190848101908883111561590257600080fd5b8585015b8381101561593a5780518581111561591e5760008081fd5b61592c8b89838a010161539b565b845250918601918601615906565b5098975050505050505050565b60608152600061595a60608301866151f7565b6001600160a01b03949094166020830152506001600160401b0391909116604090910152919050565b600181811c9082168061599757607f821691505b6020821081036130ef57634e487b7160e01b600052602260045260246000fd5b6000808335601e198436030181126159ce57600080fd5b83016020810192503590506001600160401b038111156159ed57600080fd5b803603821315611dba57600080fd5b81835281816020850137506000828201602090810191909152601f909101601f19169091010190565b6000615a3182836159b7565b602085526132826020860182846159fc565b60008235605e19833603018112615a5957600080fd5b90910192915050565b60008135615a6f816148a0565b15158352615a8060208301836159b7565b60606020860152615a956060860182846159fc565b915050604083013560408501528091505092915050565b6000615ab88283614c61565b60408552615aca604086018284614ca9565b915050602083013560be19843603018112615ae457600080fd5b838101905084820360208601528035825260208101356020830152615b0b60408201614cdb565b6001600160401b03808216604085015280615b2860608501614cdb565b16606085015250506080810135601e19823603018112615b4757600080fd5b60c06080840152615b5d60c08401838301615a25565b9050615b6c60a0830183615a43565b915082810360a0840152615b808183615a62565b9695505050505050565b6040815260006156f36040830185615aac565b6001600160a01b0384168152606060208201819052600090615bc190830185615aac565b8281036040840152610140615be682615bd987613a4b565b6001600160a01b03169052565b615bf360208601866159b7565b826020850152615c0683850182846159fc565b9250505060408501356040830152606085013560608301526080850135608083015260a085013560a083015260c085013560c083015260e085013560e08301526101008086013581840152506101208086013581840152508092505050949350505050565b600060208284031215615c7d57600080fd5b81516111a981613829565b6040815260006156f360408301856151f7565b60008060408385031215615cae57600080fd5b82516001600160401b03811115615cc457600080fd5b8301601f81018513615cd557600080fd5b80516020615ce561399f83615792565b82815260059290921b83018101918181019088841115615d0457600080fd5b938201935b83851015615d2b578451615d1c81613829565b82529382019390820190615d09565b969091015195979596505050505050565b600080600060608486031215615d5157600080fd5b8351925060208401519150604084015190509250925092565b60008060408385031215615d7d57600080fd5b8251615d8881613a2e565b6020939093015192949293505050565b6001600160a01b03831681526040602082018190526000906111a690830184613ae5565b606081526000615dcf60608301866155ce565b8281036020840152615de181866155ce565b91505060018060a01b0383166040830152949350505050565b60208152615e1360208201615e0e84613a3b565b613ef5565b6000615e2160208401613a4b565b6001600160a01b0381166040840152506040830135606083015260608301356080830152615e51608084016148ae565b80151560a084015250615e6760a08401846159b7565b6101408060c0860152615e7f610160860183856159fc565b9250615e8e60c08701876159b7565b868503601f190160e08801529250615ea78484836159fc565b60e0880135610100888101919091528801356101208089019190915290970135919095015250929392505050565b6001600160a01b0385811682528416602082015260408101839052608060608201819052600090615b8090830184613ae5565b8381526040602082015260006132826040830184866159fc565b6020815260006111a960208301846151f7565b634e487b7160e01b600052603260045260246000fd5b600060208284031215615f5d57600080fd5b81516001600160401b03811115615f7357600080fd5b8201601f81018413615f8457600080fd5b61400884825160208401614ec1565b634e487b7160e01b600052600160045260246000fd5b81810381811115610ee657610ee6614b31565b60008251615fce818460208701613ac1565b9190910192915050565b634e487b7160e01b600052601260045260246000fd5b600082615ffd57615ffd615fd8565b500490565b60008261601157616011615fd8565b50069056feec7e8c1c441439dd40959777f4c577ea0cd42fcc1dbe59d2bd0f5d9c55df8db6ec7e8c1c441439dd40959777f4c577ea0cd42fcc1dbe59d2bd0f5d9c55df8ddea2646970667358221220318cc8cc5991ee26f2d30ab648918b4efdd6117e80dafffa1ec28e7b54c3f64564736f6c63430008140033",
  "linkReferences": {
    "contracts/fasset/library/AgentSettingsUpdater.sol": {
      "AgentSettingsUpdater": [
        {
          "length": 20,
          "start": 8726
        },
        {
          "length": 20,
          "start": 15298
        }
      ]
    },
    "contracts/fasset/library/AgentsCreateDestroy.sol": {
      "AgentsCreateDestroy": [
        {
          "length": 20,
          "start": 10940
        },
        {
          "length": 20,
          "start": 11469
        },
        {
          "length": 20,
          "start": 11541
        },
        {
          "length": 20,
          "start": 13769
        },
        {
          "length": 20,
          "start": 14339
        },
        {
          "length": 20,
          "start": 15996
        }
      ]
    },
    "contracts/fasset/library/AgentsExternal.sol": {
      "AgentsExternal": [
        {
          "length": 20,
          "start": 9974
        },
        {
          "length": 20,
          "start": 10026
        },
        {
          "length": 20,
          "start": 10660
        },
        {
          "length": 20,
          "start": 11068
        },
        {
          "length": 20,
          "start": 11202
        },
        {
          "length": 20,
          "start": 11345
        },
        {
          "length": 20,
          "start": 11613
        },
        {
          "length": 20,
          "start": 14115
        },
        {
          "length": 20,
          "start": 14943
        },
        {
          "length": 20,
          "start": 15565
        },
        {
          "length": 20,
          "start": 15947
        }
      ]
    },
    "contracts/fasset/library/AvailableAgents.sol": {
      "AvailableAgents": [
        {
          "length": 20,
          "start": 8254
        },
        {
          "length": 20,
          "start": 10242
        },
        {
          "length": 20,
          "start": 11004
        },
        {
          "length": 20,
          "start": 11824
        },
        {
          "length": 20,
          "start": 15249
        }
      ]
    },
    "contracts/fasset/library/Challenges.sol": {
      "Challenges": [
        {
          "length": 20,
          "start": 11125
        },
        {
          "length": 20,
          "start": 11745
        },
        {
          "length": 20,
          "start": 15399
        }
      ]
    },
    "contracts/fasset/library/CollateralReservations.sol": {
      "CollateralReservations": [
        {
          "length": 20,
          "start": 8593
        },
        {
          "length": 20,
          "start": 10132
        },
        {
          "length": 20,
          "start": 12163
        },
        {
          "length": 20,
          "start": 14722
        }
      ]
    },
    "contracts/fasset/library/CollateralTypes.sol": {
      "CollateralTypes": [
        {
          "length": 20,
          "start": 177
        },
        {
          "length": 20,
          "start": 8868
        },
        {
          "length": 20,
          "start": 9691
        },
        {
          "length": 20,
          "start": 10506
        },
        {
          "length": 20,
          "start": 11938
        },
        {
          "length": 20,
          "start": 15622
        }
      ]
    },
    "contracts/fasset/library/FullAgentInfo.sol": {
      "FullAgentInfo": [
        {
          "length": 20,
          "start": 9330
        }
      ]
    },
    "contracts/fasset/library/Liquidation.sol": {
      "Liquidation": [
        {
          "length": 20,
          "start": 14456
        },
        {
          "length": 20,
          "start": 14596
        },
        {
          "length": 20,
          "start": 15089
        }
      ]
    },
    "contracts/fasset/library/Minting.sol": {
      "Minting": [
        {
          "length": 20,
          "start": 12306
        },
        {
          "length": 20,
          "start": 15672
        }
      ]
    },
    "contracts/fasset/library/RedemptionConfirmations.sol": {
      "RedemptionConfirmations": [
        {
          "length": 20,
          "start": 13954
        }
      ]
    },
    "contracts/fasset/library/RedemptionFailures.sol": {
      "RedemptionFailures": [
        {
          "length": 20,
          "start": 11649
        },
        {
          "length": 20,
          "start": 15342
        }
      ]
    },
    "contracts/fasset/library/RedemptionRequests.sol": {
      "RedemptionRequests": [
        {
          "length": 20,
          "start": 9573
        },
        {
          "length": 20,
          "start": 9806
        },
        {
          "length": 20,
          "start": 13681
        },
        {
          "length": 20,
          "start": 13918
        },
        {
          "length": 20,
          "start": 15498
        },
        {
          "length": 20,
          "start": 15750
        }
      ]
    },
    "contracts/fasset/library/SettingsUpdater.sol": {
      "SettingsUpdater": [
        {
          "length": 20,
          "start": 72
        },
        {
          "length": 20,
          "start": 15873
        }
      ]
    },
    "contracts/fasset/library/StateUpdater.sol": {
      "StateUpdater": [
        {
          "length": 20,
          "start": 10840
        }
      ]
    },
    "contracts/fasset/library/UnderlyingBalance.sol": {
      "UnderlyingBalance": [
        {
          "length": 20,
          "start": 15002
        }
      ]
    },
    "contracts/fasset/library/UnderlyingWithdrawalAnnouncements.sol": {
      "UnderlyingWithdrawalAnnouncements": [
        {
          "length": 20,
          "start": 10086
        },
        {
          "length": 20,
          "start": 14046
        },
        {
          "length": 20,
          "start": 14871
        }
      ]
    }
  },
  "deployedLinkReferences": {
    "contracts/fasset/library/AgentSettingsUpdater.sol": {
      "AgentSettingsUpdater": [
        {
          "length": 20,
          "start": 4409
        },
        {
          "length": 20,
          "start": 10981
        }
      ]
    },
    "contracts/fasset/library/AgentsCreateDestroy.sol": {
      "AgentsCreateDestroy": [
        {
          "length": 20,
          "start": 6623
        },
        {
          "length": 20,
          "start": 7152
        },
        {
          "length": 20,
          "start": 7224
        },
        {
          "length": 20,
          "start": 9452
        },
        {
          "length": 20,
          "start": 10022
        },
        {
          "length": 20,
          "start": 11679
        }
      ]
    },
    "contracts/fasset/library/AgentsExternal.sol": {
      "AgentsExternal": [
        {
          "length": 20,
          "start": 5657
        },
        {
          "length": 20,
          "start": 5709
        },
        {
          "length": 20,
          "start": 6343
        },
        {
          "length": 20,
          "start": 6751
        },
        {
          "length": 20,
          "start": 6885
        },
        {
          "length": 20,
          "start": 7028
        },
        {
          "length": 20,
          "start": 7296
        },
        {
          "length": 20,
          "start": 9798
        },
        {
          "length": 20,
          "start": 10626
        },
        {
          "length": 20,
          "start": 11248
        },
        {
          "length": 20,
          "start": 11630
        }
      ]
    },
    "contracts/fasset/library/AvailableAgents.sol": {
      "AvailableAgents": [
        {
          "length": 20,
          "start": 3937
        },
        {
          "length": 20,
          "start": 5925
        },
        {
          "length": 20,
          "start": 6687
        },
        {
          "length": 20,
          "start": 7507
        },
        {
          "length": 20,
          "start": 10932
        }
      ]
    },
    "contracts/fasset/library/Challenges.sol": {
      "Challenges": [
        {
          "length": 20,
          "start": 6808
        },
        {
          "length": 20,
          "start": 7428
        },
        {
          "length": 20,
          "start": 11082
        }
      ]
    },
    "contracts/fasset/library/CollateralReservations.sol": {
      "CollateralReservations": [
        {
          "length": 20,
          "start": 4276
        },
        {
          "length": 20,
          "start": 5815
        },
        {
          "length": 20,
          "start": 7846
        },
        {
          "length": 20,
          "start": 10405
        }
      ]
    },
    "contracts/fasset/library/CollateralTypes.sol": {
      "CollateralTypes": [
        {
          "length": 20,
          "start": 4551
        },
        {
          "length": 20,
          "start": 5374
        },
        {
          "length": 20,
          "start": 6189
        },
        {
          "length": 20,
          "start": 7621
        },
        {
          "length": 20,
          "start": 11305
        }
      ]
    },
    "contracts/fasset/library/FullAgentInfo.sol": {
      "FullAgentInfo": [
        {
          "length": 20,
          "start": 5013
        }
      ]
    },
    "contracts/fasset/library/Liquidation.sol": {
      "Liquidation": [
        {
          "length": 20,
          "start": 10139
        },
        {
          "length": 20,
          "start": 10279
        },
        {
          "length": 20,
          "start": 10772
        }
      ]
    },
    "contracts/fasset/library/Minting.sol": {
      "Minting": [
        {
          "length": 20,
          "start": 7989
        },
        {
          "length": 20,
          "start": 11355
        }
      ]
    },
    "contracts/fasset/library/RedemptionConfirmations.sol": {
      "RedemptionConfirmations": [
        {
          "length": 20,
          "start": 9637
        }
      ]
    },
    "contracts/fasset/library/RedemptionFailures.sol": {
      "RedemptionFailures": [
        {
          "length": 20,
          "start": 7332
        },
        {
          "length": 20,
          "start": 11025
        }
      ]
    },
    "contracts/fasset/library/RedemptionRequests.sol": {
      "RedemptionRequests": [
        {
          "length": 20,
          "start": 5256
        },
        {
          "length": 20,
          "start": 5489
        },
        {
          "length": 20,
          "start": 9364
        },
        {
          "length": 20,
          "start": 9601
        },
        {
          "length": 20,
          "start": 11181
        },
        {
          "length": 20,
          "start": 11433
        }
      ]
    },
    "contracts/fasset/library/SettingsUpdater.sol": {
      "SettingsUpdater": [
        {
          "length": 20,
          "start": 11556
        }
      ]
    },
    "contracts/fasset/library/StateUpdater.sol": {
      "StateUpdater": [
        {
          "length": 20,
          "start": 6523
        }
      ]
    },
    "contracts/fasset/library/UnderlyingBalance.sol": {
      "UnderlyingBalance": [
        {
          "length": 20,
          "start": 10685
        }
      ]
    },
    "contracts/fasset/library/UnderlyingWithdrawalAnnouncements.sol": {
      "UnderlyingWithdrawalAnnouncements": [
        {
          "length": 20,
          "start": 5769
        },
        {
          "length": 20,
          "start": 9729
        },
        {
          "length": 20,
          "start": 10554
        }
      ]
    }
  }
}