{
  "_format": "hh-sol-artifact-1",
  "contractName": "AssetManager",
  "sourceName": "contracts/fasset/implementation/AssetManager.sol",
  "abi": [
    {
      "inputs": [
        {
          "components": [
            {
              "internalType": "address",
              "name": "assetManagerController",
              "type": "address"
            },
            {
              "internalType": "address",
              "name": "fAsset",
              "type": "address"
            },
            {
              "internalType": "address",
              "name": "agentVaultFactory",
              "type": "address"
            },
            {
              "internalType": "address",
              "name": "collateralPoolFactory",
              "type": "address"
            },
            {
              "internalType": "address",
              "name": "collateralPoolTokenFactory",
              "type": "address"
            },
            {
              "internalType": "string",
              "name": "poolTokenSuffix",
              "type": "string"
            },
            {
              "internalType": "address",
              "name": "whitelist",
              "type": "address"
            },
            {
              "internalType": "address",
              "name": "agentOwnerRegistry",
              "type": "address"
            },
            {
              "internalType": "address",
              "name": "scProofVerifier",
              "type": "address"
            },
            {
              "internalType": "address",
              "name": "liquidationStrategy",
              "type": "address"
            },
            {
              "internalType": "address payable",
              "name": "burnAddress",
              "type": "address"
            },
            {
              "internalType": "address",
              "name": "priceReader",
              "type": "address"
            },
            {
              "internalType": "uint8",
              "name": "assetDecimals",
              "type": "uint8"
            },
            {
              "internalType": "uint8",
              "name": "assetMintingDecimals",
              "type": "uint8"
            },
            {
              "internalType": "bytes32",
              "name": "chainId",
              "type": "bytes32"
            },
            {
              "internalType": "uint32",
              "name": "averageBlockTimeMS",
              "type": "uint32"
            },
            {
              "internalType": "uint32",
              "name": "mintingPoolHoldingsRequiredBIPS",
              "type": "uint32"
            },
            {
              "internalType": "uint16",
              "name": "collateralReservationFeeBIPS",
              "type": "uint16"
            },
            {
              "internalType": "uint64",
              "name": "assetUnitUBA",
              "type": "uint64"
            },
            {
              "internalType": "uint64",
              "name": "assetMintingGranularityUBA",
              "type": "uint64"
            },
            {
              "internalType": "uint64",
              "name": "lotSizeAMG",
              "type": "uint64"
            },
            {
              "internalType": "uint16",
              "name": "minUnderlyingBackingBIPS",
              "type": "uint16"
            },
            {
              "internalType": "bool",
              "name": "requireEOAAddressProof",
              "type": "bool"
            },
            {
              "internalType": "uint64",
              "name": "mintingCapAMG",
              "type": "uint64"
            },
            {
              "internalType": "uint64",
              "name": "underlyingBlocksForPayment",
              "type": "uint64"
            },
            {
              "internalType": "uint64",
              "name": "underlyingSecondsForPayment",
              "type": "uint64"
            },
            {
              "internalType": "uint16",
              "name": "redemptionFeeBIPS",
              "type": "uint16"
            },
            {
              "internalType": "uint32",
              "name": "redemptionDefaultFactorVaultCollateralBIPS",
              "type": "uint32"
            },
            {
              "internalType": "uint32",
              "name": "redemptionDefaultFactorPoolBIPS",
              "type": "uint32"
            },
            {
              "internalType": "uint64",
              "name": "confirmationByOthersAfterSeconds",
              "type": "uint64"
            },
            {
              "internalType": "uint128",
              "name": "confirmationByOthersRewardUSD5",
              "type": "uint128"
            },
            {
              "internalType": "uint16",
              "name": "maxRedeemedTickets",
              "type": "uint16"
            },
            {
              "internalType": "uint16",
              "name": "paymentChallengeRewardBIPS",
              "type": "uint16"
            },
            {
              "internalType": "uint128",
              "name": "paymentChallengeRewardUSD5",
              "type": "uint128"
            },
            {
              "internalType": "uint64",
              "name": "withdrawalWaitMinSeconds",
              "type": "uint64"
            },
            {
              "internalType": "uint64",
              "name": "maxTrustedPriceAgeSeconds",
              "type": "uint64"
            },
            {
              "internalType": "uint64",
              "name": "ccbTimeSeconds",
              "type": "uint64"
            },
            {
              "internalType": "uint64",
              "name": "attestationWindowSeconds",
              "type": "uint64"
            },
            {
              "internalType": "uint64",
              "name": "minUpdateRepeatTimeSeconds",
              "type": "uint64"
            },
            {
              "internalType": "uint64",
              "name": "buybackCollateralFactorBIPS",
              "type": "uint64"
            },
            {
              "internalType": "uint64",
              "name": "announcedUnderlyingConfirmationMinSeconds",
              "type": "uint64"
            },
            {
              "internalType": "uint64",
              "name": "tokenInvalidationTimeMinSeconds",
              "type": "uint64"
            },
            {
              "internalType": "uint32",
              "name": "vaultCollateralBuyForFlareFactorBIPS",
              "type": "uint32"
            },
            {
              "internalType": "uint64",
              "name": "agentExitAvailableTimelockSeconds",
              "type": "uint64"
            },
            {
              "internalType": "uint64",
              "name": "agentFeeChangeTimelockSeconds",
              "type": "uint64"
            },
            {
              "internalType": "uint64",
              "name": "agentMintingCRChangeTimelockSeconds",
              "type": "uint64"
            },
            {
              "internalType": "uint64",
              "name": "poolExitAndTopupChangeTimelockSeconds",
              "type": "uint64"
            },
            {
              "internalType": "uint64",
              "name": "agentTimelockedOperationWindowSeconds",
              "type": "uint64"
            },
            {
              "internalType": "uint32",
              "name": "collateralPoolTokenTimelockSeconds",
              "type": "uint32"
            }
          ],
          "internalType": "struct AssetManagerSettings.Data",
          "name": "_settings",
          "type": "tuple"
        },
        {
          "components": [
            {
              "internalType": "enum CollateralType.Class",
              "name": "collateralClass",
              "type": "uint8"
            },
            {
              "internalType": "contract IERC20",
              "name": "token",
              "type": "address"
            },
            {
              "internalType": "uint256",
              "name": "decimals",
              "type": "uint256"
            },
            {
              "internalType": "uint256",
              "name": "validUntil",
              "type": "uint256"
            },
            {
              "internalType": "bool",
              "name": "directPricePair",
              "type": "bool"
            },
            {
              "internalType": "string",
              "name": "assetFtsoSymbol",
              "type": "string"
            },
            {
              "internalType": "string",
              "name": "tokenFtsoSymbol",
              "type": "string"
            },
            {
              "internalType": "uint256",
              "name": "minCollateralRatioBIPS",
              "type": "uint256"
            },
            {
              "internalType": "uint256",
              "name": "ccbMinCollateralRatioBIPS",
              "type": "uint256"
            },
            {
              "internalType": "uint256",
              "name": "safetyMinCollateralRatioBIPS",
              "type": "uint256"
            }
          ],
          "internalType": "struct CollateralType.Data[]",
          "name": "_initialCollateralTypes",
          "type": "tuple[]"
        },
        {
          "internalType": "bytes",
          "name": "_initialLiquidationSettings",
          "type": "bytes"
        }
      ],
      "stateMutability": "nonpayable",
      "type": "constructor"
    },
    {
      "anonymous": false,
      "inputs": [
        {
          "indexed": true,
          "internalType": "address",
          "name": "agentVault",
          "type": "address"
        },
        {
          "indexed": false,
          "internalType": "uint256",
          "name": "feeBIPS",
          "type": "uint256"
        },
        {
          "indexed": false,
          "internalType": "uint256",
          "name": "mintingVaultCollateralRatioBIPS",
          "type": "uint256"
        },
        {
          "indexed": false,
          "internalType": "uint256",
          "name": "mintingPoolCollateralRatioBIPS",
          "type": "uint256"
        },
        {
          "indexed": false,
          "internalType": "uint256",
          "name": "freeCollateralLots",
          "type": "uint256"
        }
      ],
      "name": "AgentAvailable",
      "type": "event"
    },
    {
      "anonymous": false,
      "inputs": [
        {
          "indexed": true,
          "internalType": "address",
          "name": "agentVault",
          "type": "address"
        },
        {
          "indexed": false,
          "internalType": "uint8",
          "name": "collateralClass",
          "type": "uint8"
        },
        {
          "indexed": false,
          "internalType": "address",
          "name": "token",
          "type": "address"
        }
      ],
      "name": "AgentCollateralTypeChanged",
      "type": "event"
    },
    {
      "anonymous": false,
      "inputs": [
        {
          "indexed": true,
          "internalType": "address",
          "name": "agentVault",
          "type": "address"
        },
        {
          "indexed": false,
          "internalType": "uint256",
          "name": "destroyAllowedAt",
          "type": "uint256"
        }
      ],
      "name": "AgentDestroyAnnounced",
      "type": "event"
    },
    {
      "anonymous": false,
      "inputs": [
        {
          "indexed": true,
          "internalType": "address",
          "name": "agentVault",
          "type": "address"
        }
      ],
      "name": "AgentDestroyed",
      "type": "event"
    },
    {
      "anonymous": false,
      "inputs": [
        {
          "indexed": true,
          "internalType": "address",
          "name": "agentVault",
          "type": "address"
        },
        {
          "indexed": false,
          "internalType": "uint256",
          "name": "timestamp",
          "type": "uint256"
        }
      ],
      "name": "AgentInCCB",
      "type": "event"
    },
    {
      "anonymous": false,
      "inputs": [
        {
          "indexed": true,
          "internalType": "address",
          "name": "agentVault",
          "type": "address"
        },
        {
          "indexed": false,
          "internalType": "string",
          "name": "name",
          "type": "string"
        },
        {
          "indexed": false,
          "internalType": "uint256",
          "name": "value",
          "type": "uint256"
        },
        {
          "indexed": false,
          "internalType": "uint256",
          "name": "validAt",
          "type": "uint256"
        }
      ],
      "name": "AgentSettingChangeAnnounced",
      "type": "event"
    },
    {
      "anonymous": false,
      "inputs": [
        {
          "indexed": true,
          "internalType": "address",
          "name": "agentVault",
          "type": "address"
        },
        {
          "indexed": false,
          "internalType": "string",
          "name": "name",
          "type": "string"
        },
        {
          "indexed": false,
          "internalType": "uint256",
          "name": "value",
          "type": "uint256"
        }
      ],
      "name": "AgentSettingChanged",
      "type": "event"
    },
    {
      "anonymous": false,
      "inputs": [
        {
          "indexed": true,
          "internalType": "address",
          "name": "owner",
          "type": "address"
        },
        {
          "indexed": false,
          "internalType": "address",
          "name": "agentVault",
          "type": "address"
        },
        {
          "indexed": false,
          "internalType": "address",
          "name": "collateralPool",
          "type": "address"
        },
        {
          "indexed": false,
          "internalType": "string",
          "name": "underlyingAddress",
          "type": "string"
        },
        {
          "indexed": false,
          "internalType": "address",
          "name": "vaultCollateralToken",
          "type": "address"
        },
        {
          "indexed": false,
          "internalType": "uint256",
          "name": "feeBIPS",
          "type": "uint256"
        },
        {
          "indexed": false,
          "internalType": "uint256",
          "name": "poolFeeShareBIPS",
          "type": "uint256"
        },
        {
          "indexed": false,
          "internalType": "uint256",
          "name": "mintingVaultCollateralRatioBIPS",
          "type": "uint256"
        },
        {
          "indexed": false,
          "internalType": "uint256",
          "name": "mintingPoolCollateralRatioBIPS",
          "type": "uint256"
        },
        {
          "indexed": false,
          "internalType": "uint256",
          "name": "buyFAssetByAgentFactorBIPS",
          "type": "uint256"
        },
        {
          "indexed": false,
          "internalType": "uint256",
          "name": "poolExitCollateralRatioBIPS",
          "type": "uint256"
        },
        {
          "indexed": false,
          "internalType": "uint256",
          "name": "poolTopupCollateralRatioBIPS",
          "type": "uint256"
        },
        {
          "indexed": false,
          "internalType": "uint256",
          "name": "poolTopupTokenPriceFactorBIPS",
          "type": "uint256"
        }
      ],
      "name": "AgentVaultCreated",
      "type": "event"
    },
    {
      "anonymous": false,
      "inputs": [
        {
          "indexed": true,
          "internalType": "address",
          "name": "agentVault",
          "type": "address"
        },
        {
          "indexed": false,
          "internalType": "uint256",
          "name": "exitAllowedAt",
          "type": "uint256"
        }
      ],
      "name": "AvailableAgentExitAnnounced",
      "type": "event"
    },
    {
      "anonymous": false,
      "inputs": [
        {
          "indexed": true,
          "internalType": "address",
          "name": "agentVault",
          "type": "address"
        }
      ],
      "name": "AvailableAgentExited",
      "type": "event"
    },
    {
      "anonymous": false,
      "inputs": [
        {
          "indexed": false,
          "internalType": "uint8",
          "name": "collateralClass",
          "type": "uint8"
        },
        {
          "indexed": false,
          "internalType": "address",
          "name": "collateralToken",
          "type": "address"
        },
        {
          "indexed": false,
          "internalType": "uint256",
          "name": "minCollateralRatioBIPS",
          "type": "uint256"
        },
        {
          "indexed": false,
          "internalType": "uint256",
          "name": "ccbMinCollateralRatioBIPS",
          "type": "uint256"
        },
        {
          "indexed": false,
          "internalType": "uint256",
          "name": "safetyMinCollateralRatioBIPS",
          "type": "uint256"
        }
      ],
      "name": "CollateralRatiosChanged",
      "type": "event"
    },
    {
      "anonymous": false,
      "inputs": [
        {
          "indexed": true,
          "internalType": "address",
          "name": "agentVault",
          "type": "address"
        },
        {
          "indexed": true,
          "internalType": "address",
          "name": "minter",
          "type": "address"
        },
        {
          "indexed": false,
          "internalType": "uint256",
          "name": "collateralReservationId",
          "type": "uint256"
        },
        {
          "indexed": false,
          "internalType": "uint256",
          "name": "reservedAmountUBA",
          "type": "uint256"
        }
      ],
      "name": "CollateralReservationDeleted",
      "type": "event"
    },
    {
      "anonymous": false,
      "inputs": [
        {
          "indexed": true,
          "internalType": "address",
          "name": "agentVault",
          "type": "address"
        },
        {
          "indexed": true,
          "internalType": "address",
          "name": "minter",
          "type": "address"
        },
        {
          "indexed": false,
          "internalType": "uint256",
          "name": "collateralReservationId",
          "type": "uint256"
        },
        {
          "indexed": false,
          "internalType": "uint256",
          "name": "valueUBA",
          "type": "uint256"
        },
        {
          "indexed": false,
          "internalType": "uint256",
          "name": "feeUBA",
          "type": "uint256"
        },
        {
          "indexed": false,
          "internalType": "uint256",
          "name": "firstUnderlyingBlock",
          "type": "uint256"
        },
        {
          "indexed": false,
          "internalType": "uint256",
          "name": "lastUnderlyingBlock",
          "type": "uint256"
        },
        {
          "indexed": false,
          "internalType": "uint256",
          "name": "lastUnderlyingTimestamp",
          "type": "uint256"
        },
        {
          "indexed": false,
          "internalType": "string",
          "name": "paymentAddress",
          "type": "string"
        },
        {
          "indexed": false,
          "internalType": "bytes32",
          "name": "paymentReference",
          "type": "bytes32"
        },
        {
          "indexed": false,
          "internalType": "address",
          "name": "executor",
          "type": "address"
        },
        {
          "indexed": false,
          "internalType": "uint256",
          "name": "executorFeeNatWei",
          "type": "uint256"
        }
      ],
      "name": "CollateralReserved",
      "type": "event"
    },
    {
      "anonymous": false,
      "inputs": [
        {
          "indexed": false,
          "internalType": "uint8",
          "name": "collateralClass",
          "type": "uint8"
        },
        {
          "indexed": false,
          "internalType": "address",
          "name": "token",
          "type": "address"
        },
        {
          "indexed": false,
          "internalType": "uint256",
          "name": "decimals",
          "type": "uint256"
        },
        {
          "indexed": false,
          "internalType": "bool",
          "name": "directPricePair",
          "type": "bool"
        },
        {
          "indexed": false,
          "internalType": "string",
          "name": "assetFtsoSymbol",
          "type": "string"
        },
        {
          "indexed": false,
          "internalType": "string",
          "name": "tokenFtsoSymbol",
          "type": "string"
        },
        {
          "indexed": false,
          "internalType": "uint256",
          "name": "minCollateralRatioBIPS",
          "type": "uint256"
        },
        {
          "indexed": false,
          "internalType": "uint256",
          "name": "ccbMinCollateralRatioBIPS",
          "type": "uint256"
        },
        {
          "indexed": false,
          "internalType": "uint256",
          "name": "safetyMinCollateralRatioBIPS",
          "type": "uint256"
        }
      ],
      "name": "CollateralTypeAdded",
      "type": "event"
    },
    {
      "anonymous": false,
      "inputs": [
        {
          "indexed": false,
          "internalType": "uint8",
          "name": "collateralClass",
          "type": "uint8"
        },
        {
          "indexed": false,
          "internalType": "address",
          "name": "collateralToken",
          "type": "address"
        },
        {
          "indexed": false,
          "internalType": "uint256",
          "name": "validUntil",
          "type": "uint256"
        }
      ],
      "name": "CollateralTypeDeprecated",
      "type": "event"
    },
    {
      "anonymous": false,
      "inputs": [
        {
          "indexed": false,
          "internalType": "string",
          "name": "name",
          "type": "string"
        },
        {
          "indexed": false,
          "internalType": "address",
          "name": "value",
          "type": "address"
        }
      ],
      "name": "ContractChanged",
      "type": "event"
    },
    {
      "anonymous": false,
      "inputs": [
        {
          "indexed": false,
          "internalType": "uint256",
          "name": "underlyingBlockNumber",
          "type": "uint256"
        },
        {
          "indexed": false,
          "internalType": "uint256",
          "name": "underlyingBlockTimestamp",
          "type": "uint256"
        },
        {
          "indexed": false,
          "internalType": "uint256",
          "name": "updatedAt",
          "type": "uint256"
        }
      ],
      "name": "CurrentUnderlyingBlockUpdated",
      "type": "event"
    },
    {
      "anonymous": false,
      "inputs": [
        {
          "indexed": true,
          "internalType": "address",
          "name": "agentVault",
          "type": "address"
        },
        {
          "indexed": false,
          "internalType": "bytes32",
          "name": "transactionHash1",
          "type": "bytes32"
        },
        {
          "indexed": false,
          "internalType": "bytes32",
          "name": "transactionHash2",
          "type": "bytes32"
        }
      ],
      "name": "DuplicatePaymentConfirmed",
      "type": "event"
    },
    {
      "anonymous": false,
      "inputs": [
        {
          "indexed": true,
          "internalType": "address",
          "name": "agentVault",
          "type": "address"
        },
        {
          "indexed": false,
          "internalType": "uint256",
          "name": "dustUBA",
          "type": "uint256"
        }
      ],
      "name": "DustChanged",
      "type": "event"
    },
    {
      "anonymous": false,
      "inputs": [
        {
          "indexed": true,
          "internalType": "address",
          "name": "agentVault",
          "type": "address"
        },
        {
          "indexed": false,
          "internalType": "uint256",
          "name": "redemptionTicketId",
          "type": "uint256"
        },
        {
          "indexed": false,
          "internalType": "uint256",
          "name": "valueUBA",
          "type": "uint256"
        }
      ],
      "name": "DustConvertedToTicket",
      "type": "event"
    },
    {
      "anonymous": false,
      "inputs": [
        {
          "indexed": true,
          "internalType": "address",
          "name": "agentVault",
          "type": "address"
        },
        {
          "indexed": false,
          "internalType": "uint256",
          "name": "timestamp",
          "type": "uint256"
        }
      ],
      "name": "FullLiquidationStarted",
      "type": "event"
    },
    {
      "anonymous": false,
      "inputs": [
        {
          "indexed": true,
          "internalType": "address",
          "name": "agentVault",
          "type": "address"
        },
        {
          "indexed": false,
          "internalType": "bytes32",
          "name": "transactionHash",
          "type": "bytes32"
        }
      ],
      "name": "IllegalPaymentConfirmed",
      "type": "event"
    },
    {
      "anonymous": false,
      "inputs": [
        {
          "indexed": true,
          "internalType": "address",
          "name": "agentVault",
          "type": "address"
        }
      ],
      "name": "LiquidationEnded",
      "type": "event"
    },
    {
      "anonymous": false,
      "inputs": [
        {
          "indexed": true,
          "internalType": "address",
          "name": "agentVault",
          "type": "address"
        },
        {
          "indexed": true,
          "internalType": "address",
          "name": "liquidator",
          "type": "address"
        },
        {
          "indexed": false,
          "internalType": "uint256",
          "name": "valueUBA",
          "type": "uint256"
        }
      ],
      "name": "LiquidationPerformed",
      "type": "event"
    },
    {
      "anonymous": false,
      "inputs": [
        {
          "indexed": true,
          "internalType": "address",
          "name": "agentVault",
          "type": "address"
        },
        {
          "indexed": false,
          "internalType": "uint256",
          "name": "timestamp",
          "type": "uint256"
        }
      ],
      "name": "LiquidationStarted",
      "type": "event"
    },
    {
      "anonymous": false,
      "inputs": [
        {
          "indexed": true,
          "internalType": "address",
          "name": "agentVault",
          "type": "address"
        },
        {
          "indexed": false,
          "internalType": "uint256",
          "name": "collateralReservationId",
          "type": "uint256"
        },
        {
          "indexed": false,
          "internalType": "uint256",
          "name": "redemptionTicketId",
          "type": "uint256"
        },
        {
          "indexed": false,
          "internalType": "uint256",
          "name": "mintedAmountUBA",
          "type": "uint256"
        },
        {
          "indexed": false,
          "internalType": "uint256",
          "name": "agentFeeUBA",
          "type": "uint256"
        },
        {
          "indexed": false,
          "internalType": "uint256",
          "name": "poolFeeUBA",
          "type": "uint256"
        }
      ],
      "name": "MintingExecuted",
      "type": "event"
    },
    {
      "anonymous": false,
      "inputs": [
        {
          "indexed": true,
          "internalType": "address",
          "name": "agentVault",
          "type": "address"
        },
        {
          "indexed": true,
          "internalType": "address",
          "name": "minter",
          "type": "address"
        },
        {
          "indexed": false,
          "internalType": "uint256",
          "name": "collateralReservationId",
          "type": "uint256"
        },
        {
          "indexed": false,
          "internalType": "uint256",
          "name": "reservedAmountUBA",
          "type": "uint256"
        }
      ],
      "name": "MintingPaymentDefault",
      "type": "event"
    },
    {
      "anonymous": false,
      "inputs": [
        {
          "indexed": true,
          "internalType": "address",
          "name": "agentVault",
          "type": "address"
        },
        {
          "indexed": false,
          "internalType": "uint256",
          "name": "amountWei",
          "type": "uint256"
        },
        {
          "indexed": false,
          "internalType": "uint256",
          "name": "withdrawalAllowedAt",
          "type": "uint256"
        }
      ],
      "name": "PoolTokenRedemptionAnnounced",
      "type": "event"
    },
    {
      "anonymous": false,
      "inputs": [
        {
          "indexed": true,
          "internalType": "address",
          "name": "agentVault",
          "type": "address"
        },
        {
          "indexed": true,
          "internalType": "address",
          "name": "redeemer",
          "type": "address"
        },
        {
          "indexed": false,
          "internalType": "uint256",
          "name": "redemptionAmountUBA",
          "type": "uint256"
        },
        {
          "indexed": false,
          "internalType": "uint256",
          "name": "paidVaultCollateralWei",
          "type": "uint256"
        }
      ],
      "name": "RedeemedInCollateral",
      "type": "event"
    },
    {
      "anonymous": false,
      "inputs": [
        {
          "indexed": true,
          "internalType": "address",
          "name": "agentVault",
          "type": "address"
        },
        {
          "indexed": true,
          "internalType": "address",
          "name": "redeemer",
          "type": "address"
        },
        {
          "indexed": false,
          "internalType": "uint256",
          "name": "redemptionAmountUBA",
          "type": "uint256"
        },
        {
          "indexed": false,
          "internalType": "uint256",
          "name": "redeemedVaultCollateralWei",
          "type": "uint256"
        },
        {
          "indexed": false,
          "internalType": "uint256",
          "name": "redeemedPoolCollateralWei",
          "type": "uint256"
        },
        {
          "indexed": false,
          "internalType": "uint64",
          "name": "requestId",
          "type": "uint64"
        }
      ],
      "name": "RedemptionDefault",
      "type": "event"
    },
    {
      "anonymous": false,
      "inputs": [
        {
          "indexed": true,
          "internalType": "address",
          "name": "agentVault",
          "type": "address"
        },
        {
          "indexed": true,
          "internalType": "address",
          "name": "redeemer",
          "type": "address"
        },
        {
          "indexed": false,
          "internalType": "bytes32",
          "name": "transactionHash",
          "type": "bytes32"
        },
        {
          "indexed": false,
          "internalType": "uint256",
          "name": "redemptionAmountUBA",
          "type": "uint256"
        },
        {
          "indexed": false,
          "internalType": "int256",
          "name": "spentUnderlyingUBA",
          "type": "int256"
        },
        {
          "indexed": false,
          "internalType": "uint64",
          "name": "requestId",
          "type": "uint64"
        }
      ],
      "name": "RedemptionPaymentBlocked",
      "type": "event"
    },
    {
      "anonymous": false,
      "inputs": [
        {
          "indexed": true,
          "internalType": "address",
          "name": "agentVault",
          "type": "address"
        },
        {
          "indexed": true,
          "internalType": "address",
          "name": "redeemer",
          "type": "address"
        },
        {
          "indexed": false,
          "internalType": "bytes32",
          "name": "transactionHash",
          "type": "bytes32"
        },
        {
          "indexed": false,
          "internalType": "int256",
          "name": "spentUnderlyingUBA",
          "type": "int256"
        },
        {
          "indexed": false,
          "internalType": "uint64",
          "name": "requestId",
          "type": "uint64"
        },
        {
          "indexed": false,
          "internalType": "string",
          "name": "failureReason",
          "type": "string"
        }
      ],
      "name": "RedemptionPaymentFailed",
      "type": "event"
    },
    {
      "anonymous": false,
      "inputs": [
        {
          "indexed": true,
          "internalType": "address",
          "name": "agentVault",
          "type": "address"
        },
        {
          "indexed": true,
          "internalType": "address",
          "name": "redeemer",
          "type": "address"
        },
        {
          "indexed": false,
          "internalType": "bytes32",
          "name": "transactionHash",
          "type": "bytes32"
        },
        {
          "indexed": false,
          "internalType": "uint256",
          "name": "redemptionAmountUBA",
          "type": "uint256"
        },
        {
          "indexed": false,
          "internalType": "int256",
          "name": "spentUnderlyingUBA",
          "type": "int256"
        },
        {
          "indexed": false,
          "internalType": "uint64",
          "name": "requestId",
          "type": "uint64"
        }
      ],
      "name": "RedemptionPerformed",
      "type": "event"
    },
    {
      "anonymous": false,
      "inputs": [
        {
          "indexed": true,
          "internalType": "address",
          "name": "agentVault",
          "type": "address"
        },
        {
          "indexed": true,
          "internalType": "address",
          "name": "redeemer",
          "type": "address"
        },
        {
          "indexed": false,
          "internalType": "uint256",
          "name": "redemptionAmountUBA",
          "type": "uint256"
        },
        {
          "indexed": false,
          "internalType": "uint64",
          "name": "requestId",
          "type": "uint64"
        }
      ],
      "name": "RedemptionRejected",
      "type": "event"
    },
    {
      "anonymous": false,
      "inputs": [
        {
          "indexed": true,
          "internalType": "address",
          "name": "redeemer",
          "type": "address"
        },
        {
          "indexed": false,
          "internalType": "uint256",
          "name": "remainingLots",
          "type": "uint256"
        }
      ],
      "name": "RedemptionRequestIncomplete",
      "type": "event"
    },
    {
      "anonymous": false,
      "inputs": [
        {
          "indexed": true,
          "internalType": "address",
          "name": "agentVault",
          "type": "address"
        },
        {
          "indexed": true,
          "internalType": "address",
          "name": "redeemer",
          "type": "address"
        },
        {
          "indexed": false,
          "internalType": "uint256",
          "name": "requestId",
          "type": "uint256"
        },
        {
          "indexed": false,
          "internalType": "string",
          "name": "paymentAddress",
          "type": "string"
        },
        {
          "indexed": false,
          "internalType": "uint256",
          "name": "valueUBA",
          "type": "uint256"
        },
        {
          "indexed": false,
          "internalType": "uint256",
          "name": "feeUBA",
          "type": "uint256"
        },
        {
          "indexed": false,
          "internalType": "uint256",
          "name": "firstUnderlyingBlock",
          "type": "uint256"
        },
        {
          "indexed": false,
          "internalType": "uint256",
          "name": "lastUnderlyingBlock",
          "type": "uint256"
        },
        {
          "indexed": false,
          "internalType": "uint256",
          "name": "lastUnderlyingTimestamp",
          "type": "uint256"
        },
        {
          "indexed": false,
          "internalType": "bytes32",
          "name": "paymentReference",
          "type": "bytes32"
        },
        {
          "indexed": false,
          "internalType": "address",
          "name": "executor",
          "type": "address"
        },
        {
          "indexed": false,
          "internalType": "uint256",
          "name": "executorFeeNatWei",
          "type": "uint256"
        }
      ],
      "name": "RedemptionRequested",
      "type": "event"
    },
    {
      "anonymous": false,
      "inputs": [
        {
          "indexed": true,
          "internalType": "address",
          "name": "agentVault",
          "type": "address"
        },
        {
          "indexed": false,
          "internalType": "uint256",
          "name": "valueUBA",
          "type": "uint256"
        }
      ],
      "name": "SelfClose",
      "type": "event"
    },
    {
      "anonymous": false,
      "inputs": [
        {
          "indexed": false,
          "internalType": "string",
          "name": "name",
          "type": "string"
        },
        {
          "indexed": false,
          "internalType": "uint256[]",
          "name": "value",
          "type": "uint256[]"
        }
      ],
      "name": "SettingArrayChanged",
      "type": "event"
    },
    {
      "anonymous": false,
      "inputs": [
        {
          "indexed": false,
          "internalType": "string",
          "name": "name",
          "type": "string"
        },
        {
          "indexed": false,
          "internalType": "uint256",
          "name": "value",
          "type": "uint256"
        }
      ],
      "name": "SettingChanged",
      "type": "event"
    },
    {
      "anonymous": false,
      "inputs": [
        {
          "indexed": true,
          "internalType": "address",
          "name": "agentVault",
          "type": "address"
        },
        {
          "indexed": false,
          "internalType": "int256",
          "name": "underlyingBalanceUBA",
          "type": "int256"
        }
      ],
      "name": "UnderlyingBalanceChanged",
      "type": "event"
    },
    {
      "anonymous": false,
      "inputs": [
        {
          "indexed": true,
          "internalType": "address",
          "name": "agentVault",
          "type": "address"
        },
        {
          "indexed": false,
          "internalType": "int256",
          "name": "balance",
          "type": "int256"
        },
        {
          "indexed": false,
          "internalType": "uint256",
          "name": "requiredBalance",
          "type": "uint256"
        }
      ],
      "name": "UnderlyingBalanceTooLow",
      "type": "event"
    },
    {
      "anonymous": false,
      "inputs": [
        {
          "indexed": true,
          "internalType": "address",
          "name": "agentVault",
          "type": "address"
        },
        {
          "indexed": false,
          "internalType": "bytes32",
          "name": "transactionHash",
          "type": "bytes32"
        },
        {
          "indexed": false,
          "internalType": "uint256",
          "name": "depositedUBA",
          "type": "uint256"
        }
      ],
      "name": "UnderlyingBalanceToppedUp",
      "type": "event"
    },
    {
      "anonymous": false,
      "inputs": [
        {
          "indexed": true,
          "internalType": "address",
          "name": "agentVault",
          "type": "address"
        },
        {
          "indexed": false,
          "internalType": "uint64",
          "name": "announcementId",
          "type": "uint64"
        },
        {
          "indexed": false,
          "internalType": "bytes32",
          "name": "paymentReference",
          "type": "bytes32"
        }
      ],
      "name": "UnderlyingWithdrawalAnnounced",
      "type": "event"
    },
    {
      "anonymous": false,
      "inputs": [
        {
          "indexed": true,
          "internalType": "address",
          "name": "agentVault",
          "type": "address"
        },
        {
          "indexed": false,
          "internalType": "uint64",
          "name": "announcementId",
          "type": "uint64"
        }
      ],
      "name": "UnderlyingWithdrawalCancelled",
      "type": "event"
    },
    {
      "anonymous": false,
      "inputs": [
        {
          "indexed": true,
          "internalType": "address",
          "name": "agentVault",
          "type": "address"
        },
        {
          "indexed": false,
          "internalType": "int256",
          "name": "spentUBA",
          "type": "int256"
        },
        {
          "indexed": false,
          "internalType": "bytes32",
          "name": "transactionHash",
          "type": "bytes32"
        },
        {
          "indexed": false,
          "internalType": "uint64",
          "name": "announcementId",
          "type": "uint64"
        }
      ],
      "name": "UnderlyingWithdrawalConfirmed",
      "type": "event"
    },
    {
      "anonymous": false,
      "inputs": [
        {
          "indexed": true,
          "internalType": "address",
          "name": "agentVault",
          "type": "address"
        },
        {
          "indexed": false,
          "internalType": "uint256",
          "name": "amountWei",
          "type": "uint256"
        },
        {
          "indexed": false,
          "internalType": "uint256",
          "name": "withdrawalAllowedAt",
          "type": "uint256"
        }
      ],
      "name": "VaultCollateralWithdrawalAnnounced",
      "type": "event"
    },
    {
      "inputs": [
        {
          "components": [
            {
              "internalType": "enum CollateralType.Class",
              "name": "collateralClass",
              "type": "uint8"
            },
            {
              "internalType": "contract IERC20",
              "name": "token",
              "type": "address"
            },
            {
              "internalType": "uint256",
              "name": "decimals",
              "type": "uint256"
            },
            {
              "internalType": "uint256",
              "name": "validUntil",
              "type": "uint256"
            },
            {
              "internalType": "bool",
              "name": "directPricePair",
              "type": "bool"
            },
            {
              "internalType": "string",
              "name": "assetFtsoSymbol",
              "type": "string"
            },
            {
              "internalType": "string",
              "name": "tokenFtsoSymbol",
              "type": "string"
            },
            {
              "internalType": "uint256",
              "name": "minCollateralRatioBIPS",
              "type": "uint256"
            },
            {
              "internalType": "uint256",
              "name": "ccbMinCollateralRatioBIPS",
              "type": "uint256"
            },
            {
              "internalType": "uint256",
              "name": "safetyMinCollateralRatioBIPS",
              "type": "uint256"
            }
          ],
          "internalType": "struct CollateralType.Data",
          "name": "_data",
          "type": "tuple"
        }
      ],
      "name": "addCollateralType",
      "outputs": [],
      "stateMutability": "nonpayable",
      "type": "function"
    },
    {
      "inputs": [
        {
          "internalType": "address",
          "name": "_agentVault",
          "type": "address"
        },
        {
          "internalType": "uint256",
          "name": "_valueNATWei",
          "type": "uint256"
        }
      ],
      "name": "announceAgentPoolTokenRedemption",
      "outputs": [
        {
          "internalType": "uint256",
          "name": "_redemptionAllowedAt",
          "type": "uint256"
        }
      ],
      "stateMutability": "nonpayable",
      "type": "function"
    },
    {
      "inputs": [
        {
          "internalType": "address",
          "name": "_agentVault",
          "type": "address"
        },
        {
          "internalType": "string",
          "name": "_name",
          "type": "string"
        },
        {
          "internalType": "uint256",
          "name": "_value",
          "type": "uint256"
        }
      ],
      "name": "announceAgentSettingUpdate",
      "outputs": [
        {
          "internalType": "uint256",
          "name": "_updateAllowedAt",
          "type": "uint256"
        }
      ],
      "stateMutability": "nonpayable",
      "type": "function"
    },
    {
      "inputs": [
        {
          "internalType": "address",
          "name": "_agentVault",
          "type": "address"
        }
      ],
      "name": "announceDestroyAgent",
      "outputs": [
        {
          "internalType": "uint256",
          "name": "_destroyAllowedAt",
          "type": "uint256"
        }
      ],
      "stateMutability": "nonpayable",
      "type": "function"
    },
    {
      "inputs": [
        {
          "internalType": "address",
          "name": "_agentVault",
          "type": "address"
        }
      ],
      "name": "announceExitAvailableAgentList",
      "outputs": [
        {
          "internalType": "uint256",
          "name": "_exitAllowedAt",
          "type": "uint256"
        }
      ],
      "stateMutability": "nonpayable",
      "type": "function"
    },
    {
      "inputs": [
        {
          "internalType": "address",
          "name": "_agentVault",
          "type": "address"
        }
      ],
      "name": "announceUnderlyingWithdrawal",
      "outputs": [],
      "stateMutability": "nonpayable",
      "type": "function"
    },
    {
      "inputs": [
        {
          "internalType": "address",
          "name": "_agentVault",
          "type": "address"
        },
        {
          "internalType": "uint256",
          "name": "_valueNATWei",
          "type": "uint256"
        }
      ],
      "name": "announceVaultCollateralWithdrawal",
      "outputs": [
        {
          "internalType": "uint256",
          "name": "_withdrawalAllowedAt",
          "type": "uint256"
        }
      ],
      "stateMutability": "nonpayable",
      "type": "function"
    },
    {
      "inputs": [],
      "name": "assetManagerController",
      "outputs": [
        {
          "internalType": "address",
          "name": "",
          "type": "address"
        }
      ],
      "stateMutability": "view",
      "type": "function"
    },
    {
      "inputs": [],
      "name": "assetPriceNatWei",
      "outputs": [
        {
          "internalType": "uint256",
          "name": "_multiplier",
          "type": "uint256"
        },
        {
          "internalType": "uint256",
          "name": "_divisor",
          "type": "uint256"
        }
      ],
      "stateMutability": "view",
      "type": "function"
    },
    {
      "inputs": [
        {
          "internalType": "bool",
          "name": "attached",
          "type": "bool"
        }
      ],
      "name": "attachController",
      "outputs": [],
      "stateMutability": "nonpayable",
      "type": "function"
    },
    {
      "inputs": [
        {
          "internalType": "contract IERC20",
          "name": "_token",
          "type": "address"
        },
        {
          "internalType": "uint256",
          "name": "_valueNATWei",
          "type": "uint256"
        }
      ],
      "name": "beforeCollateralWithdrawal",
      "outputs": [],
      "stateMutability": "nonpayable",
      "type": "function"
    },
    {
      "inputs": [
        {
          "internalType": "address",
          "name": "_agentVault",
          "type": "address"
        }
      ],
      "name": "buybackAgentCollateral",
      "outputs": [],
      "stateMutability": "payable",
      "type": "function"
    },
    {
      "inputs": [
        {
          "internalType": "address",
          "name": "_agentVault",
          "type": "address"
        }
      ],
      "name": "cancelUnderlyingWithdrawal",
      "outputs": [],
      "stateMutability": "nonpayable",
      "type": "function"
    },
    {
      "inputs": [
        {
          "internalType": "uint256",
          "name": "_lots",
          "type": "uint256"
        }
      ],
      "name": "collateralReservationFee",
      "outputs": [
        {
          "internalType": "uint256",
          "name": "_reservationFeeNATWei",
          "type": "uint256"
        }
      ],
      "stateMutability": "view",
      "type": "function"
    },
    {
      "inputs": [
        {
          "components": [
            {
              "internalType": "bytes32[]",
              "name": "merkleProof",
              "type": "bytes32[]"
            },
            {
              "components": [
                {
                  "internalType": "bytes32",
                  "name": "attestationType",
                  "type": "bytes32"
                },
                {
                  "internalType": "bytes32",
                  "name": "sourceId",
                  "type": "bytes32"
                },
                {
                  "internalType": "uint64",
                  "name": "votingRound",
                  "type": "uint64"
                },
                {
                  "internalType": "uint64",
                  "name": "lowestUsedTimestamp",
                  "type": "uint64"
                },
                {
                  "components": [
                    {
                      "internalType": "bytes32",
                      "name": "transactionId",
                      "type": "bytes32"
                    },
                    {
                      "internalType": "uint256",
                      "name": "inUtxo",
                      "type": "uint256"
                    },
                    {
                      "internalType": "uint256",
                      "name": "utxo",
                      "type": "uint256"
                    }
                  ],
                  "internalType": "struct Payment.RequestBody",
                  "name": "requestBody",
                  "type": "tuple"
                },
                {
                  "components": [
                    {
                      "internalType": "uint64",
                      "name": "blockNumber",
                      "type": "uint64"
                    },
                    {
                      "internalType": "uint64",
                      "name": "blockTimestamp",
                      "type": "uint64"
                    },
                    {
                      "internalType": "bytes32",
                      "name": "sourceAddressHash",
                      "type": "bytes32"
                    },
                    {
                      "internalType": "bytes32",
                      "name": "receivingAddressHash",
                      "type": "bytes32"
                    },
                    {
                      "internalType": "bytes32",
                      "name": "intendedReceivingAddressHash",
                      "type": "bytes32"
                    },
                    {
                      "internalType": "int256",
                      "name": "spentAmount",
                      "type": "int256"
                    },
                    {
                      "internalType": "int256",
                      "name": "intendedSpentAmount",
                      "type": "int256"
                    },
                    {
                      "internalType": "int256",
                      "name": "receivedAmount",
                      "type": "int256"
                    },
                    {
                      "internalType": "int256",
                      "name": "intendedReceivedAmount",
                      "type": "int256"
                    },
                    {
                      "internalType": "bytes32",
                      "name": "standardPaymentReference",
                      "type": "bytes32"
                    },
                    {
                      "internalType": "bool",
                      "name": "oneToOne",
                      "type": "bool"
                    },
                    {
                      "internalType": "uint8",
                      "name": "status",
                      "type": "uint8"
                    }
                  ],
                  "internalType": "struct Payment.ResponseBody",
                  "name": "responseBody",
                  "type": "tuple"
                }
              ],
              "internalType": "struct Payment.Response",
              "name": "data",
              "type": "tuple"
            }
          ],
          "internalType": "struct Payment.Proof",
          "name": "_payment",
          "type": "tuple"
        },
        {
          "internalType": "uint256",
          "name": "_redemptionRequestId",
          "type": "uint256"
        }
      ],
      "name": "confirmRedemptionPayment",
      "outputs": [],
      "stateMutability": "nonpayable",
      "type": "function"
    },
    {
      "inputs": [
        {
          "components": [
            {
              "internalType": "bytes32[]",
              "name": "merkleProof",
              "type": "bytes32[]"
            },
            {
              "components": [
                {
                  "internalType": "bytes32",
                  "name": "attestationType",
                  "type": "bytes32"
                },
                {
                  "internalType": "bytes32",
                  "name": "sourceId",
                  "type": "bytes32"
                },
                {
                  "internalType": "uint64",
                  "name": "votingRound",
                  "type": "uint64"
                },
                {
                  "internalType": "uint64",
                  "name": "lowestUsedTimestamp",
                  "type": "uint64"
                },
                {
                  "components": [
                    {
                      "internalType": "bytes32",
                      "name": "transactionId",
                      "type": "bytes32"
                    },
                    {
                      "internalType": "uint256",
                      "name": "inUtxo",
                      "type": "uint256"
                    },
                    {
                      "internalType": "uint256",
                      "name": "utxo",
                      "type": "uint256"
                    }
                  ],
                  "internalType": "struct Payment.RequestBody",
                  "name": "requestBody",
                  "type": "tuple"
                },
                {
                  "components": [
                    {
                      "internalType": "uint64",
                      "name": "blockNumber",
                      "type": "uint64"
                    },
                    {
                      "internalType": "uint64",
                      "name": "blockTimestamp",
                      "type": "uint64"
                    },
                    {
                      "internalType": "bytes32",
                      "name": "sourceAddressHash",
                      "type": "bytes32"
                    },
                    {
                      "internalType": "bytes32",
                      "name": "receivingAddressHash",
                      "type": "bytes32"
                    },
                    {
                      "internalType": "bytes32",
                      "name": "intendedReceivingAddressHash",
                      "type": "bytes32"
                    },
                    {
                      "internalType": "int256",
                      "name": "spentAmount",
                      "type": "int256"
                    },
                    {
                      "internalType": "int256",
                      "name": "intendedSpentAmount",
                      "type": "int256"
                    },
                    {
                      "internalType": "int256",
                      "name": "receivedAmount",
                      "type": "int256"
                    },
                    {
                      "internalType": "int256",
                      "name": "intendedReceivedAmount",
                      "type": "int256"
                    },
                    {
                      "internalType": "bytes32",
                      "name": "standardPaymentReference",
                      "type": "bytes32"
                    },
                    {
                      "internalType": "bool",
                      "name": "oneToOne",
                      "type": "bool"
                    },
                    {
                      "internalType": "uint8",
                      "name": "status",
                      "type": "uint8"
                    }
                  ],
                  "internalType": "struct Payment.ResponseBody",
                  "name": "responseBody",
                  "type": "tuple"
                }
              ],
              "internalType": "struct Payment.Response",
              "name": "data",
              "type": "tuple"
            }
          ],
          "internalType": "struct Payment.Proof",
          "name": "_payment",
          "type": "tuple"
        },
        {
          "internalType": "address",
          "name": "_agentVault",
          "type": "address"
        }
      ],
      "name": "confirmTopupPayment",
      "outputs": [],
      "stateMutability": "nonpayable",
      "type": "function"
    },
    {
      "inputs": [
        {
          "components": [
            {
              "internalType": "bytes32[]",
              "name": "merkleProof",
              "type": "bytes32[]"
            },
            {
              "components": [
                {
                  "internalType": "bytes32",
                  "name": "attestationType",
                  "type": "bytes32"
                },
                {
                  "internalType": "bytes32",
                  "name": "sourceId",
                  "type": "bytes32"
                },
                {
                  "internalType": "uint64",
                  "name": "votingRound",
                  "type": "uint64"
                },
                {
                  "internalType": "uint64",
                  "name": "lowestUsedTimestamp",
                  "type": "uint64"
                },
                {
                  "components": [
                    {
                      "internalType": "bytes32",
                      "name": "transactionId",
                      "type": "bytes32"
                    },
                    {
                      "internalType": "uint256",
                      "name": "inUtxo",
                      "type": "uint256"
                    },
                    {
                      "internalType": "uint256",
                      "name": "utxo",
                      "type": "uint256"
                    }
                  ],
                  "internalType": "struct Payment.RequestBody",
                  "name": "requestBody",
                  "type": "tuple"
                },
                {
                  "components": [
                    {
                      "internalType": "uint64",
                      "name": "blockNumber",
                      "type": "uint64"
                    },
                    {
                      "internalType": "uint64",
                      "name": "blockTimestamp",
                      "type": "uint64"
                    },
                    {
                      "internalType": "bytes32",
                      "name": "sourceAddressHash",
                      "type": "bytes32"
                    },
                    {
                      "internalType": "bytes32",
                      "name": "receivingAddressHash",
                      "type": "bytes32"
                    },
                    {
                      "internalType": "bytes32",
                      "name": "intendedReceivingAddressHash",
                      "type": "bytes32"
                    },
                    {
                      "internalType": "int256",
                      "name": "spentAmount",
                      "type": "int256"
                    },
                    {
                      "internalType": "int256",
                      "name": "intendedSpentAmount",
                      "type": "int256"
                    },
                    {
                      "internalType": "int256",
                      "name": "receivedAmount",
                      "type": "int256"
                    },
                    {
                      "internalType": "int256",
                      "name": "intendedReceivedAmount",
                      "type": "int256"
                    },
                    {
                      "internalType": "bytes32",
                      "name": "standardPaymentReference",
                      "type": "bytes32"
                    },
                    {
                      "internalType": "bool",
                      "name": "oneToOne",
                      "type": "bool"
                    },
                    {
                      "internalType": "uint8",
                      "name": "status",
                      "type": "uint8"
                    }
                  ],
                  "internalType": "struct Payment.ResponseBody",
                  "name": "responseBody",
                  "type": "tuple"
                }
              ],
              "internalType": "struct Payment.Response",
              "name": "data",
              "type": "tuple"
            }
          ],
          "internalType": "struct Payment.Proof",
          "name": "_payment",
          "type": "tuple"
        },
        {
          "internalType": "address",
          "name": "_agentVault",
          "type": "address"
        }
      ],
      "name": "confirmUnderlyingWithdrawal",
      "outputs": [],
      "stateMutability": "nonpayable",
      "type": "function"
    },
    {
      "inputs": [],
      "name": "controllerAttached",
      "outputs": [
        {
          "internalType": "bool",
          "name": "",
          "type": "bool"
        }
      ],
      "stateMutability": "view",
      "type": "function"
    },
    {
      "inputs": [
        {
          "internalType": "address",
          "name": "_agentVault",
          "type": "address"
        }
      ],
      "name": "convertDustToTicket",
      "outputs": [],
      "stateMutability": "nonpayable",
      "type": "function"
    },
    {
      "inputs": [
        {
          "components": [
            {
              "internalType": "bytes32[]",
              "name": "merkleProof",
              "type": "bytes32[]"
            },
            {
              "components": [
                {
                  "internalType": "bytes32",
                  "name": "attestationType",
                  "type": "bytes32"
                },
                {
                  "internalType": "bytes32",
                  "name": "sourceId",
                  "type": "bytes32"
                },
                {
                  "internalType": "uint64",
                  "name": "votingRound",
                  "type": "uint64"
                },
                {
                  "internalType": "uint64",
                  "name": "lowestUsedTimestamp",
                  "type": "uint64"
                },
                {
                  "components": [
                    {
                      "internalType": "string",
                      "name": "addressStr",
                      "type": "string"
                    }
                  ],
                  "internalType": "struct AddressValidity.RequestBody",
                  "name": "requestBody",
                  "type": "tuple"
                },
                {
                  "components": [
                    {
                      "internalType": "bool",
                      "name": "isValid",
                      "type": "bool"
                    },
                    {
                      "internalType": "string",
                      "name": "standardAddress",
                      "type": "string"
                    },
                    {
                      "internalType": "bytes32",
                      "name": "standardAddressHash",
                      "type": "bytes32"
                    }
                  ],
                  "internalType": "struct AddressValidity.ResponseBody",
                  "name": "responseBody",
                  "type": "tuple"
                }
              ],
              "internalType": "struct AddressValidity.Response",
              "name": "data",
              "type": "tuple"
            }
          ],
          "internalType": "struct AddressValidity.Proof",
          "name": "_addressProof",
          "type": "tuple"
        },
        {
          "components": [
            {
              "internalType": "contract IERC20",
              "name": "vaultCollateralToken",
              "type": "address"
            },
            {
              "internalType": "string",
              "name": "poolTokenSuffix",
              "type": "string"
            },
            {
              "internalType": "uint256",
              "name": "feeBIPS",
              "type": "uint256"
            },
            {
              "internalType": "uint256",
              "name": "poolFeeShareBIPS",
              "type": "uint256"
            },
            {
              "internalType": "uint256",
              "name": "mintingVaultCollateralRatioBIPS",
              "type": "uint256"
            },
            {
              "internalType": "uint256",
              "name": "mintingPoolCollateralRatioBIPS",
              "type": "uint256"
            },
            {
              "internalType": "uint256",
              "name": "buyFAssetByAgentFactorBIPS",
              "type": "uint256"
            },
            {
              "internalType": "uint256",
              "name": "poolExitCollateralRatioBIPS",
              "type": "uint256"
            },
            {
              "internalType": "uint256",
              "name": "poolTopupCollateralRatioBIPS",
              "type": "uint256"
            },
            {
              "internalType": "uint256",
              "name": "poolTopupTokenPriceFactorBIPS",
              "type": "uint256"
            }
          ],
          "internalType": "struct AgentSettings.Data",
          "name": "_settings",
          "type": "tuple"
        }
      ],
      "name": "createAgentVault",
      "outputs": [
        {
          "internalType": "address",
          "name": "_agentVault",
          "type": "address"
        }
      ],
      "stateMutability": "nonpayable",
      "type": "function"
    },
    {
      "inputs": [],
      "name": "currentUnderlyingBlock",
      "outputs": [
        {
          "internalType": "uint256",
          "name": "_blockNumber",
          "type": "uint256"
        },
        {
          "internalType": "uint256",
          "name": "_blockTimestamp",
          "type": "uint256"
        }
      ],
      "stateMutability": "view",
      "type": "function"
    },
    {
      "inputs": [
        {
          "internalType": "enum CollateralType.Class",
          "name": "_collateralClass",
          "type": "uint8"
        },
        {
          "internalType": "contract IERC20",
          "name": "_token",
          "type": "address"
        },
        {
          "internalType": "uint256",
          "name": "_invalidationTimeSec",
          "type": "uint256"
        }
      ],
      "name": "deprecateCollateralType",
      "outputs": [],
      "stateMutability": "nonpayable",
      "type": "function"
    },
    {
      "inputs": [
        {
          "internalType": "address",
          "name": "_agentVault",
          "type": "address"
        },
        {
          "internalType": "address payable",
          "name": "_recipient",
          "type": "address"
        }
      ],
      "name": "destroyAgent",
      "outputs": [],
      "stateMutability": "nonpayable",
      "type": "function"
    },
    {
      "inputs": [
        {
          "components": [
            {
              "internalType": "bytes32[]",
              "name": "merkleProof",
              "type": "bytes32[]"
            },
            {
              "components": [
                {
                  "internalType": "bytes32",
                  "name": "attestationType",
                  "type": "bytes32"
                },
                {
                  "internalType": "bytes32",
                  "name": "sourceId",
                  "type": "bytes32"
                },
                {
                  "internalType": "uint64",
                  "name": "votingRound",
                  "type": "uint64"
                },
                {
                  "internalType": "uint64",
                  "name": "lowestUsedTimestamp",
                  "type": "uint64"
                },
                {
                  "components": [
                    {
                      "internalType": "bytes32",
                      "name": "transactionId",
                      "type": "bytes32"
                    },
                    {
                      "internalType": "bytes32",
                      "name": "sourceAddressIndicator",
                      "type": "bytes32"
                    }
                  ],
                  "internalType": "struct BalanceDecreasingTransaction.RequestBody",
                  "name": "requestBody",
                  "type": "tuple"
                },
                {
                  "components": [
                    {
                      "internalType": "uint64",
                      "name": "blockNumber",
                      "type": "uint64"
                    },
                    {
                      "internalType": "uint64",
                      "name": "blockTimestamp",
                      "type": "uint64"
                    },
                    {
                      "internalType": "bytes32",
                      "name": "sourceAddressHash",
                      "type": "bytes32"
                    },
                    {
                      "internalType": "int256",
                      "name": "spentAmount",
                      "type": "int256"
                    },
                    {
                      "internalType": "bytes32",
                      "name": "standardPaymentReference",
                      "type": "bytes32"
                    }
                  ],
                  "internalType": "struct BalanceDecreasingTransaction.ResponseBody",
                  "name": "responseBody",
                  "type": "tuple"
                }
              ],
              "internalType": "struct BalanceDecreasingTransaction.Response",
              "name": "data",
              "type": "tuple"
            }
          ],
          "internalType": "struct BalanceDecreasingTransaction.Proof",
          "name": "_payment1",
          "type": "tuple"
        },
        {
          "components": [
            {
              "internalType": "bytes32[]",
              "name": "merkleProof",
              "type": "bytes32[]"
            },
            {
              "components": [
                {
                  "internalType": "bytes32",
                  "name": "attestationType",
                  "type": "bytes32"
                },
                {
                  "internalType": "bytes32",
                  "name": "sourceId",
                  "type": "bytes32"
                },
                {
                  "internalType": "uint64",
                  "name": "votingRound",
                  "type": "uint64"
                },
                {
                  "internalType": "uint64",
                  "name": "lowestUsedTimestamp",
                  "type": "uint64"
                },
                {
                  "components": [
                    {
                      "internalType": "bytes32",
                      "name": "transactionId",
                      "type": "bytes32"
                    },
                    {
                      "internalType": "bytes32",
                      "name": "sourceAddressIndicator",
                      "type": "bytes32"
                    }
                  ],
                  "internalType": "struct BalanceDecreasingTransaction.RequestBody",
                  "name": "requestBody",
                  "type": "tuple"
                },
                {
                  "components": [
                    {
                      "internalType": "uint64",
                      "name": "blockNumber",
                      "type": "uint64"
                    },
                    {
                      "internalType": "uint64",
                      "name": "blockTimestamp",
                      "type": "uint64"
                    },
                    {
                      "internalType": "bytes32",
                      "name": "sourceAddressHash",
                      "type": "bytes32"
                    },
                    {
                      "internalType": "int256",
                      "name": "spentAmount",
                      "type": "int256"
                    },
                    {
                      "internalType": "bytes32",
                      "name": "standardPaymentReference",
                      "type": "bytes32"
                    }
                  ],
                  "internalType": "struct BalanceDecreasingTransaction.ResponseBody",
                  "name": "responseBody",
                  "type": "tuple"
                }
              ],
              "internalType": "struct BalanceDecreasingTransaction.Response",
              "name": "data",
              "type": "tuple"
            }
          ],
          "internalType": "struct BalanceDecreasingTransaction.Proof",
          "name": "_payment2",
          "type": "tuple"
        },
        {
          "internalType": "address",
          "name": "_agentVault",
          "type": "address"
        }
      ],
      "name": "doublePaymentChallenge",
      "outputs": [],
      "stateMutability": "nonpayable",
      "type": "function"
    },
    {
      "inputs": [
        {
          "internalType": "address",
          "name": "_agentVault",
          "type": "address"
        }
      ],
      "name": "endLiquidation",
      "outputs": [],
      "stateMutability": "nonpayable",
      "type": "function"
    },
    {
      "inputs": [
        {
          "internalType": "address",
          "name": "_agentVault",
          "type": "address"
        },
        {
          "internalType": "string",
          "name": "_name",
          "type": "string"
        }
      ],
      "name": "executeAgentSettingUpdate",
      "outputs": [],
      "stateMutability": "nonpayable",
      "type": "function"
    },
    {
      "inputs": [
        {
          "components": [
            {
              "internalType": "bytes32[]",
              "name": "merkleProof",
              "type": "bytes32[]"
            },
            {
              "components": [
                {
                  "internalType": "bytes32",
                  "name": "attestationType",
                  "type": "bytes32"
                },
                {
                  "internalType": "bytes32",
                  "name": "sourceId",
                  "type": "bytes32"
                },
                {
                  "internalType": "uint64",
                  "name": "votingRound",
                  "type": "uint64"
                },
                {
                  "internalType": "uint64",
                  "name": "lowestUsedTimestamp",
                  "type": "uint64"
                },
                {
                  "components": [
                    {
                      "internalType": "bytes32",
                      "name": "transactionId",
                      "type": "bytes32"
                    },
                    {
                      "internalType": "uint256",
                      "name": "inUtxo",
                      "type": "uint256"
                    },
                    {
                      "internalType": "uint256",
                      "name": "utxo",
                      "type": "uint256"
                    }
                  ],
                  "internalType": "struct Payment.RequestBody",
                  "name": "requestBody",
                  "type": "tuple"
                },
                {
                  "components": [
                    {
                      "internalType": "uint64",
                      "name": "blockNumber",
                      "type": "uint64"
                    },
                    {
                      "internalType": "uint64",
                      "name": "blockTimestamp",
                      "type": "uint64"
                    },
                    {
                      "internalType": "bytes32",
                      "name": "sourceAddressHash",
                      "type": "bytes32"
                    },
                    {
                      "internalType": "bytes32",
                      "name": "receivingAddressHash",
                      "type": "bytes32"
                    },
                    {
                      "internalType": "bytes32",
                      "name": "intendedReceivingAddressHash",
                      "type": "bytes32"
                    },
                    {
                      "internalType": "int256",
                      "name": "spentAmount",
                      "type": "int256"
                    },
                    {
                      "internalType": "int256",
                      "name": "intendedSpentAmount",
                      "type": "int256"
                    },
                    {
                      "internalType": "int256",
                      "name": "receivedAmount",
                      "type": "int256"
                    },
                    {
                      "internalType": "int256",
                      "name": "intendedReceivedAmount",
                      "type": "int256"
                    },
                    {
                      "internalType": "bytes32",
                      "name": "standardPaymentReference",
                      "type": "bytes32"
                    },
                    {
                      "internalType": "bool",
                      "name": "oneToOne",
                      "type": "bool"
                    },
                    {
                      "internalType": "uint8",
                      "name": "status",
                      "type": "uint8"
                    }
                  ],
                  "internalType": "struct Payment.ResponseBody",
                  "name": "responseBody",
                  "type": "tuple"
                }
              ],
              "internalType": "struct Payment.Response",
              "name": "data",
              "type": "tuple"
            }
          ],
          "internalType": "struct Payment.Proof",
          "name": "_payment",
          "type": "tuple"
        },
        {
          "internalType": "uint256",
          "name": "_collateralReservationId",
          "type": "uint256"
        }
      ],
      "name": "executeMinting",
      "outputs": [],
      "stateMutability": "nonpayable",
      "type": "function"
    },
    {
      "inputs": [
        {
          "internalType": "address",
          "name": "_agentVault",
          "type": "address"
        }
      ],
      "name": "exitAvailableAgentList",
      "outputs": [],
      "stateMutability": "nonpayable",
      "type": "function"
    },
    {
      "inputs": [],
      "name": "fAsset",
      "outputs": [
        {
          "internalType": "contract IERC20",
          "name": "",
          "type": "address"
        }
      ],
      "stateMutability": "view",
      "type": "function"
    },
    {
      "inputs": [
        {
          "components": [
            {
              "internalType": "bytes32[]",
              "name": "merkleProof",
              "type": "bytes32[]"
            },
            {
              "components": [
                {
                  "internalType": "bytes32",
                  "name": "attestationType",
                  "type": "bytes32"
                },
                {
                  "internalType": "bytes32",
                  "name": "sourceId",
                  "type": "bytes32"
                },
                {
                  "internalType": "uint64",
                  "name": "votingRound",
                  "type": "uint64"
                },
                {
                  "internalType": "uint64",
                  "name": "lowestUsedTimestamp",
                  "type": "uint64"
                },
                {
                  "components": [
                    {
                      "internalType": "uint64",
                      "name": "blockNumber",
                      "type": "uint64"
                    },
                    {
                      "internalType": "uint64",
                      "name": "queryWindow",
                      "type": "uint64"
                    }
                  ],
                  "internalType": "struct ConfirmedBlockHeightExists.RequestBody",
                  "name": "requestBody",
                  "type": "tuple"
                },
                {
                  "components": [
                    {
                      "internalType": "uint64",
                      "name": "blockTimestamp",
                      "type": "uint64"
                    },
                    {
                      "internalType": "uint64",
                      "name": "numberOfConfirmations",
                      "type": "uint64"
                    },
                    {
                      "internalType": "uint64",
                      "name": "lowestQueryWindowBlockNumber",
                      "type": "uint64"
                    },
                    {
                      "internalType": "uint64",
                      "name": "lowestQueryWindowBlockTimestamp",
                      "type": "uint64"
                    }
                  ],
                  "internalType": "struct ConfirmedBlockHeightExists.ResponseBody",
                  "name": "responseBody",
                  "type": "tuple"
                }
              ],
              "internalType": "struct ConfirmedBlockHeightExists.Response",
              "name": "data",
              "type": "tuple"
            }
          ],
          "internalType": "struct ConfirmedBlockHeightExists.Proof",
          "name": "_proof",
          "type": "tuple"
        },
        {
          "internalType": "uint256",
          "name": "_redemptionRequestId",
          "type": "uint256"
        }
      ],
      "name": "finishRedemptionWithoutPayment",
      "outputs": [],
      "stateMutability": "nonpayable",
      "type": "function"
    },
    {
      "inputs": [
        {
          "components": [
            {
              "internalType": "bytes32[]",
              "name": "merkleProof",
              "type": "bytes32[]"
            },
            {
              "components": [
                {
                  "internalType": "bytes32",
                  "name": "attestationType",
                  "type": "bytes32"
                },
                {
                  "internalType": "bytes32",
                  "name": "sourceId",
                  "type": "bytes32"
                },
                {
                  "internalType": "uint64",
                  "name": "votingRound",
                  "type": "uint64"
                },
                {
                  "internalType": "uint64",
                  "name": "lowestUsedTimestamp",
                  "type": "uint64"
                },
                {
                  "components": [
                    {
                      "internalType": "bytes32",
                      "name": "transactionId",
                      "type": "bytes32"
                    },
                    {
                      "internalType": "bytes32",
                      "name": "sourceAddressIndicator",
                      "type": "bytes32"
                    }
                  ],
                  "internalType": "struct BalanceDecreasingTransaction.RequestBody",
                  "name": "requestBody",
                  "type": "tuple"
                },
                {
                  "components": [
                    {
                      "internalType": "uint64",
                      "name": "blockNumber",
                      "type": "uint64"
                    },
                    {
                      "internalType": "uint64",
                      "name": "blockTimestamp",
                      "type": "uint64"
                    },
                    {
                      "internalType": "bytes32",
                      "name": "sourceAddressHash",
                      "type": "bytes32"
                    },
                    {
                      "internalType": "int256",
                      "name": "spentAmount",
                      "type": "int256"
                    },
                    {
                      "internalType": "bytes32",
                      "name": "standardPaymentReference",
                      "type": "bytes32"
                    }
                  ],
                  "internalType": "struct BalanceDecreasingTransaction.ResponseBody",
                  "name": "responseBody",
                  "type": "tuple"
                }
              ],
              "internalType": "struct BalanceDecreasingTransaction.Response",
              "name": "data",
              "type": "tuple"
            }
          ],
          "internalType": "struct BalanceDecreasingTransaction.Proof[]",
          "name": "_payments",
          "type": "tuple[]"
        },
        {
          "internalType": "address",
          "name": "_agentVault",
          "type": "address"
        }
      ],
      "name": "freeBalanceNegativeChallenge",
      "outputs": [],
      "stateMutability": "nonpayable",
      "type": "function"
    },
    {
      "inputs": [
        {
          "internalType": "address",
          "name": "_agentVault",
          "type": "address"
        }
      ],
      "name": "getAgentInfo",
      "outputs": [
        {
          "components": [
            {
              "internalType": "enum AgentInfo.Status",
              "name": "status",
              "type": "uint8"
            },
            {
              "internalType": "address",
              "name": "ownerManagementAddress",
              "type": "address"
            },
            {
              "internalType": "address",
              "name": "ownerWorkAddress",
              "type": "address"
            },
            {
              "internalType": "address",
              "name": "collateralPool",
              "type": "address"
            },
            {
              "internalType": "string",
              "name": "underlyingAddressString",
              "type": "string"
            },
            {
              "internalType": "bool",
              "name": "publiclyAvailable",
              "type": "bool"
            },
            {
              "internalType": "uint256",
              "name": "feeBIPS",
              "type": "uint256"
            },
            {
              "internalType": "uint256",
              "name": "poolFeeShareBIPS",
              "type": "uint256"
            },
            {
              "internalType": "contract IERC20",
              "name": "vaultCollateralToken",
              "type": "address"
            },
            {
              "internalType": "uint256",
              "name": "mintingVaultCollateralRatioBIPS",
              "type": "uint256"
            },
            {
              "internalType": "uint256",
              "name": "mintingPoolCollateralRatioBIPS",
              "type": "uint256"
            },
            {
              "internalType": "uint256",
              "name": "freeCollateralLots",
              "type": "uint256"
            },
            {
              "internalType": "uint256",
              "name": "totalVaultCollateralWei",
              "type": "uint256"
            },
            {
              "internalType": "uint256",
              "name": "freeVaultCollateralWei",
              "type": "uint256"
            },
            {
              "internalType": "uint256",
              "name": "vaultCollateralRatioBIPS",
              "type": "uint256"
            },
            {
              "internalType": "uint256",
              "name": "totalPoolCollateralNATWei",
              "type": "uint256"
            },
            {
              "internalType": "uint256",
              "name": "freePoolCollateralNATWei",
              "type": "uint256"
            },
            {
              "internalType": "uint256",
              "name": "poolCollateralRatioBIPS",
              "type": "uint256"
            },
            {
              "internalType": "uint256",
              "name": "totalAgentPoolTokensWei",
              "type": "uint256"
            },
            {
              "internalType": "uint256",
              "name": "announcedVaultCollateralWithdrawalWei",
              "type": "uint256"
            },
            {
              "internalType": "uint256",
              "name": "announcedPoolTokensWithdrawalWei",
              "type": "uint256"
            },
            {
              "internalType": "uint256",
              "name": "freeAgentPoolTokensWei",
              "type": "uint256"
            },
            {
              "internalType": "uint256",
              "name": "mintedUBA",
              "type": "uint256"
            },
            {
              "internalType": "uint256",
              "name": "reservedUBA",
              "type": "uint256"
            },
            {
              "internalType": "uint256",
              "name": "redeemingUBA",
              "type": "uint256"
            },
            {
              "internalType": "uint256",
              "name": "poolRedeemingUBA",
              "type": "uint256"
            },
            {
              "internalType": "uint256",
              "name": "dustUBA",
              "type": "uint256"
            },
            {
              "internalType": "uint256",
              "name": "ccbStartTimestamp",
              "type": "uint256"
            },
            {
              "internalType": "uint256",
              "name": "liquidationStartTimestamp",
              "type": "uint256"
            },
            {
              "internalType": "uint256",
              "name": "maxLiquidationAmountUBA",
              "type": "uint256"
            },
            {
              "internalType": "uint256",
              "name": "liquidationPaymentFactorVaultBIPS",
              "type": "uint256"
            },
            {
              "internalType": "uint256",
              "name": "liquidationPaymentFactorPoolBIPS",
              "type": "uint256"
            },
            {
              "internalType": "int256",
              "name": "underlyingBalanceUBA",
              "type": "int256"
            },
            {
              "internalType": "uint256",
              "name": "requiredUnderlyingBalanceUBA",
              "type": "uint256"
            },
            {
              "internalType": "int256",
              "name": "freeUnderlyingBalanceUBA",
              "type": "int256"
            },
            {
              "internalType": "uint256",
              "name": "announcedUnderlyingWithdrawalId",
              "type": "uint256"
            },
            {
              "internalType": "uint256",
              "name": "buyFAssetByAgentFactorBIPS",
              "type": "uint256"
            },
            {
              "internalType": "uint256",
              "name": "poolExitCollateralRatioBIPS",
              "type": "uint256"
            },
            {
              "internalType": "uint256",
              "name": "poolTopupCollateralRatioBIPS",
              "type": "uint256"
            },
            {
              "internalType": "uint256",
              "name": "poolTopupTokenPriceFactorBIPS",
              "type": "uint256"
            }
          ],
          "internalType": "struct AgentInfo.Info",
          "name": "",
          "type": "tuple"
        }
      ],
      "stateMutability": "view",
      "type": "function"
    },
    {
      "inputs": [
        {
          "internalType": "address",
          "name": "_agentVault",
          "type": "address"
        }
      ],
      "name": "getAgentVaultOwner",
      "outputs": [
        {
          "internalType": "address",
          "name": "_ownerManagementAddress",
          "type": "address"
        }
      ],
      "stateMutability": "view",
      "type": "function"
    },
    {
      "inputs": [
        {
          "internalType": "uint256",
          "name": "_start",
          "type": "uint256"
        },
        {
          "internalType": "uint256",
          "name": "_end",
          "type": "uint256"
        }
      ],
      "name": "getAllAgents",
      "outputs": [
        {
          "internalType": "address[]",
          "name": "_agents",
          "type": "address[]"
        },
        {
          "internalType": "uint256",
          "name": "_totalLength",
          "type": "uint256"
        }
      ],
      "stateMutability": "view",
      "type": "function"
    },
    {
      "inputs": [
        {
          "internalType": "uint256",
          "name": "_start",
          "type": "uint256"
        },
        {
          "internalType": "uint256",
          "name": "_end",
          "type": "uint256"
        }
      ],
      "name": "getAvailableAgentsDetailedList",
      "outputs": [
        {
          "components": [
            {
              "internalType": "address",
              "name": "agentVault",
              "type": "address"
            },
            {
              "internalType": "uint256",
              "name": "feeBIPS",
              "type": "uint256"
            },
            {
              "internalType": "uint256",
              "name": "mintingVaultCollateralRatioBIPS",
              "type": "uint256"
            },
            {
              "internalType": "uint256",
              "name": "mintingPoolCollateralRatioBIPS",
              "type": "uint256"
            },
            {
              "internalType": "uint256",
              "name": "freeCollateralLots",
              "type": "uint256"
            }
          ],
          "internalType": "struct AvailableAgentInfo.Data[]",
          "name": "_agents",
          "type": "tuple[]"
        },
        {
          "internalType": "uint256",
          "name": "_totalLength",
          "type": "uint256"
        }
      ],
      "stateMutability": "view",
      "type": "function"
    },
    {
      "inputs": [
        {
          "internalType": "uint256",
          "name": "_start",
          "type": "uint256"
        },
        {
          "internalType": "uint256",
          "name": "_end",
          "type": "uint256"
        }
      ],
      "name": "getAvailableAgentsList",
      "outputs": [
        {
          "internalType": "address[]",
          "name": "_agents",
          "type": "address[]"
        },
        {
          "internalType": "uint256",
          "name": "_totalLength",
          "type": "uint256"
        }
      ],
      "stateMutability": "view",
      "type": "function"
    },
    {
      "inputs": [
        {
          "internalType": "address",
          "name": "_agentVault",
          "type": "address"
        }
      ],
      "name": "getCollateralPool",
      "outputs": [
        {
          "internalType": "address",
          "name": "",
          "type": "address"
        }
      ],
      "stateMutability": "view",
      "type": "function"
    },
    {
      "inputs": [],
      "name": "getCollateralPoolTokenTimelockSeconds",
      "outputs": [
        {
          "internalType": "uint256",
          "name": "",
          "type": "uint256"
        }
      ],
      "stateMutability": "view",
      "type": "function"
    },
    {
      "inputs": [
        {
          "internalType": "enum CollateralType.Class",
          "name": "_collateralClass",
          "type": "uint8"
        },
        {
          "internalType": "contract IERC20",
          "name": "_token",
          "type": "address"
        }
      ],
      "name": "getCollateralType",
      "outputs": [
        {
          "components": [
            {
              "internalType": "enum CollateralType.Class",
              "name": "collateralClass",
              "type": "uint8"
            },
            {
              "internalType": "contract IERC20",
              "name": "token",
              "type": "address"
            },
            {
              "internalType": "uint256",
              "name": "decimals",
              "type": "uint256"
            },
            {
              "internalType": "uint256",
              "name": "validUntil",
              "type": "uint256"
            },
            {
              "internalType": "bool",
              "name": "directPricePair",
              "type": "bool"
            },
            {
              "internalType": "string",
              "name": "assetFtsoSymbol",
              "type": "string"
            },
            {
              "internalType": "string",
              "name": "tokenFtsoSymbol",
              "type": "string"
            },
            {
              "internalType": "uint256",
              "name": "minCollateralRatioBIPS",
              "type": "uint256"
            },
            {
              "internalType": "uint256",
              "name": "ccbMinCollateralRatioBIPS",
              "type": "uint256"
            },
            {
              "internalType": "uint256",
              "name": "safetyMinCollateralRatioBIPS",
              "type": "uint256"
            }
          ],
          "internalType": "struct CollateralType.Data",
          "name": "",
          "type": "tuple"
        }
      ],
      "stateMutability": "view",
      "type": "function"
    },
    {
      "inputs": [],
      "name": "getCollateralTypes",
      "outputs": [
        {
          "components": [
            {
              "internalType": "enum CollateralType.Class",
              "name": "collateralClass",
              "type": "uint8"
            },
            {
              "internalType": "contract IERC20",
              "name": "token",
              "type": "address"
            },
            {
              "internalType": "uint256",
              "name": "decimals",
              "type": "uint256"
            },
            {
              "internalType": "uint256",
              "name": "validUntil",
              "type": "uint256"
            },
            {
              "internalType": "bool",
              "name": "directPricePair",
              "type": "bool"
            },
            {
              "internalType": "string",
              "name": "assetFtsoSymbol",
              "type": "string"
            },
            {
              "internalType": "string",
              "name": "tokenFtsoSymbol",
              "type": "string"
            },
            {
              "internalType": "uint256",
              "name": "minCollateralRatioBIPS",
              "type": "uint256"
            },
            {
              "internalType": "uint256",
              "name": "ccbMinCollateralRatioBIPS",
              "type": "uint256"
            },
            {
              "internalType": "uint256",
              "name": "safetyMinCollateralRatioBIPS",
              "type": "uint256"
            }
          ],
          "internalType": "struct CollateralType.Data[]",
          "name": "",
          "type": "tuple[]"
        }
      ],
      "stateMutability": "view",
      "type": "function"
    },
    {
      "inputs": [
        {
          "internalType": "address",
          "name": "_agentVault",
          "type": "address"
        }
      ],
      "name": "getFAssetsBackedByPool",
      "outputs": [
        {
          "internalType": "uint256",
          "name": "",
          "type": "uint256"
        }
      ],
      "stateMutability": "view",
      "type": "function"
    },
    {
      "inputs": [],
      "name": "getLiquidationSettings",
      "outputs": [
        {
          "internalType": "bytes",
          "name": "",
          "type": "bytes"
        }
      ],
      "stateMutability": "view",
      "type": "function"
    },
    {
      "inputs": [],
      "name": "getSettings",
      "outputs": [
        {
          "components": [
            {
              "internalType": "address",
              "name": "assetManagerController",
              "type": "address"
            },
            {
              "internalType": "address",
              "name": "fAsset",
              "type": "address"
            },
            {
              "internalType": "address",
              "name": "agentVaultFactory",
              "type": "address"
            },
            {
              "internalType": "address",
              "name": "collateralPoolFactory",
              "type": "address"
            },
            {
              "internalType": "address",
              "name": "collateralPoolTokenFactory",
              "type": "address"
            },
            {
              "internalType": "string",
              "name": "poolTokenSuffix",
              "type": "string"
            },
            {
              "internalType": "address",
              "name": "whitelist",
              "type": "address"
            },
            {
              "internalType": "address",
              "name": "agentOwnerRegistry",
              "type": "address"
            },
            {
              "internalType": "address",
              "name": "scProofVerifier",
              "type": "address"
            },
            {
              "internalType": "address",
              "name": "liquidationStrategy",
              "type": "address"
            },
            {
              "internalType": "address payable",
              "name": "burnAddress",
              "type": "address"
            },
            {
              "internalType": "address",
              "name": "priceReader",
              "type": "address"
            },
            {
              "internalType": "uint8",
              "name": "assetDecimals",
              "type": "uint8"
            },
            {
              "internalType": "uint8",
              "name": "assetMintingDecimals",
              "type": "uint8"
            },
            {
              "internalType": "bytes32",
              "name": "chainId",
              "type": "bytes32"
            },
            {
              "internalType": "uint32",
              "name": "averageBlockTimeMS",
              "type": "uint32"
            },
            {
              "internalType": "uint32",
              "name": "mintingPoolHoldingsRequiredBIPS",
              "type": "uint32"
            },
            {
              "internalType": "uint16",
              "name": "collateralReservationFeeBIPS",
              "type": "uint16"
            },
            {
              "internalType": "uint64",
              "name": "assetUnitUBA",
              "type": "uint64"
            },
            {
              "internalType": "uint64",
              "name": "assetMintingGranularityUBA",
              "type": "uint64"
            },
            {
              "internalType": "uint64",
              "name": "lotSizeAMG",
              "type": "uint64"
            },
            {
              "internalType": "uint16",
              "name": "minUnderlyingBackingBIPS",
              "type": "uint16"
            },
            {
              "internalType": "bool",
              "name": "requireEOAAddressProof",
              "type": "bool"
            },
            {
              "internalType": "uint64",
              "name": "mintingCapAMG",
              "type": "uint64"
            },
            {
              "internalType": "uint64",
              "name": "underlyingBlocksForPayment",
              "type": "uint64"
            },
            {
              "internalType": "uint64",
              "name": "underlyingSecondsForPayment",
              "type": "uint64"
            },
            {
              "internalType": "uint16",
              "name": "redemptionFeeBIPS",
              "type": "uint16"
            },
            {
              "internalType": "uint32",
              "name": "redemptionDefaultFactorVaultCollateralBIPS",
              "type": "uint32"
            },
            {
              "internalType": "uint32",
              "name": "redemptionDefaultFactorPoolBIPS",
              "type": "uint32"
            },
            {
              "internalType": "uint64",
              "name": "confirmationByOthersAfterSeconds",
              "type": "uint64"
            },
            {
              "internalType": "uint128",
              "name": "confirmationByOthersRewardUSD5",
              "type": "uint128"
            },
            {
              "internalType": "uint16",
              "name": "maxRedeemedTickets",
              "type": "uint16"
            },
            {
              "internalType": "uint16",
              "name": "paymentChallengeRewardBIPS",
              "type": "uint16"
            },
            {
              "internalType": "uint128",
              "name": "paymentChallengeRewardUSD5",
              "type": "uint128"
            },
            {
              "internalType": "uint64",
              "name": "withdrawalWaitMinSeconds",
              "type": "uint64"
            },
            {
              "internalType": "uint64",
              "name": "maxTrustedPriceAgeSeconds",
              "type": "uint64"
            },
            {
              "internalType": "uint64",
              "name": "ccbTimeSeconds",
              "type": "uint64"
            },
            {
              "internalType": "uint64",
              "name": "attestationWindowSeconds",
              "type": "uint64"
            },
            {
              "internalType": "uint64",
              "name": "minUpdateRepeatTimeSeconds",
              "type": "uint64"
            },
            {
              "internalType": "uint64",
              "name": "buybackCollateralFactorBIPS",
              "type": "uint64"
            },
            {
              "internalType": "uint64",
              "name": "announcedUnderlyingConfirmationMinSeconds",
              "type": "uint64"
            },
            {
              "internalType": "uint64",
              "name": "tokenInvalidationTimeMinSeconds",
              "type": "uint64"
            },
            {
              "internalType": "uint32",
              "name": "vaultCollateralBuyForFlareFactorBIPS",
              "type": "uint32"
            },
            {
              "internalType": "uint64",
              "name": "agentExitAvailableTimelockSeconds",
              "type": "uint64"
            },
            {
              "internalType": "uint64",
              "name": "agentFeeChangeTimelockSeconds",
              "type": "uint64"
            },
            {
              "internalType": "uint64",
              "name": "agentMintingCRChangeTimelockSeconds",
              "type": "uint64"
            },
            {
              "internalType": "uint64",
              "name": "poolExitAndTopupChangeTimelockSeconds",
              "type": "uint64"
            },
            {
              "internalType": "uint64",
              "name": "agentTimelockedOperationWindowSeconds",
              "type": "uint64"
            },
            {
              "internalType": "uint32",
              "name": "collateralPoolTokenTimelockSeconds",
              "type": "uint32"
            }
          ],
          "internalType": "struct AssetManagerSettings.Data",
          "name": "",
          "type": "tuple"
        }
      ],
      "stateMutability": "view",
      "type": "function"
    },
    {
      "inputs": [],
      "name": "getWNat",
      "outputs": [
        {
          "internalType": "contract IWNat",
          "name": "",
          "type": "address"
        }
      ],
      "stateMutability": "view",
      "type": "function"
    },
    {
      "inputs": [
        {
          "components": [
            {
              "internalType": "bytes32[]",
              "name": "merkleProof",
              "type": "bytes32[]"
            },
            {
              "components": [
                {
                  "internalType": "bytes32",
                  "name": "attestationType",
                  "type": "bytes32"
                },
                {
                  "internalType": "bytes32",
                  "name": "sourceId",
                  "type": "bytes32"
                },
                {
                  "internalType": "uint64",
                  "name": "votingRound",
                  "type": "uint64"
                },
                {
                  "internalType": "uint64",
                  "name": "lowestUsedTimestamp",
                  "type": "uint64"
                },
                {
                  "components": [
                    {
                      "internalType": "bytes32",
                      "name": "transactionId",
                      "type": "bytes32"
                    },
                    {
                      "internalType": "bytes32",
                      "name": "sourceAddressIndicator",
                      "type": "bytes32"
                    }
                  ],
                  "internalType": "struct BalanceDecreasingTransaction.RequestBody",
                  "name": "requestBody",
                  "type": "tuple"
                },
                {
                  "components": [
                    {
                      "internalType": "uint64",
                      "name": "blockNumber",
                      "type": "uint64"
                    },
                    {
                      "internalType": "uint64",
                      "name": "blockTimestamp",
                      "type": "uint64"
                    },
                    {
                      "internalType": "bytes32",
                      "name": "sourceAddressHash",
                      "type": "bytes32"
                    },
                    {
                      "internalType": "int256",
                      "name": "spentAmount",
                      "type": "int256"
                    },
                    {
                      "internalType": "bytes32",
                      "name": "standardPaymentReference",
                      "type": "bytes32"
                    }
                  ],
                  "internalType": "struct BalanceDecreasingTransaction.ResponseBody",
                  "name": "responseBody",
                  "type": "tuple"
                }
              ],
              "internalType": "struct BalanceDecreasingTransaction.Response",
              "name": "data",
              "type": "tuple"
            }
          ],
          "internalType": "struct BalanceDecreasingTransaction.Proof",
          "name": "_transaction",
          "type": "tuple"
        },
        {
          "internalType": "address",
          "name": "_agentVault",
          "type": "address"
        }
      ],
      "name": "illegalPaymentChallenge",
      "outputs": [],
      "stateMutability": "nonpayable",
      "type": "function"
    },
    {
      "inputs": [
        {
          "internalType": "address",
          "name": "_agentVault",
          "type": "address"
        },
        {
          "internalType": "address",
          "name": "_address",
          "type": "address"
        }
      ],
      "name": "isAgentVaultOwner",
      "outputs": [
        {
          "internalType": "bool",
          "name": "",
          "type": "bool"
        }
      ],
      "stateMutability": "view",
      "type": "function"
    },
    {
      "inputs": [
        {
          "internalType": "address",
          "name": "_agentVault",
          "type": "address"
        },
        {
          "internalType": "contract IERC20",
          "name": "_token",
          "type": "address"
        }
      ],
      "name": "isLockedVaultToken",
      "outputs": [
        {
          "internalType": "bool",
          "name": "",
          "type": "bool"
        }
      ],
      "stateMutability": "view",
      "type": "function"
    },
    {
      "inputs": [
        {
          "internalType": "address",
          "name": "_agentVault",
          "type": "address"
        },
        {
          "internalType": "uint256",
          "name": "_amountUBA",
          "type": "uint256"
        }
      ],
      "name": "liquidate",
      "outputs": [
        {
          "internalType": "uint256",
          "name": "_liquidatedAmountUBA",
          "type": "uint256"
        },
        {
          "internalType": "uint256",
          "name": "_amountPaidVault",
          "type": "uint256"
        },
        {
          "internalType": "uint256",
          "name": "_amountPaidPool",
          "type": "uint256"
        }
      ],
      "stateMutability": "nonpayable",
      "type": "function"
    },
    {
      "inputs": [],
      "name": "lotSize",
      "outputs": [
        {
          "internalType": "uint256",
          "name": "_lotSizeUBA",
          "type": "uint256"
        }
      ],
      "stateMutability": "view",
      "type": "function"
    },
    {
      "inputs": [
        {
          "internalType": "address",
          "name": "_agentVault",
          "type": "address"
        }
      ],
      "name": "makeAgentAvailable",
      "outputs": [],
      "stateMutability": "nonpayable",
      "type": "function"
    },
    {
      "inputs": [
        {
          "internalType": "address",
          "name": "_agentVault",
          "type": "address"
        }
      ],
      "name": "maxRedemptionFromAgent",
      "outputs": [
        {
          "internalType": "uint256",
          "name": "",
          "type": "uint256"
        }
      ],
      "stateMutability": "view",
      "type": "function"
    },
    {
      "inputs": [
        {
          "components": [
            {
              "internalType": "bytes32[]",
              "name": "merkleProof",
              "type": "bytes32[]"
            },
            {
              "components": [
                {
                  "internalType": "bytes32",
                  "name": "attestationType",
                  "type": "bytes32"
                },
                {
                  "internalType": "bytes32",
                  "name": "sourceId",
                  "type": "bytes32"
                },
                {
                  "internalType": "uint64",
                  "name": "votingRound",
                  "type": "uint64"
                },
                {
                  "internalType": "uint64",
                  "name": "lowestUsedTimestamp",
                  "type": "uint64"
                },
                {
                  "components": [
                    {
                      "internalType": "uint64",
                      "name": "minimalBlockNumber",
                      "type": "uint64"
                    },
                    {
                      "internalType": "uint64",
                      "name": "deadlineBlockNumber",
                      "type": "uint64"
                    },
                    {
                      "internalType": "uint64",
                      "name": "deadlineTimestamp",
                      "type": "uint64"
                    },
                    {
                      "internalType": "bytes32",
                      "name": "destinationAddressHash",
                      "type": "bytes32"
                    },
                    {
                      "internalType": "uint256",
                      "name": "amount",
                      "type": "uint256"
                    },
                    {
                      "internalType": "bytes32",
                      "name": "standardPaymentReference",
                      "type": "bytes32"
                    }
                  ],
                  "internalType": "struct ReferencedPaymentNonexistence.RequestBody",
                  "name": "requestBody",
                  "type": "tuple"
                },
                {
                  "components": [
                    {
                      "internalType": "uint64",
                      "name": "minimalBlockTimestamp",
                      "type": "uint64"
                    },
                    {
                      "internalType": "uint64",
                      "name": "firstOverflowBlockNumber",
                      "type": "uint64"
                    },
                    {
                      "internalType": "uint64",
                      "name": "firstOverflowBlockTimestamp",
                      "type": "uint64"
                    }
                  ],
                  "internalType": "struct ReferencedPaymentNonexistence.ResponseBody",
                  "name": "responseBody",
                  "type": "tuple"
                }
              ],
              "internalType": "struct ReferencedPaymentNonexistence.Response",
              "name": "data",
              "type": "tuple"
            }
          ],
          "internalType": "struct ReferencedPaymentNonexistence.Proof",
          "name": "_proof",
          "type": "tuple"
        },
        {
          "internalType": "uint256",
          "name": "_collateralReservationId",
          "type": "uint256"
        }
      ],
      "name": "mintingPaymentDefault",
      "outputs": [],
      "stateMutability": "nonpayable",
      "type": "function"
    },
    {
      "inputs": [],
      "name": "pause",
      "outputs": [],
      "stateMutability": "nonpayable",
      "type": "function"
    },
    {
      "inputs": [],
      "name": "paused",
      "outputs": [
        {
          "internalType": "bool",
          "name": "",
          "type": "bool"
        }
      ],
      "stateMutability": "view",
      "type": "function"
    },
    {
      "inputs": [
        {
          "components": [
            {
              "internalType": "bytes32[]",
              "name": "merkleProof",
              "type": "bytes32[]"
            },
            {
              "components": [
                {
                  "internalType": "bytes32",
                  "name": "attestationType",
                  "type": "bytes32"
                },
                {
                  "internalType": "bytes32",
                  "name": "sourceId",
                  "type": "bytes32"
                },
                {
                  "internalType": "uint64",
                  "name": "votingRound",
                  "type": "uint64"
                },
                {
                  "internalType": "uint64",
                  "name": "lowestUsedTimestamp",
                  "type": "uint64"
                },
                {
                  "components": [
                    {
                      "internalType": "bytes32",
                      "name": "transactionId",
                      "type": "bytes32"
                    },
                    {
                      "internalType": "uint256",
                      "name": "inUtxo",
                      "type": "uint256"
                    },
                    {
                      "internalType": "uint256",
                      "name": "utxo",
                      "type": "uint256"
                    }
                  ],
                  "internalType": "struct Payment.RequestBody",
                  "name": "requestBody",
                  "type": "tuple"
                },
                {
                  "components": [
                    {
                      "internalType": "uint64",
                      "name": "blockNumber",
                      "type": "uint64"
                    },
                    {
                      "internalType": "uint64",
                      "name": "blockTimestamp",
                      "type": "uint64"
                    },
                    {
                      "internalType": "bytes32",
                      "name": "sourceAddressHash",
                      "type": "bytes32"
                    },
                    {
                      "internalType": "bytes32",
                      "name": "receivingAddressHash",
                      "type": "bytes32"
                    },
                    {
                      "internalType": "bytes32",
                      "name": "intendedReceivingAddressHash",
                      "type": "bytes32"
                    },
                    {
                      "internalType": "int256",
                      "name": "spentAmount",
                      "type": "int256"
                    },
                    {
                      "internalType": "int256",
                      "name": "intendedSpentAmount",
                      "type": "int256"
                    },
                    {
                      "internalType": "int256",
                      "name": "receivedAmount",
                      "type": "int256"
                    },
                    {
                      "internalType": "int256",
                      "name": "intendedReceivedAmount",
                      "type": "int256"
                    },
                    {
                      "internalType": "bytes32",
                      "name": "standardPaymentReference",
                      "type": "bytes32"
                    },
                    {
                      "internalType": "bool",
                      "name": "oneToOne",
                      "type": "bool"
                    },
                    {
                      "internalType": "uint8",
                      "name": "status",
                      "type": "uint8"
                    }
                  ],
                  "internalType": "struct Payment.ResponseBody",
                  "name": "responseBody",
                  "type": "tuple"
                }
              ],
              "internalType": "struct Payment.Response",
              "name": "data",
              "type": "tuple"
            }
          ],
          "internalType": "struct Payment.Proof",
          "name": "_payment",
          "type": "tuple"
        }
      ],
      "name": "proveUnderlyingAddressEOA",
      "outputs": [],
      "stateMutability": "nonpayable",
      "type": "function"
    },
    {
      "inputs": [
        {
          "internalType": "uint256",
          "name": "_lots",
          "type": "uint256"
        },
        {
          "internalType": "string",
          "name": "_redeemerUnderlyingAddressString",
          "type": "string"
        },
        {
          "internalType": "address payable",
          "name": "_executor",
          "type": "address"
        }
      ],
      "name": "redeem",
      "outputs": [
        {
          "internalType": "uint256",
          "name": "_redeemedAmountUBA",
          "type": "uint256"
        }
      ],
      "stateMutability": "payable",
      "type": "function"
    },
    {
      "inputs": [
        {
          "internalType": "address",
          "name": "_agentVault",
          "type": "address"
        },
        {
          "internalType": "address",
          "name": "_receiver",
          "type": "address"
        },
        {
          "internalType": "uint256",
          "name": "_amountUBA",
          "type": "uint256"
        },
        {
          "internalType": "string",
          "name": "_receiverUnderlyingAddress",
          "type": "string"
        },
        {
          "internalType": "address payable",
          "name": "_executor",
          "type": "address"
        }
      ],
      "name": "redeemFromAgent",
      "outputs": [],
      "stateMutability": "payable",
      "type": "function"
    },
    {
      "inputs": [
        {
          "internalType": "address",
          "name": "_agentVault",
          "type": "address"
        },
        {
          "internalType": "address",
          "name": "_receiver",
          "type": "address"
        },
        {
          "internalType": "uint256",
          "name": "_amountUBA",
          "type": "uint256"
        }
      ],
      "name": "redeemFromAgentInCollateral",
      "outputs": [],
      "stateMutability": "nonpayable",
      "type": "function"
    },
    {
      "inputs": [
        {
          "components": [
            {
              "internalType": "bytes32[]",
              "name": "merkleProof",
              "type": "bytes32[]"
            },
            {
              "components": [
                {
                  "internalType": "bytes32",
                  "name": "attestationType",
                  "type": "bytes32"
                },
                {
                  "internalType": "bytes32",
                  "name": "sourceId",
                  "type": "bytes32"
                },
                {
                  "internalType": "uint64",
                  "name": "votingRound",
                  "type": "uint64"
                },
                {
                  "internalType": "uint64",
                  "name": "lowestUsedTimestamp",
                  "type": "uint64"
                },
                {
                  "components": [
                    {
                      "internalType": "uint64",
                      "name": "minimalBlockNumber",
                      "type": "uint64"
                    },
                    {
                      "internalType": "uint64",
                      "name": "deadlineBlockNumber",
                      "type": "uint64"
                    },
                    {
                      "internalType": "uint64",
                      "name": "deadlineTimestamp",
                      "type": "uint64"
                    },
                    {
                      "internalType": "bytes32",
                      "name": "destinationAddressHash",
                      "type": "bytes32"
                    },
                    {
                      "internalType": "uint256",
                      "name": "amount",
                      "type": "uint256"
                    },
                    {
                      "internalType": "bytes32",
                      "name": "standardPaymentReference",
                      "type": "bytes32"
                    }
                  ],
                  "internalType": "struct ReferencedPaymentNonexistence.RequestBody",
                  "name": "requestBody",
                  "type": "tuple"
                },
                {
                  "components": [
                    {
                      "internalType": "uint64",
                      "name": "minimalBlockTimestamp",
                      "type": "uint64"
                    },
                    {
                      "internalType": "uint64",
                      "name": "firstOverflowBlockNumber",
                      "type": "uint64"
                    },
                    {
                      "internalType": "uint64",
                      "name": "firstOverflowBlockTimestamp",
                      "type": "uint64"
                    }
                  ],
                  "internalType": "struct ReferencedPaymentNonexistence.ResponseBody",
                  "name": "responseBody",
                  "type": "tuple"
                }
              ],
              "internalType": "struct ReferencedPaymentNonexistence.Response",
              "name": "data",
              "type": "tuple"
            }
          ],
          "internalType": "struct ReferencedPaymentNonexistence.Proof",
          "name": "_proof",
          "type": "tuple"
        },
        {
          "internalType": "uint256",
          "name": "_redemptionRequestId",
          "type": "uint256"
        }
      ],
      "name": "redemptionPaymentDefault",
      "outputs": [],
      "stateMutability": "nonpayable",
      "type": "function"
    },
    {
      "inputs": [
        {
          "components": [
            {
              "internalType": "bytes32[]",
              "name": "merkleProof",
              "type": "bytes32[]"
            },
            {
              "components": [
                {
                  "internalType": "bytes32",
                  "name": "attestationType",
                  "type": "bytes32"
                },
                {
                  "internalType": "bytes32",
                  "name": "sourceId",
                  "type": "bytes32"
                },
                {
                  "internalType": "uint64",
                  "name": "votingRound",
                  "type": "uint64"
                },
                {
                  "internalType": "uint64",
                  "name": "lowestUsedTimestamp",
                  "type": "uint64"
                },
                {
                  "components": [
                    {
                      "internalType": "string",
                      "name": "addressStr",
                      "type": "string"
                    }
                  ],
                  "internalType": "struct AddressValidity.RequestBody",
                  "name": "requestBody",
                  "type": "tuple"
                },
                {
                  "components": [
                    {
                      "internalType": "bool",
                      "name": "isValid",
                      "type": "bool"
                    },
                    {
                      "internalType": "string",
                      "name": "standardAddress",
                      "type": "string"
                    },
                    {
                      "internalType": "bytes32",
                      "name": "standardAddressHash",
                      "type": "bytes32"
                    }
                  ],
                  "internalType": "struct AddressValidity.ResponseBody",
                  "name": "responseBody",
                  "type": "tuple"
                }
              ],
              "internalType": "struct AddressValidity.Response",
              "name": "data",
              "type": "tuple"
            }
          ],
          "internalType": "struct AddressValidity.Proof",
          "name": "_proof",
          "type": "tuple"
        },
        {
          "internalType": "uint256",
          "name": "_redemptionRequestId",
          "type": "uint256"
        }
      ],
      "name": "rejectInvalidRedemption",
      "outputs": [],
      "stateMutability": "nonpayable",
      "type": "function"
    },
    {
      "inputs": [
        {
          "internalType": "address",
          "name": "_agentVault",
          "type": "address"
        },
        {
          "internalType": "uint256",
          "name": "_lots",
          "type": "uint256"
        },
        {
          "internalType": "uint256",
          "name": "_maxMintingFeeBIPS",
          "type": "uint256"
        },
        {
          "internalType": "address payable",
          "name": "_executor",
          "type": "address"
        }
      ],
      "name": "reserveCollateral",
      "outputs": [],
      "stateMutability": "payable",
      "type": "function"
    },
    {
      "inputs": [
        {
          "internalType": "address",
          "name": "_agentVault",
          "type": "address"
        },
        {
          "internalType": "uint256",
          "name": "_amountUBA",
          "type": "uint256"
        }
      ],
      "name": "selfClose",
      "outputs": [
        {
          "internalType": "uint256",
          "name": "_closedAmountUBA",
          "type": "uint256"
        }
      ],
      "stateMutability": "nonpayable",
      "type": "function"
    },
    {
      "inputs": [
        {
          "components": [
            {
              "internalType": "bytes32[]",
              "name": "merkleProof",
              "type": "bytes32[]"
            },
            {
              "components": [
                {
                  "internalType": "bytes32",
                  "name": "attestationType",
                  "type": "bytes32"
                },
                {
                  "internalType": "bytes32",
                  "name": "sourceId",
                  "type": "bytes32"
                },
                {
                  "internalType": "uint64",
                  "name": "votingRound",
                  "type": "uint64"
                },
                {
                  "internalType": "uint64",
                  "name": "lowestUsedTimestamp",
                  "type": "uint64"
                },
                {
                  "components": [
                    {
                      "internalType": "bytes32",
                      "name": "transactionId",
                      "type": "bytes32"
                    },
                    {
                      "internalType": "uint256",
                      "name": "inUtxo",
                      "type": "uint256"
                    },
                    {
                      "internalType": "uint256",
                      "name": "utxo",
                      "type": "uint256"
                    }
                  ],
                  "internalType": "struct Payment.RequestBody",
                  "name": "requestBody",
                  "type": "tuple"
                },
                {
                  "components": [
                    {
                      "internalType": "uint64",
                      "name": "blockNumber",
                      "type": "uint64"
                    },
                    {
                      "internalType": "uint64",
                      "name": "blockTimestamp",
                      "type": "uint64"
                    },
                    {
                      "internalType": "bytes32",
                      "name": "sourceAddressHash",
                      "type": "bytes32"
                    },
                    {
                      "internalType": "bytes32",
                      "name": "receivingAddressHash",
                      "type": "bytes32"
                    },
                    {
                      "internalType": "bytes32",
                      "name": "intendedReceivingAddressHash",
                      "type": "bytes32"
                    },
                    {
                      "internalType": "int256",
                      "name": "spentAmount",
                      "type": "int256"
                    },
                    {
                      "internalType": "int256",
                      "name": "intendedSpentAmount",
                      "type": "int256"
                    },
                    {
                      "internalType": "int256",
                      "name": "receivedAmount",
                      "type": "int256"
                    },
                    {
                      "internalType": "int256",
                      "name": "intendedReceivedAmount",
                      "type": "int256"
                    },
                    {
                      "internalType": "bytes32",
                      "name": "standardPaymentReference",
                      "type": "bytes32"
                    },
                    {
                      "internalType": "bool",
                      "name": "oneToOne",
                      "type": "bool"
                    },
                    {
                      "internalType": "uint8",
                      "name": "status",
                      "type": "uint8"
                    }
                  ],
                  "internalType": "struct Payment.ResponseBody",
                  "name": "responseBody",
                  "type": "tuple"
                }
              ],
              "internalType": "struct Payment.Response",
              "name": "data",
              "type": "tuple"
            }
          ],
          "internalType": "struct Payment.Proof",
          "name": "_payment",
          "type": "tuple"
        },
        {
          "internalType": "address",
          "name": "_agentVault",
          "type": "address"
        },
        {
          "internalType": "uint256",
          "name": "_lots",
          "type": "uint256"
        }
      ],
      "name": "selfMint",
      "outputs": [],
      "stateMutability": "nonpayable",
      "type": "function"
    },
    {
      "inputs": [
        {
          "internalType": "enum CollateralType.Class",
          "name": "_collateralClass",
          "type": "uint8"
        },
        {
          "internalType": "contract IERC20",
          "name": "_token",
          "type": "address"
        },
        {
          "internalType": "uint256",
          "name": "_minCollateralRatioBIPS",
          "type": "uint256"
        },
        {
          "internalType": "uint256",
          "name": "_ccbMinCollateralRatioBIPS",
          "type": "uint256"
        },
        {
          "internalType": "uint256",
          "name": "_safetyMinCollateralRatioBIPS",
          "type": "uint256"
        }
      ],
      "name": "setCollateralRatiosForToken",
      "outputs": [],
      "stateMutability": "nonpayable",
      "type": "function"
    },
    {
      "inputs": [
        {
          "internalType": "address",
          "name": "_agentVault",
          "type": "address"
        }
      ],
      "name": "startLiquidation",
      "outputs": [
        {
          "internalType": "uint8",
          "name": "_liquidationStatus",
          "type": "uint8"
        },
        {
          "internalType": "uint256",
          "name": "_liquidationStartAt",
          "type": "uint256"
        }
      ],
      "stateMutability": "nonpayable",
      "type": "function"
    },
    {
      "inputs": [
        {
          "internalType": "bytes4",
          "name": "_interfaceId",
          "type": "bytes4"
        }
      ],
      "name": "supportsInterface",
      "outputs": [
        {
          "internalType": "bool",
          "name": "",
          "type": "bool"
        }
      ],
      "stateMutability": "pure",
      "type": "function"
    },
    {
      "inputs": [
        {
          "internalType": "address",
          "name": "_agentVault",
          "type": "address"
        },
        {
          "internalType": "contract IERC20",
          "name": "_token",
          "type": "address"
        }
      ],
      "name": "switchVaultCollateral",
      "outputs": [],
      "stateMutability": "nonpayable",
      "type": "function"
    },
    {
      "inputs": [],
      "name": "terminate",
      "outputs": [],
      "stateMutability": "nonpayable",
      "type": "function"
    },
    {
      "inputs": [],
      "name": "terminated",
      "outputs": [
        {
          "internalType": "bool",
          "name": "",
          "type": "bool"
        }
      ],
      "stateMutability": "view",
      "type": "function"
    },
    {
      "inputs": [],
      "name": "unpause",
      "outputs": [],
      "stateMutability": "nonpayable",
      "type": "function"
    },
    {
      "inputs": [
        {
          "components": [
            {
              "internalType": "bytes32[]",
              "name": "merkleProof",
              "type": "bytes32[]"
            },
            {
              "components": [
                {
                  "internalType": "bytes32",
                  "name": "attestationType",
                  "type": "bytes32"
                },
                {
                  "internalType": "bytes32",
                  "name": "sourceId",
                  "type": "bytes32"
                },
                {
                  "internalType": "uint64",
                  "name": "votingRound",
                  "type": "uint64"
                },
                {
                  "internalType": "uint64",
                  "name": "lowestUsedTimestamp",
                  "type": "uint64"
                },
                {
                  "components": [
                    {
                      "internalType": "uint64",
                      "name": "blockNumber",
                      "type": "uint64"
                    },
                    {
                      "internalType": "uint64",
                      "name": "queryWindow",
                      "type": "uint64"
                    }
                  ],
                  "internalType": "struct ConfirmedBlockHeightExists.RequestBody",
                  "name": "requestBody",
                  "type": "tuple"
                },
                {
                  "components": [
                    {
                      "internalType": "uint64",
                      "name": "blockTimestamp",
                      "type": "uint64"
                    },
                    {
                      "internalType": "uint64",
                      "name": "numberOfConfirmations",
                      "type": "uint64"
                    },
                    {
                      "internalType": "uint64",
                      "name": "lowestQueryWindowBlockNumber",
                      "type": "uint64"
                    },
                    {
                      "internalType": "uint64",
                      "name": "lowestQueryWindowBlockTimestamp",
                      "type": "uint64"
                    }
                  ],
                  "internalType": "struct ConfirmedBlockHeightExists.ResponseBody",
                  "name": "responseBody",
                  "type": "tuple"
                }
              ],
              "internalType": "struct ConfirmedBlockHeightExists.Response",
              "name": "data",
              "type": "tuple"
            }
          ],
          "internalType": "struct ConfirmedBlockHeightExists.Proof",
          "name": "_proof",
          "type": "tuple"
        },
        {
          "internalType": "uint256",
          "name": "_collateralReservationId",
          "type": "uint256"
        }
      ],
      "name": "unstickMinting",
      "outputs": [],
      "stateMutability": "payable",
      "type": "function"
    },
    {
      "inputs": [
        {
          "internalType": "address",
          "name": "_agentVault",
          "type": "address"
        },
        {
          "internalType": "contract IERC20",
          "name": "_token",
          "type": "address"
        }
      ],
      "name": "updateCollateral",
      "outputs": [],
      "stateMutability": "nonpayable",
      "type": "function"
    },
    {
      "inputs": [
        {
          "components": [
            {
              "internalType": "bytes32[]",
              "name": "merkleProof",
              "type": "bytes32[]"
            },
            {
              "components": [
                {
                  "internalType": "bytes32",
                  "name": "attestationType",
                  "type": "bytes32"
                },
                {
                  "internalType": "bytes32",
                  "name": "sourceId",
                  "type": "bytes32"
                },
                {
                  "internalType": "uint64",
                  "name": "votingRound",
                  "type": "uint64"
                },
                {
                  "internalType": "uint64",
                  "name": "lowestUsedTimestamp",
                  "type": "uint64"
                },
                {
                  "components": [
                    {
                      "internalType": "uint64",
                      "name": "blockNumber",
                      "type": "uint64"
                    },
                    {
                      "internalType": "uint64",
                      "name": "queryWindow",
                      "type": "uint64"
                    }
                  ],
                  "internalType": "struct ConfirmedBlockHeightExists.RequestBody",
                  "name": "requestBody",
                  "type": "tuple"
                },
                {
                  "components": [
                    {
                      "internalType": "uint64",
                      "name": "blockTimestamp",
                      "type": "uint64"
                    },
                    {
                      "internalType": "uint64",
                      "name": "numberOfConfirmations",
                      "type": "uint64"
                    },
                    {
                      "internalType": "uint64",
                      "name": "lowestQueryWindowBlockNumber",
                      "type": "uint64"
                    },
                    {
                      "internalType": "uint64",
                      "name": "lowestQueryWindowBlockTimestamp",
                      "type": "uint64"
                    }
                  ],
                  "internalType": "struct ConfirmedBlockHeightExists.ResponseBody",
                  "name": "responseBody",
                  "type": "tuple"
                }
              ],
              "internalType": "struct ConfirmedBlockHeightExists.Response",
              "name": "data",
              "type": "tuple"
            }
          ],
          "internalType": "struct ConfirmedBlockHeightExists.Proof",
          "name": "_proof",
          "type": "tuple"
        }
      ],
      "name": "updateCurrentBlock",
      "outputs": [],
      "stateMutability": "nonpayable",
      "type": "function"
    },
    {
      "inputs": [
        {
          "internalType": "bytes32",
          "name": "_method",
          "type": "bytes32"
        },
        {
          "internalType": "bytes",
          "name": "_params",
          "type": "bytes"
        }
      ],
      "name": "updateSettings",
      "outputs": [],
      "stateMutability": "nonpayable",
      "type": "function"
    },
    {
      "inputs": [
        {
          "internalType": "address",
          "name": "_agentVault",
          "type": "address"
        }
      ],
      "name": "upgradeWNatContract",
      "outputs": [],
      "stateMutability": "nonpayable",
      "type": "function"
    }
  ],
  "bytecode": "0x60806040523480156200001157600080fd5b506040516200705f3803806200705f8339810160408190526200003491620005b2565b600160005560405163658f4c6160e01b815273__$498fae630e5f9e2b0d2f5a14b70bbf8a29$__9063658f4c61906200007290869060040162000a55565b60006040518083038186803b1580156200008b57600080fd5b505af4158015620000a0573d6000803e3d6000fd5b505060405163cbcf339b60e01b815273__$b5cdffcf5b8f8ae6fa06e08eee0b808a00$__925063cbcf339b9150620000dd90859060040162000f9c565b60006040518083038186803b158015620000f657600080fd5b505af41580156200010b573d6000803e3d6000fd5b5050505062000120816200012960201b60201c565b505050620010cd565b7fec7e8c1c441439dd40959777f4c577ea0cd42fcc1dbe59d2bd0f5d9c55df8dbf546040516001600160a01b0390911690600090829063439fab91906200017590869060240162001093565b604051602081830303815290604052915060e01b6020820180516001600160e01b0383818316178352505050509050620001b68282620001bc60201b60201c565b50505050565b6060600080846001600160a01b031684604051620001db9190620010af565b600060405180830381855af49150503d806000811462000218576040519150601f19603f3d011682016040523d82523d6000602084013e6200021d565b606091505b5091509150811562000233579150620002469050565b3d604051818101604052816000823e8181fd5b92915050565b634e487b7160e01b600052604160045260246000fd5b60405161014081016001600160401b03811182821017156200028857620002886200024c565b60405290565b60405161062081016001600160401b03811182821017156200028857620002886200024c565b604051601f8201601f191681016001600160401b0381118282101715620002df57620002df6200024c565b604052919050565b80516001600160a01b0381168114620002ff57600080fd5b919050565b60005b838110156200032157818101518382015260200162000307565b50506000910152565b600082601f8301126200033c57600080fd5b81516001600160401b038111156200035857620003586200024c565b6200036d601f8201601f1916602001620002b4565b8181528460208386010111156200038357600080fd5b6200039682602083016020870162000304565b949350505050565b805160ff81168114620002ff57600080fd5b805163ffffffff81168114620002ff57600080fd5b805161ffff81168114620002ff57600080fd5b80516001600160401b0381168114620002ff57600080fd5b80518015158114620002ff57600080fd5b80516001600160801b0381168114620002ff57600080fd5b805160038110620002ff57600080fd5b600082601f8301126200043b57600080fd5b815160206001600160401b03808311156200045a576200045a6200024c565b8260051b6200046b838201620002b4565b93845285810183019383810190888611156200048657600080fd5b84880192505b85831015620005a657825184811115620004a65760008081fd5b8801610140818b03601f1901811315620004c05760008081fd5b620004ca62000262565b620004d788840162000419565b81526040620004e8818501620002e7565b89830152606080850151828401526080915081850151818401525060a062000512818601620003f0565b8284015260c0915081850151898111156200052d5760008081fd5b6200053d8f8c838901016200032a565b82850152505060e08085015189811115620005585760008081fd5b620005688f8c838901016200032a565b83850152506101009150818501518184015250610120808501518284015283850151818401525050808552505050848201915084830192506200048c565b98975050505050505050565b600080600060608486031215620005c857600080fd5b83516001600160401b0380821115620005e057600080fd5b908501906106208288031215620005f657600080fd5b620006006200028e565b6200060b83620002e7565b81526200061b60208401620002e7565b60208201526200062e60408401620002e7565b60408201526200064160608401620002e7565b60608201526200065460808401620002e7565b608082015260a0830151828111156200066c57600080fd5b6200067a898286016200032a565b60a0830152506200068e60c08401620002e7565b60c0820152620006a160e08401620002e7565b60e0820152610100620006b6818501620002e7565b90820152610120620006ca848201620002e7565b90820152610140620006de848201620002e7565b90820152610160620006f2848201620002e7565b90820152610180620007068482016200039e565b908201526101a06200071a8482016200039e565b908201526101c083810151908201526101e062000739818501620003b0565b908201526102006200074d848201620003b0565b9082015261022062000761848201620003c5565b9082015261024062000775848201620003d8565b9082015261026062000789848201620003d8565b908201526102806200079d848201620003d8565b908201526102a0620007b1848201620003c5565b908201526102c0620007c5848201620003f0565b908201526102e0620007d9848201620003d8565b90820152610300620007ed848201620003d8565b9082015261032062000801848201620003d8565b9082015261034062000815848201620003c5565b9082015261036062000829848201620003b0565b908201526103806200083d848201620003b0565b908201526103a062000851848201620003d8565b908201526103c06200086584820162000401565b908201526103e062000879848201620003c5565b908201526104006200088d848201620003c5565b90820152610420620008a184820162000401565b90820152610440620008b5848201620003d8565b90820152610460620008c9848201620003d8565b90820152610480620008dd848201620003d8565b908201526104a0620008f1848201620003d8565b908201526104c062000905848201620003d8565b908201526104e062000919848201620003d8565b908201526105006200092d848201620003d8565b9082015261052062000941848201620003d8565b9082015261054062000955848201620003b0565b9082015261056062000969848201620003d8565b908201526105806200097d848201620003d8565b908201526105a062000991848201620003d8565b908201526105c0620009a5848201620003d8565b908201526105e0620009b9848201620003d8565b90820152610600620009cd848201620003b0565b908201526020870151909550915080821115620009e957600080fd5b620009f78783880162000429565b9350604086015191508082111562000a0e57600080fd5b5062000a1d868287016200032a565b9150509250925092565b6000815180845262000a4181602086016020860162000304565b601f01601f19169290920160200192915050565b6020815262000a706020820183516001600160a01b03169052565b6000602083015162000a8d60408401826001600160a01b03169052565b5060408301516001600160a01b03811660608401525060608301516001600160a01b03811660808401525060808301516001600160a01b03811660a08401525060a08301516106208060c085015262000aeb61064085018362000a27565b915060c085015162000b0860e08601826001600160a01b03169052565b5060e085015161010062000b26818701836001600160a01b03169052565b860151905061012062000b43868201836001600160a01b03169052565b860151905061014062000b60868201836001600160a01b03169052565b860151905061016062000b7d868201836001600160a01b03169052565b860151905061018062000b9a868201836001600160a01b03169052565b86015190506101a062000bb18682018360ff169052565b86015190506101c062000bc88682018360ff169052565b8601516101e086810191909152860151905061020062000bef8187018363ffffffff169052565b860151905061022062000c098682018363ffffffff169052565b860151905061024062000c218682018361ffff169052565b860151905061026062000c3e868201836001600160401b03169052565b860151905061028062000c5b868201836001600160401b03169052565b86015190506102a062000c78868201836001600160401b03169052565b86015190506102c062000c908682018361ffff169052565b86015190506102e062000ca68682018315159052565b860151905061030062000cc3868201836001600160401b03169052565b860151905061032062000ce0868201836001600160401b03169052565b860151905061034062000cfd868201836001600160401b03169052565b860151905061036062000d158682018361ffff169052565b860151905061038062000d2f8682018363ffffffff169052565b86015190506103a062000d498682018363ffffffff169052565b86015190506103c062000d66868201836001600160401b03169052565b86015190506103e062000d83868201836001600160801b03169052565b860151905061040062000d9b8682018361ffff169052565b860151905061042062000db38682018361ffff169052565b860151905061044062000dd0868201836001600160801b03169052565b860151905061046062000ded868201836001600160401b03169052565b860151905061048062000e0a868201836001600160401b03169052565b86015190506104a062000e27868201836001600160401b03169052565b86015190506104c062000e44868201836001600160401b03169052565b86015190506104e062000e61868201836001600160401b03169052565b860151905061050062000e7e868201836001600160401b03169052565b860151905061052062000e9b868201836001600160401b03169052565b860151905061054062000eb8868201836001600160401b03169052565b860151905061056062000ed28682018363ffffffff169052565b860151905061058062000eef868201836001600160401b03169052565b86015190506105a062000f0c868201836001600160401b03169052565b86015190506105c062000f29868201836001600160401b03169052565b86015190506105e062000f46868201836001600160401b03169052565b860151905061060062000f63868201836001600160401b03169052565b9095015163ffffffff1693019290925250919050565b6003811062000f9857634e487b7160e01b600052602160045260246000fd5b9052565b60006020808301818452808551808352604092508286019150828160051b87010184880160005b838110156200108557603f19898403018552815161014062000fe785835162000f79565b888201516001600160a01b0316858a015287820151888601526060808301519086015260808083015115159086015260a080830151818701839052620010308388018262000a27565b9250505060c080830151868303828801526200104d838262000a27565b60e085810151908901526101008086015190890152610120948501519490970193909352505050938601939086019060010162000fc3565b509098975050505050505050565b602081526000620010a8602083018462000a27565b9392505050565b60008251620010c381846020870162000304565b9190910192915050565b615f8280620010dd6000396000f3fe60806040526004361061043c5760003560e01c80637e7bfdc611610234578063bcbaf4871161012e578063eb81ca63116100b6578063f056af421161007a578063f056af4214610d8a578063f0c0b72514610daa578063f19d3c0614610dd5578063f4d000b214610df5578063f6073bdf14610e1557600080fd5b8063eb81ca6314610ce8578063ec96c1c914610d08578063ed000b3014610d2a578063ed3762aa14610d4a578063eebbcd5514610d6a57600080fd5b8063de79b8a2116100fd578063de79b8a214610c2f578063e1c5010014610c4f578063e415339c14610c88578063e7732f9114610ca8578063e95a0bfd14610cc857600080fd5b8063bcbaf48714610b94578063c0674b4614610bcf578063d6b93a9f14610bef578063d9d7146314610c0f57600080fd5b80639584da2a116101bc578063b19aec1711610180578063b19aec1714610afe578063b5a488a614610b2c578063b68af97e14610b41578063b7f658ab14610b54578063b928b53314610b7457600080fd5b80639584da2a14610a7857806399646d1c14610a98578063997be0f414610aab578063a046394a14610abe578063a07ea7af14610ade57600080fd5b806384807e8d1161020357806384807e8d146109e35780638541cc05146109f657806385b4bb5314610a1657806387375f2714610a3857806388b7b33614610a5857600080fd5b80637e7bfdc61461095e5780638003314d1461097e57806382dede26146109ac5780638456cb59146109ce57600080fd5b80633851b614116103455780635e71055c116102cd578063700104f711610291578063700104f7146108c9578063778aadd5146108e95780637a2cf412146109095780637b3477c3146109295780637c7db1a51461094957600080fd5b80635e71055c14610829578063612007e51461084957806365454f941461086957806366a37046146108895780636e61164f146108a957600080fd5b80634942f65f116103145780634942f65f146107635780634f4fbfca146107785780635252f3a21461079857806353777730146107d05780635c975abb146107fc57600080fd5b80633851b614146106e15780633f4ba83a146107015780634610bc2314610716578063469052ad1461074357600080fd5b8063177d0307116103c8578063275a7bfc11610397578063275a7bfc1461064e57806329ff1308146106615780632dabf2d014610681578063345cf8ab146106a1578063368a3593146106c157600080fd5b8063177d0307146105bf578063194307bf146105f95780631e8bee011461060e578063249f1b591461062e57600080fd5b80630c08bf881161040f5780630c08bf881461050f5780630c3cdae7146105245780630ffb0e861461054457806313199ee014610572578063152052b01461059257600080fd5b806301ffc9a71461044157806302312aec1461047657806304203930146104a05780630877acff146104c2575b600080fd5b34801561044d57600080fd5b5061046161045c3660046136d0565b610e35565b60405190151581526020015b60405180910390f35b34801561048257600080fd5b5061048b610e87565b6040805192835260208301919091520161046d565b3480156104ac57600080fd5b506104c06104bb36600461370f565b610ede565b005b3480156104ce57600080fd5b507fec7e8c1c441439dd40959777f4c577ea0cd42fcc1dbe59d2bd0f5d9c55df8ddb546001600160401b03620100008204811691600160501b90041661048b565b34801561051b57600080fd5b506104c0610f4d565b34801561053057600080fd5b506104c061053f36600461372c565b610fb3565b34801561055057600080fd5b5061056461055f3660046138a7565b611028565b60405190815260200161046d565b34801561057e57600080fd5b506104c061058d366004613927565b6110b1565b34801561059e57600080fd5b506105b26105ad36600461370f565b611129565b60405161046d91906139e2565b3480156105cb57600080fd5b507fec7e8c1c441439dd40959777f4c577ea0cd42fcc1dbe59d2bd0f5d9c55df8dcb5463ffffffff16610564565b34801561060557600080fd5b506104616112f8565b34801561061a57600080fd5b5061056461062936600461370f565b611391565b34801561063a57600080fd5b506104c0610649366004613c38565b611411565b6104c061065c366004613c89565b61148f565b34801561066d57600080fd5b506104c061067c366004613cd3565b611550565b34801561068d57600080fd5b5061056461069c366004613d0c565b611598565b3480156106ad57600080fd5b506104c06106bc366004613d3d565b611618565b3480156106cd57600080fd5b506105646106dc366004613d83565b611651565b3480156106ed57600080fd5b506105646106fc36600461370f565b6116a2565b34801561070d57600080fd5b506104c06116e5565b34801561072257600080fd5b50610736610731366004613d9c565b611731565b60405161046d9190613e83565b34801561074f57600080fd5b506104c061075e366004613d0c565b611811565b34801561076f57600080fd5b5061056461185e565b34801561078457600080fd5b506104c0610793366004613ea9565b6118e1565b3480156107a457600080fd5b506107b86107b336600461370f565b611918565b6040516001600160a01b03909116815260200161046d565b3480156107dc57600080fd5b50600080516020615f0d83398151915254600160401b900460ff16610461565b34801561080857600080fd5b50600080516020615f0d833981519152546001600160401b03161515610461565b34801561083557600080fd5b5061056461084436600461370f565b611933565b34801561085557600080fd5b506104c061086436600461370f565b611976565b34801561087557600080fd5b506104c061088436600461370f565b6119b6565b34801561089557600080fd5b506104c06108a4366004613ef0565b6119f6565b3480156108b557600080fd5b506107b86108c436600461370f565b611a37565b3480156108d557600080fd5b506104616108e4366004613cd3565b611ab6565b3480156108f557600080fd5b506104c0610904366004613cd3565b611b3d565b34801561091557600080fd5b506104c0610924366004613cd3565b611b85565b34801561093557600080fd5b506104c0610944366004613f25565b611bcd565b34801561095557600080fd5b506107b8611c0e565b34801561096a57600080fd5b506104c0610979366004613f69565b611c41565b34801561098a57600080fd5b5061099e610999366004613fee565b611c84565b60405161046d929190614010565b3480156109b857600080fd5b506109c1611d15565b60405161046d919061408e565b3480156109da57600080fd5b506104c0611d88565b6104c06109f1366004613f25565b611dd4565b348015610a0257600080fd5b506104c0610a113660046140f0565b611e5b565b348015610a2257600080fd5b50610a2b611eed565b60405161046d9190614138565b348015610a4457600080fd5b506104c0610a53366004614646565b6123ca565b348015610a6457600080fd5b506107b8610a7336600461468e565b61240b565b348015610a8457600080fd5b50610564610a93366004613d0c565b612491565b610564610aa63660046146f1565b6124db565b6104c0610ab9366004614740565b61252a565b348015610aca57600080fd5b506104c0610ad93660046147c0565b612569565b348015610aea57600080fd5b506104c0610af936600461370f565b6125a9565b348015610b0a57600080fd5b50610b1e610b19366004613fee565b6125e9565b60405161046d9291906147f5565b348015610b3857600080fd5b506107b861266f565b6104c0610b4f36600461370f565b612679565b348015610b6057600080fd5b506104c0610b6f36600461370f565b6126f9565b348015610b8057600080fd5b506104c0610b8f36600461485f565b612739565b348015610ba057600080fd5b50610bb4610baf366004613d0c565b612771565b6040805193845260208401929092529082015260600161046d565b348015610bdb57600080fd5b506104c0610bea36600461370f565b61280f565b348015610bfb57600080fd5b50610461610c0a366004613cd3565b61284f565b348015610c1b57600080fd5b50610564610c2a366004613d0c565b612863565b348015610c3b57600080fd5b506104c0610c4a366004613d3d565b6128a1565b348015610c5b57600080fd5b50610c6f610c6a36600461370f565b6128da565b6040805160ff909316835260208301919091520161046d565b348015610c9457600080fd5b50610b1e610ca3366004613fee565b612984565b348015610cb457600080fd5b506104c0610cc336600461487c565b6129c9565b348015610cd457600080fd5b506104c0610ce336600461372c565b612a02565b348015610cf457600080fd5b506104c0610d033660046148c1565b612a26565b348015610d1457600080fd5b50610d1d612a69565b60405161046d919061491c565b348015610d3657600080fd5b506104c0610d4536600461492f565b612a73565b348015610d5657600080fd5b50610564610d6536600461370f565b612ac2565b348015610d7657600080fd5b506104c0610d8536600461494f565b612b05565b348015610d9657600080fd5b506104c0610da53660046147c0565b612b44565b348015610db657600080fd5b50600080516020615f2d833981519152546001600160a01b03166107b8565b348015610de157600080fd5b506104c0610df0366004614983565b612b8d565b348015610e0157600080fd5b506104c0610e1036600461370f565b612bd0565b348015610e2157600080fd5b506104c0610e303660046149fe565b612c10565b60006001600160e01b031982166301ffc9a760e01b1480610e6657506001600160e01b031982166348a2c79d60e01b145b80610e8157506001600160e01b0319821663c865a4dd60e01b145b92915050565b600080600080516020615f2d833981519152610ea9610ea4612c47565b612cc9565b600d820154909350600160901b90046001600160401b0316610ecd6009600a614b2c565b610ed79190614b38565b9150509091565b60405163b42652e960e01b81526001600160a01b038216600482015273__$4054b81dd018f00b16b0262e280b71bd3d$__9063b42652e9906024015b60006040518083038186803b158015610f3257600080fd5b505af4158015610f46573d6000803e3d6000fd5b5050505050565b610f55612cdf565b73__$722590fcf677171437eb48cf082465d6d7$__630c08bf886040518163ffffffff1660e01b815260040160006040518083038186803b158015610f9957600080fd5b505af4158015610fad573d6000803e3d6000fd5b50505050565b73__$f7c9c0d01068167c22df35ff5943b62148$__63247f29bc83610fd784612d4d565b6040518363ffffffff1660e01b8152600401610ff4929190614c20565b60006040518083038186803b15801561100c57600080fd5b505af4158015611020573d6000803e3d6000fd5b505050505050565b60405163ccfb491360e01b815260009073__$df85e949fff37977e0d300eb10fcbb4998$__9063ccfb49139061106690879087908790600401614d1e565b602060405180830381865af4158015611083573d6000803e3d6000fd5b505050506040513d601f19601f820116820180604052508101906110a79190614d52565b90505b9392505050565b6110b9612cdf565b60405163031836db60e41b815273__$b5cdffcf5b8f8ae6fa06e08eee0b808a00$__906331836db0906110f490869086908690600401614d6b565b60006040518083038186803b15801561110c57600080fd5b505af4158015611120573d6000803e3d6000fd5b50505050505050565b611278604080516105008101909152806000815260200160006001600160a01b0316815260200160006001600160a01b0316815260200160006001600160a01b0316815260200160608152602001600015158152602001600081526020016000815260200160006001600160a01b03168152602001600081526020016000815260200160008152602001600081526020016000815260200160008152602001600081526020016000815260200160008152602001600081526020016000815260200160008152602001600081526020016000815260200160008152602001600081526020016000815260200160008152602001600081526020016000815260200160008152602001600081526020016000815260200160008152602001600081526020016000815260200160008152602001600081526020016000815260200160008152602001600081525090565b604051630152052b60e41b81526001600160a01b038316600482015273__$ec55c6bae1638b00bbedb6b751f1f84e77$__9063152052b090602401600060405180830381865af41580156112d0573d6000803e3d6000fd5b505050506040513d6000823e601f3d908101601f19168201604052610e819190810190614e0a565b600061132b7fec7e8c1c441439dd40959777f4c577ea0cd42fcc1dbe59d2bd0f5d9c55df8db7546001600160a01b031690565b6001600160a01b031663194307bf6040518163ffffffff1660e01b8152600401602060405180830381865afa158015611368573d6000803e3d6000fd5b505050506040513d601f19601f8201168201806040525081019061138c919061504d565b905090565b604051631e8bee0160e01b81526001600160a01b038216600482015260009073__$4ff30c53c077284d3b777228e6ae31216c$__90631e8bee01906024015b602060405180830381865af41580156113ed573d6000803e3d6000fd5b505050506040513d601f19601f82011682018060405250810190610e819190614d52565b611419612cdf565b60405163314768f160e11b815273__$b5cdffcf5b8f8ae6fa06e08eee0b808a00$__9063628ed1e290611458908890889088908890889060040161506a565b60006040518083038186803b15801561147057600080fd5b505af4158015611484573d6000803e3d6000fd5b505050505050505050565b611497612db9565b61149f612e0e565b73__$f7c9c0d01068167c22df35ff5943b62148$__63cf551e4733866114c487612d4d565b6114cd87612d4d565b6040516001600160e01b031960e087901b1681526001600160a01b03948516600482015292841660248401526001600160401b039182166044840152166064820152908416608482015260a40160006040518083038186803b15801561153257600080fd5b505af4158015611546573d6000803e3d6000fd5b5050505050505050565b60405163c61ce7dd60e01b81526001600160a01b0380841660048301528216602482015273__$c7446ca28182994c6c0135601399c1b584$__9063c61ce7dd90604401610ff4565b60405163a43ba5ab60e01b815260009073__$c7446ca28182994c6c0135601399c1b584$__9063a43ba5ab906115d79060029087908790600401614d6b565b602060405180830381865af41580156115f4573d6000803e3d6000fd5b505050506040513d601f19601f820116820180604052508101906110aa9190614d52565b60405163961b008960e01b815273__$900ca2dd89aa7bd7c22612e1484fcfb277$__9063961b008990610ff490859085906004016151fc565b600073__$f7c9c0d01068167c22df35ff5943b62148$__630c7dcd1561167684612d4d565b6040516001600160e01b031960e084901b1681526001600160401b0390911660048201526024016113d0565b60405163fdf6b37560e01b81526001600160a01b038216600482015260009073__$4054b81dd018f00b16b0262e280b71bd3d$__9063fdf6b375906024016113d0565b6116ed612cdf565b73__$722590fcf677171437eb48cf082465d6d7$__633f4ba83a6040518163ffffffff1660e01b815260040160006040518083038186803b158015610f9957600080fd5b611793604080516101408101909152806000815260200160006001600160a01b03168152602001600081526020016000815260200160001515815260200160608152602001606081526020016000815260200160008152602001600081525090565b604051631107361560e01b815273__$b5cdffcf5b8f8ae6fa06e08eee0b808a00$__906311073615906117cc9086908690600401615226565b600060405180830381865af41580156117e9573d6000803e3d6000fd5b505050506040513d6000823e601f3d908101601f191682016040526110aa919081019061532e565b6040516325165ca760e11b81526001600160a01b03831660048201523360248201526044810182905273__$c7446ca28182994c6c0135601399c1b584$__90634a2cb94e90606401610ff4565b7fec7e8c1c441439dd40959777f4c577ea0cd42fcc1dbe59d2bd0f5d9c55df8dc3547fec7e8c1c441439dd40959777f4c577ea0cd42fcc1dbe59d2bd0f5d9c55df8dc454600091600080516020615f2d833981519152916118d291600160901b90046001600160401b039081169116615362565b6001600160401b031691505090565b604051630497cc7360e41b815273__$722590fcf677171437eb48cf082465d6d7$__9063497cc73090610f1a908490600401615476565b600061192382612efa565b546001600160a01b031692915050565b60405163e4c5e4e960e01b81526001600160a01b038216600482015260009073__$8ed6b3b04009dff171844b9d72c92eddd0$__9063e4c5e4e9906024016113d0565b604051630877cd8160e41b81526001600160a01b038216600482015273__$4054b81dd018f00b16b0262e280b71bd3d$__9063877cd81090602401610f1a565b60405163195153e560e21b81526001600160a01b038216600482015273__$c7446ca28182994c6c0135601399c1b584$__906365454f9490602401610f1a565b6119fe612e0e565b60405163e512e75360e01b815273__$d15fd82c1987b4adc4c1dba5cf0be762b0$__9063e512e75390610ff49085908590600401615559565b604051636e61164f60e01b81526001600160a01b038216600482015260009073__$c7446ca28182994c6c0135601399c1b584$__90636e61164f90602401602060405180830381865af4158015611a92573d6000803e3d6000fd5b505050506040513d601f19601f82011682018060405250810190610e81919061556c565b604051636a79d06960e11b81526001600160a01b0380841660048301528216602482015260009073__$c7446ca28182994c6c0135601399c1b584$__9063d4f3a0d290604401602060405180830381865af4158015611b19573d6000803e3d6000fd5b505050506040513d601f19601f820116820180604052508101906110aa919061504d565b60405163778aadd560e01b81526001600160a01b0380841660048301528216602482015273__$8ed6b3b04009dff171844b9d72c92eddd0$__9063778aadd590604401610ff4565b60405163e3d7785160e01b81526001600160a01b0380841660048301528216602482015273__$c7446ca28182994c6c0135601399c1b584$__9063e3d7785190604401610ff4565b73__$2121826b9482dc4a95d5f1c5bc0ffbdf06$__634b6bee8783611bf184612d4d565b6040518363ffffffff1660e01b8152600401610ff4929190615589565b600061138c7fec7e8c1c441439dd40959777f4c577ea0cd42fcc1dbe59d2bd0f5d9c55df8db7546001600160a01b031690565b611c49612e0e565b604051631da71bad60e11b815273__$d15fd82c1987b4adc4c1dba5cf0be762b0$__90633b4e375a906110f4908690869086906004016155b4565b60405163825378af60e01b8152600481018390526024810182905260609060009073__$4054b81dd018f00b16b0262e280b71bd3d$__9063825378af90604401600060405180830381865af4158015611ce1573d6000803e3d6000fd5b505050506040513d6000823e601f3d908101601f19168201604052611d09919081019061565e565b915091505b9250929050565b606073__$b5cdffcf5b8f8ae6fa06e08eee0b808a00$__63d80516a56040518163ffffffff1660e01b8152600401600060405180830381865af4158015611d60573d6000803e3d6000fd5b505050506040513d6000823e601f3d908101601f1916820160405261138c9190810190615740565b611d90612cdf565b73__$722590fcf677171437eb48cf082465d6d7$__638456cb596040518163ffffffff1660e01b815260040160006040518083038186803b158015610f9957600080fd5b611ddc612fa1565b73__$f7c9c0d01068167c22df35ff5943b62148$__63471b421e83611e0084612d4d565b6040518363ffffffff1660e01b8152600401611e1d929190615589565b60006040518083038186803b158015611e3557600080fd5b505af4158015611e49573d6000803e3d6000fd5b50505050611e576001600055565b5050565b611e63612db9565b611e6b612fa1565b73__$db99a4b0b1a8936beb7122d8143ea3b698$__63333203338484611e9085612d4d565b6040518463ffffffff1660e01b8152600401611eae939291906157f0565b60006040518083038186803b158015611ec657600080fd5b505af4158015611eda573d6000803e3d6000fd5b50505050611ee86001600055565b505050565b604080516106208101825260008082526020820181905291810182905260608082018390526080820183905260a082015260c0810182905260e08101829052610100810182905261012081018290526101408101829052610160810182905261018081018290526101a081018290526101c081018290526101e08101829052610200810182905261022081018290526102408101829052610260810182905261028081018290526102a081018290526102c081018290526102e08101829052610300810182905261032081018290526103408101829052610360810182905261038081018290526103a081018290526103c081018290526103e08101829052610400810182905261042081018290526104408101829052610460810182905261048081018290526104a081018290526104c081018290526104e08101829052610500810182905261052081018290526105408101829052610560810182905261058081018290526105a081018290526105c081018290526105e08101829052610600810191909152600080516020615f2d833981519152604080516106208101825282546001600160a01b03908116825260018401548116602083015260028401548116928201929092526003830154821660608201526004830154909116608082015260058201805491929160a0840191906120e99061582c565b80601f01602080910402602001604051908101604052809291908181526020018280546121159061582c565b80156121625780601f1061213757610100808354040283529160200191612162565b820191906000526020600020905b81548152906001019060200180831161214557829003601f168201915b505050918352505060068201546001600160a01b039081166020830152600783015481166040830152600883015481166060830152600983015481166080830152600a830154811660a0830152600b83015490811660c083015260ff600160a01b808304821660e0850152600160a81b9092048116610100840152600c840154610120840152600d84015463ffffffff8082166101408601526401000000008204811661016086015261ffff600160401b80840482166101808801526001600160401b03600160501b80860482166101a08a0152600160901b9586900482166101c08a0152600e8a01548083166101e08b015283810485166102008b015281810490971615156102208a0152600160581b870482166102408a0152600160981b9096048116610260890152600f8901548082166102808a015282810484166102a08a015295860484166102c0890152600160701b860484166102e089015294849004851661030088015260108801546001600160801b038082166103208a0152600160801b80830485166103408b015295909104909216610360880152601188015491821661038088015283820485166103a0880152600160c01b9182900485166103c088015260128801548086166103e08901528181048616610400890152848104861661042089015282900485166104408801526013880154808616610460890152818104861661048089015284810484166104a08901529590950484166104c087015260148701548085166104e08801529485048416610500870152918404831661052086015292041661054083015260159092015490911661056090910152919050565b73__$4ff30c53c077284d3b777228e6ae31216c$__63da8e273d836123ee84612d4d565b6040518363ffffffff1660e01b8152600401610ff4929190615a33565b6000612415612db9565b604051631996db7360e11b815273__$8ed6b3b04009dff171844b9d72c92eddd0$__9063332db6e69061245090309087908790600401615a46565b602060405180830381865af415801561246d573d6000803e3d6000fd5b505050506040513d601f19601f820116820180604052508101906110aa919061556c565b604051634ac26d1560e11b81526001600160a01b03831660048201526024810182905260009073__$4ff30c53c077284d3b777228e6ae31216c$__90639584da2a906044016115d7565b60006124e5612e0e565b73__$4ff30c53c077284d3b777228e6ae31216c$__63480167f83361250987612d4d565b86866040518563ffffffff1660e01b81526004016110669493929190615b14565b60405163265ef83d60e21b815273__$4ff30c53c077284d3b777228e6ae31216c$__9063997be0f4906114589088908890889088908890600401615b59565b73__$305ac64b111b0d775ac583a3c3f22849b9$__62e979288361258c84612d4d565b6040518363ffffffff1660e01b8152600401610ff4929190615b9e565b60405163a07ea7af60e01b81526001600160a01b038216600482015273__$900ca2dd89aa7bd7c22612e1484fcfb277$__9063a07ea7af90602401610f1a565b60405163b19aec1760e01b8152600481018390526024810182905260609060009073__$c7446ca28182994c6c0135601399c1b584$__9063b19aec17906044015b600060405180830381865af4158015612647573d6000803e3d6000fd5b505050506040513d6000823e601f3d908101601f19168201604052611d099190810190615bb1565b600061138c612ffa565b612681612fa1565b604051635b457cbf60e11b81526001600160a01b038216600482015273__$8ed6b3b04009dff171844b9d72c92eddd0$__9063b68af97e9060240160006040518083038186803b1580156126d457600080fd5b505af41580156126e8573d6000803e3d6000fd5b505050506126f66001600055565b50565b60405163b7f658ab60e01b81526001600160a01b038216600482015273__$55e854ab37cd1bbaf9fa5a4f99ff154ced$__9063b7f658ab90602401610f1a565b612741612cdf565b600080516020615f0d8339815191528054911515600160401b0268ff000000000000000019909216919091179055565b600080600061277e612e0e565b60405163bcbaf48760e01b81526001600160a01b03861660048201526024810185905273__$55e854ab37cd1bbaf9fa5a4f99ff154ced$__9063bcbaf48790604401606060405180830381865af41580156127dd573d6000803e3d6000fd5b505050506040513d601f19601f820116820180604052508101906128019190615c52565b9250925092505b9250925092565b604051636033a5a360e11b81526001600160a01b038216600482015273__$900ca2dd89aa7bd7c22612e1484fcfb277$__9063c0674b4690602401610f1a565b60006110aa61285d84612efa565b83613088565b60405163a43ba5ab60e01b815260009073__$c7446ca28182994c6c0135601399c1b584$__9063a43ba5ab906115d790849087908790600401614d6b565b604051631b4952bf60e11b815273__$1c6dbe76071682217e38af6fe7e8685bd4$__90633692a57e90610ff490859085906004016151fc565b6000806128e5612e0e565b60405162e1c50160e81b81526001600160a01b0384166004820152600090819073__$55e854ab37cd1bbaf9fa5a4f99ff154ced$__9063e1c50100906024016040805180830381865af4158015612940573d6000803e3d6000fd5b505050506040513d601f19601f820116820180604052508101906129649190615c80565b9150915081600281111561297a5761297a613968565b9590945092505050565b6040516315302d6160e31b8152600481018390526024810182905260609060009073__$4054b81dd018f00b16b0262e280b71bd3d$__9063a9816b089060440161262a565b6040516331ec097760e01b815273__$df85e949fff37977e0d300eb10fcbb4998$__906331ec097790610ff49085908590600401615cae565b73__$2121826b9482dc4a95d5f1c5bc0ffbdf06$__63f71ab41683610fd784612d4d565b612a2e612e0e565b604051635e9a8dfd60e11b815273__$d15fd82c1987b4adc4c1dba5cf0be762b0$__9063bd351bfa906110f490869086908690600401615cd2565b606061138c61315a565b604051630ed000b360e41b81526001600160a01b038085166004830152831660248201526044810182905273__$4ff30c53c077284d3b777228e6ae31216c$__9063ed000b30906064016110f4565b60405163769bb15560e11b81526001600160a01b038216600482015260009073__$c7446ca28182994c6c0135601399c1b584$__9063ed3762aa906024016113d0565b612b0d612cdf565b60405163839eddcd60e01b815273__$b5cdffcf5b8f8ae6fa06e08eee0b808a00$__9063839eddcd90610f1a908490600401615d10565b612b4c612fa1565b73__$db99a4b0b1a8936beb7122d8143ea3b698$__639060659983612b7084612d4d565b6040518363ffffffff1660e01b8152600401611e1d929190615b9e565b612b95612cdf565b6040516302fab52b60e01b815273__$498fae630e5f9e2b0d2f5a14b70bbf8a29$__906302fab52b906110f490869086908690600401615deb565b604051637a68005960e11b81526001600160a01b038216600482015273__$c7446ca28182994c6c0135601399c1b584$__9063f4d000b290602401610f1a565b604051638323a0a960e01b815273__$8ed6b3b04009dff171844b9d72c92eddd0$__90638323a0a990610f1a908490600401615e05565b7fec7e8c1c441439dd40959777f4c577ea0cd42fcc1dbe59d2bd0f5d9c55df8ddb547fec7e8c1c441439dd40959777f4c577ea0cd42fcc1dbe59d2bd0f5d9c55df8dcc8054600092600080516020615f2d833981519152929161ffff909116908110612cb557612cb5615e18565b906000526020600020906004020191505090565b6000612cd68260006131dc565b50909392505050565b600080516020615f2d833981519152546001600160a01b03163314612d4b5760405162461bcd60e51b815260206004820152601d60248201527f6f6e6c79206173736574206d616e6167657220636f6e74726f6c6c657200000060448201526064015b60405180910390fd5b565b60006001600160401b03821115612db55760405162461bcd60e51b815260206004820152602660248201527f53616665436173743a2076616c756520646f65736e27742066697420696e203660448201526534206269747360d01b6064820152608401612d42565b5090565b600080516020615f0d83398151915254600160401b900460ff16612d4b5760405162461bcd60e51b815260206004820152600c60248201526b1b9bdd08185d1d1858da195960a21b6044820152606401612d42565b7fec7e8c1c441439dd40959777f4c577ea0cd42fcc1dbe59d2bd0f5d9c55df8dbc54600080516020615f2d833981519152906001600160a01b0316156126f6576006810154604051633af32abf60e01b81523360048201526001600160a01b0390911690633af32abf90602401602060405180830381865afa158015612e98573d6000803e3d6000fd5b505050506040513d601f19601f82011682018060405250810190612ebc919061504d565b6126f65760405162461bcd60e51b815260206004820152600f60248201526e1b9bdd081dda1a5d195b1a5cdd1959608a1b6044820152606401612d42565b7f5bebac0595fee029d42bb673937f5f1cb81cf8641382bc17774635de9b7d796568010000000000000000600160e01b03604083901b161880600060048084015460ff1690811115612f4e57612f4e613968565b03612f9b5760405162461bcd60e51b815260206004820152601b60248201527f696e76616c6964206167656e74207661756c74206164647265737300000000006044820152606401612d42565b50919050565b600260005403612ff35760405162461bcd60e51b815260206004820152601f60248201527f5265656e7472616e637947756172643a207265656e7472616e742063616c6c006044820152606401612d42565b6002600055565b7fec7e8c1c441439dd40959777f4c577ea0cd42fcc1dbe59d2bd0f5d9c55df8ddb547fec7e8c1c441439dd40959777f4c577ea0cd42fcc1dbe59d2bd0f5d9c55df8dcc8054600092600080516020615f2d833981519152929161ffff90911690811061306857613068615e18565b60009182526020909120600490910201546001600160a01b031692915050565b60018201546000906001600160a01b0390811690831681148061315257507fec7e8c1c441439dd40959777f4c577ea0cd42fcc1dbe59d2bd0f5d9c55df8dbd546001600160a01b0316604051631f86345d60e31b81526001600160a01b038381166004830152919091169063fc31a2e890602401602060405180830381865afa158015613119573d6000803e3d6000fd5b505050506040513d601f19601f8201168201806040525081019061313d919061556c565b6001600160a01b0316836001600160a01b0316145b949350505050565b7fec7e8c1c441439dd40959777f4c577ea0cd42fcc1dbe59d2bd0f5d9c55df8dbf546040805160048152602481019091526020810180516001600160e01b03166385b4bb5360e01b1790526060916001600160a01b03169060006131be8383613394565b9050808060200190518101906131d49190615e2e565b935050505090565b60008060008060008061327b8860010180546131f79061582c565b80601f01602080910402602001604051908101604052809291908181526020018280546132239061582c565b80156132705780601f1061324557610100808354040283529160200191613270565b820191906000526020600020905b81548152906001019060200180831161325357829003601f168201915b5050505050886133b1565b8a549295509093509150600160f01b900460ff16156132c25787546000906132b190600160a81b900460ff16600183878661349f565b965091945084935061280892505050565b600080600061335d8b60020180546132d99061582c565b80601f01602080910402602001604051908101604052809291908181526020018280546133059061582c565b80156133525780601f1061332757610100808354040283529160200191613352565b820191906000526020600020905b81548152906001019060200180831161333557829003601f168201915b50505050508b6133b1565b8d54929550909350915060009061338190600160a81b900460ff1685848a8961349f565b9950949750909550612808945050505050565b6060613526806133a8858563ffffffff8416565b95945050505050565b7fec7e8c1c441439dd40959777f4c577ea0cd42fcc1dbe59d2bd0f5d9c55df8dc15460009081908190600080516020615f2d833981519152906001600160a01b031685156134735760405163e4a0a55b60e01b81526001600160a01b0382169063e4a0a55b90613425908a9060040161491c565b606060405180830381865afa158015613442573d6000803e3d6000fd5b505050506040513d601f19601f820116820180604052508101906134669190615c52565b9450945094505050612808565b60405163524f388960e01b81526001600160a01b0382169063524f388990613425908a9060040161491c565b6000600080516020615f2d8339815191528160096134bd878a615e76565b6134c79190615e76565b600b8301549091506000906134e7908690600160a81b900460ff16615e76565b9050808210156134f9576134f9615e89565b6135196135068284615e9f565b61351190600a614b2c565b87908a6135aa565b9998505050505050505050565b6060600080846001600160a01b0316846040516135439190615eb2565b600060405180830381855af49150503d806000811461357e576040519150601f19603f3d011682016040523d82523d6000602084013e613583565b606091505b50915091508115613597579150610e819050565b3d604051818101604052816000823e8181fd5b60008082116135ee5760405162461bcd60e51b815260206004820152601060248201526f4469766973696f6e206279207a65726f60801b6044820152606401612d42565b836000036135fe575060006110aa565b8383028385828161361157613611615ece565b040361362f5782818161362657613626615ece565b049150506110aa565b50600061363c8386615ee4565b9050600061364a8487615ef8565b905060006136588587615ee4565b905060006136668688615ef8565b9050856136738285614b38565b61367d9190615ee4565b6136878385614b38565b6136918387614b38565b8861369c8689614b38565b6136a69190614b38565b6136b09190615e76565b6136ba9190615e76565b6136c49190615e76565b98975050505050505050565b6000602082840312156136e257600080fd5b81356001600160e01b0319811681146110aa57600080fd5b6001600160a01b03811681146126f657600080fd5b60006020828403121561372157600080fd5b81356110aa816136fa565b6000806040838503121561373f57600080fd5b82356001600160401b0381111561375557600080fd5b83016101c0818603121561376857600080fd5b946020939093013593505050565b634e487b7160e01b600052604160045260246000fd5b60405161050081016001600160401b03811182821017156137af576137af613776565b60405290565b60405161014081016001600160401b03811182821017156137af576137af613776565b60405160a081016001600160401b03811182821017156137af576137af613776565b604051601f8201601f191681016001600160401b038111828210171561382257613822613776565b604052919050565b60006001600160401b0382111561384357613843613776565b50601f01601f191660200190565b600082601f83011261386257600080fd5b81356138756138708261382a565b6137fa565b81815284602083860101111561388a57600080fd5b816020850160208301376000918101602001919091529392505050565b6000806000606084860312156138bc57600080fd5b83356138c7816136fa565b925060208401356001600160401b038111156138e257600080fd5b6138ee86828701613851565b925050604084013590509250925092565b600381106126f657600080fd5b8035613917816138ff565b919050565b8035613917816136fa565b60008060006060848603121561393c57600080fd5b8335613947816138ff565b92506020840135613957816136fa565b929592945050506040919091013590565b634e487b7160e01b600052602160045260246000fd5b6005811061398e5761398e613968565b9052565b60005b838110156139ad578181015183820152602001613995565b50506000910152565b600081518084526139ce816020860160208601613992565b601f01601f19169290920160200192915050565b602081526139f460208201835161397e565b60006020830151613a1060408401826001600160a01b03169052565b5060408301516001600160a01b03811660608401525060608301516001600160a01b03811660808401525060808301516105008060a0850152613a576105208501836139b6565b915060a0850151613a6c60c086018215159052565b5060c085015160e085015260e0850151610100818187015280870151915050610120613aa2818701836001600160a01b03169052565b8601516101408681019190915286015161016080870191909152860151610180808701919091528601516101a0808701919091528601516101c0808701919091528601516101e08087019190915286015161020080870191909152860151610220808701919091528601516102408087019190915286015161026080870191909152860151610280808701919091528601516102a0808701919091528601516102c0808701919091528601516102e08087019190915286015161030080870191909152860151610320808701919091528601516103408087019190915286015161036080870191909152860151610380808701919091528601516103a0808701919091528601516103c0808701919091528601516103e08087019190915286015161040080870191909152860151610420808701919091528601516104408087019190915286015161046080870191909152860151610480808701919091528601516104a0808701919091528601516104c0808701919091528601516104e0808701919091529095015193019290925250919050565b600080600080600060a08688031215613c5057600080fd5b8535613c5b816138ff565b94506020860135613c6b816136fa565b94979496505050506040830135926060810135926080909101359150565b60008060008060808587031215613c9f57600080fd5b8435613caa816136fa565b935060208501359250604085013591506060850135613cc8816136fa565b939692955090935050565b60008060408385031215613ce657600080fd5b8235613cf1816136fa565b91506020830135613d01816136fa565b809150509250929050565b60008060408385031215613d1f57600080fd5b8235613768816136fa565b60006102808284031215612f9b57600080fd5b60008060408385031215613d5057600080fd5b82356001600160401b03811115613d6657600080fd5b613d7285828601613d2a565b9250506020830135613d01816136fa565b600060208284031215613d9557600080fd5b5035919050565b60008060408385031215613daf57600080fd5b8235613cf1816138ff565b600381106126f6576126f6613968565b61398e81613dba565b6000610140613de3848451613dca565b6020830151613dfd60208601826001600160a01b03169052565b5060408301516040850152606083015160608501526080830151613e25608086018215159052565b5060a08301518160a0860152613e3d828601826139b6565b91505060c083015184820360c0860152613e5782826139b6565b60e085810151908701526101008086015190870152610120948501519490950193909352509192915050565b6020815260006110aa6020830184613dd3565b60006101608284031215612f9b57600080fd5b600060208284031215613ebb57600080fd5b81356001600160401b03811115613ed157600080fd5b61315284828501613e96565b60006101808284031215612f9b57600080fd5b60008060408385031215613f0357600080fd5b82356001600160401b03811115613f1957600080fd5b613d7285828601613edd565b60008060408385031215613f3857600080fd5b82356001600160401b03811115613f4e57600080fd5b613f5a85828601613e96565b95602094909401359450505050565b600080600060408486031215613f7e57600080fd5b83356001600160401b0380821115613f9557600080fd5b818601915086601f830112613fa957600080fd5b813581811115613fb857600080fd5b8760208260051b8501011115613fcd57600080fd5b60209283019550935050840135613fe3816136fa565b809150509250925092565b6000806040838503121561400157600080fd5b50508035926020909101359150565b6040808252835182820181905260009190606090818501906020808901865b8381101561407a57815180516001600160a01b031686528381015184870152878101518887015286810151878701526080908101519086015260a0909401939082019060010161402f565b505095909501959095525092949350505050565b6000602080830181845280855180835260408601915060408160051b870101925083870160005b828110156140e357603f198886030184526140d1858351613dd3565b945092850192908501906001016140b5565b5092979650505050505050565b60008060006060848603121561410557600080fd5b83356001600160401b0381111561411b57600080fd5b61412786828701613d2a565b9350506020840135613957816136fa565b602081526141526020820183516001600160a01b03169052565b6000602083015161416e60408401826001600160a01b03169052565b5060408301516001600160a01b03811660608401525060608301516001600160a01b03811660808401525060808301516001600160a01b03811660a08401525060a08301516106208060c08501526141ca6106408501836139b6565b915060c08501516141e660e08601826001600160a01b03169052565b5060e0850151610100614203818701836001600160a01b03169052565b860151905061012061421f868201836001600160a01b03169052565b860151905061014061423b868201836001600160a01b03169052565b8601519050610160614257868201836001600160a01b03169052565b8601519050610180614273868201836001600160a01b03169052565b86015190506101a06142898682018360ff169052565b86015190506101c061429f8682018360ff169052565b8601516101e08681019190915286015190506102006142c58187018363ffffffff169052565b86015190506102206142de8682018363ffffffff169052565b86015190506102406142f58682018361ffff169052565b8601519050610260614311868201836001600160401b03169052565b860151905061028061432d868201836001600160401b03169052565b86015190506102a0614349868201836001600160401b03169052565b86015190506102c06143608682018361ffff169052565b86015190506102e06143758682018315159052565b8601519050610300614391868201836001600160401b03169052565b86015190506103206143ad868201836001600160401b03169052565b86015190506103406143c9868201836001600160401b03169052565b86015190506103606143e08682018361ffff169052565b86015190506103806143f98682018363ffffffff169052565b86015190506103a06144128682018363ffffffff169052565b86015190506103c061442e868201836001600160401b03169052565b86015190506103e061444a868201836001600160801b03169052565b86015190506104006144618682018361ffff169052565b86015190506104206144788682018361ffff169052565b8601519050610440614494868201836001600160801b03169052565b86015190506104606144b0868201836001600160401b03169052565b86015190506104806144cc868201836001600160401b03169052565b86015190506104a06144e8868201836001600160401b03169052565b86015190506104c0614504868201836001600160401b03169052565b86015190506104e0614520868201836001600160401b03169052565b860151905061050061453c868201836001600160401b03169052565b8601519050610520614558868201836001600160401b03169052565b8601519050610540614574868201836001600160401b03169052565b860151905061056061458d8682018363ffffffff169052565b86015190506105806145a9868201836001600160401b03169052565b86015190506105a06145c5868201836001600160401b03169052565b86015190506105c06145e1868201836001600160401b03169052565b86015190506105e06145fd868201836001600160401b03169052565b8601519050610600614619868201836001600160401b03169052565b86015163ffffffff81168387015290505b5090949350505050565b600060408284031215612f9b57600080fd5b6000806040838503121561465957600080fd5b82356001600160401b0381111561466f57600080fd5b613f5a85828601614634565b60006101408284031215612f9b57600080fd5b600080604083850312156146a157600080fd5b82356001600160401b03808211156146b857600080fd5b6146c486838701614634565b935060208501359150808211156146da57600080fd5b506146e78582860161467b565b9150509250929050565b60008060006060848603121561470657600080fd5b8335925060208401356001600160401b0381111561472357600080fd5b61472f86828701613851565b9250506040840135613fe3816136fa565b600080600080600060a0868803121561475857600080fd5b8535614763816136fa565b94506020860135614773816136fa565b93506040860135925060608601356001600160401b0381111561479557600080fd5b6147a188828901613851565b92505060808601356147b2816136fa565b809150509295509295909350565b600080604083850312156147d357600080fd5b82356001600160401b038111156147e957600080fd5b613f5a85828601613d2a565b604080825283519082018190526000906020906060840190828701845b828110156148375781516001600160a01b031684529284019290840190600101614812565b50505092019290925292915050565b80151581146126f657600080fd5b803561391781614846565b60006020828403121561487157600080fd5b81356110aa81614846565b6000806040838503121561488f57600080fd5b823561489a816136fa565b915060208301356001600160401b038111156148b557600080fd5b6146e785828601613851565b6000806000606084860312156148d657600080fd5b83356001600160401b03808211156148ed57600080fd5b6148f987838801613edd565b9450602086013591508082111561490f57600080fd5b5061472f86828701613edd565b6020815260006110aa60208301846139b6565b60008060006060848603121561494457600080fd5b8335613947816136fa565b60006020828403121561496157600080fd5b81356001600160401b0381111561497757600080fd5b6131528482850161467b565b60008060006040848603121561499857600080fd5b8335925060208401356001600160401b03808211156149b657600080fd5b818601915086601f8301126149ca57600080fd5b8135818111156149d957600080fd5b8760208285010111156149eb57600080fd5b6020830194508093505050509250925092565b600060208284031215614a1057600080fd5b81356001600160401b03811115614a2657600080fd5b61315284828501613d2a565b634e487b7160e01b600052601160045260246000fd5b600181815b80851115614a83578160001904821115614a6957614a69614a32565b80851615614a7657918102915b93841c9390800290614a4d565b509250929050565b600082614a9a57506001610e81565b81614aa757506000610e81565b8160018114614abd5760028114614ac757614ae3565b6001915050610e81565b60ff841115614ad857614ad8614a32565b50506001821b610e81565b5060208310610133831016604e8410600b8410161715614b06575081810a610e81565b614b108383614a48565b8060001904821115614b2457614b24614a32565b029392505050565b60006110aa8383614a8b565b8082028115828204841417610e8157610e81614a32565b6000808335601e19843603018112614b6657600080fd5b83016020810192503590506001600160401b03811115614b8557600080fd5b8060051b3603821315611d0e57600080fd5b81835260006001600160fb1b03831115614bb057600080fd5b8260051b80836020870137939093016020019392505050565b80356001600160401b038116811461391757600080fd5b6001600160401b0380614bf283614bc9565b16835280614c0260208401614bc9565b16602084015280614c1560408401614bc9565b166040840152505050565b604081526000614c308485614b4f565b6101c06040850152614c4761020085018284614b97565b9150506020850135606084015260408501356080840152614c6a60608601614bc9565b6001600160401b0380821660a086015280614c8760808901614bc9565b1660c086015280614c9a60a08901614bc9565b1660e0860152614cac60c08801614bc9565b915061010081831681870152614cc460e08901614bc9565b9250610120828416818801526101409350818901358488015261016092508089013583880152505081870135610180860152614d066101a08601828901614be0565b50506001600160401b038416602084015290506110aa565b6001600160a01b0384168152606060208201819052600090614d42908301856139b6565b9050826040830152949350505050565b600060208284031215614d6457600080fd5b5051919050565b60608101614d7885613dba565b9381526001600160a01b0392909216602083015260409091015290565b80516005811061391757600080fd5b8051613917816136fa565b6000614dbd6138708461382a565b9050828152838383011115614dd157600080fd5b6110aa836020830184613992565b600082601f830112614df057600080fd5b6110aa83835160208501614daf565b805161391781614846565b600060208284031215614e1c57600080fd5b81516001600160401b0380821115614e3357600080fd5b908301906105008286031215614e4857600080fd5b614e5061378c565b614e5983614d95565b8152614e6760208401614da4565b6020820152614e7860408401614da4565b6040820152614e8960608401614da4565b6060820152608083015182811115614ea057600080fd5b614eac87828601614ddf565b608083015250614ebe60a08401614dff565b60a082015260c083015160c082015260e083015160e08201526101009150614ee7828401614da4565b9181019190915261012082810151908201526101408083015190820152610160808301519082015261018080830151908201526101a080830151908201526101c080830151908201526101e08083015190820152610200808301519082015261022080830151908201526102408083015190820152610260808301519082015261028080830151908201526102a080830151908201526102c080830151908201526102e08083015190820152610300808301519082015261032080830151908201526103408083015190820152610360808301519082015261038080830151908201526103a080830151908201526103c080830151908201526103e08083015190820152610400808301519082015261042080830151908201526104408083015190820152610460808301519082015261048080830151908201526104a080830151908201526104c080830151908201526104e091820151918101919091529392505050565b60006020828403121561505f57600080fd5b81516110aa81614846565b60a0810161507787613dba565b9581526001600160a01b039490941660208501526040840192909252606083015260809091015290565b803560ff8116811461391757600080fd5b60006102806150c18384614b4f565b8286526150d18387018284614b97565b9250505060208301356020850152604083013560408501526150f560608401614bc9565b6001600160401b0380821660608701528061511260808701614bc9565b166080870152505060a083013560a085015260c083013560c085015260e083013560e085015261010061515981860161514c838701614bc9565b6001600160401b03169052565b50610120615168818501614bc9565b6001600160401b0316908501526101408381013590850152610160808401359085015261018080840135908501526101a080840135908501526101c080840135908501526101e08084013590850152610200808401359085015261022080840135908501526102406151db818501614854565b1515908501526102606151ef8482016150a1565b60ff81168683015261462a565b60408152600061520f60408301856150b2565b905060018060a01b03831660208301529392505050565b6040810161523384613dba565b9281526001600160a01b039190911660209091015290565b8051613917816138ff565b6000610140828403121561526957600080fd5b6152716137b5565b905061527c8261524b565b815261528a60208301614da4565b602082015260408201516040820152606082015160608201526152af60808301614dff565b608082015260a08201516001600160401b03808211156152ce57600080fd5b6152da85838601614ddf565b60a084015260c08401519150808211156152f357600080fd5b5061530084828501614ddf565b60c08301525060e082015160e082015261010080830151818301525061012080830151818301525092915050565b60006020828403121561534057600080fd5b81516001600160401b0381111561535657600080fd5b61315284828501615256565b6001600160401b0381811683821602808216919082811461538557615385614a32565b505092915050565b600061016061539c8384614b4f565b8286526153ac8387018284614b97565b9250505060208301356020850152604083013560408501526153d060608401614bc9565b6001600160401b038082166060870152806153ed60808701614bc9565b1660808701528061540060a08701614bc9565b1660a08701528061541360c08701614bc9565b1660c08701528061542660e08701614bc9565b1660e087015261010091508061543d838701614bc9565b1682870152610120915080615453838701614bc9565b1682870152610140915080615469838701614bc9565b1691909501529392505050565b6020815260006110aa602083018461538d565b60006101806154988384614b4f565b8286526154a88387018284614b97565b9250505060208301356020850152604083013560408501526154cc60608401614bc9565b6001600160401b038082166060870152806154e960808701614bc9565b16608087015260a085013560a087015260c085013560c08701528061551060e08701614bc9565b1660e0870152610100915080615527838701614bc9565b169186019190915250610120838101359085015261014080840135908501526101609283013592909301919091525090565b60408152600061520f6040830185615489565b60006020828403121561557e57600080fd5b81516110aa816136fa565b60408152600061559c604083018561538d565b90506001600160401b03831660208301529392505050565b6040808252810183905260006060600585901b830181019083018683805b8881101561561a57868503605f190184528235368b900361017e190181126155f8578283fd5b615604868c8301615489565b95505060209384019392909201916001016155d2565b505050506001600160a01b0393909316602092909201919091525092915050565b60006001600160401b0382111561565457615654613776565b5060051b60200190565b600080604080848603121561567257600080fd5b83516001600160401b0381111561568857600080fd5b8401601f8101861361569957600080fd5b805160206156a96138708361563b565b82815260a0928302840182019282820191908a8511156156c857600080fd5b948301945b8486101561572d5780868c0312156156e55760008081fd5b6156ed6137d8565b86516156f8816136fa565b8152868501518582015287870151888201526060808801519082015260808088015190820152835294850194918301916156cd565b5097909101519698969750505050505050565b6000602080838503121561575357600080fd5b82516001600160401b038082111561576a57600080fd5b818501915085601f83011261577e57600080fd5b815161578c6138708261563b565b81815260059190911b830184019084810190888311156157ab57600080fd5b8585015b838110156157e3578051858111156157c75760008081fd5b6157d58b89838a0101615256565b8452509186019186016157af565b5098975050505050505050565b60608152600061580360608301866150b2565b6001600160a01b03949094166020830152506001600160401b0391909116604090910152919050565b600181811c9082168061584057607f821691505b602082108103612f9b57634e487b7160e01b600052602260045260246000fd5b6000808335601e1984360301811261587757600080fd5b83016020810192503590506001600160401b0381111561589657600080fd5b803603821315611d0e57600080fd5b81835281816020850137506000828201602090810191909152601f909101601f19169091010190565b60006158da8283615860565b602085526133a86020860182846158a5565b60008235605e1983360301811261590257600080fd5b90910192915050565b6000813561591881614846565b151583526159296020830183615860565b6060602086015261593e6060860182846158a5565b915050604083013560408501528091505092915050565b60006159618283614b4f565b60408552615973604086018284614b97565b915050602083013560be1984360301811261598d57600080fd5b8381019050848203602086015280358252602081013560208301526159b460408201614bc9565b6001600160401b038082166040850152806159d160608501614bc9565b16606085015250506080810135601e198236030181126159f057600080fd5b60c06080840152615a0660c084018383016158ce565b9050615a1560a08301836158ec565b915082810360a0840152615a29818361590b565b9695505050505050565b60408152600061559c6040830185615955565b6001600160a01b0384168152606060208201819052600090615a6a90830185615955565b8281036040840152610140615a8f82615a828761391c565b6001600160a01b03169052565b615a9c6020860186615860565b826020850152615aaf83850182846158a5565b9250505060408501356040830152606085013560608301526080850135608083015260a085013560a083015260c085013560c083015260e085013560e08301526101008086013581840152506101208086013581840152508092505050949350505050565b600060018060a01b0380871683526001600160401b038616602084015260806040840152615b4560808401866139b6565b915080841660608401525095945050505050565b600060018060a01b038088168352808716602084015285604084015260a06060840152615b8960a08401866139b6565b91508084166080840152509695505050505050565b60408152600061559c60408301856150b2565b60008060408385031215615bc457600080fd5b82516001600160401b03811115615bda57600080fd5b8301601f81018513615beb57600080fd5b80516020615bfb6138708361563b565b82815260059290921b83018101918181019088841115615c1a57600080fd5b938201935b83851015615c41578451615c32816136fa565b82529382019390820190615c1f565b969091015195979596505050505050565b600080600060608486031215615c6757600080fd5b8351925060208401519150604084015190509250925092565b60008060408385031215615c9357600080fd5b8251615c9e816138ff565b6020939093015192949293505050565b6001600160a01b03831681526040602082018190526000906110a7908301846139b6565b606081526000615ce56060830186615489565b8281036020840152615cf78186615489565b91505060018060a01b0383166040830152949350505050565b60208152615d2960208201615d248461390c565b613dca565b6000615d376020840161391c565b6001600160a01b0381166040840152506040830135606083015260608301356080830152615d6760808401614854565b80151560a084015250615d7d60a0840184615860565b6101408060c0860152615d95610160860183856158a5565b9250615da460c0870187615860565b868503601f190160e08801529250615dbd8484836158a5565b60e0880135610100888101919091528801356101208089019190915290970135919095015250929392505050565b8381526040602082015260006133a86040830184866158a5565b6020815260006110aa60208301846150b2565b634e487b7160e01b600052603260045260246000fd5b600060208284031215615e4057600080fd5b81516001600160401b03811115615e5657600080fd5b8201601f81018413615e6757600080fd5b61315284825160208401614daf565b80820180821115610e8157610e81614a32565b634e487b7160e01b600052600160045260246000fd5b81810381811115610e8157610e81614a32565b60008251615ec4818460208701613992565b9190910192915050565b634e487b7160e01b600052601260045260246000fd5b600082615ef357615ef3615ece565b500490565b600082615f0757615f07615ece565b50069056feec7e8c1c441439dd40959777f4c577ea0cd42fcc1dbe59d2bd0f5d9c55df8ddcec7e8c1c441439dd40959777f4c577ea0cd42fcc1dbe59d2bd0f5d9c55df8db6a26469706673582212207da9503f5778e6a253810c76ee372d9ac5c1d9d68749094262eceaed9f204d6a64736f6c63430008140033",
  "linkReferences": {
    "contracts/fasset/library/AgentSettingsUpdater.sol": {
      "AgentSettingsUpdater": [
        {
          "length": 20,
          "start": 8471
        },
        {
          "length": 20,
          "start": 15029
        }
      ]
    },
    "contracts/fasset/library/AgentsCreateDestroy.sol": {
      "AgentsCreateDestroy": [
        {
          "length": 20,
          "start": 10801
        },
        {
          "length": 20,
          "start": 11328
        },
        {
          "length": 20,
          "start": 13569
        },
        {
          "length": 20,
          "start": 14204
        },
        {
          "length": 20,
          "start": 15612
        }
      ]
    },
    "contracts/fasset/library/AgentsExternal.sol": {
      "AgentsExternal": [
        {
          "length": 20,
          "start": 9811
        },
        {
          "length": 20,
          "start": 9863
        },
        {
          "length": 20,
          "start": 10521
        },
        {
          "length": 20,
          "start": 10929
        },
        {
          "length": 20,
          "start": 11061
        },
        {
          "length": 20,
          "start": 11196
        },
        {
          "length": 20,
          "start": 11400
        },
        {
          "length": 20,
          "start": 14057
        },
        {
          "length": 20,
          "start": 14674
        },
        {
          "length": 20,
          "start": 15296
        },
        {
          "length": 20,
          "start": 15563
        }
      ]
    },
    "contracts/fasset/library/AvailableAgents.sol": {
      "AvailableAgents": [
        {
          "length": 20,
          "start": 8153
        },
        {
          "length": 20,
          "start": 10144
        },
        {
          "length": 20,
          "start": 10865
        },
        {
          "length": 20,
          "start": 11652
        },
        {
          "length": 20,
          "start": 14980
        }
      ]
    },
    "contracts/fasset/library/Challenges.sol": {
      "Challenges": [
        {
          "length": 20,
          "start": 10986
        },
        {
          "length": 20,
          "start": 11573
        },
        {
          "length": 20,
          "start": 15130
        }
      ]
    },
    "contracts/fasset/library/CollateralReservations.sol": {
      "CollateralReservations": [
        {
          "length": 20,
          "start": 8338
        },
        {
          "length": 20,
          "start": 9598
        },
        {
          "length": 20,
          "start": 10034
        },
        {
          "length": 20,
          "start": 11963
        }
      ]
    },
    "contracts/fasset/library/CollateralTypes.sol": {
      "CollateralTypes": [
        {
          "length": 20,
          "start": 177
        },
        {
          "length": 20,
          "start": 8613
        },
        {
          "length": 20,
          "start": 9477
        },
        {
          "length": 20,
          "start": 10367
        },
        {
          "length": 20,
          "start": 11766
        },
        {
          "length": 20,
          "start": 15353
        }
      ]
    },
    "contracts/fasset/library/FullAgentInfo.sol": {
      "FullAgentInfo": [
        {
          "length": 20,
          "start": 9075
        }
      ]
    },
    "contracts/fasset/library/Liquidation.sol": {
      "Liquidation": [
        {
          "length": 20,
          "start": 14324
        },
        {
          "length": 20,
          "start": 14464
        },
        {
          "length": 20,
          "start": 14820
        }
      ]
    },
    "contracts/fasset/library/Minting.sol": {
      "Minting": [
        {
          "length": 20,
          "start": 12106
        },
        {
          "length": 20,
          "start": 15403
        }
      ]
    },
    "contracts/fasset/library/RedemptionConfirmations.sol": {
      "RedemptionConfirmations": [
        {
          "length": 20,
          "start": 13896
        }
      ]
    },
    "contracts/fasset/library/RedemptionFailures.sol": {
      "RedemptionFailures": [
        {
          "length": 20,
          "start": 11436
        },
        {
          "length": 20,
          "start": 15073
        }
      ]
    },
    "contracts/fasset/library/RedemptionRequests.sol": {
      "RedemptionRequests": [
        {
          "length": 20,
          "start": 9359
        },
        {
          "length": 20,
          "start": 13481
        },
        {
          "length": 20,
          "start": 13718
        },
        {
          "length": 20,
          "start": 13764
        },
        {
          "length": 20,
          "start": 13846
        },
        {
          "length": 20,
          "start": 15229
        }
      ]
    },
    "contracts/fasset/library/SettingsUpdater.sol": {
      "SettingsUpdater": [
        {
          "length": 20,
          "start": 72
        },
        {
          "length": 20,
          "start": 15489
        }
      ]
    },
    "contracts/fasset/library/StateUpdater.sol": {
      "StateUpdater": [
        {
          "length": 20,
          "start": 8244
        },
        {
          "length": 20,
          "start": 10188
        },
        {
          "length": 20,
          "start": 10701
        },
        {
          "length": 20,
          "start": 11887
        }
      ]
    },
    "contracts/fasset/library/UnderlyingBalance.sol": {
      "UnderlyingBalance": [
        {
          "length": 20,
          "start": 14733
        }
      ]
    },
    "contracts/fasset/library/UnderlyingWithdrawalAnnouncements.sol": {
      "UnderlyingWithdrawalAnnouncements": [
        {
          "length": 20,
          "start": 9988
        },
        {
          "length": 20,
          "start": 13988
        },
        {
          "length": 20,
          "start": 14602
        }
      ]
    }
  },
  "deployedLinkReferences": {
    "contracts/fasset/library/AgentSettingsUpdater.sol": {
      "AgentSettingsUpdater": [
        {
          "length": 20,
          "start": 4154
        },
        {
          "length": 20,
          "start": 10712
        }
      ]
    },
    "contracts/fasset/library/AgentsCreateDestroy.sol": {
      "AgentsCreateDestroy": [
        {
          "length": 20,
          "start": 6484
        },
        {
          "length": 20,
          "start": 7011
        },
        {
          "length": 20,
          "start": 9252
        },
        {
          "length": 20,
          "start": 9887
        },
        {
          "length": 20,
          "start": 11295
        }
      ]
    },
    "contracts/fasset/library/AgentsExternal.sol": {
      "AgentsExternal": [
        {
          "length": 20,
          "start": 5494
        },
        {
          "length": 20,
          "start": 5546
        },
        {
          "length": 20,
          "start": 6204
        },
        {
          "length": 20,
          "start": 6612
        },
        {
          "length": 20,
          "start": 6744
        },
        {
          "length": 20,
          "start": 6879
        },
        {
          "length": 20,
          "start": 7083
        },
        {
          "length": 20,
          "start": 9740
        },
        {
          "length": 20,
          "start": 10357
        },
        {
          "length": 20,
          "start": 10979
        },
        {
          "length": 20,
          "start": 11246
        }
      ]
    },
    "contracts/fasset/library/AvailableAgents.sol": {
      "AvailableAgents": [
        {
          "length": 20,
          "start": 3836
        },
        {
          "length": 20,
          "start": 5827
        },
        {
          "length": 20,
          "start": 6548
        },
        {
          "length": 20,
          "start": 7335
        },
        {
          "length": 20,
          "start": 10663
        }
      ]
    },
    "contracts/fasset/library/Challenges.sol": {
      "Challenges": [
        {
          "length": 20,
          "start": 6669
        },
        {
          "length": 20,
          "start": 7256
        },
        {
          "length": 20,
          "start": 10813
        }
      ]
    },
    "contracts/fasset/library/CollateralReservations.sol": {
      "CollateralReservations": [
        {
          "length": 20,
          "start": 4021
        },
        {
          "length": 20,
          "start": 5281
        },
        {
          "length": 20,
          "start": 5717
        },
        {
          "length": 20,
          "start": 7646
        }
      ]
    },
    "contracts/fasset/library/CollateralTypes.sol": {
      "CollateralTypes": [
        {
          "length": 20,
          "start": 4296
        },
        {
          "length": 20,
          "start": 5160
        },
        {
          "length": 20,
          "start": 6050
        },
        {
          "length": 20,
          "start": 7449
        },
        {
          "length": 20,
          "start": 11036
        }
      ]
    },
    "contracts/fasset/library/FullAgentInfo.sol": {
      "FullAgentInfo": [
        {
          "length": 20,
          "start": 4758
        }
      ]
    },
    "contracts/fasset/library/Liquidation.sol": {
      "Liquidation": [
        {
          "length": 20,
          "start": 10007
        },
        {
          "length": 20,
          "start": 10147
        },
        {
          "length": 20,
          "start": 10503
        }
      ]
    },
    "contracts/fasset/library/Minting.sol": {
      "Minting": [
        {
          "length": 20,
          "start": 7789
        },
        {
          "length": 20,
          "start": 11086
        }
      ]
    },
    "contracts/fasset/library/RedemptionConfirmations.sol": {
      "RedemptionConfirmations": [
        {
          "length": 20,
          "start": 9579
        }
      ]
    },
    "contracts/fasset/library/RedemptionFailures.sol": {
      "RedemptionFailures": [
        {
          "length": 20,
          "start": 7119
        },
        {
          "length": 20,
          "start": 10756
        }
      ]
    },
    "contracts/fasset/library/RedemptionRequests.sol": {
      "RedemptionRequests": [
        {
          "length": 20,
          "start": 5042
        },
        {
          "length": 20,
          "start": 9164
        },
        {
          "length": 20,
          "start": 9401
        },
        {
          "length": 20,
          "start": 9447
        },
        {
          "length": 20,
          "start": 9529
        },
        {
          "length": 20,
          "start": 10912
        }
      ]
    },
    "contracts/fasset/library/SettingsUpdater.sol": {
      "SettingsUpdater": [
        {
          "length": 20,
          "start": 11172
        }
      ]
    },
    "contracts/fasset/library/StateUpdater.sol": {
      "StateUpdater": [
        {
          "length": 20,
          "start": 3927
        },
        {
          "length": 20,
          "start": 5871
        },
        {
          "length": 20,
          "start": 6384
        },
        {
          "length": 20,
          "start": 7570
        }
      ]
    },
    "contracts/fasset/library/UnderlyingBalance.sol": {
      "UnderlyingBalance": [
        {
          "length": 20,
          "start": 10416
        }
      ]
    },
    "contracts/fasset/library/UnderlyingWithdrawalAnnouncements.sol": {
      "UnderlyingWithdrawalAnnouncements": [
        {
          "length": 20,
          "start": 5671
        },
        {
          "length": 20,
          "start": 9671
        },
        {
          "length": 20,
          "start": 10285
        }
      ]
    }
  }
}