{
  "_format": "hh-sol-artifact-1",
  "contractName": "ConversionMock",
  "sourceName": "contracts/assetManager/library/mock/ConversionMock.sol",
  "abi": [
    {
      "inputs": [
        {
          "internalType": "uint256",
          "name": "_tokenDecimals",
          "type": "uint256"
        },
        {
          "internalType": "uint256",
          "name": "_tokenPrice",
          "type": "uint256"
        },
        {
          "internalType": "uint256",
          "name": "_tokenFtsoDecimals",
          "type": "uint256"
        },
        {
          "internalType": "uint256",
          "name": "_assetPrice",
          "type": "uint256"
        },
        {
          "internalType": "uint256",
          "name": "_assetFtsoDecimals",
          "type": "uint256"
        }
      ],
      "name": "calcAmgToTokenWeiPrice",
      "outputs": [
        {
          "internalType": "uint256",
          "name": "",
          "type": "uint256"
        }
      ],
      "stateMutability": "view",
      "type": "function"
    },
    {
      "inputs": [
        {
          "internalType": "uint256",
          "name": "_valueAMG",
          "type": "uint256"
        },
        {
          "internalType": "uint256",
          "name": "_amgToNATWeiPrice",
          "type": "uint256"
        }
      ],
      "name": "convertAmgToTokenWei",
      "outputs": [
        {
          "internalType": "uint256",
          "name": "",
          "type": "uint256"
        }
      ],
      "stateMutability": "pure",
      "type": "function"
    },
    {
      "inputs": [
        {
          "internalType": "uint256",
          "name": "_valueNATWei",
          "type": "uint256"
        },
        {
          "internalType": "uint256",
          "name": "_amgToNATWeiPrice",
          "type": "uint256"
        }
      ],
      "name": "convertTokenWeiToAMG",
      "outputs": [
        {
          "internalType": "uint256",
          "name": "",
          "type": "uint256"
        }
      ],
      "stateMutability": "pure",
      "type": "function"
    },
    {
      "inputs": [
        {
          "internalType": "uint256",
          "name": "assetDecimals",
          "type": "uint256"
        },
        {
          "internalType": "uint256",
          "name": "assetMintingDecimals",
          "type": "uint256"
        }
      ],
      "name": "setAssetDecimals",
      "outputs": [],
      "stateMutability": "nonpayable",
      "type": "function"
    }
  ],
  "bytecode": "0x608060405234801561001057600080fd5b506106ce806100206000396000f3fe608060405234801561001057600080fd5b506004361061004c5760003560e01c80635170738c146100515780636338489e14610066578063b2ae335d1461008b578063d55f0a4e1461009e575b600080fd5b61006461005f3660046104a4565b6100b1565b005b6100796100743660046104a4565b6101a7565b60405190815260200160405180910390f35b6100796100993660046104c6565b6101bc565b6100796100ac3660046104a4565b6101d5565b7f4f24f5c433db0962dac0d2c8b84197a6e6c7cc4e5d9ebe1916a1b6193da2f33a6100db836101e1565b81600a0160146101000a81548160ff021916908360ff160217905550610100826101e1565b81600a0160156101000a81548160ff021916908360ff16021790555061013183600a61012c91906105fb565b61024b565b600c8201805467ffffffffffffffff92909216600160501b0267ffffffffffffffff60501b1990921691909117905561017861016d8385610607565b61012c90600a6105fb565b81600c0160126101000a81548167ffffffffffffffff021916908367ffffffffffffffff160217905550505050565b60006101b383836102b4565b90505b92915050565b60006101cb86868686866102ce565b9695505050505050565b60006101b38383610367565b600060ff8211156102475760405162461bcd60e51b815260206004820152602560248201527f53616665436173743a2076616c756520646f65736e27742066697420696e2038604482015264206269747360d81b60648201526084015b60405180910390fd5b5090565b600067ffffffffffffffff8211156102475760405162461bcd60e51b815260206004820152602660248201527f53616665436173743a2076616c756520646f65736e27742066697420696e203660448201526534206269747360d01b606482015260840161023e565b60006101b3826102c66009600a6105fb565b85919061037c565b60007f4f24f5c433db0962dac0d2c8b84197a6e6c7cc4e5d9ebe1916a1b6193da2f33a8160096102fe878a61061a565b610308919061061a565b600a830154909150600090610328908690600160a81b900460ff1661061a565b90508082101561033a5761033a61062d565b61035a6103478284610607565b61035290600a6105fb565b87908a61037c565b9998505050505050505050565b60006101b36103786009600a6105fb565b8490845b60008082116103c05760405162461bcd60e51b815260206004820152601060248201526f4469766973696f6e206279207a65726f60801b604482015260640161023e565b836000036103d05750600061049d565b838302838582816103e3576103e3610643565b0403610401578281816103f8576103f8610643565b0491505061049d565b50600061040e8386610659565b9050600061041c848761066d565b9050600061042a8587610659565b90506000610438868861066d565b9050856104458285610681565b61044f9190610659565b6104598385610681565b6104638387610681565b8861046e8689610681565b6104789190610681565b610482919061061a565b61048c919061061a565b610496919061061a565b9450505050505b9392505050565b600080604083850312156104b757600080fd5b50508035926020909101359150565b600080600080600060a086880312156104de57600080fd5b505083359560208501359550604085013594606081013594506080013592509050565b634e487b7160e01b600052601160045260246000fd5b600181815b8085111561055257816000190482111561053857610538610501565b8085161561054557918102915b93841c939080029061051c565b509250929050565b600082610569575060016101b6565b81610576575060006101b6565b816001811461058c5760028114610596576105b2565b60019150506101b6565b60ff8411156105a7576105a7610501565b50506001821b6101b6565b5060208310610133831016604e8410600b84101617156105d5575081810a6101b6565b6105df8383610517565b80600019048211156105f3576105f3610501565b029392505050565b60006101b3838361055a565b818103818111156101b6576101b6610501565b808201808211156101b6576101b6610501565b634e487b7160e01b600052600160045260246000fd5b634e487b7160e01b600052601260045260246000fd5b60008261066857610668610643565b500490565b60008261067c5761067c610643565b500690565b80820281158282048414176101b6576101b661050156fea26469706673582212205f0e17954091ad9a123bd2d4bcaaab4624ab2dd82292a9a7477783b16f85eed764736f6c63430008170033",
  "linkReferences": {},
  "deployedLinkReferences": {}
}