{
  "_format": "hh-sol-artifact-1",
  "contractName": "MintingFacet",
  "sourceName": "contracts/assetManager/facets/MintingFacet.sol",
  "abi": [
    {
      "anonymous": false,
      "inputs": [
        {
          "indexed": true,
          "internalType": "address",
          "name": "agentVault",
          "type": "address"
        },
        {
          "indexed": false,
          "internalType": "uint256",
          "name": "dustUBA",
          "type": "uint256"
        }
      ],
      "name": "DustChanged",
      "type": "event"
    },
    {
      "anonymous": false,
      "inputs": [
        {
          "indexed": true,
          "internalType": "address",
          "name": "agentVault",
          "type": "address"
        },
        {
          "indexed": true,
          "internalType": "uint256",
          "name": "collateralReservationId",
          "type": "uint256"
        },
        {
          "indexed": false,
          "internalType": "uint256",
          "name": "mintedAmountUBA",
          "type": "uint256"
        },
        {
          "indexed": false,
          "internalType": "uint256",
          "name": "agentFeeUBA",
          "type": "uint256"
        },
        {
          "indexed": false,
          "internalType": "uint256",
          "name": "poolFeeUBA",
          "type": "uint256"
        }
      ],
      "name": "MintingExecuted",
      "type": "event"
    },
    {
      "anonymous": false,
      "inputs": [
        {
          "indexed": true,
          "internalType": "address",
          "name": "agentVault",
          "type": "address"
        },
        {
          "indexed": true,
          "internalType": "uint256",
          "name": "redemptionTicketId",
          "type": "uint256"
        },
        {
          "indexed": false,
          "internalType": "uint256",
          "name": "ticketValueUBA",
          "type": "uint256"
        }
      ],
      "name": "RedemptionTicketCreated",
      "type": "event"
    },
    {
      "anonymous": false,
      "inputs": [
        {
          "indexed": true,
          "internalType": "address",
          "name": "agentVault",
          "type": "address"
        },
        {
          "indexed": true,
          "internalType": "uint256",
          "name": "redemptionTicketId",
          "type": "uint256"
        },
        {
          "indexed": false,
          "internalType": "uint256",
          "name": "ticketValueUBA",
          "type": "uint256"
        }
      ],
      "name": "RedemptionTicketUpdated",
      "type": "event"
    },
    {
      "anonymous": false,
      "inputs": [
        {
          "indexed": true,
          "internalType": "address",
          "name": "agentVault",
          "type": "address"
        },
        {
          "indexed": false,
          "internalType": "bool",
          "name": "mintFromFreeUnderlying",
          "type": "bool"
        },
        {
          "indexed": false,
          "internalType": "uint256",
          "name": "mintedAmountUBA",
          "type": "uint256"
        },
        {
          "indexed": false,
          "internalType": "uint256",
          "name": "depositedAmountUBA",
          "type": "uint256"
        },
        {
          "indexed": false,
          "internalType": "uint256",
          "name": "poolFeeUBA",
          "type": "uint256"
        }
      ],
      "name": "SelfMint",
      "type": "event"
    },
    {
      "anonymous": false,
      "inputs": [
        {
          "indexed": true,
          "internalType": "address",
          "name": "agentVault",
          "type": "address"
        },
        {
          "indexed": false,
          "internalType": "int256",
          "name": "underlyingBalanceUBA",
          "type": "int256"
        }
      ],
      "name": "UnderlyingBalanceChanged",
      "type": "event"
    },
    {
      "inputs": [
        {
          "components": [
            {
              "internalType": "bytes32[]",
              "name": "merkleProof",
              "type": "bytes32[]"
            },
            {
              "components": [
                {
                  "internalType": "bytes32",
                  "name": "attestationType",
                  "type": "bytes32"
                },
                {
                  "internalType": "bytes32",
                  "name": "sourceId",
                  "type": "bytes32"
                },
                {
                  "internalType": "uint64",
                  "name": "votingRound",
                  "type": "uint64"
                },
                {
                  "internalType": "uint64",
                  "name": "lowestUsedTimestamp",
                  "type": "uint64"
                },
                {
                  "components": [
                    {
                      "internalType": "bytes32",
                      "name": "transactionId",
                      "type": "bytes32"
                    },
                    {
                      "internalType": "uint256",
                      "name": "inUtxo",
                      "type": "uint256"
                    },
                    {
                      "internalType": "uint256",
                      "name": "utxo",
                      "type": "uint256"
                    }
                  ],
                  "internalType": "struct IPayment.RequestBody",
                  "name": "requestBody",
                  "type": "tuple"
                },
                {
                  "components": [
                    {
                      "internalType": "uint64",
                      "name": "blockNumber",
                      "type": "uint64"
                    },
                    {
                      "internalType": "uint64",
                      "name": "blockTimestamp",
                      "type": "uint64"
                    },
                    {
                      "internalType": "bytes32",
                      "name": "sourceAddressHash",
                      "type": "bytes32"
                    },
                    {
                      "internalType": "bytes32",
                      "name": "sourceAddressesRoot",
                      "type": "bytes32"
                    },
                    {
                      "internalType": "bytes32",
                      "name": "receivingAddressHash",
                      "type": "bytes32"
                    },
                    {
                      "internalType": "bytes32",
                      "name": "intendedReceivingAddressHash",
                      "type": "bytes32"
                    },
                    {
                      "internalType": "int256",
                      "name": "spentAmount",
                      "type": "int256"
                    },
                    {
                      "internalType": "int256",
                      "name": "intendedSpentAmount",
                      "type": "int256"
                    },
                    {
                      "internalType": "int256",
                      "name": "receivedAmount",
                      "type": "int256"
                    },
                    {
                      "internalType": "int256",
                      "name": "intendedReceivedAmount",
                      "type": "int256"
                    },
                    {
                      "internalType": "bytes32",
                      "name": "standardPaymentReference",
                      "type": "bytes32"
                    },
                    {
                      "internalType": "bool",
                      "name": "oneToOne",
                      "type": "bool"
                    },
                    {
                      "internalType": "uint8",
                      "name": "status",
                      "type": "uint8"
                    }
                  ],
                  "internalType": "struct IPayment.ResponseBody",
                  "name": "responseBody",
                  "type": "tuple"
                }
              ],
              "internalType": "struct IPayment.Response",
              "name": "data",
              "type": "tuple"
            }
          ],
          "internalType": "struct IPayment.Proof",
          "name": "_payment",
          "type": "tuple"
        },
        {
          "internalType": "uint256",
          "name": "_collateralReservationId",
          "type": "uint256"
        }
      ],
      "name": "executeMinting",
      "outputs": [],
      "stateMutability": "nonpayable",
      "type": "function"
    },
    {
      "inputs": [
        {
          "internalType": "address",
          "name": "_agentVault",
          "type": "address"
        },
        {
          "internalType": "uint64",
          "name": "_lots",
          "type": "uint64"
        }
      ],
      "name": "mintFromFreeUnderlying",
      "outputs": [],
      "stateMutability": "nonpayable",
      "type": "function"
    },
    {
      "inputs": [
        {
          "components": [
            {
              "internalType": "bytes32[]",
              "name": "merkleProof",
              "type": "bytes32[]"
            },
            {
              "components": [
                {
                  "internalType": "bytes32",
                  "name": "attestationType",
                  "type": "bytes32"
                },
                {
                  "internalType": "bytes32",
                  "name": "sourceId",
                  "type": "bytes32"
                },
                {
                  "internalType": "uint64",
                  "name": "votingRound",
                  "type": "uint64"
                },
                {
                  "internalType": "uint64",
                  "name": "lowestUsedTimestamp",
                  "type": "uint64"
                },
                {
                  "components": [
                    {
                      "internalType": "bytes32",
                      "name": "transactionId",
                      "type": "bytes32"
                    },
                    {
                      "internalType": "uint256",
                      "name": "inUtxo",
                      "type": "uint256"
                    },
                    {
                      "internalType": "uint256",
                      "name": "utxo",
                      "type": "uint256"
                    }
                  ],
                  "internalType": "struct IPayment.RequestBody",
                  "name": "requestBody",
                  "type": "tuple"
                },
                {
                  "components": [
                    {
                      "internalType": "uint64",
                      "name": "blockNumber",
                      "type": "uint64"
                    },
                    {
                      "internalType": "uint64",
                      "name": "blockTimestamp",
                      "type": "uint64"
                    },
                    {
                      "internalType": "bytes32",
                      "name": "sourceAddressHash",
                      "type": "bytes32"
                    },
                    {
                      "internalType": "bytes32",
                      "name": "sourceAddressesRoot",
                      "type": "bytes32"
                    },
                    {
                      "internalType": "bytes32",
                      "name": "receivingAddressHash",
                      "type": "bytes32"
                    },
                    {
                      "internalType": "bytes32",
                      "name": "intendedReceivingAddressHash",
                      "type": "bytes32"
                    },
                    {
                      "internalType": "int256",
                      "name": "spentAmount",
                      "type": "int256"
                    },
                    {
                      "internalType": "int256",
                      "name": "intendedSpentAmount",
                      "type": "int256"
                    },
                    {
                      "internalType": "int256",
                      "name": "receivedAmount",
                      "type": "int256"
                    },
                    {
                      "internalType": "int256",
                      "name": "intendedReceivedAmount",
                      "type": "int256"
                    },
                    {
                      "internalType": "bytes32",
                      "name": "standardPaymentReference",
                      "type": "bytes32"
                    },
                    {
                      "internalType": "bool",
                      "name": "oneToOne",
                      "type": "bool"
                    },
                    {
                      "internalType": "uint8",
                      "name": "status",
                      "type": "uint8"
                    }
                  ],
                  "internalType": "struct IPayment.ResponseBody",
                  "name": "responseBody",
                  "type": "tuple"
                }
              ],
              "internalType": "struct IPayment.Response",
              "name": "data",
              "type": "tuple"
            }
          ],
          "internalType": "struct IPayment.Proof",
          "name": "_payment",
          "type": "tuple"
        },
        {
          "internalType": "address",
          "name": "_agentVault",
          "type": "address"
        },
        {
          "internalType": "uint256",
          "name": "_lots",
          "type": "uint256"
        }
      ],
      "name": "selfMint",
      "outputs": [],
      "stateMutability": "nonpayable",
      "type": "function"
    }
  ],
  "bytecode": "0x608060405234801561001057600080fd5b5061415d806100206000396000f3fe608060405234801561001057600080fd5b50600436106100415760003560e01c80630da5e8e0146100465780635a48b7631461005b57806369f020201461006e575b600080fd5b610059610054366004613988565b610081565b005b6100596100693660046139f8565b6100c8565b61005961007c366004613a2d565b6100e2565b61008961010a565b61009b8261009683610188565b6101f4565b6100c460017f0cd2207518cd3e5213e2c6dbe63d55b60aa893c194a427b7d7f1600408fd5bde55565b5050565b6100d0610635565b6100d861069e565b6100c4828261072c565b6100ea610635565b6100f261069e565b610105838361010084610188565b6109a1565b505050565b7f0cd2207518cd3e5213e2c6dbe63d55b60aa893c194a427b7d7f1600408fd5bde8054600119016101825760405162461bcd60e51b815260206004820152601f60248201527f5265656e7472616e637947756172643a207265656e7472616e742063616c6c0060448201526064015b60405180910390fd5b60029055565b60006001600160401b038211156101f05760405162461bcd60e51b815260206004820152602660248201527f53616665436173743a2076616c756520646f65736e27742066697420696e203660448201526534206269747360d01b6064820152608401610179565b5090565b60006101ff82610dae565b60058101549091506001600160401b0316156102695760405162461bcd60e51b815260206004820152602360248201527f636f6c6c61746572616c207265736572766174696f6e206e6f7420617070726f6044820152621d995960ea1b6064820152608401610179565b6002810154600090610283906001600160a01b0316610e4f565b905061028e84610ef6565b60038201546001600160a01b03163314806102b5575060048201546001600160a01b031633145b806102c557506102c58133610f54565b6103115760405162461bcd60e51b815260206004820152601e60248201527f6f6e6c79206d696e7465722c206578656375746f72206f72206167656e7400006044820152606401610179565b67464250526641000160c01b6001600160401b038416176102408501351461037b5760405162461bcd60e51b815260206004820152601960248201527f696e76616c6964206d696e74696e67207265666572656e6365000000000000006044820152606401610179565b6003810154610180850135146103d35760405162461bcd60e51b815260206004820152601b60248201527f6e6f74206d696e74696e67206167656e742773206164647265737300000000006044820152606401610179565b600682015415806103ec57506006820154610160850135145b6104495760405162461bcd60e51b815260206004820152602860248201527f696e76616c6964206d696e74657220756e6465726c79696e67206164647265736044820152671cd95cc81c9bdbdd60c21b6064820152608401610179565b8154600090610460906001600160401b0316611028565b60018401549091506104849061047f906001600160801b031683613a9c565b611070565b61020086013512156104d85760405162461bcd60e51b815260206004820152601960248201527f6d696e74696e67207061796d656e7420746f6f20736d616c6c000000000000006044820152606401610179565b8254600160401b90046001600160401b03166104fc61012087016101008801613aaf565b6001600160401b031610156105535760405162461bcd60e51b815260206004820152601760248201527f6d696e74696e67207061796d656e7420746f6f206f6c640000000000000000006044820152606401610179565b60038301548354600185015461059e92859260009289926001600160a01b0316916001600160401b0316906102008c0135906105999087906001600160801b03166110da565b611101565b60048301546000906105c590633b9aca0090600160a01b90046001600160401b0316613aca565b60048501549091506001600160a01b031633036105f85760048401546105f4906001600160a01b03168261147c565b5060005b600184015461062390849061061e908490600160801b90046001600160801b0316613a9c565b611517565b61062d848661161e565b505050505050565b7fec7e8c1c441439dd40959777f4c577ea0cd42fcc1dbe59d2bd0f5d9c55df8dc654600160c81b900460ff1661069c5760405162461bcd60e51b815260206004820152600c60248201526b1b9bdd08185d1d1858da195960a21b6044820152606401610179565b565b7fec7e8c1c441439dd40959777f4c577ea0cd42fcc1dbe59d2bd0f5d9c55df8dc6546000805160206140e88339815191529042600160401b9091046001600160401b031611156107295760405162461bcd60e51b8152602060048201526016602482015275656d657267656e63792070617573652061637469766560501b6044820152606401610179565b50565b6000805160206140e8833981519152600061074684610e4f565b90506107518161178c565b61075a816117db565b6000610765826117f2565b60108401549091506001600160401b0316156107b45760405162461bcd60e51b815260206004820152600e60248201526d1b5a5b9d1a5b99c81c185d5cd95960921b6044820152606401610179565b600160048084015460ff16908111156107cf576107cf613ae1565b1461081c5760405162461bcd60e51b815260206004820152601e60248201527f73656c662d6d696e7420696e76616c6964206167656e742073746174757300006044820152606401610179565b6001600160401b038416610830828461189c565b101561087e5760405162461bcd60e51b815260206004820152601a60248201527f6e6f7420656e6f756768206672656520636f6c6c61746572616c0000000000006044820152606401610179565b7f4f24f5c433db0962dac0d2c8b84197a6e6c7cc4e5d9ebe1916a1b6193da2f347546000906108b6906001600160401b031686613af7565b90506108c1816118f0565b60006108cc82611028565b60048501549091506000906108f89086906108f3908590600160481b900461ffff16611a53565b6110da565b90506000818361090788611a62565b6109119190613a9c565b61091b9190613a9c565b6006870154909150600160401b9004600f0b61093682611070565b13156109845760405162461bcd60e51b815260206004820181905260248201527f6672656520756e6465726c79696e672062616c616e636520746f20736d616c6c6044820152606401610179565b61099686600260003388600088611101565b505050505050505050565b6000805160206140e883398151915260006109bb84610e4f565b90506109c68161178c565b6109cf816117db565b60006109da826117f2565b90506109e586610ef6565b60108301546001600160401b031615610a315760405162461bcd60e51b815260206004820152600e60248201526d1b5a5b9d1a5b99c81c185d5cd95960921b6044820152606401610179565b600160048084015460ff1690811115610a4c57610a4c613ae1565b14610a995760405162461bcd60e51b815260206004820152601e60248201527f73656c662d6d696e7420696e76616c6964206167656e742073746174757300006044820152606401610179565b6001600160401b038416610aad828461189c565b1015610afb5760405162461bcd60e51b815260206004820152601a60248201527f6e6f7420656e6f756768206672656520636f6c6c61746572616c0000000000006044820152606401610179565b7f4f24f5c433db0962dac0d2c8b84197a6e6c7cc4e5d9ebe1916a1b6193da2f34754600090610b33906001600160401b031686613af7565b9050610b3e816118f0565b6000610b4982611028565b6004850154909150600090610b709086906108f3908590600160481b900461ffff16611a53565b905067232128293320800960c11b6001600160a01b038916176102408a013514610bdc5760405162461bcd60e51b815260206004820152601b60248201527f696e76616c69642073656c662d6d696e74207265666572656e636500000000006044820152606401610179565b60038501546101808a013514610c345760405162461bcd60e51b815260206004820152601d60248201527f73656c662d6d696e74206e6f74206167656e74277320616464726573730000006044820152606401610179565b610c4161047f8284613a9c565b6102008a01351215610c955760405162461bcd60e51b815260206004820152601b60248201527f73656c662d6d696e74207061796d656e7420746f6f20736d616c6c00000000006044820152606401610179565b600a8501546001600160401b0316610cb56101208b016101008c01613aaf565b6001600160401b03161015610d0c5760405162461bcd60e51b815260206004820152601960248201527f73656c662d6d696e74207061796d656e7420746f6f206f6c64000000000000006044820152606401610179565b610d19600b87018a611af3565b6102008901356001600160401b03881615610d4457610d3f866001600033888688611101565b610da2565b610d4e8682611b01565b60408051600080825260208201819052818301849052606082015290516001600160a01b038b16917f2b8def7928f95ea587bcff888708376aefe2c32d3671c2846769a692ba59055d919081900360800190a25b50505050505050505050565b60006000805160206140e88339815191526001600160401b03831615801590610df257506001600160401b0380841660009081526006830160205260409020541615155b610e2f5760405162461bcd60e51b815260206004820152600e60248201526d1a5b9d985b1a590818dc9d081a5960921b6044820152606401610179565b6001600160401b0390921660009081526006909201602052506040902090565b7f5bebac0595fee029d42bb673937f5f1cb81cf8641382bc17774635de9b7d796568010000000000000000600160e01b03604083901b161880600060048084015460ff1690811115610ea357610ea3613ae1565b03610ef05760405162461bcd60e51b815260206004820152601b60248201527f696e76616c6964206167656e74207661756c74206164647265737300000000006044820152606401610179565b50919050565b6000610f0a6102a083016102808401613b33565b60ff1614610f4b5760405162461bcd60e51b815260206004820152600e60248201526d1c185e5b595b9d0819985a5b195960921b6044820152606401610179565b61072981611bb3565b60018201546000906001600160a01b0390811690831681148061101e57507f4f24f5c433db0962dac0d2c8b84197a6e6c7cc4e5d9ebe1916a1b6193da2f341546001600160a01b0316604051631f86345d60e31b81526001600160a01b038381166004830152919091169063fc31a2e890602401602060405180830381865afa158015610fe5573d6000803e3d6000fd5b505050506040513d601f19601f820116820180604052508101906110099190613b4e565b6001600160a01b0316836001600160a01b0316145b9150505b92915050565b600080516020614108833981519152546000906000805160206140c88339815191529061106990600160901b90046001600160401b03908116908516613aca565b9392505050565b60006001600160ff1b038211156101f05760405162461bcd60e51b815260206004820152602860248201527f53616665436173743a2076616c756520646f65736e27742066697420696e2061604482015267371034b73a191a9b60c11b6064820152608401610179565b6004820154600090611069906110fc908490600160581b900461ffff16611a53565b611d7b565b6000805160206140c8833981519152600061111b83611dc2565b60068a015490915060009061113a9083906001600160401b0316613b6b565b600d84015490915086906001600160401b039081169083161061118e57600d840154600090611172906001600160401b031684613ba8565b905061117e8184613bce565b6111889083613b6b565b90925090505b6111a18b61119c858a613b6b565b611e08565b6111ab8b82611e76565b6111b58b83612003565b6111bf8b87611b01565b60006111ca88611028565b90506111fd7f4f24f5c433db0962dac0d2c8b84197a6e6c7cc4e5d9ebe1916a1b6193da2f33b546001600160a01b031690565b6040516340c10f1960e01b81526001600160a01b038b811660048301526024820184905291909116906340c10f1990604401600060405180830381600087803b15801561124957600080fd5b505af115801561125d573d6000803e3d6000fd5b505050506112927f4f24f5c433db0962dac0d2c8b84197a6e6c7cc4e5d9ebe1916a1b6193da2f33b546001600160a01b031690565b8c546040516340c10f1960e01b81526001600160a01b039182166004820152602481018990529116906340c10f1990604401600060405180830381600087803b1580156112de57600080fd5b505af11580156112f2573d6000803e3d6000fd5b50508d5460405163542a535160e11b8152600481018a90526001600160a01b03909116925063a854a6a29150602401600060405180830381600087803b15801561133b57600080fd5b505af115801561134f573d6000803e3d6000fd5b506000925061135c915050565b8b600281111561136e5761136e613ae1565b036113f357600086611380838a613bee565b61138a9190613bee565b90508a6001600160401b031661139f8e612099565b60408051858152602081018590529081018a90526001600160a01b0391909116907f0d418f2ae12260f9d0ceacf72b08fcc4b05560719443f40d3761ee90da0d8fa59060600160405180910390a35061146e565b600060028c600281111561140957611409613ae1565b1490506114158d612099565b604080518315158152602081018590529081018a9052606081018990526001600160a01b0391909116907f2b8def7928f95ea587bcff888708376aefe2c32d3671c2846769a692ba59055d9060800160405180910390a2505b505050505050505050505050565b80156100c4576000826001600160a01b03168260405160006040518083038185875af1925050503d80600081146114cf576040519150601f19603f3d011682016040523d82523d6000602084013e6114d4565b606091505b50509050806101055760405162461bcd60e51b815260206004820152600f60248201526e1d1c985b9cd9995c8819985a5b1959608a1b6044820152606401610179565b6004820154600090611535908390600160581b900461ffff16611a53565b8354604080516368dc448760e11b815290519293506001600160a01b039091169163d1b8890e918491600480830192600092919082900301818588803b15801561157e57600080fd5b505af1158015611592573d6000803e3d6000fd5b50505050506115a083612099565b6001600160a01b031663677fa2326115b88385613bee565b6115c06120c1565b6040516001600160e01b031960e085901b1681526001600160a01b0390911660048201526024016000604051808303818588803b15801561160057600080fd5b505af1158015611614573d6000803e3d6000fd5b5050505050505050565b60028201546000805160206140e883398151915290600090611648906001600160a01b0316610e4f565b845460018601549192506000916116759184916001600160401b03909116906001600160801b031661212e565b600583015460408051808201909152601381527234b73b30b634b2103932b9b2b93b30ba34b7b760691b60208201529192506116be916001600160401b0390911690839061216c565b60058301805467ffffffffffffffff19166001600160401b03928316179055600e8401805483926018916116fb918591600160c01b900416613bce565b82546101009290920a6001600160401b03818102199093169183160217909155949094166000908152600693840160205260408120818155600181018290556002810180546001600160a01b031990811690915560038201805490911690556004810180546001600160e01b031916905560058101805467ffffffffffffffff191690559093019290925550505050565b6117968133610f54565b6107295760405162461bcd60e51b815260206004820152601660248201527537b7363c9030b3b2b73a103b30bab63a1037bbb732b960511b6044820152606401610179565b6001810154610729906001600160a01b03166121b7565b61185d6040805160c081019091526000606082018181526080830182905260a083019190915281908152604080516060810182526000808252602082810182905292820152910190815260408051606081018252600080825260208281018290529282015291015290565b600061186883612292565b9050604051806060016040528061187e85612358565b815260200182815260200161189385846123e5565b90529392505050565b6000806118ad8460000151846125b1565b905060006118bf8560200151856125b1565b905060006118d18660400151866125b1565b90506118e6836118e184846125e7565b6125e7565b9695505050505050565b7f4f24f5c433db0962dac0d2c8b84197a6e6c7cc4e5d9ebe1916a1b6193da2f347546000805160206140e8833981519152906000805160206140c883398151915290600160581b90046001600160401b031660008190036119515750505050565b6001820154604080516318160ddd60e01b815290516000926001600160a01b0316916318160ddd9160048083019260209291908290030181865afa15801561199d573d6000803e3d6000fd5b505050506040513d601f19601f820116820180604052508101906119c19190613c01565b905060006119ce82611dc2565b600e8601546119ed9190600160c01b90046001600160401b0316613b6b565b6001600160401b0316905082866001600160401b031682611a0e9190613a9c565b111561062d5760405162461bcd60e51b81526020600482015260146024820152731b5a5b9d1a5b99c818d85c08195e18d95959195960621b6044820152606401610179565b600061106983836127106125fd565b6000805160206141088339815191525460058201546000916000805160206140c8833981519152918391600160901b90046001600160401b0390811691611aba91600160801b8204811691600160401b900416613b6b565b6001600160401b0316611acd9190613aca565b600d830154909150611aeb908290600160401b900461ffff16611a53565b949350505050565b6100c48260a0830135612723565b611b12611b0d82611070565b6127ec565b600683018054600890611b30908490600160401b9004600f0b613c1a565b92506101000a8154816001600160801b030219169083600f0b6001600160801b03160217905550611b6082612099565b6006830154604051600160401b909104600f0b81526001600160a01b0391909116907f73da6891cb86668451f612d2555e88650888a0133a30b1d226b2d1f955e62bca9060200160405180910390a25050565b7f4f24f5c433db0962dac0d2c8b84197a6e6c7cc4e5d9ebe1916a1b6193da2f342547f4f24f5c433db0962dac0d2c8b84197a6e6c7cc4e5d9ebe1916a1b6193da2f345546000805160206140c8833981519152916001600160a01b031690604084013514611c535760405162461bcd60e51b815260206004820152600d60248201526c34b73b30b634b21031b430b4b760991b6044820152606401610179565b60405163a7a3797560e01b81526001600160a01b0382169063a7a3797590611c7f908690600401613d9c565b602060405180830381865afa158015611c9c573d6000803e3d6000fd5b505050506040513d601f19601f82011682018060405250810190611cc09190613e2f565b611d0c5760405162461bcd60e51b815260206004820152601860248201527f6c6567616c207061796d656e74206e6f742070726f76656400000000000000006044820152606401610179565b611d2f611d2161014085016101208601613aaf565b6001600160401b0316612815565b6101055760405162461bcd60e51b815260206004820152601c60248201527f7665726966696564207472616e73616374696f6e20746f6f206f6c64000000006044820152606401610179565b600080516020614108833981519152546000906000805160206140c883398151915290611db890600160901b90046001600160401b031684613e4c565b6110699084613bee565b600080516020614108833981519152546000906000805160206140c88339815191529061106990611e0390600160901b90046001600160401b031685613e60565b610188565b6005820154611e28908290600160401b90046001600160401b0316613b6b565b8260050160086101000a8154816001600160401b0302191690836001600160401b031602179055506100c4611e5c83612099565b6005840154600160401b90046001600160401b0316612838565b6000805160206140e88339815191526000611e9084612099565b6009830154600160401b90046001600160401b031660008181526007850160205260409020805492935090916001600160a01b03808516911603611f8d57805485908290601490611ef2908490600160a01b90046001600160401b0316613b6b565b92506101000a8154816001600160401b0302191690836001600160401b031602179055506000611f388260000160149054906101000a90046001600160401b0316611028565b9050826001600160401b0316846001600160a01b03167f9d2e72c50be7927e999d37329649af37a863df77bcb25361699ce021d3d7475d83604051611f7f91815260200190565b60405180910390a35061062d565b6000611f9d600786018588612884565b90506000611faa87611028565b9050816001600160401b0316856001600160a01b03167f631f8f2039090539b2ea4ef7dc567f7f1939ef4dd3e790b1ca7bc548a1fada5883604051611ff191815260200190565b60405180910390a35050505050505050565b60068201546001600160401b0380831691160361201e575050565b60068201805467ffffffffffffffff19166001600160401b038316179055600061204782611028565b905061205283612099565b6001600160a01b03167fa3db2bc927901a1d3ba09ad51d84609457b98443be9132a0a936a47c5a1081b58260405161208c91815260200190565b60405180910390a2505050565b7f5bebac0595fee029d42bb673937f5f1cb81cf8641382bc17774635de9b7d79651860401c90565b7fec7e8c1c441439dd40959777f4c577ea0cd42fcc1dbe59d2bd0f5d9c55df8dc5546000805160206140e88339815191528054600092829161ffff90911690811061210e5761210e613e74565b60009182526020909120600490910201546001600160a01b031692915050565b6004830154600090819061214e908490600160581b900461ffff16611a53565b905061215981611dc2565b6121639085613b6b565b95945050505050565b6000826001600160401b0316846001600160401b0316101582906121a35760405162461bcd60e51b81526004016101799190613e8a565b5050506001600160401b0390811691160390565b7f4f24f5c433db0962dac0d2c8b84197a6e6c7cc4e5d9ebe1916a1b6193da2f341546001600160a01b0316604051633af32abf60e01b81526001600160a01b0383811660048301529190911690633af32abf90602401602060405180830381865afa15801561222a573d6000803e3d6000fd5b505050506040513d601f19601f8201168201806040525081019061224e9190613e2f565b6107295760405162461bcd60e51b81526020600482015260156024820152741859d95b9d081b9bdd081dda1a5d195b1a5cdd1959605a1b6044820152606401610179565b6122b76040805160608101909152806000815260200160008152602001600081525090565b60006122c283612c8d565b60408051606081019091529091508060018152825485546040516370a0823160e01b81526001600160a01b0391821660048201526020909301929116906370a08231906024015b602060405180830381865afa158015612326573d6000803e3d6000fd5b505050506040513d601f19601f8201168201806040525081019061234a9190613c01565b815260200161189383612cdc565b61237d6040805160608101909152806000815260200160008152602001600081525090565b600061238883612cf2565b60408051606081019091526000815281549192509060208201906001600160a01b03166370a082316123b987612099565b6040516001600160e01b031960e084901b1681526001600160a01b039091166004820152602401612309565b61240a6040805160608101909152806000815260200160008152602001600081525090565b8254604080516332f7ce0b60e21b815290516000926001600160a01b03169163cbdf382c9160048083019260209291908290030181865afa158015612453573d6000803e3d6000fd5b505050506040513d601f19601f820116820180604052508101906124779190613b4e565b90506000816001600160a01b03166370a0823161249387612099565b6040516001600160e01b031960e084901b1681526001600160a01b039091166004820152602401602060405180830381865afa1580156124d7573d6000803e3d6000fd5b505050506040513d601f19601f820116820180604052508101906124fb9190613c01565b90506000826001600160a01b03166318160ddd6040518163ffffffff1660e01b8152600401602060405180830381865afa15801561253d573d6000803e3d6000fd5b505050506040513d601f19601f820116820180604052508101906125619190613c01565b90506000856020015160000361257857600061258d565b6020860151604087015161258d9184906125fd565b60408051606081018252600281526020810195909552840152509095945050505050565b6000806125be8484612d29565b905060006125cc8585612d46565b9050806000036125dd576000612163565b6121638183613e60565b60008183106125f65781611069565b5090919050565b60008082116126415760405162461bcd60e51b815260206004820152601060248201526f4469766973696f6e206279207a65726f60801b6044820152606401610179565b8360000361265157506000611069565b8383028385828161266457612664613b92565b04036126825782818161267957612679613b92565b04915050611069565b50600061268f8386613e60565b9050600061269d8487613e4c565b905060006126ab8587613e60565b905060006126b98688613e4c565b9050856126c68285613aca565b6126d09190613e60565b6126da8385613aca565b6126e48387613aca565b886126ef8689613aca565b6126f99190613aca565b6127039190613a9c565b61270d9190613a9c565b6127179190613a9c565b98975050505050505050565b6000818152602083905260409020541561277f5760405162461bcd60e51b815260206004820152601960248201527f7061796d656e7420616c726561647920636f6e6669726d6564000000000000006044820152606401610179565b600061278e6201518042613e60565b60008181526001850160205260408120549192508190036127af57826127b1565b805b60008481526020868152604080832093909355848252600187019052908120849055600285015490036127e657600284018290555b50505050565b80600f81900b81146128105760405162461bcd60e51b815260040161017990613ed9565b919050565b6000612825600e62015180613aca565b61282f9042613bee565b90911015919050565b7f341c6685fdb8ed7133465b64f545b9fbc5699a59cbd1ad98992e5c070a74c5106101057f341c6685fdb8ed7133465b64f545b9fbc5699a59cbd1ad98992e5c070a74c5118484612d99565b6001600160a01b038216600090815260018401602052604081206002850180548391906010906128c390600160801b90046001600160401b0316613f20565b91906101000a8154816001600160401b0302191690836001600160401b03160217905590506040518060c00160405280866001600160a01b03168152602001856001600160401b031681526020018760020160089054906101000a90046001600160401b03166001600160401b0316815260200160006001600160401b031681526020018360000160089054906101000a90046001600160401b03166001600160401b0316815260200160006001600160401b0316815250866000016000836001600160401b03166001600160401b0316815260200190815260200160002060008201518160000160006101000a8154816001600160a01b0302191690836001600160a01b0316021790555060208201518160000160146101000a8154816001600160401b0302191690836001600160401b0316021790555060408201518160010160006101000a8154816001600160401b0302191690836001600160401b0316021790555060608201518160010160086101000a8154816001600160401b0302191690836001600160401b0316021790555060808201518160010160106101000a8154816001600160401b0302191690836001600160401b0316021790555060a08201518160010160186101000a8154816001600160401b0302191690836001600160401b031602179055509050508560020160009054906101000a90046001600160401b03166001600160401b0316600003612b20576002860154600160401b90046001600160401b031615612afd57612afd613f46565b60028601805467ffffffffffffffff19166001600160401b038316179055612b88565b6002860154600160401b90046001600160401b0316600003612b4457612b44613f46565b6002860154600160401b908190046001600160401b039081166000908152602089905260409020600101805467ffffffffffffffff60401b19169184169092021790555b6002860180546001600160401b03808416600160401b0267ffffffffffffffff60401b1990921691909117909155825416600003612bfe578154600160401b90046001600160401b031615612bdf57612bdf613f46565b815467ffffffffffffffff19166001600160401b038216178255612c61565b8154600160401b90046001600160401b0316600003612c1f57612c1f613f46565b81546001600160401b03600160401b909104811660009081526020889052604090206001018054918316600160c01b026001600160c01b039092169190911790555b815467ffffffffffffffff60401b1916600160401b6001600160401b0383160217909155949350505050565b6000806000805160206140e8833981519152600484015481549192508291630100000090910461ffff16908110612cc657612cc6613e74565b9060005260206000209060040201915050919050565b6000612ce9826000612e02565b50909392505050565b6000806000805160206140e883398151915260048401548154919250829161010090910461ffff16908110612cc657612cc6613e74565b600080612d368484612fc1565b905061101e8460200151826130eb565b6000806000805160206140c883398151915290506000612d6a848660000151613105565b50600d8301546040870151919250612163918391612d93916001600160401b039091169061320c565b90611a53565b6001600160a01b0382166000908152600484016020526040812090612dbd82613226565b90506000612dca86613226565b9050612dd78342866132c1565b612df84283612de68785613b6b565b612df09190613bce565b8891906132c1565b61062d8684613632565b600080600080600080612ea1886001018054612e1d90613f5c565b80601f0160208091040260200160405190810160405280929190818152602001828054612e4990613f5c565b8015612e965780601f10612e6b57610100808354040283529160200191612e96565b820191906000526020600020905b815481529060010190602001808311612e7957829003601f168201915b50505050508861366f565b8a549295509093509150600160f01b900460ff1615612ee8578754600090612ed790600160a81b900460ff16600183878661375d565b9650919450849350612fba92505050565b6000806000612f838b6002018054612eff90613f5c565b80601f0160208091040260200160405190810160405280929190818152602001828054612f2b90613f5c565b8015612f785780601f10612f4d57610100808354040283529160200191612f78565b820191906000526020600020905b815481529060010190602001808311612f5b57829003601f168201915b50505050508b61366f565b8d549295509093509150600090612fa790600160a81b900460ff1685848a8961375d565b9950949750909550612fba945050505050565b9250925092565b6000806000612fd4848660000151613105565b60058601549193509150600090612ffd906001600160401b03600160401b820481169116613a9c565b9050600061301384612d93848a6040015161320c565b9050600060018851600281111561302c5761302c613ae1565b1461304b576005870154600160801b90046001600160401b0316613061565b6005870154600160c01b90046001600160401b03165b9050600061308085612d93846001600160401b03168c6040015161320c565b9050600060018a51600281111561309957613099613ae1565b036130a55760006130bd565b89516130b2908a906137e4565b546001600160801b03165b6001600160801b03169050806130d38386613a9c565b6130dd9190613a9c565b9a9950505050505050505050565b60008183116130fb576000611069565b6110698284613bee565b600080600283600281111561311c5761311c613ae1565b036131845760008061312f866001613105565b91509150600061314a6000805160206140c883398151915290565b600c015463ffffffff6401000000009091048116915061316e9082908490611a5316565b935061317a8184611a53565b9450505050613205565b600183600281111561319857613198613ae1565b036131d3576131a684612c8d565b60030154600485015463ffffffff91821692506131cc91600160881b9091041682613831565b9150613205565b6131dc84612cf2565b60030154600485015463ffffffff918216925061320291600160681b9091041682613831565b91505b9250929050565b60006110698261321e6009600a614074565b8591906125fd565b6001810154600090600160401b90046001600160401b0316810361324c57506000919050565b60018201546001600160401b03808216600160401b909204161161327257613272613f46565b60018281015483916000916132979190600160401b90046001600160401b0316613bce565b6001600160401b039081168252602082019290925260400160002054600160c01b90041692915050565b6001830154600160401b90046001600160401b03166000036133e05760018301546001600160401b0316156132f8576132f8613f46565b604051806060016040528060006001600160801b0316815260200161331c84610188565b6001600160401b0390811682528381166020909201919091526001850180548692600092600160401b9092041690600861335583613f20565b82546001600160401b039182166101009390930a92830292820219169190911790915590811682526020808301939093526040918201600020845181549486015195909301518216600160c01b026001600160c01b0395909216600160801b026001600160c01b03199094166001600160801b03909316929092179290921792909216179055505050565b60018301546001600160401b03808216600160401b909204161161340657613406613f46565b6001838101546000918591839161342c91600160401b90046001600160401b0316613bce565b6001600160401b03908116825260208201929092526040016000208054909250600160801b90041683900361347e5780546001600160c01b0316600160c01b6001600160401b038416021781556127e6565b8054600160801b90046001600160401b031683116134ef5760405162461bcd60e51b815260206004820152602860248201527f54696d6543756d756c61746976653a2074696d657374616d70206e6f7420696e6044820152676372656173696e6760c01b6064820152608401610179565b805460009061350e90600160801b90046001600160401b031685613bee565b825461352a9190600160c01b90046001600160401b0316613aca565b825461353f91906001600160801b0316613a9c565b9050604051806060016040528061355583613840565b6001600160801b0316815260200161356c86610188565b6001600160401b0390811682528581166020909201919091526001870180548892600092600160401b909204169060086135a583613f20565b82546001600160401b039182166101009390930a92830292820219169190911790915590811682526020808301939093526040918201600020845181549486015195909301518216600160c01b026001600160c01b0395909216600160801b026001600160c01b03199094166001600160801b039093169290921792909217929092161790555050505050565b6003820154600090613655908490600160c01b90046001600160401b0316613869565b9050613663828260026138a4565b610105838260026138a4565b7f4f24f5c433db0962dac0d2c8b84197a6e6c7cc4e5d9ebe1916a1b6193da2f34454600090819081906000805160206140c8833981519152906001600160a01b031685156137315760405163e4a0a55b60e01b81526001600160a01b0382169063e4a0a55b906136e3908a90600401613e8a565b606060405180830381865afa158015613700573d6000803e3d6000fd5b505050506040513d601f19601f820116820180604052508101906137249190614080565b9450945094505050612fba565b60405163524f388960e01b81526001600160a01b0382169063524f3889906136e3908a90600401613e8a565b60006000805160206140c883398151915281600961377b878a613a9c565b6137859190613a9c565b600a8301549091506000906137a5908690600160a81b900460ff16613a9c565b9050808210156137b7576137b7613f46565b6137d76137c48284613bee565b6137cf90600a614074565b87908a6125fd565b9998505050505050505050565b600060018260028111156137fa576137fa613ae1565b0361380757613807613f46565b600082600281111561381b5761381b613ae1565b146138295782600901611069565b505060080190565b60008183116125f65781611069565b60006001600160801b038211156101f05760405162461bcd60e51b815260040161017990613ed9565b600382015460009061388c908390600160401b90046001600160401b0316613aca565b600384015461106991906001600160401b0316613a9c565b60018301546001600160401b0380821691600160401b90041660005b83811080156138d85750816138d6846001613a9c565b105b80156139115750848660006138ee866001613a9c565b8152602081019190915260400160002054600160801b90046001600160401b0316105b156139405760008381526020879052604081205561392e836140ae565b9250613939816140ae565b90506138c0565b61394983610188565b600196909601805467ffffffffffffffff19166001600160401b03909716969096179095555050505050565b60006102a08284031215610ef057600080fd5b6000806040838503121561399b57600080fd5b82356001600160401b038111156139b157600080fd5b6139bd85828601613975565b95602094909401359450505050565b6001600160a01b038116811461072957600080fd5b80356001600160401b038116811461281057600080fd5b60008060408385031215613a0b57600080fd5b8235613a16816139cc565b9150613a24602084016139e1565b90509250929050565b600080600060608486031215613a4257600080fd5b83356001600160401b03811115613a5857600080fd5b613a6486828701613975565b9350506020840135613a75816139cc565b929592945050506040919091013590565b634e487b7160e01b600052601160045260246000fd5b8082018082111561102257611022613a86565b600060208284031215613ac157600080fd5b611069826139e1565b808202811582820484141761102257611022613a86565b634e487b7160e01b600052602160045260246000fd5b6001600160401b03818116838216028082169190828114613b1a57613b1a613a86565b505092915050565b803560ff8116811461281057600080fd5b600060208284031215613b4557600080fd5b61106982613b22565b600060208284031215613b6057600080fd5b8151611069816139cc565b6001600160401b03818116838216019080821115613b8b57613b8b613a86565b5092915050565b634e487b7160e01b600052601260045260246000fd5b60006001600160401b0380841680613bc257613bc2613b92565b92169190910692915050565b6001600160401b03828116828216039080821115613b8b57613b8b613a86565b8181038181111561102257611022613a86565b600060208284031215613c1357600080fd5b5051919050565b600f81810b9083900b016f7fffffffffffffffffffffffffffffff81136f7fffffffffffffffffffffffffffffff198212171561102257611022613a86565b801515811461072957600080fd5b803561281081613c59565b8035825260208101356020830152613c8c604082016139e1565b6001600160401b03808216604085015280613ca9606085016139e1565b16606085015250506080810135608083015260a081013560a083015260c081013560c0830152613cef60e08301613ce260e084016139e1565b6001600160401b03169052565b610100613cfd8183016139e1565b6001600160401b03169083015261012081810135908301526101408082013590830152610160808201359083015261018080820135908301526101a080820135908301526101c080820135908301526101e0808201359083015261020080820135908301526102208082013590830152610240613d7b818301613c67565b151590830152610260613d8f828201613b22565b60ff8116848301526127e6565b6020815260008235601e19843603018112613db657600080fd5b83016020810190356001600160401b03811115613dd257600080fd5b8060051b803603831315613de557600080fd5b6102a060208601526102c085018290526102e06001600160fb1b03831115613e0c57600080fd5b818482880137613e226040870160208901613c72565b9401909301949350505050565b600060208284031215613e4157600080fd5b815161106981613c59565b600082613e5b57613e5b613b92565b500690565b600082613e6f57613e6f613b92565b500490565b634e487b7160e01b600052603260045260246000fd5b60006020808352835180602085015260005b81811015613eb857858101830151858201604001528201613e9c565b506000604082860101526040601f19601f8301168501019250505092915050565b60208082526027908201527f53616665436173743a2076616c756520646f65736e27742066697420696e20316040820152663238206269747360c81b606082015260800190565b60006001600160401b03808316818103613f3c57613f3c613a86565b6001019392505050565b634e487b7160e01b600052600160045260246000fd5b600181811c90821680613f7057607f821691505b602082108103610ef057634e487b7160e01b600052602260045260246000fd5b600181815b80851115613fcb578160001904821115613fb157613fb1613a86565b80851615613fbe57918102915b93841c9390800290613f95565b509250929050565b600082613fe257506001611022565b81613fef57506000611022565b8160018114614005576002811461400f5761402b565b6001915050611022565b60ff84111561402057614020613a86565b50506001821b611022565b5060208310610133831016604e8410600b841016171561404e575081810a611022565b6140588383613f90565b806000190482111561406c5761406c613a86565b029392505050565b60006110698383613fd3565b60008060006060848603121561409557600080fd5b8351925060208401519150604084015190509250925092565b6000600182016140c0576140c0613a86565b506001019056fe4f24f5c433db0962dac0d2c8b84197a6e6c7cc4e5d9ebe1916a1b6193da2f33aec7e8c1c441439dd40959777f4c577ea0cd42fcc1dbe59d2bd0f5d9c55df8db64f24f5c433db0962dac0d2c8b84197a6e6c7cc4e5d9ebe1916a1b6193da2f346a2646970667358221220e65af0fe73ed4c39137f75355033612c78d14bb3e3fbf6f222f0e1225455ae8b64736f6c63430008170033",
  "linkReferences": {},
  "deployedLinkReferences": {}
}