{
  "_format": "hh-sol-artifact-1",
  "contractName": "MintingFacet",
  "sourceName": "contracts/assetManager/facets/MintingFacet.sol",
  "abi": [
    {
      "anonymous": false,
      "inputs": [
        {
          "indexed": true,
          "internalType": "address",
          "name": "agentVault",
          "type": "address"
        },
        {
          "indexed": false,
          "internalType": "uint256",
          "name": "dustUBA",
          "type": "uint256"
        }
      ],
      "name": "DustChanged",
      "type": "event"
    },
    {
      "anonymous": false,
      "inputs": [
        {
          "indexed": true,
          "internalType": "address",
          "name": "agentVault",
          "type": "address"
        },
        {
          "indexed": true,
          "internalType": "uint256",
          "name": "collateralReservationId",
          "type": "uint256"
        },
        {
          "indexed": false,
          "internalType": "uint256",
          "name": "mintedAmountUBA",
          "type": "uint256"
        },
        {
          "indexed": false,
          "internalType": "uint256",
          "name": "agentFeeUBA",
          "type": "uint256"
        },
        {
          "indexed": false,
          "internalType": "uint256",
          "name": "poolFeeUBA",
          "type": "uint256"
        }
      ],
      "name": "MintingExecuted",
      "type": "event"
    },
    {
      "anonymous": false,
      "inputs": [
        {
          "indexed": true,
          "internalType": "address",
          "name": "agentVault",
          "type": "address"
        },
        {
          "indexed": true,
          "internalType": "uint256",
          "name": "redemptionTicketId",
          "type": "uint256"
        },
        {
          "indexed": false,
          "internalType": "uint256",
          "name": "ticketValueUBA",
          "type": "uint256"
        }
      ],
      "name": "RedemptionTicketCreated",
      "type": "event"
    },
    {
      "anonymous": false,
      "inputs": [
        {
          "indexed": true,
          "internalType": "address",
          "name": "agentVault",
          "type": "address"
        },
        {
          "indexed": true,
          "internalType": "uint256",
          "name": "redemptionTicketId",
          "type": "uint256"
        },
        {
          "indexed": false,
          "internalType": "uint256",
          "name": "ticketValueUBA",
          "type": "uint256"
        }
      ],
      "name": "RedemptionTicketUpdated",
      "type": "event"
    },
    {
      "anonymous": false,
      "inputs": [
        {
          "indexed": true,
          "internalType": "address",
          "name": "agentVault",
          "type": "address"
        },
        {
          "indexed": false,
          "internalType": "bool",
          "name": "mintFromFreeUnderlying",
          "type": "bool"
        },
        {
          "indexed": false,
          "internalType": "uint256",
          "name": "mintedAmountUBA",
          "type": "uint256"
        },
        {
          "indexed": false,
          "internalType": "uint256",
          "name": "depositedAmountUBA",
          "type": "uint256"
        },
        {
          "indexed": false,
          "internalType": "uint256",
          "name": "poolFeeUBA",
          "type": "uint256"
        }
      ],
      "name": "SelfMint",
      "type": "event"
    },
    {
      "anonymous": false,
      "inputs": [
        {
          "indexed": true,
          "internalType": "address",
          "name": "agentVault",
          "type": "address"
        },
        {
          "indexed": false,
          "internalType": "int256",
          "name": "underlyingBalanceUBA",
          "type": "int256"
        }
      ],
      "name": "UnderlyingBalanceChanged",
      "type": "event"
    },
    {
      "inputs": [
        {
          "components": [
            {
              "internalType": "bytes32[]",
              "name": "merkleProof",
              "type": "bytes32[]"
            },
            {
              "components": [
                {
                  "internalType": "bytes32",
                  "name": "attestationType",
                  "type": "bytes32"
                },
                {
                  "internalType": "bytes32",
                  "name": "sourceId",
                  "type": "bytes32"
                },
                {
                  "internalType": "uint64",
                  "name": "votingRound",
                  "type": "uint64"
                },
                {
                  "internalType": "uint64",
                  "name": "lowestUsedTimestamp",
                  "type": "uint64"
                },
                {
                  "components": [
                    {
                      "internalType": "bytes32",
                      "name": "transactionId",
                      "type": "bytes32"
                    },
                    {
                      "internalType": "uint256",
                      "name": "inUtxo",
                      "type": "uint256"
                    },
                    {
                      "internalType": "uint256",
                      "name": "utxo",
                      "type": "uint256"
                    }
                  ],
                  "internalType": "struct IPayment.RequestBody",
                  "name": "requestBody",
                  "type": "tuple"
                },
                {
                  "components": [
                    {
                      "internalType": "uint64",
                      "name": "blockNumber",
                      "type": "uint64"
                    },
                    {
                      "internalType": "uint64",
                      "name": "blockTimestamp",
                      "type": "uint64"
                    },
                    {
                      "internalType": "bytes32",
                      "name": "sourceAddressHash",
                      "type": "bytes32"
                    },
                    {
                      "internalType": "bytes32",
                      "name": "sourceAddressesRoot",
                      "type": "bytes32"
                    },
                    {
                      "internalType": "bytes32",
                      "name": "receivingAddressHash",
                      "type": "bytes32"
                    },
                    {
                      "internalType": "bytes32",
                      "name": "intendedReceivingAddressHash",
                      "type": "bytes32"
                    },
                    {
                      "internalType": "int256",
                      "name": "spentAmount",
                      "type": "int256"
                    },
                    {
                      "internalType": "int256",
                      "name": "intendedSpentAmount",
                      "type": "int256"
                    },
                    {
                      "internalType": "int256",
                      "name": "receivedAmount",
                      "type": "int256"
                    },
                    {
                      "internalType": "int256",
                      "name": "intendedReceivedAmount",
                      "type": "int256"
                    },
                    {
                      "internalType": "bytes32",
                      "name": "standardPaymentReference",
                      "type": "bytes32"
                    },
                    {
                      "internalType": "bool",
                      "name": "oneToOne",
                      "type": "bool"
                    },
                    {
                      "internalType": "uint8",
                      "name": "status",
                      "type": "uint8"
                    }
                  ],
                  "internalType": "struct IPayment.ResponseBody",
                  "name": "responseBody",
                  "type": "tuple"
                }
              ],
              "internalType": "struct IPayment.Response",
              "name": "data",
              "type": "tuple"
            }
          ],
          "internalType": "struct IPayment.Proof",
          "name": "_payment",
          "type": "tuple"
        },
        {
          "internalType": "uint256",
          "name": "_collateralReservationId",
          "type": "uint256"
        }
      ],
      "name": "executeMinting",
      "outputs": [],
      "stateMutability": "nonpayable",
      "type": "function"
    },
    {
      "inputs": [
        {
          "internalType": "address",
          "name": "_agentVault",
          "type": "address"
        },
        {
          "internalType": "uint64",
          "name": "_lots",
          "type": "uint64"
        }
      ],
      "name": "mintFromFreeUnderlying",
      "outputs": [],
      "stateMutability": "nonpayable",
      "type": "function"
    },
    {
      "inputs": [
        {
          "components": [
            {
              "internalType": "bytes32[]",
              "name": "merkleProof",
              "type": "bytes32[]"
            },
            {
              "components": [
                {
                  "internalType": "bytes32",
                  "name": "attestationType",
                  "type": "bytes32"
                },
                {
                  "internalType": "bytes32",
                  "name": "sourceId",
                  "type": "bytes32"
                },
                {
                  "internalType": "uint64",
                  "name": "votingRound",
                  "type": "uint64"
                },
                {
                  "internalType": "uint64",
                  "name": "lowestUsedTimestamp",
                  "type": "uint64"
                },
                {
                  "components": [
                    {
                      "internalType": "bytes32",
                      "name": "transactionId",
                      "type": "bytes32"
                    },
                    {
                      "internalType": "uint256",
                      "name": "inUtxo",
                      "type": "uint256"
                    },
                    {
                      "internalType": "uint256",
                      "name": "utxo",
                      "type": "uint256"
                    }
                  ],
                  "internalType": "struct IPayment.RequestBody",
                  "name": "requestBody",
                  "type": "tuple"
                },
                {
                  "components": [
                    {
                      "internalType": "uint64",
                      "name": "blockNumber",
                      "type": "uint64"
                    },
                    {
                      "internalType": "uint64",
                      "name": "blockTimestamp",
                      "type": "uint64"
                    },
                    {
                      "internalType": "bytes32",
                      "name": "sourceAddressHash",
                      "type": "bytes32"
                    },
                    {
                      "internalType": "bytes32",
                      "name": "sourceAddressesRoot",
                      "type": "bytes32"
                    },
                    {
                      "internalType": "bytes32",
                      "name": "receivingAddressHash",
                      "type": "bytes32"
                    },
                    {
                      "internalType": "bytes32",
                      "name": "intendedReceivingAddressHash",
                      "type": "bytes32"
                    },
                    {
                      "internalType": "int256",
                      "name": "spentAmount",
                      "type": "int256"
                    },
                    {
                      "internalType": "int256",
                      "name": "intendedSpentAmount",
                      "type": "int256"
                    },
                    {
                      "internalType": "int256",
                      "name": "receivedAmount",
                      "type": "int256"
                    },
                    {
                      "internalType": "int256",
                      "name": "intendedReceivedAmount",
                      "type": "int256"
                    },
                    {
                      "internalType": "bytes32",
                      "name": "standardPaymentReference",
                      "type": "bytes32"
                    },
                    {
                      "internalType": "bool",
                      "name": "oneToOne",
                      "type": "bool"
                    },
                    {
                      "internalType": "uint8",
                      "name": "status",
                      "type": "uint8"
                    }
                  ],
                  "internalType": "struct IPayment.ResponseBody",
                  "name": "responseBody",
                  "type": "tuple"
                }
              ],
              "internalType": "struct IPayment.Response",
              "name": "data",
              "type": "tuple"
            }
          ],
          "internalType": "struct IPayment.Proof",
          "name": "_payment",
          "type": "tuple"
        },
        {
          "internalType": "address",
          "name": "_agentVault",
          "type": "address"
        },
        {
          "internalType": "uint256",
          "name": "_lots",
          "type": "uint256"
        }
      ],
      "name": "selfMint",
      "outputs": [],
      "stateMutability": "nonpayable",
      "type": "function"
    }
  ],
  "bytecode": "0x608060405234801561001057600080fd5b506141c0806100206000396000f3fe608060405234801561001057600080fd5b50600436106100415760003560e01c80630da5e8e0146100465780635a48b7631461005b57806369f020201461006e575b600080fd5b6100596100543660046139eb565b610081565b005b610059610069366004613a5b565b6100c8565b61005961007c366004613a90565b6100e2565b61008961010a565b61009b8261009683610188565b6101f4565b6100c460017f0cd2207518cd3e5213e2c6dbe63d55b60aa893c194a427b7d7f1600408fd5bde55565b5050565b6100d0610635565b6100d861069e565b6100c4828261072c565b6100ea610635565b6100f261069e565b610105838361010084610188565b6109a1565b505050565b7f0cd2207518cd3e5213e2c6dbe63d55b60aa893c194a427b7d7f1600408fd5bde8054600119016101825760405162461bcd60e51b815260206004820152601f60248201527f5265656e7472616e637947756172643a207265656e7472616e742063616c6c0060448201526064015b60405180910390fd5b60029055565b60006001600160401b038211156101f05760405162461bcd60e51b815260206004820152602660248201527f53616665436173743a2076616c756520646f65736e27742066697420696e203660448201526534206269747360d01b6064820152608401610179565b5090565b60006101ff82610db2565b60058101549091506001600160401b0316156102695760405162461bcd60e51b815260206004820152602360248201527f636f6c6c61746572616c207265736572766174696f6e206e6f7420617070726f6044820152621d995960ea1b6064820152608401610179565b6002810154600090610283906001600160a01b0316610e53565b905061028e84610efa565b60038201546001600160a01b03163314806102b5575060048201546001600160a01b031633145b806102c557506102c58133610f58565b6103115760405162461bcd60e51b815260206004820152601e60248201527f6f6e6c79206d696e7465722c206578656375746f72206f72206167656e7400006044820152606401610179565b67464250526641000160c01b6001600160401b038416176102408501351461037b5760405162461bcd60e51b815260206004820152601960248201527f696e76616c6964206d696e74696e67207265666572656e6365000000000000006044820152606401610179565b6003810154610180850135146103d35760405162461bcd60e51b815260206004820152601b60248201527f6e6f74206d696e74696e67206167656e742773206164647265737300000000006044820152606401610179565b600682015415806103ec57506006820154610160850135145b6104495760405162461bcd60e51b815260206004820152602860248201527f696e76616c6964206d696e74657220756e6465726c79696e67206164647265736044820152671cd95cc81c9bdbdd60c21b6064820152608401610179565b8154600090610460906001600160401b031661102c565b60018401549091506104849061047f906001600160801b031683613aff565b611074565b61020086013512156104d85760405162461bcd60e51b815260206004820152601960248201527f6d696e74696e67207061796d656e7420746f6f20736d616c6c000000000000006044820152606401610179565b8254600160401b90046001600160401b03166104fc61012087016101008801613b12565b6001600160401b031610156105535760405162461bcd60e51b815260206004820152601760248201527f6d696e74696e67207061796d656e7420746f6f206f6c640000000000000000006044820152606401610179565b60038301548354600185015461059e92859260009289926001600160a01b0316916001600160401b0316906102008c0135906105999087906001600160801b03166110de565b611105565b60048301546000906105c590633b9aca0090600160a01b90046001600160401b0316613b2d565b60048501549091506001600160a01b031633036105f85760048401546105f4906001600160a01b0316826113d9565b5060005b600184015461062390849061061e908490600160801b90046001600160801b0316613aff565b611482565b61062d8486611589565b505050505050565b7fec7e8c1c441439dd40959777f4c577ea0cd42fcc1dbe59d2bd0f5d9c55df8dc754600160881b900460ff1661069c5760405162461bcd60e51b815260206004820152600c60248201526b1b9bdd08185d1d1858da195960a21b6044820152606401610179565b565b7fec7e8c1c441439dd40959777f4c577ea0cd42fcc1dbe59d2bd0f5d9c55df8dc65460008051602061414b8339815191529042600160401b9091046001600160401b031611156107295760405162461bcd60e51b8152602060048201526016602482015275656d657267656e63792070617573652061637469766560501b6044820152606401610179565b50565b60008051602061414b833981519152600061074684610e53565b9050610751816116f7565b61075a81611746565b60006107658261175d565b60108401549091506001600160401b0316156107b45760405162461bcd60e51b815260206004820152600e60248201526d1b5a5b9d1a5b99c81c185d5cd95960921b6044820152606401610179565b600160048084015460ff16908111156107cf576107cf613b44565b1461081c5760405162461bcd60e51b815260206004820152601e60248201527f73656c662d6d696e7420696e76616c6964206167656e742073746174757300006044820152606401610179565b6001600160401b0384166108308284611807565b101561087e5760405162461bcd60e51b815260206004820152601a60248201527f6e6f7420656e6f756768206672656520636f6c6c61746572616c0000000000006044820152606401610179565b7f4f24f5c433db0962dac0d2c8b84197a6e6c7cc4e5d9ebe1916a1b6193da2f347546000906108b6906001600160401b031686613b5a565b90506108c18161185b565b60006108cc8261102c565b60048501549091506000906108f89086906108f3908590600160481b900461ffff166119be565b6110de565b905060008183610907886119cd565b6109119190613aff565b61091b9190613aff565b6006870154909150600160401b9004600f0b61093682611074565b13156109845760405162461bcd60e51b815260206004820181905260248201527f6672656520756e6465726c79696e672062616c616e636520746f20736d616c6c6044820152606401610179565b61099686600260003388600088611105565b505050505050505050565b60008051602061414b83398151915260006109bb84610e53565b90506109c6816116f7565b6109cf81611746565b60006109da8261175d565b90506109e586610efa565b60108301546001600160401b031615610a315760405162461bcd60e51b815260206004820152600e60248201526d1b5a5b9d1a5b99c81c185d5cd95960921b6044820152606401610179565b600160048084015460ff1690811115610a4c57610a4c613b44565b14610a995760405162461bcd60e51b815260206004820152601e60248201527f73656c662d6d696e7420696e76616c6964206167656e742073746174757300006044820152606401610179565b6001600160401b038416610aad8284611807565b1015610afb5760405162461bcd60e51b815260206004820152601a60248201527f6e6f7420656e6f756768206672656520636f6c6c61746572616c0000000000006044820152606401610179565b7f4f24f5c433db0962dac0d2c8b84197a6e6c7cc4e5d9ebe1916a1b6193da2f34754600090610b33906001600160401b031686613b5a565b9050610b3e8161185b565b6000610b498261102c565b6004850154909150600090610b709086906108f3908590600160481b900461ffff166119be565b905067232128293320800960c11b6001600160a01b038916176102408a013514610bdc5760405162461bcd60e51b815260206004820152601b60248201527f696e76616c69642073656c662d6d696e74207265666572656e636500000000006044820152606401610179565b60038501546101808a013514610c345760405162461bcd60e51b815260206004820152601d60248201527f73656c662d6d696e74206e6f74206167656e74277320616464726573730000006044820152606401610179565b610c4161047f8284613aff565b6102008a01351215610c955760405162461bcd60e51b815260206004820152601b60248201527f73656c662d6d696e74207061796d656e7420746f6f20736d616c6c00000000006044820152606401610179565b600a8501546001600160401b0316610cb56101208b016101008c01613b12565b6001600160401b03161015610d0c5760405162461bcd60e51b815260206004820152601960248201527f73656c662d6d696e74207061796d656e7420746f6f206f6c64000000000000006044820152606401610179565b610d19600b87018a611a5e565b6102008901356001600160401b03881615610d4457610d3f866001600033888688611105565b610da6565b610d4e8682611a6c565b6040805160008082526020820181905291810183905260608101919091526001600160a01b038a16907f2b8def7928f95ea587bcff888708376aefe2c32d3671c2846769a692ba59055d906080015b60405180910390a25b50505050505050505050565b600060008051602061414b8339815191526001600160401b03831615801590610df657506001600160401b0380841660009081526006830160205260409020541615155b610e335760405162461bcd60e51b815260206004820152600e60248201526d1a5b9d985b1a590818dc9d081a5960921b6044820152606401610179565b6001600160401b0390921660009081526006909201602052506040902090565b7f5bebac0595fee029d42bb673937f5f1cb81cf8641382bc17774635de9b7d796568010000000000000000600160e01b03604083901b161880600060048084015460ff1690811115610ea757610ea7613b44565b03610ef45760405162461bcd60e51b815260206004820152601b60248201527f696e76616c6964206167656e74207661756c74206164647265737300000000006044820152606401610179565b50919050565b6000610f0e6102a083016102808401613b96565b60ff1614610f4f5760405162461bcd60e51b815260206004820152600e60248201526d1c185e5b595b9d0819985a5b195960921b6044820152606401610179565b61072981611b1e565b60018201546000906001600160a01b0390811690831681148061102257507f4f24f5c433db0962dac0d2c8b84197a6e6c7cc4e5d9ebe1916a1b6193da2f341546001600160a01b0316604051631f86345d60e31b81526001600160a01b038381166004830152919091169063fc31a2e890602401602060405180830381865afa158015610fe9573d6000803e3d6000fd5b505050506040513d601f19601f8201168201806040525081019061100d9190613bb1565b6001600160a01b0316836001600160a01b0316145b9150505b92915050565b60008051602061416b8339815191525460009060008051602061412b8339815191529061106d90600160901b90046001600160401b03908116908516613b2d565b9392505050565b60006001600160ff1b038211156101f05760405162461bcd60e51b815260206004820152602860248201527f53616665436173743a2076616c756520646f65736e27742066697420696e2061604482015267371034b73a191a9b60c11b6064820152608401610179565b600482015460009061106d90611100908490600160581b900461ffff166119be565b611ce6565b600061111082611d2d565b9050611125886111208387613bce565b611d73565b61112f8884611a6c565b600061113a8561102c565b905061116d7f4f24f5c433db0962dac0d2c8b84197a6e6c7cc4e5d9ebe1916a1b6193da2f33b546001600160a01b031690565b6040516340c10f1960e01b81526001600160a01b0388811660048301526024820184905291909116906340c10f1990604401600060405180830381600087803b1580156111b957600080fd5b505af11580156111cd573d6000803e3d6000fd5b505050506112027f4f24f5c433db0962dac0d2c8b84197a6e6c7cc4e5d9ebe1916a1b6193da2f33b546001600160a01b031690565b89546040516340c10f1960e01b81526001600160a01b039182166004820152602481018690529116906340c10f1990604401600060405180830381600087803b15801561124e57600080fd5b505af1158015611262573d6000803e3d6000fd5b50508a5460405163542a535160e11b8152600481018790526001600160a01b03909116925063a854a6a29150602401600060405180830381600087803b1580156112ab57600080fd5b505af11580156112bf573d6000803e3d6000fd5b50600092506112cc915050565b8860028111156112de576112de613b44565b03611363576000836112f08387613bf5565b6112fa9190613bf5565b9050876001600160401b031661130f8b611dfa565b60408051858152602081018590529081018790526001600160a01b0391909116907f0d418f2ae12260f9d0ceacf72b08fcc4b05560719443f40d3761ee90da0d8fa59060600160405180910390a350610996565b6000600289600281111561137957611379613b44565b1490506113858a611dfa565b60408051831515815260208101859052908101879052606081018690526001600160a01b0391909116907f2b8def7928f95ea587bcff888708376aefe2c32d3671c2846769a692ba59055d90608001610d9d565b6113e1611e22565b80156100c4576000826001600160a01b031682620186a090604051600060405180830381858888f193505050503d806000811461143a576040519150601f19603f3d011682016040523d82523d6000602084013e61143f565b606091505b50509050806101055760405162461bcd60e51b815260206004820152600f60248201526e1d1c985b9cd9995c8819985a5b1959608a1b6044820152606401610179565b60048201546000906114a0908390600160581b900461ffff166119be565b8354604080516368dc448760e11b815290519293506001600160a01b039091169163d1b8890e918491600480830192600092919082900301818588803b1580156114e957600080fd5b505af11580156114fd573d6000803e3d6000fd5b505050505061150b83611dfa565b6001600160a01b031663677fa2326115238385613bf5565b61152b611e93565b6040516001600160e01b031960e085901b1681526001600160a01b0390911660048201526024016000604051808303818588803b15801561156b57600080fd5b505af115801561157f573d6000803e3d6000fd5b5050505050505050565b600282015460008051602061414b833981519152906000906115b3906001600160a01b0316610e53565b845460018601549192506000916115e09184916001600160401b03909116906001600160801b0316611f00565b600583015460408051808201909152601381527234b73b30b634b2103932b9b2b93b30ba34b7b760691b6020820152919250611629916001600160401b03909116908390611f3e565b60058301805467ffffffffffffffff19166001600160401b03928316179055600e840180548392601891611666918591600160c01b900416613c08565b82546101009290920a6001600160401b03818102199093169183160217909155949094166000908152600693840160205260408120818155600181018290556002810180546001600160a01b031990811690915560038201805490911690556004810180546001600160e01b031916905560058101805467ffffffffffffffff191690559093019290925550505050565b6117018133610f58565b6107295760405162461bcd60e51b815260206004820152601660248201527537b7363c9030b3b2b73a103b30bab63a1037bbb732b960511b6044820152606401610179565b6001810154610729906001600160a01b0316611f89565b6117c86040805160c081019091526000606082018181526080830182905260a083019190915281908152604080516060810182526000808252602082810182905292820152910190815260408051606081018252600080825260208281018290529282015291015290565b60006117d383612064565b905060405180606001604052806117e98561212a565b81526020018281526020016117fe85846121b7565b90529392505050565b600080611818846000015184612383565b9050600061182a856020015185612383565b9050600061183c866040015186612383565b90506118518361184c84846123b9565b6123b9565b9695505050505050565b7f4f24f5c433db0962dac0d2c8b84197a6e6c7cc4e5d9ebe1916a1b6193da2f3475460008051602061414b8339815191529060008051602061412b83398151915290600160581b90046001600160401b031660008190036118bc5750505050565b6001820154604080516318160ddd60e01b815290516000926001600160a01b0316916318160ddd9160048083019260209291908290030181865afa158015611908573d6000803e3d6000fd5b505050506040513d601f19601f8201168201806040525081019061192c9190613c28565b9050600061193982611d2d565b600e8601546119589190600160c01b90046001600160401b0316613bce565b6001600160401b0316905082866001600160401b0316826119799190613aff565b111561062d5760405162461bcd60e51b81526020600482015260146024820152731b5a5b9d1a5b99c818d85c08195e18d95959195960621b6044820152606401610179565b600061106d83836127106123cf565b60008051602061416b83398151915254600582015460009160008051602061412b833981519152918391600160901b90046001600160401b0390811691611a2591600160801b8204811691600160401b900416613bce565b6001600160401b0316611a389190613b2d565b600d830154909150611a56908290600160401b900461ffff166119be565b949350505050565b6100c48260a08301356124f5565b611a7d611a7882611074565b6125be565b600683018054600890611a9b908490600160401b9004600f0b613c41565b92506101000a8154816001600160801b030219169083600f0b6001600160801b03160217905550611acb82611dfa565b6006830154604051600160401b909104600f0b81526001600160a01b0391909116907f73da6891cb86668451f612d2555e88650888a0133a30b1d226b2d1f955e62bca9060200160405180910390a25050565b7f4f24f5c433db0962dac0d2c8b84197a6e6c7cc4e5d9ebe1916a1b6193da2f342547f4f24f5c433db0962dac0d2c8b84197a6e6c7cc4e5d9ebe1916a1b6193da2f3455460008051602061412b833981519152916001600160a01b031690604084013514611bbe5760405162461bcd60e51b815260206004820152600d60248201526c34b73b30b634b21031b430b4b760991b6044820152606401610179565b60405163a7a3797560e01b81526001600160a01b0382169063a7a3797590611bea908690600401613dc3565b602060405180830381865afa158015611c07573d6000803e3d6000fd5b505050506040513d601f19601f82011682018060405250810190611c2b9190613e56565b611c775760405162461bcd60e51b815260206004820152601860248201527f6c6567616c207061796d656e74206e6f742070726f76656400000000000000006044820152606401610179565b611c9a611c8c61014085016101208601613b12565b6001600160401b03166125e7565b6101055760405162461bcd60e51b815260206004820152601c60248201527f7665726966696564207472616e73616374696f6e20746f6f206f6c64000000006044820152606401610179565b60008051602061416b8339815191525460009060008051602061412b83398151915290611d2390600160901b90046001600160401b031684613e89565b61106d9084613bf5565b60008051602061416b8339815191525460009060008051602061412b8339815191529061106d90611d6e90600160901b90046001600160401b031685613e9d565b610188565b600682015460008051602061412b83398151915290600090611d9f9084906001600160401b0316613bce565b600d830154909150600090611dbd906001600160401b031683613eb1565b90506000611dcb8284613c08565b9050611dd7868661260a565b6001600160401b03811615611df057611df08682612678565b61062d8683612805565b7f5bebac0595fee029d42bb673937f5f1cb81cf8641382bc17774635de9b7d79651860401c90565b7f0cd2207518cd3e5213e2c6dbe63d55b60aa893c194a427b7d7f1600408fd5bde5460021461069c5760405162461bcd60e51b815260206004820152601f60248201527f5265656e7472616e637947756172643a206775617264207265717569726564006044820152606401610179565b7fec7e8c1c441439dd40959777f4c577ea0cd42fcc1dbe59d2bd0f5d9c55df8dc55460008051602061414b8339815191528054600092829161ffff909116908110611ee057611ee0613ed7565b60009182526020909120600490910201546001600160a01b031692915050565b60048301546000908190611f20908490600160581b900461ffff166119be565b9050611f2b81611d2d565b611f359085613bce565b95945050505050565b6000826001600160401b0316846001600160401b031610158290611f755760405162461bcd60e51b81526004016101799190613eed565b5050506001600160401b0390811691160390565b7f4f24f5c433db0962dac0d2c8b84197a6e6c7cc4e5d9ebe1916a1b6193da2f341546001600160a01b0316604051633af32abf60e01b81526001600160a01b0383811660048301529190911690633af32abf90602401602060405180830381865afa158015611ffc573d6000803e3d6000fd5b505050506040513d601f19601f820116820180604052508101906120209190613e56565b6107295760405162461bcd60e51b81526020600482015260156024820152741859d95b9d081b9bdd081dda1a5d195b1a5cdd1959605a1b6044820152606401610179565b6120896040805160608101909152806000815260200160008152602001600081525090565b60006120948361289b565b60408051606081019091529091508060018152825485546040516370a0823160e01b81526001600160a01b0391821660048201526020909301929116906370a08231906024015b602060405180830381865afa1580156120f8573d6000803e3d6000fd5b505050506040513d601f19601f8201168201806040525081019061211c9190613c28565b81526020016117fe836128ea565b61214f6040805160608101909152806000815260200160008152602001600081525090565b600061215a83612900565b60408051606081019091526000815281549192509060208201906001600160a01b03166370a0823161218b87611dfa565b6040516001600160e01b031960e084901b1681526001600160a01b0390911660048201526024016120db565b6121dc6040805160608101909152806000815260200160008152602001600081525090565b8254604080516332f7ce0b60e21b815290516000926001600160a01b03169163cbdf382c9160048083019260209291908290030181865afa158015612225573d6000803e3d6000fd5b505050506040513d601f19601f820116820180604052508101906122499190613bb1565b90506000816001600160a01b03166370a0823161226587611dfa565b6040516001600160e01b031960e084901b1681526001600160a01b039091166004820152602401602060405180830381865afa1580156122a9573d6000803e3d6000fd5b505050506040513d601f19601f820116820180604052508101906122cd9190613c28565b90506000826001600160a01b03166318160ddd6040518163ffffffff1660e01b8152600401602060405180830381865afa15801561230f573d6000803e3d6000fd5b505050506040513d601f19601f820116820180604052508101906123339190613c28565b90506000856020015160000361234a57600061235f565b6020860151604087015161235f9184906123cf565b60408051606081018252600281526020810195909552840152509095945050505050565b6000806123908484612937565b9050600061239e8585612954565b9050806000036123af576000611f35565b611f358183613e9d565b60008183106123c8578161106d565b5090919050565b60008082116124135760405162461bcd60e51b815260206004820152601060248201526f4469766973696f6e206279207a65726f60801b6044820152606401610179565b836000036124235750600061106d565b8383028385828161243657612436613e73565b04036124545782818161244b5761244b613e73565b0491505061106d565b5060006124618386613e9d565b9050600061246f8487613e89565b9050600061247d8587613e9d565b9050600061248b8688613e89565b9050856124988285613b2d565b6124a29190613e9d565b6124ac8385613b2d565b6124b68387613b2d565b886124c18689613b2d565b6124cb9190613b2d565b6124d59190613aff565b6124df9190613aff565b6124e99190613aff565b98975050505050505050565b600081815260208390526040902054156125515760405162461bcd60e51b815260206004820152601960248201527f7061796d656e7420616c726561647920636f6e6669726d6564000000000000006044820152606401610179565b60006125606201518042613e9d565b60008181526001850160205260408120549192508190036125815782612583565b805b60008481526020868152604080832093909355848252600187019052908120849055600285015490036125b857600284018290555b50505050565b80600f81900b81146125e25760405162461bcd60e51b815260040161017990613f3c565b919050565b60006125f7600e62015180613b2d565b6126019042613bf5565b90911015919050565b600582015461262a908290600160401b90046001600160401b0316613bce565b8260050160086101000a8154816001600160401b0302191690836001600160401b031602179055506100c461265e83611dfa565b6005840154600160401b90046001600160401b03166129a7565b60008051602061414b833981519152600061269284611dfa565b6009830154600160401b90046001600160401b031660008181526007850160205260409020805492935090916001600160a01b0380851691160361278f578054859082906014906126f4908490600160a01b90046001600160401b0316613bce565b92506101000a8154816001600160401b0302191690836001600160401b03160217905550600061273a8260000160149054906101000a90046001600160401b031661102c565b9050826001600160401b0316846001600160a01b03167f9d2e72c50be7927e999d37329649af37a863df77bcb25361699ce021d3d7475d8360405161278191815260200190565b60405180910390a35061062d565b600061279f6007860185886129f3565b905060006127ac8761102c565b9050816001600160401b0316856001600160a01b03167f631f8f2039090539b2ea4ef7dc567f7f1939ef4dd3e790b1ca7bc548a1fada58836040516127f391815260200190565b60405180910390a35050505050505050565b60068201546001600160401b03808316911603612820575050565b60068201805467ffffffffffffffff19166001600160401b03831617905560006128498261102c565b905061285483611dfa565b6001600160a01b03167fa3db2bc927901a1d3ba09ad51d84609457b98443be9132a0a936a47c5a1081b58260405161288e91815260200190565b60405180910390a2505050565b60008060008051602061414b833981519152600484015481549192508291630100000090910461ffff169081106128d4576128d4613ed7565b9060005260206000209060040201915050919050565b60006128f7826000612dfc565b50909392505050565b60008060008051602061414b83398151915260048401548154919250829161010090910461ffff169081106128d4576128d4613ed7565b6000806129448484612fbb565b90506110228460200151826130e5565b60008060008051602061412b833981519152905060006129788486600001516130ff565b50600d8301546040870151919250611f359183916129a1916001600160401b0390911690613206565b906119be565b7f341c6685fdb8ed7133465b64f545b9fbc5699a59cbd1ad98992e5c070a74c5106101057f341c6685fdb8ed7133465b64f545b9fbc5699a59cbd1ad98992e5c070a74c5118484613220565b6001600160a01b03821660009081526001840160205260408120600285018054839190601090612a3290600160801b90046001600160401b0316613f83565b91906101000a8154816001600160401b0302191690836001600160401b03160217905590506040518060c00160405280866001600160a01b03168152602001856001600160401b031681526020018760020160089054906101000a90046001600160401b03166001600160401b0316815260200160006001600160401b031681526020018360000160089054906101000a90046001600160401b03166001600160401b0316815260200160006001600160401b0316815250866000016000836001600160401b03166001600160401b0316815260200190815260200160002060008201518160000160006101000a8154816001600160a01b0302191690836001600160a01b0316021790555060208201518160000160146101000a8154816001600160401b0302191690836001600160401b0316021790555060408201518160010160006101000a8154816001600160401b0302191690836001600160401b0316021790555060608201518160010160086101000a8154816001600160401b0302191690836001600160401b0316021790555060808201518160010160106101000a8154816001600160401b0302191690836001600160401b0316021790555060a08201518160010160186101000a8154816001600160401b0302191690836001600160401b031602179055509050508560020160009054906101000a90046001600160401b03166001600160401b0316600003612c8f576002860154600160401b90046001600160401b031615612c6c57612c6c613fa9565b60028601805467ffffffffffffffff19166001600160401b038316179055612cf7565b6002860154600160401b90046001600160401b0316600003612cb357612cb3613fa9565b6002860154600160401b908190046001600160401b039081166000908152602089905260409020600101805467ffffffffffffffff60401b19169184169092021790555b6002860180546001600160401b03808416600160401b0267ffffffffffffffff60401b1990921691909117909155825416600003612d6d578154600160401b90046001600160401b031615612d4e57612d4e613fa9565b815467ffffffffffffffff19166001600160401b038216178255612dd0565b8154600160401b90046001600160401b0316600003612d8e57612d8e613fa9565b81546001600160401b03600160401b909104811660009081526020889052604090206001018054918316600160c01b026001600160c01b039092169190911790555b815467ffffffffffffffff60401b1916600160401b6001600160401b0383160217909155949350505050565b600080600080600080612e9b886001018054612e1790613fbf565b80601f0160208091040260200160405190810160405280929190818152602001828054612e4390613fbf565b8015612e905780601f10612e6557610100808354040283529160200191612e90565b820191906000526020600020905b815481529060010190602001808311612e7357829003601f168201915b505050505088613289565b8a549295509093509150600160f01b900460ff1615612ee2578754600090612ed190600160a81b900460ff166001838786613377565b9650919450849350612fb492505050565b6000806000612f7d8b6002018054612ef990613fbf565b80601f0160208091040260200160405190810160405280929190818152602001828054612f2590613fbf565b8015612f725780601f10612f4757610100808354040283529160200191612f72565b820191906000526020600020905b815481529060010190602001808311612f5557829003601f168201915b50505050508b613289565b8d549295509093509150600090612fa190600160a81b900460ff1685848a89613377565b9950949750909550612fb4945050505050565b9250925092565b6000806000612fce8486600001516130ff565b60058601549193509150600090612ff7906001600160401b03600160401b820481169116613aff565b9050600061300d846129a1848a60400151613206565b9050600060018851600281111561302657613026613b44565b14613045576005870154600160801b90046001600160401b031661305b565b6005870154600160c01b90046001600160401b03165b9050600061307a856129a1846001600160401b03168c60400151613206565b9050600060018a51600281111561309357613093613b44565b0361309f5760006130b7565b89516130ac908a906133fe565b546001600160801b03165b6001600160801b03169050806130cd8386613aff565b6130d79190613aff565b9a9950505050505050505050565b60008183116130f557600061106d565b61106d8284613bf5565b600080600283600281111561311657613116613b44565b0361317e576000806131298660016130ff565b91509150600061314460008051602061412b83398151915290565b600c015463ffffffff6401000000009091048116915061316890829084906119be16565b935061317481846119be565b94505050506131ff565b600183600281111561319257613192613b44565b036131cd576131a08461289b565b60030154600485015463ffffffff91821692506131c691600160881b909104168261344b565b91506131ff565b6131d684612900565b60030154600485015463ffffffff91821692506131fc91600160681b909104168261344b565b91505b9250929050565b600061106d826132186009600a6140d7565b8591906123cf565b6001600160a01b03821660009081526004840160205260408120906132448261345a565b905060006132518661345a565b905061325e8342866134f5565b61327f428361326d8785613bce565b6132779190613c08565b8891906134f5565b61062d8684613866565b7f4f24f5c433db0962dac0d2c8b84197a6e6c7cc4e5d9ebe1916a1b6193da2f344546000908190819060008051602061412b833981519152906001600160a01b0316851561334b5760405163e4a0a55b60e01b81526001600160a01b0382169063e4a0a55b906132fd908a90600401613eed565b606060405180830381865afa15801561331a573d6000803e3d6000fd5b505050506040513d601f19601f8201168201806040525081019061333e91906140e3565b9450945094505050612fb4565b60405163524f388960e01b81526001600160a01b0382169063524f3889906132fd908a90600401613eed565b600060008051602061412b833981519152816009613395878a613aff565b61339f9190613aff565b600a8301549091506000906133bf908690600160a81b900460ff16613aff565b9050808210156133d1576133d1613fa9565b6133f16133de8284613bf5565b6133e990600a6140d7565b87908a6123cf565b9998505050505050505050565b6000600182600281111561341457613414613b44565b0361342157613421613fa9565b600082600281111561343557613435613b44565b14613443578260090161106d565b505060080190565b60008183116123c8578161106d565b6001810154600090600160401b90046001600160401b0316810361348057506000919050565b60018201546001600160401b03808216600160401b90920416116134a6576134a6613fa9565b60018281015483916000916134cb9190600160401b90046001600160401b0316613c08565b6001600160401b039081168252602082019290925260400160002054600160c01b90041692915050565b6001830154600160401b90046001600160401b03166000036136145760018301546001600160401b03161561352c5761352c613fa9565b604051806060016040528060006001600160801b0316815260200161355084610188565b6001600160401b0390811682528381166020909201919091526001850180548692600092600160401b9092041690600861358983613f83565b82546001600160401b039182166101009390930a92830292820219169190911790915590811682526020808301939093526040918201600020845181549486015195909301518216600160c01b026001600160c01b0395909216600160801b026001600160c01b03199094166001600160801b03909316929092179290921792909216179055505050565b60018301546001600160401b03808216600160401b909204161161363a5761363a613fa9565b6001838101546000918591839161366091600160401b90046001600160401b0316613c08565b6001600160401b03908116825260208201929092526040016000208054909250600160801b9004168390036136b25780546001600160c01b0316600160c01b6001600160401b038416021781556125b8565b8054600160801b90046001600160401b031683116137235760405162461bcd60e51b815260206004820152602860248201527f54696d6543756d756c61746976653a2074696d657374616d70206e6f7420696e6044820152676372656173696e6760c01b6064820152608401610179565b805460009061374290600160801b90046001600160401b031685613bf5565b825461375e9190600160c01b90046001600160401b0316613b2d565b825461377391906001600160801b0316613aff565b90506040518060600160405280613789836138a3565b6001600160801b031681526020016137a086610188565b6001600160401b0390811682528581166020909201919091526001870180548892600092600160401b909204169060086137d983613f83565b82546001600160401b039182166101009390930a92830292820219169190911790915590811682526020808301939093526040918201600020845181549486015195909301518216600160c01b026001600160c01b0395909216600160801b026001600160c01b03199094166001600160801b039093169290921792909217929092161790555050505050565b6003820154600090613889908490600160c01b90046001600160401b03166138cc565b905061389782826002613907565b61010583826002613907565b60006001600160801b038211156101f05760405162461bcd60e51b815260040161017990613f3c565b60038201546000906138ef908390600160401b90046001600160401b0316613b2d565b600384015461106d91906001600160401b0316613aff565b60018301546001600160401b0380821691600160401b90041660005b838110801561393b575081613939846001613aff565b105b8015613974575084866000613951866001613aff565b8152602081019190915260400160002054600160801b90046001600160401b0316105b156139a35760008381526020879052604081205561399183614111565b925061399c81614111565b9050613923565b6139ac83610188565b600196909601805467ffffffffffffffff19166001600160401b03909716969096179095555050505050565b60006102a08284031215610ef457600080fd5b600080604083850312156139fe57600080fd5b82356001600160401b03811115613a1457600080fd5b613a20858286016139d8565b95602094909401359450505050565b6001600160a01b038116811461072957600080fd5b80356001600160401b03811681146125e257600080fd5b60008060408385031215613a6e57600080fd5b8235613a7981613a2f565b9150613a8760208401613a44565b90509250929050565b600080600060608486031215613aa557600080fd5b83356001600160401b03811115613abb57600080fd5b613ac7868287016139d8565b9350506020840135613ad881613a2f565b929592945050506040919091013590565b634e487b7160e01b600052601160045260246000fd5b8082018082111561102657611026613ae9565b600060208284031215613b2457600080fd5b61106d82613a44565b808202811582820484141761102657611026613ae9565b634e487b7160e01b600052602160045260246000fd5b6001600160401b03818116838216028082169190828114613b7d57613b7d613ae9565b505092915050565b803560ff811681146125e257600080fd5b600060208284031215613ba857600080fd5b61106d82613b85565b600060208284031215613bc357600080fd5b815161106d81613a2f565b6001600160401b03818116838216019080821115613bee57613bee613ae9565b5092915050565b8181038181111561102657611026613ae9565b6001600160401b03828116828216039080821115613bee57613bee613ae9565b600060208284031215613c3a57600080fd5b5051919050565b600f81810b9083900b016f7fffffffffffffffffffffffffffffff81136f7fffffffffffffffffffffffffffffff198212171561102657611026613ae9565b801515811461072957600080fd5b80356125e281613c80565b8035825260208101356020830152613cb360408201613a44565b6001600160401b03808216604085015280613cd060608501613a44565b16606085015250506080810135608083015260a081013560a083015260c081013560c0830152613d1660e08301613d0960e08401613a44565b6001600160401b03169052565b610100613d24818301613a44565b6001600160401b03169083015261012081810135908301526101408082013590830152610160808201359083015261018080820135908301526101a080820135908301526101c080820135908301526101e0808201359083015261020080820135908301526102208082013590830152610240613da2818301613c8e565b151590830152610260613db6828201613b85565b60ff8116848301526125b8565b6020815260008235601e19843603018112613ddd57600080fd5b83016020810190356001600160401b03811115613df957600080fd5b8060051b803603831315613e0c57600080fd5b6102a060208601526102c085018290526102e06001600160fb1b03831115613e3357600080fd5b818482880137613e496040870160208901613c99565b9401909301949350505050565b600060208284031215613e6857600080fd5b815161106d81613c80565b634e487b7160e01b600052601260045260246000fd5b600082613e9857613e98613e73565b500690565b600082613eac57613eac613e73565b500490565b60006001600160401b0380841680613ecb57613ecb613e73565b92169190910692915050565b634e487b7160e01b600052603260045260246000fd5b60006020808352835180602085015260005b81811015613f1b57858101830151858201604001528201613eff565b506000604082860101526040601f19601f8301168501019250505092915050565b60208082526027908201527f53616665436173743a2076616c756520646f65736e27742066697420696e20316040820152663238206269747360c81b606082015260800190565b60006001600160401b03808316818103613f9f57613f9f613ae9565b6001019392505050565b634e487b7160e01b600052600160045260246000fd5b600181811c90821680613fd357607f821691505b602082108103610ef457634e487b7160e01b600052602260045260246000fd5b600181815b8085111561402e57816000190482111561401457614014613ae9565b8085161561402157918102915b93841c9390800290613ff8565b509250929050565b60008261404557506001611026565b8161405257506000611026565b816001811461406857600281146140725761408e565b6001915050611026565b60ff84111561408357614083613ae9565b50506001821b611026565b5060208310610133831016604e8410600b84101617156140b1575081810a611026565b6140bb8383613ff3565b80600019048211156140cf576140cf613ae9565b029392505050565b600061106d8383614036565b6000806000606084860312156140f857600080fd5b8351925060208401519150604084015190509250925092565b60006001820161412357614123613ae9565b506001019056fe4f24f5c433db0962dac0d2c8b84197a6e6c7cc4e5d9ebe1916a1b6193da2f33aec7e8c1c441439dd40959777f4c577ea0cd42fcc1dbe59d2bd0f5d9c55df8db64f24f5c433db0962dac0d2c8b84197a6e6c7cc4e5d9ebe1916a1b6193da2f346a2646970667358221220c2a4db3e861e4b2c7e93465063e52cfec47fc97c1d5828f3cbfaf4108b4dc46264736f6c63430008170033",
  "linkReferences": {},
  "deployedLinkReferences": {}
}