{
  "_format": "hh-sol-artifact-1",
  "contractName": "MintingFacet",
  "sourceName": "contracts/assetManager/facets/MintingFacet.sol",
  "abi": [
    {
      "anonymous": false,
      "inputs": [
        {
          "indexed": true,
          "internalType": "address",
          "name": "agentVault",
          "type": "address"
        },
        {
          "indexed": true,
          "internalType": "address",
          "name": "minter",
          "type": "address"
        },
        {
          "indexed": true,
          "internalType": "uint256",
          "name": "collateralReservationId",
          "type": "uint256"
        },
        {
          "indexed": false,
          "internalType": "uint256",
          "name": "reservedAmountUBA",
          "type": "uint256"
        }
      ],
      "name": "CollateralReservationDeleted",
      "type": "event"
    },
    {
      "anonymous": false,
      "inputs": [
        {
          "indexed": true,
          "internalType": "address",
          "name": "agentVault",
          "type": "address"
        },
        {
          "indexed": true,
          "internalType": "address",
          "name": "minter",
          "type": "address"
        },
        {
          "indexed": true,
          "internalType": "uint256",
          "name": "collateralReservationId",
          "type": "uint256"
        },
        {
          "indexed": false,
          "internalType": "uint256",
          "name": "valueUBA",
          "type": "uint256"
        },
        {
          "indexed": false,
          "internalType": "uint256",
          "name": "feeUBA",
          "type": "uint256"
        },
        {
          "indexed": false,
          "internalType": "uint256",
          "name": "firstUnderlyingBlock",
          "type": "uint256"
        },
        {
          "indexed": false,
          "internalType": "uint256",
          "name": "lastUnderlyingBlock",
          "type": "uint256"
        },
        {
          "indexed": false,
          "internalType": "uint256",
          "name": "lastUnderlyingTimestamp",
          "type": "uint256"
        },
        {
          "indexed": false,
          "internalType": "string",
          "name": "paymentAddress",
          "type": "string"
        },
        {
          "indexed": false,
          "internalType": "bytes32",
          "name": "paymentReference",
          "type": "bytes32"
        },
        {
          "indexed": false,
          "internalType": "address",
          "name": "executor",
          "type": "address"
        },
        {
          "indexed": false,
          "internalType": "uint256",
          "name": "executorFeeNatWei",
          "type": "uint256"
        }
      ],
      "name": "CollateralReserved",
      "type": "event"
    },
    {
      "anonymous": false,
      "inputs": [
        {
          "indexed": true,
          "internalType": "address",
          "name": "agentVault",
          "type": "address"
        },
        {
          "indexed": false,
          "internalType": "uint256",
          "name": "dustUBA",
          "type": "uint256"
        }
      ],
      "name": "DustChanged",
      "type": "event"
    },
    {
      "anonymous": false,
      "inputs": [
        {
          "indexed": true,
          "internalType": "address",
          "name": "agentVault",
          "type": "address"
        },
        {
          "indexed": true,
          "internalType": "uint256",
          "name": "collateralReservationId",
          "type": "uint256"
        },
        {
          "indexed": false,
          "internalType": "uint256",
          "name": "mintedAmountUBA",
          "type": "uint256"
        },
        {
          "indexed": false,
          "internalType": "uint256",
          "name": "agentFeeUBA",
          "type": "uint256"
        },
        {
          "indexed": false,
          "internalType": "uint256",
          "name": "poolFeeUBA",
          "type": "uint256"
        }
      ],
      "name": "MintingExecuted",
      "type": "event"
    },
    {
      "anonymous": false,
      "inputs": [
        {
          "indexed": true,
          "internalType": "address",
          "name": "agentVault",
          "type": "address"
        },
        {
          "indexed": true,
          "internalType": "address",
          "name": "minter",
          "type": "address"
        },
        {
          "indexed": true,
          "internalType": "uint256",
          "name": "collateralReservationId",
          "type": "uint256"
        },
        {
          "indexed": false,
          "internalType": "uint256",
          "name": "reservedAmountUBA",
          "type": "uint256"
        }
      ],
      "name": "MintingPaymentDefault",
      "type": "event"
    },
    {
      "anonymous": false,
      "inputs": [
        {
          "indexed": true,
          "internalType": "address",
          "name": "agentVault",
          "type": "address"
        },
        {
          "indexed": true,
          "internalType": "uint256",
          "name": "redemptionTicketId",
          "type": "uint256"
        },
        {
          "indexed": false,
          "internalType": "uint256",
          "name": "ticketValueUBA",
          "type": "uint256"
        }
      ],
      "name": "RedemptionTicketCreated",
      "type": "event"
    },
    {
      "anonymous": false,
      "inputs": [
        {
          "indexed": true,
          "internalType": "address",
          "name": "agentVault",
          "type": "address"
        },
        {
          "indexed": false,
          "internalType": "int256",
          "name": "underlyingBalanceUBA",
          "type": "int256"
        }
      ],
      "name": "UnderlyingBalanceChanged",
      "type": "event"
    },
    {
      "inputs": [
        {
          "internalType": "uint256",
          "name": "_lots",
          "type": "uint256"
        }
      ],
      "name": "collateralReservationFee",
      "outputs": [
        {
          "internalType": "uint256",
          "name": "_reservationFeeNATWei",
          "type": "uint256"
        }
      ],
      "stateMutability": "view",
      "type": "function"
    },
    {
      "inputs": [
        {
          "components": [
            {
              "internalType": "bytes32[]",
              "name": "merkleProof",
              "type": "bytes32[]"
            },
            {
              "components": [
                {
                  "internalType": "bytes32",
                  "name": "attestationType",
                  "type": "bytes32"
                },
                {
                  "internalType": "bytes32",
                  "name": "sourceId",
                  "type": "bytes32"
                },
                {
                  "internalType": "uint64",
                  "name": "votingRound",
                  "type": "uint64"
                },
                {
                  "internalType": "uint64",
                  "name": "lowestUsedTimestamp",
                  "type": "uint64"
                },
                {
                  "components": [
                    {
                      "internalType": "bytes32",
                      "name": "transactionId",
                      "type": "bytes32"
                    },
                    {
                      "internalType": "uint256",
                      "name": "inUtxo",
                      "type": "uint256"
                    },
                    {
                      "internalType": "uint256",
                      "name": "utxo",
                      "type": "uint256"
                    }
                  ],
                  "internalType": "struct Payment.RequestBody",
                  "name": "requestBody",
                  "type": "tuple"
                },
                {
                  "components": [
                    {
                      "internalType": "uint64",
                      "name": "blockNumber",
                      "type": "uint64"
                    },
                    {
                      "internalType": "uint64",
                      "name": "blockTimestamp",
                      "type": "uint64"
                    },
                    {
                      "internalType": "bytes32",
                      "name": "sourceAddressHash",
                      "type": "bytes32"
                    },
                    {
                      "internalType": "bytes32",
                      "name": "receivingAddressHash",
                      "type": "bytes32"
                    },
                    {
                      "internalType": "bytes32",
                      "name": "intendedReceivingAddressHash",
                      "type": "bytes32"
                    },
                    {
                      "internalType": "int256",
                      "name": "spentAmount",
                      "type": "int256"
                    },
                    {
                      "internalType": "int256",
                      "name": "intendedSpentAmount",
                      "type": "int256"
                    },
                    {
                      "internalType": "int256",
                      "name": "receivedAmount",
                      "type": "int256"
                    },
                    {
                      "internalType": "int256",
                      "name": "intendedReceivedAmount",
                      "type": "int256"
                    },
                    {
                      "internalType": "bytes32",
                      "name": "standardPaymentReference",
                      "type": "bytes32"
                    },
                    {
                      "internalType": "bool",
                      "name": "oneToOne",
                      "type": "bool"
                    },
                    {
                      "internalType": "uint8",
                      "name": "status",
                      "type": "uint8"
                    }
                  ],
                  "internalType": "struct Payment.ResponseBody",
                  "name": "responseBody",
                  "type": "tuple"
                }
              ],
              "internalType": "struct Payment.Response",
              "name": "data",
              "type": "tuple"
            }
          ],
          "internalType": "struct Payment.Proof",
          "name": "_payment",
          "type": "tuple"
        },
        {
          "internalType": "uint256",
          "name": "_collateralReservationId",
          "type": "uint256"
        }
      ],
      "name": "executeMinting",
      "outputs": [],
      "stateMutability": "nonpayable",
      "type": "function"
    },
    {
      "inputs": [
        {
          "components": [
            {
              "internalType": "bytes32[]",
              "name": "merkleProof",
              "type": "bytes32[]"
            },
            {
              "components": [
                {
                  "internalType": "bytes32",
                  "name": "attestationType",
                  "type": "bytes32"
                },
                {
                  "internalType": "bytes32",
                  "name": "sourceId",
                  "type": "bytes32"
                },
                {
                  "internalType": "uint64",
                  "name": "votingRound",
                  "type": "uint64"
                },
                {
                  "internalType": "uint64",
                  "name": "lowestUsedTimestamp",
                  "type": "uint64"
                },
                {
                  "components": [
                    {
                      "internalType": "uint64",
                      "name": "minimalBlockNumber",
                      "type": "uint64"
                    },
                    {
                      "internalType": "uint64",
                      "name": "deadlineBlockNumber",
                      "type": "uint64"
                    },
                    {
                      "internalType": "uint64",
                      "name": "deadlineTimestamp",
                      "type": "uint64"
                    },
                    {
                      "internalType": "bytes32",
                      "name": "destinationAddressHash",
                      "type": "bytes32"
                    },
                    {
                      "internalType": "uint256",
                      "name": "amount",
                      "type": "uint256"
                    },
                    {
                      "internalType": "bytes32",
                      "name": "standardPaymentReference",
                      "type": "bytes32"
                    }
                  ],
                  "internalType": "struct ReferencedPaymentNonexistence.RequestBody",
                  "name": "requestBody",
                  "type": "tuple"
                },
                {
                  "components": [
                    {
                      "internalType": "uint64",
                      "name": "minimalBlockTimestamp",
                      "type": "uint64"
                    },
                    {
                      "internalType": "uint64",
                      "name": "firstOverflowBlockNumber",
                      "type": "uint64"
                    },
                    {
                      "internalType": "uint64",
                      "name": "firstOverflowBlockTimestamp",
                      "type": "uint64"
                    }
                  ],
                  "internalType": "struct ReferencedPaymentNonexistence.ResponseBody",
                  "name": "responseBody",
                  "type": "tuple"
                }
              ],
              "internalType": "struct ReferencedPaymentNonexistence.Response",
              "name": "data",
              "type": "tuple"
            }
          ],
          "internalType": "struct ReferencedPaymentNonexistence.Proof",
          "name": "_proof",
          "type": "tuple"
        },
        {
          "internalType": "uint256",
          "name": "_collateralReservationId",
          "type": "uint256"
        }
      ],
      "name": "mintingPaymentDefault",
      "outputs": [],
      "stateMutability": "nonpayable",
      "type": "function"
    },
    {
      "inputs": [
        {
          "internalType": "address",
          "name": "_agentVault",
          "type": "address"
        },
        {
          "internalType": "uint256",
          "name": "_lots",
          "type": "uint256"
        },
        {
          "internalType": "uint256",
          "name": "_maxMintingFeeBIPS",
          "type": "uint256"
        },
        {
          "internalType": "address payable",
          "name": "_executor",
          "type": "address"
        }
      ],
      "name": "reserveCollateral",
      "outputs": [],
      "stateMutability": "payable",
      "type": "function"
    },
    {
      "inputs": [
        {
          "components": [
            {
              "internalType": "bytes32[]",
              "name": "merkleProof",
              "type": "bytes32[]"
            },
            {
              "components": [
                {
                  "internalType": "bytes32",
                  "name": "attestationType",
                  "type": "bytes32"
                },
                {
                  "internalType": "bytes32",
                  "name": "sourceId",
                  "type": "bytes32"
                },
                {
                  "internalType": "uint64",
                  "name": "votingRound",
                  "type": "uint64"
                },
                {
                  "internalType": "uint64",
                  "name": "lowestUsedTimestamp",
                  "type": "uint64"
                },
                {
                  "components": [
                    {
                      "internalType": "bytes32",
                      "name": "transactionId",
                      "type": "bytes32"
                    },
                    {
                      "internalType": "uint256",
                      "name": "inUtxo",
                      "type": "uint256"
                    },
                    {
                      "internalType": "uint256",
                      "name": "utxo",
                      "type": "uint256"
                    }
                  ],
                  "internalType": "struct Payment.RequestBody",
                  "name": "requestBody",
                  "type": "tuple"
                },
                {
                  "components": [
                    {
                      "internalType": "uint64",
                      "name": "blockNumber",
                      "type": "uint64"
                    },
                    {
                      "internalType": "uint64",
                      "name": "blockTimestamp",
                      "type": "uint64"
                    },
                    {
                      "internalType": "bytes32",
                      "name": "sourceAddressHash",
                      "type": "bytes32"
                    },
                    {
                      "internalType": "bytes32",
                      "name": "receivingAddressHash",
                      "type": "bytes32"
                    },
                    {
                      "internalType": "bytes32",
                      "name": "intendedReceivingAddressHash",
                      "type": "bytes32"
                    },
                    {
                      "internalType": "int256",
                      "name": "spentAmount",
                      "type": "int256"
                    },
                    {
                      "internalType": "int256",
                      "name": "intendedSpentAmount",
                      "type": "int256"
                    },
                    {
                      "internalType": "int256",
                      "name": "receivedAmount",
                      "type": "int256"
                    },
                    {
                      "internalType": "int256",
                      "name": "intendedReceivedAmount",
                      "type": "int256"
                    },
                    {
                      "internalType": "bytes32",
                      "name": "standardPaymentReference",
                      "type": "bytes32"
                    },
                    {
                      "internalType": "bool",
                      "name": "oneToOne",
                      "type": "bool"
                    },
                    {
                      "internalType": "uint8",
                      "name": "status",
                      "type": "uint8"
                    }
                  ],
                  "internalType": "struct Payment.ResponseBody",
                  "name": "responseBody",
                  "type": "tuple"
                }
              ],
              "internalType": "struct Payment.Response",
              "name": "data",
              "type": "tuple"
            }
          ],
          "internalType": "struct Payment.Proof",
          "name": "_payment",
          "type": "tuple"
        },
        {
          "internalType": "address",
          "name": "_agentVault",
          "type": "address"
        },
        {
          "internalType": "uint256",
          "name": "_lots",
          "type": "uint256"
        }
      ],
      "name": "selfMint",
      "outputs": [],
      "stateMutability": "nonpayable",
      "type": "function"
    },
    {
      "inputs": [
        {
          "components": [
            {
              "internalType": "bytes32[]",
              "name": "merkleProof",
              "type": "bytes32[]"
            },
            {
              "components": [
                {
                  "internalType": "bytes32",
                  "name": "attestationType",
                  "type": "bytes32"
                },
                {
                  "internalType": "bytes32",
                  "name": "sourceId",
                  "type": "bytes32"
                },
                {
                  "internalType": "uint64",
                  "name": "votingRound",
                  "type": "uint64"
                },
                {
                  "internalType": "uint64",
                  "name": "lowestUsedTimestamp",
                  "type": "uint64"
                },
                {
                  "components": [
                    {
                      "internalType": "uint64",
                      "name": "blockNumber",
                      "type": "uint64"
                    },
                    {
                      "internalType": "uint64",
                      "name": "queryWindow",
                      "type": "uint64"
                    }
                  ],
                  "internalType": "struct ConfirmedBlockHeightExists.RequestBody",
                  "name": "requestBody",
                  "type": "tuple"
                },
                {
                  "components": [
                    {
                      "internalType": "uint64",
                      "name": "blockTimestamp",
                      "type": "uint64"
                    },
                    {
                      "internalType": "uint64",
                      "name": "numberOfConfirmations",
                      "type": "uint64"
                    },
                    {
                      "internalType": "uint64",
                      "name": "lowestQueryWindowBlockNumber",
                      "type": "uint64"
                    },
                    {
                      "internalType": "uint64",
                      "name": "lowestQueryWindowBlockTimestamp",
                      "type": "uint64"
                    }
                  ],
                  "internalType": "struct ConfirmedBlockHeightExists.ResponseBody",
                  "name": "responseBody",
                  "type": "tuple"
                }
              ],
              "internalType": "struct ConfirmedBlockHeightExists.Response",
              "name": "data",
              "type": "tuple"
            }
          ],
          "internalType": "struct ConfirmedBlockHeightExists.Proof",
          "name": "_proof",
          "type": "tuple"
        },
        {
          "internalType": "uint256",
          "name": "_collateralReservationId",
          "type": "uint256"
        }
      ],
      "name": "unstickMinting",
      "outputs": [],
      "stateMutability": "payable",
      "type": "function"
    }
  ],
  "bytecode": "0x608060405234801561001057600080fd5b50614e33806100206000396000f3fe6080604052600436106100555760003560e01c80630c3cdae71461005a578063275a7bfc1461007c578063368a35931461008f57806384807e8d146100c15780638541cc05146100d4578063f056af42146100f4575b600080fd5b34801561006657600080fd5b5061007a61007536600461425d565b610114565b005b61007a61008a3660046142bc565b61012a565b34801561009b57600080fd5b506100af6100aa366004614306565b610165565b60405190815260200160405180910390f35b61007a6100cf36600461431f565b61017e565b3480156100e057600080fd5b5061007a6100ef36600461436e565b6101c1565b34801561010057600080fd5b5061007a61010f3660046143c7565b61021a565b6101268261012183610234565b6102a5565b5050565b6101326106b8565b61013a610721565b6101426107f0565b61015f338561015086610234565b61015986610234565b8561087b565b50505050565b600061017861017383610234565b610ebf565b92915050565b610186610f20565b6101988261019383610234565b610f99565b61012660017f0cd2207518cd3e5213e2c6dbe63d55b60aa893c194a427b7d7f1600408fd5bde55565b6101c96106b8565b6101d16107f0565b6101d9610f20565b6101ec83836101e784610234565b6111e9565b61021560017f0cd2207518cd3e5213e2c6dbe63d55b60aa893c194a427b7d7f1600408fd5bde55565b505050565b610222610f20565b6101988261022f83610234565b6115e2565b60006001600160401b038211156102a15760405162461bcd60e51b815260206004820152602660248201527f53616665436173743a2076616c756520646f65736e27742066697420696e203660448201526534206269747360d01b60648201526084015b60405180910390fd5b5090565b60006102b082611940565b60028101549091506000906102cd906001600160a01b03166119e1565b90506102d881611a88565b6102e184611ad7565b81546000906102f8906001600160401b0316611bcc565b905067464250526641000160c01b6001600160401b0385161761014086013514801561032c57506003820154610100860135145b80156103535750600183015461034b906001600160801b031682614421565b610120860135145b61039f5760405162461bcd60e51b815260206004820152601c60248201527f6d696e74696e67206e6f6e2d7061796d656e74206d69736d61746368000000006044820152606401610298565b8254600160801b90046001600160401b03166103c36101a08701610180880161444b565b6001600160401b031611801561040357508254600160c01b90046001600160401b03166103f86101c087016101a0880161444b565b6001600160401b0316115b61044f5760405162461bcd60e51b815260206004820152601960248201527f6d696e74696e672064656661756c7420746f6f206561726c79000000000000006044820152606401610298565b8254600160401b90046001600160401b031661047160c0870160a0880161444b565b6001600160401b031611156104db5760405162461bcd60e51b815260206004820152602a60248201527f6d696e74696e67206e6f6e2d7061796d656e742070726f6f662077696e646f77604482015269081d1bdbc81cda1bdc9d60b21b6064820152608401610298565b60018301546000906104f79084906001600160801b0316611c04565b6105019083614421565b600385015460028601546040518381529293506001600160401b038816926001600160a01b0392831692909116907f9bcf1e111381daaf8ec9ce1420115fc2bb960d5dd94b1e871256cb2e6cbd5aa09060200160405180910390a4600484015460009061058390633b9aca0090600160a01b90046001600160401b0316614466565b60018601546105a29190600160801b90046001600160801b0316614421565b60048501549091506000906105c3908390600160581b900461ffff16611c2b565b8554604080516368dc448760e11b815290519293506001600160a01b039091169163d1b8890e918491600480830192600092919082900301818588803b15801561060c57600080fd5b505af1158015610620573d6000803e3d6000fd5b5050505060028701546001600160a01b0316905063677fa232610643838561447d565b61064b611c3a565b6040516001600160e01b031960e085901b1681526001600160a01b0390911660048201526024016000604051808303818588803b15801561068b57600080fd5b505af115801561069f573d6000803e3d6000fd5b50505050506106ae8688611ca7565b5050505050505050565b7fec7e8c1c441439dd40959777f4c577ea0cd42fcc1dbe59d2bd0f5d9c55df8dc654600160c81b900460ff1661071f5760405162461bcd60e51b815260206004820152600c60248201526b1b9bdd08185d1d1858da195960a21b6044820152606401610298565b565b600061072b611dfc565b60068101549091506001600160a01b0316156107ed576006810154604051633af32abf60e01b81523360048201526001600160a01b0390911690633af32abf90602401602060405180830381865afa15801561078b573d6000803e3d6000fd5b505050506040513d601f19601f820116820180604052508101906107af919061449e565b6107ed5760405162461bcd60e51b815260206004820152600f60248201526e1b9bdd081dda1a5d195b1a5cdd1959608a1b6044820152606401610298565b50565b7fec7e8c1c441439dd40959777f4c577ea0cd42fcc1dbe59d2bd0f5d9c55df8dc654600080516020614dde8339815191529042600160401b9091046001600160401b031611156107ed5760405162461bcd60e51b8152602060048201526016602482015275656d657267656e63792070617573652061637469766560501b6044820152606401610298565b6000610886856119e1565b905061089181611e20565b600061089c82611e37565b7fec7e8c1c441439dd40959777f4c577ea0cd42fcc1dbe59d2bd0f5d9c55df8dc654909150600080516020614dde833981519152906001600160401b0316156109185760405162461bcd60e51b815260206004820152600e60248201526d1b5a5b9d1a5b99c81c185d5cd95960921b6044820152606401610298565b600483015465010000000000900463ffffffff1660000361097b5760405162461bcd60e51b815260206004820152601760248201527f6167656e74206e6f7420696e206d696e742071756575650000000000000000006044820152606401610298565b6000866001600160401b0316116109c95760405162461bcd60e51b815260206004820152601260248201527163616e6e6f74206d696e742030206c6f747360701b6044820152606401610298565b600160048085015460ff16908111156109e4576109e46144bb565b14610a315760405162461bcd60e51b815260206004820152601860248201527f72633a20696e76616c6964206167656e742073746174757300000000000000006044820152606401610298565b6001600160401b038616610a458385611ee1565b1015610a935760405162461bcd60e51b815260206004820152601a60248201527f6e6f7420656e6f756768206672656520636f6c6c61746572616c0000000000006044820152606401610298565b6004830154600160481b900461ffff166001600160401b0386161015610af25760405162461bcd60e51b81526020600482015260146024820152730c2cecadce84ee640cccaca40e8dede40d0d2ced60631b6044820152606401610298565b6000610afc611dfc565b600d0154610b13906001600160401b0316886144d1565b90506000610b2082611bcc565b6004860154909150600090610b41908390600160481b900461ffff16611c2b565b9050610b4e868483611f35565b6000610b6286602001516040015185611ff1565b905080341015610bb45760405162461bcd60e51b815260206004820152601860248201527f696e617070726f7072696174652066656520616d6f756e7400000000000000006044820152606401610298565b600080610bbf612032565b91509150610bcb612121565b600e88018054600090610be89084906001600160401b03166144fc565b82546001600160401b0391821661010093840a9081029083021990911617909255600e8a01546040805161014081018252600060208201819052918101829052606081018290526080810182905260a0810182905260c0810182905260e0810182905292830181905261012083015289831682529091169150610c6a8661213f565b6001600160801b03166080820152610c818561213f565b8160a001906001600160801b031690816001600160801b0316815250508e8160c001906001600160a01b031690816001600160a01b0316815250508f8160e001906001600160a01b031690816001600160a01b03168152505088600f0160029054906101000a90046001600160401b031681602001906001600160401b031690816001600160401b0316815250508381604001906001600160401b031690816001600160401b0316815250508281606001906001600160401b031690816001600160401b0316815250508b8161010001906001600160a01b031690816001600160a01b031681525050610d8d633b9aca008634610d7e919061447d565b610d889190614539565b610234565b6001600160401b039081166101208301908152838216600090815260068c01602090815260409182902085518154928701519387015160608801518716600160c01b026001600160c01b03918816600160801b908102929092166001600160801b03968916600160401b026fffffffffffffffffffffffffffffffff199096169389169390931794909417851691909117929092178155608086015160a087015184169092029190921617600182015560c08401516002820180546001600160a01b039283166001600160a01b03199182161790915560e086015160038401805491841691909216179055610100850151600490920180549351909416600160a01b026001600160e01b0319909316911617179055610ead8b8284612168565b50505050505050505050505050505050565b6000600080516020614dde83398151915281610ed9611dfc565b600f830154909150600090610ef19061ffff16612235565b600d830154909150610f17908290610f12906001600160401b0316886144d1565b611ff1565b95945050505050565b7f0cd2207518cd3e5213e2c6dbe63d55b60aa893c194a427b7d7f1600408fd5bde805460011901610f935760405162461bcd60e51b815260206004820152601f60248201527f5265656e7472616e637947756172643a207265656e7472616e742063616c6c006044820152606401610298565b60029055565b6000610fa3611dfc565b90506000610fb083611940565b6002810154909150600090610fcd906001600160a01b03166119e1565b9050610fd881611a88565b610fe185612280565b8154600160801b90046001600160401b03166110056101408701610120880161444b565b6001600160401b031611801561104557508154600160c01b90046001600160401b031661103a6101608701610140880161444b565b6001600160401b0316115b801561109f575061105d610100860160e0870161444b565b60118401546001600160401b0391821691600160401b909104166110896101608801610140890161444b565b61109391906144fc565b6001600160401b031611155b6110eb5760405162461bcd60e51b815260206004820152601a60248201527f63616e6e6f7420756e737469636b206d696e74696e67207965740000000000006044820152606401610298565b600182015461110990600160801b90046001600160801b031661237c565b600481015460009061112390610100900461ffff16612235565b835490915060009061113e906001600160401b0316836123c3565b905061114a83826123dd565b60018401546000906111669085906001600160801b0316611c04565b855461117a906001600160401b0316611bcc565b6111849190614421565b600386015460028701546040518381529293506001600160401b038a16926001600160a01b0392831692909116907f8989bc1e07f872f783e99c06825dfe6c20f9ca1bc2501de1e931a5872f0e88149060200160405180910390a46106ae8588611ca7565b600080516020614dde8339815191526000611203846119e1565b905061120e81611a88565b61121781611e20565b600061122282611e37565b905061122d866125ba565b60108301546001600160401b0316156112795760405162461bcd60e51b815260206004820152600e60248201526d1b5a5b9d1a5b99c81c185d5cd95960921b6044820152606401610298565b600160048084015460ff1690811115611294576112946144bb565b146112e15760405162461bcd60e51b815260206004820152601e60248201527f73656c662d6d696e7420696e76616c6964206167656e742073746174757300006044820152606401610298565b6001600160401b0384166112f58284611ee1565b10156113435760405162461bcd60e51b815260206004820152601a60248201527f6e6f7420656e6f756768206672656520636f6c6c61746572616c0000000000006044820152606401610298565b600061134d611dfc565b600d0154611364906001600160401b0316866144d1565b905061136f81612618565b600061137a82611bcc565b60048501549091506000906113a69086906113a1908590600160481b900461ffff16611c2b565b611c04565b905067232128293320800960c11b6001600160a01b038916176102208a0135146114125760405162461bcd60e51b815260206004820152601b60248201527f696e76616c69642073656c662d6d696e74207265666572656e636500000000006044820152606401610298565b60038501546101608a01351461146a5760405162461bcd60e51b815260206004820152601d60248201527f73656c662d6d696e74206e6f74206167656e74277320616464726573730000006044820152606401610298565b61147c6114778284614421565b61275a565b6101e08a013512156114d05760405162461bcd60e51b815260206004820152601b60248201527f73656c662d6d696e74207061796d656e7420746f6f20736d616c6c00000000006044820152606401610298565b600a8501546001600160401b03166114f06101208b016101008c0161444b565b6001600160401b031610156115475760405162461bcd60e51b815260206004820152601960248201527f73656c662d6d696e74207061796d656e7420746f6f206f6c64000000000000006044820152606401610298565b611554600b87018a6127c4565b6101e08901356001600160401b0388161561157d57611578866000338785876127d2565b6115d6565b6115878682612a57565b604080516000808252602082018490529181018290526001600160a01b038b16907f0d418f2ae12260f9d0ceacf72b08fcc4b05560719443f40d3761ee90da0d8fa59060600160405180910390a35b50505050505050505050565b60006115ed82611940565b600281015490915060009061160a906001600160a01b03166119e1565b9050611615846125ba565b60038201546001600160a01b031633148061163c575060048201546001600160a01b031633145b8061164c575061164c8133612b09565b6116985760405162461bcd60e51b815260206004820152601e60248201527f6f6e6c79206d696e7465722c206578656375746f72206f72206167656e7400006044820152606401610298565b67464250526641000160c01b6001600160401b03841617610220850135146117025760405162461bcd60e51b815260206004820152601960248201527f696e76616c6964206d696e74696e67207265666572656e6365000000000000006044820152606401610298565b60038101546101608501351461175a5760405162461bcd60e51b815260206004820152601b60248201527f6e6f74206d696e74696e67206167656e742773206164647265737300000000006044820152606401610298565b8154600090611771906001600160401b0316611bcc565b600184015490915061179090611477906001600160801b031683614421565b6101e086013512156117e45760405162461bcd60e51b815260206004820152601960248201527f6d696e74696e67207061796d656e7420746f6f20736d616c6c000000000000006044820152606401610298565b8254600160401b90046001600160401b03166118086101208701610100880161444b565b6001600160401b0316101561185f5760405162461bcd60e51b815260206004820152601760248201527f6d696e74696e67207061796d656e7420746f6f206f6c640000000000000000006044820152606401610298565b6003830154835460018501546118ab92859288926001600160a01b03909216916001600160401b03909116906101e08b0135906118a69086906001600160801b0316611c04565b6127d2565b60048301546000906118d290633b9aca0090600160a01b90046001600160401b0316614466565b60048501549091506001600160a01b03163303611905576004840154611901906001600160a01b031682612bb8565b5060005b600184015461192e90611929908390600160801b90046001600160801b0316614421565b61237c565b6119388486611ca7565b505050505050565b6000600080516020614dde8339815191526001600160401b0383161580159061198457506001600160401b0380841660009081526006830160205260409020541615155b6119c15760405162461bcd60e51b815260206004820152600e60248201526d1a5b9d985b1a590818dc9d081a5960921b6044820152606401610298565b6001600160401b0390921660009081526006909201602052506040902090565b7f5bebac0595fee029d42bb673937f5f1cb81cf8641382bc17774635de9b7d796568010000000000000000600160e01b03604083901b161880600060048084015460ff1690811115611a3557611a356144bb565b03611a825760405162461bcd60e51b815260206004820152601b60248201527f696e76616c6964206167656e74207661756c74206164647265737300000000006044820152606401610298565b50919050565b611a928133612b09565b6107ed5760405162461bcd60e51b815260206004820152601660248201527537b7363c9030b3b2b73a103b30bab63a1037bbb732b960511b6044820152606401610298565b6000611ae1611dfc565b6008810154600b8201549192506001600160a01b031690604084013514611b1a5760405162461bcd60e51b81526004016102989061454d565b6040516317c963db60e31b81526001600160a01b0382169063be4b1ed890611b4690869060040161462e565b602060405180830381865afa158015611b63573d6000803e3d6000fd5b505050506040513d601f19601f82011682018060405250810190611b87919061449e565b6102155760405162461bcd60e51b81526020600482015260166024820152751b9bdb8b5c185e5b595b9d081b9bdd081c1c9bdd995960521b6044820152606401610298565b600080611bd7611dfc565b600c810154909150611bfd906001600160401b03600160901b9091048116908516614466565b9392505050565b6004820154600090611bfd90611c26908490600160581b900461ffff16611c2b565b612c53565b6000611bfd8383612710612c8a565b7fec7e8c1c441439dd40959777f4c577ea0cd42fcc1dbe59d2bd0f5d9c55df8dc554600080516020614dde8339815191528054600092829161ffff909116908110611c8757611c87614719565b60009182526020909120600490910201546001600160a01b031692915050565b6002820154600080516020614dde83398151915290600090611cd1906001600160a01b03166119e1565b84546001860154919250600091611cfe9184916001600160401b03909116906001600160801b0316612db0565b600583015460408051808201909152601381527234b73b30b634b2103932b9b2b93b30ba34b7b760691b6020820152919250611d47916001600160401b03909116908390612de5565b60058301805467ffffffffffffffff19166001600160401b03928316179055600e840180548392601891611d84918591600160c01b90041661472f565b82546101009290920a6001600160401b0381810219909316918316021790915594909416600090815260069390930160205250506040812081815560018101919091556002810180546001600160a01b0319908116909155600382018054909116905560040180546001600160e01b03191690555050565b7f4f24f5c433db0962dac0d2c8b84197a6e6c7cc4e5d9ebe1916a1b6193da2f33a90565b60018101546107ed906001600160a01b0316612e30565b611ea26040805160c081019091526000606082018181526080830182905260a083019190915281908152604080516060810182526000808252602082810182905292820152910190815260408051606081018252600080825260208281018290529282015291015290565b6000611ead83612ee8565b90506040518060600160405280611ec385612fae565b8152602001828152602001611ed8858461303b565b90529392505050565b600080611ef2846000015184613207565b90506000611f04856020015185613207565b90506000611f16866040015186613207565b9050611f2b83611f26848461323d565b61323d565b9695505050505050565b600080516020614dde8339815191526000611f51858585612db0565b9050611f5c81612618565b600585018054829190600090611f7c9084906001600160401b03166144fc565b92506101000a8154816001600160401b0302191690836001600160401b031602179055508082600e0160188282829054906101000a90046001600160401b0316611fc691906144fc565b92506101000a8154816001600160401b0302191690836001600160401b031602179055505050505050565b600080612007836001600160401b0316856123c3565b905061202a612014611dfc565b600c01548290600160401b900461ffff16611c2b565b949350505050565b600080600080516020614dde8339815191528161204d611dfc565b600f830154909150600090600160901b90046001600160401b031661207142610234565b61207b919061472f565b600c8301549091506000906120a59063ffffffff16610d7e6001600160401b0385166103e8614466565b600d840154600f8601549192506001600160401b03600160981b9091048116916120d7918491620100009004166144fc565b6120e191906144fc565b600e840154600f8601549197506001600160401b039081169161210d918591600160501b9004166144fc565b61211791906144fc565b9450505050509091565b600061212f6103e84361474f565b61213a906001614421565b905090565b60006001600160801b038211156102a15760405162461bcd60e51b815260040161029890614763565b806001600160401b03168260e001516001600160a01b031661218985613253565b6001600160a01b03167f7e28eb3b9a2077a4fa0559357b1647ec5eabf18d7adf1539c4e8fb1445a5fc096121c08660000151611bcc565b60808701516020880151604089015160608a015160028c0167464250526641000160c01b6001600160401b038c16178c6101000151633b9aca008e61012001516001600160401b03166122139190614466565b604051612228999897969594939291906147de565b60405180910390a4505050565b600080600080516020614dde833981519152905061227681600001848154811061226157612261614719565b9060005260206000209060040201600061327b565b5090949350505050565b600061228a611dfc565b6008810154600b8201549192506001600160a01b0316906040840135146122c35760405162461bcd60e51b81526004016102989061454d565b604051635e30ebfb60e01b81526001600160a01b03821690635e30ebfb906122ef9086906004016148f2565b602060405180830381865afa15801561230c573d6000803e3d6000fd5b505050506040513d601f19601f82011682018060405250810190612330919061449e565b6102155760405162461bcd60e51b815260206004820152601760248201527f626c6f636b20686569676874206e6f742070726f7665640000000000000000006044820152606401610298565b6000612386611dfc565b60098101546040519192506001600160a01b03169083156108fc029084906000818181858888f19350505050158015610215573d6000803e3d6000fd5b6000611bfd826123d56009600a614ad0565b859190612c8a565b60006123e88361343a565b905060006123f584613487565b805483549192506001600160a01b0390811691160361241d5761241884846134c0565b61015f565b6000612427611dfc565b9050600061243486613253565b601283015490915060009061246190600160801b900463ffffffff1661245b888888613558565b90611c2b565b8554600189015460405163083e007560e21b81526001600160a01b0392831660048201529082166024820152604481018990529192508316906320f801d490606401600060405180830381600087803b1580156124bd57600080fd5b505af11580156124d1573d6000803e3d6000fd5b50505050803410156125255760405162461bcd60e51b815260206004820152601960248201527f6e6f7420656e6f7567682066756e64732070726f7669646564000000000000006044820152606401610298565b61252e8161237c565b803411156125b1576001600160a01b03821663677fa23261254f833461447d565b612557611c3a565b6040516001600160e01b031960e085901b1681526001600160a01b0390911660048201526024016000604051808303818588803b15801561259757600080fd5b505af11580156125ab573d6000803e3d6000fd5b50505050505b50505050505050565b60006125ce61028083016102608401614aed565b60ff161461260f5760405162461bcd60e51b815260206004820152600e60248201526d1c185e5b595b9d0819985a5b195960921b6044820152606401610298565b6107ed8161357e565b600080516020614dde8339815191526000612631611dfc565b600d810154909150600160581b90046001600160401b031660008190036126585750505050565b6001820154604080516318160ddd60e01b815290516000926001600160a01b0316916318160ddd9160048083019260209291908290030181865afa1580156126a4573d6000803e3d6000fd5b505050506040513d601f19601f820116820180604052508101906126c89190614b08565b905060006126d5826136e9565b600e8601546126f49190600160c01b90046001600160401b03166144fc565b6001600160401b0316905082866001600160401b0316826127159190614421565b11156119385760405162461bcd60e51b81526020600482015260146024820152731b5a5b9d1a5b99c818d85c08195e18d95959195960621b6044820152606401610298565b60006001600160ff1b038211156102a15760405162461bcd60e51b815260206004820152602860248201527f53616665436173743a2076616c756520646f65736e27742066697420696e2061604482015267371034b73a191a9b60c11b6064820152608401610298565b6101268260a083013561371a565b60006127dc611dfc565b905060006127e9836136e9565b60068901549091506000906128089083906001600160401b03166144fc565b600d84015490915086906001600160401b039081169083161061285c57600d840154600090612840906001600160401b031684614b21565b905061284c818461472f565b61285690836144fc565b90925090505b61286f8a61286a858a6144fc565b6137e2565b6128798a8261382e565b6128838a836138be565b61288d8a87612a57565b600061289888611bcc565b90506000866128a7838a61447d565b6128b1919061447d565b90506128bb613954565b6040516340c10f1960e01b81526001600160a01b038c811660048301526024820185905291909116906340c10f1990604401600060405180830381600087803b15801561290757600080fd5b505af115801561291b573d6000803e3d6000fd5b50505050612927613954565b8c546040516340c10f1960e01b81526001600160a01b039182166004820152602481018a90529116906340c10f1990604401600060405180830381600087803b15801561297357600080fd5b505af1158015612987573d6000803e3d6000fd5b50508d5460405163542a535160e11b8152600481018b90526001600160a01b03909116925063a854a6a29150602401600060405180830381600087803b1580156129d057600080fd5b505af11580156129e4573d6000803e3d6000fd5b505050508a6001600160401b03166129fb8d613253565b60408051858152602081018590529081018a90526001600160a01b0391909116907f0d418f2ae12260f9d0ceacf72b08fcc4b05560719443f40d3761ee90da0d8fa59060600160405180910390a3505050505050505050505050565b612a68612a638261275a565b613972565b600683018054600890612a86908490600160401b9004600f0b614b47565b92506101000a8154816001600160801b030219169083600f0b6001600160801b03160217905550612ab682613253565b6006830154604051600160401b909104600f0b81526001600160a01b0391909116907f73da6891cb86668451f612d2555e88650888a0133a30b1d226b2d1f955e62bca9060200160405180910390a25050565b60018201546000906001600160a01b0390811690831681148061202a5750612b2f61399b565b604051631f86345d60e31b81526001600160a01b038381166004830152919091169063fc31a2e890602401602060405180830381865afa158015612b77573d6000803e3d6000fd5b505050506040513d601f19601f82011682018060405250810190612b9b9190614b86565b6001600160a01b0316836001600160a01b03161491505092915050565b8015610126576000826001600160a01b03168260405160006040518083038185875af1925050503d8060008114612c0b576040519150601f19603f3d011682016040523d82523d6000602084013e612c10565b606091505b50509050806102155760405162461bcd60e51b815260206004820152600f60248201526e1d1c985b9cd9995c8819985a5b1959608a1b6044820152606401610298565b600080612c5e611dfc565b600c810154909150612c8090600160901b90046001600160401b03168461474f565b611bfd908461447d565b6000808211612cce5760405162461bcd60e51b815260206004820152601060248201526f4469766973696f6e206279207a65726f60801b6044820152606401610298565b83600003612cde57506000611bfd565b83830283858281612cf157612cf1614523565b0403612d0f57828181612d0657612d06614523565b04915050611bfd565b506000612d1c8386614539565b90506000612d2a848761474f565b90506000612d388587614539565b90506000612d46868861474f565b905085612d538285614466565b612d5d9190614539565b612d678385614466565b612d718387614466565b88612d7c8689614466565b612d869190614466565b612d909190614421565b612d9a9190614421565b612da49190614421565b98975050505050505050565b60048301546000908190612dd0908490600160581b900461ffff16611c2b565b9050612ddb816136e9565b610f1790856144fc565b6000826001600160401b0316846001600160401b031610158290612e1c5760405162461bcd60e51b81526004016102989190614ba3565b5050506001600160401b0390811691160390565b612e3861399b565b604051633af32abf60e01b81526001600160a01b0383811660048301529190911690633af32abf90602401602060405180830381865afa158015612e80573d6000803e3d6000fd5b505050506040513d601f19601f82011682018060405250810190612ea4919061449e565b6107ed5760405162461bcd60e51b81526020600482015260156024820152741859d95b9d081b9bdd081dda1a5d195b1a5cdd1959605a1b6044820152606401610298565b612f0d6040805160608101909152806000815260200160008152602001600081525090565b6000612f1883613487565b60408051606081019091529091508060018152825485546040516370a0823160e01b81526001600160a01b0391821660048201526020909301929116906370a08231906024015b602060405180830381865afa158015612f7c573d6000803e3d6000fd5b505050506040513d601f19601f82011682018060405250810190612fa09190614b08565b8152602001611ed8836139b9565b612fd36040805160608101909152806000815260200160008152602001600081525090565b6000612fde8361343a565b60408051606081019091526000815281549192509060208201906001600160a01b03166370a0823161300f87613253565b6040516001600160e01b031960e084901b1681526001600160a01b039091166004820152602401612f5f565b6130606040805160608101909152806000815260200160008152602001600081525090565b8254604080516332f7ce0b60e21b815290516000926001600160a01b03169163cbdf382c9160048083019260209291908290030181865afa1580156130a9573d6000803e3d6000fd5b505050506040513d601f19601f820116820180604052508101906130cd9190614b86565b90506000816001600160a01b03166370a082316130e987613253565b6040516001600160e01b031960e084901b1681526001600160a01b039091166004820152602401602060405180830381865afa15801561312d573d6000803e3d6000fd5b505050506040513d601f19601f820116820180604052508101906131519190614b08565b90506000826001600160a01b03166318160ddd6040518163ffffffff1660e01b8152600401602060405180830381865afa158015613193573d6000803e3d6000fd5b505050506040513d601f19601f820116820180604052508101906131b79190614b08565b9050600085602001516000036131ce5760006131e3565b602086015160408701516131e3918490612c8a565b60408051606081018252600281526020810195909552840152509095945050505050565b60008061321484846139cf565b9050600061322285856139f7565b905080600003613233576000610f17565b610f178183614539565b600081831061324c5781611bfd565b5090919050565b7f5bebac0595fee029d42bb673937f5f1cb81cf8641382bc17774635de9b7d79651860401c90565b60008060008060008061331a886001018054613296906147aa565b80601f01602080910402602001604051908101604052809291908181526020018280546132c2906147aa565b801561330f5780601f106132e45761010080835404028352916020019161330f565b820191906000526020600020905b8154815290600101906020018083116132f257829003601f168201915b505050505088613a3d565b8a549295509093509150600160f01b900460ff161561336157875460009061335090600160a81b900460ff166001838786613b08565b965091945084935061343392505050565b60008060006133fc8b6002018054613378906147aa565b80601f01602080910402602001604051908101604052809291908181526020018280546133a4906147aa565b80156133f15780601f106133c6576101008083540402835291602001916133f1565b820191906000526020600020905b8154815290600101906020018083116133d457829003601f168201915b50505050508b613a3d565b8d54929550909350915060009061342090600160a81b900460ff1685848a89613b08565b9950949750909550613433945050505050565b9250925092565b600080600080516020614dde83398151915260048401548154919250829161010090910461ffff1690811061347157613471614719565b9060005260206000209060040201915050919050565b600080600080516020614dde833981519152600484015481549192508291630100000090910461ffff1690811061347157613471614719565b60006134ca611dfc565b905060006134d784613253565b9050806001600160a01b031663648d08786134f0611c3a565b600985015460405160e084901b6001600160e01b03191681526001600160a01b0392831660048201529116602482015260448101869052606401600060405180830381600087803b15801561354457600080fd5b505af11580156106ae573d6000803e3d6000fd5b600080613564836139b9565b90506000613571856139b9565b9050611f2b868383612c8a565b6000613588611dfc565b6008810154600b8201549192506001600160a01b0316906040840135146135c15760405162461bcd60e51b81526004016102989061454d565b604051634661c36760e11b81526001600160a01b03821690638cc386ce906135ed908690600401614bfd565b602060405180830381865afa15801561360a573d6000803e3d6000fd5b505050506040513d601f19601f8201168201806040525081019061362e919061449e565b61367a5760405162461bcd60e51b815260206004820152601860248201527f6c6567616c207061796d656e74206e6f742070726f76656400000000000000006044820152606401610298565b61369d61368f6101408501610120860161444b565b6001600160401b0316613b8c565b6102155760405162461bcd60e51b815260206004820152601c60248201527f7665726966696564207472616e73616374696f6e20746f6f206f6c64000000006044820152606401610298565b6000806136f4611dfc565b600c810154909150611bfd90610d8890600160901b90046001600160401b031685614539565b600081815260208390526040902054156137765760405162461bcd60e51b815260206004820152601960248201527f7061796d656e7420616c726561647920636f6e6669726d6564000000000000006044820152606401610298565b60006137856201518042614539565b60008181526001850160205260408120549192508190036137a657826137a8565b805b600084815260208681526040808320939093558482526001870190529081208490556002850154900361015f576002840182905550505050565b6005820154613802908290600160401b90046001600160401b03166144fc565b8260050160086101000a8154816001600160401b0302191690836001600160401b031602179055505050565b600080516020614dde833981519152600061384884613253565b9050600061385a600784018386613baf565b9050600061386785611bcc565b9050816001600160401b0316836001600160a01b03167f631f8f2039090539b2ea4ef7dc567f7f1939ef4dd3e790b1ca7bc548a1fada58836040516138ae91815260200190565b60405180910390a3505050505050565b60068201546001600160401b038083169116036138d9575050565b60068201805467ffffffffffffffff19166001600160401b038316179055600061390282611bcc565b905061390d83613253565b6001600160a01b03167fa3db2bc927901a1d3ba09ad51d84609457b98443be9132a0a936a47c5a1081b58260405161394791815260200190565b60405180910390a2505050565b60008061395f611dfc565b600101546001600160a01b031692915050565b80600f81900b81146139965760405162461bcd60e51b815260040161029890614763565b919050565b6000806139a6611dfc565b600701546001600160a01b031692915050565b60006139c682600061327b565b50909392505050565b6000806139dc8484613fb8565b90506000611f2b8286602001516140e290919063ffffffff16565b600080613a02611dfc565b90506000613a14848660000151614108565b50600d8301546040870151919250610f1791839161245b916001600160401b03909116906123c3565b600080600080613a4b611dfc565b600a8101549091506001600160a01b03168515613adc5760405163e4a0a55b60e01b81526001600160a01b0382169063e4a0a55b90613a8e908a90600401614ba3565b606060405180830381865afa158015613aab573d6000803e3d6000fd5b505050506040513d601f19601f82011682018060405250810190613acf9190614d73565b9450945094505050613433565b60405163524f388960e01b81526001600160a01b0382169063524f388990613a8e908a90600401614ba3565b600080613b13611dfc565b905060006009613b23878a614421565b613b2d9190614421565b600a830154909150600090613b4d908690600160a81b900460ff16614421565b905080821015613b5f57613b5f614da1565b613b7f613b6c828461447d565b613b7790600a614ad0565b87908a612c8a565b9998505050505050505050565b6000613b9c600e62015180614466565b613ba6904261447d565b90911015919050565b6001600160a01b03821660009081526001840160205260408120600285018054839190601090613bee90600160801b90046001600160401b0316614db7565b91906101000a8154816001600160401b0302191690836001600160401b03160217905590506040518060c00160405280866001600160a01b03168152602001856001600160401b031681526020018760020160089054906101000a90046001600160401b03166001600160401b0316815260200160006001600160401b031681526020018360000160089054906101000a90046001600160401b03166001600160401b0316815260200160006001600160401b0316815250866000016000836001600160401b03166001600160401b0316815260200190815260200160002060008201518160000160006101000a8154816001600160a01b0302191690836001600160a01b0316021790555060208201518160000160146101000a8154816001600160401b0302191690836001600160401b0316021790555060408201518160010160006101000a8154816001600160401b0302191690836001600160401b0316021790555060608201518160010160086101000a8154816001600160401b0302191690836001600160401b0316021790555060808201518160010160106101000a8154816001600160401b0302191690836001600160401b0316021790555060a08201518160010160186101000a8154816001600160401b0302191690836001600160401b031602179055509050508560020160009054906101000a90046001600160401b03166001600160401b0316600003613e4b576002860154600160401b90046001600160401b031615613e2857613e28614da1565b60028601805467ffffffffffffffff19166001600160401b038316179055613eb3565b6002860154600160401b90046001600160401b0316600003613e6f57613e6f614da1565b6002860154600160401b908190046001600160401b039081166000908152602089905260409020600101805467ffffffffffffffff60401b19169184169092021790555b6002860180546001600160401b03808416600160401b0267ffffffffffffffff60401b1990921691909117909155825416600003613f29578154600160401b90046001600160401b031615613f0a57613f0a614da1565b815467ffffffffffffffff19166001600160401b038216178255613f8c565b8154600160401b90046001600160401b0316600003613f4a57613f4a614da1565b81546001600160401b03600160401b909104811660009081526020889052604090206001018054918316600160c01b026001600160c01b039092169190911790555b815467ffffffffffffffff60401b1916600160401b6001600160401b0383160217909155949350505050565b6000806000613fcb848660000151614108565b60058601549193509150600090613ff4906001600160401b03600160401b820481169116614421565b9050600061400a8461245b848a604001516123c3565b90506000600188516002811115614023576140236144bb565b14614042576005870154600160801b90046001600160401b0316614058565b6005870154600160c01b90046001600160401b03165b905060006140778561245b846001600160401b03168c604001516123c3565b9050600060018a516002811115614090576140906144bb565b0361409c5760006140b4565b89516140a9908a90614201565b546001600160801b03165b6001600160801b03169050806140ca8386614421565b6140d49190614421565b9a9950505050505050505050565b600080838311156140f857506000905080614101565b50600190508183035b9250929050565b600080600283600281111561411f5761411f6144bb565b0361417a57600080614132866001614108565b915091506000614140611dfc565b600c015463ffffffff640100000000909104811691506141649082908490611c2b16565b93506141708184611c2b565b9450505050614101565b600183600281111561418e5761418e6144bb565b036141c95761419c84613487565b60030154600485015463ffffffff91821692506141c291600160881b909104168261424e565b9150614101565b6141d28461343a565b60030154600485015463ffffffff91821692506141f891600160681b909104168261424e565b91509250929050565b60006001826002811115614217576142176144bb565b0361422457614224614da1565b6000826002811115614238576142386144bb565b146142465782600901611bfd565b505060080190565b600081831161324c5781611bfd565b6000806040838503121561427057600080fd5b82356001600160401b0381111561428657600080fd5b83016101c0818603121561429957600080fd5b946020939093013593505050565b6001600160a01b03811681146107ed57600080fd5b600080600080608085870312156142d257600080fd5b84356142dd816142a7565b9350602085013592506040850135915060608501356142fb816142a7565b939692955090935050565b60006020828403121561431857600080fd5b5035919050565b6000806040838503121561433257600080fd5b82356001600160401b0381111561434857600080fd5b8301610160818603121561429957600080fd5b60006102808284031215611a8257600080fd5b60008060006060848603121561438357600080fd5b83356001600160401b0381111561439957600080fd5b6143a58682870161435b565b93505060208401356143b6816142a7565b929592945050506040919091013590565b600080604083850312156143da57600080fd5b82356001600160401b038111156143f057600080fd5b6143fc8582860161435b565b95602094909401359450505050565b634e487b7160e01b600052601160045260246000fd5b808201808211156101785761017861440b565b80356001600160401b038116811461399657600080fd5b60006020828403121561445d57600080fd5b611bfd82614434565b80820281158282048414176101785761017861440b565b818103818111156101785761017861440b565b80151581146107ed57600080fd5b6000602082840312156144b057600080fd5b8151611bfd81614490565b634e487b7160e01b600052602160045260246000fd5b6001600160401b038181168382160280821691908281146144f4576144f461440b565b505092915050565b6001600160401b0381811683821601908082111561451c5761451c61440b565b5092915050565b634e487b7160e01b600052601260045260246000fd5b60008261454857614548614523565b500490565b6020808252600d908201526c34b73b30b634b21031b430b4b760991b604082015260600190565b6000808335601e1984360301811261458b57600080fd5b83016020810192503590506001600160401b038111156145aa57600080fd5b8060051b360382131561410157600080fd5b81835260006001600160fb1b038311156145d557600080fd5b8260051b80836020870137939093016020019392505050565b6001600160401b038061460083614434565b1683528061461060208401614434565b1660208401528061462360408401614434565b166040840152505050565b60208152600061463e8384614574565b6101c060208501526146556101e0850182846145bc565b915050602084013560408401526040840135606084015261467860608501614434565b6001600160401b0380821660808601528061469560808801614434565b1660a0860152806146a860a08801614434565b1660c0860152806146bb60c08801614434565b1660e08601526146cd60e08701614434565b9150610100818316818701526101209250808701358387015250506101408186013581860152610160915080860135828601525061471161018085018287016145ee565b509392505050565b634e487b7160e01b600052603260045260246000fd5b6001600160401b0382811682821603908082111561451c5761451c61440b565b60008261475e5761475e614523565b500690565b60208082526027908201527f53616665436173743a2076616c756520646f65736e27742066697420696e20316040820152663238206269747360c81b606082015260800190565b600181811c908216806147be57607f821691505b602082108103611a8257634e487b7160e01b600052602260045260246000fd5b60006101208b835260206001600160801b038c1660208501526001600160401b03808c166040860152808b166060860152808a166080860152508160a0850152600088548160018260011c9150600183168061483b57607f831692505b60208310810361485957634e487b7160e01b85526022600452602485fd5b95880182815260200195808015614877576001811461488d576148b8565b60ff198516885283151560051b880195506148b8565b60008e81526020902060005b858110156148b25781548a820152908401908801614899565b89019650505b505050505060c085018890526001600160a01b03871660e086015292506148dd915050565b826101008301529a9950505050505050505050565b6020815260006149028384614574565b61016080602086015261491a610180860183856145bc565b9250602086013560408601526040860135606086015261493c60608701614434565b91506001600160401b0380831660808701528061495b60808901614434565b1660a08701528061496e60a08901614434565b1660c08701528061498160c08901614434565b1660e087015261010092508061499960e08901614434565b16838701526149a9838801614434565b9250610120818416818801526149c0818901614434565b93505061014081841681880152816149d9828a01614434565b1683880152505050508091505092915050565b600181815b80851115614a27578160001904821115614a0d57614a0d61440b565b80851615614a1a57918102915b93841c93908002906149f1565b509250929050565b600082614a3e57506001610178565b81614a4b57506000610178565b8160018114614a615760028114614a6b57614a87565b6001915050610178565b60ff841115614a7c57614a7c61440b565b50506001821b610178565b5060208310610133831016604e8410600b8410161715614aaa575081810a610178565b614ab483836149ec565b8060001904821115614ac857614ac861440b565b029392505050565b6000611bfd8383614a2f565b803560ff8116811461399657600080fd5b600060208284031215614aff57600080fd5b611bfd82614adc565b600060208284031215614b1a57600080fd5b5051919050565b60006001600160401b0380841680614b3b57614b3b614523565b92169190910692915050565b600f81810b9083900b016f7fffffffffffffffffffffffffffffff81136f7fffffffffffffffffffffffffffffff19821217156101785761017861440b565b600060208284031215614b9857600080fd5b8151611bfd816142a7565b60006020808352835180602085015260005b81811015614bd157858101830151858201604001528201614bb5565b506000604082860101526040601f19601f8301168501019250505092915050565b803561399681614490565b602081526000614c0d8384614574565b610280806020860152614c256102a0860183856145bc565b92506020860135604086015260408601356060860152614c4760608701614434565b91506001600160401b03808316608087015280614c6660808901614434565b1660a08701525060a086013560c086015260c086013560e0860152610100915060e086013582860152610120614cb0818701614ca3858a01614434565b6001600160401b03169052565b614cbb818801614434565b925050610140614cd5818701846001600160401b03169052565b610160925080870135838701525061018082870135818701526101a092508087013583870152506101c082870135818701526101e09250808701358387015250610200828701358187015261022092508087013583870152506102408287013581870152614d44818801614bf2565b925050610260614d578187018415159052565b614d62818801614adc565b9250506122768186018360ff169052565b600080600060608486031215614d8857600080fd5b8351925060208401519150604084015190509250925092565b634e487b7160e01b600052600160045260246000fd5b60006001600160401b03808316818103614dd357614dd361440b565b600101939250505056feec7e8c1c441439dd40959777f4c577ea0cd42fcc1dbe59d2bd0f5d9c55df8db6a2646970667358221220658d16fad59db3a2b94b72bb3e1e4949744253a205d2ccc07e5c02df353f31e364736f6c63430008170033",
  "linkReferences": {},
  "deployedLinkReferences": {}
}