{
  "_format": "hh-sol-artifact-1",
  "contractName": "FtsoRegistryMock",
  "sourceName": "contracts/assetManager/mock/FtsoRegistryMock.sol",
  "abi": [
    {
      "inputs": [
        {
          "internalType": "contract IIFtso",
          "name": "_ftsoContract",
          "type": "address"
        }
      ],
      "name": "addFtso",
      "outputs": [
        {
          "internalType": "uint256",
          "name": "",
          "type": "uint256"
        }
      ],
      "stateMutability": "nonpayable",
      "type": "function"
    },
    {
      "inputs": [],
      "name": "getAllCurrentPrices",
      "outputs": [
        {
          "components": [
            {
              "internalType": "uint256",
              "name": "ftsoIndex",
              "type": "uint256"
            },
            {
              "internalType": "uint256",
              "name": "price",
              "type": "uint256"
            },
            {
              "internalType": "uint256",
              "name": "decimals",
              "type": "uint256"
            },
            {
              "internalType": "uint256",
              "name": "timestamp",
              "type": "uint256"
            }
          ],
          "internalType": "struct IFtsoRegistry.PriceInfo[]",
          "name": "",
          "type": "tuple[]"
        }
      ],
      "stateMutability": "view",
      "type": "function"
    },
    {
      "inputs": [
        {
          "internalType": "string",
          "name": "_symbol",
          "type": "string"
        }
      ],
      "name": "getCurrentPrice",
      "outputs": [
        {
          "internalType": "uint256",
          "name": "_price",
          "type": "uint256"
        },
        {
          "internalType": "uint256",
          "name": "_timestamp",
          "type": "uint256"
        }
      ],
      "stateMutability": "view",
      "type": "function"
    },
    {
      "inputs": [
        {
          "internalType": "uint256",
          "name": "_ftsoIndex",
          "type": "uint256"
        }
      ],
      "name": "getCurrentPrice",
      "outputs": [
        {
          "internalType": "uint256",
          "name": "_price",
          "type": "uint256"
        },
        {
          "internalType": "uint256",
          "name": "_timestamp",
          "type": "uint256"
        }
      ],
      "stateMutability": "view",
      "type": "function"
    },
    {
      "inputs": [
        {
          "internalType": "uint256",
          "name": "_ftsoIndex",
          "type": "uint256"
        }
      ],
      "name": "getCurrentPriceWithDecimals",
      "outputs": [
        {
          "internalType": "uint256",
          "name": "_price",
          "type": "uint256"
        },
        {
          "internalType": "uint256",
          "name": "_timestamp",
          "type": "uint256"
        },
        {
          "internalType": "uint256",
          "name": "_assetPriceUsdDecimals",
          "type": "uint256"
        }
      ],
      "stateMutability": "view",
      "type": "function"
    },
    {
      "inputs": [
        {
          "internalType": "string",
          "name": "_symbol",
          "type": "string"
        }
      ],
      "name": "getCurrentPriceWithDecimals",
      "outputs": [
        {
          "internalType": "uint256",
          "name": "_price",
          "type": "uint256"
        },
        {
          "internalType": "uint256",
          "name": "_timestamp",
          "type": "uint256"
        },
        {
          "internalType": "uint256",
          "name": "_assetPriceUsdDecimals",
          "type": "uint256"
        }
      ],
      "stateMutability": "view",
      "type": "function"
    },
    {
      "inputs": [
        {
          "internalType": "uint256[]",
          "name": "_indices",
          "type": "uint256[]"
        }
      ],
      "name": "getCurrentPricesByIndices",
      "outputs": [
        {
          "components": [
            {
              "internalType": "uint256",
              "name": "ftsoIndex",
              "type": "uint256"
            },
            {
              "internalType": "uint256",
              "name": "price",
              "type": "uint256"
            },
            {
              "internalType": "uint256",
              "name": "decimals",
              "type": "uint256"
            },
            {
              "internalType": "uint256",
              "name": "timestamp",
              "type": "uint256"
            }
          ],
          "internalType": "struct IFtsoRegistry.PriceInfo[]",
          "name": "",
          "type": "tuple[]"
        }
      ],
      "stateMutability": "view",
      "type": "function"
    },
    {
      "inputs": [
        {
          "internalType": "string[]",
          "name": "_symbols",
          "type": "string[]"
        }
      ],
      "name": "getCurrentPricesBySymbols",
      "outputs": [
        {
          "components": [
            {
              "internalType": "uint256",
              "name": "ftsoIndex",
              "type": "uint256"
            },
            {
              "internalType": "uint256",
              "name": "price",
              "type": "uint256"
            },
            {
              "internalType": "uint256",
              "name": "decimals",
              "type": "uint256"
            },
            {
              "internalType": "uint256",
              "name": "timestamp",
              "type": "uint256"
            }
          ],
          "internalType": "struct IFtsoRegistry.PriceInfo[]",
          "name": "",
          "type": "tuple[]"
        }
      ],
      "stateMutability": "view",
      "type": "function"
    },
    {
      "inputs": [
        {
          "internalType": "uint256",
          "name": "_ftsoIndex",
          "type": "uint256"
        }
      ],
      "name": "getFtso",
      "outputs": [
        {
          "internalType": "contract IIFtso",
          "name": "_activeFtsoAddress",
          "type": "address"
        }
      ],
      "stateMutability": "view",
      "type": "function"
    },
    {
      "inputs": [
        {
          "internalType": "string",
          "name": "_symbol",
          "type": "string"
        }
      ],
      "name": "getFtsoBySymbol",
      "outputs": [
        {
          "internalType": "contract IIFtso",
          "name": "_activeFtsoAddress",
          "type": "address"
        }
      ],
      "stateMutability": "view",
      "type": "function"
    },
    {
      "inputs": [
        {
          "internalType": "string",
          "name": "_symbol",
          "type": "string"
        }
      ],
      "name": "getFtsoIndex",
      "outputs": [
        {
          "internalType": "uint256",
          "name": "",
          "type": "uint256"
        }
      ],
      "stateMutability": "view",
      "type": "function"
    },
    {
      "inputs": [
        {
          "internalType": "uint256",
          "name": "_ftsoIndex",
          "type": "uint256"
        }
      ],
      "name": "getFtsoSymbol",
      "outputs": [
        {
          "internalType": "string",
          "name": "_symbol",
          "type": "string"
        }
      ],
      "stateMutability": "view",
      "type": "function"
    },
    {
      "inputs": [
        {
          "internalType": "uint256[]",
          "name": "_indices",
          "type": "uint256[]"
        }
      ],
      "name": "getFtsos",
      "outputs": [
        {
          "internalType": "contract IFtsoGenesis[]",
          "name": "_ftsos",
          "type": "address[]"
        }
      ],
      "stateMutability": "view",
      "type": "function"
    },
    {
      "inputs": [],
      "name": "getSupportedFtsos",
      "outputs": [
        {
          "internalType": "contract IIFtso[]",
          "name": "_ftsos",
          "type": "address[]"
        }
      ],
      "stateMutability": "view",
      "type": "function"
    },
    {
      "inputs": [],
      "name": "getSupportedIndices",
      "outputs": [
        {
          "internalType": "uint256[]",
          "name": "_supportedIndices",
          "type": "uint256[]"
        }
      ],
      "stateMutability": "view",
      "type": "function"
    },
    {
      "inputs": [],
      "name": "getSupportedIndicesAndFtsos",
      "outputs": [
        {
          "internalType": "uint256[]",
          "name": "_supportedIndices",
          "type": "uint256[]"
        },
        {
          "internalType": "contract IIFtso[]",
          "name": "_ftsos",
          "type": "address[]"
        }
      ],
      "stateMutability": "view",
      "type": "function"
    },
    {
      "inputs": [],
      "name": "getSupportedIndicesAndSymbols",
      "outputs": [
        {
          "internalType": "uint256[]",
          "name": "_supportedIndices",
          "type": "uint256[]"
        },
        {
          "internalType": "string[]",
          "name": "_supportedSymbols",
          "type": "string[]"
        }
      ],
      "stateMutability": "view",
      "type": "function"
    },
    {
      "inputs": [],
      "name": "getSupportedIndicesSymbolsAndFtsos",
      "outputs": [
        {
          "internalType": "uint256[]",
          "name": "_supportedIndices",
          "type": "uint256[]"
        },
        {
          "internalType": "string[]",
          "name": "_supportedSymbols",
          "type": "string[]"
        },
        {
          "internalType": "contract IIFtso[]",
          "name": "_ftsos",
          "type": "address[]"
        }
      ],
      "stateMutability": "view",
      "type": "function"
    },
    {
      "inputs": [],
      "name": "getSupportedSymbols",
      "outputs": [
        {
          "internalType": "string[]",
          "name": "_supportedSymbols",
          "type": "string[]"
        }
      ],
      "stateMutability": "view",
      "type": "function"
    },
    {
      "inputs": [],
      "name": "getSupportedSymbolsAndFtsos",
      "outputs": [
        {
          "internalType": "string[]",
          "name": "_supportedSymbols",
          "type": "string[]"
        },
        {
          "internalType": "contract IIFtso[]",
          "name": "_ftsos",
          "type": "address[]"
        }
      ],
      "stateMutability": "view",
      "type": "function"
    }
  ],
  "bytecode": "0x608060405234801561001057600080fd5b50610fa4806100206000396000f3fe608060405234801561001057600080fd5b506004361061012c5760003560e01c806379d5ea4b116100ad578063c55d0f5611610071578063c55d0f56146102bb578063ce1c0e4d146102ce578063d75f6d81146102e3578063e68f283b146102f6578063e848da301461030757600080fd5b806379d5ea4b1461023a57806397da6af4146102485780639cb4753814610273578063a40060ba14610293578063a69afdc6146102a857600080fd5b806342a0f243116100f457806342a0f243146101cc57806358f9296f146101f45780636ba31fa1146102045780637687542c14610212578063798aac5b1461022557600080fd5b806306a2ba29146101315780630cf484971461014b578063136d3f641461015c578063257cbd3a1461017d5780632663f1b4146101ab575b600080fd5b606080604051610142929190610946565b60405180910390f35b606080604051610142929190610a1e565b61017061016a366004610a31565b50606090565b6040516101429190610a4a565b61019061018b366004610a31565b61031a565b60408051938452602084019290925290820152606001610142565b6101be6101b9366004610a5d565b610396565b604051908152602001610142565b6101df6101da366004610b4b565b610477565b60408051928352602083019190915201610142565b60605b6040516101429190610b88565b6101f761016a366004610c10565b6060808060405161014293929190610ca1565b61022d6104ec565b6040516101429190610ce4565b6101f761016a366004610cf7565b61025b610256366004610b4b565b610576565b6040516001600160a01b039091168152602001610142565b610286610281366004610c10565b61058a565b6040516101429190610da8565b61029b610689565b6040516101429190610df5565b6101906102b6366004610b4b565b6106eb565b6101df6102c9366004610a31565b6106f9565b6102d6610705565b6040516101429190610e08565b61025b6102f1366004610a31565b610811565b606080604051610142929190610e1b565b6101be610315366004610b4b565b610850565b600080600061032884610811565b6001600160a01b03166365f5cd866040518163ffffffff1660e01b8152600401606060405180830381865afa158015610365573d6000803e3d6000fd5b505050506040513d601f19601f820116820180604052508101906103899190610e40565b9250925092509193909250565b60018054808201825560008281527fb10e2d527612073b26eecdfd717e6a320cf44b4afac2b0732d9fcbe2b7fa0cf6820180546001600160a01b0319166001600160a01b038616179055916103ec908290610e84565b6000846001600160a01b03166395d89b416040518163ffffffff1660e01b8152600401600060405180830381865afa15801561042c573d6000803e3d6000fd5b505050506040513d6000823e601f3d908101601f191682016040526104549190810190610e97565b6040516104619190610f05565b9081526040519081900360200190205592915050565b60008061048383610576565b6001600160a01b031663eb91d37e6040518163ffffffff1660e01b81526004016040805180830381865afa1580156104bf573d6000803e3d6000fd5b505050506040513d601f19601f820116820180604052508101906104e39190610f21565b91509150915091565b60015460609067ffffffffffffffff81111561050a5761050a610a86565b604051908082528060200260200182016040528015610533578160200160208202803683370190505b50905060005b81518110156105725761054d816001610e84565b82828151811061055f5761055f610f45565b6020908102919091010152600101610539565b5090565b60006105846102f183610850565b92915050565b6060815167ffffffffffffffff8111156105a6576105a6610a86565b6040519080825280602002602001820160405280156105cf578160200160208202803683370190505b50905060005b82518110156106835760015483518490839081106105f5576105f5610f45565b60200260200101511061060757600080fd5b600183828151811061061b5761061b610f45565b60200260200101518154811061063357610633610f45565b9060005260206000200160009054906101000a90046001600160a01b031682828151811061066357610663610f45565b6001600160a01b03909216602092830291909101909101526001016105d5565b50919050565b606060018054806020026020016040519081016040528092919081815260200182805480156106e157602002820191906000526020600020905b81546001600160a01b031681526001909101906020018083116106c3575b5050505050905090565b600080600061032884610576565b60008061048383610811565b60015460609067ffffffffffffffff81111561072357610723610a86565b60405190808252806020026020018201604052801561075657816020015b60608152602001906001900390816107415790505b50905060005b8151811015610572576001818154811061077857610778610f45565b6000918252602082200154604080516395d89b4160e01b815290516001600160a01b03909216926395d89b41926004808401938290030181865afa1580156107c4573d6000803e3d6000fd5b505050506040513d6000823e601f3d908101601f191682016040526107ec9190810190610e97565b8282815181106107fe576107fe610f45565b602090810291909101015260010161075c565b600154600090821061082257600080fd5b6001828154811061083557610835610f45565b6000918252602090912001546001600160a01b031692915050565b6000806000836040516108639190610f05565b9081526020016040518091039020549050600081116108be5760405162461bcd60e51b81526020600482015260136024820152721d5b9adb9bdddb88199d1cdbc81cde5b589bdb606a1b604482015260640160405180910390fd5b6108c9600182610f5b565b9392505050565b60008151808452602080850194506020840160005b83811015610901578151875295820195908201906001016108e5565b509495945050505050565b60008151808452602080850194506020840160005b838110156109015781516001600160a01b031687529582019590820190600101610921565b60408152600061095960408301856108d0565b828103602084015261096b818561090c565b95945050505050565b60005b8381101561098f578181015183820152602001610977565b50506000910152565b600081518084526109b0816020860160208601610974565b601f01601f19169290920160200192915050565b60008282518085526020808601955060208260051b8401016020860160005b84811015610a1157601f198684030189526109ff838351610998565b988401989250908301906001016109e3565b5090979650505050505050565b60408152600061095960408301856109c4565b600060208284031215610a4357600080fd5b5035919050565b6020815260006108c96020830184610998565b600060208284031215610a6f57600080fd5b81356001600160a01b03811681146108c957600080fd5b634e487b7160e01b600052604160045260246000fd5b604051601f8201601f1916810167ffffffffffffffff81118282101715610ac557610ac5610a86565b604052919050565b600067ffffffffffffffff821115610ae757610ae7610a86565b50601f01601f191660200190565b600082601f830112610b0657600080fd5b8135610b19610b1482610acd565b610a9c565b818152846020838601011115610b2e57600080fd5b816020850160208301376000918101602001919091529392505050565b600060208284031215610b5d57600080fd5b813567ffffffffffffffff811115610b7457600080fd5b610b8084828501610af5565b949350505050565b602080825282518282018190526000919060409081850190868401855b82811015610bdf57815180518552868101518786015285810151868601526060908101519085015260809093019290850190600101610ba5565b5091979650505050505050565b600067ffffffffffffffff821115610c0657610c06610a86565b5060051b60200190565b60006020808385031215610c2357600080fd5b823567ffffffffffffffff811115610c3a57600080fd5b8301601f81018513610c4b57600080fd5b8035610c59610b1482610bec565b81815260059190911b82018301908381019087831115610c7857600080fd5b928401925b82841015610c9657833582529284019290840190610c7d565b979650505050505050565b606081526000610cb460608301866108d0565b8281036020840152610cc681866109c4565b90508281036040840152610cda818561090c565b9695505050505050565b6020815260006108c960208301846108d0565b60006020808385031215610d0a57600080fd5b823567ffffffffffffffff80821115610d2257600080fd5b818501915085601f830112610d3657600080fd5b8135610d44610b1482610bec565b81815260059190911b83018401908481019088831115610d6357600080fd5b8585015b83811015610d9b57803585811115610d7f5760008081fd5b610d8d8b89838a0101610af5565b845250918601918601610d67565b5098975050505050505050565b6020808252825182820181905260009190848201906040850190845b81811015610de95783516001600160a01b031683529284019291840191600101610dc4565b50909695505050505050565b6020815260006108c9602083018461090c565b6020815260006108c960208301846109c4565b604081526000610e2e60408301856108d0565b828103602084015261096b81856109c4565b600080600060608486031215610e5557600080fd5b8351925060208401519150604084015190509250925092565b634e487b7160e01b600052601160045260246000fd5b8082018082111561058457610584610e6e565b600060208284031215610ea957600080fd5b815167ffffffffffffffff811115610ec057600080fd5b8201601f81018413610ed157600080fd5b8051610edf610b1482610acd565b818152856020838501011115610ef457600080fd5b61096b826020830160208601610974565b60008251610f17818460208701610974565b9190910192915050565b60008060408385031215610f3457600080fd5b505080516020909101519092909150565b634e487b7160e01b600052603260045260246000fd5b8181038181111561058457610584610e6e56fea2646970667358221220b385d4e551aed28daaa72b9bc79cad8e826f518d748d52f8234ea5104b4713f764736f6c63430008170033",
  "linkReferences": {},
  "deployedLinkReferences": {}
}