{
  "_format": "hh-sol-artifact-1",
  "contractName": "RedemptionDefaultsFacet",
  "sourceName": "contracts/assetManager/facets/RedemptionDefaultsFacet.sol",
  "abi": [
    {
      "anonymous": false,
      "inputs": [
        {
          "indexed": true,
          "internalType": "address",
          "name": "agentVault",
          "type": "address"
        },
        {
          "indexed": false,
          "internalType": "uint256",
          "name": "dustUBA",
          "type": "uint256"
        }
      ],
      "name": "DustChanged",
      "type": "event"
    },
    {
      "anonymous": false,
      "inputs": [
        {
          "indexed": true,
          "internalType": "address",
          "name": "agentVault",
          "type": "address"
        },
        {
          "indexed": true,
          "internalType": "address",
          "name": "redeemer",
          "type": "address"
        },
        {
          "indexed": true,
          "internalType": "uint64",
          "name": "requestId",
          "type": "uint64"
        },
        {
          "indexed": false,
          "internalType": "uint256",
          "name": "redemptionAmountUBA",
          "type": "uint256"
        },
        {
          "indexed": false,
          "internalType": "uint256",
          "name": "redeemedVaultCollateralWei",
          "type": "uint256"
        },
        {
          "indexed": false,
          "internalType": "uint256",
          "name": "redeemedPoolCollateralWei",
          "type": "uint256"
        }
      ],
      "name": "RedemptionDefault",
      "type": "event"
    },
    {
      "anonymous": false,
      "inputs": [
        {
          "indexed": true,
          "internalType": "address",
          "name": "agentVault",
          "type": "address"
        },
        {
          "indexed": true,
          "internalType": "uint256",
          "name": "redemptionTicketId",
          "type": "uint256"
        },
        {
          "indexed": false,
          "internalType": "uint256",
          "name": "ticketValueUBA",
          "type": "uint256"
        }
      ],
      "name": "RedemptionTicketCreated",
      "type": "event"
    },
    {
      "anonymous": false,
      "inputs": [
        {
          "indexed": true,
          "internalType": "address",
          "name": "agentVault",
          "type": "address"
        },
        {
          "indexed": true,
          "internalType": "uint256",
          "name": "redemptionTicketId",
          "type": "uint256"
        },
        {
          "indexed": false,
          "internalType": "uint256",
          "name": "ticketValueUBA",
          "type": "uint256"
        }
      ],
      "name": "RedemptionTicketUpdated",
      "type": "event"
    },
    {
      "anonymous": false,
      "inputs": [
        {
          "indexed": true,
          "internalType": "address",
          "name": "agentVault",
          "type": "address"
        },
        {
          "indexed": true,
          "internalType": "uint256",
          "name": "transferRedemptionRequestId",
          "type": "uint256"
        },
        {
          "indexed": false,
          "internalType": "uint256",
          "name": "remintedUBA",
          "type": "uint256"
        }
      ],
      "name": "TransferToCoreVaultDefaulted",
      "type": "event"
    },
    {
      "inputs": [
        {
          "components": [
            {
              "internalType": "bytes32[]",
              "name": "merkleProof",
              "type": "bytes32[]"
            },
            {
              "components": [
                {
                  "internalType": "bytes32",
                  "name": "attestationType",
                  "type": "bytes32"
                },
                {
                  "internalType": "bytes32",
                  "name": "sourceId",
                  "type": "bytes32"
                },
                {
                  "internalType": "uint64",
                  "name": "votingRound",
                  "type": "uint64"
                },
                {
                  "internalType": "uint64",
                  "name": "lowestUsedTimestamp",
                  "type": "uint64"
                },
                {
                  "components": [
                    {
                      "internalType": "uint64",
                      "name": "blockNumber",
                      "type": "uint64"
                    },
                    {
                      "internalType": "uint64",
                      "name": "queryWindow",
                      "type": "uint64"
                    }
                  ],
                  "internalType": "struct IConfirmedBlockHeightExists.RequestBody",
                  "name": "requestBody",
                  "type": "tuple"
                },
                {
                  "components": [
                    {
                      "internalType": "uint64",
                      "name": "blockTimestamp",
                      "type": "uint64"
                    },
                    {
                      "internalType": "uint64",
                      "name": "numberOfConfirmations",
                      "type": "uint64"
                    },
                    {
                      "internalType": "uint64",
                      "name": "lowestQueryWindowBlockNumber",
                      "type": "uint64"
                    },
                    {
                      "internalType": "uint64",
                      "name": "lowestQueryWindowBlockTimestamp",
                      "type": "uint64"
                    }
                  ],
                  "internalType": "struct IConfirmedBlockHeightExists.ResponseBody",
                  "name": "responseBody",
                  "type": "tuple"
                }
              ],
              "internalType": "struct IConfirmedBlockHeightExists.Response",
              "name": "data",
              "type": "tuple"
            }
          ],
          "internalType": "struct IConfirmedBlockHeightExists.Proof",
          "name": "_proof",
          "type": "tuple"
        },
        {
          "internalType": "uint256",
          "name": "_redemptionRequestId",
          "type": "uint256"
        }
      ],
      "name": "finishRedemptionWithoutPayment",
      "outputs": [],
      "stateMutability": "nonpayable",
      "type": "function"
    },
    {
      "inputs": [
        {
          "components": [
            {
              "internalType": "bytes32[]",
              "name": "merkleProof",
              "type": "bytes32[]"
            },
            {
              "components": [
                {
                  "internalType": "bytes32",
                  "name": "attestationType",
                  "type": "bytes32"
                },
                {
                  "internalType": "bytes32",
                  "name": "sourceId",
                  "type": "bytes32"
                },
                {
                  "internalType": "uint64",
                  "name": "votingRound",
                  "type": "uint64"
                },
                {
                  "internalType": "uint64",
                  "name": "lowestUsedTimestamp",
                  "type": "uint64"
                },
                {
                  "components": [
                    {
                      "internalType": "uint64",
                      "name": "minimalBlockNumber",
                      "type": "uint64"
                    },
                    {
                      "internalType": "uint64",
                      "name": "deadlineBlockNumber",
                      "type": "uint64"
                    },
                    {
                      "internalType": "uint64",
                      "name": "deadlineTimestamp",
                      "type": "uint64"
                    },
                    {
                      "internalType": "bytes32",
                      "name": "destinationAddressHash",
                      "type": "bytes32"
                    },
                    {
                      "internalType": "uint256",
                      "name": "amount",
                      "type": "uint256"
                    },
                    {
                      "internalType": "bytes32",
                      "name": "standardPaymentReference",
                      "type": "bytes32"
                    },
                    {
                      "internalType": "bool",
                      "name": "checkSourceAddresses",
                      "type": "bool"
                    },
                    {
                      "internalType": "bytes32",
                      "name": "sourceAddressesRoot",
                      "type": "bytes32"
                    }
                  ],
                  "internalType": "struct IReferencedPaymentNonexistence.RequestBody",
                  "name": "requestBody",
                  "type": "tuple"
                },
                {
                  "components": [
                    {
                      "internalType": "uint64",
                      "name": "minimalBlockTimestamp",
                      "type": "uint64"
                    },
                    {
                      "internalType": "uint64",
                      "name": "firstOverflowBlockNumber",
                      "type": "uint64"
                    },
                    {
                      "internalType": "uint64",
                      "name": "firstOverflowBlockTimestamp",
                      "type": "uint64"
                    }
                  ],
                  "internalType": "struct IReferencedPaymentNonexistence.ResponseBody",
                  "name": "responseBody",
                  "type": "tuple"
                }
              ],
              "internalType": "struct IReferencedPaymentNonexistence.Response",
              "name": "data",
              "type": "tuple"
            }
          ],
          "internalType": "struct IReferencedPaymentNonexistence.Proof",
          "name": "_proof",
          "type": "tuple"
        },
        {
          "internalType": "uint256",
          "name": "_redemptionRequestId",
          "type": "uint256"
        }
      ],
      "name": "redemptionPaymentDefault",
      "outputs": [],
      "stateMutability": "nonpayable",
      "type": "function"
    },
    {
      "inputs": [
        {
          "internalType": "uint256",
          "name": "_redemptionRequestId",
          "type": "uint256"
        }
      ],
      "name": "rejectedRedemptionPaymentDefault",
      "outputs": [],
      "stateMutability": "nonpayable",
      "type": "function"
    }
  ],
  "bytecode": "0x608060405234801561001057600080fd5b50614066806100206000396000f3fe608060405234801561001057600080fd5b50600436106100415760003560e01c806337fbae91146100465780633e1cacee1461005b5780637b3477c31461006e575b600080fd5b61005961005436600461384b565b610081565b005b610059610069366004613895565b6100b6565b61005961007c3660046138ae565b6100e9565b610089610103565b61009b826100968361016f565b6101db565b6100b2600160008051602061401183398151915255565b5050565b6100be610103565b6100cf6100ca8261016f565b6105ac565b6100e6600160008051602061401183398151915255565b50565b6100f1610103565b61009b826100fe8361016f565b610814565b6000805160206140118339815191528054600119016101695760405162461bcd60e51b815260206004820152601f60248201527f5265656e7472616e637947756172643a207265656e7472616e742063616c6c0060448201526064015b60405180910390fd5b60029055565b60006001600160401b038211156101d75760405162461bcd60e51b815260206004820152602660248201527f53616665436173743a2076616c756520646f65736e27742066697420696e203660448201526534206269747360d01b6064820152608401610160565b5090565b6101ed61018083016101608401613908565b1561023a5760405162461bcd60e51b815260206004820152601e60248201527f736f7572636520616464726573736573206e6f7420737570706f7274656400006044820152606401610160565b6000610245826109c4565b6004810154909150600090610262906001600160a01b0316610aa6565b905060016004830154600160a01b900460ff16600281111561028657610286613925565b146102cf5760405162461bcd60e51b8152602060048201526019602482015278696e76616c696420726564656d7074696f6e2073746174757360381b6044820152606401610160565b6102d884610b47565b67232128293320800160c11b6001600160401b0384161761014085013514801561030757508154610100850135145b80156103405750600182015461032f906001600160801b03600160801b820481169116613951565b6001600160801b0316610120850135145b61038c5760405162461bcd60e51b815260206004820152601f60248201527f726564656d7074696f6e206e6f6e2d7061796d656e74206d69736d61746368006044820152606401610160565b6002820154600160401b90046001600160401b03166103b36101e086016101c0870161398f565b6001600160401b03161180156103f657506002820154600160801b90046001600160401b03166103eb61020086016101e0870161398f565b6001600160401b0316115b6104425760405162461bcd60e51b815260206004820152601c60248201527f726564656d7074696f6e2064656661756c7420746f6f206561726c79000000006044820152606401610160565b60028201546001600160401b031661046060c0860160a0870161398f565b6001600160401b031611156104cd5760405162461bcd60e51b815260206004820152602d60248201527f726564656d7074696f6e206e6f6e2d7061796d656e742070726f6f662077696e60448201526c191bddc81d1bdbc81cda1bdc9d609a1b6064820152608401610160565b60038201546000906001600160a01b03163314806104f7575060058301546001600160a01b031633145b8061050757506105078233610c9e565b90508080610519575061051983610d72565b6105655760405162461bcd60e51b815260206004820181905260248201527f6f6e6c792072656465656d65722c206578656375746f72206f72206167656e746044820152606401610160565b610570828486610dd5565b8061057f5761057f8233610fbe565b61058883611014565b6004830180546002919060ff60a01b1916600160a01b835b02179055505050505050565b60006105b7826109c4565b60048101549091506000906105d4906001600160a01b0316610aa6565b905060016004830154600160a01b900460ff1660028111156105f8576105f8613925565b146106415760405162461bcd60e51b8152602060048201526019602482015278696e76616c696420726564656d7074696f6e2073746174757360381b6044820152606401610160565b60068201546001600160401b031660000361069e5760405162461bcd60e51b815260206004820152601860248201527f6f6e6c792072656a656374656420726564656d7074696f6e00000000000000006044820152606401610160565b600882015460ff16156106b3576106b36139aa565b7f4f24f5c433db0962dac0d2c8b84197a6e6c7cc4e5d9ebe1916a1b6193da2f352546006830154600080516020613fd183398151915291429161070991600160501b90046001600160401b0390811691166139c0565b6001600160401b0316111561076e5760405162461bcd60e51b815260206004820152602560248201527f72656a656374656420726564656d7074696f6e2064656661756c7420746f6f206044820152646561726c7960d81b6064820152608401610160565b60038301546001600160a01b0316331480610795575060058301546001600160a01b031633145b806107a557506107a58233610c9e565b6107f15760405162461bcd60e51b815260206004820181905260248201527f6f6e6c792072656465656d65722c206578656375746f72206f72206167656e746044820152606401610160565b6107fc828486610dd5565b61080583611014565b61080e8461108b565b50505050565b600080516020613fd1833981519152600061082e836109c4565b600481015490915060009061084b906001600160a01b0316610aa6565b905061085681611158565b60016004830154600160a01b900460ff16600281111561087857610878613925565b036109bd57610886856111a7565b6002820154600160401b90046001600160401b03166108ad6101408701610120880161398f565b6001600160401b03161180156108f057506002820154600160801b90046001600160401b03166108e56101608701610140880161398f565b6001600160401b0316115b801561094a5750610908610100860160e0870161398f565b60118401546001600160401b0391821691600160401b909104166109346101608801610140890161398f565b61093e91906139c0565b6001600160401b031611155b61098d5760405162461bcd60e51b81526020600482015260146024820152731cda1bdd5b1908191959985d5b1d08199a5c9cdd60621b6044820152606401610160565b610998818386610dd5565b6109a182611014565b6004820180546002919060ff60a01b1916600160a01b836105a0565b5050505050565b6000600080516020613ff18339815191526001600160401b0383168203610a225760405162461bcd60e51b81526020600482015260126024820152711a5b9d985b1a59081c995c5d595cdd081a5960721b6044820152606401610160565b6001600160401b0383166000908152600a82016020526040812092506004830154600160a01b900460ff166002811115610a5e57610a5e613925565b03610aa05760405162461bcd60e51b81526020600482015260126024820152711a5b9d985b1a59081c995c5d595cdd081a5960721b6044820152606401610160565b50919050565b7f5bebac0595fee029d42bb673937f5f1cb81cf8641382bc17774635de9b7d796568010000000000000000600160e01b03604083901b161880600060048084015460ff1690811115610afa57610afa613925565b03610aa05760405162461bcd60e51b815260206004820152601b60248201527f696e76616c6964206167656e74207661756c74206164647265737300000000006044820152606401610160565b7f4f24f5c433db0962dac0d2c8b84197a6e6c7cc4e5d9ebe1916a1b6193da2f342547f4f24f5c433db0962dac0d2c8b84197a6e6c7cc4e5d9ebe1916a1b6193da2f34554600080516020613fd1833981519152916001600160a01b031690604084013514610be75760405162461bcd60e51b815260206004820152600d60248201526c34b73b30b634b21031b430b4b760991b6044820152606401610160565b60405163d577275160e01b81526001600160a01b0382169063d577275190610c13908690600401613aa1565b602060405180830381865afa158015610c30573d6000803e3d6000fd5b505050506040513d601f19601f82011682018060405250810190610c549190613bb7565b610c995760405162461bcd60e51b81526020600482015260166024820152751b9bdb8b5c185e5b595b9d081b9bdd081c1c9bdd995960521b6044820152606401610160565b505050565b60018201546000906001600160a01b03908116908316811480610d6857507f4f24f5c433db0962dac0d2c8b84197a6e6c7cc4e5d9ebe1916a1b6193da2f341546001600160a01b0316604051631f86345d60e31b81526001600160a01b038381166004830152919091169063fc31a2e890602401602060405180830381865afa158015610d2f573d6000803e3d6000fd5b505050506040513d601f19601f82011682018060405250810190610d539190613be9565b6001600160a01b0316836001600160a01b0316145b9150505b92915050565b6008810154600090600080516020613fd18339815191529060ff168015610dce5750600e8101546003840154610dc2916001600160401b03600160901b909104811691600160a01b9004166139c0565b6001600160401b031642115b9392505050565b60016004830154600160a01b900460ff166002811115610df757610df7613925565b14610e0457610e046139aa565b600882015460ff16610f3657600080610e1d8585611300565b60038601549193509150600090610e3f9087906001600160a01b03168561151f565b50905080610e5a57610e538686858561163c565b9150600092505b8115610e7d576003850154610e7b9087906001600160a01b0316848061187c565b505b610eb0868660020160189054906101000a90046001600160401b03168760040160159054906101000a900460ff16611987565b60038501546001600160401b038516906001600160a01b0316610ed288611a7d565b6001880154604080516001600160801b0390921682526020820188905281018690526001600160a01b0391909116907f3d88a018be66851f57adfd6fde7c19c103407f95df0b7c2640baf28a0330c6949060600160405180910390a4505050505050565b60038201546001600160401b038216906001600160a01b0316610f5885611a7d565b6001850154604080516001600160801b03909216825260006020830181905282820152516001600160a01b0392909216917f3d88a018be66851f57adfd6fde7c19c103407f95df0b7c2640baf28a0330c6949181900360600190a4610c99838383611aa5565b7f4f24f5c433db0962dac0d2c8b84197a6e6c7cc4e5d9ebe1916a1b6193da2f34954600080516020613fd1833981519152906000906110079085906001600160801b0316611b27565b90506109bd848483611b3b565b600581015460009061103b90633b9aca0090600160a01b90046001600160401b0316613c06565b905080156100b25760058201805467ffffffffffffffff60a01b1981169091556001600160a01b031633036110825760058201546100b2906001600160a01b031682611c04565b6100b281611cad565b61109481611d14565b6001600160401b03811660009081527fec7e8c1c441439dd40959777f4c577ea0cd42fcc1dbe59d2bd0f5d9c55df8dc06020526040812081815560018101829055600281018290556003810180546001600160e01b03199081169091556004820180546001600160b01b031916905560058201805490911690556006810180546fffffffffffffffffffffffffffffffff19169055600080516020613ff1833981519152916111466007830182613801565b50600801805462ffffff191690555050565b6111628133610c9e565b6100e65760405162461bcd60e51b815260206004820152601660248201527537b7363c9030b3b2b73a103b30bab63a1037bbb732b960511b6044820152606401610160565b7f4f24f5c433db0962dac0d2c8b84197a6e6c7cc4e5d9ebe1916a1b6193da2f342547f4f24f5c433db0962dac0d2c8b84197a6e6c7cc4e5d9ebe1916a1b6193da2f34554600080516020613fd1833981519152916001600160a01b0316906040840135146112475760405162461bcd60e51b815260206004820152600d60248201526c34b73b30b634b21031b430b4b760991b6044820152606401610160565b604051635e30ebfb60e01b81526001600160a01b03821690635e30ebfb90611273908690600401613c1d565b602060405180830381865afa158015611290573d6000803e3d6000fd5b505050506040513d601f19601f820116820180604052508101906112b49190613bb7565b610c995760405162461bcd60e51b815260206004820152601760248201527f626c6f636b20686569676874206e6f742070726f7665640000000000000000006044820152606401610160565b600080600080516020613fd18339815191528161131c86611d85565b60028601549091506000906113449083908990600160c01b90046001600160401b0316611e65565b6004870154909150600160a81b900460ff1615611396576002860154604083015161137f91600160c01b90046001600160401b031690611f2c565b94506000935061138f8582611f46565b9450611515565b60068601546001600160401b03161515611412816113c557600e850154600160501b900463ffffffff166113d8565b6018850154600160901b900463ffffffff165b63ffffffff1661140c8960020160189054906101000a90046001600160401b03166001600160401b03168660400151611f2c565b90611f5c565b9550600061141f89611f6b565b90506114878261144057600e860154600160701b900463ffffffff16611453565b6018860154600160b01b900463ffffffff165b63ffffffff1661140c8a60020160189054906101000a90046001600160401b03166001600160401b03168460400151611f2c565b60028901549096506000906114af9083908c90600160c01b90046001600160401b0316611e65565b9050838811156115055760006114e46114c8868b613d17565b60028c0154600160c01b90046001600160401b0316908b611ff6565b90506114f4818460400151611f2c565b6114fe9089613d2a565b9750849850505b61150f8782611f46565b96505050505b5050509250929050565b600080600061152d86612033565b9050600061153a87611a7d565b82546040516370a0823160e01b81526001600160a01b0380841660048301529293506115b492889216906370a08231906024015b602060405180830381865afa15801561158b573d6000803e3d6000fd5b505050506040513d601f19601f820116820180604052508101906115af9190613d3d565b611f46565b825460405163083e007560e21b81526001600160a01b0391821660048201528882166024820152604481018390529194508216906320f801d490606401600060405180830381600087803b15801561160b57600080fd5b505af192505050801561161c575060015b61162d576000935060009250611632565b600193505b5050935093915050565b60008061164886612080565b90506000611671826040015160400151836000015160400151876121219092919063ffffffff16565b90506000611712600080516020613fd1833981519152600c0154604085810151015164010000000090910463ffffffff169061140c906116b36009600a613e3a565b60028c015460058e01546001600160401b03600160c01b909204821691600160801b82048116916116ee91600160401b8204811691166139c0565b6116f891906139c0565b6117029190613e46565b6001600160401b03169190612121565b6040840151602001519091506117288383613d2a565b111561179c5760405162461bcd60e51b815260206004820152603a60248201527f6e6f7420656e6f756768206167656e7420706f6f6c20746f6b656e7320746f2060448201527f636f766572206661696c6564207661756c74207061796d656e740000000000006064820152608401610160565b60006117c3846020015160400151856000015160400151896121219092919063ffffffff16565b905060006117d18288613d2a565b60028a015460208701519192506117fa91908c90600160c01b90046001600160401b0316611e65565b81111561186f5760405162461bcd60e51b815260206004820152603860248201527f6e6f7420656e6f75676820706f6f6c20636f6c6c61746572616c20746f20636f60448201527f766572206661696c6564207661756c74207061796d656e7400000000000000006064820152608401610160565b9998505050505050505050565b6000808560000160009054906101000a90046001600160a01b03166001600160a01b0316634ac8eb5f6040518163ffffffff1660e01b8152600401602060405180830381865afa1580156118d4573d6000803e3d6000fd5b505050506040513d601f19601f820116820180604052508101906118f89190613d3d565b90506119048482611f46565b91506119108383611f46565b865460405163adf58c1560e01b81526001600160a01b038881166004830152602482018690526044820184905292955091169063adf58c1590606401600060405180830381600087803b15801561196657600080fd5b505af115801561197a573d6000803e3d6000fd5b5050505050949350505050565b6119d58360050160109054906101000a90046001600160401b031683604051806040016040528060148152602001736e6f7420656e6f7567682072656465656d696e6760601b815250612247565b8360050160106101000a8154816001600160401b0302191690836001600160401b0316021790555080610c9957611a508360050160189054906101000a90046001600160401b031683604051806040016040528060148152602001736e6f7420656e6f7567682072656465656d696e6760601b815250612247565b8360050160186101000a8154816001600160401b0302191690836001600160401b03160217905550505050565b7f5bebac0595fee029d42bb673937f5f1cb81cf8641382bc17774635de9b7d79651860401c90565b611aad612292565b611ab681611d14565b611ac08383612303565b806001600160401b0316611ad384611a7d565b60018401546040516001600160801b0390911681526001600160a01b0391909116907f5f2a331e2db53740999cc1c370fa531b2e3b7fac4bf1156e8fe7c2578ad299e49060200160405180910390a3505050565b6000610dce82611b3685612033565b612356565b600080611b4785612033565b90506000611b5486611a7d565b82546040516370a0823160e01b81526001600160a01b038084166004830152929350611b8c92879216906370a082319060240161156e565b825460405163083e007560e21b81526001600160a01b0391821660048201528782166024820152604481018390529194508216906320f801d490606401600060405180830381600087803b158015611be357600080fd5b505af1158015611bf7573d6000803e3d6000fd5b5050505050509392505050565b611c0c612456565b80156100b2576000826001600160a01b031682620186a090604051600060405180830381858888f193505050503d8060008114611c65576040519150601f19603f3d011682016040523d82523d6000602084013e611c6a565b606091505b5050905080610c995760405162461bcd60e51b815260206004820152600f60248201526e1d1c985b9cd9995c8819985a5b1959608a1b6044820152606401610160565b7f4f24f5c433db0962dac0d2c8b84197a6e6c7cc4e5d9ebe1916a1b6193da2f34354604051600080516020613fd1833981519152916001600160a01b0316906108fc8415029084906000818181858888f19350505050158015610c99573d6000803e3d6000fd5b6000611d1f826109c4565b600881015490915060ff16156100b2576004810154600090611d49906001600160a01b0316610aa6565b600c8101549091506001600160401b038085166401000000009092041603610c9957600c0180546bffffffffffffffff00000000191690555050565b611daa6040805160608101909152806000815260200160008152602001600081525090565b6000611db583612033565b60408051606081019091526000815281549192509060208201906001600160a01b03166370a08231611de687611a7d565b6040516001600160e01b031960e084901b1681526001600160a01b039091166004820152602401602060405180830381865afa158015611e2a573d6000803e3d6000fd5b505050506040513d601f19601f82011682018060405250810190611e4e9190613d3d565b8152602001611e5c836124b7565b90529392505050565b600081600003611e7757506000610dce565b6000600185516002811115611e8e57611e8e613925565b14611ead576005840154600160801b90046001600160401b0316611ec3565b6005840154600160c01b90046001600160401b03165b6001600160401b0316905080831115611ede57611ede6139aa565b60058401546000908290611f05906001600160401b0380821691600160401b900416613d2a565b611f0f9190613d2a565b6020870151909150611f22908583612121565b9695505050505050565b6000610dce82611f3e6009600a613e3a565b859190612121565b6000818310611f555781610dce565b5090919050565b6000610dce8383612710612121565b611f906040805160608101909152806000815260200160008152602001600081525090565b6000611f9b836124cd565b604080516060810182526001815285548251634ac8eb5f60e01b8152925193945090926020808501936001600160a01b0390931692634ac8eb5f92600480830193928290030181865afa158015611e2a573d6000803e3d6000fd5b600080612004858585612121565b90506000838061201657612016613e66565b8587099050801561202a5781600101611f22565b50949350505050565b600080600080516020613ff183398151915260048401548154919250829161010090910461ffff1690811061206a5761206a613e7c565b9060005260206000209060040201915050919050565b6120eb6040805160c081019091526000606082018181526080830182905260a083019190915281908152604080516060810182526000808252602082810182905292820152910190815260408051606081018252600080825260208281018290529282015291015290565b60006120f683611f6b565b9050604051806060016040528061210c85611d85565b8152602001828152602001611e5c8584612506565b60008082116121655760405162461bcd60e51b815260206004820152601060248201526f4469766973696f6e206279207a65726f60801b6044820152606401610160565b8360000361217557506000610dce565b8383028385828161218857612188613e66565b04036121a65782818161219d5761219d613e66565b04915050610dce565b5060006121b38386613e92565b905060006121c18487613ea6565b905060006121cf8587613e92565b905060006121dd8688613ea6565b9050856121ea8285613c06565b6121f49190613e92565b6121fe8385613c06565b6122088387613c06565b886122138689613c06565b61221d9190613c06565b6122279190613d2a565b6122319190613d2a565b61223b9190613d2a565b98975050505050505050565b6000826001600160401b0316846001600160401b03161015829061227e5760405162461bcd60e51b81526004016101609190613eba565b5050506001600160401b0390811691160390565b7f908500188c8f91f50d58dffac83eda18fc06d9da0208fc6b66c78a4c3fec74f280546001600160a01b03166100e65760405162461bcd60e51b815260206004820152601660248201527518dbdc99481d985d5b1d081b9bdd08195b98589b195960521b6044820152606401610160565b612336828260020160189054906101000a90046001600160401b03168360040160159054906101000a900460ff16611987565b60028101546100b2908390600160c01b90046001600160401b03166126d5565b600081600201805461236790613f09565b9050600003612377575081610d6c565b60008061241184600201805461238c90613f09565b80601f01602080910402602001604051908101604052809291908181526020018280546123b890613f09565b80156124055780601f106123da57610100808354040283529160200191612405565b820191906000526020600020905b8154815290600101906020018083116123e857829003601f168201915b50505050506000612764565b8654929450925060009160059150612434908490600160a81b900460ff16613d2a565b61243e9190613d17565b9050611f2261244e82600a613e3a565b879085612121565b600080516020614011833981519152546002146124b55760405162461bcd60e51b815260206004820152601f60248201527f5265656e7472616e637947756172643a206775617264207265717569726564006044820152606401610160565b565b60006124c4826000612859565b50909392505050565b600080600080516020613ff1833981519152600484015481549192508291630100000090910461ffff1690811061206a5761206a613e7c565b61252b6040805160608101909152806000815260200160008152602001600081525090565b8254604080516332f7ce0b60e21b815290516000926001600160a01b03169163cbdf382c9160048083019260209291908290030181865afa158015612574573d6000803e3d6000fd5b505050506040513d601f19601f820116820180604052508101906125989190613be9565b90506000816001600160a01b03166370a082316125b487611a7d565b6040516001600160e01b031960e084901b1681526001600160a01b039091166004820152602401602060405180830381865afa1580156125f8573d6000803e3d6000fd5b505050506040513d601f19601f8201168201806040525081019061261c9190613d3d565b90506000826001600160a01b03166318160ddd6040518163ffffffff1660e01b8152600401602060405180830381865afa15801561265e573d6000803e3d6000fd5b505050506040513d601f19601f820116820180604052508101906126829190613d3d565b90506000856020015160000361269c5785604001516126b1565b602086015160408701516126b1918490612121565b60408051606081018252600281526020810195909552840152509095945050505050565b6006820154600080516020613fd1833981519152906000906127019084906001600160401b03166139c0565b600d83015490915060009061271f906001600160401b031683613f3d565b9050600061272d8284613e46565b90506127398686612a11565b6001600160401b03811615612752576127528682612a7f565b61275c8683612c22565b505050505050565b7f4f24f5c433db0962dac0d2c8b84197a6e6c7cc4e5d9ebe1916a1b6193da2f3445460009081908190600080516020613fd1833981519152906001600160a01b031685156128265760405163e4a0a55b60e01b81526001600160a01b0382169063e4a0a55b906127d8908a90600401613eba565b606060405180830381865afa1580156127f5573d6000803e3d6000fd5b505050506040513d601f19601f820116820180604052508101906128199190613f63565b9450945094505050612852565b60405163524f388960e01b81526001600160a01b0382169063524f3889906127d8908a90600401613eba565b9250925092565b6000806000806000806128f888600101805461287490613f09565b80601f01602080910402602001604051908101604052809291908181526020018280546128a090613f09565b80156128ed5780601f106128c2576101008083540402835291602001916128ed565b820191906000526020600020905b8154815290600101906020018083116128d057829003601f168201915b505050505088612764565b8a549295509093509150600160f01b900460ff161561293f57875460009061292e90600160a81b900460ff166001838786612cb8565b965091945084935061285292505050565b60008060006129da8b600201805461295690613f09565b80601f016020809104026020016040519081016040528092919081815260200182805461298290613f09565b80156129cf5780601f106129a4576101008083540402835291602001916129cf565b820191906000526020600020905b8154815290600101906020018083116129b257829003601f168201915b50505050508b612764565b8d5492955090935091506000906129fe90600160a81b900460ff1685848a89612cb8565b9950949750909550612852945050505050565b6005820154612a31908290600160401b90046001600160401b03166139c0565b8260050160086101000a8154816001600160401b0302191690836001600160401b031602179055506100b2612a6583611a7d565b6005840154600160401b90046001600160401b0316612d32565b600080516020613ff18339815191526001600160401b038216600003612aa457505050565b6000612aaf84611a7d565b6009830154600160401b90046001600160401b031660008181526007850160205260409020805492935090916001600160a01b03808516911603612bac57805485908290601490612b11908490600160a01b90046001600160401b03166139c0565b92506101000a8154816001600160401b0302191690836001600160401b031602179055506000612b578260000160149054906101000a90046001600160401b0316612d7e565b9050826001600160401b0316846001600160a01b03167f9d2e72c50be7927e999d37329649af37a863df77bcb25361699ce021d3d7475d83604051612b9e91815260200190565b60405180910390a35061275c565b6000612bbc600786018588612dd1565b90506000612bc987612d7e565b9050816001600160401b0316856001600160a01b03167f631f8f2039090539b2ea4ef7dc567f7f1939ef4dd3e790b1ca7bc548a1fada5883604051612c1091815260200190565b60405180910390a35050505050505050565b60068201546001600160401b03808316911603612c3d575050565b60068201805467ffffffffffffffff19166001600160401b0383161790556000612c6682612d7e565b9050612c7183611a7d565b6001600160a01b03167fa3db2bc927901a1d3ba09ad51d84609457b98443be9132a0a936a47c5a1081b582604051612cab91815260200190565b60405180910390a2505050565b6000600080516020613fd1833981519152816009612cd6878a613d2a565b612ce09190613d2a565b600a830154909150600090612d00908690600160a81b900460ff16613d2a565b905080821015612d1257612d126139aa565b61186f612d1f8284613d17565b612d2a90600a613e3a565b87908a612121565b7f341c6685fdb8ed7133465b64f545b9fbc5699a59cbd1ad98992e5c070a74c510610c997f341c6685fdb8ed7133465b64f545b9fbc5699a59cbd1ad98992e5c070a74c51184846131da565b7f4f24f5c433db0962dac0d2c8b84197a6e6c7cc4e5d9ebe1916a1b6193da2f34654600090600080516020613fd183398151915290610dce90600160901b90046001600160401b03908116908516613c06565b6001600160a01b03821660009081526001840160205260408120600285018054839190601090612e1090600160801b90046001600160401b0316613f91565b91906101000a8154816001600160401b0302191690836001600160401b03160217905590506040518060c00160405280866001600160a01b03168152602001856001600160401b031681526020018760020160089054906101000a90046001600160401b03166001600160401b0316815260200160006001600160401b031681526020018360000160089054906101000a90046001600160401b03166001600160401b0316815260200160006001600160401b0316815250866000016000836001600160401b03166001600160401b0316815260200190815260200160002060008201518160000160006101000a8154816001600160a01b0302191690836001600160a01b0316021790555060208201518160000160146101000a8154816001600160401b0302191690836001600160401b0316021790555060408201518160010160006101000a8154816001600160401b0302191690836001600160401b0316021790555060608201518160010160086101000a8154816001600160401b0302191690836001600160401b0316021790555060808201518160010160106101000a8154816001600160401b0302191690836001600160401b0316021790555060a08201518160010160186101000a8154816001600160401b0302191690836001600160401b031602179055509050508560020160009054906101000a90046001600160401b03166001600160401b031660000361306d576002860154600160401b90046001600160401b03161561304a5761304a6139aa565b60028601805467ffffffffffffffff19166001600160401b0383161790556130d5565b6002860154600160401b90046001600160401b0316600003613091576130916139aa565b6002860154600160401b908190046001600160401b039081166000908152602089905260409020600101805467ffffffffffffffff60401b19169184169092021790555b6002860180546001600160401b03808416600160401b0267ffffffffffffffff60401b199092169190911790915582541660000361314b578154600160401b90046001600160401b03161561312c5761312c6139aa565b815467ffffffffffffffff19166001600160401b0382161782556131ae565b8154600160401b90046001600160401b031660000361316c5761316c6139aa565b81546001600160401b03600160401b909104811660009081526020889052604090206001018054918316600160c01b026001600160c01b039092169190911790555b815467ffffffffffffffff60401b1916600160401b6001600160401b0383160217909155949350505050565b6001600160a01b03821660009081526004840160205260408120906131fe82613243565b9050600061320b86613243565b90506132188342866132de565b613239428361322787856139c0565b6132319190613e46565b8891906132de565b61275c868461364f565b6001810154600090600160401b90046001600160401b0316810361326957506000919050565b60018201546001600160401b03808216600160401b909204161161328f5761328f6139aa565b60018281015483916000916132b49190600160401b90046001600160401b0316613e46565b6001600160401b039081168252602082019290925260400160002054600160c01b90041692915050565b6001830154600160401b90046001600160401b03166000036133fd5760018301546001600160401b031615613315576133156139aa565b604051806060016040528060006001600160801b031681526020016133398461016f565b6001600160401b0390811682528381166020909201919091526001850180548692600092600160401b9092041690600861337283613f91565b82546001600160401b039182166101009390930a92830292820219169190911790915590811682526020808301939093526040918201600020845181549486015195909301518216600160c01b026001600160c01b0395909216600160801b026001600160c01b03199094166001600160801b03909316929092179290921792909216179055505050565b60018301546001600160401b03808216600160401b9092041611613423576134236139aa565b6001838101546000918591839161344991600160401b90046001600160401b0316613e46565b6001600160401b03908116825260208201929092526040016000208054909250600160801b90041683900361349b5780546001600160c01b0316600160c01b6001600160401b0384160217815561080e565b8054600160801b90046001600160401b0316831161350c5760405162461bcd60e51b815260206004820152602860248201527f54696d6543756d756c61746976653a2074696d657374616d70206e6f7420696e6044820152676372656173696e6760c01b6064820152608401610160565b805460009061352b90600160801b90046001600160401b031685613d17565b82546135479190600160c01b90046001600160401b0316613c06565b825461355c91906001600160801b0316613d2a565b905060405180606001604052806135728361368c565b6001600160801b031681526020016135898661016f565b6001600160401b0390811682528581166020909201919091526001870180548892600092600160401b909204169060086135c283613f91565b82546001600160401b039182166101009390930a92830292820219169190911790915590811682526020808301939093526040918201600020845181549486015195909301518216600160c01b026001600160c01b0395909216600160801b026001600160c01b03199094166001600160801b039093169290921792909217929092161790555050505050565b6003820154600090613672908490600160c01b90046001600160401b03166136f5565b905061368082826002613730565b610c9983826002613730565b60006001600160801b038211156101d75760405162461bcd60e51b815260206004820152602760248201527f53616665436173743a2076616c756520646f65736e27742066697420696e20316044820152663238206269747360c81b6064820152608401610160565b6003820154600090613718908390600160401b90046001600160401b0316613c06565b6003840154610dce91906001600160401b0316613d2a565b60018301546001600160401b0380821691600160401b90041660005b8381108015613764575081613762846001613d2a565b105b801561379d57508486600061377a866001613d2a565b8152602081019190915260400160002054600160801b90046001600160401b0316105b156137cc576000838152602087905260408120556137ba83613fb7565b92506137c581613fb7565b905061374c565b6137d58361016f565b600196909601805467ffffffffffffffff19166001600160401b03909716969096179095555050505050565b50805461380d90613f09565b6000825580601f1061381d575050565b601f0160209004906000526020600020908101906100e691905b808211156101d75760008155600101613837565b6000806040838503121561385e57600080fd5b82356001600160401b0381111561387457600080fd5b8301610200818603121561388757600080fd5b946020939093013593505050565b6000602082840312156138a757600080fd5b5035919050565b600080604083850312156138c157600080fd5b82356001600160401b038111156138d757600080fd5b8301610160818603121561388757600080fd5b80151581146100e657600080fd5b8035613903816138ea565b919050565b60006020828403121561391a57600080fd5b8135610dce816138ea565b634e487b7160e01b600052602160045260246000fd5b634e487b7160e01b600052601160045260246000fd5b6001600160801b038281168282160390808211156139715761397161393b565b5092915050565b80356001600160401b038116811461390357600080fd5b6000602082840312156139a157600080fd5b610dce82613978565b634e487b7160e01b600052600160045260246000fd5b6001600160401b038181168382160190808211156139715761397161393b565b6000808335601e198436030181126139f757600080fd5b83016020810192503590506001600160401b03811115613a1657600080fd5b8060051b3603821315613a2857600080fd5b9250929050565b81835260006001600160fb1b03831115613a4857600080fd5b8260051b80836020870137939093016020019392505050565b6001600160401b0380613a7383613978565b16835280613a8360208401613978565b16602084015280613a9660408401613978565b166040840152505050565b602081526000613ab183846139e0565b6102006020850152613ac861022085018284613a2f565b9150506020840135604084015260408401356060840152613aeb60608501613978565b6001600160401b03808216608086015280613b0860808801613978565b1660a086015280613b1b60a08801613978565b1660c086015280613b2e60c08801613978565b1660e0860152613b4060e08701613978565b91506101008183168187015261012092508087013583870152505061014081860135818601526101609150808601358286015250613b7f8186016138f8565b9050610180613b918186018315159052565b6101a09150808601358286015250613baf6101c08501828701613a61565b509392505050565b600060208284031215613bc957600080fd5b8151610dce816138ea565b6001600160a01b03811681146100e657600080fd5b600060208284031215613bfb57600080fd5b8151610dce81613bd4565b8082028115828204841417610d6c57610d6c61393b565b602081526000613c2d83846139e0565b610160806020860152613c4561018086018385613a2f565b92506020860135604086015260408601356060860152613c6760608701613978565b91506001600160401b03808316608087015280613c8660808901613978565b1660a087015280613c9960a08901613978565b1660c087015280613cac60c08901613978565b1660e0870152610100925080613cc460e08901613978565b1683870152613cd4838801613978565b925061012081841681880152613ceb818901613978565b9350506101408184168188015281613d04828a01613978565b1683880152505050508091505092915050565b81810381811115610d6c57610d6c61393b565b80820180821115610d6c57610d6c61393b565b600060208284031215613d4f57600080fd5b5051919050565b600181815b80851115613d91578160001904821115613d7757613d7761393b565b80851615613d8457918102915b93841c9390800290613d5b565b509250929050565b600082613da857506001610d6c565b81613db557506000610d6c565b8160018114613dcb5760028114613dd557613df1565b6001915050610d6c565b60ff841115613de657613de661393b565b50506001821b610d6c565b5060208310610133831016604e8410600b8410161715613e14575081810a610d6c565b613e1e8383613d56565b8060001904821115613e3257613e3261393b565b029392505050565b6000610dce8383613d99565b6001600160401b038281168282160390808211156139715761397161393b565b634e487b7160e01b600052601260045260246000fd5b634e487b7160e01b600052603260045260246000fd5b600082613ea157613ea1613e66565b500490565b600082613eb557613eb5613e66565b500690565b60006020808352835180602085015260005b81811015613ee857858101830151858201604001528201613ecc565b506000604082860101526040601f19601f8301168501019250505092915050565b600181811c90821680613f1d57607f821691505b602082108103610aa057634e487b7160e01b600052602260045260246000fd5b60006001600160401b0380841680613f5757613f57613e66565b92169190910692915050565b600080600060608486031215613f7857600080fd5b8351925060208401519150604084015190509250925092565b60006001600160401b03808316818103613fad57613fad61393b565b6001019392505050565b600060018201613fc957613fc961393b565b506001019056fe4f24f5c433db0962dac0d2c8b84197a6e6c7cc4e5d9ebe1916a1b6193da2f33aec7e8c1c441439dd40959777f4c577ea0cd42fcc1dbe59d2bd0f5d9c55df8db60cd2207518cd3e5213e2c6dbe63d55b60aa893c194a427b7d7f1600408fd5bdea2646970667358221220fca4427271dd845a2666e94d800477488507067d071031e46884d3b1b5fab71164736f6c63430008170033",
  "linkReferences": {},
  "deployedLinkReferences": {}
}