{
  "_format": "hh-sol-artifact-1",
  "contractName": "RedemptionDefaultsFacet",
  "sourceName": "contracts/assetManager/facets/RedemptionDefaultsFacet.sol",
  "abi": [
    {
      "anonymous": false,
      "inputs": [
        {
          "indexed": true,
          "internalType": "address",
          "name": "agentVault",
          "type": "address"
        },
        {
          "indexed": true,
          "internalType": "address",
          "name": "redeemer",
          "type": "address"
        },
        {
          "indexed": true,
          "internalType": "uint64",
          "name": "requestId",
          "type": "uint64"
        },
        {
          "indexed": false,
          "internalType": "uint256",
          "name": "redemptionAmountUBA",
          "type": "uint256"
        },
        {
          "indexed": false,
          "internalType": "uint256",
          "name": "redeemedVaultCollateralWei",
          "type": "uint256"
        },
        {
          "indexed": false,
          "internalType": "uint256",
          "name": "redeemedPoolCollateralWei",
          "type": "uint256"
        }
      ],
      "name": "RedemptionDefault",
      "type": "event"
    },
    {
      "inputs": [
        {
          "components": [
            {
              "internalType": "bytes32[]",
              "name": "merkleProof",
              "type": "bytes32[]"
            },
            {
              "components": [
                {
                  "internalType": "bytes32",
                  "name": "attestationType",
                  "type": "bytes32"
                },
                {
                  "internalType": "bytes32",
                  "name": "sourceId",
                  "type": "bytes32"
                },
                {
                  "internalType": "uint64",
                  "name": "votingRound",
                  "type": "uint64"
                },
                {
                  "internalType": "uint64",
                  "name": "lowestUsedTimestamp",
                  "type": "uint64"
                },
                {
                  "components": [
                    {
                      "internalType": "uint64",
                      "name": "blockNumber",
                      "type": "uint64"
                    },
                    {
                      "internalType": "uint64",
                      "name": "queryWindow",
                      "type": "uint64"
                    }
                  ],
                  "internalType": "struct IConfirmedBlockHeightExists.RequestBody",
                  "name": "requestBody",
                  "type": "tuple"
                },
                {
                  "components": [
                    {
                      "internalType": "uint64",
                      "name": "blockTimestamp",
                      "type": "uint64"
                    },
                    {
                      "internalType": "uint64",
                      "name": "numberOfConfirmations",
                      "type": "uint64"
                    },
                    {
                      "internalType": "uint64",
                      "name": "lowestQueryWindowBlockNumber",
                      "type": "uint64"
                    },
                    {
                      "internalType": "uint64",
                      "name": "lowestQueryWindowBlockTimestamp",
                      "type": "uint64"
                    }
                  ],
                  "internalType": "struct IConfirmedBlockHeightExists.ResponseBody",
                  "name": "responseBody",
                  "type": "tuple"
                }
              ],
              "internalType": "struct IConfirmedBlockHeightExists.Response",
              "name": "data",
              "type": "tuple"
            }
          ],
          "internalType": "struct IConfirmedBlockHeightExists.Proof",
          "name": "_proof",
          "type": "tuple"
        },
        {
          "internalType": "uint256",
          "name": "_redemptionRequestId",
          "type": "uint256"
        }
      ],
      "name": "finishRedemptionWithoutPayment",
      "outputs": [],
      "stateMutability": "nonpayable",
      "type": "function"
    },
    {
      "inputs": [
        {
          "components": [
            {
              "internalType": "bytes32[]",
              "name": "merkleProof",
              "type": "bytes32[]"
            },
            {
              "components": [
                {
                  "internalType": "bytes32",
                  "name": "attestationType",
                  "type": "bytes32"
                },
                {
                  "internalType": "bytes32",
                  "name": "sourceId",
                  "type": "bytes32"
                },
                {
                  "internalType": "uint64",
                  "name": "votingRound",
                  "type": "uint64"
                },
                {
                  "internalType": "uint64",
                  "name": "lowestUsedTimestamp",
                  "type": "uint64"
                },
                {
                  "components": [
                    {
                      "internalType": "uint64",
                      "name": "minimalBlockNumber",
                      "type": "uint64"
                    },
                    {
                      "internalType": "uint64",
                      "name": "deadlineBlockNumber",
                      "type": "uint64"
                    },
                    {
                      "internalType": "uint64",
                      "name": "deadlineTimestamp",
                      "type": "uint64"
                    },
                    {
                      "internalType": "bytes32",
                      "name": "destinationAddressHash",
                      "type": "bytes32"
                    },
                    {
                      "internalType": "uint256",
                      "name": "amount",
                      "type": "uint256"
                    },
                    {
                      "internalType": "bytes32",
                      "name": "standardPaymentReference",
                      "type": "bytes32"
                    },
                    {
                      "internalType": "bool",
                      "name": "checkSourceAddresses",
                      "type": "bool"
                    },
                    {
                      "internalType": "bytes32",
                      "name": "sourceAddressesRoot",
                      "type": "bytes32"
                    }
                  ],
                  "internalType": "struct IReferencedPaymentNonexistence.RequestBody",
                  "name": "requestBody",
                  "type": "tuple"
                },
                {
                  "components": [
                    {
                      "internalType": "uint64",
                      "name": "minimalBlockTimestamp",
                      "type": "uint64"
                    },
                    {
                      "internalType": "uint64",
                      "name": "firstOverflowBlockNumber",
                      "type": "uint64"
                    },
                    {
                      "internalType": "uint64",
                      "name": "firstOverflowBlockTimestamp",
                      "type": "uint64"
                    }
                  ],
                  "internalType": "struct IReferencedPaymentNonexistence.ResponseBody",
                  "name": "responseBody",
                  "type": "tuple"
                }
              ],
              "internalType": "struct IReferencedPaymentNonexistence.Response",
              "name": "data",
              "type": "tuple"
            }
          ],
          "internalType": "struct IReferencedPaymentNonexistence.Proof",
          "name": "_proof",
          "type": "tuple"
        },
        {
          "internalType": "uint256",
          "name": "_redemptionRequestId",
          "type": "uint256"
        }
      ],
      "name": "redemptionPaymentDefault",
      "outputs": [],
      "stateMutability": "nonpayable",
      "type": "function"
    },
    {
      "inputs": [
        {
          "internalType": "uint256",
          "name": "_redemptionRequestId",
          "type": "uint256"
        }
      ],
      "name": "rejectedRedemptionPaymentDefault",
      "outputs": [],
      "stateMutability": "nonpayable",
      "type": "function"
    }
  ],
  "bytecode": "0x608060405234801561001057600080fd5b506126fa806100206000396000f3fe608060405234801561001057600080fd5b50600436106100415760003560e01c806337fbae91146100465780633e1cacee1461005b5780637b3477c31461006e575b600080fd5b610059610054366004611f6d565b610081565b005b610059610069366004611fb7565b610097565b61005961007c366004611fd0565b6100ab565b6100938261008e836100bd565b61012e565b5050565b6100a86100a3826100bd565b6104d0565b50565b610093826100b8836100bd565b610723565b60006001600160401b0382111561012a5760405162461bcd60e51b815260206004820152602660248201527f53616665436173743a2076616c756520646f65736e27742066697420696e203660448201526534206269747360d01b60648201526084015b60405180910390fd5b5090565b6101406101808301610160840161202a565b1561018d5760405162461bcd60e51b815260206004820152601e60248201527f736f7572636520616464726573736573206e6f7420737570706f7274656400006044820152606401610121565b6000610198826108cd565b60048101549091506000906101b5906001600160a01b03166109af565b905060016004830154600160a01b900460ff1660028111156101d9576101d9612047565b146102225760405162461bcd60e51b8152602060048201526019602482015278696e76616c696420726564656d7074696f6e2073746174757360381b6044820152606401610121565b61022b84610a3e565b67232128293320800160c11b6001600160401b0384161761014085013514801561025a57508154610100850135145b801561029357506001820154610282906001600160801b03600160801b820481169116612073565b6001600160801b0316610120850135145b6102df5760405162461bcd60e51b815260206004820152601f60248201527f726564656d7074696f6e206e6f6e2d7061796d656e74206d69736d61746368006044820152606401610121565b6002820154600160401b90046001600160401b03166103066101e086016101c087016120b1565b6001600160401b031611801561034957506002820154600160801b90046001600160401b031661033e61020086016101e087016120b1565b6001600160401b0316115b6103955760405162461bcd60e51b815260206004820152601c60248201527f726564656d7074696f6e2064656661756c7420746f6f206561726c79000000006044820152606401610121565b60028201546001600160401b03166103b360c0860160a087016120b1565b6001600160401b031611156104205760405162461bcd60e51b815260206004820152602d60248201527f726564656d7074696f6e206e6f6e2d7061796d656e742070726f6f662077696e60448201526c191bddc81d1bdbc81cda1bdc9d609a1b6064820152608401610121565b60038201546001600160a01b0316331480610447575060058201546001600160a01b031633145b8061045757506104578133610b95565b6104a35760405162461bcd60e51b815260206004820181905260248201527f6f6e6c792072656465656d65722c206578656375746f72206f72206167656e746044820152606401610121565b6104ae818385610c69565b6104b782610d7c565b50600401805460ff60a01b1916600160a11b1790555050565b60006104db826108cd565b60048101549091506000906104f8906001600160a01b03166109af565b905060016004830154600160a01b900460ff16600281111561051c5761051c612047565b146105655760405162461bcd60e51b8152602060048201526019602482015278696e76616c696420726564656d7074696f6e2073746174757360381b6044820152606401610121565b60068201546001600160401b03166000036105c25760405162461bcd60e51b815260206004820152601860248201527f6f6e6c792072656a656374656420726564656d7074696f6e00000000000000006044820152606401610121565b7f4f24f5c433db0962dac0d2c8b84197a6e6c7cc4e5d9ebe1916a1b6193da2f35254600683015460008051602061266583398151915291429161061891600160401b90046001600160401b0390811691166120cc565b6001600160401b0316111561067d5760405162461bcd60e51b815260206004820152602560248201527f72656a656374656420726564656d7074696f6e2064656661756c7420746f6f206044820152646561726c7960d81b6064820152608401610121565b60038301546001600160a01b03163314806106a4575060058301546001600160a01b031633145b806106b457506106b48233610b95565b6107005760405162461bcd60e51b815260206004820181905260248201527f6f6e6c792072656465656d65722c206578656375746f72206f72206167656e746044820152606401610121565b61070b828486610c69565b61071483610d7c565b61071d84610e4a565b50505050565b600080516020612665833981519152600061073d836108cd565b600481015490915060009061075a906001600160a01b03166109af565b905061076581610efc565b60016004830154600160a01b900460ff16600281111561078757610787612047565b036108c65761079585610f4b565b6002820154600160401b90046001600160401b03166107bc610140870161012088016120b1565b6001600160401b03161180156107ff57506002820154600160801b90046001600160401b03166107f4610160870161014088016120b1565b6001600160401b0316115b80156108595750610817610100860160e087016120b1565b60118401546001600160401b0391821691600160401b90910416610843610160880161014089016120b1565b61084d91906120cc565b6001600160401b031611155b61089c5760405162461bcd60e51b81526020600482015260146024820152731cda1bdd5b1908191959985d5b1d08199a5c9cdd60621b6044820152606401610121565b6108a7818386610c69565b6108b082610d7c565b60048201805460ff60a01b1916600160a11b1790555b5050505050565b60006000805160206126a58339815191526001600160401b038316820361092b5760405162461bcd60e51b81526020600482015260126024820152711a5b9d985b1a59081c995c5d595cdd081a5960721b6044820152606401610121565b6001600160401b0383166000908152600a82016020526040812092506004830154600160a01b900460ff16600281111561096757610967612047565b036109a95760405162461bcd60e51b81526020600482015260126024820152711a5b9d985b1a59081c995c5d595cdd081a5960721b6044820152606401610121565b50919050565b60008051602061268583398151915268010000000000000000600160e01b03604083901b161880600060048084015460ff16908111156109f1576109f1612047565b036109a95760405162461bcd60e51b815260206004820152601b60248201527f696e76616c6964206167656e74207661756c74206164647265737300000000006044820152606401610121565b7f4f24f5c433db0962dac0d2c8b84197a6e6c7cc4e5d9ebe1916a1b6193da2f342547f4f24f5c433db0962dac0d2c8b84197a6e6c7cc4e5d9ebe1916a1b6193da2f34554600080516020612665833981519152916001600160a01b031690604084013514610ade5760405162461bcd60e51b815260206004820152600d60248201526c34b73b30b634b21031b430b4b760991b6044820152606401610121565b60405163d577275160e01b81526001600160a01b0382169063d577275190610b0a9086906004016121ad565b602060405180830381865afa158015610b27573d6000803e3d6000fd5b505050506040513d601f19601f82011682018060405250810190610b4b91906122c3565b610b905760405162461bcd60e51b81526020600482015260166024820152751b9bdb8b5c185e5b595b9d081b9bdd081c1c9bdd995960521b6044820152606401610121565b505050565b60018201546000906001600160a01b03908116908316811480610c5f57507f4f24f5c433db0962dac0d2c8b84197a6e6c7cc4e5d9ebe1916a1b6193da2f341546001600160a01b0316604051631f86345d60e31b81526001600160a01b038381166004830152919091169063fc31a2e890602401602060405180830381865afa158015610c26573d6000803e3d6000fd5b505050506040513d601f19601f82011682018060405250810190610c4a91906122e0565b6001600160a01b0316836001600160a01b0316145b9150505b92915050565b600080610c7685856110a4565b60038601549193509150610c959086906001600160a01b0316846112c3565b508015610cb9576003840154610cb79086906001600160a01b031683806113d8565b505b610cec858560020160189054906101000a90046001600160401b03168660040160159054906101000a900460ff166114de565b60038401546001600160401b038416906001600160a01b0316600080516020612685833981519152871860401c6001870154604080516001600160801b0390921682526020820187905281018590526001600160a01b0391909116907f3d88a018be66851f57adfd6fde7c19c103407f95df0b7c2640baf28a0330c6949060600160405180910390a45050505050565b6005810154600160a01b90046001600160401b0316600003610d9b5750565b60058101546001600160a01b03163303610dec576005810154610de7906001600160a01b03811690610de290633b9aca0090600160a01b90046001600160401b0316612309565b6115d4565b610e33565b6005810154600160a01b90046001600160401b031615610e33576005810154610e3390610e2e90633b9aca0090600160a01b90046001600160401b0316612309565b61166f565b600501805467ffffffffffffffff60a01b19169055565b6001600160401b03811660009081527fec7e8c1c441439dd40959777f4c577ea0cd42fcc1dbe59d2bd0f5d9c55df8dc06020526040812081815560018101829055600281018290556003810180546001600160e01b03199081169091556004820180546001600160b01b031916905560058201805490911690556006810180546fffffffffffffffffffffffffffffffff191690556000805160206126a58339815191529161071d6007830182611f23565b610f068133610b95565b6100a85760405162461bcd60e51b815260206004820152601660248201527537b7363c9030b3b2b73a103b30bab63a1037bbb732b960511b6044820152606401610121565b7f4f24f5c433db0962dac0d2c8b84197a6e6c7cc4e5d9ebe1916a1b6193da2f342547f4f24f5c433db0962dac0d2c8b84197a6e6c7cc4e5d9ebe1916a1b6193da2f34554600080516020612665833981519152916001600160a01b031690604084013514610feb5760405162461bcd60e51b815260206004820152600d60248201526c34b73b30b634b21031b430b4b760991b6044820152606401610121565b604051635e30ebfb60e01b81526001600160a01b03821690635e30ebfb90611017908690600401612320565b602060405180830381865afa158015611034573d6000803e3d6000fd5b505050506040513d601f19601f8201168201806040525081019061105891906122c3565b610b905760405162461bcd60e51b815260206004820152601760248201527f626c6f636b20686569676874206e6f742070726f7665640000000000000000006044820152606401610121565b600080600080516020612665833981519152816110c0866116d6565b60028601549091506000906110e89083908990600160c01b90046001600160401b03166117b5565b6004870154909150600160a81b900460ff161561113a576002860154604083015161112391600160c01b90046001600160401b03169061187e565b9450600093506111338582611898565b94506112b9565b60068601546001600160401b031615156111b68161116957600e850154600160501b900463ffffffff1661117c565b6018850154600160801b900463ffffffff165b63ffffffff166111b08960020160189054906101000a90046001600160401b03166001600160401b0316866040015161187e565b906118ae565b955060006111c3896118bd565b905061122b826111e457600e860154600160701b900463ffffffff166111f7565b6018860154600160a01b900463ffffffff165b63ffffffff166111b08a60020160189054906101000a90046001600160401b03166001600160401b0316846040015161187e565b60028901549096506000906112539083908c90600160c01b90046001600160401b03166117b5565b9050838811156112a957600061128861126c868b61241a565b60028c0154600160c01b90046001600160401b0316908b611938565b905061129881846040015161187e565b6112a2908961242d565b9750849850505b6112b38782611898565b96505050505b5050509250929050565b6000806112cf85611975565b90506000600080516020612685833981519152861860401c82546040516370a0823160e01b81526001600160a01b03808416600483015292935061136092879216906370a0823190602401602060405180830381865afa158015611337573d6000803e3d6000fd5b505050506040513d601f19601f8201168201806040525081019061135b9190612440565b611898565b825460405163083e007560e21b81526001600160a01b0391821660048201528782166024820152604481018390529194508216906320f801d490606401600060405180830381600087803b1580156113b757600080fd5b505af11580156113cb573d6000803e3d6000fd5b5050505050509392505050565b6000806113e36119c2565b86546040516370a0823160e01b81526001600160a01b0391821660048201529116906370a0823190602401602060405180830381865afa15801561142b573d6000803e3d6000fd5b505050506040513d601f19601f8201168201806040525081019061144f9190612440565b905061145b8482611898565b91506114678383611898565b865460405163adf58c1560e01b81526001600160a01b038881166004830152602482018690526044820184905292955091169063adf58c1590606401600060405180830381600087803b1580156114bd57600080fd5b505af11580156114d1573d6000803e3d6000fd5b5050505050949350505050565b61152c8360050160109054906101000a90046001600160401b031683604051806040016040528060148152602001736e6f7420656e6f7567682072656465656d696e6760601b815250611a2f565b8360050160106101000a8154816001600160401b0302191690836001600160401b0316021790555080610b90576115a78360050160189054906101000a90046001600160401b031683604051806040016040528060148152602001736e6f7420656e6f7567682072656465656d696e6760601b815250611a2f565b8360050160186101000a8154816001600160401b0302191690836001600160401b03160217905550505050565b8015610093576000826001600160a01b03168260405160006040518083038185875af1925050503d8060008114611627576040519150601f19603f3d011682016040523d82523d6000602084013e61162c565b606091505b5050905080610b905760405162461bcd60e51b815260206004820152600f60248201526e1d1c985b9cd9995c8819985a5b1959608a1b6044820152606401610121565b7f4f24f5c433db0962dac0d2c8b84197a6e6c7cc4e5d9ebe1916a1b6193da2f34354604051600080516020612665833981519152916001600160a01b0316906108fc8415029084906000818181858888f19350505050158015610b90573d6000803e3d6000fd5b6116fb6040805160608101909152806000815260200160008152602001600081525090565b600061170683611975565b6040805160608101825260008152825482516370a0823160e01b8152600080516020612685833981519152881890931c6001600160a01b039081166004850152939450909260208401929116906370a08231906024015b602060405180830381865afa15801561177a573d6000803e3d6000fd5b505050506040513d601f19601f8201168201806040525081019061179e9190612440565b81526020016117ac83611a7a565b90529392505050565b6000816000036117c757506000611877565b60006001855160028111156117de576117de612047565b146117fd576005840154600160801b90046001600160401b0316611813565b6005840154600160c01b90046001600160401b03165b6001600160401b031690508083111561182e5761182e612459565b60058401546000908290611855906001600160401b0380821691600160401b90041661242d565b61185f919061242d565b6020870151909150611872908583611a90565b925050505b9392505050565b6000611877826118906009600a612553565b859190611a90565b60008183106118a75781611877565b5090919050565b60006118778383612710611a90565b6118e26040805160608101909152806000815260200160008152602001600081525090565b60006118ed83611bb6565b60408051606081019091529091508060018152825485546040516370a0823160e01b81526001600160a01b0391821660048201526020909301929116906370a082319060240161175d565b600080611946858585611a90565b9050600083806119585761195861255f565b8587099050801561196c5781600101611872565b50949350505050565b6000806000805160206126a583398151915260048401548154919250829161010090910461ffff169081106119ac576119ac612575565b9060005260206000209060040201915050919050565b7fec7e8c1c441439dd40959777f4c577ea0cd42fcc1dbe59d2bd0f5d9c55df8dc5546000805160206126a58339815191528054600092829161ffff909116908110611a0f57611a0f612575565b60009182526020909120600490910201546001600160a01b031692915050565b6000826001600160401b0316846001600160401b031610158290611a665760405162461bcd60e51b8152600401610121919061258b565b5050506001600160401b0390811691160390565b6000611a87826000611bef565b50909392505050565b6000808211611ad45760405162461bcd60e51b815260206004820152601060248201526f4469766973696f6e206279207a65726f60801b6044820152606401610121565b83600003611ae457506000611877565b83830283858281611af757611af761255f565b0403611b1557828181611b0c57611b0c61255f565b04915050611877565b506000611b2283866125da565b90506000611b3084876125ee565b90506000611b3e85876125da565b90506000611b4c86886125ee565b905085611b598285612309565b611b6391906125da565b611b6d8385612309565b611b778387612309565b88611b828689612309565b611b8c9190612309565b611b96919061242d565b611ba0919061242d565b611baa919061242d565b98975050505050505050565b6000806000805160206126a5833981519152600484015481549192508291630100000090910461ffff169081106119ac576119ac612575565b600080600080600080611c8e886001018054611c0a90612602565b80601f0160208091040260200160405190810160405280929190818152602001828054611c3690612602565b8015611c835780601f10611c5857610100808354040283529160200191611c83565b820191906000526020600020905b815481529060010190602001808311611c6657829003601f168201915b505050505088611dae565b8a549295509093509150600160f01b900460ff1615611cd5578754600090611cc490600160a81b900460ff166001838786611e9c565b9650919450849350611da792505050565b6000806000611d708b6002018054611cec90612602565b80601f0160208091040260200160405190810160405280929190818152602001828054611d1890612602565b8015611d655780601f10611d3a57610100808354040283529160200191611d65565b820191906000526020600020905b815481529060010190602001808311611d4857829003601f168201915b50505050508b611dae565b8d549295509093509150600090611d9490600160a81b900460ff1685848a89611e9c565b9950949750909550611da7945050505050565b9250925092565b7f4f24f5c433db0962dac0d2c8b84197a6e6c7cc4e5d9ebe1916a1b6193da2f3445460009081908190600080516020612665833981519152906001600160a01b03168515611e705760405163e4a0a55b60e01b81526001600160a01b0382169063e4a0a55b90611e22908a9060040161258b565b606060405180830381865afa158015611e3f573d6000803e3d6000fd5b505050506040513d601f19601f82011682018060405250810190611e639190612636565b9450945094505050611da7565b60405163524f388960e01b81526001600160a01b0382169063524f388990611e22908a9060040161258b565b6000600080516020612665833981519152816009611eba878a61242d565b611ec4919061242d565b600a830154909150600090611ee4908690600160a81b900460ff1661242d565b905080821015611ef657611ef6612459565b611f16611f03828461241a565b611f0e90600a612553565b87908a611a90565b9998505050505050505050565b508054611f2f90612602565b6000825580601f10611f3f575050565b601f0160209004906000526020600020908101906100a891905b8082111561012a5760008155600101611f59565b60008060408385031215611f8057600080fd5b82356001600160401b03811115611f9657600080fd5b83016102008186031215611fa957600080fd5b946020939093013593505050565b600060208284031215611fc957600080fd5b5035919050565b60008060408385031215611fe357600080fd5b82356001600160401b03811115611ff957600080fd5b83016101608186031215611fa957600080fd5b80151581146100a857600080fd5b80356120258161200c565b919050565b60006020828403121561203c57600080fd5b81356118778161200c565b634e487b7160e01b600052602160045260246000fd5b634e487b7160e01b600052601160045260246000fd5b6001600160801b038281168282160390808211156120935761209361205d565b5092915050565b80356001600160401b038116811461202557600080fd5b6000602082840312156120c357600080fd5b6118778261209a565b6001600160401b038181168382160190808211156120935761209361205d565b6000808335601e1984360301811261210357600080fd5b83016020810192503590506001600160401b0381111561212257600080fd5b8060051b360382131561213457600080fd5b9250929050565b81835260006001600160fb1b0383111561215457600080fd5b8260051b80836020870137939093016020019392505050565b6001600160401b038061217f8361209a565b1683528061218f6020840161209a565b166020840152806121a26040840161209a565b166040840152505050565b6020815260006121bd83846120ec565b61020060208501526121d46102208501828461213b565b91505060208401356040840152604084013560608401526121f76060850161209a565b6001600160401b038082166080860152806122146080880161209a565b1660a08601528061222760a0880161209a565b1660c08601528061223a60c0880161209a565b1660e086015261224c60e0870161209a565b9150610100818316818701526101209250808701358387015250506101408186013581860152610160915080860135828601525061228b81860161201a565b905061018061229d8186018315159052565b6101a091508086013582860152506122bb6101c0850182870161216d565b509392505050565b6000602082840312156122d557600080fd5b81516118778161200c565b6000602082840312156122f257600080fd5b81516001600160a01b038116811461187757600080fd5b8082028115828204841417610c6357610c6361205d565b60208152600061233083846120ec565b6101608060208601526123486101808601838561213b565b9250602086013560408601526040860135606086015261236a6060870161209a565b91506001600160401b038083166080870152806123896080890161209a565b1660a08701528061239c60a0890161209a565b1660c0870152806123af60c0890161209a565b1660e08701526101009250806123c760e0890161209a565b16838701526123d783880161209a565b9250610120818416818801526123ee81890161209a565b9350506101408184168188015281612407828a0161209a565b1683880152505050508091505092915050565b81810381811115610c6357610c6361205d565b80820180821115610c6357610c6361205d565b60006020828403121561245257600080fd5b5051919050565b634e487b7160e01b600052600160045260246000fd5b600181815b808511156124aa5781600019048211156124905761249061205d565b8085161561249d57918102915b93841c9390800290612474565b509250929050565b6000826124c157506001610c63565b816124ce57506000610c63565b81600181146124e457600281146124ee5761250a565b6001915050610c63565b60ff8411156124ff576124ff61205d565b50506001821b610c63565b5060208310610133831016604e8410600b841016171561252d575081810a610c63565b612537838361246f565b806000190482111561254b5761254b61205d565b029392505050565b600061187783836124b2565b634e487b7160e01b600052601260045260246000fd5b634e487b7160e01b600052603260045260246000fd5b60006020808352835180602085015260005b818110156125b95785810183015185820160400152820161259d565b506000604082860101526040601f19601f8301168501019250505092915050565b6000826125e9576125e961255f565b500490565b6000826125fd576125fd61255f565b500690565b600181811c9082168061261657607f821691505b6020821081036109a957634e487b7160e01b600052602260045260246000fd5b60008060006060848603121561264b57600080fd5b835192506020840151915060408401519050925092509256fe4f24f5c433db0962dac0d2c8b84197a6e6c7cc4e5d9ebe1916a1b6193da2f33a5bebac0595fee029d42bb673937f5f1cb81cf8641382bc17774635de9b7d7965ec7e8c1c441439dd40959777f4c577ea0cd42fcc1dbe59d2bd0f5d9c55df8db6a2646970667358221220d6777a57327ea05803bee63d3927ba165285a7d4aa32120bfe658a0a547e837f64736f6c63430008170033",
  "linkReferences": {},
  "deployedLinkReferences": {}
}