{
  "_format": "hh-sol-artifact-1",
  "contractName": "LiquidationFacet",
  "sourceName": "contracts/fasset/facets/LiquidationFacet.sol",
  "abi": [
    {
      "anonymous": false,
      "inputs": [
        {
          "indexed": true,
          "internalType": "address",
          "name": "agentVault",
          "type": "address"
        },
        {
          "indexed": false,
          "internalType": "uint256",
          "name": "timestamp",
          "type": "uint256"
        }
      ],
      "name": "AgentInCCB",
      "type": "event"
    },
    {
      "anonymous": false,
      "inputs": [
        {
          "indexed": true,
          "internalType": "address",
          "name": "agentVault",
          "type": "address"
        },
        {
          "indexed": false,
          "internalType": "uint256",
          "name": "dustUBA",
          "type": "uint256"
        }
      ],
      "name": "DustChanged",
      "type": "event"
    },
    {
      "anonymous": false,
      "inputs": [
        {
          "indexed": true,
          "internalType": "address",
          "name": "agentVault",
          "type": "address"
        }
      ],
      "name": "LiquidationEnded",
      "type": "event"
    },
    {
      "anonymous": false,
      "inputs": [
        {
          "indexed": true,
          "internalType": "address",
          "name": "agentVault",
          "type": "address"
        },
        {
          "indexed": true,
          "internalType": "address",
          "name": "liquidator",
          "type": "address"
        },
        {
          "indexed": false,
          "internalType": "uint256",
          "name": "valueUBA",
          "type": "uint256"
        }
      ],
      "name": "LiquidationPerformed",
      "type": "event"
    },
    {
      "anonymous": false,
      "inputs": [
        {
          "indexed": true,
          "internalType": "address",
          "name": "agentVault",
          "type": "address"
        },
        {
          "indexed": false,
          "internalType": "uint256",
          "name": "timestamp",
          "type": "uint256"
        }
      ],
      "name": "LiquidationStarted",
      "type": "event"
    },
    {
      "anonymous": false,
      "inputs": [
        {
          "indexed": true,
          "internalType": "address",
          "name": "agentVault",
          "type": "address"
        },
        {
          "indexed": true,
          "internalType": "uint256",
          "name": "redemptionTicketId",
          "type": "uint256"
        }
      ],
      "name": "RedemptionTicketDeleted",
      "type": "event"
    },
    {
      "anonymous": false,
      "inputs": [
        {
          "indexed": true,
          "internalType": "address",
          "name": "agentVault",
          "type": "address"
        },
        {
          "indexed": true,
          "internalType": "uint256",
          "name": "redemptionTicketId",
          "type": "uint256"
        },
        {
          "indexed": false,
          "internalType": "uint256",
          "name": "ticketValueUBA",
          "type": "uint256"
        }
      ],
      "name": "RedemptionTicketUpdated",
      "type": "event"
    },
    {
      "inputs": [
        {
          "internalType": "address",
          "name": "_agentVault",
          "type": "address"
        }
      ],
      "name": "endLiquidation",
      "outputs": [],
      "stateMutability": "nonpayable",
      "type": "function"
    },
    {
      "inputs": [
        {
          "internalType": "address",
          "name": "_agentVault",
          "type": "address"
        },
        {
          "internalType": "uint256",
          "name": "_amountUBA",
          "type": "uint256"
        }
      ],
      "name": "liquidate",
      "outputs": [
        {
          "internalType": "uint256",
          "name": "_liquidatedAmountUBA",
          "type": "uint256"
        },
        {
          "internalType": "uint256",
          "name": "_amountPaidVault",
          "type": "uint256"
        },
        {
          "internalType": "uint256",
          "name": "_amountPaidPool",
          "type": "uint256"
        }
      ],
      "stateMutability": "nonpayable",
      "type": "function"
    },
    {
      "inputs": [
        {
          "internalType": "address",
          "name": "_agentVault",
          "type": "address"
        }
      ],
      "name": "startLiquidation",
      "outputs": [
        {
          "internalType": "uint8",
          "name": "_liquidationStatus",
          "type": "uint8"
        },
        {
          "internalType": "uint256",
          "name": "_liquidationStartAt",
          "type": "uint256"
        }
      ],
      "stateMutability": "nonpayable",
      "type": "function"
    }
  ],
  "bytecode": "0x608060405234801561001057600080fd5b50612c81806100206000396000f3fe608060405234801561001057600080fd5b50600436106100415760003560e01c8063b7f658ab14610046578063bcbaf4871461005b578063e1c501001461008e575b600080fd5b6100596100543660046128be565b6100ba565b005b61006e6100693660046128d9565b6100c6565b604080519384526020840192909252908201526060015b60405180910390f35b6100a161009c3660046128be565b6100eb565b6040805160ff9093168352602083019190915201610085565b6100c381610122565b50565b60008060006100d36101a9565b6100dd8585610295565b9250925092505b9250925092565b6000806100f66101a9565b60008061010285610408565b9150915081600281111561011857610118612903565b9590945092505050565b600061012d826104ac565b905061013881610553565b600160048083015460ff169081111561015357610153612903565b146101a55760405162461bcd60e51b815260206004820152601760248201527f63616e6e6f742073746f70206c69717569646174696f6e00000000000000000060448201526064015b60405180910390fd5b5050565b7f4f24f5c433db0962dac0d2c8b84197a6e6c7cc4e5d9ebe1916a1b6193da2f34054600080516020612c0c833981519152906001600160a01b0316156100c3576006810154604051633af32abf60e01b81523360048201526001600160a01b0390911690633af32abf90602401602060405180830381865afa158015610233573d6000803e3d6000fd5b505050506040513d601f19601f820116820180604052508101906102579190612919565b6100c35760405162461bcd60e51b815260206004820152600f60248201526e1b9bdd081dda1a5d195b1a5cdd1959608a1b604482015260640161019c565b6000806000806102a4866104ac565b90506004808083015460ff16908111156102c0576102c0612903565b036102d6576000806000935093509350506100e4565b60006102e182610640565b905060006102ef83836106b4565b9050600281600281111561030557610305612903565b146103475760405162461bcd60e51b81526020600482015260126024820152713737ba1034b7103634b8bab4b230ba34b7b760711b604482015260640161019c565b600080600061035f868661035a8d6109b0565b610a0f565b92509250925061036e83610ad6565b9850811561038457610381863384610b29565b97505b80156103a85760006103968783610c33565b90506103a487338484610ca8565b9750505b6103b186610553565b6103bb338a610dae565b60405189815233906001600160a01b038d16907f678b978d20286010bc2fc58064b7a06c608755d2e07fa15ef1b727d5d1b011f89060200160405180910390a35050505050509250925092565b6000806000610416846104ac565b9050600360048083015460ff169081111561043357610433612903565b036104575760040154600294600160a81b9091046001600160401b03169350915050565b60048181015460ff168181111561047057610470612903565b036104815750600093849350915050565b600061048c82610640565b905061049882826106b4565b93506104a382610e41565b92505050915091565b7f5bebac0595fee029d42bb673937f5f1cb81cf8641382bc17774635de9b7d796568010000000000000000600160e01b03604083901b161880600060048084015460ff169081111561050057610500612903565b0361054d5760405162461bcd60e51b815260206004820152601b60248201527f696e76616c6964206167656e74207661756c7420616464726573730000000000604482015260640161019c565b50919050565b600260048083015460ff169081111561056e5761056e612903565b146105765750565b600061058182610640565b9050600061058e83610f26565b9050600061059e84836000611003565b905060006105ae85846001611003565b9050818460000151101580156105c8575080846020015110155b15610639576004850180547fff00000000000000000000ffffffffffffffffffffffffffffffffffffffff0016600117905561060385611069565b6001600160a01b03167fe513b42585b0ceec0d56d56fe3a23861c15a2f74eb4c32c94334d63d68ff4dcf60405160405180910390a25b5050505050565b61066b6040518060800160405280600081526020016000815260200160008152602001600081525090565b600080610679846000611091565b9150915060008061068b866001611091565b604080516080810182529687526020870192909252908501939093525050606082015292915050565b6000806106c084610f26565b835160048601549192506000916106e09190610100900461ffff166110df565b905060028160028111156106f6576106f6612903565b0361071f5760048501805460ff60f01b1981166001600160f01b9283900460ff16179091021790555b60208401516004860154600091610740916301000000900461ffff166110df565b9050600281600281111561075657610756612903565b0361077f5760048601805460ff60f01b1981166002600160f01b9283900460ff16179091021790555b600081600281111561079357610793612903565b8360028111156107a5576107a5612903565b10156107b157816107b3565b825b90508360028111156107c7576107c7612903565b8160028111156107d9576107d9612903565b11156109a35760048701805460ff191660021790556107f742611168565b6004880180546001600160401b0392909216600160a81b0267ffffffffffffffff60a81b19831681178255839260ff60e81b1990911668ffffffffffffffffff60a81b1990911617600160e81b83600281111561085657610856612903565b021790555081600281111561086d5761086d612903565b81600281111561087f5761087f612903565b1461088b57600061088e565b60025b8360028111156108a0576108a0612903565b8260028111156108b2576108b2612903565b146108be5760006108c1565b60015b60048901805460ff9390921792909216600160f01b0260ff60f01b1990911617905560018160028111156108f7576108f7612903565b0361094c5761090587611069565b6001600160a01b03167fb81125a8716d6cd16f1124ce50b6b11a03880b7b0034d22004ddeb0facd411584260405161093f91815260200190565b60405180910390a2610998565b61095587611069565b6001600160a01b03167fee549a858daf6f6ccedae61597c3ece62a808677387a36146cf61363507679754260405161098f91815260200190565b60405180910390a25b93506109aa92505050565b5091925050505b92915050565b7f4f24f5c433db0962dac0d2c8b84197a6e6c7cc4e5d9ebe1916a1b6193da2f34654600090600080516020612c0c83398151915290610a0890610a0390600160901b90046001600160401b031685612967565b611168565b9392505050565b6000806000806000610a2a88886000015189602001516111d4565b915091506000610a5a610a448a8a600001518660006112ed565b610a558b8b602001518660016112ed565b611405565b90506000610a74610a03838a6001600160401b031661141b565b9050610a828a82600161142a565b509650610aa5610a9b6001600160401b0389168661159f565b8a604001516115ae565b9550610ac7610abd6001600160401b0389168561159f565b8a606001516115ae565b94505050505093509350939050565b7f4f24f5c433db0962dac0d2c8b84197a6e6c7cc4e5d9ebe1916a1b6193da2f34654600090600080516020612c0c83398151915290610a0890600160901b90046001600160401b0390811690851661297b565b600080610b35856115c8565b90506000610b4286611069565b82546040516370a0823160e01b81526001600160a01b038084166004830152929350610bbb92879216906370a0823190602401602060405180830381865afa158015610b92573d6000803e3d6000fd5b505050506040513d601f19601f82011682018060405250810190610bb69190612992565b61141b565b825460405163083e007560e21b81526001600160a01b0391821660048201528782166024820152604481018390529194508216906320f801d490606401600060405180830381600087803b158015610c1257600080fd5b505af1158015610c26573d6000803e3d6000fd5b5050505050509392505050565b6000600360048085015460ff1690811115610c5057610c50612903565b1480610c6a57506004830154600160f01b900460ff166001145b15610c765750806109aa565b6004830154600119600160f01b90910460ff1601610c96575060006109aa565b610ca1600283612967565b90506109aa565b600080610cb3611615565b86546040516370a0823160e01b81526001600160a01b0391821660048201529116906370a0823190602401602060405180830381865afa158015610cfb573d6000803e3d6000fd5b505050506040513d601f19601f82011682018060405250810190610d1f9190612992565b9050610d2b848261141b565b9150610d37838361141b565b865460405163adf58c1560e01b81526001600160a01b038881166004830152602482018690526044820184905292955091169063adf58c1590606401600060405180830381600087803b158015610d8d57600080fd5b505af1158015610da1573d6000803e3d6000fd5b5050505050949350505050565b7f4f24f5c433db0962dac0d2c8b84197a6e6c7cc4e5d9ebe1916a1b6193da2f33b546001600160a01b0316604051632770a7eb60e21b81526001600160a01b038481166004830152602482018490529190911690639dc29fac90604401600060405180830381600087803b158015610e2557600080fd5b505af1158015610e39573d6000803e3d6000fd5b505050505050565b600481015460009060ff166002816004811115610e6057610e60612903565b03610eeb576000600080516020612c0c8339815191529050600060016004860154600160e81b900460ff166002811115610e9c57610e9c612903565b14905080610eab576000610eba565b60118201546001600160401b03165b6004860154610ed99190600160a81b90046001600160401b03166129ab565b6001600160401b031695945050505050565b6003816004811115610eff57610eff612903565b03610f1d57505060040154600160a81b90046001600160401b031690565b50600092915050565b600080600080516020612c0c833981519152600484015490915060ff166002816004811115610f5757610f57612903565b03610fd657600060016004860154600160e81b900460ff166002811115610f8057610f80612903565b148015610fbc575060118301546004860154610faf916001600160401b0390811691600160a81b9004166129ab565b6001600160401b03164211155b905080610fca576002610fcd565b60015b95945050505050565b6003816004811115610fea57610fea612903565b03610ff9575060029392505050565b5060009392505050565b6000806110108584611682565b9050600184600281111561102657611026612903565b14806110395750611037858461172e565b155b1561104f576003015463ffffffff169050610a08565b60030154600160401b900463ffffffff1690509392505050565b7f5bebac0595fee029d42bb673937f5f1cb81cf8641382bc17774635de9b7d79651860401c90565b6000806000806110a18686611797565b9150915060006110b183886118fa565b905060006110bf83896118fa565b9050836040015194506110d28282611405565b9550505050509250929050565b600080600080516020612c2c8339815191529050600081600001848154811061110a5761110a6129cb565b60009182526020909120600490910201600381015490915063ffffffff168510611139576000925050506109aa565b6003810154640100000000900463ffffffff16851061115d576001925050506109aa565b6002925050506109aa565b60006001600160401b038211156111d05760405162461bcd60e51b815260206004820152602660248201527f53616665436173743a2076616c756520646f65736e27742066697420696e203660448201526534206269747360d01b606482015260840161019c565b5090565b600080600080516020612c0c833981519152816111f0876119c5565b90506000826015018281548110611209576112096129cb565b9060005260206000200154905061123f83601601838154811061122e5761122e6129cb565b90600052602060002001548261141b565b9450600061124c896115c8565b905060006112598a611abf565b905061126482611af8565b158015611275575061127581611af8565b1561128357600096506112a7565b61128c82611af8565b801561129e575061129c81611af8565b155b156112a7578296505b888711156112b3578896505b6112bd87846129e1565b9550878611156112e0578795506112dd6112d787856129e1565b8a61141b565b96505b5050505050935093915050565b600080600080516020612c0c8339815191529050600360048088015460ff169081111561131c5761131c612903565b0361133d5750506005840154600160401b90046001600160401b03166113fd565b600061134b87600286611003565b905085811161135f576000925050506113fd565b848611611383575050506005840154600160401b90046001600160401b03166113fd565b60006113b861139288846129e1565b61139c88856129e1565b60058b0154600160401b90046001600160401b03169190611b2f565b600d8401549091506113d49082906001600160401b0316611b6c565b60058901549091506113f7908290600160401b90046001600160401b031661141b565b93505050505b949350505050565b60008183116114145781610a08565b5090919050565b60008183106114145781610a08565b60068301546000908190600080516020612c2c833981519152906114589086906001600160401b0316611ba3565b92506001600160401b03831615611473576114738684611bc5565b7f4f24f5c433db0962dac0d2c8b84197a6e6c7cc4e5d9ebe1916a1b6193da2f34954600160801b900461ffff1660005b81811080156114c35750866001600160401b0316856001600160401b0316105b1561157957600060088401816114d88b611069565b6001600160a01b0316815260208101919091526040016000908120546001600160401b0316915081900361150c5750611579565b6001600160401b038116600090815260078501602052604081209061154b611534898c6129f4565b8354600160a01b90046001600160401b0316611ba3565b90506115578382611c1b565b61156181896129ab565b9750505050808061157190612a14565b9150506114a3565b5061158384610ad6565b92508415611595576115958785611e12565b5050935093915050565b6000610a088383612710611e89565b6000610a08826115c06009600a612b11565b859190611e89565b600080600080516020612c2c83398151915260048401548154919250829161010090910461ffff169081106115ff576115ff6129cb565b9060005260206000209060040201915050919050565b7fec7e8c1c441439dd40959777f4c577ea0cd42fcc1dbe59d2bd0f5d9c55df8dc554600080516020612c2c8339815191528054600092829161ffff909116908110611662576116626129cb565b60009182526020909120600490910201546001600160a01b031692915050565b6000600282600281111561169857611698612903565b036116a5576116a5612b1d565b600080516020612c2c83398151915260008360028111156116c8576116c8612903565b0361170457600484015481548291610100900461ffff169081106116ee576116ee6129cb565b90600052602060002090600402019150506109aa565b6004840154815482916301000000900461ffff169081106116ee576116ee6129cb565b5092915050565b60008082600281111561174357611743612903565b0361175f57506004820154600160f01b900460011615156109aa565b600182600281111561177357611773612903565b1461178057611780612b1d565b506004820154600160f01b900460021615156109aa565b6117bc6040805160608101909152806000815260200160008152602001600081525090565b6117e16040805160608101909152806000815260200160008152602001600081525090565b60006117ed8585611682565b905060006117fb8686611faf565b9050600061180883611af8565b611813576000611880565b82546040516370a0823160e01b81526001600160a01b038481166004830152909116906370a0823190602401602060405180830381865afa15801561185c573d6000803e3d6000fd5b505050506040513d601f19601f820116820180604052508101906118809190612992565b905060008061188e85611fe7565b9150915060405180606001604052808960028111156118af576118af612903565b815260200184815260200183815250965060405180606001604052808960028111156118dd576118dd612903565b815260200184815260200182815250955050505050509250929050565b60008060018451600281111561191257611912612903565b14611931576005830154600160801b90046001600160401b0316611947565b6005830154600160c01b90046001600160401b03165b60058401546001600160401b03918216925060009183916119739181811691600160401b900416612b33565b61197d9190612b33565b905080600003611996576402540be400925050506109aa565b60006119a68287604001516115ae565b60208701519091506119bb9061271083611e89565b9695505050505050565b600080600080516020612c0c83398151915290506000600260048086015460ff16908111156119f6576119f6612903565b148015611a22575060016004850154600160e81b900460ff166002811115611a2057611a20612903565b145b9050600081611a32576000611a41565b60118301546001600160401b03165b60048601546001600160401b039182169250600091611a6a918491600160a81b90910416612b33565b601485015490915060009064010000000090046001600160401b0316611a9083426129e1565b611a9a9190612967565b9050611ab48160018760150180549050610bb691906129e1565b979650505050505050565b600080600080516020612c2c833981519152600484015481549192508291630100000090910461ffff169081106115ff576115ff6129cb565b8054600090600160b01b90046001600160401b031615806109aa5750815442600160b01b9091046001600160401b03161192915050565b600080611b3d858585611e89565b905060008380611b4f57611b4f61293b565b85870990508015611b6357816001016119bb565b50949350505050565b600080611b798385612b46565b90508015611b9b5782611b8c82866129e1565b611b969190612b33565b6113fd565b509192915050565b6000816001600160401b0316836001600160401b031611156114145781610a08565b600682015460408051808201909152600f81526e1b9bdd08195b9bdd59da08191d5cdd608a1b6020820152600091611c0a916001600160401b03909116908490612096565b9050611c1683826120e1565b505050565b6001600160401b0382811660009081527fec7e8c1c441439dd40959777f4c577ea0cd42fcc1dbe59d2bd0f5d9c55df8dbd602052604081208054600080516020612c2c83398151915293919291611c7c918691600160a01b909104166129f4565b9050806001600160401b0316600003611ce15781546040516001600160401b038716916001600160a01b0316907fb7f65e70a51658e24800516a5dc90e2dd65176e18381adda77f58e2044482b1990600090a3611cdc6007840186612177565b610639565b7f4f24f5c433db0962dac0d2c8b84197a6e6c7cc4e5d9ebe1916a1b6193da2f347546001600160401b039081169082161015611d8d578154600090611d2e906001600160a01b03166104ac565b9050611d3a8183612551565b82546040516001600160401b038816916001600160a01b0316907fb7f65e70a51658e24800516a5dc90e2dd65176e18381adda77f58e2044482b1990600090a3611d876007850187612177565b50610639565b815467ffffffffffffffff60a01b1916600160a01b6001600160401b038316021782556000611dbb82610ad6565b83546040518281529192506001600160401b038816916001600160a01b03909116907f9d2e72c50be7927e999d37329649af37a863df77bcb25361699ce021d3d7475d9060200160405180910390a3505050505050565b611e5d8260050160089054906101000a90046001600160401b031682604051806040016040528060118152602001701b9bdd08195b9bdd59da081b5a5b9d1959607a1b815250612096565b8260050160086101000a8154816001600160401b0302191690836001600160401b031602179055505050565b6000808211611ecd5760405162461bcd60e51b815260206004820152601060248201526f4469766973696f6e206279207a65726f60801b604482015260640161019c565b83600003611edd57506000610a08565b83830283858281611ef057611ef061293b565b0403611f0e57828181611f0557611f0561293b565b04915050610a08565b506000611f1b8386612967565b90506000611f298487612b46565b90506000611f378587612967565b90506000611f458688612b46565b905085611f52828561297b565b611f5c9190612967565b611f66838561297b565b611f70838761297b565b88611f7b868961297b565b611f85919061297b565b611f8f9190612b33565b611f999190612b33565b611fa39190612b33565b98975050505050505050565b60006001826002811115611fc557611fc5612903565b14611fd857611fd383611069565b610a08565b5050546001600160a01b031690565b600080600080516020612c0c8339815191528180806120068782612575565b925092509250600080600061201c8a6001612575565b60108a01549295509093509150600090859061204890600160c01b90046001600160401b031684612b33565b1015801561207557506010880154869061207290600160c01b90046001600160401b031685612b33565b10155b9050869950806120855786612087565b835b98505050505050505050915091565b6000826001600160401b0316846001600160401b0316101582906120cd5760405162461bcd60e51b815260040161019c9190612b5a565b5050506001600160401b0390811691160390565b60068201546001600160401b038083169116036120fc575050565b60068201805467ffffffffffffffff19166001600160401b038316179055600061212582610ad6565b905061213083611069565b6001600160a01b03167fa3db2bc927901a1d3ba09ad51d84609457b98443be9132a0a936a47c5a1081b58260405161216a91815260200190565b60405180910390a2505050565b6001600160401b038116600090815260208390526040902080546001600160a01b03166121a6576121a6612b1d565b80546001600160a01b031660009081526001808501602052604082209083015490916001600160401b03909116900361222c5760028401546001600160401b038481169116146121f8576121f8612b1d565b6001820154600285018054600160401b9092046001600160401b031667ffffffffffffffff19909216919091179055612294565b60028401546001600160401b039081169084160361224c5761224c612b1d565b6001828101546001600160401b038082166000908152602088905260409020909201805467ffffffffffffffff60401b1916600160401b928390049093169091029190911790555b6001820154600160401b90046001600160401b031660000361230b5760028401546001600160401b03848116600160401b90920416146122d6576122d6612b1d565b600182015460028501805467ffffffffffffffff60401b19166001600160401b03909216600160401b02919091179055612373565b60028401546001600160401b03600160401b90910481169084160361233257612332612b1d565b600180830154600160401b81046001600160401b039081166000908152602088905260409020909201805467ffffffffffffffff1916929091169190911790555b6001820154600160801b90046001600160401b03166000036123d85780546001600160401b038481169116146123ab576123ab612b1d565b60018201548154600160c01b9091046001600160401b031667ffffffffffffffff1990911617815561243e565b80546001600160401b03908116908416036123f5576123f5612b1d565b6001828101546001600160401b03600160801b82048116600090815260208890526040902090920180546001600160c01b0316600160c01b928390049093169091029190911790555b6001820154600160c01b90046001600160401b03166000036124b15780546001600160401b03848116600160401b909204161461247d5761247d612b1d565b6001820154815467ffffffffffffffff60401b1916600160801b9091046001600160401b0316600160401b02178155612523565b80546001600160401b03600160401b9091048116908416036124d5576124d5612b1d565b6001828101546001600160401b03600160c01b820481166000908152602088905260409020909201805467ffffffffffffffff60801b1916600160801b928390049093169091029190911790555b50506001600160401b031660009081526020919091526040812080546001600160e01b031916815560010155565b60068201546101a59083906125709084906001600160401b03166129ab565b6120e1565b60008060008060008061261488600101805461259090612ba9565b80601f01602080910402602001604051908101604052809291908181526020018280546125bc90612ba9565b80156126095780601f106125de57610100808354040283529160200191612609565b820191906000526020600020905b8154815290600101906020018083116125ec57829003601f168201915b50505050508861272d565b8a549295509093509150600160f01b900460ff161561265b57875460009061264a90600160a81b900460ff16600183878661281b565b96509194508493506100e492505050565b60008060006126f68b600201805461267290612ba9565b80601f016020809104026020016040519081016040528092919081815260200182805461269e90612ba9565b80156126eb5780601f106126c0576101008083540402835291602001916126eb565b820191906000526020600020905b8154815290600101906020018083116126ce57829003601f168201915b50505050508b61272d565b8d54929550909350915060009061271a90600160a81b900460ff1685848a8961281b565b99509497509095506100e4945050505050565b7f4f24f5c433db0962dac0d2c8b84197a6e6c7cc4e5d9ebe1916a1b6193da2f3445460009081908190600080516020612c0c833981519152906001600160a01b031685156127ef5760405163e4a0a55b60e01b81526001600160a01b0382169063e4a0a55b906127a1908a90600401612b5a565b606060405180830381865afa1580156127be573d6000803e3d6000fd5b505050506040513d601f19601f820116820180604052508101906127e29190612bdd565b94509450945050506100e4565b60405163524f388960e01b81526001600160a01b0382169063524f3889906127a1908a90600401612b5a565b6000600080516020612c0c833981519152816009612839878a612b33565b6128439190612b33565b600a830154909150600090612863908690600160a81b900460ff16612b33565b90508082101561287557612875612b1d565b61289561288282846129e1565b61288d90600a612b11565b87908a611e89565b9998505050505050505050565b80356001600160a01b03811681146128b957600080fd5b919050565b6000602082840312156128d057600080fd5b610a08826128a2565b600080604083850312156128ec57600080fd5b6128f5836128a2565b946020939093013593505050565b634e487b7160e01b600052602160045260246000fd5b60006020828403121561292b57600080fd5b81518015158114610a0857600080fd5b634e487b7160e01b600052601260045260246000fd5b634e487b7160e01b600052601160045260246000fd5b6000826129765761297661293b565b500490565b80820281158282048414176109aa576109aa612951565b6000602082840312156129a457600080fd5b5051919050565b6001600160401b0381811683821601908082111561172757611727612951565b634e487b7160e01b600052603260045260246000fd5b818103818111156109aa576109aa612951565b6001600160401b0382811682821603908082111561172757611727612951565b600060018201612a2657612a26612951565b5060010190565b600181815b80851115612a68578160001904821115612a4e57612a4e612951565b80851615612a5b57918102915b93841c9390800290612a32565b509250929050565b600082612a7f575060016109aa565b81612a8c575060006109aa565b8160018114612aa25760028114612aac57612ac8565b60019150506109aa565b60ff841115612abd57612abd612951565b50506001821b6109aa565b5060208310610133831016604e8410600b8410161715612aeb575081810a6109aa565b612af58383612a2d565b8060001904821115612b0957612b09612951565b029392505050565b6000610a088383612a70565b634e487b7160e01b600052600160045260246000fd5b808201808211156109aa576109aa612951565b600082612b5557612b5561293b565b500690565b60006020808352835180602085015260005b81811015612b8857858101830151858201604001528201612b6c565b506000604082860101526040601f19601f8301168501019250505092915050565b600181811c90821680612bbd57607f821691505b60208210810361054d57634e487b7160e01b600052602260045260246000fd5b600080600060608486031215612bf257600080fd5b835192506020840151915060408401519050925092509256fe4f24f5c433db0962dac0d2c8b84197a6e6c7cc4e5d9ebe1916a1b6193da2f33aec7e8c1c441439dd40959777f4c577ea0cd42fcc1dbe59d2bd0f5d9c55df8db6a2646970667358221220826936d334e529e4d74f19c908ca86389c2b3ffb221cd7cf18636f8282b216d164736f6c63430008170033",
  "linkReferences": {},
  "deployedLinkReferences": {}
}