{
  "_format": "hh-sol-artifact-1",
  "contractName": "ChallengesFacet",
  "sourceName": "contracts/assetManager/facets/ChallengesFacet.sol",
  "abi": [
    {
      "anonymous": false,
      "inputs": [
        {
          "indexed": true,
          "internalType": "address",
          "name": "agentVault",
          "type": "address"
        },
        {
          "indexed": false,
          "internalType": "bytes32",
          "name": "transactionHash1",
          "type": "bytes32"
        },
        {
          "indexed": false,
          "internalType": "bytes32",
          "name": "transactionHash2",
          "type": "bytes32"
        }
      ],
      "name": "DuplicatePaymentConfirmed",
      "type": "event"
    },
    {
      "anonymous": false,
      "inputs": [
        {
          "indexed": true,
          "internalType": "address",
          "name": "agentVault",
          "type": "address"
        },
        {
          "indexed": false,
          "internalType": "uint256",
          "name": "timestamp",
          "type": "uint256"
        }
      ],
      "name": "FullLiquidationStarted",
      "type": "event"
    },
    {
      "anonymous": false,
      "inputs": [
        {
          "indexed": true,
          "internalType": "address",
          "name": "agentVault",
          "type": "address"
        },
        {
          "indexed": false,
          "internalType": "bytes32",
          "name": "transactionHash",
          "type": "bytes32"
        }
      ],
      "name": "IllegalPaymentConfirmed",
      "type": "event"
    },
    {
      "anonymous": false,
      "inputs": [
        {
          "indexed": true,
          "internalType": "address",
          "name": "agentVault",
          "type": "address"
        },
        {
          "indexed": false,
          "internalType": "int256",
          "name": "balance",
          "type": "int256"
        },
        {
          "indexed": false,
          "internalType": "uint256",
          "name": "requiredBalance",
          "type": "uint256"
        }
      ],
      "name": "UnderlyingBalanceTooLow",
      "type": "event"
    },
    {
      "inputs": [
        {
          "components": [
            {
              "internalType": "bytes32[]",
              "name": "merkleProof",
              "type": "bytes32[]"
            },
            {
              "components": [
                {
                  "internalType": "bytes32",
                  "name": "attestationType",
                  "type": "bytes32"
                },
                {
                  "internalType": "bytes32",
                  "name": "sourceId",
                  "type": "bytes32"
                },
                {
                  "internalType": "uint64",
                  "name": "votingRound",
                  "type": "uint64"
                },
                {
                  "internalType": "uint64",
                  "name": "lowestUsedTimestamp",
                  "type": "uint64"
                },
                {
                  "components": [
                    {
                      "internalType": "bytes32",
                      "name": "transactionId",
                      "type": "bytes32"
                    },
                    {
                      "internalType": "bytes32",
                      "name": "sourceAddressIndicator",
                      "type": "bytes32"
                    }
                  ],
                  "internalType": "struct IBalanceDecreasingTransaction.RequestBody",
                  "name": "requestBody",
                  "type": "tuple"
                },
                {
                  "components": [
                    {
                      "internalType": "uint64",
                      "name": "blockNumber",
                      "type": "uint64"
                    },
                    {
                      "internalType": "uint64",
                      "name": "blockTimestamp",
                      "type": "uint64"
                    },
                    {
                      "internalType": "bytes32",
                      "name": "sourceAddressHash",
                      "type": "bytes32"
                    },
                    {
                      "internalType": "int256",
                      "name": "spentAmount",
                      "type": "int256"
                    },
                    {
                      "internalType": "bytes32",
                      "name": "standardPaymentReference",
                      "type": "bytes32"
                    }
                  ],
                  "internalType": "struct IBalanceDecreasingTransaction.ResponseBody",
                  "name": "responseBody",
                  "type": "tuple"
                }
              ],
              "internalType": "struct IBalanceDecreasingTransaction.Response",
              "name": "data",
              "type": "tuple"
            }
          ],
          "internalType": "struct IBalanceDecreasingTransaction.Proof",
          "name": "_payment1",
          "type": "tuple"
        },
        {
          "components": [
            {
              "internalType": "bytes32[]",
              "name": "merkleProof",
              "type": "bytes32[]"
            },
            {
              "components": [
                {
                  "internalType": "bytes32",
                  "name": "attestationType",
                  "type": "bytes32"
                },
                {
                  "internalType": "bytes32",
                  "name": "sourceId",
                  "type": "bytes32"
                },
                {
                  "internalType": "uint64",
                  "name": "votingRound",
                  "type": "uint64"
                },
                {
                  "internalType": "uint64",
                  "name": "lowestUsedTimestamp",
                  "type": "uint64"
                },
                {
                  "components": [
                    {
                      "internalType": "bytes32",
                      "name": "transactionId",
                      "type": "bytes32"
                    },
                    {
                      "internalType": "bytes32",
                      "name": "sourceAddressIndicator",
                      "type": "bytes32"
                    }
                  ],
                  "internalType": "struct IBalanceDecreasingTransaction.RequestBody",
                  "name": "requestBody",
                  "type": "tuple"
                },
                {
                  "components": [
                    {
                      "internalType": "uint64",
                      "name": "blockNumber",
                      "type": "uint64"
                    },
                    {
                      "internalType": "uint64",
                      "name": "blockTimestamp",
                      "type": "uint64"
                    },
                    {
                      "internalType": "bytes32",
                      "name": "sourceAddressHash",
                      "type": "bytes32"
                    },
                    {
                      "internalType": "int256",
                      "name": "spentAmount",
                      "type": "int256"
                    },
                    {
                      "internalType": "bytes32",
                      "name": "standardPaymentReference",
                      "type": "bytes32"
                    }
                  ],
                  "internalType": "struct IBalanceDecreasingTransaction.ResponseBody",
                  "name": "responseBody",
                  "type": "tuple"
                }
              ],
              "internalType": "struct IBalanceDecreasingTransaction.Response",
              "name": "data",
              "type": "tuple"
            }
          ],
          "internalType": "struct IBalanceDecreasingTransaction.Proof",
          "name": "_payment2",
          "type": "tuple"
        },
        {
          "internalType": "address",
          "name": "_agentVault",
          "type": "address"
        }
      ],
      "name": "doublePaymentChallenge",
      "outputs": [],
      "stateMutability": "nonpayable",
      "type": "function"
    },
    {
      "inputs": [
        {
          "components": [
            {
              "internalType": "bytes32[]",
              "name": "merkleProof",
              "type": "bytes32[]"
            },
            {
              "components": [
                {
                  "internalType": "bytes32",
                  "name": "attestationType",
                  "type": "bytes32"
                },
                {
                  "internalType": "bytes32",
                  "name": "sourceId",
                  "type": "bytes32"
                },
                {
                  "internalType": "uint64",
                  "name": "votingRound",
                  "type": "uint64"
                },
                {
                  "internalType": "uint64",
                  "name": "lowestUsedTimestamp",
                  "type": "uint64"
                },
                {
                  "components": [
                    {
                      "internalType": "bytes32",
                      "name": "transactionId",
                      "type": "bytes32"
                    },
                    {
                      "internalType": "bytes32",
                      "name": "sourceAddressIndicator",
                      "type": "bytes32"
                    }
                  ],
                  "internalType": "struct IBalanceDecreasingTransaction.RequestBody",
                  "name": "requestBody",
                  "type": "tuple"
                },
                {
                  "components": [
                    {
                      "internalType": "uint64",
                      "name": "blockNumber",
                      "type": "uint64"
                    },
                    {
                      "internalType": "uint64",
                      "name": "blockTimestamp",
                      "type": "uint64"
                    },
                    {
                      "internalType": "bytes32",
                      "name": "sourceAddressHash",
                      "type": "bytes32"
                    },
                    {
                      "internalType": "int256",
                      "name": "spentAmount",
                      "type": "int256"
                    },
                    {
                      "internalType": "bytes32",
                      "name": "standardPaymentReference",
                      "type": "bytes32"
                    }
                  ],
                  "internalType": "struct IBalanceDecreasingTransaction.ResponseBody",
                  "name": "responseBody",
                  "type": "tuple"
                }
              ],
              "internalType": "struct IBalanceDecreasingTransaction.Response",
              "name": "data",
              "type": "tuple"
            }
          ],
          "internalType": "struct IBalanceDecreasingTransaction.Proof[]",
          "name": "_payments",
          "type": "tuple[]"
        },
        {
          "internalType": "address",
          "name": "_agentVault",
          "type": "address"
        }
      ],
      "name": "freeBalanceNegativeChallenge",
      "outputs": [],
      "stateMutability": "nonpayable",
      "type": "function"
    },
    {
      "inputs": [
        {
          "components": [
            {
              "internalType": "bytes32[]",
              "name": "merkleProof",
              "type": "bytes32[]"
            },
            {
              "components": [
                {
                  "internalType": "bytes32",
                  "name": "attestationType",
                  "type": "bytes32"
                },
                {
                  "internalType": "bytes32",
                  "name": "sourceId",
                  "type": "bytes32"
                },
                {
                  "internalType": "uint64",
                  "name": "votingRound",
                  "type": "uint64"
                },
                {
                  "internalType": "uint64",
                  "name": "lowestUsedTimestamp",
                  "type": "uint64"
                },
                {
                  "components": [
                    {
                      "internalType": "bytes32",
                      "name": "transactionId",
                      "type": "bytes32"
                    },
                    {
                      "internalType": "bytes32",
                      "name": "sourceAddressIndicator",
                      "type": "bytes32"
                    }
                  ],
                  "internalType": "struct IBalanceDecreasingTransaction.RequestBody",
                  "name": "requestBody",
                  "type": "tuple"
                },
                {
                  "components": [
                    {
                      "internalType": "uint64",
                      "name": "blockNumber",
                      "type": "uint64"
                    },
                    {
                      "internalType": "uint64",
                      "name": "blockTimestamp",
                      "type": "uint64"
                    },
                    {
                      "internalType": "bytes32",
                      "name": "sourceAddressHash",
                      "type": "bytes32"
                    },
                    {
                      "internalType": "int256",
                      "name": "spentAmount",
                      "type": "int256"
                    },
                    {
                      "internalType": "bytes32",
                      "name": "standardPaymentReference",
                      "type": "bytes32"
                    }
                  ],
                  "internalType": "struct IBalanceDecreasingTransaction.ResponseBody",
                  "name": "responseBody",
                  "type": "tuple"
                }
              ],
              "internalType": "struct IBalanceDecreasingTransaction.Response",
              "name": "data",
              "type": "tuple"
            }
          ],
          "internalType": "struct IBalanceDecreasingTransaction.Proof",
          "name": "_transaction",
          "type": "tuple"
        },
        {
          "internalType": "address",
          "name": "_agentVault",
          "type": "address"
        }
      ],
      "name": "illegalPaymentChallenge",
      "outputs": [],
      "stateMutability": "nonpayable",
      "type": "function"
    }
  ],
  "bytecode": "0x608060405234801561001057600080fd5b50612167806100206000396000f3fe608060405234801561001057600080fd5b50600436106100415760003560e01c806366a37046146100465780637e7bfdc61461005b578063eb81ca631461006e575b600080fd5b610059610054366004611b18565b610081565b005b610059610069366004611b65565b6100c8565b61005961007c366004611be8565b610111565b61008961012c565b610091610220565b61009b8282610299565b6100c460017f0cd2207518cd3e5213e2c6dbe63d55b60aa893c194a427b7d7f1600408fd5bde55565b5050565b6100d061012c565b6100d8610220565b6100e38383836105e2565b61010c60017f0cd2207518cd3e5213e2c6dbe63d55b60aa893c194a427b7d7f1600408fd5bde55565b505050565b61011961012c565b610121610220565b6100e3838383610940565b7f4f24f5c433db0962dac0d2c8b84197a6e6c7cc4e5d9ebe1916a1b6193da2f340546000805160206120f2833981519152906001600160a01b03161561021d576006810154604051633af32abf60e01b81523360048201526001600160a01b0390911690633af32abf90602401602060405180830381865afa1580156101b6573d6000803e3d6000fd5b505050506040513d601f19601f820116820180604052508101906101da9190611c52565b61021d5760405162461bcd60e51b815260206004820152600f60248201526e1b9bdd081dda1a5d195b1a5cdd1959608a1b60448201526064015b60405180910390fd5b50565b7f0cd2207518cd3e5213e2c6dbe63d55b60aa893c194a427b7d7f1600408fd5bde8054600119016102935760405162461bcd60e51b815260206004820152601f60248201527f5265656e7472616e637947756172643a207265656e7472616e742063616c6c006044820152606401610214565b60029055565b7fec7e8c1c441439dd40959777f4c577ea0cd42fcc1dbe59d2bd0f5d9c55df8db660006102c583610b98565b9050600360048083015460ff16908111156102e2576102e2611c74565b0361032f5760405162461bcd60e51b815260206004820152601960248201527f63686c673a20616c7265616479206c69717569646174696e67000000000000006044820152606401610214565b61033884610c2d565b6003810154610120850135146103905760405162461bcd60e51b815260206004820152601960248201527f63686c673a206e6f74206167656e7427732061646472657373000000000000006044820152606401610214565b61039d600b830185610dee565b156103ea5760405162461bcd60e51b815260206004820152601b60248201527f63686c673a207472616e73616374696f6e20636f6e6669726d656400000000006044820152606401610214565b61016084013580156105775761040b8167232128293320800160c11b610e37565b156104ea57600061041b82610e6f565b6000818152600a8601602052604081206004810154929350916001600160a01b038881169116148015610496575060016004830154600160a01b900460ff16600281111561046b5761046b611c74565b1480610496575060026004830154600160a01b900460ff16600281111561049457610494611c74565b145b905080156104e65760405162461bcd60e51b815260206004820152601a60248201527f6d61746368696e6720726564656d7074696f6e206163746976650000000000006044820152606401610214565b5050505b6104ff8167464250526641000360c01b610e37565b1561057757600061050f82610e6f565b6006840154909150600160c01b90046001600160401b031681036105755760405162461bcd60e51b815260206004820152601e60248201527f6d61746368696e67206f6e676f696e6720616e6e6f756e63656420706d7400006044820152606401610214565b505b61059982338460050160089054906101000a90046001600160401b0316610e88565b60405160a086013581526001600160a01b038516907f874b3e56440a065ac7740d39114a84e127ccd3d20311567b84878685710506b59060200160405180910390a25050505050565b7fec7e8c1c441439dd40959777f4c577ea0cd42fcc1dbe59d2bd0f5d9c55df8db6600061060e83610b98565b9050600360048083015460ff169081111561062b5761062b611c74565b036106785760405162461bcd60e51b815260206004820152601e60248201527f6d756c742063686c673a20616c7265616479206c69717569646174696e6700006044820152606401610214565b6000805b8581101561084c573687878381811061069757610697611c8a565b90506020028101906106a99190611ca0565b90506106b481610c2d565b60005b828110156107415760a08201358989838181106106d6576106d6611c8a565b90506020028101906106e89190611ca0565b60a00135036107395760405162461bcd60e51b815260206004820152601f60248201527f6d756c742063686c673a207265706561746564207472616e73616374696f6e006044820152606401610214565b6001016106b7565b5060038401546101208201351461079a5760405162461bcd60e51b815260206004820152601e60248201527f6d756c742063686c673a206e6f74206167656e742773206164647265737300006044820152606401610214565b6107a7600b860182610dee565b156107b25750610844565b6101608101356107cd8167232128293320800160c11b610e37565b1561082f5760006107e2610160840135610e6f565b6000818152600a89016020526040902060018101549192509061080d906001600160801b0316610f23565b61081c90610140860135611cd7565b6108269087611cfe565b95505050610841565b61083e61014083013585611cfe565b93505b50505b60010161067c565b50600682015460009061086a908390600160401b9004600f0b611cd7565b9050600061087784610f91565b905061088281610f23565b82126108d05760405162461bcd60e51b815260206004820152601960248201527f6d756c742063686c673a20656e6f7567682062616c616e6365000000000000006044820152606401610214565b6108f284338660050160089054906101000a90046001600160401b0316610e88565b60408051838152602081018390526001600160a01b038816917f3232fdbb55664d655aff08d1cc31318b51047d1178a5cea499006d9f9d4c07ae910160405180910390a25050505050505050565b600061094b82610b98565b9050600360048083015460ff169081111561096857610968611c74565b036109b55760405162461bcd60e51b815260206004820152601d60248201527f63686c672064626c3a20616c7265616479206c69717569646174696e670000006044820152606401610214565b6109be84610c2d565b6109c783610c2d565b60a0808401359085013503610a1e5760405162461bcd60e51b815260206004820152601a60248201527f63686c672064626c3a2073616d65207472616e73616374696f6e0000000000006044820152606401610214565b600381015461012085013514610a765760405162461bcd60e51b815260206004820152601b60248201527f63686c6720313a206e6f74206167656e742773206164647265737300000000006044820152606401610214565b600381015461012084013514610ace5760405162461bcd60e51b815260206004820152601b60248201527f63686c6720323a206e6f74206167656e742773206164647265737300000000006044820152606401610214565b610160848101359084013514610b265760405162461bcd60e51b815260206004820152601860248201527f6368616c6c656e67653a206e6f74206475706c696361746500000000000000006044820152606401610214565b610b4881338360050160089054906101000a90046001600160401b0316610e88565b6040805160a086810135825285013560208201526001600160a01b038416917f8ffdcc5d703424623d5d4b95aa3551030ae55d7925aea68e0d9dd8ddf8cf1d44910160405180910390a250505050565b60008051602061211283398151915268010000000000000000600160e01b03604083901b161880600060048084015460ff1690811115610bda57610bda611c74565b03610c275760405162461bcd60e51b815260206004820152601b60248201527f696e76616c6964206167656e74207661756c74206164647265737300000000006044820152606401610214565b50919050565b7f4f24f5c433db0962dac0d2c8b84197a6e6c7cc4e5d9ebe1916a1b6193da2f342547f4f24f5c433db0962dac0d2c8b84197a6e6c7cc4e5d9ebe1916a1b6193da2f345546000805160206120f2833981519152916001600160a01b031690604084013514610ccd5760405162461bcd60e51b815260206004820152600d60248201526c34b73b30b634b21031b430b4b760991b6044820152606401610214565b604051636ec659c760e01b81526001600160a01b03821690636ec659c790610cf9908690600401611dd8565b602060405180830381865afa158015610d16573d6000803e3d6000fd5b505050506040513d601f19601f82011682018060405250810190610d3a9190611c52565b610d7f5760405162461bcd60e51b81526020600482015260166024820152751d1c985b9cd858dd1a5bdb881b9bdd081c1c9bdd995960521b6044820152606401610214565b610da2610d9461012085016101008601611e6b565b6001600160401b0316611034565b61010c5760405162461bcd60e51b815260206004820152601c60248201527f7665726966696564207472616e73616374696f6e20746f6f206f6c64000000006044820152606401610214565b6040805161012083013560208083019190915260a08401358284015282518083038401815260609092018352815191810191909120600090815290849052205415155b92915050565b60006001600160c01b0319831681610e546001600160c01b611e86565b851690508184148015610e6657508015155b95945050505050565b6000610e806001600160c01b611e86565b909116919050565b6000805160206120f2833981519152610ea084611057565b6000610eab85611171565b600f830154909150600090610ed5906001600160401b03861690600160901b900461ffff1661125d565b6010840154909150600090610ef49088906001600160801b0316611273565b610f02838560400151611287565b610f0c9190611e99565b9050610f198787836112a1565b5050505050505050565b60006001600160ff1b03821115610f8d5760405162461bcd60e51b815260206004820152602860248201527f53616665436173743a2076616c756520646f65736e27742066697420696e2061604482015267371034b73a191a9b60c11b6064820152608401610214565b5090565b7f4f24f5c433db0962dac0d2c8b84197a6e6c7cc4e5d9ebe1916a1b6193da2f3465460058201546000916000805160206120f2833981519152918391600160901b90046001600160401b0390811691610ffb91600160801b8204811691600160401b900416611eac565b6001600160401b031661100e9190611ecc565b600d83015490915061102c908290600160401b900461ffff1661125d565b949350505050565b6000611044600e62015180611ecc565b61104e9042611e86565b90911015919050565b600360048083015460ff169081111561107257611072611c74565b1480611094575060048181015460ff168181111561109257611092611c74565b145b1561109c5750565b60006110a7826113b6565b905060028160028111156110bd576110bd611c74565b14611108576110cb42611492565b6004830180546001600160401b0392909216600160a81b0260ff60e81b191668ffffffffffffffffff60a81b1990921691909117600160e91b1790555b60048201805460ff19166003179055600080516020612112833981519152821860401c6001600160a01b03167fa3bf539465c1a8746950e123769affaff9097155e9e8cb9e079e1d55d6ba34974260405161116591815260200190565b60405180910390a25050565b6111966040805160608101909152806000815260200160008152602001600081525090565b60006111a1836114fa565b6040805160608101909152909150806000815282546020909101906001600160a01b03166370a08231600080516020612112833981519152871860401c6040516001600160e01b031960e084901b1681526001600160a01b039091166004820152602401602060405180830381865afa158015611222573d6000803e3d6000fd5b505050506040513d601f19601f820116820180604052508101906112469190611ee3565b815260200161125483611559565b90529392505050565b600061126c838361271061156f565b9392505050565b600061126c82611282856114fa565b611695565b600061126c826112996009600a611fe0565b85919061156f565b6000806112ad856114fa565b90506000600080516020612112833981519152861860401c82546040516370a0823160e01b81526001600160a01b03808416600483015292935061133e92879216906370a0823190602401602060405180830381865afa158015611315573d6000803e3d6000fd5b505050506040513d601f19601f820116820180604052508101906113399190611ee3565b61179f565b825460405163083e007560e21b81526001600160a01b0391821660048201528782166024820152604481018390529194508216906320f801d490606401600060405180830381600087803b15801561139557600080fd5b505af11580156113a9573d6000803e3d6000fd5b5050505050509392505050565b6000806000805160206120f2833981519152600484015490915060ff1660028160048111156113e7576113e7611c74565b0361146557600060016004860154600160e81b900460ff16600281111561141057611410611c74565b14801561144c57506011830154600486015461143f916001600160401b0390811691600160a81b900416611eac565b6001600160401b03164211155b90508061145a576002610e66565b600195945050505050565b600381600481111561147957611479611c74565b03611488575060029392505050565b5060009392505050565b60006001600160401b03821115610f8d5760405162461bcd60e51b815260206004820152602660248201527f53616665436173743a2076616c756520646f65736e27742066697420696e203660448201526534206269747360d01b6064820152608401610214565b6000807fec7e8c1c441439dd40959777f4c577ea0cd42fcc1dbe59d2bd0f5d9c55df8db660048401548154919250829161010090910461ffff1690811061154357611543611c8a565b9060005260206000209060040201915050919050565b60006115668260006117b5565b50909392505050565b60008082116115b35760405162461bcd60e51b815260206004820152601060248201526f4469766973696f6e206279207a65726f60801b6044820152606401610214565b836000036115c35750600061126c565b838302838582816115d6576115d6611fec565b04036115f4578281816115eb576115eb611fec565b0491505061126c565b5060006116018386612002565b9050600061160f8487612016565b9050600061161d8587612002565b9050600061162b8688612016565b9050856116388285611ecc565b6116429190612002565b61164c8385611ecc565b6116568387611ecc565b886116618689611ecc565b61166b9190611ecc565b6116759190611e99565b61167f9190611e99565b6116899190611e99565b98975050505050505050565b60008160020180546116a69061202a565b90506000036116b6575081610e31565b6000806117508460020180546116cb9061202a565b80601f01602080910402602001604051908101604052809291908181526020018280546116f79061202a565b80156117445780601f1061171957610100808354040283529160200191611744565b820191906000526020600020905b81548152906001019060200180831161172757829003601f168201915b50505050506000611974565b8654929450925060009160059150611773908490600160a81b900460ff16611e99565b61177d9190611e86565b905061179561178d82600a611fe0565b87908561156f565b9695505050505050565b60008183106117ae578161126c565b5090919050565b6000806000806000806118548860010180546117d09061202a565b80601f01602080910402602001604051908101604052809291908181526020018280546117fc9061202a565b80156118495780601f1061181e57610100808354040283529160200191611849565b820191906000526020600020905b81548152906001019060200180831161182c57829003601f168201915b505050505088611974565b8a549295509093509150600160f01b900460ff161561189b57875460009061188a90600160a81b900460ff166001838786611a62565b965091945084935061196d92505050565b60008060006119368b60020180546118b29061202a565b80601f01602080910402602001604051908101604052809291908181526020018280546118de9061202a565b801561192b5780601f106119005761010080835404028352916020019161192b565b820191906000526020600020905b81548152906001019060200180831161190e57829003601f168201915b50505050508b611974565b8d54929550909350915060009061195a90600160a81b900460ff1685848a89611a62565b995094975090955061196d945050505050565b9250925092565b7f4f24f5c433db0962dac0d2c8b84197a6e6c7cc4e5d9ebe1916a1b6193da2f34454600090819081906000805160206120f2833981519152906001600160a01b03168515611a365760405163e4a0a55b60e01b81526001600160a01b0382169063e4a0a55b906119e8908a9060040161205e565b606060405180830381865afa158015611a05573d6000803e3d6000fd5b505050506040513d601f19601f82011682018060405250810190611a2991906120ad565b945094509450505061196d565b60405163524f388960e01b81526001600160a01b0382169063524f3889906119e8908a9060040161205e565b60006000805160206120f2833981519152816009611a80878a611e99565b611a8a9190611e99565b600a830154909150600090611aaa908690600160a81b900460ff16611e99565b905080821015611abc57611abc6120db565b611adc611ac98284611e86565b611ad490600a611fe0565b87908a61156f565b9998505050505050505050565b60006101808284031215610c2757600080fd5b80356001600160a01b0381168114611b1357600080fd5b919050565b60008060408385031215611b2b57600080fd5b82356001600160401b03811115611b4157600080fd5b611b4d85828601611ae9565b925050611b5c60208401611afc565b90509250929050565b600080600060408486031215611b7a57600080fd5b83356001600160401b0380821115611b9157600080fd5b818601915086601f830112611ba557600080fd5b813581811115611bb457600080fd5b8760208260051b8501011115611bc957600080fd5b602092830195509350611bdf9186019050611afc565b90509250925092565b600080600060608486031215611bfd57600080fd5b83356001600160401b0380821115611c1457600080fd5b611c2087838801611ae9565b94506020860135915080821115611c3657600080fd5b50611c4386828701611ae9565b925050611bdf60408501611afc565b600060208284031215611c6457600080fd5b8151801515811461126c57600080fd5b634e487b7160e01b600052602160045260246000fd5b634e487b7160e01b600052603260045260246000fd5b6000823561017e19833603018112611cb757600080fd5b9190910192915050565b634e487b7160e01b600052601160045260246000fd5b8181036000831280158383131683831282161715611cf757611cf7611cc1565b5092915050565b8082018281126000831280158216821582161715611d1e57611d1e611cc1565b505092915050565b80356001600160401b0381168114611b1357600080fd5b8035825260208101356020830152611d5760408201611d26565b6001600160401b03808216604085015280611d7460608501611d26565b1660608501526080830135608085015260a083013560a085015280611d9b60c08501611d26565b1660c085015280611dae60e08501611d26565b1660e085015250506101008181013590830152610120808201359083015261014090810135910152565b6020815260008235601e19843603018112611df257600080fd5b83016020810190356001600160401b03811115611e0e57600080fd5b8060051b803603831315611e2157600080fd5b61018060208601526101a085018290526101c06001600160fb1b03831115611e4857600080fd5b818482880137611e5e6040870160208901611d3d565b9401909301949350505050565b600060208284031215611e7d57600080fd5b61126c82611d26565b81810381811115610e3157610e31611cc1565b80820180821115610e3157610e31611cc1565b6001600160401b03818116838216019080821115611cf757611cf7611cc1565b8082028115828204841417610e3157610e31611cc1565b600060208284031215611ef557600080fd5b5051919050565b600181815b80851115611f37578160001904821115611f1d57611f1d611cc1565b80851615611f2a57918102915b93841c9390800290611f01565b509250929050565b600082611f4e57506001610e31565b81611f5b57506000610e31565b8160018114611f715760028114611f7b57611f97565b6001915050610e31565b60ff841115611f8c57611f8c611cc1565b50506001821b610e31565b5060208310610133831016604e8410600b8410161715611fba575081810a610e31565b611fc48383611efc565b8060001904821115611fd857611fd8611cc1565b029392505050565b600061126c8383611f3f565b634e487b7160e01b600052601260045260246000fd5b60008261201157612011611fec565b500490565b60008261202557612025611fec565b500690565b600181811c9082168061203e57607f821691505b602082108103610c2757634e487b7160e01b600052602260045260246000fd5b60006020808352835180602085015260005b8181101561208c57858101830151858201604001528201612070565b506000604082860101526040601f19601f8301168501019250505092915050565b6000806000606084860312156120c257600080fd5b8351925060208401519150604084015190509250925092565b634e487b7160e01b600052600160045260246000fdfe4f24f5c433db0962dac0d2c8b84197a6e6c7cc4e5d9ebe1916a1b6193da2f33a5bebac0595fee029d42bb673937f5f1cb81cf8641382bc17774635de9b7d7965a26469706673582212207b70122114ea8c15feac5d21a6f457d5aa5cff7705f1a300651c334dc8163d7d64736f6c63430008170033",
  "linkReferences": {},
  "deployedLinkReferences": {}
}