{
  "_format": "hh-sol-artifact-1",
  "contractName": "TestUUPSProxyImpl",
  "sourceName": "contracts/utils/mock/TestUUPSProxyImpl.sol",
  "abi": [
    {
      "anonymous": false,
      "inputs": [
        {
          "indexed": false,
          "internalType": "address",
          "name": "previousAdmin",
          "type": "address"
        },
        {
          "indexed": false,
          "internalType": "address",
          "name": "newAdmin",
          "type": "address"
        }
      ],
      "name": "AdminChanged",
      "type": "event"
    },
    {
      "anonymous": false,
      "inputs": [
        {
          "indexed": true,
          "internalType": "address",
          "name": "beacon",
          "type": "address"
        }
      ],
      "name": "BeaconUpgraded",
      "type": "event"
    },
    {
      "anonymous": false,
      "inputs": [
        {
          "indexed": true,
          "internalType": "address",
          "name": "implementation",
          "type": "address"
        }
      ],
      "name": "Upgraded",
      "type": "event"
    },
    {
      "inputs": [],
      "name": "implementation",
      "outputs": [
        {
          "internalType": "address",
          "name": "",
          "type": "address"
        }
      ],
      "stateMutability": "view",
      "type": "function"
    },
    {
      "inputs": [
        {
          "internalType": "string",
          "name": "_message",
          "type": "string"
        }
      ],
      "name": "initialize",
      "outputs": [],
      "stateMutability": "nonpayable",
      "type": "function"
    },
    {
      "inputs": [],
      "name": "proxiableUUID",
      "outputs": [
        {
          "internalType": "bytes32",
          "name": "",
          "type": "bytes32"
        }
      ],
      "stateMutability": "view",
      "type": "function"
    },
    {
      "inputs": [],
      "name": "testResult",
      "outputs": [
        {
          "internalType": "string",
          "name": "",
          "type": "string"
        }
      ],
      "stateMutability": "view",
      "type": "function"
    },
    {
      "inputs": [
        {
          "internalType": "address",
          "name": "newImplementation",
          "type": "address"
        }
      ],
      "name": "upgradeTo",
      "outputs": [],
      "stateMutability": "nonpayable",
      "type": "function"
    },
    {
      "inputs": [
        {
          "internalType": "address",
          "name": "newImplementation",
          "type": "address"
        },
        {
          "internalType": "bytes",
          "name": "data",
          "type": "bytes"
        }
      ],
      "name": "upgradeToAndCall",
      "outputs": [],
      "stateMutability": "payable",
      "type": "function"
    }
  ],
  "bytecode": "0x60a06040523060805234801561001457600080fd5b50608051610c7e61004c6000396000818161013001528181610179015281816101f80152818161023801526102ab0152610c7e6000f3fe6080604052600436106100555760003560e01c80633659cfe61461005a5780634f1ef2861461007c57806352d1902d1461008f5780635c60da1b146100b75780638f1db79b146100e4578063f62d188814610106575b600080fd5b34801561006657600080fd5b5061007a610075366004610841565b610126565b005b61007a61008a3660046108e8565b6101ee565b34801561009b57600080fd5b506100a461029e565b6040519081526020015b60405180910390f35b3480156100c357600080fd5b506100cc610351565b6040516001600160a01b0390911681526020016100ae565b3480156100f057600080fd5b506100f9610360565b6040516100ae919061096e565b34801561011257600080fd5b5061007a6101213660046109a1565b610424565b6001600160a01b037f00000000000000000000000000000000000000000000000000000000000000001630036101775760405162461bcd60e51b815260040161016e906109ea565b60405180910390fd5b7f00000000000000000000000000000000000000000000000000000000000000006001600160a01b03166101a9610443565b6001600160a01b0316146101cf5760405162461bcd60e51b815260040161016e90610a36565b604080516000808252602082019092526101eb9183919061045f565b50565b6001600160a01b037f00000000000000000000000000000000000000000000000000000000000000001630036102365760405162461bcd60e51b815260040161016e906109ea565b7f00000000000000000000000000000000000000000000000000000000000000006001600160a01b0316610268610443565b6001600160a01b03161461028e5760405162461bcd60e51b815260040161016e90610a36565b61029a8282600161045f565b5050565b6000306001600160a01b037f0000000000000000000000000000000000000000000000000000000000000000161461033e5760405162461bcd60e51b815260206004820152603860248201527f555550535570677261646561626c653a206d757374206e6f742062652063616c60448201527f6c6564207468726f7567682064656c656761746563616c6c0000000000000000606482015260840161016e565b50600080516020610c0283398151915290565b600061035b610443565b905090565b6103e95460609060ff16610393575060408051808201909152600a815269746573742070726f787960b01b602082015290565b6103e880546103a190610a82565b80601f01602080910402602001604051908101604052809291908181526020018280546103cd90610a82565b801561041a5780601f106103ef5761010080835404028352916020019161041a565b820191906000526020600020905b8154815290600101906020018083116103fd57829003601f168201915b5050505050905090565b6103e86104318282610b0c565b50506103e9805460ff19166001179055565b600080516020610c02833981519152546001600160a01b031690565b7f4910fdfa16fed3260ed0e7147f7cc6da11a60208b5b9406d12a635614ffd91435460ff161561049757610492836105cf565b505050565b826001600160a01b03166352d1902d6040518163ffffffff1660e01b8152600401602060405180830381865afa9250505080156104f1575060408051601f3d908101601f191682019092526104ee91810190610bcc565b60015b6105545760405162461bcd60e51b815260206004820152602e60248201527f45524331393637557067726164653a206e657720696d706c656d656e7461746960448201526d6f6e206973206e6f74205555505360901b606482015260840161016e565b600080516020610c0283398151915281146105c35760405162461bcd60e51b815260206004820152602960248201527f45524331393637557067726164653a20756e737570706f727465642070726f786044820152681a58589b195555525160ba1b606482015260840161016e565b5061049283838361066b565b6001600160a01b0381163b61063c5760405162461bcd60e51b815260206004820152602d60248201527f455243313936373a206e657720696d706c656d656e746174696f6e206973206e60448201526c1bdd08184818dbdb9d1c9858dd609a1b606482015260840161016e565b600080516020610c0283398151915280546001600160a01b0319166001600160a01b0392909216919091179055565b61067483610696565b6000825111806106815750805b156104925761069083836106d6565b50505050565b61069f816105cf565b6040516001600160a01b038216907fbc7cd75a20ee27fd9adebab32041f755214dbc6bffa90cc0225b39da2e5c2d3b90600090a250565b60606106fb8383604051806060016040528060278152602001610c2260279139610702565b9392505050565b6060600080856001600160a01b03168560405161071f9190610be5565b600060405180830381855af49150503d806000811461075a576040519150601f19603f3d011682016040523d82523d6000602084013e61075f565b606091505b50915091506107708683838761077a565b9695505050505050565b606083156107e95782516000036107e2576001600160a01b0385163b6107e25760405162461bcd60e51b815260206004820152601d60248201527f416464726573733a2063616c6c20746f206e6f6e2d636f6e7472616374000000604482015260640161016e565b50816107f3565b6107f383836107fb565b949350505050565b81511561080b5781518083602001fd5b8060405162461bcd60e51b815260040161016e919061096e565b80356001600160a01b038116811461083c57600080fd5b919050565b60006020828403121561085357600080fd5b6106fb82610825565b634e487b7160e01b600052604160045260246000fd5b600067ffffffffffffffff8084111561088d5761088d61085c565b604051601f8501601f19908116603f011681019082821181831017156108b5576108b561085c565b816040528093508581528686860111156108ce57600080fd5b858560208301376000602087830101525050509392505050565b600080604083850312156108fb57600080fd5b61090483610825565b9150602083013567ffffffffffffffff81111561092057600080fd5b8301601f8101851361093157600080fd5b61094085823560208401610872565b9150509250929050565b60005b8381101561096557818101518382015260200161094d565b50506000910152565b602081526000825180602084015261098d81604085016020870161094a565b601f01601f19169190910160400192915050565b6000602082840312156109b357600080fd5b813567ffffffffffffffff8111156109ca57600080fd5b8201601f810184136109db57600080fd5b6107f384823560208401610872565b6020808252602c908201527f46756e6374696f6e206d7573742062652063616c6c6564207468726f7567682060408201526b19195b1959d85d1958d85b1b60a21b606082015260800190565b6020808252602c908201527f46756e6374696f6e206d7573742062652063616c6c6564207468726f7567682060408201526b6163746976652070726f787960a01b606082015260800190565b600181811c90821680610a9657607f821691505b602082108103610ab657634e487b7160e01b600052602260045260246000fd5b50919050565b601f821115610492576000816000526020600020601f850160051c81016020861015610ae55750805b601f850160051c820191505b81811015610b0457828155600101610af1565b505050505050565b815167ffffffffffffffff811115610b2657610b2661085c565b610b3a81610b348454610a82565b84610abc565b602080601f831160018114610b6f5760008415610b575750858301515b600019600386901b1c1916600185901b178555610b04565b600085815260208120601f198616915b82811015610b9e57888601518255948401946001909101908401610b7f565b5085821015610bbc5787850151600019600388901b60f8161c191681555b5050505050600190811b01905550565b600060208284031215610bde57600080fd5b5051919050565b60008251610bf781846020870161094a565b919091019291505056fe360894a13ba1a3210667c828492db98dca3e2076cc3735a920a3ca505d382bbc416464726573733a206c6f772d6c6576656c2064656c65676174652063616c6c206661696c6564a2646970667358221220ef6306b4db21e04d5749fa93b8ee0d99ebe85101712e87928d76dc4e9d82ea0264736f6c63430008170033",
  "linkReferences": {},
  "deployedLinkReferences": {}
}