{
  "_format": "hh-sol-artifact-1",
  "contractName": "CoreVaultManager",
  "sourceName": "contracts/assetManager/implementation/CoreVaultManager.sol",
  "abi": [
    {
      "inputs": [],
      "stateMutability": "nonpayable",
      "type": "constructor"
    },
    {
      "anonymous": false,
      "inputs": [
        {
          "indexed": false,
          "internalType": "address",
          "name": "previousAdmin",
          "type": "address"
        },
        {
          "indexed": false,
          "internalType": "address",
          "name": "newAdmin",
          "type": "address"
        }
      ],
      "name": "AdminChanged",
      "type": "event"
    },
    {
      "anonymous": false,
      "inputs": [
        {
          "indexed": false,
          "internalType": "string",
          "name": "destinationAddress",
          "type": "string"
        }
      ],
      "name": "AllowedDestinationAddressAdded",
      "type": "event"
    },
    {
      "anonymous": false,
      "inputs": [
        {
          "indexed": false,
          "internalType": "string",
          "name": "destinationAddress",
          "type": "string"
        }
      ],
      "name": "AllowedDestinationAddressRemoved",
      "type": "event"
    },
    {
      "anonymous": false,
      "inputs": [
        {
          "indexed": true,
          "internalType": "address",
          "name": "beacon",
          "type": "address"
        }
      ],
      "name": "BeaconUpgraded",
      "type": "event"
    },
    {
      "anonymous": false,
      "inputs": [
        {
          "indexed": false,
          "internalType": "string",
          "name": "custodianAddress",
          "type": "string"
        }
      ],
      "name": "CustodianAddressUpdated",
      "type": "event"
    },
    {
      "anonymous": false,
      "inputs": [
        {
          "indexed": true,
          "internalType": "uint256",
          "name": "sequence",
          "type": "uint256"
        },
        {
          "indexed": false,
          "internalType": "string",
          "name": "account",
          "type": "string"
        },
        {
          "indexed": false,
          "internalType": "bytes32",
          "name": "instructionsHash",
          "type": "bytes32"
        }
      ],
      "name": "CustomInstructions",
      "type": "event"
    },
    {
      "anonymous": false,
      "inputs": [
        {
          "indexed": false,
          "internalType": "address",
          "name": "sender",
          "type": "address"
        }
      ],
      "name": "EmergencyPauseSenderAdded",
      "type": "event"
    },
    {
      "anonymous": false,
      "inputs": [
        {
          "indexed": false,
          "internalType": "address",
          "name": "sender",
          "type": "address"
        }
      ],
      "name": "EmergencyPauseSenderRemoved",
      "type": "event"
    },
    {
      "anonymous": false,
      "inputs": [
        {
          "indexed": true,
          "internalType": "bytes32",
          "name": "preimageHash",
          "type": "bytes32"
        },
        {
          "indexed": false,
          "internalType": "uint256",
          "name": "amount",
          "type": "uint256"
        }
      ],
      "name": "EscrowFinished",
      "type": "event"
    },
    {
      "anonymous": false,
      "inputs": [
        {
          "indexed": true,
          "internalType": "uint256",
          "name": "sequence",
          "type": "uint256"
        },
        {
          "indexed": true,
          "internalType": "bytes32",
          "name": "preimageHash",
          "type": "bytes32"
        },
        {
          "indexed": false,
          "internalType": "string",
          "name": "account",
          "type": "string"
        },
        {
          "indexed": false,
          "internalType": "string",
          "name": "destination",
          "type": "string"
        },
        {
          "indexed": false,
          "internalType": "uint256",
          "name": "amount",
          "type": "uint256"
        },
        {
          "indexed": false,
          "internalType": "uint256",
          "name": "fee",
          "type": "uint256"
        },
        {
          "indexed": false,
          "internalType": "uint256",
          "name": "cancelAfterTs",
          "type": "uint256"
        }
      ],
      "name": "EscrowInstructions",
      "type": "event"
    },
    {
      "anonymous": false,
      "inputs": [
        {
          "indexed": false,
          "internalType": "bytes",
          "name": "encodedCall",
          "type": "bytes"
        },
        {
          "indexed": false,
          "internalType": "bytes32",
          "name": "encodedCallHash",
          "type": "bytes32"
        },
        {
          "indexed": false,
          "internalType": "uint256",
          "name": "allowedAfterTimestamp",
          "type": "uint256"
        }
      ],
      "name": "GovernanceCallTimelocked",
      "type": "event"
    },
    {
      "anonymous": false,
      "inputs": [
        {
          "indexed": false,
          "internalType": "address",
          "name": "initialGovernance",
          "type": "address"
        }
      ],
      "name": "GovernanceInitialised",
      "type": "event"
    },
    {
      "anonymous": false,
      "inputs": [
        {
          "indexed": false,
          "internalType": "address",
          "name": "governanceSettings",
          "type": "address"
        }
      ],
      "name": "GovernedProductionModeEntered",
      "type": "event"
    },
    {
      "anonymous": false,
      "inputs": [],
      "name": "NotAllEscrowsProcessed",
      "type": "event"
    },
    {
      "anonymous": false,
      "inputs": [],
      "name": "Paused",
      "type": "event"
    },
    {
      "anonymous": false,
      "inputs": [
        {
          "indexed": true,
          "internalType": "bytes32",
          "name": "transactionId",
          "type": "bytes32"
        },
        {
          "indexed": false,
          "internalType": "bytes32",
          "name": "paymentReference",
          "type": "bytes32"
        },
        {
          "indexed": false,
          "internalType": "uint256",
          "name": "amount",
          "type": "uint256"
        }
      ],
      "name": "PaymentConfirmed",
      "type": "event"
    },
    {
      "anonymous": false,
      "inputs": [
        {
          "indexed": true,
          "internalType": "uint256",
          "name": "sequence",
          "type": "uint256"
        },
        {
          "indexed": false,
          "internalType": "string",
          "name": "account",
          "type": "string"
        },
        {
          "indexed": false,
          "internalType": "string",
          "name": "destination",
          "type": "string"
        },
        {
          "indexed": false,
          "internalType": "uint256",
          "name": "amount",
          "type": "uint256"
        },
        {
          "indexed": false,
          "internalType": "uint256",
          "name": "fee",
          "type": "uint256"
        },
        {
          "indexed": false,
          "internalType": "bytes32",
          "name": "paymentReference",
          "type": "bytes32"
        }
      ],
      "name": "PaymentInstructions",
      "type": "event"
    },
    {
      "anonymous": false,
      "inputs": [
        {
          "indexed": false,
          "internalType": "bytes32",
          "name": "preimageHash",
          "type": "bytes32"
        }
      ],
      "name": "PreimageHashAdded",
      "type": "event"
    },
    {
      "anonymous": false,
      "inputs": [
        {
          "indexed": false,
          "internalType": "uint256",
          "name": "escrowEndTimeSeconds",
          "type": "uint256"
        },
        {
          "indexed": false,
          "internalType": "uint256",
          "name": "escrowAmount",
          "type": "uint256"
        },
        {
          "indexed": false,
          "internalType": "uint256",
          "name": "minimalAmount",
          "type": "uint256"
        },
        {
          "indexed": false,
          "internalType": "uint256",
          "name": "fee",
          "type": "uint256"
        }
      ],
      "name": "SettingsUpdated",
      "type": "event"
    },
    {
      "anonymous": false,
      "inputs": [
        {
          "indexed": false,
          "internalType": "bytes32",
          "name": "encodedCallHash",
          "type": "bytes32"
        }
      ],
      "name": "TimelockedGovernanceCallCanceled",
      "type": "event"
    },
    {
      "anonymous": false,
      "inputs": [
        {
          "indexed": false,
          "internalType": "bytes32",
          "name": "encodedCallHash",
          "type": "bytes32"
        }
      ],
      "name": "TimelockedGovernanceCallExecuted",
      "type": "event"
    },
    {
      "anonymous": false,
      "inputs": [
        {
          "indexed": false,
          "internalType": "string",
          "name": "destinationAddress",
          "type": "string"
        },
        {
          "indexed": false,
          "internalType": "bytes32",
          "name": "paymentReference",
          "type": "bytes32"
        },
        {
          "indexed": false,
          "internalType": "uint256",
          "name": "amount",
          "type": "uint256"
        }
      ],
      "name": "TransferRequestCanceled",
      "type": "event"
    },
    {
      "anonymous": false,
      "inputs": [
        {
          "indexed": false,
          "internalType": "string",
          "name": "destinationAddress",
          "type": "string"
        },
        {
          "indexed": false,
          "internalType": "bytes32",
          "name": "paymentReference",
          "type": "bytes32"
        },
        {
          "indexed": false,
          "internalType": "uint256",
          "name": "amount",
          "type": "uint256"
        },
        {
          "indexed": false,
          "internalType": "bool",
          "name": "cancelable",
          "type": "bool"
        }
      ],
      "name": "TransferRequested",
      "type": "event"
    },
    {
      "anonymous": false,
      "inputs": [
        {
          "indexed": false,
          "internalType": "address",
          "name": "triggeringAccount",
          "type": "address"
        }
      ],
      "name": "TriggeringAccountAdded",
      "type": "event"
    },
    {
      "anonymous": false,
      "inputs": [
        {
          "indexed": false,
          "internalType": "address",
          "name": "triggeringAccount",
          "type": "address"
        }
      ],
      "name": "TriggeringAccountRemoved",
      "type": "event"
    },
    {
      "anonymous": false,
      "inputs": [],
      "name": "Unpaused",
      "type": "event"
    },
    {
      "anonymous": false,
      "inputs": [
        {
          "indexed": false,
          "internalType": "bytes32",
          "name": "preimageHash",
          "type": "bytes32"
        }
      ],
      "name": "UnusedPreimageHashRemoved",
      "type": "event"
    },
    {
      "anonymous": false,
      "inputs": [
        {
          "indexed": true,
          "internalType": "address",
          "name": "implementation",
          "type": "address"
        }
      ],
      "name": "Upgraded",
      "type": "event"
    },
    {
      "inputs": [
        {
          "internalType": "string[]",
          "name": "_allowedDestinationAddresses",
          "type": "string[]"
        }
      ],
      "name": "addAllowedDestinationAddresses",
      "outputs": [],
      "stateMutability": "nonpayable",
      "type": "function"
    },
    {
      "inputs": [
        {
          "internalType": "address[]",
          "name": "_addresses",
          "type": "address[]"
        }
      ],
      "name": "addEmergencyPauseSenders",
      "outputs": [],
      "stateMutability": "nonpayable",
      "type": "function"
    },
    {
      "inputs": [
        {
          "internalType": "bytes32[]",
          "name": "_preimageHashes",
          "type": "bytes32[]"
        }
      ],
      "name": "addPreimageHashes",
      "outputs": [],
      "stateMutability": "nonpayable",
      "type": "function"
    },
    {
      "inputs": [
        {
          "internalType": "address[]",
          "name": "_triggeringAccounts",
          "type": "address[]"
        }
      ],
      "name": "addTriggeringAccounts",
      "outputs": [],
      "stateMutability": "nonpayable",
      "type": "function"
    },
    {
      "inputs": [],
      "name": "assetManager",
      "outputs": [
        {
          "internalType": "address",
          "name": "",
          "type": "address"
        }
      ],
      "stateMutability": "view",
      "type": "function"
    },
    {
      "inputs": [],
      "name": "availableFunds",
      "outputs": [
        {
          "internalType": "uint128",
          "name": "",
          "type": "uint128"
        }
      ],
      "stateMutability": "view",
      "type": "function"
    },
    {
      "inputs": [
        {
          "internalType": "bytes",
          "name": "_encodedCall",
          "type": "bytes"
        }
      ],
      "name": "cancelGovernanceCall",
      "outputs": [],
      "stateMutability": "nonpayable",
      "type": "function"
    },
    {
      "inputs": [
        {
          "internalType": "string",
          "name": "_destinationAddress",
          "type": "string"
        }
      ],
      "name": "cancelTransferRequestFromCoreVault",
      "outputs": [],
      "stateMutability": "nonpayable",
      "type": "function"
    },
    {
      "inputs": [],
      "name": "chainId",
      "outputs": [
        {
          "internalType": "bytes32",
          "name": "",
          "type": "bytes32"
        }
      ],
      "stateMutability": "view",
      "type": "function"
    },
    {
      "inputs": [
        {
          "components": [
            {
              "internalType": "bytes32[]",
              "name": "merkleProof",
              "type": "bytes32[]"
            },
            {
              "components": [
                {
                  "internalType": "bytes32",
                  "name": "attestationType",
                  "type": "bytes32"
                },
                {
                  "internalType": "bytes32",
                  "name": "sourceId",
                  "type": "bytes32"
                },
                {
                  "internalType": "uint64",
                  "name": "votingRound",
                  "type": "uint64"
                },
                {
                  "internalType": "uint64",
                  "name": "lowestUsedTimestamp",
                  "type": "uint64"
                },
                {
                  "components": [
                    {
                      "internalType": "bytes32",
                      "name": "transactionId",
                      "type": "bytes32"
                    },
                    {
                      "internalType": "uint256",
                      "name": "inUtxo",
                      "type": "uint256"
                    },
                    {
                      "internalType": "uint256",
                      "name": "utxo",
                      "type": "uint256"
                    }
                  ],
                  "internalType": "struct IPayment.RequestBody",
                  "name": "requestBody",
                  "type": "tuple"
                },
                {
                  "components": [
                    {
                      "internalType": "uint64",
                      "name": "blockNumber",
                      "type": "uint64"
                    },
                    {
                      "internalType": "uint64",
                      "name": "blockTimestamp",
                      "type": "uint64"
                    },
                    {
                      "internalType": "bytes32",
                      "name": "sourceAddressHash",
                      "type": "bytes32"
                    },
                    {
                      "internalType": "bytes32",
                      "name": "sourceAddressesRoot",
                      "type": "bytes32"
                    },
                    {
                      "internalType": "bytes32",
                      "name": "receivingAddressHash",
                      "type": "bytes32"
                    },
                    {
                      "internalType": "bytes32",
                      "name": "intendedReceivingAddressHash",
                      "type": "bytes32"
                    },
                    {
                      "internalType": "int256",
                      "name": "spentAmount",
                      "type": "int256"
                    },
                    {
                      "internalType": "int256",
                      "name": "intendedSpentAmount",
                      "type": "int256"
                    },
                    {
                      "internalType": "int256",
                      "name": "receivedAmount",
                      "type": "int256"
                    },
                    {
                      "internalType": "int256",
                      "name": "intendedReceivedAmount",
                      "type": "int256"
                    },
                    {
                      "internalType": "bytes32",
                      "name": "standardPaymentReference",
                      "type": "bytes32"
                    },
                    {
                      "internalType": "bool",
                      "name": "oneToOne",
                      "type": "bool"
                    },
                    {
                      "internalType": "uint8",
                      "name": "status",
                      "type": "uint8"
                    }
                  ],
                  "internalType": "struct IPayment.ResponseBody",
                  "name": "responseBody",
                  "type": "tuple"
                }
              ],
              "internalType": "struct IPayment.Response",
              "name": "data",
              "type": "tuple"
            }
          ],
          "internalType": "struct IPayment.Proof",
          "name": "_proof",
          "type": "tuple"
        }
      ],
      "name": "confirmPayment",
      "outputs": [],
      "stateMutability": "nonpayable",
      "type": "function"
    },
    {
      "inputs": [
        {
          "internalType": "bytes32",
          "name": "transactionId",
          "type": "bytes32"
        }
      ],
      "name": "confirmedPayments",
      "outputs": [
        {
          "internalType": "bool",
          "name": "",
          "type": "bool"
        }
      ],
      "stateMutability": "view",
      "type": "function"
    },
    {
      "inputs": [],
      "name": "coreVaultAddress",
      "outputs": [
        {
          "internalType": "string",
          "name": "",
          "type": "string"
        }
      ],
      "stateMutability": "view",
      "type": "function"
    },
    {
      "inputs": [],
      "name": "coreVaultAddressHash",
      "outputs": [
        {
          "internalType": "bytes32",
          "name": "",
          "type": "bytes32"
        }
      ],
      "stateMutability": "view",
      "type": "function"
    },
    {
      "inputs": [],
      "name": "custodianAddress",
      "outputs": [
        {
          "internalType": "string",
          "name": "",
          "type": "string"
        }
      ],
      "stateMutability": "view",
      "type": "function"
    },
    {
      "inputs": [],
      "name": "escrowedFunds",
      "outputs": [
        {
          "internalType": "uint128",
          "name": "",
          "type": "uint128"
        }
      ],
      "stateMutability": "view",
      "type": "function"
    },
    {
      "inputs": [
        {
          "internalType": "bytes",
          "name": "_encodedCall",
          "type": "bytes"
        }
      ],
      "name": "executeGovernanceCall",
      "outputs": [],
      "stateMutability": "nonpayable",
      "type": "function"
    },
    {
      "inputs": [],
      "name": "fdcVerification",
      "outputs": [
        {
          "internalType": "contract IFdcVerification",
          "name": "",
          "type": "address"
        }
      ],
      "stateMutability": "view",
      "type": "function"
    },
    {
      "inputs": [],
      "name": "getAddressUpdater",
      "outputs": [
        {
          "internalType": "address",
          "name": "_addressUpdater",
          "type": "address"
        }
      ],
      "stateMutability": "view",
      "type": "function"
    },
    {
      "inputs": [],
      "name": "getAllowedDestinationAddresses",
      "outputs": [
        {
          "internalType": "string[]",
          "name": "",
          "type": "string[]"
        }
      ],
      "stateMutability": "view",
      "type": "function"
    },
    {
      "inputs": [],
      "name": "getCancelableTransferRequests",
      "outputs": [
        {
          "components": [
            {
              "internalType": "string",
              "name": "destinationAddress",
              "type": "string"
            },
            {
              "internalType": "bytes32",
              "name": "paymentReference",
              "type": "bytes32"
            },
            {
              "internalType": "uint128",
              "name": "amount",
              "type": "uint128"
            }
          ],
          "internalType": "struct ICoreVaultManager.TransferRequest[]",
          "name": "_transferRequests",
          "type": "tuple[]"
        }
      ],
      "stateMutability": "view",
      "type": "function"
    },
    {
      "inputs": [],
      "name": "getEmergencyPauseSenders",
      "outputs": [
        {
          "internalType": "address[]",
          "name": "",
          "type": "address[]"
        }
      ],
      "stateMutability": "view",
      "type": "function"
    },
    {
      "inputs": [
        {
          "internalType": "uint256",
          "name": "_index",
          "type": "uint256"
        }
      ],
      "name": "getEscrowByIndex",
      "outputs": [
        {
          "components": [
            {
              "internalType": "bytes32",
              "name": "preimageHash",
              "type": "bytes32"
            },
            {
              "internalType": "uint128",
              "name": "amount",
              "type": "uint128"
            },
            {
              "internalType": "uint64",
              "name": "expiryTs",
              "type": "uint64"
            },
            {
              "internalType": "bool",
              "name": "finished",
              "type": "bool"
            }
          ],
          "internalType": "struct ICoreVaultManager.Escrow",
          "name": "",
          "type": "tuple"
        }
      ],
      "stateMutability": "view",
      "type": "function"
    },
    {
      "inputs": [
        {
          "internalType": "bytes32",
          "name": "_preimageHash",
          "type": "bytes32"
        }
      ],
      "name": "getEscrowByPreimageHash",
      "outputs": [
        {
          "components": [
            {
              "internalType": "bytes32",
              "name": "preimageHash",
              "type": "bytes32"
            },
            {
              "internalType": "uint128",
              "name": "amount",
              "type": "uint128"
            },
            {
              "internalType": "uint64",
              "name": "expiryTs",
              "type": "uint64"
            },
            {
              "internalType": "bool",
              "name": "finished",
              "type": "bool"
            }
          ],
          "internalType": "struct ICoreVaultManager.Escrow",
          "name": "",
          "type": "tuple"
        }
      ],
      "stateMutability": "view",
      "type": "function"
    },
    {
      "inputs": [],
      "name": "getEscrowsCount",
      "outputs": [
        {
          "internalType": "uint256",
          "name": "",
          "type": "uint256"
        }
      ],
      "stateMutability": "view",
      "type": "function"
    },
    {
      "inputs": [],
      "name": "getNonCancelableTransferRequests",
      "outputs": [
        {
          "components": [
            {
              "internalType": "string",
              "name": "destinationAddress",
              "type": "string"
            },
            {
              "internalType": "bytes32",
              "name": "paymentReference",
              "type": "bytes32"
            },
            {
              "internalType": "uint128",
              "name": "amount",
              "type": "uint128"
            }
          ],
          "internalType": "struct ICoreVaultManager.TransferRequest[]",
          "name": "_transferRequests",
          "type": "tuple[]"
        }
      ],
      "stateMutability": "view",
      "type": "function"
    },
    {
      "inputs": [
        {
          "internalType": "uint256",
          "name": "_index",
          "type": "uint256"
        }
      ],
      "name": "getPreimageHash",
      "outputs": [
        {
          "internalType": "bytes32",
          "name": "",
          "type": "bytes32"
        }
      ],
      "stateMutability": "view",
      "type": "function"
    },
    {
      "inputs": [],
      "name": "getPreimageHashesCount",
      "outputs": [
        {
          "internalType": "uint256",
          "name": "",
          "type": "uint256"
        }
      ],
      "stateMutability": "view",
      "type": "function"
    },
    {
      "inputs": [],
      "name": "getSettings",
      "outputs": [
        {
          "internalType": "uint128",
          "name": "_escrowEndTimeSeconds",
          "type": "uint128"
        },
        {
          "internalType": "uint128",
          "name": "_escrowAmount",
          "type": "uint128"
        },
        {
          "internalType": "uint128",
          "name": "_minimalAmount",
          "type": "uint128"
        },
        {
          "internalType": "uint128",
          "name": "_fee",
          "type": "uint128"
        }
      ],
      "stateMutability": "view",
      "type": "function"
    },
    {
      "inputs": [],
      "name": "getTriggeringAccounts",
      "outputs": [
        {
          "internalType": "address[]",
          "name": "",
          "type": "address[]"
        }
      ],
      "stateMutability": "view",
      "type": "function"
    },
    {
      "inputs": [],
      "name": "getUnprocessedEscrows",
      "outputs": [
        {
          "components": [
            {
              "internalType": "bytes32",
              "name": "preimageHash",
              "type": "bytes32"
            },
            {
              "internalType": "uint128",
              "name": "amount",
              "type": "uint128"
            },
            {
              "internalType": "uint64",
              "name": "expiryTs",
              "type": "uint64"
            },
            {
              "internalType": "bool",
              "name": "finished",
              "type": "bool"
            }
          ],
          "internalType": "struct ICoreVaultManager.Escrow[]",
          "name": "_unprocessedEscrows",
          "type": "tuple[]"
        }
      ],
      "stateMutability": "view",
      "type": "function"
    },
    {
      "inputs": [],
      "name": "getUnusedPreimageHashes",
      "outputs": [
        {
          "internalType": "bytes32[]",
          "name": "",
          "type": "bytes32[]"
        }
      ],
      "stateMutability": "view",
      "type": "function"
    },
    {
      "inputs": [],
      "name": "governance",
      "outputs": [
        {
          "internalType": "address",
          "name": "",
          "type": "address"
        }
      ],
      "stateMutability": "view",
      "type": "function"
    },
    {
      "inputs": [],
      "name": "governanceSettings",
      "outputs": [
        {
          "internalType": "contract IGovernanceSettings",
          "name": "",
          "type": "address"
        }
      ],
      "stateMutability": "view",
      "type": "function"
    },
    {
      "inputs": [
        {
          "internalType": "contract IGovernanceSettings",
          "name": "_governanceSettings",
          "type": "address"
        },
        {
          "internalType": "address",
          "name": "_initialGovernance",
          "type": "address"
        }
      ],
      "name": "initialise",
      "outputs": [],
      "stateMutability": "nonpayable",
      "type": "function"
    },
    {
      "inputs": [
        {
          "internalType": "contract IGovernanceSettings",
          "name": "_governanceSettings",
          "type": "address"
        },
        {
          "internalType": "address",
          "name": "_initialGovernance",
          "type": "address"
        },
        {
          "internalType": "address",
          "name": "_addressUpdater",
          "type": "address"
        },
        {
          "internalType": "address",
          "name": "_assetManager",
          "type": "address"
        },
        {
          "internalType": "bytes32",
          "name": "_chainId",
          "type": "bytes32"
        },
        {
          "internalType": "string",
          "name": "_custodianAddress",
          "type": "string"
        },
        {
          "internalType": "string",
          "name": "_coreVaultAddress",
          "type": "string"
        },
        {
          "internalType": "uint256",
          "name": "_nextSequenceNumber",
          "type": "uint256"
        }
      ],
      "name": "initialize",
      "outputs": [],
      "stateMutability": "nonpayable",
      "type": "function"
    },
    {
      "inputs": [
        {
          "internalType": "string",
          "name": "_address",
          "type": "string"
        }
      ],
      "name": "isDestinationAddressAllowed",
      "outputs": [
        {
          "internalType": "bool",
          "name": "",
          "type": "bool"
        }
      ],
      "stateMutability": "view",
      "type": "function"
    },
    {
      "inputs": [
        {
          "internalType": "address",
          "name": "_address",
          "type": "address"
        }
      ],
      "name": "isExecutor",
      "outputs": [
        {
          "internalType": "bool",
          "name": "",
          "type": "bool"
        }
      ],
      "stateMutability": "view",
      "type": "function"
    },
    {
      "inputs": [],
      "name": "nextSequenceNumber",
      "outputs": [
        {
          "internalType": "uint256",
          "name": "",
          "type": "uint256"
        }
      ],
      "stateMutability": "view",
      "type": "function"
    },
    {
      "inputs": [],
      "name": "nextUnprocessedEscrowIndex",
      "outputs": [
        {
          "internalType": "uint256",
          "name": "",
          "type": "uint256"
        }
      ],
      "stateMutability": "view",
      "type": "function"
    },
    {
      "inputs": [],
      "name": "nextUnusedPreimageHashIndex",
      "outputs": [
        {
          "internalType": "uint256",
          "name": "",
          "type": "uint256"
        }
      ],
      "stateMutability": "view",
      "type": "function"
    },
    {
      "inputs": [],
      "name": "pause",
      "outputs": [],
      "stateMutability": "nonpayable",
      "type": "function"
    },
    {
      "inputs": [],
      "name": "paused",
      "outputs": [
        {
          "internalType": "bool",
          "name": "",
          "type": "bool"
        }
      ],
      "stateMutability": "view",
      "type": "function"
    },
    {
      "inputs": [
        {
          "internalType": "uint256",
          "name": "_maxCount",
          "type": "uint256"
        }
      ],
      "name": "processEscrows",
      "outputs": [
        {
          "internalType": "bool",
          "name": "",
          "type": "bool"
        }
      ],
      "stateMutability": "nonpayable",
      "type": "function"
    },
    {
      "inputs": [],
      "name": "productionMode",
      "outputs": [
        {
          "internalType": "bool",
          "name": "",
          "type": "bool"
        }
      ],
      "stateMutability": "view",
      "type": "function"
    },
    {
      "inputs": [],
      "name": "proxiableUUID",
      "outputs": [
        {
          "internalType": "bytes32",
          "name": "",
          "type": "bytes32"
        }
      ],
      "stateMutability": "view",
      "type": "function"
    },
    {
      "inputs": [
        {
          "internalType": "string[]",
          "name": "_allowedDestinationAddresses",
          "type": "string[]"
        }
      ],
      "name": "removeAllowedDestinationAddresses",
      "outputs": [],
      "stateMutability": "nonpayable",
      "type": "function"
    },
    {
      "inputs": [
        {
          "internalType": "address[]",
          "name": "_addresses",
          "type": "address[]"
        }
      ],
      "name": "removeEmergencyPauseSenders",
      "outputs": [],
      "stateMutability": "nonpayable",
      "type": "function"
    },
    {
      "inputs": [
        {
          "internalType": "address[]",
          "name": "_triggeringAccounts",
          "type": "address[]"
        }
      ],
      "name": "removeTriggeringAccounts",
      "outputs": [],
      "stateMutability": "nonpayable",
      "type": "function"
    },
    {
      "inputs": [
        {
          "internalType": "uint256",
          "name": "_maxCount",
          "type": "uint256"
        }
      ],
      "name": "removeUnusedPreimageHashes",
      "outputs": [],
      "stateMutability": "nonpayable",
      "type": "function"
    },
    {
      "inputs": [
        {
          "internalType": "string",
          "name": "_destinationAddress",
          "type": "string"
        },
        {
          "internalType": "bytes32",
          "name": "_paymentReference",
          "type": "bytes32"
        },
        {
          "internalType": "uint128",
          "name": "_amount",
          "type": "uint128"
        },
        {
          "internalType": "bool",
          "name": "_cancelable",
          "type": "bool"
        }
      ],
      "name": "requestTransferFromCoreVault",
      "outputs": [
        {
          "internalType": "bytes32",
          "name": "",
          "type": "bytes32"
        }
      ],
      "stateMutability": "nonpayable",
      "type": "function"
    },
    {
      "inputs": [
        {
          "internalType": "bytes32[]",
          "name": "_preimageHashes",
          "type": "bytes32[]"
        }
      ],
      "name": "setEscrowsFinished",
      "outputs": [],
      "stateMutability": "nonpayable",
      "type": "function"
    },
    {
      "inputs": [
        {
          "internalType": "bytes4",
          "name": "_interfaceId",
          "type": "bytes4"
        }
      ],
      "name": "supportsInterface",
      "outputs": [
        {
          "internalType": "bool",
          "name": "",
          "type": "bool"
        }
      ],
      "stateMutability": "pure",
      "type": "function"
    },
    {
      "inputs": [],
      "name": "switchToProductionMode",
      "outputs": [],
      "stateMutability": "nonpayable",
      "type": "function"
    },
    {
      "inputs": [],
      "name": "totalRequestAmountWithFee",
      "outputs": [
        {
          "internalType": "uint256",
          "name": "",
          "type": "uint256"
        }
      ],
      "stateMutability": "view",
      "type": "function"
    },
    {
      "inputs": [
        {
          "internalType": "bytes32",
          "name": "_instructionsHash",
          "type": "bytes32"
        }
      ],
      "name": "triggerCustomInstructions",
      "outputs": [],
      "stateMutability": "nonpayable",
      "type": "function"
    },
    {
      "inputs": [],
      "name": "triggerInstructions",
      "outputs": [],
      "stateMutability": "nonpayable",
      "type": "function"
    },
    {
      "inputs": [],
      "name": "unpause",
      "outputs": [],
      "stateMutability": "nonpayable",
      "type": "function"
    },
    {
      "inputs": [
        {
          "internalType": "bytes32[]",
          "name": "_contractNameHashes",
          "type": "bytes32[]"
        },
        {
          "internalType": "address[]",
          "name": "_contractAddresses",
          "type": "address[]"
        }
      ],
      "name": "updateContractAddresses",
      "outputs": [],
      "stateMutability": "nonpayable",
      "type": "function"
    },
    {
      "inputs": [
        {
          "internalType": "string",
          "name": "_custodianAddress",
          "type": "string"
        }
      ],
      "name": "updateCustodianAddress",
      "outputs": [],
      "stateMutability": "nonpayable",
      "type": "function"
    },
    {
      "inputs": [
        {
          "internalType": "uint128",
          "name": "_escrowEndTimeSeconds",
          "type": "uint128"
        },
        {
          "internalType": "uint128",
          "name": "_escrowAmount",
          "type": "uint128"
        },
        {
          "internalType": "uint128",
          "name": "_minimalAmount",
          "type": "uint128"
        },
        {
          "internalType": "uint128",
          "name": "_fee",
          "type": "uint128"
        }
      ],
      "name": "updateSettings",
      "outputs": [],
      "stateMutability": "nonpayable",
      "type": "function"
    },
    {
      "inputs": [
        {
          "internalType": "address",
          "name": "newImplementation",
          "type": "address"
        }
      ],
      "name": "upgradeTo",
      "outputs": [],
      "stateMutability": "nonpayable",
      "type": "function"
    },
    {
      "inputs": [
        {
          "internalType": "address",
          "name": "newImplementation",
          "type": "address"
        },
        {
          "internalType": "bytes",
          "name": "data",
          "type": "bytes"
        }
      ],
      "name": "upgradeToAndCall",
      "outputs": [],
      "stateMutability": "payable",
      "type": "function"
    }
  ],
  "bytecode": "0x60a0604052306080523480156200001557600080fd5b506000620000266111118062000056565b6200004f817f714f205b2abd25bef1d06a1af944e38c113fe6160375c4e1d6d5cf28848e771955565b50620001ef565b7f2aa47ee5db910f3b2a06970c443249cc77dbd9f96100cfebc1775ab7fb1d18248054600160a01b900460ff1615620000d65760405162461bcd60e51b815260206004820152601460248201527f696e697469616c6973656420213d2066616c736500000000000000000000000060448201526064015b60405180910390fd5b6001600160a01b0383166200012e5760405162461bcd60e51b815260206004820152601860248201527f676f7665726e616e63652073657474696e6773207a65726f00000000000000006044820152606401620000cd565b6001600160a01b038216620001795760405162461bcd60e51b815260206004820152601060248201526f5f676f7665726e616e6365207a65726f60801b6044820152606401620000cd565b80546001600160a01b038481166001600160a81b031990921691909117600160a01b1782556001820180549184166001600160a01b0319909216821790556040519081527f9789733827840833afc031fb2ef9ab6894271f77bad2085687cf4ae5c7bee4db9060200160405180910390a1505050565b608051615feb62000227600039600081816111cd0152818161120d0152818161155201528181611592015261173a0152615feb6000f3fe6080604052600436106103ad5760003560e01c806371c1f751116101e7578063a90353251161010d578063e17f212e116100a0578063f0ec77fa1161006f578063f0ec77fa14610ae5578063f5a9838314610b0c578063f9fe1f1c14610b21578063faee475314610b4157600080fd5b8063e17f212e14610a64578063e9a730f914610a90578063ea53fe1314610aa5578063ef88bf1314610ac557600080fd5b8063c9febdf5116100dc578063c9febdf5146109ee578063d074bd7e14610a04578063da3422ee14610a24578063debfda3014610a4457600080fd5b8063a903532514610979578063b00c0b7614610999578063b805c638146109b9578063b9cbea3b146109d957600080fd5b806394217ad111610185578063a2c7427511610154578063a2c742751461090e578063a609687b14610924578063a625988b14610944578063a66e4e5f1461096457600080fd5b806394217ad1146108a357806398ca4f78146108c35780639a8a0592146108d8578063a0a62630146108ee57600080fd5b80638456cb59116101c15780638456cb591461080957806385b4bb531461081e5780638dfb4a901461086e57806392fa95861461088e57600080fd5b806371c1f751146107a757806372f089d6146107c75780637a1077ea146107e757600080fd5b806346fcff4c116102d75780635a3a9d6b1161026a57806362974d4d1161023957806362974d4d1461072f578063664e841d146107515780636b97900d146107675780636d3d2ca81461078757600080fd5b80635a3a9d6b146106be5780635aa6e675146106eb5780635c975abb1461070057806362354e031461071a57600080fd5b80635267a15d116102a65780635267a15d1461065157806352d1902d1461067357806356cd13c9146106885780635a0da855146106a857600080fd5b806346fcff4c146105cf57806349820f2f146106075780634f1ef2861461061c5780634f1f612e1461062f57600080fd5b8063284532ec1161034f5780633ad6d5161161031e5780633ad6d516146105405780633b42ae10146105785780633c7cd9c51461059a5780633f4ba83a146105ba57600080fd5b8063284532ec146104b05780632b656fef146104d05780633659cfe6146104f057806337ac744e1461051057600080fd5b806316fc2f6d1161038b57806316fc2f6d1461042b5780631c073f081461044b57806320c5f99d1461046d5780632428927a1461048d57600080fd5b806301ffc9a7146103b25780630fcc6f8d146103e7578063108cca7a14610409575b600080fd5b3480156103be57600080fd5b506103d26103cd366004614d41565b610b61565b60405190151581526020015b60405180910390f35b3480156103f357600080fd5b50610407610402366004614e3d565b610bb3565b005b34801561041557600080fd5b5061041e610d0c565b6040516103de9190614efe565b34801561043757600080fd5b50610407610446366004614f93565b610d1d565b34801561045757600080fd5b50610460610e00565b6040516103de9190615024565b34801561047957600080fd5b50610407610488366004614f93565b610ed9565b34801561049957600080fd5b506104a26110c8565b6040519081526020016103de565b3480156104bc57600080fd5b506104076104cb366004615088565b61112b565b3480156104dc57600080fd5b506103d26104eb3660046150a1565b611184565b3480156104fc57600080fd5b5061040761050b3660046150d5565b6111ae565b34801561051c57600080fd5b506103d261052b366004615088565b60076020526000908152604090205460ff1681565b34801561054c57600080fd5b50600654610560906001600160a01b031681565b6040516001600160a01b0390911681526020016103de565b34801561058457600080fd5b5061058d61128f565b6040516103de91906150f2565b3480156105a657600080fd5b506104076105b53660046151c2565b61141d565b3480156105c657600080fd5b506104076114f6565b3480156105db57600080fd5b50601a546105ef906001600160801b031681565b6040516001600160801b0390911681526020016103de565b34801561061357600080fd5b50600a546104a2565b61040761062a3660046151f7565b611533565b34801561063b57600080fd5b506106446115f4565b6040516103de9190615294565b34801561065d57600080fd5b50600080516020615f2f83398151915254610560565b34801561067f57600080fd5b506104a261172d565b34801561069457600080fd5b506104076106a33660046151c2565b6117e0565b3480156106b457600080fd5b506104a2600d5481565b3480156106ca57600080fd5b506106de6106d9366004615088565b611896565b6040516103de91906152d6565b3480156106f757600080fd5b50610560611930565b34801561070c57600080fd5b50601c546103d29060ff1681565b34801561072657600080fd5b506105606119d9565b34801561073b57600080fd5b506107446119fa565b6040516103de91906152e4565b34801561075d57600080fd5b506104a260055481565b34801561077357600080fd5b50610407610782366004615088565b611aad565b34801561079357600080fd5b506104076107a236600461531c565b611b4c565b3480156107b357600080fd5b506104076107c23660046151c2565b611de8565b3480156107d357600080fd5b506104076107e23660046151c2565b611f89565b3480156107f357600080fd5b506107fc61204c565b6040516103de9190615357565b34801561081557600080fd5b506104076120da565b34801561082a57600080fd5b50601854601954604080516001600160801b038085168252600160801b948590048116602083015280841692820192909252929091041660608201526080016103de565b34801561087a57600080fd5b506104a2610889366004615088565b61217c565b34801561089a57600080fd5b5061041e612189565b3480156108af57600080fd5b50600054610560906001600160a01b031681565b3480156108cf57600080fd5b5061058d612195565b3480156108e457600080fd5b506104a260015481565b3480156108fa57600080fd5b506106de610909366004615088565b61231f565b34801561091a57600080fd5b506104a2600c5481565b34801561093057600080fd5b5061040761093f366004615381565b6123ad565b34801561095057600080fd5b5061040761095f366004614f93565b6124dd565b34801561097057600080fd5b506107fc61255a565b34801561098557600080fd5b506104076109943660046150a1565b612567565b3480156109a557600080fd5b506104076109b4366004615470565b61283d565b3480156109c557600080fd5b506104a26109d4366004615537565b6128f4565b3480156109e557600080fd5b50610407612da9565b3480156109fa57600080fd5b506104a260035481565b348015610a1057600080fd5b506103d2610a1f366004615088565b61369e565b348015610a3057600080fd5b50610407610a3f3660046151c2565b6136a9565b348015610a5057600080fd5b506103d2610a5f3660046150d5565b6137a9565b348015610a7057600080fd5b50600080516020615f9683398151915254600160a81b900460ff166103d2565b348015610a9c57600080fd5b506104a2613843565b348015610ab157600080fd5b50610407610ac03660046151c2565b61384f565b348015610ad157600080fd5b50610407610ae03660046155a0565b613ab8565b348015610af157600080fd5b50601a546105ef90600160801b90046001600160801b031681565b348015610b1857600080fd5b50610407613c2c565b348015610b2d57600080fd5b50610407610b3c3660046151c2565b613d00565b348015610b4d57600080fd5b50610407610b5c3660046151c2565b613db6565b60006001600160e01b031982166301ffc9a760e01b1480610b9257506001600160e01b0319821663580605bb60e11b145b80610bad57506001600160e01b03198216631106951d60e01b145b92915050565b6001600160a01b038516610be25760405162461bcd60e51b8152600401610bd9906155d9565b60405180910390fd5b83610c1f5760405162461bcd60e51b815260206004820152600d60248201526c34b73b30b634b21031b430b4b760991b6044820152606401610bd9565b6000835111610c405760405162461bcd60e51b8152600401610bd9906155d9565b6000825111610c615760405162461bcd60e51b8152600401610bd9906155d9565b610c6b8888613ab8565b610c8186600080516020615f2f83398151915255565b600080546001600160a01b0319166001600160a01b03871617905560018490556002610cad8482615684565b50815160208301206003556004610cc48382615684565b5060058190556040517f2b9f127cf369b3d4cb5d54b96a2f4c08fc9224ad91ce66e48e8a0a4073741bc390610cfa908590615357565b60405180910390a15050505050505050565b6060610d186014613f56565b905090565b610d25613f63565b604051600080516020615f9683398151915290600090610d489085908590615743565b6040518091039020905081600201600082815260200190815260200160002054600003610db75760405162461bcd60e51b815260206004820152601a60248201527f74696d656c6f636b3a20696e76616c69642073656c6563746f720000000000006044820152606401610bd9565b6040518181527f69b058d6225c01c1f2a25801ca5b05705fa2e9118e93d518390ba804398c87b19060200160405180910390a16000908152600290910160205260408120555050565b60606012805480602002602001604051908101604052809291908181526020016000905b82821015610ed0578382906000526020600020018054610e4390615602565b80601f0160208091040260200160405190810160405280929190818152602001828054610e6f90615602565b8015610ebc5780601f10610e9157610100808354040283529160200191610ebc565b820191906000526020600020905b815481529060010190602001808311610e9f57829003601f168201915b505050505081526020019060010190610e24565b50505050905090565b600080516020615f96833981519152610ef1336137a9565b610f2d5760405162461bcd60e51b815260206004820152600d60248201526c37b7363c9032bc32b1baba37b960991b6044820152606401610bd9565b60008383604051610f3f929190615743565b60408051918290039091206000818152600285016020529182205490925090819003610fad5760405162461bcd60e51b815260206004820152601a60248201527f74696d656c6f636b3a20696e76616c69642073656c6563746f720000000000006044820152606401610bd9565b80421015610ffd5760405162461bcd60e51b815260206004820152601960248201527f74696d656c6f636b3a206e6f7420616c6c6f77656420796574000000000000006044820152606401610bd9565b6000828152600284016020526040808220829055845460ff60b01b1916600160b01b1785555130906110329088908890615743565b6000604051808303816000865af19150503d806000811461106f576040519150601f19603f3d011682016040523d82523d6000602084013e611074565b606091505b5050845460ff60b01b191685556040518481529091507fec1225e5a8a8acb91e03ce648c683c74f5d152a775b9715980999441d714c44f9060200160405180910390a16110c081613fbd565b505050505050565b601954601054600f54600092600160801b90046001600160801b0316916110ee91615769565b6110f8919061577c565b601b54611118906001600160801b0380821691600160801b900416615793565b6001600160801b0316610d189190615769565b611133613f63565b60058054906000611143836157b3565b919050557ffb4d48d51c953bd4b11272d69d0a932777144e6118d519b0a7879889d54c3ca9600483604051611179929190615849565b60405180910390a250565b600080601383604051611197919061586b565b908152602001604051809103902054119050919050565b6111b6613fda565b15611282576111c3614010565b6001600160a01b037f000000000000000000000000000000000000000000000000000000000000000016300361120b5760405162461bcd60e51b8152600401610bd990615887565b7f00000000000000000000000000000000000000000000000000000000000000006001600160a01b031661123d614054565b6001600160a01b0316146112635760405162461bcd60e51b8152600401610bd9906158d3565b6040805160008082526020820190925261127f9183919061406a565b50565b61127f60003660006141d5565b600f546060906001600160401b038111156112ac576112ac614d80565b6040519080825280602002602001820160405280156112f757816020015b60408051606080820183528152600060208083018290529282015282526000199092019101816112ca5790505b50905060005b600f548110156114195760116000600f838154811061131e5761131e61591f565b9060005260206000200154815260200190815260200160002060405180606001604052908160008201805461135290615602565b80601f016020809104026020016040519081016040528092919081815260200182805461137e90615602565b80156113cb5780601f106113a0576101008083540402835291602001916113cb565b820191906000526020600020905b8154815290600101906020018083116113ae57829003601f168201915b5050509183525050600182015460208201526002909101546001600160801b031660409091015282518390839081106114065761140661591f565b60209081029190910101526001016112fd565b5090565b611425613fda565b156114e557611432614010565b60005b818110156114e05761146f8383838181106114525761145261591f565b905060200201602081019061146791906150d5565b6014906142ec565b156114d8577f44961db59fc60fd4da640bf1e11a0bcc1e5964fa1412832976c07f75230961068383838181106114a7576114a761591f565b90506020020160208101906114bc91906150d5565b6040516001600160a01b03909116815260200160405180910390a15b600101611435565b505050565b6114f260003660006141d5565b5050565b6114fe613f63565b601c805460ff191690556040517fa45f47fdea8a1efdd9029a5691c7f759c32b7c698632b563573e155625d1693390600090a1565b61153b613fda565b156114e557611548614010565b6001600160a01b037f00000000000000000000000000000000000000000000000000000000000000001630036115905760405162461bcd60e51b8152600401610bd990615887565b7f00000000000000000000000000000000000000000000000000000000000000006001600160a01b03166115c2614054565b6001600160a01b0316146115e85760405162461bcd60e51b8152600401610bd9906158d3565b6114f28282600161406a565b600d54600a5460609160009161160a9190615935565b9050806001600160401b0381111561162457611624614d80565b60405190808252806020026020018201604052801561167657816020015b6040805160808101825260008082526020808301829052928201819052606082015282526000199092019101816116425790505b50915060005b8181101561172857600a81600d546116949190615769565b815481106116a4576116a461591f565b60009182526020918290206040805160808101825260029390930290910180548352600101546001600160801b03811693830193909352600160801b83046001600160401b031690820152600160c01b90910460ff161515606082015283518490839081106117155761171561591f565b602090810291909101015260010161167c565b505090565b6000306001600160a01b037f000000000000000000000000000000000000000000000000000000000000000016146117cd5760405162461bcd60e51b815260206004820152603860248201527f555550535570677261646561626c653a206d757374206e6f742062652063616c60448201527f6c6564207468726f7567682064656c656761746563616c6c00000000000000006064820152608401610bd9565b50600080516020615f4f83398151915290565b6117e8613f63565b60005b818110156114e0576118258383838181106118085761180861591f565b905060200201602081019061181d91906150d5565b601690614301565b1561188e577f9f8aeb791b3aaf5907baec464ea88b1af7e280cf71d3c18caff2acbc82a2c22d83838381811061185d5761185d61591f565b905060200201602081019061187291906150d5565b6040516001600160a01b03909116815260200160405180910390a15b6001016117eb565b604080516080810182526000808252602082018190529181018290526060810191909152600a82815481106118cd576118cd61591f565b60009182526020918290206040805160808101825260029390930290910180548352600101546001600160801b03811693830193909352600160801b83046001600160401b031690820152600160c01b90910460ff161515606082015292915050565b600080516020615f96833981519152805460009190600160a81b900460ff166119665760018101546001600160a01b03166119d3565b805460408051631cc9492560e21b815290516001600160a01b03909216916373252494916004808201926020929091908290030181865afa1580156119af573d6000803e3d6000fd5b505050506040513d601f19601f820116820180604052508101906119d39190615948565b91505090565b6000600080516020615f968339815191525b546001600160a01b0316919050565b60606000600c54611a0b6008614316565b611a159190615935565b90506000816001600160401b03811115611a3157611a31614d80565b604051908082528060200260200182016040528015611a5a578160200160208202803683370190505b50905060005b82811015611aa657611a8181600c54611a799190615769565b600890614320565b828281518110611a9357611a9361591f565b6020908102919091010152600101611a60565b5092915050565b611ab5613f63565b6000611ac16008614316565b90505b600082118015611ad55750600c5481115b156114f2576000611af2611ae883615965565b9250600883614320565b9050611aff60088261432c565b5082611b0a81615965565b9350507faa5b497c9e1240353b4326a318841732a45855bab13094f75b10326919ce976f81604051611b3e91815260200190565b60405180910390a150611ac4565b611b5e6102a08201610280830161598d565b60ff1615611b9f5760405162461bcd60e51b815260206004820152600e60248201526d1c185e5b595b9d0819985a5b195960921b6044820152606401610bd9565b600154604082013514611be45760405162461bcd60e51b815260206004820152600d60248201526c34b73b30b634b21031b430b4b760991b6044820152606401610bd9565b60065460405163a7a3797560e01b81526001600160a01b039091169063a7a3797590611c14908490600401615ae9565b602060405180830381865afa158015611c31573d6000803e3d6000fd5b505050506040513d601f19601f82011682018060405250810190611c559190615b7c565b611c965760405162461bcd60e51b81526020600482015260126024820152711c185e5b595b9d081b9bdd081c1c9bdd995960721b6044820152606401610bd9565b60035461018082013514611cdd5760405162461bcd60e51b815260206004820152600e60248201526d1b9bdd0818dbdc99481d985d5b1d60921b6044820152606401610bd9565b600061020082013513611d235760405162461bcd60e51b815260206004820152600e60248201526d1a5b9d985b1a5908185b5bdd5b9d60921b6044820152606401610bd9565b60a081013560009081526007602052604090205460ff1661127f5760a08101356000908152600760205260408120805460ff19166001179055601a805461020084013592839291611d7e9084906001600160801b0316615793565b82546101009290920a6001600160801b03818102199093169183160217909155604080516102408601358152918416602083015260a085013592507f785b06c3bf892c33bc4741c1a560c56d8491c4074acfe42a5be62cd177dec4cc910160405180910390a25050565b611df0613fda565b156114e557611dfd614010565b60005b818110156114e0576000838383818110611e1c57611e1c61591f565b9050602002810190611e2e9190615b99565b905011611e4d5760405162461bcd60e51b8152600401610bd9906155d9565b6013838383818110611e6157611e6161591f565b9050602002810190611e739190615b99565b604051611e81929190615743565b908152602001604051809103902054600003611f81576012838383818110611eab57611eab61591f565b9050602002810190611ebd9190615b99565b82546001810184556000938452602090932090920191611edd9183615bdf565b506012546013848484818110611ef557611ef561591f565b9050602002810190611f079190615b99565b604051611f15929190615743565b908152604051908190036020019020557fe576cf96388d010e4c6449ee2ea0d00b4a27a1707aae679f56c50c73b5af6176838383818110611f5857611f5861591f565b9050602002810190611f6a9190615b99565b604051611f78929190615cc8565b60405180910390a15b600101611e00565b611f91613fda565b156114e557611f9e614010565b60005b818110156114e057611fdb838383818110611fbe57611fbe61591f565b9050602002016020810190611fd391906150d5565b601490614301565b15612044577f60c19f851be58fab2699cb088c41dfef0034de21546285137aa50b36edf4cdc38383838181106120135761201361591f565b905060200201602081019061202891906150d5565b6040516001600160a01b03909116815260200160405180910390a15b600101611fa1565b6004805461205990615602565b80601f016020809104026020016040519081016040528092919081815260200182805461208590615602565b80156120d25780601f106120a7576101008083540402835291602001916120d2565b820191906000526020600020905b8154815290600101906020018083116120b557829003601f168201915b505050505081565b6120e2611930565b6001600160a01b0316336001600160a01b031614806121075750612107601633614338565b6121445760405162461bcd60e51b815260206004820152600e60248201526d1b9bdd08185d5d1a1bdc9a5e995960921b6044820152606401610bd9565b601c805460ff191660011790556040517f9e87fac88ff661f02d44f95383c817fece4bce600a3dab7a54406878b965e75290600090a1565b6000610bad600883614320565b6060610d186016613f56565b6010546060906001600160401b038111156121b2576121b2614d80565b6040519080825280602002602001820160405280156121fd57816020015b60408051606080820183528152600060208083018290529282015282526000199092019101816121d05790505b50905060005b6010548110156114195760116000601083815481106122245761222461591f565b9060005260206000200154815260200190815260200160002060405180606001604052908160008201805461225890615602565b80601f016020809104026020016040519081016040528092919081815260200182805461228490615602565b80156122d15780601f106122a6576101008083540402835291602001916122d1565b820191906000526020600020905b8154815290600101906020018083116122b457829003601f168201915b5050509183525050600182015460208201526002909101546001600160801b0316604090910152825183908390811061230c5761230c61591f565b6020908102919091010152600101612203565b6040805160808101825260008082526020820181905291810182905260608101919091526000828152600b602052604090205461235b8161435a565b60408051608081018252825481526001909201546001600160801b0381166020840152600160801b81046001600160401b031691830191909152600160c01b900460ff16151560608201529392505050565b6123b5613fda565b156124ca576123c2614010565b62015180846001600160801b0316106124105760405162461bcd60e51b815260206004820152601060248201526f696e76616c696420656e642074696d6560801b6044820152606401610bd9565b6000816001600160801b0316116124545760405162461bcd60e51b8152602060048201526008602482015267666565207a65726f60c01b6044820152606401610bd9565b6001600160801b03838116600160801b818102878416908117601855848416918202938616938417601955604080519182526020820193909352808301939093526060830152517fc8dd8a2052a4ea200785e999e2eaeef85c19be170d8cdc0ec51e94589eb4a61b9181900360800190a16124d7565b6124d760003660006141d5565b50505050565b6124e5613fda565b156114e5576124f2614010565b8061250f5760405162461bcd60e51b8152600401610bd9906155d9565b600261251c828483615bdf565b507f2b9f127cf369b3d4cb5d54b96a2f4c08fc9224ad91ce66e48e8a0a4073741bc3828260405161254e929190615cc8565b60405180910390a15050565b6002805461205990615602565b61256f6143d1565b8051602082012060005b600f5481101561266a57600060116000600f848154811061259c5761259c61591f565b9060005260206000200154815260200190815260200160002060000180546125c390615602565b80601f01602080910402602001604051908101604052809291908181526020018280546125ef90615602565b801561263c5780601f106126115761010080835404028352916020019161263c565b820191906000526020600020905b81548152906001019060200180831161261f57829003601f168201915b5050505050905082818051906020012003612657575061266a565b81612661816157b3565b92505050612579565b600f5481106126af5760405162461bcd60e51b81526020600482015260116024820152701c995c5d595cdd081b9bdd08199bdd5b99607a1b6044820152606401610bd9565b6000600f82815481106126c4576126c461591f565b60009182526020808320909101548083526011909152604082206002810154601b805493955091936001600160801b039182169384939261270791859116615cdc565b92506101000a8154816001600160801b0302191690836001600160801b031602179055507f8adfda440ffa4621b003393f85ef276a29bf63946200f10ff5d90e83064f5dd98683600101548360405161276293929190615cfc565b60405180910390a15b600f5461277a90600190615935565b8410156127da57600f61278e856001615769565b8154811061279e5761279e61591f565b9060005260206000200154600f85815481106127bc576127bc61591f565b600091825260209091200155836127d2816157b3565b94505061276b565b600f8054806127eb576127eb615d2e565b60008281526020808220830160001990810183905590920190925584825260119052604081209061281c8282614cf7565b506000600182015560020180546001600160801b0319169055505050505050565b600080516020615f2f833981519152546001600160a01b0316336001600160a01b0316146128a45760405162461bcd60e51b815260206004820152601460248201527337b7363c9030b2323932b9b9903ab83230ba32b960611b6044820152606401610bd9565b6128ea6128d883836040518060400160405280600e81526020016d20b2323932b9b9aab83230ba32b960911b815250614420565b600080516020615f2f83398151915255565b6114f282826144f1565b60006128fe6143d1565b612906614547565b6000836001600160801b03161161294d5760405162461bcd60e51b815260206004820152600b60248201526a616d6f756e74207a65726f60a81b6044820152606401610bd9565b60138560405161295d919061586b565b9081526020016040518091039020546000036129bb5760405162461bcd60e51b815260206004820152601760248201527f64657374696e6174696f6e206e6f7420616c6c6f7765640000000000000000006044820152606401610bd9565b8451602086012060008315612af65760005b600f54811015612a7457600060116000600f84815481106129f0576129f061591f565b9060005260206000200154815260200190815260200160002090508381600001604051612a1d9190615d44565b604051809103902003612a6b5760405162461bcd60e51b81526020600482015260166024820152757265717565737420616c72656164792065786973747360501b6044820152606401610bd9565b506001016129cd565b50601b8054869190600090612a939084906001600160801b0316615793565b82546001600160801b039182166101009390930a92830291909202199091161790555050600e54600f8054600181810183556000929092527f8d1108e10bcb7c27dddfc02ed9d693a074039d026cf4ea4240b40f7d581ac8020191909155612c4d565b60005b601054811015612bba5760006011600060108481548110612b1c57612b1c61591f565b9060005260206000200154815260200190815260200160002090508381600001604051612b499190615d44565b604051809103902003612ba757600281018054889190600090612b769084906001600160801b0316615793565b92506101000a8154816001600160801b0302191690836001600160801b031602179055508060010154975050612bba565b81612bb1816157b3565b92505050612af9565b85601b60108282829054906101000a90046001600160801b0316612bde9190615793565b92506101000a8154816001600160801b0302191690836001600160801b031602179055506010805490508103612c4b57600e5460108054600181810183556000929092527f1b6847dc741a1b0cd08d278845f9d819d87b734759afb55fe2de5cb82a9ae672019190915591505b505b6000612c576110c8565b601a54909150612c79906001600160801b03600160801b820481169116615793565b6001600160801b0316811115612cc65760405162461bcd60e51b8152602060048201526012602482015271696e73756666696369656e742066756e647360701b6044820152606401610bd9565b8115612d5d576040518060600160405280898152602001888152602001876001600160801b031681525060116000600e6000815480929190612d07906157b3565b909155508152602081019190915260400160002081518190612d299082615684565b5060208201516001820155604090910151600290910180546001600160801b0319166001600160801b039092169190911790555b7fd5ee6afd74a02db8e2aff0882bd64612f6f65fb4e73ed854231a8a088e11d05488888888604051612d929493929190615dba565b60405180910390a18693505050505b949350505050565b612db1614547565b612dbc601433614338565b612df95760405162461bcd60e51b815260206004820152600e60248201526d1b9bdd08185d5d1a1bdc9a5e995960921b6044820152606401610bd9565b612e04600019614583565b50601a546005546019546001600160801b0392831692600160801b9091041680612e5b5760405162461bcd60e51b8152602060048201526008602482015267666565207a65726f60c01b6044820152606401610bd9565b600f54601b54600091906001600160801b03165b8183101561310e576000600f8481548110612e8c57612e8c61591f565b60009182526020808320909101548083526011909152604090912060020154909150612ec29086906001600160801b0316615793565b6001600160801b0316876001600160801b0316106130fa57600081815260116020526040808220815160608101909252805482908290612f0190615602565b80601f0160208091040260200160405190810160405280929190818152602001828054612f2d90615602565b8015612f7a5780601f10612f4f57610100808354040283529160200191612f7a565b820191906000526020600020905b815481529060010190602001808311612f5d57829003601f168201915b5050509183525050600182015460208201526002909101546001600160801b0316604091820152810151909150612fb2908790615793565b612fbc9089615cdc565b9750806040015183612fce9190615cdc565b925086612fda816157b3565b97507ff31ace0071134e7898630b99161ff33bd098afdd18429925c1b8fe3703f0d4326004836000015184604001518a8660200151604051613020959493929190615df4565b60405180910390a2845b613035600186615935565b81101561308b57600f613049826001615769565b815481106130595761305961591f565b9060005260206000200154600f82815481106130775761307761591f565b60009182526020909120015560010161302a565b50600f80548061309d5761309d615d2e565b6000828152602080822083016000199081018390559092019092558382526011905260408120906130ce8282614cf7565b506000600182015560020180546001600160801b0319169055836130f181615965565b94505050613108565b83613104816157b3565b9450505b50612e6f565b601b80546001600160801b0319166001600160801b039283161790819055601054600094509250600160801b9004165b818310156133dd5760006010848154811061315b5761315b61591f565b600091825260208083209091015480835260119091526040909120600201549091506131919086906001600160801b0316615793565b6001600160801b0316876001600160801b0316106133c9576000818152601160205260408082208151606081019092528054829082906131d090615602565b80601f01602080910402602001604051908101604052809291908181526020018280546131fc90615602565b80156132495780601f1061321e57610100808354040283529160200191613249565b820191906000526020600020905b81548152906001019060200180831161322c57829003601f168201915b5050509183525050600182015460208201526002909101546001600160801b0316604091820152810151909150613281908790615793565b61328b9089615cdc565b975080604001518361329d9190615cdc565b9250866132a9816157b3565b97507ff31ace0071134e7898630b99161ff33bd098afdd18429925c1b8fe3703f0d4326004836000015184604001518a86602001516040516132ef959493929190615df4565b60405180910390a2845b613304600186615935565b81101561335a576010613318826001615769565b815481106133285761332861591f565b9060005260206000200154601082815481106133465761334661591f565b6000918252602090912001556001016132f9565b50601080548061336c5761336c615d2e565b60008281526020808220830160001990810183905590920190925583825260119052604081209061339d8282614cf7565b506000600182015560020180546001600160801b0319169055836133c081615965565b945050506133d7565b836133d3816157b3565b9450505b5061313e565b601b80546001600160801b03808416600160801b9081029282169290921790925560185404168015806134105750600083115b8061341c5750600f5415155b1561344c575050601a80546001600160801b0319166001600160801b039690961695909517909455505060055550565b600c54601954600090879061346b9085906001600160801b0316615793565b6134759190615793565b6001600160801b0316905061348a6008614316565b601a549095506001600160801b03600160801b90910481169450891681118015906134b457508482105b156136785760006134c36147b6565b90505b818a6001600160801b0316101580156134de57508583105b15613671576134ed8885615793565b6134f7908b615cdc565b99506135038486615793565b9450600061351e84613514816157b3565b9550600890614320565b604080516080810182528281526001600160801b0388811660208084019182526001600160401b03888116858701908152600060608701818152600a805460018101825581845289517fc65a7bb8d6351c1cf70c95a316cc6a92839c986682d98bc35f958f4883f9d2a860029092029182015596517fc65a7bb8d6351c1cf70c95a316cc6a92839c986682d98bc35f958f4883f9d2a9909701805494519251979098166001600160c01b031990941693909317600160801b91909416029290921760ff60c01b1916600160c01b94151594909402939093179093559054858352600b90915292902091909155909150818b613618816157b3565b9c507fd16de4df221c5b7206a150305a43a095e5c589acad2201246f144c2ec39eb3be600460028a8f89604051613653959493929190615e3e565b60405180910390a36136686201518084615e96565b925050506134c6565b50600c8290555b5050506005949094555050506001600160801b03908116600160801b02911617601a555b565b6000610bad82614583565b6136b1613f63565b60005b818110156114e05760008383838181106136d0576136d061591f565b905060200201351415801561370c575061370c8383838181106136f5576136f561591f565b9050602002013560086148d690919063ffffffff16565b6137505760405162461bcd60e51b81526020600482015260156024820152740d2dcecc2d8d2c840e0e4cad2dac2ceca40d0c2e6d605b1b6044820152606401610bd9565b7fcc2040da958ce1e137b3d9e576249e5d4590200e120858f07eeba715773fa4a08383838181106137835761378361591f565b9050602002013560405161379991815260200190565b60405180910390a16001016136b4565b600080516020615f96833981519152805460009190600160a01b900460ff16801561383c57508054604051630debfda360e41b81526001600160a01b0385811660048301529091169063debfda3090602401602060405180830381865afa158015613818573d6000803e3d6000fd5b505050506040513d601f19601f8201168201806040525081019061383c9190615b7c565b9392505050565b6000610d186008614316565b613857613fda565b156114e557613864614010565b60005b818110156114e057600060138484848181106138855761388561591f565b90506020028101906138979190615b99565b6040516138a5929190615743565b9081526020016040518091039020549050806000036138c45750613ab0565b601254808210156139dd57600060126138de600184615935565b815481106138ee576138ee61591f565b90600052602060002001805461390390615602565b80601f016020809104026020016040519081016040528092919081815260200182805461392f90615602565b801561397c5780601f106139515761010080835404028352916020019161397c565b820191906000526020600020905b81548152906001019060200180831161395f57829003601f168201915b505050505090508060126001856139939190615935565b815481106139a3576139a361591f565b9060005260206000200190816139b99190615684565b50826013826040516139cb919061586b565b90815260405190819003602001902055505b60128054806139ee576139ee615d2e565b600190038181906000526020600020016000613a0a9190614cf7565b90556013858585818110613a2057613a2061591f565b9050602002810190613a329190615b99565b604051613a40929190615743565b9081526020016040518091039020600090557fa35d07f0278ab7afea1dbe8905da671d026d7fad4e245129e56303b1b2793555858585818110613a8557613a8561591f565b9050602002810190613a979190615b99565b604051613aa5929190615cc8565b60405180910390a150505b600101613867565b600080516020615f968339815191528054600160a01b900460ff1615613b175760405162461bcd60e51b8152602060048201526014602482015273696e697469616c6973656420213d2066616c736560601b6044820152606401610bd9565b6001600160a01b038316613b6d5760405162461bcd60e51b815260206004820152601860248201527f676f7665726e616e63652073657474696e6773207a65726f00000000000000006044820152606401610bd9565b6001600160a01b038216613bb65760405162461bcd60e51b815260206004820152601060248201526f5f676f7665726e616e6365207a65726f60801b6044820152606401610bd9565b80546001600160a01b038481166001600160a81b031990921691909117600160a01b1782556001820180549184166001600160a01b0319909216821790556040519081527f9789733827840833afc031fb2ef9ab6894271f77bad2085687cf4ae5c7bee4db9060200160405180910390a1505050565b613c34613f63565b600080516020615f968339815191528054600160a81b900460ff1615613c9c5760405162461bcd60e51b815260206004820152601a60248201527f616c726561647920696e2070726f64756374696f6e206d6f64650000000000006044820152606401610bd9565b6001810180546001600160a01b03191690558054600160a81b60ff60a81b1982161782556040516001600160a01b0390911681527f83af113638b5422f9e977cebc0aaf0eaf2188eb9a8baae7f9d46c42b33a1560c9060200160405180910390a150565b613d08613f63565b60005b818110156114e057613d45838383818110613d2857613d2861591f565b9050602002016020810190613d3d91906150d5565b6016906142ec565b15613dae577f319dd39ab6caa236891dbd7721e886a50cf2a124d1ee99cd21ba5d51b6c56bf6838383818110613d7d57613d7d61591f565b9050602002016020810190613d9291906150d5565b6040516001600160a01b03909116815260200160405180910390a15b600101613d0b565b613dbe613f63565b601a546001600160801b0380821691600160801b90041660005b83811015613f3a576000600b6000878785818110613df857613df861591f565b9050602002013581526020019081526020016000205490506000613e1b8261435a565b6001810154909150600160c01b900460ff1615613e7a5760405162461bcd60e51b815260206004820152601760248201527f657363726f7720616c72656164792066696e69736865640000000000000000006044820152606401610bd9565b60018101805460ff60c01b1916600160c01b179055600d548211613eb7576001810154613eb0906001600160801b031686615cdc565b9450613ed2565b6001810154613ecf906001600160801b031685615cdc565b93505b868684818110613ee457613ee461591f565b60018401546040516001600160801b03909116815260209182029390930135927f0451a3f480962e8772a6b24baac2d7869b328d0297ac8a8bef0723624e36424b92500160405180910390a25050600101613dd8565b506001600160801b03908116600160801b02911617601a555050565b6060600061383c836148e2565b613f6b611930565b6001600160a01b0316336001600160a01b03161461369c5760405162461bcd60e51b815260206004820152600f60248201526e6f6e6c7920676f7665726e616e636560881b6044820152606401610bd9565b3d604051818101604052816000823e8215613fd6578181f35b8181fd5b600080516020615f96833981519152805460009190600160b01b900460ff16806119d3575054600160a81b900460ff1615919050565b600080516020615f968339815191528054600160b01b900460ff161561404c5733301461403f5761403f615eb6565b805460ff60b01b19169055565b61127f613f63565b6000600080516020615f4f8339815191526119eb565b7f4910fdfa16fed3260ed0e7147f7cc6da11a60208b5b9406d12a635614ffd91435460ff161561409d576114e08361493e565b826001600160a01b03166352d1902d6040518163ffffffff1660e01b8152600401602060405180830381865afa9250505080156140f7575060408051601f3d908101601f191682019092526140f491810190615ecc565b60015b61415a5760405162461bcd60e51b815260206004820152602e60248201527f45524331393637557067726164653a206e657720696d706c656d656e7461746960448201526d6f6e206973206e6f74205555505360901b6064820152608401610bd9565b600080516020615f4f83398151915281146141c95760405162461bcd60e51b815260206004820152602960248201527f45524331393637557067726164653a20756e737570706f727465642070726f786044820152681a58589b195555525160ba1b6064820152608401610bd9565b506114e08383836149da565b600080516020615f968339815191526141ec613f63565b600084846040516141fe929190615743565b604080519182900382208454636221a54b60e01b845291519093506000926001600160a01b0390921691636221a54b9160048083019260209291908290030181865afa158015614252573d6000803e3d6000fd5b505050506040513d601f19601f820116820180604052508101906142769190615ecc565b9050838110156142835750825b600061428f8242615769565b600084815260028601602052604090819020829055519091507f8c02104dfc280f713854f25297de671710c544c58de69dbde8fb66974ce1ab9e906142db908990899087908690615ee5565b60405180910390a150505050505050565b600061383c836001600160a01b0384166149ff565b600061383c836001600160a01b038416614a4e565b6000610bad825490565b600061383c8383614b41565b600061383c8383614a4e565b6001600160a01b0381166000908152600183016020526040812054151561383c565b60008160000361439f5760405162461bcd60e51b815260206004820152601060248201526f195cd8dc9bddc81b9bdd08199bdd5b9960821b6044820152606401610bd9565b600a6143ac600184615935565b815481106143bc576143bc61591f565b90600052602060002090600202019050919050565b6000546001600160a01b0316331461369c5760405162461bcd60e51b815260206004820152601260248201527137b7363c9030b9b9b2ba1036b0b730b3b2b960711b6044820152606401610bd9565b600080826040516020016144349190615357565b6040516020818303038152906040528051906020012090506000805b86518110156144a25786818151811061446b5761446b61591f565b6020026020010151830361449a5785818151811061448b5761448b61591f565b602002602001015191506144a2565b600101614450565b506001600160a01b0381166144e85760405162461bcd60e51b815260206004820152600c60248201526b61646472657373207a65726f60a01b6044820152606401610bd9565b95945050505050565b61452382826040518060400160405280600f81526020016e233231ab32b934b334b1b0ba34b7b760891b815250614420565b600680546001600160a01b0319166001600160a01b03929092169190911790555050565b601c5460ff161561369c5760405162461bcd60e51b81526020600482015260066024820152651c185d5cd95960d21b6044820152606401610bd9565b601a54600d546000916001600160801b0380821692600160801b90920416905b6000851180156145b45750600a5481105b801561462e575042600a82815481106145cf576145cf61591f565b6000918252602090912060029091020160010154600160801b90046001600160401b031611158061462e5750600a818154811061460e5761460e61591f565b906000526020600020906002020160010160189054906101000a900460ff165b156146d757600a81815481106146465761464661591f565b906000526020600020906002020160010160189054906101000a900460ff166146b7576000600a828154811061467e5761467e61591f565b60009182526020909120600160029092020101546001600160801b031690506146a78185615793565b93506146b38184615cdc565b9250505b806146c1816157b3565b91505084806146cf90615965565b9550506145a3565b600d8190556001600160801b03828116600160801b0290841617601a55841515806147035750600a5481145b8061477d575042600a828154811061471d5761471d61591f565b6000918252602090912060029091020160010154600160801b90046001600160401b031611801561477d5750600a818154811061475c5761475c61591f565b906000526020600020906002020160010160189054906101000a900460ff16155b9350836147ae576040517f0306fa81e0cf1311aeee18d2d319bb52e97692b3b5ff4144eba92e5f6d59b40990600090a15b505050919050565b600a5460009081905b600d5481111561486357600a6147d6600183615935565b815481106147e6576147e661591f565b906000526020600020906002020160010160189054906101000a900460ff1661485157600a614816600183615935565b815481106148265761482661591f565b6000918252602090912060029091020160010154600160801b90046001600160401b03169150614863565b8061485b81615965565b9150506147bf565b5061486e8142614b6b565b905061487d6201518082615769565b6018549091506001600160801b03166148996201518083615f0c565b6148a39083615935565b6148ad9190615769565b90506148bb4261a8c0615769565b81116148d1576148ce6201518082615769565b90505b919050565b600061383c83836149ff565b60608160000180548060200260200160405190810160405280929190818152602001828054801561493257602002820191906000526020600020905b81548152602001906001019080831161491e575b50505050509050919050565b6001600160a01b0381163b6149ab5760405162461bcd60e51b815260206004820152602d60248201527f455243313936373a206e657720696d706c656d656e746174696f6e206973206e60448201526c1bdd08184818dbdb9d1c9858dd609a1b6064820152608401610bd9565b600080516020615f4f83398151915280546001600160a01b0319166001600160a01b0392909216919091179055565b6149e383614b81565b6000825111806149f05750805b156114e0576124d78383614bc1565b6000818152600183016020526040812054614a4657508154600181810184556000848152602080822090930184905584548482528286019093526040902091909155610bad565b506000610bad565b60008181526001830160205260408120548015614b37576000614a72600183615935565b8554909150600090614a8690600190615935565b9050818114614aeb576000866000018281548110614aa657614aa661591f565b9060005260206000200154905080876000018481548110614ac957614ac961591f565b6000918252602080832090910192909255918252600188019052604090208390555b8554869080614afc57614afc615d2e565b600190038181906000526020600020016000905590558560010160008681526020019081526020016000206000905560019350505050610bad565b6000915050610bad565b6000826000018281548110614b5857614b5861591f565b9060005260206000200154905092915050565b6000818311614b7a578161383c565b5090919050565b614b8a8161493e565b6040516001600160a01b038216907fbc7cd75a20ee27fd9adebab32041f755214dbc6bffa90cc0225b39da2e5c2d3b90600090a250565b606061383c8383604051806060016040528060278152602001615f6f602791396060600080856001600160a01b031685604051614bfe919061586b565b600060405180830381855af49150503d8060008114614c39576040519150601f19603f3d011682016040523d82523d6000602084013e614c3e565b606091505b5091509150614c4f86838387614c59565b9695505050505050565b60608315614cc8578251600003614cc1576001600160a01b0385163b614cc15760405162461bcd60e51b815260206004820152601d60248201527f416464726573733a2063616c6c20746f206e6f6e2d636f6e74726163740000006044820152606401610bd9565b5081612da1565b612da18383815115614cdd5781518083602001fd5b8060405162461bcd60e51b8152600401610bd99190615357565b508054614d0390615602565b6000825580601f10614d13575050565b601f01602090049060005260206000209081019061127f91905b808211156114195760008155600101614d2d565b600060208284031215614d5357600080fd5b81356001600160e01b03198116811461383c57600080fd5b6001600160a01b038116811461127f57600080fd5b634e487b7160e01b600052604160045260246000fd5b604051601f8201601f191681016001600160401b0381118282101715614dbe57614dbe614d80565b604052919050565b60006001600160401b03831115614ddf57614ddf614d80565b614df2601f8401601f1916602001614d96565b9050828152838383011115614e0657600080fd5b828260208301376000602084830101529392505050565b600082601f830112614e2e57600080fd5b61383c83833560208501614dc6565b600080600080600080600080610100898b031215614e5a57600080fd5b8835614e6581614d6b565b97506020890135614e7581614d6b565b96506040890135614e8581614d6b565b95506060890135614e9581614d6b565b94506080890135935060a08901356001600160401b0380821115614eb857600080fd5b614ec48c838d01614e1d565b945060c08b0135915080821115614eda57600080fd5b50614ee78b828c01614e1d565b92505060e089013590509295985092959890939650565b6020808252825182820181905260009190848201906040850190845b81811015614f3f5783516001600160a01b031683529284019291840191600101614f1a565b50909695505050505050565b60008083601f840112614f5d57600080fd5b5081356001600160401b03811115614f7457600080fd5b602083019150836020828501011115614f8c57600080fd5b9250929050565b60008060208385031215614fa657600080fd5b82356001600160401b03811115614fbc57600080fd5b614fc885828601614f4b565b90969095509350505050565b60005b83811015614fef578181015183820152602001614fd7565b50506000910152565b60008151808452615010816020860160208601614fd4565b601f01601f19169290920160200192915050565b600060208083016020845280855180835260408601915060408160051b87010192506020870160005b8281101561507b57603f19888603018452615069858351614ff8565b9450928501929085019060010161504d565b5092979650505050505050565b60006020828403121561509a57600080fd5b5035919050565b6000602082840312156150b357600080fd5b81356001600160401b038111156150c957600080fd5b612da184828501614e1d565b6000602082840312156150e757600080fd5b813561383c81614d6b565b600060208083018184528085518083526040925060408601915060408160051b87010184880160005b8381101561517057603f1989840301855281516060815181865261514182870182614ff8565b838b0151878c0152928901516001600160801b031695890195909552509487019492509086019060010161511b565b509098975050505050505050565b60008083601f84011261519057600080fd5b5081356001600160401b038111156151a757600080fd5b6020830191508360208260051b8501011115614f8c57600080fd5b600080602083850312156151d557600080fd5b82356001600160401b038111156151eb57600080fd5b614fc88582860161517e565b6000806040838503121561520a57600080fd5b823561521581614d6b565b915060208301356001600160401b0381111561523057600080fd5b8301601f8101851361524157600080fd5b61525085823560208401614dc6565b9150509250929050565b805182526001600160801b0360208201511660208301526001600160401b0360408201511660408301526060810151151560608301525050565b6020808252825182820181905260009190848201906040850190845b81811015614f3f576152c383855161525a565b92840192608092909201916001016152b0565b60808101610bad828461525a565b6020808252825182820181905260009190848201906040850190845b81811015614f3f57835183529284019291840191600101615300565b60006020828403121561532e57600080fd5b81356001600160401b0381111561534457600080fd5b82016102a0818503121561383c57600080fd5b60208152600061383c6020830184614ff8565b80356001600160801b03811681146148d157600080fd5b6000806000806080858703121561539757600080fd5b6153a08561536a565b93506153ae6020860161536a565b92506153bc6040860161536a565b91506153ca6060860161536a565b905092959194509250565b60006001600160401b038211156153ee576153ee614d80565b5060051b60200190565b600082601f83011261540957600080fd5b8135602061541e615419836153d5565b614d96565b8083825260208201915060208460051b87010193508684111561544057600080fd5b602086015b8481101561546557803561545881614d6b565b8352918301918301615445565b509695505050505050565b6000806040838503121561548357600080fd5b82356001600160401b038082111561549a57600080fd5b818501915085601f8301126154ae57600080fd5b813560206154be615419836153d5565b82815260059290921b840181019181810190898411156154dd57600080fd5b948201945b838610156154fb578535825294820194908201906154e2565b9650508601359250508082111561551157600080fd5b50615250858286016153f8565b801515811461127f57600080fd5b80356148d18161551e565b6000806000806080858703121561554d57600080fd5b84356001600160401b0381111561556357600080fd5b61556f87828801614e1d565b945050602085013592506155856040860161536a565b915060608501356155958161551e565b939692955090935050565b600080604083850312156155b357600080fd5b82356155be81614d6b565b915060208301356155ce81614d6b565b809150509250929050565b6020808252600f908201526e696e76616c6964206164647265737360881b604082015260600190565b600181811c9082168061561657607f821691505b60208210810361563657634e487b7160e01b600052602260045260246000fd5b50919050565b601f8211156114e0576000816000526020600020601f850160051c810160208610156156655750805b601f850160051c820191505b818110156110c057828155600101615671565b81516001600160401b0381111561569d5761569d614d80565b6156b1816156ab8454615602565b8461563c565b602080601f8311600181146156e657600084156156ce5750858301515b600019600386901b1c1916600185901b1785556110c0565b600085815260208120601f198616915b82811015615715578886015182559484019460019091019084016156f6565b50858210156157335787850151600019600388901b60f8161c191681555b5050505050600190811b01905550565b8183823760009101908152919050565b634e487b7160e01b600052601160045260246000fd5b80820180821115610bad57610bad615753565b8082028115828204841417610bad57610bad615753565b6001600160801b03818116838216019080821115611aa657611aa6615753565b6000600182016157c5576157c5615753565b5060010190565b600081546157d981615602565b8085526020600183811680156157f657600181146158105761583e565b60ff1985168884015283151560051b88018301955061583e565b866000528260002060005b858110156158365781548a820186015290830190840161581b565b890184019650505b505050505092915050565b60408152600061585c60408301856157cc565b90508260208301529392505050565b6000825161587d818460208701614fd4565b9190910192915050565b6020808252602c908201527f46756e6374696f6e206d7573742062652063616c6c6564207468726f7567682060408201526b19195b1959d85d1958d85b1b60a21b606082015260800190565b6020808252602c908201527f46756e6374696f6e206d7573742062652063616c6c6564207468726f7567682060408201526b6163746976652070726f787960a01b606082015260800190565b634e487b7160e01b600052603260045260246000fd5b81810381811115610bad57610bad615753565b60006020828403121561595a57600080fd5b815161383c81614d6b565b60008161597457615974615753565b506000190190565b803560ff811681146148d157600080fd5b60006020828403121561599f57600080fd5b61383c8261597c565b80356001600160401b03811681146148d157600080fd5b80358252602081013560208301526159d9604082016159a8565b6001600160401b038082166040850152806159f6606085016159a8565b16606085015250506080810135608083015260a081013560a083015260c081013560c0830152615a3c60e08301615a2f60e084016159a8565b6001600160401b03169052565b610100615a4a8183016159a8565b6001600160401b03169083015261012081810135908301526101408082013590830152610160808201359083015261018080820135908301526101a080820135908301526101c080820135908301526101e0808201359083015261020080820135908301526102208082013590830152610240615ac881830161552c565b151590830152610260615adc82820161597c565b60ff8116848301526124d7565b6020815260008235601e19843603018112615b0357600080fd5b83016020810190356001600160401b03811115615b1f57600080fd5b8060051b803603831315615b3257600080fd5b6102a060208601526102c085018290526102e06001600160fb1b03831115615b5957600080fd5b818482880137615b6f60408701602089016159bf565b9401909301949350505050565b600060208284031215615b8e57600080fd5b815161383c8161551e565b6000808335601e19843603018112615bb057600080fd5b8301803591506001600160401b03821115615bca57600080fd5b602001915036819003821315614f8c57600080fd5b6001600160401b03831115615bf657615bf6614d80565b615c0a83615c048354615602565b8361563c565b6000601f841160018114615c3e5760008515615c265750838201355b600019600387901b1c1916600186901b178355615c98565b600083815260209020601f19861690835b82811015615c6f5786850135825560209485019460019092019101615c4f565b5086821015615c8c5760001960f88860031b161c19848701351681555b505060018560011b0183555b5050505050565b81835281816020850137506000828201602090810191909152601f909101601f19169091010190565b602081526000612da1602083018486615c9f565b6001600160801b03828116828216039080821115611aa657611aa6615753565b606081526000615d0f6060830186614ff8565b90508360208301526001600160801b0383166040830152949350505050565b634e487b7160e01b600052603160045260246000fd5b6000808354615d5281615602565b60018281168015615d6a5760018114615d7f57615dae565b60ff1984168752821515830287019450615dae565b8760005260208060002060005b85811015615da55781548a820152908401908201615d8c565b50505082870194505b50929695505050505050565b608081526000615dcd6080830187614ff8565b6020830195909552506001600160801b039290921660408301521515606090910152919050565b60a081526000615e0760a08301886157cc565b8281036020840152615e198188614ff8565b6001600160801b03968716604085015294909516606083015250608001529392505050565b60a081526000615e5160a08301886157cc565b8281036020840152615e6381886157cc565b6001600160801b039687166040850152949095166060830152506001600160401b03919091166080909101529392505050565b6001600160401b03818116838216019080821115611aa657611aa6615753565b634e487b7160e01b600052600160045260246000fd5b600060208284031215615ede57600080fd5b5051919050565b606081526000615ef9606083018688615c9f565b6020830194909452506040015292915050565b600082615f2957634e487b7160e01b600052601260045260246000fd5b50069056fe714f205b2abd25bef1d06a1af944e38c113fe6160375c4e1d6d5cf28848e7719360894a13ba1a3210667c828492db98dca3e2076cc3735a920a3ca505d382bbc416464726573733a206c6f772d6c6576656c2064656c65676174652063616c6c206661696c65642aa47ee5db910f3b2a06970c443249cc77dbd9f96100cfebc1775ab7fb1d1824a2646970667358221220bb46ca9154c068f40b6281561df747cf4b1c3ed9be0016cd1176f1761ea16b1f64736f6c63430008170033",
  "linkReferences": {},
  "deployedLinkReferences": {}
}