{
  "_format": "hh-sol-artifact-1",
  "contractName": "CoreVaultManager",
  "sourceName": "contracts/assetManager/implementation/CoreVaultManager.sol",
  "abi": [
    {
      "inputs": [],
      "stateMutability": "nonpayable",
      "type": "constructor"
    },
    {
      "anonymous": false,
      "inputs": [
        {
          "indexed": false,
          "internalType": "address",
          "name": "previousAdmin",
          "type": "address"
        },
        {
          "indexed": false,
          "internalType": "address",
          "name": "newAdmin",
          "type": "address"
        }
      ],
      "name": "AdminChanged",
      "type": "event"
    },
    {
      "anonymous": false,
      "inputs": [
        {
          "indexed": false,
          "internalType": "string",
          "name": "destinationAddress",
          "type": "string"
        }
      ],
      "name": "AllowedDestinationAddressAdded",
      "type": "event"
    },
    {
      "anonymous": false,
      "inputs": [
        {
          "indexed": false,
          "internalType": "string",
          "name": "destinationAddress",
          "type": "string"
        }
      ],
      "name": "AllowedDestinationAddressRemoved",
      "type": "event"
    },
    {
      "anonymous": false,
      "inputs": [
        {
          "indexed": true,
          "internalType": "address",
          "name": "beacon",
          "type": "address"
        }
      ],
      "name": "BeaconUpgraded",
      "type": "event"
    },
    {
      "anonymous": false,
      "inputs": [
        {
          "indexed": false,
          "internalType": "string",
          "name": "custodianAddress",
          "type": "string"
        }
      ],
      "name": "CustodianAddressUpdated",
      "type": "event"
    },
    {
      "anonymous": false,
      "inputs": [
        {
          "indexed": false,
          "internalType": "address",
          "name": "sender",
          "type": "address"
        }
      ],
      "name": "EmergencyPauseSenderAdded",
      "type": "event"
    },
    {
      "anonymous": false,
      "inputs": [
        {
          "indexed": false,
          "internalType": "address",
          "name": "sender",
          "type": "address"
        }
      ],
      "name": "EmergencyPauseSenderRemoved",
      "type": "event"
    },
    {
      "anonymous": false,
      "inputs": [
        {
          "indexed": true,
          "internalType": "bytes32",
          "name": "preimageHash",
          "type": "bytes32"
        },
        {
          "indexed": false,
          "internalType": "uint256",
          "name": "amount",
          "type": "uint256"
        }
      ],
      "name": "EscrowFinished",
      "type": "event"
    },
    {
      "anonymous": false,
      "inputs": [
        {
          "indexed": true,
          "internalType": "uint256",
          "name": "sequence",
          "type": "uint256"
        },
        {
          "indexed": true,
          "internalType": "bytes32",
          "name": "preimageHash",
          "type": "bytes32"
        },
        {
          "indexed": false,
          "internalType": "string",
          "name": "account",
          "type": "string"
        },
        {
          "indexed": false,
          "internalType": "string",
          "name": "destination",
          "type": "string"
        },
        {
          "indexed": false,
          "internalType": "uint256",
          "name": "amount",
          "type": "uint256"
        },
        {
          "indexed": false,
          "internalType": "uint256",
          "name": "fee",
          "type": "uint256"
        },
        {
          "indexed": false,
          "internalType": "uint256",
          "name": "cancelAfterTs",
          "type": "uint256"
        }
      ],
      "name": "EscrowInstructions",
      "type": "event"
    },
    {
      "anonymous": false,
      "inputs": [
        {
          "indexed": false,
          "internalType": "bytes",
          "name": "encodedCall",
          "type": "bytes"
        },
        {
          "indexed": false,
          "internalType": "bytes32",
          "name": "encodedCallHash",
          "type": "bytes32"
        },
        {
          "indexed": false,
          "internalType": "uint256",
          "name": "allowedAfterTimestamp",
          "type": "uint256"
        }
      ],
      "name": "GovernanceCallTimelocked",
      "type": "event"
    },
    {
      "anonymous": false,
      "inputs": [
        {
          "indexed": false,
          "internalType": "address",
          "name": "initialGovernance",
          "type": "address"
        }
      ],
      "name": "GovernanceInitialised",
      "type": "event"
    },
    {
      "anonymous": false,
      "inputs": [
        {
          "indexed": false,
          "internalType": "address",
          "name": "governanceSettings",
          "type": "address"
        }
      ],
      "name": "GovernedProductionModeEntered",
      "type": "event"
    },
    {
      "anonymous": false,
      "inputs": [],
      "name": "NotAllEscrowsProcessed",
      "type": "event"
    },
    {
      "anonymous": false,
      "inputs": [],
      "name": "Paused",
      "type": "event"
    },
    {
      "anonymous": false,
      "inputs": [
        {
          "indexed": true,
          "internalType": "bytes32",
          "name": "transactionId",
          "type": "bytes32"
        },
        {
          "indexed": false,
          "internalType": "bytes32",
          "name": "paymentReference",
          "type": "bytes32"
        },
        {
          "indexed": false,
          "internalType": "uint256",
          "name": "amount",
          "type": "uint256"
        }
      ],
      "name": "PaymentConfirmed",
      "type": "event"
    },
    {
      "anonymous": false,
      "inputs": [
        {
          "indexed": true,
          "internalType": "uint256",
          "name": "sequence",
          "type": "uint256"
        },
        {
          "indexed": false,
          "internalType": "string",
          "name": "account",
          "type": "string"
        },
        {
          "indexed": false,
          "internalType": "string",
          "name": "destination",
          "type": "string"
        },
        {
          "indexed": false,
          "internalType": "uint256",
          "name": "amount",
          "type": "uint256"
        },
        {
          "indexed": false,
          "internalType": "uint256",
          "name": "fee",
          "type": "uint256"
        },
        {
          "indexed": false,
          "internalType": "bytes32",
          "name": "paymentReference",
          "type": "bytes32"
        }
      ],
      "name": "PaymentInstructions",
      "type": "event"
    },
    {
      "anonymous": false,
      "inputs": [
        {
          "indexed": false,
          "internalType": "bytes32",
          "name": "preimageHash",
          "type": "bytes32"
        }
      ],
      "name": "PreimageHashAdded",
      "type": "event"
    },
    {
      "anonymous": false,
      "inputs": [
        {
          "indexed": false,
          "internalType": "uint256",
          "name": "escrowEndTimeSeconds",
          "type": "uint256"
        },
        {
          "indexed": false,
          "internalType": "uint256",
          "name": "escrowAmount",
          "type": "uint256"
        },
        {
          "indexed": false,
          "internalType": "uint256",
          "name": "minimalAmount",
          "type": "uint256"
        },
        {
          "indexed": false,
          "internalType": "uint256",
          "name": "fee",
          "type": "uint256"
        }
      ],
      "name": "SettingsUpdated",
      "type": "event"
    },
    {
      "anonymous": false,
      "inputs": [
        {
          "indexed": false,
          "internalType": "bytes32",
          "name": "encodedCallHash",
          "type": "bytes32"
        }
      ],
      "name": "TimelockedGovernanceCallCanceled",
      "type": "event"
    },
    {
      "anonymous": false,
      "inputs": [
        {
          "indexed": false,
          "internalType": "bytes32",
          "name": "encodedCallHash",
          "type": "bytes32"
        }
      ],
      "name": "TimelockedGovernanceCallExecuted",
      "type": "event"
    },
    {
      "anonymous": false,
      "inputs": [
        {
          "indexed": false,
          "internalType": "string",
          "name": "destinationAddress",
          "type": "string"
        },
        {
          "indexed": false,
          "internalType": "bytes32",
          "name": "paymentReference",
          "type": "bytes32"
        },
        {
          "indexed": false,
          "internalType": "uint256",
          "name": "amount",
          "type": "uint256"
        }
      ],
      "name": "TransferRequestCanceled",
      "type": "event"
    },
    {
      "anonymous": false,
      "inputs": [
        {
          "indexed": false,
          "internalType": "string",
          "name": "destinationAddress",
          "type": "string"
        },
        {
          "indexed": false,
          "internalType": "bytes32",
          "name": "paymentReference",
          "type": "bytes32"
        },
        {
          "indexed": false,
          "internalType": "uint256",
          "name": "amount",
          "type": "uint256"
        },
        {
          "indexed": false,
          "internalType": "bool",
          "name": "cancelable",
          "type": "bool"
        }
      ],
      "name": "TransferRequested",
      "type": "event"
    },
    {
      "anonymous": false,
      "inputs": [
        {
          "indexed": false,
          "internalType": "address",
          "name": "triggeringAccount",
          "type": "address"
        }
      ],
      "name": "TriggeringAccountAdded",
      "type": "event"
    },
    {
      "anonymous": false,
      "inputs": [
        {
          "indexed": false,
          "internalType": "address",
          "name": "triggeringAccount",
          "type": "address"
        }
      ],
      "name": "TriggeringAccountRemoved",
      "type": "event"
    },
    {
      "anonymous": false,
      "inputs": [],
      "name": "Unpaused",
      "type": "event"
    },
    {
      "anonymous": false,
      "inputs": [
        {
          "indexed": false,
          "internalType": "bytes32",
          "name": "preimageHash",
          "type": "bytes32"
        }
      ],
      "name": "UnusedPreimageHashRemoved",
      "type": "event"
    },
    {
      "anonymous": false,
      "inputs": [
        {
          "indexed": true,
          "internalType": "address",
          "name": "implementation",
          "type": "address"
        }
      ],
      "name": "Upgraded",
      "type": "event"
    },
    {
      "inputs": [
        {
          "internalType": "string[]",
          "name": "_allowedDestinationAddresses",
          "type": "string[]"
        }
      ],
      "name": "addAllowedDestinationAddresses",
      "outputs": [],
      "stateMutability": "nonpayable",
      "type": "function"
    },
    {
      "inputs": [
        {
          "internalType": "address[]",
          "name": "_addresses",
          "type": "address[]"
        }
      ],
      "name": "addEmergencyPauseSenders",
      "outputs": [],
      "stateMutability": "nonpayable",
      "type": "function"
    },
    {
      "inputs": [
        {
          "internalType": "bytes32[]",
          "name": "_preimageHashes",
          "type": "bytes32[]"
        }
      ],
      "name": "addPreimageHashes",
      "outputs": [],
      "stateMutability": "nonpayable",
      "type": "function"
    },
    {
      "inputs": [
        {
          "internalType": "address[]",
          "name": "_triggeringAccounts",
          "type": "address[]"
        }
      ],
      "name": "addTriggeringAccounts",
      "outputs": [],
      "stateMutability": "nonpayable",
      "type": "function"
    },
    {
      "inputs": [],
      "name": "assetManager",
      "outputs": [
        {
          "internalType": "address",
          "name": "",
          "type": "address"
        }
      ],
      "stateMutability": "view",
      "type": "function"
    },
    {
      "inputs": [],
      "name": "availableFunds",
      "outputs": [
        {
          "internalType": "uint128",
          "name": "",
          "type": "uint128"
        }
      ],
      "stateMutability": "view",
      "type": "function"
    },
    {
      "inputs": [
        {
          "internalType": "bytes",
          "name": "_encodedCall",
          "type": "bytes"
        }
      ],
      "name": "cancelGovernanceCall",
      "outputs": [],
      "stateMutability": "nonpayable",
      "type": "function"
    },
    {
      "inputs": [
        {
          "internalType": "string",
          "name": "_destinationAddress",
          "type": "string"
        }
      ],
      "name": "cancelTransferRequestFromCoreVault",
      "outputs": [],
      "stateMutability": "nonpayable",
      "type": "function"
    },
    {
      "inputs": [],
      "name": "chainId",
      "outputs": [
        {
          "internalType": "bytes32",
          "name": "",
          "type": "bytes32"
        }
      ],
      "stateMutability": "view",
      "type": "function"
    },
    {
      "inputs": [
        {
          "components": [
            {
              "internalType": "bytes32[]",
              "name": "merkleProof",
              "type": "bytes32[]"
            },
            {
              "components": [
                {
                  "internalType": "bytes32",
                  "name": "attestationType",
                  "type": "bytes32"
                },
                {
                  "internalType": "bytes32",
                  "name": "sourceId",
                  "type": "bytes32"
                },
                {
                  "internalType": "uint64",
                  "name": "votingRound",
                  "type": "uint64"
                },
                {
                  "internalType": "uint64",
                  "name": "lowestUsedTimestamp",
                  "type": "uint64"
                },
                {
                  "components": [
                    {
                      "internalType": "bytes32",
                      "name": "transactionId",
                      "type": "bytes32"
                    },
                    {
                      "internalType": "uint256",
                      "name": "inUtxo",
                      "type": "uint256"
                    },
                    {
                      "internalType": "uint256",
                      "name": "utxo",
                      "type": "uint256"
                    }
                  ],
                  "internalType": "struct IPayment.RequestBody",
                  "name": "requestBody",
                  "type": "tuple"
                },
                {
                  "components": [
                    {
                      "internalType": "uint64",
                      "name": "blockNumber",
                      "type": "uint64"
                    },
                    {
                      "internalType": "uint64",
                      "name": "blockTimestamp",
                      "type": "uint64"
                    },
                    {
                      "internalType": "bytes32",
                      "name": "sourceAddressHash",
                      "type": "bytes32"
                    },
                    {
                      "internalType": "bytes32",
                      "name": "sourceAddressesRoot",
                      "type": "bytes32"
                    },
                    {
                      "internalType": "bytes32",
                      "name": "receivingAddressHash",
                      "type": "bytes32"
                    },
                    {
                      "internalType": "bytes32",
                      "name": "intendedReceivingAddressHash",
                      "type": "bytes32"
                    },
                    {
                      "internalType": "int256",
                      "name": "spentAmount",
                      "type": "int256"
                    },
                    {
                      "internalType": "int256",
                      "name": "intendedSpentAmount",
                      "type": "int256"
                    },
                    {
                      "internalType": "int256",
                      "name": "receivedAmount",
                      "type": "int256"
                    },
                    {
                      "internalType": "int256",
                      "name": "intendedReceivedAmount",
                      "type": "int256"
                    },
                    {
                      "internalType": "bytes32",
                      "name": "standardPaymentReference",
                      "type": "bytes32"
                    },
                    {
                      "internalType": "bool",
                      "name": "oneToOne",
                      "type": "bool"
                    },
                    {
                      "internalType": "uint8",
                      "name": "status",
                      "type": "uint8"
                    }
                  ],
                  "internalType": "struct IPayment.ResponseBody",
                  "name": "responseBody",
                  "type": "tuple"
                }
              ],
              "internalType": "struct IPayment.Response",
              "name": "data",
              "type": "tuple"
            }
          ],
          "internalType": "struct IPayment.Proof",
          "name": "_proof",
          "type": "tuple"
        }
      ],
      "name": "confirmPayment",
      "outputs": [],
      "stateMutability": "nonpayable",
      "type": "function"
    },
    {
      "inputs": [
        {
          "internalType": "bytes32",
          "name": "transactionId",
          "type": "bytes32"
        }
      ],
      "name": "confirmedPayments",
      "outputs": [
        {
          "internalType": "bool",
          "name": "",
          "type": "bool"
        }
      ],
      "stateMutability": "view",
      "type": "function"
    },
    {
      "inputs": [],
      "name": "coreVaultAddress",
      "outputs": [
        {
          "internalType": "string",
          "name": "",
          "type": "string"
        }
      ],
      "stateMutability": "view",
      "type": "function"
    },
    {
      "inputs": [],
      "name": "coreVaultAddressHash",
      "outputs": [
        {
          "internalType": "bytes32",
          "name": "",
          "type": "bytes32"
        }
      ],
      "stateMutability": "view",
      "type": "function"
    },
    {
      "inputs": [],
      "name": "custodianAddress",
      "outputs": [
        {
          "internalType": "string",
          "name": "",
          "type": "string"
        }
      ],
      "stateMutability": "view",
      "type": "function"
    },
    {
      "inputs": [],
      "name": "escrowedFunds",
      "outputs": [
        {
          "internalType": "uint128",
          "name": "",
          "type": "uint128"
        }
      ],
      "stateMutability": "view",
      "type": "function"
    },
    {
      "inputs": [
        {
          "internalType": "bytes",
          "name": "_encodedCall",
          "type": "bytes"
        }
      ],
      "name": "executeGovernanceCall",
      "outputs": [],
      "stateMutability": "nonpayable",
      "type": "function"
    },
    {
      "inputs": [],
      "name": "fdcVerification",
      "outputs": [
        {
          "internalType": "contract IFdcVerification",
          "name": "",
          "type": "address"
        }
      ],
      "stateMutability": "view",
      "type": "function"
    },
    {
      "inputs": [],
      "name": "getAddressUpdater",
      "outputs": [
        {
          "internalType": "address",
          "name": "_addressUpdater",
          "type": "address"
        }
      ],
      "stateMutability": "view",
      "type": "function"
    },
    {
      "inputs": [],
      "name": "getAllowedDestinationAddresses",
      "outputs": [
        {
          "internalType": "string[]",
          "name": "",
          "type": "string[]"
        }
      ],
      "stateMutability": "view",
      "type": "function"
    },
    {
      "inputs": [],
      "name": "getCancelableTransferRequests",
      "outputs": [
        {
          "components": [
            {
              "internalType": "string",
              "name": "destinationAddress",
              "type": "string"
            },
            {
              "internalType": "bytes32",
              "name": "paymentReference",
              "type": "bytes32"
            },
            {
              "internalType": "uint128",
              "name": "amount",
              "type": "uint128"
            }
          ],
          "internalType": "struct ICoreVaultManager.TransferRequest[]",
          "name": "_transferRequests",
          "type": "tuple[]"
        }
      ],
      "stateMutability": "view",
      "type": "function"
    },
    {
      "inputs": [],
      "name": "getEmergencyPauseSenders",
      "outputs": [
        {
          "internalType": "address[]",
          "name": "",
          "type": "address[]"
        }
      ],
      "stateMutability": "view",
      "type": "function"
    },
    {
      "inputs": [
        {
          "internalType": "uint256",
          "name": "_index",
          "type": "uint256"
        }
      ],
      "name": "getEscrowByIndex",
      "outputs": [
        {
          "components": [
            {
              "internalType": "bytes32",
              "name": "preimageHash",
              "type": "bytes32"
            },
            {
              "internalType": "uint128",
              "name": "amount",
              "type": "uint128"
            },
            {
              "internalType": "uint64",
              "name": "expiryTs",
              "type": "uint64"
            },
            {
              "internalType": "bool",
              "name": "finished",
              "type": "bool"
            }
          ],
          "internalType": "struct ICoreVaultManager.Escrow",
          "name": "",
          "type": "tuple"
        }
      ],
      "stateMutability": "view",
      "type": "function"
    },
    {
      "inputs": [
        {
          "internalType": "bytes32",
          "name": "_preimageHash",
          "type": "bytes32"
        }
      ],
      "name": "getEscrowByPreimageHash",
      "outputs": [
        {
          "components": [
            {
              "internalType": "bytes32",
              "name": "preimageHash",
              "type": "bytes32"
            },
            {
              "internalType": "uint128",
              "name": "amount",
              "type": "uint128"
            },
            {
              "internalType": "uint64",
              "name": "expiryTs",
              "type": "uint64"
            },
            {
              "internalType": "bool",
              "name": "finished",
              "type": "bool"
            }
          ],
          "internalType": "struct ICoreVaultManager.Escrow",
          "name": "",
          "type": "tuple"
        }
      ],
      "stateMutability": "view",
      "type": "function"
    },
    {
      "inputs": [],
      "name": "getEscrowsCount",
      "outputs": [
        {
          "internalType": "uint256",
          "name": "",
          "type": "uint256"
        }
      ],
      "stateMutability": "view",
      "type": "function"
    },
    {
      "inputs": [],
      "name": "getNonCancelableTransferRequests",
      "outputs": [
        {
          "components": [
            {
              "internalType": "string",
              "name": "destinationAddress",
              "type": "string"
            },
            {
              "internalType": "bytes32",
              "name": "paymentReference",
              "type": "bytes32"
            },
            {
              "internalType": "uint128",
              "name": "amount",
              "type": "uint128"
            }
          ],
          "internalType": "struct ICoreVaultManager.TransferRequest[]",
          "name": "_transferRequests",
          "type": "tuple[]"
        }
      ],
      "stateMutability": "view",
      "type": "function"
    },
    {
      "inputs": [
        {
          "internalType": "uint256",
          "name": "_index",
          "type": "uint256"
        }
      ],
      "name": "getPreimageHash",
      "outputs": [
        {
          "internalType": "bytes32",
          "name": "",
          "type": "bytes32"
        }
      ],
      "stateMutability": "view",
      "type": "function"
    },
    {
      "inputs": [],
      "name": "getPreimageHashesCount",
      "outputs": [
        {
          "internalType": "uint256",
          "name": "",
          "type": "uint256"
        }
      ],
      "stateMutability": "view",
      "type": "function"
    },
    {
      "inputs": [],
      "name": "getSettings",
      "outputs": [
        {
          "internalType": "uint128",
          "name": "_escrowEndTimeSeconds",
          "type": "uint128"
        },
        {
          "internalType": "uint128",
          "name": "_escrowAmount",
          "type": "uint128"
        },
        {
          "internalType": "uint128",
          "name": "_minimalAmount",
          "type": "uint128"
        },
        {
          "internalType": "uint128",
          "name": "_fee",
          "type": "uint128"
        }
      ],
      "stateMutability": "view",
      "type": "function"
    },
    {
      "inputs": [],
      "name": "getTriggeringAccounts",
      "outputs": [
        {
          "internalType": "address[]",
          "name": "",
          "type": "address[]"
        }
      ],
      "stateMutability": "view",
      "type": "function"
    },
    {
      "inputs": [],
      "name": "getUnprocessedEscrows",
      "outputs": [
        {
          "components": [
            {
              "internalType": "bytes32",
              "name": "preimageHash",
              "type": "bytes32"
            },
            {
              "internalType": "uint128",
              "name": "amount",
              "type": "uint128"
            },
            {
              "internalType": "uint64",
              "name": "expiryTs",
              "type": "uint64"
            },
            {
              "internalType": "bool",
              "name": "finished",
              "type": "bool"
            }
          ],
          "internalType": "struct ICoreVaultManager.Escrow[]",
          "name": "_unprocessedEscrows",
          "type": "tuple[]"
        }
      ],
      "stateMutability": "view",
      "type": "function"
    },
    {
      "inputs": [],
      "name": "getUnusedPreimageHashes",
      "outputs": [
        {
          "internalType": "bytes32[]",
          "name": "",
          "type": "bytes32[]"
        }
      ],
      "stateMutability": "view",
      "type": "function"
    },
    {
      "inputs": [],
      "name": "governance",
      "outputs": [
        {
          "internalType": "address",
          "name": "",
          "type": "address"
        }
      ],
      "stateMutability": "view",
      "type": "function"
    },
    {
      "inputs": [],
      "name": "governanceSettings",
      "outputs": [
        {
          "internalType": "contract IGovernanceSettings",
          "name": "",
          "type": "address"
        }
      ],
      "stateMutability": "view",
      "type": "function"
    },
    {
      "inputs": [
        {
          "internalType": "contract IGovernanceSettings",
          "name": "_governanceSettings",
          "type": "address"
        },
        {
          "internalType": "address",
          "name": "_initialGovernance",
          "type": "address"
        }
      ],
      "name": "initialise",
      "outputs": [],
      "stateMutability": "nonpayable",
      "type": "function"
    },
    {
      "inputs": [
        {
          "internalType": "contract IGovernanceSettings",
          "name": "_governanceSettings",
          "type": "address"
        },
        {
          "internalType": "address",
          "name": "_initialGovernance",
          "type": "address"
        },
        {
          "internalType": "address",
          "name": "_addressUpdater",
          "type": "address"
        },
        {
          "internalType": "address",
          "name": "_assetManager",
          "type": "address"
        },
        {
          "internalType": "bytes32",
          "name": "_chainId",
          "type": "bytes32"
        },
        {
          "internalType": "string",
          "name": "_custodianAddress",
          "type": "string"
        },
        {
          "internalType": "string",
          "name": "_coreVaultAddress",
          "type": "string"
        },
        {
          "internalType": "uint256",
          "name": "_nextSequenceNumber",
          "type": "uint256"
        }
      ],
      "name": "initialize",
      "outputs": [],
      "stateMutability": "nonpayable",
      "type": "function"
    },
    {
      "inputs": [
        {
          "internalType": "string",
          "name": "_address",
          "type": "string"
        }
      ],
      "name": "isDestinationAddressAllowed",
      "outputs": [
        {
          "internalType": "bool",
          "name": "",
          "type": "bool"
        }
      ],
      "stateMutability": "view",
      "type": "function"
    },
    {
      "inputs": [
        {
          "internalType": "address",
          "name": "_address",
          "type": "address"
        }
      ],
      "name": "isExecutor",
      "outputs": [
        {
          "internalType": "bool",
          "name": "",
          "type": "bool"
        }
      ],
      "stateMutability": "view",
      "type": "function"
    },
    {
      "inputs": [],
      "name": "nextSequenceNumber",
      "outputs": [
        {
          "internalType": "uint256",
          "name": "",
          "type": "uint256"
        }
      ],
      "stateMutability": "view",
      "type": "function"
    },
    {
      "inputs": [],
      "name": "nextUnprocessedEscrowIndex",
      "outputs": [
        {
          "internalType": "uint256",
          "name": "",
          "type": "uint256"
        }
      ],
      "stateMutability": "view",
      "type": "function"
    },
    {
      "inputs": [],
      "name": "nextUnusedPreimageHashIndex",
      "outputs": [
        {
          "internalType": "uint256",
          "name": "",
          "type": "uint256"
        }
      ],
      "stateMutability": "view",
      "type": "function"
    },
    {
      "inputs": [],
      "name": "pause",
      "outputs": [],
      "stateMutability": "nonpayable",
      "type": "function"
    },
    {
      "inputs": [],
      "name": "paused",
      "outputs": [
        {
          "internalType": "bool",
          "name": "",
          "type": "bool"
        }
      ],
      "stateMutability": "view",
      "type": "function"
    },
    {
      "inputs": [
        {
          "internalType": "uint256",
          "name": "_maxCount",
          "type": "uint256"
        }
      ],
      "name": "processEscrows",
      "outputs": [
        {
          "internalType": "bool",
          "name": "",
          "type": "bool"
        }
      ],
      "stateMutability": "nonpayable",
      "type": "function"
    },
    {
      "inputs": [],
      "name": "productionMode",
      "outputs": [
        {
          "internalType": "bool",
          "name": "",
          "type": "bool"
        }
      ],
      "stateMutability": "view",
      "type": "function"
    },
    {
      "inputs": [],
      "name": "proxiableUUID",
      "outputs": [
        {
          "internalType": "bytes32",
          "name": "",
          "type": "bytes32"
        }
      ],
      "stateMutability": "view",
      "type": "function"
    },
    {
      "inputs": [
        {
          "internalType": "string[]",
          "name": "_allowedDestinationAddresses",
          "type": "string[]"
        }
      ],
      "name": "removeAllowedDestinationAddresses",
      "outputs": [],
      "stateMutability": "nonpayable",
      "type": "function"
    },
    {
      "inputs": [
        {
          "internalType": "address[]",
          "name": "_addresses",
          "type": "address[]"
        }
      ],
      "name": "removeEmergencyPauseSenders",
      "outputs": [],
      "stateMutability": "nonpayable",
      "type": "function"
    },
    {
      "inputs": [
        {
          "internalType": "address[]",
          "name": "_triggeringAccounts",
          "type": "address[]"
        }
      ],
      "name": "removeTriggeringAccounts",
      "outputs": [],
      "stateMutability": "nonpayable",
      "type": "function"
    },
    {
      "inputs": [
        {
          "internalType": "uint256",
          "name": "_maxCount",
          "type": "uint256"
        }
      ],
      "name": "removeUnusedPreimageHashes",
      "outputs": [],
      "stateMutability": "nonpayable",
      "type": "function"
    },
    {
      "inputs": [
        {
          "internalType": "string",
          "name": "_destinationAddress",
          "type": "string"
        },
        {
          "internalType": "bytes32",
          "name": "_paymentReference",
          "type": "bytes32"
        },
        {
          "internalType": "uint128",
          "name": "_amount",
          "type": "uint128"
        },
        {
          "internalType": "bool",
          "name": "_cancelable",
          "type": "bool"
        }
      ],
      "name": "requestTransferFromCoreVault",
      "outputs": [],
      "stateMutability": "nonpayable",
      "type": "function"
    },
    {
      "inputs": [
        {
          "internalType": "bytes32[]",
          "name": "_preimageHashes",
          "type": "bytes32[]"
        }
      ],
      "name": "setEscrowsFinished",
      "outputs": [],
      "stateMutability": "nonpayable",
      "type": "function"
    },
    {
      "inputs": [
        {
          "internalType": "bytes4",
          "name": "_interfaceId",
          "type": "bytes4"
        }
      ],
      "name": "supportsInterface",
      "outputs": [
        {
          "internalType": "bool",
          "name": "",
          "type": "bool"
        }
      ],
      "stateMutability": "pure",
      "type": "function"
    },
    {
      "inputs": [],
      "name": "switchToProductionMode",
      "outputs": [],
      "stateMutability": "nonpayable",
      "type": "function"
    },
    {
      "inputs": [],
      "name": "totalRequestAmountWithFee",
      "outputs": [
        {
          "internalType": "uint256",
          "name": "",
          "type": "uint256"
        }
      ],
      "stateMutability": "view",
      "type": "function"
    },
    {
      "inputs": [],
      "name": "triggerInstructions",
      "outputs": [],
      "stateMutability": "nonpayable",
      "type": "function"
    },
    {
      "inputs": [],
      "name": "unpause",
      "outputs": [],
      "stateMutability": "nonpayable",
      "type": "function"
    },
    {
      "inputs": [
        {
          "internalType": "bytes32[]",
          "name": "_contractNameHashes",
          "type": "bytes32[]"
        },
        {
          "internalType": "address[]",
          "name": "_contractAddresses",
          "type": "address[]"
        }
      ],
      "name": "updateContractAddresses",
      "outputs": [],
      "stateMutability": "nonpayable",
      "type": "function"
    },
    {
      "inputs": [
        {
          "internalType": "string",
          "name": "_custodianAddress",
          "type": "string"
        }
      ],
      "name": "updateCustodianAddress",
      "outputs": [],
      "stateMutability": "nonpayable",
      "type": "function"
    },
    {
      "inputs": [
        {
          "internalType": "uint128",
          "name": "_escrowEndTimeSeconds",
          "type": "uint128"
        },
        {
          "internalType": "uint128",
          "name": "_escrowAmount",
          "type": "uint128"
        },
        {
          "internalType": "uint128",
          "name": "_minimalAmount",
          "type": "uint128"
        },
        {
          "internalType": "uint128",
          "name": "_fee",
          "type": "uint128"
        }
      ],
      "name": "updateSettings",
      "outputs": [],
      "stateMutability": "nonpayable",
      "type": "function"
    },
    {
      "inputs": [
        {
          "internalType": "address",
          "name": "newImplementation",
          "type": "address"
        }
      ],
      "name": "upgradeTo",
      "outputs": [],
      "stateMutability": "nonpayable",
      "type": "function"
    },
    {
      "inputs": [
        {
          "internalType": "address",
          "name": "newImplementation",
          "type": "address"
        },
        {
          "internalType": "bytes",
          "name": "data",
          "type": "bytes"
        }
      ],
      "name": "upgradeToAndCall",
      "outputs": [],
      "stateMutability": "payable",
      "type": "function"
    }
  ],
  "bytecode": "0x60a0604052306080523480156200001557600080fd5b506000620000266111118062000056565b6200004f817f714f205b2abd25bef1d06a1af944e38c113fe6160375c4e1d6d5cf28848e771955565b50620001ef565b7f2aa47ee5db910f3b2a06970c443249cc77dbd9f96100cfebc1775ab7fb1d18248054600160a01b900460ff1615620000d65760405162461bcd60e51b815260206004820152601460248201527f696e697469616c6973656420213d2066616c736500000000000000000000000060448201526064015b60405180910390fd5b6001600160a01b0383166200012e5760405162461bcd60e51b815260206004820152601860248201527f676f7665726e616e63652073657474696e6773207a65726f00000000000000006044820152606401620000cd565b6001600160a01b038216620001795760405162461bcd60e51b815260206004820152601060248201526f5f676f7665726e616e6365207a65726f60801b6044820152606401620000cd565b80546001600160a01b038481166001600160a81b031990921691909117600160a01b1782556001820180549184166001600160a01b0319909216821790556040519081527f9789733827840833afc031fb2ef9ab6894271f77bad2085687cf4ae5c7bee4db9060200160405180910390a1505050565b608051615f80620002276000396000818161114901528181611189015281816114ce0152818161150e01526116b60152615f806000f3fe6080604052600436106103a25760003560e01c806371c1f751116101e7578063a90353251161010d578063e17f212e116100a0578063f0ec77fa1161006f578063f0ec77fa14610aba578063f5a9838314610ae1578063f9fe1f1c14610af6578063faee475314610b1657600080fd5b8063e17f212e14610a39578063e9a730f914610a65578063ea53fe1314610a7a578063ef88bf1314610a9a57600080fd5b8063c9febdf5116100dc578063c9febdf5146109c3578063d074bd7e146109d9578063da3422ee146109f9578063debfda3014610a1957600080fd5b8063a90353251461094e578063b00c0b761461096e578063b805c6381461098e578063b9cbea3b146109ae57600080fd5b806394217ad111610185578063a2c7427511610154578063a2c74275146108e3578063a609687b146108f9578063a625988b14610919578063a66e4e5f1461093957600080fd5b806394217ad11461087857806398ca4f78146108985780639a8a0592146108ad578063a0a62630146108c357600080fd5b80638456cb59116101c15780638456cb59146107de57806385b4bb53146107f35780638dfb4a901461084357806392fa95861461086357600080fd5b806371c1f7511461077c57806372f089d61461079c5780637a1077ea146107bc57600080fd5b806349820f2f116102cc5780635a3a9d6b1161026a57806362974d4d1161023957806362974d4d14610704578063664e841d146107265780636b97900d1461073c5780636d3d2ca81461075c57600080fd5b80635a3a9d6b146106935780635aa6e675146106c05780635c975abb146106d557806362354e03146106ef57600080fd5b80635267a15d116102a65780635267a15d1461062657806352d1902d1461064857806356cd13c91461065d5780635a0da8551461067d57600080fd5b806349820f2f146105dc5780634f1ef286146105f15780634f1f612e1461060457600080fd5b80632b656fef116103445780633b42ae10116103135780633b42ae101461054d5780633c7cd9c51461056f5780633f4ba83a1461058f57806346fcff4c146105a457600080fd5b80632b656fef146104a55780633659cfe6146104c557806337ac744e146104e55780633ad6d5161461051557600080fd5b806316fc2f6d1161038057806316fc2f6d146104205780631c073f081461044057806320c5f99d146104625780632428927a1461048257600080fd5b806301ffc9a7146103a75780630fcc6f8d146103dc578063108cca7a146103fe575b600080fd5b3480156103b357600080fd5b506103c76103c2366004614cf8565b610b36565b60405190151581526020015b60405180910390f35b3480156103e857600080fd5b506103fc6103f7366004614df4565b610b88565b005b34801561040a57600080fd5b50610413610ce1565b6040516103d39190614eb5565b34801561042c57600080fd5b506103fc61043b366004614f4a565b610cf2565b34801561044c57600080fd5b50610455610dd5565b6040516103d39190614fdb565b34801561046e57600080fd5b506103fc61047d366004614f4a565b610eae565b34801561048e57600080fd5b5061049761109d565b6040519081526020016103d3565b3480156104b157600080fd5b506103c76104c036600461503f565b611100565b3480156104d157600080fd5b506103fc6104e0366004615073565b61112a565b3480156104f157600080fd5b506103c7610500366004615090565b60076020526000908152604090205460ff1681565b34801561052157600080fd5b50600654610535906001600160a01b031681565b6040516001600160a01b0390911681526020016103d3565b34801561055957600080fd5b5061056261120b565b6040516103d391906150a9565b34801561057b57600080fd5b506103fc61058a366004615179565b611399565b34801561059b57600080fd5b506103fc611472565b3480156105b057600080fd5b50601a546105c4906001600160801b031681565b6040516001600160801b0390911681526020016103d3565b3480156105e857600080fd5b50600a54610497565b6103fc6105ff3660046151ae565b6114af565b34801561061057600080fd5b50610619611570565b6040516103d3919061524b565b34801561063257600080fd5b50600080516020615ec483398151915254610535565b34801561065457600080fd5b506104976116a9565b34801561066957600080fd5b506103fc610678366004615179565b61175c565b34801561068957600080fd5b50610497600d5481565b34801561069f57600080fd5b506106b36106ae366004615090565b611812565b6040516103d3919061528d565b3480156106cc57600080fd5b506105356118ac565b3480156106e157600080fd5b50601c546103c79060ff1681565b3480156106fb57600080fd5b50610535611955565b34801561071057600080fd5b50610719611976565b6040516103d3919061529b565b34801561073257600080fd5b5061049760055481565b34801561074857600080fd5b506103fc610757366004615090565b611a29565b34801561076857600080fd5b506103fc6107773660046152d3565b611ac8565b34801561078857600080fd5b506103fc610797366004615179565b611d64565b3480156107a857600080fd5b506103fc6107b7366004615179565b611f05565b3480156107c857600080fd5b506107d1611fc8565b6040516103d3919061530e565b3480156107ea57600080fd5b506103fc612056565b3480156107ff57600080fd5b50601854601954604080516001600160801b038085168252600160801b948590048116602083015280841692820192909252929091041660608201526080016103d3565b34801561084f57600080fd5b5061049761085e366004615090565b6120f8565b34801561086f57600080fd5b50610413612105565b34801561088457600080fd5b50600054610535906001600160a01b031681565b3480156108a457600080fd5b50610562612111565b3480156108b957600080fd5b5061049760015481565b3480156108cf57600080fd5b506106b36108de366004615090565b61229b565b3480156108ef57600080fd5b50610497600c5481565b34801561090557600080fd5b506103fc610914366004615338565b612329565b34801561092557600080fd5b506103fc610934366004614f4a565b612459565b34801561094557600080fd5b506107d16124d6565b34801561095a57600080fd5b506103fc61096936600461503f565b6124e3565b34801561097a57600080fd5b506103fc610989366004615427565b6127b9565b34801561099a57600080fd5b506103fc6109a93660046154ee565b612870565b3480156109ba57600080fd5b506103fc612d64565b3480156109cf57600080fd5b5061049760035481565b3480156109e557600080fd5b506103c76109f4366004615090565b613659565b348015610a0557600080fd5b506103fc610a14366004615179565b613664565b348015610a2557600080fd5b506103c7610a34366004615073565b613764565b348015610a4557600080fd5b50600080516020615f2b83398151915254600160a81b900460ff166103c7565b348015610a7157600080fd5b506104976137fe565b348015610a8657600080fd5b506103fc610a95366004615179565b61380a565b348015610aa657600080fd5b506103fc610ab5366004615557565b613a73565b348015610ac657600080fd5b50601a546105c490600160801b90046001600160801b031681565b348015610aed57600080fd5b506103fc613be7565b348015610b0257600080fd5b506103fc610b11366004615179565b613cbb565b348015610b2257600080fd5b506103fc610b31366004615179565b613d71565b60006001600160e01b031982166301ffc9a760e01b1480610b6757506001600160e01b0319821663580605bb60e11b145b80610b8257506001600160e01b03198216631106951d60e01b145b92915050565b6001600160a01b038516610bb75760405162461bcd60e51b8152600401610bae90615590565b60405180910390fd5b83610bf45760405162461bcd60e51b815260206004820152600d60248201526c34b73b30b634b21031b430b4b760991b6044820152606401610bae565b6000835111610c155760405162461bcd60e51b8152600401610bae90615590565b6000825111610c365760405162461bcd60e51b8152600401610bae90615590565b610c408888613a73565b610c5686600080516020615ec483398151915255565b600080546001600160a01b0319166001600160a01b03871617905560018490556002610c82848261563b565b50815160208301206003556004610c99838261563b565b5060058190556040517f2b9f127cf369b3d4cb5d54b96a2f4c08fc9224ad91ce66e48e8a0a4073741bc390610ccf90859061530e565b60405180910390a15050505050505050565b6060610ced6014613f11565b905090565b610cfa613f1e565b604051600080516020615f2b83398151915290600090610d1d90859085906156fa565b6040518091039020905081600201600082815260200190815260200160002054600003610d8c5760405162461bcd60e51b815260206004820152601a60248201527f74696d656c6f636b3a20696e76616c69642073656c6563746f720000000000006044820152606401610bae565b6040518181527f69b058d6225c01c1f2a25801ca5b05705fa2e9118e93d518390ba804398c87b19060200160405180910390a16000908152600290910160205260408120555050565b60606012805480602002602001604051908101604052809291908181526020016000905b82821015610ea5578382906000526020600020018054610e18906155b9565b80601f0160208091040260200160405190810160405280929190818152602001828054610e44906155b9565b8015610e915780601f10610e6657610100808354040283529160200191610e91565b820191906000526020600020905b815481529060010190602001808311610e7457829003601f168201915b505050505081526020019060010190610df9565b50505050905090565b600080516020615f2b833981519152610ec633613764565b610f025760405162461bcd60e51b815260206004820152600d60248201526c37b7363c9032bc32b1baba37b960991b6044820152606401610bae565b60008383604051610f149291906156fa565b60408051918290039091206000818152600285016020529182205490925090819003610f825760405162461bcd60e51b815260206004820152601a60248201527f74696d656c6f636b3a20696e76616c69642073656c6563746f720000000000006044820152606401610bae565b80421015610fd25760405162461bcd60e51b815260206004820152601960248201527f74696d656c6f636b3a206e6f7420616c6c6f77656420796574000000000000006044820152606401610bae565b6000828152600284016020526040808220829055845460ff60b01b1916600160b01b17855551309061100790889088906156fa565b6000604051808303816000865af19150503d8060008114611044576040519150601f19603f3d011682016040523d82523d6000602084013e611049565b606091505b5050845460ff60b01b191685556040518481529091507fec1225e5a8a8acb91e03ce648c683c74f5d152a775b9715980999441d714c44f9060200160405180910390a161109581613f78565b505050505050565b601954601054600f54600092600160801b90046001600160801b0316916110c391615720565b6110cd9190615733565b601b546110ed906001600160801b0380821691600160801b90041661574a565b6001600160801b0316610ced9190615720565b600080601383604051611113919061576a565b908152602001604051809103902054119050919050565b611132613f95565b156111fe5761113f613fcb565b6001600160a01b037f00000000000000000000000000000000000000000000000000000000000000001630036111875760405162461bcd60e51b8152600401610bae90615786565b7f00000000000000000000000000000000000000000000000000000000000000006001600160a01b03166111b961400f565b6001600160a01b0316146111df5760405162461bcd60e51b8152600401610bae906157d2565b604080516000808252602082019092526111fb91839190614025565b50565b6111fb6000366000614190565b600f546060906001600160401b0381111561122857611228614d37565b60405190808252806020026020018201604052801561127357816020015b60408051606080820183528152600060208083018290529282015282526000199092019101816112465790505b50905060005b600f548110156113955760116000600f838154811061129a5761129a61581e565b906000526020600020015481526020019081526020016000206040518060600160405290816000820180546112ce906155b9565b80601f01602080910402602001604051908101604052809291908181526020018280546112fa906155b9565b80156113475780601f1061131c57610100808354040283529160200191611347565b820191906000526020600020905b81548152906001019060200180831161132a57829003601f168201915b5050509183525050600182015460208201526002909101546001600160801b031660409091015282518390839081106113825761138261581e565b6020908102919091010152600101611279565b5090565b6113a1613f95565b15611461576113ae613fcb565b60005b8181101561145c576113eb8383838181106113ce576113ce61581e565b90506020020160208101906113e39190615073565b601490614296565b15611454577f44961db59fc60fd4da640bf1e11a0bcc1e5964fa1412832976c07f75230961068383838181106114235761142361581e565b90506020020160208101906114389190615073565b6040516001600160a01b03909116815260200160405180910390a15b6001016113b1565b505050565b61146e6000366000614190565b5050565b61147a613f1e565b601c805460ff191690556040517fa45f47fdea8a1efdd9029a5691c7f759c32b7c698632b563573e155625d1693390600090a1565b6114b7613f95565b15611461576114c4613fcb565b6001600160a01b037f000000000000000000000000000000000000000000000000000000000000000016300361150c5760405162461bcd60e51b8152600401610bae90615786565b7f00000000000000000000000000000000000000000000000000000000000000006001600160a01b031661153e61400f565b6001600160a01b0316146115645760405162461bcd60e51b8152600401610bae906157d2565b61146e82826001614025565b600d54600a546060916000916115869190615834565b9050806001600160401b038111156115a0576115a0614d37565b6040519080825280602002602001820160405280156115f257816020015b6040805160808101825260008082526020808301829052928201819052606082015282526000199092019101816115be5790505b50915060005b818110156116a457600a81600d546116109190615720565b815481106116205761162061581e565b60009182526020918290206040805160808101825260029390930290910180548352600101546001600160801b03811693830193909352600160801b83046001600160401b031690820152600160c01b90910460ff161515606082015283518490839081106116915761169161581e565b60209081029190910101526001016115f8565b505090565b6000306001600160a01b037f000000000000000000000000000000000000000000000000000000000000000016146117495760405162461bcd60e51b815260206004820152603860248201527f555550535570677261646561626c653a206d757374206e6f742062652063616c60448201527f6c6564207468726f7567682064656c656761746563616c6c00000000000000006064820152608401610bae565b50600080516020615ee483398151915290565b611764613f1e565b60005b8181101561145c576117a18383838181106117845761178461581e565b90506020020160208101906117999190615073565b6016906142ab565b1561180a577f9f8aeb791b3aaf5907baec464ea88b1af7e280cf71d3c18caff2acbc82a2c22d8383838181106117d9576117d961581e565b90506020020160208101906117ee9190615073565b6040516001600160a01b03909116815260200160405180910390a15b600101611767565b604080516080810182526000808252602082018190529181018290526060810191909152600a82815481106118495761184961581e565b60009182526020918290206040805160808101825260029390930290910180548352600101546001600160801b03811693830193909352600160801b83046001600160401b031690820152600160c01b90910460ff161515606082015292915050565b600080516020615f2b833981519152805460009190600160a81b900460ff166118e25760018101546001600160a01b031661194f565b805460408051631cc9492560e21b815290516001600160a01b03909216916373252494916004808201926020929091908290030181865afa15801561192b573d6000803e3d6000fd5b505050506040513d601f19601f8201168201806040525081019061194f9190615847565b91505090565b6000600080516020615f2b8339815191525b546001600160a01b0316919050565b60606000600c5461198760086142c0565b6119919190615834565b90506000816001600160401b038111156119ad576119ad614d37565b6040519080825280602002602001820160405280156119d6578160200160208202803683370190505b50905060005b82811015611a22576119fd81600c546119f59190615720565b6008906142ca565b828281518110611a0f57611a0f61581e565b60209081029190910101526001016119dc565b5092915050565b611a31613f1e565b6000611a3d60086142c0565b90505b600082118015611a515750600c5481115b1561146e576000611a6e611a6483615864565b92506008836142ca565b9050611a7b6008826142d6565b5082611a8681615864565b9350507faa5b497c9e1240353b4326a318841732a45855bab13094f75b10326919ce976f81604051611aba91815260200190565b60405180910390a150611a40565b611ada6102a08201610280830161588c565b60ff1615611b1b5760405162461bcd60e51b815260206004820152600e60248201526d1c185e5b595b9d0819985a5b195960921b6044820152606401610bae565b600154604082013514611b605760405162461bcd60e51b815260206004820152600d60248201526c34b73b30b634b21031b430b4b760991b6044820152606401610bae565b60065460405163a7a3797560e01b81526001600160a01b039091169063a7a3797590611b909084906004016159e8565b602060405180830381865afa158015611bad573d6000803e3d6000fd5b505050506040513d601f19601f82011682018060405250810190611bd19190615a7b565b611c125760405162461bcd60e51b81526020600482015260126024820152711c185e5b595b9d081b9bdd081c1c9bdd995960721b6044820152606401610bae565b60035461018082013514611c595760405162461bcd60e51b815260206004820152600e60248201526d1b9bdd0818dbdc99481d985d5b1d60921b6044820152606401610bae565b600061020082013513611c9f5760405162461bcd60e51b815260206004820152600e60248201526d1a5b9d985b1a5908185b5bdd5b9d60921b6044820152606401610bae565b60a081013560009081526007602052604090205460ff166111fb5760a08101356000908152600760205260408120805460ff19166001179055601a805461020084013592839291611cfa9084906001600160801b031661574a565b82546101009290920a6001600160801b03818102199093169183160217909155604080516102408601358152918416602083015260a085013592507f785b06c3bf892c33bc4741c1a560c56d8491c4074acfe42a5be62cd177dec4cc910160405180910390a25050565b611d6c613f95565b1561146157611d79613fcb565b60005b8181101561145c576000838383818110611d9857611d9861581e565b9050602002810190611daa9190615a98565b905011611dc95760405162461bcd60e51b8152600401610bae90615590565b6013838383818110611ddd57611ddd61581e565b9050602002810190611def9190615a98565b604051611dfd9291906156fa565b908152602001604051809103902054600003611efd576012838383818110611e2757611e2761581e565b9050602002810190611e399190615a98565b82546001810184556000938452602090932090920191611e599183615ade565b506012546013848484818110611e7157611e7161581e565b9050602002810190611e839190615a98565b604051611e919291906156fa565b908152604051908190036020019020557fe576cf96388d010e4c6449ee2ea0d00b4a27a1707aae679f56c50c73b5af6176838383818110611ed457611ed461581e565b9050602002810190611ee69190615a98565b604051611ef4929190615bc7565b60405180910390a15b600101611d7c565b611f0d613f95565b1561146157611f1a613fcb565b60005b8181101561145c57611f57838383818110611f3a57611f3a61581e565b9050602002016020810190611f4f9190615073565b6014906142ab565b15611fc0577f60c19f851be58fab2699cb088c41dfef0034de21546285137aa50b36edf4cdc3838383818110611f8f57611f8f61581e565b9050602002016020810190611fa49190615073565b6040516001600160a01b03909116815260200160405180910390a15b600101611f1d565b60048054611fd5906155b9565b80601f0160208091040260200160405190810160405280929190818152602001828054612001906155b9565b801561204e5780601f106120235761010080835404028352916020019161204e565b820191906000526020600020905b81548152906001019060200180831161203157829003601f168201915b505050505081565b61205e6118ac565b6001600160a01b0316336001600160a01b0316148061208357506120836016336142e2565b6120c05760405162461bcd60e51b815260206004820152600e60248201526d1b9bdd08185d5d1a1bdc9a5e995960921b6044820152606401610bae565b601c805460ff191660011790556040517f9e87fac88ff661f02d44f95383c817fece4bce600a3dab7a54406878b965e75290600090a1565b6000610b826008836142ca565b6060610ced6016613f11565b6010546060906001600160401b0381111561212e5761212e614d37565b60405190808252806020026020018201604052801561217957816020015b604080516060808201835281526000602080830182905292820152825260001990920191018161214c5790505b50905060005b6010548110156113955760116000601083815481106121a0576121a061581e565b906000526020600020015481526020019081526020016000206040518060600160405290816000820180546121d4906155b9565b80601f0160208091040260200160405190810160405280929190818152602001828054612200906155b9565b801561224d5780601f106122225761010080835404028352916020019161224d565b820191906000526020600020905b81548152906001019060200180831161223057829003601f168201915b5050509183525050600182015460208201526002909101546001600160801b031660409091015282518390839081106122885761228861581e565b602090810291909101015260010161217f565b6040805160808101825260008082526020820181905291810182905260608101919091526000828152600b60205260409020546122d781614304565b60408051608081018252825481526001909201546001600160801b0381166020840152600160801b81046001600160401b031691830191909152600160c01b900460ff16151560608201529392505050565b612331613f95565b156124465761233e613fcb565b62015180846001600160801b03161061238c5760405162461bcd60e51b815260206004820152601060248201526f696e76616c696420656e642074696d6560801b6044820152606401610bae565b6000816001600160801b0316116123d05760405162461bcd60e51b8152602060048201526008602482015267666565207a65726f60c01b6044820152606401610bae565b6001600160801b03838116600160801b818102878416908117601855848416918202938616938417601955604080519182526020820193909352808301939093526060830152517fc8dd8a2052a4ea200785e999e2eaeef85c19be170d8cdc0ec51e94589eb4a61b9181900360800190a1612453565b6124536000366000614190565b50505050565b612461613f95565b156114615761246e613fcb565b8061248b5760405162461bcd60e51b8152600401610bae90615590565b6002612498828483615ade565b507f2b9f127cf369b3d4cb5d54b96a2f4c08fc9224ad91ce66e48e8a0a4073741bc382826040516124ca929190615bc7565b60405180910390a15050565b60028054611fd5906155b9565b6124eb61437b565b8051602082012060005b600f548110156125e657600060116000600f84815481106125185761251861581e565b90600052602060002001548152602001908152602001600020600001805461253f906155b9565b80601f016020809104026020016040519081016040528092919081815260200182805461256b906155b9565b80156125b85780601f1061258d576101008083540402835291602001916125b8565b820191906000526020600020905b81548152906001019060200180831161259b57829003601f168201915b50505050509050828180519060200120036125d357506125e6565b816125dd81615bdb565b925050506124f5565b600f54811061262b5760405162461bcd60e51b81526020600482015260116024820152701c995c5d595cdd081b9bdd08199bdd5b99607a1b6044820152606401610bae565b6000600f82815481106126405761264061581e565b60009182526020808320909101548083526011909152604082206002810154601b805493955091936001600160801b039182169384939261268391859116615bf4565b92506101000a8154816001600160801b0302191690836001600160801b031602179055507f8adfda440ffa4621b003393f85ef276a29bf63946200f10ff5d90e83064f5dd9868360010154836040516126de93929190615c14565b60405180910390a15b600f546126f690600190615834565b84101561275657600f61270a856001615720565b8154811061271a5761271a61581e565b9060005260206000200154600f85815481106127385761273861581e565b6000918252602090912001558361274e81615bdb565b9450506126e7565b600f80548061276757612767615c46565b6000828152602080822083016000199081018390559092019092558482526011905260408120906127988282614cae565b506000600182015560020180546001600160801b0319169055505050505050565b600080516020615ec4833981519152546001600160a01b0316336001600160a01b0316146128205760405162461bcd60e51b815260206004820152601460248201527337b7363c9030b2323932b9b9903ab83230ba32b960611b6044820152606401610bae565b61286661285483836040518060400160405280600e81526020016d20b2323932b9b9aab83230ba32b960911b8152506143ca565b600080516020615ec483398151915255565b61146e828261449b565b61287861437b565b6128806144f1565b6000826001600160801b0316116128c75760405162461bcd60e51b815260206004820152600b60248201526a616d6f756e74207a65726f60a81b6044820152606401610bae565b6013846040516128d7919061576a565b9081526020016040518091039020546000036129355760405162461bcd60e51b815260206004820152601760248201527f64657374696e6174696f6e206e6f7420616c6c6f7765640000000000000000006044820152606401610bae565b8351602085012060008215612a705760005b600f548110156129ee57600060116000600f848154811061296a5761296a61581e565b90600052602060002001548152602001908152602001600020905083816000016040516129979190615c5c565b6040518091039020036129e55760405162461bcd60e51b81526020600482015260166024820152757265717565737420616c72656164792065786973747360501b6044820152606401610bae565b50600101612947565b50601b8054859190600090612a0d9084906001600160801b031661574a565b82546001600160801b039182166101009390930a92830291909202199091161790555050600e54600f8054600181810183556000929092527f8d1108e10bcb7c27dddfc02ed9d693a074039d026cf4ea4240b40f7d581ac8020191909155612c0e565b8415612abe5760405162461bcd60e51b815260206004820152601960248201527f696e76616c6964207061796d656e74207265666572656e6365000000000000006044820152606401610bae565b60005b601054811015612b7b5760006011600060108481548110612ae457612ae461581e565b9060005260206000200154815260200190815260200160002090508381600001604051612b119190615c5c565b604051809103902003612b6857600281018054879190600090612b3e9084906001600160801b031661574a565b92506101000a8154816001600160801b0302191690836001600160801b0316021790555050612b7b565b81612b7281615bdb565b92505050612ac1565b84601b60108282829054906101000a90046001600160801b0316612b9f919061574a565b92506101000a8154816001600160801b0302191690836001600160801b031602179055506010805490508103612c0c57600e5460108054600181810183556000929092527f1b6847dc741a1b0cd08d278845f9d819d87b734759afb55fe2de5cb82a9ae672019190915591505b505b6000612c1861109d565b601a54909150612c3a906001600160801b03600160801b82048116911661574a565b6001600160801b0316811115612c875760405162461bcd60e51b8152602060048201526012602482015271696e73756666696369656e742066756e647360701b6044820152606401610bae565b8115612d1e576040518060600160405280888152602001878152602001866001600160801b031681525060116000600e6000815480929190612cc890615bdb565b909155508152602081019190915260400160002081518190612cea908261563b565b5060208201516001820155604090910151600290910180546001600160801b0319166001600160801b039092169190911790555b7fd5ee6afd74a02db8e2aff0882bd64612f6f65fb4e73ed854231a8a088e11d05487878787604051612d539493929190615cd2565b60405180910390a150505050505050565b612d6c6144f1565b612d776014336142e2565b612db45760405162461bcd60e51b815260206004820152600e60248201526d1b9bdd08185d5d1a1bdc9a5e995960921b6044820152606401610bae565b612dbf60001961452d565b50601a546005546019546001600160801b0392831692600160801b9091041680612e165760405162461bcd60e51b8152602060048201526008602482015267666565207a65726f60c01b6044820152606401610bae565b600f54601b54600091906001600160801b03165b818310156130c9576000600f8481548110612e4757612e4761581e565b60009182526020808320909101548083526011909152604090912060020154909150612e7d9086906001600160801b031661574a565b6001600160801b0316876001600160801b0316106130b557600081815260116020526040808220815160608101909252805482908290612ebc906155b9565b80601f0160208091040260200160405190810160405280929190818152602001828054612ee8906155b9565b8015612f355780601f10612f0a57610100808354040283529160200191612f35565b820191906000526020600020905b815481529060010190602001808311612f1857829003601f168201915b5050509183525050600182015460208201526002909101546001600160801b0316604091820152810151909150612f6d90879061574a565b612f779089615bf4565b9750806040015183612f899190615bf4565b925086612f9581615bdb565b97507ff31ace0071134e7898630b99161ff33bd098afdd18429925c1b8fe3703f0d4326004836000015184604001518a8660200151604051612fdb959493929190615d89565b60405180910390a2845b612ff0600186615834565b81101561304657600f613004826001615720565b815481106130145761301461581e565b9060005260206000200154600f82815481106130325761303261581e565b600091825260209091200155600101612fe5565b50600f80548061305857613058615c46565b6000828152602080822083016000199081018390559092019092558382526011905260408120906130898282614cae565b506000600182015560020180546001600160801b0319169055836130ac81615864565b945050506130c3565b836130bf81615bdb565b9450505b50612e2a565b601b80546001600160801b0319166001600160801b039283161790819055601054600094509250600160801b9004165b81831015613398576000601084815481106131165761311661581e565b6000918252602080832090910154808352601190915260409091206002015490915061314c9086906001600160801b031661574a565b6001600160801b0316876001600160801b0316106133845760008181526011602052604080822081516060810190925280548290829061318b906155b9565b80601f01602080910402602001604051908101604052809291908181526020018280546131b7906155b9565b80156132045780601f106131d957610100808354040283529160200191613204565b820191906000526020600020905b8154815290600101906020018083116131e757829003601f168201915b5050509183525050600182015460208201526002909101546001600160801b031660409182015281015190915061323c90879061574a565b6132469089615bf4565b97508060400151836132589190615bf4565b92508661326481615bdb565b97507ff31ace0071134e7898630b99161ff33bd098afdd18429925c1b8fe3703f0d4326004836000015184604001518a86602001516040516132aa959493929190615d89565b60405180910390a2845b6132bf600186615834565b8110156133155760106132d3826001615720565b815481106132e3576132e361581e565b9060005260206000200154601082815481106133015761330161581e565b6000918252602090912001556001016132b4565b50601080548061332757613327615c46565b6000828152602080822083016000199081018390559092019092558382526011905260408120906133588282614cae565b506000600182015560020180546001600160801b03191690558361337b81615864565b94505050613392565b8361338e81615bdb565b9450505b506130f9565b601b80546001600160801b03808416600160801b9081029282169290921790925560185404168015806133cb5750600083115b806133d75750600f5415155b15613407575050601a80546001600160801b0319166001600160801b039690961695909517909455505060055550565b600c5460195460009087906134269085906001600160801b031661574a565b613430919061574a565b6001600160801b0316905061344560086142c0565b601a549095506001600160801b03600160801b909104811694508916811180159061346f57508482105b1561363357600061347e614760565b90505b818a6001600160801b03161015801561349957508583105b1561362c576134a8888561574a565b6134b2908b615bf4565b99506134be848661574a565b945060006134d9846134cf81615bdb565b95506008906142ca565b604080516080810182528281526001600160801b0388811660208084019182526001600160401b03888116858701908152600060608701818152600a805460018101825581845289517fc65a7bb8d6351c1cf70c95a316cc6a92839c986682d98bc35f958f4883f9d2a860029092029182015596517fc65a7bb8d6351c1cf70c95a316cc6a92839c986682d98bc35f958f4883f9d2a9909701805494519251979098166001600160c01b031990941693909317600160801b91909416029290921760ff60c01b1916600160c01b94151594909402939093179093559054858352600b90915292902091909155909150818b6135d381615bdb565b9c507fd16de4df221c5b7206a150305a43a095e5c589acad2201246f144c2ec39eb3be600460028a8f8960405161360e959493929190615dd3565b60405180910390a36136236201518084615e2b565b92505050613481565b50600c8290555b5050506005949094555050506001600160801b03908116600160801b02911617601a555b565b6000610b828261452d565b61366c613f1e565b60005b8181101561145c57600083838381811061368b5761368b61581e565b90506020020135141580156136c757506136c78383838181106136b0576136b061581e565b90506020020135600861488090919063ffffffff16565b61370b5760405162461bcd60e51b81526020600482015260156024820152740d2dcecc2d8d2c840e0e4cad2dac2ceca40d0c2e6d605b1b6044820152606401610bae565b7fcc2040da958ce1e137b3d9e576249e5d4590200e120858f07eeba715773fa4a083838381811061373e5761373e61581e565b9050602002013560405161375491815260200190565b60405180910390a160010161366f565b600080516020615f2b833981519152805460009190600160a01b900460ff1680156137f757508054604051630debfda360e41b81526001600160a01b0385811660048301529091169063debfda3090602401602060405180830381865afa1580156137d3573d6000803e3d6000fd5b505050506040513d601f19601f820116820180604052508101906137f79190615a7b565b9392505050565b6000610ced60086142c0565b613812613f95565b156114615761381f613fcb565b60005b8181101561145c57600060138484848181106138405761384061581e565b90506020028101906138529190615a98565b6040516138609291906156fa565b90815260200160405180910390205490508060000361387f5750613a6b565b601254808210156139985760006012613899600184615834565b815481106138a9576138a961581e565b9060005260206000200180546138be906155b9565b80601f01602080910402602001604051908101604052809291908181526020018280546138ea906155b9565b80156139375780601f1061390c57610100808354040283529160200191613937565b820191906000526020600020905b81548152906001019060200180831161391a57829003601f168201915b5050505050905080601260018561394e9190615834565b8154811061395e5761395e61581e565b906000526020600020019081613974919061563b565b5082601382604051613986919061576a565b90815260405190819003602001902055505b60128054806139a9576139a9615c46565b6001900381819060005260206000200160006139c59190614cae565b905560138585858181106139db576139db61581e565b90506020028101906139ed9190615a98565b6040516139fb9291906156fa565b9081526020016040518091039020600090557fa35d07f0278ab7afea1dbe8905da671d026d7fad4e245129e56303b1b2793555858585818110613a4057613a4061581e565b9050602002810190613a529190615a98565b604051613a60929190615bc7565b60405180910390a150505b600101613822565b600080516020615f2b8339815191528054600160a01b900460ff1615613ad25760405162461bcd60e51b8152602060048201526014602482015273696e697469616c6973656420213d2066616c736560601b6044820152606401610bae565b6001600160a01b038316613b285760405162461bcd60e51b815260206004820152601860248201527f676f7665726e616e63652073657474696e6773207a65726f00000000000000006044820152606401610bae565b6001600160a01b038216613b715760405162461bcd60e51b815260206004820152601060248201526f5f676f7665726e616e6365207a65726f60801b6044820152606401610bae565b80546001600160a01b038481166001600160a81b031990921691909117600160a01b1782556001820180549184166001600160a01b0319909216821790556040519081527f9789733827840833afc031fb2ef9ab6894271f77bad2085687cf4ae5c7bee4db9060200160405180910390a1505050565b613bef613f1e565b600080516020615f2b8339815191528054600160a81b900460ff1615613c575760405162461bcd60e51b815260206004820152601a60248201527f616c726561647920696e2070726f64756374696f6e206d6f64650000000000006044820152606401610bae565b6001810180546001600160a01b03191690558054600160a81b60ff60a81b1982161782556040516001600160a01b0390911681527f83af113638b5422f9e977cebc0aaf0eaf2188eb9a8baae7f9d46c42b33a1560c9060200160405180910390a150565b613cc3613f1e565b60005b8181101561145c57613d00838383818110613ce357613ce361581e565b9050602002016020810190613cf89190615073565b601690614296565b15613d69577f319dd39ab6caa236891dbd7721e886a50cf2a124d1ee99cd21ba5d51b6c56bf6838383818110613d3857613d3861581e565b9050602002016020810190613d4d9190615073565b6040516001600160a01b03909116815260200160405180910390a15b600101613cc6565b613d79613f1e565b601a546001600160801b0380821691600160801b90041660005b83811015613ef5576000600b6000878785818110613db357613db361581e565b9050602002013581526020019081526020016000205490506000613dd682614304565b6001810154909150600160c01b900460ff1615613e355760405162461bcd60e51b815260206004820152601760248201527f657363726f7720616c72656164792066696e69736865640000000000000000006044820152606401610bae565b60018101805460ff60c01b1916600160c01b179055600d548211613e72576001810154613e6b906001600160801b031686615bf4565b9450613e8d565b6001810154613e8a906001600160801b031685615bf4565b93505b868684818110613e9f57613e9f61581e565b60018401546040516001600160801b03909116815260209182029390930135927f0451a3f480962e8772a6b24baac2d7869b328d0297ac8a8bef0723624e36424b92500160405180910390a25050600101613d93565b506001600160801b03908116600160801b02911617601a555050565b606060006137f78361488c565b613f266118ac565b6001600160a01b0316336001600160a01b0316146136575760405162461bcd60e51b815260206004820152600f60248201526e6f6e6c7920676f7665726e616e636560881b6044820152606401610bae565b3d604051818101604052816000823e8215613f91578181f35b8181fd5b600080516020615f2b833981519152805460009190600160b01b900460ff168061194f575054600160a81b900460ff1615919050565b600080516020615f2b8339815191528054600160b01b900460ff161561400757333014613ffa57613ffa615e4b565b805460ff60b01b19169055565b6111fb613f1e565b6000600080516020615ee4833981519152611967565b7f4910fdfa16fed3260ed0e7147f7cc6da11a60208b5b9406d12a635614ffd91435460ff16156140585761145c836148e8565b826001600160a01b03166352d1902d6040518163ffffffff1660e01b8152600401602060405180830381865afa9250505080156140b2575060408051601f3d908101601f191682019092526140af91810190615e61565b60015b6141155760405162461bcd60e51b815260206004820152602e60248201527f45524331393637557067726164653a206e657720696d706c656d656e7461746960448201526d6f6e206973206e6f74205555505360901b6064820152608401610bae565b600080516020615ee483398151915281146141845760405162461bcd60e51b815260206004820152602960248201527f45524331393637557067726164653a20756e737570706f727465642070726f786044820152681a58589b195555525160ba1b6064820152608401610bae565b5061145c838383614984565b600080516020615f2b8339815191526141a7613f1e565b600084846040516141b99291906156fa565b604080519182900382208454636221a54b60e01b845291519093506000926001600160a01b0390921691636221a54b9160048083019260209291908290030181865afa15801561420d573d6000803e3d6000fd5b505050506040513d601f19601f820116820180604052508101906142319190615e61565b90508381101561423e5750825b600061424a8242615720565b600084815260028601602052604090819020829055519091507f8c02104dfc280f713854f25297de671710c544c58de69dbde8fb66974ce1ab9e90612d53908990899087908690615e7a565b60006137f7836001600160a01b0384166149a9565b60006137f7836001600160a01b0384166149f8565b6000610b82825490565b60006137f78383614aeb565b60006137f783836149f8565b6001600160a01b038116600090815260018301602052604081205415156137f7565b6000816000036143495760405162461bcd60e51b815260206004820152601060248201526f195cd8dc9bddc81b9bdd08199bdd5b9960821b6044820152606401610bae565b600a614356600184615834565b815481106143665761436661581e565b90600052602060002090600202019050919050565b6000546001600160a01b031633146136575760405162461bcd60e51b815260206004820152601260248201527137b7363c9030b9b9b2ba1036b0b730b3b2b960711b6044820152606401610bae565b600080826040516020016143de919061530e565b6040516020818303038152906040528051906020012090506000805b865181101561444c578681815181106144155761441561581e565b60200260200101518303614444578581815181106144355761443561581e565b6020026020010151915061444c565b6001016143fa565b506001600160a01b0381166144925760405162461bcd60e51b815260206004820152600c60248201526b61646472657373207a65726f60a01b6044820152606401610bae565b95945050505050565b6144cd82826040518060400160405280600f81526020016e233231ab32b934b334b1b0ba34b7b760891b8152506143ca565b600680546001600160a01b0319166001600160a01b03929092169190911790555050565b601c5460ff16156136575760405162461bcd60e51b81526020600482015260066024820152651c185d5cd95960d21b6044820152606401610bae565b601a54600d546000916001600160801b0380821692600160801b90920416905b60008511801561455e5750600a5481105b80156145d8575042600a82815481106145795761457961581e565b6000918252602090912060029091020160010154600160801b90046001600160401b03161115806145d85750600a81815481106145b8576145b861581e565b906000526020600020906002020160010160189054906101000a900460ff165b1561468157600a81815481106145f0576145f061581e565b906000526020600020906002020160010160189054906101000a900460ff16614661576000600a82815481106146285761462861581e565b60009182526020909120600160029092020101546001600160801b03169050614651818561574a565b935061465d8184615bf4565b9250505b8061466b81615bdb565b915050848061467990615864565b95505061454d565b600d8190556001600160801b03828116600160801b0290841617601a55841515806146ad5750600a5481145b80614727575042600a82815481106146c7576146c761581e565b6000918252602090912060029091020160010154600160801b90046001600160401b03161180156147275750600a81815481106147065761470661581e565b906000526020600020906002020160010160189054906101000a900460ff16155b935083614758576040517f0306fa81e0cf1311aeee18d2d319bb52e97692b3b5ff4144eba92e5f6d59b40990600090a15b505050919050565b600a5460009081905b600d5481111561480d57600a614780600183615834565b815481106147905761479061581e565b906000526020600020906002020160010160189054906101000a900460ff166147fb57600a6147c0600183615834565b815481106147d0576147d061581e565b6000918252602090912060029091020160010154600160801b90046001600160401b0316915061480d565b8061480581615864565b915050614769565b506148188142614b15565b90506148276201518082615720565b6018549091506001600160801b03166148436201518083615ea1565b61484d9083615834565b6148579190615720565b90506148654261a8c0615720565b811161487b576148786201518082615720565b90505b919050565b60006137f783836149a9565b6060816000018054806020026020016040519081016040528092919081815260200182805480156148dc57602002820191906000526020600020905b8154815260200190600101908083116148c8575b50505050509050919050565b6001600160a01b0381163b6149555760405162461bcd60e51b815260206004820152602d60248201527f455243313936373a206e657720696d706c656d656e746174696f6e206973206e60448201526c1bdd08184818dbdb9d1c9858dd609a1b6064820152608401610bae565b600080516020615ee483398151915280546001600160a01b0319166001600160a01b0392909216919091179055565b61498d83614b2b565b60008251118061499a5750805b1561145c576124538383614b6b565b60008181526001830160205260408120546149f057508154600181810184556000848152602080822090930184905584548482528286019093526040902091909155610b82565b506000610b82565b60008181526001830160205260408120548015614ae1576000614a1c600183615834565b8554909150600090614a3090600190615834565b9050818114614a95576000866000018281548110614a5057614a5061581e565b9060005260206000200154905080876000018481548110614a7357614a7361581e565b6000918252602080832090910192909255918252600188019052604090208390555b8554869080614aa657614aa6615c46565b600190038181906000526020600020016000905590558560010160008681526020019081526020016000206000905560019350505050610b82565b6000915050610b82565b6000826000018281548110614b0257614b0261581e565b9060005260206000200154905092915050565b6000818311614b2457816137f7565b5090919050565b614b34816148e8565b6040516001600160a01b038216907fbc7cd75a20ee27fd9adebab32041f755214dbc6bffa90cc0225b39da2e5c2d3b90600090a250565b60606137f78383604051806060016040528060278152602001615f04602791396060600080856001600160a01b031685604051614ba8919061576a565b600060405180830381855af49150503d8060008114614be3576040519150601f19603f3d011682016040523d82523d6000602084013e614be8565b606091505b5091509150614bf986838387614c03565b9695505050505050565b60608315614c72578251600003614c6b576001600160a01b0385163b614c6b5760405162461bcd60e51b815260206004820152601d60248201527f416464726573733a2063616c6c20746f206e6f6e2d636f6e74726163740000006044820152606401610bae565b5081614c7c565b614c7c8383614c84565b949350505050565b815115614c945781518083602001fd5b8060405162461bcd60e51b8152600401610bae919061530e565b508054614cba906155b9565b6000825580601f10614cca575050565b601f0160209004906000526020600020908101906111fb91905b808211156113955760008155600101614ce4565b600060208284031215614d0a57600080fd5b81356001600160e01b0319811681146137f757600080fd5b6001600160a01b03811681146111fb57600080fd5b634e487b7160e01b600052604160045260246000fd5b604051601f8201601f191681016001600160401b0381118282101715614d7557614d75614d37565b604052919050565b60006001600160401b03831115614d9657614d96614d37565b614da9601f8401601f1916602001614d4d565b9050828152838383011115614dbd57600080fd5b828260208301376000602084830101529392505050565b600082601f830112614de557600080fd5b6137f783833560208501614d7d565b600080600080600080600080610100898b031215614e1157600080fd5b8835614e1c81614d22565b97506020890135614e2c81614d22565b96506040890135614e3c81614d22565b95506060890135614e4c81614d22565b94506080890135935060a08901356001600160401b0380821115614e6f57600080fd5b614e7b8c838d01614dd4565b945060c08b0135915080821115614e9157600080fd5b50614e9e8b828c01614dd4565b92505060e089013590509295985092959890939650565b6020808252825182820181905260009190848201906040850190845b81811015614ef65783516001600160a01b031683529284019291840191600101614ed1565b50909695505050505050565b60008083601f840112614f1457600080fd5b5081356001600160401b03811115614f2b57600080fd5b602083019150836020828501011115614f4357600080fd5b9250929050565b60008060208385031215614f5d57600080fd5b82356001600160401b03811115614f7357600080fd5b614f7f85828601614f02565b90969095509350505050565b60005b83811015614fa6578181015183820152602001614f8e565b50506000910152565b60008151808452614fc7816020860160208601614f8b565b601f01601f19169290920160200192915050565b600060208083016020845280855180835260408601915060408160051b87010192506020870160005b8281101561503257603f19888603018452615020858351614faf565b94509285019290850190600101615004565b5092979650505050505050565b60006020828403121561505157600080fd5b81356001600160401b0381111561506757600080fd5b614c7c84828501614dd4565b60006020828403121561508557600080fd5b81356137f781614d22565b6000602082840312156150a257600080fd5b5035919050565b600060208083018184528085518083526040925060408601915060408160051b87010184880160005b8381101561512757603f198984030185528151606081518186526150f882870182614faf565b838b0151878c0152928901516001600160801b03169589019590955250948701949250908601906001016150d2565b509098975050505050505050565b60008083601f84011261514757600080fd5b5081356001600160401b0381111561515e57600080fd5b6020830191508360208260051b8501011115614f4357600080fd5b6000806020838503121561518c57600080fd5b82356001600160401b038111156151a257600080fd5b614f7f85828601615135565b600080604083850312156151c157600080fd5b82356151cc81614d22565b915060208301356001600160401b038111156151e757600080fd5b8301601f810185136151f857600080fd5b61520785823560208401614d7d565b9150509250929050565b805182526001600160801b0360208201511660208301526001600160401b0360408201511660408301526060810151151560608301525050565b6020808252825182820181905260009190848201906040850190845b81811015614ef65761527a838551615211565b9284019260809290920191600101615267565b60808101610b828284615211565b6020808252825182820181905260009190848201906040850190845b81811015614ef6578351835292840192918401916001016152b7565b6000602082840312156152e557600080fd5b81356001600160401b038111156152fb57600080fd5b82016102a081850312156137f757600080fd5b6020815260006137f76020830184614faf565b80356001600160801b038116811461487b57600080fd5b6000806000806080858703121561534e57600080fd5b61535785615321565b935061536560208601615321565b925061537360408601615321565b915061538160608601615321565b905092959194509250565b60006001600160401b038211156153a5576153a5614d37565b5060051b60200190565b600082601f8301126153c057600080fd5b813560206153d56153d08361538c565b614d4d565b8083825260208201915060208460051b8701019350868411156153f757600080fd5b602086015b8481101561541c57803561540f81614d22565b83529183019183016153fc565b509695505050505050565b6000806040838503121561543a57600080fd5b82356001600160401b038082111561545157600080fd5b818501915085601f83011261546557600080fd5b813560206154756153d08361538c565b82815260059290921b8401810191818101908984111561549457600080fd5b948201945b838610156154b257853582529482019490820190615499565b965050860135925050808211156154c857600080fd5b50615207858286016153af565b80151581146111fb57600080fd5b803561487b816154d5565b6000806000806080858703121561550457600080fd5b84356001600160401b0381111561551a57600080fd5b61552687828801614dd4565b9450506020850135925061553c60408601615321565b9150606085013561554c816154d5565b939692955090935050565b6000806040838503121561556a57600080fd5b823561557581614d22565b9150602083013561558581614d22565b809150509250929050565b6020808252600f908201526e696e76616c6964206164647265737360881b604082015260600190565b600181811c908216806155cd57607f821691505b6020821081036155ed57634e487b7160e01b600052602260045260246000fd5b50919050565b601f82111561145c576000816000526020600020601f850160051c8101602086101561561c5750805b601f850160051c820191505b8181101561109557828155600101615628565b81516001600160401b0381111561565457615654614d37565b6156688161566284546155b9565b846155f3565b602080601f83116001811461569d57600084156156855750858301515b600019600386901b1c1916600185901b178555611095565b600085815260208120601f198616915b828110156156cc578886015182559484019460019091019084016156ad565b50858210156156ea5787850151600019600388901b60f8161c191681555b5050505050600190811b01905550565b8183823760009101908152919050565b634e487b7160e01b600052601160045260246000fd5b80820180821115610b8257610b8261570a565b8082028115828204841417610b8257610b8261570a565b6001600160801b03818116838216019080821115611a2257611a2261570a565b6000825161577c818460208701614f8b565b9190910192915050565b6020808252602c908201527f46756e6374696f6e206d7573742062652063616c6c6564207468726f7567682060408201526b19195b1959d85d1958d85b1b60a21b606082015260800190565b6020808252602c908201527f46756e6374696f6e206d7573742062652063616c6c6564207468726f7567682060408201526b6163746976652070726f787960a01b606082015260800190565b634e487b7160e01b600052603260045260246000fd5b81810381811115610b8257610b8261570a565b60006020828403121561585957600080fd5b81516137f781614d22565b6000816158735761587361570a565b506000190190565b803560ff8116811461487b57600080fd5b60006020828403121561589e57600080fd5b6137f78261587b565b80356001600160401b038116811461487b57600080fd5b80358252602081013560208301526158d8604082016158a7565b6001600160401b038082166040850152806158f5606085016158a7565b16606085015250506080810135608083015260a081013560a083015260c081013560c083015261593b60e0830161592e60e084016158a7565b6001600160401b03169052565b6101006159498183016158a7565b6001600160401b03169083015261012081810135908301526101408082013590830152610160808201359083015261018080820135908301526101a080820135908301526101c080820135908301526101e08082013590830152610200808201359083015261022080820135908301526102406159c78183016154e3565b1515908301526102606159db82820161587b565b60ff811684830152612453565b6020815260008235601e19843603018112615a0257600080fd5b83016020810190356001600160401b03811115615a1e57600080fd5b8060051b803603831315615a3157600080fd5b6102a060208601526102c085018290526102e06001600160fb1b03831115615a5857600080fd5b818482880137615a6e60408701602089016158be565b9401909301949350505050565b600060208284031215615a8d57600080fd5b81516137f7816154d5565b6000808335601e19843603018112615aaf57600080fd5b8301803591506001600160401b03821115615ac957600080fd5b602001915036819003821315614f4357600080fd5b6001600160401b03831115615af557615af5614d37565b615b0983615b0383546155b9565b836155f3565b6000601f841160018114615b3d5760008515615b255750838201355b600019600387901b1c1916600186901b178355615b97565b600083815260209020601f19861690835b82811015615b6e5786850135825560209485019460019092019101615b4e565b5086821015615b8b5760001960f88860031b161c19848701351681555b505060018560011b0183555b5050505050565b81835281816020850137506000828201602090810191909152601f909101601f19169091010190565b602081526000614c7c602083018486615b9e565b600060018201615bed57615bed61570a565b5060010190565b6001600160801b03828116828216039080821115611a2257611a2261570a565b606081526000615c276060830186614faf565b90508360208301526001600160801b0383166040830152949350505050565b634e487b7160e01b600052603160045260246000fd5b6000808354615c6a816155b9565b60018281168015615c825760018114615c9757615cc6565b60ff1984168752821515830287019450615cc6565b8760005260208060002060005b85811015615cbd5781548a820152908401908201615ca4565b50505082870194505b50929695505050505050565b608081526000615ce56080830187614faf565b6020830195909552506001600160801b039290921660408301521515606090910152919050565b60008154615d19816155b9565b808552602060018381168015615d365760018114615d5057615d7e565b60ff1985168884015283151560051b880183019550615d7e565b866000528260002060005b85811015615d765781548a8201860152908301908401615d5b565b890184019650505b505050505092915050565b60a081526000615d9c60a0830188615d0c565b8281036020840152615dae8188614faf565b6001600160801b03968716604085015294909516606083015250608001529392505050565b60a081526000615de660a0830188615d0c565b8281036020840152615df88188615d0c565b6001600160801b039687166040850152949095166060830152506001600160401b03919091166080909101529392505050565b6001600160401b03818116838216019080821115611a2257611a2261570a565b634e487b7160e01b600052600160045260246000fd5b600060208284031215615e7357600080fd5b5051919050565b606081526000615e8e606083018688615b9e565b6020830194909452506040015292915050565b600082615ebe57634e487b7160e01b600052601260045260246000fd5b50069056fe714f205b2abd25bef1d06a1af944e38c113fe6160375c4e1d6d5cf28848e7719360894a13ba1a3210667c828492db98dca3e2076cc3735a920a3ca505d382bbc416464726573733a206c6f772d6c6576656c2064656c65676174652063616c6c206661696c65642aa47ee5db910f3b2a06970c443249cc77dbd9f96100cfebc1775ab7fb1d1824a26469706673582212200db962c5664fd8e8e737b1918d79dd21afe233d74b8529ea510b6aba3b564b4864736f6c63430008170033",
  "linkReferences": {},
  "deployedLinkReferences": {}
}