{
  "_format": "hh-sol-artifact-1",
  "contractName": "CoreVaultManager",
  "sourceName": "contracts/assetManager/implementation/CoreVaultManager.sol",
  "abi": [
    {
      "inputs": [],
      "stateMutability": "nonpayable",
      "type": "constructor"
    },
    {
      "anonymous": false,
      "inputs": [
        {
          "indexed": false,
          "internalType": "address",
          "name": "previousAdmin",
          "type": "address"
        },
        {
          "indexed": false,
          "internalType": "address",
          "name": "newAdmin",
          "type": "address"
        }
      ],
      "name": "AdminChanged",
      "type": "event"
    },
    {
      "anonymous": false,
      "inputs": [
        {
          "indexed": true,
          "internalType": "address",
          "name": "beacon",
          "type": "address"
        }
      ],
      "name": "BeaconUpgraded",
      "type": "event"
    },
    {
      "anonymous": false,
      "inputs": [
        {
          "indexed": true,
          "internalType": "bytes32",
          "name": "preimageHash",
          "type": "bytes32"
        },
        {
          "indexed": false,
          "internalType": "uint256",
          "name": "amount",
          "type": "uint256"
        }
      ],
      "name": "EscrowFinished",
      "type": "event"
    },
    {
      "anonymous": false,
      "inputs": [
        {
          "indexed": true,
          "internalType": "uint256",
          "name": "sequence",
          "type": "uint256"
        },
        {
          "indexed": true,
          "internalType": "bytes32",
          "name": "preimageHash",
          "type": "bytes32"
        },
        {
          "indexed": false,
          "internalType": "string",
          "name": "account",
          "type": "string"
        },
        {
          "indexed": false,
          "internalType": "string",
          "name": "destination",
          "type": "string"
        },
        {
          "indexed": false,
          "internalType": "uint256",
          "name": "amount",
          "type": "uint256"
        },
        {
          "indexed": false,
          "internalType": "uint256",
          "name": "cancelAfterTs",
          "type": "uint256"
        }
      ],
      "name": "EscrowInstructions",
      "type": "event"
    },
    {
      "anonymous": false,
      "inputs": [
        {
          "indexed": false,
          "internalType": "bytes",
          "name": "encodedCall",
          "type": "bytes"
        },
        {
          "indexed": false,
          "internalType": "bytes32",
          "name": "encodedCallHash",
          "type": "bytes32"
        },
        {
          "indexed": false,
          "internalType": "uint256",
          "name": "allowedAfterTimestamp",
          "type": "uint256"
        }
      ],
      "name": "GovernanceCallTimelocked",
      "type": "event"
    },
    {
      "anonymous": false,
      "inputs": [
        {
          "indexed": false,
          "internalType": "address",
          "name": "initialGovernance",
          "type": "address"
        }
      ],
      "name": "GovernanceInitialised",
      "type": "event"
    },
    {
      "anonymous": false,
      "inputs": [
        {
          "indexed": false,
          "internalType": "address",
          "name": "governanceSettings",
          "type": "address"
        }
      ],
      "name": "GovernedProductionModeEntered",
      "type": "event"
    },
    {
      "anonymous": false,
      "inputs": [],
      "name": "NotAllEscrowsProcessed",
      "type": "event"
    },
    {
      "anonymous": false,
      "inputs": [],
      "name": "Paused",
      "type": "event"
    },
    {
      "anonymous": false,
      "inputs": [
        {
          "indexed": true,
          "internalType": "bytes32",
          "name": "transactionId",
          "type": "bytes32"
        },
        {
          "indexed": false,
          "internalType": "uint256",
          "name": "amount",
          "type": "uint256"
        }
      ],
      "name": "PaymentConfirmed",
      "type": "event"
    },
    {
      "anonymous": false,
      "inputs": [
        {
          "indexed": true,
          "internalType": "uint256",
          "name": "sequence",
          "type": "uint256"
        },
        {
          "indexed": false,
          "internalType": "string",
          "name": "account",
          "type": "string"
        },
        {
          "indexed": false,
          "internalType": "string",
          "name": "destination",
          "type": "string"
        },
        {
          "indexed": false,
          "internalType": "uint256",
          "name": "amount",
          "type": "uint256"
        }
      ],
      "name": "PaymentInstructions",
      "type": "event"
    },
    {
      "anonymous": false,
      "inputs": [
        {
          "indexed": false,
          "internalType": "bytes32",
          "name": "encodedCallHash",
          "type": "bytes32"
        }
      ],
      "name": "TimelockedGovernanceCallCanceled",
      "type": "event"
    },
    {
      "anonymous": false,
      "inputs": [
        {
          "indexed": false,
          "internalType": "bytes32",
          "name": "encodedCallHash",
          "type": "bytes32"
        }
      ],
      "name": "TimelockedGovernanceCallExecuted",
      "type": "event"
    },
    {
      "anonymous": false,
      "inputs": [
        {
          "indexed": false,
          "internalType": "string",
          "name": "destinationAddress",
          "type": "string"
        },
        {
          "indexed": false,
          "internalType": "uint256",
          "name": "amount",
          "type": "uint256"
        }
      ],
      "name": "TransferRequestCanceled",
      "type": "event"
    },
    {
      "anonymous": false,
      "inputs": [
        {
          "indexed": false,
          "internalType": "string",
          "name": "destinationAddress",
          "type": "string"
        },
        {
          "indexed": false,
          "internalType": "uint256",
          "name": "amount",
          "type": "uint256"
        },
        {
          "indexed": false,
          "internalType": "bool",
          "name": "cancelable",
          "type": "bool"
        }
      ],
      "name": "TransferRequested",
      "type": "event"
    },
    {
      "anonymous": false,
      "inputs": [],
      "name": "Unpaused",
      "type": "event"
    },
    {
      "anonymous": false,
      "inputs": [
        {
          "indexed": true,
          "internalType": "address",
          "name": "implementation",
          "type": "address"
        }
      ],
      "name": "Upgraded",
      "type": "event"
    },
    {
      "inputs": [
        {
          "internalType": "string[]",
          "name": "_allowedDestinationAddresses",
          "type": "string[]"
        }
      ],
      "name": "addAllowedDestinationAddresses",
      "outputs": [],
      "stateMutability": "nonpayable",
      "type": "function"
    },
    {
      "inputs": [
        {
          "internalType": "address[]",
          "name": "_addresses",
          "type": "address[]"
        }
      ],
      "name": "addEmergencyPauseSenders",
      "outputs": [],
      "stateMutability": "nonpayable",
      "type": "function"
    },
    {
      "inputs": [
        {
          "internalType": "bytes32[]",
          "name": "_preimageHashes",
          "type": "bytes32[]"
        }
      ],
      "name": "addPreimageHashes",
      "outputs": [],
      "stateMutability": "nonpayable",
      "type": "function"
    },
    {
      "inputs": [
        {
          "internalType": "address[]",
          "name": "_triggeringAccounts",
          "type": "address[]"
        }
      ],
      "name": "addTriggeringAccounts",
      "outputs": [],
      "stateMutability": "nonpayable",
      "type": "function"
    },
    {
      "inputs": [],
      "name": "assetManager",
      "outputs": [
        {
          "internalType": "address",
          "name": "",
          "type": "address"
        }
      ],
      "stateMutability": "view",
      "type": "function"
    },
    {
      "inputs": [],
      "name": "availableFunds",
      "outputs": [
        {
          "internalType": "uint128",
          "name": "",
          "type": "uint128"
        }
      ],
      "stateMutability": "view",
      "type": "function"
    },
    {
      "inputs": [
        {
          "internalType": "bytes",
          "name": "_encodedCall",
          "type": "bytes"
        }
      ],
      "name": "cancelGovernanceCall",
      "outputs": [],
      "stateMutability": "nonpayable",
      "type": "function"
    },
    {
      "inputs": [
        {
          "internalType": "string",
          "name": "_destinationAddress",
          "type": "string"
        }
      ],
      "name": "cancelTransferRequestFromCoreVault",
      "outputs": [],
      "stateMutability": "nonpayable",
      "type": "function"
    },
    {
      "inputs": [],
      "name": "cancelableTransferRequestsAmount",
      "outputs": [
        {
          "internalType": "uint128",
          "name": "",
          "type": "uint128"
        }
      ],
      "stateMutability": "view",
      "type": "function"
    },
    {
      "inputs": [],
      "name": "chainId",
      "outputs": [
        {
          "internalType": "bytes32",
          "name": "",
          "type": "bytes32"
        }
      ],
      "stateMutability": "view",
      "type": "function"
    },
    {
      "inputs": [
        {
          "components": [
            {
              "internalType": "bytes32[]",
              "name": "merkleProof",
              "type": "bytes32[]"
            },
            {
              "components": [
                {
                  "internalType": "bytes32",
                  "name": "attestationType",
                  "type": "bytes32"
                },
                {
                  "internalType": "bytes32",
                  "name": "sourceId",
                  "type": "bytes32"
                },
                {
                  "internalType": "uint64",
                  "name": "votingRound",
                  "type": "uint64"
                },
                {
                  "internalType": "uint64",
                  "name": "lowestUsedTimestamp",
                  "type": "uint64"
                },
                {
                  "components": [
                    {
                      "internalType": "bytes32",
                      "name": "transactionId",
                      "type": "bytes32"
                    },
                    {
                      "internalType": "uint256",
                      "name": "inUtxo",
                      "type": "uint256"
                    },
                    {
                      "internalType": "uint256",
                      "name": "utxo",
                      "type": "uint256"
                    }
                  ],
                  "internalType": "struct IPayment.RequestBody",
                  "name": "requestBody",
                  "type": "tuple"
                },
                {
                  "components": [
                    {
                      "internalType": "uint64",
                      "name": "blockNumber",
                      "type": "uint64"
                    },
                    {
                      "internalType": "uint64",
                      "name": "blockTimestamp",
                      "type": "uint64"
                    },
                    {
                      "internalType": "bytes32",
                      "name": "sourceAddressHash",
                      "type": "bytes32"
                    },
                    {
                      "internalType": "bytes32",
                      "name": "sourceAddressesRoot",
                      "type": "bytes32"
                    },
                    {
                      "internalType": "bytes32",
                      "name": "receivingAddressHash",
                      "type": "bytes32"
                    },
                    {
                      "internalType": "bytes32",
                      "name": "intendedReceivingAddressHash",
                      "type": "bytes32"
                    },
                    {
                      "internalType": "int256",
                      "name": "spentAmount",
                      "type": "int256"
                    },
                    {
                      "internalType": "int256",
                      "name": "intendedSpentAmount",
                      "type": "int256"
                    },
                    {
                      "internalType": "int256",
                      "name": "receivedAmount",
                      "type": "int256"
                    },
                    {
                      "internalType": "int256",
                      "name": "intendedReceivedAmount",
                      "type": "int256"
                    },
                    {
                      "internalType": "bytes32",
                      "name": "standardPaymentReference",
                      "type": "bytes32"
                    },
                    {
                      "internalType": "bool",
                      "name": "oneToOne",
                      "type": "bool"
                    },
                    {
                      "internalType": "uint8",
                      "name": "status",
                      "type": "uint8"
                    }
                  ],
                  "internalType": "struct IPayment.ResponseBody",
                  "name": "responseBody",
                  "type": "tuple"
                }
              ],
              "internalType": "struct IPayment.Response",
              "name": "data",
              "type": "tuple"
            }
          ],
          "internalType": "struct IPayment.Proof",
          "name": "_proof",
          "type": "tuple"
        }
      ],
      "name": "confirmPayment",
      "outputs": [],
      "stateMutability": "nonpayable",
      "type": "function"
    },
    {
      "inputs": [
        {
          "internalType": "bytes32",
          "name": "transactionId",
          "type": "bytes32"
        }
      ],
      "name": "confirmedPayments",
      "outputs": [
        {
          "internalType": "bool",
          "name": "",
          "type": "bool"
        }
      ],
      "stateMutability": "view",
      "type": "function"
    },
    {
      "inputs": [],
      "name": "coreVaultAddress",
      "outputs": [
        {
          "internalType": "string",
          "name": "",
          "type": "string"
        }
      ],
      "stateMutability": "view",
      "type": "function"
    },
    {
      "inputs": [],
      "name": "coreVaultAddressHash",
      "outputs": [
        {
          "internalType": "bytes32",
          "name": "",
          "type": "bytes32"
        }
      ],
      "stateMutability": "view",
      "type": "function"
    },
    {
      "inputs": [],
      "name": "custodianAddress",
      "outputs": [
        {
          "internalType": "string",
          "name": "",
          "type": "string"
        }
      ],
      "stateMutability": "view",
      "type": "function"
    },
    {
      "inputs": [],
      "name": "escrowAmount",
      "outputs": [
        {
          "internalType": "uint128",
          "name": "",
          "type": "uint128"
        }
      ],
      "stateMutability": "view",
      "type": "function"
    },
    {
      "inputs": [],
      "name": "escrowEndTimeSeconds",
      "outputs": [
        {
          "internalType": "uint256",
          "name": "",
          "type": "uint256"
        }
      ],
      "stateMutability": "view",
      "type": "function"
    },
    {
      "inputs": [],
      "name": "escrowedFunds",
      "outputs": [
        {
          "internalType": "uint128",
          "name": "",
          "type": "uint128"
        }
      ],
      "stateMutability": "view",
      "type": "function"
    },
    {
      "inputs": [
        {
          "internalType": "bytes",
          "name": "_encodedCall",
          "type": "bytes"
        }
      ],
      "name": "executeGovernanceCall",
      "outputs": [],
      "stateMutability": "nonpayable",
      "type": "function"
    },
    {
      "inputs": [],
      "name": "fdcVerification",
      "outputs": [
        {
          "internalType": "contract IFdcVerification",
          "name": "",
          "type": "address"
        }
      ],
      "stateMutability": "view",
      "type": "function"
    },
    {
      "inputs": [],
      "name": "getAddressUpdater",
      "outputs": [
        {
          "internalType": "address",
          "name": "_addressUpdater",
          "type": "address"
        }
      ],
      "stateMutability": "view",
      "type": "function"
    },
    {
      "inputs": [],
      "name": "getAllowedDestinationAddresses",
      "outputs": [
        {
          "internalType": "string[]",
          "name": "",
          "type": "string[]"
        }
      ],
      "stateMutability": "view",
      "type": "function"
    },
    {
      "inputs": [],
      "name": "getCancelableTransferRequests",
      "outputs": [
        {
          "components": [
            {
              "internalType": "string",
              "name": "destinationAddress",
              "type": "string"
            },
            {
              "internalType": "uint128",
              "name": "amount",
              "type": "uint128"
            }
          ],
          "internalType": "struct ICoreVaultManager.TransferRequest[]",
          "name": "_transferRequests",
          "type": "tuple[]"
        }
      ],
      "stateMutability": "view",
      "type": "function"
    },
    {
      "inputs": [],
      "name": "getEmergencyPauseSenders",
      "outputs": [
        {
          "internalType": "address[]",
          "name": "",
          "type": "address[]"
        }
      ],
      "stateMutability": "view",
      "type": "function"
    },
    {
      "inputs": [
        {
          "internalType": "uint256",
          "name": "_index",
          "type": "uint256"
        }
      ],
      "name": "getEscrowByIndex",
      "outputs": [
        {
          "components": [
            {
              "internalType": "bytes32",
              "name": "preimageHash",
              "type": "bytes32"
            },
            {
              "internalType": "uint128",
              "name": "amount",
              "type": "uint128"
            },
            {
              "internalType": "uint64",
              "name": "expiryTs",
              "type": "uint64"
            },
            {
              "internalType": "bool",
              "name": "finished",
              "type": "bool"
            }
          ],
          "internalType": "struct ICoreVaultManager.Escrow",
          "name": "",
          "type": "tuple"
        }
      ],
      "stateMutability": "view",
      "type": "function"
    },
    {
      "inputs": [
        {
          "internalType": "bytes32",
          "name": "_preimageHash",
          "type": "bytes32"
        }
      ],
      "name": "getEscrowByPreimageHash",
      "outputs": [
        {
          "components": [
            {
              "internalType": "bytes32",
              "name": "preimageHash",
              "type": "bytes32"
            },
            {
              "internalType": "uint128",
              "name": "amount",
              "type": "uint128"
            },
            {
              "internalType": "uint64",
              "name": "expiryTs",
              "type": "uint64"
            },
            {
              "internalType": "bool",
              "name": "finished",
              "type": "bool"
            }
          ],
          "internalType": "struct ICoreVaultManager.Escrow",
          "name": "",
          "type": "tuple"
        }
      ],
      "stateMutability": "view",
      "type": "function"
    },
    {
      "inputs": [],
      "name": "getEscrowsCount",
      "outputs": [
        {
          "internalType": "uint256",
          "name": "",
          "type": "uint256"
        }
      ],
      "stateMutability": "view",
      "type": "function"
    },
    {
      "inputs": [],
      "name": "getNonCancelableTransferRequests",
      "outputs": [
        {
          "components": [
            {
              "internalType": "string",
              "name": "destinationAddress",
              "type": "string"
            },
            {
              "internalType": "uint128",
              "name": "amount",
              "type": "uint128"
            }
          ],
          "internalType": "struct ICoreVaultManager.TransferRequest[]",
          "name": "_transferRequests",
          "type": "tuple[]"
        }
      ],
      "stateMutability": "view",
      "type": "function"
    },
    {
      "inputs": [
        {
          "internalType": "uint256",
          "name": "_index",
          "type": "uint256"
        }
      ],
      "name": "getPreimageHash",
      "outputs": [
        {
          "internalType": "bytes32",
          "name": "",
          "type": "bytes32"
        }
      ],
      "stateMutability": "view",
      "type": "function"
    },
    {
      "inputs": [],
      "name": "getPreimageHashesCount",
      "outputs": [
        {
          "internalType": "uint256",
          "name": "",
          "type": "uint256"
        }
      ],
      "stateMutability": "view",
      "type": "function"
    },
    {
      "inputs": [],
      "name": "getTriggeringAccounts",
      "outputs": [
        {
          "internalType": "address[]",
          "name": "",
          "type": "address[]"
        }
      ],
      "stateMutability": "view",
      "type": "function"
    },
    {
      "inputs": [],
      "name": "getUnprocessedEscrows",
      "outputs": [
        {
          "components": [
            {
              "internalType": "bytes32",
              "name": "preimageHash",
              "type": "bytes32"
            },
            {
              "internalType": "uint128",
              "name": "amount",
              "type": "uint128"
            },
            {
              "internalType": "uint64",
              "name": "expiryTs",
              "type": "uint64"
            },
            {
              "internalType": "bool",
              "name": "finished",
              "type": "bool"
            }
          ],
          "internalType": "struct ICoreVaultManager.Escrow[]",
          "name": "_unprocessedEscrows",
          "type": "tuple[]"
        }
      ],
      "stateMutability": "view",
      "type": "function"
    },
    {
      "inputs": [],
      "name": "getUnusedPreimageHashes",
      "outputs": [
        {
          "internalType": "bytes32[]",
          "name": "",
          "type": "bytes32[]"
        }
      ],
      "stateMutability": "view",
      "type": "function"
    },
    {
      "inputs": [],
      "name": "governance",
      "outputs": [
        {
          "internalType": "address",
          "name": "",
          "type": "address"
        }
      ],
      "stateMutability": "view",
      "type": "function"
    },
    {
      "inputs": [],
      "name": "governanceSettings",
      "outputs": [
        {
          "internalType": "contract IGovernanceSettings",
          "name": "",
          "type": "address"
        }
      ],
      "stateMutability": "view",
      "type": "function"
    },
    {
      "inputs": [
        {
          "internalType": "contract IGovernanceSettings",
          "name": "_governanceSettings",
          "type": "address"
        },
        {
          "internalType": "address",
          "name": "_initialGovernance",
          "type": "address"
        }
      ],
      "name": "initialise",
      "outputs": [],
      "stateMutability": "nonpayable",
      "type": "function"
    },
    {
      "inputs": [
        {
          "internalType": "contract IGovernanceSettings",
          "name": "_governanceSettings",
          "type": "address"
        },
        {
          "internalType": "address",
          "name": "_initialGovernance",
          "type": "address"
        },
        {
          "internalType": "address",
          "name": "_addressUpdater",
          "type": "address"
        },
        {
          "internalType": "address",
          "name": "_assetManager",
          "type": "address"
        },
        {
          "internalType": "bytes32",
          "name": "_chainId",
          "type": "bytes32"
        },
        {
          "internalType": "string",
          "name": "_custodianAddress",
          "type": "string"
        },
        {
          "internalType": "string",
          "name": "_coreVaultAddress",
          "type": "string"
        },
        {
          "internalType": "uint256",
          "name": "_nextSequenceNumber",
          "type": "uint256"
        }
      ],
      "name": "initialize",
      "outputs": [],
      "stateMutability": "nonpayable",
      "type": "function"
    },
    {
      "inputs": [
        {
          "internalType": "string",
          "name": "_address",
          "type": "string"
        }
      ],
      "name": "isDestinationAddressAllowed",
      "outputs": [
        {
          "internalType": "bool",
          "name": "",
          "type": "bool"
        }
      ],
      "stateMutability": "view",
      "type": "function"
    },
    {
      "inputs": [
        {
          "internalType": "address",
          "name": "_address",
          "type": "address"
        }
      ],
      "name": "isExecutor",
      "outputs": [
        {
          "internalType": "bool",
          "name": "",
          "type": "bool"
        }
      ],
      "stateMutability": "view",
      "type": "function"
    },
    {
      "inputs": [],
      "name": "minimalAmount",
      "outputs": [
        {
          "internalType": "uint128",
          "name": "",
          "type": "uint128"
        }
      ],
      "stateMutability": "view",
      "type": "function"
    },
    {
      "inputs": [],
      "name": "nextSequenceNumber",
      "outputs": [
        {
          "internalType": "uint256",
          "name": "",
          "type": "uint256"
        }
      ],
      "stateMutability": "view",
      "type": "function"
    },
    {
      "inputs": [],
      "name": "nextUnprocessedEscrowIndex",
      "outputs": [
        {
          "internalType": "uint256",
          "name": "",
          "type": "uint256"
        }
      ],
      "stateMutability": "view",
      "type": "function"
    },
    {
      "inputs": [],
      "name": "nextUnusedPreimageHashIndex",
      "outputs": [
        {
          "internalType": "uint256",
          "name": "",
          "type": "uint256"
        }
      ],
      "stateMutability": "view",
      "type": "function"
    },
    {
      "inputs": [],
      "name": "nonCancelableTransferRequestsAmount",
      "outputs": [
        {
          "internalType": "uint128",
          "name": "",
          "type": "uint128"
        }
      ],
      "stateMutability": "view",
      "type": "function"
    },
    {
      "inputs": [],
      "name": "pause",
      "outputs": [],
      "stateMutability": "nonpayable",
      "type": "function"
    },
    {
      "inputs": [],
      "name": "paused",
      "outputs": [
        {
          "internalType": "bool",
          "name": "",
          "type": "bool"
        }
      ],
      "stateMutability": "view",
      "type": "function"
    },
    {
      "inputs": [
        {
          "internalType": "uint256",
          "name": "_maxCount",
          "type": "uint256"
        }
      ],
      "name": "processEscrows",
      "outputs": [
        {
          "internalType": "bool",
          "name": "",
          "type": "bool"
        }
      ],
      "stateMutability": "nonpayable",
      "type": "function"
    },
    {
      "inputs": [],
      "name": "productionMode",
      "outputs": [
        {
          "internalType": "bool",
          "name": "",
          "type": "bool"
        }
      ],
      "stateMutability": "view",
      "type": "function"
    },
    {
      "inputs": [],
      "name": "proxiableUUID",
      "outputs": [
        {
          "internalType": "bytes32",
          "name": "",
          "type": "bytes32"
        }
      ],
      "stateMutability": "view",
      "type": "function"
    },
    {
      "inputs": [
        {
          "internalType": "string[]",
          "name": "_allowedDestinationAddresses",
          "type": "string[]"
        }
      ],
      "name": "removeAllowedDestinationAddresses",
      "outputs": [],
      "stateMutability": "nonpayable",
      "type": "function"
    },
    {
      "inputs": [
        {
          "internalType": "address[]",
          "name": "_addresses",
          "type": "address[]"
        }
      ],
      "name": "removeEmergencyPauseSenders",
      "outputs": [],
      "stateMutability": "nonpayable",
      "type": "function"
    },
    {
      "inputs": [
        {
          "internalType": "address[]",
          "name": "_triggeringAccounts",
          "type": "address[]"
        }
      ],
      "name": "removeTriggeringAccounts",
      "outputs": [],
      "stateMutability": "nonpayable",
      "type": "function"
    },
    {
      "inputs": [
        {
          "internalType": "uint256",
          "name": "_maxCount",
          "type": "uint256"
        }
      ],
      "name": "removeUnusedPreimageHashes",
      "outputs": [],
      "stateMutability": "nonpayable",
      "type": "function"
    },
    {
      "inputs": [
        {
          "internalType": "string",
          "name": "_destinationAddress",
          "type": "string"
        },
        {
          "internalType": "uint128",
          "name": "_amount",
          "type": "uint128"
        },
        {
          "internalType": "bool",
          "name": "_cancelable",
          "type": "bool"
        }
      ],
      "name": "requestTransferFromCoreVault",
      "outputs": [],
      "stateMutability": "nonpayable",
      "type": "function"
    },
    {
      "inputs": [
        {
          "internalType": "bytes32[]",
          "name": "_preimageHashes",
          "type": "bytes32[]"
        }
      ],
      "name": "setEscrowsFinished",
      "outputs": [],
      "stateMutability": "nonpayable",
      "type": "function"
    },
    {
      "inputs": [
        {
          "internalType": "bytes4",
          "name": "_interfaceId",
          "type": "bytes4"
        }
      ],
      "name": "supportsInterface",
      "outputs": [
        {
          "internalType": "bool",
          "name": "",
          "type": "bool"
        }
      ],
      "stateMutability": "pure",
      "type": "function"
    },
    {
      "inputs": [],
      "name": "switchToProductionMode",
      "outputs": [],
      "stateMutability": "nonpayable",
      "type": "function"
    },
    {
      "inputs": [],
      "name": "triggerInstructions",
      "outputs": [],
      "stateMutability": "nonpayable",
      "type": "function"
    },
    {
      "inputs": [],
      "name": "unpause",
      "outputs": [],
      "stateMutability": "nonpayable",
      "type": "function"
    },
    {
      "inputs": [
        {
          "internalType": "bytes32[]",
          "name": "_contractNameHashes",
          "type": "bytes32[]"
        },
        {
          "internalType": "address[]",
          "name": "_contractAddresses",
          "type": "address[]"
        }
      ],
      "name": "updateContractAddresses",
      "outputs": [],
      "stateMutability": "nonpayable",
      "type": "function"
    },
    {
      "inputs": [
        {
          "internalType": "string",
          "name": "_custodianAddress",
          "type": "string"
        }
      ],
      "name": "updateCustodianAddress",
      "outputs": [],
      "stateMutability": "nonpayable",
      "type": "function"
    },
    {
      "inputs": [
        {
          "internalType": "uint256",
          "name": "_escrowEndTimeSeconds",
          "type": "uint256"
        },
        {
          "internalType": "uint128",
          "name": "_escrowAmount",
          "type": "uint128"
        },
        {
          "internalType": "uint128",
          "name": "_minimalAmount",
          "type": "uint128"
        }
      ],
      "name": "updateSettings",
      "outputs": [],
      "stateMutability": "nonpayable",
      "type": "function"
    },
    {
      "inputs": [
        {
          "internalType": "address",
          "name": "newImplementation",
          "type": "address"
        }
      ],
      "name": "upgradeTo",
      "outputs": [],
      "stateMutability": "nonpayable",
      "type": "function"
    },
    {
      "inputs": [
        {
          "internalType": "address",
          "name": "newImplementation",
          "type": "address"
        },
        {
          "internalType": "bytes",
          "name": "data",
          "type": "bytes"
        }
      ],
      "name": "upgradeToAndCall",
      "outputs": [],
      "stateMutability": "payable",
      "type": "function"
    }
  ],
  "bytecode": "0x60a0604052306080523480156200001557600080fd5b506000620000266111118062000056565b6200004f817f714f205b2abd25bef1d06a1af944e38c113fe6160375c4e1d6d5cf28848e771955565b50620001ef565b7f2aa47ee5db910f3b2a06970c443249cc77dbd9f96100cfebc1775ab7fb1d18248054600160a01b900460ff1615620000d65760405162461bcd60e51b815260206004820152601460248201527f696e697469616c6973656420213d2066616c736500000000000000000000000060448201526064015b60405180910390fd5b6001600160a01b0383166200012e5760405162461bcd60e51b815260206004820152601860248201527f676f7665726e616e63652073657474696e6773207a65726f00000000000000006044820152606401620000cd565b6001600160a01b038216620001795760405162461bcd60e51b815260206004820152601060248201526f5f676f7665726e616e6365207a65726f60801b6044820152606401620000cd565b80546001600160a01b038481166001600160a81b031990921691909117600160a01b1782556001820180549184166001600160a01b0319909216821790556040519081527f9789733827840833afc031fb2ef9ab6894271f77bad2085687cf4ae5c7bee4db9060200160405180910390a1505050565b608051615b3f62000227600039600081816116cd0152818161170d015281816119dc01528181611a1c0152611bc40152615b3f6000f3fe6080604052600436106103c35760003560e01c806372f089d6116101f2578063b00c0b761161010d578063e9a730f9116100a0578063f5a983831161006f578063f5a9838314610b1d578063f845465614610b32578063f9fe1f1c14610b52578063faee475314610b7257600080fd5b8063e9a730f914610aa1578063ea53fe1314610ab6578063ef88bf1314610ad6578063f0ec77fa14610af657600080fd5b8063da3422ee116100dc578063da3422ee14610a0e578063dc24484014610a2e578063debfda3014610a55578063e17f212e14610a7557600080fd5b8063b00c0b76146109a3578063b9cbea3b146109c3578063c9febdf5146109d8578063d074bd7e146109ee57600080fd5b80639a8a059211610185578063a64667dc11610154578063a64667dc14610931578063a66e4e5f14610947578063a90353251461095c578063aec3cd5a1461097c57600080fd5b80639a8a0592146108c5578063a0a62630146108db578063a2c74275146108fb578063a625988b1461091157600080fd5b806392321adb116101c157806392321adb1461085b57806392fa95861461087b57806394217ad11461089057806398ca4f78146108b057600080fd5b806372f089d6146107e45780637a1077ea146108045780638456cb59146108265780638dfb4a901461083b57600080fd5b806349820f2f116102e25780635aa6e67511610275578063664e841d11610244578063664e841d1461076e5780636b97900d146107845780636d3d2ca8146107a457806371c1f751146107c457600080fd5b80635aa6e675146107085780635c975abb1461071d57806362354e031461073757806362974d4d1461074c57600080fd5b806352d1902d116102b157806352d1902d1461069057806356cd13c9146106a55780635a0da855146106c55780635a3a9d6b146106db57600080fd5b806349820f2f1461061a5780634f1ef286146106395780634f1f612e1461064c5780635267a15d1461066e57600080fd5b80633659cfe61161035a5780633c7cd9c5116103295780633c7cd9c51461058d5780633f4ba83a146105ad57806346fcff4c146105c257806347a7846f146105fa57600080fd5b80633659cfe6146104e357806337ac744e146105035780633ad6d516146105335780633b42ae101461056b57600080fd5b80631c073f08116103965780631c073f08146104615780631f1ebe951461048357806320c5f99d146104a35780632b656fef146104c357600080fd5b806301ffc9a7146103c85780630fcc6f8d146103fd578063108cca7a1461041f57806316fc2f6d14610441575b600080fd5b3480156103d457600080fd5b506103e86103e3366004614927565b610b92565b60405190151581526020015b60405180910390f35b34801561040957600080fd5b5061041d610418366004614a23565b610be4565b005b34801561042b57600080fd5b50610434610d79565b6040516103f49190614ae4565b34801561044d57600080fd5b5061041d61045c366004614b79565b610d8a565b34801561046d57600080fd5b50610476610e6d565b6040516103f49190614c0a565b34801561048f57600080fd5b5061041d61049e366004614c9e565b610f46565b3480156104af57600080fd5b5061041d6104be366004614b79565b611495565b3480156104cf57600080fd5b506103e86104de366004614cff565b611684565b3480156104ef57600080fd5b5061041d6104fe366004614d33565b6116ae565b34801561050f57600080fd5b506103e861051e366004614d50565b60076020526000908152604090205460ff1681565b34801561053f57600080fd5b50600654610553906001600160a01b031681565b6040516001600160a01b0390911681526020016103f4565b34801561057757600080fd5b5061058061178f565b6040516103f49190614d69565b34801561059957600080fd5b5061041d6105a8366004614e2e565b61190f565b3480156105b957600080fd5b5061041d611980565b3480156105ce57600080fd5b50601a546105e2906001600160801b031681565b6040516001600160801b0390911681526020016103f4565b34801561060657600080fd5b506019546105e2906001600160801b031681565b34801561062657600080fd5b50600a545b6040519081526020016103f4565b61041d610647366004614e63565b6119bd565b34801561065857600080fd5b50610661611a7e565b6040516103f49190614f00565b34801561067a57600080fd5b50600080516020615a8383398151915254610553565b34801561069c57600080fd5b5061062b611bb7565b3480156106b157600080fd5b5061041d6106c0366004614e2e565b611c6a565b3480156106d157600080fd5b5061062b600d5481565b3480156106e757600080fd5b506106fb6106f6366004614d50565b611cb8565b6040516103f49190614f42565b34801561071457600080fd5b50610553611d52565b34801561072957600080fd5b50601c546103e89060ff1681565b34801561074357600080fd5b50610553611dfb565b34801561075857600080fd5b50610761611e1c565b6040516103f49190614f50565b34801561077a57600080fd5b5061062b60055481565b34801561079057600080fd5b5061041d61079f366004614d50565b611ecf565b3480156107b057600080fd5b5061041d6107bf366004614f88565b611f30565b3480156107d057600080fd5b5061041d6107df366004614e2e565b6121e0565b3480156107f057600080fd5b5061041d6107ff366004614e2e565b612362565b34801561081057600080fd5b506108196123bd565b6040516103f49190614fc3565b34801561083257600080fd5b5061041d61244b565b34801561084757600080fd5b5061062b610856366004614d50565b61250f565b34801561086757600080fd5b50601b546105e2906001600160801b031681565b34801561088757600080fd5b5061043461251c565b34801561089c57600080fd5b50600054610553906001600160a01b031681565b3480156108bc57600080fd5b50610580612528565b3480156108d157600080fd5b5061062b60015481565b3480156108e757600080fd5b506106fb6108f6366004614d50565b6126a4565b34801561090757600080fd5b5061062b600c5481565b34801561091d57600080fd5b5061041d61092c366004614b79565b61279b565b34801561093d57600080fd5b5061062b60185481565b34801561095357600080fd5b506108196127da565b34801561096857600080fd5b5061041d610977366004614cff565b6127e7565b34801561098857600080fd5b506019546105e290600160801b90046001600160801b031681565b3480156109af57600080fd5b5061041d6109be366004615071565b612a7b565b3480156109cf57600080fd5b5061041d612b32565b3480156109e457600080fd5b5061062b60035481565b3480156109fa57600080fd5b506103e8610a09366004614d50565b61338b565b348015610a1a57600080fd5b5061041d610a29366004614e2e565b613396565b348015610a3a57600080fd5b50601b546105e290600160801b90046001600160801b031681565b348015610a6157600080fd5b506103e8610a70366004614d33565b613491565b348015610a8157600080fd5b50600080516020615aea83398151915254600160a81b900460ff166103e8565b348015610aad57600080fd5b5061062b61352b565b348015610ac257600080fd5b5061041d610ad1366004614e2e565b613537565b348015610ae257600080fd5b5061041d610af136600461511f565b613745565b348015610b0257600080fd5b50601a546105e290600160801b90046001600160801b031681565b348015610b2957600080fd5b5061041d6138b9565b348015610b3e57600080fd5b5061041d610b4d366004615158565b61398d565b348015610b5e57600080fd5b5061041d610b6d366004614e2e565b613a33565b348015610b7e57600080fd5b5061041d610b8d366004614e2e565b613a81565b60006001600160e01b031982166301ffc9a760e01b1480610bc357506001600160e01b0319821663580605bb60e11b145b80610bde57506001600160e01b03198216630b61dedb60e41b145b92915050565b6001600160a01b038516610c3f5760405162461bcd60e51b815260206004820152601c60248201527f6173736574206d616e616765722063616e6e6f74206265207a65726f0000000060448201526064015b60405180910390fd5b83610c8c5760405162461bcd60e51b815260206004820152601760248201527f636861696e2069642063616e6e6f74206265207a65726f0000000000000000006044820152606401610c36565b6000835111610cad5760405162461bcd60e51b8152600401610c3690615194565b6000825111610d095760405162461bcd60e51b815260206004820152602260248201527f636f7265207661756c7420616464726573732063616e6e6f7420626520656d70604482015261747960f01b6064820152608401610c36565b610d138888613745565b610d2986600080516020615a8383398151915255565b600080546001600160a01b0319166001600160a01b03871617905560018490556002610d558482615257565b50815160208301206003556004610d6c8382615257565b5060055550505050505050565b6060610d856014613cb8565b905090565b610d92613cc5565b604051600080516020615aea83398151915290600090610db59085908590615316565b6040518091039020905081600201600082815260200190815260200160002054600003610e245760405162461bcd60e51b815260206004820152601a60248201527f74696d656c6f636b3a20696e76616c69642073656c6563746f720000000000006044820152606401610c36565b6040518181527f69b058d6225c01c1f2a25801ca5b05705fa2e9118e93d518390ba804398c87b19060200160405180910390a16000908152600290910160205260408120555050565b60606012805480602002602001604051908101604052809291908181526020016000905b82821015610f3d578382906000526020600020018054610eb0906151d5565b80601f0160208091040260200160405190810160405280929190818152602001828054610edc906151d5565b8015610f295780601f10610efe57610100808354040283529160200191610f29565b820191906000526020600020905b815481529060010190602001808311610f0c57829003601f168201915b505050505081526020019060010190610e91565b50505050905090565b6000546001600160a01b03163314610f955760405162461bcd60e51b815260206004820152601260248201527137b7363c9030b9b9b2ba1036b0b730b3b2b960711b6044820152606401610c36565b601c5460ff1615610fd15760405162461bcd60e51b81526020600482015260066024820152651c185d5cd95960d21b6044820152606401610c36565b6000826001600160801b03161161102a5760405162461bcd60e51b815260206004820181905260248201527f616d6f756e74206d7573742062652067726561746572207468616e207a65726f6044820152606401610c36565b60138360405161103a9190615326565b9081526020016040518091039020546000036110985760405162461bcd60e51b815260206004820152601f60248201527f64657374696e6174696f6e2061646472657373206e6f7420616c6c6f776564006044820152606401610c36565b601b546000906110bb906001600160801b0380821691600160801b900416615358565b601a549091506110dd906001600160801b03600160801b820481169116615358565b6001600160801b03166110f08285615358565b6001600160801b0316111561113c5760405162461bcd60e51b8152602060048201526012602482015271696e73756666696369656e742066756e647360701b6044820152606401610c36565b835160208501206000831561127e5760005b600f548110156111fc57600060116000600f848154811061117157611171615378565b906000526020600020015481526020019081526020016000209050838160000160405161119e919061538e565b6040518091039020036111f35760405162461bcd60e51b815260206004820152601f60248201527f7472616e73666572207265717565737420616c726561647920657869737473006044820152606401610c36565b5060010161114e565b50601b805486919060009061121b9084906001600160801b0316615358565b82546001600160801b039182166101009390930a92830291909202199091161790555050600e54600f8054600181810183556000929092527f8d1108e10bcb7c27dddfc02ed9d693a074039d026cf4ea4240b40f7d581ac80201919091556113ce565b60005b60105481101561133b57600060116000601084815481106112a4576112a4615378565b90600052602060002001548152602001908152602001600020905083816000016040516112d1919061538e565b604051809103902003611328576001810180548891906000906112fe9084906001600160801b0316615358565b92506101000a8154816001600160801b0302191690836001600160801b031602179055505061133b565b8161133281615404565b92505050611281565b85601b60108282829054906101000a90046001600160801b031661135f9190615358565b92506101000a8154816001600160801b0302191690836001600160801b0316021790555060108054905081036113cc57600e5460108054600181810183556000929092527f1b6847dc741a1b0cd08d278845f9d819d87b734759afb55fe2de5cb82a9ae672019190915591505b505b801561145257604080518082019091528681526001600160801b0386166020820152600e8054601191600091908261140583615404565b9091555081526020810191909152604001600020815181906114279082615257565b5060209190910151600190910180546001600160801b0319166001600160801b039092169190911790555b7f28f433d9020ee1fece285f6b66e0b9430de7cab6f47a7edb4f9139b9be34975b8686866040516114859392919061541d565b60405180910390a1505050505050565b600080516020615aea8339815191526114ad33613491565b6114e95760405162461bcd60e51b815260206004820152600d60248201526c37b7363c9032bc32b1baba37b960991b6044820152606401610c36565b600083836040516114fb929190615316565b604080519182900390912060008181526002850160205291822054909250908190036115695760405162461bcd60e51b815260206004820152601a60248201527f74696d656c6f636b3a20696e76616c69642073656c6563746f720000000000006044820152606401610c36565b804210156115b95760405162461bcd60e51b815260206004820152601960248201527f74696d656c6f636b3a206e6f7420616c6c6f77656420796574000000000000006044820152606401610c36565b6000828152600284016020526040808220829055845460ff60b01b1916600160b01b1785555130906115ee9088908890615316565b6000604051808303816000865af19150503d806000811461162b576040519150601f19603f3d011682016040523d82523d6000602084013e611630565b606091505b5050845460ff60b01b191685556040518481529091507fec1225e5a8a8acb91e03ce648c683c74f5d152a775b9715980999441d714c44f9060200160405180910390a161167c81613d1f565b505050505050565b6000806013836040516116979190615326565b908152602001604051809103902054119050919050565b6116b6613d3c565b15611782576116c3613d72565b6001600160a01b037f000000000000000000000000000000000000000000000000000000000000000016300361170b5760405162461bcd60e51b8152600401610c3690615450565b7f00000000000000000000000000000000000000000000000000000000000000006001600160a01b031661173d613db6565b6001600160a01b0316146117635760405162461bcd60e51b8152600401610c369061549c565b6040805160008082526020820190925261177f91839190613dcc565b50565b61177f6000366000613f37565b600f546060906001600160401b038111156117ac576117ac614966565b6040519080825280602002602001820160405280156117f257816020015b6040805180820190915260608152600060208201528152602001906001900390816117ca5790505b50905060005b600f5481101561190b5760116000600f838154811061181957611819615378565b9060005260206000200154815260200190815260200160002060405180604001604052908160008201805461184d906151d5565b80601f0160208091040260200160405190810160405280929190818152602001828054611879906151d5565b80156118c65780601f1061189b576101008083540402835291602001916118c6565b820191906000526020600020905b8154815290600101906020018083116118a957829003601f168201915b5050509183525050600191909101546001600160801b031660209091015282518390839081106118f8576118f8615378565b60209081029190910101526001016117f8565b5090565b611917613d3c565b1561196f57611924613d72565b60005b8181101561196a5761196183838381811061194457611944615378565b90506020020160208101906119599190614d33565b60149061404e565b50600101611927565b505050565b61197c6000366000613f37565b5050565b611988613cc5565b601c805460ff191690556040517fa45f47fdea8a1efdd9029a5691c7f759c32b7c698632b563573e155625d1693390600090a1565b6119c5613d3c565b1561196f576119d2613d72565b6001600160a01b037f0000000000000000000000000000000000000000000000000000000000000000163003611a1a5760405162461bcd60e51b8152600401610c3690615450565b7f00000000000000000000000000000000000000000000000000000000000000006001600160a01b0316611a4c613db6565b6001600160a01b031614611a725760405162461bcd60e51b8152600401610c369061549c565b61197c82826001613dcc565b600d54600a54606091600091611a9491906154e8565b9050806001600160401b03811115611aae57611aae614966565b604051908082528060200260200182016040528015611b0057816020015b604080516080810182526000808252602080830182905292820181905260608201528252600019909201910181611acc5790505b50915060005b81811015611bb257600a81600d54611b1e91906154fb565b81548110611b2e57611b2e615378565b60009182526020918290206040805160808101825260029390930290910180548352600101546001600160801b03811693830193909352600160801b83046001600160401b031690820152600160c01b90910460ff16151560608201528351849083908110611b9f57611b9f615378565b6020908102919091010152600101611b06565b505090565b6000306001600160a01b037f00000000000000000000000000000000000000000000000000000000000000001614611c575760405162461bcd60e51b815260206004820152603860248201527f555550535570677261646561626c653a206d757374206e6f742062652063616c60448201527f6c6564207468726f7567682064656c656761746563616c6c00000000000000006064820152608401610c36565b50600080516020615aa383398151915290565b611c72613cc5565b60005b8181101561196a57611caf838383818110611c9257611c92615378565b9050602002016020810190611ca79190614d33565b601690614063565b50600101611c75565b604080516080810182526000808252602082018190529181018290526060810191909152600a8281548110611cef57611cef615378565b60009182526020918290206040805160808101825260029390930290910180548352600101546001600160801b03811693830193909352600160801b83046001600160401b031690820152600160c01b90910460ff161515606082015292915050565b600080516020615aea833981519152805460009190600160a81b900460ff16611d885760018101546001600160a01b0316611df5565b805460408051631cc9492560e21b815290516001600160a01b03909216916373252494916004808201926020929091908290030181865afa158015611dd1573d6000803e3d6000fd5b505050506040513d601f19601f82011682018060405250810190611df5919061550e565b91505090565b6000600080516020615aea8339815191525b546001600160a01b0316919050565b60606000600c54611e2d6008614078565b611e3791906154e8565b90506000816001600160401b03811115611e5357611e53614966565b604051908082528060200260200182016040528015611e7c578160200160208202803683370190505b50905060005b82811015611ec857611ea381600c54611e9b91906154fb565b600890614082565b828281518110611eb557611eb5615378565b6020908102919091010152600101611e82565b5092915050565b611ed7613cc5565b6000611ee36008614078565b90505b600082118015611ef75750600c5481115b1561197c57611f1d611f15611f0b8361552b565b9250600883614082565b60089061408e565b5081611f288161552b565b925050611ee6565b611f426102a082016102808301615553565b60ff1615611f835760405162461bcd60e51b815260206004820152600e60248201526d1c185e5b595b9d0819985a5b195960921b6044820152606401610c36565b600154604082013514611fc85760405162461bcd60e51b815260206004820152600d60248201526c34b73b30b634b21031b430b4b760991b6044820152606401610c36565b60065460405163a7a3797560e01b81526001600160a01b039091169063a7a3797590611ff89084906004016156af565b602060405180830381865afa158015612015573d6000803e3d6000fd5b505050506040513d601f19601f820116820180604052508101906120399190615742565b6120855760405162461bcd60e51b815260206004820152601860248201527f6c6567616c207061796d656e74206e6f742070726f76656400000000000000006044820152606401610c36565b600354610180820135146120db5760405162461bcd60e51b815260206004820152601860248201527f6e6f7420636f7265207661756c742773206164647265737300000000000000006044820152606401610c36565b6000610200820135136121255760405162461bcd60e51b81526020600482015260126024820152711b9bc8185b5bdd5b9d081c9958d95a5d995960721b6044820152606401610c36565b60a081013560009081526007602052604090205460ff1661177f5760a08101356000908152600760205260408120805460ff19166001179055601a8054610200840135928392916121809084906001600160801b0316615358565b82546101009290920a6001600160801b03818102199093169183160217909155604051908316815260a084013591507f1f3e668bb811ddbb5d21cb9a522ce3d3852133a5b412b8a1c2c450ab444768199060200160405180910390a25050565b6121e8613d3c565b1561196f576121f5613d72565b60005b8181101561196a57600083838381811061221457612214615378565b9050602002810190612226919061575f565b9050116122815760405162461bcd60e51b815260206004820152602360248201527f64657374696e6174696f6e20616464726573732063616e6e6f7420626520656d60448201526270747960e81b6064820152608401610c36565b601383838381811061229557612295615378565b90506020028101906122a7919061575f565b6040516122b5929190615316565b90815260200160405180910390205460000361235a5760128383838181106122df576122df615378565b90506020028101906122f1919061575f565b8254600181018455600093845260209093209092019161231191836157a5565b50601254601384848481811061232957612329615378565b905060200281019061233b919061575f565b604051612349929190615316565b908152604051908190036020019020555b6001016121f8565b61236a613d3c565b1561196f57612377613d72565b60005b8181101561196a576123b483838381811061239757612397615378565b90506020020160208101906123ac9190614d33565b601490614063565b5060010161237a565b600480546123ca906151d5565b80601f01602080910402602001604051908101604052809291908181526020018280546123f6906151d5565b80156124435780601f1061241857610100808354040283529160200191612443565b820191906000526020600020905b81548152906001019060200180831161242657829003601f168201915b505050505081565b612453611d52565b6001600160a01b0316336001600160a01b03161480612478575061247860163361409a565b6124d75760405162461bcd60e51b815260206004820152602a60248201527f6f6e6c7920676f7665726e616e6365206f7220656d657267656e63792070617560448201526973652073656e6465727360b01b6064820152608401610c36565b601c805460ff191660011790556040517f9e87fac88ff661f02d44f95383c817fece4bce600a3dab7a54406878b965e75290600090a1565b6000610bde600883614082565b6060610d856016613cb8565b6010546060906001600160401b0381111561254557612545614966565b60405190808252806020026020018201604052801561258b57816020015b6040805180820190915260608152600060208201528152602001906001900390816125635790505b50905060005b60105481101561190b5760116000601083815481106125b2576125b2615378565b906000526020600020015481526020019081526020016000206040518060400160405290816000820180546125e6906151d5565b80601f0160208091040260200160405190810160405280929190818152602001828054612612906151d5565b801561265f5780601f106126345761010080835404028352916020019161265f565b820191906000526020600020905b81548152906001019060200180831161264257829003601f168201915b5050509183525050600191909101546001600160801b0316602090910152825183908390811061269157612691615378565b6020908102919091010152600101612591565b6040805160808101825260008082526020820181905291810182905260608101919091526000828152600b60205260408120549081900361271a5760405162461bcd60e51b815260206004820152601060248201526f195cd8dc9bddc81b9bdd08199bdd5b9960821b6044820152606401610c36565b600a6127276001836154e8565b8154811061273757612737615378565b60009182526020918290206040805160808101825260029390930290910180548352600101546001600160801b03811693830193909352600160801b83046001600160401b031690820152600160c01b90910460ff16151560608201529392505050565b6127a3613d3c565b1561196f576127b0613d72565b806127cd5760405162461bcd60e51b8152600401610c3690615194565b600261196a8284836157a5565b600280546123ca906151d5565b6000546001600160a01b031633146128365760405162461bcd60e51b815260206004820152601260248201527137b7363c9030b9b9b2ba1036b0b730b3b2b960711b6044820152606401610c36565b8051602082012060005b600f548110156128b657600060116000600f848154811061286357612863615378565b9060005260206000200154815260200190815260200160002090508281600001604051612890919061538e565b6040518091039020036128a357506128b6565b816128ad81615404565b92505050612840565b600f5481106129075760405162461bcd60e51b815260206004820152601a60248201527f7472616e736665722072657175657374206e6f7420666f756e640000000000006044820152606401610c36565b6000600f828154811061291c5761291c615378565b600091825260208083209091015480835260119091526040822060010154601b80549294506001600160801b039182169384939192909161295f91859116615865565b92506101000a8154816001600160801b0302191690836001600160801b031602179055507f0776e30c405cb6361dca08afe3adaef611f1fee27e52b243284d2401a9f49e3985826040516129b4929190615885565b60405180910390a15b600f546129cc906001906154e8565b831015612a2057600f6129de84615404565b935083815481106129f1576129f1615378565b9060005260206000200154600f8481548110612a0f57612a0f615378565b6000918252602090912001556129bd565b600f805480612a3157612a316158b0565b600082815260208082208301600019908101839055909201909255838252601190526040812090612a6282826148dd565b5060010180546001600160801b03191690555050505050565b600080516020615a83833981519152546001600160a01b0316336001600160a01b031614612ae25760405162461bcd60e51b815260206004820152601460248201527337b7363c9030b2323932b9b9903ab83230ba32b960611b6044820152606401610c36565b612b28612b1683836040518060400160405280600e81526020016d20b2323932b9b9aab83230ba32b960911b8152506140bc565b600080516020615a8383398151915255565b61197c828261418d565b612b3d60143361409a565b612b895760405162461bcd60e51b815260206004820152601760248201527f6f6e6c792074726967676572696e67206163636f756e740000000000000000006044820152606401610c36565b601c5460ff1615612bc55760405162461bcd60e51b81526020600482015260066024820152651c185d5cd95960d21b6044820152606401610c36565b612bd06000196141e3565b50601a54600554600f54601b546001600160801b039384169360009291165b81831015612e51576000600f8481548110612c0c57612c0c615378565b600091825260208083209091015480835260119091526040909120600101549091506001600160801b0390811690871610612e3d576000818152601160205260408082208151808301909252805482908290612c67906151d5565b80601f0160208091040260200160405190810160405280929190818152602001828054612c93906151d5565b8015612ce05780601f10612cb557610100808354040283529160200191612ce0565b820191906000526020600020905b815481529060010190602001808311612cc357829003601f168201915b5050509183525050600191909101546001600160801b0316602091820152810151909150612d0e9088615865565b9650806020015183612d209190615865565b925085612d2c81615404565b96507f3a988f5527ab6eea3cc53e2e317540b2a691d99a5671df81e78aa26897108c5c600483600001518460200151604051612d6a93929190615943565b60405180910390a2845b612d7f6001866154e8565b811015612dd557600f612d938260016154fb565b81548110612da357612da3615378565b9060005260206000200154600f8281548110612dc157612dc1615378565b600091825260209091200155600101612d74565b50600f805480612de757612de76158b0565b600082815260208082208301600019908101839055909201909255838252601190526040812090612e1882826148dd565b5060010180546001600160801b031916905583612e348161552b565b94505050612e4b565b83612e4781615404565b9450505b50612bef565b601b80546001600160801b0319166001600160801b039283161790819055601054600094509250600160801b9004165b818310156130e357600060108481548110612e9e57612e9e615378565b600091825260208083209091015480835260119091526040909120600101549091506001600160801b03908116908716106130cf576000818152601160205260408082208151808301909252805482908290612ef9906151d5565b80601f0160208091040260200160405190810160405280929190818152602001828054612f25906151d5565b8015612f725780601f10612f4757610100808354040283529160200191612f72565b820191906000526020600020905b815481529060010190602001808311612f5557829003601f168201915b5050509183525050600191909101546001600160801b0316602091820152810151909150612fa09088615865565b9650806020015183612fb29190615865565b925085612fbe81615404565b96507f3a988f5527ab6eea3cc53e2e317540b2a691d99a5671df81e78aa26897108c5c600483600001518460200151604051612ffc93929190615943565b60405180910390a2845b6130116001866154e8565b8110156130675760106130258260016154fb565b8154811061303557613035615378565b90600052602060002001546010828154811061305357613053615378565b600091825260209091200155600101613006565b506010805480613079576130796158b0565b6000828152602080822083016000199081018390559092019092558382526011905260408120906130aa82826148dd565b5060010180546001600160801b0319169055836130c68161552b565b945050506130dd565b836130d981615404565b9450505b50612e81565b601b80546001600160801b03908116600160801b8483160217909155601954168015806131105750600083115b8061311c5750600f5415155b1561314b575050601a80546001600160801b0319166001600160801b0395909516949094179093555060055550565b600c5460195460009061316f908490600160801b90046001600160801b0316615358565b6001600160801b031690506131846008614078565b601a549095506001600160801b03600160801b90910481169450881681118015906131ae57508482105b156133665760006131bd614392565b90505b81896001600160801b0316101580156131d857508583105b1561335f576131e7848a615865565b98506131f38486615358565b9450600061320e8461320481615404565b9550600890614082565b604080516080810182528281526001600160801b0388811660208084019182526001600160401b03888116858701908152600060608701818152600a805460018101825581845289517fc65a7bb8d6351c1cf70c95a316cc6a92839c986682d98bc35f958f4883f9d2a860029092029182015596517fc65a7bb8d6351c1cf70c95a316cc6a92839c986682d98bc35f958f4883f9d2a9909701805494519251979098166001600160c01b031990941693909317600160801b91909416029290921760ff60c01b1916600160c01b94151594909402939093179093559054858352600b90915292902091909155909150818a61330881615404565b9b507fac7480fd2ed2f188560d17b850aec428a40c8dfce1e0aef20305edab4db649b1600460028a886040516133419493929190615982565b60405180910390a361335662015180846159d1565b925050506131c0565b50600c8290555b50505060059390935550506001600160801b03908116600160801b02911617601a555b565b6000610bde826141e3565b61339e613cc5565b60005b8181101561196a5760008383838181106133bd576133bd615378565b90506020020135036134115760405162461bcd60e51b815260206004820152601c60248201527f707265696d61676520686173682063616e6e6f74206265207a65726f000000006044820152606401610c36565b61343d83838381811061342657613426615378565b9050602002013560086144a990919063ffffffff16565b6134895760405162461bcd60e51b815260206004820152601c60248201527f707265696d616765206861736820616c726561647920657869737473000000006044820152606401610c36565b6001016133a1565b600080516020615aea833981519152805460009190600160a01b900460ff16801561352457508054604051630debfda360e41b81526001600160a01b0385811660048301529091169063debfda3090602401602060405180830381865afa158015613500573d6000803e3d6000fd5b505050506040513d601f19601f820116820180604052508101906135249190615742565b9392505050565b6000610d856008614078565b61353f613d3c565b1561196f5761354c613d72565b60005b8181101561196a576000601384848481811061356d5761356d615378565b905060200281019061357f919061575f565b60405161358d929190615316565b9081526020016040518091039020549050806000036135ac575061373d565b601254808210156136c557600060126135c66001846154e8565b815481106135d6576135d6615378565b9060005260206000200180546135eb906151d5565b80601f0160208091040260200160405190810160405280929190818152602001828054613617906151d5565b80156136645780601f1061363957610100808354040283529160200191613664565b820191906000526020600020905b81548152906001019060200180831161364757829003601f168201915b5050505050905080601260018561367b91906154e8565b8154811061368b5761368b615378565b9060005260206000200190816136a19190615257565b50826013826040516136b39190615326565b90815260405190819003602001902055505b60128054806136d6576136d66158b0565b6001900381819060005260206000200160006136f291906148dd565b9055601385858581811061370857613708615378565b905060200281019061371a919061575f565b604051613728929190615316565b90815260200160405180910390206000905550505b60010161354f565b600080516020615aea8339815191528054600160a01b900460ff16156137a45760405162461bcd60e51b8152602060048201526014602482015273696e697469616c6973656420213d2066616c736560601b6044820152606401610c36565b6001600160a01b0383166137fa5760405162461bcd60e51b815260206004820152601860248201527f676f7665726e616e63652073657474696e6773207a65726f00000000000000006044820152606401610c36565b6001600160a01b0382166138435760405162461bcd60e51b815260206004820152601060248201526f5f676f7665726e616e6365207a65726f60801b6044820152606401610c36565b80546001600160a01b038481166001600160a81b031990921691909117600160a01b1782556001820180549184166001600160a01b0319909216821790556040519081527f9789733827840833afc031fb2ef9ab6894271f77bad2085687cf4ae5c7bee4db9060200160405180910390a1505050565b6138c1613cc5565b600080516020615aea8339815191528054600160a81b900460ff16156139295760405162461bcd60e51b815260206004820152601a60248201527f616c726561647920696e2070726f64756374696f6e206d6f64650000000000006044820152606401610c36565b6001810180546001600160a01b03191690558054600160a81b60ff60a81b1982161782556040516001600160a01b0390911681527f83af113638b5422f9e977cebc0aaf0eaf2188eb9a8baae7f9d46c42b33a1560c9060200160405180910390a150565b613995613d3c565b15613a26576139a2613d72565b620151808310613a045760405162461bcd60e51b815260206004820152602760248201527f657363726f7720656e642074696d65206d757374206265206c657373207468616044820152666e20612064617960c81b6064820152608401610c36565b60188390556001600160801b03818116600160801b0290831617601955505050565b61196a6000366000613f37565b613a3b613cc5565b60005b8181101561196a57613a78838383818110613a5b57613a5b615378565b9050602002016020810190613a709190614d33565b60169061404e565b50600101613a3e565b613a89613cc5565b60005b8181101561196a576000600b6000858585818110613aac57613aac615378565b90506020020135815260200190815260200160002054905080600003613b075760405162461bcd60e51b815260206004820152601060248201526f195cd8dc9bddc81b9bdd08199bdd5b9960821b6044820152606401610c36565b6000600a613b166001846154e8565b81548110613b2657613b26615378565b906000526020600020906002020190508060010160189054906101000a900460ff1615613b955760405162461bcd60e51b815260206004820152601760248201527f657363726f7720616c72656164792066696e69736865640000000000000000006044820152606401610c36565b60018101805460ff60c01b1916600160c01b179055600d548211613c00576001810154601a80546001600160801b0392831692600091613bd791859116615865565b92506101000a8154816001600160801b0302191690836001600160801b03160217905550613c50565b6001810154601a80546001600160801b0392831692601091613c2b918591600160801b900416615865565b92506101000a8154816001600160801b0302191690836001600160801b031602179055505b848484818110613c6257613c62615378565b60018401546040516001600160801b03909116815260209182029390930135927f0451a3f480962e8772a6b24baac2d7869b328d0297ac8a8bef0723624e36424b92500160405180910390a25050600101613a8c565b60606000613524836144b5565b613ccd611d52565b6001600160a01b0316336001600160a01b0316146133895760405162461bcd60e51b815260206004820152600f60248201526e6f6e6c7920676f7665726e616e636560881b6044820152606401610c36565b3d604051818101604052816000823e8215613d38578181f35b8181fd5b600080516020615aea833981519152805460009190600160b01b900460ff1680611df5575054600160a81b900460ff1615919050565b600080516020615aea8339815191528054600160b01b900460ff1615613dae57333014613da157613da16159f1565b805460ff60b01b19169055565b61177f613cc5565b6000600080516020615aa3833981519152611e0d565b7f4910fdfa16fed3260ed0e7147f7cc6da11a60208b5b9406d12a635614ffd91435460ff1615613dff5761196a83614511565b826001600160a01b03166352d1902d6040518163ffffffff1660e01b8152600401602060405180830381865afa925050508015613e59575060408051601f3d908101601f19168201909252613e5691810190615a07565b60015b613ebc5760405162461bcd60e51b815260206004820152602e60248201527f45524331393637557067726164653a206e657720696d706c656d656e7461746960448201526d6f6e206973206e6f74205555505360901b6064820152608401610c36565b600080516020615aa38339815191528114613f2b5760405162461bcd60e51b815260206004820152602960248201527f45524331393637557067726164653a20756e737570706f727465642070726f786044820152681a58589b195555525160ba1b6064820152608401610c36565b5061196a8383836145ad565b600080516020615aea833981519152613f4e613cc5565b60008484604051613f60929190615316565b604080519182900382208454636221a54b60e01b845291519093506000926001600160a01b0390921691636221a54b9160048083019260209291908290030181865afa158015613fb4573d6000803e3d6000fd5b505050506040513d601f19601f82011682018060405250810190613fd89190615a07565b905083811015613fe55750825b6000613ff182426154fb565b600084815260028601602052604090819020829055519091507f8c02104dfc280f713854f25297de671710c544c58de69dbde8fb66974ce1ab9e9061403d908990899087908690615a20565b60405180910390a150505050505050565b6000613524836001600160a01b0384166145d8565b6000613524836001600160a01b038416614627565b6000610bde825490565b6000613524838361471a565b60006135248383614627565b6001600160a01b03811660009081526001830160205260408120541515613524565b600080826040516020016140d09190614fc3565b6040516020818303038152906040528051906020012090506000805b865181101561413e5786818151811061410757614107615378565b602002602001015183036141365785818151811061412757614127615378565b6020026020010151915061413e565b6001016140ec565b506001600160a01b0381166141845760405162461bcd60e51b815260206004820152600c60248201526b61646472657373207a65726f60a01b6044820152606401610c36565b95945050505050565b6141bf82826040518060400160405280600f81526020016e233231ab32b934b334b1b0ba34b7b760891b8152506140bc565b600680546001600160a01b0319166001600160a01b03929092169190911790555050565b601a54600d546000916001600160801b0380821692600160801b90920416905b6000851180156142145750600a5481105b801561428e575042600a828154811061422f5761422f615378565b6000918252602090912060029091020160010154600160801b90046001600160401b031611158061428e5750600a818154811061426e5761426e615378565b906000526020600020906002020160010160189054906101000a900460ff165b1561433757600a81815481106142a6576142a6615378565b906000526020600020906002020160010160189054906101000a900460ff16614317576000600a82815481106142de576142de615378565b60009182526020909120600160029092020101546001600160801b031690506143078185615358565b93506143138184615865565b9250505b8061432181615404565b915050848061432f9061552b565b955050614203565b600d8190556001600160801b03828116600160801b0290841617601a556000859003614387576040517f0306fa81e0cf1311aeee18d2d319bb52e97692b3b5ff4144eba92e5f6d59b40990600090a15b505050901515919050565b600a5460009081905b600d5481111561443f57600a6143b26001836154e8565b815481106143c2576143c2615378565b906000526020600020906002020160010160189054906101000a900460ff1661442d57600a6143f26001836154e8565b8154811061440257614402615378565b6000918252602090912060029091020160010154600160801b90046001600160401b0316915061443f565b806144378161552b565b91505061439b565b5061444a8142614744565b905061445962015180826154fb565b60185490915061446c6201518083615a60565b61447690836154e8565b61448091906154fb565b905061448e4261a8c06154fb565b81116144a4576144a162015180826154fb565b90505b919050565b600061352483836145d8565b60608160000180548060200260200160405190810160405280929190818152602001828054801561450557602002820191906000526020600020905b8154815260200190600101908083116144f1575b50505050509050919050565b6001600160a01b0381163b61457e5760405162461bcd60e51b815260206004820152602d60248201527f455243313936373a206e657720696d706c656d656e746174696f6e206973206e60448201526c1bdd08184818dbdb9d1c9858dd609a1b6064820152608401610c36565b600080516020615aa383398151915280546001600160a01b0319166001600160a01b0392909216919091179055565b6145b68361475a565b6000825111806145c35750805b1561196a576145d2838361479a565b50505050565b600081815260018301602052604081205461461f57508154600181810184556000848152602080822090930184905584548482528286019093526040902091909155610bde565b506000610bde565b6000818152600183016020526040812054801561471057600061464b6001836154e8565b855490915060009061465f906001906154e8565b90508181146146c457600086600001828154811061467f5761467f615378565b90600052602060002001549050808760000184815481106146a2576146a2615378565b6000918252602080832090910192909255918252600188019052604090208390555b85548690806146d5576146d56158b0565b600190038181906000526020600020016000905590558560010160008681526020019081526020016000206000905560019350505050610bde565b6000915050610bde565b600082600001828154811061473157614731615378565b9060005260206000200154905092915050565b60008183116147535781613524565b5090919050565b61476381614511565b6040516001600160a01b038216907fbc7cd75a20ee27fd9adebab32041f755214dbc6bffa90cc0225b39da2e5c2d3b90600090a250565b60606135248383604051806060016040528060278152602001615ac3602791396060600080856001600160a01b0316856040516147d79190615326565b600060405180830381855af49150503d8060008114614812576040519150601f19603f3d011682016040523d82523d6000602084013e614817565b606091505b509150915061482886838387614832565b9695505050505050565b606083156148a157825160000361489a576001600160a01b0385163b61489a5760405162461bcd60e51b815260206004820152601d60248201527f416464726573733a2063616c6c20746f206e6f6e2d636f6e74726163740000006044820152606401610c36565b50816148ab565b6148ab83836148b3565b949350505050565b8151156148c35781518083602001fd5b8060405162461bcd60e51b8152600401610c369190614fc3565b5080546148e9906151d5565b6000825580601f106148f9575050565b601f01602090049060005260206000209081019061177f91905b8082111561190b5760008155600101614913565b60006020828403121561493957600080fd5b81356001600160e01b03198116811461352457600080fd5b6001600160a01b038116811461177f57600080fd5b634e487b7160e01b600052604160045260246000fd5b604051601f8201601f191681016001600160401b03811182821017156149a4576149a4614966565b604052919050565b60006001600160401b038311156149c5576149c5614966565b6149d8601f8401601f191660200161497c565b90508281528383830111156149ec57600080fd5b828260208301376000602084830101529392505050565b600082601f830112614a1457600080fd5b613524838335602085016149ac565b600080600080600080600080610100898b031215614a4057600080fd5b8835614a4b81614951565b97506020890135614a5b81614951565b96506040890135614a6b81614951565b95506060890135614a7b81614951565b94506080890135935060a08901356001600160401b0380821115614a9e57600080fd5b614aaa8c838d01614a03565b945060c08b0135915080821115614ac057600080fd5b50614acd8b828c01614a03565b92505060e089013590509295985092959890939650565b6020808252825182820181905260009190848201906040850190845b81811015614b255783516001600160a01b031683529284019291840191600101614b00565b50909695505050505050565b60008083601f840112614b4357600080fd5b5081356001600160401b03811115614b5a57600080fd5b602083019150836020828501011115614b7257600080fd5b9250929050565b60008060208385031215614b8c57600080fd5b82356001600160401b03811115614ba257600080fd5b614bae85828601614b31565b90969095509350505050565b60005b83811015614bd5578181015183820152602001614bbd565b50506000910152565b60008151808452614bf6816020860160208601614bba565b601f01601f19169290920160200192915050565b600060208083016020845280855180835260408601915060408160051b87010192506020870160005b82811015614c6157603f19888603018452614c4f858351614bde565b94509285019290850190600101614c33565b5092979650505050505050565b80356001600160801b03811681146144a457600080fd5b801515811461177f57600080fd5b80356144a481614c85565b600080600060608486031215614cb357600080fd5b83356001600160401b03811115614cc957600080fd5b614cd586828701614a03565b935050614ce460208501614c6e565b91506040840135614cf481614c85565b809150509250925092565b600060208284031215614d1157600080fd5b81356001600160401b03811115614d2757600080fd5b6148ab84828501614a03565b600060208284031215614d4557600080fd5b813561352481614951565b600060208284031215614d6257600080fd5b5035919050565b600060208083018184528085518083526040925060408601915060408160051b87010184880160005b83811015614ddc57888303603f1901855281518051878552614db688860182614bde565b918901516001600160801b03169489019490945294870194925090860190600101614d92565b509098975050505050505050565b60008083601f840112614dfc57600080fd5b5081356001600160401b03811115614e1357600080fd5b6020830191508360208260051b8501011115614b7257600080fd5b60008060208385031215614e4157600080fd5b82356001600160401b03811115614e5757600080fd5b614bae85828601614dea565b60008060408385031215614e7657600080fd5b8235614e8181614951565b915060208301356001600160401b03811115614e9c57600080fd5b8301601f81018513614ead57600080fd5b614ebc858235602084016149ac565b9150509250929050565b805182526001600160801b0360208201511660208301526001600160401b0360408201511660408301526060810151151560608301525050565b6020808252825182820181905260009190848201906040850190845b81811015614b2557614f2f838551614ec6565b9284019260809290920191600101614f1c565b60808101610bde8284614ec6565b6020808252825182820181905260009190848201906040850190845b81811015614b2557835183529284019291840191600101614f6c565b600060208284031215614f9a57600080fd5b81356001600160401b03811115614fb057600080fd5b82016102a0818503121561352457600080fd5b6020815260006135246020830184614bde565b60006001600160401b03821115614fef57614fef614966565b5060051b60200190565b600082601f83011261500a57600080fd5b8135602061501f61501a83614fd6565b61497c565b8083825260208201915060208460051b87010193508684111561504157600080fd5b602086015b8481101561506657803561505981614951565b8352918301918301615046565b509695505050505050565b6000806040838503121561508457600080fd5b82356001600160401b038082111561509b57600080fd5b818501915085601f8301126150af57600080fd5b813560206150bf61501a83614fd6565b82815260059290921b840181019181810190898411156150de57600080fd5b948201945b838610156150fc578535825294820194908201906150e3565b9650508601359250508082111561511257600080fd5b50614ebc85828601614ff9565b6000806040838503121561513257600080fd5b823561513d81614951565b9150602083013561514d81614951565b809150509250929050565b60008060006060848603121561516d57600080fd5b8335925061517d60208501614c6e565b915061518b60408501614c6e565b90509250925092565b60208082526021908201527f637573746f6469616e20616464726573732063616e6e6f7420626520656d70746040820152607960f81b606082015260800190565b600181811c908216806151e957607f821691505b60208210810361520957634e487b7160e01b600052602260045260246000fd5b50919050565b601f82111561196a576000816000526020600020601f850160051c810160208610156152385750805b601f850160051c820191505b8181101561167c57828155600101615244565b81516001600160401b0381111561527057615270614966565b6152848161527e84546151d5565b8461520f565b602080601f8311600181146152b957600084156152a15750858301515b600019600386901b1c1916600185901b17855561167c565b600085815260208120601f198616915b828110156152e8578886015182559484019460019091019084016152c9565b50858210156153065787850151600019600388901b60f8161c191681555b5050505050600190811b01905550565b8183823760009101908152919050565b60008251615338818460208701614bba565b9190910192915050565b634e487b7160e01b600052601160045260246000fd5b6001600160801b03818116838216019080821115611ec857611ec8615342565b634e487b7160e01b600052603260045260246000fd5b600080835461539c816151d5565b600182811680156153b457600181146153c9576153f8565b60ff19841687528215158302870194506153f8565b8760005260208060002060005b858110156153ef5781548a8201529084019082016153d6565b50505082870194505b50929695505050505050565b60006001820161541657615416615342565b5060010190565b6060815260006154306060830186614bde565b6001600160801b0394909416602083015250901515604090910152919050565b6020808252602c908201527f46756e6374696f6e206d7573742062652063616c6c6564207468726f7567682060408201526b19195b1959d85d1958d85b1b60a21b606082015260800190565b6020808252602c908201527f46756e6374696f6e206d7573742062652063616c6c6564207468726f7567682060408201526b6163746976652070726f787960a01b606082015260800190565b81810381811115610bde57610bde615342565b80820180821115610bde57610bde615342565b60006020828403121561552057600080fd5b815161352481614951565b60008161553a5761553a615342565b506000190190565b803560ff811681146144a457600080fd5b60006020828403121561556557600080fd5b61352482615542565b80356001600160401b03811681146144a457600080fd5b803582526020810135602083015261559f6040820161556e565b6001600160401b038082166040850152806155bc6060850161556e565b16606085015250506080810135608083015260a081013560a083015260c081013560c083015261560260e083016155f560e0840161556e565b6001600160401b03169052565b61010061561081830161556e565b6001600160401b03169083015261012081810135908301526101408082013590830152610160808201359083015261018080820135908301526101a080820135908301526101c080820135908301526101e080820135908301526102008082013590830152610220808201359083015261024061568e818301614c93565b1515908301526102606156a2828201615542565b60ff8116848301526145d2565b6020815260008235601e198436030181126156c957600080fd5b83016020810190356001600160401b038111156156e557600080fd5b8060051b8036038313156156f857600080fd5b6102a060208601526102c085018290526102e06001600160fb1b0383111561571f57600080fd5b8184828801376157356040870160208901615585565b9401909301949350505050565b60006020828403121561575457600080fd5b815161352481614c85565b6000808335601e1984360301811261577657600080fd5b8301803591506001600160401b0382111561579057600080fd5b602001915036819003821315614b7257600080fd5b6001600160401b038311156157bc576157bc614966565b6157d0836157ca83546151d5565b8361520f565b6000601f84116001811461580457600085156157ec5750838201355b600019600387901b1c1916600186901b17835561585e565b600083815260209020601f19861690835b828110156158355786850135825560209485019460019092019101615815565b50868210156158525760001960f88860031b161c19848701351681555b505060018560011b0183555b5050505050565b6001600160801b03828116828216039080821115611ec857611ec8615342565b6040815260006158986040830185614bde565b90506001600160801b03831660208301529392505050565b634e487b7160e01b600052603160045260246000fd5b600081546158d3816151d5565b8085526020600183811680156158f0576001811461590a57615938565b60ff1985168884015283151560051b880183019550615938565b866000528260002060005b858110156159305781548a8201860152908301908401615915565b890184019650505b505050505092915050565b60608152600061595660608301866158c6565b82810360208401526159688186614bde565b9150506001600160801b0383166040830152949350505050565b60808152600061599560808301876158c6565b82810360208401526159a781876158c6565b9150506001600160801b03841660408301526001600160401b038316606083015295945050505050565b6001600160401b03818116838216019080821115611ec857611ec8615342565b634e487b7160e01b600052600160045260246000fd5b600060208284031215615a1957600080fd5b5051919050565b606081528360608201528385608083013760006080858301015260006080601f19601f870116830101905083602083015282604083015295945050505050565b600082615a7d57634e487b7160e01b600052601260045260246000fd5b50069056fe714f205b2abd25bef1d06a1af944e38c113fe6160375c4e1d6d5cf28848e7719360894a13ba1a3210667c828492db98dca3e2076cc3735a920a3ca505d382bbc416464726573733a206c6f772d6c6576656c2064656c65676174652063616c6c206661696c65642aa47ee5db910f3b2a06970c443249cc77dbd9f96100cfebc1775ab7fb1d1824a2646970667358221220b04d5df7e0f22e5ff0a0a5590cb5bd17e8921408db5badbaff84f47aa1a998cc64736f6c63430008170033",
  "linkReferences": {},
  "deployedLinkReferences": {}
}