{
  "_format": "hh-sol-artifact-1",
  "contractName": "AgentVault",
  "sourceName": "contracts/assetManager/implementation/AgentVault.sol",
  "abi": [
    {
      "inputs": [
        {
          "internalType": "contract IIAssetManager",
          "name": "_assetManager",
          "type": "address"
        }
      ],
      "stateMutability": "nonpayable",
      "type": "constructor"
    },
    {
      "inputs": [],
      "name": "assetManager",
      "outputs": [
        {
          "internalType": "contract IIAssetManager",
          "name": "",
          "type": "address"
        }
      ],
      "stateMutability": "view",
      "type": "function"
    },
    {
      "inputs": [],
      "name": "buyCollateralPoolTokens",
      "outputs": [],
      "stateMutability": "payable",
      "type": "function"
    },
    {
      "inputs": [
        {
          "internalType": "contract IDistributionToDelegators",
          "name": "_distribution",
          "type": "address"
        },
        {
          "internalType": "uint256",
          "name": "_month",
          "type": "uint256"
        },
        {
          "internalType": "address payable",
          "name": "_recipient",
          "type": "address"
        }
      ],
      "name": "claimAirdropDistribution",
      "outputs": [
        {
          "internalType": "uint256",
          "name": "",
          "type": "uint256"
        }
      ],
      "stateMutability": "nonpayable",
      "type": "function"
    },
    {
      "inputs": [
        {
          "internalType": "contract IRewardManager",
          "name": "_rewardManager",
          "type": "address"
        },
        {
          "internalType": "uint24",
          "name": "_lastRewardEpoch",
          "type": "uint24"
        },
        {
          "internalType": "address payable",
          "name": "_recipient",
          "type": "address"
        },
        {
          "components": [
            {
              "internalType": "bytes32[]",
              "name": "merkleProof",
              "type": "bytes32[]"
            },
            {
              "components": [
                {
                  "internalType": "uint24",
                  "name": "rewardEpochId",
                  "type": "uint24"
                },
                {
                  "internalType": "bytes20",
                  "name": "beneficiary",
                  "type": "bytes20"
                },
                {
                  "internalType": "uint120",
                  "name": "amount",
                  "type": "uint120"
                },
                {
                  "internalType": "enum RewardsV2Interface.ClaimType",
                  "name": "claimType",
                  "type": "uint8"
                }
              ],
              "internalType": "struct RewardsV2Interface.RewardClaim",
              "name": "body",
              "type": "tuple"
            }
          ],
          "internalType": "struct RewardsV2Interface.RewardClaimWithProof[]",
          "name": "_proofs",
          "type": "tuple[]"
        }
      ],
      "name": "claimDelegationRewards",
      "outputs": [
        {
          "internalType": "uint256",
          "name": "",
          "type": "uint256"
        }
      ],
      "stateMutability": "nonpayable",
      "type": "function"
    },
    {
      "inputs": [],
      "name": "collateralPool",
      "outputs": [
        {
          "internalType": "contract ICollateralPool",
          "name": "",
          "type": "address"
        }
      ],
      "stateMutability": "view",
      "type": "function"
    },
    {
      "inputs": [
        {
          "internalType": "contract IVPToken",
          "name": "_token",
          "type": "address"
        },
        {
          "internalType": "address",
          "name": "_to",
          "type": "address"
        },
        {
          "internalType": "uint256",
          "name": "_bips",
          "type": "uint256"
        }
      ],
      "name": "delegate",
      "outputs": [],
      "stateMutability": "nonpayable",
      "type": "function"
    },
    {
      "inputs": [
        {
          "internalType": "contract IVPToken",
          "name": "_token",
          "type": "address"
        },
        {
          "internalType": "address",
          "name": "_to",
          "type": "address"
        }
      ],
      "name": "delegateGovernance",
      "outputs": [],
      "stateMutability": "nonpayable",
      "type": "function"
    },
    {
      "inputs": [
        {
          "internalType": "contract IERC20",
          "name": "_token",
          "type": "address"
        },
        {
          "internalType": "uint256",
          "name": "_amount",
          "type": "uint256"
        }
      ],
      "name": "depositCollateral",
      "outputs": [],
      "stateMutability": "nonpayable",
      "type": "function"
    },
    {
      "inputs": [
        {
          "internalType": "contract IWNat",
          "name": "_wNat",
          "type": "address"
        }
      ],
      "name": "depositNat",
      "outputs": [],
      "stateMutability": "payable",
      "type": "function"
    },
    {
      "inputs": [
        {
          "internalType": "address payable",
          "name": "_recipient",
          "type": "address"
        }
      ],
      "name": "destroy",
      "outputs": [],
      "stateMutability": "nonpayable",
      "type": "function"
    },
    {
      "inputs": [
        {
          "internalType": "contract IIAssetManager",
          "name": "_assetManager",
          "type": "address"
        }
      ],
      "name": "initialize",
      "outputs": [],
      "stateMutability": "nonpayable",
      "type": "function"
    },
    {
      "inputs": [
        {
          "internalType": "address",
          "name": "_address",
          "type": "address"
        }
      ],
      "name": "isOwner",
      "outputs": [
        {
          "internalType": "bool",
          "name": "",
          "type": "bool"
        }
      ],
      "stateMutability": "view",
      "type": "function"
    },
    {
      "inputs": [
        {
          "internalType": "contract IDistributionToDelegators",
          "name": "_distribution",
          "type": "address"
        }
      ],
      "name": "optOutOfAirdrop",
      "outputs": [],
      "stateMutability": "nonpayable",
      "type": "function"
    },
    {
      "inputs": [
        {
          "internalType": "contract IERC20",
          "name": "_token",
          "type": "address"
        },
        {
          "internalType": "address",
          "name": "_recipient",
          "type": "address"
        },
        {
          "internalType": "uint256",
          "name": "_amount",
          "type": "uint256"
        }
      ],
      "name": "payout",
      "outputs": [],
      "stateMutability": "nonpayable",
      "type": "function"
    },
    {
      "inputs": [
        {
          "internalType": "contract IWNat",
          "name": "_wNat",
          "type": "address"
        },
        {
          "internalType": "address payable",
          "name": "_recipient",
          "type": "address"
        },
        {
          "internalType": "uint256",
          "name": "_amount",
          "type": "uint256"
        }
      ],
      "name": "payoutNAT",
      "outputs": [],
      "stateMutability": "nonpayable",
      "type": "function"
    },
    {
      "inputs": [
        {
          "internalType": "uint256",
          "name": "_amount",
          "type": "uint256"
        },
        {
          "internalType": "address payable",
          "name": "_recipient",
          "type": "address"
        }
      ],
      "name": "redeemCollateralPoolTokens",
      "outputs": [],
      "stateMutability": "nonpayable",
      "type": "function"
    },
    {
      "inputs": [
        {
          "internalType": "contract IVPToken",
          "name": "_token",
          "type": "address"
        },
        {
          "internalType": "address",
          "name": "_who",
          "type": "address"
        },
        {
          "internalType": "uint256",
          "name": "_blockNumber",
          "type": "uint256"
        }
      ],
      "name": "revokeDelegationAt",
      "outputs": [],
      "stateMutability": "nonpayable",
      "type": "function"
    },
    {
      "inputs": [
        {
          "internalType": "bytes4",
          "name": "_interfaceId",
          "type": "bytes4"
        }
      ],
      "name": "supportsInterface",
      "outputs": [
        {
          "internalType": "bool",
          "name": "",
          "type": "bool"
        }
      ],
      "stateMutability": "pure",
      "type": "function"
    },
    {
      "inputs": [
        {
          "internalType": "contract IERC20",
          "name": "_token",
          "type": "address"
        },
        {
          "internalType": "uint256",
          "name": "_amount",
          "type": "uint256"
        }
      ],
      "name": "transferExternalToken",
      "outputs": [],
      "stateMutability": "nonpayable",
      "type": "function"
    },
    {
      "inputs": [
        {
          "internalType": "contract IVPToken",
          "name": "_token",
          "type": "address"
        }
      ],
      "name": "undelegateAll",
      "outputs": [],
      "stateMutability": "nonpayable",
      "type": "function"
    },
    {
      "inputs": [
        {
          "internalType": "contract IVPToken",
          "name": "_token",
          "type": "address"
        }
      ],
      "name": "undelegateGovernance",
      "outputs": [],
      "stateMutability": "nonpayable",
      "type": "function"
    },
    {
      "inputs": [
        {
          "internalType": "contract IERC20",
          "name": "_token",
          "type": "address"
        }
      ],
      "name": "updateCollateral",
      "outputs": [],
      "stateMutability": "nonpayable",
      "type": "function"
    },
    {
      "inputs": [
        {
          "internalType": "contract IERC20",
          "name": "_token",
          "type": "address"
        },
        {
          "internalType": "uint256",
          "name": "_amount",
          "type": "uint256"
        },
        {
          "internalType": "address",
          "name": "_recipient",
          "type": "address"
        }
      ],
      "name": "withdrawCollateral",
      "outputs": [],
      "stateMutability": "nonpayable",
      "type": "function"
    },
    {
      "inputs": [
        {
          "internalType": "uint256",
          "name": "_amount",
          "type": "uint256"
        },
        {
          "internalType": "address",
          "name": "_recipient",
          "type": "address"
        }
      ],
      "name": "withdrawPoolFees",
      "outputs": [],
      "stateMutability": "nonpayable",
      "type": "function"
    },
    {
      "stateMutability": "payable",
      "type": "receive"
    }
  ],
  "bytecode": "0x60806040523480156200001157600080fd5b5060405162002084380380620020848339810160408190526200003491620000ce565b6200003f8162000046565b5062000100565b600054600160a01b900460ff1615620000a55760405162461bcd60e51b815260206004820152601360248201527f616c726561647920696e697469616c697a656400000000000000000000000000604482015260640160405180910390fd5b600080546001600160a01b039092166001600160a81b031990921691909117600160a01b179055565b600060208284031215620000e157600080fd5b81516001600160a01b0381168114620000f957600080fd5b9392505050565b611f7480620001106000396000f3fe60806040526004361061014e5760003560e01c8063751aa8d6116100b6578063a5d5db0c1161006f578063a5d5db0c14610413578063a6fc49cc14610433578063c26f3acf14610453578063c4d66de814610473578063d348400c14610493578063ff0eccf61461049b57600080fd5b8063751aa8d61461032d5780637a7da0041461035b57806386ac57a21461037b57806394217ad11461039b57806397c9c8f8146103d3578063a3ea6d1b146103f357600080fd5b80632772e48b116101085780632772e48b1461027a5780632f54bf6e1461029a578063489a8a47146102ba5780635eb71cfb146102da578063648d0878146102fa578063677fa2321461031a57600080fd5b8062f55d9d146101a557806301ffc9a7146101c55780631cc7c5f3146101fa5780631d75e42a1461021a5780631f1088a01461023a57806320f801d41461025a57600080fd5b366101a05760035460ff1661019e5760405162461bcd60e51b8152602060048201526011602482015270696e7465726e616c20757365206f6e6c7960781b60448201526064015b60405180910390fd5b005b600080fd5b3480156101b157600080fd5b5061019e6101c03660046119d4565b6104b0565b3480156101d157600080fd5b506101e56101e03660046119f8565b61070a565b60405190151581526020015b60405180910390f35b34801561020657600080fd5b5061019e610215366004611a22565b61075c565b34801561022657600080fd5b5061019e610235366004611a52565b61090a565b34801561024657600080fd5b5061019e610255366004611a80565b6109f9565b34801561026657600080fd5b5061019e610275366004611ac2565b610abd565b34801561028657600080fd5b5061019e610295366004611a22565b610b03565b3480156102a657600080fd5b506101e56102b53660046119d4565b610b98565b3480156102c657600080fd5b5061019e6102d5366004611b03565b610c0d565b3480156102e657600080fd5b5061019e6102f53660046119d4565b610d96565b34801561030657600080fd5b5061019e610315366004611ac2565b610e11565b61019e6103283660046119d4565b610e4e565b34801561033957600080fd5b5061034d610348366004611b47565b610f14565b6040519081526020016101f1565b34801561036757600080fd5b5061019e6103763660046119d4565b610fbf565b34801561038757600080fd5b5061019e6103963660046119d4565b61101c565b3480156103a757600080fd5b506000546103bb906001600160a01b031681565b6040516001600160a01b0390911681526020016101f1565b3480156103df57600080fd5b5061019e6103ee3660046119d4565b61107c565b3480156103ff57600080fd5b5061019e61040e366004611ac2565b61113d565b34801561041f57600080fd5b5061019e61042e366004611b03565b6111c9565b34801561043f57600080fd5b5061034d61044e366004611a80565b611273565b34801561045f57600080fd5b5061019e61046e366004611ac2565b611322565b34801561047f57600080fd5b5061019e61048e3660046119d4565b6113b4565b61019e61142d565b3480156104a757600080fd5b506103bb6114aa565b6000546001600160a01b031633146104da5760405162461bcd60e51b815260040161019590611bf0565b6104e261151c565b60015460005b818110156106e45760006001828154811061050557610505611c1c565b60009182526020808320909101546001600160a01b0316808352600290915260409091205490915060048116156105eb57816001600160a01b0316638c2b8ae16040518163ffffffff1660e01b8152600401602060405180830381865afa158015610574573d6000803e3d6000fd5b505050506040513d601f19601f820116820180604052508101906105989190611c32565b6001600160a01b03166392ab89bb6040518163ffffffff1660e01b8152600401600060405180830381600087803b1580156105d257600080fd5b505af11580156105e6573d6000803e3d6000fd5b505050505b600281161561064857816001600160a01b031663b302f3936040518163ffffffff1660e01b8152600401600060405180830381600087803b15801561062f57600080fd5b505af1158015610643573d6000803e3d6000fd5b505050505b60018116156106da576040516370a0823160e01b81523060048201526000906001600160a01b038416906370a0823190602401602060405180830381865afa158015610698573d6000803e3d6000fd5b505050506040513d601f19601f820116820180604052508101906106bc9190611c4f565b905080156106d8576106d86001600160a01b0384168783611583565b505b50506001016104e8565b506106ef82476115e6565b506107076001600080516020611f1f83398151915255565b50565b60006001600160e01b031982166301ffc9a760e01b148061073b57506001600160e01b03198216630fe2a0a560e31b145b8061075657506001600160e01b031982166326228cef60e21b145b92915050565b61076533610b98565b6107815760405162461bcd60e51b815260040161019590611c68565b61078961151c565b60006107936114aa565b905060008054906101000a90046001600160a01b03166001600160a01b031663469052ad826001600160a01b031663cbdf382c6040518163ffffffff1660e01b8152600401602060405180830381865afa1580156107f5573d6000803e3d6000fd5b505050506040513d601f19601f820116820180604052508101906108199190611c32565b6040516001600160e01b031960e084901b1681526001600160a01b03909116600482015260248101869052604401600060405180830381600087803b15801561086157600080fd5b505af1158015610875573d6000803e3d6000fd5b505060405163eaf413fd60e01b81526001600160a01b038416925063eaf413fd91506108aa9086908690600090600401611c8c565b60408051808303816000875af11580156108c8573d6000803e3d6000fd5b505050506040513d601f19601f820116820180604052508101906108ec9190611cce565b5050506109066001600080516020611f1f83398151915255565b5050565b61091333610b98565b61092f5760405162461bcd60e51b815260040161019590611c68565b816001600160a01b0316638c2b8ae16040518163ffffffff1660e01b8152600401602060405180830381865afa15801561096d573d6000803e3d6000fd5b505050506040513d601f19601f820116820180604052508101906109919190611c32565b6040516317066a5760e21b81526001600160a01b0383811660048301529190911690635c19a95c90602401600060405180830381600087803b1580156109d657600080fd5b505af11580156109ea573d6000803e3d6000fd5b50505050610906826004611681565b610a0233610b98565b610a1e5760405162461bcd60e51b815260040161019590611c68565b610a2661151c565b60005460405163469052ad60e01b81526001600160a01b038581166004830152602482018590529091169063469052ad90604401600060405180830381600087803b158015610a7457600080fd5b505af1158015610a88573d6000803e3d6000fd5b50610aa1925050506001600160a01b0384168284611583565b610ab86001600080516020611f1f83398151915255565b505050565b6000546001600160a01b03163314610ae75760405162461bcd60e51b815260040161019590611bf0565b610aef61151c565b610aa16001600160a01b0384168383611583565b610b0c33610b98565b610b285760405162461bcd60e51b815260040161019590611c68565b610b306114aa565b60405163868c3ba760e01b8152600481018490526001600160a01b038381166024830152919091169063868c3ba790604401600060405180830381600087803b158015610b7c57600080fd5b505af1158015610b90573d6000803e3d6000fd5b505050505050565b6000805460405163d6b93a9f60e01b81523060048201526001600160a01b0384811660248301529091169063d6b93a9f90604401602060405180830381865afa158015610be9573d6000803e3d6000fd5b505050506040513d601f19601f820116820180604052508101906107569190611cf2565b610c1633610b98565b610c325760405162461bcd60e51b815260040161019590611c68565b610c3a61151c565b60005460405163700104f760e01b81523060048201526001600160a01b0384811660248301529091169063700104f790604401602060405180830381865afa158015610c8a573d6000803e3d6000fd5b505050506040513d601f19601f82011682018060405250810190610cae9190611cf2565b15610cfb5760405162461bcd60e51b815260206004820152601a60248201527f6f6e6c79206e6f6e2d636f6c6c61746572616c20746f6b656e730000000000006044820152606401610195565b60008054604051636e61164f60e01b81523060048201526001600160a01b0390911690636e61164f90602401602060405180830381865afa158015610d44573d6000803e3d6000fd5b505050506040513d601f19601f82011682018060405250810190610d689190611c32565b9050610d7e6001600160a01b0384168284611583565b506109066001600080516020611f1f83398151915255565b610d9f33610b98565b610dbb5760405162461bcd60e51b815260040161019590611c68565b806001600160a01b031663b302f3936040518163ffffffff1660e01b8152600401600060405180830381600087803b158015610df657600080fd5b505af1158015610e0a573d6000803e3d6000fd5b5050505050565b6000546001600160a01b03163314610e3b5760405162461bcd60e51b815260040161019590611bf0565b610e4361151c565b610aa183838361170d565b806001600160a01b031663d0e30db0346040518263ffffffff1660e01b81526004016000604051808303818588803b158015610e8957600080fd5b505af1158015610e9d573d6000803e3d6000fd5b505060005460405163053fe26160e31b81523060048201526001600160a01b03868116602483015290911693506329ff1308925060440190505b600060405180830381600087803b158015610ef157600080fd5b505af1158015610f05573d6000803e3d6000fd5b50505050610707816001611681565b6000610f1f33610b98565b610f3b5760405162461bcd60e51b815260040161019590611c68565b604051638e33aba560e01b81526001600160a01b03871690638e33aba590610f7290309088908a906000908a908a90600401611d91565b6020604051808303816000875af1158015610f91573d6000803e3d6000fd5b505050506040513d601f19601f82011682018060405250810190610fb59190611c4f565b9695505050505050565b610fc833610b98565b610fe45760405162461bcd60e51b815260040161019590611c68565b60005460405163053fe26160e31b81523060048201526001600160a01b038381166024830152909116906329ff130890604401610ed7565b61102533610b98565b6110415760405162461bcd60e51b815260040161019590611c68565b806001600160a01b031663f2a1f7676040518163ffffffff1660e01b8152600401600060405180830381600087803b158015610df657600080fd5b61108533610b98565b6110a15760405162461bcd60e51b815260040161019590611c68565b806001600160a01b0316638c2b8ae16040518163ffffffff1660e01b8152600401602060405180830381865afa1580156110df573d6000803e3d6000fd5b505050506040513d601f19601f820116820180604052508101906111039190611c32565b6001600160a01b03166392ab89bb6040518163ffffffff1660e01b8152600401600060405180830381600087803b158015610df657600080fd5b61114633610b98565b6111625760405162461bcd60e51b815260040161019590611c68565b60405163177adf7f60e31b81526001600160a01b0383811660048301526024820183905284169063bbd6fbf890604401600060405180830381600087803b1580156111ac57600080fd5b505af11580156111c0573d6000803e3d6000fd5b50505050505050565b6111d233610b98565b6111ee5760405162461bcd60e51b815260040161019590611c68565b6112036001600160a01b038316333084611789565b60005460405163053fe26160e31b81523060048201526001600160a01b038481166024830152909116906329ff130890604401600060405180830381600087803b15801561125057600080fd5b505af1158015611264573d6000803e3d6000fd5b50505050610906826001611681565b600061127e33610b98565b61129a5760405162461bcd60e51b815260040161019590611c68565b60405163596090c960e11b81523060048201526001600160a01b038381166024830152604482018590526000606483015285169063b2c12192906084016020604051808303816000875af11580156112f6573d6000803e3d6000fd5b505050506040513d601f19601f8201168201806040525081019061131a9190611c4f565b949350505050565b61132b33610b98565b6113475760405162461bcd60e51b815260040161019590611c68565b60405163026e402b60e01b81526001600160a01b0383811660048301526024820183905284169063026e402b90604401600060405180830381600087803b15801561139157600080fd5b505af11580156113a5573d6000803e3d6000fd5b50505050610ab8836002611681565b600054600160a01b900460ff16156114045760405162461bcd60e51b8152602060048201526013602482015272185b1c9958591e481a5b9a5d1a585b1a5e9959606a1b6044820152606401610195565b600080546001600160a01b039092166001600160a81b031990921691909117600160a01b179055565b6114356114aa565b60405163ac3736c160e01b815260006004820181905260248201526001600160a01b03919091169063ac3736c1903490604401604080518083038185885af1158015611485573d6000803e3d6000fd5b50505050506040513d601f19601f820116820180604052508101906109069190611cce565b6000805460405163292979d160e11b81523060048201526001600160a01b0390911690635252f3a290602401602060405180830381865afa1580156114f3573d6000803e3d6000fd5b505050506040513d601f19601f820116820180604052508101906115179190611c32565b905090565b600080516020611f1f83398151915280546001190161157d5760405162461bcd60e51b815260206004820152601f60248201527f5265656e7472616e637947756172643a207265656e7472616e742063616c6c006044820152606401610195565b60029055565b6040516001600160a01b038316602482015260448101829052610ab890849063a9059cbb60e01b906064015b60408051601f198184030181529190526020810180516001600160e01b03166001600160e01b0319909316929092179091526117c7565b8015610906576000826001600160a01b03168260405160006040518083038185875af1925050503d8060008114611639576040519150601f19603f3d011682016040523d82523d6000602084013e61163e565b606091505b5050905080610ab85760405162461bcd60e51b815260206004820152600f60248201526e1d1c985b9cd9995c8819985a5b1959608a1b6044820152606401610195565b6001600160a01b03821660009081526002602052604081205490036116eb576001805480820182556000919091527fb10e2d527612073b26eecdfd717e6a320cf44b4afac2b0732d9fcbe2b7fa0cf60180546001600160a01b0319166001600160a01b0384161790555b6001600160a01b03909116600090815260026020526040902080549091179055565b6003805460ff19166001179055604051632e1a7d4d60e01b8152600481018290526001600160a01b03841690632e1a7d4d90602401600060405180830381600087803b15801561175c57600080fd5b505af1158015611770573d6000803e3d6000fd5b50506003805460ff1916905550610ab8905082826115e6565b6040516001600160a01b03808516602483015283166044820152606481018290526117c19085906323b872dd60e01b906084016115af565b50505050565b600061181c826040518060400160405280602081526020017f5361666545524332303a206c6f772d6c6576656c2063616c6c206661696c6564815250856001600160a01b031661189c9092919063ffffffff16565b905080516000148061183d57508080602001905181019061183d9190611cf2565b610ab85760405162461bcd60e51b815260206004820152602a60248201527f5361666545524332303a204552433230206f7065726174696f6e20646964206e6044820152691bdd081cdd58d8d9595960b21b6064820152608401610195565b606061131a848460008585600080866001600160a01b031685876040516118c39190611ecf565b60006040518083038185875af1925050503d8060008114611900576040519150601f19603f3d011682016040523d82523d6000602084013e611905565b606091505b509150915061191687838387611921565b979650505050505050565b60608315611990578251600003611989576001600160a01b0385163b6119895760405162461bcd60e51b815260206004820152601d60248201527f416464726573733a2063616c6c20746f206e6f6e2d636f6e74726163740000006044820152606401610195565b508161131a565b61131a83838151156119a55781518083602001fd5b8060405162461bcd60e51b81526004016101959190611eeb565b6001600160a01b038116811461070757600080fd5b6000602082840312156119e657600080fd5b81356119f1816119bf565b9392505050565b600060208284031215611a0a57600080fd5b81356001600160e01b0319811681146119f157600080fd5b60008060408385031215611a3557600080fd5b823591506020830135611a47816119bf565b809150509250929050565b60008060408385031215611a6557600080fd5b8235611a70816119bf565b91506020830135611a47816119bf565b600080600060608486031215611a9557600080fd5b8335611aa0816119bf565b9250602084013591506040840135611ab7816119bf565b809150509250925092565b600080600060608486031215611ad757600080fd5b8335611ae2816119bf565b92506020840135611af2816119bf565b929592945050506040919091013590565b60008060408385031215611b1657600080fd5b8235611b21816119bf565b946020939093013593505050565b803562ffffff81168114611b4257600080fd5b919050565b600080600080600060808688031215611b5f57600080fd5b8535611b6a816119bf565b9450611b7860208701611b2f565b93506040860135611b88816119bf565b9250606086013567ffffffffffffffff80821115611ba557600080fd5b818801915088601f830112611bb957600080fd5b813581811115611bc857600080fd5b8960208260051b8501011115611bdd57600080fd5b9699959850939650602001949392505050565b60208082526012908201527137b7363c9030b9b9b2ba1036b0b730b3b2b960711b604082015260600190565b634e487b7160e01b600052603260045260246000fd5b600060208284031215611c4457600080fd5b81516119f1816119bf565b600060208284031215611c6157600080fd5b5051919050565b6020808252600a908201526937b7363c9037bbb732b960b11b604082015260600190565b8381526001600160a01b03831660208201526060810160038310611cc057634e487b7160e01b600052602160045260246000fd5b826040830152949350505050565b60008060408385031215611ce157600080fd5b505080516020909101519092909150565b600060208284031215611d0457600080fd5b815180151581146119f157600080fd5b62ffffff611d2182611b2f565b16825260208101356bffffffffffffffffffffffff198116808214611d4557600080fd5b60208401525060408101356effffffffffffffffffffffffffffff8116808214611d6e57600080fd5b604084015250606081013560058110611d8657600080fd5b806060840152505050565b6001600160a01b038781168252861660208083019190915262ffffff86166040830152841515606083015260a06080830181905282810184905260009160c09081850190600587811b8701840189875b8a811015611e975789830360bf190186528135368d9003609e19018112611e0757600080fd5b8c01803536829003601e19018112611e1e57600080fd5b8101868101903567ffffffffffffffff811115611e3a57600080fd5b80871b803603831315611e4c57600080fd5b8b8752868c018290526001600160fb1b03821115611e6957600080fd5b80838c890137611e7d8988018a8601611d14565b988801989590950189019450505090840190600101611de1565b50909e9d5050505050505050505050505050565b60005b83811015611ec6578181015183820152602001611eae565b50506000910152565b60008251611ee1818460208701611eab565b9190910192915050565b6020815260008251806020840152611f0a816040850160208701611eab565b601f01601f1916919091016040019291505056fe0cd2207518cd3e5213e2c6dbe63d55b60aa893c194a427b7d7f1600408fd5bdea264697066735822122056f1e4901a861822a2d8f54e6ca3fe794368957317b9c0006c34c97b5fe1790364736f6c63430008170033",
  "linkReferences": {},
  "deployedLinkReferences": {}
}