{
  "_format": "hh-sol-artifact-1",
  "contractName": "AgentVault",
  "sourceName": "contracts/assetManager/implementation/AgentVault.sol",
  "abi": [
    {
      "inputs": [
        {
          "internalType": "contract IIAssetManager",
          "name": "_assetManager",
          "type": "address"
        }
      ],
      "stateMutability": "nonpayable",
      "type": "constructor"
    },
    {
      "anonymous": false,
      "inputs": [
        {
          "indexed": false,
          "internalType": "address",
          "name": "previousAdmin",
          "type": "address"
        },
        {
          "indexed": false,
          "internalType": "address",
          "name": "newAdmin",
          "type": "address"
        }
      ],
      "name": "AdminChanged",
      "type": "event"
    },
    {
      "anonymous": false,
      "inputs": [
        {
          "indexed": true,
          "internalType": "address",
          "name": "beacon",
          "type": "address"
        }
      ],
      "name": "BeaconUpgraded",
      "type": "event"
    },
    {
      "anonymous": false,
      "inputs": [
        {
          "indexed": true,
          "internalType": "address",
          "name": "implementation",
          "type": "address"
        }
      ],
      "name": "Upgraded",
      "type": "event"
    },
    {
      "inputs": [],
      "name": "assetManager",
      "outputs": [
        {
          "internalType": "contract IIAssetManager",
          "name": "",
          "type": "address"
        }
      ],
      "stateMutability": "view",
      "type": "function"
    },
    {
      "inputs": [],
      "name": "buyCollateralPoolTokens",
      "outputs": [],
      "stateMutability": "payable",
      "type": "function"
    },
    {
      "inputs": [
        {
          "internalType": "contract IDistributionToDelegators",
          "name": "_distribution",
          "type": "address"
        },
        {
          "internalType": "uint256",
          "name": "_month",
          "type": "uint256"
        },
        {
          "internalType": "address payable",
          "name": "_recipient",
          "type": "address"
        }
      ],
      "name": "claimAirdropDistribution",
      "outputs": [
        {
          "internalType": "uint256",
          "name": "",
          "type": "uint256"
        }
      ],
      "stateMutability": "nonpayable",
      "type": "function"
    },
    {
      "inputs": [
        {
          "internalType": "contract IRewardManager",
          "name": "_rewardManager",
          "type": "address"
        },
        {
          "internalType": "uint24",
          "name": "_lastRewardEpoch",
          "type": "uint24"
        },
        {
          "internalType": "address payable",
          "name": "_recipient",
          "type": "address"
        },
        {
          "components": [
            {
              "internalType": "bytes32[]",
              "name": "merkleProof",
              "type": "bytes32[]"
            },
            {
              "components": [
                {
                  "internalType": "uint24",
                  "name": "rewardEpochId",
                  "type": "uint24"
                },
                {
                  "internalType": "bytes20",
                  "name": "beneficiary",
                  "type": "bytes20"
                },
                {
                  "internalType": "uint120",
                  "name": "amount",
                  "type": "uint120"
                },
                {
                  "internalType": "enum RewardsV2Interface.ClaimType",
                  "name": "claimType",
                  "type": "uint8"
                }
              ],
              "internalType": "struct RewardsV2Interface.RewardClaim",
              "name": "body",
              "type": "tuple"
            }
          ],
          "internalType": "struct RewardsV2Interface.RewardClaimWithProof[]",
          "name": "_proofs",
          "type": "tuple[]"
        }
      ],
      "name": "claimDelegationRewards",
      "outputs": [
        {
          "internalType": "uint256",
          "name": "",
          "type": "uint256"
        }
      ],
      "stateMutability": "nonpayable",
      "type": "function"
    },
    {
      "inputs": [],
      "name": "collateralPool",
      "outputs": [
        {
          "internalType": "contract ICollateralPool",
          "name": "",
          "type": "address"
        }
      ],
      "stateMutability": "view",
      "type": "function"
    },
    {
      "inputs": [
        {
          "internalType": "contract IVPToken",
          "name": "_token",
          "type": "address"
        },
        {
          "internalType": "address",
          "name": "_to",
          "type": "address"
        },
        {
          "internalType": "uint256",
          "name": "_bips",
          "type": "uint256"
        }
      ],
      "name": "delegate",
      "outputs": [],
      "stateMutability": "nonpayable",
      "type": "function"
    },
    {
      "inputs": [
        {
          "internalType": "contract IVPToken",
          "name": "_token",
          "type": "address"
        },
        {
          "internalType": "address",
          "name": "_to",
          "type": "address"
        }
      ],
      "name": "delegateGovernance",
      "outputs": [],
      "stateMutability": "nonpayable",
      "type": "function"
    },
    {
      "inputs": [
        {
          "internalType": "contract IERC20",
          "name": "_token",
          "type": "address"
        },
        {
          "internalType": "uint256",
          "name": "_amount",
          "type": "uint256"
        }
      ],
      "name": "depositCollateral",
      "outputs": [],
      "stateMutability": "nonpayable",
      "type": "function"
    },
    {
      "inputs": [
        {
          "internalType": "contract IWNat",
          "name": "_wNat",
          "type": "address"
        }
      ],
      "name": "depositNat",
      "outputs": [],
      "stateMutability": "payable",
      "type": "function"
    },
    {
      "inputs": [
        {
          "internalType": "address payable",
          "name": "_recipient",
          "type": "address"
        }
      ],
      "name": "destroy",
      "outputs": [],
      "stateMutability": "nonpayable",
      "type": "function"
    },
    {
      "inputs": [],
      "name": "implementation",
      "outputs": [
        {
          "internalType": "address",
          "name": "",
          "type": "address"
        }
      ],
      "stateMutability": "view",
      "type": "function"
    },
    {
      "inputs": [
        {
          "internalType": "contract IIAssetManager",
          "name": "_assetManager",
          "type": "address"
        }
      ],
      "name": "initialize",
      "outputs": [],
      "stateMutability": "nonpayable",
      "type": "function"
    },
    {
      "inputs": [
        {
          "internalType": "address",
          "name": "_address",
          "type": "address"
        }
      ],
      "name": "isOwner",
      "outputs": [
        {
          "internalType": "bool",
          "name": "",
          "type": "bool"
        }
      ],
      "stateMutability": "view",
      "type": "function"
    },
    {
      "inputs": [
        {
          "internalType": "contract IDistributionToDelegators",
          "name": "_distribution",
          "type": "address"
        }
      ],
      "name": "optOutOfAirdrop",
      "outputs": [],
      "stateMutability": "nonpayable",
      "type": "function"
    },
    {
      "inputs": [
        {
          "internalType": "contract IERC20",
          "name": "_token",
          "type": "address"
        },
        {
          "internalType": "address",
          "name": "_recipient",
          "type": "address"
        },
        {
          "internalType": "uint256",
          "name": "_amount",
          "type": "uint256"
        }
      ],
      "name": "payout",
      "outputs": [],
      "stateMutability": "nonpayable",
      "type": "function"
    },
    {
      "inputs": [
        {
          "internalType": "contract IWNat",
          "name": "_wNat",
          "type": "address"
        },
        {
          "internalType": "address payable",
          "name": "_recipient",
          "type": "address"
        },
        {
          "internalType": "uint256",
          "name": "_amount",
          "type": "uint256"
        }
      ],
      "name": "payoutNAT",
      "outputs": [],
      "stateMutability": "nonpayable",
      "type": "function"
    },
    {
      "inputs": [],
      "name": "proxiableUUID",
      "outputs": [
        {
          "internalType": "bytes32",
          "name": "",
          "type": "bytes32"
        }
      ],
      "stateMutability": "view",
      "type": "function"
    },
    {
      "inputs": [
        {
          "internalType": "uint256",
          "name": "_amount",
          "type": "uint256"
        },
        {
          "internalType": "address payable",
          "name": "_recipient",
          "type": "address"
        }
      ],
      "name": "redeemCollateralPoolTokens",
      "outputs": [],
      "stateMutability": "nonpayable",
      "type": "function"
    },
    {
      "inputs": [
        {
          "internalType": "contract IVPToken",
          "name": "_token",
          "type": "address"
        },
        {
          "internalType": "address",
          "name": "_who",
          "type": "address"
        },
        {
          "internalType": "uint256",
          "name": "_blockNumber",
          "type": "uint256"
        }
      ],
      "name": "revokeDelegationAt",
      "outputs": [],
      "stateMutability": "nonpayable",
      "type": "function"
    },
    {
      "inputs": [
        {
          "internalType": "bytes4",
          "name": "_interfaceId",
          "type": "bytes4"
        }
      ],
      "name": "supportsInterface",
      "outputs": [
        {
          "internalType": "bool",
          "name": "",
          "type": "bool"
        }
      ],
      "stateMutability": "pure",
      "type": "function"
    },
    {
      "inputs": [
        {
          "internalType": "contract IERC20",
          "name": "_token",
          "type": "address"
        },
        {
          "internalType": "uint256",
          "name": "_amount",
          "type": "uint256"
        }
      ],
      "name": "transferExternalToken",
      "outputs": [],
      "stateMutability": "nonpayable",
      "type": "function"
    },
    {
      "inputs": [
        {
          "internalType": "contract IVPToken",
          "name": "_token",
          "type": "address"
        }
      ],
      "name": "undelegateAll",
      "outputs": [],
      "stateMutability": "nonpayable",
      "type": "function"
    },
    {
      "inputs": [
        {
          "internalType": "contract IVPToken",
          "name": "_token",
          "type": "address"
        }
      ],
      "name": "undelegateGovernance",
      "outputs": [],
      "stateMutability": "nonpayable",
      "type": "function"
    },
    {
      "inputs": [
        {
          "internalType": "contract IERC20",
          "name": "_token",
          "type": "address"
        }
      ],
      "name": "updateCollateral",
      "outputs": [],
      "stateMutability": "nonpayable",
      "type": "function"
    },
    {
      "inputs": [
        {
          "internalType": "address",
          "name": "newImplementation",
          "type": "address"
        }
      ],
      "name": "upgradeTo",
      "outputs": [],
      "stateMutability": "nonpayable",
      "type": "function"
    },
    {
      "inputs": [
        {
          "internalType": "address",
          "name": "newImplementation",
          "type": "address"
        },
        {
          "internalType": "bytes",
          "name": "data",
          "type": "bytes"
        }
      ],
      "name": "upgradeToAndCall",
      "outputs": [],
      "stateMutability": "payable",
      "type": "function"
    },
    {
      "inputs": [
        {
          "internalType": "contract IERC20",
          "name": "_token",
          "type": "address"
        },
        {
          "internalType": "uint256",
          "name": "_amount",
          "type": "uint256"
        },
        {
          "internalType": "address",
          "name": "_recipient",
          "type": "address"
        }
      ],
      "name": "withdrawCollateral",
      "outputs": [],
      "stateMutability": "nonpayable",
      "type": "function"
    },
    {
      "inputs": [
        {
          "internalType": "uint256",
          "name": "_amount",
          "type": "uint256"
        },
        {
          "internalType": "address",
          "name": "_recipient",
          "type": "address"
        }
      ],
      "name": "withdrawPoolFees",
      "outputs": [],
      "stateMutability": "nonpayable",
      "type": "function"
    },
    {
      "stateMutability": "payable",
      "type": "receive"
    }
  ],
  "bytecode": "0x60a0604052306080523480156200001557600080fd5b50604051620029a8380380620029a88339810160408190526200003891620000d2565b62000043816200004a565b5062000104565b600054600160a01b900460ff1615620000a95760405162461bcd60e51b815260206004820152601360248201527f616c726561647920696e697469616c697a656400000000000000000000000000604482015260640160405180910390fd5b600080546001600160a01b039092166001600160a81b031990921691909117600160a01b179055565b600060208284031215620000e557600080fd5b81516001600160a01b0381168114620000fd57600080fd5b9392505050565b60805161286c6200013c60003960008181610ce001528181610d2001528181610f2e01528181610f6e0152610fe6015261286c6000f3fe6080604052600436106101ba5760003560e01c8063648d0878116100ec578063a3ea6d1b1161008a578063c26f3acf11610064578063c26f3acf1461051c578063c4d66de81461053c578063d348400c1461055c578063ff0eccf61461056457600080fd5b8063a3ea6d1b146104bc578063a5d5db0c146104dc578063a6fc49cc146104fc57600080fd5b80637a7da004116100c65780637a7da0041461043c57806386ac57a21461045c57806394217ad11461047c57806397c9c8f81461049c57600080fd5b8063648d0878146103e9578063677fa23214610409578063751aa8d61461041c57600080fd5b80632f54bf6e116101595780634f1ef286116101335780634f1ef2861461036657806352d1902d146103795780635c60da1b1461039c5780635eb71cfb146103c957600080fd5b80632f54bf6e146103065780633659cfe614610326578063489a8a471461034657600080fd5b80631d75e42a116101955780631d75e42a146102865780631f1088a0146102a657806320f801d4146102c65780632772e48b146102e657600080fd5b8062f55d9d1461021157806301ffc9a7146102315780631cc7c5f31461026657600080fd5b3661020c5760035460ff1661020a5760405162461bcd60e51b8152602060048201526011602482015270696e7465726e616c20757365206f6e6c7960781b60448201526064015b60405180910390fd5b005b600080fd5b34801561021d57600080fd5b5061020a61022c36600461211a565b610579565b34801561023d57600080fd5b5061025161024c366004612137565b6107d3565b60405190151581526020015b60405180910390f35b34801561027257600080fd5b5061020a610281366004612161565b610825565b34801561029257600080fd5b5061020a6102a1366004612191565b6109d3565b3480156102b257600080fd5b5061020a6102c13660046121bf565b610ac2565b3480156102d257600080fd5b5061020a6102e1366004612201565b610b86565b3480156102f257600080fd5b5061020a610301366004612161565b610bcc565b34801561031257600080fd5b5061025161032136600461211a565b610c61565b34801561033257600080fd5b5061020a61034136600461211a565b610cd6565b34801561035257600080fd5b5061020a610361366004612242565b610d9b565b61020a610374366004612284565b610f24565b34801561038557600080fd5b5061038e610fd9565b60405190815260200161025d565b3480156103a857600080fd5b506103b161108c565b6040516001600160a01b03909116815260200161025d565b3480156103d557600080fd5b5061020a6103e436600461211a565b61109b565b3480156103f557600080fd5b5061020a610404366004612201565b611116565b61020a61041736600461211a565b611153565b34801561042857600080fd5b5061038e610437366004612360565b611243565b34801561044857600080fd5b5061020a61045736600461211a565b6112ee565b34801561046857600080fd5b5061020a61047736600461211a565b61134b565b34801561048857600080fd5b506000546103b1906001600160a01b031681565b3480156104a857600080fd5b5061020a6104b736600461211a565b6113ab565b3480156104c857600080fd5b5061020a6104d7366004612201565b61146c565b3480156104e857600080fd5b5061020a6104f7366004612242565b6114f8565b34801561050857600080fd5b5061038e6105173660046121bf565b6115a2565b34801561052857600080fd5b5061020a610537366004612201565b611651565b34801561054857600080fd5b5061020a61055736600461211a565b6116e3565b61020a61175c565b34801561057057600080fd5b506103b16117d9565b6000546001600160a01b031633146105a35760405162461bcd60e51b815260040161020190612409565b6105ab611846565b60015460005b818110156107ad576000600182815481106105ce576105ce612435565b60009182526020808320909101546001600160a01b0316808352600290915260409091205490915060048116156106b457816001600160a01b0316638c2b8ae16040518163ffffffff1660e01b8152600401602060405180830381865afa15801561063d573d6000803e3d6000fd5b505050506040513d601f19601f82011682018060405250810190610661919061244b565b6001600160a01b03166392ab89bb6040518163ffffffff1660e01b8152600401600060405180830381600087803b15801561069b57600080fd5b505af11580156106af573d6000803e3d6000fd5b505050505b600281161561071157816001600160a01b031663b302f3936040518163ffffffff1660e01b8152600401600060405180830381600087803b1580156106f857600080fd5b505af115801561070c573d6000803e3d6000fd5b505050505b60018116156107a3576040516370a0823160e01b81523060048201526000906001600160a01b038416906370a0823190602401602060405180830381865afa158015610761573d6000803e3d6000fd5b505050506040513d601f19601f820116820180604052508101906107859190612468565b905080156107a1576107a16001600160a01b03841687836118ad565b505b50506001016105b1565b506107b88247611910565b506107d0600160008051602061281783398151915255565b50565b60006001600160e01b031982166301ffc9a760e01b148061080457506001600160e01b03198216630fe2a0a560e31b145b8061081f57506001600160e01b031982166326228cef60e21b145b92915050565b61082e33610c61565b61084a5760405162461bcd60e51b815260040161020190612481565b610852611846565b600061085c6117d9565b905060008054906101000a90046001600160a01b03166001600160a01b031663469052ad826001600160a01b031663cbdf382c6040518163ffffffff1660e01b8152600401602060405180830381865afa1580156108be573d6000803e3d6000fd5b505050506040513d601f19601f820116820180604052508101906108e2919061244b565b6040516001600160e01b031960e084901b1681526001600160a01b03909116600482015260248101869052604401600060405180830381600087803b15801561092a57600080fd5b505af115801561093e573d6000803e3d6000fd5b505060405163eaf413fd60e01b81526001600160a01b038416925063eaf413fd915061097390869086906000906004016124a5565b60408051808303816000875af1158015610991573d6000803e3d6000fd5b505050506040513d601f19601f820116820180604052508101906109b591906124e7565b5050506109cf600160008051602061281783398151915255565b5050565b6109dc33610c61565b6109f85760405162461bcd60e51b815260040161020190612481565b816001600160a01b0316638c2b8ae16040518163ffffffff1660e01b8152600401602060405180830381865afa158015610a36573d6000803e3d6000fd5b505050506040513d601f19601f82011682018060405250810190610a5a919061244b565b6040516317066a5760e21b81526001600160a01b0383811660048301529190911690635c19a95c90602401600060405180830381600087803b158015610a9f57600080fd5b505af1158015610ab3573d6000803e3d6000fd5b505050506109cf8260046119b9565b610acb33610c61565b610ae75760405162461bcd60e51b815260040161020190612481565b610aef611846565b60005460405163469052ad60e01b81526001600160a01b038581166004830152602482018590529091169063469052ad90604401600060405180830381600087803b158015610b3d57600080fd5b505af1158015610b51573d6000803e3d6000fd5b50610b6a925050506001600160a01b03841682846118ad565b610b81600160008051602061281783398151915255565b505050565b6000546001600160a01b03163314610bb05760405162461bcd60e51b815260040161020190612409565b610bb8611846565b610b6a6001600160a01b03841683836118ad565b610bd533610c61565b610bf15760405162461bcd60e51b815260040161020190612481565b610bf96117d9565b60405163868c3ba760e01b8152600481018490526001600160a01b038381166024830152919091169063868c3ba790604401600060405180830381600087803b158015610c4557600080fd5b505af1158015610c59573d6000803e3d6000fd5b505050505050565b6000805460405163d6b93a9f60e01b81523060048201526001600160a01b0384811660248301529091169063d6b93a9f90604401602060405180830381865afa158015610cb2573d6000803e3d6000fd5b505050506040513d601f19601f8201168201806040525081019061081f919061250b565b6001600160a01b037f0000000000000000000000000000000000000000000000000000000000000000163003610d1e5760405162461bcd60e51b81526004016102019061252d565b7f00000000000000000000000000000000000000000000000000000000000000006001600160a01b0316610d50611a45565b6001600160a01b031614610d765760405162461bcd60e51b815260040161020190612579565b610d7f81611a61565b604080516000808252602082019092526107d091839190611a8b565b610da433610c61565b610dc05760405162461bcd60e51b815260040161020190612481565b610dc8611846565b60005460405163700104f760e01b81523060048201526001600160a01b0384811660248301529091169063700104f790604401602060405180830381865afa158015610e18573d6000803e3d6000fd5b505050506040513d601f19601f82011682018060405250810190610e3c919061250b565b15610e895760405162461bcd60e51b815260206004820152601a60248201527f6f6e6c79206e6f6e2d636f6c6c61746572616c20746f6b656e730000000000006044820152606401610201565b60008054604051636e61164f60e01b81523060048201526001600160a01b0390911690636e61164f90602401602060405180830381865afa158015610ed2573d6000803e3d6000fd5b505050506040513d601f19601f82011682018060405250810190610ef6919061244b565b9050610f0c6001600160a01b03841682846118ad565b506109cf600160008051602061281783398151915255565b6001600160a01b037f0000000000000000000000000000000000000000000000000000000000000000163003610f6c5760405162461bcd60e51b81526004016102019061252d565b7f00000000000000000000000000000000000000000000000000000000000000006001600160a01b0316610f9e611a45565b6001600160a01b031614610fc45760405162461bcd60e51b815260040161020190612579565b610fcd82611a61565b6109cf82826001611a8b565b6000306001600160a01b037f000000000000000000000000000000000000000000000000000000000000000016146110795760405162461bcd60e51b815260206004820152603860248201527f555550535570677261646561626c653a206d757374206e6f742062652063616c60448201527f6c6564207468726f7567682064656c656761746563616c6c00000000000000006064820152608401610201565b506000805160206127d083398151915290565b6000611096611a45565b905090565b6110a433610c61565b6110c05760405162461bcd60e51b815260040161020190612481565b806001600160a01b031663b302f3936040518163ffffffff1660e01b8152600401600060405180830381600087803b1580156110fb57600080fd5b505af115801561110f573d6000803e3d6000fd5b5050505050565b6000546001600160a01b031633146111405760405162461bcd60e51b815260040161020190612409565b611148611846565b610b6a838383611bf6565b6000546001600160a01b0316331461117d5760405162461bcd60e51b815260040161020190612409565b806001600160a01b031663d0e30db0346040518263ffffffff1660e01b81526004016000604051808303818588803b1580156111b857600080fd5b505af11580156111cc573d6000803e3d6000fd5b505060005460405163053fe26160e31b81523060048201526001600160a01b03868116602483015290911693506329ff1308925060440190505b600060405180830381600087803b15801561122057600080fd5b505af1158015611234573d6000803e3d6000fd5b505050506107d08160016119b9565b600061124e33610c61565b61126a5760405162461bcd60e51b815260040161020190612481565b604051638e33aba560e01b81526001600160a01b03871690638e33aba5906112a190309088908a906000908a908a90600401612642565b6020604051808303816000875af11580156112c0573d6000803e3d6000fd5b505050506040513d601f19601f820116820180604052508101906112e49190612468565b9695505050505050565b6112f733610c61565b6113135760405162461bcd60e51b815260040161020190612481565b60005460405163053fe26160e31b81523060048201526001600160a01b038381166024830152909116906329ff130890604401611206565b61135433610c61565b6113705760405162461bcd60e51b815260040161020190612481565b806001600160a01b031663f2a1f7676040518163ffffffff1660e01b8152600401600060405180830381600087803b1580156110fb57600080fd5b6113b433610c61565b6113d05760405162461bcd60e51b815260040161020190612481565b806001600160a01b0316638c2b8ae16040518163ffffffff1660e01b8152600401602060405180830381865afa15801561140e573d6000803e3d6000fd5b505050506040513d601f19601f82011682018060405250810190611432919061244b565b6001600160a01b03166392ab89bb6040518163ffffffff1660e01b8152600401600060405180830381600087803b1580156110fb57600080fd5b61147533610c61565b6114915760405162461bcd60e51b815260040161020190612481565b60405163177adf7f60e31b81526001600160a01b0383811660048301526024820183905284169063bbd6fbf890604401600060405180830381600087803b1580156114db57600080fd5b505af11580156114ef573d6000803e3d6000fd5b50505050505050565b61150133610c61565b61151d5760405162461bcd60e51b815260040161020190612481565b6115326001600160a01b038316333084611c72565b60005460405163053fe26160e31b81523060048201526001600160a01b038481166024830152909116906329ff130890604401600060405180830381600087803b15801561157f57600080fd5b505af1158015611593573d6000803e3d6000fd5b505050506109cf8260016119b9565b60006115ad33610c61565b6115c95760405162461bcd60e51b815260040161020190612481565b60405163596090c960e11b81523060048201526001600160a01b038381166024830152604482018590526000606483015285169063b2c12192906084016020604051808303816000875af1158015611625573d6000803e3d6000fd5b505050506040513d601f19601f820116820180604052508101906116499190612468565b949350505050565b61165a33610c61565b6116765760405162461bcd60e51b815260040161020190612481565b60405163026e402b60e01b81526001600160a01b0383811660048301526024820183905284169063026e402b90604401600060405180830381600087803b1580156116c057600080fd5b505af11580156116d4573d6000803e3d6000fd5b50505050610b818360026119b9565b600054600160a01b900460ff16156117335760405162461bcd60e51b8152602060048201526013602482015272185b1c9958591e481a5b9a5d1a585b1a5e9959606a1b6044820152606401610201565b600080546001600160a01b039092166001600160a81b031990921691909117600160a01b179055565b6117646117d9565b60405163ac3736c160e01b815260006004820181905260248201526001600160a01b03919091169063ac3736c1903490604401604080518083038185885af11580156117b4573d6000803e3d6000fd5b50505050506040513d601f19601f820116820180604052508101906109cf91906124e7565b6000805460405163292979d160e11b81523060048201526001600160a01b0390911690635252f3a290602401602060405180830381865afa158015611822573d6000803e3d6000fd5b505050506040513d601f19601f82011682018060405250810190611096919061244b565b6000805160206128178339815191528054600119016118a75760405162461bcd60e51b815260206004820152601f60248201527f5265656e7472616e637947756172643a207265656e7472616e742063616c6c006044820152606401610201565b60029055565b6040516001600160a01b038316602482015260448101829052610b8190849063a9059cbb60e01b906064015b60408051601f198184030181529190526020810180516001600160e01b03166001600160e01b031990931692909217909152611cb0565b611918611d85565b80156109cf576000826001600160a01b031682620186a090604051600060405180830381858888f193505050503d8060008114611971576040519150601f19603f3d011682016040523d82523d6000602084013e611976565b606091505b5050905080610b815760405162461bcd60e51b815260206004820152600f60248201526e1d1c985b9cd9995c8819985a5b1959608a1b6044820152606401610201565b6001600160a01b0382166000908152600260205260408120549003611a23576001805480820182556000919091527fb10e2d527612073b26eecdfd717e6a320cf44b4afac2b0732d9fcbe2b7fa0cf60180546001600160a01b0319166001600160a01b0384161790555b6001600160a01b03909116600090815260026020526040902080549091179055565b6000805160206127d0833981519152546001600160a01b031690565b6000546001600160a01b031633146107d05760405162461bcd60e51b815260040161020190612409565b7f4910fdfa16fed3260ed0e7147f7cc6da11a60208b5b9406d12a635614ffd91435460ff1615611abe57610b8183611de6565b826001600160a01b03166352d1902d6040518163ffffffff1660e01b8152600401602060405180830381865afa925050508015611b18575060408051601f3d908101601f19168201909252611b1591810190612468565b60015b611b7b5760405162461bcd60e51b815260206004820152602e60248201527f45524331393637557067726164653a206e657720696d706c656d656e7461746960448201526d6f6e206973206e6f74205555505360901b6064820152608401610201565b6000805160206127d08339815191528114611bea5760405162461bcd60e51b815260206004820152602960248201527f45524331393637557067726164653a20756e737570706f727465642070726f786044820152681a58589b195555525160ba1b6064820152608401610201565b50610b81838383611e82565b6003805460ff19166001179055604051632e1a7d4d60e01b8152600481018290526001600160a01b03841690632e1a7d4d90602401600060405180830381600087803b158015611c4557600080fd5b505af1158015611c59573d6000803e3d6000fd5b50506003805460ff1916905550610b8190508282611910565b6040516001600160a01b0380851660248301528316604482015260648101829052611caa9085906323b872dd60e01b906084016118d9565b50505050565b6000611d05826040518060400160405280602081526020017f5361666545524332303a206c6f772d6c6576656c2063616c6c206661696c6564815250856001600160a01b0316611ea79092919063ffffffff16565b9050805160001480611d26575080806020019051810190611d26919061250b565b610b815760405162461bcd60e51b815260206004820152602a60248201527f5361666545524332303a204552433230206f7065726174696f6e20646964206e6044820152691bdd081cdd58d8d9595960b21b6064820152608401610201565b60008051602061281783398151915254600214611de45760405162461bcd60e51b815260206004820152601f60248201527f5265656e7472616e637947756172643a206775617264207265717569726564006044820152606401610201565b565b6001600160a01b0381163b611e535760405162461bcd60e51b815260206004820152602d60248201527f455243313936373a206e657720696d706c656d656e746174696f6e206973206e60448201526c1bdd08184818dbdb9d1c9858dd609a1b6064820152608401610201565b6000805160206127d083398151915280546001600160a01b0319166001600160a01b0392909216919091179055565b611e8b83611eb6565b600082511180611e985750805b15610b8157611caa8383611ef6565b60606116498484600085611f22565b611ebf81611de6565b6040516001600160a01b038216907fbc7cd75a20ee27fd9adebab32041f755214dbc6bffa90cc0225b39da2e5c2d3b90600090a250565b6060611f1b83836040518060600160405280602781526020016127f060279139611ffd565b9392505050565b606082471015611f835760405162461bcd60e51b815260206004820152602660248201527f416464726573733a20696e73756666696369656e742062616c616e636520666f6044820152651c8818d85b1b60d21b6064820152608401610201565b600080866001600160a01b03168587604051611f9f9190612780565b60006040518083038185875af1925050503d8060008114611fdc576040519150601f19603f3d011682016040523d82523d6000602084013e611fe1565b606091505b5091509150611ff287838387612067565b979650505050505050565b6060600080856001600160a01b03168560405161201a9190612780565b600060405180830381855af49150503d8060008114612055576040519150601f19603f3d011682016040523d82523d6000602084013e61205a565b606091505b50915091506112e4868383875b606083156120d65782516000036120cf576001600160a01b0385163b6120cf5760405162461bcd60e51b815260206004820152601d60248201527f416464726573733a2063616c6c20746f206e6f6e2d636f6e74726163740000006044820152606401610201565b5081611649565b61164983838151156120eb5781518083602001fd5b8060405162461bcd60e51b8152600401610201919061279c565b6001600160a01b03811681146107d057600080fd5b60006020828403121561212c57600080fd5b8135611f1b81612105565b60006020828403121561214957600080fd5b81356001600160e01b031981168114611f1b57600080fd5b6000806040838503121561217457600080fd5b82359150602083013561218681612105565b809150509250929050565b600080604083850312156121a457600080fd5b82356121af81612105565b9150602083013561218681612105565b6000806000606084860312156121d457600080fd5b83356121df81612105565b92506020840135915060408401356121f681612105565b809150509250925092565b60008060006060848603121561221657600080fd5b833561222181612105565b9250602084013561223181612105565b929592945050506040919091013590565b6000806040838503121561225557600080fd5b823561226081612105565b946020939093013593505050565b634e487b7160e01b600052604160045260246000fd5b6000806040838503121561229757600080fd5b82356122a281612105565b9150602083013567ffffffffffffffff808211156122bf57600080fd5b818501915085601f8301126122d357600080fd5b8135818111156122e5576122e561226e565b604051601f8201601f19908116603f0116810190838211818310171561230d5761230d61226e565b8160405282815288602084870101111561232657600080fd5b8260208601602083013760006020848301015280955050505050509250929050565b803562ffffff8116811461235b57600080fd5b919050565b60008060008060006080868803121561237857600080fd5b853561238381612105565b945061239160208701612348565b935060408601356123a181612105565b9250606086013567ffffffffffffffff808211156123be57600080fd5b818801915088601f8301126123d257600080fd5b8135818111156123e157600080fd5b8960208260051b85010111156123f657600080fd5b9699959850939650602001949392505050565b60208082526012908201527137b7363c9030b9b9b2ba1036b0b730b3b2b960711b604082015260600190565b634e487b7160e01b600052603260045260246000fd5b60006020828403121561245d57600080fd5b8151611f1b81612105565b60006020828403121561247a57600080fd5b5051919050565b6020808252600a908201526937b7363c9037bbb732b960b11b604082015260600190565b8381526001600160a01b038316602082015260608101600383106124d957634e487b7160e01b600052602160045260246000fd5b826040830152949350505050565b600080604083850312156124fa57600080fd5b505080516020909101519092909150565b60006020828403121561251d57600080fd5b81518015158114611f1b57600080fd5b6020808252602c908201527f46756e6374696f6e206d7573742062652063616c6c6564207468726f7567682060408201526b19195b1959d85d1958d85b1b60a21b606082015260800190565b6020808252602c908201527f46756e6374696f6e206d7573742062652063616c6c6564207468726f7567682060408201526b6163746976652070726f787960a01b606082015260800190565b62ffffff6125d282612348565b16825260208101356bffffffffffffffffffffffff1981168082146125f657600080fd5b60208401525060408101356effffffffffffffffffffffffffffff811680821461261f57600080fd5b60408401525060608101356005811061263757600080fd5b806060840152505050565b6001600160a01b038781168252861660208083019190915262ffffff86166040830152841515606083015260a06080830181905282810184905260009160c09081850190600587811b8701840189875b8a8110156127485789830360bf190186528135368d9003609e190181126126b857600080fd5b8c01803536829003601e190181126126cf57600080fd5b8101868101903567ffffffffffffffff8111156126eb57600080fd5b80871b8036038313156126fd57600080fd5b8b8752868c018290526001600160fb1b0382111561271a57600080fd5b80838c89013761272e8988018a86016125c5565b988801989590950189019450505090840190600101612692565b50909e9d5050505050505050505050505050565b60005b8381101561277757818101518382015260200161275f565b50506000910152565b6000825161279281846020870161275c565b9190910192915050565b60208152600082518060208401526127bb81604085016020870161275c565b601f01601f1916919091016040019291505056fe360894a13ba1a3210667c828492db98dca3e2076cc3735a920a3ca505d382bbc416464726573733a206c6f772d6c6576656c2064656c65676174652063616c6c206661696c65640cd2207518cd3e5213e2c6dbe63d55b60aa893c194a427b7d7f1600408fd5bdea26469706673582212207adfbe00dca32fabf5925aca6a38ecdf9209fd176dac62fd1447f65bd0dc314e64736f6c63430008170033",
  "linkReferences": {},
  "deployedLinkReferences": {}
}