{
  "_format": "hh-sol-artifact-1",
  "contractName": "AgentOwnerRegistry",
  "sourceName": "contracts/fasset/implementation/AgentOwnerRegistry.sol",
  "abi": [
    {
      "inputs": [
        {
          "internalType": "contract IGovernanceSettings",
          "name": "_governanceSettings",
          "type": "address"
        },
        {
          "internalType": "address",
          "name": "_initialGovernance",
          "type": "address"
        },
        {
          "internalType": "bool",
          "name": "_supportRevoke",
          "type": "bool"
        }
      ],
      "stateMutability": "nonpayable",
      "type": "constructor"
    },
    {
      "anonymous": false,
      "inputs": [
        {
          "indexed": false,
          "internalType": "bytes4",
          "name": "selector",
          "type": "bytes4"
        },
        {
          "indexed": false,
          "internalType": "uint256",
          "name": "allowedAfterTimestamp",
          "type": "uint256"
        },
        {
          "indexed": false,
          "internalType": "bytes",
          "name": "encodedCall",
          "type": "bytes"
        }
      ],
      "name": "GovernanceCallTimelocked",
      "type": "event"
    },
    {
      "anonymous": false,
      "inputs": [
        {
          "indexed": false,
          "internalType": "address",
          "name": "initialGovernance",
          "type": "address"
        }
      ],
      "name": "GovernanceInitialised",
      "type": "event"
    },
    {
      "anonymous": false,
      "inputs": [
        {
          "indexed": false,
          "internalType": "address",
          "name": "governanceSettings",
          "type": "address"
        }
      ],
      "name": "GovernedProductionModeEntered",
      "type": "event"
    },
    {
      "anonymous": false,
      "inputs": [
        {
          "indexed": false,
          "internalType": "bytes4",
          "name": "selector",
          "type": "bytes4"
        },
        {
          "indexed": false,
          "internalType": "uint256",
          "name": "timestamp",
          "type": "uint256"
        }
      ],
      "name": "TimelockedGovernanceCallCanceled",
      "type": "event"
    },
    {
      "anonymous": false,
      "inputs": [
        {
          "indexed": false,
          "internalType": "bytes4",
          "name": "selector",
          "type": "bytes4"
        },
        {
          "indexed": false,
          "internalType": "uint256",
          "name": "timestamp",
          "type": "uint256"
        }
      ],
      "name": "TimelockedGovernanceCallExecuted",
      "type": "event"
    },
    {
      "anonymous": false,
      "inputs": [
        {
          "indexed": false,
          "internalType": "address",
          "name": "value",
          "type": "address"
        }
      ],
      "name": "Whitelisted",
      "type": "event"
    },
    {
      "anonymous": false,
      "inputs": [
        {
          "indexed": false,
          "internalType": "address",
          "name": "value",
          "type": "address"
        }
      ],
      "name": "WhitelistingRevoked",
      "type": "event"
    },
    {
      "anonymous": false,
      "inputs": [
        {
          "indexed": true,
          "internalType": "address",
          "name": "managementAddress",
          "type": "address"
        },
        {
          "indexed": false,
          "internalType": "address",
          "name": "prevWorkAddress",
          "type": "address"
        },
        {
          "indexed": false,
          "internalType": "address",
          "name": "workAddress",
          "type": "address"
        }
      ],
      "name": "WorkAddressChanged",
      "type": "event"
    },
    {
      "inputs": [
        {
          "internalType": "address",
          "name": "_address",
          "type": "address"
        }
      ],
      "name": "addAddressToWhitelist",
      "outputs": [],
      "stateMutability": "nonpayable",
      "type": "function"
    },
    {
      "inputs": [
        {
          "internalType": "address[]",
          "name": "_addresses",
          "type": "address[]"
        }
      ],
      "name": "addAddressesToWhitelist",
      "outputs": [],
      "stateMutability": "nonpayable",
      "type": "function"
    },
    {
      "inputs": [],
      "name": "allowAll",
      "outputs": [
        {
          "internalType": "bool",
          "name": "",
          "type": "bool"
        }
      ],
      "stateMutability": "view",
      "type": "function"
    },
    {
      "inputs": [
        {
          "internalType": "bytes4",
          "name": "_selector",
          "type": "bytes4"
        }
      ],
      "name": "cancelGovernanceCall",
      "outputs": [],
      "stateMutability": "nonpayable",
      "type": "function"
    },
    {
      "inputs": [
        {
          "internalType": "bytes4",
          "name": "_selector",
          "type": "bytes4"
        }
      ],
      "name": "executeGovernanceCall",
      "outputs": [],
      "stateMutability": "nonpayable",
      "type": "function"
    },
    {
      "inputs": [
        {
          "internalType": "address",
          "name": "_workAddress",
          "type": "address"
        }
      ],
      "name": "getManagementAddress",
      "outputs": [
        {
          "internalType": "address",
          "name": "",
          "type": "address"
        }
      ],
      "stateMutability": "view",
      "type": "function"
    },
    {
      "inputs": [
        {
          "internalType": "address",
          "name": "_managementAddress",
          "type": "address"
        }
      ],
      "name": "getWorkAddress",
      "outputs": [
        {
          "internalType": "address",
          "name": "",
          "type": "address"
        }
      ],
      "stateMutability": "view",
      "type": "function"
    },
    {
      "inputs": [],
      "name": "governance",
      "outputs": [
        {
          "internalType": "address",
          "name": "",
          "type": "address"
        }
      ],
      "stateMutability": "view",
      "type": "function"
    },
    {
      "inputs": [],
      "name": "governanceSettings",
      "outputs": [
        {
          "internalType": "contract IGovernanceSettings",
          "name": "",
          "type": "address"
        }
      ],
      "stateMutability": "view",
      "type": "function"
    },
    {
      "inputs": [
        {
          "internalType": "contract IGovernanceSettings",
          "name": "_governanceSettings",
          "type": "address"
        },
        {
          "internalType": "address",
          "name": "_initialGovernance",
          "type": "address"
        }
      ],
      "name": "initialise",
      "outputs": [],
      "stateMutability": "nonpayable",
      "type": "function"
    },
    {
      "inputs": [
        {
          "internalType": "address",
          "name": "_address",
          "type": "address"
        }
      ],
      "name": "isExecutor",
      "outputs": [
        {
          "internalType": "bool",
          "name": "",
          "type": "bool"
        }
      ],
      "stateMutability": "view",
      "type": "function"
    },
    {
      "inputs": [
        {
          "internalType": "address",
          "name": "_address",
          "type": "address"
        }
      ],
      "name": "isWhitelisted",
      "outputs": [
        {
          "internalType": "bool",
          "name": "",
          "type": "bool"
        }
      ],
      "stateMutability": "view",
      "type": "function"
    },
    {
      "inputs": [],
      "name": "productionMode",
      "outputs": [
        {
          "internalType": "bool",
          "name": "",
          "type": "bool"
        }
      ],
      "stateMutability": "view",
      "type": "function"
    },
    {
      "inputs": [
        {
          "internalType": "address",
          "name": "_address",
          "type": "address"
        }
      ],
      "name": "revokeAddress",
      "outputs": [],
      "stateMutability": "nonpayable",
      "type": "function"
    },
    {
      "inputs": [
        {
          "internalType": "bool",
          "name": "_allowAll",
          "type": "bool"
        }
      ],
      "name": "setAllowAll",
      "outputs": [],
      "stateMutability": "nonpayable",
      "type": "function"
    },
    {
      "inputs": [
        {
          "internalType": "address",
          "name": "_ownerWorkAddress",
          "type": "address"
        }
      ],
      "name": "setWorkAddress",
      "outputs": [],
      "stateMutability": "nonpayable",
      "type": "function"
    },
    {
      "inputs": [
        {
          "internalType": "bytes4",
          "name": "_interfaceId",
          "type": "bytes4"
        }
      ],
      "name": "supportsInterface",
      "outputs": [
        {
          "internalType": "bool",
          "name": "",
          "type": "bool"
        }
      ],
      "stateMutability": "pure",
      "type": "function"
    },
    {
      "inputs": [],
      "name": "supportsRevoke",
      "outputs": [
        {
          "internalType": "bool",
          "name": "",
          "type": "bool"
        }
      ],
      "stateMutability": "view",
      "type": "function"
    },
    {
      "inputs": [],
      "name": "switchToProductionMode",
      "outputs": [],
      "stateMutability": "nonpayable",
      "type": "function"
    },
    {
      "inputs": [
        {
          "internalType": "bytes4",
          "name": "",
          "type": "bytes4"
        }
      ],
      "name": "timelockedCalls",
      "outputs": [
        {
          "internalType": "uint256",
          "name": "allowedAfterTimestamp",
          "type": "uint256"
        },
        {
          "internalType": "bytes",
          "name": "encodedCall",
          "type": "bytes"
        }
      ],
      "stateMutability": "view",
      "type": "function"
    }
  ],
  "bytecode": "0x60a06040523480156200001157600080fd5b5060405162001849380380620018498339810160408190526200003491620001f4565b828282828262000045828262000062565b5050151560805250506003805460ff19169055506200024c915050565b600054600160a01b900460ff1615620000c25760405162461bcd60e51b815260206004820152601460248201527f696e697469616c6973656420213d2066616c736500000000000000000000000060448201526064015b60405180910390fd5b6001600160a01b0382166200011a5760405162461bcd60e51b815260206004820152601860248201527f676f7665726e616e63652073657474696e6773207a65726f00000000000000006044820152606401620000b9565b6001600160a01b038116620001655760405162461bcd60e51b815260206004820152601060248201526f5f676f7665726e616e6365207a65726f60801b6044820152606401620000b9565b600080546001600160a01b038481166001600160a81b031990921691909117600160a01b17909155600180549183166001600160a01b0319909216821790556040519081527f9789733827840833afc031fb2ef9ab6894271f77bad2085687cf4ae5c7bee4db9060200160405180910390a15050565b6001600160a01b0381168114620001f157600080fd5b50565b6000806000606084860312156200020a57600080fd5b83516200021781620001db565b60208501519093506200022a81620001db565b604085015190925080151581146200024157600080fd5b809150509250925092565b6080516115da6200026f600039600081816101a2015261037201526115da6000f3fe608060405234801561001057600080fd5b506004361061012c5760003560e01c806367fc4029116100ad578063e17f212e11610071578063e17f212e146102a7578063e2ec6ec3146102bb578063ef88bf13146102ce578063f5a98383146102e1578063fc31a2e8146102e957600080fd5b806367fc40291461023a578063689baff01461024d57806374e6310e146102605780637b9417c814610281578063debfda301461029457600080fd5b80634d7d9c01116100f45780634d7d9c01146101ec5780634ee643a5146101ff5780635aa6e6751461020c5780635ff270791461021457806362354e031461022757600080fd5b806301ffc9a714610131578063073e824e146101595780632583e7f71461019d578063317a7aec146101c45780633af32abf146101d9575b600080fd5b61014461013f366004611129565b610315565b60405190151581526020015b60405180910390f35b61018561016736600461117f565b6001600160a01b039081166000908152600560205260409020541690565b6040516001600160a01b039091168152602001610150565b6101447f000000000000000000000000000000000000000000000000000000000000000081565b6101d76101d236600461117f565b610341565b005b6101446101e736600461117f565b6103f0565b6101d76101fa3660046111aa565b61041e565b6003546101449060ff1681565b61018561045e565b6101d7610222366004611129565b6104fa565b600054610185906001600160a01b031681565b6101d7610248366004611129565b610780565b6101d761025b36600461117f565b610861565b61027361026e366004611129565b610a06565b6040516101509291906111eb565b6101d761028f36600461117f565b610aab565b6101446102a236600461117f565b610abc565b60005461014490600160a81b900460ff1681565b6101d76102c936600461123b565b610b3f565b6101d76102dc366004611300565b610b8b565b6101d7610cf1565b6101856102f736600461117f565b6001600160a01b039081166000908152600660205260409020541690565b600061032082610db7565b8061033b57506001600160e01b03198216637d87905360e11b145b92915050565b600054600160b01b900460ff16806103635750600054600160a81b900460ff16155b156103e557610370610ded565b7f00000000000000000000000000000000000000000000000000000000000000006103d95760405162461bcd60e51b81526020600482015260146024820152731c995d9bdad9481b9bdd081cdd5c1c1bdc9d195960621b60448201526064015b60405180910390fd5b6103e281610e27565b50565b6103e2600036610e7f565b6001600160a01b03811660009081526004602052604081205460ff168061033b575060035460ff1692915050565b600054600160b01b900460ff16806104405750600054600160a81b900460ff16155b156103e55761044d610ded565b6003805460ff191682151517905550565b60008054600160a81b900460ff1661048057506001546001600160a01b031690565b60008054906101000a90046001600160a01b03166001600160a01b031663732524946040518163ffffffff1660e01b8152600401602060405180830381865afa1580156104d1573d6000803e3d6000fd5b505050506040513d601f19601f820116820180604052508101906104f59190611339565b905090565b61050333610abc565b61053f5760405162461bcd60e51b815260206004820152600d60248201526c37b7363c9032bc32b1baba37b960991b60448201526064016103d0565b6001600160e01b03198116600090815260026020526040812080549091036105a95760405162461bcd60e51b815260206004820152601a60248201527f74696d656c6f636b3a20696e76616c69642073656c6563746f7200000000000060448201526064016103d0565b80544210156105fa5760405162461bcd60e51b815260206004820152601960248201527f74696d656c6f636b3a206e6f7420616c6c6f776564207965740000000000000060448201526064016103d0565b600081600101805461060b90611356565b80601f016020809104026020016040519081016040528092919081815260200182805461063790611356565b80156106845780601f1061065957610100808354040283529160200191610684565b820191906000526020600020905b81548152906001019060200180831161066757829003601f168201915b505050506001600160e01b03198516600090815260026020526040812081815592935090506106b660018301826110db565b50506000805460ff60b01b1916600160b01b17815560405130906106db908490611390565b6000604051808303816000865af19150503d8060008114610718576040519150601f19603f3d011682016040523d82523d6000602084013e61071d565b606091505b50506000805460ff60b01b19169055604080516001600160e01b0319871681524260208201529192507fa7326b57fc9cfe267aaea5e7f0b01757154d265620a0585819416ee9ddd2c438910160405180910390a161077a81610fcb565b50505050565b610788610fe8565b6001600160e01b0319811660009081526002602052604081205490036107f05760405162461bcd60e51b815260206004820152601a60248201527f74696d656c6f636b3a20696e76616c69642073656c6563746f7200000000000060448201526064016103d0565b604080516001600160e01b0319831681524260208201527f7735b2391c38a81419c513e30ca578db7158eadd7101511b23e221c654d19cf8910160405180910390a16001600160e01b0319811660009081526002602052604081208181559061085c60018301826110db565b505050565b61086a336103f0565b6108ae5760405162461bcd60e51b81526020600482015260156024820152741859d95b9d081b9bdd081dda1a5d195b1a5cdd1959605a1b60448201526064016103d0565b6001600160a01b03811615806108dc57506001600160a01b0381811660009081526005602052604090205416155b61091e5760405162461bcd60e51b8152602060048201526013602482015272776f726b206164647265737320696e2075736560681b60448201526064016103d0565b336000908152600660205260409020546001600160a01b03168015610964576001600160a01b038116600090815260056020526040902080546001600160a01b03191690555b33600090815260066020526040902080546001600160a01b0319166001600160a01b038416908117909155156109bd576001600160a01b038216600090815260056020526040902080546001600160a01b031916331790555b604080516001600160a01b0383811682528416602082015233917f174ce844d7e28d695e043ecb1f4f404b2b32b9d554236756bbbf09c730cfaf20910160405180910390a25050565b60026020526000908152604090208054600182018054919291610a2890611356565b80601f0160208091040260200160405190810160405280929190818152602001828054610a5490611356565b8015610aa15780601f10610a7657610100808354040283529160200191610aa1565b820191906000526020600020905b815481529060010190602001808311610a8457829003601f168201915b5050505050905082565b610ab3610fe8565b6103e281611042565b60008054600160a01b900460ff16801561033b5750600054604051630debfda360e41b81526001600160a01b0384811660048301529091169063debfda3090602401602060405180830381865afa158015610b1b573d6000803e3d6000fd5b505050506040513d601f19601f8201168201806040525081019061033b91906113ac565b610b47610fe8565b60005b8151811015610b8757610b75828281518110610b6857610b686113c9565b6020026020010151611042565b80610b7f816113f5565b915050610b4a565b5050565b600054600160a01b900460ff1615610bdc5760405162461bcd60e51b8152602060048201526014602482015273696e697469616c6973656420213d2066616c736560601b60448201526064016103d0565b6001600160a01b038216610c325760405162461bcd60e51b815260206004820152601860248201527f676f7665726e616e63652073657474696e6773207a65726f000000000000000060448201526064016103d0565b6001600160a01b038116610c7b5760405162461bcd60e51b815260206004820152601060248201526f5f676f7665726e616e6365207a65726f60801b60448201526064016103d0565b600080546001600160a01b038481166001600160a81b031990921691909117600160a01b17909155600180549183166001600160a01b0319909216821790556040519081527f9789733827840833afc031fb2ef9ab6894271f77bad2085687cf4ae5c7bee4db9060200160405180910390a15050565b610cf9610fe8565b600054600160a81b900460ff1615610d535760405162461bcd60e51b815260206004820152601a60248201527f616c726561647920696e2070726f64756374696f6e206d6f646500000000000060448201526064016103d0565b600180546001600160a01b031916905560008054600160a81b60ff60a81b198216179091556040516001600160a01b0390911681527f83af113638b5422f9e977cebc0aaf0eaf2188eb9a8baae7f9d46c42b33a1560c9060200160405180910390a1565b60006001600160e01b031982166301ffc9a760e01b148061033b57506001600160e01b03198216633af32abf60e01b1492915050565b600054600160b01b900460ff1615610e1d57333014610e0e57610e0e61140e565b6000805460ff60b01b19169055565b610e25610fe8565b565b6001600160a01b038116600081815260046020908152604091829020805460ff1916905590519182527fe01091cddc91f5497c62b6d5b4ae6514036739c2528f0463485236065e1eba4a91015b60405180910390a150565b610e87610fe8565b6000805460408051636221a54b60e01b81529051853593926001600160a01b031691636221a54b9160048083019260209291908290030181865afa158015610ed3573d6000803e3d6000fd5b505050506040513d601f19601f82011682018060405250810190610ef79190611424565b90506000610f05824261143d565b9050604051806040016040528082815260200186868080601f01602080910402602001604051908101604052809392919081815260200183838082843760009201829052509390945250506001600160e01b03198616815260026020908152604090912083518155908301519091506001820190610f83908261149e565b509050507fed948300a3694aa01d4a6b258bfd664350193d770c0b51f8387277f6d83ea3b683828787604051610fbc949392919061155e565b60405180910390a15050505050565b3d604051818101604052816000823e8215610fe4578181f35b8181fd5b610ff061045e565b6001600160a01b0316336001600160a01b031614610e255760405162461bcd60e51b815260206004820152600f60248201526e6f6e6c7920676f7665726e616e636560881b60448201526064016103d0565b6001600160a01b0381166110875760405162461bcd60e51b815260206004820152600c60248201526b61646472657373207a65726f60a01b60448201526064016103d0565b6001600160a01b038116600081815260046020908152604091829020805460ff1916600117905590519182527faab7954e9d246b167ef88aeddad35209ca2489d95a8aeb59e288d9b19fae5a549101610e74565b5080546110e790611356565b6000825580601f106110f7575050565b601f0160209004906000526020600020908101906103e291905b808211156111255760008155600101611111565b5090565b60006020828403121561113b57600080fd5b81356001600160e01b03198116811461115357600080fd5b9392505050565b6001600160a01b03811681146103e257600080fd5b803561117a8161115a565b919050565b60006020828403121561119157600080fd5b81356111538161115a565b80151581146103e257600080fd5b6000602082840312156111bc57600080fd5b81356111538161119c565b60005b838110156111e25781810151838201526020016111ca565b50506000910152565b82815260406020820152600082518060408401526112108160608501602087016111c7565b601f01601f1916919091016060019392505050565b634e487b7160e01b600052604160045260246000fd5b6000602080838503121561124e57600080fd5b823567ffffffffffffffff8082111561126657600080fd5b818501915085601f83011261127a57600080fd5b81358181111561128c5761128c611225565b8060051b604051601f19603f830116810181811085821117156112b1576112b1611225565b6040529182528482019250838101850191888311156112cf57600080fd5b938501935b828510156112f4576112e58561116f565b845293850193928501926112d4565b98975050505050505050565b6000806040838503121561131357600080fd5b823561131e8161115a565b9150602083013561132e8161115a565b809150509250929050565b60006020828403121561134b57600080fd5b81516111538161115a565b600181811c9082168061136a57607f821691505b60208210810361138a57634e487b7160e01b600052602260045260246000fd5b50919050565b600082516113a28184602087016111c7565b9190910192915050565b6000602082840312156113be57600080fd5b81516111538161119c565b634e487b7160e01b600052603260045260246000fd5b634e487b7160e01b600052601160045260246000fd5b600060018201611407576114076113df565b5060010190565b634e487b7160e01b600052600160045260246000fd5b60006020828403121561143657600080fd5b5051919050565b8082018082111561033b5761033b6113df565b601f82111561085c57600081815260208120601f850160051c810160208610156114775750805b601f850160051c820191505b8181101561149657828155600101611483565b505050505050565b815167ffffffffffffffff8111156114b8576114b8611225565b6114cc816114c68454611356565b84611450565b602080601f83116001811461150157600084156114e95750858301515b600019600386901b1c1916600185901b178555611496565b600085815260208120601f198616915b8281101561153057888601518255948401946001909101908401611511565b508582101561154e5787850151600019600388901b60f8161c191681555b5050505050600190811b01905550565b63ffffffff60e01b8516815283602082015260606040820152816060820152818360808301376000818301608090810191909152601f909201601f19160101939250505056fea264697066735822122041a9f42475d9e18a1b7130d7a20607b66f12a0111e3756e132f50ec5739f315e64736f6c63430008140033",
  "linkReferences": {},
  "deployedLinkReferences": {}
}