{
  "_format": "hh-sol-artifact-1",
  "contractName": "AddressUpdater",
  "sourceName": "cache/flattened/FlareSmartContracts.sol",
  "abi": [
    {
      "inputs": [
        {
          "internalType": "address",
          "name": "_governance",
          "type": "address"
        }
      ],
      "stateMutability": "nonpayable",
      "type": "constructor"
    },
    {
      "anonymous": false,
      "inputs": [
        {
          "indexed": false,
          "internalType": "bytes4",
          "name": "selector",
          "type": "bytes4"
        },
        {
          "indexed": false,
          "internalType": "uint256",
          "name": "allowedAfterTimestamp",
          "type": "uint256"
        },
        {
          "indexed": false,
          "internalType": "bytes",
          "name": "encodedCall",
          "type": "bytes"
        }
      ],
      "name": "GovernanceCallTimelocked",
      "type": "event"
    },
    {
      "anonymous": false,
      "inputs": [
        {
          "indexed": false,
          "internalType": "address",
          "name": "initialGovernance",
          "type": "address"
        }
      ],
      "name": "GovernanceInitialised",
      "type": "event"
    },
    {
      "anonymous": false,
      "inputs": [
        {
          "indexed": false,
          "internalType": "address",
          "name": "governanceSettings",
          "type": "address"
        }
      ],
      "name": "GovernedProductionModeEntered",
      "type": "event"
    },
    {
      "anonymous": false,
      "inputs": [
        {
          "indexed": false,
          "internalType": "bytes4",
          "name": "selector",
          "type": "bytes4"
        },
        {
          "indexed": false,
          "internalType": "uint256",
          "name": "timestamp",
          "type": "uint256"
        }
      ],
      "name": "TimelockedGovernanceCallCanceled",
      "type": "event"
    },
    {
      "anonymous": false,
      "inputs": [
        {
          "indexed": false,
          "internalType": "bytes4",
          "name": "selector",
          "type": "bytes4"
        },
        {
          "indexed": false,
          "internalType": "uint256",
          "name": "timestamp",
          "type": "uint256"
        }
      ],
      "name": "TimelockedGovernanceCallExecuted",
      "type": "event"
    },
    {
      "inputs": [
        {
          "internalType": "string[]",
          "name": "_contractNames",
          "type": "string[]"
        },
        {
          "internalType": "address[]",
          "name": "_contractAddresses",
          "type": "address[]"
        }
      ],
      "name": "addOrUpdateContractNamesAndAddresses",
      "outputs": [],
      "stateMutability": "nonpayable",
      "type": "function"
    },
    {
      "inputs": [
        {
          "internalType": "bytes4",
          "name": "_selector",
          "type": "bytes4"
        }
      ],
      "name": "cancelGovernanceCall",
      "outputs": [],
      "stateMutability": "nonpayable",
      "type": "function"
    },
    {
      "inputs": [
        {
          "internalType": "bytes4",
          "name": "_selector",
          "type": "bytes4"
        }
      ],
      "name": "executeGovernanceCall",
      "outputs": [],
      "stateMutability": "nonpayable",
      "type": "function"
    },
    {
      "inputs": [
        {
          "internalType": "string",
          "name": "_name",
          "type": "string"
        }
      ],
      "name": "getContractAddress",
      "outputs": [
        {
          "internalType": "address",
          "name": "",
          "type": "address"
        }
      ],
      "stateMutability": "view",
      "type": "function"
    },
    {
      "inputs": [],
      "name": "getContractNamesAndAddresses",
      "outputs": [
        {
          "internalType": "string[]",
          "name": "_contractNames",
          "type": "string[]"
        },
        {
          "internalType": "address[]",
          "name": "_contractAddresses",
          "type": "address[]"
        }
      ],
      "stateMutability": "view",
      "type": "function"
    },
    {
      "inputs": [],
      "name": "governance",
      "outputs": [
        {
          "internalType": "address",
          "name": "",
          "type": "address"
        }
      ],
      "stateMutability": "view",
      "type": "function"
    },
    {
      "inputs": [],
      "name": "governanceSettings",
      "outputs": [
        {
          "internalType": "contract IGovernanceSettings",
          "name": "",
          "type": "address"
        }
      ],
      "stateMutability": "view",
      "type": "function"
    },
    {
      "inputs": [
        {
          "internalType": "address",
          "name": "_initialGovernance",
          "type": "address"
        }
      ],
      "name": "initialise",
      "outputs": [],
      "stateMutability": "nonpayable",
      "type": "function"
    },
    {
      "inputs": [],
      "name": "productionMode",
      "outputs": [
        {
          "internalType": "bool",
          "name": "",
          "type": "bool"
        }
      ],
      "stateMutability": "view",
      "type": "function"
    },
    {
      "inputs": [],
      "name": "switchToProductionMode",
      "outputs": [],
      "stateMutability": "nonpayable",
      "type": "function"
    },
    {
      "inputs": [
        {
          "internalType": "bytes4",
          "name": "",
          "type": "bytes4"
        }
      ],
      "name": "timelockedCalls",
      "outputs": [
        {
          "internalType": "uint256",
          "name": "allowedAfterTimestamp",
          "type": "uint256"
        },
        {
          "internalType": "bytes",
          "name": "encodedCall",
          "type": "bytes"
        }
      ],
      "stateMutability": "view",
      "type": "function"
    },
    {
      "inputs": [
        {
          "internalType": "string[]",
          "name": "_contractNames",
          "type": "string[]"
        },
        {
          "internalType": "address[]",
          "name": "_contractAddresses",
          "type": "address[]"
        },
        {
          "internalType": "contract IIAddressUpdatable[]",
          "name": "_contractsToUpdate",
          "type": "address[]"
        }
      ],
      "name": "update",
      "outputs": [],
      "stateMutability": "nonpayable",
      "type": "function"
    },
    {
      "inputs": [
        {
          "internalType": "contract IIAddressUpdatable[]",
          "name": "_contractsToUpdate",
          "type": "address[]"
        }
      ],
      "name": "updateContractAddresses",
      "outputs": [],
      "stateMutability": "nonpayable",
      "type": "function"
    }
  ],
  "bytecode": "0x60806040523480156200001157600080fd5b5060405162001a6a38038062001a6a833981016040819052620000349162000120565b80806001600160a01b03811615620000515762000051816200008c565b506001600160a01b038116620000845760405162461bcd60e51b81526004016200007b9062000164565b60405180910390fd5b5050620001c5565b600054600160a01b900460ff1615620000b95760405162461bcd60e51b81526004016200007b906200018e565b60008054600160a01b60ff60a01b19909116176001600160a01b0319166001600160a01b0383161790556040517f9789733827840833afc031fb2ef9ab6894271f77bad2085687cf4ae5c7bee4db906200011590839062000150565b60405180910390a150565b60006020828403121562000132578081fd5b81516001600160a01b038116811462000149578182fd5b9392505050565b6001600160a01b0391909116815260200190565b60208082526010908201526f5f676f7665726e616e6365207a65726f60801b604082015260600190565b60208082526014908201527f696e697469616c6973656420213d2066616c7365000000000000000000000000604082015260600190565b61189580620001d56000396000f3fe608060405234801561001057600080fd5b50600436106100cf5760003560e01c806367fc40291161008c5780639933dba6116100665780639933dba6146101925780639d6a890f146101a5578063e17f212e146101b8578063f5a98383146101cd576100cf565b806367fc40291461014b57806374e6310e1461015e5780638246e4671461017f576100cf565b806304433bbc146100d45780631b0e2960146100fd5780632f26c5c3146101125780635aa6e675146101285780635ff270791461013057806362354e0314610143575b600080fd5b6100e76100e236600461146d565b6101d5565b6040516100f49190611543565b60405180910390f35b61011061010b366004611305565b610257565b005b61011a61026b565b6040516100f49291906115ae565b6100e7610411565b61011061013e366004611445565b6104b1565b6100e761072f565b610110610159366004611445565b61073a565b61017161016c366004611445565b6107e2565b6040516100f49291906117c3565b61011061018d366004611340565b610888565b6101106101a03660046113a1565b6108d5565b6101106101b33660046112c6565b610927565b6101c06109b6565b6040516100f49190611622565b6101106109c6565b600080600360006101e585610a50565b81526020808201929092526040908101600020548151808301909252600c82526b61646472657373207a65726f60a01b928201929092526001600160a01b039091169150816102505760405162461bcd60e51b8152600401610247919061168d565b60405180910390fd5b5092915050565b61025f610a80565b61026881610aba565b50565b6060806002805480602002602001604051908101604052809291908181526020016000905b8282101561033b5760008481526020908190208301805460408051601f60026000196101006001871615020190941693909304928301859004850281018501909152818152928301828280156103275780601f106102fc57610100808354040283529160200191610327565b820191906000526020600020905b81548152906001019060200180831161030a57829003601f168201915b505050505081526020019060010190610290565b505082519294508291505067ffffffffffffffff8111801561035c57600080fd5b50604051908082528060200260200182016040528015610386578160200160208202803683370190505b5091505b801561040c57808060019003915050600360006103b98584815181106103ac57fe5b6020026020010151610a50565b815260200190815260200160002060009054906101000a90046001600160a01b03168282815181106103e757fe5b60200260200101906001600160a01b031690816001600160a01b03168152505061038a565b509091565b60008054600160a81b900460ff16610434576000546001600160a01b03166104ac565b60076001609c1b016001600160a01b031663732524946040518163ffffffff1660e01b815260040160206040518083038186803b15801561047457600080fd5b505afa158015610488573d6000803e3d6000fd5b505050506040513d601f19601f820116820180604052508101906104ac91906112e9565b905090565b604051630debfda360e41b815260076001609c1b019063debfda30906104db903390600401611543565b60206040518083038186803b1580156104f357600080fd5b505afa158015610507573d6000803e3d6000fd5b505050506040513d601f19601f8201168201806040525081019061052b9190611425565b6105475760405162461bcd60e51b815260040161024790611765565b6001600160e01b031981166000908152600160205260409020805461057e5760405162461bcd60e51b81526004016102479061178c565b805442101561059f5760405162461bcd60e51b815260040161024790611700565b6000816001018054600181600116156101000203166002900480601f0160208091040260200160405190810160405280929190818152602001828054600181600116156101000203166002900480156106395780601f1061060e57610100808354040283529160200191610639565b820191906000526020600020905b81548152906001019060200180831161061c57829003601f168201915b5050506001600160e01b031986166000908152600160208190526040822082815594955090925061066d915083018261104f565b50506000805460ff60b01b1916600160b01b1781556040513090610692908490611527565b6000604051808303816000865af19150503d80600081146106cf576040519150601f19603f3d011682016040523d82523d6000602084013e6106d4565b606091505b50506000805460ff60b01b191690556040519091507fa7326b57fc9cfe267aaea5e7f0b01757154d265620a0585819416ee9ddd2c43890610718908690429061162d565b60405180910390a161072981610d16565b50505050565b60076001609c1b0181565b610742610a80565b6001600160e01b031981166000908152600160205260409020546107785760405162461bcd60e51b81526004016102479061178c565b7f7735b2391c38a81419c513e30ca578db7158eadd7101511b23e221c654d19cf881426040516107a992919061162d565b60405180910390a16001600160e01b031981166000908152600160208190526040822082815591906107dd9083018261104f565b505050565b600160208181526000928352604092839020805481840180548651600296821615610100026000190190911695909504601f8101859004850286018501909652858552909491939290919083018282801561087e5780601f106108535761010080835404028352916020019161087e565b820191906000526020600020905b81548152906001019060200180831161086157829003601f168201915b5050505050905082565b600054600160b01b900460ff16806108aa5750600054600160a81b900460ff16155b156108c6576108b7610d33565b6108c18282610d68565b6108d1565b6108d1600036610ef8565b5050565b600054600160b01b900460ff16806108f75750600054600160a81b900460ff16155b1561091c57610904610d33565b61090e8383610d68565b61091781610aba565b6107dd565b6107dd600036610ef8565b600054600160a01b900460ff16156109515760405162461bcd60e51b815260040161024790611737565b60008054600160a01b60ff60a01b19909116176001600160a01b0319166001600160a01b0383161790556040517f9789733827840833afc031fb2ef9ab6894271f77bad2085687cf4ae5c7bee4db906109ab908390611543565b60405180910390a150565b600054600160a81b900460ff1681565b6109ce610a80565b600054600160a81b900460ff16156109f85760405162461bcd60e51b8152600401610247906116a0565b60008054600161ff0160a01b031916600160a81b1790556040517f83af113638b5422f9e977cebc0aaf0eaf2188eb9a8baae7f9d46c42b33a1560c90610a469060076001609c1b0190611543565b60405180910390a1565b600081604051602001610a63919061168d565b604051602081830303815290604052805190602001209050919050565b610a88610411565b6001600160a01b0316336001600160a01b031614610ab85760405162461bcd60e51b8152600401610247906116d7565b565b60025460008167ffffffffffffffff81118015610ad657600080fd5b50604051908082528060200260200182016040528015610b00578160200160208202803683370190505b50905060008267ffffffffffffffff81118015610b1c57600080fd5b50604051908082528060200260200182016040528015610b46578160200160208202803683370190505b5090505b8215610c8457828060019003935050610c0160028481548110610b6957fe5b600091825260209182902001805460408051601f6002600019610100600187161502019094169390930492830185900485028101850190915281815292830182828015610bf75780601f10610bcc57610100808354040283529160200191610bf7565b820191906000526020600020905b815481529060010190602001808311610bda57829003601f168201915b5050505050610a50565b828481518110610c0d57fe5b60200260200101818152505060036000838581518110610c2957fe5b6020026020010151815260200190815260200160002060009054906101000a90046001600160a01b0316818481518110610c5f57fe5b60200260200101906001600160a01b031690816001600160a01b031681525050610b4a565b60005b8451811015610d0f57848181518110610c9c57fe5b60200260200101516001600160a01b031663b00c0b7684846040518363ffffffff1660e01b8152600401610cd1929190611557565b600060405180830381600087803b158015610ceb57600080fd5b505af1158015610cff573d6000803e3d6000fd5b505060019092019150610c879050565b5050505050565b3d604051818101604052816000823e8215610d2f578181f35b8181fd5b600054600160b01b900460ff1615610d6057333014610d4e57fe5b6000805460ff60b01b19169055610ab8565b610ab8610a80565b8151815160408051808201909152601a81527f6172726179206c656e6774687320646f206e6f74206d617463680000000000006020820152908214610dc05760405162461bcd60e51b8152600401610247919061168d565b5060005b818110156107295760006001600160a01b0316838281518110610de357fe5b60200260200101516001600160a01b031614156040518060400160405280600c81526020016b61646472657373207a65726f60a01b81525090610e395760405162461bcd60e51b8152600401610247919061168d565b506000610e4b8583815181106103ac57fe5b6000818152600360205260409020549091506001600160a01b0316610eac576002858381518110610e7857fe5b60209081029190910181015182546001810184556000938452928290208151610eaa9491909101929190910190611093565b505b838281518110610eb857fe5b60209081029190910181015160009283526003909152604090912080546001600160a01b0319166001600160a01b03909216919091179055600101610dc4565b610f00610a80565b600082359050600060076001609c1b016001600160a01b0316636221a54b6040518163ffffffff1660e01b815260040160206040518083038186803b158015610f4857600080fd5b505afa158015610f5c573d6000803e3d6000fd5b505050506040513d601f19601f82011682018060405250810190610f8091906114a0565b905060008142019050604051806040016040528082815260200186868080601f01602080910402602001604051908101604052809392919081815260200183838082843760009201829052509390945250506001600160e01b0319861681526001602081815260409092208451815584830151805191945061100793928501920190611093565b509050507fed948300a3694aa01d4a6b258bfd664350193d770c0b51f8387277f6d83ea3b6838287876040516110409493929190611647565b60405180910390a15050505050565b50805460018160011615610100020316600290046000825580601f106110755750610268565b601f016020900490600052602060002090810190610268919061111f565b828054600181600116156101000203166002900490600052602060002090601f0160209004810192826110c9576000855561110f565b82601f106110e257805160ff191683800117855561110f565b8280016001018555821561110f579182015b8281111561110f5782518255916020019190600101906110f4565b5061111b92915061111f565b5090565b5b8082111561111b5760008155600101611120565b600082601f830112611144578081fd5b8135602061115961115483611800565b6117dc565b8281528181019085830183850287018401881015611175578586fd5b855b8581101561119c57813561118a8161184a565b84529284019290840190600101611177565b5090979650505050505050565b600082601f8301126111b9578081fd5b813560206111c961115483611800565b82815281810190858301838502870184018810156111e5578586fd5b855b8581101561119c5781356111fa8161184a565b845292840192908401906001016111e7565b600082601f83011261121c578081fd5b8135602061122c61115483611800565b82815281810190858301855b8581101561119c5761124f898684358b0101611261565b84529284019290840190600101611238565b600082601f830112611271578081fd5b813567ffffffffffffffff81111561128557fe5b611298601f8201601f19166020016117dc565b8181528460208386010111156112ac578283fd5b816020850160208301379081016020019190915292915050565b6000602082840312156112d7578081fd5b81356112e28161184a565b9392505050565b6000602082840312156112fa578081fd5b81516112e28161184a565b600060208284031215611316578081fd5b813567ffffffffffffffff81111561132c578182fd5b611338848285016111a9565b949350505050565b60008060408385031215611352578081fd5b823567ffffffffffffffff80821115611369578283fd5b6113758683870161120c565b9350602085013591508082111561138a578283fd5b5061139785828601611134565b9150509250929050565b6000806000606084860312156113b5578081fd5b833567ffffffffffffffff808211156113cc578283fd5b6113d88783880161120c565b945060208601359150808211156113ed578283fd5b6113f987838801611134565b9350604086013591508082111561140e578283fd5b5061141b868287016111a9565b9150509250925092565b600060208284031215611436578081fd5b815180151581146112e2578182fd5b600060208284031215611456578081fd5b81356001600160e01b0319811681146112e2578182fd5b60006020828403121561147e578081fd5b813567ffffffffffffffff811115611494578182fd5b61133884828501611261565b6000602082840312156114b1578081fd5b5051919050565b6000815180845260208085019450808401835b838110156114f05781516001600160a01b0316875295820195908201906001016114cb565b509495945050505050565b6000815180845261151381602086016020860161181e565b601f01601f19169290920160200192915050565b6000825161153981846020870161181e565b9190910192915050565b6001600160a01b0391909116815260200190565b604080825283519082018190526000906020906060840190828701845b8281101561159057815184529284019290840190600101611574565b505050838103828501526115a481866114b8565b9695505050505050565b60006040820160408352808551808352606085019150602092506060838202860101838801855b8381101561160357605f198884030185526115f18383516114fb565b948601949250908501906001016115d5565b50508581038487015261161681886114b8565b98975050505050505050565b901515815260200190565b6001600160e01b0319929092168252602082015260400190565b600063ffffffff60e01b861682528460208301526060604083015282606083015282846080840137818301608090810191909152601f909201601f191601019392505050565b6000602082526112e260208301846114fb565b6020808252601a908201527f616c726561647920696e2070726f64756374696f6e206d6f6465000000000000604082015260600190565b6020808252600f908201526e6f6e6c7920676f7665726e616e636560881b604082015260600190565b60208082526019908201527f74696d656c6f636b3a206e6f7420616c6c6f7765642079657400000000000000604082015260600190565b602080825260149082015273696e697469616c6973656420213d2066616c736560601b604082015260600190565b6020808252600d908201526c37b7363c9032bc32b1baba37b960991b604082015260600190565b6020808252601a908201527f74696d656c6f636b3a20696e76616c69642073656c6563746f72000000000000604082015260600190565b60008382526040602083015261133860408301846114fb565b60405181810167ffffffffffffffff811182821017156117f857fe5b604052919050565b600067ffffffffffffffff82111561181457fe5b5060209081020190565b60005b83811015611839578181015183820152602001611821565b838111156107295750506000910152565b6001600160a01b038116811461026857600080fdfea2646970667358221220fced9c4d0260e27ab27923707ff6a51d1ecff341919cebb1bdccffdeeced11ac64736f6c63430007060033",
  "linkReferences": {},
  "deployedLinkReferences": {}
}