{
  "_format": "hh-sol-artifact-1",
  "contractName": "Delegatable",
  "sourceName": "cache/flattened/FlareSmartContracts.sol",
  "abi": [
    {
      "anonymous": false,
      "inputs": [
        {
          "indexed": false,
          "internalType": "address",
          "name": "_owner",
          "type": "address"
        },
        {
          "indexed": false,
          "internalType": "uint256",
          "name": "_blockNumber",
          "type": "uint256"
        }
      ],
      "name": "CreatedVotePowerCache",
      "type": "event"
    },
    {
      "anonymous": false,
      "inputs": [
        {
          "indexed": true,
          "internalType": "address",
          "name": "from",
          "type": "address"
        },
        {
          "indexed": true,
          "internalType": "address",
          "name": "to",
          "type": "address"
        },
        {
          "indexed": false,
          "internalType": "uint256",
          "name": "priorVotePower",
          "type": "uint256"
        },
        {
          "indexed": false,
          "internalType": "uint256",
          "name": "newVotePower",
          "type": "uint256"
        }
      ],
      "name": "Delegate",
      "type": "event"
    },
    {
      "anonymous": false,
      "inputs": [
        {
          "indexed": true,
          "internalType": "address",
          "name": "delegator",
          "type": "address"
        },
        {
          "indexed": true,
          "internalType": "address",
          "name": "delegatee",
          "type": "address"
        },
        {
          "indexed": false,
          "internalType": "uint256",
          "name": "votePower",
          "type": "uint256"
        },
        {
          "indexed": false,
          "internalType": "uint256",
          "name": "blockNumber",
          "type": "uint256"
        }
      ],
      "name": "Revoke",
      "type": "event"
    },
    {
      "inputs": [
        {
          "internalType": "address",
          "name": "_from",
          "type": "address"
        },
        {
          "internalType": "address",
          "name": "_to",
          "type": "address"
        },
        {
          "internalType": "uint256",
          "name": "_count",
          "type": "uint256"
        }
      ],
      "name": "explicitDelegationHistoryCleanup",
      "outputs": [
        {
          "internalType": "uint256",
          "name": "",
          "type": "uint256"
        }
      ],
      "stateMutability": "nonpayable",
      "type": "function"
    },
    {
      "inputs": [
        {
          "internalType": "address",
          "name": "_owner",
          "type": "address"
        },
        {
          "internalType": "uint256",
          "name": "_count",
          "type": "uint256"
        }
      ],
      "name": "percentageDelegationHistoryCleanup",
      "outputs": [
        {
          "internalType": "uint256",
          "name": "",
          "type": "uint256"
        }
      ],
      "stateMutability": "nonpayable",
      "type": "function"
    },
    {
      "inputs": [
        {
          "internalType": "address",
          "name": "_from",
          "type": "address"
        },
        {
          "internalType": "address",
          "name": "_to",
          "type": "address"
        },
        {
          "internalType": "uint256",
          "name": "_blockNumber",
          "type": "uint256"
        }
      ],
      "name": "revocationCleanup",
      "outputs": [
        {
          "internalType": "uint256",
          "name": "",
          "type": "uint256"
        }
      ],
      "stateMutability": "nonpayable",
      "type": "function"
    },
    {
      "inputs": [
        {
          "internalType": "address",
          "name": "_owner",
          "type": "address"
        },
        {
          "internalType": "uint256",
          "name": "_blockNumber",
          "type": "uint256"
        }
      ],
      "name": "votePowerCacheCleanup",
      "outputs": [
        {
          "internalType": "uint256",
          "name": "",
          "type": "uint256"
        }
      ],
      "stateMutability": "nonpayable",
      "type": "function"
    },
    {
      "inputs": [
        {
          "internalType": "address",
          "name": "_owner",
          "type": "address"
        },
        {
          "internalType": "uint256",
          "name": "_count",
          "type": "uint256"
        }
      ],
      "name": "votePowerHistoryCleanup",
      "outputs": [
        {
          "internalType": "uint256",
          "name": "",
          "type": "uint256"
        }
      ],
      "stateMutability": "nonpayable",
      "type": "function"
    }
  ],
  "bytecode": "0x608060405234801561001057600080fd5b50610801806100206000396000f3fe608060405234801561001057600080fd5b50600436106100575760003560e01c80631a05274c1461005c5780637f57d58f14610085578063891339a8146100985780638c0b6b40146100ab578063cabc4528146100be575b600080fd5b61006f61006a36600461069d565b6100d1565b60405161007c91906107c2565b60405180910390f35b61006f61009336600461069d565b610121565b61006f6100a636600461069d565b610174565b61006f6100b9366004610662565b6101ce565b61006f6100cc366004610662565b610231565b6007546000906001600160a01b031633146101075760405162461bcd60e51b81526004016100fe90610716565b60405180910390fd5b60065461011a9060039085908590610286565b9392505050565b6007546000906001600160a01b0316331461014e5760405162461bcd60e51b81526004016100fe90610716565b6006546001600160a01b038416600090815260016020526040902061011a91849061029d565b6007546000906001600160a01b031633146101a15760405162461bcd60e51b81526004016100fe90610716565b60065482106101c25760405162461bcd60e51b81526004016100fe9061078b565b61011a600484846102aa565b6007546000906001600160a01b031633146101fb5760405162461bcd60e51b81526004016100fe90610716565b600654821061021c5760405162461bcd60e51b81526004016100fe9061078b565b610229600485858561030e565b949350505050565b6007546000906001600160a01b0316331461025e5760405162461bcd60e51b81526004016100fe90610716565b6006546001600160a01b0385166000908152600260205260409020610229918590859061039b565b6000610294858585856103c2565b95945050505050565b60006102298484846103fd565b60008083836040516020016102c09291906106c6565b60408051601f198184030181529181528151602092830120600081815292889052912054909150156103035760009081526020859052604081205550600161011a565b506000949350505050565b60008084836040516020016103249291906106c6565b60408051601f198184030181529181528151602092830120600081815260018a0184528281206001600160a01b0389168252938490529190912054909250801561038d57506001600160a01b038516600090815260209190915260408120555060019050610229565b506000979650505050505050565b60006103a885848461053f565b90506103b9600286018585856103c2565b01949350505050565b60006001600160a01b03841615610303576001600160a01b03841660009081526020869052604090206103f690848461053f565b9050610229565b60008161040c5750600061011a565b6001840154600160401b900467ffffffffffffffff168061043157600091505061011a565b600185015467ffffffffffffffff16600061045861044f83886105e3565b60018503610608565b9050815b8181108015610497575060018101600090815260208981526040808320838052909152902054600160b01b900467ffffffffffffffff168610155b156104fb57600081815260208981526040808320838052918290528220549091600160f01b90910460ff16905b818110156104f057600081815260208490526040902080546001600160f81b03191690556001016104c4565b50505060010161045c565b828111156105315761050c8161061e565b60018901805467ffffffffffffffff191667ffffffffffffffff929092169190911790555b919091039695505050505050565b60008161054e5750600061011a565b6001840154600160401b900467ffffffffffffffff168061057357600091505061011a565b600185015467ffffffffffffffff16600061059161044f83886105e3565b9050815b81811080156105c7575060018101600090815260208990526040902054600160c01b900467ffffffffffffffff168610155b156104fb57600081815260208990526040812055600101610595565b60008282018381101561011a5760405162461bcd60e51b81526004016100fe906106df565b6000818310610617578161011a565b5090919050565b6000600160401b82106106435760405162461bcd60e51b81526004016100fe90610745565b50805b919050565b80356001600160a01b038116811461064657600080fd5b600080600060608486031215610676578283fd5b61067f8461064b565b925061068d6020850161064b565b9150604084013590509250925092565b600080604083850312156106af578081fd5b6106b88361064b565b946020939093013593505050565b6001600160a01b03929092168252602082015260400190565b6020808252601b908201527f536166654d6174683a206164646974696f6e206f766572666c6f770000000000604082015260600190565b60208082526015908201527413db9b1e4818db19585b995c8818dbdb9d1c9858dd605a1b604082015260600190565b60208082526026908201527f53616665436173743a2076616c756520646f65736e27742066697420696e203660408201526534206269747360d01b606082015260800190565b6020808252601e908201527f4e6f20636c65616e757020616674657220636c65616e757020626c6f636b0000604082015260600190565b9081526020019056fea2646970667358221220aac969f7d57e7efea5e254fae54ecd485c9bcac31cc883e6c01bc2f57b213bd664736f6c63430007060033",
  "linkReferences": {},
  "deployedLinkReferences": {}
}