{
  "_format": "hh-sol-artifact-1",
  "contractName": "PercentageDelegation",
  "sourceName": "cache/flattened/FlareSmartContracts.sol",
  "abi": [
    {
      "inputs": [],
      "name": "MAX_BIPS",
      "outputs": [
        {
          "internalType": "uint256",
          "name": "",
          "type": "uint256"
        }
      ],
      "stateMutability": "view",
      "type": "function"
    }
  ],
  "bytecode": "0x6097610024600b82828239805160001a607314601757fe5b30600052607381538281f3fe730000000000000000000000000000000000000000301460806040526004361060335760003560e01c8063b3249e9e146038575b600080fd5b603e6052565b604051604991906058565b60405180910390f35b61271081565b9081526020019056fea26469706673582212207adc1e5d451c5999f6847c330e73eecace10e351b274ebab75c007c40313fa5a64736f6c63430007060033",
  "linkReferences": {},
  "deployedLinkReferences": {}
}