{
  "_format": "hh-sol-artifact-1",
  "contractName": "MathUtilsMock",
  "sourceName": "contracts/utils/mock/MathUtilsMock.sol",
  "abi": [
    {
      "inputs": [
        {
          "internalType": "uint256",
          "name": "x",
          "type": "uint256"
        },
        {
          "internalType": "uint256",
          "name": "rounding",
          "type": "uint256"
        }
      ],
      "name": "roundUp",
      "outputs": [
        {
          "internalType": "uint256",
          "name": "",
          "type": "uint256"
        }
      ],
      "stateMutability": "pure",
      "type": "function"
    }
  ],
  "bytecode": "0x608060405234801561001057600080fd5b50610159806100206000396000f3fe608060405234801561001057600080fd5b506004361061002b5760003560e01c806303ce6c5514610030575b600080fd5b61004361003e3660046100a3565b610055565b60405190815260200160405180910390f35b6000610061838361006a565b90505b92915050565b60008061007783856100c5565b90508015610099578261008a82866100fd565b6100949190610110565b61009b565b835b949350505050565b600080604083850312156100b657600080fd5b50508035926020909101359150565b6000826100e257634e487b7160e01b600052601260045260246000fd5b500690565b634e487b7160e01b600052601160045260246000fd5b81810381811115610064576100646100e7565b80820180821115610064576100646100e756fea26469706673582212206b34363f08e0e354b14d006b351cca6aad287cf07c1513af35b5a9352c07ec4d64736f6c63430008170033",
  "linkReferences": {},
  "deployedLinkReferences": {}
}