{
  "_format": "hh-sol-artifact-1",
  "contractName": "MathUtilsMock",
  "sourceName": "contracts/utils/mock/MathUtilsMock.sol",
  "abi": [
    {
      "inputs": [
        {
          "internalType": "uint256",
          "name": "x",
          "type": "uint256"
        },
        {
          "internalType": "uint256",
          "name": "rounding",
          "type": "uint256"
        }
      ],
      "name": "roundUp",
      "outputs": [
        {
          "internalType": "uint256",
          "name": "",
          "type": "uint256"
        }
      ],
      "stateMutability": "pure",
      "type": "function"
    },
    {
      "inputs": [
        {
          "internalType": "uint256",
          "name": "_a",
          "type": "uint256"
        },
        {
          "internalType": "uint256",
          "name": "_b",
          "type": "uint256"
        }
      ],
      "name": "subOrZero",
      "outputs": [
        {
          "internalType": "uint256",
          "name": "",
          "type": "uint256"
        }
      ],
      "stateMutability": "pure",
      "type": "function"
    }
  ],
  "bytecode": "0x608060405234801561001057600080fd5b5061019d806100206000396000f3fe608060405234801561001057600080fd5b50600436106100365760003560e01c806303ce6c551461003b5780630842669814610060575b600080fd5b61004e6100493660046100e7565b610073565b60405190815260200160405180910390f35b61004e61006e3660046100e7565b610088565b600061007f8383610094565b90505b92915050565b600061007f83836100cd565b6000806100a18385610109565b905080156100c357826100b48286610141565b6100be9190610154565b6100c5565b835b949350505050565b60008183116100dd57600061007f565b61007f8284610141565b600080604083850312156100fa57600080fd5b50508035926020909101359150565b60008261012657634e487b7160e01b600052601260045260246000fd5b500690565b634e487b7160e01b600052601160045260246000fd5b818103818111156100825761008261012b565b808201808211156100825761008261012b56fea26469706673582212208eb7bfe4bdbeaa0e307fb965a1155d093ef54ba7bfc13163f15ddbd712e20ada64736f6c63430008170033",
  "linkReferences": {},
  "deployedLinkReferences": {}
}