{
  "_format": "hh-sol-artifact-1",
  "contractName": "Challenger",
  "sourceName": "liquidator/contracts/Challenger.sol",
  "abi": [
    {
      "inputs": [
        {
          "internalType": "address",
          "name": "_flashLender",
          "type": "address"
        },
        {
          "internalType": "address",
          "name": "_dex",
          "type": "address"
        }
      ],
      "stateMutability": "nonpayable",
      "type": "constructor"
    },
    {
      "anonymous": false,
      "inputs": [
        {
          "indexed": true,
          "internalType": "address",
          "name": "previousOwner",
          "type": "address"
        },
        {
          "indexed": true,
          "internalType": "address",
          "name": "newOwner",
          "type": "address"
        }
      ],
      "name": "OwnershipTransferred",
      "type": "event"
    },
    {
      "inputs": [],
      "name": "dex",
      "outputs": [
        {
          "internalType": "address",
          "name": "",
          "type": "address"
        }
      ],
      "stateMutability": "view",
      "type": "function"
    },
    {
      "inputs": [
        {
          "components": [
            {
              "internalType": "bytes32[]",
              "name": "merkleProof",
              "type": "bytes32[]"
            },
            {
              "components": [
                {
                  "internalType": "bytes32",
                  "name": "attestationType",
                  "type": "bytes32"
                },
                {
                  "internalType": "bytes32",
                  "name": "sourceId",
                  "type": "bytes32"
                },
                {
                  "internalType": "uint64",
                  "name": "votingRound",
                  "type": "uint64"
                },
                {
                  "internalType": "uint64",
                  "name": "lowestUsedTimestamp",
                  "type": "uint64"
                },
                {
                  "components": [
                    {
                      "internalType": "bytes32",
                      "name": "transactionId",
                      "type": "bytes32"
                    },
                    {
                      "internalType": "bytes32",
                      "name": "sourceAddressIndicator",
                      "type": "bytes32"
                    }
                  ],
                  "internalType": "struct BalanceDecreasingTransaction.RequestBody",
                  "name": "requestBody",
                  "type": "tuple"
                },
                {
                  "components": [
                    {
                      "internalType": "uint64",
                      "name": "blockNumber",
                      "type": "uint64"
                    },
                    {
                      "internalType": "uint64",
                      "name": "blockTimestamp",
                      "type": "uint64"
                    },
                    {
                      "internalType": "bytes32",
                      "name": "sourceAddressHash",
                      "type": "bytes32"
                    },
                    {
                      "internalType": "int256",
                      "name": "spentAmount",
                      "type": "int256"
                    },
                    {
                      "internalType": "bytes32",
                      "name": "standardPaymentReference",
                      "type": "bytes32"
                    }
                  ],
                  "internalType": "struct BalanceDecreasingTransaction.ResponseBody",
                  "name": "responseBody",
                  "type": "tuple"
                }
              ],
              "internalType": "struct BalanceDecreasingTransaction.Response",
              "name": "data",
              "type": "tuple"
            }
          ],
          "internalType": "struct BalanceDecreasingTransaction.Proof",
          "name": "_payment1",
          "type": "tuple"
        },
        {
          "components": [
            {
              "internalType": "bytes32[]",
              "name": "merkleProof",
              "type": "bytes32[]"
            },
            {
              "components": [
                {
                  "internalType": "bytes32",
                  "name": "attestationType",
                  "type": "bytes32"
                },
                {
                  "internalType": "bytes32",
                  "name": "sourceId",
                  "type": "bytes32"
                },
                {
                  "internalType": "uint64",
                  "name": "votingRound",
                  "type": "uint64"
                },
                {
                  "internalType": "uint64",
                  "name": "lowestUsedTimestamp",
                  "type": "uint64"
                },
                {
                  "components": [
                    {
                      "internalType": "bytes32",
                      "name": "transactionId",
                      "type": "bytes32"
                    },
                    {
                      "internalType": "bytes32",
                      "name": "sourceAddressIndicator",
                      "type": "bytes32"
                    }
                  ],
                  "internalType": "struct BalanceDecreasingTransaction.RequestBody",
                  "name": "requestBody",
                  "type": "tuple"
                },
                {
                  "components": [
                    {
                      "internalType": "uint64",
                      "name": "blockNumber",
                      "type": "uint64"
                    },
                    {
                      "internalType": "uint64",
                      "name": "blockTimestamp",
                      "type": "uint64"
                    },
                    {
                      "internalType": "bytes32",
                      "name": "sourceAddressHash",
                      "type": "bytes32"
                    },
                    {
                      "internalType": "int256",
                      "name": "spentAmount",
                      "type": "int256"
                    },
                    {
                      "internalType": "bytes32",
                      "name": "standardPaymentReference",
                      "type": "bytes32"
                    }
                  ],
                  "internalType": "struct BalanceDecreasingTransaction.ResponseBody",
                  "name": "responseBody",
                  "type": "tuple"
                }
              ],
              "internalType": "struct BalanceDecreasingTransaction.Response",
              "name": "data",
              "type": "tuple"
            }
          ],
          "internalType": "struct BalanceDecreasingTransaction.Proof",
          "name": "_payment2",
          "type": "tuple"
        },
        {
          "internalType": "address",
          "name": "_agentVault",
          "type": "address"
        },
        {
          "internalType": "address",
          "name": "_profitTo",
          "type": "address"
        },
        {
          "components": [
            {
              "internalType": "address",
              "name": "flashLender",
              "type": "address"
            },
            {
              "internalType": "uint256",
              "name": "maxFlashFeeBips",
              "type": "uint256"
            },
            {
              "internalType": "address",
              "name": "dex",
              "type": "address"
            },
            {
              "components": [
                {
                  "internalType": "address[]",
                  "name": "path",
                  "type": "address[]"
                },
                {
                  "internalType": "uint256",
                  "name": "minPriceMul",
                  "type": "uint256"
                },
                {
                  "internalType": "uint256",
                  "name": "minPriceDiv",
                  "type": "uint256"
                }
              ],
              "internalType": "struct DexPairConfig",
              "name": "dexPair1",
              "type": "tuple"
            },
            {
              "components": [
                {
                  "internalType": "address[]",
                  "name": "path",
                  "type": "address[]"
                },
                {
                  "internalType": "uint256",
                  "name": "minPriceMul",
                  "type": "uint256"
                },
                {
                  "internalType": "uint256",
                  "name": "minPriceDiv",
                  "type": "uint256"
                }
              ],
              "internalType": "struct DexPairConfig",
              "name": "dexPair2",
              "type": "tuple"
            }
          ],
          "internalType": "struct ArbitrageConfig",
          "name": "_config",
          "type": "tuple"
        }
      ],
      "name": "doublePaymentChallenge",
      "outputs": [],
      "stateMutability": "nonpayable",
      "type": "function"
    },
    {
      "inputs": [],
      "name": "flashLender",
      "outputs": [
        {
          "internalType": "address",
          "name": "",
          "type": "address"
        }
      ],
      "stateMutability": "view",
      "type": "function"
    },
    {
      "inputs": [
        {
          "components": [
            {
              "internalType": "bytes32[]",
              "name": "merkleProof",
              "type": "bytes32[]"
            },
            {
              "components": [
                {
                  "internalType": "bytes32",
                  "name": "attestationType",
                  "type": "bytes32"
                },
                {
                  "internalType": "bytes32",
                  "name": "sourceId",
                  "type": "bytes32"
                },
                {
                  "internalType": "uint64",
                  "name": "votingRound",
                  "type": "uint64"
                },
                {
                  "internalType": "uint64",
                  "name": "lowestUsedTimestamp",
                  "type": "uint64"
                },
                {
                  "components": [
                    {
                      "internalType": "bytes32",
                      "name": "transactionId",
                      "type": "bytes32"
                    },
                    {
                      "internalType": "bytes32",
                      "name": "sourceAddressIndicator",
                      "type": "bytes32"
                    }
                  ],
                  "internalType": "struct BalanceDecreasingTransaction.RequestBody",
                  "name": "requestBody",
                  "type": "tuple"
                },
                {
                  "components": [
                    {
                      "internalType": "uint64",
                      "name": "blockNumber",
                      "type": "uint64"
                    },
                    {
                      "internalType": "uint64",
                      "name": "blockTimestamp",
                      "type": "uint64"
                    },
                    {
                      "internalType": "bytes32",
                      "name": "sourceAddressHash",
                      "type": "bytes32"
                    },
                    {
                      "internalType": "int256",
                      "name": "spentAmount",
                      "type": "int256"
                    },
                    {
                      "internalType": "bytes32",
                      "name": "standardPaymentReference",
                      "type": "bytes32"
                    }
                  ],
                  "internalType": "struct BalanceDecreasingTransaction.ResponseBody",
                  "name": "responseBody",
                  "type": "tuple"
                }
              ],
              "internalType": "struct BalanceDecreasingTransaction.Response",
              "name": "data",
              "type": "tuple"
            }
          ],
          "internalType": "struct BalanceDecreasingTransaction.Proof[]",
          "name": "_payments",
          "type": "tuple[]"
        },
        {
          "internalType": "address",
          "name": "_agentVault",
          "type": "address"
        },
        {
          "internalType": "address",
          "name": "_profitTo",
          "type": "address"
        },
        {
          "components": [
            {
              "internalType": "address",
              "name": "flashLender",
              "type": "address"
            },
            {
              "internalType": "uint256",
              "name": "maxFlashFeeBips",
              "type": "uint256"
            },
            {
              "internalType": "address",
              "name": "dex",
              "type": "address"
            },
            {
              "components": [
                {
                  "internalType": "address[]",
                  "name": "path",
                  "type": "address[]"
                },
                {
                  "internalType": "uint256",
                  "name": "minPriceMul",
                  "type": "uint256"
                },
                {
                  "internalType": "uint256",
                  "name": "minPriceDiv",
                  "type": "uint256"
                }
              ],
              "internalType": "struct DexPairConfig",
              "name": "dexPair1",
              "type": "tuple"
            },
            {
              "components": [
                {
                  "internalType": "address[]",
                  "name": "path",
                  "type": "address[]"
                },
                {
                  "internalType": "uint256",
                  "name": "minPriceMul",
                  "type": "uint256"
                },
                {
                  "internalType": "uint256",
                  "name": "minPriceDiv",
                  "type": "uint256"
                }
              ],
              "internalType": "struct DexPairConfig",
              "name": "dexPair2",
              "type": "tuple"
            }
          ],
          "internalType": "struct ArbitrageConfig",
          "name": "_config",
          "type": "tuple"
        }
      ],
      "name": "freeBalanceNegativeChallenge",
      "outputs": [],
      "stateMutability": "nonpayable",
      "type": "function"
    },
    {
      "inputs": [
        {
          "components": [
            {
              "internalType": "bytes32[]",
              "name": "merkleProof",
              "type": "bytes32[]"
            },
            {
              "components": [
                {
                  "internalType": "bytes32",
                  "name": "attestationType",
                  "type": "bytes32"
                },
                {
                  "internalType": "bytes32",
                  "name": "sourceId",
                  "type": "bytes32"
                },
                {
                  "internalType": "uint64",
                  "name": "votingRound",
                  "type": "uint64"
                },
                {
                  "internalType": "uint64",
                  "name": "lowestUsedTimestamp",
                  "type": "uint64"
                },
                {
                  "components": [
                    {
                      "internalType": "bytes32",
                      "name": "transactionId",
                      "type": "bytes32"
                    },
                    {
                      "internalType": "bytes32",
                      "name": "sourceAddressIndicator",
                      "type": "bytes32"
                    }
                  ],
                  "internalType": "struct BalanceDecreasingTransaction.RequestBody",
                  "name": "requestBody",
                  "type": "tuple"
                },
                {
                  "components": [
                    {
                      "internalType": "uint64",
                      "name": "blockNumber",
                      "type": "uint64"
                    },
                    {
                      "internalType": "uint64",
                      "name": "blockTimestamp",
                      "type": "uint64"
                    },
                    {
                      "internalType": "bytes32",
                      "name": "sourceAddressHash",
                      "type": "bytes32"
                    },
                    {
                      "internalType": "int256",
                      "name": "spentAmount",
                      "type": "int256"
                    },
                    {
                      "internalType": "bytes32",
                      "name": "standardPaymentReference",
                      "type": "bytes32"
                    }
                  ],
                  "internalType": "struct BalanceDecreasingTransaction.ResponseBody",
                  "name": "responseBody",
                  "type": "tuple"
                }
              ],
              "internalType": "struct BalanceDecreasingTransaction.Response",
              "name": "data",
              "type": "tuple"
            }
          ],
          "internalType": "struct BalanceDecreasingTransaction.Proof",
          "name": "_transaction",
          "type": "tuple"
        },
        {
          "internalType": "address",
          "name": "_agentVault",
          "type": "address"
        },
        {
          "internalType": "address",
          "name": "_profitTo",
          "type": "address"
        },
        {
          "components": [
            {
              "internalType": "address",
              "name": "flashLender",
              "type": "address"
            },
            {
              "internalType": "uint256",
              "name": "maxFlashFeeBips",
              "type": "uint256"
            },
            {
              "internalType": "address",
              "name": "dex",
              "type": "address"
            },
            {
              "components": [
                {
                  "internalType": "address[]",
                  "name": "path",
                  "type": "address[]"
                },
                {
                  "internalType": "uint256",
                  "name": "minPriceMul",
                  "type": "uint256"
                },
                {
                  "internalType": "uint256",
                  "name": "minPriceDiv",
                  "type": "uint256"
                }
              ],
              "internalType": "struct DexPairConfig",
              "name": "dexPair1",
              "type": "tuple"
            },
            {
              "components": [
                {
                  "internalType": "address[]",
                  "name": "path",
                  "type": "address[]"
                },
                {
                  "internalType": "uint256",
                  "name": "minPriceMul",
                  "type": "uint256"
                },
                {
                  "internalType": "uint256",
                  "name": "minPriceDiv",
                  "type": "uint256"
                }
              ],
              "internalType": "struct DexPairConfig",
              "name": "dexPair2",
              "type": "tuple"
            }
          ],
          "internalType": "struct ArbitrageConfig",
          "name": "_config",
          "type": "tuple"
        }
      ],
      "name": "illegalPaymentChallenge",
      "outputs": [],
      "stateMutability": "nonpayable",
      "type": "function"
    },
    {
      "inputs": [
        {
          "internalType": "uint256",
          "name": "_maxSlippageBipsDex1",
          "type": "uint256"
        },
        {
          "internalType": "uint256",
          "name": "_maxSlippageBipsDex2",
          "type": "uint256"
        },
        {
          "internalType": "address",
          "name": "_agentVault",
          "type": "address"
        }
      ],
      "name": "maxSlippageToMinPrices",
      "outputs": [
        {
          "internalType": "uint256",
          "name": "",
          "type": "uint256"
        },
        {
          "internalType": "uint256",
          "name": "",
          "type": "uint256"
        },
        {
          "internalType": "uint256",
          "name": "",
          "type": "uint256"
        },
        {
          "internalType": "uint256",
          "name": "",
          "type": "uint256"
        }
      ],
      "stateMutability": "view",
      "type": "function"
    },
    {
      "inputs": [
        {
          "internalType": "address",
          "name": "",
          "type": "address"
        },
        {
          "internalType": "address",
          "name": "_token",
          "type": "address"
        },
        {
          "internalType": "uint256",
          "name": "_amount",
          "type": "uint256"
        },
        {
          "internalType": "uint256",
          "name": "_fee",
          "type": "uint256"
        },
        {
          "internalType": "bytes",
          "name": "_data",
          "type": "bytes"
        }
      ],
      "name": "onFlashLoan",
      "outputs": [
        {
          "internalType": "bytes32",
          "name": "",
          "type": "bytes32"
        }
      ],
      "stateMutability": "nonpayable",
      "type": "function"
    },
    {
      "inputs": [],
      "name": "owner",
      "outputs": [
        {
          "internalType": "address",
          "name": "",
          "type": "address"
        }
      ],
      "stateMutability": "view",
      "type": "function"
    },
    {
      "inputs": [],
      "name": "renounceOwnership",
      "outputs": [],
      "stateMutability": "nonpayable",
      "type": "function"
    },
    {
      "inputs": [
        {
          "internalType": "address",
          "name": "_agentVault",
          "type": "address"
        },
        {
          "internalType": "address",
          "name": "_profitTo",
          "type": "address"
        },
        {
          "components": [
            {
              "internalType": "address",
              "name": "flashLender",
              "type": "address"
            },
            {
              "internalType": "uint256",
              "name": "maxFlashFeeBips",
              "type": "uint256"
            },
            {
              "internalType": "address",
              "name": "dex",
              "type": "address"
            },
            {
              "components": [
                {
                  "internalType": "address[]",
                  "name": "path",
                  "type": "address[]"
                },
                {
                  "internalType": "uint256",
                  "name": "minPriceMul",
                  "type": "uint256"
                },
                {
                  "internalType": "uint256",
                  "name": "minPriceDiv",
                  "type": "uint256"
                }
              ],
              "internalType": "struct DexPairConfig",
              "name": "dexPair1",
              "type": "tuple"
            },
            {
              "components": [
                {
                  "internalType": "address[]",
                  "name": "path",
                  "type": "address[]"
                },
                {
                  "internalType": "uint256",
                  "name": "minPriceMul",
                  "type": "uint256"
                },
                {
                  "internalType": "uint256",
                  "name": "minPriceDiv",
                  "type": "uint256"
                }
              ],
              "internalType": "struct DexPairConfig",
              "name": "dexPair2",
              "type": "tuple"
            }
          ],
          "internalType": "struct ArbitrageConfig",
          "name": "_config",
          "type": "tuple"
        }
      ],
      "name": "runArbitrage",
      "outputs": [],
      "stateMutability": "nonpayable",
      "type": "function"
    },
    {
      "inputs": [
        {
          "internalType": "address",
          "name": "newOwner",
          "type": "address"
        }
      ],
      "name": "transferOwnership",
      "outputs": [],
      "stateMutability": "nonpayable",
      "type": "function"
    },
    {
      "inputs": [],
      "name": "withdrawNat",
      "outputs": [],
      "stateMutability": "nonpayable",
      "type": "function"
    },
    {
      "inputs": [
        {
          "internalType": "contract IERC20",
          "name": "token",
          "type": "address"
        }
      ],
      "name": "withdrawToken",
      "outputs": [],
      "stateMutability": "nonpayable",
      "type": "function"
    }
  ],
  "bytecode": "0x60c06040523480156200001157600080fd5b5060405162005013380380620050138339810160408190526200003491620000c9565b818162000041336200005c565b6001600160a01b039182166080521660a05250620001019050565b600080546001600160a01b038381166001600160a01b0319831681178455604051919092169283917f8be0079c531659141344cd1fd0a4f28419497f9722a3daafe3b4186f6b6457e09190a35050565b80516001600160a01b0381168114620000c457600080fd5b919050565b60008060408385031215620000dd57600080fd5b620000e883620000ac565b9150620000f860208401620000ac565b90509250929050565b60805160a051614ed76200013c6000396000818161010f01528181610859015261172601526000818161017c01526116e70152614ed76000f3fe608060405234801561001057600080fd5b50600436106100df5760003560e01c8063a82f5fec1161008c578063d2fba79811610066578063d2fba798146101ec578063dbe83cdf146101ff578063f2fde38b14610212578063f609bbec1461022557600080fd5b8063a82f5fec1461019e578063ae405860146101b1578063ca2196bf146101e457600080fd5b806389476069116100bd57806389476069146101535780638da5cb5b14610166578063a77144581461017757600080fd5b806323e30c8b146100e4578063692058c21461010a578063715018a614610149575b600080fd5b6100f76100f2366004613c1d565b610238565b6040519081526020015b60405180910390f35b6101317f000000000000000000000000000000000000000000000000000000000000000081565b6040516001600160a01b039091168152602001610101565b610151610607565b005b610151610161366004613cc7565b61061b565b6000546001600160a01b0316610131565b6101317f000000000000000000000000000000000000000000000000000000000000000081565b6101516101ac366004613d0f565b6106c2565b6101c46101bf366004613d9c565b610852565b604080519485526020850193909352918301526060820152608001610101565b6101516108cc565b6101516101fa366004614025565b61090e565b61015161020d366004614087565b610993565b610151610220366004613cc7565b610b26565b610151610233366004614139565b610bb3565b6000600160005474010000000000000000000000000000000000000000900460ff16600281111561026b5761026b6141db565b146102e35760405162461bcd60e51b815260206004820152602d60248201527f4c697175696461746f723a20466c617368206c6f616e207769746820696e766160448201527f6c696420696e69746961746f720000000000000000000000000000000000000060648201526084015b60405180910390fd5b600080547fffffffffffffffffffffff00ffffffffffffffffffffffffffffffffffffffff1674020000000000000000000000000000000000000000179055604051610332908490849061420a565b60405190819003902060015460081b7fffffffffffffffffffffffffffffffffffffffffffffffffffffffffffffff009081169116146103da5760405162461bcd60e51b815260206004820152602c60248201527f4c697175696461746f723a20466c617368206c656e646572207061737365642060448201527f696e76616c69642064617461000000000000000000000000000000000000000060648201526084016102da565b600080806103ea85870187614025565b9250925092506127108882602001516104039190614249565b61040d919061428f565b8711156104825760405162461bcd60e51b815260206004820152602c60248201527f4c697175696461746f723a20466c617368206c656e646572207061737365642060448201527f746f6f206869676820666565000000000000000000000000000000000000000060648201526084016102da565b6060810151518051600090610499576104996142ca565b60200260200101516001600160a01b0316896001600160a01b0316146105275760405162461bcd60e51b815260206004820152602d60248201527f4c697175696461746f723a20466c617368206c656e646572207061737365642060448201527f696e76616c696420746f6b656e0000000000000000000000000000000000000060648201526084016102da565b61053388848484610c6b565b80516001600160a01b038a169063095ea7b3906105508a8c6142f9565b6040517fffffffff0000000000000000000000000000000000000000000000000000000060e085901b1681526001600160a01b03909216600483015260248201526044016020604051808303816000875af11580156105b3573d6000803e3d6000fd5b505050506040513d601f19601f820116820180604052508101906105d7919061431c565b507f439148f0bbc682ca079e46d6e2c2f0c1e3b820f1a291b069d8882abf8cf18dd99a9950505050505050505050565b61060f611064565b61061960006110be565b565b610623611064565b6106bf816106396000546001600160a01b031690565b6040517f70a082310000000000000000000000000000000000000000000000000000000081523060048201526001600160a01b038516906370a0823190602401602060405180830381865afa158015610696573d6000803e3d6000fd5b505050506040513d601f19601f820116820180604052508101906106ba9190614337565b611126565b50565b6106ca611064565b6000836001600160a01b03166394217ad16040518163ffffffff1660e01b8152600401602060405180830381865afa15801561070a573d6000803e3d6000fd5b505050506040513d601f19601f8201168201806040525081019061072e9190614350565b6040517f66a370460000000000000000000000000000000000000000000000000000000081529091506001600160a01b038216906366a370469061077890889088906004016144f3565b600060405180830381600087803b15801561079257600080fd5b505af11580156107a6573d6000803e3d6000fd5b50506040517fd2fba79800000000000000000000000000000000000000000000000000000000815230925063d2fba79891506107ea908790879087906004016145ce565b600060405180830381600087803b15801561080457600080fd5b505af1925050508015610815575060015b61084b573d808015610843576040519150601f19603f3d011682016040523d82523d6000602084013e610848565b606091505b50505b5050505050565b60008080807f000000000000000000000000000000000000000000000000000000000000000081610882876111a6565b905060008061089b848c85606001518660400151611677565b915091506000806108b6868d87608001518860600151611677565b949e939d509b5092995090975050505050505050565b6108d4611064565b600080546040516001600160a01b03909116914780156108fc02929091818181858888f193505050501580156106bf573d6000803e3d6000fd5b3330146109835760405162461bcd60e51b815260206004820152602660248201527f4368616c6c656e6765723a2043616c6c696e6720616e20696e7465726e616c2060448201527f6d6574686f64000000000000000000000000000000000000000000000000000060648201526084016102da565b61098e8383836116ce565b505050565b61099b611064565b6000836001600160a01b03166394217ad16040518163ffffffff1660e01b8152600401602060405180830381865afa1580156109db573d6000803e3d6000fd5b505050506040513d601f19601f820116820180604052508101906109ff9190614350565b6040517feb81ca630000000000000000000000000000000000000000000000000000000081529091506001600160a01b0382169063eb81ca6390610a4b90899089908990600401614681565b600060405180830381600087803b158015610a6557600080fd5b505af1158015610a79573d6000803e3d6000fd5b50506040517fd2fba79800000000000000000000000000000000000000000000000000000000815230925063d2fba7989150610abd908790879087906004016145ce565b600060405180830381600087803b158015610ad757600080fd5b505af1925050508015610ae8575060015b610b1e573d808015610b16576040519150601f19603f3d011682016040523d82523d6000602084013e610b1b565b606091505b50505b505050505050565b610b2e611064565b6001600160a01b038116610baa5760405162461bcd60e51b815260206004820152602660248201527f4f776e61626c653a206e6577206f776e657220697320746865207a65726f206160448201527f646472657373000000000000000000000000000000000000000000000000000060648201526084016102da565b6106bf816110be565b610bbb611064565b6000836001600160a01b03166394217ad16040518163ffffffff1660e01b8152600401602060405180830381865afa158015610bfb573d6000803e3d6000fd5b505050506040513d601f19601f82011682018060405250810190610c1f9190614350565b6040517f7e7bfdc60000000000000000000000000000000000000000000000000000000081529091506001600160a01b03821690637e7bfdc690610a4b908990899089906004016146c0565b6060806000836060015160000151600081518110610c8b57610c8b6142ca565b602002602001015190506000846080015160000151600081518110610cb257610cb26142ca565b602090810291909101015160408087015190517f095ea7b30000000000000000000000000000000000000000000000000000000081526001600160a01b039182166004820152602481018b905291925083169063095ea7b3906044016020604051808303816000875af1158015610d2d573d6000803e3d6000fd5b505050506040513d601f19601f82011682018060405250810190610d51919061431c565b50610d8f88610d718a886060015160200151896060015160400151611bb1565b60608801515160408901516001600160a01b03169291903042611bd2565b60408781015190517f095ea7b30000000000000000000000000000000000000000000000000000000081526001600160a01b039182166004820152600060248201529196509194509083169063095ea7b3906044016020604051808303816000875af1158015610e03573d6000803e3d6000fd5b505050506040513d601f19601f82011682018060405250810190610e27919061431c565b5060008460018651610e39919061477f565b81518110610e4957610e496142ca565b60209081029190910101516040517fbcbaf4870000000000000000000000000000000000000000000000000000000081526001600160a01b038981166004830152602482018390529192506000918a169063bcbaf487906044016060604051808303816000875af1158015610ec2573d6000803e3d6000fd5b505050506040513d601f19601f82011682018060405250810190610ee69190614792565b925050811590506110585760408781015190517f095ea7b30000000000000000000000000000000000000000000000000000000081526001600160a01b039182166004820152602481018390529084169063095ea7b3906044016020604051808303816000875af1158015610f5f573d6000803e3d6000fd5b505050506040513d601f19601f82011682018060405250810190610f83919061431c565b50610fc181610fa3838a60800151602001518b6080015160400151611bb1565b60808a01515160408b01516001600160a01b03169291903042611bd2565b60408981015190517f095ea7b30000000000000000000000000000000000000000000000000000000081526001600160a01b039182166004820152600060248201529198508516915063095ea7b3906044016020604051808303816000875af1158015611032573d6000803e3d6000fd5b505050506040513d601f19601f82011682018060405250810190611056919061431c565b505b50505050505050505050565b6000546001600160a01b031633146106195760405162461bcd60e51b815260206004820181905260248201527f4f776e61626c653a2063616c6c6572206973206e6f7420746865206f776e657260448201526064016102da565b600080546001600160a01b038381167fffffffffffffffffffffffff0000000000000000000000000000000000000000831681178455604051919092169283917f8be0079c531659141344cd1fd0a4f28419497f9722a3daafe3b4186f6b6457e09190a35050565b604080516001600160a01b038416602482015260448082018490528251808303909101815260649091019091526020810180517bffffffffffffffffffffffffffffffffffffffffffffffffffffffff167fa9059cbb0000000000000000000000000000000000000000000000000000000017905261098e908490611e2d565b61125360405180610200016040528060006001600160a01b0316815260200160006001600160a01b0316815260200160006001600160a01b0316815260200160006001600160a01b0316815260200160006001600160a01b0316815260200160008152602001600081526020016000815260200160008152602001600081526020016000815260200160008152602001606081526020016060815260200160608152602001606081525090565b6000826001600160a01b03166394217ad16040518163ffffffff1660e01b8152600401602060405180830381865afa158015611293573d6000803e3d6000fd5b505050506040513d601f19601f820116820180604052508101906112b79190614350565b6001600160a01b03808216808552908516602080860191909152604080517f7c7db1a500000000000000000000000000000000000000000000000000000000815290519394509192637c7db1a59260048082019392918290030181865afa158015611326573d6000803e3d6000fd5b505050506040513d601f19601f8201168201806040525081019061134a9190614350565b82604001906001600160a01b031690816001600160a01b031681525050806001600160a01b031663b5a488a66040518163ffffffff1660e01b8152600401602060405180830381865afa1580156113a5573d6000803e3d6000fd5b505050506040513d601f19601f820116820180604052508101906113c99190614350565b82608001906001600160a01b031690816001600160a01b031681525050806001600160a01b031663531090f36040518163ffffffff1660e01b8152600401602060405180830381865afa158015611424573d6000803e3d6000fd5b505050506040513d601f19601f820116820180604052508101906114489190614337565b82610100018181525050806001600160a01b031663410418f16040518163ffffffff1660e01b8152600401602060405180830381865afa158015611490573d6000803e3d6000fd5b505050506040513d601f19601f820116820180604052508101906114b49190614337565b6101208301526040517f5f0169060000000000000000000000000000000000000000000000000000000081526001600160a01b038481166004830152821690635f01690690602401602060405180830381865afa158015611519573d6000803e3d6000fd5b505050506040513d601f19601f8201168201806040525081019061153d9190614350565b6001600160a01b0390811660608401526040517f529cc2b900000000000000000000000000000000000000000000000000000000815284821660048201529082169063529cc2b990602401606060405180830381865afa1580156115a5573d6000803e3d6000fd5b505050506040513d601f19601f820116820180604052508101906115c99190614792565b60a085015260e084015260c0830152604080517f49b5fdb400000000000000000000000000000000000000000000000000000000815290516116659184916001600160a01b038516916349b5fdb49160048083019260209291908290030181865afa15801561163c573d6000803e3d6000fd5b505050506040513d601f19601f820116820180604052508101906116609190614350565b611f15565b61016084015261014083015250919050565b60008080806116906001600160a01b03891687876121bf565b909250905060006116a38861271061477f565b6116ad9083614249565b905060006116bd84612710614249565b919a91995090975050505050505050565b80516001600160a01b031661170a576001600160a01b037f00000000000000000000000000000000000000000000000000000000000000001681525b60408101516001600160a01b031661174c576001600160a01b037f00000000000000000000000000000000000000000000000000000000000000001660408201525b6000836001600160a01b03166394217ad16040518163ffffffff1660e01b8152600401602060405180830381865afa15801561178c573d6000803e3d6000fd5b505050506040513d601f19601f820116820180604052508101906117b09190614350565b6040517fe1c501000000000000000000000000000000000000000000000000000000000081526001600160a01b0386811660048301529192509082169063e1c501009060240160408051808303816000875af1925050508015611830575060408051601f3d908101601f1916820190925261182d918101906147dc565b60015b156118385750505b6000611843856111a6565b9050611860836060015160000151826060015183604001516123e8565b836060015160000181905250611887836080015160000151826080015183606001516123e8565b60808401515260408301516060840151516118a291906124ca565b61018082015260408301516080840151516118bd91906124ca565b6101a0820152606083810151516101c08301526080840151516101e08301528101516040517f70a082310000000000000000000000000000000000000000000000000000000081523060048201526000916001600160a01b0316906370a0823190602401602060405180830381865afa15801561193e573d6000803e3d6000fd5b505050506040513d601f19601f820116820180604052508101906119629190614337565b60808301516040517f70a082310000000000000000000000000000000000000000000000000000000081523060048201529192506000916001600160a01b03909116906370a0823190602401602060405180830381865afa1580156119cb573d6000803e3d6000fd5b505050506040513d601f19601f820116820180604052508101906119ef9190614337565b90506119fb85846125fe565b60608301516040517f70a082310000000000000000000000000000000000000000000000000000000081523060048201526000916001600160a01b0316906370a0823190602401602060405180830381865afa158015611a5f573d6000803e3d6000fd5b505050506040513d601f19601f82011682018060405250810190611a839190614337565b60808501516040517f70a082310000000000000000000000000000000000000000000000000000000081523060048201529192506000916001600160a01b03909116906370a0823190602401602060405180830381865afa158015611aec573d6000803e3d6000fd5b505050506040513d601f19601f82011682018060405250810190611b109190614337565b9050838210158015611b225750828110155b611b945760405162461bcd60e51b815260206004820152603b60248201527f4c697175696461746f723a204e656761746976652070726f66697420776f756c60448201527f6420646563726561736520636f6e74726163742062616c616e6365000000000060648201526084016102da565b6000611ba0858461477f565b905061105886606001518a83611126565b600081611bbe8486614249565b611bc8919061428f565b90505b9392505050565b606080876001600160a01b03166338ed173988888888886040518663ffffffff1660e01b8152600401611c0995949392919061484d565b6000604051808303816000875af1925050508015611c4957506040513d6000823e601f3d908101601f19168201604052611c4691908101906148f3565b60015b611e1c573d808015611c77576040519150601f19603f3d011682016040523d82523d6000602084013e611c7c565b606091505b50805115611c8982612afc565b90611ca75760405162461bcd60e51b81526004016102da91906149a7565b506040517f38ed17390000000000000000000000000000000000000000000000000000000081526001600160a01b038a16906338ed173990611cf5908b908b908b908b908b9060040161484d565b6000604051808303816000875af1925050508015611d3557506040513d6000823e601f3d908101601f19168201604052611d3291908101906149ba565b60015b611e02573d808015611d63576040519150601f19603f3d011682016040523d82523d6000602084013e611d68565b606091505b50805115611d7582612afc565b90611d935760405162461bcd60e51b81526004016102da91906149a7565b5060405162461bcd60e51b815260206004820152602a60248201527f556e697377617056323a20737761704578616374546f6b656e73466f72546f6b60448201527f656e73206661696c65640000000000000000000000000000000000000000000060648201526084016102da565b60408051600081526020810190915293509150611e229050565b90925090505b965096945050505050565b6000611e82826040518060400160405280602081526020017f5361666545524332303a206c6f772d6c6576656c2063616c6c206661696c6564815250856001600160a01b0316612be49092919063ffffffff16565b9050805160001480611ea3575080806020019051810190611ea3919061431c565b61098e5760405162461bcd60e51b815260206004820152602a60248201527f5361666545524332303a204552433230206f7065726174696f6e20646964206e60448201527f6f7420737563636565640000000000000000000000000000000000000000000060648201526084016102da565b6000806000611f31856000015186606001518760800151612bf3565b80516040517f524f388900000000000000000000000000000000000000000000000000000000815291925060009182916001600160a01b0388169163524f388991611f7e916004016149a7565b606060405180830381865afa158015611f9b573d6000803e3d6000fd5b505050506040513d601f19601f82011682018060405250810190611fbf9190614792565b9250509150600080876001600160a01b031663524f388986602001516040518263ffffffff1660e01b8152600401611ff791906149a7565b606060405180830381865afa158015612014573d6000803e3d6000fd5b505050506040513d601f19601f820116820180604052508101906120389190614792565b9250509150600080896001600160a01b031663524f388988604001516040518263ffffffff1660e01b815260040161207091906149a7565b606060405180830381865afa15801561208d573d6000803e3d6000fd5b505050506040513d601f19601f820116820180604052508101906120b19190614792565b92505091506121318b606001516001600160a01b031663313ce5676040518163ffffffff1660e01b8152600401602060405180830381865afa1580156120fb573d6000803e3d6000fd5b505050506040513d601f19601f8201168201806040525081019061211f91906149ef565b60ff1685858e61012001518a8a612d42565b6121ac8c608001516001600160a01b031663313ce5676040518163ffffffff1660e01b8152600401602060405180830381865afa158015612176573d6000803e3d6000fd5b505050506040513d601f19601f8201168201806040525081019061219a91906149ef565b60ff1684848f61012001518b8b612d42565b98509850505050505050505b9250929050565b6040517fd52bb6f40000000000000000000000000000000000000000000000000000000081526001600160a01b0383811660048301528281166024830152600091829186169063d52bb6f4906044016040805180830381865afa925050508015612246575060408051601f3d908101601f1916820190925261224391810190614a0a565b60015b6123da573d808015612274576040519150601f19603f3d011682016040523d82523d6000602084013e612279565b606091505b5080511561228682612afc565b906122a45760405162461bcd60e51b81526004016102da91906149a7565b506040517f7f6f21780000000000000000000000000000000000000000000000000000000081526001600160a01b0386811660048301528581166024830152871690637f6f2178906044016040805180830381865afa925050508015612327575060408051601f3d908101601f1916820190925261232491810190614a0a565b60015b6123ce573d808015612355576040519150601f19603f3d011682016040523d82523d6000602084013e61235a565b606091505b5080511561236782612afc565b906123855760405162461bcd60e51b81526004016102da91906149a7565b5060405162461bcd60e51b815260206004820152601d60248201527f556e697377617056323a206765745265736572766573206661696c656400000060448201526064016102da565b90935091506123e09050565b90925090505b935093915050565b60608351600003612404576123fd8383612db2565b9050611bcb565b826001600160a01b031684600081518110612421576124216142ca565b60200260200101516001600160a01b03161480156124765750816001600160a01b03168460018651612453919061477f565b81518110612463576124636142ca565b60200260200101516001600160a01b0316145b6124c25760405162461bcd60e51b815260206004820152601e60248201527f4c697175696461746f723a20496e76616c696420746f6b656e2070617468000060448201526064016102da565b509192915050565b6060600182516124da919061477f565b67ffffffffffffffff8111156124f2576124f2613dd5565b60405190808252806020026020018201604052801561253757816020015b60408051808201909152600080825260208201528152602001906001900390816125105790505b50905060005b6001835161254b919061477f565b8110156125f7576125ae838281518110612567576125676142ca565b60200260200101518483600161257d91906142f9565b8151811061258d5761258d6142ca565b6020026020010151866001600160a01b03166121bf9092919063ffffffff16565b8383815181106125c0576125c06142ca565b60200260200101516000018484815181106125dd576125dd6142ca565b60209081029190910181015101919091525260010161253d565b5092915050565b6000805474010000000000000000000000000000000000000000900460ff16600281111561262e5761262e6141db565b1461267b5760405162461bcd60e51b815260206004820152601e60248201527f4c697175696461746f723a205265656e7472616e637920626c6f636b6564000060448201526064016102da565b600080547fffffffffffffffffffffff00ffffffffffffffffffffffffffffffffffffffff167401000000000000000000000000000000000000000017905560a08101516127315760405162461bcd60e51b815260206004820152602360248201527f4c697175696461746f723a204e6f20662d617373657420746f206c697175696460448201527f617465000000000000000000000000000000000000000000000000000000000060648201526084016102da565b815160608201516040517f613255ab0000000000000000000000000000000000000000000000000000000081526001600160a01b039182166004820152600092919091169063613255ab90602401602060405180830381865afa15801561279c573d6000803e3d6000fd5b505050506040513d601f19601f820116820180604052508101906127c09190614337565b9050600081116128385760405162461bcd60e51b815260206004820152602260248201527f4c697175696461746f723a20466c617368206c6f616e20756e617661696c616260448201527f6c6500000000000000000000000000000000000000000000000000000000000060648201526084016102da565b600061284383612e40565b9050600081116128955760405162461bcd60e51b815260206004820152601f60248201527f4c697175696461746f723a204e6f2070726f66697420617661696c61626c650060448201526064016102da565b600083600001518460200151866040516020016128b493929190614a63565b60405160208183030381529060405290508080519060200120600160006101000a8154817effffffffffffffffffffffffffffffffffffffffffffffffffffffffffffff021916908360081c021790555084600001516001600160a01b0316635cffe9de3086606001516129288787612eca565b856040518563ffffffff1660e01b81526004016129489493929190614af6565b6020604051808303816000875af1158015612967573d6000803e3d6000fd5b505050506040513d601f19601f8201168201806040525081019061298b919061431c565b50606084015185516040517f095ea7b30000000000000000000000000000000000000000000000000000000081526001600160a01b0391821660048201526000602482015291169063095ea7b3906044016020604051808303816000875af11580156129fb573d6000803e3d6000fd5b505050506040513d601f19601f82011682018060405250810190612a1f919061431c565b5060029250612a2c915050565b60005474010000000000000000000000000000000000000000900460ff166002811115612a5b57612a5b6141db565b14612ad0576040805162461bcd60e51b81526020600482015260248101919091527f4c697175696461746f723a205265656e7472616e637920626c6f636b6564206f60448201527f7220666c617368206c6f616e207265636569766572206e6f742063616c6c656460648201526084016102da565b5050600080547fffffffffffffffffffffff00ffffffffffffffffffffffffffffffffffffffff169055565b6060600060048351612b0e919061477f565b67ffffffffffffffff811115612b2657612b26613dd5565b6040519080825280601f01601f191660200182016040528015612b50576020820181803683370190505b50905060005b8151811015612bcf5783612b6b8260046142f9565b81518110612b7b57612b7b6142ca565b602001015160f81c60f81b828281518110612b9857612b986142ca565b60200101907effffffffffffffffffffffffffffffffffffffffffffffffffffffffffffff1916908160001a905350600101612b56565b5080806020019051810190611bcb9190614b8c565b6060611bc88484600085612ee0565b612c1760405180606001604052806060815260200160608152602001606081525090565b6040517f4610bc230000000000000000000000000000000000000000000000000000000081526000906001600160a01b03861690634610bc2390612c62906002908890600401614bc1565b600060405180830381865afa158015612c7f573d6000803e3d6000fd5b505050506040513d6000823e601f3d908101601f19168201604052612ca79190810190614c23565b90506000856001600160a01b0316634610bc236001866040518363ffffffff1660e01b8152600401612cda929190614bc1565b600060405180830381865afa158015612cf7573d6000803e3d6000fd5b505050506040513d6000823e601f3d908101601f19168201604052612d1f9190810190614c23565b60a0830151845260c0928301516020850152909101516040830152509392505050565b6000806009612d51878a6142f9565b612d5b91906142f9565b90506000612d6984876142f9565b905080821015612d7b57612d7b614d1e565b87612d86828461477f565b612d9190600a614e6d565b612d9b9087614249565b612da5919061428f565b9998505050505050505050565b604080516002808252606080830184529260009291906020830190803683370190505090508381600081518110612deb57612deb6142ca565b60200260200101906001600160a01b031690816001600160a01b0316815250508281600181518110612e1f57612e1f6142ca565b6001600160a01b039092166020928302919091019091015290505b92915050565b6000806001836101800151511180612e5e57506001836101a0015151115b9050600081612e7557612e7084612fd4565b612e7e565b612e7e84613208565b905080600003612e92575060009392505050565b6000612eb0612ea683876101000151613357565b8660a00151612eca565b9050612ec181866101800151613363565b95945050505050565b6000818310612ed95781611bcb565b5090919050565b606082471015612f585760405162461bcd60e51b815260206004820152602660248201527f416464726573733a20696e73756666696369656e742062616c616e636520666f60448201527f722063616c6c000000000000000000000000000000000000000000000000000060648201526084016102da565b600080866001600160a01b03168587604051612f749190614e79565b60006040518083038185875af1925050503d8060008114612fb1576040519150601f19603f3d011682016040523d82523d6000602084013e612fb6565b606091505b5091509150612fc7878383876133dd565b925050505b949350505050565b600080826101800151600081518110612fef57612fef6142ca565b60200260200101516000015190506000836101800151600081518110613017576130176142ca565b60200260200101516020015190506000846101a0015160008151811061303f5761303f6142ca565b60200260200101516000015190506000856101a00151600081518110613067576130676142ca565b6020026020010151602001519050816103e860036103e8613088919061477f565b6130929087614249565b61309c919061428f565b6130a69190614249565b94506130b185613456565b945060006130c4848861010001516135d9565b90506000836127108960c001516130e0858c61014001516135fc565b6130ea9190614249565b6130f4919061428f565b6130fe9190614249565b90506000836103e861311160038261477f565b6127108c60e00151613128888f61016001516135fc565b6131329190614249565b61313c919061428f565b6131469190614249565b613150919061428f565b61315a9190614249565b905061316e61316982846142f9565b613456565b6131789089614249565b97505050506000828561318b9190614249565b90508581106131a1575060009695505050505050565b6131ab818761477f565b95506131bb90506103e886614249565b94506131ca60036103e861477f565b6131d4908661428f565b94506131e0828661428f565b94506131ed858585613614565b94506131fe858761010001516135d9565b9695505050505050565b60008061321e8360a001518461010001516135d9565b9050600081815b60088110156132ea576000613f34612710613240868661477f565b61324a9190614249565b613254919061428f565b61325e908461477f565b90506000613f34612710613272878761477f565b61327c9190614249565b613286919061428f565b61329090866142f9565b9050606461329e828661477f565b116132aa5750506132ea565b60006132b6898461366e565b905060006132c48a8461366e565b9050808211156132d6578295506132da565b8396505b5050600190920191506132259050565b50600060026132f983856142f9565b613303919061428f565b90506000613311878661366e565b9050600061331f888461366e565b90508015801561332d575081155b1561334057506000979650505050505050565b81811161334b578592505b50909695505050505050565b6000611bcb8284614249565b805182905b80156125f7576133c9828461337e60018561477f565b8151811061338e5761338e6142ca565b602002602001015160000151856001856133a8919061477f565b815181106133b8576133b86142ca565b602002602001015160200151613ab8565b9150806133d581614e95565b915050613368565b6060831561344c578251600003613445576001600160a01b0385163b6134455760405162461bcd60e51b815260206004820152601d60248201527f416464726573733a2063616c6c20746f206e6f6e2d636f6e747261637400000060448201526064016102da565b5081612fcc565b612fcc8383613b0e565b60008160000361346857506000919050565b816001700100000000000000000000000000000000821061348e5760809190911c9060401b5b6801000000000000000082106134a95760409190911c9060201b5b64010000000082106134c05760209190911c9060101b5b6201000082106134d55760109190911c9060081b5b61010082106134e95760089190911c9060041b5b601082106134fc5760049190911c9060021b5b600882106135085760011b5b600181858161351957613519614260565b048201901c9050600181858161353157613531614260565b048201901c9050600181858161354957613549614260565b048201901c9050600181858161356157613561614260565b048201901c9050600181858161357957613579614260565b048201901c9050600181858161359157613591614260565b048201901c905060018185816135a9576135a9614260565b048201901c905060008185816135c1576135c1614260565b0490508082106135d15780612ec1565b509392505050565b60008160016135e882866142f9565b6135f2919061477f565b611bcb919061428f565b600061360a6009600a614e6d565b6135f28385614249565b60008061362460036103e861477f565b61362e9086614249565b9050600061363c8483614249565b905060008261364d6103e888614249565b61365791906142f9565b9050613663818361428f565b979650505050505050565b600080836101a001515167ffffffffffffffff81111561369057613690613dd5565b6040519080825280602002602001820160405280156136d557816020015b60408051808201909152600080825260208201528152602001906001900390816136ae5790505b50905060005b846101a0015151811015613767576040518060400160405280866101a00151838151811061370b5761370b6142ca565b6020026020010151600001518152602001866101a001518381518110613733576137336142ca565b602002602001015160200151815250828281518110613754576137546142ca565b60209081029190910101526001016136db565b50600061377984866101000151613357565b610180860151519091505b8015613a725760006137d2838861018001516001856137a3919061477f565b815181106137b3576137b36142ca565b6020026020010151600001518961018001516001866133a8919061477f565b905060015b876101e0015151811015613a5d57876101c0015183815181106137fc576137fc6142ca565b60200260200101516001600160a01b0316886101e00151600183613820919061477f565b81518110613830576138306142ca565b60200260200101516001600160a01b03161480156138a557506101c088015161385a60018561477f565b8151811061386a5761386a6142ca565b60200260200101516001600160a01b0316886101e001518281518110613892576138926142ca565b60200260200101516001600160a01b0316145b1561391f5783856138b760018461477f565b815181106138c7576138c76142ca565b60200260200101516000018181516138df919061477f565b90525081856138ef60018461477f565b815181106138ff576138ff6142ca565b602002602001015160200181815161391791906142f9565b905250613a55565b6101c088015161393060018561477f565b81518110613940576139406142ca565b60200260200101516001600160a01b0316886101e00151600183613964919061477f565b81518110613974576139746142ca565b60200260200101516001600160a01b03161480156139df5750876101c0015183815181106139a4576139a46142ca565b60200260200101516001600160a01b0316886101e0015182815181106139cc576139cc6142ca565b60200260200101516001600160a01b0316145b15613a555781856139f160018461477f565b81518110613a0157613a016142ca565b6020026020010151600001818151613a19919061477f565b9052508385613a2960018461477f565b81518110613a3957613a396142ca565b6020026020010151602001818151613a5191906142f9565b9052505b6001016137d7565b50915080613a6a81614e95565b915050613784565b50600080613a808787613b38565b915091506000613a908286613b9c565b90506000613a9e82856142f9565b9050848111613aae576000612da5565b612da5858261477f565b6000806103e8613ac88686614249565b613ad29190614249565b90506000613ae360036103e861477f565b613aed878661477f565b613af79190614249565b9050613b03818361428f565b6131fe9060016142f9565b815115613b1e5781518083602001fd5b8060405162461bcd60e51b81526004016102da91906149a7565b600080613b666127108560c0015185613b519190614249565b613b5b919061428f565b8561014001516135fc565b9150613b936127108560e0015185613b7e9190614249565b613b88919061428f565b8561016001516135fc565b90509250929050565b8160005b82518110156125f757613bee82848381518110613bbf57613bbf6142ca565b602002602001015160000151858481518110613bdd57613bdd6142ca565b602002602001015160200151613614565b9150600101613ba0565b6001600160a01b03811681146106bf57600080fd5b8035613c1881613bf8565b919050565b60008060008060008060a08789031215613c3657600080fd5b8635613c4181613bf8565b95506020870135613c5181613bf8565b94506040870135935060608701359250608087013567ffffffffffffffff80821115613c7c57600080fd5b818901915089601f830112613c9057600080fd5b813581811115613c9f57600080fd5b8a6020828501011115613cb157600080fd5b6020830194508093505050509295509295509295565b600060208284031215613cd957600080fd5b8135611bcb81613bf8565b60006101808284031215613cf757600080fd5b50919050565b600060a08284031215613cf757600080fd5b60008060008060808587031215613d2557600080fd5b843567ffffffffffffffff80821115613d3d57600080fd5b613d4988838901613ce4565b955060208701359150613d5b82613bf8565b909350604086013590613d6d82613bf8565b90925060608601359080821115613d8357600080fd5b50613d9087828801613cfd565b91505092959194509250565b600080600060608486031215613db157600080fd5b83359250602084013591506040840135613dca81613bf8565b809150509250925092565b7f4e487b7100000000000000000000000000000000000000000000000000000000600052604160045260246000fd5b6040516060810167ffffffffffffffff81118282101715613e2757613e27613dd5565b60405290565b604051610140810167ffffffffffffffff81118282101715613e2757613e27613dd5565b604051601f8201601f1916810167ffffffffffffffff81118282101715613e7a57613e7a613dd5565b604052919050565b600067ffffffffffffffff821115613e9c57613e9c613dd5565b5060051b60200190565b600060608284031215613eb857600080fd5b613ec0613e04565b9050813567ffffffffffffffff811115613ed957600080fd5b8201601f81018413613eea57600080fd5b80356020613eff613efa83613e82565b613e51565b82815260059290921b83018101918181019087841115613f1e57600080fd5b938201935b83851015613f45578435613f3681613bf8565b82529382019390820190613f23565b808652505080850135818501525050506040820135604082015292915050565b600060a08284031215613f7757600080fd5b60405160a0810167ffffffffffffffff8282108183111715613f9b57613f9b613dd5565b8160405282935084359150613faf82613bf8565b8183526020850135602084015260408501359150613fcc82613bf8565b8160408401526060850135915080821115613fe657600080fd5b613ff286838701613ea6565b6060840152608085013591508082111561400b57600080fd5b5061401885828601613ea6565b6080830152505092915050565b60008060006060848603121561403a57600080fd5b833561404581613bf8565b9250602084013561405581613bf8565b9150604084013567ffffffffffffffff81111561407157600080fd5b61407d86828701613f65565b9150509250925092565b600080600080600060a0868803121561409f57600080fd5b853567ffffffffffffffff808211156140b757600080fd5b6140c389838a01613ce4565b965060208801359150808211156140d957600080fd5b6140e589838a01613ce4565b9550604088013591506140f782613bf8565b90935060608701359061410982613bf8565b9092506080870135908082111561411f57600080fd5b5061412c88828901613cfd565b9150509295509295909350565b60008060008060006080868803121561415157600080fd5b853567ffffffffffffffff8082111561416957600080fd5b818801915088601f83011261417d57600080fd5b81358181111561418c57600080fd5b8960208260051b85010111156141a157600080fd5b602083019750809650506141b760208901613c0d565b94506141c560408901613c0d565b9350606088013591508082111561411f57600080fd5b7f4e487b7100000000000000000000000000000000000000000000000000000000600052602160045260246000fd5b8183823760009101908152919050565b7f4e487b7100000000000000000000000000000000000000000000000000000000600052601160045260246000fd5b8082028115828204841417612e3a57612e3a61421a565b7f4e487b7100000000000000000000000000000000000000000000000000000000600052601260045260246000fd5b6000826142c5577f4e487b7100000000000000000000000000000000000000000000000000000000600052601260045260246000fd5b500490565b7f4e487b7100000000000000000000000000000000000000000000000000000000600052603260045260246000fd5b80820180821115612e3a57612e3a61421a565b80518015158114613c1857600080fd5b60006020828403121561432e57600080fd5b611bcb8261430c565b60006020828403121561434957600080fd5b5051919050565b60006020828403121561436257600080fd5b8151611bcb81613bf8565b60008083357fffffffffffffffffffffffffffffffffffffffffffffffffffffffffffffffe18436030181126143a257600080fd5b830160208101925035905067ffffffffffffffff8111156143c257600080fd5b8060051b36038213156121b857600080fd5b803567ffffffffffffffff81168114613c1857600080fd5b60006101806143fb838461436d565b82865280838701526101a092507f07ffffffffffffffffffffffffffffffffffffffffffffffffffffffffffffff81111561443557600080fd5b60051b808287850137602085013560208701526040850135604087015261445e606086016143d4565b915067ffffffffffffffff80831660608801528061447e608088016143d4565b16608088015260a086013560a088015260c086013560c0880152806144a560e088016143d4565b1660e08801526101009250806144bc8488016143d4565b1692870192909252610120858101359087015261014080860135908701526101609485013594860194909452509190920101919050565b60408152600061450660408301856143ec565b90506001600160a01b03831660208301529392505050565b600082357fffffffffffffffffffffffffffffffffffffffffffffffffffffffffffffffa183360301811261455257600080fd5b90910192915050565b60006060830161456b838461436d565b606086529182905290600090608086015b818310156145ad57833561458f81613bf8565b6001600160a01b03168152602093840193600193909301920161457c565b60208601356020880152604086013560408801528094505050505092915050565b60006001600160a01b03808616835280851660208401526060604084015283356145f781613bf8565b8116606084015260208401356080840152604084013561461681613bf8565b1660a0830152614629606084018461451e565b60a060c084015261463e61010084018261455b565b905061464d608085018561451e565b7fffffffffffffffffffffffffffffffffffffffffffffffffffffffffffffffa08483030160e0850152612fc7828261455b565b60608152600061469460608301866143ec565b82810360208401526146a681866143ec565b9150506001600160a01b0383166040830152949350505050565b6040808252810183905260006060600585901b830181019083018683805b88811015614760577fffffffffffffffffffffffffffffffffffffffffffffffffffffffffffffffa087860301845282357ffffffffffffffffffffffffffffffffffffffffffffffffffffffffffffffe818b360301811261473e578283fd5b61474a868c83016143ec565b95505060209384019392909201916001016146de565b50505050809150506001600160a01b0383166020830152949350505050565b81810381811115612e3a57612e3a61421a565b6000806000606084860312156147a757600080fd5b8351925060208401519150604084015190509250925092565b8051613c1881613bf8565b805160ff81168114613c1857600080fd5b600080604083850312156147ef57600080fd5b6147f8836147cb565b9150602083015190509250929050565b60008151808452602080850194506020840160005b838110156148425781516001600160a01b03168752958201959082019060010161481d565b509495945050505050565b85815284602082015260a06040820152600061486c60a0830186614808565b6001600160a01b0394909416606083015250608001529392505050565b600082601f83011261489a57600080fd5b815160206148aa613efa83613e82565b8083825260208201915060208460051b8701019350868411156148cc57600080fd5b602086015b848110156148e857805183529183019183016148d1565b509695505050505050565b6000806040838503121561490657600080fd5b825167ffffffffffffffff8082111561491e57600080fd5b61492a86838701614889565b9350602085015191508082111561494057600080fd5b5061494d85828601614889565b9150509250929050565b60005b8381101561497257818101518382015260200161495a565b50506000910152565b60008151808452614993816020860160208601614957565b601f01601f19169290920160200192915050565b602081526000611bcb602083018461497b565b6000602082840312156149cc57600080fd5b815167ffffffffffffffff8111156149e357600080fd5b612fcc84828501614889565b600060208284031215614a0157600080fd5b611bcb826147cb565b60008060408385031215614a1d57600080fd5b505080516020909101519092909150565b6000815160608452614a436060850182614808565b905060208301516020850152604083015160408501528091505092915050565b60006001600160a01b038086168352808516602084015260606040840152808451166060840152602084015160808401528060408501511660a084015250606083015160a060c0840152614abb610100840182614a2e565b905060808401517fffffffffffffffffffffffffffffffffffffffffffffffffffffffffffffffa08483030160e0850152612fc78282614a2e565b60006001600160a01b038087168352808616602084015250836040830152608060608301526131fe608083018461497b565b600082601f830112614b3957600080fd5b815167ffffffffffffffff811115614b5357614b53613dd5565b614b666020601f19601f84011601613e51565b818152846020838601011115614b7b57600080fd5b612fcc826020830160208701614957565b600060208284031215614b9e57600080fd5b815167ffffffffffffffff811115614bb557600080fd5b612fcc84828501614b28565b6040810160038410614bfc577f4e487b7100000000000000000000000000000000000000000000000000000000600052602160045260246000fd5b9281526001600160a01b039190911660209091015290565b805160038110613c1857600080fd5b600060208284031215614c3557600080fd5b815167ffffffffffffffff80821115614c4d57600080fd5b908301906101408286031215614c6257600080fd5b614c6a613e2d565b614c7383614c14565b8152614c81602084016147c0565b60208201526040830151604082015260608301516060820152614ca66080840161430c565b608082015260a083015182811115614cbd57600080fd5b614cc987828601614b28565b60a08301525060c083015182811115614ce157600080fd5b614ced87828601614b28565b60c08301525060e0838101519082015261010080840151908201526101209283015192810192909252509392505050565b7f4e487b7100000000000000000000000000000000000000000000000000000000600052600160045260246000fd5b600181815b80851115614da657817fffffffffffffffffffffffffffffffffffffffffffffffffffffffffffffffff04821115614d8c57614d8c61421a565b80851615614d9957918102915b93841c9390800290614d52565b509250929050565b600082614dbd57506001612e3a565b81614dca57506000612e3a565b8160018114614de05760028114614dea57614e06565b6001915050612e3a565b60ff841115614dfb57614dfb61421a565b50506001821b612e3a565b5060208310610133831016604e8410600b8410161715614e29575081810a612e3a565b614e338383614d4d565b807fffffffffffffffffffffffffffffffffffffffffffffffffffffffffffffffff04821115614e6557614e6561421a565b029392505050565b6000611bcb8383614dae565b60008251614e8b818460208701614957565b9190910192915050565b600081614ea457614ea461421a565b507fffffffffffffffffffffffffffffffffffffffffffffffffffffffffffffffff019056fea164736f6c6343000817000a",
  "linkReferences": {},
  "deployedLinkReferences": {}
}