{
  "_format": "hh-sol-artifact-1",
  "contractName": "Challenger",
  "sourceName": "liquidator/contracts/Challenger.sol",
  "abi": [
    {
      "inputs": [
        {
          "internalType": "address",
          "name": "_flashLender",
          "type": "address"
        },
        {
          "internalType": "address",
          "name": "_dex",
          "type": "address"
        }
      ],
      "stateMutability": "nonpayable",
      "type": "constructor"
    },
    {
      "anonymous": false,
      "inputs": [
        {
          "indexed": true,
          "internalType": "address",
          "name": "previousOwner",
          "type": "address"
        },
        {
          "indexed": true,
          "internalType": "address",
          "name": "newOwner",
          "type": "address"
        }
      ],
      "name": "OwnershipTransferred",
      "type": "event"
    },
    {
      "inputs": [],
      "name": "dex",
      "outputs": [
        {
          "internalType": "address",
          "name": "",
          "type": "address"
        }
      ],
      "stateMutability": "view",
      "type": "function"
    },
    {
      "inputs": [
        {
          "components": [
            {
              "internalType": "bytes32[]",
              "name": "merkleProof",
              "type": "bytes32[]"
            },
            {
              "components": [
                {
                  "internalType": "bytes32",
                  "name": "attestationType",
                  "type": "bytes32"
                },
                {
                  "internalType": "bytes32",
                  "name": "sourceId",
                  "type": "bytes32"
                },
                {
                  "internalType": "uint64",
                  "name": "votingRound",
                  "type": "uint64"
                },
                {
                  "internalType": "uint64",
                  "name": "lowestUsedTimestamp",
                  "type": "uint64"
                },
                {
                  "components": [
                    {
                      "internalType": "bytes32",
                      "name": "transactionId",
                      "type": "bytes32"
                    },
                    {
                      "internalType": "bytes32",
                      "name": "sourceAddressIndicator",
                      "type": "bytes32"
                    }
                  ],
                  "internalType": "struct BalanceDecreasingTransaction.RequestBody",
                  "name": "requestBody",
                  "type": "tuple"
                },
                {
                  "components": [
                    {
                      "internalType": "uint64",
                      "name": "blockNumber",
                      "type": "uint64"
                    },
                    {
                      "internalType": "uint64",
                      "name": "blockTimestamp",
                      "type": "uint64"
                    },
                    {
                      "internalType": "bytes32",
                      "name": "sourceAddressHash",
                      "type": "bytes32"
                    },
                    {
                      "internalType": "int256",
                      "name": "spentAmount",
                      "type": "int256"
                    },
                    {
                      "internalType": "bytes32",
                      "name": "standardPaymentReference",
                      "type": "bytes32"
                    }
                  ],
                  "internalType": "struct BalanceDecreasingTransaction.ResponseBody",
                  "name": "responseBody",
                  "type": "tuple"
                }
              ],
              "internalType": "struct BalanceDecreasingTransaction.Response",
              "name": "data",
              "type": "tuple"
            }
          ],
          "internalType": "struct BalanceDecreasingTransaction.Proof",
          "name": "_payment1",
          "type": "tuple"
        },
        {
          "components": [
            {
              "internalType": "bytes32[]",
              "name": "merkleProof",
              "type": "bytes32[]"
            },
            {
              "components": [
                {
                  "internalType": "bytes32",
                  "name": "attestationType",
                  "type": "bytes32"
                },
                {
                  "internalType": "bytes32",
                  "name": "sourceId",
                  "type": "bytes32"
                },
                {
                  "internalType": "uint64",
                  "name": "votingRound",
                  "type": "uint64"
                },
                {
                  "internalType": "uint64",
                  "name": "lowestUsedTimestamp",
                  "type": "uint64"
                },
                {
                  "components": [
                    {
                      "internalType": "bytes32",
                      "name": "transactionId",
                      "type": "bytes32"
                    },
                    {
                      "internalType": "bytes32",
                      "name": "sourceAddressIndicator",
                      "type": "bytes32"
                    }
                  ],
                  "internalType": "struct BalanceDecreasingTransaction.RequestBody",
                  "name": "requestBody",
                  "type": "tuple"
                },
                {
                  "components": [
                    {
                      "internalType": "uint64",
                      "name": "blockNumber",
                      "type": "uint64"
                    },
                    {
                      "internalType": "uint64",
                      "name": "blockTimestamp",
                      "type": "uint64"
                    },
                    {
                      "internalType": "bytes32",
                      "name": "sourceAddressHash",
                      "type": "bytes32"
                    },
                    {
                      "internalType": "int256",
                      "name": "spentAmount",
                      "type": "int256"
                    },
                    {
                      "internalType": "bytes32",
                      "name": "standardPaymentReference",
                      "type": "bytes32"
                    }
                  ],
                  "internalType": "struct BalanceDecreasingTransaction.ResponseBody",
                  "name": "responseBody",
                  "type": "tuple"
                }
              ],
              "internalType": "struct BalanceDecreasingTransaction.Response",
              "name": "data",
              "type": "tuple"
            }
          ],
          "internalType": "struct BalanceDecreasingTransaction.Proof",
          "name": "_payment2",
          "type": "tuple"
        },
        {
          "internalType": "address",
          "name": "_agentVault",
          "type": "address"
        },
        {
          "internalType": "address",
          "name": "_profitTo",
          "type": "address"
        },
        {
          "components": [
            {
              "internalType": "address",
              "name": "flashLender",
              "type": "address"
            },
            {
              "internalType": "uint256",
              "name": "maxFlashFee",
              "type": "uint256"
            },
            {
              "internalType": "address",
              "name": "dex",
              "type": "address"
            },
            {
              "components": [
                {
                  "internalType": "address[]",
                  "name": "path",
                  "type": "address[]"
                },
                {
                  "internalType": "uint256",
                  "name": "minPriceMul",
                  "type": "uint256"
                },
                {
                  "internalType": "uint256",
                  "name": "minPriceDiv",
                  "type": "uint256"
                }
              ],
              "internalType": "struct DexPairConfig",
              "name": "dexPair1",
              "type": "tuple"
            },
            {
              "components": [
                {
                  "internalType": "address[]",
                  "name": "path",
                  "type": "address[]"
                },
                {
                  "internalType": "uint256",
                  "name": "minPriceMul",
                  "type": "uint256"
                },
                {
                  "internalType": "uint256",
                  "name": "minPriceDiv",
                  "type": "uint256"
                }
              ],
              "internalType": "struct DexPairConfig",
              "name": "dexPair2",
              "type": "tuple"
            }
          ],
          "internalType": "struct ArbitrageConfig",
          "name": "_config",
          "type": "tuple"
        }
      ],
      "name": "doublePaymentChallenge",
      "outputs": [],
      "stateMutability": "nonpayable",
      "type": "function"
    },
    {
      "inputs": [],
      "name": "flashLender",
      "outputs": [
        {
          "internalType": "address",
          "name": "",
          "type": "address"
        }
      ],
      "stateMutability": "view",
      "type": "function"
    },
    {
      "inputs": [
        {
          "components": [
            {
              "internalType": "bytes32[]",
              "name": "merkleProof",
              "type": "bytes32[]"
            },
            {
              "components": [
                {
                  "internalType": "bytes32",
                  "name": "attestationType",
                  "type": "bytes32"
                },
                {
                  "internalType": "bytes32",
                  "name": "sourceId",
                  "type": "bytes32"
                },
                {
                  "internalType": "uint64",
                  "name": "votingRound",
                  "type": "uint64"
                },
                {
                  "internalType": "uint64",
                  "name": "lowestUsedTimestamp",
                  "type": "uint64"
                },
                {
                  "components": [
                    {
                      "internalType": "bytes32",
                      "name": "transactionId",
                      "type": "bytes32"
                    },
                    {
                      "internalType": "bytes32",
                      "name": "sourceAddressIndicator",
                      "type": "bytes32"
                    }
                  ],
                  "internalType": "struct BalanceDecreasingTransaction.RequestBody",
                  "name": "requestBody",
                  "type": "tuple"
                },
                {
                  "components": [
                    {
                      "internalType": "uint64",
                      "name": "blockNumber",
                      "type": "uint64"
                    },
                    {
                      "internalType": "uint64",
                      "name": "blockTimestamp",
                      "type": "uint64"
                    },
                    {
                      "internalType": "bytes32",
                      "name": "sourceAddressHash",
                      "type": "bytes32"
                    },
                    {
                      "internalType": "int256",
                      "name": "spentAmount",
                      "type": "int256"
                    },
                    {
                      "internalType": "bytes32",
                      "name": "standardPaymentReference",
                      "type": "bytes32"
                    }
                  ],
                  "internalType": "struct BalanceDecreasingTransaction.ResponseBody",
                  "name": "responseBody",
                  "type": "tuple"
                }
              ],
              "internalType": "struct BalanceDecreasingTransaction.Response",
              "name": "data",
              "type": "tuple"
            }
          ],
          "internalType": "struct BalanceDecreasingTransaction.Proof[]",
          "name": "_payments",
          "type": "tuple[]"
        },
        {
          "internalType": "address",
          "name": "_agentVault",
          "type": "address"
        },
        {
          "internalType": "address",
          "name": "_profitTo",
          "type": "address"
        },
        {
          "components": [
            {
              "internalType": "address",
              "name": "flashLender",
              "type": "address"
            },
            {
              "internalType": "uint256",
              "name": "maxFlashFee",
              "type": "uint256"
            },
            {
              "internalType": "address",
              "name": "dex",
              "type": "address"
            },
            {
              "components": [
                {
                  "internalType": "address[]",
                  "name": "path",
                  "type": "address[]"
                },
                {
                  "internalType": "uint256",
                  "name": "minPriceMul",
                  "type": "uint256"
                },
                {
                  "internalType": "uint256",
                  "name": "minPriceDiv",
                  "type": "uint256"
                }
              ],
              "internalType": "struct DexPairConfig",
              "name": "dexPair1",
              "type": "tuple"
            },
            {
              "components": [
                {
                  "internalType": "address[]",
                  "name": "path",
                  "type": "address[]"
                },
                {
                  "internalType": "uint256",
                  "name": "minPriceMul",
                  "type": "uint256"
                },
                {
                  "internalType": "uint256",
                  "name": "minPriceDiv",
                  "type": "uint256"
                }
              ],
              "internalType": "struct DexPairConfig",
              "name": "dexPair2",
              "type": "tuple"
            }
          ],
          "internalType": "struct ArbitrageConfig",
          "name": "_config",
          "type": "tuple"
        }
      ],
      "name": "freeBalanceNegativeChallenge",
      "outputs": [],
      "stateMutability": "nonpayable",
      "type": "function"
    },
    {
      "inputs": [
        {
          "components": [
            {
              "internalType": "bytes32[]",
              "name": "merkleProof",
              "type": "bytes32[]"
            },
            {
              "components": [
                {
                  "internalType": "bytes32",
                  "name": "attestationType",
                  "type": "bytes32"
                },
                {
                  "internalType": "bytes32",
                  "name": "sourceId",
                  "type": "bytes32"
                },
                {
                  "internalType": "uint64",
                  "name": "votingRound",
                  "type": "uint64"
                },
                {
                  "internalType": "uint64",
                  "name": "lowestUsedTimestamp",
                  "type": "uint64"
                },
                {
                  "components": [
                    {
                      "internalType": "bytes32",
                      "name": "transactionId",
                      "type": "bytes32"
                    },
                    {
                      "internalType": "bytes32",
                      "name": "sourceAddressIndicator",
                      "type": "bytes32"
                    }
                  ],
                  "internalType": "struct BalanceDecreasingTransaction.RequestBody",
                  "name": "requestBody",
                  "type": "tuple"
                },
                {
                  "components": [
                    {
                      "internalType": "uint64",
                      "name": "blockNumber",
                      "type": "uint64"
                    },
                    {
                      "internalType": "uint64",
                      "name": "blockTimestamp",
                      "type": "uint64"
                    },
                    {
                      "internalType": "bytes32",
                      "name": "sourceAddressHash",
                      "type": "bytes32"
                    },
                    {
                      "internalType": "int256",
                      "name": "spentAmount",
                      "type": "int256"
                    },
                    {
                      "internalType": "bytes32",
                      "name": "standardPaymentReference",
                      "type": "bytes32"
                    }
                  ],
                  "internalType": "struct BalanceDecreasingTransaction.ResponseBody",
                  "name": "responseBody",
                  "type": "tuple"
                }
              ],
              "internalType": "struct BalanceDecreasingTransaction.Response",
              "name": "data",
              "type": "tuple"
            }
          ],
          "internalType": "struct BalanceDecreasingTransaction.Proof",
          "name": "_transaction",
          "type": "tuple"
        },
        {
          "internalType": "address",
          "name": "_agentVault",
          "type": "address"
        },
        {
          "internalType": "address",
          "name": "_profitTo",
          "type": "address"
        },
        {
          "components": [
            {
              "internalType": "address",
              "name": "flashLender",
              "type": "address"
            },
            {
              "internalType": "uint256",
              "name": "maxFlashFee",
              "type": "uint256"
            },
            {
              "internalType": "address",
              "name": "dex",
              "type": "address"
            },
            {
              "components": [
                {
                  "internalType": "address[]",
                  "name": "path",
                  "type": "address[]"
                },
                {
                  "internalType": "uint256",
                  "name": "minPriceMul",
                  "type": "uint256"
                },
                {
                  "internalType": "uint256",
                  "name": "minPriceDiv",
                  "type": "uint256"
                }
              ],
              "internalType": "struct DexPairConfig",
              "name": "dexPair1",
              "type": "tuple"
            },
            {
              "components": [
                {
                  "internalType": "address[]",
                  "name": "path",
                  "type": "address[]"
                },
                {
                  "internalType": "uint256",
                  "name": "minPriceMul",
                  "type": "uint256"
                },
                {
                  "internalType": "uint256",
                  "name": "minPriceDiv",
                  "type": "uint256"
                }
              ],
              "internalType": "struct DexPairConfig",
              "name": "dexPair2",
              "type": "tuple"
            }
          ],
          "internalType": "struct ArbitrageConfig",
          "name": "_config",
          "type": "tuple"
        }
      ],
      "name": "illegalPaymentChallenge",
      "outputs": [],
      "stateMutability": "nonpayable",
      "type": "function"
    },
    {
      "inputs": [
        {
          "internalType": "uint256",
          "name": "_maxSlippageBipsDex1",
          "type": "uint256"
        },
        {
          "internalType": "uint256",
          "name": "_maxSlippageBipsDex2",
          "type": "uint256"
        },
        {
          "internalType": "address",
          "name": "_agentVault",
          "type": "address"
        }
      ],
      "name": "maxSlippageToMinPrices",
      "outputs": [
        {
          "internalType": "uint256",
          "name": "",
          "type": "uint256"
        },
        {
          "internalType": "uint256",
          "name": "",
          "type": "uint256"
        },
        {
          "internalType": "uint256",
          "name": "",
          "type": "uint256"
        },
        {
          "internalType": "uint256",
          "name": "",
          "type": "uint256"
        }
      ],
      "stateMutability": "view",
      "type": "function"
    },
    {
      "inputs": [
        {
          "internalType": "address",
          "name": "",
          "type": "address"
        },
        {
          "internalType": "address",
          "name": "_token",
          "type": "address"
        },
        {
          "internalType": "uint256",
          "name": "_amount",
          "type": "uint256"
        },
        {
          "internalType": "uint256",
          "name": "_fee",
          "type": "uint256"
        },
        {
          "internalType": "bytes",
          "name": "_data",
          "type": "bytes"
        }
      ],
      "name": "onFlashLoan",
      "outputs": [
        {
          "internalType": "bytes32",
          "name": "",
          "type": "bytes32"
        }
      ],
      "stateMutability": "nonpayable",
      "type": "function"
    },
    {
      "inputs": [],
      "name": "owner",
      "outputs": [
        {
          "internalType": "address",
          "name": "",
          "type": "address"
        }
      ],
      "stateMutability": "view",
      "type": "function"
    },
    {
      "inputs": [],
      "name": "renounceOwnership",
      "outputs": [],
      "stateMutability": "nonpayable",
      "type": "function"
    },
    {
      "inputs": [
        {
          "internalType": "address",
          "name": "_agentVault",
          "type": "address"
        },
        {
          "internalType": "address",
          "name": "_profitTo",
          "type": "address"
        },
        {
          "components": [
            {
              "internalType": "address",
              "name": "flashLender",
              "type": "address"
            },
            {
              "internalType": "uint256",
              "name": "maxFlashFee",
              "type": "uint256"
            },
            {
              "internalType": "address",
              "name": "dex",
              "type": "address"
            },
            {
              "components": [
                {
                  "internalType": "address[]",
                  "name": "path",
                  "type": "address[]"
                },
                {
                  "internalType": "uint256",
                  "name": "minPriceMul",
                  "type": "uint256"
                },
                {
                  "internalType": "uint256",
                  "name": "minPriceDiv",
                  "type": "uint256"
                }
              ],
              "internalType": "struct DexPairConfig",
              "name": "dexPair1",
              "type": "tuple"
            },
            {
              "components": [
                {
                  "internalType": "address[]",
                  "name": "path",
                  "type": "address[]"
                },
                {
                  "internalType": "uint256",
                  "name": "minPriceMul",
                  "type": "uint256"
                },
                {
                  "internalType": "uint256",
                  "name": "minPriceDiv",
                  "type": "uint256"
                }
              ],
              "internalType": "struct DexPairConfig",
              "name": "dexPair2",
              "type": "tuple"
            }
          ],
          "internalType": "struct ArbitrageConfig",
          "name": "_config",
          "type": "tuple"
        }
      ],
      "name": "runArbitrage",
      "outputs": [],
      "stateMutability": "nonpayable",
      "type": "function"
    },
    {
      "inputs": [
        {
          "internalType": "address",
          "name": "newOwner",
          "type": "address"
        }
      ],
      "name": "transferOwnership",
      "outputs": [],
      "stateMutability": "nonpayable",
      "type": "function"
    },
    {
      "inputs": [],
      "name": "withdrawNat",
      "outputs": [],
      "stateMutability": "nonpayable",
      "type": "function"
    },
    {
      "inputs": [
        {
          "internalType": "contract IERC20",
          "name": "token",
          "type": "address"
        }
      ],
      "name": "withdrawToken",
      "outputs": [],
      "stateMutability": "nonpayable",
      "type": "function"
    }
  ],
  "bytecode": "0x60c06040523480156200001157600080fd5b5060405162004ffb38038062004ffb8339810160408190526200003491620000c9565b818162000041336200005c565b6001600160a01b039182166080521660a05250620001019050565b600080546001600160a01b038381166001600160a01b0319831681178455604051919092169283917f8be0079c531659141344cd1fd0a4f28419497f9722a3daafe3b4186f6b6457e09190a35050565b80516001600160a01b0381168114620000c457600080fd5b919050565b60008060408385031215620000dd57600080fd5b620000e883620000ac565b9150620000f860208401620000ac565b90509250929050565b60805160a051614ebf6200013c6000396000818161010f01528181610841015261170e01526000818161017c01526116cf0152614ebf6000f3fe608060405234801561001057600080fd5b50600436106100df5760003560e01c8063a82f5fec1161008c578063d2fba79811610066578063d2fba798146101ec578063dbe83cdf146101ff578063f2fde38b14610212578063f609bbec1461022557600080fd5b8063a82f5fec1461019e578063ae405860146101b1578063ca2196bf146101e457600080fd5b806389476069116100bd57806389476069146101535780638da5cb5b14610166578063a77144581461017757600080fd5b806323e30c8b146100e4578063692058c21461010a578063715018a614610149575b600080fd5b6100f76100f2366004613c05565b610238565b6040519081526020015b60405180910390f35b6101317f000000000000000000000000000000000000000000000000000000000000000081565b6040516001600160a01b039091168152602001610101565b6101516105ef565b005b610151610161366004613caf565b610603565b6000546001600160a01b0316610131565b6101317f000000000000000000000000000000000000000000000000000000000000000081565b6101516101ac366004613cf7565b6106aa565b6101c46101bf366004613d84565b61083a565b604080519485526020850193909352918301526060820152608001610101565b6101516108b4565b6101516101fa36600461400d565b6108f6565b61015161020d36600461406f565b61097b565b610151610220366004613caf565b610b0e565b610151610233366004614121565b610b9b565b6000600160005474010000000000000000000000000000000000000000900460ff16600281111561026b5761026b6141c3565b146102e35760405162461bcd60e51b815260206004820152602d60248201527f4c697175696461746f723a20466c617368206c6f616e207769746820696e766160448201527f6c696420696e69746961746f720000000000000000000000000000000000000060648201526084015b60405180910390fd5b600080547fffffffffffffffffffffff00ffffffffffffffffffffffffffffffffffffffff167402000000000000000000000000000000000000000017905560405161033290849084906141f2565b60405190819003902060015460081b7fffffffffffffffffffffffffffffffffffffffffffffffffffffffffffffff009081169116146103da5760405162461bcd60e51b815260206004820152602c60248201527f4c697175696461746f723a20466c617368206c656e646572207061737365642060448201527f696e76616c69642064617461000000000000000000000000000000000000000060648201526084016102da565b600080806103ea8587018761400d565b925092509250806020015187111561046a5760405162461bcd60e51b815260206004820152602c60248201527f4c697175696461746f723a20466c617368206c656e646572207061737365642060448201527f746f6f206869676820666565000000000000000000000000000000000000000060648201526084016102da565b606081015151805160009061048157610481614202565b60200260200101516001600160a01b0316896001600160a01b03161461050f5760405162461bcd60e51b815260206004820152602d60248201527f4c697175696461746f723a20466c617368206c656e646572207061737365642060448201527f696e76616c696420746f6b656e0000000000000000000000000000000000000060648201526084016102da565b61051b88848484610c53565b80516001600160a01b038a169063095ea7b3906105388a8c614260565b6040517fffffffff0000000000000000000000000000000000000000000000000000000060e085901b1681526001600160a01b03909216600483015260248201526044016020604051808303816000875af115801561059b573d6000803e3d6000fd5b505050506040513d601f19601f820116820180604052508101906105bf9190614283565b507f439148f0bbc682ca079e46d6e2c2f0c1e3b820f1a291b069d8882abf8cf18dd99a9950505050505050505050565b6105f761104c565b61060160006110a6565b565b61060b61104c565b6106a7816106216000546001600160a01b031690565b6040517f70a082310000000000000000000000000000000000000000000000000000000081523060048201526001600160a01b038516906370a0823190602401602060405180830381865afa15801561067e573d6000803e3d6000fd5b505050506040513d601f19601f820116820180604052508101906106a2919061429e565b61110e565b50565b6106b261104c565b6000836001600160a01b03166394217ad16040518163ffffffff1660e01b8152600401602060405180830381865afa1580156106f2573d6000803e3d6000fd5b505050506040513d601f19601f8201168201806040525081019061071691906142b7565b6040517f66a370460000000000000000000000000000000000000000000000000000000081529091506001600160a01b038216906366a3704690610760908890889060040161445a565b600060405180830381600087803b15801561077a57600080fd5b505af115801561078e573d6000803e3d6000fd5b50506040517fd2fba79800000000000000000000000000000000000000000000000000000000815230925063d2fba79891506107d290879087908790600401614535565b600060405180830381600087803b1580156107ec57600080fd5b505af19250505080156107fd575060015b610833573d80801561082b576040519150601f19603f3d011682016040523d82523d6000602084013e610830565b606091505b50505b5050505050565b60008080807f00000000000000000000000000000000000000000000000000000000000000008161086a8761118e565b9050600080610883848c8560600151866040015161165f565b9150915060008061089e868d8760800151886060015161165f565b949e939d509b5092995090975050505050505050565b6108bc61104c565b600080546040516001600160a01b03909116914780156108fc02929091818181858888f193505050501580156106a7573d6000803e3d6000fd5b33301461096b5760405162461bcd60e51b815260206004820152602660248201527f4368616c6c656e6765723a2043616c6c696e6720616e20696e7465726e616c2060448201527f6d6574686f64000000000000000000000000000000000000000000000000000060648201526084016102da565b6109768383836116b6565b505050565b61098361104c565b6000836001600160a01b03166394217ad16040518163ffffffff1660e01b8152600401602060405180830381865afa1580156109c3573d6000803e3d6000fd5b505050506040513d601f19601f820116820180604052508101906109e791906142b7565b6040517feb81ca630000000000000000000000000000000000000000000000000000000081529091506001600160a01b0382169063eb81ca6390610a33908990899089906004016145e8565b600060405180830381600087803b158015610a4d57600080fd5b505af1158015610a61573d6000803e3d6000fd5b50506040517fd2fba79800000000000000000000000000000000000000000000000000000000815230925063d2fba7989150610aa590879087908790600401614535565b600060405180830381600087803b158015610abf57600080fd5b505af1925050508015610ad0575060015b610b06573d808015610afe576040519150601f19603f3d011682016040523d82523d6000602084013e610b03565b606091505b50505b505050505050565b610b1661104c565b6001600160a01b038116610b925760405162461bcd60e51b815260206004820152602660248201527f4f776e61626c653a206e6577206f776e657220697320746865207a65726f206160448201527f646472657373000000000000000000000000000000000000000000000000000060648201526084016102da565b6106a7816110a6565b610ba361104c565b6000836001600160a01b03166394217ad16040518163ffffffff1660e01b8152600401602060405180830381865afa158015610be3573d6000803e3d6000fd5b505050506040513d601f19601f82011682018060405250810190610c0791906142b7565b6040517f7e7bfdc60000000000000000000000000000000000000000000000000000000081529091506001600160a01b03821690637e7bfdc690610a3390899089908990600401614627565b6060806000836060015160000151600081518110610c7357610c73614202565b602002602001015190506000846080015160000151600081518110610c9a57610c9a614202565b602090810291909101015160408087015190517f095ea7b30000000000000000000000000000000000000000000000000000000081526001600160a01b039182166004820152602481018b905291925083169063095ea7b3906044016020604051808303816000875af1158015610d15573d6000803e3d6000fd5b505050506040513d601f19601f82011682018060405250810190610d399190614283565b50610d7788610d598a886060015160200151896060015160400151611b99565b60608801515160408901516001600160a01b03169291903042611bba565b60408781015190517f095ea7b30000000000000000000000000000000000000000000000000000000081526001600160a01b039182166004820152600060248201529196509194509083169063095ea7b3906044016020604051808303816000875af1158015610deb573d6000803e3d6000fd5b505050506040513d601f19601f82011682018060405250810190610e0f9190614283565b5060008460018651610e2191906146e6565b81518110610e3157610e31614202565b60209081029190910101516040517fbcbaf4870000000000000000000000000000000000000000000000000000000081526001600160a01b038981166004830152602482018390529192506000918a169063bcbaf487906044016060604051808303816000875af1158015610eaa573d6000803e3d6000fd5b505050506040513d601f19601f82011682018060405250810190610ece91906146f9565b925050811590506110405760408781015190517f095ea7b30000000000000000000000000000000000000000000000000000000081526001600160a01b039182166004820152602481018390529084169063095ea7b3906044016020604051808303816000875af1158015610f47573d6000803e3d6000fd5b505050506040513d601f19601f82011682018060405250810190610f6b9190614283565b50610fa981610f8b838a60800151602001518b6080015160400151611b99565b60808a01515160408b01516001600160a01b03169291903042611bba565b60408981015190517f095ea7b30000000000000000000000000000000000000000000000000000000081526001600160a01b039182166004820152600060248201529198508516915063095ea7b3906044016020604051808303816000875af115801561101a573d6000803e3d6000fd5b505050506040513d601f19601f8201168201806040525081019061103e9190614283565b505b50505050505050505050565b6000546001600160a01b031633146106015760405162461bcd60e51b815260206004820181905260248201527f4f776e61626c653a2063616c6c6572206973206e6f7420746865206f776e657260448201526064016102da565b600080546001600160a01b038381167fffffffffffffffffffffffff0000000000000000000000000000000000000000831681178455604051919092169283917f8be0079c531659141344cd1fd0a4f28419497f9722a3daafe3b4186f6b6457e09190a35050565b604080516001600160a01b038416602482015260448082018490528251808303909101815260649091019091526020810180517bffffffffffffffffffffffffffffffffffffffffffffffffffffffff167fa9059cbb00000000000000000000000000000000000000000000000000000000179052610976908490611e15565b61123b60405180610200016040528060006001600160a01b0316815260200160006001600160a01b0316815260200160006001600160a01b0316815260200160006001600160a01b0316815260200160006001600160a01b0316815260200160008152602001600081526020016000815260200160008152602001600081526020016000815260200160008152602001606081526020016060815260200160608152602001606081525090565b6000826001600160a01b03166394217ad16040518163ffffffff1660e01b8152600401602060405180830381865afa15801561127b573d6000803e3d6000fd5b505050506040513d601f19601f8201168201806040525081019061129f91906142b7565b6001600160a01b03808216808552908516602080860191909152604080517f7c7db1a500000000000000000000000000000000000000000000000000000000815290519394509192637c7db1a59260048082019392918290030181865afa15801561130e573d6000803e3d6000fd5b505050506040513d601f19601f8201168201806040525081019061133291906142b7565b82604001906001600160a01b031690816001600160a01b031681525050806001600160a01b031663b5a488a66040518163ffffffff1660e01b8152600401602060405180830381865afa15801561138d573d6000803e3d6000fd5b505050506040513d601f19601f820116820180604052508101906113b191906142b7565b82608001906001600160a01b031690816001600160a01b031681525050806001600160a01b031663531090f36040518163ffffffff1660e01b8152600401602060405180830381865afa15801561140c573d6000803e3d6000fd5b505050506040513d601f19601f82011682018060405250810190611430919061429e565b82610100018181525050806001600160a01b031663410418f16040518163ffffffff1660e01b8152600401602060405180830381865afa158015611478573d6000803e3d6000fd5b505050506040513d601f19601f8201168201806040525081019061149c919061429e565b6101208301526040517f5f0169060000000000000000000000000000000000000000000000000000000081526001600160a01b038481166004830152821690635f01690690602401602060405180830381865afa158015611501573d6000803e3d6000fd5b505050506040513d601f19601f8201168201806040525081019061152591906142b7565b6001600160a01b0390811660608401526040517f529cc2b900000000000000000000000000000000000000000000000000000000815284821660048201529082169063529cc2b990602401606060405180830381865afa15801561158d573d6000803e3d6000fd5b505050506040513d601f19601f820116820180604052508101906115b191906146f9565b60a085015260e084015260c0830152604080517f49b5fdb4000000000000000000000000000000000000000000000000000000008152905161164d9184916001600160a01b038516916349b5fdb49160048083019260209291908290030181865afa158015611624573d6000803e3d6000fd5b505050506040513d601f19601f8201168201806040525081019061164891906142b7565b611efd565b61016084015261014083015250919050565b60008080806116786001600160a01b03891687876121a7565b9092509050600061168b886127106146e6565b6116959083614732565b905060006116a584612710614732565b919a91995090975050505050505050565b80516001600160a01b03166116f2576001600160a01b037f00000000000000000000000000000000000000000000000000000000000000001681525b60408101516001600160a01b0316611734576001600160a01b037f00000000000000000000000000000000000000000000000000000000000000001660408201525b6000836001600160a01b03166394217ad16040518163ffffffff1660e01b8152600401602060405180830381865afa158015611774573d6000803e3d6000fd5b505050506040513d601f19601f8201168201806040525081019061179891906142b7565b6040517fe1c501000000000000000000000000000000000000000000000000000000000081526001600160a01b0386811660048301529192509082169063e1c501009060240160408051808303816000875af1925050508015611818575060408051601f3d908101601f191682019092526118159181019061475a565b60015b156118205750505b600061182b8561118e565b9050611848836060015160000151826060015183604001516123d0565b83606001516000018190525061186f836080015160000151826080015183606001516123d0565b608084015152604083015160608401515161188a91906124b2565b61018082015260408301516080840151516118a591906124b2565b6101a0820152606083810151516101c08301526080840151516101e08301528101516040517f70a082310000000000000000000000000000000000000000000000000000000081523060048201526000916001600160a01b0316906370a0823190602401602060405180830381865afa158015611926573d6000803e3d6000fd5b505050506040513d601f19601f8201168201806040525081019061194a919061429e565b60808301516040517f70a082310000000000000000000000000000000000000000000000000000000081523060048201529192506000916001600160a01b03909116906370a0823190602401602060405180830381865afa1580156119b3573d6000803e3d6000fd5b505050506040513d601f19601f820116820180604052508101906119d7919061429e565b90506119e385846125e6565b60608301516040517f70a082310000000000000000000000000000000000000000000000000000000081523060048201526000916001600160a01b0316906370a0823190602401602060405180830381865afa158015611a47573d6000803e3d6000fd5b505050506040513d601f19601f82011682018060405250810190611a6b919061429e565b60808501516040517f70a082310000000000000000000000000000000000000000000000000000000081523060048201529192506000916001600160a01b03909116906370a0823190602401602060405180830381865afa158015611ad4573d6000803e3d6000fd5b505050506040513d601f19601f82011682018060405250810190611af8919061429e565b9050838210158015611b0a5750828110155b611b7c5760405162461bcd60e51b815260206004820152603b60248201527f4c697175696461746f723a204e656761746976652070726f66697420776f756c60448201527f6420646563726561736520636f6e74726163742062616c616e6365000000000060648201526084016102da565b6000611b8885846146e6565b905061104086606001518a8361110e565b600081611ba68486614732565b611bb091906147b5565b90505b9392505050565b606080876001600160a01b03166338ed173988888888886040518663ffffffff1660e01b8152600401611bf1959493929190614835565b6000604051808303816000875af1925050508015611c3157506040513d6000823e601f3d908101601f19168201604052611c2e91908101906148db565b60015b611e04573d808015611c5f576040519150601f19603f3d011682016040523d82523d6000602084013e611c64565b606091505b50805115611c7182612ae4565b90611c8f5760405162461bcd60e51b81526004016102da919061498f565b506040517f38ed17390000000000000000000000000000000000000000000000000000000081526001600160a01b038a16906338ed173990611cdd908b908b908b908b908b90600401614835565b6000604051808303816000875af1925050508015611d1d57506040513d6000823e601f3d908101601f19168201604052611d1a91908101906149a2565b60015b611dea573d808015611d4b576040519150601f19603f3d011682016040523d82523d6000602084013e611d50565b606091505b50805115611d5d82612ae4565b90611d7b5760405162461bcd60e51b81526004016102da919061498f565b5060405162461bcd60e51b815260206004820152602a60248201527f556e697377617056323a20737761704578616374546f6b656e73466f72546f6b60448201527f656e73206661696c65640000000000000000000000000000000000000000000060648201526084016102da565b60408051600081526020810190915293509150611e0a9050565b90925090505b965096945050505050565b6000611e6a826040518060400160405280602081526020017f5361666545524332303a206c6f772d6c6576656c2063616c6c206661696c6564815250856001600160a01b0316612bcc9092919063ffffffff16565b9050805160001480611e8b575080806020019051810190611e8b9190614283565b6109765760405162461bcd60e51b815260206004820152602a60248201527f5361666545524332303a204552433230206f7065726174696f6e20646964206e60448201527f6f7420737563636565640000000000000000000000000000000000000000000060648201526084016102da565b6000806000611f19856000015186606001518760800151612bdb565b80516040517f524f388900000000000000000000000000000000000000000000000000000000815291925060009182916001600160a01b0388169163524f388991611f669160040161498f565b606060405180830381865afa158015611f83573d6000803e3d6000fd5b505050506040513d601f19601f82011682018060405250810190611fa791906146f9565b9250509150600080876001600160a01b031663524f388986602001516040518263ffffffff1660e01b8152600401611fdf919061498f565b606060405180830381865afa158015611ffc573d6000803e3d6000fd5b505050506040513d601f19601f8201168201806040525081019061202091906146f9565b9250509150600080896001600160a01b031663524f388988604001516040518263ffffffff1660e01b8152600401612058919061498f565b606060405180830381865afa158015612075573d6000803e3d6000fd5b505050506040513d601f19601f8201168201806040525081019061209991906146f9565b92505091506121198b606001516001600160a01b031663313ce5676040518163ffffffff1660e01b8152600401602060405180830381865afa1580156120e3573d6000803e3d6000fd5b505050506040513d601f19601f8201168201806040525081019061210791906149d7565b60ff1685858e61012001518a8a612d2a565b6121948c608001516001600160a01b031663313ce5676040518163ffffffff1660e01b8152600401602060405180830381865afa15801561215e573d6000803e3d6000fd5b505050506040513d601f19601f8201168201806040525081019061218291906149d7565b60ff1684848f61012001518b8b612d2a565b98509850505050505050505b9250929050565b6040517fd52bb6f40000000000000000000000000000000000000000000000000000000081526001600160a01b0383811660048301528281166024830152600091829186169063d52bb6f4906044016040805180830381865afa92505050801561222e575060408051601f3d908101601f1916820190925261222b918101906149f2565b60015b6123c2573d80801561225c576040519150601f19603f3d011682016040523d82523d6000602084013e612261565b606091505b5080511561226e82612ae4565b9061228c5760405162461bcd60e51b81526004016102da919061498f565b506040517f7f6f21780000000000000000000000000000000000000000000000000000000081526001600160a01b0386811660048301528581166024830152871690637f6f2178906044016040805180830381865afa92505050801561230f575060408051601f3d908101601f1916820190925261230c918101906149f2565b60015b6123b6573d80801561233d576040519150601f19603f3d011682016040523d82523d6000602084013e612342565b606091505b5080511561234f82612ae4565b9061236d5760405162461bcd60e51b81526004016102da919061498f565b5060405162461bcd60e51b815260206004820152601d60248201527f556e697377617056323a206765745265736572766573206661696c656400000060448201526064016102da565b90935091506123c89050565b90925090505b935093915050565b606083516000036123ec576123e58383612d9a565b9050611bb3565b826001600160a01b03168460008151811061240957612409614202565b60200260200101516001600160a01b031614801561245e5750816001600160a01b0316846001865161243b91906146e6565b8151811061244b5761244b614202565b60200260200101516001600160a01b0316145b6124aa5760405162461bcd60e51b815260206004820152601e60248201527f4c697175696461746f723a20496e76616c696420746f6b656e2070617468000060448201526064016102da565b509192915050565b6060600182516124c291906146e6565b67ffffffffffffffff8111156124da576124da613dbd565b60405190808252806020026020018201604052801561251f57816020015b60408051808201909152600080825260208201528152602001906001900390816124f85790505b50905060005b6001835161253391906146e6565b8110156125df5761259683828151811061254f5761254f614202565b6020026020010151848360016125659190614260565b8151811061257557612575614202565b6020026020010151866001600160a01b03166121a79092919063ffffffff16565b8383815181106125a8576125a8614202565b60200260200101516000018484815181106125c5576125c5614202565b602090810291909101810151019190915252600101612525565b5092915050565b6000805474010000000000000000000000000000000000000000900460ff166002811115612616576126166141c3565b146126635760405162461bcd60e51b815260206004820152601e60248201527f4c697175696461746f723a205265656e7472616e637920626c6f636b6564000060448201526064016102da565b600080547fffffffffffffffffffffff00ffffffffffffffffffffffffffffffffffffffff167401000000000000000000000000000000000000000017905560a08101516127195760405162461bcd60e51b815260206004820152602360248201527f4c697175696461746f723a204e6f20662d617373657420746f206c697175696460448201527f617465000000000000000000000000000000000000000000000000000000000060648201526084016102da565b815160608201516040517f613255ab0000000000000000000000000000000000000000000000000000000081526001600160a01b039182166004820152600092919091169063613255ab90602401602060405180830381865afa158015612784573d6000803e3d6000fd5b505050506040513d601f19601f820116820180604052508101906127a8919061429e565b9050600081116128205760405162461bcd60e51b815260206004820152602260248201527f4c697175696461746f723a20466c617368206c6f616e20756e617661696c616260448201527f6c6500000000000000000000000000000000000000000000000000000000000060648201526084016102da565b600061282b83612e28565b90506000811161287d5760405162461bcd60e51b815260206004820152601f60248201527f4c697175696461746f723a204e6f2070726f66697420617661696c61626c650060448201526064016102da565b6000836000015184602001518660405160200161289c93929190614a4b565b60405160208183030381529060405290508080519060200120600160006101000a8154817effffffffffffffffffffffffffffffffffffffffffffffffffffffffffffff021916908360081c021790555084600001516001600160a01b0316635cffe9de3086606001516129108787612eb2565b856040518563ffffffff1660e01b81526004016129309493929190614ade565b6020604051808303816000875af115801561294f573d6000803e3d6000fd5b505050506040513d601f19601f820116820180604052508101906129739190614283565b50606084015185516040517f095ea7b30000000000000000000000000000000000000000000000000000000081526001600160a01b0391821660048201526000602482015291169063095ea7b3906044016020604051808303816000875af11580156129e3573d6000803e3d6000fd5b505050506040513d601f19601f82011682018060405250810190612a079190614283565b5060029250612a14915050565b60005474010000000000000000000000000000000000000000900460ff166002811115612a4357612a436141c3565b14612ab8576040805162461bcd60e51b81526020600482015260248101919091527f4c697175696461746f723a205265656e7472616e637920626c6f636b6564206f60448201527f7220666c617368206c6f616e207265636569766572206e6f742063616c6c656460648201526084016102da565b5050600080547fffffffffffffffffffffff00ffffffffffffffffffffffffffffffffffffffff169055565b6060600060048351612af691906146e6565b67ffffffffffffffff811115612b0e57612b0e613dbd565b6040519080825280601f01601f191660200182016040528015612b38576020820181803683370190505b50905060005b8151811015612bb75783612b53826004614260565b81518110612b6357612b63614202565b602001015160f81c60f81b828281518110612b8057612b80614202565b60200101907effffffffffffffffffffffffffffffffffffffffffffffffffffffffffffff1916908160001a905350600101612b3e565b5080806020019051810190611bb39190614b74565b6060611bb08484600085612ec8565b612bff60405180606001604052806060815260200160608152602001606081525090565b6040517f4610bc230000000000000000000000000000000000000000000000000000000081526000906001600160a01b03861690634610bc2390612c4a906002908890600401614ba9565b600060405180830381865afa158015612c67573d6000803e3d6000fd5b505050506040513d6000823e601f3d908101601f19168201604052612c8f9190810190614c0b565b90506000856001600160a01b0316634610bc236001866040518363ffffffff1660e01b8152600401612cc2929190614ba9565b600060405180830381865afa158015612cdf573d6000803e3d6000fd5b505050506040513d6000823e601f3d908101601f19168201604052612d079190810190614c0b565b60a0830151845260c0928301516020850152909101516040830152509392505050565b6000806009612d39878a614260565b612d439190614260565b90506000612d518487614260565b905080821015612d6357612d63614d06565b87612d6e82846146e6565b612d7990600a614e55565b612d839087614732565b612d8d91906147b5565b9998505050505050505050565b604080516002808252606080830184529260009291906020830190803683370190505090508381600081518110612dd357612dd3614202565b60200260200101906001600160a01b031690816001600160a01b0316815250508281600181518110612e0757612e07614202565b6001600160a01b039092166020928302919091019091015290505b92915050565b6000806001836101800151511180612e4657506001836101a0015151115b9050600081612e5d57612e5884612fbc565b612e66565b612e66846131f0565b905080600003612e7a575060009392505050565b6000612e98612e8e8387610100015161333f565b8660a00151612eb2565b9050612ea98186610180015161334b565b95945050505050565b6000818310612ec15781611bb3565b5090919050565b606082471015612f405760405162461bcd60e51b815260206004820152602660248201527f416464726573733a20696e73756666696369656e742062616c616e636520666f60448201527f722063616c6c000000000000000000000000000000000000000000000000000060648201526084016102da565b600080866001600160a01b03168587604051612f5c9190614e61565b60006040518083038185875af1925050503d8060008114612f99576040519150601f19603f3d011682016040523d82523d6000602084013e612f9e565b606091505b5091509150612faf878383876133c5565b925050505b949350505050565b600080826101800151600081518110612fd757612fd7614202565b60200260200101516000015190506000836101800151600081518110612fff57612fff614202565b60200260200101516020015190506000846101a0015160008151811061302757613027614202565b60200260200101516000015190506000856101a0015160008151811061304f5761304f614202565b6020026020010151602001519050816103e860036103e861307091906146e6565b61307a9087614732565b61308491906147b5565b61308e9190614732565b94506130998561343e565b945060006130ac848861010001516135c1565b90506000836127108960c001516130c8858c61014001516135e4565b6130d29190614732565b6130dc91906147b5565b6130e69190614732565b90506000836103e86130f96003826146e6565b6127108c60e00151613110888f61016001516135e4565b61311a9190614732565b61312491906147b5565b61312e9190614732565b61313891906147b5565b6131429190614732565b90506131566131518284614260565b61343e565b6131609089614732565b9750505050600082856131739190614732565b9050858110613189575060009695505050505050565b61319381876146e6565b95506131a390506103e886614732565b94506131b260036103e86146e6565b6131bc90866147b5565b94506131c882866147b5565b94506131d58585856135fc565b94506131e6858761010001516135c1565b9695505050505050565b6000806132068360a001518461010001516135c1565b9050600081815b60088110156132d2576000613f3461271061322886866146e6565b6132329190614732565b61323c91906147b5565b61324690846146e6565b90506000613f3461271061325a87876146e6565b6132649190614732565b61326e91906147b5565b6132789086614260565b9050606461328682866146e6565b116132925750506132d2565b600061329e8984613656565b905060006132ac8a84613656565b9050808211156132be578295506132c2565b8396505b50506001909201915061320d9050565b50600060026132e18385614260565b6132eb91906147b5565b905060006132f98786613656565b905060006133078884613656565b905080158015613315575081155b1561332857506000979650505050505050565b818111613333578592505b50909695505050505050565b6000611bb38284614732565b805182905b80156125df576133b182846133666001856146e6565b8151811061337657613376614202565b6020026020010151600001518560018561339091906146e6565b815181106133a0576133a0614202565b602002602001015160200151613aa0565b9150806133bd81614e7d565b915050613350565b6060831561343457825160000361342d576001600160a01b0385163b61342d5760405162461bcd60e51b815260206004820152601d60248201527f416464726573733a2063616c6c20746f206e6f6e2d636f6e747261637400000060448201526064016102da565b5081612fb4565b612fb48383613af6565b60008160000361345057506000919050565b81600170010000000000000000000000000000000082106134765760809190911c9060401b5b6801000000000000000082106134915760409190911c9060201b5b64010000000082106134a85760209190911c9060101b5b6201000082106134bd5760109190911c9060081b5b61010082106134d15760089190911c9060041b5b601082106134e45760049190911c9060021b5b600882106134f05760011b5b600181858161350157613501614786565b048201901c9050600181858161351957613519614786565b048201901c9050600181858161353157613531614786565b048201901c9050600181858161354957613549614786565b048201901c9050600181858161356157613561614786565b048201901c9050600181858161357957613579614786565b048201901c9050600181858161359157613591614786565b048201901c905060008185816135a9576135a9614786565b0490508082106135b95780612ea9565b509392505050565b60008160016135d08286614260565b6135da91906146e6565b611bb391906147b5565b60006135f26009600a614e55565b6135da8385614732565b60008061360c60036103e86146e6565b6136169086614732565b905060006136248483614732565b90506000826136356103e888614732565b61363f9190614260565b905061364b81836147b5565b979650505050505050565b600080836101a001515167ffffffffffffffff81111561367857613678613dbd565b6040519080825280602002602001820160405280156136bd57816020015b60408051808201909152600080825260208201528152602001906001900390816136965790505b50905060005b846101a001515181101561374f576040518060400160405280866101a0015183815181106136f3576136f3614202565b6020026020010151600001518152602001866101a00151838151811061371b5761371b614202565b60200260200101516020015181525082828151811061373c5761373c614202565b60209081029190910101526001016136c3565b5060006137618486610100015161333f565b610180860151519091505b8015613a5a5760006137ba8388610180015160018561378b91906146e6565b8151811061379b5761379b614202565b60200260200101516000015189610180015160018661339091906146e6565b905060015b876101e0015151811015613a4557876101c0015183815181106137e4576137e4614202565b60200260200101516001600160a01b0316886101e0015160018361380891906146e6565b8151811061381857613818614202565b60200260200101516001600160a01b031614801561388d57506101c08801516138426001856146e6565b8151811061385257613852614202565b60200260200101516001600160a01b0316886101e00151828151811061387a5761387a614202565b60200260200101516001600160a01b0316145b1561390757838561389f6001846146e6565b815181106138af576138af614202565b60200260200101516000018181516138c791906146e6565b90525081856138d76001846146e6565b815181106138e7576138e7614202565b60200260200101516020018181516138ff9190614260565b905250613a3d565b6101c08801516139186001856146e6565b8151811061392857613928614202565b60200260200101516001600160a01b0316886101e0015160018361394c91906146e6565b8151811061395c5761395c614202565b60200260200101516001600160a01b03161480156139c75750876101c00151838151811061398c5761398c614202565b60200260200101516001600160a01b0316886101e0015182815181106139b4576139b4614202565b60200260200101516001600160a01b0316145b15613a3d5781856139d96001846146e6565b815181106139e9576139e9614202565b6020026020010151600001818151613a0191906146e6565b9052508385613a116001846146e6565b81518110613a2157613a21614202565b6020026020010151602001818151613a399190614260565b9052505b6001016137bf565b50915080613a5281614e7d565b91505061376c565b50600080613a688787613b20565b915091506000613a788286613b84565b90506000613a868285614260565b9050848111613a96576000612d8d565b612d8d85826146e6565b6000806103e8613ab08686614732565b613aba9190614732565b90506000613acb60036103e86146e6565b613ad587866146e6565b613adf9190614732565b9050613aeb81836147b5565b6131e6906001614260565b815115613b065781518083602001fd5b8060405162461bcd60e51b81526004016102da919061498f565b600080613b4e6127108560c0015185613b399190614732565b613b4391906147b5565b8561014001516135e4565b9150613b7b6127108560e0015185613b669190614732565b613b7091906147b5565b8561016001516135e4565b90509250929050565b8160005b82518110156125df57613bd682848381518110613ba757613ba7614202565b602002602001015160000151858481518110613bc557613bc5614202565b6020026020010151602001516135fc565b9150600101613b88565b6001600160a01b03811681146106a757600080fd5b8035613c0081613be0565b919050565b60008060008060008060a08789031215613c1e57600080fd5b8635613c2981613be0565b95506020870135613c3981613be0565b94506040870135935060608701359250608087013567ffffffffffffffff80821115613c6457600080fd5b818901915089601f830112613c7857600080fd5b813581811115613c8757600080fd5b8a6020828501011115613c9957600080fd5b6020830194508093505050509295509295509295565b600060208284031215613cc157600080fd5b8135611bb381613be0565b60006101808284031215613cdf57600080fd5b50919050565b600060a08284031215613cdf57600080fd5b60008060008060808587031215613d0d57600080fd5b843567ffffffffffffffff80821115613d2557600080fd5b613d3188838901613ccc565b955060208701359150613d4382613be0565b909350604086013590613d5582613be0565b90925060608601359080821115613d6b57600080fd5b50613d7887828801613ce5565b91505092959194509250565b600080600060608486031215613d9957600080fd5b83359250602084013591506040840135613db281613be0565b809150509250925092565b7f4e487b7100000000000000000000000000000000000000000000000000000000600052604160045260246000fd5b6040516060810167ffffffffffffffff81118282101715613e0f57613e0f613dbd565b60405290565b604051610140810167ffffffffffffffff81118282101715613e0f57613e0f613dbd565b604051601f8201601f1916810167ffffffffffffffff81118282101715613e6257613e62613dbd565b604052919050565b600067ffffffffffffffff821115613e8457613e84613dbd565b5060051b60200190565b600060608284031215613ea057600080fd5b613ea8613dec565b9050813567ffffffffffffffff811115613ec157600080fd5b8201601f81018413613ed257600080fd5b80356020613ee7613ee283613e6a565b613e39565b82815260059290921b83018101918181019087841115613f0657600080fd5b938201935b83851015613f2d578435613f1e81613be0565b82529382019390820190613f0b565b808652505080850135818501525050506040820135604082015292915050565b600060a08284031215613f5f57600080fd5b60405160a0810167ffffffffffffffff8282108183111715613f8357613f83613dbd565b8160405282935084359150613f9782613be0565b8183526020850135602084015260408501359150613fb482613be0565b8160408401526060850135915080821115613fce57600080fd5b613fda86838701613e8e565b60608401526080850135915080821115613ff357600080fd5b5061400085828601613e8e565b6080830152505092915050565b60008060006060848603121561402257600080fd5b833561402d81613be0565b9250602084013561403d81613be0565b9150604084013567ffffffffffffffff81111561405957600080fd5b61406586828701613f4d565b9150509250925092565b600080600080600060a0868803121561408757600080fd5b853567ffffffffffffffff8082111561409f57600080fd5b6140ab89838a01613ccc565b965060208801359150808211156140c157600080fd5b6140cd89838a01613ccc565b9550604088013591506140df82613be0565b9093506060870135906140f182613be0565b9092506080870135908082111561410757600080fd5b5061411488828901613ce5565b9150509295509295909350565b60008060008060006080868803121561413957600080fd5b853567ffffffffffffffff8082111561415157600080fd5b818801915088601f83011261416557600080fd5b81358181111561417457600080fd5b8960208260051b850101111561418957600080fd5b6020830197508096505061419f60208901613bf5565b94506141ad60408901613bf5565b9350606088013591508082111561410757600080fd5b7f4e487b7100000000000000000000000000000000000000000000000000000000600052602160045260246000fd5b8183823760009101908152919050565b7f4e487b7100000000000000000000000000000000000000000000000000000000600052603260045260246000fd5b7f4e487b7100000000000000000000000000000000000000000000000000000000600052601160045260246000fd5b80820180821115612e2257612e22614231565b80518015158114613c0057600080fd5b60006020828403121561429557600080fd5b611bb382614273565b6000602082840312156142b057600080fd5b5051919050565b6000602082840312156142c957600080fd5b8151611bb381613be0565b60008083357fffffffffffffffffffffffffffffffffffffffffffffffffffffffffffffffe184360301811261430957600080fd5b830160208101925035905067ffffffffffffffff81111561432957600080fd5b8060051b36038213156121a057600080fd5b803567ffffffffffffffff81168114613c0057600080fd5b600061018061436283846142d4565b82865280838701526101a092507f07ffffffffffffffffffffffffffffffffffffffffffffffffffffffffffffff81111561439c57600080fd5b60051b80828785013760208501356020870152604085013560408701526143c56060860161433b565b915067ffffffffffffffff8083166060880152806143e56080880161433b565b16608088015260a086013560a088015260c086013560c08801528061440c60e0880161433b565b1660e088015261010092508061442384880161433b565b1692870192909252610120858101359087015261014080860135908701526101609485013594860194909452509190920101919050565b60408152600061446d6040830185614353565b90506001600160a01b03831660208301529392505050565b600082357fffffffffffffffffffffffffffffffffffffffffffffffffffffffffffffffa18336030181126144b957600080fd5b90910192915050565b6000606083016144d283846142d4565b606086529182905290600090608086015b818310156145145783356144f681613be0565b6001600160a01b0316815260209384019360019390930192016144e3565b60208601356020880152604086013560408801528094505050505092915050565b60006001600160a01b038086168352808516602084015260606040840152833561455e81613be0565b8116606084015260208401356080840152604084013561457d81613be0565b1660a08301526145906060840184614485565b60a060c08401526145a56101008401826144c2565b90506145b46080850185614485565b7fffffffffffffffffffffffffffffffffffffffffffffffffffffffffffffffa08483030160e0850152612faf82826144c2565b6060815260006145fb6060830186614353565b828103602084015261460d8186614353565b9150506001600160a01b0383166040830152949350505050565b6040808252810183905260006060600585901b830181019083018683805b888110156146c7577fffffffffffffffffffffffffffffffffffffffffffffffffffffffffffffffa087860301845282357ffffffffffffffffffffffffffffffffffffffffffffffffffffffffffffffe818b36030181126146a5578283fd5b6146b1868c8301614353565b9550506020938401939290920191600101614645565b50505050809150506001600160a01b0383166020830152949350505050565b81810381811115612e2257612e22614231565b60008060006060848603121561470e57600080fd5b8351925060208401519150604084015190509250925092565b8051613c0081613be0565b8082028115828204841417612e2257612e22614231565b805160ff81168114613c0057600080fd5b6000806040838503121561476d57600080fd5b61477683614749565b9150602083015190509250929050565b7f4e487b7100000000000000000000000000000000000000000000000000000000600052601260045260246000fd5b6000826147eb577f4e487b7100000000000000000000000000000000000000000000000000000000600052601260045260246000fd5b500490565b60008151808452602080850194506020840160005b8381101561482a5781516001600160a01b031687529582019590820190600101614805565b509495945050505050565b85815284602082015260a06040820152600061485460a08301866147f0565b6001600160a01b0394909416606083015250608001529392505050565b600082601f83011261488257600080fd5b81516020614892613ee283613e6a565b8083825260208201915060208460051b8701019350868411156148b457600080fd5b602086015b848110156148d057805183529183019183016148b9565b509695505050505050565b600080604083850312156148ee57600080fd5b825167ffffffffffffffff8082111561490657600080fd5b61491286838701614871565b9350602085015191508082111561492857600080fd5b5061493585828601614871565b9150509250929050565b60005b8381101561495a578181015183820152602001614942565b50506000910152565b6000815180845261497b81602086016020860161493f565b601f01601f19169290920160200192915050565b602081526000611bb36020830184614963565b6000602082840312156149b457600080fd5b815167ffffffffffffffff8111156149cb57600080fd5b612fb484828501614871565b6000602082840312156149e957600080fd5b611bb382614749565b60008060408385031215614a0557600080fd5b505080516020909101519092909150565b6000815160608452614a2b60608501826147f0565b905060208301516020850152604083015160408501528091505092915050565b60006001600160a01b038086168352808516602084015260606040840152808451166060840152602084015160808401528060408501511660a084015250606083015160a060c0840152614aa3610100840182614a16565b905060808401517fffffffffffffffffffffffffffffffffffffffffffffffffffffffffffffffa08483030160e0850152612faf8282614a16565b60006001600160a01b038087168352808616602084015250836040830152608060608301526131e66080830184614963565b600082601f830112614b2157600080fd5b815167ffffffffffffffff811115614b3b57614b3b613dbd565b614b4e6020601f19601f84011601613e39565b818152846020838601011115614b6357600080fd5b612fb482602083016020870161493f565b600060208284031215614b8657600080fd5b815167ffffffffffffffff811115614b9d57600080fd5b612fb484828501614b10565b6040810160038410614be4577f4e487b7100000000000000000000000000000000000000000000000000000000600052602160045260246000fd5b9281526001600160a01b039190911660209091015290565b805160038110613c0057600080fd5b600060208284031215614c1d57600080fd5b815167ffffffffffffffff80821115614c3557600080fd5b908301906101408286031215614c4a57600080fd5b614c52613e15565b614c5b83614bfc565b8152614c6960208401614727565b60208201526040830151604082015260608301516060820152614c8e60808401614273565b608082015260a083015182811115614ca557600080fd5b614cb187828601614b10565b60a08301525060c083015182811115614cc957600080fd5b614cd587828601614b10565b60c08301525060e0838101519082015261010080840151908201526101209283015192810192909252509392505050565b7f4e487b7100000000000000000000000000000000000000000000000000000000600052600160045260246000fd5b600181815b80851115614d8e57817fffffffffffffffffffffffffffffffffffffffffffffffffffffffffffffffff04821115614d7457614d74614231565b80851615614d8157918102915b93841c9390800290614d3a565b509250929050565b600082614da557506001612e22565b81614db257506000612e22565b8160018114614dc85760028114614dd257614dee565b6001915050612e22565b60ff841115614de357614de3614231565b50506001821b612e22565b5060208310610133831016604e8410600b8410161715614e11575081810a612e22565b614e1b8383614d35565b807fffffffffffffffffffffffffffffffffffffffffffffffffffffffffffffffff04821115614e4d57614e4d614231565b029392505050565b6000611bb38383614d96565b60008251614e7381846020870161493f565b9190910192915050565b600081614e8c57614e8c614231565b507fffffffffffffffffffffffffffffffffffffffffffffffffffffffffffffffff019056fea164736f6c6343000817000a",
  "linkReferences": {},
  "deployedLinkReferences": {}
}