{
  "_format": "hh-sol-artifact-1",
  "contractName": "Challenger",
  "sourceName": "liquidator/contracts/Challenger.sol",
  "abi": [
    {
      "inputs": [
        {
          "internalType": "address",
          "name": "_flashLender",
          "type": "address"
        },
        {
          "internalType": "address",
          "name": "_dex",
          "type": "address"
        }
      ],
      "stateMutability": "nonpayable",
      "type": "constructor"
    },
    {
      "anonymous": false,
      "inputs": [
        {
          "indexed": true,
          "internalType": "address",
          "name": "previousOwner",
          "type": "address"
        },
        {
          "indexed": true,
          "internalType": "address",
          "name": "newOwner",
          "type": "address"
        }
      ],
      "name": "OwnershipTransferred",
      "type": "event"
    },
    {
      "inputs": [],
      "name": "dex",
      "outputs": [
        {
          "internalType": "address",
          "name": "",
          "type": "address"
        }
      ],
      "stateMutability": "view",
      "type": "function"
    },
    {
      "inputs": [
        {
          "components": [
            {
              "internalType": "bytes32[]",
              "name": "merkleProof",
              "type": "bytes32[]"
            },
            {
              "components": [
                {
                  "internalType": "bytes32",
                  "name": "attestationType",
                  "type": "bytes32"
                },
                {
                  "internalType": "bytes32",
                  "name": "sourceId",
                  "type": "bytes32"
                },
                {
                  "internalType": "uint64",
                  "name": "votingRound",
                  "type": "uint64"
                },
                {
                  "internalType": "uint64",
                  "name": "lowestUsedTimestamp",
                  "type": "uint64"
                },
                {
                  "components": [
                    {
                      "internalType": "bytes32",
                      "name": "transactionId",
                      "type": "bytes32"
                    },
                    {
                      "internalType": "bytes32",
                      "name": "sourceAddressIndicator",
                      "type": "bytes32"
                    }
                  ],
                  "internalType": "struct BalanceDecreasingTransaction.RequestBody",
                  "name": "requestBody",
                  "type": "tuple"
                },
                {
                  "components": [
                    {
                      "internalType": "uint64",
                      "name": "blockNumber",
                      "type": "uint64"
                    },
                    {
                      "internalType": "uint64",
                      "name": "blockTimestamp",
                      "type": "uint64"
                    },
                    {
                      "internalType": "bytes32",
                      "name": "sourceAddressHash",
                      "type": "bytes32"
                    },
                    {
                      "internalType": "int256",
                      "name": "spentAmount",
                      "type": "int256"
                    },
                    {
                      "internalType": "bytes32",
                      "name": "standardPaymentReference",
                      "type": "bytes32"
                    }
                  ],
                  "internalType": "struct BalanceDecreasingTransaction.ResponseBody",
                  "name": "responseBody",
                  "type": "tuple"
                }
              ],
              "internalType": "struct BalanceDecreasingTransaction.Response",
              "name": "data",
              "type": "tuple"
            }
          ],
          "internalType": "struct BalanceDecreasingTransaction.Proof",
          "name": "_payment1",
          "type": "tuple"
        },
        {
          "components": [
            {
              "internalType": "bytes32[]",
              "name": "merkleProof",
              "type": "bytes32[]"
            },
            {
              "components": [
                {
                  "internalType": "bytes32",
                  "name": "attestationType",
                  "type": "bytes32"
                },
                {
                  "internalType": "bytes32",
                  "name": "sourceId",
                  "type": "bytes32"
                },
                {
                  "internalType": "uint64",
                  "name": "votingRound",
                  "type": "uint64"
                },
                {
                  "internalType": "uint64",
                  "name": "lowestUsedTimestamp",
                  "type": "uint64"
                },
                {
                  "components": [
                    {
                      "internalType": "bytes32",
                      "name": "transactionId",
                      "type": "bytes32"
                    },
                    {
                      "internalType": "bytes32",
                      "name": "sourceAddressIndicator",
                      "type": "bytes32"
                    }
                  ],
                  "internalType": "struct BalanceDecreasingTransaction.RequestBody",
                  "name": "requestBody",
                  "type": "tuple"
                },
                {
                  "components": [
                    {
                      "internalType": "uint64",
                      "name": "blockNumber",
                      "type": "uint64"
                    },
                    {
                      "internalType": "uint64",
                      "name": "blockTimestamp",
                      "type": "uint64"
                    },
                    {
                      "internalType": "bytes32",
                      "name": "sourceAddressHash",
                      "type": "bytes32"
                    },
                    {
                      "internalType": "int256",
                      "name": "spentAmount",
                      "type": "int256"
                    },
                    {
                      "internalType": "bytes32",
                      "name": "standardPaymentReference",
                      "type": "bytes32"
                    }
                  ],
                  "internalType": "struct BalanceDecreasingTransaction.ResponseBody",
                  "name": "responseBody",
                  "type": "tuple"
                }
              ],
              "internalType": "struct BalanceDecreasingTransaction.Response",
              "name": "data",
              "type": "tuple"
            }
          ],
          "internalType": "struct BalanceDecreasingTransaction.Proof",
          "name": "_payment2",
          "type": "tuple"
        },
        {
          "internalType": "address",
          "name": "_agentVault",
          "type": "address"
        },
        {
          "internalType": "uint256",
          "name": "_vaultToFAssetMinDexPriceMul",
          "type": "uint256"
        },
        {
          "internalType": "uint256",
          "name": "_vaultToFAssetMinDexPriceDiv",
          "type": "uint256"
        },
        {
          "internalType": "uint256",
          "name": "_poolToVaultMinDexPriceMul",
          "type": "uint256"
        },
        {
          "internalType": "uint256",
          "name": "_poolToVaultMinDexPriceDiv",
          "type": "uint256"
        },
        {
          "internalType": "address",
          "name": "_flashLender",
          "type": "address"
        },
        {
          "internalType": "address",
          "name": "_dex",
          "type": "address"
        },
        {
          "internalType": "address[]",
          "name": "_vaultToFAssetDexPath",
          "type": "address[]"
        },
        {
          "internalType": "address[]",
          "name": "_poolToVaultDexPath",
          "type": "address[]"
        }
      ],
      "name": "doublePaymentChallenge",
      "outputs": [],
      "stateMutability": "nonpayable",
      "type": "function"
    },
    {
      "inputs": [],
      "name": "flashLender",
      "outputs": [
        {
          "internalType": "address",
          "name": "",
          "type": "address"
        }
      ],
      "stateMutability": "view",
      "type": "function"
    },
    {
      "inputs": [
        {
          "components": [
            {
              "internalType": "bytes32[]",
              "name": "merkleProof",
              "type": "bytes32[]"
            },
            {
              "components": [
                {
                  "internalType": "bytes32",
                  "name": "attestationType",
                  "type": "bytes32"
                },
                {
                  "internalType": "bytes32",
                  "name": "sourceId",
                  "type": "bytes32"
                },
                {
                  "internalType": "uint64",
                  "name": "votingRound",
                  "type": "uint64"
                },
                {
                  "internalType": "uint64",
                  "name": "lowestUsedTimestamp",
                  "type": "uint64"
                },
                {
                  "components": [
                    {
                      "internalType": "bytes32",
                      "name": "transactionId",
                      "type": "bytes32"
                    },
                    {
                      "internalType": "bytes32",
                      "name": "sourceAddressIndicator",
                      "type": "bytes32"
                    }
                  ],
                  "internalType": "struct BalanceDecreasingTransaction.RequestBody",
                  "name": "requestBody",
                  "type": "tuple"
                },
                {
                  "components": [
                    {
                      "internalType": "uint64",
                      "name": "blockNumber",
                      "type": "uint64"
                    },
                    {
                      "internalType": "uint64",
                      "name": "blockTimestamp",
                      "type": "uint64"
                    },
                    {
                      "internalType": "bytes32",
                      "name": "sourceAddressHash",
                      "type": "bytes32"
                    },
                    {
                      "internalType": "int256",
                      "name": "spentAmount",
                      "type": "int256"
                    },
                    {
                      "internalType": "bytes32",
                      "name": "standardPaymentReference",
                      "type": "bytes32"
                    }
                  ],
                  "internalType": "struct BalanceDecreasingTransaction.ResponseBody",
                  "name": "responseBody",
                  "type": "tuple"
                }
              ],
              "internalType": "struct BalanceDecreasingTransaction.Response",
              "name": "data",
              "type": "tuple"
            }
          ],
          "internalType": "struct BalanceDecreasingTransaction.Proof[]",
          "name": "_payments",
          "type": "tuple[]"
        },
        {
          "internalType": "address",
          "name": "_agentVault",
          "type": "address"
        },
        {
          "internalType": "uint256",
          "name": "_vaultToFAssetMinDexPriceMul",
          "type": "uint256"
        },
        {
          "internalType": "uint256",
          "name": "_vaultToFAssetMinDexPriceDiv",
          "type": "uint256"
        },
        {
          "internalType": "uint256",
          "name": "_poolToVaultMinDexPriceMul",
          "type": "uint256"
        },
        {
          "internalType": "uint256",
          "name": "_poolToVaultMinDexPriceDiv",
          "type": "uint256"
        },
        {
          "internalType": "address",
          "name": "_flashLender",
          "type": "address"
        },
        {
          "internalType": "address",
          "name": "_dex",
          "type": "address"
        },
        {
          "internalType": "address[]",
          "name": "_vaultToFAssetDexPath",
          "type": "address[]"
        },
        {
          "internalType": "address[]",
          "name": "_poolToVaultDexPath",
          "type": "address[]"
        }
      ],
      "name": "freeBalanceNegativeChallenge",
      "outputs": [],
      "stateMutability": "nonpayable",
      "type": "function"
    },
    {
      "inputs": [
        {
          "components": [
            {
              "internalType": "bytes32[]",
              "name": "merkleProof",
              "type": "bytes32[]"
            },
            {
              "components": [
                {
                  "internalType": "bytes32",
                  "name": "attestationType",
                  "type": "bytes32"
                },
                {
                  "internalType": "bytes32",
                  "name": "sourceId",
                  "type": "bytes32"
                },
                {
                  "internalType": "uint64",
                  "name": "votingRound",
                  "type": "uint64"
                },
                {
                  "internalType": "uint64",
                  "name": "lowestUsedTimestamp",
                  "type": "uint64"
                },
                {
                  "components": [
                    {
                      "internalType": "bytes32",
                      "name": "transactionId",
                      "type": "bytes32"
                    },
                    {
                      "internalType": "bytes32",
                      "name": "sourceAddressIndicator",
                      "type": "bytes32"
                    }
                  ],
                  "internalType": "struct BalanceDecreasingTransaction.RequestBody",
                  "name": "requestBody",
                  "type": "tuple"
                },
                {
                  "components": [
                    {
                      "internalType": "uint64",
                      "name": "blockNumber",
                      "type": "uint64"
                    },
                    {
                      "internalType": "uint64",
                      "name": "blockTimestamp",
                      "type": "uint64"
                    },
                    {
                      "internalType": "bytes32",
                      "name": "sourceAddressHash",
                      "type": "bytes32"
                    },
                    {
                      "internalType": "int256",
                      "name": "spentAmount",
                      "type": "int256"
                    },
                    {
                      "internalType": "bytes32",
                      "name": "standardPaymentReference",
                      "type": "bytes32"
                    }
                  ],
                  "internalType": "struct BalanceDecreasingTransaction.ResponseBody",
                  "name": "responseBody",
                  "type": "tuple"
                }
              ],
              "internalType": "struct BalanceDecreasingTransaction.Response",
              "name": "data",
              "type": "tuple"
            }
          ],
          "internalType": "struct BalanceDecreasingTransaction.Proof",
          "name": "_transaction",
          "type": "tuple"
        },
        {
          "internalType": "address",
          "name": "_agentVault",
          "type": "address"
        },
        {
          "internalType": "uint256",
          "name": "_vaultToFAssetMinDexPriceMul",
          "type": "uint256"
        },
        {
          "internalType": "uint256",
          "name": "_vaultToFAssetMinDexPriceDiv",
          "type": "uint256"
        },
        {
          "internalType": "uint256",
          "name": "_poolToVaultMinDexPriceMul",
          "type": "uint256"
        },
        {
          "internalType": "uint256",
          "name": "_poolToVaultMinDexPriceDiv",
          "type": "uint256"
        },
        {
          "internalType": "address",
          "name": "_flashLender",
          "type": "address"
        },
        {
          "internalType": "address",
          "name": "_dex",
          "type": "address"
        },
        {
          "internalType": "address[]",
          "name": "_vaultToFAssetDexPath",
          "type": "address[]"
        },
        {
          "internalType": "address[]",
          "name": "_poolToVaultDexPath",
          "type": "address[]"
        }
      ],
      "name": "illegalPaymentChallenge",
      "outputs": [],
      "stateMutability": "nonpayable",
      "type": "function"
    },
    {
      "inputs": [
        {
          "internalType": "uint256",
          "name": "_maxSlippageBipsDex1",
          "type": "uint256"
        },
        {
          "internalType": "uint256",
          "name": "_maxSlippageBipsDex2",
          "type": "uint256"
        },
        {
          "internalType": "address",
          "name": "_agentVault",
          "type": "address"
        }
      ],
      "name": "maxSlippageToMinPrices",
      "outputs": [
        {
          "internalType": "uint256",
          "name": "",
          "type": "uint256"
        },
        {
          "internalType": "uint256",
          "name": "",
          "type": "uint256"
        },
        {
          "internalType": "uint256",
          "name": "",
          "type": "uint256"
        },
        {
          "internalType": "uint256",
          "name": "",
          "type": "uint256"
        }
      ],
      "stateMutability": "view",
      "type": "function"
    },
    {
      "inputs": [
        {
          "internalType": "address",
          "name": "",
          "type": "address"
        },
        {
          "internalType": "address",
          "name": "_token",
          "type": "address"
        },
        {
          "internalType": "uint256",
          "name": "_amount",
          "type": "uint256"
        },
        {
          "internalType": "uint256",
          "name": "_fee",
          "type": "uint256"
        },
        {
          "internalType": "bytes",
          "name": "_data",
          "type": "bytes"
        }
      ],
      "name": "onFlashLoan",
      "outputs": [
        {
          "internalType": "bytes32",
          "name": "",
          "type": "bytes32"
        }
      ],
      "stateMutability": "nonpayable",
      "type": "function"
    },
    {
      "inputs": [],
      "name": "owner",
      "outputs": [
        {
          "internalType": "address",
          "name": "",
          "type": "address"
        }
      ],
      "stateMutability": "view",
      "type": "function"
    },
    {
      "inputs": [],
      "name": "renounceOwnership",
      "outputs": [],
      "stateMutability": "nonpayable",
      "type": "function"
    },
    {
      "inputs": [
        {
          "internalType": "address",
          "name": "_agentVault",
          "type": "address"
        },
        {
          "internalType": "address",
          "name": "_profitTo",
          "type": "address"
        },
        {
          "internalType": "uint256",
          "name": "_vaultToFAssetMinDexPriceMul",
          "type": "uint256"
        },
        {
          "internalType": "uint256",
          "name": "_vaultToFAssetMinDexPriceDiv",
          "type": "uint256"
        },
        {
          "internalType": "uint256",
          "name": "_poolToVaultMinDexPriceMul",
          "type": "uint256"
        },
        {
          "internalType": "uint256",
          "name": "_poolToVaultMinDexPriceDiv",
          "type": "uint256"
        },
        {
          "internalType": "address",
          "name": "_flashLender",
          "type": "address"
        },
        {
          "internalType": "address",
          "name": "_dex",
          "type": "address"
        },
        {
          "internalType": "address[]",
          "name": "_vaultToFAssetDexPath",
          "type": "address[]"
        },
        {
          "internalType": "address[]",
          "name": "_poolToVaultDexPath",
          "type": "address[]"
        }
      ],
      "name": "runArbitrage",
      "outputs": [],
      "stateMutability": "nonpayable",
      "type": "function"
    },
    {
      "inputs": [
        {
          "internalType": "address",
          "name": "newOwner",
          "type": "address"
        }
      ],
      "name": "transferOwnership",
      "outputs": [],
      "stateMutability": "nonpayable",
      "type": "function"
    },
    {
      "inputs": [],
      "name": "withderawNat",
      "outputs": [],
      "stateMutability": "nonpayable",
      "type": "function"
    },
    {
      "inputs": [
        {
          "internalType": "contract IERC20",
          "name": "token",
          "type": "address"
        }
      ],
      "name": "withdrawToken",
      "outputs": [],
      "stateMutability": "nonpayable",
      "type": "function"
    }
  ],
  "bytecode": "0x60c06040523480156200001157600080fd5b506040516200504d3803806200504d8339810160408190526200003491620000c9565b6001600160a01b03828116608052811660a05262000052336200005a565b505062000101565b600180546001600160a01b038381166001600160a01b0319831681179093556040519116919082907f8be0079c531659141344cd1fd0a4f28419497f9722a3daafe3b4186f6b6457e090600090a35050565b80516001600160a01b0381168114620000c457600080fd5b919050565b60008060408385031215620000dd57600080fd5b620000e883620000ac565b9150620000f860208401620000ac565b90509250929050565b60805160a051614f116200013c6000396000818161012c01528181610a5801526116890152600081816101bd01526116570152614f116000f3fe608060405234801561001057600080fd5b50600436106100df5760003560e01c8063894760691161008c578063a771445811610066578063a7714458146101b8578063ae405860146101df578063ed9d4d8614610212578063f2fde38b1461022557600080fd5b806389476069146101815780638da5cb5b1461019457806390b390fe146101a557600080fd5b8063692058c2116100bd578063692058c214610127578063715018a61461016657806378baa9e01461016e57600080fd5b80630532831f146100e457806323e30c8b146100f95780632491576f1461011f575b600080fd5b6100f76100f2366004613d09565b610238565b005b61010c610107366004613dec565b6103dc565b6040519081526020015b60405180910390f35b6100f76106f6565b61014e7f000000000000000000000000000000000000000000000000000000000000000081565b6040516001600160a01b039091168152602001610116565b6100f761073a565b6100f761017c366004613edb565b61074e565b6100f761018f366004613fc7565b6108f5565b6001546001600160a01b031661014e565b6100f76101b3366004613fe4565b610999565b61014e7f000000000000000000000000000000000000000000000000000000000000000081565b6101f26101ed3660046140df565b610a51565b604080519485526020850193909352918301526060820152608001610116565b6100f7610220366004614118565b610acb565b6100f7610233366004613fc7565b610b5e565b610240610beb565b6000896001600160a01b03166394217ad16040518163ffffffff1660e01b8152600401602060405180830381865afa158015610280573d6000803e3d6000fd5b505050506040513d601f19601f820116820180604052508101906102a491906141a5565b6040517f66a370460000000000000000000000000000000000000000000000000000000081529091506001600160a01b038216906366a37046906102ee908e908e9060040161432c565b600060405180830381600087803b15801561030857600080fd5b505af115801561031c573d6000803e3d6000fd5b50506040517fed9d4d8600000000000000000000000000000000000000000000000000000000815230925063ed9d4d86915061036e908d9084908e908e908e908e908e908e908e908e9060040161439c565b600060405180830381600087803b15801561038857600080fd5b505af1925050508015610399575060015b6103cf573d8080156103c7576040519150601f19603f3d011682016040523d82523d6000602084013e6103cc565b606091505b50505b5050505050505050505050565b6000600160005460ff1660028111156103f7576103f7614418565b1461046f5760405162461bcd60e51b815260206004820152602d60248201527f4c697175696461746f723a20466c617368206c6f616e207769746820696e766160448201527f6c696420696e69746961746f720000000000000000000000000000000000000060648201526084015b60405180910390fd5b600080547fffffffffffffffffffffffffffffffffffffffffffffffffffffffffffffff001660021790556040516104aa9084908490614447565b604051908190039020600054610100900460081b7fffffffffffffffffffffffffffffffffffffffffffffffffffffffffffffff009081169116146105575760405162461bcd60e51b815260206004820152602c60248201527f4c697175696461746f723a20466c617368206c656e646572207061737365642060448201527f696e76616c6964206461746100000000000000000000000000000000000000006064820152608401610466565b60008080610567858701876144d0565b925092509250806040015160000151600081518110610588576105886145ae565b60200260200101516001600160a01b0316896001600160a01b0316146106165760405162461bcd60e51b815260206004820152602d60248201527f4c697175696461746f723a20466c617368206c656e646572207061737365642060448201527f696e76616c696420746f6b656e000000000000000000000000000000000000006064820152608401610466565b61062288848484610c45565b80516001600160a01b038a169063095ea7b39061063f8a8c61460c565b6040517fffffffff0000000000000000000000000000000000000000000000000000000060e085901b1681526001600160a01b03909216600483015260248201526044016020604051808303816000875af11580156106a2573d6000803e3d6000fd5b505050506040513d601f19601f820116820180604052508101906106c6919061462f565b507f439148f0bbc682ca079e46d6e2c2f0c1e3b820f1a291b069d8882abf8cf18dd99a9950505050505050505050565b6106fe610beb565b6001546040516001600160a01b03909116904780156108fc02916000818181858888f19350505050158015610737573d6000803e3d6000fd5b50565b610742610beb565b61074c6000611030565b565b610756610beb565b6000896001600160a01b03166394217ad16040518163ffffffff1660e01b8152600401602060405180830381865afa158015610796573d6000803e3d6000fd5b505050506040513d601f19601f820116820180604052508101906107ba91906141a5565b6040517f7e7bfdc60000000000000000000000000000000000000000000000000000000081529091506001600160a01b03821690637e7bfdc690610806908f908f908f9060040161464a565b600060405180830381600087803b15801561082057600080fd5b505af1158015610834573d6000803e3d6000fd5b50506040517fed9d4d8600000000000000000000000000000000000000000000000000000000815230925063ed9d4d869150610886908d9084908e908e908e908e908e908e908e908e9060040161439c565b600060405180830381600087803b1580156108a057600080fd5b505af19250505080156108b1575060015b6108e7573d8080156108df576040519150601f19603f3d011682016040523d82523d6000602084013e6108e4565b606091505b50505b505050505050505050505050565b6108fd610beb565b610737816109136001546001600160a01b031690565b6040517f70a082310000000000000000000000000000000000000000000000000000000081523060048201526001600160a01b038516906370a0823190602401602060405180830381865afa158015610970573d6000803e3d6000fd5b505050506040513d601f19601f820116820180604052508101906109949190614709565b61109a565b6109a1610beb565b6000896001600160a01b03166394217ad16040518163ffffffff1660e01b8152600401602060405180830381865afa1580156109e1573d6000803e3d6000fd5b505050506040513d601f19601f82011682018060405250810190610a0591906141a5565b6040517feb81ca630000000000000000000000000000000000000000000000000000000081529091506001600160a01b0382169063eb81ca6390610806908f908f908f90600401614722565b60008080807f000000000000000000000000000000000000000000000000000000000000000081610a818761111f565b9050600080610a9a848c856060015186604001516115f0565b91509150600080610ab5868d876080015188606001516115f0565b949e939d509b5092995090975050505050505050565b333014610b405760405162461bcd60e51b815260206004820152602660248201527f4368616c6c656e6765723a2043616c6c696e6720616e20696e7465726e616c2060448201527f6d6574686f6400000000000000000000000000000000000000000000000000006064820152608401610466565b610b528a8a8a8a8a8a8a8a8a8a611647565b50505050505050505050565b610b66610beb565b6001600160a01b038116610be25760405162461bcd60e51b815260206004820152602660248201527f4f776e61626c653a206e6577206f776e657220697320746865207a65726f206160448201527f64647265737300000000000000000000000000000000000000000000000000006064820152608401610466565b61073781611030565b6001546001600160a01b0316331461074c5760405162461bcd60e51b815260206004820181905260248201527f4f776e61626c653a2063616c6c6572206973206e6f7420746865206f776e65726044820152606401610466565b6060806000836040015160000151600081518110610c6557610c656145ae565b602002602001015190506000846060015160000151600081518110610c8c57610c8c6145ae565b602090810291909101810151908601516040517f095ea7b30000000000000000000000000000000000000000000000000000000081526001600160a01b039182166004820152602481018b905291925083169063095ea7b3906044016020604051808303816000875af1158015610d07573d6000803e3d6000fd5b505050506040513d601f19601f82011682018060405250810190610d2b919061462f565b50610d6988610d4b8a886040015160200151896040015160400151611721565b60408801515160208901516001600160a01b03169291903042611742565b60208701516040517f095ea7b30000000000000000000000000000000000000000000000000000000081526001600160a01b039182166004820152600060248201529196509194509083169063095ea7b3906044016020604051808303816000875af1158015610ddd573d6000803e3d6000fd5b505050506040513d601f19601f82011682018060405250810190610e01919061462f565b5060008460018651610e139190614761565b81518110610e2357610e236145ae565b60209081029190910101516040517fbcbaf4870000000000000000000000000000000000000000000000000000000081526001600160a01b038981166004830152602482018390529192506000918a169063bcbaf487906044016060604051808303816000875af1158015610e9c573d6000803e3d6000fd5b505050506040513d601f19601f82011682018060405250810190610ec09190614774565b92505081159050610b525760208701516040517f095ea7b30000000000000000000000000000000000000000000000000000000081526001600160a01b039182166004820152602481018390529084169063095ea7b3906044016020604051808303816000875af1158015610f39573d6000803e3d6000fd5b505050506040513d601f19601f82011682018060405250810190610f5d919061462f565b50610f9b81610f7d838a60600151602001518b6060015160400151611721565b60608a01515160208b01516001600160a01b03169291903042611742565b60208901516040517f095ea7b30000000000000000000000000000000000000000000000000000000081526001600160a01b039182166004820152600060248201529198508516915063095ea7b3906044016020604051808303816000875af115801561100c573d6000803e3d6000fd5b505050506040513d601f19601f820116820180604052508101906103cf919061462f565b600180546001600160a01b038381167fffffffffffffffffffffffff0000000000000000000000000000000000000000831681179093556040519116919082907f8be0079c531659141344cd1fd0a4f28419497f9722a3daafe3b4186f6b6457e090600090a35050565b604080516001600160a01b038416602482015260448082018490528251808303909101815260649091019091526020810180517bffffffffffffffffffffffffffffffffffffffffffffffffffffffff167fa9059cbb0000000000000000000000000000000000000000000000000000000017905261111a90849061199d565b505050565b6111cc60405180610200016040528060006001600160a01b0316815260200160006001600160a01b0316815260200160006001600160a01b0316815260200160006001600160a01b0316815260200160006001600160a01b0316815260200160008152602001600081526020016000815260200160008152602001600081526020016000815260200160008152602001606081526020016060815260200160608152602001606081525090565b6000826001600160a01b03166394217ad16040518163ffffffff1660e01b8152600401602060405180830381865afa15801561120c573d6000803e3d6000fd5b505050506040513d601f19601f8201168201806040525081019061123091906141a5565b6001600160a01b03808216808552908516602080860191909152604080517f7c7db1a500000000000000000000000000000000000000000000000000000000815290519394509192637c7db1a59260048082019392918290030181865afa15801561129f573d6000803e3d6000fd5b505050506040513d601f19601f820116820180604052508101906112c391906141a5565b82604001906001600160a01b031690816001600160a01b031681525050806001600160a01b031663b5a488a66040518163ffffffff1660e01b8152600401602060405180830381865afa15801561131e573d6000803e3d6000fd5b505050506040513d601f19601f8201168201806040525081019061134291906141a5565b82608001906001600160a01b031690816001600160a01b031681525050806001600160a01b031663531090f36040518163ffffffff1660e01b8152600401602060405180830381865afa15801561139d573d6000803e3d6000fd5b505050506040513d601f19601f820116820180604052508101906113c19190614709565b82610100018181525050806001600160a01b031663410418f16040518163ffffffff1660e01b8152600401602060405180830381865afa158015611409573d6000803e3d6000fd5b505050506040513d601f19601f8201168201806040525081019061142d9190614709565b6101208301526040517f5f0169060000000000000000000000000000000000000000000000000000000081526001600160a01b038481166004830152821690635f01690690602401602060405180830381865afa158015611492573d6000803e3d6000fd5b505050506040513d601f19601f820116820180604052508101906114b691906141a5565b6001600160a01b0390811660608401526040517f529cc2b900000000000000000000000000000000000000000000000000000000815284821660048201529082169063529cc2b990602401606060405180830381865afa15801561151e573d6000803e3d6000fd5b505050506040513d601f19601f820116820180604052508101906115429190614774565b60a085015260e084015260c0830152604080517f49b5fdb400000000000000000000000000000000000000000000000000000000815290516115de9184916001600160a01b038516916349b5fdb49160048083019260209291908290030181865afa1580156115b5573d6000803e3d6000fd5b505050506040513d601f19601f820116820180604052508101906115d991906141a5565b611a85565b61016084015261014083015250919050565b60008080806116096001600160a01b0389168787611d2f565b9092509050600061161c88612710614761565b61162690836147ad565b90506000611636846127106147ad565b919a91995090975050505050505050565b6001600160a01b038416611679577f000000000000000000000000000000000000000000000000000000000000000093505b6001600160a01b0383166116ab577f000000000000000000000000000000000000000000000000000000000000000092505b60006040518060800160405280866001600160a01b03168152602001856001600160a01b0316815260200160405180606001604052808681526020018c81526020018b815250815260200160405180606001604052808581526020018a81526020018981525081525090506103cf8b8b83611f58565b60008161172e84866147ad565b61173891906147f3565b90505b9392505050565b606080876001600160a01b03166338ed173988888888886040518663ffffffff1660e01b815260040161177995949392919061482e565b6000604051808303816000875af19250505080156117b957506040513d6000823e601f3d908101601f191682016040526117b691908101906148c9565b60015b61198c573d8080156117e7576040519150601f19603f3d011682016040523d82523d6000602084013e6117ec565b606091505b508051156117f9826123b6565b906118175760405162461bcd60e51b8152600401610466919061497d565b506040517f38ed17390000000000000000000000000000000000000000000000000000000081526001600160a01b038a16906338ed173990611865908b908b908b908b908b9060040161482e565b6000604051808303816000875af19250505080156118a557506040513d6000823e601f3d908101601f191682016040526118a29190810190614990565b60015b611972573d8080156118d3576040519150601f19603f3d011682016040523d82523d6000602084013e6118d8565b606091505b508051156118e5826123b6565b906119035760405162461bcd60e51b8152600401610466919061497d565b5060405162461bcd60e51b815260206004820152602a60248201527f556e697377617056323a20737761704578616374546f6b656e73466f72546f6b60448201527f656e73206661696c6564000000000000000000000000000000000000000000006064820152608401610466565b604080516000815260208101909152935091506119929050565b90925090505b965096945050505050565b60006119f2826040518060400160405280602081526020017f5361666545524332303a206c6f772d6c6576656c2063616c6c206661696c6564815250856001600160a01b031661249e9092919063ffffffff16565b9050805160001480611a13575080806020019051810190611a13919061462f565b61111a5760405162461bcd60e51b815260206004820152602a60248201527f5361666545524332303a204552433230206f7065726174696f6e20646964206e60448201527f6f742073756363656564000000000000000000000000000000000000000000006064820152608401610466565b6000806000611aa18560000151866060015187608001516124ad565b80516040517f524f388900000000000000000000000000000000000000000000000000000000815291925060009182916001600160a01b0388169163524f388991611aee9160040161497d565b606060405180830381865afa158015611b0b573d6000803e3d6000fd5b505050506040513d601f19601f82011682018060405250810190611b2f9190614774565b9250509150600080876001600160a01b031663524f388986602001516040518263ffffffff1660e01b8152600401611b67919061497d565b606060405180830381865afa158015611b84573d6000803e3d6000fd5b505050506040513d601f19601f82011682018060405250810190611ba89190614774565b9250509150600080896001600160a01b031663524f388988604001516040518263ffffffff1660e01b8152600401611be0919061497d565b606060405180830381865afa158015611bfd573d6000803e3d6000fd5b505050506040513d601f19601f82011682018060405250810190611c219190614774565b9250509150611ca18b606001516001600160a01b031663313ce5676040518163ffffffff1660e01b8152600401602060405180830381865afa158015611c6b573d6000803e3d6000fd5b505050506040513d601f19601f82011682018060405250810190611c8f91906149d6565b60ff1685858e61012001518a8a6125fc565b611d1c8c608001516001600160a01b031663313ce5676040518163ffffffff1660e01b8152600401602060405180830381865afa158015611ce6573d6000803e3d6000fd5b505050506040513d601f19601f82011682018060405250810190611d0a91906149d6565b60ff1684848f61012001518b8b6125fc565b98509850505050505050505b9250929050565b6040517fd52bb6f40000000000000000000000000000000000000000000000000000000081526001600160a01b0383811660048301528281166024830152600091829186169063d52bb6f4906044016040805180830381865afa925050508015611db6575060408051601f3d908101601f19168201909252611db3918101906149f1565b60015b611f4a573d808015611de4576040519150601f19603f3d011682016040523d82523d6000602084013e611de9565b606091505b50805115611df6826123b6565b90611e145760405162461bcd60e51b8152600401610466919061497d565b506040517f7f6f21780000000000000000000000000000000000000000000000000000000081526001600160a01b0386811660048301528581166024830152871690637f6f2178906044016040805180830381865afa925050508015611e97575060408051601f3d908101601f19168201909252611e94918101906149f1565b60015b611f3e573d808015611ec5576040519150601f19603f3d011682016040523d82523d6000602084013e611eca565b606091505b50805115611ed7826123b6565b90611ef55760405162461bcd60e51b8152600401610466919061497d565b5060405162461bcd60e51b815260206004820152601d60248201527f556e697377617056323a206765745265736572766573206661696c65640000006044820152606401610466565b9093509150611f509050565b90925090505b935093915050565b6000836001600160a01b03166394217ad16040518163ffffffff1660e01b8152600401602060405180830381865afa158015611f98573d6000803e3d6000fd5b505050506040513d601f19601f82011682018060405250810190611fbc91906141a5565b6040517fe1c501000000000000000000000000000000000000000000000000000000000081526001600160a01b0386811660048301529192509082169063e1c501009060240160408051808303816000875af192505050801561203c575060408051601f3d908101601f1916820190925261203991810190614a15565b60015b156120445750505b600061204f8561111f565b905061206c8360400151600001518260600151836040015161266c565b6040840151526060808401515160808301519183015161208c929061266c565b60608401515260208301516040840151516120a7919061274e565b61018082015260208301516060840151516120c2919061274e565b6101a0820152604083810151516101c0830152606080850151516101e084015282015190517f70a082310000000000000000000000000000000000000000000000000000000081523060048201526000916001600160a01b0316906370a0823190602401602060405180830381865afa158015612143573d6000803e3d6000fd5b505050506040513d601f19601f820116820180604052508101906121679190614709565b60808301516040517f70a082310000000000000000000000000000000000000000000000000000000081523060048201529192506000916001600160a01b03909116906370a0823190602401602060405180830381865afa1580156121d0573d6000803e3d6000fd5b505050506040513d601f19601f820116820180604052508101906121f49190614709565b90506122008584612882565b60608301516040517f70a082310000000000000000000000000000000000000000000000000000000081523060048201526000916001600160a01b0316906370a0823190602401602060405180830381865afa158015612264573d6000803e3d6000fd5b505050506040513d601f19601f820116820180604052508101906122889190614709565b60808501516040517f70a082310000000000000000000000000000000000000000000000000000000081523060048201529192506000916001600160a01b03909116906370a0823190602401602060405180830381865afa1580156122f1573d6000803e3d6000fd5b505050506040513d601f19601f820116820180604052508101906123159190614709565b90508382101580156123275750828110155b6123995760405162461bcd60e51b815260206004820152603b60248201527f4c697175696461746f723a204e656761746976652070726f66697420776f756c60448201527f6420646563726561736520636f6e74726163742062616c616e636500000000006064820152608401610466565b60006123a58584614761565b9050610b5286606001518a8361109a565b60606000600483516123c89190614761565b67ffffffffffffffff8111156123e0576123e0613bc0565b6040519080825280601f01601f19166020018201604052801561240a576020820181803683370190505b50905060005b8151811015612489578361242582600461460c565b81518110612435576124356145ae565b602001015160f81c60f81b828281518110612452576124526145ae565b60200101907effffffffffffffffffffffffffffffffffffffffffffffffffffffffffffff1916908160001a905350600101612410565b508080602001905181019061173b9190614aa5565b60606117388484600085612d3c565b6124d160405180606001604052806060815260200160608152602001606081525090565b6040517f4610bc230000000000000000000000000000000000000000000000000000000081526000906001600160a01b03861690634610bc239061251c906002908890600401614ada565b600060405180830381865afa158015612539573d6000803e3d6000fd5b505050506040513d6000823e601f3d908101601f191682016040526125619190810190614b3c565b90506000856001600160a01b0316634610bc236001866040518363ffffffff1660e01b8152600401612594929190614ada565b600060405180830381865afa1580156125b1573d6000803e3d6000fd5b505050506040513d6000823e601f3d908101601f191682016040526125d99190810190614b3c565b60a0830151845260c0928301516020850152909101516040830152509392505050565b600080600961260b878a61460c565b612615919061460c565b90506000612623848761460c565b90508082101561263557612635614c37565b876126408284614761565b61264b90600a614d86565b61265590876147ad565b61265f91906147f3565b9998505050505050505050565b60608351600003612688576126818383612e30565b905061173b565b826001600160a01b0316846000815181106126a5576126a56145ae565b60200260200101516001600160a01b03161480156126fa5750816001600160a01b031684600186516126d79190614761565b815181106126e7576126e76145ae565b60200260200101516001600160a01b0316145b6127465760405162461bcd60e51b815260206004820152601e60248201527f4c697175696461746f723a20496e76616c696420746f6b656e207061746800006044820152606401610466565b509192915050565b60606001825161275e9190614761565b67ffffffffffffffff81111561277657612776613bc0565b6040519080825280602002602001820160405280156127bb57816020015b60408051808201909152600080825260208201528152602001906001900390816127945790505b50905060005b600183516127cf9190614761565b81101561287b576128328382815181106127eb576127eb6145ae565b602002602001015184836001612801919061460c565b81518110612811576128116145ae565b6020026020010151866001600160a01b0316611d2f9092919063ffffffff16565b838381518110612844576128446145ae565b6020026020010151600001848481518110612861576128616145ae565b6020908102919091018101510191909152526001016127c1565b5092915050565b6000805460ff16600281111561289a5761289a614418565b146128e75760405162461bcd60e51b815260206004820152601e60248201527f4c697175696461746f723a205265656e7472616e637920626c6f636b656400006044820152606401610466565b600080547fffffffffffffffffffffffffffffffffffffffffffffffffffffffffffffff0016600117905560a08101516129895760405162461bcd60e51b815260206004820152602360248201527f4c697175696461746f723a204e6f20662d617373657420746f206c697175696460448201527f61746500000000000000000000000000000000000000000000000000000000006064820152608401610466565b815160608201516040517f613255ab0000000000000000000000000000000000000000000000000000000081526001600160a01b039182166004820152600092919091169063613255ab90602401602060405180830381865afa1580156129f4573d6000803e3d6000fd5b505050506040513d601f19601f82011682018060405250810190612a189190614709565b905060008111612a905760405162461bcd60e51b815260206004820152602260248201527f4c697175696461746f723a20466c617368206c6f616e20756e617661696c616260448201527f6c650000000000000000000000000000000000000000000000000000000000006064820152608401610466565b6000612a9b83612ebe565b905060008111612aed5760405162461bcd60e51b815260206004820152601f60248201527f4c697175696461746f723a204e6f2070726f66697420617661696c61626c65006044820152606401610466565b60008360000151846020015186604051602001612b0c93929190614df9565b60405160208183030381529060405290508080519060200120600060016101000a8154817effffffffffffffffffffffffffffffffffffffffffffffffffffffffffffff021916908360081c021790555084600001516001600160a01b0316635cffe9de308660600151612b808787612f48565b856040518563ffffffff1660e01b8152600401612ba09493929190614e81565b6020604051808303816000875af1158015612bbf573d6000803e3d6000fd5b505050506040513d601f19601f82011682018060405250810190612be3919061462f565b50606084015185516040517f095ea7b30000000000000000000000000000000000000000000000000000000081526001600160a01b0391821660048201526000602482015291169063095ea7b3906044016020604051808303816000875af1158015612c53573d6000803e3d6000fd5b505050506040513d601f19601f82011682018060405250810190612c77919061462f565b5060029250612c84915050565b60005460ff166002811115612c9b57612c9b614418565b14612d10576040805162461bcd60e51b81526020600482015260248101919091527f4c697175696461746f723a205265656e7472616e637920626c6f636b6564206f60448201527f7220666c617368206c6f616e207265636569766572206e6f742063616c6c65646064820152608401610466565b5050600080547fffffffffffffffffffffffffffffffffffffffffffffffffffffffffffffff00169055565b606082471015612db45760405162461bcd60e51b815260206004820152602660248201527f416464726573733a20696e73756666696369656e742062616c616e636520666f60448201527f722063616c6c00000000000000000000000000000000000000000000000000006064820152608401610466565b600080866001600160a01b03168587604051612dd09190614eb3565b60006040518083038185875af1925050503d8060008114612e0d576040519150601f19603f3d011682016040523d82523d6000602084013e612e12565b606091505b5091509150612e2387838387612f5e565b925050505b949350505050565b604080516002808252606080830184529260009291906020830190803683370190505090508381600081518110612e6957612e696145ae565b60200260200101906001600160a01b031690816001600160a01b0316815250508281600181518110612e9d57612e9d6145ae565b6001600160a01b039092166020928302919091019091015290505b92915050565b6000806001836101800151511180612edc57506001836101a0015151115b9050600081612ef357612eee84612fd7565b612efc565b612efc8461320b565b905080600003612f10575060009392505050565b6000612f2e612f248387610100015161335a565b8660a00151612f48565b9050612f3f81866101800151613366565b95945050505050565b6000818310612f57578161173b565b5090919050565b60608315612fcd578251600003612fc6576001600160a01b0385163b612fc65760405162461bcd60e51b815260206004820152601d60248201527f416464726573733a2063616c6c20746f206e6f6e2d636f6e74726163740000006044820152606401610466565b5081612e28565b612e2883836133e0565b600080826101800151600081518110612ff257612ff26145ae565b6020026020010151600001519050600083610180015160008151811061301a5761301a6145ae565b60200260200101516020015190506000846101a00151600081518110613042576130426145ae565b60200260200101516000015190506000856101a0015160008151811061306a5761306a6145ae565b6020026020010151602001519050816103e860036103e861308b9190614761565b61309590876147ad565b61309f91906147f3565b6130a991906147ad565b94506130b48561340a565b945060006130c78488610100015161358d565b90506000836127108960c001516130e3858c61014001516135b0565b6130ed91906147ad565b6130f791906147f3565b61310191906147ad565b90506000836103e8613114600382614761565b6127108c60e0015161312b888f61016001516135b0565b61313591906147ad565b61313f91906147f3565b61314991906147ad565b61315391906147f3565b61315d91906147ad565b905061317161316c828461460c565b61340a565b61317b90896147ad565b97505050506000828561318e91906147ad565b90508581106131a4575060009695505050505050565b6131ae8187614761565b95506131be90506103e8866147ad565b94506131cd60036103e8614761565b6131d790866147f3565b94506131e382866147f3565b94506131f08585856135c8565b94506132018587610100015161358d565b9695505050505050565b6000806132218360a0015184610100015161358d565b9050600081815b60088110156132ed576000613f346127106132438686614761565b61324d91906147ad565b61325791906147f3565b6132619084614761565b90506000613f346127106132758787614761565b61327f91906147ad565b61328991906147f3565b613293908661460c565b905060646132a18286614761565b116132ad5750506132ed565b60006132b98984613622565b905060006132c78a84613622565b9050808211156132d9578295506132dd565b8396505b5050600190920191506132289050565b50600060026132fc838561460c565b61330691906147f3565b905060006133148786613622565b905060006133228884613622565b905080158015613330575081155b1561334357506000979650505050505050565b81811161334e578592505b50909695505050505050565b600061173b82846147ad565b805182905b801561287b576133cc8284613381600185614761565b81518110613391576133916145ae565b602002602001015160000151856001856133ab9190614761565b815181106133bb576133bb6145ae565b602002602001015160200151613a6c565b9150806133d881614ecf565b91505061336b565b8151156133f05781518083602001fd5b8060405162461bcd60e51b8152600401610466919061497d565b60008160000361341c57506000919050565b81600170010000000000000000000000000000000082106134425760809190911c9060401b5b68010000000000000000821061345d5760409190911c9060201b5b64010000000082106134745760209190911c9060101b5b6201000082106134895760109190911c9060081b5b610100821061349d5760089190911c9060041b5b601082106134b05760049190911c9060021b5b600882106134bc5760011b5b60018185816134cd576134cd6147c4565b048201901c905060018185816134e5576134e56147c4565b048201901c905060018185816134fd576134fd6147c4565b048201901c90506001818581613515576135156147c4565b048201901c9050600181858161352d5761352d6147c4565b048201901c90506001818581613545576135456147c4565b048201901c9050600181858161355d5761355d6147c4565b048201901c90506000818581613575576135756147c4565b0490508082106135855780612f3f565b509392505050565b600081600161359c828661460c565b6135a69190614761565b61173b91906147f3565b60006135be6009600a614d86565b6135a683856147ad565b6000806135d860036103e8614761565b6135e290866147ad565b905060006135f084836147ad565b90506000826136016103e8886147ad565b61360b919061460c565b905061361781836147f3565b979650505050505050565b600080836101a001515167ffffffffffffffff81111561364457613644613bc0565b60405190808252806020026020018201604052801561368957816020015b60408051808201909152600080825260208201528152602001906001900390816136625790505b50905060005b846101a001515181101561371b576040518060400160405280866101a0015183815181106136bf576136bf6145ae565b6020026020010151600001518152602001866101a0015183815181106136e7576136e76145ae565b602002602001015160200151815250828281518110613708576137086145ae565b602090810291909101015260010161368f565b50600061372d8486610100015161335a565b610180860151519091505b8015613a26576000613786838861018001516001856137579190614761565b81518110613767576137676145ae565b6020026020010151600001518961018001516001866133ab9190614761565b905060015b876101e0015151811015613a1157876101c0015183815181106137b0576137b06145ae565b60200260200101516001600160a01b0316886101e001516001836137d49190614761565b815181106137e4576137e46145ae565b60200260200101516001600160a01b031614801561385957506101c088015161380e600185614761565b8151811061381e5761381e6145ae565b60200260200101516001600160a01b0316886101e001518281518110613846576138466145ae565b60200260200101516001600160a01b0316145b156138d357838561386b600184614761565b8151811061387b5761387b6145ae565b60200260200101516000018181516138939190614761565b90525081856138a3600184614761565b815181106138b3576138b36145ae565b60200260200101516020018181516138cb919061460c565b905250613a09565b6101c08801516138e4600185614761565b815181106138f4576138f46145ae565b60200260200101516001600160a01b0316886101e001516001836139189190614761565b81518110613928576139286145ae565b60200260200101516001600160a01b03161480156139935750876101c001518381518110613958576139586145ae565b60200260200101516001600160a01b0316886101e001518281518110613980576139806145ae565b60200260200101516001600160a01b0316145b15613a095781856139a5600184614761565b815181106139b5576139b56145ae565b60200260200101516000018181516139cd9190614761565b90525083856139dd600184614761565b815181106139ed576139ed6145ae565b6020026020010151602001818151613a05919061460c565b9052505b60010161378b565b50915080613a1e81614ecf565b915050613738565b50600080613a348787613ac2565b915091506000613a448286613b26565b90506000613a52828561460c565b9050848111613a6257600061265f565b61265f8582614761565b6000806103e8613a7c86866147ad565b613a8691906147ad565b90506000613a9760036103e8614761565b613aa18786614761565b613aab91906147ad565b9050613ab781836147f3565b61320190600161460c565b600080613af06127108560c0015185613adb91906147ad565b613ae591906147f3565b8561014001516135b0565b9150613b1d6127108560e0015185613b0891906147ad565b613b1291906147f3565b8561016001516135b0565b90509250929050565b8160005b825181101561287b57613b7882848381518110613b4957613b496145ae565b602002602001015160000151858481518110613b6757613b676145ae565b6020026020010151602001516135c8565b9150600101613b2a565b60006101808284031215613b9557600080fd5b50919050565b6001600160a01b038116811461073757600080fd5b8035613bbb81613b9b565b919050565b7f4e487b7100000000000000000000000000000000000000000000000000000000600052604160045260246000fd5b6040516080810167ffffffffffffffff81118282101715613c1257613c12613bc0565b60405290565b604051610140810167ffffffffffffffff81118282101715613c1257613c12613bc0565b604051601f8201601f1916810167ffffffffffffffff81118282101715613c6557613c65613bc0565b604052919050565b600067ffffffffffffffff821115613c8757613c87613bc0565b5060051b60200190565b600082601f830112613ca257600080fd5b81356020613cb7613cb283613c6d565b613c3c565b8083825260208201915060208460051b870101935086841115613cd957600080fd5b602086015b84811015613cfe578035613cf181613b9b565b8352918301918301613cde565b509695505050505050565b6000806000806000806000806000806101408b8d031215613d2957600080fd5b8a3567ffffffffffffffff80821115613d4157600080fd5b613d4d8e838f01613b82565b9b50613d5b60208e01613bb0565b9a5060408d0135995060608d0135985060808d0135975060a08d01359650613d8560c08e01613bb0565b9550613d9360e08e01613bb0565b94506101008d0135915080821115613daa57600080fd5b613db68e838f01613c91565b93506101208d0135915080821115613dcd57600080fd5b50613dda8d828e01613c91565b9150509295989b9194979a5092959850565b60008060008060008060a08789031215613e0557600080fd5b8635613e1081613b9b565b95506020870135613e2081613b9b565b94506040870135935060608701359250608087013567ffffffffffffffff80821115613e4b57600080fd5b818901915089601f830112613e5f57600080fd5b813581811115613e6e57600080fd5b8a6020828501011115613e8057600080fd5b6020830194508093505050509295509295509295565b60008083601f840112613ea857600080fd5b50813567ffffffffffffffff811115613ec057600080fd5b6020830191508360208260051b8501011115611d2857600080fd5b60008060008060008060008060008060006101408c8e031215613efd57600080fd5b67ffffffffffffffff808d351115613f1457600080fd5b613f218e8e358f01613e96565b909c509a50613f3260208e01613bb0565b995060408d0135985060608d0135975060808d0135965060a08d01359550613f5c60c08e01613bb0565b9450613f6a60e08e01613bb0565b9350806101008e01351115613f7e57600080fd5b613f8f8e6101008f01358f01613c91565b9250806101208e01351115613fa357600080fd5b50613fb58d6101208e01358e01613c91565b90509295989b509295989b9093969950565b600060208284031215613fd957600080fd5b813561173b81613b9b565b60008060008060008060008060008060006101608c8e03121561400657600080fd5b67ffffffffffffffff808d35111561401d57600080fd5b61402a8e8e358f01613b82565b9b508060208e0135111561403d57600080fd5b61404d8e60208f01358f01613b82565b9a5061405b60408e01613bb0565b995060608d0135985060808d0135975060a08d0135965060c08d0135955061408560e08e01613bb0565b94506140946101008e01613bb0565b9350806101208e013511156140a857600080fd5b6140b98e6101208f01358f01613c91565b9250806101408e013511156140cd57600080fd5b50613fb58d6101408e01358e01613c91565b6000806000606084860312156140f457600080fd5b8335925060208401359150604084013561410d81613b9b565b809150509250925092565b6000806000806000806000806000806101408b8d03121561413857600080fd5b6141418b613bb0565b995061414f60208c01613bb0565b985060408b0135975060608b0135965060808b0135955060a08b0135945061417960c08c01613bb0565b935061418760e08c01613bb0565b92506101008b013567ffffffffffffffff80821115613daa57600080fd5b6000602082840312156141b757600080fd5b815161173b81613b9b565b803567ffffffffffffffff81168114613bbb57600080fd5b600061018082357fffffffffffffffffffffffffffffffffffffffffffffffffffffffffffffffe184360301811261421157600080fd5b830160208101903567ffffffffffffffff8082111561422f57600080fd5b8160051b80360384131561424257600080fd5b84885282858901526101a094507f07ffffffffffffffffffffffffffffffffffffffffffffffffffffffffffffff83111561427c57600080fd5b8084868a01376020870135602089015260408701356040890152816142a3606089016141c2565b166060890152816142b6608089016141c2565b16608089015260a087013560a089015260c087013560c0890152816142dd60e089016141c2565b1660e08901526101009350816142f48589016141c2565b169388019390935250506101208481013590860152610140808501359086015261016093840135938501939093529190920101919050565b60408152600061433f60408301856141da565b90506001600160a01b03831660208301529392505050565b60008151808452602080850194506020840160005b838110156143915781516001600160a01b03168752958201959082019060010161436c565b509495945050505050565b60006101406001600160a01b03808e168452808d1660208501528b60408501528a60608501528960808501528860a085015280881660c085015280871660e085015250806101008401526143f281840186614357565b90508281036101208401526144078185614357565b9d9c50505050505050505050505050565b7f4e487b7100000000000000000000000000000000000000000000000000000000600052602160045260246000fd5b8183823760009101908152919050565b60006060828403121561446957600080fd5b6040516060810167ffffffffffffffff828210818311171561448d5761448d613bc0565b8160405282935084359150808211156144a557600080fd5b506144b285828601613c91565b82525060208301356020820152604083013560408201525092915050565b6000806000606084860312156144e557600080fd5b83356144f081613b9b565b9250602084013561450081613b9b565b9150604084013567ffffffffffffffff8082111561451d57600080fd5b908501906080828803121561453157600080fd5b614539613bef565b823561454481613b9b565b8152602083013561455481613b9b565b602082015260408301358281111561456b57600080fd5b61457789828601614457565b60408301525060608301358281111561458f57600080fd5b61459b89828601614457565b6060830152508093505050509250925092565b7f4e487b7100000000000000000000000000000000000000000000000000000000600052603260045260246000fd5b7f4e487b7100000000000000000000000000000000000000000000000000000000600052601160045260246000fd5b80820180821115612eb857612eb86145dd565b80518015158114613bbb57600080fd5b60006020828403121561464157600080fd5b61173b8261461f565b6040808252810183905260006060600585901b830181019083018683805b888110156146ea577fffffffffffffffffffffffffffffffffffffffffffffffffffffffffffffffa087860301845282357ffffffffffffffffffffffffffffffffffffffffffffffffffffffffffffffe818b36030181126146c8578283fd5b6146d4868c83016141da565b9550506020938401939290920191600101614668565b50505050809150506001600160a01b0383166020830152949350505050565b60006020828403121561471b57600080fd5b5051919050565b60608152600061473560608301866141da565b828103602084015261474781866141da565b9150506001600160a01b0383166040830152949350505050565b81810381811115612eb857612eb86145dd565b60008060006060848603121561478957600080fd5b8351925060208401519150604084015190509250925092565b8051613bbb81613b9b565b8082028115828204841417612eb857612eb86145dd565b7f4e487b7100000000000000000000000000000000000000000000000000000000600052601260045260246000fd5b600082614829577f4e487b7100000000000000000000000000000000000000000000000000000000600052601260045260246000fd5b500490565b85815284602082015260a06040820152600061484d60a0830186614357565b6001600160a01b0394909416606083015250608001529392505050565b600082601f83011261487b57600080fd5b8151602061488b613cb283613c6d565b8083825260208201915060208460051b8701019350868411156148ad57600080fd5b602086015b84811015613cfe57805183529183019183016148b2565b600080604083850312156148dc57600080fd5b825167ffffffffffffffff808211156148f457600080fd5b6149008683870161486a565b9350602085015191508082111561491657600080fd5b506149238582860161486a565b9150509250929050565b60005b83811015614948578181015183820152602001614930565b50506000910152565b6000815180845261496981602086016020860161492d565b601f01601f19169290920160200192915050565b60208152600061173b6020830184614951565b6000602082840312156149a257600080fd5b815167ffffffffffffffff8111156149b957600080fd5b612e288482850161486a565b805160ff81168114613bbb57600080fd5b6000602082840312156149e857600080fd5b61173b826149c5565b60008060408385031215614a0457600080fd5b505080516020909101519092909150565b60008060408385031215614a2857600080fd5b614a31836149c5565b9150602083015190509250929050565b600082601f830112614a5257600080fd5b815167ffffffffffffffff811115614a6c57614a6c613bc0565b614a7f6020601f19601f84011601613c3c565b818152846020838601011115614a9457600080fd5b612e2882602083016020870161492d565b600060208284031215614ab757600080fd5b815167ffffffffffffffff811115614ace57600080fd5b612e2884828501614a41565b6040810160038410614b15577f4e487b7100000000000000000000000000000000000000000000000000000000600052602160045260246000fd5b9281526001600160a01b039190911660209091015290565b805160038110613bbb57600080fd5b600060208284031215614b4e57600080fd5b815167ffffffffffffffff80821115614b6657600080fd5b908301906101408286031215614b7b57600080fd5b614b83613c18565b614b8c83614b2d565b8152614b9a602084016147a2565b60208201526040830151604082015260608301516060820152614bbf6080840161461f565b608082015260a083015182811115614bd657600080fd5b614be287828601614a41565b60a08301525060c083015182811115614bfa57600080fd5b614c0687828601614a41565b60c08301525060e0838101519082015261010080840151908201526101209283015192810192909252509392505050565b7f4e487b7100000000000000000000000000000000000000000000000000000000600052600160045260246000fd5b600181815b80851115614cbf57817fffffffffffffffffffffffffffffffffffffffffffffffffffffffffffffffff04821115614ca557614ca56145dd565b80851615614cb257918102915b93841c9390800290614c6b565b509250929050565b600082614cd657506001612eb8565b81614ce357506000612eb8565b8160018114614cf95760028114614d0357614d1f565b6001915050612eb8565b60ff841115614d1457614d146145dd565b50506001821b612eb8565b5060208310610133831016604e8410600b8410161715614d42575081810a612eb8565b614d4c8383614c66565b807fffffffffffffffffffffffffffffffffffffffffffffffffffffffffffffffff04821115614d7e57614d7e6145dd565b029392505050565b600061173b8383614cc7565b805160608084528151908401819052600091602091908201906080860190845b81811015614dd75783516001600160a01b031683529284019291840191600101614db2565b5050602085015160208701526040850151604087015280935050505092915050565b60006001600160a01b038086168352808516602084015260606040840152808451166060840152806020850151166080840152506040830151608060a0840152614e4660e0840182614d92565b905060608401517fffffffffffffffffffffffffffffffffffffffffffffffffffffffffffffffa08483030160c0850152612e238282614d92565b60006001600160a01b038087168352808616602084015250836040830152608060608301526132016080830184614951565b60008251614ec581846020870161492d565b9190910192915050565b600081614ede57614ede6145dd565b507fffffffffffffffffffffffffffffffffffffffffffffffffffffffffffffffff019056fea164736f6c6343000817000a",
  "linkReferences": {},
  "deployedLinkReferences": {}
}