{
  "_format": "hh-sol-artifact-1",
  "contractName": "CollateralPoolFactory",
  "sourceName": "contracts/fasset/implementation/CollateralPoolFactory.sol",
  "abi": [
    {
      "inputs": [
        {
          "internalType": "contract IIAssetManager",
          "name": "_assetManager",
          "type": "address"
        },
        {
          "internalType": "address",
          "name": "_agentVault",
          "type": "address"
        },
        {
          "components": [
            {
              "internalType": "string",
              "name": "underlyingAddressString",
              "type": "string"
            },
            {
              "internalType": "contract IERC20",
              "name": "vaultCollateralToken",
              "type": "address"
            },
            {
              "internalType": "uint256",
              "name": "feeBIPS",
              "type": "uint256"
            },
            {
              "internalType": "uint256",
              "name": "poolFeeShareBIPS",
              "type": "uint256"
            },
            {
              "internalType": "uint256",
              "name": "mintingVaultCollateralRatioBIPS",
              "type": "uint256"
            },
            {
              "internalType": "uint256",
              "name": "mintingPoolCollateralRatioBIPS",
              "type": "uint256"
            },
            {
              "internalType": "uint256",
              "name": "buyFAssetByAgentFactorBIPS",
              "type": "uint256"
            },
            {
              "internalType": "uint256",
              "name": "poolExitCollateralRatioBIPS",
              "type": "uint256"
            },
            {
              "internalType": "uint256",
              "name": "poolTopupCollateralRatioBIPS",
              "type": "uint256"
            },
            {
              "internalType": "uint256",
              "name": "poolTopupTokenPriceFactorBIPS",
              "type": "uint256"
            }
          ],
          "internalType": "struct AgentSettings.Data",
          "name": "_settings",
          "type": "tuple"
        }
      ],
      "name": "create",
      "outputs": [
        {
          "internalType": "contract IICollateralPool",
          "name": "",
          "type": "address"
        }
      ],
      "stateMutability": "nonpayable",
      "type": "function"
    },
    {
      "inputs": [
        {
          "internalType": "bytes4",
          "name": "_interfaceId",
          "type": "bytes4"
        }
      ],
      "name": "supportsInterface",
      "outputs": [
        {
          "internalType": "bool",
          "name": "",
          "type": "bool"
        }
      ],
      "stateMutability": "pure",
      "type": "function"
    }
  ],
  "bytecode": "0x608060405234801561001057600080fd5b50614dc4806100206000396000f3fe608060405234801561001057600080fd5b50600436106100365760003560e01c806301ffc9a71461003b578063f713fdd914610063575b600080fd5b61004e6100493660046102aa565b61008e565b60405190151581526020015b60405180910390f35b6100766100713660046103d0565b6100c5565b6040516001600160a01b03909116815260200161005a565b60006001600160e01b031982166301ffc9a760e01b14806100bf57506001600160e01b0319821663f713fdd960e01b145b92915050565b600080846001600160a01b0316637c7db1a56040518163ffffffff1660e01b8152600401602060405180830381865afa158015610106573d6000803e3d6000fd5b505050506040513d601f19601f8201168201806040525081019061012a91906104cc565b9050600084868361013e8760e001516101cc565b61014c8861010001516101cc565b61015a89610120015161023a565b6040516101669061029d565b6001600160a01b039687168152948616602086015294909216604084015263ffffffff908116606084015216608082015261ffff90911660a082015260c001604051809103906000f0801580156101c1573d6000803e3d6000fd5b509695505050505050565b600063ffffffff8211156102365760405162461bcd60e51b815260206004820152602660248201527f53616665436173743a2076616c756520646f65736e27742066697420696e203360448201526532206269747360d01b60648201526084015b60405180910390fd5b5090565b600061ffff8211156102365760405162461bcd60e51b815260206004820152602660248201527f53616665436173743a2076616c756520646f65736e27742066697420696e203160448201526536206269747360d01b606482015260840161022d565b6148a5806104ea83390190565b6000602082840312156102bc57600080fd5b81356001600160e01b0319811681146102d457600080fd5b9392505050565b6001600160a01b03811681146102f057600080fd5b50565b634e487b7160e01b600052604160045260246000fd5b604051610140810167ffffffffffffffff8111828210171561032d5761032d6102f3565b60405290565b600082601f83011261034457600080fd5b813567ffffffffffffffff8082111561035f5761035f6102f3565b604051601f8301601f19908116603f01168101908282118183101715610387576103876102f3565b816040528381528660208588010111156103a057600080fd5b836020870160208301376000602085830101528094505050505092915050565b80356103cb816102db565b919050565b6000806000606084860312156103e557600080fd5b83356103f0816102db565b92506020840135610400816102db565b9150604084013567ffffffffffffffff8082111561041d57600080fd5b90850190610140828803121561043257600080fd5b61043a610309565b82358281111561044957600080fd5b61045589828601610333565b825250610464602084016103c0565b602082015260408301356040820152606083013560608201526080830135608082015260a083013560a082015260c083013560c082015260e083013560e082015261010091508183013582820152610120915081830135828201528093505050509250925092565b6000602082840312156104de57600080fd5b81516102d4816102db56fe60e06040523480156200001157600080fd5b50604051620048a5380380620048a583398101604081905262000034916200015a565b60016000556001600160a01b0380871660805285811660a081905290851660c05260408051635ad2445360e11b8152905163b5a488a6916004808201926020929091908290030181865afa15801562000091573d6000803e3d6000fd5b505050506040513d601f19601f82011682018060405250810190620000b79190620001ed565b6002805461ffff909316600160e01b0261ffff60e01b1963ffffffff958616600160c01b021665ffffffffffff60c01b1995909616600160a01b026001600160c01b03199094166001600160a01b0393909316929092179290921792909216929092171790555062000214915050565b6001600160a01b03811681146200013d57600080fd5b50565b805163ffffffff811681146200015557600080fd5b919050565b60008060008060008060c087890312156200017457600080fd5b8651620001818162000127565b6020880151909650620001948162000127565b6040880151909550620001a78162000127565b9350620001b76060880162000140565b9250620001c76080880162000140565b915060a087015161ffff81168114620001df57600080fd5b809150509295509295509295565b6000602082840312156200020057600080fd5b81516200020d8162000127565b9392505050565b60805160a05160c05161455e620003476000396000818161055201528181610b4601528181610be3015281816116d101528181611767015281816123910152818161284c01528181612bc3015281816137c7015261381301526000818161063d01528181610875015281816110a4015281816114c60152818161179901528181611874015281816118ec01528181611c1801528181611f2601528181611fe90152818161209b01528181612492015281816125b401528181612cc101528181612ebe015281816130e40152818161319d01526132e901526000818161059e0152818161149b0152818161183f015281816119190152818161246201528181612629015281816126e3015281816127120152818161275101528181612e8e015281816130b101526132bb015261455e6000f3fe60806040526004361061026a5760003560e01c806388985cd611610144578063ba133b87116100b6578063cbdf382c1161007a578063cbdf382c146107cc578063ee781db0146107ea578063f4d000b21461080a578063fbebcadf14610435578063fc0c546a1461082a578063fd86d3ea1461084a57600080fd5b8063ba133b871461072b578063bbd6fbf814610740578063c1b0bbf814610760578063cb20941314610780578063cbabdf39146107b657600080fd5b8063a854a6a211610108578063a854a6a21461069f578063ac3736c1146106bf578063adf58c15146106d2578063b302f393146106f2578063b337929b14610707578063b9e264831461033d57600080fd5b806388985cd6146105f5578063923f89321461061557806394217ad11461062b5780639a4247e61461065f5780639edbf0071461067f57600080fd5b80634a4ac2ef116101dd578063787b9ca8116101a1578063787b9ca8146105005780637a68a508146105205780637c7db1a514610540578063815ea9d61461058c57806386ac57a2146105c057806387a2a0dc146105e057600080fd5b80634a4ac2ef146104555780634ac8eb5f1461048a5780635ca36489146104a05780635e318e07146104c057806365325871146104e057600080fd5b80631b92d84a1161022f5780631b92d84a146103675780632f35eac21461038757806333ce01fd146103bc5780633a22a94d146103dc5780633cfc747d146103fc578063406c70071461043557600080fd5b8062f55d9d146102c857806301ffc9a7146102e8578063026e402b1461031d5780630ac073441461033d5780630dc1e5e11461033d57600080fd5b366102c357600254600160f01b900460ff166102c15760405162461bcd60e51b81526020600482015260116024820152706f6e6c7920696e7465726e616c2075736560781b60448201526064015b60405180910390fd5b005b600080fd5b3480156102d457600080fd5b506102c16102e3366004613fde565b61086a565b3480156102f457600080fd5b50610308610303366004613ffb565b610c19565b60405190151581526020015b60405180910390f35b34801561032957600080fd5b506102c1610338366004614025565b610c6b565b34801561034957600080fd5b50610359670de0b6b3a764000081565b604051908152602001610314565b34801561037357600080fd5b50610359610382366004614051565b610cfb565b34801561039357600080fd5b506103a76103a236600461406a565b610d50565b60408051928352602083019190915201610314565b3480156103c857600080fd5b506102c16103d7366004613fde565b611099565b3480156103e857600080fd5b506103596103f7366004613fde565b611155565b34801561040857600080fd5b5060025461042090600160a01b900463ffffffff1681565b60405163ffffffff9091168152602001610314565b34801561044157600080fd5b50610359610450366004614025565b6111eb565b34801561046157600080fd5b5060025461047790600160e01b900461ffff1681565b60405161ffff9091168152602001610314565b34801561049657600080fd5b5061035960065481565b3480156104ac57600080fd5b506102c16104bb3660046140c2565b6112b5565b3480156104cc57600080fd5b506102c16104db366004614051565b611ac9565b3480156104ec57600080fd5b506103596104fb366004613fde565b611bf6565b34801561050c57600080fd5b506102c161051b366004614051565b611c0d565b34801561052c57600080fd5b506102c161053b366004613fde565b611ccf565b34801561054c57600080fd5b506105747f000000000000000000000000000000000000000000000000000000000000000081565b6040516001600160a01b039091168152602001610314565b34801561059857600080fd5b506105747f000000000000000000000000000000000000000000000000000000000000000081565b3480156105cc57600080fd5b506102c16105db366004613fde565b611dcb565b3480156105ec57600080fd5b506102c1611e2b565b34801561060157600080fd5b506102c1610610366004614051565b611f1b565b34801561062157600080fd5b5061035960045481565b34801561063757600080fd5b506105747f000000000000000000000000000000000000000000000000000000000000000081565b34801561066b57600080fd5b506102c161067a366004614051565b611fde565b34801561068b57600080fd5b50600254610574906001600160a01b031681565b3480156106ab57600080fd5b506102c16106ba366004614051565b612090565b6102c16106cd36600461418f565b6120f2565b3480156106de57600080fd5b506102c16106ed3660046141b4565b6125a9565b3480156106fe57600080fd5b506102c16127cd565b34801561071357600080fd5b5060025461042090600160c01b900463ffffffff1681565b34801561073757600080fd5b506102c1612842565b34801561074c57600080fd5b506102c161075b366004614025565b612aca565b34801561076c57600080fd5b5061035961077b366004613fde565b612b28565b34801561078c57600080fd5b5061035961079b366004613fde565b6001600160a01b031660009081526003602052604090205490565b3480156107c257600080fd5b5061035960055481565b3480156107d857600080fd5b506001546001600160a01b0316610574565b3480156107f657600080fd5b506102c1610805366004614051565b612b3f565b34801561081657600080fd5b506102c1610825366004613fde565b612cb6565b34801561083657600080fd5b50600154610574906001600160a01b031681565b34801561085657600080fd5b50610359610865366004613fde565b612f2c565b336001600160a01b037f000000000000000000000000000000000000000000000000000000000000000016146108b25760405162461bcd60e51b81526004016102b8906141e9565b6108ba612f43565b600160009054906101000a90046001600160a01b03166001600160a01b03166318160ddd6040518163ffffffff1660e01b8152600401602060405180830381865afa15801561090d573d6000803e3d6000fd5b505050506040513d601f19601f820116820180604052508101906109319190614215565b1561098f5760405162461bcd60e51b815260206004820152602860248201527f63616e6e6f742064657374726f79206120706f6f6c20776974682069737375656044820152676420746f6b656e7360c01b60648201526084016102b8565b600654156109f05760405162461bcd60e51b815260206004820152602860248201527f63616e6e6f742064657374726f79206120706f6f6c20686f6c64696e6720636f6044820152671b1b185d195c985b60c21b60648201526084016102b8565b60055415610a4f5760405162461bcd60e51b815260206004820152602660248201527f63616e6e6f742064657374726f79206120706f6f6c20686f6c64696e6720662d60448201526561737365747360d01b60648201526084016102b8565b60015460405162f55d9d60e01b81526001600160a01b0383811660048301529091169062f55d9d90602401600060405180830381600087803b158015610a9457600080fd5b505af1158015610aa8573d6000803e3d6000fd5b50505050610ab68147612f9c565b6002546040516370a0823160e01b81523060048201526000916001600160a01b0316906370a0823190602401602060405180830381865afa158015610aff573d6000803e3d6000fd5b505050506040513d601f19601f82011682018060405250810190610b239190614215565b6040516370a0823160e01b81523060048201529091506000906001600160a01b037f000000000000000000000000000000000000000000000000000000000000000016906370a0823190602401602060405180830381865afa158015610b8d573d6000803e3d6000fd5b505050506040513d601f19601f82011682018060405250810190610bb19190614215565b90508115610bd057600254610bd0906001600160a01b03168484613037565b8015610c0a57610c0a6001600160a01b037f0000000000000000000000000000000000000000000000000000000000000000168483613037565b5050610c166001600055565b50565b60006001600160e01b031982166301ffc9a760e01b1480610c4a57506001600160e01b031982166363df061560e11b145b80610c6557506001600160e01b03198216633490786360e11b145b92915050565b610c743361309a565b610c905760405162461bcd60e51b81526004016102b89061422e565b60025460405163026e402b60e01b81526001600160a01b038481166004830152602482018490529091169063026e402b906044015b600060405180830381600087803b158015610cdf57600080fd5b505af1158015610cf3573d6000803e3d6000fd5b505050505050565b600080610d06613151565b80516040820151919250600091610d1e91869061338b565b90506000610d2c83836134b1565b90506000610d3a8433613558565b9050610d4682826135a1565b9695505050505050565b600080610d5b612f43565b60008411610da15760405162461bcd60e51b8152602060048201526013602482015272746f6b656e207368617265206973207a65726f60681b60448201526064016102b8565b6001546040516370a0823160e01b81523360048201526001600160a01b03909116906370a0823190602401602060405180830381865afa158015610de9573d6000803e3d6000fd5b505050506040513d601f19601f82011682018060405250810190610e0d9190614215565b841115610e545760405162461bcd60e51b8152602060048201526015602482015274746f6b656e2062616c616e636520746f6f206c6f7760581b60448201526064016102b8565b6000610e5e613151565b8051909150851480610e8557508051670de0b6b3a764000090610e82908790614268565b10155b610ea15760405162461bcd60e51b81526004016102b89061427b565b60408101518151600091610eb79188919061338b565b905060008111610ed95760405162461bcd60e51b81526004016102b8906142cf565b8082604001511480610f025750670de0b6b3a7640000818360400151610eff9190614268565b10155b610f1e5760405162461bcd60e51b81526004016102b890614311565b600254610f3b9083908390600160a01b900463ffffffff166135bb565b610f935760405162461bcd60e51b815260206004820152602360248201527f636f6c6c61746572616c20726174696f2066616c6c732062656c6f77206578696044820152623a21a960e91b60648201526084016102b8565b600080610fa284338a8a613604565b90925090508015610fb857610fb830338361378c565b8115610fc857610fc8338361383b565b600154604051632770a7eb60e21b8152336004820152602481018a90526001600160a01b0390911690639dc29fac90604401600060405180830381600087803b15801561101457600080fd5b505af1158015611028573d6000803e3d6000fd5b505050506110363384613885565b60408051898152602081018590529081018290526000606082015233907fd7a0a15455c784069bb034ffea3bf908298c11be5f633397b9eec96ea692a0cc9060800160405180910390a291945090925050506110926001600055565b9250929050565b336001600160a01b037f000000000000000000000000000000000000000000000000000000000000000016146110e15760405162461bcd60e51b81526004016102b8906141e9565b6001546001600160a01b0316156111335760405162461bcd60e51b81526020600482015260166024820152751c1bdbdb081d1bdad95b88185b1c9958591e481cd95d60521b60448201526064016102b8565b600180546001600160a01b0319166001600160a01b0392909216919091179055565b600080611160613151565b6001546040516370a0823160e01b81526001600160a01b0386811660048301529293506111e492909116906370a0823190602401602060405180830381865afa1580156111b1573d6000803e3d6000fd5b505050506040513d601f19601f820116820180604052508101906111d59190614215565b6111df83866138b9565b6135a1565b9392505050565b60006111f63361309a565b6112125760405162461bcd60e51b81526004016102b89061422e565b60405163596090c960e11b81523060048201819052602482015260448101839052600160648201526000906001600160a01b0385169063b2c12192906084016020604051808303816000875af1158015611270573d6000803e3d6000fd5b505050506040513d601f19601f820116820180604052508101906112949190614215565b905080600660008282546112a89190614363565b9091555090949350505050565b6112bd612f43565b600083116113035760405162461bcd60e51b8152602060048201526013602482015272746f6b656e207368617265206973207a65726f60681b60448201526064016102b8565b6001546040516370a0823160e01b81523360048201526000916001600160a01b0316906370a0823190602401602060405180830381865afa15801561134c573d6000803e3d6000fd5b505050506040513d601f19601f820116820180604052508101906113709190614215565b9050808411156113ba5760405162461bcd60e51b8152602060048201526015602482015274746f6b656e2062616c616e636520746f6f206c6f7760581b60448201526064016102b8565b60006113c4613151565b80519091508514806113eb57508051670de0b6b3a7640000906113e8908790614268565b10155b6114075760405162461bcd60e51b81526004016102b89061427b565b8051604082015160009161141d9190889061338b565b90506000811161143f5760405162461bcd60e51b81526004016102b8906142cf565b80826040015114806114685750670de0b6b3a76400008183604001516114659190614268565b10155b6114845760405162461bcd60e51b81526004016102b890614311565b604051631e8bee0160e01b81526001600160a01b037f0000000000000000000000000000000000000000000000000000000000000000811660048301526000917f000000000000000000000000000000000000000000000000000000000000000090911690631e8bee0190602401602060405180830381865afa15801561150f573d6000803e3d6000fd5b505050506040513d601f19601f820116820180604052508101906115339190614215565b9050600061154184846134b1565b90508082101561167357508061155784826139ad565b9250600083116115df5760405162461bcd60e51b815260206004820152604760248201527f616d6f756e74206f662073656e7420746f6b656e7320697320746f6f20736d6160448201527f6c6c206166746572206167656e74206d617820726564656d70746f6e20636f726064820152663932b1ba34b7b760c91b608482015260a4016102b8565b82846040015114806116085750670de0b6b3a76400008385604001516116059190614268565b10155b6116245760405162461bcd60e51b81526004016102b890614311565b6040840151845161163691859061338b565b60408051828152602081018490529199507f7543f09ac709677c25f5aa8284e92f885eae7c7496789dd47cf87e28e5a1cf1c910160405180910390a15b600061167f8533613558565b905060008061169187338d6000613604565b91509150838310156117915760006116a98486614268565b604051636eb1769f60e11b815233600482015230602482015290915081906001600160a01b037f0000000000000000000000000000000000000000000000000000000000000000169063dd62ed3e90604401602060405180830381865afa158015611718573d6000803e3d6000fd5b505050506040513d601f19601f8201168201806040525081019061173c9190614215565b101561175a5760405162461bcd60e51b81526004016102b890614376565b61178f6001600160a01b037f000000000000000000000000000000000000000000000000000000000000000016333084613a2f565b505b831561197a577f00000000000000000000000000000000000000000000000000000000000000006001600160a01b0316634942f65f6040518163ffffffff1660e01b8152600401602060405180830381865afa1580156117f5573d6000803e3d6000fd5b505050506040513d601f19601f820116820180604052508101906118199190614215565b8410806118235750895b156118d557604051630ed000b360e41b81526001600160a01b037f000000000000000000000000000000000000000000000000000000000000000081166004830152336024830152604482018690527f0000000000000000000000000000000000000000000000000000000000000000169063ed000b3090606401600060405180830381600087803b1580156118b857600080fd5b505af11580156118cc573d6000803e3d6000fd5b5050505061197a565b60405163f060b3f160e01b81526001600160a01b037f0000000000000000000000000000000000000000000000000000000000000000169063f060b3f190611947907f000000000000000000000000000000000000000000000000000000000000000090339089908f906004016143fd565b600060405180830381600087803b15801561196157600080fd5b505af1158015611975573d6000803e3d6000fd5b505050505b60006119868585613a67565b905080156119d85780600560008282546119a09190614268565b909155506119b090503382613a7d565b60006119bc8284613a67565b90506119c88184614268565b92506119d48185614363565b9350505b81156119e9576119e930338461378c565b82156119f9576119f9338461383b565b600154604051632770a7eb60e21b8152336004820152602481018e90526001600160a01b0390911690639dc29fac90604401600060405180830381600087803b158015611a4557600080fd5b505af1158015611a59573d6000803e3d6000fd5b50505050611a673388613885565b604080518d8152602081018990529081018290526060810186905233907fd7a0a15455c784069bb034ffea3bf908298c11be5f633397b9eec96ea692a0cc9060800160405180910390a2505050505050505050611ac46001600055565b505050565b611ad1612f43565b60008111611b215760405162461bcd60e51b815260206004820181905260248201527f747279696e6720746f207769746864726177207a65726f20662d61737365747360448201526064016102b8565b6000611b2b613151565b90506000611b398233613558565b905080831115611b8b5760405162461bcd60e51b815260206004820152601e60248201527f6672656520662d61737365742062616c616e636520746f6f20736d616c6c000060448201526064016102b8565b611b953384613a7d565b611ba030338561378c565b604080516000808252602082018190528183018490526060820152905133917fd7a0a15455c784069bb034ffea3bf908298c11be5f633397b9eec96ea692a0cc919081900360800190a25050610c166001600055565b600080611c01613151565b90506111e481846138b9565b336001600160a01b037f00000000000000000000000000000000000000000000000000000000000000001614611c555760405162461bcd60e51b81526004016102b8906141e9565b600254600160c01b900463ffffffff168111611ca35760405162461bcd60e51b815260206004820152600d60248201526c76616c756520746f6f206c6f7760981b60448201526064016102b8565b611cac81613abe565b600260146101000a81548163ffffffff021916908363ffffffff16021790555050565b611cd83361309a565b611cf45760405162461bcd60e51b81526004016102b89061422e565b600260009054906101000a90046001600160a01b03166001600160a01b0316638c2b8ae16040518163ffffffff1660e01b8152600401602060405180830381865afa158015611d47573d6000803e3d6000fd5b505050506040513d601f19601f82011682018060405250810190611d6b9190614430565b6040516317066a5760e21b81526001600160a01b0383811660048301529190911690635c19a95c90602401600060405180830381600087803b158015611db057600080fd5b505af1158015611dc4573d6000803e3d6000fd5b5050505050565b611dd43361309a565b611df05760405162461bcd60e51b81526004016102b89061422e565b806001600160a01b031663f2a1f7676040518163ffffffff1660e01b8152600401600060405180830381600087803b158015611db057600080fd5b611e343361309a565b611e505760405162461bcd60e51b81526004016102b89061422e565b600260009054906101000a90046001600160a01b03166001600160a01b0316638c2b8ae16040518163ffffffff1660e01b8152600401602060405180830381865afa158015611ea3573d6000803e3d6000fd5b505050506040513d601f19601f82011682018060405250810190611ec79190614430565b6001600160a01b03166392ab89bb6040518163ffffffff1660e01b8152600401600060405180830381600087803b158015611f0157600080fd5b505af1158015611f15573d6000803e3d6000fd5b50505050565b336001600160a01b037f00000000000000000000000000000000000000000000000000000000000000001614611f635760405162461bcd60e51b81526004016102b8906141e9565b600254600160a01b900463ffffffff168110611fb25760405162461bcd60e51b815260206004820152600e60248201526d0ecc2d8eaca40e8dede40d0d2ced60931b60448201526064016102b8565b611fbb81613abe565b600260186101000a81548163ffffffff021916908363ffffffff16021790555050565b336001600160a01b037f000000000000000000000000000000000000000000000000000000000000000016146120265760405162461bcd60e51b81526004016102b8906141e9565b61271081106120685760405162461bcd60e51b815260206004820152600e60248201526d0ecc2d8eaca40e8dede40d0d2ced60931b60448201526064016102b8565b61207181613b27565b6002601c6101000a81548161ffff021916908361ffff16021790555050565b336001600160a01b037f000000000000000000000000000000000000000000000000000000000000000016146120d85760405162461bcd60e51b81526004016102b8906141e9565b80600560008282546120ea9190614363565b909155505050565b6120fa612f43565b6000612104613151565b90506103e88160400151612118919061444d565b815111156121685760405162461bcd60e51b815260206004820152601a60248201527f706f6f6c206e61742062616c616e636520746f6f20736d616c6c00000000000060448201526064016102b8565b670de0b6b3a76400003410156121c05760405162461bcd60e51b815260206004820152601d60248201527f616d6f756e74206f66206e61742073656e7420697320746f6f206c6f7700000060448201526064016102b8565b805160000361231e5780604001513410156122695760405162461bcd60e51b815260206004820152606060248201527f696620706f6f6c20686173206e6f20746f6b656e732c2062757420686f6c647360448201527f20636f6c6c61746572616c2c20796f75206e65656420746f2073656e6420617460648201527f206c65617374207468617420616d6f756e74206f6620636f6c6c61746572616c608482015260a4016102b8565b60a081015160c0820151606083015161228392909161338b565b34101561231e5760405162461bcd60e51b815260206004820152605f60248201527f496620706f6f6c20686173206e6f20746f6b656e732c2062757420686f6c647360448201527f20662d61737365742c20796f75206e65656420746f2073656e64206174206c6560648201527f61737420662d617373657420776f727468206f6620636f6c6c61746572616c00608482015260a4016102b8565b600061232a8234613b8a565b9050600080836000015111612340576000612352565b8251608084015161235291849061338b565b905060008461236a576123658683613a67565b61236c565b815b9050801561242d57604051636eb1769f60e11b815233600482015230602482015281907f00000000000000000000000000000000000000000000000000000000000000006001600160a01b03169063dd62ed3e90604401602060405180830381865afa1580156123e0573d6000803e3d6000fd5b505050506040513d601f19601f820116820180604052508101906124049190614215565b10156124225760405162461bcd60e51b81526004016102b890614376565b61242d33308361378c565b6124403361243b8385614268565b613a7d565b612448613cce565b60025460405163053fe26160e31b81526001600160a01b037f00000000000000000000000000000000000000000000000000000000000000008116600483015291821660248201527f0000000000000000000000000000000000000000000000000000000000000000909116906329ff130890604401600060405180830381600087803b1580156124d857600080fd5b505af11580156124ec573d6000803e3d6000fd5b50506001546040516340c10f1960e01b8152336004820152602481018790526001600160a01b0390911692506340c10f199150604401600060405180830381600087803b15801561253c57600080fd5b505af1158015612550573d6000803e3d6000fd5b505060408051348152602081018790529081018490523392507fa9cf4922f2856a66149c9a3bf0008b3792335527ce5112f6d19fe9533e54349f915060600160405180910390a2505050506125a56001600055565b5050565b336001600160a01b037f000000000000000000000000000000000000000000000000000000000000000016146125f15760405162461bcd60e51b81526004016102b8906141e9565b6125f9612f43565b6000612603613151565b905061260f8484613885565b6001546040516370a0823160e01b81526001600160a01b037f00000000000000000000000000000000000000000000000000000000000000008116600483015260009216906370a0823190602401602060405180830381865afa15801561267a573d6000803e3d6000fd5b505050506040513d601f19601f8201168201806040525081019061269e9190614215565b90506000808360400151116126b357816126c5565b604083015183516126c591869061338b565b905060006126d38284613a67565b905080156127bf57600061270a857f0000000000000000000000000000000000000000000000000000000000000000846002613604565b5090506127377f00000000000000000000000000000000000000000000000000000000000000008261383b565b600154604051632770a7eb60e21b81526001600160a01b037f0000000000000000000000000000000000000000000000000000000000000000811660048301526024820185905290911690639dc29fac90604401600060405180830381600087803b1580156127a557600080fd5b505af11580156127b9573d6000803e3d6000fd5b50505050505b50505050611ac46001600055565b6127d63361309a565b6127f25760405162461bcd60e51b81526004016102b89061422e565b600260009054906101000a90046001600160a01b03166001600160a01b031663b302f3936040518163ffffffff1660e01b8152600401600060405180830381600087803b158015611f0157600080fd5b61284a612f43565b7f00000000000000000000000000000000000000000000000000000000000000006001600160a01b031663194307bf6040518163ffffffff1660e01b8152600401602060405180830381865afa1580156128a8573d6000803e3d6000fd5b505050506040513d601f19601f820116820180604052508101906128cc9190614464565b6129115760405162461bcd60e51b8152602060048201526016602482015275198b585cdcd95d081b9bdd081d195c9b5a5b985d195960521b60448201526064016102b8565b6001546040516370a0823160e01b81523360048201526000916001600160a01b0316906370a0823190602401602060405180830381865afa15801561295a573d6000803e3d6000fd5b505050506040513d601f19601f8201168201806040525081019061297e9190614215565b9050600081116129c65760405162461bcd60e51b81526020600482015260136024820152726e6f7468696e6720746f20776974686472617760681b60448201526064016102b8565b6000612a4d600654600160009054906101000a90046001600160a01b03166001600160a01b03166318160ddd6040518163ffffffff1660e01b8152600401602060405180830381865afa158015612a21573d6000803e3d6000fd5b505050506040513d601f19601f82011682018060405250810190612a459190614215565b84919061338b565b600154604051632770a7eb60e21b8152336004820152602481018590529192506001600160a01b031690639dc29fac90604401600060405180830381600087803b158015612a9a57600080fd5b505af1158015612aae573d6000803e3d6000fd5b50505050612abc3382613885565b5050612ac86001600055565b565b612ad33361309a565b612aef5760405162461bcd60e51b81526004016102b89061422e565b60025460405163177adf7f60e31b81526001600160a01b038481166004830152602482018490529091169063bbd6fbf890604401610cc5565b600080612b33613151565b90506111e48184613558565b612b47612f43565b33600090815260036020526040902054811115612ba65760405162461bcd60e51b815260206004820152601e60248201527f6465627420662d61737365742062616c616e636520746f6f20736d616c6c000060448201526064016102b8565b604051636eb1769f60e11b815233600482015230602482015281907f00000000000000000000000000000000000000000000000000000000000000006001600160a01b03169063dd62ed3e90604401602060405180830381865afa158015612c12573d6000803e3d6000fd5b505050506040513d601f19601f82011682018060405250810190612c369190614215565b1015612c545760405162461bcd60e51b81526004016102b890614376565b612c5e338261383b565b612c6933308361378c565b604080516000808252602082015290810182905233907fa9cf4922f2856a66149c9a3bf0008b3792335527ce5112f6d19fe9533e54349f9060600160405180910390a2610c166001600055565b336001600160a01b037f00000000000000000000000000000000000000000000000000000000000000001614612cfe5760405162461bcd60e51b81526004016102b8906141e9565b612d06612f43565b6002546001600160a01b03828116911614612f22576002546040516370a0823160e01b81523060048201526000916001600160a01b0316906370a0823190602401602060405180830381865afa158015612d64573d6000803e3d6000fd5b505050506040513d601f19601f82011682018060405250810190612d889190614215565b60028054600160f01b60ff60f01b19821617909155604051632e1a7d4d60e01b8152600481018390529192506001600160a01b031690632e1a7d4d90602401600060405180830381600087803b158015612de157600080fd5b505af1158015612df5573d6000803e3d6000fd5b50506002805460ff60f01b19169055505060408051630d0e30db60e41b815290516001600160a01b0384169163d0e30db091849160048082019260009290919082900301818588803b158015612e4a57600080fd5b505af1158015612e5e573d6000803e3d6000fd5b5050600280546001600160a01b0319166001600160a01b0387811691821790925560405163053fe26160e31b81527f00000000000000000000000000000000000000000000000000000000000000008316600482015260248101919091527f000000000000000000000000000000000000000000000000000000000000000090911693506329ff130892506044019050600060405180830381600087803b158015612f0857600080fd5b505af1158015612f1c573d6000803e3d6000fd5b50505050505b610c166001600055565b600080612f37613151565b90506111e48184613d32565b600260005403612f955760405162461bcd60e51b815260206004820152601f60248201527f5265656e7472616e637947756172643a207265656e7472616e742063616c6c0060448201526064016102b8565b6002600055565b80156125a5576000826001600160a01b03168260405160006040518083038185875af1925050503d8060008114612fef576040519150601f19603f3d011682016040523d82523d6000602084013e612ff4565b606091505b5050905080611ac45760405162461bcd60e51b815260206004820152600f60248201526e1d1c985b9cd9995c8819985a5b1959608a1b60448201526064016102b8565b6040516001600160a01b038316602482015260448101829052611ac490849063a9059cbb60e01b906064015b60408051601f198184030181529190526020810180516001600160e01b03166001600160e01b031990931692909217909152613dd2565b60405163d6b93a9f60e01b81526001600160a01b037f00000000000000000000000000000000000000000000000000000000000000008116600483015282811660248301526000917f00000000000000000000000000000000000000000000000000000000000000009091169063d6b93a9f90604401602060405180830381865afa15801561312d573d6000803e3d6000fd5b505050506040513d601f19601f82011682018060405250810190610c659190614464565b6131916040518060e00160405280600081526020016000815260200160008152602001600081526020016000815260200160008152602001600081525090565b600060055490506000807f00000000000000000000000000000000000000000000000000000000000000006001600160a01b03166302312aec6040518163ffffffff1660e01b81526004016040805180830381865afa1580156131f8573d6000803e3d6000fd5b505050506040513d601f19601f8201168201806040525081019061321c9190614481565b915091506040518060e00160405280600160009054906101000a90046001600160a01b03166001600160a01b03166318160ddd6040518163ffffffff1660e01b8152600401602060405180830381865afa15801561327e573d6000803e3d6000fd5b505050506040513d601f19601f820116820180604052508101906132a29190614215565b815260405163769bb15560e11b81526001600160a01b037f0000000000000000000000000000000000000000000000000000000000000000811660048301526020909201917f0000000000000000000000000000000000000000000000000000000000000000169063ed3762aa90602401602060405180830381865afa158015613330573d6000803e3d6000fd5b505050506040513d601f19601f820116820180604052508101906133549190614215565b81526020016006548152602001848152602001600454856133759190614363565b8152602081019390935260409092015292915050565b60008082116133cf5760405162461bcd60e51b815260206004820152601060248201526f4469766973696f6e206279207a65726f60801b60448201526064016102b8565b836000036133df575060006111e4565b838302838582816133f2576133f26144a5565b040361341057828181613407576134076144a5565b049150506111e4565b50600061341d83866144bb565b9050600061342b84876144cf565b9050600061343985876144bb565b9050600061344786886144cf565b905085613454828561444d565b61345e91906144bb565b613468838561444d565b613472838761444d565b8861347d868961444d565b613487919061444d565b6134919190614363565b61349b9190614363565b6134a59190614363565b98975050505050505050565b6002546000906134d19084908390600160a01b900463ffffffff166135bb565b156135435761353c8360200151600260149054906101000a900463ffffffff1663ffffffff168560a00151613506919061444d565b6127108587604001516135199190614268565b8760c00151613528919061444d565b613532919061444d565b6111df91906144bb565b9050610c65565b6040830151602084015161353c91849061338b565b6000806135658484613d32565b6001600160a01b03841660009081526003602052604090205490915061359861358e83836135a1565b8660600151613a67565b95945050505050565b60008183116135b15760006111e4565b6111e48284614268565b60006135db828560a0015186602001516135d5919061444d565b90613ea7565b8460c001518486604001516135f09190614268565b6135fa919061444d565b1015949350505050565b60008060006136138787613d32565b6001600160a01b038781166000818152600360205260408082205460015491516370a0823160e01b81526004810194909452949550909216906370a0823190602401602060405180830381865afa158015613672573d6000803e3d6000fd5b505050506040513d601f19601f820116820180604052508101906136969190614215565b9050806000036136af5760008094509450505050613783565b60006136bc84898461338b565b905060008760028111156136d2576136d26144e3565b036137035760006136e385856135a1565b90506136ef8282613a67565b95506136fb8683614268565b965050613762565b6001876002811115613717576137176144e3565b03613739576137268184613a67565b95506137328682614268565b9450613762565b60008411613748576000613753565b61375383828661338b565b955061375f8682614268565b94505b61376e85600554613a67565b945061377c86600454613a67565b9550505050505b94509492505050565b8015611ac457306001600160a01b038416036137ee5780600560008282546137b49190614268565b90915550611ac490506001600160a01b037f0000000000000000000000000000000000000000000000000000000000000000168383613037565b80600560008282546138009190614363565b90915550611ac490506001600160a01b037f000000000000000000000000000000000000000000000000000000000000000016848484613a2f565b6001600160a01b03821660009081526003602052604081208054839290613863908490614268565b92505081905550806004600082825461387c9190614268565b90915550505050565b80156125a557806006600082825461389d9190614268565b90915550506002546125a5906001600160a01b03168383613037565b6001546040516370a0823160e01b81526001600160a01b03838116600483015260009283929116906370a0823190602401602060405180830381865afa158015613907573d6000803e3d6000fd5b505050506040513d601f19601f8201168201806040525081019061392b9190614215565b90508060000361393f576000915050610c65565b6001600160a01b0383166000908152600360205260408120549081900361396857509050610c65565b8451608086015160009161397e9190859061338b565b9050600061398c82846135a1565b608088015188519192506139a29190839061338b565b979650505050505050565b6002546000906139cd9084908390600160a01b900463ffffffff166135bb565b15613a1a5761353c83604001518460c00151613532600260149054906101000a900463ffffffff1663ffffffff16868860200151613a0b9190614268565b8860a001516135d5919061444d565b6020830151604084015161353c91849061338b565b6040516001600160a01b0380851660248301528316604482015260648101829052611f159085906323b872dd60e01b90608401613063565b6000818310613a7657816111e4565b5090919050565b6001600160a01b03821660009081526003602052604081208054839290613aa5908490614363565b92505081905550806004600082825461387c9190614363565b600063ffffffff821115613b235760405162461bcd60e51b815260206004820152602660248201527f53616665436173743a2076616c756520646f65736e27742066697420696e203360448201526532206269747360d01b60648201526084016102b8565b5090565b600061ffff821115613b235760405162461bcd60e51b815260206004820152602660248201527f53616665436173743a2076616c756520646f65736e27742066697420696e203160448201526536206269747360d01b60648201526084016102b8565b600080836040015160001480613b9f57508351155b600254602086015160a0870151929350600092613bcd92600160c01b900463ffffffff16916135d59161444d565b905060008560c001518660400151613be5919061444d565b8211613bf2576000613c10565b604086015160c0870151613c0690846144bb565b613c109190614268565b90506000613c1e8683613a67565b90506000613c2c87836135a1565b600254909150600090613c4f90849061271090600160e01b900461ffff1661338b565b9050600086613c6f5760408a01518a51613c6a91849061338b565b613c71565b815b90506000878015613c80575081155b613cb157613cac84868d60400151613c989190614363565b8d51613ca5908690614363565b919061338b565b613cb3565b835b9050613cbf8183614363565b9b9a5050505050505050505050565b3415612ac8573460066000828254613ce69190614363565b909155505060025460408051630d0e30db60e41b815290516001600160a01b039092169163d0e30db0913491600480830192600092919082900301818588803b158015611db057600080fd5b6001546040516370a0823160e01b81526001600160a01b03838116600483015260009283929116906370a0823190602401602060405180830381865afa158015613d80573d6000803e3d6000fd5b505050506040513d601f19601f82011682018060405250810190613da49190614215565b905080600003613db8576000915050610c65565b83516080850151613dca91839061338b565b949350505050565b6000613e27826040518060400160405280602081526020017f5361666545524332303a206c6f772d6c6576656c2063616c6c206661696c6564815250856001600160a01b0316613eb69092919063ffffffff16565b9050805160001480613e48575080806020019051810190613e489190614464565b611ac45760405162461bcd60e51b815260206004820152602a60248201527f5361666545524332303a204552433230206f7065726174696f6e20646964206e6044820152691bdd081cdd58d8d9595960b21b60648201526084016102b8565b60006111e4838361271061338b565b6060613dca848460008585600080866001600160a01b03168587604051613edd91906144f9565b60006040518083038185875af1925050503d8060008114613f1a576040519150601f19603f3d011682016040523d82523d6000602084013e613f1f565b606091505b50915091506139a28783838760608315613f9a578251600003613f93576001600160a01b0385163b613f935760405162461bcd60e51b815260206004820152601d60248201527f416464726573733a2063616c6c20746f206e6f6e2d636f6e747261637400000060448201526064016102b8565b5081613dca565b613dca8383815115613faf5781518083602001fd5b8060405162461bcd60e51b81526004016102b89190614515565b6001600160a01b0381168114610c1657600080fd5b600060208284031215613ff057600080fd5b81356111e481613fc9565b60006020828403121561400d57600080fd5b81356001600160e01b0319811681146111e457600080fd5b6000806040838503121561403857600080fd5b823561404381613fc9565b946020939093013593505050565b60006020828403121561406357600080fd5b5035919050565b6000806040838503121561407d57600080fd5b8235915060208301356003811061409357600080fd5b809150509250929050565b8015158114610c1657600080fd5b634e487b7160e01b600052604160045260246000fd5b6000806000606084860312156140d757600080fd5b8335925060208401356140e98161409e565b9150604084013567ffffffffffffffff8082111561410657600080fd5b818601915086601f83011261411a57600080fd5b81358181111561412c5761412c6140ac565b604051601f8201601f19908116603f01168101908382118183101715614154576141546140ac565b8160405282815289602084870101111561416d57600080fd5b8260208601602083013760006020848301015280955050505050509250925092565b600080604083850312156141a257600080fd5b8235915060208301356140938161409e565b6000806000606084860312156141c957600080fd5b83356141d481613fc9565b95602085013595506040909401359392505050565b60208082526012908201527137b7363c9030b9b9b2ba1036b0b730b3b2b960711b604082015260600190565b60006020828403121561422757600080fd5b5051919050565b6020808252600a90820152691bdb9b1e481859d95b9d60b21b604082015260600190565b634e487b7160e01b600052601160045260246000fd5b81810381811115610c6557610c65614252565b60208082526034908201527f746f6b656e20737570706c79206c656674206166746572206578697420697320604082015273746f6f206c6f7720616e64206e6f6e2d7a65726f60601b606082015260800190565b60208082526022908201527f616d6f756e74206f662073656e7420746f6b656e7320697320746f6f20736d616040820152611b1b60f21b606082015260800190565b60208082526032908201527f636f6c6c61746572616c206c656674206166746572206578697420697320746f6040820152716f206c6f7720616e64206e6f6e2d7a65726f60701b606082015260800190565b80820180821115610c6557610c65614252565b6020808252601b908201527f662d617373657420616c6c6f77616e636520746f6f20736d616c6c0000000000604082015260600190565b60005b838110156143c85781810151838201526020016143b0565b50506000910152565b600081518084526143e98160208601602086016143ad565b601f01601f19169290920160200192915050565b6001600160a01b0385811682528416602082015260408101839052608060608201819052600090610d46908301846143d1565b60006020828403121561444257600080fd5b81516111e481613fc9565b8082028115828204841417610c6557610c65614252565b60006020828403121561447657600080fd5b81516111e48161409e565b6000806040838503121561449457600080fd5b505080516020909101519092909150565b634e487b7160e01b600052601260045260246000fd5b6000826144ca576144ca6144a5565b500490565b6000826144de576144de6144a5565b500690565b634e487b7160e01b600052602160045260246000fd5b6000825161450b8184602087016143ad565b9190910192915050565b6020815260006111e460208301846143d156fea2646970667358221220ae05f79f65604245ce2f0967c98f08a7b50829b59f44296414c4b59abbe46fb064736f6c63430008140033a2646970667358221220e336f00bad4fbbf1ac8c2d3271079e59b8b4ec2eb3b33791949a09569217c83564736f6c63430008140033",
  "linkReferences": {},
  "deployedLinkReferences": {}
}