{
  "_format": "hh-sol-artifact-1",
  "contractName": "CollateralPoolFactory",
  "sourceName": "contracts/fasset/implementation/CollateralPoolFactory.sol",
  "abi": [
    {
      "inputs": [
        {
          "internalType": "contract IIAssetManager",
          "name": "_assetManager",
          "type": "address"
        },
        {
          "internalType": "address",
          "name": "_agentVault",
          "type": "address"
        },
        {
          "components": [
            {
              "internalType": "string",
              "name": "underlyingAddressString",
              "type": "string"
            },
            {
              "internalType": "contract IERC20",
              "name": "class1CollateralToken",
              "type": "address"
            },
            {
              "internalType": "uint256",
              "name": "feeBIPS",
              "type": "uint256"
            },
            {
              "internalType": "uint256",
              "name": "poolFeeShareBIPS",
              "type": "uint256"
            },
            {
              "internalType": "uint256",
              "name": "mintingClass1CollateralRatioBIPS",
              "type": "uint256"
            },
            {
              "internalType": "uint256",
              "name": "mintingPoolCollateralRatioBIPS",
              "type": "uint256"
            },
            {
              "internalType": "uint256",
              "name": "buyFAssetByAgentFactorBIPS",
              "type": "uint256"
            },
            {
              "internalType": "uint256",
              "name": "poolExitCollateralRatioBIPS",
              "type": "uint256"
            },
            {
              "internalType": "uint256",
              "name": "poolTopupCollateralRatioBIPS",
              "type": "uint256"
            },
            {
              "internalType": "uint256",
              "name": "poolTopupTokenPriceFactorBIPS",
              "type": "uint256"
            }
          ],
          "internalType": "struct AgentSettings.Data",
          "name": "_settings",
          "type": "tuple"
        }
      ],
      "name": "create",
      "outputs": [
        {
          "internalType": "contract IICollateralPool",
          "name": "",
          "type": "address"
        }
      ],
      "stateMutability": "nonpayable",
      "type": "function"
    },
    {
      "inputs": [
        {
          "internalType": "contract IICollateralPool",
          "name": "_pool",
          "type": "address"
        }
      ],
      "name": "createPoolToken",
      "outputs": [
        {
          "internalType": "address",
          "name": "",
          "type": "address"
        }
      ],
      "stateMutability": "nonpayable",
      "type": "function"
    },
    {
      "inputs": [
        {
          "internalType": "bytes4",
          "name": "_interfaceId",
          "type": "bytes4"
        }
      ],
      "name": "supportsInterface",
      "outputs": [
        {
          "internalType": "bool",
          "name": "",
          "type": "bool"
        }
      ],
      "stateMutability": "pure",
      "type": "function"
    }
  ],
  "bytecode": "0x608060405234801561001057600080fd5b50615dce806100206000396000f3fe608060405234801561001057600080fd5b50600436106100415760003560e01c806301ffc9a7146100465780632b625f231461006e578063f713fdd914610099575b600080fd5b61005961005436600461031b565b6100ac565b60405190151581526020015b60405180910390f35b61008161007c366004610364565b6100e3565b6040516001600160a01b039091168152602001610065565b6100816100a736600461045e565b610127565b60006001600160e01b031982166301ffc9a760e01b14806100dd57506001600160e01b03198216636e38d17d60e11b145b92915050565b600080826040516100f3906102ff565b6001600160a01b039091168152602001604051809103906000f08015801561011f573d6000803e3d6000fd5b509392505050565b600080846001600160a01b0316637c7db1a56040518163ffffffff1660e01b8152600401602060405180830381865afa158015610168573d6000803e3d6000fd5b505050506040513d601f19601f8201168201806040525081019061018c919061055a565b905060008486836101a08760e0015161022e565b6101ae88610100015161022e565b6101bc89610120015161029c565b6040516101c89061030d565b6001600160a01b039687168152948616602086015294909216604084015263ffffffff908116606084015216608082015261ffff90911660a082015260c001604051809103906000f080158015610223573d6000803e3d6000fd5b509695505050505050565b600063ffffffff8211156102985760405162461bcd60e51b815260206004820152602660248201527f53616665436173743a2076616c756520646f65736e27742066697420696e203360448201526532206269747360d01b60648201526084015b60405180910390fd5b5090565b600061ffff8211156102985760405162461bcd60e51b815260206004820152602660248201527f53616665436173743a2076616c756520646f65736e27742066697420696e203160448201526536206269747360d01b606482015260840161028f565b611146806200057883390190565b6146db80620016be83390190565b60006020828403121561032d57600080fd5b81356001600160e01b03198116811461034557600080fd5b9392505050565b6001600160a01b038116811461036157600080fd5b50565b60006020828403121561037657600080fd5b81356103458161034c565b634e487b7160e01b600052604160045260246000fd5b604051610140810167ffffffffffffffff811182821017156103bb576103bb610381565b60405290565b600082601f8301126103d257600080fd5b813567ffffffffffffffff808211156103ed576103ed610381565b604051601f8301601f19908116603f0116810190828211818310171561041557610415610381565b8160405283815286602085880101111561042e57600080fd5b836020870160208301376000602085830101528094505050505092915050565b80356104598161034c565b919050565b60008060006060848603121561047357600080fd5b833561047e8161034c565b9250602084013561048e8161034c565b9150604084013567ffffffffffffffff808211156104ab57600080fd5b9085019061014082880312156104c057600080fd5b6104c8610397565b8235828111156104d757600080fd5b6104e3898286016103c1565b8252506104f26020840161044e565b602082015260408301356040820152606083013560608201526080830135608082015260a083013560a082015260c083013560c082015260e083013560e082015261010091508183013582820152610120915081830135828201528093505050509250925092565b60006020828403121561056c57600080fd5b81516103458161034c56fe60a06040523480156200001157600080fd5b5060405162001146380380620011468339810160408190526200003491620000bc565b6040518060400160405280601c81526020017f46417373657420436f6c6c61746572616c20506f6f6c20546f6b656e00000000815250604051806040016040528060048152602001631190d41560e21b815250816003908162000098919062000193565b506004620000a7828262000193565b5050506001600160a01b03166080526200025f565b600060208284031215620000cf57600080fd5b81516001600160a01b0381168114620000e757600080fd5b9392505050565b634e487b7160e01b600052604160045260246000fd5b600181811c908216806200011957607f821691505b6020821081036200013a57634e487b7160e01b600052602260045260246000fd5b50919050565b601f8211156200018e57600081815260208120601f850160051c81016020861015620001695750805b601f850160051c820191505b818110156200018a5782815560010162000175565b5050505b505050565b81516001600160401b03811115620001af57620001af620000ee565b620001c781620001c0845462000104565b8462000140565b602080601f831160018114620001ff5760008415620001e65750858301515b600019600386901b1c1916600185901b1785556200018a565b600085815260208120601f198616915b8281101562000230578886015182559484019460019091019084016200020f565b50858210156200024f5787850151600019600388901b60f8161c191681555b5050505050600190811b01905550565b608051610ea1620002a560003960008181610281015281816102c60152818161045c015281816104c901528181610551015281816106430152610bfe0152610ea16000f3fe608060405234801561001057600080fd5b50600436106101155760003560e01c806359355736116100a2578063a457c2d711610071578063a457c2d714610230578063a9059cbb14610243578063c7d9f4d114610256578063dd62ed3e14610269578063ff0eccf61461027c57600080fd5b806359355736146101d957806370a08231146101ec57806395d89b41146102155780639dc29fac1461021d57600080fd5b806318160ddd116100e957806318160ddd1461017f57806323b872dd14610191578063313ce567146101a457806339509351146101b357806340c10f19146101c657600080fd5b8062f55d9d1461011a57806301ffc9a71461012f57806306fdde0314610157578063095ea7b31461016c575b600080fd5b61012d610128366004610c87565b6102bb565b005b61014261013d366004610cab565b61030f565b60405190151581526020015b60405180910390f35b61015f610361565b60405161014e9190610cd5565b61014261017a366004610d23565b6103f3565b6002545b60405190815260200161014e565b61014261019f366004610d4f565b61040b565b6040516012815260200161014e565b6101426101c1366004610d23565b61042f565b61012d6101d4366004610d23565b610451565b6101836101e7366004610c87565b6104a7565b6101836101fa366004610c87565b6001600160a01b031660009081526020819052604090205490565b61015f610537565b61012d61022b366004610d23565b610546565b61014261023e366004610d23565b610598565b610142610251366004610d23565b610613565b610183610264366004610c87565b610621565b610183610277366004610d90565b610674565b6102a37f000000000000000000000000000000000000000000000000000000000000000081565b6040516001600160a01b03909116815260200161014e565b336001600160a01b037f0000000000000000000000000000000000000000000000000000000000000000161461030c5760405162461bcd60e51b815260040161030390610dc9565b60405180910390fd5b50565b60006001600160e01b031982166301ffc9a760e01b148061034057506001600160e01b031982166336372b0760e01b145b8061035b57506001600160e01b031982166361e26f1160e01b145b92915050565b60606003805461037090610df7565b80601f016020809104026020016040519081016040528092919081815260200182805461039c90610df7565b80156103e95780601f106103be576101008083540402835291602001916103e9565b820191906000526020600020905b8154815290600101906020018083116103cc57829003601f168201915b5050505050905090565b60003361040181858561069f565b5060019392505050565b6000336104198582856107c4565b61042485858561083e565b506001949350505050565b6000336104018185856104428383610674565b61044c9190610e31565b61069f565b336001600160a01b037f000000000000000000000000000000000000000000000000000000000000000016146104995760405162461bcd60e51b815260040161030390610dc9565b6104a382826109ed565b5050565b604051633a22a94d60e01b81526001600160a01b0382811660048301526000917f000000000000000000000000000000000000000000000000000000000000000090911690633a22a94d906024015b602060405180830381865afa158015610513573d6000803e3d6000fd5b505050506040513d601f19601f8201168201806040525081019061035b9190610e52565b60606004805461037090610df7565b336001600160a01b037f0000000000000000000000000000000000000000000000000000000000000000161461058e5760405162461bcd60e51b815260040161030390610dc9565b6104a38282610ab8565b600033816105a68286610674565b9050838110156106065760405162461bcd60e51b815260206004820152602560248201527f45524332303a2064656372656173656420616c6c6f77616e63652062656c6f77604482015264207a65726f60d81b6064820152608401610303565b610424828686840361069f565b60003361040181858561083e565b604051636532587160e01b81526001600160a01b0382811660048301526000917f0000000000000000000000000000000000000000000000000000000000000000909116906365325871906024016104f6565b6001600160a01b03918216600090815260016020908152604080832093909416825291909152205490565b6001600160a01b0383166107015760405162461bcd60e51b8152602060048201526024808201527f45524332303a20617070726f76652066726f6d20746865207a65726f206164646044820152637265737360e01b6064820152608401610303565b6001600160a01b0382166107625760405162461bcd60e51b815260206004820152602260248201527f45524332303a20617070726f766520746f20746865207a65726f206164647265604482015261737360f01b6064820152608401610303565b6001600160a01b0383811660008181526001602090815260408083209487168084529482529182902085905590518481527f8c5be1e5ebec7d5bd14f71427d1e84f3dd0314c0f7b2291e5b200ac8c7c3b92591015b60405180910390a3505050565b60006107d08484610674565b90506000198114610838578181101561082b5760405162461bcd60e51b815260206004820152601d60248201527f45524332303a20696e73756666696369656e7420616c6c6f77616e63650000006044820152606401610303565b610838848484840361069f565b50505050565b6001600160a01b0383166108a25760405162461bcd60e51b815260206004820152602560248201527f45524332303a207472616e736665722066726f6d20746865207a65726f206164604482015264647265737360d81b6064820152608401610303565b6001600160a01b0382166109045760405162461bcd60e51b815260206004820152602360248201527f45524332303a207472616e7366657220746f20746865207a65726f206164647260448201526265737360e81b6064820152608401610303565b61090f838383610bf3565b6001600160a01b038316600090815260208190526040902054818110156109875760405162461bcd60e51b815260206004820152602660248201527f45524332303a207472616e7366657220616d6f756e7420657863656564732062604482015265616c616e636560d01b6064820152608401610303565b6001600160a01b03848116600081815260208181526040808320878703905593871680835291849020805487019055925185815290927fddf252ad1be2c89b69c2b068fc378daa952ba7f163c4a11628f55a4df523b3ef910160405180910390a3610838565b6001600160a01b038216610a435760405162461bcd60e51b815260206004820152601f60248201527f45524332303a206d696e7420746f20746865207a65726f2061646472657373006044820152606401610303565b610a4f60008383610bf3565b8060026000828254610a619190610e31565b90915550506001600160a01b038216600081815260208181526040808320805486019055518481527fddf252ad1be2c89b69c2b068fc378daa952ba7f163c4a11628f55a4df523b3ef910160405180910390a35050565b6001600160a01b038216610b185760405162461bcd60e51b815260206004820152602160248201527f45524332303a206275726e2066726f6d20746865207a65726f206164647265736044820152607360f81b6064820152608401610303565b610b2482600083610bf3565b6001600160a01b03821660009081526020819052604090205481811015610b985760405162461bcd60e51b815260206004820152602260248201527f45524332303a206275726e20616d6f756e7420657863656564732062616c616e604482015261636560f01b6064820152608401610303565b6001600160a01b0383166000818152602081815260408083208686039055600280548790039055518581529192917fddf252ad1be2c89b69c2b068fc378daa952ba7f163c4a11628f55a4df523b3ef91016107b7565b505050565b336001600160a01b037f00000000000000000000000000000000000000000000000000000000000000001614610bee57610c2c83610621565b811115610bee5760405162461bcd60e51b8152602060048201526014602482015273667265652062616c616e636520746f6f206c6f7760601b6044820152606401610303565b6001600160a01b038116811461030c57600080fd5b600060208284031215610c9957600080fd5b8135610ca481610c72565b9392505050565b600060208284031215610cbd57600080fd5b81356001600160e01b031981168114610ca457600080fd5b600060208083528351808285015260005b81811015610d0257858101830151858201604001528201610ce6565b506000604082860101526040601f19601f8301168501019250505092915050565b60008060408385031215610d3657600080fd5b8235610d4181610c72565b946020939093013593505050565b600080600060608486031215610d6457600080fd5b8335610d6f81610c72565b92506020840135610d7f81610c72565b929592945050506040919091013590565b60008060408385031215610da357600080fd5b8235610dae81610c72565b91506020830135610dbe81610c72565b809150509250929050565b6020808252601490820152731bdb9b1e4818dbdb1b185d195c985b081c1bdbdb60621b604082015260600190565b600181811c90821680610e0b57607f821691505b602082108103610e2b57634e487b7160e01b600052602260045260246000fd5b50919050565b8082018082111561035b57634e487b7160e01b600052601160045260246000fd5b600060208284031215610e6457600080fd5b505191905056fea264697066735822122090374da1edf2dcfef89e278533ff0e7e54705a4a19ce1d2cd7ace9ca74d6909b64736f6c6343000814003360e06040523480156200001157600080fd5b50604051620046db380380620046db83398101604081905262000034916200015a565b60016000556001600160a01b0380871660805285811660a081905290851660c05260408051635ad2445360e11b8152905163b5a488a6916004808201926020929091908290030181865afa15801562000091573d6000803e3d6000fd5b505050506040513d601f19601f82011682018060405250810190620000b79190620001ed565b6002805461ffff909316600160e01b0261ffff60e01b1963ffffffff958616600160c01b021665ffffffffffff60c01b1995909616600160a01b026001600160c01b03199094166001600160a01b0393909316929092179290921792909216929092171790555062000214915050565b6001600160a01b03811681146200013d57600080fd5b50565b805163ffffffff811681146200015557600080fd5b919050565b60008060008060008060c087890312156200017457600080fd5b8651620001818162000127565b6020880151909650620001948162000127565b6040880151909550620001a78162000127565b9350620001b76060880162000140565b9250620001c76080880162000140565b915060a087015161ffff81168114620001df57600080fd5b809150509295509295509295565b6000602082840312156200020057600080fd5b81516200020d8162000127565b9392505050565b60805160a05160c05161439462000347600039600081816104f901528181610aa301528181610bbb015281816115a7015281816116470152818161220f01528181612656015281816129700152818161331901526133cb0152600081816105cf015281816107d201528181610fe001528181611402015281816116ce015281816117740152818161181b01528181611bdc01528181611da501528181611e6801528181611f1a015281816123100152818161243201528181612a6e01528181612c6301528181612def01528181612f3b0152613644015260008181610545015281816113d7015281816117a101528181611848015281816122e0015281816124a80152818161256201528181612591015281816125d001528181612c3301528181612f0d015261361101526143946000f3fe60806040526004361061023e5760003560e01c806388985cd61161012e578063ba133b87116100ab578063ee781db01161006f578063ee781db014610747578063f4d000b214610767578063fbebcadf146103c9578063fc0c546a14610787578063fd86d3ea146107a757600080fd5b8063ba133b87146106a8578063c1b0bbf8146106bd578063cb209413146106dd578063cbabdf3914610713578063cbdf382c1461072957600080fd5b8063a854a6a2116100f2578063a854a6a214610631578063ac3736c114610651578063adf58c1514610664578063b337929b14610684578063b9e26483146102f157600080fd5b806388985cd614610587578063923f8932146105a757806394217ad1146105bd5780639a4247e6146105f15780639edbf0071461061157600080fd5b80634ac8eb5f116101bc578063787b9ca811610180578063787b9ca8146104b45780637b6e1b55146104d45780637c7db1a5146104e7578063815ea9d61461053357806386ac57a21461056757600080fd5b80634ac8eb5f1461041e5780635ca36489146104345780635e318e071461045457806365325871146104745780636d73e7c81461049457600080fd5b806333ce01fd1161020357806333ce01fd146103505780633a22a94d146103705780633cfc747d14610390578063406c7007146103c95780634a4ac2ef146103e957600080fd5b8062f55d9d1461029c57806301ffc9a7146102bc5780630ac07344146102f15780630dc1e5e1146102f15780632f35eac21461031b57600080fd5b3661029757600254600160f01b900460ff166102955760405162461bcd60e51b81526020600482015260116024820152706f6e6c7920696e7465726e616c2075736560781b60448201526064015b60405180910390fd5b005b600080fd5b3480156102a857600080fd5b506102956102b7366004613bd7565b6107c7565b3480156102c857600080fd5b506102dc6102d7366004613bf4565b610c39565b60405190151581526020015b60405180910390f35b3480156102fd57600080fd5b5061030d670de0b6b3a764000081565b6040519081526020016102e8565b34801561032757600080fd5b5061033b610336366004613c1e565b610c8b565b604080519283526020830191909152016102e8565b34801561035c57600080fd5b5061029561036b366004613bd7565b610fd5565b34801561037c57600080fd5b5061030d61038b366004613bd7565b611091565b34801561039c57600080fd5b506002546103b490600160a01b900463ffffffff1681565b60405163ffffffff90911681526020016102e8565b3480156103d557600080fd5b5061030d6103e4366004613c52565b611127565b3480156103f557600080fd5b5060025461040b90600160e01b900461ffff1681565b60405161ffff90911681526020016102e8565b34801561042a57600080fd5b5061030d60065481565b34801561044057600080fd5b5061029561044f366004613cd3565b6111f1565b34801561046057600080fd5b5061029561046f366004613d84565b611a00565b34801561048057600080fd5b5061030d61048f366004613bd7565b611b2d565b3480156104a057600080fd5b506102956104af366004613e35565b611b44565b3480156104c057600080fd5b506102956104cf366004613d84565b611bd1565b6102956104e2366004613ef0565b611c93565b3480156104f357600080fd5b5061051b7f000000000000000000000000000000000000000000000000000000000000000081565b6040516001600160a01b0390911681526020016102e8565b34801561053f57600080fd5b5061051b7f000000000000000000000000000000000000000000000000000000000000000081565b34801561057357600080fd5b50610295610582366004613bd7565b611d1f565b34801561059357600080fd5b506102956105a2366004613d84565b611d9a565b3480156105b357600080fd5b5061030d60045481565b3480156105c957600080fd5b5061051b7f000000000000000000000000000000000000000000000000000000000000000081565b3480156105fd57600080fd5b5061029561060c366004613d84565b611e5d565b34801561061d57600080fd5b5060025461051b906001600160a01b031681565b34801561063d57600080fd5b5061029561064c366004613d84565b611f0f565b61029561065f366004613f40565b611f71565b34801561067057600080fd5b5061029561067f366004613f65565b612427565b34801561069057600080fd5b506002546103b490600160c01b900463ffffffff1681565b3480156106b457600080fd5b5061029561264c565b3480156106c957600080fd5b5061030d6106d8366004613bd7565b6128d5565b3480156106e957600080fd5b5061030d6106f8366004613bd7565b6001600160a01b031660009081526003602052604090205490565b34801561071f57600080fd5b5061030d60055481565b34801561073557600080fd5b506001546001600160a01b031661051b565b34801561075357600080fd5b50610295610762366004613d84565b6128ec565b34801561077357600080fd5b50610295610782366004613bd7565b612a63565b34801561079357600080fd5b5060015461051b906001600160a01b031681565b3480156107b357600080fd5b5061030d6107c2366004613bd7565b612c98565b336001600160a01b037f0000000000000000000000000000000000000000000000000000000000000000161461080f5760405162461bcd60e51b815260040161028c90613f9a565b610817612caf565b600160009054906101000a90046001600160a01b03166001600160a01b03166318160ddd6040518163ffffffff1660e01b8152600401602060405180830381865afa15801561086a573d6000803e3d6000fd5b505050506040513d601f19601f8201168201806040525081019061088e9190613fc6565b156108ec5760405162461bcd60e51b815260206004820152602860248201527f63616e6e6f742064657374726f79206120706f6f6c20776974682069737375656044820152676420746f6b656e7360c01b606482015260840161028c565b6006541561094d5760405162461bcd60e51b815260206004820152602860248201527f63616e6e6f742064657374726f79206120706f6f6c20686f6c64696e6720636f6044820152671b1b185d195c985b60c21b606482015260840161028c565b600554156109ac5760405162461bcd60e51b815260206004820152602660248201527f63616e6e6f742064657374726f79206120706f6f6c20686f6c64696e6720662d60448201526561737365747360d01b606482015260840161028c565b60015460405162f55d9d60e01b81526001600160a01b0383811660048301529091169062f55d9d90602401600060405180830381600087803b1580156109f157600080fd5b505af1158015610a05573d6000803e3d6000fd5b50505050610a138147612d08565b6002546040516370a0823160e01b81523060048201526000916001600160a01b0316906370a0823190602401602060405180830381865afa158015610a5c573d6000803e3d6000fd5b505050506040513d601f19601f82011682018060405250810190610a809190613fc6565b6040516370a0823160e01b81523060048201529091506000906001600160a01b037f000000000000000000000000000000000000000000000000000000000000000016906370a0823190602401602060405180830381865afa158015610aea573d6000803e3d6000fd5b505050506040513d601f19601f82011682018060405250810190610b0e9190613fc6565b90508115610b8f5760025460405163a9059cbb60e01b81526001600160a01b038581166004830152602482018590529091169063a9059cbb906044016020604051808303816000875af1158015610b69573d6000803e3d6000fd5b505050506040513d601f19601f82011682018060405250810190610b8d9190613fdf565b505b8015610c2a5760405163a9059cbb60e01b81526001600160a01b038481166004830152602482018390527f0000000000000000000000000000000000000000000000000000000000000000169063a9059cbb906044016020604051808303816000875af1158015610c04573d6000803e3d6000fd5b505050506040513d601f19601f82011682018060405250810190610c289190613fdf565b505b5050610c366001600055565b50565b60006001600160e01b031982166301ffc9a760e01b1480610c6a57506001600160e01b03198216637b5d9b4560e01b145b80610c8557506001600160e01b0319821663a8ebf1fd60e01b145b92915050565b600080610c96612caf565b60008411610cdc5760405162461bcd60e51b8152602060048201526013602482015272746f6b656e207368617265206973207a65726f60681b604482015260640161028c565b6001546040516370a0823160e01b81523360048201526001600160a01b03909116906370a0823190602401602060405180830381865afa158015610d24573d6000803e3d6000fd5b505050506040513d601f19601f82011682018060405250810190610d489190613fc6565b841115610d8f5760405162461bcd60e51b8152602060048201526015602482015274746f6b656e2062616c616e636520746f6f206c6f7760581b604482015260640161028c565b6000610d99612da3565b8051909150851480610dc057508051670de0b6b3a764000090610dbd908790614012565b10155b610ddc5760405162461bcd60e51b815260040161028c90614025565b60408101518151600091610df291889190612fdd565b905060008111610e145760405162461bcd60e51b815260040161028c90614079565b8082604001511480610e3d5750670de0b6b3a7640000818360400151610e3a9190614012565b10155b610e595760405162461bcd60e51b815260040161028c906140bb565b600254610e769083908390600160a01b900463ffffffff16613103565b610ece5760405162461bcd60e51b815260206004820152602360248201527f636f6c6c61746572616c20726174696f2066616c6c732062656c6f77206578696044820152623a21a960e91b606482015260840161028c565b600080610edd84338a8a61314c565b90925090508015610ef357610ef33033836132c6565b8115610f0357610f033383613404565b600154604051632770a7eb60e21b8152336004820152602481018a90526001600160a01b0390911690639dc29fac90604401600060405180830381600087803b158015610f4f57600080fd5b505af1158015610f63573d6000803e3d6000fd5b50505050610f7230338561344e565b60408051898152602081018590529081018290526000606082015233907f6bcf2464228029946fa6af5456662d377896b780e680909f9bbe7ffe6548cbef9060800160405180910390a29194509092505050610fce6001600055565b9250929050565b336001600160a01b037f0000000000000000000000000000000000000000000000000000000000000000161461101d5760405162461bcd60e51b815260040161028c90613f9a565b6001546001600160a01b03161561106f5760405162461bcd60e51b81526020600482015260166024820152751c1bdbdb081d1bdad95b88185b1c9958591e481cd95d60521b604482015260640161028c565b600180546001600160a01b0319166001600160a01b0392909216919091179055565b60008061109c612da3565b90506110a8818461350f565b6001546040516370a0823160e01b81526001600160a01b038681166004830152909116906370a0823190602401602060405180830381865afa1580156110f2573d6000803e3d6000fd5b505050506040513d601f19601f820116820180604052508101906111169190613fc6565b6111209190614012565b9392505050565b6000611132336135fa565b61114e5760405162461bcd60e51b815260040161028c9061410d565b60405163596090c960e11b81523060048201819052602482015260448101839052600160648201526000906001600160a01b0385169063b2c12192906084016020604051808303816000875af11580156111ac573d6000803e3d6000fd5b505050506040513d601f19601f820116820180604052508101906111d09190613fc6565b905080600660008282546111e49190614131565b9091555090949350505050565b6111f9612caf565b6000831161123f5760405162461bcd60e51b8152602060048201526013602482015272746f6b656e207368617265206973207a65726f60681b604482015260640161028c565b6001546040516370a0823160e01b81523360048201526000916001600160a01b0316906370a0823190602401602060405180830381865afa158015611288573d6000803e3d6000fd5b505050506040513d601f19601f820116820180604052508101906112ac9190613fc6565b9050808411156112f65760405162461bcd60e51b8152602060048201526015602482015274746f6b656e2062616c616e636520746f6f206c6f7760581b604482015260640161028c565b6000611300612da3565b805190915085148061132757508051670de0b6b3a764000090611324908790614012565b10155b6113435760405162461bcd60e51b815260040161028c90614025565b8051604082015160009161135991908890612fdd565b90506000811161137b5760405162461bcd60e51b815260040161028c90614079565b80826040015114806113a45750670de0b6b3a76400008183604001516113a19190614012565b10155b6113c05760405162461bcd60e51b815260040161028c906140bb565b604051631e8bee0160e01b81526001600160a01b037f0000000000000000000000000000000000000000000000000000000000000000811660048301526000917f000000000000000000000000000000000000000000000000000000000000000090911690631e8bee0190602401602060405180830381865afa15801561144b573d6000803e3d6000fd5b505050506040513d601f19601f8201168201806040525081019061146f9190613fc6565b9050600061147d84846136b1565b9050808210156115495750806114938482613766565b9250600083116114b55760405162461bcd60e51b815260040161028c90614079565b82846040015114806114de5750670de0b6b3a76400008385604001516114db9190614012565b10155b6114fa5760405162461bcd60e51b815260040161028c906140bb565b6040840151845161150c918590612fdd565b60408051828152602081018490529199507f7543f09ac709677c25f5aa8284e92f885eae7c7496789dd47cf87e28e5a1cf1c910160405180910390a15b60006115558533613810565b905060008061156787338d600161314c565b91509150838310156116c657600061157f8486614012565b604051636eb1769f60e11b815233600482015230602482015290915081906001600160a01b037f0000000000000000000000000000000000000000000000000000000000000000169063dd62ed3e90604401602060405180830381865afa1580156115ee573d6000803e3d6000fd5b505050506040513d601f19601f820116820180604052508101906116129190613fc6565b10156116305760405162461bcd60e51b815260040161028c90614144565b6040516323b872dd60e01b81526001600160a01b037f000000000000000000000000000000000000000000000000000000000000000016906323b872dd906116809033903090869060040161417b565b6020604051808303816000875af115801561169f573d6000803e3d6000fd5b505050506040513d601f19601f820116820180604052508101906116c39190613fdf565b50505b83156118a9577f00000000000000000000000000000000000000000000000000000000000000006001600160a01b0316634942f65f6040518163ffffffff1660e01b8152600401602060405180830381865afa15801561172a573d6000803e3d6000fd5b505050506040513d601f19601f8201168201806040525081019061174e9190613fc6565b8410806117585750895b1561180457604051630ed000b360e41b81526001600160a01b037f0000000000000000000000000000000000000000000000000000000000000000169063ed000b30906117cd907f0000000000000000000000000000000000000000000000000000000000000000903390899060040161417b565b600060405180830381600087803b1580156117e757600080fd5b505af11580156117fb573d6000803e3d6000fd5b505050506118a9565b60405163f060b3f160e01b81526001600160a01b037f0000000000000000000000000000000000000000000000000000000000000000169063f060b3f190611876907f000000000000000000000000000000000000000000000000000000000000000090339089908f9060040161419f565b600060405180830381600087803b15801561189057600080fd5b505af11580156118a4573d6000803e3d6000fd5b505050505b60006118b5858561385a565b9050801561190e5780600560008282546118cf9190614012565b909155506118df90503382613870565b60006118eb828461385a565b9050801561190c576118fd8184614012565b92506119098185614131565b93505b505b811561191f5761191f3033846132c6565b821561192f5761192f3384613404565b600154604051632770a7eb60e21b8152336004820152602481018e90526001600160a01b0390911690639dc29fac90604401600060405180830381600087803b15801561197b57600080fd5b505af115801561198f573d6000803e3d6000fd5b5050505061199e30338961344e565b604080518d8152602081018990529081018290526060810186905233907f6bcf2464228029946fa6af5456662d377896b780e680909f9bbe7ffe6548cbef9060800160405180910390a25050505050505050506119fb6001600055565b505050565b611a08612caf565b60008111611a585760405162461bcd60e51b815260206004820181905260248201527f747279696e6720746f207769746864726177207a65726f20662d617373657473604482015260640161028c565b6000611a62612da3565b90506000611a708233613810565b905080831115611ac25760405162461bcd60e51b815260206004820152601e60248201527f6672656520662d61737365742062616c616e636520746f6f20736d616c6c0000604482015260640161028c565b611acc3384613870565b611ad73033856132c6565b604080516000808252602082018190528183018490526060820152905133917f6bcf2464228029946fa6af5456662d377896b780e680909f9bbe7ffe6548cbef919081900360800190a25050610c366001600055565b600080611b38612da3565b9050611120818461350f565b611b4d336135fa565b611b695760405162461bcd60e51b815260040161028c9061410d565b60025460405163dc4fcda760e01b81526001600160a01b039091169063dc4fcda790611b9b9085908590600401614254565b600060405180830381600087803b158015611bb557600080fd5b505af1158015611bc9573d6000803e3d6000fd5b505050505050565b336001600160a01b037f00000000000000000000000000000000000000000000000000000000000000001614611c195760405162461bcd60e51b815260040161028c90613f9a565b600254600160c01b900463ffffffff168111611c675760405162461bcd60e51b815260206004820152600d60248201526c76616c756520746f6f206c6f7760981b604482015260640161028c565b611c70816138b1565b600260146101000a81548163ffffffff021916908363ffffffff16021790555050565b611c9c336135fa565b611cb85760405162461bcd60e51b815260040161028c9061410d565b60405163e72dcdbb60e01b81526001600160a01b0383169063e72dcdbb903490611ce99085906000906004016142ab565b6000604051808303818588803b158015611d0257600080fd5b505af1158015611d16573d6000803e3d6000fd5b50505050505050565b611d28336135fa565b611d445760405162461bcd60e51b815260040161028c9061410d565b806001600160a01b031663f2a1f7676040518163ffffffff1660e01b8152600401600060405180830381600087803b158015611d7f57600080fd5b505af1158015611d93573d6000803e3d6000fd5b5050505050565b336001600160a01b037f00000000000000000000000000000000000000000000000000000000000000001614611de25760405162461bcd60e51b815260040161028c90613f9a565b600254600160a01b900463ffffffff168110611e315760405162461bcd60e51b815260206004820152600e60248201526d0ecc2d8eaca40e8dede40d0d2ced60931b604482015260640161028c565b611e3a816138b1565b600260186101000a81548163ffffffff021916908363ffffffff16021790555050565b336001600160a01b037f00000000000000000000000000000000000000000000000000000000000000001614611ea55760405162461bcd60e51b815260040161028c90613f9a565b6127108110611ee75760405162461bcd60e51b815260206004820152600e60248201526d0ecc2d8eaca40e8dede40d0d2ced60931b604482015260640161028c565b611ef08161391a565b6002601c6101000a81548161ffff021916908361ffff16021790555050565b336001600160a01b037f00000000000000000000000000000000000000000000000000000000000000001614611f575760405162461bcd60e51b815260040161028c90613f9a565b8060056000828254611f699190614131565b909155505050565b611f79612caf565b6000611f83612da3565b90506103e88160400151611f9791906142cf565b81511115611fe75760405162461bcd60e51b815260206004820152601a60248201527f706f6f6c206e61742062616c616e636520746f6f20736d616c6c000000000000604482015260640161028c565b670de0b6b3a764000034101561203f5760405162461bcd60e51b815260206004820152601d60248201527f616d6f756e74206f66206e61742073656e7420697320746f6f206c6f77000000604482015260640161028c565b805160000361219c5780604001513410156120e85760405162461bcd60e51b815260206004820152606060248201527f696620706f6f6c20686173206e6f20746f6b656e732c2062757420686f6c647360448201527f20636f6c6c61746572616c2c20796f75206e65656420746f2073656e6420617460648201527f206c65617374207468617420616d6f756e74206f6620636f6c6c61746572616c608482015260a40161028c565b606081015160a082015160c0830151612102913491612fdd565b101561219c5760405162461bcd60e51b815260206004820152605f60248201527f496620706f6f6c20686173206e6f20746f6b656e732c2062757420686f6c647360448201527f20662d61737365742c20796f75206e65656420746f2073656e64206174206c6560648201527f61737420662d617373657420776f727468206f6620636f6c6c61746572616c00608482015260a40161028c565b60006121a8823461397d565b90506000808360000151116121be5760006121d0565b825160808401516121d0918490612fdd565b90506000846121e8576121e3868361385a565b6121ea565b815b905080156122ab57604051636eb1769f60e11b815233600482015230602482015281907f00000000000000000000000000000000000000000000000000000000000000006001600160a01b03169063dd62ed3e90604401602060405180830381865afa15801561225e573d6000803e3d6000fd5b505050506040513d601f19601f820116820180604052508101906122829190613fc6565b10156122a05760405162461bcd60e51b815260040161028c90614144565b6122ab3330836132c6565b6122be336122b98385614012565b613870565b6122c6613aaf565b6002546040516351c452bf60e01b81526001600160a01b037f00000000000000000000000000000000000000000000000000000000000000008116600483015291821660248201527f0000000000000000000000000000000000000000000000000000000000000000909116906351c452bf90604401600060405180830381600087803b15801561235657600080fd5b505af115801561236a573d6000803e3d6000fd5b50506001546040516340c10f1960e01b8152336004820152602481018790526001600160a01b0390911692506340c10f199150604401600060405180830381600087803b1580156123ba57600080fd5b505af11580156123ce573d6000803e3d6000fd5b505060408051348152602081018790529081018490523392507f3af2c1ec57343b1e7e40c3f6c85f5ad943344cd8548bdf819f1da51aaebb3db6915060600160405180910390a2505050506124236001600055565b5050565b336001600160a01b037f0000000000000000000000000000000000000000000000000000000000000000161461246f5760405162461bcd60e51b815260040161028c90613f9a565b612477612caf565b6000612481612da3565b905061248e30858561344e565b6001546040516370a0823160e01b81526001600160a01b037f00000000000000000000000000000000000000000000000000000000000000008116600483015260009216906370a0823190602401602060405180830381865afa1580156124f9573d6000803e3d6000fd5b505050506040513d601f19601f8201168201806040525081019061251d9190613fc6565b90506000808360400151116125325781612544565b60408301518351612544918690612fdd565b90506000612552828461385a565b9050801561263e576000612589857f000000000000000000000000000000000000000000000000000000000000000084600261314c565b5090506125b67f000000000000000000000000000000000000000000000000000000000000000082613404565b600154604051632770a7eb60e21b81526001600160a01b037f0000000000000000000000000000000000000000000000000000000000000000811660048301526024820185905290911690639dc29fac90604401600060405180830381600087803b15801561262457600080fd5b505af1158015612638573d6000803e3d6000fd5b50505050505b505050506119fb6001600055565b612654612caf565b7f00000000000000000000000000000000000000000000000000000000000000006001600160a01b031663194307bf6040518163ffffffff1660e01b8152600401602060405180830381865afa1580156126b2573d6000803e3d6000fd5b505050506040513d601f19601f820116820180604052508101906126d69190613fdf565b61271b5760405162461bcd60e51b8152602060048201526016602482015275198b585cdcd95d081b9bdd081d195c9b5a5b985d195960521b604482015260640161028c565b6001546040516370a0823160e01b81523360048201526000916001600160a01b0316906370a0823190602401602060405180830381865afa158015612764573d6000803e3d6000fd5b505050506040513d601f19601f820116820180604052508101906127889190613fc6565b9050600081116127d05760405162461bcd60e51b81526020600482015260136024820152726e6f7468696e6720746f20776974686472617760681b604482015260640161028c565b6000612857600654600160009054906101000a90046001600160a01b03166001600160a01b03166318160ddd6040518163ffffffff1660e01b8152600401602060405180830381865afa15801561282b573d6000803e3d6000fd5b505050506040513d601f19601f8201168201806040525081019061284f9190613fc6565b849190612fdd565b600154604051632770a7eb60e21b8152336004820152602481018590529192506001600160a01b031690639dc29fac90604401600060405180830381600087803b1580156128a457600080fd5b505af11580156128b8573d6000803e3d6000fd5b505050506128c730338361344e565b50506128d36001600055565b565b6000806128e0612da3565b90506111208184613810565b6128f4612caf565b336000908152600360205260409020548111156129535760405162461bcd60e51b815260206004820152601e60248201527f6465627420662d61737365742062616c616e636520746f6f20736d616c6c0000604482015260640161028c565b604051636eb1769f60e11b815233600482015230602482015281907f00000000000000000000000000000000000000000000000000000000000000006001600160a01b03169063dd62ed3e90604401602060405180830381865afa1580156129bf573d6000803e3d6000fd5b505050506040513d601f19601f820116820180604052508101906129e39190613fc6565b1015612a015760405162461bcd60e51b815260040161028c90614144565b612a0b3382613404565b612a163330836132c6565b604080516000808252602082015290810182905233907f3af2c1ec57343b1e7e40c3f6c85f5ad943344cd8548bdf819f1da51aaebb3db69060600160405180910390a2610c366001600055565b336001600160a01b037f00000000000000000000000000000000000000000000000000000000000000001614612aab5760405162461bcd60e51b815260040161028c90613f9a565b6002546001600160a01b03828116911614610c36576002546040516370a0823160e01b81523060048201526000916001600160a01b0316906370a0823190602401602060405180830381865afa158015612b09573d6000803e3d6000fd5b505050506040513d601f19601f82011682018060405250810190612b2d9190613fc6565b60028054600160f01b60ff60f01b19821617909155604051632e1a7d4d60e01b8152600481018390529192506001600160a01b031690632e1a7d4d90602401600060405180830381600087803b158015612b8657600080fd5b505af1158015612b9a573d6000803e3d6000fd5b50506002805460ff60f01b19169055505060408051630d0e30db60e41b815290516001600160a01b0384169163d0e30db091849160048082019260009290919082900301818588803b158015612bef57600080fd5b505af1158015612c03573d6000803e3d6000fd5b5050600280546001600160a01b0319166001600160a01b038781169182179092556040516351c452bf60e01b81527f00000000000000000000000000000000000000000000000000000000000000008316600482015260248101919091527f000000000000000000000000000000000000000000000000000000000000000090911693506351c452bf92506044019050611b9b565b600080612ca3612da3565b90506111208184613b13565b600260005403612d015760405162461bcd60e51b815260206004820152601f60248201527f5265656e7472616e637947756172643a207265656e7472616e742063616c6c00604482015260640161028c565b6002600055565b8015612423576000826001600160a01b03168260405160006040518083038185875af1925050503d8060008114612d5b576040519150601f19603f3d011682016040523d82523d6000602084013e612d60565b606091505b50509050806119fb5760405162461bcd60e51b815260206004820152600f60248201526e1d1c985b9cd9995c8819985a5b1959608a1b604482015260640161028c565b612de36040518060e00160405280600081526020016000815260200160008152602001600081526020016000815260200160008152602001600081525090565b600060055490506000807f00000000000000000000000000000000000000000000000000000000000000006001600160a01b03166302312aec6040518163ffffffff1660e01b81526004016040805180830381865afa158015612e4a573d6000803e3d6000fd5b505050506040513d601f19601f82011682018060405250810190612e6e91906142e6565b915091506040518060e00160405280600160009054906101000a90046001600160a01b03166001600160a01b03166318160ddd6040518163ffffffff1660e01b8152600401602060405180830381865afa158015612ed0573d6000803e3d6000fd5b505050506040513d601f19601f82011682018060405250810190612ef49190613fc6565b815260405163769bb15560e11b81526001600160a01b037f0000000000000000000000000000000000000000000000000000000000000000811660048301526020909201917f0000000000000000000000000000000000000000000000000000000000000000169063ed3762aa90602401602060405180830381865afa158015612f82573d6000803e3d6000fd5b505050506040513d601f19601f82011682018060405250810190612fa69190613fc6565b8152602001600654815260200184815260200160045485612fc79190614131565b8152602081019390935260409092015292915050565b60008082116130215760405162461bcd60e51b815260206004820152601060248201526f4469766973696f6e206279207a65726f60801b604482015260640161028c565b8360000361303157506000611120565b838302838582816130445761304461430a565b0403613062578281816130595761305961430a565b04915050611120565b50600061306f8386614320565b9050600061307d8487614334565b9050600061308b8587614320565b905060006130998688614334565b9050856130a682856142cf565b6130b09190614320565b6130ba83856142cf565b6130c483876142cf565b886130cf86896142cf565b6130d991906142cf565b6130e39190614131565b6130ed9190614131565b6130f79190614131565b98975050505050505050565b6000613123828560a00151866020015161311d91906142cf565b90613bb3565b8460c001518486604001516131389190614012565b61314291906142cf565b1015949350505050565b600080600061315b8787613b13565b6001600160a01b038781166000818152600360205260408082205460015491516370a0823160e01b81526004810194909452949550909216906370a0823190602401602060405180830381865afa1580156131ba573d6000803e3d6000fd5b505050506040513d601f19601f820116820180604052508101906131de9190613fc6565b9050806000036131f757600080945094505050506132bd565b6000613204848984612fdd565b9050600087600281111561321a5761321a614348565b0361325957600084841061322f576000613239565b6132398486614012565b9050613245828261385a565b95506132518683614012565b9650506132b8565b600187600281111561326d5761326d614348565b0361328f5761327c818461385a565b95506132888682614012565b94506132b8565b6000841161329e5760006132a9565b6132a9838286612fdd565b95506132b58682614012565b94505b505050505b94509492505050565b80156119fb57306001600160a01b0384160361338d5780600560008282546132ee9190614012565b909155505060405163a9059cbb60e01b81526001600160a01b038381166004830152602482018390527f0000000000000000000000000000000000000000000000000000000000000000169063a9059cbb906044015b6020604051808303816000875af1158015613363573d6000803e3d6000fd5b505050506040513d601f19601f820116820180604052508101906133879190613fdf565b50505050565b306001600160a01b038316036119fb5780600560008282546133af9190614131565b90915550506040516323b872dd60e01b81526001600160a01b037f000000000000000000000000000000000000000000000000000000000000000016906323b872dd906133449086908690869060040161417b565b6001600160a01b0382166000908152600360205260408120805483929061342c908490614012565b9250508190555080600460008282546134459190614012565b90915550505050565b80156119fb57306001600160a01b038416036134b45780600660008282546134769190614012565b909155505060025460405163a9059cbb60e01b81526001600160a01b038481166004830152602482018490529091169063a9059cbb90604401613344565b306001600160a01b038316036119fb5780600660008282546134d69190614131565b90915550506002546040516323b872dd60e01b81526001600160a01b03909116906323b872dd906133449086908690869060040161417b565b6001546040516370a0823160e01b81526001600160a01b03838116600483015260009283929116906370a0823190602401602060405180830381865afa15801561355d573d6000803e3d6000fd5b505050506040513d601f19601f820116820180604052508101906135819190613fc6565b905080600003613595576000915050610c85565b6001600160a01b038316600090815260036020526040812054908190036135be57509050610c85565b845160808601516000916135d491908590612fdd565b905060006135e28383614012565b608088015188519192506000916130f7918490612fdd565b60405163d6b93a9f60e01b81526001600160a01b037f00000000000000000000000000000000000000000000000000000000000000008116600483015282811660248301526000917f00000000000000000000000000000000000000000000000000000000000000009091169063d6b93a9f90604401602060405180830381865afa15801561368d573d6000803e3d6000fd5b505050506040513d601f19601f82011682018060405250810190610c859190613fdf565b6002546000906136d19084908390600160a01b900463ffffffff16613103565b156137515760025460a08401516000916136fc919063ffffffff600160a01b909104811690613bb316565b83856040015161370c9190614012565b8560a0015161371b91906142cf565b6137259190614320565b905080846020015111613739576000613749565b8084602001516137499190614012565b915050610c85565b60408301516020840151611120918490612fdd565b6002546000906137869084908390600160a01b900463ffffffff16613103565b156137fb5760008360c001516137cd600260149054906101000a900463ffffffff1663ffffffff168587602001516137be9190614012565b8760a0015161311d91906142cf565b6137d79190614320565b9050808460400151116137eb576000613749565b8084604001516137499190614012565b60208301516040840151611120918490612fdd565b60008061381d8484613b13565b6001600160a01b038416600090815260036020526040902054909150808211613847576000613851565b6138518183614012565b95945050505050565b60008183106138695781611120565b5090919050565b6001600160a01b03821660009081526003602052604081208054839290613898908490614131565b9250508190555080600460008282546134459190614131565b600063ffffffff8211156139165760405162461bcd60e51b815260206004820152602660248201527f53616665436173743a2076616c756520646f65736e27742066697420696e203360448201526532206269747360d01b606482015260840161028c565b5090565b600061ffff8211156139165760405162461bcd60e51b815260206004820152602660248201527f53616665436173743a2076616c756520646f65736e27742066697420696e203160448201526536206269747360d01b606482015260840161028c565b60008083604001516000148061399257508351155b600254602086015160a08701519293506000926139c092600160c01b900463ffffffff169161311d916142cf565b905060008560c0015186604001516139d891906142cf565b82116139e5576000613a03565b604086015160c08701516139f99084614320565b613a039190614012565b90506000613a11868361385a565b90506000868210613a23576000613a2d565b613a2d8288614012565b600254909150600090613a5090849061271090600160e01b900461ffff16612fdd565b9050600086613a705760408a01518a51613a6b918590612fdd565b613a72565b825b9050600087613a925760408b01518b51613a8d918590612fdd565b613a94565b825b9050613aa08282614131565b9b9a5050505050505050505050565b34156128d3573460066000828254613ac79190614131565b909155505060025460408051630d0e30db60e41b815290516001600160a01b039092169163d0e30db0913491600480830192600092919082900301818588803b158015611d7f57600080fd5b6001546040516370a0823160e01b81526001600160a01b03838116600483015260009283929116906370a0823190602401602060405180830381865afa158015613b61573d6000803e3d6000fd5b505050506040513d601f19601f82011682018060405250810190613b859190613fc6565b905080600003613b99576000915050610c85565b83516080850151613bab918390612fdd565b949350505050565b60006111208383612710612fdd565b6001600160a01b0381168114610c3657600080fd5b600060208284031215613be957600080fd5b813561112081613bc2565b600060208284031215613c0657600080fd5b81356001600160e01b03198116811461112057600080fd5b60008060408385031215613c3157600080fd5b82359150602083013560038110613c4757600080fd5b809150509250929050565b60008060408385031215613c6557600080fd5b8235613c7081613bc2565b946020939093013593505050565b8015158114610c3657600080fd5b634e487b7160e01b600052604160045260246000fd5b604051601f8201601f1916810167ffffffffffffffff81118282101715613ccb57613ccb613c8c565b604052919050565b600080600060608486031215613ce857600080fd5b83359250602080850135613cfb81613c7e565b9250604085013567ffffffffffffffff80821115613d1857600080fd5b818701915087601f830112613d2c57600080fd5b813581811115613d3e57613d3e613c8c565b613d50601f8201601f19168501613ca2565b91508082528884828501011115613d6657600080fd5b80848401858401376000848284010152508093505050509250925092565b600060208284031215613d9657600080fd5b5035919050565b600067ffffffffffffffff821115613db757613db7613c8c565b5060051b60200190565b600082601f830112613dd257600080fd5b81356020613de7613de283613d9d565b613ca2565b82815260059290921b84018101918181019086841115613e0657600080fd5b8286015b84811015613e2a578035613e1d81613bc2565b8352918301918301613e0a565b509695505050505050565b60008060408385031215613e4857600080fd5b823567ffffffffffffffff80821115613e6057600080fd5b613e6c86838701613dc1565b9350602091508185013581811115613e8357600080fd5b85019050601f81018613613e9657600080fd5b8035613ea4613de282613d9d565b81815260059190911b82018301908381019088831115613ec357600080fd5b928401925b82841015613ee157833582529284019290840190613ec8565b80955050505050509250929050565b60008060408385031215613f0357600080fd5b8235613f0e81613bc2565b9150602083013567ffffffffffffffff811115613f2a57600080fd5b613f3685828601613dc1565b9150509250929050565b60008060408385031215613f5357600080fd5b823591506020830135613c4781613c7e565b600080600060608486031215613f7a57600080fd5b8335613f8581613bc2565b95602085013595506040909401359392505050565b60208082526012908201527137b7363c9030b9b9b2ba1036b0b730b3b2b960711b604082015260600190565b600060208284031215613fd857600080fd5b5051919050565b600060208284031215613ff157600080fd5b815161112081613c7e565b634e487b7160e01b600052601160045260246000fd5b81810381811115610c8557610c85613ffc565b60208082526034908201527f746f6b656e20737570706c79206c656674206166746572206578697420697320604082015273746f6f206c6f7720616e64206e6f6e2d7a65726f60601b606082015260800190565b60208082526022908201527f616d6f756e74206f662073656e7420746f6b656e7320697320746f6f20736d616040820152611b1b60f21b606082015260800190565b60208082526032908201527f636f6c6c61746572616c206c656674206166746572206578697420697320746f6040820152716f206c6f7720616e64206e6f6e2d7a65726f60701b606082015260800190565b6020808252600a90820152691bdb9b1e481859d95b9d60b21b604082015260600190565b80820180821115610c8557610c85613ffc565b6020808252601b908201527f662d617373657420616c6c6f77616e636520746f6f20736d616c6c0000000000604082015260600190565b6001600160a01b039384168152919092166020820152604081019190915260600190565b600060018060a01b038087168352602081871681850152856040850152608060608501528451915081608085015260005b828110156141ec5785810182015185820160a0015281016141d0565b5050600060a0828501015260a0601f19601f83011684010191505095945050505050565b600081518084526020808501945080840160005b838110156142495781516001600160a01b031687529582019590820190600101614224565b509495945050505050565b6040815260006142676040830185614210565b82810360208481019190915284518083528582019282019060005b8181101561429e57845183529383019391830191600101614282565b5090979650505050505050565b6040815260006142be6040830185614210565b905082151560208301529392505050565b8082028115828204841417610c8557610c85613ffc565b600080604083850312156142f957600080fd5b505080516020909101519092909150565b634e487b7160e01b600052601260045260246000fd5b60008261432f5761432f61430a565b500490565b6000826143435761434361430a565b500690565b634e487b7160e01b600052602160045260246000fdfea26469706673582212209314dcd56a4cc8cb4adbcfff0e8468806680514db61579ef330e49a92525b09864736f6c63430008140033a2646970667358221220ddc0150d85ead45e0db2497bb58a80449e222e6b31bca9c83830df2aa91826e664736f6c63430008140033",
  "linkReferences": {},
  "deployedLinkReferences": {}
}