{
  "_format": "hh-sol-artifact-1",
  "contractName": "CollateralPoolFactory",
  "sourceName": "contracts/fasset/implementation/CollateralPoolFactory.sol",
  "abi": [
    {
      "inputs": [
        {
          "internalType": "contract IIAssetManager",
          "name": "_assetManager",
          "type": "address"
        },
        {
          "internalType": "address",
          "name": "_agentVault",
          "type": "address"
        },
        {
          "components": [
            {
              "internalType": "string",
              "name": "underlyingAddressString",
              "type": "string"
            },
            {
              "internalType": "contract IERC20",
              "name": "class1CollateralToken",
              "type": "address"
            },
            {
              "internalType": "uint256",
              "name": "feeBIPS",
              "type": "uint256"
            },
            {
              "internalType": "uint256",
              "name": "poolFeeShareBIPS",
              "type": "uint256"
            },
            {
              "internalType": "uint256",
              "name": "mintingClass1CollateralRatioBIPS",
              "type": "uint256"
            },
            {
              "internalType": "uint256",
              "name": "mintingPoolCollateralRatioBIPS",
              "type": "uint256"
            },
            {
              "internalType": "uint256",
              "name": "buyFAssetByAgentFactorBIPS",
              "type": "uint256"
            },
            {
              "internalType": "uint256",
              "name": "poolExitCollateralRatioBIPS",
              "type": "uint256"
            },
            {
              "internalType": "uint256",
              "name": "poolTopupCollateralRatioBIPS",
              "type": "uint256"
            },
            {
              "internalType": "uint256",
              "name": "poolTopupTokenPriceFactorBIPS",
              "type": "uint256"
            }
          ],
          "internalType": "struct AgentCreateSettings.Data",
          "name": "_settings",
          "type": "tuple"
        }
      ],
      "name": "create",
      "outputs": [
        {
          "internalType": "contract IICollateralPool",
          "name": "",
          "type": "address"
        }
      ],
      "stateMutability": "nonpayable",
      "type": "function"
    },
    {
      "inputs": [
        {
          "internalType": "contract IICollateralPool",
          "name": "_pool",
          "type": "address"
        }
      ],
      "name": "createPoolToken",
      "outputs": [
        {
          "internalType": "address",
          "name": "",
          "type": "address"
        }
      ],
      "stateMutability": "nonpayable",
      "type": "function"
    }
  ],
  "bytecode": "0x608060405234801561001057600080fd5b50615b82806100206000396000f3fe608060405234801561001057600080fd5b50600436106100365760003560e01c80632b625f231461003b578063f713fdd91461006a575b600080fd5b61004e6100493660046102cb565b61007d565b6040516001600160a01b03909116815260200160405180910390f35b61004e6100783660046103cc565b6100c1565b6000808260405161008d90610299565b6001600160a01b039091168152602001604051809103906000f0801580156100b9573d6000803e3d6000fd5b509392505050565b600080846001600160a01b0316637c7db1a56040518163ffffffff1660e01b8152600401602060405180830381865afa158015610102573d6000803e3d6000fd5b505050506040513d601f19601f8201168201806040525081019061012691906104c8565b9050600084868361013a8760e001516101c8565b6101488861010001516101c8565b610156896101200151610236565b604051610162906102a6565b6001600160a01b039687168152948616602086015294909216604084015263ffffffff908116606084015216608082015261ffff90911660a082015260c001604051809103906000f0801580156101bd573d6000803e3d6000fd5b509695505050505050565b600063ffffffff8211156102325760405162461bcd60e51b815260206004820152602660248201527f53616665436173743a2076616c756520646f65736e27742066697420696e203360448201526532206269747360d01b60648201526084015b60405180910390fd5b5090565b600061ffff8211156102325760405162461bcd60e51b815260206004820152602660248201527f53616665436173743a2076616c756520646f65736e27742066697420696e203160448201526536206269747360d01b6064820152608401610229565b6110b2806104e683390190565b6145b58061159883390190565b6001600160a01b03811681146102c857600080fd5b50565b6000602082840312156102dd57600080fd5b81356102e8816102b3565b9392505050565b634e487b7160e01b600052604160045260246000fd5b604051610140810167ffffffffffffffff81118282101715610329576103296102ef565b60405290565b600082601f83011261034057600080fd5b813567ffffffffffffffff8082111561035b5761035b6102ef565b604051601f8301601f19908116603f01168101908282118183101715610383576103836102ef565b8160405283815286602085880101111561039c57600080fd5b836020870160208301376000602085830101528094505050505092915050565b80356103c7816102b3565b919050565b6000806000606084860312156103e157600080fd5b83356103ec816102b3565b925060208401356103fc816102b3565b9150604084013567ffffffffffffffff8082111561041957600080fd5b90850190610140828803121561042e57600080fd5b610436610305565b82358281111561044557600080fd5b6104518982860161032f565b825250610460602084016103bc565b602082015260408301356040820152606083013560608201526080830135608082015260a083013560a082015260c083013560c082015260e083013560e082015261010091508183013582820152610120915081830135828201528093505050509250925092565b6000602082840312156104da57600080fd5b81516102e8816102b356fe60a06040523480156200001157600080fd5b50604051620010b2380380620010b28339810160408190526200003491620000bc565b6040518060400160405280601c81526020017f46417373657420436f6c6c61746572616c20506f6f6c20546f6b656e00000000815250604051806040016040528060048152602001631190d41560e21b815250816003908162000098919062000193565b506004620000a7828262000193565b5050506001600160a01b03166080526200025f565b600060208284031215620000cf57600080fd5b81516001600160a01b0381168114620000e757600080fd5b9392505050565b634e487b7160e01b600052604160045260246000fd5b600181811c908216806200011957607f821691505b6020821081036200013a57634e487b7160e01b600052602260045260246000fd5b50919050565b601f8211156200018e57600081815260208120601f850160051c81016020861015620001695750805b601f850160051c820191505b818110156200018a5782815560010162000175565b5050505b505050565b81516001600160401b03811115620001af57620001af620000ee565b620001c781620001c0845462000104565b8462000140565b602080601f831160018114620001ff5760008415620001e65750858301515b600019600386901b1c1916600185901b1785556200018a565b600085815260208120601f198616915b8281101562000230578886015182559484019460019091019084016200020f565b50858210156200024f5787850151600019600388901b60f8161c191681555b5050505050600190811b01905550565b608051610e0d620002a560003960008181610267015281816102ac015281816103f20152818161045f015281816104e7015281816105d90152610b940152610e0d6000f3fe608060405234801561001057600080fd5b506004361061010a5760003560e01c806359355736116100a2578063a457c2d711610071578063a457c2d714610216578063a9059cbb14610229578063c7d9f4d11461023c578063dd62ed3e1461024f578063ff0eccf61461026257600080fd5b806359355736146101bf57806370a08231146101d257806395d89b41146101fb5780639dc29fac1461020357600080fd5b806323b872dd116100de57806323b872dd14610177578063313ce5671461018a578063395093511461019957806340c10f19146101ac57600080fd5b8062f55d9d1461010f57806306fdde0314610124578063095ea7b31461014257806318160ddd14610165575b600080fd5b61012261011d366004610c1d565b6102a1565b005b61012c6102f5565b6040516101399190610c41565b60405180910390f35b610155610150366004610c8f565b610387565b6040519015158152602001610139565b6002545b604051908152602001610139565b610155610185366004610cbb565b6103a1565b60405160128152602001610139565b6101556101a7366004610c8f565b6103c5565b6101226101ba366004610c8f565b6103e7565b6101696101cd366004610c1d565b61043d565b6101696101e0366004610c1d565b6001600160a01b031660009081526020819052604090205490565b61012c6104cd565b610122610211366004610c8f565b6104dc565b610155610224366004610c8f565b61052e565b610155610237366004610c8f565b6105a9565b61016961024a366004610c1d565b6105b7565b61016961025d366004610cfc565b61060a565b6102897f000000000000000000000000000000000000000000000000000000000000000081565b6040516001600160a01b039091168152602001610139565b336001600160a01b037f000000000000000000000000000000000000000000000000000000000000000016146102f25760405162461bcd60e51b81526004016102e990610d35565b60405180910390fd5b50565b60606003805461030490610d63565b80601f016020809104026020016040519081016040528092919081815260200182805461033090610d63565b801561037d5780601f106103525761010080835404028352916020019161037d565b820191906000526020600020905b81548152906001019060200180831161036057829003601f168201915b5050505050905090565b600033610395818585610635565b60019150505b92915050565b6000336103af85828561075a565b6103ba8585856107d4565b506001949350505050565b6000336103958185856103d8838361060a565b6103e29190610d9d565b610635565b336001600160a01b037f0000000000000000000000000000000000000000000000000000000000000000161461042f5760405162461bcd60e51b81526004016102e990610d35565b6104398282610983565b5050565b604051633a22a94d60e01b81526001600160a01b0382811660048301526000917f000000000000000000000000000000000000000000000000000000000000000090911690633a22a94d906024015b602060405180830381865afa1580156104a9573d6000803e3d6000fd5b505050506040513d601f19601f8201168201806040525081019061039b9190610dbe565b60606004805461030490610d63565b336001600160a01b037f000000000000000000000000000000000000000000000000000000000000000016146105245760405162461bcd60e51b81526004016102e990610d35565b6104398282610a4e565b6000338161053c828661060a565b90508381101561059c5760405162461bcd60e51b815260206004820152602560248201527f45524332303a2064656372656173656420616c6c6f77616e63652062656c6f77604482015264207a65726f60d81b60648201526084016102e9565b6103ba8286868403610635565b6000336103958185856107d4565b604051636532587160e01b81526001600160a01b0382811660048301526000917f00000000000000000000000000000000000000000000000000000000000000009091169063653258719060240161048c565b6001600160a01b03918216600090815260016020908152604080832093909416825291909152205490565b6001600160a01b0383166106975760405162461bcd60e51b8152602060048201526024808201527f45524332303a20617070726f76652066726f6d20746865207a65726f206164646044820152637265737360e01b60648201526084016102e9565b6001600160a01b0382166106f85760405162461bcd60e51b815260206004820152602260248201527f45524332303a20617070726f766520746f20746865207a65726f206164647265604482015261737360f01b60648201526084016102e9565b6001600160a01b0383811660008181526001602090815260408083209487168084529482529182902085905590518481527f8c5be1e5ebec7d5bd14f71427d1e84f3dd0314c0f7b2291e5b200ac8c7c3b92591015b60405180910390a3505050565b6000610766848461060a565b905060001981146107ce57818110156107c15760405162461bcd60e51b815260206004820152601d60248201527f45524332303a20696e73756666696369656e7420616c6c6f77616e636500000060448201526064016102e9565b6107ce8484848403610635565b50505050565b6001600160a01b0383166108385760405162461bcd60e51b815260206004820152602560248201527f45524332303a207472616e736665722066726f6d20746865207a65726f206164604482015264647265737360d81b60648201526084016102e9565b6001600160a01b03821661089a5760405162461bcd60e51b815260206004820152602360248201527f45524332303a207472616e7366657220746f20746865207a65726f206164647260448201526265737360e81b60648201526084016102e9565b6108a5838383610b89565b6001600160a01b0383166000908152602081905260409020548181101561091d5760405162461bcd60e51b815260206004820152602660248201527f45524332303a207472616e7366657220616d6f756e7420657863656564732062604482015265616c616e636560d01b60648201526084016102e9565b6001600160a01b03848116600081815260208181526040808320878703905593871680835291849020805487019055925185815290927fddf252ad1be2c89b69c2b068fc378daa952ba7f163c4a11628f55a4df523b3ef910160405180910390a36107ce565b6001600160a01b0382166109d95760405162461bcd60e51b815260206004820152601f60248201527f45524332303a206d696e7420746f20746865207a65726f20616464726573730060448201526064016102e9565b6109e560008383610b89565b80600260008282546109f79190610d9d565b90915550506001600160a01b038216600081815260208181526040808320805486019055518481527fddf252ad1be2c89b69c2b068fc378daa952ba7f163c4a11628f55a4df523b3ef910160405180910390a35050565b6001600160a01b038216610aae5760405162461bcd60e51b815260206004820152602160248201527f45524332303a206275726e2066726f6d20746865207a65726f206164647265736044820152607360f81b60648201526084016102e9565b610aba82600083610b89565b6001600160a01b03821660009081526020819052604090205481811015610b2e5760405162461bcd60e51b815260206004820152602260248201527f45524332303a206275726e20616d6f756e7420657863656564732062616c616e604482015261636560f01b60648201526084016102e9565b6001600160a01b0383166000818152602081815260408083208686039055600280548790039055518581529192917fddf252ad1be2c89b69c2b068fc378daa952ba7f163c4a11628f55a4df523b3ef910161074d565b505050565b336001600160a01b037f00000000000000000000000000000000000000000000000000000000000000001614610b8457610bc2836105b7565b811115610b845760405162461bcd60e51b8152602060048201526014602482015273667265652062616c616e636520746f6f206c6f7760601b60448201526064016102e9565b6001600160a01b03811681146102f257600080fd5b600060208284031215610c2f57600080fd5b8135610c3a81610c08565b9392505050565b600060208083528351808285015260005b81811015610c6e57858101830151858201604001528201610c52565b506000604082860101526040601f19601f8301168501019250505092915050565b60008060408385031215610ca257600080fd5b8235610cad81610c08565b946020939093013593505050565b600080600060608486031215610cd057600080fd5b8335610cdb81610c08565b92506020840135610ceb81610c08565b929592945050506040919091013590565b60008060408385031215610d0f57600080fd5b8235610d1a81610c08565b91506020830135610d2a81610c08565b809150509250929050565b6020808252601490820152731bdb9b1e4818dbdb1b185d195c985b081c1bdbdb60621b604082015260600190565b600181811c90821680610d7757607f821691505b602082108103610d9757634e487b7160e01b600052602260045260246000fd5b50919050565b8082018082111561039b57634e487b7160e01b600052601160045260246000fd5b600060208284031215610dd057600080fd5b505191905056fea2646970667358221220f3ba11afdfb5e395b9382323a4689ac5b3c89a818c11500e9393863929523bc964736f6c6343000814003360e06040523480156200001157600080fd5b50604051620045b5380380620045b583398101604081905262000034916200015a565b60016000556001600160a01b0380871660805285811660a081905290851660c05260408051635ad2445360e11b8152905163b5a488a6916004808201926020929091908290030181865afa15801562000091573d6000803e3d6000fd5b505050506040513d601f19601f82011682018060405250810190620000b79190620001ed565b6002805461ffff909316600160e01b0261ffff60e01b1963ffffffff958616600160c01b021665ffffffffffff60c01b1995909616600160a01b026001600160c01b03199094166001600160a01b0393909316929092179290921792909216929092171790555062000214915050565b6001600160a01b03811681146200013d57600080fd5b50565b805163ffffffff811681146200015557600080fd5b919050565b60008060008060008060c087890312156200017457600080fd5b8651620001818162000127565b6020880151909650620001948162000127565b6040880151909550620001a78162000127565b9350620001b76060880162000140565b9250620001c76080880162000140565b915060a087015161ffff81168114620001df57600080fd5b809150509295509295509295565b6000602082840312156200020057600080fd5b81516200020d8162000127565b9392505050565b60805160a05160c05161426e62000347600039600081816104be015281816109b301528181610acb015281816114d701528181611577015281816120b1015281816124e0015281816127fa015281816132e00152613392015260008181610594015281816107b701528181610f2b01528181611332015281816115fe015281816116a40152818161174b01528181611a7f01528181611c4801528181611d0b01528181611dbd015281816121b2015281816122d4015281816128f801528181612aed01528181612d1b01528181612dd40152612f2001526000818161050a01528181611307015281816116d1015281816117780152818161218201528181612360015281816123ee0152818161241d0152818161245c01528181612abd01528181612ce80152612ef2015261426e6000f3fe6080604052600436106102335760003560e01c806388985cd61161012e578063ba133b87116100ab578063ee781db01161006f578063ee781db01461070c578063f4d000b21461072c578063fbebcadf1461074c578063fc0c546a1461076c578063fd86d3ea1461078c57600080fd5b8063ba133b871461066d578063c1b0bbf814610682578063cb209413146106a2578063cbabdf39146106d8578063cbdf382c146106ee57600080fd5b8063a854a6a2116100f2578063a854a6a2146105f6578063ac3736c114610616578063adf58c1514610629578063b337929b14610649578063b9e26483146102b157600080fd5b806388985cd61461054c578063923f89321461056c57806394217ad1146105825780639a4247e6146105b65780639edbf007146105d657600080fd5b80634a4ac2ef116101bc578063787b9ca811610180578063787b9ca8146104795780637b6e1b55146104995780637c7db1a5146104ac578063815ea9d6146104f857806386ac57a21461052c57600080fd5b80634a4ac2ef146103ce5780634ac8eb5f146104035780635ca36489146104195780635e318e0714610439578063653258711461045957600080fd5b80632f35eac2116102035780632f35eac21461030057806333ce01fd146103355780633a22a94d146103555780633cfc747d14610375578063406c7007146103ae57600080fd5b8062f55d9d146102915780630ac07344146102b15780630dc1e5e1146102b157806314a3ab80146102e057600080fd5b3661028c57600254600160f01b900460ff1661028a5760405162461bcd60e51b81526020600482015260116024820152706f6e6c7920696e7465726e616c2075736560781b60448201526064015b60405180910390fd5b005b600080fd5b34801561029d57600080fd5b5061028a6102ac366004613adb565b6107ac565b3480156102bd57600080fd5b506102cd670de0b6b3a764000081565b6040519081526020015b60405180910390f35b3480156102ec57600080fd5b5061028a6102fb366004613bd7565b610b49565b34801561030c57600080fd5b5061032061031b366004613c92565b610bd6565b604080519283526020830191909152016102d7565b34801561034157600080fd5b5061028a610350366004613adb565b610f20565b34801561036157600080fd5b506102cd610370366004613adb565b610fdc565b34801561038157600080fd5b5060025461039990600160a01b900463ffffffff1681565b60405163ffffffff90911681526020016102d7565b3480156103ba57600080fd5b506102cd6103c9366004613cc6565b611072565b3480156103da57600080fd5b506002546103f090600160e01b900461ffff1681565b60405161ffff90911681526020016102d7565b34801561040f57600080fd5b506102cd60065481565b34801561042557600080fd5b5061028a610434366004613d00565b611121565b34801561044557600080fd5b5061028a610454366004613db1565b611930565b34801561046557600080fd5b506102cd610474366004613adb565b611a5d565b34801561048557600080fd5b5061028a610494366004613db1565b611a74565b61028a6104a7366004613dca565b611b36565b3480156104b857600080fd5b506104e07f000000000000000000000000000000000000000000000000000000000000000081565b6040516001600160a01b0390911681526020016102d7565b34801561050457600080fd5b506104e07f000000000000000000000000000000000000000000000000000000000000000081565b34801561053857600080fd5b5061028a610547366004613adb565b611bc2565b34801561055857600080fd5b5061028a610567366004613db1565b611c3d565b34801561057857600080fd5b506102cd60045481565b34801561058e57600080fd5b506104e07f000000000000000000000000000000000000000000000000000000000000000081565b3480156105c257600080fd5b5061028a6105d1366004613db1565b611d00565b3480156105e257600080fd5b506002546104e0906001600160a01b031681565b34801561060257600080fd5b5061028a610611366004613db1565b611db2565b61028a610624366004613e1a565b611e14565b34801561063557600080fd5b5061028a610644366004613e3f565b6122c9565b34801561065557600080fd5b5060025461039990600160c01b900463ffffffff1681565b34801561067957600080fd5b5061028a6124d6565b34801561068e57600080fd5b506102cd61069d366004613adb565b61275f565b3480156106ae57600080fd5b506102cd6106bd366004613adb565b6001600160a01b031660009081526003602052604090205490565b3480156106e457600080fd5b506102cd60055481565b3480156106fa57600080fd5b506001546001600160a01b03166104e0565b34801561071857600080fd5b5061028a610727366004613db1565b612776565b34801561073857600080fd5b5061028a610747366004613adb565b6128ed565b34801561075857600080fd5b5061028a610767366004613cc6565b612b22565b34801561077857600080fd5b506001546104e0906001600160a01b031681565b34801561079857600080fd5b506102cd6107a7366004613adb565b612bc6565b336001600160a01b037f000000000000000000000000000000000000000000000000000000000000000016146107f45760405162461bcd60e51b815260040161028190613e74565b6107fc612bdd565b6006541561085d5760405162461bcd60e51b815260206004820152602860248201527f63616e6e6f742064657374726f79206120706f6f6c20686f6c64696e6720636f6044820152671b1b185d195c985b60c21b6064820152608401610281565b600554156108bc5760405162461bcd60e51b815260206004820152602660248201527f63616e6e6f742064657374726f79206120706f6f6c20686f6c64696e6720662d60448201526561737365747360d01b6064820152608401610281565b60015460405162f55d9d60e01b81526001600160a01b0383811660048301529091169062f55d9d90602401600060405180830381600087803b15801561090157600080fd5b505af1158015610915573d6000803e3d6000fd5b505050506109238147612c36565b6002546040516370a0823160e01b81523060048201526000916001600160a01b0316906370a0823190602401602060405180830381865afa15801561096c573d6000803e3d6000fd5b505050506040513d601f19601f820116820180604052508101906109909190613ea0565b6040516370a0823160e01b81523060048201529091506000906001600160a01b037f000000000000000000000000000000000000000000000000000000000000000016906370a0823190602401602060405180830381865afa1580156109fa573d6000803e3d6000fd5b505050506040513d601f19601f82011682018060405250810190610a1e9190613ea0565b90508115610a9f5760025460405163a9059cbb60e01b81526001600160a01b038581166004830152602482018590529091169063a9059cbb906044016020604051808303816000875af1158015610a79573d6000803e3d6000fd5b505050506040513d601f19601f82011682018060405250810190610a9d9190613eb9565b505b8015610b3a5760405163a9059cbb60e01b81526001600160a01b038481166004830152602482018390527f0000000000000000000000000000000000000000000000000000000000000000169063a9059cbb906044016020604051808303816000875af1158015610b14573d6000803e3d6000fd5b505050506040513d601f19601f82011682018060405250810190610b389190613eb9565b505b5050610b466001600055565b50565b610b5233612cd1565b610b6e5760405162461bcd60e51b815260040161028190613ed6565b60025460405163dc4fcda760e01b81526001600160a01b039091169063dc4fcda790610ba09085908590600401613f3e565b600060405180830381600087803b158015610bba57600080fd5b505af1158015610bce573d6000803e3d6000fd5b505050505050565b600080610be1612bdd565b60008411610c275760405162461bcd60e51b8152602060048201526013602482015272746f6b656e207368617265206973207a65726f60681b6044820152606401610281565b6001546040516370a0823160e01b81523360048201526001600160a01b03909116906370a0823190602401602060405180830381865afa158015610c6f573d6000803e3d6000fd5b505050506040513d601f19601f82011682018060405250810190610c939190613ea0565b841115610cda5760405162461bcd60e51b8152602060048201526015602482015274746f6b656e2062616c616e636520746f6f206c6f7760581b6044820152606401610281565b6000610ce4612d88565b8051909150851480610d0b57508051670de0b6b3a764000090610d08908790613fab565b10155b610d275760405162461bcd60e51b815260040161028190613fbe565b60408101518151600091610d3d91889190612fc2565b905060008111610d5f5760405162461bcd60e51b815260040161028190614012565b8082604001511480610d885750670de0b6b3a7640000818360400151610d859190613fab565b10155b610da45760405162461bcd60e51b815260040161028190614054565b600254610dc19083908390600160a01b900463ffffffff166130e8565b610e195760405162461bcd60e51b815260206004820152602360248201527f636f6c6c61746572616c20726174696f2066616c6c732062656c6f77206578696044820152623a21a960e91b6064820152608401610281565b600080610e2884338a8a613131565b90925090508015610e3e57610e3e303383613293565b8115610e4e57610e4e33836133cb565b600154604051632770a7eb60e21b8152336004820152602481018a90526001600160a01b0390911690639dc29fac90604401600060405180830381600087803b158015610e9a57600080fd5b505af1158015610eae573d6000803e3d6000fd5b50505050610ebd303385613415565b60408051898152602081018590529081018290526000606082015233907f6bcf2464228029946fa6af5456662d377896b780e680909f9bbe7ffe6548cbef9060800160405180910390a29194509092505050610f196001600055565b9250929050565b336001600160a01b037f00000000000000000000000000000000000000000000000000000000000000001614610f685760405162461bcd60e51b815260040161028190613e74565b6001546001600160a01b031615610fba5760405162461bcd60e51b81526020600482015260166024820152751c1bdbdb081d1bdad95b88185b1c9958591e481cd95d60521b6044820152606401610281565b600180546001600160a01b0319166001600160a01b0392909216919091179055565b600080610fe7612d88565b9050610ff381846134d0565b6001546040516370a0823160e01b81526001600160a01b038681166004830152909116906370a0823190602401602060405180830381865afa15801561103d573d6000803e3d6000fd5b505050506040513d601f19601f820116820180604052508101906110619190613ea0565b61106b9190613fab565b9392505050565b600061107d33612cd1565b6110995760405162461bcd60e51b815260040161028190613ed6565b60405163596090c960e11b81523060048201819052602482015260448101839052600160648201526001600160a01b0384169063b2c12192906084016020604051808303816000875af11580156110f4573d6000803e3d6000fd5b505050506040513d601f19601f820116820180604052508101906111189190613ea0565b90505b92915050565b611129612bdd565b6000831161116f5760405162461bcd60e51b8152602060048201526013602482015272746f6b656e207368617265206973207a65726f60681b6044820152606401610281565b6001546040516370a0823160e01b81523360048201526000916001600160a01b0316906370a0823190602401602060405180830381865afa1580156111b8573d6000803e3d6000fd5b505050506040513d601f19601f820116820180604052508101906111dc9190613ea0565b9050808411156112265760405162461bcd60e51b8152602060048201526015602482015274746f6b656e2062616c616e636520746f6f206c6f7760581b6044820152606401610281565b6000611230612d88565b805190915085148061125757508051670de0b6b3a764000090611254908790613fab565b10155b6112735760405162461bcd60e51b815260040161028190613fbe565b8051604082015160009161128991908890612fc2565b9050600081116112ab5760405162461bcd60e51b815260040161028190614012565b80826040015114806112d45750670de0b6b3a76400008183604001516112d19190613fab565b10155b6112f05760405162461bcd60e51b815260040161028190614054565b604051631e8bee0160e01b81526001600160a01b037f0000000000000000000000000000000000000000000000000000000000000000811660048301526000917f000000000000000000000000000000000000000000000000000000000000000090911690631e8bee0190602401602060405180830381865afa15801561137b573d6000803e3d6000fd5b505050506040513d601f19601f8201168201806040525081019061139f9190613ea0565b905060006113ad84846135bb565b9050808210156114795750806113c38482613670565b9250600083116113e55760405162461bcd60e51b815260040161028190614012565b828460400151148061140e5750670de0b6b3a764000083856040015161140b9190613fab565b10155b61142a5760405162461bcd60e51b815260040161028190614054565b6040840151845161143c918590612fc2565b60408051828152602081018490529199507f7543f09ac709677c25f5aa8284e92f885eae7c7496789dd47cf87e28e5a1cf1c910160405180910390a15b6000611485853361371a565b905060008061149787338d6001613131565b91509150838310156115f65760006114af8486613fab565b604051636eb1769f60e11b815233600482015230602482015290915081906001600160a01b037f0000000000000000000000000000000000000000000000000000000000000000169063dd62ed3e90604401602060405180830381865afa15801561151e573d6000803e3d6000fd5b505050506040513d601f19601f820116820180604052508101906115429190613ea0565b10156115605760405162461bcd60e51b8152600401610281906140a6565b6040516323b872dd60e01b81526001600160a01b037f000000000000000000000000000000000000000000000000000000000000000016906323b872dd906115b0903390309086906004016140dd565b6020604051808303816000875af11580156115cf573d6000803e3d6000fd5b505050506040513d601f19601f820116820180604052508101906115f39190613eb9565b50505b83156117d9577f00000000000000000000000000000000000000000000000000000000000000006001600160a01b0316634942f65f6040518163ffffffff1660e01b8152600401602060405180830381865afa15801561165a573d6000803e3d6000fd5b505050506040513d601f19601f8201168201806040525081019061167e9190613ea0565b8410806116885750895b1561173457604051630ed000b360e41b81526001600160a01b037f0000000000000000000000000000000000000000000000000000000000000000169063ed000b30906116fd907f000000000000000000000000000000000000000000000000000000000000000090339089906004016140dd565b600060405180830381600087803b15801561171757600080fd5b505af115801561172b573d6000803e3d6000fd5b505050506117d9565b60405163f060b3f160e01b81526001600160a01b037f0000000000000000000000000000000000000000000000000000000000000000169063f060b3f1906117a6907f000000000000000000000000000000000000000000000000000000000000000090339089908f90600401614101565b600060405180830381600087803b1580156117c057600080fd5b505af11580156117d4573d6000803e3d6000fd5b505050505b60006117e58585613764565b9050801561183e5780600560008282546117ff9190613fab565b9091555061180f9050338261377a565b600061181b8284613764565b9050801561183c5761182d8184613fab565b92506118398185614172565b93505b505b811561184f5761184f303384613293565b821561185f5761185f33846133cb565b600154604051632770a7eb60e21b8152336004820152602481018e90526001600160a01b0390911690639dc29fac90604401600060405180830381600087803b1580156118ab57600080fd5b505af11580156118bf573d6000803e3d6000fd5b505050506118ce303389613415565b604080518d8152602081018990529081018290526060810186905233907f6bcf2464228029946fa6af5456662d377896b780e680909f9bbe7ffe6548cbef9060800160405180910390a250505050505050505061192b6001600055565b505050565b611938612bdd565b600081116119885760405162461bcd60e51b815260206004820181905260248201527f747279696e6720746f207769746864726177207a65726f20662d6173736574736044820152606401610281565b6000611992612d88565b905060006119a0823361371a565b9050808311156119f25760405162461bcd60e51b815260206004820152601e60248201527f6672656520662d61737365742062616c616e636520746f6f20736d616c6c00006044820152606401610281565b6119fc338461377a565b611a07303385613293565b604080516000808252602082018190528183018490526060820152905133917f6bcf2464228029946fa6af5456662d377896b780e680909f9bbe7ffe6548cbef919081900360800190a25050610b466001600055565b600080611a68612d88565b905061106b81846134d0565b336001600160a01b037f00000000000000000000000000000000000000000000000000000000000000001614611abc5760405162461bcd60e51b815260040161028190613e74565b600254600160c01b900463ffffffff168111611b0a5760405162461bcd60e51b815260206004820152600d60248201526c76616c756520746f6f206c6f7760981b6044820152606401610281565b611b13816137bb565b600260146101000a81548163ffffffff021916908363ffffffff16021790555050565b611b3f33612cd1565b611b5b5760405162461bcd60e51b815260040161028190613ed6565b60405163e72dcdbb60e01b81526001600160a01b0383169063e72dcdbb903490611b8c908590600090600401614185565b6000604051808303818588803b158015611ba557600080fd5b505af1158015611bb9573d6000803e3d6000fd5b50505050505050565b611bcb33612cd1565b611be75760405162461bcd60e51b815260040161028190613ed6565b806001600160a01b031663f2a1f7676040518163ffffffff1660e01b8152600401600060405180830381600087803b158015611c2257600080fd5b505af1158015611c36573d6000803e3d6000fd5b5050505050565b336001600160a01b037f00000000000000000000000000000000000000000000000000000000000000001614611c855760405162461bcd60e51b815260040161028190613e74565b600254600160a01b900463ffffffff168110611cd45760405162461bcd60e51b815260206004820152600e60248201526d0ecc2d8eaca40e8dede40d0d2ced60931b6044820152606401610281565b611cdd816137bb565b600260186101000a81548163ffffffff021916908363ffffffff16021790555050565b336001600160a01b037f00000000000000000000000000000000000000000000000000000000000000001614611d485760405162461bcd60e51b815260040161028190613e74565b6127108110611d8a5760405162461bcd60e51b815260206004820152600e60248201526d0ecc2d8eaca40e8dede40d0d2ced60931b6044820152606401610281565b611d9381613824565b6002601c6101000a81548161ffff021916908361ffff16021790555050565b336001600160a01b037f00000000000000000000000000000000000000000000000000000000000000001614611dfa5760405162461bcd60e51b815260040161028190613e74565b8060056000828254611e0c9190614172565b909155505050565b611e1c612bdd565b6000611e26612d88565b90506103e88160400151611e3a91906141a9565b81511115611e8a5760405162461bcd60e51b815260206004820152601a60248201527f706f6f6c206e61742062616c616e636520746f6f20736d616c6c0000000000006044820152606401610281565b670de0b6b3a7640000341015611ee25760405162461bcd60e51b815260206004820152601d60248201527f616d6f756e74206f66206e61742073656e7420697320746f6f206c6f770000006044820152606401610281565b805160000361203f578060400151341015611f8b5760405162461bcd60e51b815260206004820152606060248201527f696620706f6f6c20686173206e6f20746f6b656e732c2062757420686f6c647360448201527f20636f6c6c61746572616c2c20796f75206e65656420746f2073656e6420617460648201527f206c65617374207468617420616d6f756e74206f6620636f6c6c61746572616c608482015260a401610281565b606081015160a082015160c0830151611fa5913491612fc2565b101561203f5760405162461bcd60e51b815260206004820152605f60248201527f496620706f6f6c20686173206e6f20746f6b656e732c2062757420686f6c647360448201527f20662d61737365742c20796f75206e65656420746f2073656e64206174206c6560648201527f61737420662d617373657420776f727468206f6620636f6c6c61746572616c00608482015260a401610281565b600061204b8234613887565b82519091506000901561206f578251608084015161206a918490612fc2565b612072565b60005b905060008461208a576120858683613764565b61208c565b815b9050801561214d57604051636eb1769f60e11b815233600482015230602482015281907f00000000000000000000000000000000000000000000000000000000000000006001600160a01b03169063dd62ed3e90604401602060405180830381865afa158015612100573d6000803e3d6000fd5b505050506040513d601f19601f820116820180604052508101906121249190613ea0565b10156121425760405162461bcd60e51b8152600401610281906140a6565b61214d333083613293565b6121603361215b8385613fab565b61377a565b6121686139b9565b6002546040516351c452bf60e01b81526001600160a01b037f00000000000000000000000000000000000000000000000000000000000000008116600483015291821660248201527f0000000000000000000000000000000000000000000000000000000000000000909116906351c452bf90604401600060405180830381600087803b1580156121f857600080fd5b505af115801561220c573d6000803e3d6000fd5b50506001546040516340c10f1960e01b8152336004820152602481018790526001600160a01b0390911692506340c10f199150604401600060405180830381600087803b15801561225c57600080fd5b505af1158015612270573d6000803e3d6000fd5b505060408051348152602081018790529081018490523392507f3af2c1ec57343b1e7e40c3f6c85f5ad943344cd8548bdf819f1da51aaebb3db6915060600160405180910390a2505050506122c56001600055565b5050565b336001600160a01b037f000000000000000000000000000000000000000000000000000000000000000016146123115760405162461bcd60e51b815260040161028190613e74565b612319612bdd565b6000612323612d88565b9050612330308585613415565b6040810151815160009161234691908590612fc2565b6001546040516370a0823160e01b81526001600160a01b037f0000000000000000000000000000000000000000000000000000000000000000811660048301529293506000926123e49285929116906370a0823190602401602060405180830381865afa1580156123bb573d6000803e3d6000fd5b505050506040513d601f19601f820116820180604052508101906123df9190613ea0565b613764565b90506000612415847f0000000000000000000000000000000000000000000000000000000000000000846002613131565b5090506124427f0000000000000000000000000000000000000000000000000000000000000000826133cb565b600154604051632770a7eb60e21b81526001600160a01b037f0000000000000000000000000000000000000000000000000000000000000000811660048301526024820185905290911690639dc29fac90604401600060405180830381600087803b1580156124b057600080fd5b505af11580156124c4573d6000803e3d6000fd5b505050505050505061192b6001600055565b6124de612bdd565b7f00000000000000000000000000000000000000000000000000000000000000006001600160a01b031663194307bf6040518163ffffffff1660e01b8152600401602060405180830381865afa15801561253c573d6000803e3d6000fd5b505050506040513d601f19601f820116820180604052508101906125609190613eb9565b6125a55760405162461bcd60e51b8152602060048201526016602482015275198b585cdcd95d081b9bdd081d195c9b5a5b985d195960521b6044820152606401610281565b6001546040516370a0823160e01b81523360048201526000916001600160a01b0316906370a0823190602401602060405180830381865afa1580156125ee573d6000803e3d6000fd5b505050506040513d601f19601f820116820180604052508101906126129190613ea0565b90506000811161265a5760405162461bcd60e51b81526020600482015260136024820152726e6f7468696e6720746f20776974686472617760681b6044820152606401610281565b60006126e1600654600160009054906101000a90046001600160a01b03166001600160a01b03166318160ddd6040518163ffffffff1660e01b8152600401602060405180830381865afa1580156126b5573d6000803e3d6000fd5b505050506040513d601f19601f820116820180604052508101906126d99190613ea0565b849190612fc2565b600154604051632770a7eb60e21b8152336004820152602481018590529192506001600160a01b031690639dc29fac90604401600060405180830381600087803b15801561272e57600080fd5b505af1158015612742573d6000803e3d6000fd5b50505050612751303383613415565b505061275d6001600055565b565b60008061276a612d88565b905061106b818461371a565b61277e612bdd565b336000908152600360205260409020548111156127dd5760405162461bcd60e51b815260206004820152601e60248201527f6465627420662d61737365742062616c616e636520746f6f20736d616c6c00006044820152606401610281565b604051636eb1769f60e11b815233600482015230602482015281907f00000000000000000000000000000000000000000000000000000000000000006001600160a01b03169063dd62ed3e90604401602060405180830381865afa158015612849573d6000803e3d6000fd5b505050506040513d601f19601f8201168201806040525081019061286d9190613ea0565b101561288b5760405162461bcd60e51b8152600401610281906140a6565b61289533826133cb565b6128a0333083613293565b604080516000808252602082015290810182905233907f3af2c1ec57343b1e7e40c3f6c85f5ad943344cd8548bdf819f1da51aaebb3db69060600160405180910390a2610b466001600055565b336001600160a01b037f000000000000000000000000000000000000000000000000000000000000000016146129355760405162461bcd60e51b815260040161028190613e74565b6002546001600160a01b03828116911614610b46576002546040516370a0823160e01b81523060048201526000916001600160a01b0316906370a0823190602401602060405180830381865afa158015612993573d6000803e3d6000fd5b505050506040513d601f19601f820116820180604052508101906129b79190613ea0565b60028054600160f01b60ff60f01b19821617909155604051632e1a7d4d60e01b8152600481018390529192506001600160a01b031690632e1a7d4d90602401600060405180830381600087803b158015612a1057600080fd5b505af1158015612a24573d6000803e3d6000fd5b50506002805460ff60f01b19169055505060408051630d0e30db60e41b815290516001600160a01b0384169163d0e30db091849160048082019260009290919082900301818588803b158015612a7957600080fd5b505af1158015612a8d573d6000803e3d6000fd5b5050600280546001600160a01b0319166001600160a01b038781169182179092556040516351c452bf60e01b81527f00000000000000000000000000000000000000000000000000000000000000008316600482015260248101919091527f000000000000000000000000000000000000000000000000000000000000000090911693506351c452bf92506044019050610ba0565b612b2b33612cd1565b612b475760405162461bcd60e51b815260040161028190613ed6565b60405163596090c960e11b81523060048201819052602482015260448101829052600160648201526001600160a01b0383169063b2c12192906084016020604051808303816000875af1158015612ba2573d6000803e3d6000fd5b505050506040513d601f19601f8201168201806040525081019061192b9190613ea0565b600080612bd1612d88565b905061106b8184613a17565b600260005403612c2f5760405162461bcd60e51b815260206004820152601f60248201527f5265656e7472616e637947756172643a207265656e7472616e742063616c6c006044820152606401610281565b6002600055565b80156122c5576000826001600160a01b03168260405160006040518083038185875af1925050503d8060008114612c89576040519150601f19603f3d011682016040523d82523d6000602084013e612c8e565b606091505b505090508061192b5760405162461bcd60e51b815260206004820152600f60248201526e1d1c985b9cd9995c8819985a5b1959608a1b6044820152606401610281565b60405163d6b93a9f60e01b81526001600160a01b037f00000000000000000000000000000000000000000000000000000000000000008116600483015282811660248301526000917f00000000000000000000000000000000000000000000000000000000000000009091169063d6b93a9f90604401602060405180830381865afa158015612d64573d6000803e3d6000fd5b505050506040513d601f19601f8201168201806040525081019061111b9190613eb9565b612dc86040518060e00160405280600081526020016000815260200160008152602001600081526020016000815260200160008152602001600081525090565b600060055490506000807f00000000000000000000000000000000000000000000000000000000000000006001600160a01b03166302312aec6040518163ffffffff1660e01b81526004016040805180830381865afa158015612e2f573d6000803e3d6000fd5b505050506040513d601f19601f82011682018060405250810190612e5391906141c0565b915091506040518060e00160405280600160009054906101000a90046001600160a01b03166001600160a01b03166318160ddd6040518163ffffffff1660e01b8152600401602060405180830381865afa158015612eb5573d6000803e3d6000fd5b505050506040513d601f19601f82011682018060405250810190612ed99190613ea0565b815260405163769bb15560e11b81526001600160a01b037f0000000000000000000000000000000000000000000000000000000000000000811660048301526020909201917f0000000000000000000000000000000000000000000000000000000000000000169063ed3762aa90602401602060405180830381865afa158015612f67573d6000803e3d6000fd5b505050506040513d601f19601f82011682018060405250810190612f8b9190613ea0565b8152602001600654815260200184815260200160045485612fac9190614172565b8152602081019390935260409092015292915050565b60008082116130065760405162461bcd60e51b815260206004820152601060248201526f4469766973696f6e206279207a65726f60801b6044820152606401610281565b836000036130165750600061106b565b83830283858281613029576130296141e4565b04036130475782818161303e5761303e6141e4565b0491505061106b565b50600061305483866141fa565b90506000613062848761420e565b9050600061307085876141fa565b9050600061307e868861420e565b90508561308b82856141a9565b61309591906141fa565b61309f83856141a9565b6130a983876141a9565b886130b486896141a9565b6130be91906141a9565b6130c89190614172565b6130d29190614172565b6130dc9190614172565b98975050505050505050565b6000613108828560a00151866020015161310291906141a9565b90613ab7565b8460c0015184866040015161311d9190613fab565b61312791906141a9565b1015949350505050565b60008060006131408787613a17565b6001600160a01b038781166000818152600360205260408082205460015491516370a0823160e01b8152600481019490945294955090926131d3928a92909116906370a0823190602401602060405180830381865afa1580156131a7573d6000803e3d6000fd5b505050506040513d601f19601f820116820180604052508101906131cb9190613ea0565b859190612fc2565b905060008660028111156131e9576131e9614222565b036132285760008383106131fe576000613208565b6132088385613fab565b90506132148282613764565b94506132208583613fab565b955050613287565b600186600281111561323c5761323c614222565b0361325e5761324b8183613764565b94506132578582613fab565b9350613287565b6000821161326d576000613278565b613278828285612fc2565b94506132848582613fab565b93505b50505094509492505050565b306001600160a01b038416036133545780600560008282546132b59190613fab565b909155505060405163a9059cbb60e01b81526001600160a01b038381166004830152602482018390527f0000000000000000000000000000000000000000000000000000000000000000169063a9059cbb906044015b6020604051808303816000875af115801561332a573d6000803e3d6000fd5b505050506040513d601f19601f8201168201806040525081019061334e9190613eb9565b50505050565b306001600160a01b0383160361192b5780600560008282546133769190614172565b90915550506040516323b872dd60e01b81526001600160a01b037f000000000000000000000000000000000000000000000000000000000000000016906323b872dd9061330b908690869086906004016140dd565b6001600160a01b038216600090815260036020526040812080548392906133f3908490613fab565b92505081905550806004600082825461340c9190613fab565b90915550505050565b306001600160a01b038416036134755780600660008282546134379190613fab565b909155505060025460405163a9059cbb60e01b81526001600160a01b038481166004830152602482018490529091169063a9059cbb9060440161330b565b306001600160a01b0383160361192b5780600660008282546134979190614172565b90915550506002546040516323b872dd60e01b81526001600160a01b03909116906323b872dd9061330b908690869086906004016140dd565b6001546040516370a0823160e01b81526001600160a01b03838116600483015260009283929116906370a0823190602401602060405180830381865afa15801561351e573d6000803e3d6000fd5b505050506040513d601f19601f820116820180604052508101906135429190613ea0565b90508060000361355657600091505061111b565b6001600160a01b0383166000908152600360205260408120549081900361357f5750905061111b565b8451608086015160009161359591908590612fc2565b905060006135a38383613fab565b608088015188519192506000916130dc918490612fc2565b6002546000906135db9084908390600160a01b900463ffffffff166130e8565b1561365b5760025460a0840151600091613606919063ffffffff600160a01b909104811690613ab716565b8385604001516136169190613fab565b8560a0015161362591906141a9565b61362f91906141fa565b905080846020015111613643576000613653565b8084602001516136539190613fab565b91505061111b565b60408301516020840151611118918490612fc2565b6002546000906136909084908390600160a01b900463ffffffff166130e8565b156137055760008360c001516136d7600260149054906101000a900463ffffffff1663ffffffff168587602001516136c89190613fab565b8760a0015161310291906141a9565b6136e191906141fa565b9050808460400151116136f5576000613653565b8084604001516136539190613fab565b60208301516040840151611118918490612fc2565b6000806137278484613a17565b6001600160a01b03841660009081526003602052604090205490915080821161375157600061375b565b61375b8183613fab565b95945050505050565b60008183106137735781611118565b5090919050565b6001600160a01b038216600090815260036020526040812080548392906137a2908490614172565b92505081905550806004600082825461340c9190614172565b600063ffffffff8211156138205760405162461bcd60e51b815260206004820152602660248201527f53616665436173743a2076616c756520646f65736e27742066697420696e203360448201526532206269747360d01b6064820152608401610281565b5090565b600061ffff8211156138205760405162461bcd60e51b815260206004820152602660248201527f53616665436173743a2076616c756520646f65736e27742066697420696e203160448201526536206269747360d01b6064820152608401610281565b60008083604001516000148061389c57508351155b600254602086015160a08701519293506000926138ca92600160c01b900463ffffffff1691613102916141a9565b905060008560c0015186604001516138e291906141a9565b82116138ef57600061390d565b604086015160c087015161390390846141fa565b61390d9190613fab565b9050600061391b8683613764565b9050600086821061392d576000613937565b6139378288613fab565b60025490915060009061395a90849061271090600160e01b900461ffff16612fc2565b905060008661397a5760408a01518a51613975918590612fc2565b61397c565b825b905060008761399c5760408b01518b51613997918590612fc2565b61399e565b825b90506139aa8282614172565b9b9a5050505050505050505050565b34600660008282546139cb9190614172565b909155505060025460408051630d0e30db60e41b815290516001600160a01b039092169163d0e30db0913491600480830192600092919082900301818588803b158015611c2257600080fd5b6001546040516370a0823160e01b81526001600160a01b03838116600483015260009283929116906370a0823190602401602060405180830381865afa158015613a65573d6000803e3d6000fd5b505050506040513d601f19601f82011682018060405250810190613a899190613ea0565b905080600003613a9d57600091505061111b565b83516080850151613aaf918390612fc2565b949350505050565b60006111188383612710612fc2565b6001600160a01b0381168114610b4657600080fd5b600060208284031215613aed57600080fd5b813561106b81613ac6565b634e487b7160e01b600052604160045260246000fd5b604051601f8201601f1916810167ffffffffffffffff81118282101715613b3757613b37613af8565b604052919050565b600067ffffffffffffffff821115613b5957613b59613af8565b5060051b60200190565b600082601f830112613b7457600080fd5b81356020613b89613b8483613b3f565b613b0e565b82815260059290921b84018101918181019086841115613ba857600080fd5b8286015b84811015613bcc578035613bbf81613ac6565b8352918301918301613bac565b509695505050505050565b60008060408385031215613bea57600080fd5b823567ffffffffffffffff80821115613c0257600080fd5b613c0e86838701613b63565b9350602091508185013581811115613c2557600080fd5b85019050601f81018613613c3857600080fd5b8035613c46613b8482613b3f565b81815260059190911b82018301908381019088831115613c6557600080fd5b928401925b82841015613c8357833582529284019290840190613c6a565b80955050505050509250929050565b60008060408385031215613ca557600080fd5b82359150602083013560038110613cbb57600080fd5b809150509250929050565b60008060408385031215613cd957600080fd5b8235613ce481613ac6565b946020939093013593505050565b8015158114610b4657600080fd5b600080600060608486031215613d1557600080fd5b83359250602080850135613d2881613cf2565b9250604085013567ffffffffffffffff80821115613d4557600080fd5b818701915087601f830112613d5957600080fd5b813581811115613d6b57613d6b613af8565b613d7d601f8201601f19168501613b0e565b91508082528884828501011115613d9357600080fd5b80848401858401376000848284010152508093505050509250925092565b600060208284031215613dc357600080fd5b5035919050565b60008060408385031215613ddd57600080fd5b8235613de881613ac6565b9150602083013567ffffffffffffffff811115613e0457600080fd5b613e1085828601613b63565b9150509250929050565b60008060408385031215613e2d57600080fd5b823591506020830135613cbb81613cf2565b600080600060608486031215613e5457600080fd5b8335613e5f81613ac6565b95602085013595506040909401359392505050565b60208082526012908201527137b7363c9030b9b9b2ba1036b0b730b3b2b960711b604082015260600190565b600060208284031215613eb257600080fd5b5051919050565b600060208284031215613ecb57600080fd5b815161106b81613cf2565b6020808252600a90820152691bdb9b1e481859d95b9d60b21b604082015260600190565b600081518084526020808501945080840160005b83811015613f335781516001600160a01b031687529582019590820190600101613f0e565b509495945050505050565b604081526000613f516040830185613efa565b82810360208481019190915284518083528582019282019060005b81811015613f8857845183529383019391830191600101613f6c565b5090979650505050505050565b634e487b7160e01b600052601160045260246000fd5b8181038181111561111b5761111b613f95565b60208082526034908201527f746f6b656e20737570706c79206c656674206166746572206578697420697320604082015273746f6f206c6f7720616e64206e6f6e2d7a65726f60601b606082015260800190565b60208082526022908201527f616d6f756e74206f662073656e7420746f6b656e7320697320746f6f20736d616040820152611b1b60f21b606082015260800190565b60208082526032908201527f636f6c6c61746572616c206c656674206166746572206578697420697320746f6040820152716f206c6f7720616e64206e6f6e2d7a65726f60701b606082015260800190565b6020808252601b908201527f662d617373657420616c6c6f77616e636520746f6f20736d616c6c0000000000604082015260600190565b6001600160a01b039384168152919092166020820152604081019190915260600190565b600060018060a01b038087168352602081871681850152856040850152608060608501528451915081608085015260005b8281101561414e5785810182015185820160a001528101614132565b5050600060a0828501015260a0601f19601f83011684010191505095945050505050565b8082018082111561111b5761111b613f95565b6040815260006141986040830185613efa565b905082151560208301529392505050565b808202811582820484141761111b5761111b613f95565b600080604083850312156141d357600080fd5b505080516020909101519092909150565b634e487b7160e01b600052601260045260246000fd5b600082614209576142096141e4565b500490565b60008261421d5761421d6141e4565b500690565b634e487b7160e01b600052602160045260246000fdfea2646970667358221220dd948da5c248cf7bc1f8271c23ac8325ec916cd8705ab1be264e024c3804f8d264736f6c63430008140033a2646970667358221220f28e07e16ed7908e2f8814ba9ed3037e44864ffcc086cf654d308f2e9e68e3a064736f6c63430008140033",
  "linkReferences": {},
  "deployedLinkReferences": {}
}