{
  "_format": "hh-sol-artifact-1",
  "contractName": "CollateralPoolFactory",
  "sourceName": "contracts/fasset/implementation/CollateralPoolFactory.sol",
  "abi": [
    {
      "inputs": [
        {
          "internalType": "contract IIAssetManager",
          "name": "_assetManager",
          "type": "address"
        },
        {
          "internalType": "address",
          "name": "_agentVault",
          "type": "address"
        },
        {
          "components": [
            {
              "internalType": "string",
              "name": "underlyingAddressString",
              "type": "string"
            },
            {
              "internalType": "contract IERC20",
              "name": "class1CollateralToken",
              "type": "address"
            },
            {
              "internalType": "uint256",
              "name": "feeBIPS",
              "type": "uint256"
            },
            {
              "internalType": "uint256",
              "name": "poolFeeShareBIPS",
              "type": "uint256"
            },
            {
              "internalType": "uint256",
              "name": "mintingClass1CollateralRatioBIPS",
              "type": "uint256"
            },
            {
              "internalType": "uint256",
              "name": "mintingPoolCollateralRatioBIPS",
              "type": "uint256"
            },
            {
              "internalType": "uint256",
              "name": "buyFAssetByAgentFactorBIPS",
              "type": "uint256"
            },
            {
              "internalType": "uint256",
              "name": "poolExitCollateralRatioBIPS",
              "type": "uint256"
            },
            {
              "internalType": "uint256",
              "name": "poolTopupCollateralRatioBIPS",
              "type": "uint256"
            },
            {
              "internalType": "uint256",
              "name": "poolTopupTokenPriceFactorBIPS",
              "type": "uint256"
            }
          ],
          "internalType": "struct AgentCreateSettings.Data",
          "name": "_settings",
          "type": "tuple"
        }
      ],
      "name": "create",
      "outputs": [
        {
          "internalType": "contract IICollateralPool",
          "name": "",
          "type": "address"
        }
      ],
      "stateMutability": "nonpayable",
      "type": "function"
    },
    {
      "inputs": [
        {
          "internalType": "contract IICollateralPool",
          "name": "_pool",
          "type": "address"
        }
      ],
      "name": "createPoolToken",
      "outputs": [
        {
          "internalType": "address",
          "name": "",
          "type": "address"
        }
      ],
      "stateMutability": "nonpayable",
      "type": "function"
    },
    {
      "inputs": [
        {
          "internalType": "bytes4",
          "name": "_interfaceId",
          "type": "bytes4"
        }
      ],
      "name": "supportsInterface",
      "outputs": [
        {
          "internalType": "bool",
          "name": "",
          "type": "bool"
        }
      ],
      "stateMutability": "pure",
      "type": "function"
    }
  ],
  "bytecode": "0x608060405234801561001057600080fd5b50615d99806100206000396000f3fe608060405234801561001057600080fd5b50600436106100415760003560e01c806301ffc9a7146100465780632b625f231461006e578063f713fdd914610099575b600080fd5b61005961005436600461031b565b6100ac565b60405190151581526020015b60405180910390f35b61008161007c366004610364565b6100e3565b6040516001600160a01b039091168152602001610065565b6100816100a736600461045e565b610127565b60006001600160e01b031982166301ffc9a760e01b14806100dd57506001600160e01b03198216636e38d17d60e11b145b92915050565b600080826040516100f3906102ff565b6001600160a01b039091168152602001604051809103906000f08015801561011f573d6000803e3d6000fd5b509392505050565b600080846001600160a01b0316637c7db1a56040518163ffffffff1660e01b8152600401602060405180830381865afa158015610168573d6000803e3d6000fd5b505050506040513d601f19601f8201168201806040525081019061018c919061055a565b905060008486836101a08760e0015161022e565b6101ae88610100015161022e565b6101bc89610120015161029c565b6040516101c89061030d565b6001600160a01b039687168152948616602086015294909216604084015263ffffffff908116606084015216608082015261ffff90911660a082015260c001604051809103906000f080158015610223573d6000803e3d6000fd5b509695505050505050565b600063ffffffff8211156102985760405162461bcd60e51b815260206004820152602660248201527f53616665436173743a2076616c756520646f65736e27742066697420696e203360448201526532206269747360d01b60648201526084015b60405180910390fd5b5090565b600061ffff8211156102985760405162461bcd60e51b815260206004820152602660248201527f53616665436173743a2076616c756520646f65736e27742066697420696e203160448201526536206269747360d01b606482015260840161028f565b611146806200057883390190565b6146a680620016be83390190565b60006020828403121561032d57600080fd5b81356001600160e01b03198116811461034557600080fd5b9392505050565b6001600160a01b038116811461036157600080fd5b50565b60006020828403121561037657600080fd5b81356103458161034c565b634e487b7160e01b600052604160045260246000fd5b604051610140810167ffffffffffffffff811182821017156103bb576103bb610381565b60405290565b600082601f8301126103d257600080fd5b813567ffffffffffffffff808211156103ed576103ed610381565b604051601f8301601f19908116603f0116810190828211818310171561041557610415610381565b8160405283815286602085880101111561042e57600080fd5b836020870160208301376000602085830101528094505050505092915050565b80356104598161034c565b919050565b60008060006060848603121561047357600080fd5b833561047e8161034c565b9250602084013561048e8161034c565b9150604084013567ffffffffffffffff808211156104ab57600080fd5b9085019061014082880312156104c057600080fd5b6104c8610397565b8235828111156104d757600080fd5b6104e3898286016103c1565b8252506104f26020840161044e565b602082015260408301356040820152606083013560608201526080830135608082015260a083013560a082015260c083013560c082015260e083013560e082015261010091508183013582820152610120915081830135828201528093505050509250925092565b60006020828403121561056c57600080fd5b81516103458161034c56fe60a06040523480156200001157600080fd5b5060405162001146380380620011468339810160408190526200003491620000bc565b6040518060400160405280601c81526020017f46417373657420436f6c6c61746572616c20506f6f6c20546f6b656e00000000815250604051806040016040528060048152602001631190d41560e21b815250816003908162000098919062000193565b506004620000a7828262000193565b5050506001600160a01b03166080526200025f565b600060208284031215620000cf57600080fd5b81516001600160a01b0381168114620000e757600080fd5b9392505050565b634e487b7160e01b600052604160045260246000fd5b600181811c908216806200011957607f821691505b6020821081036200013a57634e487b7160e01b600052602260045260246000fd5b50919050565b601f8211156200018e57600081815260208120601f850160051c81016020861015620001695750805b601f850160051c820191505b818110156200018a5782815560010162000175565b5050505b505050565b81516001600160401b03811115620001af57620001af620000ee565b620001c781620001c0845462000104565b8462000140565b602080601f831160018114620001ff5760008415620001e65750858301515b600019600386901b1c1916600185901b1785556200018a565b600085815260208120601f198616915b8281101562000230578886015182559484019460019091019084016200020f565b50858210156200024f5787850151600019600388901b60f8161c191681555b5050505050600190811b01905550565b608051610ea1620002a560003960008181610281015281816102c60152818161045c015281816104c901528181610551015281816106430152610bfe0152610ea16000f3fe608060405234801561001057600080fd5b50600436106101155760003560e01c806359355736116100a2578063a457c2d711610071578063a457c2d714610230578063a9059cbb14610243578063c7d9f4d114610256578063dd62ed3e14610269578063ff0eccf61461027c57600080fd5b806359355736146101d957806370a08231146101ec57806395d89b41146102155780639dc29fac1461021d57600080fd5b806318160ddd116100e957806318160ddd1461017f57806323b872dd14610191578063313ce567146101a457806339509351146101b357806340c10f19146101c657600080fd5b8062f55d9d1461011a57806301ffc9a71461012f57806306fdde0314610157578063095ea7b31461016c575b600080fd5b61012d610128366004610c87565b6102bb565b005b61014261013d366004610cab565b61030f565b60405190151581526020015b60405180910390f35b61015f610361565b60405161014e9190610cd5565b61014261017a366004610d23565b6103f3565b6002545b60405190815260200161014e565b61014261019f366004610d4f565b61040b565b6040516012815260200161014e565b6101426101c1366004610d23565b61042f565b61012d6101d4366004610d23565b610451565b6101836101e7366004610c87565b6104a7565b6101836101fa366004610c87565b6001600160a01b031660009081526020819052604090205490565b61015f610537565b61012d61022b366004610d23565b610546565b61014261023e366004610d23565b610598565b610142610251366004610d23565b610613565b610183610264366004610c87565b610621565b610183610277366004610d90565b610674565b6102a37f000000000000000000000000000000000000000000000000000000000000000081565b6040516001600160a01b03909116815260200161014e565b336001600160a01b037f0000000000000000000000000000000000000000000000000000000000000000161461030c5760405162461bcd60e51b815260040161030390610dc9565b60405180910390fd5b50565b60006001600160e01b031982166301ffc9a760e01b148061034057506001600160e01b031982166336372b0760e01b145b8061035b57506001600160e01b031982166361e26f1160e01b145b92915050565b60606003805461037090610df7565b80601f016020809104026020016040519081016040528092919081815260200182805461039c90610df7565b80156103e95780601f106103be576101008083540402835291602001916103e9565b820191906000526020600020905b8154815290600101906020018083116103cc57829003601f168201915b5050505050905090565b60003361040181858561069f565b5060019392505050565b6000336104198582856107c4565b61042485858561083e565b506001949350505050565b6000336104018185856104428383610674565b61044c9190610e31565b61069f565b336001600160a01b037f000000000000000000000000000000000000000000000000000000000000000016146104995760405162461bcd60e51b815260040161030390610dc9565b6104a382826109ed565b5050565b604051633a22a94d60e01b81526001600160a01b0382811660048301526000917f000000000000000000000000000000000000000000000000000000000000000090911690633a22a94d906024015b602060405180830381865afa158015610513573d6000803e3d6000fd5b505050506040513d601f19601f8201168201806040525081019061035b9190610e52565b60606004805461037090610df7565b336001600160a01b037f0000000000000000000000000000000000000000000000000000000000000000161461058e5760405162461bcd60e51b815260040161030390610dc9565b6104a38282610ab8565b600033816105a68286610674565b9050838110156106065760405162461bcd60e51b815260206004820152602560248201527f45524332303a2064656372656173656420616c6c6f77616e63652062656c6f77604482015264207a65726f60d81b6064820152608401610303565b610424828686840361069f565b60003361040181858561083e565b604051636532587160e01b81526001600160a01b0382811660048301526000917f0000000000000000000000000000000000000000000000000000000000000000909116906365325871906024016104f6565b6001600160a01b03918216600090815260016020908152604080832093909416825291909152205490565b6001600160a01b0383166107015760405162461bcd60e51b8152602060048201526024808201527f45524332303a20617070726f76652066726f6d20746865207a65726f206164646044820152637265737360e01b6064820152608401610303565b6001600160a01b0382166107625760405162461bcd60e51b815260206004820152602260248201527f45524332303a20617070726f766520746f20746865207a65726f206164647265604482015261737360f01b6064820152608401610303565b6001600160a01b0383811660008181526001602090815260408083209487168084529482529182902085905590518481527f8c5be1e5ebec7d5bd14f71427d1e84f3dd0314c0f7b2291e5b200ac8c7c3b92591015b60405180910390a3505050565b60006107d08484610674565b90506000198114610838578181101561082b5760405162461bcd60e51b815260206004820152601d60248201527f45524332303a20696e73756666696369656e7420616c6c6f77616e63650000006044820152606401610303565b610838848484840361069f565b50505050565b6001600160a01b0383166108a25760405162461bcd60e51b815260206004820152602560248201527f45524332303a207472616e736665722066726f6d20746865207a65726f206164604482015264647265737360d81b6064820152608401610303565b6001600160a01b0382166109045760405162461bcd60e51b815260206004820152602360248201527f45524332303a207472616e7366657220746f20746865207a65726f206164647260448201526265737360e81b6064820152608401610303565b61090f838383610bf3565b6001600160a01b038316600090815260208190526040902054818110156109875760405162461bcd60e51b815260206004820152602660248201527f45524332303a207472616e7366657220616d6f756e7420657863656564732062604482015265616c616e636560d01b6064820152608401610303565b6001600160a01b03848116600081815260208181526040808320878703905593871680835291849020805487019055925185815290927fddf252ad1be2c89b69c2b068fc378daa952ba7f163c4a11628f55a4df523b3ef910160405180910390a3610838565b6001600160a01b038216610a435760405162461bcd60e51b815260206004820152601f60248201527f45524332303a206d696e7420746f20746865207a65726f2061646472657373006044820152606401610303565b610a4f60008383610bf3565b8060026000828254610a619190610e31565b90915550506001600160a01b038216600081815260208181526040808320805486019055518481527fddf252ad1be2c89b69c2b068fc378daa952ba7f163c4a11628f55a4df523b3ef910160405180910390a35050565b6001600160a01b038216610b185760405162461bcd60e51b815260206004820152602160248201527f45524332303a206275726e2066726f6d20746865207a65726f206164647265736044820152607360f81b6064820152608401610303565b610b2482600083610bf3565b6001600160a01b03821660009081526020819052604090205481811015610b985760405162461bcd60e51b815260206004820152602260248201527f45524332303a206275726e20616d6f756e7420657863656564732062616c616e604482015261636560f01b6064820152608401610303565b6001600160a01b0383166000818152602081815260408083208686039055600280548790039055518581529192917fddf252ad1be2c89b69c2b068fc378daa952ba7f163c4a11628f55a4df523b3ef91016107b7565b505050565b336001600160a01b037f00000000000000000000000000000000000000000000000000000000000000001614610bee57610c2c83610621565b811115610bee5760405162461bcd60e51b8152602060048201526014602482015273667265652062616c616e636520746f6f206c6f7760601b6044820152606401610303565b6001600160a01b038116811461030c57600080fd5b600060208284031215610c9957600080fd5b8135610ca481610c72565b9392505050565b600060208284031215610cbd57600080fd5b81356001600160e01b031981168114610ca457600080fd5b600060208083528351808285015260005b81811015610d0257858101830151858201604001528201610ce6565b506000604082860101526040601f19601f8301168501019250505092915050565b60008060408385031215610d3657600080fd5b8235610d4181610c72565b946020939093013593505050565b600080600060608486031215610d6457600080fd5b8335610d6f81610c72565b92506020840135610d7f81610c72565b929592945050506040919091013590565b60008060408385031215610da357600080fd5b8235610dae81610c72565b91506020830135610dbe81610c72565b809150509250929050565b6020808252601490820152731bdb9b1e4818dbdb1b185d195c985b081c1bdbdb60621b604082015260600190565b600181811c90821680610e0b57607f821691505b602082108103610e2b57634e487b7160e01b600052602260045260246000fd5b50919050565b8082018082111561035b57634e487b7160e01b600052601160045260246000fd5b600060208284031215610e6457600080fd5b505191905056fea26469706673582212208dfabc06c9dcadbd45e6b55ed06c8cd8dc889fbb42f668d9f44c0582dcce5c7a64736f6c6343000814003360e06040523480156200001157600080fd5b50604051620046a6380380620046a683398101604081905262000034916200015a565b60016000556001600160a01b0380871660805285811660a081905290851660c05260408051635ad2445360e11b8152905163b5a488a6916004808201926020929091908290030181865afa15801562000091573d6000803e3d6000fd5b505050506040513d601f19601f82011682018060405250810190620000b79190620001ed565b6002805461ffff909316600160e01b0261ffff60e01b1963ffffffff958616600160c01b021665ffffffffffff60c01b1995909616600160a01b026001600160c01b03199094166001600160a01b0393909316929092179290921792909216929092171790555062000214915050565b6001600160a01b03811681146200013d57600080fd5b50565b805163ffffffff811681146200015557600080fd5b919050565b60008060008060008060c087890312156200017457600080fd5b8651620001818162000127565b6020880151909650620001948162000127565b6040880151909550620001a78162000127565b9350620001b76060880162000140565b9250620001c76080880162000140565b915060a087015161ffff81168114620001df57600080fd5b809150509295509295509295565b6000602082840312156200020057600080fd5b81516200020d8162000127565b9392505050565b60805160a05160c05161435f62000347600039600081816104f9015281816109ee01528181610b060152818161155b015281816115fb015281816121360152818161257d015281816128970152818161339b015261344d0152600081816105cf015281816107f201528181610fb8015281816113b60152818161168201528181611728015281816117cf01528181611b0301528181611ccc01528181611d8f01528181611e4101528181612237015281816123590152818161299501528181612b8a01528181612db801528181612e710152612fbd0152600081816105450152818161138b01528181611755015281816117fc01528181612207015281816123cf01528181612489015281816124b8015281816124f701528181612b5a01528181612d850152612f8f015261435f6000f3fe60806040526004361061023e5760003560e01c806388985cd61161012e578063ba133b87116100ab578063ee781db01161006f578063ee781db014610747578063f4d000b214610767578063fbebcadf14610787578063fc0c546a146107a7578063fd86d3ea146107c757600080fd5b8063ba133b87146106a8578063c1b0bbf8146106bd578063cb209413146106dd578063cbabdf3914610713578063cbdf382c1461072957600080fd5b8063a854a6a2116100f2578063a854a6a214610631578063ac3736c114610651578063adf58c1514610664578063b337929b14610684578063b9e26483146102f157600080fd5b806388985cd614610587578063923f8932146105a757806394217ad1146105bd5780639a4247e6146105f15780639edbf0071461061157600080fd5b80634a4ac2ef116101bc578063787b9ca811610180578063787b9ca8146104b45780637b6e1b55146104d45780637c7db1a5146104e7578063815ea9d61461053357806386ac57a21461056757600080fd5b80634a4ac2ef146104095780634ac8eb5f1461043e5780635ca36489146104545780635e318e0714610474578063653258711461049457600080fd5b80632f35eac2116102035780632f35eac21461033b57806333ce01fd146103705780633a22a94d146103905780633cfc747d146103b0578063406c7007146103e957600080fd5b8062f55d9d1461029c57806301ffc9a7146102bc5780630ac07344146102f15780630dc1e5e1146102f157806314a3ab801461031b57600080fd5b3661029757600254600160f01b900460ff166102955760405162461bcd60e51b81526020600482015260116024820152706f6e6c7920696e7465726e616c2075736560781b60448201526064015b60405180910390fd5b005b600080fd5b3480156102a857600080fd5b506102956102b7366004613ba2565b6107e7565b3480156102c857600080fd5b506102dc6102d7366004613bbf565b610b84565b60405190151581526020015b60405180910390f35b3480156102fd57600080fd5b5061030d670de0b6b3a764000081565b6040519081526020016102e8565b34801561032757600080fd5b50610295610336366004613cc8565b610bd6565b34801561034757600080fd5b5061035b610356366004613d83565b610c63565b604080519283526020830191909152016102e8565b34801561037c57600080fd5b5061029561038b366004613ba2565b610fad565b34801561039c57600080fd5b5061030d6103ab366004613ba2565b611069565b3480156103bc57600080fd5b506002546103d490600160a01b900463ffffffff1681565b60405163ffffffff90911681526020016102e8565b3480156103f557600080fd5b5061030d610404366004613db7565b6110ff565b34801561041557600080fd5b5060025461042b90600160e01b900461ffff1681565b60405161ffff90911681526020016102e8565b34801561044a57600080fd5b5061030d60065481565b34801561046057600080fd5b5061029561046f366004613df1565b6111a5565b34801561048057600080fd5b5061029561048f366004613ea2565b6119b4565b3480156104a057600080fd5b5061030d6104af366004613ba2565b611ae1565b3480156104c057600080fd5b506102956104cf366004613ea2565b611af8565b6102956104e2366004613ebb565b611bba565b3480156104f357600080fd5b5061051b7f000000000000000000000000000000000000000000000000000000000000000081565b6040516001600160a01b0390911681526020016102e8565b34801561053f57600080fd5b5061051b7f000000000000000000000000000000000000000000000000000000000000000081565b34801561057357600080fd5b50610295610582366004613ba2565b611c46565b34801561059357600080fd5b506102956105a2366004613ea2565b611cc1565b3480156105b357600080fd5b5061030d60045481565b3480156105c957600080fd5b5061051b7f000000000000000000000000000000000000000000000000000000000000000081565b3480156105fd57600080fd5b5061029561060c366004613ea2565b611d84565b34801561061d57600080fd5b5060025461051b906001600160a01b031681565b34801561063d57600080fd5b5061029561064c366004613ea2565b611e36565b61029561065f366004613f0b565b611e98565b34801561067057600080fd5b5061029561067f366004613f30565b61234e565b34801561069057600080fd5b506002546103d490600160c01b900463ffffffff1681565b3480156106b457600080fd5b50610295612573565b3480156106c957600080fd5b5061030d6106d8366004613ba2565b6127fc565b3480156106e957600080fd5b5061030d6106f8366004613ba2565b6001600160a01b031660009081526003602052604090205490565b34801561071f57600080fd5b5061030d60055481565b34801561073557600080fd5b506001546001600160a01b031661051b565b34801561075357600080fd5b50610295610762366004613ea2565b612813565b34801561077357600080fd5b50610295610782366004613ba2565b61298a565b34801561079357600080fd5b506102956107a2366004613db7565b612bbf565b3480156107b357600080fd5b5060015461051b906001600160a01b031681565b3480156107d357600080fd5b5061030d6107e2366004613ba2565b612c63565b336001600160a01b037f0000000000000000000000000000000000000000000000000000000000000000161461082f5760405162461bcd60e51b815260040161028c90613f65565b610837612c7a565b600654156108985760405162461bcd60e51b815260206004820152602860248201527f63616e6e6f742064657374726f79206120706f6f6c20686f6c64696e6720636f6044820152671b1b185d195c985b60c21b606482015260840161028c565b600554156108f75760405162461bcd60e51b815260206004820152602660248201527f63616e6e6f742064657374726f79206120706f6f6c20686f6c64696e6720662d60448201526561737365747360d01b606482015260840161028c565b60015460405162f55d9d60e01b81526001600160a01b0383811660048301529091169062f55d9d90602401600060405180830381600087803b15801561093c57600080fd5b505af1158015610950573d6000803e3d6000fd5b5050505061095e8147612cd3565b6002546040516370a0823160e01b81523060048201526000916001600160a01b0316906370a0823190602401602060405180830381865afa1580156109a7573d6000803e3d6000fd5b505050506040513d601f19601f820116820180604052508101906109cb9190613f91565b6040516370a0823160e01b81523060048201529091506000906001600160a01b037f000000000000000000000000000000000000000000000000000000000000000016906370a0823190602401602060405180830381865afa158015610a35573d6000803e3d6000fd5b505050506040513d601f19601f82011682018060405250810190610a599190613f91565b90508115610ada5760025460405163a9059cbb60e01b81526001600160a01b038581166004830152602482018590529091169063a9059cbb906044016020604051808303816000875af1158015610ab4573d6000803e3d6000fd5b505050506040513d601f19601f82011682018060405250810190610ad89190613faa565b505b8015610b755760405163a9059cbb60e01b81526001600160a01b038481166004830152602482018390527f0000000000000000000000000000000000000000000000000000000000000000169063a9059cbb906044016020604051808303816000875af1158015610b4f573d6000803e3d6000fd5b505050506040513d601f19601f82011682018060405250810190610b739190613faa565b505b5050610b816001600055565b50565b60006001600160e01b031982166301ffc9a760e01b1480610bb557506001600160e01b0319821663028dd70d60e01b145b80610bd057506001600160e01b0319821663a8ebf1fd60e01b145b92915050565b610bdf33612d6e565b610bfb5760405162461bcd60e51b815260040161028c90613fc7565b60025460405163dc4fcda760e01b81526001600160a01b039091169063dc4fcda790610c2d908590859060040161402f565b600060405180830381600087803b158015610c4757600080fd5b505af1158015610c5b573d6000803e3d6000fd5b505050505050565b600080610c6e612c7a565b60008411610cb45760405162461bcd60e51b8152602060048201526013602482015272746f6b656e207368617265206973207a65726f60681b604482015260640161028c565b6001546040516370a0823160e01b81523360048201526001600160a01b03909116906370a0823190602401602060405180830381865afa158015610cfc573d6000803e3d6000fd5b505050506040513d601f19601f82011682018060405250810190610d209190613f91565b841115610d675760405162461bcd60e51b8152602060048201526015602482015274746f6b656e2062616c616e636520746f6f206c6f7760581b604482015260640161028c565b6000610d71612e25565b8051909150851480610d9857508051670de0b6b3a764000090610d9590879061409c565b10155b610db45760405162461bcd60e51b815260040161028c906140af565b60408101518151600091610dca9188919061305f565b905060008111610dec5760405162461bcd60e51b815260040161028c90614103565b8082604001511480610e155750670de0b6b3a7640000818360400151610e12919061409c565b10155b610e315760405162461bcd60e51b815260040161028c90614145565b600254610e4e9083908390600160a01b900463ffffffff16613185565b610ea65760405162461bcd60e51b815260206004820152602360248201527f636f6c6c61746572616c20726174696f2066616c6c732062656c6f77206578696044820152623a21a960e91b606482015260840161028c565b600080610eb584338a8a6131ce565b90925090508015610ecb57610ecb303383613348565b8115610edb57610edb3383613486565b600154604051632770a7eb60e21b8152336004820152602481018a90526001600160a01b0390911690639dc29fac90604401600060405180830381600087803b158015610f2757600080fd5b505af1158015610f3b573d6000803e3d6000fd5b50505050610f4a3033856134d0565b60408051898152602081018590529081018290526000606082015233907f6bcf2464228029946fa6af5456662d377896b780e680909f9bbe7ffe6548cbef9060800160405180910390a29194509092505050610fa66001600055565b9250929050565b336001600160a01b037f00000000000000000000000000000000000000000000000000000000000000001614610ff55760405162461bcd60e51b815260040161028c90613f65565b6001546001600160a01b0316156110475760405162461bcd60e51b81526020600482015260166024820152751c1bdbdb081d1bdad95b88185b1c9958591e481cd95d60521b604482015260640161028c565b600180546001600160a01b0319166001600160a01b0392909216919091179055565b600080611074612e25565b90506110808184613591565b6001546040516370a0823160e01b81526001600160a01b038681166004830152909116906370a0823190602401602060405180830381865afa1580156110ca573d6000803e3d6000fd5b505050506040513d601f19601f820116820180604052508101906110ee9190613f91565b6110f8919061409c565b9392505050565b600061110a33612d6e565b6111265760405162461bcd60e51b815260040161028c90613fc7565b60405163596090c960e11b81523060048201819052602482015260448101839052600160648201526001600160a01b0384169063b2c12192906084016020604051808303816000875af1158015611181573d6000803e3d6000fd5b505050506040513d601f19601f820116820180604052508101906110f89190613f91565b6111ad612c7a565b600083116111f35760405162461bcd60e51b8152602060048201526013602482015272746f6b656e207368617265206973207a65726f60681b604482015260640161028c565b6001546040516370a0823160e01b81523360048201526000916001600160a01b0316906370a0823190602401602060405180830381865afa15801561123c573d6000803e3d6000fd5b505050506040513d601f19601f820116820180604052508101906112609190613f91565b9050808411156112aa5760405162461bcd60e51b8152602060048201526015602482015274746f6b656e2062616c616e636520746f6f206c6f7760581b604482015260640161028c565b60006112b4612e25565b80519091508514806112db57508051670de0b6b3a7640000906112d890879061409c565b10155b6112f75760405162461bcd60e51b815260040161028c906140af565b8051604082015160009161130d9190889061305f565b90506000811161132f5760405162461bcd60e51b815260040161028c90614103565b80826040015114806113585750670de0b6b3a7640000818360400151611355919061409c565b10155b6113745760405162461bcd60e51b815260040161028c90614145565b604051631e8bee0160e01b81526001600160a01b037f0000000000000000000000000000000000000000000000000000000000000000811660048301526000917f000000000000000000000000000000000000000000000000000000000000000090911690631e8bee0190602401602060405180830381865afa1580156113ff573d6000803e3d6000fd5b505050506040513d601f19601f820116820180604052508101906114239190613f91565b90506000611431848461367c565b9050808210156114fd5750806114478482613731565b9250600083116114695760405162461bcd60e51b815260040161028c90614103565b82846040015114806114925750670de0b6b3a764000083856040015161148f919061409c565b10155b6114ae5760405162461bcd60e51b815260040161028c90614145565b604084015184516114c091859061305f565b60408051828152602081018490529199507f7543f09ac709677c25f5aa8284e92f885eae7c7496789dd47cf87e28e5a1cf1c910160405180910390a15b600061150985336137db565b905060008061151b87338d60016131ce565b915091508383101561167a576000611533848661409c565b604051636eb1769f60e11b815233600482015230602482015290915081906001600160a01b037f0000000000000000000000000000000000000000000000000000000000000000169063dd62ed3e90604401602060405180830381865afa1580156115a2573d6000803e3d6000fd5b505050506040513d601f19601f820116820180604052508101906115c69190613f91565b10156115e45760405162461bcd60e51b815260040161028c90614197565b6040516323b872dd60e01b81526001600160a01b037f000000000000000000000000000000000000000000000000000000000000000016906323b872dd90611634903390309086906004016141ce565b6020604051808303816000875af1158015611653573d6000803e3d6000fd5b505050506040513d601f19601f820116820180604052508101906116779190613faa565b50505b831561185d577f00000000000000000000000000000000000000000000000000000000000000006001600160a01b0316634942f65f6040518163ffffffff1660e01b8152600401602060405180830381865afa1580156116de573d6000803e3d6000fd5b505050506040513d601f19601f820116820180604052508101906117029190613f91565b84108061170c5750895b156117b857604051630ed000b360e41b81526001600160a01b037f0000000000000000000000000000000000000000000000000000000000000000169063ed000b3090611781907f000000000000000000000000000000000000000000000000000000000000000090339089906004016141ce565b600060405180830381600087803b15801561179b57600080fd5b505af11580156117af573d6000803e3d6000fd5b5050505061185d565b60405163f060b3f160e01b81526001600160a01b037f0000000000000000000000000000000000000000000000000000000000000000169063f060b3f19061182a907f000000000000000000000000000000000000000000000000000000000000000090339089908f906004016141f2565b600060405180830381600087803b15801561184457600080fd5b505af1158015611858573d6000803e3d6000fd5b505050505b60006118698585613825565b905080156118c2578060056000828254611883919061409c565b909155506118939050338261383b565b600061189f8284613825565b905080156118c0576118b1818461409c565b92506118bd8185614263565b93505b505b81156118d3576118d3303384613348565b82156118e3576118e33384613486565b600154604051632770a7eb60e21b8152336004820152602481018e90526001600160a01b0390911690639dc29fac90604401600060405180830381600087803b15801561192f57600080fd5b505af1158015611943573d6000803e3d6000fd5b505050506119523033896134d0565b604080518d8152602081018990529081018290526060810186905233907f6bcf2464228029946fa6af5456662d377896b780e680909f9bbe7ffe6548cbef9060800160405180910390a25050505050505050506119af6001600055565b505050565b6119bc612c7a565b60008111611a0c5760405162461bcd60e51b815260206004820181905260248201527f747279696e6720746f207769746864726177207a65726f20662d617373657473604482015260640161028c565b6000611a16612e25565b90506000611a2482336137db565b905080831115611a765760405162461bcd60e51b815260206004820152601e60248201527f6672656520662d61737365742062616c616e636520746f6f20736d616c6c0000604482015260640161028c565b611a80338461383b565b611a8b303385613348565b604080516000808252602082018190528183018490526060820152905133917f6bcf2464228029946fa6af5456662d377896b780e680909f9bbe7ffe6548cbef919081900360800190a25050610b816001600055565b600080611aec612e25565b90506110f88184613591565b336001600160a01b037f00000000000000000000000000000000000000000000000000000000000000001614611b405760405162461bcd60e51b815260040161028c90613f65565b600254600160c01b900463ffffffff168111611b8e5760405162461bcd60e51b815260206004820152600d60248201526c76616c756520746f6f206c6f7760981b604482015260640161028c565b611b978161387c565b600260146101000a81548163ffffffff021916908363ffffffff16021790555050565b611bc333612d6e565b611bdf5760405162461bcd60e51b815260040161028c90613fc7565b60405163e72dcdbb60e01b81526001600160a01b0383169063e72dcdbb903490611c10908590600090600401614276565b6000604051808303818588803b158015611c2957600080fd5b505af1158015611c3d573d6000803e3d6000fd5b50505050505050565b611c4f33612d6e565b611c6b5760405162461bcd60e51b815260040161028c90613fc7565b806001600160a01b031663f2a1f7676040518163ffffffff1660e01b8152600401600060405180830381600087803b158015611ca657600080fd5b505af1158015611cba573d6000803e3d6000fd5b5050505050565b336001600160a01b037f00000000000000000000000000000000000000000000000000000000000000001614611d095760405162461bcd60e51b815260040161028c90613f65565b600254600160a01b900463ffffffff168110611d585760405162461bcd60e51b815260206004820152600e60248201526d0ecc2d8eaca40e8dede40d0d2ced60931b604482015260640161028c565b611d618161387c565b600260186101000a81548163ffffffff021916908363ffffffff16021790555050565b336001600160a01b037f00000000000000000000000000000000000000000000000000000000000000001614611dcc5760405162461bcd60e51b815260040161028c90613f65565b6127108110611e0e5760405162461bcd60e51b815260206004820152600e60248201526d0ecc2d8eaca40e8dede40d0d2ced60931b604482015260640161028c565b611e17816138e5565b6002601c6101000a81548161ffff021916908361ffff16021790555050565b336001600160a01b037f00000000000000000000000000000000000000000000000000000000000000001614611e7e5760405162461bcd60e51b815260040161028c90613f65565b8060056000828254611e909190614263565b909155505050565b611ea0612c7a565b6000611eaa612e25565b90506103e88160400151611ebe919061429a565b81511115611f0e5760405162461bcd60e51b815260206004820152601a60248201527f706f6f6c206e61742062616c616e636520746f6f20736d616c6c000000000000604482015260640161028c565b670de0b6b3a7640000341015611f665760405162461bcd60e51b815260206004820152601d60248201527f616d6f756e74206f66206e61742073656e7420697320746f6f206c6f77000000604482015260640161028c565b80516000036120c357806040015134101561200f5760405162461bcd60e51b815260206004820152606060248201527f696620706f6f6c20686173206e6f20746f6b656e732c2062757420686f6c647360448201527f20636f6c6c61746572616c2c20796f75206e65656420746f2073656e6420617460648201527f206c65617374207468617420616d6f756e74206f6620636f6c6c61746572616c608482015260a40161028c565b606081015160a082015160c083015161202991349161305f565b10156120c35760405162461bcd60e51b815260206004820152605f60248201527f496620706f6f6c20686173206e6f20746f6b656e732c2062757420686f6c647360448201527f20662d61737365742c20796f75206e65656420746f2073656e64206174206c6560648201527f61737420662d617373657420776f727468206f6620636f6c6c61746572616c00608482015260a40161028c565b60006120cf8234613948565b90506000808360000151116120e55760006120f7565b825160808401516120f791849061305f565b905060008461210f5761210a8683613825565b612111565b815b905080156121d257604051636eb1769f60e11b815233600482015230602482015281907f00000000000000000000000000000000000000000000000000000000000000006001600160a01b03169063dd62ed3e90604401602060405180830381865afa158015612185573d6000803e3d6000fd5b505050506040513d601f19601f820116820180604052508101906121a99190613f91565b10156121c75760405162461bcd60e51b815260040161028c90614197565b6121d2333083613348565b6121e5336121e0838561409c565b61383b565b6121ed613a7a565b6002546040516351c452bf60e01b81526001600160a01b037f00000000000000000000000000000000000000000000000000000000000000008116600483015291821660248201527f0000000000000000000000000000000000000000000000000000000000000000909116906351c452bf90604401600060405180830381600087803b15801561227d57600080fd5b505af1158015612291573d6000803e3d6000fd5b50506001546040516340c10f1960e01b8152336004820152602481018790526001600160a01b0390911692506340c10f199150604401600060405180830381600087803b1580156122e157600080fd5b505af11580156122f5573d6000803e3d6000fd5b505060408051348152602081018790529081018490523392507f3af2c1ec57343b1e7e40c3f6c85f5ad943344cd8548bdf819f1da51aaebb3db6915060600160405180910390a25050505061234a6001600055565b5050565b336001600160a01b037f000000000000000000000000000000000000000000000000000000000000000016146123965760405162461bcd60e51b815260040161028c90613f65565b61239e612c7a565b60006123a8612e25565b90506123b53085856134d0565b6001546040516370a0823160e01b81526001600160a01b037f00000000000000000000000000000000000000000000000000000000000000008116600483015260009216906370a0823190602401602060405180830381865afa158015612420573d6000803e3d6000fd5b505050506040513d601f19601f820116820180604052508101906124449190613f91565b9050600080836040015111612459578161246b565b6040830151835161246b91869061305f565b905060006124798284613825565b905080156125655760006124b0857f00000000000000000000000000000000000000000000000000000000000000008460026131ce565b5090506124dd7f000000000000000000000000000000000000000000000000000000000000000082613486565b600154604051632770a7eb60e21b81526001600160a01b037f0000000000000000000000000000000000000000000000000000000000000000811660048301526024820185905290911690639dc29fac90604401600060405180830381600087803b15801561254b57600080fd5b505af115801561255f573d6000803e3d6000fd5b50505050505b505050506119af6001600055565b61257b612c7a565b7f00000000000000000000000000000000000000000000000000000000000000006001600160a01b031663194307bf6040518163ffffffff1660e01b8152600401602060405180830381865afa1580156125d9573d6000803e3d6000fd5b505050506040513d601f19601f820116820180604052508101906125fd9190613faa565b6126425760405162461bcd60e51b8152602060048201526016602482015275198b585cdcd95d081b9bdd081d195c9b5a5b985d195960521b604482015260640161028c565b6001546040516370a0823160e01b81523360048201526000916001600160a01b0316906370a0823190602401602060405180830381865afa15801561268b573d6000803e3d6000fd5b505050506040513d601f19601f820116820180604052508101906126af9190613f91565b9050600081116126f75760405162461bcd60e51b81526020600482015260136024820152726e6f7468696e6720746f20776974686472617760681b604482015260640161028c565b600061277e600654600160009054906101000a90046001600160a01b03166001600160a01b03166318160ddd6040518163ffffffff1660e01b8152600401602060405180830381865afa158015612752573d6000803e3d6000fd5b505050506040513d601f19601f820116820180604052508101906127769190613f91565b84919061305f565b600154604051632770a7eb60e21b8152336004820152602481018590529192506001600160a01b031690639dc29fac90604401600060405180830381600087803b1580156127cb57600080fd5b505af11580156127df573d6000803e3d6000fd5b505050506127ee3033836134d0565b50506127fa6001600055565b565b600080612807612e25565b90506110f881846137db565b61281b612c7a565b3360009081526003602052604090205481111561287a5760405162461bcd60e51b815260206004820152601e60248201527f6465627420662d61737365742062616c616e636520746f6f20736d616c6c0000604482015260640161028c565b604051636eb1769f60e11b815233600482015230602482015281907f00000000000000000000000000000000000000000000000000000000000000006001600160a01b03169063dd62ed3e90604401602060405180830381865afa1580156128e6573d6000803e3d6000fd5b505050506040513d601f19601f8201168201806040525081019061290a9190613f91565b10156129285760405162461bcd60e51b815260040161028c90614197565b6129323382613486565b61293d333083613348565b604080516000808252602082015290810182905233907f3af2c1ec57343b1e7e40c3f6c85f5ad943344cd8548bdf819f1da51aaebb3db69060600160405180910390a2610b816001600055565b336001600160a01b037f000000000000000000000000000000000000000000000000000000000000000016146129d25760405162461bcd60e51b815260040161028c90613f65565b6002546001600160a01b03828116911614610b81576002546040516370a0823160e01b81523060048201526000916001600160a01b0316906370a0823190602401602060405180830381865afa158015612a30573d6000803e3d6000fd5b505050506040513d601f19601f82011682018060405250810190612a549190613f91565b60028054600160f01b60ff60f01b19821617909155604051632e1a7d4d60e01b8152600481018390529192506001600160a01b031690632e1a7d4d90602401600060405180830381600087803b158015612aad57600080fd5b505af1158015612ac1573d6000803e3d6000fd5b50506002805460ff60f01b19169055505060408051630d0e30db60e41b815290516001600160a01b0384169163d0e30db091849160048082019260009290919082900301818588803b158015612b1657600080fd5b505af1158015612b2a573d6000803e3d6000fd5b5050600280546001600160a01b0319166001600160a01b038781169182179092556040516351c452bf60e01b81527f00000000000000000000000000000000000000000000000000000000000000008316600482015260248101919091527f000000000000000000000000000000000000000000000000000000000000000090911693506351c452bf92506044019050610c2d565b612bc833612d6e565b612be45760405162461bcd60e51b815260040161028c90613fc7565b60405163596090c960e11b81523060048201819052602482015260448101829052600160648201526001600160a01b0383169063b2c12192906084016020604051808303816000875af1158015612c3f573d6000803e3d6000fd5b505050506040513d601f19601f820116820180604052508101906119af9190613f91565b600080612c6e612e25565b90506110f88184613ade565b600260005403612ccc5760405162461bcd60e51b815260206004820152601f60248201527f5265656e7472616e637947756172643a207265656e7472616e742063616c6c00604482015260640161028c565b6002600055565b801561234a576000826001600160a01b03168260405160006040518083038185875af1925050503d8060008114612d26576040519150601f19603f3d011682016040523d82523d6000602084013e612d2b565b606091505b50509050806119af5760405162461bcd60e51b815260206004820152600f60248201526e1d1c985b9cd9995c8819985a5b1959608a1b604482015260640161028c565b60405163d6b93a9f60e01b81526001600160a01b037f00000000000000000000000000000000000000000000000000000000000000008116600483015282811660248301526000917f00000000000000000000000000000000000000000000000000000000000000009091169063d6b93a9f90604401602060405180830381865afa158015612e01573d6000803e3d6000fd5b505050506040513d601f19601f82011682018060405250810190610bd09190613faa565b612e656040518060e00160405280600081526020016000815260200160008152602001600081526020016000815260200160008152602001600081525090565b600060055490506000807f00000000000000000000000000000000000000000000000000000000000000006001600160a01b03166302312aec6040518163ffffffff1660e01b81526004016040805180830381865afa158015612ecc573d6000803e3d6000fd5b505050506040513d601f19601f82011682018060405250810190612ef091906142b1565b915091506040518060e00160405280600160009054906101000a90046001600160a01b03166001600160a01b03166318160ddd6040518163ffffffff1660e01b8152600401602060405180830381865afa158015612f52573d6000803e3d6000fd5b505050506040513d601f19601f82011682018060405250810190612f769190613f91565b815260405163769bb15560e11b81526001600160a01b037f0000000000000000000000000000000000000000000000000000000000000000811660048301526020909201917f0000000000000000000000000000000000000000000000000000000000000000169063ed3762aa90602401602060405180830381865afa158015613004573d6000803e3d6000fd5b505050506040513d601f19601f820116820180604052508101906130289190613f91565b81526020016006548152602001848152602001600454856130499190614263565b8152602081019390935260409092015292915050565b60008082116130a35760405162461bcd60e51b815260206004820152601060248201526f4469766973696f6e206279207a65726f60801b604482015260640161028c565b836000036130b3575060006110f8565b838302838582816130c6576130c66142d5565b04036130e4578281816130db576130db6142d5565b049150506110f8565b5060006130f183866142eb565b905060006130ff84876142ff565b9050600061310d85876142eb565b9050600061311b86886142ff565b905085613128828561429a565b61313291906142eb565b61313c838561429a565b613146838761429a565b88613151868961429a565b61315b919061429a565b6131659190614263565b61316f9190614263565b6131799190614263565b98975050505050505050565b60006131a5828560a00151866020015161319f919061429a565b90613b7e565b8460c001518486604001516131ba919061409c565b6131c4919061429a565b1015949350505050565b60008060006131dd8787613ade565b6001600160a01b038781166000818152600360205260408082205460015491516370a0823160e01b81526004810194909452949550909216906370a0823190602401602060405180830381865afa15801561323c573d6000803e3d6000fd5b505050506040513d601f19601f820116820180604052508101906132609190613f91565b905080600003613279576000809450945050505061333f565b600061328684898461305f565b9050600087600281111561329c5761329c614313565b036132db5760008484106132b15760006132bb565b6132bb848661409c565b90506132c78282613825565b95506132d3868361409c565b96505061333a565b60018760028111156132ef576132ef614313565b03613311576132fe8184613825565b955061330a868261409c565b945061333a565b6000841161332057600061332b565b61332b83828661305f565b9550613337868261409c565b94505b505050505b94509492505050565b80156119af57306001600160a01b0384160361340f578060056000828254613370919061409c565b909155505060405163a9059cbb60e01b81526001600160a01b038381166004830152602482018390527f0000000000000000000000000000000000000000000000000000000000000000169063a9059cbb906044015b6020604051808303816000875af11580156133e5573d6000803e3d6000fd5b505050506040513d601f19601f820116820180604052508101906134099190613faa565b50505050565b306001600160a01b038316036119af5780600560008282546134319190614263565b90915550506040516323b872dd60e01b81526001600160a01b037f000000000000000000000000000000000000000000000000000000000000000016906323b872dd906133c6908690869086906004016141ce565b6001600160a01b038216600090815260036020526040812080548392906134ae90849061409c565b9250508190555080600460008282546134c7919061409c565b90915550505050565b80156119af57306001600160a01b038416036135365780600660008282546134f8919061409c565b909155505060025460405163a9059cbb60e01b81526001600160a01b038481166004830152602482018490529091169063a9059cbb906044016133c6565b306001600160a01b038316036119af5780600660008282546135589190614263565b90915550506002546040516323b872dd60e01b81526001600160a01b03909116906323b872dd906133c6908690869086906004016141ce565b6001546040516370a0823160e01b81526001600160a01b03838116600483015260009283929116906370a0823190602401602060405180830381865afa1580156135df573d6000803e3d6000fd5b505050506040513d601f19601f820116820180604052508101906136039190613f91565b905080600003613617576000915050610bd0565b6001600160a01b0383166000908152600360205260408120549081900361364057509050610bd0565b845160808601516000916136569190859061305f565b90506000613664838361409c565b6080880151885191925060009161317991849061305f565b60025460009061369c9084908390600160a01b900463ffffffff16613185565b1561371c5760025460a08401516000916136c7919063ffffffff600160a01b909104811690613b7e16565b8385604001516136d7919061409c565b8560a001516136e6919061429a565b6136f091906142eb565b905080846020015111613704576000613714565b808460200151613714919061409c565b915050610bd0565b604083015160208401516110f891849061305f565b6002546000906137519084908390600160a01b900463ffffffff16613185565b156137c65760008360c00151613798600260149054906101000a900463ffffffff1663ffffffff16858760200151613789919061409c565b8760a0015161319f919061429a565b6137a291906142eb565b9050808460400151116137b6576000613714565b808460400151613714919061409c565b602083015160408401516110f891849061305f565b6000806137e88484613ade565b6001600160a01b03841660009081526003602052604090205490915080821161381257600061381c565b61381c818361409c565b95945050505050565b600081831061383457816110f8565b5090919050565b6001600160a01b03821660009081526003602052604081208054839290613863908490614263565b9250508190555080600460008282546134c79190614263565b600063ffffffff8211156138e15760405162461bcd60e51b815260206004820152602660248201527f53616665436173743a2076616c756520646f65736e27742066697420696e203360448201526532206269747360d01b606482015260840161028c565b5090565b600061ffff8211156138e15760405162461bcd60e51b815260206004820152602660248201527f53616665436173743a2076616c756520646f65736e27742066697420696e203160448201526536206269747360d01b606482015260840161028c565b60008083604001516000148061395d57508351155b600254602086015160a087015192935060009261398b92600160c01b900463ffffffff169161319f9161429a565b905060008560c0015186604001516139a3919061429a565b82116139b05760006139ce565b604086015160c08701516139c490846142eb565b6139ce919061409c565b905060006139dc8683613825565b905060008682106139ee5760006139f8565b6139f8828861409c565b600254909150600090613a1b90849061271090600160e01b900461ffff1661305f565b9050600086613a3b5760408a01518a51613a3691859061305f565b613a3d565b825b9050600087613a5d5760408b01518b51613a5891859061305f565b613a5f565b825b9050613a6b8282614263565b9b9a5050505050505050505050565b34156127fa573460066000828254613a929190614263565b909155505060025460408051630d0e30db60e41b815290516001600160a01b039092169163d0e30db0913491600480830192600092919082900301818588803b158015611ca657600080fd5b6001546040516370a0823160e01b81526001600160a01b03838116600483015260009283929116906370a0823190602401602060405180830381865afa158015613b2c573d6000803e3d6000fd5b505050506040513d601f19601f82011682018060405250810190613b509190613f91565b905080600003613b64576000915050610bd0565b83516080850151613b7691839061305f565b949350505050565b60006110f8838361271061305f565b6001600160a01b0381168114610b8157600080fd5b600060208284031215613bb457600080fd5b81356110f881613b8d565b600060208284031215613bd157600080fd5b81356001600160e01b0319811681146110f857600080fd5b634e487b7160e01b600052604160045260246000fd5b604051601f8201601f1916810167ffffffffffffffff81118282101715613c2857613c28613be9565b604052919050565b600067ffffffffffffffff821115613c4a57613c4a613be9565b5060051b60200190565b600082601f830112613c6557600080fd5b81356020613c7a613c7583613c30565b613bff565b82815260059290921b84018101918181019086841115613c9957600080fd5b8286015b84811015613cbd578035613cb081613b8d565b8352918301918301613c9d565b509695505050505050565b60008060408385031215613cdb57600080fd5b823567ffffffffffffffff80821115613cf357600080fd5b613cff86838701613c54565b9350602091508185013581811115613d1657600080fd5b85019050601f81018613613d2957600080fd5b8035613d37613c7582613c30565b81815260059190911b82018301908381019088831115613d5657600080fd5b928401925b82841015613d7457833582529284019290840190613d5b565b80955050505050509250929050565b60008060408385031215613d9657600080fd5b82359150602083013560038110613dac57600080fd5b809150509250929050565b60008060408385031215613dca57600080fd5b8235613dd581613b8d565b946020939093013593505050565b8015158114610b8157600080fd5b600080600060608486031215613e0657600080fd5b83359250602080850135613e1981613de3565b9250604085013567ffffffffffffffff80821115613e3657600080fd5b818701915087601f830112613e4a57600080fd5b813581811115613e5c57613e5c613be9565b613e6e601f8201601f19168501613bff565b91508082528884828501011115613e8457600080fd5b80848401858401376000848284010152508093505050509250925092565b600060208284031215613eb457600080fd5b5035919050565b60008060408385031215613ece57600080fd5b8235613ed981613b8d565b9150602083013567ffffffffffffffff811115613ef557600080fd5b613f0185828601613c54565b9150509250929050565b60008060408385031215613f1e57600080fd5b823591506020830135613dac81613de3565b600080600060608486031215613f4557600080fd5b8335613f5081613b8d565b95602085013595506040909401359392505050565b60208082526012908201527137b7363c9030b9b9b2ba1036b0b730b3b2b960711b604082015260600190565b600060208284031215613fa357600080fd5b5051919050565b600060208284031215613fbc57600080fd5b81516110f881613de3565b6020808252600a90820152691bdb9b1e481859d95b9d60b21b604082015260600190565b600081518084526020808501945080840160005b838110156140245781516001600160a01b031687529582019590820190600101613fff565b509495945050505050565b6040815260006140426040830185613feb565b82810360208481019190915284518083528582019282019060005b818110156140795784518352938301939183019160010161405d565b5090979650505050505050565b634e487b7160e01b600052601160045260246000fd5b81810381811115610bd057610bd0614086565b60208082526034908201527f746f6b656e20737570706c79206c656674206166746572206578697420697320604082015273746f6f206c6f7720616e64206e6f6e2d7a65726f60601b606082015260800190565b60208082526022908201527f616d6f756e74206f662073656e7420746f6b656e7320697320746f6f20736d616040820152611b1b60f21b606082015260800190565b60208082526032908201527f636f6c6c61746572616c206c656674206166746572206578697420697320746f6040820152716f206c6f7720616e64206e6f6e2d7a65726f60701b606082015260800190565b6020808252601b908201527f662d617373657420616c6c6f77616e636520746f6f20736d616c6c0000000000604082015260600190565b6001600160a01b039384168152919092166020820152604081019190915260600190565b600060018060a01b038087168352602081871681850152856040850152608060608501528451915081608085015260005b8281101561423f5785810182015185820160a001528101614223565b5050600060a0828501015260a0601f19601f83011684010191505095945050505050565b80820180821115610bd057610bd0614086565b6040815260006142896040830185613feb565b905082151560208301529392505050565b8082028115828204841417610bd057610bd0614086565b600080604083850312156142c457600080fd5b505080516020909101519092909150565b634e487b7160e01b600052601260045260246000fd5b6000826142fa576142fa6142d5565b500490565b60008261430e5761430e6142d5565b500690565b634e487b7160e01b600052602160045260246000fdfea264697066735822122049269c04033493ac43e5ff91ddfc42d319f7de3a4ff25ae13c4e95890a453bb064736f6c63430008140033a2646970667358221220de6c9ce7bf982833bbdcc02ed6b2b60349f26ccc663c7abf310afa8ecd1079a764736f6c63430008140033",
  "linkReferences": {},
  "deployedLinkReferences": {}
}