{
  "_format": "hh-sol-artifact-1",
  "contractName": "Whitelist",
  "sourceName": "contracts/assetManager/implementation/Whitelist.sol",
  "abi": [
    {
      "inputs": [
        {
          "internalType": "contract IGovernanceSettings",
          "name": "_governanceSettings",
          "type": "address"
        },
        {
          "internalType": "address",
          "name": "_initialGovernance",
          "type": "address"
        },
        {
          "internalType": "bool",
          "name": "_supportsRevoke",
          "type": "bool"
        }
      ],
      "stateMutability": "nonpayable",
      "type": "constructor"
    },
    {
      "anonymous": false,
      "inputs": [
        {
          "indexed": false,
          "internalType": "bytes",
          "name": "encodedCall",
          "type": "bytes"
        },
        {
          "indexed": false,
          "internalType": "bytes32",
          "name": "encodedCallHash",
          "type": "bytes32"
        },
        {
          "indexed": false,
          "internalType": "uint256",
          "name": "allowedAfterTimestamp",
          "type": "uint256"
        }
      ],
      "name": "GovernanceCallTimelocked",
      "type": "event"
    },
    {
      "anonymous": false,
      "inputs": [
        {
          "indexed": false,
          "internalType": "address",
          "name": "initialGovernance",
          "type": "address"
        }
      ],
      "name": "GovernanceInitialised",
      "type": "event"
    },
    {
      "anonymous": false,
      "inputs": [
        {
          "indexed": false,
          "internalType": "address",
          "name": "governanceSettings",
          "type": "address"
        }
      ],
      "name": "GovernedProductionModeEntered",
      "type": "event"
    },
    {
      "anonymous": false,
      "inputs": [
        {
          "indexed": false,
          "internalType": "address",
          "name": "manager",
          "type": "address"
        }
      ],
      "name": "ManagerChanged",
      "type": "event"
    },
    {
      "anonymous": false,
      "inputs": [
        {
          "indexed": false,
          "internalType": "bytes32",
          "name": "encodedCallHash",
          "type": "bytes32"
        }
      ],
      "name": "TimelockedGovernanceCallCanceled",
      "type": "event"
    },
    {
      "anonymous": false,
      "inputs": [
        {
          "indexed": false,
          "internalType": "bytes32",
          "name": "encodedCallHash",
          "type": "bytes32"
        }
      ],
      "name": "TimelockedGovernanceCallExecuted",
      "type": "event"
    },
    {
      "anonymous": false,
      "inputs": [
        {
          "indexed": false,
          "internalType": "address",
          "name": "value",
          "type": "address"
        }
      ],
      "name": "Whitelisted",
      "type": "event"
    },
    {
      "anonymous": false,
      "inputs": [
        {
          "indexed": false,
          "internalType": "address",
          "name": "value",
          "type": "address"
        }
      ],
      "name": "WhitelistingRevoked",
      "type": "event"
    },
    {
      "inputs": [
        {
          "internalType": "address",
          "name": "_address",
          "type": "address"
        }
      ],
      "name": "addAddressToWhitelist",
      "outputs": [],
      "stateMutability": "nonpayable",
      "type": "function"
    },
    {
      "inputs": [
        {
          "internalType": "address[]",
          "name": "_addresses",
          "type": "address[]"
        }
      ],
      "name": "addAddressesToWhitelist",
      "outputs": [],
      "stateMutability": "nonpayable",
      "type": "function"
    },
    {
      "inputs": [],
      "name": "allowAll",
      "outputs": [
        {
          "internalType": "bool",
          "name": "",
          "type": "bool"
        }
      ],
      "stateMutability": "view",
      "type": "function"
    },
    {
      "inputs": [
        {
          "internalType": "bytes",
          "name": "_encodedCall",
          "type": "bytes"
        }
      ],
      "name": "cancelGovernanceCall",
      "outputs": [],
      "stateMutability": "nonpayable",
      "type": "function"
    },
    {
      "inputs": [
        {
          "internalType": "bytes",
          "name": "_encodedCall",
          "type": "bytes"
        }
      ],
      "name": "executeGovernanceCall",
      "outputs": [],
      "stateMutability": "nonpayable",
      "type": "function"
    },
    {
      "inputs": [],
      "name": "governance",
      "outputs": [
        {
          "internalType": "address",
          "name": "",
          "type": "address"
        }
      ],
      "stateMutability": "view",
      "type": "function"
    },
    {
      "inputs": [],
      "name": "governanceSettings",
      "outputs": [
        {
          "internalType": "contract IGovernanceSettings",
          "name": "",
          "type": "address"
        }
      ],
      "stateMutability": "view",
      "type": "function"
    },
    {
      "inputs": [
        {
          "internalType": "contract IGovernanceSettings",
          "name": "_governanceSettings",
          "type": "address"
        },
        {
          "internalType": "address",
          "name": "_initialGovernance",
          "type": "address"
        }
      ],
      "name": "initialise",
      "outputs": [],
      "stateMutability": "nonpayable",
      "type": "function"
    },
    {
      "inputs": [
        {
          "internalType": "address",
          "name": "_address",
          "type": "address"
        }
      ],
      "name": "isExecutor",
      "outputs": [
        {
          "internalType": "bool",
          "name": "",
          "type": "bool"
        }
      ],
      "stateMutability": "view",
      "type": "function"
    },
    {
      "inputs": [
        {
          "internalType": "address",
          "name": "_address",
          "type": "address"
        }
      ],
      "name": "isWhitelisted",
      "outputs": [
        {
          "internalType": "bool",
          "name": "",
          "type": "bool"
        }
      ],
      "stateMutability": "view",
      "type": "function"
    },
    {
      "inputs": [],
      "name": "manager",
      "outputs": [
        {
          "internalType": "address",
          "name": "",
          "type": "address"
        }
      ],
      "stateMutability": "view",
      "type": "function"
    },
    {
      "inputs": [],
      "name": "productionMode",
      "outputs": [
        {
          "internalType": "bool",
          "name": "",
          "type": "bool"
        }
      ],
      "stateMutability": "view",
      "type": "function"
    },
    {
      "inputs": [
        {
          "internalType": "address",
          "name": "_address",
          "type": "address"
        }
      ],
      "name": "revokeAddress",
      "outputs": [],
      "stateMutability": "nonpayable",
      "type": "function"
    },
    {
      "inputs": [
        {
          "internalType": "bool",
          "name": "_allowAll",
          "type": "bool"
        }
      ],
      "name": "setAllowAll",
      "outputs": [],
      "stateMutability": "nonpayable",
      "type": "function"
    },
    {
      "inputs": [
        {
          "internalType": "address",
          "name": "_manager",
          "type": "address"
        }
      ],
      "name": "setManager",
      "outputs": [],
      "stateMutability": "nonpayable",
      "type": "function"
    },
    {
      "inputs": [
        {
          "internalType": "bytes4",
          "name": "_interfaceId",
          "type": "bytes4"
        }
      ],
      "name": "supportsInterface",
      "outputs": [
        {
          "internalType": "bool",
          "name": "",
          "type": "bool"
        }
      ],
      "stateMutability": "pure",
      "type": "function"
    },
    {
      "inputs": [],
      "name": "supportsRevoke",
      "outputs": [
        {
          "internalType": "bool",
          "name": "",
          "type": "bool"
        }
      ],
      "stateMutability": "view",
      "type": "function"
    },
    {
      "inputs": [],
      "name": "switchToProductionMode",
      "outputs": [],
      "stateMutability": "nonpayable",
      "type": "function"
    }
  ],
  "bytecode": "0x60a06040523480156200001157600080fd5b50604051620015233803806200152383398101604081905262000034916200020d565b82826200004282826200005b565b5050151560805250506000805460ff1916905562000265565b7f2aa47ee5db910f3b2a06970c443249cc77dbd9f96100cfebc1775ab7fb1d18248054600160a01b900460ff1615620000db5760405162461bcd60e51b815260206004820152601460248201527f696e697469616c6973656420213d2066616c736500000000000000000000000060448201526064015b60405180910390fd5b6001600160a01b038316620001335760405162461bcd60e51b815260206004820152601860248201527f676f7665726e616e63652073657474696e6773207a65726f00000000000000006044820152606401620000d2565b6001600160a01b0382166200017e5760405162461bcd60e51b815260206004820152601060248201526f5f676f7665726e616e6365207a65726f60801b6044820152606401620000d2565b80546001600160a01b038481166001600160a81b031990921691909117600160a01b1782556001820180549184166001600160a01b0319909216821790556040519081527f9789733827840833afc031fb2ef9ab6894271f77bad2085687cf4ae5c7bee4db9060200160405180910390a1505050565b6001600160a01b03811681146200020a57600080fd5b50565b6000806000606084860312156200022357600080fd5b83516200023081620001f4565b60208501519093506200024381620001f4565b604085015190925080151581146200025a57600080fd5b809150509250925092565b60805161129b62000288600039600081816101700152610616015261129b6000f3fe608060405234801561001057600080fd5b50600436106101165760003560e01c80635aa6e675116100a2578063debfda3011610071578063debfda3014610254578063e17f212e14610267578063e2ec6ec314610286578063ef88bf1314610299578063f5a98383146102ac57600080fd5b80635aa6e6751461020857806362354e03146102105780637b9417c81461022e578063d0ebdbe71461024157600080fd5b8063317a7aec116100e9578063317a7aec146101925780633af32abf146101a5578063481c6a75146101b85780634d7d9c01146101e85780634ee643a5146101fb57600080fd5b806301ffc9a71461011b57806316fc2f6d1461014357806320c5f99d146101585780632583e7f71461016b575b600080fd5b61012e610129366004610f01565b6102b4565b60405190151581526020015b60405180910390f35b610156610151366004610f2b565b6102eb565b005b610156610166366004610f2b565b6103d3565b61012e7f000000000000000000000000000000000000000000000000000000000000000081565b6101566101a0366004610fc2565b6105c2565b61012e6101b3366004610fc2565b610684565b6000546101d09061010090046001600160a01b031681565b6040516001600160a01b03909116815260200161013a565b6101566101f6366004610fed565b6106b2565b60005461012e9060ff1681565b6101d06106e7565b600080516020611246833981519152546001600160a01b03166101d0565b61015661023c366004610fc2565b610790565b61015661024f366004610fc2565b6107eb565b61012e610262366004610fc2565b61085d565b60008051602061124683398151915254600160a81b900460ff1661012e565b610156610294366004611020565b6108f7565b6101566102a73660046110e5565b610983565b610156610af7565b60006001600160e01b031982166301ffc9a760e01b14806102e557506001600160e01b03198216633af32abf60e01b145b92915050565b6102f3610bc5565b60405160008051602061124683398151915290600090610316908590859061111e565b604051809103902090508160020160008281526020019081526020016000205460000361038a5760405162461bcd60e51b815260206004820152601a60248201527f74696d656c6f636b3a20696e76616c69642073656c6563746f7200000000000060448201526064015b60405180910390fd5b6040518181527f69b058d6225c01c1f2a25801ca5b05705fa2e9118e93d518390ba804398c87b19060200160405180910390a16000908152600290910160205260408120555050565b6000805160206112468339815191526103eb3361085d565b6104275760405162461bcd60e51b815260206004820152600d60248201526c37b7363c9032bc32b1baba37b960991b6044820152606401610381565b6000838360405161043992919061111e565b604080519182900390912060008181526002850160205291822054909250908190036104a75760405162461bcd60e51b815260206004820152601a60248201527f74696d656c6f636b3a20696e76616c69642073656c6563746f720000000000006044820152606401610381565b804210156104f75760405162461bcd60e51b815260206004820152601960248201527f74696d656c6f636b3a206e6f7420616c6c6f77656420796574000000000000006044820152606401610381565b6000828152600284016020526040808220829055845460ff60b01b1916600160b01b17855551309061052c908890889061111e565b6000604051808303816000865af19150503d8060008114610569576040519150601f19603f3d011682016040523d82523d6000602084013e61056e565b606091505b5050845460ff60b01b191685556040518481529091507fec1225e5a8a8acb91e03ce648c683c74f5d152a775b9715980999441d714c44f9060200160405180910390a16105ba81610c21565b505050505050565b60005461010090046001600160a01b03163314806105f857506105e36106e7565b6001600160a01b0316336001600160a01b0316145b6106145760405162461bcd60e51b81526004016103819061112e565b7f00000000000000000000000000000000000000000000000000000000000000006106785760405162461bcd60e51b81526020600482015260146024820152731c995d9bdad9481b9bdd081cdd5c1c1bdc9d195960621b6044820152606401610381565b61068181610c3e565b50565b6001600160a01b03811660009081526001602052604081205460ff16806102e5575060005460ff1692915050565b6106ba610cb2565b156106da576106c7610ce8565b6000805482151560ff1990911617905550565b6106816000366000610d2c565b600080516020611246833981519152805460009190600160a81b900460ff1661071d5760018101546001600160a01b031661078a565b805460408051631cc9492560e21b815290516001600160a01b03909216916373252494916004808201926020929091908290030181865afa158015610766573d6000803e3d6000fd5b505050506040513d601f19601f8201168201806040525081019061078a9190611165565b91505090565b60005461010090046001600160a01b03163314806107c657506107b16106e7565b6001600160a01b0316336001600160a01b0316145b6107e25760405162461bcd60e51b81526004016103819061112e565b61068181610e43565b6107f3610cb2565b156106da57610800610ce8565b60008054610100600160a81b0319166101006001600160a01b038416908102919091179091556040519081527f198db6e425fb8aafd1823c6ca50be2d51e5764571a5ae0f0f21c6812e45def0b906020015b60405180910390a150565b600080516020611246833981519152805460009190600160a01b900460ff1680156108f057508054604051630debfda360e41b81526001600160a01b0385811660048301529091169063debfda3090602401602060405180830381865afa1580156108cc573d6000803e3d6000fd5b505050506040513d601f19601f820116820180604052508101906108f09190611182565b9392505050565b60005461010090046001600160a01b031633148061092d57506109186106e7565b6001600160a01b0316336001600160a01b0316145b6109495760405162461bcd60e51b81526004016103819061112e565b60005b815181101561097f5761097782828151811061096a5761096a61119f565b6020026020010151610e43565b60010161094c565b5050565b6000805160206112468339815191528054600160a01b900460ff16156109e25760405162461bcd60e51b8152602060048201526014602482015273696e697469616c6973656420213d2066616c736560601b6044820152606401610381565b6001600160a01b038316610a385760405162461bcd60e51b815260206004820152601860248201527f676f7665726e616e63652073657474696e6773207a65726f00000000000000006044820152606401610381565b6001600160a01b038216610a815760405162461bcd60e51b815260206004820152601060248201526f5f676f7665726e616e6365207a65726f60801b6044820152606401610381565b80546001600160a01b038481166001600160a81b031990921691909117600160a01b1782556001820180549184166001600160a01b0319909216821790556040519081527f9789733827840833afc031fb2ef9ab6894271f77bad2085687cf4ae5c7bee4db9060200160405180910390a1505050565b610aff610bc5565b6000805160206112468339815191528054600160a81b900460ff1615610b675760405162461bcd60e51b815260206004820152601a60248201527f616c726561647920696e2070726f64756374696f6e206d6f64650000000000006044820152606401610381565b6001810180546001600160a01b03191690558054600160a81b60ff60a81b1982161782556040516001600160a01b0390911681527f83af113638b5422f9e977cebc0aaf0eaf2188eb9a8baae7f9d46c42b33a1560c90602001610852565b610bcd6106e7565b6001600160a01b0316336001600160a01b031614610c1f5760405162461bcd60e51b815260206004820152600f60248201526e6f6e6c7920676f7665726e616e636560881b6044820152606401610381565b565b3d604051818101604052816000823e8215610c3a578181f35b8181fd5b6001600160a01b03811660009081526001602052604090205460ff16610c615750565b6001600160a01b038116600081815260016020908152604091829020805460ff1916905590519182527fe01091cddc91f5497c62b6d5b4ae6514036739c2528f0463485236065e1eba4a9101610852565b600080516020611246833981519152805460009190600160b01b900460ff168061078a575054600160a81b900460ff1615919050565b6000805160206112468339815191528054600160b01b900460ff1615610d2457333014610d1757610d176111b5565b805460ff60b01b19169055565b610681610bc5565b600080516020611246833981519152610d43610bc5565b60008484604051610d5592919061111e565b604080519182900382208454636221a54b60e01b845291519093506000926001600160a01b0390921691636221a54b9160048083019260209291908290030181865afa158015610da9573d6000803e3d6000fd5b505050506040513d601f19601f82011682018060405250810190610dcd91906111cb565b905083811015610dda5750825b6000610de682426111e4565b600084815260028601602052604090819020829055519091507f8c02104dfc280f713854f25297de671710c544c58de69dbde8fb66974ce1ab9e90610e32908990899087908690611205565b60405180910390a150505050505050565b6001600160a01b038116610e885760405162461bcd60e51b815260206004820152600c60248201526b61646472657373207a65726f60a01b6044820152606401610381565b6001600160a01b03811660009081526001602052604090205460ff1615610eac5750565b6001600160a01b038116600081815260016020818152604092839020805460ff191690921790915590519182527faab7954e9d246b167ef88aeddad35209ca2489d95a8aeb59e288d9b19fae5a549101610852565b600060208284031215610f1357600080fd5b81356001600160e01b0319811681146108f057600080fd5b60008060208385031215610f3e57600080fd5b823567ffffffffffffffff80821115610f5657600080fd5b818501915085601f830112610f6a57600080fd5b813581811115610f7957600080fd5b866020828501011115610f8b57600080fd5b60209290920196919550909350505050565b6001600160a01b038116811461068157600080fd5b8035610fbd81610f9d565b919050565b600060208284031215610fd457600080fd5b81356108f081610f9d565b801515811461068157600080fd5b600060208284031215610fff57600080fd5b81356108f081610fdf565b634e487b7160e01b600052604160045260246000fd5b6000602080838503121561103357600080fd5b823567ffffffffffffffff8082111561104b57600080fd5b818501915085601f83011261105f57600080fd5b8135818111156110715761107161100a565b8060051b604051601f19603f830116810181811085821117156110965761109661100a565b6040529182528482019250838101850191888311156110b457600080fd5b938501935b828510156110d9576110ca85610fb2565b845293850193928501926110b9565b98975050505050505050565b600080604083850312156110f857600080fd5b823561110381610f9d565b9150602083013561111381610f9d565b809150509250929050565b8183823760009101908152919050565b6020808252601a908201527f6f6e6c7920676f7665726e616e6365206f72206d616e61676572000000000000604082015260600190565b60006020828403121561117757600080fd5b81516108f081610f9d565b60006020828403121561119457600080fd5b81516108f081610fdf565b634e487b7160e01b600052603260045260246000fd5b634e487b7160e01b600052600160045260246000fd5b6000602082840312156111dd57600080fd5b5051919050565b808201808211156102e557634e487b7160e01b600052601160045260246000fd5b606081528360608201528385608083013760006080858301015260006080601f19601f87011683010190508360208301528260408301529594505050505056fe2aa47ee5db910f3b2a06970c443249cc77dbd9f96100cfebc1775ab7fb1d1824a26469706673582212200fbd5daf6027553d25be031809e0d9445f595d06c586a1b23d2339b1085947d064736f6c63430008170033",
  "linkReferences": {},
  "deployedLinkReferences": {}
}