{
  "_format": "hh-sol-artifact-1",
  "contractName": "Whitelist",
  "sourceName": "contracts/fasset/implementation/Whitelist.sol",
  "abi": [
    {
      "inputs": [
        {
          "internalType": "address",
          "name": "_governance",
          "type": "address"
        }
      ],
      "stateMutability": "nonpayable",
      "type": "constructor"
    },
    {
      "anonymous": false,
      "inputs": [
        {
          "indexed": false,
          "internalType": "address",
          "name": "proposedGovernance",
          "type": "address"
        }
      ],
      "name": "GovernanceProposed",
      "type": "event"
    },
    {
      "anonymous": false,
      "inputs": [
        {
          "indexed": false,
          "internalType": "address",
          "name": "oldGovernance",
          "type": "address"
        },
        {
          "indexed": false,
          "internalType": "address",
          "name": "newGoveranance",
          "type": "address"
        }
      ],
      "name": "GovernanceUpdated",
      "type": "event"
    },
    {
      "anonymous": false,
      "inputs": [
        {
          "indexed": false,
          "internalType": "address",
          "name": "value",
          "type": "address"
        }
      ],
      "name": "Whitelisted",
      "type": "event"
    },
    {
      "inputs": [
        {
          "internalType": "address",
          "name": "_address",
          "type": "address"
        }
      ],
      "name": "addAddressToWhitelist",
      "outputs": [],
      "stateMutability": "nonpayable",
      "type": "function"
    },
    {
      "inputs": [
        {
          "internalType": "address[]",
          "name": "_addresses",
          "type": "address[]"
        }
      ],
      "name": "addAddressesToWhitelist",
      "outputs": [],
      "stateMutability": "nonpayable",
      "type": "function"
    },
    {
      "inputs": [],
      "name": "claimGovernance",
      "outputs": [],
      "stateMutability": "nonpayable",
      "type": "function"
    },
    {
      "inputs": [],
      "name": "governance",
      "outputs": [
        {
          "internalType": "address",
          "name": "",
          "type": "address"
        }
      ],
      "stateMutability": "view",
      "type": "function"
    },
    {
      "inputs": [
        {
          "internalType": "address",
          "name": "_governance",
          "type": "address"
        }
      ],
      "name": "initialise",
      "outputs": [],
      "stateMutability": "nonpayable",
      "type": "function"
    },
    {
      "inputs": [
        {
          "internalType": "address",
          "name": "_address",
          "type": "address"
        }
      ],
      "name": "isWhitelisted",
      "outputs": [
        {
          "internalType": "bool",
          "name": "",
          "type": "bool"
        }
      ],
      "stateMutability": "view",
      "type": "function"
    },
    {
      "inputs": [
        {
          "internalType": "address",
          "name": "_governance",
          "type": "address"
        }
      ],
      "name": "proposeGovernance",
      "outputs": [],
      "stateMutability": "nonpayable",
      "type": "function"
    },
    {
      "inputs": [],
      "name": "proposedGovernance",
      "outputs": [
        {
          "internalType": "address",
          "name": "",
          "type": "address"
        }
      ],
      "stateMutability": "view",
      "type": "function"
    },
    {
      "inputs": [
        {
          "internalType": "address",
          "name": "_governance",
          "type": "address"
        }
      ],
      "name": "transferGovernance",
      "outputs": [],
      "stateMutability": "nonpayable",
      "type": "function"
    },
    {
      "inputs": [
        {
          "internalType": "address",
          "name": "",
          "type": "address"
        }
      ],
      "name": "whitelist",
      "outputs": [
        {
          "internalType": "bool",
          "name": "",
          "type": "bool"
        }
      ],
      "stateMutability": "view",
      "type": "function"
    }
  ],
  "bytecode": "0x608060405234801561001057600080fd5b5060405161082c38038061082c83398101604081905261002f9161017c565b80806001600160a01b03811615610049576100498161009f565b506001600160a01b0381166100985760405162461bcd60e51b815260206004820152601060248201526f5f676f7665726e616e6365207a65726f60801b60448201526064015b60405180910390fd5b50506101ac565b600154600160a01b900460ff16156100f95760405162461bcd60e51b815260206004820152601460248201527f696e697469616c6973656420213d2066616c7365000000000000000000000000604482015260640161008f565b6001805460ff60a01b1916600160a01b179055600054604080516001600160a01b03928316815291831660208301527f434a2db650703b36c824e745330d6397cdaa9ee2cc891a4938ae853e1c50b68d910160405180910390a1600080546001600160a01b039092166001600160a01b0319928316179055600180549091169055565b60006020828403121561018e57600080fd5b81516001600160a01b03811681146101a557600080fd5b9392505050565b610671806101bb6000396000f3fe608060405234801561001057600080fd5b506004361061009e5760003560e01c80639b19251a116100665780639b19251a1461013f5780639d6a890f14610162578063c373a08e14610175578063d38bfff414610188578063e2ec6ec31461019b57600080fd5b80633af32abf146100a35780635aa6e675146100e45780635d36b1901461010f57806360f7ac97146101195780637b9417c81461012c575b600080fd5b6100cf6100b13660046104ff565b6001600160a01b031660009081526002602052604090205460ff1690565b60405190151581526020015b60405180910390f35b6000546100f7906001600160a01b031681565b6040516001600160a01b0390911681526020016100db565b6101176101ae565b005b6001546100f7906001600160a01b031681565b61011761013a3660046104ff565b61026f565b6100cf61014d3660046104ff565b60026020526000908152604090205460ff1681565b6101176101703660046104ff565b6102d2565b6101176101833660046104ff565b6103a7565b6101176101963660046104ff565b6103fd565b6101176101a9366004610537565b610449565b6001546001600160a01b031633146101fd5760405162461bcd60e51b815260206004820152600d60248201526c1b9bdd0818db185a5b585a5b9d609a1b60448201526064015b60405180910390fd5b600054600154604080516001600160a01b0393841681529290911660208301527f434a2db650703b36c824e745330d6397cdaa9ee2cc891a4938ae853e1c50b68d910160405180910390a160018054600080546001600160a01b03199081166001600160a01b03841617909155169055565b610277610495565b6001600160a01b038116600081815260026020908152604091829020805460ff1916600117905590519182527faab7954e9d246b167ef88aeddad35209ca2489d95a8aeb59e288d9b19fae5a5491015b60405180910390a150565b600154600160a01b900460ff16156103235760405162461bcd60e51b8152602060048201526014602482015273696e697469616c6973656420213d2066616c736560601b60448201526064016101f4565b6001805460ff60a01b1916600160a01b179055600054604080516001600160a01b03928316815291831660208301527f434a2db650703b36c824e745330d6397cdaa9ee2cc891a4938ae853e1c50b68d91015b60405180910390a1600080546001600160a01b039092166001600160a01b0319928316179055600180549091169055565b6103af610495565b600180546001600160a01b0319166001600160a01b0383169081179091556040519081527f1f95fb40be3a947982072902a887b521248d1d8931a39eb38f84f4d6fd758b69906020016102c7565b610405610495565b600054604080516001600160a01b03928316815291831660208301527f434a2db650703b36c824e745330d6397cdaa9ee2cc891a4938ae853e1c50b68d9101610376565b610451610495565b60005b81518110156104915761047f828281518110610472576104726105fc565b602002602001015161026f565b8061048981610612565b915050610454565b5050565b6000546001600160a01b031633146104e15760405162461bcd60e51b815260206004820152600f60248201526e6f6e6c7920676f7665726e616e636560881b60448201526064016101f4565b565b80356001600160a01b03811681146104fa57600080fd5b919050565b60006020828403121561051157600080fd5b61051a826104e3565b9392505050565b634e487b7160e01b600052604160045260246000fd5b6000602080838503121561054a57600080fd5b823567ffffffffffffffff8082111561056257600080fd5b818501915085601f83011261057657600080fd5b81358181111561058857610588610521565b8060051b604051601f19603f830116810181811085821117156105ad576105ad610521565b6040529182528482019250838101850191888311156105cb57600080fd5b938501935b828510156105f0576105e1856104e3565b845293850193928501926105d0565b98975050505050505050565b634e487b7160e01b600052603260045260246000fd5b600060001982141561063457634e487b7160e01b600052601160045260246000fd5b506001019056fea2646970667358221220bbd87a492c55e1d5fe39b97a5bf323f9962d548a9b1a735f6ce66d44a08dc3c464736f6c634300080b0033",
  "linkReferences": {},
  "deployedLinkReferences": {}
}