{
  "_format": "hh-sol-artifact-1",
  "contractName": "Whitelist",
  "sourceName": "contracts/fasset/implementation/Whitelist.sol",
  "abi": [
    {
      "inputs": [
        {
          "internalType": "contract IGovernanceSettings",
          "name": "_governanceSettings",
          "type": "address"
        },
        {
          "internalType": "address",
          "name": "_initialGovernance",
          "type": "address"
        },
        {
          "internalType": "bool",
          "name": "_supportsRevoke",
          "type": "bool"
        }
      ],
      "stateMutability": "nonpayable",
      "type": "constructor"
    },
    {
      "anonymous": false,
      "inputs": [
        {
          "indexed": false,
          "internalType": "bytes4",
          "name": "selector",
          "type": "bytes4"
        },
        {
          "indexed": false,
          "internalType": "uint256",
          "name": "allowedAfterTimestamp",
          "type": "uint256"
        },
        {
          "indexed": false,
          "internalType": "bytes",
          "name": "encodedCall",
          "type": "bytes"
        }
      ],
      "name": "GovernanceCallTimelocked",
      "type": "event"
    },
    {
      "anonymous": false,
      "inputs": [
        {
          "indexed": false,
          "internalType": "address",
          "name": "initialGovernance",
          "type": "address"
        }
      ],
      "name": "GovernanceInitialised",
      "type": "event"
    },
    {
      "anonymous": false,
      "inputs": [
        {
          "indexed": false,
          "internalType": "address",
          "name": "governanceSettings",
          "type": "address"
        }
      ],
      "name": "GovernedProductionModeEntered",
      "type": "event"
    },
    {
      "anonymous": false,
      "inputs": [
        {
          "indexed": false,
          "internalType": "bytes4",
          "name": "selector",
          "type": "bytes4"
        },
        {
          "indexed": false,
          "internalType": "uint256",
          "name": "timestamp",
          "type": "uint256"
        }
      ],
      "name": "TimelockedGovernanceCallCanceled",
      "type": "event"
    },
    {
      "anonymous": false,
      "inputs": [
        {
          "indexed": false,
          "internalType": "bytes4",
          "name": "selector",
          "type": "bytes4"
        },
        {
          "indexed": false,
          "internalType": "uint256",
          "name": "timestamp",
          "type": "uint256"
        }
      ],
      "name": "TimelockedGovernanceCallExecuted",
      "type": "event"
    },
    {
      "anonymous": false,
      "inputs": [
        {
          "indexed": false,
          "internalType": "address",
          "name": "value",
          "type": "address"
        }
      ],
      "name": "Whitelisted",
      "type": "event"
    },
    {
      "anonymous": false,
      "inputs": [
        {
          "indexed": false,
          "internalType": "address",
          "name": "value",
          "type": "address"
        }
      ],
      "name": "WhitelistingRevoked",
      "type": "event"
    },
    {
      "inputs": [
        {
          "internalType": "address",
          "name": "_address",
          "type": "address"
        }
      ],
      "name": "addAddressToWhitelist",
      "outputs": [],
      "stateMutability": "nonpayable",
      "type": "function"
    },
    {
      "inputs": [
        {
          "internalType": "address[]",
          "name": "_addresses",
          "type": "address[]"
        }
      ],
      "name": "addAddressesToWhitelist",
      "outputs": [],
      "stateMutability": "nonpayable",
      "type": "function"
    },
    {
      "inputs": [
        {
          "internalType": "bytes4",
          "name": "_selector",
          "type": "bytes4"
        }
      ],
      "name": "cancelGovernanceCall",
      "outputs": [],
      "stateMutability": "nonpayable",
      "type": "function"
    },
    {
      "inputs": [
        {
          "internalType": "bytes4",
          "name": "_selector",
          "type": "bytes4"
        }
      ],
      "name": "executeGovernanceCall",
      "outputs": [],
      "stateMutability": "nonpayable",
      "type": "function"
    },
    {
      "inputs": [],
      "name": "governance",
      "outputs": [
        {
          "internalType": "address",
          "name": "",
          "type": "address"
        }
      ],
      "stateMutability": "view",
      "type": "function"
    },
    {
      "inputs": [],
      "name": "governanceSettings",
      "outputs": [
        {
          "internalType": "contract IGovernanceSettings",
          "name": "",
          "type": "address"
        }
      ],
      "stateMutability": "view",
      "type": "function"
    },
    {
      "inputs": [
        {
          "internalType": "contract IGovernanceSettings",
          "name": "_governanceSettings",
          "type": "address"
        },
        {
          "internalType": "address",
          "name": "_initialGovernance",
          "type": "address"
        }
      ],
      "name": "initialise",
      "outputs": [],
      "stateMutability": "nonpayable",
      "type": "function"
    },
    {
      "inputs": [
        {
          "internalType": "address",
          "name": "_address",
          "type": "address"
        }
      ],
      "name": "isExecutor",
      "outputs": [
        {
          "internalType": "bool",
          "name": "",
          "type": "bool"
        }
      ],
      "stateMutability": "view",
      "type": "function"
    },
    {
      "inputs": [
        {
          "internalType": "address",
          "name": "_address",
          "type": "address"
        }
      ],
      "name": "isWhitelisted",
      "outputs": [
        {
          "internalType": "bool",
          "name": "",
          "type": "bool"
        }
      ],
      "stateMutability": "view",
      "type": "function"
    },
    {
      "inputs": [],
      "name": "productionMode",
      "outputs": [
        {
          "internalType": "bool",
          "name": "",
          "type": "bool"
        }
      ],
      "stateMutability": "view",
      "type": "function"
    },
    {
      "inputs": [
        {
          "internalType": "address",
          "name": "_address",
          "type": "address"
        }
      ],
      "name": "revokeAddress",
      "outputs": [],
      "stateMutability": "nonpayable",
      "type": "function"
    },
    {
      "inputs": [],
      "name": "supportsRevoke",
      "outputs": [
        {
          "internalType": "bool",
          "name": "",
          "type": "bool"
        }
      ],
      "stateMutability": "view",
      "type": "function"
    },
    {
      "inputs": [],
      "name": "switchToProductionMode",
      "outputs": [],
      "stateMutability": "nonpayable",
      "type": "function"
    },
    {
      "inputs": [
        {
          "internalType": "bytes4",
          "name": "",
          "type": "bytes4"
        }
      ],
      "name": "timelockedCalls",
      "outputs": [
        {
          "internalType": "uint256",
          "name": "allowedAfterTimestamp",
          "type": "uint256"
        },
        {
          "internalType": "bytes",
          "name": "encodedCall",
          "type": "bytes"
        }
      ],
      "stateMutability": "view",
      "type": "function"
    }
  ],
  "bytecode": "0x60a06040523480156200001157600080fd5b506040516200141d3803806200141d8339810160408190526200003491620001e4565b828262000042828262000052565b50501515608052506200023c9050565b600054600160a01b900460ff1615620000b25760405162461bcd60e51b815260206004820152601460248201527f696e697469616c6973656420213d2066616c736500000000000000000000000060448201526064015b60405180910390fd5b6001600160a01b0382166200010a5760405162461bcd60e51b815260206004820152601860248201527f676f7665726e616e63652073657474696e6773207a65726f00000000000000006044820152606401620000a9565b6001600160a01b038116620001555760405162461bcd60e51b815260206004820152601060248201526f5f676f7665726e616e6365207a65726f60801b6044820152606401620000a9565b600080546001600160a01b038481166001600160a81b031990921691909117600160a01b17909155600180549183166001600160a01b0319909216821790556040519081527f9789733827840833afc031fb2ef9ab6894271f77bad2085687cf4ae5c7bee4db9060200160405180910390a15050565b6001600160a01b0381168114620001e157600080fd5b50565b600080600060608486031215620001fa57600080fd5b83516200020781620001cb565b60208501519093506200021a81620001cb565b604085015190925080151581146200023157600080fd5b809150509250925092565b6080516111bf6200025e6000396000818160f4015261027f01526111bf6000f3fe608060405234801561001057600080fd5b50600436106100ea5760003560e01c806374e6310e1161008c578063e17f212e11610066578063e17f212e1461020c578063e2ec6ec314610220578063ef88bf1314610233578063f5a983831461024657600080fd5b806374e6310e146101c55780637b9417c8146101e6578063debfda30146101f957600080fd5b80635aa6e675116100c85780635aa6e6751461016c5780635ff270791461018c57806362354e031461019f57806367fc4029146101b257600080fd5b80632583e7f7146100ef578063317a7aec1461012b5780633af32abf14610140575b600080fd5b6101167f000000000000000000000000000000000000000000000000000000000000000081565b60405190151581526020015b60405180910390f35b61013e610139366004610e57565b61024e565b005b61011661014e366004610e57565b6001600160a01b031660009081526003602052604090205460ff1690565b6101746102fd565b6040516001600160a01b039091168152602001610122565b61013e61019a366004610e7b565b610399565b600054610174906001600160a01b031681565b61013e6101c0366004610e7b565b61061c565b6101d86101d3366004610e7b565b6106fb565b604051610122929190610ed1565b61013e6101f4366004610e57565b6107a0565b610116610207366004610e57565b6107b1565b60005461011690600160a81b900460ff1681565b61013e61022e366004610f21565b61083a565b61013e610241366004610fe6565b610886565b61013e6109ec565b600054600160b01b900460ff16806102705750600054600160a81b900460ff16155b156102f25761027d610ab2565b7f00000000000000000000000000000000000000000000000000000000000000006102e65760405162461bcd60e51b81526020600482015260146024820152731c995d9bdad9481b9bdd081cdd5c1c1bdc9d195960621b60448201526064015b60405180910390fd5b6102ef81610aec565b50565b6102ef600036610b44565b60008054600160a81b900460ff1661031f57506001546001600160a01b031690565b60008054906101000a90046001600160a01b03166001600160a01b031663732524946040518163ffffffff1660e01b8152600401602060405180830381865afa158015610370573d6000803e3d6000fd5b505050506040513d601f19601f82011682018060405250810190610394919061101f565b905090565b6103a2336107b1565b6103de5760405162461bcd60e51b815260206004820152600d60248201526c37b7363c9032bc32b1baba37b960991b60448201526064016102dd565b6001600160e01b03198116600090815260026020526040902080546104455760405162461bcd60e51b815260206004820152601a60248201527f74696d656c6f636b3a20696e76616c69642073656c6563746f7200000000000060448201526064016102dd565b80544210156104965760405162461bcd60e51b815260206004820152601960248201527f74696d656c6f636b3a206e6f7420616c6c6f776564207965740000000000000060448201526064016102dd565b60008160010180546104a79061103c565b80601f01602080910402602001604051908101604052809291908181526020018280546104d39061103c565b80156105205780601f106104f557610100808354040283529160200191610520565b820191906000526020600020905b81548152906001019060200180831161050357829003601f168201915b505050506001600160e01b03198516600090815260026020526040812081815592935090506105526001830182610d5f565b50506000805460ff60b01b1916600160b01b1781556040513090610577908490611077565b6000604051808303816000865af19150503d80600081146105b4576040519150601f19603f3d011682016040523d82523d6000602084013e6105b9565b606091505b50506000805460ff60b01b19169055604080516001600160e01b0319871681524260208201529192507fa7326b57fc9cfe267aaea5e7f0b01757154d265620a0585819416ee9ddd2c438910160405180910390a161061681610c94565b50505050565b610624610cb1565b6001600160e01b0319811660009081526002602052604090205461068a5760405162461bcd60e51b815260206004820152601a60248201527f74696d656c6f636b3a20696e76616c69642073656c6563746f7200000000000060448201526064016102dd565b604080516001600160e01b0319831681524260208201527f7735b2391c38a81419c513e30ca578db7158eadd7101511b23e221c654d19cf8910160405180910390a16001600160e01b031981166000908152600260205260408120818155906106f66001830182610d5f565b505050565b6002602052600090815260409020805460018201805491929161071d9061103c565b80601f01602080910402602001604051908101604052809291908181526020018280546107499061103c565b80156107965780601f1061076b57610100808354040283529160200191610796565b820191906000526020600020905b81548152906001019060200180831161077957829003601f168201915b5050505050905082565b6107a8610cb1565b6102ef81610d0b565b60008054600160a01b900460ff1680156108345750600054604051630debfda360e41b81526001600160a01b0384811660048301529091169063debfda3090602401602060405180830381865afa158015610810573d6000803e3d6000fd5b505050506040513d601f19601f820116820180604052508101906108349190611093565b92915050565b610842610cb1565b60005b815181101561088257610870828281518110610863576108636110b5565b6020026020010151610d0b565b8061087a816110e1565b915050610845565b5050565b600054600160a01b900460ff16156108d75760405162461bcd60e51b8152602060048201526014602482015273696e697469616c6973656420213d2066616c736560601b60448201526064016102dd565b6001600160a01b03821661092d5760405162461bcd60e51b815260206004820152601860248201527f676f7665726e616e63652073657474696e6773207a65726f000000000000000060448201526064016102dd565b6001600160a01b0381166109765760405162461bcd60e51b815260206004820152601060248201526f5f676f7665726e616e6365207a65726f60801b60448201526064016102dd565b600080546001600160a01b038481166001600160a81b031990921691909117600160a01b17909155600180549183166001600160a01b0319909216821790556040519081527f9789733827840833afc031fb2ef9ab6894271f77bad2085687cf4ae5c7bee4db9060200160405180910390a15050565b6109f4610cb1565b600054600160a81b900460ff1615610a4e5760405162461bcd60e51b815260206004820152601a60248201527f616c726561647920696e2070726f64756374696f6e206d6f646500000000000060448201526064016102dd565b600180546001600160a01b031916905560008054600160a81b60ff60a81b198216179091556040516001600160a01b0390911681527f83af113638b5422f9e977cebc0aaf0eaf2188eb9a8baae7f9d46c42b33a1560c9060200160405180910390a1565b600054600160b01b900460ff1615610ae257333014610ad357610ad36110fc565b6000805460ff60b01b19169055565b610aea610cb1565b565b6001600160a01b038116600081815260036020908152604091829020805460ff1916905590519182527fe01091cddc91f5497c62b6d5b4ae6514036739c2528f0463485236065e1eba4a91015b60405180910390a150565b610b4c610cb1565b6000805460408051636221a54b60e01b81529051853593926001600160a01b031691636221a54b9160048083019260209291908290030181865afa158015610b98573d6000803e3d6000fd5b505050506040513d601f19601f82011682018060405250810190610bbc9190611112565b90506000610bca824261112b565b9050604051806040016040528082815260200186868080601f01602080910402602001604051908101604052809392919081815260200183838082843760009201829052509390945250506001600160e01b03198616815260026020908152604090912083518155838201518051919350610c4c926001850192910190610d99565b509050507fed948300a3694aa01d4a6b258bfd664350193d770c0b51f8387277f6d83ea3b683828787604051610c859493929190611143565b60405180910390a15050505050565b3d604051818101604052816000823e8215610cad578181f35b8181fd5b610cb96102fd565b6001600160a01b0316336001600160a01b031614610aea5760405162461bcd60e51b815260206004820152600f60248201526e6f6e6c7920676f7665726e616e636560881b60448201526064016102dd565b6001600160a01b038116600081815260036020908152604091829020805460ff1916600117905590519182527faab7954e9d246b167ef88aeddad35209ca2489d95a8aeb59e288d9b19fae5a549101610b39565b508054610d6b9061103c565b6000825580601f10610d7b575050565b601f0160209004906000526020600020908101906102ef9190610e1d565b828054610da59061103c565b90600052602060002090601f016020900481019282610dc75760008555610e0d565b82601f10610de057805160ff1916838001178555610e0d565b82800160010185558215610e0d579182015b82811115610e0d578251825591602001919060010190610df2565b50610e19929150610e1d565b5090565b5b80821115610e195760008155600101610e1e565b6001600160a01b03811681146102ef57600080fd5b8035610e5281610e32565b919050565b600060208284031215610e6957600080fd5b8135610e7481610e32565b9392505050565b600060208284031215610e8d57600080fd5b81356001600160e01b031981168114610e7457600080fd5b60005b83811015610ec0578181015183820152602001610ea8565b838111156106165750506000910152565b8281526040602082015260008251806040840152610ef6816060850160208701610ea5565b601f01601f1916919091016060019392505050565b634e487b7160e01b600052604160045260246000fd5b60006020808385031215610f3457600080fd5b823567ffffffffffffffff80821115610f4c57600080fd5b818501915085601f830112610f6057600080fd5b813581811115610f7257610f72610f0b565b8060051b604051601f19603f83011681018181108582111715610f9757610f97610f0b565b604052918252848201925083810185019188831115610fb557600080fd5b938501935b82851015610fda57610fcb85610e47565b84529385019392850192610fba565b98975050505050505050565b60008060408385031215610ff957600080fd5b823561100481610e32565b9150602083013561101481610e32565b809150509250929050565b60006020828403121561103157600080fd5b8151610e7481610e32565b600181811c9082168061105057607f821691505b6020821081141561107157634e487b7160e01b600052602260045260246000fd5b50919050565b60008251611089818460208701610ea5565b9190910192915050565b6000602082840312156110a557600080fd5b81518015158114610e7457600080fd5b634e487b7160e01b600052603260045260246000fd5b634e487b7160e01b600052601160045260246000fd5b60006000198214156110f5576110f56110cb565b5060010190565b634e487b7160e01b600052600160045260246000fd5b60006020828403121561112457600080fd5b5051919050565b6000821982111561113e5761113e6110cb565b500190565b63ffffffff60e01b8516815283602082015260606040820152816060820152818360808301376000818301608090810191909152601f909201601f19160101939250505056fea2646970667358221220baf722aeeed0f680bffe837110c793ddcd23c713bb256cab4326adff612d674a64736f6c634300080b0033",
  "linkReferences": {},
  "deployedLinkReferences": {}
}