{
  "_format": "hh-sol-artifact-1",
  "contractName": "Whitelist",
  "sourceName": "contracts/fasset/implementation/Whitelist.sol",
  "abi": [
    {
      "inputs": [
        {
          "internalType": "contract IGovernanceSettings",
          "name": "_governanceSettings",
          "type": "address"
        },
        {
          "internalType": "address",
          "name": "_initialGovernance",
          "type": "address"
        },
        {
          "internalType": "bool",
          "name": "_supportsRevoke",
          "type": "bool"
        }
      ],
      "stateMutability": "nonpayable",
      "type": "constructor"
    },
    {
      "anonymous": false,
      "inputs": [
        {
          "indexed": false,
          "internalType": "bytes4",
          "name": "selector",
          "type": "bytes4"
        },
        {
          "indexed": false,
          "internalType": "uint256",
          "name": "allowedAfterTimestamp",
          "type": "uint256"
        },
        {
          "indexed": false,
          "internalType": "bytes",
          "name": "encodedCall",
          "type": "bytes"
        }
      ],
      "name": "GovernanceCallTimelocked",
      "type": "event"
    },
    {
      "anonymous": false,
      "inputs": [
        {
          "indexed": false,
          "internalType": "address",
          "name": "initialGovernance",
          "type": "address"
        }
      ],
      "name": "GovernanceInitialised",
      "type": "event"
    },
    {
      "anonymous": false,
      "inputs": [
        {
          "indexed": false,
          "internalType": "address",
          "name": "governanceSettings",
          "type": "address"
        }
      ],
      "name": "GovernedProductionModeEntered",
      "type": "event"
    },
    {
      "anonymous": false,
      "inputs": [
        {
          "indexed": false,
          "internalType": "bytes4",
          "name": "selector",
          "type": "bytes4"
        },
        {
          "indexed": false,
          "internalType": "uint256",
          "name": "timestamp",
          "type": "uint256"
        }
      ],
      "name": "TimelockedGovernanceCallCanceled",
      "type": "event"
    },
    {
      "anonymous": false,
      "inputs": [
        {
          "indexed": false,
          "internalType": "bytes4",
          "name": "selector",
          "type": "bytes4"
        },
        {
          "indexed": false,
          "internalType": "uint256",
          "name": "timestamp",
          "type": "uint256"
        }
      ],
      "name": "TimelockedGovernanceCallExecuted",
      "type": "event"
    },
    {
      "anonymous": false,
      "inputs": [
        {
          "indexed": false,
          "internalType": "address",
          "name": "value",
          "type": "address"
        }
      ],
      "name": "Whitelisted",
      "type": "event"
    },
    {
      "anonymous": false,
      "inputs": [
        {
          "indexed": false,
          "internalType": "address",
          "name": "value",
          "type": "address"
        }
      ],
      "name": "WhitelistingRevoked",
      "type": "event"
    },
    {
      "inputs": [
        {
          "internalType": "address",
          "name": "_address",
          "type": "address"
        }
      ],
      "name": "addAddressToWhitelist",
      "outputs": [],
      "stateMutability": "nonpayable",
      "type": "function"
    },
    {
      "inputs": [
        {
          "internalType": "address[]",
          "name": "_addresses",
          "type": "address[]"
        }
      ],
      "name": "addAddressesToWhitelist",
      "outputs": [],
      "stateMutability": "nonpayable",
      "type": "function"
    },
    {
      "inputs": [
        {
          "internalType": "bytes4",
          "name": "_selector",
          "type": "bytes4"
        }
      ],
      "name": "cancelGovernanceCall",
      "outputs": [],
      "stateMutability": "nonpayable",
      "type": "function"
    },
    {
      "inputs": [
        {
          "internalType": "bytes4",
          "name": "_selector",
          "type": "bytes4"
        }
      ],
      "name": "executeGovernanceCall",
      "outputs": [],
      "stateMutability": "nonpayable",
      "type": "function"
    },
    {
      "inputs": [],
      "name": "governance",
      "outputs": [
        {
          "internalType": "address",
          "name": "",
          "type": "address"
        }
      ],
      "stateMutability": "view",
      "type": "function"
    },
    {
      "inputs": [],
      "name": "governanceSettings",
      "outputs": [
        {
          "internalType": "contract IGovernanceSettings",
          "name": "",
          "type": "address"
        }
      ],
      "stateMutability": "view",
      "type": "function"
    },
    {
      "inputs": [
        {
          "internalType": "contract IGovernanceSettings",
          "name": "_governanceSettings",
          "type": "address"
        },
        {
          "internalType": "address",
          "name": "_initialGovernance",
          "type": "address"
        }
      ],
      "name": "initialise",
      "outputs": [],
      "stateMutability": "nonpayable",
      "type": "function"
    },
    {
      "inputs": [
        {
          "internalType": "address",
          "name": "_address",
          "type": "address"
        }
      ],
      "name": "isExecutor",
      "outputs": [
        {
          "internalType": "bool",
          "name": "",
          "type": "bool"
        }
      ],
      "stateMutability": "view",
      "type": "function"
    },
    {
      "inputs": [
        {
          "internalType": "address",
          "name": "_address",
          "type": "address"
        }
      ],
      "name": "isWhitelisted",
      "outputs": [
        {
          "internalType": "bool",
          "name": "",
          "type": "bool"
        }
      ],
      "stateMutability": "view",
      "type": "function"
    },
    {
      "inputs": [],
      "name": "productionMode",
      "outputs": [
        {
          "internalType": "bool",
          "name": "",
          "type": "bool"
        }
      ],
      "stateMutability": "view",
      "type": "function"
    },
    {
      "inputs": [
        {
          "internalType": "address",
          "name": "_address",
          "type": "address"
        }
      ],
      "name": "revokeAddress",
      "outputs": [],
      "stateMutability": "nonpayable",
      "type": "function"
    },
    {
      "inputs": [],
      "name": "supportsRevoke",
      "outputs": [
        {
          "internalType": "bool",
          "name": "",
          "type": "bool"
        }
      ],
      "stateMutability": "view",
      "type": "function"
    },
    {
      "inputs": [],
      "name": "switchToProductionMode",
      "outputs": [],
      "stateMutability": "nonpayable",
      "type": "function"
    },
    {
      "inputs": [
        {
          "internalType": "bytes4",
          "name": "",
          "type": "bytes4"
        }
      ],
      "name": "timelockedCalls",
      "outputs": [
        {
          "internalType": "uint256",
          "name": "allowedAfterTimestamp",
          "type": "uint256"
        },
        {
          "internalType": "bytes",
          "name": "encodedCall",
          "type": "bytes"
        }
      ],
      "stateMutability": "view",
      "type": "function"
    }
  ],
  "bytecode": "0x60a06040523480156200001157600080fd5b5060405162001462380380620014628339810160408190526200003491620001e4565b828262000042828262000052565b50501515608052506200023c9050565b600054600160a01b900460ff1615620000b25760405162461bcd60e51b815260206004820152601460248201527f696e697469616c6973656420213d2066616c736500000000000000000000000060448201526064015b60405180910390fd5b6001600160a01b0382166200010a5760405162461bcd60e51b815260206004820152601860248201527f676f7665726e616e63652073657474696e6773207a65726f00000000000000006044820152606401620000a9565b6001600160a01b038116620001555760405162461bcd60e51b815260206004820152601060248201526f5f676f7665726e616e6365207a65726f60801b6044820152606401620000a9565b600080546001600160a01b038481166001600160a81b031990921691909117600160a01b17909155600180549183166001600160a01b0319909216821790556040519081527f9789733827840833afc031fb2ef9ab6894271f77bad2085687cf4ae5c7bee4db9060200160405180910390a15050565b6001600160a01b0381168114620001e157600080fd5b50565b600080600060608486031215620001fa57600080fd5b83516200020781620001cb565b60208501519093506200021a81620001cb565b604085015190925080151581146200023157600080fd5b809150509250925092565b6080516112046200025e6000396000818160f4015261027f01526112046000f3fe608060405234801561001057600080fd5b50600436106100ea5760003560e01c806374e6310e1161008c578063e17f212e11610066578063e17f212e1461020c578063e2ec6ec314610220578063ef88bf1314610233578063f5a983831461024657600080fd5b806374e6310e146101c55780637b9417c8146101e6578063debfda30146101f957600080fd5b80635aa6e675116100c85780635aa6e6751461016c5780635ff270791461018c57806362354e031461019f57806367fc4029146101b257600080fd5b80632583e7f7146100ef578063317a7aec1461012b5780633af32abf14610140575b600080fd5b6101167f000000000000000000000000000000000000000000000000000000000000000081565b60405190151581526020015b60405180910390f35b61013e610139366004610e9c565b61024e565b005b61011661014e366004610e9c565b6001600160a01b031660009081526003602052604090205460ff1690565b6101746102fd565b6040516001600160a01b039091168152602001610122565b61013e61019a366004610ec0565b610399565b600054610174906001600160a01b031681565b61013e6101c0366004610ec0565b61061c565b6101d86101d3366004610ec0565b6106fb565b604051610122929190610f16565b61013e6101f4366004610e9c565b6107a0565b610116610207366004610e9c565b6107b1565b60005461011690600160a81b900460ff1681565b61013e61022e366004610f66565b61083a565b61013e61024136600461102b565b610886565b61013e6109ec565b600054600160b01b900460ff16806102705750600054600160a81b900460ff16155b156102f25761027d610ab2565b7f00000000000000000000000000000000000000000000000000000000000000006102e65760405162461bcd60e51b81526020600482015260146024820152731c995d9bdad9481b9bdd081cdd5c1c1bdc9d195960621b60448201526064015b60405180910390fd5b6102ef81610aec565b50565b6102ef600036610b44565b60008054600160a81b900460ff1661031f57506001546001600160a01b031690565b60008054906101000a90046001600160a01b03166001600160a01b031663732524946040518163ffffffff1660e01b8152600401602060405180830381865afa158015610370573d6000803e3d6000fd5b505050506040513d601f19601f820116820180604052508101906103949190611064565b905090565b6103a2336107b1565b6103de5760405162461bcd60e51b815260206004820152600d60248201526c37b7363c9032bc32b1baba37b960991b60448201526064016102dd565b6001600160e01b03198116600090815260026020526040902080546104455760405162461bcd60e51b815260206004820152601a60248201527f74696d656c6f636b3a20696e76616c69642073656c6563746f7200000000000060448201526064016102dd565b80544210156104965760405162461bcd60e51b815260206004820152601960248201527f74696d656c6f636b3a206e6f7420616c6c6f776564207965740000000000000060448201526064016102dd565b60008160010180546104a790611081565b80601f01602080910402602001604051908101604052809291908181526020018280546104d390611081565b80156105205780601f106104f557610100808354040283529160200191610520565b820191906000526020600020905b81548152906001019060200180831161050357829003601f168201915b505050506001600160e01b03198516600090815260026020526040812081815592935090506105526001830182610da4565b50506000805460ff60b01b1916600160b01b17815560405130906105779084906110bc565b6000604051808303816000865af19150503d80600081146105b4576040519150601f19603f3d011682016040523d82523d6000602084013e6105b9565b606091505b50506000805460ff60b01b19169055604080516001600160e01b0319871681524260208201529192507fa7326b57fc9cfe267aaea5e7f0b01757154d265620a0585819416ee9ddd2c438910160405180910390a161061681610c94565b50505050565b610624610cb1565b6001600160e01b0319811660009081526002602052604090205461068a5760405162461bcd60e51b815260206004820152601a60248201527f74696d656c6f636b3a20696e76616c69642073656c6563746f7200000000000060448201526064016102dd565b604080516001600160e01b0319831681524260208201527f7735b2391c38a81419c513e30ca578db7158eadd7101511b23e221c654d19cf8910160405180910390a16001600160e01b031981166000908152600260205260408120818155906106f66001830182610da4565b505050565b6002602052600090815260409020805460018201805491929161071d90611081565b80601f016020809104026020016040519081016040528092919081815260200182805461074990611081565b80156107965780601f1061076b57610100808354040283529160200191610796565b820191906000526020600020905b81548152906001019060200180831161077957829003601f168201915b5050505050905082565b6107a8610cb1565b6102ef81610d0b565b60008054600160a01b900460ff1680156108345750600054604051630debfda360e41b81526001600160a01b0384811660048301529091169063debfda3090602401602060405180830381865afa158015610810573d6000803e3d6000fd5b505050506040513d601f19601f8201168201806040525081019061083491906110d8565b92915050565b610842610cb1565b60005b815181101561088257610870828281518110610863576108636110fa565b6020026020010151610d0b565b8061087a81611126565b915050610845565b5050565b600054600160a01b900460ff16156108d75760405162461bcd60e51b8152602060048201526014602482015273696e697469616c6973656420213d2066616c736560601b60448201526064016102dd565b6001600160a01b03821661092d5760405162461bcd60e51b815260206004820152601860248201527f676f7665726e616e63652073657474696e6773207a65726f000000000000000060448201526064016102dd565b6001600160a01b0381166109765760405162461bcd60e51b815260206004820152601060248201526f5f676f7665726e616e6365207a65726f60801b60448201526064016102dd565b600080546001600160a01b038481166001600160a81b031990921691909117600160a01b17909155600180549183166001600160a01b0319909216821790556040519081527f9789733827840833afc031fb2ef9ab6894271f77bad2085687cf4ae5c7bee4db9060200160405180910390a15050565b6109f4610cb1565b600054600160a81b900460ff1615610a4e5760405162461bcd60e51b815260206004820152601a60248201527f616c726561647920696e2070726f64756374696f6e206d6f646500000000000060448201526064016102dd565b600180546001600160a01b031916905560008054600160a81b60ff60a81b198216179091556040516001600160a01b0390911681527f83af113638b5422f9e977cebc0aaf0eaf2188eb9a8baae7f9d46c42b33a1560c9060200160405180910390a1565b600054600160b01b900460ff1615610ae257333014610ad357610ad3611141565b6000805460ff60b01b19169055565b610aea610cb1565b565b6001600160a01b038116600081815260036020908152604091829020805460ff1916905590519182527fe01091cddc91f5497c62b6d5b4ae6514036739c2528f0463485236065e1eba4a91015b60405180910390a150565b610b4c610cb1565b6000805460408051636221a54b60e01b81529051853593926001600160a01b031691636221a54b9160048083019260209291908290030181865afa158015610b98573d6000803e3d6000fd5b505050506040513d601f19601f82011682018060405250810190610bbc9190611157565b90506000610bca8242611170565b9050604051806040016040528082815260200186868080601f01602080910402602001604051908101604052809392919081815260200183838082843760009201829052509390945250506001600160e01b03198616815260026020908152604090912083518155838201518051919350610c4c926001850192910190610dde565b509050507fed948300a3694aa01d4a6b258bfd664350193d770c0b51f8387277f6d83ea3b683828787604051610c859493929190611188565b60405180910390a15050505050565b3d604051818101604052816000823e8215610cad578181f35b8181fd5b610cb96102fd565b6001600160a01b0316336001600160a01b031614610aea5760405162461bcd60e51b815260206004820152600f60248201526e6f6e6c7920676f7665726e616e636560881b60448201526064016102dd565b6001600160a01b038116610d505760405162461bcd60e51b815260206004820152600c60248201526b61646472657373207a65726f60a01b60448201526064016102dd565b6001600160a01b038116600081815260036020908152604091829020805460ff1916600117905590519182527faab7954e9d246b167ef88aeddad35209ca2489d95a8aeb59e288d9b19fae5a549101610b39565b508054610db090611081565b6000825580601f10610dc0575050565b601f0160209004906000526020600020908101906102ef9190610e62565b828054610dea90611081565b90600052602060002090601f016020900481019282610e0c5760008555610e52565b82601f10610e2557805160ff1916838001178555610e52565b82800160010185558215610e52579182015b82811115610e52578251825591602001919060010190610e37565b50610e5e929150610e62565b5090565b5b80821115610e5e5760008155600101610e63565b6001600160a01b03811681146102ef57600080fd5b8035610e9781610e77565b919050565b600060208284031215610eae57600080fd5b8135610eb981610e77565b9392505050565b600060208284031215610ed257600080fd5b81356001600160e01b031981168114610eb957600080fd5b60005b83811015610f05578181015183820152602001610eed565b838111156106165750506000910152565b8281526040602082015260008251806040840152610f3b816060850160208701610eea565b601f01601f1916919091016060019392505050565b634e487b7160e01b600052604160045260246000fd5b60006020808385031215610f7957600080fd5b823567ffffffffffffffff80821115610f9157600080fd5b818501915085601f830112610fa557600080fd5b813581811115610fb757610fb7610f50565b8060051b604051601f19603f83011681018181108582111715610fdc57610fdc610f50565b604052918252848201925083810185019188831115610ffa57600080fd5b938501935b8285101561101f5761101085610e8c565b84529385019392850192610fff565b98975050505050505050565b6000806040838503121561103e57600080fd5b823561104981610e77565b9150602083013561105981610e77565b809150509250929050565b60006020828403121561107657600080fd5b8151610eb981610e77565b600181811c9082168061109557607f821691505b602082108114156110b657634e487b7160e01b600052602260045260246000fd5b50919050565b600082516110ce818460208701610eea565b9190910192915050565b6000602082840312156110ea57600080fd5b81518015158114610eb957600080fd5b634e487b7160e01b600052603260045260246000fd5b634e487b7160e01b600052601160045260246000fd5b600060001982141561113a5761113a611110565b5060010190565b634e487b7160e01b600052600160045260246000fd5b60006020828403121561116957600080fd5b5051919050565b6000821982111561118357611183611110565b500190565b63ffffffff60e01b8516815283602082015260606040820152816060820152818360808301376000818301608090810191909152601f909201601f19160101939250505056fea2646970667358221220f75311ead15c57ae1c19c57d90753874920858d112e2d85016bb51d5cebf5ffa64736f6c634300080b0033",
  "linkReferences": {},
  "deployedLinkReferences": {}
}