{
  "_format": "hh-sol-artifact-1",
  "contractName": "AgentVault",
  "sourceName": "contracts/fasset/implementation/AgentVault.sol",
  "abi": [
    {
      "inputs": [
        {
          "internalType": "contract IAssetManager",
          "name": "_assetManager",
          "type": "address"
        }
      ],
      "stateMutability": "nonpayable",
      "type": "constructor"
    },
    {
      "inputs": [],
      "name": "assetManager",
      "outputs": [
        {
          "internalType": "contract IAssetManager",
          "name": "",
          "type": "address"
        }
      ],
      "stateMutability": "view",
      "type": "function"
    },
    {
      "inputs": [],
      "name": "buyCollateralPoolTokens",
      "outputs": [],
      "stateMutability": "payable",
      "type": "function"
    },
    {
      "inputs": [
        {
          "internalType": "contract IDistributionToDelegators",
          "name": "_distribution",
          "type": "address"
        },
        {
          "internalType": "uint256",
          "name": "_month",
          "type": "uint256"
        },
        {
          "internalType": "address payable",
          "name": "_recipient",
          "type": "address"
        }
      ],
      "name": "claimAirdropDistribution",
      "outputs": [
        {
          "internalType": "uint256",
          "name": "",
          "type": "uint256"
        }
      ],
      "stateMutability": "nonpayable",
      "type": "function"
    },
    {
      "inputs": [
        {
          "internalType": "contract IFtsoRewardManager",
          "name": "_ftsoRewardManager",
          "type": "address"
        },
        {
          "internalType": "uint256",
          "name": "_lastRewardEpoch",
          "type": "uint256"
        },
        {
          "internalType": "address payable",
          "name": "_recipient",
          "type": "address"
        }
      ],
      "name": "claimFtsoRewards",
      "outputs": [
        {
          "internalType": "uint256",
          "name": "",
          "type": "uint256"
        }
      ],
      "stateMutability": "nonpayable",
      "type": "function"
    },
    {
      "inputs": [
        {
          "internalType": "contract IERC20",
          "name": "_token",
          "type": "address"
        }
      ],
      "name": "collateralDeposited",
      "outputs": [],
      "stateMutability": "nonpayable",
      "type": "function"
    },
    {
      "inputs": [],
      "name": "collateralPool",
      "outputs": [
        {
          "internalType": "contract ICollateralPool",
          "name": "",
          "type": "address"
        }
      ],
      "stateMutability": "view",
      "type": "function"
    },
    {
      "inputs": [
        {
          "internalType": "contract IVPToken",
          "name": "_token",
          "type": "address"
        },
        {
          "internalType": "address",
          "name": "_to",
          "type": "address"
        },
        {
          "internalType": "uint256",
          "name": "_bips",
          "type": "uint256"
        }
      ],
      "name": "delegate",
      "outputs": [],
      "stateMutability": "nonpayable",
      "type": "function"
    },
    {
      "inputs": [
        {
          "internalType": "address",
          "name": "_to",
          "type": "address"
        }
      ],
      "name": "delegateGovernance",
      "outputs": [],
      "stateMutability": "nonpayable",
      "type": "function"
    },
    {
      "inputs": [
        {
          "internalType": "contract IERC20",
          "name": "_token",
          "type": "address"
        },
        {
          "internalType": "uint256",
          "name": "_amount",
          "type": "uint256"
        }
      ],
      "name": "depositCollateral",
      "outputs": [],
      "stateMutability": "nonpayable",
      "type": "function"
    },
    {
      "inputs": [],
      "name": "depositNat",
      "outputs": [],
      "stateMutability": "payable",
      "type": "function"
    },
    {
      "inputs": [
        {
          "internalType": "address payable",
          "name": "_recipient",
          "type": "address"
        }
      ],
      "name": "destroy",
      "outputs": [],
      "stateMutability": "nonpayable",
      "type": "function"
    },
    {
      "inputs": [
        {
          "internalType": "address",
          "name": "_address",
          "type": "address"
        }
      ],
      "name": "isOwner",
      "outputs": [
        {
          "internalType": "bool",
          "name": "",
          "type": "bool"
        }
      ],
      "stateMutability": "view",
      "type": "function"
    },
    {
      "inputs": [
        {
          "internalType": "contract IDistributionToDelegators",
          "name": "_distribution",
          "type": "address"
        }
      ],
      "name": "optOutOfAirdrop",
      "outputs": [],
      "stateMutability": "nonpayable",
      "type": "function"
    },
    {
      "inputs": [
        {
          "internalType": "contract IERC20",
          "name": "_token",
          "type": "address"
        },
        {
          "internalType": "address",
          "name": "_recipient",
          "type": "address"
        },
        {
          "internalType": "uint256",
          "name": "_amount",
          "type": "uint256"
        }
      ],
      "name": "payout",
      "outputs": [],
      "stateMutability": "nonpayable",
      "type": "function"
    },
    {
      "inputs": [
        {
          "internalType": "address payable",
          "name": "_recipient",
          "type": "address"
        },
        {
          "internalType": "uint256",
          "name": "_amount",
          "type": "uint256"
        }
      ],
      "name": "payoutNAT",
      "outputs": [],
      "stateMutability": "nonpayable",
      "type": "function"
    },
    {
      "inputs": [
        {
          "internalType": "uint256",
          "name": "_amount",
          "type": "uint256"
        },
        {
          "internalType": "address payable",
          "name": "_recipient",
          "type": "address"
        }
      ],
      "name": "redeemCollateralPoolTokens",
      "outputs": [],
      "stateMutability": "nonpayable",
      "type": "function"
    },
    {
      "inputs": [
        {
          "internalType": "contract IVPToken",
          "name": "_token",
          "type": "address"
        },
        {
          "internalType": "address",
          "name": "_who",
          "type": "address"
        },
        {
          "internalType": "uint256",
          "name": "_blockNumber",
          "type": "uint256"
        }
      ],
      "name": "revokeDelegationAt",
      "outputs": [],
      "stateMutability": "nonpayable",
      "type": "function"
    },
    {
      "inputs": [
        {
          "internalType": "contract IClaimSetupManager",
          "name": "_claimSetupManager",
          "type": "address"
        },
        {
          "internalType": "address[]",
          "name": "_executors",
          "type": "address[]"
        },
        {
          "internalType": "address[]",
          "name": "_allowedRecipients",
          "type": "address[]"
        }
      ],
      "name": "setFtsoAutoClaiming",
      "outputs": [],
      "stateMutability": "payable",
      "type": "function"
    },
    {
      "inputs": [
        {
          "internalType": "contract IERC20",
          "name": "_token",
          "type": "address"
        },
        {
          "internalType": "uint256",
          "name": "_amount",
          "type": "uint256"
        }
      ],
      "name": "transferExternalToken",
      "outputs": [],
      "stateMutability": "nonpayable",
      "type": "function"
    },
    {
      "inputs": [
        {
          "internalType": "contract IVPToken",
          "name": "_token",
          "type": "address"
        }
      ],
      "name": "undelegateAll",
      "outputs": [],
      "stateMutability": "nonpayable",
      "type": "function"
    },
    {
      "inputs": [],
      "name": "undelegateGovernance",
      "outputs": [],
      "stateMutability": "nonpayable",
      "type": "function"
    },
    {
      "inputs": [
        {
          "internalType": "contract IWNat",
          "name": "_newWNat",
          "type": "address"
        }
      ],
      "name": "upgradeWNatContract",
      "outputs": [],
      "stateMutability": "nonpayable",
      "type": "function"
    },
    {
      "inputs": [],
      "name": "wNat",
      "outputs": [
        {
          "internalType": "contract IWNat",
          "name": "",
          "type": "address"
        }
      ],
      "stateMutability": "view",
      "type": "function"
    },
    {
      "inputs": [
        {
          "internalType": "contract IERC20",
          "name": "_token",
          "type": "address"
        },
        {
          "internalType": "uint256",
          "name": "_amount",
          "type": "uint256"
        },
        {
          "internalType": "address",
          "name": "_recipient",
          "type": "address"
        }
      ],
      "name": "withdrawCollateral",
      "outputs": [],
      "stateMutability": "nonpayable",
      "type": "function"
    },
    {
      "inputs": [
        {
          "internalType": "uint256",
          "name": "_amount",
          "type": "uint256"
        },
        {
          "internalType": "address payable",
          "name": "_recipient",
          "type": "address"
        }
      ],
      "name": "withdrawNat",
      "outputs": [],
      "stateMutability": "nonpayable",
      "type": "function"
    },
    {
      "inputs": [
        {
          "internalType": "uint256",
          "name": "_amount",
          "type": "uint256"
        },
        {
          "internalType": "address",
          "name": "_recipient",
          "type": "address"
        }
      ],
      "name": "withdrawPoolFees",
      "outputs": [],
      "stateMutability": "nonpayable",
      "type": "function"
    },
    {
      "stateMutability": "payable",
      "type": "receive"
    }
  ],
  "bytecode": "0x60a06040523480156200001157600080fd5b506040516200250e3803806200250e8339810160408190526200003491620000ea565b60016000556001600160a01b038116608081905260408051635ad2445360e11b8152905163b5a488a6916004808201926020929091908290030181865afa15801562000084573d6000803e3d6000fd5b505050506040513d601f19601f82011682018060405250810190620000aa9190620000ea565b600380546001600160a01b0319166001600160a01b03929092169190911790555062000111565b6001600160a01b0381168114620000e757600080fd5b50565b600060208284031215620000fd57600080fd5b81516200010a81620000d1565b9392505050565b6080516123716200019d600039600081816103b101528181610509015281816107a401528181610841015281816109b901528181610ac301528181610b4901528181610c5501528181610cdd01528181610dc201528181610e920152818161134e015281816113ca0152818161154f01528181611786015281816118610152611a3801526123716000f3fe6080604052600436106101845760003560e01c80638a30cb8d116100d1578063a6fc49cc1161008a578063d348400c11610064578063d348400c146104c1578063decea1811461046b578063f4d000b2146104c9578063ff0eccf6146104e957600080fd5b8063a6fc49cc1461046b578063c26f3acf14610499578063d1b8890e146104b957600080fd5b80638a30cb8d1461037f57806394217ad11461039f5780639edbf007146103eb578063a0fe8afb1461040b578063a3ea6d1b1461042b578063a5d5db0c1461044b57600080fd5b80632f54bf6e1161013e57806366c473c31161011857806366c473c3146103175780637a68a5081461032a57806386ac57a21461034a57806387a2a0dc1461036a57600080fd5b80632f54bf6e146102a2578063489a8a47146102d75780635eb71cfb146102f757600080fd5b8062f55d9d146101e25780630a4b9ec2146102025780631cc7c5f3146102225780631f1088a01461024257806320f801d4146102625780632772e48b1461028257600080fd5b366101dd57600354600160a01b900460ff166101db5760405162461bcd60e51b8152602060048201526011602482015270696e7465726e616c20757365206f6e6c7960781b60448201526064015b60405180910390fd5b005b600080fd5b3480156101ee57600080fd5b506101db6101fd366004611ea1565b6104fe565b34801561020e57600080fd5b506101db61021d366004611ea1565b610760565b34801561022e57600080fd5b506101db61023d366004611ebe565b61080e565b34801561024e57600080fd5b506101db61025d366004611efe565b610a50565b34801561026e57600080fd5b506101db61027d366004611f40565b610b3e565b34801561028e57600080fd5b506101db61029d366004611ebe565b610bc2565b3480156102ae57600080fd5b506102c26102bd366004611ea1565b610cb5565b60405190151581526020015b60405180910390f35b3480156102e357600080fd5b506101db6102f2366004611f81565b610d50565b34801561030357600080fd5b506101db610312366004611ea1565b610f1b565b6101db61032536600461205a565b610f8f565b34801561033657600080fd5b506101db610345366004611ea1565b611077565b34801561035657600080fd5b506101db610365366004611ea1565b611188565b34801561037657600080fd5b506101db6111e8565b34801561038b57600080fd5b506101db61039a366004611ebe565b6112d8565b3480156103ab57600080fd5b506103d37f000000000000000000000000000000000000000000000000000000000000000081565b6040516001600160a01b0390911681526020016102ce565b3480156103f757600080fd5b506003546103d3906001600160a01b031681565b34801561041757600080fd5b506101db610426366004611f81565b6113bf565b34801561043757600080fd5b506101db610446366004611f40565b611439565b34801561045757600080fd5b506101db610466366004611f81565b611493565b34801561047757600080fd5b5061048b610486366004611efe565b6115b6565b6040519081526020016102ce565b3480156104a557600080fd5b506101db6104b4366004611f40565b611667565b6101db6116fe565b6101db611802565b3480156104d557600080fd5b506101db6104e4366004611ea1565b611856565b3480156104f557600080fd5b506103d3611a20565b336001600160a01b037f000000000000000000000000000000000000000000000000000000000000000016146105465760405162461bcd60e51b81526004016101d2906120d0565b60015460005b8181101561075357600060018281548110610569576105696120fc565b60009182526020808320909101546001600160a01b03168083526002909152604090912054909150600481161561064f57816001600160a01b0316638c2b8ae16040518163ffffffff1660e01b8152600401602060405180830381865afa1580156105d8573d6000803e3d6000fd5b505050506040513d601f19601f820116820180604052508101906105fc9190612112565b6001600160a01b03166392ab89bb6040518163ffffffff1660e01b8152600401600060405180830381600087803b15801561063657600080fd5b505af115801561064a573d6000803e3d6000fd5b505050505b60028116156106ac57816001600160a01b031663b302f3936040518163ffffffff1660e01b8152600401600060405180830381600087803b15801561069357600080fd5b505af11580156106a7573d6000803e3d6000fd5b505050505b600181161561073e576040516370a0823160e01b81523060048201526000906001600160a01b038416906370a0823190602401602060405180830381865afa1580156106fc573d6000803e3d6000fd5b505050506040513d601f19601f82011682018060405250810190610720919061212f565b9050801561073c5761073c6001600160a01b0384168783611ab0565b505b5050808061074b90612148565b91505061054c565b50816001600160a01b0316ff5b61076933610cb5565b6107855760405162461bcd60e51b81526004016101d290612171565b604051630525cf6160e11b81526001600160a01b0382811660048301527f00000000000000000000000000000000000000000000000000000000000000001690630a4b9ec290602401600060405180830381600087803b1580156107e857600080fd5b505af11580156107fc573d6000803e3d6000fd5b5050505061080b816001611b02565b50565b61081733610cb5565b6108335760405162461bcd60e51b81526004016101d290612171565b600061083d611a20565b90507f00000000000000000000000000000000000000000000000000000000000000006001600160a01b031663350c35e9826001600160a01b031663cbdf382c6040518163ffffffff1660e01b8152600401602060405180830381865afa1580156108ac573d6000803e3d6000fd5b505050506040513d601f19601f820116820180604052508101906108d09190612112565b6040516001600160e01b031960e084901b1681526001600160a01b03909116600482015260248101869052604401600060405180830381600087803b15801561091857600080fd5b505af115801561092c573d6000803e3d6000fd5b50505050600080826001600160a01b0316632f35eac28660006040518363ffffffff1660e01b8152600401610962929190612195565b60408051808303816000875af1158015610980573d6000803e3d6000fd5b505050506040513d601f19601f820116820180604052508101906109a491906121c7565b915091506109b28483611b8c565b610a4984827f00000000000000000000000000000000000000000000000000000000000000006001600160a01b0316637c7db1a56040518163ffffffff1660e01b8152600401602060405180830381865afa158015610a15573d6000803e3d6000fd5b505050506040513d601f19601f82011682018060405250810190610a399190612112565b6001600160a01b03169190611ab0565b5050505050565b610a5933610cb5565b610a755760405162461bcd60e51b81526004016101d290612171565b60026000541415610a985760405162461bcd60e51b81526004016101d2906121eb565b600260005560405163350c35e960e01b81526001600160a01b038481166004830152602482018490527f0000000000000000000000000000000000000000000000000000000000000000169063350c35e990604401600060405180830381600087803b158015610b0757600080fd5b505af1158015610b1b573d6000803e3d6000fd5b50610b34925050506001600160a01b0384168284611ab0565b5050600160005550565b336001600160a01b037f00000000000000000000000000000000000000000000000000000000000000001614610b865760405162461bcd60e51b81526004016101d2906120d0565b60026000541415610ba95760405162461bcd60e51b81526004016101d2906121eb565b6002600055610b346001600160a01b0384168383611ab0565b610bcb33610cb5565b610be75760405162461bcd60e51b81526004016101d290612171565b610bef611a20565b6001600160a01b0316635e318e07836040518263ffffffff1660e01b8152600401610c1c91815260200190565b600060405180830381600087803b158015610c3657600080fd5b505af1158015610c4a573d6000803e3d6000fd5b50505050610cb181837f00000000000000000000000000000000000000000000000000000000000000006001600160a01b0316637c7db1a56040518163ffffffff1660e01b8152600401602060405180830381865afa158015610a15573d6000803e3d6000fd5b5050565b60405163d6b93a9f60e01b81523060048201526001600160a01b0382811660248301526000917f00000000000000000000000000000000000000000000000000000000000000009091169063d6b93a9f90604401602060405180830381865afa158015610d26573d6000803e3d6000fd5b505050506040513d601f19601f82011682018060405250810190610d4a9190612222565b92915050565b610d5933610cb5565b610d755760405162461bcd60e51b81526004016101d290612171565b60026000541415610d985760405162461bcd60e51b81526004016101d2906121eb565b600260005560405163464f54bb60e11b81523060048201526001600160a01b0383811660248301527f00000000000000000000000000000000000000000000000000000000000000001690638c9ea97690604401602060405180830381865afa158015610e09573d6000803e3d6000fd5b505050506040513d601f19601f82011682018060405250810190610e2d9190612222565b15610e7a5760405162461bcd60e51b815260206004820152601a60248201527f6f6e6c79206e6f6e2d636f6c6c61746572616c20746f6b656e7300000000000060448201526064016101d2565b604051636e61164f60e01b81523060048201526000907f00000000000000000000000000000000000000000000000000000000000000006001600160a01b031690636e61164f906024016040805180830381865afa158015610ee0573d6000803e3d6000fd5b505050506040513d601f19601f82011682018060405250810190610f049190612244565b509050610b346001600160a01b0384168284611ab0565b610f2433610cb5565b610f405760405162461bcd60e51b81526004016101d290612171565b806001600160a01b031663b302f3936040518163ffffffff1660e01b8152600401600060405180830381600087803b158015610f7b57600080fd5b505af1158015610a49573d6000803e3d6000fd5b610f9833610cb5565b610fb45760405162461bcd60e51b81526004016101d290612171565b604051632446712560e21b81526001600160a01b03841690639119c494903490610fe2908690600401612273565b6000604051808303818588803b158015610ffb57600080fd5b505af115801561100f573d6000803e3d6000fd5b505060405163d2a4ac6160e01b81526001600160a01b038716935063d2a4ac61925061104091508490600401612273565b600060405180830381600087803b15801561105a57600080fd5b505af115801561106e573d6000803e3d6000fd5b50505050505050565b61108033610cb5565b61109c5760405162461bcd60e51b81526004016101d290612171565b600360009054906101000a90046001600160a01b03166001600160a01b0316638c2b8ae16040518163ffffffff1660e01b8152600401602060405180830381865afa1580156110ef573d6000803e3d6000fd5b505050506040513d601f19601f820116820180604052508101906111139190612112565b6040516317066a5760e21b81526001600160a01b0383811660048301529190911690635c19a95c90602401600060405180830381600087803b15801561115857600080fd5b505af115801561116c573d6000803e3d6000fd5b505060035461080b92506001600160a01b031690506004611b02565b61119133610cb5565b6111ad5760405162461bcd60e51b81526004016101d290612171565b806001600160a01b031663f2a1f7676040518163ffffffff1660e01b8152600401600060405180830381600087803b158015610f7b57600080fd5b6111f133610cb5565b61120d5760405162461bcd60e51b81526004016101d290612171565b600360009054906101000a90046001600160a01b03166001600160a01b0316638c2b8ae16040518163ffffffff1660e01b8152600401602060405180830381865afa158015611260573d6000803e3d6000fd5b505050506040513d601f19601f820116820180604052508101906112849190612112565b6001600160a01b03166392ab89bb6040518163ffffffff1660e01b8152600401600060405180830381600087803b1580156112be57600080fd5b505af11580156112d2573d6000803e3d6000fd5b50505050565b6112e133610cb5565b6112fd5760405162461bcd60e51b81526004016101d290612171565b600260005414156113205760405162461bcd60e51b81526004016101d2906121eb565b600260005560035460405163350c35e960e01b81526001600160a01b039182166004820152602481018490527f00000000000000000000000000000000000000000000000000000000000000009091169063350c35e990604401600060405180830381600087803b15801561139457600080fd5b505af11580156113a8573d6000803e3d6000fd5b505050506113b68183611b8c565b50506001600055565b336001600160a01b037f000000000000000000000000000000000000000000000000000000000000000016146114075760405162461bcd60e51b81526004016101d2906120d0565b6002600054141561142a5760405162461bcd60e51b81526004016101d2906121eb565b60026000556113b68282611b8c565b61144233610cb5565b61145e5760405162461bcd60e51b81526004016101d290612171565b60405163177adf7f60e31b81526001600160a01b0383811660048301526024820183905284169063bbd6fbf890604401611040565b61149c33610cb5565b6114b85760405162461bcd60e51b81526004016101d290612171565b6040516323b872dd60e01b8152336004820152306024820152604481018290526001600160a01b038316906323b872dd906064016020604051808303816000875af115801561150b573d6000803e3d6000fd5b505050506040513d601f19601f8201168201806040525081019061152f9190612222565b50604051630525cf6160e11b81526001600160a01b0383811660048301527f00000000000000000000000000000000000000000000000000000000000000001690630a4b9ec290602401600060405180830381600087803b15801561159357600080fd5b505af11580156115a7573d6000803e3d6000fd5b50505050610cb1826001611b02565b60006115c133610cb5565b6115dd5760405162461bcd60e51b81526004016101d290612171565b60405163596090c960e11b81523060048201526001600160a01b038381166024830152604482018590526000606483015285169063b2c12192906084016020604051808303816000875af1158015611639573d6000803e3d6000fd5b505050506040513d601f19601f8201168201806040525081019061165d919061212f565b90505b9392505050565b61167033610cb5565b61168c5760405162461bcd60e51b81526004016101d290612171565b60405163026e402b60e01b81526001600160a01b0383811660048301526024820183905284169063026e402b90604401600060405180830381600087803b1580156116d657600080fd5b505af11580156116ea573d6000803e3d6000fd5b505050506116f9836002611b02565b505050565b600360009054906101000a90046001600160a01b03166001600160a01b031663d0e30db0346040518263ffffffff1660e01b81526004016000604051808303818588803b15801561174e57600080fd5b505af1158015611762573d6000803e3d6000fd5b5050600354604051630525cf6160e11b81526001600160a01b0391821660048201527f00000000000000000000000000000000000000000000000000000000000000009091169350630a4b9ec292506024019050600060405180830381600087803b1580156117d057600080fd5b505af11580156117e4573d6000803e3d6000fd5b505060035461180092506001600160a01b031690506001611b02565b565b61180a611a20565b60405163ac3736c160e01b815260006004820181905260248201526001600160a01b03919091169063ac3736c19034906044016000604051808303818588803b158015610f7b57600080fd5b336001600160a01b037f0000000000000000000000000000000000000000000000000000000000000000161461189e5760405162461bcd60e51b81526004016101d2906120d0565b6003546001600160a01b03828116911614156118b75750565b6003546040516370a0823160e01b81523060048201526000916001600160a01b0316906370a0823190602401602060405180830381865afa158015611900573d6000803e3d6000fd5b505050506040513d601f19601f82011682018060405250810190611924919061212f565b60038054600160a01b60ff60a01b19821617909155604051632e1a7d4d60e01b8152600481018390529192506001600160a01b031690632e1a7d4d90602401600060405180830381600087803b15801561197d57600080fd5b505af1158015611991573d6000803e3d6000fd5b50506003805460ff60a01b19169055505060408051630d0e30db60e41b815290516001600160a01b0384169163d0e30db091849160048082019260009290919082900301818588803b1580156119e657600080fd5b505af11580156119fa573d6000803e3d6000fd5b5050600380546001600160a01b0387166001600160a01b03199091161790555050505050565b60405163292979d160e11b81523060048201526000907f00000000000000000000000000000000000000000000000000000000000000006001600160a01b031690635252f3a290602401602060405180830381865afa158015611a87573d6000803e3d6000fd5b505050506040513d601f19601f82011682018060405250810190611aab9190612112565b905090565b604080516001600160a01b038416602482015260448082018490528251808303909101815260649091019091526020810180516001600160e01b031663a9059cbb60e01b1790526116f9908490611c14565b6001600160a01b038216600090815260026020526040902054611b6a576001805480820182556000919091527fb10e2d527612073b26eecdfd717e6a320cf44b4afac2b0732d9fcbe2b7fa0cf60180546001600160a01b0319166001600160a01b0384161790555b6001600160a01b03909116600090815260026020526040902080549091179055565b60038054600160a01b60ff60a01b19821617909155604051632e1a7d4d60e01b8152600481018390526001600160a01b0390911690632e1a7d4d90602401600060405180830381600087803b158015611be457600080fd5b505af1158015611bf8573d6000803e3d6000fd5b50506003805460ff60a01b1916905550610cb190508282611ce6565b6000611c69826040518060400160405280602081526020017f5361666545524332303a206c6f772d6c6576656c2063616c6c206661696c6564815250856001600160a01b0316611d819092919063ffffffff16565b8051909150156116f95780806020019051810190611c879190612222565b6116f95760405162461bcd60e51b815260206004820152602a60248201527f5361666545524332303a204552433230206f7065726174696f6e20646964206e6044820152691bdd081cdd58d8d9595960b21b60648201526084016101d2565b8015610cb1576000826001600160a01b03168260405160006040518083038185875af1925050503d8060008114611d39576040519150601f19603f3d011682016040523d82523d6000602084013e611d3e565b606091505b50509050806116f95760405162461bcd60e51b815260206004820152600f60248201526e1d1c985b9cd9995c8819985a5b1959608a1b60448201526064016101d2565b606061165d848460008585843b611dda5760405162461bcd60e51b815260206004820152601d60248201527f416464726573733a2063616c6c20746f206e6f6e2d636f6e747261637400000060448201526064016101d2565b600080866001600160a01b03168587604051611df691906122ec565b60006040518083038185875af1925050503d8060008114611e33576040519150601f19603f3d011682016040523d82523d6000602084013e611e38565b606091505b5091509150611e48828286611e53565b979650505050505050565b60608315611e62575081611660565b825115611e725782518084602001fd5b8160405162461bcd60e51b81526004016101d29190612308565b6001600160a01b038116811461080b57600080fd5b600060208284031215611eb357600080fd5b813561166081611e8c565b60008060408385031215611ed157600080fd5b823591506020830135611ee381611e8c565b809150509250929050565b8035611ef981611e8c565b919050565b600080600060608486031215611f1357600080fd5b8335611f1e81611e8c565b9250602084013591506040840135611f3581611e8c565b809150509250925092565b600080600060608486031215611f5557600080fd5b8335611f6081611e8c565b92506020840135611f7081611e8c565b929592945050506040919091013590565b60008060408385031215611f9457600080fd5b8235611f9f81611e8c565b946020939093013593505050565b634e487b7160e01b600052604160045260246000fd5b600082601f830112611fd457600080fd5b8135602067ffffffffffffffff80831115611ff157611ff1611fad565b8260051b604051601f19603f8301168101818110848211171561201657612016611fad565b60405293845285810183019383810192508785111561203457600080fd5b83870191505b84821015611e485761204b82611eee565b8352918301919083019061203a565b60008060006060848603121561206f57600080fd5b833561207a81611e8c565b9250602084013567ffffffffffffffff8082111561209757600080fd5b6120a387838801611fc3565b935060408601359150808211156120b957600080fd5b506120c686828701611fc3565b9150509250925092565b60208082526012908201527137b7363c9030b9b9b2ba1036b0b730b3b2b960711b604082015260600190565b634e487b7160e01b600052603260045260246000fd5b60006020828403121561212457600080fd5b815161166081611e8c565b60006020828403121561214157600080fd5b5051919050565b600060001982141561216a57634e487b7160e01b600052601160045260246000fd5b5060010190565b6020808252600a908201526937b7363c9037bbb732b960b11b604082015260600190565b82815260408101600383106121ba57634e487b7160e01b600052602160045260246000fd5b8260208301529392505050565b600080604083850312156121da57600080fd5b505080516020909101519092909150565b6020808252601f908201527f5265656e7472616e637947756172643a207265656e7472616e742063616c6c00604082015260600190565b60006020828403121561223457600080fd5b8151801515811461166057600080fd5b6000806040838503121561225757600080fd5b825161226281611e8c565b6020840151909250611ee381611e8c565b6020808252825182820181905260009190848201906040850190845b818110156122b45783516001600160a01b03168352928401929184019160010161228f565b50909695505050505050565b60005b838110156122db5781810151838201526020016122c3565b838111156112d25750506000910152565b600082516122fe8184602087016122c0565b9190910192915050565b60208152600082518060208401526123278160408501602087016122c0565b601f01601f1916919091016040019291505056fea2646970667358221220dbe7962968110e4f91926227cada9c9de08bacc37de4b0a79991bcf706c3b04b64736f6c634300080b0033",
  "linkReferences": {},
  "deployedLinkReferences": {}
}