{
  "_format": "hh-sol-artifact-1",
  "contractName": "AgentVaultFactory",
  "sourceName": "contracts/fasset/implementation/AgentVaultFactory.sol",
  "abi": [
    {
      "inputs": [
        {
          "internalType": "contract IIAssetManager",
          "name": "_assetManager",
          "type": "address"
        }
      ],
      "name": "create",
      "outputs": [
        {
          "internalType": "contract IIAgentVault",
          "name": "",
          "type": "address"
        }
      ],
      "stateMutability": "nonpayable",
      "type": "function"
    },
    {
      "inputs": [
        {
          "internalType": "bytes4",
          "name": "_interfaceId",
          "type": "bytes4"
        }
      ],
      "name": "supportsInterface",
      "outputs": [
        {
          "internalType": "bool",
          "name": "",
          "type": "bool"
        }
      ],
      "stateMutability": "pure",
      "type": "function"
    }
  ],
  "bytecode": "0x608060405234801561001057600080fd5b506120a7806100206000396000f3fe608060405234801561001057600080fd5b50600436106100365760003560e01c806301ffc9a71461003b5780639ed9331814610063575b600080fd5b61004e610049366004610114565b61008e565b60405190151581526020015b60405180910390f35b610076610071366004610145565b6100c5565b6040516001600160a01b03909116815260200161005a565b60006001600160e01b031982166301ffc9a760e01b14806100bf57506001600160e01b031982166313db266360e31b145b92915050565b6000816040516100d490610107565b6001600160a01b039091168152602001604051809103906000f080158015610100573d6000803e3d6000fd5b5092915050565b611f038061016f83390190565b60006020828403121561012657600080fd5b81356001600160e01b03198116811461013e57600080fd5b9392505050565b60006020828403121561015757600080fd5b81356001600160a01b038116811461013e57600080fdfe60a060405234801561001057600080fd5b50604051611f03380380611f0383398101604081905261002f91610040565b6001600160a01b0316608052610070565b60006020828403121561005257600080fd5b81516001600160a01b038116811461006957600080fd5b9392505050565b608051611e166100ed60003960008181610374015281816104840152818161077d0152818161090e01528181610afe01528181610b9601528181610c8201528181610d0601528181610dc501528181610e9501528181610fbc01528181611082015281816111380152818161137301526115b00152611e166000f3fe6080604052600436106101435760003560e01c8063677fa232116100b6578063a5d5db0c1161006f578063a5d5db0c146103ee578063a6fc49cc1461040e578063c26f3acf1461043c578063d348400c1461045c578063decea1811461040e578063ff0eccf61461046457600080fd5b8063677fa2321461030f5780637a7da0041461032257806386ac57a21461034257806394217ad11461036257806397c9c8f8146103ae578063a3ea6d1b146103ce57600080fd5b806320f801d41161010857806320f801d41461024f5780632772e48b1461026f5780632f54bf6e1461028f578063489a8a47146102af5780635eb71cfb146102cf578063648d0878146102ef57600080fd5b8062f55d9d1461019a57806301ffc9a7146101ba5780631cc7c5f3146101ef5780631d75e42a1461020f5780631f1088a01461022f57600080fd5b366101955760025460ff166101935760405162461bcd60e51b8152602060048201526011602482015270696e7465726e616c20757365206f6e6c7960781b60448201526064015b60405180910390fd5b005b600080fd5b3480156101a657600080fd5b506101936101b5366004611ade565b610479565b3480156101c657600080fd5b506101da6101d5366004611b02565b6106f0565b60405190151581526020015b60405180910390f35b3480156101fb57600080fd5b5061019361020a366004611b2c565b610742565b34801561021b57600080fd5b5061019361022a366004611b5c565b6109bc565b34801561023b57600080fd5b5061019361024a366004611b8a565b610aab565b34801561025b57600080fd5b5061019361026a366004611bcc565b610b8b565b34801561027b57600080fd5b5061019361028a366004611b2c565b610bef565b34801561029b57600080fd5b506101da6102aa366004611ade565b610cde565b3480156102bb57600080fd5b506101936102ca366004611c0d565b610d73565b3480156102db57600080fd5b506101936102ea366004611ade565b610f36565b3480156102fb57600080fd5b5061019361030a366004611bcc565b610fb1565b61019361031d366004611ade565b61100c565b34801561032e57600080fd5b5061019361033d366004611ade565b6110ee565b34801561034e57600080fd5b5061019361035d366004611ade565b611167565b34801561036e57600080fd5b506103967f000000000000000000000000000000000000000000000000000000000000000081565b6040516001600160a01b0390911681526020016101e6565b3480156103ba57600080fd5b506101936103c9366004611ade565b6111c7565b3480156103da57600080fd5b506101936103e9366004611bcc565b611288565b3480156103fa57600080fd5b50610193610409366004611c0d565b611314565b34801561041a57600080fd5b5061042e610429366004611b8a565b6113da565b6040519081526020016101e6565b34801561044857600080fd5b50610193610457366004611bcc565b611489565b61019361151b565b34801561047057600080fd5b50610396611598565b336001600160a01b037f000000000000000000000000000000000000000000000000000000000000000016146104c15760405162461bcd60e51b815260040161018a90611c39565b6104c9611628565b60008054905b818110156106ca5760008082815481106104eb576104eb611c65565b60009182526020808320909101546001600160a01b0316808352600190915260409091205490915060048116156105d157816001600160a01b0316638c2b8ae16040518163ffffffff1660e01b8152600401602060405180830381865afa15801561055a573d6000803e3d6000fd5b505050506040513d601f19601f8201168201806040525081019061057e9190611c7b565b6001600160a01b03166392ab89bb6040518163ffffffff1660e01b8152600401600060405180830381600087803b1580156105b857600080fd5b505af11580156105cc573d6000803e3d6000fd5b505050505b600281161561062e57816001600160a01b031663b302f3936040518163ffffffff1660e01b8152600401600060405180830381600087803b15801561061557600080fd5b505af1158015610629573d6000803e3d6000fd5b505050505b60018116156106c0576040516370a0823160e01b81523060048201526000906001600160a01b038416906370a0823190602401602060405180830381865afa15801561067e573d6000803e3d6000fd5b505050506040513d601f19601f820116820180604052508101906106a29190611c98565b905080156106be576106be6001600160a01b038416878361168f565b505b50506001016104cf565b506106d582476116f2565b506106ed6001600080516020611dc183398151915255565b50565b60006001600160e01b031982166301ffc9a760e01b148061072157506001600160e01b0319821663d4c10c7f60e01b145b8061073c57506001600160e01b031982166326228cef60e21b145b92915050565b61074b33610cde565b6107675760405162461bcd60e51b815260040161018a90611cb1565b61076f611628565b6000610779611598565b90507f00000000000000000000000000000000000000000000000000000000000000006001600160a01b031663469052ad826001600160a01b031663cbdf382c6040518163ffffffff1660e01b8152600401602060405180830381865afa1580156107e8573d6000803e3d6000fd5b505050506040513d601f19601f8201168201806040525081019061080c9190611c7b565b6040516001600160e01b031960e084901b1681526001600160a01b03909116600482015260248101869052604401600060405180830381600087803b15801561085457600080fd5b505af1158015610868573d6000803e3d6000fd5b50506002805460ff19166001179055505060405163179af56160e11b815260009081906001600160a01b03841690632f35eac2906108ac9088908590600401611cd5565b60408051808303816000875af11580156108ca573d6000803e3d6000fd5b505050506040513d601f19601f820116820180604052508101906108ee9190611d07565b6002805460ff19169055909250905061090784836116f2565b61099e84827f00000000000000000000000000000000000000000000000000000000000000006001600160a01b0316637c7db1a56040518163ffffffff1660e01b8152600401602060405180830381865afa15801561096a573d6000803e3d6000fd5b505050506040513d601f19601f8201168201806040525081019061098e9190611c7b565b6001600160a01b0316919061168f565b5050506109b86001600080516020611dc183398151915255565b5050565b6109c533610cde565b6109e15760405162461bcd60e51b815260040161018a90611cb1565b816001600160a01b0316638c2b8ae16040518163ffffffff1660e01b8152600401602060405180830381865afa158015610a1f573d6000803e3d6000fd5b505050506040513d601f19601f82011682018060405250810190610a439190611c7b565b6040516317066a5760e21b81526001600160a01b0383811660048301529190911690635c19a95c90602401600060405180830381600087803b158015610a8857600080fd5b505af1158015610a9c573d6000803e3d6000fd5b505050506109b882600461178d565b610ab433610cde565b610ad05760405162461bcd60e51b815260040161018a90611cb1565b610ad8611628565b60405163469052ad60e01b81526001600160a01b038481166004830152602482018490527f0000000000000000000000000000000000000000000000000000000000000000169063469052ad90604401600060405180830381600087803b158015610b4257600080fd5b505af1158015610b56573d6000803e3d6000fd5b50610b6f925050506001600160a01b038416828461168f565b610b866001600080516020611dc183398151915255565b505050565b336001600160a01b037f00000000000000000000000000000000000000000000000000000000000000001614610bd35760405162461bcd60e51b815260040161018a90611c39565b610bdb611628565b610b6f6001600160a01b038416838361168f565b610bf833610cde565b610c145760405162461bcd60e51b815260040161018a90611cb1565b610c1c611598565b6001600160a01b0316635e318e07836040518263ffffffff1660e01b8152600401610c4991815260200190565b600060405180830381600087803b158015610c6357600080fd5b505af1158015610c77573d6000803e3d6000fd5b505050506109b881837f00000000000000000000000000000000000000000000000000000000000000006001600160a01b0316637c7db1a56040518163ffffffff1660e01b8152600401602060405180830381865afa15801561096a573d6000803e3d6000fd5b60405163d6b93a9f60e01b81523060048201526001600160a01b0382811660248301526000917f00000000000000000000000000000000000000000000000000000000000000009091169063d6b93a9f90604401602060405180830381865afa158015610d4f573d6000803e3d6000fd5b505050506040513d601f19601f8201168201806040525081019061073c9190611d2b565b610d7c33610cde565b610d985760405162461bcd60e51b815260040161018a90611cb1565b610da0611628565b60405163700104f760e01b81523060048201526001600160a01b0383811660248301527f0000000000000000000000000000000000000000000000000000000000000000169063700104f790604401602060405180830381865afa158015610e0c573d6000803e3d6000fd5b505050506040513d601f19601f82011682018060405250810190610e309190611d2b565b15610e7d5760405162461bcd60e51b815260206004820152601a60248201527f6f6e6c79206e6f6e2d636f6c6c61746572616c20746f6b656e73000000000000604482015260640161018a565b604051636e61164f60e01b81523060048201526000907f00000000000000000000000000000000000000000000000000000000000000006001600160a01b031690636e61164f90602401602060405180830381865afa158015610ee4573d6000803e3d6000fd5b505050506040513d601f19601f82011682018060405250810190610f089190611c7b565b9050610f1e6001600160a01b038416828461168f565b506109b86001600080516020611dc183398151915255565b610f3f33610cde565b610f5b5760405162461bcd60e51b815260040161018a90611cb1565b806001600160a01b031663b302f3936040518163ffffffff1660e01b8152600401600060405180830381600087803b158015610f9657600080fd5b505af1158015610faa573d6000803e3d6000fd5b5050505050565b336001600160a01b037f00000000000000000000000000000000000000000000000000000000000000001614610ff95760405162461bcd60e51b815260040161018a90611c39565b611001611628565b610b6f838383611817565b806001600160a01b031663d0e30db0346040518263ffffffff1660e01b81526004016000604051808303818588803b15801561104757600080fd5b505af115801561105b573d6000803e3d6000fd5b505060405163053fe26160e31b81523060048201526001600160a01b0385811660248301527f00000000000000000000000000000000000000000000000000000000000000001693506329ff1308925060440190505b600060405180830381600087803b1580156110cb57600080fd5b505af11580156110df573d6000803e3d6000fd5b505050506106ed81600161178d565b6110f733610cde565b6111135760405162461bcd60e51b815260040161018a90611cb1565b60405163053fe26160e31b81523060048201526001600160a01b0382811660248301527f000000000000000000000000000000000000000000000000000000000000000016906329ff1308906044016110b1565b61117033610cde565b61118c5760405162461bcd60e51b815260040161018a90611cb1565b806001600160a01b031663f2a1f7676040518163ffffffff1660e01b8152600401600060405180830381600087803b158015610f9657600080fd5b6111d033610cde565b6111ec5760405162461bcd60e51b815260040161018a90611cb1565b806001600160a01b0316638c2b8ae16040518163ffffffff1660e01b8152600401602060405180830381865afa15801561122a573d6000803e3d6000fd5b505050506040513d601f19601f8201168201806040525081019061124e9190611c7b565b6001600160a01b03166392ab89bb6040518163ffffffff1660e01b8152600401600060405180830381600087803b158015610f9657600080fd5b61129133610cde565b6112ad5760405162461bcd60e51b815260040161018a90611cb1565b60405163177adf7f60e31b81526001600160a01b0383811660048301526024820183905284169063bbd6fbf890604401600060405180830381600087803b1580156112f757600080fd5b505af115801561130b573d6000803e3d6000fd5b50505050505050565b61131d33610cde565b6113395760405162461bcd60e51b815260040161018a90611cb1565b61134e6001600160a01b038316333084611893565b60405163053fe26160e31b81523060048201526001600160a01b0383811660248301527f000000000000000000000000000000000000000000000000000000000000000016906329ff130890604401600060405180830381600087803b1580156113b757600080fd5b505af11580156113cb573d6000803e3d6000fd5b505050506109b882600161178d565b60006113e533610cde565b6114015760405162461bcd60e51b815260040161018a90611cb1565b60405163596090c960e11b81523060048201526001600160a01b038381166024830152604482018590526000606483015285169063b2c12192906084016020604051808303816000875af115801561145d573d6000803e3d6000fd5b505050506040513d601f19601f820116820180604052508101906114819190611c98565b949350505050565b61149233610cde565b6114ae5760405162461bcd60e51b815260040161018a90611cb1565b60405163026e402b60e01b81526001600160a01b0383811660048301526024820183905284169063026e402b90604401600060405180830381600087803b1580156114f857600080fd5b505af115801561150c573d6000803e3d6000fd5b50505050610b8683600261178d565b611523611598565b60405163ac3736c160e01b815260006004820181905260248201526001600160a01b03919091169063ac3736c1903490604401604080518083038185885af1158015611573573d6000803e3d6000fd5b50505050506040513d601f19601f820116820180604052508101906109b89190611d07565b60405163292979d160e11b81523060048201526000907f00000000000000000000000000000000000000000000000000000000000000006001600160a01b031690635252f3a290602401602060405180830381865afa1580156115ff573d6000803e3d6000fd5b505050506040513d601f19601f820116820180604052508101906116239190611c7b565b905090565b600080516020611dc18339815191528054600119016116895760405162461bcd60e51b815260206004820152601f60248201527f5265656e7472616e637947756172643a207265656e7472616e742063616c6c00604482015260640161018a565b60029055565b6040516001600160a01b038316602482015260448101829052610b8690849063a9059cbb60e01b906064015b60408051601f198184030181529190526020810180516001600160e01b03166001600160e01b0319909316929092179091526118d1565b80156109b8576000826001600160a01b03168260405160006040518083038185875af1925050503d8060008114611745576040519150601f19603f3d011682016040523d82523d6000602084013e61174a565b606091505b5050905080610b865760405162461bcd60e51b815260206004820152600f60248201526e1d1c985b9cd9995c8819985a5b1959608a1b604482015260640161018a565b6001600160a01b03821660009081526001602052604081205490036117f557600080546001810182559080527f290decd9548b62a8d60345a988386fc84ba6bc95484008f6362f93160ef3e5630180546001600160a01b0319166001600160a01b0384161790555b6001600160a01b03909116600090815260016020526040902080549091179055565b6002805460ff19166001179055604051632e1a7d4d60e01b8152600481018290526001600160a01b03841690632e1a7d4d90602401600060405180830381600087803b15801561186657600080fd5b505af115801561187a573d6000803e3d6000fd5b50506002805460ff1916905550610b86905082826116f2565b6040516001600160a01b03808516602483015283166044820152606481018290526118cb9085906323b872dd60e01b906084016116bb565b50505050565b6000611926826040518060400160405280602081526020017f5361666545524332303a206c6f772d6c6576656c2063616c6c206661696c6564815250856001600160a01b03166119a69092919063ffffffff16565b90508051600014806119475750808060200190518101906119479190611d2b565b610b865760405162461bcd60e51b815260206004820152602a60248201527f5361666545524332303a204552433230206f7065726174696f6e20646964206e6044820152691bdd081cdd58d8d9595960b21b606482015260840161018a565b6060611481848460008585600080866001600160a01b031685876040516119cd9190611d71565b60006040518083038185875af1925050503d8060008114611a0a576040519150601f19603f3d011682016040523d82523d6000602084013e611a0f565b606091505b5091509150611a2087838387611a2b565b979650505050505050565b60608315611a9a578251600003611a93576001600160a01b0385163b611a935760405162461bcd60e51b815260206004820152601d60248201527f416464726573733a2063616c6c20746f206e6f6e2d636f6e7472616374000000604482015260640161018a565b5081611481565b6114818383815115611aaf5781518083602001fd5b8060405162461bcd60e51b815260040161018a9190611d8d565b6001600160a01b03811681146106ed57600080fd5b600060208284031215611af057600080fd5b8135611afb81611ac9565b9392505050565b600060208284031215611b1457600080fd5b81356001600160e01b031981168114611afb57600080fd5b60008060408385031215611b3f57600080fd5b823591506020830135611b5181611ac9565b809150509250929050565b60008060408385031215611b6f57600080fd5b8235611b7a81611ac9565b91506020830135611b5181611ac9565b600080600060608486031215611b9f57600080fd5b8335611baa81611ac9565b9250602084013591506040840135611bc181611ac9565b809150509250925092565b600080600060608486031215611be157600080fd5b8335611bec81611ac9565b92506020840135611bfc81611ac9565b929592945050506040919091013590565b60008060408385031215611c2057600080fd5b8235611c2b81611ac9565b946020939093013593505050565b60208082526012908201527137b7363c9030b9b9b2ba1036b0b730b3b2b960711b604082015260600190565b634e487b7160e01b600052603260045260246000fd5b600060208284031215611c8d57600080fd5b8151611afb81611ac9565b600060208284031215611caa57600080fd5b5051919050565b6020808252600a908201526937b7363c9037bbb732b960b11b604082015260600190565b8281526040810160038310611cfa57634e487b7160e01b600052602160045260246000fd5b8260208301529392505050565b60008060408385031215611d1a57600080fd5b505080516020909101519092909150565b600060208284031215611d3d57600080fd5b81518015158114611afb57600080fd5b60005b83811015611d68578181015183820152602001611d50565b50506000910152565b60008251611d83818460208701611d4d565b9190910192915050565b6020815260008251806020840152611dac816040850160208701611d4d565b601f01601f1916919091016040019291505056fe0cd2207518cd3e5213e2c6dbe63d55b60aa893c194a427b7d7f1600408fd5bdea2646970667358221220192fc89d0cee5e7e682b4b5a3f1d17484bc1062e55e4e07936743f0da1424cba64736f6c63430008170033a26469706673582212205dcf419b55e28b5fb65ec9424ae7667c9c0c1dad106a250297b3117e88cd1bbb64736f6c63430008170033",
  "linkReferences": {},
  "deployedLinkReferences": {}
}