{
  "_format": "hh-sol-artifact-1",
  "contractName": "FlashLender",
  "sourceName": "liquidator/contracts/ecosystem/FlashLender.sol",
  "abi": [
    {
      "inputs": [
        {
          "internalType": "contract IERC20",
          "name": "_token",
          "type": "address"
        }
      ],
      "stateMutability": "nonpayable",
      "type": "constructor"
    },
    {
      "inputs": [
        {
          "internalType": "uint256",
          "name": "maxLoan",
          "type": "uint256"
        }
      ],
      "name": "ERC3156ExceededMaxLoan",
      "type": "error"
    },
    {
      "inputs": [
        {
          "internalType": "address",
          "name": "receiver",
          "type": "address"
        }
      ],
      "name": "ERC3156InvalidReceiver",
      "type": "error"
    },
    {
      "anonymous": false,
      "inputs": [
        {
          "indexed": true,
          "internalType": "address",
          "name": "previousOwner",
          "type": "address"
        },
        {
          "indexed": true,
          "internalType": "address",
          "name": "newOwner",
          "type": "address"
        }
      ],
      "name": "OwnershipTransferred",
      "type": "event"
    },
    {
      "inputs": [
        {
          "internalType": "address",
          "name": "_token",
          "type": "address"
        },
        {
          "internalType": "uint256",
          "name": "",
          "type": "uint256"
        }
      ],
      "name": "flashFee",
      "outputs": [
        {
          "internalType": "uint256",
          "name": "",
          "type": "uint256"
        }
      ],
      "stateMutability": "view",
      "type": "function"
    },
    {
      "inputs": [
        {
          "internalType": "address",
          "name": "_token",
          "type": "address"
        }
      ],
      "name": "flashFeeReceiver",
      "outputs": [
        {
          "internalType": "address",
          "name": "",
          "type": "address"
        }
      ],
      "stateMutability": "view",
      "type": "function"
    },
    {
      "inputs": [
        {
          "internalType": "contract IERC3156FlashBorrower",
          "name": "_receiver",
          "type": "address"
        },
        {
          "internalType": "address",
          "name": "_token",
          "type": "address"
        },
        {
          "internalType": "uint256",
          "name": "_amount",
          "type": "uint256"
        },
        {
          "internalType": "bytes",
          "name": "_data",
          "type": "bytes"
        }
      ],
      "name": "flashLoan",
      "outputs": [
        {
          "internalType": "bool",
          "name": "",
          "type": "bool"
        }
      ],
      "stateMutability": "nonpayable",
      "type": "function"
    },
    {
      "inputs": [
        {
          "internalType": "address",
          "name": "_token",
          "type": "address"
        }
      ],
      "name": "maxFlashLoan",
      "outputs": [
        {
          "internalType": "uint256",
          "name": "",
          "type": "uint256"
        }
      ],
      "stateMutability": "view",
      "type": "function"
    },
    {
      "inputs": [],
      "name": "owner",
      "outputs": [
        {
          "internalType": "address",
          "name": "",
          "type": "address"
        }
      ],
      "stateMutability": "view",
      "type": "function"
    },
    {
      "inputs": [],
      "name": "renounceOwnership",
      "outputs": [],
      "stateMutability": "nonpayable",
      "type": "function"
    },
    {
      "inputs": [
        {
          "internalType": "address",
          "name": "newOwner",
          "type": "address"
        }
      ],
      "name": "transferOwnership",
      "outputs": [],
      "stateMutability": "nonpayable",
      "type": "function"
    },
    {
      "inputs": [],
      "name": "withdraw",
      "outputs": [],
      "stateMutability": "nonpayable",
      "type": "function"
    }
  ],
  "bytecode": "0x60a060405234801561001057600080fd5b50604051610f15380380610f1583398101604081905261002f91610099565b61003833610049565b6001600160a01b03166080526100c9565b600080546001600160a01b038381166001600160a01b0319831681178455604051919092169283917f8be0079c531659141344cd1fd0a4f28419497f9722a3daafe3b4186f6b6457e09190a35050565b6000602082840312156100ab57600080fd5b81516001600160a01b03811681146100c257600080fd5b9392505050565b608051610e006101156000396000818161019a015281816102bf015281816103830152818161061b0152818161077a015281816109b701528181610a7c0152610aff0152610e006000f3fe608060405234801561001057600080fd5b50600436106100885760003560e01c8063715018a61161005b578063715018a6146101185780638da5cb5b14610120578063d9d98ce41461013e578063f2fde38b1461015157600080fd5b80633ccfd60b1461008d57806357ec3040146100975780635cffe9de146100d4578063613255ab146100f7575b600080fd5b610095610164565b005b6100aa6100a5366004610c09565b6102bb565b60405173ffffffffffffffffffffffffffffffffffffffff90911681526020015b60405180910390f35b6100e76100e2366004610c2d565b61037f565b60405190151581526020016100cb565b61010a610105366004610c09565b610617565b6040519081526020016100cb565b610095610762565b60005473ffffffffffffffffffffffffffffffffffffffff166100aa565b61010a61014c366004610ccc565b610776565b61009561015f366004610c09565b610836565b61016c6108ea565b6040517f70a082310000000000000000000000000000000000000000000000000000000081523060048201527f000000000000000000000000000000000000000000000000000000000000000073ffffffffffffffffffffffffffffffffffffffff169063a9059cbb90339083906370a0823190602401602060405180830381865afa158015610200573d6000803e3d6000fd5b505050506040513d601f19601f820116820180604052508101906102249190610cf8565b6040517fffffffff0000000000000000000000000000000000000000000000000000000060e085901b16815273ffffffffffffffffffffffffffffffffffffffff909216600483015260248201526044016020604051808303816000875af1158015610294573d6000803e3d6000fd5b505050506040513d601f19601f820116820180604052508101906102b89190610d11565b50565b60007f000000000000000000000000000000000000000000000000000000000000000073ffffffffffffffffffffffffffffffffffffffff168273ffffffffffffffffffffffffffffffffffffffff1614610377576040517f08c379a000000000000000000000000000000000000000000000000000000000815260206004820152601a60248201527f466c6173684c656e6465723a20696e76616c696420746f6b656e00000000000060448201526064015b60405180910390fd5b506000919050565b60007f000000000000000000000000000000000000000000000000000000000000000073ffffffffffffffffffffffffffffffffffffffff168573ffffffffffffffffffffffffffffffffffffffff1614610436576040517f08c379a000000000000000000000000000000000000000000000000000000000815260206004820152601a60248201527f466c6173684c656e6465723a20696e76616c696420746f6b656e000000000000604482015260640161036e565b600061044186610617565b905080851115610480576040517ffd9a76090000000000000000000000000000000000000000000000000000000081526004810182905260240161036e565b600061048c8787610776565b9050610498888761096b565b6040517f23e30c8b0000000000000000000000000000000000000000000000000000000081527f439148f0bbc682ca079e46d6e2c2f0c1e3b820f1a291b069d8882abf8cf18dd99073ffffffffffffffffffffffffffffffffffffffff8a16906323e30c8b906105169033908c908c9088908d908d90600401610d33565b6020604051808303816000875af1158015610535573d6000803e3d6000fd5b505050506040513d601f19601f820116820180604052508101906105599190610cf8565b146105a8576040517f678c5b0000000000000000000000000000000000000000000000000000000000815273ffffffffffffffffffffffffffffffffffffffff8916600482015260240161036e565b60006105b3886102bb565b90508115806105d6575073ffffffffffffffffffffffffffffffffffffffff8116155b156105f3576105ee896105e9848a610db9565b610a2a565b610608565b6105fd8988610a2a565b610608898284610aab565b50600198975050505050505050565b60007f000000000000000000000000000000000000000000000000000000000000000073ffffffffffffffffffffffffffffffffffffffff168273ffffffffffffffffffffffffffffffffffffffff16146106ce576040517f08c379a000000000000000000000000000000000000000000000000000000000815260206004820152601a60248201527f466c6173684c656e6465723a20696e76616c696420746f6b656e000000000000604482015260640161036e565b6040517f70a0823100000000000000000000000000000000000000000000000000000000815230600482015273ffffffffffffffffffffffffffffffffffffffff8316906370a0823190602401602060405180830381865afa158015610738573d6000803e3d6000fd5b505050506040513d601f19601f8201168201806040525081019061075c9190610cf8565b92915050565b61076a6108ea565b6107746000610b72565b565b60007f000000000000000000000000000000000000000000000000000000000000000073ffffffffffffffffffffffffffffffffffffffff168373ffffffffffffffffffffffffffffffffffffffff161461082d576040517f08c379a000000000000000000000000000000000000000000000000000000000815260206004820152601a60248201527f466c6173684c656e6465723a20696e76616c696420746f6b656e000000000000604482015260640161036e565b50600092915050565b61083e6108ea565b73ffffffffffffffffffffffffffffffffffffffff81166108e1576040517f08c379a000000000000000000000000000000000000000000000000000000000815260206004820152602660248201527f4f776e61626c653a206e6577206f776e657220697320746865207a65726f206160448201527f6464726573730000000000000000000000000000000000000000000000000000606482015260840161036e565b6102b881610b72565b60005473ffffffffffffffffffffffffffffffffffffffff163314610774576040517f08c379a000000000000000000000000000000000000000000000000000000000815260206004820181905260248201527f4f776e61626c653a2063616c6c6572206973206e6f7420746865206f776e6572604482015260640161036e565b6040517fa9059cbb00000000000000000000000000000000000000000000000000000000815273ffffffffffffffffffffffffffffffffffffffff8381166004830152602482018390527f0000000000000000000000000000000000000000000000000000000000000000169063a9059cbb906044015b6020604051808303816000875af1158015610a01573d6000803e3d6000fd5b505050506040513d601f19601f82011682018060405250810190610a259190610d11565b505050565b6040517f23b872dd00000000000000000000000000000000000000000000000000000000815273ffffffffffffffffffffffffffffffffffffffff8381166004830152306024830152604482018390527f000000000000000000000000000000000000000000000000000000000000000016906323b872dd906064016109e2565b6040517f23b872dd00000000000000000000000000000000000000000000000000000000815273ffffffffffffffffffffffffffffffffffffffff84811660048301528381166024830152604482018390527f000000000000000000000000000000000000000000000000000000000000000016906323b872dd906064016020604051808303816000875af1158015610b48573d6000803e3d6000fd5b505050506040513d601f19601f82011682018060405250810190610b6c9190610d11565b50505050565b6000805473ffffffffffffffffffffffffffffffffffffffff8381167fffffffffffffffffffffffff0000000000000000000000000000000000000000831681178455604051919092169283917f8be0079c531659141344cd1fd0a4f28419497f9722a3daafe3b4186f6b6457e09190a35050565b73ffffffffffffffffffffffffffffffffffffffff811681146102b857600080fd5b600060208284031215610c1b57600080fd5b8135610c2681610be7565b9392505050565b600080600080600060808688031215610c4557600080fd5b8535610c5081610be7565b94506020860135610c6081610be7565b935060408601359250606086013567ffffffffffffffff80821115610c8457600080fd5b818801915088601f830112610c9857600080fd5b813581811115610ca757600080fd5b896020828501011115610cb957600080fd5b9699959850939650602001949392505050565b60008060408385031215610cdf57600080fd5b8235610cea81610be7565b946020939093013593505050565b600060208284031215610d0a57600080fd5b5051919050565b600060208284031215610d2357600080fd5b81518015158114610c2657600080fd5b600073ffffffffffffffffffffffffffffffffffffffff808916835280881660208401525085604083015284606083015260a060808301528260a0830152828460c0840137600060c0848401015260c07fffffffffffffffffffffffffffffffffffffffffffffffffffffffffffffffe0601f8501168301019050979650505050505050565b8082018082111561075c577f4e487b7100000000000000000000000000000000000000000000000000000000600052601160045260246000fdfea164736f6c6343000814000a",
  "linkReferences": {},
  "deployedLinkReferences": {}
}