{
  "_format": "hh-sol-artifact-1",
  "contractName": "FtsoV2PriceStoreMock",
  "sourceName": "contracts/assetManager/mock/FtsoV2PriceStoreMock.sol",
  "abi": [
    {
      "inputs": [
        {
          "internalType": "contract IGovernanceSettings",
          "name": "_governanceSettings",
          "type": "address"
        },
        {
          "internalType": "address",
          "name": "_initialGovernance",
          "type": "address"
        },
        {
          "internalType": "address",
          "name": "_addressUpdater",
          "type": "address"
        },
        {
          "internalType": "uint64",
          "name": "_firstVotingRoundStartTs",
          "type": "uint64"
        },
        {
          "internalType": "uint8",
          "name": "_votingEpochDurationSeconds",
          "type": "uint8"
        },
        {
          "internalType": "uint8",
          "name": "_ftsoProtocolId",
          "type": "uint8"
        }
      ],
      "stateMutability": "nonpayable",
      "type": "constructor"
    },
    {
      "anonymous": false,
      "inputs": [
        {
          "indexed": false,
          "internalType": "bytes",
          "name": "encodedCall",
          "type": "bytes"
        },
        {
          "indexed": false,
          "internalType": "bytes32",
          "name": "encodedCallHash",
          "type": "bytes32"
        },
        {
          "indexed": false,
          "internalType": "uint256",
          "name": "allowedAfterTimestamp",
          "type": "uint256"
        }
      ],
      "name": "GovernanceCallTimelocked",
      "type": "event"
    },
    {
      "anonymous": false,
      "inputs": [
        {
          "indexed": false,
          "internalType": "address",
          "name": "initialGovernance",
          "type": "address"
        }
      ],
      "name": "GovernanceInitialised",
      "type": "event"
    },
    {
      "anonymous": false,
      "inputs": [
        {
          "indexed": false,
          "internalType": "address",
          "name": "governanceSettings",
          "type": "address"
        }
      ],
      "name": "GovernedProductionModeEntered",
      "type": "event"
    },
    {
      "anonymous": false,
      "inputs": [
        {
          "indexed": true,
          "internalType": "uint32",
          "name": "votingRoundId",
          "type": "uint32"
        }
      ],
      "name": "PricesPublished",
      "type": "event"
    },
    {
      "anonymous": false,
      "inputs": [
        {
          "indexed": false,
          "internalType": "bytes32",
          "name": "encodedCallHash",
          "type": "bytes32"
        }
      ],
      "name": "TimelockedGovernanceCallCanceled",
      "type": "event"
    },
    {
      "anonymous": false,
      "inputs": [
        {
          "indexed": false,
          "internalType": "bytes32",
          "name": "encodedCallHash",
          "type": "bytes32"
        }
      ],
      "name": "TimelockedGovernanceCallExecuted",
      "type": "event"
    },
    {
      "inputs": [
        {
          "internalType": "bytes",
          "name": "_encodedCall",
          "type": "bytes"
        }
      ],
      "name": "cancelGovernanceCall",
      "outputs": [],
      "stateMutability": "nonpayable",
      "type": "function"
    },
    {
      "inputs": [
        {
          "internalType": "bytes",
          "name": "_encodedCall",
          "type": "bytes"
        }
      ],
      "name": "executeGovernanceCall",
      "outputs": [],
      "stateMutability": "nonpayable",
      "type": "function"
    },
    {
      "inputs": [],
      "name": "finalizePrices",
      "outputs": [],
      "stateMutability": "nonpayable",
      "type": "function"
    },
    {
      "inputs": [],
      "name": "firstVotingRoundStartTs",
      "outputs": [
        {
          "internalType": "uint64",
          "name": "",
          "type": "uint64"
        }
      ],
      "stateMutability": "view",
      "type": "function"
    },
    {
      "inputs": [],
      "name": "ftsoProtocolId",
      "outputs": [
        {
          "internalType": "uint8",
          "name": "",
          "type": "uint8"
        }
      ],
      "stateMutability": "view",
      "type": "function"
    },
    {
      "inputs": [],
      "name": "getAddressUpdater",
      "outputs": [
        {
          "internalType": "address",
          "name": "_addressUpdater",
          "type": "address"
        }
      ],
      "stateMutability": "view",
      "type": "function"
    },
    {
      "inputs": [
        {
          "internalType": "string",
          "name": "_symbol",
          "type": "string"
        }
      ],
      "name": "getFeedId",
      "outputs": [
        {
          "internalType": "bytes21",
          "name": "",
          "type": "bytes21"
        }
      ],
      "stateMutability": "view",
      "type": "function"
    },
    {
      "inputs": [],
      "name": "getFeedIds",
      "outputs": [
        {
          "internalType": "bytes21[]",
          "name": "",
          "type": "bytes21[]"
        }
      ],
      "stateMutability": "view",
      "type": "function"
    },
    {
      "inputs": [],
      "name": "getFeedIdsWithDecimals",
      "outputs": [
        {
          "internalType": "bytes21[]",
          "name": "_feedIds",
          "type": "bytes21[]"
        },
        {
          "internalType": "int8[]",
          "name": "_decimals",
          "type": "int8[]"
        }
      ],
      "stateMutability": "view",
      "type": "function"
    },
    {
      "inputs": [
        {
          "internalType": "string",
          "name": "_symbol",
          "type": "string"
        }
      ],
      "name": "getPrice",
      "outputs": [
        {
          "internalType": "uint256",
          "name": "_price",
          "type": "uint256"
        },
        {
          "internalType": "uint256",
          "name": "_timestamp",
          "type": "uint256"
        },
        {
          "internalType": "uint256",
          "name": "_priceDecimals",
          "type": "uint256"
        }
      ],
      "stateMutability": "view",
      "type": "function"
    },
    {
      "inputs": [
        {
          "internalType": "string",
          "name": "_symbol",
          "type": "string"
        }
      ],
      "name": "getPriceFromTrustedProviders",
      "outputs": [
        {
          "internalType": "uint256",
          "name": "_price",
          "type": "uint256"
        },
        {
          "internalType": "uint256",
          "name": "_timestamp",
          "type": "uint256"
        },
        {
          "internalType": "uint256",
          "name": "_priceDecimals",
          "type": "uint256"
        }
      ],
      "stateMutability": "view",
      "type": "function"
    },
    {
      "inputs": [
        {
          "internalType": "string",
          "name": "_symbol",
          "type": "string"
        }
      ],
      "name": "getPriceFromTrustedProvidersWithQuality",
      "outputs": [
        {
          "internalType": "uint256",
          "name": "_price",
          "type": "uint256"
        },
        {
          "internalType": "uint256",
          "name": "_timestamp",
          "type": "uint256"
        },
        {
          "internalType": "uint256",
          "name": "_priceDecimals",
          "type": "uint256"
        },
        {
          "internalType": "uint8",
          "name": "_numberOfSubmits",
          "type": "uint8"
        }
      ],
      "stateMutability": "view",
      "type": "function"
    },
    {
      "inputs": [],
      "name": "getSymbols",
      "outputs": [
        {
          "internalType": "string[]",
          "name": "_symbols",
          "type": "string[]"
        }
      ],
      "stateMutability": "view",
      "type": "function"
    },
    {
      "inputs": [],
      "name": "getTrustedProviders",
      "outputs": [
        {
          "internalType": "address[]",
          "name": "",
          "type": "address[]"
        }
      ],
      "stateMutability": "view",
      "type": "function"
    },
    {
      "inputs": [],
      "name": "governance",
      "outputs": [
        {
          "internalType": "address",
          "name": "",
          "type": "address"
        }
      ],
      "stateMutability": "view",
      "type": "function"
    },
    {
      "inputs": [],
      "name": "governanceSettings",
      "outputs": [
        {
          "internalType": "contract IGovernanceSettings",
          "name": "",
          "type": "address"
        }
      ],
      "stateMutability": "view",
      "type": "function"
    },
    {
      "inputs": [
        {
          "internalType": "contract IGovernanceSettings",
          "name": "_governanceSettings",
          "type": "address"
        },
        {
          "internalType": "address",
          "name": "_initialGovernance",
          "type": "address"
        }
      ],
      "name": "initialise",
      "outputs": [],
      "stateMutability": "nonpayable",
      "type": "function"
    },
    {
      "inputs": [
        {
          "internalType": "address",
          "name": "_address",
          "type": "address"
        }
      ],
      "name": "isExecutor",
      "outputs": [
        {
          "internalType": "bool",
          "name": "",
          "type": "bool"
        }
      ],
      "stateMutability": "view",
      "type": "function"
    },
    {
      "inputs": [],
      "name": "lastPublishedVotingRoundId",
      "outputs": [
        {
          "internalType": "uint32",
          "name": "",
          "type": "uint32"
        }
      ],
      "stateMutability": "view",
      "type": "function"
    },
    {
      "inputs": [],
      "name": "maxSpreadBIPS",
      "outputs": [
        {
          "internalType": "uint16",
          "name": "",
          "type": "uint16"
        }
      ],
      "stateMutability": "view",
      "type": "function"
    },
    {
      "inputs": [],
      "name": "productionMode",
      "outputs": [
        {
          "internalType": "bool",
          "name": "",
          "type": "bool"
        }
      ],
      "stateMutability": "view",
      "type": "function"
    },
    {
      "inputs": [
        {
          "components": [
            {
              "internalType": "bytes32[]",
              "name": "proof",
              "type": "bytes32[]"
            },
            {
              "components": [
                {
                  "internalType": "uint32",
                  "name": "votingRoundId",
                  "type": "uint32"
                },
                {
                  "internalType": "bytes21",
                  "name": "id",
                  "type": "bytes21"
                },
                {
                  "internalType": "int32",
                  "name": "value",
                  "type": "int32"
                },
                {
                  "internalType": "uint16",
                  "name": "turnoutBIPS",
                  "type": "uint16"
                },
                {
                  "internalType": "int8",
                  "name": "decimals",
                  "type": "int8"
                }
              ],
              "internalType": "struct IPricePublisher.Feed",
              "name": "body",
              "type": "tuple"
            }
          ],
          "internalType": "struct IPricePublisher.FeedWithProof[]",
          "name": "_proofs",
          "type": "tuple[]"
        }
      ],
      "name": "publishPrices",
      "outputs": [],
      "stateMutability": "nonpayable",
      "type": "function"
    },
    {
      "inputs": [],
      "name": "relay",
      "outputs": [
        {
          "internalType": "contract IRelay",
          "name": "",
          "type": "address"
        }
      ],
      "stateMutability": "view",
      "type": "function"
    },
    {
      "inputs": [
        {
          "internalType": "string",
          "name": "_symbol",
          "type": "string"
        },
        {
          "internalType": "uint256",
          "name": "_price",
          "type": "uint256"
        },
        {
          "internalType": "uint256",
          "name": "_ageSeconds",
          "type": "uint256"
        }
      ],
      "name": "setCurrentPrice",
      "outputs": [],
      "stateMutability": "nonpayable",
      "type": "function"
    },
    {
      "inputs": [
        {
          "internalType": "string",
          "name": "_symbol",
          "type": "string"
        },
        {
          "internalType": "uint256",
          "name": "_price",
          "type": "uint256"
        },
        {
          "internalType": "uint256",
          "name": "_ageSeconds",
          "type": "uint256"
        }
      ],
      "name": "setCurrentPriceFromTrustedProviders",
      "outputs": [],
      "stateMutability": "nonpayable",
      "type": "function"
    },
    {
      "inputs": [
        {
          "internalType": "string",
          "name": "_symbol",
          "type": "string"
        },
        {
          "internalType": "int8",
          "name": "_decimals",
          "type": "int8"
        }
      ],
      "name": "setDecimals",
      "outputs": [],
      "stateMutability": "nonpayable",
      "type": "function"
    },
    {
      "inputs": [
        {
          "internalType": "address[]",
          "name": "_trustedProviders",
          "type": "address[]"
        },
        {
          "internalType": "uint8",
          "name": "_trustedProvidersThreshold",
          "type": "uint8"
        }
      ],
      "name": "setTrustedProviders",
      "outputs": [],
      "stateMutability": "nonpayable",
      "type": "function"
    },
    {
      "inputs": [
        {
          "internalType": "uint32",
          "name": "_votingRoundId",
          "type": "uint32"
        },
        {
          "components": [
            {
              "internalType": "bytes21",
              "name": "id",
              "type": "bytes21"
            },
            {
              "internalType": "uint32",
              "name": "value",
              "type": "uint32"
            },
            {
              "internalType": "int8",
              "name": "decimals",
              "type": "int8"
            }
          ],
          "internalType": "struct IPricePublisher.TrustedProviderFeed[]",
          "name": "_feeds",
          "type": "tuple[]"
        }
      ],
      "name": "submitTrustedPrices",
      "outputs": [],
      "stateMutability": "nonpayable",
      "type": "function"
    },
    {
      "inputs": [],
      "name": "submitTrustedPricesWindowSeconds",
      "outputs": [
        {
          "internalType": "uint64",
          "name": "",
          "type": "uint64"
        }
      ],
      "stateMutability": "view",
      "type": "function"
    },
    {
      "inputs": [
        {
          "internalType": "bytes4",
          "name": "_interfaceId",
          "type": "bytes4"
        }
      ],
      "name": "supportsInterface",
      "outputs": [
        {
          "internalType": "bool",
          "name": "",
          "type": "bool"
        }
      ],
      "stateMutability": "pure",
      "type": "function"
    },
    {
      "inputs": [],
      "name": "switchToProductionMode",
      "outputs": [],
      "stateMutability": "nonpayable",
      "type": "function"
    },
    {
      "inputs": [],
      "name": "trustedProvidersThreshold",
      "outputs": [
        {
          "internalType": "uint8",
          "name": "",
          "type": "uint8"
        }
      ],
      "stateMutability": "view",
      "type": "function"
    },
    {
      "inputs": [
        {
          "internalType": "bytes32[]",
          "name": "_contractNameHashes",
          "type": "bytes32[]"
        },
        {
          "internalType": "address[]",
          "name": "_contractAddresses",
          "type": "address[]"
        }
      ],
      "name": "updateContractAddresses",
      "outputs": [],
      "stateMutability": "nonpayable",
      "type": "function"
    },
    {
      "inputs": [
        {
          "internalType": "bytes21[]",
          "name": "_feedIds",
          "type": "bytes21[]"
        },
        {
          "internalType": "string[]",
          "name": "_symbols",
          "type": "string[]"
        },
        {
          "internalType": "int8[]",
          "name": "_trustedDecimals",
          "type": "int8[]"
        },
        {
          "internalType": "uint16",
          "name": "_maxSpreadBIPS",
          "type": "uint16"
        }
      ],
      "name": "updateSettings",
      "outputs": [],
      "stateMutability": "nonpayable",
      "type": "function"
    },
    {
      "inputs": [],
      "name": "votingEpochDurationSeconds",
      "outputs": [
        {
          "internalType": "uint64",
          "name": "",
          "type": "uint64"
        }
      ],
      "stateMutability": "view",
      "type": "function"
    }
  ],
  "bytecode": "0x6101006040523480156200001257600080fd5b5060405162004434380380620044348339810160408190526200003591620003a3565b8585858585858386866200004a828262000198565b50620000769050817f714f205b2abd25bef1d06a1af944e38c113fe6160375c4e1d6d5cf28848e771955565b50426200008760ff84168562000450565b6001600160401b03161115620000d95760405162461bcd60e51b8152602060048201526012602482015271696e76616c69642073746172742074696d6560701b60448201526064015b60405180910390fd5b60018260ff16116200012e5760405162461bcd60e51b815260206004820152601f60248201527f766f74696e672065706f6368206475726174696f6e20746f6f2073686f7274006044820152606401620000d0565b6001600160401b03831660805260ff821660a0526200014f60028362000490565b60ff90811660c052811660e052620001666200032d565b600860176101000a81548163ffffffff021916908363ffffffff16021790555050505050505050505050505062000508565b7f2aa47ee5db910f3b2a06970c443249cc77dbd9f96100cfebc1775ab7fb1d18248054600160a01b900460ff1615620002145760405162461bcd60e51b815260206004820152601460248201527f696e697469616c6973656420213d2066616c73650000000000000000000000006044820152606401620000d0565b6001600160a01b0383166200026c5760405162461bcd60e51b815260206004820152601860248201527f676f7665726e616e63652073657474696e6773207a65726f00000000000000006044820152606401620000d0565b6001600160a01b038216620002b75760405162461bcd60e51b815260206004820152601060248201526f5f676f7665726e616e6365207a65726f60801b6044820152606401620000d0565b80546001600160a01b038481166001600160a81b031990921691909117600160a01b1782556001820180549184166001600160a01b0319909216821790556040519081527f9789733827840833afc031fb2ef9ab6894271f77bad2085687cf4ae5c7bee4db9060200160405180910390a1505050565b6000600160a0516001600160401b03166080516001600160401b031642620003569190620004b5565b620003629190620004d1565b6200036e9190620004e8565b905090565b6001600160a01b03811681146200038957600080fd5b50565b805160ff811681146200039e57600080fd5b919050565b60008060008060008060c08789031215620003bd57600080fd5b8651620003ca8162000373565b6020880151909650620003dd8162000373565b6040880151909550620003f08162000373565b60608801519094506001600160401b03811681146200040e57600080fd5b92506200041e608088016200038c565b91506200042e60a088016200038c565b90509295509295509295565b634e487b7160e01b600052601160045260246000fd5b6001600160401b038181168382160190808211156200047357620004736200043a565b5092915050565b634e487b7160e01b600052601260045260246000fd5b600060ff831680620004a657620004a66200047a565b8060ff84160491505092915050565b81810381811115620004cb57620004cb6200043a565b92915050565b600082620004e357620004e36200047a565b500490565b63ffffffff8281168282160390808211156200047357620004736200043a565b60805160a05160c05160e051613eb3620005816000396000818161041101526116cd0152600081816103ea0152818161145f0152611d170152600081816103590152818161261c015281816126ee015261276601526000818161059b0152818161265f0152818161271801526127900152613eb36000f3fe608060405234801561001057600080fd5b50600436106102115760003560e01c80639a2bc19a11610125578063df7f710e116100ad578063e731a1bc1161007c578063e731a1bc14610560578063e8d0e70a14610596578063ef88bf13146105bd578063f5a98383146105d0578063f78b7568146105d857600080fd5b8063df7f710e14610506578063e05372ff1461051b578063e17f212e1461052e578063e4a0a55b1461054d57600080fd5b8063b44cd1ba116100f4578063b44cd1ba1461048b578063b59589d1146104b1578063c88987dc146104cb578063cea648a5146104e0578063debfda30146104f357600080fd5b80639a2bc19a14610445578063a036aa4714610458578063a83bf08d14610465578063b00c0b761461047857600080fd5b8063524f3889116101a85780635aa6e675116101775780635aa6e6751461039357806362354e031461039b5780636512bf1d146103b957806367776a2b146103e55780636c2b111f1461040c57600080fd5b8063524f3889146102bf5780635267a15d146102ed5780635a07ad13146103285780635a8320881461035457600080fd5b806320c5f99d116101e457806320c5f99d1461027e5780632ba265ed1461029157806337e4bfc31461029957806343abc2aa146102ac57600080fd5b806301ffc9a7146102165780630c518dce1461023e57806316fc2f6d1461025357806319f6e80714610268575b600080fd5b610229610224366004612e9e565b6105eb565b60405190151581526020015b60405180910390f35b61024661063d565b6040516102359190612f0e565b610266610261366004612f21565b6106a3565b005b61027061078b565b604051610235929190612f92565b61026661028c366004612f21565b6108cb565b610266610aba565b6102666102a7366004613038565b610ae7565b6102666102ba366004613160565b610c94565b6102d26102cd3660046131ad565b610ce0565b60408051938452602084019290925290820152606001610235565b7f714f205b2abd25bef1d06a1af944e38c113fe6160375c4e1d6d5cf28848e7719545b6040516001600160a01b039091168152602001610235565b60085461033f90600160b81b900463ffffffff1681565b60405163ffffffff9091168152602001610235565b61037b7f000000000000000000000000000000000000000000000000000000000000000081565b6040516001600160401b039091168152602001610235565b610310610db8565b600080516020613e5e833981519152546001600160a01b0316610310565b6103cc6103c73660046131ad565b610e61565b6040516001600160581b03199091168152602001610235565b61037b7f000000000000000000000000000000000000000000000000000000000000000081565b6104337f000000000000000000000000000000000000000000000000000000000000000081565b60405160ff9091168152602001610235565b6102666104533660046131e9565b610e8c565b6008546104339060ff1681565b610266610473366004613248565b610f16565b6102666104863660046133a2565b611220565b60085461049e90610100900461ffff1681565b60405161ffff9091168152602001610235565b60085461031090630100000090046001600160a01b031681565b6104d36112ff565b604051610235919061345a565b6102666104ee3660046134a7565b611360565b6102296105013660046134e8565b611a00565b61050e611a9a565b6040516102359190613555565b6102666105293660046135cd565b611beb565b600080516020613e5e83398151915254600160a81b900460ff16610229565b6102d261055b3660046131ad565b611fcb565b61057361056e3660046131ad565b61204e565b6040805194855260208501939093529183015260ff166060820152608001610235565b61037b7f000000000000000000000000000000000000000000000000000000000000000081565b6102666105cb366004613652565b6120e0565b610266612254565b6102666105e63660046131e9565b612328565b60006001600160e01b031982166301ffc9a760e01b148061061c57506001600160e01b031982166328ef1e3760e11b145b8061063757506001600160e01b0319821663126d859760e21b145b92915050565b6060600080548060200260200160405190810160405280929190818152602001828054801561069957602002820191906000526020600020905b815460581b6001600160581b0319168152600190910190602001808311610677575b5050505050905090565b6106ab612396565b604051600080516020613e5e833981519152906000906106ce908590859061368b565b60405180910390209050816002016000828152602001908152602001600020546000036107425760405162461bcd60e51b815260206004820152601a60248201527f74696d656c6f636b3a20696e76616c69642073656c6563746f7200000000000060448201526064015b60405180910390fd5b6040518181527f69b058d6225c01c1f2a25801ca5b05705fa2e9118e93d518390ba804398c87b19060200160405180910390a16000908152600290910160205260408120555050565b60608060008054806020026020016040519081016040528092919081815260200182805480156107e857602002820191906000526020600020905b815460581b6001600160581b03191681526001909101906020018083116107c6575b5050505050915081516001600160401b0381111561080857610808613094565b604051908082528060200260200182016040528015610831578160200160208202803683370190505b50905060005b82518110156108c657600360008483815181106108565761085661369b565b60200260200101516affffffffffffffffffffff19166affffffffffffffffffffff1916815260200190815260200160002060000160119054906101000a900460000b8282815181106108ab576108ab61369b565b60009290920b60209283029190910190910152600101610837565b509091565b600080516020613e5e8339815191526108e333611a00565b61091f5760405162461bcd60e51b815260206004820152600d60248201526c37b7363c9032bc32b1baba37b960991b6044820152606401610739565b6000838360405161093192919061368b565b6040805191829003909120600081815260028501602052918220549092509081900361099f5760405162461bcd60e51b815260206004820152601a60248201527f74696d656c6f636b3a20696e76616c69642073656c6563746f720000000000006044820152606401610739565b804210156109ef5760405162461bcd60e51b815260206004820152601960248201527f74696d656c6f636b3a206e6f7420616c6c6f77656420796574000000000000006044820152606401610739565b6000828152600284016020526040808220829055845460ff60b01b1916600160b01b178555513090610a24908890889061368b565b6000604051808303816000865af19150503d8060008114610a61576040519150601f19603f3d011682016040523d82523d6000602084013e610a66565b606091505b5050845460ff60b01b191685556040518481529091507fec1225e5a8a8acb91e03ce648c683c74f5d152a775b9715980999441d714c44f9060200160405180910390a1610ab2816123f2565b505050505050565b6040516000907f46e3fc5e4e4ccb87b783c134ecaf8dc9e6207f10034ec05f74c24007fcc2e2d1908290a2565b610aef61240f565b15610c8257610afc612445565b6101008210610b4d5760405162461bcd60e51b815260206004820152601a60248201527f746f6f206d616e7920747275737465642070726f7669646572730000000000006044820152606401610739565b60ff8116821015610b955760405162461bcd60e51b81526020600482015260126024820152710e8d0e4cae6d0ded8c840e8dede40d0d2ced60731b6044820152606401610739565b6008805460ff191660ff831617905560005b600654811015610c065760006007600060068481548110610bca57610bca61369b565b6000918252602080832091909101546001600160a01b031683528201929092526040019020805460ff1916911515919091179055600101610ba7565b50610c1360068484612da7565b5060005b82811015610c7c57600160076000868685818110610c3757610c3761369b565b9050602002016020810190610c4c91906134e8565b6001600160a01b031681526020810191909152604001600020805460ff1916911515919091179055600101610c17565b50505050565b610c8f600036600061248c565b505050565b6000610c9f836125a3565b805471ff0000000000000000ff00000000000000001916600160401b60ff9490941693840260ff60881b191617600160881b93909302929092179091555050565b600080600080600185604051610cf691906136b1565b9081526040519081900360200190205460581b90506001600160581b03198116610d325760405162461bcd60e51b8152600401610739906136cd565b6001600160581b031981166000908152600360205260409020805463ffffffff640100000000820481169650610d689116612610565b8154909450600160401b9004600090810b90811215610daa5760009350610d8e81613711565b610d9990600a613811565b610da3908761381d565b9550610dae565b8093505b5050509193909250565b600080516020613e5e833981519152805460009190600160a81b900460ff16610dee5760018101546001600160a01b0316610e5b565b805460408051631cc9492560e21b815290516001600160a01b03909216916373252494916004808201926020929091908290030181865afa158015610e37573d6000803e3d6000fd5b505050506040513d601f19601f82011682018060405250810190610e5b9190613834565b91505090565b6000600182604051610e7391906136b1565b9081526040519081900360200190205460581b92915050565b6000610e97846125a3565b9050610ea283612684565b815463ffffffff919091166401000000000267ffffffff0000000019909116178155610ed6610ed18342613851565b6126e9565b815460ff600160881b63ffffffff9390931663ffffffff19831681179390930416600160401b0268ff00000000ffffffff19909116909117179055505050565b610f1e61240f565b1561120a57610f2b612445565b8584148015610f3957508582145b610f775760405162461bcd60e51b815260206004820152600f60248201526e0d8cadccee8d040dad2e6dac2e8c6d608b1b6044820152606401610739565b6127108161ffff161115610fc25760405162461bcd60e51b81526020600482015260126024820152716d61782073707265616420746f6f2062696760701b6044820152606401610739565b6008805462ffff00191661010061ffff841602179055610fe460008888612e06565b5060005b868110156112045760008888838181106110045761100461369b565b9050602002016020810190611019919061387c565b90508060018888858181106110305761103061369b565b90506020028101906110429190613897565b60405161105092919061368b565b908152604051908190036020019020805460589290921c6001600160a81b031990921691909117905586868381811061108b5761108b61369b565b905060200281019061109d9190613897565b6001600160581b031983166000908152600260205260409020916110c291908361395f565b506001600160581b0319811660009081526003602052604090208585848181106110ee576110ee61369b565b90506020020160208101906111039190613a1f565b8154600160881b9004600090810b91900b146111fa5785858481811061112b5761112b61369b565b90506020020160208101906111409190613a1f565b815471ffffffffffffffffff0000000000000000001916600160881b60ff929092169190910267ffffffffffffffff60481b19161781556008546000906111969063ffffffff600160b81b909104166001613a3a565b90505b6111a1612760565b63ffffffff168163ffffffff16116111f8576001600160581b03198316600090815260046020908152604080832063ffffffff8516845290915281206111e691612e53565b806111f081613a5e565b915050611199565b505b5050600101610fe8565b50611217565b611217600036600061248c565b50505050505050565b7f714f205b2abd25bef1d06a1af944e38c113fe6160375c4e1d6d5cf28848e7719546001600160a01b0316336001600160a01b0316146112995760405162461bcd60e51b815260206004820152601460248201527337b7363c9030b2323932b9b9903ab83230ba32b960611b6044820152606401610739565b6112f16112cd83836040518060400160405280600e81526020016d20b2323932b9b9aab83230ba32b960911b8152506127dc565b7f714f205b2abd25bef1d06a1af944e38c113fe6160375c4e1d6d5cf28848e771955565b6112fb82826128ad565b5050565b6060600680548060200260200160405190810160405280929190818152602001828054801561069957602002820191906000526020600020905b81546001600160a01b03168152600190910190602001808311611339575050505050905090565b6000805482146113ab5760405162461bcd60e51b815260206004820152601660248201527577726f6e67206e756d626572206f662070726f6f667360501b6044820152606401610739565b60005b82811015610c7c57368484838181106113c9576113c961369b565b90506020028101906113db9190613a81565b9050602081016000839003611540576113f76020820182613a97565b60085490945063ffffffff600160b81b90910481169085161161145c5760405162461bcd60e51b815260206004820181905260248201527f286e65776572292070726963657320616c7265616479207075626c69736865646044820152606401610739565b427f00000000000000000000000000000000000000000000000000000000000000006001600160401b03166114968663ffffffff16612610565b6114a09190613ab2565b11156114ee5760405162461bcd60e51b815260206004820181905260248201527f7375626d697373696f6e2077696e646f77206e6f7420636c6f736564207965746044820152606401610739565b6008805463ffffffff60b81b1916600160b81b63ffffffff8716908102919091179091556040517f46e3fc5e4e4ccb87b783c134ecaf8dc9e6207f10034ec05f74c24007fcc2e2d190600090a26115a2565b63ffffffff84166115546020830183613a97565b63ffffffff16146115a25760405162461bcd60e51b81526020600482015260186024820152770ecdee8d2dcce40e4deeadcc840d2c840dad2e6dac2e8c6d60431b6044820152606401610739565b60008084815481106115b6576115b661369b565b6000918252602091829020015460581b91506001600160581b03198216906115e4906040850190850161387c565b6001600160581b0319161461162e5760405162461bcd60e51b815260206004820152601060248201526f0cccacac840d2c840dad2e6dac2e8c6d60831b6044820152606401610739565b60006116406060840160408501613ad7565b60030b12156116915760405162461bcd60e51b815260206004820152601a60248201527f76616c7565206d757374206265206e6f6e2d6e656761746976650000000000006044820152606401610739565b6000826040516020016116a49190613af2565b60408051808303601f190181529082905280516020909101206008546239436b60e81b835260ff7f000000000000000000000000000000000000000000000000000000000000000016600484015263ffffffff8916602484015290925060009163010000009091046001600160a01b0316906339436b0090604401602060405180830381865afa15801561173c573d6000803e3d6000fd5b505050506040513d601f19601f820116820180604052508101906117609190613b65565b905061177a81836117718880613b7e565b909290916128ff565b6117bd5760405162461bcd60e51b81526020600482015260146024820152731b595c9adb19481c1c9bdbd9881a5b9d985b1a5960621b6044820152606401610739565b6001600160581b031983166000908152600360209081526040909120906117e690860186613a97565b815463ffffffff191663ffffffff9190911617815561180b6060860160408701613ad7565b815463ffffffff919091166401000000000267ffffffff000000001990911617815561183d60a0860160808701613a1f565b815460ff91909116600160401b0268ff0000000000000000199091161781556001600160581b03198416600090815260046020908152604080832063ffffffff8c16845290915281208054611891906138dd565b80601f01602080910402602001604051908101604052809291908181526020018280546118bd906138dd565b801561190a5780601f106118df5761010080835404028352916020019161190a565b820191906000526020600020905b8154815290600101906020018083116118ed57829003601f168201915b5050505050905060008151118015611936575060085461192e9060ff166004613bc7565b60ff16815110155b156119ed5760008061194783612917565b9150915080156119b757835463ffffffff838116600160681b0263ffffffff60681b19918e16600160481b029190911667ffffffffffffffff60481b1990921691909117178455825161199c90600490613bf9565b845460ff91909116600160901b0260ff60901b199091161784555b6001600160581b03198716600090815260046020908152604080832063ffffffff8f16845290915281206119ea91612e53565b50505b5050600190950194506113ae9350505050565b600080516020613e5e833981519152805460009190600160a01b900460ff168015611a9357508054604051630debfda360e41b81526001600160a01b0385811660048301529091169063debfda3090602401602060405180830381865afa158015611a6f573d6000803e3d6000fd5b505050506040513d601f19601f82011682018060405250810190611a939190613c0d565b9392505050565b6000546060906001600160401b03811115611ab757611ab7613094565b604051908082528060200260200182016040528015611aea57816020015b6060815260200190600190039081611ad55790505b50905060005b600054811015611be75760026000808381548110611b1057611b1061369b565b60009182526020808320919091015460581b6001600160581b031916835282019290925260400190208054611b44906138dd565b80601f0160208091040260200160405190810160405280929190818152602001828054611b70906138dd565b8015611bbd5780601f10611b9257610100808354040283529160200191611bbd565b820191906000526020600020905b815481529060010190602001808311611ba057829003601f168201915b5050505050828281518110611bd457611bd461369b565b6020908102919091010152600101611af0565b5090565b3360009081526007602052604090205460ff16611c425760405162461bcd60e51b815260206004820152601560248201527437b7363c903a393ab9ba32b210383937bb34b232b960591b6044820152606401610739565b6000548114611c935760405162461bcd60e51b815260206004820152601b60248201527f616c6c20707269636573206d7573742062652070726f766964656400000000006044820152606401610739565b6000611c9d612760565b90508063ffffffff168463ffffffff1614611cf55760405162461bcd60e51b81526020600482015260186024820152770ecdee8d2dcce40e4deeadcc840d2c840dad2e6dac2e8c6d60431b6044820152606401610739565b6000611d068263ffffffff16612610565b90506000611d3d6001600160401b037f00000000000000000000000000000000000000000000000000000000000000001683613ab2565b9050814210158015611d4e57508042105b611d9a5760405162461bcd60e51b815260206004820152601860248201527f7375626d697373696f6e2077696e646f7720636c6f73656400000000000000006044820152606401610739565b3360009081526005602052604090205463ffffffff841611611df25760405162461bcd60e51b8152602060048201526011602482015270185b1c9958591e481cdd589b5a5d1d1959607a1b6044820152606401610739565b33600090815260056020526040812063ffffffff851690555b848110156112175736868683818110611e2657611e2661369b565b90506060020190506000808381548110611e4257611e4261369b565b6000918252602091829020015460581b91506001600160581b0319821690611e6c9084018461387c565b6001600160581b03191614611eb65760405162461bcd60e51b815260206004820152601060248201526f0cccacac840d2c840dad2e6dac2e8c6d60831b6044820152606401610739565b6001600160581b0319811660009081526003602052604080822054600160881b900490910b90611eec9060608501908501613a1f565b60000b14611f305760405162461bcd60e51b81526020600482015260116024820152700c8cac6d2dac2d8e640dad2e6dac2e8c6d607b1b6044820152606401610739565b6001600160581b03198116600090815260046020908152604080832063ffffffff8a16845282529182902091611f6b91908501908501613a97565b60e01b604051602001611f7f929190613c2f565b60408051601f198184030181529181526001600160581b0319831660009081526004602090815282822063ffffffff8b16835290522090611fc09082613cb6565b505050600101611e0b565b600080600080600185604051611fe191906136b1565b9081526040519081900360200190205460581b90506001600160581b0319811661201d5760405162461bcd60e51b8152600401610739906136cd565b6001600160581b03198116600090815260036020526040902061203f81612cc3565b91989097509095509350505050565b600080600080600060018660405161206691906136b1565b9081526040519081900360200190205460581b90506001600160581b031981166120a25760405162461bcd60e51b8152600401610739906136cd565b6001600160581b0319811660009081526003602052604090206120c481612cc3565b92549199909850919650600160901b900460ff16945092505050565b600080516020613e5e8339815191528054600160a01b900460ff161561213f5760405162461bcd60e51b8152602060048201526014602482015273696e697469616c6973656420213d2066616c736560601b6044820152606401610739565b6001600160a01b0383166121955760405162461bcd60e51b815260206004820152601860248201527f676f7665726e616e63652073657474696e6773207a65726f00000000000000006044820152606401610739565b6001600160a01b0382166121de5760405162461bcd60e51b815260206004820152601060248201526f5f676f7665726e616e6365207a65726f60801b6044820152606401610739565b80546001600160a01b038481166001600160a81b031990921691909117600160a01b1782556001820180549184166001600160a01b0319909216821790556040519081527f9789733827840833afc031fb2ef9ab6894271f77bad2085687cf4ae5c7bee4db9060200160405180910390a1505050565b61225c612396565b600080516020613e5e8339815191528054600160a81b900460ff16156122c45760405162461bcd60e51b815260206004820152601a60248201527f616c726561647920696e2070726f64756374696f6e206d6f64650000000000006044820152606401610739565b6001810180546001600160a01b03191690558054600160a81b60ff60a81b1982161782556040516001600160a01b0390911681527f83af113638b5422f9e977cebc0aaf0eaf2188eb9a8baae7f9d46c42b33a1560c9060200160405180910390a150565b6000612333846125a3565b905061233e83612684565b815463ffffffff91909116600160681b0263ffffffff60681b1990911617815561236b610ed18342613851565b815463ffffffff91909116600160481b026cffffffff00000000000000000019909116179055505050565b61239e610db8565b6001600160a01b0316336001600160a01b0316146123f05760405162461bcd60e51b815260206004820152600f60248201526e6f6e6c7920676f7665726e616e636560881b6044820152606401610739565b565b3d604051818101604052816000823e821561240b578181f35b8181fd5b600080516020613e5e833981519152805460009190600160b01b900460ff1680610e5b575054600160a81b900460ff1615919050565b600080516020613e5e8339815191528054600160b01b900460ff16156124815733301461247457612474613d75565b805460ff60b01b19169055565b612489612396565b50565b600080516020613e5e8339815191526124a3612396565b600084846040516124b592919061368b565b604080519182900382208454636221a54b60e01b845291519093506000926001600160a01b0390921691636221a54b9160048083019260209291908290030181865afa158015612509573d6000803e3d6000fd5b505050506040513d601f19601f8201168201806040525081019061252d9190613b65565b90508381101561253a5750825b60006125468242613ab2565b600084815260028601602052604090819020829055519091507f8c02104dfc280f713854f25297de671710c544c58de69dbde8fb66974ce1ab9e90612592908990899087908690613d8b565b60405180910390a150505050505050565b6000806001836040516125b691906136b1565b9081526040519081900360200190205460581b90506001600160581b031981166125f25760405162461bcd60e51b8152600401610739906136cd565b6001600160581b031916600090815260036020526040902092915050565b60006001600160401b037f000000000000000000000000000000000000000000000000000000000000000016612647836001613ab2565b612651919061381d565b610637906001600160401b037f000000000000000000000000000000000000000000000000000000000000000016613ab2565b600063ffffffff821115611be75760405162461bcd60e51b815260206004820152602660248201527f53616665436173743a2076616c756520646f65736e27742066697420696e203360448201526532206269747360d01b6064820152608401610739565b6000807f00000000000000000000000000000000000000000000000000000000000000006001600160401b03167f00000000000000000000000000000000000000000000000000000000000000006001600160401b03168461274b9190613851565b6127559190613bf9565b9050611a9381612684565b600060017f00000000000000000000000000000000000000000000000000000000000000006001600160401b03167f00000000000000000000000000000000000000000000000000000000000000006001600160401b0316426127c39190613851565b6127cd9190613bf9565b6127d79190613dcb565b905090565b600080826040516020016127f09190613de8565b6040516020818303038152906040528051906020012090506000805b865181101561285e578681815181106128275761282761369b565b60200260200101518303612856578581815181106128475761284761369b565b6020026020010151915061285e565b60010161280c565b506001600160a01b0381166128a45760405162461bcd60e51b815260206004820152600c60248201526b61646472657373207a65726f60a01b6044820152606401610739565b95945050505050565b6128d582826040518060400160405280600581526020016452656c617960d81b8152506127dc565b600860036101000a8154816001600160a01b0302191690836001600160a01b031602179055505050565b60008261290d868685612d39565b1495945050505050565b8051600090819080158015906129355750612933600482613dfb565b155b61294157612941613d75565b61294c600482613bf9565b90506000816001600160401b0381111561296857612968613094565b604051908082528060200260200182016040528015612991578160200160208202803683370190505b50905060005b82811015612a685760408051600480825281830190925260009160208201818036833701905050905060005b6004811015612a2f5787816129d985600461381d565b6129e39190613ab2565b815181106129f3576129f361369b565b602001015160f81c60f81b828281518110612a1057612a1061369b565b60200101906001600160f81b031916908160001a9053506001016129c3565b50612a3981613e0f565b60e01c63ffffffff16838381518110612a5457612a5461369b565b602090810291909101015250600101612997565b5060015b82811015612b4a576000828281518110612a8857612a8861369b565b6020026020010151905060008290505b600081118015612aca57508184612ab0600184613851565b81518110612ac057612ac061369b565b6020026020010151115b15612b225783612adb600183613851565b81518110612aeb57612aeb61369b565b6020026020010151848281518110612b0557612b0561369b565b602090810291909101015280612b1a81613e46565b915050612a98565b81848281518110612b3557612b3561369b565b60209081029190910101525050600101612a6c565b50600080612b59600285613bf9565b9050612b66600285613dfb565b600103612bed57828181518110612b7f57612b7f61369b565b6020026020010151955060038410612be85782612b9d600183613851565b81518110612bad57612bad61369b565b602002602001015183826001612bc39190613ab2565b81518110612bd357612bd361369b565b6020026020010151612be59190613851565b91505b612c90565b6002838281518110612c0157612c0161369b565b602002602001015184600184612c179190613851565b81518110612c2757612c2761369b565b6020026020010151612c399190613ab2565b612c439190613bf9565b955082612c51600183613851565b81518110612c6157612c6161369b565b6020026020010151838281518110612c7b57612c7b61369b565b6020026020010151612c8d9190613851565b91505b60085461271090612cab908890610100900461ffff1661381d565b612cb59190613bf9565b821115945050505050915091565b805463ffffffff600160681b82048116916000918291612ceb91600160481b90910416612610565b8454909250600160881b9004600090810b90811215612d2d5760009150612d1181613711565b612d1c90600a613811565b612d26908561381d565b9350612d31565b8091505b509193909250565b600081815b84811015612d7257612d6882878784818110612d5c57612d5c61369b565b90506020020135612d7b565b9150600101612d3e565b50949350505050565b6000818310612d97576000828152602084905260409020611a93565b5060009182526020526040902090565b828054828255906000526020600020908101928215612dfa579160200282015b82811115612dfa5781546001600160a01b0319166001600160a01b03843516178255602090920191600190910190612dc7565b50611be7929150612e89565b828054828255906000526020600020908101928215612dfa579160200282015b82811115612dfa5781546001600160a81b031916833560581c178255602090920191600190910190612e26565b508054612e5f906138dd565b6000825580601f10612e6f575050565b601f01602090049060005260206000209081019061248991905b5b80821115611be75760008155600101612e8a565b600060208284031215612eb057600080fd5b81356001600160e01b031981168114611a9357600080fd5b60008151808452602080850194506020840160005b83811015612f035781516001600160581b03191687529582019590820190600101612edd565b509495945050505050565b602081526000611a936020830184612ec8565b60008060208385031215612f3457600080fd5b82356001600160401b0380821115612f4b57600080fd5b818501915085601f830112612f5f57600080fd5b813581811115612f6e57600080fd5b866020828501011115612f8057600080fd5b60209290920196919550909350505050565b604081526000612fa56040830185612ec8565b8281036020848101919091528451808352858201928201906000805b82811015612fdf578551820b84529484019492840192600101612fc1565b509198975050505050505050565b60008083601f840112612fff57600080fd5b5081356001600160401b0381111561301657600080fd5b6020830191508360208260051b850101111561303157600080fd5b9250929050565b60008060006040848603121561304d57600080fd5b83356001600160401b0381111561306357600080fd5b61306f86828701612fed565b909450925050602084013560ff8116811461308957600080fd5b809150509250925092565b634e487b7160e01b600052604160045260246000fd5b604051601f8201601f191681016001600160401b03811182821017156130d2576130d2613094565b604052919050565b600082601f8301126130eb57600080fd5b81356001600160401b0381111561310457613104613094565b613117601f8201601f19166020016130aa565b81815284602083860101111561312c57600080fd5b816020850160208301376000918101602001919091529392505050565b8035600081900b811461315b57600080fd5b919050565b6000806040838503121561317357600080fd5b82356001600160401b0381111561318957600080fd5b613195858286016130da565b9250506131a460208401613149565b90509250929050565b6000602082840312156131bf57600080fd5b81356001600160401b038111156131d557600080fd5b6131e1848285016130da565b949350505050565b6000806000606084860312156131fe57600080fd5b83356001600160401b0381111561321457600080fd5b613220868287016130da565b9660208601359650604090950135949350505050565b803561ffff8116811461315b57600080fd5b60008060008060008060006080888a03121561326357600080fd5b87356001600160401b038082111561327a57600080fd5b6132868b838c01612fed565b909950975060208a013591508082111561329f57600080fd5b6132ab8b838c01612fed565b909750955060408a01359150808211156132c457600080fd5b506132d18a828b01612fed565b90945092506132e4905060608901613236565b905092959891949750929550565b60006001600160401b0382111561330b5761330b613094565b5060051b60200190565b6001600160a01b038116811461248957600080fd5b600082601f83011261333b57600080fd5b8135602061335061334b836132f2565b6130aa565b8083825260208201915060208460051b87010193508684111561337257600080fd5b602086015b8481101561339757803561338a81613315565b8352918301918301613377565b509695505050505050565b600080604083850312156133b557600080fd5b82356001600160401b03808211156133cc57600080fd5b818501915085601f8301126133e057600080fd5b813560206133f061334b836132f2565b82815260059290921b8401810191818101908984111561340f57600080fd5b948201945b8386101561342d57853582529482019490820190613414565b9650508601359250508082111561344357600080fd5b506134508582860161332a565b9150509250929050565b6020808252825182820181905260009190848201906040850190845b8181101561349b5783516001600160a01b031683529284019291840191600101613476565b50909695505050505050565b600080602083850312156134ba57600080fd5b82356001600160401b038111156134d057600080fd5b6134dc85828601612fed565b90969095509350505050565b6000602082840312156134fa57600080fd5b8135611a9381613315565b60005b83811015613520578181015183820152602001613508565b50506000910152565b60008151808452613541816020860160208601613505565b601f01601f19169290920160200192915050565b600060208083016020845280855180835260408601915060408160051b87010192506020870160005b828110156135ac57603f1988860301845261359a858351613529565b9450928501929085019060010161357e565b5092979650505050505050565b803563ffffffff8116811461315b57600080fd5b6000806000604084860312156135e257600080fd5b6135eb846135b9565b925060208401356001600160401b038082111561360757600080fd5b818601915086601f83011261361b57600080fd5b81358181111561362a57600080fd5b87602060608302850101111561363f57600080fd5b6020830194508093505050509250925092565b6000806040838503121561366557600080fd5b823561367081613315565b9150602083013561368081613315565b809150509250929050565b8183823760009101908152919050565b634e487b7160e01b600052603260045260246000fd5b600082516136c3818460208701613505565b9190910192915050565b6020808252601490820152731cde5b589bdb081b9bdd081cdd5c1c1bdc9d195960621b604082015260600190565b634e487b7160e01b600052601160045260246000fd5b6000600160ff1b8201613726576137266136fb565b5060000390565b600181815b8085111561376857816000190482111561374e5761374e6136fb565b8085161561375b57918102915b93841c9390800290613732565b509250929050565b60008261377f57506001610637565b8161378c57506000610637565b81600181146137a257600281146137ac576137c8565b6001915050610637565b60ff8411156137bd576137bd6136fb565b50506001821b610637565b5060208310610133831016604e8410600b84101617156137eb575081810a610637565b6137f5838361372d565b8060001904821115613809576138096136fb565b029392505050565b6000611a938383613770565b8082028115828204841417610637576106376136fb565b60006020828403121561384657600080fd5b8151611a9381613315565b81810381811115610637576106376136fb565b80356001600160581b03198116811461315b57600080fd5b60006020828403121561388e57600080fd5b611a9382613864565b6000808335601e198436030181126138ae57600080fd5b8301803591506001600160401b038211156138c857600080fd5b60200191503681900382131561303157600080fd5b600181811c908216806138f157607f821691505b60208210810361391157634e487b7160e01b600052602260045260246000fd5b50919050565b601f821115610c8f576000816000526020600020601f850160051c810160208610156139405750805b601f850160051c820191505b81811015610ab25782815560010161394c565b6001600160401b0383111561397657613976613094565b61398a8361398483546138dd565b83613917565b6000601f8411600181146139be57600085156139a65750838201355b600019600387901b1c1916600186901b178355613a18565b600083815260209020601f19861690835b828110156139ef57868501358255602094850194600190920191016139cf565b5086821015613a0c5760001960f88860031b161c19848701351681555b505060018560011b0183555b5050505050565b600060208284031215613a3157600080fd5b611a9382613149565b63ffffffff818116838216019080821115613a5757613a576136fb565b5092915050565b600063ffffffff808316818103613a7757613a776136fb565b6001019392505050565b6000823560be198336030181126136c357600080fd5b600060208284031215613aa957600080fd5b611a93826135b9565b80820180821115610637576106376136fb565b8035600381900b811461315b57600080fd5b600060208284031215613ae957600080fd5b611a9382613ac5565b60a0810163ffffffff613b04846135b9565b1682526001600160581b0319613b1c60208501613864565b166020830152613b2e60408401613ac5565b60030b604083015261ffff613b4560608501613236565b166060830152613b5760808401613149565b60000b608083015292915050565b600060208284031215613b7757600080fd5b5051919050565b6000808335601e19843603018112613b9557600080fd5b8301803591506001600160401b03821115613baf57600080fd5b6020019150600581901b360382131561303157600080fd5b60ff8181168382160290811690818114613a5757613a576136fb565b634e487b7160e01b600052601260045260246000fd5b600082613c0857613c08613be3565b500490565b600060208284031215613c1f57600080fd5b81518015158114611a9357600080fd5b6000808454613c3d816138dd565b60018281168015613c555760018114613c6a57613c99565b60ff1984168752821515830287019450613c99565b8860005260208060002060005b85811015613c905781548a820152908401908201613c77565b50505082870194505b505050506001600160e01b03199390931683525050600401919050565b81516001600160401b03811115613ccf57613ccf613094565b613ce381613cdd84546138dd565b84613917565b602080601f831160018114613d185760008415613d005750858301515b600019600386901b1c1916600185901b178555610ab2565b600085815260208120601f198616915b82811015613d4757888601518255948401946001909101908401613d28565b5085821015613d655787850151600019600388901b60f8161c191681555b5050505050600190811b01905550565b634e487b7160e01b600052600160045260246000fd5b606081528360608201528385608083013760006080858301015260006080601f19601f870116830101905083602083015282604083015295945050505050565b63ffffffff828116828216039080821115613a5757613a576136fb565b602081526000611a936020830184613529565b600082613e0a57613e0a613be3565b500690565b805160208201516001600160e01b03198082169291906004831015613e3e5780818460040360031b1b83161693505b505050919050565b600081613e5557613e556136fb565b50600019019056fe2aa47ee5db910f3b2a06970c443249cc77dbd9f96100cfebc1775ab7fb1d1824a2646970667358221220c43bda8615cf029416f8df07f0c542bf2cd88c79e581b95e2806fbba1093d39864736f6c63430008170033",
  "linkReferences": {},
  "deployedLinkReferences": {}
}