{
  "_format": "hh-sol-artifact-1",
  "contractName": "AgentCollateralFacet",
  "sourceName": "contracts/assetManager/facets/AgentCollateralFacet.sol",
  "abi": [
    {
      "anonymous": false,
      "inputs": [
        {
          "indexed": true,
          "internalType": "address",
          "name": "agentVault",
          "type": "address"
        },
        {
          "indexed": false,
          "internalType": "uint8",
          "name": "collateralClass",
          "type": "uint8"
        },
        {
          "indexed": false,
          "internalType": "address",
          "name": "token",
          "type": "address"
        }
      ],
      "name": "AgentCollateralTypeChanged",
      "type": "event"
    },
    {
      "anonymous": false,
      "inputs": [
        {
          "indexed": true,
          "internalType": "address",
          "name": "agentVault",
          "type": "address"
        }
      ],
      "name": "LiquidationEnded",
      "type": "event"
    },
    {
      "anonymous": false,
      "inputs": [
        {
          "indexed": true,
          "internalType": "address",
          "name": "agentVault",
          "type": "address"
        },
        {
          "indexed": false,
          "internalType": "uint256",
          "name": "amountWei",
          "type": "uint256"
        },
        {
          "indexed": false,
          "internalType": "uint256",
          "name": "withdrawalAllowedAt",
          "type": "uint256"
        }
      ],
      "name": "PoolTokenRedemptionAnnounced",
      "type": "event"
    },
    {
      "anonymous": false,
      "inputs": [
        {
          "indexed": true,
          "internalType": "address",
          "name": "agentVault",
          "type": "address"
        },
        {
          "indexed": false,
          "internalType": "uint256",
          "name": "amountWei",
          "type": "uint256"
        },
        {
          "indexed": false,
          "internalType": "uint256",
          "name": "withdrawalAllowedAt",
          "type": "uint256"
        }
      ],
      "name": "VaultCollateralWithdrawalAnnounced",
      "type": "event"
    },
    {
      "inputs": [
        {
          "internalType": "address",
          "name": "_agentVault",
          "type": "address"
        },
        {
          "internalType": "uint256",
          "name": "_valueNATWei",
          "type": "uint256"
        }
      ],
      "name": "announceAgentPoolTokenRedemption",
      "outputs": [
        {
          "internalType": "uint256",
          "name": "_redemptionAllowedAt",
          "type": "uint256"
        }
      ],
      "stateMutability": "nonpayable",
      "type": "function"
    },
    {
      "inputs": [
        {
          "internalType": "address",
          "name": "_agentVault",
          "type": "address"
        },
        {
          "internalType": "uint256",
          "name": "_valueNATWei",
          "type": "uint256"
        }
      ],
      "name": "announceVaultCollateralWithdrawal",
      "outputs": [
        {
          "internalType": "uint256",
          "name": "_withdrawalAllowedAt",
          "type": "uint256"
        }
      ],
      "stateMutability": "nonpayable",
      "type": "function"
    },
    {
      "inputs": [
        {
          "internalType": "contract IERC20",
          "name": "_token",
          "type": "address"
        },
        {
          "internalType": "uint256",
          "name": "_valueNATWei",
          "type": "uint256"
        }
      ],
      "name": "beforeCollateralWithdrawal",
      "outputs": [],
      "stateMutability": "nonpayable",
      "type": "function"
    },
    {
      "inputs": [
        {
          "internalType": "address",
          "name": "_agentVault",
          "type": "address"
        }
      ],
      "name": "buybackAgentCollateral",
      "outputs": [],
      "stateMutability": "payable",
      "type": "function"
    },
    {
      "inputs": [
        {
          "internalType": "address",
          "name": "_agentVault",
          "type": "address"
        },
        {
          "internalType": "contract IERC20",
          "name": "_token",
          "type": "address"
        }
      ],
      "name": "switchVaultCollateral",
      "outputs": [],
      "stateMutability": "nonpayable",
      "type": "function"
    },
    {
      "inputs": [
        {
          "internalType": "address",
          "name": "_agentVault",
          "type": "address"
        },
        {
          "internalType": "contract IERC20",
          "name": "_token",
          "type": "address"
        }
      ],
      "name": "updateCollateral",
      "outputs": [],
      "stateMutability": "nonpayable",
      "type": "function"
    },
    {
      "inputs": [
        {
          "internalType": "address",
          "name": "_agentVault",
          "type": "address"
        }
      ],
      "name": "upgradeWNatContract",
      "outputs": [],
      "stateMutability": "nonpayable",
      "type": "function"
    }
  ],
  "bytecode": "0x608060405234801561001057600080fd5b5061365a806100206000396000f3fe6080604052600436106100705760003560e01c80637a2cf4121161004e5780637a2cf412146100e9578063b68af97e14610109578063d9d714631461011c578063f4d000b21461013c57600080fd5b806329ff1308146100755780632dabf2d014610097578063469052ad146100c9575b600080fd5b34801561008157600080fd5b50610095610090366004613217565b61015c565b005b3480156100a357600080fd5b506100b76100b2366004613250565b61016a565b60405190815260200160405180910390f35b3480156100d557600080fd5b506100956100e4366004613250565b610181565b3480156100f557600080fd5b50610095610104366004613217565b61018c565b61009561011736600461327c565b610196565b34801561012857600080fd5b506100b7610137366004613250565b6101d3565b34801561014857600080fd5b5061009561015736600461327c565b6101e1565b61016682826101ea565b5050565b600061017860028484610285565b90505b92915050565b61016682338361054d565b610166828261092c565b61019e610a14565b6101a781610a8d565b6101d060017f0cd2207518cd3e5213e2c6dbe63d55b60aa893c194a427b7d7f1600408fd5bde55565b50565b600061017860008484610285565b6101d081610ca0565b60006101f583610e0a565b9050336001600160a01b0384161480610217575080546001600160a01b031633145b6102685760405162461bcd60e51b815260206004820152601860248201527f6f6e6c79206167656e74207661756c74206f7220706f6f6c000000000000000060448201526064015b60405180910390fd5b6102728183610eb1565b156102805761028081610efb565b505050565b60008261029181610fe7565b600061029c85610e0a565b9050600160048083015460ff16908111156102b9576102b9613299565b14806102d457506102c98161103e565b6001600160401b0316155b6103205760405162461bcd60e51b815260206004820152601e60248201527f7769746864726177616c20616e6e3a20696e76616c6964207374617475730000604482015260640161025f565b600061032c82886110a4565b80549091506001600160801b031685111561042a576000805160206135e5833981519152600061035c848a6110f1565b8354909150600090610377906001600160801b0316896132c5565b90506103838286611173565b8111156103d25760405162461bcd60e51b815260206004820152601a60248201527f7769746864726177616c3a2076616c756520746f6f2068696768000000000000604482015260640161025f565b60108301546103fa906103f590600160801b90046001600160401b0316426132d8565b611198565b84546001600160401b0391909116600160801b0267ffffffffffffffff60801b1990911617845550610445915050565b8460000361044557805467ffffffffffffffff60801b191681555b61044e85611204565b81546001600160801b0319166001600160801b0391909116178155600087600281111561047d5761047d613299565b036104dc57805460408051878152600160801b9092046001600160401b031660208301526001600160a01b038816917f67212b72b610c952a34bdd8a6e005684df8b1a31e96ba45ae1dbfb926e5447fa910160405180910390a2610532565b805460408051878152600160801b9092046001600160401b031660208301526001600160a01b038816917fd8af9ece0435675178bfc0aba18c040e3bd5ad88eabd3d313cd0b469a8e1d06b910160405180910390a25b54600160801b90046001600160401b03169695505050505050565b600061055883610e0a565b905060006105658261126d565b6001600160a01b0316856001600160a01b03160361058557506000610619565b8154604080516332f7ce0b60e21b815290516001600160a01b039092169163cbdf382c916004808201926020929091908290030181865afa1580156105ce573d6000803e3d6000fd5b505050506040513d601f19601f820116820180604052508101906105f291906132eb565b6001600160a01b0316856001600160a01b03160361061257506002610619565b5050505050565b600061062583836110a4565b9050600061063384846110f1565b9050600160048086015460ff169081111561065057610650613299565b148061066b57506106608461103e565b6001600160401b0316155b6106b75760405162461bcd60e51b815260206004820152601a60248201527f7769746864726177616c3a20696e76616c696420737461747573000000000000604482015260640161025f565b8154600160801b90046001600160401b03166000036107185760405162461bcd60e51b815260206004820152601960248201527f7769746864726177616c3a206e6f7420616e6e6f756e63656400000000000000604482015260640161025f565b81546001600160801b03168511156107725760405162461bcd60e51b815260206004820152601f60248201527f7769746864726177616c3a206d6f7265207468616e20616e6e6f756e63656400604482015260640161025f565b8154600160801b90046001600160401b03164210156107d35760405162461bcd60e51b815260206004820152601b60248201527f7769746864726177616c3a206e6f7420616c6c6f776564207965740000000000604482015260640161025f565b7f4f24f5c433db0962dac0d2c8b84197a6e6c7cc4e5d9ebe1916a1b6193da2f34d5482546000805160206135e58339815191529161082c91600160c01b9091046001600160401b0390811691600160801b900416613308565b6001600160401b031642111561087b5760405162461bcd60e51b81526020600482015260146024820152737769746864726177616c3a20746f6f206c61746560601b604482015260640161025f565b602082015161088a83876112c5565b11156108d15760405162461bcd60e51b81526020600482015260166024820152757769746864726177616c3a20435220746f6f206c6f7760501b604482015260640161025f565b82546000906108ea9088906001600160801b03166132c5565b84546001600160801b0319166001600160801b0382161785559050600081900361092157835467ffffffffffffffff60801b191684555b505050505050505050565b8161093681610fe7565b600061094184610e0a565b9050600061094e826113ef565b8054909150600160b01b90046001600160401b03166000036109bc5760405162461bcd60e51b815260206004820152602160248201527f63757272656e7420636f6c6c61746572616c206e6f74206465707265636174656044820152601960fa1b606482015260840161025f565b6109c6828561143c565b60408051600281526001600160a01b0386811660208301528716917f88b6ac79ad99776ae32e236db624ff70afc6aedfaa56430d9924c5165ceadef691015b60405180910390a25050505050565b7f0cd2207518cd3e5213e2c6dbe63d55b60aa893c194a427b7d7f1600408fd5bde805460011901610a875760405162461bcd60e51b815260206004820152601f60248201527f5265656e7472616e637947756172643a207265656e7472616e742063616c6c00604482015260640161025f565b60029055565b80610a9781610fe7565b6000805160206136058339815191526000610ab184610e0a565b9050610ae47f4f24f5c433db0962dac0d2c8b84197a6e6c7cc4e5d9ebe1916a1b6193da2f33b546001600160a01b031690565b6001600160a01b031663194307bf6040518163ffffffff1660e01b8152600401602060405180830381865afa158015610b21573d6000803e3d6000fd5b505050506040513d601f19601f82011682018060405250810190610b459190613328565b610b8a5760405162461bcd60e51b8152602060048201526016602482015275198b585cdcd95d081b9bdd081d195c9b5a5b985d195960521b604482015260640161025f565b6005810154600090610bae906001600160401b03600160401b820481169116613308565b90506000610bbb836113ef565b90506000610bc8826115a4565b90506000610c076000805160206135e5833981519152601101546001600160401b03600160c01b909104811690610c01908716856115ba565b906115d4565b9050610c1385826115e3565b6005850154610c33908690600160401b90046001600160401b03166117bd565b6005850154600e870180546001600160401b0392831692601891610c60918591600160c01b90041661334a565b82546001600160401b039182166101009390930a92830291909202199091161790555050506005909201805467ffffffffffffffff191690555050505050565b80610caa81610fe7565b6000610cb583610e0a565b7fec7e8c1c441439dd40959777f4c577ea0cd42fcc1dbe59d2bd0f5d9c55df8dc554600080516020613605833981519152805492935091600091839161ffff909116908110610d0657610d0661336a565b6000918252602090912060049182020154600f840154918501546001600160a01b0390911692506301000000900461ffff90811691161461061257600f8201546004848101805464ffff000000191661ffff909316630100000002929092179091558354604051637a68005960e11b81526001600160a01b038481169382019390935291169063f4d000b290602401600060405180830381600087803b158015610daf57600080fd5b505af1158015610dc3573d6000803e3d6000fd5b505060408051600181526001600160a01b038581166020830152891693507f88b6ac79ad99776ae32e236db624ff70afc6aedfaa56430d9924c5165ceadef6925001610a05565b7f5bebac0595fee029d42bb673937f5f1cb81cf8641382bc17774635de9b7d796568010000000000000000600160e01b03604083901b161880600060048084015460ff1690811115610e5e57610e5e613299565b03610eab5760405162461bcd60e51b815260206004820152601b60248201527f696e76616c6964206167656e74207661756c7420616464726573730000000000604482015260640161025f565b50919050565b6000610ebc83611856565b6001600160a01b0316826001600160a01b031614806101785750610edf8361126d565b6001600160a01b0316826001600160a01b031614905092915050565b600260048083015460ff1690811115610f1657610f16613299565b14610f1e5750565b6000610f298261188f565b90506000610f3683611903565b90506000610f46848360006119e0565b90506000610f56858460016119e0565b905081846000015110158015610f70575080846020015110155b15610612576004850180547fff00000000000000000000ffffffffffffffffffffffffffffffffffffffff00166001179055610fab85611a47565b6001600160a01b03167fe513b42585b0ceec0d56d56fe3a23861c15a2f74eb4c32c94334d63d68ff4dcf60405160405180910390a25050505050565b610ff9610ff382610e0a565b33611a6f565b6101d05760405162461bcd60e51b815260206004820152601660248201527537b7363c9030b3b2b73a103b30bab63a1037bbb732b960511b604482015260640161025f565b60058101546000906001600160401b03600160801b82048116600160c01b90920416111561106e5761106e613380565b60058201546001600160401b03600160801b820481169161109a9180821691600160401b900416613308565b61017b9190613308565b600060018260028111156110ba576110ba613299565b036110c7576110c7613380565b60008260028111156110db576110db613299565b146110e95782600901610178565b505060080190565b6111166040805160608101909152806000815260200160008152602001600081525090565b600082600281111561112a5761112a613299565b0361113f5761113883611b41565b905061017b565b600182600281111561115357611153613299565b036111615761113883611c22565b6111388361116e85611c22565b611c9d565b60008061118084846112c5565b9050611190846020015182611e69565b949350505050565b60006001600160401b038211156112005760405162461bcd60e51b815260206004820152602660248201527f53616665436173743a2076616c756520646f65736e27742066697420696e203660448201526534206269747360d01b606482015260840161025f565b5090565b60006001600160801b038211156112005760405162461bcd60e51b815260206004820152602760248201527f53616665436173743a2076616c756520646f65736e27742066697420696e20316044820152663238206269747360c81b606482015260840161025f565b60008060008051602061360583398151915260048401548154919250829161010090910461ffff169081106112a4576112a461336a565b60009182526020909120600490910201546001600160a01b03169392505050565b60008060006112d8848660000151611e83565b60058601549193509150600090611301906001600160401b03600160401b8204811691166132d8565b9050600061131784610c01848a604001516115ba565b9050600060018851600281111561133057611330613299565b1461134f576005870154600160801b90046001600160401b0316611365565b6005870154600160c01b90046001600160401b03165b9050600061138485610c01846001600160401b03168c604001516115ba565b9050600060018a51600281111561139d5761139d613299565b036113a95760006113c1565b89516113b6908a906110a4565b546001600160801b03165b6001600160801b03169050806113d783866132d8565b6113e191906132d8565b9a9950505050505050505050565b60008060008051602061360583398151915260048401548154919250829161010090910461ffff169081106114265761142661336a565b9060005260206000209060040201915050919050565b6000805160206136058339815191526000611458600284611f8a565b905060008260000182815481106114715761147161336a565b60009182526020909120600490910201905060028154600160a01b900460ff1660028111156114a2576114a2613299565b146114af576114af613380565b8054600160b01b90046001600160401b0316156115065760405162461bcd60e51b815260206004820152601560248201527418dbdb1b185d195c985b0819195c1c9958d85d1959605a1b604482015260640161025f565b61150f82612024565b8560040160016101000a81548161ffff021916908361ffff160217905550600061153886611b41565b905060006115468288612087565b600384015490915063ffffffff1681101561159b5760405162461bcd60e51b81526020600482015260156024820152741b9bdd08195b9bdd59da0818dbdb1b185d195c985b605a1b604482015260640161025f565b50505050505050565b60006115b1826000612152565b50909392505050565b6000610178826115cc6009600a61347a565b859190612311565b60006101788383612710612311565b60006115ee836113ef565b905060006115fb84612437565b805483549192506001600160a01b039081169116036116235761161e8484612470565b6117b7565b6000805160206135e5833981519152600061163d86611a47565b601283015490915060009061166490600160801b900463ffffffff16610c01888888612515565b8554600189015460405163083e007560e21b81526001600160a01b0392831660048201529082166024820152604481018990529192508316906320f801d490606401600060405180830381600087803b1580156116c057600080fd5b505af11580156116d4573d6000803e3d6000fd5b50505050803410156117285760405162461bcd60e51b815260206004820152601960248201527f6e6f7420656e6f7567682066756e64732070726f766964656400000000000000604482015260640161025f565b6117318161253b565b8034111561159b576001600160a01b03821663677fa23261175283346132c5565b61175a6125a2565b6040516001600160e01b031960e085901b1681526001600160a01b0390911660048201526024016000604051808303818588803b15801561179a57600080fd5b505af11580156117ae573d6000803e3d6000fd5b50505050505050505b50505050565b6118088260050160089054906101000a90046001600160401b031682604051806040016040528060118152602001701b9bdd08195b9bdd59da081b5a5b9d1959607a1b81525061260f565b8260050160086101000a8154816001600160401b0302191690836001600160401b0316021790555061016661183c83611a47565b6005840154600160401b90046001600160401b031661265a565b600080600080516020613605833981519152600484015481549192508291630100000090910461ffff169081106112a4576112a461336a565b6118ba6040518060800160405280600081526020016000815260200160008152602001600081525090565b6000806118c88460006126a6565b915091506000806118da8660016126a6565b604080516080810182529687526020870192909252908501939093525050606082015292915050565b6000806000805160206135e5833981519152600484015490915060ff16600281600481111561193457611934613299565b036119b357600060016004860154600160e81b900460ff16600281111561195d5761195d613299565b14801561199957506011830154600486015461198c916001600160401b0390811691600160a81b900416613308565b6001600160401b03164211155b9050806119a75760026119aa565b60015b95945050505050565b60038160048111156119c7576119c7613299565b036119d6575060029392505050565b5060009392505050565b6000806119ed85846126f4565b90506001846002811115611a0357611a03613299565b1480611a165750611a1485846127a0565b155b15611a2c576003015463ffffffff169050611a40565b60030154600160401b900463ffffffff1690505b9392505050565b7f5bebac0595fee029d42bb673937f5f1cb81cf8641382bc17774635de9b7d79651860401c90565b60018201546000906001600160a01b0390811690831681148061119057507f4f24f5c433db0962dac0d2c8b84197a6e6c7cc4e5d9ebe1916a1b6193da2f341546001600160a01b0316604051631f86345d60e31b81526001600160a01b038381166004830152919091169063fc31a2e890602401602060405180830381865afa158015611b00573d6000803e3d6000fd5b505050506040513d601f19601f82011682018060405250810190611b2491906132eb565b6001600160a01b0316836001600160a01b03161491505092915050565b611b666040805160608101909152806000815260200160008152602001600081525090565b6000611b71836113ef565b60408051606081019091526000815281549192509060208201906001600160a01b03166370a08231611ba287611a47565b6040516001600160e01b031960e084901b1681526001600160a01b0390911660048201526024015b602060405180830381865afa158015611be7573d6000803e3d6000fd5b505050506040513d601f19601f82011682018060405250810190611c0b9190613486565b8152602001611c19836115a4565b90529392505050565b611c476040805160608101909152806000815260200160008152602001600081525090565b6000611c5283612437565b60408051606081019091529091508060018152825485546040516370a0823160e01b81526001600160a01b0391821660048201526020909301929116906370a0823190602401611bca565b611cc26040805160608101909152806000815260200160008152602001600081525090565b8254604080516332f7ce0b60e21b815290516000926001600160a01b03169163cbdf382c9160048083019260209291908290030181865afa158015611d0b573d6000803e3d6000fd5b505050506040513d601f19601f82011682018060405250810190611d2f91906132eb565b90506000816001600160a01b03166370a08231611d4b87611a47565b6040516001600160e01b031960e084901b1681526001600160a01b039091166004820152602401602060405180830381865afa158015611d8f573d6000803e3d6000fd5b505050506040513d601f19601f82011682018060405250810190611db39190613486565b90506000826001600160a01b03166318160ddd6040518163ffffffff1660e01b8152600401602060405180830381865afa158015611df5573d6000803e3d6000fd5b505050506040513d601f19601f82011682018060405250810190611e199190613486565b905060008560200151600003611e30576000611e45565b60208601516040870151611e45918490612311565b60408051606081018252600281526020810195909552840152509095945050505050565b6000818311611e79576000610178565b61017882846132c5565b6000806002836002811115611e9a57611e9a613299565b03611f0257600080611ead866001611e83565b915091506000611ec86000805160206135e583398151915290565b600c015463ffffffff64010000000090910481169150611eec90829084906115d416565b9350611ef881846115d4565b9450505050611f83565b6001836002811115611f1657611f16613299565b03611f5157611f2484612437565b60030154600485015463ffffffff9182169250611f4a91600160881b9091041682612809565b9150611f83565b611f5a846113ef565b60030154600485015463ffffffff9182169250611f8091600160681b9091041682612809565b91505b9250929050565b6000600080516020613605833981519152817fec7e8c1c441439dd40959777f4c577ea0cd42fcc1dbe59d2bd0f5d9c55df8db781611fc8878761281f565b8152602001908152602001600020549050600081116120195760405162461bcd60e51b815260206004820152600d60248201526c3ab735b737bbb7103a37b5b2b760991b604482015260640161025f565b6119aa6001826132c5565b600061ffff8211156112005760405162461bcd60e51b815260206004820152602660248201527f53616665436173743a2076616c756520646f65736e27742066697420696e203160448201526536206269747360d01b606482015260840161025f565b60008060018451600281111561209f5761209f613299565b146120be576005830154600160801b90046001600160401b03166120d4565b6005830154600160c01b90046001600160401b03165b60058401546001600160401b03918216925060009183916121009181811691600160401b9004166132d8565b61210a91906132d8565b905080600003612123576402540be4009250505061017b565b60006121338287604001516115ba565b60208701519091506121489061271083612311565b9695505050505050565b6000806000806000806121f188600101805461216d9061349f565b80601f01602080910402602001604051908101604052809291908181526020018280546121999061349f565b80156121e65780601f106121bb576101008083540402835291602001916121e6565b820191906000526020600020905b8154815290600101906020018083116121c957829003601f168201915b505050505088612849565b8a549295509093509150600160f01b900460ff161561223857875460009061222790600160a81b900460ff166001838786612937565b965091945084935061230a92505050565b60008060006122d38b600201805461224f9061349f565b80601f016020809104026020016040519081016040528092919081815260200182805461227b9061349f565b80156122c85780601f1061229d576101008083540402835291602001916122c8565b820191906000526020600020905b8154815290600101906020018083116122ab57829003601f168201915b50505050508b612849565b8d5492955090935091506000906122f790600160a81b900460ff1685848a89612937565b995094975090955061230a945050505050565b9250925092565b60008082116123555760405162461bcd60e51b815260206004820152601060248201526f4469766973696f6e206279207a65726f60801b604482015260640161025f565b8360000361236557506000611a40565b83830283858281612378576123786134d3565b04036123965782818161238d5761238d6134d3565b04915050611a40565b5060006123a383866134e9565b905060006123b184876134fd565b905060006123bf85876134e9565b905060006123cd86886134fd565b9050856123da8285613511565b6123e491906134e9565b6123ee8385613511565b6123f88387613511565b886124038689613511565b61240d9190613511565b61241791906132d8565b61242191906132d8565b61242b91906132d8565b98975050505050505050565b600080600080516020613605833981519152600484015481549192508291630100000090910461ffff169081106114265761142661336a565b6000805160206135e5833981519152600061248a84611a47565b9050806001600160a01b031663648d08786124a36125a2565b600985015460405160e084901b6001600160e01b03191681526001600160a01b0392831660048201529116602482015260448101869052606401600060405180830381600087803b1580156124f757600080fd5b505af115801561250b573d6000803e3d6000fd5b5050505050505050565b600080612521836115a4565b9050600061252e856115a4565b9050612148868383612311565b7f4f24f5c433db0962dac0d2c8b84197a6e6c7cc4e5d9ebe1916a1b6193da2f343546040516000805160206135e5833981519152916001600160a01b0316906108fc8415029084906000818181858888f19350505050158015610280573d6000803e3d6000fd5b7fec7e8c1c441439dd40959777f4c577ea0cd42fcc1dbe59d2bd0f5d9c55df8dc5546000805160206136058339815191528054600092829161ffff9091169081106125ef576125ef61336a565b60009182526020909120600490910201546001600160a01b031692915050565b6000826001600160401b0316846001600160401b0316101582906126465760405162461bcd60e51b815260040161025f9190613528565b5050506001600160401b0390811691160390565b7f341c6685fdb8ed7133465b64f545b9fbc5699a59cbd1ad98992e5c070a74c5106102807f341c6685fdb8ed7133465b64f545b9fbc5699a59cbd1ad98992e5c070a74c51184846129be565b6000806000806126b68686612a2f565b9150915060006126c68388612087565b905060006126d48389612087565b9050836040015194506126e78282612809565b9550505050509250929050565b6000600282600281111561270a5761270a613299565b0361271757612717613380565b600080516020613605833981519152600083600281111561273a5761273a613299565b0361277657600484015481548291610100900461ffff169081106127605761276061336a565b906000526020600020906004020191505061017b565b6004840154815482916301000000900461ffff169081106127605761276061336a565b5092915050565b6000808260028111156127b5576127b5613299565b036127d157506004820154600160f01b9004600116151561017b565b60018260028111156127e5576127e5613299565b146127f2576127f2613380565b506004820154600160f01b9004600216151561017b565b60008183116128185781610178565b5090919050565b6000816001600160a01b031660a084600281111561283f5761283f613299565b901b179392505050565b7f4f24f5c433db0962dac0d2c8b84197a6e6c7cc4e5d9ebe1916a1b6193da2f34454600090819081906000805160206135e5833981519152906001600160a01b0316851561290b5760405163e4a0a55b60e01b81526001600160a01b0382169063e4a0a55b906128bd908a90600401613528565b606060405180830381865afa1580156128da573d6000803e3d6000fd5b505050506040513d601f19601f820116820180604052508101906128fe9190613577565b945094509450505061230a565b60405163524f388960e01b81526001600160a01b0382169063524f3889906128bd908a90600401613528565b60006000805160206135e5833981519152816009612955878a6132d8565b61295f91906132d8565b600a83015490915060009061297f908690600160a81b900460ff166132d8565b90508082101561299157612991613380565b6129b161299e82846132c5565b6129a990600a61347a565b87908a612311565b9998505050505050505050565b6001600160a01b03821660009081526004840160205260408120906129e282612b92565b905060006129ef86612b92565b90506129fc834286612c2d565b612a1d4283612a0b8785613308565b612a15919061334a565b889190612c2d565b612a278684612f9e565b505050505050565b612a546040805160608101909152806000815260200160008152602001600081525090565b612a796040805160608101909152806000815260200160008152602001600081525090565b6000612a8585856126f4565b90506000612a938686612fdb565b90506000612aa083613013565b612aab576000612b18565b82546040516370a0823160e01b81526001600160a01b038481166004830152909116906370a0823190602401602060405180830381865afa158015612af4573d6000803e3d6000fd5b505050506040513d601f19601f82011682018060405250810190612b189190613486565b9050600080612b2685613047565b915091506040518060600160405280896002811115612b4757612b47613299565b81526020018481526020018381525096506040518060600160405280896002811115612b7557612b75613299565b815260200184815260200182815250955050505050509250929050565b6001810154600090600160401b90046001600160401b03168103612bb857506000919050565b60018201546001600160401b03808216600160401b9092041611612bde57612bde613380565b6001828101548391600091612c039190600160401b90046001600160401b031661334a565b6001600160401b039081168252602082019290925260400160002054600160c01b90041692915050565b6001830154600160401b90046001600160401b0316600003612d4c5760018301546001600160401b031615612c6457612c64613380565b604051806060016040528060006001600160801b03168152602001612c8884611198565b6001600160401b0390811682528381166020909201919091526001850180548692600092600160401b90920416906008612cc1836135a5565b82546001600160401b039182166101009390930a92830292820219169190911790915590811682526020808301939093526040918201600020845181549486015195909301518216600160c01b026001600160c01b0395909216600160801b026001600160c01b03199094166001600160801b03909316929092179290921792909216179055505050565b60018301546001600160401b03808216600160401b9092041611612d7257612d72613380565b60018381015460009185918391612d9891600160401b90046001600160401b031661334a565b6001600160401b03908116825260208201929092526040016000208054909250600160801b900416839003612dea5780546001600160c01b0316600160c01b6001600160401b038416021781556117b7565b8054600160801b90046001600160401b03168311612e5b5760405162461bcd60e51b815260206004820152602860248201527f54696d6543756d756c61746976653a2074696d657374616d70206e6f7420696e6044820152676372656173696e6760c01b606482015260840161025f565b8054600090612e7a90600160801b90046001600160401b0316856132c5565b8254612e969190600160c01b90046001600160401b0316613511565b8254612eab91906001600160801b03166132d8565b90506040518060600160405280612ec183611204565b6001600160801b03168152602001612ed886611198565b6001600160401b0390811682528581166020909201919091526001870180548892600092600160401b90920416906008612f11836135a5565b82546001600160401b039182166101009390930a92830292820219169190911790915590811682526020808301939093526040918201600020845181549486015195909301518216600160c01b026001600160c01b0395909216600160801b026001600160c01b03199094166001600160801b039093169290921792909217929092161790555050505050565b6003820154600090612fc1908490600160c01b90046001600160401b03166130f6565b9050612fcf82826002613131565b61028083826002613131565b60006001826002811115612ff157612ff1613299565b1461300457612fff83611a47565b610178565b5050546001600160a01b031690565b8054600090600160b01b90046001600160401b0316158061017b5750505442600160b01b9091046001600160401b03161190565b6000806000805160206135e58339815191528180806130668782612152565b925092509250600080600061307c8a6001612152565b60108a0154929550909350915060009085906130a890600160c01b90046001600160401b0316846132d8565b101580156130d55750601088015486906130d290600160c01b90046001600160401b0316856132d8565b10155b9050869950806130e557866130e7565b835b98505050505050505050915091565b6003820154600090613119908390600160401b90046001600160401b0316613511565b600384015461017891906001600160401b03166132d8565b60018301546001600160401b0380821691600160401b90041660005b83811080156131655750816131638460016132d8565b105b801561319e57508486600061317b8660016132d8565b8152602081019190915260400160002054600160801b90046001600160401b0316105b156131cd576000838152602087905260408120556131bb836135cb565b92506131c6816135cb565b905061314d565b6131d683611198565b600196909601805467ffffffffffffffff19166001600160401b03909716969096179095555050505050565b6001600160a01b03811681146101d057600080fd5b6000806040838503121561322a57600080fd5b823561323581613202565b9150602083013561324581613202565b809150509250929050565b6000806040838503121561326357600080fd5b823561326e81613202565b946020939093013593505050565b60006020828403121561328e57600080fd5b8135611a4081613202565b634e487b7160e01b600052602160045260246000fd5b634e487b7160e01b600052601160045260246000fd5b8181038181111561017b5761017b6132af565b8082018082111561017b5761017b6132af565b6000602082840312156132fd57600080fd5b8151611a4081613202565b6001600160401b03818116838216019080821115612799576127996132af565b60006020828403121561333a57600080fd5b81518015158114611a4057600080fd5b6001600160401b03828116828216039080821115612799576127996132af565b634e487b7160e01b600052603260045260246000fd5b634e487b7160e01b600052600160045260246000fd5b600181815b808511156133d15781600019048211156133b7576133b76132af565b808516156133c457918102915b93841c939080029061339b565b509250929050565b6000826133e85750600161017b565b816133f55750600061017b565b816001811461340b576002811461341557613431565b600191505061017b565b60ff841115613426576134266132af565b50506001821b61017b565b5060208310610133831016604e8410600b8410161715613454575081810a61017b565b61345e8383613396565b8060001904821115613472576134726132af565b029392505050565b600061017883836133d9565b60006020828403121561349857600080fd5b5051919050565b600181811c908216806134b357607f821691505b602082108103610eab57634e487b7160e01b600052602260045260246000fd5b634e487b7160e01b600052601260045260246000fd5b6000826134f8576134f86134d3565b500490565b60008261350c5761350c6134d3565b500690565b808202811582820484141761017b5761017b6132af565b60006020808352835180602085015260005b818110156135565785810183015185820160400152820161353a565b506000604082860101526040601f19601f8301168501019250505092915050565b60008060006060848603121561358c57600080fd5b8351925060208401519150604084015190509250925092565b60006001600160401b038083168181036135c1576135c16132af565b6001019392505050565b6000600182016135dd576135dd6132af565b506001019056fe4f24f5c433db0962dac0d2c8b84197a6e6c7cc4e5d9ebe1916a1b6193da2f33aec7e8c1c441439dd40959777f4c577ea0cd42fcc1dbe59d2bd0f5d9c55df8db6a2646970667358221220fd0ab64c9594f032ac39ee6b08a541d12c012632403362e209ecd7ac15bdd76964736f6c63430008170033",
  "linkReferences": {},
  "deployedLinkReferences": {}
}