{
  "_format": "hh-sol-artifact-1",
  "contractName": "AssetManagerMock",
  "sourceName": "contracts/fasset/mock/AssetManagerMock.sol",
  "abi": [
    {
      "inputs": [
        {
          "internalType": "contract IWNat",
          "name": "_wNat",
          "type": "address"
        }
      ],
      "stateMutability": "nonpayable",
      "type": "constructor"
    },
    {
      "anonymous": false,
      "inputs": [
        {
          "indexed": false,
          "internalType": "uint256",
          "name": "_amountUBA",
          "type": "uint256"
        },
        {
          "indexed": false,
          "internalType": "address payable",
          "name": "_executor",
          "type": "address"
        }
      ],
      "name": "AgentRedemption",
      "type": "event"
    },
    {
      "anonymous": false,
      "inputs": [
        {
          "indexed": false,
          "internalType": "uint256",
          "name": "_amountUBA",
          "type": "uint256"
        }
      ],
      "name": "AgentRedemptionInCollateral",
      "type": "event"
    },
    {
      "inputs": [],
      "name": "assetPriceDiv",
      "outputs": [
        {
          "internalType": "uint256",
          "name": "",
          "type": "uint256"
        }
      ],
      "stateMutability": "view",
      "type": "function"
    },
    {
      "inputs": [],
      "name": "assetPriceMul",
      "outputs": [
        {
          "internalType": "uint256",
          "name": "",
          "type": "uint256"
        }
      ],
      "stateMutability": "view",
      "type": "function"
    },
    {
      "inputs": [],
      "name": "assetPriceNatWei",
      "outputs": [
        {
          "internalType": "uint256",
          "name": "",
          "type": "uint256"
        },
        {
          "internalType": "uint256",
          "name": "",
          "type": "uint256"
        }
      ],
      "stateMutability": "view",
      "type": "function"
    },
    {
      "inputs": [
        {
          "internalType": "address",
          "name": "_contract",
          "type": "address"
        },
        {
          "internalType": "bytes",
          "name": "_payload",
          "type": "bytes"
        }
      ],
      "name": "callFunctionAt",
      "outputs": [],
      "stateMutability": "nonpayable",
      "type": "function"
    },
    {
      "inputs": [],
      "name": "fAsset",
      "outputs": [
        {
          "internalType": "contract IERC20",
          "name": "",
          "type": "address"
        }
      ],
      "stateMutability": "view",
      "type": "function"
    },
    {
      "inputs": [],
      "name": "fasset",
      "outputs": [
        {
          "internalType": "contract ERC20Mock",
          "name": "",
          "type": "address"
        }
      ],
      "stateMutability": "view",
      "type": "function"
    },
    {
      "inputs": [
        {
          "internalType": "address",
          "name": "",
          "type": "address"
        }
      ],
      "name": "getAgentVaultOwner",
      "outputs": [
        {
          "internalType": "address",
          "name": "_ownerManagementAddress",
          "type": "address"
        }
      ],
      "stateMutability": "view",
      "type": "function"
    },
    {
      "inputs": [
        {
          "internalType": "address",
          "name": "",
          "type": "address"
        }
      ],
      "name": "getCollateralPool",
      "outputs": [
        {
          "internalType": "address",
          "name": "",
          "type": "address"
        }
      ],
      "stateMutability": "view",
      "type": "function"
    },
    {
      "inputs": [],
      "name": "getCollateralPoolTokenTimelockSeconds",
      "outputs": [
        {
          "internalType": "uint256",
          "name": "",
          "type": "uint256"
        }
      ],
      "stateMutability": "view",
      "type": "function"
    },
    {
      "inputs": [
        {
          "internalType": "address",
          "name": "",
          "type": "address"
        }
      ],
      "name": "getFAssetsBackedByPool",
      "outputs": [
        {
          "internalType": "uint256",
          "name": "",
          "type": "uint256"
        }
      ],
      "stateMutability": "view",
      "type": "function"
    },
    {
      "inputs": [],
      "name": "getWNat",
      "outputs": [
        {
          "internalType": "contract IWNat",
          "name": "",
          "type": "address"
        }
      ],
      "stateMutability": "view",
      "type": "function"
    },
    {
      "inputs": [
        {
          "internalType": "address",
          "name": "",
          "type": "address"
        },
        {
          "internalType": "address",
          "name": "_address",
          "type": "address"
        }
      ],
      "name": "isAgentVaultOwner",
      "outputs": [
        {
          "internalType": "bool",
          "name": "",
          "type": "bool"
        }
      ],
      "stateMutability": "view",
      "type": "function"
    },
    {
      "inputs": [],
      "name": "lotSize",
      "outputs": [
        {
          "internalType": "uint256",
          "name": "",
          "type": "uint256"
        }
      ],
      "stateMutability": "view",
      "type": "function"
    },
    {
      "inputs": [
        {
          "internalType": "address",
          "name": "",
          "type": "address"
        }
      ],
      "name": "maxRedemptionFromAgent",
      "outputs": [
        {
          "internalType": "uint256",
          "name": "",
          "type": "uint256"
        }
      ],
      "stateMutability": "view",
      "type": "function"
    },
    {
      "inputs": [
        {
          "internalType": "contract IIAgentVault",
          "name": "_agentVault",
          "type": "address"
        },
        {
          "internalType": "address payable",
          "name": "_recipient",
          "type": "address"
        },
        {
          "internalType": "uint256",
          "name": "_amount",
          "type": "uint256"
        }
      ],
      "name": "payoutNAT",
      "outputs": [],
      "stateMutability": "nonpayable",
      "type": "function"
    },
    {
      "inputs": [
        {
          "internalType": "address",
          "name": "",
          "type": "address"
        },
        {
          "internalType": "address",
          "name": "",
          "type": "address"
        },
        {
          "internalType": "uint256",
          "name": "_amountUBA",
          "type": "uint256"
        },
        {
          "internalType": "string",
          "name": "",
          "type": "string"
        },
        {
          "internalType": "address payable",
          "name": "_executor",
          "type": "address"
        }
      ],
      "name": "redeemFromAgent",
      "outputs": [],
      "stateMutability": "nonpayable",
      "type": "function"
    },
    {
      "inputs": [
        {
          "internalType": "address",
          "name": "",
          "type": "address"
        },
        {
          "internalType": "address",
          "name": "",
          "type": "address"
        },
        {
          "internalType": "uint256",
          "name": "_amountUBA",
          "type": "uint256"
        }
      ],
      "name": "redeemFromAgentInCollateral",
      "outputs": [],
      "stateMutability": "nonpayable",
      "type": "function"
    },
    {
      "inputs": [
        {
          "internalType": "contract ERC20Mock",
          "name": "_fasset",
          "type": "address"
        }
      ],
      "name": "registerFAssetForCollateralPool",
      "outputs": [],
      "stateMutability": "nonpayable",
      "type": "function"
    },
    {
      "inputs": [
        {
          "internalType": "uint256",
          "name": "_mul",
          "type": "uint256"
        },
        {
          "internalType": "uint256",
          "name": "_div",
          "type": "uint256"
        }
      ],
      "name": "setAssetPriceNatWei",
      "outputs": [],
      "stateMutability": "nonpayable",
      "type": "function"
    },
    {
      "inputs": [
        {
          "internalType": "bool",
          "name": "_check",
          "type": "bool"
        }
      ],
      "name": "setCheckForValidAgentVaultAddress",
      "outputs": [],
      "stateMutability": "nonpayable",
      "type": "function"
    },
    {
      "inputs": [
        {
          "internalType": "address",
          "name": "pool",
          "type": "address"
        }
      ],
      "name": "setCollateralPool",
      "outputs": [],
      "stateMutability": "nonpayable",
      "type": "function"
    },
    {
      "inputs": [
        {
          "internalType": "address",
          "name": "_owner",
          "type": "address"
        }
      ],
      "name": "setCommonOwner",
      "outputs": [],
      "stateMutability": "nonpayable",
      "type": "function"
    },
    {
      "inputs": [
        {
          "internalType": "uint256",
          "name": "_lotSize",
          "type": "uint256"
        }
      ],
      "name": "setLotSize",
      "outputs": [],
      "stateMutability": "nonpayable",
      "type": "function"
    },
    {
      "inputs": [
        {
          "internalType": "uint256",
          "name": "_maxRedemption",
          "type": "uint256"
        }
      ],
      "name": "setMaxRedemptionFromAgent",
      "outputs": [],
      "stateMutability": "nonpayable",
      "type": "function"
    },
    {
      "inputs": [
        {
          "internalType": "uint256",
          "name": "_timelockDuration",
          "type": "uint256"
        }
      ],
      "name": "setTimelockDuration",
      "outputs": [],
      "stateMutability": "nonpayable",
      "type": "function"
    },
    {
      "inputs": [
        {
          "internalType": "address",
          "name": "",
          "type": "address"
        },
        {
          "internalType": "contract IERC20",
          "name": "",
          "type": "address"
        }
      ],
      "name": "updateCollateral",
      "outputs": [],
      "stateMutability": "nonpayable",
      "type": "function"
    }
  ],
  "bytecode": "0x60806040526002805460ff60a01b1916600160a01b17815560001960045560006005556001600681905560079190915560085534801561003e57600080fd5b50604051610b8d380380610b8d83398101604081905261005d91610082565b600080546001600160a01b0319166001600160a01b03929092169190911790556100b2565b60006020828403121561009457600080fd5b81516001600160a01b03811681146100ab57600080fd5b9392505050565b610acc806100c16000396000f3fe608060405234801561001057600080fd5b506004361061018e5760003560e01c80636e61164f116100de578063a5b0baac11610097578063d13e4f2511610071578063d13e4f25146103c1578063d6b93a9f146103da578063ed000b301461040e578063ed3762aa1461042157600080fd5b8063a5b0baac14610394578063b5a488a6146103a7578063bd5ebe66146103b857600080fd5b80636e61164f146102e3578063716a5eb41461030157806373461c31146103315780637c7db1a51461035d5780639193e95a1461036e578063997be0f41461038157600080fd5b806329ff13081161014b5780634942f65f116101255780634942f65f146102885780635252f3a2146102915780635b3bc189146102c7578063648d0878146102d057600080fd5b806329ff13081461023257806334591a3e1461024557806337bf13ad1461025857600080fd5b806302312aec146101935780630dabe449146101b3578063150fea09146101c8578063177d0307146101db5780631ba28878146101ed5780631e8bee011461021d575b600080fd5b600654600754604080519283526020830191909152015b60405180910390f35b6101c66101c1366004610772565b600455565b005b6101c66101d6366004610772565b600555565b6005545b6040519081526020016101aa565b6101c66101fb3660046107a3565b600380546001600160a01b0319166001600160a01b0392909216919091179055565b6101df61022b3660046107a3565b5060045490565b6101c66102403660046107c7565b610434565b6101c6610253366004610772565b600855565b6101c66102663660046107a3565b600180546001600160a01b0319166001600160a01b0392909216919091179055565b6101df60085481565b6102af61029f3660046107a3565b506003546001600160a01b031690565b6040516001600160a01b0390911681526020016101aa565b6101df60065481565b6101c66102de366004610800565b6104b3565b6102af6102f13660046107a3565b506002546001600160a01b031690565b6101c661030f3660046107a3565b600280546001600160a01b0319166001600160a01b0392909216919091179055565b6101c661033f366004610841565b60028054911515600160a01b0260ff60a01b19909216919091179055565b6001546001600160a01b03166102af565b6101c661037c3660046108ef565b610526565b6101c661038f366004610953565b6105af565b6001546102af906001600160a01b031681565b6000546001600160a01b03166102af565b6101df60075481565b6101c66103cf3660046109e8565b600691909155600755565b6103fe6103e83660046107c7565b6002546001600160a01b03908116911614919050565b60405190151581526020016101aa565b6101c661041c366004610800565b61065c565b6101df61042f3660046107a3565b6106fe565b600280546001600160a01b0381166001600160a01b03199091161790819055600160a01b900460ff16156104af5760405162461bcd60e51b815260206004820152601b60248201527f696e76616c6964206167656e74207661756c742061646472657373000000000060448201526064015b60405180910390fd5b5050565b600054604051630c91a10f60e31b81526001600160a01b0391821660048201528382166024820152604481018390529084169063648d087890606401600060405180830381600087803b15801561050957600080fd5b505af115801561051d573d6000803e3d6000fd5b50505050505050565b600080836001600160a01b0316836040516105419190610a2e565b6000604051808303816000865af19150503d806000811461057e576040519150601f19603f3d011682016040523d82523d6000602084013e610583565b606091505b50915091508181906105a85760405162461bcd60e51b81526004016104a69190610a4a565b5050505050565b60015460405163fb8bd26f60e01b8152336004820152602481018590526001600160a01b039091169063fb8bd26f90604401600060405180830381600087803b1580156105fb57600080fd5b505af115801561060f573d6000803e3d6000fd5b5050604080518681526001600160a01b03851660208201527f8dc58d5c972a015421d3d97436f5e8bcfd7f13c1eb0207b5caba3235dda1df4a935001905060405180910390a15050505050565b60015460405163fb8bd26f60e01b8152336004820152602481018390526001600160a01b039091169063fb8bd26f90604401600060405180830381600087803b1580156106a857600080fd5b505af11580156106bc573d6000803e3d6000fd5b505050507fffeb190f8352ac1065983b3497e5e86f5113112de90fe8a9b9c65441ff022761816040516106f191815260200190565b60405180910390a1505050565b600154604080516318160ddd60e01b815290516000926001600160a01b0316916318160ddd9160048083019260209291908290030181865afa158015610748573d6000803e3d6000fd5b505050506040513d601f19601f8201168201806040525081019061076c9190610a7d565b92915050565b60006020828403121561078457600080fd5b5035919050565b6001600160a01b03811681146107a057600080fd5b50565b6000602082840312156107b557600080fd5b81356107c08161078b565b9392505050565b600080604083850312156107da57600080fd5b82356107e58161078b565b915060208301356107f58161078b565b809150509250929050565b60008060006060848603121561081557600080fd5b83356108208161078b565b925060208401356108308161078b565b929592945050506040919091013590565b60006020828403121561085357600080fd5b813580151581146107c057600080fd5b634e487b7160e01b600052604160045260246000fd5b600067ffffffffffffffff8084111561089457610894610863565b604051601f8501601f19908116603f011681019082821181831017156108bc576108bc610863565b816040528093508581528686860111156108d557600080fd5b858560208301376000602087830101525050509392505050565b6000806040838503121561090257600080fd5b823561090d8161078b565b9150602083013567ffffffffffffffff81111561092957600080fd5b8301601f8101851361093a57600080fd5b61094985823560208401610879565b9150509250929050565b600080600080600060a0868803121561096b57600080fd5b85356109768161078b565b945060208601356109868161078b565b935060408601359250606086013567ffffffffffffffff8111156109a957600080fd5b8601601f810188136109ba57600080fd5b6109c988823560208401610879565b92505060808601356109da8161078b565b809150509295509295909350565b600080604083850312156109fb57600080fd5b50508035926020909101359150565b60005b83811015610a25578181015183820152602001610a0d565b50506000910152565b60008251610a40818460208701610a0a565b9190910192915050565b6020815260008251806020840152610a69816040850160208701610a0a565b601f01601f19169190910160400192915050565b600060208284031215610a8f57600080fd5b505191905056fea26469706673582212208e10b077957517c2c9361f594a6c530e8d499c7403f6403fd6c4ea375c0d3bc464736f6c63430008170033",
  "linkReferences": {},
  "deployedLinkReferences": {}
}