{
  "_format": "hh-sol-artifact-1",
  "contractName": "MockLibraryNonDep",
  "sourceName": "test-mocks/MockLibraryNonDep.sol",
  "abi": [
    {
      "anonymous": false,
      "inputs": [
        {
          "indexed": true,
          "internalType": "address",
          "name": "agentVault",
          "type": "address"
        },
        {
          "indexed": false,
          "internalType": "uint8",
          "name": "collateralClass",
          "type": "uint8"
        },
        {
          "indexed": false,
          "internalType": "address",
          "name": "token",
          "type": "address"
        }
      ],
      "name": "AgentCollateralTypeChanged",
      "type": "event"
    },
    {
      "anonymous": false,
      "inputs": [
        {
          "indexed": true,
          "internalType": "address",
          "name": "agentVault",
          "type": "address"
        },
        {
          "indexed": false,
          "internalType": "uint256",
          "name": "dustUBA",
          "type": "uint256"
        }
      ],
      "name": "DustChanged",
      "type": "event"
    },
    {
      "anonymous": false,
      "inputs": [
        {
          "indexed": true,
          "internalType": "address",
          "name": "agentVault",
          "type": "address"
        }
      ],
      "name": "LiquidationEnded",
      "type": "event"
    },
    {
      "anonymous": false,
      "inputs": [
        {
          "indexed": true,
          "internalType": "address",
          "name": "agentVault",
          "type": "address"
        },
        {
          "indexed": false,
          "internalType": "uint256",
          "name": "amountWei",
          "type": "uint256"
        },
        {
          "indexed": false,
          "internalType": "uint256",
          "name": "withdrawalAllowedAt",
          "type": "uint256"
        }
      ],
      "name": "PoolTokenRedemptionAnnounced",
      "type": "event"
    },
    {
      "anonymous": false,
      "inputs": [
        {
          "indexed": true,
          "internalType": "address",
          "name": "agentVault",
          "type": "address"
        },
        {
          "indexed": true,
          "internalType": "uint256",
          "name": "redemptionTicketId",
          "type": "uint256"
        },
        {
          "indexed": false,
          "internalType": "uint256",
          "name": "ticketValueUBA",
          "type": "uint256"
        }
      ],
      "name": "RedemptionTicketCreated",
      "type": "event"
    },
    {
      "anonymous": false,
      "inputs": [
        {
          "indexed": true,
          "internalType": "address",
          "name": "agentVault",
          "type": "address"
        },
        {
          "indexed": false,
          "internalType": "uint256",
          "name": "amountWei",
          "type": "uint256"
        },
        {
          "indexed": false,
          "internalType": "uint256",
          "name": "withdrawalAllowedAt",
          "type": "uint256"
        }
      ],
      "name": "VaultCollateralWithdrawalAnnounced",
      "type": "event"
    },
    {
      "inputs": [
        {
          "internalType": "address",
          "name": "_agentVault",
          "type": "address"
        }
      ],
      "name": "getAgentVaultOwner",
      "outputs": [
        {
          "internalType": "address",
          "name": "_ownerManagementAddress",
          "type": "address"
        }
      ],
      "stateMutability": "view",
      "type": "function"
    },
    {
      "inputs": [
        {
          "internalType": "uint256",
          "name": "_start",
          "type": "uint256"
        },
        {
          "internalType": "uint256",
          "name": "_end",
          "type": "uint256"
        }
      ],
      "name": "getAllAgents",
      "outputs": [
        {
          "internalType": "address[]",
          "name": "_agents",
          "type": "address[]"
        },
        {
          "internalType": "uint256",
          "name": "_totalLength",
          "type": "uint256"
        }
      ],
      "stateMutability": "view",
      "type": "function"
    },
    {
      "inputs": [
        {
          "internalType": "address",
          "name": "_agentVault",
          "type": "address"
        }
      ],
      "name": "getFAssetsBackedByPool",
      "outputs": [
        {
          "internalType": "uint256",
          "name": "",
          "type": "uint256"
        }
      ],
      "stateMutability": "view",
      "type": "function"
    },
    {
      "inputs": [
        {
          "internalType": "address",
          "name": "_agentVault",
          "type": "address"
        },
        {
          "internalType": "contract IERC20",
          "name": "_token",
          "type": "IERC20"
        }
      ],
      "name": "isLockedVaultToken",
      "outputs": [
        {
          "internalType": "bool",
          "name": "",
          "type": "bool"
        }
      ],
      "stateMutability": "view",
      "type": "function"
    }
  ],
  "bytecode": "0x6132f261003a600b82828239805160001a60731461002d57634e487b7160e01b600052600060045260246000fd5b30600052607381538281f3fe73000000000000000000000000000000000000000030146080604052600436106100a85760003560e01c8063c61ce7dd11610070578063c61ce7dd1461016e578063d4f3a0d21461018e578063e3d77851146101b1578063ed3762aa146101d1578063f4d000b2146101e457600080fd5b80634a2cb94e146100ad57806365454f94146100cf5780636e61164f146100ef578063a43ba5ab1461011f578063b19aec171461014d575b600080fd5b8180156100b957600080fd5b506100cd6100c8366004612dca565b610204565b005b8180156100db57600080fd5b506100cd6100ea366004612e0b565b6105e8565b6101026100fd366004612e0b565b61067e565b6040516001600160a01b0390911681526020015b60405180910390f35b81801561012b57600080fd5b5061013f61013a366004612e28565b61069c565b604051908152602001610116565b61016061015b366004612e4c565b610964565b604051610116929190612e6e565b81801561017a57600080fd5b506100cd610189366004612ebf565b610a7f565b6101a161019c366004612ebf565b610b10565b6040519015158152602001610116565b8180156101bd57600080fd5b506100cd6101cc366004612ebf565b610bcd565b61013f6101df366004612e0b565b610cb5565b8180156101f057600080fd5b506100cd6101ff366004612e0b565b610d09565b600061020f83610e7e565b9050600061021c82610f13565b6001600160a01b0316856001600160a01b03160361023c575060006102d0565b8154604080516332f7ce0b60e21b815290516001600160a01b039092169163cbdf382c916004808201926020929091908290030181865afa158015610285573d6000803e3d6000fd5b505050506040513d601f19601f820116820180604052508101906102a99190612ef8565b6001600160a01b0316856001600160a01b0316036102c9575060026102d0565b5050505050565b60006102dc8383610f77565b905060006102ea8484610fc4565b9050600160048086015460ff169081111561030757610307612f15565b1480610322575061031784611046565b6001600160401b0316155b6103735760405162461bcd60e51b815260206004820152601a60248201527f7769746864726177616c3a20696e76616c69642073746174757300000000000060448201526064015b60405180910390fd5b8154600160801b90046001600160401b03166000036103d45760405162461bcd60e51b815260206004820152601960248201527f7769746864726177616c3a206e6f7420616e6e6f756e63656400000000000000604482015260640161036a565b81546001600160801b031685111561042e5760405162461bcd60e51b815260206004820152601f60248201527f7769746864726177616c3a206d6f7265207468616e20616e6e6f756e63656400604482015260640161036a565b8154600160801b90046001600160401b031642101561048f5760405162461bcd60e51b815260206004820152601b60248201527f7769746864726177616c3a206e6f7420616c6c6f776564207965740000000000604482015260640161036a565b7fec7e8c1c441439dd40959777f4c577ea0cd42fcc1dbe59d2bd0f5d9c55df8dca54825460008051602061329d833981519152916104e891600160c01b9091046001600160401b0390811691600160801b900416612f41565b6001600160401b03164211156105375760405162461bcd60e51b81526020600482015260146024820152737769746864726177616c3a20746f6f206c61746560601b604482015260640161036a565b602082015161054683876110ac565b111561058d5760405162461bcd60e51b81526020600482015260166024820152757769746864726177616c3a20435220746f6f206c6f7760501b604482015260640161036a565b82546000906105a69088906001600160801b0316612f61565b84546001600160801b0319166001600160801b038216178555905060008190036105dd57835467ffffffffffffffff60801b191684555b505050505050505050565b60008051602061329d833981519152600061060283610e7e565b600e83015460068201549192506001600160401b0390811691161061067957600e8201546006820154600091610644916001600160401b039182169116612f8a565b60068301549091506000906106639083906001600160401b0316612fb0565b905061066f83826111dc565b6102c98383611290565b505050565b600061068982610e7e565b600101546001600160a01b031692915050565b6000826106a881611331565b60006106b385610e7e565b9050600160048083015460ff16908111156106d0576106d0612f15565b14806106eb57506106e081611046565b6001600160401b0316155b6107375760405162461bcd60e51b815260206004820152601e60248201527f7769746864726177616c20616e6e3a20696e76616c6964207374617475730000604482015260640161036a565b60006107438288610f77565b80549091506001600160801b03168511156108415760008051602061329d8339815191526000610773848a610fc4565b835490915060009061078e906001600160801b031689612f61565b905061079a828661138b565b8111156107e95760405162461bcd60e51b815260206004820152601a60248201527f7769746864726177616c3a2076616c756520746f6f2068696768000000000000604482015260640161036a565b60118301546108119061080c90600160801b90046001600160401b031642612fd0565b6113bd565b84546001600160401b0391909116600160801b0267ffffffffffffffff60801b199091161784555061085c915050565b8460000361085c57805467ffffffffffffffff60801b191681555b61086585611429565b81546001600160801b0319166001600160801b0391909116178155600087600281111561089457610894612f15565b036108f357805460408051878152600160801b9092046001600160401b031660208301526001600160a01b038816917f67212b72b610c952a34bdd8a6e005684df8b1a31e96ba45ae1dbfb926e5447fa910160405180910390a2610949565b805460408051878152600160801b9092046001600160401b031660208301526001600160a01b038816917fd8af9ece0435675178bfc0aba18c040e3bd5ad88eabd3d313cd0b469a8e1d06b910160405180910390a25b54600160801b90046001600160401b03169695505050505050565b7fec7e8c1c441439dd40959777f4c577ea0cd42fcc1dbe59d2bd0f5d9c55df8dcf5460609060008051602061329d8339815191526109a28483611492565b93506109ae8585611492565b94506109ba8585612f61565b6001600160401b038111156109d1576109d1612fe3565b6040519080825280602002602001820160405280156109fa578160200160208202803683370190505b509250845b84811015610a7657816019018181548110610a1c57610a1c612ff9565b6000918252602090912001546001600160a01b031684610a3c8884612f61565b81518110610a4c57610a4c612ff9565b6001600160a01b039092166020928302919091019091015280610a6e8161300f565b9150506109ff565b50509250929050565b6000610a8a83610e7e565b9050336001600160a01b0384161480610aac575080546001600160a01b031633145b610af85760405162461bcd60e51b815260206004820152601860248201527f6f6e6c79206167656e74207661756c74206f7220706f6f6c0000000000000000604482015260640161036a565b610b0281836114a8565b1561067957610679816114f2565b600080610b1c84610e7e565b9050610b2781610f13565b6001600160a01b0316836001600160a01b03161480610bc357508054604080516332f7ce0b60e21b815290516001600160a01b039092169163cbdf382c916004808201926020929091908290030181865afa158015610b8a573d6000803e3d6000fd5b505050506040513d601f19601f82011682018060405250810190610bae9190612ef8565b6001600160a01b0316836001600160a01b0316145b9150505b92915050565b81610bd781611331565b6000610be284610e7e565b90506000610bef826115e9565b8054909150600160b01b90046001600160401b0316600003610c5d5760405162461bcd60e51b815260206004820152602160248201527f63757272656e7420636f6c6c61746572616c206e6f74206465707265636174656044820152601960fa1b606482015260840161036a565b610c678285611642565b60408051600281526001600160a01b0386811660208301528716917f88b6ac79ad99776ae32e236db624ff70afc6aedfaa56430d9924c5165ceadef691015b60405180910390a25050505050565b600080610cc183610e7e565b6005810154909150610d02906001600160401b03600160c01b8204811691610cf391600160401b820481169116612f41565b610cfd9190612f41565b6117aa565b9392505050565b80610d1381611331565b6000610d1e83610e7e565b7fec7e8c1c441439dd40959777f4c577ea0cd42fcc1dbe59d2bd0f5d9c55df8ddb5460008051602061327d833981519152805492935060008051602061329d8339815191529260009261ffff16908110610d7a57610d7a612ff9565b60009182526020909120600491820201546025840154918501546001600160a01b0390911692506301000000900461ffff9081169116146102c95760258201546004848101805464ffff000000191661ffff909316630100000002929092179091558354604051637a68005960e11b81526001600160a01b038481169382019390935291169063f4d000b290602401600060405180830381600087803b158015610e2357600080fd5b505af1158015610e37573d6000803e3d6000fd5b505060408051600181526001600160a01b038581166020830152891693507f88b6ac79ad99776ae32e236db624ff70afc6aedfaa56430d9924c5165ceadef6925001610ca6565b60008051602061325d83398151915268010000000000000000600160e01b03604083901b161880600060048084015460ff1690811115610ec057610ec0612f15565b03610f0d5760405162461bcd60e51b815260206004820152601b60248201527f696e76616c6964206167656e74207661756c7420616464726573730000000000604482015260640161036a565b50919050565b600481015460008051602061327d833981519152805460009260008051602061329d833981519152929161010090910461ffff16908110610f5657610f56612ff9565b60009182526020909120600490910201546001600160a01b03169392505050565b60006001826002811115610f8d57610f8d612f15565b03610f9a57610f9a613028565b6000826002811115610fae57610fae612f15565b14610fbc5782600901610d02565b505060080190565b610fe96040805160608101909152806000815260200160008152602001600081525090565b6000826002811115610ffd57610ffd612f15565b036110125761100b836117fd565b9050610bc7565b600182600281111561102657611026612f15565b036110345761100b836118dc565b61100b83611041856118dc565b611957565b60058101546000906001600160401b03600160801b82048116600160c01b90920416111561107657611076613028565b60058201546001600160401b03600160801b82048116916110a29180821691600160401b900416612f41565b610bc79190612f41565b60008060006110bf848660000151611b2e565b600586015491935091506000906110e8906001600160401b03600160401b820481169116612fd0565b90506000611104846110fe848a60400151611c35565b90611c4f565b9050600060018851600281111561111d5761111d612f15565b1461113c576005870154600160801b90046001600160401b0316611152565b6005870154600160c01b90046001600160401b03165b90506000611171856110fe846001600160401b03168c60400151611c35565b9050600060018a51600281111561118a5761118a612f15565b036111965760006111ae565b89516111a3908a90610f77565b546001600160801b03165b6001600160801b03169050806111c48386612fd0565b6111ce9190612fd0565b9a9950505050505050505050565b60008051602061329d83398151915260008051602061325d833981519152831860401c600061122c7fec7e8c1c441439dd40959777f4c577ea0cd42fcc1dbe59d2bd0f5d9c55df8dd38386611c5e565b90506000611239856117aa565b9050816001600160401b0316836001600160a01b03167f631f8f2039090539b2ea4ef7dc567f7f1939ef4dd3e790b1ca7bc548a1fada588360405161128091815260200190565b60405180910390a3505050505050565b60068201546001600160401b038083169116036112ab575050565b60068201805467ffffffffffffffff19166001600160401b03831617905560006112d4826117aa565b905060008051602061325d833981519152831860401c6001600160a01b03167fa3db2bc927901a1d3ba09ad51d84609457b98443be9132a0a936a47c5a1081b58260405161132491815260200190565b60405180910390a2505050565b61134361133d82610e7e565b33612068565b6113885760405162461bcd60e51b815260206004820152601660248201527537b7363c9030b3b2b73a103b30bab63a1037bbb732b960511b604482015260640161036a565b50565b60008061139884846110ac565b905060006113b38286602001516120f990919063ffffffff16565b9695505050505050565b60006001600160401b038211156114255760405162461bcd60e51b815260206004820152602660248201527f53616665436173743a2076616c756520646f65736e27742066697420696e203660448201526534206269747360d01b606482015260840161036a565b5090565b60006001600160801b038211156114255760405162461bcd60e51b815260206004820152602760248201527f53616665436173743a2076616c756520646f65736e27742066697420696e20316044820152663238206269747360c81b606482015260840161036a565b60008183106114a15781610d02565b5090919050565b60006114b38361211b565b6001600160a01b0316826001600160a01b03161480610d0257506114d683610f13565b6001600160a01b0316826001600160a01b031614905092915050565b600260048083015460ff169081111561150d5761150d612f15565b146115155750565b600061152082612160565b9050600061152d836121d4565b9050600061153d848360006122b1565b9050600061154d858460016122b1565b905081846000015110158015611567575080846020015110155b156102c9576004850180547fff00000000000000000000ffffffffffffffffffffffffffffffffffffffff0016600117905560008051602061325d833981519152851860401c6001600160a01b03167fe513b42585b0ceec0d56d56fe3a23861c15a2f74eb4c32c94334d63d68ff4dcf60405160405180910390a25050505050565b600481015460008051602061327d833981519152805460009260008051602061329d833981519152929161010090910461ffff1690811061162c5761162c612ff9565b9060005260206000209060040201915050919050565b60008051602061329d833981519152600061165e600284612315565b9050600082601601828154811061167757611677612ff9565b60009182526020909120600490910201905060028154600160a01b900460ff1660028111156116a8576116a8612f15565b146116b5576116b5613028565b8054600160b01b90046001600160401b03161561170c5760405162461bcd60e51b815260206004820152601560248201527418dbdb1b185d195c985b0819195c1c9958d85d1959605a1b604482015260640161036a565b611715826123af565b8560040160016101000a81548161ffff021916908361ffff160217905550600061173e866117fd565b9050600061174c8288612412565b600384015490915063ffffffff168110156117a15760405162461bcd60e51b81526020600482015260156024820152741b9bdd08195b9bdd59da0818dbdb1b185d195c985b605a1b604482015260640161036a565b50505050505050565b7fec7e8c1c441439dd40959777f4c577ea0cd42fcc1dbe59d2bd0f5d9c55df8dc35460009060008051602061329d83398151915290610d0290600160901b90046001600160401b0390811690851661303e565b6118226040805160608101909152806000815260200160008152602001600081525090565b600061182d836115e9565b6040805160608101825260008152825482516370a0823160e01b815260008051602061325d833981519152881890931c6001600160a01b039081166004850152939450909260208401929116906370a08231906024015b602060405180830381865afa1580156118a1573d6000803e3d6000fd5b505050506040513d601f19601f820116820180604052508101906118c59190613055565b81526020016118d3836124d3565b90529392505050565b6119016040805160608101909152806000815260200160008152602001600081525090565b600061190c836124e9565b60408051606081019091529091508060018152825485546040516370a0823160e01b81526001600160a01b0391821660048201526020909301929116906370a0823190602401611884565b61197c6040805160608101909152806000815260200160008152602001600081525090565b8254604080516332f7ce0b60e21b815290516000926001600160a01b03169163cbdf382c9160048083019260209291908290030181865afa1580156119c5573d6000803e3d6000fd5b505050506040513d601f19601f820116820180604052508101906119e99190612ef8565b905060006001600160a01b0382166370a0823160008051602061325d833981519152871860401c6040516001600160e01b031960e084901b1681526001600160a01b039091166004820152602401602060405180830381865afa158015611a54573d6000803e3d6000fd5b505050506040513d601f19601f82011682018060405250810190611a789190613055565b90506000826001600160a01b03166318160ddd6040518163ffffffff1660e01b8152600401602060405180830381865afa158015611aba573d6000803e3d6000fd5b505050506040513d601f19601f82011682018060405250810190611ade9190613055565b905060008560200151600003611af5576000611b0a565b60208601516040870151611b0a91849061252e565b60408051606081018252600281526020810195909552840152509095945050505050565b6000806002836002811115611b4557611b45612f15565b03611bad57600080611b58866001611b2e565b915091506000611b7360008051602061329d83398151915290565b600d015463ffffffff64010000000090910481169150611b979082908490611c4f16565b9350611ba38184611c4f565b9450505050611c2e565b6001836002811115611bc157611bc1612f15565b03611bfc57611bcf846124e9565b60030154600485015463ffffffff9182169250611bf591600160881b9091041682612654565b9150611c2e565b611c05846115e9565b60030154600485015463ffffffff9182169250611c2b91600160681b9091041682612654565b91505b9250929050565b6000610d0282611c476009600a613152565b85919061252e565b6000610d02838361271061252e565b6001600160a01b03821660009081526001840160205260408120600285018054839190601090611c9d90600160801b90046001600160401b031661315e565b91906101000a8154816001600160401b0302191690836001600160401b03160217905590506040518060c00160405280866001600160a01b03168152602001856001600160401b031681526020018760020160089054906101000a90046001600160401b03166001600160401b0316815260200160006001600160401b031681526020018360000160089054906101000a90046001600160401b03166001600160401b0316815260200160006001600160401b0316815250866000016000836001600160401b03166001600160401b0316815260200190815260200160002060008201518160000160006101000a8154816001600160a01b0302191690836001600160a01b0316021790555060208201518160000160146101000a8154816001600160401b0302191690836001600160401b0316021790555060408201518160010160006101000a8154816001600160401b0302191690836001600160401b0316021790555060608201518160010160086101000a8154816001600160401b0302191690836001600160401b0316021790555060808201518160010160106101000a8154816001600160401b0302191690836001600160401b0316021790555060a08201518160010160186101000a8154816001600160401b0302191690836001600160401b031602179055509050508560020160009054906101000a90046001600160401b03166001600160401b0316600003611efa576002860154600160401b90046001600160401b031615611ed757611ed7613028565b60028601805467ffffffffffffffff19166001600160401b038316179055611f62565b6002860154600160401b90046001600160401b0316600003611f1e57611f1e613028565b6002860154600160401b908190046001600160401b039081166000908152602089905260409020600101805467ffffffffffffffff60401b19169184169092021790555b6002860180546001600160401b03808416600160401b0267ffffffffffffffff60401b1990921691909117909155825416600003611fd8578154600160401b90046001600160401b031615611fb957611fb9613028565b815467ffffffffffffffff19166001600160401b03821617825561203b565b8154600160401b90046001600160401b0316600003611ff957611ff9613028565b81546001600160401b03600160401b909104811660009081526020889052604090206001018054918316600160c01b026001600160c01b039092169190911790555b815467ffffffffffffffff60401b1916600160401b6001600160401b038316021790915590509392505050565b60018201546000906001600160a01b03908116908316811480610bc357507fec7e8c1c441439dd40959777f4c577ea0cd42fcc1dbe59d2bd0f5d9c55df8dbd546001600160a01b0316604051631f86345d60e31b81526001600160a01b038381166004830152919091169063fc31a2e890602401602060405180830381865afa158015610b8a573d6000803e3d6000fd5b6000808383111561210f57506000905080611c2e565b50600193919092039150565b600481015460008051602061327d833981519152805460009260008051602061329d8339815191529291630100000090910461ffff16908110610f5657610f56612ff9565b61218b6040518060800160405280600081526020016000815260200160008152602001600081525090565b600080612199846000612663565b915091506000806121ab866001612663565b604080516080810182529687526020870192909252908501939093525050606082015292915050565b60008060008051602061329d833981519152600484015490915060ff16600281600481111561220557612205612f15565b0361228457600060016004860154600160e81b900460ff16600281111561222e5761222e612f15565b14801561226a57506012830154600486015461225d916001600160401b0390811691600160a81b900416612f41565b6001600160401b03164211155b90508061227857600261227b565b60015b95945050505050565b600381600481111561229857612298612f15565b036122a7575060029392505050565b5060009392505050565b6000806122be85846126b1565b905060018460028111156122d4576122d4612f15565b14806122e757506122e58584612765565b155b156122fd576003015463ffffffff169050610d02565b60030154600160401b900463ffffffff169050610d02565b600060008051602061329d833981519152817fec7e8c1c441439dd40959777f4c577ea0cd42fcc1dbe59d2bd0f5d9c55df8dcd8161235387876127ce565b8152602001908152602001600020549050600081116123a45760405162461bcd60e51b815260206004820152600d60248201526c3ab735b737bbb7103a37b5b2b760991b604482015260640161036a565b61227b600182612f61565b600061ffff8211156114255760405162461bcd60e51b815260206004820152602660248201527f53616665436173743a2076616c756520646f65736e27742066697420696e203160448201526536206269747360d01b606482015260840161036a565b60008060018451600281111561242a5761242a612f15565b14612449576005830154600160801b90046001600160401b031661245f565b6005830154600160c01b90046001600160401b03165b60058401546001600160401b039182169250600091839161248b9181811691600160401b900416612fd0565b6124959190612fd0565b9050806000036124ae576402540be40092505050610bc7565b60006124be828760400151611c35565b60208701519091506113b3906127108361252e565b60006124e08260006127f8565b50909392505050565b600481015460008051602061327d833981519152805460009260008051602061329d8339815191529291630100000090910461ffff1690811061162c5761162c612ff9565b60008082116125725760405162461bcd60e51b815260206004820152601060248201526f4469766973696f6e206279207a65726f60801b604482015260640161036a565b8360000361258257506000610d02565b8383028385828161259557612595612f74565b04036125b3578281816125aa576125aa612f74565b04915050610d02565b5060006125c08386613184565b905060006125ce8487613198565b905060006125dc8587613184565b905060006125ea8688613198565b9050856125f7828561303e565b6126019190613184565b61260b838561303e565b612615838761303e565b88612620868961303e565b61262a919061303e565b6126349190612fd0565b61263e9190612fd0565b6126489190612fd0565b98975050505050505050565b60008183116114a15781610d02565b60008060008061267386866129b7565b9150915060006126838388612412565b905060006126918389612412565b9050836040015194506126a48282612654565b9550505050509250929050565b600060028260028111156126c7576126c7612f15565b036126d4576126d4613028565b60008051602061329d83398151915260008360028111156126f7576126f7612f15565b036127375760048401546016820180549091610100900461ffff1690811061272157612721612ff9565b9060005260206000209060040201915050610bc7565b600484015460168201805490916301000000900461ffff1690811061272157612721612ff9565b5092915050565b60008082600281111561277a5761277a612f15565b0361279657506004820154600160f01b90046001161515610bc7565b60018260028111156127aa576127aa612f15565b146127b7576127b7613028565b506004820154600160f01b90046002161515610bc7565b6000816001600160a01b031660a08460028111156127ee576127ee612f15565b901b179392505050565b600080600080600080612897886001018054612813906131ac565b80601f016020809104026020016040519081016040528092919081815260200182805461283f906131ac565b801561288c5780601f106128615761010080835404028352916020019161288c565b820191906000526020600020905b81548152906001019060200180831161286f57829003601f168201915b505050505088612b1a565b8a549295509093509150600160f01b900460ff16156128de5787546000906128cd90600160a81b900460ff166001838786612c08565b96509194508493506129b092505050565b60008060006129798b60020180546128f5906131ac565b80601f0160208091040260200160405190810160405280929190818152602001828054612921906131ac565b801561296e5780601f106129435761010080835404028352916020019161296e565b820191906000526020600020905b81548152906001019060200180831161295157829003601f168201915b50505050508b612b1a565b8d54929550909350915060009061299d90600160a81b900460ff1685848a89612c08565b99509497509095506129b0945050505050565b9250925092565b6129dc6040805160608101909152806000815260200160008152602001600081525090565b612a016040805160608101909152806000815260200160008152602001600081525090565b6000612a0d85856126b1565b90506000612a1b8686612c8f565b90506000612a2883612cd2565b612a33576000612aa0565b82546040516370a0823160e01b81526001600160a01b038481166004830152909116906370a0823190602401602060405180830381865afa158015612a7c573d6000803e3d6000fd5b505050506040513d601f19601f82011682018060405250810190612aa09190613055565b9050600080612aae85612d06565b915091506040518060600160405280896002811115612acf57612acf612f15565b81526020018481526020018381525096506040518060600160405280896002811115612afd57612afd612f15565b815260200184815260200182815250955050505050509250929050565b7fec7e8c1c441439dd40959777f4c577ea0cd42fcc1dbe59d2bd0f5d9c55df8dc1546000908190819060008051602061329d833981519152906001600160a01b03168515612bdc5760405163e4a0a55b60e01b81526001600160a01b0382169063e4a0a55b90612b8e908a906004016131e0565b606060405180830381865afa158015612bab573d6000803e3d6000fd5b505050506040513d601f19601f82011682018060405250810190612bcf919061322e565b94509450945050506129b0565b60405163524f388960e01b81526001600160a01b0382169063524f388990612b8e908a906004016131e0565b600060008051602061329d833981519152816009612c26878a612fd0565b612c309190612fd0565b600b830154909150600090612c50908690600160a81b900460ff16612fd0565b905080821015612c6257612c62613028565b612c82612c6f8284612f61565b612c7a90600a613152565b87908a61252e565b9998505050505050505050565b60006001826002811115612ca557612ca5612f15565b14612cc35760008051602061325d833981519152831860401c610d02565b5050546001600160a01b031690565b8054600090600160b01b90046001600160401b03161580610bc75750505442600160b01b9091046001600160401b03161190565b60008060008051602061329d833981519152818080612d2587826127f8565b9250925092506000806000612d3b8a60016127f8565b60118a015492955090935091506000908590612d6790600160c01b90046001600160401b031684612fd0565b10158015612d94575060118801548690612d9190600160c01b90046001600160401b031685612fd0565b10155b905086995080612da45786612da6565b835b98505050505050505050915091565b6001600160a01b038116811461138857600080fd5b600080600060608486031215612ddf57600080fd5b8335612dea81612db5565b92506020840135612dfa81612db5565b929592945050506040919091013590565b600060208284031215612e1d57600080fd5b8135610d0281612db5565b600080600060608486031215612e3d57600080fd5b833560038110612dea57600080fd5b60008060408385031215612e5f57600080fd5b50508035926020909101359150565b604080825283519082018190526000906020906060840190828701845b82811015612eb05781516001600160a01b031684529284019290840190600101612e8b565b50505092019290925292915050565b60008060408385031215612ed257600080fd5b8235612edd81612db5565b91506020830135612eed81612db5565b809150509250929050565b600060208284031215612f0a57600080fd5b8151610d0281612db5565b634e487b7160e01b600052602160045260246000fd5b634e487b7160e01b600052601160045260246000fd5b6001600160401b0381811683821601908082111561275e5761275e612f2b565b81810381811115610bc757610bc7612f2b565b634e487b7160e01b600052601260045260246000fd5b60006001600160401b0380841680612fa457612fa4612f74565b92169190910692915050565b6001600160401b0382811682821603908082111561275e5761275e612f2b565b80820180821115610bc757610bc7612f2b565b634e487b7160e01b600052604160045260246000fd5b634e487b7160e01b600052603260045260246000fd5b60006001820161302157613021612f2b565b5060010190565b634e487b7160e01b600052600160045260246000fd5b8082028115828204841417610bc757610bc7612f2b565b60006020828403121561306757600080fd5b5051919050565b600181815b808511156130a957816000190482111561308f5761308f612f2b565b8085161561309c57918102915b93841c9390800290613073565b509250929050565b6000826130c057506001610bc7565b816130cd57506000610bc7565b81600181146130e357600281146130ed57613109565b6001915050610bc7565b60ff8411156130fe576130fe612f2b565b50506001821b610bc7565b5060208310610133831016604e8410600b841016171561312c575081810a610bc7565b613136838361306e565b806000190482111561314a5761314a612f2b565b029392505050565b6000610d0283836130b1565b60006001600160401b0380831681810361317a5761317a612f2b565b6001019392505050565b60008261319357613193612f74565b500490565b6000826131a7576131a7612f74565b500690565b600181811c908216806131c057607f821691505b602082108103610f0d57634e487b7160e01b600052602260045260246000fd5b600060208083528351808285015260005b8181101561320d578581018301518582016040015282016131f1565b506000604082860101526040601f19601f8301168501019250505092915050565b60008060006060848603121561324357600080fd5b835192506020840151915060408401519050925092509256fe5bebac0595fee029d42bb673937f5f1cb81cf8641382bc17774635de9b7d7965ec7e8c1c441439dd40959777f4c577ea0cd42fcc1dbe59d2bd0f5d9c55df8dccec7e8c1c441439dd40959777f4c577ea0cd42fcc1dbe59d2bd0f5d9c55df8db6a2646970667358221220d8dbf69ca6685490effd3d160e4bd3364753f5fd891eb2418a9384324863c7fd64736f6c63430008140033",
  "linkReferences": {},
  "deployedLinkReferences": {}
}