{
  "_format": "hh-sol-artifact-1",
  "contractName": "CollateralReservations",
  "sourceName": "contracts/fasset/library/CollateralReservations.sol",
  "abi": [
    {
      "anonymous": false,
      "inputs": [
        {
          "indexed": true,
          "internalType": "address",
          "name": "agentVault",
          "type": "address"
        },
        {
          "indexed": true,
          "internalType": "address",
          "name": "minter",
          "type": "address"
        },
        {
          "indexed": false,
          "internalType": "uint256",
          "name": "collateralReservationId",
          "type": "uint256"
        },
        {
          "indexed": false,
          "internalType": "uint256",
          "name": "reservedAmountUBA",
          "type": "uint256"
        }
      ],
      "name": "CollateralReservationDeleted",
      "type": "event"
    },
    {
      "anonymous": false,
      "inputs": [
        {
          "indexed": true,
          "internalType": "address",
          "name": "agentVault",
          "type": "address"
        },
        {
          "indexed": true,
          "internalType": "address",
          "name": "minter",
          "type": "address"
        },
        {
          "indexed": false,
          "internalType": "uint256",
          "name": "collateralReservationId",
          "type": "uint256"
        },
        {
          "indexed": false,
          "internalType": "uint256",
          "name": "valueUBA",
          "type": "uint256"
        },
        {
          "indexed": false,
          "internalType": "uint256",
          "name": "feeUBA",
          "type": "uint256"
        },
        {
          "indexed": false,
          "internalType": "uint256",
          "name": "firstUnderlyingBlock",
          "type": "uint256"
        },
        {
          "indexed": false,
          "internalType": "uint256",
          "name": "lastUnderlyingBlock",
          "type": "uint256"
        },
        {
          "indexed": false,
          "internalType": "uint256",
          "name": "lastUnderlyingTimestamp",
          "type": "uint256"
        },
        {
          "indexed": false,
          "internalType": "string",
          "name": "paymentAddress",
          "type": "string"
        },
        {
          "indexed": false,
          "internalType": "bytes32",
          "name": "paymentReference",
          "type": "bytes32"
        }
      ],
      "name": "CollateralReserved",
      "type": "event"
    },
    {
      "anonymous": false,
      "inputs": [
        {
          "indexed": true,
          "internalType": "address",
          "name": "agentVault",
          "type": "address"
        },
        {
          "indexed": true,
          "internalType": "address",
          "name": "minter",
          "type": "address"
        },
        {
          "indexed": false,
          "internalType": "uint256",
          "name": "collateralReservationId",
          "type": "uint256"
        },
        {
          "indexed": false,
          "internalType": "uint256",
          "name": "reservedAmountUBA",
          "type": "uint256"
        }
      ],
      "name": "MintingPaymentDefault",
      "type": "event"
    },
    {
      "inputs": [
        {
          "internalType": "uint64",
          "name": "_lots",
          "type": "uint64"
        }
      ],
      "name": "calculateReservationFee",
      "outputs": [
        {
          "internalType": "uint256",
          "name": "",
          "type": "uint256"
        }
      ],
      "stateMutability": "view",
      "type": "function"
    }
  ],
  "bytecode": "0x61336961003a600b82828239805160001a60731461002d57634e487b7160e01b600052600060045260246000fd5b30600052607381538281f3fe73000000000000000000000000000000000000000030146080604052600436106100565760003560e01c80630c7dcd151461005b578063322e1ae3146100805780635e2c2ead146100a2578063f2821a62146100c2575b600080fd5b61006e610069366004612aeb565b6100e2565b60405190815260200160405180910390f35b81801561008c57600080fd5b506100a061009b366004612b06565b61015b565b005b8180156100ae57600080fd5b506100a06100bd366004612b59565b610558565b8180156100ce57600080fd5b506100a06100dd366004612ba9565b6107b3565b7fec7e8c1c441439dd40959777f4c577ea0cd42fcc1dbe59d2bd0f5d9c55df8dd8546000906000805160206133148339815191529082906101269061ffff16610e8b565b600b83015490915061015390829061014e90600160b01b90046001600160401b031687612c17565b610ed6565b949350505050565b600061016682610f21565b6002810154909150600090610183906001600160a01b0316610fc2565b905061018e81611057565b610197846110a9565b81546000906101ae906001600160401b03166111c4565b905067464250526641000160c01b6001600160401b038516178560a001351480156101e0575081600301548560800135145b801561021a575060018301546101ff906001600160801b031682612c42565b61020f60e0870160c08801612c6c565b6001600160801b0316145b61026b5760405162461bcd60e51b815260206004820152601c60248201527f6d696e74696e67206e6f6e2d7061796d656e74206d69736d617463680000000060448201526064015b60405180910390fd5b8254600160801b90046001600160401b031661028f61014087016101208801612aeb565b6001600160401b03161180156102cf57508254600160c01b90046001600160401b03166102c461016087016101408801612aeb565b6001600160401b0316115b61031b5760405162461bcd60e51b815260206004820152601960248201527f6d696e74696e672064656661756c7420746f6f206561726c79000000000000006044820152606401610262565b8254600160401b90046001600160401b031661033e610100870160e08801612aeb565b6001600160401b031611156103a85760405162461bcd60e51b815260206004820152602a60248201527f6d696e74696e67206e6f6e2d7061796d656e742070726f6f662077696e646f77604482015269081d1bdbc81cda1bdc9d60b21b6064820152608401610262565b60018301546000906103c49084906001600160801b031661121e565b6103ce9083612c42565b60038501546002860154604080516001600160401b038a168152602081018590529394506001600160a01b039283169392909116917f9bcf1e111381daaf8ec9ce1420115fc2bb960d5dd94b1e871256cb2e6cbd5aa0910160405180910390a36004830154600185015460009161046091600160801b90046001600160801b031690600160581b900461ffff16611245565b905061046b84611254565b845460405163b760faf960e01b81526001600160a01b03918216600482015291169063b760faf99083906024016000604051808303818588803b1580156104b157600080fd5b505af11580156104c5573d6000803e3d6000fd5b50505050600286015460018701546001600160a01b03909116915063d1b8890e90610501908490600160801b90046001600160801b0316612c87565b6040518263ffffffff1660e01b81526004016000604051808303818588803b15801561052c57600080fd5b505af1158015610540573d6000803e3d6000fd5b505050505061054f85876112cc565b50505050505050565b600080516020613314833981519152600061057283610f21565b600281015490915060009061058f906001600160a01b0316610fc2565b905061059a81611057565b6105a3856113ee565b8154600160801b90046001600160401b03166105c560c0870160a08801612aeb565b6001600160401b031611801561060357508154600160c01b90046001600160401b03166105f860e0870160c08801612aeb565b6001600160401b0316115b801561065a575061061a6080860160608701612aeb565b600f8401546001600160401b0391821691600160401b9091041661064460e0880160c08901612aeb565b61064e9190612c9a565b6001600160401b031611155b6106a65760405162461bcd60e51b815260206004820152601a60248201527f63616e6e6f7420756e737469636b206d696e74696e67207965740000000000006044820152606401610262565b60018201546106c490600160801b90046001600160801b031661150b565b60048101546000906106de90610100900461ffff16610e8b565b83549091506000906106f9906001600160401b031683611572565b9050610705838261158c565b60018401546000906107219085906001600160801b031661121e565b8554610735906001600160401b03166111c4565b61073f9190612c42565b60038601546002870154604080516001600160401b038c168152602081018590529394506001600160a01b039283169392909116917f8989bc1e07f872f783e99c06825dfe6c20f9ca1bc2501de1e931a5872f0e8814910160405180910390a36107a985886112cc565b5050505050505050565b60006107be84610fc2565b90506107c981611774565b60006107d48261178b565b7fec7e8c1c441439dd40959777f4c577ea0cd42fcc1dbe59d2bd0f5d9c55df8dd954909150600080516020613314833981519152906001600160401b0316156108505760405162461bcd60e51b815260206004820152600e60248201526d1b5a5b9d1a5b99c81c185d5cd95960921b6044820152606401610262565b600483015465010000000000900463ffffffff166000036108b35760405162461bcd60e51b815260206004820152601760248201527f6167656e74206e6f7420696e206d696e742071756575650000000000000000006044820152606401610262565b6000856001600160401b0316116109015760405162461bcd60e51b815260206004820152601260248201527163616e6e6f74206d696e742030206c6f747360701b6044820152606401610262565b600160048085015460ff169081111561091c5761091c612cc1565b146109695760405162461bcd60e51b815260206004820152601860248201527f72633a20696e76616c6964206167656e742073746174757300000000000000006044820152606401610262565b6001600160401b03851661097d8385611835565b10156109cb5760405162461bcd60e51b815260206004820152601a60248201527f6e6f7420656e6f756768206672656520636f6c6c61746572616c0000000000006044820152606401610262565b6004830154600160481b900461ffff166001600160401b0385161015610a2a5760405162461bcd60e51b81526020600482015260146024820152730c2cecadce84ee640cccaca40e8dede40d0d2ced60631b6044820152606401610262565b600b810154600090610a4c90600160b01b90046001600160401b031687612c17565b9050610a5781611889565b600584018054829190600090610a779084906001600160401b0316612c9a565b92506101000a8154816001600160401b0302191690836001600160401b03160217905550808260210160188282829054906101000a90046001600160401b0316610ac19190612c9a565b92506101000a8154816001600160401b0302191690836001600160401b031602179055506000610af0826111c4565b6004860154909150600090610b11908390600160481b900461ffff16611245565b90506000610b2786602001516040015185610ed6565b9050803414610b785760405162461bcd60e51b815260206004820152601860248201527f696e617070726f7072696174652066656520616d6f756e7400000000000000006044820152606401610262565b600080610b836119e0565b91509150610b8f611ab2565b602188018054600090610bac9084906001600160401b0316612c9a565b82546001600160401b0391821661010093840a908102908302199091161790925560218a01546040805192830181528a8416835260228c015462010000900484166020840152868416908301528483166060830152909116915060808101610c1387611ad0565b6001600160801b03168152602001610c2a86611ad0565b6001600160801b031681526020018e6001600160a01b031681526020018f6001600160a01b0316815250886019016000836001600160401b03166001600160401b0316815260200190815260200160002060008201518160000160006101000a8154816001600160401b0302191690836001600160401b0316021790555060208201518160000160086101000a8154816001600160401b0302191690836001600160401b0316021790555060408201518160000160106101000a8154816001600160401b0302191690836001600160401b0316021790555060608201518160000160186101000a8154816001600160401b0302191690836001600160401b0316021790555060808201518160010160006101000a8154816001600160801b0302191690836001600160801b0316021790555060a08201518160010160106101000a8154816001600160801b0302191690836001600160801b0316021790555060c08201518160020160006101000a8154816001600160a01b0302191690836001600160a01b0316021790555060e08201518160030160006101000a8154816001600160a01b0302191690836001600160a01b0316021790555090505060008a60020190508e6001600160a01b03168e6001600160a01b03167f53524e67a3882ff39664f8de1fab9a03e96c35f3a354123ba43064b3271f9ebe848a8a8e60220160029054906101000a90046001600160401b03168a8a89610e5e8c6001600160401b031667464250526641000160c01b1790565b604051610e72989796959493929190612d0b565b60405180910390a3505050505050505050505050505050565b6000806000805160206133148339815191529050610ecc816012018481548110610eb757610eb7612dff565b90600052602060002090600402016000611b3d565b5090949350505050565b600080610eec836001600160401b031685611572565b9050610f17600080516020613314833981519152600b01548290640100000000900461ffff16611245565b9150505b92915050565b60006000805160206133148339815191526001600160401b03831615801590610f6557506001600160401b0380841660009081526019830160205260409020541615155b610fa25760405162461bcd60e51b815260206004820152600e60248201526d1a5b9d985b1a590818dc9d081a5960921b6044820152606401610262565b6001600160401b0390921660009081526019909201602052506040902090565b6000805160206132f483398151915268010000000000000000600160e01b03604083901b161880600060048084015460ff169081111561100457611004612cc1565b036110515760405162461bcd60e51b815260206004820152601b60248201527f696e76616c6964206167656e74207661756c74206164647265737300000000006044820152606401610262565b50919050565b6110618133611cfc565b6110a65760405162461bcd60e51b815260206004820152601660248201527537b7363c9030b3b2b73a103b30bab63a1037bbb732b960511b6044820152606401610262565b50565b7fec7e8c1c441439dd40959777f4c577ea0cd42fcc1dbe59d2bd0f5d9c55df8dbc547fec7e8c1c441439dd40959777f4c577ea0cd42fcc1dbe59d2bd0f5d9c55df8dc05460405163faa386ed60e01b8152600080516020613314833981519152926001600160a01b031691829163faa386ed9161113991600160b01b90910463ffffffff16908790600401612e8f565b602060405180830381865afa158015611156573d6000803e3d6000fd5b505050506040513d601f19601f8201168201806040525081019061117a9190612fdd565b6111bf5760405162461bcd60e51b81526020600482015260166024820152751b9bdb8b5c185e5b595b9d081b9bdd081c1c9bdd995960521b6044820152606401610262565b505050565b7fec7e8c1c441439dd40959777f4c577ea0cd42fcc1dbe59d2bd0f5d9c55df8dc1546000906000805160206133148339815191529061121790600160701b90046001600160401b03908116908516612fff565b9392505050565b600482015460009061121790611240908490600160581b900461ffff16611245565b611d56565b60006112178383612710611daf565b60048101547fec7e8c1c441439dd40959777f4c577ea0cd42fcc1dbe59d2bd0f5d9c55df8dc880546000926000805160206133148339815191529291630100000090910461ffff169081106112ab576112ab612dff565b60009182526020909120600490910201546001600160a01b03169392505050565b6002820154600080516020613314833981519152906000906112f6906001600160a01b0316610fc2565b6005810154855460408051808201909152601381527234b73b30b634b2103932b9b2b93b30ba34b7b760691b6020820152929350611343926001600160401b039283169290911690611ed5565b60058201805467ffffffffffffffff19166001600160401b039283161790558454602184018054918316929091601891611387918591600160c01b90910416613016565b82546101009290920a6001600160401b03818102199093169183160217909155939093166000908152601992909201602052506040812081815560018101919091556002810180546001600160a01b03199081169091556003909101805490911690555050565b7fec7e8c1c441439dd40959777f4c577ea0cd42fcc1dbe59d2bd0f5d9c55df8dbc547fec7e8c1c441439dd40959777f4c577ea0cd42fcc1dbe59d2bd0f5d9c55df8dc054604051633753b44560e11b8152600080516020613314833981519152926001600160a01b0316918291636ea7688a9161147e91600160b01b90910463ffffffff16908790600401613036565b602060405180830381865afa15801561149b573d6000803e3d6000fd5b505050506040513d601f19601f820116820180604052508101906114bf9190612fdd565b6111bf5760405162461bcd60e51b815260206004820152601760248201527f626c6f636b20686569676874206e6f742070726f7665640000000000000000006044820152606401610262565b7fec7e8c1c441439dd40959777f4c577ea0cd42fcc1dbe59d2bd0f5d9c55df8dbf54604051600080516020613314833981519152916001600160a01b0316906108fc8415029084906000818181858888f193505050501580156111bf573d6000803e3d6000fd5b6000611217826115846009600a6131e1565b859190611daf565b600061159783611f20565b905060006115a484611f8b565b805483549192506001600160a01b039081169116036115cc576115c78484611fe2565b61176e565b7fec7e8c1c441439dd40959777f4c577ea0cd42fcc1dbe59d2bd0f5d9c55df8dc654600080516020613314833981519152906000805160206132f4833981519152861860401c9060009061163890600160801b900463ffffffff16611632888888612071565b90611245565b8554600189015460405163083e007560e21b81526001600160a01b0392831660048201529082166024820152604481018990529192508316906320f801d490606401600060405180830381600087803b15801561169457600080fd5b505af11580156116a8573d6000803e3d6000fd5b50505050803410156116fc5760405162461bcd60e51b815260206004820152601960248201527f6e6f7420656e6f7567682066756e64732070726f7669646564000000000000006044820152606401610262565b6117058161150b565b8034111561054f576001600160a01b03821663d1b8890e6117268334612c87565b6040518263ffffffff1660e01b81526004016000604051808303818588803b15801561175157600080fd5b505af1158015611765573d6000803e3d6000fd5b50505050505050505b50505050565b60018101546110a6906001600160a01b0316612097565b6117f66040805160c081019091526000606082018181526080830182905260a083019190915281908152604080516060810182526000808252602082810182905292820152910190815260408051606081018252600080825260208281018290529282015291015290565b60006118018361217c565b9050604051806060016040528061181785612242565b815260200182815260200161182c85846122cd565b90529392505050565b6000806118468460000151846124a4565b905060006118588560200151856124a4565b9050600061186a8660400151866124a4565b905061187f8361187a84846124da565b6124da565b9695505050505050565b7fec7e8c1c441439dd40959777f4c577ea0cd42fcc1dbe59d2bd0f5d9c55df8dc2546000805160206133148339815191529061010090046001600160401b031660008190036118d757505050565b6001820154604080516318160ddd60e01b815290516000926001600160a01b0316916318160ddd9160048083019260209291908290030181865afa158015611923573d6000803e3d6000fd5b505050506040513d601f19601f8201168201806040525081019061194791906131ed565b90506000611954826124f0565b60218501546119739190600160c01b90046001600160401b0316612c9a565b6001600160401b0316905082856001600160401b0316826119949190612c42565b11156119d95760405162461bcd60e51b81526020600482015260146024820152731b5a5b9d1a5b99c818d85c08195e18d95959195960621b6044820152606401610262565b5050505050565b7fec7e8c1c441439dd40959777f4c577ea0cd42fcc1dbe59d2bd0f5d9c55df8dd8546000908190600080516020613314833981519152908290600160901b90046001600160401b0316611a3242612543565b611a3c9190613016565b600c8301546022840154919250611a6d916001600160401b03600160481b9092048216916201000090910416612c9a565b600c83015460228401549195506001600160401b03600160881b909104811691611aa0918491600160501b900416612c9a565b611aaa9190612c9a565b925050509091565b6000611ac06103e84361321c565b611acb906001612c42565b905090565b60006001600160801b03821115611b395760405162461bcd60e51b815260206004820152602760248201527f53616665436173743a2076616c756520646f65736e27742066697420696e20316044820152663238206269747360c81b6064820152608401610262565b5090565b600080600080600080611bdc886001018054611b5890612cd7565b80601f0160208091040260200160405190810160405280929190818152602001828054611b8490612cd7565b8015611bd15780601f10611ba657610100808354040283529160200191611bd1565b820191906000526020600020905b815481529060010190602001808311611bb457829003601f168201915b5050505050886125ab565b8a549295509093509150600160f01b900460ff1615611c23578754600090611c1290600160a81b900460ff166001838786612707565b9650919450849350611cf592505050565b6000806000611cbe8b6002018054611c3a90612cd7565b80601f0160208091040260200160405190810160405280929190818152602001828054611c6690612cd7565b8015611cb35780601f10611c8857610100808354040283529160200191611cb3565b820191906000526020600020905b815481529060010190602001808311611c9657829003601f168201915b50505050508b6125ab565b8d549295509093509150600090611ce290600160a81b900460ff1685848a89612707565b9950949750909550611cf5945050505050565b9250925092565b6001820154600090600080516020613314833981519152906001600160a01b03908116908416811480611d4d57506001600160a01b0380821660009081526015840160205260409020548582169116145b95945050505050565b7fec7e8c1c441439dd40959777f4c577ea0cd42fcc1dbe59d2bd0f5d9c55df8dc15460009060008051602061331483398151915290611da590600160701b90046001600160401b03168461321c565b6112179084612c87565b6000808211611df35760405162461bcd60e51b815260206004820152601060248201526f4469766973696f6e206279207a65726f60801b6044820152606401610262565b83600003611e0357506000611217565b83830283858281611e1657611e16613206565b0403611e3457828181611e2b57611e2b613206565b04915050611217565b506000611e418386613230565b90506000611e4f848761321c565b90506000611e5d8587613230565b90506000611e6b868861321c565b905085611e788285612fff565b611e829190613230565b611e8c8385612fff565b611e968387612fff565b88611ea18689612fff565b611eab9190612fff565b611eb59190612c42565b611ebf9190612c42565b611ec99190612c42565b98975050505050505050565b6000826001600160401b0316846001600160401b031610158290611f0c5760405162461bcd60e51b81526004016102629190613244565b5050506001600160401b0390811691160390565b60048101547fec7e8c1c441439dd40959777f4c577ea0cd42fcc1dbe59d2bd0f5d9c55df8dc88054600092600080516020613314833981519152929161010090910461ffff16908110611f7557611f75612dff565b9060005260206000209060040201915050919050565b60048101547fec7e8c1c441439dd40959777f4c577ea0cd42fcc1dbe59d2bd0f5d9c55df8dc880546000926000805160206133148339815191529291630100000090910461ffff16908110611f7557611f75612dff565b6000600080516020613314833981519152905060006000805160206132f4833981519152841860401c600983015460405163a0fe8afb60e01b81526001600160a01b0391821660048201526024810186905291925082169063a0fe8afb90604401600060405180830381600087803b15801561205d57600080fd5b505af11580156107a9573d6000803e3d6000fd5b60008061207d8361278e565b9050600061208a8561278e565b905061187f868383611daf565b7fec7e8c1c441439dd40959777f4c577ea0cd42fcc1dbe59d2bd0f5d9c55df8dbb546001600160a01b03168015806121345750604051633af32abf60e01b81526001600160a01b038381166004830152821690633af32abf90602401602060405180830381865afa158015612110573d6000803e3d6000fd5b505050506040513d601f19601f820116820180604052508101906121349190612fdd565b6121785760405162461bcd60e51b81526020600482015260156024820152741859d95b9d081b9bdd081dda1a5d195b1a5cdd1959605a1b6044820152606401610262565b5050565b6121a16040805160608101909152806000815260200160008152602001600081525090565b60006121ac83611f8b565b60408051606081019091529091508060018152825485546040516370a0823160e01b81526001600160a01b0391821660048201526020909301929116906370a08231906024015b602060405180830381865afa158015612210573d6000803e3d6000fd5b505050506040513d601f19601f8201168201806040525081019061223491906131ed565b815260200161182c8361278e565b6122676040805160608101909152806000815260200160008152602001600081525090565b600061227283611f20565b6040805160608101825260008152825482516370a0823160e01b81526000805160206132f4833981519152881890931c6001600160a01b039081166004850152939450909260208401929116906370a08231906024016121f3565b6122f26040805160608101909152806000815260200160008152602001600081525090565b8254604080516332f7ce0b60e21b815290516000926001600160a01b03169163cbdf382c9160048083019260209291908290030181865afa15801561233b573d6000803e3d6000fd5b505050506040513d601f19601f8201168201806040525081019061235f9190613292565b905060006001600160a01b0382166370a082316000805160206132f4833981519152871860401c6040516001600160e01b031960e084901b1681526001600160a01b039091166004820152602401602060405180830381865afa1580156123ca573d6000803e3d6000fd5b505050506040513d601f19601f820116820180604052508101906123ee91906131ed565b90506000826001600160a01b03166318160ddd6040518163ffffffff1660e01b8152600401602060405180830381865afa158015612430573d6000803e3d6000fd5b505050506040513d601f19601f8201168201806040525081019061245491906131ed565b90506000856020015160000361246b576000612480565b60208601516040870151612480918490611daf565b60408051606081018252600281526020810195909552840152509095945050505050565b6000806124b184846127a4565b905060006124bf85856127cc565b9050806000036124d0576000611d4d565b611d4d8183613230565b60008183106124e95781611217565b5090919050565b7fec7e8c1c441439dd40959777f4c577ea0cd42fcc1dbe59d2bd0f5d9c55df8dc154600090600080516020613314833981519152906112179061254390600160701b90046001600160401b031685613230565b60006001600160401b03821115611b395760405162461bcd60e51b815260206004820152602660248201527f53616665436173743a2076616c756520646f65736e27742066697420696e203660448201526534206269747360d01b6064820152608401610262565b7fec7e8c1c441439dd40959777f4c577ea0cd42fcc1dbe59d2bd0f5d9c55df8dc0546040516325f69abd60e21b8152600091829182916000805160206133148339815191529183916001600160a01b0316906397da6af490612611908a90600401613244565b602060405180830381865afa15801561262e573d6000803e3d6000fd5b505050506040513d601f19601f820116820180604052508101906126529190613292565b905085156126c957806001600160a01b0316633cacb3ae6040518163ffffffff1660e01b8152600401606060405180830381865afa158015612698573d6000803e3d6000fd5b505050506040513d601f19601f820116820180604052508101906126bc91906132af565b9450945094505050611cf5565b806001600160a01b03166365f5cd866040518163ffffffff1660e01b8152600401606060405180830381865afa158015612698573d6000803e3d6000fd5b6000600080516020613314833981519152816009612725878a612c42565b61272f9190612c42565b600a83015490915060009061274f908690600160a81b900460ff16612c42565b905080821015612761576127616132dd565b61278161276e8284612c87565b61277990600a6131e1565b87908a611daf565b9998505050505050505050565b600061279b826000611b3d565b50909392505050565b6000806127b18484612825565b9050600061187f82866020015161294f90919063ffffffff16565b600080600080516020613314833981519152905060006127f0848660000151612975565b509050611d4d8161163284600b0160169054906101000a90046001600160401b03166001600160401b03168860400151611572565b6000806000612838848660000151612975565b60058601549193509150600090612861906001600160401b03600160401b820481169116612c42565b9050600061287784611632848a60400151611572565b9050600060018851600281111561289057612890612cc1565b146128af576005870154600160801b90046001600160401b03166128c5565b6005870154600160c01b90046001600160401b03165b905060006128e485611632846001600160401b03168c60400151611572565b9050600060018a5160028111156128fd576128fd612cc1565b03612909576000612921565b8951612916908a90612a73565b546001600160801b03165b6001600160801b03169050806129378386612c42565b6129419190612c42565b9a9950505050505050505050565b600080838311156129655750600090508061296e565b50600190508183035b9250929050565b600080600283600281111561298c5761298c612cc1565b036129ec5760008061299f866001612975565b9150915060006129ba60008051602061331483398151915290565b600b015463ffffffff90811691506129d6908290849061124516565b93506129e28184611245565b945050505061296e565b6001836002811115612a0057612a00612cc1565b03612a3b57612a0e84611f8b565b60030154600485015463ffffffff9182169250612a3491600160881b9091041682612ac0565b915061296e565b612a4484611f20565b60030154600485015463ffffffff9182169250612a6a91600160681b9091041682612ac0565b91509250929050565b60006001826002811115612a8957612a89612cc1565b03612a9657612a966132dd565b6000826002811115612aaa57612aaa612cc1565b14612ab85782600901611217565b505060080190565b60008183116124e95781611217565b80356001600160401b0381168114612ae657600080fd5b919050565b600060208284031215612afd57600080fd5b61121782612acf565b60008060408385031215612b1957600080fd5b82356001600160401b03811115612b2f57600080fd5b83016101608186031215612b4257600080fd5b9150612b5060208401612acf565b90509250929050565b60008060408385031215612b6c57600080fd5b82356001600160401b03811115612b8257600080fd5b830160e08186031215612b4257600080fd5b6001600160a01b03811681146110a657600080fd5b60008060008060808587031215612bbf57600080fd5b8435612bca81612b94565b93506020850135612bda81612b94565b9250612be860408601612acf565b9150612bf660608601612acf565b905092959194509250565b634e487b7160e01b600052601160045260246000fd5b6001600160401b03818116838216028082169190828114612c3a57612c3a612c01565b505092915050565b80820180821115610f1b57610f1b612c01565b80356001600160801b0381168114612ae657600080fd5b600060208284031215612c7e57600080fd5b61121782612c55565b81810381811115610f1b57610f1b612c01565b6001600160401b03818116838216019080821115612cba57612cba612c01565b5092915050565b634e487b7160e01b600052602160045260246000fd5b600181811c90821680612ceb57607f821691505b60208210810361105157634e487b7160e01b600052602260045260246000fd5b60006101006001600160401b03808c16845260208b818601528a6040860152818a166060860152818916608086015281881660a08601528260c086015260009150865482600182811c915080831680612d6557607f831692505b8483108103612d8257634e487b7160e01b86526022600452602486fd5b95880182815260200195808015612da05760018114612db657612de1565b60ff198516885283151560051b88019650612de1565b60008c81526020902060005b85811015612ddb5781548a820152908401908701612dc2565b89019750505b50505050505080925050508260e08301529998505050505050505050565b634e487b7160e01b600052603260045260246000fd5b6000808335601e19843603018112612e2c57600080fd5b83016020810192503590506001600160401b03811115612e4b57600080fd5b8060051b360382131561296e57600080fd5b81835260006001600160fb1b03831115612e7657600080fd5b8260051b80836020870137939093016020019392505050565b63ffffffff83168152604060208201526000612eab8384612e15565b610160806040860152612ec36101a086018385612e5d565b925060208601356060860152612edb60408701612acf565b6001600160401b03811660808701529150612ef860608701612acf565b6001600160401b03811660a08701529150608086013560c086015260a086013560e0860152612f2960c08701612c55565b9150610100612f42818701846001600160801b03169052565b612f4e60e08801612acf565b9250610120612f67818801856001600160401b03169052565b612f72828901612acf565b93506101409150612f8d828801856001600160401b03169052565b612f98818901612acf565b935050612faf828701846001600160401b03169052565b612fba818801612acf565b92505050612fd46101808501826001600160401b03169052565b50949350505050565b600060208284031215612fef57600080fd5b8151801515811461121757600080fd5b8082028115828204841417610f1b57610f1b612c01565b6001600160401b03828116828216039080821115612cba57612cba612c01565b63ffffffff831681526040602082015260006130528384612e15565b60e0604085015261306861012085018284612e5d565b9150506020840135606084015261308160408501612acf565b6001600160401b0380821660808601528061309e60608801612acf565b1660a08601525050608084013560ff811681146130ba57600080fd5b60ff1660c08401526130ce60a08501612acf565b6001600160401b031660e08401526130e860c08501612acf565b6001600160401b038116610100850152612fd4565b600181815b8085111561313857816000190482111561311e5761311e612c01565b8085161561312b57918102915b93841c9390800290613102565b509250929050565b60008261314f57506001610f1b565b8161315c57506000610f1b565b8160018114613172576002811461317c57613198565b6001915050610f1b565b60ff84111561318d5761318d612c01565b50506001821b610f1b565b5060208310610133831016604e8410600b84101617156131bb575081810a610f1b565b6131c583836130fd565b80600019048211156131d9576131d9612c01565b029392505050565b60006112178383613140565b6000602082840312156131ff57600080fd5b5051919050565b634e487b7160e01b600052601260045260246000fd5b60008261322b5761322b613206565b500690565b60008261323f5761323f613206565b500490565b600060208083528351808285015260005b8181101561327157858101830151858201604001528201613255565b506000604082860101526040601f19601f8301168501019250505092915050565b6000602082840312156132a457600080fd5b815161121781612b94565b6000806000606084860312156132c457600080fd5b8351925060208401519150604084015190509250925092565b634e487b7160e01b600052600160045260246000fdfe5bebac0595fee029d42bb673937f5f1cb81cf8641382bc17774635de9b7d7965ec7e8c1c441439dd40959777f4c577ea0cd42fcc1dbe59d2bd0f5d9c55df8db6a26469706673582212205f1738027e2e4768de1fbf23cdc87c6b19c48963ef8535c89e57fa36620a3c2b64736f6c63430008140033",
  "linkReferences": {},
  "deployedLinkReferences": {}
}