{
  "_format": "hh-sol-artifact-1",
  "contractName": "CollateralReservations",
  "sourceName": "contracts/fasset/library/CollateralReservations.sol",
  "abi": [
    {
      "inputs": [
        {
          "internalType": "uint64",
          "name": "_lots",
          "type": "uint64"
        }
      ],
      "name": "calculateReservationFee",
      "outputs": [
        {
          "internalType": "uint256",
          "name": "",
          "type": "uint256"
        }
      ],
      "stateMutability": "view",
      "type": "function"
    }
  ],
  "bytecode": "0x613bbe61003a600b82828239805160001a60731461002d57634e487b7160e01b600052600060045260246000fd5b30600052607381538281f3fe73000000000000000000000000000000000000000030146080604052600436106200005b5760003560e01c80630c7dcd1514620000605780632d984f75146200008957806355c4ef8f14620000b0578063f2821a6214620000d5575b600080fd5b620000776200007136600462003087565b620000fa565b60405190815260200160405180910390f35b8180156200009657600080fd5b50620000ae620000a8366004620030a5565b6200017a565b005b818015620000bd57600080fd5b50620000ae620000cf366004620030fd565b620003b2565b818015620000e257600080fd5b50620000ae620000f436600462003152565b62000795565b7fec7e8c1c441439dd40959777f4c577ea0cd42fcc1dbe59d2bd0f5d9c55df8dd85460009060008051602062003b69833981519152908290620001419061ffff1662000e6e565b600c830154909150620001729082906200016c90600160801b90046001600160401b031687620031c9565b62000eba565b949350505050565b60008051602062003b698339815191526000620001978362000f09565b6002810154909150600090620001b6906001600160a01b031662000fae565b9050620001c3816200104a565b620001ce85620010a0565b8154600160801b90046001600160401b0316620001f260e0870160c0880162003087565b6001600160401b03161180156200023457508154600160c01b90046001600160401b031662000229610100870160e0880162003087565b6001600160401b0316115b620002865760405162461bcd60e51b815260206004820152601a60248201527f63616e6e6f7420756e737469636b206d696e74696e672079657400000000000060448201526064015b60405180910390fd5b600b83015460018301546040516001600160a01b03909216916001600160801b03600160801b9092049190911680156108fc02916000818181858888f19350505050158015620002da573d6000803e3d6000fd5b506004810154600090620002f89062010000900461ffff1662000e6e565b835490915060009062000315906001600160401b031683620011c6565b9050620003238382620011e4565b83546000906200033c906001600160401b0316620012be565b60038601546002870154604080516001600160401b038c168152602081018590529394506001600160a01b039283169392909116917f8989bc1e07f872f783e99c06825dfe6c20f9ca1bc2501de1e931a5872f0e8814910160405180910390a3620003a8858862001314565b5050505050505050565b6000620003bf8262000f09565b6002810154909150600090620003de906001600160a01b031662000fae565b9050620003eb816200104a565b620003f6846200143d565b81546000906200040f906001600160401b0316620012be565b905067464250526641000160c01b6001600160401b038516178560a0013514801562000442575081600301548560800135145b8015620004815750600183015462000464906001600160801b031682620031fb565b6200047660e0870160c088016200322e565b6001600160801b0316145b620004cf5760405162461bcd60e51b815260206004820152601c60248201527f6d696e74696e67206e6f6e2d7061796d656e74206d69736d617463680000000060448201526064016200027d565b8254600160801b90046001600160401b0316620004f56101408701610120880162003087565b6001600160401b03161180156200053857508254600160c01b90046001600160401b03166200052d6101608701610140880162003087565b6001600160401b0316115b620005865760405162461bcd60e51b815260206004820152601960248201527f6d696e74696e672064656661756c7420746f6f206561726c790000000000000060448201526064016200027d565b8254600160401b90046001600160401b0316620005ab610100870160e0880162003087565b6001600160401b03161115620006045760405162461bcd60e51b815260206004820152601760248201527f6d696e74696e67207265717565737420746f6f206f6c6400000000000000000060448201526064016200027d565b60038301546002840154604080516001600160401b0388168152602081018590526001600160a01b0393841693909216917f9bcf1e111381daaf8ec9ce1420115fc2bb960d5dd94b1e871256cb2e6cbd5aa0910160405180910390a3600482015460018401546000916200069491600160801b90046001600160801b031690600160601b900461ffff1662001558565b9050620006a18362001569565b835460405163b760faf960e01b81526001600160a01b03918216600482015291169063b760faf99083906024016000604051808303818588803b158015620006e857600080fd5b505af1158015620006fd573d6000803e3d6000fd5b50505050600285015460018601546001600160a01b03909116915063d1b8890e906200073b908490600160801b90046001600160801b03166200324c565b6040518263ffffffff1660e01b81526004016000604051808303818588803b1580156200076757600080fd5b505af11580156200077c573d6000803e3d6000fd5b50505050506200078d848662001314565b505050505050565b60008051602062003b698339815191526000620007b28562000fae565b9050620007bf81620015d5565b6000620007cc82620015ee565b60238401549091506001600160401b0316156200081d5760405162461bcd60e51b815260206004820152600e60248201526d1b5a5b9d1a5b99c81c185d5cd95960921b60448201526064016200027d565b60048201546601000000000000900463ffffffff16620008805760405162461bcd60e51b815260206004820152601760248201527f6167656e74206e6f7420696e206d696e7420717565756500000000000000000060448201526064016200027d565b6000856001600160401b031611620008d05760405162461bcd60e51b815260206004820152601260248201527163616e6e6f74206d696e742030206c6f747360701b60448201526064016200027d565b60006004830154610100900460ff166003811115620008f357620008f362003266565b14620009425760405162461bcd60e51b815260206004820152601860248201527f72633a20696e76616c6964206167656e7420737461747573000000000000000060448201526064016200027d565b6001600160401b0385166200095882846200169f565b1015620009a85760405162461bcd60e51b815260206004820152601a60248201527f6e6f7420656e6f756768206672656520636f6c6c61746572616c00000000000060448201526064016200027d565b6004820154600160501b900461ffff166001600160401b038516101562000a095760405162461bcd60e51b81526020600482015260146024820152730c2cecadce84ee640cccaca40e8dede40d0d2ced60631b60448201526064016200027d565b600c83015460009062000a2d90600160801b90046001600160401b031687620031c9565b905062000a3a81620016fd565b60058301805482919060009062000a5c9084906001600160401b03166200327c565b92506101000a8154816001600160401b0302191690836001600160401b03160217905550808460210160188282829054906101000a90046001600160401b031662000aa891906200327c565b92506101000a8154816001600160401b0302191690836001600160401b03160217905550600062000ad982620012be565b600485015490915060009062000afc908390600160501b900461ffff1662001558565b9050600062000b148560200151604001518562000eba565b905080341462000b675760405162461bcd60e51b815260206004820152601860248201527f696e617070726f7072696174652066656520616d6f756e74000000000000000060448201526064016200027d565b60008062000b746200185f565b9150915062000b8262001942565b60218a01805460009062000ba19084906001600160401b03166200327c565b82546001600160401b0391821661010093840a908102908302199091161790925560218c01546040805192830181528a8416835260228e01546201000090048416602084015286841690830152848316606083015290911691506080810162000c0a8762001964565b6001600160801b0316815260200162000c238662001964565b6001600160801b031681526020018e6001600160a01b031681526020018f6001600160a01b03168152508a6019016000836001600160401b03166001600160401b0316815260200190815260200160002060008201518160000160006101000a8154816001600160401b0302191690836001600160401b0316021790555060208201518160000160086101000a8154816001600160401b0302191690836001600160401b0316021790555060408201518160000160106101000a8154816001600160401b0302191690836001600160401b0316021790555060608201518160000160186101000a8154816001600160401b0302191690836001600160401b0316021790555060808201518160010160006101000a8154816001600160801b0302191690836001600160801b0316021790555060a08201518160010160106101000a8154816001600160801b0302191690836001600160801b0316021790555060c08201518160020160006101000a8154816001600160a01b0302191690836001600160a01b0316021790555060e08201518160030160006101000a8154816001600160a01b0302191690836001600160a01b0316021790555090505060008960020190508e6001600160a01b03168e6001600160a01b03167f5a595c664a52a548bcc22b795e4fc86ee3667a222dce79dae7a751991d373d3a848a8a89898862000e408b6001600160401b031667464250526641000160c01b1790565b60405162000e559796959493929190620032aa565b60405180910390a3505050505050505050505050505050565b60008060008051602062003b69833981519152905062000eb381601301848154811062000e9f5762000e9f62003398565b9060005260206000209060030201620019d3565b9392505050565b60008062000ed2836001600160401b031685620011c6565b905062000eff60008051602062003b69833981519152600b01548290600160c81b900461ffff1662001558565b9150505b92915050565b600060008051602062003b698339815191526001600160401b0383161580159062000f4f57506001600160401b0380841660009081526019830160205260409020541615155b62000f8e5760405162461bcd60e51b815260206004820152600e60248201526d1a5b9d985b1a590818dc9d081a5960921b60448201526064016200027d565b6001600160401b0390921660009081526019909201602052506040902090565b60008051602062003b4983398151915268010000000000000000600160e01b03604083901b1618806000600483015460ff16600281111562000ff45762000ff462003266565b1415620010445760405162461bcd60e51b815260206004820152601b60248201527f696e76616c6964206167656e74207661756c742061646472657373000000000060448201526064016200027d565b50919050565b620010568133620019e9565b6200109d5760405162461bcd60e51b815260206004820152601660248201527537b7363c9030b3b2b73a103b30bab63a1037bbb732b960511b60448201526064016200027d565b50565b7fec7e8c1c441439dd40959777f4c577ea0cd42fcc1dbe59d2bd0f5d9c55df8dbc547fec7e8c1c441439dd40959777f4c577ea0cd42fcc1dbe59d2bd0f5d9c55df8dc154604051634817ad0360e01b815260008051602062003b69833981519152926001600160a01b031691634817ad03916200113091600160a81b900463ffffffff1690869060040162003442565b602060405180830381865afa1580156200114e573d6000803e3d6000fd5b505050506040513d601f19601f8201168201806040525081019062001174919062003538565b620011c25760405162461bcd60e51b815260206004820152601760248201527f626c6f636b20686569676874206e6f742070726f76656400000000000000000060448201526064016200027d565b5050565b600062000eb382620011db6009600a62003651565b85919062001a45565b6000620011f18362001b8f565b90506000620012008462001bee565b805483549192506001600160a01b03918216911614156200122d5762001227848462001c39565b620012b8565b7fec7e8c1c441439dd40959777f4c577ea0cd42fcc1dbe59d2bd0f5d9c55df8dc75460008051602062003b69833981519152906000906200128990600160401b900463ffffffff166200128287878762001e0a565b9062001558565b84546001880154919250620012ac916001600160a01b0391821691168762001e2d565b6200078d868262001c39565b50505050565b7fec7e8c1c441439dd40959777f4c577ea0cd42fcc1dbe59d2bd0f5d9c55df8dc25460009060008051602062003b698339815191529062000eb390600160401b90046001600160401b039081169085166200365f565b600282015460008051602062003b698339815191529060009062001341906001600160a01b031662000fae565b6005810154855460408051808201909152601381527234b73b30b634b2103932b9b2b93b30ba34b7b760691b602082015292935062001390926001600160401b03928316929091169062001e86565b60058201805467ffffffffffffffff19166001600160401b039283161790558454602184018054918316929091601891620013d6918591600160c01b9091041662003681565b82546101009290920a6001600160401b03818102199093169183160217909155939093166000908152601992909201602052506040812081815560018101919091556002810180546001600160a01b03199081169091556003909101805490911690555050565b7fec7e8c1c441439dd40959777f4c577ea0cd42fcc1dbe59d2bd0f5d9c55df8dbc547fec7e8c1c441439dd40959777f4c577ea0cd42fcc1dbe59d2bd0f5d9c55df8dc1546040516331afc1c960e11b815260008051602062003b69833981519152926001600160a01b03169163635f839291620014cd91600160a81b900463ffffffff16908690600401620036ac565b602060405180830381865afa158015620014eb573d6000803e3d6000fd5b505050506040513d601f19601f8201168201806040525081019062001511919062003538565b620011c25760405162461bcd60e51b81526020600482015260166024820152751b9bdb8b5c185e5b595b9d081b9bdd081c1c9bdd995960521b60448201526064016200027d565b600062000eb3838361271062001a45565b600481015460008051602062003b29833981519152805460009260008051602062003b69833981519152929164010000000090910461ffff16908110620015b457620015b462003398565b60009182526020909120600390910201546001600160a01b03169392505050565b60018101546200109d906001600160a01b031662001ed4565b6200165a6040805160c081019091526000606082018181526080830182905260a083019190915281908152604080516060810182526000808252602082810182905292820152910190815260408051606081018252600080825260208281018290529282015291015290565b6000620016678362001fbb565b905060405180606001604052806200167f85620020f1565b8152602001828152602001620016968584620021eb565b90529392505050565b600080620016b2846000015184620023d2565b90506000620016c6856020015185620023d2565b90506000620016da866040015186620023d2565b9050620016f383620016ed84846200240d565b6200240d565b9695505050505050565b7fec7e8c1c441439dd40959777f4c577ea0cd42fcc1dbe59d2bd0f5d9c55df8dc25460008051602062003b6983398151915290600160c01b90046001600160401b0316806200174b57505050565b6001820154604080516318160ddd60e01b815290516000926001600160a01b0316916318160ddd9160048083019260209291908290030181865afa15801562001798573d6000803e3d6000fd5b505050506040513d601f19601f82011682018060405250810190620017be919062003808565b90506000620017cd8262002425565b6021850154620017ee9190600160c01b90046001600160401b03166200327c565b6001600160401b0316905082856001600160401b031682620018119190620031fb565b1115620018585760405162461bcd60e51b81526020600482015260146024820152731b5a5b9d1a5b99c818d85c08195e18d95959195960621b60448201526064016200027d565b5050505050565b7fec7e8c1c441439dd40959777f4c577ea0cd42fcc1dbe59d2bd0f5d9c55df8dd854600090819060008051602062003b69833981519152908290600160901b90046001600160401b0316620018b4426200247c565b620018c0919062003681565b600d8301546022840154919250620018f9916001600160401b03690100000000000000000090920482169162010000909104166200327c565b600d83015460228401549195506001600160401b03600160881b9091048116916200192e918491600160501b9004166200327c565b6200193a91906200327c565b925050509091565b6000620019526103e84362003838565b6200195f906001620031fb565b905090565b60006001600160801b03821115620019cf5760405162461bcd60e51b815260206004820152602760248201527f53616665436173743a2076616c756520646f65736e27742066697420696e20316044820152663238206269747360c81b60648201526084016200027d565b5090565b6000620019e082620024e6565b50909392505050565b600182015460009060008051602062003b69833981519152906001600160a01b0390811690841681148062001a3c57506001600160a01b0380821660009081526016840160205260409020548582169116145b95945050505050565b600080821162001a8b5760405162461bcd60e51b815260206004820152601060248201526f4469766973696f6e206279207a65726f60801b60448201526064016200027d565b8362001a9a5750600062000eb3565b8383028385828162001ab05762001ab062003822565b04141562001ad45782818162001aca5762001aca62003822565b0491505062000eb3565b50600062001ae383866200384f565b9050600062001af3848762003838565b9050600062001b0385876200384f565b9050600062001b13868862003838565b90508562001b2282856200365f565b62001b2e91906200384f565b62001b3a83856200365f565b62001b4683876200365f565b8862001b5386896200365f565b62001b5f91906200365f565b62001b6b9190620031fb565b62001b779190620031fb565b62001b839190620031fb565b98975050505050505050565b600481015460008051602062003b29833981519152805460009260008051602062003b6983398151915292916201000090910461ffff1690811062001bd85762001bd862003398565b9060005260206000209060030201915050919050565b600481015460008051602062003b29833981519152805460009260008051602062003b69833981519152929164010000000090910461ffff1690811062001bd85762001bd862003398565b7fec7e8c1c441439dd40959777f4c577ea0cd42fcc1dbe59d2bd0f5d9c55df8dc15460008051602062003b698339815191529060008051602062003b49833981519152841860401c90600160a01b900460ff161562001da457600b8201546040516000916001600160a01b03169062001cb2906200305c565b6001600160a01b039091168152602001604051809103906000f08015801562001cdf573d6000803e3d6000fd5b5060405163a0fe8afb60e01b81526001600160a01b038083166004830152602482018790529192509083169063a0fe8afb90604401600060405180830381600087803b15801562001d2f57600080fd5b505af115801562001d44573d6000803e3d6000fd5b50505050806001600160a01b03166335f469946040518163ffffffff1660e01b8152600401600060405180830381600087803b15801562001d8457600080fd5b505af115801562001d99573d6000803e3d6000fd5b5050505050620012b8565b600b82015460405163a0fe8afb60e01b81526001600160a01b039182166004820152602481018590529082169063a0fe8afb90604401600060405180830381600087803b15801562001df557600080fd5b505af1158015620003a8573d6000803e3d6000fd5b600080600062001e1b858562002719565b9092509050620016f386838362001a45565b604080516001600160a01b038416602482015260448082018490528251808303909101815260649091019091526020810180516001600160e01b031663a9059cbb60e01b17905262001e81908490620029c2565b505050565b6000826001600160401b0316846001600160401b03161015829062001ec05760405162461bcd60e51b81526004016200027d919062003895565b5050506001600160401b0390811691160390565b7fec7e8c1c441439dd40959777f4c577ea0cd42fcc1dbe59d2bd0f5d9c55df8dbb546001600160a01b031680158062001f755750604051633af32abf60e01b81526001600160a01b038381166004830152821690633af32abf90602401602060405180830381865afa15801562001f4f573d6000803e3d6000fd5b505050506040513d601f19601f8201168201806040525081019062001f75919062003538565b620011c25760405162461bcd60e51b81526020600482015260156024820152741859d95b9d081b9bdd081dda1a5d195b1a5cdd1959605a1b60448201526064016200027d565b62001fe16040805160608101909152806000815260200160008152602001600081525090565b600482015460008051602062003b29833981519152805460008051602062003b69833981519152926000929164010000000090910461ffff169081106200202c576200202c62003398565b906000526020600020906003020190506040518060600160405280600160028111156200205d576200205d62003266565b8152825486546040516370a0823160e01b81526001600160a01b0391821660048201526020909301929116906370a08231906024015b602060405180830381865afa158015620020b1573d6000803e3d6000fd5b505050506040513d601f19601f82011682018060405250810190620020d7919062003808565b8152602001620020e783620019d3565b9052949350505050565b620021176040805160608101909152806000815260200160008152602001600081525090565b600482015460008051602062003b29833981519152805460008051602062003b6983398151915292600092916201000090910461ffff1690811062002160576200216062003398565b9060005260206000209060030201905060405180606001604052806000600281111562002191576200219162003266565b815282546020909101906001600160a01b03166370a0823160008051602062003b49833981519152881860401c6040516001600160e01b031960e084901b1681526001600160a01b03909116600482015260240162002093565b620022116040805160608101909152806000815260200160008152602001600081525090565b8254604080516332f7ce0b60e21b815290516000926001600160a01b03169163cbdf382c9160048083019260209291908290030181865afa1580156200225b573d6000803e3d6000fd5b505050506040513d601f19601f82011682018060405250810190620022819190620038ca565b905060006001600160a01b0382166370a0823160008051602062003b49833981519152871860401c6040516001600160e01b031960e084901b1681526001600160a01b039091166004820152602401602060405180830381865afa158015620022ee573d6000803e3d6000fd5b505050506040513d601f19601f8201168201806040525081019062002314919062003808565b90506000826001600160a01b03166318160ddd6040518163ffffffff1660e01b8152600401602060405180830381865afa15801562002357573d6000803e3d6000fd5b505050506040513d601f19601f820116820180604052508101906200237d919062003808565b9050600085602001516000141562002397576000620023ae565b60208601516040870151620023ae91849062001a45565b60408051606081018252600281526020810195909552840152509095945050505050565b600080620023e1848462002a9b565b90506000620023f1858562002ac7565b9050806200240157600062001a3c565b62001a3c81836200384f565b60008183106200241e578162000eb3565b5090919050565b7fec7e8c1c441439dd40959777f4c577ea0cd42fcc1dbe59d2bd0f5d9c55df8dc25460009060008051602062003b698339815191529062000eb3906200247c90600160401b90046001600160401b0316856200384f565b60006001600160401b03821115620019cf5760405162461bcd60e51b815260206004820152602660248201527f53616665436173743a2076616c756520646f65736e27742066697420696e203660448201526534206269747360d01b60648201526084016200027d565b600080808060008051602062003b69833981519152600981015460405163d75f6d8160e01b8152600160a01b820463ffffffff1660048201529192506001600160a01b031690600090829063d75f6d8190602401602060405180830381865afa15801562002558573d6000803e3d6000fd5b505050506040513d601f19601f820116820180604052508101906200257e9190620038ca565b875460405163d75f6d8160e01b8152600160b01b90910461ffff1660048201529091506000906001600160a01b0384169063d75f6d8190602401602060405180830381865afa158015620025d6573d6000803e3d6000fd5b505050506040513d601f19601f82011682018060405250810190620025fc9190620038ca565b90506000806000846001600160a01b03166365f5cd866040518163ffffffff1660e01b8152600401606060405180830381865afa15801562002642573d6000803e3d6000fd5b505050506040513d601f19601f82011682018060405250810190620026689190620038ea565b9250925092506000806000866001600160a01b03166365f5cd866040518163ffffffff1660e01b8152600401606060405180830381865afa158015620026b2573d6000803e3d6000fd5b505050506040513d601f19601f82011682018060405250810190620026d89190620038ea565b9250925092506000620027038f60000160159054906101000a900460ff1660ff1685848a8962002b29565b9f959e50919c50939a5050505050505050505050565b6000808060008051602062003b6983398151915260090154855460405163d75f6d8160e01b8152600160b01b90910461ffff1660048201526001600160a01b039091169150600090829063d75f6d8190602401602060405180830381865afa1580156200278a573d6000803e3d6000fd5b505050506040513d601f19601f82011682018060405250810190620027b09190620038ca565b855460405163d75f6d8160e01b8152600160b01b90910461ffff1660048201529091506000906001600160a01b0384169063d75f6d8190602401602060405180830381865afa15801562002808573d6000803e3d6000fd5b505050506040513d601f19601f820116820180604052508101906200282e9190620038ca565b9050600080836001600160a01b03166365f5cd866040518163ffffffff1660e01b8152600401606060405180830381865afa15801562002872573d6000803e3d6000fd5b505050506040513d601f19601f82011682018060405250810190620028989190620038ea565b9250509150600080846001600160a01b03166365f5cd866040518163ffffffff1660e01b8152600401606060405180830381865afa158015620028df573d6000803e3d6000fd5b505050506040513d601f19601f82011682018060405250810190620029059190620038ea565b8c5492945092506000916200292791508390600160a81b900460ff16620031fb565b8c5490915060009062002946908690600160a81b900460ff16620031fb565b90506200295482826200240d565b6200296090836200324c565b91506200296e82826200240d565b6200297a90826200324c565b90506200298982600a62003651565b6200299590876200365f565b9a50620029a481600a62003651565b620029b090856200365f565b99505050505050505050509250929050565b600062002a19826040518060400160405280602081526020017f5361666545524332303a206c6f772d6c6576656c2063616c6c206661696c6564815250856001600160a01b031662002bc09092919063ffffffff16565b80519091501562001e81578080602001905181019062002a3a919062003538565b62001e815760405162461bcd60e51b815260206004820152602a60248201527f5361666545524332303a204552433230206f7065726174696f6e20646964206e6044820152691bdd081cdd58d8d9595960b21b60648201526084016200027d565b60008062002aaa848462002bd1565b90506000620016f382866020015162002d1790919063ffffffff16565b60008060008051602062003b698339815191529050600062002aee84866000015162002d3f565b50905062001a3c816200128284600001600c0160109054906101000a90046001600160401b03166001600160401b03168860400151620011c6565b600060008051602062003b6983398151915281600962002b4a878a620031fb565b62002b569190620031fb565b600983015490915060009062002b78908690600160c81b900460ff16620031fb565b90508082101562002b8d5762002b8d62003919565b62002bb362002b9d82846200324c565b62002baa90600a62003651565b87908a62001a45565b9998505050505050505050565b606062000172848460008562002e81565b600080600062002be684866000015162002d3f565b6005860154919350915060009062002c11906001600160401b03600160401b820481169116620031fb565b9050600062002c2a8462001282848a60400151620011c6565b9050600060018851600281111562002c465762002c4662003266565b1462002c67576005870154600160801b90046001600160401b031662002c7d565b6005870154600160c01b90046001600160401b03165b9050600062002c9f8562001282846001600160401b03168c60400151620011c6565b9050600060018a51600281111562002cbb5762002cbb62003266565b141562002cca57600062002ce5565b62002cda898b6000015162002fb3565b546001600160801b03165b6001600160801b031690508062002cfd8386620031fb565b62002d099190620031fb565b9a9950505050505050505050565b6000808383111562002d2f5750600090508062002d38565b50600190508183035b9250929050565b60008060008051602062003b698339815191526002848181111562002d685762002d6862003266565b141562002d8c576009810154600160d01b900463ffffffff16925082915062002e79565b600184600281111562002da35762002da362003266565b141562002e155760048501546013820180549091640100000000900461ffff1690811062002dd55762002dd562003398565b6000918252602090912060026003909202010154600486015463ffffffff918216935062002e0d91600160901b90910416836200300c565b925062002e79565b6004850154601382018054909162010000900461ffff1690811062002e3e5762002e3e62003398565b6000918252602090912060026003909202010154600486015463ffffffff918216935062002e7691600160701b90910416836200300c565b92505b509250929050565b60608247101562002ee45760405162461bcd60e51b815260206004820152602660248201527f416464726573733a20696e73756666696369656e742062616c616e636520666f6044820152651c8818d85b1b60d21b60648201526084016200027d565b843b62002f345760405162461bcd60e51b815260206004820152601d60248201527f416464726573733a2063616c6c20746f206e6f6e2d636f6e747261637400000060448201526064016200027d565b600080866001600160a01b0316858760405162002f5291906200392f565b60006040518083038185875af1925050503d806000811462002f91576040519150601f19603f3d011682016040523d82523d6000602084013e62002f96565b606091505b509150915062002fa88282866200301e565b979650505050505050565b6000600182600281111562002fcc5762002fcc62003266565b141562002fdd5762002fdd62003919565b600082600281111562002ff45762002ff462003266565b1462003004578260090162000eb3565b505060080190565b6000818310156200241e578162000eb3565b606083156200302f57508162000eb3565b825115620030405782518084602001fd5b8160405162461bcd60e51b81526004016200027d919062003895565b6101db806200394e83390190565b80356001600160401b03811681146200308257600080fd5b919050565b6000602082840312156200309a57600080fd5b62000eb3826200306a565b60008060408385031215620030b957600080fd5b82356001600160401b03811115620030d057600080fd5b83016101008186031215620030e457600080fd5b9150620030f4602084016200306a565b90509250929050565b600080604083850312156200311157600080fd5b82356001600160401b038111156200312857600080fd5b83016101608186031215620030e457600080fd5b6001600160a01b03811681146200109d57600080fd5b600080600080608085870312156200316957600080fd5b843562003176816200313c565b9350602085013562003188816200313c565b925062003198604086016200306a565b9150620031a8606086016200306a565b905092959194509250565b634e487b7160e01b600052601160045260246000fd5b60006001600160401b0380831681851681830481118215151615620031f257620031f2620031b3565b02949350505050565b60008219821115620032115762003211620031b3565b500190565b80356001600160801b03811681146200308257600080fd5b6000602082840312156200324157600080fd5b62000eb38262003216565b600082821015620032615762003261620031b3565b500390565b634e487b7160e01b600052602160045260246000fd5b60006001600160401b03808316818516808303821115620032a157620032a1620031b3565b01949350505050565b60006001600160401b03808a168352602089818501528860408501528188166060850152818716608085015260e060a085015260009150855482600182811c915080831680620032fb57607f831692505b8483108114156200331a57634e487b7160e01b86526022600452602486fd5b60e0880183905261010088018180156200333d57600181146200334f576200337c565b60ff198616825286820197506200337c565b60008c81526020902060005b8681101562003376578154848201529085019088016200335b565b83019850505b505050505060c094909401949094529998505050505050505050565b634e487b7160e01b600052603260045260246000fd5b6000808335601e19843603018112620033c657600080fd5b83016020810192503590506001600160401b03811115620033e657600080fd5b8060051b360383131562002d3857600080fd5b81835260006001600160fb1b038311156200341357600080fd5b8260051b8083602087013760009401602001938452509192915050565b803560ff811681146200308257600080fd5b63ffffffff83168152604060208201528135604082015260006200346a6020840184620033ae565b6101008060608601526200348461014086018385620033f9565b925062003494604087016200306a565b91506001600160401b03808316608087015280620034b5606089016200306a565b1660a087015250620034ca6080870162003430565b60ff811660c08701529150620034e360a087016200306a565b6001600160401b03811660e087015291506200350260c087016200306a565b6001600160401b031690850152506200351e60e085016200306a565b6001600160401b0381166101208501525b50949350505050565b6000602082840312156200354b57600080fd5b8151801515811462000eb357600080fd5b600181815b8085111562002e79578160001904821115620035815762003581620031b3565b808516156200358f57918102915b93841c939080029062003561565b600082620035ae5750600162000f03565b81620035bd5750600062000f03565b8160018114620035d65760028114620035e15762003601565b600191505062000f03565b60ff841115620035f557620035f5620031b3565b50506001821b62000f03565b5060208310610133831016604e8410600b841016171562003626575081810a62000f03565b6200363283836200355c565b8060001904821115620036495762003649620031b3565b029392505050565b600062000eb383836200359d565b60008160001904831182151516156200367c576200367c620031b3565b500290565b60006001600160401b0383811690831681811015620036a457620036a4620031b3565b039392505050565b63ffffffff8316815260406020820152813560408201526000620036d46020840184620033ae565b610160806060860152620036ee6101a086018385620033f9565b9250620036fe604087016200306a565b6001600160401b038116608087015291506200371d606087016200306a565b6001600160401b03811660a08701529150608086013560c086015260a086013560e08601526200375060c0870162003216565b91506101006200376a818701846001600160801b03169052565b6200377860e088016200306a565b925061012062003792818801856001600160401b03169052565b6200379f8289016200306a565b93506101409150620037bb828801856001600160401b03169052565b620037c88189016200306a565b935050620037e0828701846001600160401b03169052565b620037ed8188016200306a565b925050506200352f6101808501826001600160401b03169052565b6000602082840312156200381b57600080fd5b5051919050565b634e487b7160e01b600052601260045260246000fd5b6000826200384a576200384a62003822565b500690565b60008262003861576200386162003822565b500490565b60005b838110156200388357818101518382015260200162003869565b83811115620012b85750506000910152565b6020815260008251806020840152620038b681604085016020870162003866565b601f01601f19169190910160400192915050565b600060208284031215620038dd57600080fd5b815162000eb3816200313c565b6000806000606084860312156200390057600080fd5b8351925060208401519150604084015190509250925092565b634e487b7160e01b600052600160045260246000fd5b600082516200394381846020870162003866565b919091019291505056fe608060405234801561001057600080fd5b506040516101db3803806101db83398101604081905261002f91610054565b600080546001600160a01b0319166001600160a01b0392909216919091179055610084565b60006020828403121561006657600080fd5b81516001600160a01b038116811461007d57600080fd5b9392505050565b610148806100936000396000f3fe60806040526004361061002d5760003560e01c806335f469941461006c57806370d5ae051461008357600080fd5b36610067576040513481527fa8142743f8f70a4c26f3691cf4ed59718381fb2f18070ec52be1f1022d8555579060200160405180910390a1005b600080fd5b34801561007857600080fd5b506100816100bf565b005b34801561008f57600080fd5b506000546100a3906001600160a01b031681565b6040516001600160a01b03909116815260200160405180910390f35b600054604080516001600160a01b0390921682524760208301527f696de425f79f4a40bc6d2122ca50507f0efbeabbff86a84871b7196ab8ea8df7910160405180910390a16000546001600160a01b0316fffea26469706673582212209bf41069c3597b035e331117fd4c417ae97f591b5e85acfef3d116ca08b26a4564736f6c634300080b0033ec7e8c1c441439dd40959777f4c577ea0cd42fcc1dbe59d2bd0f5d9c55df8dc95bebac0595fee029d42bb673937f5f1cb81cf8641382bc17774635de9b7d7965ec7e8c1c441439dd40959777f4c577ea0cd42fcc1dbe59d2bd0f5d9c55df8db6a2646970667358221220e8c0d0b73956c97219ba7556cb70738e7b14d929ae0168bd41b2cebfb830be6164736f6c634300080b0033",
  "linkReferences": {},
  "deployedLinkReferences": {}
}