{
  "_format": "hh-sol-artifact-1",
  "contractName": "AgentPingFacet",
  "sourceName": "contracts/fasset/facets/AgentPingFacet.sol",
  "abi": [
    {
      "anonymous": false,
      "inputs": [
        {
          "indexed": true,
          "internalType": "address",
          "name": "agentVault",
          "type": "address"
        },
        {
          "indexed": true,
          "internalType": "address",
          "name": "sender",
          "type": "address"
        },
        {
          "indexed": false,
          "internalType": "uint256",
          "name": "query",
          "type": "uint256"
        }
      ],
      "name": "AgentPing",
      "type": "event"
    },
    {
      "anonymous": false,
      "inputs": [
        {
          "indexed": true,
          "internalType": "address",
          "name": "agentVault",
          "type": "address"
        },
        {
          "indexed": true,
          "internalType": "address",
          "name": "owner",
          "type": "address"
        },
        {
          "indexed": false,
          "internalType": "uint256",
          "name": "query",
          "type": "uint256"
        },
        {
          "indexed": false,
          "internalType": "string",
          "name": "response",
          "type": "string"
        }
      ],
      "name": "AgentPingResponse",
      "type": "event"
    },
    {
      "inputs": [
        {
          "internalType": "address",
          "name": "_agentVault",
          "type": "address"
        },
        {
          "internalType": "uint256",
          "name": "_query",
          "type": "uint256"
        }
      ],
      "name": "agentPing",
      "outputs": [],
      "stateMutability": "nonpayable",
      "type": "function"
    },
    {
      "inputs": [
        {
          "internalType": "address",
          "name": "_agentVault",
          "type": "address"
        },
        {
          "internalType": "uint256",
          "name": "_query",
          "type": "uint256"
        },
        {
          "internalType": "string",
          "name": "_response",
          "type": "string"
        }
      ],
      "name": "agentPingResponse",
      "outputs": [],
      "stateMutability": "nonpayable",
      "type": "function"
    },
    {
      "inputs": [],
      "name": "initAgentPingFacet",
      "outputs": [],
      "stateMutability": "nonpayable",
      "type": "function"
    }
  ],
  "bytecode": "0x608060405234801561001057600080fd5b506105c7806100206000396000f3fe608060405234801561001057600080fd5b50600436106100415760003560e01c8063578558ac14610046578063e11112ab1461005b578063e695a6f31461006e575b600080fd5b6100596100543660046103f1565b610076565b005b610059610069366004610433565b6100ba565b610059610124565b60405181815233906001600160a01b038416907f930d58454e0712650191995b99df264671955eb5539e2ca62e725e9aa4b699c99060200160405180910390a35050565b60006100c584610211565b90506100d0816102b8565b60018101546040516001600160a01b03918216918616907f46614006385e99b674e4123f95f527c520a01e4f04e5985e63c85607f2777e6e906101169087908790610500565b60405180910390a350505050565b6301ffc9a760e01b6000527fc8fcad8db84d3cc18b4c41d551ea0ee66dd599cde068d998e57d5e09332c131e6020527f673a26ab9c976db950bbe987aa80c5e387f329563bb0afe093ddccc970489e31547fc8fcad8db84d3cc18b4c41d551ea0ee66dd599cde068d998e57d5e09332c131c9060ff166101eb5760405162461bcd60e51b815260206004820152601760248201527f6469616d6f6e64206e6f7420696e697469616c697a656400000000000000000060448201526064015b60405180910390fd5b63b6944a0760e01b6000908152600290910160205260409020805460ff19166001179055565b7f5bebac0595fee029d42bb673937f5f1cb81cf8641382bc17774635de9b7d796568010000000000000000600160e01b03604083901b161880600060048084015460ff169081111561026557610265610557565b036102b25760405162461bcd60e51b815260206004820152601b60248201527f696e76616c6964206167656e74207661756c742061646472657373000000000060448201526064016101e2565b50919050565b6102c2813361030a565b6103075760405162461bcd60e51b815260206004820152601660248201527537b7363c9030b3b2b73a103b30bab63a1037bbb732b960511b60448201526064016101e2565b50565b60018201546000906001600160a01b039081169083168114806103d457507f4f24f5c433db0962dac0d2c8b84197a6e6c7cc4e5d9ebe1916a1b6193da2f341546001600160a01b0316604051631f86345d60e31b81526001600160a01b038381166004830152919091169063fc31a2e890602401602060405180830381865afa15801561039b573d6000803e3d6000fd5b505050506040513d601f19601f820116820180604052508101906103bf919061056d565b6001600160a01b0316836001600160a01b0316145b949350505050565b6001600160a01b038116811461030757600080fd5b6000806040838503121561040457600080fd5b823561040f816103dc565b946020939093013593505050565b634e487b7160e01b600052604160045260246000fd5b60008060006060848603121561044857600080fd5b8335610453816103dc565b925060208401359150604084013567ffffffffffffffff8082111561047757600080fd5b818601915086601f83011261048b57600080fd5b81358181111561049d5761049d61041d565b604051601f8201601f19908116603f011681019083821181831017156104c5576104c561041d565b816040528281528960208487010111156104de57600080fd5b8260208601602083013760006020848301015280955050505050509250925092565b8281526000602060406020840152835180604085015260005b8181101561053557858101830151858201606001528201610519565b506000606082860101526060601f19601f830116850101925050509392505050565b634e487b7160e01b600052602160045260246000fd5b60006020828403121561057f57600080fd5b815161058a816103dc565b939250505056fea26469706673582212203e08b47617682524682799b274684c6f6257c5f4f4c207f118616e8e0cf4455164736f6c63430008170033",
  "linkReferences": {},
  "deployedLinkReferences": {}
}