{
  "_format": "hh-sol-artifact-1",
  "contractName": "AgentInfoFacet",
  "sourceName": "contracts/assetManager/facets/AgentInfoFacet.sol",
  "abi": [
    {
      "inputs": [
        {
          "internalType": "address",
          "name": "_agentVault",
          "type": "address"
        }
      ],
      "name": "getAgentFullPoolCollateral",
      "outputs": [
        {
          "internalType": "uint256",
          "name": "",
          "type": "uint256"
        }
      ],
      "stateMutability": "view",
      "type": "function"
    },
    {
      "inputs": [
        {
          "internalType": "address",
          "name": "_agentVault",
          "type": "address"
        }
      ],
      "name": "getAgentFullVaultCollateral",
      "outputs": [
        {
          "internalType": "uint256",
          "name": "",
          "type": "uint256"
        }
      ],
      "stateMutability": "view",
      "type": "function"
    },
    {
      "inputs": [
        {
          "internalType": "address",
          "name": "_agentVault",
          "type": "address"
        }
      ],
      "name": "getAgentInfo",
      "outputs": [
        {
          "components": [
            {
              "internalType": "enum AgentInfo.Status",
              "name": "status",
              "type": "uint8"
            },
            {
              "internalType": "address",
              "name": "ownerManagementAddress",
              "type": "address"
            },
            {
              "internalType": "address",
              "name": "ownerWorkAddress",
              "type": "address"
            },
            {
              "internalType": "address",
              "name": "collateralPool",
              "type": "address"
            },
            {
              "internalType": "address",
              "name": "collateralPoolToken",
              "type": "address"
            },
            {
              "internalType": "string",
              "name": "underlyingAddressString",
              "type": "string"
            },
            {
              "internalType": "bool",
              "name": "publiclyAvailable",
              "type": "bool"
            },
            {
              "internalType": "uint256",
              "name": "feeBIPS",
              "type": "uint256"
            },
            {
              "internalType": "uint256",
              "name": "poolFeeShareBIPS",
              "type": "uint256"
            },
            {
              "internalType": "contract IERC20",
              "name": "vaultCollateralToken",
              "type": "address"
            },
            {
              "internalType": "uint256",
              "name": "mintingVaultCollateralRatioBIPS",
              "type": "uint256"
            },
            {
              "internalType": "uint256",
              "name": "mintingPoolCollateralRatioBIPS",
              "type": "uint256"
            },
            {
              "internalType": "uint256",
              "name": "freeCollateralLots",
              "type": "uint256"
            },
            {
              "internalType": "uint256",
              "name": "totalVaultCollateralWei",
              "type": "uint256"
            },
            {
              "internalType": "uint256",
              "name": "freeVaultCollateralWei",
              "type": "uint256"
            },
            {
              "internalType": "uint256",
              "name": "vaultCollateralRatioBIPS",
              "type": "uint256"
            },
            {
              "internalType": "contract IERC20",
              "name": "poolWNatToken",
              "type": "address"
            },
            {
              "internalType": "uint256",
              "name": "totalPoolCollateralNATWei",
              "type": "uint256"
            },
            {
              "internalType": "uint256",
              "name": "freePoolCollateralNATWei",
              "type": "uint256"
            },
            {
              "internalType": "uint256",
              "name": "poolCollateralRatioBIPS",
              "type": "uint256"
            },
            {
              "internalType": "uint256",
              "name": "totalAgentPoolTokensWei",
              "type": "uint256"
            },
            {
              "internalType": "uint256",
              "name": "announcedVaultCollateralWithdrawalWei",
              "type": "uint256"
            },
            {
              "internalType": "uint256",
              "name": "announcedPoolTokensWithdrawalWei",
              "type": "uint256"
            },
            {
              "internalType": "uint256",
              "name": "freeAgentPoolTokensWei",
              "type": "uint256"
            },
            {
              "internalType": "uint256",
              "name": "mintedUBA",
              "type": "uint256"
            },
            {
              "internalType": "uint256",
              "name": "reservedUBA",
              "type": "uint256"
            },
            {
              "internalType": "uint256",
              "name": "redeemingUBA",
              "type": "uint256"
            },
            {
              "internalType": "uint256",
              "name": "poolRedeemingUBA",
              "type": "uint256"
            },
            {
              "internalType": "uint256",
              "name": "dustUBA",
              "type": "uint256"
            },
            {
              "internalType": "uint256",
              "name": "ccbStartTimestamp",
              "type": "uint256"
            },
            {
              "internalType": "uint256",
              "name": "liquidationStartTimestamp",
              "type": "uint256"
            },
            {
              "internalType": "uint256",
              "name": "maxLiquidationAmountUBA",
              "type": "uint256"
            },
            {
              "internalType": "uint256",
              "name": "liquidationPaymentFactorVaultBIPS",
              "type": "uint256"
            },
            {
              "internalType": "uint256",
              "name": "liquidationPaymentFactorPoolBIPS",
              "type": "uint256"
            },
            {
              "internalType": "int256",
              "name": "underlyingBalanceUBA",
              "type": "int256"
            },
            {
              "internalType": "uint256",
              "name": "requiredUnderlyingBalanceUBA",
              "type": "uint256"
            },
            {
              "internalType": "int256",
              "name": "freeUnderlyingBalanceUBA",
              "type": "int256"
            },
            {
              "internalType": "uint256",
              "name": "announcedUnderlyingWithdrawalId",
              "type": "uint256"
            },
            {
              "internalType": "uint256",
              "name": "buyFAssetByAgentFactorBIPS",
              "type": "uint256"
            },
            {
              "internalType": "uint256",
              "name": "poolExitCollateralRatioBIPS",
              "type": "uint256"
            },
            {
              "internalType": "uint256",
              "name": "poolTopupCollateralRatioBIPS",
              "type": "uint256"
            },
            {
              "internalType": "uint256",
              "name": "poolTopupTokenPriceFactorBIPS",
              "type": "uint256"
            },
            {
              "internalType": "uint256",
              "name": "handshakeType",
              "type": "uint256"
            }
          ],
          "internalType": "struct AgentInfo.Info",
          "name": "",
          "type": "tuple"
        }
      ],
      "stateMutability": "view",
      "type": "function"
    },
    {
      "inputs": [
        {
          "internalType": "address",
          "name": "_agentVault",
          "type": "address"
        }
      ],
      "name": "getAgentLiquidationFactorsAndMaxAmount",
      "outputs": [
        {
          "internalType": "uint256",
          "name": "liquidationPaymentFactorVaultBIPS",
          "type": "uint256"
        },
        {
          "internalType": "uint256",
          "name": "liquidationPaymentFactorPoolBIPS",
          "type": "uint256"
        },
        {
          "internalType": "uint256",
          "name": "maxLiquidationAmountUBA",
          "type": "uint256"
        }
      ],
      "stateMutability": "view",
      "type": "function"
    },
    {
      "inputs": [
        {
          "internalType": "address",
          "name": "_agentVault",
          "type": "address"
        }
      ],
      "name": "getAgentVaultCollateralToken",
      "outputs": [
        {
          "internalType": "contract IERC20",
          "name": "",
          "type": "address"
        }
      ],
      "stateMutability": "view",
      "type": "function"
    },
    {
      "inputs": [
        {
          "internalType": "address",
          "name": "_agentVault",
          "type": "address"
        }
      ],
      "name": "getAgentVaultOwner",
      "outputs": [
        {
          "internalType": "address",
          "name": "_ownerManagementAddress",
          "type": "address"
        }
      ],
      "stateMutability": "view",
      "type": "function"
    },
    {
      "inputs": [
        {
          "internalType": "uint256",
          "name": "_start",
          "type": "uint256"
        },
        {
          "internalType": "uint256",
          "name": "_end",
          "type": "uint256"
        }
      ],
      "name": "getAllAgents",
      "outputs": [
        {
          "internalType": "address[]",
          "name": "_agents",
          "type": "address[]"
        },
        {
          "internalType": "uint256",
          "name": "_totalLength",
          "type": "uint256"
        }
      ],
      "stateMutability": "view",
      "type": "function"
    },
    {
      "inputs": [
        {
          "internalType": "address",
          "name": "_agentVault",
          "type": "address"
        }
      ],
      "name": "getCollateralPool",
      "outputs": [
        {
          "internalType": "address",
          "name": "",
          "type": "address"
        }
      ],
      "stateMutability": "view",
      "type": "function"
    },
    {
      "inputs": [
        {
          "internalType": "string",
          "name": "_suffix",
          "type": "string"
        }
      ],
      "name": "isPoolTokenSuffixReserved",
      "outputs": [
        {
          "internalType": "bool",
          "name": "",
          "type": "bool"
        }
      ],
      "stateMutability": "view",
      "type": "function"
    }
  ],
  "bytecode": "0x608060405234801561001057600080fd5b506130c0806100206000396000f3fe608060405234801561001057600080fd5b50600436106100935760003560e01c80636e61164f116100665780636e61164f1461012d5780637e2ae0d714610140578063b19aec1714610161578063c97c1dcc14610182578063d3a5af8b1461019557600080fd5b8063152052b0146100985780635252f3a2146100c1578063529cc2b9146100ec5780635f0169061461011a575b600080fd5b6100ab6100a63660046128b4565b6101b8565b6040516100b89190612959565b60405180910390f35b6100d46100cf3660046128b4565b6101cf565b6040516001600160a01b0390911681526020016100b8565b6100ff6100fa3660046128b4565b6101ea565b604080519384526020840192909252908201526060016100b8565b6100d46101283660046128b4565b610205565b6100d461013b3660046128b4565b610210565b61015361014e3660046128b4565b61021b565b6040519081526020016100b8565b61017461016f366004612bee565b610228565b6040516100b8929190612c10565b6101536101903660046128b4565b610242565b6101a86101a3366004612c7c565b61024f565b60405190151581526020016100b8565b6101c0612729565b6101c98261025a565b92915050565b60006101da826108f3565b546001600160a01b031692915050565b60008060006101f88461098d565b9250925092509193909250565b60006101c9826109c4565b60006101c9826109d7565b60006101c98260016109f5565b606060006102368484610a16565b915091505b9250929050565b60006101c98260006109f5565b60006101c982610b27565b610262612729565b600061026d836108f3565b9050600061027a82610b84565b9050600061028783610c2e565b9050600061029484610c7b565b84549091506001600160a01b031660006102ad86610cb4565b90506102b886610d28565b879060048111156102cb576102cb6128d1565b908160048111156102de576102de6128d1565b90525060018601546001600160a01b031660208801526103257f4f24f5c433db0962dac0d2c8b84197a6e6c7cc4e5d9ebe1916a1b6193da2f341546001600160a01b031690565b6020880151604051631f86345d60e31b81526001600160a01b03918216600482015291169063fc31a2e890602401602060405180830381865afa158015610370573d6000803e3d6000fd5b505050506040513d601f19601f820116820180604052508101906103949190612d2c565b6001600160a01b039081166040808a01919091529083166060890181905281516332f7ce0b60e21b81529151909163cbdf382c9160048083019260209291908290030181865afa1580156103ec573d6000803e3d6000fd5b505050506040513d601f19601f820116820180604052508101906104109190612d2c565b6001600160a01b0316608088015260028601805461042d90612d49565b80601f016020809104026020016040519081016040528092919081815260200182805461045990612d49565b80156104a65780601f1061047b576101008083540402835291602001916104a6565b820191906000526020600020905b81548152906001019060200180831161048957829003601f168201915b505050505060a0880152600486015463ffffffff6501000000000082048116151560c08a015285546001600160a01b03166101208a015261ffff69010000000000000000008304811660e08b0152600160581b8304166101008a0152600386015461051b92600160681b900482169116610df2565b610140880152600486015460038401546105459163ffffffff600160881b90910481169116610df2565b6101608801526105558587610e0a565b6101808801528451602001516101a088015284516105739087610e5e565b6101c088015280516101e088015282546001600160a01b03166102008801526020808601805190910151610220890152516105ae9087610e5e565b61024088015260208082015161026089015260408601805190910151610280890152516105db9087610e5e565b6102e08801526105ec866000610e7b565b546001600160801b03166102a0880152610607866002610e7b565b546001600160801b03166102c0880152600586015461063590600160401b90046001600160401b0316610ec8565b6103008801526005860154610652906001600160401b0316610ec8565b610320880152600586015461067690600160801b90046001600160401b0316610ec8565b610340880152600586015461069a90600160c01b90046001600160401b0316610ec8565b61036088015260068601546106b7906001600160401b0316610ec8565b6103808801526106c686610f1b565b6103a08801526106d586610f98565b6103c08801526106e5868261107d565b6103e08a01526104208901526104008801526006860154600160401b9004600f0b6104408801526107158661111b565b6104608801819052610726906111b6565b8761044001516107369190612d93565b6104808801526006860154600160c01b90046001600160401b03166104a0880152600a860154600160801b900461ffff166104c0880152855460408051633cfc747d60e01b815290516001600160a01b0390921691633cfc747d916004808201926020929091908290030181865afa1580156107b6573d6000803e3d6000fd5b505050506040513d601f19601f820116820180604052508101906107da9190612db3565b63ffffffff166104e088015285546040805163b337929b60e01b815290516001600160a01b039092169163b337929b916004808201926020929091908290030181865afa15801561082f573d6000803e3d6000fd5b505050506040513d601f19601f820116820180604052508101906108539190612db3565b63ffffffff16610500880152855460408051634a4ac2ef60e01b815290516001600160a01b0390921691634a4ac2ef916004808201926020929091908290030181865afa1580156108a8573d6000803e3d6000fd5b505050506040513d601f19601f820116820180604052508101906108cc9190612dd9565b61ffff16610520880152505050600c9092015463ffffffff16610540840152509092915050565b60008051602061304b83398151915268010000000000000000600160e01b03604083901b161880600060048084015460ff1690811115610935576109356128d1565b036109875760405162461bcd60e51b815260206004820152601b60248201527f696e76616c6964206167656e74207661756c742061646472657373000000000060448201526064015b60405180910390fd5b50919050565b60008060008061099c856108f3565b905060006109a982610cb4565b90506109b5828261107d565b94509450945050509193909250565b60006101da6109d2836108f3565b610c2e565b60006109e2826108f3565b600101546001600160a01b031692915050565b600080610a0a610a04856108f3565b84611224565b60200151949350505050565b7fec7e8c1c441439dd40959777f4c577ea0cd42fcc1dbe59d2bd0f5d9c55df8db95460609060008051602061306b833981519152610a5484836112a6565b9350610a6085856112a6565b9450610a6c8585612dfd565b6001600160401b03811115610a8357610a83612c66565b604051908082528060200260200182016040528015610aac578160200160208202803683370190505b509250845b84811015610b1e57816003018181548110610ace57610ace612e10565b6000918252602090912001546001600160a01b031684610aee8884612dfd565b81518110610afe57610afe612e10565b6001600160a01b0390921660209283029190910190910152600101610ab1565b50509250929050565b60405160009060008051602061306b833981519152907fec7e8c1c441439dd40959777f4c577ea0cd42fcc1dbe59d2bd0f5d9c55df8db890610b6a908590612e26565b9081526040519081900360200190205460ff169392505050565b610bef6040805160c081019091526000606082018181526080830182905260a083019190915281908152604080516060810182526000808252602082810182905292820152910190815260408051606081018252600080825260208281018290529282015291015290565b6000610bfa836112b5565b90506040518060600160405280610c108561137b565b8152602001828152602001610c258584611406565b90529392505050565b60008060008051602061306b83398151915260048401548154919250829161010090910461ffff16908110610c6557610c65612e10565b9060005260206000209060040201915050919050565b60008060008051602061306b833981519152600484015481549192508291630100000090910461ffff16908110610c6557610c65612e10565b610cdf6040518060800160405280600081526020016000815260200160008152602001600081525090565b600080610ced8460006115dd565b91509150600080610cff8660016115dd565b604080516080810182529687526020870192909252908501939093525050606082015292915050565b600481015460009060ff166001816004811115610d4757610d476128d1565b03610d555750600092915050565b6002816004811115610d6957610d696128d1565b03610da6576000610d798461162b565b90506001816002811115610d8f57610d8f6128d1565b14610d9b576002610d9e565b60015b949350505050565b6003816004811115610dba57610dba6128d1565b03610dc85750600392915050565b6004816004811115610ddc57610ddc6128d1565b14610de957610de9612e42565b50600492915050565b6000818311610e015781610e03565b825b9392505050565b600080610e1b846000015184611708565b90506000610e2d856020015185611708565b90506000610e3f866040015186611708565b9050610e5483610e4f84846112a6565b6112a6565b9695505050505050565b600080610e6b848461173e565b9050610d9e84602001518261186e565b60006001826002811115610e9157610e916128d1565b03610e9e57610e9e612e42565b6000826002811115610eb257610eb26128d1565b14610ec05782600901610e03565b505060080190565b7f4f24f5c433db0962dac0d2c8b84197a6e6c7cc4e5d9ebe1916a1b6193da2f3465460009060008051602061302b83398151915290610e0390600160901b90046001600160401b03908116908516612e58565b6000600260048084015460ff1690811115610f3857610f386128d1565b14610f4557506000919050565b60016004830154600160e81b900460ff166002811115610f6757610f676128d1565b14610f73576000610f89565b6004820154600160a81b90046001600160401b03165b6001600160401b031692915050565b600481015460009060ff166002816004811115610fb757610fb76128d1565b0361104257600060008051602061302b8339815191529050600060016004860154600160e81b900460ff166002811115610ff357610ff36128d1565b14905080611002576000611011565b60118201546001600160401b03165b60048601546110309190600160a81b90046001600160401b0316612e6f565b6001600160401b031695945050505050565b6003816004811115611056576110566128d1565b0361107457505060040154600160a81b90046001600160401b031690565b50600092915050565b60008060008061108c8661162b565b905060028160028111156110a2576110a26128d1565b146110b857600080600093509350935050611114565b6110cb8686600001518760200151611888565b865191955093506000906110fc906110e690899088856119a1565b6110f78989602001518860016119a1565b610df2565b905061110f61110a82611ab7565b610ec8565b925050505b9250925092565b7f4f24f5c433db0962dac0d2c8b84197a6e6c7cc4e5d9ebe1916a1b6193da2f34654600582015460009160008051602061302b833981519152918391600160901b90046001600160401b039081169161118591600160801b8204811691600160401b900416612e6f565b6001600160401b03166111989190612e58565b600d830154909150610d9e908290600160401b900461ffff16611b1f565b60006001600160ff1b038211156112205760405162461bcd60e51b815260206004820152602860248201527f53616665436173743a2076616c756520646f65736e27742066697420696e2061604482015267371034b73a191a9b60c11b606482015260840161097e565b5090565b6112496040805160608101909152806000815260200160008152602001600081525090565b600082600281111561125d5761125d6128d1565b036112725761126b8361137b565b90506101c9565b6001826002811115611286576112866128d1565b036112945761126b836112b5565b61126b836112a1856112b5565b611406565b6000818310610e015781610e03565b6112da6040805160608101909152806000815260200160008152602001600081525090565b60006112e583610c7b565b60408051606081019091529091508060018152825485546040516370a0823160e01b81526001600160a01b0391821660048201526020909301929116906370a08231906024015b602060405180830381865afa158015611349573d6000803e3d6000fd5b505050506040513d601f19601f8201168201806040525081019061136d9190612e8f565b8152602001610c2583611b2e565b6113a06040805160608101909152806000815260200160008152602001600081525090565b60006113ab83610c2e565b6040805160608101825260008152825482516370a0823160e01b815260008051602061304b833981519152881890931c6001600160a01b039081166004850152939450909260208401929116906370a082319060240161132c565b61142b6040805160608101909152806000815260200160008152602001600081525090565b8254604080516332f7ce0b60e21b815290516000926001600160a01b03169163cbdf382c9160048083019260209291908290030181865afa158015611474573d6000803e3d6000fd5b505050506040513d601f19601f820116820180604052508101906114989190612d2c565b905060006001600160a01b0382166370a0823160008051602061304b833981519152871860401c6040516001600160e01b031960e084901b1681526001600160a01b039091166004820152602401602060405180830381865afa158015611503573d6000803e3d6000fd5b505050506040513d601f19601f820116820180604052508101906115279190612e8f565b90506000826001600160a01b03166318160ddd6040518163ffffffff1660e01b8152600401602060405180830381865afa158015611569573d6000803e3d6000fd5b505050506040513d601f19601f8201168201806040525081019061158d9190612e8f565b9050600085602001516000036115a45760006115b9565b602086015160408701516115b9918490611b44565b60408051606081018252600281526020810195909552840152509095945050505050565b6000806000806115ed8686611c5e565b9150915060006115fd8388611dc1565b9050600061160b8389611dc1565b90508360400151945061161e8282610df2565b9550505050509250929050565b60008060008051602061302b833981519152600484015490915060ff16600281600481111561165c5761165c6128d1565b036116db57600060016004860154600160e81b900460ff166002811115611685576116856128d1565b1480156116c15750601183015460048601546116b4916001600160401b0390811691600160a81b900416612e6f565b6001600160401b03164211155b9050806116cf5760026116d2565b60015b95945050505050565b60038160048111156116ef576116ef6128d1565b036116fe575060029392505050565b5060009392505050565b6000806117158484610e5e565b905060006117238585611e82565b9050806000036117345760006116d2565b6116d28183612ebe565b6000806000611751848660000151611ecf565b6005860154919350915060009061177a906001600160401b03600160401b820481169116612ed2565b9050600061179684611790848a60400151611fd5565b90611b1f565b905060006001885160028111156117af576117af6128d1565b146117ce576005870154600160801b90046001600160401b03166117e4565b6005870154600160c01b90046001600160401b03165b9050600061180385611790846001600160401b03168c60400151611fd5565b9050600060018a51600281111561181c5761181c6128d1565b03611828576000611840565b8951611835908a90610e7b565b546001600160801b03165b6001600160801b03169050806118568386612ed2565b6118609190612ed2565b9a9950505050505050505050565b600081831161187e576000610e03565b610e038284612dfd565b60008060008051602061302b833981519152816118a487611fef565b905060008260150182815481106118bd576118bd612e10565b906000526020600020015490506118f38360160183815481106118e2576118e2612e10565b9060005260206000200154826112a6565b9450600061190089610c2e565b9050600061190d8a610c7b565b9050611918826120e9565b1580156119295750611929816120e9565b15611937576000965061195b565b611940826120e9565b80156119525750611950816120e9565b155b1561195b578296505b88871115611967578896505b6119718784612dfd565b9550878611156119945787955061199161198b8785612dfd565b8a6112a6565b96505b5050505050935093915050565b60008060008051602061302b8339815191529050600360048088015460ff16908111156119d0576119d06128d1565b036119f15750506005840154600160401b90046001600160401b0316610d9e565b60006119ff8760028661211d565b9050858111611a1357600092505050610d9e565b848611611a37575050506005840154600160401b90046001600160401b0316610d9e565b6000611a6c611a468884612dfd565b611a508885612dfd565b60058b0154600160401b90046001600160401b03169190612181565b600d840154909150611a889082906001600160401b03166121be565b6005890154909150611aab908290600160401b90046001600160401b03166112a6565b98975050505050505050565b60006001600160401b038211156112205760405162461bcd60e51b815260206004820152602660248201527f53616665436173743a2076616c756520646f65736e27742066697420696e203660448201526534206269747360d01b606482015260840161097e565b6000610e038383612710611b44565b6000611b3b8260006121f5565b50909392505050565b6000808211611b885760405162461bcd60e51b815260206004820152601060248201526f4469766973696f6e206279207a65726f60801b604482015260640161097e565b83600003611b9857506000610e03565b83830283858281611bab57611bab612ea8565b0403611bc957828181611bc057611bc0612ea8565b04915050610e03565b506000611bd68386612ebe565b90506000611be48487612ee5565b90506000611bf28587612ebe565b90506000611c008688612ee5565b905085611c0d8285612e58565b611c179190612ebe565b611c218385612e58565b611c2b8387612e58565b88611c368689612e58565b611c409190612e58565b611c4a9190612ed2565b611c549190612ed2565b611aab9190612ed2565b611c836040805160608101909152806000815260200160008152602001600081525090565b611ca86040805160608101909152806000815260200160008152602001600081525090565b6000611cb485856123ad565b90506000611cc28686612459565b90506000611ccf836120e9565b611cda576000611d47565b82546040516370a0823160e01b81526001600160a01b038481166004830152909116906370a0823190602401602060405180830381865afa158015611d23573d6000803e3d6000fd5b505050506040513d601f19601f82011682018060405250810190611d479190612e8f565b9050600080611d558561249c565b915091506040518060600160405280896002811115611d7657611d766128d1565b81526020018481526020018381525096506040518060600160405280896002811115611da457611da46128d1565b815260200184815260200182815250955050505050509250929050565b600080600184516002811115611dd957611dd96128d1565b14611df8576005830154600160801b90046001600160401b0316611e0e565b6005830154600160c01b90046001600160401b03165b60058401546001600160401b0391821692506000918391611e3a9181811691600160401b900416612ed2565b611e449190612ed2565b905080600003611e5d576402540be400925050506101c9565b6000611e6d828760400151611fd5565b6020870151909150610e549061271083611b44565b60008060008051602061302b83398151915290506000611ea6848660000151611ecf565b50600d83015460408701519192506116d2918391611790916001600160401b0390911690611fd5565b6000806002836002811115611ee657611ee66128d1565b03611f4e57600080611ef9866001611ecf565b915091506000611f1460008051602061302b83398151915290565b600c015463ffffffff64010000000090910481169150611f389082908490611b1f16565b9350611f448184611b1f565b945050505061023b565b6001836002811115611f6257611f626128d1565b03611f9d57611f7084610c7b565b60030154600485015463ffffffff9182169250611f9691600160881b9091041682610df2565b915061023b565b611fa684610c2e565b60030154600485015463ffffffff9182169250611fcc91600160681b9091041682610df2565b91509250929050565b6000610e0382611fe76009600a612fdd565b859190611b44565b60008060008051602061302b83398151915290506000600260048086015460ff1690811115612020576120206128d1565b14801561204c575060016004850154600160e81b900460ff16600281111561204a5761204a6128d1565b145b905060008161205c57600061206b565b60118301546001600160401b03165b60048601546001600160401b039182169250600091612094918491600160a81b90910416612ed2565b601485015490915060009064010000000090046001600160401b03166120ba8342612dfd565b6120c49190612ebe565b90506120de8160018760150180549050610e4f9190612dfd565b979650505050505050565b8054600090600160b01b90046001600160401b031615806101c95750505442600160b01b9091046001600160401b03161190565b60008061212a85846123ad565b90506001846002811115612140576121406128d1565b14806121535750612151858461254b565b155b15612169576003015463ffffffff169050610e03565b60030154600160401b900463ffffffff169050610e03565b60008061218f858585611b44565b9050600083806121a1576121a1612ea8565b858709905080156121b55781600101610e54565b50949350505050565b6000806121cb8385612ee5565b905080156121ed57826121de8286612dfd565b6121e89190612ed2565b610d9e565b509192915050565b60008060008060008061229488600101805461221090612d49565b80601f016020809104026020016040519081016040528092919081815260200182805461223c90612d49565b80156122895780601f1061225e57610100808354040283529160200191612289565b820191906000526020600020905b81548152906001019060200180831161226c57829003601f168201915b5050505050886125b4565b8a549295509093509150600160f01b900460ff16156122db5787546000906122ca90600160a81b900460ff1660018387866126a2565b965091945084935061111492505050565b60008060006123768b60020180546122f290612d49565b80601f016020809104026020016040519081016040528092919081815260200182805461231e90612d49565b801561236b5780601f106123405761010080835404028352916020019161236b565b820191906000526020600020905b81548152906001019060200180831161234e57829003601f168201915b50505050508b6125b4565b8d54929550909350915060009061239a90600160a81b900460ff1685848a896126a2565b9950949750909550611114945050505050565b600060028260028111156123c3576123c36128d1565b036123d0576123d0612e42565b60008051602061306b83398151915260008360028111156123f3576123f36128d1565b0361242f57600484015481548291610100900461ffff1690811061241957612419612e10565b90600052602060002090600402019150506101c9565b6004840154815482916301000000900461ffff1690811061241957612419612e10565b5092915050565b6000600182600281111561246f5761246f6128d1565b1461248d5760008051602061304b833981519152831860401c610e03565b5050546001600160a01b031690565b60008060008051602061302b8339815191528180806124bb87826121f5565b92509250925060008060006124d18a60016121f5565b60108a0154929550909350915060009085906124fd90600160c01b90046001600160401b031684612ed2565b1015801561252a57506010880154869061252790600160c01b90046001600160401b031685612ed2565b10155b90508699508061253a578661253c565b835b98505050505050505050915091565b600080826002811115612560576125606128d1565b0361257c57506004820154600160f01b900460011615156101c9565b6001826002811115612590576125906128d1565b1461259d5761259d612e42565b506004820154600160f01b900460021615156101c9565b7f4f24f5c433db0962dac0d2c8b84197a6e6c7cc4e5d9ebe1916a1b6193da2f344546000908190819060008051602061302b833981519152906001600160a01b031685156126765760405163e4a0a55b60e01b81526001600160a01b0382169063e4a0a55b90612628908a90600401612fe9565b606060405180830381865afa158015612645573d6000803e3d6000fd5b505050506040513d601f19601f820116820180604052508101906126699190612ffc565b9450945094505050611114565b60405163524f388960e01b81526001600160a01b0382169063524f388990612628908a90600401612fe9565b600060008051602061302b8339815191528160096126c0878a612ed2565b6126ca9190612ed2565b600a8301549091506000906126ea908690600160a81b900460ff16612ed2565b9050808210156126fc576126fc612e42565b61271c6127098284612dfd565b61271490600a612fdd565b87908a611b44565b9998505050505050505050565b604080516105608101909152806000815260200160006001600160a01b0316815260200160006001600160a01b0316815260200160006001600160a01b0316815260200160006001600160a01b0316815260200160608152602001600015158152602001600081526020016000815260200160006001600160a01b0316815260200160008152602001600081526020016000815260200160008152602001600081526020016000815260200160006001600160a01b0316815260200160008152602001600081526020016000815260200160008152602001600081526020016000815260200160008152602001600081526020016000815260200160008152602001600081526020016000815260200160008152602001600081526020016000815260200160008152602001600081526020016000815260200160008152602001600081526020016000815260200160008152602001600081526020016000815260200160008152602001600081525090565b6001600160a01b03811681146128b157600080fd5b50565b6000602082840312156128c657600080fd5b8135610e038161289c565b634e487b7160e01b600052602160045260246000fd5b6005811061290557634e487b7160e01b600052602160045260246000fd5b9052565b60005b8381101561292457818101518382015260200161290c565b50506000910152565b60008151808452612945816020860160208601612909565b601f01601f19169290920160200192915050565b6020815261296b6020820183516128e7565b6000602083015161298760408401826001600160a01b03169052565b5060408301516001600160a01b03811660608401525060608301516001600160a01b03811660808401525060808301516001600160a01b03811660a08401525060a08301516105608060c08501526129e361058085018361292d565b915060c08501516129f860e086018215159052565b5060e08501516101008581019190915285015161012080860191909152850151610140612a2f818701836001600160a01b03169052565b86015161016086810191909152860151610180808701919091528601516101a0808701919091528601516101c0808701919091528601516101e080870191909152860151610200808701919091528601519050610220612a99818701836001600160a01b03169052565b8601516102408681019190915286015161026080870191909152860151610280808701919091528601516102a0808701919091528601516102c0808701919091528601516102e08087019190915286015161030080870191909152860151610320808701919091528601516103408087019190915286015161036080870191909152860151610380808701919091528601516103a0808701919091528601516103c0808701919091528601516103e08087019190915286015161040080870191909152860151610420808701919091528601516104408087019190915286015161046080870191909152860151610480808701919091528601516104a0808701919091528601516104c0808701919091528601516104e0808701919091528601516105008087019190915286015161052080870191909152860151610540808701919091529095015193019290925250919050565b60008060408385031215612c0157600080fd5b50508035926020909101359150565b604080825283519082018190526000906020906060840190828701845b82811015612c525781516001600160a01b031684529284019290840190600101612c2d565b505050602093909301939093525092915050565b634e487b7160e01b600052604160045260246000fd5b600060208284031215612c8e57600080fd5b81356001600160401b0380821115612ca557600080fd5b818401915084601f830112612cb957600080fd5b813581811115612ccb57612ccb612c66565b604051601f8201601f19908116603f01168101908382118183101715612cf357612cf3612c66565b81604052828152876020848701011115612d0c57600080fd5b826020860160208301376000928101602001929092525095945050505050565b600060208284031215612d3e57600080fd5b8151610e038161289c565b600181811c90821680612d5d57607f821691505b60208210810361098757634e487b7160e01b600052602260045260246000fd5b634e487b7160e01b600052601160045260246000fd5b818103600083128015838313168383128216171561245257612452612d7d565b600060208284031215612dc557600080fd5b815163ffffffff81168114610e0357600080fd5b600060208284031215612deb57600080fd5b815161ffff81168114610e0357600080fd5b818103818111156101c9576101c9612d7d565b634e487b7160e01b600052603260045260246000fd5b60008251612e38818460208701612909565b9190910192915050565b634e487b7160e01b600052600160045260246000fd5b80820281158282048414176101c9576101c9612d7d565b6001600160401b0381811683821601908082111561245257612452612d7d565b600060208284031215612ea157600080fd5b5051919050565b634e487b7160e01b600052601260045260246000fd5b600082612ecd57612ecd612ea8565b500490565b808201808211156101c9576101c9612d7d565b600082612ef457612ef4612ea8565b500690565b600181815b80851115612f34578160001904821115612f1a57612f1a612d7d565b80851615612f2757918102915b93841c9390800290612efe565b509250929050565b600082612f4b575060016101c9565b81612f58575060006101c9565b8160018114612f6e5760028114612f7857612f94565b60019150506101c9565b60ff841115612f8957612f89612d7d565b50506001821b6101c9565b5060208310610133831016604e8410600b8410161715612fb7575081810a6101c9565b612fc18383612ef9565b8060001904821115612fd557612fd5612d7d565b029392505050565b6000610e038383612f3c565b602081526000610e03602083018461292d565b60008060006060848603121561301157600080fd5b835192506020840151915060408401519050925092509256fe4f24f5c433db0962dac0d2c8b84197a6e6c7cc4e5d9ebe1916a1b6193da2f33a5bebac0595fee029d42bb673937f5f1cb81cf8641382bc17774635de9b7d7965ec7e8c1c441439dd40959777f4c577ea0cd42fcc1dbe59d2bd0f5d9c55df8db6a26469706673582212204c7812a4e552a4bbb9a0ed0c39f268fe7e45e17f5e919b9c78dbddc2961b7e4764736f6c63430008170033",
  "linkReferences": {},
  "deployedLinkReferences": {}
}