{
  "_format": "hh-sol-artifact-1",
  "contractName": "AgentInfoFacet",
  "sourceName": "contracts/assetManager/facets/AgentInfoFacet.sol",
  "abi": [
    {
      "inputs": [
        {
          "internalType": "address",
          "name": "_agentVault",
          "type": "address"
        }
      ],
      "name": "getAgentFullPoolCollateral",
      "outputs": [
        {
          "internalType": "uint256",
          "name": "",
          "type": "uint256"
        }
      ],
      "stateMutability": "view",
      "type": "function"
    },
    {
      "inputs": [
        {
          "internalType": "address",
          "name": "_agentVault",
          "type": "address"
        }
      ],
      "name": "getAgentFullVaultCollateral",
      "outputs": [
        {
          "internalType": "uint256",
          "name": "",
          "type": "uint256"
        }
      ],
      "stateMutability": "view",
      "type": "function"
    },
    {
      "inputs": [
        {
          "internalType": "address",
          "name": "_agentVault",
          "type": "address"
        }
      ],
      "name": "getAgentInfo",
      "outputs": [
        {
          "components": [
            {
              "internalType": "enum AgentInfo.Status",
              "name": "status",
              "type": "uint8"
            },
            {
              "internalType": "address",
              "name": "ownerManagementAddress",
              "type": "address"
            },
            {
              "internalType": "address",
              "name": "ownerWorkAddress",
              "type": "address"
            },
            {
              "internalType": "address",
              "name": "collateralPool",
              "type": "address"
            },
            {
              "internalType": "address",
              "name": "collateralPoolToken",
              "type": "address"
            },
            {
              "internalType": "string",
              "name": "underlyingAddressString",
              "type": "string"
            },
            {
              "internalType": "bool",
              "name": "publiclyAvailable",
              "type": "bool"
            },
            {
              "internalType": "uint256",
              "name": "feeBIPS",
              "type": "uint256"
            },
            {
              "internalType": "uint256",
              "name": "poolFeeShareBIPS",
              "type": "uint256"
            },
            {
              "internalType": "contract IERC20",
              "name": "vaultCollateralToken",
              "type": "address"
            },
            {
              "internalType": "uint256",
              "name": "mintingVaultCollateralRatioBIPS",
              "type": "uint256"
            },
            {
              "internalType": "uint256",
              "name": "mintingPoolCollateralRatioBIPS",
              "type": "uint256"
            },
            {
              "internalType": "uint256",
              "name": "freeCollateralLots",
              "type": "uint256"
            },
            {
              "internalType": "uint256",
              "name": "totalVaultCollateralWei",
              "type": "uint256"
            },
            {
              "internalType": "uint256",
              "name": "freeVaultCollateralWei",
              "type": "uint256"
            },
            {
              "internalType": "uint256",
              "name": "vaultCollateralRatioBIPS",
              "type": "uint256"
            },
            {
              "internalType": "contract IERC20",
              "name": "poolWNatToken",
              "type": "address"
            },
            {
              "internalType": "uint256",
              "name": "totalPoolCollateralNATWei",
              "type": "uint256"
            },
            {
              "internalType": "uint256",
              "name": "freePoolCollateralNATWei",
              "type": "uint256"
            },
            {
              "internalType": "uint256",
              "name": "poolCollateralRatioBIPS",
              "type": "uint256"
            },
            {
              "internalType": "uint256",
              "name": "totalAgentPoolTokensWei",
              "type": "uint256"
            },
            {
              "internalType": "uint256",
              "name": "announcedVaultCollateralWithdrawalWei",
              "type": "uint256"
            },
            {
              "internalType": "uint256",
              "name": "announcedPoolTokensWithdrawalWei",
              "type": "uint256"
            },
            {
              "internalType": "uint256",
              "name": "freeAgentPoolTokensWei",
              "type": "uint256"
            },
            {
              "internalType": "uint256",
              "name": "mintedUBA",
              "type": "uint256"
            },
            {
              "internalType": "uint256",
              "name": "reservedUBA",
              "type": "uint256"
            },
            {
              "internalType": "uint256",
              "name": "redeemingUBA",
              "type": "uint256"
            },
            {
              "internalType": "uint256",
              "name": "poolRedeemingUBA",
              "type": "uint256"
            },
            {
              "internalType": "uint256",
              "name": "dustUBA",
              "type": "uint256"
            },
            {
              "internalType": "uint256",
              "name": "ccbStartTimestamp",
              "type": "uint256"
            },
            {
              "internalType": "uint256",
              "name": "liquidationStartTimestamp",
              "type": "uint256"
            },
            {
              "internalType": "uint256",
              "name": "maxLiquidationAmountUBA",
              "type": "uint256"
            },
            {
              "internalType": "uint256",
              "name": "liquidationPaymentFactorVaultBIPS",
              "type": "uint256"
            },
            {
              "internalType": "uint256",
              "name": "liquidationPaymentFactorPoolBIPS",
              "type": "uint256"
            },
            {
              "internalType": "int256",
              "name": "underlyingBalanceUBA",
              "type": "int256"
            },
            {
              "internalType": "uint256",
              "name": "requiredUnderlyingBalanceUBA",
              "type": "uint256"
            },
            {
              "internalType": "int256",
              "name": "freeUnderlyingBalanceUBA",
              "type": "int256"
            },
            {
              "internalType": "uint256",
              "name": "announcedUnderlyingWithdrawalId",
              "type": "uint256"
            },
            {
              "internalType": "uint256",
              "name": "buyFAssetByAgentFactorBIPS",
              "type": "uint256"
            },
            {
              "internalType": "uint256",
              "name": "poolExitCollateralRatioBIPS",
              "type": "uint256"
            },
            {
              "internalType": "uint256",
              "name": "poolTopupCollateralRatioBIPS",
              "type": "uint256"
            },
            {
              "internalType": "uint256",
              "name": "poolTopupTokenPriceFactorBIPS",
              "type": "uint256"
            }
          ],
          "internalType": "struct AgentInfo.Info",
          "name": "",
          "type": "tuple"
        }
      ],
      "stateMutability": "view",
      "type": "function"
    },
    {
      "inputs": [
        {
          "internalType": "address",
          "name": "_agentVault",
          "type": "address"
        }
      ],
      "name": "getAgentLiquidationFactorsAndMaxAmount",
      "outputs": [
        {
          "internalType": "uint256",
          "name": "liquidationPaymentFactorVaultBIPS",
          "type": "uint256"
        },
        {
          "internalType": "uint256",
          "name": "liquidationPaymentFactorPoolBIPS",
          "type": "uint256"
        },
        {
          "internalType": "uint256",
          "name": "maxLiquidationAmountUBA",
          "type": "uint256"
        }
      ],
      "stateMutability": "view",
      "type": "function"
    },
    {
      "inputs": [
        {
          "internalType": "address",
          "name": "_agentVault",
          "type": "address"
        }
      ],
      "name": "getAgentVaultCollateralToken",
      "outputs": [
        {
          "internalType": "contract IERC20",
          "name": "",
          "type": "address"
        }
      ],
      "stateMutability": "view",
      "type": "function"
    },
    {
      "inputs": [
        {
          "internalType": "address",
          "name": "_agentVault",
          "type": "address"
        }
      ],
      "name": "getAgentVaultOwner",
      "outputs": [
        {
          "internalType": "address",
          "name": "_ownerManagementAddress",
          "type": "address"
        }
      ],
      "stateMutability": "view",
      "type": "function"
    },
    {
      "inputs": [
        {
          "internalType": "uint256",
          "name": "_start",
          "type": "uint256"
        },
        {
          "internalType": "uint256",
          "name": "_end",
          "type": "uint256"
        }
      ],
      "name": "getAllAgents",
      "outputs": [
        {
          "internalType": "address[]",
          "name": "_agents",
          "type": "address[]"
        },
        {
          "internalType": "uint256",
          "name": "_totalLength",
          "type": "uint256"
        }
      ],
      "stateMutability": "view",
      "type": "function"
    },
    {
      "inputs": [
        {
          "internalType": "address",
          "name": "_agentVault",
          "type": "address"
        }
      ],
      "name": "getCollateralPool",
      "outputs": [
        {
          "internalType": "address",
          "name": "",
          "type": "address"
        }
      ],
      "stateMutability": "view",
      "type": "function"
    },
    {
      "inputs": [
        {
          "internalType": "string",
          "name": "_suffix",
          "type": "string"
        }
      ],
      "name": "isPoolTokenSuffixReserved",
      "outputs": [
        {
          "internalType": "bool",
          "name": "",
          "type": "bool"
        }
      ],
      "stateMutability": "view",
      "type": "function"
    }
  ],
  "bytecode": "0x608060405234801561001057600080fd5b506130ae806100206000396000f3fe608060405234801561001057600080fd5b50600436106100935760003560e01c80636e61164f116100665780636e61164f1461012d5780637e2ae0d714610140578063b19aec1714610161578063c97c1dcc14610182578063d3a5af8b1461019557600080fd5b8063152052b0146100985780635252f3a2146100c1578063529cc2b9146100ec5780635f0169061461011a575b600080fd5b6100ab6100a63660046128af565b6101b8565b6040516100b89190612954565b60405180910390f35b6100d46100cf3660046128af565b6101cf565b6040516001600160a01b0390911681526020016100b8565b6100ff6100fa3660046128af565b6101ea565b604080519384526020840192909252908201526060016100b8565b6100d46101283660046128af565b610205565b6100d461013b3660046128af565b610210565b61015361014e3660046128af565b61021b565b6040519081526020016100b8565b61017461016f366004612bdc565b610228565b6040516100b8929190612bfe565b6101536101903660046128af565b610242565b6101a86101a3366004612c6a565b61024f565b60405190151581526020016100b8565b6101c061272b565b6101c98261025a565b92915050565b60006101da826108e2565b546001600160a01b031692915050565b60008060006101f88461097c565b9250925092509193909250565b60006101c9826109b3565b60006101c9826109c6565b60006101c98260016109e4565b606060006102368484610a05565b915091505b9250929050565b60006101c98260006109e4565b60006101c982610b16565b61026261272b565b600061026d836108e2565b9050600061027a82610b73565b9050600061028783610c1d565b9050600061029484610c6a565b84549091506001600160a01b031660006102ad86610ca3565b90506102b886610d17565b879060048111156102cb576102cb6128cc565b908160048111156102de576102de6128cc565b90525060018601546001600160a01b031660208801526103257f4f24f5c433db0962dac0d2c8b84197a6e6c7cc4e5d9ebe1916a1b6193da2f341546001600160a01b031690565b6020880151604051631f86345d60e31b81526001600160a01b03918216600482015291169063fc31a2e890602401602060405180830381865afa158015610370573d6000803e3d6000fd5b505050506040513d601f19601f820116820180604052508101906103949190612d1a565b6001600160a01b039081166040808a01919091529083166060890181905281516332f7ce0b60e21b81529151909163cbdf382c9160048083019260209291908290030181865afa1580156103ec573d6000803e3d6000fd5b505050506040513d601f19601f820116820180604052508101906104109190612d1a565b6001600160a01b0316608088015260028601805461042d90612d37565b80601f016020809104026020016040519081016040528092919081815260200182805461045990612d37565b80156104a65780601f1061047b576101008083540402835291602001916104a6565b820191906000526020600020905b81548152906001019060200180831161048957829003601f168201915b505050505060a0880152600486015463ffffffff6501000000000082048116151560c08a015285546001600160a01b03166101208a015261ffff69010000000000000000008304811660e08b0152600160581b8304166101008a0152600386015461051b92600160681b900482169116610de1565b610140880152600486015460038401546105459163ffffffff600160881b90910481169116610de1565b6101608801526105558587610df9565b6101808801528451602001516101a088015284516105739087610e4d565b6101c088015280516101e088015282546001600160a01b03166102008801526020808601805190910151610220890152516105ae9087610e4d565b61024088015260208082015161026089015260408601805190910151610280890152516105db9087610e4d565b6102e08801526105ec866000610e75565b546001600160801b03166102a0880152610607866002610e75565b546001600160801b03166102c0880152600586015461063590600160401b90046001600160401b0316610ec2565b6103008801526005860154610652906001600160401b0316610ec2565b610320880152600586015461067690600160801b90046001600160401b0316610ec2565b610340880152600586015461069a90600160c01b90046001600160401b0316610ec2565b61036088015260068601546106b7906001600160401b0316610ec2565b6103808801526106c686610f15565b6103a08801526106d586610f92565b6103c08801526106e58682611077565b6103e08a01526104208901526104008801526006860154600160401b9004600f0b61044088015261071586611115565b6104608801819052610726906111b0565b8761044001516107369190612d81565b6104808801526006860154600160c01b90046001600160401b03166104a0880152600a860154600160801b900461ffff166104c0880152855460408051633cfc747d60e01b815290516001600160a01b0390921691633cfc747d916004808201926020929091908290030181865afa1580156107b6573d6000803e3d6000fd5b505050506040513d601f19601f820116820180604052508101906107da9190612da1565b63ffffffff166104e088015285546040805163b337929b60e01b815290516001600160a01b039092169163b337929b916004808201926020929091908290030181865afa15801561082f573d6000803e3d6000fd5b505050506040513d601f19601f820116820180604052508101906108539190612da1565b63ffffffff16610500880152855460408051634a4ac2ef60e01b815290516001600160a01b0390921691634a4ac2ef916004808201926020929091908290030181865afa1580156108a8573d6000803e3d6000fd5b505050506040513d601f19601f820116820180604052508101906108cc9190612dc7565b61ffff1661052088015250949695505050505050565b60008051602061303983398151915268010000000000000000600160e01b03604083901b161880600060048084015460ff1690811115610924576109246128cc565b036109765760405162461bcd60e51b815260206004820152601b60248201527f696e76616c6964206167656e74207661756c742061646472657373000000000060448201526064015b60405180910390fd5b50919050565b60008060008061098b856108e2565b9050600061099882610ca3565b90506109a48282611077565b94509450945050509193909250565b60006101da6109c1836108e2565b610c1d565b60006109d1826108e2565b600101546001600160a01b031692915050565b6000806109f96109f3856108e2565b8461121e565b60200151949350505050565b7fec7e8c1c441439dd40959777f4c577ea0cd42fcc1dbe59d2bd0f5d9c55df8db954606090600080516020613059833981519152610a4384836112a0565b9350610a4f85856112a0565b9450610a5b8585612deb565b6001600160401b03811115610a7257610a72612c54565b604051908082528060200260200182016040528015610a9b578160200160208202803683370190505b509250845b84811015610b0d57816003018181548110610abd57610abd612dfe565b6000918252602090912001546001600160a01b031684610add8884612deb565b81518110610aed57610aed612dfe565b6001600160a01b0390921660209283029190910190910152600101610aa0565b50509250929050565b604051600090600080516020613059833981519152907fec7e8c1c441439dd40959777f4c577ea0cd42fcc1dbe59d2bd0f5d9c55df8db890610b59908590612e14565b9081526040519081900360200190205460ff169392505050565b610bde6040805160c081019091526000606082018181526080830182905260a083019190915281908152604080516060810182526000808252602082810182905292820152910190815260408051606081018252600080825260208281018290529282015291015290565b6000610be9836112af565b90506040518060600160405280610bff85611375565b8152602001828152602001610c148584611400565b90529392505050565b60008060008051602061305983398151915260048401548154919250829161010090910461ffff16908110610c5457610c54612dfe565b9060005260206000209060040201915050919050565b600080600080516020613059833981519152600484015481549192508291630100000090910461ffff16908110610c5457610c54612dfe565b610cce6040518060800160405280600081526020016000815260200160008152602001600081525090565b600080610cdc8460006115d7565b91509150600080610cee8660016115d7565b604080516080810182529687526020870192909252908501939093525050606082015292915050565b600481015460009060ff166001816004811115610d3657610d366128cc565b03610d445750600092915050565b6002816004811115610d5857610d586128cc565b03610d95576000610d6884611625565b90506001816002811115610d7e57610d7e6128cc565b14610d8a576002610d8d565b60015b949350505050565b6003816004811115610da957610da96128cc565b03610db75750600392915050565b6004816004811115610dcb57610dcb6128cc565b14610dd857610dd8612e30565b50600492915050565b6000818311610df05781610df2565b825b9392505050565b600080610e0a846000015184611702565b90506000610e1c856020015185611702565b90506000610e2e866040015186611702565b9050610e4383610e3e84846112a0565b6112a0565b9695505050505050565b600080610e5a8484611738565b90506000610e4382866020015161186890919063ffffffff16565b60006001826002811115610e8b57610e8b6128cc565b03610e9857610e98612e30565b6000826002811115610eac57610eac6128cc565b14610eba5782600901610df2565b505060080190565b7f4f24f5c433db0962dac0d2c8b84197a6e6c7cc4e5d9ebe1916a1b6193da2f3465460009060008051602061301983398151915290610df290600160901b90046001600160401b03908116908516612e46565b6000600260048084015460ff1690811115610f3257610f326128cc565b14610f3f57506000919050565b60016004830154600160e81b900460ff166002811115610f6157610f616128cc565b14610f6d576000610f83565b6004820154600160a81b90046001600160401b03165b6001600160401b031692915050565b600481015460009060ff166002816004811115610fb157610fb16128cc565b0361103c5760006000805160206130198339815191529050600060016004860154600160e81b900460ff166002811115610fed57610fed6128cc565b14905080610ffc57600061100b565b60118201546001600160401b03165b600486015461102a9190600160a81b90046001600160401b0316612e5d565b6001600160401b031695945050505050565b6003816004811115611050576110506128cc565b0361106e57505060040154600160a81b90046001600160401b031690565b50600092915050565b60008060008061108686611625565b9050600281600281111561109c5761109c6128cc565b146110b25760008060009350935093505061110e565b6110c5868660000151876020015161188a565b865191955093506000906110f6906110e090899088856119a3565b6110f18989602001518860016119a3565b610de1565b905061110961110482611ab9565b610ec2565b925050505b9250925092565b7f4f24f5c433db0962dac0d2c8b84197a6e6c7cc4e5d9ebe1916a1b6193da2f346546005820154600091600080516020613019833981519152918391600160901b90046001600160401b039081169161117f91600160801b8204811691600160401b900416612e5d565b6001600160401b03166111929190612e46565b600d830154909150610d8d908290600160401b900461ffff16611b21565b60006001600160ff1b0382111561121a5760405162461bcd60e51b815260206004820152602860248201527f53616665436173743a2076616c756520646f65736e27742066697420696e2061604482015267371034b73a191a9b60c11b606482015260840161096d565b5090565b6112436040805160608101909152806000815260200160008152602001600081525090565b6000826002811115611257576112576128cc565b0361126c5761126583611375565b90506101c9565b6001826002811115611280576112806128cc565b0361128e57611265836112af565b6112658361129b856112af565b611400565b6000818310610df05781610df2565b6112d46040805160608101909152806000815260200160008152602001600081525090565b60006112df83610c6a565b60408051606081019091529091508060018152825485546040516370a0823160e01b81526001600160a01b0391821660048201526020909301929116906370a08231906024015b602060405180830381865afa158015611343573d6000803e3d6000fd5b505050506040513d601f19601f820116820180604052508101906113679190612e7d565b8152602001610c1483611b30565b61139a6040805160608101909152806000815260200160008152602001600081525090565b60006113a583610c1d565b6040805160608101825260008152825482516370a0823160e01b8152600080516020613039833981519152881890931c6001600160a01b039081166004850152939450909260208401929116906370a0823190602401611326565b6114256040805160608101909152806000815260200160008152602001600081525090565b8254604080516332f7ce0b60e21b815290516000926001600160a01b03169163cbdf382c9160048083019260209291908290030181865afa15801561146e573d6000803e3d6000fd5b505050506040513d601f19601f820116820180604052508101906114929190612d1a565b905060006001600160a01b0382166370a08231600080516020613039833981519152871860401c6040516001600160e01b031960e084901b1681526001600160a01b039091166004820152602401602060405180830381865afa1580156114fd573d6000803e3d6000fd5b505050506040513d601f19601f820116820180604052508101906115219190612e7d565b90506000826001600160a01b03166318160ddd6040518163ffffffff1660e01b8152600401602060405180830381865afa158015611563573d6000803e3d6000fd5b505050506040513d601f19601f820116820180604052508101906115879190612e7d565b90506000856020015160000361159e5760006115b3565b602086015160408701516115b3918490611b46565b60408051606081018252600281526020810195909552840152509095945050505050565b6000806000806115e78686611c60565b9150915060006115f78388611dc3565b905060006116058389611dc3565b9050836040015194506116188282610de1565b9550505050509250929050565b600080600080516020613019833981519152600484015490915060ff166002816004811115611656576116566128cc565b036116d557600060016004860154600160e81b900460ff16600281111561167f5761167f6128cc565b1480156116bb5750601183015460048601546116ae916001600160401b0390811691600160a81b900416612e5d565b6001600160401b03164211155b9050806116c95760026116cc565b60015b95945050505050565b60038160048111156116e9576116e96128cc565b036116f8575060029392505050565b5060009392505050565b60008061170f8484610e4d565b9050600061171d8585611e84565b90508060000361172e5760006116cc565b6116cc8183612eac565b600080600061174b848660000151611ed1565b60058601549193509150600090611774906001600160401b03600160401b820481169116612ec0565b905060006117908461178a848a60400151611fd7565b90611b21565b905060006001885160028111156117a9576117a96128cc565b146117c8576005870154600160801b90046001600160401b03166117de565b6005870154600160c01b90046001600160401b03165b905060006117fd8561178a846001600160401b03168c60400151611fd7565b9050600060018a516002811115611816576118166128cc565b0361182257600061183a565b895161182f908a90610e75565b546001600160801b03165b6001600160801b03169050806118508386612ec0565b61185a9190612ec0565b9a9950505050505050505050565b6000808383111561187e5750600090508061023b565b50600193919092039150565b600080600080516020613019833981519152816118a687611ff1565b905060008260150182815481106118bf576118bf612dfe565b906000526020600020015490506118f58360160183815481106118e4576118e4612dfe565b9060005260206000200154826112a0565b9450600061190289610c1d565b9050600061190f8a610c6a565b905061191a826120eb565b15801561192b575061192b816120eb565b15611939576000965061195d565b611942826120eb565b80156119545750611952816120eb565b155b1561195d578296505b88871115611969578896505b6119738784612deb565b9550878611156119965787955061199361198d8785612deb565b8a6112a0565b96505b5050505050935093915050565b6000806000805160206130198339815191529050600360048088015460ff16908111156119d2576119d26128cc565b036119f35750506005840154600160401b90046001600160401b0316610d8d565b6000611a018760028661211f565b9050858111611a1557600092505050610d8d565b848611611a39575050506005840154600160401b90046001600160401b0316610d8d565b6000611a6e611a488884612deb565b611a528885612deb565b60058b0154600160401b90046001600160401b03169190612183565b600d840154909150611a8a9082906001600160401b03166121c0565b6005890154909150611aad908290600160401b90046001600160401b03166112a0565b98975050505050505050565b60006001600160401b0382111561121a5760405162461bcd60e51b815260206004820152602660248201527f53616665436173743a2076616c756520646f65736e27742066697420696e203660448201526534206269747360d01b606482015260840161096d565b6000610df28383612710611b46565b6000611b3d8260006121f7565b50909392505050565b6000808211611b8a5760405162461bcd60e51b815260206004820152601060248201526f4469766973696f6e206279207a65726f60801b604482015260640161096d565b83600003611b9a57506000610df2565b83830283858281611bad57611bad612e96565b0403611bcb57828181611bc257611bc2612e96565b04915050610df2565b506000611bd88386612eac565b90506000611be68487612ed3565b90506000611bf48587612eac565b90506000611c028688612ed3565b905085611c0f8285612e46565b611c199190612eac565b611c238385612e46565b611c2d8387612e46565b88611c388689612e46565b611c429190612e46565b611c4c9190612ec0565b611c569190612ec0565b611aad9190612ec0565b611c856040805160608101909152806000815260200160008152602001600081525090565b611caa6040805160608101909152806000815260200160008152602001600081525090565b6000611cb685856123af565b90506000611cc4868661245b565b90506000611cd1836120eb565b611cdc576000611d49565b82546040516370a0823160e01b81526001600160a01b038481166004830152909116906370a0823190602401602060405180830381865afa158015611d25573d6000803e3d6000fd5b505050506040513d601f19601f82011682018060405250810190611d499190612e7d565b9050600080611d578561249e565b915091506040518060600160405280896002811115611d7857611d786128cc565b81526020018481526020018381525096506040518060600160405280896002811115611da657611da66128cc565b815260200184815260200182815250955050505050509250929050565b600080600184516002811115611ddb57611ddb6128cc565b14611dfa576005830154600160801b90046001600160401b0316611e10565b6005830154600160c01b90046001600160401b03165b60058401546001600160401b0391821692506000918391611e3c9181811691600160401b900416612ec0565b611e469190612ec0565b905080600003611e5f576402540be400925050506101c9565b6000611e6f828760400151611fd7565b6020870151909150610e439061271083611b46565b60008060008051602061301983398151915290506000611ea8848660000151611ed1565b50600d83015460408701519192506116cc91839161178a916001600160401b0390911690611fd7565b6000806002836002811115611ee857611ee86128cc565b03611f5057600080611efb866001611ed1565b915091506000611f1660008051602061301983398151915290565b600c015463ffffffff64010000000090910481169150611f3a9082908490611b2116565b9350611f468184611b21565b945050505061023b565b6001836002811115611f6457611f646128cc565b03611f9f57611f7284610c6a565b60030154600485015463ffffffff9182169250611f9891600160881b9091041682610de1565b915061023b565b611fa884610c1d565b60030154600485015463ffffffff9182169250611fce91600160681b9091041682610de1565b91509250929050565b6000610df282611fe96009600a612fcb565b859190611b46565b60008060008051602061301983398151915290506000600260048086015460ff1690811115612022576120226128cc565b14801561204e575060016004850154600160e81b900460ff16600281111561204c5761204c6128cc565b145b905060008161205e57600061206d565b60118301546001600160401b03165b60048601546001600160401b039182169250600091612096918491600160a81b90910416612ec0565b601485015490915060009064010000000090046001600160401b03166120bc8342612deb565b6120c69190612eac565b90506120e08160018760150180549050610e3e9190612deb565b979650505050505050565b8054600090600160b01b90046001600160401b031615806101c95750505442600160b01b9091046001600160401b03161190565b60008061212c85846123af565b90506001846002811115612142576121426128cc565b14806121555750612153858461254d565b155b1561216b576003015463ffffffff169050610df2565b60030154600160401b900463ffffffff169050610df2565b600080612191858585611b46565b9050600083806121a3576121a3612e96565b858709905080156121b75781600101610e43565b50949350505050565b6000806121cd8385612ed3565b905080156121ef57826121e08286612deb565b6121ea9190612ec0565b610d8d565b509192915050565b60008060008060008061229688600101805461221290612d37565b80601f016020809104026020016040519081016040528092919081815260200182805461223e90612d37565b801561228b5780601f106122605761010080835404028352916020019161228b565b820191906000526020600020905b81548152906001019060200180831161226e57829003601f168201915b5050505050886125b6565b8a549295509093509150600160f01b900460ff16156122dd5787546000906122cc90600160a81b900460ff1660018387866126a4565b965091945084935061110e92505050565b60008060006123788b60020180546122f490612d37565b80601f016020809104026020016040519081016040528092919081815260200182805461232090612d37565b801561236d5780601f106123425761010080835404028352916020019161236d565b820191906000526020600020905b81548152906001019060200180831161235057829003601f168201915b50505050508b6125b6565b8d54929550909350915060009061239c90600160a81b900460ff1685848a896126a4565b995094975090955061110e945050505050565b600060028260028111156123c5576123c56128cc565b036123d2576123d2612e30565b60008051602061305983398151915260008360028111156123f5576123f56128cc565b0361243157600484015481548291610100900461ffff1690811061241b5761241b612dfe565b90600052602060002090600402019150506101c9565b6004840154815482916301000000900461ffff1690811061241b5761241b612dfe565b5092915050565b60006001826002811115612471576124716128cc565b1461248f57600080516020613039833981519152831860401c610df2565b5050546001600160a01b031690565b6000806000805160206130198339815191528180806124bd87826121f7565b92509250925060008060006124d38a60016121f7565b60108a0154929550909350915060009085906124ff90600160c01b90046001600160401b031684612ec0565b1015801561252c57506010880154869061252990600160c01b90046001600160401b031685612ec0565b10155b90508699508061253c578661253e565b835b98505050505050505050915091565b600080826002811115612562576125626128cc565b0361257e57506004820154600160f01b900460011615156101c9565b6001826002811115612592576125926128cc565b1461259f5761259f612e30565b506004820154600160f01b900460021615156101c9565b7f4f24f5c433db0962dac0d2c8b84197a6e6c7cc4e5d9ebe1916a1b6193da2f3445460009081908190600080516020613019833981519152906001600160a01b031685156126785760405163e4a0a55b60e01b81526001600160a01b0382169063e4a0a55b9061262a908a90600401612fd7565b606060405180830381865afa158015612647573d6000803e3d6000fd5b505050506040513d601f19601f8201168201806040525081019061266b9190612fea565b945094509450505061110e565b60405163524f388960e01b81526001600160a01b0382169063524f38899061262a908a90600401612fd7565b60006000805160206130198339815191528160096126c2878a612ec0565b6126cc9190612ec0565b600a8301549091506000906126ec908690600160a81b900460ff16612ec0565b9050808210156126fe576126fe612e30565b61271e61270b8284612deb565b61271690600a612fcb565b87908a611b46565b9998505050505050505050565b604080516105408101909152806000815260200160006001600160a01b0316815260200160006001600160a01b0316815260200160006001600160a01b0316815260200160006001600160a01b0316815260200160608152602001600015158152602001600081526020016000815260200160006001600160a01b0316815260200160008152602001600081526020016000815260200160008152602001600081526020016000815260200160006001600160a01b03168152602001600081526020016000815260200160008152602001600081526020016000815260200160008152602001600081526020016000815260200160008152602001600081526020016000815260200160008152602001600081526020016000815260200160008152602001600081526020016000815260200160008152602001600081526020016000815260200160008152602001600081526020016000815260200160008152602001600081525090565b6001600160a01b03811681146128ac57600080fd5b50565b6000602082840312156128c157600080fd5b8135610df281612897565b634e487b7160e01b600052602160045260246000fd5b6005811061290057634e487b7160e01b600052602160045260246000fd5b9052565b60005b8381101561291f578181015183820152602001612907565b50506000910152565b60008151808452612940816020860160208601612904565b601f01601f19169290920160200192915050565b602081526129666020820183516128e2565b6000602083015161298260408401826001600160a01b03169052565b5060408301516001600160a01b03811660608401525060608301516001600160a01b03811660808401525060808301516001600160a01b03811660a08401525060a08301516105408060c08501526129de610560850183612928565b915060c08501516129f360e086018215159052565b5060e08501516101008581019190915285015161012080860191909152850151610140612a2a818701836001600160a01b03169052565b86015161016086810191909152860151610180808701919091528601516101a0808701919091528601516101c0808701919091528601516101e080870191909152860151610200808701919091528601519050610220612a94818701836001600160a01b03169052565b8601516102408681019190915286015161026080870191909152860151610280808701919091528601516102a0808701919091528601516102c0808701919091528601516102e08087019190915286015161030080870191909152860151610320808701919091528601516103408087019190915286015161036080870191909152860151610380808701919091528601516103a0808701919091528601516103c0808701919091528601516103e08087019190915286015161040080870191909152860151610420808701919091528601516104408087019190915286015161046080870191909152860151610480808701919091528601516104a0808701919091528601516104c0808701919091528601516104e08087019190915286015161050080870191909152860151610520808701919091529095015193019290925250919050565b60008060408385031215612bef57600080fd5b50508035926020909101359150565b604080825283519082018190526000906020906060840190828701845b82811015612c405781516001600160a01b031684529284019290840190600101612c1b565b505050602093909301939093525092915050565b634e487b7160e01b600052604160045260246000fd5b600060208284031215612c7c57600080fd5b81356001600160401b0380821115612c9357600080fd5b818401915084601f830112612ca757600080fd5b813581811115612cb957612cb9612c54565b604051601f8201601f19908116603f01168101908382118183101715612ce157612ce1612c54565b81604052828152876020848701011115612cfa57600080fd5b826020860160208301376000928101602001929092525095945050505050565b600060208284031215612d2c57600080fd5b8151610df281612897565b600181811c90821680612d4b57607f821691505b60208210810361097657634e487b7160e01b600052602260045260246000fd5b634e487b7160e01b600052601160045260246000fd5b818103600083128015838313168383128216171561245457612454612d6b565b600060208284031215612db357600080fd5b815163ffffffff81168114610df257600080fd5b600060208284031215612dd957600080fd5b815161ffff81168114610df257600080fd5b818103818111156101c9576101c9612d6b565b634e487b7160e01b600052603260045260246000fd5b60008251612e26818460208701612904565b9190910192915050565b634e487b7160e01b600052600160045260246000fd5b80820281158282048414176101c9576101c9612d6b565b6001600160401b0381811683821601908082111561245457612454612d6b565b600060208284031215612e8f57600080fd5b5051919050565b634e487b7160e01b600052601260045260246000fd5b600082612ebb57612ebb612e96565b500490565b808201808211156101c9576101c9612d6b565b600082612ee257612ee2612e96565b500690565b600181815b80851115612f22578160001904821115612f0857612f08612d6b565b80851615612f1557918102915b93841c9390800290612eec565b509250929050565b600082612f39575060016101c9565b81612f46575060006101c9565b8160018114612f5c5760028114612f6657612f82565b60019150506101c9565b60ff841115612f7757612f77612d6b565b50506001821b6101c9565b5060208310610133831016604e8410600b8410161715612fa5575081810a6101c9565b612faf8383612ee7565b8060001904821115612fc357612fc3612d6b565b029392505050565b6000610df28383612f2a565b602081526000610df26020830184612928565b600080600060608486031215612fff57600080fd5b835192506020840151915060408401519050925092509256fe4f24f5c433db0962dac0d2c8b84197a6e6c7cc4e5d9ebe1916a1b6193da2f33a5bebac0595fee029d42bb673937f5f1cb81cf8641382bc17774635de9b7d7965ec7e8c1c441439dd40959777f4c577ea0cd42fcc1dbe59d2bd0f5d9c55df8db6a26469706673582212205061d468f5637205e34ccc65018e62d371ca0900c5128791d67c53325b3d113764736f6c63430008170033",
  "linkReferences": {},
  "deployedLinkReferences": {}
}