{
  "_format": "hh-sol-artifact-1",
  "contractName": "AgentVaultMock",
  "sourceName": "contracts/assetManager/mock/AgentVaultMock.sol",
  "abi": [
    {
      "inputs": [
        {
          "internalType": "address",
          "name": "_assetManager",
          "type": "address"
        },
        {
          "internalType": "address",
          "name": "_owner",
          "type": "address"
        }
      ],
      "stateMutability": "nonpayable",
      "type": "constructor"
    },
    {
      "inputs": [],
      "name": "assetManager",
      "outputs": [
        {
          "internalType": "address",
          "name": "",
          "type": "address"
        }
      ],
      "stateMutability": "view",
      "type": "function"
    },
    {
      "inputs": [
        {
          "internalType": "address",
          "name": "_contract",
          "type": "address"
        },
        {
          "internalType": "bytes",
          "name": "_payload",
          "type": "bytes"
        },
        {
          "internalType": "uint256",
          "name": "_pay",
          "type": "uint256"
        }
      ],
      "name": "callFunctionAt",
      "outputs": [],
      "stateMutability": "payable",
      "type": "function"
    },
    {
      "inputs": [
        {
          "internalType": "contract IICollateralPool",
          "name": "_collateralPool",
          "type": "address"
        }
      ],
      "name": "enterPool",
      "outputs": [],
      "stateMutability": "payable",
      "type": "function"
    },
    {
      "inputs": [],
      "name": "owner",
      "outputs": [
        {
          "internalType": "address",
          "name": "",
          "type": "address"
        }
      ],
      "stateMutability": "view",
      "type": "function"
    },
    {
      "stateMutability": "payable",
      "type": "receive"
    }
  ],
  "bytecode": "0x608060405234801561001057600080fd5b5060405161048938038061048983398101604081905261002f9161007c565b600080546001600160a01b039384166001600160a01b031991821617909155600180549290931691161790556100af565b80516001600160a01b038116811461007757600080fd5b919050565b6000806040838503121561008f57600080fd5b61009883610060565b91506100a660208401610060565b90509250929050565b6103cb806100be6000396000f3fe6080604052600436106100435760003560e01c80638da5cb5b1461004f57806394217ad11461008b578063dea10492146100ab578063ffd10e07146100c057600080fd5b3661004a57005b600080fd5b34801561005b57600080fd5b5060015461006f906001600160a01b031681565b6040516001600160a01b03909116815260200160405180910390f35b34801561009757600080fd5b5060005461006f906001600160a01b031681565b6100be6100b936600461020d565b6100d3565b005b6100be6100ce3660046102da565b610167565b600080846001600160a01b031683856040516100ef9190610322565b60006040518083038185875af1925050503d806000811461012c576040519150601f19603f3d011682016040523d82523d6000602084013e610131565b606091505b509150915081819061015f5760405162461bcd60e51b8152600401610156919061033e565b60405180910390fd5b505050505050565b60405163ac3736c160e01b815260006004820181905260248201526001600160a01b0382169063ac3736c1903490604401604080518083038185885af11580156101b5573d6000803e3d6000fd5b50505050506040513d601f19601f820116820180604052508101906101da9190610371565b505050565b6001600160a01b03811681146101f457600080fd5b50565b634e487b7160e01b600052604160045260246000fd5b60008060006060848603121561022257600080fd5b833561022d816101df565b9250602084013567ffffffffffffffff8082111561024a57600080fd5b818601915086601f83011261025e57600080fd5b813581811115610270576102706101f7565b604051601f8201601f19908116603f01168101908382118183101715610298576102986101f7565b816040528281528960208487010111156102b157600080fd5b826020860160208301376000602084830101528096505050505050604084013590509250925092565b6000602082840312156102ec57600080fd5b81356102f7816101df565b9392505050565b60005b83811015610319578181015183820152602001610301565b50506000910152565b600082516103348184602087016102fe565b9190910192915050565b602081526000825180602084015261035d8160408501602087016102fe565b601f01601f19169190910160400192915050565b6000806040838503121561038457600080fd5b50508051602090910151909290915056fea264697066735822122043956eff9e0ca6401170bbd748c6fa91549bbd3b3efdb826db5d1e56c9d050b364736f6c63430008170033",
  "linkReferences": {},
  "deployedLinkReferences": {}
}