{
  "_format": "hh-sol-artifact-1",
  "contractName": "CollateralPool",
  "sourceName": "contracts/fasset/implementation/CollateralPool.sol",
  "abi": [
    {
      "inputs": [
        {
          "internalType": "address",
          "name": "_agentVault",
          "type": "address"
        },
        {
          "internalType": "address",
          "name": "_assetManager",
          "type": "address"
        },
        {
          "internalType": "address",
          "name": "_fAsset",
          "type": "address"
        },
        {
          "internalType": "uint32",
          "name": "_exitCollateralRatioBIPS",
          "type": "uint32"
        },
        {
          "internalType": "uint32",
          "name": "_topupCollateralRatioBIPS",
          "type": "uint32"
        },
        {
          "internalType": "uint16",
          "name": "_topupTokenPriceFactorBIPS",
          "type": "uint16"
        }
      ],
      "stateMutability": "nonpayable",
      "type": "constructor"
    },
    {
      "anonymous": false,
      "inputs": [
        {
          "indexed": true,
          "internalType": "address",
          "name": "tokenHolder",
          "type": "address"
        },
        {
          "indexed": false,
          "internalType": "uint256",
          "name": "amountNatWei",
          "type": "uint256"
        },
        {
          "indexed": false,
          "internalType": "uint256",
          "name": "receivedTokensWei",
          "type": "uint256"
        },
        {
          "indexed": false,
          "internalType": "uint256",
          "name": "addedFAssetFeesUBA",
          "type": "uint256"
        }
      ],
      "name": "Enter",
      "type": "event"
    },
    {
      "anonymous": false,
      "inputs": [
        {
          "indexed": true,
          "internalType": "address",
          "name": "tokenHolder",
          "type": "address"
        },
        {
          "indexed": false,
          "internalType": "uint256",
          "name": "burnedTokensWei",
          "type": "uint256"
        },
        {
          "indexed": false,
          "internalType": "uint256",
          "name": "receivedNatWei",
          "type": "uint256"
        },
        {
          "indexed": false,
          "internalType": "uint256",
          "name": "receviedFAssetFeesUBA",
          "type": "uint256"
        },
        {
          "indexed": false,
          "internalType": "uint256",
          "name": "closedFAssetsUBA",
          "type": "uint256"
        }
      ],
      "name": "Exit",
      "type": "event"
    },
    {
      "inputs": [],
      "name": "MIN_NAT_BALANCE_AFTER_EXIT",
      "outputs": [
        {
          "internalType": "uint256",
          "name": "",
          "type": "uint256"
        }
      ],
      "stateMutability": "view",
      "type": "function"
    },
    {
      "inputs": [],
      "name": "MIN_NAT_TO_ENTER",
      "outputs": [
        {
          "internalType": "uint256",
          "name": "",
          "type": "uint256"
        }
      ],
      "stateMutability": "view",
      "type": "function"
    },
    {
      "inputs": [],
      "name": "MIN_TOKEN_SUPPLY_AFTER_EXIT",
      "outputs": [
        {
          "internalType": "uint256",
          "name": "",
          "type": "uint256"
        }
      ],
      "stateMutability": "view",
      "type": "function"
    },
    {
      "inputs": [],
      "name": "agentVault",
      "outputs": [
        {
          "internalType": "address",
          "name": "",
          "type": "address"
        }
      ],
      "stateMutability": "view",
      "type": "function"
    },
    {
      "inputs": [],
      "name": "assetManager",
      "outputs": [
        {
          "internalType": "contract IIAssetManager",
          "name": "",
          "type": "address"
        }
      ],
      "stateMutability": "view",
      "type": "function"
    },
    {
      "inputs": [
        {
          "internalType": "contract IDistributionToDelegators",
          "name": "_distribution",
          "type": "address"
        },
        {
          "internalType": "uint256",
          "name": "_month",
          "type": "uint256"
        }
      ],
      "name": "claimAirdropDistribution",
      "outputs": [
        {
          "internalType": "uint256",
          "name": "",
          "type": "uint256"
        }
      ],
      "stateMutability": "nonpayable",
      "type": "function"
    },
    {
      "inputs": [
        {
          "internalType": "contract IFtsoRewardManager",
          "name": "_ftsoRewardManager",
          "type": "address"
        },
        {
          "internalType": "uint256",
          "name": "_lastRewardEpoch",
          "type": "uint256"
        }
      ],
      "name": "claimFtsoRewards",
      "outputs": [],
      "stateMutability": "nonpayable",
      "type": "function"
    },
    {
      "inputs": [
        {
          "internalType": "address[]",
          "name": "_to",
          "type": "address[]"
        },
        {
          "internalType": "uint256[]",
          "name": "_bips",
          "type": "uint256[]"
        }
      ],
      "name": "delegateCollateral",
      "outputs": [],
      "stateMutability": "nonpayable",
      "type": "function"
    },
    {
      "inputs": [
        {
          "internalType": "address payable",
          "name": "_recipient",
          "type": "address"
        }
      ],
      "name": "destroy",
      "outputs": [],
      "stateMutability": "nonpayable",
      "type": "function"
    },
    {
      "inputs": [
        {
          "internalType": "uint256",
          "name": "_fAssets",
          "type": "uint256"
        },
        {
          "internalType": "bool",
          "name": "_enterWithFullFassets",
          "type": "bool"
        }
      ],
      "name": "enter",
      "outputs": [],
      "stateMutability": "payable",
      "type": "function"
    },
    {
      "inputs": [
        {
          "internalType": "uint256",
          "name": "_tokenShare",
          "type": "uint256"
        },
        {
          "internalType": "enum ICollateralPool.TokenExitType",
          "name": "_exitType",
          "type": "uint8"
        }
      ],
      "name": "exit",
      "outputs": [
        {
          "internalType": "uint256",
          "name": "",
          "type": "uint256"
        },
        {
          "internalType": "uint256",
          "name": "",
          "type": "uint256"
        }
      ],
      "stateMutability": "nonpayable",
      "type": "function"
    },
    {
      "inputs": [],
      "name": "exitCollateralRatioBIPS",
      "outputs": [
        {
          "internalType": "uint32",
          "name": "",
          "type": "uint32"
        }
      ],
      "stateMutability": "view",
      "type": "function"
    },
    {
      "inputs": [],
      "name": "fAsset",
      "outputs": [
        {
          "internalType": "contract IERC20",
          "name": "",
          "type": "address"
        }
      ],
      "stateMutability": "view",
      "type": "function"
    },
    {
      "inputs": [
        {
          "internalType": "address",
          "name": "_account",
          "type": "address"
        }
      ],
      "name": "fAssetFeeDebtOf",
      "outputs": [
        {
          "internalType": "uint256",
          "name": "",
          "type": "uint256"
        }
      ],
      "stateMutability": "view",
      "type": "function"
    },
    {
      "inputs": [
        {
          "internalType": "uint256",
          "name": "_amount",
          "type": "uint256"
        }
      ],
      "name": "fAssetFeeDeposited",
      "outputs": [],
      "stateMutability": "nonpayable",
      "type": "function"
    },
    {
      "inputs": [
        {
          "internalType": "address",
          "name": "_account",
          "type": "address"
        }
      ],
      "name": "fAssetFeesOf",
      "outputs": [
        {
          "internalType": "uint256",
          "name": "",
          "type": "uint256"
        }
      ],
      "stateMutability": "view",
      "type": "function"
    },
    {
      "inputs": [
        {
          "internalType": "address",
          "name": "_account",
          "type": "address"
        }
      ],
      "name": "lockedTokensOf",
      "outputs": [
        {
          "internalType": "uint256",
          "name": "",
          "type": "uint256"
        }
      ],
      "stateMutability": "view",
      "type": "function"
    },
    {
      "inputs": [
        {
          "internalType": "contract IDistributionToDelegators",
          "name": "_distribution",
          "type": "address"
        }
      ],
      "name": "optOutOfAirdrop",
      "outputs": [],
      "stateMutability": "nonpayable",
      "type": "function"
    },
    {
      "inputs": [
        {
          "internalType": "uint256",
          "name": "_fAssets",
          "type": "uint256"
        }
      ],
      "name": "payFAssetFeeDebt",
      "outputs": [],
      "stateMutability": "nonpayable",
      "type": "function"
    },
    {
      "inputs": [
        {
          "internalType": "address",
          "name": "_recipient",
          "type": "address"
        },
        {
          "internalType": "uint256",
          "name": "_amount",
          "type": "uint256"
        },
        {
          "internalType": "uint256",
          "name": "_agentResponsibilityWei",
          "type": "uint256"
        }
      ],
      "name": "payout",
      "outputs": [],
      "stateMutability": "nonpayable",
      "type": "function"
    },
    {
      "inputs": [],
      "name": "poolToken",
      "outputs": [
        {
          "internalType": "contract ICollateralPoolToken",
          "name": "",
          "type": "address"
        }
      ],
      "stateMutability": "view",
      "type": "function"
    },
    {
      "inputs": [
        {
          "internalType": "uint256",
          "name": "_tokenShare",
          "type": "uint256"
        },
        {
          "internalType": "enum ICollateralPool.TokenExitType",
          "name": "_exitType",
          "type": "uint8"
        },
        {
          "internalType": "bool",
          "name": "_redeemToCollateral",
          "type": "bool"
        },
        {
          "internalType": "string",
          "name": "_redeemerUnderlyingAddress",
          "type": "string"
        }
      ],
      "name": "selfCloseExit",
      "outputs": [],
      "stateMutability": "nonpayable",
      "type": "function"
    },
    {
      "inputs": [
        {
          "internalType": "uint256",
          "name": "_exitCollateralRatioBIPS",
          "type": "uint256"
        }
      ],
      "name": "setExitCollateralRatioBIPS",
      "outputs": [],
      "stateMutability": "nonpayable",
      "type": "function"
    },
    {
      "inputs": [
        {
          "internalType": "contract IClaimSetupManager",
          "name": "_claimSetupManager",
          "type": "address"
        },
        {
          "internalType": "address[]",
          "name": "_executors",
          "type": "address[]"
        }
      ],
      "name": "setFtsoAutoClaiming",
      "outputs": [],
      "stateMutability": "payable",
      "type": "function"
    },
    {
      "inputs": [
        {
          "internalType": "address",
          "name": "_poolToken",
          "type": "address"
        }
      ],
      "name": "setPoolToken",
      "outputs": [],
      "stateMutability": "nonpayable",
      "type": "function"
    },
    {
      "inputs": [
        {
          "internalType": "uint256",
          "name": "_topupCollateralRatioBIPS",
          "type": "uint256"
        }
      ],
      "name": "setTopupCollateralRatioBIPS",
      "outputs": [],
      "stateMutability": "nonpayable",
      "type": "function"
    },
    {
      "inputs": [
        {
          "internalType": "uint256",
          "name": "_topupTokenPriceFactorBIPS",
          "type": "uint256"
        }
      ],
      "name": "setTopupTokenPriceFactorBIPS",
      "outputs": [],
      "stateMutability": "nonpayable",
      "type": "function"
    },
    {
      "inputs": [],
      "name": "token",
      "outputs": [
        {
          "internalType": "contract CollateralPoolToken",
          "name": "",
          "type": "address"
        }
      ],
      "stateMutability": "view",
      "type": "function"
    },
    {
      "inputs": [],
      "name": "topupCollateralRatioBIPS",
      "outputs": [
        {
          "internalType": "uint32",
          "name": "",
          "type": "uint32"
        }
      ],
      "stateMutability": "view",
      "type": "function"
    },
    {
      "inputs": [],
      "name": "topupTokenPriceFactorBIPS",
      "outputs": [
        {
          "internalType": "uint16",
          "name": "",
          "type": "uint16"
        }
      ],
      "stateMutability": "view",
      "type": "function"
    },
    {
      "inputs": [],
      "name": "totalCollateral",
      "outputs": [
        {
          "internalType": "uint256",
          "name": "",
          "type": "uint256"
        }
      ],
      "stateMutability": "view",
      "type": "function"
    },
    {
      "inputs": [],
      "name": "totalFAssetFeeDebt",
      "outputs": [
        {
          "internalType": "uint256",
          "name": "",
          "type": "uint256"
        }
      ],
      "stateMutability": "view",
      "type": "function"
    },
    {
      "inputs": [],
      "name": "totalFAssetFees",
      "outputs": [
        {
          "internalType": "uint256",
          "name": "",
          "type": "uint256"
        }
      ],
      "stateMutability": "view",
      "type": "function"
    },
    {
      "inputs": [
        {
          "internalType": "address",
          "name": "_account",
          "type": "address"
        }
      ],
      "name": "transferableTokensOf",
      "outputs": [
        {
          "internalType": "uint256",
          "name": "",
          "type": "uint256"
        }
      ],
      "stateMutability": "view",
      "type": "function"
    },
    {
      "inputs": [
        {
          "internalType": "contract IWNat",
          "name": "_newWNat",
          "type": "address"
        }
      ],
      "name": "upgradeWNatContract",
      "outputs": [],
      "stateMutability": "nonpayable",
      "type": "function"
    },
    {
      "inputs": [
        {
          "internalType": "address",
          "name": "_account",
          "type": "address"
        }
      ],
      "name": "virtualFAssetOf",
      "outputs": [
        {
          "internalType": "uint256",
          "name": "",
          "type": "uint256"
        }
      ],
      "stateMutability": "view",
      "type": "function"
    },
    {
      "inputs": [],
      "name": "wNat",
      "outputs": [
        {
          "internalType": "contract IWNat",
          "name": "",
          "type": "address"
        }
      ],
      "stateMutability": "view",
      "type": "function"
    },
    {
      "inputs": [],
      "name": "withdrawCollateralWhenFAssetTerminated",
      "outputs": [],
      "stateMutability": "nonpayable",
      "type": "function"
    },
    {
      "inputs": [
        {
          "internalType": "uint256",
          "name": "_fAssets",
          "type": "uint256"
        }
      ],
      "name": "withdrawFees",
      "outputs": [],
      "stateMutability": "nonpayable",
      "type": "function"
    },
    {
      "stateMutability": "payable",
      "type": "receive"
    }
  ],
  "bytecode": "0x60e06040523480156200001157600080fd5b506040516200427e3803806200427e83398101604081905262000034916200015a565b60016000556001600160a01b0380871660805285811660a081905290851660c05260408051635ad2445360e11b8152905163b5a488a6916004808201926020929091908290030181865afa15801562000091573d6000803e3d6000fd5b505050506040513d601f19601f82011682018060405250810190620000b79190620001ed565b6002805461ffff909316600160e01b0261ffff60e01b1963ffffffff958616600160c01b021665ffffffffffff60c01b1995909616600160a01b026001600160c01b03199094166001600160a01b0393909316929092179290921792909216929092171790555062000214915050565b6001600160a01b03811681146200013d57600080fd5b50565b805163ffffffff811681146200015557600080fd5b919050565b60008060008060008060c087890312156200017457600080fd5b8651620001818162000127565b6020880151909650620001948162000127565b6040880151909550620001a78162000127565b9350620001b76060880162000140565b9250620001c76080880162000140565b915060a087015161ffff81168114620001df57600080fd5b809150509295509295509295565b6000602082840312156200020057600080fd5b81516200020d8162000127565b9392505050565b60805160a05160c051613f4562000339600039600081816104be01528181610b6a01528181610c0a01528181610ca701528181610f1101528181611e1b0152818161224f01528181612569015281816130ae015261315a015260008181610594015281816107b701528181610d1e01528181610dc401528181610e6b015281816115580152818161189d01528181611a6601528181611b2901528181611bdb01528181611f1c0152818161203e015281816126670152818161285c01528181612a8c01528181612bd801526132d901526000818161050a01528181610df101528181610e9801528181611eec015281816120ca0152818161215801528181612187015281816121c60152818161282c01528181612baa01526132a60152613f456000f3fe6080604052600436106102335760003560e01c806388985cd61161012e578063ba133b87116100ab578063ee781db01161006f578063ee781db01461070c578063f4d000b21461072c578063fbebcadf1461074c578063fc0c546a1461076c578063fd86d3ea1461078c57600080fd5b8063ba133b871461066d578063c1b0bbf814610682578063cb209413146106a2578063cbabdf39146106d8578063cbdf382c146106ee57600080fd5b8063a854a6a2116100f2578063a854a6a2146105f6578063ac3736c114610616578063adf58c1514610629578063b337929b14610649578063b9e26483146102d157600080fd5b806388985cd61461054c578063923f89321461056c57806394217ad1146105825780639a4247e6146105b65780639edbf007146105d657600080fd5b8063406c7007116101bc578063787b9ca811610180578063787b9ca8146104795780637b6e1b55146104995780637c7db1a5146104ac578063815ea9d6146104f857806386ac57a21461052c57600080fd5b8063406c7007146103ce5780634a4ac2ef146103ee5780634ac8eb5f146104235780635e318e0714610439578063653258711461045957600080fd5b806314a3ab801161020357806314a3ab80146103005780632f35eac21461032057806333ce01fd146103555780633a22a94d146103755780633cfc747d1461039557600080fd5b8062f55d9d1461029157806306d804da146102b15780630ac07344146102d15780630dc1e5e1146102d157600080fd5b3661028c57600254600160f01b900460ff1661028a5760405162461bcd60e51b81526020600482015260116024820152706f6e6c7920696e7465726e616c2075736560781b60448201526064015b60405180910390fd5b005b600080fd5b34801561029d57600080fd5b5061028a6102ac36600461378a565b6107ac565b3480156102bd57600080fd5b5061028a6102cc366004613810565b610930565b3480156102dd57600080fd5b506102ed670de0b6b3a764000081565b6040519081526020015b60405180910390f35b34801561030c57600080fd5b5061028a61031b36600461396a565b611176565b34801561032c57600080fd5b5061034061033b366004613a25565b611203565b604080519283526020830191909152016102f7565b34801561036157600080fd5b5061028a61037036600461378a565b61154d565b34801561038157600080fd5b506102ed61039036600461378a565b611609565b3480156103a157600080fd5b506002546103b990600160a01b900463ffffffff1681565b60405163ffffffff90911681526020016102f7565b3480156103da57600080fd5b506102ed6103e9366004613a51565b61169f565b3480156103fa57600080fd5b5060025461041090600160e01b900461ffff1681565b60405161ffff90911681526020016102f7565b34801561042f57600080fd5b506102ed60065481565b34801561044557600080fd5b5061028a610454366004613a7d565b61174e565b34801561046557600080fd5b506102ed61047436600461378a565b61187b565b34801561048557600080fd5b5061028a610494366004613a7d565b611892565b61028a6104a7366004613a96565b611954565b3480156104b857600080fd5b506104e07f000000000000000000000000000000000000000000000000000000000000000081565b6040516001600160a01b0390911681526020016102f7565b34801561050457600080fd5b506104e07f000000000000000000000000000000000000000000000000000000000000000081565b34801561053857600080fd5b5061028a61054736600461378a565b6119e0565b34801561055857600080fd5b5061028a610567366004613a7d565b611a5b565b34801561057857600080fd5b506102ed60045481565b34801561058e57600080fd5b506104e07f000000000000000000000000000000000000000000000000000000000000000081565b3480156105c257600080fd5b5061028a6105d1366004613a7d565b611b1e565b3480156105e257600080fd5b506002546104e0906001600160a01b031681565b34801561060257600080fd5b5061028a610611366004613a7d565b611bd0565b61028a610624366004613ae6565b611c32565b34801561063557600080fd5b5061028a610644366004613b16565b612033565b34801561065557600080fd5b506002546103b990600160c01b900463ffffffff1681565b34801561067957600080fd5b5061028a612245565b34801561068e57600080fd5b506102ed61069d36600461378a565b6124ce565b3480156106ae57600080fd5b506102ed6106bd36600461378a565b6001600160a01b031660009081526003602052604090205490565b3480156106e457600080fd5b506102ed60055481565b3480156106fa57600080fd5b506001546001600160a01b03166104e0565b34801561071857600080fd5b5061028a610727366004613a7d565b6124e5565b34801561073857600080fd5b5061028a61074736600461378a565b61265c565b34801561075857600080fd5b5061028a610767366004613a51565b612891565b34801561077857600080fd5b506001546104e0906001600160a01b031681565b34801561079857600080fd5b506102ed6107a736600461378a565b612935565b336001600160a01b037f000000000000000000000000000000000000000000000000000000000000000016146107f45760405162461bcd60e51b815260040161028190613b4b565b6107fc61294c565b6006541561085d5760405162461bcd60e51b815260206004820152602860248201527f63616e6e6f742064657374726f79206120706f6f6c20686f6c64696e6720636f6044820152671b1b185d195c985b60c21b6064820152608401610281565b600554156108bc5760405162461bcd60e51b815260206004820152602660248201527f63616e6e6f742064657374726f79206120706f6f6c20686f6c64696e6720662d60448201526561737365747360d01b6064820152608401610281565b60015460405162f55d9d60e01b81526001600160a01b0383811660048301529091169062f55d9d90602401600060405180830381600087803b15801561090157600080fd5b505af1158015610915573d6000803e3d6000fd5b5050505061092381476129a5565b61092d6001600055565b50565b61093861294c565b6000841161097e5760405162461bcd60e51b8152602060048201526013602482015272746f6b656e207368617265206973207a65726f60681b6044820152606401610281565b6001546040516370a0823160e01b81523360048201526000916001600160a01b0316906370a0823190602401602060405180830381865afa1580156109c7573d6000803e3d6000fd5b505050506040513d601f19601f820116820180604052508101906109eb9190613b77565b905080851115610a355760405162461bcd60e51b8152602060048201526015602482015274746f6b656e2062616c616e636520746f6f206c6f7760581b6044820152606401610281565b6000610a3f612a40565b8051909150861480610a6657508051670de0b6b3a764000090610a63908890613ba6565b10155b610a825760405162461bcd60e51b815260040161028190613bb9565b80516040820151600091610a9891908990612c7a565b905060008111610aba5760405162461bcd60e51b815260040161028190613c0d565b8082604001511480610ae35750670de0b6b3a7640000818360400151610ae09190613ba6565b10155b610aff5760405162461bcd60e51b815260040161028190613c4f565b6000610b0b8333612da0565b9050600080610b1c85338c8c612dea565b915091506000610b2c8686612f4c565b905080841015610c89576000610b428583613ba6565b604051636eb1769f60e11b815233600482015230602482015290915081906001600160a01b037f0000000000000000000000000000000000000000000000000000000000000000169063dd62ed3e90604401602060405180830381865afa158015610bb1573d6000803e3d6000fd5b505050506040513d601f19601f82011682018060405250810190610bd59190613b77565b1015610bf35760405162461bcd60e51b815260040161028190613ca1565b6040516323b872dd60e01b81526001600160a01b037f000000000000000000000000000000000000000000000000000000000000000016906323b872dd90610c4390339030908690600401613cd8565b6020604051808303816000875af1158015610c62573d6000803e3d6000fd5b505050506040513d601f19601f82011682018060405250810190610c869190613cfc565b50505b801561101f576040516370a0823160e01b81523060048201526000907f00000000000000000000000000000000000000000000000000000000000000006001600160a01b0316906370a0823190602401602060405180830381865afa158015610cf6573d6000803e3d6000fd5b505050506040513d601f19601f82011682018060405250810190610d1a9190613b77565b90507f00000000000000000000000000000000000000000000000000000000000000006001600160a01b0316634942f65f6040518163ffffffff1660e01b8152600401602060405180830381865afa158015610d7a573d6000803e3d6000fd5b505050506040513d601f19601f82011682018060405250810190610d9e9190613b77565b821080610da85750895b15610e5457604051630ed000b360e41b81526001600160a01b037f0000000000000000000000000000000000000000000000000000000000000000169063ed000b3090610e1d907f00000000000000000000000000000000000000000000000000000000000000009033908790600401613cd8565b600060405180830381600087803b158015610e3757600080fd5b505af1158015610e4b573d6000803e3d6000fd5b50505050610ef9565b60405163f060b3f160e01b81526001600160a01b037f0000000000000000000000000000000000000000000000000000000000000000169063f060b3f190610ec6907f000000000000000000000000000000000000000000000000000000000000000090339087908f90600401613d19565b600060405180830381600087803b158015610ee057600080fd5b505af1158015610ef4573d6000803e3d6000fd5b505050505b6040516370a0823160e01b81523060048201526000907f00000000000000000000000000000000000000000000000000000000000000006001600160a01b0316906370a0823190602401602060405180830381865afa158015610f60573d6000803e3d6000fd5b505050506040513d601f19601f82011682018060405250810190610f849190613b77565b90506000610f928284613ba6565b905083811461101b5760405162461bcd60e51b815260206004820152604960248201527f6167656e742063616e6e6f742072656465656d20726571756972656420616d6f60448201527f756e74206f6620662d6173736574732c20747279206c6f776572696e6720746f6064820152686b656e20736861726560b81b608482015260a401610281565b5050505b600061102b8286613001565b905080156110845780600560008282546110459190613ba6565b9091555061105590503382613017565b60006110618285613001565b90508015611082576110738185613ba6565b935061107f8186613d8a565b94505b505b821561109557611095303385613061565b83156110a5576110a53385613193565b600154604051632770a7eb60e21b8152336004820152602481018e90526001600160a01b0390911690639dc29fac90604401600060405180830381600087803b1580156110f157600080fd5b505af1158015611105573d6000803e3d6000fd5b505050506111143033886131d4565b604080518d8152602081018890529081018290526060810183905233907f6bcf2464228029946fa6af5456662d377896b780e680909f9bbe7ffe6548cbef9060800160405180910390a250505050505050506111706001600055565b50505050565b61117f3361328f565b61119b5760405162461bcd60e51b815260040161028190613d9d565b60025460405163dc4fcda760e01b81526001600160a01b039091169063dc4fcda7906111cd9085908590600401613e05565b600060405180830381600087803b1580156111e757600080fd5b505af11580156111fb573d6000803e3d6000fd5b505050505050565b60008061120e61294c565b600084116112545760405162461bcd60e51b8152602060048201526013602482015272746f6b656e207368617265206973207a65726f60681b6044820152606401610281565b6001546040516370a0823160e01b81523360048201526001600160a01b03909116906370a0823190602401602060405180830381865afa15801561129c573d6000803e3d6000fd5b505050506040513d601f19601f820116820180604052508101906112c09190613b77565b8411156113075760405162461bcd60e51b8152602060048201526015602482015274746f6b656e2062616c616e636520746f6f206c6f7760581b6044820152606401610281565b6000611311612a40565b805190915085148061133857508051670de0b6b3a764000090611335908790613ba6565b10155b6113545760405162461bcd60e51b815260040161028190613bb9565b6040810151815160009161136a91889190612c7a565b90506000811161138c5760405162461bcd60e51b815260040161028190613c0d565b80826040015114806113b55750670de0b6b3a76400008183604001516113b29190613ba6565b10155b6113d15760405162461bcd60e51b815260040161028190613c4f565b6002546113ee9083908390600160a01b900463ffffffff16613346565b6114465760405162461bcd60e51b815260206004820152602360248201527f636f6c6c61746572616c20726174696f2066616c6c732062656c6f77206578696044820152623a21a960e91b6064820152608401610281565b60008061145584338a8a612dea565b9092509050801561146b5761146b303383613061565b811561147b5761147b3383613193565b600154604051632770a7eb60e21b8152336004820152602481018a90526001600160a01b0390911690639dc29fac90604401600060405180830381600087803b1580156114c757600080fd5b505af11580156114db573d6000803e3d6000fd5b505050506114ea3033856131d4565b60408051898152602081018590529081018290526000606082015233907f6bcf2464228029946fa6af5456662d377896b780e680909f9bbe7ffe6548cbef9060800160405180910390a291945090925050506115466001600055565b9250929050565b336001600160a01b037f000000000000000000000000000000000000000000000000000000000000000016146115955760405162461bcd60e51b815260040161028190613b4b565b6001546001600160a01b0316156115e75760405162461bcd60e51b81526020600482015260166024820152751c1bdbdb081d1bdad95b88185b1c9958591e481cd95d60521b6044820152606401610281565b600180546001600160a01b0319166001600160a01b0392909216919091179055565b600080611614612a40565b9050611620818461338f565b6001546040516370a0823160e01b81526001600160a01b038681166004830152909116906370a0823190602401602060405180830381865afa15801561166a573d6000803e3d6000fd5b505050506040513d601f19601f8201168201806040525081019061168e9190613b77565b6116989190613ba6565b9392505050565b60006116aa3361328f565b6116c65760405162461bcd60e51b815260040161028190613d9d565b60405163596090c960e11b81523060048201819052602482015260448101839052600160648201526001600160a01b0384169063b2c12192906084016020604051808303816000875af1158015611721573d6000803e3d6000fd5b505050506040513d601f19601f820116820180604052508101906117459190613b77565b90505b92915050565b61175661294c565b600081116117a65760405162461bcd60e51b815260206004820181905260248201527f747279696e6720746f207769746864726177207a65726f20662d6173736574736044820152606401610281565b60006117b0612a40565b905060006117be8233612da0565b9050808311156118105760405162461bcd60e51b815260206004820152601e60248201527f6672656520662d61737365742062616c616e636520746f6f20736d616c6c00006044820152606401610281565b61181a3384613017565b611825303385613061565b604080516000808252602082018190528183018490526060820152905133917f6bcf2464228029946fa6af5456662d377896b780e680909f9bbe7ffe6548cbef919081900360800190a2505061092d6001600055565b600080611886612a40565b9050611698818461338f565b336001600160a01b037f000000000000000000000000000000000000000000000000000000000000000016146118da5760405162461bcd60e51b815260040161028190613b4b565b600254600160c01b900463ffffffff1681116119285760405162461bcd60e51b815260206004820152600d60248201526c76616c756520746f6f206c6f7760981b6044820152606401610281565b6119318161347a565b600260146101000a81548163ffffffff021916908363ffffffff16021790555050565b61195d3361328f565b6119795760405162461bcd60e51b815260040161028190613d9d565b60405163e72dcdbb60e01b81526001600160a01b0383169063e72dcdbb9034906119aa908590600090600401613e5c565b6000604051808303818588803b1580156119c357600080fd5b505af11580156119d7573d6000803e3d6000fd5b50505050505050565b6119e93361328f565b611a055760405162461bcd60e51b815260040161028190613d9d565b806001600160a01b031663f2a1f7676040518163ffffffff1660e01b8152600401600060405180830381600087803b158015611a4057600080fd5b505af1158015611a54573d6000803e3d6000fd5b5050505050565b336001600160a01b037f00000000000000000000000000000000000000000000000000000000000000001614611aa35760405162461bcd60e51b815260040161028190613b4b565b600254600160a01b900463ffffffff168110611af25760405162461bcd60e51b815260206004820152600e60248201526d0ecc2d8eaca40e8dede40d0d2ced60931b6044820152606401610281565b611afb8161347a565b600260186101000a81548163ffffffff021916908363ffffffff16021790555050565b336001600160a01b037f00000000000000000000000000000000000000000000000000000000000000001614611b665760405162461bcd60e51b815260040161028190613b4b565b6127108110611ba85760405162461bcd60e51b815260206004820152600e60248201526d0ecc2d8eaca40e8dede40d0d2ced60931b6044820152606401610281565b611bb1816134e3565b6002601c6101000a81548161ffff021916908361ffff16021790555050565b336001600160a01b037f00000000000000000000000000000000000000000000000000000000000000001614611c185760405162461bcd60e51b815260040161028190613b4b565b8060056000828254611c2a9190613d8a565b909155505050565b611c3a61294c565b6000611c44612a40565b90506103e88160400151611c589190613e80565b81511115611ca85760405162461bcd60e51b815260206004820152601a60248201527f706f6f6c206e61742062616c616e636520746f6f20736d616c6c0000000000006044820152606401610281565b670de0b6b3a7640000341015611d005760405162461bcd60e51b815260206004820152601d60248201527f616d6f756e74206f66206e61742073656e7420697320746f6f206c6f770000006044820152606401610281565b8051600003611da9578060400151341015611da95760405162461bcd60e51b815260206004820152605e60248201527f696620706f6f6c20686173206e6f20746f6b656e732c2062757420686173206360448201527f6f6c6c61746572616c2c20796f75206e65656420746f2073656e64206174206c60648201527f65617374207468617420616d6f756e74206f6620636f6c6c61746572616c0000608482015260a401610281565b6000611db58234613546565b825190915060009015611dd95782516080840151611dd4918490612c7a565b611ddc565b60005b9050600084611df457611def8683613001565b611df6565b815b90508015611eb757604051636eb1769f60e11b815233600482015230602482015281907f00000000000000000000000000000000000000000000000000000000000000006001600160a01b03169063dd62ed3e90604401602060405180830381865afa158015611e6a573d6000803e3d6000fd5b505050506040513d601f19601f82011682018060405250810190611e8e9190613b77565b1015611eac5760405162461bcd60e51b815260040161028190613ca1565b611eb7333083613061565b611eca33611ec58385613ba6565b613017565b611ed2613678565b6002546040516351c452bf60e01b81526001600160a01b037f00000000000000000000000000000000000000000000000000000000000000008116600483015291821660248201527f0000000000000000000000000000000000000000000000000000000000000000909116906351c452bf90604401600060405180830381600087803b158015611f6257600080fd5b505af1158015611f76573d6000803e3d6000fd5b50506001546040516340c10f1960e01b8152336004820152602481018790526001600160a01b0390911692506340c10f199150604401600060405180830381600087803b158015611fc657600080fd5b505af1158015611fda573d6000803e3d6000fd5b505060408051348152602081018790529081018490523392507f3af2c1ec57343b1e7e40c3f6c85f5ad943344cd8548bdf819f1da51aaebb3db6915060600160405180910390a25050505061202f6001600055565b5050565b336001600160a01b037f0000000000000000000000000000000000000000000000000000000000000000161461207b5760405162461bcd60e51b815260040161028190613b4b565b61208361294c565b600061208d612a40565b905061209a3085856131d4565b604081015181516000916120b091908590612c7a565b6001546040516370a0823160e01b81526001600160a01b037f00000000000000000000000000000000000000000000000000000000000000008116600483015292935060009261214e9285929116906370a0823190602401602060405180830381865afa158015612125573d6000803e3d6000fd5b505050506040513d601f19601f820116820180604052508101906121499190613b77565b613001565b9050600061217f847f0000000000000000000000000000000000000000000000000000000000000000846002612dea565b5090506121ac7f000000000000000000000000000000000000000000000000000000000000000082613193565b600154604051632770a7eb60e21b81526001600160a01b037f0000000000000000000000000000000000000000000000000000000000000000811660048301526024820185905290911690639dc29fac90604401600060405180830381600087803b15801561221a57600080fd5b505af115801561222e573d6000803e3d6000fd5b50505050505050506122406001600055565b505050565b61224d61294c565b7f00000000000000000000000000000000000000000000000000000000000000006001600160a01b031663194307bf6040518163ffffffff1660e01b8152600401602060405180830381865afa1580156122ab573d6000803e3d6000fd5b505050506040513d601f19601f820116820180604052508101906122cf9190613cfc565b6123145760405162461bcd60e51b8152602060048201526016602482015275198b585cdcd95d081b9bdd081d195c9b5a5b985d195960521b6044820152606401610281565b6001546040516370a0823160e01b81523360048201526000916001600160a01b0316906370a0823190602401602060405180830381865afa15801561235d573d6000803e3d6000fd5b505050506040513d601f19601f820116820180604052508101906123819190613b77565b9050600081116123c95760405162461bcd60e51b81526020600482015260136024820152726e6f7468696e6720746f20776974686472617760681b6044820152606401610281565b6000612450600654600160009054906101000a90046001600160a01b03166001600160a01b03166318160ddd6040518163ffffffff1660e01b8152600401602060405180830381865afa158015612424573d6000803e3d6000fd5b505050506040513d601f19601f820116820180604052508101906124489190613b77565b849190612c7a565b600154604051632770a7eb60e21b8152336004820152602481018590529192506001600160a01b031690639dc29fac90604401600060405180830381600087803b15801561249d57600080fd5b505af11580156124b1573d6000803e3d6000fd5b505050506124c03033836131d4565b50506124cc6001600055565b565b6000806124d9612a40565b90506116988184612da0565b6124ed61294c565b3360009081526003602052604090205481111561254c5760405162461bcd60e51b815260206004820152601e60248201527f6465627420662d61737365742062616c616e636520746f6f20736d616c6c00006044820152606401610281565b604051636eb1769f60e11b815233600482015230602482015281907f00000000000000000000000000000000000000000000000000000000000000006001600160a01b03169063dd62ed3e90604401602060405180830381865afa1580156125b8573d6000803e3d6000fd5b505050506040513d601f19601f820116820180604052508101906125dc9190613b77565b10156125fa5760405162461bcd60e51b815260040161028190613ca1565b6126043382613193565b61260f333083613061565b604080516000808252602082015290810182905233907f3af2c1ec57343b1e7e40c3f6c85f5ad943344cd8548bdf819f1da51aaebb3db69060600160405180910390a261092d6001600055565b336001600160a01b037f000000000000000000000000000000000000000000000000000000000000000016146126a45760405162461bcd60e51b815260040161028190613b4b565b6002546001600160a01b0382811691161461092d576002546040516370a0823160e01b81523060048201526000916001600160a01b0316906370a0823190602401602060405180830381865afa158015612702573d6000803e3d6000fd5b505050506040513d601f19601f820116820180604052508101906127269190613b77565b60028054600160f01b60ff60f01b19821617909155604051632e1a7d4d60e01b8152600481018390529192506001600160a01b031690632e1a7d4d90602401600060405180830381600087803b15801561277f57600080fd5b505af1158015612793573d6000803e3d6000fd5b50506002805460ff60f01b19169055505060408051630d0e30db60e41b815290516001600160a01b0384169163d0e30db091849160048082019260009290919082900301818588803b1580156127e857600080fd5b505af11580156127fc573d6000803e3d6000fd5b5050600280546001600160a01b0319166001600160a01b038781169182179092556040516351c452bf60e01b81527f00000000000000000000000000000000000000000000000000000000000000008316600482015260248101919091527f000000000000000000000000000000000000000000000000000000000000000090911693506351c452bf925060440190506111cd565b61289a3361328f565b6128b65760405162461bcd60e51b815260040161028190613d9d565b60405163596090c960e11b81523060048201819052602482015260448101829052600160648201526001600160a01b0383169063b2c12192906084016020604051808303816000875af1158015612911573d6000803e3d6000fd5b505050506040513d601f19601f820116820180604052508101906122409190613b77565b600080612940612a40565b905061169881846136d6565b60026000540361299e5760405162461bcd60e51b815260206004820152601f60248201527f5265656e7472616e637947756172643a207265656e7472616e742063616c6c006044820152606401610281565b6002600055565b801561202f576000826001600160a01b03168260405160006040518083038185875af1925050503d80600081146129f8576040519150601f19603f3d011682016040523d82523d6000602084013e6129fd565b606091505b50509050806122405760405162461bcd60e51b815260206004820152600f60248201526e1d1c985b9cd9995c8819985a5b1959608a1b6044820152606401610281565b612a806040518060e00160405280600081526020016000815260200160008152602001600081526020016000815260200160008152602001600081525090565b600060055490506000807f00000000000000000000000000000000000000000000000000000000000000006001600160a01b03166302312aec6040518163ffffffff1660e01b81526004016040805180830381865afa158015612ae7573d6000803e3d6000fd5b505050506040513d601f19601f82011682018060405250810190612b0b9190613e97565b915091506040518060e00160405280600160009054906101000a90046001600160a01b03166001600160a01b03166318160ddd6040518163ffffffff1660e01b8152600401602060405180830381865afa158015612b6d573d6000803e3d6000fd5b505050506040513d601f19601f82011682018060405250810190612b919190613b77565b815260405163769bb15560e11b81526001600160a01b037f0000000000000000000000000000000000000000000000000000000000000000811660048301526020909201917f0000000000000000000000000000000000000000000000000000000000000000169063ed3762aa90602401602060405180830381865afa158015612c1f573d6000803e3d6000fd5b505050506040513d601f19601f82011682018060405250810190612c439190613b77565b8152602001600654815260200184815260200160045485612c649190613d8a565b8152602081019390935260409092015292915050565b6000808211612cbe5760405162461bcd60e51b815260206004820152601060248201526f4469766973696f6e206279207a65726f60801b6044820152606401610281565b83600003612cce57506000611698565b83830283858281612ce157612ce1613ebb565b0403612cff57828181612cf657612cf6613ebb565b04915050611698565b506000612d0c8386613ed1565b90506000612d1a8487613ee5565b90506000612d288587613ed1565b90506000612d368688613ee5565b905085612d438285613e80565b612d4d9190613ed1565b612d578385613e80565b612d618387613e80565b88612d6c8689613e80565b612d769190613e80565b612d809190613d8a565b612d8a9190613d8a565b612d949190613d8a565b98975050505050505050565b600080612dad84846136d6565b6001600160a01b038416600090815260036020526040902054909150808211612dd7576000612de1565b612de18183613ba6565b95945050505050565b6000806000612df987876136d6565b6001600160a01b038781166000818152600360205260408082205460015491516370a0823160e01b815260048101949094529495509092612e8c928a92909116906370a0823190602401602060405180830381865afa158015612e60573d6000803e3d6000fd5b505050506040513d601f19601f82011682018060405250810190612e849190613b77565b859190612c7a565b90506000866002811115612ea257612ea2613ef9565b03612ee1576000838310612eb7576000612ec1565b612ec18385613ba6565b9050612ecd8282613001565b9450612ed98583613ba6565b955050612f40565b6001866002811115612ef557612ef5613ef9565b03612f1757612f048183613001565b9450612f108582613ba6565b9350612f40565b60008211612f26576000612f31565b612f31828285612c7a565b9450612f3d8582613ba6565b93505b50505094509492505050565b600254600090612f6c9084908390600160a01b900463ffffffff16613346565b15612fec5760025460a0840151600091612f97919063ffffffff600160a01b90910481169061376616565b838560400151612fa79190613ba6565b8560c00151612fb69190613e80565b612fc09190613ed1565b905080846020015111612fd4576000612fe4565b808460200151612fe49190613ba6565b915050611748565b60408301516020840151611745918490612c7a565b60008183106130105781611745565b5090919050565b6001600160a01b0382166000908152600360205260408120805483929061303f908490613d8a565b9250508190555080600460008282546130589190613d8a565b90915550505050565b306001600160a01b0384160361311c5780600560008282546130839190613ba6565b909155505060405163a9059cbb60e01b81526001600160a01b038381166004830152602482018390527f0000000000000000000000000000000000000000000000000000000000000000169063a9059cbb906044015b6020604051808303816000875af11580156130f8573d6000803e3d6000fd5b505050506040513d601f19601f820116820180604052508101906111709190613cfc565b306001600160a01b0383160361224057806005600082825461313e9190613d8a565b90915550506040516323b872dd60e01b81526001600160a01b037f000000000000000000000000000000000000000000000000000000000000000016906323b872dd906130d990869086908690600401613cd8565b6001600160a01b038216600090815260036020526040812080548392906131bb908490613ba6565b9250508190555080600460008282546130589190613ba6565b306001600160a01b038416036132345780600660008282546131f69190613ba6565b909155505060025460405163a9059cbb60e01b81526001600160a01b038481166004830152602482018490529091169063a9059cbb906044016130d9565b306001600160a01b038316036122405780600660008282546132569190613d8a565b90915550506002546040516323b872dd60e01b81526001600160a01b03909116906323b872dd906130d990869086908690600401613cd8565b60405163d6b93a9f60e01b81526001600160a01b037f00000000000000000000000000000000000000000000000000000000000000008116600483015282811660248301526000917f00000000000000000000000000000000000000000000000000000000000000009091169063d6b93a9f90604401602060405180830381865afa158015613322573d6000803e3d6000fd5b505050506040513d601f19601f820116820180604052508101906117489190613cfc565b6000613366828560a0015186602001516133609190613e80565b90613766565b8460c0015184866040015161337b9190613ba6565b6133859190613e80565b1015949350505050565b6001546040516370a0823160e01b81526001600160a01b03838116600483015260009283929116906370a0823190602401602060405180830381865afa1580156133dd573d6000803e3d6000fd5b505050506040513d601f19601f820116820180604052508101906134019190613b77565b905080600003613415576000915050611748565b6001600160a01b0383166000908152600360205260408120549081900361343e57509050611748565b8451608086015160009161345491908590612c7a565b905060006134628383613ba6565b60808801518851919250600091612d94918490612c7a565b600063ffffffff8211156134df5760405162461bcd60e51b815260206004820152602660248201527f53616665436173743a2076616c756520646f65736e27742066697420696e203360448201526532206269747360d01b6064820152608401610281565b5090565b600061ffff8211156134df5760405162461bcd60e51b815260206004820152602660248201527f53616665436173743a2076616c756520646f65736e27742066697420696e203160448201526536206269747360d01b6064820152608401610281565b60008083604001516000148061355b57508351155b600254602086015160a087015192935060009261358992600160c01b900463ffffffff169161336091613e80565b905060008560c0015186604001516135a19190613e80565b82116135ae5760006135cc565b604086015160c08701516135c29084613ed1565b6135cc9190613ba6565b905060006135da8683613001565b905060008682106135ec5760006135f6565b6135f68288613ba6565b60025490915060009061361990849061271090600160e01b900461ffff16612c7a565b90506000866136395760408a01518a51613634918590612c7a565b61363b565b825b905060008761365b5760408b01518b51613656918590612c7a565b61365d565b825b90506136698282613d8a565b9b9a5050505050505050505050565b346006600082825461368a9190613d8a565b909155505060025460408051630d0e30db60e41b815290516001600160a01b039092169163d0e30db0913491600480830192600092919082900301818588803b158015611a4057600080fd5b6001546040516370a0823160e01b81526001600160a01b03838116600483015260009283929116906370a0823190602401602060405180830381865afa158015613724573d6000803e3d6000fd5b505050506040513d601f19601f820116820180604052508101906137489190613b77565b8451608086015191925061375e91908390612c7a565b949350505050565b60006117458383612710612c7a565b6001600160a01b038116811461092d57600080fd5b60006020828403121561379c57600080fd5b813561169881613775565b8035600381106137b657600080fd5b919050565b801515811461092d57600080fd5b634e487b7160e01b600052604160045260246000fd5b604051601f8201601f1916810167ffffffffffffffff81118282101715613808576138086137c9565b604052919050565b6000806000806080858703121561382657600080fd5b8435935060206138378187016137a7565b93506040860135613847816137bb565b9250606086013567ffffffffffffffff8082111561386457600080fd5b818801915088601f83011261387857600080fd5b81358181111561388a5761388a6137c9565b61389c601f8201601f191685016137df565b915080825289848285010111156138b257600080fd5b808484018584013760008482840101525080935050505092959194509250565b600067ffffffffffffffff8211156138ec576138ec6137c9565b5060051b60200190565b600082601f83011261390757600080fd5b8135602061391c613917836138d2565b6137df565b82815260059290921b8401810191818101908684111561393b57600080fd5b8286015b8481101561395f57803561395281613775565b835291830191830161393f565b509695505050505050565b6000806040838503121561397d57600080fd5b823567ffffffffffffffff8082111561399557600080fd5b6139a1868387016138f6565b93506020915081850135818111156139b857600080fd5b85019050601f810186136139cb57600080fd5b80356139d9613917826138d2565b81815260059190911b820183019083810190888311156139f857600080fd5b928401925b82841015613a16578335825292840192908401906139fd565b80955050505050509250929050565b60008060408385031215613a3857600080fd5b82359150613a48602084016137a7565b90509250929050565b60008060408385031215613a6457600080fd5b8235613a6f81613775565b946020939093013593505050565b600060208284031215613a8f57600080fd5b5035919050565b60008060408385031215613aa957600080fd5b8235613ab481613775565b9150602083013567ffffffffffffffff811115613ad057600080fd5b613adc858286016138f6565b9150509250929050565b60008060408385031215613af957600080fd5b823591506020830135613b0b816137bb565b809150509250929050565b600080600060608486031215613b2b57600080fd5b8335613b3681613775565b95602085013595506040909401359392505050565b60208082526012908201527137b7363c9030b9b9b2ba1036b0b730b3b2b960711b604082015260600190565b600060208284031215613b8957600080fd5b5051919050565b634e487b7160e01b600052601160045260246000fd5b8181038181111561174857611748613b90565b60208082526034908201527f746f6b656e20737570706c79206c656674206166746572206578697420697320604082015273746f6f206c6f7720616e64206e6f6e2d7a65726f60601b606082015260800190565b60208082526022908201527f616d6f756e74206f662073656e7420746f6b656e7320697320746f6f20736d616040820152611b1b60f21b606082015260800190565b60208082526032908201527f636f6c6c61746572616c206c656674206166746572206578697420697320746f6040820152716f206c6f7720616e64206e6f6e2d7a65726f60701b606082015260800190565b6020808252601b908201527f662d617373657420616c6c6f77616e636520746f6f20736d616c6c0000000000604082015260600190565b6001600160a01b039384168152919092166020820152604081019190915260600190565b600060208284031215613d0e57600080fd5b8151611698816137bb565b600060018060a01b038087168352602081871681850152856040850152608060608501528451915081608085015260005b82811015613d665785810182015185820160a001528101613d4a565b5050600060a0828501015260a0601f19601f83011684010191505095945050505050565b8082018082111561174857611748613b90565b6020808252600a90820152691bdb9b1e481859d95b9d60b21b604082015260600190565b600081518084526020808501945080840160005b83811015613dfa5781516001600160a01b031687529582019590820190600101613dd5565b509495945050505050565b604081526000613e186040830185613dc1565b82810360208481019190915284518083528582019282019060005b81811015613e4f57845183529383019391830191600101613e33565b5090979650505050505050565b604081526000613e6f6040830185613dc1565b905082151560208301529392505050565b808202811582820484141761174857611748613b90565b60008060408385031215613eaa57600080fd5b505080516020909101519092909150565b634e487b7160e01b600052601260045260246000fd5b600082613ee057613ee0613ebb565b500490565b600082613ef457613ef4613ebb565b500690565b634e487b7160e01b600052602160045260246000fdfea264697066735822122094a30de9c52328cccdd135656954a33845ca31e13afbb39a8ae93f2bf1f463fc64736f6c63430008140033",
  "linkReferences": {},
  "deployedLinkReferences": {}
}