{
  "_format": "hh-sol-artifact-1",
  "contractName": "CollateralPool",
  "sourceName": "contracts/fasset/implementation/CollateralPool.sol",
  "abi": [
    {
      "inputs": [
        {
          "internalType": "address",
          "name": "_agentVault",
          "type": "address"
        },
        {
          "internalType": "address",
          "name": "_assetManager",
          "type": "address"
        },
        {
          "internalType": "address",
          "name": "_fAsset",
          "type": "address"
        },
        {
          "internalType": "uint32",
          "name": "_exitCollateralRatioBIPS",
          "type": "uint32"
        },
        {
          "internalType": "uint32",
          "name": "_topupCollateralRatioBIPS",
          "type": "uint32"
        },
        {
          "internalType": "uint16",
          "name": "_topupTokenPriceFactorBIPS",
          "type": "uint16"
        }
      ],
      "stateMutability": "nonpayable",
      "type": "constructor"
    },
    {
      "inputs": [],
      "name": "MIN_NAT_BALANCE_AFTER_EXIT",
      "outputs": [
        {
          "internalType": "uint256",
          "name": "",
          "type": "uint256"
        }
      ],
      "stateMutability": "view",
      "type": "function"
    },
    {
      "inputs": [],
      "name": "MIN_NAT_TO_ENTER",
      "outputs": [
        {
          "internalType": "uint256",
          "name": "",
          "type": "uint256"
        }
      ],
      "stateMutability": "view",
      "type": "function"
    },
    {
      "inputs": [],
      "name": "MIN_TOKEN_SUPPLY_AFTER_EXIT",
      "outputs": [
        {
          "internalType": "uint256",
          "name": "",
          "type": "uint256"
        }
      ],
      "stateMutability": "view",
      "type": "function"
    },
    {
      "inputs": [],
      "name": "agentVault",
      "outputs": [
        {
          "internalType": "address",
          "name": "",
          "type": "address"
        }
      ],
      "stateMutability": "view",
      "type": "function"
    },
    {
      "inputs": [],
      "name": "agentVaultOwner",
      "outputs": [
        {
          "internalType": "address",
          "name": "",
          "type": "address"
        }
      ],
      "stateMutability": "view",
      "type": "function"
    },
    {
      "inputs": [],
      "name": "assetManager",
      "outputs": [
        {
          "internalType": "contract IAssetManager",
          "name": "",
          "type": "address"
        }
      ],
      "stateMutability": "view",
      "type": "function"
    },
    {
      "inputs": [
        {
          "internalType": "contract IDistributionToDelegators",
          "name": "_distribution",
          "type": "address"
        },
        {
          "internalType": "uint256",
          "name": "_month",
          "type": "uint256"
        }
      ],
      "name": "claimAirdropDistribution",
      "outputs": [
        {
          "internalType": "uint256",
          "name": "",
          "type": "uint256"
        }
      ],
      "stateMutability": "nonpayable",
      "type": "function"
    },
    {
      "inputs": [
        {
          "internalType": "contract IFtsoRewardManager",
          "name": "_ftsoRewardManager",
          "type": "address"
        },
        {
          "internalType": "uint256",
          "name": "_lastRewardEpoch",
          "type": "uint256"
        }
      ],
      "name": "claimFtsoRewards",
      "outputs": [],
      "stateMutability": "nonpayable",
      "type": "function"
    },
    {
      "inputs": [
        {
          "internalType": "address",
          "name": "_account",
          "type": "address"
        }
      ],
      "name": "debtTokensOf",
      "outputs": [
        {
          "internalType": "uint256",
          "name": "",
          "type": "uint256"
        }
      ],
      "stateMutability": "view",
      "type": "function"
    },
    {
      "inputs": [
        {
          "internalType": "address[]",
          "name": "_to",
          "type": "address[]"
        },
        {
          "internalType": "uint256[]",
          "name": "_bips",
          "type": "uint256[]"
        }
      ],
      "name": "delegateCollateral",
      "outputs": [],
      "stateMutability": "nonpayable",
      "type": "function"
    },
    {
      "inputs": [
        {
          "internalType": "address payable",
          "name": "_recipient",
          "type": "address"
        }
      ],
      "name": "destroy",
      "outputs": [],
      "stateMutability": "nonpayable",
      "type": "function"
    },
    {
      "inputs": [
        {
          "internalType": "uint256",
          "name": "_fassets",
          "type": "uint256"
        },
        {
          "internalType": "bool",
          "name": "_enterWithFullFassets",
          "type": "bool"
        }
      ],
      "name": "enter",
      "outputs": [],
      "stateMutability": "payable",
      "type": "function"
    },
    {
      "inputs": [
        {
          "internalType": "uint256",
          "name": "_tokenShare",
          "type": "uint256"
        },
        {
          "internalType": "enum ICollateralPool.TokenExitType",
          "name": "_exitType",
          "type": "uint8"
        }
      ],
      "name": "exit",
      "outputs": [
        {
          "internalType": "uint256",
          "name": "",
          "type": "uint256"
        },
        {
          "internalType": "uint256",
          "name": "",
          "type": "uint256"
        }
      ],
      "stateMutability": "nonpayable",
      "type": "function"
    },
    {
      "inputs": [],
      "name": "exitCollateralRatioBIPS",
      "outputs": [
        {
          "internalType": "uint32",
          "name": "",
          "type": "uint32"
        }
      ],
      "stateMutability": "view",
      "type": "function"
    },
    {
      "inputs": [],
      "name": "fAsset",
      "outputs": [
        {
          "internalType": "contract IERC20",
          "name": "",
          "type": "address"
        }
      ],
      "stateMutability": "view",
      "type": "function"
    },
    {
      "inputs": [
        {
          "internalType": "address",
          "name": "_account",
          "type": "address"
        }
      ],
      "name": "fassetDebtOf",
      "outputs": [
        {
          "internalType": "uint256",
          "name": "",
          "type": "uint256"
        }
      ],
      "stateMutability": "view",
      "type": "function"
    },
    {
      "inputs": [
        {
          "internalType": "address",
          "name": "_account",
          "type": "address"
        }
      ],
      "name": "freeFassetOf",
      "outputs": [
        {
          "internalType": "uint256",
          "name": "",
          "type": "uint256"
        }
      ],
      "stateMutability": "view",
      "type": "function"
    },
    {
      "inputs": [
        {
          "internalType": "address",
          "name": "_account",
          "type": "address"
        }
      ],
      "name": "freeTokensOf",
      "outputs": [
        {
          "internalType": "uint256",
          "name": "",
          "type": "uint256"
        }
      ],
      "stateMutability": "view",
      "type": "function"
    },
    {
      "inputs": [
        {
          "internalType": "contract IDistributionToDelegators",
          "name": "_distribution",
          "type": "address"
        }
      ],
      "name": "optOutOfAirdrop",
      "outputs": [],
      "stateMutability": "nonpayable",
      "type": "function"
    },
    {
      "inputs": [
        {
          "internalType": "uint256",
          "name": "_fassets",
          "type": "uint256"
        }
      ],
      "name": "payFeeDebt",
      "outputs": [],
      "stateMutability": "nonpayable",
      "type": "function"
    },
    {
      "inputs": [
        {
          "internalType": "address",
          "name": "_recipient",
          "type": "address"
        },
        {
          "internalType": "uint256",
          "name": "_amount",
          "type": "uint256"
        },
        {
          "internalType": "uint256",
          "name": "_agentResponsibilityWei",
          "type": "uint256"
        }
      ],
      "name": "payout",
      "outputs": [],
      "stateMutability": "nonpayable",
      "type": "function"
    },
    {
      "inputs": [],
      "name": "poolFassetDebt",
      "outputs": [
        {
          "internalType": "uint256",
          "name": "",
          "type": "uint256"
        }
      ],
      "stateMutability": "view",
      "type": "function"
    },
    {
      "inputs": [],
      "name": "poolToken",
      "outputs": [
        {
          "internalType": "contract IERC20",
          "name": "",
          "type": "address"
        }
      ],
      "stateMutability": "view",
      "type": "function"
    },
    {
      "inputs": [
        {
          "internalType": "uint256",
          "name": "_tokenShare",
          "type": "uint256"
        },
        {
          "internalType": "enum ICollateralPool.TokenExitType",
          "name": "_exitType",
          "type": "uint8"
        },
        {
          "internalType": "bool",
          "name": "_redeemToCollateral",
          "type": "bool"
        },
        {
          "internalType": "string",
          "name": "_redeemerUnderlyingAddress",
          "type": "string"
        }
      ],
      "name": "selfCloseExit",
      "outputs": [],
      "stateMutability": "nonpayable",
      "type": "function"
    },
    {
      "inputs": [
        {
          "internalType": "uint256",
          "name": "_exitCollateralRatioBIPS",
          "type": "uint256"
        }
      ],
      "name": "setExitCollateralRatioBIPS",
      "outputs": [],
      "stateMutability": "nonpayable",
      "type": "function"
    },
    {
      "inputs": [
        {
          "internalType": "contract IClaimSetupManager",
          "name": "_claimSetupManager",
          "type": "address"
        },
        {
          "internalType": "address[]",
          "name": "_executors",
          "type": "address[]"
        }
      ],
      "name": "setFtsoAutoClaiming",
      "outputs": [],
      "stateMutability": "payable",
      "type": "function"
    },
    {
      "inputs": [
        {
          "internalType": "address",
          "name": "_poolToken",
          "type": "address"
        }
      ],
      "name": "setPoolToken",
      "outputs": [],
      "stateMutability": "nonpayable",
      "type": "function"
    },
    {
      "inputs": [
        {
          "internalType": "uint256",
          "name": "_topupCollateralRatioBIPS",
          "type": "uint256"
        }
      ],
      "name": "setTopupCollateralRatioBIPS",
      "outputs": [],
      "stateMutability": "nonpayable",
      "type": "function"
    },
    {
      "inputs": [
        {
          "internalType": "uint256",
          "name": "_topupTokenPriceFactorBIPS",
          "type": "uint256"
        }
      ],
      "name": "setTopupTokenPriceFactorBIPS",
      "outputs": [],
      "stateMutability": "nonpayable",
      "type": "function"
    },
    {
      "inputs": [],
      "name": "token",
      "outputs": [
        {
          "internalType": "contract CollateralPoolToken",
          "name": "",
          "type": "address"
        }
      ],
      "stateMutability": "view",
      "type": "function"
    },
    {
      "inputs": [],
      "name": "topupCollateralRatioBIPS",
      "outputs": [
        {
          "internalType": "uint32",
          "name": "",
          "type": "uint32"
        }
      ],
      "stateMutability": "view",
      "type": "function"
    },
    {
      "inputs": [],
      "name": "topupTokenPriceFactorBIPS",
      "outputs": [
        {
          "internalType": "uint16",
          "name": "",
          "type": "uint16"
        }
      ],
      "stateMutability": "view",
      "type": "function"
    },
    {
      "inputs": [
        {
          "internalType": "contract IWNat",
          "name": "_newWNat",
          "type": "address"
        }
      ],
      "name": "upgradeWNatContract",
      "outputs": [],
      "stateMutability": "nonpayable",
      "type": "function"
    },
    {
      "inputs": [
        {
          "internalType": "address",
          "name": "_account",
          "type": "address"
        }
      ],
      "name": "virtualFassetOf",
      "outputs": [
        {
          "internalType": "uint256",
          "name": "",
          "type": "uint256"
        }
      ],
      "stateMutability": "view",
      "type": "function"
    },
    {
      "inputs": [],
      "name": "wNat",
      "outputs": [
        {
          "internalType": "contract IWNat",
          "name": "",
          "type": "address"
        }
      ],
      "stateMutability": "view",
      "type": "function"
    },
    {
      "inputs": [
        {
          "internalType": "uint256",
          "name": "_fassets",
          "type": "uint256"
        }
      ],
      "name": "withdrawFees",
      "outputs": [],
      "stateMutability": "nonpayable",
      "type": "function"
    },
    {
      "stateMutability": "payable",
      "type": "receive"
    }
  ],
  "bytecode": "0x6101006040523480156200001257600080fd5b5060405162003d0438038062003d048339810160408190526200003591620001cc565b60016000556001600160a01b038616608081905260408051638da5cb5b60e01b81529051638da5cb5b916004808201926020929091908290030181865afa15801562000085573d6000803e3d6000fd5b505050506040513d601f19601f82011682018060405250810190620000ab91906200025f565b6001600160a01b0390811660a05285811660c081905290851660e05260408051635ad2445360e11b8152905163b5a488a6916004808201926020929091908290030181865afa15801562000103573d6000803e3d6000fd5b505050506040513d601f19601f820116820180604052508101906200012991906200025f565b6002805461ffff909316600160e01b0261ffff60e01b1963ffffffff958616600160c01b021665ffffffffffff60c01b1995909616600160a01b026001600160c01b03199094166001600160a01b0393909316929092179290921792909216929092171790555062000286915050565b6001600160a01b0381168114620001af57600080fd5b50565b805163ffffffff81168114620001c757600080fd5b919050565b60008060008060008060c08789031215620001e657600080fd5b8651620001f38162000199565b6020880151909650620002068162000199565b6040880151909550620002198162000199565b93506200022960608801620001b2565b92506200023960808801620001b2565b915060a087015161ffff811681146200025157600080fd5b809150509295509295509295565b6000602082840312156200027257600080fd5b81516200027f8162000199565b9392505050565b60805160a05160c05160e05161394f620003b5600039600081816104f30152818161088c01528181610c1801528181610cb80152818161118501528181611237015281816115380152818161193001528181611f0d01528181611fb5015261274a0152600081816105b30152818161076901528181610d4c01528181610df201528181610e99015281816116b2015281816119b601528181611bc501528181611c88015281816121270152818161245f0152818161287b01528181612dd70152612fae01526000818161063a015281816110290152818161177001528181611a7801528181611b27015261263f01526000818161053f01528181610e1f01528181610ec60152818161225a015281816122e60152818161231601528181612355015261284d015261394f6000f3fe6080604052600436106102125760003560e01c80637c7db1a511610118578063adf58c15116100a0578063cbdf382c1161006f578063cbdf382c146106c0578063f4d000b2146106de578063fb13445f146106fe578063fbebcadf1461071e578063fc0c546a1461073e57600080fd5b8063adf58c151461065c578063b337929b1461067c578063b9e26483146102e3578063cb9d173b146106a057600080fd5b806394217ad1116100e757806394217ad1146105a15780639a4247e6146105d55780639edbf007146105f5578063ac3736c114610615578063ad2e74b81461062857600080fd5b80637c7db1a5146104e1578063815ea9d61461052d57806386ac57a21461056157806388985cd61461058157600080fd5b806333ce01fd1161019b5780634c8182131161016a5780634c818213146104425780635e318e07146104785780636d5a4fc014610498578063787b9ca8146104ae5780637b6e1b55146104ce57600080fd5b806333ce01fd146103945780633cfc747d146103b4578063406c7007146103ed5780634a4ac2ef1461040d57600080fd5b80630dc1e5e1116101e25780630dc1e5e1146102e357806314a3ab80146102ff5780631d4c75ff1461031f578063275385c11461033f5780632f35eac21461035f57600080fd5b8062f55d9d1461027057806301a418361461029057806306d804da146102c35780630ac07344146102e357600080fd5b3661026b57600254600160f01b900460ff166102695760405162461bcd60e51b81526020600482015260116024820152706f6e6c7920696e7465726e616c2075736560781b60448201526064015b60405180910390fd5b005b600080fd5b34801561027c57600080fd5b5061026961028b36600461317c565b61075e565b34801561029c57600080fd5b506102b06102ab36600461317c565b6109c7565b6040519081526020015b60405180910390f35b3480156102cf57600080fd5b506102696102de366004613202565b6109e5565b3480156102ef57600080fd5b506102b0670de0b6b3a764000081565b34801561030b57600080fd5b5061026961031a36600461335c565b61101e565b34801561032b57600080fd5b506102b061033a36600461317c565b6110ce565b34801561034b57600080fd5b5061026961035a366004613417565b611109565b34801561036b57600080fd5b5061037f61037a366004613430565b6112b7565b604080519283526020830191909152016102ba565b3480156103a057600080fd5b506102696103af36600461317c565b6116a7565b3480156103c057600080fd5b506002546103d890600160a01b900463ffffffff1681565b60405163ffffffff90911681526020016102ba565b3480156103f957600080fd5b506102b061040836600461345c565b611763565b34801561041957600080fd5b5060025461042f90600160e01b900461ffff1681565b60405161ffff90911681526020016102ba565b34801561044e57600080fd5b506102b061045d36600461317c565b6001600160a01b031660009081526003602052604090205490565b34801561048457600080fd5b50610269610493366004613417565b611835565b3480156104a457600080fd5b506102b060045481565b3480156104ba57600080fd5b506102696104c9366004613417565b6119ab565b6102696104dc366004613488565b611a6d565b3480156104ed57600080fd5b506105157f000000000000000000000000000000000000000000000000000000000000000081565b6040516001600160a01b0390911681526020016102ba565b34801561053957600080fd5b506105157f000000000000000000000000000000000000000000000000000000000000000081565b34801561056d57600080fd5b5061026961057c36600461317c565b611b1c565b34801561058d57600080fd5b5061026961059c366004613417565b611bba565b3480156105ad57600080fd5b506105157f000000000000000000000000000000000000000000000000000000000000000081565b3480156105e157600080fd5b506102696105f0366004613417565b611c7d565b34801561060157600080fd5b50600254610515906001600160a01b031681565b6102696106233660046134d8565b611d2f565b34801561063457600080fd5b506105157f000000000000000000000000000000000000000000000000000000000000000081565b34801561066857600080fd5b50610269610677366004613508565b61211c565b34801561068857600080fd5b506002546103d890600160c01b900463ffffffff1681565b3480156106ac57600080fd5b506102b06106bb36600461317c565b6123cf565b3480156106cc57600080fd5b506001546001600160a01b0316610515565b3480156106ea57600080fd5b506102696106f936600461317c565b612454565b34801561070a57600080fd5b506102b061071936600461317c565b61261d565b34801561072a57600080fd5b5061026961073936600461345c565b612634565b34801561074a57600080fd5b50600154610515906001600160a01b031681565b336001600160a01b037f000000000000000000000000000000000000000000000000000000000000000016146107a65760405162461bcd60e51b81526004016102609061353d565b6002546040516370a0823160e01b81523060048201526000916001600160a01b0316906370a0823190602401602060405180830381865afa1580156107ef573d6000803e3d6000fd5b505050506040513d601f19601f820116820180604052508101906108139190613569565b905080156108745760405162461bcd60e51b815260206004820152602860248201527f63616e6e6f742064657374726f79206120706f6f6c20686f6c64696e6720636f6044820152671b1b185d195c985b60c21b6064820152608401610260565b6040516370a0823160e01b81523060048201526000907f00000000000000000000000000000000000000000000000000000000000000006001600160a01b0316906370a0823190602401602060405180830381865afa1580156108db573d6000803e3d6000fd5b505050506040513d601f19601f820116820180604052508101906108ff9190613569565b9050801561095e5760405162461bcd60e51b815260206004820152602660248201527f63616e6e6f742064657374726f79206120706f6f6c20686f6c64696e6720662d60448201526561737365747360d01b6064820152608401610260565b60015460405162f55d9d60e01b81526001600160a01b0385811660048301529091169062f55d9d90602401600060405180830381600087803b1580156109a357600080fd5b505af11580156109b7573d6000803e3d6000fd5b50505050826001600160a01b0316ff5b6000806109d2612700565b90506109de838261297b565b9392505050565b60008411610a2b5760405162461bcd60e51b8152602060048201526013602482015272746f6b656e207368617265206973207a65726f60681b6044820152606401610260565b6001546040516370a0823160e01b81523360048201526001600160a01b03909116906370a0823190602401602060405180830381865afa158015610a73573d6000803e3d6000fd5b505050506040513d601f19601f82011682018060405250810190610a979190613569565b841115610ade5760405162461bcd60e51b8152602060048201526015602482015274746f6b656e2062616c616e636520746f6f206c6f7760581b6044820152606401610260565b6000610ae8612700565b8051909150851480610b0f57508051670de0b6b3a764000090610b0c908790613598565b10155b610b2b5760405162461bcd60e51b8152600401610260906135af565b80516040820151600091610b4191908890612a6c565b905060008111610b635760405162461bcd60e51b815260040161026090613603565b8082604001511480610b8c5750670de0b6b3a7640000818360400151610b899190613598565b10155b610ba85760405162461bcd60e51b815260040161026090613645565b600080610bb733898987612b84565b915091506000610bda8486604001518760200151612a6c9092919063ffffffff16565b9050600081831015610d3657610bf08383613598565b604051636eb1769f60e11b815233600482015230602482015290915081906001600160a01b037f0000000000000000000000000000000000000000000000000000000000000000169063dd62ed3e90604401602060405180830381865afa158015610c5f573d6000803e3d6000fd5b505050506040513d601f19601f82011682018060405250810190610c839190613569565b1015610ca15760405162461bcd60e51b815260040161026090613697565b6040516323b872dd60e01b81526001600160a01b037f000000000000000000000000000000000000000000000000000000000000000016906323b872dd90610cf1903390309086906004016136ce565b6020604051808303816000875af1158015610d10573d6000803e3d6000fd5b505050506040513d601f19601f82011682018060405250810190610d3491906136f2565b505b6000610d42828561370f565b90508015610f27577f00000000000000000000000000000000000000000000000000000000000000006001600160a01b031663ecaf1cdf6040518163ffffffff1660e01b8152600401602060405180830381865afa158015610da8573d6000803e3d6000fd5b505050506040513d601f19601f82011682018060405250810190610dcc9190613569565b811080610dd65750885b15610e8257604051630ed000b360e41b81526001600160a01b037f0000000000000000000000000000000000000000000000000000000000000000169063ed000b3090610e4b907f000000000000000000000000000000000000000000000000000000000000000090339086906004016136ce565b600060405180830381600087803b158015610e6557600080fd5b505af1158015610e79573d6000803e3d6000fd5b50505050610f27565b60405163f060b3f160e01b81526001600160a01b037f0000000000000000000000000000000000000000000000000000000000000000169063f060b3f190610ef4907f000000000000000000000000000000000000000000000000000000000000000090339086908e90600401613727565b600060405180830381600087803b158015610f0e57600080fd5b505af1158015610f22573d6000803e3d6000fd5b505050505b8415610f3757610f373386612cf6565b60025460405163a9059cbb60e01b8152336004820152602481018890526001600160a01b039091169063a9059cbb906044016020604051808303816000875af1158015610f88573d6000803e3d6000fd5b505050506040513d601f19601f82011682018060405250810190610fac91906136f2565b50600154604051632770a7eb60e21b8152336004820152602481018d90526001600160a01b0390911690639dc29fac90604401600060405180830381600087803b158015610ff957600080fd5b505af115801561100d573d6000803e3d6000fd5b505050505050505050505050505050565b336001600160a01b037f000000000000000000000000000000000000000000000000000000000000000016146110665760405162461bcd60e51b81526004016102609061379f565b60025460405163dc4fcda760e01b81526001600160a01b039091169063dc4fcda7906110989085908590600401613807565b600060405180830381600087803b1580156110b257600080fd5b505af11580156110c6573d6000803e3d6000fd5b505050505050565b6000806110d9612700565b6001600160a01b0384166000908152600360205260409020549091506110ff8483612d40565b6109de9190613598565b336000908152600360205260409020548111156111685760405162461bcd60e51b815260206004820152601e60248201527f6465627420662d61737365742062616c616e636520746f6f20736d616c6c00006044820152606401610260565b604051636eb1769f60e11b815233600482015230602482015281907f00000000000000000000000000000000000000000000000000000000000000006001600160a01b03169063dd62ed3e90604401602060405180830381865afa1580156111d4573d6000803e3d6000fd5b505050506040513d601f19601f820116820180604052508101906111f89190613569565b10156112165760405162461bcd60e51b815260040161026090613697565b6112203382612cf6565b6040516323b872dd60e01b81526001600160a01b037f000000000000000000000000000000000000000000000000000000000000000016906323b872dd90611270903390309086906004016136ce565b6020604051808303816000875af115801561128f573d6000803e3d6000fd5b505050506040513d601f19601f820116820180604052508101906112b391906136f2565b5050565b600080600084116113005760405162461bcd60e51b8152602060048201526013602482015272746f6b656e207368617265206973207a65726f60681b6044820152606401610260565b6001546040516370a0823160e01b81523360048201526001600160a01b03909116906370a0823190602401602060405180830381865afa158015611348573d6000803e3d6000fd5b505050506040513d601f19601f8201168201806040525081019061136c9190613569565b8411156113b35760405162461bcd60e51b8152602060048201526015602482015274746f6b656e2062616c616e636520746f6f206c6f7760581b6044820152606401610260565b60006113bd612700565b80519091508514806113e457508051670de0b6b3a7640000906113e1908790613598565b10155b6114005760405162461bcd60e51b8152600401610260906135af565b6040810151815160009161141691889190612a6c565b9050600081116114385760405162461bcd60e51b815260040161026090613603565b80826040015114806114615750670de0b6b3a764000081836040015161145e9190613598565b10155b61147d5760405162461bcd60e51b815260040161026090613645565b6114aa8183604001516114909190613598565b6020840151600254600160a01b900463ffffffff16612dd0565b6115025760405162461bcd60e51b815260206004820152602360248201527f636f6c6c61746572616c20726174696f2066616c6c732062656c6f77206578696044820152623a21a960e91b6064820152608401610260565b60008061151133898987612b84565b909250905080156115af5760405163a9059cbb60e01b8152336004820152602481018290527f00000000000000000000000000000000000000000000000000000000000000006001600160a01b03169063a9059cbb906044016020604051808303816000875af1158015611589573d6000803e3d6000fd5b505050506040513d601f19601f820116820180604052508101906115ad91906136f2565b505b81156115bf576115bf3383612cf6565b600154604051632770a7eb60e21b8152336004820152602481018a90526001600160a01b0390911690639dc29fac90604401600060405180830381600087803b15801561160b57600080fd5b505af115801561161f573d6000803e3d6000fd5b505060025460405163a9059cbb60e01b8152336004820152602481018790526001600160a01b03909116925063a9059cbb91506044016020604051808303816000875af1158015611674573d6000803e3d6000fd5b505050506040513d601f19601f8201168201806040525081019061169891906136f2565b50919791965090945050505050565b336001600160a01b037f000000000000000000000000000000000000000000000000000000000000000016146116ef5760405162461bcd60e51b81526004016102609061353d565b6001546001600160a01b0316156117415760405162461bcd60e51b81526020600482015260166024820152751c1bdbdb081d1bdad95b88185b1c9958591e481cd95d60521b6044820152606401610260565b600180546001600160a01b0319166001600160a01b0392909216919091179055565b6000336001600160a01b037f000000000000000000000000000000000000000000000000000000000000000016146117ad5760405162461bcd60e51b81526004016102609061379f565b60405163596090c960e11b81523060048201819052602482015260448101839052600160648201526001600160a01b0384169063b2c12192906084016020604051808303816000875af1158015611808573d6000803e3d6000fd5b505050506040513d601f19601f8201168201806040525081019061182c9190613569565b90505b92915050565b600081116118855760405162461bcd60e51b815260206004820181905260248201527f747279696e6720746f207769746864726177207a65726f20662d6173736574736044820152606401610260565b600061188f612700565b3360008181526003602052604081205492935091906118ae9084612d40565b6118b89190613598565b90508083111561190a5760405162461bcd60e51b815260206004820152601e60248201527f6672656520662d61737365742062616c616e636520746f6f20736d616c6c00006044820152606401610260565b6119143384612e85565b60405163a9059cbb60e01b8152336004820152602481018490527f00000000000000000000000000000000000000000000000000000000000000006001600160a01b03169063a9059cbb906044016020604051808303816000875af1158015611981573d6000803e3d6000fd5b505050506040513d601f19601f820116820180604052508101906119a591906136f2565b50505050565b336001600160a01b037f000000000000000000000000000000000000000000000000000000000000000016146119f35760405162461bcd60e51b81526004016102609061353d565b600254600160c01b900463ffffffff168111611a415760405162461bcd60e51b815260206004820152600d60248201526c76616c756520746f6f206c6f7760981b6044820152606401610260565b611a4a81612ec6565b600260146101000a81548163ffffffff021916908363ffffffff16021790555050565b336001600160a01b037f00000000000000000000000000000000000000000000000000000000000000001614611ab55760405162461bcd60e51b81526004016102609061379f565b60405163e72dcdbb60e01b81526001600160a01b0383169063e72dcdbb903490611ae690859060009060040161385e565b6000604051808303818588803b158015611aff57600080fd5b505af1158015611b13573d6000803e3d6000fd5b50505050505050565b336001600160a01b037f00000000000000000000000000000000000000000000000000000000000000001614611b645760405162461bcd60e51b81526004016102609061379f565b806001600160a01b031663f2a1f7676040518163ffffffff1660e01b8152600401600060405180830381600087803b158015611b9f57600080fd5b505af1158015611bb3573d6000803e3d6000fd5b5050505050565b336001600160a01b037f00000000000000000000000000000000000000000000000000000000000000001614611c025760405162461bcd60e51b81526004016102609061353d565b600254600160a01b900463ffffffff168110611c515760405162461bcd60e51b815260206004820152600e60248201526d0ecc2d8eaca40e8dede40d0d2ced60931b6044820152606401610260565b611c5a81612ec6565b600260186101000a81548163ffffffff021916908363ffffffff16021790555050565b336001600160a01b037f00000000000000000000000000000000000000000000000000000000000000001614611cc55760405162461bcd60e51b81526004016102609061353d565b6127108110611d075760405162461bcd60e51b815260206004820152600e60248201526d0ecc2d8eaca40e8dede40d0d2ced60931b6044820152606401610260565b611d1081612f2f565b6002601c6101000a81548161ffff021916908361ffff16021790555050565b6000611d39612700565b90506103e88160400151611d4d9190613882565b81511115611d9d5760405162461bcd60e51b815260206004820152601a60248201527f706f6f6c206e61742062616c616e636520746f6f20736d616c6c0000000000006044820152606401610260565b670de0b6b3a7640000341015611df55760405162461bcd60e51b815260206004820152601d60248201527f616d6f756e74206f66206e61742073656e7420697320746f6f206c6f770000006044820152606401610260565b8051611e9b578060400151341015611e9b5760405162461bcd60e51b815260206004820152605e60248201527f696620706f6f6c20686173206e6f20746f6b656e732c2062757420686173206360448201527f6f6c6c61746572616c2c20796f75206e65656420746f2073656e64206174206c60648201527f65617374207468617420616d6f756e74206f6620636f6c6c61746572616c0000608482015260a401610260565b6000611ea73483612f92565b825190915060009015611ecb5782516080840151611ec6918490612a6c565b611ece565b60005b9050600084611ee657611ee18683613142565b611ee8565b815b9050801561203357604051636eb1769f60e11b815233600482015230602482015281907f00000000000000000000000000000000000000000000000000000000000000006001600160a01b03169063dd62ed3e90604401602060405180830381865afa158015611f5c573d6000803e3d6000fd5b505050506040513d601f19601f82011682018060405250810190611f809190613569565b1015611f9e5760405162461bcd60e51b815260040161026090613697565b6040516323b872dd60e01b81526001600160a01b037f000000000000000000000000000000000000000000000000000000000000000016906323b872dd90611fee903390309086906004016136ce565b6020604051808303816000875af115801561200d573d6000803e3d6000fd5b505050506040513d601f19601f8201168201806040525081019061203191906136f2565b505b612046336120418385613598565b612e85565b600260009054906101000a90046001600160a01b03166001600160a01b031663d0e30db0346040518263ffffffff1660e01b81526004016000604051808303818588803b15801561209657600080fd5b505af11580156120aa573d6000803e3d6000fd5b50506001546040516340c10f1960e01b8152336004820152602481018890526001600160a01b0390911693506340c10f1992506044019050600060405180830381600087803b1580156120fc57600080fd5b505af1158015612110573d6000803e3d6000fd5b50505050505050505050565b336001600160a01b037f000000000000000000000000000000000000000000000000000000000000000016146121645760405162461bcd60e51b81526004016102609061353d565b600260005414156121b75760405162461bcd60e51b815260206004820152601f60248201527f5265656e7472616e637947756172643a207265656e7472616e742063616c6c006044820152606401610260565b600260009081556121c6612700565b60025460405163a9059cbb60e01b81526001600160a01b0387811660048301526024820187905292935091169063a9059cbb906044016020604051808303816000875af115801561221b573d6000803e3d6000fd5b505050506040513d601f19601f8201168201806040525081019061223f91906136f2565b506001546040516370a0823160e01b81526001600160a01b037f00000000000000000000000000000000000000000000000000000000000000008116600483015260009216906370a0823190602401602060405180830381865afa1580156122ab573d6000803e3d6000fd5b505050506040513d601f19601f820116820180604052508101906122cf9190613569565b905060006122dd8285613142565b9050600061230e7f000000000000000000000000000000000000000000000000000000000000000083600287612b84565b50905061233b7f000000000000000000000000000000000000000000000000000000000000000082612cf6565b600154604051632770a7eb60e21b81526001600160a01b037f0000000000000000000000000000000000000000000000000000000000000000811660048301526024820185905290911690639dc29fac90604401600060405180830381600087803b1580156123a957600080fd5b505af11580156123bd573d6000803e3d6000fd5b50506001600055505050505050505050565b6000806123da612700565b90506123e6838261297b565b6001546040516370a0823160e01b81526001600160a01b038681166004830152909116906370a0823190602401602060405180830381865afa158015612430573d6000803e3d6000fd5b505050506040513d601f19601f820116820180604052508101906110ff9190613569565b336001600160a01b037f0000000000000000000000000000000000000000000000000000000000000000161461249c5760405162461bcd60e51b81526004016102609061353d565b6002546001600160a01b03828116911614156124b55750565b6002546040516370a0823160e01b81523060048201526000916001600160a01b0316906370a0823190602401602060405180830381865afa1580156124fe573d6000803e3d6000fd5b505050506040513d601f19601f820116820180604052508101906125229190613569565b60028054600160f01b60ff60f01b19821617909155604051632e1a7d4d60e01b8152600481018390529192506001600160a01b031690632e1a7d4d90602401600060405180830381600087803b15801561257b57600080fd5b505af115801561258f573d6000803e3d6000fd5b50506002805460ff60f01b19169055505060408051630d0e30db60e41b815290516001600160a01b0384169163d0e30db091849160048082019260009290919082900301818588803b1580156125e457600080fd5b505af11580156125f8573d6000803e3d6000fd5b5050600280546001600160a01b0319166001600160a01b038716179055505050505b50565b600080612628612700565b90506109de8382612d40565b336001600160a01b037f0000000000000000000000000000000000000000000000000000000000000000161461267c5760405162461bcd60e51b81526004016102609061379f565b60405163596090c960e11b81523060048201819052602482015260448101829052600160648201526001600160a01b0383169063b2c12192906084016020604051808303816000875af11580156126d7573d6000803e3d6000fd5b505050506040513d601f19601f820116820180604052508101906126fb9190613569565b505050565b6127326040518060a0016040528060008152602001600081526020016000815260200160008152602001600081525090565b6040516370a0823160e01b81523060048201526000907f00000000000000000000000000000000000000000000000000000000000000006001600160a01b0316906370a0823190602401602060405180830381865afa158015612799573d6000803e3d6000fd5b505050506040513d601f19601f820116820180604052508101906127bd9190613569565b6040805160a081018083526001546318160ddd60e01b90915291519293509182916001600160a01b0316906318160ddd9060a4808501916020918187030181865afa158015612810573d6000803e3d6000fd5b505050506040513d601f19601f820116820180604052508101906128349190613569565b815260405163769bb15560e11b81526001600160a01b037f0000000000000000000000000000000000000000000000000000000000000000811660048301526020909201917f0000000000000000000000000000000000000000000000000000000000000000169063ed3762aa90602401602060405180830381865afa1580156128c2573d6000803e3d6000fd5b505050506040513d601f19601f820116820180604052508101906128e69190613569565b81526002546040516370a0823160e01b81523060048201526020909201916001600160a01b03909116906370a0823190602401602060405180830381865afa158015612936573d6000803e3d6000fd5b505050506040513d601f19601f8201168201806040525081019061295a9190613569565b815260200182815260200160045483612973919061370f565b905292915050565b6001546040516370a0823160e01b81526001600160a01b03848116600483015260009283929116906370a0823190602401602060405180830381865afa1580156129c9573d6000803e3d6000fd5b505050506040513d601f19601f820116820180604052508101906129ed9190613569565b9050806129fe57600091505061182f565b6001600160a01b03841660009081526003602052604090205480612a245750905061182f565b83516080850151600091612a3a91908590612a6c565b90506000612a488383613598565b60808701518751919250600091612a60918490612a6c565b98975050505050505050565b6000808211612ab05760405162461bcd60e51b815260206004820152601060248201526f4469766973696f6e206279207a65726f60801b6044820152606401610260565b83612abd575060006109de565b83830283858281612ad057612ad06138a1565b041415612aef57828181612ae657612ae66138a1565b049150506109de565b506000612afc83866138b7565b90506000612b0a84876138cb565b90506000612b1885876138b7565b90506000612b2686886138cb565b905085612b338285613882565b612b3d91906138b7565b612b478385613882565b612b518387613882565b88612b5c8689613882565b612b669190613882565b612b70919061370f565b612b7a919061370f565b612a60919061370f565b6000806000612b938785612d40565b6001600160a01b038881166000818152600360205260408082205460015491516370a0823160e01b815260048101949094529495509092612c26928b92909116906370a0823190602401602060405180830381865afa158015612bfa573d6000803e3d6000fd5b505050506040513d601f19601f82011682018060405250810190612c1e9190613569565b859190612a6c565b90506000876002811115612c3c57612c3c6138df565b1415612c7c576000612c4e8385613598565b9050612c5a8282613142565b9450818510612c6a576000612c74565b612c748583613598565b955050612cea565b6001876002811115612c9057612c906138df565b1415612cc157612ca08183613142565b9450808510612cb0576000612cba565b612cba8582613598565b9350612cea565b60008211612cd0576000612cdb565b612cdb828285612a6c565b9450612ce78582613598565b93505b50505094509492505050565b6001600160a01b03821660009081526003602052604081208054839290612d1e908490613598565b925050819055508060046000828254612d379190613598565b90915550505050565b6001546040516370a0823160e01b81526001600160a01b03848116600483015260009283929116906370a0823190602401602060405180830381865afa158015612d8e573d6000803e3d6000fd5b505050506040513d601f19601f82011682018060405250810190612db29190613569565b83516080850151919250612dc891908390612a6c565b949350505050565b60008060007f00000000000000000000000000000000000000000000000000000000000000006001600160a01b03166302312aec6040518163ffffffff1660e01b81526004016040805180830381865afa158015612e32573d6000803e3d6000fd5b505050506040513d601f19601f82011682018060405250810190612e5691906138f5565b9092509050612e6f84612e698488613882565b90613158565b612e798288613882565b10159695505050505050565b6001600160a01b03821660009081526003602052604081208054839290612ead90849061370f565b925050819055508060046000828254612d37919061370f565b600063ffffffff821115612f2b5760405162461bcd60e51b815260206004820152602660248201527f53616665436173743a2076616c756520646f65736e27742066697420696e203360448201526532206269747360d01b6064820152608401610260565b5090565b600061ffff821115612f2b5760405162461bcd60e51b815260206004820152602660248201527f53616665436173743a2076616c756520646f65736e27742066697420696e203160448201526536206269747360d01b6064820152608401610260565b600080826040015160001480612fa757508251155b90506000807f00000000000000000000000000000000000000000000000000000000000000006001600160a01b03166302312aec6040518163ffffffff1660e01b81526004016040805180830381865afa158015613009573d6000803e3d6000fd5b505050506040513d601f19601f8201168201806040525081019061302d91906138f5565b600254602088015192945090925060009161305a91600160c01b900463ffffffff1690612e699086613882565b9050600082876040015161306e9190613882565b821161307b576000613094565b604087015161308a84846138b7565b6130949190613598565b905060006130a28983613142565b905060008982106130b45760006130be565b6130be828b613598565b6002549091506000906130e190849061271090600160e01b900461ffff16612a6c565b90506000886131015760408b01518b516130fc918590612a6c565b613103565b825b90506000896131235760408c01518c5161311e918590612a6c565b613125565b825b9050613131828261370f565b9d9c50505050505050505050505050565b6000818310613151578161182c565b5090919050565b600061182c8383612710612a6c565b6001600160a01b038116811461261a57600080fd5b60006020828403121561318e57600080fd5b81356109de81613167565b8035600381106131a857600080fd5b919050565b801515811461261a57600080fd5b634e487b7160e01b600052604160045260246000fd5b604051601f8201601f1916810167ffffffffffffffff811182821017156131fa576131fa6131bb565b604052919050565b6000806000806080858703121561321857600080fd5b843593506020613229818701613199565b93506040860135613239816131ad565b9250606086013567ffffffffffffffff8082111561325657600080fd5b818801915088601f83011261326a57600080fd5b81358181111561327c5761327c6131bb565b61328e601f8201601f191685016131d1565b915080825289848285010111156132a457600080fd5b808484018584013760008482840101525080935050505092959194509250565b600067ffffffffffffffff8211156132de576132de6131bb565b5060051b60200190565b600082601f8301126132f957600080fd5b8135602061330e613309836132c4565b6131d1565b82815260059290921b8401810191818101908684111561332d57600080fd5b8286015b8481101561335157803561334481613167565b8352918301918301613331565b509695505050505050565b6000806040838503121561336f57600080fd5b823567ffffffffffffffff8082111561338757600080fd5b613393868387016132e8565b93506020915081850135818111156133aa57600080fd5b85019050601f810186136133bd57600080fd5b80356133cb613309826132c4565b81815260059190911b820183019083810190888311156133ea57600080fd5b928401925b82841015613408578335825292840192908401906133ef565b80955050505050509250929050565b60006020828403121561342957600080fd5b5035919050565b6000806040838503121561344357600080fd5b8235915061345360208401613199565b90509250929050565b6000806040838503121561346f57600080fd5b823561347a81613167565b946020939093013593505050565b6000806040838503121561349b57600080fd5b82356134a681613167565b9150602083013567ffffffffffffffff8111156134c257600080fd5b6134ce858286016132e8565b9150509250929050565b600080604083850312156134eb57600080fd5b8235915060208301356134fd816131ad565b809150509250929050565b60008060006060848603121561351d57600080fd5b833561352881613167565b95602085013595506040909401359392505050565b60208082526012908201527137b7363c9030b9b9b2ba1036b0b730b3b2b960711b604082015260600190565b60006020828403121561357b57600080fd5b5051919050565b634e487b7160e01b600052601160045260246000fd5b6000828210156135aa576135aa613582565b500390565b60208082526034908201527f746f6b656e20737570706c79206c656674206166746572206578697420697320604082015273746f6f206c6f7720616e64206e6f6e2d7a65726f60601b606082015260800190565b60208082526022908201527f616d6f756e74206f662073656e7420746f6b656e7320697320746f6f20736d616040820152611b1b60f21b606082015260800190565b60208082526032908201527f636f6c6c61746572616c206c656674206166746572206578697420697320746f6040820152716f206c6f7720616e64206e6f6e2d7a65726f60701b606082015260800190565b6020808252601b908201527f662d617373657420616c6c6f77616e636520746f6f20736d616c6c0000000000604082015260600190565b6001600160a01b039384168152919092166020820152604081019190915260600190565b60006020828403121561370457600080fd5b81516109de816131ad565b6000821982111561372257613722613582565b500190565b600060018060a01b038087168352602081871681850152856040850152608060608501528451915081608085015260005b828110156137745785810182015185820160a001528101613758565b8281111561378657600060a084870101525b5050601f01601f19169190910160a00195945050505050565b6020808252600a90820152691bdb9b1e481859d95b9d60b21b604082015260600190565b600081518084526020808501945080840160005b838110156137fc5781516001600160a01b0316875295820195908201906001016137d7565b509495945050505050565b60408152600061381a60408301856137c3565b82810360208481019190915284518083528582019282019060005b8181101561385157845183529383019391830191600101613835565b5090979650505050505050565b60408152600061387160408301856137c3565b905082151560208301529392505050565b600081600019048311821515161561389c5761389c613582565b500290565b634e487b7160e01b600052601260045260246000fd5b6000826138c6576138c66138a1565b500490565b6000826138da576138da6138a1565b500690565b634e487b7160e01b600052602160045260246000fd5b6000806040838503121561390857600080fd5b50508051602090910151909290915056fea264697066735822122095928ccc910ae6c9eecaf0d2ab8823ebca6e0b4affb44e65c5523d6c22ccb65164736f6c634300080b0033",
  "linkReferences": {},
  "deployedLinkReferences": {}
}