{
  "_format": "hh-sol-artifact-1",
  "contractName": "CollateralPool",
  "sourceName": "contracts/fasset/implementation/CollateralPool.sol",
  "abi": [
    {
      "inputs": [
        {
          "internalType": "address",
          "name": "_agentVault",
          "type": "address"
        },
        {
          "internalType": "address",
          "name": "_assetManager",
          "type": "address"
        },
        {
          "internalType": "address",
          "name": "_fAsset",
          "type": "address"
        },
        {
          "internalType": "uint32",
          "name": "_exitCollateralRatioBIPS",
          "type": "uint32"
        },
        {
          "internalType": "uint32",
          "name": "_topupCollateralRatioBIPS",
          "type": "uint32"
        },
        {
          "internalType": "uint16",
          "name": "_topupTokenPriceFactorBIPS",
          "type": "uint16"
        }
      ],
      "stateMutability": "nonpayable",
      "type": "constructor"
    },
    {
      "anonymous": false,
      "inputs": [
        {
          "indexed": true,
          "internalType": "address",
          "name": "tokenHolder",
          "type": "address"
        },
        {
          "indexed": false,
          "internalType": "uint256",
          "name": "amountNatWei",
          "type": "uint256"
        },
        {
          "indexed": false,
          "internalType": "uint256",
          "name": "receivedTokensWei",
          "type": "uint256"
        },
        {
          "indexed": false,
          "internalType": "uint256",
          "name": "addedFAssetFeesUBA",
          "type": "uint256"
        },
        {
          "indexed": false,
          "internalType": "uint256",
          "name": "newFAssetFeeDebt",
          "type": "uint256"
        }
      ],
      "name": "Entered",
      "type": "event"
    },
    {
      "anonymous": false,
      "inputs": [
        {
          "indexed": true,
          "internalType": "address",
          "name": "tokenHolder",
          "type": "address"
        },
        {
          "indexed": false,
          "internalType": "uint256",
          "name": "burnedTokensWei",
          "type": "uint256"
        },
        {
          "indexed": false,
          "internalType": "uint256",
          "name": "receivedNatWei",
          "type": "uint256"
        },
        {
          "indexed": false,
          "internalType": "uint256",
          "name": "receviedFAssetFeesUBA",
          "type": "uint256"
        },
        {
          "indexed": false,
          "internalType": "uint256",
          "name": "closedFAssetsUBA",
          "type": "uint256"
        },
        {
          "indexed": false,
          "internalType": "uint256",
          "name": "newFAssetFeeDebt",
          "type": "uint256"
        }
      ],
      "name": "Exited",
      "type": "event"
    },
    {
      "anonymous": false,
      "inputs": [
        {
          "indexed": false,
          "internalType": "uint256",
          "name": "burnedTokensWei",
          "type": "uint256"
        },
        {
          "indexed": false,
          "internalType": "uint256",
          "name": "redeemedFAssetUBA",
          "type": "uint256"
        }
      ],
      "name": "IncompleteSelfCloseExit",
      "type": "event"
    },
    {
      "inputs": [],
      "name": "MIN_NAT_BALANCE_AFTER_EXIT",
      "outputs": [
        {
          "internalType": "uint256",
          "name": "",
          "type": "uint256"
        }
      ],
      "stateMutability": "view",
      "type": "function"
    },
    {
      "inputs": [],
      "name": "MIN_NAT_TO_ENTER",
      "outputs": [
        {
          "internalType": "uint256",
          "name": "",
          "type": "uint256"
        }
      ],
      "stateMutability": "view",
      "type": "function"
    },
    {
      "inputs": [],
      "name": "MIN_TOKEN_SUPPLY_AFTER_EXIT",
      "outputs": [
        {
          "internalType": "uint256",
          "name": "",
          "type": "uint256"
        }
      ],
      "stateMutability": "view",
      "type": "function"
    },
    {
      "inputs": [],
      "name": "agentVault",
      "outputs": [
        {
          "internalType": "address",
          "name": "",
          "type": "address"
        }
      ],
      "stateMutability": "view",
      "type": "function"
    },
    {
      "inputs": [],
      "name": "assetManager",
      "outputs": [
        {
          "internalType": "contract IIAssetManager",
          "name": "",
          "type": "address"
        }
      ],
      "stateMutability": "view",
      "type": "function"
    },
    {
      "inputs": [
        {
          "internalType": "contract IDistributionToDelegators",
          "name": "_distribution",
          "type": "address"
        },
        {
          "internalType": "uint256",
          "name": "_month",
          "type": "uint256"
        }
      ],
      "name": "claimAirdropDistribution",
      "outputs": [
        {
          "internalType": "uint256",
          "name": "",
          "type": "uint256"
        }
      ],
      "stateMutability": "nonpayable",
      "type": "function"
    },
    {
      "inputs": [
        {
          "internalType": "contract IFtsoRewardManager",
          "name": "_ftsoRewardManager",
          "type": "address"
        },
        {
          "internalType": "uint256",
          "name": "_lastRewardEpoch",
          "type": "uint256"
        }
      ],
      "name": "claimFtsoRewards",
      "outputs": [
        {
          "internalType": "uint256",
          "name": "",
          "type": "uint256"
        }
      ],
      "stateMutability": "nonpayable",
      "type": "function"
    },
    {
      "inputs": [
        {
          "internalType": "address",
          "name": "_account",
          "type": "address"
        }
      ],
      "name": "debtFreeTokensOf",
      "outputs": [
        {
          "internalType": "uint256",
          "name": "",
          "type": "uint256"
        }
      ],
      "stateMutability": "view",
      "type": "function"
    },
    {
      "inputs": [
        {
          "internalType": "address",
          "name": "_account",
          "type": "address"
        }
      ],
      "name": "debtLockedTokensOf",
      "outputs": [
        {
          "internalType": "uint256",
          "name": "",
          "type": "uint256"
        }
      ],
      "stateMutability": "view",
      "type": "function"
    },
    {
      "inputs": [
        {
          "internalType": "address",
          "name": "_to",
          "type": "address"
        },
        {
          "internalType": "uint256",
          "name": "_bips",
          "type": "uint256"
        }
      ],
      "name": "delegate",
      "outputs": [],
      "stateMutability": "nonpayable",
      "type": "function"
    },
    {
      "inputs": [
        {
          "internalType": "address",
          "name": "_to",
          "type": "address"
        }
      ],
      "name": "delegateGovernance",
      "outputs": [],
      "stateMutability": "nonpayable",
      "type": "function"
    },
    {
      "inputs": [],
      "name": "depositNat",
      "outputs": [],
      "stateMutability": "payable",
      "type": "function"
    },
    {
      "inputs": [
        {
          "internalType": "address payable",
          "name": "_recipient",
          "type": "address"
        }
      ],
      "name": "destroy",
      "outputs": [],
      "stateMutability": "nonpayable",
      "type": "function"
    },
    {
      "inputs": [
        {
          "internalType": "uint256",
          "name": "_fAssets",
          "type": "uint256"
        },
        {
          "internalType": "bool",
          "name": "_enterWithFullFAssets",
          "type": "bool"
        }
      ],
      "name": "enter",
      "outputs": [],
      "stateMutability": "payable",
      "type": "function"
    },
    {
      "inputs": [
        {
          "internalType": "uint256",
          "name": "_tokenShare",
          "type": "uint256"
        },
        {
          "internalType": "enum ICollateralPool.TokenExitType",
          "name": "_exitType",
          "type": "uint8"
        }
      ],
      "name": "exit",
      "outputs": [
        {
          "internalType": "uint256",
          "name": "",
          "type": "uint256"
        },
        {
          "internalType": "uint256",
          "name": "",
          "type": "uint256"
        }
      ],
      "stateMutability": "nonpayable",
      "type": "function"
    },
    {
      "inputs": [],
      "name": "exitCollateralRatioBIPS",
      "outputs": [
        {
          "internalType": "uint32",
          "name": "",
          "type": "uint32"
        }
      ],
      "stateMutability": "view",
      "type": "function"
    },
    {
      "inputs": [],
      "name": "fAsset",
      "outputs": [
        {
          "internalType": "contract IERC20",
          "name": "",
          "type": "address"
        }
      ],
      "stateMutability": "view",
      "type": "function"
    },
    {
      "inputs": [
        {
          "internalType": "address",
          "name": "_account",
          "type": "address"
        }
      ],
      "name": "fAssetFeeDebtOf",
      "outputs": [
        {
          "internalType": "uint256",
          "name": "",
          "type": "uint256"
        }
      ],
      "stateMutability": "view",
      "type": "function"
    },
    {
      "inputs": [
        {
          "internalType": "uint256",
          "name": "_amount",
          "type": "uint256"
        }
      ],
      "name": "fAssetFeeDeposited",
      "outputs": [],
      "stateMutability": "nonpayable",
      "type": "function"
    },
    {
      "inputs": [
        {
          "internalType": "address",
          "name": "_account",
          "type": "address"
        }
      ],
      "name": "fAssetFeesOf",
      "outputs": [
        {
          "internalType": "uint256",
          "name": "",
          "type": "uint256"
        }
      ],
      "stateMutability": "view",
      "type": "function"
    },
    {
      "inputs": [
        {
          "internalType": "uint256",
          "name": "_tokenAmountWei",
          "type": "uint256"
        }
      ],
      "name": "fAssetRequiredForSelfCloseExit",
      "outputs": [
        {
          "internalType": "uint256",
          "name": "",
          "type": "uint256"
        }
      ],
      "stateMutability": "view",
      "type": "function"
    },
    {
      "inputs": [
        {
          "internalType": "contract IDistributionToDelegators",
          "name": "_distribution",
          "type": "address"
        }
      ],
      "name": "optOutOfAirdrop",
      "outputs": [],
      "stateMutability": "nonpayable",
      "type": "function"
    },
    {
      "inputs": [
        {
          "internalType": "uint256",
          "name": "_fAssets",
          "type": "uint256"
        }
      ],
      "name": "payFAssetFeeDebt",
      "outputs": [],
      "stateMutability": "nonpayable",
      "type": "function"
    },
    {
      "inputs": [
        {
          "internalType": "address",
          "name": "_recipient",
          "type": "address"
        },
        {
          "internalType": "uint256",
          "name": "_amount",
          "type": "uint256"
        },
        {
          "internalType": "uint256",
          "name": "_agentResponsibilityWei",
          "type": "uint256"
        }
      ],
      "name": "payout",
      "outputs": [],
      "stateMutability": "nonpayable",
      "type": "function"
    },
    {
      "inputs": [],
      "name": "poolToken",
      "outputs": [
        {
          "internalType": "contract ICollateralPoolToken",
          "name": "",
          "type": "address"
        }
      ],
      "stateMutability": "view",
      "type": "function"
    },
    {
      "inputs": [
        {
          "internalType": "address",
          "name": "_who",
          "type": "address"
        },
        {
          "internalType": "uint256",
          "name": "_blockNumber",
          "type": "uint256"
        }
      ],
      "name": "revokeDelegationAt",
      "outputs": [],
      "stateMutability": "nonpayable",
      "type": "function"
    },
    {
      "inputs": [
        {
          "internalType": "uint256",
          "name": "_tokenShare",
          "type": "uint256"
        },
        {
          "internalType": "bool",
          "name": "_redeemToCollateral",
          "type": "bool"
        },
        {
          "internalType": "string",
          "name": "_redeemerUnderlyingAddress",
          "type": "string"
        }
      ],
      "name": "selfCloseExit",
      "outputs": [],
      "stateMutability": "nonpayable",
      "type": "function"
    },
    {
      "inputs": [
        {
          "internalType": "uint256",
          "name": "_exitCollateralRatioBIPS",
          "type": "uint256"
        }
      ],
      "name": "setExitCollateralRatioBIPS",
      "outputs": [],
      "stateMutability": "nonpayable",
      "type": "function"
    },
    {
      "inputs": [
        {
          "internalType": "address",
          "name": "_poolToken",
          "type": "address"
        }
      ],
      "name": "setPoolToken",
      "outputs": [],
      "stateMutability": "nonpayable",
      "type": "function"
    },
    {
      "inputs": [
        {
          "internalType": "uint256",
          "name": "_topupCollateralRatioBIPS",
          "type": "uint256"
        }
      ],
      "name": "setTopupCollateralRatioBIPS",
      "outputs": [],
      "stateMutability": "nonpayable",
      "type": "function"
    },
    {
      "inputs": [
        {
          "internalType": "uint256",
          "name": "_topupTokenPriceFactorBIPS",
          "type": "uint256"
        }
      ],
      "name": "setTopupTokenPriceFactorBIPS",
      "outputs": [],
      "stateMutability": "nonpayable",
      "type": "function"
    },
    {
      "inputs": [
        {
          "internalType": "bytes4",
          "name": "_interfaceId",
          "type": "bytes4"
        }
      ],
      "name": "supportsInterface",
      "outputs": [
        {
          "internalType": "bool",
          "name": "",
          "type": "bool"
        }
      ],
      "stateMutability": "pure",
      "type": "function"
    },
    {
      "inputs": [],
      "name": "token",
      "outputs": [
        {
          "internalType": "contract IICollateralPoolToken",
          "name": "",
          "type": "address"
        }
      ],
      "stateMutability": "view",
      "type": "function"
    },
    {
      "inputs": [],
      "name": "topupCollateralRatioBIPS",
      "outputs": [
        {
          "internalType": "uint32",
          "name": "",
          "type": "uint32"
        }
      ],
      "stateMutability": "view",
      "type": "function"
    },
    {
      "inputs": [],
      "name": "topupTokenPriceFactorBIPS",
      "outputs": [
        {
          "internalType": "uint16",
          "name": "",
          "type": "uint16"
        }
      ],
      "stateMutability": "view",
      "type": "function"
    },
    {
      "inputs": [],
      "name": "totalCollateral",
      "outputs": [
        {
          "internalType": "uint256",
          "name": "",
          "type": "uint256"
        }
      ],
      "stateMutability": "view",
      "type": "function"
    },
    {
      "inputs": [],
      "name": "totalFAssetFeeDebt",
      "outputs": [
        {
          "internalType": "uint256",
          "name": "",
          "type": "uint256"
        }
      ],
      "stateMutability": "view",
      "type": "function"
    },
    {
      "inputs": [],
      "name": "totalFAssetFees",
      "outputs": [
        {
          "internalType": "uint256",
          "name": "",
          "type": "uint256"
        }
      ],
      "stateMutability": "view",
      "type": "function"
    },
    {
      "inputs": [],
      "name": "undelegateAll",
      "outputs": [],
      "stateMutability": "nonpayable",
      "type": "function"
    },
    {
      "inputs": [],
      "name": "undelegateGovernance",
      "outputs": [],
      "stateMutability": "nonpayable",
      "type": "function"
    },
    {
      "inputs": [
        {
          "internalType": "contract IWNat",
          "name": "_newWNat",
          "type": "address"
        }
      ],
      "name": "upgradeWNatContract",
      "outputs": [],
      "stateMutability": "nonpayable",
      "type": "function"
    },
    {
      "inputs": [
        {
          "internalType": "address",
          "name": "_account",
          "type": "address"
        }
      ],
      "name": "virtualFAssetOf",
      "outputs": [
        {
          "internalType": "uint256",
          "name": "",
          "type": "uint256"
        }
      ],
      "stateMutability": "view",
      "type": "function"
    },
    {
      "inputs": [],
      "name": "wNat",
      "outputs": [
        {
          "internalType": "contract IWNat",
          "name": "",
          "type": "address"
        }
      ],
      "stateMutability": "view",
      "type": "function"
    },
    {
      "inputs": [],
      "name": "withdrawCollateralWhenFAssetTerminated",
      "outputs": [],
      "stateMutability": "nonpayable",
      "type": "function"
    },
    {
      "inputs": [
        {
          "internalType": "uint256",
          "name": "_fAssets",
          "type": "uint256"
        }
      ],
      "name": "withdrawFees",
      "outputs": [],
      "stateMutability": "nonpayable",
      "type": "function"
    },
    {
      "stateMutability": "payable",
      "type": "receive"
    }
  ],
  "bytecode": "0x60e06040523480156200001157600080fd5b5060405162004b2438038062004b2483398101604081905262000034916200015a565b60016000556001600160a01b0380871660805285811660a081905290851660c05260408051635ad2445360e11b8152905163b5a488a6916004808201926020929091908290030181865afa15801562000091573d6000803e3d6000fd5b505050506040513d601f19601f82011682018060405250810190620000b79190620001ed565b6002805461ffff909316600160e01b0261ffff60e01b1963ffffffff958616600160c01b021665ffffffffffff60c01b1995909616600160a01b026001600160c01b03199094166001600160a01b0393909316929092179290921792909216929092171790555062000214915050565b6001600160a01b03811681146200013d57600080fd5b50565b805163ffffffff811681146200015557600080fd5b919050565b60008060008060008060c087890312156200017457600080fd5b8651620001818162000127565b6020880151909650620001948162000127565b6040880151909550620001a78162000127565b9350620001b76060880162000140565b9250620001c76080880162000140565b915060a087015161ffff81168114620001df57600080fd5b809150509295509295509295565b6000602082840312156200020057600080fd5b81516200020d8162000127565b9392505050565b60805160a05160c0516147cf620003556000396000818161053d01528181610b5901528181610bf6015281816116ec0152818161178201528181612462015281816129ac01528181612ddb01528181613ae90152613b350152600081816106280152818161088801528181611155015281816114e1015281816117b40152818161188f0152818161190701528181611c6501528181611f73015281816120780152818161216c015281816125630152818161269a01528181612cc201528181612eef015281816130ec01528181613312015281816133cb0152613517015260008181610589015281816114b60152818161185a01528181611934015281816125330152818161270f015281816127c9015281816127f801528181612846015281816128a4015281816130bc015281816132df01526134e901526147cf6000f3fe6080604052600436106102755760003560e01c8063923f89321161014f578063bbd6fbf8116100c1578063d1b8890e1161007a578063d1b8890e146107f5578063ee781db0146107fd578063f4d000b21461081d578063fbebcadf14610440578063fc0c546a1461083d578063fd86d3ea1461085d57600080fd5b8063bbd6fbf81461072b578063c1b0bbf81461074b578063c79d245d1461076b578063cb2094131461078b578063cbabdf39146107c1578063cbdf382c146107d757600080fd5b8063ac3736c111610113578063ac3736c1146106aa578063adf58c15146106bd578063b302f393146106dd578063b337929b146106f2578063b9e2648314610348578063ba133b871461071657600080fd5b8063923f89321461060057806394217ad1146106165780639a4247e61461064a5780639edbf0071461066a578063a854a6a21461068a57600080fd5b80634a4ac2ef116101e85780637a68a508116101ac5780637a68a5081461050b5780637c7db1a51461052b578063815ea9d61461057757806386ac57a2146105ab57806387a2a0dc146105cb57806388985cd6146105e057600080fd5b80634a4ac2ef146104605780634ac8eb5f146104955780635ca36489146104ab5780635e318e07146104cb578063787b9ca8146104eb57600080fd5b806315e2bfba1161023a57806315e2bfba146103725780631b92d84a146103925780632f35eac2146103b257806333ce01fd146103e75780633cfc747d14610407578063406c70071461044057600080fd5b8062f55d9d146102d357806301ffc9a7146102f3578063026e402b146103285780630ac07344146103485780630dc1e5e11461034857600080fd5b366102ce57600254600160f01b900460ff166102cc5760405162461bcd60e51b81526020600482015260116024820152706f6e6c7920696e7465726e616c2075736560781b60448201526064015b60405180910390fd5b005b600080fd5b3480156102df57600080fd5b506102cc6102ee36600461420c565b61087d565b3480156102ff57600080fd5b5061031361030e366004614229565b610c2c565b60405190151581526020015b60405180910390f35b34801561033457600080fd5b506102cc610343366004614253565b610c7e565b34801561035457600080fd5b50610364670de0b6b3a764000081565b60405190815260200161031f565b34801561037e57600080fd5b5061036461038d36600461420c565b610d0e565b34801561039e57600080fd5b506103646103ad36600461427f565b610da4565b3480156103be57600080fd5b506103d26103cd366004614298565b610df9565b6040805192835260208301919091520161031f565b3480156103f357600080fd5b506102cc61040236600461420c565b61114a565b34801561041357600080fd5b5060025461042b90600160a01b900463ffffffff1681565b60405163ffffffff909116815260200161031f565b34801561044c57600080fd5b5061036461045b366004614253565b611206565b34801561046c57600080fd5b5060025461048290600160e01b900461ffff1681565b60405161ffff909116815260200161031f565b3480156104a157600080fd5b5061036460065481565b3480156104b757600080fd5b506102cc6104c63660046142f0565b6112d0565b3480156104d757600080fd5b506102cc6104e636600461427f565b611b28565b3480156104f757600080fd5b506102cc61050636600461427f565b611c5a565b34801561051757600080fd5b506102cc61052636600461420c565b611d1c565b34801561053757600080fd5b5061055f7f000000000000000000000000000000000000000000000000000000000000000081565b6040516001600160a01b03909116815260200161031f565b34801561058357600080fd5b5061055f7f000000000000000000000000000000000000000000000000000000000000000081565b3480156105b757600080fd5b506102cc6105c636600461420c565b611e18565b3480156105d757600080fd5b506102cc611e78565b3480156105ec57600080fd5b506102cc6105fb36600461427f565b611f68565b34801561060c57600080fd5b5061036460045481565b34801561062257600080fd5b5061055f7f000000000000000000000000000000000000000000000000000000000000000081565b34801561065657600080fd5b506102cc61066536600461427f565b61206d565b34801561067657600080fd5b5060025461055f906001600160a01b031681565b34801561069657600080fd5b506102cc6106a536600461427f565b612161565b6102cc6106b83660046143bd565b6121c3565b3480156106c957600080fd5b506102cc6106d83660046143e2565b61268f565b3480156106e957600080fd5b506102cc61292d565b3480156106fe57600080fd5b5060025461042b90600160c01b900463ffffffff1681565b34801561072257600080fd5b506102cc6129a2565b34801561073757600080fd5b506102cc610746366004614253565b612c2b565b34801561075757600080fd5b5061036461076636600461420c565b612c89565b34801561077757600080fd5b5061036461078636600461420c565b612ca0565b34801561079757600080fd5b506103646107a636600461420c565b6001600160a01b031660009081526003602052604090205490565b3480156107cd57600080fd5b5061036460055481565b3480156107e357600080fd5b506001546001600160a01b031661055f565b6102cc612cb7565b34801561080957600080fd5b506102cc61081836600461427f565b612d07565b34801561082957600080fd5b506102cc61083836600461420c565b612ee4565b34801561084957600080fd5b5060015461055f906001600160a01b031681565b34801561086957600080fd5b5061036461087836600461420c565b61315a565b336001600160a01b037f000000000000000000000000000000000000000000000000000000000000000016146108c55760405162461bcd60e51b81526004016102c390614417565b6108cd613171565b600160009054906101000a90046001600160a01b03166001600160a01b03166318160ddd6040518163ffffffff1660e01b8152600401602060405180830381865afa158015610920573d6000803e3d6000fd5b505050506040513d601f19601f820116820180604052508101906109449190614443565b156109a25760405162461bcd60e51b815260206004820152602860248201527f63616e6e6f742064657374726f79206120706f6f6c20776974682069737375656044820152676420746f6b656e7360c01b60648201526084016102c3565b60065415610a035760405162461bcd60e51b815260206004820152602860248201527f63616e6e6f742064657374726f79206120706f6f6c20686f6c64696e6720636f6044820152671b1b185d195c985b60c21b60648201526084016102c3565b60055415610a625760405162461bcd60e51b815260206004820152602660248201527f63616e6e6f742064657374726f79206120706f6f6c20686f6c64696e6720662d60448201526561737365747360d01b60648201526084016102c3565b60015460405162f55d9d60e01b81526001600160a01b0383811660048301529091169062f55d9d90602401600060405180830381600087803b158015610aa757600080fd5b505af1158015610abb573d6000803e3d6000fd5b50505050610ac981476131ca565b6002546040516370a0823160e01b81523060048201526000916001600160a01b0316906370a0823190602401602060405180830381865afa158015610b12573d6000803e3d6000fd5b505050506040513d601f19601f82011682018060405250810190610b369190614443565b6040516370a0823160e01b81523060048201529091506000906001600160a01b037f000000000000000000000000000000000000000000000000000000000000000016906370a0823190602401602060405180830381865afa158015610ba0573d6000803e3d6000fd5b505050506040513d601f19601f82011682018060405250810190610bc49190614443565b90508115610be357600254610be3906001600160a01b03168484613265565b8015610c1d57610c1d6001600160a01b037f0000000000000000000000000000000000000000000000000000000000000000168483613265565b5050610c296001600055565b50565b60006001600160e01b031982166301ffc9a760e01b1480610c5d57506001600160e01b031982166363df061560e11b145b80610c7857506001600160e01b031982166350eb34e160e11b145b92915050565b610c87336132c8565b610ca35760405162461bcd60e51b81526004016102c39061445c565b60025460405163026e402b60e01b81526001600160a01b038481166004830152602482018490529091169063026e402b906044015b600060405180830381600087803b158015610cf257600080fd5b505af1158015610d06573d6000803e3d6000fd5b505050505050565b600080610d1961337f565b6001546040516370a0823160e01b81526001600160a01b038681166004830152929350610d9d92909116906370a0823190602401602060405180830381865afa158015610d6a573d6000803e3d6000fd5b505050506040513d601f19601f82011682018060405250810190610d8e9190614443565b610d9883866135b9565b6136ad565b9392505050565b600080610daf61337f565b80516040820151919250600091610dc79186906136c7565b90506000610dd583836137ed565b90506000610de38433613894565b9050610def82826136ad565b9695505050505050565b600080610e04613171565b60008411610e4a5760405162461bcd60e51b8152602060048201526013602482015272746f6b656e207368617265206973207a65726f60681b60448201526064016102c3565b6001546040516370a0823160e01b81523360048201526001600160a01b03909116906370a0823190602401602060405180830381865afa158015610e92573d6000803e3d6000fd5b505050506040513d601f19601f82011682018060405250810190610eb69190614443565b841115610efd5760405162461bcd60e51b8152602060048201526015602482015274746f6b656e2062616c616e636520746f6f206c6f7760581b60448201526064016102c3565b6000610f0761337f565b8051909150851480610f2e57508051670de0b6b3a764000090610f2b908790614496565b10155b610f4a5760405162461bcd60e51b81526004016102c3906144a9565b60408101518151600091610f60918891906136c7565b905060008111610f825760405162461bcd60e51b81526004016102c3906144fd565b8082604001511480610fab5750670de0b6b3a7640000818360400151610fa89190614496565b10155b610fc75760405162461bcd60e51b81526004016102c39061453f565b600254610fe49083908390600160a01b900463ffffffff166138dd565b61103c5760405162461bcd60e51b815260206004820152602360248201527f636f6c6c61746572616c20726174696f2066616c6c732062656c6f77206578696044820152623a21a960e91b60648201526084016102c3565b60008061104b84338a8a613926565b9092509050801561106157611061303383613aae565b8115611071576110713383613b5d565b6001546040516376fd4fdf60e01b81526001600160a01b03909116906376fd4fdf906110a69033908c90600090600401614591565b600060405180830381600087803b1580156110c057600080fd5b505af11580156110d4573d6000803e3d6000fd5b505050506110e23384613ba7565b3360008181526003602090815260408083205481518d81529283018890529082018590526060820192909252608081019190915260008051602061477a8339815191529060a00160405180910390a291945090925050506111436001600055565b9250929050565b336001600160a01b037f000000000000000000000000000000000000000000000000000000000000000016146111925760405162461bcd60e51b81526004016102c390614417565b6001546001600160a01b0316156111e45760405162461bcd60e51b81526020600482015260166024820152751c1bdbdb081d1bdad95b88185b1c9958591e481cd95d60521b60448201526064016102c3565b600180546001600160a01b0319166001600160a01b0392909216919091179055565b6000611211336132c8565b61122d5760405162461bcd60e51b81526004016102c39061445c565b60405163596090c960e11b81523060048201819052602482015260448101839052600160648201526000906001600160a01b0385169063b2c12192906084016020604051808303816000875af115801561128b573d6000803e3d6000fd5b505050506040513d601f19601f820116820180604052508101906112af9190614443565b905080600660008282546112c391906145b4565b9091555090949350505050565b6112d8613171565b6000831161131e5760405162461bcd60e51b8152602060048201526013602482015272746f6b656e207368617265206973207a65726f60681b60448201526064016102c3565b6001546040516370a0823160e01b81523360048201526000916001600160a01b0316906370a0823190602401602060405180830381865afa158015611367573d6000803e3d6000fd5b505050506040513d601f19601f8201168201806040525081019061138b9190614443565b9050808411156113d55760405162461bcd60e51b8152602060048201526015602482015274746f6b656e2062616c616e636520746f6f206c6f7760581b60448201526064016102c3565b60006113df61337f565b805190915085148061140657508051670de0b6b3a764000090611403908790614496565b10155b6114225760405162461bcd60e51b81526004016102c3906144a9565b80516040820151600091611438919088906136c7565b90506000811161145a5760405162461bcd60e51b81526004016102c3906144fd565b80826040015114806114835750670de0b6b3a76400008183604001516114809190614496565b10155b61149f5760405162461bcd60e51b81526004016102c39061453f565b604051631e8bee0160e01b81526001600160a01b037f0000000000000000000000000000000000000000000000000000000000000000811660048301526000917f000000000000000000000000000000000000000000000000000000000000000090911690631e8bee0190602401602060405180830381865afa15801561152a573d6000803e3d6000fd5b505050506040513d601f19601f8201168201806040525081019061154e9190614443565b9050600061155c84846137ed565b90508082101561168e5750806115728482613bdb565b9250600083116115fa5760405162461bcd60e51b815260206004820152604760248201527f616d6f756e74206f662073656e7420746f6b656e7320697320746f6f20736d6160448201527f6c6c206166746572206167656e74206d617820726564656d70746f6e20636f726064820152663932b1ba34b7b760c91b608482015260a4016102c3565b82846040015114806116235750670de0b6b3a76400008385604001516116209190614496565b10155b61163f5760405162461bcd60e51b81526004016102c39061453f565b604084015184516116519185906136c7565b60408051828152602081018490529199507f7543f09ac709677c25f5aa8284e92f885eae7c7496789dd47cf87e28e5a1cf1c910160405180910390a15b600061169a8533613894565b90506000806116ac87338d6000613926565b91509150838310156117ac5760006116c48486614496565b604051636eb1769f60e11b815233600482015230602482015290915081906001600160a01b037f0000000000000000000000000000000000000000000000000000000000000000169063dd62ed3e90604401602060405180830381865afa158015611733573d6000803e3d6000fd5b505050506040513d601f19601f820116820180604052508101906117579190614443565b10156117755760405162461bcd60e51b81526004016102c3906145c7565b6117aa6001600160a01b037f000000000000000000000000000000000000000000000000000000000000000016333084613c5d565b505b8315611995577f00000000000000000000000000000000000000000000000000000000000000006001600160a01b0316634942f65f6040518163ffffffff1660e01b8152600401602060405180830381865afa158015611810573d6000803e3d6000fd5b505050506040513d601f19601f820116820180604052508101906118349190614443565b84108061183e5750895b156118f057604051630ed000b360e41b81526001600160a01b037f000000000000000000000000000000000000000000000000000000000000000081166004830152336024830152604482018690527f0000000000000000000000000000000000000000000000000000000000000000169063ed000b3090606401600060405180830381600087803b1580156118d357600080fd5b505af11580156118e7573d6000803e3d6000fd5b50505050611995565b60405163f060b3f160e01b81526001600160a01b037f0000000000000000000000000000000000000000000000000000000000000000169063f060b3f190611962907f000000000000000000000000000000000000000000000000000000000000000090339089908f9060040161464e565b600060405180830381600087803b15801561197c57600080fd5b505af1158015611990573d6000803e3d6000fd5b505050505b60006119a18585613c95565b905080156119f35780600560008282546119bb9190614496565b909155506119cb90503382613cab565b60006119d78284613c95565b90506119e38184614496565b92506119ef81856145b4565b9350505b8115611a0457611a04303384613aae565b8215611a1457611a143384613b5d565b600160009054906101000a90046001600160a01b03166001600160a01b03166376fd4fdf338e60006040518463ffffffff1660e01b8152600401611a5a93929190614591565b600060405180830381600087803b158015611a7457600080fd5b505af1158015611a88573d6000803e3d6000fd5b50505050611a963388613ba7565b336001600160a01b031660008051602061477a8339815191528d89848960036000336001600160a01b03166001600160a01b0316815260200190815260200160002054604051611b08959493929190948552602085019390935260408401919091526060830152608082015260a00190565b60405180910390a2505050505050505050611b236001600055565b505050565b611b30613171565b60008111611b805760405162461bcd60e51b815260206004820181905260248201527f747279696e6720746f207769746864726177207a65726f20662d61737365747360448201526064016102c3565b6000611b8a61337f565b90506000611b988233613894565b905080831115611bea5760405162461bcd60e51b815260206004820152601e60248201527f6672656520662d61737365742062616c616e636520746f6f20736d616c6c000060448201526064016102c3565b611bf43384613cab565b611bff303385613aae565b3360008181526003602090815260408083205481518481529283018490529082018590526060820192909252608081019190915260008051602061477a8339815191529060a00160405180910390a25050610c296001600055565b336001600160a01b037f00000000000000000000000000000000000000000000000000000000000000001614611ca25760405162461bcd60e51b81526004016102c390614417565b600254600160c01b900463ffffffff168111611cf05760405162461bcd60e51b815260206004820152600d60248201526c76616c756520746f6f206c6f7760981b60448201526064016102c3565b611cf981613cec565b600260146101000a81548163ffffffff021916908363ffffffff16021790555050565b611d25336132c8565b611d415760405162461bcd60e51b81526004016102c39061445c565b600260009054906101000a90046001600160a01b03166001600160a01b0316638c2b8ae16040518163ffffffff1660e01b8152600401602060405180830381865afa158015611d94573d6000803e3d6000fd5b505050506040513d601f19601f82011682018060405250810190611db89190614681565b6040516317066a5760e21b81526001600160a01b0383811660048301529190911690635c19a95c90602401600060405180830381600087803b158015611dfd57600080fd5b505af1158015611e11573d6000803e3d6000fd5b5050505050565b611e21336132c8565b611e3d5760405162461bcd60e51b81526004016102c39061445c565b806001600160a01b031663f2a1f7676040518163ffffffff1660e01b8152600401600060405180830381600087803b158015611dfd57600080fd5b611e81336132c8565b611e9d5760405162461bcd60e51b81526004016102c39061445c565b600260009054906101000a90046001600160a01b03166001600160a01b0316638c2b8ae16040518163ffffffff1660e01b8152600401602060405180830381865afa158015611ef0573d6000803e3d6000fd5b505050506040513d601f19601f82011682018060405250810190611f149190614681565b6001600160a01b03166392ab89bb6040518163ffffffff1660e01b8152600401600060405180830381600087803b158015611f4e57600080fd5b505af1158015611f62573d6000803e3d6000fd5b50505050565b336001600160a01b037f00000000000000000000000000000000000000000000000000000000000000001614611fb05760405162461bcd60e51b81526004016102c390614417565b600254600160a01b900463ffffffff168110611fff5760405162461bcd60e51b815260206004820152600e60248201526d0ecc2d8eaca40e8dede40d0d2ced60931b60448201526064016102c3565b600081116120415760405162461bcd60e51b815260206004820152600f60248201526e6d757374206265206e6f6e7a65726f60881b60448201526064016102c3565b61204a81613cec565b600260186101000a81548163ffffffff021916908363ffffffff16021790555050565b336001600160a01b037f000000000000000000000000000000000000000000000000000000000000000016146120b55760405162461bcd60e51b81526004016102c390614417565b61271081106120f75760405162461bcd60e51b815260206004820152600e60248201526d0ecc2d8eaca40e8dede40d0d2ced60931b60448201526064016102c3565b600081116121395760405162461bcd60e51b815260206004820152600f60248201526e6d757374206265206e6f6e7a65726f60881b60448201526064016102c3565b61214281613d55565b6002601c6101000a81548161ffff021916908361ffff16021790555050565b336001600160a01b037f000000000000000000000000000000000000000000000000000000000000000016146121a95760405162461bcd60e51b81526004016102c390614417565b80600560008282546121bb91906145b4565b909155505050565b6121cb613171565b60006121d561337f565b90506103e881604001516121e9919061469e565b815111156122395760405162461bcd60e51b815260206004820152601a60248201527f706f6f6c206e61742062616c616e636520746f6f20736d616c6c00000000000060448201526064016102c3565b670de0b6b3a76400003410156122915760405162461bcd60e51b815260206004820152601d60248201527f616d6f756e74206f66206e61742073656e7420697320746f6f206c6f7700000060448201526064016102c3565b80516000036123ef57806040015134101561233a5760405162461bcd60e51b815260206004820152606060248201527f696620706f6f6c20686173206e6f20746f6b656e732c2062757420686f6c647360448201527f20636f6c6c61746572616c2c20796f75206e65656420746f2073656e6420617460648201527f206c65617374207468617420616d6f756e74206f6620636f6c6c61746572616c608482015260a4016102c3565b60a081015160c082015160608301516123549290916136c7565b3410156123ef5760405162461bcd60e51b815260206004820152605f60248201527f496620706f6f6c20686173206e6f20746f6b656e732c2062757420686f6c647360448201527f20662d61737365742c20796f75206e65656420746f2073656e64206174206c6560648201527f61737420662d617373657420776f727468206f6620636f6c6c61746572616c00608482015260a4016102c3565b60006123fb8234613db8565b9050600080836000015111612411576000612423565b825160808401516124239184906136c7565b905060008461243b576124368683613c95565b61243d565b815b905080156124fe57604051636eb1769f60e11b815233600482015230602482015281907f00000000000000000000000000000000000000000000000000000000000000006001600160a01b03169063dd62ed3e90604401602060405180830381865afa1580156124b1573d6000803e3d6000fd5b505050506040513d601f19601f820116820180604052508101906124d59190614443565b10156124f35760405162461bcd60e51b81526004016102c3906145c7565b6124fe333083613aae565b6125113361250c8385614496565b613cab565b612519613efc565b60025460405163053fe26160e31b81526001600160a01b037f00000000000000000000000000000000000000000000000000000000000000008116600483015291821660248201527f0000000000000000000000000000000000000000000000000000000000000000909116906329ff130890604401600060405180830381600087803b1580156125a957600080fd5b505af11580156125bd573d6000803e3d6000fd5b50506001546040516340c10f1960e01b8152336004820152602481018790526001600160a01b0390911692506340c10f199150604401600060405180830381600087803b15801561260d57600080fd5b505af1158015612621573d6000803e3d6000fd5b505033600081815260036020908152604091829020548251348152918201899052818301879052606082015290519193507f10c59f3cddf004f5818f1b2686e0989916941d9892d1dff705ea5794a5a5b33f925081900360800190a25050505061268b6001600055565b5050565b336001600160a01b037f000000000000000000000000000000000000000000000000000000000000000016146126d75760405162461bcd60e51b81526004016102c390614417565b6126df613171565b60006126e961337f565b90506126f58484613ba7565b6001546040516370a0823160e01b81526001600160a01b037f00000000000000000000000000000000000000000000000000000000000000008116600483015260009216906370a0823190602401602060405180830381865afa158015612760573d6000803e3d6000fd5b505050506040513d601f19601f820116820180604052508101906127849190614443565b905060008083604001511161279957816127ab565b604083015183516127ab9186906136c7565b905060006127b98284613c95565b9050801561291f5760006127f0857f0000000000000000000000000000000000000000000000000000000000000000846002613926565b50905061281d7f000000000000000000000000000000000000000000000000000000000000000082613b5d565b600180546040516376fd4fdf60e01b81526001600160a01b03909116916376fd4fdf91612871917f000000000000000000000000000000000000000000000000000000000000000091879190600401614591565b600060405180830381600087803b15801561288b57600080fd5b505af115801561289f573d6000803e3d6000fd5b5050507f00000000000000000000000000000000000000000000000000000000000000006001600160a01b031660008181526003602090815260408083205481518881529283018490529082018390526060820192909252608081019190915290915060008051602061477a8339815191529060a00160405180910390a2505b50505050611b236001600055565b612936336132c8565b6129525760405162461bcd60e51b81526004016102c39061445c565b600260009054906101000a90046001600160a01b03166001600160a01b031663b302f3936040518163ffffffff1660e01b8152600401600060405180830381600087803b158015611f4e57600080fd5b6129aa613171565b7f00000000000000000000000000000000000000000000000000000000000000006001600160a01b031663194307bf6040518163ffffffff1660e01b8152600401602060405180830381865afa158015612a08573d6000803e3d6000fd5b505050506040513d601f19601f82011682018060405250810190612a2c91906146b5565b612a715760405162461bcd60e51b8152602060048201526016602482015275198b585cdcd95d081b9bdd081d195c9b5a5b985d195960521b60448201526064016102c3565b6001546040516370a0823160e01b81523360048201526000916001600160a01b0316906370a0823190602401602060405180830381865afa158015612aba573d6000803e3d6000fd5b505050506040513d601f19601f82011682018060405250810190612ade9190614443565b905060008111612b265760405162461bcd60e51b81526020600482015260136024820152726e6f7468696e6720746f20776974686472617760681b60448201526064016102c3565b6000612bad600654600160009054906101000a90046001600160a01b03166001600160a01b03166318160ddd6040518163ffffffff1660e01b8152600401602060405180830381865afa158015612b81573d6000803e3d6000fd5b505050506040513d601f19601f82011682018060405250810190612ba59190614443565b8491906136c7565b600180546040516376fd4fdf60e01b81529293506001600160a01b0316916376fd4fdf91612be19133918791600401614591565b600060405180830381600087803b158015612bfb57600080fd5b505af1158015612c0f573d6000803e3d6000fd5b50505050612c1d3382613ba7565b5050612c296001600055565b565b612c34336132c8565b612c505760405162461bcd60e51b81526004016102c39061445c565b60025460405163177adf7f60e31b81526001600160a01b038481166004830152602482018490529091169063bbd6fbf890604401610cd8565b600080612c9461337f565b9050610d9d8184613894565b600080612cab61337f565b9050610d9d81846135b9565b336001600160a01b037f00000000000000000000000000000000000000000000000000000000000000001614612cff5760405162461bcd60e51b81526004016102c390614417565b612c29613efc565b612d0f613171565b80600003612d5f5760405162461bcd60e51b815260206004820152601960248201527f7a65726f20662d61737365742064656274207061796d656e740000000000000060448201526064016102c3565b33600090815260036020526040902054811115612dbe5760405162461bcd60e51b815260206004820152601e60248201527f6465627420662d61737365742062616c616e636520746f6f20736d616c6c000060448201526064016102c3565b604051636eb1769f60e11b815233600482015230602482015281907f00000000000000000000000000000000000000000000000000000000000000006001600160a01b03169063dd62ed3e90604401602060405180830381865afa158015612e2a573d6000803e3d6000fd5b505050506040513d601f19601f82011682018060405250810190612e4e9190614443565b1015612e6c5760405162461bcd60e51b81526004016102c3906145c7565b612e763382613b5d565b612e81333083613aae565b33600081815260036020908152604080832054815184815292830193909352810184905260608101919091527f10c59f3cddf004f5818f1b2686e0989916941d9892d1dff705ea5794a5a5b33f9060800160405180910390a2610c296001600055565b336001600160a01b037f00000000000000000000000000000000000000000000000000000000000000001614612f2c5760405162461bcd60e51b81526004016102c390614417565b612f34613171565b6002546001600160a01b03828116911614613150576002546040516370a0823160e01b81523060048201526000916001600160a01b0316906370a0823190602401602060405180830381865afa158015612f92573d6000803e3d6000fd5b505050506040513d601f19601f82011682018060405250810190612fb69190614443565b60028054600160f01b60ff60f01b19821617909155604051632e1a7d4d60e01b8152600481018390529192506001600160a01b031690632e1a7d4d90602401600060405180830381600087803b15801561300f57600080fd5b505af1158015613023573d6000803e3d6000fd5b50506002805460ff60f01b19169055505060408051630d0e30db60e41b815290516001600160a01b0384169163d0e30db091849160048082019260009290919082900301818588803b15801561307857600080fd5b505af115801561308c573d6000803e3d6000fd5b5050600280546001600160a01b0319166001600160a01b0387811691821790925560405163053fe26160e31b81527f00000000000000000000000000000000000000000000000000000000000000008316600482015260248101919091527f000000000000000000000000000000000000000000000000000000000000000090911693506329ff130892506044019050600060405180830381600087803b15801561313657600080fd5b505af115801561314a573d6000803e3d6000fd5b50505050505b610c296001600055565b60008061316561337f565b9050610d9d8184613f60565b6002600054036131c35760405162461bcd60e51b815260206004820152601f60248201527f5265656e7472616e637947756172643a207265656e7472616e742063616c6c0060448201526064016102c3565b6002600055565b801561268b576000826001600160a01b03168260405160006040518083038185875af1925050503d806000811461321d576040519150601f19603f3d011682016040523d82523d6000602084013e613222565b606091505b5050905080611b235760405162461bcd60e51b815260206004820152600f60248201526e1d1c985b9cd9995c8819985a5b1959608a1b60448201526064016102c3565b6040516001600160a01b038316602482015260448101829052611b2390849063a9059cbb60e01b906064015b60408051601f198184030181529190526020810180516001600160e01b03166001600160e01b031990931692909217909152614000565b60405163d6b93a9f60e01b81526001600160a01b037f00000000000000000000000000000000000000000000000000000000000000008116600483015282811660248301526000917f00000000000000000000000000000000000000000000000000000000000000009091169063d6b93a9f90604401602060405180830381865afa15801561335b573d6000803e3d6000fd5b505050506040513d601f19601f82011682018060405250810190610c7891906146b5565b6133bf6040518060e00160405280600081526020016000815260200160008152602001600081526020016000815260200160008152602001600081525090565b600060055490506000807f00000000000000000000000000000000000000000000000000000000000000006001600160a01b03166302312aec6040518163ffffffff1660e01b81526004016040805180830381865afa158015613426573d6000803e3d6000fd5b505050506040513d601f19601f8201168201806040525081019061344a91906146d2565b915091506040518060e00160405280600160009054906101000a90046001600160a01b03166001600160a01b03166318160ddd6040518163ffffffff1660e01b8152600401602060405180830381865afa1580156134ac573d6000803e3d6000fd5b505050506040513d601f19601f820116820180604052508101906134d09190614443565b815260405163769bb15560e11b81526001600160a01b037f0000000000000000000000000000000000000000000000000000000000000000811660048301526020909201917f0000000000000000000000000000000000000000000000000000000000000000169063ed3762aa90602401602060405180830381865afa15801561355e573d6000803e3d6000fd5b505050506040513d601f19601f820116820180604052508101906135829190614443565b81526020016006548152602001848152602001600454856135a391906145b4565b8152602081019390935260409092015292915050565b6001546040516370a0823160e01b81526001600160a01b03838116600483015260009283929116906370a0823190602401602060405180830381865afa158015613607573d6000803e3d6000fd5b505050506040513d601f19601f8201168201806040525081019061362b9190614443565b90508060000361363f576000915050610c78565b6001600160a01b0383166000908152600360205260408120549081900361366857509050610c78565b8451608086015160009161367e919085906136c7565b9050600061368c82846136ad565b608088015188519192506136a2919083906136c7565b979650505050505050565b60008183116136bd576000610d9d565b610d9d8284614496565b600080821161370b5760405162461bcd60e51b815260206004820152601060248201526f4469766973696f6e206279207a65726f60801b60448201526064016102c3565b8360000361371b57506000610d9d565b8383028385828161372e5761372e6146f6565b040361374c57828181613743576137436146f6565b04915050610d9d565b506000613759838661470c565b905060006137678487614720565b90506000613775858761470c565b905060006137838688614720565b905085613790828561469e565b61379a919061470c565b6137a4838561469e565b6137ae838761469e565b886137b9868961469e565b6137c3919061469e565b6137cd91906145b4565b6137d791906145b4565b6137e191906145b4565b98975050505050505050565b60025460009061380d9084908390600160a01b900463ffffffff166138dd565b1561387f576138788360200151600260149054906101000a900463ffffffff1663ffffffff168560a00151613842919061469e565b6127108587604001516138559190614496565b8760c00151613864919061469e565b61386e919061469e565b610d98919061470c565b9050610c78565b604083015160208401516138789184906136c7565b6000806138a18484613f60565b6001600160a01b0384166000908152600360205260409020549091506138d46138ca83836136ad565b8660600151613c95565b95945050505050565b60006138fd828560a0015186602001516138f7919061469e565b906140d5565b8460c001518486604001516139129190614496565b61391c919061469e565b1015949350505050565b60008060006139358787613f60565b6001600160a01b038781166000818152600360205260408082205460015491516370a0823160e01b81526004810194909452949550909216906370a0823190602401602060405180830381865afa158015613994573d6000803e3d6000fd5b505050506040513d601f19601f820116820180604052508101906139b89190614443565b9050806000036139d15760008094509450505050613aa5565b60006139de8489846136c7565b905060008760028111156139f4576139f4614734565b03613a25576000613a0585856136ad565b9050613a118282613c95565b9550613a1d8683614496565b965050613a84565b6001876002811115613a3957613a39614734565b03613a5b57613a488184613c95565b9550613a548682614496565b9450613a84565b60008411613a6a576000613a75565b613a758382866136c7565b9550613a818682614496565b94505b613a9085600554613c95565b9450613a9e86600454613c95565b9550505050505b94509492505050565b8015611b2357306001600160a01b03841603613b10578060056000828254613ad69190614496565b90915550611b2390506001600160a01b037f0000000000000000000000000000000000000000000000000000000000000000168383613265565b8060056000828254613b2291906145b4565b90915550611b2390506001600160a01b037f000000000000000000000000000000000000000000000000000000000000000016848484613c5d565b6001600160a01b03821660009081526003602052604081208054839290613b85908490614496565b925050819055508060046000828254613b9e9190614496565b90915550505050565b801561268b578060066000828254613bbf9190614496565b909155505060025461268b906001600160a01b03168383613265565b600254600090613bfb9084908390600160a01b900463ffffffff166138dd565b15613c485761387883604001518460c0015161386e600260149054906101000a900463ffffffff1663ffffffff16868860200151613c399190614496565b8860a001516138f7919061469e565b602083015160408401516138789184906136c7565b6040516001600160a01b0380851660248301528316604482015260648101829052611f629085906323b872dd60e01b90608401613291565b6000818310613ca45781610d9d565b5090919050565b6001600160a01b03821660009081526003602052604081208054839290613cd39084906145b4565b925050819055508060046000828254613b9e91906145b4565b600063ffffffff821115613d515760405162461bcd60e51b815260206004820152602660248201527f53616665436173743a2076616c756520646f65736e27742066697420696e203360448201526532206269747360d01b60648201526084016102c3565b5090565b600061ffff821115613d515760405162461bcd60e51b815260206004820152602660248201527f53616665436173743a2076616c756520646f65736e27742066697420696e203160448201526536206269747360d01b60648201526084016102c3565b600080836040015160001480613dcd57508351155b600254602086015160a0870151929350600092613dfb92600160c01b900463ffffffff16916138f79161469e565b905060008560c001518660400151613e13919061469e565b8211613e20576000613e3e565b604086015160c0870151613e34908461470c565b613e3e9190614496565b90506000613e4c8683613c95565b90506000613e5a87836136ad565b600254909150600090613e7d90849061271090600160e01b900461ffff166136c7565b9050600086613e9d5760408a01518a51613e989184906136c7565b613e9f565b815b90506000878015613eae575081155b613edf57613eda84868d60400151613ec691906145b4565b8d51613ed39086906145b4565b91906136c7565b613ee1565b835b9050613eed81836145b4565b9b9a5050505050505050505050565b3415612c29573460066000828254613f1491906145b4565b909155505060025460408051630d0e30db60e41b815290516001600160a01b039092169163d0e30db0913491600480830192600092919082900301818588803b158015611dfd57600080fd5b6001546040516370a0823160e01b81526001600160a01b03838116600483015260009283929116906370a0823190602401602060405180830381865afa158015613fae573d6000803e3d6000fd5b505050506040513d601f19601f82011682018060405250810190613fd29190614443565b905080600003613fe6576000915050610c78565b83516080850151613ff89183906136c7565b949350505050565b6000614055826040518060400160405280602081526020017f5361666545524332303a206c6f772d6c6576656c2063616c6c206661696c6564815250856001600160a01b03166140e49092919063ffffffff16565b905080516000148061407657508080602001905181019061407691906146b5565b611b235760405162461bcd60e51b815260206004820152602a60248201527f5361666545524332303a204552433230206f7065726174696f6e20646964206e6044820152691bdd081cdd58d8d9595960b21b60648201526084016102c3565b6000610d9d83836127106136c7565b6060613ff8848460008585600080866001600160a01b0316858760405161410b919061474a565b60006040518083038185875af1925050503d8060008114614148576040519150601f19603f3d011682016040523d82523d6000602084013e61414d565b606091505b50915091506136a287838387606083156141c85782516000036141c1576001600160a01b0385163b6141c15760405162461bcd60e51b815260206004820152601d60248201527f416464726573733a2063616c6c20746f206e6f6e2d636f6e747261637400000060448201526064016102c3565b5081613ff8565b613ff883838151156141dd5781518083602001fd5b8060405162461bcd60e51b81526004016102c39190614766565b6001600160a01b0381168114610c2957600080fd5b60006020828403121561421e57600080fd5b8135610d9d816141f7565b60006020828403121561423b57600080fd5b81356001600160e01b031981168114610d9d57600080fd5b6000806040838503121561426657600080fd5b8235614271816141f7565b946020939093013593505050565b60006020828403121561429157600080fd5b5035919050565b600080604083850312156142ab57600080fd5b823591506020830135600381106142c157600080fd5b809150509250929050565b8015158114610c2957600080fd5b634e487b7160e01b600052604160045260246000fd5b60008060006060848603121561430557600080fd5b833592506020840135614317816142cc565b9150604084013567ffffffffffffffff8082111561433457600080fd5b818601915086601f83011261434857600080fd5b81358181111561435a5761435a6142da565b604051601f8201601f19908116603f01168101908382118183101715614382576143826142da565b8160405282815289602084870101111561439b57600080fd5b8260208601602083013760006020848301015280955050505050509250925092565b600080604083850312156143d057600080fd5b8235915060208301356142c1816142cc565b6000806000606084860312156143f757600080fd5b8335614402816141f7565b95602085013595506040909401359392505050565b60208082526012908201527137b7363c9030b9b9b2ba1036b0b730b3b2b960711b604082015260600190565b60006020828403121561445557600080fd5b5051919050565b6020808252600a90820152691bdb9b1e481859d95b9d60b21b604082015260600190565b634e487b7160e01b600052601160045260246000fd5b81810381811115610c7857610c78614480565b60208082526034908201527f746f6b656e20737570706c79206c656674206166746572206578697420697320604082015273746f6f206c6f7720616e64206e6f6e2d7a65726f60601b606082015260800190565b60208082526022908201527f616d6f756e74206f662073656e7420746f6b656e7320697320746f6f20736d616040820152611b1b60f21b606082015260800190565b60208082526032908201527f636f6c6c61746572616c206c656674206166746572206578697420697320746f6040820152716f206c6f7720616e64206e6f6e2d7a65726f60701b606082015260800190565b6001600160a01b0393909316835260208301919091521515604082015260600190565b80820180821115610c7857610c78614480565b6020808252601b908201527f662d617373657420616c6c6f77616e636520746f6f20736d616c6c0000000000604082015260600190565b60005b83811015614619578181015183820152602001614601565b50506000910152565b6000815180845261463a8160208601602086016145fe565b601f01601f19169290920160200192915050565b6001600160a01b0385811682528416602082015260408101839052608060608201819052600090610def90830184614622565b60006020828403121561469357600080fd5b8151610d9d816141f7565b8082028115828204841417610c7857610c78614480565b6000602082840312156146c757600080fd5b8151610d9d816142cc565b600080604083850312156146e557600080fd5b505080516020909101519092909150565b634e487b7160e01b600052601260045260246000fd5b60008261471b5761471b6146f6565b500490565b60008261472f5761472f6146f6565b500690565b634e487b7160e01b600052602160045260246000fd5b6000825161475c8184602087016145fe565b9190910192915050565b602081526000610d9d602083018461462256fe3cbd229dedaa8b29b8f29100166a217701549be8e58e781f204124f23fd0154ea264697066735822122093b8ef219b12a8b0428d31271e12d4848dec5ed8e233fcd35f24945f3a28ba2864736f6c63430008140033",
  "linkReferences": {},
  "deployedLinkReferences": {}
}