{
  "_format": "hh-sol-artifact-1",
  "contractName": "CollateralPool",
  "sourceName": "contracts/fasset/implementation/CollateralPool.sol",
  "abi": [
    {
      "inputs": [
        {
          "internalType": "address",
          "name": "_agentVault",
          "type": "address"
        },
        {
          "internalType": "address",
          "name": "_assetManager",
          "type": "address"
        },
        {
          "internalType": "address",
          "name": "_fAsset",
          "type": "address"
        },
        {
          "internalType": "uint32",
          "name": "_exitCollateralRatioBIPS",
          "type": "uint32"
        },
        {
          "internalType": "uint32",
          "name": "_topupCollateralRatioBIPS",
          "type": "uint32"
        },
        {
          "internalType": "uint16",
          "name": "_topupTokenPriceFactorBIPS",
          "type": "uint16"
        }
      ],
      "stateMutability": "nonpayable",
      "type": "constructor"
    },
    {
      "anonymous": false,
      "inputs": [
        {
          "indexed": true,
          "internalType": "address",
          "name": "tokenHolder",
          "type": "address"
        },
        {
          "indexed": false,
          "internalType": "uint256",
          "name": "amountNatWei",
          "type": "uint256"
        },
        {
          "indexed": false,
          "internalType": "uint256",
          "name": "receivedTokensWei",
          "type": "uint256"
        },
        {
          "indexed": false,
          "internalType": "uint256",
          "name": "addedFAssetFeesUBA",
          "type": "uint256"
        }
      ],
      "name": "Enter",
      "type": "event"
    },
    {
      "anonymous": false,
      "inputs": [
        {
          "indexed": true,
          "internalType": "address",
          "name": "tokenHolder",
          "type": "address"
        },
        {
          "indexed": false,
          "internalType": "uint256",
          "name": "burnedTokensWei",
          "type": "uint256"
        },
        {
          "indexed": false,
          "internalType": "uint256",
          "name": "receivedNatWei",
          "type": "uint256"
        },
        {
          "indexed": false,
          "internalType": "uint256",
          "name": "receviedFAssetFeesUBA",
          "type": "uint256"
        },
        {
          "indexed": false,
          "internalType": "uint256",
          "name": "closedFAssetsUBA",
          "type": "uint256"
        }
      ],
      "name": "Exit",
      "type": "event"
    },
    {
      "inputs": [],
      "name": "MIN_NAT_BALANCE_AFTER_EXIT",
      "outputs": [
        {
          "internalType": "uint256",
          "name": "",
          "type": "uint256"
        }
      ],
      "stateMutability": "view",
      "type": "function"
    },
    {
      "inputs": [],
      "name": "MIN_NAT_TO_ENTER",
      "outputs": [
        {
          "internalType": "uint256",
          "name": "",
          "type": "uint256"
        }
      ],
      "stateMutability": "view",
      "type": "function"
    },
    {
      "inputs": [],
      "name": "MIN_TOKEN_SUPPLY_AFTER_EXIT",
      "outputs": [
        {
          "internalType": "uint256",
          "name": "",
          "type": "uint256"
        }
      ],
      "stateMutability": "view",
      "type": "function"
    },
    {
      "inputs": [],
      "name": "agentVault",
      "outputs": [
        {
          "internalType": "address",
          "name": "",
          "type": "address"
        }
      ],
      "stateMutability": "view",
      "type": "function"
    },
    {
      "inputs": [],
      "name": "assetManager",
      "outputs": [
        {
          "internalType": "contract IIAssetManager",
          "name": "",
          "type": "address"
        }
      ],
      "stateMutability": "view",
      "type": "function"
    },
    {
      "inputs": [
        {
          "internalType": "contract IDistributionToDelegators",
          "name": "_distribution",
          "type": "address"
        },
        {
          "internalType": "uint256",
          "name": "_month",
          "type": "uint256"
        }
      ],
      "name": "claimAirdropDistribution",
      "outputs": [
        {
          "internalType": "uint256",
          "name": "",
          "type": "uint256"
        }
      ],
      "stateMutability": "nonpayable",
      "type": "function"
    },
    {
      "inputs": [
        {
          "internalType": "contract IFtsoRewardManager",
          "name": "_ftsoRewardManager",
          "type": "address"
        },
        {
          "internalType": "uint256",
          "name": "_lastRewardEpoch",
          "type": "uint256"
        }
      ],
      "name": "claimFtsoRewards",
      "outputs": [],
      "stateMutability": "nonpayable",
      "type": "function"
    },
    {
      "inputs": [
        {
          "internalType": "address[]",
          "name": "_to",
          "type": "address[]"
        },
        {
          "internalType": "uint256[]",
          "name": "_bips",
          "type": "uint256[]"
        }
      ],
      "name": "delegateCollateral",
      "outputs": [],
      "stateMutability": "nonpayable",
      "type": "function"
    },
    {
      "inputs": [
        {
          "internalType": "address payable",
          "name": "_recipient",
          "type": "address"
        }
      ],
      "name": "destroy",
      "outputs": [],
      "stateMutability": "nonpayable",
      "type": "function"
    },
    {
      "inputs": [
        {
          "internalType": "uint256",
          "name": "_fassets",
          "type": "uint256"
        },
        {
          "internalType": "bool",
          "name": "_enterWithFullFassets",
          "type": "bool"
        }
      ],
      "name": "enter",
      "outputs": [],
      "stateMutability": "payable",
      "type": "function"
    },
    {
      "inputs": [
        {
          "internalType": "uint256",
          "name": "_tokenShare",
          "type": "uint256"
        },
        {
          "internalType": "enum ICollateralPool.TokenExitType",
          "name": "_exitType",
          "type": "uint8"
        }
      ],
      "name": "exit",
      "outputs": [
        {
          "internalType": "uint256",
          "name": "",
          "type": "uint256"
        },
        {
          "internalType": "uint256",
          "name": "",
          "type": "uint256"
        }
      ],
      "stateMutability": "nonpayable",
      "type": "function"
    },
    {
      "inputs": [],
      "name": "exitCollateralRatioBIPS",
      "outputs": [
        {
          "internalType": "uint32",
          "name": "",
          "type": "uint32"
        }
      ],
      "stateMutability": "view",
      "type": "function"
    },
    {
      "inputs": [],
      "name": "fAsset",
      "outputs": [
        {
          "internalType": "contract IERC20",
          "name": "",
          "type": "address"
        }
      ],
      "stateMutability": "view",
      "type": "function"
    },
    {
      "inputs": [
        {
          "internalType": "address",
          "name": "_account",
          "type": "address"
        }
      ],
      "name": "fassetFeeDebtOf",
      "outputs": [
        {
          "internalType": "uint256",
          "name": "",
          "type": "uint256"
        }
      ],
      "stateMutability": "view",
      "type": "function"
    },
    {
      "inputs": [
        {
          "internalType": "address",
          "name": "_account",
          "type": "address"
        }
      ],
      "name": "fassetFeesOf",
      "outputs": [
        {
          "internalType": "uint256",
          "name": "",
          "type": "uint256"
        }
      ],
      "stateMutability": "view",
      "type": "function"
    },
    {
      "inputs": [
        {
          "internalType": "address",
          "name": "_account",
          "type": "address"
        }
      ],
      "name": "lockedTokensOf",
      "outputs": [
        {
          "internalType": "uint256",
          "name": "",
          "type": "uint256"
        }
      ],
      "stateMutability": "view",
      "type": "function"
    },
    {
      "inputs": [
        {
          "internalType": "contract IDistributionToDelegators",
          "name": "_distribution",
          "type": "address"
        }
      ],
      "name": "optOutOfAirdrop",
      "outputs": [],
      "stateMutability": "nonpayable",
      "type": "function"
    },
    {
      "inputs": [
        {
          "internalType": "uint256",
          "name": "_fassets",
          "type": "uint256"
        }
      ],
      "name": "payFAssetFeeDebt",
      "outputs": [],
      "stateMutability": "nonpayable",
      "type": "function"
    },
    {
      "inputs": [
        {
          "internalType": "address",
          "name": "_recipient",
          "type": "address"
        },
        {
          "internalType": "uint256",
          "name": "_amount",
          "type": "uint256"
        },
        {
          "internalType": "uint256",
          "name": "_agentResponsibilityWei",
          "type": "uint256"
        }
      ],
      "name": "payout",
      "outputs": [],
      "stateMutability": "nonpayable",
      "type": "function"
    },
    {
      "inputs": [],
      "name": "poolToken",
      "outputs": [
        {
          "internalType": "contract ICollateralPoolToken",
          "name": "",
          "type": "address"
        }
      ],
      "stateMutability": "view",
      "type": "function"
    },
    {
      "inputs": [
        {
          "internalType": "uint256",
          "name": "_tokenShare",
          "type": "uint256"
        },
        {
          "internalType": "enum ICollateralPool.TokenExitType",
          "name": "_exitType",
          "type": "uint8"
        },
        {
          "internalType": "bool",
          "name": "_redeemToCollateral",
          "type": "bool"
        },
        {
          "internalType": "string",
          "name": "_redeemerUnderlyingAddress",
          "type": "string"
        }
      ],
      "name": "selfCloseExit",
      "outputs": [],
      "stateMutability": "nonpayable",
      "type": "function"
    },
    {
      "inputs": [
        {
          "internalType": "uint256",
          "name": "_exitCollateralRatioBIPS",
          "type": "uint256"
        }
      ],
      "name": "setExitCollateralRatioBIPS",
      "outputs": [],
      "stateMutability": "nonpayable",
      "type": "function"
    },
    {
      "inputs": [
        {
          "internalType": "contract IClaimSetupManager",
          "name": "_claimSetupManager",
          "type": "address"
        },
        {
          "internalType": "address[]",
          "name": "_executors",
          "type": "address[]"
        }
      ],
      "name": "setFtsoAutoClaiming",
      "outputs": [],
      "stateMutability": "payable",
      "type": "function"
    },
    {
      "inputs": [
        {
          "internalType": "address",
          "name": "_poolToken",
          "type": "address"
        }
      ],
      "name": "setPoolToken",
      "outputs": [],
      "stateMutability": "nonpayable",
      "type": "function"
    },
    {
      "inputs": [
        {
          "internalType": "uint256",
          "name": "_topupCollateralRatioBIPS",
          "type": "uint256"
        }
      ],
      "name": "setTopupCollateralRatioBIPS",
      "outputs": [],
      "stateMutability": "nonpayable",
      "type": "function"
    },
    {
      "inputs": [
        {
          "internalType": "uint256",
          "name": "_topupTokenPriceFactorBIPS",
          "type": "uint256"
        }
      ],
      "name": "setTopupTokenPriceFactorBIPS",
      "outputs": [],
      "stateMutability": "nonpayable",
      "type": "function"
    },
    {
      "inputs": [],
      "name": "token",
      "outputs": [
        {
          "internalType": "contract CollateralPoolToken",
          "name": "",
          "type": "address"
        }
      ],
      "stateMutability": "view",
      "type": "function"
    },
    {
      "inputs": [],
      "name": "topupCollateralRatioBIPS",
      "outputs": [
        {
          "internalType": "uint32",
          "name": "",
          "type": "uint32"
        }
      ],
      "stateMutability": "view",
      "type": "function"
    },
    {
      "inputs": [],
      "name": "topupTokenPriceFactorBIPS",
      "outputs": [
        {
          "internalType": "uint16",
          "name": "",
          "type": "uint16"
        }
      ],
      "stateMutability": "view",
      "type": "function"
    },
    {
      "inputs": [],
      "name": "totalFassetFeeDebt",
      "outputs": [
        {
          "internalType": "uint256",
          "name": "",
          "type": "uint256"
        }
      ],
      "stateMutability": "view",
      "type": "function"
    },
    {
      "inputs": [
        {
          "internalType": "address",
          "name": "_account",
          "type": "address"
        }
      ],
      "name": "transferableTokensOf",
      "outputs": [
        {
          "internalType": "uint256",
          "name": "",
          "type": "uint256"
        }
      ],
      "stateMutability": "view",
      "type": "function"
    },
    {
      "inputs": [
        {
          "internalType": "contract IWNat",
          "name": "_newWNat",
          "type": "address"
        }
      ],
      "name": "upgradeWNatContract",
      "outputs": [],
      "stateMutability": "nonpayable",
      "type": "function"
    },
    {
      "inputs": [
        {
          "internalType": "address",
          "name": "_account",
          "type": "address"
        }
      ],
      "name": "virtualFassetOf",
      "outputs": [
        {
          "internalType": "uint256",
          "name": "",
          "type": "uint256"
        }
      ],
      "stateMutability": "view",
      "type": "function"
    },
    {
      "inputs": [],
      "name": "wNat",
      "outputs": [
        {
          "internalType": "contract IWNat",
          "name": "",
          "type": "address"
        }
      ],
      "stateMutability": "view",
      "type": "function"
    },
    {
      "inputs": [],
      "name": "withdrawCollateralWhenFAssetTerminated",
      "outputs": [],
      "stateMutability": "nonpayable",
      "type": "function"
    },
    {
      "inputs": [
        {
          "internalType": "uint256",
          "name": "_fassets",
          "type": "uint256"
        }
      ],
      "name": "withdrawFees",
      "outputs": [],
      "stateMutability": "nonpayable",
      "type": "function"
    },
    {
      "stateMutability": "payable",
      "type": "receive"
    }
  ],
  "bytecode": "0x60e06040523480156200001157600080fd5b50604051620042e2380380620042e283398101604081905262000034916200015a565b60016000556001600160a01b0380871660805285811660a081905290851660c05260408051635ad2445360e11b8152905163b5a488a6916004808201926020929091908290030181865afa15801562000091573d6000803e3d6000fd5b505050506040513d601f19601f82011682018060405250810190620000b79190620001ed565b6002805461ffff909316600160e01b0261ffff60e01b1963ffffffff958616600160c01b021665ffffffffffff60c01b1995909616600160a01b026001600160c01b03199094166001600160a01b0393909316929092179290921792909216929092171790555062000214915050565b6001600160a01b03811681146200013d57600080fd5b50565b805163ffffffff811681146200015557600080fd5b919050565b60008060008060008060c087890312156200017457600080fd5b8651620001818162000127565b6020880151909650620001948162000127565b6040880151909550620001a78162000127565b9350620001b76060880162000140565b9250620001c76080880162000140565b915060a087015161ffff81168114620001df57600080fd5b809150509295509295509295565b6000602082840312156200020057600080fd5b81516200020d8162000127565b9392505050565b60805160a05160c051613fa262000340600039600081816104870152818161086d01528181610c7801528181610d18015281816113c10152818161187601528181611e7301528181611f1b0152818161243601528181612814015281816128c60152612cd801526000818161057d0152818161074a01528181610dac01528181610e5201528181610ef90152818161158a0152818161196201528181611b2b01528181611bee0152818161205c015281816121780152818161299401528181612b8d01528181612d5201528181612e9e01526133200152600081816104d301528181610e7f01528181610f260152818161202c015281816122a80152818161234c0152818161237c015281816123c901528181612b5d01528181612e7001526132ed0152613fa26000f3fe6080604052600436106102125760003560e01c806388985cd611610118578063ba133b87116100a0578063ee781db01161006f578063ee781db01461069f578063f4d000b2146106bf578063fb13445f146106df578063fbebcadf146106ff578063fc0c546a1461071f57600080fd5b8063ba133b8714610636578063cbdf382c1461064b578063cde4568614610669578063e1e7c86a1461068957600080fd5b80639edbf007116100e75780639edbf007146105bf578063ac3736c1146105df578063adf58c15146105f2578063b337929b14610612578063b9e26483146102b057600080fd5b806388985cd614610515578063937411361461053557806394217ad11461056b5780639a4247e61461059f57600080fd5b8063406c70071161019b578063787b9ca81161016a578063787b9ca8146104425780637b6e1b55146104625780637c7db1a514610475578063815ea9d6146104c157806386ac57a2146104f557600080fd5b8063406c7007146103ad5780634a4ac2ef146103cd5780635e318e0714610402578063653258711461042257600080fd5b806314a3ab80116101e257806314a3ab80146102df5780632f35eac2146102ff57806333ce01fd146103345780633a22a94d146103545780633cfc747d1461037457600080fd5b8062f55d9d1461027057806306d804da146102905780630ac07344146102b05780630dc1e5e1146102b057600080fd5b3661026b57600254600160f01b900460ff166102695760405162461bcd60e51b81526020600482015260116024820152706f6e6c7920696e7465726e616c2075736560781b60448201526064015b60405180910390fd5b005b600080fd5b34801561027c57600080fd5b5061026961028b3660046137b6565b61073f565b34801561029c57600080fd5b506102696102ab36600461383c565b6109a8565b3480156102bc57600080fd5b506102cc670de0b6b3a764000081565b6040519081526020015b60405180910390f35b3480156102eb57600080fd5b506102696102fa366004613996565b6110c8565b34801561030b57600080fd5b5061031f61031a366004613a51565b611155565b604080519283526020830191909152016102d6565b34801561034057600080fd5b5061026961034f3660046137b6565b61157f565b34801561036057600080fd5b506102cc61036f3660046137b6565b61163b565b34801561038057600080fd5b5060025461039890600160a01b900463ffffffff1681565b60405163ffffffff90911681526020016102d6565b3480156103b957600080fd5b506102cc6103c8366004613a7d565b6116d1565b3480156103d957600080fd5b506002546103ef90600160e01b900461ffff1681565b60405161ffff90911681526020016102d6565b34801561040e57600080fd5b5061026961041d366004613aa9565b611780565b34801561042e57600080fd5b506102cc61043d3660046137b6565b611940565b34801561044e57600080fd5b5061026961045d366004613aa9565b611957565b610269610470366004613ac2565b611a19565b34801561048157600080fd5b506104a97f000000000000000000000000000000000000000000000000000000000000000081565b6040516001600160a01b0390911681526020016102d6565b3480156104cd57600080fd5b506104a97f000000000000000000000000000000000000000000000000000000000000000081565b34801561050157600080fd5b506102696105103660046137b6565b611aa5565b34801561052157600080fd5b50610269610530366004613aa9565b611b20565b34801561054157600080fd5b506102cc6105503660046137b6565b6001600160a01b031660009081526003602052604090205490565b34801561057757600080fd5b506104a97f000000000000000000000000000000000000000000000000000000000000000081565b3480156105ab57600080fd5b506102696105ba366004613aa9565b611be3565b3480156105cb57600080fd5b506002546104a9906001600160a01b031681565b6102696105ed366004613b12565b611c95565b3480156105fe57600080fd5b5061026961060d366004613b42565b61216d565b34801561061e57600080fd5b5060025461039890600160c01b900463ffffffff1681565b34801561064257600080fd5b50610269612434565b34801561065757600080fd5b506001546001600160a01b03166104a9565b34801561067557600080fd5b506102cc6106843660046137b6565b612781565b34801561069557600080fd5b506102cc60045481565b3480156106ab57600080fd5b506102696106ba366004613aa9565b612798565b3480156106cb57600080fd5b506102696106da3660046137b6565b612989565b3480156106eb57600080fd5b506102cc6106fa3660046137b6565b612bc5565b34801561070b57600080fd5b5061026961071a366004613a7d565b612bdc565b34801561072b57600080fd5b506001546104a9906001600160a01b031681565b336001600160a01b037f000000000000000000000000000000000000000000000000000000000000000016146107875760405162461bcd60e51b815260040161026090613b77565b6002546040516370a0823160e01b81523060048201526000916001600160a01b0316906370a0823190602401602060405180830381865afa1580156107d0573d6000803e3d6000fd5b505050506040513d601f19601f820116820180604052508101906107f49190613ba3565b905080156108555760405162461bcd60e51b815260206004820152602860248201527f63616e6e6f742064657374726f79206120706f6f6c20686f6c64696e6720636f6044820152671b1b185d195c985b60c21b6064820152608401610260565b6040516370a0823160e01b81523060048201526000907f00000000000000000000000000000000000000000000000000000000000000006001600160a01b0316906370a0823190602401602060405180830381865afa1580156108bc573d6000803e3d6000fd5b505050506040513d601f19601f820116820180604052508101906108e09190613ba3565b9050801561093f5760405162461bcd60e51b815260206004820152602660248201527f63616e6e6f742064657374726f79206120706f6f6c20686f6c64696e6720662d60448201526561737365747360d01b6064820152608401610260565b60015460405162f55d9d60e01b81526001600160a01b0385811660048301529091169062f55d9d90602401600060405180830381600087803b15801561098457600080fd5b505af1158015610998573d6000803e3d6000fd5b50505050826001600160a01b0316ff5b600084116109ee5760405162461bcd60e51b8152602060048201526013602482015272746f6b656e207368617265206973207a65726f60681b6044820152606401610260565b6001546040516370a0823160e01b81523360048201526001600160a01b03909116906370a0823190602401602060405180830381865afa158015610a36573d6000803e3d6000fd5b505050506040513d601f19601f82011682018060405250810190610a5a9190613ba3565b841115610aa15760405162461bcd60e51b8152602060048201526015602482015274746f6b656e2062616c616e636520746f6f206c6f7760581b6044820152606401610260565b6000610aab612c80565b8051909150851480610ad257508051670de0b6b3a764000090610acf908790613bd2565b10155b610aee5760405162461bcd60e51b815260040161026090613be9565b80516040820151600091610b0491908890612fac565b905060008111610b265760405162461bcd60e51b815260040161026090613c3d565b8082604001511480610b4f5750670de0b6b3a7640000818360400151610b4c9190613bd2565b10155b610b6b5760405162461bcd60e51b815260040161026090613c7f565b600080610b7a338989876130d0565b915091506000610ba4856000600260149054906101000a900463ffffffff1663ffffffff16613234565b15610c245760025460a0860151600091610bcf919063ffffffff600160a01b90910481169061327d16565b858760400151610bdf9190613bd2565b8760c00151610bee9190613cd1565b610bf89190613d06565b905080866020015111610c0c576000610c1c565b808660200151610c1c9190613bd2565b915050610c3c565b60408501516020860151610c39918690612fac565b90505b600081831015610d9657610c508383613bd2565b604051636eb1769f60e11b815233600482015230602482015290915081906001600160a01b037f0000000000000000000000000000000000000000000000000000000000000000169063dd62ed3e90604401602060405180830381865afa158015610cbf573d6000803e3d6000fd5b505050506040513d601f19601f82011682018060405250810190610ce39190613ba3565b1015610d015760405162461bcd60e51b815260040161026090613d1a565b6040516323b872dd60e01b81526001600160a01b037f000000000000000000000000000000000000000000000000000000000000000016906323b872dd90610d5190339030908690600401613d51565b6020604051808303816000875af1158015610d70573d6000803e3d6000fd5b505050506040513d601f19601f82011682018060405250810190610d949190613d75565b505b6000610da28285613d92565b90508015610f87577f00000000000000000000000000000000000000000000000000000000000000006001600160a01b0316634942f65f6040518163ffffffff1660e01b8152600401602060405180830381865afa158015610e08573d6000803e3d6000fd5b505050506040513d601f19601f82011682018060405250810190610e2c9190613ba3565b811080610e365750885b15610ee257604051630ed000b360e41b81526001600160a01b037f0000000000000000000000000000000000000000000000000000000000000000169063ed000b3090610eab907f00000000000000000000000000000000000000000000000000000000000000009033908690600401613d51565b600060405180830381600087803b158015610ec557600080fd5b505af1158015610ed9573d6000803e3d6000fd5b50505050610f87565b60405163f060b3f160e01b81526001600160a01b037f0000000000000000000000000000000000000000000000000000000000000000169063f060b3f190610f54907f000000000000000000000000000000000000000000000000000000000000000090339086908e90600401613daa565b600060405180830381600087803b158015610f6e57600080fd5b505af1158015610f82573d6000803e3d6000fd5b505050505b8415610f9757610f97338661328c565b600154604051632770a7eb60e21b81526001600160a01b0390911690639dc29fac90610fc99033908f90600401613e22565b600060405180830381600087803b158015610fe357600080fd5b505af1158015610ff7573d6000803e3d6000fd5b505060025460405163a9059cbb60e01b81526001600160a01b03909116925063a9059cbb915061102d9033908a90600401613e22565b6020604051808303816000875af115801561104c573d6000803e3d6000fd5b505050506040513d601f19601f820116820180604052508101906110709190613d75565b50604080518c8152602081018890529081018590526060810182905233907f6bcf2464228029946fa6af5456662d377896b780e680909f9bbe7ffe6548cbef9060800160405180910390a25050505050505050505050565b6110d1336132d6565b6110ed5760405162461bcd60e51b815260040161026090613e3b565b60025460405163dc4fcda760e01b81526001600160a01b039091169063dc4fcda79061111f9085908590600401613ea3565b600060405180830381600087803b15801561113957600080fd5b505af115801561114d573d6000803e3d6000fd5b505050505050565b6000806000841161119e5760405162461bcd60e51b8152602060048201526013602482015272746f6b656e207368617265206973207a65726f60681b6044820152606401610260565b6001546040516370a0823160e01b81523360048201526001600160a01b03909116906370a0823190602401602060405180830381865afa1580156111e6573d6000803e3d6000fd5b505050506040513d601f19601f8201168201806040525081019061120a9190613ba3565b8411156112515760405162461bcd60e51b8152602060048201526015602482015274746f6b656e2062616c616e636520746f6f206c6f7760581b6044820152606401610260565b600061125b612c80565b805190915085148061128257508051670de0b6b3a76400009061127f908790613bd2565b10155b61129e5760405162461bcd60e51b815260040161026090613be9565b604081015181516000916112b491889190612fac565b9050600081116112d65760405162461bcd60e51b815260040161026090613c3d565b80826040015114806112ff5750670de0b6b3a76400008183604001516112fc9190613bd2565b10155b61131b5760405162461bcd60e51b815260040161026090613c7f565b6002546113389083908390600160a01b900463ffffffff16613234565b6113905760405162461bcd60e51b815260206004820152602360248201527f636f6c6c61746572616c20726174696f2066616c6c732062656c6f77206578696044820152623a21a960e91b6064820152608401610260565b60008061139f338989876130d0565b9092509050801561143d5760405163a9059cbb60e01b81526001600160a01b037f0000000000000000000000000000000000000000000000000000000000000000169063a9059cbb906113f89033908590600401613e22565b6020604051808303816000875af1158015611417573d6000803e3d6000fd5b505050506040513d601f19601f8201168201806040525081019061143b9190613d75565b505b811561144d5761144d338361328c565b600154604051632770a7eb60e21b81526001600160a01b0390911690639dc29fac9061147f9033908c90600401613e22565b600060405180830381600087803b15801561149957600080fd5b505af11580156114ad573d6000803e3d6000fd5b505060025460405163a9059cbb60e01b81526001600160a01b03909116925063a9059cbb91506114e39033908790600401613e22565b6020604051808303816000875af1158015611502573d6000803e3d6000fd5b505050506040513d601f19601f820116820180604052508101906115269190613d75565b5060408051898152602081018590529081018290526000606082015233907f6bcf2464228029946fa6af5456662d377896b780e680909f9bbe7ffe6548cbef9060800160405180910390a2919791965090945050505050565b336001600160a01b037f000000000000000000000000000000000000000000000000000000000000000016146115c75760405162461bcd60e51b815260040161026090613b77565b6001546001600160a01b0316156116195760405162461bcd60e51b81526020600482015260166024820152751c1bdbdb081d1bdad95b88185b1c9958591e481cd95d60521b6044820152606401610260565b600180546001600160a01b0319166001600160a01b0392909216919091179055565b600080611646612c80565b9050611652838261338d565b6001546040516370a0823160e01b81526001600160a01b038681166004830152909116906370a0823190602401602060405180830381865afa15801561169c573d6000803e3d6000fd5b505050506040513d601f19601f820116820180604052508101906116c09190613ba3565b6116ca9190613bd2565b9392505050565b60006116dc336132d6565b6116f85760405162461bcd60e51b815260040161026090613e3b565b60405163596090c960e11b81523060048201819052602482015260448101839052600160648201526001600160a01b0384169063b2c12192906084016020604051808303816000875af1158015611753573d6000803e3d6000fd5b505050506040513d601f19601f820116820180604052508101906117779190613ba3565b90505b92915050565b600081116117d05760405162461bcd60e51b815260206004820181905260248201527f747279696e6720746f207769746864726177207a65726f20662d6173736574736044820152606401610260565b60006117da612c80565b3360008181526003602052604081205492935091906117f99084613472565b6118039190613bd2565b9050808311156118555760405162461bcd60e51b815260206004820152601e60248201527f6672656520662d61737365742062616c616e636520746f6f20736d616c6c00006044820152606401610260565b61185f3384613502565b60405163a9059cbb60e01b81526001600160a01b037f0000000000000000000000000000000000000000000000000000000000000000169063a9059cbb906118ad9033908790600401613e22565b6020604051808303816000875af11580156118cc573d6000803e3d6000fd5b505050506040513d601f19601f820116820180604052508101906118f09190613d75565b50604080516000808252602082018190528183018490526060820152905133917f6bcf2464228029946fa6af5456662d377896b780e680909f9bbe7ffe6548cbef919081900360800190a2505050565b60008061194b612c80565b90506116ca838261338d565b336001600160a01b037f0000000000000000000000000000000000000000000000000000000000000000161461199f5760405162461bcd60e51b815260040161026090613b77565b600254600160c01b900463ffffffff1681116119ed5760405162461bcd60e51b815260206004820152600d60248201526c76616c756520746f6f206c6f7760981b6044820152606401610260565b6119f681613543565b600260146101000a81548163ffffffff021916908363ffffffff16021790555050565b611a22336132d6565b611a3e5760405162461bcd60e51b815260040161026090613e3b565b60405163e72dcdbb60e01b81526001600160a01b0383169063e72dcdbb903490611a6f908590600090600401613efa565b6000604051808303818588803b158015611a8857600080fd5b505af1158015611a9c573d6000803e3d6000fd5b50505050505050565b611aae336132d6565b611aca5760405162461bcd60e51b815260040161026090613e3b565b806001600160a01b031663f2a1f7676040518163ffffffff1660e01b8152600401600060405180830381600087803b158015611b0557600080fd5b505af1158015611b19573d6000803e3d6000fd5b5050505050565b336001600160a01b037f00000000000000000000000000000000000000000000000000000000000000001614611b685760405162461bcd60e51b815260040161026090613b77565b600254600160a01b900463ffffffff168110611bb75760405162461bcd60e51b815260206004820152600e60248201526d0ecc2d8eaca40e8dede40d0d2ced60931b6044820152606401610260565b611bc081613543565b600260186101000a81548163ffffffff021916908363ffffffff16021790555050565b336001600160a01b037f00000000000000000000000000000000000000000000000000000000000000001614611c2b5760405162461bcd60e51b815260040161026090613b77565b6127108110611c6d5760405162461bcd60e51b815260206004820152600e60248201526d0ecc2d8eaca40e8dede40d0d2ced60931b6044820152606401610260565b611c76816135ac565b6002601c6101000a81548161ffff021916908361ffff16021790555050565b6000611c9f612c80565b90506103e88160400151611cb39190613cd1565b81511115611d035760405162461bcd60e51b815260206004820152601a60248201527f706f6f6c206e61742062616c616e636520746f6f20736d616c6c0000000000006044820152606401610260565b670de0b6b3a7640000341015611d5b5760405162461bcd60e51b815260206004820152601d60248201527f616d6f756e74206f66206e61742073656e7420697320746f6f206c6f770000006044820152606401610260565b8051611e01578060400151341015611e015760405162461bcd60e51b815260206004820152605e60248201527f696620706f6f6c20686173206e6f20746f6b656e732c2062757420686173206360448201527f6f6c6c61746572616c2c20796f75206e65656420746f2073656e64206174206c60648201527f65617374207468617420616d6f756e74206f6620636f6c6c61746572616c0000608482015260a401610260565b6000611e0d348361360f565b825190915060009015611e315782516080840151611e2c918490612fac565b611e34565b60005b9050600084611e4c57611e478683613741565b611e4e565b815b90508015611f9957604051636eb1769f60e11b815233600482015230602482015281907f00000000000000000000000000000000000000000000000000000000000000006001600160a01b03169063dd62ed3e90604401602060405180830381865afa158015611ec2573d6000803e3d6000fd5b505050506040513d601f19601f82011682018060405250810190611ee69190613ba3565b1015611f045760405162461bcd60e51b815260040161026090613d1a565b6040516323b872dd60e01b81526001600160a01b037f000000000000000000000000000000000000000000000000000000000000000016906323b872dd90611f5490339030908690600401613d51565b6020604051808303816000875af1158015611f73573d6000803e3d6000fd5b505050506040513d601f19601f82011682018060405250810190611f979190613d75565b505b611fac33611fa78385613bd2565b613502565b600260009054906101000a90046001600160a01b03166001600160a01b031663d0e30db0346040518263ffffffff1660e01b81526004016000604051808303818588803b158015611ffc57600080fd5b505af1158015612010573d6000803e3d6000fd5b50506002546040516351c452bf60e01b81526001600160a01b037f00000000000000000000000000000000000000000000000000000000000000008116600483015291821660248201527f000000000000000000000000000000000000000000000000000000000000000090911693506351c452bf92506044019050600060405180830381600087803b1580156120a657600080fd5b505af11580156120ba573d6000803e3d6000fd5b50506001546040516340c10f1960e01b81526001600160a01b0390911692506340c10f1991506120f09033908790600401613e22565b600060405180830381600087803b15801561210a57600080fd5b505af115801561211e573d6000803e3d6000fd5b505060408051348152602081018790529081018490523392507f3af2c1ec57343b1e7e40c3f6c85f5ad943344cd8548bdf819f1da51aaebb3db6915060600160405180910390a2505050505050565b336001600160a01b037f000000000000000000000000000000000000000000000000000000000000000016146121b55760405162461bcd60e51b815260040161026090613b77565b600260005414156122085760405162461bcd60e51b815260206004820152601f60248201527f5265656e7472616e637947756172643a207265656e7472616e742063616c6c006044820152606401610260565b60026000908155612217612c80565b60025460405163a9059cbb60e01b81529192506001600160a01b03169063a9059cbb9061224a9087908790600401613e22565b6020604051808303816000875af1158015612269573d6000803e3d6000fd5b505050506040513d601f19601f8201168201806040525081019061228d9190613d75565b506001546040516370a0823160e01b81526001600160a01b037f00000000000000000000000000000000000000000000000000000000000000008116600483015260009216906370a0823190602401602060405180830381865afa1580156122f9573d6000803e3d6000fd5b505050506040513d601f19601f8201168201806040525081019061231d9190613ba3565b9050600061232b8285613741565b83516040850151919250600091612343918491612fac565b905060006123747f0000000000000000000000000000000000000000000000000000000000000000836002886130d0565b5090506123a17f00000000000000000000000000000000000000000000000000000000000000008261328c565b600154604051632770a7eb60e21b81526001600160a01b0390911690639dc29fac906123f3907f0000000000000000000000000000000000000000000000000000000000000000908690600401613e22565b600060405180830381600087803b15801561240d57600080fd5b505af1158015612421573d6000803e3d6000fd5b5050600160005550505050505050505050565b7f00000000000000000000000000000000000000000000000000000000000000006001600160a01b031663194307bf6040518163ffffffff1660e01b8152600401602060405180830381865afa158015612492573d6000803e3d6000fd5b505050506040513d601f19601f820116820180604052508101906124b69190613d75565b6124fb5760405162461bcd60e51b8152602060048201526016602482015275198b585cdcd95d081b9bdd081d195c9b5a5b985d195960521b6044820152606401610260565b6001546040516370a0823160e01b81523360048201526000916001600160a01b0316906370a0823190602401602060405180830381865afa158015612544573d6000803e3d6000fd5b505050506040513d601f19601f820116820180604052508101906125689190613ba3565b9050600081116125b05760405162461bcd60e51b81526020600482015260136024820152726e6f7468696e6720746f20776974686472617760681b6044820152606401610260565b6002546040516370a0823160e01b81523060048201526000916126a2916001600160a01b03909116906370a0823190602401602060405180830381865afa1580156125ff573d6000803e3d6000fd5b505050506040513d601f19601f820116820180604052508101906126239190613ba3565b600160009054906101000a90046001600160a01b03166001600160a01b03166318160ddd6040518163ffffffff1660e01b8152600401602060405180830381865afa158015612676573d6000803e3d6000fd5b505050506040513d601f19601f8201168201806040525081019061269a9190613ba3565b849190612fac565b600154604051632770a7eb60e21b81529192506001600160a01b031690639dc29fac906126d59033908690600401613e22565b600060405180830381600087803b1580156126ef57600080fd5b505af1158015612703573d6000803e3d6000fd5b505060025460405163a9059cbb60e01b81526001600160a01b03909116925063a9059cbb91506127399033908590600401613e22565b6020604051808303816000875af1158015612758573d6000803e3d6000fd5b505050506040513d601f19601f8201168201806040525081019061277c9190613d75565b505050565b60008061278c612c80565b90506116ca8382613757565b336000908152600360205260409020548111156127f75760405162461bcd60e51b815260206004820152601e60248201527f6465627420662d61737365742062616c616e636520746f6f20736d616c6c00006044820152606401610260565b604051636eb1769f60e11b815233600482015230602482015281907f00000000000000000000000000000000000000000000000000000000000000006001600160a01b03169063dd62ed3e90604401602060405180830381865afa158015612863573d6000803e3d6000fd5b505050506040513d601f19601f820116820180604052508101906128879190613ba3565b10156128a55760405162461bcd60e51b815260040161026090613d1a565b6128af338261328c565b6040516323b872dd60e01b81526001600160a01b037f000000000000000000000000000000000000000000000000000000000000000016906323b872dd906128ff90339030908690600401613d51565b6020604051808303816000875af115801561291e573d6000803e3d6000fd5b505050506040513d601f19601f820116820180604052508101906129429190613d75565b50604080516000808252602082015290810182905233907f3af2c1ec57343b1e7e40c3f6c85f5ad943344cd8548bdf819f1da51aaebb3db69060600160405180910390a250565b336001600160a01b037f000000000000000000000000000000000000000000000000000000000000000016146129d15760405162461bcd60e51b815260040161026090613b77565b6002546001600160a01b03828116911614156129ea5750565b6002546040516370a0823160e01b81523060048201526000916001600160a01b0316906370a0823190602401602060405180830381865afa158015612a33573d6000803e3d6000fd5b505050506040513d601f19601f82011682018060405250810190612a579190613ba3565b60028054600160f01b60ff60f01b19821617909155604051632e1a7d4d60e01b8152600481018390529192506001600160a01b031690632e1a7d4d90602401600060405180830381600087803b158015612ab057600080fd5b505af1158015612ac4573d6000803e3d6000fd5b50506002805460ff60f01b19169055505060408051630d0e30db60e41b815290516001600160a01b0384169163d0e30db091849160048082019260009290919082900301818588803b158015612b1957600080fd5b505af1158015612b2d573d6000803e3d6000fd5b5050600280546001600160a01b0319166001600160a01b038781169182179092556040516351c452bf60e01b81527f00000000000000000000000000000000000000000000000000000000000000008316600482015260248101919091527f000000000000000000000000000000000000000000000000000000000000000090911693506351c452bf9250604401905061111f565b50565b600080612bd0612c80565b90506116ca8382613472565b612be5336132d6565b612c015760405162461bcd60e51b815260040161026090613e3b565b60405163596090c960e11b81523060048201819052602482015260448101829052600160648201526001600160a01b0383169063b2c12192906084016020604051808303816000875af1158015612c5c573d6000803e3d6000fd5b505050506040513d601f19601f8201168201806040525081019061277c9190613ba3565b612cc06040518060e00160405280600081526020016000815260200160008152602001600081526020016000815260200160008152602001600081525090565b6040516370a0823160e01b81523060048201526000907f00000000000000000000000000000000000000000000000000000000000000006001600160a01b0316906370a0823190602401602060405180830381865afa158015612d27573d6000803e3d6000fd5b505050506040513d601f19601f82011682018060405250810190612d4b9190613ba3565b90506000807f00000000000000000000000000000000000000000000000000000000000000006001600160a01b03166302312aec6040518163ffffffff1660e01b81526004016040805180830381865afa158015612dad573d6000803e3d6000fd5b505050506040513d601f19601f82011682018060405250810190612dd19190613f1e565b915091506040518060e00160405280600160009054906101000a90046001600160a01b03166001600160a01b03166318160ddd6040518163ffffffff1660e01b8152600401602060405180830381865afa158015612e33573d6000803e3d6000fd5b505050506040513d601f19601f82011682018060405250810190612e579190613ba3565b815260405163769bb15560e11b81526001600160a01b037f0000000000000000000000000000000000000000000000000000000000000000811660048301526020909201917f0000000000000000000000000000000000000000000000000000000000000000169063ed3762aa90602401602060405180830381865afa158015612ee5573d6000803e3d6000fd5b505050506040513d601f19601f82011682018060405250810190612f099190613ba3565b81526002546040516370a0823160e01b81523060048201526020909201916001600160a01b03909116906370a0823190602401602060405180830381865afa158015612f59573d6000803e3d6000fd5b505050506040513d601f19601f82011682018060405250810190612f7d9190613ba3565b815260200184815260200160045485612f969190613d92565b8152602081019390935260409092015292915050565b6000808211612ff05760405162461bcd60e51b815260206004820152601060248201526f4469766973696f6e206279207a65726f60801b6044820152606401610260565b83612ffd575060006116ca565b8383028385828161301057613010613cf0565b04141561302f5782818161302657613026613cf0565b049150506116ca565b50600061303c8386613d06565b9050600061304a8487613f42565b905060006130588587613d06565b905060006130668688613f42565b9050856130738285613cd1565b61307d9190613d06565b6130878385613cd1565b6130918387613cd1565b8861309c8689613cd1565b6130a69190613cd1565b6130b09190613d92565b6130ba9190613d92565b6130c49190613d92565b98975050505050505050565b60008060006130df8785613472565b6001600160a01b038881166000818152600360205260408082205460015491516370a0823160e01b815260048101949094529495509092613172928b92909116906370a0823190602401602060405180830381865afa158015613146573d6000803e3d6000fd5b505050506040513d601f19601f8201168201806040525081019061316a9190613ba3565b859190612fac565b9050600087600281111561318857613188613f56565b14156131c857600083831061319e5760006131a8565b6131a88385613bd2565b90506131b48282613741565b94506131c08583613bd2565b955050613228565b60018760028111156131dc576131dc613f56565b14156131ff576131ec8183613741565b94506131f88582613bd2565b9350613228565b6000821161320e576000613219565b613219828285612fac565b94506132258582613bd2565b93505b50505094509492505050565b6000613254828560a00151866020015161324e9190613cd1565b9061327d565b8460c001518486604001516132699190613bd2565b6132739190613cd1565b1015949350505050565b60006117778383612710612fac565b6001600160a01b038216600090815260036020526040812080548392906132b4908490613bd2565b9250508190555080600460008282546132cd9190613bd2565b90915550505050565b60405163d6b93a9f60e01b81526001600160a01b037f00000000000000000000000000000000000000000000000000000000000000008116600483015282811660248301526000917f00000000000000000000000000000000000000000000000000000000000000009091169063d6b93a9f90604401602060405180830381865afa158015613369573d6000803e3d6000fd5b505050506040513d601f19601f8201168201806040525081019061177a9190613d75565b6001546040516370a0823160e01b81526001600160a01b03848116600483015260009283929116906370a0823190602401602060405180830381865afa1580156133db573d6000803e3d6000fd5b505050506040513d601f19601f820116820180604052508101906133ff9190613ba3565b90508061341057600091505061177a565b6001600160a01b038416600090815260036020526040902054806134365750905061177a565b8351608085015160009161344c91908590612fac565b9050600061345a8383613bd2565b608087015187519192506000916130c4918490612fac565b6001546040516370a0823160e01b81526001600160a01b03848116600483015260009283929116906370a0823190602401602060405180830381865afa1580156134c0573d6000803e3d6000fd5b505050506040513d601f19601f820116820180604052508101906134e49190613ba3565b835160808501519192506134fa91908390612fac565b949350505050565b6001600160a01b0382166000908152600360205260408120805483929061352a908490613d92565b9250508190555080600460008282546132cd9190613d92565b600063ffffffff8211156135a85760405162461bcd60e51b815260206004820152602660248201527f53616665436173743a2076616c756520646f65736e27742066697420696e203360448201526532206269747360d01b6064820152608401610260565b5090565b600061ffff8211156135a85760405162461bcd60e51b815260206004820152602660248201527f53616665436173743a2076616c756520646f65736e27742066697420696e203160448201526536206269747360d01b6064820152608401610260565b60008082604001516000148061362457508251155b600254602085015160a086015192935060009261365292600160c01b900463ffffffff169161324e91613cd1565b905060008460c00151856040015161366a9190613cd1565b8211613677576000613695565b604085015160c086015161368b9084613d06565b6136959190613bd2565b905060006136a38783613741565b905060008782106136b55760006136bf565b6136bf8289613bd2565b6002549091506000906136e290849061271090600160e01b900461ffff16612fac565b905060008661370257604089015189516136fd918590612fac565b613704565b825b90506000876137245760408a01518a5161371f918590612fac565b613726565b825b90506137328282613d92565b9b9a5050505050505050505050565b60008183106137505781611777565b5090919050565b6000806137648484613472565b6001600160a01b03851660009081526003602052604090205490915080821161378e576000613798565b6137988183613bd2565b95945050505050565b6001600160a01b0381168114612bc257600080fd5b6000602082840312156137c857600080fd5b81356116ca816137a1565b8035600381106137e257600080fd5b919050565b8015158114612bc257600080fd5b634e487b7160e01b600052604160045260246000fd5b604051601f8201601f1916810167ffffffffffffffff81118282101715613834576138346137f5565b604052919050565b6000806000806080858703121561385257600080fd5b8435935060206138638187016137d3565b93506040860135613873816137e7565b9250606086013567ffffffffffffffff8082111561389057600080fd5b818801915088601f8301126138a457600080fd5b8135818111156138b6576138b66137f5565b6138c8601f8201601f1916850161380b565b915080825289848285010111156138de57600080fd5b808484018584013760008482840101525080935050505092959194509250565b600067ffffffffffffffff821115613918576139186137f5565b5060051b60200190565b600082601f83011261393357600080fd5b81356020613948613943836138fe565b61380b565b82815260059290921b8401810191818101908684111561396757600080fd5b8286015b8481101561398b57803561397e816137a1565b835291830191830161396b565b509695505050505050565b600080604083850312156139a957600080fd5b823567ffffffffffffffff808211156139c157600080fd5b6139cd86838701613922565b93506020915081850135818111156139e457600080fd5b85019050601f810186136139f757600080fd5b8035613a05613943826138fe565b81815260059190911b82018301908381019088831115613a2457600080fd5b928401925b82841015613a4257833582529284019290840190613a29565b80955050505050509250929050565b60008060408385031215613a6457600080fd5b82359150613a74602084016137d3565b90509250929050565b60008060408385031215613a9057600080fd5b8235613a9b816137a1565b946020939093013593505050565b600060208284031215613abb57600080fd5b5035919050565b60008060408385031215613ad557600080fd5b8235613ae0816137a1565b9150602083013567ffffffffffffffff811115613afc57600080fd5b613b0885828601613922565b9150509250929050565b60008060408385031215613b2557600080fd5b823591506020830135613b37816137e7565b809150509250929050565b600080600060608486031215613b5757600080fd5b8335613b62816137a1565b95602085013595506040909401359392505050565b60208082526012908201527137b7363c9030b9b9b2ba1036b0b730b3b2b960711b604082015260600190565b600060208284031215613bb557600080fd5b5051919050565b634e487b7160e01b600052601160045260246000fd5b600082821015613be457613be4613bbc565b500390565b60208082526034908201527f746f6b656e20737570706c79206c656674206166746572206578697420697320604082015273746f6f206c6f7720616e64206e6f6e2d7a65726f60601b606082015260800190565b60208082526022908201527f616d6f756e74206f662073656e7420746f6b656e7320697320746f6f20736d616040820152611b1b60f21b606082015260800190565b60208082526032908201527f636f6c6c61746572616c206c656674206166746572206578697420697320746f6040820152716f206c6f7720616e64206e6f6e2d7a65726f60701b606082015260800190565b6000816000190483118215151615613ceb57613ceb613bbc565b500290565b634e487b7160e01b600052601260045260246000fd5b600082613d1557613d15613cf0565b500490565b6020808252601b908201527f662d617373657420616c6c6f77616e636520746f6f20736d616c6c0000000000604082015260600190565b6001600160a01b039384168152919092166020820152604081019190915260600190565b600060208284031215613d8757600080fd5b81516116ca816137e7565b60008219821115613da557613da5613bbc565b500190565b600060018060a01b038087168352602081871681850152856040850152608060608501528451915081608085015260005b82811015613df75785810182015185820160a001528101613ddb565b82811115613e0957600060a084870101525b5050601f01601f19169190910160a00195945050505050565b6001600160a01b03929092168252602082015260400190565b6020808252600a90820152691bdb9b1e481859d95b9d60b21b604082015260600190565b600081518084526020808501945080840160005b83811015613e985781516001600160a01b031687529582019590820190600101613e73565b509495945050505050565b604081526000613eb66040830185613e5f565b82810360208481019190915284518083528582019282019060005b81811015613eed57845183529383019391830191600101613ed1565b5090979650505050505050565b604081526000613f0d6040830185613e5f565b905082151560208301529392505050565b60008060408385031215613f3157600080fd5b505080516020909101519092909150565b600082613f5157613f51613cf0565b500690565b634e487b7160e01b600052602160045260246000fdfea26469706673582212205711b3ff69f86ae4e8e3f08f7a57e2c99cbc3e9643ca70fc6b54b8a0fd029e8064736f6c634300080b0033",
  "linkReferences": {},
  "deployedLinkReferences": {}
}