{
  "_format": "hh-sol-artifact-1",
  "contractName": "CollateralPool",
  "sourceName": "contracts/fasset/implementation/CollateralPool.sol",
  "abi": [
    {
      "inputs": [
        {
          "internalType": "address",
          "name": "_agentVault",
          "type": "address"
        },
        {
          "internalType": "address",
          "name": "_assetManager",
          "type": "address"
        },
        {
          "internalType": "address",
          "name": "_fAsset",
          "type": "address"
        },
        {
          "internalType": "uint32",
          "name": "_exitCollateralRatioBIPS",
          "type": "uint32"
        },
        {
          "internalType": "uint32",
          "name": "_topupCollateralRatioBIPS",
          "type": "uint32"
        },
        {
          "internalType": "uint16",
          "name": "_topupTokenPriceFactorBIPS",
          "type": "uint16"
        }
      ],
      "stateMutability": "nonpayable",
      "type": "constructor"
    },
    {
      "inputs": [],
      "name": "MIN_NAT_BALANCE_AFTER_EXIT",
      "outputs": [
        {
          "internalType": "uint256",
          "name": "",
          "type": "uint256"
        }
      ],
      "stateMutability": "view",
      "type": "function"
    },
    {
      "inputs": [],
      "name": "MIN_NAT_TO_ENTER",
      "outputs": [
        {
          "internalType": "uint256",
          "name": "",
          "type": "uint256"
        }
      ],
      "stateMutability": "view",
      "type": "function"
    },
    {
      "inputs": [],
      "name": "MIN_TOKEN_SUPPLY_AFTER_EXIT",
      "outputs": [
        {
          "internalType": "uint256",
          "name": "",
          "type": "uint256"
        }
      ],
      "stateMutability": "view",
      "type": "function"
    },
    {
      "inputs": [],
      "name": "agentVault",
      "outputs": [
        {
          "internalType": "address",
          "name": "",
          "type": "address"
        }
      ],
      "stateMutability": "view",
      "type": "function"
    },
    {
      "inputs": [],
      "name": "assetManager",
      "outputs": [
        {
          "internalType": "contract IAssetManager",
          "name": "",
          "type": "address"
        }
      ],
      "stateMutability": "view",
      "type": "function"
    },
    {
      "inputs": [
        {
          "internalType": "contract IDistributionToDelegators",
          "name": "_distribution",
          "type": "address"
        },
        {
          "internalType": "uint256",
          "name": "_month",
          "type": "uint256"
        }
      ],
      "name": "claimAirdropDistribution",
      "outputs": [
        {
          "internalType": "uint256",
          "name": "",
          "type": "uint256"
        }
      ],
      "stateMutability": "nonpayable",
      "type": "function"
    },
    {
      "inputs": [
        {
          "internalType": "contract IFtsoRewardManager",
          "name": "_ftsoRewardManager",
          "type": "address"
        },
        {
          "internalType": "uint256",
          "name": "_lastRewardEpoch",
          "type": "uint256"
        }
      ],
      "name": "claimFtsoRewards",
      "outputs": [],
      "stateMutability": "nonpayable",
      "type": "function"
    },
    {
      "inputs": [
        {
          "internalType": "address",
          "name": "_account",
          "type": "address"
        }
      ],
      "name": "debtTokensOf",
      "outputs": [
        {
          "internalType": "uint256",
          "name": "",
          "type": "uint256"
        }
      ],
      "stateMutability": "view",
      "type": "function"
    },
    {
      "inputs": [
        {
          "internalType": "address[]",
          "name": "_to",
          "type": "address[]"
        },
        {
          "internalType": "uint256[]",
          "name": "_bips",
          "type": "uint256[]"
        }
      ],
      "name": "delegateCollateral",
      "outputs": [],
      "stateMutability": "nonpayable",
      "type": "function"
    },
    {
      "inputs": [
        {
          "internalType": "address payable",
          "name": "_recipient",
          "type": "address"
        }
      ],
      "name": "destroy",
      "outputs": [],
      "stateMutability": "nonpayable",
      "type": "function"
    },
    {
      "inputs": [
        {
          "internalType": "uint256",
          "name": "_fassets",
          "type": "uint256"
        },
        {
          "internalType": "bool",
          "name": "_enterWithFullFassets",
          "type": "bool"
        }
      ],
      "name": "enter",
      "outputs": [],
      "stateMutability": "payable",
      "type": "function"
    },
    {
      "inputs": [
        {
          "internalType": "uint256",
          "name": "_tokenShare",
          "type": "uint256"
        },
        {
          "internalType": "enum ICollateralPool.TokenExitType",
          "name": "_exitType",
          "type": "uint8"
        }
      ],
      "name": "exit",
      "outputs": [
        {
          "internalType": "uint256",
          "name": "",
          "type": "uint256"
        },
        {
          "internalType": "uint256",
          "name": "",
          "type": "uint256"
        }
      ],
      "stateMutability": "nonpayable",
      "type": "function"
    },
    {
      "inputs": [],
      "name": "exitCollateralRatioBIPS",
      "outputs": [
        {
          "internalType": "uint32",
          "name": "",
          "type": "uint32"
        }
      ],
      "stateMutability": "view",
      "type": "function"
    },
    {
      "inputs": [],
      "name": "fAsset",
      "outputs": [
        {
          "internalType": "contract IERC20",
          "name": "",
          "type": "address"
        }
      ],
      "stateMutability": "view",
      "type": "function"
    },
    {
      "inputs": [
        {
          "internalType": "address",
          "name": "_account",
          "type": "address"
        }
      ],
      "name": "fassetDebtOf",
      "outputs": [
        {
          "internalType": "uint256",
          "name": "",
          "type": "uint256"
        }
      ],
      "stateMutability": "view",
      "type": "function"
    },
    {
      "inputs": [
        {
          "internalType": "address",
          "name": "_account",
          "type": "address"
        }
      ],
      "name": "freeFassetOf",
      "outputs": [
        {
          "internalType": "uint256",
          "name": "",
          "type": "uint256"
        }
      ],
      "stateMutability": "view",
      "type": "function"
    },
    {
      "inputs": [
        {
          "internalType": "address",
          "name": "_account",
          "type": "address"
        }
      ],
      "name": "freeTokensOf",
      "outputs": [
        {
          "internalType": "uint256",
          "name": "",
          "type": "uint256"
        }
      ],
      "stateMutability": "view",
      "type": "function"
    },
    {
      "inputs": [
        {
          "internalType": "contract IDistributionToDelegators",
          "name": "_distribution",
          "type": "address"
        }
      ],
      "name": "optOutOfAirdrop",
      "outputs": [],
      "stateMutability": "nonpayable",
      "type": "function"
    },
    {
      "inputs": [
        {
          "internalType": "uint256",
          "name": "_fassets",
          "type": "uint256"
        }
      ],
      "name": "payFeeDebt",
      "outputs": [],
      "stateMutability": "nonpayable",
      "type": "function"
    },
    {
      "inputs": [
        {
          "internalType": "address",
          "name": "_recipient",
          "type": "address"
        },
        {
          "internalType": "uint256",
          "name": "_amount",
          "type": "uint256"
        },
        {
          "internalType": "uint256",
          "name": "_agentResponsibilityWei",
          "type": "uint256"
        }
      ],
      "name": "payout",
      "outputs": [],
      "stateMutability": "nonpayable",
      "type": "function"
    },
    {
      "inputs": [],
      "name": "poolFassetDebt",
      "outputs": [
        {
          "internalType": "uint256",
          "name": "",
          "type": "uint256"
        }
      ],
      "stateMutability": "view",
      "type": "function"
    },
    {
      "inputs": [],
      "name": "poolToken",
      "outputs": [
        {
          "internalType": "contract IERC20",
          "name": "",
          "type": "address"
        }
      ],
      "stateMutability": "view",
      "type": "function"
    },
    {
      "inputs": [
        {
          "internalType": "uint256",
          "name": "_tokenShare",
          "type": "uint256"
        },
        {
          "internalType": "enum ICollateralPool.TokenExitType",
          "name": "_exitType",
          "type": "uint8"
        },
        {
          "internalType": "bool",
          "name": "_redeemToCollateral",
          "type": "bool"
        },
        {
          "internalType": "string",
          "name": "_redeemerUnderlyingAddress",
          "type": "string"
        }
      ],
      "name": "selfCloseExit",
      "outputs": [],
      "stateMutability": "nonpayable",
      "type": "function"
    },
    {
      "inputs": [
        {
          "internalType": "uint256",
          "name": "_exitCollateralRatioBIPS",
          "type": "uint256"
        }
      ],
      "name": "setExitCollateralRatioBIPS",
      "outputs": [],
      "stateMutability": "nonpayable",
      "type": "function"
    },
    {
      "inputs": [
        {
          "internalType": "contract IClaimSetupManager",
          "name": "_claimSetupManager",
          "type": "address"
        },
        {
          "internalType": "address[]",
          "name": "_executors",
          "type": "address[]"
        }
      ],
      "name": "setFtsoAutoClaiming",
      "outputs": [],
      "stateMutability": "payable",
      "type": "function"
    },
    {
      "inputs": [
        {
          "internalType": "address",
          "name": "_poolToken",
          "type": "address"
        }
      ],
      "name": "setPoolToken",
      "outputs": [],
      "stateMutability": "nonpayable",
      "type": "function"
    },
    {
      "inputs": [
        {
          "internalType": "uint256",
          "name": "_topupCollateralRatioBIPS",
          "type": "uint256"
        }
      ],
      "name": "setTopupCollateralRatioBIPS",
      "outputs": [],
      "stateMutability": "nonpayable",
      "type": "function"
    },
    {
      "inputs": [
        {
          "internalType": "uint256",
          "name": "_topupTokenPriceFactorBIPS",
          "type": "uint256"
        }
      ],
      "name": "setTopupTokenPriceFactorBIPS",
      "outputs": [],
      "stateMutability": "nonpayable",
      "type": "function"
    },
    {
      "inputs": [],
      "name": "token",
      "outputs": [
        {
          "internalType": "contract CollateralPoolToken",
          "name": "",
          "type": "address"
        }
      ],
      "stateMutability": "view",
      "type": "function"
    },
    {
      "inputs": [],
      "name": "topupCollateralRatioBIPS",
      "outputs": [
        {
          "internalType": "uint32",
          "name": "",
          "type": "uint32"
        }
      ],
      "stateMutability": "view",
      "type": "function"
    },
    {
      "inputs": [],
      "name": "topupTokenPriceFactorBIPS",
      "outputs": [
        {
          "internalType": "uint16",
          "name": "",
          "type": "uint16"
        }
      ],
      "stateMutability": "view",
      "type": "function"
    },
    {
      "inputs": [
        {
          "internalType": "contract IWNat",
          "name": "_newWNat",
          "type": "address"
        }
      ],
      "name": "upgradeWNatContract",
      "outputs": [],
      "stateMutability": "nonpayable",
      "type": "function"
    },
    {
      "inputs": [
        {
          "internalType": "address",
          "name": "_account",
          "type": "address"
        }
      ],
      "name": "virtualFassetOf",
      "outputs": [
        {
          "internalType": "uint256",
          "name": "",
          "type": "uint256"
        }
      ],
      "stateMutability": "view",
      "type": "function"
    },
    {
      "inputs": [],
      "name": "wNat",
      "outputs": [
        {
          "internalType": "contract IWNat",
          "name": "",
          "type": "address"
        }
      ],
      "stateMutability": "view",
      "type": "function"
    },
    {
      "inputs": [
        {
          "internalType": "uint256",
          "name": "_fassets",
          "type": "uint256"
        }
      ],
      "name": "withdrawFees",
      "outputs": [],
      "stateMutability": "nonpayable",
      "type": "function"
    },
    {
      "stateMutability": "payable",
      "type": "receive"
    }
  ],
  "bytecode": "0x60e06040523480156200001157600080fd5b5060405162003c3c38038062003c3c83398101604081905262000034916200015a565b60016000556001600160a01b0380871660805285811660a081905290851660c05260408051635ad2445360e11b8152905163b5a488a6916004808201926020929091908290030181865afa15801562000091573d6000803e3d6000fd5b505050506040513d601f19601f82011682018060405250810190620000b79190620001ed565b6002805461ffff909316600160e01b0261ffff60e01b1963ffffffff958616600160c01b021665ffffffffffff60c01b1995909616600160a01b026001600160c01b03199094166001600160a01b0393909316929092179290921792909216929092171790555062000214915050565b6001600160a01b03811681146200013d57600080fd5b50565b805163ffffffff811681146200015557600080fd5b919050565b60008060008060008060c087890312156200017457600080fd5b8651620001818162000127565b6020880151909650620001948162000127565b6040880151909550620001a78162000127565b9350620001b76060880162000140565b9250620001c76080880162000140565b915060a087015161ffff81168114620001df57600080fd5b809150509295509295509295565b6000602082840312156200020057600080fd5b81516200020d8162000127565b9392505050565b60805160a05160c05161391862000324600039600081816104e80152818161084d01528181610bd901528181610c7901528181611123015281816111d5015281816114d6015281816118ab01528181611e4201528181611eea015261265c0152600081816105a80152818161072a01528181610d0d01528181610db301528181610e5a015281816116500152818161193101528181611afa01528181611bbd0152818161205c015281816123940152818161278d01528181612c9c01528181612da00152612f7701526000818161053401528181610de001528181610e870152818161218f0152818161221b0152818161224b0152818161228a0152818161275f0152612c6901526139186000f3fe6080604052600436106102075760003560e01c80637b6e1b5511610118578063adf58c15116100a0578063cbdf382c1161006f578063cbdf382c14610681578063f4d000b21461069f578063fb13445f146106bf578063fbebcadf146106df578063fc0c546a146106ff57600080fd5b8063adf58c151461061d578063b337929b1461063d578063b9e26483146102d8578063cb9d173b1461066157600080fd5b806388985cd6116100e757806388985cd61461057657806394217ad1146105965780639a4247e6146105ca5780639edbf007146105ea578063ac3736c11461060a57600080fd5b80637b6e1b55146104c35780637c7db1a5146104d6578063815ea9d61461052257806386ac57a21461055657600080fd5b80632f35eac21161019b5780634a4ac2ef1161016a5780634a4ac2ef146104025780634c818213146104375780635e318e071461046d5780636d5a4fc01461048d578063787b9ca8146104a357600080fd5b80632f35eac21461035457806333ce01fd146103895780633cfc747d146103a9578063406c7007146103e257600080fd5b80630dc1e5e1116101d75780630dc1e5e1146102d857806314a3ab80146102f45780631d4c75ff14610314578063275385c11461033457600080fd5b8062f55d9d1461026557806301a418361461028557806306d804da146102b85780630ac07344146102d857600080fd5b3661026057600254600160f01b900460ff1661025e5760405162461bcd60e51b81526020600482015260116024820152706f6e6c7920696e7465726e616c2075736560781b60448201526064015b60405180910390fd5b005b600080fd5b34801561027157600080fd5b5061025e610280366004613145565b61071f565b34801561029157600080fd5b506102a56102a0366004613145565b610988565b6040519081526020015b60405180910390f35b3480156102c457600080fd5b5061025e6102d33660046131cb565b6109a6565b3480156102e457600080fd5b506102a5670de0b6b3a764000081565b34801561030057600080fd5b5061025e61030f366004613325565b610fdf565b34801561032057600080fd5b506102a561032f366004613145565b61106c565b34801561034057600080fd5b5061025e61034f3660046133e0565b6110a7565b34801561036057600080fd5b5061037461036f3660046133f9565b611255565b604080519283526020830191909152016102af565b34801561039557600080fd5b5061025e6103a4366004613145565b611645565b3480156103b557600080fd5b506002546103cd90600160a01b900463ffffffff1681565b60405163ffffffff90911681526020016102af565b3480156103ee57600080fd5b506102a56103fd366004613425565b611701565b34801561040e57600080fd5b5060025461042490600160e01b900461ffff1681565b60405161ffff90911681526020016102af565b34801561044357600080fd5b506102a5610452366004613145565b6001600160a01b031660009081526003602052604090205490565b34801561047957600080fd5b5061025e6104883660046133e0565b6117b0565b34801561049957600080fd5b506102a560045481565b3480156104af57600080fd5b5061025e6104be3660046133e0565b611926565b61025e6104d1366004613451565b6119e8565b3480156104e257600080fd5b5061050a7f000000000000000000000000000000000000000000000000000000000000000081565b6040516001600160a01b0390911681526020016102af565b34801561052e57600080fd5b5061050a7f000000000000000000000000000000000000000000000000000000000000000081565b34801561056257600080fd5b5061025e610571366004613145565b611a74565b34801561058257600080fd5b5061025e6105913660046133e0565b611aef565b3480156105a257600080fd5b5061050a7f000000000000000000000000000000000000000000000000000000000000000081565b3480156105d657600080fd5b5061025e6105e53660046133e0565b611bb2565b3480156105f657600080fd5b5060025461050a906001600160a01b031681565b61025e6106183660046134a1565b611c64565b34801561062957600080fd5b5061025e6106383660046134d1565b612051565b34801561064957600080fd5b506002546103cd90600160c01b900463ffffffff1681565b34801561066d57600080fd5b506102a561067c366004613145565b612304565b34801561068d57600080fd5b506001546001600160a01b031661050a565b3480156106ab57600080fd5b5061025e6106ba366004613145565b612389565b3480156106cb57600080fd5b506102a56106da366004613145565b612552565b3480156106eb57600080fd5b5061025e6106fa366004613425565b612569565b34801561070b57600080fd5b5060015461050a906001600160a01b031681565b336001600160a01b037f000000000000000000000000000000000000000000000000000000000000000016146107675760405162461bcd60e51b815260040161025590613506565b6002546040516370a0823160e01b81523060048201526000916001600160a01b0316906370a0823190602401602060405180830381865afa1580156107b0573d6000803e3d6000fd5b505050506040513d601f19601f820116820180604052508101906107d49190613532565b905080156108355760405162461bcd60e51b815260206004820152602860248201527f63616e6e6f742064657374726f79206120706f6f6c20686f6c64696e6720636f6044820152671b1b185d195c985b60c21b6064820152608401610255565b6040516370a0823160e01b81523060048201526000907f00000000000000000000000000000000000000000000000000000000000000006001600160a01b0316906370a0823190602401602060405180830381865afa15801561089c573d6000803e3d6000fd5b505050506040513d601f19601f820116820180604052508101906108c09190613532565b9050801561091f5760405162461bcd60e51b815260206004820152602660248201527f63616e6e6f742064657374726f79206120706f6f6c20686f6c64696e6720662d60448201526561737365747360d01b6064820152608401610255565b60015460405162f55d9d60e01b81526001600160a01b0385811660048301529091169062f55d9d90602401600060405180830381600087803b15801561096457600080fd5b505af1158015610978573d6000803e3d6000fd5b50505050826001600160a01b0316ff5b600080610993612612565b905061099f838261288d565b9392505050565b600084116109ec5760405162461bcd60e51b8152602060048201526013602482015272746f6b656e207368617265206973207a65726f60681b6044820152606401610255565b6001546040516370a0823160e01b81523360048201526001600160a01b03909116906370a0823190602401602060405180830381865afa158015610a34573d6000803e3d6000fd5b505050506040513d601f19601f82011682018060405250810190610a589190613532565b841115610a9f5760405162461bcd60e51b8152602060048201526015602482015274746f6b656e2062616c616e636520746f6f206c6f7760581b6044820152606401610255565b6000610aa9612612565b8051909150851480610ad057508051670de0b6b3a764000090610acd908790613561565b10155b610aec5760405162461bcd60e51b815260040161025590613578565b80516040820151600091610b029190889061297e565b905060008111610b245760405162461bcd60e51b8152600401610255906135cc565b8082604001511480610b4d5750670de0b6b3a7640000818360400151610b4a9190613561565b10155b610b695760405162461bcd60e51b81526004016102559061360e565b600080610b7833898987612a96565b915091506000610b9b848660400151876020015161297e9092919063ffffffff16565b9050600081831015610cf757610bb18383613561565b604051636eb1769f60e11b815233600482015230602482015290915081906001600160a01b037f0000000000000000000000000000000000000000000000000000000000000000169063dd62ed3e90604401602060405180830381865afa158015610c20573d6000803e3d6000fd5b505050506040513d601f19601f82011682018060405250810190610c449190613532565b1015610c625760405162461bcd60e51b815260040161025590613660565b6040516323b872dd60e01b81526001600160a01b037f000000000000000000000000000000000000000000000000000000000000000016906323b872dd90610cb290339030908690600401613697565b6020604051808303816000875af1158015610cd1573d6000803e3d6000fd5b505050506040513d601f19601f82011682018060405250810190610cf591906136bb565b505b6000610d0382856136d8565b90508015610ee8577f00000000000000000000000000000000000000000000000000000000000000006001600160a01b031663ecaf1cdf6040518163ffffffff1660e01b8152600401602060405180830381865afa158015610d69573d6000803e3d6000fd5b505050506040513d601f19601f82011682018060405250810190610d8d9190613532565b811080610d975750885b15610e4357604051630ed000b360e41b81526001600160a01b037f0000000000000000000000000000000000000000000000000000000000000000169063ed000b3090610e0c907f00000000000000000000000000000000000000000000000000000000000000009033908690600401613697565b600060405180830381600087803b158015610e2657600080fd5b505af1158015610e3a573d6000803e3d6000fd5b50505050610ee8565b60405163f060b3f160e01b81526001600160a01b037f0000000000000000000000000000000000000000000000000000000000000000169063f060b3f190610eb5907f000000000000000000000000000000000000000000000000000000000000000090339086908e906004016136f0565b600060405180830381600087803b158015610ecf57600080fd5b505af1158015610ee3573d6000803e3d6000fd5b505050505b8415610ef857610ef83386612c08565b60025460405163a9059cbb60e01b8152336004820152602481018890526001600160a01b039091169063a9059cbb906044016020604051808303816000875af1158015610f49573d6000803e3d6000fd5b505050506040513d601f19601f82011682018060405250810190610f6d91906136bb565b50600154604051632770a7eb60e21b8152336004820152602481018d90526001600160a01b0390911690639dc29fac90604401600060405180830381600087803b158015610fba57600080fd5b505af1158015610fce573d6000803e3d6000fd5b505050505050505050505050505050565b610fe833612c52565b6110045760405162461bcd60e51b815260040161025590613768565b60025460405163dc4fcda760e01b81526001600160a01b039091169063dc4fcda79061103690859085906004016137d0565b600060405180830381600087803b15801561105057600080fd5b505af1158015611064573d6000803e3d6000fd5b505050505050565b600080611077612612565b6001600160a01b03841660009081526003602052604090205490915061109d8483612d09565b61099f9190613561565b336000908152600360205260409020548111156111065760405162461bcd60e51b815260206004820152601e60248201527f6465627420662d61737365742062616c616e636520746f6f20736d616c6c00006044820152606401610255565b604051636eb1769f60e11b815233600482015230602482015281907f00000000000000000000000000000000000000000000000000000000000000006001600160a01b03169063dd62ed3e90604401602060405180830381865afa158015611172573d6000803e3d6000fd5b505050506040513d601f19601f820116820180604052508101906111969190613532565b10156111b45760405162461bcd60e51b815260040161025590613660565b6111be3382612c08565b6040516323b872dd60e01b81526001600160a01b037f000000000000000000000000000000000000000000000000000000000000000016906323b872dd9061120e90339030908690600401613697565b6020604051808303816000875af115801561122d573d6000803e3d6000fd5b505050506040513d601f19601f8201168201806040525081019061125191906136bb565b5050565b6000806000841161129e5760405162461bcd60e51b8152602060048201526013602482015272746f6b656e207368617265206973207a65726f60681b6044820152606401610255565b6001546040516370a0823160e01b81523360048201526001600160a01b03909116906370a0823190602401602060405180830381865afa1580156112e6573d6000803e3d6000fd5b505050506040513d601f19601f8201168201806040525081019061130a9190613532565b8411156113515760405162461bcd60e51b8152602060048201526015602482015274746f6b656e2062616c616e636520746f6f206c6f7760581b6044820152606401610255565b600061135b612612565b805190915085148061138257508051670de0b6b3a76400009061137f908790613561565b10155b61139e5760405162461bcd60e51b815260040161025590613578565b604081015181516000916113b49188919061297e565b9050600081116113d65760405162461bcd60e51b8152600401610255906135cc565b80826040015114806113ff5750670de0b6b3a76400008183604001516113fc9190613561565b10155b61141b5760405162461bcd60e51b81526004016102559061360e565b61144881836040015161142e9190613561565b6020840151600254600160a01b900463ffffffff16612d99565b6114a05760405162461bcd60e51b815260206004820152602360248201527f636f6c6c61746572616c20726174696f2066616c6c732062656c6f77206578696044820152623a21a960e91b6064820152608401610255565b6000806114af33898987612a96565b9092509050801561154d5760405163a9059cbb60e01b8152336004820152602481018290527f00000000000000000000000000000000000000000000000000000000000000006001600160a01b03169063a9059cbb906044016020604051808303816000875af1158015611527573d6000803e3d6000fd5b505050506040513d601f19601f8201168201806040525081019061154b91906136bb565b505b811561155d5761155d3383612c08565b600154604051632770a7eb60e21b8152336004820152602481018a90526001600160a01b0390911690639dc29fac90604401600060405180830381600087803b1580156115a957600080fd5b505af11580156115bd573d6000803e3d6000fd5b505060025460405163a9059cbb60e01b8152336004820152602481018790526001600160a01b03909116925063a9059cbb91506044016020604051808303816000875af1158015611612573d6000803e3d6000fd5b505050506040513d601f19601f8201168201806040525081019061163691906136bb565b50919791965090945050505050565b336001600160a01b037f0000000000000000000000000000000000000000000000000000000000000000161461168d5760405162461bcd60e51b815260040161025590613506565b6001546001600160a01b0316156116df5760405162461bcd60e51b81526020600482015260166024820152751c1bdbdb081d1bdad95b88185b1c9958591e481cd95d60521b6044820152606401610255565b600180546001600160a01b0319166001600160a01b0392909216919091179055565b600061170c33612c52565b6117285760405162461bcd60e51b815260040161025590613768565b60405163596090c960e11b81523060048201819052602482015260448101839052600160648201526001600160a01b0384169063b2c12192906084016020604051808303816000875af1158015611783573d6000803e3d6000fd5b505050506040513d601f19601f820116820180604052508101906117a79190613532565b90505b92915050565b600081116118005760405162461bcd60e51b815260206004820181905260248201527f747279696e6720746f207769746864726177207a65726f20662d6173736574736044820152606401610255565b600061180a612612565b3360008181526003602052604081205492935091906118299084612d09565b6118339190613561565b9050808311156118855760405162461bcd60e51b815260206004820152601e60248201527f6672656520662d61737365742062616c616e636520746f6f20736d616c6c00006044820152606401610255565b61188f3384612e4e565b60405163a9059cbb60e01b8152336004820152602481018490527f00000000000000000000000000000000000000000000000000000000000000006001600160a01b03169063a9059cbb906044016020604051808303816000875af11580156118fc573d6000803e3d6000fd5b505050506040513d601f19601f8201168201806040525081019061192091906136bb565b50505050565b336001600160a01b037f0000000000000000000000000000000000000000000000000000000000000000161461196e5760405162461bcd60e51b815260040161025590613506565b600254600160c01b900463ffffffff1681116119bc5760405162461bcd60e51b815260206004820152600d60248201526c76616c756520746f6f206c6f7760981b6044820152606401610255565b6119c581612e8f565b600260146101000a81548163ffffffff021916908363ffffffff16021790555050565b6119f133612c52565b611a0d5760405162461bcd60e51b815260040161025590613768565b60405163e72dcdbb60e01b81526001600160a01b0383169063e72dcdbb903490611a3e908590600090600401613827565b6000604051808303818588803b158015611a5757600080fd5b505af1158015611a6b573d6000803e3d6000fd5b50505050505050565b611a7d33612c52565b611a995760405162461bcd60e51b815260040161025590613768565b806001600160a01b031663f2a1f7676040518163ffffffff1660e01b8152600401600060405180830381600087803b158015611ad457600080fd5b505af1158015611ae8573d6000803e3d6000fd5b5050505050565b336001600160a01b037f00000000000000000000000000000000000000000000000000000000000000001614611b375760405162461bcd60e51b815260040161025590613506565b600254600160a01b900463ffffffff168110611b865760405162461bcd60e51b815260206004820152600e60248201526d0ecc2d8eaca40e8dede40d0d2ced60931b6044820152606401610255565b611b8f81612e8f565b600260186101000a81548163ffffffff021916908363ffffffff16021790555050565b336001600160a01b037f00000000000000000000000000000000000000000000000000000000000000001614611bfa5760405162461bcd60e51b815260040161025590613506565b6127108110611c3c5760405162461bcd60e51b815260206004820152600e60248201526d0ecc2d8eaca40e8dede40d0d2ced60931b6044820152606401610255565b611c4581612ef8565b6002601c6101000a81548161ffff021916908361ffff16021790555050565b6000611c6e612612565b90506103e88160400151611c82919061384b565b81511115611cd25760405162461bcd60e51b815260206004820152601a60248201527f706f6f6c206e61742062616c616e636520746f6f20736d616c6c0000000000006044820152606401610255565b670de0b6b3a7640000341015611d2a5760405162461bcd60e51b815260206004820152601d60248201527f616d6f756e74206f66206e61742073656e7420697320746f6f206c6f770000006044820152606401610255565b8051611dd0578060400151341015611dd05760405162461bcd60e51b815260206004820152605e60248201527f696620706f6f6c20686173206e6f20746f6b656e732c2062757420686173206360448201527f6f6c6c61746572616c2c20796f75206e65656420746f2073656e64206174206c60648201527f65617374207468617420616d6f756e74206f6620636f6c6c61746572616c0000608482015260a401610255565b6000611ddc3483612f5b565b825190915060009015611e005782516080840151611dfb91849061297e565b611e03565b60005b9050600084611e1b57611e16868361310b565b611e1d565b815b90508015611f6857604051636eb1769f60e11b815233600482015230602482015281907f00000000000000000000000000000000000000000000000000000000000000006001600160a01b03169063dd62ed3e90604401602060405180830381865afa158015611e91573d6000803e3d6000fd5b505050506040513d601f19601f82011682018060405250810190611eb59190613532565b1015611ed35760405162461bcd60e51b815260040161025590613660565b6040516323b872dd60e01b81526001600160a01b037f000000000000000000000000000000000000000000000000000000000000000016906323b872dd90611f2390339030908690600401613697565b6020604051808303816000875af1158015611f42573d6000803e3d6000fd5b505050506040513d601f19601f82011682018060405250810190611f6691906136bb565b505b611f7b33611f768385613561565b612e4e565b600260009054906101000a90046001600160a01b03166001600160a01b031663d0e30db0346040518263ffffffff1660e01b81526004016000604051808303818588803b158015611fcb57600080fd5b505af1158015611fdf573d6000803e3d6000fd5b50506001546040516340c10f1960e01b8152336004820152602481018890526001600160a01b0390911693506340c10f1992506044019050600060405180830381600087803b15801561203157600080fd5b505af1158015612045573d6000803e3d6000fd5b50505050505050505050565b336001600160a01b037f000000000000000000000000000000000000000000000000000000000000000016146120995760405162461bcd60e51b815260040161025590613506565b600260005414156120ec5760405162461bcd60e51b815260206004820152601f60248201527f5265656e7472616e637947756172643a207265656e7472616e742063616c6c006044820152606401610255565b600260009081556120fb612612565b60025460405163a9059cbb60e01b81526001600160a01b0387811660048301526024820187905292935091169063a9059cbb906044016020604051808303816000875af1158015612150573d6000803e3d6000fd5b505050506040513d601f19601f8201168201806040525081019061217491906136bb565b506001546040516370a0823160e01b81526001600160a01b037f00000000000000000000000000000000000000000000000000000000000000008116600483015260009216906370a0823190602401602060405180830381865afa1580156121e0573d6000803e3d6000fd5b505050506040513d601f19601f820116820180604052508101906122049190613532565b90506000612212828561310b565b905060006122437f000000000000000000000000000000000000000000000000000000000000000083600287612a96565b5090506122707f000000000000000000000000000000000000000000000000000000000000000082612c08565b600154604051632770a7eb60e21b81526001600160a01b037f0000000000000000000000000000000000000000000000000000000000000000811660048301526024820185905290911690639dc29fac90604401600060405180830381600087803b1580156122de57600080fd5b505af11580156122f2573d6000803e3d6000fd5b50506001600055505050505050505050565b60008061230f612612565b905061231b838261288d565b6001546040516370a0823160e01b81526001600160a01b038681166004830152909116906370a0823190602401602060405180830381865afa158015612365573d6000803e3d6000fd5b505050506040513d601f19601f8201168201806040525081019061109d9190613532565b336001600160a01b037f000000000000000000000000000000000000000000000000000000000000000016146123d15760405162461bcd60e51b815260040161025590613506565b6002546001600160a01b03828116911614156123ea5750565b6002546040516370a0823160e01b81523060048201526000916001600160a01b0316906370a0823190602401602060405180830381865afa158015612433573d6000803e3d6000fd5b505050506040513d601f19601f820116820180604052508101906124579190613532565b60028054600160f01b60ff60f01b19821617909155604051632e1a7d4d60e01b8152600481018390529192506001600160a01b031690632e1a7d4d90602401600060405180830381600087803b1580156124b057600080fd5b505af11580156124c4573d6000803e3d6000fd5b50506002805460ff60f01b19169055505060408051630d0e30db60e41b815290516001600160a01b0384169163d0e30db091849160048082019260009290919082900301818588803b15801561251957600080fd5b505af115801561252d573d6000803e3d6000fd5b5050600280546001600160a01b0319166001600160a01b038716179055505050505b50565b60008061255d612612565b905061099f8382612d09565b61257233612c52565b61258e5760405162461bcd60e51b815260040161025590613768565b60405163596090c960e11b81523060048201819052602482015260448101829052600160648201526001600160a01b0383169063b2c12192906084016020604051808303816000875af11580156125e9573d6000803e3d6000fd5b505050506040513d601f19601f8201168201806040525081019061260d9190613532565b505050565b6126446040518060a0016040528060008152602001600081526020016000815260200160008152602001600081525090565b6040516370a0823160e01b81523060048201526000907f00000000000000000000000000000000000000000000000000000000000000006001600160a01b0316906370a0823190602401602060405180830381865afa1580156126ab573d6000803e3d6000fd5b505050506040513d601f19601f820116820180604052508101906126cf9190613532565b6040805160a081018083526001546318160ddd60e01b90915291519293509182916001600160a01b0316906318160ddd9060a4808501916020918187030181865afa158015612722573d6000803e3d6000fd5b505050506040513d601f19601f820116820180604052508101906127469190613532565b815260405163769bb15560e11b81526001600160a01b037f0000000000000000000000000000000000000000000000000000000000000000811660048301526020909201917f0000000000000000000000000000000000000000000000000000000000000000169063ed3762aa90602401602060405180830381865afa1580156127d4573d6000803e3d6000fd5b505050506040513d601f19601f820116820180604052508101906127f89190613532565b81526002546040516370a0823160e01b81523060048201526020909201916001600160a01b03909116906370a0823190602401602060405180830381865afa158015612848573d6000803e3d6000fd5b505050506040513d601f19601f8201168201806040525081019061286c9190613532565b81526020018281526020016004548361288591906136d8565b905292915050565b6001546040516370a0823160e01b81526001600160a01b03848116600483015260009283929116906370a0823190602401602060405180830381865afa1580156128db573d6000803e3d6000fd5b505050506040513d601f19601f820116820180604052508101906128ff9190613532565b9050806129105760009150506117aa565b6001600160a01b03841660009081526003602052604090205480612936575090506117aa565b8351608085015160009161294c9190859061297e565b9050600061295a8383613561565b6080870151875191925060009161297291849061297e565b98975050505050505050565b60008082116129c25760405162461bcd60e51b815260206004820152601060248201526f4469766973696f6e206279207a65726f60801b6044820152606401610255565b836129cf5750600061099f565b838302838582816129e2576129e261386a565b041415612a01578281816129f8576129f861386a565b0491505061099f565b506000612a0e8386613880565b90506000612a1c8487613894565b90506000612a2a8587613880565b90506000612a388688613894565b905085612a45828561384b565b612a4f9190613880565b612a59838561384b565b612a63838761384b565b88612a6e868961384b565b612a78919061384b565b612a8291906136d8565b612a8c91906136d8565b61297291906136d8565b6000806000612aa58785612d09565b6001600160a01b038881166000818152600360205260408082205460015491516370a0823160e01b815260048101949094529495509092612b38928b92909116906370a0823190602401602060405180830381865afa158015612b0c573d6000803e3d6000fd5b505050506040513d601f19601f82011682018060405250810190612b309190613532565b85919061297e565b90506000876002811115612b4e57612b4e6138a8565b1415612b8e576000612b608385613561565b9050612b6c828261310b565b9450818510612b7c576000612b86565b612b868583613561565b955050612bfc565b6001876002811115612ba257612ba26138a8565b1415612bd357612bb2818361310b565b9450808510612bc2576000612bcc565b612bcc8582613561565b9350612bfc565b60008211612be2576000612bed565b612bed82828561297e565b9450612bf98582613561565b93505b50505094509492505050565b6001600160a01b03821660009081526003602052604081208054839290612c30908490613561565b925050819055508060046000828254612c499190613561565b90915550505050565b60405163d6b93a9f60e01b81526001600160a01b037f00000000000000000000000000000000000000000000000000000000000000008116600483015282811660248301526000917f00000000000000000000000000000000000000000000000000000000000000009091169063d6b93a9f90604401602060405180830381865afa158015612ce5573d6000803e3d6000fd5b505050506040513d601f19601f820116820180604052508101906117aa91906136bb565b6001546040516370a0823160e01b81526001600160a01b03848116600483015260009283929116906370a0823190602401602060405180830381865afa158015612d57573d6000803e3d6000fd5b505050506040513d601f19601f82011682018060405250810190612d7b9190613532565b83516080850151919250612d919190839061297e565b949350505050565b60008060007f00000000000000000000000000000000000000000000000000000000000000006001600160a01b03166302312aec6040518163ffffffff1660e01b81526004016040805180830381865afa158015612dfb573d6000803e3d6000fd5b505050506040513d601f19601f82011682018060405250810190612e1f91906138be565b9092509050612e3884612e32848861384b565b90613121565b612e42828861384b565b10159695505050505050565b6001600160a01b03821660009081526003602052604081208054839290612e769084906136d8565b925050819055508060046000828254612c4991906136d8565b600063ffffffff821115612ef45760405162461bcd60e51b815260206004820152602660248201527f53616665436173743a2076616c756520646f65736e27742066697420696e203360448201526532206269747360d01b6064820152608401610255565b5090565b600061ffff821115612ef45760405162461bcd60e51b815260206004820152602660248201527f53616665436173743a2076616c756520646f65736e27742066697420696e203160448201526536206269747360d01b6064820152608401610255565b600080826040015160001480612f7057508251155b90506000807f00000000000000000000000000000000000000000000000000000000000000006001600160a01b03166302312aec6040518163ffffffff1660e01b81526004016040805180830381865afa158015612fd2573d6000803e3d6000fd5b505050506040513d601f19601f82011682018060405250810190612ff691906138be565b600254602088015192945090925060009161302391600160c01b900463ffffffff1690612e32908661384b565b90506000828760400151613037919061384b565b821161304457600061305d565b60408701516130538484613880565b61305d9190613561565b9050600061306b898361310b565b9050600089821061307d576000613087565b613087828b613561565b6002549091506000906130aa90849061271090600160e01b900461ffff1661297e565b90506000886130ca5760408b01518b516130c591859061297e565b6130cc565b825b90506000896130ec5760408c01518c516130e791859061297e565b6130ee565b825b90506130fa82826136d8565b9d9c50505050505050505050505050565b600081831061311a57816117a7565b5090919050565b60006117a7838361271061297e565b6001600160a01b038116811461254f57600080fd5b60006020828403121561315757600080fd5b813561099f81613130565b80356003811061317157600080fd5b919050565b801515811461254f57600080fd5b634e487b7160e01b600052604160045260246000fd5b604051601f8201601f1916810167ffffffffffffffff811182821017156131c3576131c3613184565b604052919050565b600080600080608085870312156131e157600080fd5b8435935060206131f2818701613162565b9350604086013561320281613176565b9250606086013567ffffffffffffffff8082111561321f57600080fd5b818801915088601f83011261323357600080fd5b81358181111561324557613245613184565b613257601f8201601f1916850161319a565b9150808252898482850101111561326d57600080fd5b808484018584013760008482840101525080935050505092959194509250565b600067ffffffffffffffff8211156132a7576132a7613184565b5060051b60200190565b600082601f8301126132c257600080fd5b813560206132d76132d28361328d565b61319a565b82815260059290921b840181019181810190868411156132f657600080fd5b8286015b8481101561331a57803561330d81613130565b83529183019183016132fa565b509695505050505050565b6000806040838503121561333857600080fd5b823567ffffffffffffffff8082111561335057600080fd5b61335c868387016132b1565b935060209150818501358181111561337357600080fd5b85019050601f8101861361338657600080fd5b80356133946132d28261328d565b81815260059190911b820183019083810190888311156133b357600080fd5b928401925b828410156133d1578335825292840192908401906133b8565b80955050505050509250929050565b6000602082840312156133f257600080fd5b5035919050565b6000806040838503121561340c57600080fd5b8235915061341c60208401613162565b90509250929050565b6000806040838503121561343857600080fd5b823561344381613130565b946020939093013593505050565b6000806040838503121561346457600080fd5b823561346f81613130565b9150602083013567ffffffffffffffff81111561348b57600080fd5b613497858286016132b1565b9150509250929050565b600080604083850312156134b457600080fd5b8235915060208301356134c681613176565b809150509250929050565b6000806000606084860312156134e657600080fd5b83356134f181613130565b95602085013595506040909401359392505050565b60208082526012908201527137b7363c9030b9b9b2ba1036b0b730b3b2b960711b604082015260600190565b60006020828403121561354457600080fd5b5051919050565b634e487b7160e01b600052601160045260246000fd5b6000828210156135735761357361354b565b500390565b60208082526034908201527f746f6b656e20737570706c79206c656674206166746572206578697420697320604082015273746f6f206c6f7720616e64206e6f6e2d7a65726f60601b606082015260800190565b60208082526022908201527f616d6f756e74206f662073656e7420746f6b656e7320697320746f6f20736d616040820152611b1b60f21b606082015260800190565b60208082526032908201527f636f6c6c61746572616c206c656674206166746572206578697420697320746f6040820152716f206c6f7720616e64206e6f6e2d7a65726f60701b606082015260800190565b6020808252601b908201527f662d617373657420616c6c6f77616e636520746f6f20736d616c6c0000000000604082015260600190565b6001600160a01b039384168152919092166020820152604081019190915260600190565b6000602082840312156136cd57600080fd5b815161099f81613176565b600082198211156136eb576136eb61354b565b500190565b600060018060a01b038087168352602081871681850152856040850152608060608501528451915081608085015260005b8281101561373d5785810182015185820160a001528101613721565b8281111561374f57600060a084870101525b5050601f01601f19169190910160a00195945050505050565b6020808252600a90820152691bdb9b1e481859d95b9d60b21b604082015260600190565b600081518084526020808501945080840160005b838110156137c55781516001600160a01b0316875295820195908201906001016137a0565b509495945050505050565b6040815260006137e3604083018561378c565b82810360208481019190915284518083528582019282019060005b8181101561381a578451835293830193918301916001016137fe565b5090979650505050505050565b60408152600061383a604083018561378c565b905082151560208301529392505050565b60008160001904831182151516156138655761386561354b565b500290565b634e487b7160e01b600052601260045260246000fd5b60008261388f5761388f61386a565b500490565b6000826138a3576138a361386a565b500690565b634e487b7160e01b600052602160045260246000fd5b600080604083850312156138d157600080fd5b50508051602090910151909290915056fea26469706673582212201cc237c13b218b22beea3ec635a075ce82563bad58746e0bb2dd560ee33cc63b64736f6c634300080b0033",
  "linkReferences": {},
  "deployedLinkReferences": {}
}