{
  "_format": "hh-sol-artifact-1",
  "contractName": "CollateralPool",
  "sourceName": "contracts/fasset/implementation/CollateralPool.sol",
  "abi": [
    {
      "inputs": [
        {
          "internalType": "address",
          "name": "_agentVault",
          "type": "address"
        },
        {
          "internalType": "address",
          "name": "_assetManager",
          "type": "address"
        },
        {
          "internalType": "address",
          "name": "_fAsset",
          "type": "address"
        },
        {
          "internalType": "uint32",
          "name": "_exitCollateralRatioBIPS",
          "type": "uint32"
        },
        {
          "internalType": "uint32",
          "name": "_topupCollateralRatioBIPS",
          "type": "uint32"
        },
        {
          "internalType": "uint16",
          "name": "_topupTokenPriceFactorBIPS",
          "type": "uint16"
        }
      ],
      "stateMutability": "nonpayable",
      "type": "constructor"
    },
    {
      "inputs": [],
      "name": "MIN_NAT_BALANCE_AFTER_EXIT",
      "outputs": [
        {
          "internalType": "uint256",
          "name": "",
          "type": "uint256"
        }
      ],
      "stateMutability": "view",
      "type": "function"
    },
    {
      "inputs": [],
      "name": "MIN_NAT_TO_ENTER",
      "outputs": [
        {
          "internalType": "uint256",
          "name": "",
          "type": "uint256"
        }
      ],
      "stateMutability": "view",
      "type": "function"
    },
    {
      "inputs": [],
      "name": "MIN_TOKEN_SUPPLY_AFTER_EXIT",
      "outputs": [
        {
          "internalType": "uint256",
          "name": "",
          "type": "uint256"
        }
      ],
      "stateMutability": "view",
      "type": "function"
    },
    {
      "inputs": [],
      "name": "agentVault",
      "outputs": [
        {
          "internalType": "address",
          "name": "",
          "type": "address"
        }
      ],
      "stateMutability": "view",
      "type": "function"
    },
    {
      "inputs": [],
      "name": "assetManager",
      "outputs": [
        {
          "internalType": "contract IAssetManager",
          "name": "",
          "type": "address"
        }
      ],
      "stateMutability": "view",
      "type": "function"
    },
    {
      "inputs": [
        {
          "internalType": "contract IDistributionToDelegators",
          "name": "_distribution",
          "type": "address"
        },
        {
          "internalType": "uint256",
          "name": "_month",
          "type": "uint256"
        }
      ],
      "name": "claimAirdropDistribution",
      "outputs": [
        {
          "internalType": "uint256",
          "name": "",
          "type": "uint256"
        }
      ],
      "stateMutability": "nonpayable",
      "type": "function"
    },
    {
      "inputs": [
        {
          "internalType": "contract IFtsoRewardManager",
          "name": "_ftsoRewardManager",
          "type": "address"
        },
        {
          "internalType": "uint256",
          "name": "_lastRewardEpoch",
          "type": "uint256"
        }
      ],
      "name": "claimFtsoRewards",
      "outputs": [],
      "stateMutability": "nonpayable",
      "type": "function"
    },
    {
      "inputs": [
        {
          "internalType": "address",
          "name": "_account",
          "type": "address"
        }
      ],
      "name": "debtTokensOf",
      "outputs": [
        {
          "internalType": "uint256",
          "name": "",
          "type": "uint256"
        }
      ],
      "stateMutability": "view",
      "type": "function"
    },
    {
      "inputs": [
        {
          "internalType": "address[]",
          "name": "_to",
          "type": "address[]"
        },
        {
          "internalType": "uint256[]",
          "name": "_bips",
          "type": "uint256[]"
        }
      ],
      "name": "delegateCollateral",
      "outputs": [],
      "stateMutability": "nonpayable",
      "type": "function"
    },
    {
      "inputs": [
        {
          "internalType": "address payable",
          "name": "_recipient",
          "type": "address"
        }
      ],
      "name": "destroy",
      "outputs": [],
      "stateMutability": "nonpayable",
      "type": "function"
    },
    {
      "inputs": [
        {
          "internalType": "uint256",
          "name": "_fassets",
          "type": "uint256"
        },
        {
          "internalType": "bool",
          "name": "_enterWithFullFassets",
          "type": "bool"
        }
      ],
      "name": "enter",
      "outputs": [],
      "stateMutability": "payable",
      "type": "function"
    },
    {
      "inputs": [
        {
          "internalType": "uint256",
          "name": "_tokenShare",
          "type": "uint256"
        },
        {
          "internalType": "enum ICollateralPool.TokenExitType",
          "name": "_exitType",
          "type": "uint8"
        }
      ],
      "name": "exit",
      "outputs": [
        {
          "internalType": "uint256",
          "name": "",
          "type": "uint256"
        },
        {
          "internalType": "uint256",
          "name": "",
          "type": "uint256"
        }
      ],
      "stateMutability": "nonpayable",
      "type": "function"
    },
    {
      "inputs": [],
      "name": "exitCollateralRatioBIPS",
      "outputs": [
        {
          "internalType": "uint32",
          "name": "",
          "type": "uint32"
        }
      ],
      "stateMutability": "view",
      "type": "function"
    },
    {
      "inputs": [],
      "name": "fAsset",
      "outputs": [
        {
          "internalType": "contract IERC20",
          "name": "",
          "type": "address"
        }
      ],
      "stateMutability": "view",
      "type": "function"
    },
    {
      "inputs": [
        {
          "internalType": "address",
          "name": "_account",
          "type": "address"
        }
      ],
      "name": "fassetDebtOf",
      "outputs": [
        {
          "internalType": "uint256",
          "name": "",
          "type": "uint256"
        }
      ],
      "stateMutability": "view",
      "type": "function"
    },
    {
      "inputs": [
        {
          "internalType": "address",
          "name": "_account",
          "type": "address"
        }
      ],
      "name": "freeFassetOf",
      "outputs": [
        {
          "internalType": "uint256",
          "name": "",
          "type": "uint256"
        }
      ],
      "stateMutability": "view",
      "type": "function"
    },
    {
      "inputs": [
        {
          "internalType": "address",
          "name": "_account",
          "type": "address"
        }
      ],
      "name": "freeTokensOf",
      "outputs": [
        {
          "internalType": "uint256",
          "name": "",
          "type": "uint256"
        }
      ],
      "stateMutability": "view",
      "type": "function"
    },
    {
      "inputs": [
        {
          "internalType": "contract IDistributionToDelegators",
          "name": "_distribution",
          "type": "address"
        }
      ],
      "name": "optOutOfAirdrop",
      "outputs": [],
      "stateMutability": "nonpayable",
      "type": "function"
    },
    {
      "inputs": [
        {
          "internalType": "uint256",
          "name": "_fassets",
          "type": "uint256"
        }
      ],
      "name": "payFeeDebt",
      "outputs": [],
      "stateMutability": "nonpayable",
      "type": "function"
    },
    {
      "inputs": [
        {
          "internalType": "address",
          "name": "_recipient",
          "type": "address"
        },
        {
          "internalType": "uint256",
          "name": "_amount",
          "type": "uint256"
        },
        {
          "internalType": "uint256",
          "name": "_agentResponsibilityWei",
          "type": "uint256"
        }
      ],
      "name": "payout",
      "outputs": [],
      "stateMutability": "nonpayable",
      "type": "function"
    },
    {
      "inputs": [],
      "name": "poolFassetDebt",
      "outputs": [
        {
          "internalType": "uint256",
          "name": "",
          "type": "uint256"
        }
      ],
      "stateMutability": "view",
      "type": "function"
    },
    {
      "inputs": [],
      "name": "poolToken",
      "outputs": [
        {
          "internalType": "contract IERC20",
          "name": "",
          "type": "address"
        }
      ],
      "stateMutability": "view",
      "type": "function"
    },
    {
      "inputs": [
        {
          "internalType": "uint256",
          "name": "_tokenShare",
          "type": "uint256"
        },
        {
          "internalType": "enum ICollateralPool.TokenExitType",
          "name": "_exitType",
          "type": "uint8"
        },
        {
          "internalType": "bool",
          "name": "_redeemToCollateral",
          "type": "bool"
        },
        {
          "internalType": "string",
          "name": "_redeemerUnderlyingAddress",
          "type": "string"
        }
      ],
      "name": "selfCloseExit",
      "outputs": [],
      "stateMutability": "nonpayable",
      "type": "function"
    },
    {
      "inputs": [
        {
          "internalType": "uint256",
          "name": "_exitCollateralRatioBIPS",
          "type": "uint256"
        }
      ],
      "name": "setExitCollateralRatioBIPS",
      "outputs": [],
      "stateMutability": "nonpayable",
      "type": "function"
    },
    {
      "inputs": [
        {
          "internalType": "contract IClaimSetupManager",
          "name": "_claimSetupManager",
          "type": "address"
        },
        {
          "internalType": "address[]",
          "name": "_executors",
          "type": "address[]"
        }
      ],
      "name": "setFtsoAutoClaiming",
      "outputs": [],
      "stateMutability": "payable",
      "type": "function"
    },
    {
      "inputs": [
        {
          "internalType": "address",
          "name": "_poolToken",
          "type": "address"
        }
      ],
      "name": "setPoolToken",
      "outputs": [],
      "stateMutability": "nonpayable",
      "type": "function"
    },
    {
      "inputs": [
        {
          "internalType": "uint256",
          "name": "_topupCollateralRatioBIPS",
          "type": "uint256"
        }
      ],
      "name": "setTopupCollateralRatioBIPS",
      "outputs": [],
      "stateMutability": "nonpayable",
      "type": "function"
    },
    {
      "inputs": [
        {
          "internalType": "uint256",
          "name": "_topupTokenPriceFactorBIPS",
          "type": "uint256"
        }
      ],
      "name": "setTopupTokenPriceFactorBIPS",
      "outputs": [],
      "stateMutability": "nonpayable",
      "type": "function"
    },
    {
      "inputs": [],
      "name": "token",
      "outputs": [
        {
          "internalType": "contract CollateralPoolToken",
          "name": "",
          "type": "address"
        }
      ],
      "stateMutability": "view",
      "type": "function"
    },
    {
      "inputs": [],
      "name": "topupCollateralRatioBIPS",
      "outputs": [
        {
          "internalType": "uint32",
          "name": "",
          "type": "uint32"
        }
      ],
      "stateMutability": "view",
      "type": "function"
    },
    {
      "inputs": [],
      "name": "topupTokenPriceFactorBIPS",
      "outputs": [
        {
          "internalType": "uint16",
          "name": "",
          "type": "uint16"
        }
      ],
      "stateMutability": "view",
      "type": "function"
    },
    {
      "inputs": [
        {
          "internalType": "contract IWNat",
          "name": "_newWNat",
          "type": "address"
        }
      ],
      "name": "upgradeWNatContract",
      "outputs": [],
      "stateMutability": "nonpayable",
      "type": "function"
    },
    {
      "inputs": [
        {
          "internalType": "address",
          "name": "_account",
          "type": "address"
        }
      ],
      "name": "virtualFassetOf",
      "outputs": [
        {
          "internalType": "uint256",
          "name": "",
          "type": "uint256"
        }
      ],
      "stateMutability": "view",
      "type": "function"
    },
    {
      "inputs": [],
      "name": "wNat",
      "outputs": [
        {
          "internalType": "contract IWNat",
          "name": "",
          "type": "address"
        }
      ],
      "stateMutability": "view",
      "type": "function"
    },
    {
      "inputs": [
        {
          "internalType": "uint256",
          "name": "_fassets",
          "type": "uint256"
        }
      ],
      "name": "withdrawFees",
      "outputs": [],
      "stateMutability": "nonpayable",
      "type": "function"
    },
    {
      "stateMutability": "payable",
      "type": "receive"
    }
  ],
  "bytecode": "0x60e06040523480156200001157600080fd5b5060405162003c9338038062003c9383398101604081905262000034916200015a565b60016000556001600160a01b0380871660805285811660a081905290851660c05260408051635ad2445360e11b8152905163b5a488a6916004808201926020929091908290030181865afa15801562000091573d6000803e3d6000fd5b505050506040513d601f19601f82011682018060405250810190620000b79190620001ed565b6002805461ffff909316600160e01b0261ffff60e01b1963ffffffff958616600160c01b021665ffffffffffff60c01b1995909616600160a01b026001600160c01b03199094166001600160a01b0393909316929092179290921792909216929092171790555062000214915050565b6001600160a01b03811681146200013d57600080fd5b50565b805163ffffffff811681146200015557600080fd5b919050565b60008060008060008060c087890312156200017457600080fd5b8651620001818162000127565b6020880151909650620001948162000127565b6040880151909550620001a78162000127565b9350620001b76060880162000140565b9250620001c76080880162000140565b915060a087015161ffff81168114620001df57600080fd5b809150509295509295509295565b6000602082840312156200020057600080fd5b81516200020d8162000127565b9392505050565b60805160a05160c0516139766200031d600039600081816104e80152818161084d01528181610c8001528181610d20015281816111ca0152818161127c0152818161156d0152818161194201528181611ed901528181611f8101526127010152600081816105a80152818161072a01528181610db401528181610e5a01528181610f01015281816116e7015281816119c801528181611b9101528181611c54015281816120f30152818161242b0152818161277b015281816128c70152612e3c01526000818161053401528181610e8701528181610f2e01528181612226015281816122b2015281816122e201528181612321015281816128990152612e0901526139766000f3fe6080604052600436106102075760003560e01c80637b6e1b5511610118578063adf58c15116100a0578063cbdf382c1161006f578063cbdf382c14610681578063f4d000b21461069f578063fb13445f146106bf578063fbebcadf146106df578063fc0c546a146106ff57600080fd5b8063adf58c151461061d578063b337929b1461063d578063b9e26483146102d8578063cb9d173b1461066157600080fd5b806388985cd6116100e757806388985cd61461057657806394217ad1146105965780639a4247e6146105ca5780639edbf007146105ea578063ac3736c11461060a57600080fd5b80637b6e1b55146104c35780637c7db1a5146104d6578063815ea9d61461052257806386ac57a21461055657600080fd5b80632f35eac21161019b5780634a4ac2ef1161016a5780634a4ac2ef146104025780634c818213146104375780635e318e071461046d5780636d5a4fc01461048d578063787b9ca8146104a357600080fd5b80632f35eac21461035457806333ce01fd146103895780633cfc747d146103a9578063406c7007146103e257600080fd5b80630dc1e5e1116101d75780630dc1e5e1146102d857806314a3ab80146102f45780631d4c75ff14610314578063275385c11461033457600080fd5b8062f55d9d1461026557806301a418361461028557806306d804da146102b85780630ac07344146102d857600080fd5b3661026057600254600160f01b900460ff1661025e5760405162461bcd60e51b81526020600482015260116024820152706f6e6c7920696e7465726e616c2075736560781b60448201526064015b60405180910390fd5b005b600080fd5b34801561027157600080fd5b5061025e6102803660046131a3565b61071f565b34801561029157600080fd5b506102a56102a03660046131a3565b610988565b6040519081526020015b60405180910390f35b3480156102c457600080fd5b5061025e6102d3366004613229565b6109a6565b3480156102e457600080fd5b506102a5670de0b6b3a764000081565b34801561030057600080fd5b5061025e61030f366004613383565b611086565b34801561032057600080fd5b506102a561032f3660046131a3565b611113565b34801561034057600080fd5b5061025e61034f36600461343e565b61114e565b34801561036057600080fd5b5061037461036f366004613457565b6112fc565b604080519283526020830191909152016102af565b34801561039557600080fd5b5061025e6103a43660046131a3565b6116dc565b3480156103b557600080fd5b506002546103cd90600160a01b900463ffffffff1681565b60405163ffffffff90911681526020016102af565b3480156103ee57600080fd5b506102a56103fd366004613483565b611798565b34801561040e57600080fd5b5060025461042490600160e01b900461ffff1681565b60405161ffff90911681526020016102af565b34801561044357600080fd5b506102a56104523660046131a3565b6001600160a01b031660009081526003602052604090205490565b34801561047957600080fd5b5061025e61048836600461343e565b611847565b34801561049957600080fd5b506102a560045481565b3480156104af57600080fd5b5061025e6104be36600461343e565b6119bd565b61025e6104d13660046134af565b611a7f565b3480156104e257600080fd5b5061050a7f000000000000000000000000000000000000000000000000000000000000000081565b6040516001600160a01b0390911681526020016102af565b34801561052e57600080fd5b5061050a7f000000000000000000000000000000000000000000000000000000000000000081565b34801561056257600080fd5b5061025e6105713660046131a3565b611b0b565b34801561058257600080fd5b5061025e61059136600461343e565b611b86565b3480156105a257600080fd5b5061050a7f000000000000000000000000000000000000000000000000000000000000000081565b3480156105d657600080fd5b5061025e6105e536600461343e565b611c49565b3480156105f657600080fd5b5060025461050a906001600160a01b031681565b61025e6106183660046134ff565b611cfb565b34801561062957600080fd5b5061025e61063836600461352f565b6120e8565b34801561064957600080fd5b506002546103cd90600160c01b900463ffffffff1681565b34801561066d57600080fd5b506102a561067c3660046131a3565b61239b565b34801561068d57600080fd5b506001546001600160a01b031661050a565b3480156106ab57600080fd5b5061025e6106ba3660046131a3565b612420565b3480156106cb57600080fd5b506102a56106da3660046131a3565b6125e9565b3480156106eb57600080fd5b5061025e6106fa366004613483565b612600565b34801561070b57600080fd5b5060015461050a906001600160a01b031681565b336001600160a01b037f000000000000000000000000000000000000000000000000000000000000000016146107675760405162461bcd60e51b815260040161025590613564565b6002546040516370a0823160e01b81523060048201526000916001600160a01b0316906370a0823190602401602060405180830381865afa1580156107b0573d6000803e3d6000fd5b505050506040513d601f19601f820116820180604052508101906107d49190613590565b905080156108355760405162461bcd60e51b815260206004820152602860248201527f63616e6e6f742064657374726f79206120706f6f6c20686f6c64696e6720636f6044820152671b1b185d195c985b60c21b6064820152608401610255565b6040516370a0823160e01b81523060048201526000907f00000000000000000000000000000000000000000000000000000000000000006001600160a01b0316906370a0823190602401602060405180830381865afa15801561089c573d6000803e3d6000fd5b505050506040513d601f19601f820116820180604052508101906108c09190613590565b9050801561091f5760405162461bcd60e51b815260206004820152602660248201527f63616e6e6f742064657374726f79206120706f6f6c20686f6c64696e6720662d60448201526561737365747360d01b6064820152608401610255565b60015460405162f55d9d60e01b81526001600160a01b0385811660048301529091169062f55d9d90602401600060405180830381600087803b15801561096457600080fd5b505af1158015610978573d6000803e3d6000fd5b50505050826001600160a01b0316ff5b6000806109936126a9565b905061099f83826129d5565b9392505050565b600084116109ec5760405162461bcd60e51b8152602060048201526013602482015272746f6b656e207368617265206973207a65726f60681b6044820152606401610255565b6001546040516370a0823160e01b81523360048201526001600160a01b03909116906370a0823190602401602060405180830381865afa158015610a34573d6000803e3d6000fd5b505050506040513d601f19601f82011682018060405250810190610a589190613590565b841115610a9f5760405162461bcd60e51b8152602060048201526015602482015274746f6b656e2062616c616e636520746f6f206c6f7760581b6044820152606401610255565b6000610aa96126a9565b8051909150851480610ad057508051670de0b6b3a764000090610acd9087906135bf565b10155b610aec5760405162461bcd60e51b8152600401610255906135d6565b80516040820151600091610b0291908890612ac6565b905060008111610b245760405162461bcd60e51b81526004016102559061362a565b8082604001511480610b4d5750670de0b6b3a7640000818360400151610b4a91906135bf565b10155b610b695760405162461bcd60e51b81526004016102559061366c565b600080610b7833898987612bde565b915091506000610ba2856000600260149054906101000a900463ffffffff1663ffffffff16612d50565b15610c2c5760025460a0860151600091610bcd919063ffffffff600160a01b909104811690612d9916565b90506000858760400151610be191906135bf565b8760c00151610bf091906136be565b90506000610bfe83836136f3565b905080886020015111610c12576000610c22565b808860200151610c2291906135bf565b9350505050610c44565b60408501516020860151610c41918690612ac6565b90505b600081831015610d9e57610c5883836135bf565b604051636eb1769f60e11b815233600482015230602482015290915081906001600160a01b037f0000000000000000000000000000000000000000000000000000000000000000169063dd62ed3e90604401602060405180830381865afa158015610cc7573d6000803e3d6000fd5b505050506040513d601f19601f82011682018060405250810190610ceb9190613590565b1015610d095760405162461bcd60e51b815260040161025590613707565b6040516323b872dd60e01b81526001600160a01b037f000000000000000000000000000000000000000000000000000000000000000016906323b872dd90610d599033903090869060040161373e565b6020604051808303816000875af1158015610d78573d6000803e3d6000fd5b505050506040513d601f19601f82011682018060405250810190610d9c9190613762565b505b6000610daa828561377f565b90508015610f8f577f00000000000000000000000000000000000000000000000000000000000000006001600160a01b031663ecaf1cdf6040518163ffffffff1660e01b8152600401602060405180830381865afa158015610e10573d6000803e3d6000fd5b505050506040513d601f19601f82011682018060405250810190610e349190613590565b811080610e3e5750885b15610eea57604051630ed000b360e41b81526001600160a01b037f0000000000000000000000000000000000000000000000000000000000000000169063ed000b3090610eb3907f0000000000000000000000000000000000000000000000000000000000000000903390869060040161373e565b600060405180830381600087803b158015610ecd57600080fd5b505af1158015610ee1573d6000803e3d6000fd5b50505050610f8f565b60405163f060b3f160e01b81526001600160a01b037f0000000000000000000000000000000000000000000000000000000000000000169063f060b3f190610f5c907f000000000000000000000000000000000000000000000000000000000000000090339086908e90600401613797565b600060405180830381600087803b158015610f7657600080fd5b505af1158015610f8a573d6000803e3d6000fd5b505050505b8415610f9f57610f9f3386612da8565b60025460405163a9059cbb60e01b8152336004820152602481018890526001600160a01b039091169063a9059cbb906044016020604051808303816000875af1158015610ff0573d6000803e3d6000fd5b505050506040513d601f19601f820116820180604052508101906110149190613762565b50600154604051632770a7eb60e21b8152336004820152602481018d90526001600160a01b0390911690639dc29fac90604401600060405180830381600087803b15801561106157600080fd5b505af1158015611075573d6000803e3d6000fd5b505050505050505050505050505050565b61108f33612df2565b6110ab5760405162461bcd60e51b81526004016102559061380f565b60025460405163dc4fcda760e01b81526001600160a01b039091169063dc4fcda7906110dd9085908590600401613877565b600060405180830381600087803b1580156110f757600080fd5b505af115801561110b573d6000803e3d6000fd5b505050505050565b60008061111e6126a9565b6001600160a01b0384166000908152600360205260409020549091506111448483612ea9565b61099f91906135bf565b336000908152600360205260409020548111156111ad5760405162461bcd60e51b815260206004820152601e60248201527f6465627420662d61737365742062616c616e636520746f6f20736d616c6c00006044820152606401610255565b604051636eb1769f60e11b815233600482015230602482015281907f00000000000000000000000000000000000000000000000000000000000000006001600160a01b03169063dd62ed3e90604401602060405180830381865afa158015611219573d6000803e3d6000fd5b505050506040513d601f19601f8201168201806040525081019061123d9190613590565b101561125b5760405162461bcd60e51b815260040161025590613707565b6112653382612da8565b6040516323b872dd60e01b81526001600160a01b037f000000000000000000000000000000000000000000000000000000000000000016906323b872dd906112b59033903090869060040161373e565b6020604051808303816000875af11580156112d4573d6000803e3d6000fd5b505050506040513d601f19601f820116820180604052508101906112f89190613762565b5050565b600080600084116113455760405162461bcd60e51b8152602060048201526013602482015272746f6b656e207368617265206973207a65726f60681b6044820152606401610255565b6001546040516370a0823160e01b81523360048201526001600160a01b03909116906370a0823190602401602060405180830381865afa15801561138d573d6000803e3d6000fd5b505050506040513d601f19601f820116820180604052508101906113b19190613590565b8411156113f85760405162461bcd60e51b8152602060048201526015602482015274746f6b656e2062616c616e636520746f6f206c6f7760581b6044820152606401610255565b60006114026126a9565b805190915085148061142957508051670de0b6b3a7640000906114269087906135bf565b10155b6114455760405162461bcd60e51b8152600401610255906135d6565b6040810151815160009161145b91889190612ac6565b90506000811161147d5760405162461bcd60e51b81526004016102559061362a565b80826040015114806114a65750670de0b6b3a76400008183604001516114a391906135bf565b10155b6114c25760405162461bcd60e51b81526004016102559061366c565b6002546114df9083908390600160a01b900463ffffffff16612d50565b6115375760405162461bcd60e51b815260206004820152602360248201527f636f6c6c61746572616c20726174696f2066616c6c732062656c6f77206578696044820152623a21a960e91b6064820152608401610255565b60008061154633898987612bde565b909250905080156115e45760405163a9059cbb60e01b8152336004820152602481018290527f00000000000000000000000000000000000000000000000000000000000000006001600160a01b03169063a9059cbb906044016020604051808303816000875af11580156115be573d6000803e3d6000fd5b505050506040513d601f19601f820116820180604052508101906115e29190613762565b505b81156115f4576115f43383612da8565b600154604051632770a7eb60e21b8152336004820152602481018a90526001600160a01b0390911690639dc29fac90604401600060405180830381600087803b15801561164057600080fd5b505af1158015611654573d6000803e3d6000fd5b505060025460405163a9059cbb60e01b8152336004820152602481018790526001600160a01b03909116925063a9059cbb91506044016020604051808303816000875af11580156116a9573d6000803e3d6000fd5b505050506040513d601f19601f820116820180604052508101906116cd9190613762565b50919791965090945050505050565b336001600160a01b037f000000000000000000000000000000000000000000000000000000000000000016146117245760405162461bcd60e51b815260040161025590613564565b6001546001600160a01b0316156117765760405162461bcd60e51b81526020600482015260166024820152751c1bdbdb081d1bdad95b88185b1c9958591e481cd95d60521b6044820152606401610255565b600180546001600160a01b0319166001600160a01b0392909216919091179055565b60006117a333612df2565b6117bf5760405162461bcd60e51b81526004016102559061380f565b60405163596090c960e11b81523060048201819052602482015260448101839052600160648201526001600160a01b0384169063b2c12192906084016020604051808303816000875af115801561181a573d6000803e3d6000fd5b505050506040513d601f19601f8201168201806040525081019061183e9190613590565b90505b92915050565b600081116118975760405162461bcd60e51b815260206004820181905260248201527f747279696e6720746f207769746864726177207a65726f20662d6173736574736044820152606401610255565b60006118a16126a9565b3360008181526003602052604081205492935091906118c09084612ea9565b6118ca91906135bf565b90508083111561191c5760405162461bcd60e51b815260206004820152601e60248201527f6672656520662d61737365742062616c616e636520746f6f20736d616c6c00006044820152606401610255565b6119263384612f39565b60405163a9059cbb60e01b8152336004820152602481018490527f00000000000000000000000000000000000000000000000000000000000000006001600160a01b03169063a9059cbb906044016020604051808303816000875af1158015611993573d6000803e3d6000fd5b505050506040513d601f19601f820116820180604052508101906119b79190613762565b50505050565b336001600160a01b037f00000000000000000000000000000000000000000000000000000000000000001614611a055760405162461bcd60e51b815260040161025590613564565b600254600160c01b900463ffffffff168111611a535760405162461bcd60e51b815260206004820152600d60248201526c76616c756520746f6f206c6f7760981b6044820152606401610255565b611a5c81612f7a565b600260146101000a81548163ffffffff021916908363ffffffff16021790555050565b611a8833612df2565b611aa45760405162461bcd60e51b81526004016102559061380f565b60405163e72dcdbb60e01b81526001600160a01b0383169063e72dcdbb903490611ad59085906000906004016138ce565b6000604051808303818588803b158015611aee57600080fd5b505af1158015611b02573d6000803e3d6000fd5b50505050505050565b611b1433612df2565b611b305760405162461bcd60e51b81526004016102559061380f565b806001600160a01b031663f2a1f7676040518163ffffffff1660e01b8152600401600060405180830381600087803b158015611b6b57600080fd5b505af1158015611b7f573d6000803e3d6000fd5b5050505050565b336001600160a01b037f00000000000000000000000000000000000000000000000000000000000000001614611bce5760405162461bcd60e51b815260040161025590613564565b600254600160a01b900463ffffffff168110611c1d5760405162461bcd60e51b815260206004820152600e60248201526d0ecc2d8eaca40e8dede40d0d2ced60931b6044820152606401610255565b611c2681612f7a565b600260186101000a81548163ffffffff021916908363ffffffff16021790555050565b336001600160a01b037f00000000000000000000000000000000000000000000000000000000000000001614611c915760405162461bcd60e51b815260040161025590613564565b6127108110611cd35760405162461bcd60e51b815260206004820152600e60248201526d0ecc2d8eaca40e8dede40d0d2ced60931b6044820152606401610255565b611cdc81612fe3565b6002601c6101000a81548161ffff021916908361ffff16021790555050565b6000611d056126a9565b90506103e88160400151611d1991906136be565b81511115611d695760405162461bcd60e51b815260206004820152601a60248201527f706f6f6c206e61742062616c616e636520746f6f20736d616c6c0000000000006044820152606401610255565b670de0b6b3a7640000341015611dc15760405162461bcd60e51b815260206004820152601d60248201527f616d6f756e74206f66206e61742073656e7420697320746f6f206c6f770000006044820152606401610255565b8051611e67578060400151341015611e675760405162461bcd60e51b815260206004820152605e60248201527f696620706f6f6c20686173206e6f20746f6b656e732c2062757420686173206360448201527f6f6c6c61746572616c2c20796f75206e65656420746f2073656e64206174206c60648201527f65617374207468617420616d6f756e74206f6620636f6c6c61746572616c0000608482015260a401610255565b6000611e733483613046565b825190915060009015611e975782516080840151611e92918490612ac6565b611e9a565b60005b9050600084611eb257611ead8683613178565b611eb4565b815b90508015611fff57604051636eb1769f60e11b815233600482015230602482015281907f00000000000000000000000000000000000000000000000000000000000000006001600160a01b03169063dd62ed3e90604401602060405180830381865afa158015611f28573d6000803e3d6000fd5b505050506040513d601f19601f82011682018060405250810190611f4c9190613590565b1015611f6a5760405162461bcd60e51b815260040161025590613707565b6040516323b872dd60e01b81526001600160a01b037f000000000000000000000000000000000000000000000000000000000000000016906323b872dd90611fba9033903090869060040161373e565b6020604051808303816000875af1158015611fd9573d6000803e3d6000fd5b505050506040513d601f19601f82011682018060405250810190611ffd9190613762565b505b6120123361200d83856135bf565b612f39565b600260009054906101000a90046001600160a01b03166001600160a01b031663d0e30db0346040518263ffffffff1660e01b81526004016000604051808303818588803b15801561206257600080fd5b505af1158015612076573d6000803e3d6000fd5b50506001546040516340c10f1960e01b8152336004820152602481018890526001600160a01b0390911693506340c10f1992506044019050600060405180830381600087803b1580156120c857600080fd5b505af11580156120dc573d6000803e3d6000fd5b50505050505050505050565b336001600160a01b037f000000000000000000000000000000000000000000000000000000000000000016146121305760405162461bcd60e51b815260040161025590613564565b600260005414156121835760405162461bcd60e51b815260206004820152601f60248201527f5265656e7472616e637947756172643a207265656e7472616e742063616c6c006044820152606401610255565b600260009081556121926126a9565b60025460405163a9059cbb60e01b81526001600160a01b0387811660048301526024820187905292935091169063a9059cbb906044016020604051808303816000875af11580156121e7573d6000803e3d6000fd5b505050506040513d601f19601f8201168201806040525081019061220b9190613762565b506001546040516370a0823160e01b81526001600160a01b037f00000000000000000000000000000000000000000000000000000000000000008116600483015260009216906370a0823190602401602060405180830381865afa158015612277573d6000803e3d6000fd5b505050506040513d601f19601f8201168201806040525081019061229b9190613590565b905060006122a98285613178565b905060006122da7f000000000000000000000000000000000000000000000000000000000000000083600287612bde565b5090506123077f000000000000000000000000000000000000000000000000000000000000000082612da8565b600154604051632770a7eb60e21b81526001600160a01b037f0000000000000000000000000000000000000000000000000000000000000000811660048301526024820185905290911690639dc29fac90604401600060405180830381600087803b15801561237557600080fd5b505af1158015612389573d6000803e3d6000fd5b50506001600055505050505050505050565b6000806123a66126a9565b90506123b283826129d5565b6001546040516370a0823160e01b81526001600160a01b038681166004830152909116906370a0823190602401602060405180830381865afa1580156123fc573d6000803e3d6000fd5b505050506040513d601f19601f820116820180604052508101906111449190613590565b336001600160a01b037f000000000000000000000000000000000000000000000000000000000000000016146124685760405162461bcd60e51b815260040161025590613564565b6002546001600160a01b03828116911614156124815750565b6002546040516370a0823160e01b81523060048201526000916001600160a01b0316906370a0823190602401602060405180830381865afa1580156124ca573d6000803e3d6000fd5b505050506040513d601f19601f820116820180604052508101906124ee9190613590565b60028054600160f01b60ff60f01b19821617909155604051632e1a7d4d60e01b8152600481018390529192506001600160a01b031690632e1a7d4d90602401600060405180830381600087803b15801561254757600080fd5b505af115801561255b573d6000803e3d6000fd5b50506002805460ff60f01b19169055505060408051630d0e30db60e41b815290516001600160a01b0384169163d0e30db091849160048082019260009290919082900301818588803b1580156125b057600080fd5b505af11580156125c4573d6000803e3d6000fd5b5050600280546001600160a01b0319166001600160a01b038716179055505050505b50565b6000806125f46126a9565b905061099f8382612ea9565b61260933612df2565b6126255760405162461bcd60e51b81526004016102559061380f565b60405163596090c960e11b81523060048201819052602482015260448101829052600160648201526001600160a01b0383169063b2c12192906084016020604051808303816000875af1158015612680573d6000803e3d6000fd5b505050506040513d601f19601f820116820180604052508101906126a49190613590565b505050565b6126e96040518060e00160405280600081526020016000815260200160008152602001600081526020016000815260200160008152602001600081525090565b6040516370a0823160e01b81523060048201526000907f00000000000000000000000000000000000000000000000000000000000000006001600160a01b0316906370a0823190602401602060405180830381865afa158015612750573d6000803e3d6000fd5b505050506040513d601f19601f820116820180604052508101906127749190613590565b90506000807f00000000000000000000000000000000000000000000000000000000000000006001600160a01b03166302312aec6040518163ffffffff1660e01b81526004016040805180830381865afa1580156127d6573d6000803e3d6000fd5b505050506040513d601f19601f820116820180604052508101906127fa91906138f2565b915091506040518060e00160405280600160009054906101000a90046001600160a01b03166001600160a01b03166318160ddd6040518163ffffffff1660e01b8152600401602060405180830381865afa15801561285c573d6000803e3d6000fd5b505050506040513d601f19601f820116820180604052508101906128809190613590565b815260405163769bb15560e11b81526001600160a01b037f0000000000000000000000000000000000000000000000000000000000000000811660048301526020909201917f0000000000000000000000000000000000000000000000000000000000000000169063ed3762aa90602401602060405180830381865afa15801561290e573d6000803e3d6000fd5b505050506040513d601f19601f820116820180604052508101906129329190613590565b81526002546040516370a0823160e01b81523060048201526020909201916001600160a01b03909116906370a0823190602401602060405180830381865afa158015612982573d6000803e3d6000fd5b505050506040513d601f19601f820116820180604052508101906129a69190613590565b8152602001848152602001600454856129bf919061377f565b8152602081019390935260409092015292915050565b6001546040516370a0823160e01b81526001600160a01b03848116600483015260009283929116906370a0823190602401602060405180830381865afa158015612a23573d6000803e3d6000fd5b505050506040513d601f19601f82011682018060405250810190612a479190613590565b905080612a58576000915050611841565b6001600160a01b03841660009081526003602052604090205480612a7e57509050611841565b83516080850151600091612a9491908590612ac6565b90506000612aa283836135bf565b60808701518751919250600091612aba918490612ac6565b98975050505050505050565b6000808211612b0a5760405162461bcd60e51b815260206004820152601060248201526f4469766973696f6e206279207a65726f60801b6044820152606401610255565b83612b175750600061099f565b83830283858281612b2a57612b2a6136dd565b041415612b4957828181612b4057612b406136dd565b0491505061099f565b506000612b5683866136f3565b90506000612b648487613916565b90506000612b7285876136f3565b90506000612b808688613916565b905085612b8d82856136be565b612b9791906136f3565b612ba183856136be565b612bab83876136be565b88612bb686896136be565b612bc091906136be565b612bca919061377f565b612bd4919061377f565b612aba919061377f565b6000806000612bed8785612ea9565b6001600160a01b038881166000818152600360205260408082205460015491516370a0823160e01b815260048101949094529495509092612c80928b92909116906370a0823190602401602060405180830381865afa158015612c54573d6000803e3d6000fd5b505050506040513d601f19601f82011682018060405250810190612c789190613590565b859190612ac6565b90506000876002811115612c9657612c9661392a565b1415612cd6576000612ca883856135bf565b9050612cb48282613178565b9450818510612cc4576000612cce565b612cce85836135bf565b955050612d44565b6001876002811115612cea57612cea61392a565b1415612d1b57612cfa8183613178565b9450808510612d0a576000612d14565b612d1485826135bf565b9350612d44565b60008211612d2a576000612d35565b612d35828285612ac6565b9450612d4185826135bf565b93505b50505094509492505050565b6000612d70828560a001518660200151612d6a91906136be565b90612d99565b8460c00151848660400151612d8591906135bf565b612d8f91906136be565b1015949350505050565b600061183e8383612710612ac6565b6001600160a01b03821660009081526003602052604081208054839290612dd09084906135bf565b925050819055508060046000828254612de991906135bf565b90915550505050565b60405163d6b93a9f60e01b81526001600160a01b037f00000000000000000000000000000000000000000000000000000000000000008116600483015282811660248301526000917f00000000000000000000000000000000000000000000000000000000000000009091169063d6b93a9f90604401602060405180830381865afa158015612e85573d6000803e3d6000fd5b505050506040513d601f19601f820116820180604052508101906118419190613762565b6001546040516370a0823160e01b81526001600160a01b03848116600483015260009283929116906370a0823190602401602060405180830381865afa158015612ef7573d6000803e3d6000fd5b505050506040513d601f19601f82011682018060405250810190612f1b9190613590565b83516080850151919250612f3191908390612ac6565b949350505050565b6001600160a01b03821660009081526003602052604081208054839290612f6190849061377f565b925050819055508060046000828254612de9919061377f565b600063ffffffff821115612fdf5760405162461bcd60e51b815260206004820152602660248201527f53616665436173743a2076616c756520646f65736e27742066697420696e203360448201526532206269747360d01b6064820152608401610255565b5090565b600061ffff821115612fdf5760405162461bcd60e51b815260206004820152602660248201527f53616665436173743a2076616c756520646f65736e27742066697420696e203160448201526536206269747360d01b6064820152608401610255565b60008082604001516000148061305b57508251155b600254602085015160a086015192935060009261308992600160c01b900463ffffffff1691612d6a916136be565b905060008460c0015185604001516130a191906136be565b82116130ae5760006130cc565b604085015160c08601516130c290846136f3565b6130cc91906135bf565b905060006130da8783613178565b905060008782106130ec5760006130f6565b6130f682896135bf565b60025490915060009061311990849061271090600160e01b900461ffff16612ac6565b90506000866131395760408901518951613134918590612ac6565b61313b565b825b905060008761315b5760408a01518a51613156918590612ac6565b61315d565b825b9050613169828261377f565b9b9a5050505050505050505050565b6000818310613187578161183e565b5090919050565b6001600160a01b03811681146125e657600080fd5b6000602082840312156131b557600080fd5b813561099f8161318e565b8035600381106131cf57600080fd5b919050565b80151581146125e657600080fd5b634e487b7160e01b600052604160045260246000fd5b604051601f8201601f1916810167ffffffffffffffff81118282101715613221576132216131e2565b604052919050565b6000806000806080858703121561323f57600080fd5b8435935060206132508187016131c0565b93506040860135613260816131d4565b9250606086013567ffffffffffffffff8082111561327d57600080fd5b818801915088601f83011261329157600080fd5b8135818111156132a3576132a36131e2565b6132b5601f8201601f191685016131f8565b915080825289848285010111156132cb57600080fd5b808484018584013760008482840101525080935050505092959194509250565b600067ffffffffffffffff821115613305576133056131e2565b5060051b60200190565b600082601f83011261332057600080fd5b81356020613335613330836132eb565b6131f8565b82815260059290921b8401810191818101908684111561335457600080fd5b8286015b8481101561337857803561336b8161318e565b8352918301918301613358565b509695505050505050565b6000806040838503121561339657600080fd5b823567ffffffffffffffff808211156133ae57600080fd5b6133ba8683870161330f565b93506020915081850135818111156133d157600080fd5b85019050601f810186136133e457600080fd5b80356133f2613330826132eb565b81815260059190911b8201830190838101908883111561341157600080fd5b928401925b8284101561342f57833582529284019290840190613416565b80955050505050509250929050565b60006020828403121561345057600080fd5b5035919050565b6000806040838503121561346a57600080fd5b8235915061347a602084016131c0565b90509250929050565b6000806040838503121561349657600080fd5b82356134a18161318e565b946020939093013593505050565b600080604083850312156134c257600080fd5b82356134cd8161318e565b9150602083013567ffffffffffffffff8111156134e957600080fd5b6134f58582860161330f565b9150509250929050565b6000806040838503121561351257600080fd5b823591506020830135613524816131d4565b809150509250929050565b60008060006060848603121561354457600080fd5b833561354f8161318e565b95602085013595506040909401359392505050565b60208082526012908201527137b7363c9030b9b9b2ba1036b0b730b3b2b960711b604082015260600190565b6000602082840312156135a257600080fd5b5051919050565b634e487b7160e01b600052601160045260246000fd5b6000828210156135d1576135d16135a9565b500390565b60208082526034908201527f746f6b656e20737570706c79206c656674206166746572206578697420697320604082015273746f6f206c6f7720616e64206e6f6e2d7a65726f60601b606082015260800190565b60208082526022908201527f616d6f756e74206f662073656e7420746f6b656e7320697320746f6f20736d616040820152611b1b60f21b606082015260800190565b60208082526032908201527f636f6c6c61746572616c206c656674206166746572206578697420697320746f6040820152716f206c6f7720616e64206e6f6e2d7a65726f60701b606082015260800190565b60008160001904831182151516156136d8576136d86135a9565b500290565b634e487b7160e01b600052601260045260246000fd5b600082613702576137026136dd565b500490565b6020808252601b908201527f662d617373657420616c6c6f77616e636520746f6f20736d616c6c0000000000604082015260600190565b6001600160a01b039384168152919092166020820152604081019190915260600190565b60006020828403121561377457600080fd5b815161099f816131d4565b60008219821115613792576137926135a9565b500190565b600060018060a01b038087168352602081871681850152856040850152608060608501528451915081608085015260005b828110156137e45785810182015185820160a0015281016137c8565b828111156137f657600060a084870101525b5050601f01601f19169190910160a00195945050505050565b6020808252600a90820152691bdb9b1e481859d95b9d60b21b604082015260600190565b600081518084526020808501945080840160005b8381101561386c5781516001600160a01b031687529582019590820190600101613847565b509495945050505050565b60408152600061388a6040830185613833565b82810360208481019190915284518083528582019282019060005b818110156138c1578451835293830193918301916001016138a5565b5090979650505050505050565b6040815260006138e16040830185613833565b905082151560208301529392505050565b6000806040838503121561390557600080fd5b505080516020909101519092909150565b600082613925576139256136dd565b500690565b634e487b7160e01b600052602160045260246000fdfea26469706673582212204a44be42dc291d470f183db5edb9ce2a4cc11d6749e30929df7942b2599639e564736f6c634300080b0033",
  "linkReferences": {},
  "deployedLinkReferences": {}
}