{
  "_format": "hh-sol-artifact-1",
  "contractName": "CollateralTypesFacet",
  "sourceName": "contracts/fasset/facets/CollateralTypesFacet.sol",
  "abi": [
    {
      "anonymous": false,
      "inputs": [
        {
          "indexed": false,
          "internalType": "uint8",
          "name": "collateralClass",
          "type": "uint8"
        },
        {
          "indexed": false,
          "internalType": "address",
          "name": "collateralToken",
          "type": "address"
        },
        {
          "indexed": false,
          "internalType": "uint256",
          "name": "minCollateralRatioBIPS",
          "type": "uint256"
        },
        {
          "indexed": false,
          "internalType": "uint256",
          "name": "ccbMinCollateralRatioBIPS",
          "type": "uint256"
        },
        {
          "indexed": false,
          "internalType": "uint256",
          "name": "safetyMinCollateralRatioBIPS",
          "type": "uint256"
        }
      ],
      "name": "CollateralRatiosChanged",
      "type": "event"
    },
    {
      "anonymous": false,
      "inputs": [
        {
          "indexed": false,
          "internalType": "uint8",
          "name": "collateralClass",
          "type": "uint8"
        },
        {
          "indexed": false,
          "internalType": "address",
          "name": "token",
          "type": "address"
        },
        {
          "indexed": false,
          "internalType": "uint256",
          "name": "decimals",
          "type": "uint256"
        },
        {
          "indexed": false,
          "internalType": "bool",
          "name": "directPricePair",
          "type": "bool"
        },
        {
          "indexed": false,
          "internalType": "string",
          "name": "assetFtsoSymbol",
          "type": "string"
        },
        {
          "indexed": false,
          "internalType": "string",
          "name": "tokenFtsoSymbol",
          "type": "string"
        },
        {
          "indexed": false,
          "internalType": "uint256",
          "name": "minCollateralRatioBIPS",
          "type": "uint256"
        },
        {
          "indexed": false,
          "internalType": "uint256",
          "name": "ccbMinCollateralRatioBIPS",
          "type": "uint256"
        },
        {
          "indexed": false,
          "internalType": "uint256",
          "name": "safetyMinCollateralRatioBIPS",
          "type": "uint256"
        }
      ],
      "name": "CollateralTypeAdded",
      "type": "event"
    },
    {
      "anonymous": false,
      "inputs": [
        {
          "indexed": false,
          "internalType": "uint8",
          "name": "collateralClass",
          "type": "uint8"
        },
        {
          "indexed": false,
          "internalType": "address",
          "name": "collateralToken",
          "type": "address"
        },
        {
          "indexed": false,
          "internalType": "uint256",
          "name": "validUntil",
          "type": "uint256"
        }
      ],
      "name": "CollateralTypeDeprecated",
      "type": "event"
    },
    {
      "inputs": [
        {
          "components": [
            {
              "internalType": "enum CollateralType.Class",
              "name": "collateralClass",
              "type": "uint8"
            },
            {
              "internalType": "contract IERC20",
              "name": "token",
              "type": "address"
            },
            {
              "internalType": "uint256",
              "name": "decimals",
              "type": "uint256"
            },
            {
              "internalType": "uint256",
              "name": "validUntil",
              "type": "uint256"
            },
            {
              "internalType": "bool",
              "name": "directPricePair",
              "type": "bool"
            },
            {
              "internalType": "string",
              "name": "assetFtsoSymbol",
              "type": "string"
            },
            {
              "internalType": "string",
              "name": "tokenFtsoSymbol",
              "type": "string"
            },
            {
              "internalType": "uint256",
              "name": "minCollateralRatioBIPS",
              "type": "uint256"
            },
            {
              "internalType": "uint256",
              "name": "ccbMinCollateralRatioBIPS",
              "type": "uint256"
            },
            {
              "internalType": "uint256",
              "name": "safetyMinCollateralRatioBIPS",
              "type": "uint256"
            }
          ],
          "internalType": "struct CollateralType.Data",
          "name": "_data",
          "type": "tuple"
        }
      ],
      "name": "addCollateralType",
      "outputs": [],
      "stateMutability": "nonpayable",
      "type": "function"
    },
    {
      "inputs": [
        {
          "internalType": "enum CollateralType.Class",
          "name": "_collateralClass",
          "type": "uint8"
        },
        {
          "internalType": "contract IERC20",
          "name": "_token",
          "type": "address"
        },
        {
          "internalType": "uint256",
          "name": "_invalidationTimeSec",
          "type": "uint256"
        }
      ],
      "name": "deprecateCollateralType",
      "outputs": [],
      "stateMutability": "nonpayable",
      "type": "function"
    },
    {
      "inputs": [
        {
          "internalType": "enum CollateralType.Class",
          "name": "_collateralClass",
          "type": "uint8"
        },
        {
          "internalType": "contract IERC20",
          "name": "_token",
          "type": "address"
        }
      ],
      "name": "getCollateralType",
      "outputs": [
        {
          "components": [
            {
              "internalType": "enum CollateralType.Class",
              "name": "collateralClass",
              "type": "uint8"
            },
            {
              "internalType": "contract IERC20",
              "name": "token",
              "type": "address"
            },
            {
              "internalType": "uint256",
              "name": "decimals",
              "type": "uint256"
            },
            {
              "internalType": "uint256",
              "name": "validUntil",
              "type": "uint256"
            },
            {
              "internalType": "bool",
              "name": "directPricePair",
              "type": "bool"
            },
            {
              "internalType": "string",
              "name": "assetFtsoSymbol",
              "type": "string"
            },
            {
              "internalType": "string",
              "name": "tokenFtsoSymbol",
              "type": "string"
            },
            {
              "internalType": "uint256",
              "name": "minCollateralRatioBIPS",
              "type": "uint256"
            },
            {
              "internalType": "uint256",
              "name": "ccbMinCollateralRatioBIPS",
              "type": "uint256"
            },
            {
              "internalType": "uint256",
              "name": "safetyMinCollateralRatioBIPS",
              "type": "uint256"
            }
          ],
          "internalType": "struct CollateralType.Data",
          "name": "",
          "type": "tuple"
        }
      ],
      "stateMutability": "view",
      "type": "function"
    },
    {
      "inputs": [],
      "name": "getCollateralTypes",
      "outputs": [
        {
          "components": [
            {
              "internalType": "enum CollateralType.Class",
              "name": "collateralClass",
              "type": "uint8"
            },
            {
              "internalType": "contract IERC20",
              "name": "token",
              "type": "address"
            },
            {
              "internalType": "uint256",
              "name": "decimals",
              "type": "uint256"
            },
            {
              "internalType": "uint256",
              "name": "validUntil",
              "type": "uint256"
            },
            {
              "internalType": "bool",
              "name": "directPricePair",
              "type": "bool"
            },
            {
              "internalType": "string",
              "name": "assetFtsoSymbol",
              "type": "string"
            },
            {
              "internalType": "string",
              "name": "tokenFtsoSymbol",
              "type": "string"
            },
            {
              "internalType": "uint256",
              "name": "minCollateralRatioBIPS",
              "type": "uint256"
            },
            {
              "internalType": "uint256",
              "name": "ccbMinCollateralRatioBIPS",
              "type": "uint256"
            },
            {
              "internalType": "uint256",
              "name": "safetyMinCollateralRatioBIPS",
              "type": "uint256"
            }
          ],
          "internalType": "struct CollateralType.Data[]",
          "name": "",
          "type": "tuple[]"
        }
      ],
      "stateMutability": "view",
      "type": "function"
    },
    {
      "inputs": [
        {
          "internalType": "enum CollateralType.Class",
          "name": "_collateralClass",
          "type": "uint8"
        },
        {
          "internalType": "contract IERC20",
          "name": "_token",
          "type": "address"
        },
        {
          "internalType": "uint256",
          "name": "_minCollateralRatioBIPS",
          "type": "uint256"
        },
        {
          "internalType": "uint256",
          "name": "_ccbMinCollateralRatioBIPS",
          "type": "uint256"
        },
        {
          "internalType": "uint256",
          "name": "_safetyMinCollateralRatioBIPS",
          "type": "uint256"
        }
      ],
      "name": "setCollateralRatiosForToken",
      "outputs": [],
      "stateMutability": "nonpayable",
      "type": "function"
    }
  ],
  "bytecode": "0x608060405234801561001057600080fd5b506115fb806100206000396000f3fe608060405234801561001057600080fd5b50600436106100575760003560e01c806313199ee01461005c578063249f1b59146100715780634610bc231461008457806382dede26146100ad578063eebbcd55146100c2575b600080fd5b61006f61006a366004610f63565b6100d5565b005b61006f61007f366004610f9f565b6100ed565b610097610092366004610fec565b610109565b6040516100a4919061114d565b60405180910390f35b6100b5610124565b6040516100a49190611160565b61006f6100d03660046111c4565b610133565b6100dd61014f565b6100e88383836101ce565b505050565b6100f561014f565b610102858585858561034b565b5050505050565b610111610ed9565b61011b83836104b2565b90505b92915050565b606061012e6104d9565b905090565b61013b61014f565b61014c610147826112e1565b6105b5565b50565b7f4f24f5c433db0962dac0d2c8b84197a6e6c7cc4e5d9ebe1916a1b6193da2f33a80546001600160a01b0316331461014c5760405162461bcd60e51b815260206004820152601d60248201527f6f6e6c79206173736574206d616e6167657220636f6e74726f6c6c657200000060448201526064015b60405180910390fd5b7f4f24f5c433db0962dac0d2c8b84197a6e6c7cc4e5d9ebe1916a1b6193da2f33a60006101fb858561061d565b9050610206816106f2565b6102445760405162461bcd60e51b815260206004820152600f60248201526e1d1bdad95b881b9bdd081d985b1a59608a1b60448201526064016101c5565b6012820154600160401b90046001600160401b03168310156102a85760405162461bcd60e51b815260206004820152601960248201527f6465707265636174696f6e2074696d6520746f2073686f72740000000000000060448201526064016101c5565b60006102b484426113cc565b90506102bf81610729565b82546001600160401b0391909116600160b01b0267ffffffffffffffff60b01b199091161782557ffa93c441628a8345854526201d5fec9110fe2e4ad5a0822eb6eda950864075e68660028111156103195761031961101f565b6040805160ff90921682526001600160a01b0388166020830152810183905260600160405180910390a1505050505050565b60008261271010801561035e5750838311155b801561036a5750818411155b9050806103b55760405162461bcd60e51b8152602060048201526019602482015278696e76616c696420636f6c6c61746572616c20726174696f7360381b60448201526064016101c5565b60006103c1878761061d565b90506103cc85610795565b60038201805463ffffffff191663ffffffff929092169190911790556103f184610795565b8160030160046101000a81548163ffffffff021916908363ffffffff16021790555061041c83610795565b8160030160086101000a81548163ffffffff021916908363ffffffff1602179055507fbaa56ba61f3fbb73cc7723520ea5139b9300100910496d3dc525d0344858cac88760028111156104715761047161101f565b6040805160ff90921682526001600160a01b03891660208301528101879052606081018690526080810185905260a00160405180910390a150505050505050565b6104ba610ed9565b60006104c6848461061d565b90506104d1816107fa565b949350505050565b7fec7e8c1c441439dd40959777f4c577ea0cd42fcc1dbe59d2bd0f5d9c55df8db6805460609190806001600160401b0381111561051857610518611206565b60405190808252806020026020018201604052801561055157816020015b61053e610ed9565b8152602001906001900390816105365790505b50925060005b818110156105af5761058a836000018281548110610577576105776113df565b90600052602060002090600402016107fa565b84828151811061059c5761059c6113df565b6020908102919091010152600101610557565b50505090565b6002815160028111156105ca576105ca61101f565b146106105760405162461bcd60e51b81526020600482015260166024820152751b9bdd0818481d985d5b1d0818dbdb1b185d195c985b60521b60448201526064016101c5565b610619816109d5565b5050565b60007fec7e8c1c441439dd40959777f4c577ea0cd42fcc1dbe59d2bd0f5d9c55df8db6817fec7e8c1c441439dd40959777f4c577ea0cd42fcc1dbe59d2bd0f5d9c55df8db78161066d8787610e4e565b8152602001908152602001600020549050600081116106be5760405162461bcd60e51b815260206004820152600d60248201526c3ab735b737bbb7103a37b5b2b760991b60448201526064016101c5565b816106ca6001836113f5565b815481106106da576106da6113df565b90600052602060002090600402019250505092915050565b8054600090600160b01b90046001600160401b0316158061011e5750815442600160b01b9091046001600160401b03161192915050565b60006001600160401b038211156107915760405162461bcd60e51b815260206004820152602660248201527f53616665436173743a2076616c756520646f65736e27742066697420696e203660448201526534206269747360d01b60648201526084016101c5565b5090565b600063ffffffff8211156107915760405162461bcd60e51b815260206004820152602660248201527f53616665436173743a2076616c756520646f65736e27742066697420696e203360448201526532206269747360d01b60648201526084016101c5565b610802610ed9565b60408051610140810190915282548190600160a01b900460ff16600281111561082d5761082d61101f565b815283546001600160a01b038116602083015260ff600160a81b8204811660408401526001600160401b03600160b01b8304166060840152600160f01b909104161515608082015260018401805460a09092019161088a90611408565b80601f01602080910402602001604051908101604052809291908181526020018280546108b690611408565b80156109035780601f106108d857610100808354040283529160200191610903565b820191906000526020600020905b8154815290600101906020018083116108e657829003601f168201915b5050505050815260200183600201805461091c90611408565b80601f016020809104026020016040519081016040528092919081815260200182805461094890611408565b80156109955780601f1061096a57610100808354040283529160200191610995565b820191906000526020600020905b81548152906001019060200180831161097857829003601f168201915b505050918352505060039093015463ffffffff8082166020860152640100000000820481166040860152600160401b909104166060909301929092525090565b60208101516000907fec7e8c1c441439dd40959777f4c577ea0cd42fcc1dbe59d2bd0f5d9c55df8db6906001600160a01b0316610a415760405162461bcd60e51b815260206004820152600a602482015269746f6b656e207a65726f60b01b60448201526064016101c5565b6000610a5584600001518560200151610e4e565b600081815260018401602052604090205490915015610aad5760405162461bcd60e51b8152602060048201526014602482015273746f6b656e20616c72656164792065786973747360601b60448201526064016101c5565b606084015115610aff5760405162461bcd60e51b815260206004820152601b60248201527f63616e6e6f7420616464206465707265636174656420746f6b656e000000000060448201526064016101c5565b6000846101000151612710108015610b2057508460e0015185610100015111155b8015610b3557508461012001518560e0015111155b905080610b805760405162461bcd60e51b8152602060048201526019602482015278696e76616c696420636f6c6c61746572616c20726174696f7360381b60448201526064016101c5565b82546040805161014081019091526020808801516001600160a01b0316825287518692918201906002811115610bb857610bb861101f565b8152602001610bca8960400151610e78565b60ff168152602001610bdf8960600151610729565b6001600160401b031681526020018860800151151581526020018860a0015181526020018860c001518152602001610c1a8960e00151610795565b63ffffffff168152602001610c33896101000151610795565b63ffffffff168152602001610c4c896101200151610795565b63ffffffff16905281546001810183556000928352602092839020825160049092020180546001600160a01b031981166001600160a01b03909316928317825593830151929390929183916001600160a81b03191617600160a01b836002811115610cb957610cb961101f565b021790555060408201518154606084015160808501511515600160f01b0260ff60f01b196001600160401b03909216600160b01b0267ffffffffffffffff60b01b1960ff909516600160a81b029490941668ffffffffffffffffff60a81b1990931692909217929092179190911617815560a08201516001820190610d3e9082611492565b5060c08201516002820190610d539082611492565b5060e0820151600390910180546101008401516101209094015163ffffffff908116600160401b026bffffffff0000000000000000199582166401000000000267ffffffffffffffff1990931691909416171792909216179055610db88160016113cc565b600084815260018601602052604090205585517fbef4c272617e8773ee6209dd5f05e50ca5be37232b0c94cb8439d8a56bfdb7ce906002811115610dfe57610dfe61101f565b8760200151886040015189608001518a60a001518b60c001518c60e001518d61010001518e6101200151604051610e3d99989796959493929190611551565b60405180910390a195945050505050565b6000816001600160a01b031660a0846002811115610e6e57610e6e61101f565b901b179392505050565b600060ff8211156107915760405162461bcd60e51b815260206004820152602560248201527f53616665436173743a2076616c756520646f65736e27742066697420696e2038604482015264206269747360d81b60648201526084016101c5565b604080516101408101909152806000815260200160006001600160a01b03168152602001600081526020016000815260200160001515815260200160608152602001606081526020016000815260200160008152602001600081525090565b803560038110610f4757600080fd5b919050565b80356001600160a01b0381168114610f4757600080fd5b600080600060608486031215610f7857600080fd5b610f8184610f38565b9250610f8f60208501610f4c565b9150604084013590509250925092565b600080600080600060a08688031215610fb757600080fd5b610fc086610f38565b9450610fce60208701610f4c565b94979496505050506040830135926060810135926080909101359150565b60008060408385031215610fff57600080fd5b61100883610f38565b915061101660208401610f4c565b90509250929050565b634e487b7160e01b600052602160045260246000fd5b6003811061105357634e487b7160e01b600052602160045260246000fd5b9052565b6000815180845260005b8181101561107d57602081850181015186830182015201611061565b506000602082860101526020601f19601f83011685010191505092915050565b60006101406110ad848451611035565b60208301516110c760208601826001600160a01b03169052565b50604083015160408501526060830151606085015260808301516110ef608086018215159052565b5060a08301518160a086015261110782860182611057565b91505060c083015184820360c08601526111218282611057565b60e085810151908701526101008086015190870152610120948501519490950193909352509192915050565b60208152600061011b602083018461109d565b600060208083016020845280855180835260408601915060408160051b87010192506020870160005b828110156111b757603f198886030184526111a585835161109d565b94509285019290850190600101611189565b5092979650505050505050565b6000602082840312156111d657600080fd5b81356001600160401b038111156111ec57600080fd5b820161014081850312156111ff57600080fd5b9392505050565b634e487b7160e01b600052604160045260246000fd5b60405161014081016001600160401b038111828210171561123f5761123f611206565b60405290565b80358015158114610f4757600080fd5b600082601f83011261126657600080fd5b81356001600160401b038082111561128057611280611206565b604051601f8301601f19908116603f011681019082821181831017156112a8576112a8611206565b816040528381528660208588010111156112c157600080fd5b836020870160208301376000602085830101528094505050505092915050565b600061014082360312156112f457600080fd5b6112fc61121c565b61130583610f38565b815261131360208401610f4c565b6020820152604083013560408201526060830135606082015261133860808401611245565b608082015260a08301356001600160401b038082111561135757600080fd5b61136336838701611255565b60a084015260c085013591508082111561137c57600080fd5b5061138936828601611255565b60c08301525060e08381013590820152610100808401359082015261012092830135928101929092525090565b634e487b7160e01b600052601160045260246000fd5b8082018082111561011e5761011e6113b6565b634e487b7160e01b600052603260045260246000fd5b8181038181111561011e5761011e6113b6565b600181811c9082168061141c57607f821691505b60208210810361143c57634e487b7160e01b600052602260045260246000fd5b50919050565b601f8211156100e8576000816000526020600020601f850160051c8101602086101561146b5750805b601f850160051c820191505b8181101561148a57828155600101611477565b505050505050565b81516001600160401b038111156114ab576114ab611206565b6114bf816114b98454611408565b84611442565b602080601f8311600181146114f457600084156114dc5750858301515b600019600386901b1c1916600185901b17855561148a565b600085815260208120601f198616915b8281101561152357888601518255948401946001909101908401611504565b50858210156115415787850151600019600388901b60f8161c191681555b5050505050600190811b01905550565b60ff8a1681526001600160a01b03891660208201526040810188905286151560608201526101206080820181905260009061158e83820189611057565b905082810360a08401526115a28188611057565b60c0840196909652505060e081019290925261010090910152969550505050505056fea2646970667358221220a22bf61bf6e5b7e575e0875a5d3ba59c9d1eb50658ba768df77e912d62c3856b64736f6c63430008170033",
  "linkReferences": {},
  "deployedLinkReferences": {}
}