{
  "_format": "hh-sol-artifact-1",
  "contractName": "AgentCollateralFacet",
  "sourceName": "contracts/fasset/facets/AgentCollateralFacet.sol",
  "abi": [
    {
      "anonymous": false,
      "inputs": [
        {
          "indexed": true,
          "internalType": "address",
          "name": "agentVault",
          "type": "address"
        },
        {
          "indexed": false,
          "internalType": "uint8",
          "name": "collateralClass",
          "type": "uint8"
        },
        {
          "indexed": false,
          "internalType": "address",
          "name": "token",
          "type": "address"
        }
      ],
      "name": "AgentCollateralTypeChanged",
      "type": "event"
    },
    {
      "anonymous": false,
      "inputs": [
        {
          "indexed": true,
          "internalType": "address",
          "name": "agentVault",
          "type": "address"
        }
      ],
      "name": "LiquidationEnded",
      "type": "event"
    },
    {
      "anonymous": false,
      "inputs": [
        {
          "indexed": true,
          "internalType": "address",
          "name": "agentVault",
          "type": "address"
        },
        {
          "indexed": false,
          "internalType": "uint256",
          "name": "amountWei",
          "type": "uint256"
        },
        {
          "indexed": false,
          "internalType": "uint256",
          "name": "withdrawalAllowedAt",
          "type": "uint256"
        }
      ],
      "name": "PoolTokenRedemptionAnnounced",
      "type": "event"
    },
    {
      "anonymous": false,
      "inputs": [
        {
          "indexed": true,
          "internalType": "address",
          "name": "agentVault",
          "type": "address"
        },
        {
          "indexed": false,
          "internalType": "uint256",
          "name": "amountWei",
          "type": "uint256"
        },
        {
          "indexed": false,
          "internalType": "uint256",
          "name": "withdrawalAllowedAt",
          "type": "uint256"
        }
      ],
      "name": "VaultCollateralWithdrawalAnnounced",
      "type": "event"
    },
    {
      "inputs": [
        {
          "internalType": "address",
          "name": "_agentVault",
          "type": "address"
        },
        {
          "internalType": "uint256",
          "name": "_valueNATWei",
          "type": "uint256"
        }
      ],
      "name": "announceAgentPoolTokenRedemption",
      "outputs": [
        {
          "internalType": "uint256",
          "name": "_redemptionAllowedAt",
          "type": "uint256"
        }
      ],
      "stateMutability": "nonpayable",
      "type": "function"
    },
    {
      "inputs": [
        {
          "internalType": "address",
          "name": "_agentVault",
          "type": "address"
        },
        {
          "internalType": "uint256",
          "name": "_valueNATWei",
          "type": "uint256"
        }
      ],
      "name": "announceVaultCollateralWithdrawal",
      "outputs": [
        {
          "internalType": "uint256",
          "name": "_withdrawalAllowedAt",
          "type": "uint256"
        }
      ],
      "stateMutability": "nonpayable",
      "type": "function"
    },
    {
      "inputs": [
        {
          "internalType": "contract IERC20",
          "name": "_token",
          "type": "address"
        },
        {
          "internalType": "uint256",
          "name": "_valueNATWei",
          "type": "uint256"
        }
      ],
      "name": "beforeCollateralWithdrawal",
      "outputs": [],
      "stateMutability": "nonpayable",
      "type": "function"
    },
    {
      "inputs": [
        {
          "internalType": "address",
          "name": "_agentVault",
          "type": "address"
        }
      ],
      "name": "buybackAgentCollateral",
      "outputs": [],
      "stateMutability": "payable",
      "type": "function"
    },
    {
      "inputs": [
        {
          "internalType": "address",
          "name": "_agentVault",
          "type": "address"
        },
        {
          "internalType": "contract IERC20",
          "name": "_token",
          "type": "address"
        }
      ],
      "name": "switchVaultCollateral",
      "outputs": [],
      "stateMutability": "nonpayable",
      "type": "function"
    },
    {
      "inputs": [
        {
          "internalType": "address",
          "name": "_agentVault",
          "type": "address"
        },
        {
          "internalType": "contract IERC20",
          "name": "_token",
          "type": "address"
        }
      ],
      "name": "updateCollateral",
      "outputs": [],
      "stateMutability": "nonpayable",
      "type": "function"
    },
    {
      "inputs": [
        {
          "internalType": "address",
          "name": "_agentVault",
          "type": "address"
        }
      ],
      "name": "upgradeWNatContract",
      "outputs": [],
      "stateMutability": "nonpayable",
      "type": "function"
    }
  ],
  "bytecode": "0x608060405234801561001057600080fd5b50612f5c806100206000396000f3fe6080604052600436106100705760003560e01c80637a2cf4121161004e5780637a2cf412146100e9578063b68af97e14610109578063d9d714631461011c578063f4d000b21461013c57600080fd5b806329ff1308146100755780632dabf2d014610097578063469052ad146100c9575b600080fd5b34801561008157600080fd5b50610095610090366004612b38565b61015c565b005b3480156100a357600080fd5b506100b76100b2366004612b71565b61016a565b60405190815260200160405180910390f35b3480156100d557600080fd5b506100956100e4366004612b71565b610181565b3480156100f557600080fd5b50610095610104366004612b38565b61018c565b610095610117366004612b9d565b610196565b34801561012857600080fd5b506100b7610137366004612b71565b6101d3565b34801561014857600080fd5b50610095610157366004612b9d565b6101e1565b61016682826101ea565b5050565b600061017860028484610285565b90505b92915050565b61016682338361054d565b610166828261092c565b61019e610a14565b6101a781610a8d565b6101d060017f0cd2207518cd3e5213e2c6dbe63d55b60aa893c194a427b7d7f1600408fd5bde55565b50565b600061017860008484610285565b6101d081610c98565b60006101f583610e02565b9050336001600160a01b0384161480610217575080546001600160a01b031633145b6102685760405162461bcd60e51b815260206004820152601860248201527f6f6e6c79206167656e74207661756c74206f7220706f6f6c000000000000000060448201526064015b60405180910390fd5b6102728183610e97565b156102805761028081610ee1565b505050565b60008261029181610fd8565b600061029c85610e02565b9050600160048083015460ff16908111156102b9576102b9612bba565b14806102d457506102c98161102f565b6001600160401b0316155b6103205760405162461bcd60e51b815260206004820152601e60248201527f7769746864726177616c20616e6e3a20696e76616c6964207374617475730000604482015260640161025f565b600061032c8288611095565b80549091506001600160801b031685111561042a57600080516020612ec7833981519152600061035c848a6110e2565b8354909150600090610377906001600160801b031689612be6565b90506103838286611164565b8111156103d25760405162461bcd60e51b815260206004820152601a60248201527f7769746864726177616c3a2076616c756520746f6f2068696768000000000000604482015260640161025f565b60108301546103fa906103f590600160801b90046001600160401b031642612bf9565b611196565b84546001600160401b0391909116600160801b0267ffffffffffffffff60801b1990911617845550610445915050565b8460000361044557805467ffffffffffffffff60801b191681555b61044e85611202565b81546001600160801b0319166001600160801b0391909116178155600087600281111561047d5761047d612bba565b036104dc57805460408051878152600160801b9092046001600160401b031660208301526001600160a01b038816917f67212b72b610c952a34bdd8a6e005684df8b1a31e96ba45ae1dbfb926e5447fa910160405180910390a2610532565b805460408051878152600160801b9092046001600160401b031660208301526001600160a01b038816917fd8af9ece0435675178bfc0aba18c040e3bd5ad88eabd3d313cd0b469a8e1d06b910160405180910390a25b54600160801b90046001600160401b03169695505050505050565b600061055883610e02565b905060006105658261126b565b6001600160a01b0316856001600160a01b03160361058557506000610619565b8154604080516332f7ce0b60e21b815290516001600160a01b039092169163cbdf382c916004808201926020929091908290030181865afa1580156105ce573d6000803e3d6000fd5b505050506040513d601f19601f820116820180604052508101906105f29190612c0c565b6001600160a01b0316856001600160a01b03160361061257506002610619565b5050505050565b60006106258383611095565b9050600061063384846110e2565b9050600160048086015460ff169081111561065057610650612bba565b148061066b57506106608461102f565b6001600160401b0316155b6106b75760405162461bcd60e51b815260206004820152601a60248201527f7769746864726177616c3a20696e76616c696420737461747573000000000000604482015260640161025f565b8154600160801b90046001600160401b03166000036107185760405162461bcd60e51b815260206004820152601960248201527f7769746864726177616c3a206e6f7420616e6e6f756e63656400000000000000604482015260640161025f565b81546001600160801b03168511156107725760405162461bcd60e51b815260206004820152601f60248201527f7769746864726177616c3a206d6f7265207468616e20616e6e6f756e63656400604482015260640161025f565b8154600160801b90046001600160401b03164210156107d35760405162461bcd60e51b815260206004820152601b60248201527f7769746864726177616c3a206e6f7420616c6c6f776564207965740000000000604482015260640161025f565b7f4f24f5c433db0962dac0d2c8b84197a6e6c7cc4e5d9ebe1916a1b6193da2f34d548254600080516020612ec78339815191529161082c91600160c01b9091046001600160401b0390811691600160801b900416612c29565b6001600160401b031642111561087b5760405162461bcd60e51b81526020600482015260146024820152737769746864726177616c3a20746f6f206c61746560601b604482015260640161025f565b602082015161088a83876112c3565b11156108d15760405162461bcd60e51b81526020600482015260166024820152757769746864726177616c3a20435220746f6f206c6f7760501b604482015260640161025f565b82546000906108ea9088906001600160801b0316612be6565b84546001600160801b0319166001600160801b0382161785559050600081900361092157835467ffffffffffffffff60801b191684555b505050505050505050565b8161093681610fd8565b600061094184610e02565b9050600061094e826113ed565b8054909150600160b01b90046001600160401b03166000036109bc5760405162461bcd60e51b815260206004820152602160248201527f63757272656e7420636f6c6c61746572616c206e6f74206465707265636174656044820152601960fa1b606482015260840161025f565b6109c6828561143a565b60408051600281526001600160a01b0386811660208301528716917f88b6ac79ad99776ae32e236db624ff70afc6aedfaa56430d9924c5165ceadef691015b60405180910390a25050505050565b7f0cd2207518cd3e5213e2c6dbe63d55b60aa893c194a427b7d7f1600408fd5bde805460011901610a875760405162461bcd60e51b815260206004820152601f60248201527f5265656e7472616e637947756172643a207265656e7472616e742063616c6c00604482015260640161025f565b60029055565b80610a9781610fd8565b600080516020612f078339815191526000610ab184610e02565b9050610ae47f4f24f5c433db0962dac0d2c8b84197a6e6c7cc4e5d9ebe1916a1b6193da2f33b546001600160a01b031690565b6001600160a01b031663194307bf6040518163ffffffff1660e01b8152600401602060405180830381865afa158015610b21573d6000803e3d6000fd5b505050506040513d601f19601f82011682018060405250810190610b459190612c49565b610b8a5760405162461bcd60e51b8152602060048201526016602482015275198b585cdcd95d081b9bdd081d195c9b5a5b985d195960521b604482015260640161025f565b6005810154600090610bae906001600160401b03600160401b820481169116612c29565b90506000610bbb836113ed565b90506000610bc8826115a2565b90506000610c07600080516020612ec7833981519152601101546001600160401b03600160c01b909104811690610c01908716856115b8565b906115d2565b9050610c1385826115e1565b6005850180546fffffffffffffffff0000000000000000198116909155600e870180546001600160401b0392831692601891610c58918591600160c01b900416612c6b565b82546001600160401b039182166101009390930a92830291909202199091161790555050506005909201805467ffffffffffffffff191690555050505050565b80610ca281610fd8565b6000610cad83610e02565b7fec7e8c1c441439dd40959777f4c577ea0cd42fcc1dbe59d2bd0f5d9c55df8dc554600080516020612f07833981519152805492935091600091839161ffff909116908110610cfe57610cfe612c8b565b6000918252602090912060049182020154600f840154918501546001600160a01b0390911692506301000000900461ffff90811691161461061257600f8201546004848101805464ffff000000191661ffff909316630100000002929092179091558354604051637a68005960e11b81526001600160a01b038481169382019390935291169063f4d000b290602401600060405180830381600087803b158015610da757600080fd5b505af1158015610dbb573d6000803e3d6000fd5b505060408051600181526001600160a01b038581166020830152891693507f88b6ac79ad99776ae32e236db624ff70afc6aedfaa56430d9924c5165ceadef6925001610a05565b600080516020612ee783398151915268010000000000000000600160e01b03604083901b161880600060048084015460ff1690811115610e4457610e44612bba565b03610e915760405162461bcd60e51b815260206004820152601b60248201527f696e76616c6964206167656e74207661756c7420616464726573730000000000604482015260640161025f565b50919050565b6000610ea2836117e0565b6001600160a01b0316826001600160a01b031614806101785750610ec58361126b565b6001600160a01b0316826001600160a01b031614905092915050565b600260048083015460ff1690811115610efc57610efc612bba565b14610f045750565b6000610f0f82611819565b90506000610f1c8361188d565b90506000610f2c8483600061196a565b90506000610f3c8584600161196a565b905081846000015110158015610f56575080846020015110155b15610612576004850180547fff00000000000000000000ffffffffffffffffffffffffffffffffffffffff00166001179055600080516020612ee7833981519152851860401c6001600160a01b03167fe513b42585b0ceec0d56d56fe3a23861c15a2f74eb4c32c94334d63d68ff4dcf60405160405180910390a25050505050565b610fea610fe482610e02565b336119d1565b6101d05760405162461bcd60e51b815260206004820152601660248201527537b7363c9030b3b2b73a103b30bab63a1037bbb732b960511b604482015260640161025f565b60058101546000906001600160401b03600160801b82048116600160c01b90920416111561105f5761105f612ca1565b60058201546001600160401b03600160801b820481169161108b9180821691600160401b900416612c29565b61017b9190612c29565b600060018260028111156110ab576110ab612bba565b036110b8576110b8612ca1565b60008260028111156110cc576110cc612bba565b146110da5782600901610178565b505060080190565b6111076040805160608101909152806000815260200160008152602001600081525090565b600082600281111561111b5761111b612bba565b036111305761112983611aa3565b905061017b565b600182600281111561114457611144612bba565b036111525761112983611b82565b6111298361115f85611b82565b611bfd565b60008061117184846112c3565b9050600061118c828660200151611dd490919063ffffffff16565b9695505050505050565b60006001600160401b038211156111fe5760405162461bcd60e51b815260206004820152602660248201527f53616665436173743a2076616c756520646f65736e27742066697420696e203660448201526534206269747360d01b606482015260840161025f565b5090565b60006001600160801b038211156111fe5760405162461bcd60e51b815260206004820152602760248201527f53616665436173743a2076616c756520646f65736e27742066697420696e20316044820152663238206269747360c81b606482015260840161025f565b600080600080516020612f0783398151915260048401548154919250829161010090910461ffff169081106112a2576112a2612c8b565b60009182526020909120600490910201546001600160a01b03169392505050565b60008060006112d6848660000151611dfa565b600586015491935091506000906112ff906001600160401b03600160401b820481169116612bf9565b9050600061131584610c01848a604001516115b8565b9050600060018851600281111561132e5761132e612bba565b1461134d576005870154600160801b90046001600160401b0316611363565b6005870154600160c01b90046001600160401b03165b9050600061138285610c01846001600160401b03168c604001516115b8565b9050600060018a51600281111561139b5761139b612bba565b036113a75760006113bf565b89516113b4908a90611095565b546001600160801b03165b6001600160801b03169050806113d58386612bf9565b6113df9190612bf9565b9a9950505050505050505050565b600080600080516020612f0783398151915260048401548154919250829161010090910461ffff1690811061142457611424612c8b565b9060005260206000209060040201915050919050565b600080516020612f078339815191526000611456600284611f00565b9050600082600001828154811061146f5761146f612c8b565b60009182526020909120600490910201905060028154600160a01b900460ff1660028111156114a0576114a0612bba565b146114ad576114ad612ca1565b8054600160b01b90046001600160401b0316156115045760405162461bcd60e51b815260206004820152601560248201527418dbdb1b185d195c985b0819195c1c9958d85d1959605a1b604482015260640161025f565b61150d82611f9a565b8560040160016101000a81548161ffff021916908361ffff160217905550600061153686611aa3565b905060006115448288611ffd565b600384015490915063ffffffff168110156115995760405162461bcd60e51b81526020600482015260156024820152741b9bdd08195b9bdd59da0818dbdb1b185d195c985b605a1b604482015260640161025f565b50505050505050565b60006115af8260006120be565b50909392505050565b6000610178826115ca6009600a612d9b565b85919061227d565b6000610178838361271061227d565b60006115ec836113ed565b905060006115f9846123a3565b805483549192506001600160a01b039081169116036116215761161c84846123dc565b6117da565b7f4f24f5c433db0962dac0d2c8b84197a6e6c7cc4e5d9ebe1916a1b6193da2f34c54600080516020612ec783398151915290600080516020612ee7833981519152861860401c9060009061168790600160801b900463ffffffff16610c01888888612488565b8554600189015460405163083e007560e21b81526001600160a01b0392831660048201529082166024820152604481018990529192508316906320f801d490606401600060405180830381600087803b1580156116e357600080fd5b505af11580156116f7573d6000803e3d6000fd5b505050508034101561174b5760405162461bcd60e51b815260206004820152601960248201527f6e6f7420656e6f7567682066756e64732070726f766964656400000000000000604482015260640161025f565b611754816124ae565b80341115611599576001600160a01b03821663677fa2326117758334612be6565b61177d612515565b6040516001600160e01b031960e085901b1681526001600160a01b0390911660048201526024016000604051808303818588803b1580156117bd57600080fd5b505af11580156117d1573d6000803e3d6000fd5b50505050505050505b50505050565b600080600080516020612f07833981519152600484015481549192508291630100000090910461ffff169081106112a2576112a2612c8b565b6118446040518060800160405280600081526020016000815260200160008152602001600081525090565b600080611852846000612582565b91509150600080611864866001612582565b604080516080810182529687526020870192909252908501939093525050606082015292915050565b600080600080516020612ec7833981519152600484015490915060ff1660028160048111156118be576118be612bba565b0361193d57600060016004860154600160e81b900460ff1660028111156118e7576118e7612bba565b148015611923575060118301546004860154611916916001600160401b0390811691600160a81b900416612c29565b6001600160401b03164211155b905080611931576002611934565b60015b95945050505050565b600381600481111561195157611951612bba565b03611960575060029392505050565b5060009392505050565b60008061197785846125d0565b9050600184600281111561198d5761198d612bba565b14806119a0575061199e858461267c565b155b156119b6576003015463ffffffff1690506119ca565b60030154600160401b900463ffffffff1690505b9392505050565b60018201546000906001600160a01b03908116908316811480611a9b57507f4f24f5c433db0962dac0d2c8b84197a6e6c7cc4e5d9ebe1916a1b6193da2f341546001600160a01b0316604051631f86345d60e31b81526001600160a01b038381166004830152919091169063fc31a2e890602401602060405180830381865afa158015611a62573d6000803e3d6000fd5b505050506040513d601f19601f82011682018060405250810190611a869190612c0c565b6001600160a01b0316836001600160a01b0316145b949350505050565b611ac86040805160608101909152806000815260200160008152602001600081525090565b6000611ad3836113ed565b6040805160608101825260008152825482516370a0823160e01b8152600080516020612ee7833981519152881890931c6001600160a01b039081166004850152939450909260208401929116906370a08231906024015b602060405180830381865afa158015611b47573d6000803e3d6000fd5b505050506040513d601f19601f82011682018060405250810190611b6b9190612da7565b8152602001611b79836115a2565b90529392505050565b611ba76040805160608101909152806000815260200160008152602001600081525090565b6000611bb2836123a3565b60408051606081019091529091508060018152825485546040516370a0823160e01b81526001600160a01b0391821660048201526020909301929116906370a0823190602401611b2a565b611c226040805160608101909152806000815260200160008152602001600081525090565b8254604080516332f7ce0b60e21b815290516000926001600160a01b03169163cbdf382c9160048083019260209291908290030181865afa158015611c6b573d6000803e3d6000fd5b505050506040513d601f19601f82011682018060405250810190611c8f9190612c0c565b905060006001600160a01b0382166370a08231600080516020612ee7833981519152871860401c6040516001600160e01b031960e084901b1681526001600160a01b039091166004820152602401602060405180830381865afa158015611cfa573d6000803e3d6000fd5b505050506040513d601f19601f82011682018060405250810190611d1e9190612da7565b90506000826001600160a01b03166318160ddd6040518163ffffffff1660e01b8152600401602060405180830381865afa158015611d60573d6000803e3d6000fd5b505050506040513d601f19601f82011682018060405250810190611d849190612da7565b905060008560200151600003611d9b576000611db0565b60208601516040870151611db091849061227d565b60408051606081018252600281526020810195909552840152509095945050505050565b60008083831115611dea57506000905080611df3565b50600190508183035b9250929050565b6000806002836002811115611e1157611e11612bba565b03611e7957600080611e24866001611dfa565b915091506000611e3f600080516020612ec783398151915290565b600c015463ffffffff64010000000090910481169150611e6390829084906115d216565b9350611e6f81846115d2565b9450505050611df3565b6001836002811115611e8d57611e8d612bba565b03611ec857611e9b846123a3565b60030154600485015463ffffffff9182169250611ec191600160881b90910416826126e5565b9150611df3565b611ed1846113ed565b60030154600485015463ffffffff9182169250611ef791600160681b90910416826126e5565b91509250929050565b6000600080516020612f07833981519152817fec7e8c1c441439dd40959777f4c577ea0cd42fcc1dbe59d2bd0f5d9c55df8db781611f3e87876126fb565b815260200190815260200160002054905060008111611f8f5760405162461bcd60e51b815260206004820152600d60248201526c3ab735b737bbb7103a37b5b2b760991b604482015260640161025f565b611934600182612be6565b600061ffff8211156111fe5760405162461bcd60e51b815260206004820152602660248201527f53616665436173743a2076616c756520646f65736e27742066697420696e203160448201526536206269747360d01b606482015260840161025f565b60008060018451600281111561201557612015612bba565b14612034576005830154600160801b90046001600160401b031661204a565b6005830154600160c01b90046001600160401b03165b60058401546001600160401b03918216925060009183916120769181811691600160401b900416612bf9565b6120809190612bf9565b905080600003612099576402540be4009250505061017b565b60006120a98287604001516115b8565b602087015190915061118c906127108361227d565b60008060008060008061215d8860010180546120d990612dc0565b80601f016020809104026020016040519081016040528092919081815260200182805461210590612dc0565b80156121525780601f1061212757610100808354040283529160200191612152565b820191906000526020600020905b81548152906001019060200180831161213557829003601f168201915b505050505088612725565b8a549295509093509150600160f01b900460ff16156121a457875460009061219390600160a81b900460ff166001838786612813565b965091945084935061227692505050565b600080600061223f8b60020180546121bb90612dc0565b80601f01602080910402602001604051908101604052809291908181526020018280546121e790612dc0565b80156122345780601f1061220957610100808354040283529160200191612234565b820191906000526020600020905b81548152906001019060200180831161221757829003601f168201915b50505050508b612725565b8d54929550909350915060009061226390600160a81b900460ff1685848a89612813565b9950949750909550612276945050505050565b9250925092565b60008082116122c15760405162461bcd60e51b815260206004820152601060248201526f4469766973696f6e206279207a65726f60801b604482015260640161025f565b836000036122d1575060006119ca565b838302838582816122e4576122e4612df4565b0403612302578281816122f9576122f9612df4565b049150506119ca565b50600061230f8386612e0a565b9050600061231d8487612e1e565b9050600061232b8587612e0a565b905060006123398688612e1e565b9050856123468285612e32565b6123509190612e0a565b61235a8385612e32565b6123648387612e32565b8861236f8689612e32565b6123799190612e32565b6123839190612bf9565b61238d9190612bf9565b6123979190612bf9565b98975050505050505050565b600080600080516020612f07833981519152600484015481549192508291630100000090910461ffff1690811061142457611424612c8b565b600080516020612ec7833981519152600080516020612ee7833981519152831860401c6001600160a01b03811663648d0878612416612515565b600985015460405160e084901b6001600160e01b03191681526001600160a01b0392831660048201529116602482015260448101869052606401600060405180830381600087803b15801561246a57600080fd5b505af115801561247e573d6000803e3d6000fd5b5050505050505050565b600080612494836115a2565b905060006124a1856115a2565b905061118c86838361227d565b7f4f24f5c433db0962dac0d2c8b84197a6e6c7cc4e5d9ebe1916a1b6193da2f34354604051600080516020612ec7833981519152916001600160a01b0316906108fc8415029084906000818181858888f19350505050158015610280573d6000803e3d6000fd5b7fec7e8c1c441439dd40959777f4c577ea0cd42fcc1dbe59d2bd0f5d9c55df8dc554600080516020612f078339815191528054600092829161ffff90911690811061256257612562612c8b565b60009182526020909120600490910201546001600160a01b031692915050565b600080600080612592868661289a565b9150915060006125a28388611ffd565b905060006125b08389611ffd565b9050836040015194506125c382826126e5565b9550505050509250929050565b600060028260028111156125e6576125e6612bba565b036125f3576125f3612ca1565b600080516020612f07833981519152600083600281111561261657612616612bba565b0361265257600484015481548291610100900461ffff1690811061263c5761263c612c8b565b906000526020600020906004020191505061017b565b6004840154815482916301000000900461ffff1690811061263c5761263c612c8b565b5092915050565b60008082600281111561269157612691612bba565b036126ad57506004820154600160f01b9004600116151561017b565b60018260028111156126c1576126c1612bba565b146126ce576126ce612ca1565b506004820154600160f01b9004600216151561017b565b60008183116126f45781610178565b5090919050565b6000816001600160a01b031660a084600281111561271b5761271b612bba565b901b179392505050565b7f4f24f5c433db0962dac0d2c8b84197a6e6c7cc4e5d9ebe1916a1b6193da2f3445460009081908190600080516020612ec7833981519152906001600160a01b031685156127e75760405163e4a0a55b60e01b81526001600160a01b0382169063e4a0a55b90612799908a90600401612e49565b606060405180830381865afa1580156127b6573d6000803e3d6000fd5b505050506040513d601f19601f820116820180604052508101906127da9190612e98565b9450945094505050612276565b60405163524f388960e01b81526001600160a01b0382169063524f388990612799908a90600401612e49565b6000600080516020612ec7833981519152816009612831878a612bf9565b61283b9190612bf9565b600a83015490915060009061285b908690600160a81b900460ff16612bf9565b90508082101561286d5761286d612ca1565b61288d61287a8284612be6565b61288590600a612d9b565b87908a61227d565b9998505050505050505050565b6128bf6040805160608101909152806000815260200160008152602001600081525090565b6128e46040805160608101909152806000815260200160008152602001600081525090565b60006128f085856125d0565b905060006128fe86866129fd565b9050600061290b83612a40565b612916576000612983565b82546040516370a0823160e01b81526001600160a01b038481166004830152909116906370a0823190602401602060405180830381865afa15801561295f573d6000803e3d6000fd5b505050506040513d601f19601f820116820180604052508101906129839190612da7565b905060008061299185612a74565b9150915060405180606001604052808960028111156129b2576129b2612bba565b815260200184815260200183815250965060405180606001604052808960028111156129e0576129e0612bba565b815260200184815260200182815250955050505050509250929050565b60006001826002811115612a1357612a13612bba565b14612a3157600080516020612ee7833981519152831860401c610178565b5050546001600160a01b031690565b8054600090600160b01b90046001600160401b0316158061017b5750505442600160b01b9091046001600160401b03161190565b600080600080516020612ec7833981519152818080612a9387826120be565b9250925092506000806000612aa98a60016120be565b60108a015492955090935091506000908590612ad590600160c01b90046001600160401b031684612bf9565b10158015612b02575060108801548690612aff90600160c01b90046001600160401b031685612bf9565b10155b905086995080612b125786612b14565b835b98505050505050505050915091565b6001600160a01b03811681146101d057600080fd5b60008060408385031215612b4b57600080fd5b8235612b5681612b23565b91506020830135612b6681612b23565b809150509250929050565b60008060408385031215612b8457600080fd5b8235612b8f81612b23565b946020939093013593505050565b600060208284031215612baf57600080fd5b81356119ca81612b23565b634e487b7160e01b600052602160045260246000fd5b634e487b7160e01b600052601160045260246000fd5b8181038181111561017b5761017b612bd0565b8082018082111561017b5761017b612bd0565b600060208284031215612c1e57600080fd5b81516119ca81612b23565b6001600160401b0381811683821601908082111561267557612675612bd0565b600060208284031215612c5b57600080fd5b815180151581146119ca57600080fd5b6001600160401b0382811682821603908082111561267557612675612bd0565b634e487b7160e01b600052603260045260246000fd5b634e487b7160e01b600052600160045260246000fd5b600181815b80851115612cf2578160001904821115612cd857612cd8612bd0565b80851615612ce557918102915b93841c9390800290612cbc565b509250929050565b600082612d095750600161017b565b81612d165750600061017b565b8160018114612d2c5760028114612d3657612d52565b600191505061017b565b60ff841115612d4757612d47612bd0565b50506001821b61017b565b5060208310610133831016604e8410600b8410161715612d75575081810a61017b565b612d7f8383612cb7565b8060001904821115612d9357612d93612bd0565b029392505050565b60006101788383612cfa565b600060208284031215612db957600080fd5b5051919050565b600181811c90821680612dd457607f821691505b602082108103610e9157634e487b7160e01b600052602260045260246000fd5b634e487b7160e01b600052601260045260246000fd5b600082612e1957612e19612df4565b500490565b600082612e2d57612e2d612df4565b500690565b808202811582820484141761017b5761017b612bd0565b60006020808352835180602085015260005b81811015612e7757858101830151858201604001528201612e5b565b506000604082860101526040601f19601f8301168501019250505092915050565b600080600060608486031215612ead57600080fd5b835192506020840151915060408401519050925092509256fe4f24f5c433db0962dac0d2c8b84197a6e6c7cc4e5d9ebe1916a1b6193da2f33a5bebac0595fee029d42bb673937f5f1cb81cf8641382bc17774635de9b7d7965ec7e8c1c441439dd40959777f4c577ea0cd42fcc1dbe59d2bd0f5d9c55df8db6a2646970667358221220b89ee9b37bec1e701edceee66780bd301e7091d8db518a2f1057e6656a4b7c7d64736f6c63430008170033",
  "linkReferences": {},
  "deployedLinkReferences": {}
}