{
  "_format": "hh-sol-artifact-1",
  "contractName": "FtsoMock",
  "sourceName": "contracts/fasset/mock/FtsoMock.sol",
  "abi": [
    {
      "inputs": [
        {
          "internalType": "string",
          "name": "_symbol",
          "type": "string"
        },
        {
          "internalType": "uint256",
          "name": "_decimals",
          "type": "uint256"
        }
      ],
      "stateMutability": "nonpayable",
      "type": "constructor"
    },
    {
      "anonymous": false,
      "inputs": [
        {
          "indexed": true,
          "internalType": "uint256",
          "name": "epochId",
          "type": "uint256"
        },
        {
          "indexed": false,
          "internalType": "uint256",
          "name": "natTurnout",
          "type": "uint256"
        },
        {
          "indexed": false,
          "internalType": "uint256",
          "name": "lowNatTurnoutThresholdBIPS",
          "type": "uint256"
        },
        {
          "indexed": false,
          "internalType": "uint256",
          "name": "timestamp",
          "type": "uint256"
        }
      ],
      "name": "LowTurnout",
      "type": "event"
    },
    {
      "anonymous": false,
      "inputs": [
        {
          "indexed": true,
          "internalType": "uint256",
          "name": "epochId",
          "type": "uint256"
        },
        {
          "indexed": false,
          "internalType": "uint256",
          "name": "endTime",
          "type": "uint256"
        },
        {
          "indexed": false,
          "internalType": "uint256",
          "name": "timestamp",
          "type": "uint256"
        }
      ],
      "name": "PriceEpochInitializedOnFtso",
      "type": "event"
    },
    {
      "anonymous": false,
      "inputs": [
        {
          "indexed": true,
          "internalType": "uint256",
          "name": "epochId",
          "type": "uint256"
        },
        {
          "indexed": false,
          "internalType": "uint256",
          "name": "price",
          "type": "uint256"
        },
        {
          "indexed": false,
          "internalType": "bool",
          "name": "rewardedFtso",
          "type": "bool"
        },
        {
          "indexed": false,
          "internalType": "uint256",
          "name": "lowRewardPrice",
          "type": "uint256"
        },
        {
          "indexed": false,
          "internalType": "uint256",
          "name": "highRewardPrice",
          "type": "uint256"
        },
        {
          "indexed": false,
          "internalType": "enum IFtso.PriceFinalizationType",
          "name": "finalizationType",
          "type": "uint8"
        },
        {
          "indexed": false,
          "internalType": "uint256",
          "name": "timestamp",
          "type": "uint256"
        }
      ],
      "name": "PriceFinalized",
      "type": "event"
    },
    {
      "anonymous": false,
      "inputs": [
        {
          "indexed": true,
          "internalType": "address",
          "name": "voter",
          "type": "address"
        },
        {
          "indexed": true,
          "internalType": "uint256",
          "name": "epochId",
          "type": "uint256"
        },
        {
          "indexed": false,
          "internalType": "uint256",
          "name": "price",
          "type": "uint256"
        },
        {
          "indexed": false,
          "internalType": "uint256",
          "name": "timestamp",
          "type": "uint256"
        },
        {
          "indexed": false,
          "internalType": "uint256",
          "name": "votePowerNat",
          "type": "uint256"
        },
        {
          "indexed": false,
          "internalType": "uint256",
          "name": "votePowerAsset",
          "type": "uint256"
        }
      ],
      "name": "PriceRevealed",
      "type": "event"
    },
    {
      "inputs": [
        {
          "internalType": "uint256",
          "name": "_firstEpochStartTs",
          "type": "uint256"
        },
        {
          "internalType": "uint256",
          "name": "_submitPeriodSeconds",
          "type": "uint256"
        },
        {
          "internalType": "uint256",
          "name": "_revealPeriodSeconds",
          "type": "uint256"
        }
      ],
      "name": "activateFtso",
      "outputs": [],
      "stateMutability": "nonpayable",
      "type": "function"
    },
    {
      "inputs": [],
      "name": "active",
      "outputs": [
        {
          "internalType": "bool",
          "name": "",
          "type": "bool"
        }
      ],
      "stateMutability": "view",
      "type": "function"
    },
    {
      "inputs": [
        {
          "internalType": "uint256",
          "name": "_maxVotePowerNatThresholdFraction",
          "type": "uint256"
        },
        {
          "internalType": "uint256",
          "name": "_maxVotePowerAssetThresholdFraction",
          "type": "uint256"
        },
        {
          "internalType": "uint256",
          "name": "_lowAssetUSDThreshold",
          "type": "uint256"
        },
        {
          "internalType": "uint256",
          "name": "_highAssetUSDThreshold",
          "type": "uint256"
        },
        {
          "internalType": "uint256",
          "name": "_highAssetTurnoutThresholdBIPS",
          "type": "uint256"
        },
        {
          "internalType": "uint256",
          "name": "_lowNatTurnoutThresholdBIPS",
          "type": "uint256"
        },
        {
          "internalType": "address[]",
          "name": "_trustedAddresses",
          "type": "address[]"
        }
      ],
      "name": "configureEpochs",
      "outputs": [],
      "stateMutability": "nonpayable",
      "type": "function"
    },
    {
      "inputs": [],
      "name": "deactivateFtso",
      "outputs": [],
      "stateMutability": "nonpayable",
      "type": "function"
    },
    {
      "inputs": [],
      "name": "epochsConfiguration",
      "outputs": [
        {
          "internalType": "uint256",
          "name": "_maxVotePowerNatThresholdFraction",
          "type": "uint256"
        },
        {
          "internalType": "uint256",
          "name": "_maxVotePowerAssetThresholdFraction",
          "type": "uint256"
        },
        {
          "internalType": "uint256",
          "name": "_lowAssetUSDThreshold",
          "type": "uint256"
        },
        {
          "internalType": "uint256",
          "name": "_highAssetUSDThreshold",
          "type": "uint256"
        },
        {
          "internalType": "uint256",
          "name": "_highAssetTurnoutThresholdBIPS",
          "type": "uint256"
        },
        {
          "internalType": "uint256",
          "name": "_lowNatTurnoutThresholdBIPS",
          "type": "uint256"
        },
        {
          "internalType": "address[]",
          "name": "_trustedAddresses",
          "type": "address[]"
        }
      ],
      "stateMutability": "view",
      "type": "function"
    },
    {
      "inputs": [
        {
          "internalType": "uint256",
          "name": "_epochId",
          "type": "uint256"
        }
      ],
      "name": "fallbackFinalizePriceEpoch",
      "outputs": [],
      "stateMutability": "nonpayable",
      "type": "function"
    },
    {
      "inputs": [
        {
          "internalType": "uint256",
          "name": "_epochId",
          "type": "uint256"
        },
        {
          "internalType": "bool",
          "name": "_returnRewardData",
          "type": "bool"
        }
      ],
      "name": "finalizePriceEpoch",
      "outputs": [
        {
          "internalType": "address[]",
          "name": "_eligibleAddresses",
          "type": "address[]"
        },
        {
          "internalType": "uint256[]",
          "name": "_natWeights",
          "type": "uint256[]"
        },
        {
          "internalType": "uint256",
          "name": "_totalNatWeight",
          "type": "uint256"
        }
      ],
      "stateMutability": "nonpayable",
      "type": "function"
    },
    {
      "inputs": [
        {
          "internalType": "uint256",
          "name": "_epochId",
          "type": "uint256"
        }
      ],
      "name": "forceFinalizePriceEpoch",
      "outputs": [],
      "stateMutability": "nonpayable",
      "type": "function"
    },
    {
      "inputs": [],
      "name": "ftsoManager",
      "outputs": [
        {
          "internalType": "address",
          "name": "",
          "type": "address"
        }
      ],
      "stateMutability": "view",
      "type": "function"
    },
    {
      "inputs": [],
      "name": "getAsset",
      "outputs": [
        {
          "internalType": "contract IIVPToken",
          "name": "",
          "type": "address"
        }
      ],
      "stateMutability": "view",
      "type": "function"
    },
    {
      "inputs": [],
      "name": "getAssetFtsos",
      "outputs": [
        {
          "internalType": "contract IIFtso[]",
          "name": "",
          "type": "address[]"
        }
      ],
      "stateMutability": "view",
      "type": "function"
    },
    {
      "inputs": [],
      "name": "getCurrentEpochId",
      "outputs": [
        {
          "internalType": "uint256",
          "name": "",
          "type": "uint256"
        }
      ],
      "stateMutability": "view",
      "type": "function"
    },
    {
      "inputs": [],
      "name": "getCurrentPrice",
      "outputs": [
        {
          "internalType": "uint256",
          "name": "_price",
          "type": "uint256"
        },
        {
          "internalType": "uint256",
          "name": "_timestamp",
          "type": "uint256"
        }
      ],
      "stateMutability": "view",
      "type": "function"
    },
    {
      "inputs": [],
      "name": "getCurrentPriceDetails",
      "outputs": [
        {
          "internalType": "uint256",
          "name": "_price",
          "type": "uint256"
        },
        {
          "internalType": "uint256",
          "name": "_priceTimestamp",
          "type": "uint256"
        },
        {
          "internalType": "enum IFtso.PriceFinalizationType",
          "name": "_priceFinalizationType",
          "type": "uint8"
        },
        {
          "internalType": "uint256",
          "name": "_lastPriceEpochFinalizationTimestamp",
          "type": "uint256"
        },
        {
          "internalType": "enum IFtso.PriceFinalizationType",
          "name": "_lastPriceEpochFinalizationType",
          "type": "uint8"
        }
      ],
      "stateMutability": "view",
      "type": "function"
    },
    {
      "inputs": [],
      "name": "getCurrentPriceFromTrustedProviders",
      "outputs": [
        {
          "internalType": "uint256",
          "name": "_price",
          "type": "uint256"
        },
        {
          "internalType": "uint256",
          "name": "_timestamp",
          "type": "uint256"
        }
      ],
      "stateMutability": "view",
      "type": "function"
    },
    {
      "inputs": [],
      "name": "getCurrentPriceWithDecimals",
      "outputs": [
        {
          "internalType": "uint256",
          "name": "_price",
          "type": "uint256"
        },
        {
          "internalType": "uint256",
          "name": "_timestamp",
          "type": "uint256"
        },
        {
          "internalType": "uint256",
          "name": "_assetPriceUsdDecimals",
          "type": "uint256"
        }
      ],
      "stateMutability": "view",
      "type": "function"
    },
    {
      "inputs": [],
      "name": "getCurrentPriceWithDecimalsFromTrustedProviders",
      "outputs": [
        {
          "internalType": "uint256",
          "name": "_price",
          "type": "uint256"
        },
        {
          "internalType": "uint256",
          "name": "_timestamp",
          "type": "uint256"
        },
        {
          "internalType": "uint256",
          "name": "_assetPriceUsdDecimals",
          "type": "uint256"
        }
      ],
      "stateMutability": "view",
      "type": "function"
    },
    {
      "inputs": [],
      "name": "getCurrentRandom",
      "outputs": [
        {
          "internalType": "uint256",
          "name": "",
          "type": "uint256"
        }
      ],
      "stateMutability": "view",
      "type": "function"
    },
    {
      "inputs": [
        {
          "internalType": "uint256",
          "name": "_timestamp",
          "type": "uint256"
        }
      ],
      "name": "getEpochId",
      "outputs": [
        {
          "internalType": "uint256",
          "name": "",
          "type": "uint256"
        }
      ],
      "stateMutability": "view",
      "type": "function"
    },
    {
      "inputs": [
        {
          "internalType": "uint256",
          "name": "_epochId",
          "type": "uint256"
        }
      ],
      "name": "getEpochPrice",
      "outputs": [
        {
          "internalType": "uint256",
          "name": "",
          "type": "uint256"
        }
      ],
      "stateMutability": "view",
      "type": "function"
    },
    {
      "inputs": [
        {
          "internalType": "uint256",
          "name": "_epochId",
          "type": "uint256"
        },
        {
          "internalType": "address",
          "name": "_voter",
          "type": "address"
        }
      ],
      "name": "getEpochPriceForVoter",
      "outputs": [
        {
          "internalType": "uint256",
          "name": "",
          "type": "uint256"
        }
      ],
      "stateMutability": "view",
      "type": "function"
    },
    {
      "inputs": [],
      "name": "getPriceEpochConfiguration",
      "outputs": [
        {
          "internalType": "uint256",
          "name": "_firstEpochStartTs",
          "type": "uint256"
        },
        {
          "internalType": "uint256",
          "name": "_submitPeriodSeconds",
          "type": "uint256"
        },
        {
          "internalType": "uint256",
          "name": "_revealPeriodSeconds",
          "type": "uint256"
        }
      ],
      "stateMutability": "view",
      "type": "function"
    },
    {
      "inputs": [],
      "name": "getPriceEpochData",
      "outputs": [
        {
          "internalType": "uint256",
          "name": "_epochId",
          "type": "uint256"
        },
        {
          "internalType": "uint256",
          "name": "_epochSubmitEndTime",
          "type": "uint256"
        },
        {
          "internalType": "uint256",
          "name": "_epochRevealEndTime",
          "type": "uint256"
        },
        {
          "internalType": "uint256",
          "name": "_votePowerBlock",
          "type": "uint256"
        },
        {
          "internalType": "bool",
          "name": "_fallbackMode",
          "type": "bool"
        }
      ],
      "stateMutability": "view",
      "type": "function"
    },
    {
      "inputs": [
        {
          "internalType": "uint256",
          "name": "_epochId",
          "type": "uint256"
        }
      ],
      "name": "getRandom",
      "outputs": [
        {
          "internalType": "uint256",
          "name": "",
          "type": "uint256"
        }
      ],
      "stateMutability": "view",
      "type": "function"
    },
    {
      "inputs": [],
      "name": "getVoteWeightingParameters",
      "outputs": [
        {
          "internalType": "contract IIVPToken[]",
          "name": "_assets",
          "type": "address[]"
        },
        {
          "internalType": "uint256[]",
          "name": "_assetMultipliers",
          "type": "uint256[]"
        },
        {
          "internalType": "uint256",
          "name": "_totalVotePowerNat",
          "type": "uint256"
        },
        {
          "internalType": "uint256",
          "name": "_totalVotePowerAsset",
          "type": "uint256"
        },
        {
          "internalType": "uint256",
          "name": "_assetWeightRatio",
          "type": "uint256"
        },
        {
          "internalType": "uint256",
          "name": "_votePowerBlock",
          "type": "uint256"
        }
      ],
      "stateMutability": "view",
      "type": "function"
    },
    {
      "inputs": [
        {
          "internalType": "uint256",
          "name": "_circulatingSupplyNat",
          "type": "uint256"
        },
        {
          "internalType": "bool",
          "name": "_fallbackMode",
          "type": "bool"
        }
      ],
      "name": "initializeCurrentEpochStateForReveal",
      "outputs": [],
      "stateMutability": "nonpayable",
      "type": "function"
    },
    {
      "inputs": [
        {
          "internalType": "address",
          "name": "_voter",
          "type": "address"
        },
        {
          "internalType": "uint256",
          "name": "_epochId",
          "type": "uint256"
        },
        {
          "internalType": "uint256",
          "name": "_price",
          "type": "uint256"
        },
        {
          "internalType": "uint256",
          "name": "_wNatVP",
          "type": "uint256"
        }
      ],
      "name": "revealPriceSubmitter",
      "outputs": [],
      "stateMutability": "nonpayable",
      "type": "function"
    },
    {
      "inputs": [
        {
          "internalType": "contract IIVPToken",
          "name": "_asset",
          "type": "address"
        }
      ],
      "name": "setAsset",
      "outputs": [],
      "stateMutability": "nonpayable",
      "type": "function"
    },
    {
      "inputs": [
        {
          "internalType": "contract IIFtso[]",
          "name": "_assetFtsos",
          "type": "address[]"
        }
      ],
      "name": "setAssetFtsos",
      "outputs": [],
      "stateMutability": "nonpayable",
      "type": "function"
    },
    {
      "inputs": [
        {
          "internalType": "uint256",
          "name": "_price",
          "type": "uint256"
        },
        {
          "internalType": "uint256",
          "name": "_ageSeconds",
          "type": "uint256"
        }
      ],
      "name": "setCurrentPrice",
      "outputs": [],
      "stateMutability": "nonpayable",
      "type": "function"
    },
    {
      "inputs": [
        {
          "internalType": "uint256",
          "name": "_price",
          "type": "uint256"
        },
        {
          "internalType": "uint256",
          "name": "_ageSeconds",
          "type": "uint256"
        }
      ],
      "name": "setCurrentPriceFromTrustedProviders",
      "outputs": [],
      "stateMutability": "nonpayable",
      "type": "function"
    },
    {
      "inputs": [
        {
          "internalType": "uint256",
          "name": "_blockNumber",
          "type": "uint256"
        }
      ],
      "name": "setVotePowerBlock",
      "outputs": [],
      "stateMutability": "nonpayable",
      "type": "function"
    },
    {
      "inputs": [],
      "name": "symbol",
      "outputs": [
        {
          "internalType": "string",
          "name": "",
          "type": "string"
        }
      ],
      "stateMutability": "view",
      "type": "function"
    },
    {
      "inputs": [
        {
          "internalType": "uint256",
          "name": "_initialPriceUSD",
          "type": "uint256"
        },
        {
          "internalType": "uint256",
          "name": "_initialPriceTimestamp",
          "type": "uint256"
        }
      ],
      "name": "updateInitialPrice",
      "outputs": [],
      "stateMutability": "nonpayable",
      "type": "function"
    },
    {
      "inputs": [],
      "name": "wNat",
      "outputs": [
        {
          "internalType": "contract IIVPToken",
          "name": "",
          "type": "address"
        }
      ],
      "stateMutability": "view",
      "type": "function"
    },
    {
      "inputs": [
        {
          "internalType": "address",
          "name": "_voter",
          "type": "address"
        },
        {
          "internalType": "uint256",
          "name": "_epochId",
          "type": "uint256"
        }
      ],
      "name": "wNatVotePowerCached",
      "outputs": [
        {
          "internalType": "uint256",
          "name": "",
          "type": "uint256"
        }
      ],
      "stateMutability": "nonpayable",
      "type": "function"
    }
  ],
  "bytecode": "0x60c060405260016080523480156200001657600080fd5b5060405162000e2e38038062000e2e833981016040819052620000399162000115565b81516200004e90600090602085019062000059565b5060a0525062000237565b8280546200006790620001fa565b90600052602060002090601f0160209004810192826200008b5760008555620000d6565b82601f10620000a657805160ff1916838001178555620000d6565b82800160010185558215620000d6579182015b82811115620000d6578251825591602001919060010190620000b9565b50620000e4929150620000e8565b5090565b5b80821115620000e45760008155600101620000e9565b634e487b7160e01b600052604160045260246000fd5b600080604083850312156200012957600080fd5b82516001600160401b03808211156200014157600080fd5b818501915085601f8301126200015657600080fd5b8151818111156200016b576200016b620000ff565b604051601f8201601f19908116603f01168101908382118183101715620001965762000196620000ff565b81604052828152602093508884848701011115620001b357600080fd5b600091505b82821015620001d75784820184015181830185015290830190620001b8565b82821115620001e95760008484830101525b969092015195979596505050505050565b600181811c908216806200020f57607f821691505b602082108114156200023157634e487b7160e01b600052602260045260246000fd5b50919050565b60805160a051610bca62000264600039600081816102f20152610377015260006102260152610bca6000f3fe608060405234801561001057600080fd5b506004361061021c5760003560e01c80638c246f0b11610125578063d0d552dd116100ad578063e536f3961161007c578063e536f3961461033f578063eb91d37e14610494578063f670ebe31461049f578063f72cab28146104ad578063f7dba1f5146104bb57600080fd5b8063d0d552dd1461043d578063d89601fd146103f0578063e3749e0c1461044b578063e3b3a3b31461046757600080fd5b8063a29a839f116100f4578063a29a839f146103f0578063af52df08146103f7578063c1f6c36e14610413578063c5d8b9e714610427578063cd4b69141461034d57600080fd5b80638c246f0b146103c857806395d89b41146103db578063974d7a6b1461033f5780639edbf0071461027457600080fd5b806340462a2d116101a85780635c222bad116101775780635c222bad1461027457806365f5cd861461036f578063789068b71461039b5780637d1d6f121461034d5780638357d08c146103ae57600080fd5b806340462a2d146103165780634afd51021461033f5780635303548b1461034d578063555989da1461029457600080fd5b8063144e1591116101ef578063144e15911461029657806318931c35146102b65780632f0a6f3c146102c5578063306ba253146102d85780633cacb3ae146102ea57600080fd5b806302fb0c5e14610221578063040d73b81461025d57806311a7aaaa14610274578063131fdee214610283575b600080fd5b6102487f000000000000000000000000000000000000000000000000000000000000000081565b60405190151581526020015b60405180910390f35b6000808080806040516102549594939291906105ae565b60405160008152602001610254565b610294610291366004610666565b50565b005b600080805b60408051938452602084019290925290820152606001610254565b60606040516102549190610705565b6102946102d3366004610752565b505050565b6102946102e636600461077e565b5050565b6003546004547f000000000000000000000000000000000000000000000000000000000000000061029b565b6103306103243660046107a0565b60608060009250925092565b60405161025493929190610849565b61029461029136600461087f565b61036161035b36600461087f565b50600090565b604051908152602001610254565b6001546002547f000000000000000000000000000000000000000000000000000000000000000061029b565b6102946103a936600461077e565b6104d2565b606080600080808060405161025496959493929190610898565b6102946103d636600461077e565b6104e8565b6103e36104fe565b6040516102549190610915565b6000610361565b6003546004545b60408051928352602083019190915201610254565b61029461042136600461096a565b50505050565b6103616104353660046109a5565b600092915050565b6102946102913660046109ca565b60008080808080606060405161025497969594939291906109ee565b6040805160008082526020820181905291810182905260608101829052608081019190915260a001610254565b6001546002546103fe565b6102946102e63660046107a0565b610361610435366004610a32565b6102946104c9366004610a5e565b50505050505050565b60018290556104e18142610b34565b6002555050565b60038290556104f78142610b34565b6004555050565b6000805461050b90610b59565b80601f016020809104026020016040519081016040528092919081815260200182805461053790610b59565b80156105845780601f1061055957610100808354040283529160200191610584565b820191906000526020600020905b81548152906001019060200180831161056757829003601f168201915b505050505081565b600681106105aa57634e487b7160e01b600052602160045260246000fd5b9052565b8581526020810185905260a081016105c9604083018661058c565b8360608301526105dc608083018461058c565b9695505050505050565b634e487b7160e01b600052604160045260246000fd5b604051601f8201601f1916810167ffffffffffffffff81118282101715610625576106256105e6565b604052919050565b600067ffffffffffffffff821115610647576106476105e6565b5060051b60200190565b6001600160a01b038116811461029157600080fd5b6000602080838503121561067957600080fd5b823567ffffffffffffffff81111561069057600080fd5b8301601f810185136106a157600080fd5b80356106b46106af8261062d565b6105fc565b81815260059190911b820183019083810190878311156106d357600080fd5b928401925b828410156106fa5783356106eb81610651565b825292840192908401906106d8565b979650505050505050565b6020808252825182820181905260009190848201906040850190845b818110156107465783516001600160a01b031683529284019291840191600101610721565b50909695505050505050565b60008060006060848603121561076757600080fd5b505081359360208301359350604090920135919050565b6000806040838503121561079157600080fd5b50508035926020909101359150565b600080604083850312156107b357600080fd5b82359150602083013580151581146107ca57600080fd5b809150509250929050565b600081518084526020808501945080840160005b8381101561080e5781516001600160a01b0316875295820195908201906001016107e9565b509495945050505050565b600081518084526020808501945080840160005b8381101561080e5781518752958201959082019060010161082d565b60608152600061085c60608301866107d5565b828103602084015261086e8186610819565b915050826040830152949350505050565b60006020828403121561089157600080fd5b5035919050565b60c0808252875190820181905260009060209060e0840190828b01845b828110156108da5781516001600160a01b0316845292840192908401906001016108b5565b505050838103828501526108ee818a610819565b925050508560408301528460608301528360808301528260a0830152979650505050505050565b600060208083528351808285015260005b8181101561094257858101830151858201604001528201610926565b81811115610954576000604083870101525b50601f01601f1916929092016040019392505050565b6000806000806080858703121561098057600080fd5b843561098b81610651565b966020860135965060408601359560600135945092505050565b600080604083850312156109b857600080fd5b8235915060208301356107ca81610651565b6000602082840312156109dc57600080fd5b81356109e781610651565b9392505050565b8781528660208201528560408201528460608201528360808201528260a082015260e060c08201526000610a2560e08301846107d5565b9998505050505050505050565b60008060408385031215610a4557600080fd5b8235610a5081610651565b946020939093013593505050565b600080600080600080600060e0888a031215610a7957600080fd5b87359650602080890135965060408901359550606089013594506080890135935060a0890135925060c089013567ffffffffffffffff811115610abb57600080fd5b8901601f81018b13610acc57600080fd5b8035610ada6106af8261062d565b81815260059190911b8201830190838101908d831115610af957600080fd5b928401925b82841015610b20578335610b1181610651565b82529284019290840190610afe565b809550505050505092959891949750929550565b600082821015610b5457634e487b7160e01b600052601160045260246000fd5b500390565b600181811c90821680610b6d57607f821691505b60208210811415610b8e57634e487b7160e01b600052602260045260246000fd5b5091905056fea264697066735822122022c7a67a2652e059bda9d67536e543cbb00649ff5079625b3b0395ce6ed6541164736f6c634300080b0033",
  "linkReferences": {},
  "deployedLinkReferences": {}
}