{
  "_format": "hh-sol-artifact-1",
  "contractName": "GovernedWithTimelockMock",
  "sourceName": "contracts/governance/mock/GovernedWithTimelockMock.sol",
  "abi": [
    {
      "inputs": [
        {
          "internalType": "contract IGovernanceSettings",
          "name": "_governanceSettings",
          "type": "address"
        },
        {
          "internalType": "address",
          "name": "_initialGovernance",
          "type": "address"
        }
      ],
      "stateMutability": "nonpayable",
      "type": "constructor"
    },
    {
      "anonymous": false,
      "inputs": [
        {
          "indexed": false,
          "internalType": "bytes",
          "name": "encodedCall",
          "type": "bytes"
        },
        {
          "indexed": false,
          "internalType": "bytes32",
          "name": "encodedCallHash",
          "type": "bytes32"
        },
        {
          "indexed": false,
          "internalType": "uint256",
          "name": "allowedAfterTimestamp",
          "type": "uint256"
        }
      ],
      "name": "GovernanceCallTimelocked",
      "type": "event"
    },
    {
      "anonymous": false,
      "inputs": [
        {
          "indexed": false,
          "internalType": "address",
          "name": "initialGovernance",
          "type": "address"
        }
      ],
      "name": "GovernanceInitialised",
      "type": "event"
    },
    {
      "anonymous": false,
      "inputs": [
        {
          "indexed": false,
          "internalType": "address",
          "name": "governanceSettings",
          "type": "address"
        }
      ],
      "name": "GovernedProductionModeEntered",
      "type": "event"
    },
    {
      "anonymous": false,
      "inputs": [
        {
          "indexed": false,
          "internalType": "bytes32",
          "name": "encodedCallHash",
          "type": "bytes32"
        }
      ],
      "name": "TimelockedGovernanceCallCanceled",
      "type": "event"
    },
    {
      "anonymous": false,
      "inputs": [
        {
          "indexed": false,
          "internalType": "bytes32",
          "name": "encodedCallHash",
          "type": "bytes32"
        }
      ],
      "name": "TimelockedGovernanceCallExecuted",
      "type": "event"
    },
    {
      "inputs": [],
      "name": "a",
      "outputs": [
        {
          "internalType": "uint256",
          "name": "",
          "type": "uint256"
        }
      ],
      "stateMutability": "view",
      "type": "function"
    },
    {
      "inputs": [],
      "name": "b",
      "outputs": [
        {
          "internalType": "uint256",
          "name": "",
          "type": "uint256"
        }
      ],
      "stateMutability": "view",
      "type": "function"
    },
    {
      "inputs": [
        {
          "internalType": "bytes",
          "name": "_encodedCall",
          "type": "bytes"
        }
      ],
      "name": "cancelGovernanceCall",
      "outputs": [],
      "stateMutability": "nonpayable",
      "type": "function"
    },
    {
      "inputs": [
        {
          "internalType": "uint256",
          "name": "_value",
          "type": "uint256"
        }
      ],
      "name": "changeA",
      "outputs": [],
      "stateMutability": "nonpayable",
      "type": "function"
    },
    {
      "inputs": [
        {
          "internalType": "uint256",
          "name": "_value",
          "type": "uint256"
        }
      ],
      "name": "changeB",
      "outputs": [],
      "stateMutability": "nonpayable",
      "type": "function"
    },
    {
      "inputs": [
        {
          "internalType": "uint256",
          "name": "_value",
          "type": "uint256"
        }
      ],
      "name": "changeWithRevert",
      "outputs": [],
      "stateMutability": "nonpayable",
      "type": "function"
    },
    {
      "inputs": [
        {
          "internalType": "bytes",
          "name": "_encodedCall",
          "type": "bytes"
        }
      ],
      "name": "executeGovernanceCall",
      "outputs": [],
      "stateMutability": "nonpayable",
      "type": "function"
    },
    {
      "inputs": [],
      "name": "governance",
      "outputs": [
        {
          "internalType": "address",
          "name": "",
          "type": "address"
        }
      ],
      "stateMutability": "view",
      "type": "function"
    },
    {
      "inputs": [],
      "name": "governanceSettings",
      "outputs": [
        {
          "internalType": "contract IGovernanceSettings",
          "name": "",
          "type": "address"
        }
      ],
      "stateMutability": "view",
      "type": "function"
    },
    {
      "inputs": [
        {
          "internalType": "uint256",
          "name": "_increment",
          "type": "uint256"
        }
      ],
      "name": "increaseA",
      "outputs": [],
      "stateMutability": "nonpayable",
      "type": "function"
    },
    {
      "inputs": [
        {
          "internalType": "contract IGovernanceSettings",
          "name": "_governanceSettings",
          "type": "address"
        },
        {
          "internalType": "address",
          "name": "_initialGovernance",
          "type": "address"
        }
      ],
      "name": "initialise",
      "outputs": [],
      "stateMutability": "nonpayable",
      "type": "function"
    },
    {
      "inputs": [
        {
          "internalType": "address",
          "name": "_address",
          "type": "address"
        }
      ],
      "name": "isExecutor",
      "outputs": [
        {
          "internalType": "bool",
          "name": "",
          "type": "bool"
        }
      ],
      "stateMutability": "view",
      "type": "function"
    },
    {
      "inputs": [],
      "name": "productionMode",
      "outputs": [
        {
          "internalType": "bool",
          "name": "",
          "type": "bool"
        }
      ],
      "stateMutability": "view",
      "type": "function"
    },
    {
      "inputs": [],
      "name": "switchToProductionMode",
      "outputs": [],
      "stateMutability": "nonpayable",
      "type": "function"
    }
  ],
  "bytecode": "0x608060405234801561001057600080fd5b50604051610fb4380380610fb483398101604081905261002f916101f0565b818161003b8282610044565b5050505061022a565b7f2aa47ee5db910f3b2a06970c443249cc77dbd9f96100cfebc1775ab7fb1d18248054600160a01b900460ff16156100c35760405162461bcd60e51b815260206004820152601460248201527f696e697469616c6973656420213d2066616c736500000000000000000000000060448201526064015b60405180910390fd5b6001600160a01b0383166101195760405162461bcd60e51b815260206004820152601860248201527f676f7665726e616e63652073657474696e6773207a65726f000000000000000060448201526064016100ba565b6001600160a01b0382166101625760405162461bcd60e51b815260206004820152601060248201526f5f676f7665726e616e6365207a65726f60801b60448201526064016100ba565b80546001600160a01b038481166001600160a81b031990921691909117600160a01b1782556001820180549184166001600160a01b0319909216821790556040519081527f9789733827840833afc031fb2ef9ab6894271f77bad2085687cf4ae5c7bee4db9060200160405180910390a1505050565b6001600160a01b03811681146101ed57600080fd5b50565b6000806040838503121561020357600080fd5b825161020e816101d8565b602084015190925061021f816101d8565b809150509250929050565b610d7b806102396000396000f3fe608060405234801561001057600080fd5b50600436106100ea5760003560e01c8063aa4f49ce1161008c578063e17f212e11610066578063e17f212e146101d6578063ef88bf13146101f5578063f5a9838314610208578063fcbfcc711461021057600080fd5b8063aa4f49ce1461018d578063d1796191146101a0578063debfda30146101b357600080fd5b80634df7e3d0116100c85780634df7e3d0146101335780635aa6e6751461013c57806362354e031461015c57806366ff86bd1461017a57600080fd5b80630dbe671f146100ef57806316fc2f6d1461010b57806320c5f99d14610120575b600080fd5b6100f860005481565b6040519081526020015b60405180910390f35b61011e610119366004610b4a565b610223565b005b61011e61012e366004610b4a565b61030b565b6100f860015481565b6101446104fa565b6040516001600160a01b039091168152602001610102565b600080516020610d26833981519152546001600160a01b0316610144565b61011e610188366004610bbc565b6105a3565b61011e61019b366004610bbc565b6105b0565b61011e6101ae366004610bbc565b6105f1565b6101c66101c1366004610bea565b610644565b6040519015158152602001610102565b600080516020610d2683398151915254600160a81b900460ff166101c6565b61011e610203366004610c07565b6106de565b61011e610852565b61011e61021e366004610bbc565b610926565b61022b610940565b604051600080516020610d268339815191529060009061024e9085908590610c40565b60405180910390209050816002016000828152602001908152602001600020546000036102c25760405162461bcd60e51b815260206004820152601a60248201527f74696d656c6f636b3a20696e76616c69642073656c6563746f7200000000000060448201526064015b60405180910390fd5b6040518181527f69b058d6225c01c1f2a25801ca5b05705fa2e9118e93d518390ba804398c87b19060200160405180910390a16000908152600290910160205260408120555050565b600080516020610d2683398151915261032333610644565b61035f5760405162461bcd60e51b815260206004820152600d60248201526c37b7363c9032bc32b1baba37b960991b60448201526064016102b9565b60008383604051610371929190610c40565b604080519182900390912060008181526002850160205291822054909250908190036103df5760405162461bcd60e51b815260206004820152601a60248201527f74696d656c6f636b3a20696e76616c69642073656c6563746f7200000000000060448201526064016102b9565b8042101561042f5760405162461bcd60e51b815260206004820152601960248201527f74696d656c6f636b3a206e6f7420616c6c6f776564207965740000000000000060448201526064016102b9565b6000828152600284016020526040808220829055845460ff60b01b1916600160b01b1785555130906104649088908890610c40565b6000604051808303816000865af19150503d80600081146104a1576040519150601f19603f3d011682016040523d82523d6000602084013e6104a6565b606091505b5050845460ff60b01b191685556040518481529091507fec1225e5a8a8acb91e03ce648c683c74f5d152a775b9715980999441d714c44f9060200160405180910390a16104f28161099c565b505050505050565b600080516020610d26833981519152805460009190600160a81b900460ff166105305760018101546001600160a01b031661059d565b805460408051631cc9492560e21b815290516001600160a01b03909216916373252494916004808201926020929091908290030181865afa158015610579573d6000803e3d6000fd5b505050506040513d601f19601f8201168201806040525081019061059d9190610c50565b91505090565b6105ab610940565b600155565b6105b86109b9565b156105e1576105c56109ef565b806000808282546105d69190610c6d565b909155506105ee9050565b6105ee6000366000610a33565b50565b6105f96109b9565b156105e1576106066109ef565b600081905560405162461bcd60e51b815260206004820152600e60248201526d1d1a1a5cc81a5cc81c995d995c9d60921b60448201526064016102b9565b600080516020610d26833981519152805460009190600160a01b900460ff1680156106d757508054604051630debfda360e41b81526001600160a01b0385811660048301529091169063debfda3090602401602060405180830381865afa1580156106b3573d6000803e3d6000fd5b505050506040513d601f19601f820116820180604052508101906106d79190610c94565b9392505050565b600080516020610d268339815191528054600160a01b900460ff161561073d5760405162461bcd60e51b8152602060048201526014602482015273696e697469616c6973656420213d2066616c736560601b60448201526064016102b9565b6001600160a01b0383166107935760405162461bcd60e51b815260206004820152601860248201527f676f7665726e616e63652073657474696e6773207a65726f000000000000000060448201526064016102b9565b6001600160a01b0382166107dc5760405162461bcd60e51b815260206004820152601060248201526f5f676f7665726e616e6365207a65726f60801b60448201526064016102b9565b80546001600160a01b038481166001600160a81b031990921691909117600160a01b1782556001820180549184166001600160a01b0319909216821790556040519081527f9789733827840833afc031fb2ef9ab6894271f77bad2085687cf4ae5c7bee4db9060200160405180910390a1505050565b61085a610940565b600080516020610d268339815191528054600160a81b900460ff16156108c25760405162461bcd60e51b815260206004820152601a60248201527f616c726561647920696e2070726f64756374696f6e206d6f646500000000000060448201526064016102b9565b6001810180546001600160a01b03191690558054600160a81b60ff60a81b1982161782556040516001600160a01b0390911681527f83af113638b5422f9e977cebc0aaf0eaf2188eb9a8baae7f9d46c42b33a1560c9060200160405180910390a150565b61092e6109b9565b156105e15761093b6109ef565b600055565b6109486104fa565b6001600160a01b0316336001600160a01b03161461099a5760405162461bcd60e51b815260206004820152600f60248201526e6f6e6c7920676f7665726e616e636560881b60448201526064016102b9565b565b3d604051818101604052816000823e82156109b5578181f35b8181fd5b600080516020610d26833981519152805460009190600160b01b900460ff168061059d575054600160a81b900460ff1615919050565b600080516020610d268339815191528054600160b01b900460ff1615610a2b57333014610a1e57610a1e610cb6565b805460ff60b01b19169055565b6105ee610940565b600080516020610d26833981519152610a4a610940565b60008484604051610a5c929190610c40565b604080519182900382208454636221a54b60e01b845291519093506000926001600160a01b0390921691636221a54b9160048083019260209291908290030181865afa158015610ab0573d6000803e3d6000fd5b505050506040513d601f19601f82011682018060405250810190610ad49190610ccc565b905083811015610ae15750825b6000610aed8242610c6d565b600084815260028601602052604090819020829055519091507f8c02104dfc280f713854f25297de671710c544c58de69dbde8fb66974ce1ab9e90610b39908990899087908690610ce5565b60405180910390a150505050505050565b60008060208385031215610b5d57600080fd5b823567ffffffffffffffff80821115610b7557600080fd5b818501915085601f830112610b8957600080fd5b813581811115610b9857600080fd5b866020828501011115610baa57600080fd5b60209290920196919550909350505050565b600060208284031215610bce57600080fd5b5035919050565b6001600160a01b03811681146105ee57600080fd5b600060208284031215610bfc57600080fd5b81356106d781610bd5565b60008060408385031215610c1a57600080fd5b8235610c2581610bd5565b91506020830135610c3581610bd5565b809150509250929050565b8183823760009101908152919050565b600060208284031215610c6257600080fd5b81516106d781610bd5565b80820180821115610c8e57634e487b7160e01b600052601160045260246000fd5b92915050565b600060208284031215610ca657600080fd5b815180151581146106d757600080fd5b634e487b7160e01b600052600160045260246000fd5b600060208284031215610cde57600080fd5b5051919050565b606081528360608201528385608083013760006080858301015260006080601f19601f87011683010190508360208301528260408301529594505050505056fe2aa47ee5db910f3b2a06970c443249cc77dbd9f96100cfebc1775ab7fb1d1824a2646970667358221220e977eb98852d0c2affcc949550137f28ffbcb66f148fe3fc4e63ce5486e2dc5064736f6c63430008170033",
  "linkReferences": {},
  "deployedLinkReferences": {}
}