{
  "_format": "hh-sol-artifact-1",
  "contractName": "AssetManagerController",
  "sourceName": "contracts/fasset/implementation/AssetManagerController.sol",
  "abi": [
    {
      "inputs": [
        {
          "internalType": "contract IGovernanceSettings",
          "name": "_governanceSettings",
          "type": "address"
        },
        {
          "internalType": "address",
          "name": "_initialGovernance",
          "type": "address"
        },
        {
          "internalType": "address",
          "name": "_addressUpdater",
          "type": "address"
        }
      ],
      "stateMutability": "nonpayable",
      "type": "constructor"
    },
    {
      "anonymous": false,
      "inputs": [
        {
          "indexed": true,
          "internalType": "address",
          "name": "agentVault",
          "type": "address"
        },
        {
          "indexed": false,
          "internalType": "uint256",
          "name": "feeBIPS",
          "type": "uint256"
        },
        {
          "indexed": false,
          "internalType": "uint256",
          "name": "mintingClass1CollateralRatioBIPS",
          "type": "uint256"
        },
        {
          "indexed": false,
          "internalType": "uint256",
          "name": "mintingPoolCollateralRatioBIPS",
          "type": "uint256"
        },
        {
          "indexed": false,
          "internalType": "uint256",
          "name": "freeCollateralLots",
          "type": "uint256"
        }
      ],
      "name": "AgentAvailable",
      "type": "event"
    },
    {
      "anonymous": false,
      "inputs": [
        {
          "indexed": true,
          "internalType": "address",
          "name": "owner",
          "type": "address"
        },
        {
          "indexed": false,
          "internalType": "uint8",
          "name": "agentType",
          "type": "uint8"
        },
        {
          "indexed": false,
          "internalType": "address",
          "name": "agentVault",
          "type": "address"
        },
        {
          "indexed": false,
          "internalType": "string",
          "name": "underlyingAddress",
          "type": "string"
        },
        {
          "indexed": false,
          "internalType": "address",
          "name": "collateralPool",
          "type": "address"
        }
      ],
      "name": "AgentCreated",
      "type": "event"
    },
    {
      "anonymous": false,
      "inputs": [
        {
          "indexed": true,
          "internalType": "address",
          "name": "agentVault",
          "type": "address"
        },
        {
          "indexed": false,
          "internalType": "uint256",
          "name": "destroyAllowedAt",
          "type": "uint256"
        }
      ],
      "name": "AgentDestroyAnnounced",
      "type": "event"
    },
    {
      "anonymous": false,
      "inputs": [
        {
          "indexed": true,
          "internalType": "address",
          "name": "agentVault",
          "type": "address"
        }
      ],
      "name": "AgentDestroyed",
      "type": "event"
    },
    {
      "anonymous": false,
      "inputs": [
        {
          "indexed": true,
          "internalType": "address",
          "name": "agentVault",
          "type": "address"
        },
        {
          "indexed": false,
          "internalType": "uint256",
          "name": "timestamp",
          "type": "uint256"
        }
      ],
      "name": "AgentInCCB",
      "type": "event"
    },
    {
      "anonymous": false,
      "inputs": [
        {
          "indexed": false,
          "internalType": "address",
          "name": "agentVault",
          "type": "address"
        },
        {
          "indexed": false,
          "internalType": "string",
          "name": "name",
          "type": "string"
        },
        {
          "indexed": false,
          "internalType": "uint256",
          "name": "value",
          "type": "uint256"
        },
        {
          "indexed": false,
          "internalType": "uint256",
          "name": "validAt",
          "type": "uint256"
        }
      ],
      "name": "AgentSettingChangeAnnounced",
      "type": "event"
    },
    {
      "anonymous": false,
      "inputs": [
        {
          "indexed": false,
          "internalType": "address",
          "name": "agentVault",
          "type": "address"
        },
        {
          "indexed": false,
          "internalType": "string",
          "name": "name",
          "type": "string"
        },
        {
          "indexed": false,
          "internalType": "uint256",
          "name": "value",
          "type": "uint256"
        }
      ],
      "name": "AgentSettingChanged",
      "type": "event"
    },
    {
      "anonymous": false,
      "inputs": [
        {
          "indexed": true,
          "internalType": "address",
          "name": "agentVault",
          "type": "address"
        },
        {
          "indexed": false,
          "internalType": "uint256",
          "name": "exitAllowedAt",
          "type": "uint256"
        }
      ],
      "name": "AvailableAgentExitAnnounced",
      "type": "event"
    },
    {
      "anonymous": false,
      "inputs": [
        {
          "indexed": true,
          "internalType": "address",
          "name": "agentVault",
          "type": "address"
        }
      ],
      "name": "AvailableAgentExited",
      "type": "event"
    },
    {
      "anonymous": false,
      "inputs": [
        {
          "indexed": true,
          "internalType": "address",
          "name": "agentVault",
          "type": "address"
        },
        {
          "indexed": false,
          "internalType": "uint256",
          "name": "amountWei",
          "type": "uint256"
        },
        {
          "indexed": false,
          "internalType": "uint256",
          "name": "withdrawalAllowedAt",
          "type": "uint256"
        }
      ],
      "name": "Class1WithdrawalAnnounced",
      "type": "event"
    },
    {
      "anonymous": false,
      "inputs": [
        {
          "indexed": true,
          "internalType": "address",
          "name": "agentVault",
          "type": "address"
        },
        {
          "indexed": true,
          "internalType": "address",
          "name": "minter",
          "type": "address"
        },
        {
          "indexed": false,
          "internalType": "uint256",
          "name": "collateralReservationId",
          "type": "uint256"
        },
        {
          "indexed": false,
          "internalType": "uint256",
          "name": "reservedAmountUBA",
          "type": "uint256"
        }
      ],
      "name": "CollateralReservationDeleted",
      "type": "event"
    },
    {
      "anonymous": false,
      "inputs": [
        {
          "indexed": true,
          "internalType": "address",
          "name": "agentVault",
          "type": "address"
        },
        {
          "indexed": true,
          "internalType": "address",
          "name": "minter",
          "type": "address"
        },
        {
          "indexed": false,
          "internalType": "uint256",
          "name": "collateralReservationId",
          "type": "uint256"
        },
        {
          "indexed": false,
          "internalType": "uint256",
          "name": "valueUBA",
          "type": "uint256"
        },
        {
          "indexed": false,
          "internalType": "uint256",
          "name": "feeUBA",
          "type": "uint256"
        },
        {
          "indexed": false,
          "internalType": "uint256",
          "name": "lastUnderlyingBlock",
          "type": "uint256"
        },
        {
          "indexed": false,
          "internalType": "uint256",
          "name": "lastUnderlyingTimestamp",
          "type": "uint256"
        },
        {
          "indexed": false,
          "internalType": "string",
          "name": "paymentAddress",
          "type": "string"
        },
        {
          "indexed": false,
          "internalType": "bytes32",
          "name": "paymentReference",
          "type": "bytes32"
        }
      ],
      "name": "CollateralReserved",
      "type": "event"
    },
    {
      "anonymous": false,
      "inputs": [
        {
          "indexed": false,
          "internalType": "uint8",
          "name": "tokenClass",
          "type": "uint8"
        },
        {
          "indexed": false,
          "internalType": "address",
          "name": "tokenContract",
          "type": "address"
        },
        {
          "indexed": false,
          "internalType": "bool",
          "name": "directPricePair",
          "type": "bool"
        },
        {
          "indexed": false,
          "internalType": "string",
          "name": "assetFtsoSymbol",
          "type": "string"
        },
        {
          "indexed": false,
          "internalType": "string",
          "name": "tokenFtsoSymbol",
          "type": "string"
        },
        {
          "indexed": false,
          "internalType": "uint256",
          "name": "minCollateralRatioBIPS",
          "type": "uint256"
        },
        {
          "indexed": false,
          "internalType": "uint256",
          "name": "ccbMinCollateralRatioBIPS",
          "type": "uint256"
        },
        {
          "indexed": false,
          "internalType": "uint256",
          "name": "safetyMinCollateralRatioBIPS",
          "type": "uint256"
        }
      ],
      "name": "CollateralTokenAdded",
      "type": "event"
    },
    {
      "anonymous": false,
      "inputs": [
        {
          "indexed": false,
          "internalType": "uint8",
          "name": "tokenClass",
          "type": "uint8"
        },
        {
          "indexed": false,
          "internalType": "address",
          "name": "tokenContract",
          "type": "address"
        },
        {
          "indexed": false,
          "internalType": "uint256",
          "name": "validUntil",
          "type": "uint256"
        }
      ],
      "name": "CollateralTokenDeprecated",
      "type": "event"
    },
    {
      "anonymous": false,
      "inputs": [
        {
          "indexed": false,
          "internalType": "uint8",
          "name": "tokenClass",
          "type": "uint8"
        },
        {
          "indexed": false,
          "internalType": "address",
          "name": "tokenContract",
          "type": "address"
        },
        {
          "indexed": false,
          "internalType": "uint256",
          "name": "minCollateralRatioBIPS",
          "type": "uint256"
        },
        {
          "indexed": false,
          "internalType": "uint256",
          "name": "ccbMinCollateralRatioBIPS",
          "type": "uint256"
        },
        {
          "indexed": false,
          "internalType": "uint256",
          "name": "safetyMinCollateralRatioBIPS",
          "type": "uint256"
        }
      ],
      "name": "CollateralTokenRatiosChanged",
      "type": "event"
    },
    {
      "anonymous": false,
      "inputs": [
        {
          "indexed": false,
          "internalType": "string",
          "name": "name",
          "type": "string"
        },
        {
          "indexed": false,
          "internalType": "address",
          "name": "value",
          "type": "address"
        }
      ],
      "name": "ContractChanged",
      "type": "event"
    },
    {
      "anonymous": false,
      "inputs": [
        {
          "indexed": true,
          "internalType": "address",
          "name": "agentVault",
          "type": "address"
        },
        {
          "indexed": false,
          "internalType": "bytes32",
          "name": "transactionHash1",
          "type": "bytes32"
        },
        {
          "indexed": false,
          "internalType": "bytes32",
          "name": "transactionHash2",
          "type": "bytes32"
        }
      ],
      "name": "DuplicatePaymentConfirmed",
      "type": "event"
    },
    {
      "anonymous": false,
      "inputs": [
        {
          "indexed": true,
          "internalType": "address",
          "name": "agentVault",
          "type": "address"
        },
        {
          "indexed": false,
          "internalType": "uint256",
          "name": "dustUBA",
          "type": "uint256"
        }
      ],
      "name": "DustChanged",
      "type": "event"
    },
    {
      "anonymous": false,
      "inputs": [
        {
          "indexed": true,
          "internalType": "address",
          "name": "agentVault",
          "type": "address"
        },
        {
          "indexed": false,
          "internalType": "uint256",
          "name": "redemptionTicketId",
          "type": "uint256"
        },
        {
          "indexed": false,
          "internalType": "uint256",
          "name": "valueUBA",
          "type": "uint256"
        }
      ],
      "name": "DustConvertedToTicket",
      "type": "event"
    },
    {
      "anonymous": false,
      "inputs": [
        {
          "indexed": true,
          "internalType": "address",
          "name": "agentVault",
          "type": "address"
        },
        {
          "indexed": false,
          "internalType": "uint256",
          "name": "timestamp",
          "type": "uint256"
        }
      ],
      "name": "FullLiquidationStarted",
      "type": "event"
    },
    {
      "anonymous": false,
      "inputs": [
        {
          "indexed": false,
          "internalType": "bytes4",
          "name": "selector",
          "type": "bytes4"
        },
        {
          "indexed": false,
          "internalType": "uint256",
          "name": "allowedAfterTimestamp",
          "type": "uint256"
        },
        {
          "indexed": false,
          "internalType": "bytes",
          "name": "encodedCall",
          "type": "bytes"
        }
      ],
      "name": "GovernanceCallTimelocked",
      "type": "event"
    },
    {
      "anonymous": false,
      "inputs": [
        {
          "indexed": false,
          "internalType": "address",
          "name": "initialGovernance",
          "type": "address"
        }
      ],
      "name": "GovernanceInitialised",
      "type": "event"
    },
    {
      "anonymous": false,
      "inputs": [
        {
          "indexed": false,
          "internalType": "address",
          "name": "governanceSettings",
          "type": "address"
        }
      ],
      "name": "GovernedProductionModeEntered",
      "type": "event"
    },
    {
      "anonymous": false,
      "inputs": [
        {
          "indexed": true,
          "internalType": "address",
          "name": "agentVault",
          "type": "address"
        },
        {
          "indexed": false,
          "internalType": "bytes32",
          "name": "transactionHash",
          "type": "bytes32"
        }
      ],
      "name": "IllegalPaymentConfirmed",
      "type": "event"
    },
    {
      "anonymous": false,
      "inputs": [
        {
          "indexed": true,
          "internalType": "address",
          "name": "agentVault",
          "type": "address"
        }
      ],
      "name": "LiquidationEnded",
      "type": "event"
    },
    {
      "anonymous": false,
      "inputs": [
        {
          "indexed": true,
          "internalType": "address",
          "name": "agentVault",
          "type": "address"
        },
        {
          "indexed": true,
          "internalType": "address",
          "name": "liquidator",
          "type": "address"
        },
        {
          "indexed": false,
          "internalType": "uint256",
          "name": "valueUBA",
          "type": "uint256"
        }
      ],
      "name": "LiquidationPerformed",
      "type": "event"
    },
    {
      "anonymous": false,
      "inputs": [
        {
          "indexed": true,
          "internalType": "address",
          "name": "agentVault",
          "type": "address"
        },
        {
          "indexed": false,
          "internalType": "uint256",
          "name": "timestamp",
          "type": "uint256"
        }
      ],
      "name": "LiquidationStarted",
      "type": "event"
    },
    {
      "anonymous": false,
      "inputs": [
        {
          "indexed": true,
          "internalType": "address",
          "name": "agentVault",
          "type": "address"
        },
        {
          "indexed": false,
          "internalType": "uint256",
          "name": "collateralReservationId",
          "type": "uint256"
        },
        {
          "indexed": false,
          "internalType": "uint256",
          "name": "redemptionTicketId",
          "type": "uint256"
        },
        {
          "indexed": false,
          "internalType": "uint256",
          "name": "mintedAmountUBA",
          "type": "uint256"
        },
        {
          "indexed": false,
          "internalType": "uint256",
          "name": "agentFeeUBA",
          "type": "uint256"
        },
        {
          "indexed": false,
          "internalType": "uint256",
          "name": "poolFeeUBA",
          "type": "uint256"
        }
      ],
      "name": "MintingExecuted",
      "type": "event"
    },
    {
      "anonymous": false,
      "inputs": [
        {
          "indexed": true,
          "internalType": "address",
          "name": "agentVault",
          "type": "address"
        },
        {
          "indexed": true,
          "internalType": "address",
          "name": "minter",
          "type": "address"
        },
        {
          "indexed": false,
          "internalType": "uint256",
          "name": "collateralReservationId",
          "type": "uint256"
        },
        {
          "indexed": false,
          "internalType": "uint256",
          "name": "reservedAmountUBA",
          "type": "uint256"
        }
      ],
      "name": "MintingPaymentDefault",
      "type": "event"
    },
    {
      "anonymous": false,
      "inputs": [
        {
          "indexed": true,
          "internalType": "address",
          "name": "agentVault",
          "type": "address"
        },
        {
          "indexed": false,
          "internalType": "uint256",
          "name": "amountWei",
          "type": "uint256"
        },
        {
          "indexed": false,
          "internalType": "uint256",
          "name": "withdrawalAllowedAt",
          "type": "uint256"
        }
      ],
      "name": "PoolTokenRedemptionAnnounced",
      "type": "event"
    },
    {
      "anonymous": false,
      "inputs": [
        {
          "indexed": true,
          "internalType": "address",
          "name": "agentVault",
          "type": "address"
        },
        {
          "indexed": true,
          "internalType": "address",
          "name": "redeemer",
          "type": "address"
        },
        {
          "indexed": false,
          "internalType": "uint256",
          "name": "redemptionAmountUBA",
          "type": "uint256"
        },
        {
          "indexed": false,
          "internalType": "uint256",
          "name": "redeemedClass1CollateralWei",
          "type": "uint256"
        },
        {
          "indexed": false,
          "internalType": "uint256",
          "name": "redeemedPoolCollateralWei",
          "type": "uint256"
        },
        {
          "indexed": false,
          "internalType": "uint64",
          "name": "requestId",
          "type": "uint64"
        }
      ],
      "name": "RedemptionDefault",
      "type": "event"
    },
    {
      "anonymous": false,
      "inputs": [
        {
          "indexed": true,
          "internalType": "address",
          "name": "agentVault",
          "type": "address"
        },
        {
          "indexed": false,
          "internalType": "int256",
          "name": "freedUnderlyingBalanceUBA",
          "type": "int256"
        },
        {
          "indexed": false,
          "internalType": "uint64",
          "name": "requestId",
          "type": "uint64"
        }
      ],
      "name": "RedemptionFinished",
      "type": "event"
    },
    {
      "anonymous": false,
      "inputs": [
        {
          "indexed": true,
          "internalType": "address",
          "name": "agentVault",
          "type": "address"
        },
        {
          "indexed": true,
          "internalType": "address",
          "name": "redeemer",
          "type": "address"
        },
        {
          "indexed": false,
          "internalType": "bytes32",
          "name": "transactionHash",
          "type": "bytes32"
        },
        {
          "indexed": false,
          "internalType": "uint256",
          "name": "redemptionAmountUBA",
          "type": "uint256"
        },
        {
          "indexed": false,
          "internalType": "uint64",
          "name": "requestId",
          "type": "uint64"
        }
      ],
      "name": "RedemptionPaymentBlocked",
      "type": "event"
    },
    {
      "anonymous": false,
      "inputs": [
        {
          "indexed": true,
          "internalType": "address",
          "name": "agentVault",
          "type": "address"
        },
        {
          "indexed": true,
          "internalType": "address",
          "name": "redeemer",
          "type": "address"
        },
        {
          "indexed": false,
          "internalType": "bytes32",
          "name": "transactionHash",
          "type": "bytes32"
        },
        {
          "indexed": false,
          "internalType": "uint64",
          "name": "requestId",
          "type": "uint64"
        },
        {
          "indexed": false,
          "internalType": "string",
          "name": "failureReason",
          "type": "string"
        }
      ],
      "name": "RedemptionPaymentFailed",
      "type": "event"
    },
    {
      "anonymous": false,
      "inputs": [
        {
          "indexed": true,
          "internalType": "address",
          "name": "agentVault",
          "type": "address"
        },
        {
          "indexed": true,
          "internalType": "address",
          "name": "redeemer",
          "type": "address"
        },
        {
          "indexed": false,
          "internalType": "bytes32",
          "name": "transactionHash",
          "type": "bytes32"
        },
        {
          "indexed": false,
          "internalType": "uint256",
          "name": "valueUBA",
          "type": "uint256"
        },
        {
          "indexed": false,
          "internalType": "uint64",
          "name": "requestId",
          "type": "uint64"
        }
      ],
      "name": "RedemptionPerformed",
      "type": "event"
    },
    {
      "anonymous": false,
      "inputs": [
        {
          "indexed": true,
          "internalType": "address",
          "name": "redeemer",
          "type": "address"
        },
        {
          "indexed": false,
          "internalType": "uint256",
          "name": "remainingLots",
          "type": "uint256"
        }
      ],
      "name": "RedemptionRequestIncomplete",
      "type": "event"
    },
    {
      "anonymous": false,
      "inputs": [
        {
          "indexed": true,
          "internalType": "address",
          "name": "agentVault",
          "type": "address"
        },
        {
          "indexed": false,
          "internalType": "uint256",
          "name": "requestId",
          "type": "uint256"
        },
        {
          "indexed": false,
          "internalType": "string",
          "name": "paymentAddress",
          "type": "string"
        },
        {
          "indexed": false,
          "internalType": "uint256",
          "name": "valueUBA",
          "type": "uint256"
        },
        {
          "indexed": false,
          "internalType": "uint256",
          "name": "feeUBA",
          "type": "uint256"
        },
        {
          "indexed": false,
          "internalType": "uint256",
          "name": "lastUnderlyingBlock",
          "type": "uint256"
        },
        {
          "indexed": false,
          "internalType": "uint256",
          "name": "lastUnderlyingTimestamp",
          "type": "uint256"
        },
        {
          "indexed": false,
          "internalType": "bytes32",
          "name": "paymentReference",
          "type": "bytes32"
        }
      ],
      "name": "RedemptionRequested",
      "type": "event"
    },
    {
      "anonymous": false,
      "inputs": [
        {
          "indexed": true,
          "internalType": "address",
          "name": "agentVault",
          "type": "address"
        },
        {
          "indexed": false,
          "internalType": "uint256",
          "name": "valueUBA",
          "type": "uint256"
        }
      ],
      "name": "SelfClose",
      "type": "event"
    },
    {
      "anonymous": false,
      "inputs": [
        {
          "indexed": false,
          "internalType": "string",
          "name": "name",
          "type": "string"
        },
        {
          "indexed": false,
          "internalType": "uint256[]",
          "name": "value",
          "type": "uint256[]"
        }
      ],
      "name": "SettingArrayChanged",
      "type": "event"
    },
    {
      "anonymous": false,
      "inputs": [
        {
          "indexed": false,
          "internalType": "string",
          "name": "name",
          "type": "string"
        },
        {
          "indexed": false,
          "internalType": "uint256",
          "name": "value",
          "type": "uint256"
        }
      ],
      "name": "SettingChanged",
      "type": "event"
    },
    {
      "anonymous": false,
      "inputs": [
        {
          "indexed": false,
          "internalType": "bytes4",
          "name": "selector",
          "type": "bytes4"
        },
        {
          "indexed": false,
          "internalType": "uint256",
          "name": "timestamp",
          "type": "uint256"
        }
      ],
      "name": "TimelockedGovernanceCallCanceled",
      "type": "event"
    },
    {
      "anonymous": false,
      "inputs": [
        {
          "indexed": false,
          "internalType": "bytes4",
          "name": "selector",
          "type": "bytes4"
        },
        {
          "indexed": false,
          "internalType": "uint256",
          "name": "timestamp",
          "type": "uint256"
        }
      ],
      "name": "TimelockedGovernanceCallExecuted",
      "type": "event"
    },
    {
      "anonymous": false,
      "inputs": [
        {
          "indexed": false,
          "internalType": "address",
          "name": "agentVault",
          "type": "address"
        },
        {
          "indexed": false,
          "internalType": "uint256",
          "name": "freeBalanceChangeUBA",
          "type": "uint256"
        }
      ],
      "name": "UnderlyingBalanceToppedUp",
      "type": "event"
    },
    {
      "anonymous": false,
      "inputs": [
        {
          "indexed": true,
          "internalType": "address",
          "name": "agentVault",
          "type": "address"
        },
        {
          "indexed": false,
          "internalType": "int256",
          "name": "freeBalance",
          "type": "int256"
        }
      ],
      "name": "UnderlyingFreeBalanceNegative",
      "type": "event"
    },
    {
      "anonymous": false,
      "inputs": [
        {
          "indexed": false,
          "internalType": "address",
          "name": "agentVault",
          "type": "address"
        },
        {
          "indexed": false,
          "internalType": "uint64",
          "name": "announcementId",
          "type": "uint64"
        },
        {
          "indexed": false,
          "internalType": "bytes32",
          "name": "paymentReference",
          "type": "bytes32"
        }
      ],
      "name": "UnderlyingWithdrawalAnnounced",
      "type": "event"
    },
    {
      "anonymous": false,
      "inputs": [
        {
          "indexed": false,
          "internalType": "address",
          "name": "agentVault",
          "type": "address"
        },
        {
          "indexed": false,
          "internalType": "uint64",
          "name": "announcementId",
          "type": "uint64"
        }
      ],
      "name": "UnderlyingWithdrawalCancelled",
      "type": "event"
    },
    {
      "anonymous": false,
      "inputs": [
        {
          "indexed": false,
          "internalType": "address",
          "name": "agentVault",
          "type": "address"
        },
        {
          "indexed": false,
          "internalType": "int256",
          "name": "spentUBA",
          "type": "int256"
        },
        {
          "indexed": false,
          "internalType": "bytes32",
          "name": "transactionHash",
          "type": "bytes32"
        },
        {
          "indexed": false,
          "internalType": "uint64",
          "name": "announcementId",
          "type": "uint64"
        }
      ],
      "name": "UnderlyingWithdrawalConfirmed",
      "type": "event"
    },
    {
      "inputs": [
        {
          "internalType": "contract IAssetManager",
          "name": "_assetManager",
          "type": "address"
        }
      ],
      "name": "addAssetManager",
      "outputs": [],
      "stateMutability": "nonpayable",
      "type": "function"
    },
    {
      "inputs": [
        {
          "internalType": "contract IAssetManager[]",
          "name": "_assetManagers",
          "type": "address[]"
        },
        {
          "components": [
            {
              "internalType": "enum IAssetManager.CollateralTokenClass",
              "name": "tokenClass",
              "type": "uint8"
            },
            {
              "internalType": "contract IERC20",
              "name": "token",
              "type": "address"
            },
            {
              "internalType": "uint256",
              "name": "decimals",
              "type": "uint256"
            },
            {
              "internalType": "uint256",
              "name": "validUntil",
              "type": "uint256"
            },
            {
              "internalType": "bool",
              "name": "directPricePair",
              "type": "bool"
            },
            {
              "internalType": "string",
              "name": "assetFtsoSymbol",
              "type": "string"
            },
            {
              "internalType": "string",
              "name": "tokenFtsoSymbol",
              "type": "string"
            },
            {
              "internalType": "uint256",
              "name": "minCollateralRatioBIPS",
              "type": "uint256"
            },
            {
              "internalType": "uint256",
              "name": "ccbMinCollateralRatioBIPS",
              "type": "uint256"
            },
            {
              "internalType": "uint256",
              "name": "safetyMinCollateralRatioBIPS",
              "type": "uint256"
            }
          ],
          "internalType": "struct IAssetManager.CollateralTokenInfo",
          "name": "_data",
          "type": "tuple"
        }
      ],
      "name": "addCollateralToken",
      "outputs": [],
      "stateMutability": "nonpayable",
      "type": "function"
    },
    {
      "inputs": [
        {
          "internalType": "address",
          "name": "_assetManager",
          "type": "address"
        }
      ],
      "name": "assetManagerExists",
      "outputs": [
        {
          "internalType": "bool",
          "name": "",
          "type": "bool"
        }
      ],
      "stateMutability": "view",
      "type": "function"
    },
    {
      "inputs": [
        {
          "internalType": "bytes4",
          "name": "_selector",
          "type": "bytes4"
        }
      ],
      "name": "cancelGovernanceCall",
      "outputs": [],
      "stateMutability": "nonpayable",
      "type": "function"
    },
    {
      "inputs": [
        {
          "internalType": "contract IAssetManager[]",
          "name": "_assetManagers",
          "type": "address[]"
        },
        {
          "internalType": "enum IAssetManager.CollateralTokenClass",
          "name": "_tokenClass",
          "type": "uint8"
        },
        {
          "internalType": "contract IERC20",
          "name": "_token",
          "type": "address"
        },
        {
          "internalType": "uint256",
          "name": "_invalidationTimeSec",
          "type": "uint256"
        }
      ],
      "name": "deprecateCollateralToken",
      "outputs": [],
      "stateMutability": "nonpayable",
      "type": "function"
    },
    {
      "inputs": [
        {
          "internalType": "bytes4",
          "name": "_selector",
          "type": "bytes4"
        }
      ],
      "name": "executeGovernanceCall",
      "outputs": [],
      "stateMutability": "nonpayable",
      "type": "function"
    },
    {
      "inputs": [],
      "name": "getAddressUpdater",
      "outputs": [
        {
          "internalType": "address",
          "name": "_addressUpdater",
          "type": "address"
        }
      ],
      "stateMutability": "view",
      "type": "function"
    },
    {
      "inputs": [],
      "name": "getAssetManagers",
      "outputs": [
        {
          "internalType": "contract IAssetManager[]",
          "name": "",
          "type": "address[]"
        }
      ],
      "stateMutability": "view",
      "type": "function"
    },
    {
      "inputs": [],
      "name": "governance",
      "outputs": [
        {
          "internalType": "address",
          "name": "",
          "type": "address"
        }
      ],
      "stateMutability": "view",
      "type": "function"
    },
    {
      "inputs": [],
      "name": "governanceSettings",
      "outputs": [
        {
          "internalType": "contract IGovernanceSettings",
          "name": "",
          "type": "address"
        }
      ],
      "stateMutability": "view",
      "type": "function"
    },
    {
      "inputs": [
        {
          "internalType": "contract IGovernanceSettings",
          "name": "_governanceSettings",
          "type": "address"
        },
        {
          "internalType": "address",
          "name": "_initialGovernance",
          "type": "address"
        }
      ],
      "name": "initialise",
      "outputs": [],
      "stateMutability": "nonpayable",
      "type": "function"
    },
    {
      "inputs": [
        {
          "internalType": "address",
          "name": "_address",
          "type": "address"
        }
      ],
      "name": "isExecutor",
      "outputs": [
        {
          "internalType": "bool",
          "name": "",
          "type": "bool"
        }
      ],
      "stateMutability": "view",
      "type": "function"
    },
    {
      "inputs": [
        {
          "internalType": "contract IAssetManager[]",
          "name": "_assetManagers",
          "type": "address[]"
        }
      ],
      "name": "pause",
      "outputs": [],
      "stateMutability": "nonpayable",
      "type": "function"
    },
    {
      "inputs": [],
      "name": "productionMode",
      "outputs": [
        {
          "internalType": "bool",
          "name": "",
          "type": "bool"
        }
      ],
      "stateMutability": "view",
      "type": "function"
    },
    {
      "inputs": [
        {
          "internalType": "contract IAssetManager",
          "name": "_assetManager",
          "type": "address"
        }
      ],
      "name": "removeAssetManager",
      "outputs": [],
      "stateMutability": "nonpayable",
      "type": "function"
    },
    {
      "inputs": [],
      "name": "replacedBy",
      "outputs": [
        {
          "internalType": "address",
          "name": "",
          "type": "address"
        }
      ],
      "stateMutability": "view",
      "type": "function"
    },
    {
      "inputs": [
        {
          "internalType": "contract IAssetManager[]",
          "name": "_assetManagers",
          "type": "address[]"
        },
        {
          "internalType": "uint256",
          "name": "_value",
          "type": "uint256"
        }
      ],
      "name": "setAgentCollateralRatioChangeTimelockSeconds",
      "outputs": [],
      "stateMutability": "nonpayable",
      "type": "function"
    },
    {
      "inputs": [
        {
          "internalType": "contract IAssetManager[]",
          "name": "_assetManagers",
          "type": "address[]"
        },
        {
          "internalType": "uint256",
          "name": "_value",
          "type": "uint256"
        }
      ],
      "name": "setAgentExitAvailableTimelockSeconds",
      "outputs": [],
      "stateMutability": "nonpayable",
      "type": "function"
    },
    {
      "inputs": [
        {
          "internalType": "contract IAssetManager[]",
          "name": "_assetManagers",
          "type": "address[]"
        },
        {
          "internalType": "uint256",
          "name": "_value",
          "type": "uint256"
        }
      ],
      "name": "setAgentFeeChangeTimelockSeconds",
      "outputs": [],
      "stateMutability": "nonpayable",
      "type": "function"
    },
    {
      "inputs": [
        {
          "internalType": "contract IAssetManager[]",
          "name": "_assetManagers",
          "type": "address[]"
        },
        {
          "internalType": "address",
          "name": "_value",
          "type": "address"
        }
      ],
      "name": "setAgentVaultFactory",
      "outputs": [],
      "stateMutability": "nonpayable",
      "type": "function"
    },
    {
      "inputs": [
        {
          "internalType": "contract IAssetManager[]",
          "name": "_assetManagers",
          "type": "address[]"
        },
        {
          "internalType": "address",
          "name": "_value",
          "type": "address"
        }
      ],
      "name": "setAgentWhitelist",
      "outputs": [],
      "stateMutability": "nonpayable",
      "type": "function"
    },
    {
      "inputs": [
        {
          "internalType": "contract IAssetManager[]",
          "name": "_assetManagers",
          "type": "address[]"
        },
        {
          "internalType": "uint256",
          "name": "_value",
          "type": "uint256"
        }
      ],
      "name": "setAnnouncedUnderlyingConfirmationMinSeconds",
      "outputs": [],
      "stateMutability": "nonpayable",
      "type": "function"
    },
    {
      "inputs": [
        {
          "internalType": "contract IAssetManager[]",
          "name": "_assetManagers",
          "type": "address[]"
        },
        {
          "internalType": "uint256",
          "name": "_value",
          "type": "uint256"
        }
      ],
      "name": "setAttestationWindowSeconds",
      "outputs": [],
      "stateMutability": "nonpayable",
      "type": "function"
    },
    {
      "inputs": [
        {
          "internalType": "contract IAssetManager[]",
          "name": "_assetManagers",
          "type": "address[]"
        },
        {
          "internalType": "uint256",
          "name": "_value",
          "type": "uint256"
        }
      ],
      "name": "setCcbTimeSeconds",
      "outputs": [],
      "stateMutability": "nonpayable",
      "type": "function"
    },
    {
      "inputs": [
        {
          "internalType": "contract IAssetManager[]",
          "name": "_assetManagers",
          "type": "address[]"
        },
        {
          "internalType": "uint256",
          "name": "_value",
          "type": "uint256"
        }
      ],
      "name": "setClass1BuyForFlareFactorBIPS",
      "outputs": [],
      "stateMutability": "nonpayable",
      "type": "function"
    },
    {
      "inputs": [
        {
          "internalType": "contract IAssetManager[]",
          "name": "_assetManagers",
          "type": "address[]"
        },
        {
          "internalType": "address",
          "name": "_value",
          "type": "address"
        }
      ],
      "name": "setCollateralPoolFactory",
      "outputs": [],
      "stateMutability": "nonpayable",
      "type": "function"
    },
    {
      "inputs": [
        {
          "internalType": "contract IAssetManager[]",
          "name": "_assetManagers",
          "type": "address[]"
        },
        {
          "internalType": "enum IAssetManager.CollateralTokenClass",
          "name": "_tokenClass",
          "type": "uint8"
        },
        {
          "internalType": "contract IERC20",
          "name": "_token",
          "type": "address"
        },
        {
          "internalType": "uint256",
          "name": "_minCollateralRatioBIPS",
          "type": "uint256"
        },
        {
          "internalType": "uint256",
          "name": "_ccbMinCollateralRatioBIPS",
          "type": "uint256"
        },
        {
          "internalType": "uint256",
          "name": "_safetyMinCollateralRatioBIPS",
          "type": "uint256"
        }
      ],
      "name": "setCollateralRatiosForToken",
      "outputs": [],
      "stateMutability": "nonpayable",
      "type": "function"
    },
    {
      "inputs": [
        {
          "internalType": "contract IAssetManager[]",
          "name": "_assetManagers",
          "type": "address[]"
        },
        {
          "internalType": "uint256",
          "name": "_value",
          "type": "uint256"
        }
      ],
      "name": "setCollateralReservationFeeBips",
      "outputs": [],
      "stateMutability": "nonpayable",
      "type": "function"
    },
    {
      "inputs": [
        {
          "internalType": "contract IAssetManager[]",
          "name": "_assetManagers",
          "type": "address[]"
        },
        {
          "internalType": "uint256",
          "name": "_value",
          "type": "uint256"
        }
      ],
      "name": "setConfirmationByOthersAfterSeconds",
      "outputs": [],
      "stateMutability": "nonpayable",
      "type": "function"
    },
    {
      "inputs": [
        {
          "internalType": "contract IAssetManager[]",
          "name": "_assetManagers",
          "type": "address[]"
        },
        {
          "internalType": "uint256",
          "name": "_value",
          "type": "uint256"
        }
      ],
      "name": "setConfirmationByOthersRewardUSD5",
      "outputs": [],
      "stateMutability": "nonpayable",
      "type": "function"
    },
    {
      "inputs": [
        {
          "internalType": "contract IAssetManager[]",
          "name": "_assetManagers",
          "type": "address[]"
        },
        {
          "internalType": "address",
          "name": "_liquidationStrategy",
          "type": "address"
        },
        {
          "internalType": "bytes",
          "name": "_encodedInitialSettings",
          "type": "bytes"
        }
      ],
      "name": "setLiquidationStrategy",
      "outputs": [],
      "stateMutability": "nonpayable",
      "type": "function"
    },
    {
      "inputs": [
        {
          "internalType": "contract IAssetManager[]",
          "name": "_assetManagers",
          "type": "address[]"
        },
        {
          "internalType": "uint256",
          "name": "_value",
          "type": "uint256"
        }
      ],
      "name": "setLotSizeAmg",
      "outputs": [],
      "stateMutability": "nonpayable",
      "type": "function"
    },
    {
      "inputs": [
        {
          "internalType": "contract IAssetManager[]",
          "name": "_assetManagers",
          "type": "address[]"
        },
        {
          "internalType": "uint256",
          "name": "_value",
          "type": "uint256"
        }
      ],
      "name": "setMaxRedeemedTickets",
      "outputs": [],
      "stateMutability": "nonpayable",
      "type": "function"
    },
    {
      "inputs": [
        {
          "internalType": "contract IAssetManager[]",
          "name": "_assetManagers",
          "type": "address[]"
        },
        {
          "internalType": "uint256",
          "name": "_value",
          "type": "uint256"
        }
      ],
      "name": "setMaxTrustedPriceAgeSeconds",
      "outputs": [],
      "stateMutability": "nonpayable",
      "type": "function"
    },
    {
      "inputs": [
        {
          "internalType": "contract IAssetManager[]",
          "name": "_assetManagers",
          "type": "address[]"
        },
        {
          "internalType": "uint256",
          "name": "_value",
          "type": "uint256"
        }
      ],
      "name": "setMinUpdateRepeatTimeSeconds",
      "outputs": [],
      "stateMutability": "nonpayable",
      "type": "function"
    },
    {
      "inputs": [
        {
          "internalType": "contract IAssetManager[]",
          "name": "_assetManagers",
          "type": "address[]"
        },
        {
          "internalType": "uint256",
          "name": "_value",
          "type": "uint256"
        }
      ],
      "name": "setMintingCapAmg",
      "outputs": [],
      "stateMutability": "nonpayable",
      "type": "function"
    },
    {
      "inputs": [
        {
          "internalType": "contract IAssetManager[]",
          "name": "_assetManagers",
          "type": "address[]"
        },
        {
          "internalType": "uint256",
          "name": "_value",
          "type": "uint256"
        }
      ],
      "name": "setMintingPoolHoldingsRequiredBIPS",
      "outputs": [],
      "stateMutability": "nonpayable",
      "type": "function"
    },
    {
      "inputs": [
        {
          "internalType": "contract IAssetManager[]",
          "name": "_assetManagers",
          "type": "address[]"
        },
        {
          "internalType": "uint256",
          "name": "_rewardClass1Wei",
          "type": "uint256"
        },
        {
          "internalType": "uint256",
          "name": "_rewardBIPS",
          "type": "uint256"
        }
      ],
      "name": "setPaymentChallengeReward",
      "outputs": [],
      "stateMutability": "nonpayable",
      "type": "function"
    },
    {
      "inputs": [
        {
          "internalType": "contract IAssetManager[]",
          "name": "_assetManagers",
          "type": "address[]"
        },
        {
          "components": [
            {
              "internalType": "enum IAssetManager.CollateralTokenClass",
              "name": "tokenClass",
              "type": "uint8"
            },
            {
              "internalType": "contract IERC20",
              "name": "token",
              "type": "address"
            },
            {
              "internalType": "uint256",
              "name": "decimals",
              "type": "uint256"
            },
            {
              "internalType": "uint256",
              "name": "validUntil",
              "type": "uint256"
            },
            {
              "internalType": "bool",
              "name": "directPricePair",
              "type": "bool"
            },
            {
              "internalType": "string",
              "name": "assetFtsoSymbol",
              "type": "string"
            },
            {
              "internalType": "string",
              "name": "tokenFtsoSymbol",
              "type": "string"
            },
            {
              "internalType": "uint256",
              "name": "minCollateralRatioBIPS",
              "type": "uint256"
            },
            {
              "internalType": "uint256",
              "name": "ccbMinCollateralRatioBIPS",
              "type": "uint256"
            },
            {
              "internalType": "uint256",
              "name": "safetyMinCollateralRatioBIPS",
              "type": "uint256"
            }
          ],
          "internalType": "struct IAssetManager.CollateralTokenInfo",
          "name": "_data",
          "type": "tuple"
        }
      ],
      "name": "setPoolCollateralToken",
      "outputs": [],
      "stateMutability": "nonpayable",
      "type": "function"
    },
    {
      "inputs": [
        {
          "internalType": "contract IAssetManager[]",
          "name": "_assetManagers",
          "type": "address[]"
        },
        {
          "internalType": "uint256",
          "name": "_class1",
          "type": "uint256"
        },
        {
          "internalType": "uint256",
          "name": "_pool",
          "type": "uint256"
        }
      ],
      "name": "setRedemptionDefaultFactorBips",
      "outputs": [],
      "stateMutability": "nonpayable",
      "type": "function"
    },
    {
      "inputs": [
        {
          "internalType": "contract IAssetManager[]",
          "name": "_assetManagers",
          "type": "address[]"
        },
        {
          "internalType": "uint256",
          "name": "_value",
          "type": "uint256"
        }
      ],
      "name": "setRedemptionFeeBips",
      "outputs": [],
      "stateMutability": "nonpayable",
      "type": "function"
    },
    {
      "inputs": [
        {
          "internalType": "contract IAssetManager[]",
          "name": "_assetManagers",
          "type": "address[]"
        },
        {
          "internalType": "uint256",
          "name": "_underlyingBlocks",
          "type": "uint256"
        },
        {
          "internalType": "uint256",
          "name": "_underlyingSeconds",
          "type": "uint256"
        }
      ],
      "name": "setTimeForPayment",
      "outputs": [],
      "stateMutability": "nonpayable",
      "type": "function"
    },
    {
      "inputs": [
        {
          "internalType": "contract IAssetManager[]",
          "name": "_assetManagers",
          "type": "address[]"
        },
        {
          "internalType": "uint256",
          "name": "_value",
          "type": "uint256"
        }
      ],
      "name": "setTokenInvalidationTimeMinSeconds",
      "outputs": [],
      "stateMutability": "nonpayable",
      "type": "function"
    },
    {
      "inputs": [
        {
          "internalType": "contract IAssetManager[]",
          "name": "_assetManagers",
          "type": "address[]"
        },
        {
          "internalType": "address",
          "name": "_value",
          "type": "address"
        }
      ],
      "name": "setUnderlyingAddressValidator",
      "outputs": [],
      "stateMutability": "nonpayable",
      "type": "function"
    },
    {
      "inputs": [
        {
          "internalType": "contract IAssetManager[]",
          "name": "_assetManagers",
          "type": "address[]"
        },
        {
          "internalType": "address",
          "name": "_value",
          "type": "address"
        }
      ],
      "name": "setWhitelist",
      "outputs": [],
      "stateMutability": "nonpayable",
      "type": "function"
    },
    {
      "inputs": [
        {
          "internalType": "contract IAssetManager[]",
          "name": "_assetManagers",
          "type": "address[]"
        },
        {
          "internalType": "uint256",
          "name": "_value",
          "type": "uint256"
        }
      ],
      "name": "setWithdrawalOrDestroyWaitMinSeconds",
      "outputs": [],
      "stateMutability": "nonpayable",
      "type": "function"
    },
    {
      "inputs": [],
      "name": "switchToProductionMode",
      "outputs": [],
      "stateMutability": "nonpayable",
      "type": "function"
    },
    {
      "inputs": [
        {
          "internalType": "contract IAssetManager[]",
          "name": "_assetManagers",
          "type": "address[]"
        }
      ],
      "name": "terminate",
      "outputs": [],
      "stateMutability": "nonpayable",
      "type": "function"
    },
    {
      "inputs": [
        {
          "internalType": "bytes4",
          "name": "",
          "type": "bytes4"
        }
      ],
      "name": "timelockedCalls",
      "outputs": [
        {
          "internalType": "uint256",
          "name": "allowedAfterTimestamp",
          "type": "uint256"
        },
        {
          "internalType": "bytes",
          "name": "encodedCall",
          "type": "bytes"
        }
      ],
      "stateMutability": "view",
      "type": "function"
    },
    {
      "inputs": [
        {
          "internalType": "contract IAssetManager[]",
          "name": "_assetManagers",
          "type": "address[]"
        }
      ],
      "name": "unpause",
      "outputs": [],
      "stateMutability": "nonpayable",
      "type": "function"
    },
    {
      "inputs": [
        {
          "internalType": "bytes32[]",
          "name": "_contractNameHashes",
          "type": "bytes32[]"
        },
        {
          "internalType": "address[]",
          "name": "_contractAddresses",
          "type": "address[]"
        }
      ],
      "name": "updateContractAddresses",
      "outputs": [],
      "stateMutability": "nonpayable",
      "type": "function"
    },
    {
      "inputs": [
        {
          "internalType": "contract IAssetManager[]",
          "name": "_assetManagers",
          "type": "address[]"
        },
        {
          "internalType": "bytes",
          "name": "_encodedSettings",
          "type": "bytes"
        }
      ],
      "name": "updateLiquidationStrategySettings",
      "outputs": [],
      "stateMutability": "nonpayable",
      "type": "function"
    }
  ],
  "bytecode": "0x60806040523480156200001157600080fd5b50604051620036003803806200360083398101604081905262000034916200020b565b80838362000043828262000079565b506200006f9050817f714f205b2abd25bef1d06a1af944e38c113fe6160375c4e1d6d5cf28848e771955565b505050506200025f565b600054600160a01b900460ff1615620000d95760405162461bcd60e51b815260206004820152601460248201527f696e697469616c6973656420213d2066616c736500000000000000000000000060448201526064015b60405180910390fd5b6001600160a01b038216620001315760405162461bcd60e51b815260206004820152601860248201527f676f7665726e616e63652073657474696e6773207a65726f00000000000000006044820152606401620000d0565b6001600160a01b0381166200017c5760405162461bcd60e51b815260206004820152601060248201526f5f676f7665726e616e6365207a65726f60801b6044820152606401620000d0565b600080546001600160a01b038481166001600160a81b031990921691909117600160a01b17909155600180549183166001600160a01b0319909216821790556040519081527f9789733827840833afc031fb2ef9ab6894271f77bad2085687cf4ae5c7bee4db9060200160405180910390a15050565b6001600160a01b03811681146200020857600080fd5b50565b6000806000606084860312156200022157600080fd5b83516200022e81620001f2565b60208501519093506200024181620001f2565b60408501519092506200025481620001f2565b809150509250925092565b613391806200026f6000396000f3fe608060405234801561001057600080fd5b506004361061030b5760003560e01c806367fc40291161019d578063aeb41555116100e9578063debfda30116100a2578063ec8e31611161007c578063ec8e3161146106fd578063eddaf29314610710578063ef88bf1314610723578063f5a983831461073657600080fd5b8063debfda30146106c3578063dede95f1146106d6578063e17f212e146106e957600080fd5b8063aeb415551461064f578063b00c0b7614610662578063b577fc7614610675578063b87b82f014610688578063bb6f41b31461069d578063d3521ed6146106b057600080fd5b80637e3566fe11610156578063987ea89911610130578063987ea899146106035780639e1508a114610616578063a391dd9c14610629578063a82ee3d51461063c57600080fd5b80637e3566fe146105ca5780638ca061d4146105dd5780639755c6a7146105f057600080fd5b806367fc40291461052257806369d76a9f146105355780636f373f311461054857806374e6310e1461055b578063758f07f21461057c5780637ad62f511461058f57600080fd5b8063391fde4a1161025c5780635267a15d116102155780635cce89ea116101ef5780635cce89ea146104d65780635ff27079146104e957806362354e03146104fc5780636653d11e1461050f57600080fd5b80635267a15d1461047b5780635aa6e675146104bb5780635b5bad73146104c357600080fd5b8063391fde4a1461040957806344944a9b1461041c578063479566061461042f57806349ec14a8146104425780634a79bc9f14610455578063512410601461046857600080fd5b806320756671116102c95780632d5846da116102a35780632d5846da146103bd5780632d8ced18146103d057806334dc3932146103e3578063358bca77146103f657600080fd5b8063207566711461038457806326a9055b146103975780632aedabe4146103aa57600080fd5b8062f43e37146103105780630117d987146103255780630207aff214610338578063038214521461034b5780630a15f57b1461035e5780630a3eb87414610371575b600080fd5b61032361031e3660046129e7565b61073e565b005b610323610333366004612a4e565b6107ef565b610323610346366004612a4e565b610879565b610323610359366004612a92565b6108b9565b61032361036c366004612b06565b61095d565b61032361037f366004612a4e565b6109cd565b610323610392366004612a4e565b610a0d565b6103236103a5366004612a4e565b610a74565b6103236103b8366004612a4e565b610ab4565b6103236103cb366004612a4e565b610af4565b6103236103de366004612bc6565b610b34565b6103236103f1366004612a4e565b610ba6565b610323610404366004612c3d565b610be6565b610323610417366004612c61565b610e40565b61032361042a366004612cc1565b610ed9565b61032361043d366004612a4e565b610f22565b610323610450366004612b06565b610f62565b610323610463366004612b06565b610fd2565b610323610476366004612a4e565b611042565b7f714f205b2abd25bef1d06a1af944e38c113fe6160375c4e1d6d5cf28848e7719545b6040516001600160a01b0390911681526020015b60405180910390f35b61049e611082565b6103236104d1366004612a92565b61111e565b6103236104e4366004612a4e565b6111bd565b6103236104f7366004612d0e565b6111fd565b60005461049e906001600160a01b031681565b61032361051d366004612a4e565b61147f565b610323610530366004612d0e565b6114bf565b610323610543366004612c61565b611599565b610323610556366004612a4e565b611659565b61056e610569366004612d0e565b6116c0565b6040516104b2929190612d90565b61032361058a366004612a4e565b611765565b6105ba61059d366004612c3d565b6001600160a01b0316600090815260046020526040902054151590565b60405190151581526020016104b2565b6103236105d8366004612a4e565b6117a5565b6103236105eb366004612db1565b6117e5565b6103236105fe366004612a92565b6118c6565b610323610611366004612c3d565b611965565b610323610624366004612a4e565b611ad6565b610323610637366004612cc1565b611b3d565b61032361064a366004612a4e565b611bad565b61032361065d366004612a4e565b611bed565b610323610670366004612e2c565b611c2d565b60035461049e906001600160a01b031681565b610690611d08565b6040516104b29190612ee4565b6103236106ab366004612b06565b611d6a565b6103236106be366004612f31565b611dda565b6105ba6106d1366004612c3d565b611e34565b6103236106e4366004612a4e565b611ebd565b6000546105ba90600160a81b900460ff1681565b61032361070b366004612b06565b611efd565b61032361071e366004612cc1565b611f6d565b610323610731366004612f8a565b611fb6565b61032361211c565b6107466121e2565b60005b84518110156107e85761077485828151811061076757610767612fb8565b602002602001015161223e565b6001600160a01b031663fd41d8ea8585856040518463ffffffff1660e01b81526004016107a393929190612ff0565b600060405180830381600087803b1580156107bd57600080fd5b505af11580156107d1573d6000803e3d6000fd5b5050505080806107e09061302e565b915050610749565b5050505050565b600054600160b01b900460ff16806108115750600054600160a81b900460ff16155b1561086e5761081e6122a3565b61086a827fe5cbaf9388ab04e6a84ccb4d318b7411cf3cba5c27c08ff531f6cc63bd9f3d158360405160200161085691815260200190565b6040516020818303038152906040526122db565b5050565b61086a6000366123eb565b6108816121e2565b61086a827fd074339531c0c426f419e40c630fba3e9e49d8640b542935b487a324e3fa64768360405160200161085691815260200190565b6108c16121e2565b60005b81811015610958578282828181106108de576108de612fb8565b90506020020160208101906108f39190612c3d565b6001600160a01b0316633f4ba83a6040518163ffffffff1660e01b8152600401600060405180830381600087803b15801561092d57600080fd5b505af1158015610941573d6000803e3d6000fd5b5050505080806109509061302e565b9150506108c4565b505050565b600054600160b01b900460ff168061097f5750600054600160a81b900460ff16155b1561086e5761098c6122a3565b604080516001600160a01b038316602082015261086a9184917fcdce216fbaf8c8bee089977160bdc219688d1abe6e3fb33445553b103748e4249101610856565b6109d56121e2565b61086a827fdb8617d6427f99a93c9a0c29cea5de59ff5e46d6b670defb2621832b9ecf8e738360405160200161085691815260200190565b600054600160b01b900460ff1680610a2f5750600054600160a81b900460ff16155b1561086e57610a3c6122a3565b61086a827faf5f2b98f83ec754c2468c6f795cd14e63ea828a68b271c17461d623661e8d0c8360405160200161085691815260200190565b610a7c6121e2565b61086a827f77eef583b25f73c60677890790c00fbf5ab5dc5b952b567609eab319437bf2fe8360405160200161085691815260200190565b610abc6121e2565b61086a827f568ae58ed29d3123b07c83375be93831571baa4efa6eca219a665b6edcce3bd28360405160200161085691815260200190565b610afc6121e2565b61086a827fdd64bd048b711cc14ce05eb540d2dbb9001521d5365cdac63643f90be13128a78360405160200161085691815260200190565b600054600160b01b900460ff1680610b565750600054600160a81b900460ff16155b15610b9b57610b636122a3565b610958837f84afd878f1616875c56a72462a02c12689b2e62280ef7ba82a1027952f63e74a8484604051602001610856929190613049565b6109586000366123eb565b610bae6121e2565b61086a827f9db27f55d4910a7a49292d8345f039e6266f7dc44269477125dfdf9c0a20bda28360405160200161085691815260200190565b600054600160b01b900460ff1680610c085750600054600160a81b900460ff16155b15610e3257610c156122a3565b6001600160a01b03811660009081526004602052604090205480610c37575050565b6000610c4460018361306d565b600554909150600090610c599060019061306d565b905080821015610d135760058181548110610c7657610c76612fb8565b600091825260209091200154600580546001600160a01b039092169184908110610ca257610ca2612fb8565b600091825260209091200180546001600160a01b0319166001600160a01b0392909216919091179055610cd6826001613084565b6004600060058581548110610ced57610ced612fb8565b60009182526020808320909101546001600160a01b031683528201929092526040019020555b6005805480610d2457610d2461309c565b60008281526020808220830160001990810180546001600160a01b03191690559092019092556001600160a01b0386168083526004808352604080852094909455835163f0c0b72560e01b815293513094929363f0c0b7259380840193919291908290030181865afa158015610d9e573d6000803e3d6000fd5b505050506040513d601f19601f82011682018060405250810190610dc291906130b2565b6001600160a01b03161415610e2c5760405163b928b53360e01b8152600060048201526001600160a01b0385169063b928b53390602401600060405180830381600087803b158015610e1357600080fd5b505af1158015610e27573d6000803e3d6000fd5b505050505b50505050565b610e3d6000366123eb565b50565b610e486121e2565b60005b825181101561095857610e6983828151811061076757610767612fb8565b6001600160a01b031663c4a5123e836040518263ffffffff1660e01b8152600401610e94919061315d565b600060405180830381600087803b158015610eae57600080fd5b505af1158015610ec2573d6000803e3d6000fd5b505050508080610ed19061302e565b915050610e4b565b610ee16121e2565b610958837f1529264fcbf2bf5cf598b2450b293923f6c0d9f9cdf587da5a1c31f05102bc078484604051602001610856929190918252602082015260400190565b610f2a6121e2565b61086a827f47814c0626f9db4541c2626f398ce27bbf58b6f2fbe51e47c992fc40c99c2f148360405160200161085691815260200190565b600054600160b01b900460ff1680610f845750600054600160a81b900460ff16155b1561086e57610f916122a3565b604080516001600160a01b038316602082015261086a9184917fe498d6b20ac12df7861da18738e06e613460e9e0b360c7231b4f06a1656f21b59101610856565b600054600160b01b900460ff1680610ff45750600054600160a81b900460ff16155b1561086e576110016122a3565b604080516001600160a01b038316602082015261086a9184917f13d6a5e25fb62370430ae75c7288645ab675293a216337c6579449dae495ca079101610856565b61104a6121e2565b61086a827f5ac5c11e3be51a3b2f1c18cb30a2917c10f24fdee614a595d151c820e854756d8360405160200161085691815260200190565b60008054600160a81b900460ff166110a457506001546001600160a01b031690565b60008054906101000a90046001600160a01b03166001600160a01b031663732524946040518163ffffffff1660e01b8152600401602060405180830381865afa1580156110f5573d6000803e3d6000fd5b505050506040513d601f19601f8201168201806040525081019061111991906130b2565b905090565b6111266121e2565b60005b818110156109585782828281811061114357611143612fb8565b90506020020160208101906111589190612c3d565b6001600160a01b0316630c08bf886040518163ffffffff1660e01b8152600401600060405180830381600087803b15801561119257600080fd5b505af11580156111a6573d6000803e3d6000fd5b5050505080806111b59061302e565b915050611129565b6111c56121e2565b61086a827f3dcb30c522b719e41e182cfd89e7280d805977d0b4c728429d018c8f53aa054e8360405160200161085691815260200190565b61120633611e34565b6112475760405162461bcd60e51b815260206004820152600d60248201526c37b7363c9032bc32b1baba37b960991b60448201526064015b60405180910390fd5b6001600160e01b03198116600090815260026020526040902080546112ae5760405162461bcd60e51b815260206004820152601a60248201527f74696d656c6f636b3a20696e76616c69642073656c6563746f72000000000000604482015260640161123e565b80544210156112ff5760405162461bcd60e51b815260206004820152601960248201527f74696d656c6f636b3a206e6f7420616c6c6f7765642079657400000000000000604482015260640161123e565b600081600101805461131090613238565b80601f016020809104026020016040519081016040528092919081815260200182805461133c90613238565b80156113895780601f1061135e57610100808354040283529160200191611389565b820191906000526020600020905b81548152906001019060200180831161136c57829003601f168201915b505050506001600160e01b03198516600090815260026020526040812081815592935090506113bb600183018261280b565b50506000805460ff60b01b1916600160b01b17815560405130906113e0908490613273565b6000604051808303816000865af19150503d806000811461141d576040519150601f19603f3d011682016040523d82523d6000602084013e611422565b606091505b50506000805460ff60b01b19169055604080516001600160e01b0319871681524260208201529192507fa7326b57fc9cfe267aaea5e7f0b01757154d265620a0585819416ee9ddd2c438910160405180910390a1610e2c8161253b565b6114876121e2565b61086a827f03712cb5e2d1c5642f03b2a87dfdae4e27edc4d29f6947bd887a176be288906e8360405160200161085691815260200190565b6114c76121e2565b6001600160e01b0319811660009081526002602052604090205461152d5760405162461bcd60e51b815260206004820152601a60248201527f74696d656c6f636b3a20696e76616c69642073656c6563746f72000000000000604482015260640161123e565b604080516001600160e01b0319831681524260208201527f7735b2391c38a81419c513e30ca578db7158eadd7101511b23e221c654d19cf8910160405180910390a16001600160e01b03198116600090815260026020526040812081815590610958600183018261280b565b600054600160b01b900460ff16806115bb5750600054600160a81b900460ff16155b1561086e576115c86122a3565b60005b8251811015610958576115e983828151811061076757610767612fb8565b6001600160a01b0316639928d99c836040518263ffffffff1660e01b8152600401611614919061315d565b600060405180830381600087803b15801561162e57600080fd5b505af1158015611642573d6000803e3d6000fd5b5050505080806116519061302e565b9150506115cb565b600054600160b01b900460ff168061167b5750600054600160a81b900460ff16155b1561086e576116886122a3565b61086a827f19b9b7f6661dcb1d2715cdf9121ac83302dfc1cb322f78ba457649a9860aa5708360405160200161085691815260200190565b600260205260009081526040902080546001820180549192916116e290613238565b80601f016020809104026020016040519081016040528092919081815260200182805461170e90613238565b801561175b5780601f106117305761010080835404028352916020019161175b565b820191906000526020600020905b81548152906001019060200180831161173e57829003601f168201915b5050505050905082565b61176d6121e2565b61086a827f578bfb3ec6febb59d8c59fbf6c5a3312bbb9570dd5f6a7265cf5c6fb1d2279388360405160200161085691815260200190565b6117ad6121e2565b61086a827ff9b9b44651521fa32e45f527b7392825f165c03571fd1485e7dc0e2a3e460a6f8360405160200161085691815260200190565b600054600160b01b900460ff16806118075750600054600160a81b900460ff16155b156118b3576118146122a3565b60005b86518110156118ad5761183587828151811061076757610767612fb8565b6001600160a01b031663249f1b5987878787876040518663ffffffff1660e01b815260040161186895949392919061328f565b600060405180830381600087803b15801561188257600080fd5b505af1158015611896573d6000803e3d6000fd5b5050505080806118a59061302e565b915050611817565b506118be565b6118be6000366123eb565b505050505050565b6118ce6121e2565b60005b81811015610958578282828181106118eb576118eb612fb8565b90506020020160208101906119009190612c3d565b6001600160a01b0316638456cb596040518163ffffffff1660e01b8152600401600060405180830381600087803b15801561193a57600080fd5b505af115801561194e573d6000803e3d6000fd5b50505050808061195d9061302e565b9150506118d1565b600054600160b01b900460ff16806119875750600054600160a81b900460ff16155b15610e32576119946122a3565b6001600160a01b038116600090815260046020526040902054156119b55750565b600580546001810182557f036b6384b5eca791c62761152d0c79bb0604c104a5fb6f4eb0703f3154bb3db00180546001600160a01b0319166001600160a01b038416908117909155905460008281526004602081815260409283902093909355815163f0c0b72560e01b8152915130949363f0c0b7259380840193919291908290030181865afa158015611a4d573d6000803e3d6000fd5b505050506040513d601f19601f82011682018060405250810190611a7191906130b2565b6001600160a01b03161415610e3d5760405163b928b53360e01b8152600160048201526001600160a01b0382169063b928b53390602401600060405180830381600087803b158015611ac257600080fd5b505af11580156107e8573d6000803e3d6000fd5b600054600160b01b900460ff1680611af85750600054600160a81b900460ff16155b1561086e57611b056122a3565b61086a827fd57d25c52236f43d429cb6932e0bdfb00c2fc7ee9aaddccd2ccee1b24a90e7248360405160200161085691815260200190565b600054600160b01b900460ff1680611b5f5750600054600160a81b900460ff16155b15610b9b57611b6c6122a3565b610958837f69b89e7ecda74b156ebb6553c166323512e616eb5e0a3d77b3e376086c891f7e8484604051602001610856929190918252602082015260400190565b611bb56121e2565b61086a827fdfc5941748b75983d6817917ceea4fb882f2d1482879fb7842e0c15d7c0f2a818360405160200161085691815260200190565b611bf56121e2565b61086a827f2779aaaa0a4aba6761d05634679205836858e31b3d82fff3dc5a6b4b1f32c1a18360405160200161085691815260200190565b7f714f205b2abd25bef1d06a1af944e38c113fe6160375c4e1d6d5cf28848e7719546001600160a01b0316336001600160a01b031614611ca65760405162461bcd60e51b815260206004820152601460248201527337b7363c9030b2323932b9b9903ab83230ba32b960611b604482015260640161123e565b611cfe611cda83836040518060400160405280600e81526020016d20b2323932b9b9aab83230ba32b960911b815250612558565b7f714f205b2abd25bef1d06a1af944e38c113fe6160375c4e1d6d5cf28848e771955565b61086a8282612634565b60606005805480602002602001604051908101604052809291908181526020018280548015611d6057602002820191906000526020600020905b81546001600160a01b03168152600190910190602001808311611d42575b5050505050905090565b600054600160b01b900460ff1680611d8c5750600054600160a81b900460ff16155b1561086e57611d996122a3565b604080516001600160a01b038316602082015261086a9184917f6dd3d5890781dccec88a387799c9132d0552124a770d12680fb289cac28d77c49101610856565b600054600160b01b900460ff1680611dfc5750600054600160a81b900460ff16155b1561086e57611e096122a3565b61086a827f3bc2131c3ff3dd5c528bcad0f54164e3b7c1f568a6eb5cd51f333272147ad1c8836122db565b60008054600160a01b900460ff168015611eb75750600054604051630debfda360e41b81526001600160a01b0384811660048301529091169063debfda3090602401602060405180830381865afa158015611e93573d6000803e3d6000fd5b505050506040513d601f19601f82011682018060405250810190611eb791906132c9565b92915050565b611ec56121e2565b61086a827f263685c89ecca5f576193f222d02951438094b3eb36a8911d113f03be5c9c8918360405160200161085691815260200190565b600054600160b01b900460ff1680611f1f5750600054600160a81b900460ff16155b1561086e57611f2c6122a3565b604080516001600160a01b038316602082015261086a9184917f854cff2f06134808792749e4c9e6efde176603ff5656cbb2cda605578a5e6dc29101610856565b611f756121e2565b610958837f68f224ba1b1345ef831341b77bb145c7ff885cf1c8ce6f35dfa089079d38dd188484604051602001610856929190918252602082015260400190565b600054600160a01b900460ff16156120075760405162461bcd60e51b8152602060048201526014602482015273696e697469616c6973656420213d2066616c736560601b604482015260640161123e565b6001600160a01b03821661205d5760405162461bcd60e51b815260206004820152601860248201527f676f7665726e616e63652073657474696e6773207a65726f0000000000000000604482015260640161123e565b6001600160a01b0381166120a65760405162461bcd60e51b815260206004820152601060248201526f5f676f7665726e616e6365207a65726f60801b604482015260640161123e565b600080546001600160a01b038481166001600160a81b031990921691909117600160a01b17909155600180549183166001600160a01b0319909216821790556040519081527f9789733827840833afc031fb2ef9ab6894271f77bad2085687cf4ae5c7bee4db9060200160405180910390a15050565b6121246121e2565b600054600160a81b900460ff161561217e5760405162461bcd60e51b815260206004820152601a60248201527f616c726561647920696e2070726f64756374696f6e206d6f6465000000000000604482015260640161123e565b600180546001600160a01b031916905560008054600160a81b60ff60a81b198216179091556040516001600160a01b0390911681527f83af113638b5422f9e977cebc0aaf0eaf2188eb9a8baae7f9d46c42b33a1560c9060200160405180910390a1565b6121ea611082565b6001600160a01b0316336001600160a01b03161461223c5760405162461bcd60e51b815260206004820152600f60248201526e6f6e6c7920676f7665726e616e636560881b604482015260640161123e565b565b6001600160a01b03811660009081526004602052604081205461229f5760405162461bcd60e51b8152602060048201526019602482015278105cdcd95d081b585b9859d95c881b9bdd081b585b9859d959603a1b604482015260640161123e565b5090565b600054600160b01b900460ff16156122d3573330146122c4576122c46132e6565b6000805460ff60b01b19169055565b61223c6121e2565b60005b8351811015610e2c5760008482815181106122fb576122fb612fb8565b6020026020010151905060046000826001600160a01b03166001600160a01b0316815260200190815260200160002054600014156123775760405162461bcd60e51b8152602060048201526019602482015278105cdcd95d081b585b9859d95c881b9bdd081b585b9859d959603a1b604482015260640161123e565b6040516378ce9e0360e11b81526001600160a01b0382169063f19d3c06906123a59087908790600401612d90565b600060405180830381600087803b1580156123bf57600080fd5b505af11580156123d3573d6000803e3d6000fd5b505050505080806123e39061302e565b9150506122de565b6123f36121e2565b6000805460408051636221a54b60e01b81529051853593926001600160a01b031691636221a54b9160048083019260209291908290030181865afa15801561243f573d6000803e3d6000fd5b505050506040513d601f19601f8201168201806040525081019061246391906132fc565b905060006124718242613084565b9050604051806040016040528082815260200186868080601f01602080910402602001604051908101604052809392919081815260200183838082843760009201829052509390945250506001600160e01b031986168152600260209081526040909120835181558382015180519193506124f3926001850192910190612845565b509050507fed948300a3694aa01d4a6b258bfd664350193d770c0b51f8387277f6d83ea3b68382878760405161252c9493929190613315565b60405180910390a15050505050565b3d604051818101604052816000823e8215612554578181f35b8181fd5b6000808260405160200161256c9190613348565b6040516020818303038152906040528051906020012090506000805b86518110156125e5578681815181106125a3576125a3612fb8565b60200260200101518314156125d3578581815181106125c4576125c4612fb8565b602002602001015191506125e5565b806125dd8161302e565b915050612588565b506001600160a01b03811661262b5760405162461bcd60e51b815260206004820152600c60248201526b61646472657373207a65726f60a01b604482015260640161123e565b95945050505050565b600061266f83836040518060400160405280601681526020017520b9b9b2ba26b0b730b3b2b921b7b73a3937b63632b960511b815250612558565b905060006126a7848460405180604001604052806011815260200170105d1d195cdd185d1a5bdb90db1a595b9d607a1b815250612558565b905060006126da85856040518060400160405280600c81526020016b4674736f526567697374727960a01b815250612558565b905060005b6005548110156127d6576000600582815481106126fe576126fe612fb8565b60009182526020918290200154604080516001600160a01b038981169482019490945287841691810191909152858316606082015291169150819063f19d3c06907ffefe074eedb5ff05455a349aae3b2e81dfb2e629196edef425bcdc73c3736452906080016040516020818303038152906040526040518363ffffffff1660e01b8152600401612790929190612d90565b600060405180830381600087803b1580156127aa57600080fd5b505af11580156127be573d6000803e3d6000fd5b505050505080806127ce9061302e565b9150506126df565b506001600160a01b03831630146107e857600380546001600160a01b0385166001600160a01b03199091161790555050505050565b50805461281790613238565b6000825580601f10612827575050565b601f016020900490600052602060002090810190610e3d91906128c1565b82805461285190613238565b90600052602060002090601f01602090048101928261287357600085556128b9565b82601f1061288c57805160ff19168380011785556128b9565b828001600101855582156128b9579182015b828111156128b957825182559160200191906001019061289e565b5061229f9291505b5b8082111561229f57600081556001016128c2565b634e487b7160e01b600052604160045260246000fd5b604051601f8201601f191681016001600160401b0381118282101715612914576129146128d6565b604052919050565b60006001600160401b03821115612935576129356128d6565b5060051b60200190565b6001600160a01b0381168114610e3d57600080fd5b600082601f83011261296557600080fd5b8135602061297a6129758361291c565b6128ec565b82815260059290921b8401810191818101908684111561299957600080fd5b8286015b848110156129bd5780356129b08161293f565b835291830191830161299d565b509695505050505050565b8035600381106129d757600080fd5b919050565b80356129d78161293f565b600080600080608085870312156129fd57600080fd5b84356001600160401b03811115612a1357600080fd5b612a1f87828801612954565b945050612a2e602086016129c8565b92506040850135612a3e8161293f565b9396929550929360600135925050565b60008060408385031215612a6157600080fd5b82356001600160401b03811115612a7757600080fd5b612a8385828601612954565b95602094909401359450505050565b60008060208385031215612aa557600080fd5b82356001600160401b0380821115612abc57600080fd5b818501915085601f830112612ad057600080fd5b813581811115612adf57600080fd5b8660208260051b8501011115612af457600080fd5b60209290920196919550909350505050565b60008060408385031215612b1957600080fd5b82356001600160401b03811115612b2f57600080fd5b612b3b85828601612954565b9250506020830135612b4c8161293f565b809150509250929050565b600082601f830112612b6857600080fd5b81356001600160401b03811115612b8157612b816128d6565b612b94601f8201601f19166020016128ec565b818152846020838601011115612ba957600080fd5b816020850160208301376000918101602001919091529392505050565b600080600060608486031215612bdb57600080fd5b83356001600160401b0380821115612bf257600080fd5b612bfe87838801612954565b945060208601359150612c108261293f565b90925060408501359080821115612c2657600080fd5b50612c3386828701612b57565b9150509250925092565b600060208284031215612c4f57600080fd5b8135612c5a8161293f565b9392505050565b60008060408385031215612c7457600080fd5b82356001600160401b0380821115612c8b57600080fd5b612c9786838701612954565b93506020850135915080821115612cad57600080fd5b5083016101408186031215612b4c57600080fd5b600080600060608486031215612cd657600080fd5b83356001600160401b03811115612cec57600080fd5b612cf886828701612954565b9660208601359650604090950135949350505050565b600060208284031215612d2057600080fd5b81356001600160e01b031981168114612c5a57600080fd5b60005b83811015612d53578181015183820152602001612d3b565b83811115610e2c5750506000910152565b60008151808452612d7c816020860160208601612d38565b601f01601f19169290920160200192915050565b828152604060208201526000612da96040830184612d64565b949350505050565b60008060008060008060c08789031215612dca57600080fd5b86356001600160401b03811115612de057600080fd5b612dec89828a01612954565b965050612dfb602088016129c8565b94506040870135612e0b8161293f565b959894975094956060810135955060808101359460a0909101359350915050565b60008060408385031215612e3f57600080fd5b82356001600160401b0380821115612e5657600080fd5b818501915085601f830112612e6a57600080fd5b81356020612e7a6129758361291c565b82815260059290921b84018101918181019089841115612e9957600080fd5b948201945b83861015612eb757853582529482019490820190612e9e565b96505086013592505080821115612ecd57600080fd5b50612eda85828601612954565b9150509250929050565b6020808252825182820181905260009190848201906040850190845b81811015612f255783516001600160a01b031683529284019291840191600101612f00565b50909695505050505050565b60008060408385031215612f4457600080fd5b82356001600160401b0380821115612f5b57600080fd5b612f6786838701612954565b93506020850135915080821115612f7d57600080fd5b50612eda85828601612b57565b60008060408385031215612f9d57600080fd5b8235612fa88161293f565b91506020830135612b4c8161293f565b634e487b7160e01b600052603260045260246000fd5b60038110612fec57634e487b7160e01b600052602160045260246000fd5b9052565b60608101612ffe8286612fce565b6001600160a01b0393909316602082015260400152919050565b634e487b7160e01b600052601160045260246000fd5b600060001982141561304257613042613018565b5060010190565b6001600160a01b0383168152604060208201819052600090612da990830184612d64565b60008282101561307f5761307f613018565b500390565b6000821982111561309757613097613018565b500190565b634e487b7160e01b600052603160045260246000fd5b6000602082840312156130c457600080fd5b8151612c5a8161293f565b8015158114610e3d57600080fd5b80356129d7816130cf565b6000808335601e198436030181126130ff57600080fd5b83016020810192503590506001600160401b0381111561311e57600080fd5b80360383131561312d57600080fd5b9250929050565b81835281816020850137506000828201602090810191909152601f909101601f19169091010190565b6020815261317660208201613171846129c8565b612fce565b6000613184602084016129dc565b6001600160a01b03811660408401525060408301356060830152606083013560808301526131b4608084016130dd565b80151560a0840152506131ca60a08401846130e8565b6101408060c08601526131e261016086018385613134565b92506131f160c08701876130e8565b868503601f190160e0880152925061320a848483613134565b60e0880135610100888101919091528801356101208089019190915290970135919095015250929392505050565b600181811c9082168061324c57607f821691505b6020821081141561326d57634e487b7160e01b600052602260045260246000fd5b50919050565b60008251613285818460208701612d38565b9190910192915050565b60a0810161329d8288612fce565b6001600160a01b0395909516602082015260408101939093526060830191909152608090910152919050565b6000602082840312156132db57600080fd5b8151612c5a816130cf565b634e487b7160e01b600052600160045260246000fd5b60006020828403121561330e57600080fd5b5051919050565b63ffffffff60e01b8516815283602082015260606040820152600061333e606083018486613134565b9695505050505050565b602081526000612c5a6020830184612d6456fea2646970667358221220f14fb7b9a16ec14971aa0b56696cf5190df7eb994502776a91875356b0b3cc5a64736f6c634300080b0033",
  "linkReferences": {},
  "deployedLinkReferences": {}
}