{
  "_format": "hh-sol-artifact-1",
  "contractName": "AssetManagerController",
  "sourceName": "contracts/fasset/implementation/AssetManagerController.sol",
  "abi": [
    {
      "inputs": [
        {
          "internalType": "contract IGovernanceSettings",
          "name": "_governanceSettings",
          "type": "address"
        },
        {
          "internalType": "address",
          "name": "_initialGovernance",
          "type": "address"
        },
        {
          "internalType": "address",
          "name": "_addressUpdater",
          "type": "address"
        }
      ],
      "stateMutability": "nonpayable",
      "type": "constructor"
    },
    {
      "anonymous": false,
      "inputs": [
        {
          "indexed": true,
          "internalType": "address",
          "name": "agentVault",
          "type": "address"
        },
        {
          "indexed": false,
          "internalType": "uint256",
          "name": "feeBIPS",
          "type": "uint256"
        },
        {
          "indexed": false,
          "internalType": "uint256",
          "name": "agentMinCollateralRatioBIPS",
          "type": "uint256"
        },
        {
          "indexed": false,
          "internalType": "uint256",
          "name": "freeCollateralLots",
          "type": "uint256"
        }
      ],
      "name": "AgentAvailable",
      "type": "event"
    },
    {
      "anonymous": false,
      "inputs": [
        {
          "indexed": true,
          "internalType": "address",
          "name": "owner",
          "type": "address"
        },
        {
          "indexed": false,
          "internalType": "uint8",
          "name": "agentType",
          "type": "uint8"
        },
        {
          "indexed": false,
          "internalType": "address",
          "name": "agentVault",
          "type": "address"
        },
        {
          "indexed": false,
          "internalType": "string",
          "name": "underlyingAddress",
          "type": "string"
        }
      ],
      "name": "AgentCreated",
      "type": "event"
    },
    {
      "anonymous": false,
      "inputs": [
        {
          "indexed": true,
          "internalType": "address",
          "name": "agentVault",
          "type": "address"
        },
        {
          "indexed": false,
          "internalType": "uint256",
          "name": "timestamp",
          "type": "uint256"
        }
      ],
      "name": "AgentDestroyAnnounced",
      "type": "event"
    },
    {
      "anonymous": false,
      "inputs": [
        {
          "indexed": true,
          "internalType": "address",
          "name": "agentVault",
          "type": "address"
        }
      ],
      "name": "AgentDestroyed",
      "type": "event"
    },
    {
      "anonymous": false,
      "inputs": [
        {
          "indexed": true,
          "internalType": "address",
          "name": "agentVault",
          "type": "address"
        },
        {
          "indexed": false,
          "internalType": "uint256",
          "name": "timestamp",
          "type": "uint256"
        }
      ],
      "name": "AgentInCCB",
      "type": "event"
    },
    {
      "anonymous": false,
      "inputs": [
        {
          "indexed": true,
          "internalType": "address",
          "name": "agentVault",
          "type": "address"
        }
      ],
      "name": "AvailableAgentExited",
      "type": "event"
    },
    {
      "anonymous": false,
      "inputs": [
        {
          "indexed": true,
          "internalType": "address",
          "name": "agentVault",
          "type": "address"
        },
        {
          "indexed": true,
          "internalType": "address",
          "name": "minter",
          "type": "address"
        },
        {
          "indexed": false,
          "internalType": "uint256",
          "name": "collateralReservationId",
          "type": "uint256"
        },
        {
          "indexed": false,
          "internalType": "uint256",
          "name": "reservedAmountUBA",
          "type": "uint256"
        }
      ],
      "name": "CollateralReservationDeleted",
      "type": "event"
    },
    {
      "anonymous": false,
      "inputs": [
        {
          "indexed": true,
          "internalType": "address",
          "name": "agentVault",
          "type": "address"
        },
        {
          "indexed": true,
          "internalType": "address",
          "name": "minter",
          "type": "address"
        },
        {
          "indexed": false,
          "internalType": "uint256",
          "name": "collateralReservationId",
          "type": "uint256"
        },
        {
          "indexed": false,
          "internalType": "uint256",
          "name": "valueUBA",
          "type": "uint256"
        },
        {
          "indexed": false,
          "internalType": "uint256",
          "name": "feeUBA",
          "type": "uint256"
        },
        {
          "indexed": false,
          "internalType": "uint256",
          "name": "lastUnderlyingBlock",
          "type": "uint256"
        },
        {
          "indexed": false,
          "internalType": "uint256",
          "name": "lastUnderlyingTimestamp",
          "type": "uint256"
        },
        {
          "indexed": false,
          "internalType": "string",
          "name": "paymentAddress",
          "type": "string"
        },
        {
          "indexed": false,
          "internalType": "bytes32",
          "name": "paymentReference",
          "type": "bytes32"
        }
      ],
      "name": "CollateralReserved",
      "type": "event"
    },
    {
      "anonymous": false,
      "inputs": [
        {
          "indexed": true,
          "internalType": "address",
          "name": "agentVault",
          "type": "address"
        },
        {
          "indexed": false,
          "internalType": "uint256",
          "name": "valueNATWei",
          "type": "uint256"
        },
        {
          "indexed": false,
          "internalType": "uint256",
          "name": "timestamp",
          "type": "uint256"
        }
      ],
      "name": "CollateralWithdrawalAnnounced",
      "type": "event"
    },
    {
      "anonymous": false,
      "inputs": [
        {
          "indexed": false,
          "internalType": "string",
          "name": "name",
          "type": "string"
        },
        {
          "indexed": false,
          "internalType": "address",
          "name": "value",
          "type": "address"
        }
      ],
      "name": "ContractChanged",
      "type": "event"
    },
    {
      "anonymous": false,
      "inputs": [
        {
          "indexed": true,
          "internalType": "address",
          "name": "agentVault",
          "type": "address"
        },
        {
          "indexed": false,
          "internalType": "bytes32",
          "name": "transactionHash1",
          "type": "bytes32"
        },
        {
          "indexed": false,
          "internalType": "bytes32",
          "name": "transactionHash2",
          "type": "bytes32"
        }
      ],
      "name": "DuplicatePaymentConfirmed",
      "type": "event"
    },
    {
      "anonymous": false,
      "inputs": [
        {
          "indexed": true,
          "internalType": "address",
          "name": "agentVault",
          "type": "address"
        },
        {
          "indexed": false,
          "internalType": "uint256",
          "name": "dustUBA",
          "type": "uint256"
        }
      ],
      "name": "DustChanged",
      "type": "event"
    },
    {
      "anonymous": false,
      "inputs": [
        {
          "indexed": true,
          "internalType": "address",
          "name": "agentVault",
          "type": "address"
        },
        {
          "indexed": false,
          "internalType": "uint256",
          "name": "redemptionTicketId",
          "type": "uint256"
        },
        {
          "indexed": false,
          "internalType": "uint256",
          "name": "valueUBA",
          "type": "uint256"
        }
      ],
      "name": "DustConvertedToTicket",
      "type": "event"
    },
    {
      "anonymous": false,
      "inputs": [
        {
          "indexed": true,
          "internalType": "address",
          "name": "agentVault",
          "type": "address"
        },
        {
          "indexed": false,
          "internalType": "uint256",
          "name": "timestamp",
          "type": "uint256"
        }
      ],
      "name": "FullLiquidationStarted",
      "type": "event"
    },
    {
      "anonymous": false,
      "inputs": [
        {
          "indexed": false,
          "internalType": "bytes4",
          "name": "selector",
          "type": "bytes4"
        },
        {
          "indexed": false,
          "internalType": "uint256",
          "name": "allowedAfterTimestamp",
          "type": "uint256"
        },
        {
          "indexed": false,
          "internalType": "bytes",
          "name": "encodedCall",
          "type": "bytes"
        }
      ],
      "name": "GovernanceCallTimelocked",
      "type": "event"
    },
    {
      "anonymous": false,
      "inputs": [
        {
          "indexed": false,
          "internalType": "address",
          "name": "initialGovernance",
          "type": "address"
        }
      ],
      "name": "GovernanceInitialised",
      "type": "event"
    },
    {
      "anonymous": false,
      "inputs": [
        {
          "indexed": false,
          "internalType": "address",
          "name": "governanceSettings",
          "type": "address"
        }
      ],
      "name": "GovernedProductionModeEntered",
      "type": "event"
    },
    {
      "anonymous": false,
      "inputs": [
        {
          "indexed": true,
          "internalType": "address",
          "name": "agentVault",
          "type": "address"
        },
        {
          "indexed": false,
          "internalType": "bytes32",
          "name": "transactionHash",
          "type": "bytes32"
        }
      ],
      "name": "IllegalPaymentConfirmed",
      "type": "event"
    },
    {
      "anonymous": false,
      "inputs": [
        {
          "indexed": true,
          "internalType": "address",
          "name": "agentVault",
          "type": "address"
        }
      ],
      "name": "LiquidationEnded",
      "type": "event"
    },
    {
      "anonymous": false,
      "inputs": [
        {
          "indexed": true,
          "internalType": "address",
          "name": "agentVault",
          "type": "address"
        },
        {
          "indexed": true,
          "internalType": "address",
          "name": "liquidator",
          "type": "address"
        },
        {
          "indexed": false,
          "internalType": "uint256",
          "name": "valueUBA",
          "type": "uint256"
        }
      ],
      "name": "LiquidationPerformed",
      "type": "event"
    },
    {
      "anonymous": false,
      "inputs": [
        {
          "indexed": true,
          "internalType": "address",
          "name": "agentVault",
          "type": "address"
        },
        {
          "indexed": false,
          "internalType": "uint256",
          "name": "timestamp",
          "type": "uint256"
        }
      ],
      "name": "LiquidationStarted",
      "type": "event"
    },
    {
      "anonymous": false,
      "inputs": [
        {
          "indexed": true,
          "internalType": "address",
          "name": "agentVault",
          "type": "address"
        },
        {
          "indexed": false,
          "internalType": "uint256",
          "name": "collateralReservationId",
          "type": "uint256"
        },
        {
          "indexed": false,
          "internalType": "uint256",
          "name": "redemptionTicketId",
          "type": "uint256"
        },
        {
          "indexed": false,
          "internalType": "uint256",
          "name": "mintedAmountUBA",
          "type": "uint256"
        },
        {
          "indexed": false,
          "internalType": "uint256",
          "name": "receivedFeeUBA",
          "type": "uint256"
        }
      ],
      "name": "MintingExecuted",
      "type": "event"
    },
    {
      "anonymous": false,
      "inputs": [
        {
          "indexed": true,
          "internalType": "address",
          "name": "agentVault",
          "type": "address"
        },
        {
          "indexed": true,
          "internalType": "address",
          "name": "minter",
          "type": "address"
        },
        {
          "indexed": false,
          "internalType": "uint256",
          "name": "collateralReservationId",
          "type": "uint256"
        },
        {
          "indexed": false,
          "internalType": "uint256",
          "name": "reservedAmountUBA",
          "type": "uint256"
        }
      ],
      "name": "MintingPaymentDefault",
      "type": "event"
    },
    {
      "anonymous": false,
      "inputs": [
        {
          "indexed": true,
          "internalType": "address",
          "name": "agentVault",
          "type": "address"
        },
        {
          "indexed": true,
          "internalType": "address",
          "name": "redeemer",
          "type": "address"
        },
        {
          "indexed": false,
          "internalType": "uint256",
          "name": "redemptionAmountUBA",
          "type": "uint256"
        },
        {
          "indexed": false,
          "internalType": "uint256",
          "name": "redeemedCollateralWei",
          "type": "uint256"
        },
        {
          "indexed": false,
          "internalType": "uint64",
          "name": "requestId",
          "type": "uint64"
        }
      ],
      "name": "RedemptionDefault",
      "type": "event"
    },
    {
      "anonymous": false,
      "inputs": [
        {
          "indexed": true,
          "internalType": "address",
          "name": "agentVault",
          "type": "address"
        },
        {
          "indexed": false,
          "internalType": "int256",
          "name": "freedUnderlyingBalanceUBA",
          "type": "int256"
        },
        {
          "indexed": false,
          "internalType": "uint64",
          "name": "requestId",
          "type": "uint64"
        }
      ],
      "name": "RedemptionFinished",
      "type": "event"
    },
    {
      "anonymous": false,
      "inputs": [
        {
          "indexed": true,
          "internalType": "address",
          "name": "agentVault",
          "type": "address"
        },
        {
          "indexed": true,
          "internalType": "address",
          "name": "redeemer",
          "type": "address"
        },
        {
          "indexed": false,
          "internalType": "bytes32",
          "name": "transactionHash",
          "type": "bytes32"
        },
        {
          "indexed": false,
          "internalType": "uint256",
          "name": "redemptionAmountUBA",
          "type": "uint256"
        },
        {
          "indexed": false,
          "internalType": "uint64",
          "name": "requestId",
          "type": "uint64"
        }
      ],
      "name": "RedemptionPaymentBlocked",
      "type": "event"
    },
    {
      "anonymous": false,
      "inputs": [
        {
          "indexed": true,
          "internalType": "address",
          "name": "agentVault",
          "type": "address"
        },
        {
          "indexed": true,
          "internalType": "address",
          "name": "redeemer",
          "type": "address"
        },
        {
          "indexed": false,
          "internalType": "bytes32",
          "name": "transactionHash",
          "type": "bytes32"
        },
        {
          "indexed": false,
          "internalType": "uint64",
          "name": "requestId",
          "type": "uint64"
        },
        {
          "indexed": false,
          "internalType": "string",
          "name": "failureReason",
          "type": "string"
        }
      ],
      "name": "RedemptionPaymentFailed",
      "type": "event"
    },
    {
      "anonymous": false,
      "inputs": [
        {
          "indexed": true,
          "internalType": "address",
          "name": "agentVault",
          "type": "address"
        },
        {
          "indexed": true,
          "internalType": "address",
          "name": "redeemer",
          "type": "address"
        },
        {
          "indexed": false,
          "internalType": "bytes32",
          "name": "transactionHash",
          "type": "bytes32"
        },
        {
          "indexed": false,
          "internalType": "uint256",
          "name": "valueUBA",
          "type": "uint256"
        },
        {
          "indexed": false,
          "internalType": "uint64",
          "name": "requestId",
          "type": "uint64"
        }
      ],
      "name": "RedemptionPerformed",
      "type": "event"
    },
    {
      "anonymous": false,
      "inputs": [
        {
          "indexed": true,
          "internalType": "address",
          "name": "redeemer",
          "type": "address"
        },
        {
          "indexed": false,
          "internalType": "uint256",
          "name": "remainingLots",
          "type": "uint256"
        }
      ],
      "name": "RedemptionRequestIncomplete",
      "type": "event"
    },
    {
      "anonymous": false,
      "inputs": [
        {
          "indexed": true,
          "internalType": "address",
          "name": "agentVault",
          "type": "address"
        },
        {
          "indexed": false,
          "internalType": "uint256",
          "name": "requestId",
          "type": "uint256"
        },
        {
          "indexed": false,
          "internalType": "string",
          "name": "paymentAddress",
          "type": "string"
        },
        {
          "indexed": false,
          "internalType": "uint256",
          "name": "valueUBA",
          "type": "uint256"
        },
        {
          "indexed": false,
          "internalType": "uint256",
          "name": "feeUBA",
          "type": "uint256"
        },
        {
          "indexed": false,
          "internalType": "uint256",
          "name": "lastUnderlyingBlock",
          "type": "uint256"
        },
        {
          "indexed": false,
          "internalType": "uint256",
          "name": "lastUnderlyingTimestamp",
          "type": "uint256"
        },
        {
          "indexed": false,
          "internalType": "bytes32",
          "name": "paymentReference",
          "type": "bytes32"
        }
      ],
      "name": "RedemptionRequested",
      "type": "event"
    },
    {
      "anonymous": false,
      "inputs": [
        {
          "indexed": true,
          "internalType": "address",
          "name": "agentVault",
          "type": "address"
        },
        {
          "indexed": false,
          "internalType": "uint256",
          "name": "valueUBA",
          "type": "uint256"
        }
      ],
      "name": "SelfClose",
      "type": "event"
    },
    {
      "anonymous": false,
      "inputs": [
        {
          "indexed": false,
          "internalType": "string",
          "name": "name",
          "type": "string"
        },
        {
          "indexed": false,
          "internalType": "uint256[]",
          "name": "value",
          "type": "uint256[]"
        }
      ],
      "name": "SettingArrayChanged",
      "type": "event"
    },
    {
      "anonymous": false,
      "inputs": [
        {
          "indexed": false,
          "internalType": "string",
          "name": "name",
          "type": "string"
        },
        {
          "indexed": false,
          "internalType": "uint256",
          "name": "value",
          "type": "uint256"
        }
      ],
      "name": "SettingChanged",
      "type": "event"
    },
    {
      "anonymous": false,
      "inputs": [
        {
          "indexed": false,
          "internalType": "bytes4",
          "name": "selector",
          "type": "bytes4"
        },
        {
          "indexed": false,
          "internalType": "uint256",
          "name": "timestamp",
          "type": "uint256"
        }
      ],
      "name": "TimelockedGovernanceCallCanceled",
      "type": "event"
    },
    {
      "anonymous": false,
      "inputs": [
        {
          "indexed": false,
          "internalType": "bytes4",
          "name": "selector",
          "type": "bytes4"
        },
        {
          "indexed": false,
          "internalType": "uint256",
          "name": "timestamp",
          "type": "uint256"
        }
      ],
      "name": "TimelockedGovernanceCallExecuted",
      "type": "event"
    },
    {
      "anonymous": false,
      "inputs": [
        {
          "indexed": false,
          "internalType": "address",
          "name": "agentVault",
          "type": "address"
        },
        {
          "indexed": false,
          "internalType": "uint256",
          "name": "freeBalanceChangeUBA",
          "type": "uint256"
        }
      ],
      "name": "UnderlyingBalanceToppedUp",
      "type": "event"
    },
    {
      "anonymous": false,
      "inputs": [
        {
          "indexed": true,
          "internalType": "address",
          "name": "agentVault",
          "type": "address"
        },
        {
          "indexed": false,
          "internalType": "int256",
          "name": "freeBalance",
          "type": "int256"
        }
      ],
      "name": "UnderlyingFreeBalanceNegative",
      "type": "event"
    },
    {
      "anonymous": false,
      "inputs": [
        {
          "indexed": false,
          "internalType": "address",
          "name": "agentVault",
          "type": "address"
        },
        {
          "indexed": false,
          "internalType": "uint64",
          "name": "announcementId",
          "type": "uint64"
        },
        {
          "indexed": false,
          "internalType": "bytes32",
          "name": "paymentReference",
          "type": "bytes32"
        }
      ],
      "name": "UnderlyingWithdrawalAnnounced",
      "type": "event"
    },
    {
      "anonymous": false,
      "inputs": [
        {
          "indexed": false,
          "internalType": "address",
          "name": "agentVault",
          "type": "address"
        },
        {
          "indexed": false,
          "internalType": "uint64",
          "name": "announcementId",
          "type": "uint64"
        }
      ],
      "name": "UnderlyingWithdrawalCancelled",
      "type": "event"
    },
    {
      "anonymous": false,
      "inputs": [
        {
          "indexed": false,
          "internalType": "address",
          "name": "agentVault",
          "type": "address"
        },
        {
          "indexed": false,
          "internalType": "int256",
          "name": "spentUBA",
          "type": "int256"
        },
        {
          "indexed": false,
          "internalType": "bytes32",
          "name": "transactionHash",
          "type": "bytes32"
        },
        {
          "indexed": false,
          "internalType": "uint64",
          "name": "announcementId",
          "type": "uint64"
        }
      ],
      "name": "UnderlyingWithdrawalConfirmed",
      "type": "event"
    },
    {
      "inputs": [
        {
          "internalType": "contract IAssetManager",
          "name": "_assetManager",
          "type": "address"
        }
      ],
      "name": "addAssetManager",
      "outputs": [],
      "stateMutability": "nonpayable",
      "type": "function"
    },
    {
      "inputs": [
        {
          "internalType": "address",
          "name": "_assetManager",
          "type": "address"
        }
      ],
      "name": "assetManagerExists",
      "outputs": [
        {
          "internalType": "bool",
          "name": "",
          "type": "bool"
        }
      ],
      "stateMutability": "view",
      "type": "function"
    },
    {
      "inputs": [
        {
          "internalType": "bytes4",
          "name": "_selector",
          "type": "bytes4"
        }
      ],
      "name": "cancelGovernanceCall",
      "outputs": [],
      "stateMutability": "nonpayable",
      "type": "function"
    },
    {
      "inputs": [
        {
          "internalType": "bytes4",
          "name": "_selector",
          "type": "bytes4"
        }
      ],
      "name": "executeGovernanceCall",
      "outputs": [],
      "stateMutability": "nonpayable",
      "type": "function"
    },
    {
      "inputs": [],
      "name": "getAddressUpdater",
      "outputs": [
        {
          "internalType": "address",
          "name": "_addressUpdater",
          "type": "address"
        }
      ],
      "stateMutability": "view",
      "type": "function"
    },
    {
      "inputs": [],
      "name": "getAssetManagers",
      "outputs": [
        {
          "internalType": "contract IAssetManager[]",
          "name": "",
          "type": "address[]"
        }
      ],
      "stateMutability": "view",
      "type": "function"
    },
    {
      "inputs": [],
      "name": "governance",
      "outputs": [
        {
          "internalType": "address",
          "name": "",
          "type": "address"
        }
      ],
      "stateMutability": "view",
      "type": "function"
    },
    {
      "inputs": [],
      "name": "governanceSettings",
      "outputs": [
        {
          "internalType": "contract IGovernanceSettings",
          "name": "",
          "type": "address"
        }
      ],
      "stateMutability": "view",
      "type": "function"
    },
    {
      "inputs": [
        {
          "internalType": "contract IGovernanceSettings",
          "name": "_governanceSettings",
          "type": "address"
        },
        {
          "internalType": "address",
          "name": "_initialGovernance",
          "type": "address"
        }
      ],
      "name": "initialise",
      "outputs": [],
      "stateMutability": "nonpayable",
      "type": "function"
    },
    {
      "inputs": [
        {
          "internalType": "address",
          "name": "_address",
          "type": "address"
        }
      ],
      "name": "isExecutor",
      "outputs": [
        {
          "internalType": "bool",
          "name": "",
          "type": "bool"
        }
      ],
      "stateMutability": "view",
      "type": "function"
    },
    {
      "inputs": [
        {
          "internalType": "contract IAssetManager[]",
          "name": "_assetManagers",
          "type": "address[]"
        }
      ],
      "name": "pause",
      "outputs": [],
      "stateMutability": "nonpayable",
      "type": "function"
    },
    {
      "inputs": [],
      "name": "productionMode",
      "outputs": [
        {
          "internalType": "bool",
          "name": "",
          "type": "bool"
        }
      ],
      "stateMutability": "view",
      "type": "function"
    },
    {
      "inputs": [
        {
          "internalType": "contract IAssetManager[]",
          "name": "_assetManagers",
          "type": "address[]"
        }
      ],
      "name": "refreshFtsoIndexes",
      "outputs": [],
      "stateMutability": "nonpayable",
      "type": "function"
    },
    {
      "inputs": [
        {
          "internalType": "contract IAssetManager",
          "name": "_assetManager",
          "type": "address"
        }
      ],
      "name": "removeAssetManager",
      "outputs": [],
      "stateMutability": "nonpayable",
      "type": "function"
    },
    {
      "inputs": [],
      "name": "replacedBy",
      "outputs": [
        {
          "internalType": "address",
          "name": "",
          "type": "address"
        }
      ],
      "stateMutability": "view",
      "type": "function"
    },
    {
      "inputs": [
        {
          "internalType": "contract IAssetManager[]",
          "name": "_assetManagers",
          "type": "address[]"
        },
        {
          "internalType": "uint256",
          "name": "_value",
          "type": "uint256"
        }
      ],
      "name": "setAnnouncedUnderlyingConfirmationMinSeconds",
      "outputs": [],
      "stateMutability": "nonpayable",
      "type": "function"
    },
    {
      "inputs": [
        {
          "internalType": "contract IAssetManager[]",
          "name": "_assetManagers",
          "type": "address[]"
        },
        {
          "internalType": "uint256",
          "name": "_value",
          "type": "uint256"
        }
      ],
      "name": "setAttestationWindowSeconds",
      "outputs": [],
      "stateMutability": "nonpayable",
      "type": "function"
    },
    {
      "inputs": [
        {
          "internalType": "contract IAssetManager[]",
          "name": "_assetManagers",
          "type": "address[]"
        },
        {
          "internalType": "uint256",
          "name": "_value",
          "type": "uint256"
        }
      ],
      "name": "setCcbTimeSeconds",
      "outputs": [],
      "stateMutability": "nonpayable",
      "type": "function"
    },
    {
      "inputs": [
        {
          "internalType": "contract IAssetManager[]",
          "name": "_assetManagers",
          "type": "address[]"
        },
        {
          "internalType": "uint256",
          "name": "_minCollateralRatioBIPS",
          "type": "uint256"
        },
        {
          "internalType": "uint256",
          "name": "_ccbMinCollateralRatioBIPS",
          "type": "uint256"
        },
        {
          "internalType": "uint256",
          "name": "_safetyMinCollateralRatioBIPS",
          "type": "uint256"
        }
      ],
      "name": "setCollateralRatios",
      "outputs": [],
      "stateMutability": "nonpayable",
      "type": "function"
    },
    {
      "inputs": [
        {
          "internalType": "contract IAssetManager[]",
          "name": "_assetManagers",
          "type": "address[]"
        },
        {
          "internalType": "uint256",
          "name": "_value",
          "type": "uint256"
        }
      ],
      "name": "setCollateralReservationFeeBips",
      "outputs": [],
      "stateMutability": "nonpayable",
      "type": "function"
    },
    {
      "inputs": [
        {
          "internalType": "contract IAssetManager[]",
          "name": "_assetManagers",
          "type": "address[]"
        },
        {
          "internalType": "uint256",
          "name": "_value",
          "type": "uint256"
        }
      ],
      "name": "setConfirmationByOthersAfterSeconds",
      "outputs": [],
      "stateMutability": "nonpayable",
      "type": "function"
    },
    {
      "inputs": [
        {
          "internalType": "contract IAssetManager[]",
          "name": "_assetManagers",
          "type": "address[]"
        },
        {
          "internalType": "uint256",
          "name": "_value",
          "type": "uint256"
        }
      ],
      "name": "setConfirmationByOthersRewardNatWei",
      "outputs": [],
      "stateMutability": "nonpayable",
      "type": "function"
    },
    {
      "inputs": [
        {
          "internalType": "contract IAssetManager[]",
          "name": "_assetManagers",
          "type": "address[]"
        },
        {
          "internalType": "uint256[]",
          "name": "_values",
          "type": "uint256[]"
        }
      ],
      "name": "setLiquidationCollateralFactorBips",
      "outputs": [],
      "stateMutability": "nonpayable",
      "type": "function"
    },
    {
      "inputs": [
        {
          "internalType": "contract IAssetManager[]",
          "name": "_assetManagers",
          "type": "address[]"
        },
        {
          "internalType": "uint256",
          "name": "_value",
          "type": "uint256"
        }
      ],
      "name": "setLiquidationStepSeconds",
      "outputs": [],
      "stateMutability": "nonpayable",
      "type": "function"
    },
    {
      "inputs": [
        {
          "internalType": "contract IAssetManager[]",
          "name": "_assetManagers",
          "type": "address[]"
        },
        {
          "internalType": "uint256",
          "name": "_value",
          "type": "uint256"
        }
      ],
      "name": "setLotSizeAmg",
      "outputs": [],
      "stateMutability": "nonpayable",
      "type": "function"
    },
    {
      "inputs": [
        {
          "internalType": "contract IAssetManager[]",
          "name": "_assetManagers",
          "type": "address[]"
        },
        {
          "internalType": "uint256",
          "name": "_value",
          "type": "uint256"
        }
      ],
      "name": "setMaxRedeemedTickets",
      "outputs": [],
      "stateMutability": "nonpayable",
      "type": "function"
    },
    {
      "inputs": [
        {
          "internalType": "contract IAssetManager[]",
          "name": "_assetManagers",
          "type": "address[]"
        },
        {
          "internalType": "uint256",
          "name": "_value",
          "type": "uint256"
        }
      ],
      "name": "setMaxTrustedPriceAgeSeconds",
      "outputs": [],
      "stateMutability": "nonpayable",
      "type": "function"
    },
    {
      "inputs": [
        {
          "internalType": "contract IAssetManager[]",
          "name": "_assetManagers",
          "type": "address[]"
        },
        {
          "internalType": "uint256",
          "name": "_rewardNATWei",
          "type": "uint256"
        },
        {
          "internalType": "uint256",
          "name": "_rewardBIPS",
          "type": "uint256"
        }
      ],
      "name": "setPaymentChallengeReward",
      "outputs": [],
      "stateMutability": "nonpayable",
      "type": "function"
    },
    {
      "inputs": [
        {
          "internalType": "contract IAssetManager[]",
          "name": "_assetManagers",
          "type": "address[]"
        },
        {
          "internalType": "uint256",
          "name": "_value",
          "type": "uint256"
        }
      ],
      "name": "setRedemptionDefaultFactorBips",
      "outputs": [],
      "stateMutability": "nonpayable",
      "type": "function"
    },
    {
      "inputs": [
        {
          "internalType": "contract IAssetManager[]",
          "name": "_assetManagers",
          "type": "address[]"
        },
        {
          "internalType": "uint256",
          "name": "_value",
          "type": "uint256"
        }
      ],
      "name": "setRedemptionFeeBips",
      "outputs": [],
      "stateMutability": "nonpayable",
      "type": "function"
    },
    {
      "inputs": [
        {
          "internalType": "contract IAssetManager[]",
          "name": "_assetManagers",
          "type": "address[]"
        },
        {
          "internalType": "uint256",
          "name": "_underlyingBlocks",
          "type": "uint256"
        },
        {
          "internalType": "uint256",
          "name": "_underlyingSeconds",
          "type": "uint256"
        }
      ],
      "name": "setTimeForPayment",
      "outputs": [],
      "stateMutability": "nonpayable",
      "type": "function"
    },
    {
      "inputs": [
        {
          "internalType": "contract IAssetManager[]",
          "name": "_assetManagers",
          "type": "address[]"
        },
        {
          "internalType": "address",
          "name": "_value",
          "type": "address"
        }
      ],
      "name": "setWhitelist",
      "outputs": [],
      "stateMutability": "nonpayable",
      "type": "function"
    },
    {
      "inputs": [
        {
          "internalType": "contract IAssetManager[]",
          "name": "_assetManagers",
          "type": "address[]"
        },
        {
          "internalType": "uint256",
          "name": "_value",
          "type": "uint256"
        }
      ],
      "name": "setWithdrawalOrDestroyWaitMinSeconds",
      "outputs": [],
      "stateMutability": "nonpayable",
      "type": "function"
    },
    {
      "inputs": [],
      "name": "switchToProductionMode",
      "outputs": [],
      "stateMutability": "nonpayable",
      "type": "function"
    },
    {
      "inputs": [
        {
          "internalType": "contract IAssetManager[]",
          "name": "_assetManagers",
          "type": "address[]"
        }
      ],
      "name": "terminate",
      "outputs": [],
      "stateMutability": "nonpayable",
      "type": "function"
    },
    {
      "inputs": [
        {
          "internalType": "bytes4",
          "name": "",
          "type": "bytes4"
        }
      ],
      "name": "timelockedCalls",
      "outputs": [
        {
          "internalType": "uint256",
          "name": "allowedAfterTimestamp",
          "type": "uint256"
        },
        {
          "internalType": "bytes",
          "name": "encodedCall",
          "type": "bytes"
        }
      ],
      "stateMutability": "view",
      "type": "function"
    },
    {
      "inputs": [
        {
          "internalType": "contract IAssetManager[]",
          "name": "_assetManagers",
          "type": "address[]"
        }
      ],
      "name": "unpause",
      "outputs": [],
      "stateMutability": "nonpayable",
      "type": "function"
    },
    {
      "inputs": [
        {
          "internalType": "bytes32[]",
          "name": "_contractNameHashes",
          "type": "bytes32[]"
        },
        {
          "internalType": "address[]",
          "name": "_contractAddresses",
          "type": "address[]"
        }
      ],
      "name": "updateContractAddresses",
      "outputs": [],
      "stateMutability": "nonpayable",
      "type": "function"
    }
  ],
  "bytecode": "0x60806040523480156200001157600080fd5b5060405162002b3c38038062002b3c83398101604081905262000034916200020b565b80838362000043828262000079565b506200006f9050817f714f205b2abd25bef1d06a1af944e38c113fe6160375c4e1d6d5cf28848e771955565b505050506200025f565b600054600160a01b900460ff1615620000d95760405162461bcd60e51b815260206004820152601460248201527f696e697469616c6973656420213d2066616c736500000000000000000000000060448201526064015b60405180910390fd5b6001600160a01b038216620001315760405162461bcd60e51b815260206004820152601860248201527f676f7665726e616e63652073657474696e6773207a65726f00000000000000006044820152606401620000d0565b6001600160a01b0381166200017c5760405162461bcd60e51b815260206004820152601060248201526f5f676f7665726e616e6365207a65726f60801b6044820152606401620000d0565b600080546001600160a01b038481166001600160a81b031990921691909117600160a01b17909155600180549183166001600160a01b0319909216821790556040519081527f9789733827840833afc031fb2ef9ab6894271f77bad2085687cf4ae5c7bee4db9060200160405180910390a15050565b6001600160a01b03811681146200020857600080fd5b50565b6000806000606084860312156200022157600080fd5b83516200022e81620001f2565b60208501519093506200024181620001f2565b60408501519092506200025481620001f2565b809150509250925092565b6128cd806200026f6000396000f3fe608060405234801561001057600080fd5b50600436106102325760003560e01c8063781f0d7111610130578063b577fc76116100b8578063e17f212e1161007c578063e17f212e14610506578063ec8e31611461051a578063eddaf2931461052d578063ef88bf1314610540578063f5a983831461055357600080fd5b8063b577fc76146104a5578063b87b82f0146104b8578063d285a636146104cd578063de892e1b146104e0578063debfda30146104f357600080fd5b8063987ea899116100ff578063987ea89914610446578063a391dd9c14610459578063a82ee3d51461046c578063aeb415551461047f578063b00c0b761461049257600080fd5b8063781f0d71146103d25780637ad62f51146103e55780637e3566fe146104205780639755c6a71461043357600080fd5b806347956606116101be5780635ff27079116101825780635ff270791461036557806362354e031461037857806367fc40291461038b57806374e6310e1461039e5780637766dfb2146103bf57600080fd5b806347956606146102e457806351241060146102f75780635267a15d1461030a5780635aa6e6751461034a5780635b5bad731461035257600080fd5b80632c9aad73116102055780632c9aad73146102855780632d5846da1461029857806334dc3932146102ab578063358bca77146102be5780633a2914e1146102d157600080fd5b806303821452146102375780630a3eb8741461024c578063207566711461025f5780632aedabe414610272575b600080fd5b61024a6102453660046120c4565b61055b565b005b61024a61025a36600461222d565b6105ff565b61024a61026d36600461222d565b610657565b61024a61028036600461222d565b610697565b61024a610293366004612272565b6106d7565b61024a6102a636600461222d565b61071e565b61024a6102b936600461222d565b61075e565b61024a6102cc3660046122af565b61079e565b61024a6102df3660046122d3565b6109f5565b61024a6102f236600461222d565b610a33565b61024a61030536600461222d565b610a73565b7f714f205b2abd25bef1d06a1af944e38c113fe6160375c4e1d6d5cf28848e7719545b6040516001600160a01b0390911681526020015b60405180910390f35b61032d610ab3565b61024a6103603660046120c4565b610b4f565b61024a61037336600461238e565b610bee565b60005461032d906001600160a01b031681565b61024a61039936600461238e565b610e70565b6103b16103ac36600461238e565b610f4a565b604051610341929190612410565b61024a6103cd36600461222d565b610fef565b61024a6103e0366004612429565b61102f565b6104106103f33660046122af565b6001600160a01b0316600090815260046020526040902054151590565b6040519015158152602001610341565b61024a61042e36600461222d565b6110b6565b61024a6104413660046120c4565b6110f6565b61024a6104543660046122af565b611195565b61024a61046736600461247d565b61130d565b61024a61047a36600461222d565b611388565b61024a61048d36600461222d565b6113c8565b61024a6104a036600461252f565b611408565b60035461032d906001600160a01b031681565b6104c06114e3565b60405161034191906125e8565b61024a6104db36600461222d565b611545565b61024a6104ee36600461222d565b611585565b6104106105013660046122af565b6115c5565b60005461041090600160a81b900460ff1681565b61024a610528366004612635565b61164e565b61024a61053b36600461247d565b6116c9565b61024a61054e366004612687565b611712565b61024a611878565b61056361193e565b60005b818110156105fa57828282818110610580576105806126b5565b905060200201602081019061059591906122af565b6001600160a01b0316633f4ba83a6040518163ffffffff1660e01b8152600401600060405180830381600087803b1580156105cf57600080fd5b505af11580156105e3573d6000803e3d6000fd5b5050505080806105f2906126e1565b915050610566565b505050565b61060761193e565b610653827fdb8617d6427f99a93c9a0c29cea5de59ff5e46d6b670defb2621832b9ecf8e738360405160200161063f91815260200190565b60405160208183030381529060405261199a565b5050565b61065f61193e565b610653827faf5f2b98f83ec754c2468c6f795cd14e63ea828a68b271c17461d623661e8d0c8360405160200161063f91815260200190565b61069f61193e565b610653827f568ae58ed29d3123b07c83375be93831571baa4efa6eca219a665b6edcce3bd28360405160200161063f91815260200190565b6106df611aae565b60408051600081526020810190915261071b9082907f6d786299c62c04d0e2cb487e90ce88ff5f66ac1a47c94b0ec829f6faff7dbffe9061199a565b50565b61072661193e565b610653827fdd64bd048b711cc14ce05eb540d2dbb9001521d5365cdac63643f90be13128a78360405160200161063f91815260200190565b61076661193e565b610653827f9db27f55d4910a7a49292d8345f039e6266f7dc44269477125dfdf9c0a20bda28360405160200161063f91815260200190565b600054600160b01b900460ff16806107c05750600054600160a81b900460ff16155b156109ea576107cd611b25565b6001600160a01b038116600090815260046020526040902054806107ef575050565b60006107fc6001836126fc565b600554909150600090610811906001906126fc565b9050808210156108cb576005818154811061082e5761082e6126b5565b600091825260209091200154600580546001600160a01b03909216918490811061085a5761085a6126b5565b600091825260209091200180546001600160a01b0319166001600160a01b039290921691909117905561088e826001612713565b60046000600585815481106108a5576108a56126b5565b60009182526020808320909101546001600160a01b031683528201929092526040019020555b60058054806108dc576108dc61272b565b60008281526020808220830160001990810180546001600160a01b03191690559092019092556001600160a01b0386168083526004808352604080852094909455835163f0c0b72560e01b815293513094929363f0c0b7259380840193919291908290030181865afa158015610956573d6000803e3d6000fd5b505050506040513d601f19601f8201168201806040525081019061097a9190612741565b6001600160a01b031614156109e45760405163b928b53360e01b8152600060048201526001600160a01b0385169063b928b53390602401600060405180830381600087803b1580156109cb57600080fd5b505af11580156109df573d6000803e3d6000fd5b505050505b50505050565b61071b600036611b5d565b6109fd61193e565b610653827fff8e46acf0e082c50cbebf04a7d8d8cea68977076279e85a4cc51b721f414b508360405160200161063f919061275e565b610a3b61193e565b610653827f47814c0626f9db4541c2626f398ce27bbf58b6f2fbe51e47c992fc40c99c2f148360405160200161063f91815260200190565b610a7b61193e565b610653827f5ac5c11e3be51a3b2f1c18cb30a2917c10f24fdee614a595d151c820e854756d8360405160200161063f91815260200190565b60008054600160a81b900460ff16610ad557506001546001600160a01b031690565b60008054906101000a90046001600160a01b03166001600160a01b031663732524946040518163ffffffff1660e01b8152600401602060405180830381865afa158015610b26573d6000803e3d6000fd5b505050506040513d601f19601f82011682018060405250810190610b4a9190612741565b905090565b610b5761193e565b60005b818110156105fa57828282818110610b7457610b746126b5565b9050602002016020810190610b8991906122af565b6001600160a01b0316630c08bf886040518163ffffffff1660e01b8152600401600060405180830381600087803b158015610bc357600080fd5b505af1158015610bd7573d6000803e3d6000fd5b505050508080610be6906126e1565b915050610b5a565b610bf7336115c5565b610c385760405162461bcd60e51b815260206004820152600d60248201526c37b7363c9032bc32b1baba37b960991b60448201526064015b60405180910390fd5b6001600160e01b0319811660009081526002602052604090208054610c9f5760405162461bcd60e51b815260206004820152601a60248201527f74696d656c6f636b3a20696e76616c69642073656c6563746f720000000000006044820152606401610c2f565b8054421015610cf05760405162461bcd60e51b815260206004820152601960248201527f74696d656c6f636b3a206e6f7420616c6c6f77656420796574000000000000006044820152606401610c2f565b6000816001018054610d0190612796565b80601f0160208091040260200160405190810160405280929190818152602001828054610d2d90612796565b8015610d7a5780601f10610d4f57610100808354040283529160200191610d7a565b820191906000526020600020905b815481529060010190602001808311610d5d57829003601f168201915b505050506001600160e01b0319851660009081526002602052604081208181559293509050610dac6001830182611ff1565b50506000805460ff60b01b1916600160b01b1781556040513090610dd19084906127d1565b6000604051808303816000865af19150503d8060008114610e0e576040519150601f19603f3d011682016040523d82523d6000602084013e610e13565b606091505b50506000805460ff60b01b19169055604080516001600160e01b0319871681524260208201529192507fa7326b57fc9cfe267aaea5e7f0b01757154d265620a0585819416ee9ddd2c438910160405180910390a16109e481611cad565b610e7861193e565b6001600160e01b03198116600090815260026020526040902054610ede5760405162461bcd60e51b815260206004820152601a60248201527f74696d656c6f636b3a20696e76616c69642073656c6563746f720000000000006044820152606401610c2f565b604080516001600160e01b0319831681524260208201527f7735b2391c38a81419c513e30ca578db7158eadd7101511b23e221c654d19cf8910160405180910390a16001600160e01b031981166000908152600260205260408120818155906105fa6001830182611ff1565b60026020526000908152604090208054600182018054919291610f6c90612796565b80601f0160208091040260200160405190810160405280929190818152602001828054610f9890612796565b8015610fe55780601f10610fba57610100808354040283529160200191610fe5565b820191906000526020600020905b815481529060010190602001808311610fc857829003601f168201915b5050505050905082565b610ff761193e565b610653827f606867f936d565ed702f6b4238dae53388e36b6dd1fd4f3029602659d9432bf18360405160200161063f91815260200190565b600054600160b01b900460ff16806110515750600054600160a81b900460ff16155b156110ab5761105e611b25565b6040805160208101859052908101839052606081018290526110a69085907f16c04b02a233833b4b39084bc7b5438324db8510f179ca99d355dd464defd1b99060800161063f565b6109e4565b6109e4600036611b5d565b6110be61193e565b610653827ff9b9b44651521fa32e45f527b7392825f165c03571fd1485e7dc0e2a3e460a6f8360405160200161063f91815260200190565b6110fe61193e565b60005b818110156105fa5782828281811061111b5761111b6126b5565b905060200201602081019061113091906122af565b6001600160a01b0316638456cb596040518163ffffffff1660e01b8152600401600060405180830381600087803b15801561116a57600080fd5b505af115801561117e573d6000803e3d6000fd5b50505050808061118d906126e1565b915050611101565b600054600160b01b900460ff16806111b75750600054600160a81b900460ff16155b156109ea576111c4611b25565b6001600160a01b038116600090815260046020526040902054156111e55750565b600580546001810182557f036b6384b5eca791c62761152d0c79bb0604c104a5fb6f4eb0703f3154bb3db00180546001600160a01b0319166001600160a01b038416908117909155905460008281526004602081815260409283902093909355815163f0c0b72560e01b8152915130949363f0c0b7259380840193919291908290030181865afa15801561127d573d6000803e3d6000fd5b505050506040513d601f19601f820116820180604052508101906112a19190612741565b6001600160a01b0316141561071b5760405163b928b53360e01b8152600160048201526001600160a01b0382169063b928b53390602401600060405180830381600087803b1580156112f257600080fd5b505af1158015611306573d6000803e3d6000fd5b5050505050565b600054600160b01b900460ff168061132f5750600054600160a81b900460ff16155b1561137d5761133c611b25565b6105fa837f69b89e7ecda74b156ebb6553c166323512e616eb5e0a3d77b3e376086c891f7e848460405160200161063f929190918252602082015260400190565b6105fa600036611b5d565b61139061193e565b610653827fdfc5941748b75983d6817917ceea4fb882f2d1482879fb7842e0c15d7c0f2a818360405160200161063f91815260200190565b6113d061193e565b610653827f2779aaaa0a4aba6761d05634679205836858e31b3d82fff3dc5a6b4b1f32c1a18360405160200161063f91815260200190565b7f714f205b2abd25bef1d06a1af944e38c113fe6160375c4e1d6d5cf28848e7719546001600160a01b0316336001600160a01b0316146114815760405162461bcd60e51b815260206004820152601460248201527337b7363c9030b2323932b9b9903ab83230ba32b960611b6044820152606401610c2f565b6114d96114b583836040518060400160405280600e81526020016d20b2323932b9b9aab83230ba32b960911b815250611cca565b7f714f205b2abd25bef1d06a1af944e38c113fe6160375c4e1d6d5cf28848e771955565b6106538282611da6565b6060600580548060200260200160405190810160405280929190818152602001828054801561153b57602002820191906000526020600020905b81546001600160a01b0316815260019091019060200180831161151d575b5050505050905090565b61154d61193e565b610653827f8d94510abc431bcb13b2a3c387606705f4fa6805ce72c0ae8a76f02a2e60990a8360405160200161063f91815260200190565b61158d61193e565b610653827f0468d50ebc624bb817f0ceb5e25fd8f6a3bd007ed7ab4ace22ce9050fa9900e28360405160200161063f91815260200190565b60008054600160a01b900460ff1680156116485750600054604051630debfda360e41b81526001600160a01b0384811660048301529091169063debfda3090602401602060405180830381865afa158015611624573d6000803e3d6000fd5b505050506040513d601f19601f8201168201806040525081019061164891906127ed565b92915050565b600054600160b01b900460ff16806116705750600054600160a81b900460ff16155b156116be5761167d611b25565b604080516001600160a01b03831660208201526106539184917f854cff2f06134808792749e4c9e6efde176603ff5656cbb2cda605578a5e6dc2910161063f565b610653600036611b5d565b6116d161193e565b6105fa837f68f224ba1b1345ef831341b77bb145c7ff885cf1c8ce6f35dfa089079d38dd18848460405160200161063f929190918252602082015260400190565b600054600160a01b900460ff16156117635760405162461bcd60e51b8152602060048201526014602482015273696e697469616c6973656420213d2066616c736560601b6044820152606401610c2f565b6001600160a01b0382166117b95760405162461bcd60e51b815260206004820152601860248201527f676f7665726e616e63652073657474696e6773207a65726f00000000000000006044820152606401610c2f565b6001600160a01b0381166118025760405162461bcd60e51b815260206004820152601060248201526f5f676f7665726e616e6365207a65726f60801b6044820152606401610c2f565b600080546001600160a01b038481166001600160a81b031990921691909117600160a01b17909155600180549183166001600160a01b0319909216821790556040519081527f9789733827840833afc031fb2ef9ab6894271f77bad2085687cf4ae5c7bee4db9060200160405180910390a15050565b61188061193e565b600054600160a81b900460ff16156118da5760405162461bcd60e51b815260206004820152601a60248201527f616c726561647920696e2070726f64756374696f6e206d6f64650000000000006044820152606401610c2f565b600180546001600160a01b031916905560008054600160a81b60ff60a81b198216179091556040516001600160a01b0390911681527f83af113638b5422f9e977cebc0aaf0eaf2188eb9a8baae7f9d46c42b33a1560c9060200160405180910390a1565b611946610ab3565b6001600160a01b0316336001600160a01b0316146119985760405162461bcd60e51b815260206004820152600f60248201526e6f6e6c7920676f7665726e616e636560881b6044820152606401610c2f565b565b60005b83518110156109e45760008482815181106119ba576119ba6126b5565b6020026020010151905060046000826001600160a01b03166001600160a01b031681526020019081526020016000205460001415611a3a5760405162461bcd60e51b815260206004820152601960248201527f4173736574206d616e61676572206e6f74206d616e61676564000000000000006044820152606401610c2f565b6040516378ce9e0360e11b81526001600160a01b0382169063f19d3c0690611a689087908790600401612410565b600060405180830381600087803b158015611a8257600080fd5b505af1158015611a96573d6000803e3d6000fd5b50505050508080611aa6906126e1565b91505061199d565b611ab6610ab3565b6001600160a01b0316336001600160a01b03161480611ad95750611ad9336115c5565b6119985760405162461bcd60e51b815260206004820152601b60248201527f6f6e6c7920676f7665726e616e6365206f72206578656375746f7200000000006044820152606401610c2f565b600054600160b01b900460ff1615611b5557333014611b4657611b4661280f565b6000805460ff60b01b19169055565b61199861193e565b611b6561193e565b6000805460408051636221a54b60e01b81529051853593926001600160a01b031691636221a54b9160048083019260209291908290030181865afa158015611bb1573d6000803e3d6000fd5b505050506040513d601f19601f82011682018060405250810190611bd59190612825565b90506000611be38242612713565b9050604051806040016040528082815260200186868080601f01602080910402602001604051908101604052809392919081815260200183838082843760009201829052509390945250506001600160e01b03198616815260026020908152604090912083518155838201518051919350611c6592600185019291019061202b565b509050507fed948300a3694aa01d4a6b258bfd664350193d770c0b51f8387277f6d83ea3b683828787604051611c9e949392919061283e565b60405180910390a15050505050565b3d604051818101604052816000823e8215611cc6578181f35b8181fd5b60008082604051602001611cde9190612884565b6040516020818303038152906040528051906020012090506000805b8651811015611d5757868181518110611d1557611d156126b5565b6020026020010151831415611d4557858181518110611d3657611d366126b5565b60200260200101519150611d57565b80611d4f816126e1565b915050611cfa565b506001600160a01b038116611d9d5760405162461bcd60e51b815260206004820152600c60248201526b61646472657373207a65726f60a01b6044820152606401610c2f565b95945050505050565b6000611de183836040518060400160405280601681526020017520b9b9b2ba26b0b730b3b2b921b7b73a3937b63632b960511b815250611cca565b90506000611e198484604051806040016040528060118152602001704167656e745661756c74466163746f727960781b815250611cca565b90506000611e51858560405180604001604052806011815260200170105d1d195cdd185d1a5bdb90db1a595b9d607a1b815250611cca565b90506000611e8486866040518060400160405280600c81526020016b4674736f526567697374727960a01b815250611cca565b90506000611eaf87876040518060400160405280600481526020016315d3985d60e21b815250611cca565b905060005b600554811015611fbb57600060058281548110611ed357611ed36126b5565b60009182526020918290200154604080516001600160a01b038b811694820194909452898416918101919091528783166060820152868316608082015285831660a082015291169150819063f19d3c06907fc2c50bdbda236c70cb7f0a51a333352f2aba60a98c7e56fee2a4c2b34fcf0cd09060c0016040516020818303038152906040526040518363ffffffff1660e01b8152600401611f75929190612410565b600060405180830381600087803b158015611f8f57600080fd5b505af1158015611fa3573d6000803e3d6000fd5b50505050508080611fb3906126e1565b915050611eb4565b506001600160a01b0385163014611fe857600380546001600160a01b0319166001600160a01b0387161790555b50505050505050565b508054611ffd90612796565b6000825580601f1061200d575050565b601f01602090049060005260206000209081019061071b91906120af565b82805461203790612796565b90600052602060002090601f016020900481019282612059576000855561209f565b82601f1061207257805160ff191683800117855561209f565b8280016001018555821561209f579182015b8281111561209f578251825591602001919060010190612084565b506120ab9291506120af565b5090565b5b808211156120ab57600081556001016120b0565b600080602083850312156120d757600080fd5b823567ffffffffffffffff808211156120ef57600080fd5b818501915085601f83011261210357600080fd5b81358181111561211257600080fd5b8660208260051b850101111561212757600080fd5b60209290920196919550909350505050565b634e487b7160e01b600052604160045260246000fd5b604051601f8201601f1916810167ffffffffffffffff8111828210171561217857612178612139565b604052919050565b600067ffffffffffffffff82111561219a5761219a612139565b5060051b60200190565b6001600160a01b038116811461071b57600080fd5b600082601f8301126121ca57600080fd5b813560206121df6121da83612180565b61214f565b82815260059290921b840181019181810190868411156121fe57600080fd5b8286015b84811015612222578035612215816121a4565b8352918301918301612202565b509695505050505050565b6000806040838503121561224057600080fd5b823567ffffffffffffffff81111561225757600080fd5b612263858286016121b9565b95602094909401359450505050565b60006020828403121561228457600080fd5b813567ffffffffffffffff81111561229b57600080fd5b6122a7848285016121b9565b949350505050565b6000602082840312156122c157600080fd5b81356122cc816121a4565b9392505050565b600080604083850312156122e657600080fd5b823567ffffffffffffffff808211156122fe57600080fd5b61230a868387016121b9565b935060209150818501358181111561232157600080fd5b85019050601f8101861361233457600080fd5b80356123426121da82612180565b81815260059190911b8201830190838101908883111561236157600080fd5b928401925b8284101561237f57833582529284019290840190612366565b80955050505050509250929050565b6000602082840312156123a057600080fd5b81356001600160e01b0319811681146122cc57600080fd5b60005b838110156123d35781810151838201526020016123bb565b838111156109e45750506000910152565b600081518084526123fc8160208601602086016123b8565b601f01601f19169290920160200192915050565b8281526040602082015260006122a760408301846123e4565b6000806000806080858703121561243f57600080fd5b843567ffffffffffffffff81111561245657600080fd5b612462878288016121b9565b97602087013597506040870135966060013595509350505050565b60008060006060848603121561249257600080fd5b833567ffffffffffffffff8111156124a957600080fd5b6124b5868287016121b9565b9660208601359650604090950135949350505050565b600082601f8301126124dc57600080fd5b813560206124ec6121da83612180565b82815260059290921b8401810191818101908684111561250b57600080fd5b8286015b84811015612222578035612522816121a4565b835291830191830161250f565b6000806040838503121561254257600080fd5b823567ffffffffffffffff8082111561255a57600080fd5b818501915085601f83011261256e57600080fd5b8135602061257e6121da83612180565b82815260059290921b8401810191818101908984111561259d57600080fd5b948201945b838610156125bb578535825294820194908201906125a2565b965050860135925050808211156125d157600080fd5b506125de858286016124cb565b9150509250929050565b6020808252825182820181905260009190848201906040850190845b818110156126295783516001600160a01b031683529284019291840191600101612604565b50909695505050505050565b6000806040838503121561264857600080fd5b823567ffffffffffffffff81111561265f57600080fd5b61266b858286016121b9565b925050602083013561267c816121a4565b809150509250929050565b6000806040838503121561269a57600080fd5b82356126a5816121a4565b9150602083013561267c816121a4565b634e487b7160e01b600052603260045260246000fd5b634e487b7160e01b600052601160045260246000fd5b60006000198214156126f5576126f56126cb565b5060010190565b60008282101561270e5761270e6126cb565b500390565b60008219821115612726576127266126cb565b500190565b634e487b7160e01b600052603160045260246000fd5b60006020828403121561275357600080fd5b81516122cc816121a4565b6020808252825182820181905260009190848201906040850190845b818110156126295783518352928401929184019160010161277a565b600181811c908216806127aa57607f821691505b602082108114156127cb57634e487b7160e01b600052602260045260246000fd5b50919050565b600082516127e38184602087016123b8565b9190910192915050565b6000602082840312156127ff57600080fd5b815180151581146122cc57600080fd5b634e487b7160e01b600052600160045260246000fd5b60006020828403121561283757600080fd5b5051919050565b63ffffffff60e01b8516815283602082015260606040820152816060820152818360808301376000818301608090810191909152601f909201601f191601019392505050565b6020815260006122cc60208301846123e456fea2646970667358221220b43ed53b9ccf2e8ee3088ecb26a7165706247507fdf07611563b253c19af687764736f6c634300080b0033",
  "linkReferences": {},
  "deployedLinkReferences": {}
}