{
  "_format": "hh-sol-artifact-1",
  "contractName": "AssetManagerController",
  "sourceName": "contracts/fasset/implementation/AssetManagerController.sol",
  "abi": [
    {
      "inputs": [
        {
          "internalType": "contract IGovernanceSettings",
          "name": "_governanceSettings",
          "type": "address"
        },
        {
          "internalType": "address",
          "name": "_initialGovernance",
          "type": "address"
        },
        {
          "internalType": "address",
          "name": "_addressUpdater",
          "type": "address"
        }
      ],
      "stateMutability": "nonpayable",
      "type": "constructor"
    },
    {
      "anonymous": false,
      "inputs": [
        {
          "indexed": true,
          "internalType": "address",
          "name": "agentVault",
          "type": "address"
        },
        {
          "indexed": false,
          "internalType": "uint256",
          "name": "feeBIPS",
          "type": "uint256"
        },
        {
          "indexed": false,
          "internalType": "uint256",
          "name": "mintingVaultCollateralRatioBIPS",
          "type": "uint256"
        },
        {
          "indexed": false,
          "internalType": "uint256",
          "name": "mintingPoolCollateralRatioBIPS",
          "type": "uint256"
        },
        {
          "indexed": false,
          "internalType": "uint256",
          "name": "freeCollateralLots",
          "type": "uint256"
        }
      ],
      "name": "AgentAvailable",
      "type": "event"
    },
    {
      "anonymous": false,
      "inputs": [
        {
          "indexed": true,
          "internalType": "address",
          "name": "agentVault",
          "type": "address"
        },
        {
          "indexed": false,
          "internalType": "uint8",
          "name": "collateralClass",
          "type": "uint8"
        },
        {
          "indexed": false,
          "internalType": "address",
          "name": "token",
          "type": "address"
        }
      ],
      "name": "AgentCollateralTypeChanged",
      "type": "event"
    },
    {
      "anonymous": false,
      "inputs": [
        {
          "indexed": true,
          "internalType": "address",
          "name": "agentVault",
          "type": "address"
        },
        {
          "indexed": false,
          "internalType": "uint256",
          "name": "destroyAllowedAt",
          "type": "uint256"
        }
      ],
      "name": "AgentDestroyAnnounced",
      "type": "event"
    },
    {
      "anonymous": false,
      "inputs": [
        {
          "indexed": true,
          "internalType": "address",
          "name": "agentVault",
          "type": "address"
        }
      ],
      "name": "AgentDestroyed",
      "type": "event"
    },
    {
      "anonymous": false,
      "inputs": [
        {
          "indexed": true,
          "internalType": "address",
          "name": "agentVault",
          "type": "address"
        },
        {
          "indexed": false,
          "internalType": "uint256",
          "name": "timestamp",
          "type": "uint256"
        }
      ],
      "name": "AgentInCCB",
      "type": "event"
    },
    {
      "anonymous": false,
      "inputs": [
        {
          "indexed": true,
          "internalType": "address",
          "name": "agentVault",
          "type": "address"
        },
        {
          "indexed": false,
          "internalType": "string",
          "name": "name",
          "type": "string"
        },
        {
          "indexed": false,
          "internalType": "uint256",
          "name": "value",
          "type": "uint256"
        },
        {
          "indexed": false,
          "internalType": "uint256",
          "name": "validAt",
          "type": "uint256"
        }
      ],
      "name": "AgentSettingChangeAnnounced",
      "type": "event"
    },
    {
      "anonymous": false,
      "inputs": [
        {
          "indexed": true,
          "internalType": "address",
          "name": "agentVault",
          "type": "address"
        },
        {
          "indexed": false,
          "internalType": "string",
          "name": "name",
          "type": "string"
        },
        {
          "indexed": false,
          "internalType": "uint256",
          "name": "value",
          "type": "uint256"
        }
      ],
      "name": "AgentSettingChanged",
      "type": "event"
    },
    {
      "anonymous": false,
      "inputs": [
        {
          "indexed": true,
          "internalType": "address",
          "name": "owner",
          "type": "address"
        },
        {
          "indexed": false,
          "internalType": "address",
          "name": "agentVault",
          "type": "address"
        },
        {
          "indexed": false,
          "internalType": "address",
          "name": "collateralPool",
          "type": "address"
        },
        {
          "indexed": false,
          "internalType": "string",
          "name": "underlyingAddress",
          "type": "string"
        },
        {
          "indexed": false,
          "internalType": "address",
          "name": "vaultCollateralToken",
          "type": "address"
        },
        {
          "indexed": false,
          "internalType": "uint256",
          "name": "feeBIPS",
          "type": "uint256"
        },
        {
          "indexed": false,
          "internalType": "uint256",
          "name": "poolFeeShareBIPS",
          "type": "uint256"
        },
        {
          "indexed": false,
          "internalType": "uint256",
          "name": "mintingVaultCollateralRatioBIPS",
          "type": "uint256"
        },
        {
          "indexed": false,
          "internalType": "uint256",
          "name": "mintingPoolCollateralRatioBIPS",
          "type": "uint256"
        },
        {
          "indexed": false,
          "internalType": "uint256",
          "name": "buyFAssetByAgentFactorBIPS",
          "type": "uint256"
        },
        {
          "indexed": false,
          "internalType": "uint256",
          "name": "poolExitCollateralRatioBIPS",
          "type": "uint256"
        },
        {
          "indexed": false,
          "internalType": "uint256",
          "name": "poolTopupCollateralRatioBIPS",
          "type": "uint256"
        },
        {
          "indexed": false,
          "internalType": "uint256",
          "name": "poolTopupTokenPriceFactorBIPS",
          "type": "uint256"
        }
      ],
      "name": "AgentVaultCreated",
      "type": "event"
    },
    {
      "anonymous": false,
      "inputs": [
        {
          "indexed": true,
          "internalType": "address",
          "name": "agentVault",
          "type": "address"
        },
        {
          "indexed": false,
          "internalType": "uint256",
          "name": "exitAllowedAt",
          "type": "uint256"
        }
      ],
      "name": "AvailableAgentExitAnnounced",
      "type": "event"
    },
    {
      "anonymous": false,
      "inputs": [
        {
          "indexed": true,
          "internalType": "address",
          "name": "agentVault",
          "type": "address"
        }
      ],
      "name": "AvailableAgentExited",
      "type": "event"
    },
    {
      "anonymous": false,
      "inputs": [
        {
          "indexed": false,
          "internalType": "uint8",
          "name": "collateralClass",
          "type": "uint8"
        },
        {
          "indexed": false,
          "internalType": "address",
          "name": "collateralToken",
          "type": "address"
        },
        {
          "indexed": false,
          "internalType": "uint256",
          "name": "minCollateralRatioBIPS",
          "type": "uint256"
        },
        {
          "indexed": false,
          "internalType": "uint256",
          "name": "ccbMinCollateralRatioBIPS",
          "type": "uint256"
        },
        {
          "indexed": false,
          "internalType": "uint256",
          "name": "safetyMinCollateralRatioBIPS",
          "type": "uint256"
        }
      ],
      "name": "CollateralRatiosChanged",
      "type": "event"
    },
    {
      "anonymous": false,
      "inputs": [
        {
          "indexed": true,
          "internalType": "address",
          "name": "agentVault",
          "type": "address"
        },
        {
          "indexed": true,
          "internalType": "address",
          "name": "minter",
          "type": "address"
        },
        {
          "indexed": false,
          "internalType": "uint256",
          "name": "collateralReservationId",
          "type": "uint256"
        },
        {
          "indexed": false,
          "internalType": "uint256",
          "name": "reservedAmountUBA",
          "type": "uint256"
        }
      ],
      "name": "CollateralReservationDeleted",
      "type": "event"
    },
    {
      "anonymous": false,
      "inputs": [
        {
          "indexed": true,
          "internalType": "address",
          "name": "agentVault",
          "type": "address"
        },
        {
          "indexed": true,
          "internalType": "address",
          "name": "minter",
          "type": "address"
        },
        {
          "indexed": false,
          "internalType": "uint256",
          "name": "collateralReservationId",
          "type": "uint256"
        },
        {
          "indexed": false,
          "internalType": "uint256",
          "name": "valueUBA",
          "type": "uint256"
        },
        {
          "indexed": false,
          "internalType": "uint256",
          "name": "feeUBA",
          "type": "uint256"
        },
        {
          "indexed": false,
          "internalType": "uint256",
          "name": "firstUnderlyingBlock",
          "type": "uint256"
        },
        {
          "indexed": false,
          "internalType": "uint256",
          "name": "lastUnderlyingBlock",
          "type": "uint256"
        },
        {
          "indexed": false,
          "internalType": "uint256",
          "name": "lastUnderlyingTimestamp",
          "type": "uint256"
        },
        {
          "indexed": false,
          "internalType": "string",
          "name": "paymentAddress",
          "type": "string"
        },
        {
          "indexed": false,
          "internalType": "bytes32",
          "name": "paymentReference",
          "type": "bytes32"
        }
      ],
      "name": "CollateralReserved",
      "type": "event"
    },
    {
      "anonymous": false,
      "inputs": [
        {
          "indexed": false,
          "internalType": "uint8",
          "name": "collateralClass",
          "type": "uint8"
        },
        {
          "indexed": false,
          "internalType": "address",
          "name": "token",
          "type": "address"
        },
        {
          "indexed": false,
          "internalType": "uint256",
          "name": "decimals",
          "type": "uint256"
        },
        {
          "indexed": false,
          "internalType": "bool",
          "name": "directPricePair",
          "type": "bool"
        },
        {
          "indexed": false,
          "internalType": "string",
          "name": "assetFtsoSymbol",
          "type": "string"
        },
        {
          "indexed": false,
          "internalType": "string",
          "name": "tokenFtsoSymbol",
          "type": "string"
        },
        {
          "indexed": false,
          "internalType": "uint256",
          "name": "minCollateralRatioBIPS",
          "type": "uint256"
        },
        {
          "indexed": false,
          "internalType": "uint256",
          "name": "ccbMinCollateralRatioBIPS",
          "type": "uint256"
        },
        {
          "indexed": false,
          "internalType": "uint256",
          "name": "safetyMinCollateralRatioBIPS",
          "type": "uint256"
        }
      ],
      "name": "CollateralTypeAdded",
      "type": "event"
    },
    {
      "anonymous": false,
      "inputs": [
        {
          "indexed": false,
          "internalType": "uint8",
          "name": "collateralClass",
          "type": "uint8"
        },
        {
          "indexed": false,
          "internalType": "address",
          "name": "collateralToken",
          "type": "address"
        },
        {
          "indexed": false,
          "internalType": "uint256",
          "name": "validUntil",
          "type": "uint256"
        }
      ],
      "name": "CollateralTypeDeprecated",
      "type": "event"
    },
    {
      "anonymous": false,
      "inputs": [
        {
          "indexed": false,
          "internalType": "string",
          "name": "name",
          "type": "string"
        },
        {
          "indexed": false,
          "internalType": "address",
          "name": "value",
          "type": "address"
        }
      ],
      "name": "ContractChanged",
      "type": "event"
    },
    {
      "anonymous": false,
      "inputs": [
        {
          "indexed": true,
          "internalType": "address",
          "name": "agentVault",
          "type": "address"
        },
        {
          "indexed": false,
          "internalType": "bytes32",
          "name": "transactionHash1",
          "type": "bytes32"
        },
        {
          "indexed": false,
          "internalType": "bytes32",
          "name": "transactionHash2",
          "type": "bytes32"
        }
      ],
      "name": "DuplicatePaymentConfirmed",
      "type": "event"
    },
    {
      "anonymous": false,
      "inputs": [
        {
          "indexed": true,
          "internalType": "address",
          "name": "agentVault",
          "type": "address"
        },
        {
          "indexed": false,
          "internalType": "uint256",
          "name": "dustUBA",
          "type": "uint256"
        }
      ],
      "name": "DustChanged",
      "type": "event"
    },
    {
      "anonymous": false,
      "inputs": [
        {
          "indexed": true,
          "internalType": "address",
          "name": "agentVault",
          "type": "address"
        },
        {
          "indexed": false,
          "internalType": "uint256",
          "name": "redemptionTicketId",
          "type": "uint256"
        },
        {
          "indexed": false,
          "internalType": "uint256",
          "name": "valueUBA",
          "type": "uint256"
        }
      ],
      "name": "DustConvertedToTicket",
      "type": "event"
    },
    {
      "anonymous": false,
      "inputs": [
        {
          "indexed": true,
          "internalType": "address",
          "name": "agentVault",
          "type": "address"
        },
        {
          "indexed": false,
          "internalType": "uint256",
          "name": "timestamp",
          "type": "uint256"
        }
      ],
      "name": "FullLiquidationStarted",
      "type": "event"
    },
    {
      "anonymous": false,
      "inputs": [
        {
          "indexed": false,
          "internalType": "bytes4",
          "name": "selector",
          "type": "bytes4"
        },
        {
          "indexed": false,
          "internalType": "uint256",
          "name": "allowedAfterTimestamp",
          "type": "uint256"
        },
        {
          "indexed": false,
          "internalType": "bytes",
          "name": "encodedCall",
          "type": "bytes"
        }
      ],
      "name": "GovernanceCallTimelocked",
      "type": "event"
    },
    {
      "anonymous": false,
      "inputs": [
        {
          "indexed": false,
          "internalType": "address",
          "name": "initialGovernance",
          "type": "address"
        }
      ],
      "name": "GovernanceInitialised",
      "type": "event"
    },
    {
      "anonymous": false,
      "inputs": [
        {
          "indexed": false,
          "internalType": "address",
          "name": "governanceSettings",
          "type": "address"
        }
      ],
      "name": "GovernedProductionModeEntered",
      "type": "event"
    },
    {
      "anonymous": false,
      "inputs": [
        {
          "indexed": true,
          "internalType": "address",
          "name": "agentVault",
          "type": "address"
        },
        {
          "indexed": false,
          "internalType": "bytes32",
          "name": "transactionHash",
          "type": "bytes32"
        }
      ],
      "name": "IllegalPaymentConfirmed",
      "type": "event"
    },
    {
      "anonymous": false,
      "inputs": [
        {
          "indexed": true,
          "internalType": "address",
          "name": "agentVault",
          "type": "address"
        }
      ],
      "name": "LiquidationEnded",
      "type": "event"
    },
    {
      "anonymous": false,
      "inputs": [
        {
          "indexed": true,
          "internalType": "address",
          "name": "agentVault",
          "type": "address"
        },
        {
          "indexed": true,
          "internalType": "address",
          "name": "liquidator",
          "type": "address"
        },
        {
          "indexed": false,
          "internalType": "uint256",
          "name": "valueUBA",
          "type": "uint256"
        }
      ],
      "name": "LiquidationPerformed",
      "type": "event"
    },
    {
      "anonymous": false,
      "inputs": [
        {
          "indexed": true,
          "internalType": "address",
          "name": "agentVault",
          "type": "address"
        },
        {
          "indexed": false,
          "internalType": "uint256",
          "name": "timestamp",
          "type": "uint256"
        }
      ],
      "name": "LiquidationStarted",
      "type": "event"
    },
    {
      "anonymous": false,
      "inputs": [
        {
          "indexed": true,
          "internalType": "address",
          "name": "agentVault",
          "type": "address"
        },
        {
          "indexed": false,
          "internalType": "uint256",
          "name": "collateralReservationId",
          "type": "uint256"
        },
        {
          "indexed": false,
          "internalType": "uint256",
          "name": "redemptionTicketId",
          "type": "uint256"
        },
        {
          "indexed": false,
          "internalType": "uint256",
          "name": "mintedAmountUBA",
          "type": "uint256"
        },
        {
          "indexed": false,
          "internalType": "uint256",
          "name": "agentFeeUBA",
          "type": "uint256"
        },
        {
          "indexed": false,
          "internalType": "uint256",
          "name": "poolFeeUBA",
          "type": "uint256"
        }
      ],
      "name": "MintingExecuted",
      "type": "event"
    },
    {
      "anonymous": false,
      "inputs": [
        {
          "indexed": true,
          "internalType": "address",
          "name": "agentVault",
          "type": "address"
        },
        {
          "indexed": true,
          "internalType": "address",
          "name": "minter",
          "type": "address"
        },
        {
          "indexed": false,
          "internalType": "uint256",
          "name": "collateralReservationId",
          "type": "uint256"
        },
        {
          "indexed": false,
          "internalType": "uint256",
          "name": "reservedAmountUBA",
          "type": "uint256"
        }
      ],
      "name": "MintingPaymentDefault",
      "type": "event"
    },
    {
      "anonymous": false,
      "inputs": [
        {
          "indexed": true,
          "internalType": "address",
          "name": "agentVault",
          "type": "address"
        },
        {
          "indexed": false,
          "internalType": "uint256",
          "name": "amountWei",
          "type": "uint256"
        },
        {
          "indexed": false,
          "internalType": "uint256",
          "name": "withdrawalAllowedAt",
          "type": "uint256"
        }
      ],
      "name": "PoolTokenRedemptionAnnounced",
      "type": "event"
    },
    {
      "anonymous": false,
      "inputs": [
        {
          "indexed": true,
          "internalType": "address",
          "name": "agentVault",
          "type": "address"
        },
        {
          "indexed": true,
          "internalType": "address",
          "name": "redeemer",
          "type": "address"
        },
        {
          "indexed": false,
          "internalType": "uint256",
          "name": "redemptionAmountUBA",
          "type": "uint256"
        },
        {
          "indexed": false,
          "internalType": "uint256",
          "name": "paidVaultCollateralWei",
          "type": "uint256"
        }
      ],
      "name": "RedeemedInCollateral",
      "type": "event"
    },
    {
      "anonymous": false,
      "inputs": [
        {
          "indexed": true,
          "internalType": "address",
          "name": "agentVault",
          "type": "address"
        },
        {
          "indexed": true,
          "internalType": "address",
          "name": "redeemer",
          "type": "address"
        },
        {
          "indexed": false,
          "internalType": "uint256",
          "name": "redemptionAmountUBA",
          "type": "uint256"
        },
        {
          "indexed": false,
          "internalType": "uint256",
          "name": "redeemedVaultCollateralWei",
          "type": "uint256"
        },
        {
          "indexed": false,
          "internalType": "uint256",
          "name": "redeemedPoolCollateralWei",
          "type": "uint256"
        },
        {
          "indexed": false,
          "internalType": "uint64",
          "name": "requestId",
          "type": "uint64"
        }
      ],
      "name": "RedemptionDefault",
      "type": "event"
    },
    {
      "anonymous": false,
      "inputs": [
        {
          "indexed": true,
          "internalType": "address",
          "name": "agentVault",
          "type": "address"
        },
        {
          "indexed": true,
          "internalType": "address",
          "name": "redeemer",
          "type": "address"
        },
        {
          "indexed": false,
          "internalType": "bytes32",
          "name": "transactionHash",
          "type": "bytes32"
        },
        {
          "indexed": false,
          "internalType": "uint256",
          "name": "redemptionAmountUBA",
          "type": "uint256"
        },
        {
          "indexed": false,
          "internalType": "int256",
          "name": "spentUnderlyingUBA",
          "type": "int256"
        },
        {
          "indexed": false,
          "internalType": "uint64",
          "name": "requestId",
          "type": "uint64"
        }
      ],
      "name": "RedemptionPaymentBlocked",
      "type": "event"
    },
    {
      "anonymous": false,
      "inputs": [
        {
          "indexed": true,
          "internalType": "address",
          "name": "agentVault",
          "type": "address"
        },
        {
          "indexed": true,
          "internalType": "address",
          "name": "redeemer",
          "type": "address"
        },
        {
          "indexed": false,
          "internalType": "bytes32",
          "name": "transactionHash",
          "type": "bytes32"
        },
        {
          "indexed": false,
          "internalType": "int256",
          "name": "spentUnderlyingUBA",
          "type": "int256"
        },
        {
          "indexed": false,
          "internalType": "uint64",
          "name": "requestId",
          "type": "uint64"
        },
        {
          "indexed": false,
          "internalType": "string",
          "name": "failureReason",
          "type": "string"
        }
      ],
      "name": "RedemptionPaymentFailed",
      "type": "event"
    },
    {
      "anonymous": false,
      "inputs": [
        {
          "indexed": true,
          "internalType": "address",
          "name": "agentVault",
          "type": "address"
        },
        {
          "indexed": true,
          "internalType": "address",
          "name": "redeemer",
          "type": "address"
        },
        {
          "indexed": false,
          "internalType": "bytes32",
          "name": "transactionHash",
          "type": "bytes32"
        },
        {
          "indexed": false,
          "internalType": "uint256",
          "name": "redemptionAmountUBA",
          "type": "uint256"
        },
        {
          "indexed": false,
          "internalType": "int256",
          "name": "spentUnderlyingUBA",
          "type": "int256"
        },
        {
          "indexed": false,
          "internalType": "uint64",
          "name": "requestId",
          "type": "uint64"
        }
      ],
      "name": "RedemptionPerformed",
      "type": "event"
    },
    {
      "anonymous": false,
      "inputs": [
        {
          "indexed": true,
          "internalType": "address",
          "name": "redeemer",
          "type": "address"
        },
        {
          "indexed": false,
          "internalType": "uint256",
          "name": "remainingLots",
          "type": "uint256"
        }
      ],
      "name": "RedemptionRequestIncomplete",
      "type": "event"
    },
    {
      "anonymous": false,
      "inputs": [
        {
          "indexed": true,
          "internalType": "address",
          "name": "agentVault",
          "type": "address"
        },
        {
          "indexed": true,
          "internalType": "address",
          "name": "redeemer",
          "type": "address"
        },
        {
          "indexed": false,
          "internalType": "uint256",
          "name": "requestId",
          "type": "uint256"
        },
        {
          "indexed": false,
          "internalType": "string",
          "name": "paymentAddress",
          "type": "string"
        },
        {
          "indexed": false,
          "internalType": "uint256",
          "name": "valueUBA",
          "type": "uint256"
        },
        {
          "indexed": false,
          "internalType": "uint256",
          "name": "feeUBA",
          "type": "uint256"
        },
        {
          "indexed": false,
          "internalType": "uint256",
          "name": "firstUnderlyingBlock",
          "type": "uint256"
        },
        {
          "indexed": false,
          "internalType": "uint256",
          "name": "lastUnderlyingBlock",
          "type": "uint256"
        },
        {
          "indexed": false,
          "internalType": "uint256",
          "name": "lastUnderlyingTimestamp",
          "type": "uint256"
        },
        {
          "indexed": false,
          "internalType": "bytes32",
          "name": "paymentReference",
          "type": "bytes32"
        }
      ],
      "name": "RedemptionRequested",
      "type": "event"
    },
    {
      "anonymous": false,
      "inputs": [
        {
          "indexed": true,
          "internalType": "address",
          "name": "agentVault",
          "type": "address"
        },
        {
          "indexed": false,
          "internalType": "uint256",
          "name": "valueUBA",
          "type": "uint256"
        }
      ],
      "name": "SelfClose",
      "type": "event"
    },
    {
      "anonymous": false,
      "inputs": [
        {
          "indexed": false,
          "internalType": "string",
          "name": "name",
          "type": "string"
        },
        {
          "indexed": false,
          "internalType": "uint256[]",
          "name": "value",
          "type": "uint256[]"
        }
      ],
      "name": "SettingArrayChanged",
      "type": "event"
    },
    {
      "anonymous": false,
      "inputs": [
        {
          "indexed": false,
          "internalType": "string",
          "name": "name",
          "type": "string"
        },
        {
          "indexed": false,
          "internalType": "uint256",
          "name": "value",
          "type": "uint256"
        }
      ],
      "name": "SettingChanged",
      "type": "event"
    },
    {
      "anonymous": false,
      "inputs": [
        {
          "indexed": false,
          "internalType": "bytes4",
          "name": "selector",
          "type": "bytes4"
        },
        {
          "indexed": false,
          "internalType": "uint256",
          "name": "timestamp",
          "type": "uint256"
        }
      ],
      "name": "TimelockedGovernanceCallCanceled",
      "type": "event"
    },
    {
      "anonymous": false,
      "inputs": [
        {
          "indexed": false,
          "internalType": "bytes4",
          "name": "selector",
          "type": "bytes4"
        },
        {
          "indexed": false,
          "internalType": "uint256",
          "name": "timestamp",
          "type": "uint256"
        }
      ],
      "name": "TimelockedGovernanceCallExecuted",
      "type": "event"
    },
    {
      "anonymous": false,
      "inputs": [
        {
          "indexed": true,
          "internalType": "address",
          "name": "agentVault",
          "type": "address"
        },
        {
          "indexed": false,
          "internalType": "int256",
          "name": "underlyingBalanceUBA",
          "type": "int256"
        }
      ],
      "name": "UnderlyingBalanceChanged",
      "type": "event"
    },
    {
      "anonymous": false,
      "inputs": [
        {
          "indexed": true,
          "internalType": "address",
          "name": "agentVault",
          "type": "address"
        },
        {
          "indexed": false,
          "internalType": "int256",
          "name": "balance",
          "type": "int256"
        },
        {
          "indexed": false,
          "internalType": "uint256",
          "name": "requiredBalance",
          "type": "uint256"
        }
      ],
      "name": "UnderlyingBalanceTooLow",
      "type": "event"
    },
    {
      "anonymous": false,
      "inputs": [
        {
          "indexed": true,
          "internalType": "address",
          "name": "agentVault",
          "type": "address"
        },
        {
          "indexed": false,
          "internalType": "bytes32",
          "name": "transactionHash",
          "type": "bytes32"
        },
        {
          "indexed": false,
          "internalType": "uint256",
          "name": "depositedUBA",
          "type": "uint256"
        }
      ],
      "name": "UnderlyingBalanceToppedUp",
      "type": "event"
    },
    {
      "anonymous": false,
      "inputs": [
        {
          "indexed": true,
          "internalType": "address",
          "name": "agentVault",
          "type": "address"
        },
        {
          "indexed": false,
          "internalType": "uint64",
          "name": "announcementId",
          "type": "uint64"
        },
        {
          "indexed": false,
          "internalType": "bytes32",
          "name": "paymentReference",
          "type": "bytes32"
        }
      ],
      "name": "UnderlyingWithdrawalAnnounced",
      "type": "event"
    },
    {
      "anonymous": false,
      "inputs": [
        {
          "indexed": true,
          "internalType": "address",
          "name": "agentVault",
          "type": "address"
        },
        {
          "indexed": false,
          "internalType": "uint64",
          "name": "announcementId",
          "type": "uint64"
        }
      ],
      "name": "UnderlyingWithdrawalCancelled",
      "type": "event"
    },
    {
      "anonymous": false,
      "inputs": [
        {
          "indexed": true,
          "internalType": "address",
          "name": "agentVault",
          "type": "address"
        },
        {
          "indexed": false,
          "internalType": "int256",
          "name": "spentUBA",
          "type": "int256"
        },
        {
          "indexed": false,
          "internalType": "bytes32",
          "name": "transactionHash",
          "type": "bytes32"
        },
        {
          "indexed": false,
          "internalType": "uint64",
          "name": "announcementId",
          "type": "uint64"
        }
      ],
      "name": "UnderlyingWithdrawalConfirmed",
      "type": "event"
    },
    {
      "anonymous": false,
      "inputs": [
        {
          "indexed": true,
          "internalType": "address",
          "name": "agentVault",
          "type": "address"
        },
        {
          "indexed": false,
          "internalType": "uint256",
          "name": "amountWei",
          "type": "uint256"
        },
        {
          "indexed": false,
          "internalType": "uint256",
          "name": "withdrawalAllowedAt",
          "type": "uint256"
        }
      ],
      "name": "VaultCollateralWithdrawalAnnounced",
      "type": "event"
    },
    {
      "inputs": [
        {
          "internalType": "contract IIAssetManager",
          "name": "_assetManager",
          "type": "address"
        }
      ],
      "name": "addAssetManager",
      "outputs": [],
      "stateMutability": "nonpayable",
      "type": "function"
    },
    {
      "inputs": [
        {
          "internalType": "contract IIAssetManager[]",
          "name": "_assetManagers",
          "type": "address[]"
        },
        {
          "components": [
            {
              "internalType": "enum CollateralType.Class",
              "name": "collateralClass",
              "type": "uint8"
            },
            {
              "internalType": "contract IERC20",
              "name": "token",
              "type": "address"
            },
            {
              "internalType": "uint256",
              "name": "decimals",
              "type": "uint256"
            },
            {
              "internalType": "uint256",
              "name": "validUntil",
              "type": "uint256"
            },
            {
              "internalType": "bool",
              "name": "directPricePair",
              "type": "bool"
            },
            {
              "internalType": "string",
              "name": "assetFtsoSymbol",
              "type": "string"
            },
            {
              "internalType": "string",
              "name": "tokenFtsoSymbol",
              "type": "string"
            },
            {
              "internalType": "uint256",
              "name": "minCollateralRatioBIPS",
              "type": "uint256"
            },
            {
              "internalType": "uint256",
              "name": "ccbMinCollateralRatioBIPS",
              "type": "uint256"
            },
            {
              "internalType": "uint256",
              "name": "safetyMinCollateralRatioBIPS",
              "type": "uint256"
            }
          ],
          "internalType": "struct CollateralType.Data",
          "name": "_data",
          "type": "tuple"
        }
      ],
      "name": "addCollateralType",
      "outputs": [],
      "stateMutability": "nonpayable",
      "type": "function"
    },
    {
      "inputs": [
        {
          "internalType": "address",
          "name": "_assetManager",
          "type": "address"
        }
      ],
      "name": "assetManagerExists",
      "outputs": [
        {
          "internalType": "bool",
          "name": "",
          "type": "bool"
        }
      ],
      "stateMutability": "view",
      "type": "function"
    },
    {
      "inputs": [
        {
          "internalType": "bytes4",
          "name": "_selector",
          "type": "bytes4"
        }
      ],
      "name": "cancelGovernanceCall",
      "outputs": [],
      "stateMutability": "nonpayable",
      "type": "function"
    },
    {
      "inputs": [
        {
          "internalType": "contract IIAssetManager[]",
          "name": "_assetManagers",
          "type": "address[]"
        },
        {
          "internalType": "enum CollateralType.Class",
          "name": "_class",
          "type": "uint8"
        },
        {
          "internalType": "contract IERC20",
          "name": "_token",
          "type": "address"
        },
        {
          "internalType": "uint256",
          "name": "_invalidationTimeSec",
          "type": "uint256"
        }
      ],
      "name": "deprecateCollateralType",
      "outputs": [],
      "stateMutability": "nonpayable",
      "type": "function"
    },
    {
      "inputs": [
        {
          "internalType": "bytes4",
          "name": "_selector",
          "type": "bytes4"
        }
      ],
      "name": "executeGovernanceCall",
      "outputs": [],
      "stateMutability": "nonpayable",
      "type": "function"
    },
    {
      "inputs": [],
      "name": "getAddressUpdater",
      "outputs": [
        {
          "internalType": "address",
          "name": "_addressUpdater",
          "type": "address"
        }
      ],
      "stateMutability": "view",
      "type": "function"
    },
    {
      "inputs": [],
      "name": "getAssetManagers",
      "outputs": [
        {
          "internalType": "contract IIAssetManager[]",
          "name": "",
          "type": "address[]"
        }
      ],
      "stateMutability": "view",
      "type": "function"
    },
    {
      "inputs": [],
      "name": "governance",
      "outputs": [
        {
          "internalType": "address",
          "name": "",
          "type": "address"
        }
      ],
      "stateMutability": "view",
      "type": "function"
    },
    {
      "inputs": [],
      "name": "governanceSettings",
      "outputs": [
        {
          "internalType": "contract IGovernanceSettings",
          "name": "",
          "type": "address"
        }
      ],
      "stateMutability": "view",
      "type": "function"
    },
    {
      "inputs": [
        {
          "internalType": "contract IGovernanceSettings",
          "name": "_governanceSettings",
          "type": "address"
        },
        {
          "internalType": "address",
          "name": "_initialGovernance",
          "type": "address"
        }
      ],
      "name": "initialise",
      "outputs": [],
      "stateMutability": "nonpayable",
      "type": "function"
    },
    {
      "inputs": [
        {
          "internalType": "address",
          "name": "_address",
          "type": "address"
        }
      ],
      "name": "isExecutor",
      "outputs": [
        {
          "internalType": "bool",
          "name": "",
          "type": "bool"
        }
      ],
      "stateMutability": "view",
      "type": "function"
    },
    {
      "inputs": [
        {
          "internalType": "contract IIAssetManager[]",
          "name": "_assetManagers",
          "type": "address[]"
        }
      ],
      "name": "pause",
      "outputs": [],
      "stateMutability": "nonpayable",
      "type": "function"
    },
    {
      "inputs": [],
      "name": "productionMode",
      "outputs": [
        {
          "internalType": "bool",
          "name": "",
          "type": "bool"
        }
      ],
      "stateMutability": "view",
      "type": "function"
    },
    {
      "inputs": [
        {
          "internalType": "contract IIAssetManager",
          "name": "_assetManager",
          "type": "address"
        }
      ],
      "name": "removeAssetManager",
      "outputs": [],
      "stateMutability": "nonpayable",
      "type": "function"
    },
    {
      "inputs": [],
      "name": "replacedBy",
      "outputs": [
        {
          "internalType": "address",
          "name": "",
          "type": "address"
        }
      ],
      "stateMutability": "view",
      "type": "function"
    },
    {
      "inputs": [
        {
          "internalType": "contract IIAssetManager[]",
          "name": "_assetManagers",
          "type": "address[]"
        },
        {
          "internalType": "uint256",
          "name": "_value",
          "type": "uint256"
        }
      ],
      "name": "setAgentCollateralRatioChangeTimelockSeconds",
      "outputs": [],
      "stateMutability": "nonpayable",
      "type": "function"
    },
    {
      "inputs": [
        {
          "internalType": "contract IIAssetManager[]",
          "name": "_assetManagers",
          "type": "address[]"
        },
        {
          "internalType": "uint256",
          "name": "_value",
          "type": "uint256"
        }
      ],
      "name": "setAgentExitAvailableTimelockSeconds",
      "outputs": [],
      "stateMutability": "nonpayable",
      "type": "function"
    },
    {
      "inputs": [
        {
          "internalType": "contract IIAssetManager[]",
          "name": "_assetManagers",
          "type": "address[]"
        },
        {
          "internalType": "uint256",
          "name": "_value",
          "type": "uint256"
        }
      ],
      "name": "setAgentFeeChangeTimelockSeconds",
      "outputs": [],
      "stateMutability": "nonpayable",
      "type": "function"
    },
    {
      "inputs": [
        {
          "internalType": "contract IIAssetManager[]",
          "name": "_assetManagers",
          "type": "address[]"
        },
        {
          "internalType": "uint256",
          "name": "_value",
          "type": "uint256"
        }
      ],
      "name": "setAgentTimelockedOperationWindowSeconds",
      "outputs": [],
      "stateMutability": "nonpayable",
      "type": "function"
    },
    {
      "inputs": [
        {
          "internalType": "contract IIAssetManager[]",
          "name": "_assetManagers",
          "type": "address[]"
        },
        {
          "internalType": "address",
          "name": "_value",
          "type": "address"
        }
      ],
      "name": "setAgentVaultFactory",
      "outputs": [],
      "stateMutability": "nonpayable",
      "type": "function"
    },
    {
      "inputs": [
        {
          "internalType": "contract IIAssetManager[]",
          "name": "_assetManagers",
          "type": "address[]"
        },
        {
          "internalType": "address",
          "name": "_value",
          "type": "address"
        }
      ],
      "name": "setAgentWhitelist",
      "outputs": [],
      "stateMutability": "nonpayable",
      "type": "function"
    },
    {
      "inputs": [
        {
          "internalType": "contract IIAssetManager[]",
          "name": "_assetManagers",
          "type": "address[]"
        },
        {
          "internalType": "uint256",
          "name": "_value",
          "type": "uint256"
        }
      ],
      "name": "setAnnouncedUnderlyingConfirmationMinSeconds",
      "outputs": [],
      "stateMutability": "nonpayable",
      "type": "function"
    },
    {
      "inputs": [
        {
          "internalType": "contract IIAssetManager[]",
          "name": "_assetManagers",
          "type": "address[]"
        },
        {
          "internalType": "uint256",
          "name": "_value",
          "type": "uint256"
        }
      ],
      "name": "setAttestationWindowSeconds",
      "outputs": [],
      "stateMutability": "nonpayable",
      "type": "function"
    },
    {
      "inputs": [
        {
          "internalType": "contract IIAssetManager[]",
          "name": "_assetManagers",
          "type": "address[]"
        },
        {
          "internalType": "uint256",
          "name": "_value",
          "type": "uint256"
        }
      ],
      "name": "setAverageBlockTimeMS",
      "outputs": [],
      "stateMutability": "nonpayable",
      "type": "function"
    },
    {
      "inputs": [
        {
          "internalType": "contract IIAssetManager[]",
          "name": "_assetManagers",
          "type": "address[]"
        },
        {
          "internalType": "uint256",
          "name": "_value",
          "type": "uint256"
        }
      ],
      "name": "setCcbTimeSeconds",
      "outputs": [],
      "stateMutability": "nonpayable",
      "type": "function"
    },
    {
      "inputs": [
        {
          "internalType": "contract IIAssetManager[]",
          "name": "_assetManagers",
          "type": "address[]"
        },
        {
          "internalType": "address",
          "name": "_value",
          "type": "address"
        }
      ],
      "name": "setCollateralPoolFactory",
      "outputs": [],
      "stateMutability": "nonpayable",
      "type": "function"
    },
    {
      "inputs": [
        {
          "internalType": "contract IIAssetManager[]",
          "name": "_assetManagers",
          "type": "address[]"
        },
        {
          "internalType": "address",
          "name": "_value",
          "type": "address"
        }
      ],
      "name": "setCollateralPoolTokenFactory",
      "outputs": [],
      "stateMutability": "nonpayable",
      "type": "function"
    },
    {
      "inputs": [
        {
          "internalType": "contract IIAssetManager[]",
          "name": "_assetManagers",
          "type": "address[]"
        },
        {
          "internalType": "enum CollateralType.Class",
          "name": "_class",
          "type": "uint8"
        },
        {
          "internalType": "contract IERC20",
          "name": "_token",
          "type": "address"
        },
        {
          "internalType": "uint256",
          "name": "_minCollateralRatioBIPS",
          "type": "uint256"
        },
        {
          "internalType": "uint256",
          "name": "_ccbMinCollateralRatioBIPS",
          "type": "uint256"
        },
        {
          "internalType": "uint256",
          "name": "_safetyMinCollateralRatioBIPS",
          "type": "uint256"
        }
      ],
      "name": "setCollateralRatiosForToken",
      "outputs": [],
      "stateMutability": "nonpayable",
      "type": "function"
    },
    {
      "inputs": [
        {
          "internalType": "contract IIAssetManager[]",
          "name": "_assetManagers",
          "type": "address[]"
        },
        {
          "internalType": "uint256",
          "name": "_value",
          "type": "uint256"
        }
      ],
      "name": "setCollateralReservationFeeBips",
      "outputs": [],
      "stateMutability": "nonpayable",
      "type": "function"
    },
    {
      "inputs": [
        {
          "internalType": "contract IIAssetManager[]",
          "name": "_assetManagers",
          "type": "address[]"
        },
        {
          "internalType": "uint256",
          "name": "_value",
          "type": "uint256"
        }
      ],
      "name": "setConfirmationByOthersAfterSeconds",
      "outputs": [],
      "stateMutability": "nonpayable",
      "type": "function"
    },
    {
      "inputs": [
        {
          "internalType": "contract IIAssetManager[]",
          "name": "_assetManagers",
          "type": "address[]"
        },
        {
          "internalType": "uint256",
          "name": "_value",
          "type": "uint256"
        }
      ],
      "name": "setConfirmationByOthersRewardUSD5",
      "outputs": [],
      "stateMutability": "nonpayable",
      "type": "function"
    },
    {
      "inputs": [
        {
          "internalType": "contract IIAssetManager[]",
          "name": "_assetManagers",
          "type": "address[]"
        },
        {
          "internalType": "address",
          "name": "_liquidationStrategy",
          "type": "address"
        },
        {
          "internalType": "bytes",
          "name": "_encodedInitialSettings",
          "type": "bytes"
        }
      ],
      "name": "setLiquidationStrategy",
      "outputs": [],
      "stateMutability": "nonpayable",
      "type": "function"
    },
    {
      "inputs": [
        {
          "internalType": "contract IIAssetManager[]",
          "name": "_assetManagers",
          "type": "address[]"
        },
        {
          "internalType": "uint256",
          "name": "_value",
          "type": "uint256"
        }
      ],
      "name": "setLotSizeAmg",
      "outputs": [],
      "stateMutability": "nonpayable",
      "type": "function"
    },
    {
      "inputs": [
        {
          "internalType": "contract IIAssetManager[]",
          "name": "_assetManagers",
          "type": "address[]"
        },
        {
          "internalType": "uint256",
          "name": "_value",
          "type": "uint256"
        }
      ],
      "name": "setMaxRedeemedTickets",
      "outputs": [],
      "stateMutability": "nonpayable",
      "type": "function"
    },
    {
      "inputs": [
        {
          "internalType": "contract IIAssetManager[]",
          "name": "_assetManagers",
          "type": "address[]"
        },
        {
          "internalType": "uint256",
          "name": "_value",
          "type": "uint256"
        }
      ],
      "name": "setMaxTrustedPriceAgeSeconds",
      "outputs": [],
      "stateMutability": "nonpayable",
      "type": "function"
    },
    {
      "inputs": [
        {
          "internalType": "contract IIAssetManager[]",
          "name": "_assetManagers",
          "type": "address[]"
        },
        {
          "internalType": "uint256",
          "name": "_value",
          "type": "uint256"
        }
      ],
      "name": "setMinUnderlyingBackingBips",
      "outputs": [],
      "stateMutability": "nonpayable",
      "type": "function"
    },
    {
      "inputs": [
        {
          "internalType": "contract IIAssetManager[]",
          "name": "_assetManagers",
          "type": "address[]"
        },
        {
          "internalType": "uint256",
          "name": "_value",
          "type": "uint256"
        }
      ],
      "name": "setMinUpdateRepeatTimeSeconds",
      "outputs": [],
      "stateMutability": "nonpayable",
      "type": "function"
    },
    {
      "inputs": [
        {
          "internalType": "contract IIAssetManager[]",
          "name": "_assetManagers",
          "type": "address[]"
        },
        {
          "internalType": "uint256",
          "name": "_value",
          "type": "uint256"
        }
      ],
      "name": "setMintingCapAmg",
      "outputs": [],
      "stateMutability": "nonpayable",
      "type": "function"
    },
    {
      "inputs": [
        {
          "internalType": "contract IIAssetManager[]",
          "name": "_assetManagers",
          "type": "address[]"
        },
        {
          "internalType": "uint256",
          "name": "_value",
          "type": "uint256"
        }
      ],
      "name": "setMintingPoolHoldingsRequiredBIPS",
      "outputs": [],
      "stateMutability": "nonpayable",
      "type": "function"
    },
    {
      "inputs": [
        {
          "internalType": "contract IIAssetManager[]",
          "name": "_assetManagers",
          "type": "address[]"
        },
        {
          "internalType": "uint256",
          "name": "_rewardVaultCollateralWei",
          "type": "uint256"
        },
        {
          "internalType": "uint256",
          "name": "_rewardBIPS",
          "type": "uint256"
        }
      ],
      "name": "setPaymentChallengeReward",
      "outputs": [],
      "stateMutability": "nonpayable",
      "type": "function"
    },
    {
      "inputs": [
        {
          "internalType": "contract IIAssetManager[]",
          "name": "_assetManagers",
          "type": "address[]"
        },
        {
          "internalType": "address",
          "name": "_value",
          "type": "address"
        }
      ],
      "name": "setPriceReader",
      "outputs": [],
      "stateMutability": "nonpayable",
      "type": "function"
    },
    {
      "inputs": [
        {
          "internalType": "contract IIAssetManager[]",
          "name": "_assetManagers",
          "type": "address[]"
        },
        {
          "internalType": "uint256",
          "name": "_vaultF",
          "type": "uint256"
        },
        {
          "internalType": "uint256",
          "name": "_poolF",
          "type": "uint256"
        }
      ],
      "name": "setRedemptionDefaultFactorBips",
      "outputs": [],
      "stateMutability": "nonpayable",
      "type": "function"
    },
    {
      "inputs": [
        {
          "internalType": "contract IIAssetManager[]",
          "name": "_assetManagers",
          "type": "address[]"
        },
        {
          "internalType": "uint256",
          "name": "_value",
          "type": "uint256"
        }
      ],
      "name": "setRedemptionFeeBips",
      "outputs": [],
      "stateMutability": "nonpayable",
      "type": "function"
    },
    {
      "inputs": [
        {
          "internalType": "contract IIAssetManager[]",
          "name": "_assetManagers",
          "type": "address[]"
        },
        {
          "internalType": "address",
          "name": "_value",
          "type": "address"
        }
      ],
      "name": "setSCProofVerifier",
      "outputs": [],
      "stateMutability": "nonpayable",
      "type": "function"
    },
    {
      "inputs": [
        {
          "internalType": "contract IIAssetManager[]",
          "name": "_assetManagers",
          "type": "address[]"
        },
        {
          "internalType": "uint256",
          "name": "_underlyingBlocks",
          "type": "uint256"
        },
        {
          "internalType": "uint256",
          "name": "_underlyingSeconds",
          "type": "uint256"
        }
      ],
      "name": "setTimeForPayment",
      "outputs": [],
      "stateMutability": "nonpayable",
      "type": "function"
    },
    {
      "inputs": [
        {
          "internalType": "contract IIAssetManager[]",
          "name": "_assetManagers",
          "type": "address[]"
        },
        {
          "internalType": "uint256",
          "name": "_value",
          "type": "uint256"
        }
      ],
      "name": "setTokenInvalidationTimeMinSeconds",
      "outputs": [],
      "stateMutability": "nonpayable",
      "type": "function"
    },
    {
      "inputs": [
        {
          "internalType": "contract IIAssetManager[]",
          "name": "_assetManagers",
          "type": "address[]"
        },
        {
          "internalType": "address",
          "name": "_value",
          "type": "address"
        }
      ],
      "name": "setUnderlyingAddressValidator",
      "outputs": [],
      "stateMutability": "nonpayable",
      "type": "function"
    },
    {
      "inputs": [
        {
          "internalType": "contract IIAssetManager[]",
          "name": "_assetManagers",
          "type": "address[]"
        },
        {
          "internalType": "uint256",
          "name": "_value",
          "type": "uint256"
        }
      ],
      "name": "setVaultCollateralBuyForFlareFactorBIPS",
      "outputs": [],
      "stateMutability": "nonpayable",
      "type": "function"
    },
    {
      "inputs": [
        {
          "internalType": "contract IIAssetManager[]",
          "name": "_assetManagers",
          "type": "address[]"
        },
        {
          "internalType": "address",
          "name": "_value",
          "type": "address"
        }
      ],
      "name": "setWhitelist",
      "outputs": [],
      "stateMutability": "nonpayable",
      "type": "function"
    },
    {
      "inputs": [
        {
          "internalType": "contract IIAssetManager[]",
          "name": "_assetManagers",
          "type": "address[]"
        },
        {
          "internalType": "uint256",
          "name": "_value",
          "type": "uint256"
        }
      ],
      "name": "setWithdrawalOrDestroyWaitMinSeconds",
      "outputs": [],
      "stateMutability": "nonpayable",
      "type": "function"
    },
    {
      "inputs": [
        {
          "internalType": "bytes4",
          "name": "_interfaceId",
          "type": "bytes4"
        }
      ],
      "name": "supportsInterface",
      "outputs": [
        {
          "internalType": "bool",
          "name": "",
          "type": "bool"
        }
      ],
      "stateMutability": "pure",
      "type": "function"
    },
    {
      "inputs": [],
      "name": "switchToProductionMode",
      "outputs": [],
      "stateMutability": "nonpayable",
      "type": "function"
    },
    {
      "inputs": [
        {
          "internalType": "contract IIAssetManager[]",
          "name": "_assetManagers",
          "type": "address[]"
        }
      ],
      "name": "terminate",
      "outputs": [],
      "stateMutability": "nonpayable",
      "type": "function"
    },
    {
      "inputs": [
        {
          "internalType": "bytes4",
          "name": "",
          "type": "bytes4"
        }
      ],
      "name": "timelockedCalls",
      "outputs": [
        {
          "internalType": "uint256",
          "name": "allowedAfterTimestamp",
          "type": "uint256"
        },
        {
          "internalType": "bytes",
          "name": "encodedCall",
          "type": "bytes"
        }
      ],
      "stateMutability": "view",
      "type": "function"
    },
    {
      "inputs": [
        {
          "internalType": "contract IIAssetManager[]",
          "name": "_assetManagers",
          "type": "address[]"
        }
      ],
      "name": "unpause",
      "outputs": [],
      "stateMutability": "nonpayable",
      "type": "function"
    },
    {
      "inputs": [
        {
          "internalType": "bytes32[]",
          "name": "_contractNameHashes",
          "type": "bytes32[]"
        },
        {
          "internalType": "address[]",
          "name": "_contractAddresses",
          "type": "address[]"
        }
      ],
      "name": "updateContractAddresses",
      "outputs": [],
      "stateMutability": "nonpayable",
      "type": "function"
    },
    {
      "inputs": [
        {
          "internalType": "contract IIAssetManager[]",
          "name": "_assetManagers",
          "type": "address[]"
        }
      ],
      "name": "updateContracts",
      "outputs": [],
      "stateMutability": "nonpayable",
      "type": "function"
    },
    {
      "inputs": [
        {
          "internalType": "contract IIAssetManager[]",
          "name": "_assetManagers",
          "type": "address[]"
        },
        {
          "internalType": "bytes",
          "name": "_encodedSettings",
          "type": "bytes"
        }
      ],
      "name": "updateLiquidationStrategySettings",
      "outputs": [],
      "stateMutability": "nonpayable",
      "type": "function"
    }
  ],
  "bytecode": "0x60806040523480156200001157600080fd5b5060405162003ca638038062003ca683398101604081905262000034916200020b565b80838362000043828262000079565b506200006f9050817f714f205b2abd25bef1d06a1af944e38c113fe6160375c4e1d6d5cf28848e771955565b505050506200025f565b600054600160a01b900460ff1615620000d95760405162461bcd60e51b815260206004820152601460248201527f696e697469616c6973656420213d2066616c736500000000000000000000000060448201526064015b60405180910390fd5b6001600160a01b038216620001315760405162461bcd60e51b815260206004820152601860248201527f676f7665726e616e63652073657474696e6773207a65726f00000000000000006044820152606401620000d0565b6001600160a01b0381166200017c5760405162461bcd60e51b815260206004820152601060248201526f5f676f7665726e616e6365207a65726f60801b6044820152606401620000d0565b600080546001600160a01b038481166001600160a81b031990921691909117600160a01b17909155600180549183166001600160a01b0319909216821790556040519081527f9789733827840833afc031fb2ef9ab6894271f77bad2085687cf4ae5c7bee4db9060200160405180910390a15050565b6001600160a01b03811681146200020857600080fd5b50565b6000806000606084860312156200022157600080fd5b83516200022e81620001f2565b60208501519093506200024181620001f2565b60408501519092506200025481620001f2565b809150509250925092565b613a37806200026f6000396000f3fe608060405234801561001057600080fd5b50600436106103995760003560e01c8063746d02ee116101e9578063b577fc761161010f578063d3521ed6116100ad578063ec8e31611161007c578063ec8e3161146107fe578063eddaf29314610811578063ef88bf1314610824578063f5a983831461083757600080fd5b8063d3521ed6146107b1578063debfda30146107c4578063dede95f1146107d7578063e17f212e146107ea57600080fd5b8063be46c73d116100e9578063be46c73d14610765578063ccfb791114610778578063d0c391b51461078b578063d13e499d1461079e57600080fd5b8063b577fc761461072a578063b87b82f01461073d578063bb6f41b31461075257600080fd5b8063987ea89911610187578063a82ee3d511610156578063a82ee3d5146106de578063aeb41555146106f1578063b00c0b7614610704578063b4c0a3331461071757600080fd5b8063987ea899146106925780639e1508a1146106a5578063a391dd9c146106b8578063a6a24e25146106cb57600080fd5b80637ad62f51116101c35780637ad62f511461062e5780637e3566fe146106595780638ca061d41461066c5780639755c6a71461067f57600080fd5b8063746d02ee146105e757806374e6310e146105fa578063758f07f21461061b57600080fd5b8063358bca77116102ce578063556d51181161026c5780635ff270791161023b5780635ff270791461059b57806362354e03146105ae5780636653d11e146105c157806367fc4029146105d457600080fd5b8063556d51181461055a5780635aa6e6751461056d5780635b5bad73146105755780635cce89ea1461058857600080fd5b806349ec14a8116102a857806349ec14a8146104f85780634a79bc9f1461050b578063512410601461051e5780635267a15d1461053157600080fd5b8063358bca77146104bf57806344944a9b146104d257806347956606146104e557600080fd5b8063207566711161033b5780632af713fc116103155780632af713fc146104735780632d5846da146104865780632d8ced181461049957806334dc3932146104ac57600080fd5b8063207566711461043a57806326a9055b1461044d5780632aedabe41461046057600080fd5b8063038214521161037757806303821452146103ee57806305a1790a146104015780630a15f57b146104145780630a3eb8741461042757600080fd5b80630117d9871461039e57806301ffc9a7146103b35780630207aff2146103db575b600080fd5b6103b16103ac366004612ef9565b61083f565b005b6103c66103c1366004612f3d565b6108c9565b60405190151581526020015b60405180910390f35b6103b16103e9366004612ef9565b610900565b6103b16103fc366004612f6e565b610940565b6103b161040f366004612fe2565b6109ec565b6103b161042236600461304d565b610a92565b6103b1610435366004612ef9565b610b02565b6103b1610448366004612ef9565b610b42565b6103b161045b366004612ef9565b610ba9565b6103b161046e366004612ef9565b610be9565b6103b161048136600461304d565b610c29565b6103b1610494366004612ef9565b610c99565b6103b16104a7366004613102565b610cd9565b6103b16104ba366004612ef9565b610d4b565b6103b16104cd366004613179565b610d8b565b6103b16104e0366004613196565b610fe7565b6103b16104f3366004612ef9565b611030565b6103b161050636600461304d565b611070565b6103b161051936600461304d565b6110e0565b6103b161052c366004612ef9565b611150565b6000805160206139e2833981519152545b6040516001600160a01b0390911681526020016103d2565b6103b1610568366004612ef9565b611190565b6105426111d0565b6103b1610583366004612f6e565b61126c565b6103b1610596366004612ef9565b6112f9565b6103b16105a9366004612f3d565b611339565b600054610542906001600160a01b031681565b6103b16105cf366004612ef9565b6115be565b6103b16105e2366004612f3d565b6115fe565b6103b16105f536600461304d565b6116da565b61060d610608366004612f3d565b61174a565b6040516103d2929190613233565b6103b1610629366004612ef9565b6117ef565b6103c661063c366004613179565b6001600160a01b0316600090815260046020526040902054151590565b6103b1610667366004612ef9565b61182f565b6103b161067a366004613273565b61186f565b6103b161068d366004612f6e565b611950565b6103b16106a0366004613179565b6119dd565b6103b16106b3366004612ef9565b611b52565b6103b16106c6366004613196565b611bb9565b6103b16106d936600461304d565b611c29565b6103b16106ec366004612ef9565b611c99565b6103b16106ff366004612ef9565b611cd9565b6103b1610712366004613352565b611d19565b6103b161072536600461340a565b611dd0565b600354610542906001600160a01b031681565b610745611e6d565b6040516103d29190613471565b6103b161076036600461304d565b611ecf565b6103b1610773366004612ef9565b611f3f565b6103b1610786366004612ef9565b611f7f565b6103b1610799366004612ef9565b611fe6565b6103b16107ac366004612f6e565b61204d565b6103b16107bf3660046134be565b6123d3565b6103c66107d2366004613179565b61242d565b6103b16107e5366004612ef9565b6124b0565b6000546103c690600160a81b900460ff1681565b6103b161080c36600461304d565b6124f0565b6103b161081f366004613196565b612560565b6103b1610832366004613517565b6125a9565b6103b161270f565b600054600160b01b900460ff16806108615750600054600160a81b900460ff16155b156108be5761086e6127d5565b6108ba827fe5cbaf9388ab04e6a84ccb4d318b7411cf3cba5c27c08ff531f6cc63bd9f3d15836040516020016108a691815260200190565b60405160208183030381529060405261280f565b5050565b6108ba60003661291e565b60006001600160e01b031982166301ffc9a760e01b14806108fa57506001600160e01b0319821663580605bb60e11b145b92915050565b610908612a6a565b6108ba827fd074339531c0c426f419e40c630fba3e9e49d8640b542935b487a324e3fa6476836040516020016108a691815260200190565b610948612a6a565b60005b818110156109e75761098283838381811061096857610968613545565b905060200201602081019061097d9190613179565b612ac4565b6001600160a01b0316633f4ba83a6040518163ffffffff1660e01b8152600401600060405180830381600087803b1580156109bc57600080fd5b505af11580156109d0573d6000803e3d6000fd5b5050505080806109df90613571565b91505061094b565b505050565b6109f4612a6a565b60005b82518110156109e757610a22838281518110610a1557610a15613545565b6020026020010151612ac4565b6001600160a01b031663eebbcd55836040518263ffffffff1660e01b8152600401610a4d919061363a565b600060405180830381600087803b158015610a6757600080fd5b505af1158015610a7b573d6000803e3d6000fd5b505050508080610a8a90613571565b9150506109f7565b600054600160b01b900460ff1680610ab45750600054600160a81b900460ff16155b156108be57610ac16127d5565b604080516001600160a01b03831660208201526108ba9184917fcdce216fbaf8c8bee089977160bdc219688d1abe6e3fb33445553b103748e42491016108a6565b610b0a612a6a565b6108ba827fdb8617d6427f99a93c9a0c29cea5de59ff5e46d6b670defb2621832b9ecf8e73836040516020016108a691815260200190565b600054600160b01b900460ff1680610b645750600054600160a81b900460ff16155b156108be57610b716127d5565b6108ba827faf5f2b98f83ec754c2468c6f795cd14e63ea828a68b271c17461d623661e8d0c836040516020016108a691815260200190565b610bb1612a6a565b6108ba827f77eef583b25f73c60677890790c00fbf5ab5dc5b952b567609eab319437bf2fe836040516020016108a691815260200190565b610bf1612a6a565b6108ba827f568ae58ed29d3123b07c83375be93831571baa4efa6eca219a665b6edcce3bd2836040516020016108a691815260200190565b600054600160b01b900460ff1680610c4b5750600054600160a81b900460ff16155b156108be57610c586127d5565b604080516001600160a01b03831660208201526108ba9184917fbe06971979bbc89a786ccfb7ab4127e6bab93518d7e34a3600219f74c02a912b91016108a6565b610ca1612a6a565b6108ba827fdd64bd048b711cc14ce05eb540d2dbb9001521d5365cdac63643f90be13128a7836040516020016108a691815260200190565b600054600160b01b900460ff1680610cfb5750600054600160a81b900460ff16155b15610d4057610d086127d5565b6109e7837f84afd878f1616875c56a72462a02c12689b2e62280ef7ba82a1027952f63e74a84846040516020016108a6929190613715565b6109e760003661291e565b610d53612a6a565b6108ba827f9db27f55d4910a7a49292d8345f039e6266f7dc44269477125dfdf9c0a20bda2836040516020016108a691815260200190565b600054600160b01b900460ff1680610dad5750600054600160a81b900460ff16155b15610fd957610dba6127d5565b6001600160a01b03811660009081526004602052604081205490819003610ddf575050565b6000610dec600183613739565b600554909150600090610e0190600190613739565b905080821015610ebb5760058181548110610e1e57610e1e613545565b600091825260209091200154600580546001600160a01b039092169184908110610e4a57610e4a613545565b600091825260209091200180546001600160a01b0319166001600160a01b0392909216919091179055610e7e82600161374c565b6004600060058581548110610e9557610e95613545565b60009182526020808320909101546001600160a01b031683528201929092526040019020555b6005805480610ecc57610ecc61375f565b60008281526020808220830160001990810180546001600160a01b03191690559092019092556001600160a01b0386168083526004808352604080852094909455835163f0c0b72560e01b815293513094929363f0c0b7259380840193919291908290030181865afa158015610f46573d6000803e3d6000fd5b505050506040513d601f19601f82011682018060405250810190610f6a9190613775565b6001600160a01b031603610fd35760405163b928b53360e01b8152600060048201526001600160a01b0385169063b928b53390602401600060405180830381600087803b158015610fba57600080fd5b505af1158015610fce573d6000803e3d6000fd5b505050505b50505050565b610fe460003661291e565b50565b610fef612a6a565b6109e7837f1529264fcbf2bf5cf598b2450b293923f6c0d9f9cdf587da5a1c31f05102bc0784846040516020016108a6929190918252602082015260400190565b611038612a6a565b6108ba827f47814c0626f9db4541c2626f398ce27bbf58b6f2fbe51e47c992fc40c99c2f14836040516020016108a691815260200190565b600054600160b01b900460ff16806110925750600054600160a81b900460ff16155b156108be5761109f6127d5565b604080516001600160a01b03831660208201526108ba9184917fe498d6b20ac12df7861da18738e06e613460e9e0b360c7231b4f06a1656f21b591016108a6565b600054600160b01b900460ff16806111025750600054600160a81b900460ff16155b156108be5761110f6127d5565b604080516001600160a01b03831660208201526108ba9184917f13d6a5e25fb62370430ae75c7288645ab675293a216337c6579449dae495ca0791016108a6565b611158612a6a565b6108ba827f5ac5c11e3be51a3b2f1c18cb30a2917c10f24fdee614a595d151c820e854756d836040516020016108a691815260200190565b611198612a6a565b6108ba827ff1d9867587e5cf029d516cd605c11c24de74467605b6f64eba8e727887e959b3836040516020016108a691815260200190565b60008054600160a81b900460ff166111f257506001546001600160a01b031690565b60008054906101000a90046001600160a01b03166001600160a01b031663732524946040518163ffffffff1660e01b8152600401602060405180830381865afa158015611243573d6000803e3d6000fd5b505050506040513d601f19601f820116820180604052508101906112679190613775565b905090565b611274612a6a565b60005b818110156109e75761129483838381811061096857610968613545565b6001600160a01b0316630c08bf886040518163ffffffff1660e01b8152600401600060405180830381600087803b1580156112ce57600080fd5b505af11580156112e2573d6000803e3d6000fd5b5050505080806112f190613571565b915050611277565b611301612a6a565b6108ba827f3dcb30c522b719e41e182cfd89e7280d805977d0b4c728429d018c8f53aa054e836040516020016108a691815260200190565b6113423361242d565b6113835760405162461bcd60e51b815260206004820152600d60248201526c37b7363c9032bc32b1baba37b960991b60448201526064015b60405180910390fd5b6001600160e01b03198116600090815260026020526040812080549091036113ed5760405162461bcd60e51b815260206004820152601a60248201527f74696d656c6f636b3a20696e76616c69642073656c6563746f72000000000000604482015260640161137a565b805442101561143e5760405162461bcd60e51b815260206004820152601960248201527f74696d656c6f636b3a206e6f7420616c6c6f7765642079657400000000000000604482015260640161137a565b600081600101805461144f90613792565b80601f016020809104026020016040519081016040528092919081815260200182805461147b90613792565b80156114c85780601f1061149d576101008083540402835291602001916114c8565b820191906000526020600020905b8154815290600101906020018083116114ab57829003601f168201915b505050506001600160e01b03198516600090815260026020526040812081815592935090506114fa6001830182612dbd565b50506000805460ff60b01b1916600160b01b178155604051309061151f9084906137cc565b6000604051808303816000865af19150503d806000811461155c576040519150601f19603f3d011682016040523d82523d6000602084013e611561565b606091505b50506000805460ff60b01b19169055604080516001600160e01b0319871681524260208201529192507fa7326b57fc9cfe267aaea5e7f0b01757154d265620a0585819416ee9ddd2c438910160405180910390a1610fd381612b2b565b6115c6612a6a565b6108ba827f03712cb5e2d1c5642f03b2a87dfdae4e27edc4d29f6947bd887a176be288906e836040516020016108a691815260200190565b611606612a6a565b6001600160e01b03198116600090815260026020526040812054900361166e5760405162461bcd60e51b815260206004820152601a60248201527f74696d656c6f636b3a20696e76616c69642073656c6563746f72000000000000604482015260640161137a565b604080516001600160e01b0319831681524260208201527f7735b2391c38a81419c513e30ca578db7158eadd7101511b23e221c654d19cf8910160405180910390a16001600160e01b031981166000908152600260205260408120818155906109e76001830182612dbd565b600054600160b01b900460ff16806116fc5750600054600160a81b900460ff16155b156108be576117096127d5565b604080516001600160a01b03831660208201526108ba9184917f89ef27d6045eca6b22da580f7a126a285ef62527e9553a8d9b632b0f5e26c3af91016108a6565b6002602052600090815260409020805460018201805491929161176c90613792565b80601f016020809104026020016040519081016040528092919081815260200182805461179890613792565b80156117e55780601f106117ba576101008083540402835291602001916117e5565b820191906000526020600020905b8154815290600101906020018083116117c857829003601f168201915b5050505050905082565b6117f7612a6a565b6108ba827f578bfb3ec6febb59d8c59fbf6c5a3312bbb9570dd5f6a7265cf5c6fb1d227938836040516020016108a691815260200190565b611837612a6a565b6108ba827ff9b9b44651521fa32e45f527b7392825f165c03571fd1485e7dc0e2a3e460a6f836040516020016108a691815260200190565b600054600160b01b900460ff16806118915750600054600160a81b900460ff16155b1561193d5761189e6127d5565b60005b8651811015611937576118bf878281518110610a1557610a15613545565b6001600160a01b031663249f1b5987878787876040518663ffffffff1660e01b81526004016118f29594939291906137e8565b600060405180830381600087803b15801561190c57600080fd5b505af1158015611920573d6000803e3d6000fd5b50505050808061192f90613571565b9150506118a1565b50611948565b61194860003661291e565b505050505050565b611958612a6a565b60005b818110156109e75761197883838381811061096857610968613545565b6001600160a01b0316638456cb596040518163ffffffff1660e01b8152600401600060405180830381600087803b1580156119b257600080fd5b505af11580156119c6573d6000803e3d6000fd5b5050505080806119d590613571565b91505061195b565b600054600160b01b900460ff16806119ff5750600054600160a81b900460ff16155b15610fd957611a0c6127d5565b6001600160a01b0381166000908152600460205260408120549003610fe457600580546001810182557f036b6384b5eca791c62761152d0c79bb0604c104a5fb6f4eb0703f3154bb3db00180546001600160a01b0319166001600160a01b038416908117909155905460008281526004602081815260409283902093909355815163f0c0b72560e01b8152915130949363f0c0b7259380840193919291908290030181865afa158015611ac3573d6000803e3d6000fd5b505050506040513d601f19601f82011682018060405250810190611ae79190613775565b6001600160a01b031603610fe45760405163b928b53360e01b8152600160048201526001600160a01b0382169063b928b53390602401600060405180830381600087803b158015611b3757600080fd5b505af1158015611b4b573d6000803e3d6000fd5b5050505050565b600054600160b01b900460ff1680611b745750600054600160a81b900460ff16155b156108be57611b816127d5565b6108ba827fd57d25c52236f43d429cb6932e0bdfb00c2fc7ee9aaddccd2ccee1b24a90e724836040516020016108a691815260200190565b600054600160b01b900460ff1680611bdb5750600054600160a81b900460ff16155b15610d4057611be86127d5565b6109e7837f69b89e7ecda74b156ebb6553c166323512e616eb5e0a3d77b3e376086c891f7e84846040516020016108a6929190918252602082015260400190565b600054600160b01b900460ff1680611c4b5750600054600160a81b900460ff16155b156108be57611c586127d5565b604080516001600160a01b03831660208201526108ba9184917fdf06ea96f34c4b924cb722cc7b502fff4895bddce12b805d5778a9cd3ae2241391016108a6565b611ca1612a6a565b6108ba827fdfc5941748b75983d6817917ceea4fb882f2d1482879fb7842e0c15d7c0f2a81836040516020016108a691815260200190565b611ce1612a6a565b6108ba827f2779aaaa0a4aba6761d05634679205836858e31b3d82fff3dc5a6b4b1f32c1a1836040516020016108a691815260200190565b6000805160206139e2833981519152546001600160a01b0316336001600160a01b031614611d805760405162461bcd60e51b815260206004820152601460248201527337b7363c9030b2323932b9b9903ab83230ba32b960611b604482015260640161137a565b611dc6611db483836040518060400160405280600e81526020016d20b2323932b9b9aab83230ba32b960911b815250612b48565b6000805160206139e283398151915255565b6108ba8282612c23565b611dd8612a6a565b60005b8451811015611b4b57611df9858281518110610a1557610a15613545565b6001600160a01b03166313199ee08585856040518463ffffffff1660e01b8152600401611e2893929190613822565b600060405180830381600087803b158015611e4257600080fd5b505af1158015611e56573d6000803e3d6000fd5b505050508080611e6590613571565b915050611ddb565b60606005805480602002602001604051908101604052809291908181526020018280548015611ec557602002820191906000526020600020905b81546001600160a01b03168152600190910190602001808311611ea7575b5050505050905090565b600054600160b01b900460ff1680611ef15750600054600160a81b900460ff16155b156108be57611efe6127d5565b604080516001600160a01b03831660208201526108ba9184917f6dd3d5890781dccec88a387799c9132d0552124a770d12680fb289cac28d77c491016108a6565b611f47612a6a565b6108ba827fcfcb991d8ac2c7b21f03e1f09ee4750b1a3a5353cde79bdb89bf474ca9691ea1836040516020016108a691815260200190565b600054600160b01b900460ff1680611fa15750600054600160a81b900460ff16155b156108be57611fae6127d5565b6108ba827ff35653f1a2f3028179f583cb5399707d5358006fa6c9242ac649d0a1336c1a50836040516020016108a691815260200190565b600054600160b01b900460ff16806120085750600054600160a81b900460ff16155b156108be576120156127d5565b6108ba827f7191500e7bd8061a21587101a27340f39012e9bd508e25ce75ba96ed3762e791836040516020016108a691815260200190565b60006120656000805160206139e28339815191525490565b604051630110ceef60e21b815260206004820152600e60248201526d20b2323932b9b9aab83230ba32b960911b60448201529091506000906001600160a01b038316906304433bbc90606401602060405180830381865afa1580156120ce573d6000803e3d6000fd5b505050506040513d601f19601f820116820180604052508101906120f29190613775565b604051630110ceef60e21b815260206004820152601660248201527520b9b9b2ba26b0b730b3b2b921b7b73a3937b63632b960511b60448201529091506000906001600160a01b038416906304433bbc90606401602060405180830381865afa158015612163573d6000803e3d6000fd5b505050506040513d601f19601f820116820180604052508101906121879190613775565b90506000836001600160a01b03166304433bbc6040518163ffffffff1660e01b81526004016121ce9060208082526004908201526315d3985d60e21b604082015260600190565b602060405180830381865afa1580156121eb573d6000803e3d6000fd5b505050506040513d601f19601f8201168201806040525081019061220f9190613775565b90506001600160a01b0383161580159061223157506001600160a01b03821615155b801561224557506001600160a01b03811615155b6122805760405162461bcd60e51b815260206004820152600c60248201526b61646472657373207a65726f60a01b604482015260640161137a565b836001600160a01b0316836001600160a01b0316146122af576122af836000805160206139e283398151915255565b60005b8581101561239d5760006122d188888481811061096857610968613545565b9050806001600160a01b031663f19d3c067f98d4740d142b60ed8b5406840c42cc27af11aa519fed871c9276ea7113314543868660405160200161232b9291906001600160a01b0392831681529116602082015260400190565b6040516020818303038152906040526040518363ffffffff1660e01b8152600401612357929190613233565b600060405180830381600087803b15801561237157600080fd5b505af1158015612385573d6000803e3d6000fd5b5050505050808061239590613571565b9150506122b2565b506001600160a01b038216301461194857600380546001600160a01b0384166001600160a01b0319909116179055505050505050565b600054600160b01b900460ff16806123f55750600054600160a81b900460ff16155b156108be576124026127d5565b6108ba827f3bc2131c3ff3dd5c528bcad0f54164e3b7c1f568a6eb5cd51f333272147ad1c88361280f565b60008054600160a01b900460ff1680156108fa5750600054604051630debfda360e41b81526001600160a01b0384811660048301529091169063debfda3090602401602060405180830381865afa15801561248c573d6000803e3d6000fd5b505050506040513d601f19601f820116820180604052508101906108fa919061384a565b6124b8612a6a565b6108ba827f263685c89ecca5f576193f222d02951438094b3eb36a8911d113f03be5c9c891836040516020016108a691815260200190565b600054600160b01b900460ff16806125125750600054600160a81b900460ff16155b156108be5761251f6127d5565b604080516001600160a01b03831660208201526108ba9184917f854cff2f06134808792749e4c9e6efde176603ff5656cbb2cda605578a5e6dc291016108a6565b612568612a6a565b6109e7837f68f224ba1b1345ef831341b77bb145c7ff885cf1c8ce6f35dfa089079d38dd1884846040516020016108a6929190918252602082015260400190565b600054600160a01b900460ff16156125fa5760405162461bcd60e51b8152602060048201526014602482015273696e697469616c6973656420213d2066616c736560601b604482015260640161137a565b6001600160a01b0382166126505760405162461bcd60e51b815260206004820152601860248201527f676f7665726e616e63652073657474696e6773207a65726f0000000000000000604482015260640161137a565b6001600160a01b0381166126995760405162461bcd60e51b815260206004820152601060248201526f5f676f7665726e616e6365207a65726f60801b604482015260640161137a565b600080546001600160a01b038481166001600160a81b031990921691909117600160a01b17909155600180549183166001600160a01b0319909216821790556040519081527f9789733827840833afc031fb2ef9ab6894271f77bad2085687cf4ae5c7bee4db9060200160405180910390a15050565b612717612a6a565b600054600160a81b900460ff16156127715760405162461bcd60e51b815260206004820152601a60248201527f616c726561647920696e2070726f64756374696f6e206d6f6465000000000000604482015260640161137a565b600180546001600160a01b031916905560008054600160a81b60ff60a81b198216179091556040516001600160a01b0390911681527f83af113638b5422f9e977cebc0aaf0eaf2188eb9a8baae7f9d46c42b33a1560c9060200160405180910390a1565b600054600160b01b900460ff1615612805573330146127f6576127f6613867565b6000805460ff60b01b19169055565b61280d612a6a565b565b60005b8351811015610fd357600084828151811061282f5761282f613545565b6020026020010151905060046000826001600160a01b03166001600160a01b03168152602001908152602001600020546000036128aa5760405162461bcd60e51b8152602060048201526019602482015278105cdcd95d081b585b9859d95c881b9bdd081b585b9859d959603a1b604482015260640161137a565b6040516378ce9e0360e11b81526001600160a01b0382169063f19d3c06906128d89087908790600401613233565b600060405180830381600087803b1580156128f257600080fd5b505af1158015612906573d6000803e3d6000fd5b5050505050808061291690613571565b915050612812565b612926612a6a565b6000805460408051636221a54b60e01b81529051853593926001600160a01b031691636221a54b9160048083019260209291908290030181865afa158015612972573d6000803e3d6000fd5b505050506040513d601f19601f82011682018060405250810190612996919061387d565b905060006129a4824261374c565b9050604051806040016040528082815260200186868080601f01602080910402602001604051908101604052809392919081815260200183838082843760009201829052509390945250506001600160e01b03198616815260026020908152604090912083518155908301519091506001820190612a2290826138dc565b509050507fed948300a3694aa01d4a6b258bfd664350193d770c0b51f8387277f6d83ea3b683828787604051612a5b949392919061399b565b60405180910390a15050505050565b612a726111d0565b6001600160a01b0316336001600160a01b03161461280d5760405162461bcd60e51b815260206004820152600f60248201526e6f6e6c7920676f7665726e616e636560881b604482015260640161137a565b6001600160a01b0381166000908152600460205260408120548103612b275760405162461bcd60e51b8152602060048201526019602482015278105cdcd95d081b585b9859d95c881b9bdd081b585b9859d959603a1b604482015260640161137a565b5090565b3d604051818101604052816000823e8215612b44578181f35b8181fd5b60008082604051602001612b5c91906139ce565b6040516020818303038152906040528051906020012090506000805b8651811015612bd457868181518110612b9357612b93613545565b60200260200101518303612bc257858181518110612bb357612bb3613545565b60200260200101519150612bd4565b80612bcc81613571565b915050612b78565b506001600160a01b038116612c1a5760405162461bcd60e51b815260206004820152600c60248201526b61646472657373207a65726f60a01b604482015260640161137a565b95945050505050565b6000612c5e83836040518060400160405280601681526020017520b9b9b2ba26b0b730b3b2b921b7b73a3937b63632b960511b815250612b48565b90506000612c8984846040518060400160405280600481526020016315d3985d60e21b815250612b48565b905060005b600554811015612d8957600060058281548110612cad57612cad613545565b600091825260209182902001546040516001600160a01b039091169250829163f19d3c06917f98d4740d142b60ed8b5406840c42cc27af11aa519fed871c9276ea711331454391612d179189918991016001600160a01b0392831681529116602082015260400190565b6040516020818303038152906040526040518363ffffffff1660e01b8152600401612d43929190613233565b600060405180830381600087803b158015612d5d57600080fd5b505af1158015612d71573d6000803e3d6000fd5b50505050508080612d8190613571565b915050612c8e565b506001600160a01b0382163014610fd357600380546001600160a01b0384166001600160a01b031990911617905550505050565b508054612dc990613792565b6000825580601f10612dd9575050565b601f016020900490600052602060002090810190610fe491905b80821115612b275760008155600101612df3565b634e487b7160e01b600052604160045260246000fd5b604051601f8201601f191681016001600160401b0381118282101715612e4557612e45612e07565b604052919050565b60006001600160401b03821115612e6657612e66612e07565b5060051b60200190565b6001600160a01b0381168114610fe457600080fd5b600082601f830112612e9657600080fd5b81356020612eab612ea683612e4d565b612e1d565b82815260059290921b84018101918181019086841115612eca57600080fd5b8286015b84811015612eee578035612ee181612e70565b8352918301918301612ece565b509695505050505050565b60008060408385031215612f0c57600080fd5b82356001600160401b03811115612f2257600080fd5b612f2e85828601612e85565b95602094909401359450505050565b600060208284031215612f4f57600080fd5b81356001600160e01b031981168114612f6757600080fd5b9392505050565b60008060208385031215612f8157600080fd5b82356001600160401b0380821115612f9857600080fd5b818501915085601f830112612fac57600080fd5b813581811115612fbb57600080fd5b8660208260051b8501011115612fd057600080fd5b60209290920196919550909350505050565b60008060408385031215612ff557600080fd5b82356001600160401b038082111561300c57600080fd5b61301886838701612e85565b9350602085013591508082111561302e57600080fd5b508301610140818603121561304257600080fd5b809150509250929050565b6000806040838503121561306057600080fd5b82356001600160401b0381111561307657600080fd5b61308285828601612e85565b925050602083013561304281612e70565b600082601f8301126130a457600080fd5b81356001600160401b038111156130bd576130bd612e07565b6130d0601f8201601f1916602001612e1d565b8181528460208386010111156130e557600080fd5b816020850160208301376000918101602001919091529392505050565b60008060006060848603121561311757600080fd5b83356001600160401b038082111561312e57600080fd5b61313a87838801612e85565b94506020860135915061314c82612e70565b9092506040850135908082111561316257600080fd5b5061316f86828701613093565b9150509250925092565b60006020828403121561318b57600080fd5b8135612f6781612e70565b6000806000606084860312156131ab57600080fd5b83356001600160401b038111156131c157600080fd5b6131cd86828701612e85565b9660208601359650604090950135949350505050565b60005b838110156131fe5781810151838201526020016131e6565b50506000910152565b6000815180845261321f8160208601602086016131e3565b601f01601f19169290920160200192915050565b82815260406020820152600061324c6040830184613207565b949350505050565b80356003811061326357600080fd5b919050565b803561326381612e70565b60008060008060008060c0878903121561328c57600080fd5b86356001600160401b038111156132a257600080fd5b6132ae89828a01612e85565b9650506132bd60208801613254565b945060408701356132cd81612e70565b959894975094956060810135955060808101359460a0909101359350915050565b600082601f8301126132ff57600080fd5b8135602061330f612ea683612e4d565b82815260059290921b8401810191818101908684111561332e57600080fd5b8286015b84811015612eee57803561334581612e70565b8352918301918301613332565b6000806040838503121561336557600080fd5b82356001600160401b038082111561337c57600080fd5b818501915085601f83011261339057600080fd5b813560206133a0612ea683612e4d565b82815260059290921b840181019181810190898411156133bf57600080fd5b948201945b838610156133dd578535825294820194908201906133c4565b965050860135925050808211156133f357600080fd5b50613400858286016132ee565b9150509250929050565b6000806000806080858703121561342057600080fd5b84356001600160401b0381111561343657600080fd5b61344287828801612e85565b94505061345160208601613254565b9250604085013561346181612e70565b9396929550929360600135925050565b6020808252825182820181905260009190848201906040850190845b818110156134b25783516001600160a01b03168352928401929184019160010161348d565b50909695505050505050565b600080604083850312156134d157600080fd5b82356001600160401b03808211156134e857600080fd5b6134f486838701612e85565b9350602085013591508082111561350a57600080fd5b5061340085828601613093565b6000806040838503121561352a57600080fd5b823561353581612e70565b9150602083013561304281612e70565b634e487b7160e01b600052603260045260246000fd5b634e487b7160e01b600052601160045260246000fd5b6000600182016135835761358361355b565b5060010190565b600381106135a857634e487b7160e01b600052602160045260246000fd5b9052565b8015158114610fe457600080fd5b8035613263816135ac565b6000808335601e198436030181126135dc57600080fd5b83016020810192503590506001600160401b038111156135fb57600080fd5b80360382131561360a57600080fd5b9250929050565b81835281816020850137506000828201602090810191909152601f909101601f19169091010190565b602081526136536020820161364e84613254565b61358a565b600061366160208401613268565b6001600160a01b0381166040840152506040830135606083015260608301356080830152613691608084016135ba565b80151560a0840152506136a760a08401846135c5565b6101408060c08601526136bf61016086018385613611565b92506136ce60c08701876135c5565b868503601f190160e088015292506136e7848483613611565b60e0880135610100888101919091528801356101208089019190915290970135919095015250929392505050565b6001600160a01b038316815260406020820181905260009061324c90830184613207565b818103818111156108fa576108fa61355b565b808201808211156108fa576108fa61355b565b634e487b7160e01b600052603160045260246000fd5b60006020828403121561378757600080fd5b8151612f6781612e70565b600181811c908216806137a657607f821691505b6020821081036137c657634e487b7160e01b600052602260045260246000fd5b50919050565b600082516137de8184602087016131e3565b9190910192915050565b60a081016137f6828861358a565b6001600160a01b0395909516602082015260408101939093526060830191909152608090910152919050565b60608101613830828661358a565b6001600160a01b0393909316602082015260400152919050565b60006020828403121561385c57600080fd5b8151612f67816135ac565b634e487b7160e01b600052600160045260246000fd5b60006020828403121561388f57600080fd5b5051919050565b601f8211156109e757600081815260208120601f850160051c810160208610156138bd5750805b601f850160051c820191505b81811015611948578281556001016138c9565b81516001600160401b038111156138f5576138f5612e07565b613909816139038454613792565b84613896565b602080601f83116001811461393e57600084156139265750858301515b600019600386901b1c1916600185901b178555611948565b600085815260208120601f198616915b8281101561396d5788860151825594840194600190910190840161394e565b508582101561398b5787850151600019600388901b60f8161c191681555b5050505050600190811b01905550565b63ffffffff60e01b851681528360208201526060604082015260006139c4606083018486613611565b9695505050505050565b602081526000612f67602083018461320756fe714f205b2abd25bef1d06a1af944e38c113fe6160375c4e1d6d5cf28848e7719a26469706673582212204a9db9867ab0860788582ecb9d1746183c947e3d5efbbddfaf372e64c4fa8ffa64736f6c63430008140033",
  "linkReferences": {},
  "deployedLinkReferences": {}
}