{
  "_format": "hh-sol-artifact-1",
  "contractName": "AssetManagerController",
  "sourceName": "contracts/fasset/implementation/AssetManagerController.sol",
  "abi": [
    {
      "inputs": [
        {
          "internalType": "contract IGovernanceSettings",
          "name": "_governanceSettings",
          "type": "address"
        },
        {
          "internalType": "address",
          "name": "_initialGovernance",
          "type": "address"
        },
        {
          "internalType": "address",
          "name": "_addressUpdater",
          "type": "address"
        }
      ],
      "stateMutability": "nonpayable",
      "type": "constructor"
    },
    {
      "anonymous": false,
      "inputs": [
        {
          "indexed": true,
          "internalType": "address",
          "name": "agentVault",
          "type": "address"
        },
        {
          "indexed": false,
          "internalType": "uint256",
          "name": "feeBIPS",
          "type": "uint256"
        },
        {
          "indexed": false,
          "internalType": "uint256",
          "name": "mintingClass1CollateralRatioBIPS",
          "type": "uint256"
        },
        {
          "indexed": false,
          "internalType": "uint256",
          "name": "mintingPoolCollateralRatioBIPS",
          "type": "uint256"
        },
        {
          "indexed": false,
          "internalType": "uint256",
          "name": "freeCollateralLots",
          "type": "uint256"
        }
      ],
      "name": "AgentAvailable",
      "type": "event"
    },
    {
      "anonymous": false,
      "inputs": [
        {
          "indexed": true,
          "internalType": "address",
          "name": "agentVault",
          "type": "address"
        },
        {
          "indexed": false,
          "internalType": "uint8",
          "name": "collateralClass",
          "type": "uint8"
        },
        {
          "indexed": false,
          "internalType": "address",
          "name": "token",
          "type": "address"
        }
      ],
      "name": "AgentCollateralTypeChanged",
      "type": "event"
    },
    {
      "anonymous": false,
      "inputs": [
        {
          "indexed": true,
          "internalType": "address",
          "name": "owner",
          "type": "address"
        },
        {
          "indexed": false,
          "internalType": "address",
          "name": "agentVault",
          "type": "address"
        },
        {
          "indexed": false,
          "internalType": "address",
          "name": "collateralPool",
          "type": "address"
        },
        {
          "indexed": false,
          "internalType": "string",
          "name": "underlyingAddress",
          "type": "string"
        },
        {
          "indexed": false,
          "internalType": "address",
          "name": "class1CollateralToken",
          "type": "address"
        },
        {
          "indexed": false,
          "internalType": "uint256",
          "name": "feeBIPS",
          "type": "uint256"
        },
        {
          "indexed": false,
          "internalType": "uint256",
          "name": "poolFeeShareBIPS",
          "type": "uint256"
        },
        {
          "indexed": false,
          "internalType": "uint256",
          "name": "mintingClass1CollateralRatioBIPS",
          "type": "uint256"
        },
        {
          "indexed": false,
          "internalType": "uint256",
          "name": "mintingPoolCollateralRatioBIPS",
          "type": "uint256"
        },
        {
          "indexed": false,
          "internalType": "uint256",
          "name": "buyFAssetByAgentFactorBIPS",
          "type": "uint256"
        },
        {
          "indexed": false,
          "internalType": "uint256",
          "name": "poolExitCollateralRatioBIPS",
          "type": "uint256"
        },
        {
          "indexed": false,
          "internalType": "uint256",
          "name": "poolTopupCollateralRatioBIPS",
          "type": "uint256"
        },
        {
          "indexed": false,
          "internalType": "uint256",
          "name": "poolTopupTokenPriceFactorBIPS",
          "type": "uint256"
        }
      ],
      "name": "AgentCreated",
      "type": "event"
    },
    {
      "anonymous": false,
      "inputs": [
        {
          "indexed": true,
          "internalType": "address",
          "name": "agentVault",
          "type": "address"
        },
        {
          "indexed": false,
          "internalType": "uint256",
          "name": "destroyAllowedAt",
          "type": "uint256"
        }
      ],
      "name": "AgentDestroyAnnounced",
      "type": "event"
    },
    {
      "anonymous": false,
      "inputs": [
        {
          "indexed": true,
          "internalType": "address",
          "name": "agentVault",
          "type": "address"
        }
      ],
      "name": "AgentDestroyed",
      "type": "event"
    },
    {
      "anonymous": false,
      "inputs": [
        {
          "indexed": true,
          "internalType": "address",
          "name": "agentVault",
          "type": "address"
        },
        {
          "indexed": false,
          "internalType": "uint256",
          "name": "timestamp",
          "type": "uint256"
        }
      ],
      "name": "AgentInCCB",
      "type": "event"
    },
    {
      "anonymous": false,
      "inputs": [
        {
          "indexed": true,
          "internalType": "address",
          "name": "agentVault",
          "type": "address"
        },
        {
          "indexed": false,
          "internalType": "string",
          "name": "name",
          "type": "string"
        },
        {
          "indexed": false,
          "internalType": "uint256",
          "name": "value",
          "type": "uint256"
        },
        {
          "indexed": false,
          "internalType": "uint256",
          "name": "validAt",
          "type": "uint256"
        }
      ],
      "name": "AgentSettingChangeAnnounced",
      "type": "event"
    },
    {
      "anonymous": false,
      "inputs": [
        {
          "indexed": true,
          "internalType": "address",
          "name": "agentVault",
          "type": "address"
        },
        {
          "indexed": false,
          "internalType": "string",
          "name": "name",
          "type": "string"
        },
        {
          "indexed": false,
          "internalType": "uint256",
          "name": "value",
          "type": "uint256"
        }
      ],
      "name": "AgentSettingChanged",
      "type": "event"
    },
    {
      "anonymous": false,
      "inputs": [
        {
          "indexed": true,
          "internalType": "address",
          "name": "agentVault",
          "type": "address"
        },
        {
          "indexed": false,
          "internalType": "uint256",
          "name": "exitAllowedAt",
          "type": "uint256"
        }
      ],
      "name": "AvailableAgentExitAnnounced",
      "type": "event"
    },
    {
      "anonymous": false,
      "inputs": [
        {
          "indexed": true,
          "internalType": "address",
          "name": "agentVault",
          "type": "address"
        }
      ],
      "name": "AvailableAgentExited",
      "type": "event"
    },
    {
      "anonymous": false,
      "inputs": [
        {
          "indexed": true,
          "internalType": "address",
          "name": "agentVault",
          "type": "address"
        },
        {
          "indexed": false,
          "internalType": "uint256",
          "name": "amountWei",
          "type": "uint256"
        },
        {
          "indexed": false,
          "internalType": "uint256",
          "name": "withdrawalAllowedAt",
          "type": "uint256"
        }
      ],
      "name": "Class1WithdrawalAnnounced",
      "type": "event"
    },
    {
      "anonymous": false,
      "inputs": [
        {
          "indexed": false,
          "internalType": "uint8",
          "name": "collateralClass",
          "type": "uint8"
        },
        {
          "indexed": false,
          "internalType": "address",
          "name": "collateralToken",
          "type": "address"
        },
        {
          "indexed": false,
          "internalType": "uint256",
          "name": "minCollateralRatioBIPS",
          "type": "uint256"
        },
        {
          "indexed": false,
          "internalType": "uint256",
          "name": "ccbMinCollateralRatioBIPS",
          "type": "uint256"
        },
        {
          "indexed": false,
          "internalType": "uint256",
          "name": "safetyMinCollateralRatioBIPS",
          "type": "uint256"
        }
      ],
      "name": "CollateralRatiosChanged",
      "type": "event"
    },
    {
      "anonymous": false,
      "inputs": [
        {
          "indexed": true,
          "internalType": "address",
          "name": "agentVault",
          "type": "address"
        },
        {
          "indexed": true,
          "internalType": "address",
          "name": "minter",
          "type": "address"
        },
        {
          "indexed": false,
          "internalType": "uint256",
          "name": "collateralReservationId",
          "type": "uint256"
        },
        {
          "indexed": false,
          "internalType": "uint256",
          "name": "reservedAmountUBA",
          "type": "uint256"
        }
      ],
      "name": "CollateralReservationDeleted",
      "type": "event"
    },
    {
      "anonymous": false,
      "inputs": [
        {
          "indexed": true,
          "internalType": "address",
          "name": "agentVault",
          "type": "address"
        },
        {
          "indexed": true,
          "internalType": "address",
          "name": "minter",
          "type": "address"
        },
        {
          "indexed": false,
          "internalType": "uint256",
          "name": "collateralReservationId",
          "type": "uint256"
        },
        {
          "indexed": false,
          "internalType": "uint256",
          "name": "valueUBA",
          "type": "uint256"
        },
        {
          "indexed": false,
          "internalType": "uint256",
          "name": "feeUBA",
          "type": "uint256"
        },
        {
          "indexed": false,
          "internalType": "uint256",
          "name": "lastUnderlyingBlock",
          "type": "uint256"
        },
        {
          "indexed": false,
          "internalType": "uint256",
          "name": "lastUnderlyingTimestamp",
          "type": "uint256"
        },
        {
          "indexed": false,
          "internalType": "string",
          "name": "paymentAddress",
          "type": "string"
        },
        {
          "indexed": false,
          "internalType": "bytes32",
          "name": "paymentReference",
          "type": "bytes32"
        }
      ],
      "name": "CollateralReserved",
      "type": "event"
    },
    {
      "anonymous": false,
      "inputs": [
        {
          "indexed": false,
          "internalType": "uint8",
          "name": "collateralClass",
          "type": "uint8"
        },
        {
          "indexed": false,
          "internalType": "address",
          "name": "token",
          "type": "address"
        },
        {
          "indexed": false,
          "internalType": "uint256",
          "name": "decimals",
          "type": "uint256"
        },
        {
          "indexed": false,
          "internalType": "bool",
          "name": "directPricePair",
          "type": "bool"
        },
        {
          "indexed": false,
          "internalType": "string",
          "name": "assetFtsoSymbol",
          "type": "string"
        },
        {
          "indexed": false,
          "internalType": "string",
          "name": "tokenFtsoSymbol",
          "type": "string"
        },
        {
          "indexed": false,
          "internalType": "uint256",
          "name": "minCollateralRatioBIPS",
          "type": "uint256"
        },
        {
          "indexed": false,
          "internalType": "uint256",
          "name": "ccbMinCollateralRatioBIPS",
          "type": "uint256"
        },
        {
          "indexed": false,
          "internalType": "uint256",
          "name": "safetyMinCollateralRatioBIPS",
          "type": "uint256"
        }
      ],
      "name": "CollateralTypeAdded",
      "type": "event"
    },
    {
      "anonymous": false,
      "inputs": [
        {
          "indexed": false,
          "internalType": "uint8",
          "name": "collateralClass",
          "type": "uint8"
        },
        {
          "indexed": false,
          "internalType": "address",
          "name": "collateralToken",
          "type": "address"
        },
        {
          "indexed": false,
          "internalType": "uint256",
          "name": "validUntil",
          "type": "uint256"
        }
      ],
      "name": "CollateralTypeDeprecated",
      "type": "event"
    },
    {
      "anonymous": false,
      "inputs": [
        {
          "indexed": false,
          "internalType": "string",
          "name": "name",
          "type": "string"
        },
        {
          "indexed": false,
          "internalType": "address",
          "name": "value",
          "type": "address"
        }
      ],
      "name": "ContractChanged",
      "type": "event"
    },
    {
      "anonymous": false,
      "inputs": [
        {
          "indexed": true,
          "internalType": "address",
          "name": "agentVault",
          "type": "address"
        },
        {
          "indexed": false,
          "internalType": "bytes32",
          "name": "transactionHash1",
          "type": "bytes32"
        },
        {
          "indexed": false,
          "internalType": "bytes32",
          "name": "transactionHash2",
          "type": "bytes32"
        }
      ],
      "name": "DuplicatePaymentConfirmed",
      "type": "event"
    },
    {
      "anonymous": false,
      "inputs": [
        {
          "indexed": true,
          "internalType": "address",
          "name": "agentVault",
          "type": "address"
        },
        {
          "indexed": false,
          "internalType": "uint256",
          "name": "dustUBA",
          "type": "uint256"
        }
      ],
      "name": "DustChanged",
      "type": "event"
    },
    {
      "anonymous": false,
      "inputs": [
        {
          "indexed": true,
          "internalType": "address",
          "name": "agentVault",
          "type": "address"
        },
        {
          "indexed": false,
          "internalType": "uint256",
          "name": "redemptionTicketId",
          "type": "uint256"
        },
        {
          "indexed": false,
          "internalType": "uint256",
          "name": "valueUBA",
          "type": "uint256"
        }
      ],
      "name": "DustConvertedToTicket",
      "type": "event"
    },
    {
      "anonymous": false,
      "inputs": [
        {
          "indexed": true,
          "internalType": "address",
          "name": "agentVault",
          "type": "address"
        },
        {
          "indexed": false,
          "internalType": "uint256",
          "name": "timestamp",
          "type": "uint256"
        }
      ],
      "name": "FullLiquidationStarted",
      "type": "event"
    },
    {
      "anonymous": false,
      "inputs": [
        {
          "indexed": false,
          "internalType": "bytes4",
          "name": "selector",
          "type": "bytes4"
        },
        {
          "indexed": false,
          "internalType": "uint256",
          "name": "allowedAfterTimestamp",
          "type": "uint256"
        },
        {
          "indexed": false,
          "internalType": "bytes",
          "name": "encodedCall",
          "type": "bytes"
        }
      ],
      "name": "GovernanceCallTimelocked",
      "type": "event"
    },
    {
      "anonymous": false,
      "inputs": [
        {
          "indexed": false,
          "internalType": "address",
          "name": "initialGovernance",
          "type": "address"
        }
      ],
      "name": "GovernanceInitialised",
      "type": "event"
    },
    {
      "anonymous": false,
      "inputs": [
        {
          "indexed": false,
          "internalType": "address",
          "name": "governanceSettings",
          "type": "address"
        }
      ],
      "name": "GovernedProductionModeEntered",
      "type": "event"
    },
    {
      "anonymous": false,
      "inputs": [
        {
          "indexed": true,
          "internalType": "address",
          "name": "agentVault",
          "type": "address"
        },
        {
          "indexed": false,
          "internalType": "bytes32",
          "name": "transactionHash",
          "type": "bytes32"
        }
      ],
      "name": "IllegalPaymentConfirmed",
      "type": "event"
    },
    {
      "anonymous": false,
      "inputs": [
        {
          "indexed": true,
          "internalType": "address",
          "name": "agentVault",
          "type": "address"
        }
      ],
      "name": "LiquidationEnded",
      "type": "event"
    },
    {
      "anonymous": false,
      "inputs": [
        {
          "indexed": true,
          "internalType": "address",
          "name": "agentVault",
          "type": "address"
        },
        {
          "indexed": true,
          "internalType": "address",
          "name": "liquidator",
          "type": "address"
        },
        {
          "indexed": false,
          "internalType": "uint256",
          "name": "valueUBA",
          "type": "uint256"
        }
      ],
      "name": "LiquidationPerformed",
      "type": "event"
    },
    {
      "anonymous": false,
      "inputs": [
        {
          "indexed": true,
          "internalType": "address",
          "name": "agentVault",
          "type": "address"
        },
        {
          "indexed": false,
          "internalType": "uint256",
          "name": "timestamp",
          "type": "uint256"
        }
      ],
      "name": "LiquidationStarted",
      "type": "event"
    },
    {
      "anonymous": false,
      "inputs": [
        {
          "indexed": true,
          "internalType": "address",
          "name": "agentVault",
          "type": "address"
        },
        {
          "indexed": false,
          "internalType": "uint256",
          "name": "collateralReservationId",
          "type": "uint256"
        },
        {
          "indexed": false,
          "internalType": "uint256",
          "name": "redemptionTicketId",
          "type": "uint256"
        },
        {
          "indexed": false,
          "internalType": "uint256",
          "name": "mintedAmountUBA",
          "type": "uint256"
        },
        {
          "indexed": false,
          "internalType": "uint256",
          "name": "agentFeeUBA",
          "type": "uint256"
        },
        {
          "indexed": false,
          "internalType": "uint256",
          "name": "poolFeeUBA",
          "type": "uint256"
        }
      ],
      "name": "MintingExecuted",
      "type": "event"
    },
    {
      "anonymous": false,
      "inputs": [
        {
          "indexed": true,
          "internalType": "address",
          "name": "agentVault",
          "type": "address"
        },
        {
          "indexed": true,
          "internalType": "address",
          "name": "minter",
          "type": "address"
        },
        {
          "indexed": false,
          "internalType": "uint256",
          "name": "collateralReservationId",
          "type": "uint256"
        },
        {
          "indexed": false,
          "internalType": "uint256",
          "name": "reservedAmountUBA",
          "type": "uint256"
        }
      ],
      "name": "MintingPaymentDefault",
      "type": "event"
    },
    {
      "anonymous": false,
      "inputs": [
        {
          "indexed": true,
          "internalType": "address",
          "name": "agentVault",
          "type": "address"
        },
        {
          "indexed": false,
          "internalType": "uint256",
          "name": "amountWei",
          "type": "uint256"
        },
        {
          "indexed": false,
          "internalType": "uint256",
          "name": "withdrawalAllowedAt",
          "type": "uint256"
        }
      ],
      "name": "PoolTokenRedemptionAnnounced",
      "type": "event"
    },
    {
      "anonymous": false,
      "inputs": [
        {
          "indexed": true,
          "internalType": "address",
          "name": "agentVault",
          "type": "address"
        },
        {
          "indexed": true,
          "internalType": "address",
          "name": "redeemer",
          "type": "address"
        },
        {
          "indexed": false,
          "internalType": "uint256",
          "name": "redemptionAmountUBA",
          "type": "uint256"
        },
        {
          "indexed": false,
          "internalType": "uint256",
          "name": "redeemedClass1CollateralWei",
          "type": "uint256"
        },
        {
          "indexed": false,
          "internalType": "uint256",
          "name": "redeemedPoolCollateralWei",
          "type": "uint256"
        },
        {
          "indexed": false,
          "internalType": "uint64",
          "name": "requestId",
          "type": "uint64"
        }
      ],
      "name": "RedemptionDefault",
      "type": "event"
    },
    {
      "anonymous": false,
      "inputs": [
        {
          "indexed": true,
          "internalType": "address",
          "name": "agentVault",
          "type": "address"
        },
        {
          "indexed": true,
          "internalType": "address",
          "name": "redeemer",
          "type": "address"
        },
        {
          "indexed": false,
          "internalType": "bytes32",
          "name": "transactionHash",
          "type": "bytes32"
        },
        {
          "indexed": false,
          "internalType": "uint256",
          "name": "redemptionAmountUBA",
          "type": "uint256"
        },
        {
          "indexed": false,
          "internalType": "int256",
          "name": "spentUnderlyingUBA",
          "type": "int256"
        },
        {
          "indexed": false,
          "internalType": "uint64",
          "name": "requestId",
          "type": "uint64"
        }
      ],
      "name": "RedemptionPaymentBlocked",
      "type": "event"
    },
    {
      "anonymous": false,
      "inputs": [
        {
          "indexed": true,
          "internalType": "address",
          "name": "agentVault",
          "type": "address"
        },
        {
          "indexed": true,
          "internalType": "address",
          "name": "redeemer",
          "type": "address"
        },
        {
          "indexed": false,
          "internalType": "bytes32",
          "name": "transactionHash",
          "type": "bytes32"
        },
        {
          "indexed": false,
          "internalType": "int256",
          "name": "spentUnderlyingUBA",
          "type": "int256"
        },
        {
          "indexed": false,
          "internalType": "uint64",
          "name": "requestId",
          "type": "uint64"
        },
        {
          "indexed": false,
          "internalType": "string",
          "name": "failureReason",
          "type": "string"
        }
      ],
      "name": "RedemptionPaymentFailed",
      "type": "event"
    },
    {
      "anonymous": false,
      "inputs": [
        {
          "indexed": true,
          "internalType": "address",
          "name": "agentVault",
          "type": "address"
        },
        {
          "indexed": true,
          "internalType": "address",
          "name": "redeemer",
          "type": "address"
        },
        {
          "indexed": false,
          "internalType": "bytes32",
          "name": "transactionHash",
          "type": "bytes32"
        },
        {
          "indexed": false,
          "internalType": "uint256",
          "name": "redemptionAmountUBA",
          "type": "uint256"
        },
        {
          "indexed": false,
          "internalType": "int256",
          "name": "spentUnderlyingUBA",
          "type": "int256"
        },
        {
          "indexed": false,
          "internalType": "uint64",
          "name": "requestId",
          "type": "uint64"
        }
      ],
      "name": "RedemptionPerformed",
      "type": "event"
    },
    {
      "anonymous": false,
      "inputs": [
        {
          "indexed": true,
          "internalType": "address",
          "name": "redeemer",
          "type": "address"
        },
        {
          "indexed": false,
          "internalType": "uint256",
          "name": "remainingLots",
          "type": "uint256"
        }
      ],
      "name": "RedemptionRequestIncomplete",
      "type": "event"
    },
    {
      "anonymous": false,
      "inputs": [
        {
          "indexed": true,
          "internalType": "address",
          "name": "agentVault",
          "type": "address"
        },
        {
          "indexed": false,
          "internalType": "uint256",
          "name": "requestId",
          "type": "uint256"
        },
        {
          "indexed": false,
          "internalType": "string",
          "name": "paymentAddress",
          "type": "string"
        },
        {
          "indexed": false,
          "internalType": "uint256",
          "name": "valueUBA",
          "type": "uint256"
        },
        {
          "indexed": false,
          "internalType": "uint256",
          "name": "feeUBA",
          "type": "uint256"
        },
        {
          "indexed": false,
          "internalType": "uint256",
          "name": "lastUnderlyingBlock",
          "type": "uint256"
        },
        {
          "indexed": false,
          "internalType": "uint256",
          "name": "lastUnderlyingTimestamp",
          "type": "uint256"
        },
        {
          "indexed": false,
          "internalType": "bytes32",
          "name": "paymentReference",
          "type": "bytes32"
        }
      ],
      "name": "RedemptionRequested",
      "type": "event"
    },
    {
      "anonymous": false,
      "inputs": [
        {
          "indexed": true,
          "internalType": "address",
          "name": "agentVault",
          "type": "address"
        },
        {
          "indexed": false,
          "internalType": "uint256",
          "name": "valueUBA",
          "type": "uint256"
        }
      ],
      "name": "SelfClose",
      "type": "event"
    },
    {
      "anonymous": false,
      "inputs": [
        {
          "indexed": false,
          "internalType": "string",
          "name": "name",
          "type": "string"
        },
        {
          "indexed": false,
          "internalType": "uint256[]",
          "name": "value",
          "type": "uint256[]"
        }
      ],
      "name": "SettingArrayChanged",
      "type": "event"
    },
    {
      "anonymous": false,
      "inputs": [
        {
          "indexed": false,
          "internalType": "string",
          "name": "name",
          "type": "string"
        },
        {
          "indexed": false,
          "internalType": "uint256",
          "name": "value",
          "type": "uint256"
        }
      ],
      "name": "SettingChanged",
      "type": "event"
    },
    {
      "anonymous": false,
      "inputs": [
        {
          "indexed": false,
          "internalType": "bytes4",
          "name": "selector",
          "type": "bytes4"
        },
        {
          "indexed": false,
          "internalType": "uint256",
          "name": "timestamp",
          "type": "uint256"
        }
      ],
      "name": "TimelockedGovernanceCallCanceled",
      "type": "event"
    },
    {
      "anonymous": false,
      "inputs": [
        {
          "indexed": false,
          "internalType": "bytes4",
          "name": "selector",
          "type": "bytes4"
        },
        {
          "indexed": false,
          "internalType": "uint256",
          "name": "timestamp",
          "type": "uint256"
        }
      ],
      "name": "TimelockedGovernanceCallExecuted",
      "type": "event"
    },
    {
      "anonymous": false,
      "inputs": [
        {
          "indexed": true,
          "internalType": "address",
          "name": "agentVault",
          "type": "address"
        },
        {
          "indexed": false,
          "internalType": "int256",
          "name": "underlyingBalanceUBA",
          "type": "int256"
        }
      ],
      "name": "UnderlyingBalanceChanged",
      "type": "event"
    },
    {
      "anonymous": false,
      "inputs": [
        {
          "indexed": true,
          "internalType": "address",
          "name": "agentVault",
          "type": "address"
        },
        {
          "indexed": false,
          "internalType": "int256",
          "name": "balance",
          "type": "int256"
        },
        {
          "indexed": false,
          "internalType": "uint256",
          "name": "requiredBalance",
          "type": "uint256"
        }
      ],
      "name": "UnderlyingBalanceTooLow",
      "type": "event"
    },
    {
      "anonymous": false,
      "inputs": [
        {
          "indexed": true,
          "internalType": "address",
          "name": "agentVault",
          "type": "address"
        },
        {
          "indexed": false,
          "internalType": "bytes32",
          "name": "transactionHash",
          "type": "bytes32"
        },
        {
          "indexed": false,
          "internalType": "uint256",
          "name": "depositedUBA",
          "type": "uint256"
        }
      ],
      "name": "UnderlyingBalanceToppedUp",
      "type": "event"
    },
    {
      "anonymous": false,
      "inputs": [
        {
          "indexed": true,
          "internalType": "address",
          "name": "agentVault",
          "type": "address"
        },
        {
          "indexed": false,
          "internalType": "uint64",
          "name": "announcementId",
          "type": "uint64"
        },
        {
          "indexed": false,
          "internalType": "bytes32",
          "name": "paymentReference",
          "type": "bytes32"
        }
      ],
      "name": "UnderlyingWithdrawalAnnounced",
      "type": "event"
    },
    {
      "anonymous": false,
      "inputs": [
        {
          "indexed": true,
          "internalType": "address",
          "name": "agentVault",
          "type": "address"
        },
        {
          "indexed": false,
          "internalType": "uint64",
          "name": "announcementId",
          "type": "uint64"
        }
      ],
      "name": "UnderlyingWithdrawalCancelled",
      "type": "event"
    },
    {
      "anonymous": false,
      "inputs": [
        {
          "indexed": true,
          "internalType": "address",
          "name": "agentVault",
          "type": "address"
        },
        {
          "indexed": false,
          "internalType": "int256",
          "name": "spentUBA",
          "type": "int256"
        },
        {
          "indexed": false,
          "internalType": "bytes32",
          "name": "transactionHash",
          "type": "bytes32"
        },
        {
          "indexed": false,
          "internalType": "uint64",
          "name": "announcementId",
          "type": "uint64"
        }
      ],
      "name": "UnderlyingWithdrawalConfirmed",
      "type": "event"
    },
    {
      "inputs": [
        {
          "internalType": "contract IIAssetManager",
          "name": "_assetManager",
          "type": "address"
        }
      ],
      "name": "addAssetManager",
      "outputs": [],
      "stateMutability": "nonpayable",
      "type": "function"
    },
    {
      "inputs": [
        {
          "internalType": "contract IIAssetManager[]",
          "name": "_assetManagers",
          "type": "address[]"
        },
        {
          "components": [
            {
              "internalType": "enum CollateralType.Class",
              "name": "collateralClass",
              "type": "uint8"
            },
            {
              "internalType": "contract IERC20",
              "name": "token",
              "type": "address"
            },
            {
              "internalType": "uint256",
              "name": "decimals",
              "type": "uint256"
            },
            {
              "internalType": "uint256",
              "name": "validUntil",
              "type": "uint256"
            },
            {
              "internalType": "bool",
              "name": "directPricePair",
              "type": "bool"
            },
            {
              "internalType": "string",
              "name": "assetFtsoSymbol",
              "type": "string"
            },
            {
              "internalType": "string",
              "name": "tokenFtsoSymbol",
              "type": "string"
            },
            {
              "internalType": "uint256",
              "name": "minCollateralRatioBIPS",
              "type": "uint256"
            },
            {
              "internalType": "uint256",
              "name": "ccbMinCollateralRatioBIPS",
              "type": "uint256"
            },
            {
              "internalType": "uint256",
              "name": "safetyMinCollateralRatioBIPS",
              "type": "uint256"
            }
          ],
          "internalType": "struct CollateralType.Data",
          "name": "_data",
          "type": "tuple"
        }
      ],
      "name": "addCollateralType",
      "outputs": [],
      "stateMutability": "nonpayable",
      "type": "function"
    },
    {
      "inputs": [
        {
          "internalType": "address",
          "name": "_assetManager",
          "type": "address"
        }
      ],
      "name": "assetManagerExists",
      "outputs": [
        {
          "internalType": "bool",
          "name": "",
          "type": "bool"
        }
      ],
      "stateMutability": "view",
      "type": "function"
    },
    {
      "inputs": [
        {
          "internalType": "bytes4",
          "name": "_selector",
          "type": "bytes4"
        }
      ],
      "name": "cancelGovernanceCall",
      "outputs": [],
      "stateMutability": "nonpayable",
      "type": "function"
    },
    {
      "inputs": [
        {
          "internalType": "contract IIAssetManager[]",
          "name": "_assetManagers",
          "type": "address[]"
        },
        {
          "internalType": "enum CollateralType.Class",
          "name": "_class",
          "type": "uint8"
        },
        {
          "internalType": "contract IERC20",
          "name": "_token",
          "type": "address"
        },
        {
          "internalType": "uint256",
          "name": "_invalidationTimeSec",
          "type": "uint256"
        }
      ],
      "name": "deprecateCollateralType",
      "outputs": [],
      "stateMutability": "nonpayable",
      "type": "function"
    },
    {
      "inputs": [
        {
          "internalType": "bytes4",
          "name": "_selector",
          "type": "bytes4"
        }
      ],
      "name": "executeGovernanceCall",
      "outputs": [],
      "stateMutability": "nonpayable",
      "type": "function"
    },
    {
      "inputs": [],
      "name": "getAddressUpdater",
      "outputs": [
        {
          "internalType": "address",
          "name": "_addressUpdater",
          "type": "address"
        }
      ],
      "stateMutability": "view",
      "type": "function"
    },
    {
      "inputs": [],
      "name": "getAssetManagers",
      "outputs": [
        {
          "internalType": "contract IIAssetManager[]",
          "name": "",
          "type": "address[]"
        }
      ],
      "stateMutability": "view",
      "type": "function"
    },
    {
      "inputs": [],
      "name": "governance",
      "outputs": [
        {
          "internalType": "address",
          "name": "",
          "type": "address"
        }
      ],
      "stateMutability": "view",
      "type": "function"
    },
    {
      "inputs": [],
      "name": "governanceSettings",
      "outputs": [
        {
          "internalType": "contract IGovernanceSettings",
          "name": "",
          "type": "address"
        }
      ],
      "stateMutability": "view",
      "type": "function"
    },
    {
      "inputs": [
        {
          "internalType": "contract IGovernanceSettings",
          "name": "_governanceSettings",
          "type": "address"
        },
        {
          "internalType": "address",
          "name": "_initialGovernance",
          "type": "address"
        }
      ],
      "name": "initialise",
      "outputs": [],
      "stateMutability": "nonpayable",
      "type": "function"
    },
    {
      "inputs": [
        {
          "internalType": "address",
          "name": "_address",
          "type": "address"
        }
      ],
      "name": "isExecutor",
      "outputs": [
        {
          "internalType": "bool",
          "name": "",
          "type": "bool"
        }
      ],
      "stateMutability": "view",
      "type": "function"
    },
    {
      "inputs": [
        {
          "internalType": "contract IIAssetManager[]",
          "name": "_assetManagers",
          "type": "address[]"
        }
      ],
      "name": "pause",
      "outputs": [],
      "stateMutability": "nonpayable",
      "type": "function"
    },
    {
      "inputs": [],
      "name": "productionMode",
      "outputs": [
        {
          "internalType": "bool",
          "name": "",
          "type": "bool"
        }
      ],
      "stateMutability": "view",
      "type": "function"
    },
    {
      "inputs": [
        {
          "internalType": "contract IIAssetManager",
          "name": "_assetManager",
          "type": "address"
        }
      ],
      "name": "removeAssetManager",
      "outputs": [],
      "stateMutability": "nonpayable",
      "type": "function"
    },
    {
      "inputs": [],
      "name": "replacedBy",
      "outputs": [
        {
          "internalType": "address",
          "name": "",
          "type": "address"
        }
      ],
      "stateMutability": "view",
      "type": "function"
    },
    {
      "inputs": [
        {
          "internalType": "contract IIAssetManager[]",
          "name": "_assetManagers",
          "type": "address[]"
        },
        {
          "internalType": "uint256",
          "name": "_value",
          "type": "uint256"
        }
      ],
      "name": "setAgentCollateralRatioChangeTimelockSeconds",
      "outputs": [],
      "stateMutability": "nonpayable",
      "type": "function"
    },
    {
      "inputs": [
        {
          "internalType": "contract IIAssetManager[]",
          "name": "_assetManagers",
          "type": "address[]"
        },
        {
          "internalType": "uint256",
          "name": "_value",
          "type": "uint256"
        }
      ],
      "name": "setAgentExitAvailableTimelockSeconds",
      "outputs": [],
      "stateMutability": "nonpayable",
      "type": "function"
    },
    {
      "inputs": [
        {
          "internalType": "contract IIAssetManager[]",
          "name": "_assetManagers",
          "type": "address[]"
        },
        {
          "internalType": "uint256",
          "name": "_value",
          "type": "uint256"
        }
      ],
      "name": "setAgentFeeChangeTimelockSeconds",
      "outputs": [],
      "stateMutability": "nonpayable",
      "type": "function"
    },
    {
      "inputs": [
        {
          "internalType": "contract IIAssetManager[]",
          "name": "_assetManagers",
          "type": "address[]"
        },
        {
          "internalType": "address",
          "name": "_value",
          "type": "address"
        }
      ],
      "name": "setAgentVaultFactory",
      "outputs": [],
      "stateMutability": "nonpayable",
      "type": "function"
    },
    {
      "inputs": [
        {
          "internalType": "contract IIAssetManager[]",
          "name": "_assetManagers",
          "type": "address[]"
        },
        {
          "internalType": "address",
          "name": "_value",
          "type": "address"
        }
      ],
      "name": "setAgentWhitelist",
      "outputs": [],
      "stateMutability": "nonpayable",
      "type": "function"
    },
    {
      "inputs": [
        {
          "internalType": "contract IIAssetManager[]",
          "name": "_assetManagers",
          "type": "address[]"
        },
        {
          "internalType": "uint256",
          "name": "_value",
          "type": "uint256"
        }
      ],
      "name": "setAnnouncedUnderlyingConfirmationMinSeconds",
      "outputs": [],
      "stateMutability": "nonpayable",
      "type": "function"
    },
    {
      "inputs": [
        {
          "internalType": "contract IIAssetManager[]",
          "name": "_assetManagers",
          "type": "address[]"
        },
        {
          "internalType": "uint256",
          "name": "_value",
          "type": "uint256"
        }
      ],
      "name": "setAttestationWindowSeconds",
      "outputs": [],
      "stateMutability": "nonpayable",
      "type": "function"
    },
    {
      "inputs": [
        {
          "internalType": "contract IIAssetManager[]",
          "name": "_assetManagers",
          "type": "address[]"
        },
        {
          "internalType": "uint256",
          "name": "_value",
          "type": "uint256"
        }
      ],
      "name": "setCcbTimeSeconds",
      "outputs": [],
      "stateMutability": "nonpayable",
      "type": "function"
    },
    {
      "inputs": [
        {
          "internalType": "contract IIAssetManager[]",
          "name": "_assetManagers",
          "type": "address[]"
        },
        {
          "internalType": "uint256",
          "name": "_value",
          "type": "uint256"
        }
      ],
      "name": "setClass1BuyForFlareFactorBIPS",
      "outputs": [],
      "stateMutability": "nonpayable",
      "type": "function"
    },
    {
      "inputs": [
        {
          "internalType": "contract IIAssetManager[]",
          "name": "_assetManagers",
          "type": "address[]"
        },
        {
          "internalType": "address",
          "name": "_value",
          "type": "address"
        }
      ],
      "name": "setCollateralPoolFactory",
      "outputs": [],
      "stateMutability": "nonpayable",
      "type": "function"
    },
    {
      "inputs": [
        {
          "internalType": "contract IIAssetManager[]",
          "name": "_assetManagers",
          "type": "address[]"
        },
        {
          "internalType": "enum CollateralType.Class",
          "name": "_class",
          "type": "uint8"
        },
        {
          "internalType": "contract IERC20",
          "name": "_token",
          "type": "address"
        },
        {
          "internalType": "uint256",
          "name": "_minCollateralRatioBIPS",
          "type": "uint256"
        },
        {
          "internalType": "uint256",
          "name": "_ccbMinCollateralRatioBIPS",
          "type": "uint256"
        },
        {
          "internalType": "uint256",
          "name": "_safetyMinCollateralRatioBIPS",
          "type": "uint256"
        }
      ],
      "name": "setCollateralRatiosForToken",
      "outputs": [],
      "stateMutability": "nonpayable",
      "type": "function"
    },
    {
      "inputs": [
        {
          "internalType": "contract IIAssetManager[]",
          "name": "_assetManagers",
          "type": "address[]"
        },
        {
          "internalType": "uint256",
          "name": "_value",
          "type": "uint256"
        }
      ],
      "name": "setCollateralReservationFeeBips",
      "outputs": [],
      "stateMutability": "nonpayable",
      "type": "function"
    },
    {
      "inputs": [
        {
          "internalType": "contract IIAssetManager[]",
          "name": "_assetManagers",
          "type": "address[]"
        },
        {
          "internalType": "uint256",
          "name": "_value",
          "type": "uint256"
        }
      ],
      "name": "setConfirmationByOthersAfterSeconds",
      "outputs": [],
      "stateMutability": "nonpayable",
      "type": "function"
    },
    {
      "inputs": [
        {
          "internalType": "contract IIAssetManager[]",
          "name": "_assetManagers",
          "type": "address[]"
        },
        {
          "internalType": "uint256",
          "name": "_value",
          "type": "uint256"
        }
      ],
      "name": "setConfirmationByOthersRewardUSD5",
      "outputs": [],
      "stateMutability": "nonpayable",
      "type": "function"
    },
    {
      "inputs": [
        {
          "internalType": "contract IIAssetManager[]",
          "name": "_assetManagers",
          "type": "address[]"
        },
        {
          "internalType": "address",
          "name": "_liquidationStrategy",
          "type": "address"
        },
        {
          "internalType": "bytes",
          "name": "_encodedInitialSettings",
          "type": "bytes"
        }
      ],
      "name": "setLiquidationStrategy",
      "outputs": [],
      "stateMutability": "nonpayable",
      "type": "function"
    },
    {
      "inputs": [
        {
          "internalType": "contract IIAssetManager[]",
          "name": "_assetManagers",
          "type": "address[]"
        },
        {
          "internalType": "uint256",
          "name": "_value",
          "type": "uint256"
        }
      ],
      "name": "setLotSizeAmg",
      "outputs": [],
      "stateMutability": "nonpayable",
      "type": "function"
    },
    {
      "inputs": [
        {
          "internalType": "contract IIAssetManager[]",
          "name": "_assetManagers",
          "type": "address[]"
        },
        {
          "internalType": "uint256",
          "name": "_value",
          "type": "uint256"
        }
      ],
      "name": "setMaxRedeemedTickets",
      "outputs": [],
      "stateMutability": "nonpayable",
      "type": "function"
    },
    {
      "inputs": [
        {
          "internalType": "contract IIAssetManager[]",
          "name": "_assetManagers",
          "type": "address[]"
        },
        {
          "internalType": "uint256",
          "name": "_value",
          "type": "uint256"
        }
      ],
      "name": "setMaxTrustedPriceAgeSeconds",
      "outputs": [],
      "stateMutability": "nonpayable",
      "type": "function"
    },
    {
      "inputs": [
        {
          "internalType": "contract IIAssetManager[]",
          "name": "_assetManagers",
          "type": "address[]"
        },
        {
          "internalType": "uint256",
          "name": "_value",
          "type": "uint256"
        }
      ],
      "name": "setMinUnderlyingBackingBips",
      "outputs": [],
      "stateMutability": "nonpayable",
      "type": "function"
    },
    {
      "inputs": [
        {
          "internalType": "contract IIAssetManager[]",
          "name": "_assetManagers",
          "type": "address[]"
        },
        {
          "internalType": "uint256",
          "name": "_value",
          "type": "uint256"
        }
      ],
      "name": "setMinUpdateRepeatTimeSeconds",
      "outputs": [],
      "stateMutability": "nonpayable",
      "type": "function"
    },
    {
      "inputs": [
        {
          "internalType": "contract IIAssetManager[]",
          "name": "_assetManagers",
          "type": "address[]"
        },
        {
          "internalType": "uint256",
          "name": "_value",
          "type": "uint256"
        }
      ],
      "name": "setMintingCapAmg",
      "outputs": [],
      "stateMutability": "nonpayable",
      "type": "function"
    },
    {
      "inputs": [
        {
          "internalType": "contract IIAssetManager[]",
          "name": "_assetManagers",
          "type": "address[]"
        },
        {
          "internalType": "uint256",
          "name": "_value",
          "type": "uint256"
        }
      ],
      "name": "setMintingPoolHoldingsRequiredBIPS",
      "outputs": [],
      "stateMutability": "nonpayable",
      "type": "function"
    },
    {
      "inputs": [
        {
          "internalType": "contract IIAssetManager[]",
          "name": "_assetManagers",
          "type": "address[]"
        },
        {
          "internalType": "uint256",
          "name": "_rewardClass1Wei",
          "type": "uint256"
        },
        {
          "internalType": "uint256",
          "name": "_rewardBIPS",
          "type": "uint256"
        }
      ],
      "name": "setPaymentChallengeReward",
      "outputs": [],
      "stateMutability": "nonpayable",
      "type": "function"
    },
    {
      "inputs": [
        {
          "internalType": "contract IIAssetManager[]",
          "name": "_assetManagers",
          "type": "address[]"
        },
        {
          "components": [
            {
              "internalType": "enum CollateralType.Class",
              "name": "collateralClass",
              "type": "uint8"
            },
            {
              "internalType": "contract IERC20",
              "name": "token",
              "type": "address"
            },
            {
              "internalType": "uint256",
              "name": "decimals",
              "type": "uint256"
            },
            {
              "internalType": "uint256",
              "name": "validUntil",
              "type": "uint256"
            },
            {
              "internalType": "bool",
              "name": "directPricePair",
              "type": "bool"
            },
            {
              "internalType": "string",
              "name": "assetFtsoSymbol",
              "type": "string"
            },
            {
              "internalType": "string",
              "name": "tokenFtsoSymbol",
              "type": "string"
            },
            {
              "internalType": "uint256",
              "name": "minCollateralRatioBIPS",
              "type": "uint256"
            },
            {
              "internalType": "uint256",
              "name": "ccbMinCollateralRatioBIPS",
              "type": "uint256"
            },
            {
              "internalType": "uint256",
              "name": "safetyMinCollateralRatioBIPS",
              "type": "uint256"
            }
          ],
          "internalType": "struct CollateralType.Data",
          "name": "_data",
          "type": "tuple"
        }
      ],
      "name": "setPoolCollateralType",
      "outputs": [],
      "stateMutability": "nonpayable",
      "type": "function"
    },
    {
      "inputs": [
        {
          "internalType": "contract IIAssetManager[]",
          "name": "_assetManagers",
          "type": "address[]"
        },
        {
          "internalType": "uint256",
          "name": "_class1",
          "type": "uint256"
        },
        {
          "internalType": "uint256",
          "name": "_pool",
          "type": "uint256"
        }
      ],
      "name": "setRedemptionDefaultFactorBips",
      "outputs": [],
      "stateMutability": "nonpayable",
      "type": "function"
    },
    {
      "inputs": [
        {
          "internalType": "contract IIAssetManager[]",
          "name": "_assetManagers",
          "type": "address[]"
        },
        {
          "internalType": "uint256",
          "name": "_value",
          "type": "uint256"
        }
      ],
      "name": "setRedemptionFeeBips",
      "outputs": [],
      "stateMutability": "nonpayable",
      "type": "function"
    },
    {
      "inputs": [
        {
          "internalType": "contract IIAssetManager[]",
          "name": "_assetManagers",
          "type": "address[]"
        },
        {
          "internalType": "uint256",
          "name": "_underlyingBlocks",
          "type": "uint256"
        },
        {
          "internalType": "uint256",
          "name": "_underlyingSeconds",
          "type": "uint256"
        }
      ],
      "name": "setTimeForPayment",
      "outputs": [],
      "stateMutability": "nonpayable",
      "type": "function"
    },
    {
      "inputs": [
        {
          "internalType": "contract IIAssetManager[]",
          "name": "_assetManagers",
          "type": "address[]"
        },
        {
          "internalType": "uint256",
          "name": "_value",
          "type": "uint256"
        }
      ],
      "name": "setTokenInvalidationTimeMinSeconds",
      "outputs": [],
      "stateMutability": "nonpayable",
      "type": "function"
    },
    {
      "inputs": [
        {
          "internalType": "contract IIAssetManager[]",
          "name": "_assetManagers",
          "type": "address[]"
        },
        {
          "internalType": "address",
          "name": "_value",
          "type": "address"
        }
      ],
      "name": "setUnderlyingAddressValidator",
      "outputs": [],
      "stateMutability": "nonpayable",
      "type": "function"
    },
    {
      "inputs": [
        {
          "internalType": "contract IIAssetManager[]",
          "name": "_assetManagers",
          "type": "address[]"
        },
        {
          "internalType": "address",
          "name": "_value",
          "type": "address"
        }
      ],
      "name": "setWhitelist",
      "outputs": [],
      "stateMutability": "nonpayable",
      "type": "function"
    },
    {
      "inputs": [
        {
          "internalType": "contract IIAssetManager[]",
          "name": "_assetManagers",
          "type": "address[]"
        },
        {
          "internalType": "uint256",
          "name": "_value",
          "type": "uint256"
        }
      ],
      "name": "setWithdrawalOrDestroyWaitMinSeconds",
      "outputs": [],
      "stateMutability": "nonpayable",
      "type": "function"
    },
    {
      "inputs": [],
      "name": "switchToProductionMode",
      "outputs": [],
      "stateMutability": "nonpayable",
      "type": "function"
    },
    {
      "inputs": [
        {
          "internalType": "contract IIAssetManager[]",
          "name": "_assetManagers",
          "type": "address[]"
        }
      ],
      "name": "terminate",
      "outputs": [],
      "stateMutability": "nonpayable",
      "type": "function"
    },
    {
      "inputs": [
        {
          "internalType": "bytes4",
          "name": "",
          "type": "bytes4"
        }
      ],
      "name": "timelockedCalls",
      "outputs": [
        {
          "internalType": "uint256",
          "name": "allowedAfterTimestamp",
          "type": "uint256"
        },
        {
          "internalType": "bytes",
          "name": "encodedCall",
          "type": "bytes"
        }
      ],
      "stateMutability": "view",
      "type": "function"
    },
    {
      "inputs": [
        {
          "internalType": "contract IIAssetManager[]",
          "name": "_assetManagers",
          "type": "address[]"
        }
      ],
      "name": "unpause",
      "outputs": [],
      "stateMutability": "nonpayable",
      "type": "function"
    },
    {
      "inputs": [
        {
          "internalType": "bytes32[]",
          "name": "_contractNameHashes",
          "type": "bytes32[]"
        },
        {
          "internalType": "address[]",
          "name": "_contractAddresses",
          "type": "address[]"
        }
      ],
      "name": "updateContractAddresses",
      "outputs": [],
      "stateMutability": "nonpayable",
      "type": "function"
    },
    {
      "inputs": [
        {
          "internalType": "contract IIAssetManager[]",
          "name": "_assetManagers",
          "type": "address[]"
        },
        {
          "internalType": "bytes",
          "name": "_encodedSettings",
          "type": "bytes"
        }
      ],
      "name": "updateLiquidationStrategySettings",
      "outputs": [],
      "stateMutability": "nonpayable",
      "type": "function"
    }
  ],
  "bytecode": "0x60806040523480156200001157600080fd5b506040516200376a3803806200376a83398101604081905262000034916200020b565b80838362000043828262000079565b506200006f9050817f714f205b2abd25bef1d06a1af944e38c113fe6160375c4e1d6d5cf28848e771955565b505050506200025f565b600054600160a01b900460ff1615620000d95760405162461bcd60e51b815260206004820152601460248201527f696e697469616c6973656420213d2066616c736500000000000000000000000060448201526064015b60405180910390fd5b6001600160a01b038216620001315760405162461bcd60e51b815260206004820152601860248201527f676f7665726e616e63652073657474696e6773207a65726f00000000000000006044820152606401620000d0565b6001600160a01b0381166200017c5760405162461bcd60e51b815260206004820152601060248201526f5f676f7665726e616e6365207a65726f60801b6044820152606401620000d0565b600080546001600160a01b038481166001600160a81b031990921691909117600160a01b17909155600180549183166001600160a01b0319909216821790556040519081527f9789733827840833afc031fb2ef9ab6894271f77bad2085687cf4ae5c7bee4db9060200160405180910390a15050565b6001600160a01b03811681146200020857600080fd5b50565b6000806000606084860312156200022157600080fd5b83516200022e81620001f2565b60208501519093506200024181620001f2565b60408501519092506200025481620001f2565b809150509250925092565b6134fb806200026f6000396000f3fe608060405234801561001057600080fd5b50600436106103275760003560e01c80636f373f31116101b8578063b4c0a33311610104578063dede95f1116100a2578063eddaf2931161007c578063eddaf2931461072c578063ef88bf131461073f578063f5a9838314610752578063f81a9ce61461075a57600080fd5b8063dede95f1146106f2578063e17f212e14610705578063ec8e31611461071957600080fd5b8063bb6f41b3116100de578063bb6f41b3146106a6578063ccfb7911146106b9578063d3521ed6146106cc578063debfda30146106df57600080fd5b8063b4c0a3331461066b578063b577fc761461067e578063b87b82f01461069157600080fd5b80639755c6a711610171578063a391dd9c1161014b578063a391dd9c1461061f578063a82ee3d514610632578063aeb4155514610645578063b00c0b761461065857600080fd5b80639755c6a7146105e6578063987ea899146105f95780639e1508a11461060c57600080fd5b80636f373f311461053e57806374e6310e14610551578063758f07f2146105725780637ad62f51146105855780637e3566fe146105c05780638ca061d4146105d357600080fd5b806344944a9b116102775780635aa6e675116102305780635ff270791161020a5780635ff27079146104f257806362354e03146105055780636653d11e1461051857806367fc40291461052b57600080fd5b80635aa6e675146104c45780635b5bad73146104cc5780635cce89ea146104df57600080fd5b806344944a9b14610425578063479566061461043857806349ec14a81461044b5780634a79bc9f1461045e57806351241060146104715780635267a15d1461048457600080fd5b806320756671116102e45780632d5846da116102be5780632d5846da146103d95780632d8ced18146103ec57806334dc3932146103ff578063358bca771461041257600080fd5b806320756671146103a057806326a9055b146103b35780632aedabe4146103c657600080fd5b80630117d9871461032c5780630207aff214610341578063038214521461035457806305a1790a146103675780630a15f57b1461037a5780630a3eb8741461038d575b600080fd5b61033f61033a3660046129dd565b61076d565b005b61033f61034f3660046129dd565b6107f7565b61033f610362366004612a21565b610837565b61033f610375366004612a95565b6108db565b61033f610388366004612b00565b610981565b61033f61039b3660046129dd565b6109f1565b61033f6103ae3660046129dd565b610a31565b61033f6103c13660046129dd565b610a98565b61033f6103d43660046129dd565b610ad8565b61033f6103e73660046129dd565b610b18565b61033f6103fa366004612bb5565b610b58565b61033f61040d3660046129dd565b610bca565b61033f610420366004612c2c565b610c0a565b61033f610433366004612c50565b610e66565b61033f6104463660046129dd565b610eaf565b61033f610459366004612b00565b610eef565b61033f61046c366004612b00565b610f5f565b61033f61047f3660046129dd565b610fcf565b7f714f205b2abd25bef1d06a1af944e38c113fe6160375c4e1d6d5cf28848e7719545b6040516001600160a01b0390911681526020015b60405180910390f35b6104a761100f565b61033f6104da366004612a21565b6110ab565b61033f6104ed3660046129dd565b61114a565b61033f610500366004612c9d565b61118a565b6000546104a7906001600160a01b031681565b61033f6105263660046129dd565b61140f565b61033f610539366004612c9d565b61144f565b61033f61054c3660046129dd565b61152b565b61056461055f366004612c9d565b611592565b6040516104bb929190612d17565b61033f6105803660046129dd565b611637565b6105b0610593366004612c2c565b6001600160a01b0316600090815260046020526040902054151590565b60405190151581526020016104bb565b61033f6105ce3660046129dd565b611677565b61033f6105e1366004612d57565b6116b7565b61033f6105f4366004612a21565b611798565b61033f610607366004612c2c565b611837565b61033f61061a3660046129dd565b6119ac565b61033f61062d366004612c50565b611a13565b61033f6106403660046129dd565b611a83565b61033f6106533660046129dd565b611ac3565b61033f610666366004612e36565b611b03565b61033f610679366004612eee565b611bde565b6003546104a7906001600160a01b031681565b610699611c7b565b6040516104bb9190612f55565b61033f6106b4366004612b00565b611cdd565b61033f6106c73660046129dd565b611d4d565b61033f6106da366004612fa2565b611db4565b6105b06106ed366004612c2c565b611e0e565b61033f6107003660046129dd565b611e97565b6000546105b090600160a81b900460ff1681565b61033f610727366004612b00565b611ed7565b61033f61073a366004612c50565b611f47565b61033f61074d366004612ffb565b611f90565b61033f6120f6565b61033f610768366004612a95565b6121bc565b600054600160b01b900460ff168061078f5750600054600160a81b900460ff16155b156107ec5761079c61227c565b6107e8827fe5cbaf9388ab04e6a84ccb4d318b7411cf3cba5c27c08ff531f6cc63bd9f3d15836040516020016107d491815260200190565b6040516020818303038152906040526122b6565b5050565b6107e86000366123c5565b6107ff612511565b6107e8827fd074339531c0c426f419e40c630fba3e9e49d8640b542935b487a324e3fa6476836040516020016107d491815260200190565b61083f612511565b60005b818110156108d65782828281811061085c5761085c613029565b90506020020160208101906108719190612c2c565b6001600160a01b0316633f4ba83a6040518163ffffffff1660e01b8152600401600060405180830381600087803b1580156108ab57600080fd5b505af11580156108bf573d6000803e3d6000fd5b5050505080806108ce90613055565b915050610842565b505050565b6108e3612511565b60005b82518110156108d65761091183828151811061090457610904613029565b602002602001015161256b565b6001600160a01b031663eebbcd55836040518263ffffffff1660e01b815260040161093c919061311e565b600060405180830381600087803b15801561095657600080fd5b505af115801561096a573d6000803e3d6000fd5b50505050808061097990613055565b9150506108e6565b600054600160b01b900460ff16806109a35750600054600160a81b900460ff16155b156107ec576109b061227c565b604080516001600160a01b03831660208201526107e89184917fcdce216fbaf8c8bee089977160bdc219688d1abe6e3fb33445553b103748e42491016107d4565b6109f9612511565b6107e8827fdb8617d6427f99a93c9a0c29cea5de59ff5e46d6b670defb2621832b9ecf8e73836040516020016107d491815260200190565b600054600160b01b900460ff1680610a535750600054600160a81b900460ff16155b156107ec57610a6061227c565b6107e8827faf5f2b98f83ec754c2468c6f795cd14e63ea828a68b271c17461d623661e8d0c836040516020016107d491815260200190565b610aa0612511565b6107e8827f77eef583b25f73c60677890790c00fbf5ab5dc5b952b567609eab319437bf2fe836040516020016107d491815260200190565b610ae0612511565b6107e8827f568ae58ed29d3123b07c83375be93831571baa4efa6eca219a665b6edcce3bd2836040516020016107d491815260200190565b610b20612511565b6107e8827fdd64bd048b711cc14ce05eb540d2dbb9001521d5365cdac63643f90be13128a7836040516020016107d491815260200190565b600054600160b01b900460ff1680610b7a5750600054600160a81b900460ff16155b15610bbf57610b8761227c565b6108d6837f84afd878f1616875c56a72462a02c12689b2e62280ef7ba82a1027952f63e74a84846040516020016107d49291906131f9565b6108d66000366123c5565b610bd2612511565b6107e8827f9db27f55d4910a7a49292d8345f039e6266f7dc44269477125dfdf9c0a20bda2836040516020016107d491815260200190565b600054600160b01b900460ff1680610c2c5750600054600160a81b900460ff16155b15610e5857610c3961227c565b6001600160a01b03811660009081526004602052604081205490819003610c5e575050565b6000610c6b60018361321d565b600554909150600090610c809060019061321d565b905080821015610d3a5760058181548110610c9d57610c9d613029565b600091825260209091200154600580546001600160a01b039092169184908110610cc957610cc9613029565b600091825260209091200180546001600160a01b0319166001600160a01b0392909216919091179055610cfd826001613230565b6004600060058581548110610d1457610d14613029565b60009182526020808320909101546001600160a01b031683528201929092526040019020555b6005805480610d4b57610d4b613243565b60008281526020808220830160001990810180546001600160a01b03191690559092019092556001600160a01b0386168083526004808352604080852094909455835163f0c0b72560e01b815293513094929363f0c0b7259380840193919291908290030181865afa158015610dc5573d6000803e3d6000fd5b505050506040513d601f19601f82011682018060405250810190610de99190613259565b6001600160a01b031603610e525760405163b928b53360e01b8152600060048201526001600160a01b0385169063b928b53390602401600060405180830381600087803b158015610e3957600080fd5b505af1158015610e4d573d6000803e3d6000fd5b505050505b50505050565b610e636000366123c5565b50565b610e6e612511565b6108d6837f1529264fcbf2bf5cf598b2450b293923f6c0d9f9cdf587da5a1c31f05102bc0784846040516020016107d4929190918252602082015260400190565b610eb7612511565b6107e8827f47814c0626f9db4541c2626f398ce27bbf58b6f2fbe51e47c992fc40c99c2f14836040516020016107d491815260200190565b600054600160b01b900460ff1680610f115750600054600160a81b900460ff16155b156107ec57610f1e61227c565b604080516001600160a01b03831660208201526107e89184917fe498d6b20ac12df7861da18738e06e613460e9e0b360c7231b4f06a1656f21b591016107d4565b600054600160b01b900460ff1680610f815750600054600160a81b900460ff16155b156107ec57610f8e61227c565b604080516001600160a01b03831660208201526107e89184917f13d6a5e25fb62370430ae75c7288645ab675293a216337c6579449dae495ca0791016107d4565b610fd7612511565b6107e8827f5ac5c11e3be51a3b2f1c18cb30a2917c10f24fdee614a595d151c820e854756d836040516020016107d491815260200190565b60008054600160a81b900460ff1661103157506001546001600160a01b031690565b60008054906101000a90046001600160a01b03166001600160a01b031663732524946040518163ffffffff1660e01b8152600401602060405180830381865afa158015611082573d6000803e3d6000fd5b505050506040513d601f19601f820116820180604052508101906110a69190613259565b905090565b6110b3612511565b60005b818110156108d6578282828181106110d0576110d0613029565b90506020020160208101906110e59190612c2c565b6001600160a01b0316630c08bf886040518163ffffffff1660e01b8152600401600060405180830381600087803b15801561111f57600080fd5b505af1158015611133573d6000803e3d6000fd5b50505050808061114290613055565b9150506110b6565b611152612511565b6107e8827f3dcb30c522b719e41e182cfd89e7280d805977d0b4c728429d018c8f53aa054e836040516020016107d491815260200190565b61119333611e0e565b6111d45760405162461bcd60e51b815260206004820152600d60248201526c37b7363c9032bc32b1baba37b960991b60448201526064015b60405180910390fd5b6001600160e01b031981166000908152600260205260408120805490910361123e5760405162461bcd60e51b815260206004820152601a60248201527f74696d656c6f636b3a20696e76616c69642073656c6563746f7200000000000060448201526064016111cb565b805442101561128f5760405162461bcd60e51b815260206004820152601960248201527f74696d656c6f636b3a206e6f7420616c6c6f776564207965740000000000000060448201526064016111cb565b60008160010180546112a090613276565b80601f01602080910402602001604051908101604052809291908181526020018280546112cc90613276565b80156113195780601f106112ee57610100808354040283529160200191611319565b820191906000526020600020905b8154815290600101906020018083116112fc57829003601f168201915b505050506001600160e01b031985166000908152600260205260408120818155929350905061134b60018301826128a1565b50506000805460ff60b01b1916600160b01b17815560405130906113709084906132b0565b6000604051808303816000865af19150503d80600081146113ad576040519150601f19603f3d011682016040523d82523d6000602084013e6113b2565b606091505b50506000805460ff60b01b19169055604080516001600160e01b0319871681524260208201529192507fa7326b57fc9cfe267aaea5e7f0b01757154d265620a0585819416ee9ddd2c438910160405180910390a1610e52816125d2565b611417612511565b6107e8827f03712cb5e2d1c5642f03b2a87dfdae4e27edc4d29f6947bd887a176be288906e836040516020016107d491815260200190565b611457612511565b6001600160e01b0319811660009081526002602052604081205490036114bf5760405162461bcd60e51b815260206004820152601a60248201527f74696d656c6f636b3a20696e76616c69642073656c6563746f7200000000000060448201526064016111cb565b604080516001600160e01b0319831681524260208201527f7735b2391c38a81419c513e30ca578db7158eadd7101511b23e221c654d19cf8910160405180910390a16001600160e01b031981166000908152600260205260408120818155906108d660018301826128a1565b600054600160b01b900460ff168061154d5750600054600160a81b900460ff16155b156107ec5761155a61227c565b6107e8827f19b9b7f6661dcb1d2715cdf9121ac83302dfc1cb322f78ba457649a9860aa570836040516020016107d491815260200190565b600260205260009081526040902080546001820180549192916115b490613276565b80601f01602080910402602001604051908101604052809291908181526020018280546115e090613276565b801561162d5780601f106116025761010080835404028352916020019161162d565b820191906000526020600020905b81548152906001019060200180831161161057829003601f168201915b5050505050905082565b61163f612511565b6107e8827f578bfb3ec6febb59d8c59fbf6c5a3312bbb9570dd5f6a7265cf5c6fb1d227938836040516020016107d491815260200190565b61167f612511565b6107e8827ff9b9b44651521fa32e45f527b7392825f165c03571fd1485e7dc0e2a3e460a6f836040516020016107d491815260200190565b600054600160b01b900460ff16806116d95750600054600160a81b900460ff16155b15611785576116e661227c565b60005b865181101561177f5761170787828151811061090457610904613029565b6001600160a01b031663249f1b5987878787876040518663ffffffff1660e01b815260040161173a9594939291906132cc565b600060405180830381600087803b15801561175457600080fd5b505af1158015611768573d6000803e3d6000fd5b50505050808061177790613055565b9150506116e9565b50611790565b6117906000366123c5565b505050505050565b6117a0612511565b60005b818110156108d6578282828181106117bd576117bd613029565b90506020020160208101906117d29190612c2c565b6001600160a01b0316638456cb596040518163ffffffff1660e01b8152600401600060405180830381600087803b15801561180c57600080fd5b505af1158015611820573d6000803e3d6000fd5b50505050808061182f90613055565b9150506117a3565b600054600160b01b900460ff16806118595750600054600160a81b900460ff16155b15610e585761186661227c565b6001600160a01b0381166000908152600460205260408120549003610e6357600580546001810182557f036b6384b5eca791c62761152d0c79bb0604c104a5fb6f4eb0703f3154bb3db00180546001600160a01b0319166001600160a01b038416908117909155905460008281526004602081815260409283902093909355815163f0c0b72560e01b8152915130949363f0c0b7259380840193919291908290030181865afa15801561191d573d6000803e3d6000fd5b505050506040513d601f19601f820116820180604052508101906119419190613259565b6001600160a01b031603610e635760405163b928b53360e01b8152600160048201526001600160a01b0382169063b928b53390602401600060405180830381600087803b15801561199157600080fd5b505af11580156119a5573d6000803e3d6000fd5b5050505050565b600054600160b01b900460ff16806119ce5750600054600160a81b900460ff16155b156107ec576119db61227c565b6107e8827fd57d25c52236f43d429cb6932e0bdfb00c2fc7ee9aaddccd2ccee1b24a90e724836040516020016107d491815260200190565b600054600160b01b900460ff1680611a355750600054600160a81b900460ff16155b15610bbf57611a4261227c565b6108d6837f69b89e7ecda74b156ebb6553c166323512e616eb5e0a3d77b3e376086c891f7e84846040516020016107d4929190918252602082015260400190565b611a8b612511565b6107e8827fdfc5941748b75983d6817917ceea4fb882f2d1482879fb7842e0c15d7c0f2a81836040516020016107d491815260200190565b611acb612511565b6107e8827f2779aaaa0a4aba6761d05634679205836858e31b3d82fff3dc5a6b4b1f32c1a1836040516020016107d491815260200190565b7f714f205b2abd25bef1d06a1af944e38c113fe6160375c4e1d6d5cf28848e7719546001600160a01b0316336001600160a01b031614611b7c5760405162461bcd60e51b815260206004820152601460248201527337b7363c9030b2323932b9b9903ab83230ba32b960611b60448201526064016111cb565b611bd4611bb083836040518060400160405280600e81526020016d20b2323932b9b9aab83230ba32b960911b8152506125ef565b7f714f205b2abd25bef1d06a1af944e38c113fe6160375c4e1d6d5cf28848e771955565b6107e882826126ca565b611be6612511565b60005b84518110156119a557611c0785828151811061090457610904613029565b6001600160a01b03166313199ee08585856040518463ffffffff1660e01b8152600401611c3693929190613306565b600060405180830381600087803b158015611c5057600080fd5b505af1158015611c64573d6000803e3d6000fd5b505050508080611c7390613055565b915050611be9565b60606005805480602002602001604051908101604052809291908181526020018280548015611cd357602002820191906000526020600020905b81546001600160a01b03168152600190910190602001808311611cb5575b5050505050905090565b600054600160b01b900460ff1680611cff5750600054600160a81b900460ff16155b156107ec57611d0c61227c565b604080516001600160a01b03831660208201526107e89184917f6dd3d5890781dccec88a387799c9132d0552124a770d12680fb289cac28d77c491016107d4565b600054600160b01b900460ff1680611d6f5750600054600160a81b900460ff16155b156107ec57611d7c61227c565b6107e8827ff35653f1a2f3028179f583cb5399707d5358006fa6c9242ac649d0a1336c1a50836040516020016107d491815260200190565b600054600160b01b900460ff1680611dd65750600054600160a81b900460ff16155b156107ec57611de361227c565b6107e8827f3bc2131c3ff3dd5c528bcad0f54164e3b7c1f568a6eb5cd51f333272147ad1c8836122b6565b60008054600160a01b900460ff168015611e915750600054604051630debfda360e41b81526001600160a01b0384811660048301529091169063debfda3090602401602060405180830381865afa158015611e6d573d6000803e3d6000fd5b505050506040513d601f19601f82011682018060405250810190611e91919061332e565b92915050565b611e9f612511565b6107e8827f263685c89ecca5f576193f222d02951438094b3eb36a8911d113f03be5c9c891836040516020016107d491815260200190565b600054600160b01b900460ff1680611ef95750600054600160a81b900460ff16155b156107ec57611f0661227c565b604080516001600160a01b03831660208201526107e89184917f854cff2f06134808792749e4c9e6efde176603ff5656cbb2cda605578a5e6dc291016107d4565b611f4f612511565b6108d6837f68f224ba1b1345ef831341b77bb145c7ff885cf1c8ce6f35dfa089079d38dd1884846040516020016107d4929190918252602082015260400190565b600054600160a01b900460ff1615611fe15760405162461bcd60e51b8152602060048201526014602482015273696e697469616c6973656420213d2066616c736560601b60448201526064016111cb565b6001600160a01b0382166120375760405162461bcd60e51b815260206004820152601860248201527f676f7665726e616e63652073657474696e6773207a65726f000000000000000060448201526064016111cb565b6001600160a01b0381166120805760405162461bcd60e51b815260206004820152601060248201526f5f676f7665726e616e6365207a65726f60801b60448201526064016111cb565b600080546001600160a01b038481166001600160a81b031990921691909117600160a01b17909155600180549183166001600160a01b0319909216821790556040519081527f9789733827840833afc031fb2ef9ab6894271f77bad2085687cf4ae5c7bee4db9060200160405180910390a15050565b6120fe612511565b600054600160a81b900460ff16156121585760405162461bcd60e51b815260206004820152601a60248201527f616c726561647920696e2070726f64756374696f6e206d6f646500000000000060448201526064016111cb565b600180546001600160a01b031916905560008054600160a81b60ff60a81b198216179091556040516001600160a01b0390911681527f83af113638b5422f9e977cebc0aaf0eaf2188eb9a8baae7f9d46c42b33a1560c9060200160405180910390a1565b600054600160b01b900460ff16806121de5750600054600160a81b900460ff16155b156107ec576121eb61227c565b60005b82518110156108d65761220c83828151811061090457610904613029565b6001600160a01b031663672ab4e1836040518263ffffffff1660e01b8152600401612237919061311e565b600060405180830381600087803b15801561225157600080fd5b505af1158015612265573d6000803e3d6000fd5b50505050808061227490613055565b9150506121ee565b600054600160b01b900460ff16156122ac5733301461229d5761229d61334b565b6000805460ff60b01b19169055565b6122b4612511565b565b60005b8351811015610e525760008482815181106122d6576122d6613029565b6020026020010151905060046000826001600160a01b03166001600160a01b03168152602001908152602001600020546000036123515760405162461bcd60e51b8152602060048201526019602482015278105cdcd95d081b585b9859d95c881b9bdd081b585b9859d959603a1b60448201526064016111cb565b6040516378ce9e0360e11b81526001600160a01b0382169063f19d3c069061237f9087908790600401612d17565b600060405180830381600087803b15801561239957600080fd5b505af11580156123ad573d6000803e3d6000fd5b505050505080806123bd90613055565b9150506122b9565b6123cd612511565b6000805460408051636221a54b60e01b81529051853593926001600160a01b031691636221a54b9160048083019260209291908290030181865afa158015612419573d6000803e3d6000fd5b505050506040513d601f19601f8201168201806040525081019061243d9190613361565b9050600061244b8242613230565b9050604051806040016040528082815260200186868080601f01602080910402602001604051908101604052809392919081815260200183838082843760009201829052509390945250506001600160e01b031986168152600260209081526040909120835181559083015190915060018201906124c990826133c0565b509050507fed948300a3694aa01d4a6b258bfd664350193d770c0b51f8387277f6d83ea3b683828787604051612502949392919061347f565b60405180910390a15050505050565b61251961100f565b6001600160a01b0316336001600160a01b0316146122b45760405162461bcd60e51b815260206004820152600f60248201526e6f6e6c7920676f7665726e616e636560881b60448201526064016111cb565b6001600160a01b03811660009081526004602052604081205481036125ce5760405162461bcd60e51b8152602060048201526019602482015278105cdcd95d081b585b9859d95c881b9bdd081b585b9859d959603a1b60448201526064016111cb565b5090565b3d604051818101604052816000823e82156125eb578181f35b8181fd5b6000808260405160200161260391906134b2565b6040516020818303038152906040528051906020012090506000805b865181101561267b5786818151811061263a5761263a613029565b602002602001015183036126695785818151811061265a5761265a613029565b6020026020010151915061267b565b8061267381613055565b91505061261f565b506001600160a01b0381166126c15760405162461bcd60e51b815260206004820152600c60248201526b61646472657373207a65726f60a01b60448201526064016111cb565b95945050505050565b600061270583836040518060400160405280601681526020017520b9b9b2ba26b0b730b3b2b921b7b73a3937b63632b960511b8152506125ef565b9050600061273d848460405180604001604052806011815260200170105d1d195cdd185d1a5bdb90db1a595b9d607a1b8152506125ef565b9050600061277085856040518060400160405280600c81526020016b4674736f526567697374727960a01b8152506125ef565b905060005b60055481101561286c5760006005828154811061279457612794613029565b60009182526020918290200154604080516001600160a01b038981169482019490945287841691810191909152858316606082015291169150819063f19d3c06907f6dca4d44367e2ad868aa3601dfd9342c4f633d7e1954d1869990940e41ed1840906080016040516020818303038152906040526040518363ffffffff1660e01b8152600401612826929190612d17565b600060405180830381600087803b15801561284057600080fd5b505af1158015612854573d6000803e3d6000fd5b5050505050808061286490613055565b915050612775565b506001600160a01b03831630146119a557600380546001600160a01b0385166001600160a01b03199091161790555050505050565b5080546128ad90613276565b6000825580601f106128bd575050565b601f016020900490600052602060002090810190610e6391905b808211156125ce57600081556001016128d7565b634e487b7160e01b600052604160045260246000fd5b604051601f8201601f191681016001600160401b0381118282101715612929576129296128eb565b604052919050565b60006001600160401b0382111561294a5761294a6128eb565b5060051b60200190565b6001600160a01b0381168114610e6357600080fd5b600082601f83011261297a57600080fd5b8135602061298f61298a83612931565b612901565b82815260059290921b840181019181810190868411156129ae57600080fd5b8286015b848110156129d25780356129c581612954565b83529183019183016129b2565b509695505050505050565b600080604083850312156129f057600080fd5b82356001600160401b03811115612a0657600080fd5b612a1285828601612969565b95602094909401359450505050565b60008060208385031215612a3457600080fd5b82356001600160401b0380821115612a4b57600080fd5b818501915085601f830112612a5f57600080fd5b813581811115612a6e57600080fd5b8660208260051b8501011115612a8357600080fd5b60209290920196919550909350505050565b60008060408385031215612aa857600080fd5b82356001600160401b0380821115612abf57600080fd5b612acb86838701612969565b93506020850135915080821115612ae157600080fd5b5083016101408186031215612af557600080fd5b809150509250929050565b60008060408385031215612b1357600080fd5b82356001600160401b03811115612b2957600080fd5b612b3585828601612969565b9250506020830135612af581612954565b600082601f830112612b5757600080fd5b81356001600160401b03811115612b7057612b706128eb565b612b83601f8201601f1916602001612901565b818152846020838601011115612b9857600080fd5b816020850160208301376000918101602001919091529392505050565b600080600060608486031215612bca57600080fd5b83356001600160401b0380821115612be157600080fd5b612bed87838801612969565b945060208601359150612bff82612954565b90925060408501359080821115612c1557600080fd5b50612c2286828701612b46565b9150509250925092565b600060208284031215612c3e57600080fd5b8135612c4981612954565b9392505050565b600080600060608486031215612c6557600080fd5b83356001600160401b03811115612c7b57600080fd5b612c8786828701612969565b9660208601359650604090950135949350505050565b600060208284031215612caf57600080fd5b81356001600160e01b031981168114612c4957600080fd5b60005b83811015612ce2578181015183820152602001612cca565b50506000910152565b60008151808452612d03816020860160208601612cc7565b601f01601f19169290920160200192915050565b828152604060208201526000612d306040830184612ceb565b949350505050565b803560038110612d4757600080fd5b919050565b8035612d4781612954565b60008060008060008060c08789031215612d7057600080fd5b86356001600160401b03811115612d8657600080fd5b612d9289828a01612969565b965050612da160208801612d38565b94506040870135612db181612954565b959894975094956060810135955060808101359460a0909101359350915050565b600082601f830112612de357600080fd5b81356020612df361298a83612931565b82815260059290921b84018101918181019086841115612e1257600080fd5b8286015b848110156129d2578035612e2981612954565b8352918301918301612e16565b60008060408385031215612e4957600080fd5b82356001600160401b0380821115612e6057600080fd5b818501915085601f830112612e7457600080fd5b81356020612e8461298a83612931565b82815260059290921b84018101918181019089841115612ea357600080fd5b948201945b83861015612ec157853582529482019490820190612ea8565b96505086013592505080821115612ed757600080fd5b50612ee485828601612dd2565b9150509250929050565b60008060008060808587031215612f0457600080fd5b84356001600160401b03811115612f1a57600080fd5b612f2687828801612969565b945050612f3560208601612d38565b92506040850135612f4581612954565b9396929550929360600135925050565b6020808252825182820181905260009190848201906040850190845b81811015612f965783516001600160a01b031683529284019291840191600101612f71565b50909695505050505050565b60008060408385031215612fb557600080fd5b82356001600160401b0380821115612fcc57600080fd5b612fd886838701612969565b93506020850135915080821115612fee57600080fd5b50612ee485828601612b46565b6000806040838503121561300e57600080fd5b823561301981612954565b91506020830135612af581612954565b634e487b7160e01b600052603260045260246000fd5b634e487b7160e01b600052601160045260246000fd5b6000600182016130675761306761303f565b5060010190565b6003811061308c57634e487b7160e01b600052602160045260246000fd5b9052565b8015158114610e6357600080fd5b8035612d4781613090565b6000808335601e198436030181126130c057600080fd5b83016020810192503590506001600160401b038111156130df57600080fd5b8036038213156130ee57600080fd5b9250929050565b81835281816020850137506000828201602090810191909152601f909101601f19169091010190565b602081526131376020820161313284612d38565b61306e565b600061314560208401612d4c565b6001600160a01b03811660408401525060408301356060830152606083013560808301526131756080840161309e565b80151560a08401525061318b60a08401846130a9565b6101408060c08601526131a3610160860183856130f5565b92506131b260c08701876130a9565b868503601f190160e088015292506131cb8484836130f5565b60e0880135610100888101919091528801356101208089019190915290970135919095015250929392505050565b6001600160a01b0383168152604060208201819052600090612d3090830184612ceb565b81810381811115611e9157611e9161303f565b80820180821115611e9157611e9161303f565b634e487b7160e01b600052603160045260246000fd5b60006020828403121561326b57600080fd5b8151612c4981612954565b600181811c9082168061328a57607f821691505b6020821081036132aa57634e487b7160e01b600052602260045260246000fd5b50919050565b600082516132c2818460208701612cc7565b9190910192915050565b60a081016132da828861306e565b6001600160a01b0395909516602082015260408101939093526060830191909152608090910152919050565b60608101613314828661306e565b6001600160a01b0393909316602082015260400152919050565b60006020828403121561334057600080fd5b8151612c4981613090565b634e487b7160e01b600052600160045260246000fd5b60006020828403121561337357600080fd5b5051919050565b601f8211156108d657600081815260208120601f850160051c810160208610156133a15750805b601f850160051c820191505b81811015611790578281556001016133ad565b81516001600160401b038111156133d9576133d96128eb565b6133ed816133e78454613276565b8461337a565b602080601f831160018114613422576000841561340a5750858301515b600019600386901b1c1916600185901b178555611790565b600085815260208120601f198616915b8281101561345157888601518255948401946001909101908401613432565b508582101561346f5787850151600019600388901b60f8161c191681555b5050505050600190811b01905550565b63ffffffff60e01b851681528360208201526060604082015260006134a86060830184866130f5565b9695505050505050565b602081526000612c496020830184612ceb56fea264697066735822122041bfa84312b99c9ea7bf5de90e3f88eb5004dc73b385eb30e66ddd5c2122e05664736f6c63430008140033",
  "linkReferences": {},
  "deployedLinkReferences": {}
}