{
  "_format": "hh-sol-artifact-1",
  "contractName": "FakeERC20",
  "sourceName": "contracts/assetManager/mock/FakeERC20.sol",
  "abi": [
    {
      "inputs": [
        {
          "internalType": "contract IGovernanceSettings",
          "name": "_governanceSettings",
          "type": "address"
        },
        {
          "internalType": "address",
          "name": "_initialGovernance",
          "type": "address"
        },
        {
          "internalType": "string",
          "name": "_name",
          "type": "string"
        },
        {
          "internalType": "string",
          "name": "_symbol",
          "type": "string"
        },
        {
          "internalType": "uint8",
          "name": "_decimals",
          "type": "uint8"
        }
      ],
      "stateMutability": "nonpayable",
      "type": "constructor"
    },
    {
      "anonymous": false,
      "inputs": [
        {
          "indexed": true,
          "internalType": "address",
          "name": "owner",
          "type": "address"
        },
        {
          "indexed": true,
          "internalType": "address",
          "name": "spender",
          "type": "address"
        },
        {
          "indexed": false,
          "internalType": "uint256",
          "name": "value",
          "type": "uint256"
        }
      ],
      "name": "Approval",
      "type": "event"
    },
    {
      "anonymous": false,
      "inputs": [
        {
          "indexed": false,
          "internalType": "bytes",
          "name": "encodedCall",
          "type": "bytes"
        },
        {
          "indexed": false,
          "internalType": "bytes32",
          "name": "encodedCallHash",
          "type": "bytes32"
        },
        {
          "indexed": false,
          "internalType": "uint256",
          "name": "allowedAfterTimestamp",
          "type": "uint256"
        }
      ],
      "name": "GovernanceCallTimelocked",
      "type": "event"
    },
    {
      "anonymous": false,
      "inputs": [
        {
          "indexed": false,
          "internalType": "address",
          "name": "initialGovernance",
          "type": "address"
        }
      ],
      "name": "GovernanceInitialised",
      "type": "event"
    },
    {
      "anonymous": false,
      "inputs": [
        {
          "indexed": false,
          "internalType": "address",
          "name": "governanceSettings",
          "type": "address"
        }
      ],
      "name": "GovernedProductionModeEntered",
      "type": "event"
    },
    {
      "anonymous": false,
      "inputs": [
        {
          "indexed": false,
          "internalType": "bytes32",
          "name": "encodedCallHash",
          "type": "bytes32"
        }
      ],
      "name": "TimelockedGovernanceCallCanceled",
      "type": "event"
    },
    {
      "anonymous": false,
      "inputs": [
        {
          "indexed": false,
          "internalType": "bytes32",
          "name": "encodedCallHash",
          "type": "bytes32"
        }
      ],
      "name": "TimelockedGovernanceCallExecuted",
      "type": "event"
    },
    {
      "anonymous": false,
      "inputs": [
        {
          "indexed": true,
          "internalType": "address",
          "name": "from",
          "type": "address"
        },
        {
          "indexed": true,
          "internalType": "address",
          "name": "to",
          "type": "address"
        },
        {
          "indexed": false,
          "internalType": "uint256",
          "name": "value",
          "type": "uint256"
        }
      ],
      "name": "Transfer",
      "type": "event"
    },
    {
      "inputs": [
        {
          "internalType": "address",
          "name": "owner",
          "type": "address"
        },
        {
          "internalType": "address",
          "name": "spender",
          "type": "address"
        }
      ],
      "name": "allowance",
      "outputs": [
        {
          "internalType": "uint256",
          "name": "",
          "type": "uint256"
        }
      ],
      "stateMutability": "view",
      "type": "function"
    },
    {
      "inputs": [
        {
          "internalType": "address",
          "name": "spender",
          "type": "address"
        },
        {
          "internalType": "uint256",
          "name": "amount",
          "type": "uint256"
        }
      ],
      "name": "approve",
      "outputs": [
        {
          "internalType": "bool",
          "name": "",
          "type": "bool"
        }
      ],
      "stateMutability": "nonpayable",
      "type": "function"
    },
    {
      "inputs": [
        {
          "internalType": "address",
          "name": "account",
          "type": "address"
        }
      ],
      "name": "balanceOf",
      "outputs": [
        {
          "internalType": "uint256",
          "name": "",
          "type": "uint256"
        }
      ],
      "stateMutability": "view",
      "type": "function"
    },
    {
      "inputs": [
        {
          "internalType": "uint256",
          "name": "_amount",
          "type": "uint256"
        }
      ],
      "name": "burnAmount",
      "outputs": [],
      "stateMutability": "nonpayable",
      "type": "function"
    },
    {
      "inputs": [
        {
          "internalType": "bytes",
          "name": "_encodedCall",
          "type": "bytes"
        }
      ],
      "name": "cancelGovernanceCall",
      "outputs": [],
      "stateMutability": "nonpayable",
      "type": "function"
    },
    {
      "inputs": [],
      "name": "decimals",
      "outputs": [
        {
          "internalType": "uint8",
          "name": "",
          "type": "uint8"
        }
      ],
      "stateMutability": "view",
      "type": "function"
    },
    {
      "inputs": [
        {
          "internalType": "address",
          "name": "spender",
          "type": "address"
        },
        {
          "internalType": "uint256",
          "name": "subtractedValue",
          "type": "uint256"
        }
      ],
      "name": "decreaseAllowance",
      "outputs": [
        {
          "internalType": "bool",
          "name": "",
          "type": "bool"
        }
      ],
      "stateMutability": "nonpayable",
      "type": "function"
    },
    {
      "inputs": [
        {
          "internalType": "bytes",
          "name": "_encodedCall",
          "type": "bytes"
        }
      ],
      "name": "executeGovernanceCall",
      "outputs": [],
      "stateMutability": "nonpayable",
      "type": "function"
    },
    {
      "inputs": [],
      "name": "governance",
      "outputs": [
        {
          "internalType": "address",
          "name": "",
          "type": "address"
        }
      ],
      "stateMutability": "view",
      "type": "function"
    },
    {
      "inputs": [],
      "name": "governanceSettings",
      "outputs": [
        {
          "internalType": "contract IGovernanceSettings",
          "name": "",
          "type": "address"
        }
      ],
      "stateMutability": "view",
      "type": "function"
    },
    {
      "inputs": [
        {
          "internalType": "address",
          "name": "spender",
          "type": "address"
        },
        {
          "internalType": "uint256",
          "name": "addedValue",
          "type": "uint256"
        }
      ],
      "name": "increaseAllowance",
      "outputs": [
        {
          "internalType": "bool",
          "name": "",
          "type": "bool"
        }
      ],
      "stateMutability": "nonpayable",
      "type": "function"
    },
    {
      "inputs": [
        {
          "internalType": "contract IGovernanceSettings",
          "name": "_governanceSettings",
          "type": "address"
        },
        {
          "internalType": "address",
          "name": "_initialGovernance",
          "type": "address"
        }
      ],
      "name": "initialise",
      "outputs": [],
      "stateMutability": "nonpayable",
      "type": "function"
    },
    {
      "inputs": [
        {
          "internalType": "address",
          "name": "_address",
          "type": "address"
        }
      ],
      "name": "isExecutor",
      "outputs": [
        {
          "internalType": "bool",
          "name": "",
          "type": "bool"
        }
      ],
      "stateMutability": "view",
      "type": "function"
    },
    {
      "inputs": [
        {
          "internalType": "address",
          "name": "_target",
          "type": "address"
        },
        {
          "internalType": "uint256",
          "name": "amount",
          "type": "uint256"
        }
      ],
      "name": "mintAmount",
      "outputs": [],
      "stateMutability": "nonpayable",
      "type": "function"
    },
    {
      "inputs": [],
      "name": "name",
      "outputs": [
        {
          "internalType": "string",
          "name": "",
          "type": "string"
        }
      ],
      "stateMutability": "view",
      "type": "function"
    },
    {
      "inputs": [],
      "name": "productionMode",
      "outputs": [
        {
          "internalType": "bool",
          "name": "",
          "type": "bool"
        }
      ],
      "stateMutability": "view",
      "type": "function"
    },
    {
      "inputs": [
        {
          "internalType": "bytes4",
          "name": "_interfaceId",
          "type": "bytes4"
        }
      ],
      "name": "supportsInterface",
      "outputs": [
        {
          "internalType": "bool",
          "name": "",
          "type": "bool"
        }
      ],
      "stateMutability": "pure",
      "type": "function"
    },
    {
      "inputs": [],
      "name": "switchToProductionMode",
      "outputs": [],
      "stateMutability": "nonpayable",
      "type": "function"
    },
    {
      "inputs": [],
      "name": "symbol",
      "outputs": [
        {
          "internalType": "string",
          "name": "",
          "type": "string"
        }
      ],
      "stateMutability": "view",
      "type": "function"
    },
    {
      "inputs": [],
      "name": "totalSupply",
      "outputs": [
        {
          "internalType": "uint256",
          "name": "",
          "type": "uint256"
        }
      ],
      "stateMutability": "view",
      "type": "function"
    },
    {
      "inputs": [
        {
          "internalType": "address",
          "name": "to",
          "type": "address"
        },
        {
          "internalType": "uint256",
          "name": "amount",
          "type": "uint256"
        }
      ],
      "name": "transfer",
      "outputs": [
        {
          "internalType": "bool",
          "name": "",
          "type": "bool"
        }
      ],
      "stateMutability": "nonpayable",
      "type": "function"
    },
    {
      "inputs": [
        {
          "internalType": "address",
          "name": "from",
          "type": "address"
        },
        {
          "internalType": "address",
          "name": "to",
          "type": "address"
        },
        {
          "internalType": "uint256",
          "name": "amount",
          "type": "uint256"
        }
      ],
      "name": "transferFrom",
      "outputs": [
        {
          "internalType": "bool",
          "name": "",
          "type": "bool"
        }
      ],
      "stateMutability": "nonpayable",
      "type": "function"
    }
  ],
  "bytecode": "0x60a06040523480156200001157600080fd5b5060405162001b8938038062001b898339810160408190526200003491620002f7565b84848484600362000046838262000439565b50600462000055828262000439565b5050506200006a82826200007d60201b60201c565b505060ff16608052506200050592505050565b7f2aa47ee5db910f3b2a06970c443249cc77dbd9f96100cfebc1775ab7fb1d18248054600160a01b900460ff1615620000fd5760405162461bcd60e51b815260206004820152601460248201527f696e697469616c6973656420213d2066616c736500000000000000000000000060448201526064015b60405180910390fd5b6001600160a01b038316620001555760405162461bcd60e51b815260206004820152601860248201527f676f7665726e616e63652073657474696e6773207a65726f00000000000000006044820152606401620000f4565b6001600160a01b038216620001a05760405162461bcd60e51b815260206004820152601060248201526f5f676f7665726e616e6365207a65726f60801b6044820152606401620000f4565b80546001600160a01b038481166001600160a81b031990921691909117600160a01b1782556001820180549184166001600160a01b0319909216821790556040519081527f9789733827840833afc031fb2ef9ab6894271f77bad2085687cf4ae5c7bee4db9060200160405180910390a1505050565b6001600160a01b03811681146200022c57600080fd5b50565b634e487b7160e01b600052604160045260246000fd5b600082601f8301126200025757600080fd5b81516001600160401b03808211156200027457620002746200022f565b604051601f8301601f19908116603f011681019082821181831017156200029f576200029f6200022f565b8160405283815260209250866020858801011115620002bd57600080fd5b600091505b83821015620002e15785820183015181830184015290820190620002c2565b6000602085830101528094505050505092915050565b600080600080600060a086880312156200031057600080fd5b85516200031d8162000216565b6020870151909550620003308162000216565b60408701519094506001600160401b03808211156200034e57600080fd5b6200035c89838a0162000245565b945060608801519150808211156200037357600080fd5b50620003828882890162000245565b925050608086015160ff811681146200039a57600080fd5b809150509295509295909350565b600181811c90821680620003bd57607f821691505b602082108103620003de57634e487b7160e01b600052602260045260246000fd5b50919050565b601f82111562000434576000816000526020600020601f850160051c810160208610156200040f5750805b601f850160051c820191505b8181101562000430578281556001016200041b565b5050505b505050565b81516001600160401b038111156200045557620004556200022f565b6200046d81620004668454620003a8565b84620003e4565b602080601f831160018114620004a557600084156200048c5750858301515b600019600386901b1c1916600185901b17855562000430565b600085815260208120601f198616915b82811015620004d657888601518255948401946001909101908401620004b5565b5085821015620004f55787850151600019600388901b60f8161c191681555b5050505050600190811b01905550565b6080516116686200052160003960006101fe01526116686000f3fe608060405234801561001057600080fd5b50600436106101425760003560e01c806362354e03116100b8578063a9059cbb1161007c578063a9059cbb146102d0578063dd62ed3e146102e3578063debfda30146102f6578063e17f212e14610309578063ef88bf1314610328578063f5a983831461033b57600080fd5b806362354e031461025b5780636fafdf831461027957806370a082311461028c57806395d89b41146102b5578063a457c2d7146102bd57600080fd5b806318160ddd1161010a57806318160ddd146101bf57806320c5f99d146101d157806323b872dd146101e4578063313ce567146101f757806339509351146102285780635aa6e6751461023b57600080fd5b806301ffc9a71461014757806306fdde031461016f578063095ea7b3146101845780630e583dd21461019757806316fc2f6d146101ac575b600080fd5b61015a61015536600461131d565b610343565b60405190151581526020015b60405180910390f35b610177610395565b6040516101669190611347565b61015a6101923660046113ab565b610427565b6101aa6101a53660046113ab565b61043f565b005b6101aa6101ba3660046113d7565b61046f565b6002545b604051908152602001610166565b6101aa6101df3660046113d7565b610557565b61015a6101f2366004611449565b610746565b60405160ff7f0000000000000000000000000000000000000000000000000000000000000000168152602001610166565b61015a6102363660046113ab565b61076a565b61024361078c565b6040516001600160a01b039091168152602001610166565b600080516020611613833981519152546001600160a01b0316610243565b6101aa61028736600461148a565b610835565b6101c361029a3660046114a3565b6001600160a01b031660009081526020819052604090205490565b610177610842565b61015a6102cb3660046113ab565b610851565b61015a6102de3660046113ab565b6108cc565b6101c36102f13660046114c0565b6108da565b61015a6103043660046114a3565b610905565b60008051602061161383398151915254600160a81b900460ff1661015a565b6101aa6103363660046114c0565b61099f565b6101aa610b13565b60006001600160e01b031982166301ffc9a760e01b148061037457506001600160e01b031982166336372b0760e01b145b8061038f57506001600160e01b0319821663a219a02560e01b145b92915050565b6060600380546103a4906114f9565b80601f01602080910402602001604051908101604052809291908181526020018280546103d0906114f9565b801561041d5780601f106103f25761010080835404028352916020019161041d565b820191906000526020600020905b81548152906001019060200180831161040057829003601f168201915b5050505050905090565b600033610435818585610be7565b5060019392505050565b610447610d0c565b1561046257610454610d42565b61045e8282610d86565b5050565b61045e6000366000610e45565b610477610f5c565b6040516000805160206116138339815191529060009061049a9085908590611533565b604051809103902090508160020160008281526020019081526020016000205460000361050e5760405162461bcd60e51b815260206004820152601a60248201527f74696d656c6f636b3a20696e76616c69642073656c6563746f7200000000000060448201526064015b60405180910390fd5b6040518181527f69b058d6225c01c1f2a25801ca5b05705fa2e9118e93d518390ba804398c87b19060200160405180910390a16000908152600290910160205260408120555050565b60008051602061161383398151915261056f33610905565b6105ab5760405162461bcd60e51b815260206004820152600d60248201526c37b7363c9032bc32b1baba37b960991b6044820152606401610505565b600083836040516105bd929190611533565b6040805191829003909120600081815260028501602052918220549092509081900361062b5760405162461bcd60e51b815260206004820152601a60248201527f74696d656c6f636b3a20696e76616c69642073656c6563746f720000000000006044820152606401610505565b8042101561067b5760405162461bcd60e51b815260206004820152601960248201527f74696d656c6f636b3a206e6f7420616c6c6f77656420796574000000000000006044820152606401610505565b6000828152600284016020526040808220829055845460ff60b01b1916600160b01b1785555130906106b09088908890611533565b6000604051808303816000865af19150503d80600081146106ed576040519150601f19603f3d011682016040523d82523d6000602084013e6106f2565b606091505b5050845460ff60b01b191685556040518481529091507fec1225e5a8a8acb91e03ce648c683c74f5d152a775b9715980999441d714c44f9060200160405180910390a161073e81610fb8565b505050505050565b600033610754858285610fd5565b61075f85858561104f565b506001949350505050565b60003361043581858561077d83836108da565b6107879190611543565b610be7565b600080516020611613833981519152805460009190600160a81b900460ff166107c25760018101546001600160a01b031661082f565b805460408051631cc9492560e21b815290516001600160a01b03909216916373252494916004808201926020929091908290030181865afa15801561080b573d6000803e3d6000fd5b505050506040513d601f19601f8201168201806040525081019061082f9190611564565b91505090565b61083f33826111f3565b50565b6060600480546103a4906114f9565b6000338161085f82866108da565b9050838110156108bf5760405162461bcd60e51b815260206004820152602560248201527f45524332303a2064656372656173656420616c6c6f77616e63652062656c6f77604482015264207a65726f60d81b6064820152608401610505565b61075f8286868403610be7565b60003361043581858561104f565b6001600160a01b03918216600090815260016020908152604080832093909416825291909152205490565b600080516020611613833981519152805460009190600160a01b900460ff16801561099857508054604051630debfda360e41b81526001600160a01b0385811660048301529091169063debfda3090602401602060405180830381865afa158015610974573d6000803e3d6000fd5b505050506040513d601f19601f820116820180604052508101906109989190611581565b9392505050565b6000805160206116138339815191528054600160a01b900460ff16156109fe5760405162461bcd60e51b8152602060048201526014602482015273696e697469616c6973656420213d2066616c736560601b6044820152606401610505565b6001600160a01b038316610a545760405162461bcd60e51b815260206004820152601860248201527f676f7665726e616e63652073657474696e6773207a65726f00000000000000006044820152606401610505565b6001600160a01b038216610a9d5760405162461bcd60e51b815260206004820152601060248201526f5f676f7665726e616e6365207a65726f60801b6044820152606401610505565b80546001600160a01b038481166001600160a81b031990921691909117600160a01b1782556001820180549184166001600160a01b0319909216821790556040519081527f9789733827840833afc031fb2ef9ab6894271f77bad2085687cf4ae5c7bee4db9060200160405180910390a1505050565b610b1b610f5c565b6000805160206116138339815191528054600160a81b900460ff1615610b835760405162461bcd60e51b815260206004820152601a60248201527f616c726561647920696e2070726f64756374696f6e206d6f64650000000000006044820152606401610505565b6001810180546001600160a01b03191690558054600160a81b60ff60a81b1982161782556040516001600160a01b0390911681527f83af113638b5422f9e977cebc0aaf0eaf2188eb9a8baae7f9d46c42b33a1560c9060200160405180910390a150565b6001600160a01b038316610c495760405162461bcd60e51b8152602060048201526024808201527f45524332303a20617070726f76652066726f6d20746865207a65726f206164646044820152637265737360e01b6064820152608401610505565b6001600160a01b038216610caa5760405162461bcd60e51b815260206004820152602260248201527f45524332303a20617070726f766520746f20746865207a65726f206164647265604482015261737360f01b6064820152608401610505565b6001600160a01b0383811660008181526001602090815260408083209487168084529482529182902085905590518481527f8c5be1e5ebec7d5bd14f71427d1e84f3dd0314c0f7b2291e5b200ac8c7c3b92591015b60405180910390a3505050565b600080516020611613833981519152805460009190600160b01b900460ff168061082f575054600160a81b900460ff1615919050565b6000805160206116138339815191528054600160b01b900460ff1615610d7e57333014610d7157610d716115a3565b805460ff60b01b19169055565b61083f610f5c565b6001600160a01b038216610ddc5760405162461bcd60e51b815260206004820152601f60248201527f45524332303a206d696e7420746f20746865207a65726f2061646472657373006044820152606401610505565b8060026000828254610dee9190611543565b90915550506001600160a01b038216600081815260208181526040808320805486019055518481527fddf252ad1be2c89b69c2b068fc378daa952ba7f163c4a11628f55a4df523b3ef910160405180910390a35050565b600080516020611613833981519152610e5c610f5c565b60008484604051610e6e929190611533565b604080519182900382208454636221a54b60e01b845291519093506000926001600160a01b0390921691636221a54b9160048083019260209291908290030181865afa158015610ec2573d6000803e3d6000fd5b505050506040513d601f19601f82011682018060405250810190610ee691906115b9565b905083811015610ef35750825b6000610eff8242611543565b600084815260028601602052604090819020829055519091507f8c02104dfc280f713854f25297de671710c544c58de69dbde8fb66974ce1ab9e90610f4b9089908990879086906115d2565b60405180910390a150505050505050565b610f6461078c565b6001600160a01b0316336001600160a01b031614610fb65760405162461bcd60e51b815260206004820152600f60248201526e6f6e6c7920676f7665726e616e636560881b6044820152606401610505565b565b3d604051818101604052816000823e8215610fd1578181f35b8181fd5b6000610fe184846108da565b90506000198114611049578181101561103c5760405162461bcd60e51b815260206004820152601d60248201527f45524332303a20696e73756666696369656e7420616c6c6f77616e63650000006044820152606401610505565b6110498484848403610be7565b50505050565b6001600160a01b0383166110b35760405162461bcd60e51b815260206004820152602560248201527f45524332303a207472616e736665722066726f6d20746865207a65726f206164604482015264647265737360d81b6064820152608401610505565b6001600160a01b0382166111155760405162461bcd60e51b815260206004820152602360248201527f45524332303a207472616e7366657220746f20746865207a65726f206164647260448201526265737360e81b6064820152608401610505565b6001600160a01b0383166000908152602081905260409020548181101561118d5760405162461bcd60e51b815260206004820152602660248201527f45524332303a207472616e7366657220616d6f756e7420657863656564732062604482015265616c616e636560d01b6064820152608401610505565b6001600160a01b03848116600081815260208181526040808320878703905593871680835291849020805487019055925185815290927fddf252ad1be2c89b69c2b068fc378daa952ba7f163c4a11628f55a4df523b3ef910160405180910390a3611049565b6001600160a01b0382166112535760405162461bcd60e51b815260206004820152602160248201527f45524332303a206275726e2066726f6d20746865207a65726f206164647265736044820152607360f81b6064820152608401610505565b6001600160a01b038216600090815260208190526040902054818110156112c75760405162461bcd60e51b815260206004820152602260248201527f45524332303a206275726e20616d6f756e7420657863656564732062616c616e604482015261636560f01b6064820152608401610505565b6001600160a01b0383166000818152602081815260408083208686039055600280548790039055518581529192917fddf252ad1be2c89b69c2b068fc378daa952ba7f163c4a11628f55a4df523b3ef9101610cff565b60006020828403121561132f57600080fd5b81356001600160e01b03198116811461099857600080fd5b60006020808352835180602085015260005b8181101561137557858101830151858201604001528201611359565b506000604082860101526040601f19601f8301168501019250505092915050565b6001600160a01b038116811461083f57600080fd5b600080604083850312156113be57600080fd5b82356113c981611396565b946020939093013593505050565b600080602083850312156113ea57600080fd5b823567ffffffffffffffff8082111561140257600080fd5b818501915085601f83011261141657600080fd5b81358181111561142557600080fd5b86602082850101111561143757600080fd5b60209290920196919550909350505050565b60008060006060848603121561145e57600080fd5b833561146981611396565b9250602084013561147981611396565b929592945050506040919091013590565b60006020828403121561149c57600080fd5b5035919050565b6000602082840312156114b557600080fd5b813561099881611396565b600080604083850312156114d357600080fd5b82356114de81611396565b915060208301356114ee81611396565b809150509250929050565b600181811c9082168061150d57607f821691505b60208210810361152d57634e487b7160e01b600052602260045260246000fd5b50919050565b8183823760009101908152919050565b8082018082111561038f57634e487b7160e01b600052601160045260246000fd5b60006020828403121561157657600080fd5b815161099881611396565b60006020828403121561159357600080fd5b8151801515811461099857600080fd5b634e487b7160e01b600052600160045260246000fd5b6000602082840312156115cb57600080fd5b5051919050565b606081528360608201528385608083013760006080858301015260006080601f19601f87011683010190508360208301528260408301529594505050505056fe2aa47ee5db910f3b2a06970c443249cc77dbd9f96100cfebc1775ab7fb1d1824a2646970667358221220a9247fb5b4a90bc21c09d594d6f66b34695c3e14b3d2cf0ba74367c5cbc292a664736f6c63430008170033",
  "linkReferences": {},
  "deployedLinkReferences": {}
}