{
  "_format": "hh-sol-artifact-1",
  "contractName": "LiquidationStrategyImpl",
  "sourceName": "contracts/fasset/library/liquidationStrategyImpl/LiquidationStrategyImpl.sol",
  "abi": [
    {
      "anonymous": false,
      "inputs": [
        {
          "indexed": false,
          "internalType": "string",
          "name": "name",
          "type": "string"
        },
        {
          "indexed": false,
          "internalType": "uint256[]",
          "name": "value",
          "type": "uint256[]"
        }
      ],
      "name": "SettingArrayChanged",
      "type": "event"
    },
    {
      "anonymous": false,
      "inputs": [
        {
          "indexed": false,
          "internalType": "string",
          "name": "name",
          "type": "string"
        },
        {
          "indexed": false,
          "internalType": "uint256",
          "name": "value",
          "type": "uint256"
        }
      ],
      "name": "SettingChanged",
      "type": "event"
    },
    {
      "inputs": [
        {
          "internalType": "address",
          "name": "_agentVault",
          "type": "address"
        },
        {
          "internalType": "uint256",
          "name": "_class1CR",
          "type": "uint256"
        },
        {
          "internalType": "uint256",
          "name": "_poolCR",
          "type": "uint256"
        }
      ],
      "name": "currentLiquidationFactorBIPS",
      "outputs": [
        {
          "internalType": "uint256",
          "name": "_c1FactorBIPS",
          "type": "uint256"
        },
        {
          "internalType": "uint256",
          "name": "_poolFactorBIPS",
          "type": "uint256"
        }
      ],
      "stateMutability": "view",
      "type": "function"
    },
    {
      "inputs": [],
      "name": "getSettings",
      "outputs": [
        {
          "internalType": "bytes",
          "name": "",
          "type": "bytes"
        }
      ],
      "stateMutability": "view",
      "type": "function"
    }
  ],
  "bytecode": "0x61125c61003a600b82828239805160001a60731461002d57634e487b7160e01b600052600060045260246000fd5b30600052607381538281f3fe73000000000000000000000000000000000000000030146080604052600436106100565760003560e01c8063439fab911461005b57806345c081e61461007d57806385b4bb53146100aa578063f40bf1591461005b575b600080fd5b81801561006757600080fd5b5061007b610076366004610c6d565b6100bf565b005b61009061008b366004610d01565b6100cb565b604080519283526020830191909152015b60405180910390f35b6100b261022c565b6040516100a19190610d42565b6100c88161023b565b50565b600080600080516020611207833981519152816100e787610273565b905060006100f48261031f565b9050600083600101828154811061010d5761010d610d90565b90600052602060002090600891828204019190066004029054906101000a900463ffffffff1663ffffffff16905061017d84600201838154811061015357610153610d90565b6000918252602090912060088204015460079091166004026101000a900463ffffffff1682610437565b9550600061018a84610451565b90506000610197856104ce565b90506101a282610537565b1580156101b357506101b381610537565b156101c157600097506101e5565b6101ca82610537565b80156101dc57506101da81610537565b155b156101e5578297505b898811156101f1578997505b6101fb8884610dbc565b96508887111561021e5788965061021b6102158885610dbc565b8b610437565b97505b505050505050935093915050565b606061023661056e565b905090565b6000806000838060200190518101906102549190610e4e565b92509250925061026482826105f7565b61026d83610975565b50505050565b7f5bebac0595fee029d42bb673937f5f1cb81cf8641382bc17774635de9b7d796568010000000000000000600160e01b03604083901b161880600060048084015460ff16908111156102c7576102c7610eba565b036103195760405162461bcd60e51b815260206004820152601b60248201527f696e76616c6964206167656e74207661756c742061646472657373000000000060448201526064015b60405180910390fd5b50919050565b6000807fec7e8c1c441439dd40959777f4c577ea0cd42fcc1dbe59d2bd0f5d9c55df8db69050600060008051602061120783398151915290506000600260048087015460ff169081111561037557610375610eba565b1480156103a1575060016004860154600160e81b900460ff16600281111561039f5761039f610eba565b145b90506000816103b15760006103c0565b600f8401546001600160401b03165b60048701546001600160401b0391821692506000916103e9918491600160a81b90910416610ed0565b84549091506000906001600160401b03166104048342610dbc565b61040e9190610ef9565b60018681015491925061042b91839161042691610dbc565b610437565b98975050505050505050565b60008183106104465781610448565b825b90505b92915050565b60048101547fec7e8c1c441439dd40959777f4c577ea0cd42fcc1dbe59d2bd0f5d9c55df8dc880546000927fec7e8c1c441439dd40959777f4c577ea0cd42fcc1dbe59d2bd0f5d9c55df8db6929161010090910461ffff169081106104b8576104b8610d90565b9060005260206000209060040201915050919050565b60048101547fec7e8c1c441439dd40959777f4c577ea0cd42fcc1dbe59d2bd0f5d9c55df8dc880546000927fec7e8c1c441439dd40959777f4c577ea0cd42fcc1dbe59d2bd0f5d9c55df8db69291630100000090910461ffff169081106104b8576104b8610d90565b8054600090600160b01b90046001600160401b0316158061044b5750815442600160b01b9091046001600160401b03161192915050565b6000805160206112078339815191528054604051606092916105e2916001600160401b03909116907f9a70641189a7f69704b0ad91a8f5691ab8568de4e3df3f07af0de80d96e36774907f9a70641189a7f69704b0ad91a8f5691ab8568de4e3df3f07af0de80d96e3677590602001611095565b60405160208183030381529060405291505090565b80518251600080516020611207833981519152911461064c5760405162461bcd60e51b81526020600482015260116024820152701b195b99dd1a1cc81b9bdd08195c5d585b607a1b6044820152606401610310565b60018351101561069e5760405162461bcd60e51b815260206004820152601c60248201527f6174206c65617374206f6e6520666163746f72207265717569726564000000006044820152606401610310565b6106ac600182016000610bf2565b6106ba600282016000610bf2565b60005b8351811015610901576127108482815181106106db576106db610d90565b6020026020010151116107255760405162461bcd60e51b8152602060048201526012602482015271666163746f72206e6f742061626f7665203160701b6044820152606401610310565b83818151811061073757610737610d90565b602002602001015183828151811061075157610751610d90565b602002602001015111156107a75760405162461bcd60e51b815260206004820152601f60248201527f636c6173733120666163746f7220686967686572207468616e20746f74616c006044820152606401610310565b8015806107ef5750836107bb600183610dbc565b815181106107cb576107cb610d90565b60200260200101518482815181106107e5576107e5610d90565b6020026020010151115b6108345760405162461bcd60e51b8152602060048201526016602482015275666163746f7273206e6f7420696e6372656173696e6760501b6044820152606401610310565b8160010161085a85838151811061084d5761084d610d90565b6020026020010151610b21565b8154600181018355600092835260209092206008830401805460079093166004026101000a63ffffffff818102199094169290931692909202179055825160028301906108b39085908490811061084d5761084d610d90565b8154600181018355600092835260209092206008830401805460079093166004026101000a63ffffffff818102199094169290931692909202179055806108f9816110d3565b9150506106bd565b507ff8df5a8f8fc0ea5cc0d8aff70643ac14b7353b936a843e23cb08ff282ba74739836040516109319190611127565b60405180910390a17ff8df5a8f8fc0ea5cc0d8aff70643ac14b7353b936a843e23cb08ff282ba7473982604051610968919061116e565b60405180910390a1505050565b600080516020611207833981519152816109c25760405162461bcd60e51b815260206004820152600e60248201526d63616e6e6f74206265207a65726f60901b6044820152606401610310565b80546001600160401b031615806109f7575080546109ea906001600160401b031660026111b5565b6001600160401b03168211155b610a365760405162461bcd60e51b815260206004820152601060248201526f696e63726561736520746f6f2062696760801b6044820152606401610310565b8054610a4d906002906001600160401b03166111e0565b6001600160401b0316821015610a985760405162461bcd60e51b815260206004820152601060248201526f646563726561736520746f6f2062696760801b6044820152606401610310565b610aa182610b8a565b815467ffffffffffffffff19166001600160401b039190911617815560408051818152601681830152756c69717569646174696f6e537465705365636f6e647360501b60608201526020810184905290517fac1fb27759c1e6f9e4a24d4f8c320be6091becb03cea5a95398fa220fca4ac0e916080908290030190a15050565b600063ffffffff821115610b865760405162461bcd60e51b815260206004820152602660248201527f53616665436173743a2076616c756520646f65736e27742066697420696e203360448201526532206269747360d01b6064820152608401610310565b5090565b60006001600160401b03821115610b865760405162461bcd60e51b815260206004820152602660248201527f53616665436173743a2076616c756520646f65736e27742066697420696e203660448201526534206269747360d01b6064820152608401610310565b5080546000825560070160089004906000526020600020908101906100c891905b80821115610b865760008155600101610c13565b634e487b7160e01b600052604160045260246000fd5b604051601f8201601f191681016001600160401b0381118282101715610c6557610c65610c27565b604052919050565b60006020808385031215610c8057600080fd5b82356001600160401b0380821115610c9757600080fd5b818501915085601f830112610cab57600080fd5b813581811115610cbd57610cbd610c27565b610ccf601f8201601f19168501610c3d565b91508082528684828501011115610ce557600080fd5b8084840185840137600090820190930192909252509392505050565b600080600060608486031215610d1657600080fd5b83356001600160a01b0381168114610d2d57600080fd5b95602085013595506040909401359392505050565b600060208083528351808285015260005b81811015610d6f57858101830151858201604001528201610d53565b506000604082860101526040601f19601f8301168501019250505092915050565b634e487b7160e01b600052603260045260246000fd5b634e487b7160e01b600052601160045260246000fd5b8181038181111561044b5761044b610da6565b600082601f830112610de057600080fd5b815160206001600160401b03821115610dfb57610dfb610c27565b8160051b610e0a828201610c3d565b9283528481018201928281019087851115610e2457600080fd5b83870192505b84831015610e4357825182529183019190830190610e2a565b979650505050505050565b600080600060608486031215610e6357600080fd5b8351925060208401516001600160401b0380821115610e8157600080fd5b610e8d87838801610dcf565b93506040860151915080821115610ea357600080fd5b50610eb086828701610dcf565b9150509250925092565b634e487b7160e01b600052602160045260246000fd5b8082018082111561044b5761044b610da6565b634e487b7160e01b600052601260045260246000fd5b600082610f0857610f08610ee3565b500490565b805480835260008281526020808220940193909190825b82600782011015610f9c57815463ffffffff8082168852602082811c821690890152604082811c821690890152606082811c821690890152608082811c82169089015260a082811c82169089015260c082811c9091169088015260e090811c9087015261010090950194600190910190600801610f24565b90549082811015610fba5763ffffffff821686526020909501946001015b82811015610fda57602082901c63ffffffff168652602095909501946001015b82811015610ff95763ffffffff604083901c1686526020909501946001015b828110156110185763ffffffff606083901c1686526020909501946001015b828110156110375763ffffffff608083901c1686526020909501946001015b828110156110565763ffffffff60a083901c1686526020909501946001015b828110156110755763ffffffff60c083901c1686526020909501946001015b8281101561108b5760e082901c86526020860195505b5093949350505050565b6001600160401b03841681526060602082015260006110b76060830185610f0d565b82810360408401526110c98185610f0d565b9695505050505050565b6000600182016110e5576110e5610da6565b5060010190565b600081518084526020808501945080840160005b8381101561111c57815187529582019590820190600101611100565b509495945050505050565b60408152601f60408201527f6c69717569646174696f6e436f6c6c61746572616c466163746f724249505300606082015260806020820152600061044860808301846110ec565b60408152601b60408201527f6c69717569646174696f6e466163746f72436c61737331424950530000000000606082015260806020820152600061044860808301846110ec565b6001600160401b038181168382160280821691908281146111d8576111d8610da6565b505092915050565b60006001600160401b03808416806111fa576111fa610ee3565b9216919091049291505056fe9a70641189a7f69704b0ad91a8f5691ab8568de4e3df3f07af0de80d96e36773a2646970667358221220fe6821c58023609459cdfa3bde3d9c1a9b58d7dbaeed9d77db0981fbe0beeee164736f6c63430008140033",
  "linkReferences": {},
  "deployedLinkReferences": {}
}