{
  "_format": "hh-sol-artifact-1",
  "contractName": "LiquidationStrategyImpl",
  "sourceName": "contracts/fasset/library/liquidationStrategyImpl/LiquidationStrategyImpl.sol",
  "abi": [
    {
      "inputs": [
        {
          "internalType": "address",
          "name": "_agentVault",
          "type": "address"
        },
        {
          "internalType": "uint256",
          "name": "_class1CR",
          "type": "uint256"
        },
        {
          "internalType": "uint256",
          "name": "_poolCR",
          "type": "uint256"
        }
      ],
      "name": "currentLiquidationFactorBIPS",
      "outputs": [
        {
          "internalType": "uint256",
          "name": "_c1FactorBIPS",
          "type": "uint256"
        },
        {
          "internalType": "uint256",
          "name": "_poolFactorBIPS",
          "type": "uint256"
        }
      ],
      "stateMutability": "view",
      "type": "function"
    },
    {
      "inputs": [],
      "name": "getSettings",
      "outputs": [
        {
          "internalType": "bytes",
          "name": "",
          "type": "bytes"
        }
      ],
      "stateMutability": "view",
      "type": "function"
    }
  ],
  "bytecode": "0x61127961003a600b82828239805160001a60731461002d57634e487b7160e01b600052600060045260246000fd5b30600052607381538281f3fe73000000000000000000000000000000000000000030146080604052600436106100565760003560e01c8063439fab911461005b57806345c081e61461007d57806385b4bb53146100aa578063f40bf1591461005b575b600080fd5b81801561006757600080fd5b5061007b610076366004610c74565b6100bf565b005b61009061008b366004610d08565b6100cb565b604080519283526020830191909152015b60405180910390f35b6100b261022c565b6040516100a19190610d49565b6100c88161023b565b50565b600080600080516020611224833981519152816100e787610273565b905060006100f482610320565b9050600083600101828154811061010d5761010d610d9e565b90600052602060002090600891828204019190066004029054906101000a900463ffffffff1663ffffffff16905061017d84600201838154811061015357610153610d9e565b6000918252602090912060088204015460079091166004026101000a900463ffffffff168261043f565b9550600061018a84610457565b90506000610197856104d4565b90506101a28261053d565b1580156101b357506101b38161053d565b156101c157600097506101e5565b6101ca8261053d565b80156101dc57506101da8161053d565b155b156101e5578297505b898811156101f1578997505b6101fb8884610dca565b96508887111561021e5788965061021b6102158885610dca565b8b61043f565b97505b505050505050935093915050565b6060610236610575565b905090565b6000806000838060200190518101906102549190610e60565b92509250925061026482826105fe565b61026d8361097c565b50505050565b7f5bebac0595fee029d42bb673937f5f1cb81cf8641382bc17774635de9b7d796568010000000000000000600160e01b03604083901b161880600060048084015460ff16908111156102c7576102c7610ecc565b141561031a5760405162461bcd60e51b815260206004820152601b60248201527f696e76616c6964206167656e74207661756c742061646472657373000000000060448201526064015b60405180910390fd5b50919050565b6000807fec7e8c1c441439dd40959777f4c577ea0cd42fcc1dbe59d2bd0f5d9c55df8db69050600060008051602061122483398151915290506000600260048087015460ff169081111561037657610376610ecc565b1480156103a2575060016004860154600160e81b900460ff1660028111156103a0576103a0610ecc565b145b90506000816103b25760006103c8565b600f840154600160c01b90046001600160401b03165b60048701546001600160401b0391821692506000916103f1918491600160a81b90910416610ee2565b84549091506000906001600160401b031661040c8342610dca565b6104169190610f10565b60018681015491925061043391839161042e91610dca565b61043f565b98975050505050505050565b600081831061044e5781610450565b825b9392505050565b60048101547fec7e8c1c441439dd40959777f4c577ea0cd42fcc1dbe59d2bd0f5d9c55df8dc980546000927fec7e8c1c441439dd40959777f4c577ea0cd42fcc1dbe59d2bd0f5d9c55df8db6929161010090910461ffff169081106104be576104be610d9e565b9060005260206000209060040201915050919050565b60048101547fec7e8c1c441439dd40959777f4c577ea0cd42fcc1dbe59d2bd0f5d9c55df8dc980546000927fec7e8c1c441439dd40959777f4c577ea0cd42fcc1dbe59d2bd0f5d9c55df8db69291630100000090910461ffff169081106104be576104be610d9e565b8054600090600160b01b90046001600160401b0316158061056f5750815442600160b01b9091046001600160401b0316115b92915050565b6000805160206112248339815191528054604051606092916105e9916001600160401b03909116907f9a70641189a7f69704b0ad91a8f5691ab8568de4e3df3f07af0de80d96e36774907f9a70641189a7f69704b0ad91a8f5691ab8568de4e3df3f07af0de80d96e36775906020016110ac565b60405160208183030381529060405291505090565b8051825160008051602061122483398151915291146106535760405162461bcd60e51b81526020600482015260116024820152701b195b99dd1a1cc81b9bdd08195c5d585b607a1b6044820152606401610311565b6001835110156106a55760405162461bcd60e51b815260206004820152601c60248201527f6174206c65617374206f6e6520666163746f72207265717569726564000000006044820152606401610311565b6106b3600182016000610bf9565b6106c1600282016000610bf9565b60005b8351811015610908576127108482815181106106e2576106e2610d9e565b60200260200101511161072c5760405162461bcd60e51b8152602060048201526012602482015271666163746f72206e6f742061626f7665203160701b6044820152606401610311565b83818151811061073e5761073e610d9e565b602002602001015183828151811061075857610758610d9e565b602002602001015111156107ae5760405162461bcd60e51b815260206004820152601f60248201527f636c6173733120666163746f7220686967686572207468616e20746f74616c006044820152606401610311565b8015806107f65750836107c2600183610dca565b815181106107d2576107d2610d9e565b60200260200101518482815181106107ec576107ec610d9e565b6020026020010151115b61083b5760405162461bcd60e51b8152602060048201526016602482015275666163746f7273206e6f7420696e6372656173696e6760501b6044820152606401610311565b8160010161086185838151811061085457610854610d9e565b6020026020010151610b28565b8154600181018355600092835260209092206008830401805460079093166004026101000a63ffffffff818102199094169290931692909202179055825160028301906108ba9085908490811061085457610854610d9e565b8154600181018355600092835260209092206008830401805460079093166004026101000a63ffffffff81810219909416929093169290920217905580610900816110ea565b9150506106c4565b507ff8df5a8f8fc0ea5cc0d8aff70643ac14b7353b936a843e23cb08ff282ba74739836040516109389190611140565b60405180910390a17ff8df5a8f8fc0ea5cc0d8aff70643ac14b7353b936a843e23cb08ff282ba747398260405161096f9190611187565b60405180910390a1505050565b600080516020611224833981519152816109c95760405162461bcd60e51b815260206004820152600e60248201526d63616e6e6f74206265207a65726f60901b6044820152606401610311565b80546001600160401b031615806109fe575080546109f1906001600160401b031660026111ce565b6001600160401b03168211155b610a3d5760405162461bcd60e51b815260206004820152601060248201526f696e63726561736520746f6f2062696760801b6044820152606401610311565b8054610a54906002906001600160401b03166111fd565b6001600160401b0316821015610a9f5760405162461bcd60e51b815260206004820152601060248201526f646563726561736520746f6f2062696760801b6044820152606401610311565b610aa882610b91565b815467ffffffffffffffff19166001600160401b039190911617815560408051818152601681830152756c69717569646174696f6e537465705365636f6e647360501b60608201526020810184905290517fac1fb27759c1e6f9e4a24d4f8c320be6091becb03cea5a95398fa220fca4ac0e916080908290030190a15050565b600063ffffffff821115610b8d5760405162461bcd60e51b815260206004820152602660248201527f53616665436173743a2076616c756520646f65736e27742066697420696e203360448201526532206269747360d01b6064820152608401610311565b5090565b60006001600160401b03821115610b8d5760405162461bcd60e51b815260206004820152602660248201527f53616665436173743a2076616c756520646f65736e27742066697420696e203660448201526534206269747360d01b6064820152608401610311565b5080546000825560070160089004906000526020600020908101906100c891905b80821115610b8d5760008155600101610c1a565b634e487b7160e01b600052604160045260246000fd5b604051601f8201601f191681016001600160401b0381118282101715610c6c57610c6c610c2e565b604052919050565b60006020808385031215610c8757600080fd5b82356001600160401b0380821115610c9e57600080fd5b818501915085601f830112610cb257600080fd5b813581811115610cc457610cc4610c2e565b610cd6601f8201601f19168501610c44565b91508082528684828501011115610cec57600080fd5b8084840185840137600090820190930192909252509392505050565b600080600060608486031215610d1d57600080fd5b83356001600160a01b0381168114610d3457600080fd5b95602085013595506040909401359392505050565b600060208083528351808285015260005b81811015610d7657858101830151858201604001528201610d5a565b81811115610d88576000604083870101525b50601f01601f1916929092016040019392505050565b634e487b7160e01b600052603260045260246000fd5b634e487b7160e01b600052601160045260246000fd5b600082821015610ddc57610ddc610db4565b500390565b600082601f830112610df257600080fd5b815160206001600160401b03821115610e0d57610e0d610c2e565b8160051b610e1c828201610c44565b9283528481018201928281019087851115610e3657600080fd5b83870192505b84831015610e5557825182529183019190830190610e3c565b979650505050505050565b600080600060608486031215610e7557600080fd5b8351925060208401516001600160401b0380821115610e9357600080fd5b610e9f87838801610de1565b93506040860151915080821115610eb557600080fd5b50610ec286828701610de1565b9150509250925092565b634e487b7160e01b600052602160045260246000fd5b60008219821115610ef557610ef5610db4565b500190565b634e487b7160e01b600052601260045260246000fd5b600082610f1f57610f1f610efa565b500490565b805480835260008281526020808220940193909190825b82600782011015610fb357815463ffffffff8082168852602082811c821690890152604082811c821690890152606082811c821690890152608082811c82169089015260a082811c82169089015260c082811c9091169088015260e090811c9087015261010090950194600190910190600801610f3b565b90549082811015610fd15763ffffffff821686526020909501946001015b82811015610ff157602082901c63ffffffff168652602095909501946001015b828110156110105763ffffffff604083901c1686526020909501946001015b8281101561102f5763ffffffff606083901c1686526020909501946001015b8281101561104e5763ffffffff608083901c1686526020909501946001015b8281101561106d5763ffffffff60a083901c1686526020909501946001015b8281101561108c5763ffffffff60c083901c1686526020909501946001015b828110156110a25760e082901c86526020860195505b5093949350505050565b6001600160401b03841681526060602082015260006110ce6060830185610f24565b82810360408401526110e08185610f24565b9695505050505050565b60006000198214156110fe576110fe610db4565b5060010190565b600081518084526020808501945080840160005b8381101561113557815187529582019590820190600101611119565b509495945050505050565b60408152601f60408201527f6c69717569646174696f6e436f6c6c61746572616c466163746f72424950530060608201526080602082015260006104506080830184611105565b60408152601b60408201527f6c69717569646174696f6e466163746f72436c6173733142495053000000000060608201526080602082015260006104506080830184611105565b60006001600160401b03808316818516818304811182151516156111f4576111f4610db4565b02949350505050565b60006001600160401b038084168061121757611217610efa565b9216919091049291505056fe9a70641189a7f69704b0ad91a8f5691ab8568de4e3df3f07af0de80d96e36773a26469706673582212201b1a32cab8aeb2ef19bda47b9d40cbf5e33fb70faf82ec949a35062f7205101364736f6c634300080b0033",
  "linkReferences": {},
  "deployedLinkReferences": {}
}