{
  "_format": "hh-sol-artifact-1",
  "contractName": "MockProxyFactory",
  "sourceName": "contracts/utils/mock/MockProxyFactory.sol",
  "abi": [
    {
      "inputs": [
        {
          "internalType": "address",
          "name": "_implementation",
          "type": "address"
        }
      ],
      "stateMutability": "nonpayable",
      "type": "constructor"
    },
    {
      "inputs": [],
      "name": "implementation",
      "outputs": [
        {
          "internalType": "address",
          "name": "",
          "type": "address"
        }
      ],
      "stateMutability": "view",
      "type": "function"
    },
    {
      "inputs": [
        {
          "internalType": "address",
          "name": "",
          "type": "address"
        }
      ],
      "name": "upgradeInitCall",
      "outputs": [
        {
          "internalType": "bytes",
          "name": "",
          "type": "bytes"
        }
      ],
      "stateMutability": "pure",
      "type": "function"
    }
  ],
  "bytecode": "0x608060405234801561001057600080fd5b5060405161023238038061023283398101604081905261002f91610054565b600080546001600160a01b0319166001600160a01b0392909216919091179055610084565b60006020828403121561006657600080fd5b81516001600160a01b038116811461007d57600080fd5b9392505050565b61019f806100936000396000f3fe608060405234801561001057600080fd5b50600436106100365760003560e01c806308456fd21461003b5780635c60da1b146100bf575b600080fd5b6100a96100493660046100ea565b60405160206024820152601060448201526f736f6d65207465737420737472696e6760801b606482015260609060840160408051601f198184030181529190526020810180516001600160e01b0316631ec5a31160e31b17905292915050565b6040516100b6919061011a565b60405180910390f35b6000546100d2906001600160a01b031681565b6040516001600160a01b0390911681526020016100b6565b6000602082840312156100fc57600080fd5b81356001600160a01b038116811461011357600080fd5b9392505050565b60006020808352835180602085015260005b818110156101485785810183015185820160400152820161012c565b506000604082860101526040601f19601f830116850101925050509291505056fea2646970667358221220d192f62a06d97f76caf72a048e2bac35477bf92d9732b1a535c4688557130fee64736f6c63430008170033",
  "linkReferences": {},
  "deployedLinkReferences": {}
}