{
  "_format": "hh-sol-artifact-1",
  "contractName": "SafePctMock",
  "sourceName": "contracts/utils/mock/SafePctMock.sol",
  "abi": [
    {
      "inputs": [
        {
          "internalType": "uint256",
          "name": "x",
          "type": "uint256"
        },
        {
          "internalType": "uint256",
          "name": "y",
          "type": "uint256"
        },
        {
          "internalType": "uint256",
          "name": "z",
          "type": "uint256"
        }
      ],
      "name": "mulDiv",
      "outputs": [
        {
          "internalType": "uint256",
          "name": "",
          "type": "uint256"
        }
      ],
      "stateMutability": "pure",
      "type": "function"
    }
  ],
  "bytecode": "0x608060405234801561001057600080fd5b5061027c806100206000396000f3fe608060405234801561001057600080fd5b506004361061002b5760003560e01c8063aa9a091214610030575b600080fd5b61004361003e366004610196565b610055565b60405190815260200160405180910390f35b600061006284848461006c565b90505b9392505050565b60008082116100b45760405162461bcd60e51b815260206004820152601060248201526f4469766973696f6e206279207a65726f60801b604482015260640160405180910390fd5b836000036100c457506000610065565b838302838582816100d7576100d76101c2565b04036100f5578281816100ec576100ec6101c2565b04915050610065565b50600061010283866101ee565b905060006101108487610202565b9050600061011e85876101ee565b9050600061012c8688610202565b9050856101398285610216565b61014391906101ee565b61014d8385610216565b6101578387610216565b886101628689610216565b61016c9190610216565b6101769190610233565b6101809190610233565b61018a9190610233565b98975050505050505050565b6000806000606084860312156101ab57600080fd5b505081359360208301359350604090920135919050565b634e487b7160e01b600052601260045260246000fd5b634e487b7160e01b600052601160045260246000fd5b6000826101fd576101fd6101c2565b500490565b600082610211576102116101c2565b500690565b808202811582820484141761022d5761022d6101d8565b92915050565b8082018082111561022d5761022d6101d856fea264697066735822122068dcce15db4986e40c68b182b8e268aaf58699181e7cf94efee088dc87672fd464736f6c63430008140033",
  "linkReferences": {},
  "deployedLinkReferences": {}
}