{
  "_format": "hh-sol-artifact-1",
  "contractName": "SafePctMock",
  "sourceName": "contracts/utils/mock/SafePctMock.sol",
  "abi": [
    {
      "inputs": [
        {
          "internalType": "uint256",
          "name": "x",
          "type": "uint256"
        },
        {
          "internalType": "uint256",
          "name": "y",
          "type": "uint256"
        },
        {
          "internalType": "uint256",
          "name": "z",
          "type": "uint256"
        }
      ],
      "name": "mulDiv",
      "outputs": [
        {
          "internalType": "uint256",
          "name": "",
          "type": "uint256"
        }
      ],
      "stateMutability": "pure",
      "type": "function"
    }
  ],
  "bytecode": "0x608060405234801561001057600080fd5b50610281806100206000396000f3fe608060405234801561001057600080fd5b506004361061002b5760003560e01c8063aa9a091214610030575b600080fd5b61004361003e366004610194565b610055565b60405190815260200160405180910390f35b600061006284848461006c565b90505b9392505050565b60008082116100b45760405162461bcd60e51b815260206004820152601060248201526f4469766973696f6e206279207a65726f60801b604482015260640160405180910390fd5b836100c157506000610065565b838302838582816100d4576100d46101c0565b0414156100f3578281816100ea576100ea6101c0565b04915050610065565b50600061010083866101ec565b9050600061010e8487610200565b9050600061011c85876101ec565b9050600061012a8688610200565b9050856101378285610214565b61014191906101ec565b61014b8385610214565b6101558387610214565b886101608689610214565b61016a9190610214565b6101749190610233565b61017e9190610233565b6101889190610233565b98975050505050505050565b6000806000606084860312156101a957600080fd5b505081359360208301359350604090920135919050565b634e487b7160e01b600052601260045260246000fd5b634e487b7160e01b600052601160045260246000fd5b6000826101fb576101fb6101c0565b500490565b60008261020f5761020f6101c0565b500690565b600081600019048311821515161561022e5761022e6101d6565b500290565b60008219821115610246576102466101d6565b50019056fea2646970667358221220caca693623752b6a7b6519c4d4e23be22e358580a78aa112708aad4d333ce53464736f6c634300080b0033",
  "linkReferences": {},
  "deployedLinkReferences": {}
}