{
  "_format": "hh-sol-artifact-1",
  "contractName": "AssetManagerMock",
  "sourceName": "contracts/assetManager/mock/AssetManagerMock.sol",
  "abi": [
    {
      "inputs": [
        {
          "internalType": "contract IWNat",
          "name": "_wNat",
          "type": "address"
        }
      ],
      "stateMutability": "nonpayable",
      "type": "constructor"
    },
    {
      "anonymous": false,
      "inputs": [
        {
          "indexed": false,
          "internalType": "address",
          "name": "_recipient",
          "type": "address"
        },
        {
          "indexed": false,
          "internalType": "string",
          "name": "_underlying",
          "type": "string"
        },
        {
          "indexed": false,
          "internalType": "uint256",
          "name": "_amountUBA",
          "type": "uint256"
        },
        {
          "indexed": false,
          "internalType": "address payable",
          "name": "_executor",
          "type": "address"
        }
      ],
      "name": "AgentRedemption",
      "type": "event"
    },
    {
      "anonymous": false,
      "inputs": [
        {
          "indexed": false,
          "internalType": "address",
          "name": "_recipient",
          "type": "address"
        },
        {
          "indexed": false,
          "internalType": "uint256",
          "name": "_amountUBA",
          "type": "uint256"
        }
      ],
      "name": "AgentRedemptionInCollateral",
      "type": "event"
    },
    {
      "inputs": [],
      "name": "assetPriceDiv",
      "outputs": [
        {
          "internalType": "uint256",
          "name": "",
          "type": "uint256"
        }
      ],
      "stateMutability": "view",
      "type": "function"
    },
    {
      "inputs": [],
      "name": "assetPriceMul",
      "outputs": [
        {
          "internalType": "uint256",
          "name": "",
          "type": "uint256"
        }
      ],
      "stateMutability": "view",
      "type": "function"
    },
    {
      "inputs": [],
      "name": "assetPriceNatWei",
      "outputs": [
        {
          "internalType": "uint256",
          "name": "",
          "type": "uint256"
        },
        {
          "internalType": "uint256",
          "name": "",
          "type": "uint256"
        }
      ],
      "stateMutability": "view",
      "type": "function"
    },
    {
      "inputs": [
        {
          "internalType": "address",
          "name": "_contract",
          "type": "address"
        },
        {
          "internalType": "bytes",
          "name": "_payload",
          "type": "bytes"
        }
      ],
      "name": "callFunctionAt",
      "outputs": [],
      "stateMutability": "nonpayable",
      "type": "function"
    },
    {
      "inputs": [],
      "name": "fAsset",
      "outputs": [
        {
          "internalType": "contract IIFAsset",
          "name": "",
          "type": "address"
        }
      ],
      "stateMutability": "view",
      "type": "function"
    },
    {
      "inputs": [],
      "name": "fasset",
      "outputs": [
        {
          "internalType": "contract IIFAsset",
          "name": "",
          "type": "address"
        }
      ],
      "stateMutability": "view",
      "type": "function"
    },
    {
      "inputs": [
        {
          "internalType": "uint256",
          "name": "_fee",
          "type": "uint256"
        }
      ],
      "name": "fassetTransferFeePaid",
      "outputs": [],
      "stateMutability": "nonpayable",
      "type": "function"
    },
    {
      "inputs": [
        {
          "internalType": "address",
          "name": "",
          "type": "address"
        }
      ],
      "name": "getAgentMinPoolCollateralRatioBIPS",
      "outputs": [
        {
          "internalType": "uint256",
          "name": "",
          "type": "uint256"
        }
      ],
      "stateMutability": "view",
      "type": "function"
    },
    {
      "inputs": [
        {
          "internalType": "address",
          "name": "",
          "type": "address"
        }
      ],
      "name": "getAgentVaultOwner",
      "outputs": [
        {
          "internalType": "address",
          "name": "_ownerManagementAddress",
          "type": "address"
        }
      ],
      "stateMutability": "view",
      "type": "function"
    },
    {
      "inputs": [
        {
          "internalType": "address",
          "name": "",
          "type": "address"
        }
      ],
      "name": "getCollateralPool",
      "outputs": [
        {
          "internalType": "address",
          "name": "",
          "type": "address"
        }
      ],
      "stateMutability": "view",
      "type": "function"
    },
    {
      "inputs": [],
      "name": "getCollateralPoolTokenTimelockSeconds",
      "outputs": [
        {
          "internalType": "uint256",
          "name": "",
          "type": "uint256"
        }
      ],
      "stateMutability": "view",
      "type": "function"
    },
    {
      "inputs": [
        {
          "internalType": "address",
          "name": "",
          "type": "address"
        }
      ],
      "name": "getFAssetsBackedByPool",
      "outputs": [
        {
          "internalType": "uint256",
          "name": "",
          "type": "uint256"
        }
      ],
      "stateMutability": "view",
      "type": "function"
    },
    {
      "inputs": [],
      "name": "getWNat",
      "outputs": [
        {
          "internalType": "contract IWNat",
          "name": "",
          "type": "address"
        }
      ],
      "stateMutability": "view",
      "type": "function"
    },
    {
      "inputs": [
        {
          "internalType": "address",
          "name": "",
          "type": "address"
        },
        {
          "internalType": "address",
          "name": "_address",
          "type": "address"
        }
      ],
      "name": "isAgentVaultOwner",
      "outputs": [
        {
          "internalType": "bool",
          "name": "",
          "type": "bool"
        }
      ],
      "stateMutability": "view",
      "type": "function"
    },
    {
      "inputs": [],
      "name": "lotSize",
      "outputs": [
        {
          "internalType": "uint256",
          "name": "",
          "type": "uint256"
        }
      ],
      "stateMutability": "view",
      "type": "function"
    },
    {
      "inputs": [
        {
          "internalType": "address",
          "name": "",
          "type": "address"
        }
      ],
      "name": "maxRedemptionFromAgent",
      "outputs": [
        {
          "internalType": "uint256",
          "name": "",
          "type": "uint256"
        }
      ],
      "stateMutability": "view",
      "type": "function"
    },
    {
      "inputs": [],
      "name": "minPoolCollateralRatioBIPS",
      "outputs": [
        {
          "internalType": "uint256",
          "name": "",
          "type": "uint256"
        }
      ],
      "stateMutability": "view",
      "type": "function"
    },
    {
      "inputs": [
        {
          "internalType": "contract IIAgentVault",
          "name": "_agentVault",
          "type": "address"
        },
        {
          "internalType": "address payable",
          "name": "_recipient",
          "type": "address"
        },
        {
          "internalType": "uint256",
          "name": "_amount",
          "type": "uint256"
        }
      ],
      "name": "payoutNAT",
      "outputs": [],
      "stateMutability": "nonpayable",
      "type": "function"
    },
    {
      "inputs": [
        {
          "internalType": "address",
          "name": "",
          "type": "address"
        },
        {
          "internalType": "address",
          "name": "_redeemer",
          "type": "address"
        },
        {
          "internalType": "uint256",
          "name": "_amountUBA",
          "type": "uint256"
        },
        {
          "internalType": "string",
          "name": "_receiverUnderlyingAddress",
          "type": "string"
        },
        {
          "internalType": "address payable",
          "name": "_executor",
          "type": "address"
        }
      ],
      "name": "redeemFromAgent",
      "outputs": [],
      "stateMutability": "nonpayable",
      "type": "function"
    },
    {
      "inputs": [
        {
          "internalType": "address",
          "name": "",
          "type": "address"
        },
        {
          "internalType": "address",
          "name": "_redeemer",
          "type": "address"
        },
        {
          "internalType": "uint256",
          "name": "_amountUBA",
          "type": "uint256"
        }
      ],
      "name": "redeemFromAgentInCollateral",
      "outputs": [],
      "stateMutability": "nonpayable",
      "type": "function"
    },
    {
      "inputs": [
        {
          "internalType": "contract IIFAsset",
          "name": "_fasset",
          "type": "address"
        }
      ],
      "name": "registerFAssetForCollateralPool",
      "outputs": [],
      "stateMutability": "nonpayable",
      "type": "function"
    },
    {
      "inputs": [
        {
          "internalType": "uint256",
          "name": "_mul",
          "type": "uint256"
        },
        {
          "internalType": "uint256",
          "name": "_div",
          "type": "uint256"
        }
      ],
      "name": "setAssetPriceNatWei",
      "outputs": [],
      "stateMutability": "nonpayable",
      "type": "function"
    },
    {
      "inputs": [
        {
          "internalType": "bool",
          "name": "_check",
          "type": "bool"
        }
      ],
      "name": "setCheckForValidAgentVaultAddress",
      "outputs": [],
      "stateMutability": "nonpayable",
      "type": "function"
    },
    {
      "inputs": [
        {
          "internalType": "address",
          "name": "pool",
          "type": "address"
        }
      ],
      "name": "setCollateralPool",
      "outputs": [],
      "stateMutability": "nonpayable",
      "type": "function"
    },
    {
      "inputs": [
        {
          "internalType": "address",
          "name": "_owner",
          "type": "address"
        }
      ],
      "name": "setCommonOwner",
      "outputs": [],
      "stateMutability": "nonpayable",
      "type": "function"
    },
    {
      "inputs": [
        {
          "internalType": "uint256",
          "name": "_lotSize",
          "type": "uint256"
        }
      ],
      "name": "setLotSize",
      "outputs": [],
      "stateMutability": "nonpayable",
      "type": "function"
    },
    {
      "inputs": [
        {
          "internalType": "uint256",
          "name": "_maxRedemption",
          "type": "uint256"
        }
      ],
      "name": "setMaxRedemptionFromAgent",
      "outputs": [],
      "stateMutability": "nonpayable",
      "type": "function"
    },
    {
      "inputs": [
        {
          "internalType": "uint256",
          "name": "_minPoolCollateralRatioBIPS",
          "type": "uint256"
        }
      ],
      "name": "setMinPoolCollateralRatioBIPS",
      "outputs": [],
      "stateMutability": "nonpayable",
      "type": "function"
    },
    {
      "inputs": [
        {
          "internalType": "uint256",
          "name": "_timelockDuration",
          "type": "uint256"
        }
      ],
      "name": "setTimelockDuration",
      "outputs": [],
      "stateMutability": "nonpayable",
      "type": "function"
    },
    {
      "inputs": [],
      "name": "transferFeeMillionths",
      "outputs": [
        {
          "internalType": "uint256",
          "name": "",
          "type": "uint256"
        }
      ],
      "stateMutability": "pure",
      "type": "function"
    },
    {
      "inputs": [
        {
          "internalType": "address",
          "name": "",
          "type": "address"
        },
        {
          "internalType": "contract IIFAsset",
          "name": "",
          "type": "address"
        }
      ],
      "name": "updateCollateral",
      "outputs": [],
      "stateMutability": "nonpayable",
      "type": "function"
    }
  ],
  "bytecode": "0x60806040526002805460ff60a01b1916600160a01b178155600019600455600060058190556001600681905560079290925560089190915560095534801561004657600080fd5b50604051610c7e380380610c7e8339810160408190526100659161008a565b600080546001600160a01b0319166001600160a01b03929092169190911790556100ba565b60006020828403121561009c57600080fd5b81516001600160a01b03811681146100b357600080fd5b9392505050565b610bb5806100c96000396000f3fe608060405234801561001057600080fd5b50600436106101e55760003560e01c8063716a5eb41161010f578063bd5ebe66116100a2578063d6b93a9f11610071578063d6b93a9f14610469578063ed000b301461049d578063ed3762aa146104b0578063fc52f16d146104c357600080fd5b8063bd5ebe661461041f578063cd71593514610428578063cfe65f241461043d578063d13e4f251461045057600080fd5b80639193e95a116100de5780639193e95a146103d5578063997be0f4146103e8578063a5b0baac146103fb578063b5a488a61461040e57600080fd5b8063716a5eb41461035f57806373461c311461038f57806374baf3b3146103bb5780637c7db1a5146103c457600080fd5b806334591a3e116101875780635252f3a2116101565780635252f3a2146102ef5780635b3bc18914610325578063648d08781461032e5780636e61164f1461034157600080fd5b806334591a3e1461029c57806337bf13ad146102af5780633ba60fb1146102df5780634942f65f146102e657600080fd5b8063177d0307116101c3578063177d0307146102325780631ba28878146102445780631e8bee011461027457806329ff13081461028957600080fd5b806302312aec146101ea5780630dabe4491461020a578063150fea091461021f575b600080fd5b600654600754604080519283526020830191909152015b60405180910390f35b61021d610218366004610817565b600455565b005b61021d61022d366004610817565b600555565b6005545b604051908152602001610201565b61021d610252366004610845565b600380546001600160a01b0319166001600160a01b0392909216919091179055565b610236610282366004610845565b5060045490565b61021d610297366004610869565b6104d4565b61021d6102aa366004610817565b600855565b61021d6102bd366004610845565b600180546001600160a01b0319166001600160a01b0392909216919091179055565b60c8610236565b61023660085481565b61030d6102fd366004610845565b506003546001600160a01b031690565b6040516001600160a01b039091168152602001610201565b61023660065481565b61021d61033c3660046108a2565b610553565b61030d61034f366004610845565b506002546001600160a01b031690565b61021d61036d366004610845565b600280546001600160a01b0319166001600160a01b0392909216919091179055565b61021d61039d3660046108e3565b60028054911515600160a01b0260ff60a01b19909216919091179055565b61023660095481565b6001546001600160a01b031661030d565b61021d6103e3366004610991565b6105c6565b61021d6103f63660046109f5565b61064f565b60015461030d906001600160a01b031681565b6000546001600160a01b031661030d565b61023660075481565b610236610436366004610845565b5060095490565b61021d61044b366004610817565b600955565b61021d61045e366004610a8a565b600691909155600755565b61048d610477366004610869565b6002546001600160a01b03908116911614919050565b6040519015158152602001610201565b61021d6104ab3660046108a2565b6106f7565b6102366104be366004610845565b6107a3565b61021d6104d1366004610817565b50565b600280546001600160a01b0381166001600160a01b03199091161790819055600160a01b900460ff161561054f5760405162461bcd60e51b815260206004820152601b60248201527f696e76616c6964206167656e74207661756c742061646472657373000000000060448201526064015b60405180910390fd5b5050565b600054604051630c91a10f60e31b81526001600160a01b0391821660048201528382166024820152604481018390529084169063648d087890606401600060405180830381600087803b1580156105a957600080fd5b505af11580156105bd573d6000803e3d6000fd5b50505050505050565b600080836001600160a01b0316836040516105e19190610ad0565b6000604051808303816000865af19150503d806000811461061e576040519150601f19603f3d011682016040523d82523d6000602084013e610623565b606091505b50915091508181906106485760405162461bcd60e51b81526004016105469190610b18565b5050505050565b600154604051632770a7eb60e21b8152336004820152602481018590526001600160a01b0390911690639dc29fac90604401600060405180830381600087803b15801561069b57600080fd5b505af11580156106af573d6000803e3d6000fd5b505050507f8a87668a7b80e194d7ce2f3091108a6155595fe94177b3ee6eaa6162ac92b8fe848385846040516106e89493929190610b2b565b60405180910390a15050505050565b600154604051632770a7eb60e21b8152336004820152602481018390526001600160a01b0390911690639dc29fac90604401600060405180830381600087803b15801561074357600080fd5b505af1158015610757573d6000803e3d6000fd5b5050604080516001600160a01b0386168152602081018590527f1dc85c87d1cae3edc965c14f2b1a1f0ae29dd909089061d698e5e1019cb6585d935001905060405180910390a1505050565b600154604080516318160ddd60e01b815290516000926001600160a01b0316916318160ddd9160048083019260209291908290030181865afa1580156107ed573d6000803e3d6000fd5b505050506040513d601f19601f820116820180604052508101906108119190610b66565b92915050565b60006020828403121561082957600080fd5b5035919050565b6001600160a01b03811681146104d157600080fd5b60006020828403121561085757600080fd5b813561086281610830565b9392505050565b6000806040838503121561087c57600080fd5b823561088781610830565b9150602083013561089781610830565b809150509250929050565b6000806000606084860312156108b757600080fd5b83356108c281610830565b925060208401356108d281610830565b929592945050506040919091013590565b6000602082840312156108f557600080fd5b8135801515811461086257600080fd5b634e487b7160e01b600052604160045260246000fd5b600067ffffffffffffffff8084111561093657610936610905565b604051601f8501601f19908116603f0116810190828211818310171561095e5761095e610905565b8160405280935085815286868601111561097757600080fd5b858560208301376000602087830101525050509392505050565b600080604083850312156109a457600080fd5b82356109af81610830565b9150602083013567ffffffffffffffff8111156109cb57600080fd5b8301601f810185136109dc57600080fd5b6109eb8582356020840161091b565b9150509250929050565b600080600080600060a08688031215610a0d57600080fd5b8535610a1881610830565b94506020860135610a2881610830565b935060408601359250606086013567ffffffffffffffff811115610a4b57600080fd5b8601601f81018813610a5c57600080fd5b610a6b8882356020840161091b565b9250506080860135610a7c81610830565b809150509295509295909350565b60008060408385031215610a9d57600080fd5b50508035926020909101359150565b60005b83811015610ac7578181015183820152602001610aaf565b50506000910152565b60008251610ae2818460208701610aac565b9190910192915050565b60008151808452610b04816020860160208601610aac565b601f01601f19169290920160200192915050565b6020815260006108626020830184610aec565b600060018060a01b03808716835260806020840152610b4d6080840187610aec565b6040840195909552929092166060909101525092915050565b600060208284031215610b7857600080fd5b505191905056fea2646970667358221220260f35bbe953421e2c11e6f9d9b8b92820cd27c90a492675e260792d502a924164736f6c63430008170033",
  "linkReferences": {},
  "deployedLinkReferences": {}
}