{
  "_format": "hh-sol-artifact-1",
  "contractName": "SettingsReaderFacet",
  "sourceName": "contracts/assetManager/facets/SettingsReaderFacet.sol",
  "abi": [
    {
      "inputs": [],
      "name": "assetManagerController",
      "outputs": [
        {
          "internalType": "address",
          "name": "",
          "type": "address"
        }
      ],
      "stateMutability": "view",
      "type": "function"
    },
    {
      "inputs": [],
      "name": "assetMintingDecimals",
      "outputs": [
        {
          "internalType": "uint256",
          "name": "",
          "type": "uint256"
        }
      ],
      "stateMutability": "view",
      "type": "function"
    },
    {
      "inputs": [],
      "name": "assetMintingGranularityUBA",
      "outputs": [
        {
          "internalType": "uint256",
          "name": "",
          "type": "uint256"
        }
      ],
      "stateMutability": "view",
      "type": "function"
    },
    {
      "inputs": [],
      "name": "fAsset",
      "outputs": [
        {
          "internalType": "contract IERC20",
          "name": "",
          "type": "address"
        }
      ],
      "stateMutability": "view",
      "type": "function"
    },
    {
      "inputs": [],
      "name": "getCollateralPoolTokenTimelockSeconds",
      "outputs": [
        {
          "internalType": "uint256",
          "name": "",
          "type": "uint256"
        }
      ],
      "stateMutability": "view",
      "type": "function"
    },
    {
      "inputs": [],
      "name": "getSettings",
      "outputs": [
        {
          "components": [
            {
              "internalType": "address",
              "name": "assetManagerController",
              "type": "address"
            },
            {
              "internalType": "address",
              "name": "fAsset",
              "type": "address"
            },
            {
              "internalType": "address",
              "name": "agentVaultFactory",
              "type": "address"
            },
            {
              "internalType": "address",
              "name": "collateralPoolFactory",
              "type": "address"
            },
            {
              "internalType": "address",
              "name": "collateralPoolTokenFactory",
              "type": "address"
            },
            {
              "internalType": "string",
              "name": "poolTokenSuffix",
              "type": "string"
            },
            {
              "internalType": "address",
              "name": "whitelist",
              "type": "address"
            },
            {
              "internalType": "address",
              "name": "agentOwnerRegistry",
              "type": "address"
            },
            {
              "internalType": "address",
              "name": "fdcVerification",
              "type": "address"
            },
            {
              "internalType": "address payable",
              "name": "burnAddress",
              "type": "address"
            },
            {
              "internalType": "address",
              "name": "priceReader",
              "type": "address"
            },
            {
              "internalType": "uint8",
              "name": "assetDecimals",
              "type": "uint8"
            },
            {
              "internalType": "uint8",
              "name": "assetMintingDecimals",
              "type": "uint8"
            },
            {
              "internalType": "bytes32",
              "name": "chainId",
              "type": "bytes32"
            },
            {
              "internalType": "uint32",
              "name": "averageBlockTimeMS",
              "type": "uint32"
            },
            {
              "internalType": "uint32",
              "name": "mintingPoolHoldingsRequiredBIPS",
              "type": "uint32"
            },
            {
              "internalType": "uint16",
              "name": "collateralReservationFeeBIPS",
              "type": "uint16"
            },
            {
              "internalType": "uint64",
              "name": "assetUnitUBA",
              "type": "uint64"
            },
            {
              "internalType": "uint64",
              "name": "assetMintingGranularityUBA",
              "type": "uint64"
            },
            {
              "internalType": "uint64",
              "name": "lotSizeAMG",
              "type": "uint64"
            },
            {
              "internalType": "uint16",
              "name": "minUnderlyingBackingBIPS",
              "type": "uint16"
            },
            {
              "internalType": "bool",
              "name": "requireEOAAddressProof",
              "type": "bool"
            },
            {
              "internalType": "uint64",
              "name": "mintingCapAMG",
              "type": "uint64"
            },
            {
              "internalType": "uint64",
              "name": "underlyingBlocksForPayment",
              "type": "uint64"
            },
            {
              "internalType": "uint64",
              "name": "underlyingSecondsForPayment",
              "type": "uint64"
            },
            {
              "internalType": "uint16",
              "name": "redemptionFeeBIPS",
              "type": "uint16"
            },
            {
              "internalType": "uint32",
              "name": "redemptionDefaultFactorVaultCollateralBIPS",
              "type": "uint32"
            },
            {
              "internalType": "uint32",
              "name": "redemptionDefaultFactorPoolBIPS",
              "type": "uint32"
            },
            {
              "internalType": "uint64",
              "name": "confirmationByOthersAfterSeconds",
              "type": "uint64"
            },
            {
              "internalType": "uint128",
              "name": "confirmationByOthersRewardUSD5",
              "type": "uint128"
            },
            {
              "internalType": "uint16",
              "name": "maxRedeemedTickets",
              "type": "uint16"
            },
            {
              "internalType": "uint16",
              "name": "paymentChallengeRewardBIPS",
              "type": "uint16"
            },
            {
              "internalType": "uint128",
              "name": "paymentChallengeRewardUSD5",
              "type": "uint128"
            },
            {
              "internalType": "uint64",
              "name": "withdrawalWaitMinSeconds",
              "type": "uint64"
            },
            {
              "internalType": "uint64",
              "name": "maxTrustedPriceAgeSeconds",
              "type": "uint64"
            },
            {
              "internalType": "uint64",
              "name": "ccbTimeSeconds",
              "type": "uint64"
            },
            {
              "internalType": "uint64",
              "name": "attestationWindowSeconds",
              "type": "uint64"
            },
            {
              "internalType": "uint64",
              "name": "minUpdateRepeatTimeSeconds",
              "type": "uint64"
            },
            {
              "internalType": "uint64",
              "name": "buybackCollateralFactorBIPS",
              "type": "uint64"
            },
            {
              "internalType": "uint64",
              "name": "announcedUnderlyingConfirmationMinSeconds",
              "type": "uint64"
            },
            {
              "internalType": "uint64",
              "name": "tokenInvalidationTimeMinSeconds",
              "type": "uint64"
            },
            {
              "internalType": "uint32",
              "name": "vaultCollateralBuyForFlareFactorBIPS",
              "type": "uint32"
            },
            {
              "internalType": "uint64",
              "name": "agentExitAvailableTimelockSeconds",
              "type": "uint64"
            },
            {
              "internalType": "uint64",
              "name": "agentFeeChangeTimelockSeconds",
              "type": "uint64"
            },
            {
              "internalType": "uint64",
              "name": "agentMintingCRChangeTimelockSeconds",
              "type": "uint64"
            },
            {
              "internalType": "uint64",
              "name": "poolExitAndTopupChangeTimelockSeconds",
              "type": "uint64"
            },
            {
              "internalType": "uint64",
              "name": "agentTimelockedOperationWindowSeconds",
              "type": "uint64"
            },
            {
              "internalType": "uint32",
              "name": "collateralPoolTokenTimelockSeconds",
              "type": "uint32"
            },
            {
              "internalType": "uint64",
              "name": "liquidationStepSeconds",
              "type": "uint64"
            },
            {
              "internalType": "uint256[]",
              "name": "liquidationCollateralFactorBIPS",
              "type": "uint256[]"
            },
            {
              "internalType": "uint256[]",
              "name": "liquidationFactorVaultCollateralBIPS",
              "type": "uint256[]"
            },
            {
              "internalType": "uint64",
              "name": "diamondCutMinTimelockSeconds",
              "type": "uint64"
            },
            {
              "internalType": "uint64",
              "name": "maxEmergencyPauseDurationSeconds",
              "type": "uint64"
            },
            {
              "internalType": "uint64",
              "name": "emergencyPauseDurationResetAfterSeconds",
              "type": "uint64"
            },
            {
              "internalType": "uint64",
              "name": "cancelCollateralReservationAfterSeconds",
              "type": "uint64"
            },
            {
              "internalType": "uint64",
              "name": "rejectRedemptionRequestWindowSeconds",
              "type": "uint64"
            },
            {
              "internalType": "uint64",
              "name": "takeOverRedemptionRequestWindowSeconds",
              "type": "uint64"
            },
            {
              "internalType": "uint32",
              "name": "rejectedRedemptionDefaultFactorVaultCollateralBIPS",
              "type": "uint32"
            },
            {
              "internalType": "uint32",
              "name": "rejectedRedemptionDefaultFactorPoolBIPS",
              "type": "uint32"
            }
          ],
          "internalType": "struct AssetManagerSettings.Data",
          "name": "",
          "type": "tuple"
        }
      ],
      "stateMutability": "view",
      "type": "function"
    },
    {
      "inputs": [],
      "name": "lotSize",
      "outputs": [
        {
          "internalType": "uint256",
          "name": "_lotSizeUBA",
          "type": "uint256"
        }
      ],
      "stateMutability": "view",
      "type": "function"
    },
    {
      "inputs": [],
      "name": "priceReader",
      "outputs": [
        {
          "internalType": "address",
          "name": "",
          "type": "address"
        }
      ],
      "stateMutability": "view",
      "type": "function"
    }
  ],
  "bytecode": "0x608060405234801561001057600080fd5b50611046806100206000396000f3fe608060405234801561001057600080fd5b50600436106100885760003560e01c8063531090f31161005b578063531090f3146101465780637c7db1a51461017d57806385b4bb5314610185578063f0c0b7251461019a57600080fd5b8063177d03071461008d578063410418f1146100c95780634942f65f146100fa57806349b5fdb414610102575b600080fd5b7f4f24f5c433db0962dac0d2c8b84197a6e6c7cc4e5d9ebe1916a1b6193da2f34e5463ffffffff165b6040519081526020015b60405180910390f35b7f4f24f5c433db0962dac0d2c8b84197a6e6c7cc4e5d9ebe1916a1b6193da2f34454600160a81b900460ff166100b6565b6100b66101ca565b7f4f24f5c433db0962dac0d2c8b84197a6e6c7cc4e5d9ebe1916a1b6193da2f344546001600160a01b03165b6040516001600160a01b0390911681526020016100c0565b7f4f24f5c433db0962dac0d2c8b84197a6e6c7cc4e5d9ebe1916a1b6193da2f34654600160901b90046001600160401b03166100b6565b61012e61025f565b61018d610297565b6040516100c09190610988565b7f4f24f5c433db0962dac0d2c8b84197a6e6c7cc4e5d9ebe1916a1b6193da2f33a546001600160a01b031661012e565b7f4f24f5c433db0962dac0d2c8b84197a6e6c7cc4e5d9ebe1916a1b6193da2f346547f4f24f5c433db0962dac0d2c8b84197a6e6c7cc4e5d9ebe1916a1b6193da2f347546000917f4f24f5c433db0962dac0d2c8b84197a6e6c7cc4e5d9ebe1916a1b6193da2f33a9161025091600160901b90046001600160401b039081169116610f9d565b6001600160401b031691505090565b60006102927f4f24f5c433db0962dac0d2c8b84197a6e6c7cc4e5d9ebe1916a1b6193da2f33b546001600160a01b031690565b905090565b604080516107608101825260008082526020820181905291810182905260608082018390526080820183905260a0820181905260c0820183905260e08201839052610100820183905261012082018390526101408201839052610160820183905261018082018390526101a082018390526101c082018390526101e08201839052610200820183905261022082018390526102408201839052610260820183905261028082018390526102a082018390526102c082018390526102e08201839052610300820183905261032082018390526103408201839052610360820183905261038082018390526103a082018390526103c082018390526103e08201839052610400820183905261042082018390526104408201839052610460820183905261048082018390526104a082018390526104c082018390526104e08201839052610500820183905261052082018390526105408201839052610560820183905261058082018390526105a082018390526105c082018390526105e0820183905261060082018390526106208201819052610640820152610660810182905261068081018290526106a081018290526106c081018290526106e08101829052610700810182905261072081018290526107408101919091527f4f24f5c433db0962dac0d2c8b84197a6e6c7cc4e5d9ebe1916a1b6193da2f33a604080516107608101825282546001600160a01b03908116825260018401548116602083015260028401548116928201929092526003830154821660608201526004830154909116608082015260058201805491929160a0840191906104f590610fd6565b80601f016020809104026020016040519081016040528092919081815260200182805461052190610fd6565b801561056e5780601f106105435761010080835404028352916020019161056e565b820191906000526020600020905b81548152906001019060200180831161055157829003601f168201915b505050918352505060068201546001600160a01b0390811660208084019190915260078401548216604080850191909152600885015483166060850152600985015483166080850152600a85015492831660a085015260ff600160a01b808504821660c0870152600160a81b909404811660e0860152600b860154610100860152600c86015463ffffffff808216610120880152640100000000808304821661014089015261ffff600160401b80850482166101608b01526001600160401b03600160501b80870482166101808d0152600160901b9687900482166101a08d0152600d8d01548083166101c08e015283810485166101e08e015281810490981615156102008d0152600160581b880482166102208d0152600160981b90970481166102408c0152600e8c01548082166102608d015282810484166102808d015296870485166102a08c0152600160701b870485166102c08c01529585900486166102e08b0152600f8b01546001600160801b038082166103008d0152600160801b80830485166103208e0152969091049092166103408b015260108b01549182166103608b015284820486166103808b0152600160c01b9182900486166103a08b015260118b01548087166103c08c015281810487166103e08c015285810487166104008c015282900486166104208b015260128b01548087166104408c015281810487166104608c015285810485166104808c01529890980485166104a08a015260138a01548086166104c08b015297880485166104e08a01529287048416610500890152919095048216610520870152601487015494851661054087015290930490921661056084015260158401805483518184028101840190945280845261058090940193909183018282801561082757602002820191906000526020600020905b815481526020019060010190808311610813575b505050505081526020016016820180548060200260200160405190810160405280929190818152602001828054801561087f57602002820191906000526020600020905b81548152602001906001019080831161086b575b505050918352505060178201546001600160401b038082166020840152600160401b80830482166040850152600160801b80840483166060860152600160c01b9093048216608085015260189094015480821660a08501529384041660c083015263ffffffff908304811660e0830152600160a01b90920490911661010090910152919050565b6000815180845260005b8181101561092c57602081850181015186830182015201610910565b506000602082860101526020601f19601f83011685010191505092915050565b60008151808452602080850194506020840160005b8381101561097d57815187529582019590820190600101610961565b509495945050505050565b602081526109a26020820183516001600160a01b03169052565b600060208301516109be60408401826001600160a01b03169052565b5060408301516001600160a01b03811660608401525060608301516001600160a01b03811660808401525060808301516001600160a01b03811660a08401525060a08301516107608060c0850152610a1a610780850183610906565b915060c0850151610a3660e08601826001600160a01b03169052565b5060e0850151610100610a53818701836001600160a01b03169052565b8601519050610120610a6f868201836001600160a01b03169052565b8601519050610140610a8b868201836001600160a01b03169052565b8601519050610160610aa7868201836001600160a01b03169052565b8601519050610180610abd8682018360ff169052565b86015190506101a0610ad38682018360ff169052565b8601516101c08681019190915286015190506101e0610af98187018363ffffffff169052565b8601519050610200610b128682018363ffffffff169052565b8601519050610220610b298682018361ffff169052565b8601519050610240610b45868201836001600160401b03169052565b8601519050610260610b61868201836001600160401b03169052565b8601519050610280610b7d868201836001600160401b03169052565b86015190506102a0610b948682018361ffff169052565b86015190506102c0610ba98682018315159052565b86015190506102e0610bc5868201836001600160401b03169052565b8601519050610300610be1868201836001600160401b03169052565b8601519050610320610bfd868201836001600160401b03169052565b8601519050610340610c148682018361ffff169052565b8601519050610360610c2d8682018363ffffffff169052565b8601519050610380610c468682018363ffffffff169052565b86015190506103a0610c62868201836001600160401b03169052565b86015190506103c0610c7e868201836001600160801b03169052565b86015190506103e0610c958682018361ffff169052565b8601519050610400610cac8682018361ffff169052565b8601519050610420610cc8868201836001600160801b03169052565b8601519050610440610ce4868201836001600160401b03169052565b8601519050610460610d00868201836001600160401b03169052565b8601519050610480610d1c868201836001600160401b03169052565b86015190506104a0610d38868201836001600160401b03169052565b86015190506104c0610d54868201836001600160401b03169052565b86015190506104e0610d70868201836001600160401b03169052565b8601519050610500610d8c868201836001600160401b03169052565b8601519050610520610da8868201836001600160401b03169052565b8601519050610540610dc18682018363ffffffff169052565b8601519050610560610ddd868201836001600160401b03169052565b8601519050610580610df9868201836001600160401b03169052565b86015190506105a0610e15868201836001600160401b03169052565b86015190506105c0610e31868201836001600160401b03169052565b86015190506105e0610e4d868201836001600160401b03169052565b8601519050610600610e668682018363ffffffff169052565b8601519050610620610e82868201836001600160401b03169052565b80870151915050601f19610640818786030181880152610ea2858461094c565b945080880151925050610660818786030181880152610ec1858461094c565b94508088015192505050610680610ee2818701836001600160401b03169052565b86015190506106a0610efe868201836001600160401b03169052565b86015190506106c0610f1a868201836001600160401b03169052565b86015190506106e0610f36868201836001600160401b03169052565b8601519050610700610f52868201836001600160401b03169052565b8601519050610720610f6e868201836001600160401b03169052565b8601519050610740610f878682018363ffffffff169052565b9095015163ffffffff1693019290925250919050565b6001600160401b03818116838216028082169190828114610fce57634e487b7160e01b600052601160045260246000fd5b505092915050565b600181811c90821680610fea57607f821691505b60208210810361100a57634e487b7160e01b600052602260045260246000fd5b5091905056fea26469706673582212204800ba6b7d03d4d44fbe7e08064dacb357529890c17ccee19cd97f06f900af0a64736f6c63430008170033",
  "linkReferences": {},
  "deployedLinkReferences": {}
}