{
  "_format": "hh-sol-artifact-1",
  "contractName": "FakeERC20",
  "sourceName": "contracts/fasset/mock/FakeERC20.sol",
  "abi": [
    {
      "inputs": [
        {
          "internalType": "address",
          "name": "_minter",
          "type": "address"
        },
        {
          "internalType": "string",
          "name": "_name",
          "type": "string"
        },
        {
          "internalType": "string",
          "name": "_symbol",
          "type": "string"
        },
        {
          "internalType": "uint8",
          "name": "_decimals",
          "type": "uint8"
        }
      ],
      "stateMutability": "nonpayable",
      "type": "constructor"
    },
    {
      "anonymous": false,
      "inputs": [
        {
          "indexed": true,
          "internalType": "address",
          "name": "owner",
          "type": "address"
        },
        {
          "indexed": true,
          "internalType": "address",
          "name": "spender",
          "type": "address"
        },
        {
          "indexed": false,
          "internalType": "uint256",
          "name": "value",
          "type": "uint256"
        }
      ],
      "name": "Approval",
      "type": "event"
    },
    {
      "anonymous": false,
      "inputs": [
        {
          "indexed": true,
          "internalType": "address",
          "name": "from",
          "type": "address"
        },
        {
          "indexed": true,
          "internalType": "address",
          "name": "to",
          "type": "address"
        },
        {
          "indexed": false,
          "internalType": "uint256",
          "name": "value",
          "type": "uint256"
        }
      ],
      "name": "Transfer",
      "type": "event"
    },
    {
      "inputs": [
        {
          "internalType": "address",
          "name": "owner",
          "type": "address"
        },
        {
          "internalType": "address",
          "name": "spender",
          "type": "address"
        }
      ],
      "name": "allowance",
      "outputs": [
        {
          "internalType": "uint256",
          "name": "",
          "type": "uint256"
        }
      ],
      "stateMutability": "view",
      "type": "function"
    },
    {
      "inputs": [
        {
          "internalType": "address",
          "name": "spender",
          "type": "address"
        },
        {
          "internalType": "uint256",
          "name": "amount",
          "type": "uint256"
        }
      ],
      "name": "approve",
      "outputs": [
        {
          "internalType": "bool",
          "name": "",
          "type": "bool"
        }
      ],
      "stateMutability": "nonpayable",
      "type": "function"
    },
    {
      "inputs": [
        {
          "internalType": "address",
          "name": "account",
          "type": "address"
        }
      ],
      "name": "balanceOf",
      "outputs": [
        {
          "internalType": "uint256",
          "name": "",
          "type": "uint256"
        }
      ],
      "stateMutability": "view",
      "type": "function"
    },
    {
      "inputs": [
        {
          "internalType": "uint256",
          "name": "_amount",
          "type": "uint256"
        }
      ],
      "name": "burnAmount",
      "outputs": [],
      "stateMutability": "nonpayable",
      "type": "function"
    },
    {
      "inputs": [],
      "name": "decimals",
      "outputs": [
        {
          "internalType": "uint8",
          "name": "",
          "type": "uint8"
        }
      ],
      "stateMutability": "view",
      "type": "function"
    },
    {
      "inputs": [
        {
          "internalType": "address",
          "name": "spender",
          "type": "address"
        },
        {
          "internalType": "uint256",
          "name": "subtractedValue",
          "type": "uint256"
        }
      ],
      "name": "decreaseAllowance",
      "outputs": [
        {
          "internalType": "bool",
          "name": "",
          "type": "bool"
        }
      ],
      "stateMutability": "nonpayable",
      "type": "function"
    },
    {
      "inputs": [
        {
          "internalType": "address",
          "name": "spender",
          "type": "address"
        },
        {
          "internalType": "uint256",
          "name": "addedValue",
          "type": "uint256"
        }
      ],
      "name": "increaseAllowance",
      "outputs": [
        {
          "internalType": "bool",
          "name": "",
          "type": "bool"
        }
      ],
      "stateMutability": "nonpayable",
      "type": "function"
    },
    {
      "inputs": [
        {
          "internalType": "address",
          "name": "_target",
          "type": "address"
        },
        {
          "internalType": "uint256",
          "name": "amount",
          "type": "uint256"
        }
      ],
      "name": "mintAmount",
      "outputs": [],
      "stateMutability": "nonpayable",
      "type": "function"
    },
    {
      "inputs": [],
      "name": "minter",
      "outputs": [
        {
          "internalType": "address",
          "name": "",
          "type": "address"
        }
      ],
      "stateMutability": "view",
      "type": "function"
    },
    {
      "inputs": [],
      "name": "name",
      "outputs": [
        {
          "internalType": "string",
          "name": "",
          "type": "string"
        }
      ],
      "stateMutability": "view",
      "type": "function"
    },
    {
      "inputs": [
        {
          "internalType": "bytes4",
          "name": "_interfaceId",
          "type": "bytes4"
        }
      ],
      "name": "supportsInterface",
      "outputs": [
        {
          "internalType": "bool",
          "name": "",
          "type": "bool"
        }
      ],
      "stateMutability": "pure",
      "type": "function"
    },
    {
      "inputs": [],
      "name": "symbol",
      "outputs": [
        {
          "internalType": "string",
          "name": "",
          "type": "string"
        }
      ],
      "stateMutability": "view",
      "type": "function"
    },
    {
      "inputs": [],
      "name": "totalSupply",
      "outputs": [
        {
          "internalType": "uint256",
          "name": "",
          "type": "uint256"
        }
      ],
      "stateMutability": "view",
      "type": "function"
    },
    {
      "inputs": [
        {
          "internalType": "address",
          "name": "to",
          "type": "address"
        },
        {
          "internalType": "uint256",
          "name": "amount",
          "type": "uint256"
        }
      ],
      "name": "transfer",
      "outputs": [
        {
          "internalType": "bool",
          "name": "",
          "type": "bool"
        }
      ],
      "stateMutability": "nonpayable",
      "type": "function"
    },
    {
      "inputs": [
        {
          "internalType": "address",
          "name": "from",
          "type": "address"
        },
        {
          "internalType": "address",
          "name": "to",
          "type": "address"
        },
        {
          "internalType": "uint256",
          "name": "amount",
          "type": "uint256"
        }
      ],
      "name": "transferFrom",
      "outputs": [
        {
          "internalType": "bool",
          "name": "",
          "type": "bool"
        }
      ],
      "stateMutability": "nonpayable",
      "type": "function"
    }
  ],
  "bytecode": "0x60c06040523480156200001157600080fd5b5060405162000f9d38038062000f9d83398101604081905262000034916200013a565b828260036200004483826200026f565b5060046200005382826200026f565b5050506001600160a01b03909316608052505060ff1660a0526200033b565b634e487b7160e01b600052604160045260246000fd5b600082601f8301126200009a57600080fd5b81516001600160401b0380821115620000b757620000b762000072565b604051601f8301601f19908116603f01168101908282118183101715620000e257620000e262000072565b81604052838152602092508660208588010111156200010057600080fd5b600091505b8382101562000124578582018301518183018401529082019062000105565b6000602085830101528094505050505092915050565b600080600080608085870312156200015157600080fd5b84516001600160a01b03811681146200016957600080fd5b60208601519094506001600160401b03808211156200018757600080fd5b620001958883890162000088565b94506040870151915080821115620001ac57600080fd5b50620001bb8782880162000088565b925050606085015160ff81168114620001d357600080fd5b939692955090935050565b600181811c90821680620001f357607f821691505b6020821081036200021457634e487b7160e01b600052602260045260246000fd5b50919050565b601f8211156200026a576000816000526020600020601f850160051c81016020861015620002455750805b601f850160051c820191505b81811015620002665782815560010162000251565b5050505b505050565b81516001600160401b038111156200028b576200028b62000072565b620002a3816200029c8454620001de565b846200021a565b602080601f831160018114620002db5760008415620002c25750858301515b600019600386901b1c1916600185901b17855562000266565b600085815260208120601f198616915b828110156200030c57888601518255948401946001909101908401620002eb565b50858210156200032b5787850151600019600388901b60f8161c191681555b5050505050600190811b01905550565b60805160a051610c356200036860003960006101ca01526000818161013c015261038b0152610c356000f3fe608060405234801561001057600080fd5b50600436106100f55760003560e01c8063313ce5671161009757806395d89b411161006657806395d89b4114610243578063a457c2d71461024b578063a9059cbb1461025e578063dd62ed3e1461027157600080fd5b8063313ce567146101c357806339509351146101f45780636fafdf831461020757806370a082311461021a57600080fd5b8063095ea7b3116100d3578063095ea7b3146101765780630e583dd21461018957806318160ddd1461019e57806323b872dd146101b057600080fd5b806301ffc9a7146100fa57806306fdde03146101225780630754617214610137575b600080fd5b61010d610108366004610a3b565b610284565b60405190151581526020015b60405180910390f35b61012a6102d6565b6040516101199190610a6c565b61015e7f000000000000000000000000000000000000000000000000000000000000000081565b6040516001600160a01b039091168152602001610119565b61010d610184366004610ad7565b610368565b61019c610197366004610ad7565b610380565b005b6002545b604051908152602001610119565b61010d6101be366004610b01565b6103f9565b60405160ff7f0000000000000000000000000000000000000000000000000000000000000000168152602001610119565b61010d610202366004610ad7565b61041d565b61019c610215366004610b3d565b61043f565b6101a2610228366004610b56565b6001600160a01b031660009081526020819052604090205490565b61012a61044c565b61010d610259366004610ad7565b61045b565b61010d61026c366004610ad7565b6104d6565b6101a261027f366004610b71565b6104e4565b60006001600160e01b031982166301ffc9a760e01b14806102b557506001600160e01b031982166336372b0760e01b145b806102d057506001600160e01b0319821663a219a02560e01b145b92915050565b6060600380546102e590610ba4565b80601f016020809104026020016040519081016040528092919081815260200182805461031190610ba4565b801561035e5780601f106103335761010080835404028352916020019161035e565b820191906000526020600020905b81548152906001019060200180831161034157829003601f168201915b5050505050905090565b60003361037681858561050f565b5060019392505050565b336001600160a01b037f000000000000000000000000000000000000000000000000000000000000000016146103eb5760405162461bcd60e51b815260206004820152600b60248201526a37b7363c9036b4b73a32b960a91b60448201526064015b60405180910390fd5b6103f58282610634565b5050565b6000336104078582856106f3565b61041285858561076d565b506001949350505050565b60003361037681858561043083836104e4565b61043a9190610bde565b61050f565b6104493382610911565b50565b6060600480546102e590610ba4565b6000338161046982866104e4565b9050838110156104c95760405162461bcd60e51b815260206004820152602560248201527f45524332303a2064656372656173656420616c6c6f77616e63652062656c6f77604482015264207a65726f60d81b60648201526084016103e2565b610412828686840361050f565b60003361037681858561076d565b6001600160a01b03918216600090815260016020908152604080832093909416825291909152205490565b6001600160a01b0383166105715760405162461bcd60e51b8152602060048201526024808201527f45524332303a20617070726f76652066726f6d20746865207a65726f206164646044820152637265737360e01b60648201526084016103e2565b6001600160a01b0382166105d25760405162461bcd60e51b815260206004820152602260248201527f45524332303a20617070726f766520746f20746865207a65726f206164647265604482015261737360f01b60648201526084016103e2565b6001600160a01b0383811660008181526001602090815260408083209487168084529482529182902085905590518481527f8c5be1e5ebec7d5bd14f71427d1e84f3dd0314c0f7b2291e5b200ac8c7c3b92591015b60405180910390a3505050565b6001600160a01b03821661068a5760405162461bcd60e51b815260206004820152601f60248201527f45524332303a206d696e7420746f20746865207a65726f20616464726573730060448201526064016103e2565b806002600082825461069c9190610bde565b90915550506001600160a01b038216600081815260208181526040808320805486019055518481527fddf252ad1be2c89b69c2b068fc378daa952ba7f163c4a11628f55a4df523b3ef910160405180910390a35050565b60006106ff84846104e4565b90506000198114610767578181101561075a5760405162461bcd60e51b815260206004820152601d60248201527f45524332303a20696e73756666696369656e7420616c6c6f77616e636500000060448201526064016103e2565b610767848484840361050f565b50505050565b6001600160a01b0383166107d15760405162461bcd60e51b815260206004820152602560248201527f45524332303a207472616e736665722066726f6d20746865207a65726f206164604482015264647265737360d81b60648201526084016103e2565b6001600160a01b0382166108335760405162461bcd60e51b815260206004820152602360248201527f45524332303a207472616e7366657220746f20746865207a65726f206164647260448201526265737360e81b60648201526084016103e2565b6001600160a01b038316600090815260208190526040902054818110156108ab5760405162461bcd60e51b815260206004820152602660248201527f45524332303a207472616e7366657220616d6f756e7420657863656564732062604482015265616c616e636560d01b60648201526084016103e2565b6001600160a01b03848116600081815260208181526040808320878703905593871680835291849020805487019055925185815290927fddf252ad1be2c89b69c2b068fc378daa952ba7f163c4a11628f55a4df523b3ef910160405180910390a3610767565b6001600160a01b0382166109715760405162461bcd60e51b815260206004820152602160248201527f45524332303a206275726e2066726f6d20746865207a65726f206164647265736044820152607360f81b60648201526084016103e2565b6001600160a01b038216600090815260208190526040902054818110156109e55760405162461bcd60e51b815260206004820152602260248201527f45524332303a206275726e20616d6f756e7420657863656564732062616c616e604482015261636560f01b60648201526084016103e2565b6001600160a01b0383166000818152602081815260408083208686039055600280548790039055518581529192917fddf252ad1be2c89b69c2b068fc378daa952ba7f163c4a11628f55a4df523b3ef9101610627565b600060208284031215610a4d57600080fd5b81356001600160e01b031981168114610a6557600080fd5b9392505050565b60006020808352835180602085015260005b81811015610a9a57858101830151858201604001528201610a7e565b506000604082860101526040601f19601f8301168501019250505092915050565b80356001600160a01b0381168114610ad257600080fd5b919050565b60008060408385031215610aea57600080fd5b610af383610abb565b946020939093013593505050565b600080600060608486031215610b1657600080fd5b610b1f84610abb565b9250610b2d60208501610abb565b9150604084013590509250925092565b600060208284031215610b4f57600080fd5b5035919050565b600060208284031215610b6857600080fd5b610a6582610abb565b60008060408385031215610b8457600080fd5b610b8d83610abb565b9150610b9b60208401610abb565b90509250929050565b600181811c90821680610bb857607f821691505b602082108103610bd857634e487b7160e01b600052602260045260246000fd5b50919050565b808201808211156102d057634e487b7160e01b600052601160045260246000fdfea2646970667358221220c9520a6ba09b32fc2d37308a0450452ba886cccf4e6d77bf786069cf4165b0ec64736f6c63430008170033",
  "linkReferences": {},
  "deployedLinkReferences": {}
}