{
  "_format": "hh-sol-artifact-1",
  "contractName": "AssetManagerInit",
  "sourceName": "contracts/fasset/facets/AssetManagerInit.sol",
  "abi": [
    {
      "anonymous": false,
      "inputs": [
        {
          "indexed": false,
          "internalType": "uint8",
          "name": "collateralClass",
          "type": "uint8"
        },
        {
          "indexed": false,
          "internalType": "address",
          "name": "token",
          "type": "address"
        },
        {
          "indexed": false,
          "internalType": "uint256",
          "name": "decimals",
          "type": "uint256"
        },
        {
          "indexed": false,
          "internalType": "bool",
          "name": "directPricePair",
          "type": "bool"
        },
        {
          "indexed": false,
          "internalType": "string",
          "name": "assetFtsoSymbol",
          "type": "string"
        },
        {
          "indexed": false,
          "internalType": "string",
          "name": "tokenFtsoSymbol",
          "type": "string"
        },
        {
          "indexed": false,
          "internalType": "uint256",
          "name": "minCollateralRatioBIPS",
          "type": "uint256"
        },
        {
          "indexed": false,
          "internalType": "uint256",
          "name": "ccbMinCollateralRatioBIPS",
          "type": "uint256"
        },
        {
          "indexed": false,
          "internalType": "uint256",
          "name": "safetyMinCollateralRatioBIPS",
          "type": "uint256"
        }
      ],
      "name": "CollateralTypeAdded",
      "type": "event"
    },
    {
      "anonymous": false,
      "inputs": [
        {
          "indexed": false,
          "internalType": "bytes",
          "name": "encodedCall",
          "type": "bytes"
        },
        {
          "indexed": false,
          "internalType": "bytes32",
          "name": "encodedCallHash",
          "type": "bytes32"
        },
        {
          "indexed": false,
          "internalType": "uint256",
          "name": "allowedAfterTimestamp",
          "type": "uint256"
        }
      ],
      "name": "GovernanceCallTimelocked",
      "type": "event"
    },
    {
      "anonymous": false,
      "inputs": [
        {
          "indexed": false,
          "internalType": "address",
          "name": "initialGovernance",
          "type": "address"
        }
      ],
      "name": "GovernanceInitialised",
      "type": "event"
    },
    {
      "anonymous": false,
      "inputs": [
        {
          "indexed": false,
          "internalType": "address",
          "name": "governanceSettings",
          "type": "address"
        }
      ],
      "name": "GovernedProductionModeEntered",
      "type": "event"
    },
    {
      "anonymous": false,
      "inputs": [
        {
          "indexed": false,
          "internalType": "bytes32",
          "name": "encodedCallHash",
          "type": "bytes32"
        }
      ],
      "name": "TimelockedGovernanceCallCanceled",
      "type": "event"
    },
    {
      "anonymous": false,
      "inputs": [
        {
          "indexed": false,
          "internalType": "bytes32",
          "name": "encodedCallHash",
          "type": "bytes32"
        }
      ],
      "name": "TimelockedGovernanceCallExecuted",
      "type": "event"
    },
    {
      "inputs": [
        {
          "internalType": "bytes",
          "name": "_encodedCall",
          "type": "bytes"
        }
      ],
      "name": "cancelGovernanceCall",
      "outputs": [],
      "stateMutability": "nonpayable",
      "type": "function"
    },
    {
      "inputs": [
        {
          "internalType": "bytes",
          "name": "_encodedCall",
          "type": "bytes"
        }
      ],
      "name": "executeGovernanceCall",
      "outputs": [],
      "stateMutability": "nonpayable",
      "type": "function"
    },
    {
      "inputs": [],
      "name": "governance",
      "outputs": [
        {
          "internalType": "address",
          "name": "",
          "type": "address"
        }
      ],
      "stateMutability": "view",
      "type": "function"
    },
    {
      "inputs": [],
      "name": "governanceSettings",
      "outputs": [
        {
          "internalType": "contract IGovernanceSettings",
          "name": "",
          "type": "address"
        }
      ],
      "stateMutability": "view",
      "type": "function"
    },
    {
      "inputs": [
        {
          "internalType": "contract IGovernanceSettings",
          "name": "_governanceSettings",
          "type": "address"
        },
        {
          "internalType": "address",
          "name": "_initialGovernance",
          "type": "address"
        },
        {
          "components": [
            {
              "internalType": "address",
              "name": "assetManagerController",
              "type": "address"
            },
            {
              "internalType": "address",
              "name": "fAsset",
              "type": "address"
            },
            {
              "internalType": "address",
              "name": "agentVaultFactory",
              "type": "address"
            },
            {
              "internalType": "address",
              "name": "collateralPoolFactory",
              "type": "address"
            },
            {
              "internalType": "address",
              "name": "collateralPoolTokenFactory",
              "type": "address"
            },
            {
              "internalType": "string",
              "name": "poolTokenSuffix",
              "type": "string"
            },
            {
              "internalType": "address",
              "name": "whitelist",
              "type": "address"
            },
            {
              "internalType": "address",
              "name": "agentOwnerRegistry",
              "type": "address"
            },
            {
              "internalType": "address",
              "name": "scProofVerifier",
              "type": "address"
            },
            {
              "internalType": "address payable",
              "name": "burnAddress",
              "type": "address"
            },
            {
              "internalType": "address",
              "name": "priceReader",
              "type": "address"
            },
            {
              "internalType": "uint8",
              "name": "assetDecimals",
              "type": "uint8"
            },
            {
              "internalType": "uint8",
              "name": "assetMintingDecimals",
              "type": "uint8"
            },
            {
              "internalType": "bytes32",
              "name": "chainId",
              "type": "bytes32"
            },
            {
              "internalType": "uint32",
              "name": "averageBlockTimeMS",
              "type": "uint32"
            },
            {
              "internalType": "uint32",
              "name": "mintingPoolHoldingsRequiredBIPS",
              "type": "uint32"
            },
            {
              "internalType": "uint16",
              "name": "collateralReservationFeeBIPS",
              "type": "uint16"
            },
            {
              "internalType": "uint64",
              "name": "assetUnitUBA",
              "type": "uint64"
            },
            {
              "internalType": "uint64",
              "name": "assetMintingGranularityUBA",
              "type": "uint64"
            },
            {
              "internalType": "uint64",
              "name": "lotSizeAMG",
              "type": "uint64"
            },
            {
              "internalType": "uint16",
              "name": "minUnderlyingBackingBIPS",
              "type": "uint16"
            },
            {
              "internalType": "bool",
              "name": "requireEOAAddressProof",
              "type": "bool"
            },
            {
              "internalType": "uint64",
              "name": "mintingCapAMG",
              "type": "uint64"
            },
            {
              "internalType": "uint64",
              "name": "underlyingBlocksForPayment",
              "type": "uint64"
            },
            {
              "internalType": "uint64",
              "name": "underlyingSecondsForPayment",
              "type": "uint64"
            },
            {
              "internalType": "uint16",
              "name": "redemptionFeeBIPS",
              "type": "uint16"
            },
            {
              "internalType": "uint32",
              "name": "redemptionDefaultFactorVaultCollateralBIPS",
              "type": "uint32"
            },
            {
              "internalType": "uint32",
              "name": "redemptionDefaultFactorPoolBIPS",
              "type": "uint32"
            },
            {
              "internalType": "uint64",
              "name": "confirmationByOthersAfterSeconds",
              "type": "uint64"
            },
            {
              "internalType": "uint128",
              "name": "confirmationByOthersRewardUSD5",
              "type": "uint128"
            },
            {
              "internalType": "uint16",
              "name": "maxRedeemedTickets",
              "type": "uint16"
            },
            {
              "internalType": "uint16",
              "name": "paymentChallengeRewardBIPS",
              "type": "uint16"
            },
            {
              "internalType": "uint128",
              "name": "paymentChallengeRewardUSD5",
              "type": "uint128"
            },
            {
              "internalType": "uint64",
              "name": "withdrawalWaitMinSeconds",
              "type": "uint64"
            },
            {
              "internalType": "uint64",
              "name": "maxTrustedPriceAgeSeconds",
              "type": "uint64"
            },
            {
              "internalType": "uint64",
              "name": "ccbTimeSeconds",
              "type": "uint64"
            },
            {
              "internalType": "uint64",
              "name": "attestationWindowSeconds",
              "type": "uint64"
            },
            {
              "internalType": "uint64",
              "name": "minUpdateRepeatTimeSeconds",
              "type": "uint64"
            },
            {
              "internalType": "uint64",
              "name": "buybackCollateralFactorBIPS",
              "type": "uint64"
            },
            {
              "internalType": "uint64",
              "name": "announcedUnderlyingConfirmationMinSeconds",
              "type": "uint64"
            },
            {
              "internalType": "uint64",
              "name": "tokenInvalidationTimeMinSeconds",
              "type": "uint64"
            },
            {
              "internalType": "uint32",
              "name": "vaultCollateralBuyForFlareFactorBIPS",
              "type": "uint32"
            },
            {
              "internalType": "uint64",
              "name": "agentExitAvailableTimelockSeconds",
              "type": "uint64"
            },
            {
              "internalType": "uint64",
              "name": "agentFeeChangeTimelockSeconds",
              "type": "uint64"
            },
            {
              "internalType": "uint64",
              "name": "agentMintingCRChangeTimelockSeconds",
              "type": "uint64"
            },
            {
              "internalType": "uint64",
              "name": "poolExitAndTopupChangeTimelockSeconds",
              "type": "uint64"
            },
            {
              "internalType": "uint64",
              "name": "agentTimelockedOperationWindowSeconds",
              "type": "uint64"
            },
            {
              "internalType": "uint32",
              "name": "collateralPoolTokenTimelockSeconds",
              "type": "uint32"
            },
            {
              "internalType": "uint64",
              "name": "liquidationStepSeconds",
              "type": "uint64"
            },
            {
              "internalType": "uint256[]",
              "name": "liquidationCollateralFactorBIPS",
              "type": "uint256[]"
            },
            {
              "internalType": "uint256[]",
              "name": "liquidationFactorVaultCollateralBIPS",
              "type": "uint256[]"
            },
            {
              "internalType": "uint64",
              "name": "diamondCutMinTimelockSeconds",
              "type": "uint64"
            }
          ],
          "internalType": "struct AssetManagerSettings.Data",
          "name": "_settings",
          "type": "tuple"
        },
        {
          "components": [
            {
              "internalType": "enum CollateralType.Class",
              "name": "collateralClass",
              "type": "uint8"
            },
            {
              "internalType": "contract IERC20",
              "name": "token",
              "type": "address"
            },
            {
              "internalType": "uint256",
              "name": "decimals",
              "type": "uint256"
            },
            {
              "internalType": "uint256",
              "name": "validUntil",
              "type": "uint256"
            },
            {
              "internalType": "bool",
              "name": "directPricePair",
              "type": "bool"
            },
            {
              "internalType": "string",
              "name": "assetFtsoSymbol",
              "type": "string"
            },
            {
              "internalType": "string",
              "name": "tokenFtsoSymbol",
              "type": "string"
            },
            {
              "internalType": "uint256",
              "name": "minCollateralRatioBIPS",
              "type": "uint256"
            },
            {
              "internalType": "uint256",
              "name": "ccbMinCollateralRatioBIPS",
              "type": "uint256"
            },
            {
              "internalType": "uint256",
              "name": "safetyMinCollateralRatioBIPS",
              "type": "uint256"
            }
          ],
          "internalType": "struct CollateralType.Data[]",
          "name": "_initialCollateralTypes",
          "type": "tuple[]"
        }
      ],
      "name": "init",
      "outputs": [],
      "stateMutability": "nonpayable",
      "type": "function"
    },
    {
      "inputs": [
        {
          "internalType": "contract IGovernanceSettings",
          "name": "_governanceSettings",
          "type": "address"
        },
        {
          "internalType": "address",
          "name": "_initialGovernance",
          "type": "address"
        }
      ],
      "name": "initialise",
      "outputs": [],
      "stateMutability": "nonpayable",
      "type": "function"
    },
    {
      "inputs": [
        {
          "internalType": "address",
          "name": "_address",
          "type": "address"
        }
      ],
      "name": "isExecutor",
      "outputs": [
        {
          "internalType": "bool",
          "name": "",
          "type": "bool"
        }
      ],
      "stateMutability": "view",
      "type": "function"
    },
    {
      "inputs": [],
      "name": "productionMode",
      "outputs": [
        {
          "internalType": "bool",
          "name": "",
          "type": "bool"
        }
      ],
      "stateMutability": "view",
      "type": "function"
    },
    {
      "inputs": [],
      "name": "switchToProductionMode",
      "outputs": [],
      "stateMutability": "nonpayable",
      "type": "function"
    }
  ],
  "bytecode": "0x60806040523480156200001157600080fd5b50620000206111118062000026565b620001bf565b7f2aa47ee5db910f3b2a06970c443249cc77dbd9f96100cfebc1775ab7fb1d18248054600160a01b900460ff1615620000a65760405162461bcd60e51b815260206004820152601460248201527f696e697469616c6973656420213d2066616c736500000000000000000000000060448201526064015b60405180910390fd5b6001600160a01b038316620000fe5760405162461bcd60e51b815260206004820152601860248201527f676f7665726e616e63652073657474696e6773207a65726f000000000000000060448201526064016200009d565b6001600160a01b038216620001495760405162461bcd60e51b815260206004820152601060248201526f5f676f7665726e616e6365207a65726f60801b60448201526064016200009d565b80546001600160a01b038481166001600160a81b031990921691909117600160a01b1782556001820180549184166001600160a01b0319909216821790556040519081527f9789733827840833afc031fb2ef9ab6894271f77bad2085687cf4ae5c7bee4db9060200160405180910390a1505050565b61340780620001cf6000396000f3fe608060405234801561001057600080fd5b50600436106100935760003560e01c806362354e031161006657806362354e03146100f8578063debfda3014610116578063e17f212e14610139578063ef88bf1314610158578063f5a983831461016b57600080fd5b806316fc2f6d1461009857806320c5f99d146100ad578063433e8b2f146100c05780635aa6e675146100d3575b600080fd5b6100ab6100a6366004612749565b610173565b005b6100ab6100bb366004612749565b61025b565b6100ab6100ce366004612b56565b61044a565b6100db6105f1565b6040516001600160a01b0390911681526020015b60405180910390f35b6000805160206133b2833981519152546001600160a01b03166100db565b610129610124366004612fbd565b61069a565b60405190151581526020016100ef565b6000805160206133b283398151915254600160a81b900460ff16610129565b6100ab610166366004612fda565b610734565b6100ab6108a8565b61017b61097c565b6040516000805160206133b28339815191529060009061019e9085908590613013565b60405180910390209050816002016000828152602001908152602001600020546000036102125760405162461bcd60e51b815260206004820152601a60248201527f74696d656c6f636b3a20696e76616c69642073656c6563746f7200000000000060448201526064015b60405180910390fd5b6040518181527f69b058d6225c01c1f2a25801ca5b05705fa2e9118e93d518390ba804398c87b19060200160405180910390a16000908152600290910160205260408120555050565b6000805160206133b28339815191526102733361069a565b6102af5760405162461bcd60e51b815260206004820152600d60248201526c37b7363c9032bc32b1baba37b960991b6044820152606401610209565b600083836040516102c1929190613013565b6040805191829003909120600081815260028501602052918220549092509081900361032f5760405162461bcd60e51b815260206004820152601a60248201527f74696d656c6f636b3a20696e76616c69642073656c6563746f720000000000006044820152606401610209565b8042101561037f5760405162461bcd60e51b815260206004820152601960248201527f74696d656c6f636b3a206e6f7420616c6c6f77656420796574000000000000006044820152606401610209565b6000828152600284016020526040808220829055845460ff60b01b1916600160b01b1785555130906103b49088908890613013565b6000604051808303816000865af19150503d80600081146103f1576040519150601f19603f3d011682016040523d82523d6000602084013e6103f6565b606091505b5050845460ff60b01b191685556040518481529091507fec1225e5a8a8acb91e03ce648c683c74f5d152a775b9715980999441d714c44f9060200160405180910390a1610442816109d8565b505050505050565b6104548484610734565b61047d60017f0cd2207518cd3e5213e2c6dbe63d55b60aa893c194a427b7d7f1600408fd5bde55565b610486826109f5565b61048f81610a0a565b6105eb7fc8fcad8db84d3cc18b4c41d551ea0ee66dd599cde068d998e57d5e09332c131e6020527f673a26ab9c976db950bbe987aa80c5e387f329563bb0afe093ddccc970489e318054600160ff1991821681179092557f795db15802e151b19272d3e7b72ebd9d0cedc282cc23a6e937c8c3c90d9e213780548216831790557f9bed265332efc30fa7643cc339edc91cb284a0f6566818a5788922af58c86b5080548216831790557f0e17016f77c707cc5512876feaba348b6ac4583ca05776931566ec6ff53bf1bf80548216831790557fb09cb9baccf10cb3f0305171f79e17b3ca7a84e3e9c4c46806c35703dcc3df1580548216831790557fa17c4822daecd51d6e81d67b3008bd237b9fe1d997feb6e95f6b7470a2ccc51e805482168317905563b6944a0760e01b6000527f4ee2dc5a87b2341cdd884cb24ac903cb3474fc8ab46d935373f1eb2142f14e5780549091169091179055565b50505050565b6000805160206133b2833981519152805460009190600160a81b900460ff166106275760018101546001600160a01b0316610694565b805460408051631cc9492560e21b815290516001600160a01b03909216916373252494916004808201926020929091908290030181865afa158015610670573d6000803e3d6000fd5b505050506040513d601f19601f820116820180604052508101906106949190613023565b91505090565b6000805160206133b2833981519152805460009190600160a01b900460ff16801561072d57508054604051630debfda360e41b81526001600160a01b0385811660048301529091169063debfda3090602401602060405180830381865afa158015610709573d6000803e3d6000fd5b505050506040513d601f19601f8201168201806040525081019061072d9190613040565b9392505050565b6000805160206133b28339815191528054600160a01b900460ff16156107935760405162461bcd60e51b8152602060048201526014602482015273696e697469616c6973656420213d2066616c736560601b6044820152606401610209565b6001600160a01b0383166107e95760405162461bcd60e51b815260206004820152601860248201527f676f7665726e616e63652073657474696e6773207a65726f00000000000000006044820152606401610209565b6001600160a01b0382166108325760405162461bcd60e51b815260206004820152601060248201526f5f676f7665726e616e6365207a65726f60801b6044820152606401610209565b80546001600160a01b038481166001600160a81b031990921691909117600160a01b1782556001820180549184166001600160a01b0319909216821790556040519081527f9789733827840833afc031fb2ef9ab6894271f77bad2085687cf4ae5c7bee4db9060200160405180910390a1505050565b6108b061097c565b6000805160206133b28339815191528054600160a81b900460ff16156109185760405162461bcd60e51b815260206004820152601a60248201527f616c726561647920696e2070726f64756374696f6e206d6f64650000000000006044820152606401610209565b6001810180546001600160a01b03191690558054600160a81b60ff60a81b1982161782556040516001600160a01b0390911681527f83af113638b5422f9e977cebc0aaf0eaf2188eb9a8baae7f9d46c42b33a1560c9060200160405180910390a150565b6109846105f1565b6001600160a01b0316336001600160a01b0316146109d65760405162461bcd60e51b815260206004820152600f60248201526e6f6e6c7920676f7665726e616e636560881b6044820152606401610209565b565b3d604051818101604052816000823e82156109f1578181f35b8181fd5b6109fe81610bb8565b610a078161147d565b50565b600281511015610a665760405162461bcd60e51b815260206004820152602160248201527f6174206c656173742074776f20636f6c6c61746572616c7320726571756972656044820152601960fa1b6064820152608401610209565b600181600081518110610a7b57610a7b613073565b6020026020010151600001516002811115610a9857610a9861305d565b14610ae55760405162461bcd60e51b815260206004820152601a60248201527f6e6f74206120706f6f6c20636f6c6c61746572616c20617420300000000000006044820152606401610209565b610b0881600081518110610afb57610afb613073565b6020026020010151611d46565b50610b1360006121c8565b60015b8151811015610bb4576002828281518110610b3357610b33613073565b6020026020010151600001516002811115610b5057610b5061305d565b14610b965760405162461bcd60e51b81526020600482015260166024820152751b9bdd0818481d985d5b1d0818dbdb1b185d195c985b60521b6044820152606401610209565b610bab828281518110610afb57610afb613073565b50600101610b16565b5050565b60208101516001600160a01b0316610c085760405162461bcd60e51b81526020600482015260136024820152727a65726f20664173736574206164647265737360681b6044820152606401610209565b60408101516001600160a01b0316610c625760405162461bcd60e51b815260206004820152601e60248201527f7a65726f206167656e745661756c74466163746f7279206164647265737300006044820152606401610209565b60608101516001600160a01b0316610cc75760405162461bcd60e51b815260206004820152602260248201527f7a65726f20636f6c6c61746572616c506f6f6c466163746f7279206164647265604482015261737360f01b6064820152608401610209565b60808101516001600160a01b0316610d315760405162461bcd60e51b815260206004820152602760248201527f7a65726f20636f6c6c61746572616c506f6f6c546f6b656e466163746f7279206044820152666164647265737360c81b6064820152608401610209565b6101008101516001600160a01b0316610d8c5760405162461bcd60e51b815260206004820152601c60248201527f7a65726f20736350726f6f6656657269666965722061646472657373000000006044820152606401610209565b6101408101516001600160a01b0316610de75760405162461bcd60e51b815260206004820152601860248201527f7a65726f207072696365526561646572206164647265737300000000000000006044820152606401610209565b60e08101516001600160a01b0316610e415760405162461bcd60e51b815260206004820152601f60248201527f7a65726f206167656e744f776e657252656769737472792061646472657373006044820152606401610209565b60008161022001516001600160401b031611610e6f5760405162461bcd60e51b815260040161020990613089565b60008161024001516001600160401b031611610e9d5760405162461bcd60e51b815260040161020990613089565b6000816102e001516001600160401b031611610ecb5760405162461bcd60e51b815260040161020990613089565b60008161030001516001600160401b031611610ef95760405162461bcd60e51b815260040161020990613089565b600081610320015161ffff1611610f225760405162461bcd60e51b815260040161020990613089565b600081610200015161ffff1611610f4b5760405162461bcd60e51b815260040161020990613089565b6000816103a001516001600160801b031611610f795760405162461bcd60e51b815260040161020990613089565b6000816103c0015161ffff1611610fa25760405162461bcd60e51b815260040161020990613089565b60008161046001516001600160401b031611610fd05760405162461bcd60e51b815260040161020990613089565b60008161044001516001600160401b031611610ffe5760405162461bcd60e51b815260040161020990613089565b6000816104a001516001600160401b03161161102c5760405162461bcd60e51b815260040161020990613089565b6000816104c001516001600160401b03161161105a5760405162461bcd60e51b815260040161020990613089565b60008161042001516001600160401b0316116110885760405162461bcd60e51b815260040161020990613089565b6000816101c0015163ffffffff16116110b35760405162461bcd60e51b815260040161020990613089565b6110e5816102e001516001600160401b03168261030001516001600160401b0316836101c0015163ffffffff16612265565b60008161026001516001600160401b0316116111135760405162461bcd60e51b815260040161020990613089565b6102c08101516001600160401b0316158061114a57508061026001516001600160401b0316816102c001516001600160401b031610155b61118e5760405162461bcd60e51b81526020600482015260156024820152741b5a5b9d1a5b99c818d85c081d1bdbc81cdb585b1b605a1b6044820152606401610209565b600081610280015161ffff16116111b75760405162461bcd60e51b815260040161020990613089565b61271081610280015161ffff1611156111e25760405162461bcd60e51b8152600401610209906130b1565b61271081610200015161ffff16111561120d5760405162461bcd60e51b8152600401610209906130b1565b61271081610320015161ffff1611156112385760405162461bcd60e51b8152600401610209906130b1565b600081610360015182610340015161125091906130f4565b63ffffffff169050612710811161129e5760405162461bcd60e51b8152602060048201526012602482015271626970732076616c756520746f6f206c6f7760701b6044820152606401610209565b620151808261048001516001600160401b031610156112f25760405162461bcd60e51b815260206004820152601060248201526f1dda5b991bddc81d1bdbc81cdb585b1b60821b6044820152606401610209565b611c208261038001516001600160401b031610156113525760405162461bcd60e51b815260206004820152601a60248201527f6d757374206265206174206c656173742074776f20686f7572730000000000006044820152606401610209565b610e10826104e001516001600160401b031611156113b25760405162461bcd60e51b815260206004820152601960248201527f636f6e6669726d6174696f6e2074696d6520746f6f20626967000000000000006044820152606401610209565b61271082610520015163ffffffff1610156113df5760405162461bcd60e51b815260040161020990613118565b610e10826105c001516001600160401b0316101561140f5760405162461bcd60e51b815260040161020990613118565b603c826105e0015163ffffffff16101561143b5760405162461bcd60e51b815260040161020990613118565b60008261060001516001600160401b0316116114695760405162461bcd60e51b815260040161020990613089565b610bb4826106200151836106400151612306565b80517f4f24f5c433db0962dac0d2c8b84197a6e6c7cc4e5d9ebe1916a1b6193da2f33a80546001600160a01b03199081166001600160a01b0393841617825560208401517f4f24f5c433db0962dac0d2c8b84197a6e6c7cc4e5d9ebe1916a1b6193da2f33b8054831691851691909117905560408401517f4f24f5c433db0962dac0d2c8b84197a6e6c7cc4e5d9ebe1916a1b6193da2f33c8054831691851691909117905560608401517f4f24f5c433db0962dac0d2c8b84197a6e6c7cc4e5d9ebe1916a1b6193da2f33d8054831691851691909117905560808401517f4f24f5c433db0962dac0d2c8b84197a6e6c7cc4e5d9ebe1916a1b6193da2f33e805490921693169290921790915560a08201518190839082907f4f24f5c433db0962dac0d2c8b84197a6e6c7cc4e5d9ebe1916a1b6193da2f33f906115c090826131c3565b5060c08201518160060160006101000a8154816001600160a01b0302191690836001600160a01b0316021790555060e08201518160070160006101000a8154816001600160a01b0302191690836001600160a01b031602179055506101008201518160080160006101000a8154816001600160a01b0302191690836001600160a01b031602179055506101208201518160090160006101000a8154816001600160a01b0302191690836001600160a01b0316021790555061014082015181600a0160006101000a8154816001600160a01b0302191690836001600160a01b0316021790555061016082015181600a0160146101000a81548160ff021916908360ff16021790555061018082015181600a0160156101000a81548160ff021916908360ff1602179055506101a082015181600b01556101c082015181600c0160006101000a81548163ffffffff021916908363ffffffff1602179055506101e082015181600c0160046101000a81548163ffffffff021916908363ffffffff16021790555061020082015181600c0160086101000a81548161ffff021916908361ffff16021790555061022082015181600c01600a6101000a8154816001600160401b0302191690836001600160401b0316021790555061024082015181600c0160126101000a8154816001600160401b0302191690836001600160401b0316021790555061026082015181600d0160006101000a8154816001600160401b0302191690836001600160401b0316021790555061028082015181600d0160086101000a81548161ffff021916908361ffff1602179055506102a082015181600d01600a6101000a81548160ff0219169083151502179055506102c082015181600d01600b6101000a8154816001600160401b0302191690836001600160401b031602179055506102e082015181600d0160136101000a8154816001600160401b0302191690836001600160401b0316021790555061030082015181600e0160006101000a8154816001600160401b0302191690836001600160401b0316021790555061032082015181600e0160086101000a81548161ffff021916908361ffff16021790555061034082015181600e01600a6101000a81548163ffffffff021916908363ffffffff16021790555061036082015181600e01600e6101000a81548163ffffffff021916908363ffffffff16021790555061038082015181600e0160126101000a8154816001600160401b0302191690836001600160401b031602179055506103a082015181600f0160006101000a8154816001600160801b0302191690836001600160801b031602179055506103c082015181600f0160106101000a81548161ffff021916908361ffff1602179055506103e082015181600f0160126101000a81548161ffff021916908361ffff1602179055506104008201518160100160006101000a8154816001600160801b0302191690836001600160801b031602179055506104208201518160100160106101000a8154816001600160401b0302191690836001600160401b031602179055506104408201518160100160186101000a8154816001600160401b0302191690836001600160401b031602179055506104608201518160110160006101000a8154816001600160401b0302191690836001600160401b031602179055506104808201518160110160086101000a8154816001600160401b0302191690836001600160401b031602179055506104a08201518160110160106101000a8154816001600160401b0302191690836001600160401b031602179055506104c08201518160110160186101000a8154816001600160401b0302191690836001600160401b031602179055506104e08201518160120160006101000a8154816001600160401b0302191690836001600160401b031602179055506105008201518160120160086101000a8154816001600160401b0302191690836001600160401b031602179055506105208201518160120160106101000a81548163ffffffff021916908363ffffffff1602179055506105408201518160120160146101000a8154816001600160401b0302191690836001600160401b031602179055506105608201518160130160006101000a8154816001600160401b0302191690836001600160401b031602179055506105808201518160130160086101000a8154816001600160401b0302191690836001600160401b031602179055506105a08201518160130160106101000a8154816001600160401b0302191690836001600160401b031602179055506105c08201518160130160186101000a8154816001600160401b0302191690836001600160401b031602179055506105e08201518160140160006101000a81548163ffffffff021916908363ffffffff1602179055506106008201518160140160046101000a8154816001600160401b0302191690836001600160401b03160217905550610620820151816015019080519060200190611cf89291906126f2565b506106408201518051611d159160168401916020909101906126f2565b5061066091909101516017909101805467ffffffffffffffff19166001600160401b03909216919091179055505050565b60208101516000907fec7e8c1c441439dd40959777f4c577ea0cd42fcc1dbe59d2bd0f5d9c55df8db6906001600160a01b0316611db25760405162461bcd60e51b815260206004820152600a602482015269746f6b656e207a65726f60b01b6044820152606401610209565b6000611dc684600001518560200151612531565b600081815260018401602052604090205490915015611e1e5760405162461bcd60e51b8152602060048201526014602482015273746f6b656e20616c72656164792065786973747360601b6044820152606401610209565b606084015115611e705760405162461bcd60e51b815260206004820152601b60248201527f63616e6e6f7420616464206465707265636174656420746f6b656e00000000006044820152606401610209565b6000846101000151612710108015611e9157508460e0015185610100015111155b8015611ea657508461012001518560e0015111155b905080611ef55760405162461bcd60e51b815260206004820152601960248201527f696e76616c696420636f6c6c61746572616c20726174696f73000000000000006044820152606401610209565b82546040805161014081019091526020808801516001600160a01b0316825287518692918201906002811115611f2d57611f2d61305d565b8152602001611f3f896040015161255d565b60ff168152602001611f5489606001516125c2565b6001600160401b031681526020018860800151151581526020018860a0015181526020018860c001518152602001611f8f8960e0015161262a565b63ffffffff168152602001611fa889610100015161262a565b63ffffffff168152602001611fc189610120015161262a565b63ffffffff16905281546001810183556000928352602092839020825160049092020180546001600160a01b031981166001600160a01b03909316928317825593830151929390929183916001600160a81b03191617600160a01b83600281111561202e5761202e61305d565b021790555060408201518154606084015160808501511515600160f01b0260ff60f01b196001600160401b03909216600160b01b0267ffffffffffffffff60b01b1960ff909516600160a81b029490941668ffffffffffffffffff60a81b1990931692909217929092179190911617815560a082015160018201906120b390826131c3565b5060c082015160028201906120c890826131c3565b5060e0820151600390910180546101008401516101209094015163ffffffff90811668010000000000000000026bffffffff0000000000000000199582166401000000000267ffffffffffffffff1990931691909416171792909216179055612132816001613282565b600084815260018601602052604090205585517fbef4c272617e8773ee6209dd5f05e50ca5be37232b0c94cb8439d8a56bfdb7ce9060028111156121785761217861305d565b8760200151886040015189608001518a60a001518b60c001518c60e001518d61010001518e61012001516040516121b7999897969594939291906132db565b60405180910390a195945050505050565b7fec7e8c1c441439dd40959777f4c577ea0cd42fcc1dbe59d2bd0f5d9c55df8db6805460009082908490811061220057612200613073565b60009182526020909120600490910201905060018154600160a01b900460ff1660028111156122315761223161305d565b1461223e5761223e61334f565b6122478361268f565b600f92909201805461ffff191661ffff909316929092179091555050565b620151808211156122a85760405162461bcd60e51b815260206004820152600d60248201526c0ecc2d8eaca40e8de40d0d2ced609b1b6044820152606401610209565b620151806103e86122b98386613365565b6122c3919061337c565b11156123015760405162461bcd60e51b815260206004820152600d60248201526c0ecc2d8eaca40e8de40d0d2ced609b1b6044820152606401610209565b505050565b805182511461234b5760405162461bcd60e51b81526020600482015260116024820152701b195b99dd1a1cc81b9bdd08195c5d585b607a1b6044820152606401610209565b60018251101561239d5760405162461bcd60e51b815260206004820152601c60248201527f6174206c65617374206f6e6520666163746f72207265717569726564000000006044820152606401610209565b60005b8251811015612301576127108382815181106123be576123be613073565b6020026020010151116124085760405162461bcd60e51b8152602060048201526012602482015271666163746f72206e6f742061626f7665203160701b6044820152606401610209565b82818151811061241a5761241a613073565b602002602001015182828151811061243457612434613073565b6020026020010151111561249c5760405162461bcd60e51b815260206004820152602960248201527f7661756c7420636f6c6c61746572616c20666163746f722068696768657220746044820152681a185b881d1bdd185b60ba1b6064820152608401610209565b8015806124e45750826124b060018361339e565b815181106124c0576124c0613073565b60200260200101518382815181106124da576124da613073565b6020026020010151115b6125295760405162461bcd60e51b8152602060048201526016602482015275666163746f7273206e6f7420696e6372656173696e6760501b6044820152606401610209565b6001016123a0565b6000816001600160a01b031660a08460028111156125515761255161305d565b901b1790505b92915050565b600060ff8211156125be5760405162461bcd60e51b815260206004820152602560248201527f53616665436173743a2076616c756520646f65736e27742066697420696e2038604482015264206269747360d81b6064820152608401610209565b5090565b60006001600160401b038211156125be5760405162461bcd60e51b815260206004820152602660248201527f53616665436173743a2076616c756520646f65736e27742066697420696e203660448201526534206269747360d01b6064820152608401610209565b600063ffffffff8211156125be5760405162461bcd60e51b815260206004820152602660248201527f53616665436173743a2076616c756520646f65736e27742066697420696e203360448201526532206269747360d01b6064820152608401610209565b600061ffff8211156125be5760405162461bcd60e51b815260206004820152602660248201527f53616665436173743a2076616c756520646f65736e27742066697420696e203160448201526536206269747360d01b6064820152608401610209565b82805482825590600052602060002090810192821561272d579160200282015b8281111561272d578251825591602001919060010190612712565b506125be9291505b808211156125be5760008155600101612735565b6000806020838503121561275c57600080fd5b82356001600160401b038082111561277357600080fd5b818501915085601f83011261278757600080fd5b81358181111561279657600080fd5b8660208285010111156127a857600080fd5b60209290920196919550909350505050565b6001600160a01b0381168114610a0757600080fd5b80356127da816127ba565b919050565b634e487b7160e01b600052604160045260246000fd5b60405161014081016001600160401b0381118282101715612818576128186127df565b60405290565b60405161068081016001600160401b0381118282101715612818576128186127df565b604051601f8201601f191681016001600160401b0381118282101715612869576128696127df565b604052919050565b600082601f83011261288257600080fd5b81356001600160401b0381111561289b5761289b6127df565b6128ae601f8201601f1916602001612841565b8181528460208386010111156128c357600080fd5b816020850160208301376000918101602001919091529392505050565b803560ff811681146127da57600080fd5b803563ffffffff811681146127da57600080fd5b803561ffff811681146127da57600080fd5b80356001600160401b03811681146127da57600080fd5b8015158114610a0757600080fd5b80356127da8161292e565b80356001600160801b03811681146127da57600080fd5b60006001600160401b03821115612977576129776127df565b5060051b60200190565b600082601f83011261299257600080fd5b813560206129a76129a28361295e565b612841565b8083825260208201915060208460051b8701019350868411156129c957600080fd5b602086015b848110156129e557803583529183019183016129ce565b509695505050505050565b8035600381106127da57600080fd5b600082601f830112612a1057600080fd5b81356020612a206129a28361295e565b82815260059290921b84018101918181019086841115612a3f57600080fd5b8286015b848110156129e55780356001600160401b0380821115612a635760008081fd5b90880190610140828b03601f1901811315612a7e5760008081fd5b612a866127f5565b612a918885016129f0565b81526040612aa08186016127cf565b89830152606080860135828401526080915081860135818401525060a0612ac881870161293c565b8284015260c091508186013585811115612ae25760008081fd5b612af08f8c838a0101612871565b82850152505060e08086013585811115612b0a5760008081fd5b612b188f8c838a0101612871565b838501525061010094508486013581840152505061012080850135848301528285013581830152508087525050505083830192508381019050612a43565b60008060008060808587031215612b6c57600080fd5b8435612b77816127ba565b93506020850135612b87816127ba565b925060408501356001600160401b0380821115612ba357600080fd5b908601906106808289031215612bb857600080fd5b612bc061281e565b612bc9836127cf565b8152612bd7602084016127cf565b6020820152612be8604084016127cf565b6040820152612bf9606084016127cf565b6060820152612c0a608084016127cf565b608082015260a083013582811115612c2157600080fd5b612c2d8a828601612871565b60a083015250612c3f60c084016127cf565b60c0820152612c5060e084016127cf565b60e0820152610100612c638185016127cf565b90820152610120612c758482016127cf565b90820152610140612c878482016127cf565b90820152610160612c998482016128e0565b90820152610180612cab8482016128e0565b908201526101a083810135908201526101c0612cc88185016128f1565b908201526101e0612cda8482016128f1565b90820152610200612cec848201612905565b90820152610220612cfe848201612917565b90820152610240612d10848201612917565b90820152610260612d22848201612917565b90820152610280612d34848201612905565b908201526102a0612d4684820161293c565b908201526102c0612d58848201612917565b908201526102e0612d6a848201612917565b90820152610300612d7c848201612917565b90820152610320612d8e848201612905565b90820152610340612da08482016128f1565b90820152610360612db28482016128f1565b90820152610380612dc4848201612917565b908201526103a0612dd6848201612947565b908201526103c0612de8848201612905565b908201526103e0612dfa848201612905565b90820152610400612e0c848201612947565b90820152610420612e1e848201612917565b90820152610440612e30848201612917565b90820152610460612e42848201612917565b90820152610480612e54848201612917565b908201526104a0612e66848201612917565b908201526104c0612e78848201612917565b908201526104e0612e8a848201612917565b90820152610500612e9c848201612917565b90820152610520612eae8482016128f1565b90820152610540612ec0848201612917565b90820152610560612ed2848201612917565b90820152610580612ee4848201612917565b908201526105a0612ef6848201612917565b908201526105c0612f08848201612917565b908201526105e0612f1a8482016128f1565b90820152610600612f2c848201612917565b908201526106208381013583811115612f4457600080fd5b612f508b828701612981565b8284015250506106408084013583811115612f6a57600080fd5b612f768b828701612981565b828401525050610660612f8a818501612917565b9082015293506060870135915080821115612fa457600080fd5b50612fb1878288016129ff565b91505092959194509250565b600060208284031215612fcf57600080fd5b813561072d816127ba565b60008060408385031215612fed57600080fd5b8235612ff8816127ba565b91506020830135613008816127ba565b809150509250929050565b8183823760009101908152919050565b60006020828403121561303557600080fd5b815161072d816127ba565b60006020828403121561305257600080fd5b815161072d8161292e565b634e487b7160e01b600052602160045260246000fd5b634e487b7160e01b600052603260045260246000fd5b6020808252600e908201526d63616e6e6f74206265207a65726f60901b604082015260600190565b6020808252601390820152720c4d2e0e640ecc2d8eaca40e8dede40d0d2ced606b1b604082015260600190565b634e487b7160e01b600052601160045260246000fd5b63ffffffff818116838216019080821115613111576131116130de565b5092915050565b6020808252600f908201526e1d985b1d59481d1bdbc81cdb585b1b608a1b604082015260600190565b600181811c9082168061315557607f821691505b60208210810361317557634e487b7160e01b600052602260045260246000fd5b50919050565b601f821115612301576000816000526020600020601f850160051c810160208610156131a45750805b601f850160051c820191505b81811015610442578281556001016131b0565b81516001600160401b038111156131dc576131dc6127df565b6131f0816131ea8454613141565b8461317b565b602080601f831160018114613225576000841561320d5750858301515b600019600386901b1c1916600185901b178555610442565b600085815260208120601f198616915b8281101561325457888601518255948401946001909101908401613235565b50858210156132725787850151600019600388901b60f8161c191681555b5050505050600190811b01905550565b80820180821115612557576125576130de565b6000815180845260005b818110156132bb5760208185018101518683018201520161329f565b506000602082860101526020601f19601f83011685010191505092915050565b60ff8a1681526001600160a01b03891660208201526040810188905286151560608201526101206080820181905260009061331883820189613295565b905082810360a084015261332c8188613295565b60c0840196909652505060e0810192909252610100909101529695505050505050565b634e487b7160e01b600052600160045260246000fd5b8082028115828204841417612557576125576130de565b60008261339957634e487b7160e01b600052601260045260246000fd5b500490565b81810381811115612557576125576130de56fe2aa47ee5db910f3b2a06970c443249cc77dbd9f96100cfebc1775ab7fb1d1824a2646970667358221220d7729e07563240b4d7a1d08fee4ba370b7398e58903a1863a4d61d61904674c864736f6c63430008170033",
  "linkReferences": {},
  "deployedLinkReferences": {}
}