{
  "_format": "hh-sol-artifact-1",
  "contractName": "AgentVaultFactory",
  "sourceName": "contracts/fasset/implementation/AgentVaultFactory.sol",
  "abi": [
    {
      "inputs": [
        {
          "internalType": "contract IAssetManager",
          "name": "_assetManager",
          "type": "address"
        },
        {
          "internalType": "address payable",
          "name": "_owner",
          "type": "address"
        }
      ],
      "name": "create",
      "outputs": [
        {
          "internalType": "contract IAgentVault",
          "name": "",
          "type": "address"
        }
      ],
      "stateMutability": "nonpayable",
      "type": "function"
    }
  ],
  "bytecode": "0x608060405234801561001057600080fd5b5061299e806100206000396000f3fe608060405234801561001057600080fd5b506004361061002b5760003560e01c80633e68680a14610030575b600080fd5b61004361003e3660046100cf565b61005f565b6040516001600160a01b03909116815260200160405180910390f35b6000828260405161006f906100aa565b6001600160a01b03928316815291166020820152604001604051809103906000f0801580156100a2573d6000803e3d6000fd5b509392505050565b6128608061010983390190565b6001600160a01b03811681146100cc57600080fd5b50565b600080604083850312156100e257600080fd5b82356100ed816100b7565b915060208301356100fd816100b7565b80915050925092905056fe60c06040523480156200001157600080fd5b5060405162002860380380620028608339810160408190526200003491620000f3565b60016000556001600160a01b03808316608081905290821660a05260408051635ad2445360e11b8152905163b5a488a6916004808201926020929091908290030181865afa1580156200008b573d6000803e3d6000fd5b505050506040513d601f19601f82011682018060405250810190620000b1919062000132565b600380546001600160a01b0319166001600160a01b039290921691909117905550620001599050565b6001600160a01b0381168114620000f057600080fd5b50565b600080604083850312156200010757600080fd5b82516200011481620000da565b60208401519092506200012781620000da565b809150509250929050565b6000602082840312156200014557600080fd5b81516200015281620000da565b9392505050565b60805160a0516125e56200027b600039600081816103a501528181610503015281816105d40152818161076b015281816107c50152818161085a015281816109ab015281816109e401528181610a8201528181610b8d01528181610cc101528181610d6a01528181610e2701528181610fde01528181611008015281816112cd015281816113650152818161139a0152818161141d0152818161152a015281816116a501528181611722015261186c0152600081816103f10152818161055f0152818161065f015281816106e5015281816108e401528181610d8c01528181610e720152818161102a01528181611097015281816115b80152818161162b015281816117f6015281816119a301528181611a7e0152611c5501526125e56000f3fe6080604052600436106101855760003560e01c80638a30cb8d116100d1578063a5d5db0c1161008a578063d348400c11610064578063d348400c146104bb578063f4d000b2146104c3578063fbebcadf14610243578063ff0eccf6146104e357600080fd5b8063a5d5db0c14610473578063c26f3acf14610493578063d1b8890e146104b357600080fd5b80638a30cb8d146103735780638da5cb5b1461039357806394217ad1146103df5780639edbf00714610413578063a0fe8afb14610433578063a3ea6d1b1461045357600080fd5b806366c473c31161013e5780638310d408116101185780638310d4081461030957806383197ef01461032957806386ac57a21461033e57806387a2a0dc1461035e57600080fd5b806366c473c3146102b65780637a68a508146102c95780637c5452af146102e957600080fd5b80630a4b9ec2146101e35780631f1088a01461020357806320f801d414610223578063406c700714610243578063489a8a47146102765780635eb71cfb1461029657600080fd5b366101de57600354600160a01b900460ff166101dc5760405162461bcd60e51b8152602060048201526011602482015270696e7465726e616c20757365206f6e6c7960781b60448201526064015b60405180910390fd5b005b600080fd5b3480156101ef57600080fd5b506101dc6101fe36600461212b565b6104f8565b34801561020f57600080fd5b506101dc61021e366004612158565b6105c9565b34801561022f57600080fd5b506101dc61023e36600461219a565b6106da565b34801561024f57600080fd5b5061026361025e3660046121db565b61075e565b6040519081526020015b60405180910390f35b34801561028257600080fd5b506101dc6102913660046121db565b61084f565b3480156102a257600080fd5b506101dc6102b136600461212b565b6109d9565b6101dc6102c43660046122b4565b610a77565b3480156102d557600080fd5b506101dc6102e436600461212b565b610b82565b3480156102f557600080fd5b506101dc61030436600461232a565b610cb6565b34801561031557600080fd5b506101dc61032436600461232a565b610e1c565b34801561033557600080fd5b506101dc61108c565b34801561034a57600080fd5b506101dc61035936600461212b565b61138f565b34801561036a57600080fd5b506101dc611412565b34801561037f57600080fd5b506101dc61038e366004612343565b61151f565b34801561039f57600080fd5b506103c77f000000000000000000000000000000000000000000000000000000000000000081565b6040516001600160a01b03909116815260200161026d565b3480156103eb57600080fd5b506103c77f000000000000000000000000000000000000000000000000000000000000000081565b34801561041f57600080fd5b506003546103c7906001600160a01b031681565b34801561043f57600080fd5b506101dc61044e3660046121db565b611620565b34801561045f57600080fd5b506101dc61046e36600461219a565b61169a565b34801561047f57600080fd5b506101dc61048e3660046121db565b611717565b34801561049f57600080fd5b506101dc6104ae36600461219a565b611861565b6101dc61191b565b6101dc611a1f565b3480156104cf57600080fd5b506101dc6104de36600461212b565b611a73565b3480156104ef57600080fd5b506103c7611c3d565b336001600160a01b037f000000000000000000000000000000000000000000000000000000000000000016146105405760405162461bcd60e51b81526004016101d390612373565b604051630525cf6160e11b81526001600160a01b0382811660048301527f00000000000000000000000000000000000000000000000000000000000000001690630a4b9ec290602401600060405180830381600087803b1580156105a357600080fd5b505af11580156105b7573d6000803e3d6000fd5b505050506105c6816001611ccd565b50565b336001600160a01b037f000000000000000000000000000000000000000000000000000000000000000016146106115760405162461bcd60e51b81526004016101d390612373565b600260005414156106345760405162461bcd60e51b81526004016101d390612397565b600260005560405163350c35e960e01b81526001600160a01b038481166004830152602482018490527f0000000000000000000000000000000000000000000000000000000000000000169063350c35e990604401600060405180830381600087803b1580156106a357600080fd5b505af11580156106b7573d6000803e3d6000fd5b506106d0925050506001600160a01b0384168284611d57565b5050600160005550565b336001600160a01b037f000000000000000000000000000000000000000000000000000000000000000016146107225760405162461bcd60e51b81526004016101d3906123ce565b600260005414156107455760405162461bcd60e51b81526004016101d390612397565b60026000556106d06001600160a01b0384168383611d57565b6000336001600160a01b037f000000000000000000000000000000000000000000000000000000000000000016146107a85760405162461bcd60e51b81526004016101d390612373565b60405163596090c960e11b81523060048201526001600160a01b037f000000000000000000000000000000000000000000000000000000000000000081166024830152604482018490526000606483015284169063b2c12192906084016020604051808303816000875af1158015610824573d6000803e3d6000fd5b505050506040513d601f19601f8201168201806040525081019061084891906123fa565b9392505050565b336001600160a01b037f000000000000000000000000000000000000000000000000000000000000000016146108975760405162461bcd60e51b81526004016101d390612373565b600260005414156108ba5760405162461bcd60e51b81526004016101d390612397565b600260005560405163464f54bb60e11b81523060048201526001600160a01b0383811660248301527f00000000000000000000000000000000000000000000000000000000000000001690638c9ea97690604401602060405180830381865afa15801561092b573d6000803e3d6000fd5b505050506040513d601f19601f8201168201806040525081019061094f9190612413565b1561099c5760405162461bcd60e51b815260206004820152601a60248201527f6f6e6c79206e6f6e2d636f6c6c61746572616c20746f6b656e7300000000000060448201526064016101d3565b6109d06001600160a01b0383167f000000000000000000000000000000000000000000000000000000000000000083611d57565b50506001600055565b336001600160a01b037f00000000000000000000000000000000000000000000000000000000000000001614610a215760405162461bcd60e51b81526004016101d390612373565b806001600160a01b031663b302f3936040518163ffffffff1660e01b8152600401600060405180830381600087803b158015610a5c57600080fd5b505af1158015610a70573d6000803e3d6000fd5b5050505050565b336001600160a01b037f00000000000000000000000000000000000000000000000000000000000000001614610abf5760405162461bcd60e51b81526004016101d390612373565b604051632446712560e21b81526001600160a01b03841690639119c494903490610aed908690600401612435565b6000604051808303818588803b158015610b0657600080fd5b505af1158015610b1a573d6000803e3d6000fd5b505060405163d2a4ac6160e01b81526001600160a01b038716935063d2a4ac619250610b4b91508490600401612435565b600060405180830381600087803b158015610b6557600080fd5b505af1158015610b79573d6000803e3d6000fd5b50505050505050565b336001600160a01b037f00000000000000000000000000000000000000000000000000000000000000001614610bca5760405162461bcd60e51b81526004016101d390612373565b600360009054906101000a90046001600160a01b03166001600160a01b0316638c2b8ae16040518163ffffffff1660e01b8152600401602060405180830381865afa158015610c1d573d6000803e3d6000fd5b505050506040513d601f19601f82011682018060405250810190610c419190612482565b6040516317066a5760e21b81526001600160a01b0383811660048301529190911690635c19a95c90602401600060405180830381600087803b158015610c8657600080fd5b505af1158015610c9a573d6000803e3d6000fd5b50506003546105c692506001600160a01b031690506004611ccd565b336001600160a01b037f00000000000000000000000000000000000000000000000000000000000000001614610cfe5760405162461bcd60e51b81526004016101d390612373565b610d06611c3d565b6001600160a01b0316635e318e07826040518263ffffffff1660e01b8152600401610d3391815260200190565b600060405180830381600087803b158015610d4d57600080fd5b505af1158015610d61573d6000803e3d6000fd5b505050506105c67f0000000000000000000000000000000000000000000000000000000000000000827f00000000000000000000000000000000000000000000000000000000000000006001600160a01b0316637c7db1a56040518163ffffffff1660e01b8152600401602060405180830381865afa158015610de8573d6000803e3d6000fd5b505050506040513d601f19601f82011682018060405250810190610e0c9190612482565b6001600160a01b03169190611d57565b336001600160a01b037f00000000000000000000000000000000000000000000000000000000000000001614610e645760405162461bcd60e51b81526004016101d390612373565b6000610e6e611c3d565b90507f00000000000000000000000000000000000000000000000000000000000000006001600160a01b031663350c35e9826001600160a01b031663cbdf382c6040518163ffffffff1660e01b8152600401602060405180830381865afa158015610edd573d6000803e3d6000fd5b505050506040513d601f19601f82011682018060405250810190610f019190612482565b6040516001600160e01b031960e084901b1681526001600160a01b03909116600482015260248101859052604401600060405180830381600087803b158015610f4957600080fd5b505af1158015610f5d573d6000803e3d6000fd5b50505050600080826001600160a01b0316632f35eac28560006040518363ffffffff1660e01b8152600401610f9392919061249f565b60408051808303816000875af1158015610fb1573d6000803e3d6000fd5b505050506040513d601f19601f82011682018060405250810190610fd591906124d1565b915091506110037f000000000000000000000000000000000000000000000000000000000000000083611da9565b6110867f0000000000000000000000000000000000000000000000000000000000000000827f00000000000000000000000000000000000000000000000000000000000000006001600160a01b0316637c7db1a56040518163ffffffff1660e01b8152600401602060405180830381865afa158015610de8573d6000803e3d6000fd5b50505050565b336001600160a01b037f000000000000000000000000000000000000000000000000000000000000000016146110d45760405162461bcd60e51b81526004016101d3906123ce565b60015460005b81811015611362576000600182815481106110f7576110f76124f5565b60009182526020808320909101546001600160a01b0316808352600290915260409091205490915060048116156111dd57816001600160a01b0316638c2b8ae16040518163ffffffff1660e01b8152600401602060405180830381865afa158015611166573d6000803e3d6000fd5b505050506040513d601f19601f8201168201806040525081019061118a9190612482565b6001600160a01b03166392ab89bb6040518163ffffffff1660e01b8152600401600060405180830381600087803b1580156111c457600080fd5b505af11580156111d8573d6000803e3d6000fd5b505050505b600281161561123a57816001600160a01b031663b302f3936040518163ffffffff1660e01b8152600401600060405180830381600087803b15801561122157600080fd5b505af1158015611235573d6000803e3d6000fd5b505050505b600181161561134d576040516370a0823160e01b81523060048201526000906001600160a01b038416906370a0823190602401602060405180830381865afa15801561128a573d6000803e3d6000fd5b505050506040513d601f19601f820116820180604052508101906112ae91906123fa565b9050801561134b5760405163a9059cbb60e01b81526001600160a01b037f0000000000000000000000000000000000000000000000000000000000000000811660048301526024820183905284169063a9059cbb906044016020604051808303816000875af1158015611325573d6000803e3d6000fd5b505050506040513d601f19601f820116820180604052508101906113499190612413565b505b505b5050808061135a9061250b565b9150506110da565b507f00000000000000000000000000000000000000000000000000000000000000006001600160a01b0316ff5b336001600160a01b037f000000000000000000000000000000000000000000000000000000000000000016146113d75760405162461bcd60e51b81526004016101d390612373565b806001600160a01b031663f2a1f7676040518163ffffffff1660e01b8152600401600060405180830381600087803b158015610a5c57600080fd5b336001600160a01b037f0000000000000000000000000000000000000000000000000000000000000000161461145a5760405162461bcd60e51b81526004016101d390612373565b600360009054906101000a90046001600160a01b03166001600160a01b0316638c2b8ae16040518163ffffffff1660e01b8152600401602060405180830381865afa1580156114ad573d6000803e3d6000fd5b505050506040513d601f19601f820116820180604052508101906114d19190612482565b6001600160a01b03166392ab89bb6040518163ffffffff1660e01b8152600401600060405180830381600087803b15801561150b57600080fd5b505af1158015611086573d6000803e3d6000fd5b336001600160a01b037f000000000000000000000000000000000000000000000000000000000000000016146115675760405162461bcd60e51b81526004016101d390612373565b6002600054141561158a5760405162461bcd60e51b81526004016101d390612397565b600260005560035460405163350c35e960e01b81526001600160a01b039182166004820152602481018490527f00000000000000000000000000000000000000000000000000000000000000009091169063350c35e990604401600060405180830381600087803b1580156115fe57600080fd5b505af1158015611612573d6000803e3d6000fd5b505050506109d08183611da9565b336001600160a01b037f000000000000000000000000000000000000000000000000000000000000000016146116685760405162461bcd60e51b81526004016101d3906123ce565b6002600054141561168b5760405162461bcd60e51b81526004016101d390612397565b60026000556109d08282611da9565b336001600160a01b037f000000000000000000000000000000000000000000000000000000000000000016146116e25760405162461bcd60e51b81526004016101d390612373565b60405163177adf7f60e31b81526001600160a01b0383811660048301526024820183905284169063bbd6fbf890604401610b4b565b336001600160a01b037f0000000000000000000000000000000000000000000000000000000000000000161461175f5760405162461bcd60e51b81526004016101d390612373565b6040516323b872dd60e01b8152336004820152306024820152604481018290526001600160a01b038316906323b872dd906064016020604051808303816000875af11580156117b2573d6000803e3d6000fd5b505050506040513d601f19601f820116820180604052508101906117d69190612413565b50604051630525cf6160e11b81526001600160a01b0383811660048301527f00000000000000000000000000000000000000000000000000000000000000001690630a4b9ec290602401600060405180830381600087803b15801561183a57600080fd5b505af115801561184e573d6000803e3d6000fd5b5050505061185d826001611ccd565b5050565b336001600160a01b037f000000000000000000000000000000000000000000000000000000000000000016146118a95760405162461bcd60e51b81526004016101d390612373565b60405163026e402b60e01b81526001600160a01b0383811660048301526024820183905284169063026e402b90604401600060405180830381600087803b1580156118f357600080fd5b505af1158015611907573d6000803e3d6000fd5b50505050611916836002611ccd565b505050565b600360009054906101000a90046001600160a01b03166001600160a01b031663d0e30db0346040518263ffffffff1660e01b81526004016000604051808303818588803b15801561196b57600080fd5b505af115801561197f573d6000803e3d6000fd5b5050600354604051630525cf6160e11b81526001600160a01b0391821660048201527f00000000000000000000000000000000000000000000000000000000000000009091169350630a4b9ec292506024019050600060405180830381600087803b1580156119ed57600080fd5b505af1158015611a01573d6000803e3d6000fd5b5050600354611a1d92506001600160a01b031690506001611ccd565b565b611a27611c3d565b60405163ac3736c160e01b815260006004820181905260248201526001600160a01b03919091169063ac3736c19034906044016000604051808303818588803b158015610a5c57600080fd5b336001600160a01b037f00000000000000000000000000000000000000000000000000000000000000001614611abb5760405162461bcd60e51b81526004016101d3906123ce565b6003546001600160a01b0382811691161415611ad45750565b6003546040516370a0823160e01b81523060048201526000916001600160a01b0316906370a0823190602401602060405180830381865afa158015611b1d573d6000803e3d6000fd5b505050506040513d601f19601f82011682018060405250810190611b4191906123fa565b60038054600160a01b60ff60a01b19821617909155604051632e1a7d4d60e01b8152600481018390529192506001600160a01b031690632e1a7d4d90602401600060405180830381600087803b158015611b9a57600080fd5b505af1158015611bae573d6000803e3d6000fd5b50506003805460ff60a01b19169055505060408051630d0e30db60e41b815290516001600160a01b0384169163d0e30db091849160048082019260009290919082900301818588803b158015611c0357600080fd5b505af1158015611c17573d6000803e3d6000fd5b5050600380546001600160a01b0387166001600160a01b03199091161790555050505050565b60405163292979d160e11b81523060048201526000907f00000000000000000000000000000000000000000000000000000000000000006001600160a01b031690635252f3a290602401602060405180830381865afa158015611ca4573d6000803e3d6000fd5b505050506040513d601f19601f82011682018060405250810190611cc89190612482565b905090565b6001600160a01b038216600090815260026020526040902054611d35576001805480820182556000919091527fb10e2d527612073b26eecdfd717e6a320cf44b4afac2b0732d9fcbe2b7fa0cf60180546001600160a01b0319166001600160a01b0384161790555b6001600160a01b03909116600090815260026020526040902080549091179055565b604080516001600160a01b038416602482015260448082018490528251808303909101815260649091019091526020810180516001600160e01b031663a9059cbb60e01b179052611916908490611e31565b60038054600160a01b60ff60a01b19821617909155604051632e1a7d4d60e01b8152600481018390526001600160a01b0390911690632e1a7d4d90602401600060405180830381600087803b158015611e0157600080fd5b505af1158015611e15573d6000803e3d6000fd5b50506003805460ff60a01b191690555061185d90508282611f03565b6000611e86826040518060400160405280602081526020017f5361666545524332303a206c6f772d6c6576656c2063616c6c206661696c6564815250856001600160a01b0316611f9e9092919063ffffffff16565b8051909150156119165780806020019051810190611ea49190612413565b6119165760405162461bcd60e51b815260206004820152602a60248201527f5361666545524332303a204552433230206f7065726174696f6e20646964206e6044820152691bdd081cdd58d8d9595960b21b60648201526084016101d3565b801561185d576000826001600160a01b03168260405160006040518083038185875af1925050503d8060008114611f56576040519150601f19603f3d011682016040523d82523d6000602084013e611f5b565b606091505b50509050806119165760405162461bcd60e51b815260206004820152600f60248201526e1d1c985b9cd9995c8819985a5b1959608a1b60448201526064016101d3565b6060611fad8484600085611fb5565b949350505050565b6060824710156120165760405162461bcd60e51b815260206004820152602660248201527f416464726573733a20696e73756666696369656e742062616c616e636520666f6044820152651c8818d85b1b60d21b60648201526084016101d3565b843b6120645760405162461bcd60e51b815260206004820152601d60248201527f416464726573733a2063616c6c20746f206e6f6e2d636f6e747261637400000060448201526064016101d3565b600080866001600160a01b031685876040516120809190612560565b60006040518083038185875af1925050503d80600081146120bd576040519150601f19603f3d011682016040523d82523d6000602084013e6120c2565b606091505b50915091506120d28282866120dd565b979650505050505050565b606083156120ec575081610848565b8251156120fc5782518084602001fd5b8160405162461bcd60e51b81526004016101d3919061257c565b6001600160a01b03811681146105c657600080fd5b60006020828403121561213d57600080fd5b813561084881612116565b803561215381612116565b919050565b60008060006060848603121561216d57600080fd5b833561217881612116565b925060208401359150604084013561218f81612116565b809150509250925092565b6000806000606084860312156121af57600080fd5b83356121ba81612116565b925060208401356121ca81612116565b929592945050506040919091013590565b600080604083850312156121ee57600080fd5b82356121f981612116565b946020939093013593505050565b634e487b7160e01b600052604160045260246000fd5b600082601f83011261222e57600080fd5b8135602067ffffffffffffffff8083111561224b5761224b612207565b8260051b604051601f19603f8301168101818110848211171561227057612270612207565b60405293845285810183019383810192508785111561228e57600080fd5b83870191505b848210156120d2576122a582612148565b83529183019190830190612294565b6000806000606084860312156122c957600080fd5b83356122d481612116565b9250602084013567ffffffffffffffff808211156122f157600080fd5b6122fd8783880161221d565b9350604086013591508082111561231357600080fd5b506123208682870161221d565b9150509250925092565b60006020828403121561233c57600080fd5b5035919050565b6000806040838503121561235657600080fd5b82359150602083013561236881612116565b809150509250929050565b6020808252600a908201526937b7363c9037bbb732b960b11b604082015260600190565b6020808252601f908201527f5265656e7472616e637947756172643a207265656e7472616e742063616c6c00604082015260600190565b60208082526012908201527137b7363c9030b9b9b2ba1036b0b730b3b2b960711b604082015260600190565b60006020828403121561240c57600080fd5b5051919050565b60006020828403121561242557600080fd5b8151801515811461084857600080fd5b6020808252825182820181905260009190848201906040850190845b818110156124765783516001600160a01b031683529284019291840191600101612451565b50909695505050505050565b60006020828403121561249457600080fd5b815161084881612116565b82815260408101600383106124c457634e487b7160e01b600052602160045260246000fd5b8260208301529392505050565b600080604083850312156124e457600080fd5b505080516020909101519092909150565b634e487b7160e01b600052603260045260246000fd5b600060001982141561252d57634e487b7160e01b600052601160045260246000fd5b5060010190565b60005b8381101561254f578181015183820152602001612537565b838111156110865750506000910152565b60008251612572818460208701612534565b9190910192915050565b602081526000825180602084015261259b816040850160208701612534565b601f01601f1916919091016040019291505056fea26469706673582212202548082b717e3fdfa022f8e576ff05182aa905f8aa9441e81aa739534feac53c64736f6c634300080b0033a2646970667358221220451fbf926cec8488832bf372a44ee40feca578fa626601bdf464516686041b0c64736f6c634300080b0033",
  "linkReferences": {},
  "deployedLinkReferences": {}
}