{
  "_format": "hh-sol-artifact-1",
  "contractName": "AgentVaultFactory",
  "sourceName": "contracts/fasset/implementation/AgentVaultFactory.sol",
  "abi": [
    {
      "inputs": [
        {
          "internalType": "contract IIAssetManager",
          "name": "_assetManager",
          "type": "address"
        }
      ],
      "name": "create",
      "outputs": [
        {
          "internalType": "contract IIAgentVault",
          "name": "",
          "type": "address"
        }
      ],
      "stateMutability": "nonpayable",
      "type": "function"
    },
    {
      "inputs": [
        {
          "internalType": "bytes4",
          "name": "_interfaceId",
          "type": "bytes4"
        }
      ],
      "name": "supportsInterface",
      "outputs": [
        {
          "internalType": "bool",
          "name": "",
          "type": "bool"
        }
      ],
      "stateMutability": "pure",
      "type": "function"
    }
  ],
  "bytecode": "0x608060405234801561001057600080fd5b506123bc806100206000396000f3fe608060405234801561001057600080fd5b50600436106100365760003560e01c806301ffc9a71461003b5780639ed9331814610063575b600080fd5b61004e610049366004610114565b61008e565b60405190151581526020015b60405180910390f35b610076610071366004610145565b6100c5565b6040516001600160a01b03909116815260200161005a565b60006001600160e01b031982166301ffc9a760e01b14806100bf57506001600160e01b031982166313db266360e31b145b92915050565b6000816040516100d490610107565b6001600160a01b039091168152602001604051809103906000f080158015610100573d6000803e3d6000fd5b5092915050565b6122188061016f83390190565b60006020828403121561012657600080fd5b81356001600160e01b03198116811461013e57600080fd5b9392505050565b60006020828403121561015757600080fd5b81356001600160a01b038116811461013e57600080fdfe60a06040523480156200001157600080fd5b5060405162002218380380620022188339810160408190526200003491620000ea565b60016000556001600160a01b038116608081905260408051635ad2445360e11b8152905163b5a488a6916004808201926020929091908290030181865afa15801562000084573d6000803e3d6000fd5b505050506040513d601f19601f82011682018060405250810190620000aa9190620000ea565b600380546001600160a01b0319166001600160a01b03929092169190911790555062000111565b6001600160a01b0381168114620000e757600080fd5b50565b600060208284031215620000fd57600080fd5b81516200010a81620000d1565b9392505050565b6080516120896200018f60003960008181610396015281816104ce015281816108a601528181610a1e01528181610b0801528181610b9301528181610c7f01528181610d0701528181610dc601528181610e96015281816110d40152818161129601528181611383015281816115b901526116a101526120896000f3fe6080604052600436106101695760003560e01c806386ac57a2116100d1578063a5d5db0c1161008a578063d1b8890e11610064578063d1b8890e1461049e578063d348400c146104a6578063decea18114610450578063ff0eccf6146104ae57600080fd5b8063a5d5db0c14610430578063a6fc49cc14610450578063c26f3acf1461047e57600080fd5b806386ac57a21461034f57806387a2a0dc1461036f57806394217ad1146103845780639edbf007146103d0578063a0fe8afb146103f0578063a3ea6d1b1461041057600080fd5b80632772e48b116101235780632772e48b1461028f5780632f54bf6e146102af578063489a8a47146102cf5780635eb71cfb146102ef5780637a68a5081461030f5780637a7da0041461032f57600080fd5b8062f55d9d146101c757806301ffc9a7146101e7578063078dd8691461021c5780631cc7c5f31461022f5780631f1088a01461024f57806320f801d41461026f57600080fd5b366101c257600354600160a01b900460ff166101c05760405162461bcd60e51b8152602060048201526011602482015270696e7465726e616c20757365206f6e6c7960781b60448201526064015b60405180910390fd5b005b600080fd5b3480156101d357600080fd5b506101c06101e2366004611bc9565b6104c3565b3480156101f357600080fd5b50610207610202366004611bed565b610739565b60405190151581526020015b60405180910390f35b6101c061022a366004611cd4565b61078b565b34801561023b57600080fd5b506101c061024a366004611d4a565b610873565b34801561025b57600080fd5b506101c061026a366004611d7a565b610ab5565b34801561027b57600080fd5b506101c061028a366004611dbc565b610b88565b34801561029b57600080fd5b506101c06102aa366004611d4a565b610bec565b3480156102bb57600080fd5b506102076102ca366004611bc9565b610cdf565b3480156102db57600080fd5b506101c06102ea366004611dfd565b610d74565b3480156102fb57600080fd5b506101c061030a366004611bc9565b610f2a565b34801561031b57600080fd5b506101c061032a366004611bc9565b610f9e565b34801561033b57600080fd5b506101c061034a366004611bc9565b6110af565b34801561035b57600080fd5b506101c061036a366004611bc9565b61113b565b34801561037b57600080fd5b506101c061119b565b34801561039057600080fd5b506103b87f000000000000000000000000000000000000000000000000000000000000000081565b6040516001600160a01b039091168152602001610213565b3480156103dc57600080fd5b506003546103b8906001600160a01b031681565b3480156103fc57600080fd5b506101c061040b366004611dfd565b61128b565b34801561041c57600080fd5b506101c061042b366004611dbc565b6112ef565b34801561043c57600080fd5b506101c061044b366004611dfd565b611349565b34801561045c57600080fd5b5061047061046b366004611d7a565b6113ea565b604051908152602001610213565b34801561048a57600080fd5b506101c0610499366004611dbc565b611499565b6101c061152b565b6101c0611635565b3480156104ba57600080fd5b506103b8611689565b336001600160a01b037f0000000000000000000000000000000000000000000000000000000000000000161461050b5760405162461bcd60e51b81526004016101b790611e29565b610513611719565b60015460005b818110156107205760006001828154811061053657610536611e55565b60009182526020808320909101546001600160a01b03168083526002909152604090912054909150600481161561061c57816001600160a01b0316638c2b8ae16040518163ffffffff1660e01b8152600401602060405180830381865afa1580156105a5573d6000803e3d6000fd5b505050506040513d601f19601f820116820180604052508101906105c99190611e6b565b6001600160a01b03166392ab89bb6040518163ffffffff1660e01b8152600401600060405180830381600087803b15801561060357600080fd5b505af1158015610617573d6000803e3d6000fd5b505050505b600281161561067957816001600160a01b031663b302f3936040518163ffffffff1660e01b8152600401600060405180830381600087803b15801561066057600080fd5b505af1158015610674573d6000803e3d6000fd5b505050505b600181161561070b576040516370a0823160e01b81523060048201526000906001600160a01b038416906370a0823190602401602060405180830381865afa1580156106c9573d6000803e3d6000fd5b505050506040513d601f19601f820116820180604052508101906106ed9190611e88565b90508015610709576107096001600160a01b0384168783611772565b505b5050808061071890611ea1565b915050610519565b5061072b82476117d5565b506107366001600055565b50565b60006001600160e01b031982166301ffc9a760e01b148061076a57506001600160e01b03198216630a43afd160e41b145b8061078557506001600160e01b0319821663e0c410d560e01b145b92915050565b61079433610cdf565b6107b05760405162461bcd60e51b81526004016101b790611ec8565b604051632446712560e21b81526001600160a01b03841690639119c4949034906107de908690600401611eec565b6000604051808303818588803b1580156107f757600080fd5b505af115801561080b573d6000803e3d6000fd5b505060405163d2a4ac6160e01b81526001600160a01b038716935063d2a4ac61925061083c91508490600401611eec565b600060405180830381600087803b15801561085657600080fd5b505af115801561086a573d6000803e3d6000fd5b50505050505050565b61087c33610cdf565b6108985760405162461bcd60e51b81526004016101b790611ec8565b60006108a2611689565b90507f00000000000000000000000000000000000000000000000000000000000000006001600160a01b031663350c35e9826001600160a01b031663cbdf382c6040518163ffffffff1660e01b8152600401602060405180830381865afa158015610911573d6000803e3d6000fd5b505050506040513d601f19601f820116820180604052508101906109359190611e6b565b6040516001600160e01b031960e084901b1681526001600160a01b03909116600482015260248101869052604401600060405180830381600087803b15801561097d57600080fd5b505af1158015610991573d6000803e3d6000fd5b50505050600080826001600160a01b0316632f35eac28660006040518363ffffffff1660e01b81526004016109c7929190611f39565b60408051808303816000875af11580156109e5573d6000803e3d6000fd5b505050506040513d601f19601f82011682018060405250810190610a099190611f6b565b91509150610a178483611870565b610aae84827f00000000000000000000000000000000000000000000000000000000000000006001600160a01b0316637c7db1a56040518163ffffffff1660e01b8152600401602060405180830381865afa158015610a7a573d6000803e3d6000fd5b505050506040513d601f19601f82011682018060405250810190610a9e9190611e6b565b6001600160a01b03169190611772565b5050505050565b610abe33610cdf565b610ada5760405162461bcd60e51b81526004016101b790611ec8565b610ae2611719565b60405163350c35e960e01b81526001600160a01b038481166004830152602482018490527f0000000000000000000000000000000000000000000000000000000000000000169063350c35e990604401600060405180830381600087803b158015610b4c57600080fd5b505af1158015610b60573d6000803e3d6000fd5b50610b79925050506001600160a01b0384168284611772565b610b836001600055565b505050565b336001600160a01b037f00000000000000000000000000000000000000000000000000000000000000001614610bd05760405162461bcd60e51b81526004016101b790611e29565b610bd8611719565b610b796001600160a01b0384168383611772565b610bf533610cdf565b610c115760405162461bcd60e51b81526004016101b790611ec8565b610c19611689565b6001600160a01b0316635e318e07836040518263ffffffff1660e01b8152600401610c4691815260200190565b600060405180830381600087803b158015610c6057600080fd5b505af1158015610c74573d6000803e3d6000fd5b50505050610cdb81837f00000000000000000000000000000000000000000000000000000000000000006001600160a01b0316637c7db1a56040518163ffffffff1660e01b8152600401602060405180830381865afa158015610a7a573d6000803e3d6000fd5b5050565b60405163d6b93a9f60e01b81523060048201526001600160a01b0382811660248301526000917f00000000000000000000000000000000000000000000000000000000000000009091169063d6b93a9f90604401602060405180830381865afa158015610d50573d6000803e3d6000fd5b505050506040513d601f19601f820116820180604052508101906107859190611f8f565b610d7d33610cdf565b610d995760405162461bcd60e51b81526004016101b790611ec8565b610da1611719565b60405163700104f760e01b81523060048201526001600160a01b0383811660248301527f0000000000000000000000000000000000000000000000000000000000000000169063700104f790604401602060405180830381865afa158015610e0d573d6000803e3d6000fd5b505050506040513d601f19601f82011682018060405250810190610e319190611f8f565b15610e7e5760405162461bcd60e51b815260206004820152601a60248201527f6f6e6c79206e6f6e2d636f6c6c61746572616c20746f6b656e7300000000000060448201526064016101b7565b604051636e61164f60e01b81523060048201526000907f00000000000000000000000000000000000000000000000000000000000000006001600160a01b031690636e61164f906024016040805180830381865afa158015610ee4573d6000803e3d6000fd5b505050506040513d601f19601f82011682018060405250810190610f089190611fb1565b509050610f1f6001600160a01b0384168284611772565b50610cdb6001600055565b610f3333610cdf565b610f4f5760405162461bcd60e51b81526004016101b790611ec8565b806001600160a01b031663b302f3936040518163ffffffff1660e01b8152600401600060405180830381600087803b158015610f8a57600080fd5b505af1158015610aae573d6000803e3d6000fd5b610fa733610cdf565b610fc35760405162461bcd60e51b81526004016101b790611ec8565b600360009054906101000a90046001600160a01b03166001600160a01b0316638c2b8ae16040518163ffffffff1660e01b8152600401602060405180830381865afa158015611016573d6000803e3d6000fd5b505050506040513d601f19601f8201168201806040525081019061103a9190611e6b565b6040516317066a5760e21b81526001600160a01b0383811660048301529190911690635c19a95c90602401600060405180830381600087803b15801561107f57600080fd5b505af1158015611093573d6000803e3d6000fd5b505060035461073692506001600160a01b0316905060046118f8565b60405163053fe26160e31b81523060048201526001600160a01b0382811660248301527f000000000000000000000000000000000000000000000000000000000000000016906329ff130890604401600060405180830381600087803b15801561111857600080fd5b505af115801561112c573d6000803e3d6000fd5b505050506107368160016118f8565b61114433610cdf565b6111605760405162461bcd60e51b81526004016101b790611ec8565b806001600160a01b031663f2a1f7676040518163ffffffff1660e01b8152600401600060405180830381600087803b158015610f8a57600080fd5b6111a433610cdf565b6111c05760405162461bcd60e51b81526004016101b790611ec8565b600360009054906101000a90046001600160a01b03166001600160a01b0316638c2b8ae16040518163ffffffff1660e01b8152600401602060405180830381865afa158015611213573d6000803e3d6000fd5b505050506040513d601f19601f820116820180604052508101906112379190611e6b565b6001600160a01b03166392ab89bb6040518163ffffffff1660e01b8152600401600060405180830381600087803b15801561127157600080fd5b505af1158015611285573d6000803e3d6000fd5b50505050565b336001600160a01b037f000000000000000000000000000000000000000000000000000000000000000016146112d35760405162461bcd60e51b81526004016101b790611e29565b6112db611719565b6112e58282611870565b610cdb6001600055565b6112f833610cdf565b6113145760405162461bcd60e51b81526004016101b790611ec8565b60405163177adf7f60e31b81526001600160a01b0383811660048301526024820183905284169063bbd6fbf89060440161083c565b61135e6001600160a01b038316333084611984565b60405163053fe26160e31b81523060048201526001600160a01b0383811660248301527f000000000000000000000000000000000000000000000000000000000000000016906329ff130890604401600060405180830381600087803b1580156113c757600080fd5b505af11580156113db573d6000803e3d6000fd5b50505050610cdb8260016118f8565b60006113f533610cdf565b6114115760405162461bcd60e51b81526004016101b790611ec8565b60405163596090c960e11b81523060048201526001600160a01b038381166024830152604482018590526000606483015285169063b2c12192906084016020604051808303816000875af115801561146d573d6000803e3d6000fd5b505050506040513d601f19601f820116820180604052508101906114919190611e88565b949350505050565b6114a233610cdf565b6114be5760405162461bcd60e51b81526004016101b790611ec8565b60405163026e402b60e01b81526001600160a01b0383811660048301526024820183905284169063026e402b90604401600060405180830381600087803b15801561150857600080fd5b505af115801561151c573d6000803e3d6000fd5b50505050610b838360026118f8565b600360009054906101000a90046001600160a01b03166001600160a01b031663d0e30db0346040518263ffffffff1660e01b81526004016000604051808303818588803b15801561157b57600080fd5b505af115801561158f573d6000803e3d6000fd5b505060035460405163053fe26160e31b81523060048201526001600160a01b0391821660248201527f000000000000000000000000000000000000000000000000000000000000000090911693506329ff130892506044019050600060405180830381600087803b15801561160357600080fd5b505af1158015611617573d6000803e3d6000fd5b505060035461163392506001600160a01b0316905060016118f8565b565b61163d611689565b60405163ac3736c160e01b815260006004820181905260248201526001600160a01b03919091169063ac3736c19034906044016000604051808303818588803b158015610f8a57600080fd5b60405163292979d160e11b81523060048201526000907f00000000000000000000000000000000000000000000000000000000000000006001600160a01b031690635252f3a290602401602060405180830381865afa1580156116f0573d6000803e3d6000fd5b505050506040513d601f19601f820116820180604052508101906117149190611e6b565b905090565b60026000540361176b5760405162461bcd60e51b815260206004820152601f60248201527f5265656e7472616e637947756172643a207265656e7472616e742063616c6c0060448201526064016101b7565b6002600055565b6040516001600160a01b038316602482015260448101829052610b8390849063a9059cbb60e01b906064015b60408051601f198184030181529190526020810180516001600160e01b03166001600160e01b0319909316929092179091526119bc565b8015610cdb576000826001600160a01b03168260405160006040518083038185875af1925050503d8060008114611828576040519150601f19603f3d011682016040523d82523d6000602084013e61182d565b606091505b5050905080610b835760405162461bcd60e51b815260206004820152600f60248201526e1d1c985b9cd9995c8819985a5b1959608a1b60448201526064016101b7565b60038054600160a01b60ff60a01b19821617909155604051632e1a7d4d60e01b8152600481018390526001600160a01b0390911690632e1a7d4d90602401600060405180830381600087803b1580156118c857600080fd5b505af11580156118dc573d6000803e3d6000fd5b50506003805460ff60a01b1916905550610cdb905082826117d5565b6001600160a01b0382166000908152600260205260408120549003611962576001805480820182556000919091527fb10e2d527612073b26eecdfd717e6a320cf44b4afac2b0732d9fcbe2b7fa0cf60180546001600160a01b0319166001600160a01b0384161790555b6001600160a01b03909116600090815260026020526040902080549091179055565b6040516001600160a01b03808516602483015283166044820152606481018290526112859085906323b872dd60e01b9060840161179e565b6000611a11826040518060400160405280602081526020017f5361666545524332303a206c6f772d6c6576656c2063616c6c206661696c6564815250856001600160a01b0316611a919092919063ffffffff16565b9050805160001480611a32575080806020019051810190611a329190611f8f565b610b835760405162461bcd60e51b815260206004820152602a60248201527f5361666545524332303a204552433230206f7065726174696f6e20646964206e6044820152691bdd081cdd58d8d9595960b21b60648201526084016101b7565b6060611491848460008585600080866001600160a01b03168587604051611ab89190612004565b60006040518083038185875af1925050503d8060008114611af5576040519150601f19603f3d011682016040523d82523d6000602084013e611afa565b606091505b5091509150611b0b87838387611b16565b979650505050505050565b60608315611b85578251600003611b7e576001600160a01b0385163b611b7e5760405162461bcd60e51b815260206004820152601d60248201527f416464726573733a2063616c6c20746f206e6f6e2d636f6e747261637400000060448201526064016101b7565b5081611491565b6114918383815115611b9a5781518083602001fd5b8060405162461bcd60e51b81526004016101b79190612020565b6001600160a01b038116811461073657600080fd5b600060208284031215611bdb57600080fd5b8135611be681611bb4565b9392505050565b600060208284031215611bff57600080fd5b81356001600160e01b031981168114611be657600080fd5b634e487b7160e01b600052604160045260246000fd5b8035611c3881611bb4565b919050565b600082601f830112611c4e57600080fd5b8135602067ffffffffffffffff80831115611c6b57611c6b611c17565b8260051b604051601f19603f83011681018181108482111715611c9057611c90611c17565b604052938452858101830193838101925087851115611cae57600080fd5b83870191505b84821015611b0b57611cc582611c2d565b83529183019190830190611cb4565b600080600060608486031215611ce957600080fd5b8335611cf481611bb4565b9250602084013567ffffffffffffffff80821115611d1157600080fd5b611d1d87838801611c3d565b93506040860135915080821115611d3357600080fd5b50611d4086828701611c3d565b9150509250925092565b60008060408385031215611d5d57600080fd5b823591506020830135611d6f81611bb4565b809150509250929050565b600080600060608486031215611d8f57600080fd5b8335611d9a81611bb4565b9250602084013591506040840135611db181611bb4565b809150509250925092565b600080600060608486031215611dd157600080fd5b8335611ddc81611bb4565b92506020840135611dec81611bb4565b929592945050506040919091013590565b60008060408385031215611e1057600080fd5b8235611e1b81611bb4565b946020939093013593505050565b60208082526012908201527137b7363c9030b9b9b2ba1036b0b730b3b2b960711b604082015260600190565b634e487b7160e01b600052603260045260246000fd5b600060208284031215611e7d57600080fd5b8151611be681611bb4565b600060208284031215611e9a57600080fd5b5051919050565b600060018201611ec157634e487b7160e01b600052601160045260246000fd5b5060010190565b6020808252600a908201526937b7363c9037bbb732b960b11b604082015260600190565b6020808252825182820181905260009190848201906040850190845b81811015611f2d5783516001600160a01b031683529284019291840191600101611f08565b50909695505050505050565b8281526040810160038310611f5e57634e487b7160e01b600052602160045260246000fd5b8260208301529392505050565b60008060408385031215611f7e57600080fd5b505080516020909101519092909150565b600060208284031215611fa157600080fd5b81518015158114611be657600080fd5b60008060408385031215611fc457600080fd5b8251611fcf81611bb4565b6020840151909250611d6f81611bb4565b60005b83811015611ffb578181015183820152602001611fe3565b50506000910152565b60008251612016818460208701611fe0565b9190910192915050565b602081526000825180602084015261203f816040850160208701611fe0565b601f01601f1916919091016040019291505056fea264697066735822122059aeb2f20745bd7b50ece3644e459bbd866f3df3bf8993a3120e45632398323164736f6c63430008140033a2646970667358221220a2606c543f71d70668534be465bd6469ee9ca47dcc78617791a3411ceb4cf43d64736f6c63430008140033",
  "linkReferences": {},
  "deployedLinkReferences": {}
}