{
  "_format": "hh-sol-artifact-1",
  "contractName": "AgentVaultFactory",
  "sourceName": "contracts/fasset/implementation/AgentVaultFactory.sol",
  "abi": [
    {
      "inputs": [
        {
          "internalType": "contract IAssetManager",
          "name": "_assetManager",
          "type": "address"
        },
        {
          "internalType": "address payable",
          "name": "_owner",
          "type": "address"
        }
      ],
      "name": "create",
      "outputs": [
        {
          "internalType": "contract IAgentVault",
          "name": "",
          "type": "address"
        }
      ],
      "stateMutability": "nonpayable",
      "type": "function"
    }
  ],
  "bytecode": "0x608060405234801561001057600080fd5b50611c75806100206000396000f3fe608060405234801561001057600080fd5b506004361061002b5760003560e01c80633e68680a14610030575b600080fd5b61004361003e3660046100cf565b61005f565b6040516001600160a01b03909116815260200160405180910390f35b6000828260405161006f906100aa565b6001600160a01b03928316815291166020820152604001604051809103906000f0801580156100a2573d6000803e3d6000fd5b509392505050565b611b378061010983390190565b6001600160a01b03811681146100cc57600080fd5b50565b600080604083850312156100e257600080fd5b82356100ed816100b7565b915060208301356100fd816100b7565b80915050925092905056fe60c06040523480156200001157600080fd5b5060405162001b3738038062001b3783398101604081905262000034916200006a565b60016000556001600160a01b039182166080521660a052620000a9565b6001600160a01b03811681146200006757600080fd5b50565b600080604083850312156200007e57600080fd5b82516200008b8162000051565b60208401519092506200009e8162000051565b809150509250929050565b60805160a05161199e620001996000396000818161034f01528181610687015281816106bc015281816108ee01528181610ab301528181610aed01528181610b4101528181610bd001528181610d0701528181610e840152818161100f015281816110920152818161121301528181611274015281816112a901526113ad01526000818160fd0152818161039b01528181610405015281816106fb015281816107ef01528181610969015281816109cf01528181610c1901528181610da601528181610ec3015281816110d1015281816112e8015281816113ec015281816114a5015261158a015261199e6000f3fe6080604052600436106100f65760003560e01c806386ac57a21161008a57806394217ad11161005957806394217ad114610389578063b302f393146103bd578063bbd6fbf8146103d2578063d0e30db0146103f257600080fd5b806386ac57a2146102e857806387a2a0dc146103085780638a2774161461031d5780638da5cb5b1461033d57600080fd5b8063406c7007116100c6578063406c700714610255578063489a8a4714610288578063648d0878146102a85780637a68a508146102c857600080fd5b8062f55d9d146101d5578063026e402b146101f557806320f801d4146102155780632e1a7d4d1461023557600080fd5b366101d0577f00000000000000000000000000000000000000000000000000000000000000006001600160a01b031663b5a488a66040518163ffffffff1660e01b8152600401602060405180830381865afa158015610159573d6000803e3d6000fd5b505050506040513d601f19601f8201168201806040525081019061017d9190611691565b6001600160a01b0316336001600160a01b0316146101ce5760405162461bcd60e51b81526020600482015260096024820152681bdb9b1e481dd3985d60ba1b60448201526064015b60405180910390fd5b005b600080fd5b3480156101e157600080fd5b506101ce6101f03660046116ae565b6103fa565b34801561020157600080fd5b506101ce6102103660046116cb565b6106b1565b34801561022157600080fd5b506101ce6102303660046116f7565b6107e4565b34801561024157600080fd5b506101ce610250366004611738565b6108e3565b34801561026157600080fd5b506102756102703660046116cb565b610ae0565b6040519081526020015b60405180910390f35b34801561029457600080fd5b506101ce6102a33660046116cb565b610bc5565b3480156102b457600080fd5b506101ce6102c33660046116f7565b610d9b565b3480156102d457600080fd5b506101ce6102e33660046116ae565b610e79565b3480156102f457600080fd5b506101ce6103033660046116ae565b611004565b34801561031457600080fd5b506101ce611087565b34801561032957600080fd5b50610275610338366004611767565b611206565b34801561034957600080fd5b506103717f000000000000000000000000000000000000000000000000000000000000000081565b6040516001600160a01b03909116815260200161027f565b34801561039557600080fd5b506103717f000000000000000000000000000000000000000000000000000000000000000081565b3480156103c957600080fd5b506101ce61129e565b3480156103de57600080fd5b506101ce6103ed3660046116cb565b6113a2565b6101ce6114a3565b336001600160a01b037f000000000000000000000000000000000000000000000000000000000000000016146104425760405162461bcd60e51b81526004016101c59061183a565b60006001600160a01b0316816001600160a01b0316638c2b8ae16040518163ffffffff1660e01b8152600401602060405180830381865afa15801561048b573d6000803e3d6000fd5b505050506040513d601f19601f820116820180604052508101906104af9190611691565b6001600160a01b03161461057257806001600160a01b0316638c2b8ae16040518163ffffffff1660e01b8152600401602060405180830381865afa1580156104fb573d6000803e3d6000fd5b505050506040513d601f19601f8201168201806040525081019061051f9190611691565b6001600160a01b03166392ab89bb6040518163ffffffff1660e01b8152600401600060405180830381600087803b15801561055957600080fd5b505af115801561056d573d6000803e3d6000fd5b505050505b806001600160a01b031663b302f3936040518163ffffffff1660e01b8152600401600060405180830381600087803b1580156105ad57600080fd5b505af11580156105c1573d6000803e3d6000fd5b50506040516370a0823160e01b81523060048201526001600160a01b0384169250632e1a7d4d915082906370a0823190602401602060405180830381865afa158015610611573d6000803e3d6000fd5b505050506040513d601f19601f820116820180604052508101906106359190611866565b6040518263ffffffff1660e01b815260040161065391815260200190565b600060405180830381600087803b15801561066d57600080fd5b505af1158015610681573d6000803e3d6000fd5b505050507f00000000000000000000000000000000000000000000000000000000000000006001600160a01b0316ff5b336001600160a01b037f000000000000000000000000000000000000000000000000000000000000000016146106f95760405162461bcd60e51b81526004016101c59061187f565b7f00000000000000000000000000000000000000000000000000000000000000006001600160a01b031663b5a488a66040518163ffffffff1660e01b8152600401602060405180830381865afa158015610757573d6000803e3d6000fd5b505050506040513d601f19601f8201168201806040525081019061077b9190611691565b60405163026e402b60e01b81526001600160a01b03848116600483015260248201849052919091169063026e402b906044015b600060405180830381600087803b1580156107c857600080fd5b505af11580156107dc573d6000803e3d6000fd5b505050505050565b336001600160a01b037f0000000000000000000000000000000000000000000000000000000000000000161461082c5760405162461bcd60e51b81526004016101c59061183a565b6002600054141561084f5760405162461bcd60e51b81526004016101c5906118a3565b6002600090815560405163a9059cbb60e01b81526001600160a01b0384811660048301526024820184905285169063a9059cbb906044016020604051808303816000875af11580156108a5573d6000803e3d6000fd5b505050506040513d601f19601f820116820180604052508101906108c991906118da565b9050806108d8576108d86118fc565b505060016000555050565b336001600160a01b037f0000000000000000000000000000000000000000000000000000000000000000161461092b5760405162461bcd60e51b81526004016101c59061187f565b6002600054141561094e5760405162461bcd60e51b81526004016101c5906118a3565b60026000556040516330897f1760e11b8152600481018290527f00000000000000000000000000000000000000000000000000000000000000006001600160a01b031690636112fe2e90602401600060405180830381600087803b1580156109b557600080fd5b505af11580156109c9573d6000803e3d6000fd5b505050507f00000000000000000000000000000000000000000000000000000000000000006001600160a01b031663b5a488a66040518163ffffffff1660e01b8152600401602060405180830381865afa158015610a2b573d6000803e3d6000fd5b505050506040513d601f19601f82011682018060405250810190610a4f9190611691565b6001600160a01b0316632e1a7d4d826040518263ffffffff1660e01b8152600401610a7c91815260200190565b600060405180830381600087803b158015610a9657600080fd5b505af1158015610aaa573d6000803e3d6000fd5b50505050610ad87f0000000000000000000000000000000000000000000000000000000000000000826115da565b506001600055565b6000336001600160a01b037f00000000000000000000000000000000000000000000000000000000000000001614610b2a5760405162461bcd60e51b81526004016101c59061187f565b604051635569f64b60e11b81526001600160a01b037f0000000000000000000000000000000000000000000000000000000000000000811660048301526024820184905284169063aad3ec96906044015b6020604051808303816000875af1158015610b9a573d6000803e3d6000fd5b505050506040513d601f19601f82011682018060405250810190610bbe9190611866565b9392505050565b336001600160a01b037f00000000000000000000000000000000000000000000000000000000000000001614610c0d5760405162461bcd60e51b81526004016101c59061187f565b816001600160a01b03167f00000000000000000000000000000000000000000000000000000000000000006001600160a01b031663b5a488a66040518163ffffffff1660e01b8152600401602060405180830381865afa158015610c75573d6000803e3d6000fd5b505050506040513d601f19601f82011682018060405250810190610c999190611691565b6001600160a01b03161415610cf05760405162461bcd60e51b815260206004820152601e60248201527f5472616e736665722066726f6d20774e6174206e6f7420616c6c6f776564000060448201526064016101c5565b60405163a9059cbb60e01b81526001600160a01b037f000000000000000000000000000000000000000000000000000000000000000081166004830152602482018390526000919084169063a9059cbb906044016020604051808303816000875af1158015610d63573d6000803e3d6000fd5b505050506040513d601f19601f82011682018060405250810190610d8791906118da565b905080610d9657610d966118fc565b505050565b336001600160a01b037f00000000000000000000000000000000000000000000000000000000000000001614610de35760405162461bcd60e51b81526004016101c59061183a565b60026000541415610e065760405162461bcd60e51b81526004016101c5906118a3565b6002600055604051632e1a7d4d60e01b8152600481018290526001600160a01b03841690632e1a7d4d90602401600060405180830381600087803b158015610e4d57600080fd5b505af1158015610e61573d6000803e3d6000fd5b50505050610e6f82826115da565b5050600160005550565b336001600160a01b037f00000000000000000000000000000000000000000000000000000000000000001614610ec15760405162461bcd60e51b81526004016101c59061187f565b7f00000000000000000000000000000000000000000000000000000000000000006001600160a01b031663b5a488a66040518163ffffffff1660e01b8152600401602060405180830381865afa158015610f1f573d6000803e3d6000fd5b505050506040513d601f19601f82011682018060405250810190610f439190611691565b6001600160a01b0316638c2b8ae16040518163ffffffff1660e01b8152600401602060405180830381865afa158015610f80573d6000803e3d6000fd5b505050506040513d601f19601f82011682018060405250810190610fa49190611691565b6040516317066a5760e21b81526001600160a01b0383811660048301529190911690635c19a95c90602401600060405180830381600087803b158015610fe957600080fd5b505af1158015610ffd573d6000803e3d6000fd5b5050505050565b336001600160a01b037f0000000000000000000000000000000000000000000000000000000000000000161461104c5760405162461bcd60e51b81526004016101c59061187f565b806001600160a01b031663f2a1f7676040518163ffffffff1660e01b8152600401600060405180830381600087803b158015610fe957600080fd5b336001600160a01b037f000000000000000000000000000000000000000000000000000000000000000016146110cf5760405162461bcd60e51b81526004016101c59061187f565b7f00000000000000000000000000000000000000000000000000000000000000006001600160a01b031663b5a488a66040518163ffffffff1660e01b8152600401602060405180830381865afa15801561112d573d6000803e3d6000fd5b505050506040513d601f19601f820116820180604052508101906111519190611691565b6001600160a01b0316638c2b8ae16040518163ffffffff1660e01b8152600401602060405180830381865afa15801561118e573d6000803e3d6000fd5b505050506040513d601f19601f820116820180604052508101906111b29190611691565b6001600160a01b03166392ab89bb6040518163ffffffff1660e01b8152600401600060405180830381600087803b1580156111ec57600080fd5b505af1158015611200573d6000803e3d6000fd5b50505050565b6000336001600160a01b037f000000000000000000000000000000000000000000000000000000000000000016146112505760405162461bcd60e51b81526004016101c59061187f565b604051635957c38560e11b81526001600160a01b0384169063b2af870a90610b7b907f0000000000000000000000000000000000000000000000000000000000000000908690600401611912565b336001600160a01b037f000000000000000000000000000000000000000000000000000000000000000016146112e65760405162461bcd60e51b81526004016101c59061187f565b7f00000000000000000000000000000000000000000000000000000000000000006001600160a01b031663b5a488a66040518163ffffffff1660e01b8152600401602060405180830381865afa158015611344573d6000803e3d6000fd5b505050506040513d601f19601f820116820180604052508101906113689190611691565b6001600160a01b031663b302f3936040518163ffffffff1660e01b8152600401600060405180830381600087803b1580156111ec57600080fd5b336001600160a01b037f000000000000000000000000000000000000000000000000000000000000000016146113ea5760405162461bcd60e51b81526004016101c59061187f565b7f00000000000000000000000000000000000000000000000000000000000000006001600160a01b031663b5a488a66040518163ffffffff1660e01b8152600401602060405180830381865afa158015611448573d6000803e3d6000fd5b505050506040513d601f19601f8201168201806040525081019061146c9190611691565b60405163177adf7f60e31b81526001600160a01b03848116600483015260248201849052919091169063bbd6fbf8906044016107ae565b7f00000000000000000000000000000000000000000000000000000000000000006001600160a01b031663b5a488a66040518163ffffffff1660e01b8152600401602060405180830381865afa158015611501573d6000803e3d6000fd5b505050506040513d601f19601f820116820180604052508101906115259190611691565b6001600160a01b031663d0e30db0346040518263ffffffff1660e01b81526004016000604051808303818588803b15801561155f57600080fd5b505af1158015611573573d6000803e3d6000fd5b505060405163bad4a01f60e01b81523460048201527f00000000000000000000000000000000000000000000000000000000000000006001600160a01b0316935063bad4a01f92506024019050600060405180830381600087803b1580156111ec57600080fd5b8015611675576000826001600160a01b03168260405160006040518083038185875af1925050503d806000811461162d576040519150601f19603f3d011682016040523d82523d6000602084013e611632565b606091505b5050905080610d965760405162461bcd60e51b815260206004820152600f60248201526e1d1c985b9cd9995c8819985a5b1959608a1b60448201526064016101c5565b5050565b6001600160a01b038116811461168e57600080fd5b50565b6000602082840312156116a357600080fd5b8151610bbe81611679565b6000602082840312156116c057600080fd5b8135610bbe81611679565b600080604083850312156116de57600080fd5b82356116e981611679565b946020939093013593505050565b60008060006060848603121561170c57600080fd5b833561171781611679565b9250602084013561172781611679565b929592945050506040919091013590565b60006020828403121561174a57600080fd5b5035919050565b634e487b7160e01b600052604160045260246000fd5b6000806040838503121561177a57600080fd5b823561178581611679565b915060208381013567ffffffffffffffff808211156117a357600080fd5b818601915086601f8301126117b757600080fd5b8135818111156117c9576117c9611751565b8060051b604051601f19603f830116810181811085821117156117ee576117ee611751565b60405291825284820192508381018501918983111561180c57600080fd5b938501935b8285101561182a57843584529385019392850192611811565b8096505050505050509250929050565b60208082526012908201527137b7363c9030b9b9b2ba1036b0b730b3b2b960711b604082015260600190565b60006020828403121561187857600080fd5b5051919050565b6020808252600a908201526937b7363c9037bbb732b960b11b604082015260600190565b6020808252601f908201527f5265656e7472616e637947756172643a207265656e7472616e742063616c6c00604082015260600190565b6000602082840312156118ec57600080fd5b81518015158114610bbe57600080fd5b634e487b7160e01b600052600160045260246000fd5b6001600160a01b038316815260406020808301829052835191830182905260009184820191906060850190845b8181101561195b5784518352938301939183019160010161193f565b509097965050505050505056fea2646970667358221220523fc0093d803b9a83008be96975105e0654e432d611ce96c25ca9cfb47b556c64736f6c634300080b0033a2646970667358221220105405b96ff7b6ef83353462a8169554f49865313f0458500941749117a45a9064736f6c634300080b0033",
  "linkReferences": {},
  "deployedLinkReferences": {}
}