{
  "_format": "hh-sol-artifact-1",
  "contractName": "AgentVaultFactory",
  "sourceName": "contracts/fasset/implementation/AgentVaultFactory.sol",
  "abi": [
    {
      "inputs": [
        {
          "internalType": "contract IIAssetManager",
          "name": "_assetManager",
          "type": "address"
        }
      ],
      "name": "create",
      "outputs": [
        {
          "internalType": "contract IIAgentVault",
          "name": "",
          "type": "address"
        }
      ],
      "stateMutability": "nonpayable",
      "type": "function"
    }
  ],
  "bytecode": "0x608060405234801561001057600080fd5b506124ca806100206000396000f3fe608060405234801561001057600080fd5b506004361061002b5760003560e01c80639ed9331814610030575b600080fd5b61004361003e3660046100ae565b61005f565b6040516001600160a01b03909116815260200160405180910390f35b60008160405161006e906100a1565b6001600160a01b039091168152602001604051809103906000f08015801561009a573d6000803e3d6000fd5b5092915050565b6123b6806100df83390190565b6000602082840312156100c057600080fd5b81356001600160a01b03811681146100d757600080fd5b939250505056fe60a06040523480156200001157600080fd5b50604051620023b6380380620023b68339810160408190526200003491620000ea565b60016000556001600160a01b038116608081905260408051635ad2445360e11b8152905163b5a488a6916004808201926020929091908290030181865afa15801562000084573d6000803e3d6000fd5b505050506040513d601f19601f82011682018060405250810190620000aa9190620000ea565b600380546001600160a01b0319166001600160a01b03929092169190911790555062000111565b6001600160a01b0381168114620000e757600080fd5b50565b600060208284031215620000fd57600080fd5b81516200010a81620000d1565b9392505050565b6080516122206200019660003960008181610376015281816104ce0152818161074a015281816107e70152818161095f01528181610a6901528181610aef01528181610bfb01528181610c8301528181610d6801528181610e3801528181611289015281816113f8015281816116350152818161171001526118e701526122206000f3fe6080604052600436106101695760003560e01c806387a2a0dc116100d1578063a6fc49cc1161008a578063d348400c11610064578063d348400c14610486578063decea18114610430578063f4d000b21461048e578063ff0eccf6146104ae57600080fd5b8063a6fc49cc14610430578063c26f3acf1461045e578063d1b8890e1461047e57600080fd5b806387a2a0dc1461034f57806394217ad1146103645780639edbf007146103b0578063a0fe8afb146103d0578063a3ea6d1b146103f0578063a5d5db0c1461041057600080fd5b80632f54bf6e116101235780632f54bf6e14610287578063489a8a47146102bc5780635eb71cfb146102dc57806366c473c3146102fc5780637a68a5081461030f57806386ac57a21461032f57600080fd5b8062f55d9d146101c75780630a4b9ec2146101e75780631cc7c5f3146102075780631f1088a01461022757806320f801d4146102475780632772e48b1461026757600080fd5b366101c257600354600160a01b900460ff166101c05760405162461bcd60e51b8152602060048201526011602482015270696e7465726e616c20757365206f6e6c7960781b60448201526064015b60405180910390fd5b005b600080fd5b3480156101d357600080fd5b506101c06101e2366004611d50565b6104c3565b3480156101f357600080fd5b506101c0610202366004611d50565b610725565b34801561021357600080fd5b506101c0610222366004611d6d565b6107b4565b34801561023357600080fd5b506101c0610242366004611dad565b6109f6565b34801561025357600080fd5b506101c0610262366004611def565b610ae4565b34801561027357600080fd5b506101c0610282366004611d6d565b610b68565b34801561029357600080fd5b506102a76102a2366004611d50565b610c5b565b60405190151581526020015b60405180910390f35b3480156102c857600080fd5b506101c06102d7366004611e30565b610cf6565b3480156102e857600080fd5b506101c06102f7366004611d50565b610ec1565b6101c061030a366004611f09565b610f35565b34801561031b57600080fd5b506101c061032a366004611d50565b61101d565b34801561033b57600080fd5b506101c061034a366004611d50565b61112e565b34801561035b57600080fd5b506101c061118e565b34801561037057600080fd5b506103987f000000000000000000000000000000000000000000000000000000000000000081565b6040516001600160a01b0390911681526020016102b3565b3480156103bc57600080fd5b50600354610398906001600160a01b031681565b3480156103dc57600080fd5b506101c06103eb366004611e30565b61127e565b3480156103fc57600080fd5b506101c061040b366004611def565b611301565b34801561041c57600080fd5b506101c061042b366004611e30565b61135b565b34801561043c57600080fd5b5061045061044b366004611dad565b61145f565b6040519081526020016102b3565b34801561046a57600080fd5b506101c0610479366004611def565b611510565b6101c06115a7565b6101c06116b1565b34801561049a57600080fd5b506101c06104a9366004611d50565b611705565b3480156104ba57600080fd5b506103986118cf565b336001600160a01b037f0000000000000000000000000000000000000000000000000000000000000000161461050b5760405162461bcd60e51b81526004016101b790611f7f565b60015460005b818110156107185760006001828154811061052e5761052e611fab565b60009182526020808320909101546001600160a01b03168083526002909152604090912054909150600481161561061457816001600160a01b0316638c2b8ae16040518163ffffffff1660e01b8152600401602060405180830381865afa15801561059d573d6000803e3d6000fd5b505050506040513d601f19601f820116820180604052508101906105c19190611fc1565b6001600160a01b03166392ab89bb6040518163ffffffff1660e01b8152600401600060405180830381600087803b1580156105fb57600080fd5b505af115801561060f573d6000803e3d6000fd5b505050505b600281161561067157816001600160a01b031663b302f3936040518163ffffffff1660e01b8152600401600060405180830381600087803b15801561065857600080fd5b505af115801561066c573d6000803e3d6000fd5b505050505b6001811615610703576040516370a0823160e01b81523060048201526000906001600160a01b038416906370a0823190602401602060405180830381865afa1580156106c1573d6000803e3d6000fd5b505050506040513d601f19601f820116820180604052508101906106e59190611fde565b90508015610701576107016001600160a01b038416878361195f565b505b5050808061071090611ff7565b915050610511565b50816001600160a01b0316ff5b6040516351c452bf60e01b81523060048201526001600160a01b0382811660248301527f000000000000000000000000000000000000000000000000000000000000000016906351c452bf90604401600060405180830381600087803b15801561078e57600080fd5b505af11580156107a2573d6000803e3d6000fd5b505050506107b18160016119b1565b50565b6107bd33610c5b565b6107d95760405162461bcd60e51b81526004016101b790612020565b60006107e36118cf565b90507f00000000000000000000000000000000000000000000000000000000000000006001600160a01b031663350c35e9826001600160a01b031663cbdf382c6040518163ffffffff1660e01b8152600401602060405180830381865afa158015610852573d6000803e3d6000fd5b505050506040513d601f19601f820116820180604052508101906108769190611fc1565b6040516001600160e01b031960e084901b1681526001600160a01b03909116600482015260248101869052604401600060405180830381600087803b1580156108be57600080fd5b505af11580156108d2573d6000803e3d6000fd5b50505050600080826001600160a01b0316632f35eac28660006040518363ffffffff1660e01b8152600401610908929190612044565b60408051808303816000875af1158015610926573d6000803e3d6000fd5b505050506040513d601f19601f8201168201806040525081019061094a9190612076565b915091506109588483611a3b565b6109ef84827f00000000000000000000000000000000000000000000000000000000000000006001600160a01b0316637c7db1a56040518163ffffffff1660e01b8152600401602060405180830381865afa1580156109bb573d6000803e3d6000fd5b505050506040513d601f19601f820116820180604052508101906109df9190611fc1565b6001600160a01b0316919061195f565b5050505050565b6109ff33610c5b565b610a1b5760405162461bcd60e51b81526004016101b790612020565b60026000541415610a3e5760405162461bcd60e51b81526004016101b79061209a565b600260005560405163350c35e960e01b81526001600160a01b038481166004830152602482018490527f0000000000000000000000000000000000000000000000000000000000000000169063350c35e990604401600060405180830381600087803b158015610aad57600080fd5b505af1158015610ac1573d6000803e3d6000fd5b50610ada925050506001600160a01b038416828461195f565b5050600160005550565b336001600160a01b037f00000000000000000000000000000000000000000000000000000000000000001614610b2c5760405162461bcd60e51b81526004016101b790611f7f565b60026000541415610b4f5760405162461bcd60e51b81526004016101b79061209a565b6002600055610ada6001600160a01b038416838361195f565b610b7133610c5b565b610b8d5760405162461bcd60e51b81526004016101b790612020565b610b956118cf565b6001600160a01b0316635e318e07836040518263ffffffff1660e01b8152600401610bc291815260200190565b600060405180830381600087803b158015610bdc57600080fd5b505af1158015610bf0573d6000803e3d6000fd5b50505050610c5781837f00000000000000000000000000000000000000000000000000000000000000006001600160a01b0316637c7db1a56040518163ffffffff1660e01b8152600401602060405180830381865afa1580156109bb573d6000803e3d6000fd5b5050565b60405163d6b93a9f60e01b81523060048201526001600160a01b0382811660248301526000917f00000000000000000000000000000000000000000000000000000000000000009091169063d6b93a9f90604401602060405180830381865afa158015610ccc573d6000803e3d6000fd5b505050506040513d601f19601f82011682018060405250810190610cf091906120d1565b92915050565b610cff33610c5b565b610d1b5760405162461bcd60e51b81526004016101b790612020565b60026000541415610d3e5760405162461bcd60e51b81526004016101b79061209a565b600260005560405163700104f760e01b81523060048201526001600160a01b0383811660248301527f0000000000000000000000000000000000000000000000000000000000000000169063700104f790604401602060405180830381865afa158015610daf573d6000803e3d6000fd5b505050506040513d601f19601f82011682018060405250810190610dd391906120d1565b15610e205760405162461bcd60e51b815260206004820152601a60248201527f6f6e6c79206e6f6e2d636f6c6c61746572616c20746f6b656e7300000000000060448201526064016101b7565b604051636e61164f60e01b81523060048201526000907f00000000000000000000000000000000000000000000000000000000000000006001600160a01b031690636e61164f906024016040805180830381865afa158015610e86573d6000803e3d6000fd5b505050506040513d601f19601f82011682018060405250810190610eaa91906120f3565b509050610ada6001600160a01b038416828461195f565b610eca33610c5b565b610ee65760405162461bcd60e51b81526004016101b790612020565b806001600160a01b031663b302f3936040518163ffffffff1660e01b8152600401600060405180830381600087803b158015610f2157600080fd5b505af11580156109ef573d6000803e3d6000fd5b610f3e33610c5b565b610f5a5760405162461bcd60e51b81526004016101b790612020565b604051632446712560e21b81526001600160a01b03841690639119c494903490610f88908690600401612122565b6000604051808303818588803b158015610fa157600080fd5b505af1158015610fb5573d6000803e3d6000fd5b505060405163d2a4ac6160e01b81526001600160a01b038716935063d2a4ac619250610fe691508490600401612122565b600060405180830381600087803b15801561100057600080fd5b505af1158015611014573d6000803e3d6000fd5b50505050505050565b61102633610c5b565b6110425760405162461bcd60e51b81526004016101b790612020565b600360009054906101000a90046001600160a01b03166001600160a01b0316638c2b8ae16040518163ffffffff1660e01b8152600401602060405180830381865afa158015611095573d6000803e3d6000fd5b505050506040513d601f19601f820116820180604052508101906110b99190611fc1565b6040516317066a5760e21b81526001600160a01b0383811660048301529190911690635c19a95c90602401600060405180830381600087803b1580156110fe57600080fd5b505af1158015611112573d6000803e3d6000fd5b50506003546107b192506001600160a01b0316905060046119b1565b61113733610c5b565b6111535760405162461bcd60e51b81526004016101b790612020565b806001600160a01b031663f2a1f7676040518163ffffffff1660e01b8152600401600060405180830381600087803b158015610f2157600080fd5b61119733610c5b565b6111b35760405162461bcd60e51b81526004016101b790612020565b600360009054906101000a90046001600160a01b03166001600160a01b0316638c2b8ae16040518163ffffffff1660e01b8152600401602060405180830381865afa158015611206573d6000803e3d6000fd5b505050506040513d601f19601f8201168201806040525081019061122a9190611fc1565b6001600160a01b03166392ab89bb6040518163ffffffff1660e01b8152600401600060405180830381600087803b15801561126457600080fd5b505af1158015611278573d6000803e3d6000fd5b50505050565b336001600160a01b037f000000000000000000000000000000000000000000000000000000000000000016146112c65760405162461bcd60e51b81526004016101b790611f7f565b600260005414156112e95760405162461bcd60e51b81526004016101b79061209a565b60026000556112f88282611a3b565b50506001600055565b61130a33610c5b565b6113265760405162461bcd60e51b81526004016101b790612020565b60405163177adf7f60e31b81526001600160a01b0383811660048301526024820183905284169063bbd6fbf890604401610fe6565b6040516323b872dd60e01b8152336004820152306024820152604481018290526001600160a01b038316906323b872dd906064016020604051808303816000875af11580156113ae573d6000803e3d6000fd5b505050506040513d601f19601f820116820180604052508101906113d291906120d1565b506040516351c452bf60e01b81523060048201526001600160a01b0383811660248301527f000000000000000000000000000000000000000000000000000000000000000016906351c452bf90604401600060405180830381600087803b15801561143c57600080fd5b505af1158015611450573d6000803e3d6000fd5b50505050610c578260016119b1565b600061146a33610c5b565b6114865760405162461bcd60e51b81526004016101b790612020565b60405163596090c960e11b81523060048201526001600160a01b038381166024830152604482018590526000606483015285169063b2c12192906084016020604051808303816000875af11580156114e2573d6000803e3d6000fd5b505050506040513d601f19601f820116820180604052508101906115069190611fde565b90505b9392505050565b61151933610c5b565b6115355760405162461bcd60e51b81526004016101b790612020565b60405163026e402b60e01b81526001600160a01b0383811660048301526024820183905284169063026e402b90604401600060405180830381600087803b15801561157f57600080fd5b505af1158015611593573d6000803e3d6000fd5b505050506115a28360026119b1565b505050565b600360009054906101000a90046001600160a01b03166001600160a01b031663d0e30db0346040518263ffffffff1660e01b81526004016000604051808303818588803b1580156115f757600080fd5b505af115801561160b573d6000803e3d6000fd5b50506003546040516351c452bf60e01b81523060048201526001600160a01b0391821660248201527f000000000000000000000000000000000000000000000000000000000000000090911693506351c452bf92506044019050600060405180830381600087803b15801561167f57600080fd5b505af1158015611693573d6000803e3d6000fd5b50506003546116af92506001600160a01b0316905060016119b1565b565b6116b96118cf565b60405163ac3736c160e01b815260006004820181905260248201526001600160a01b03919091169063ac3736c19034906044016000604051808303818588803b158015610f2157600080fd5b336001600160a01b037f0000000000000000000000000000000000000000000000000000000000000000161461174d5760405162461bcd60e51b81526004016101b790611f7f565b6003546001600160a01b03828116911614156117665750565b6003546040516370a0823160e01b81523060048201526000916001600160a01b0316906370a0823190602401602060405180830381865afa1580156117af573d6000803e3d6000fd5b505050506040513d601f19601f820116820180604052508101906117d39190611fde565b60038054600160a01b60ff60a01b19821617909155604051632e1a7d4d60e01b8152600481018390529192506001600160a01b031690632e1a7d4d90602401600060405180830381600087803b15801561182c57600080fd5b505af1158015611840573d6000803e3d6000fd5b50506003805460ff60a01b19169055505060408051630d0e30db60e41b815290516001600160a01b0384169163d0e30db091849160048082019260009290919082900301818588803b15801561189557600080fd5b505af11580156118a9573d6000803e3d6000fd5b5050600380546001600160a01b0387166001600160a01b03199091161790555050505050565b60405163292979d160e11b81523060048201526000907f00000000000000000000000000000000000000000000000000000000000000006001600160a01b031690635252f3a290602401602060405180830381865afa158015611936573d6000803e3d6000fd5b505050506040513d601f19601f8201168201806040525081019061195a9190611fc1565b905090565b604080516001600160a01b038416602482015260448082018490528251808303909101815260649091019091526020810180516001600160e01b031663a9059cbb60e01b1790526115a2908490611ac3565b6001600160a01b038216600090815260026020526040902054611a19576001805480820182556000919091527fb10e2d527612073b26eecdfd717e6a320cf44b4afac2b0732d9fcbe2b7fa0cf60180546001600160a01b0319166001600160a01b0384161790555b6001600160a01b03909116600090815260026020526040902080549091179055565b60038054600160a01b60ff60a01b19821617909155604051632e1a7d4d60e01b8152600481018390526001600160a01b0390911690632e1a7d4d90602401600060405180830381600087803b158015611a9357600080fd5b505af1158015611aa7573d6000803e3d6000fd5b50506003805460ff60a01b1916905550610c5790508282611b95565b6000611b18826040518060400160405280602081526020017f5361666545524332303a206c6f772d6c6576656c2063616c6c206661696c6564815250856001600160a01b0316611c309092919063ffffffff16565b8051909150156115a25780806020019051810190611b3691906120d1565b6115a25760405162461bcd60e51b815260206004820152602a60248201527f5361666545524332303a204552433230206f7065726174696f6e20646964206e6044820152691bdd081cdd58d8d9595960b21b60648201526084016101b7565b8015610c57576000826001600160a01b03168260405160006040518083038185875af1925050503d8060008114611be8576040519150601f19603f3d011682016040523d82523d6000602084013e611bed565b606091505b50509050806115a25760405162461bcd60e51b815260206004820152600f60248201526e1d1c985b9cd9995c8819985a5b1959608a1b60448201526064016101b7565b6060611506848460008585843b611c895760405162461bcd60e51b815260206004820152601d60248201527f416464726573733a2063616c6c20746f206e6f6e2d636f6e747261637400000060448201526064016101b7565b600080866001600160a01b03168587604051611ca5919061219b565b60006040518083038185875af1925050503d8060008114611ce2576040519150601f19603f3d011682016040523d82523d6000602084013e611ce7565b606091505b5091509150611cf7828286611d02565b979650505050505050565b60608315611d11575081611509565b825115611d215782518084602001fd5b8160405162461bcd60e51b81526004016101b791906121b7565b6001600160a01b03811681146107b157600080fd5b600060208284031215611d6257600080fd5b813561150981611d3b565b60008060408385031215611d8057600080fd5b823591506020830135611d9281611d3b565b809150509250929050565b8035611da881611d3b565b919050565b600080600060608486031215611dc257600080fd5b8335611dcd81611d3b565b9250602084013591506040840135611de481611d3b565b809150509250925092565b600080600060608486031215611e0457600080fd5b8335611e0f81611d3b565b92506020840135611e1f81611d3b565b929592945050506040919091013590565b60008060408385031215611e4357600080fd5b8235611e4e81611d3b565b946020939093013593505050565b634e487b7160e01b600052604160045260246000fd5b600082601f830112611e8357600080fd5b8135602067ffffffffffffffff80831115611ea057611ea0611e5c565b8260051b604051601f19603f83011681018181108482111715611ec557611ec5611e5c565b604052938452858101830193838101925087851115611ee357600080fd5b83870191505b84821015611cf757611efa82611d9d565b83529183019190830190611ee9565b600080600060608486031215611f1e57600080fd5b8335611f2981611d3b565b9250602084013567ffffffffffffffff80821115611f4657600080fd5b611f5287838801611e72565b93506040860135915080821115611f6857600080fd5b50611f7586828701611e72565b9150509250925092565b60208082526012908201527137b7363c9030b9b9b2ba1036b0b730b3b2b960711b604082015260600190565b634e487b7160e01b600052603260045260246000fd5b600060208284031215611fd357600080fd5b815161150981611d3b565b600060208284031215611ff057600080fd5b5051919050565b600060001982141561201957634e487b7160e01b600052601160045260246000fd5b5060010190565b6020808252600a908201526937b7363c9037bbb732b960b11b604082015260600190565b828152604081016003831061206957634e487b7160e01b600052602160045260246000fd5b8260208301529392505050565b6000806040838503121561208957600080fd5b505080516020909101519092909150565b6020808252601f908201527f5265656e7472616e637947756172643a207265656e7472616e742063616c6c00604082015260600190565b6000602082840312156120e357600080fd5b8151801515811461150957600080fd5b6000806040838503121561210657600080fd5b825161211181611d3b565b6020840151909250611d9281611d3b565b6020808252825182820181905260009190848201906040850190845b818110156121635783516001600160a01b03168352928401929184019160010161213e565b50909695505050505050565b60005b8381101561218a578181015183820152602001612172565b838111156112785750506000910152565b600082516121ad81846020870161216f565b9190910192915050565b60208152600082518060208401526121d681604085016020870161216f565b601f01601f1916919091016040019291505056fea2646970667358221220c4502a69b8ecb1a33b64e06646bf0ed0c28b27cf3e43d0ec1a322eefe62366ce64736f6c634300080b0033a264697066735822122035647b01be29d4a8e7e953094bd4b913aa563190a3d4a73c51baa7e7d2f4fa8664736f6c634300080b0033",
  "linkReferences": {},
  "deployedLinkReferences": {}
}