{
  "_format": "hh-sol-artifact-1",
  "contractName": "AgentVaultFactory",
  "sourceName": "contracts/fasset/implementation/AgentVaultFactory.sol",
  "abi": [
    {
      "inputs": [
        {
          "internalType": "contract IAssetManager",
          "name": "_assetManager",
          "type": "address"
        }
      ],
      "name": "create",
      "outputs": [
        {
          "internalType": "contract IAgentVault",
          "name": "",
          "type": "address"
        }
      ],
      "stateMutability": "nonpayable",
      "type": "function"
    }
  ],
  "bytecode": "0x608060405234801561001057600080fd5b50612683806100206000396000f3fe608060405234801561001057600080fd5b506004361061002b5760003560e01c80639ed9331814610030575b600080fd5b61004361003e3660046100ae565b61005f565b6040516001600160a01b03909116815260200160405180910390f35b60008160405161006e906100a1565b6001600160a01b039091168152602001604051809103906000f08015801561009a573d6000803e3d6000fd5b5092915050565b61256f806100df83390190565b6000602082840312156100c057600080fd5b81356001600160a01b03811681146100d757600080fd5b939250505056fe60a06040523480156200001157600080fd5b506040516200256f3803806200256f8339810160408190526200003491620000ea565b60016000556001600160a01b038116608081905260408051635ad2445360e11b8152905163b5a488a6916004808201926020929091908290030181865afa15801562000084573d6000803e3d6000fd5b505050506040513d601f19601f82011682018060405250810190620000aa9190620000ea565b600380546001600160a01b0319166001600160a01b03929092169190911790555062000111565b6001600160a01b0381168114620000e757600080fd5b50565b600060208284031215620000fd57600080fd5b81516200010a81620000d1565b9392505050565b6080516123d26200019d600039600081816103b10152818161050901528181610805015281816108a201528181610a1a01528181610b2401528181610baa01528181610cb601528181610d3e01528181610e2301528181610ef3015281816113af0152818161142b015281816115b0015281816117e7015281816118c20152611a9901526123d26000f3fe6080604052600436106101845760003560e01c80638a30cb8d116100d1578063a6fc49cc1161008a578063d348400c11610064578063d348400c146104c1578063decea1811461046b578063f4d000b2146104c9578063ff0eccf6146104e957600080fd5b8063a6fc49cc1461046b578063c26f3acf14610499578063d1b8890e146104b957600080fd5b80638a30cb8d1461037f57806394217ad11461039f5780639edbf007146103eb578063a0fe8afb1461040b578063a3ea6d1b1461042b578063a5d5db0c1461044b57600080fd5b80632f54bf6e1161013e57806366c473c31161011857806366c473c3146103175780637a68a5081461032a57806386ac57a21461034a57806387a2a0dc1461036a57600080fd5b80632f54bf6e146102a2578063489a8a47146102d75780635eb71cfb146102f757600080fd5b8062f55d9d146101e25780630a4b9ec2146102025780631cc7c5f3146102225780631f1088a01461024257806320f801d4146102625780632772e48b1461028257600080fd5b366101dd57600354600160a01b900460ff166101db5760405162461bcd60e51b8152602060048201526011602482015270696e7465726e616c20757365206f6e6c7960781b60448201526064015b60405180910390fd5b005b600080fd5b3480156101ee57600080fd5b506101db6101fd366004611f02565b6104fe565b34801561020e57600080fd5b506101db61021d366004611f02565b6107c1565b34801561022e57600080fd5b506101db61023d366004611f1f565b61086f565b34801561024e57600080fd5b506101db61025d366004611f5f565b610ab1565b34801561026e57600080fd5b506101db61027d366004611fa1565b610b9f565b34801561028e57600080fd5b506101db61029d366004611f1f565b610c23565b3480156102ae57600080fd5b506102c26102bd366004611f02565b610d16565b60405190151581526020015b60405180910390f35b3480156102e357600080fd5b506101db6102f2366004611fe2565b610db1565b34801561030357600080fd5b506101db610312366004611f02565b610f7c565b6101db6103253660046120bb565b610ff0565b34801561033657600080fd5b506101db610345366004611f02565b6110d8565b34801561035657600080fd5b506101db610365366004611f02565b6111e9565b34801561037657600080fd5b506101db611249565b34801561038b57600080fd5b506101db61039a366004611f1f565b611339565b3480156103ab57600080fd5b506103d37f000000000000000000000000000000000000000000000000000000000000000081565b6040516001600160a01b0390911681526020016102ce565b3480156103f757600080fd5b506003546103d3906001600160a01b031681565b34801561041757600080fd5b506101db610426366004611fe2565b611420565b34801561043757600080fd5b506101db610446366004611fa1565b61149a565b34801561045757600080fd5b506101db610466366004611fe2565b6114f4565b34801561047757600080fd5b5061048b610486366004611f5f565b611617565b6040519081526020016102ce565b3480156104a557600080fd5b506101db6104b4366004611fa1565b6116c8565b6101db61175f565b6101db611863565b3480156104d557600080fd5b506101db6104e4366004611f02565b6118b7565b3480156104f557600080fd5b506103d3611a81565b336001600160a01b037f000000000000000000000000000000000000000000000000000000000000000016146105465760405162461bcd60e51b81526004016101d290612131565b60015460005b818110156107b4576000600182815481106105695761056961215d565b60009182526020808320909101546001600160a01b03168083526002909152604090912054909150600481161561064f57816001600160a01b0316638c2b8ae16040518163ffffffff1660e01b8152600401602060405180830381865afa1580156105d8573d6000803e3d6000fd5b505050506040513d601f19601f820116820180604052508101906105fc9190612173565b6001600160a01b03166392ab89bb6040518163ffffffff1660e01b8152600401600060405180830381600087803b15801561063657600080fd5b505af115801561064a573d6000803e3d6000fd5b505050505b60028116156106ac57816001600160a01b031663b302f3936040518163ffffffff1660e01b8152600401600060405180830381600087803b15801561069357600080fd5b505af11580156106a7573d6000803e3d6000fd5b505050505b600181161561079f576040516370a0823160e01b81523060048201526000906001600160a01b038416906370a0823190602401602060405180830381865afa1580156106fc573d6000803e3d6000fd5b505050506040513d601f19601f820116820180604052508101906107209190612190565b9050801561079d5760405163a9059cbb60e01b81526001600160a01b0387811660048301526024820183905284169063a9059cbb906044016020604051808303816000875af1158015610777573d6000803e3d6000fd5b505050506040513d601f19601f8201168201806040525081019061079b91906121a9565b505b505b505080806107ac906121cb565b91505061054c565b50816001600160a01b0316ff5b6107ca33610d16565b6107e65760405162461bcd60e51b81526004016101d2906121f4565b604051630525cf6160e11b81526001600160a01b0382811660048301527f00000000000000000000000000000000000000000000000000000000000000001690630a4b9ec290602401600060405180830381600087803b15801561084957600080fd5b505af115801561085d573d6000803e3d6000fd5b5050505061086c816001611b11565b50565b61087833610d16565b6108945760405162461bcd60e51b81526004016101d2906121f4565b600061089e611a81565b90507f00000000000000000000000000000000000000000000000000000000000000006001600160a01b031663350c35e9826001600160a01b031663cbdf382c6040518163ffffffff1660e01b8152600401602060405180830381865afa15801561090d573d6000803e3d6000fd5b505050506040513d601f19601f820116820180604052508101906109319190612173565b6040516001600160e01b031960e084901b1681526001600160a01b03909116600482015260248101869052604401600060405180830381600087803b15801561097957600080fd5b505af115801561098d573d6000803e3d6000fd5b50505050600080826001600160a01b0316632f35eac28660006040518363ffffffff1660e01b81526004016109c3929190612218565b60408051808303816000875af11580156109e1573d6000803e3d6000fd5b505050506040513d601f19601f82011682018060405250810190610a05919061224a565b91509150610a138483611b9b565b610aaa84827f00000000000000000000000000000000000000000000000000000000000000006001600160a01b0316637c7db1a56040518163ffffffff1660e01b8152600401602060405180830381865afa158015610a76573d6000803e3d6000fd5b505050506040513d601f19601f82011682018060405250810190610a9a9190612173565b6001600160a01b03169190611c23565b5050505050565b610aba33610d16565b610ad65760405162461bcd60e51b81526004016101d2906121f4565b60026000541415610af95760405162461bcd60e51b81526004016101d29061226e565b600260005560405163350c35e960e01b81526001600160a01b038481166004830152602482018490527f0000000000000000000000000000000000000000000000000000000000000000169063350c35e990604401600060405180830381600087803b158015610b6857600080fd5b505af1158015610b7c573d6000803e3d6000fd5b50610b95925050506001600160a01b0384168284611c23565b5050600160005550565b336001600160a01b037f00000000000000000000000000000000000000000000000000000000000000001614610be75760405162461bcd60e51b81526004016101d290612131565b60026000541415610c0a5760405162461bcd60e51b81526004016101d29061226e565b6002600055610b956001600160a01b0384168383611c23565b610c2c33610d16565b610c485760405162461bcd60e51b81526004016101d2906121f4565b610c50611a81565b6001600160a01b0316635e318e07836040518263ffffffff1660e01b8152600401610c7d91815260200190565b600060405180830381600087803b158015610c9757600080fd5b505af1158015610cab573d6000803e3d6000fd5b50505050610d1281837f00000000000000000000000000000000000000000000000000000000000000006001600160a01b0316637c7db1a56040518163ffffffff1660e01b8152600401602060405180830381865afa158015610a76573d6000803e3d6000fd5b5050565b60405163d6b93a9f60e01b81523060048201526001600160a01b0382811660248301526000917f00000000000000000000000000000000000000000000000000000000000000009091169063d6b93a9f90604401602060405180830381865afa158015610d87573d6000803e3d6000fd5b505050506040513d601f19601f82011682018060405250810190610dab91906121a9565b92915050565b610dba33610d16565b610dd65760405162461bcd60e51b81526004016101d2906121f4565b60026000541415610df95760405162461bcd60e51b81526004016101d29061226e565b600260005560405163464f54bb60e11b81523060048201526001600160a01b0383811660248301527f00000000000000000000000000000000000000000000000000000000000000001690638c9ea97690604401602060405180830381865afa158015610e6a573d6000803e3d6000fd5b505050506040513d601f19601f82011682018060405250810190610e8e91906121a9565b15610edb5760405162461bcd60e51b815260206004820152601a60248201527f6f6e6c79206e6f6e2d636f6c6c61746572616c20746f6b656e7300000000000060448201526064016101d2565b604051636e61164f60e01b81523060048201526000907f00000000000000000000000000000000000000000000000000000000000000006001600160a01b031690636e61164f906024016040805180830381865afa158015610f41573d6000803e3d6000fd5b505050506040513d601f19601f82011682018060405250810190610f6591906122a5565b509050610b956001600160a01b0384168284611c23565b610f8533610d16565b610fa15760405162461bcd60e51b81526004016101d2906121f4565b806001600160a01b031663b302f3936040518163ffffffff1660e01b8152600401600060405180830381600087803b158015610fdc57600080fd5b505af1158015610aaa573d6000803e3d6000fd5b610ff933610d16565b6110155760405162461bcd60e51b81526004016101d2906121f4565b604051632446712560e21b81526001600160a01b03841690639119c4949034906110439086906004016122d4565b6000604051808303818588803b15801561105c57600080fd5b505af1158015611070573d6000803e3d6000fd5b505060405163d2a4ac6160e01b81526001600160a01b038716935063d2a4ac6192506110a1915084906004016122d4565b600060405180830381600087803b1580156110bb57600080fd5b505af11580156110cf573d6000803e3d6000fd5b50505050505050565b6110e133610d16565b6110fd5760405162461bcd60e51b81526004016101d2906121f4565b600360009054906101000a90046001600160a01b03166001600160a01b0316638c2b8ae16040518163ffffffff1660e01b8152600401602060405180830381865afa158015611150573d6000803e3d6000fd5b505050506040513d601f19601f820116820180604052508101906111749190612173565b6040516317066a5760e21b81526001600160a01b0383811660048301529190911690635c19a95c90602401600060405180830381600087803b1580156111b957600080fd5b505af11580156111cd573d6000803e3d6000fd5b505060035461086c92506001600160a01b031690506004611b11565b6111f233610d16565b61120e5760405162461bcd60e51b81526004016101d2906121f4565b806001600160a01b031663f2a1f7676040518163ffffffff1660e01b8152600401600060405180830381600087803b158015610fdc57600080fd5b61125233610d16565b61126e5760405162461bcd60e51b81526004016101d2906121f4565b600360009054906101000a90046001600160a01b03166001600160a01b0316638c2b8ae16040518163ffffffff1660e01b8152600401602060405180830381865afa1580156112c1573d6000803e3d6000fd5b505050506040513d601f19601f820116820180604052508101906112e59190612173565b6001600160a01b03166392ab89bb6040518163ffffffff1660e01b8152600401600060405180830381600087803b15801561131f57600080fd5b505af1158015611333573d6000803e3d6000fd5b50505050565b61134233610d16565b61135e5760405162461bcd60e51b81526004016101d2906121f4565b600260005414156113815760405162461bcd60e51b81526004016101d29061226e565b600260005560035460405163350c35e960e01b81526001600160a01b039182166004820152602481018490527f00000000000000000000000000000000000000000000000000000000000000009091169063350c35e990604401600060405180830381600087803b1580156113f557600080fd5b505af1158015611409573d6000803e3d6000fd5b505050506114178183611b9b565b50506001600055565b336001600160a01b037f000000000000000000000000000000000000000000000000000000000000000016146114685760405162461bcd60e51b81526004016101d290612131565b6002600054141561148b5760405162461bcd60e51b81526004016101d29061226e565b60026000556114178282611b9b565b6114a333610d16565b6114bf5760405162461bcd60e51b81526004016101d2906121f4565b60405163177adf7f60e31b81526001600160a01b0383811660048301526024820183905284169063bbd6fbf8906044016110a1565b6114fd33610d16565b6115195760405162461bcd60e51b81526004016101d2906121f4565b6040516323b872dd60e01b8152336004820152306024820152604481018290526001600160a01b038316906323b872dd906064016020604051808303816000875af115801561156c573d6000803e3d6000fd5b505050506040513d601f19601f8201168201806040525081019061159091906121a9565b50604051630525cf6160e11b81526001600160a01b0383811660048301527f00000000000000000000000000000000000000000000000000000000000000001690630a4b9ec290602401600060405180830381600087803b1580156115f457600080fd5b505af1158015611608573d6000803e3d6000fd5b50505050610d12826001611b11565b600061162233610d16565b61163e5760405162461bcd60e51b81526004016101d2906121f4565b60405163596090c960e11b81523060048201526001600160a01b038381166024830152604482018590526000606483015285169063b2c12192906084016020604051808303816000875af115801561169a573d6000803e3d6000fd5b505050506040513d601f19601f820116820180604052508101906116be9190612190565b90505b9392505050565b6116d133610d16565b6116ed5760405162461bcd60e51b81526004016101d2906121f4565b60405163026e402b60e01b81526001600160a01b0383811660048301526024820183905284169063026e402b90604401600060405180830381600087803b15801561173757600080fd5b505af115801561174b573d6000803e3d6000fd5b5050505061175a836002611b11565b505050565b600360009054906101000a90046001600160a01b03166001600160a01b031663d0e30db0346040518263ffffffff1660e01b81526004016000604051808303818588803b1580156117af57600080fd5b505af11580156117c3573d6000803e3d6000fd5b5050600354604051630525cf6160e11b81526001600160a01b0391821660048201527f00000000000000000000000000000000000000000000000000000000000000009091169350630a4b9ec292506024019050600060405180830381600087803b15801561183157600080fd5b505af1158015611845573d6000803e3d6000fd5b505060035461186192506001600160a01b031690506001611b11565b565b61186b611a81565b60405163ac3736c160e01b815260006004820181905260248201526001600160a01b03919091169063ac3736c19034906044016000604051808303818588803b158015610fdc57600080fd5b336001600160a01b037f000000000000000000000000000000000000000000000000000000000000000016146118ff5760405162461bcd60e51b81526004016101d290612131565b6003546001600160a01b03828116911614156119185750565b6003546040516370a0823160e01b81523060048201526000916001600160a01b0316906370a0823190602401602060405180830381865afa158015611961573d6000803e3d6000fd5b505050506040513d601f19601f820116820180604052508101906119859190612190565b60038054600160a01b60ff60a01b19821617909155604051632e1a7d4d60e01b8152600481018390529192506001600160a01b031690632e1a7d4d90602401600060405180830381600087803b1580156119de57600080fd5b505af11580156119f2573d6000803e3d6000fd5b50506003805460ff60a01b19169055505060408051630d0e30db60e41b815290516001600160a01b0384169163d0e30db091849160048082019260009290919082900301818588803b158015611a4757600080fd5b505af1158015611a5b573d6000803e3d6000fd5b5050600380546001600160a01b0387166001600160a01b03199091161790555050505050565b60405163292979d160e11b81523060048201526000907f00000000000000000000000000000000000000000000000000000000000000006001600160a01b031690635252f3a290602401602060405180830381865afa158015611ae8573d6000803e3d6000fd5b505050506040513d601f19601f82011682018060405250810190611b0c9190612173565b905090565b6001600160a01b038216600090815260026020526040902054611b79576001805480820182556000919091527fb10e2d527612073b26eecdfd717e6a320cf44b4afac2b0732d9fcbe2b7fa0cf60180546001600160a01b0319166001600160a01b0384161790555b6001600160a01b03909116600090815260026020526040902080549091179055565b60038054600160a01b60ff60a01b19821617909155604051632e1a7d4d60e01b8152600481018390526001600160a01b0390911690632e1a7d4d90602401600060405180830381600087803b158015611bf357600080fd5b505af1158015611c07573d6000803e3d6000fd5b50506003805460ff60a01b1916905550610d1290508282611c75565b604080516001600160a01b038416602482015260448082018490528251808303909101815260649091019091526020810180516001600160e01b031663a9059cbb60e01b17905261175a908490611d10565b8015610d12576000826001600160a01b03168260405160006040518083038185875af1925050503d8060008114611cc8576040519150601f19603f3d011682016040523d82523d6000602084013e611ccd565b606091505b505090508061175a5760405162461bcd60e51b815260206004820152600f60248201526e1d1c985b9cd9995c8819985a5b1959608a1b60448201526064016101d2565b6000611d65826040518060400160405280602081526020017f5361666545524332303a206c6f772d6c6576656c2063616c6c206661696c6564815250856001600160a01b0316611de29092919063ffffffff16565b80519091501561175a5780806020019051810190611d8391906121a9565b61175a5760405162461bcd60e51b815260206004820152602a60248201527f5361666545524332303a204552433230206f7065726174696f6e20646964206e6044820152691bdd081cdd58d8d9595960b21b60648201526084016101d2565b60606116be848460008585843b611e3b5760405162461bcd60e51b815260206004820152601d60248201527f416464726573733a2063616c6c20746f206e6f6e2d636f6e747261637400000060448201526064016101d2565b600080866001600160a01b03168587604051611e57919061234d565b60006040518083038185875af1925050503d8060008114611e94576040519150601f19603f3d011682016040523d82523d6000602084013e611e99565b606091505b5091509150611ea9828286611eb4565b979650505050505050565b60608315611ec35750816116c1565b825115611ed35782518084602001fd5b8160405162461bcd60e51b81526004016101d29190612369565b6001600160a01b038116811461086c57600080fd5b600060208284031215611f1457600080fd5b81356116c181611eed565b60008060408385031215611f3257600080fd5b823591506020830135611f4481611eed565b809150509250929050565b8035611f5a81611eed565b919050565b600080600060608486031215611f7457600080fd5b8335611f7f81611eed565b9250602084013591506040840135611f9681611eed565b809150509250925092565b600080600060608486031215611fb657600080fd5b8335611fc181611eed565b92506020840135611fd181611eed565b929592945050506040919091013590565b60008060408385031215611ff557600080fd5b823561200081611eed565b946020939093013593505050565b634e487b7160e01b600052604160045260246000fd5b600082601f83011261203557600080fd5b8135602067ffffffffffffffff808311156120525761205261200e565b8260051b604051601f19603f830116810181811084821117156120775761207761200e565b60405293845285810183019383810192508785111561209557600080fd5b83870191505b84821015611ea9576120ac82611f4f565b8352918301919083019061209b565b6000806000606084860312156120d057600080fd5b83356120db81611eed565b9250602084013567ffffffffffffffff808211156120f857600080fd5b61210487838801612024565b9350604086013591508082111561211a57600080fd5b5061212786828701612024565b9150509250925092565b60208082526012908201527137b7363c9030b9b9b2ba1036b0b730b3b2b960711b604082015260600190565b634e487b7160e01b600052603260045260246000fd5b60006020828403121561218557600080fd5b81516116c181611eed565b6000602082840312156121a257600080fd5b5051919050565b6000602082840312156121bb57600080fd5b815180151581146116c157600080fd5b60006000198214156121ed57634e487b7160e01b600052601160045260246000fd5b5060010190565b6020808252600a908201526937b7363c9037bbb732b960b11b604082015260600190565b828152604081016003831061223d57634e487b7160e01b600052602160045260246000fd5b8260208301529392505050565b6000806040838503121561225d57600080fd5b505080516020909101519092909150565b6020808252601f908201527f5265656e7472616e637947756172643a207265656e7472616e742063616c6c00604082015260600190565b600080604083850312156122b857600080fd5b82516122c381611eed565b6020840151909250611f4481611eed565b6020808252825182820181905260009190848201906040850190845b818110156123155783516001600160a01b0316835292840192918401916001016122f0565b50909695505050505050565b60005b8381101561233c578181015183820152602001612324565b838111156113335750506000910152565b6000825161235f818460208701612321565b9190910192915050565b6020815260008251806020840152612388816040850160208701612321565b601f01601f1916919091016040019291505056fea2646970667358221220947783e3f1f1805e31877fe91688f6645bb11fcf405d4b982ac453b09a89ad2f64736f6c634300080b0033a264697066735822122057275a07caa4dd396549b03209d544086458b5218fdc19cc0e90e20e860a47d364736f6c634300080b0033",
  "linkReferences": {},
  "deployedLinkReferences": {}
}