{
  "_format": "hh-sol-artifact-1",
  "contractName": "ERC20PermitMock",
  "sourceName": "contracts/openzeppelin/mock/ERC20PermitMock.sol",
  "abi": [
    {
      "inputs": [
        {
          "internalType": "string",
          "name": "name_",
          "type": "string"
        },
        {
          "internalType": "string",
          "name": "symbol_",
          "type": "string"
        }
      ],
      "stateMutability": "nonpayable",
      "type": "constructor"
    },
    {
      "anonymous": false,
      "inputs": [
        {
          "indexed": false,
          "internalType": "address",
          "name": "previousAdmin",
          "type": "address"
        },
        {
          "indexed": false,
          "internalType": "address",
          "name": "newAdmin",
          "type": "address"
        }
      ],
      "name": "AdminChanged",
      "type": "event"
    },
    {
      "anonymous": false,
      "inputs": [
        {
          "indexed": true,
          "internalType": "address",
          "name": "owner",
          "type": "address"
        },
        {
          "indexed": true,
          "internalType": "address",
          "name": "spender",
          "type": "address"
        },
        {
          "indexed": false,
          "internalType": "uint256",
          "name": "value",
          "type": "uint256"
        }
      ],
      "name": "Approval",
      "type": "event"
    },
    {
      "anonymous": false,
      "inputs": [
        {
          "indexed": true,
          "internalType": "address",
          "name": "beacon",
          "type": "address"
        }
      ],
      "name": "BeaconUpgraded",
      "type": "event"
    },
    {
      "anonymous": false,
      "inputs": [],
      "name": "EIP712DomainChanged",
      "type": "event"
    },
    {
      "anonymous": false,
      "inputs": [
        {
          "indexed": true,
          "internalType": "address",
          "name": "from",
          "type": "address"
        },
        {
          "indexed": true,
          "internalType": "address",
          "name": "to",
          "type": "address"
        },
        {
          "indexed": false,
          "internalType": "uint256",
          "name": "value",
          "type": "uint256"
        }
      ],
      "name": "Transfer",
      "type": "event"
    },
    {
      "anonymous": false,
      "inputs": [
        {
          "indexed": true,
          "internalType": "address",
          "name": "implementation",
          "type": "address"
        }
      ],
      "name": "Upgraded",
      "type": "event"
    },
    {
      "inputs": [],
      "name": "DOMAIN_SEPARATOR",
      "outputs": [
        {
          "internalType": "bytes32",
          "name": "",
          "type": "bytes32"
        }
      ],
      "stateMutability": "view",
      "type": "function"
    },
    {
      "inputs": [
        {
          "internalType": "address",
          "name": "owner",
          "type": "address"
        },
        {
          "internalType": "address",
          "name": "spender",
          "type": "address"
        }
      ],
      "name": "allowance",
      "outputs": [
        {
          "internalType": "uint256",
          "name": "",
          "type": "uint256"
        }
      ],
      "stateMutability": "view",
      "type": "function"
    },
    {
      "inputs": [
        {
          "internalType": "address",
          "name": "spender",
          "type": "address"
        },
        {
          "internalType": "uint256",
          "name": "amount",
          "type": "uint256"
        }
      ],
      "name": "approve",
      "outputs": [
        {
          "internalType": "bool",
          "name": "",
          "type": "bool"
        }
      ],
      "stateMutability": "nonpayable",
      "type": "function"
    },
    {
      "inputs": [
        {
          "internalType": "address",
          "name": "account",
          "type": "address"
        }
      ],
      "name": "balanceOf",
      "outputs": [
        {
          "internalType": "uint256",
          "name": "",
          "type": "uint256"
        }
      ],
      "stateMutability": "view",
      "type": "function"
    },
    {
      "inputs": [],
      "name": "decimals",
      "outputs": [
        {
          "internalType": "uint8",
          "name": "",
          "type": "uint8"
        }
      ],
      "stateMutability": "view",
      "type": "function"
    },
    {
      "inputs": [
        {
          "internalType": "address",
          "name": "spender",
          "type": "address"
        },
        {
          "internalType": "uint256",
          "name": "subtractedValue",
          "type": "uint256"
        }
      ],
      "name": "decreaseAllowance",
      "outputs": [
        {
          "internalType": "bool",
          "name": "",
          "type": "bool"
        }
      ],
      "stateMutability": "nonpayable",
      "type": "function"
    },
    {
      "inputs": [],
      "name": "eip712Domain",
      "outputs": [
        {
          "internalType": "bytes1",
          "name": "fields",
          "type": "bytes1"
        },
        {
          "internalType": "string",
          "name": "name",
          "type": "string"
        },
        {
          "internalType": "string",
          "name": "version",
          "type": "string"
        },
        {
          "internalType": "uint256",
          "name": "chainId",
          "type": "uint256"
        },
        {
          "internalType": "address",
          "name": "verifyingContract",
          "type": "address"
        },
        {
          "internalType": "bytes32",
          "name": "salt",
          "type": "bytes32"
        },
        {
          "internalType": "uint256[]",
          "name": "extensions",
          "type": "uint256[]"
        }
      ],
      "stateMutability": "view",
      "type": "function"
    },
    {
      "inputs": [
        {
          "internalType": "address",
          "name": "spender",
          "type": "address"
        },
        {
          "internalType": "uint256",
          "name": "addedValue",
          "type": "uint256"
        }
      ],
      "name": "increaseAllowance",
      "outputs": [
        {
          "internalType": "bool",
          "name": "",
          "type": "bool"
        }
      ],
      "stateMutability": "nonpayable",
      "type": "function"
    },
    {
      "inputs": [
        {
          "internalType": "string",
          "name": "name_",
          "type": "string"
        },
        {
          "internalType": "string",
          "name": "symbol_",
          "type": "string"
        }
      ],
      "name": "initialize",
      "outputs": [],
      "stateMutability": "nonpayable",
      "type": "function"
    },
    {
      "inputs": [],
      "name": "initializeV1r1",
      "outputs": [],
      "stateMutability": "nonpayable",
      "type": "function"
    },
    {
      "inputs": [
        {
          "internalType": "address",
          "name": "account",
          "type": "address"
        },
        {
          "internalType": "uint256",
          "name": "amount",
          "type": "uint256"
        }
      ],
      "name": "mint",
      "outputs": [],
      "stateMutability": "nonpayable",
      "type": "function"
    },
    {
      "inputs": [],
      "name": "name",
      "outputs": [
        {
          "internalType": "string",
          "name": "",
          "type": "string"
        }
      ],
      "stateMutability": "view",
      "type": "function"
    },
    {
      "inputs": [
        {
          "internalType": "address",
          "name": "owner",
          "type": "address"
        }
      ],
      "name": "nonces",
      "outputs": [
        {
          "internalType": "uint256",
          "name": "",
          "type": "uint256"
        }
      ],
      "stateMutability": "view",
      "type": "function"
    },
    {
      "inputs": [
        {
          "internalType": "address",
          "name": "owner",
          "type": "address"
        },
        {
          "internalType": "address",
          "name": "spender",
          "type": "address"
        },
        {
          "internalType": "uint256",
          "name": "value",
          "type": "uint256"
        },
        {
          "internalType": "uint256",
          "name": "deadline",
          "type": "uint256"
        },
        {
          "internalType": "uint8",
          "name": "v",
          "type": "uint8"
        },
        {
          "internalType": "bytes32",
          "name": "r",
          "type": "bytes32"
        },
        {
          "internalType": "bytes32",
          "name": "s",
          "type": "bytes32"
        }
      ],
      "name": "permit",
      "outputs": [],
      "stateMutability": "nonpayable",
      "type": "function"
    },
    {
      "inputs": [],
      "name": "proxiableUUID",
      "outputs": [
        {
          "internalType": "bytes32",
          "name": "",
          "type": "bytes32"
        }
      ],
      "stateMutability": "view",
      "type": "function"
    },
    {
      "inputs": [],
      "name": "symbol",
      "outputs": [
        {
          "internalType": "string",
          "name": "",
          "type": "string"
        }
      ],
      "stateMutability": "view",
      "type": "function"
    },
    {
      "inputs": [],
      "name": "totalSupply",
      "outputs": [
        {
          "internalType": "uint256",
          "name": "",
          "type": "uint256"
        }
      ],
      "stateMutability": "view",
      "type": "function"
    },
    {
      "inputs": [
        {
          "internalType": "address",
          "name": "to",
          "type": "address"
        },
        {
          "internalType": "uint256",
          "name": "amount",
          "type": "uint256"
        }
      ],
      "name": "transfer",
      "outputs": [
        {
          "internalType": "bool",
          "name": "",
          "type": "bool"
        }
      ],
      "stateMutability": "nonpayable",
      "type": "function"
    },
    {
      "inputs": [
        {
          "internalType": "address",
          "name": "from",
          "type": "address"
        },
        {
          "internalType": "address",
          "name": "to",
          "type": "address"
        },
        {
          "internalType": "uint256",
          "name": "amount",
          "type": "uint256"
        }
      ],
      "name": "transferFrom",
      "outputs": [
        {
          "internalType": "bool",
          "name": "",
          "type": "bool"
        }
      ],
      "stateMutability": "nonpayable",
      "type": "function"
    },
    {
      "inputs": [
        {
          "internalType": "address",
          "name": "newImplementation",
          "type": "address"
        }
      ],
      "name": "upgradeTo",
      "outputs": [],
      "stateMutability": "nonpayable",
      "type": "function"
    },
    {
      "inputs": [
        {
          "internalType": "address",
          "name": "newImplementation",
          "type": "address"
        },
        {
          "internalType": "bytes",
          "name": "data",
          "type": "bytes"
        }
      ],
      "name": "upgradeToAndCall",
      "outputs": [],
      "stateMutability": "payable",
      "type": "function"
    }
  ],
  "bytecode": "0x60a0604052306080523480156200001557600080fd5b506040516200240d3803806200240d833981016040819052620000389162000380565b6040805160208082018352600080835283519182019093529182529060036200006283826200047a565b5060046200007182826200047a565b5050506200008682826200009860201b60201c565b6200009062000120565b505062000546565b60075460ff1615620000f15760405162461bcd60e51b815260206004820152601360248201527f616c726561647920696e697469616c697a65640000000000000000000000000060448201526064015b60405180910390fd5b6007805460ff1916600117905560056200010c83826200047a565b5060066200011b82826200047a565b505050565b600754610100900461ffff16156200016e5760405162461bcd60e51b815260206004820152601060248201526f185b1c9958591e481d5c19dc9859195960821b6044820152606401620000e8565b6007805462ffff001916610100179055600580546200023d91906200019390620003ea565b80601f0160208091040260200160405190810160405280929190818152602001828054620001c190620003ea565b8015620002125780601f10620001e65761010080835404028352916020019162000212565b820191906000526020600020905b815481529060010190602001808311620001f457829003601f168201915b5050505050604051806040016040528060018152602001603160f81b8152506200023f60201b60201c565b565b7f4433daa742dbf1d9ef1ca283831944614879e423be777b51d57c60ed18a721007f4433daa742dbf1d9ef1ca283831944614879e423be777b51d57c60ed18a721026200028d84826200047a565b50600381016200029e83826200047a565b508251602093840120815581519190920120600190910155565b634e487b7160e01b600052604160045260246000fd5b600082601f830112620002e057600080fd5b81516001600160401b0380821115620002fd57620002fd620002b8565b604051601f8301601f19908116603f01168101908282118183101715620003285762000328620002b8565b81604052838152602092508660208588010111156200034657600080fd5b600091505b838210156200036a57858201830151818301840152908201906200034b565b6000602085830101528094505050505092915050565b600080604083850312156200039457600080fd5b82516001600160401b0380821115620003ac57600080fd5b620003ba86838701620002ce565b93506020850151915080821115620003d157600080fd5b50620003e085828601620002ce565b9150509250929050565b600181811c90821680620003ff57607f821691505b6020821081036200042057634e487b7160e01b600052602260045260246000fd5b50919050565b601f8211156200011b576000816000526020600020601f850160051c81016020861015620004515750805b601f850160051c820191505b8181101562000472578281556001016200045d565b505050505050565b81516001600160401b03811115620004965762000496620002b8565b620004ae81620004a78454620003ea565b8462000426565b602080601f831160018114620004e65760008415620004cd5750858301515b600019600386901b1c1916600185901b17855562000472565b600085815260208120601f198616915b828110156200051757888601518255948401946001909101908401620004f6565b5085821015620005365787850151600019600388901b60f8161c191681555b5050505050600190811b01905550565b608051611e8f6200057e600039600081816104b5015281816104fe015281816106380152818161067801526106fe0152611e8f6000f3fe60806040526004361061012a5760003560e01c80634f1ef286116100ab57806384b0196e1161006f57806384b0196e1461030f57806395d89b4114610337578063a457c2d71461034c578063a9059cbb1461036c578063d505accf1461038c578063dd62ed3e146103ac57600080fd5b80634f1ef2861461027c57806352d1902d1461028f5780636ea12150146102a457806370a08231146102b95780637ecebe00146102ef57600080fd5b80633644e515116100f25780633644e515146101e55780633659cfe6146101fa578063395093511461021c57806340c10f191461023c5780634cd88b761461025c57600080fd5b806306fdde031461012f578063095ea7b31461015a57806318160ddd1461018a57806323b872dd146101a9578063313ce567146101c9575b600080fd5b34801561013b57600080fd5b506101446103cc565b6040516101519190611873565b60405180910390f35b34801561016657600080fd5b5061017a6101753660046118a2565b61045e565b6040519015158152602001610151565b34801561019657600080fd5b506002545b604051908152602001610151565b3480156101b557600080fd5b5061017a6101c43660046118cc565b610478565b3480156101d557600080fd5b5060405160128152602001610151565b3480156101f157600080fd5b5061019b61049c565b34801561020657600080fd5b5061021a610215366004611908565b6104ab565b005b34801561022857600080fd5b5061017a6102373660046118a2565b61058a565b34801561024857600080fd5b5061021a6102573660046118a2565b6105ac565b34801561026857600080fd5b5061021a6102773660046119cf565b6105ba565b61021a61028a366004611a33565b61062e565b34801561029b57600080fd5b5061019b6106f1565b3480156102b057600080fd5b5061021a6107a4565b3480156102c557600080fd5b5061019b6102d4366004611908565b6001600160a01b031660009081526020819052604090205490565b3480156102fb57600080fd5b5061019b61030a366004611908565b6108b1565b34801561031b57600080fd5b506103246108ee565b6040516101519796959493929190611a8b565b34801561034357600080fd5b50610144610a8d565b34801561035857600080fd5b5061017a6103673660046118a2565b610a9c565b34801561037857600080fd5b5061017a6103873660046118a2565b610b17565b34801561039857600080fd5b5061021a6103a7366004611b24565b610b25565b3480156103b857600080fd5b5061019b6103c7366004611b97565b610c89565b6060600580546103db90611bca565b80601f016020809104026020016040519081016040528092919081815260200182805461040790611bca565b80156104545780601f1061042957610100808354040283529160200191610454565b820191906000526020600020905b81548152906001019060200180831161043757829003601f168201915b5050505050905090565b60003361046c818585610cb4565b60019150505b92915050565b600033610486858285610cbf565b610491858585610d39565b506001949350505050565b60006104a6610edd565b905090565b6001600160a01b037f00000000000000000000000000000000000000000000000000000000000000001630036104fc5760405162461bcd60e51b81526004016104f390611bfe565b60405180910390fd5b7f00000000000000000000000000000000000000000000000000000000000000006001600160a01b0316610545600080516020611e13833981519152546001600160a01b031690565b6001600160a01b03161461056b5760405162461bcd60e51b81526004016104f390611c4a565b6040805160008082526020820190925261058791839190610f71565b50565b60003361046c81858561059d8383610c89565b6105a79190611c96565b610cb4565b6105b682826110dc565b5050565b60075460ff16156106035760405162461bcd60e51b8152602060048201526013602482015272185b1c9958591e481a5b9a5d1a585b1a5e9959606a1b60448201526064016104f3565b6007805460ff19166001179055600561061c8382611d07565b5060066106298282611d07565b505050565b6001600160a01b037f00000000000000000000000000000000000000000000000000000000000000001630036106765760405162461bcd60e51b81526004016104f390611bfe565b7f00000000000000000000000000000000000000000000000000000000000000006001600160a01b03166106bf600080516020611e13833981519152546001600160a01b031690565b6001600160a01b0316146106e55760405162461bcd60e51b81526004016104f390611c4a565b6105b682826001610f71565b6000306001600160a01b037f000000000000000000000000000000000000000000000000000000000000000016146107915760405162461bcd60e51b815260206004820152603860248201527f555550535570677261646561626c653a206d757374206e6f742062652063616c60448201527f6c6564207468726f7567682064656c656761746563616c6c000000000000000060648201526084016104f3565b50600080516020611e1383398151915290565b600754610100900461ffff16156107f05760405162461bcd60e51b815260206004820152601060248201526f185b1c9958591e481d5c19dc9859195960821b60448201526064016104f3565b6007805462ffff001916610100179055600580546108af919061081290611bca565b80601f016020809104026020016040519081016040528092919081815260200182805461083e90611bca565b801561088b5780601f106108605761010080835404028352916020019161088b565b820191906000526020600020905b81548152906001019060200180831161086e57829003601f168201915b5050505050604051806040016040528060018152602001603160f81b81525061119b565b565b6001600160a01b03811660009081527f361beb44631d074062265988ad0b416453c05cfc27148633e5eff4da54187b006020526040812054610472565b600060608082808083817f4433daa742dbf1d9ef1ca283831944614879e423be777b51d57c60ed18a72100905060028101600382014630600080604051908082528060200260200182016040528015610951578160200160208202803683370190505b50600f60f81b95949392919085805461096990611bca565b80601f016020809104026020016040519081016040528092919081815260200182805461099590611bca565b80156109e25780601f106109b7576101008083540402835291602001916109e2565b820191906000526020600020905b8154815290600101906020018083116109c557829003601f168201915b505050505095508480546109f590611bca565b80601f0160208091040260200160405190810160405280929190818152602001828054610a2190611bca565b8015610a6e5780601f10610a4357610100808354040283529160200191610a6e565b820191906000526020600020905b815481529060010190602001808311610a5157829003601f168201915b5050505050945097509750975097509750975097505090919293949596565b6060600680546103db90611bca565b60003381610aaa8286610c89565b905083811015610b0a5760405162461bcd60e51b815260206004820152602560248201527f45524332303a2064656372656173656420616c6c6f77616e63652062656c6f77604482015264207a65726f60d81b60648201526084016104f3565b6104918286868403610cb4565b60003361046c818585610d39565b83421115610b755760405162461bcd60e51b815260206004820152601d60248201527f45524332305065726d69743a206578706972656420646561646c696e6500000060448201526064016104f3565b60007f6e71edae12b1b97f4d1f60370fef10105fa2faae0126114a169c64845d6126c9888888610ba48c611210565b6040805160208101969096526001600160a01b0394851690860152929091166060840152608083015260a082015260c0810186905260e0016040516020818303038152906040528051906020012090506000610bff82611257565b90506000610c0f82878787611284565b9050896001600160a01b0316816001600160a01b031614610c725760405162461bcd60e51b815260206004820152601e60248201527f45524332305065726d69743a20696e76616c6964207369676e6174757265000060448201526064016104f3565b610c7d8a8a8a610cb4565b50505050505050505050565b6001600160a01b03918216600090815260016020908152604080832093909416825291909152205490565b6106298383836112ae565b6000610ccb8484610c89565b90506000198114610d335781811015610d265760405162461bcd60e51b815260206004820152601d60248201527f45524332303a20696e73756666696369656e7420616c6c6f77616e636500000060448201526064016104f3565b610d338484848403610cb4565b50505050565b6001600160a01b038316610d9d5760405162461bcd60e51b815260206004820152602560248201527f45524332303a207472616e736665722066726f6d20746865207a65726f206164604482015264647265737360d81b60648201526084016104f3565b6001600160a01b038216610dff5760405162461bcd60e51b815260206004820152602360248201527f45524332303a207472616e7366657220746f20746865207a65726f206164647260448201526265737360e81b60648201526084016104f3565b6001600160a01b03831660009081526020819052604090205481811015610e775760405162461bcd60e51b815260206004820152602660248201527f45524332303a207472616e7366657220616d6f756e7420657863656564732062604482015265616c616e636560d01b60648201526084016104f3565b6001600160a01b03848116600081815260208181526040808320878703905593871680835291849020805487019055925185815290927fddf252ad1be2c89b69c2b068fc378daa952ba7f163c4a11628f55a4df523b3ef910160405180910390a3610d33565b60006104a66000807f4433daa742dbf1d9ef1ca283831944614879e423be777b51d57c60ed18a7210080546001820154604080517f8b73c3c69bb8fe3d512ecc4cf759cc79239f7b179b0ffacaa9a75d522b39400f60208201529081019290925260608201524660808201523060a082015290915060c0016040516020818303038152906040528051906020012091505090565b7f4910fdfa16fed3260ed0e7147f7cc6da11a60208b5b9406d12a635614ffd91435460ff1615610fa457610629836113d2565b826001600160a01b03166352d1902d6040518163ffffffff1660e01b8152600401602060405180830381865afa925050508015610ffe575060408051601f3d908101601f19168201909252610ffb91810190611dc7565b60015b6110615760405162461bcd60e51b815260206004820152602e60248201527f45524331393637557067726164653a206e657720696d706c656d656e7461746960448201526d6f6e206973206e6f74205555505360901b60648201526084016104f3565b600080516020611e1383398151915281146110d05760405162461bcd60e51b815260206004820152602960248201527f45524331393637557067726164653a20756e737570706f727465642070726f786044820152681a58589b195555525160ba1b60648201526084016104f3565b5061062983838361146e565b6001600160a01b0382166111325760405162461bcd60e51b815260206004820152601f60248201527f45524332303a206d696e7420746f20746865207a65726f20616464726573730060448201526064016104f3565b80600260008282546111449190611c96565b90915550506001600160a01b038216600081815260208181526040808320805486019055518481527fddf252ad1be2c89b69c2b068fc378daa952ba7f163c4a11628f55a4df523b3ef910160405180910390a35050565b7f4433daa742dbf1d9ef1ca283831944614879e423be777b51d57c60ed18a721007f4433daa742dbf1d9ef1ca283831944614879e423be777b51d57c60ed18a721026111e78482611d07565b50600381016111f68382611d07565b508251602093840120815581519190920120600190910155565b6001600160a01b03811660009081527f361beb44631d074062265988ad0b416453c05cfc27148633e5eff4da54187b00602052604090208054600181018255905b50919050565b6000610472611264610edd565b8360405161190160f01b8152600281019290925260228201526042902090565b600080600061129587878787611493565b915091506112a281611557565b5090505b949350505050565b6001600160a01b0383166113105760405162461bcd60e51b8152602060048201526024808201527f45524332303a20617070726f76652066726f6d20746865207a65726f206164646044820152637265737360e01b60648201526084016104f3565b6001600160a01b0382166113715760405162461bcd60e51b815260206004820152602260248201527f45524332303a20617070726f766520746f20746865207a65726f206164647265604482015261737360f01b60648201526084016104f3565b6001600160a01b0383811660008181526001602090815260408083209487168084529482529182902085905590518481527f8c5be1e5ebec7d5bd14f71427d1e84f3dd0314c0f7b2291e5b200ac8c7c3b925910160405180910390a3505050565b6001600160a01b0381163b61143f5760405162461bcd60e51b815260206004820152602d60248201527f455243313936373a206e657720696d706c656d656e746174696f6e206973206e60448201526c1bdd08184818dbdb9d1c9858dd609a1b60648201526084016104f3565b600080516020611e1383398151915280546001600160a01b0319166001600160a01b0392909216919091179055565b611477836116a1565b6000825111806114845750805b1561062957610d3383836116e1565b6000807f7fffffffffffffffffffffffffffffff5d576e7357a4501ddfe92f46681b20a08311156114ca575060009050600361154e565b6040805160008082526020820180845289905260ff881692820192909252606081018690526080810185905260019060a0016020604051602081039080840390855afa15801561151e573d6000803e3d6000fd5b5050604051601f1901519150506001600160a01b0381166115475760006001925092505061154e565b9150600090505b94509492505050565b600081600481111561156b5761156b611de0565b036115735750565b600181600481111561158757611587611de0565b036115d45760405162461bcd60e51b815260206004820152601860248201527f45434453413a20696e76616c6964207369676e6174757265000000000000000060448201526064016104f3565b60028160048111156115e8576115e8611de0565b036116355760405162461bcd60e51b815260206004820152601f60248201527f45434453413a20696e76616c6964207369676e6174757265206c656e6774680060448201526064016104f3565b600381600481111561164957611649611de0565b036105875760405162461bcd60e51b815260206004820152602260248201527f45434453413a20696e76616c6964207369676e6174757265202773272076616c604482015261756560f01b60648201526084016104f3565b6116aa816113d2565b6040516001600160a01b038216907fbc7cd75a20ee27fd9adebab32041f755214dbc6bffa90cc0225b39da2e5c2d3b90600090a250565b60606117068383604051806060016040528060278152602001611e336027913961170d565b9392505050565b6060600080856001600160a01b03168560405161172a9190611df6565b600060405180830381855af49150503d8060008114611765576040519150601f19603f3d011682016040523d82523d6000602084013e61176a565b606091505b509150915061177b86838387611785565b9695505050505050565b606083156117f45782516000036117ed576001600160a01b0385163b6117ed5760405162461bcd60e51b815260206004820152601d60248201527f416464726573733a2063616c6c20746f206e6f6e2d636f6e747261637400000060448201526064016104f3565b50816112a6565b6112a683838151156118095781518083602001fd5b8060405162461bcd60e51b81526004016104f39190611873565b60005b8381101561183e578181015183820152602001611826565b50506000910152565b6000815180845261185f816020860160208601611823565b601f01601f19169290920160200192915050565b6020815260006117066020830184611847565b80356001600160a01b038116811461189d57600080fd5b919050565b600080604083850312156118b557600080fd5b6118be83611886565b946020939093013593505050565b6000806000606084860312156118e157600080fd5b6118ea84611886565b92506118f860208501611886565b9150604084013590509250925092565b60006020828403121561191a57600080fd5b61170682611886565b634e487b7160e01b600052604160045260246000fd5b600067ffffffffffffffff8084111561195457611954611923565b604051601f8501601f19908116603f0116810190828211818310171561197c5761197c611923565b8160405280935085815286868601111561199557600080fd5b858560208301376000602087830101525050509392505050565b600082601f8301126119c057600080fd5b61170683833560208501611939565b600080604083850312156119e257600080fd5b823567ffffffffffffffff808211156119fa57600080fd5b611a06868387016119af565b93506020850135915080821115611a1c57600080fd5b50611a29858286016119af565b9150509250929050565b60008060408385031215611a4657600080fd5b611a4f83611886565b9150602083013567ffffffffffffffff811115611a6b57600080fd5b8301601f81018513611a7c57600080fd5b611a2985823560208401611939565b60ff60f81b881681526000602060e06020840152611aac60e084018a611847565b8381036040850152611abe818a611847565b606085018990526001600160a01b038816608086015260a0850187905284810360c08601528551808252602080880193509091019060005b81811015611b1257835183529284019291840191600101611af6565b50909c9b505050505050505050505050565b600080600080600080600060e0888a031215611b3f57600080fd5b611b4888611886565b9650611b5660208901611886565b95506040880135945060608801359350608088013560ff81168114611b7a57600080fd5b9699959850939692959460a0840135945060c09093013592915050565b60008060408385031215611baa57600080fd5b611bb383611886565b9150611bc160208401611886565b90509250929050565b600181811c90821680611bde57607f821691505b60208210810361125157634e487b7160e01b600052602260045260246000fd5b6020808252602c908201527f46756e6374696f6e206d7573742062652063616c6c6564207468726f7567682060408201526b19195b1959d85d1958d85b1b60a21b606082015260800190565b6020808252602c908201527f46756e6374696f6e206d7573742062652063616c6c6564207468726f7567682060408201526b6163746976652070726f787960a01b606082015260800190565b8082018082111561047257634e487b7160e01b600052601160045260246000fd5b601f821115610629576000816000526020600020601f850160051c81016020861015611ce05750805b601f850160051c820191505b81811015611cff57828155600101611cec565b505050505050565b815167ffffffffffffffff811115611d2157611d21611923565b611d3581611d2f8454611bca565b84611cb7565b602080601f831160018114611d6a5760008415611d525750858301515b600019600386901b1c1916600185901b178555611cff565b600085815260208120601f198616915b82811015611d9957888601518255948401946001909101908401611d7a565b5085821015611db75787850151600019600388901b60f8161c191681555b5050505050600190811b01905550565b600060208284031215611dd957600080fd5b5051919050565b634e487b7160e01b600052602160045260246000fd5b60008251611e08818460208701611823565b919091019291505056fe360894a13ba1a3210667c828492db98dca3e2076cc3735a920a3ca505d382bbc416464726573733a206c6f772d6c6576656c2064656c65676174652063616c6c206661696c6564a26469706673582212206c1c1031e5ceb9d61987f78c1ae8273f07609f1ff2eb881e051386ee8b80dedc64736f6c63430008170033",
  "linkReferences": {},
  "deployedLinkReferences": {}
}