{
  "_format": "hh-sol-artifact-1",
  "contractName": "AgentSettingsFacet",
  "sourceName": "contracts/assetManager/facets/AgentSettingsFacet.sol",
  "abi": [
    {
      "anonymous": false,
      "inputs": [
        {
          "indexed": true,
          "internalType": "address",
          "name": "agentVault",
          "type": "address"
        },
        {
          "indexed": false,
          "internalType": "string",
          "name": "name",
          "type": "string"
        },
        {
          "indexed": false,
          "internalType": "uint256",
          "name": "value",
          "type": "uint256"
        },
        {
          "indexed": false,
          "internalType": "uint256",
          "name": "validAt",
          "type": "uint256"
        }
      ],
      "name": "AgentSettingChangeAnnounced",
      "type": "event"
    },
    {
      "anonymous": false,
      "inputs": [
        {
          "indexed": true,
          "internalType": "address",
          "name": "agentVault",
          "type": "address"
        },
        {
          "indexed": false,
          "internalType": "string",
          "name": "name",
          "type": "string"
        },
        {
          "indexed": false,
          "internalType": "uint256",
          "name": "value",
          "type": "uint256"
        }
      ],
      "name": "AgentSettingChanged",
      "type": "event"
    },
    {
      "inputs": [
        {
          "internalType": "address",
          "name": "_agentVault",
          "type": "address"
        },
        {
          "internalType": "string",
          "name": "_name",
          "type": "string"
        },
        {
          "internalType": "uint256",
          "name": "_value",
          "type": "uint256"
        }
      ],
      "name": "announceAgentSettingUpdate",
      "outputs": [
        {
          "internalType": "uint256",
          "name": "_updateAllowedAt",
          "type": "uint256"
        }
      ],
      "stateMutability": "nonpayable",
      "type": "function"
    },
    {
      "inputs": [
        {
          "internalType": "address",
          "name": "_agentVault",
          "type": "address"
        },
        {
          "internalType": "string",
          "name": "_name",
          "type": "string"
        }
      ],
      "name": "executeAgentSettingUpdate",
      "outputs": [],
      "stateMutability": "nonpayable",
      "type": "function"
    },
    {
      "inputs": [
        {
          "internalType": "address",
          "name": "_agentVault",
          "type": "address"
        },
        {
          "internalType": "string",
          "name": "_name",
          "type": "string"
        }
      ],
      "name": "getAgentSetting",
      "outputs": [
        {
          "internalType": "uint256",
          "name": "",
          "type": "uint256"
        }
      ],
      "stateMutability": "view",
      "type": "function"
    }
  ],
  "bytecode": "0x608060405234801561001057600080fd5b50611917806100206000396000f3fe608060405234801561001057600080fd5b50600436106100415760003560e01c80630ffb0e8614610046578063b74cb9231461006b578063e7732f911461007e575b600080fd5b610059610054366004611592565b610093565b60405190815260200160405180910390f35b6100596100793660046115ea565b6100a8565b61009161008c3660046115ea565b6100bd565b005b60006100a08484846100cb565b949350505050565b60006100b483836101db565b90505b92915050565b6100c782826104f3565b5050565b6000806100d78561072b565b90506100e2856107d2565b60006100ed8561082c565b905060006100fa826109a3565b61010d906001600160401b03164261164f565b9050604051806040016040528061012387610ab6565b6001600160801b0316815260200161013a83610b23565b6001600160401b039081169091526000848152600b86016020908152604091829020845181549590920151909316600160801b026001600160c01b03199094166001600160801b0390911617929092179055516001600160a01b038816907f4d36a05405b72bb52f213501e39c8a9900eb28710aaa0b6e53e88ab243ca2965906101c9908990899086906116a8565b60405180910390a29695505050505050565b6000806101e78461072b565b905060006101f48461082c565b905060008051602061182283398151915281036102285750600401546901000000000000000000900461ffff1690506100b7565b6000805160206118028339815191528103610254575060040154600160581b900461ffff1690506100b7565b60008051602061188283398151915281036102805750600c0154600160e01b900461ffff1690506100b7565b6000805160206118a283398151915281036102ae575060040154600160681b900463ffffffff1690506100b7565b60008051602061186283398151915281036102dc575060040154600160881b900463ffffffff1690506100b7565b6000805160206118c283398151915281036103085750600a0154600160801b900461ffff1690506100b7565b7f50c491cb85c5de272af4bdee937deba8bfb8efc757876ce0671faf286198be9581036103ab57815460408051633cfc747d60e01b815290516001600160a01b0390921691633cfc747d916004808201926020929091908290030181865afa158015610378573d6000803e3d6000fd5b505050506040513d601f19601f8201168201806040525081019061039c91906116cd565b63ffffffff16925050506100b7565b7feb57753c1b4e94880186635dfc9185be51406a9179ca76e095563b00d9ef41d6810361041b5781546040805163b337929b60e01b815290516001600160a01b039092169163b337929b916004808201926020929091908290030181865afa158015610378573d6000803e3d6000fd5b7f98d367e8e159b82e76c08eb9e8367ae98bb11d65de64fdcde63c3a6a50e1756581036104bc57815460408051634a4ac2ef60e01b815290516001600160a01b0390921691634a4ac2ef916004808201926020929091908290030181865afa15801561048b573d6000803e3d6000fd5b505050506040513d601f19601f820116820180604052508101906104af91906116fa565b61ffff16925050506100b7565b60008051602061184283398151915281036104e35750600c015463ffffffff1690506100b7565b6104eb61171e565b505092915050565b60006104fe8361072b565b9050610509836107d2565b60006105148361082c565b6000818152600b840160205260408120805492935091600160801b90046001600160401b031690036105815760405162461bcd60e51b81526020600482015260116024820152706e6f2070656e64696e672075706461746560781b60448201526064015b60405180910390fd5b805442600160801b9091046001600160401b031611156105da5760405162461bcd60e51b81526020600482015260146024820152731d5c19185d19481b9bdd081d985b1a59081e595d60621b6044820152606401610578565b7f4f24f5c433db0962dac0d2c8b84197a6e6c7cc4e5d9ebe1916a1b6193da2f34d5481547f4f24f5c433db0962dac0d2c8b84197a6e6c7cc4e5d9ebe1916a1b6193da2f33a91429161064691600160c01b90046001600160401b0390811691600160801b900416611734565b6001600160401b0316101561069d5760405162461bcd60e51b815260206004820152601860248201527f757064617465206e6f742076616c696420616e796d6f726500000000000000006044820152606401610578565b81546106b590859085906001600160801b0316610b8b565b81546040516001600160a01b038816917f0c8289ce774814e3ace93acb646f85019ee4146198ebb4bdc93bcdbe6465b880916106fe9189916001600160801b0390911690611754565b60405180910390a250506000908152600b9091016020526040902080546001600160c01b03191690555050565b7f5bebac0595fee029d42bb673937f5f1cb81cf8641382bc17774635de9b7d796568010000000000000000600160e01b03604083901b161880600060048084015460ff169081111561077f5761077f61177f565b036107cc5760405162461bcd60e51b815260206004820152601b60248201527f696e76616c6964206167656e74207661756c74206164647265737300000000006044820152606401610578565b50919050565b6107e46107de8261072b565b33610d04565b6108295760405162461bcd60e51b815260206004820152601660248201527537b7363c9030b3b2b73a103b30bab63a1037bbb732b960511b6044820152606401610578565b50565b8051602082012060009081600080516020611822833981519152821480610860575060008051602061180283398151915282145b80610878575060008051602061188283398151915282145b8061089057506000805160206118a283398151915282145b806108a8575060008051602061186283398151915282145b806108c057506000805160206118c283398151915282145b806108ea57507f50c491cb85c5de272af4bdee937deba8bfb8efc757876ce0671faf286198be9582145b8061091457507feb57753c1b4e94880186635dfc9185be51406a9179ca76e095563b00d9ef41d682145b8061093e57507f98d367e8e159b82e76c08eb9e8367ae98bb11d65de64fdcde63c3a6a50e1756582145b80610956575060008051602061184283398151915282145b90508061099c5760405162461bcd60e51b8152602060048201526014602482015273696e76616c69642073657474696e67206e616d6560601b6044820152606401610578565b5092915050565b60007f4f24f5c433db0962dac0d2c8b84197a6e6c7cc4e5d9ebe1916a1b6193da2f33a6000805160206118228339815191528314806109ef575060008051602061180283398151915283145b80610a07575060008051602061188283398151915283145b80610a1f57506000805160206118c283398151915283145b80610a37575060008051602061184283398151915283145b15610a4f57601301546001600160401b031692915050565b6000805160206118a2833981519152831480610a78575060008051602061186283398151915283145b15610a9c57601301546801000000000000000090046001600160401b031692915050565b60130154600160801b90046001600160401b031692915050565b60006001600160801b03821115610b1f5760405162461bcd60e51b815260206004820152602760248201527f53616665436173743a2076616c756520646f65736e27742066697420696e20316044820152663238206269747360c81b6064820152608401610578565b5090565b60006001600160401b03821115610b1f5760405162461bcd60e51b815260206004820152602660248201527f53616665436173743a2076616c756520646f65736e27742066697420696e203660448201526534206269747360d01b6064820152608401610578565b6000805160206118228339815191528203610baf57610baa8382610dd5565b505050565b6000805160206118028339815191528203610bce57610baa8382610e41565b6000805160206118828339815191528203610bed57610baa8382610eaf565b6000805160206118a28339815191528203610c0c57610baa8382610f1d565b6000805160206118628339815191528203610c2b57610baa8382610fb5565b6000805160206118c28339815191528203610c4a57610baa838261104d565b7f50c491cb85c5de272af4bdee937deba8bfb8efc757876ce0671faf286198be958203610c7b57610baa8382611078565b7feb57753c1b4e94880186635dfc9185be51406a9179ca76e095563b00d9ef41d68203610cac57610baa8382611224565b7f98d367e8e159b82e76c08eb9e8367ae98bb11d65de64fdcde63c3a6a50e175658203610cdd57610baa83826112de565b6000805160206118428339815191528203610cfc57610baa838261133f565b610baa61171e565b60018201546000906001600160a01b039081169083168114806100a057507f4f24f5c433db0962dac0d2c8b84197a6e6c7cc4e5d9ebe1916a1b6193da2f341546001600160a01b0316604051631f86345d60e31b81526001600160a01b038381166004830152919091169063fc31a2e890602401602060405180830381865afa158015610d95573d6000803e3d6000fd5b505050506040513d601f19601f82011682018060405250810190610db99190611795565b6001600160a01b0316836001600160a01b031614949350505050565b612710811115610e165760405162461bcd60e51b815260206004820152600c60248201526b0cccaca40e8dede40d0d2ced60a31b6044820152606401610578565b610e1f81611369565b8260040160096101000a81548161ffff021916908361ffff1602179055505050565b612710811115610e845760405162461bcd60e51b815260206004820152600e60248201526d0ecc2d8eaca40e8dede40d0d2ced60931b6044820152606401610578565b610e8d81611369565b82600401600b6101000a81548161ffff021916908361ffff1602179055505050565b612710811115610ef25760405162461bcd60e51b815260206004820152600e60248201526d0ecc2d8eaca40e8dede40d0d2ced60931b6044820152606401610578565b610efb81611369565b82600c01601c6101000a81548161ffff021916908361ffff1602179055505050565b6000610f28836113cc565b600381015490915063ffffffff16821015610f855760405162461bcd60e51b815260206004820152601a60248201527f636f6c6c61746572616c20726174696f20746f6f20736d616c6c0000000000006044820152606401610578565b610f8e8261142b565b83600401600d6101000a81548163ffffffff021916908363ffffffff160217905550505050565b6000610fc083611490565b600381015490915063ffffffff1682101561101d5760405162461bcd60e51b815260206004820152601a60248201527f636f6c6c61746572616c20726174696f20746f6f20736d616c6c0000000000006044820152606401610578565b6110268261142b565b8360040160116101000a81548163ffffffff021916908363ffffffff160217905550505050565b61105681611369565b82600a0160106101000a81548161ffff021916908361ffff1602179055505050565b600061108383611490565b600381015490915063ffffffff16808310156110d15760405162461bcd60e51b815260206004820152600d60248201526c76616c756520746f6f206c6f7760981b6044820152606401610578565b835460408051633cfc747d60e01b815290516000926001600160a01b031691633cfc747d9160048083019260209291908290030181865afa15801561111a573d6000803e3d6000fd5b505050506040513d601f19601f8201168201806040525081019061113e91906116cd565b63ffffffff16905060026111538260036117b2565b61115d91906117c9565b841115806111815750600a61117383600c6117b2565b61117d91906117c9565b8411155b6111c05760405162461bcd60e51b815260206004820152601060248201526f696e63726561736520746f6f2062696760801b6044820152606401610578565b8454604051630f0f739560e31b8152600481018690526001600160a01b039091169063787b9ca890602401600060405180830381600087803b15801561120557600080fd5b505af1158015611219573d6000803e3d6000fd5b505050505050505050565b600061122f83611490565b600381015490915063ffffffff1682101561127c5760405162461bcd60e51b815260206004820152600d60248201526c76616c756520746f6f206c6f7760981b6044820152606401610578565b825460405163444c2e6b60e11b8152600481018490526001600160a01b03909116906388985cd690602401600060405180830381600087803b1580156112c157600080fd5b505af11580156112d5573d6000803e3d6000fd5b50505050505050565b8154604051634d2123f360e11b8152600481018390526001600160a01b0390911690639a4247e690602401600060405180830381600087803b15801561132357600080fd5b505af1158015611337573d6000803e3d6000fd5b505050505050565b6113488161142b565b600c92909201805463ffffffff191663ffffffff9093169290921790915550565b600061ffff821115610b1f5760405162461bcd60e51b815260206004820152602660248201527f53616665436173743a2076616c756520646f65736e27742066697420696e203160448201526536206269747360d01b6064820152608401610578565b6000807fec7e8c1c441439dd40959777f4c577ea0cd42fcc1dbe59d2bd0f5d9c55df8db660048401548154919250829161010090910461ffff16908110611415576114156117eb565b9060005260206000209060040201915050919050565b600063ffffffff821115610b1f5760405162461bcd60e51b815260206004820152602660248201527f53616665436173743a2076616c756520646f65736e27742066697420696e203360448201526532206269747360d01b6064820152608401610578565b6000807fec7e8c1c441439dd40959777f4c577ea0cd42fcc1dbe59d2bd0f5d9c55df8db6600484015481549192508291630100000090910461ffff16908110611415576114156117eb565b6001600160a01b038116811461082957600080fd5b634e487b7160e01b600052604160045260246000fd5b600082601f83011261151757600080fd5b81356001600160401b0380821115611531576115316114f0565b604051601f8301601f19908116603f01168101908282118183101715611559576115596114f0565b8160405283815286602085880101111561157257600080fd5b836020870160208301376000602085830101528094505050505092915050565b6000806000606084860312156115a757600080fd5b83356115b2816114db565b925060208401356001600160401b038111156115cd57600080fd5b6115d986828701611506565b925050604084013590509250925092565b600080604083850312156115fd57600080fd5b8235611608816114db565b915060208301356001600160401b0381111561162357600080fd5b61162f85828601611506565b9150509250929050565b634e487b7160e01b600052601160045260246000fd5b808201808211156100b7576100b7611639565b6000815180845260005b818110156116885760208185018101518683018201520161166c565b506000602082860101526020601f19601f83011685010191505092915050565b6060815260006116bb6060830186611662565b60208301949094525060400152919050565b6000602082840312156116df57600080fd5b815163ffffffff811681146116f357600080fd5b9392505050565b60006020828403121561170c57600080fd5b815161ffff811681146116f357600080fd5b634e487b7160e01b600052600160045260246000fd5b6001600160401b0381811683821601908082111561099c5761099c611639565b6040815260006117676040830185611662565b90506001600160801b03831660208301529392505050565b634e487b7160e01b600052602160045260246000fd5b6000602082840312156117a757600080fd5b81516116f3816114db565b80820281158282048414176100b7576100b7611639565b6000826117e657634e487b7160e01b600052601260045260246000fd5b500490565b634e487b7160e01b600052603260045260246000fdfee0243e58c76a12071b4a375d5f283eaf01d6025bbabcdabd4ca2d0d3f67c5e3287971da2ffd60f015ef85ead0fa62169ee9c342d8f1db03babee919d33ccf81988c9c5a9542135d89e93b19972c3c03dc735891e5c01c49b7bf7f869ba18b1bd061115fe294a09236be45875a15a7800403f95fde525547c9662b92a6359932e1eb84f0e555ab7d88fd7243f3853898f7c3c98ed4c0285667956c327a2f2d170381f724f6ecd2a24d4a619016614db98defae86152186d60beff19b685ea2b5a9aea190d2b3dd7d1d8e8d055952c2e9923c067928667db7f47b1f818b830cba4a2646970667358221220532d39f96ea5beb8e9c421b72c79d62084d6d866a7435f3a20cdc26a8552694264736f6c63430008170033",
  "linkReferences": {},
  "deployedLinkReferences": {}
}