{
  "_format": "hh-sol-artifact-1",
  "contractName": "AgentSettingsFacet",
  "sourceName": "contracts/assetManager/facets/AgentSettingsFacet.sol",
  "abi": [
    {
      "anonymous": false,
      "inputs": [
        {
          "indexed": true,
          "internalType": "address",
          "name": "agentVault",
          "type": "address"
        },
        {
          "indexed": false,
          "internalType": "string",
          "name": "name",
          "type": "string"
        },
        {
          "indexed": false,
          "internalType": "uint256",
          "name": "value",
          "type": "uint256"
        },
        {
          "indexed": false,
          "internalType": "uint256",
          "name": "validAt",
          "type": "uint256"
        }
      ],
      "name": "AgentSettingChangeAnnounced",
      "type": "event"
    },
    {
      "anonymous": false,
      "inputs": [
        {
          "indexed": true,
          "internalType": "address",
          "name": "agentVault",
          "type": "address"
        },
        {
          "indexed": false,
          "internalType": "string",
          "name": "name",
          "type": "string"
        },
        {
          "indexed": false,
          "internalType": "uint256",
          "name": "value",
          "type": "uint256"
        }
      ],
      "name": "AgentSettingChanged",
      "type": "event"
    },
    {
      "inputs": [
        {
          "internalType": "address",
          "name": "_agentVault",
          "type": "address"
        },
        {
          "internalType": "string",
          "name": "_name",
          "type": "string"
        },
        {
          "internalType": "uint256",
          "name": "_value",
          "type": "uint256"
        }
      ],
      "name": "announceAgentSettingUpdate",
      "outputs": [
        {
          "internalType": "uint256",
          "name": "_updateAllowedAt",
          "type": "uint256"
        }
      ],
      "stateMutability": "nonpayable",
      "type": "function"
    },
    {
      "inputs": [
        {
          "internalType": "address",
          "name": "_agentVault",
          "type": "address"
        },
        {
          "internalType": "string",
          "name": "_name",
          "type": "string"
        }
      ],
      "name": "executeAgentSettingUpdate",
      "outputs": [],
      "stateMutability": "nonpayable",
      "type": "function"
    }
  ],
  "bytecode": "0x608060405234801561001057600080fd5b506114af806100206000396000f3fe608060405234801561001057600080fd5b50600436106100365760003560e01c80630ffb0e861461003b578063e7732f9114610060575b600080fd5b61004e610049366004611235565b610075565b60405190815260200160405180910390f35b61007361006e36600461128d565b61008a565b005b6000610082848484610098565b949350505050565b61009482826101a8565b5050565b6000806100a4856103e0565b90506100af85610487565b60006100ba856104e1565b905060006100c782610682565b6100da906001600160401b0316426112f2565b905060405180604001604052806100f0876107bf565b6001600160801b031681526020016101078361082c565b6001600160401b039081169091526000848152600b86016020908152604091829020845181549590920151909316600160801b026001600160c01b03199094166001600160801b0390911617929092179055516001600160a01b038816907f4d36a05405b72bb52f213501e39c8a9900eb28710aaa0b6e53e88ab243ca2965906101969089908990869061134b565b60405180910390a29695505050505050565b60006101b3836103e0565b90506101be83610487565b60006101c9836104e1565b6000818152600b840160205260408120805492935091600160801b90046001600160401b031690036102365760405162461bcd60e51b81526020600482015260116024820152706e6f2070656e64696e672075706461746560781b60448201526064015b60405180910390fd5b805442600160801b9091046001600160401b0316111561028f5760405162461bcd60e51b81526020600482015260146024820152731d5c19185d19481b9bdd081d985b1a59081e595d60621b604482015260640161022d565b7f4f24f5c433db0962dac0d2c8b84197a6e6c7cc4e5d9ebe1916a1b6193da2f34d5481547f4f24f5c433db0962dac0d2c8b84197a6e6c7cc4e5d9ebe1916a1b6193da2f33a9142916102fb91600160c01b90046001600160401b0390811691600160801b900416611370565b6001600160401b031610156103525760405162461bcd60e51b815260206004820152601860248201527f757064617465206e6f742076616c696420616e796d6f72650000000000000000604482015260640161022d565b815461036a90859085906001600160801b0316610894565b81546040516001600160a01b038816917f0c8289ce774814e3ace93acb646f85019ee4146198ebb4bdc93bcdbe6465b880916103b39189916001600160801b0390911690611390565b60405180910390a250506000908152600b9091016020526040902080546001600160c01b03191690555050565b7f5bebac0595fee029d42bb673937f5f1cb81cf8641382bc17774635de9b7d796568010000000000000000600160e01b03604083901b161880600060048084015460ff1690811115610434576104346113bb565b036104815760405162461bcd60e51b815260206004820152601b60248201527f696e76616c6964206167656e74207661756c7420616464726573730000000000604482015260640161022d565b50919050565b610499610493826103e0565b33610a29565b6104de5760405162461bcd60e51b815260206004820152601660248201527537b7363c9030b3b2b73a103b30bab63a1037bbb732b960511b604482015260640161022d565b50565b80516020820120600090817f87971da2ffd60f015ef85ead0fa62169ee9c342d8f1db03babee919d33ccf81982148061053957507fe0243e58c76a12071b4a375d5f283eaf01d6025bbabcdabd4ca2d0d3f67c5e3282145b8061056357507f381f724f6ecd2a24d4a619016614db98defae86152186d60beff19b685ea2b5a82145b8061058d57507f061115fe294a09236be45875a15a7800403f95fde525547c9662b92a6359932e82145b806105b757507f9aea190d2b3dd7d1d8e8d055952c2e9923c067928667db7f47b1f818b830cba482145b806105e157507f50c491cb85c5de272af4bdee937deba8bfb8efc757876ce0671faf286198be9582145b8061060b57507feb57753c1b4e94880186635dfc9185be51406a9179ca76e095563b00d9ef41d682145b8061063557507f98d367e8e159b82e76c08eb9e8367ae98bb11d65de64fdcde63c3a6a50e1756582145b90508061067b5760405162461bcd60e51b8152602060048201526014602482015273696e76616c69642073657474696e67206e616d6560601b604482015260640161022d565b5092915050565b60007f4f24f5c433db0962dac0d2c8b84197a6e6c7cc4e5d9ebe1916a1b6193da2f33a7f87971da2ffd60f015ef85ead0fa62169ee9c342d8f1db03babee919d33ccf8198314806106f257507fe0243e58c76a12071b4a375d5f283eaf01d6025bbabcdabd4ca2d0d3f67c5e3283145b8061071c57507f9aea190d2b3dd7d1d8e8d055952c2e9923c067928667db7f47b1f818b830cba483145b1561073457601301546001600160401b031692915050565b7f381f724f6ecd2a24d4a619016614db98defae86152186d60beff19b685ea2b5a83148061078157507f061115fe294a09236be45875a15a7800403f95fde525547c9662b92a6359932e83145b156107a557601301546801000000000000000090046001600160401b031692915050565b60130154600160801b90046001600160401b031692915050565b60006001600160801b038211156108285760405162461bcd60e51b815260206004820152602760248201527f53616665436173743a2076616c756520646f65736e27742066697420696e20316044820152663238206269747360c81b606482015260840161022d565b5090565b60006001600160401b038211156108285760405162461bcd60e51b815260206004820152602660248201527f53616665436173743a2076616c756520646f65736e27742066697420696e203660448201526534206269747360d01b606482015260840161022d565b7f87971da2ffd60f015ef85ead0fa62169ee9c342d8f1db03babee919d33ccf81982036108ca576108c58382610afd565b505050565b7fe0243e58c76a12071b4a375d5f283eaf01d6025bbabcdabd4ca2d0d3f67c5e3282036108fb576108c58382610b68565b7f381f724f6ecd2a24d4a619016614db98defae86152186d60beff19b685ea2b5a820361092c576108c58382610bd5565b7f061115fe294a09236be45875a15a7800403f95fde525547c9662b92a6359932e820361095d576108c58382610c6d565b7f9aea190d2b3dd7d1d8e8d055952c2e9923c067928667db7f47b1f818b830cba4820361098e576108c58382610d05565b7f50c491cb85c5de272af4bdee937deba8bfb8efc757876ce0671faf286198be9582036109bf576108c58382610d30565b7feb57753c1b4e94880186635dfc9185be51406a9179ca76e095563b00d9ef41d682036109f0576108c58382610ed9565b7f98d367e8e159b82e76c08eb9e8367ae98bb11d65de64fdcde63c3a6a50e175658203610a21576108c58382610f93565b6108c56113d1565b60018201546000906001600160a01b03908116908316811480610af357507f4f24f5c433db0962dac0d2c8b84197a6e6c7cc4e5d9ebe1916a1b6193da2f341546001600160a01b0316604051631f86345d60e31b81526001600160a01b038381166004830152919091169063fc31a2e890602401602060405180830381865afa158015610aba573d6000803e3d6000fd5b505050506040513d601f19601f82011682018060405250810190610ade91906113e7565b6001600160a01b0316836001600160a01b0316145b9150505b92915050565b6127108110610b3d5760405162461bcd60e51b815260206004820152600c60248201526b0cccaca40e8dede40d0d2ced60a31b604482015260640161022d565b610b4681610ff4565b8260040160096101000a81548161ffff021916908361ffff1602179055505050565b6127108110610baa5760405162461bcd60e51b815260206004820152600e60248201526d0ecc2d8eaca40e8dede40d0d2ced60931b604482015260640161022d565b610bb381610ff4565b82600401600b6101000a81548161ffff021916908361ffff1602179055505050565b6000610be083611057565b600381015490915063ffffffff16821015610c3d5760405162461bcd60e51b815260206004820152601a60248201527f636f6c6c61746572616c20726174696f20746f6f20736d616c6c000000000000604482015260640161022d565b610c46826110b6565b83600401600d6101000a81548163ffffffff021916908363ffffffff160217905550505050565b6000610c788361111b565b600381015490915063ffffffff16821015610cd55760405162461bcd60e51b815260206004820152601a60248201527f636f6c6c61746572616c20726174696f20746f6f20736d616c6c000000000000604482015260640161022d565b610cde826110b6565b8360040160116101000a81548163ffffffff021916908363ffffffff160217905550505050565b610d0e81610ff4565b82600a0160106101000a81548161ffff021916908361ffff1602179055505050565b6000610d3b8361111b565b60048401546003820154919250600091610d659163ffffffff600160881b90910481169116611166565b905080831015610da75760405162461bcd60e51b815260206004820152600d60248201526c76616c756520746f6f206c6f7760981b604482015260640161022d565b835460408051633cfc747d60e01b815290516000926001600160a01b031691633cfc747d9160048083019260209291908290030181865afa158015610df0573d6000803e3d6000fd5b505050506040513d601f19601f82011682018060405250810190610e149190611404565b63ffffffff1690506002610e2982600361142a565b610e339190611441565b841115610e755760405162461bcd60e51b815260206004820152601060248201526f696e63726561736520746f6f2062696760801b604482015260640161022d565b8454604051630f0f739560e31b8152600481018690526001600160a01b039091169063787b9ca890602401600060405180830381600087803b158015610eba57600080fd5b505af1158015610ece573d6000803e3d6000fd5b505050505050505050565b6000610ee48361111b565b600381015490915063ffffffff16821015610f315760405162461bcd60e51b815260206004820152600d60248201526c76616c756520746f6f206c6f7760981b604482015260640161022d565b825460405163444c2e6b60e11b8152600481018490526001600160a01b03909116906388985cd690602401600060405180830381600087803b158015610f7657600080fd5b505af1158015610f8a573d6000803e3d6000fd5b50505050505050565b8154604051634d2123f360e11b8152600481018390526001600160a01b0390911690639a4247e690602401600060405180830381600087803b158015610fd857600080fd5b505af1158015610fec573d6000803e3d6000fd5b505050505050565b600061ffff8211156108285760405162461bcd60e51b815260206004820152602660248201527f53616665436173743a2076616c756520646f65736e27742066697420696e203160448201526536206269747360d01b606482015260840161022d565b6000807fec7e8c1c441439dd40959777f4c577ea0cd42fcc1dbe59d2bd0f5d9c55df8db660048401548154919250829161010090910461ffff169081106110a0576110a0611463565b9060005260206000209060040201915050919050565b600063ffffffff8211156108285760405162461bcd60e51b815260206004820152602660248201527f53616665436173743a2076616c756520646f65736e27742066697420696e203360448201526532206269747360d01b606482015260840161022d565b6000807fec7e8c1c441439dd40959777f4c577ea0cd42fcc1dbe59d2bd0f5d9c55df8db6600484015481549192508291630100000090910461ffff169081106110a0576110a0611463565b60008183116111755781611177565b825b9392505050565b6001600160a01b03811681146104de57600080fd5b634e487b7160e01b600052604160045260246000fd5b600082601f8301126111ba57600080fd5b81356001600160401b03808211156111d4576111d4611193565b604051601f8301601f19908116603f011681019082821181831017156111fc576111fc611193565b8160405283815286602085880101111561121557600080fd5b836020870160208301376000602085830101528094505050505092915050565b60008060006060848603121561124a57600080fd5b83356112558161117e565b925060208401356001600160401b0381111561127057600080fd5b61127c868287016111a9565b925050604084013590509250925092565b600080604083850312156112a057600080fd5b82356112ab8161117e565b915060208301356001600160401b038111156112c657600080fd5b6112d2858286016111a9565b9150509250929050565b634e487b7160e01b600052601160045260246000fd5b80820180821115610af757610af76112dc565b6000815180845260005b8181101561132b5760208185018101518683018201520161130f565b506000602082860101526020601f19601f83011685010191505092915050565b60608152600061135e6060830186611305565b60208301949094525060400152919050565b6001600160401b0381811683821601908082111561067b5761067b6112dc565b6040815260006113a36040830185611305565b90506001600160801b03831660208301529392505050565b634e487b7160e01b600052602160045260246000fd5b634e487b7160e01b600052600160045260246000fd5b6000602082840312156113f957600080fd5b81516111778161117e565b60006020828403121561141657600080fd5b815163ffffffff8116811461117757600080fd5b8082028115828204841417610af757610af76112dc565b60008261145e57634e487b7160e01b600052601260045260246000fd5b500490565b634e487b7160e01b600052603260045260246000fdfea264697066735822122002127f7963e2dd872883a4b8fc6927e257e13514197d1c7947ebb42335727dc564736f6c63430008170033",
  "linkReferences": {},
  "deployedLinkReferences": {}
}