{
  "_format": "hh-sol-artifact-1",
  "contractName": "SCProofVerifier",
  "sourceName": "contracts/stateConnector/implementation/SCProofVerifier.sol",
  "abi": [
    {
      "inputs": [
        {
          "internalType": "contract IMerkleRootStorage",
          "name": "_merkleRootStorage",
          "type": "address"
        }
      ],
      "stateMutability": "nonpayable",
      "type": "constructor"
    },
    {
      "inputs": [],
      "name": "merkleRootStorage",
      "outputs": [
        {
          "internalType": "contract IMerkleRootStorage",
          "name": "",
          "type": "address"
        }
      ],
      "stateMutability": "view",
      "type": "function"
    },
    {
      "inputs": [
        {
          "components": [
            {
              "internalType": "bytes32[]",
              "name": "merkleProof",
              "type": "bytes32[]"
            },
            {
              "components": [
                {
                  "internalType": "bytes32",
                  "name": "attestationType",
                  "type": "bytes32"
                },
                {
                  "internalType": "bytes32",
                  "name": "sourceId",
                  "type": "bytes32"
                },
                {
                  "internalType": "uint64",
                  "name": "votingRound",
                  "type": "uint64"
                },
                {
                  "internalType": "uint64",
                  "name": "lowestUsedTimestamp",
                  "type": "uint64"
                },
                {
                  "components": [
                    {
                      "internalType": "bytes32",
                      "name": "transactionId",
                      "type": "bytes32"
                    },
                    {
                      "internalType": "bytes32",
                      "name": "sourceAddressIndicator",
                      "type": "bytes32"
                    }
                  ],
                  "internalType": "struct BalanceDecreasingTransaction.RequestBody",
                  "name": "requestBody",
                  "type": "tuple"
                },
                {
                  "components": [
                    {
                      "internalType": "uint64",
                      "name": "blockNumber",
                      "type": "uint64"
                    },
                    {
                      "internalType": "uint64",
                      "name": "blockTimestamp",
                      "type": "uint64"
                    },
                    {
                      "internalType": "bytes32",
                      "name": "sourceAddressHash",
                      "type": "bytes32"
                    },
                    {
                      "internalType": "int256",
                      "name": "spentAmount",
                      "type": "int256"
                    },
                    {
                      "internalType": "bytes32",
                      "name": "standardPaymentReference",
                      "type": "bytes32"
                    }
                  ],
                  "internalType": "struct BalanceDecreasingTransaction.ResponseBody",
                  "name": "responseBody",
                  "type": "tuple"
                }
              ],
              "internalType": "struct BalanceDecreasingTransaction.Response",
              "name": "data",
              "type": "tuple"
            }
          ],
          "internalType": "struct BalanceDecreasingTransaction.Proof",
          "name": "_proof",
          "type": "tuple"
        }
      ],
      "name": "verifyBalanceDecreasingTransaction",
      "outputs": [
        {
          "internalType": "bool",
          "name": "_proved",
          "type": "bool"
        }
      ],
      "stateMutability": "view",
      "type": "function"
    },
    {
      "inputs": [
        {
          "components": [
            {
              "internalType": "bytes32[]",
              "name": "merkleProof",
              "type": "bytes32[]"
            },
            {
              "components": [
                {
                  "internalType": "bytes32",
                  "name": "attestationType",
                  "type": "bytes32"
                },
                {
                  "internalType": "bytes32",
                  "name": "sourceId",
                  "type": "bytes32"
                },
                {
                  "internalType": "uint64",
                  "name": "votingRound",
                  "type": "uint64"
                },
                {
                  "internalType": "uint64",
                  "name": "lowestUsedTimestamp",
                  "type": "uint64"
                },
                {
                  "components": [
                    {
                      "internalType": "uint64",
                      "name": "blockNumber",
                      "type": "uint64"
                    },
                    {
                      "internalType": "uint64",
                      "name": "queryWindow",
                      "type": "uint64"
                    }
                  ],
                  "internalType": "struct ConfirmedBlockHeightExists.RequestBody",
                  "name": "requestBody",
                  "type": "tuple"
                },
                {
                  "components": [
                    {
                      "internalType": "uint64",
                      "name": "blockTimestamp",
                      "type": "uint64"
                    },
                    {
                      "internalType": "uint64",
                      "name": "numberOfConfirmations",
                      "type": "uint64"
                    },
                    {
                      "internalType": "uint64",
                      "name": "lowestQueryWindowBlockNumber",
                      "type": "uint64"
                    },
                    {
                      "internalType": "uint64",
                      "name": "lowestQueryWindowBlockTimestamp",
                      "type": "uint64"
                    }
                  ],
                  "internalType": "struct ConfirmedBlockHeightExists.ResponseBody",
                  "name": "responseBody",
                  "type": "tuple"
                }
              ],
              "internalType": "struct ConfirmedBlockHeightExists.Response",
              "name": "data",
              "type": "tuple"
            }
          ],
          "internalType": "struct ConfirmedBlockHeightExists.Proof",
          "name": "_proof",
          "type": "tuple"
        }
      ],
      "name": "verifyConfirmedBlockHeightExists",
      "outputs": [
        {
          "internalType": "bool",
          "name": "_proved",
          "type": "bool"
        }
      ],
      "stateMutability": "view",
      "type": "function"
    },
    {
      "inputs": [
        {
          "components": [
            {
              "internalType": "bytes32[]",
              "name": "merkleProof",
              "type": "bytes32[]"
            },
            {
              "components": [
                {
                  "internalType": "bytes32",
                  "name": "attestationType",
                  "type": "bytes32"
                },
                {
                  "internalType": "bytes32",
                  "name": "sourceId",
                  "type": "bytes32"
                },
                {
                  "internalType": "uint64",
                  "name": "votingRound",
                  "type": "uint64"
                },
                {
                  "internalType": "uint64",
                  "name": "lowestUsedTimestamp",
                  "type": "uint64"
                },
                {
                  "components": [
                    {
                      "internalType": "bytes32",
                      "name": "transactionId",
                      "type": "bytes32"
                    },
                    {
                      "internalType": "uint256",
                      "name": "inUtxo",
                      "type": "uint256"
                    },
                    {
                      "internalType": "uint256",
                      "name": "utxo",
                      "type": "uint256"
                    }
                  ],
                  "internalType": "struct Payment.RequestBody",
                  "name": "requestBody",
                  "type": "tuple"
                },
                {
                  "components": [
                    {
                      "internalType": "uint64",
                      "name": "blockNumber",
                      "type": "uint64"
                    },
                    {
                      "internalType": "uint64",
                      "name": "blockTimestamp",
                      "type": "uint64"
                    },
                    {
                      "internalType": "bytes32",
                      "name": "sourceAddressHash",
                      "type": "bytes32"
                    },
                    {
                      "internalType": "bytes32",
                      "name": "receivingAddressHash",
                      "type": "bytes32"
                    },
                    {
                      "internalType": "bytes32",
                      "name": "intendedReceivingAddressHash",
                      "type": "bytes32"
                    },
                    {
                      "internalType": "int256",
                      "name": "spentAmount",
                      "type": "int256"
                    },
                    {
                      "internalType": "int256",
                      "name": "intendedSpentAmount",
                      "type": "int256"
                    },
                    {
                      "internalType": "int256",
                      "name": "receivedAmount",
                      "type": "int256"
                    },
                    {
                      "internalType": "int256",
                      "name": "intendedReceivedAmount",
                      "type": "int256"
                    },
                    {
                      "internalType": "bytes32",
                      "name": "standardPaymentReference",
                      "type": "bytes32"
                    },
                    {
                      "internalType": "bool",
                      "name": "oneToOne",
                      "type": "bool"
                    },
                    {
                      "internalType": "uint8",
                      "name": "status",
                      "type": "uint8"
                    }
                  ],
                  "internalType": "struct Payment.ResponseBody",
                  "name": "responseBody",
                  "type": "tuple"
                }
              ],
              "internalType": "struct Payment.Response",
              "name": "data",
              "type": "tuple"
            }
          ],
          "internalType": "struct Payment.Proof",
          "name": "_proof",
          "type": "tuple"
        }
      ],
      "name": "verifyPayment",
      "outputs": [
        {
          "internalType": "bool",
          "name": "_proved",
          "type": "bool"
        }
      ],
      "stateMutability": "view",
      "type": "function"
    },
    {
      "inputs": [
        {
          "components": [
            {
              "internalType": "bytes32[]",
              "name": "merkleProof",
              "type": "bytes32[]"
            },
            {
              "components": [
                {
                  "internalType": "bytes32",
                  "name": "attestationType",
                  "type": "bytes32"
                },
                {
                  "internalType": "bytes32",
                  "name": "sourceId",
                  "type": "bytes32"
                },
                {
                  "internalType": "uint64",
                  "name": "votingRound",
                  "type": "uint64"
                },
                {
                  "internalType": "uint64",
                  "name": "lowestUsedTimestamp",
                  "type": "uint64"
                },
                {
                  "components": [
                    {
                      "internalType": "uint64",
                      "name": "minimalBlockNumber",
                      "type": "uint64"
                    },
                    {
                      "internalType": "uint64",
                      "name": "deadlineBlockNumber",
                      "type": "uint64"
                    },
                    {
                      "internalType": "uint64",
                      "name": "deadlineTimestamp",
                      "type": "uint64"
                    },
                    {
                      "internalType": "bytes32",
                      "name": "destinationAddressHash",
                      "type": "bytes32"
                    },
                    {
                      "internalType": "uint256",
                      "name": "amount",
                      "type": "uint256"
                    },
                    {
                      "internalType": "bytes32",
                      "name": "standardPaymentReference",
                      "type": "bytes32"
                    }
                  ],
                  "internalType": "struct ReferencedPaymentNonexistence.RequestBody",
                  "name": "requestBody",
                  "type": "tuple"
                },
                {
                  "components": [
                    {
                      "internalType": "uint64",
                      "name": "minimalBlockTimestamp",
                      "type": "uint64"
                    },
                    {
                      "internalType": "uint64",
                      "name": "firstOverflowBlockNumber",
                      "type": "uint64"
                    },
                    {
                      "internalType": "uint64",
                      "name": "firstOverflowBlockTimestamp",
                      "type": "uint64"
                    }
                  ],
                  "internalType": "struct ReferencedPaymentNonexistence.ResponseBody",
                  "name": "responseBody",
                  "type": "tuple"
                }
              ],
              "internalType": "struct ReferencedPaymentNonexistence.Response",
              "name": "data",
              "type": "tuple"
            }
          ],
          "internalType": "struct ReferencedPaymentNonexistence.Proof",
          "name": "_proof",
          "type": "tuple"
        }
      ],
      "name": "verifyReferencedPaymentNonexistence",
      "outputs": [
        {
          "internalType": "bool",
          "name": "_proved",
          "type": "bool"
        }
      ],
      "stateMutability": "view",
      "type": "function"
    }
  ],
  "bytecode": "0x60a060405234801561001057600080fd5b50604051610b0b380380610b0b83398101604081905261002f91610040565b6001600160a01b0316608052610070565b60006020828403121561005257600080fd5b81516001600160a01b038116811461006957600080fd5b9392505050565b608051610a656100a660003960008181609c0152818161010b015281816101fc015281816102bc015261037c0152610a656000f3fe608060405234801561001057600080fd5b50600436106100575760003560e01c80635e30ebfb1461005c5780636ec659c71461008457806377387b30146100975780638cc386ce146100d6578063be4b1ed8146100e9575b600080fd5b61006f61006a3660046104c3565b6100fc565b60405190151581526020015b60405180910390f35b61006f6100923660046104fe565b6101ed565b6100be7f000000000000000000000000000000000000000000000000000000000000000081565b6040516001600160a01b03909116815260200161007b565b61006f6100e4366004610539565b6102ad565b61006f6100f7366004610574565b61036d565b60006101e76001600160a01b037f000000000000000000000000000000000000000000000000000000000000000016633c70b35761014060808601606087016105cb565b6040516001600160e01b031960e084901b1681526001600160401b039091166004820152602401602060405180830381865afa158015610184573d6000803e3d6000fd5b505050506040513d601f19601f820116820180604052508101906101a891906105e6565b836020016040516020016101bc91906105ff565b60408051601f1981840301815291905280516020909101206101de85806106c1565b9092909161042d565b92915050565b60006101e76001600160a01b037f000000000000000000000000000000000000000000000000000000000000000016633c70b35761023160808601606087016105cb565b6040516001600160e01b031960e084901b1681526001600160401b039091166004820152602401602060405180830381865afa158015610275573d6000803e3d6000fd5b505050506040513d601f19601f8201168201806040525081019061029991906105e6565b836020016040516020016101bc9190610711565b60006101e76001600160a01b037f000000000000000000000000000000000000000000000000000000000000000016633c70b3576102f160808601606087016105cb565b6040516001600160e01b031960e084901b1681526001600160401b039091166004820152602401602060405180830381865afa158015610335573d6000803e3d6000fd5b505050506040513d601f19601f8201168201806040525081019061035991906105e6565b836020016040516020016101bc91906107d8565b60006101e76001600160a01b037f000000000000000000000000000000000000000000000000000000000000000016633c70b3576103b160808601606087016105cb565b6040516001600160e01b031960e084901b1681526001600160401b039091166004820152602401602060405180830381865afa1580156103f5573d6000803e3d6000fd5b505050506040513d601f19601f8201168201806040525081019061041991906105e6565b836020016040516020016101bc919061093d565b60008261043b868685610445565b1495945050505050565b600081815b848110156104885761047482878784818110610468576104686109f2565b90506020020135610491565b91508061048081610a08565b91505061044a565b50949350505050565b60008183106104ad5760008281526020849052604090206104bc565b60008381526020839052604090205b9392505050565b6000602082840312156104d557600080fd5b81356001600160401b038111156104eb57600080fd5b820161016081850312156104bc57600080fd5b60006020828403121561051057600080fd5b81356001600160401b0381111561052657600080fd5b820161018081850312156104bc57600080fd5b60006020828403121561054b57600080fd5b81356001600160401b0381111561056157600080fd5b820161028081850312156104bc57600080fd5b60006020828403121561058657600080fd5b81356001600160401b0381111561059c57600080fd5b82016101c081850312156104bc57600080fd5b80356001600160401b03811681146105c657600080fd5b919050565b6000602082840312156105dd57600080fd5b6104bc826105af565b6000602082840312156105f857600080fd5b5051919050565b8135815260208083013590820152610140810161061e604084016105af565b6001600160401b0380821660408501528061063b606087016105af565b1660608501528061064e608087016105af565b1660808501528061066160a087016105af565b1660a08501528061067460c087016105af565b1660c08501528061068760e087016105af565b1660e085015261010091508061069e8387016105af565b16828501526101209150806106b48387016105af565b1682850152505092915050565b6000808335601e198436030181126106d857600080fd5b8301803591506001600160401b038211156106f257600080fd5b6020019150600581901b360382131561070a57600080fd5b9250929050565b81358152602080830135908201526101608101610730604084016105af565b6001600160401b0380821660408501528061074d606087016105af565b1660608501526080850135608085015260a085013560a08501528061077460c087016105af565b1660c08501528061078760e087016105af565b1660e085015250506101008381013590830152610120808401359083015261014092830135929091019190915290565b803580151581146105c657600080fd5b803560ff811681146105c657600080fd5b813581526020808301359082015261026081016107f7604084016105af565b6001600160401b03808216604085015280610814606087016105af565b16606085015250506080830135608083015260a083013560a083015260c083013560c083015261085a60e0830161084d60e086016105af565b6001600160401b03169052565b6101006108688185016105af565b6001600160401b03169083015261012083810135908301526101408084013590830152610160808401359083015261018080840135908301526101a080840135908301526101c080840135908301526101e0808401359083015261020080840135908301526102206108db8185016107b7565b1515908301526102406108ef8482016107c7565b60ff16920191909152919050565b6001600160401b038061090f836105af565b1683528061091f602084016105af565b16602084015280610932604084016105af565b166040840152505050565b81358152602080830135908201526101a0810161095c604084016105af565b6001600160401b03808216604085015280610979606087016105af565b1660608501528061098c608087016105af565b1660808501528061099f60a087016105af565b1660a0850152806109b260c087016105af565b1660c0850152505060e08381013590830152610100808401359083015261012080840135908301526101406109eb8184018286016108fd565b5092915050565b634e487b7160e01b600052603260045260246000fd5b600060018201610a2857634e487b7160e01b600052601160045260246000fd5b506001019056fea2646970667358221220b21a65f403beff9e5cbffa8b7eff91f0a0941501305326c76be8a0489d7c2b2b64736f6c63430008140033",
  "linkReferences": {},
  "deployedLinkReferences": {}
}