{
  "_format": "hh-sol-artifact-1",
  "contractName": "CollateralPool",
  "sourceName": "contracts/fasset/implementation/CollateralPool.sol",
  "abi": [
    {
      "inputs": [
        {
          "internalType": "address",
          "name": "_agentVault",
          "type": "address"
        },
        {
          "internalType": "address",
          "name": "_assetManager",
          "type": "address"
        },
        {
          "internalType": "address",
          "name": "_fAsset",
          "type": "address"
        },
        {
          "internalType": "uint32",
          "name": "_exitCollateralRatioBIPS",
          "type": "uint32"
        },
        {
          "internalType": "uint32",
          "name": "_topupCollateralRatioBIPS",
          "type": "uint32"
        },
        {
          "internalType": "uint16",
          "name": "_topupTokenPriceFactorBIPS",
          "type": "uint16"
        }
      ],
      "stateMutability": "nonpayable",
      "type": "constructor"
    },
    {
      "anonymous": false,
      "inputs": [
        {
          "indexed": true,
          "internalType": "address",
          "name": "tokenHolder",
          "type": "address"
        },
        {
          "indexed": false,
          "internalType": "uint256",
          "name": "amountNatWei",
          "type": "uint256"
        },
        {
          "indexed": false,
          "internalType": "uint256",
          "name": "receivedTokensWei",
          "type": "uint256"
        },
        {
          "indexed": false,
          "internalType": "uint256",
          "name": "addedFAssetFeesUBA",
          "type": "uint256"
        },
        {
          "indexed": false,
          "internalType": "uint256",
          "name": "newFAssetFeeDebt",
          "type": "uint256"
        },
        {
          "indexed": false,
          "internalType": "uint256",
          "name": "timelockExpiresAt",
          "type": "uint256"
        }
      ],
      "name": "Entered",
      "type": "event"
    },
    {
      "anonymous": false,
      "inputs": [
        {
          "indexed": true,
          "internalType": "address",
          "name": "tokenHolder",
          "type": "address"
        },
        {
          "indexed": false,
          "internalType": "uint256",
          "name": "burnedTokensWei",
          "type": "uint256"
        },
        {
          "indexed": false,
          "internalType": "uint256",
          "name": "receivedNatWei",
          "type": "uint256"
        },
        {
          "indexed": false,
          "internalType": "uint256",
          "name": "receviedFAssetFeesUBA",
          "type": "uint256"
        },
        {
          "indexed": false,
          "internalType": "uint256",
          "name": "closedFAssetsUBA",
          "type": "uint256"
        },
        {
          "indexed": false,
          "internalType": "uint256",
          "name": "newFAssetFeeDebt",
          "type": "uint256"
        }
      ],
      "name": "Exited",
      "type": "event"
    },
    {
      "anonymous": false,
      "inputs": [
        {
          "indexed": false,
          "internalType": "uint256",
          "name": "burnedTokensWei",
          "type": "uint256"
        },
        {
          "indexed": false,
          "internalType": "uint256",
          "name": "redeemedFAssetUBA",
          "type": "uint256"
        }
      ],
      "name": "IncompleteSelfCloseExit",
      "type": "event"
    },
    {
      "inputs": [],
      "name": "MIN_NAT_BALANCE_AFTER_EXIT",
      "outputs": [
        {
          "internalType": "uint256",
          "name": "",
          "type": "uint256"
        }
      ],
      "stateMutability": "view",
      "type": "function"
    },
    {
      "inputs": [],
      "name": "MIN_NAT_TO_ENTER",
      "outputs": [
        {
          "internalType": "uint256",
          "name": "",
          "type": "uint256"
        }
      ],
      "stateMutability": "view",
      "type": "function"
    },
    {
      "inputs": [],
      "name": "MIN_TOKEN_SUPPLY_AFTER_EXIT",
      "outputs": [
        {
          "internalType": "uint256",
          "name": "",
          "type": "uint256"
        }
      ],
      "stateMutability": "view",
      "type": "function"
    },
    {
      "inputs": [],
      "name": "agentVault",
      "outputs": [
        {
          "internalType": "address",
          "name": "",
          "type": "address"
        }
      ],
      "stateMutability": "view",
      "type": "function"
    },
    {
      "inputs": [],
      "name": "assetManager",
      "outputs": [
        {
          "internalType": "contract IIAssetManager",
          "name": "",
          "type": "address"
        }
      ],
      "stateMutability": "view",
      "type": "function"
    },
    {
      "inputs": [
        {
          "internalType": "contract IDistributionToDelegators",
          "name": "_distribution",
          "type": "address"
        },
        {
          "internalType": "uint256",
          "name": "_month",
          "type": "uint256"
        }
      ],
      "name": "claimAirdropDistribution",
      "outputs": [
        {
          "internalType": "uint256",
          "name": "",
          "type": "uint256"
        }
      ],
      "stateMutability": "nonpayable",
      "type": "function"
    },
    {
      "inputs": [
        {
          "internalType": "contract IFtsoRewardManager",
          "name": "_ftsoRewardManager",
          "type": "address"
        },
        {
          "internalType": "uint256",
          "name": "_lastRewardEpoch",
          "type": "uint256"
        }
      ],
      "name": "claimFtsoRewards",
      "outputs": [
        {
          "internalType": "uint256",
          "name": "",
          "type": "uint256"
        }
      ],
      "stateMutability": "nonpayable",
      "type": "function"
    },
    {
      "inputs": [
        {
          "internalType": "address",
          "name": "_account",
          "type": "address"
        }
      ],
      "name": "debtFreeTokensOf",
      "outputs": [
        {
          "internalType": "uint256",
          "name": "",
          "type": "uint256"
        }
      ],
      "stateMutability": "view",
      "type": "function"
    },
    {
      "inputs": [
        {
          "internalType": "address",
          "name": "_account",
          "type": "address"
        }
      ],
      "name": "debtLockedTokensOf",
      "outputs": [
        {
          "internalType": "uint256",
          "name": "",
          "type": "uint256"
        }
      ],
      "stateMutability": "view",
      "type": "function"
    },
    {
      "inputs": [
        {
          "internalType": "address",
          "name": "_to",
          "type": "address"
        },
        {
          "internalType": "uint256",
          "name": "_bips",
          "type": "uint256"
        }
      ],
      "name": "delegate",
      "outputs": [],
      "stateMutability": "nonpayable",
      "type": "function"
    },
    {
      "inputs": [
        {
          "internalType": "address",
          "name": "_to",
          "type": "address"
        }
      ],
      "name": "delegateGovernance",
      "outputs": [],
      "stateMutability": "nonpayable",
      "type": "function"
    },
    {
      "inputs": [],
      "name": "depositNat",
      "outputs": [],
      "stateMutability": "payable",
      "type": "function"
    },
    {
      "inputs": [
        {
          "internalType": "address payable",
          "name": "_recipient",
          "type": "address"
        }
      ],
      "name": "destroy",
      "outputs": [],
      "stateMutability": "nonpayable",
      "type": "function"
    },
    {
      "inputs": [
        {
          "internalType": "uint256",
          "name": "_fAssets",
          "type": "uint256"
        },
        {
          "internalType": "bool",
          "name": "_enterWithFullFAssets",
          "type": "bool"
        }
      ],
      "name": "enter",
      "outputs": [
        {
          "internalType": "uint256",
          "name": "",
          "type": "uint256"
        },
        {
          "internalType": "uint256",
          "name": "",
          "type": "uint256"
        }
      ],
      "stateMutability": "payable",
      "type": "function"
    },
    {
      "inputs": [
        {
          "internalType": "uint256",
          "name": "_tokenShare",
          "type": "uint256"
        },
        {
          "internalType": "enum ICollateralPool.TokenExitType",
          "name": "_exitType",
          "type": "uint8"
        }
      ],
      "name": "exit",
      "outputs": [
        {
          "internalType": "uint256",
          "name": "",
          "type": "uint256"
        },
        {
          "internalType": "uint256",
          "name": "",
          "type": "uint256"
        }
      ],
      "stateMutability": "nonpayable",
      "type": "function"
    },
    {
      "inputs": [],
      "name": "exitCollateralRatioBIPS",
      "outputs": [
        {
          "internalType": "uint32",
          "name": "",
          "type": "uint32"
        }
      ],
      "stateMutability": "view",
      "type": "function"
    },
    {
      "inputs": [],
      "name": "fAsset",
      "outputs": [
        {
          "internalType": "contract IERC20",
          "name": "",
          "type": "address"
        }
      ],
      "stateMutability": "view",
      "type": "function"
    },
    {
      "inputs": [
        {
          "internalType": "address",
          "name": "_account",
          "type": "address"
        }
      ],
      "name": "fAssetFeeDebtOf",
      "outputs": [
        {
          "internalType": "uint256",
          "name": "",
          "type": "uint256"
        }
      ],
      "stateMutability": "view",
      "type": "function"
    },
    {
      "inputs": [
        {
          "internalType": "uint256",
          "name": "_amount",
          "type": "uint256"
        }
      ],
      "name": "fAssetFeeDeposited",
      "outputs": [],
      "stateMutability": "nonpayable",
      "type": "function"
    },
    {
      "inputs": [
        {
          "internalType": "address",
          "name": "_account",
          "type": "address"
        }
      ],
      "name": "fAssetFeesOf",
      "outputs": [
        {
          "internalType": "uint256",
          "name": "",
          "type": "uint256"
        }
      ],
      "stateMutability": "view",
      "type": "function"
    },
    {
      "inputs": [
        {
          "internalType": "uint256",
          "name": "_tokenAmountWei",
          "type": "uint256"
        }
      ],
      "name": "fAssetRequiredForSelfCloseExit",
      "outputs": [
        {
          "internalType": "uint256",
          "name": "",
          "type": "uint256"
        }
      ],
      "stateMutability": "view",
      "type": "function"
    },
    {
      "inputs": [
        {
          "internalType": "contract IDistributionToDelegators",
          "name": "_distribution",
          "type": "address"
        }
      ],
      "name": "optOutOfAirdrop",
      "outputs": [],
      "stateMutability": "nonpayable",
      "type": "function"
    },
    {
      "inputs": [
        {
          "internalType": "uint256",
          "name": "_fAssets",
          "type": "uint256"
        }
      ],
      "name": "payFAssetFeeDebt",
      "outputs": [],
      "stateMutability": "nonpayable",
      "type": "function"
    },
    {
      "inputs": [
        {
          "internalType": "address",
          "name": "_recipient",
          "type": "address"
        },
        {
          "internalType": "uint256",
          "name": "_amount",
          "type": "uint256"
        },
        {
          "internalType": "uint256",
          "name": "_agentResponsibilityWei",
          "type": "uint256"
        }
      ],
      "name": "payout",
      "outputs": [],
      "stateMutability": "nonpayable",
      "type": "function"
    },
    {
      "inputs": [],
      "name": "poolToken",
      "outputs": [
        {
          "internalType": "contract ICollateralPoolToken",
          "name": "",
          "type": "address"
        }
      ],
      "stateMutability": "view",
      "type": "function"
    },
    {
      "inputs": [
        {
          "internalType": "address",
          "name": "_who",
          "type": "address"
        },
        {
          "internalType": "uint256",
          "name": "_blockNumber",
          "type": "uint256"
        }
      ],
      "name": "revokeDelegationAt",
      "outputs": [],
      "stateMutability": "nonpayable",
      "type": "function"
    },
    {
      "inputs": [
        {
          "internalType": "uint256",
          "name": "_tokenShare",
          "type": "uint256"
        },
        {
          "internalType": "bool",
          "name": "_redeemToCollateral",
          "type": "bool"
        },
        {
          "internalType": "string",
          "name": "_redeemerUnderlyingAddress",
          "type": "string"
        },
        {
          "internalType": "address payable",
          "name": "_executor",
          "type": "address"
        }
      ],
      "name": "selfCloseExit",
      "outputs": [],
      "stateMutability": "payable",
      "type": "function"
    },
    {
      "inputs": [
        {
          "internalType": "uint256",
          "name": "_exitCollateralRatioBIPS",
          "type": "uint256"
        }
      ],
      "name": "setExitCollateralRatioBIPS",
      "outputs": [],
      "stateMutability": "nonpayable",
      "type": "function"
    },
    {
      "inputs": [
        {
          "internalType": "address",
          "name": "_poolToken",
          "type": "address"
        }
      ],
      "name": "setPoolToken",
      "outputs": [],
      "stateMutability": "nonpayable",
      "type": "function"
    },
    {
      "inputs": [
        {
          "internalType": "uint256",
          "name": "_topupCollateralRatioBIPS",
          "type": "uint256"
        }
      ],
      "name": "setTopupCollateralRatioBIPS",
      "outputs": [],
      "stateMutability": "nonpayable",
      "type": "function"
    },
    {
      "inputs": [
        {
          "internalType": "uint256",
          "name": "_topupTokenPriceFactorBIPS",
          "type": "uint256"
        }
      ],
      "name": "setTopupTokenPriceFactorBIPS",
      "outputs": [],
      "stateMutability": "nonpayable",
      "type": "function"
    },
    {
      "inputs": [
        {
          "internalType": "bytes4",
          "name": "_interfaceId",
          "type": "bytes4"
        }
      ],
      "name": "supportsInterface",
      "outputs": [
        {
          "internalType": "bool",
          "name": "",
          "type": "bool"
        }
      ],
      "stateMutability": "pure",
      "type": "function"
    },
    {
      "inputs": [],
      "name": "token",
      "outputs": [
        {
          "internalType": "contract IICollateralPoolToken",
          "name": "",
          "type": "address"
        }
      ],
      "stateMutability": "view",
      "type": "function"
    },
    {
      "inputs": [],
      "name": "topupCollateralRatioBIPS",
      "outputs": [
        {
          "internalType": "uint32",
          "name": "",
          "type": "uint32"
        }
      ],
      "stateMutability": "view",
      "type": "function"
    },
    {
      "inputs": [],
      "name": "topupTokenPriceFactorBIPS",
      "outputs": [
        {
          "internalType": "uint16",
          "name": "",
          "type": "uint16"
        }
      ],
      "stateMutability": "view",
      "type": "function"
    },
    {
      "inputs": [],
      "name": "totalCollateral",
      "outputs": [
        {
          "internalType": "uint256",
          "name": "",
          "type": "uint256"
        }
      ],
      "stateMutability": "view",
      "type": "function"
    },
    {
      "inputs": [],
      "name": "totalFAssetFeeDebt",
      "outputs": [
        {
          "internalType": "uint256",
          "name": "",
          "type": "uint256"
        }
      ],
      "stateMutability": "view",
      "type": "function"
    },
    {
      "inputs": [],
      "name": "totalFAssetFees",
      "outputs": [
        {
          "internalType": "uint256",
          "name": "",
          "type": "uint256"
        }
      ],
      "stateMutability": "view",
      "type": "function"
    },
    {
      "inputs": [],
      "name": "undelegateAll",
      "outputs": [],
      "stateMutability": "nonpayable",
      "type": "function"
    },
    {
      "inputs": [],
      "name": "undelegateGovernance",
      "outputs": [],
      "stateMutability": "nonpayable",
      "type": "function"
    },
    {
      "inputs": [
        {
          "internalType": "contract IWNat",
          "name": "_newWNat",
          "type": "address"
        }
      ],
      "name": "upgradeWNatContract",
      "outputs": [],
      "stateMutability": "nonpayable",
      "type": "function"
    },
    {
      "inputs": [
        {
          "internalType": "address",
          "name": "_account",
          "type": "address"
        }
      ],
      "name": "virtualFAssetOf",
      "outputs": [
        {
          "internalType": "uint256",
          "name": "",
          "type": "uint256"
        }
      ],
      "stateMutability": "view",
      "type": "function"
    },
    {
      "inputs": [],
      "name": "wNat",
      "outputs": [
        {
          "internalType": "contract IWNat",
          "name": "",
          "type": "address"
        }
      ],
      "stateMutability": "view",
      "type": "function"
    },
    {
      "inputs": [],
      "name": "withdrawCollateralWhenFAssetTerminated",
      "outputs": [],
      "stateMutability": "nonpayable",
      "type": "function"
    },
    {
      "inputs": [
        {
          "internalType": "uint256",
          "name": "_fAssets",
          "type": "uint256"
        }
      ],
      "name": "withdrawFees",
      "outputs": [],
      "stateMutability": "nonpayable",
      "type": "function"
    },
    {
      "stateMutability": "payable",
      "type": "receive"
    }
  ],
  "bytecode": "0x60e06040523480156200001157600080fd5b5060405162004ab838038062004ab883398101604081905262000034916200015a565b60016000556001600160a01b0380871660805285811660a081905290851660c05260408051635ad2445360e11b8152905163b5a488a6916004808201926020929091908290030181865afa15801562000091573d6000803e3d6000fd5b505050506040513d601f19601f82011682018060405250810190620000b79190620001ed565b6002805461ffff909316600160e01b0261ffff60e01b1963ffffffff958616600160c01b021665ffffffffffff60c01b1995909616600160a01b026001600160c01b03199094166001600160a01b0393909316929092179290921792909216929092171790555062000214915050565b6001600160a01b03811681146200013d57600080fd5b50565b805163ffffffff811681146200015557600080fd5b919050565b60008060008060008060c087890312156200017457600080fd5b8651620001818162000127565b6020880151909650620001948162000127565b6040880151909550620001a78162000127565b9350620001b76060880162000140565b9250620001c76080880162000140565b915060a087015161ffff81168114620001df57600080fd5b809150509295509295509295565b6000602082840312156200020057600080fd5b81516200020d8162000127565b9392505050565b60805160a05160c051614763620003556000396000818161051d01528181610a8c01528181610b2901528181611b40015281816120ae01528181612825015281816128bb01528181612d3301528181613a4a0152613a960152600081816106080152818161087b01528181611088015281816113400152818161164e015281816117530152818161184701528181611c4101528181611d97015281816123c40152818161261a015281816128ed015281816129c801528181612a2b01528181612e4c01528181613049015281816132730152818161332c015261347801526000818161056901528181611c1101528181611e0c01528181611ec601528181611ef501528181611f4301528181611fa1015281816125ef0152818161299301528181612a5b0152818161301901528181613240015261344a01526147636000f3fe6080604052600436106102755760003560e01c806394217ad11161014f578063c1b0bbf8116100c1578063e4df73f01161007a578063e4df73f0146107dd578063ee781db0146107f0578063f4d000b214610810578063fbebcadf14610440578063fc0c546a14610830578063fd86d3ea1461085057600080fd5b8063c1b0bbf81461072b578063c79d245d1461074b578063cb2094131461076b578063cbabdf39146107a1578063cbdf382c146107b7578063d1b8890e146107d557600080fd5b8063adf58c1511610113578063adf58c151461069d578063b302f393146106bd578063b337929b146106d2578063b9e2648314610348578063ba133b87146106f6578063bbd6fbf81461070b57600080fd5b806394217ad1146105f65780639a4247e61461062a5780639edbf0071461064a578063a854a6a21461066a578063ac3736c11461068a57600080fd5b80634a4ac2ef116101e85780637c7db1a5116101ac5780637c7db1a51461050b578063815ea9d61461055757806386ac57a21461058b57806387a2a0dc146105ab57806388985cd6146105c0578063923f8932146105e057600080fd5b80634a4ac2ef146104605780634ac8eb5f146104955780635e318e07146104ab578063787b9ca8146104cb5780637a68a508146104eb57600080fd5b806315e2bfba1161023a57806315e2bfba146103725780631b92d84a146103925780632f35eac2146103b257806333ce01fd146103e75780633cfc747d14610407578063406c70071461044057600080fd5b8062f55d9d146102d357806301ffc9a7146102f3578063026e402b146103285780630ac07344146103485780630dc1e5e11461034857600080fd5b366102ce57600254600160f01b900460ff166102cc5760405162461bcd60e51b81526020600482015260116024820152706f6e6c7920696e7465726e616c2075736560781b60448201526064015b60405180910390fd5b005b600080fd5b3480156102df57600080fd5b506102cc6102ee36600461417d565b610870565b3480156102ff57600080fd5b5061031361030e36600461419a565b610b5f565b60405190151581526020015b60405180910390f35b34801561033457600080fd5b506102cc6103433660046141c4565b610bb1565b34801561035457600080fd5b50610364670de0b6b3a764000081565b60405190815260200161031f565b34801561037e57600080fd5b5061036461038d36600461417d565b610c41565b34801561039e57600080fd5b506103646103ad3660046141f0565b610cd7565b3480156103be57600080fd5b506103d26103cd366004614209565b610d2c565b6040805192835260208301919091520161031f565b3480156103f357600080fd5b506102cc61040236600461417d565b61107d565b34801561041357600080fd5b5060025461042b90600160a01b900463ffffffff1681565b60405163ffffffff909116815260200161031f565b34801561044c57600080fd5b5061036461045b3660046141c4565b611139565b34801561046c57600080fd5b5060025461048290600160e01b900461ffff1681565b60405161ffff909116815260200161031f565b3480156104a157600080fd5b5061036460065481565b3480156104b757600080fd5b506102cc6104c63660046141f0565b611203565b3480156104d757600080fd5b506102cc6104e63660046141f0565b611335565b3480156104f757600080fd5b506102cc61050636600461417d565b6113f7565b34801561051757600080fd5b5061053f7f000000000000000000000000000000000000000000000000000000000000000081565b6040516001600160a01b03909116815260200161031f565b34801561056357600080fd5b5061053f7f000000000000000000000000000000000000000000000000000000000000000081565b34801561059757600080fd5b506102cc6105a636600461417d565b6114f3565b3480156105b757600080fd5b506102cc611553565b3480156105cc57600080fd5b506102cc6105db3660046141f0565b611643565b3480156105ec57600080fd5b5061036460045481565b34801561060257600080fd5b5061053f7f000000000000000000000000000000000000000000000000000000000000000081565b34801561063657600080fd5b506102cc6106453660046141f0565b611748565b34801561065657600080fd5b5060025461053f906001600160a01b031681565b34801561067657600080fd5b506102cc6106853660046141f0565b61183c565b6103d261069836600461424b565b61189e565b3480156106a957600080fd5b506102cc6106b8366004614270565b611d8c565b3480156106c957600080fd5b506102cc61202f565b3480156106de57600080fd5b5060025461042b90600160c01b900463ffffffff1681565b34801561070257600080fd5b506102cc6120a4565b34801561071757600080fd5b506102cc6107263660046141c4565b61232d565b34801561073757600080fd5b5061036461074636600461417d565b61238b565b34801561075757600080fd5b5061036461076636600461417d565b6123a2565b34801561077757600080fd5b5061036461078636600461417d565b6001600160a01b031660009081526003602052604090205490565b3480156107ad57600080fd5b5061036460055481565b3480156107c357600080fd5b506001546001600160a01b031661053f565b6102cc6123b9565b6102cc6107eb3660046142bb565b612409565b3480156107fc57600080fd5b506102cc61080b3660046141f0565b612c5f565b34801561081c57600080fd5b506102cc61082b36600461417d565b612e41565b34801561083c57600080fd5b5060015461053f906001600160a01b031681565b34801561085c57600080fd5b5061036461086b36600461417d565b6130b7565b336001600160a01b037f000000000000000000000000000000000000000000000000000000000000000016146108b85760405162461bcd60e51b81526004016102c390614399565b6108c06130ce565b600160009054906101000a90046001600160a01b03166001600160a01b03166318160ddd6040518163ffffffff1660e01b8152600401602060405180830381865afa158015610913573d6000803e3d6000fd5b505050506040513d601f19601f8201168201806040525081019061093791906143c5565b156109955760405162461bcd60e51b815260206004820152602860248201527f63616e6e6f742064657374726f79206120706f6f6c20776974682069737375656044820152676420746f6b656e7360c01b60648201526084016102c3565b60015460405162f55d9d60e01b81526001600160a01b0383811660048301529091169062f55d9d90602401600060405180830381600087803b1580156109da57600080fd5b505af11580156109ee573d6000803e3d6000fd5b505050506109fc8147613127565b6002546040516370a0823160e01b81523060048201526000916001600160a01b0316906370a0823190602401602060405180830381865afa158015610a45573d6000803e3d6000fd5b505050506040513d601f19601f82011682018060405250810190610a6991906143c5565b6040516370a0823160e01b81523060048201529091506000906001600160a01b037f000000000000000000000000000000000000000000000000000000000000000016906370a0823190602401602060405180830381865afa158015610ad3573d6000803e3d6000fd5b505050506040513d601f19601f82011682018060405250810190610af791906143c5565b90508115610b1657600254610b16906001600160a01b031684846131c6565b8015610b5057610b506001600160a01b037f00000000000000000000000000000000000000000000000000000000000000001684836131c6565b5050610b5c6001600055565b50565b60006001600160e01b031982166301ffc9a760e01b1480610b9057506001600160e01b03198216636c9ea60760e01b145b80610bab57506001600160e01b031982166350eb34e160e11b145b92915050565b610bba33613229565b610bd65760405162461bcd60e51b81526004016102c3906143de565b60025460405163026e402b60e01b81526001600160a01b038481166004830152602482018490529091169063026e402b906044015b600060405180830381600087803b158015610c2557600080fd5b505af1158015610c39573d6000803e3d6000fd5b505050505050565b600080610c4c6132e0565b6001546040516370a0823160e01b81526001600160a01b038681166004830152929350610cd092909116906370a0823190602401602060405180830381865afa158015610c9d573d6000803e3d6000fd5b505050506040513d601f19601f82011682018060405250810190610cc191906143c5565b610ccb838661351a565b61360e565b9392505050565b600080610ce26132e0565b80516040820151919250600091610cfa918690613628565b90506000610d08838361374e565b90506000610d1684336137f5565b9050610d22828261360e565b9695505050505050565b600080610d376130ce565b60008411610d7d5760405162461bcd60e51b8152602060048201526013602482015272746f6b656e207368617265206973207a65726f60681b60448201526064016102c3565b6001546040516370a0823160e01b81523360048201526001600160a01b03909116906370a0823190602401602060405180830381865afa158015610dc5573d6000803e3d6000fd5b505050506040513d601f19601f82011682018060405250810190610de991906143c5565b841115610e305760405162461bcd60e51b8152602060048201526015602482015274746f6b656e2062616c616e636520746f6f206c6f7760581b60448201526064016102c3565b6000610e3a6132e0565b8051909150851480610e6157508051670de0b6b3a764000090610e5e908790614418565b10155b610e7d5760405162461bcd60e51b81526004016102c39061442b565b60408101518151600091610e9391889190613628565b905060008111610eb55760405162461bcd60e51b81526004016102c39061447f565b8082604001511480610ede5750670de0b6b3a7640000818360400151610edb9190614418565b10155b610efa5760405162461bcd60e51b81526004016102c3906144c1565b600254610f179083908390600160a01b900463ffffffff1661383e565b610f6f5760405162461bcd60e51b815260206004820152602360248201527f636f6c6c61746572616c20726174696f2066616c6c732062656c6f77206578696044820152623a21a960e91b60648201526084016102c3565b600080610f7e84338a8a613887565b90925090508015610f9457610f94303383613a0f565b8115610fa457610fa43383613abe565b6001546040516376fd4fdf60e01b81526001600160a01b03909116906376fd4fdf90610fd99033908c90600090600401614513565b600060405180830381600087803b158015610ff357600080fd5b505af1158015611007573d6000803e3d6000fd5b505050506110153384613b08565b3360008181526003602090815260408083205481518d81529283018890529082018590526060820192909252608081019190915260008051602061470e8339815191529060a00160405180910390a291945090925050506110766001600055565b9250929050565b336001600160a01b037f000000000000000000000000000000000000000000000000000000000000000016146110c55760405162461bcd60e51b81526004016102c390614399565b6001546001600160a01b0316156111175760405162461bcd60e51b81526020600482015260166024820152751c1bdbdb081d1bdad95b88185b1c9958591e481cd95d60521b60448201526064016102c3565b600180546001600160a01b0319166001600160a01b0392909216919091179055565b600061114433613229565b6111605760405162461bcd60e51b81526004016102c3906143de565b60405163596090c960e11b81523060048201819052602482015260448101839052600160648201526000906001600160a01b0385169063b2c12192906084016020604051808303816000875af11580156111be573d6000803e3d6000fd5b505050506040513d601f19601f820116820180604052508101906111e291906143c5565b905080600660008282546111f69190614536565b9091555090949350505050565b61120b6130ce565b6000811161125b5760405162461bcd60e51b815260206004820181905260248201527f747279696e6720746f207769746864726177207a65726f20662d61737365747360448201526064016102c3565b60006112656132e0565b9050600061127382336137f5565b9050808311156112c55760405162461bcd60e51b815260206004820152601e60248201527f6672656520662d61737365742062616c616e636520746f6f20736d616c6c000060448201526064016102c3565b6112cf3384613b3c565b6112da303385613a0f565b3360008181526003602090815260408083205481518481529283018490529082018590526060820192909252608081019190915260008051602061470e8339815191529060a00160405180910390a25050610b5c6001600055565b336001600160a01b037f0000000000000000000000000000000000000000000000000000000000000000161461137d5760405162461bcd60e51b81526004016102c390614399565b600254600160c01b900463ffffffff1681116113cb5760405162461bcd60e51b815260206004820152600d60248201526c76616c756520746f6f206c6f7760981b60448201526064016102c3565b6113d481613b7d565b600260146101000a81548163ffffffff021916908363ffffffff16021790555050565b61140033613229565b61141c5760405162461bcd60e51b81526004016102c3906143de565b600260009054906101000a90046001600160a01b03166001600160a01b0316638c2b8ae16040518163ffffffff1660e01b8152600401602060405180830381865afa15801561146f573d6000803e3d6000fd5b505050506040513d601f19601f820116820180604052508101906114939190614549565b6040516317066a5760e21b81526001600160a01b0383811660048301529190911690635c19a95c90602401600060405180830381600087803b1580156114d857600080fd5b505af11580156114ec573d6000803e3d6000fd5b5050505050565b6114fc33613229565b6115185760405162461bcd60e51b81526004016102c3906143de565b806001600160a01b031663f2a1f7676040518163ffffffff1660e01b8152600401600060405180830381600087803b1580156114d857600080fd5b61155c33613229565b6115785760405162461bcd60e51b81526004016102c3906143de565b600260009054906101000a90046001600160a01b03166001600160a01b0316638c2b8ae16040518163ffffffff1660e01b8152600401602060405180830381865afa1580156115cb573d6000803e3d6000fd5b505050506040513d601f19601f820116820180604052508101906115ef9190614549565b6001600160a01b03166392ab89bb6040518163ffffffff1660e01b8152600401600060405180830381600087803b15801561162957600080fd5b505af115801561163d573d6000803e3d6000fd5b50505050565b336001600160a01b037f0000000000000000000000000000000000000000000000000000000000000000161461168b5760405162461bcd60e51b81526004016102c390614399565b600254600160a01b900463ffffffff1681106116da5760405162461bcd60e51b815260206004820152600e60248201526d0ecc2d8eaca40e8dede40d0d2ced60931b60448201526064016102c3565b6000811161171c5760405162461bcd60e51b815260206004820152600f60248201526e6d757374206265206e6f6e7a65726f60881b60448201526064016102c3565b61172581613b7d565b600260186101000a81548163ffffffff021916908363ffffffff16021790555050565b336001600160a01b037f000000000000000000000000000000000000000000000000000000000000000016146117905760405162461bcd60e51b81526004016102c390614399565b61271081106117d25760405162461bcd60e51b815260206004820152600e60248201526d0ecc2d8eaca40e8dede40d0d2ced60931b60448201526064016102c3565b600081116118145760405162461bcd60e51b815260206004820152600f60248201526e6d757374206265206e6f6e7a65726f60881b60448201526064016102c3565b61181d81613be6565b6002601c6101000a81548161ffff021916908361ffff16021790555050565b336001600160a01b037f000000000000000000000000000000000000000000000000000000000000000016146118845760405162461bcd60e51b81526004016102c390614399565b80600560008282546118969190614536565b909155505050565b6000806118a96130ce565b60006118b36132e0565b90506103e881604001516118c79190614566565b815111156119175760405162461bcd60e51b815260206004820152601a60248201527f706f6f6c206e61742062616c616e636520746f6f20736d616c6c00000000000060448201526064016102c3565b670de0b6b3a764000034101561196f5760405162461bcd60e51b815260206004820152601d60248201527f616d6f756e74206f66206e61742073656e7420697320746f6f206c6f7700000060448201526064016102c3565b8051600003611acd578060400151341015611a185760405162461bcd60e51b815260206004820152606060248201527f696620706f6f6c20686173206e6f20746f6b656e732c2062757420686f6c647360448201527f20636f6c6c61746572616c2c20796f75206e65656420746f2073656e6420617460648201527f206c65617374207468617420616d6f756e74206f6620636f6c6c61746572616c608482015260a4016102c3565b60a081015160c08201516060830151611a32929091613628565b341015611acd5760405162461bcd60e51b815260206004820152605f60248201527f496620706f6f6c20686173206e6f20746f6b656e732c2062757420686f6c647360448201527f20662d61737365742c20796f75206e65656420746f2073656e64206174206c6560648201527f61737420662d617373657420776f727468206f6620636f6c6c61746572616c00608482015260a4016102c3565b6000611ad98234613c49565b9050600080836000015111611aef576000611b01565b82516080840151611b01918490613628565b9050600086611b1957611b148883613d8d565b611b1b565b815b90508015611bdc57604051636eb1769f60e11b815233600482015230602482015281907f00000000000000000000000000000000000000000000000000000000000000006001600160a01b03169063dd62ed3e90604401602060405180830381865afa158015611b8f573d6000803e3d6000fd5b505050506040513d601f19601f82011682018060405250810190611bb391906143c5565b1015611bd15760405162461bcd60e51b81526004016102c39061457d565b611bdc333083613a0f565b611bef33611bea8385614418565b613b3c565b611bf7613da3565b60025460405163053fe26160e31b81526001600160a01b037f00000000000000000000000000000000000000000000000000000000000000008116600483015291821660248201527f0000000000000000000000000000000000000000000000000000000000000000909116906329ff130890604401600060405180830381600087803b158015611c8757600080fd5b505af1158015611c9b573d6000803e3d6000fd5b50506001546040516340c10f1960e01b815233600482015260248101879052600093506001600160a01b0390911691506340c10f19906044016020604051808303816000875af1158015611cf3573d6000803e3d6000fd5b505050506040513d601f19601f82011682018060405250810190611d1791906143c5565b33600081815260036020908152604091829020548251348152918201899052818301879052606082015260808101849052905192935090917f8837aea61d24df2daef4ee681be933e5ea5c7ebe3cde964adef015dad51fe7859181900360a00190a29295509193505050506110766001600055565b336001600160a01b037f00000000000000000000000000000000000000000000000000000000000000001614611dd45760405162461bcd60e51b81526004016102c390614399565b611ddc6130ce565b6000611de66132e0565b9050611df28484613b08565b6001546040516370a0823160e01b81526001600160a01b037f00000000000000000000000000000000000000000000000000000000000000008116600483015260009216906370a0823190602401602060405180830381865afa158015611e5d573d6000803e3d6000fd5b505050506040513d601f19601f82011682018060405250810190611e8191906143c5565b9050600080836040015111611e965781611ea8565b60408301518351611ea8918690613628565b90506000611eb68284613d8d565b9050801561201c576000611eed857f0000000000000000000000000000000000000000000000000000000000000000846002613887565b509050611f1a7f000000000000000000000000000000000000000000000000000000000000000082613abe565b600180546040516376fd4fdf60e01b81526001600160a01b03909116916376fd4fdf91611f6e917f000000000000000000000000000000000000000000000000000000000000000091879190600401614513565b600060405180830381600087803b158015611f8857600080fd5b505af1158015611f9c573d6000803e3d6000fd5b5050507f00000000000000000000000000000000000000000000000000000000000000006001600160a01b031660008181526003602090815260408083205481518881529283018490529082018390526060820192909252608081019190915290915060008051602061470e8339815191529060a00160405180910390a2505b5050505061202a6001600055565b505050565b61203833613229565b6120545760405162461bcd60e51b81526004016102c3906143de565b600260009054906101000a90046001600160a01b03166001600160a01b031663b302f3936040518163ffffffff1660e01b8152600401600060405180830381600087803b15801561162957600080fd5b6120ac6130ce565b7f00000000000000000000000000000000000000000000000000000000000000006001600160a01b031663194307bf6040518163ffffffff1660e01b8152600401602060405180830381865afa15801561210a573d6000803e3d6000fd5b505050506040513d601f19601f8201168201806040525081019061212e91906145b4565b6121735760405162461bcd60e51b8152602060048201526016602482015275198b585cdcd95d081b9bdd081d195c9b5a5b985d195960521b60448201526064016102c3565b6001546040516370a0823160e01b81523360048201526000916001600160a01b0316906370a0823190602401602060405180830381865afa1580156121bc573d6000803e3d6000fd5b505050506040513d601f19601f820116820180604052508101906121e091906143c5565b9050600081116122285760405162461bcd60e51b81526020600482015260136024820152726e6f7468696e6720746f20776974686472617760681b60448201526064016102c3565b60006122af600654600160009054906101000a90046001600160a01b03166001600160a01b03166318160ddd6040518163ffffffff1660e01b8152600401602060405180830381865afa158015612283573d6000803e3d6000fd5b505050506040513d601f19601f820116820180604052508101906122a791906143c5565b849190613628565b600180546040516376fd4fdf60e01b81529293506001600160a01b0316916376fd4fdf916122e39133918791600401614513565b600060405180830381600087803b1580156122fd57600080fd5b505af1158015612311573d6000803e3d6000fd5b5050505061231f3382613b08565b505061232b6001600055565b565b61233633613229565b6123525760405162461bcd60e51b81526004016102c3906143de565b60025460405163177adf7f60e31b81526001600160a01b038481166004830152602482018490529091169063bbd6fbf890604401610c0b565b6000806123966132e0565b9050610cd081846137f5565b6000806123ad6132e0565b9050610cd0818461351a565b336001600160a01b037f000000000000000000000000000000000000000000000000000000000000000016146124015760405162461bcd60e51b81526004016102c390614399565b61232b613da3565b6124116130ce565b600084116124575760405162461bcd60e51b8152602060048201526013602482015272746f6b656e207368617265206973207a65726f60681b60448201526064016102c3565b6001546040516370a0823160e01b81523360048201526000916001600160a01b0316906370a0823190602401602060405180830381865afa1580156124a0573d6000803e3d6000fd5b505050506040513d601f19601f820116820180604052508101906124c491906143c5565b90508085111561250e5760405162461bcd60e51b8152602060048201526015602482015274746f6b656e2062616c616e636520746f6f206c6f7760581b60448201526064016102c3565b60006125186132e0565b805190915086148061253f57508051670de0b6b3a76400009061253c908890614418565b10155b61255b5760405162461bcd60e51b81526004016102c39061442b565b8051604082015160009161257191908990613628565b9050600081116125935760405162461bcd60e51b81526004016102c39061447f565b80826040015114806125bc5750670de0b6b3a76400008183604001516125b99190614418565b10155b6125d85760405162461bcd60e51b81526004016102c3906144c1565b604051631e8bee0160e01b81526001600160a01b037f0000000000000000000000000000000000000000000000000000000000000000811660048301526000917f000000000000000000000000000000000000000000000000000000000000000090911690631e8bee0190602401602060405180830381865afa158015612663573d6000803e3d6000fd5b505050506040513d601f19601f8201168201806040525081019061268791906143c5565b90506000612695848461374e565b9050808210156127c75750806126ab8482613e07565b9250600083116127335760405162461bcd60e51b815260206004820152604760248201527f616d6f756e74206f662073656e7420746f6b656e7320697320746f6f20736d6160448201527f6c6c206166746572206167656e74206d617820726564656d70746f6e20636f726064820152663932b1ba34b7b760c91b608482015260a4016102c3565b828460400151148061275c5750670de0b6b3a76400008385604001516127599190614418565b10155b6127785760405162461bcd60e51b81526004016102c3906144c1565b6040840151845161278a918590613628565b6040805182815260208101849052919a507f7543f09ac709677c25f5aa8284e92f885eae7c7496789dd47cf87e28e5a1cf1c910160405180910390a15b60006127d385336137f5565b90506000806127e587338e6000613887565b91509150838310156128e55760006127fd8486614418565b604051636eb1769f60e11b815233600482015230602482015290915081906001600160a01b037f0000000000000000000000000000000000000000000000000000000000000000169063dd62ed3e90604401602060405180830381865afa15801561286c573d6000803e3d6000fd5b505050506040513d601f19601f8201168201806040525081019061289091906143c5565b10156128ae5760405162461bcd60e51b81526004016102c39061457d565b6128e36001600160a01b037f000000000000000000000000000000000000000000000000000000000000000016333084613e89565b505b8315612ad1577f00000000000000000000000000000000000000000000000000000000000000006001600160a01b0316634942f65f6040518163ffffffff1660e01b8152600401602060405180830381865afa158015612949573d6000803e3d6000fd5b505050506040513d601f19601f8201168201806040525081019061296d91906143c5565b84108061297757508a5b15612a2957604051630ed000b360e41b81526001600160a01b037f000000000000000000000000000000000000000000000000000000000000000081166004830152336024830152604482018690527f0000000000000000000000000000000000000000000000000000000000000000169063ed000b3090606401600060405180830381600087803b158015612a0c57600080fd5b505af1158015612a20573d6000803e3d6000fd5b50505050612ad1565b7f00000000000000000000000000000000000000000000000000000000000000006001600160a01b031663997be0f4347f000000000000000000000000000000000000000000000000000000000000000033888f8f6040518763ffffffff1660e01b8152600401612a9e959493929190614621565b6000604051808303818588803b158015612ab757600080fd5b505af1158015612acb573d6000803e3d6000fd5b50505050505b6000612add8585613d8d565b90508015612b2f578060056000828254612af79190614418565b90915550612b0790503382613b3c565b6000612b138284613d8d565b9050612b1f8184614418565b9250612b2b8185614536565b9350505b8115612b4057612b40303384613a0f565b8215612b5057612b503384613abe565b600160009054906101000a90046001600160a01b03166001600160a01b03166376fd4fdf338f60006040518463ffffffff1660e01b8152600401612b9693929190614513565b600060405180830381600087803b158015612bb057600080fd5b505af1158015612bc4573d6000803e3d6000fd5b50505050612bd23388613b08565b336001600160a01b031660008051602061470e8339815191528e89848960036000336001600160a01b03166001600160a01b0316815260200190815260200160002054604051612c44959493929190948552602085019390935260408401919091526060830152608082015260a00190565b60405180910390a250505050505050505061163d6001600055565b612c676130ce565b80600003612cb75760405162461bcd60e51b815260206004820152601960248201527f7a65726f20662d61737365742064656274207061796d656e740000000000000060448201526064016102c3565b33600090815260036020526040902054811115612d165760405162461bcd60e51b815260206004820152601e60248201527f6465627420662d61737365742062616c616e636520746f6f20736d616c6c000060448201526064016102c3565b604051636eb1769f60e11b815233600482015230602482015281907f00000000000000000000000000000000000000000000000000000000000000006001600160a01b03169063dd62ed3e90604401602060405180830381865afa158015612d82573d6000803e3d6000fd5b505050506040513d601f19601f82011682018060405250810190612da691906143c5565b1015612dc45760405162461bcd60e51b81526004016102c39061457d565b612dce3382613abe565b612dd9333083613a0f565b336000818152600360209081526040808320548151848152928301849052908201859052606082015260808101919091527f8837aea61d24df2daef4ee681be933e5ea5c7ebe3cde964adef015dad51fe7859060a00160405180910390a2610b5c6001600055565b336001600160a01b037f00000000000000000000000000000000000000000000000000000000000000001614612e895760405162461bcd60e51b81526004016102c390614399565b612e916130ce565b6002546001600160a01b038281169116146130ad576002546040516370a0823160e01b81523060048201526000916001600160a01b0316906370a0823190602401602060405180830381865afa158015612eef573d6000803e3d6000fd5b505050506040513d601f19601f82011682018060405250810190612f1391906143c5565b60028054600160f01b60ff60f01b19821617909155604051632e1a7d4d60e01b8152600481018390529192506001600160a01b031690632e1a7d4d90602401600060405180830381600087803b158015612f6c57600080fd5b505af1158015612f80573d6000803e3d6000fd5b50506002805460ff60f01b19169055505060408051630d0e30db60e41b815290516001600160a01b0384169163d0e30db091849160048082019260009290919082900301818588803b158015612fd557600080fd5b505af1158015612fe9573d6000803e3d6000fd5b5050600280546001600160a01b0319166001600160a01b0387811691821790925560405163053fe26160e31b81527f00000000000000000000000000000000000000000000000000000000000000008316600482015260248101919091527f000000000000000000000000000000000000000000000000000000000000000090911693506329ff130892506044019050600060405180830381600087803b15801561309357600080fd5b505af11580156130a7573d6000803e3d6000fd5b50505050505b610b5c6001600055565b6000806130c26132e0565b9050610cd08184613ec1565b6002600054036131205760405162461bcd60e51b815260206004820152601f60248201527f5265656e7472616e637947756172643a207265656e7472616e742063616c6c0060448201526064016102c3565b6002600055565b80156131c2576000826001600160a01b03168260405160006040518083038185875af1925050503d806000811461317a576040519150601f19603f3d011682016040523d82523d6000602084013e61317f565b606091505b505090508061202a5760405162461bcd60e51b815260206004820152600f60248201526e1d1c985b9cd9995c8819985a5b1959608a1b60448201526064016102c3565b5050565b6040516001600160a01b03831660248201526044810182905261202a90849063a9059cbb60e01b906064015b60408051601f198184030181529190526020810180516001600160e01b03166001600160e01b031990931692909217909152613f61565b60405163d6b93a9f60e01b81526001600160a01b037f00000000000000000000000000000000000000000000000000000000000000008116600483015282811660248301526000917f00000000000000000000000000000000000000000000000000000000000000009091169063d6b93a9f90604401602060405180830381865afa1580156132bc573d6000803e3d6000fd5b505050506040513d601f19601f82011682018060405250810190610bab91906145b4565b6133206040518060e00160405280600081526020016000815260200160008152602001600081526020016000815260200160008152602001600081525090565b600060055490506000807f00000000000000000000000000000000000000000000000000000000000000006001600160a01b03166302312aec6040518163ffffffff1660e01b81526004016040805180830381865afa158015613387573d6000803e3d6000fd5b505050506040513d601f19601f820116820180604052508101906133ab9190614666565b915091506040518060e00160405280600160009054906101000a90046001600160a01b03166001600160a01b03166318160ddd6040518163ffffffff1660e01b8152600401602060405180830381865afa15801561340d573d6000803e3d6000fd5b505050506040513d601f19601f8201168201806040525081019061343191906143c5565b815260405163769bb15560e11b81526001600160a01b037f0000000000000000000000000000000000000000000000000000000000000000811660048301526020909201917f0000000000000000000000000000000000000000000000000000000000000000169063ed3762aa90602401602060405180830381865afa1580156134bf573d6000803e3d6000fd5b505050506040513d601f19601f820116820180604052508101906134e391906143c5565b81526020016006548152602001848152602001600454856135049190614536565b8152602081019390935260409092015292915050565b6001546040516370a0823160e01b81526001600160a01b03838116600483015260009283929116906370a0823190602401602060405180830381865afa158015613568573d6000803e3d6000fd5b505050506040513d601f19601f8201168201806040525081019061358c91906143c5565b9050806000036135a0576000915050610bab565b6001600160a01b038316600090815260036020526040812054908190036135c957509050610bab565b845160808601516000916135df91908590613628565b905060006135ed828461360e565b6080880151885191925061360391908390613628565b979650505050505050565b600081831161361e576000610cd0565b610cd08284614418565b600080821161366c5760405162461bcd60e51b815260206004820152601060248201526f4469766973696f6e206279207a65726f60801b60448201526064016102c3565b8360000361367c57506000610cd0565b8383028385828161368f5761368f61468a565b04036136ad578281816136a4576136a461468a565b04915050610cd0565b5060006136ba83866146a0565b905060006136c884876146b4565b905060006136d685876146a0565b905060006136e486886146b4565b9050856136f18285614566565b6136fb91906146a0565b6137058385614566565b61370f8387614566565b8861371a8689614566565b6137249190614566565b61372e9190614536565b6137389190614536565b6137429190614536565b98975050505050505050565b60025460009061376e9084908390600160a01b900463ffffffff1661383e565b156137e0576137d98360200151600260149054906101000a900463ffffffff1663ffffffff168560a001516137a39190614566565b6127108587604001516137b69190614418565b8760c001516137c59190614566565b6137cf9190614566565b610ccb91906146a0565b9050610bab565b604083015160208401516137d9918490613628565b6000806138028484613ec1565b6001600160a01b03841660009081526003602052604090205490915061383561382b838361360e565b8660600151613d8d565b95945050505050565b600061385e828560a0015186602001516138589190614566565b90614036565b8460c001518486604001516138739190614418565b61387d9190614566565b1015949350505050565b60008060006138968787613ec1565b6001600160a01b038781166000818152600360205260408082205460015491516370a0823160e01b81526004810194909452949550909216906370a0823190602401602060405180830381865afa1580156138f5573d6000803e3d6000fd5b505050506040513d601f19601f8201168201806040525081019061391991906143c5565b9050806000036139325760008094509450505050613a06565b600061393f848984613628565b90506000876002811115613955576139556146c8565b03613986576000613966858561360e565b90506139728282613d8d565b955061397e8683614418565b9650506139e5565b600187600281111561399a5761399a6146c8565b036139bc576139a98184613d8d565b95506139b58682614418565b94506139e5565b600084116139cb5760006139d6565b6139d6838286613628565b95506139e28682614418565b94505b6139f185600554613d8d565b94506139ff86600454613d8d565b9550505050505b94509492505050565b801561202a57306001600160a01b03841603613a71578060056000828254613a379190614418565b9091555061202a90506001600160a01b037f00000000000000000000000000000000000000000000000000000000000000001683836131c6565b8060056000828254613a839190614536565b9091555061202a90506001600160a01b037f000000000000000000000000000000000000000000000000000000000000000016848484613e89565b6001600160a01b03821660009081526003602052604081208054839290613ae6908490614418565b925050819055508060046000828254613aff9190614418565b90915550505050565b80156131c2578060066000828254613b209190614418565b90915550506002546131c2906001600160a01b031683836131c6565b6001600160a01b03821660009081526003602052604081208054839290613b64908490614536565b925050819055508060046000828254613aff9190614536565b600063ffffffff821115613be25760405162461bcd60e51b815260206004820152602660248201527f53616665436173743a2076616c756520646f65736e27742066697420696e203360448201526532206269747360d01b60648201526084016102c3565b5090565b600061ffff821115613be25760405162461bcd60e51b815260206004820152602660248201527f53616665436173743a2076616c756520646f65736e27742066697420696e203160448201526536206269747360d01b60648201526084016102c3565b600080836040015160001480613c5e57508351155b600254602086015160a0870151929350600092613c8c92600160c01b900463ffffffff169161385891614566565b905060008560c001518660400151613ca49190614566565b8211613cb1576000613ccf565b604086015160c0870151613cc590846146a0565b613ccf9190614418565b90506000613cdd8683613d8d565b90506000613ceb878361360e565b600254909150600090613d0e90849061271090600160e01b900461ffff16613628565b9050600086613d2e5760408a01518a51613d29918490613628565b613d30565b815b90506000878015613d3f575081155b613d7057613d6b84868d60400151613d579190614536565b8d51613d64908690614536565b9190613628565b613d72565b835b9050613d7e8183614536565b9b9a5050505050505050505050565b6000818310613d9c5781610cd0565b5090919050565b341561232b573460066000828254613dbb9190614536565b909155505060025460408051630d0e30db60e41b815290516001600160a01b039092169163d0e30db0913491600480830192600092919082900301818588803b1580156114d857600080fd5b600254600090613e279084908390600160a01b900463ffffffff1661383e565b15613e74576137d983604001518460c001516137cf600260149054906101000a900463ffffffff1663ffffffff16868860200151613e659190614418565b8860a001516138589190614566565b602083015160408401516137d9918490613628565b6040516001600160a01b038085166024830152831660448201526064810182905261163d9085906323b872dd60e01b906084016131f2565b6001546040516370a0823160e01b81526001600160a01b03838116600483015260009283929116906370a0823190602401602060405180830381865afa158015613f0f573d6000803e3d6000fd5b505050506040513d601f19601f82011682018060405250810190613f3391906143c5565b905080600003613f47576000915050610bab565b83516080850151613f59918390613628565b949350505050565b6000613fb6826040518060400160405280602081526020017f5361666545524332303a206c6f772d6c6576656c2063616c6c206661696c6564815250856001600160a01b03166140459092919063ffffffff16565b9050805160001480613fd7575080806020019051810190613fd791906145b4565b61202a5760405162461bcd60e51b815260206004820152602a60248201527f5361666545524332303a204552433230206f7065726174696f6e20646964206e6044820152691bdd081cdd58d8d9595960b21b60648201526084016102c3565b6000610cd08383612710613628565b6060613f59848460008585600080866001600160a01b0316858760405161406c91906146de565b60006040518083038185875af1925050503d80600081146140a9576040519150601f19603f3d011682016040523d82523d6000602084013e6140ae565b606091505b50915091506136038783838760608315614129578251600003614122576001600160a01b0385163b6141225760405162461bcd60e51b815260206004820152601d60248201527f416464726573733a2063616c6c20746f206e6f6e2d636f6e747261637400000060448201526064016102c3565b5081613f59565b613f59838381511561413e5781518083602001fd5b8060405162461bcd60e51b81526004016102c391906146fa565b6001600160a01b0381168114610b5c57600080fd5b803561417881614158565b919050565b60006020828403121561418f57600080fd5b8135610cd081614158565b6000602082840312156141ac57600080fd5b81356001600160e01b031981168114610cd057600080fd5b600080604083850312156141d757600080fd5b82356141e281614158565b946020939093013593505050565b60006020828403121561420257600080fd5b5035919050565b6000806040838503121561421c57600080fd5b8235915060208301356003811061423257600080fd5b809150509250929050565b8015158114610b5c57600080fd5b6000806040838503121561425e57600080fd5b8235915060208301356142328161423d565b60008060006060848603121561428557600080fd5b833561429081614158565b95602085013595506040909401359392505050565b634e487b7160e01b600052604160045260246000fd5b600080600080608085870312156142d157600080fd5b8435935060208501356142e38161423d565b9250604085013567ffffffffffffffff8082111561430057600080fd5b818701915087601f83011261431457600080fd5b813581811115614326576143266142a5565b604051601f8201601f19908116603f0116810190838211818310171561434e5761434e6142a5565b816040528281528a602084870101111561436757600080fd5b82602086016020830137600060208483010152809650505050505061438e6060860161416d565b905092959194509250565b60208082526012908201527137b7363c9030b9b9b2ba1036b0b730b3b2b960711b604082015260600190565b6000602082840312156143d757600080fd5b5051919050565b6020808252600a90820152691bdb9b1e481859d95b9d60b21b604082015260600190565b634e487b7160e01b600052601160045260246000fd5b81810381811115610bab57610bab614402565b60208082526034908201527f746f6b656e20737570706c79206c656674206166746572206578697420697320604082015273746f6f206c6f7720616e64206e6f6e2d7a65726f60601b606082015260800190565b60208082526022908201527f616d6f756e74206f662073656e7420746f6b656e7320697320746f6f20736d616040820152611b1b60f21b606082015260800190565b60208082526032908201527f636f6c6c61746572616c206c656674206166746572206578697420697320746f6040820152716f206c6f7720616e64206e6f6e2d7a65726f60701b606082015260800190565b6001600160a01b0393909316835260208301919091521515604082015260600190565b80820180821115610bab57610bab614402565b60006020828403121561455b57600080fd5b8151610cd081614158565b8082028115828204841417610bab57610bab614402565b6020808252601b908201527f662d617373657420616c6c6f77616e636520746f6f20736d616c6c0000000000604082015260600190565b6000602082840312156145c657600080fd5b8151610cd08161423d565b60005b838110156145ec5781810151838201526020016145d4565b50506000910152565b6000815180845261460d8160208601602086016145d1565b601f01601f19169290920160200192915050565b600060018060a01b038088168352808716602084015285604084015260a0606084015261465160a08401866145f5565b91508084166080840152509695505050505050565b6000806040838503121561467957600080fd5b505080516020909101519092909150565b634e487b7160e01b600052601260045260246000fd5b6000826146af576146af61468a565b500490565b6000826146c3576146c361468a565b500690565b634e487b7160e01b600052602160045260246000fd5b600082516146f08184602087016145d1565b9190910192915050565b602081526000610cd060208301846145f556fe3cbd229dedaa8b29b8f29100166a217701549be8e58e781f204124f23fd0154ea26469706673582212205d399947adff7d1ed248be6a4f1393ad0a78c4de99df81326715dc14cbd62f9b64736f6c63430008140033",
  "linkReferences": {},
  "deployedLinkReferences": {}
}