{
  "_format": "hh-sol-artifact-1",
  "contractName": "CollateralPoolFactory",
  "sourceName": "contracts/assetManager/implementation/CollateralPoolFactory.sol",
  "abi": [
    {
      "inputs": [
        {
          "internalType": "address",
          "name": "_implementation",
          "type": "address"
        }
      ],
      "stateMutability": "nonpayable",
      "type": "constructor"
    },
    {
      "inputs": [
        {
          "internalType": "contract IIAssetManager",
          "name": "_assetManager",
          "type": "address"
        },
        {
          "internalType": "address",
          "name": "_agentVault",
          "type": "address"
        },
        {
          "components": [
            {
              "internalType": "contract IERC20",
              "name": "vaultCollateralToken",
              "type": "address"
            },
            {
              "internalType": "string",
              "name": "poolTokenSuffix",
              "type": "string"
            },
            {
              "internalType": "uint256",
              "name": "feeBIPS",
              "type": "uint256"
            },
            {
              "internalType": "uint256",
              "name": "poolFeeShareBIPS",
              "type": "uint256"
            },
            {
              "internalType": "uint256",
              "name": "mintingVaultCollateralRatioBIPS",
              "type": "uint256"
            },
            {
              "internalType": "uint256",
              "name": "mintingPoolCollateralRatioBIPS",
              "type": "uint256"
            },
            {
              "internalType": "uint256",
              "name": "buyFAssetByAgentFactorBIPS",
              "type": "uint256"
            },
            {
              "internalType": "uint256",
              "name": "poolExitCollateralRatioBIPS",
              "type": "uint256"
            },
            {
              "internalType": "uint256",
              "name": "poolTopupCollateralRatioBIPS",
              "type": "uint256"
            },
            {
              "internalType": "uint256",
              "name": "poolTopupTokenPriceFactorBIPS",
              "type": "uint256"
            },
            {
              "internalType": "uint256",
              "name": "handshakeType",
              "type": "uint256"
            }
          ],
          "internalType": "struct AgentSettings.Data",
          "name": "_settings",
          "type": "tuple"
        }
      ],
      "name": "create",
      "outputs": [
        {
          "internalType": "contract IICollateralPool",
          "name": "",
          "type": "address"
        }
      ],
      "stateMutability": "nonpayable",
      "type": "function"
    },
    {
      "inputs": [],
      "name": "implementation",
      "outputs": [
        {
          "internalType": "address",
          "name": "",
          "type": "address"
        }
      ],
      "stateMutability": "view",
      "type": "function"
    },
    {
      "inputs": [
        {
          "internalType": "bytes4",
          "name": "_interfaceId",
          "type": "bytes4"
        }
      ],
      "name": "supportsInterface",
      "outputs": [
        {
          "internalType": "bool",
          "name": "",
          "type": "bool"
        }
      ],
      "stateMutability": "pure",
      "type": "function"
    },
    {
      "inputs": [
        {
          "internalType": "address",
          "name": "",
          "type": "address"
        }
      ],
      "name": "upgradeInitCall",
      "outputs": [
        {
          "internalType": "bytes",
          "name": "",
          "type": "bytes"
        }
      ],
      "stateMutability": "pure",
      "type": "function"
    }
  ],
  "bytecode": "0x608060405234801561001057600080fd5b50604051610c75380380610c7583398101604081905261002f91610054565b600080546001600160a01b0319166001600160a01b0392909216919091179055610084565b60006020828403121561006657600080fd5b81516001600160a01b038116811461007d57600080fd5b9392505050565b610be2806100936000396000f3fe60806040523480156200001157600080fd5b5060043610620000525760003560e01c806301ffc9a7146200005757806308456fd2146200008357806309825b9514620000b65780635c60da1b14620000e6575b600080fd5b6200006e62000068366004620003b3565b620000fa565b60405190151581526020015b60405180910390f35b620000a762000094366004620003ff565b5060408051600081526020810190915290565b6040516200007a919062000467565b620000cd620000c736600462000566565b62000132565b6040516001600160a01b0390911681526020016200007a565b600054620000cd906001600160a01b031681565b60006001600160e01b031982166301ffc9a760e01b14806200012c57506001600160e01b031982166309825b9560e01b145b92915050565b600080846001600160a01b0316637c7db1a56040518163ffffffff1660e01b8152600401602060405180830381865afa15801562000174573d6000803e3d6000fd5b505050506040513d601f19601f820116820180604052508101906200019a91906200067d565b6000805460408051838152602081019182905293945091926001600160a01b0390911691620001c990620003a5565b620001d69291906200069d565b604051809103906000f080158015620001f3573d6000803e3d6000fd5b5090506000819050806001600160a01b031663e69169068789866200021c8a60e00151620002d1565b6200022c8b6101000151620002d1565b6200023c8c610120015162000340565b6040516001600160e01b031960e089901b1681526001600160a01b039687166004820152948616602486015294909216604484015263ffffffff908116606484015216608482015261ffff90911660a482015260c401600060405180830381600087803b158015620002ad57600080fd5b505af1158015620002c2573d6000803e3d6000fd5b50929998505050505050505050565b600063ffffffff8211156200033c5760405162461bcd60e51b815260206004820152602660248201527f53616665436173743a2076616c756520646f65736e27742066697420696e203360448201526532206269747360d01b60648201526084015b60405180910390fd5b5090565b600061ffff8211156200033c5760405162461bcd60e51b815260206004820152602660248201527f53616665436173743a2076616c756520646f65736e27742066697420696e203160448201526536206269747360d01b606482015260840162000333565b6104e180620006cc83390190565b600060208284031215620003c657600080fd5b81356001600160e01b031981168114620003df57600080fd5b9392505050565b6001600160a01b0381168114620003fc57600080fd5b50565b6000602082840312156200041257600080fd5b8135620003df81620003e6565b6000815180845260005b81811015620004475760208185018101518683018201520162000429565b506000602082860101526020601f19601f83011685010191505092915050565b602081526000620003df60208301846200041f565b634e487b7160e01b600052604160045260246000fd5b604051610160810167ffffffffffffffff81118282101715620004b957620004b96200047c565b60405290565b8035620004cc81620003e6565b919050565b600082601f830112620004e357600080fd5b813567ffffffffffffffff808211156200050157620005016200047c565b604051601f8301601f19908116603f011681019082821181831017156200052c576200052c6200047c565b816040528381528660208588010111156200054657600080fd5b836020870160208301376000602085830101528094505050505092915050565b6000806000606084860312156200057c57600080fd5b83356200058981620003e6565b925060208401356200059b81620003e6565b9150604084013567ffffffffffffffff80821115620005b957600080fd5b908501906101608288031215620005cf57600080fd5b620005d962000492565b620005e483620004bf565b8152602083013582811115620005f957600080fd5b6200060789828601620004d1565b60208301525060408301356040820152606083013560608201526080830135608082015260a083013560a082015260c083013560c082015260e083013560e08201526101009150818301358282015261012091508183013582820152610140915081830135828201528093505050509250925092565b6000602082840312156200069057600080fd5b8151620003df81620003e6565b6001600160a01b0383168152604060208201819052600090620006c3908301846200041f565b94935050505056fe60806040526040516104e13803806104e1833981016040819052610022916102de565b61002e82826000610035565b50506103fb565b61003e83610061565b60008251118061004b5750805b1561005c5761005a83836100a1565b505b505050565b61006a816100cd565b6040516001600160a01b038216907fbc7cd75a20ee27fd9adebab32041f755214dbc6bffa90cc0225b39da2e5c2d3b90600090a250565b60606100c683836040518060600160405280602781526020016104ba60279139610180565b9392505050565b6001600160a01b0381163b61013f5760405162461bcd60e51b815260206004820152602d60248201527f455243313936373a206e657720696d706c656d656e746174696f6e206973206e60448201526c1bdd08184818dbdb9d1c9858dd609a1b60648201526084015b60405180910390fd5b7f360894a13ba1a3210667c828492db98dca3e2076cc3735a920a3ca505d382bbc80546001600160a01b0319166001600160a01b0392909216919091179055565b6060600080856001600160a01b03168560405161019d91906103ac565b600060405180830381855af49150503d80600081146101d8576040519150601f19603f3d011682016040523d82523d6000602084013e6101dd565b606091505b5090925090506101ef868383876101f9565b9695505050505050565b60608315610268578251600003610261576001600160a01b0385163b6102615760405162461bcd60e51b815260206004820152601d60248201527f416464726573733a2063616c6c20746f206e6f6e2d636f6e74726163740000006044820152606401610136565b5081610272565b610272838361027a565b949350505050565b81511561028a5781518083602001fd5b8060405162461bcd60e51b815260040161013691906103c8565b634e487b7160e01b600052604160045260246000fd5b60005b838110156102d55781810151838201526020016102bd565b50506000910152565b600080604083850312156102f157600080fd5b82516001600160a01b038116811461030857600080fd5b60208401519092506001600160401b038082111561032557600080fd5b818501915085601f83011261033957600080fd5b81518181111561034b5761034b6102a4565b604051601f8201601f19908116603f01168101908382118183101715610373576103736102a4565b8160405282815288602084870101111561038c57600080fd5b61039d8360208301602088016102ba565b80955050505050509250929050565b600082516103be8184602087016102ba565b9190910192915050565b60208152600082518060208401526103e78160408501602087016102ba565b601f01601f19169190910160400192915050565b60b1806104096000396000f3fe608060405236601057600e6013565b005b600e5b601f601b6021565b6058565b565b600060537f360894a13ba1a3210667c828492db98dca3e2076cc3735a920a3ca505d382bbc546001600160a01b031690565b905090565b3660008037600080366000845af43d6000803e8080156076573d6000f35b3d6000fdfea26469706673582212202954619721d435d987562d73d2e7f61539d0b80c0bc82f24a1384cb5d9b1c0f764736f6c63430008170033416464726573733a206c6f772d6c6576656c2064656c65676174652063616c6c206661696c6564a2646970667358221220d0565776142b0ecd8b2b9f2fc8042307476e1b766816a09344da091830fa5ed764736f6c63430008170033",
  "linkReferences": {},
  "deployedLinkReferences": {}
}