{
  "_format": "hh-sol-artifact-1",
  "contractName": "FAsset",
  "sourceName": "contracts/fassetToken/implementation/FAsset.sol",
  "abi": [
    {
      "inputs": [],
      "stateMutability": "nonpayable",
      "type": "constructor"
    },
    {
      "anonymous": false,
      "inputs": [
        {
          "indexed": false,
          "internalType": "address",
          "name": "previousAdmin",
          "type": "address"
        },
        {
          "indexed": false,
          "internalType": "address",
          "name": "newAdmin",
          "type": "address"
        }
      ],
      "name": "AdminChanged",
      "type": "event"
    },
    {
      "anonymous": false,
      "inputs": [
        {
          "indexed": true,
          "internalType": "address",
          "name": "owner",
          "type": "address"
        },
        {
          "indexed": true,
          "internalType": "address",
          "name": "spender",
          "type": "address"
        },
        {
          "indexed": false,
          "internalType": "uint256",
          "name": "value",
          "type": "uint256"
        }
      ],
      "name": "Approval",
      "type": "event"
    },
    {
      "anonymous": false,
      "inputs": [
        {
          "indexed": true,
          "internalType": "address",
          "name": "beacon",
          "type": "address"
        }
      ],
      "name": "BeaconUpgraded",
      "type": "event"
    },
    {
      "anonymous": false,
      "inputs": [
        {
          "indexed": false,
          "internalType": "uint256",
          "name": "_blockNumber",
          "type": "uint256"
        }
      ],
      "name": "CreatedTotalSupplyCache",
      "type": "event"
    },
    {
      "anonymous": false,
      "inputs": [
        {
          "indexed": true,
          "internalType": "address",
          "name": "from",
          "type": "address"
        },
        {
          "indexed": true,
          "internalType": "address",
          "name": "to",
          "type": "address"
        },
        {
          "indexed": false,
          "internalType": "uint256",
          "name": "value",
          "type": "uint256"
        }
      ],
      "name": "Transfer",
      "type": "event"
    },
    {
      "anonymous": false,
      "inputs": [
        {
          "indexed": true,
          "internalType": "address",
          "name": "implementation",
          "type": "address"
        }
      ],
      "name": "Upgraded",
      "type": "event"
    },
    {
      "inputs": [
        {
          "internalType": "address",
          "name": "owner",
          "type": "address"
        },
        {
          "internalType": "address",
          "name": "spender",
          "type": "address"
        }
      ],
      "name": "allowance",
      "outputs": [
        {
          "internalType": "uint256",
          "name": "",
          "type": "uint256"
        }
      ],
      "stateMutability": "view",
      "type": "function"
    },
    {
      "inputs": [
        {
          "internalType": "address",
          "name": "spender",
          "type": "address"
        },
        {
          "internalType": "uint256",
          "name": "amount",
          "type": "uint256"
        }
      ],
      "name": "approve",
      "outputs": [
        {
          "internalType": "bool",
          "name": "",
          "type": "bool"
        }
      ],
      "stateMutability": "nonpayable",
      "type": "function"
    },
    {
      "inputs": [],
      "name": "assetManager",
      "outputs": [
        {
          "internalType": "address",
          "name": "",
          "type": "address"
        }
      ],
      "stateMutability": "view",
      "type": "function"
    },
    {
      "inputs": [],
      "name": "assetName",
      "outputs": [
        {
          "internalType": "string",
          "name": "",
          "type": "string"
        }
      ],
      "stateMutability": "view",
      "type": "function"
    },
    {
      "inputs": [],
      "name": "assetSymbol",
      "outputs": [
        {
          "internalType": "string",
          "name": "",
          "type": "string"
        }
      ],
      "stateMutability": "view",
      "type": "function"
    },
    {
      "inputs": [
        {
          "internalType": "address",
          "name": "_owner",
          "type": "address"
        },
        {
          "internalType": "uint256",
          "name": "_count",
          "type": "uint256"
        }
      ],
      "name": "balanceHistoryCleanup",
      "outputs": [
        {
          "internalType": "uint256",
          "name": "",
          "type": "uint256"
        }
      ],
      "stateMutability": "nonpayable",
      "type": "function"
    },
    {
      "inputs": [
        {
          "internalType": "address",
          "name": "account",
          "type": "address"
        }
      ],
      "name": "balanceOf",
      "outputs": [
        {
          "internalType": "uint256",
          "name": "",
          "type": "uint256"
        }
      ],
      "stateMutability": "view",
      "type": "function"
    },
    {
      "inputs": [
        {
          "internalType": "address",
          "name": "_owner",
          "type": "address"
        },
        {
          "internalType": "uint256",
          "name": "_blockNumber",
          "type": "uint256"
        }
      ],
      "name": "balanceOfAt",
      "outputs": [
        {
          "internalType": "uint256",
          "name": "_balance",
          "type": "uint256"
        }
      ],
      "stateMutability": "view",
      "type": "function"
    },
    {
      "inputs": [
        {
          "internalType": "address",
          "name": "_owner",
          "type": "address"
        },
        {
          "internalType": "uint256",
          "name": "_amount",
          "type": "uint256"
        }
      ],
      "name": "burn",
      "outputs": [],
      "stateMutability": "nonpayable",
      "type": "function"
    },
    {
      "inputs": [],
      "name": "cleanerContract",
      "outputs": [
        {
          "internalType": "address",
          "name": "",
          "type": "address"
        }
      ],
      "stateMutability": "view",
      "type": "function"
    },
    {
      "inputs": [],
      "name": "cleanupBlockNumber",
      "outputs": [
        {
          "internalType": "uint256",
          "name": "",
          "type": "uint256"
        }
      ],
      "stateMutability": "view",
      "type": "function"
    },
    {
      "inputs": [],
      "name": "cleanupBlockNumberManager",
      "outputs": [
        {
          "internalType": "address",
          "name": "",
          "type": "address"
        }
      ],
      "stateMutability": "view",
      "type": "function"
    },
    {
      "inputs": [],
      "name": "decimals",
      "outputs": [
        {
          "internalType": "uint8",
          "name": "",
          "type": "uint8"
        }
      ],
      "stateMutability": "view",
      "type": "function"
    },
    {
      "inputs": [
        {
          "internalType": "address",
          "name": "spender",
          "type": "address"
        },
        {
          "internalType": "uint256",
          "name": "subtractedValue",
          "type": "uint256"
        }
      ],
      "name": "decreaseAllowance",
      "outputs": [
        {
          "internalType": "bool",
          "name": "",
          "type": "bool"
        }
      ],
      "stateMutability": "nonpayable",
      "type": "function"
    },
    {
      "inputs": [
        {
          "internalType": "address",
          "name": "",
          "type": "address"
        },
        {
          "internalType": "address",
          "name": "",
          "type": "address"
        },
        {
          "internalType": "uint256",
          "name": "_sentAmount",
          "type": "uint256"
        }
      ],
      "name": "getReceivedAmount",
      "outputs": [
        {
          "internalType": "uint256",
          "name": "_receivedAmount",
          "type": "uint256"
        },
        {
          "internalType": "uint256",
          "name": "_feeAmount",
          "type": "uint256"
        }
      ],
      "stateMutability": "view",
      "type": "function"
    },
    {
      "inputs": [
        {
          "internalType": "address",
          "name": "",
          "type": "address"
        },
        {
          "internalType": "address",
          "name": "",
          "type": "address"
        },
        {
          "internalType": "uint256",
          "name": "_receivedAmount",
          "type": "uint256"
        }
      ],
      "name": "getSendAmount",
      "outputs": [
        {
          "internalType": "uint256",
          "name": "_sendAmount",
          "type": "uint256"
        },
        {
          "internalType": "uint256",
          "name": "_feeAmount",
          "type": "uint256"
        }
      ],
      "stateMutability": "view",
      "type": "function"
    },
    {
      "inputs": [],
      "name": "implementation",
      "outputs": [
        {
          "internalType": "address",
          "name": "",
          "type": "address"
        }
      ],
      "stateMutability": "view",
      "type": "function"
    },
    {
      "inputs": [
        {
          "internalType": "address",
          "name": "spender",
          "type": "address"
        },
        {
          "internalType": "uint256",
          "name": "addedValue",
          "type": "uint256"
        }
      ],
      "name": "increaseAllowance",
      "outputs": [
        {
          "internalType": "bool",
          "name": "",
          "type": "bool"
        }
      ],
      "stateMutability": "nonpayable",
      "type": "function"
    },
    {
      "inputs": [
        {
          "internalType": "string",
          "name": "name_",
          "type": "string"
        },
        {
          "internalType": "string",
          "name": "symbol_",
          "type": "string"
        },
        {
          "internalType": "string",
          "name": "assetName_",
          "type": "string"
        },
        {
          "internalType": "string",
          "name": "assetSymbol_",
          "type": "string"
        },
        {
          "internalType": "uint8",
          "name": "decimals_",
          "type": "uint8"
        }
      ],
      "name": "initialize",
      "outputs": [],
      "stateMutability": "nonpayable",
      "type": "function"
    },
    {
      "inputs": [
        {
          "internalType": "address",
          "name": "_owner",
          "type": "address"
        },
        {
          "internalType": "uint256",
          "name": "_amount",
          "type": "uint256"
        }
      ],
      "name": "mint",
      "outputs": [],
      "stateMutability": "nonpayable",
      "type": "function"
    },
    {
      "inputs": [],
      "name": "name",
      "outputs": [
        {
          "internalType": "string",
          "name": "",
          "type": "string"
        }
      ],
      "stateMutability": "view",
      "type": "function"
    },
    {
      "inputs": [],
      "name": "proxiableUUID",
      "outputs": [
        {
          "internalType": "bytes32",
          "name": "",
          "type": "bytes32"
        }
      ],
      "stateMutability": "view",
      "type": "function"
    },
    {
      "inputs": [
        {
          "internalType": "address",
          "name": "_assetManager",
          "type": "address"
        }
      ],
      "name": "setAssetManager",
      "outputs": [],
      "stateMutability": "nonpayable",
      "type": "function"
    },
    {
      "inputs": [
        {
          "internalType": "address",
          "name": "_cleanerContract",
          "type": "address"
        }
      ],
      "name": "setCleanerContract",
      "outputs": [],
      "stateMutability": "nonpayable",
      "type": "function"
    },
    {
      "inputs": [
        {
          "internalType": "uint256",
          "name": "_blockNumber",
          "type": "uint256"
        }
      ],
      "name": "setCleanupBlockNumber",
      "outputs": [],
      "stateMutability": "nonpayable",
      "type": "function"
    },
    {
      "inputs": [
        {
          "internalType": "address",
          "name": "_cleanupBlockNumberManager",
          "type": "address"
        }
      ],
      "name": "setCleanupBlockNumberManager",
      "outputs": [],
      "stateMutability": "nonpayable",
      "type": "function"
    },
    {
      "inputs": [
        {
          "internalType": "bytes4",
          "name": "_interfaceId",
          "type": "bytes4"
        }
      ],
      "name": "supportsInterface",
      "outputs": [
        {
          "internalType": "bool",
          "name": "",
          "type": "bool"
        }
      ],
      "stateMutability": "pure",
      "type": "function"
    },
    {
      "inputs": [],
      "name": "symbol",
      "outputs": [
        {
          "internalType": "string",
          "name": "",
          "type": "string"
        }
      ],
      "stateMutability": "view",
      "type": "function"
    },
    {
      "inputs": [],
      "name": "terminate",
      "outputs": [],
      "stateMutability": "nonpayable",
      "type": "function"
    },
    {
      "inputs": [],
      "name": "terminated",
      "outputs": [
        {
          "internalType": "bool",
          "name": "",
          "type": "bool"
        }
      ],
      "stateMutability": "view",
      "type": "function"
    },
    {
      "inputs": [],
      "name": "terminatedAt",
      "outputs": [
        {
          "internalType": "uint64",
          "name": "",
          "type": "uint64"
        }
      ],
      "stateMutability": "view",
      "type": "function"
    },
    {
      "inputs": [],
      "name": "totalSupply",
      "outputs": [
        {
          "internalType": "uint256",
          "name": "",
          "type": "uint256"
        }
      ],
      "stateMutability": "view",
      "type": "function"
    },
    {
      "inputs": [
        {
          "internalType": "uint256",
          "name": "_blockNumber",
          "type": "uint256"
        }
      ],
      "name": "totalSupplyAt",
      "outputs": [
        {
          "internalType": "uint256",
          "name": "_totalSupply",
          "type": "uint256"
        }
      ],
      "stateMutability": "view",
      "type": "function"
    },
    {
      "inputs": [
        {
          "internalType": "uint256",
          "name": "_count",
          "type": "uint256"
        }
      ],
      "name": "totalSupplyHistoryCleanup",
      "outputs": [
        {
          "internalType": "uint256",
          "name": "",
          "type": "uint256"
        }
      ],
      "stateMutability": "nonpayable",
      "type": "function"
    },
    {
      "inputs": [
        {
          "internalType": "address",
          "name": "_to",
          "type": "address"
        },
        {
          "internalType": "uint256",
          "name": "_amount",
          "type": "uint256"
        }
      ],
      "name": "transfer",
      "outputs": [
        {
          "internalType": "bool",
          "name": "",
          "type": "bool"
        }
      ],
      "stateMutability": "nonpayable",
      "type": "function"
    },
    {
      "inputs": [
        {
          "internalType": "address",
          "name": "_to",
          "type": "address"
        },
        {
          "internalType": "uint256",
          "name": "_amount",
          "type": "uint256"
        }
      ],
      "name": "transferExactDest",
      "outputs": [
        {
          "internalType": "bool",
          "name": "",
          "type": "bool"
        }
      ],
      "stateMutability": "nonpayable",
      "type": "function"
    },
    {
      "inputs": [
        {
          "internalType": "address",
          "name": "_from",
          "type": "address"
        },
        {
          "internalType": "address",
          "name": "_to",
          "type": "address"
        },
        {
          "internalType": "uint256",
          "name": "_amount",
          "type": "uint256"
        }
      ],
      "name": "transferExactDestFrom",
      "outputs": [
        {
          "internalType": "bool",
          "name": "",
          "type": "bool"
        }
      ],
      "stateMutability": "nonpayable",
      "type": "function"
    },
    {
      "inputs": [
        {
          "internalType": "address",
          "name": "_from",
          "type": "address"
        },
        {
          "internalType": "address",
          "name": "_to",
          "type": "address"
        },
        {
          "internalType": "uint256",
          "name": "_amount",
          "type": "uint256"
        }
      ],
      "name": "transferFrom",
      "outputs": [
        {
          "internalType": "bool",
          "name": "",
          "type": "bool"
        }
      ],
      "stateMutability": "nonpayable",
      "type": "function"
    },
    {
      "inputs": [
        {
          "internalType": "address",
          "name": "_to",
          "type": "address"
        },
        {
          "internalType": "uint256",
          "name": "_amount",
          "type": "uint256"
        }
      ],
      "name": "transferInternally",
      "outputs": [],
      "stateMutability": "nonpayable",
      "type": "function"
    },
    {
      "inputs": [
        {
          "internalType": "address",
          "name": "newImplementation",
          "type": "address"
        }
      ],
      "name": "upgradeTo",
      "outputs": [],
      "stateMutability": "nonpayable",
      "type": "function"
    },
    {
      "inputs": [
        {
          "internalType": "address",
          "name": "newImplementation",
          "type": "address"
        },
        {
          "internalType": "bytes",
          "name": "data",
          "type": "bytes"
        }
      ],
      "name": "upgradeToAndCall",
      "outputs": [],
      "stateMutability": "payable",
      "type": "function"
    }
  ],
  "bytecode": "0x60a060405230608052600d8054600160a01b600160e01b03191690553480156200002857600080fd5b5060408051602080820183526000808352835191820190935291825290600362000053838262000125565b50600462000062828262000125565b50506010805460ff60a81b1916600160a81b17905550620001f1565b634e487b7160e01b600052604160045260246000fd5b600181811c90821680620000a957607f821691505b602082108103620000ca57634e487b7160e01b600052602260045260246000fd5b50919050565b601f82111562000120576000816000526020600020601f850160051c81016020861015620000fb5750805b601f850160051c820191505b818110156200011c5782815560010162000107565b5050505b505050565b81516001600160401b038111156200014157620001416200007e565b620001598162000152845462000094565b84620000d0565b602080601f831160018114620001915760008415620001785750858301515b600019600386901b1c1916600185901b1785556200011c565b600085815260208120601f198616915b82811015620001c257888601518255948401946001909101908401620001a1565b5085821015620001e15787850151600019600388901b60f8161c191681555b5050505050600190811b01905550565b6080516131996200022960003960008181610b1d01528181610b5d01528181610da801528181610de80152610e6001526131996000f3fe6080604052600436106102465760003560e01c806352d1902d116101395780639dc29fac116100b6578063c9230c5d1161007a578063c9230c5d146106ea578063dd62ed3e146106ff578063deea13e71461071f578063f0e292c914610734578063f62f8f3a14610754578063f6a494af1461077457600080fd5b80639dc29fac1461062b5780639e3bc2081461064b578063a457c2d71461068a578063a55b580e146106aa578063a9059cbb146106ca57600080fd5b806394217ad1116100fd57806394217ad11461059657806395d89b41146105b65780639734586e146105cb578063981b24d0146105eb5780639ca20e4e1461060b57600080fd5b806352d1902d146104f65780635c60da1b1461050b57806370a08231146105205780637cfc672b146105565780637f4fcaa91461057657600080fd5b806323b872dd116101c757806340c10f191161018b57806340c10f191461044b578063430602371461046b5780634eac870f1461048b5780634ee2cd7e146104c35780634f1ef286146104e357600080fd5b806323b872dd14610394578063313ce567146103b45780633659cfe6146103d6578063388b62b0146103f6578063395093511461042b57600080fd5b8063176de7a81161020e578063176de7a8146102f957806318160ddd1461030e578063194307bf1461032d5780631cb8f94f146103545780632335f3941461037457600080fd5b806301ffc9a71461024b57806306fdde0314610280578063095ea7b3146102a25780630c08bf88146102c257806313de97f5146102d9575b600080fd5b34801561025757600080fd5b5061026b610266366004612aa3565b610794565b60405190151581526020015b60405180910390f35b34801561028c57600080fd5b50610295610852565b6040516102779190612af1565b3480156102ae57600080fd5b5061026b6102bd366004612b3b565b6108e4565b3480156102ce57600080fd5b506102d76108fc565b005b3480156102e557600080fd5b506102d76102f4366004612b65565b610971565b34801561030557600080fd5b506102956109d7565b34801561031a57600080fd5b506002545b604051908152602001610277565b34801561033957600080fd5b50600d54600160a01b90046001600160401b0316151561026b565b34801561036057600080fd5b506102d761036f366004612b3b565b610a65565b34801561038057600080fd5b5061026b61038f366004612b3b565b610a9e565b3480156103a057600080fd5b5061026b6103af366004612b7e565b610acd565b3480156103c057600080fd5b5060105460405160ff9091168152602001610277565b3480156103e257600080fd5b506102d76103f1366004612bba565b610b13565b34801561040257600080fd5b50610416610411366004612b7e565b610bd8565b60408051928352602083019190915201610277565b34801561043757600080fd5b5061026b610446366004612b3b565b610bfa565b34801561045757600080fd5b506102d7610466366004612b3b565b610c1c565b34801561047757600080fd5b506102d7610486366004612bba565b610c50565b34801561049757600080fd5b50600c546104ab906001600160a01b031681565b6040516001600160a01b039091168152602001610277565b3480156104cf57600080fd5b5061031f6104de366004612b3b565b610d65565b6102d76104f1366004612c60565b610d9e565b34801561050257600080fd5b5061031f610e53565b34801561051757600080fd5b506104ab610f06565b34801561052c57600080fd5b5061031f61053b366004612bba565b6001600160a01b031660009081526020819052604090205490565b34801561056257600080fd5b506102d7610571366004612ce1565b610f15565b34801561058257600080fd5b506102d7610591366004612bba565b610fce565b3480156105a257600080fd5b50600d546104ab906001600160a01b031681565b3480156105c257600080fd5b5061029561101a565b3480156105d757600080fd5b5061026b6105e6366004612b7e565b611029565b3480156105f757600080fd5b5061031f610606366004612b65565b611057565b34801561061757600080fd5b506009546104ab906001600160a01b031681565b34801561063757600080fd5b506102d7610646366004612b3b565b611090565b34801561065757600080fd5b50600d5461067290600160a01b90046001600160401b031681565b6040516001600160401b039091168152602001610277565b34801561069657600080fd5b5061026b6106a5366004612b3b565b6110c4565b3480156106b657600080fd5b506104166106c5366004612b7e565b61113f565b3480156106d657600080fd5b5061026b6106e5366004612b3b565b611157565b3480156106f657600080fd5b50610295611175565b34801561070b57600080fd5b5061031f61071a366004612da8565b611182565b34801561072b57600080fd5b5061031f6111ad565b34801561074057600080fd5b5061031f61074f366004612b3b565b6111b8565b34801561076057600080fd5b5061031f61076f366004612b65565b611220565b34801561078057600080fd5b506102d761078f366004612bba565b61128b565b60006001600160e01b031982166301ffc9a760e01b14806107c557506001600160e01b031982166336372b0760e01b145b806107e057506001600160e01b0319821663a219a02560e01b145b806107fb57506001600160e01b03198216636b7cf4d760e11b145b8061081657506001600160e01b03198216637afd07df60e01b145b8061083157506001600160e01b03198216633f1426f560e21b145b8061084c57506001600160e01b03198216633b9010bd60e01b145b92915050565b6060600e805461086190612ddb565b80601f016020809104026020016040519081016040528092919081815260200182805461088d90612ddb565b80156108da5780601f106108af576101008083540402835291602001916108da565b820191906000526020600020905b8154815290600101906020018083116108bd57829003601f168201915b5050505050905090565b6000336108f28185856112d3565b5060019392505050565b600d546001600160a01b0316331461092f5760405162461bcd60e51b815260040161092690612e0f565b60405180910390fd5b600d54600160a01b90046001600160401b031660000361096f57600d805467ffffffffffffffff60a01b1916600160a01b426001600160401b0316021790555b565b600c546001600160a01b031633146109cb5760405162461bcd60e51b815260206004820152601a60248201527f6f6e6c7920636c65616e757020626c6f636b206d616e616765720000000000006044820152606401610926565b6109d4816113f7565b50565b600b80546109e490612ddb565b80601f0160208091040260200160405190810160405280929190818152602001828054610a1090612ddb565b8015610a5d5780601f10610a3257610100808354040283529160200191610a5d565b820191906000526020600020905b815481529060010190602001808311610a4057829003601f168201915b505050505081565b600d546001600160a01b03163314610a8f5760405162461bcd60e51b815260040161092690612e0f565b610a9a3383836114b8565b5050565b60003381610aab84611669565b9050610ab88286866114b8565b610ac282826116fc565b506001949350505050565b60003381610ada846117e8565b9050610ae7868386611872565b610afb8686610af68488612e51565b6114b8565b610b0586826116fc565b6001925050505b9392505050565b6001600160a01b037f0000000000000000000000000000000000000000000000000000000000000000163003610b5b5760405162461bcd60e51b815260040161092690612e64565b7f00000000000000000000000000000000000000000000000000000000000000006001600160a01b0316610b8d6118e6565b6001600160a01b031614610bb35760405162461bcd60e51b815260040161092690612eb0565b610bbc81611902565b604080516000808252602082019092526109d49183919061192c565b600080610be4836117e8565b9050610bf08184612e51565b9150935093915050565b6000336108f2818585610c0d8383611182565b610c179190612efc565b6112d3565b600d546001600160a01b03163314610c465760405162461bcd60e51b815260040161092690612e0f565b610a9a8282611a9c565b60105461010090046001600160a01b03163314610c9f5760405162461bcd60e51b815260206004820152600d60248201526c37b7363c903232b83637bcb2b960991b6044820152606401610926565b6001600160a01b038116610cea5760405162461bcd60e51b81526020600482015260126024820152713d32b9379030b9b9b2ba1036b0b730b3b2b960711b6044820152606401610926565b600d546001600160a01b031615610d435760405162461bcd60e51b815260206004820152601c60248201527f63616e6e6f74207265706c616365206173736574206d616e61676572000000006044820152606401610926565b600d80546001600160a01b0319166001600160a01b0392909216919091179055565b600081600854811015610d8a5760405162461bcd60e51b815260040161092690612f0f565b610d9660058585611b67565b949350505050565b6001600160a01b037f0000000000000000000000000000000000000000000000000000000000000000163003610de65760405162461bcd60e51b815260040161092690612e64565b7f00000000000000000000000000000000000000000000000000000000000000006001600160a01b0316610e186118e6565b6001600160a01b031614610e3e5760405162461bcd60e51b815260040161092690612eb0565b610e4782611902565b610a9a8282600161192c565b6000306001600160a01b037f00000000000000000000000000000000000000000000000000000000000000001614610ef35760405162461bcd60e51b815260206004820152603860248201527f555550535570677261646561626c653a206d757374206e6f742062652063616c60448201527f6c6564207468726f7567682064656c656761746563616c6c00000000000000006064820152608401610926565b5060008051602061311d83398151915290565b6000610f106118e6565b905090565b601054600160a81b900460ff1615610f655760405162461bcd60e51b8152602060048201526013602482015272185b1c9958591e481a5b9a5d1a585b1a5e9959606a1b6044820152606401610926565b601080543361010002610100600160b01b031990911617600160a81b179055600e610f908682612fa4565b50600f610f9d8582612fa4565b506010805460ff191660ff8316179055600a610fb98482612fa4565b50600b610fc68382612fa4565b505050505050565b600d546001600160a01b03163314610ff85760405162461bcd60e51b815260040161092690612e0f565b600c80546001600160a01b0319166001600160a01b0392909216919091179055565b6060600f805461086190612ddb565b6000338161103684611669565b905061104c86836110478488612efc565b611872565b610afb8686866114b8565b60008160085481101561107c5760405162461bcd60e51b815260040161092690612f0f565b611087600684611b92565b91505b50919050565b600d546001600160a01b031633146110ba5760405162461bcd60e51b815260040161092690612e0f565b610a9a8282611d1a565b600033816110d28286611182565b9050838110156111325760405162461bcd60e51b815260206004820152602560248201527f45524332303a2064656372656173656420616c6c6f77616e63652062656c6f77604482015264207a65726f60d81b6064820152608401610926565b610ac282868684036112d3565b60008061114b83611669565b9050610bf08184612efc565b60003381611164846117e8565b9050610ab88286610af68488612e51565b600a80546109e490612ddb565b6001600160a01b03918216600090815260016020908152604080832093909416825291909152205490565b6000610f1060085490565b6009546000906001600160a01b0316331461120d5760405162461bcd60e51b815260206004820152601560248201527413db9b1e4818db19585b995c8818dbdb9d1c9858dd605a1b6044820152606401610926565b600854610b0c9060059085908590611e58565b6009546000906001600160a01b031633146112755760405162461bcd60e51b815260206004820152601560248201527413db9b1e4818db19585b995c8818dbdb9d1c9858dd605a1b6044820152606401610926565b60085461084c906006908490611e9e565b919050565b600d546001600160a01b031633146112b55760405162461bcd60e51b815260040161092690612e0f565b600980546001600160a01b0319166001600160a01b03831617905550565b6001600160a01b0383166113355760405162461bcd60e51b8152602060048201526024808201527f45524332303a20617070726f76652066726f6d20746865207a65726f206164646044820152637265737360e01b6064820152608401610926565b6001600160a01b0382166113965760405162461bcd60e51b815260206004820152602260248201527f45524332303a20617070726f766520746f20746865207a65726f206164647265604482015261737360f01b6064820152608401610926565b6001600160a01b0383811660008181526001602090815260408083209487168084529482529182902085905590518481527f8c5be1e5ebec7d5bd14f71427d1e84f3dd0314c0f7b2291e5b200ac8c7c3b925910160405180910390a3505050565b60085481101561145a5760405162461bcd60e51b815260206004820152602860248201527f436c65616e757020626c6f636b206e756d626572206d757374206e6576657220604482015267646563726561736560c01b6064820152608401610926565b4381106114b35760405162461bcd60e51b815260206004820152602160248201527f436c65616e757020626c6f636b206d75737420626520696e20746865207061736044820152601d60fa1b6064820152608401610926565b600855565b6001600160a01b03831661151c5760405162461bcd60e51b815260206004820152602560248201527f45524332303a207472616e736665722066726f6d20746865207a65726f206164604482015264647265737360d81b6064820152608401610926565b6001600160a01b03821661157e5760405162461bcd60e51b815260206004820152602360248201527f45524332303a207472616e7366657220746f20746865207a65726f206164647260448201526265737360e81b6064820152608401610926565b611589838383611fb7565b6001600160a01b038316600090815260208190526040902054818110156116015760405162461bcd60e51b815260206004820152602660248201527f45524332303a207472616e7366657220616d6f756e7420657863656564732062604482015265616c616e636560d01b6064820152608401610926565b6001600160a01b03848116600081815260208181526040808320878703905593871680835291849020805487019055925185815290927fddf252ad1be2c89b69c2b068fc378daa952ba7f163c4a11628f55a4df523b3ef910160405180910390a35b50505050565b600080600d60009054906101000a90046001600160a01b03166001600160a01b0316633ba60fb16040518163ffffffff1660e01b8152600401602060405180830381865afa1580156116bf573d6000803e3d6000fd5b505050506040513d601f19601f820116820180604052508101906116e39190613063565b905061108783826116f781620f4240612e51565b6120f8565b80600003611708575050565b80611728836001600160a01b031660009081526020819052604090205490565b10156117765760405162461bcd60e51b815260206004820181905260248201527f62616c616e636520746f6f206c6f7720666f72207472616e73666572206665656044820152606401610926565b600d5461178e9083906001600160a01b0316836114b8565b600d5460405163fc52f16d60e01b8152600481018390526001600160a01b039091169063fc52f16d90602401600060405180830381600087803b1580156117d457600080fd5b505af1158015610fc6573d6000803e3d6000fd5b600080600d60009054906101000a90046001600160a01b03166001600160a01b0316633ba60fb16040518163ffffffff1660e01b8152600401602060405180830381865afa15801561183e573d6000803e3d6000fd5b505050506040513d601f19601f820116820180604052508101906118629190613063565b90506110878382620f42406120f8565b600061187e8484611182565b9050600019811461166357818110156118d95760405162461bcd60e51b815260206004820152601d60248201527f45524332303a20696e73756666696369656e7420616c6c6f77616e63650000006044820152606401610926565b61166384848484036112d3565b60008051602061311d833981519152546001600160a01b031690565b600d546001600160a01b031633146109d45760405162461bcd60e51b815260040161092690612e0f565b7f4910fdfa16fed3260ed0e7147f7cc6da11a60208b5b9406d12a635614ffd91435460ff16156119645761195f83612138565b505050565b826001600160a01b03166352d1902d6040518163ffffffff1660e01b8152600401602060405180830381865afa9250505080156119be575060408051601f3d908101601f191682019092526119bb91810190613063565b60015b611a215760405162461bcd60e51b815260206004820152602e60248201527f45524331393637557067726164653a206e657720696d706c656d656e7461746960448201526d6f6e206973206e6f74205555505360901b6064820152608401610926565b60008051602061311d8339815191528114611a905760405162461bcd60e51b815260206004820152602960248201527f45524331393637557067726164653a20756e737570706f727465642070726f786044820152681a58589b195555525160ba1b6064820152608401610926565b5061195f8383836121d4565b6001600160a01b038216611af25760405162461bcd60e51b815260206004820152601f60248201527f45524332303a206d696e7420746f20746865207a65726f2061646472657373006044820152606401610926565b611afe60008383611fb7565b8060026000828254611b109190612efc565b90915550506001600160a01b038216600081815260208181526040808320805486019055518481527fddf252ad1be2c89b69c2b068fc378daa952ba7f163c4a11628f55a4df523b3ef910160405180910390a35050565b6001600160a01b0382166000908152602084905260408120611b898184611b92565b95945050505050565b6001820154600090600160401b90046001600160401b0316808203611bbb57600091505061084c565b4383101580611bf85750836000611bd3600184612e51565b8152602081019190915260400160002054600160c01b90046001600160401b03168310155b15611c2e57836000611c0b600184612e51565b81526020810191909152604001600020546001600160c01b0316915061084c9050565b60018401546001600160401b039081166000818152602087905260409020549091600160c01b90910416841015611cd1578015611cc65760405162461bcd60e51b815260206004820152603060248201527f436865636b506f696e74486973746f72793a2072656164696e672066726f6d2060448201526f636c65616e65642d757020626c6f636b60801b6064820152608401610926565b60009250505061084c565b6001850154600090611cf79087908490600160401b90046001600160401b0316886121f9565b6000908152602087905260409020546001600160c01b0316935050505092915050565b6001600160a01b038216611d7a5760405162461bcd60e51b815260206004820152602160248201527f45524332303a206275726e2066726f6d20746865207a65726f206164647265736044820152607360f81b6064820152608401610926565b611d8682600083611fb7565b6001600160a01b03821660009081526020819052604090205481811015611dfa5760405162461bcd60e51b815260206004820152602260248201527f45524332303a206275726e20616d6f756e7420657863656564732062616c616e604482015261636560f01b6064820152608401610926565b6001600160a01b0383166000818152602081815260408083208686039055600280548790039055518581529192917fddf252ad1be2c89b69c2b068fc378daa952ba7f163c4a11628f55a4df523b3ef910160405180910390a3505050565b60006001600160a01b03841615611e93576001600160a01b0384166000908152602086905260409020611e8c908484611e9e565b9050610d96565b506000949350505050565b600081600003611eb057506000610b0c565b6001840154600160401b90046001600160401b03166000819003611ed8576000915050610b0c565b60018501546001600160401b03166000611f05611ef58388612283565b611f00600186612e51565b61228f565b9050815b8181108015611f46575085886000611f22846001612efc565b8152602081019190915260400160002054600160c01b90046001600160401b031611155b15611f6c5760008181526020899052604081205580611f648161307c565b915050611f09565b82811115611fa157611f7d816122a5565b60018901805467ffffffffffffffff19166001600160401b03929092169190911790555b611fab8382612e51565b98975050505050505050565b600d54600160a01b90046001600160401b03161561200c5760405162461bcd60e51b8152602060048201526012602482015271198b585cdcd95d081d195c9b5a5b985d195960721b6044820152606401610926565b6001600160a01b038316158061204057508061203d846001600160a01b031660009081526020819052604090205490565b10155b61208c5760405162461bcd60e51b815260206004820152601760248201527f662d61737365742062616c616e636520746f6f206c6f770000000000000000006044820152606401610926565b816001600160a01b0316836001600160a01b0316036120ed5760405162461bcd60e51b815260206004820152601760248201527f43616e6e6f74207472616e7366657220746f2073656c660000000000000000006044820152606401610926565b61195f838383612311565b60008061210685858561234c565b90506000838061211857612118613095565b8587099050801561212c578160010161212e565b815b9695505050505050565b6001600160a01b0381163b6121a55760405162461bcd60e51b815260206004820152602d60248201527f455243313936373a206e657720696d706c656d656e746174696f6e206973206e60448201526c1bdd08184818dbdb9d1c9858dd609a1b6064820152608401610926565b60008051602061311d83398151915280546001600160a01b0319166001600160a01b0392909216919091179055565b6121dd83612466565b6000825111806121ea5750805b1561195f5761166383836124a6565b600083816122088560016124cb565b90505b81811115612279576000612235600261222f60016122298688612283565b90612283565b906124d7565b600081815260208a90526040902054909150600160c01b90046001600160401b0316851061226557809250612273565b6122708160016124cb565b91505b5061220b565b5095945050505050565b6000610b0c8284612efc565b600081831061229e5781610b0c565b5090919050565b60006001600160401b0382111561230d5760405162461bcd60e51b815260206004820152602660248201527f53616665436173743a2076616c756520646f65736e27742066697420696e203660448201526534206269747360d01b6064820152608401610926565b5090565b6001600160a01b0383166123295761195f82826124e3565b6001600160a01b0382166123415761195f8382612540565b61195f8383836125ef565b60008082116123905760405162461bcd60e51b815260206004820152601060248201526f4469766973696f6e206279207a65726f60801b6044820152606401610926565b836000036123a057506000610b0c565b838302838582816123b3576123b3613095565b04036123d1578281816123c8576123c8613095565b04915050610b0c565b5060006123de83866130ab565b905060006123ec84876130bf565b905060006123fa85876130ab565b9050600061240886886130bf565b90508561241582856130d3565b61241f91906130ab565b61242983856130d3565b61243383876130d3565b8861243e86896130d3565b61244891906130d3565b6124529190612efc565b61245c9190612efc565b611fab9190612efc565b61246f81612138565b6040516001600160a01b038216907fbc7cd75a20ee27fd9adebab32041f755214dbc6bffa90cc0225b39da2e5c2d3b90600090a250565b6060610b0c838360405180606001604052806027815260200161313d60279139612625565b6000610b0c8284612e51565b6000610b0c82846130ab565b60006124f3826122298543610d65565b905061250160058483612693565b600854612515906005908590600290611e58565b5061252e6125268361222943611057565b6006906126b1565b60085461166390600690600290611e9e565b60006125868260405180604001604052806016815260200175213ab937103a37b7903134b3903337b91037bbb732b960511b81525061257f8643610d65565b9190612876565b905061259460058483612693565b6008546125a8906005908590600290611e58565b5061252e612526836040518060400160405280601d81526020017f4275726e20746f6f2062696720666f7220746f74616c20737570706c7900000081525061257f43611057565b6125fc60058484846128a2565b600854612610906005908590600290611e58565b50600854611663906005908490600290611e58565b6060600080856001600160a01b03168560405161264291906130ea565b600060405180830381855af49150503d806000811461267d576040519150601f19603f3d011682016040523d82523d6000602084013e612682565b606091505b509150915061212e86838387612933565b6001600160a01b038216600090815260208490526040902061166381835b6001820154600160401b90046001600160401b0316600081900361275e5760405180604001604052806126e3846129ac565b6001600160c01b031681526020016126fa436122a5565b6001600160401b0390811690915260008080526020868152604090912083519390910151909116600160c01b026001600160c01b039092169190911790556001830180546fffffffffffffffff00000000000000001916600160401b179055505050565b6000838161276d600185612e51565b815260208101919091526040016000208054909150600160c01b90046001600160401b0316438190036127c3576127a3846129ac565b82546001600160c01b0319166001600160c01b039190911617825561286f565b8043116127d2576127d2613106565b60405180604001604052806127e6866129ac565b6001600160c01b031681526020016127fd436122a5565b6001600160401b0390811690915260008581526020888152604090912083519390910151909116600160c01b026001600160c01b03909216919091179055612846836001612efc565b8560010160086101000a8154816001600160401b0302191690836001600160401b031602179055505b5050505050565b6000818484111561289a5760405162461bcd60e51b81526004016109269190612af1565b505050900390565b8015611663576001600160a01b0383161580156128c657506001600160a01b038216155b156128d3576128d3613106565b6001600160a01b038316156129075760006128f8826128f28787612a01565b906124cb565b9050612905858583612693565b505b6001600160a01b03821615611663576000612926826122298786612a01565b905061286f858483612693565b606083156129a257825160000361299b576001600160a01b0385163b61299b5760405162461bcd60e51b815260206004820152601d60248201527f416464726573733a2063616c6c20746f206e6f6e2d636f6e74726163740000006044820152606401610926565b5081610d96565b610d968383612a22565b6000600160c01b821061230d5760405162461bcd60e51b815260206004820152601d60248201527f76616c756520646f65736e27742066697420696e2031393220626974730000006044820152606401610926565b6001600160a01b0381166000908152602083905260408120610d9681612a4c565b815115612a325781518083602001fd5b8060405162461bcd60e51b81526004016109269190612af1565b6001810154600090600160401b90046001600160401b0316808203612a745750600092915050565b826000612a82600184612e51565b81526020810191909152604001600020546001600160c01b03169392505050565b600060208284031215612ab557600080fd5b81356001600160e01b031981168114610b0c57600080fd5b60005b83811015612ae8578181015183820152602001612ad0565b50506000910152565b6020815260008251806020840152612b10816040850160208701612acd565b601f01601f19169190910160400192915050565b80356001600160a01b038116811461128657600080fd5b60008060408385031215612b4e57600080fd5b612b5783612b24565b946020939093013593505050565b600060208284031215612b7757600080fd5b5035919050565b600080600060608486031215612b9357600080fd5b612b9c84612b24565b9250612baa60208501612b24565b9150604084013590509250925092565b600060208284031215612bcc57600080fd5b610b0c82612b24565b634e487b7160e01b600052604160045260246000fd5b60006001600160401b0380841115612c0557612c05612bd5565b604051601f8501601f19908116603f01168101908282118183101715612c2d57612c2d612bd5565b81604052809350858152868686011115612c4657600080fd5b858560208301376000602087830101525050509392505050565b60008060408385031215612c7357600080fd5b612c7c83612b24565b915060208301356001600160401b03811115612c9757600080fd5b8301601f81018513612ca857600080fd5b612cb785823560208401612beb565b9150509250929050565b600082601f830112612cd257600080fd5b610b0c83833560208501612beb565b600080600080600060a08688031215612cf957600080fd5b85356001600160401b0380821115612d1057600080fd5b612d1c89838a01612cc1565b96506020880135915080821115612d3257600080fd5b612d3e89838a01612cc1565b95506040880135915080821115612d5457600080fd5b612d6089838a01612cc1565b94506060880135915080821115612d7657600080fd5b50612d8388828901612cc1565b925050608086013560ff81168114612d9a57600080fd5b809150509295509295909350565b60008060408385031215612dbb57600080fd5b612dc483612b24565b9150612dd260208401612b24565b90509250929050565b600181811c90821680612def57607f821691505b60208210810361108a57634e487b7160e01b600052602260045260246000fd5b60208082526012908201527137b7363c9030b9b9b2ba1036b0b730b3b2b960711b604082015260600190565b634e487b7160e01b600052601160045260246000fd5b8181038181111561084c5761084c612e3b565b6020808252602c908201527f46756e6374696f6e206d7573742062652063616c6c6564207468726f7567682060408201526b19195b1959d85d1958d85b1b60a21b606082015260800190565b6020808252602c908201527f46756e6374696f6e206d7573742062652063616c6c6564207468726f7567682060408201526b6163746976652070726f787960a01b606082015260800190565b8082018082111561084c5761084c612e3b565b6020808252602d908201527f436865636b506f696e7461626c653a2072656164696e672066726f6d20636c6560408201526c616e65642d757020626c6f636b60981b606082015260800190565b601f82111561195f576000816000526020600020601f850160051c81016020861015612f855750805b601f850160051c820191505b81811015610fc657828155600101612f91565b81516001600160401b03811115612fbd57612fbd612bd5565b612fd181612fcb8454612ddb565b84612f5c565b602080601f8311600181146130065760008415612fee5750858301515b600019600386901b1c1916600185901b178555610fc6565b600085815260208120601f198616915b8281101561303557888601518255948401946001909101908401613016565b50858210156130535787850151600019600388901b60f8161c191681555b5050505050600190811b01905550565b60006020828403121561307557600080fd5b5051919050565b60006001820161308e5761308e612e3b565b5060010190565b634e487b7160e01b600052601260045260246000fd5b6000826130ba576130ba613095565b500490565b6000826130ce576130ce613095565b500690565b808202811582820484141761084c5761084c612e3b565b600082516130fc818460208701612acd565b9190910192915050565b634e487b7160e01b600052600160045260246000fdfe360894a13ba1a3210667c828492db98dca3e2076cc3735a920a3ca505d382bbc416464726573733a206c6f772d6c6576656c2064656c65676174652063616c6c206661696c6564a2646970667358221220997db604fb4ce50fad6d64b5dcce1cdcda81112e10fea836e293cb74d4f3c24364736f6c63430008170033",
  "linkReferences": {},
  "deployedLinkReferences": {}
}