{
  "_format": "hh-sol-artifact-1",
  "contractName": "FAsset",
  "sourceName": "contracts/fassetToken/implementation/FAsset.sol",
  "abi": [
    {
      "inputs": [],
      "stateMutability": "nonpayable",
      "type": "constructor"
    },
    {
      "anonymous": false,
      "inputs": [
        {
          "indexed": true,
          "internalType": "address",
          "name": "owner",
          "type": "address"
        },
        {
          "indexed": true,
          "internalType": "address",
          "name": "spender",
          "type": "address"
        },
        {
          "indexed": false,
          "internalType": "uint256",
          "name": "value",
          "type": "uint256"
        }
      ],
      "name": "Approval",
      "type": "event"
    },
    {
      "anonymous": false,
      "inputs": [
        {
          "indexed": false,
          "internalType": "uint256",
          "name": "_blockNumber",
          "type": "uint256"
        }
      ],
      "name": "CreatedTotalSupplyCache",
      "type": "event"
    },
    {
      "anonymous": false,
      "inputs": [
        {
          "indexed": true,
          "internalType": "address",
          "name": "from",
          "type": "address"
        },
        {
          "indexed": true,
          "internalType": "address",
          "name": "to",
          "type": "address"
        },
        {
          "indexed": false,
          "internalType": "uint256",
          "name": "value",
          "type": "uint256"
        }
      ],
      "name": "Transfer",
      "type": "event"
    },
    {
      "inputs": [
        {
          "internalType": "address",
          "name": "owner",
          "type": "address"
        },
        {
          "internalType": "address",
          "name": "spender",
          "type": "address"
        }
      ],
      "name": "allowance",
      "outputs": [
        {
          "internalType": "uint256",
          "name": "",
          "type": "uint256"
        }
      ],
      "stateMutability": "view",
      "type": "function"
    },
    {
      "inputs": [
        {
          "internalType": "address",
          "name": "spender",
          "type": "address"
        },
        {
          "internalType": "uint256",
          "name": "amount",
          "type": "uint256"
        }
      ],
      "name": "approve",
      "outputs": [
        {
          "internalType": "bool",
          "name": "",
          "type": "bool"
        }
      ],
      "stateMutability": "nonpayable",
      "type": "function"
    },
    {
      "inputs": [],
      "name": "assetManager",
      "outputs": [
        {
          "internalType": "address",
          "name": "",
          "type": "address"
        }
      ],
      "stateMutability": "view",
      "type": "function"
    },
    {
      "inputs": [],
      "name": "assetName",
      "outputs": [
        {
          "internalType": "string",
          "name": "",
          "type": "string"
        }
      ],
      "stateMutability": "view",
      "type": "function"
    },
    {
      "inputs": [],
      "name": "assetSymbol",
      "outputs": [
        {
          "internalType": "string",
          "name": "",
          "type": "string"
        }
      ],
      "stateMutability": "view",
      "type": "function"
    },
    {
      "inputs": [
        {
          "internalType": "address",
          "name": "_owner",
          "type": "address"
        },
        {
          "internalType": "uint256",
          "name": "_count",
          "type": "uint256"
        }
      ],
      "name": "balanceHistoryCleanup",
      "outputs": [
        {
          "internalType": "uint256",
          "name": "",
          "type": "uint256"
        }
      ],
      "stateMutability": "nonpayable",
      "type": "function"
    },
    {
      "inputs": [
        {
          "internalType": "address",
          "name": "account",
          "type": "address"
        }
      ],
      "name": "balanceOf",
      "outputs": [
        {
          "internalType": "uint256",
          "name": "",
          "type": "uint256"
        }
      ],
      "stateMutability": "view",
      "type": "function"
    },
    {
      "inputs": [
        {
          "internalType": "address",
          "name": "_owner",
          "type": "address"
        },
        {
          "internalType": "uint256",
          "name": "_blockNumber",
          "type": "uint256"
        }
      ],
      "name": "balanceOfAt",
      "outputs": [
        {
          "internalType": "uint256",
          "name": "_balance",
          "type": "uint256"
        }
      ],
      "stateMutability": "view",
      "type": "function"
    },
    {
      "inputs": [
        {
          "internalType": "address",
          "name": "_owner",
          "type": "address"
        },
        {
          "internalType": "uint256",
          "name": "_amount",
          "type": "uint256"
        }
      ],
      "name": "burn",
      "outputs": [],
      "stateMutability": "nonpayable",
      "type": "function"
    },
    {
      "inputs": [],
      "name": "cleanerContract",
      "outputs": [
        {
          "internalType": "address",
          "name": "",
          "type": "address"
        }
      ],
      "stateMutability": "view",
      "type": "function"
    },
    {
      "inputs": [],
      "name": "cleanupBlockNumber",
      "outputs": [
        {
          "internalType": "uint256",
          "name": "",
          "type": "uint256"
        }
      ],
      "stateMutability": "view",
      "type": "function"
    },
    {
      "inputs": [],
      "name": "cleanupBlockNumberManager",
      "outputs": [
        {
          "internalType": "address",
          "name": "",
          "type": "address"
        }
      ],
      "stateMutability": "view",
      "type": "function"
    },
    {
      "inputs": [],
      "name": "decimals",
      "outputs": [
        {
          "internalType": "uint8",
          "name": "",
          "type": "uint8"
        }
      ],
      "stateMutability": "view",
      "type": "function"
    },
    {
      "inputs": [
        {
          "internalType": "address",
          "name": "spender",
          "type": "address"
        },
        {
          "internalType": "uint256",
          "name": "subtractedValue",
          "type": "uint256"
        }
      ],
      "name": "decreaseAllowance",
      "outputs": [
        {
          "internalType": "bool",
          "name": "",
          "type": "bool"
        }
      ],
      "stateMutability": "nonpayable",
      "type": "function"
    },
    {
      "inputs": [
        {
          "internalType": "address",
          "name": "spender",
          "type": "address"
        },
        {
          "internalType": "uint256",
          "name": "addedValue",
          "type": "uint256"
        }
      ],
      "name": "increaseAllowance",
      "outputs": [
        {
          "internalType": "bool",
          "name": "",
          "type": "bool"
        }
      ],
      "stateMutability": "nonpayable",
      "type": "function"
    },
    {
      "inputs": [
        {
          "internalType": "string",
          "name": "name_",
          "type": "string"
        },
        {
          "internalType": "string",
          "name": "symbol_",
          "type": "string"
        },
        {
          "internalType": "string",
          "name": "assetName_",
          "type": "string"
        },
        {
          "internalType": "string",
          "name": "assetSymbol_",
          "type": "string"
        },
        {
          "internalType": "uint8",
          "name": "decimals_",
          "type": "uint8"
        }
      ],
      "name": "initialize",
      "outputs": [],
      "stateMutability": "nonpayable",
      "type": "function"
    },
    {
      "inputs": [
        {
          "internalType": "address",
          "name": "_owner",
          "type": "address"
        },
        {
          "internalType": "uint256",
          "name": "_amount",
          "type": "uint256"
        }
      ],
      "name": "mint",
      "outputs": [],
      "stateMutability": "nonpayable",
      "type": "function"
    },
    {
      "inputs": [],
      "name": "name",
      "outputs": [
        {
          "internalType": "string",
          "name": "",
          "type": "string"
        }
      ],
      "stateMutability": "view",
      "type": "function"
    },
    {
      "inputs": [
        {
          "internalType": "address",
          "name": "_assetManager",
          "type": "address"
        }
      ],
      "name": "setAssetManager",
      "outputs": [],
      "stateMutability": "nonpayable",
      "type": "function"
    },
    {
      "inputs": [
        {
          "internalType": "address",
          "name": "_cleanerContract",
          "type": "address"
        }
      ],
      "name": "setCleanerContract",
      "outputs": [],
      "stateMutability": "nonpayable",
      "type": "function"
    },
    {
      "inputs": [
        {
          "internalType": "uint256",
          "name": "_blockNumber",
          "type": "uint256"
        }
      ],
      "name": "setCleanupBlockNumber",
      "outputs": [],
      "stateMutability": "nonpayable",
      "type": "function"
    },
    {
      "inputs": [
        {
          "internalType": "address",
          "name": "_cleanupBlockNumberManager",
          "type": "address"
        }
      ],
      "name": "setCleanupBlockNumberManager",
      "outputs": [],
      "stateMutability": "nonpayable",
      "type": "function"
    },
    {
      "inputs": [
        {
          "internalType": "address",
          "name": "_payingAccount",
          "type": "address"
        }
      ],
      "name": "setTransferFeesPaidBy",
      "outputs": [],
      "stateMutability": "nonpayable",
      "type": "function"
    },
    {
      "inputs": [
        {
          "internalType": "bytes4",
          "name": "_interfaceId",
          "type": "bytes4"
        }
      ],
      "name": "supportsInterface",
      "outputs": [
        {
          "internalType": "bool",
          "name": "",
          "type": "bool"
        }
      ],
      "stateMutability": "pure",
      "type": "function"
    },
    {
      "inputs": [],
      "name": "symbol",
      "outputs": [
        {
          "internalType": "string",
          "name": "",
          "type": "string"
        }
      ],
      "stateMutability": "view",
      "type": "function"
    },
    {
      "inputs": [],
      "name": "terminate",
      "outputs": [],
      "stateMutability": "nonpayable",
      "type": "function"
    },
    {
      "inputs": [],
      "name": "terminated",
      "outputs": [
        {
          "internalType": "bool",
          "name": "",
          "type": "bool"
        }
      ],
      "stateMutability": "view",
      "type": "function"
    },
    {
      "inputs": [],
      "name": "terminatedAt",
      "outputs": [
        {
          "internalType": "uint64",
          "name": "",
          "type": "uint64"
        }
      ],
      "stateMutability": "view",
      "type": "function"
    },
    {
      "inputs": [],
      "name": "totalSupply",
      "outputs": [
        {
          "internalType": "uint256",
          "name": "",
          "type": "uint256"
        }
      ],
      "stateMutability": "view",
      "type": "function"
    },
    {
      "inputs": [
        {
          "internalType": "uint256",
          "name": "_blockNumber",
          "type": "uint256"
        }
      ],
      "name": "totalSupplyAt",
      "outputs": [
        {
          "internalType": "uint256",
          "name": "_totalSupply",
          "type": "uint256"
        }
      ],
      "stateMutability": "view",
      "type": "function"
    },
    {
      "inputs": [
        {
          "internalType": "uint256",
          "name": "_count",
          "type": "uint256"
        }
      ],
      "name": "totalSupplyHistoryCleanup",
      "outputs": [
        {
          "internalType": "uint256",
          "name": "",
          "type": "uint256"
        }
      ],
      "stateMutability": "nonpayable",
      "type": "function"
    },
    {
      "inputs": [
        {
          "internalType": "address",
          "name": "_to",
          "type": "address"
        },
        {
          "internalType": "uint256",
          "name": "_amount",
          "type": "uint256"
        }
      ],
      "name": "transfer",
      "outputs": [
        {
          "internalType": "bool",
          "name": "",
          "type": "bool"
        }
      ],
      "stateMutability": "nonpayable",
      "type": "function"
    },
    {
      "inputs": [
        {
          "internalType": "address",
          "name": "_to",
          "type": "address"
        },
        {
          "internalType": "uint256",
          "name": "_amount",
          "type": "uint256"
        }
      ],
      "name": "transferAndPayFee",
      "outputs": [],
      "stateMutability": "nonpayable",
      "type": "function"
    },
    {
      "inputs": [
        {
          "internalType": "uint256",
          "name": "_transferAmount",
          "type": "uint256"
        }
      ],
      "name": "transferFeeAmount",
      "outputs": [
        {
          "internalType": "uint256",
          "name": "",
          "type": "uint256"
        }
      ],
      "stateMutability": "view",
      "type": "function"
    },
    {
      "inputs": [
        {
          "internalType": "address",
          "name": "_origin",
          "type": "address"
        }
      ],
      "name": "transferFeesPaidBy",
      "outputs": [
        {
          "internalType": "address",
          "name": "_payingAccount",
          "type": "address"
        }
      ],
      "stateMutability": "view",
      "type": "function"
    },
    {
      "inputs": [
        {
          "internalType": "address",
          "name": "_from",
          "type": "address"
        },
        {
          "internalType": "address",
          "name": "_to",
          "type": "address"
        },
        {
          "internalType": "uint256",
          "name": "_amount",
          "type": "uint256"
        }
      ],
      "name": "transferFrom",
      "outputs": [
        {
          "internalType": "bool",
          "name": "",
          "type": "bool"
        }
      ],
      "stateMutability": "nonpayable",
      "type": "function"
    },
    {
      "inputs": [
        {
          "internalType": "address",
          "name": "_to",
          "type": "address"
        },
        {
          "internalType": "uint256",
          "name": "_amount",
          "type": "uint256"
        }
      ],
      "name": "transferInternally",
      "outputs": [],
      "stateMutability": "nonpayable",
      "type": "function"
    },
    {
      "inputs": [
        {
          "internalType": "address",
          "name": "_to",
          "type": "address"
        },
        {
          "internalType": "uint256",
          "name": "_amount",
          "type": "uint256"
        }
      ],
      "name": "transferSubtractingFee",
      "outputs": [],
      "stateMutability": "nonpayable",
      "type": "function"
    }
  ],
  "bytecode": "0x6080604052600d8054600160a01b600160e01b03191690553480156200002457600080fd5b506040805160208082018352600080835283519182019093529182529060036200004f838262000121565b5060046200005e828262000121565b50506010805460ff60a81b1916600160a81b17905550620001ed565b634e487b7160e01b600052604160045260246000fd5b600181811c90821680620000a557607f821691505b602082108103620000c657634e487b7160e01b600052602260045260246000fd5b50919050565b601f8211156200011c576000816000526020600020601f850160051c81016020861015620000f75750805b601f850160051c820191505b81811015620001185782815560010162000103565b5050505b505050565b81516001600160401b038111156200013d576200013d6200007a565b62000155816200014e845462000090565b84620000cc565b602080601f8311600181146200018d5760008415620001745750858301515b600019600386901b1c1916600185901b17855562000118565b600085815260208120601f198616915b82811015620001be578886015182559484019460019091019084016200019d565b5085821015620001dd5787850151600019600388901b60f8161c191681555b5050505050600190811b01905550565b61286680620001fd6000396000f3fe608060405234801561001057600080fd5b50600436106102325760003560e01c80637cfc672b11610130578063a9059cbb116100b8578063f0e292c91161007c578063f0e292c9146104f7578063f62f8f3a1461050a578063f6a494af1461051d578063f842c12514610530578063f8894c391461056d57600080fd5b8063a9059cbb146104ae578063c9230c5d146104c1578063dd62ed3e146104c9578063deea13e7146104dc578063e9dfba85146104e457600080fd5b8063981b24d0116100ff578063981b24d0146104305780639ca20e4e146104435780639dc29fac146104565780639e3bc20814610469578063a457c2d71461049b57600080fd5b80637cfc672b146103ef5780637f4fcaa91461040257806394217ad11461041557806395d89b411461042857600080fd5b80631cb8f94f116101be5780634306023711610182578063430602371461037a5780634eac870f1461038d5780634ee2cd7e146103a057806361e67d7b146103b357806370a08231146103c657600080fd5b80631cb8f94f1461031957806323b872dd1461032c578063313ce5671461033f578063395093511461035457806340c10f191461036757600080fd5b80630c08bf88116102055780630c08bf88146102c857806313de97f5146102d2578063176de7a8146102e557806318160ddd146102ed578063194307bf146102ff57600080fd5b806301ffc9a714610237578063033811e41461025f57806306fdde03146102a0578063095ea7b3146102b5575b600080fd5b61024a6102453660046122dd565b610580565b60405190151581526020015b60405180910390f35b61028861026d36600461231e565b6011602052600090815260409020546001600160a01b031681565b6040516001600160a01b039091168152602001610256565b6102a861063e565b6040516102569190612339565b61024a6102c3366004612388565b6106d0565b6102d06106e8565b005b6102d06102e03660046123b2565b61075d565b6102a86107c3565b6002545b604051908152602001610256565b600d54600160a01b90046001600160401b0316151561024a565b6102d0610327366004612388565b610851565b61024a61033a3660046123cb565b61088a565b60105460405160ff9091168152602001610256565b61024a610362366004612388565b6108a8565b6102d0610375366004612388565b6108ca565b6102d061038836600461231e565b6108fe565b600c54610288906001600160a01b031681565b6102f16103ae366004612388565b610a13565b6102f16103c13660046123b2565b610a4c565b6102f16103d436600461231e565b6001600160a01b031660009081526020819052604090205490565b6102d06103fd3660046124a9565b610a57565b6102d061041036600461231e565b610b10565b600d54610288906001600160a01b031681565b6102a8610b5c565b6102f161043e3660046123b2565b610b6b565b600954610288906001600160a01b031681565b6102d0610464366004612388565b610ba4565b600d5461048390600160a01b90046001600160401b031681565b6040516001600160401b039091168152602001610256565b61024a6104a9366004612388565b610bd8565b61024a6104bc366004612388565b610c5e565b6102a8610c7d565b6102f16104d7366004612570565b610c8a565b6102f1610cb5565b6102d06104f2366004612388565b610cc5565b6102f1610505366004612388565b610cee565b6102f16105183660046123b2565b610d56565b6102d061052b36600461231e565b610dc1565b6102d061053e36600461231e565b33600090815260116020526040902080546001600160a01b0319166001600160a01b0392909216919091179055565b6102d061057b366004612388565b610e09565b60006001600160e01b031982166301ffc9a760e01b14806105b157506001600160e01b031982166336372b0760e01b145b806105cc57506001600160e01b0319821663a219a02560e01b145b806105e757506001600160e01b03198216636b7cf4d760e11b145b8061060257506001600160e01b03198216635c80587360e11b145b8061061d57506001600160e01b03198216633f1426f560e21b145b8061063857506001600160e01b03198216633b9010bd60e01b145b92915050565b6060600e805461064d906125a3565b80601f0160208091040260200160405190810160405280929190818152602001828054610679906125a3565b80156106c65780601f1061069b576101008083540402835291602001916106c6565b820191906000526020600020905b8154815290600101906020018083116106a957829003601f168201915b5050505050905090565b6000336106de818585610e2a565b5060019392505050565b600d546001600160a01b0316331461071b5760405162461bcd60e51b8152600401610712906125d7565b60405180910390fd5b600d54600160a01b90046001600160401b031660000361075b57600d805467ffffffffffffffff60a01b1916600160a01b426001600160401b0316021790555b565b600c546001600160a01b031633146107b75760405162461bcd60e51b815260206004820152601a60248201527f6f6e6c7920636c65616e757020626c6f636b206d616e616765720000000000006044820152606401610712565b6107c081610f4e565b50565b600b80546107d0906125a3565b80601f01602080910402602001604051908101604052809291908181526020018280546107fc906125a3565b80156108495780601f1061081e57610100808354040283529160200191610849565b820191906000526020600020905b81548152906001019060200180831161082c57829003601f168201915b505050505081565b600d546001600160a01b0316331461087b5760405162461bcd60e51b8152600401610712906125d7565b61088633838361100f565b5050565b60006108978484846111c0565b506106de826111d9565b9392505050565b6000336106de8185856108bb8383610c8a565b6108c59190612619565b610e2a565b600d546001600160a01b031633146108f45760405162461bcd60e51b8152600401610712906125d7565b61088682826111f2565b60105461010090046001600160a01b0316331461094d5760405162461bcd60e51b815260206004820152600d60248201526c37b7363c903232b83637bcb2b960991b6044820152606401610712565b6001600160a01b0381166109985760405162461bcd60e51b81526020600482015260126024820152713d32b9379030b9b9b2ba1036b0b730b3b2b960711b6044820152606401610712565b600d546001600160a01b0316156109f15760405162461bcd60e51b815260206004820152601c60248201527f63616e6e6f74207265706c616365206173736574206d616e61676572000000006044820152606401610712565b600d80546001600160a01b0319166001600160a01b0392909216919091179055565b600081600854811015610a385760405162461bcd60e51b81526004016107129061262c565b610a44600585856112bd565b949350505050565b6000610638826112e8565b601054600160a81b900460ff1615610aa75760405162461bcd60e51b8152602060048201526013602482015272185b1c9958591e481a5b9a5d1a585b1a5e9959606a1b6044820152606401610712565b601080543361010002610100600160b01b031990911617600160a81b179055600e610ad286826126c1565b50600f610adf85826126c1565b506010805460ff191660ff8316179055600a610afb84826126c1565b50600b610b0883826126c1565b505050505050565b600d546001600160a01b03163314610b3a5760405162461bcd60e51b8152600401610712906125d7565b600c80546001600160a01b0319166001600160a01b0392909216919091179055565b6060600f805461064d906125a3565b600081600854811015610b905760405162461bcd60e51b81526004016107129061262c565b610b9b600684611372565b91505b50919050565b600d546001600160a01b03163314610bce5760405162461bcd60e51b8152600401610712906125d7565b61088682826114fa565b60003381610be68286610c8a565b905083811015610c465760405162461bcd60e51b815260206004820152602560248201527f45524332303a2064656372656173656420616c6c6f77616e63652062656c6f77604482015264207a65726f60d81b6064820152608401610712565b610c538286868403610e2a565b506001949350505050565b6000610c6a8383611638565b50610c74826111d9565b50600192915050565b600a80546107d0906125a3565b6001600160a01b03918216600090815260016020908152604080832093909416825291909152205490565b6000610cc060085490565b905090565b6000610cd0826112e8565b9050610cdd33848461100f565b610ce933600083611646565b505050565b6009546000906001600160a01b03163314610d435760405162461bcd60e51b815260206004820152601560248201527413db9b1e4818db19585b995c8818dbdb9d1c9858dd605a1b6044820152606401610712565b6008546108a190600590859085906117d3565b6009546000906001600160a01b03163314610dab5760405162461bcd60e51b815260206004820152601560248201527413db9b1e4818db19585b995c8818dbdb9d1c9858dd605a1b6044820152606401610712565b600854610638906006908490611819565b919050565b600d546001600160a01b03163314610deb5760405162461bcd60e51b8152600401610712906125d7565b600980546001600160a01b0319166001600160a01b03831617905550565b6000610e1482611932565b9050610cdd3384610e258486612780565b61100f565b6001600160a01b038316610e8c5760405162461bcd60e51b8152602060048201526024808201527f45524332303a20617070726f76652066726f6d20746865207a65726f206164646044820152637265737360e01b6064820152608401610712565b6001600160a01b038216610eed5760405162461bcd60e51b815260206004820152602260248201527f45524332303a20617070726f766520746f20746865207a65726f206164647265604482015261737360f01b6064820152608401610712565b6001600160a01b0383811660008181526001602090815260408083209487168084529482529182902085905590518481527f8c5be1e5ebec7d5bd14f71427d1e84f3dd0314c0f7b2291e5b200ac8c7c3b925910160405180910390a3505050565b600854811015610fb15760405162461bcd60e51b815260206004820152602860248201527f436c65616e757020626c6f636b206e756d626572206d757374206e6576657220604482015267646563726561736560c01b6064820152608401610712565b43811061100a5760405162461bcd60e51b815260206004820152602160248201527f436c65616e757020626c6f636b206d75737420626520696e20746865207061736044820152601d60fa1b6064820152608401610712565b600855565b6001600160a01b0383166110735760405162461bcd60e51b815260206004820152602560248201527f45524332303a207472616e736665722066726f6d20746865207a65726f206164604482015264647265737360d81b6064820152608401610712565b6001600160a01b0382166110d55760405162461bcd60e51b815260206004820152602360248201527f45524332303a207472616e7366657220746f20746865207a65726f206164647260448201526265737360e81b6064820152608401610712565b6110e08383836119c5565b6001600160a01b038316600090815260208190526040902054818110156111585760405162461bcd60e51b815260206004820152602660248201527f45524332303a207472616e7366657220616d6f756e7420657863656564732062604482015265616c616e636560d01b6064820152608401610712565b6001600160a01b03848116600081815260208181526040808320878703905593871680835291849020805487019055925185815290927fddf252ad1be2c89b69c2b068fc378daa952ba7f163c4a11628f55a4df523b3ef910160405180910390a35b50505050565b6000336111ce858285611b06565b610c5385858561100f565b60006111e4826112e8565b905061088632600183611646565b6001600160a01b0382166112485760405162461bcd60e51b815260206004820152601f60248201527f45524332303a206d696e7420746f20746865207a65726f2061646472657373006044820152606401610712565b611254600083836119c5565b80600260008282546112669190612619565b90915550506001600160a01b038216600081815260208181526040808320805486019055518481527fddf252ad1be2c89b69c2b068fc378daa952ba7f163c4a11628f55a4df523b3ef910160405180910390a35050565b6001600160a01b03821660009081526020849052604081206112df8184611372565b95945050505050565b600080600d60009054906101000a90046001600160a01b03166001600160a01b0316633ba60fb16040518163ffffffff1660e01b8152600401602060405180830381865afa15801561133e573d6000803e3d6000fd5b505050506040513d601f19601f820116820180604052508101906113629190612793565b9050610b9b8382620f4240611b7a565b6001820154600090600160401b90046001600160401b031680820361139b576000915050610638565b43831015806113d857508360006113b3600184612780565b8152602081019190915260400160002054600160c01b90046001600160401b03168310155b1561140e578360006113eb600184612780565b81526020810191909152604001600020546001600160c01b031691506106389050565b60018401546001600160401b039081166000818152602087905260409020549091600160c01b909104168410156114b15780156114a65760405162461bcd60e51b815260206004820152603060248201527f436865636b506f696e74486973746f72793a2072656164696e672066726f6d2060448201526f636c65616e65642d757020626c6f636b60801b6064820152608401610712565b600092505050610638565b60018501546000906114d79087908490600160401b90046001600160401b031688611c94565b6000908152602087905260409020546001600160c01b0316935050505092915050565b6001600160a01b03821661155a5760405162461bcd60e51b815260206004820152602160248201527f45524332303a206275726e2066726f6d20746865207a65726f206164647265736044820152607360f81b6064820152608401610712565b611566826000836119c5565b6001600160a01b038216600090815260208190526040902054818110156115da5760405162461bcd60e51b815260206004820152602260248201527f45524332303a206275726e20616d6f756e7420657863656564732062616c616e604482015261636560f01b6064820152608401610712565b6001600160a01b0383166000818152602081815260408083208686039055600280548790039055518581529192917fddf252ad1be2c89b69c2b068fc378daa952ba7f163c4a11628f55a4df523b3ef910160405180910390a3505050565b6000336106de81858561100f565b8060000361165357505050565b600061165f8484611d1e565b905081611681826001600160a01b031660009081526020819052604090205490565b10156116cf5760405162461bcd60e51b815260206004820181905260248201527f62616c616e636520746f6f206c6f7720666f72207472616e73666572206665656044820152606401610712565b836001600160a01b0316816001600160a01b03161461175757816116f38286610c8a565b101561174c5760405162461bcd60e51b815260206004820152602260248201527f616c6c6f77616e636520746f6f206c6f7720666f72207472616e736665722066604482015261656560f01b6064820152608401610712565b611757818584611b06565b600d5461176f9082906001600160a01b03168461100f565b600d5460405163fc52f16d60e01b8152600481018490526001600160a01b039091169063fc52f16d90602401600060405180830381600087803b1580156117b557600080fd5b505af11580156117c9573d6000803e3d6000fd5b5050505050505050565b60006001600160a01b0384161561180e576001600160a01b0384166000908152602086905260409020611807908484611819565b9050610a44565b506000949350505050565b60008160000361182b575060006108a1565b6001840154600160401b90046001600160401b031660008190036118535760009150506108a1565b60018501546001600160401b031660006118806118708388611d52565b61187b600186612780565b611d5e565b9050815b81811080156118c157508588600061189d846001612619565b8152602081019190915260400160002054600160c01b90046001600160401b031611155b156118e757600081815260208990526040812055806118df816127ac565b915050611884565b8281111561191c576118f881611d74565b60018901805467ffffffffffffffff19166001600160401b03929092169190911790555b6119268382612780565b98975050505050505050565b600080600d60009054906101000a90046001600160a01b03166001600160a01b0316633ba60fb16040518163ffffffff1660e01b8152600401602060405180830381865afa158015611988573d6000803e3d6000fd5b505050506040513d601f19601f820116820180604052508101906119ac9190612793565b9050610b9b83826119c081620f4240612619565b611b7a565b600d54600160a01b90046001600160401b031615611a1a5760405162461bcd60e51b8152602060048201526012602482015271198b585cdcd95d081d195c9b5a5b985d195960721b6044820152606401610712565b6001600160a01b0383161580611a4e575080611a4b846001600160a01b031660009081526020819052604090205490565b10155b611a9a5760405162461bcd60e51b815260206004820152601760248201527f662d61737365742062616c616e636520746f6f206c6f770000000000000000006044820152606401610712565b816001600160a01b0316836001600160a01b031603611afb5760405162461bcd60e51b815260206004820152601760248201527f43616e6e6f74207472616e7366657220746f2073656c660000000000000000006044820152606401610712565b610ce9838383611de0565b6000611b128484610c8a565b905060001981146111ba5781811015611b6d5760405162461bcd60e51b815260206004820152601d60248201527f45524332303a20696e73756666696369656e7420616c6c6f77616e63650000006044820152606401610712565b6111ba8484848403610e2a565b6000808211611bbe5760405162461bcd60e51b815260206004820152601060248201526f4469766973696f6e206279207a65726f60801b6044820152606401610712565b83600003611bce575060006108a1565b83830283858281611be157611be16127c5565b0403611bff57828181611bf657611bf66127c5565b049150506108a1565b506000611c0c83866127db565b90506000611c1a84876127ef565b90506000611c2885876127db565b90506000611c3686886127ef565b905085611c438285612803565b611c4d91906127db565b611c578385612803565b611c618387612803565b88611c6c8689612803565b611c769190612803565b611c809190612619565b611c8a9190612619565b6119269190612619565b60008381611ca3856001611e1b565b90505b81811115611d14576000611cd06002611cca6001611cc48688611d52565b90611d52565b90611e27565b600081815260208a90526040902054909150600160c01b90046001600160401b03168510611d0057809250611d0e565b611d0b816001611e1b565b91505b50611ca6565b5095945050505050565b600081611d2c575081610638565b6001600160a01b0380841660009081526011602052604090205416806108a15783610a44565b60006108a18284612619565b6000818310611d6d57816108a1565b5090919050565b60006001600160401b03821115611ddc5760405162461bcd60e51b815260206004820152602660248201527f53616665436173743a2076616c756520646f65736e27742066697420696e203660448201526534206269747360d01b6064820152608401610712565b5090565b6001600160a01b038316611df857610ce98282611e33565b6001600160a01b038216611e1057610ce98382611e90565b610ce9838383611f3f565b60006108a18284612780565b60006108a182846127db565b6000611e4382611cc48543610a13565b9050611e5160058483611f75565b600854611e659060059085906002906117d3565b50611e7e611e7683611cc443610b6b565b600690611f93565b6008546111ba90600690600290611819565b6000611ed68260405180604001604052806016815260200175213ab937103a37b7903134b3903337b91037bbb732b960511b815250611ecf8643610a13565b9190612158565b9050611ee460058483611f75565b600854611ef89060059085906002906117d3565b50611e7e611e76836040518060400160405280601d81526020017f4275726e20746f6f2062696720666f7220746f74616c20737570706c79000000815250611ecf43610b6b565b611f4c6005848484612184565b600854611f609060059085906002906117d3565b506008546111ba9060059084906002906117d3565b6001600160a01b03821660009081526020849052604090206111ba81835b6001820154600160401b90046001600160401b03166000819003612040576040518060400160405280611fc584612215565b6001600160c01b03168152602001611fdc43611d74565b6001600160401b0390811690915260008080526020868152604090912083519390910151909116600160c01b026001600160c01b039092169190911790556001830180546fffffffffffffffff00000000000000001916600160401b179055505050565b6000838161204f600185612780565b815260208101919091526040016000208054909150600160c01b90046001600160401b0316438190036120a55761208584612215565b82546001600160c01b0319166001600160c01b0391909116178255612151565b8043116120b4576120b461281a565b60405180604001604052806120c886612215565b6001600160c01b031681526020016120df43611d74565b6001600160401b0390811690915260008581526020888152604090912083519390910151909116600160c01b026001600160c01b03909216919091179055612128836001612619565b8560010160086101000a8154816001600160401b0302191690836001600160401b031602179055505b5050505050565b6000818484111561217c5760405162461bcd60e51b81526004016107129190612339565b505050900390565b80156111ba576001600160a01b0383161580156121a857506001600160a01b038216155b156121b5576121b561281a565b6001600160a01b038316156121e95760006121da826121d4878761226a565b90611e1b565b90506121e7858583611f75565b505b6001600160a01b038216156111ba57600061220882611cc4878661226a565b9050612151858483611f75565b6000600160c01b8210611ddc5760405162461bcd60e51b815260206004820152601d60248201527f76616c756520646f65736e27742066697420696e2031393220626974730000006044820152606401610712565b6001600160a01b0381166000908152602083905260408120610a44816001810154600090600160401b90046001600160401b03168082036122ae5750600092915050565b8260006122bc600184612780565b81526020810191909152604001600020546001600160c01b03169392505050565b6000602082840312156122ef57600080fd5b81356001600160e01b0319811681146108a157600080fd5b80356001600160a01b0381168114610dbc57600080fd5b60006020828403121561233057600080fd5b6108a182612307565b60006020808352835180602085015260005b818110156123675785810183015185820160400152820161234b565b506000604082860101526040601f19601f8301168501019250505092915050565b6000806040838503121561239b57600080fd5b6123a483612307565b946020939093013593505050565b6000602082840312156123c457600080fd5b5035919050565b6000806000606084860312156123e057600080fd5b6123e984612307565b92506123f760208501612307565b9150604084013590509250925092565b634e487b7160e01b600052604160045260246000fd5b600082601f83011261242e57600080fd5b81356001600160401b038082111561244857612448612407565b604051601f8301601f19908116603f0116810190828211818310171561247057612470612407565b8160405283815286602085880101111561248957600080fd5b836020870160208301376000602085830101528094505050505092915050565b600080600080600060a086880312156124c157600080fd5b85356001600160401b03808211156124d857600080fd5b6124e489838a0161241d565b965060208801359150808211156124fa57600080fd5b61250689838a0161241d565b9550604088013591508082111561251c57600080fd5b61252889838a0161241d565b9450606088013591508082111561253e57600080fd5b5061254b8882890161241d565b925050608086013560ff8116811461256257600080fd5b809150509295509295909350565b6000806040838503121561258357600080fd5b61258c83612307565b915061259a60208401612307565b90509250929050565b600181811c908216806125b757607f821691505b602082108103610b9e57634e487b7160e01b600052602260045260246000fd5b60208082526012908201527137b7363c9030b9b9b2ba1036b0b730b3b2b960711b604082015260600190565b634e487b7160e01b600052601160045260246000fd5b8082018082111561063857610638612603565b6020808252602d908201527f436865636b506f696e7461626c653a2072656164696e672066726f6d20636c6560408201526c616e65642d757020626c6f636b60981b606082015260800190565b601f821115610ce9576000816000526020600020601f850160051c810160208610156126a25750805b601f850160051c820191505b81811015610b08578281556001016126ae565b81516001600160401b038111156126da576126da612407565b6126ee816126e884546125a3565b84612679565b602080601f831160018114612723576000841561270b5750858301515b600019600386901b1c1916600185901b178555610b08565b600085815260208120601f198616915b8281101561275257888601518255948401946001909101908401612733565b50858210156127705787850151600019600388901b60f8161c191681555b5050505050600190811b01905550565b8181038181111561063857610638612603565b6000602082840312156127a557600080fd5b5051919050565b6000600182016127be576127be612603565b5060010190565b634e487b7160e01b600052601260045260246000fd5b6000826127ea576127ea6127c5565b500490565b6000826127fe576127fe6127c5565b500690565b808202811582820484141761063857610638612603565b634e487b7160e01b600052600160045260246000fdfea26469706673582212203bc4d06315c721b44a6f0a8b9c94b0463af77e55bd2a354a0190842317e7f94464736f6c63430008170033",
  "linkReferences": {},
  "deployedLinkReferences": {}
}