{
  "_format": "hh-sol-artifact-1",
  "contractName": "FAsset",
  "sourceName": "contracts/fassetToken/implementation/FAsset.sol",
  "abi": [
    {
      "inputs": [],
      "stateMutability": "nonpayable",
      "type": "constructor"
    },
    {
      "anonymous": false,
      "inputs": [
        {
          "indexed": false,
          "internalType": "address",
          "name": "previousAdmin",
          "type": "address"
        },
        {
          "indexed": false,
          "internalType": "address",
          "name": "newAdmin",
          "type": "address"
        }
      ],
      "name": "AdminChanged",
      "type": "event"
    },
    {
      "anonymous": false,
      "inputs": [
        {
          "indexed": true,
          "internalType": "address",
          "name": "owner",
          "type": "address"
        },
        {
          "indexed": true,
          "internalType": "address",
          "name": "spender",
          "type": "address"
        },
        {
          "indexed": false,
          "internalType": "uint256",
          "name": "value",
          "type": "uint256"
        }
      ],
      "name": "Approval",
      "type": "event"
    },
    {
      "anonymous": false,
      "inputs": [
        {
          "indexed": true,
          "internalType": "address",
          "name": "beacon",
          "type": "address"
        }
      ],
      "name": "BeaconUpgraded",
      "type": "event"
    },
    {
      "anonymous": false,
      "inputs": [
        {
          "indexed": false,
          "internalType": "uint256",
          "name": "_blockNumber",
          "type": "uint256"
        }
      ],
      "name": "CreatedTotalSupplyCache",
      "type": "event"
    },
    {
      "anonymous": false,
      "inputs": [
        {
          "indexed": true,
          "internalType": "address",
          "name": "from",
          "type": "address"
        },
        {
          "indexed": true,
          "internalType": "address",
          "name": "to",
          "type": "address"
        },
        {
          "indexed": false,
          "internalType": "uint256",
          "name": "value",
          "type": "uint256"
        }
      ],
      "name": "Transfer",
      "type": "event"
    },
    {
      "anonymous": false,
      "inputs": [
        {
          "indexed": true,
          "internalType": "address",
          "name": "implementation",
          "type": "address"
        }
      ],
      "name": "Upgraded",
      "type": "event"
    },
    {
      "inputs": [
        {
          "internalType": "address",
          "name": "owner",
          "type": "address"
        },
        {
          "internalType": "address",
          "name": "spender",
          "type": "address"
        }
      ],
      "name": "allowance",
      "outputs": [
        {
          "internalType": "uint256",
          "name": "",
          "type": "uint256"
        }
      ],
      "stateMutability": "view",
      "type": "function"
    },
    {
      "inputs": [
        {
          "internalType": "address",
          "name": "spender",
          "type": "address"
        },
        {
          "internalType": "uint256",
          "name": "amount",
          "type": "uint256"
        }
      ],
      "name": "approve",
      "outputs": [
        {
          "internalType": "bool",
          "name": "",
          "type": "bool"
        }
      ],
      "stateMutability": "nonpayable",
      "type": "function"
    },
    {
      "inputs": [],
      "name": "assetManager",
      "outputs": [
        {
          "internalType": "address",
          "name": "",
          "type": "address"
        }
      ],
      "stateMutability": "view",
      "type": "function"
    },
    {
      "inputs": [],
      "name": "assetName",
      "outputs": [
        {
          "internalType": "string",
          "name": "",
          "type": "string"
        }
      ],
      "stateMutability": "view",
      "type": "function"
    },
    {
      "inputs": [],
      "name": "assetSymbol",
      "outputs": [
        {
          "internalType": "string",
          "name": "",
          "type": "string"
        }
      ],
      "stateMutability": "view",
      "type": "function"
    },
    {
      "inputs": [
        {
          "internalType": "address",
          "name": "_owner",
          "type": "address"
        },
        {
          "internalType": "uint256",
          "name": "_count",
          "type": "uint256"
        }
      ],
      "name": "balanceHistoryCleanup",
      "outputs": [
        {
          "internalType": "uint256",
          "name": "",
          "type": "uint256"
        }
      ],
      "stateMutability": "nonpayable",
      "type": "function"
    },
    {
      "inputs": [
        {
          "internalType": "address",
          "name": "account",
          "type": "address"
        }
      ],
      "name": "balanceOf",
      "outputs": [
        {
          "internalType": "uint256",
          "name": "",
          "type": "uint256"
        }
      ],
      "stateMutability": "view",
      "type": "function"
    },
    {
      "inputs": [
        {
          "internalType": "address",
          "name": "_owner",
          "type": "address"
        },
        {
          "internalType": "uint256",
          "name": "_blockNumber",
          "type": "uint256"
        }
      ],
      "name": "balanceOfAt",
      "outputs": [
        {
          "internalType": "uint256",
          "name": "_balance",
          "type": "uint256"
        }
      ],
      "stateMutability": "view",
      "type": "function"
    },
    {
      "inputs": [
        {
          "internalType": "address",
          "name": "_owner",
          "type": "address"
        },
        {
          "internalType": "uint256",
          "name": "_amount",
          "type": "uint256"
        }
      ],
      "name": "burn",
      "outputs": [],
      "stateMutability": "nonpayable",
      "type": "function"
    },
    {
      "inputs": [],
      "name": "cleanerContract",
      "outputs": [
        {
          "internalType": "address",
          "name": "",
          "type": "address"
        }
      ],
      "stateMutability": "view",
      "type": "function"
    },
    {
      "inputs": [],
      "name": "cleanupBlockNumber",
      "outputs": [
        {
          "internalType": "uint256",
          "name": "",
          "type": "uint256"
        }
      ],
      "stateMutability": "view",
      "type": "function"
    },
    {
      "inputs": [],
      "name": "cleanupBlockNumberManager",
      "outputs": [
        {
          "internalType": "address",
          "name": "",
          "type": "address"
        }
      ],
      "stateMutability": "view",
      "type": "function"
    },
    {
      "inputs": [],
      "name": "decimals",
      "outputs": [
        {
          "internalType": "uint8",
          "name": "",
          "type": "uint8"
        }
      ],
      "stateMutability": "view",
      "type": "function"
    },
    {
      "inputs": [
        {
          "internalType": "address",
          "name": "spender",
          "type": "address"
        },
        {
          "internalType": "uint256",
          "name": "subtractedValue",
          "type": "uint256"
        }
      ],
      "name": "decreaseAllowance",
      "outputs": [
        {
          "internalType": "bool",
          "name": "",
          "type": "bool"
        }
      ],
      "stateMutability": "nonpayable",
      "type": "function"
    },
    {
      "inputs": [],
      "name": "implementation",
      "outputs": [
        {
          "internalType": "address",
          "name": "",
          "type": "address"
        }
      ],
      "stateMutability": "view",
      "type": "function"
    },
    {
      "inputs": [
        {
          "internalType": "address",
          "name": "spender",
          "type": "address"
        },
        {
          "internalType": "uint256",
          "name": "addedValue",
          "type": "uint256"
        }
      ],
      "name": "increaseAllowance",
      "outputs": [
        {
          "internalType": "bool",
          "name": "",
          "type": "bool"
        }
      ],
      "stateMutability": "nonpayable",
      "type": "function"
    },
    {
      "inputs": [
        {
          "internalType": "string",
          "name": "name_",
          "type": "string"
        },
        {
          "internalType": "string",
          "name": "symbol_",
          "type": "string"
        },
        {
          "internalType": "string",
          "name": "assetName_",
          "type": "string"
        },
        {
          "internalType": "string",
          "name": "assetSymbol_",
          "type": "string"
        },
        {
          "internalType": "uint8",
          "name": "decimals_",
          "type": "uint8"
        }
      ],
      "name": "initialize",
      "outputs": [],
      "stateMutability": "nonpayable",
      "type": "function"
    },
    {
      "inputs": [
        {
          "internalType": "address",
          "name": "_owner",
          "type": "address"
        },
        {
          "internalType": "uint256",
          "name": "_amount",
          "type": "uint256"
        }
      ],
      "name": "mint",
      "outputs": [],
      "stateMutability": "nonpayable",
      "type": "function"
    },
    {
      "inputs": [],
      "name": "name",
      "outputs": [
        {
          "internalType": "string",
          "name": "",
          "type": "string"
        }
      ],
      "stateMutability": "view",
      "type": "function"
    },
    {
      "inputs": [],
      "name": "proxiableUUID",
      "outputs": [
        {
          "internalType": "bytes32",
          "name": "",
          "type": "bytes32"
        }
      ],
      "stateMutability": "view",
      "type": "function"
    },
    {
      "inputs": [
        {
          "internalType": "address",
          "name": "_assetManager",
          "type": "address"
        }
      ],
      "name": "setAssetManager",
      "outputs": [],
      "stateMutability": "nonpayable",
      "type": "function"
    },
    {
      "inputs": [
        {
          "internalType": "address",
          "name": "_cleanerContract",
          "type": "address"
        }
      ],
      "name": "setCleanerContract",
      "outputs": [],
      "stateMutability": "nonpayable",
      "type": "function"
    },
    {
      "inputs": [
        {
          "internalType": "uint256",
          "name": "_blockNumber",
          "type": "uint256"
        }
      ],
      "name": "setCleanupBlockNumber",
      "outputs": [],
      "stateMutability": "nonpayable",
      "type": "function"
    },
    {
      "inputs": [
        {
          "internalType": "address",
          "name": "_cleanupBlockNumberManager",
          "type": "address"
        }
      ],
      "name": "setCleanupBlockNumberManager",
      "outputs": [],
      "stateMutability": "nonpayable",
      "type": "function"
    },
    {
      "inputs": [
        {
          "internalType": "address",
          "name": "_payingAccount",
          "type": "address"
        }
      ],
      "name": "setTransferFeesPaidBy",
      "outputs": [],
      "stateMutability": "nonpayable",
      "type": "function"
    },
    {
      "inputs": [
        {
          "internalType": "bytes4",
          "name": "_interfaceId",
          "type": "bytes4"
        }
      ],
      "name": "supportsInterface",
      "outputs": [
        {
          "internalType": "bool",
          "name": "",
          "type": "bool"
        }
      ],
      "stateMutability": "pure",
      "type": "function"
    },
    {
      "inputs": [],
      "name": "symbol",
      "outputs": [
        {
          "internalType": "string",
          "name": "",
          "type": "string"
        }
      ],
      "stateMutability": "view",
      "type": "function"
    },
    {
      "inputs": [],
      "name": "terminate",
      "outputs": [],
      "stateMutability": "nonpayable",
      "type": "function"
    },
    {
      "inputs": [],
      "name": "terminated",
      "outputs": [
        {
          "internalType": "bool",
          "name": "",
          "type": "bool"
        }
      ],
      "stateMutability": "view",
      "type": "function"
    },
    {
      "inputs": [],
      "name": "terminatedAt",
      "outputs": [
        {
          "internalType": "uint64",
          "name": "",
          "type": "uint64"
        }
      ],
      "stateMutability": "view",
      "type": "function"
    },
    {
      "inputs": [],
      "name": "totalSupply",
      "outputs": [
        {
          "internalType": "uint256",
          "name": "",
          "type": "uint256"
        }
      ],
      "stateMutability": "view",
      "type": "function"
    },
    {
      "inputs": [
        {
          "internalType": "uint256",
          "name": "_blockNumber",
          "type": "uint256"
        }
      ],
      "name": "totalSupplyAt",
      "outputs": [
        {
          "internalType": "uint256",
          "name": "_totalSupply",
          "type": "uint256"
        }
      ],
      "stateMutability": "view",
      "type": "function"
    },
    {
      "inputs": [
        {
          "internalType": "uint256",
          "name": "_count",
          "type": "uint256"
        }
      ],
      "name": "totalSupplyHistoryCleanup",
      "outputs": [
        {
          "internalType": "uint256",
          "name": "",
          "type": "uint256"
        }
      ],
      "stateMutability": "nonpayable",
      "type": "function"
    },
    {
      "inputs": [
        {
          "internalType": "address",
          "name": "_to",
          "type": "address"
        },
        {
          "internalType": "uint256",
          "name": "_amount",
          "type": "uint256"
        }
      ],
      "name": "transfer",
      "outputs": [
        {
          "internalType": "bool",
          "name": "",
          "type": "bool"
        }
      ],
      "stateMutability": "nonpayable",
      "type": "function"
    },
    {
      "inputs": [
        {
          "internalType": "address",
          "name": "_to",
          "type": "address"
        },
        {
          "internalType": "uint256",
          "name": "_amount",
          "type": "uint256"
        }
      ],
      "name": "transferAndPayFee",
      "outputs": [],
      "stateMutability": "nonpayable",
      "type": "function"
    },
    {
      "inputs": [
        {
          "internalType": "uint256",
          "name": "_transferAmount",
          "type": "uint256"
        }
      ],
      "name": "transferFeeAmount",
      "outputs": [
        {
          "internalType": "uint256",
          "name": "",
          "type": "uint256"
        }
      ],
      "stateMutability": "view",
      "type": "function"
    },
    {
      "inputs": [
        {
          "internalType": "address",
          "name": "_origin",
          "type": "address"
        }
      ],
      "name": "transferFeesPaidBy",
      "outputs": [
        {
          "internalType": "address",
          "name": "_payingAccount",
          "type": "address"
        }
      ],
      "stateMutability": "view",
      "type": "function"
    },
    {
      "inputs": [
        {
          "internalType": "address",
          "name": "_from",
          "type": "address"
        },
        {
          "internalType": "address",
          "name": "_to",
          "type": "address"
        },
        {
          "internalType": "uint256",
          "name": "_amount",
          "type": "uint256"
        }
      ],
      "name": "transferFrom",
      "outputs": [
        {
          "internalType": "bool",
          "name": "",
          "type": "bool"
        }
      ],
      "stateMutability": "nonpayable",
      "type": "function"
    },
    {
      "inputs": [
        {
          "internalType": "address",
          "name": "_to",
          "type": "address"
        },
        {
          "internalType": "uint256",
          "name": "_amount",
          "type": "uint256"
        }
      ],
      "name": "transferInternally",
      "outputs": [],
      "stateMutability": "nonpayable",
      "type": "function"
    },
    {
      "inputs": [
        {
          "internalType": "address",
          "name": "_to",
          "type": "address"
        },
        {
          "internalType": "uint256",
          "name": "_amount",
          "type": "uint256"
        }
      ],
      "name": "transferSubtractingFee",
      "outputs": [],
      "stateMutability": "nonpayable",
      "type": "function"
    },
    {
      "inputs": [
        {
          "internalType": "address",
          "name": "newImplementation",
          "type": "address"
        }
      ],
      "name": "upgradeTo",
      "outputs": [],
      "stateMutability": "nonpayable",
      "type": "function"
    },
    {
      "inputs": [
        {
          "internalType": "address",
          "name": "newImplementation",
          "type": "address"
        },
        {
          "internalType": "bytes",
          "name": "data",
          "type": "bytes"
        }
      ],
      "name": "upgradeToAndCall",
      "outputs": [],
      "stateMutability": "payable",
      "type": "function"
    }
  ],
  "bytecode": "0x60a060405230608052600d8054600160a01b600160e01b03191690553480156200002857600080fd5b5060408051602080820183526000808352835191820190935291825290600362000053838262000125565b50600462000062828262000125565b50506010805460ff60a81b1916600160a81b17905550620001f1565b634e487b7160e01b600052604160045260246000fd5b600181811c90821680620000a957607f821691505b602082108103620000ca57634e487b7160e01b600052602260045260246000fd5b50919050565b601f82111562000120576000816000526020600020601f850160051c81016020861015620000fb5750805b601f850160051c820191505b818110156200011c5782815560010162000107565b5050505b505050565b81516001600160401b038111156200014157620001416200007e565b620001598162000152845462000094565b84620000d0565b602080601f831160018114620001915760008415620001785750858301515b600019600386901b1c1916600185901b1785556200011c565b600085815260208120601f198616915b82811015620001c257888601518255948401946001909101908401620001a1565b5085821015620001e15787850151600019600388901b60f8161c191681555b5050505050600190811b01905550565b60805161326b6200022960003960008181610b1c01528181610b5c01528181610d8501528181610dc50152610e3d015261326b6000f3fe6080604052600436106102515760003560e01c806361e67d7b11610139578063a457c2d7116100b6578063e9dfba851161007a578063e9dfba8514610700578063f0e292c914610720578063f62f8f3a14610740578063f6a494af14610760578063f842c12514610780578063f8894c39146107ca57600080fd5b8063a457c2d714610676578063a9059cbb14610696578063c9230c5d146106b6578063dd62ed3e146106cb578063deea13e7146106eb57600080fd5b806395d89b41116100fd57806395d89b41146105c2578063981b24d0146105d75780639ca20e4e146105f75780639dc29fac146106175780639e3bc2081461063757600080fd5b806361e67d7b1461050c57806370a082311461052c5780637cfc672b146105625780637f4fcaa91461058257806394217ad1146105a257600080fd5b806323b872dd116101d25780634306023711610196578063430602371461046f5780634eac870f1461048f5780634ee2cd7e146104af5780634f1ef286146104cf57806352d1902d146104e25780635c60da1b146104f757600080fd5b806323b872dd146103cd578063313ce567146103ed5780633659cfe61461040f578063395093511461042f57806340c10f191461044f57600080fd5b806313de97f51161021957806313de97f514610332578063176de7a81461035257806318160ddd14610367578063194307bf146103865780631cb8f94f146103ad57600080fd5b806301ffc9a714610256578063033811e41461028b57806306fdde03146102d9578063095ea7b3146102fb5780630c08bf881461031b575b600080fd5b34801561026257600080fd5b50610276610271366004612b75565b6107ea565b60405190151581526020015b60405180910390f35b34801561029757600080fd5b506102c16102a6366004612bb6565b6011602052600090815260409020546001600160a01b031681565b6040516001600160a01b039091168152602001610282565b3480156102e557600080fd5b506102ee6108a8565b6040516102829190612bf5565b34801561030757600080fd5b50610276610316366004612c28565b61093a565b34801561032757600080fd5b50610330610952565b005b34801561033e57600080fd5b5061033061034d366004612c52565b6109c7565b34801561035e57600080fd5b506102ee610a2d565b34801561037357600080fd5b506002545b604051908152602001610282565b34801561039257600080fd5b50600d54600160a01b90046001600160401b03161515610276565b3480156103b957600080fd5b506103306103c8366004612c28565b610abb565b3480156103d957600080fd5b506102766103e8366004612c6b565b610af4565b3480156103f957600080fd5b5060105460405160ff9091168152602001610282565b34801561041b57600080fd5b5061033061042a366004612bb6565b610b12565b34801561043b57600080fd5b5061027661044a366004612c28565b610bd7565b34801561045b57600080fd5b5061033061046a366004612c28565b610bf9565b34801561047b57600080fd5b5061033061048a366004612bb6565b610c2d565b34801561049b57600080fd5b50600c546102c1906001600160a01b031681565b3480156104bb57600080fd5b506103786104ca366004612c28565b610d42565b6103306104dd366004612d32565b610d7b565b3480156104ee57600080fd5b50610378610e30565b34801561050357600080fd5b506102c1610ee3565b34801561051857600080fd5b50610378610527366004612c52565b610ef2565b34801561053857600080fd5b50610378610547366004612bb6565b6001600160a01b031660009081526020819052604090205490565b34801561056e57600080fd5b5061033061057d366004612db3565b610efd565b34801561058e57600080fd5b5061033061059d366004612bb6565b610fb6565b3480156105ae57600080fd5b50600d546102c1906001600160a01b031681565b3480156105ce57600080fd5b506102ee611002565b3480156105e357600080fd5b506103786105f2366004612c52565b611011565b34801561060357600080fd5b506009546102c1906001600160a01b031681565b34801561062357600080fd5b50610330610632366004612c28565b61104a565b34801561064357600080fd5b50600d5461065e90600160a01b90046001600160401b031681565b6040516001600160401b039091168152602001610282565b34801561068257600080fd5b50610276610691366004612c28565b61107e565b3480156106a257600080fd5b506102766106b1366004612c28565b611104565b3480156106c257600080fd5b506102ee611123565b3480156106d757600080fd5b506103786106e6366004612e7a565b611130565b3480156106f757600080fd5b5061037861115b565b34801561070c57600080fd5b5061033061071b366004612c28565b611166565b34801561072c57600080fd5b5061037861073b366004612c28565b61118f565b34801561074c57600080fd5b5061037861075b366004612c52565b6111f7565b34801561076c57600080fd5b5061033061077b366004612bb6565b611262565b34801561078c57600080fd5b5061033061079b366004612bb6565b33600090815260116020526040902080546001600160a01b0319166001600160a01b0392909216919091179055565b3480156107d657600080fd5b506103306107e5366004612c28565b6112aa565b60006001600160e01b031982166301ffc9a760e01b148061081b57506001600160e01b031982166336372b0760e01b145b8061083657506001600160e01b0319821663a219a02560e01b145b8061085157506001600160e01b03198216636b7cf4d760e11b145b8061086c57506001600160e01b03198216635c80587360e11b145b8061088757506001600160e01b03198216633f1426f560e21b145b806108a257506001600160e01b03198216633b9010bd60e01b145b92915050565b6060600e80546108b790612ead565b80601f01602080910402602001604051908101604052809291908181526020018280546108e390612ead565b80156109305780601f1061090557610100808354040283529160200191610930565b820191906000526020600020905b81548152906001019060200180831161091357829003601f168201915b5050505050905090565b6000336109488185856112cb565b5060019392505050565b600d546001600160a01b031633146109855760405162461bcd60e51b815260040161097c90612ee1565b60405180910390fd5b600d54600160a01b90046001600160401b03166000036109c557600d805467ffffffffffffffff60a01b1916600160a01b426001600160401b0316021790555b565b600c546001600160a01b03163314610a215760405162461bcd60e51b815260206004820152601a60248201527f6f6e6c7920636c65616e757020626c6f636b206d616e61676572000000000000604482015260640161097c565b610a2a816113ef565b50565b600b8054610a3a90612ead565b80601f0160208091040260200160405190810160405280929190818152602001828054610a6690612ead565b8015610ab35780601f10610a8857610100808354040283529160200191610ab3565b820191906000526020600020905b815481529060010190602001808311610a9657829003601f168201915b505050505081565b600d546001600160a01b03163314610ae55760405162461bcd60e51b815260040161097c90612ee1565b610af03383836114b0565b5050565b6000610b01848484611661565b506109488261167a565b9392505050565b6001600160a01b037f0000000000000000000000000000000000000000000000000000000000000000163003610b5a5760405162461bcd60e51b815260040161097c90612f0d565b7f00000000000000000000000000000000000000000000000000000000000000006001600160a01b0316610b8c611693565b6001600160a01b031614610bb25760405162461bcd60e51b815260040161097c90612f59565b610bbb816116af565b60408051600080825260208201909252610a2a918391906116d9565b600033610948818585610bea8383611130565b610bf49190612fbb565b6112cb565b600d546001600160a01b03163314610c235760405162461bcd60e51b815260040161097c90612ee1565b610af08282611844565b60105461010090046001600160a01b03163314610c7c5760405162461bcd60e51b815260206004820152600d60248201526c37b7363c903232b83637bcb2b960991b604482015260640161097c565b6001600160a01b038116610cc75760405162461bcd60e51b81526020600482015260126024820152713d32b9379030b9b9b2ba1036b0b730b3b2b960711b604482015260640161097c565b600d546001600160a01b031615610d205760405162461bcd60e51b815260206004820152601c60248201527f63616e6e6f74207265706c616365206173736574206d616e6167657200000000604482015260640161097c565b600d80546001600160a01b0319166001600160a01b0392909216919091179055565b600081600854811015610d675760405162461bcd60e51b815260040161097c90612fce565b610d736005858561190f565b949350505050565b6001600160a01b037f0000000000000000000000000000000000000000000000000000000000000000163003610dc35760405162461bcd60e51b815260040161097c90612f0d565b7f00000000000000000000000000000000000000000000000000000000000000006001600160a01b0316610df5611693565b6001600160a01b031614610e1b5760405162461bcd60e51b815260040161097c90612f59565b610e24826116af565b610af0828260016116d9565b6000306001600160a01b037f00000000000000000000000000000000000000000000000000000000000000001614610ed05760405162461bcd60e51b815260206004820152603860248201527f555550535570677261646561626c653a206d757374206e6f742062652063616c60448201527f6c6564207468726f7567682064656c656761746563616c6c0000000000000000606482015260840161097c565b506000805160206131ef83398151915290565b6000610eed611693565b905090565b60006108a28261193a565b601054600160a81b900460ff1615610f4d5760405162461bcd60e51b8152602060048201526013602482015272185b1c9958591e481a5b9a5d1a585b1a5e9959606a1b604482015260640161097c565b601080543361010002610100600160b01b031990911617600160a81b179055600e610f788682613063565b50600f610f858582613063565b506010805460ff191660ff8316179055600a610fa18482613063565b50600b610fae8382613063565b505050505050565b600d546001600160a01b03163314610fe05760405162461bcd60e51b815260040161097c90612ee1565b600c80546001600160a01b0319166001600160a01b0392909216919091179055565b6060600f80546108b790612ead565b6000816008548110156110365760405162461bcd60e51b815260040161097c90612fce565b6110416006846119c4565b91505b50919050565b600d546001600160a01b031633146110745760405162461bcd60e51b815260040161097c90612ee1565b610af08282611b4c565b6000338161108c8286611130565b9050838110156110ec5760405162461bcd60e51b815260206004820152602560248201527f45524332303a2064656372656173656420616c6c6f77616e63652062656c6f77604482015264207a65726f60d81b606482015260840161097c565b6110f982868684036112cb565b506001949350505050565b60006111108383611c8a565b5061111a8261167a565b50600192915050565b600a8054610a3a90612ead565b6001600160a01b03918216600090815260016020908152604080832093909416825291909152205490565b6000610eed60085490565b60006111718261193a565b905061117e3384846114b0565b61118a33600083611c98565b505050565b6009546000906001600160a01b031633146111e45760405162461bcd60e51b815260206004820152601560248201527413db9b1e4818db19585b995c8818dbdb9d1c9858dd605a1b604482015260640161097c565b600854610b0b9060059085908590611e25565b6009546000906001600160a01b0316331461124c5760405162461bcd60e51b815260206004820152601560248201527413db9b1e4818db19585b995c8818dbdb9d1c9858dd605a1b604482015260640161097c565b6008546108a2906006908490611e6b565b919050565b600d546001600160a01b0316331461128c5760405162461bcd60e51b815260040161097c90612ee1565b600980546001600160a01b0319166001600160a01b03831617905550565b60006112b582611f84565b905061117e33846112c68486613122565b6114b0565b6001600160a01b03831661132d5760405162461bcd60e51b8152602060048201526024808201527f45524332303a20617070726f76652066726f6d20746865207a65726f206164646044820152637265737360e01b606482015260840161097c565b6001600160a01b03821661138e5760405162461bcd60e51b815260206004820152602260248201527f45524332303a20617070726f766520746f20746865207a65726f206164647265604482015261737360f01b606482015260840161097c565b6001600160a01b0383811660008181526001602090815260408083209487168084529482529182902085905590518481527f8c5be1e5ebec7d5bd14f71427d1e84f3dd0314c0f7b2291e5b200ac8c7c3b925910160405180910390a3505050565b6008548110156114525760405162461bcd60e51b815260206004820152602860248201527f436c65616e757020626c6f636b206e756d626572206d757374206e6576657220604482015267646563726561736560c01b606482015260840161097c565b4381106114ab5760405162461bcd60e51b815260206004820152602160248201527f436c65616e757020626c6f636b206d75737420626520696e20746865207061736044820152601d60fa1b606482015260840161097c565b600855565b6001600160a01b0383166115145760405162461bcd60e51b815260206004820152602560248201527f45524332303a207472616e736665722066726f6d20746865207a65726f206164604482015264647265737360d81b606482015260840161097c565b6001600160a01b0382166115765760405162461bcd60e51b815260206004820152602360248201527f45524332303a207472616e7366657220746f20746865207a65726f206164647260448201526265737360e81b606482015260840161097c565b611581838383612017565b6001600160a01b038316600090815260208190526040902054818110156115f95760405162461bcd60e51b815260206004820152602660248201527f45524332303a207472616e7366657220616d6f756e7420657863656564732062604482015265616c616e636560d01b606482015260840161097c565b6001600160a01b03848116600081815260208181526040808320878703905593871680835291849020805487019055925185815290927fddf252ad1be2c89b69c2b068fc378daa952ba7f163c4a11628f55a4df523b3ef910160405180910390a35b50505050565b60003361166f858285612158565b6110f98585856114b0565b60006116858261193a565b9050610af032600183611c98565b6000805160206131ef833981519152546001600160a01b031690565b600d546001600160a01b03163314610a2a5760405162461bcd60e51b815260040161097c90612ee1565b7f4910fdfa16fed3260ed0e7147f7cc6da11a60208b5b9406d12a635614ffd91435460ff161561170c5761118a836121cc565b826001600160a01b03166352d1902d6040518163ffffffff1660e01b8152600401602060405180830381865afa925050508015611766575060408051601f3d908101601f1916820190925261176391810190613135565b60015b6117c95760405162461bcd60e51b815260206004820152602e60248201527f45524331393637557067726164653a206e657720696d706c656d656e7461746960448201526d6f6e206973206e6f74205555505360901b606482015260840161097c565b6000805160206131ef83398151915281146118385760405162461bcd60e51b815260206004820152602960248201527f45524331393637557067726164653a20756e737570706f727465642070726f786044820152681a58589b195555525160ba1b606482015260840161097c565b5061118a838383612268565b6001600160a01b03821661189a5760405162461bcd60e51b815260206004820152601f60248201527f45524332303a206d696e7420746f20746865207a65726f206164647265737300604482015260640161097c565b6118a660008383612017565b80600260008282546118b89190612fbb565b90915550506001600160a01b038216600081815260208181526040808320805486019055518481527fddf252ad1be2c89b69c2b068fc378daa952ba7f163c4a11628f55a4df523b3ef910160405180910390a35050565b6001600160a01b038216600090815260208490526040812061193181846119c4565b95945050505050565b600080600d60009054906101000a90046001600160a01b03166001600160a01b0316633ba60fb16040518163ffffffff1660e01b8152600401602060405180830381865afa158015611990573d6000803e3d6000fd5b505050506040513d601f19601f820116820180604052508101906119b49190613135565b90506110418382620f424061228d565b6001820154600090600160401b90046001600160401b03168082036119ed5760009150506108a2565b4383101580611a2a5750836000611a05600184613122565b8152602081019190915260400160002054600160c01b90046001600160401b03168310155b15611a6057836000611a3d600184613122565b81526020810191909152604001600020546001600160c01b031691506108a29050565b60018401546001600160401b039081166000818152602087905260409020549091600160c01b90910416841015611b03578015611af85760405162461bcd60e51b815260206004820152603060248201527f436865636b506f696e74486973746f72793a2072656164696e672066726f6d2060448201526f636c65616e65642d757020626c6f636b60801b606482015260840161097c565b6000925050506108a2565b6001850154600090611b299087908490600160401b90046001600160401b0316886123a7565b6000908152602087905260409020546001600160c01b0316935050505092915050565b6001600160a01b038216611bac5760405162461bcd60e51b815260206004820152602160248201527f45524332303a206275726e2066726f6d20746865207a65726f206164647265736044820152607360f81b606482015260840161097c565b611bb882600083612017565b6001600160a01b03821660009081526020819052604090205481811015611c2c5760405162461bcd60e51b815260206004820152602260248201527f45524332303a206275726e20616d6f756e7420657863656564732062616c616e604482015261636560f01b606482015260840161097c565b6001600160a01b0383166000818152602081815260408083208686039055600280548790039055518581529192917fddf252ad1be2c89b69c2b068fc378daa952ba7f163c4a11628f55a4df523b3ef910160405180910390a3505050565b6000336109488185856114b0565b80600003611ca557505050565b6000611cb18484612431565b905081611cd3826001600160a01b031660009081526020819052604090205490565b1015611d215760405162461bcd60e51b815260206004820181905260248201527f62616c616e636520746f6f206c6f7720666f72207472616e7366657220666565604482015260640161097c565b836001600160a01b0316816001600160a01b031614611da95781611d458286611130565b1015611d9e5760405162461bcd60e51b815260206004820152602260248201527f616c6c6f77616e636520746f6f206c6f7720666f72207472616e736665722066604482015261656560f01b606482015260840161097c565b611da9818584612158565b600d54611dc19082906001600160a01b0316846114b0565b600d5460405163fc52f16d60e01b8152600481018490526001600160a01b039091169063fc52f16d90602401600060405180830381600087803b158015611e0757600080fd5b505af1158015611e1b573d6000803e3d6000fd5b5050505050505050565b60006001600160a01b03841615611e60576001600160a01b0384166000908152602086905260409020611e59908484611e6b565b9050610d73565b506000949350505050565b600081600003611e7d57506000610b0b565b6001840154600160401b90046001600160401b03166000819003611ea5576000915050610b0b565b60018501546001600160401b03166000611ed2611ec28388612465565b611ecd600186613122565b612471565b9050815b8181108015611f13575085886000611eef846001612fbb565b8152602081019190915260400160002054600160c01b90046001600160401b031611155b15611f395760008181526020899052604081205580611f318161314e565b915050611ed6565b82811115611f6e57611f4a81612487565b60018901805467ffffffffffffffff19166001600160401b03929092169190911790555b611f788382613122565b98975050505050505050565b600080600d60009054906101000a90046001600160a01b03166001600160a01b0316633ba60fb16040518163ffffffff1660e01b8152600401602060405180830381865afa158015611fda573d6000803e3d6000fd5b505050506040513d601f19601f82011682018060405250810190611ffe9190613135565b9050611041838261201281620f4240612fbb565b61228d565b600d54600160a01b90046001600160401b03161561206c5760405162461bcd60e51b8152602060048201526012602482015271198b585cdcd95d081d195c9b5a5b985d195960721b604482015260640161097c565b6001600160a01b03831615806120a057508061209d846001600160a01b031660009081526020819052604090205490565b10155b6120ec5760405162461bcd60e51b815260206004820152601760248201527f662d61737365742062616c616e636520746f6f206c6f77000000000000000000604482015260640161097c565b816001600160a01b0316836001600160a01b03160361214d5760405162461bcd60e51b815260206004820152601760248201527f43616e6e6f74207472616e7366657220746f2073656c66000000000000000000604482015260640161097c565b61118a8383836124f3565b60006121648484611130565b9050600019811461165b57818110156121bf5760405162461bcd60e51b815260206004820152601d60248201527f45524332303a20696e73756666696369656e7420616c6c6f77616e6365000000604482015260640161097c565b61165b84848484036112cb565b6001600160a01b0381163b6122395760405162461bcd60e51b815260206004820152602d60248201527f455243313936373a206e657720696d706c656d656e746174696f6e206973206e60448201526c1bdd08184818dbdb9d1c9858dd609a1b606482015260840161097c565b6000805160206131ef83398151915280546001600160a01b0319166001600160a01b0392909216919091179055565b6122718361252e565b60008251118061227e5750805b1561118a5761165b838361256e565b60008082116122d15760405162461bcd60e51b815260206004820152601060248201526f4469766973696f6e206279207a65726f60801b604482015260640161097c565b836000036122e157506000610b0b565b838302838582816122f4576122f4613167565b04036123125782818161230957612309613167565b04915050610b0b565b50600061231f838661317d565b9050600061232d8487613191565b9050600061233b858761317d565b905060006123498688613191565b90508561235682856131a5565b612360919061317d565b61236a83856131a5565b61237483876131a5565b8861237f86896131a5565b61238991906131a5565b6123939190612fbb565b61239d9190612fbb565b611f789190612fbb565b600083816123b6856001612593565b90505b818111156124275760006123e360026123dd60016123d78688612465565b90612465565b9061259f565b600081815260208a90526040902054909150600160c01b90046001600160401b0316851061241357809250612421565b61241e816001612593565b91505b506123b9565b5095945050505050565b60008161243f5750816108a2565b6001600160a01b038084166000908152601160205260409020541680610b0b5783610d73565b6000610b0b8284612fbb565b60008183106124805781610b0b565b5090919050565b60006001600160401b038211156124ef5760405162461bcd60e51b815260206004820152602660248201527f53616665436173743a2076616c756520646f65736e27742066697420696e203660448201526534206269747360d01b606482015260840161097c565b5090565b6001600160a01b03831661250b5761118a82826125ab565b6001600160a01b0382166125235761118a8382612608565b61118a8383836126b7565b612537816121cc565b6040516001600160a01b038216907fbc7cd75a20ee27fd9adebab32041f755214dbc6bffa90cc0225b39da2e5c2d3b90600090a250565b6060610b0b838360405180606001604052806027815260200161320f602791396126ed565b6000610b0b8284613122565b6000610b0b828461317d565b60006125bb826123d78543610d42565b90506125c960058483612765565b6008546125dd906005908590600290611e25565b506125f66125ee836123d743611011565b600690612783565b60085461165b90600690600290611e6b565b600061264e8260405180604001604052806016815260200175213ab937103a37b7903134b3903337b91037bbb732b960511b8152506126478643610d42565b9190612948565b905061265c60058483612765565b600854612670906005908590600290611e25565b506125f66125ee836040518060400160405280601d81526020017f4275726e20746f6f2062696720666f7220746f74616c20737570706c7900000081525061264743611011565b6126c46005848484612974565b6008546126d8906005908590600290611e25565b5060085461165b906005908490600290611e25565b6060600080856001600160a01b03168560405161270a91906131bc565b600060405180830381855af49150503d8060008114612745576040519150601f19603f3d011682016040523d82523d6000602084013e61274a565b606091505b509150915061275b86838387612a05565b9695505050505050565b6001600160a01b038216600090815260208490526040902061165b81835b6001820154600160401b90046001600160401b031660008190036128305760405180604001604052806127b584612a7e565b6001600160c01b031681526020016127cc43612487565b6001600160401b0390811690915260008080526020868152604090912083519390910151909116600160c01b026001600160c01b039092169190911790556001830180546fffffffffffffffff00000000000000001916600160401b179055505050565b6000838161283f600185613122565b815260208101919091526040016000208054909150600160c01b90046001600160401b0316438190036128955761287584612a7e565b82546001600160c01b0319166001600160c01b0391909116178255612941565b8043116128a4576128a46131d8565b60405180604001604052806128b886612a7e565b6001600160c01b031681526020016128cf43612487565b6001600160401b0390811690915260008581526020888152604090912083519390910151909116600160c01b026001600160c01b03909216919091179055612918836001612fbb565b8560010160086101000a8154816001600160401b0302191690836001600160401b031602179055505b5050505050565b6000818484111561296c5760405162461bcd60e51b815260040161097c9190612bf5565b505050900390565b801561165b576001600160a01b03831615801561299857506001600160a01b038216155b156129a5576129a56131d8565b6001600160a01b038316156129d95760006129ca826129c48787612ad3565b90612593565b90506129d7858583612765565b505b6001600160a01b0382161561165b5760006129f8826123d78786612ad3565b9050612941858483612765565b60608315612a74578251600003612a6d576001600160a01b0385163b612a6d5760405162461bcd60e51b815260206004820152601d60248201527f416464726573733a2063616c6c20746f206e6f6e2d636f6e7472616374000000604482015260640161097c565b5081610d73565b610d738383612af4565b6000600160c01b82106124ef5760405162461bcd60e51b815260206004820152601d60248201527f76616c756520646f65736e27742066697420696e203139322062697473000000604482015260640161097c565b6001600160a01b0381166000908152602083905260408120610d7381612b1e565b815115612b045781518083602001fd5b8060405162461bcd60e51b815260040161097c9190612bf5565b6001810154600090600160401b90046001600160401b0316808203612b465750600092915050565b826000612b54600184613122565b81526020810191909152604001600020546001600160c01b03169392505050565b600060208284031215612b8757600080fd5b81356001600160e01b031981168114610b0b57600080fd5b80356001600160a01b038116811461125d57600080fd5b600060208284031215612bc857600080fd5b610b0b82612b9f565b60005b83811015612bec578181015183820152602001612bd4565b50506000910152565b6020815260008251806020840152612c14816040850160208701612bd1565b601f01601f19169190910160400192915050565b60008060408385031215612c3b57600080fd5b612c4483612b9f565b946020939093013593505050565b600060208284031215612c6457600080fd5b5035919050565b600080600060608486031215612c8057600080fd5b612c8984612b9f565b9250612c9760208501612b9f565b9150604084013590509250925092565b634e487b7160e01b600052604160045260246000fd5b60006001600160401b0380841115612cd757612cd7612ca7565b604051601f8501601f19908116603f01168101908282118183101715612cff57612cff612ca7565b81604052809350858152868686011115612d1857600080fd5b858560208301376000602087830101525050509392505050565b60008060408385031215612d4557600080fd5b612d4e83612b9f565b915060208301356001600160401b03811115612d6957600080fd5b8301601f81018513612d7a57600080fd5b612d8985823560208401612cbd565b9150509250929050565b600082601f830112612da457600080fd5b610b0b83833560208501612cbd565b600080600080600060a08688031215612dcb57600080fd5b85356001600160401b0380821115612de257600080fd5b612dee89838a01612d93565b96506020880135915080821115612e0457600080fd5b612e1089838a01612d93565b95506040880135915080821115612e2657600080fd5b612e3289838a01612d93565b94506060880135915080821115612e4857600080fd5b50612e5588828901612d93565b925050608086013560ff81168114612e6c57600080fd5b809150509295509295909350565b60008060408385031215612e8d57600080fd5b612e9683612b9f565b9150612ea460208401612b9f565b90509250929050565b600181811c90821680612ec157607f821691505b60208210810361104457634e487b7160e01b600052602260045260246000fd5b60208082526012908201527137b7363c9030b9b9b2ba1036b0b730b3b2b960711b604082015260600190565b6020808252602c908201527f46756e6374696f6e206d7573742062652063616c6c6564207468726f7567682060408201526b19195b1959d85d1958d85b1b60a21b606082015260800190565b6020808252602c908201527f46756e6374696f6e206d7573742062652063616c6c6564207468726f7567682060408201526b6163746976652070726f787960a01b606082015260800190565b634e487b7160e01b600052601160045260246000fd5b808201808211156108a2576108a2612fa5565b6020808252602d908201527f436865636b506f696e7461626c653a2072656164696e672066726f6d20636c6560408201526c616e65642d757020626c6f636b60981b606082015260800190565b601f82111561118a576000816000526020600020601f850160051c810160208610156130445750805b601f850160051c820191505b81811015610fae57828155600101613050565b81516001600160401b0381111561307c5761307c612ca7565b6130908161308a8454612ead565b8461301b565b602080601f8311600181146130c557600084156130ad5750858301515b600019600386901b1c1916600185901b178555610fae565b600085815260208120601f198616915b828110156130f4578886015182559484019460019091019084016130d5565b50858210156131125787850151600019600388901b60f8161c191681555b5050505050600190811b01905550565b818103818111156108a2576108a2612fa5565b60006020828403121561314757600080fd5b5051919050565b60006001820161316057613160612fa5565b5060010190565b634e487b7160e01b600052601260045260246000fd5b60008261318c5761318c613167565b500490565b6000826131a0576131a0613167565b500690565b80820281158282048414176108a2576108a2612fa5565b600082516131ce818460208701612bd1565b9190910192915050565b634e487b7160e01b600052600160045260246000fdfe360894a13ba1a3210667c828492db98dca3e2076cc3735a920a3ca505d382bbc416464726573733a206c6f772d6c6576656c2064656c65676174652063616c6c206661696c6564a2646970667358221220c660441393b4de6e9581fbe7e13105b2ba0bc27f1815085066fb72183a79759664736f6c63430008170033",
  "linkReferences": {},
  "deployedLinkReferences": {}
}