{
  "_format": "hh-sol-artifact-1",
  "contractName": "FAsset",
  "sourceName": "contracts/fassetToken/implementation/FAsset.sol",
  "abi": [
    {
      "inputs": [],
      "stateMutability": "nonpayable",
      "type": "constructor"
    },
    {
      "anonymous": false,
      "inputs": [
        {
          "indexed": false,
          "internalType": "address",
          "name": "previousAdmin",
          "type": "address"
        },
        {
          "indexed": false,
          "internalType": "address",
          "name": "newAdmin",
          "type": "address"
        }
      ],
      "name": "AdminChanged",
      "type": "event"
    },
    {
      "anonymous": false,
      "inputs": [
        {
          "indexed": true,
          "internalType": "address",
          "name": "owner",
          "type": "address"
        },
        {
          "indexed": true,
          "internalType": "address",
          "name": "spender",
          "type": "address"
        },
        {
          "indexed": false,
          "internalType": "uint256",
          "name": "value",
          "type": "uint256"
        }
      ],
      "name": "Approval",
      "type": "event"
    },
    {
      "anonymous": false,
      "inputs": [
        {
          "indexed": true,
          "internalType": "address",
          "name": "beacon",
          "type": "address"
        }
      ],
      "name": "BeaconUpgraded",
      "type": "event"
    },
    {
      "anonymous": false,
      "inputs": [
        {
          "indexed": false,
          "internalType": "uint256",
          "name": "_blockNumber",
          "type": "uint256"
        }
      ],
      "name": "CreatedTotalSupplyCache",
      "type": "event"
    },
    {
      "anonymous": false,
      "inputs": [],
      "name": "EIP712DomainChanged",
      "type": "event"
    },
    {
      "anonymous": false,
      "inputs": [
        {
          "indexed": true,
          "internalType": "address",
          "name": "from",
          "type": "address"
        },
        {
          "indexed": true,
          "internalType": "address",
          "name": "to",
          "type": "address"
        },
        {
          "indexed": false,
          "internalType": "uint256",
          "name": "value",
          "type": "uint256"
        }
      ],
      "name": "Transfer",
      "type": "event"
    },
    {
      "anonymous": false,
      "inputs": [
        {
          "indexed": true,
          "internalType": "address",
          "name": "implementation",
          "type": "address"
        }
      ],
      "name": "Upgraded",
      "type": "event"
    },
    {
      "inputs": [],
      "name": "DOMAIN_SEPARATOR",
      "outputs": [
        {
          "internalType": "bytes32",
          "name": "",
          "type": "bytes32"
        }
      ],
      "stateMutability": "view",
      "type": "function"
    },
    {
      "inputs": [
        {
          "internalType": "address",
          "name": "owner",
          "type": "address"
        },
        {
          "internalType": "address",
          "name": "spender",
          "type": "address"
        }
      ],
      "name": "allowance",
      "outputs": [
        {
          "internalType": "uint256",
          "name": "",
          "type": "uint256"
        }
      ],
      "stateMutability": "view",
      "type": "function"
    },
    {
      "inputs": [
        {
          "internalType": "address",
          "name": "spender",
          "type": "address"
        },
        {
          "internalType": "uint256",
          "name": "amount",
          "type": "uint256"
        }
      ],
      "name": "approve",
      "outputs": [
        {
          "internalType": "bool",
          "name": "",
          "type": "bool"
        }
      ],
      "stateMutability": "nonpayable",
      "type": "function"
    },
    {
      "inputs": [],
      "name": "assetManager",
      "outputs": [
        {
          "internalType": "address",
          "name": "",
          "type": "address"
        }
      ],
      "stateMutability": "view",
      "type": "function"
    },
    {
      "inputs": [],
      "name": "assetName",
      "outputs": [
        {
          "internalType": "string",
          "name": "",
          "type": "string"
        }
      ],
      "stateMutability": "view",
      "type": "function"
    },
    {
      "inputs": [],
      "name": "assetSymbol",
      "outputs": [
        {
          "internalType": "string",
          "name": "",
          "type": "string"
        }
      ],
      "stateMutability": "view",
      "type": "function"
    },
    {
      "inputs": [
        {
          "internalType": "address",
          "name": "_owner",
          "type": "address"
        },
        {
          "internalType": "uint256",
          "name": "_count",
          "type": "uint256"
        }
      ],
      "name": "balanceHistoryCleanup",
      "outputs": [
        {
          "internalType": "uint256",
          "name": "",
          "type": "uint256"
        }
      ],
      "stateMutability": "nonpayable",
      "type": "function"
    },
    {
      "inputs": [
        {
          "internalType": "address",
          "name": "account",
          "type": "address"
        }
      ],
      "name": "balanceOf",
      "outputs": [
        {
          "internalType": "uint256",
          "name": "",
          "type": "uint256"
        }
      ],
      "stateMutability": "view",
      "type": "function"
    },
    {
      "inputs": [
        {
          "internalType": "address",
          "name": "_owner",
          "type": "address"
        },
        {
          "internalType": "uint256",
          "name": "_blockNumber",
          "type": "uint256"
        }
      ],
      "name": "balanceOfAt",
      "outputs": [
        {
          "internalType": "uint256",
          "name": "_balance",
          "type": "uint256"
        }
      ],
      "stateMutability": "view",
      "type": "function"
    },
    {
      "inputs": [
        {
          "internalType": "address",
          "name": "_owner",
          "type": "address"
        },
        {
          "internalType": "uint256",
          "name": "_amount",
          "type": "uint256"
        }
      ],
      "name": "burn",
      "outputs": [],
      "stateMutability": "nonpayable",
      "type": "function"
    },
    {
      "inputs": [],
      "name": "cleanerContract",
      "outputs": [
        {
          "internalType": "address",
          "name": "",
          "type": "address"
        }
      ],
      "stateMutability": "view",
      "type": "function"
    },
    {
      "inputs": [],
      "name": "cleanupBlockNumber",
      "outputs": [
        {
          "internalType": "uint256",
          "name": "",
          "type": "uint256"
        }
      ],
      "stateMutability": "view",
      "type": "function"
    },
    {
      "inputs": [],
      "name": "cleanupBlockNumberManager",
      "outputs": [
        {
          "internalType": "address",
          "name": "",
          "type": "address"
        }
      ],
      "stateMutability": "view",
      "type": "function"
    },
    {
      "inputs": [],
      "name": "decimals",
      "outputs": [
        {
          "internalType": "uint8",
          "name": "",
          "type": "uint8"
        }
      ],
      "stateMutability": "view",
      "type": "function"
    },
    {
      "inputs": [
        {
          "internalType": "address",
          "name": "spender",
          "type": "address"
        },
        {
          "internalType": "uint256",
          "name": "subtractedValue",
          "type": "uint256"
        }
      ],
      "name": "decreaseAllowance",
      "outputs": [
        {
          "internalType": "bool",
          "name": "",
          "type": "bool"
        }
      ],
      "stateMutability": "nonpayable",
      "type": "function"
    },
    {
      "inputs": [],
      "name": "eip712Domain",
      "outputs": [
        {
          "internalType": "bytes1",
          "name": "fields",
          "type": "bytes1"
        },
        {
          "internalType": "string",
          "name": "name",
          "type": "string"
        },
        {
          "internalType": "string",
          "name": "version",
          "type": "string"
        },
        {
          "internalType": "uint256",
          "name": "chainId",
          "type": "uint256"
        },
        {
          "internalType": "address",
          "name": "verifyingContract",
          "type": "address"
        },
        {
          "internalType": "bytes32",
          "name": "salt",
          "type": "bytes32"
        },
        {
          "internalType": "uint256[]",
          "name": "extensions",
          "type": "uint256[]"
        }
      ],
      "stateMutability": "view",
      "type": "function"
    },
    {
      "inputs": [
        {
          "internalType": "address",
          "name": "",
          "type": "address"
        },
        {
          "internalType": "address",
          "name": "",
          "type": "address"
        },
        {
          "internalType": "uint256",
          "name": "_sentAmount",
          "type": "uint256"
        }
      ],
      "name": "getReceivedAmount",
      "outputs": [
        {
          "internalType": "uint256",
          "name": "_receivedAmount",
          "type": "uint256"
        },
        {
          "internalType": "uint256",
          "name": "_feeAmount",
          "type": "uint256"
        }
      ],
      "stateMutability": "view",
      "type": "function"
    },
    {
      "inputs": [
        {
          "internalType": "address",
          "name": "",
          "type": "address"
        },
        {
          "internalType": "address",
          "name": "",
          "type": "address"
        },
        {
          "internalType": "uint256",
          "name": "_receivedAmount",
          "type": "uint256"
        }
      ],
      "name": "getSendAmount",
      "outputs": [
        {
          "internalType": "uint256",
          "name": "_sendAmount",
          "type": "uint256"
        },
        {
          "internalType": "uint256",
          "name": "_feeAmount",
          "type": "uint256"
        }
      ],
      "stateMutability": "view",
      "type": "function"
    },
    {
      "inputs": [],
      "name": "implementation",
      "outputs": [
        {
          "internalType": "address",
          "name": "",
          "type": "address"
        }
      ],
      "stateMutability": "view",
      "type": "function"
    },
    {
      "inputs": [
        {
          "internalType": "address",
          "name": "spender",
          "type": "address"
        },
        {
          "internalType": "uint256",
          "name": "addedValue",
          "type": "uint256"
        }
      ],
      "name": "increaseAllowance",
      "outputs": [
        {
          "internalType": "bool",
          "name": "",
          "type": "bool"
        }
      ],
      "stateMutability": "nonpayable",
      "type": "function"
    },
    {
      "inputs": [
        {
          "internalType": "string",
          "name": "name_",
          "type": "string"
        },
        {
          "internalType": "string",
          "name": "symbol_",
          "type": "string"
        },
        {
          "internalType": "string",
          "name": "assetName_",
          "type": "string"
        },
        {
          "internalType": "string",
          "name": "assetSymbol_",
          "type": "string"
        },
        {
          "internalType": "uint8",
          "name": "decimals_",
          "type": "uint8"
        }
      ],
      "name": "initialize",
      "outputs": [],
      "stateMutability": "nonpayable",
      "type": "function"
    },
    {
      "inputs": [],
      "name": "initializeV1r1",
      "outputs": [],
      "stateMutability": "nonpayable",
      "type": "function"
    },
    {
      "inputs": [
        {
          "internalType": "address",
          "name": "_owner",
          "type": "address"
        },
        {
          "internalType": "uint256",
          "name": "_amount",
          "type": "uint256"
        }
      ],
      "name": "mint",
      "outputs": [],
      "stateMutability": "nonpayable",
      "type": "function"
    },
    {
      "inputs": [],
      "name": "name",
      "outputs": [
        {
          "internalType": "string",
          "name": "",
          "type": "string"
        }
      ],
      "stateMutability": "view",
      "type": "function"
    },
    {
      "inputs": [
        {
          "internalType": "address",
          "name": "owner",
          "type": "address"
        }
      ],
      "name": "nonces",
      "outputs": [
        {
          "internalType": "uint256",
          "name": "",
          "type": "uint256"
        }
      ],
      "stateMutability": "view",
      "type": "function"
    },
    {
      "inputs": [
        {
          "internalType": "address",
          "name": "owner",
          "type": "address"
        },
        {
          "internalType": "address",
          "name": "spender",
          "type": "address"
        },
        {
          "internalType": "uint256",
          "name": "value",
          "type": "uint256"
        },
        {
          "internalType": "uint256",
          "name": "deadline",
          "type": "uint256"
        },
        {
          "internalType": "uint8",
          "name": "v",
          "type": "uint8"
        },
        {
          "internalType": "bytes32",
          "name": "r",
          "type": "bytes32"
        },
        {
          "internalType": "bytes32",
          "name": "s",
          "type": "bytes32"
        }
      ],
      "name": "permit",
      "outputs": [],
      "stateMutability": "nonpayable",
      "type": "function"
    },
    {
      "inputs": [],
      "name": "proxiableUUID",
      "outputs": [
        {
          "internalType": "bytes32",
          "name": "",
          "type": "bytes32"
        }
      ],
      "stateMutability": "view",
      "type": "function"
    },
    {
      "inputs": [
        {
          "internalType": "address",
          "name": "_assetManager",
          "type": "address"
        }
      ],
      "name": "setAssetManager",
      "outputs": [],
      "stateMutability": "nonpayable",
      "type": "function"
    },
    {
      "inputs": [
        {
          "internalType": "address",
          "name": "_cleanerContract",
          "type": "address"
        }
      ],
      "name": "setCleanerContract",
      "outputs": [],
      "stateMutability": "nonpayable",
      "type": "function"
    },
    {
      "inputs": [
        {
          "internalType": "uint256",
          "name": "_blockNumber",
          "type": "uint256"
        }
      ],
      "name": "setCleanupBlockNumber",
      "outputs": [],
      "stateMutability": "nonpayable",
      "type": "function"
    },
    {
      "inputs": [
        {
          "internalType": "address",
          "name": "_cleanupBlockNumberManager",
          "type": "address"
        }
      ],
      "name": "setCleanupBlockNumberManager",
      "outputs": [],
      "stateMutability": "nonpayable",
      "type": "function"
    },
    {
      "inputs": [
        {
          "internalType": "bytes4",
          "name": "_interfaceId",
          "type": "bytes4"
        }
      ],
      "name": "supportsInterface",
      "outputs": [
        {
          "internalType": "bool",
          "name": "",
          "type": "bool"
        }
      ],
      "stateMutability": "pure",
      "type": "function"
    },
    {
      "inputs": [],
      "name": "symbol",
      "outputs": [
        {
          "internalType": "string",
          "name": "",
          "type": "string"
        }
      ],
      "stateMutability": "view",
      "type": "function"
    },
    {
      "inputs": [],
      "name": "terminate",
      "outputs": [],
      "stateMutability": "nonpayable",
      "type": "function"
    },
    {
      "inputs": [],
      "name": "terminated",
      "outputs": [
        {
          "internalType": "bool",
          "name": "",
          "type": "bool"
        }
      ],
      "stateMutability": "view",
      "type": "function"
    },
    {
      "inputs": [],
      "name": "terminatedAt",
      "outputs": [
        {
          "internalType": "uint64",
          "name": "",
          "type": "uint64"
        }
      ],
      "stateMutability": "view",
      "type": "function"
    },
    {
      "inputs": [],
      "name": "totalSupply",
      "outputs": [
        {
          "internalType": "uint256",
          "name": "",
          "type": "uint256"
        }
      ],
      "stateMutability": "view",
      "type": "function"
    },
    {
      "inputs": [
        {
          "internalType": "uint256",
          "name": "_blockNumber",
          "type": "uint256"
        }
      ],
      "name": "totalSupplyAt",
      "outputs": [
        {
          "internalType": "uint256",
          "name": "_totalSupply",
          "type": "uint256"
        }
      ],
      "stateMutability": "view",
      "type": "function"
    },
    {
      "inputs": [
        {
          "internalType": "uint256",
          "name": "_count",
          "type": "uint256"
        }
      ],
      "name": "totalSupplyHistoryCleanup",
      "outputs": [
        {
          "internalType": "uint256",
          "name": "",
          "type": "uint256"
        }
      ],
      "stateMutability": "nonpayable",
      "type": "function"
    },
    {
      "inputs": [
        {
          "internalType": "address",
          "name": "_to",
          "type": "address"
        },
        {
          "internalType": "uint256",
          "name": "_amount",
          "type": "uint256"
        }
      ],
      "name": "transfer",
      "outputs": [
        {
          "internalType": "bool",
          "name": "",
          "type": "bool"
        }
      ],
      "stateMutability": "nonpayable",
      "type": "function"
    },
    {
      "inputs": [
        {
          "internalType": "address",
          "name": "_to",
          "type": "address"
        },
        {
          "internalType": "uint256",
          "name": "_amount",
          "type": "uint256"
        }
      ],
      "name": "transferExactDest",
      "outputs": [
        {
          "internalType": "bool",
          "name": "",
          "type": "bool"
        }
      ],
      "stateMutability": "nonpayable",
      "type": "function"
    },
    {
      "inputs": [
        {
          "internalType": "address",
          "name": "_from",
          "type": "address"
        },
        {
          "internalType": "address",
          "name": "_to",
          "type": "address"
        },
        {
          "internalType": "uint256",
          "name": "_amount",
          "type": "uint256"
        }
      ],
      "name": "transferExactDestFrom",
      "outputs": [
        {
          "internalType": "bool",
          "name": "",
          "type": "bool"
        }
      ],
      "stateMutability": "nonpayable",
      "type": "function"
    },
    {
      "inputs": [
        {
          "internalType": "address",
          "name": "_from",
          "type": "address"
        },
        {
          "internalType": "address",
          "name": "_to",
          "type": "address"
        },
        {
          "internalType": "uint256",
          "name": "_amount",
          "type": "uint256"
        }
      ],
      "name": "transferFrom",
      "outputs": [
        {
          "internalType": "bool",
          "name": "",
          "type": "bool"
        }
      ],
      "stateMutability": "nonpayable",
      "type": "function"
    },
    {
      "inputs": [
        {
          "internalType": "address",
          "name": "_to",
          "type": "address"
        },
        {
          "internalType": "uint256",
          "name": "_amount",
          "type": "uint256"
        }
      ],
      "name": "transferInternally",
      "outputs": [],
      "stateMutability": "nonpayable",
      "type": "function"
    },
    {
      "inputs": [
        {
          "internalType": "address",
          "name": "newImplementation",
          "type": "address"
        }
      ],
      "name": "upgradeTo",
      "outputs": [],
      "stateMutability": "nonpayable",
      "type": "function"
    },
    {
      "inputs": [
        {
          "internalType": "address",
          "name": "newImplementation",
          "type": "address"
        },
        {
          "internalType": "bytes",
          "name": "data",
          "type": "bytes"
        }
      ],
      "name": "upgradeToAndCall",
      "outputs": [],
      "stateMutability": "payable",
      "type": "function"
    }
  ],
  "bytecode": "0x60a060405230608052600d8054600160a01b600160e01b03191690553480156200002857600080fd5b5060408051602080820183526000808352835191820190935291825290600362000053838262000129565b50600462000062828262000129565b50506010805462ffffff60a81b19166203e80160a81b17905550620001f5565b634e487b7160e01b600052604160045260246000fd5b600181811c90821680620000ad57607f821691505b602082108103620000ce57634e487b7160e01b600052602260045260246000fd5b50919050565b601f82111562000124576000816000526020600020601f850160051c81016020861015620000ff5750805b601f850160051c820191505b8181101562000120578281556001016200010b565b5050505b505050565b81516001600160401b0381111562000145576200014562000082565b6200015d8162000156845462000098565b84620000d4565b602080601f8311600181146200019557600084156200017c5750858301515b600019600386901b1c1916600185901b17855562000120565b600085815260208120601f198616915b82811015620001c657888601518255948401946001909101908401620001a5565b5085821015620001e55787850151600019600388901b60f8161c191681555b5050505050600190811b01905550565b608051613cf66200022d60003960008181610c2b01528181610c6b01528181610eb601528181610ef60152610f6e0152613cf66000f3fe60806040526004361061027d5760003560e01c80636ea121501161014f5780639dc29fac116100c1578063d505accf1161007a578063d505accf146107a8578063dd62ed3e146107c8578063deea13e7146107e8578063f0e292c9146107fd578063f62f8f3a1461081d578063f6a494af1461083d57600080fd5b80639dc29fac146106d45780639e3bc208146106f4578063a457c2d714610733578063a55b580e14610753578063a9059cbb14610773578063c9230c5d1461079357600080fd5b806384b0196e1161011357806384b0196e1461061757806394217ad11461063f57806395d89b411461065f5780639734586e14610674578063981b24d0146106945780639ca20e4e146106b457600080fd5b80636ea121501461056c57806370a08231146105815780637cfc672b146105b75780637ecebe00146105d75780637f4fcaa9146105f757600080fd5b8063313ce567116101f357806343060237116101ac57806343060237146104b75780634eac870f146104d75780634ee2cd7e1461050f5780634f1ef2861461052f57806352d1902d146105425780635c60da1b1461055757600080fd5b8063313ce567146103eb5780633644e5151461040d5780633659cfe614610422578063388b62b014610442578063395093511461047757806340c10f191461049757600080fd5b8063176de7a811610245578063176de7a81461033057806318160ddd14610345578063194307bf146103645780631cb8f94f1461038b5780632335f394146103ab57806323b872dd146103cb57600080fd5b806301ffc9a71461028257806306fdde03146102b7578063095ea7b3146102d95780630c08bf88146102f957806313de97f514610310575b600080fd5b34801561028e57600080fd5b506102a261029d3660046134b2565b61085d565b60405190151581526020015b60405180910390f35b3480156102c357600080fd5b506102cc610951565b6040516102ae919061352c565b3480156102e557600080fd5b506102a26102f4366004613556565b6109e3565b34801561030557600080fd5b5061030e6109fb565b005b34801561031c57600080fd5b5061030e61032b366004613580565b610a70565b34801561033c57600080fd5b506102cc610ad6565b34801561035157600080fd5b506002545b6040519081526020016102ae565b34801561037057600080fd5b50600d54600160a01b90046001600160401b031615156102a2565b34801561039757600080fd5b5061030e6103a6366004613556565b610b64565b3480156103b757600080fd5b506102a26103c6366004613556565b610b9d565b3480156103d757600080fd5b506102a26103e6366004613599565b610bcc565b3480156103f757600080fd5b5060105460405160ff90911681526020016102ae565b34801561041957600080fd5b50610356610c12565b34801561042e57600080fd5b5061030e61043d3660046135d5565b610c21565b34801561044e57600080fd5b5061046261045d366004613599565b610ce6565b604080519283526020830191909152016102ae565b34801561048357600080fd5b506102a2610492366004613556565b610d08565b3480156104a357600080fd5b5061030e6104b2366004613556565b610d2a565b3480156104c357600080fd5b5061030e6104d23660046135d5565b610d5e565b3480156104e357600080fd5b50600c546104f7906001600160a01b031681565b6040516001600160a01b0390911681526020016102ae565b34801561051b57600080fd5b5061035661052a366004613556565b610e73565b61030e61053d36600461367b565b610eac565b34801561054e57600080fd5b50610356610f61565b34801561056357600080fd5b506104f7611014565b34801561057857600080fd5b5061030e61101e565b34801561058d57600080fd5b5061035661059c3660046135d5565b6001600160a01b031660009081526020819052604090205490565b3480156105c357600080fd5b5061030e6105d236600461370d565b61112f565b3480156105e357600080fd5b506103566105f23660046135d5565b6111f0565b34801561060357600080fd5b5061030e6106123660046135d5565b61122d565b34801561062357600080fd5b5061062c611279565b6040516102ae97969594939291906137ca565b34801561064b57600080fd5b50600d546104f7906001600160a01b031681565b34801561066b57600080fd5b506102cc611418565b34801561068057600080fd5b506102a261068f366004613599565b611427565b3480156106a057600080fd5b506103566106af366004613580565b611455565b3480156106c057600080fd5b506009546104f7906001600160a01b031681565b3480156106e057600080fd5b5061030e6106ef366004613556565b61148e565b34801561070057600080fd5b50600d5461071b90600160a01b90046001600160401b031681565b6040516001600160401b0390911681526020016102ae565b34801561073f57600080fd5b506102a261074e366004613556565b6114c2565b34801561075f57600080fd5b5061046261076e366004613599565b61153d565b34801561077f57600080fd5b506102a261078e366004613556565b611555565b34801561079f57600080fd5b506102cc611573565b3480156107b457600080fd5b5061030e6107c3366004613863565b611580565b3480156107d457600080fd5b506103566107e33660046138cd565b6116e4565b3480156107f457600080fd5b5061035661170f565b34801561080957600080fd5b50610356610818366004613556565b61171a565b34801561082957600080fd5b50610356610838366004613580565b611782565b34801561084957600080fd5b5061030e6108583660046135d5565b6117ed565b60006001600160e01b031982166301ffc9a760e01b148061088e57506001600160e01b031982166336372b0760e01b145b806108a957506001600160e01b0319821663a219a02560e01b145b806108c457506001600160e01b031982166342580cb760e11b145b806108df57506001600160e01b03198216634ec7fbed60e11b145b806108fa57506001600160e01b03198216636b7cf4d760e11b145b8061091557506001600160e01b03198216637afd07df60e01b145b8061093057506001600160e01b03198216633f1426f560e21b145b8061094b57506001600160e01b03198216633b9010bd60e01b145b92915050565b6060600e805461096090613900565b80601f016020809104026020016040519081016040528092919081815260200182805461098c90613900565b80156109d95780601f106109ae576101008083540402835291602001916109d9565b820191906000526020600020905b8154815290600101906020018083116109bc57829003601f168201915b5050505050905090565b6000336109f1818585611835565b5060019392505050565b600d546001600160a01b03163314610a2e5760405162461bcd60e51b8152600401610a2590613934565b60405180910390fd5b600d54600160a01b90046001600160401b0316600003610a6e57600d805467ffffffffffffffff60a01b1916600160a01b426001600160401b0316021790555b565b600c546001600160a01b03163314610aca5760405162461bcd60e51b815260206004820152601a60248201527f6f6e6c7920636c65616e757020626c6f636b206d616e616765720000000000006044820152606401610a25565b610ad381611845565b50565b600b8054610ae390613900565b80601f0160208091040260200160405190810160405280929190818152602001828054610b0f90613900565b8015610b5c5780601f10610b3157610100808354040283529160200191610b5c565b820191906000526020600020905b815481529060010190602001808311610b3f57829003601f168201915b505050505081565b600d546001600160a01b03163314610b8e5760405162461bcd60e51b8152600401610a2590613934565b610b99338383611906565b5050565b60003381610baa84611ab7565b9050610bb7828686611906565b610bc18282611b4a565b506001949350505050565b60003381610bd984611c3e565b9050610be6868386611cc8565b610bfa8686610bf58488613976565b611906565b610c048682611b4a565b6001925050505b9392505050565b6000610c1c611d3c565b905090565b6001600160a01b037f0000000000000000000000000000000000000000000000000000000000000000163003610c695760405162461bcd60e51b8152600401610a2590613989565b7f00000000000000000000000000000000000000000000000000000000000000006001600160a01b0316610c9b611dd0565b6001600160a01b031614610cc15760405162461bcd60e51b8152600401610a25906139d5565b610cca81611dec565b60408051600080825260208201909252610ad391839190611e16565b600080610cf283611c3e565b9050610cfe8184613976565b9150935093915050565b6000336109f1818585610d1b83836116e4565b610d259190613a21565b611835565b600d546001600160a01b03163314610d545760405162461bcd60e51b8152600401610a2590613934565b610b998282611f81565b60105461010090046001600160a01b03163314610dad5760405162461bcd60e51b815260206004820152600d60248201526c37b7363c903232b83637bcb2b960991b6044820152606401610a25565b6001600160a01b038116610df85760405162461bcd60e51b81526020600482015260126024820152713d32b9379030b9b9b2ba1036b0b730b3b2b960711b6044820152606401610a25565b600d546001600160a01b031615610e515760405162461bcd60e51b815260206004820152601c60248201527f63616e6e6f74207265706c616365206173736574206d616e61676572000000006044820152606401610a25565b600d80546001600160a01b0319166001600160a01b0392909216919091179055565b600081600854811015610e985760405162461bcd60e51b8152600401610a2590613a34565b610ea46005858561204c565b949350505050565b6001600160a01b037f0000000000000000000000000000000000000000000000000000000000000000163003610ef45760405162461bcd60e51b8152600401610a2590613989565b7f00000000000000000000000000000000000000000000000000000000000000006001600160a01b0316610f26611dd0565b6001600160a01b031614610f4c5760405162461bcd60e51b8152600401610a25906139d5565b610f5582611dec565b610b9982826001611e16565b6000306001600160a01b037f000000000000000000000000000000000000000000000000000000000000000016146110015760405162461bcd60e51b815260206004820152603860248201527f555550535570677261646561626c653a206d757374206e6f742062652063616c60448201527f6c6564207468726f7567682064656c656761746563616c6c00000000000000006064820152608401610a25565b50600080516020613c7a83398151915290565b6000610c1c611dd0565b601054600160b01b900461ffff161561106c5760405162461bcd60e51b815260206004820152601060248201526f185b1c9958591e481d5c19dc9859195960821b6044820152606401610a25565b6010805461ffff60b01b1916600160b01b179055600e8054610a6e919061109290613900565b80601f01602080910402602001604051908101604052809291908181526020018280546110be90613900565b801561110b5780601f106110e05761010080835404028352916020019161110b565b820191906000526020600020905b8154815290600101906020018083116110ee57829003601f168201915b5050505050604051806040016040528060018152602001603160f81b815250612077565b601054600160a81b900460ff161561117f5760405162461bcd60e51b8152602060048201526013602482015272185b1c9958591e481a5b9a5d1a585b1a5e9959606a1b6044820152606401610a25565b601080543361010002610100600160b01b031990911617600160a81b179055600e6111aa8682613ac9565b50600f6111b78582613ac9565b506010805460ff191660ff8316179055600a6111d38482613ac9565b50600b6111e08382613ac9565b506111e961101e565b5050505050565b6001600160a01b03811660009081527f361beb44631d074062265988ad0b416453c05cfc27148633e5eff4da54187b00602052604081205461094b565b600d546001600160a01b031633146112575760405162461bcd60e51b8152600401610a2590613934565b600c80546001600160a01b0319166001600160a01b0392909216919091179055565b600060608082808083817f4433daa742dbf1d9ef1ca283831944614879e423be777b51d57c60ed18a721009050600281016003820146306000806040519080825280602002602001820160405280156112dc578160200160208202803683370190505b50600f60f81b9594939291908580546112f490613900565b80601f016020809104026020016040519081016040528092919081815260200182805461132090613900565b801561136d5780601f106113425761010080835404028352916020019161136d565b820191906000526020600020905b81548152906001019060200180831161135057829003601f168201915b5050505050955084805461138090613900565b80601f01602080910402602001604051908101604052809291908181526020018280546113ac90613900565b80156113f95780601f106113ce576101008083540402835291602001916113f9565b820191906000526020600020905b8154815290600101906020018083116113dc57829003601f168201915b5050505050945097509750975097509750975097505090919293949596565b6060600f805461096090613900565b6000338161143484611ab7565b905061144a86836114458488613a21565b611cc8565b610bfa868686611906565b60008160085481101561147a5760405162461bcd60e51b8152600401610a2590613a34565b6114856006846120ec565b91505b50919050565b600d546001600160a01b031633146114b85760405162461bcd60e51b8152600401610a2590613934565b610b998282612274565b600033816114d082866116e4565b9050838110156115305760405162461bcd60e51b815260206004820152602560248201527f45524332303a2064656372656173656420616c6c6f77616e63652062656c6f77604482015264207a65726f60d81b6064820152608401610a25565b610bc18286868403611835565b60008061154983611ab7565b9050610cfe8184613a21565b6000338161156284611c3e565b9050610bb78286610bf58488613976565b600a8054610ae390613900565b834211156115d05760405162461bcd60e51b815260206004820152601d60248201527f45524332305065726d69743a206578706972656420646561646c696e650000006044820152606401610a25565b60007f6e71edae12b1b97f4d1f60370fef10105fa2faae0126114a169c64845d6126c98888886115ff8c6123b2565b6040805160208101969096526001600160a01b0394851690860152929091166060840152608083015260a082015260c0810186905260e001604051602081830303815290604052805190602001209050600061165a826123f7565b9050600061166a82878787612424565b9050896001600160a01b0316816001600160a01b0316146116cd5760405162461bcd60e51b815260206004820152601e60248201527f45524332305065726d69743a20696e76616c6964207369676e617475726500006044820152606401610a25565b6116d88a8a8a611835565b50505050505050505050565b6001600160a01b03918216600090815260016020908152604080832093909416825291909152205490565b6000610c1c60085490565b6009546000906001600160a01b0316331461176f5760405162461bcd60e51b815260206004820152601560248201527413db9b1e4818db19585b995c8818dbdb9d1c9858dd605a1b6044820152606401610a25565b600854610c0b906005908590859061244c565b6009546000906001600160a01b031633146117d75760405162461bcd60e51b815260206004820152601560248201527413db9b1e4818db19585b995c8818dbdb9d1c9858dd605a1b6044820152606401610a25565b60085461094b906006908490612492565b919050565b600d546001600160a01b031633146118175760405162461bcd60e51b8152600401610a2590613934565b600980546001600160a01b0319166001600160a01b03831617905550565b6118408383836125ab565b505050565b6008548110156118a85760405162461bcd60e51b815260206004820152602860248201527f436c65616e757020626c6f636b206e756d626572206d757374206e6576657220604482015267646563726561736560c01b6064820152608401610a25565b4381106119015760405162461bcd60e51b815260206004820152602160248201527f436c65616e757020626c6f636b206d75737420626520696e20746865207061736044820152601d60fa1b6064820152608401610a25565b600855565b6001600160a01b03831661196a5760405162461bcd60e51b815260206004820152602560248201527f45524332303a207472616e736665722066726f6d20746865207a65726f206164604482015264647265737360d81b6064820152608401610a25565b6001600160a01b0382166119cc5760405162461bcd60e51b815260206004820152602360248201527f45524332303a207472616e7366657220746f20746865207a65726f206164647260448201526265737360e81b6064820152608401610a25565b6119d78383836126cf565b6001600160a01b03831660009081526020819052604090205481811015611a4f5760405162461bcd60e51b815260206004820152602660248201527f45524332303a207472616e7366657220616d6f756e7420657863656564732062604482015265616c616e636560d01b6064820152608401610a25565b6001600160a01b03848116600081815260208181526040808320878703905593871680835291849020805487019055925185815290927fddf252ad1be2c89b69c2b068fc378daa952ba7f163c4a11628f55a4df523b3ef910160405180910390a35b50505050565b600080600d60009054906101000a90046001600160a01b03166001600160a01b0316633ba60fb16040518163ffffffff1660e01b8152600401602060405180830381865afa158015611b0d573d6000803e3d6000fd5b505050506040513d601f19601f82011682018060405250810190611b319190613b88565b90506114858382611b4581620f4240613976565b612904565b80600003611b56575050565b80611b76836001600160a01b031660009081526020819052604090205490565b1015611bc45760405162461bcd60e51b815260206004820181905260248201527f62616c616e636520746f6f206c6f7720666f72207472616e73666572206665656044820152606401610a25565b600d54611bdc9083906001600160a01b031683611906565b600d5460405163fc52f16d60e01b8152600481018390526001600160a01b039091169063fc52f16d90602401600060405180830381600087803b158015611c2257600080fd5b505af1158015611c36573d6000803e3d6000fd5b505050505050565b600080600d60009054906101000a90046001600160a01b03166001600160a01b0316633ba60fb16040518163ffffffff1660e01b8152600401602060405180830381865afa158015611c94573d6000803e3d6000fd5b505050506040513d601f19601f82011682018060405250810190611cb89190613b88565b90506114858382620f4240612904565b6000611cd484846116e4565b90506000198114611ab15781811015611d2f5760405162461bcd60e51b815260206004820152601d60248201527f45524332303a20696e73756666696369656e7420616c6c6f77616e63650000006044820152606401610a25565b611ab18484848403611835565b6000610c1c6000807f4433daa742dbf1d9ef1ca283831944614879e423be777b51d57c60ed18a7210080546001820154604080517f8b73c3c69bb8fe3d512ecc4cf759cc79239f7b179b0ffacaa9a75d522b39400f60208201529081019290925260608201524660808201523060a082015290915060c0016040516020818303038152906040528051906020012091505090565b600080516020613c7a833981519152546001600160a01b031690565b600d546001600160a01b03163314610ad35760405162461bcd60e51b8152600401610a2590613934565b7f4910fdfa16fed3260ed0e7147f7cc6da11a60208b5b9406d12a635614ffd91435460ff1615611e495761184083612944565b826001600160a01b03166352d1902d6040518163ffffffff1660e01b8152600401602060405180830381865afa925050508015611ea3575060408051601f3d908101601f19168201909252611ea091810190613b88565b60015b611f065760405162461bcd60e51b815260206004820152602e60248201527f45524331393637557067726164653a206e657720696d706c656d656e7461746960448201526d6f6e206973206e6f74205555505360901b6064820152608401610a25565b600080516020613c7a8339815191528114611f755760405162461bcd60e51b815260206004820152602960248201527f45524331393637557067726164653a20756e737570706f727465642070726f786044820152681a58589b195555525160ba1b6064820152608401610a25565b506118408383836129e0565b6001600160a01b038216611fd75760405162461bcd60e51b815260206004820152601f60248201527f45524332303a206d696e7420746f20746865207a65726f2061646472657373006044820152606401610a25565b611fe3600083836126cf565b8060026000828254611ff59190613a21565b90915550506001600160a01b038216600081815260208181526040808320805486019055518481527fddf252ad1be2c89b69c2b068fc378daa952ba7f163c4a11628f55a4df523b3ef910160405180910390a35050565b6001600160a01b038216600090815260208490526040812061206e81846120ec565b95945050505050565b7f4433daa742dbf1d9ef1ca283831944614879e423be777b51d57c60ed18a721007f4433daa742dbf1d9ef1ca283831944614879e423be777b51d57c60ed18a721026120c38482613ac9565b50600381016120d28382613ac9565b508251602093840120815581519190920120600190910155565b6001820154600090600160401b90046001600160401b031680820361211557600091505061094b565b4383101580612152575083600061212d600184613976565b8152602081019190915260400160002054600160c01b90046001600160401b03168310155b1561218857836000612165600184613976565b81526020810191909152604001600020546001600160c01b0316915061094b9050565b60018401546001600160401b039081166000818152602087905260409020549091600160c01b9091041684101561222b5780156122205760405162461bcd60e51b815260206004820152603060248201527f436865636b506f696e74486973746f72793a2072656164696e672066726f6d2060448201526f636c65616e65642d757020626c6f636b60801b6064820152608401610a25565b60009250505061094b565b60018501546000906122519087908490600160401b90046001600160401b031688612a05565b6000908152602087905260409020546001600160c01b0316935050505092915050565b6001600160a01b0382166122d45760405162461bcd60e51b815260206004820152602160248201527f45524332303a206275726e2066726f6d20746865207a65726f206164647265736044820152607360f81b6064820152608401610a25565b6122e0826000836126cf565b6001600160a01b038216600090815260208190526040902054818110156123545760405162461bcd60e51b815260206004820152602260248201527f45524332303a206275726e20616d6f756e7420657863656564732062616c616e604482015261636560f01b6064820152608401610a25565b6001600160a01b0383166000818152602081815260408083208686039055600280548790039055518581529192917fddf252ad1be2c89b69c2b068fc378daa952ba7f163c4a11628f55a4df523b3ef910160405180910390a3505050565b6001600160a01b03811660009081527f361beb44631d074062265988ad0b416453c05cfc27148633e5eff4da54187b0060205260409020805460018101825590611488565b600061094b612404611d3c565b8360405161190160f01b8152600281019290925260228201526042902090565b600080600061243587878787612a85565b9150915061244281612b49565b5095945050505050565b60006001600160a01b03841615612487576001600160a01b0384166000908152602086905260409020612480908484612492565b9050610ea4565b506000949350505050565b6000816000036124a457506000610c0b565b6001840154600160401b90046001600160401b031660008190036124cc576000915050610c0b565b60018501546001600160401b031660006124f96124e98388612c93565b6124f4600186613976565b612c9f565b9050815b818110801561253a575085886000612516846001613a21565b8152602081019190915260400160002054600160c01b90046001600160401b031611155b15612560576000818152602089905260408120558061255881613ba1565b9150506124fd565b828111156125955761257181612cb5565b60018901805467ffffffffffffffff19166001600160401b03929092169190911790555b61259f8382613976565b98975050505050505050565b6001600160a01b03831661260d5760405162461bcd60e51b8152602060048201526024808201527f45524332303a20617070726f76652066726f6d20746865207a65726f206164646044820152637265737360e01b6064820152608401610a25565b6001600160a01b03821661266e5760405162461bcd60e51b815260206004820152602260248201527f45524332303a20617070726f766520746f20746865207a65726f206164647265604482015261737360f01b6064820152608401610a25565b6001600160a01b0383811660008181526001602090815260408083209487168084529482529182902085905590518481527f8c5be1e5ebec7d5bd14f71427d1e84f3dd0314c0f7b2291e5b200ac8c7c3b925910160405180910390a3505050565b600d54600160a01b90046001600160401b0316156127245760405162461bcd60e51b8152602060048201526012602482015271198b585cdcd95d081d195c9b5a5b985d195960721b6044820152606401610a25565b6001600160a01b0383161580612758575080612755846001600160a01b031660009081526020819052604090205490565b10155b6127a45760405162461bcd60e51b815260206004820152601760248201527f662d61737365742062616c616e636520746f6f206c6f770000000000000000006044820152606401610a25565b816001600160a01b0316836001600160a01b0316036128055760405162461bcd60e51b815260206004820152601760248201527f43616e6e6f74207472616e7366657220746f2073656c660000000000000000006044820152606401610a25565b6001600160a01b038316158061282257506001600160a01b038216155b806128a15750600d60009054906101000a90046001600160a01b03166001600160a01b031663716676736040518163ffffffff1660e01b8152600401602060405180830381865afa15801561287b573d6000803e3d6000fd5b505050506040513d601f19601f8201168201806040525081019061289f9190613bba565b155b6128f95760405162461bcd60e51b815260206004820152602360248201527f656d657267656e6379207061757365206f66207472616e73666572732061637460448201526269766560e81b6064820152608401610a25565b611840838383612d21565b600080612912858585612d5c565b90506000838061292457612924613bdc565b85870990508015612938578160010161293a565b815b9695505050505050565b6001600160a01b0381163b6129b15760405162461bcd60e51b815260206004820152602d60248201527f455243313936373a206e657720696d706c656d656e746174696f6e206973206e60448201526c1bdd08184818dbdb9d1c9858dd609a1b6064820152608401610a25565b600080516020613c7a83398151915280546001600160a01b0319166001600160a01b0392909216919091179055565b6129e983612e76565b6000825111806129f65750805b1561184057611ab18383612eb6565b60008381612a14856001612edb565b90505b81811115612442576000612a416002612a3b6001612a358688612c93565b90612c93565b90612ee7565b600081815260208a90526040902054909150600160c01b90046001600160401b03168510612a7157809250612a7f565b612a7c816001612edb565b91505b50612a17565b6000807f7fffffffffffffffffffffffffffffff5d576e7357a4501ddfe92f46681b20a0831115612abc5750600090506003612b40565b6040805160008082526020820180845289905260ff881692820192909252606081018690526080810185905260019060a0016020604051602081039080840390855afa158015612b10573d6000803e3d6000fd5b5050604051601f1901519150506001600160a01b038116612b3957600060019250925050612b40565b9150600090505b94509492505050565b6000816004811115612b5d57612b5d613bf2565b03612b655750565b6001816004811115612b7957612b79613bf2565b03612bc65760405162461bcd60e51b815260206004820152601860248201527f45434453413a20696e76616c6964207369676e617475726500000000000000006044820152606401610a25565b6002816004811115612bda57612bda613bf2565b03612c275760405162461bcd60e51b815260206004820152601f60248201527f45434453413a20696e76616c6964207369676e6174757265206c656e677468006044820152606401610a25565b6003816004811115612c3b57612c3b613bf2565b03610ad35760405162461bcd60e51b815260206004820152602260248201527f45434453413a20696e76616c6964207369676e6174757265202773272076616c604482015261756560f01b6064820152608401610a25565b6000610c0b8284613a21565b6000818310612cae5781610c0b565b5090919050565b60006001600160401b03821115612d1d5760405162461bcd60e51b815260206004820152602660248201527f53616665436173743a2076616c756520646f65736e27742066697420696e203660448201526534206269747360d01b6064820152608401610a25565b5090565b6001600160a01b038316612d39576118408282612ef3565b6001600160a01b038216612d51576118408382612f50565b611840838383612fff565b6000808211612da05760405162461bcd60e51b815260206004820152601060248201526f4469766973696f6e206279207a65726f60801b6044820152606401610a25565b83600003612db057506000610c0b565b83830283858281612dc357612dc3613bdc565b0403612de157828181612dd857612dd8613bdc565b04915050610c0b565b506000612dee8386613c08565b90506000612dfc8487613c1c565b90506000612e0a8587613c08565b90506000612e188688613c1c565b905085612e258285613c30565b612e2f9190613c08565b612e398385613c30565b612e438387613c30565b88612e4e8689613c30565b612e589190613c30565b612e629190613a21565b612e6c9190613a21565b61259f9190613a21565b612e7f81612944565b6040516001600160a01b038216907fbc7cd75a20ee27fd9adebab32041f755214dbc6bffa90cc0225b39da2e5c2d3b90600090a250565b6060610c0b8383604051806060016040528060278152602001613c9a60279139613035565b6000610c0b8284613976565b6000610c0b8284613c08565b6000612f0382612a358543610e73565b9050612f11600584836130a3565b600854612f2590600590859060029061244c565b50612f3e612f3683612a3543611455565b6006906130c1565b600854611ab190600690600290612492565b6000612f968260405180604001604052806016815260200175213ab937103a37b7903134b3903337b91037bbb732b960511b815250612f8f8643610e73565b9190613285565b9050612fa4600584836130a3565b600854612fb890600590859060029061244c565b50612f3e612f36836040518060400160405280601d81526020017f4275726e20746f6f2062696720666f7220746f74616c20737570706c79000000815250612f8f43611455565b61300c60058484846132b1565b60085461302090600590859060029061244c565b50600854611ab190600590849060029061244c565b6060600080856001600160a01b0316856040516130529190613c47565b600060405180830381855af49150503d806000811461308d576040519150601f19603f3d011682016040523d82523d6000602084013e613092565b606091505b509150915061293a86838387613342565b6001600160a01b0382166000908152602084905260409020611ab181835b6001820154600160401b90046001600160401b0316600081900361316e5760405180604001604052806130f3846133bb565b6001600160c01b0316815260200161310a43612cb5565b6001600160401b0390811690915260008080526020868152604090912083519390910151909116600160c01b026001600160c01b039092169190911790556001830180546fffffffffffffffff00000000000000001916600160401b179055505050565b6000838161317d600185613976565b815260208101919091526040016000208054909150600160c01b90046001600160401b0316438190036131d3576131b3846133bb565b82546001600160c01b0319166001600160c01b03919091161782556111e9565b8043116131e2576131e2613c63565b60405180604001604052806131f6866133bb565b6001600160c01b0316815260200161320d43612cb5565b6001600160401b0390811690915260008581526020888152604090912083519390910151909116600160c01b026001600160c01b03909216919091179055613256836001613a21565b8560010160086101000a8154816001600160401b0302191690836001600160401b031602179055505050505050565b600081848411156132a95760405162461bcd60e51b8152600401610a25919061352c565b505050900390565b8015611ab1576001600160a01b0383161580156132d557506001600160a01b038216155b156132e2576132e2613c63565b6001600160a01b03831615613316576000613307826133018787613410565b90612edb565b90506133148585836130a3565b505b6001600160a01b03821615611ab157600061333582612a358786613410565b90506111e98584836130a3565b606083156133b15782516000036133aa576001600160a01b0385163b6133aa5760405162461bcd60e51b815260206004820152601d60248201527f416464726573733a2063616c6c20746f206e6f6e2d636f6e74726163740000006044820152606401610a25565b5081610ea4565b610ea48383613431565b6000600160c01b8210612d1d5760405162461bcd60e51b815260206004820152601d60248201527f76616c756520646f65736e27742066697420696e2031393220626974730000006044820152606401610a25565b6001600160a01b0381166000908152602083905260408120610ea48161345b565b8151156134415781518083602001fd5b8060405162461bcd60e51b8152600401610a25919061352c565b6001810154600090600160401b90046001600160401b03168082036134835750600092915050565b826000613491600184613976565b81526020810191909152604001600020546001600160c01b03169392505050565b6000602082840312156134c457600080fd5b81356001600160e01b031981168114610c0b57600080fd5b60005b838110156134f75781810151838201526020016134df565b50506000910152565b600081518084526135188160208601602086016134dc565b601f01601f19169290920160200192915050565b602081526000610c0b6020830184613500565b80356001600160a01b03811681146117e857600080fd5b6000806040838503121561356957600080fd5b6135728361353f565b946020939093013593505050565b60006020828403121561359257600080fd5b5035919050565b6000806000606084860312156135ae57600080fd5b6135b78461353f565b92506135c56020850161353f565b9150604084013590509250925092565b6000602082840312156135e757600080fd5b610c0b8261353f565b634e487b7160e01b600052604160045260246000fd5b60006001600160401b0380841115613620576136206135f0565b604051601f8501601f19908116603f01168101908282118183101715613648576136486135f0565b8160405280935085815286868601111561366157600080fd5b858560208301376000602087830101525050509392505050565b6000806040838503121561368e57600080fd5b6136978361353f565b915060208301356001600160401b038111156136b257600080fd5b8301601f810185136136c357600080fd5b6136d285823560208401613606565b9150509250929050565b600082601f8301126136ed57600080fd5b610c0b83833560208501613606565b803560ff811681146117e857600080fd5b600080600080600060a0868803121561372557600080fd5b85356001600160401b038082111561373c57600080fd5b61374889838a016136dc565b9650602088013591508082111561375e57600080fd5b61376a89838a016136dc565b9550604088013591508082111561378057600080fd5b61378c89838a016136dc565b945060608801359150808211156137a257600080fd5b506137af888289016136dc565b9250506137be608087016136fc565b90509295509295909350565b60ff60f81b881681526000602060e060208401526137eb60e084018a613500565b83810360408501526137fd818a613500565b606085018990526001600160a01b038816608086015260a0850187905284810360c08601528551808252602080880193509091019060005b8181101561385157835183529284019291840191600101613835565b50909c9b505050505050505050505050565b600080600080600080600060e0888a03121561387e57600080fd5b6138878861353f565b96506138956020890161353f565b955060408801359450606088013593506138b1608089016136fc565b925060a0880135915060c0880135905092959891949750929550565b600080604083850312156138e057600080fd5b6138e98361353f565b91506138f76020840161353f565b90509250929050565b600181811c9082168061391457607f821691505b60208210810361148857634e487b7160e01b600052602260045260246000fd5b60208082526012908201527137b7363c9030b9b9b2ba1036b0b730b3b2b960711b604082015260600190565b634e487b7160e01b600052601160045260246000fd5b8181038181111561094b5761094b613960565b6020808252602c908201527f46756e6374696f6e206d7573742062652063616c6c6564207468726f7567682060408201526b19195b1959d85d1958d85b1b60a21b606082015260800190565b6020808252602c908201527f46756e6374696f6e206d7573742062652063616c6c6564207468726f7567682060408201526b6163746976652070726f787960a01b606082015260800190565b8082018082111561094b5761094b613960565b6020808252602d908201527f436865636b506f696e7461626c653a2072656164696e672066726f6d20636c6560408201526c616e65642d757020626c6f636b60981b606082015260800190565b601f821115611840576000816000526020600020601f850160051c81016020861015613aaa5750805b601f850160051c820191505b81811015611c3657828155600101613ab6565b81516001600160401b03811115613ae257613ae26135f0565b613af681613af08454613900565b84613a81565b602080601f831160018114613b2b5760008415613b135750858301515b600019600386901b1c1916600185901b178555611c36565b600085815260208120601f198616915b82811015613b5a57888601518255948401946001909101908401613b3b565b5085821015613b785787850151600019600388901b60f8161c191681555b5050505050600190811b01905550565b600060208284031215613b9a57600080fd5b5051919050565b600060018201613bb357613bb3613960565b5060010190565b600060208284031215613bcc57600080fd5b81518015158114610c0b57600080fd5b634e487b7160e01b600052601260045260246000fd5b634e487b7160e01b600052602160045260246000fd5b600082613c1757613c17613bdc565b500490565b600082613c2b57613c2b613bdc565b500690565b808202811582820484141761094b5761094b613960565b60008251613c598184602087016134dc565b9190910192915050565b634e487b7160e01b600052600160045260246000fdfe360894a13ba1a3210667c828492db98dca3e2076cc3735a920a3ca505d382bbc416464726573733a206c6f772d6c6576656c2064656c65676174652063616c6c206661696c6564a26469706673582212208864987e16f1b2de1546244638cff4cdcee136c620ba28272c9873fae2727e7e64736f6c63430008170033",
  "linkReferences": {},
  "deployedLinkReferences": {}
}