{
  "_format": "hh-sol-artifact-1",
  "contractName": "FAsset",
  "sourceName": "contracts/fassetToken/implementation/FAsset.sol",
  "abi": [
    {
      "inputs": [],
      "stateMutability": "nonpayable",
      "type": "constructor"
    },
    {
      "anonymous": false,
      "inputs": [
        {
          "indexed": true,
          "internalType": "address",
          "name": "owner",
          "type": "address"
        },
        {
          "indexed": true,
          "internalType": "address",
          "name": "spender",
          "type": "address"
        },
        {
          "indexed": false,
          "internalType": "uint256",
          "name": "value",
          "type": "uint256"
        }
      ],
      "name": "Approval",
      "type": "event"
    },
    {
      "anonymous": false,
      "inputs": [
        {
          "indexed": false,
          "internalType": "uint256",
          "name": "_blockNumber",
          "type": "uint256"
        }
      ],
      "name": "CreatedTotalSupplyCache",
      "type": "event"
    },
    {
      "anonymous": false,
      "inputs": [
        {
          "indexed": true,
          "internalType": "address",
          "name": "from",
          "type": "address"
        },
        {
          "indexed": true,
          "internalType": "address",
          "name": "to",
          "type": "address"
        },
        {
          "indexed": false,
          "internalType": "uint256",
          "name": "value",
          "type": "uint256"
        }
      ],
      "name": "Transfer",
      "type": "event"
    },
    {
      "inputs": [
        {
          "internalType": "address",
          "name": "owner",
          "type": "address"
        },
        {
          "internalType": "address",
          "name": "spender",
          "type": "address"
        }
      ],
      "name": "allowance",
      "outputs": [
        {
          "internalType": "uint256",
          "name": "",
          "type": "uint256"
        }
      ],
      "stateMutability": "view",
      "type": "function"
    },
    {
      "inputs": [
        {
          "internalType": "address",
          "name": "spender",
          "type": "address"
        },
        {
          "internalType": "uint256",
          "name": "amount",
          "type": "uint256"
        }
      ],
      "name": "approve",
      "outputs": [
        {
          "internalType": "bool",
          "name": "",
          "type": "bool"
        }
      ],
      "stateMutability": "nonpayable",
      "type": "function"
    },
    {
      "inputs": [],
      "name": "assetManager",
      "outputs": [
        {
          "internalType": "address",
          "name": "",
          "type": "address"
        }
      ],
      "stateMutability": "view",
      "type": "function"
    },
    {
      "inputs": [],
      "name": "assetName",
      "outputs": [
        {
          "internalType": "string",
          "name": "",
          "type": "string"
        }
      ],
      "stateMutability": "view",
      "type": "function"
    },
    {
      "inputs": [],
      "name": "assetSymbol",
      "outputs": [
        {
          "internalType": "string",
          "name": "",
          "type": "string"
        }
      ],
      "stateMutability": "view",
      "type": "function"
    },
    {
      "inputs": [
        {
          "internalType": "address",
          "name": "_owner",
          "type": "address"
        },
        {
          "internalType": "uint256",
          "name": "_count",
          "type": "uint256"
        }
      ],
      "name": "balanceHistoryCleanup",
      "outputs": [
        {
          "internalType": "uint256",
          "name": "",
          "type": "uint256"
        }
      ],
      "stateMutability": "nonpayable",
      "type": "function"
    },
    {
      "inputs": [
        {
          "internalType": "address",
          "name": "account",
          "type": "address"
        }
      ],
      "name": "balanceOf",
      "outputs": [
        {
          "internalType": "uint256",
          "name": "",
          "type": "uint256"
        }
      ],
      "stateMutability": "view",
      "type": "function"
    },
    {
      "inputs": [
        {
          "internalType": "address",
          "name": "_owner",
          "type": "address"
        },
        {
          "internalType": "uint256",
          "name": "_blockNumber",
          "type": "uint256"
        }
      ],
      "name": "balanceOfAt",
      "outputs": [
        {
          "internalType": "uint256",
          "name": "_balance",
          "type": "uint256"
        }
      ],
      "stateMutability": "view",
      "type": "function"
    },
    {
      "inputs": [
        {
          "internalType": "address",
          "name": "_owner",
          "type": "address"
        },
        {
          "internalType": "uint256",
          "name": "_amount",
          "type": "uint256"
        }
      ],
      "name": "burn",
      "outputs": [],
      "stateMutability": "nonpayable",
      "type": "function"
    },
    {
      "inputs": [],
      "name": "cleanerContract",
      "outputs": [
        {
          "internalType": "address",
          "name": "",
          "type": "address"
        }
      ],
      "stateMutability": "view",
      "type": "function"
    },
    {
      "inputs": [],
      "name": "cleanupBlockNumber",
      "outputs": [
        {
          "internalType": "uint256",
          "name": "",
          "type": "uint256"
        }
      ],
      "stateMutability": "view",
      "type": "function"
    },
    {
      "inputs": [],
      "name": "cleanupBlockNumberManager",
      "outputs": [
        {
          "internalType": "address",
          "name": "",
          "type": "address"
        }
      ],
      "stateMutability": "view",
      "type": "function"
    },
    {
      "inputs": [],
      "name": "decimals",
      "outputs": [
        {
          "internalType": "uint8",
          "name": "",
          "type": "uint8"
        }
      ],
      "stateMutability": "view",
      "type": "function"
    },
    {
      "inputs": [
        {
          "internalType": "address",
          "name": "spender",
          "type": "address"
        },
        {
          "internalType": "uint256",
          "name": "subtractedValue",
          "type": "uint256"
        }
      ],
      "name": "decreaseAllowance",
      "outputs": [
        {
          "internalType": "bool",
          "name": "",
          "type": "bool"
        }
      ],
      "stateMutability": "nonpayable",
      "type": "function"
    },
    {
      "inputs": [
        {
          "internalType": "address",
          "name": "spender",
          "type": "address"
        },
        {
          "internalType": "uint256",
          "name": "addedValue",
          "type": "uint256"
        }
      ],
      "name": "increaseAllowance",
      "outputs": [
        {
          "internalType": "bool",
          "name": "",
          "type": "bool"
        }
      ],
      "stateMutability": "nonpayable",
      "type": "function"
    },
    {
      "inputs": [
        {
          "internalType": "string",
          "name": "name_",
          "type": "string"
        },
        {
          "internalType": "string",
          "name": "symbol_",
          "type": "string"
        },
        {
          "internalType": "string",
          "name": "assetName_",
          "type": "string"
        },
        {
          "internalType": "string",
          "name": "assetSymbol_",
          "type": "string"
        },
        {
          "internalType": "uint8",
          "name": "decimals_",
          "type": "uint8"
        }
      ],
      "name": "initialize",
      "outputs": [],
      "stateMutability": "nonpayable",
      "type": "function"
    },
    {
      "inputs": [
        {
          "internalType": "address",
          "name": "_owner",
          "type": "address"
        },
        {
          "internalType": "uint256",
          "name": "_amount",
          "type": "uint256"
        }
      ],
      "name": "mint",
      "outputs": [],
      "stateMutability": "nonpayable",
      "type": "function"
    },
    {
      "inputs": [],
      "name": "name",
      "outputs": [
        {
          "internalType": "string",
          "name": "",
          "type": "string"
        }
      ],
      "stateMutability": "view",
      "type": "function"
    },
    {
      "inputs": [
        {
          "internalType": "address",
          "name": "_assetManager",
          "type": "address"
        }
      ],
      "name": "setAssetManager",
      "outputs": [],
      "stateMutability": "nonpayable",
      "type": "function"
    },
    {
      "inputs": [
        {
          "internalType": "address",
          "name": "_cleanerContract",
          "type": "address"
        }
      ],
      "name": "setCleanerContract",
      "outputs": [],
      "stateMutability": "nonpayable",
      "type": "function"
    },
    {
      "inputs": [
        {
          "internalType": "uint256",
          "name": "_blockNumber",
          "type": "uint256"
        }
      ],
      "name": "setCleanupBlockNumber",
      "outputs": [],
      "stateMutability": "nonpayable",
      "type": "function"
    },
    {
      "inputs": [
        {
          "internalType": "address",
          "name": "_cleanupBlockNumberManager",
          "type": "address"
        }
      ],
      "name": "setCleanupBlockNumberManager",
      "outputs": [],
      "stateMutability": "nonpayable",
      "type": "function"
    },
    {
      "inputs": [
        {
          "internalType": "bytes4",
          "name": "_interfaceId",
          "type": "bytes4"
        }
      ],
      "name": "supportsInterface",
      "outputs": [
        {
          "internalType": "bool",
          "name": "",
          "type": "bool"
        }
      ],
      "stateMutability": "pure",
      "type": "function"
    },
    {
      "inputs": [],
      "name": "symbol",
      "outputs": [
        {
          "internalType": "string",
          "name": "",
          "type": "string"
        }
      ],
      "stateMutability": "view",
      "type": "function"
    },
    {
      "inputs": [],
      "name": "terminate",
      "outputs": [],
      "stateMutability": "nonpayable",
      "type": "function"
    },
    {
      "inputs": [],
      "name": "terminated",
      "outputs": [
        {
          "internalType": "bool",
          "name": "",
          "type": "bool"
        }
      ],
      "stateMutability": "view",
      "type": "function"
    },
    {
      "inputs": [],
      "name": "terminatedAt",
      "outputs": [
        {
          "internalType": "uint64",
          "name": "",
          "type": "uint64"
        }
      ],
      "stateMutability": "view",
      "type": "function"
    },
    {
      "inputs": [],
      "name": "totalSupply",
      "outputs": [
        {
          "internalType": "uint256",
          "name": "",
          "type": "uint256"
        }
      ],
      "stateMutability": "view",
      "type": "function"
    },
    {
      "inputs": [
        {
          "internalType": "uint256",
          "name": "_blockNumber",
          "type": "uint256"
        }
      ],
      "name": "totalSupplyAt",
      "outputs": [
        {
          "internalType": "uint256",
          "name": "_totalSupply",
          "type": "uint256"
        }
      ],
      "stateMutability": "view",
      "type": "function"
    },
    {
      "inputs": [
        {
          "internalType": "uint256",
          "name": "_count",
          "type": "uint256"
        }
      ],
      "name": "totalSupplyHistoryCleanup",
      "outputs": [
        {
          "internalType": "uint256",
          "name": "",
          "type": "uint256"
        }
      ],
      "stateMutability": "nonpayable",
      "type": "function"
    },
    {
      "inputs": [
        {
          "internalType": "address",
          "name": "to",
          "type": "address"
        },
        {
          "internalType": "uint256",
          "name": "amount",
          "type": "uint256"
        }
      ],
      "name": "transfer",
      "outputs": [
        {
          "internalType": "bool",
          "name": "",
          "type": "bool"
        }
      ],
      "stateMutability": "nonpayable",
      "type": "function"
    },
    {
      "inputs": [
        {
          "internalType": "address",
          "name": "from",
          "type": "address"
        },
        {
          "internalType": "address",
          "name": "to",
          "type": "address"
        },
        {
          "internalType": "uint256",
          "name": "amount",
          "type": "uint256"
        }
      ],
      "name": "transferFrom",
      "outputs": [
        {
          "internalType": "bool",
          "name": "",
          "type": "bool"
        }
      ],
      "stateMutability": "nonpayable",
      "type": "function"
    }
  ],
  "bytecode": "0x6080604052600d8054600160a01b600160e01b03191690553480156200002457600080fd5b506040805160208082018352600080835283519182019093529182529060036200004f838262000121565b5060046200005e828262000121565b50506010805460ff60a81b1916600160a81b17905550620001ed565b634e487b7160e01b600052604160045260246000fd5b600181811c90821680620000a557607f821691505b602082108103620000c657634e487b7160e01b600052602260045260246000fd5b50919050565b601f8211156200011c576000816000526020600020601f850160051c81016020861015620000f75750805b601f850160051c820191505b81811015620001185782815560010162000103565b5050505b505050565b81516001600160401b038111156200013d576200013d6200007a565b62000155816200014e845462000090565b84620000cc565b602080601f8311600181146200018d5760008415620001745750858301515b600019600386901b1c1916600185901b17855562000118565b600085815260208120601f198616915b82811015620001be578886015182559484019460019091019084016200019d565b5085821015620001dd5787850151600019600388901b60f8161c191681555b5050505050600190811b01905550565b61225d80620001fd6000396000f3fe608060405234801561001057600080fd5b50600436106101f05760003560e01c80637cfc672b1161010f578063a457c2d7116100a2578063deea13e711610071578063deea13e71461044b578063f0e292c914610453578063f62f8f3a14610466578063f6a494af1461047957600080fd5b8063a457c2d71461040a578063a9059cbb1461041d578063c9230c5d14610430578063dd62ed3e1461043857600080fd5b8063981b24d0116100de578063981b24d01461039f5780639ca20e4e146103b25780639dc29fac146103c55780639e3bc208146103d857600080fd5b80637cfc672b1461035e5780637f4fcaa91461037157806394217ad11461038457806395d89b411461039757600080fd5b806323b872dd11610187578063430602371161015657806343060237146102e45780634eac870f146102f75780634ee2cd7e1461032257806370a082311461033557600080fd5b806323b872dd14610296578063313ce567146102a957806339509351146102be57806340c10f19146102d157600080fd5b806313de97f5116101c357806313de97f51461024f578063176de7a81461026257806318160ddd1461026a578063194307bf1461027c57600080fd5b806301ffc9a7146101f557806306fdde031461021d578063095ea7b3146102325780630c08bf8814610245575b600080fd5b610208610203366004611d20565b61048c565b60405190151581526020015b60405180910390f35b61022561054a565b6040516102149190611d4a565b610208610240366004611db0565b6105dc565b61024d6105f4565b005b61024d61025d366004611dda565b610669565b6102256106cf565b6002545b604051908152602001610214565b600d54600160a01b90046001600160401b03161515610208565b6102086102a4366004611df3565b61075d565b60105460405160ff9091168152602001610214565b6102086102cc366004611db0565b610783565b61024d6102df366004611db0565b6107a5565b61024d6102f2366004611e2f565b6107dd565b600c5461030a906001600160a01b031681565b6040516001600160a01b039091168152602001610214565b61026e610330366004611db0565b6108f2565b61026e610343366004611e2f565b6001600160a01b031660009081526020819052604090205490565b61024d61036c366004611eec565b61092b565b61024d61037f366004611e2f565b6109e4565b600d5461030a906001600160a01b031681565b610225610a30565b61026e6103ad366004611dda565b610a3f565b60095461030a906001600160a01b031681565b61024d6103d3366004611db0565b610a78565b600d546103f290600160a01b90046001600160401b031681565b6040516001600160401b039091168152602001610214565b610208610418366004611db0565b610aac565b61020861042b366004611db0565b610b32565b610225610b40565b61026e610446366004611fb3565b610b4d565b61026e610b78565b61026e610461366004611db0565b610b88565b61026e610474366004611dda565b610bf0565b61024d610487366004611e2f565b610c5b565b60006001600160e01b031982166301ffc9a760e01b14806104bd57506001600160e01b031982166336372b0760e01b145b806104d857506001600160e01b0319821663a219a02560e01b145b806104f357506001600160e01b03198216636b7cf4d760e11b145b8061050e57506001600160e01b0319821663532c969b60e01b145b8061052957506001600160e01b0319821663e0e8629b60e01b145b8061054457506001600160e01b03198216633b9010bd60e01b145b92915050565b6060600e805461055990611fe6565b80601f016020809104026020016040519081016040528092919081815260200182805461058590611fe6565b80156105d25780601f106105a7576101008083540402835291602001916105d2565b820191906000526020600020905b8154815290600101906020018083116105b557829003601f168201915b5050505050905090565b6000336105ea818585610ca3565b5060019392505050565b600d546001600160a01b031633146106275760405162461bcd60e51b815260040161061e9061201a565b60405180910390fd5b600d54600160a01b90046001600160401b031660000361066757600d805467ffffffffffffffff60a01b1916600160a01b426001600160401b0316021790555b565b600c546001600160a01b031633146106c35760405162461bcd60e51b815260206004820152601a60248201527f6f6e6c7920636c65616e757020626c6f636b206d616e61676572000000000000604482015260640161061e565b6106cc81610dc8565b50565b600b80546106dc90611fe6565b80601f016020809104026020016040519081016040528092919081815260200182805461070890611fe6565b80156107555780601f1061072a57610100808354040283529160200191610755565b820191906000526020600020905b81548152906001019060200180831161073857829003601f168201915b505050505081565b60003361076b858285610e89565b610776858585610f03565b60019150505b9392505050565b6000336105ea8185856107968383610b4d565b6107a0919061205c565b610ca3565b600d546001600160a01b031633146107cf5760405162461bcd60e51b815260040161061e9061201a565b6107d982826110b2565b5050565b60105461010090046001600160a01b0316331461082c5760405162461bcd60e51b815260206004820152600d60248201526c37b7363c903232b83637bcb2b960991b604482015260640161061e565b6001600160a01b0381166108775760405162461bcd60e51b81526020600482015260126024820152713d32b9379030b9b9b2ba1036b0b730b3b2b960711b604482015260640161061e565b600d546001600160a01b0316156108d05760405162461bcd60e51b815260206004820152601c60248201527f63616e6e6f74207265706c616365206173736574206d616e6167657200000000604482015260640161061e565b600d80546001600160a01b0319166001600160a01b0392909216919091179055565b6000816008548110156109175760405162461bcd60e51b815260040161061e9061206f565b6109236005858561117d565b949350505050565b601054600160a81b900460ff161561097b5760405162461bcd60e51b8152602060048201526013602482015272185b1c9958591e481a5b9a5d1a585b1a5e9959606a1b604482015260640161061e565b601080543361010002610100600160b01b031990911617600160a81b179055600e6109a68682612104565b50600f6109b38582612104565b506010805460ff191660ff8316179055600a6109cf8482612104565b50600b6109dc8382612104565b505050505050565b600d546001600160a01b03163314610a0e5760405162461bcd60e51b815260040161061e9061201a565b600c80546001600160a01b0319166001600160a01b0392909216919091179055565b6060600f805461055990611fe6565b600081600854811015610a645760405162461bcd60e51b815260040161061e9061206f565b610a6f6006846111a8565b91505b50919050565b600d546001600160a01b03163314610aa25760405162461bcd60e51b815260040161061e9061201a565b6107d98282611330565b60003381610aba8286610b4d565b905083811015610b1a5760405162461bcd60e51b815260206004820152602560248201527f45524332303a2064656372656173656420616c6c6f77616e63652062656c6f77604482015264207a65726f60d81b606482015260840161061e565b610b278286868403610ca3565b506001949350505050565b6000336105ea818585610f03565b600a80546106dc90611fe6565b6001600160a01b03918216600090815260016020908152604080832093909416825291909152205490565b6000610b8360085490565b905090565b6009546000906001600160a01b03163314610bdd5760405162461bcd60e51b815260206004820152601560248201527413db9b1e4818db19585b995c8818dbdb9d1c9858dd605a1b604482015260640161061e565b60085461077c906005908590859061146b565b6009546000906001600160a01b03163314610c455760405162461bcd60e51b815260206004820152601560248201527413db9b1e4818db19585b995c8818dbdb9d1c9858dd605a1b604482015260640161061e565b6008546105449060069084906114b1565b919050565b600d546001600160a01b03163314610c855760405162461bcd60e51b815260040161061e9061201a565b600980546001600160a01b0319166001600160a01b03831617905550565b6001600160a01b038316610d055760405162461bcd60e51b8152602060048201526024808201527f45524332303a20617070726f76652066726f6d20746865207a65726f206164646044820152637265737360e01b606482015260840161061e565b6001600160a01b038216610d665760405162461bcd60e51b815260206004820152602260248201527f45524332303a20617070726f766520746f20746865207a65726f206164647265604482015261737360f01b606482015260840161061e565b6001600160a01b0383811660008181526001602090815260408083209487168084529482529182902085905590518481527f8c5be1e5ebec7d5bd14f71427d1e84f3dd0314c0f7b2291e5b200ac8c7c3b92591015b60405180910390a3505050565b600854811015610e2b5760405162461bcd60e51b815260206004820152602860248201527f436c65616e757020626c6f636b206e756d626572206d757374206e6576657220604482015267646563726561736560c01b606482015260840161061e565b438110610e845760405162461bcd60e51b815260206004820152602160248201527f436c65616e757020626c6f636b206d75737420626520696e20746865207061736044820152601d60fa1b606482015260840161061e565b600855565b6000610e958484610b4d565b90506000198114610efd5781811015610ef05760405162461bcd60e51b815260206004820152601d60248201527f45524332303a20696e73756666696369656e7420616c6c6f77616e6365000000604482015260640161061e565b610efd8484848403610ca3565b50505050565b6001600160a01b038316610f675760405162461bcd60e51b815260206004820152602560248201527f45524332303a207472616e736665722066726f6d20746865207a65726f206164604482015264647265737360d81b606482015260840161061e565b6001600160a01b038216610fc95760405162461bcd60e51b815260206004820152602360248201527f45524332303a207472616e7366657220746f20746865207a65726f206164647260448201526265737360e81b606482015260840161061e565b610fd48383836115ca565b6001600160a01b0383166000908152602081905260409020548181101561104c5760405162461bcd60e51b815260206004820152602660248201527f45524332303a207472616e7366657220616d6f756e7420657863656564732062604482015265616c616e636560d01b606482015260840161061e565b6001600160a01b03848116600081815260208181526040808320878703905593871680835291849020805487019055925185815290927fddf252ad1be2c89b69c2b068fc378daa952ba7f163c4a11628f55a4df523b3ef910160405180910390a3610efd565b6001600160a01b0382166111085760405162461bcd60e51b815260206004820152601f60248201527f45524332303a206d696e7420746f20746865207a65726f206164647265737300604482015260640161061e565b611114600083836115ca565b8060026000828254611126919061205c565b90915550506001600160a01b038216600081815260208181526040808320805486019055518481527fddf252ad1be2c89b69c2b068fc378daa952ba7f163c4a11628f55a4df523b3ef910160405180910390a35050565b6001600160a01b038216600090815260208490526040812061119f81846111a8565b95945050505050565b6001820154600090600160401b90046001600160401b03168082036111d1576000915050610544565b438310158061120e57508360006111e96001846121c3565b8152602081019190915260400160002054600160c01b90046001600160401b03168310155b15611244578360006112216001846121c3565b81526020810191909152604001600020546001600160c01b031691506105449050565b60018401546001600160401b039081166000818152602087905260409020549091600160c01b909104168410156112e75780156112dc5760405162461bcd60e51b815260206004820152603060248201527f436865636b506f696e74486973746f72793a2072656164696e672066726f6d2060448201526f636c65616e65642d757020626c6f636b60801b606482015260840161061e565b600092505050610544565b600185015460009061130d9087908490600160401b90046001600160401b03168861170b565b6000908152602087905260409020546001600160c01b0316935050505092915050565b6001600160a01b0382166113905760405162461bcd60e51b815260206004820152602160248201527f45524332303a206275726e2066726f6d20746865207a65726f206164647265736044820152607360f81b606482015260840161061e565b61139c826000836115ca565b6001600160a01b038216600090815260208190526040902054818110156114105760405162461bcd60e51b815260206004820152602260248201527f45524332303a206275726e20616d6f756e7420657863656564732062616c616e604482015261636560f01b606482015260840161061e565b6001600160a01b0383166000818152602081815260408083208686039055600280548790039055518581529192917fddf252ad1be2c89b69c2b068fc378daa952ba7f163c4a11628f55a4df523b3ef9101610dbb565b505050565b60006001600160a01b038416156114a6576001600160a01b038416600090815260208690526040902061149f9084846114b1565b9050610923565b506000949350505050565b6000816000036114c35750600061077c565b6001840154600160401b90046001600160401b031660008190036114eb57600091505061077c565b60018501546001600160401b031660006115186115088388611795565b6115136001866121c3565b6117a1565b9050815b818110801561155957508588600061153584600161205c565b8152602081019190915260400160002054600160c01b90046001600160401b031611155b1561157f5760008181526020899052604081205580611577816121d6565b91505061151c565b828111156115b457611590816117b7565b60018901805467ffffffffffffffff19166001600160401b03929092169190911790555b6115be83826121c3565b98975050505050505050565b600d54600160a01b90046001600160401b03161561161f5760405162461bcd60e51b8152602060048201526012602482015271198b585cdcd95d081d195c9b5a5b985d195960721b604482015260640161061e565b6001600160a01b0383161580611653575080611650846001600160a01b031660009081526020819052604090205490565b10155b61169f5760405162461bcd60e51b815260206004820152601760248201527f662d61737365742062616c616e636520746f6f206c6f77000000000000000000604482015260640161061e565b816001600160a01b0316836001600160a01b0316036117005760405162461bcd60e51b815260206004820152601760248201527f43616e6e6f74207472616e7366657220746f2073656c66000000000000000000604482015260640161061e565b611466838383611823565b6000838161171a85600161185e565b90505b8181111561178b5760006117476002611741600161173b8688611795565b90611795565b9061186a565b600081815260208a90526040902054909150600160c01b90046001600160401b0316851061177757809250611785565b61178281600161185e565b91505b5061171d565b5095945050505050565b600061077c828461205c565b60008183106117b0578161077c565b5090919050565b60006001600160401b0382111561181f5760405162461bcd60e51b815260206004820152602660248201527f53616665436173743a2076616c756520646f65736e27742066697420696e203660448201526534206269747360d01b606482015260840161061e565b5090565b6001600160a01b03831661183b576114668282611876565b6001600160a01b0382166118535761146683826118d3565b611466838383611982565b600061077c82846121c3565b600061077c82846121ef565b60006118868261173b85436108f2565b9050611894600584836119b8565b6008546118a890600590859060029061146b565b506118c16118b98361173b43610a3f565b6006906119d6565b600854610efd906006906002906114b1565b60006119198260405180604001604052806016815260200175213ab937103a37b7903134b3903337b91037bbb732b960511b81525061191286436108f2565b9190611b9b565b9050611927600584836119b8565b60085461193b90600590859060029061146b565b506118c16118b9836040518060400160405280601d81526020017f4275726e20746f6f2062696720666f7220746f74616c20737570706c7900000081525061191243610a3f565b61198f6005848484611bc7565b6008546119a390600590859060029061146b565b50600854610efd90600590849060029061146b565b6001600160a01b0382166000908152602084905260409020610efd81835b6001820154600160401b90046001600160401b03166000819003611a83576040518060400160405280611a0884611c58565b6001600160c01b03168152602001611a1f436117b7565b6001600160401b0390811690915260008080526020868152604090912083519390910151909116600160c01b026001600160c01b039092169190911790556001830180546fffffffffffffffff00000000000000001916600160401b179055505050565b60008381611a926001856121c3565b815260208101919091526040016000208054909150600160c01b90046001600160401b031643819003611ae857611ac884611c58565b82546001600160c01b0319166001600160c01b0391909116178255611b94565b804311611af757611af7612211565b6040518060400160405280611b0b86611c58565b6001600160c01b03168152602001611b22436117b7565b6001600160401b0390811690915260008581526020888152604090912083519390910151909116600160c01b026001600160c01b03909216919091179055611b6b83600161205c565b8560010160086101000a8154816001600160401b0302191690836001600160401b031602179055505b5050505050565b60008184841115611bbf5760405162461bcd60e51b815260040161061e9190611d4a565b505050900390565b8015610efd576001600160a01b038316158015611beb57506001600160a01b038216155b15611bf857611bf8612211565b6001600160a01b03831615611c2c576000611c1d82611c178787611cad565b9061185e565b9050611c2a8585836119b8565b505b6001600160a01b03821615610efd576000611c4b8261173b8786611cad565b9050611b948584836119b8565b6000600160c01b821061181f5760405162461bcd60e51b815260206004820152601d60248201527f76616c756520646f65736e27742066697420696e203139322062697473000000604482015260640161061e565b6001600160a01b0381166000908152602083905260408120610923816001810154600090600160401b90046001600160401b0316808203611cf15750600092915050565b826000611cff6001846121c3565b81526020810191909152604001600020546001600160c01b03169392505050565b600060208284031215611d3257600080fd5b81356001600160e01b03198116811461077c57600080fd5b60006020808352835180602085015260005b81811015611d7857858101830151858201604001528201611d5c565b506000604082860101526040601f19601f8301168501019250505092915050565b80356001600160a01b0381168114610c5657600080fd5b60008060408385031215611dc357600080fd5b611dcc83611d99565b946020939093013593505050565b600060208284031215611dec57600080fd5b5035919050565b600080600060608486031215611e0857600080fd5b611e1184611d99565b9250611e1f60208501611d99565b9150604084013590509250925092565b600060208284031215611e4157600080fd5b61077c82611d99565b634e487b7160e01b600052604160045260246000fd5b600082601f830112611e7157600080fd5b81356001600160401b0380821115611e8b57611e8b611e4a565b604051601f8301601f19908116603f01168101908282118183101715611eb357611eb3611e4a565b81604052838152866020858801011115611ecc57600080fd5b836020870160208301376000602085830101528094505050505092915050565b600080600080600060a08688031215611f0457600080fd5b85356001600160401b0380821115611f1b57600080fd5b611f2789838a01611e60565b96506020880135915080821115611f3d57600080fd5b611f4989838a01611e60565b95506040880135915080821115611f5f57600080fd5b611f6b89838a01611e60565b94506060880135915080821115611f8157600080fd5b50611f8e88828901611e60565b925050608086013560ff81168114611fa557600080fd5b809150509295509295909350565b60008060408385031215611fc657600080fd5b611fcf83611d99565b9150611fdd60208401611d99565b90509250929050565b600181811c90821680611ffa57607f821691505b602082108103610a7257634e487b7160e01b600052602260045260246000fd5b60208082526012908201527137b7363c9030b9b9b2ba1036b0b730b3b2b960711b604082015260600190565b634e487b7160e01b600052601160045260246000fd5b8082018082111561054457610544612046565b6020808252602d908201527f436865636b506f696e7461626c653a2072656164696e672066726f6d20636c6560408201526c616e65642d757020626c6f636b60981b606082015260800190565b601f821115611466576000816000526020600020601f850160051c810160208610156120e55750805b601f850160051c820191505b818110156109dc578281556001016120f1565b81516001600160401b0381111561211d5761211d611e4a565b6121318161212b8454611fe6565b846120bc565b602080601f831160018114612166576000841561214e5750858301515b600019600386901b1c1916600185901b1785556109dc565b600085815260208120601f198616915b8281101561219557888601518255948401946001909101908401612176565b50858210156121b35787850151600019600388901b60f8161c191681555b5050505050600190811b01905550565b8181038181111561054457610544612046565b6000600182016121e8576121e8612046565b5060010190565b60008261220c57634e487b7160e01b600052601260045260246000fd5b500490565b634e487b7160e01b600052600160045260246000fdfea26469706673582212200b57697b441f4e924d606ecbfcbd9912c47f6695eb038a976ba15e988398ddeb64736f6c63430008170033",
  "linkReferences": {},
  "deployedLinkReferences": {}
}