{
  "_format": "hh-sol-artifact-1",
  "contractName": "NativeTokenBurner",
  "sourceName": "contracts/utils/implementation/NativeTokenBurner.sol",
  "abi": [
    {
      "inputs": [
        {
          "internalType": "address payable",
          "name": "_burnAddress",
          "type": "address"
        }
      ],
      "stateMutability": "nonpayable",
      "type": "constructor"
    },
    {
      "anonymous": false,
      "inputs": [
        {
          "indexed": false,
          "internalType": "address payable",
          "name": "burnAddress",
          "type": "address"
        },
        {
          "indexed": false,
          "internalType": "uint256",
          "name": "burnedWei",
          "type": "uint256"
        }
      ],
      "name": "Burned",
      "type": "event"
    },
    {
      "anonymous": false,
      "inputs": [
        {
          "indexed": false,
          "internalType": "uint256",
          "name": "amountWei",
          "type": "uint256"
        }
      ],
      "name": "Received",
      "type": "event"
    },
    {
      "inputs": [],
      "name": "burnAddress",
      "outputs": [
        {
          "internalType": "address payable",
          "name": "",
          "type": "address"
        }
      ],
      "stateMutability": "view",
      "type": "function"
    },
    {
      "inputs": [],
      "name": "die",
      "outputs": [],
      "stateMutability": "nonpayable",
      "type": "function"
    },
    {
      "stateMutability": "payable",
      "type": "receive"
    }
  ],
  "bytecode": "0x608060405234801561001057600080fd5b506040516101db3803806101db83398101604081905261002f91610054565b600080546001600160a01b0319166001600160a01b0392909216919091179055610084565b60006020828403121561006657600080fd5b81516001600160a01b038116811461007d57600080fd5b9392505050565b610148806100936000396000f3fe60806040526004361061002d5760003560e01c806335f469941461006c57806370d5ae051461008357600080fd5b36610067576040513481527fa8142743f8f70a4c26f3691cf4ed59718381fb2f18070ec52be1f1022d8555579060200160405180910390a1005b600080fd5b34801561007857600080fd5b506100816100bf565b005b34801561008f57600080fd5b506000546100a3906001600160a01b031681565b6040516001600160a01b03909116815260200160405180910390f35b600054604080516001600160a01b0390921682524760208301527f696de425f79f4a40bc6d2122ca50507f0efbeabbff86a84871b7196ab8ea8df7910160405180910390a16000546001600160a01b0316fffea26469706673582212209bf41069c3597b035e331117fd4c417ae97f591b5e85acfef3d116ca08b26a4564736f6c634300080b0033",
  "linkReferences": {},
  "deployedLinkReferences": {}
}