{
  "_format": "hh-sol-artifact-1",
  "contractName": "LiquidationFacet",
  "sourceName": "contracts/assetManager/facets/LiquidationFacet.sol",
  "abi": [
    {
      "anonymous": false,
      "inputs": [
        {
          "indexed": true,
          "internalType": "address",
          "name": "agentVault",
          "type": "address"
        },
        {
          "indexed": false,
          "internalType": "uint256",
          "name": "timestamp",
          "type": "uint256"
        }
      ],
      "name": "AgentInCCB",
      "type": "event"
    },
    {
      "anonymous": false,
      "inputs": [
        {
          "indexed": true,
          "internalType": "address",
          "name": "agentVault",
          "type": "address"
        },
        {
          "indexed": false,
          "internalType": "uint256",
          "name": "dustUBA",
          "type": "uint256"
        }
      ],
      "name": "DustChanged",
      "type": "event"
    },
    {
      "anonymous": false,
      "inputs": [
        {
          "indexed": true,
          "internalType": "address",
          "name": "agentVault",
          "type": "address"
        }
      ],
      "name": "LiquidationEnded",
      "type": "event"
    },
    {
      "anonymous": false,
      "inputs": [
        {
          "indexed": true,
          "internalType": "address",
          "name": "agentVault",
          "type": "address"
        },
        {
          "indexed": true,
          "internalType": "address",
          "name": "liquidator",
          "type": "address"
        },
        {
          "indexed": false,
          "internalType": "uint256",
          "name": "valueUBA",
          "type": "uint256"
        }
      ],
      "name": "LiquidationPerformed",
      "type": "event"
    },
    {
      "anonymous": false,
      "inputs": [
        {
          "indexed": true,
          "internalType": "address",
          "name": "agentVault",
          "type": "address"
        },
        {
          "indexed": false,
          "internalType": "uint256",
          "name": "timestamp",
          "type": "uint256"
        }
      ],
      "name": "LiquidationStarted",
      "type": "event"
    },
    {
      "anonymous": false,
      "inputs": [
        {
          "indexed": true,
          "internalType": "address",
          "name": "agentVault",
          "type": "address"
        },
        {
          "indexed": true,
          "internalType": "uint256",
          "name": "redemptionTicketId",
          "type": "uint256"
        }
      ],
      "name": "RedemptionTicketDeleted",
      "type": "event"
    },
    {
      "anonymous": false,
      "inputs": [
        {
          "indexed": true,
          "internalType": "address",
          "name": "agentVault",
          "type": "address"
        },
        {
          "indexed": true,
          "internalType": "uint256",
          "name": "redemptionTicketId",
          "type": "uint256"
        },
        {
          "indexed": false,
          "internalType": "uint256",
          "name": "ticketValueUBA",
          "type": "uint256"
        }
      ],
      "name": "RedemptionTicketUpdated",
      "type": "event"
    },
    {
      "inputs": [
        {
          "internalType": "address",
          "name": "_agentVault",
          "type": "address"
        }
      ],
      "name": "endLiquidation",
      "outputs": [],
      "stateMutability": "nonpayable",
      "type": "function"
    },
    {
      "inputs": [
        {
          "internalType": "address",
          "name": "_agentVault",
          "type": "address"
        },
        {
          "internalType": "uint256",
          "name": "_amountUBA",
          "type": "uint256"
        }
      ],
      "name": "liquidate",
      "outputs": [
        {
          "internalType": "uint256",
          "name": "_liquidatedAmountUBA",
          "type": "uint256"
        },
        {
          "internalType": "uint256",
          "name": "_amountPaidVault",
          "type": "uint256"
        },
        {
          "internalType": "uint256",
          "name": "_amountPaidPool",
          "type": "uint256"
        }
      ],
      "stateMutability": "nonpayable",
      "type": "function"
    },
    {
      "inputs": [
        {
          "internalType": "address",
          "name": "_agentVault",
          "type": "address"
        }
      ],
      "name": "startLiquidation",
      "outputs": [
        {
          "internalType": "uint8",
          "name": "_liquidationStatus",
          "type": "uint8"
        },
        {
          "internalType": "uint256",
          "name": "_liquidationStartAt",
          "type": "uint256"
        }
      ],
      "stateMutability": "nonpayable",
      "type": "function"
    }
  ],
  "bytecode": "0x608060405234801561001057600080fd5b50612d1c806100206000396000f3fe608060405234801561001057600080fd5b50600436106100415760003560e01c8063b7f658ab14610046578063bcbaf4871461005b578063e1c501001461008e575b600080fd5b610059610054366004612959565b6100ba565b005b61006e610069366004612974565b6100c6565b604080519384526020840192909252908201526060015b60405180910390f35b6100a161009c366004612959565b6100f3565b6040805160ff9093168352602083019190915201610085565b6100c381610132565b50565b60008060006100d36101b9565b6100db6102a5565b6100e58585610330565b9250925092505b9250925092565b6000806100fe6101b9565b6101066102a5565b600080610112856104a3565b915091508160028111156101285761012861299e565b9590945092505050565b600061013d82610547565b9050610148816105ee565b600160048083015460ff16908111156101635761016361299e565b146101b55760405162461bcd60e51b815260206004820152601760248201527f63616e6e6f742073746f70206c69717569646174696f6e00000000000000000060448201526064015b60405180910390fd5b5050565b7f4f24f5c433db0962dac0d2c8b84197a6e6c7cc4e5d9ebe1916a1b6193da2f34054600080516020612ca7833981519152906001600160a01b0316156100c3576006810154604051633af32abf60e01b81523360048201526001600160a01b0390911690633af32abf90602401602060405180830381865afa158015610243573d6000803e3d6000fd5b505050506040513d601f19601f8201168201806040525081019061026791906129b4565b6100c35760405162461bcd60e51b815260206004820152600f60248201526e1b9bdd081dda1a5d195b1a5cdd1959608a1b60448201526064016101ac565b7fec7e8c1c441439dd40959777f4c577ea0cd42fcc1dbe59d2bd0f5d9c55df8dc654600080516020612cc78339815191529042600160401b9091046001600160401b031611156100c35760405162461bcd60e51b8152602060048201526016602482015275656d657267656e63792070617573652061637469766560501b60448201526064016101ac565b60008060008061033f86610547565b90506004808083015460ff169081111561035b5761035b61299e565b03610371576000806000935093509350506100ec565b600061037c826106db565b9050600061038a838361074f565b905060028160028111156103a0576103a061299e565b146103e25760405162461bcd60e51b81526020600482015260126024820152713737ba1034b7103634b8bab4b230ba34b7b760711b60448201526064016101ac565b60008060006103fa86866103f58d610a4b565b610aaa565b92509250925061040983610b71565b9850811561041f5761041c863384610bc4565b97505b80156104435760006104318783610cce565b905061043f87338484610d43565b9750505b61044c866105ee565b610456338a610e49565b60405189815233906001600160a01b038d16907f678b978d20286010bc2fc58064b7a06c608755d2e07fa15ef1b727d5d1b011f89060200160405180910390a35050505050509250925092565b60008060006104b184610547565b9050600360048083015460ff16908111156104ce576104ce61299e565b036104f25760040154600294600160a81b9091046001600160401b03169350915050565b60048181015460ff168181111561050b5761050b61299e565b0361051c5750600093849350915050565b6000610527826106db565b9050610533828261074f565b935061053e82610edc565b92505050915091565b7f5bebac0595fee029d42bb673937f5f1cb81cf8641382bc17774635de9b7d796568010000000000000000600160e01b03604083901b161880600060048084015460ff169081111561059b5761059b61299e565b036105e85760405162461bcd60e51b815260206004820152601b60248201527f696e76616c6964206167656e74207661756c742061646472657373000000000060448201526064016101ac565b50919050565b600260048083015460ff16908111156106095761060961299e565b146106115750565b600061061c826106db565b9050600061062983610fc1565b905060006106398483600061109e565b905060006106498584600161109e565b905081846000015110158015610663575080846020015110155b156106d4576004850180547fff00000000000000000000ffffffffffffffffffffffffffffffffffffffff0016600117905561069e85611104565b6001600160a01b03167fe513b42585b0ceec0d56d56fe3a23861c15a2f74eb4c32c94334d63d68ff4dcf60405160405180910390a25b5050505050565b6107066040518060800160405280600081526020016000815260200160008152602001600081525090565b60008061071484600061112c565b9150915060008061072686600161112c565b604080516080810182529687526020870192909252908501939093525050606082015292915050565b60008061075b84610fc1565b8351600486015491925060009161077b9190610100900461ffff1661117a565b905060028160028111156107915761079161299e565b036107ba5760048501805460ff60f01b1981166001600160f01b9283900460ff16179091021790555b602084015160048601546000916107db916301000000900461ffff1661117a565b905060028160028111156107f1576107f161299e565b0361081a5760048601805460ff60f01b1981166002600160f01b9283900460ff16179091021790555b600081600281111561082e5761082e61299e565b8360028111156108405761084061299e565b101561084c578161084e565b825b90508360028111156108625761086261299e565b8160028111156108745761087461299e565b1115610a3e5760048701805460ff1916600217905561089242611203565b6004880180546001600160401b0392909216600160a81b0267ffffffffffffffff60a81b19831681178255839260ff60e81b1990911668ffffffffffffffffff60a81b1990911617600160e81b8360028111156108f1576108f161299e565b02179055508160028111156109085761090861299e565b81600281111561091a5761091a61299e565b14610926576000610929565b60025b83600281111561093b5761093b61299e565b82600281111561094d5761094d61299e565b1461095957600061095c565b60015b60048901805460ff9390921792909216600160f01b0260ff60f01b1990911617905560018160028111156109925761099261299e565b036109e7576109a087611104565b6001600160a01b03167fb81125a8716d6cd16f1124ce50b6b11a03880b7b0034d22004ddeb0facd41158426040516109da91815260200190565b60405180910390a2610a33565b6109f087611104565b6001600160a01b03167fee549a858daf6f6ccedae61597c3ece62a808677387a36146cf613635076797542604051610a2a91815260200190565b60405180910390a25b9350610a4592505050565b5091925050505b92915050565b7f4f24f5c433db0962dac0d2c8b84197a6e6c7cc4e5d9ebe1916a1b6193da2f34654600090600080516020612ca783398151915290610aa390610a9e90600160901b90046001600160401b031685612a02565b611203565b9392505050565b6000806000806000610ac5888860000151896020015161126f565b915091506000610af5610adf8a8a60000151866000611388565b610af08b8b60200151866001611388565b6114a0565b90506000610b0f610a9e838a6001600160401b03166114b6565b9050610b1d8a8260016114c5565b509650610b40610b366001600160401b0389168661163a565b8a60400151611649565b9550610b62610b586001600160401b0389168561163a565b8a60600151611649565b94505050505093509350939050565b7f4f24f5c433db0962dac0d2c8b84197a6e6c7cc4e5d9ebe1916a1b6193da2f34654600090600080516020612ca783398151915290610aa390600160901b90046001600160401b03908116908516612a16565b600080610bd085611663565b90506000610bdd86611104565b82546040516370a0823160e01b81526001600160a01b038084166004830152929350610c5692879216906370a0823190602401602060405180830381865afa158015610c2d573d6000803e3d6000fd5b505050506040513d601f19601f82011682018060405250810190610c519190612a2d565b6114b6565b825460405163083e007560e21b81526001600160a01b0391821660048201528782166024820152604481018390529194508216906320f801d490606401600060405180830381600087803b158015610cad57600080fd5b505af1158015610cc1573d6000803e3d6000fd5b5050505050509392505050565b6000600360048085015460ff1690811115610ceb57610ceb61299e565b1480610d0557506004830154600160f01b900460ff166001145b15610d11575080610a45565b6004830154600119600160f01b90910460ff1601610d3157506000610a45565b610d3c600283612a02565b9050610a45565b600080610d4e6116b0565b86546040516370a0823160e01b81526001600160a01b0391821660048201529116906370a0823190602401602060405180830381865afa158015610d96573d6000803e3d6000fd5b505050506040513d601f19601f82011682018060405250810190610dba9190612a2d565b9050610dc684826114b6565b9150610dd283836114b6565b865460405163adf58c1560e01b81526001600160a01b038881166004830152602482018690526044820184905292955091169063adf58c1590606401600060405180830381600087803b158015610e2857600080fd5b505af1158015610e3c573d6000803e3d6000fd5b5050505050949350505050565b7f4f24f5c433db0962dac0d2c8b84197a6e6c7cc4e5d9ebe1916a1b6193da2f33b546001600160a01b0316604051632770a7eb60e21b81526001600160a01b038481166004830152602482018490529190911690639dc29fac90604401600060405180830381600087803b158015610ec057600080fd5b505af1158015610ed4573d6000803e3d6000fd5b505050505050565b600481015460009060ff166002816004811115610efb57610efb61299e565b03610f86576000600080516020612ca78339815191529050600060016004860154600160e81b900460ff166002811115610f3757610f3761299e565b14905080610f46576000610f55565b60118201546001600160401b03165b6004860154610f749190600160a81b90046001600160401b0316612a46565b6001600160401b031695945050505050565b6003816004811115610f9a57610f9a61299e565b03610fb857505060040154600160a81b90046001600160401b031690565b50600092915050565b600080600080516020612ca7833981519152600484015490915060ff166002816004811115610ff257610ff261299e565b0361107157600060016004860154600160e81b900460ff16600281111561101b5761101b61299e565b14801561105757506011830154600486015461104a916001600160401b0390811691600160a81b900416612a46565b6001600160401b03164211155b905080611065576002611068565b60015b95945050505050565b60038160048111156110855761108561299e565b03611094575060029392505050565b5060009392505050565b6000806110ab858461171d565b905060018460028111156110c1576110c161299e565b14806110d457506110d285846117c9565b155b156110ea576003015463ffffffff169050610aa3565b60030154600160401b900463ffffffff1690509392505050565b7f5bebac0595fee029d42bb673937f5f1cb81cf8641382bc17774635de9b7d79651860401c90565b60008060008061113c8686611832565b91509150600061114c8388611995565b9050600061115a8389611995565b90508360400151945061116d82826114a0565b9550505050509250929050565b600080600080516020612cc7833981519152905060008160000184815481106111a5576111a5612a66565b60009182526020909120600490910201600381015490915063ffffffff1685106111d457600092505050610a45565b6003810154640100000000900463ffffffff1685106111f857600192505050610a45565b600292505050610a45565b60006001600160401b0382111561126b5760405162461bcd60e51b815260206004820152602660248201527f53616665436173743a2076616c756520646f65736e27742066697420696e203660448201526534206269747360d01b60648201526084016101ac565b5090565b600080600080516020612ca78339815191528161128b87611a60565b905060008260150182815481106112a4576112a4612a66565b906000526020600020015490506112da8360160183815481106112c9576112c9612a66565b9060005260206000200154826114b6565b945060006112e789611663565b905060006112f48a611b5a565b90506112ff82611b93565b158015611310575061131081611b93565b1561131e5760009650611342565b61132782611b93565b8015611339575061133781611b93565b155b15611342578296505b8887111561134e578896505b6113588784612a7c565b95508786111561137b578795506113786113728785612a7c565b8a6114b6565b96505b5050505050935093915050565b600080600080516020612ca78339815191529050600360048088015460ff16908111156113b7576113b761299e565b036113d85750506005840154600160401b90046001600160401b0316611498565b60006113e68760028661109e565b90508581116113fa57600092505050611498565b84861161141e575050506005840154600160401b90046001600160401b0316611498565b600061145361142d8884612a7c565b6114378885612a7c565b60058b0154600160401b90046001600160401b03169190611bca565b600d84015490915061146f9082906001600160401b0316611c07565b6005890154909150611492908290600160401b90046001600160401b03166114b6565b93505050505b949350505050565b60008183116114af5781610aa3565b5090919050565b60008183106114af5781610aa3565b60068301546000908190600080516020612cc7833981519152906114f39086906001600160401b0316611c3e565b92506001600160401b0383161561150e5761150e8684611c60565b7f4f24f5c433db0962dac0d2c8b84197a6e6c7cc4e5d9ebe1916a1b6193da2f34954600160801b900461ffff1660005b818110801561155e5750866001600160401b0316856001600160401b0316105b1561161457600060088401816115738b611104565b6001600160a01b0316815260208101919091526040016000908120546001600160401b031691508190036115a75750611614565b6001600160401b03811660009081526007850160205260408120906115e66115cf898c612a8f565b8354600160a01b90046001600160401b0316611c3e565b90506115f28382611cb6565b6115fc8189612a46565b9750505050808061160c90612aaf565b91505061153e565b5061161e84610b71565b92508415611630576116308785611ead565b5050935093915050565b6000610aa38383612710611f24565b6000610aa38261165b6009600a612bac565b859190611f24565b600080600080516020612cc783398151915260048401548154919250829161010090910461ffff1690811061169a5761169a612a66565b9060005260206000209060040201915050919050565b7fec7e8c1c441439dd40959777f4c577ea0cd42fcc1dbe59d2bd0f5d9c55df8dc554600080516020612cc78339815191528054600092829161ffff9091169081106116fd576116fd612a66565b60009182526020909120600490910201546001600160a01b031692915050565b600060028260028111156117335761173361299e565b0361174057611740612bb8565b600080516020612cc783398151915260008360028111156117635761176361299e565b0361179f57600484015481548291610100900461ffff1690811061178957611789612a66565b9060005260206000209060040201915050610a45565b6004840154815482916301000000900461ffff1690811061178957611789612a66565b5092915050565b6000808260028111156117de576117de61299e565b036117fa57506004820154600160f01b90046001161515610a45565b600182600281111561180e5761180e61299e565b1461181b5761181b612bb8565b506004820154600160f01b90046002161515610a45565b6118576040805160608101909152806000815260200160008152602001600081525090565b61187c6040805160608101909152806000815260200160008152602001600081525090565b6000611888858561171d565b90506000611896868661204a565b905060006118a383611b93565b6118ae57600061191b565b82546040516370a0823160e01b81526001600160a01b038481166004830152909116906370a0823190602401602060405180830381865afa1580156118f7573d6000803e3d6000fd5b505050506040513d601f19601f8201168201806040525081019061191b9190612a2d565b905060008061192985612082565b91509150604051806060016040528089600281111561194a5761194a61299e565b815260200184815260200183815250965060405180606001604052808960028111156119785761197861299e565b815260200184815260200182815250955050505050509250929050565b6000806001845160028111156119ad576119ad61299e565b146119cc576005830154600160801b90046001600160401b03166119e2565b6005830154600160c01b90046001600160401b03165b60058401546001600160401b0391821692506000918391611a0e9181811691600160401b900416612bce565b611a189190612bce565b905080600003611a31576402540be40092505050610a45565b6000611a41828760400151611649565b6020870151909150611a569061271083611f24565b9695505050505050565b600080600080516020612ca783398151915290506000600260048086015460ff1690811115611a9157611a9161299e565b148015611abd575060016004850154600160e81b900460ff166002811115611abb57611abb61299e565b145b9050600081611acd576000611adc565b60118301546001600160401b03165b60048601546001600160401b039182169250600091611b05918491600160a81b90910416612bce565b601485015490915060009064010000000090046001600160401b0316611b2b8342612a7c565b611b359190612a02565b9050611b4f8160018760150180549050610c519190612a7c565b979650505050505050565b600080600080516020612cc7833981519152600484015481549192508291630100000090910461ffff1690811061169a5761169a612a66565b8054600090600160b01b90046001600160401b03161580610a455750815442600160b01b9091046001600160401b03161192915050565b600080611bd8858585611f24565b905060008380611bea57611bea6129d6565b85870990508015611bfe5781600101611a56565b50949350505050565b600080611c148385612be1565b90508015611c365782611c278286612a7c565b611c319190612bce565b611498565b509192915050565b6000816001600160401b0316836001600160401b031611156114af5781610aa3565b600682015460408051808201909152600f81526e1b9bdd08195b9bdd59da08191d5cdd608a1b6020820152600091611ca5916001600160401b03909116908490612131565b9050611cb1838261217c565b505050565b6001600160401b0382811660009081527fec7e8c1c441439dd40959777f4c577ea0cd42fcc1dbe59d2bd0f5d9c55df8dbd602052604081208054600080516020612cc783398151915293919291611d17918691600160a01b90910416612a8f565b9050806001600160401b0316600003611d7c5781546040516001600160401b038716916001600160a01b0316907fb7f65e70a51658e24800516a5dc90e2dd65176e18381adda77f58e2044482b1990600090a3611d776007840186612212565b6106d4565b7f4f24f5c433db0962dac0d2c8b84197a6e6c7cc4e5d9ebe1916a1b6193da2f347546001600160401b039081169082161015611e28578154600090611dc9906001600160a01b0316610547565b9050611dd581836125ec565b82546040516001600160401b038816916001600160a01b0316907fb7f65e70a51658e24800516a5dc90e2dd65176e18381adda77f58e2044482b1990600090a3611e226007850187612212565b506106d4565b815467ffffffffffffffff60a01b1916600160a01b6001600160401b038316021782556000611e5682610b71565b83546040518281529192506001600160401b038816916001600160a01b03909116907f9d2e72c50be7927e999d37329649af37a863df77bcb25361699ce021d3d7475d9060200160405180910390a3505050505050565b611ef88260050160089054906101000a90046001600160401b031682604051806040016040528060118152602001701b9bdd08195b9bdd59da081b5a5b9d1959607a1b815250612131565b8260050160086101000a8154816001600160401b0302191690836001600160401b031602179055505050565b6000808211611f685760405162461bcd60e51b815260206004820152601060248201526f4469766973696f6e206279207a65726f60801b60448201526064016101ac565b83600003611f7857506000610aa3565b83830283858281611f8b57611f8b6129d6565b0403611fa957828181611fa057611fa06129d6565b04915050610aa3565b506000611fb68386612a02565b90506000611fc48487612be1565b90506000611fd28587612a02565b90506000611fe08688612be1565b905085611fed8285612a16565b611ff79190612a02565b6120018385612a16565b61200b8387612a16565b886120168689612a16565b6120209190612a16565b61202a9190612bce565b6120349190612bce565b61203e9190612bce565b98975050505050505050565b600060018260028111156120605761206061299e565b146120735761206e83611104565b610aa3565b5050546001600160a01b031690565b600080600080516020612ca78339815191528180806120a18782612610565b92509250925060008060006120b78a6001612610565b60108a0154929550909350915060009085906120e390600160c01b90046001600160401b031684612bce565b1015801561211057506010880154869061210d90600160c01b90046001600160401b031685612bce565b10155b9050869950806121205786612122565b835b98505050505050505050915091565b6000826001600160401b0316846001600160401b0316101582906121685760405162461bcd60e51b81526004016101ac9190612bf5565b5050506001600160401b0390811691160390565b60068201546001600160401b03808316911603612197575050565b60068201805467ffffffffffffffff19166001600160401b03831617905560006121c082610b71565b90506121cb83611104565b6001600160a01b03167fa3db2bc927901a1d3ba09ad51d84609457b98443be9132a0a936a47c5a1081b58260405161220591815260200190565b60405180910390a2505050565b6001600160401b038116600090815260208390526040902080546001600160a01b031661224157612241612bb8565b80546001600160a01b031660009081526001808501602052604082209083015490916001600160401b0390911690036122c75760028401546001600160401b0384811691161461229357612293612bb8565b6001820154600285018054600160401b9092046001600160401b031667ffffffffffffffff1990921691909117905561232f565b60028401546001600160401b03908116908416036122e7576122e7612bb8565b6001828101546001600160401b038082166000908152602088905260409020909201805467ffffffffffffffff60401b1916600160401b928390049093169091029190911790555b6001820154600160401b90046001600160401b03166000036123a65760028401546001600160401b03848116600160401b909204161461237157612371612bb8565b600182015460028501805467ffffffffffffffff60401b19166001600160401b03909216600160401b0291909117905561240e565b60028401546001600160401b03600160401b9091048116908416036123cd576123cd612bb8565b600180830154600160401b81046001600160401b039081166000908152602088905260409020909201805467ffffffffffffffff1916929091169190911790555b6001820154600160801b90046001600160401b03166000036124735780546001600160401b0384811691161461244657612446612bb8565b60018201548154600160c01b9091046001600160401b031667ffffffffffffffff199091161781556124d9565b80546001600160401b039081169084160361249057612490612bb8565b6001828101546001600160401b03600160801b82048116600090815260208890526040902090920180546001600160c01b0316600160c01b928390049093169091029190911790555b6001820154600160c01b90046001600160401b031660000361254c5780546001600160401b03848116600160401b909204161461251857612518612bb8565b6001820154815467ffffffffffffffff60401b1916600160801b9091046001600160401b0316600160401b021781556125be565b80546001600160401b03600160401b90910481169084160361257057612570612bb8565b6001828101546001600160401b03600160c01b820481166000908152602088905260409020909201805467ffffffffffffffff60801b1916600160801b928390049093169091029190911790555b50506001600160401b031660009081526020919091526040812080546001600160e01b031916815560010155565b60068201546101b590839061260b9084906001600160401b0316612a46565b61217c565b6000806000806000806126af88600101805461262b90612c44565b80601f016020809104026020016040519081016040528092919081815260200182805461265790612c44565b80156126a45780601f10612679576101008083540402835291602001916126a4565b820191906000526020600020905b81548152906001019060200180831161268757829003601f168201915b5050505050886127c8565b8a549295509093509150600160f01b900460ff16156126f65787546000906126e590600160a81b900460ff1660018387866128b6565b96509194508493506100ec92505050565b60008060006127918b600201805461270d90612c44565b80601f016020809104026020016040519081016040528092919081815260200182805461273990612c44565b80156127865780601f1061275b57610100808354040283529160200191612786565b820191906000526020600020905b81548152906001019060200180831161276957829003601f168201915b50505050508b6127c8565b8d5492955090935091506000906127b590600160a81b900460ff1685848a896128b6565b99509497509095506100ec945050505050565b7f4f24f5c433db0962dac0d2c8b84197a6e6c7cc4e5d9ebe1916a1b6193da2f3445460009081908190600080516020612ca7833981519152906001600160a01b0316851561288a5760405163e4a0a55b60e01b81526001600160a01b0382169063e4a0a55b9061283c908a90600401612bf5565b606060405180830381865afa158015612859573d6000803e3d6000fd5b505050506040513d601f19601f8201168201806040525081019061287d9190612c78565b94509450945050506100ec565b60405163524f388960e01b81526001600160a01b0382169063524f38899061283c908a90600401612bf5565b6000600080516020612ca78339815191528160096128d4878a612bce565b6128de9190612bce565b600a8301549091506000906128fe908690600160a81b900460ff16612bce565b90508082101561291057612910612bb8565b61293061291d8284612a7c565b61292890600a612bac565b87908a611f24565b9998505050505050505050565b80356001600160a01b038116811461295457600080fd5b919050565b60006020828403121561296b57600080fd5b610aa38261293d565b6000806040838503121561298757600080fd5b6129908361293d565b946020939093013593505050565b634e487b7160e01b600052602160045260246000fd5b6000602082840312156129c657600080fd5b81518015158114610aa357600080fd5b634e487b7160e01b600052601260045260246000fd5b634e487b7160e01b600052601160045260246000fd5b600082612a1157612a116129d6565b500490565b8082028115828204841417610a4557610a456129ec565b600060208284031215612a3f57600080fd5b5051919050565b6001600160401b038181168382160190808211156117c2576117c26129ec565b634e487b7160e01b600052603260045260246000fd5b81810381811115610a4557610a456129ec565b6001600160401b038281168282160390808211156117c2576117c26129ec565b600060018201612ac157612ac16129ec565b5060010190565b600181815b80851115612b03578160001904821115612ae957612ae96129ec565b80851615612af657918102915b93841c9390800290612acd565b509250929050565b600082612b1a57506001610a45565b81612b2757506000610a45565b8160018114612b3d5760028114612b4757612b63565b6001915050610a45565b60ff841115612b5857612b586129ec565b50506001821b610a45565b5060208310610133831016604e8410600b8410161715612b86575081810a610a45565b612b908383612ac8565b8060001904821115612ba457612ba46129ec565b029392505050565b6000610aa38383612b0b565b634e487b7160e01b600052600160045260246000fd5b80820180821115610a4557610a456129ec565b600082612bf057612bf06129d6565b500690565b60006020808352835180602085015260005b81811015612c2357858101830151858201604001528201612c07565b506000604082860101526040601f19601f8301168501019250505092915050565b600181811c90821680612c5857607f821691505b6020821081036105e857634e487b7160e01b600052602260045260246000fd5b600080600060608486031215612c8d57600080fd5b835192506020840151915060408401519050925092509256fe4f24f5c433db0962dac0d2c8b84197a6e6c7cc4e5d9ebe1916a1b6193da2f33aec7e8c1c441439dd40959777f4c577ea0cd42fcc1dbe59d2bd0f5d9c55df8db6a2646970667358221220ef2ee95d94e41bacbd184af91fb1a9ced5dba8cd550c358892721152efe5a79b64736f6c63430008170033",
  "linkReferences": {},
  "deployedLinkReferences": {}
}