{
  "_format": "hh-sol-artifact-1",
  "contractName": "FullAgentInfo",
  "sourceName": "contracts/fasset/library/FullAgentInfo.sol",
  "abi": [
    {
      "inputs": [
        {
          "internalType": "address",
          "name": "_agentVault",
          "type": "address"
        }
      ],
      "name": "getAgentInfo",
      "outputs": [
        {
          "components": [
            {
              "internalType": "enum FullAgentInfo.AgentStatusInfo",
              "name": "status",
              "type": "FullAgentInfo.AgentStatusInfo"
            },
            {
              "internalType": "address",
              "name": "ownerColdAddressAddress",
              "type": "address"
            },
            {
              "internalType": "address",
              "name": "ownerHotAddressAddress",
              "type": "address"
            },
            {
              "internalType": "address",
              "name": "collateralPool",
              "type": "address"
            },
            {
              "internalType": "string",
              "name": "underlyingAddressString",
              "type": "string"
            },
            {
              "internalType": "bool",
              "name": "publiclyAvailable",
              "type": "bool"
            },
            {
              "internalType": "uint256",
              "name": "feeBIPS",
              "type": "uint256"
            },
            {
              "internalType": "uint256",
              "name": "poolFeeShareBIPS",
              "type": "uint256"
            },
            {
              "internalType": "contract IERC20",
              "name": "class1CollateralToken",
              "type": "IERC20"
            },
            {
              "internalType": "uint256",
              "name": "mintingClass1CollateralRatioBIPS",
              "type": "uint256"
            },
            {
              "internalType": "uint256",
              "name": "mintingPoolCollateralRatioBIPS",
              "type": "uint256"
            },
            {
              "internalType": "uint256",
              "name": "freeCollateralLots",
              "type": "uint256"
            },
            {
              "internalType": "uint256",
              "name": "totalClass1CollateralWei",
              "type": "uint256"
            },
            {
              "internalType": "uint256",
              "name": "freeClass1CollateralWei",
              "type": "uint256"
            },
            {
              "internalType": "uint256",
              "name": "class1CollateralRatioBIPS",
              "type": "uint256"
            },
            {
              "internalType": "uint256",
              "name": "totalPoolCollateralNATWei",
              "type": "uint256"
            },
            {
              "internalType": "uint256",
              "name": "freePoolCollateralNATWei",
              "type": "uint256"
            },
            {
              "internalType": "uint256",
              "name": "poolCollateralRatioBIPS",
              "type": "uint256"
            },
            {
              "internalType": "uint256",
              "name": "totalAgentPoolTokensWei",
              "type": "uint256"
            },
            {
              "internalType": "uint256",
              "name": "freeAgentPoolTokensWei",
              "type": "uint256"
            },
            {
              "internalType": "uint256",
              "name": "mintedUBA",
              "type": "uint256"
            },
            {
              "internalType": "uint256",
              "name": "reservedUBA",
              "type": "uint256"
            },
            {
              "internalType": "uint256",
              "name": "redeemingUBA",
              "type": "uint256"
            },
            {
              "internalType": "uint256",
              "name": "poolRedeemingUBA",
              "type": "uint256"
            },
            {
              "internalType": "uint256",
              "name": "dustUBA",
              "type": "uint256"
            },
            {
              "internalType": "uint256",
              "name": "ccbStartTimestamp",
              "type": "uint256"
            },
            {
              "internalType": "uint256",
              "name": "liquidationStartTimestamp",
              "type": "uint256"
            },
            {
              "internalType": "int256",
              "name": "freeUnderlyingBalanceUBA",
              "type": "int256"
            },
            {
              "internalType": "uint256",
              "name": "announcedUnderlyingWithdrawalId",
              "type": "uint256"
            },
            {
              "internalType": "uint256",
              "name": "buyFAssetByAgentFactorBIPS",
              "type": "uint256"
            },
            {
              "internalType": "uint256",
              "name": "poolExitCollateralRatioBIPS",
              "type": "uint256"
            },
            {
              "internalType": "uint256",
              "name": "poolTopupCollateralRatioBIPS",
              "type": "uint256"
            },
            {
              "internalType": "uint256",
              "name": "poolTopupTokenPriceFactorBIPS",
              "type": "uint256"
            }
          ],
          "internalType": "struct FullAgentInfo.AgentInfo",
          "name": "_info",
          "type": "tuple"
        }
      ],
      "stateMutability": "view",
      "type": "function"
    }
  ],
  "bytecode": "0x6125a561003a600b82828239805160001a60731461002d57634e487b7160e01b600052600060045260246000fd5b30600052607381538281f3fe73000000000000000000000000000000000000000030146080604052600436106100355760003560e01c8063152052b01461003a575b600080fd5b61004d610048366004611fae565b610063565b60405161005a9190612050565b60405180910390f35b610181604080516104208101909152806000815260200160006001600160a01b0316815260200160006001600160a01b0316815260200160006001600160a01b0316815260200160608152602001600015158152602001600081526020016000815260200160006001600160a01b031681526020016000815260200160008152602001600081526020016000815260200160008152602001600081526020016000815260200160008152602001600081526020016000815260200160008152602001600081526020016000815260200160008152602001600081526020016000815260200160008152602001600081526020016000815260200160008152602001600081526020016000815260200160008152602001600081525090565b600061018c8361066f565b905060006101998261070a565b905060006101a6836107b4565b905060006101b38461080e565b905060006101c085610854565b90506101cb856108c8565b869060048111156101de576101de611fcb565b908160048111156101f1576101f1611fcb565b90525060018501546001600160a01b0390811660008181527fec7e8c1c441439dd40959777f4c577ea0cd42fcc1dbe59d2bd0f5d9c55df8dcc6020908152604091829020548416918a019190915288015285541660608701526002850180546102599061224b565b80601f01602080910402602001604051908101604052809291908181526020018280546102859061224b565b80156102d25780601f106102a7576101008083540402835291602001916102d2565b820191906000526020600020905b8154815290600101906020018083116102b557829003601f168201915b50505050506080870152600485015463ffffffff660100000000000082048116151560a089015284546001600160a01b031661010089015261ffff600160501b8304811660c08a0152600160601b83041660e0890152600285015461034192600160701b900482169116610999565b6101208701526004850154600283015461036b9163ffffffff600160901b90910481169116610999565b61014087015261037b84866109b4565b61016087015283516020015161018087015283516103999086610a08565b6101a087015280516101c087015260208085018051909101516101e0880152516103c39086610a08565b61020087015260208082015161022088015260408501805190910151610240880152516103f09086610a08565b610260870152600585015461041490600160401b90046001600160401b0316610a30565b6102808701526005850154610431906001600160401b0316610a30565b6102a0870152600585015461045590600160801b90046001600160401b0316610a30565b6102c0870152600585015461047990600160c01b90046001600160401b0316610a30565b6102e08701526006850154610496906001600160401b0316610a30565b6103008701526104a585610a8a565b6103208701526104b485610b0c565b6103408701526006850154600160401b8104600f0b610360880152600160c01b90046001600160401b0316610380870152600a850154600160801b900461ffff166103a0870152845460408051633cfc747d60e01b815290516001600160a01b0390921691633cfc747d916004808201926020929091908290030181865afa158015610544573d6000803e3d6000fd5b505050506040513d601f19601f820116820180604052508101906105689190612280565b63ffffffff166103c087015284546040805163b337929b60e01b815290516001600160a01b039092169163b337929b916004808201926020929091908290030181865afa1580156105bd573d6000803e3d6000fd5b505050506040513d601f19601f820116820180604052508101906105e19190612280565b63ffffffff166103e0870152845460408051634a4ac2ef60e01b815290516001600160a01b0390921691634a4ac2ef916004808201926020929091908290030181865afa158015610636573d6000803e3d6000fd5b505050506040513d601f19601f8201168201806040525081019061065a91906122a6565b61ffff16610400870152509395945050505050565b60008051602061253083398151915268010000000000000000600160e01b03604083901b1618806000600483015460ff1660028111156106b1576106b1611fcb565b14156107045760405162461bcd60e51b815260206004820152601b60248201527f696e76616c6964206167656e74207661756c742061646472657373000000000060448201526064015b60405180910390fd5b50919050565b6107756040805160c081019091526000606082018181526080830182905260a083019190915281908152604080516060810182526000808252602082810182905292820152910190815260408051606081018252600080825260208281018290529282015291015290565b600061078083610c0d565b9050604051806060016040528061079685610d35565b81526020018281526020016107ab8584610e24565b90529392505050565b6004810154600080516020612510833981519152805460009260008051602061255083398151915292916201000090910461ffff169081106107f8576107f86122ca565b9060005260206000209060030201915050919050565b60048101546000805160206125108339815191528054600092600080516020612550833981519152929164010000000090910461ffff169081106107f8576107f86122ca565b61087f6040518060800160405280600081526020016000815260200160008152602001600081525090565b60008061088d846000610ffc565b9150915060008061089f866001610ffc565b604080516080810182529687526020870192909252908501939093525050606082015292915050565b6004810154600090610100900460ff16818160038111156108eb576108eb611fcb565b14156108fa5750600092915050565b600181600381111561090e5761090e611fcb565b141561094c57600061091f8461104a565b9050600181600281111561093557610935611fcb565b14610941576002610944565b60015b949350505050565b600281600381111561096057610960611fcb565b141561096f5750600392915050565b600381600381111561098357610983611fcb565b14610990576109906122e0565b50600492915050565b6000818310156109a957816109ab565b825b90505b92915050565b6000806109c584600001518461113d565b905060006109d785602001518561113d565b905060006109e986604001518661113d565b90506109fe836109f98484611179565b611179565b9695505050505050565b600080610a158484611188565b905060006109fe8286602001516112ba90919063ffffffff16565b7fec7e8c1c441439dd40959777f4c577ea0cd42fcc1dbe59d2bd0f5d9c55df8dc25460009060008051602061255083398151915290610a8390600160401b90046001600160401b0390811690851661230c565b9392505050565b600060016004830154610100900460ff166003811115610aac57610aac611fcb565b14610ab957506000919050565b60016004830154600160f01b900460ff166002811115610adb57610adb611fcb565b14610ae7576000610afd565b6004820154600160b01b90046001600160401b03165b6001600160401b031692915050565b600080600080516020612550833981519152905060016004840154610100900460ff166003811115610b4057610b40611fcb565b1415610bc55760016004840154600160f01b900460ff166002811115610b6857610b68611fcb565b14610b87576004830154600160b01b90046001600160401b0316610bb5565b600f8101546004840154610bb5916001600160401b03600160c01b909104811691600160b01b90041661232b565b6001600160401b03169392505050565b60026004840154610100900460ff166003811115610be557610be5611fcb565b1415610c0457505060040154600160b01b90046001600160401b031690565b50600092915050565b610c326040805160608101909152806000815260200160008152602001600081525090565b60048201546000805160206125108339815191528054600080516020612550833981519152926000929164010000000090910461ffff16908110610c7857610c786122ca565b90600052602060002090600302019050604051806060016040528060016002811115610ca657610ca6611fcb565b8152825486546040516370a0823160e01b81526001600160a01b0391821660048201526020909301929116906370a08231906024015b602060405180830381865afa158015610cf9573d6000803e3d6000fd5b505050506040513d601f19601f82011682018060405250810190610d1d9190612356565b8152602001610d2b836112e0565b9052949350505050565b610d5a6040805160608101909152806000815260200160008152602001600081525090565b6004820154600080516020612510833981519152805460008051602061255083398151915292600092916201000090910461ffff16908110610d9e57610d9e6122ca565b90600052602060002090600302019050604051806060016040528060006002811115610dcc57610dcc611fcb565b815282546020909101906001600160a01b03166370a08231600080516020612530833981519152881860401c6040516001600160e01b031960e084901b1681526001600160a01b039091166004820152602401610cdc565b610e496040805160608101909152806000815260200160008152602001600081525090565b8254604080516332f7ce0b60e21b815290516000926001600160a01b03169163cbdf382c9160048083019260209291908290030181865afa158015610e92573d6000803e3d6000fd5b505050506040513d601f19601f82011682018060405250810190610eb6919061236f565b905060006001600160a01b0382166370a08231600080516020612530833981519152871860401c6040516001600160e01b031960e084901b1681526001600160a01b039091166004820152602401602060405180830381865afa158015610f21573d6000803e3d6000fd5b505050506040513d601f19601f82011682018060405250810190610f459190612356565b90506000826001600160a01b03166318160ddd6040518163ffffffff1660e01b8152600401602060405180830381865afa158015610f87573d6000803e3d6000fd5b505050506040513d601f19601f82011682018060405250810190610fab9190612356565b90506000856020015160001415610fc3576000610fd8565b60208601516040870151610fd89184906112f4565b60408051606081018252600281526020810195909552840152509095945050505050565b60008060008061100c8686611418565b91509150600061101c838861157b565b9050600061102a838961157b565b90508360400151945061103d8282610999565b9550505050509250929050565b600080611056836115f0565b9050600181600281111561106c5761106c611fcb565b146110775792915050565b600061108284610854565b805160048601549192506000916110a3919062010000900461ffff166116d8565b602083015160048701549192506000916110c99190640100000000900461ffff166116d8565b905060008160028111156110df576110df611fcb565b8360028111156110f1576110f1611fcb565b10156110fd57816110ff565b825b905084600281111561111357611113611fcb565b81600281111561112557611125611fcb565b116111305784611132565b805b979650505050505050565b60008061114a8484610a08565b905060006111588585611761565b905080611166576000611170565b61117081836123a2565b95945050505050565b60008183106109a957816109ab565b600080600061119b8486600001516117bd565b600586015491935091506000906111c4906001600160401b03600160401b8204811691166123b6565b905060006111e0846111da848a604001516118ea565b90611904565b905060006001885160028111156111f9576111f9611fcb565b14611218576005870154600160801b90046001600160401b031661122e565b6005870154600160c01b90046001600160401b03165b9050600061124d856111da846001600160401b03168c604001516118ea565b9050600060018a51600281111561126657611266611fcb565b141561127357600061128c565b611281898b60000151611913565b546001600160801b03165b6001600160801b03169050806112a283866123b6565b6112ac91906123b6565b9a9950505050505050505050565b600080838311156112d0575060009050806112d9565b50600190508183035b9250929050565b60006112eb82611961565b50909392505050565b60008082116113385760405162461bcd60e51b815260206004820152601060248201526f4469766973696f6e206279207a65726f60801b60448201526064016106fb565b8361134557506000610a83565b838302838582816113585761135861238c565b0414156113775782818161136e5761136e61238c565b04915050610a83565b50600061138483866123a2565b9050600061139284876123ce565b905060006113a085876123a2565b905060006113ae86886123ce565b9050856113bb828561230c565b6113c591906123a2565b6113cf838561230c565b6113d9838761230c565b886113e4868961230c565b6113ee919061230c565b6113f891906123b6565b61140291906123b6565b61140c91906123b6565b98975050505050505050565b61143d6040805160608101909152806000815260200160008152602001600081525090565b6114626040805160608101909152806000815260200160008152602001600081525090565b600061146e8585611b85565b9050600061147c8686611c36565b9050600061148983611c79565b611494576000611501565b82546040516370a0823160e01b81526001600160a01b038481166004830152909116906370a0823190602401602060405180830381865afa1580156114dd573d6000803e3d6000fd5b505050506040513d601f19601f820116820180604052508101906115019190612356565b905060008061150f85611cb0565b91509150604051806060016040528089600281111561153057611530611fcb565b8152602001848152602001838152509650604051806060016040528089600281111561155e5761155e611fcb565b815260200184815260200182815250955050505050509250929050565b600581015460009081906001600160401b03600160801b82048116916115ac9180821691600160401b9004166123b6565b6115b691906123b6565b9050806115cb576402540be4009150506109ae565b60006115db8286604001516118ea565b602086015190915061117090612710836112f4565b600481015460009060008051602061255083398151915290610100900460ff16600181600381111561162457611624611fcb565b14156116aa57600060016004860154600160f01b900460ff16600281111561164e5761164e611fcb565b1480156116915750600f8301546004860154611684916001600160401b03600160c01b909104811691600160b01b90041661232b565b6001600160401b03164211155b90508061169f576002611170565b600195945050505050565b60028160038111156116be576116be611fcb565b14156116ce575060029392505050565b5060009392505050565b60008060008051602061255083398151915290506000816013018481548110611703576117036122ca565b60009182526020909120600390910201600281015490915063ffffffff168510611732576000925050506109ae565b6002810154640100000000900463ffffffff168510611756576001925050506109ae565b6002925050506109ae565b600080600080516020612550833981519152905060006117858486600001516117bd565b509050611170816111da84600001600c0160109054906101000a90046001600160401b03166001600160401b031688604001516118ea565b600080600080516020612550833981519152600284818111156117e2576117e2611fcb565b1415611804576009810154600160d01b900463ffffffff1692508291506118e2565b600184600281111561181857611818611fcb565b14156118835760048501546013820180549091640100000000900461ffff16908110611846576118466122ca565b6000918252602090912060026003909202010154600486015463ffffffff918216935061187c91600160901b9091041683610999565b92506118e2565b6004850154601382018054909162010000900461ffff169081106118a9576118a96122ca565b6000918252602090912060026003909202010154600486015463ffffffff91821693506118df91600160701b9091041683610999565b92505b509250929050565b60006109ab826118fc6009600a6124be565b8591906112f4565b60006109ab83836127106112f4565b6000600182600281111561192957611929611fcb565b1415611937576119376122e0565b600082600281111561194b5761194b611fcb565b1461195957826009016109ab565b505060080190565b6000808080600080516020612550833981519152600981015460405163d75f6d8160e01b8152600160a01b820463ffffffff1660048201529192506001600160a01b031690600090829063d75f6d8190602401602060405180830381865afa1580156119d1573d6000803e3d6000fd5b505050506040513d601f19601f820116820180604052508101906119f5919061236f565b875460405163d75f6d8160e01b8152600160b01b90910461ffff1660048201529091506000906001600160a01b0384169063d75f6d8190602401602060405180830381865afa158015611a4c573d6000803e3d6000fd5b505050506040513d601f19601f82011682018060405250810190611a70919061236f565b90506000806000846001600160a01b03166365f5cd866040518163ffffffff1660e01b8152600401606060405180830381865afa158015611ab5573d6000803e3d6000fd5b505050506040513d601f19601f82011682018060405250810190611ad991906124ca565b9250925092506000806000866001600160a01b03166365f5cd866040518163ffffffff1660e01b8152600401606060405180830381865afa158015611b22573d6000803e3d6000fd5b505050506040513d601f19601f82011682018060405250810190611b4691906124ca565b9250925092506000611b6f8f60000160159054906101000a900460ff1660ff1685848a89611d4e565b9f959e50919c50939a5050505050505050505050565b60006002826002811115611b9b57611b9b611fcb565b1415611ba957611ba96122e0565b6000805160206125508339815191526000836002811115611bcc57611bcc611fcb565b1415611c0e576004840154601382018054909162010000900461ffff16908110611bf857611bf86122ca565b90600052602060002090600302019150506109ae565b60048401546013820180549091640100000000900461ffff16908110611bf857611bf86122ca565b60006001826002811115611c4c57611c4c611fcb565b14611c6a57600080516020612530833981519152831860401c6109ab565b5050546001600160a01b031690565b8054600090600160c01b90046001600160401b031615806109ae5750815442600160c01b9091046001600160401b03161192915050565b600080600080516020612550833981519152818080611cce87611961565b9250925092506000806000611ce28a611dd5565b600d8a015492955090935091506000908590611d07906001600160401b0316846123b6565b10158015611d2d5750600d8801548690611d2a906001600160401b0316856123b6565b10155b905086995080611d3d5786611d3f565b835b98505050505050505050915091565b6000600080516020612550833981519152816009611d6c878a6123b6565b611d7691906123b6565b6009830154909150600090611d96908690600160c81b900460ff166123b6565b905080821015611da857611da86122e0565b611dc8611db582846124f8565b611dc090600a6124be565b87908a6112f4565b9998505050505050505050565b6000808080600080516020612550833981519152600981015460405163d75f6d8160e01b8152600160a01b820463ffffffff1660048201529192506001600160a01b031690600090829063d75f6d8190602401602060405180830381865afa158015611e45573d6000803e3d6000fd5b505050506040513d601f19601f82011682018060405250810190611e69919061236f565b875460405163d75f6d8160e01b8152600160b01b90910461ffff1660048201529091506000906001600160a01b0384169063d75f6d8190602401602060405180830381865afa158015611ec0573d6000803e3d6000fd5b505050506040513d601f19601f82011682018060405250810190611ee4919061236f565b90506000806000846001600160a01b0316633cacb3ae6040518163ffffffff1660e01b8152600401606060405180830381865afa158015611f29573d6000803e3d6000fd5b505050506040513d601f19601f82011682018060405250810190611f4d91906124ca565b9250925092506000806000866001600160a01b0316633cacb3ae6040518163ffffffff1660e01b8152600401606060405180830381865afa158015611b22573d6000803e3d6000fd5b6001600160a01b0381168114611fab57600080fd5b50565b600060208284031215611fc057600080fd5b8135610a8381611f96565b634e487b7160e01b600052602160045260246000fd5b60058110611fff57634e487b7160e01b600052602160045260246000fd5b9052565b6000815180845260005b818110156120295760208185018101518683018201520161200d565b8181111561203b576000602083870101525b50601f01601f19169290920160200192915050565b60208152612062602082018351611fe1565b6000602083015161207e60408401826001600160a01b03169052565b5060408301516001600160a01b03811660608401525060608301516001600160a01b03811660808401525060808301516104208060a08501526120c5610440850183612003565b915060a08501516120da60c086018215159052565b5060c085015160e085015260e0850151610100818187015280870151915050610120612110818701836001600160a01b03169052565b8601516101408681019190915286015161016080870191909152860151610180808701919091528601516101a0808701919091528601516101c0808701919091528601516101e08087019190915286015161020080870191909152860151610220808701919091528601516102408087019190915286015161026080870191909152860151610280808701919091528601516102a0808701919091528601516102c0808701919091528601516102e08087019190915286015161030080870191909152860151610320808701919091528601516103408087019190915286015161036080870191909152860151610380808701919091528601516103a0808701919091528601516103c0808701919091528601516103e080870191909152860151610400808701919091529095015193019290925250919050565b600181811c9082168061225f57607f821691505b6020821081141561070457634e487b7160e01b600052602260045260246000fd5b60006020828403121561229257600080fd5b815163ffffffff81168114610a8357600080fd5b6000602082840312156122b857600080fd5b815161ffff81168114610a8357600080fd5b634e487b7160e01b600052603260045260246000fd5b634e487b7160e01b600052600160045260246000fd5b634e487b7160e01b600052601160045260246000fd5b6000816000190483118215151615612326576123266122f6565b500290565b60006001600160401b0380831681851680830382111561234d5761234d6122f6565b01949350505050565b60006020828403121561236857600080fd5b5051919050565b60006020828403121561238157600080fd5b8151610a8381611f96565b634e487b7160e01b600052601260045260246000fd5b6000826123b1576123b161238c565b500490565b600082198211156123c9576123c96122f6565b500190565b6000826123dd576123dd61238c565b500690565b600181815b808511156118e2578160001904821115612403576124036122f6565b8085161561241057918102915b93841c93908002906123e7565b60008261242c575060016109ae565b81612439575060006109ae565b816001811461244f576002811461245957612475565b60019150506109ae565b60ff84111561246a5761246a6122f6565b50506001821b6109ae565b5060208310610133831016604e8410600b8410161715612498575081810a6109ae565b6124a283836123e2565b80600019048211156124b6576124b66122f6565b029392505050565b60006109ab838361241d565b6000806000606084860312156124df57600080fd5b8351925060208401519150604084015190509250925092565b60008282101561250a5761250a6122f6565b50039056feec7e8c1c441439dd40959777f4c577ea0cd42fcc1dbe59d2bd0f5d9c55df8dc95bebac0595fee029d42bb673937f5f1cb81cf8641382bc17774635de9b7d7965ec7e8c1c441439dd40959777f4c577ea0cd42fcc1dbe59d2bd0f5d9c55df8db6a26469706673582212204cca91bc4a2961e0d5140f159296816d0653f400c45a132229b3370031357aea64736f6c634300080b0033",
  "linkReferences": {},
  "deployedLinkReferences": {}
}