{
  "_format": "hh-sol-artifact-1",
  "contractName": "FullAgentInfo",
  "sourceName": "contracts/fasset/library/FullAgentInfo.sol",
  "abi": [
    {
      "inputs": [
        {
          "internalType": "address",
          "name": "_agentVault",
          "type": "address"
        }
      ],
      "name": "getAgentInfo",
      "outputs": [
        {
          "components": [
            {
              "internalType": "enum FullAgentInfo.AgentStatusInfo",
              "name": "status",
              "type": "FullAgentInfo.AgentStatusInfo"
            },
            {
              "internalType": "address",
              "name": "ownerColdWalletAddress",
              "type": "address"
            },
            {
              "internalType": "address",
              "name": "ownerHotWalletAddress",
              "type": "address"
            },
            {
              "internalType": "address",
              "name": "collateralPool",
              "type": "address"
            },
            {
              "internalType": "string",
              "name": "underlyingAddressString",
              "type": "string"
            },
            {
              "internalType": "bool",
              "name": "publiclyAvailable",
              "type": "bool"
            },
            {
              "internalType": "uint256",
              "name": "feeBIPS",
              "type": "uint256"
            },
            {
              "internalType": "uint256",
              "name": "poolFeeShareBIPS",
              "type": "uint256"
            },
            {
              "internalType": "contract IERC20",
              "name": "class1CollateralToken",
              "type": "IERC20"
            },
            {
              "internalType": "uint256",
              "name": "mintingClass1CollateralRatioBIPS",
              "type": "uint256"
            },
            {
              "internalType": "uint256",
              "name": "mintingPoolCollateralRatioBIPS",
              "type": "uint256"
            },
            {
              "internalType": "uint256",
              "name": "freeCollateralLots",
              "type": "uint256"
            },
            {
              "internalType": "uint256",
              "name": "totalClass1CollateralWei",
              "type": "uint256"
            },
            {
              "internalType": "uint256",
              "name": "freeClass1CollateralWei",
              "type": "uint256"
            },
            {
              "internalType": "uint256",
              "name": "class1CollateralRatioBIPS",
              "type": "uint256"
            },
            {
              "internalType": "uint256",
              "name": "totalPoolCollateralNATWei",
              "type": "uint256"
            },
            {
              "internalType": "uint256",
              "name": "freePoolCollateralNATWei",
              "type": "uint256"
            },
            {
              "internalType": "uint256",
              "name": "poolCollateralRatioBIPS",
              "type": "uint256"
            },
            {
              "internalType": "uint256",
              "name": "totalAgentPoolTokensWei",
              "type": "uint256"
            },
            {
              "internalType": "uint256",
              "name": "announcedClass1WithdrawalWei",
              "type": "uint256"
            },
            {
              "internalType": "uint256",
              "name": "announcedPoolTokensWithdrawalWei",
              "type": "uint256"
            },
            {
              "internalType": "uint256",
              "name": "freeAgentPoolTokensWei",
              "type": "uint256"
            },
            {
              "internalType": "uint256",
              "name": "mintedUBA",
              "type": "uint256"
            },
            {
              "internalType": "uint256",
              "name": "reservedUBA",
              "type": "uint256"
            },
            {
              "internalType": "uint256",
              "name": "redeemingUBA",
              "type": "uint256"
            },
            {
              "internalType": "uint256",
              "name": "poolRedeemingUBA",
              "type": "uint256"
            },
            {
              "internalType": "uint256",
              "name": "underlyingRedeemingUBA",
              "type": "uint256"
            },
            {
              "internalType": "uint256",
              "name": "dustUBA",
              "type": "uint256"
            },
            {
              "internalType": "uint256",
              "name": "ccbStartTimestamp",
              "type": "uint256"
            },
            {
              "internalType": "uint256",
              "name": "liquidationStartTimestamp",
              "type": "uint256"
            },
            {
              "internalType": "uint256",
              "name": "underlyingBalanceUBA",
              "type": "uint256"
            },
            {
              "internalType": "uint256",
              "name": "freeUnderlyingBalanceUBA",
              "type": "uint256"
            },
            {
              "internalType": "uint256",
              "name": "requiredUnderlyingBalanceUBA",
              "type": "uint256"
            },
            {
              "internalType": "uint256",
              "name": "announcedUnderlyingWithdrawalId",
              "type": "uint256"
            },
            {
              "internalType": "uint256",
              "name": "buyFAssetByAgentFactorBIPS",
              "type": "uint256"
            },
            {
              "internalType": "uint256",
              "name": "poolExitCollateralRatioBIPS",
              "type": "uint256"
            },
            {
              "internalType": "uint256",
              "name": "poolTopupCollateralRatioBIPS",
              "type": "uint256"
            },
            {
              "internalType": "uint256",
              "name": "poolTopupTokenPriceFactorBIPS",
              "type": "uint256"
            }
          ],
          "internalType": "struct FullAgentInfo.AgentInfo",
          "name": "_info",
          "type": "tuple"
        }
      ],
      "stateMutability": "view",
      "type": "function"
    }
  ],
  "bytecode": "0x61263261003a600b82828239805160001a60731461002d57634e487b7160e01b600052600060045260246000fd5b30600052607381538281f3fe73000000000000000000000000000000000000000030146080604052600436106100355760003560e01c8063152052b01461003a575b600080fd5b61004d610048366004611fff565b610063565b60405161005a91906120a1565b60405180910390f35b6101a4604080516104c08101909152806000815260200160006001600160a01b0316815260200160006001600160a01b0316815260200160006001600160a01b0316815260200160608152602001600015158152602001600081526020016000815260200160006001600160a01b0316815260200160008152602001600081526020016000815260200160008152602001600081526020016000815260200160008152602001600081526020016000815260200160008152602001600081526020016000815260200160008152602001600081526020016000815260200160008152602001600081526020016000815260200160008152602001600081526020016000815260200160008152602001600081526020016000815260200160008152602001600081526020016000815260200160008152602001600081525090565b60006101af8361070e565b905060006101bc826107a9565b905060006101c983610853565b905060006101d6846108bf565b905060006101e385610917565b90506101ee8561098b565b869060048111156102015761020161201c565b908160048111156102145761021461201c565b90525060018501546001600160a01b0390811660008181527fec7e8c1c441439dd40959777f4c577ea0cd42fcc1dbe59d2bd0f5d9c55df8dcc6020908152604091829020548416918a0191909152880152855416606087015260028501805461027c906122dd565b80601f01602080910402602001604051908101604052809291908181526020018280546102a8906122dd565b80156102f55780601f106102ca576101008083540402835291602001916102f5565b820191906000526020600020905b8154815290600101906020018083116102d857829003601f168201915b50505050506080870152600485015463ffffffff660100000000000082048116151560a089015284546001600160a01b031661010089015261ffff600160501b8304811660c08a0152600160601b83041660e0890152600385015461036492600160701b900482169116610a5c565b6101208701526004850154600383015461038e9163ffffffff600160901b90910481169116610a5c565b61014087015261039e8486610a77565b61016087015283516020015161018087015283516103bc9086610acb565b6101a087015280516101c087015260208085018051909101516101e0880152516103e69086610acb565b61020087015260208082015161022088015260408501805190910151610240880152516104139086610acb565b6102a0870152610424856000610af3565b546001600160801b031661026087015261043f856002610af3565b546001600160801b0316610280870152600585015461046d90600160401b90046001600160401b0316610b41565b6102c0870152600585015461048a906001600160401b0316610b41565b6102e087015260058501546104ae90600160801b90046001600160401b0316610b41565b61030087015260058501546104d290600160c01b90046001600160401b0316610b41565b61032087015260068501546104ef906001600160401b0316610b41565b610340870152600685015461051390600160401b90046001600160401b0316610b41565b61036087015261052285610b9b565b61038087015261053185610c1d565b6103a08701526006850154600160801b90046001600160801b03166103c087015261055b85610d1e565b6103e087015261056a85610de5565b61040087015260078501546001600160401b0316610420870152600a850154600160801b900461ffff16610440870152845460408051633cfc747d60e01b815290516001600160a01b0390921691633cfc747d916004808201926020929091908290030181865afa1580156105e3573d6000803e3d6000fd5b505050506040513d601f19601f820116820180604052508101906106079190612312565b63ffffffff1661046087015284546040805163b337929b60e01b815290516001600160a01b039092169163b337929b916004808201926020929091908290030181865afa15801561065c573d6000803e3d6000fd5b505050506040513d601f19601f820116820180604052508101906106809190612312565b63ffffffff16610480870152845460408051634a4ac2ef60e01b815290516001600160a01b0390921691634a4ac2ef916004808201926020929091908290030181865afa1580156106d5573d6000803e3d6000fd5b505050506040513d601f19601f820116820180604052508101906106f99190612338565b61ffff166104a0870152509395945050505050565b6000805160206125bd83398151915268010000000000000000600160e01b03604083901b1618806000600483015460ff1660028111156107505761075061201c565b14156107a35760405162461bcd60e51b815260206004820152601b60248201527f696e76616c6964206167656e74207661756c742061646472657373000000000060448201526064015b60405180910390fd5b50919050565b6108146040805160c081019091526000606082018181526080830182905260a083019190915281908152604080516060810182526000808252602082810182905292820152910190815260408051606081018252600080825260208281018290529282015291015290565b600061081f83610e60565b9050604051806060016040528061083585610f26565b815260200182815260200161084a8584610fb1565b90529392505050565b60048101547fec7e8c1c441439dd40959777f4c577ea0cd42fcc1dbe59d2bd0f5d9c55df8dc980546000926000805160206125dd83398151915292916201000090910461ffff169081106108a9576108a961235c565b9060005260206000209060040201915050919050565b60048101547fec7e8c1c441439dd40959777f4c577ea0cd42fcc1dbe59d2bd0f5d9c55df8dc980546000926000805160206125dd833981519152929164010000000090910461ffff169081106108a9576108a961235c565b6109426040518060800160405280600081526020016000815260200160008152602001600081525090565b600080610950846000611189565b91509150600080610962866001611189565b604080516080810182529687526020870192909252908501939093525050606082015292915050565b6004810154600090610100900460ff16818160038111156109ae576109ae61201c565b14156109bd5750600092915050565b60018160038111156109d1576109d161201c565b1415610a0f5760006109e2846111d7565b905060018160028111156109f8576109f861201c565b14610a04576002610a07565b60015b949350505050565b6002816003811115610a2357610a2361201c565b1415610a325750600392915050565b6003816003811115610a4657610a4661201c565b14610a5357610a53612372565b50600492915050565b600081831015610a6c5781610a6e565b825b90505b92915050565b600080610a888460000151846112bd565b90506000610a9a8560200151856112bd565b90506000610aac8660400151866112bd565b9050610ac183610abc84846112f9565b6112f9565b9695505050505050565b600080610ad88484611308565b90506000610ac182866020015161143990919063ffffffff16565b60006001826002811115610b0957610b0961201c565b1415610b1757610b17612372565b6000826002811115610b2b57610b2b61201c565b14610b395782600901610a6e565b505060080190565b7fec7e8c1c441439dd40959777f4c577ea0cd42fcc1dbe59d2bd0f5d9c55df8dc1546000906000805160206125dd83398151915290610b9490600160401b90046001600160401b0390811690851661239e565b9392505050565b600060016004830154610100900460ff166003811115610bbd57610bbd61201c565b14610bca57506000919050565b60016004830154600160f01b900460ff166002811115610bec57610bec61201c565b14610bf8576000610c0e565b6004820154600160b01b90046001600160401b03165b6001600160401b031692915050565b6000806000805160206125dd833981519152905060016004840154610100900460ff166003811115610c5157610c5161201c565b1415610cd65760016004840154600160f01b900460ff166002811115610c7957610c7961201c565b14610c98576004830154600160b01b90046001600160401b0316610cc6565b600f8101546004840154610cc6916001600160401b03600160c01b909104811691600160b01b9004166123bd565b6001600160401b03169392505050565b60026004840154610100900460ff166003811115610cf657610cf661201c565b1415610d1557505060040154600160b01b90046001600160401b031690565b50600092915050565b7fec7e8c1c441439dd40959777f4c577ea0cd42fcc1dbe59d2bd0f5d9c55df8dc154600682015460058301546000926000805160206125dd8339815191529284926001600160401b03600160401b93849004811693610d819382169204166123bd565b6001600160401b0316610d94919061239e565b600b830154909150600090610db5908390600160c01b900461ffff1661145f565b6006860154909150600090610dda90600160801b90046001600160801b031683611439565b979650505050505050565b7fec7e8c1c441439dd40959777f4c577ea0cd42fcc1dbe59d2bd0f5d9c55df8dc15460058201546000916000805160206125dd833981519152918391610e42916001600160401b03600160401b928390048116929091041661239e565b600b830154909150610a07908290600160c01b900461ffff1661145f565b610e856040805160608101909152806000815260200160008152602001600081525090565b6000610e90836108bf565b60408051606081019091529091508060018152825485546040516370a0823160e01b81526001600160a01b0391821660048201526020909301929116906370a08231906024015b602060405180830381865afa158015610ef4573d6000803e3d6000fd5b505050506040513d601f19601f82011682018060405250810190610f1891906123e8565b815260200161084a8361146e565b610f4b6040805160608101909152806000815260200160008152602001600081525090565b6000610f5683610853565b6040805160608101825260008152825482516370a0823160e01b81526000805160206125bd833981519152881890931c6001600160a01b039081166004850152939450909260208401929116906370a0823190602401610ed7565b610fd66040805160608101909152806000815260200160008152602001600081525090565b8254604080516332f7ce0b60e21b815290516000926001600160a01b03169163cbdf382c9160048083019260209291908290030181865afa15801561101f573d6000803e3d6000fd5b505050506040513d601f19601f820116820180604052508101906110439190612401565b905060006001600160a01b0382166370a082316000805160206125bd833981519152871860401c6040516001600160e01b031960e084901b1681526001600160a01b039091166004820152602401602060405180830381865afa1580156110ae573d6000803e3d6000fd5b505050506040513d601f19601f820116820180604052508101906110d291906123e8565b90506000826001600160a01b03166318160ddd6040518163ffffffff1660e01b8152600401602060405180830381865afa158015611114573d6000803e3d6000fd5b505050506040513d601f19601f8201168201806040525081019061113891906123e8565b90506000856020015160001415611150576000611165565b60208601516040870151611165918490611484565b60408051606081018252600281526020810195909552840152509095945050505050565b60008060008061119986866115a8565b9150915060006111a9838861170b565b905060006111b7838961170b565b9050836040015194506111ca8282610a5c565b9550505050509250929050565b6000806111e383611780565b905060018160028111156111f9576111f961201c565b146112045792915050565b600061120f84610917565b80516004860154919250600091611230919062010000900461ffff16611868565b602083015160048701549192506000916112569190640100000000900461ffff16611868565b9050600081600281111561126c5761126c61201c565b83600281111561127e5761127e61201c565b101561128a578161128c565b825b90508460028111156112a0576112a061201c565b8160028111156112b2576112b261201c565b11610ac15784610dda565b6000806112ca8484610acb565b905060006112d885856118f1565b9050806112e65760006112f0565b6112f08183612434565b95945050505050565b6000818310610a6c5781610a6e565b600080600061131b84866000015161194a565b60058601549193509150600090611344906001600160401b03600160401b820481169116612448565b905060006113608461135a848a60400151611a51565b9061145f565b905060006001885160028111156113795761137961201c565b14611398576005870154600160801b90046001600160401b03166113ae565b6005870154600160c01b90046001600160401b03165b905060006113cd8561135a846001600160401b03168c60400151611a51565b9050600060018a5160028111156113e6576113e661201c565b14156113f357600061140b565b8951611400908a90610af3565b546001600160801b03165b6001600160801b03169050806114218386612448565b61142b9190612448565b9a9950505050505050505050565b6000808383111561144f57506000905080611458565b50600190508183035b9250929050565b6000610a6e8383612710611484565b600061147b826000611a6b565b50909392505050565b60008082116114c85760405162461bcd60e51b815260206004820152601060248201526f4469766973696f6e206279207a65726f60801b604482015260640161079a565b836114d557506000610b94565b838302838582816114e8576114e861241e565b041415611507578281816114fe576114fe61241e565b04915050610b94565b5060006115148386612434565b905060006115228487612460565b905060006115308587612434565b9050600061153e8688612460565b90508561154b828561239e565b6115559190612434565b61155f838561239e565b611569838761239e565b88611574868961239e565b61157e919061239e565b6115889190612448565b6115929190612448565b61159c9190612448565b98975050505050505050565b6115cd6040805160608101909152806000815260200160008152602001600081525090565b6115f26040805160608101909152806000815260200160008152602001600081525090565b60006115fe8585611c2a565b9050600061160c8686611cdb565b9050600061161983611d1e565b611624576000611691565b82546040516370a0823160e01b81526001600160a01b038481166004830152909116906370a0823190602401602060405180830381865afa15801561166d573d6000803e3d6000fd5b505050506040513d601f19601f8201168201806040525081019061169191906123e8565b905060008061169f85611d55565b9150915060405180606001604052808960028111156116c0576116c061201c565b815260200184815260200183815250965060405180606001604052808960028111156116ee576116ee61201c565b815260200184815260200182815250955050505050509250929050565b600581015460009081906001600160401b03600160801b820481169161173c9180821691600160401b900416612448565b6117469190612448565b90508061175b576402540be400915050610a71565b600061176b828660400151611a51565b60208601519091506112f09061271083611484565b60048101546000906000805160206125dd83398151915290610100900460ff1660018160038111156117b4576117b461201c565b141561183a57600060016004860154600160f01b900460ff1660028111156117de576117de61201c565b1480156118215750600f8301546004860154611814916001600160401b03600160c01b909104811691600160b01b9004166123bd565b6001600160401b03164211155b90508061182f5760026112f0565b600195945050505050565b600281600381111561184e5761184e61201c565b141561185e575060029392505050565b5060009392505050565b6000806000805160206125dd833981519152905060008160130184815481106118935761189361235c565b60009182526020909120600490910201600381015490915063ffffffff1685106118c257600092505050610a71565b6003810154640100000000900463ffffffff1685106118e657600192505050610a71565b600292505050610a71565b6000806000805160206125dd8339815191529050600061191584866000015161194a565b5090506112f08161135a84600b0160109054906101000a90046001600160401b03166001600160401b03168860400151611a51565b60008060028360028111156119615761196161201c565b14156119c95760008061197586600161194a565b9150915060006119906000805160206125dd83398151915290565b6009015463ffffffff600160b01b909104811691506119b3908290849061145f16565b93506119bf818461145f565b9450505050611458565b60018360028111156119dd576119dd61201c565b1415611a19576119ec846108bf565b60030154600485015463ffffffff9182169250611a1291600160901b9091041682610a5c565b9150611458565b611a2284610853565b60030154600485015463ffffffff9182169250611a4891600160701b9091041682610a5c565b91509250929050565b6000610a6e82611a636009600a612558565b859190611484565b600080600080600080611b0a886001018054611a86906122dd565b80601f0160208091040260200160405190810160405280929190818152602001828054611ab2906122dd565b8015611aff5780601f10611ad457610100808354040283529160200191611aff565b820191906000526020600020905b815481529060010190602001808311611ae257829003601f168201915b505050505088611e04565b8a549295509093509150600160f01b900460ff1615611b51578754600090611b4090600160a81b900460ff166001838786611f60565b9650919450849350611c2392505050565b6000806000611bec8b6002018054611b68906122dd565b80601f0160208091040260200160405190810160405280929190818152602001828054611b94906122dd565b8015611be15780601f10611bb657610100808354040283529160200191611be1565b820191906000526020600020905b815481529060010190602001808311611bc457829003601f168201915b50505050508b611e04565b8d549295509093509150600090611c1090600160a81b900460ff1685848a89611f60565b9950949750909550611c23945050505050565b9250925092565b60006002826002811115611c4057611c4061201c565b1415611c4e57611c4e612372565b6000805160206125dd8339815191526000836002811115611c7157611c7161201c565b1415611cb3576004840154601382018054909162010000900461ffff16908110611c9d57611c9d61235c565b9060005260206000209060040201915050610a71565b60048401546013820180549091640100000000900461ffff16908110611c9d57611c9d61235c565b60006001826002811115611cf157611cf161201c565b14611d0f576000805160206125bd833981519152831860401c610a6e565b5050546001600160a01b031690565b8054600090600160b01b90046001600160401b03161580610a715750815442600160b01b9091046001600160401b03161192915050565b6000806000805160206125dd833981519152818080611d748782611a6b565b9250925092506000806000611d8a8a6001611a6b565b600c8a015492955090935091506000908590611db690600160401b90046001600160401b031684612448565b10158015611de35750600c8801548690611de090600160401b90046001600160401b031685612448565b10155b905086995080611df35786611df5565b835b98505050505050505050915091565b7fec7e8c1c441439dd40959777f4c577ea0cd42fcc1dbe59d2bd0f5d9c55df8dbf546040516325f69abd60e21b8152600091829182916000805160206125dd8339815191529183916001600160a01b0316906397da6af490611e6a908a90600401612564565b602060405180830381865afa158015611e87573d6000803e3d6000fd5b505050506040513d601f19601f82011682018060405250810190611eab9190612401565b90508515611f2257806001600160a01b0316633cacb3ae6040518163ffffffff1660e01b8152600401606060405180830381865afa158015611ef1573d6000803e3d6000fd5b505050506040513d601f19601f82011682018060405250810190611f159190612577565b9450945094505050611c23565b806001600160a01b03166365f5cd866040518163ffffffff1660e01b8152600401606060405180830381865afa158015611ef1573d6000803e3d6000fd5b60006000805160206125dd833981519152816009611f7e878a612448565b611f889190612448565b6009830154909150600090611fa8908690600160a81b900460ff16612448565b905080821015611fba57611fba612372565b611fda611fc782846125a5565b611fd290600a612558565b87908a611484565b9998505050505050505050565b6001600160a01b0381168114611ffc57600080fd5b50565b60006020828403121561201157600080fd5b8135610b9481611fe7565b634e487b7160e01b600052602160045260246000fd5b6005811061205057634e487b7160e01b600052602160045260246000fd5b9052565b6000815180845260005b8181101561207a5760208185018101518683018201520161205e565b8181111561208c576000602083870101525b50601f01601f19169290920160200192915050565b602081526120b3602082018351612032565b600060208301516120cf60408401826001600160a01b03169052565b5060408301516001600160a01b03811660608401525060608301516001600160a01b03811660808401525060808301516104c08060a08501526121166104e0850183612054565b915060a085015161212b60c086018215159052565b5060c085015160e085015260e0850151610100818187015280870151915050610120612161818701836001600160a01b03169052565b8601516101408681019190915286015161016080870191909152860151610180808701919091528601516101a0808701919091528601516101c0808701919091528601516101e08087019190915286015161020080870191909152860151610220808701919091528601516102408087019190915286015161026080870191909152860151610280808701919091528601516102a0808701919091528601516102c0808701919091528601516102e08087019190915286015161030080870191909152860151610320808701919091528601516103408087019190915286015161036080870191909152860151610380808701919091528601516103a0808701919091528601516103c0808701919091528601516103e08087019190915286015161040080870191909152860151610420808701919091528601516104408087019190915286015161046080870191909152860151610480808701919091528601516104a0808701919091529095015193019290925250919050565b600181811c908216806122f157607f821691505b602082108114156107a357634e487b7160e01b600052602260045260246000fd5b60006020828403121561232457600080fd5b815163ffffffff81168114610b9457600080fd5b60006020828403121561234a57600080fd5b815161ffff81168114610b9457600080fd5b634e487b7160e01b600052603260045260246000fd5b634e487b7160e01b600052600160045260246000fd5b634e487b7160e01b600052601160045260246000fd5b60008160001904831182151516156123b8576123b8612388565b500290565b60006001600160401b038083168185168083038211156123df576123df612388565b01949350505050565b6000602082840312156123fa57600080fd5b5051919050565b60006020828403121561241357600080fd5b8151610b9481611fe7565b634e487b7160e01b600052601260045260246000fd5b6000826124435761244361241e565b500490565b6000821982111561245b5761245b612388565b500190565b60008261246f5761246f61241e565b500690565b600181815b808511156124af57816000190482111561249557612495612388565b808516156124a257918102915b93841c9390800290612479565b509250929050565b6000826124c657506001610a71565b816124d357506000610a71565b81600181146124e957600281146124f35761250f565b6001915050610a71565b60ff84111561250457612504612388565b50506001821b610a71565b5060208310610133831016604e8410600b8410161715612532575081810a610a71565b61253c8383612474565b806000190482111561255057612550612388565b029392505050565b6000610a6e83836124b7565b602081526000610a6e6020830184612054565b60008060006060848603121561258c57600080fd5b8351925060208401519150604084015190509250925092565b6000828210156125b7576125b7612388565b50039056fe5bebac0595fee029d42bb673937f5f1cb81cf8641382bc17774635de9b7d7965ec7e8c1c441439dd40959777f4c577ea0cd42fcc1dbe59d2bd0f5d9c55df8db6a2646970667358221220cd1ca788c65cc2d948df9c0fad901c285c19e0f6aadcf25e8f7b748afecb118a64736f6c634300080b0033",
  "linkReferences": {},
  "deployedLinkReferences": {}
}