{
  "_format": "hh-sol-artifact-1",
  "contractName": "Challenger",
  "sourceName": "liquidator/contracts/Challenger.sol",
  "abi": [
    {
      "inputs": [
        {
          "internalType": "contract IERC3156FlashLender",
          "name": "_flashLender",
          "type": "address"
        },
        {
          "internalType": "contract IBlazeSwapRouter",
          "name": "_blazeSwap",
          "type": "address"
        }
      ],
      "stateMutability": "nonpayable",
      "type": "constructor"
    },
    {
      "inputs": [],
      "name": "blazeSwapRouter",
      "outputs": [
        {
          "internalType": "contract IBlazeSwapRouter",
          "name": "",
          "type": "address"
        }
      ],
      "stateMutability": "view",
      "type": "function"
    },
    {
      "inputs": [
        {
          "components": [
            {
              "internalType": "bytes32[]",
              "name": "merkleProof",
              "type": "bytes32[]"
            },
            {
              "components": [
                {
                  "internalType": "bytes32",
                  "name": "attestationType",
                  "type": "bytes32"
                },
                {
                  "internalType": "bytes32",
                  "name": "sourceId",
                  "type": "bytes32"
                },
                {
                  "internalType": "uint64",
                  "name": "votingRound",
                  "type": "uint64"
                },
                {
                  "internalType": "uint64",
                  "name": "lowestUsedTimestamp",
                  "type": "uint64"
                },
                {
                  "components": [
                    {
                      "internalType": "bytes32",
                      "name": "transactionId",
                      "type": "bytes32"
                    },
                    {
                      "internalType": "bytes32",
                      "name": "sourceAddressIndicator",
                      "type": "bytes32"
                    }
                  ],
                  "internalType": "struct BalanceDecreasingTransaction.RequestBody",
                  "name": "requestBody",
                  "type": "tuple"
                },
                {
                  "components": [
                    {
                      "internalType": "uint64",
                      "name": "blockNumber",
                      "type": "uint64"
                    },
                    {
                      "internalType": "uint64",
                      "name": "blockTimestamp",
                      "type": "uint64"
                    },
                    {
                      "internalType": "bytes32",
                      "name": "sourceAddressHash",
                      "type": "bytes32"
                    },
                    {
                      "internalType": "int256",
                      "name": "spentAmount",
                      "type": "int256"
                    },
                    {
                      "internalType": "bytes32",
                      "name": "standardPaymentReference",
                      "type": "bytes32"
                    }
                  ],
                  "internalType": "struct BalanceDecreasingTransaction.ResponseBody",
                  "name": "responseBody",
                  "type": "tuple"
                }
              ],
              "internalType": "struct BalanceDecreasingTransaction.Response",
              "name": "data",
              "type": "tuple"
            }
          ],
          "internalType": "struct BalanceDecreasingTransaction.Proof",
          "name": "_payment1",
          "type": "tuple"
        },
        {
          "components": [
            {
              "internalType": "bytes32[]",
              "name": "merkleProof",
              "type": "bytes32[]"
            },
            {
              "components": [
                {
                  "internalType": "bytes32",
                  "name": "attestationType",
                  "type": "bytes32"
                },
                {
                  "internalType": "bytes32",
                  "name": "sourceId",
                  "type": "bytes32"
                },
                {
                  "internalType": "uint64",
                  "name": "votingRound",
                  "type": "uint64"
                },
                {
                  "internalType": "uint64",
                  "name": "lowestUsedTimestamp",
                  "type": "uint64"
                },
                {
                  "components": [
                    {
                      "internalType": "bytes32",
                      "name": "transactionId",
                      "type": "bytes32"
                    },
                    {
                      "internalType": "bytes32",
                      "name": "sourceAddressIndicator",
                      "type": "bytes32"
                    }
                  ],
                  "internalType": "struct BalanceDecreasingTransaction.RequestBody",
                  "name": "requestBody",
                  "type": "tuple"
                },
                {
                  "components": [
                    {
                      "internalType": "uint64",
                      "name": "blockNumber",
                      "type": "uint64"
                    },
                    {
                      "internalType": "uint64",
                      "name": "blockTimestamp",
                      "type": "uint64"
                    },
                    {
                      "internalType": "bytes32",
                      "name": "sourceAddressHash",
                      "type": "bytes32"
                    },
                    {
                      "internalType": "int256",
                      "name": "spentAmount",
                      "type": "int256"
                    },
                    {
                      "internalType": "bytes32",
                      "name": "standardPaymentReference",
                      "type": "bytes32"
                    }
                  ],
                  "internalType": "struct BalanceDecreasingTransaction.ResponseBody",
                  "name": "responseBody",
                  "type": "tuple"
                }
              ],
              "internalType": "struct BalanceDecreasingTransaction.Response",
              "name": "data",
              "type": "tuple"
            }
          ],
          "internalType": "struct BalanceDecreasingTransaction.Proof",
          "name": "_payment2",
          "type": "tuple"
        },
        {
          "internalType": "address",
          "name": "_agentVault",
          "type": "address"
        }
      ],
      "name": "doublePaymentChallenge",
      "outputs": [],
      "stateMutability": "nonpayable",
      "type": "function"
    },
    {
      "inputs": [],
      "name": "flashLender",
      "outputs": [
        {
          "internalType": "contract IERC3156FlashLender",
          "name": "",
          "type": "address"
        }
      ],
      "stateMutability": "view",
      "type": "function"
    },
    {
      "inputs": [
        {
          "components": [
            {
              "internalType": "bytes32[]",
              "name": "merkleProof",
              "type": "bytes32[]"
            },
            {
              "components": [
                {
                  "internalType": "bytes32",
                  "name": "attestationType",
                  "type": "bytes32"
                },
                {
                  "internalType": "bytes32",
                  "name": "sourceId",
                  "type": "bytes32"
                },
                {
                  "internalType": "uint64",
                  "name": "votingRound",
                  "type": "uint64"
                },
                {
                  "internalType": "uint64",
                  "name": "lowestUsedTimestamp",
                  "type": "uint64"
                },
                {
                  "components": [
                    {
                      "internalType": "bytes32",
                      "name": "transactionId",
                      "type": "bytes32"
                    },
                    {
                      "internalType": "bytes32",
                      "name": "sourceAddressIndicator",
                      "type": "bytes32"
                    }
                  ],
                  "internalType": "struct BalanceDecreasingTransaction.RequestBody",
                  "name": "requestBody",
                  "type": "tuple"
                },
                {
                  "components": [
                    {
                      "internalType": "uint64",
                      "name": "blockNumber",
                      "type": "uint64"
                    },
                    {
                      "internalType": "uint64",
                      "name": "blockTimestamp",
                      "type": "uint64"
                    },
                    {
                      "internalType": "bytes32",
                      "name": "sourceAddressHash",
                      "type": "bytes32"
                    },
                    {
                      "internalType": "int256",
                      "name": "spentAmount",
                      "type": "int256"
                    },
                    {
                      "internalType": "bytes32",
                      "name": "standardPaymentReference",
                      "type": "bytes32"
                    }
                  ],
                  "internalType": "struct BalanceDecreasingTransaction.ResponseBody",
                  "name": "responseBody",
                  "type": "tuple"
                }
              ],
              "internalType": "struct BalanceDecreasingTransaction.Response",
              "name": "data",
              "type": "tuple"
            }
          ],
          "internalType": "struct BalanceDecreasingTransaction.Proof[]",
          "name": "_payments",
          "type": "tuple[]"
        },
        {
          "internalType": "address",
          "name": "_agentVault",
          "type": "address"
        }
      ],
      "name": "freeBalanceNegativeChallenge",
      "outputs": [],
      "stateMutability": "nonpayable",
      "type": "function"
    },
    {
      "inputs": [
        {
          "components": [
            {
              "internalType": "bytes32[]",
              "name": "merkleProof",
              "type": "bytes32[]"
            },
            {
              "components": [
                {
                  "internalType": "bytes32",
                  "name": "attestationType",
                  "type": "bytes32"
                },
                {
                  "internalType": "bytes32",
                  "name": "sourceId",
                  "type": "bytes32"
                },
                {
                  "internalType": "uint64",
                  "name": "votingRound",
                  "type": "uint64"
                },
                {
                  "internalType": "uint64",
                  "name": "lowestUsedTimestamp",
                  "type": "uint64"
                },
                {
                  "components": [
                    {
                      "internalType": "bytes32",
                      "name": "transactionId",
                      "type": "bytes32"
                    },
                    {
                      "internalType": "bytes32",
                      "name": "sourceAddressIndicator",
                      "type": "bytes32"
                    }
                  ],
                  "internalType": "struct BalanceDecreasingTransaction.RequestBody",
                  "name": "requestBody",
                  "type": "tuple"
                },
                {
                  "components": [
                    {
                      "internalType": "uint64",
                      "name": "blockNumber",
                      "type": "uint64"
                    },
                    {
                      "internalType": "uint64",
                      "name": "blockTimestamp",
                      "type": "uint64"
                    },
                    {
                      "internalType": "bytes32",
                      "name": "sourceAddressHash",
                      "type": "bytes32"
                    },
                    {
                      "internalType": "int256",
                      "name": "spentAmount",
                      "type": "int256"
                    },
                    {
                      "internalType": "bytes32",
                      "name": "standardPaymentReference",
                      "type": "bytes32"
                    }
                  ],
                  "internalType": "struct BalanceDecreasingTransaction.ResponseBody",
                  "name": "responseBody",
                  "type": "tuple"
                }
              ],
              "internalType": "struct BalanceDecreasingTransaction.Response",
              "name": "data",
              "type": "tuple"
            }
          ],
          "internalType": "struct BalanceDecreasingTransaction.Proof",
          "name": "_transaction",
          "type": "tuple"
        },
        {
          "internalType": "address",
          "name": "_agentVault",
          "type": "address"
        }
      ],
      "name": "illegalPaymentChallenge",
      "outputs": [],
      "stateMutability": "nonpayable",
      "type": "function"
    },
    {
      "inputs": [
        {
          "internalType": "address",
          "name": "",
          "type": "address"
        },
        {
          "internalType": "address",
          "name": "_token",
          "type": "address"
        },
        {
          "internalType": "uint256",
          "name": "_amount",
          "type": "uint256"
        },
        {
          "internalType": "uint256",
          "name": "_fee",
          "type": "uint256"
        },
        {
          "internalType": "bytes",
          "name": "_data",
          "type": "bytes"
        }
      ],
      "name": "onFlashLoan",
      "outputs": [
        {
          "internalType": "bytes32",
          "name": "",
          "type": "bytes32"
        }
      ],
      "stateMutability": "nonpayable",
      "type": "function"
    },
    {
      "inputs": [
        {
          "internalType": "address",
          "name": "_agentVault",
          "type": "address"
        },
        {
          "internalType": "address",
          "name": "_to",
          "type": "address"
        }
      ],
      "name": "runArbitrage",
      "outputs": [],
      "stateMutability": "nonpayable",
      "type": "function"
    },
    {
      "inputs": [
        {
          "internalType": "address",
          "name": "_agentVault",
          "type": "address"
        },
        {
          "internalType": "contract IERC3156FlashLender",
          "name": "_flashLender",
          "type": "address"
        },
        {
          "internalType": "contract IBlazeSwapRouter",
          "name": "_blazeSwapRouter",
          "type": "address"
        },
        {
          "internalType": "address",
          "name": "_to",
          "type": "address"
        }
      ],
      "name": "runArbitrageWithCustomParams",
      "outputs": [],
      "stateMutability": "nonpayable",
      "type": "function"
    }
  ],
  "bytecode": "0x60c06040523480156200001157600080fd5b50604051620034df380380620034df833981016040819052620000349162000065565b6001600160a01b039182166080521660a052620000a4565b6001600160a01b03811681146200006257600080fd5b50565b600080604083850312156200007957600080fd5b825162000086816200004c565b602084015190925062000099816200004c565b809150509250929050565b60805160a051613401620000de600039600081816092015261096c01526000818161011f0152818161094b01526112d501526134016000f3fe608060405234801561001057600080fd5b50600436106100885760003560e01c8063a77144581161005b578063a77144581461011a578063c4dc1e0114610141578063eb81ca6314610154578063f69c90b41461016757600080fd5b80630b1f2e641461008d57806323e30c8b146100d157806366a37046146100f25780637e7bfdc614610107575b600080fd5b6100b47f000000000000000000000000000000000000000000000000000000000000000081565b6040516001600160a01b0390911681526020015b60405180910390f35b6100e46100df366004611fab565b61017a565b6040519081526020016100c8565b61010561010036600461206e565b61034e565b005b6101056101153660046120c0565b6104da565b6100b47f000000000000000000000000000000000000000000000000000000000000000081565b61010561014f366004612146565b610669565b6101056101623660046121a2565b610895565b61010561017536600461220f565b610945565b6000600160005460ff1660028111156101955761019561223d565b14610227576040517f08c379a000000000000000000000000000000000000000000000000000000000815260206004820152602d60248201527f4c697175696461746f723a20466c617368206c6f616e207769746820696e766160448201527f6c696420696e69746961746f720000000000000000000000000000000000000060648201526084015b60405180910390fd5b600080547fffffffffffffffffffffffffffffffffffffffffffffffffffffffffffffff00166002178155808080806102628888018961226c565b9450945094509450945061027b8a868d87878787610995565b6001600160a01b038b1663095ea7b3336102958c8e61230c565b6040517fffffffff0000000000000000000000000000000000000000000000000000000060e085901b1681526001600160a01b03909216600483015260248201526044016020604051808303816000875af11580156102f8573d6000803e3d6000fd5b505050506040513d601f19601f8201168201806040525081019061031c9190612334565b507f439148f0bbc682ca079e46d6e2c2f0c1e3b820f1a291b069d8882abf8cf18dd99c9b505050505050505050505050565b6000816001600160a01b03166394217ad16040518163ffffffff1660e01b8152600401602060405180830381865afa15801561038e573d6000803e3d6000fd5b505050506040513d601f19601f820116820180604052508101906103b2919061234f565b6040517f66a370460000000000000000000000000000000000000000000000000000000081529091506001600160a01b038216906366a37046906103fc90869086906004016124e3565b600060405180830381600087803b15801561041657600080fd5b505af115801561042a573d6000803e3d6000fd5b50506040517ff69c90b40000000000000000000000000000000000000000000000000000000081526001600160a01b038516600482015233602482015230925063f69c90b49150604401600060405180830381600087803b15801561048e57600080fd5b505af192505050801561049f575060015b6104d5573d8080156104cd576040519150601f19603f3d011682016040523d82523d6000602084013e6104d2565b606091505b50505b505050565b6000816001600160a01b03166394217ad16040518163ffffffff1660e01b8152600401602060405180830381865afa15801561051a573d6000803e3d6000fd5b505050506040513d601f19601f8201168201806040525081019061053e919061234f565b6040517f7e7bfdc60000000000000000000000000000000000000000000000000000000081529091506001600160a01b03821690637e7bfdc69061058a9087908790879060040161250e565b600060405180830381600087803b1580156105a457600080fd5b505af11580156105b8573d6000803e3d6000fd5b50506040517ff69c90b40000000000000000000000000000000000000000000000000000000081526001600160a01b038516600482015233602482015230925063f69c90b49150604401600060405180830381600087803b15801561061c57600080fd5b505af192505050801561062d575060015b610663573d80801561065b576040519150601f19603f3d011682016040523d82523d6000602084013e610660565b606091505b50505b50505050565b6000846001600160a01b03166394217ad16040518163ffffffff1660e01b8152600401602060405180830381865afa1580156106a9573d6000803e3d6000fd5b505050506040513d601f19601f820116820180604052508101906106cd919061234f565b6040517fe1c501000000000000000000000000000000000000000000000000000000000081526001600160a01b0387811660048301529192509082169063e1c501009060240160408051808303816000875af1158015610731573d6000803e3d6000fd5b505050506040513d601f19601f8201168201806040525081019061075591906125de565b50506000610764868587610c7e565b905061076f81611159565b60a08101516040517f70a082310000000000000000000000000000000000000000000000000000000081523060048201526000916001600160a01b0316906370a0823190602401602060405180830381865afa1580156107d3573d6000803e3d6000fd5b505050506040513d601f19601f820116820180604052508101906107f7919061260a565b60a08301516040517fa9059cbb0000000000000000000000000000000000000000000000000000000081526001600160a01b0387811660048301526024820184905292935091169063a9059cbb906044016020604051808303816000875af1158015610867573d6000803e3d6000fd5b505050506040513d601f19601f8201168201806040525081019061088b9190612334565b5050505050505050565b6000816001600160a01b03166394217ad16040518163ffffffff1660e01b8152600401602060405180830381865afa1580156108d5573d6000803e3d6000fd5b505050506040513d601f19601f820116820180604052508101906108f9919061234f565b6040517feb81ca630000000000000000000000000000000000000000000000000000000081529091506001600160a01b0382169063eb81ca639061058a90879087908790600401612623565b610991827f00000000000000000000000000000000000000000000000000000000000000007f000000000000000000000000000000000000000000000000000000000000000084610669565b5050565b6040517f095ea7b30000000000000000000000000000000000000000000000000000000081526001600160a01b038281166004830152602482018990526060919087169063095ea7b3906044016020604051808303816000875af1158015610a01573d6000803e3d6000fd5b505050506040513d601f19601f82011682018060405250810190610a259190612334565b50816001600160a01b03166338ed1739896000610a428a8c61160e565b30426040518663ffffffff1660e01b8152600401610a64959493929190612662565b6000604051808303816000875af1158015610a83573d6000803e3d6000fd5b505050506040513d6000823e601f3d908101601f19168201604052610aab919081019061281a565b9050809150506000846001600160a01b031663bcbaf4878584600181518110610ad657610ad661287e565b60200260200101516040518363ffffffff1660e01b8152600401610b0f9291906001600160a01b03929092168252602082015260400190565b6060604051808303816000875af1158015610b2e573d6000803e3d6000fd5b505050506040513d601f19601f82011682018060405250810190610b5291906128ad565b92505081159050610c73576040517f095ea7b30000000000000000000000000000000000000000000000000000000081526001600160a01b0384811660048301526024820183905287169063095ea7b3906044016020604051808303816000875af1158015610bc5573d6000803e3d6000fd5b505050506040513d601f19601f82011682018060405250810190610be99190612334565b50826001600160a01b03166338ed1739826000610c068a8c61160e565b30426040518663ffffffff1660e01b8152600401610c28959493929190612662565b6000604051808303816000875af1158015610c47573d6000803e3d6000fd5b505050506040513d6000823e601f3d908101601f19168201604052610c6f919081019061281a565b9250505b505050505050505050565b610d60604051806102a0016040528060006001600160a01b0316815260200160006001600160a01b0316815260200160006001600160a01b0316815260200160006001600160a01b0316815260200160006001600160a01b0316815260200160006001600160a01b0316815260200160006001600160a01b0316815260200160008152602001600081526020016000815260200160008152602001600081526020016000815260200160008152602001600081526020016000815260200160008152602001600081526020016000815260200160008152602001600081525090565b6000846001600160a01b03166394217ad16040518163ffffffff1660e01b8152600401602060405180830381865afa158015610da0573d6000803e3d6000fd5b505050506040513d601f19601f82011682018060405250810190610dc4919061234f565b6040517f152052b00000000000000000000000000000000000000000000000000000000081526001600160a01b03878116600483015291925060009183169063152052b090602401600060405180830381865afa158015610e29573d6000803e3d6000fd5b505050506040513d6000823e601f3d908101601f19168201604052610e51919081019061297d565b90506000826001600160a01b03166385b4bb536040518163ffffffff1660e01b8152600401600060405180830381865afa158015610e93573d6000803e3d6000fd5b505050506040513d6000823e601f3d908101601f19168201604052610ebb9190810190612c12565b6001600160a01b038085168087528982166020808901919091528983166040808a019190915289841660608a015281850151841660808a015261010087015190931660a089015282517fb5a488a60000000000000000000000000000000000000000000000000000000081529251939450909263b5a488a69260048082019392918290030181865afa158015610f55573d6000803e3d6000fd5b505050506040513d601f19601f82011682018060405250810190610f79919061234f565b6001600160a01b0390811660c08601526101808381015160e08701526101e08401516101008701526103a08401516101208701526103c08401516101408701526103e084015161016087015261028083015167ffffffffffffffff169086015260a085015160808601516040517fd52bb6f40000000000000000000000000000000000000000000000000000000081529183166004830152821660248201529087169063d52bb6f4906044016040805180830381865afa158015611041573d6000803e3d6000fd5b505050506040513d601f19601f82011682018060405250810190611065919061303a565b6101c08601526101a085015260c084015160a08501516040517fd52bb6f40000000000000000000000000000000000000000000000000000000081526001600160a01b03928316600482015290821660248201529087169063d52bb6f4906044016040805180830381865afa1580156110e2573d6000803e3d6000fd5b505050506040513d601f19601f82011682018060405250810190611106919061303a565b6102008601526101e08501528351610180820151608086015160a087015160c0880151611136949392919061169c565b610280880152610260870152610240860152610220850152509195945050505050565b6000805460ff1660028111156111715761117161223d565b146111d8576040517f08c379a000000000000000000000000000000000000000000000000000000000815260206004820152601e60248201527f4c697175696461746f723a205265656e7472616e637920626c6f636b65640000604482015260640161021e565b600080547fffffffffffffffffffffffffffffffffffffffffffffffffffffffffffffff00166001179055610120810151611295576040517f08c379a000000000000000000000000000000000000000000000000000000000815260206004820152602360248201527f4c697175696461746f723a204e6f20662d617373657420746f206c697175696460448201527f6174650000000000000000000000000000000000000000000000000000000000606482015260840161021e565b60a08101516040517f613255ab0000000000000000000000000000000000000000000000000000000081526001600160a01b0391821660048201526000917f0000000000000000000000000000000000000000000000000000000000000000169063613255ab90602401602060405180830381865afa15801561131c573d6000803e3d6000fd5b505050506040513d601f19601f82011682018060405250810190611340919061260a565b9050600081116113d2576040517f08c379a000000000000000000000000000000000000000000000000000000000815260206004820152602260248201527f4c697175696461746f723a20466c617368206c6f616e20756e617661696c616260448201527f6c65000000000000000000000000000000000000000000000000000000000000606482015260840161021e565b60006113dd8361197a565b905060008111611449576040517f08c379a000000000000000000000000000000000000000000000000000000000815260206004820152601f60248201527f4c697175696461746f723a204e6f2070726f66697420617661696c61626c6500604482015260640161021e565b82606001516001600160a01b0316635cffe9de308560a0015161146c86866119f6565b608088015160c089015189516020808c01516040808e015190516114c096959493016001600160a01b0395861681529385166020850152918416604084015283166060830152909116608082015260a00190565b6040516020818303038152906040526040518563ffffffff1660e01b81526004016114ee949392919061308a565b6020604051808303816000875af115801561150d573d6000803e3d6000fd5b505050506040513d601f19601f820116820180604052508101906115319190612334565b506002915061153d9050565b60005460ff1660028111156115545761155461223d565b146115e357604080517f08c379a00000000000000000000000000000000000000000000000000000000081526020600482015260248101919091527f4c697175696461746f723a205265656e7472616e637920626c6f636b6564206f60448201527f7220666c617368206c6f616e207265636569766572206e6f742063616c6c6564606482015260840161021e565b50600080547fffffffffffffffffffffffffffffffffffffffffffffffffffffffffffffff00169055565b6040805160028082526060808301845292600092919060208301908036833701905050905083816000815181106116475761164761287e565b60200260200101906001600160a01b031690816001600160a01b031681525050828160018151811061167b5761167b61287e565b6001600160a01b039092166020928302919091019091015290505b92915050565b60008060008060006116af8a8888611a0e565b90506000886001600160a01b031663313ce5676040518163ffffffff1660e01b8152600401602060405180830381865afa1580156116f1573d6000803e3d6000fd5b505050506040513d601f19601f8201168201806040525081019061171591906130bc565b82516040517f524f388900000000000000000000000000000000000000000000000000000000815291925060009182916001600160a01b038e169163524f388991611762916004016130d7565b606060405180830381865afa15801561177f573d6000803e3d6000fd5b505050506040513d601f19601f820116820180604052508101906117a391906128ad565b92505091506000808d6001600160a01b031663524f388987602001516040518263ffffffff1660e01b81526004016117db91906130d7565b606060405180830381865afa1580156117f8573d6000803e3d6000fd5b505050506040513d601f19601f8201168201806040525081019061181c91906128ad565b92505091506118968560ff1684868f6001600160a01b031663313ce5676040518163ffffffff1660e01b8152600401602060405180830381865afa158015611868573d6000803e3d6000fd5b505050506040513d601f19601f8201168201806040525081019061188c91906130bc565b60ff168587611b5d565b809a50819b50505050506000808d6001600160a01b031663524f388987604001516040518263ffffffff1660e01b81526004016118d391906130d7565b606060405180830381865afa1580156118f0573d6000803e3d6000fd5b505050506040513d601f19601f8201168201806040525081019061191491906128ad565b92505091506119608560ff1684868e6001600160a01b031663313ce5676040518163ffffffff1660e01b8152600401602060405180830381865afa158015611868573d6000803e3d6000fd5b809850819950505050505050505095509550955095915050565b60008061198683611bad565b905060006119bb6119b06119a584876101a00151886101c00151611d38565b866101800151611d87565b8561012001516119f6565b905080156119eb576119e66119db82866101a00151876101c00151611db9565b856101a001516119f6565b6119ee565b60005b949350505050565b6000818310611a055781611a07565b825b9392505050565b611a3260405180606001604052806060815260200160608152602001606081525090565b6040517f4610bc230000000000000000000000000000000000000000000000000000000081526000906001600160a01b03861690634610bc2390611a7d9060029088906004016130ea565b600060405180830381865afa158015611a9a573d6000803e3d6000fd5b505050506040513d6000823e601f3d908101601f19168201604052611ac2919081019061314c565b90506000856001600160a01b0316634610bc236001866040518363ffffffff1660e01b8152600401611af59291906130ea565b600060405180830381865afa158015611b12573d6000803e3d6000fd5b505050506040513d6000823e601f3d908101601f19168201604052611b3a919081019061314c565b60a0830151845260c0928301516020850152909101516040830152509392505050565b600080611b6a848661230c565b611b7590600a613367565b611b7f9087613373565b611b89888a61230c565b611b9490600a613367565b611b9e9085613373565b91509150965096945050505050565b6000816101e001516103e8836101a001516103e5611bcb9190613373565b611bd591906133b9565b611bdf9190613373565b9050611bea81611e0d565b90506000826101e00151836102400151846102200151612710866101400151876101c00151611c199190613373565b611c2391906133b9565b611c2d9190613373565b611c3791906133b9565b611c419190613373565b905060008361020001516103e8856102800151866102600151612710886101600151896101c00151611c739190613373565b611c7d91906133b9565b611c879190613373565b611c9191906133b9565b611c9d906103e5613373565b611ca791906133b9565b611cb19190613373565b9050611cc5611cc0828461230c565b611e0d565b611ccf9084613373565b925050506000826101e00151836101a00151611ceb9190613373565b9050818110611cfd5750600092915050565b611d0781836133cd565b9150611d1790506103e882613373565b9050611d256103e5826133b9565b9050816101e001518161169691906133b9565b600080611d47856103e5613373565b90506000611d558483613373565b9050600082611d66876103e8613373565b611d70919061230c565b9050611d7c81836133b9565b979650505050505050565b600080611d9483856133e0565b90508015611db15780611da7848661230c565b6119e691906133cd565b509192915050565b600080611dc68585613373565b611dd2906103e8613373565b90506000611de086856133cd565b611dec906103e5613373565b9050611df881836133b9565b611e0390600161230c565b9695505050505050565b600081600003611e1f57506000919050565b8160017001000000000000000000000000000000008210611e455760809190911c9060401b5b680100000000000000008210611e605760409190911c9060201b5b6401000000008210611e775760209190911c9060101b5b620100008210611e8c5760109190911c9060081b5b6101008210611ea05760089190911c9060041b5b60108210611eb35760049190911c9060021b5b60088210611ebf5760011b5b6001818581611ed057611ed061338a565b048201901c90506001818581611ee857611ee861338a565b048201901c90506001818581611f0057611f0061338a565b048201901c90506001818581611f1857611f1861338a565b048201901c90506001818581611f3057611f3061338a565b048201901c90506001818581611f4857611f4861338a565b048201901c90506001818581611f6057611f6061338a565b048201901c90506000818581611f7857611f7861338a565b049050808210611f885780611f8a565b815b95945050505050565b6001600160a01b0381168114611fa857600080fd5b50565b60008060008060008060a08789031215611fc457600080fd5b8635611fcf81611f93565b95506020870135611fdf81611f93565b94506040870135935060608701359250608087013567ffffffffffffffff8082111561200a57600080fd5b818901915089601f83011261201e57600080fd5b81358181111561202d57600080fd5b8a602082850101111561203f57600080fd5b6020830194508093505050509295509295509295565b6000610180828403121561206857600080fd5b50919050565b6000806040838503121561208157600080fd5b823567ffffffffffffffff81111561209857600080fd5b6120a485828601612055565b92505060208301356120b581611f93565b809150509250929050565b6000806000604084860312156120d557600080fd5b833567ffffffffffffffff808211156120ed57600080fd5b818601915086601f83011261210157600080fd5b81358181111561211057600080fd5b8760208260051b850101111561212557600080fd5b6020928301955093505084013561213b81611f93565b809150509250925092565b6000806000806080858703121561215c57600080fd5b843561216781611f93565b9350602085013561217781611f93565b9250604085013561218781611f93565b9150606085013561219781611f93565b939692955090935050565b6000806000606084860312156121b757600080fd5b833567ffffffffffffffff808211156121cf57600080fd5b6121db87838801612055565b945060208601359150808211156121f157600080fd5b506121fe86828701612055565b925050604084013561213b81611f93565b6000806040838503121561222257600080fd5b823561222d81611f93565b915060208301356120b581611f93565b7f4e487b7100000000000000000000000000000000000000000000000000000000600052602160045260246000fd5b600080600080600060a0868803121561228457600080fd5b853561228f81611f93565b9450602086013561229f81611f93565b935060408601356122af81611f93565b925060608601356122bf81611f93565b915060808601356122cf81611f93565b809150509295509295909350565b7f4e487b7100000000000000000000000000000000000000000000000000000000600052601160045260246000fd5b80820180821115611696576116966122dd565b8051801515811461232f57600080fd5b919050565b60006020828403121561234657600080fd5b611a078261231f565b60006020828403121561236157600080fd5b8151611a0781611f93565b67ffffffffffffffff81168114611fa857600080fd5b600061018082357fffffffffffffffffffffffffffffffffffffffffffffffffffffffffffffffe18436030181126123b957600080fd5b830160208101903567ffffffffffffffff808211156123d757600080fd5b8160051b8036038413156123ea57600080fd5b84885282858901526101a094507f07ffffffffffffffffffffffffffffffffffffffffffffffffffffffffffffff83111561242457600080fd5b8084868a013760208701356020890152604087013560408901526060870135935061244e8461236c565b92811660608801526080860135926124658461236c565b818416608089015260a087013560a089015260c087013560c089015260e087013593506124918461236c565b92811660e0880152610100928684013592506124ac8361236c565b9116918601919091526101208481013590860152610140808501359086015261016093840135938501939093529190920101919050565b6040815260006124f66040830185612382565b90506001600160a01b03831660208301529392505050565b6040808252810183905260006060600585901b830181019083018683805b888110156125ae577fffffffffffffffffffffffffffffffffffffffffffffffffffffffffffffffa087860301845282357ffffffffffffffffffffffffffffffffffffffffffffffffffffffffffffffe818b360301811261258c578283fd5b612598868c8301612382565b955050602093840193929092019160010161252c565b50505050809150506001600160a01b0383166020830152949350505050565b805160ff8116811461232f57600080fd5b600080604083850312156125f157600080fd5b6125fa836125cd565b9150602083015190509250929050565b60006020828403121561261c57600080fd5b5051919050565b6060815260006126366060830186612382565b82810360208401526126488186612382565b9150506001600160a01b0383166040830152949350505050565b600060a082018783526020878185015260a0604085015281875180845260c086019150828901935060005b818110156126b25784516001600160a01b03168352938301939183019160010161268d565b50506001600160a01b03969096166060850152505050608001529392505050565b7f4e487b7100000000000000000000000000000000000000000000000000000000600052604160045260246000fd5b604051610500810167ffffffffffffffff81118282101715612726576127266126d3565b60405290565b604051610640810167ffffffffffffffff81118282101715612726576127266126d3565b604051610140810167ffffffffffffffff81118282101715612726576127266126d3565b604051601f8201601f1916810167ffffffffffffffff8111828210171561279d5761279d6126d3565b604052919050565b600082601f8301126127b657600080fd5b8151602067ffffffffffffffff8211156127d2576127d26126d3565b8160051b6127e1828201612774565b92835284810182019282810190878511156127fb57600080fd5b83870192505b84831015611d7c57825182529183019190830190612801565b6000806040838503121561282d57600080fd5b825167ffffffffffffffff8082111561284557600080fd5b612851868387016127a5565b9350602085015191508082111561286757600080fd5b50612874858286016127a5565b9150509250929050565b7f4e487b7100000000000000000000000000000000000000000000000000000000600052603260045260246000fd5b6000806000606084860312156128c257600080fd5b8351925060208401519150604084015190509250925092565b80516005811061232f57600080fd5b805161232f81611f93565b60005b838110156129105781810151838201526020016128f8565b50506000910152565b600082601f83011261292a57600080fd5b815167ffffffffffffffff811115612944576129446126d3565b6129576020601f19601f84011601612774565b81815284602083860101111561296c57600080fd5b6119ee8260208301602087016128f5565b60006020828403121561298f57600080fd5b815167ffffffffffffffff808211156129a757600080fd5b9083019061050082860312156129bc57600080fd5b6129c4612702565b6129cd836128db565b81526129db602084016128ea565b60208201526129ec604084016128ea565b60408201526129fd606084016128ea565b6060820152608083015182811115612a1457600080fd5b612a2087828601612919565b608083015250612a3260a0840161231f565b60a082015260c083015160c082015260e083015160e08201526101009150612a5b8284016128ea565b9181019190915261012082810151908201526101408083015190820152610160808301519082015261018080830151908201526101a080830151908201526101c080830151908201526101e08083015190820152610200808301519082015261022080830151908201526102408083015190820152610260808301519082015261028080830151908201526102a080830151908201526102c080830151908201526102e08083015190820152610300808301519082015261032080830151908201526103408083015190820152610360808301519082015261038080830151908201526103a080830151908201526103c080830151908201526103e08083015190820152610400808301519082015261042080830151908201526104408083015190820152610460808301519082015261048080830151908201526104a080830151908201526104c080830151908201526104e091820151918101919091529392505050565b805163ffffffff8116811461232f57600080fd5b805161ffff8116811461232f57600080fd5b805161232f8161236c565b80516fffffffffffffffffffffffffffffffff8116811461232f57600080fd5b600060208284031215612c2457600080fd5b815167ffffffffffffffff80821115612c3c57600080fd5b908301906106408286031215612c5157600080fd5b612c5961272c565b612c62836128ea565b8152612c70602084016128ea565b6020820152612c81604084016128ea565b6040820152612c92606084016128ea565b6060820152612ca3608084016128ea565b608082015260a083015182811115612cba57600080fd5b612cc687828601612919565b60a083015250612cd860c084016128ea565b60c0820152612ce960e084016128ea565b60e08201526101009150612cfe8284016128ea565b828201526101209150612d128284016128ea565b828201526101409150612d268284016128ea565b828201526101609150612d3a8284016128ea565b828201526101809150612d4e8284016128ea565b828201526101a09150612d628284016125cd565b828201526101c09150612d768284016125cd565b828201526101e0915081830151828201526102009150612d97828401612bc1565b828201526102209150612dab828401612bc1565b828201526102409150612dbf828401612bd5565b828201526102609150612dd3828401612be7565b828201526102809150612de7828401612be7565b828201526102a09150612dfb828401612be7565b828201526102c09150612e0f828401612bd5565b828201526102e09150612e2382840161231f565b828201526103009150612e37828401612be7565b828201526103209150612e4b828401612be7565b828201526103409150612e5f828401612be7565b828201526103609150612e73828401612bd5565b828201526103809150612e87828401612bc1565b828201526103a09150612e9b828401612bc1565b828201526103c09150612eaf828401612be7565b828201526103e09150612ec3828401612bf2565b828201526104009150612ed7828401612bd5565b828201526104209150612eeb828401612bd5565b828201526104409150612eff828401612bf2565b828201526104609150612f13828401612be7565b828201526104809150612f27828401612be7565b828201526104a09150612f3b828401612be7565b828201526104c09150612f4f828401612be7565b828201526104e09150612f63828401612be7565b828201526105009150612f77828401612be7565b828201526105209150612f8b828401612be7565b828201526105409150612f9f828401612be7565b828201526105609150612fb3828401612bc1565b828201526105809150612fc7828401612be7565b828201526105a09150612fdb828401612be7565b828201526105c09150612fef828401612be7565b828201526105e09150613003828401612be7565b828201526106009150613017828401612be7565b82820152610620915061302b828401612bc1565b91810191909152949350505050565b6000806040838503121561304d57600080fd5b505080516020909101519092909150565b600081518084526130768160208601602086016128f5565b601f01601f19169290920160200192915050565b60006001600160a01b03808716835280861660208401525083604083015260806060830152611e03608083018461305e565b6000602082840312156130ce57600080fd5b611a07826125cd565b602081526000611a07602083018461305e565b6040810160038410613125577f4e487b7100000000000000000000000000000000000000000000000000000000600052602160045260246000fd5b9281526001600160a01b039190911660209091015290565b80516003811061232f57600080fd5b60006020828403121561315e57600080fd5b815167ffffffffffffffff8082111561317657600080fd5b90830190610140828603121561318b57600080fd5b613193612750565b61319c8361313d565b81526131aa602084016128ea565b602082015260408301516040820152606083015160608201526131cf6080840161231f565b608082015260a0830151828111156131e657600080fd5b6131f287828601612919565b60a08301525060c08301518281111561320a57600080fd5b61321687828601612919565b60c08301525060e0838101519082015261010080840151908201526101209283015192810192909252509392505050565b600181815b808511156132a057817fffffffffffffffffffffffffffffffffffffffffffffffffffffffffffffffff04821115613286576132866122dd565b8085161561329357918102915b93841c939080029061324c565b509250929050565b6000826132b757506001611696565b816132c457506000611696565b81600181146132da57600281146132e457613300565b6001915050611696565b60ff8411156132f5576132f56122dd565b50506001821b611696565b5060208310610133831016604e8410600b8410161715613323575081810a611696565b61332d8383613247565b807fffffffffffffffffffffffffffffffffffffffffffffffffffffffffffffffff0482111561335f5761335f6122dd565b029392505050565b6000611a0783836132a8565b8082028115828204841417611696576116966122dd565b7f4e487b7100000000000000000000000000000000000000000000000000000000600052601260045260246000fd5b6000826133c8576133c861338a565b500490565b81810381811115611696576116966122dd565b6000826133ef576133ef61338a565b50069056fea164736f6c6343000814000a",
  "linkReferences": {},
  "deployedLinkReferences": {}
}