{
  "_format": "hh-sol-artifact-1",
  "contractName": "CollateralPool",
  "sourceName": "contracts/assetManager/implementation/CollateralPool.sol",
  "abi": [
    {
      "inputs": [
        {
          "internalType": "address",
          "name": "_agentVault",
          "type": "address"
        },
        {
          "internalType": "address",
          "name": "_assetManager",
          "type": "address"
        },
        {
          "internalType": "address",
          "name": "_fAsset",
          "type": "address"
        },
        {
          "internalType": "uint32",
          "name": "_exitCollateralRatioBIPS",
          "type": "uint32"
        },
        {
          "internalType": "uint32",
          "name": "_topupCollateralRatioBIPS",
          "type": "uint32"
        },
        {
          "internalType": "uint16",
          "name": "_topupTokenPriceFactorBIPS",
          "type": "uint16"
        }
      ],
      "stateMutability": "nonpayable",
      "type": "constructor"
    },
    {
      "anonymous": false,
      "inputs": [
        {
          "indexed": false,
          "internalType": "address",
          "name": "previousAdmin",
          "type": "address"
        },
        {
          "indexed": false,
          "internalType": "address",
          "name": "newAdmin",
          "type": "address"
        }
      ],
      "name": "AdminChanged",
      "type": "event"
    },
    {
      "anonymous": false,
      "inputs": [
        {
          "indexed": true,
          "internalType": "address",
          "name": "beacon",
          "type": "address"
        }
      ],
      "name": "BeaconUpgraded",
      "type": "event"
    },
    {
      "anonymous": false,
      "inputs": [
        {
          "indexed": false,
          "internalType": "uint256",
          "name": "amountNatWei",
          "type": "uint256"
        },
        {
          "indexed": false,
          "internalType": "uint8",
          "name": "rewardType",
          "type": "uint8"
        }
      ],
      "name": "ClaimedReward",
      "type": "event"
    },
    {
      "anonymous": false,
      "inputs": [
        {
          "indexed": true,
          "internalType": "address",
          "name": "donator",
          "type": "address"
        },
        {
          "indexed": false,
          "internalType": "uint256",
          "name": "amountNatWei",
          "type": "uint256"
        }
      ],
      "name": "Donated",
      "type": "event"
    },
    {
      "anonymous": false,
      "inputs": [
        {
          "indexed": true,
          "internalType": "address",
          "name": "tokenHolder",
          "type": "address"
        },
        {
          "indexed": false,
          "internalType": "uint256",
          "name": "amountNatWei",
          "type": "uint256"
        },
        {
          "indexed": false,
          "internalType": "uint256",
          "name": "receivedTokensWei",
          "type": "uint256"
        },
        {
          "indexed": false,
          "internalType": "uint256",
          "name": "addedFAssetFeesUBA",
          "type": "uint256"
        },
        {
          "indexed": false,
          "internalType": "uint256",
          "name": "newFAssetFeeDebt",
          "type": "uint256"
        },
        {
          "indexed": false,
          "internalType": "uint256",
          "name": "timelockExpiresAt",
          "type": "uint256"
        }
      ],
      "name": "Entered",
      "type": "event"
    },
    {
      "anonymous": false,
      "inputs": [
        {
          "indexed": true,
          "internalType": "address",
          "name": "tokenHolder",
          "type": "address"
        },
        {
          "indexed": false,
          "internalType": "uint256",
          "name": "burnedTokensWei",
          "type": "uint256"
        },
        {
          "indexed": false,
          "internalType": "uint256",
          "name": "receivedNatWei",
          "type": "uint256"
        },
        {
          "indexed": false,
          "internalType": "uint256",
          "name": "receviedFAssetFeesUBA",
          "type": "uint256"
        },
        {
          "indexed": false,
          "internalType": "uint256",
          "name": "closedFAssetsUBA",
          "type": "uint256"
        },
        {
          "indexed": false,
          "internalType": "uint256",
          "name": "newFAssetFeeDebt",
          "type": "uint256"
        }
      ],
      "name": "Exited",
      "type": "event"
    },
    {
      "anonymous": false,
      "inputs": [
        {
          "indexed": false,
          "internalType": "uint256",
          "name": "burnedTokensWei",
          "type": "uint256"
        },
        {
          "indexed": false,
          "internalType": "uint256",
          "name": "redeemedFAssetUBA",
          "type": "uint256"
        }
      ],
      "name": "IncompleteSelfCloseExit",
      "type": "event"
    },
    {
      "anonymous": false,
      "inputs": [
        {
          "indexed": true,
          "internalType": "address",
          "name": "recipient",
          "type": "address"
        },
        {
          "indexed": false,
          "internalType": "uint256",
          "name": "paidNatWei",
          "type": "uint256"
        },
        {
          "indexed": false,
          "internalType": "uint256",
          "name": "burnedTokensWei",
          "type": "uint256"
        }
      ],
      "name": "PaidOut",
      "type": "event"
    },
    {
      "anonymous": false,
      "inputs": [
        {
          "indexed": true,
          "internalType": "address",
          "name": "implementation",
          "type": "address"
        }
      ],
      "name": "Upgraded",
      "type": "event"
    },
    {
      "inputs": [],
      "name": "MIN_NAT_BALANCE_AFTER_EXIT",
      "outputs": [
        {
          "internalType": "uint256",
          "name": "",
          "type": "uint256"
        }
      ],
      "stateMutability": "view",
      "type": "function"
    },
    {
      "inputs": [],
      "name": "MIN_NAT_TO_ENTER",
      "outputs": [
        {
          "internalType": "uint256",
          "name": "",
          "type": "uint256"
        }
      ],
      "stateMutability": "view",
      "type": "function"
    },
    {
      "inputs": [],
      "name": "MIN_TOKEN_SUPPLY_AFTER_EXIT",
      "outputs": [
        {
          "internalType": "uint256",
          "name": "",
          "type": "uint256"
        }
      ],
      "stateMutability": "view",
      "type": "function"
    },
    {
      "inputs": [],
      "name": "agentVault",
      "outputs": [
        {
          "internalType": "address",
          "name": "",
          "type": "address"
        }
      ],
      "stateMutability": "view",
      "type": "function"
    },
    {
      "inputs": [],
      "name": "assetManager",
      "outputs": [
        {
          "internalType": "contract IIAssetManager",
          "name": "",
          "type": "address"
        }
      ],
      "stateMutability": "view",
      "type": "function"
    },
    {
      "inputs": [
        {
          "internalType": "contract IDistributionToDelegators",
          "name": "_distribution",
          "type": "address"
        },
        {
          "internalType": "uint256",
          "name": "_month",
          "type": "uint256"
        }
      ],
      "name": "claimAirdropDistribution",
      "outputs": [
        {
          "internalType": "uint256",
          "name": "",
          "type": "uint256"
        }
      ],
      "stateMutability": "nonpayable",
      "type": "function"
    },
    {
      "inputs": [
        {
          "internalType": "contract IRewardManager",
          "name": "_rewardManager",
          "type": "address"
        },
        {
          "internalType": "uint24",
          "name": "_lastRewardEpoch",
          "type": "uint24"
        },
        {
          "components": [
            {
              "internalType": "bytes32[]",
              "name": "merkleProof",
              "type": "bytes32[]"
            },
            {
              "components": [
                {
                  "internalType": "uint24",
                  "name": "rewardEpochId",
                  "type": "uint24"
                },
                {
                  "internalType": "bytes20",
                  "name": "beneficiary",
                  "type": "bytes20"
                },
                {
                  "internalType": "uint120",
                  "name": "amount",
                  "type": "uint120"
                },
                {
                  "internalType": "enum RewardsV2Interface.ClaimType",
                  "name": "claimType",
                  "type": "uint8"
                }
              ],
              "internalType": "struct RewardsV2Interface.RewardClaim",
              "name": "body",
              "type": "tuple"
            }
          ],
          "internalType": "struct RewardsV2Interface.RewardClaimWithProof[]",
          "name": "_proofs",
          "type": "tuple[]"
        }
      ],
      "name": "claimDelegationRewards",
      "outputs": [
        {
          "internalType": "uint256",
          "name": "",
          "type": "uint256"
        }
      ],
      "stateMutability": "nonpayable",
      "type": "function"
    },
    {
      "inputs": [
        {
          "internalType": "address",
          "name": "_account",
          "type": "address"
        }
      ],
      "name": "debtFreeTokensOf",
      "outputs": [
        {
          "internalType": "uint256",
          "name": "",
          "type": "uint256"
        }
      ],
      "stateMutability": "view",
      "type": "function"
    },
    {
      "inputs": [
        {
          "internalType": "address",
          "name": "_account",
          "type": "address"
        }
      ],
      "name": "debtLockedTokensOf",
      "outputs": [
        {
          "internalType": "uint256",
          "name": "",
          "type": "uint256"
        }
      ],
      "stateMutability": "view",
      "type": "function"
    },
    {
      "inputs": [
        {
          "internalType": "address",
          "name": "_to",
          "type": "address"
        },
        {
          "internalType": "uint256",
          "name": "_bips",
          "type": "uint256"
        }
      ],
      "name": "delegate",
      "outputs": [],
      "stateMutability": "nonpayable",
      "type": "function"
    },
    {
      "inputs": [
        {
          "internalType": "address",
          "name": "_to",
          "type": "address"
        }
      ],
      "name": "delegateGovernance",
      "outputs": [],
      "stateMutability": "nonpayable",
      "type": "function"
    },
    {
      "inputs": [],
      "name": "depositNat",
      "outputs": [],
      "stateMutability": "payable",
      "type": "function"
    },
    {
      "inputs": [
        {
          "internalType": "address payable",
          "name": "_recipient",
          "type": "address"
        }
      ],
      "name": "destroy",
      "outputs": [],
      "stateMutability": "nonpayable",
      "type": "function"
    },
    {
      "inputs": [],
      "name": "donateNat",
      "outputs": [],
      "stateMutability": "payable",
      "type": "function"
    },
    {
      "inputs": [
        {
          "internalType": "uint256",
          "name": "_fAssets",
          "type": "uint256"
        },
        {
          "internalType": "bool",
          "name": "_enterWithFullFAssets",
          "type": "bool"
        }
      ],
      "name": "enter",
      "outputs": [
        {
          "internalType": "uint256",
          "name": "",
          "type": "uint256"
        },
        {
          "internalType": "uint256",
          "name": "",
          "type": "uint256"
        }
      ],
      "stateMutability": "payable",
      "type": "function"
    },
    {
      "inputs": [
        {
          "internalType": "uint256",
          "name": "_tokenShare",
          "type": "uint256"
        },
        {
          "internalType": "enum ICollateralPool.TokenExitType",
          "name": "_exitType",
          "type": "uint8"
        }
      ],
      "name": "exit",
      "outputs": [
        {
          "internalType": "uint256",
          "name": "",
          "type": "uint256"
        },
        {
          "internalType": "uint256",
          "name": "",
          "type": "uint256"
        }
      ],
      "stateMutability": "nonpayable",
      "type": "function"
    },
    {
      "inputs": [],
      "name": "exitCollateralRatioBIPS",
      "outputs": [
        {
          "internalType": "uint32",
          "name": "",
          "type": "uint32"
        }
      ],
      "stateMutability": "view",
      "type": "function"
    },
    {
      "inputs": [
        {
          "internalType": "uint256",
          "name": "_tokenShare",
          "type": "uint256"
        },
        {
          "internalType": "address payable",
          "name": "_recipient",
          "type": "address"
        },
        {
          "internalType": "enum ICollateralPool.TokenExitType",
          "name": "_exitType",
          "type": "uint8"
        }
      ],
      "name": "exitTo",
      "outputs": [
        {
          "internalType": "uint256",
          "name": "",
          "type": "uint256"
        },
        {
          "internalType": "uint256",
          "name": "",
          "type": "uint256"
        }
      ],
      "stateMutability": "nonpayable",
      "type": "function"
    },
    {
      "inputs": [],
      "name": "fAsset",
      "outputs": [
        {
          "internalType": "contract IFAsset",
          "name": "",
          "type": "address"
        }
      ],
      "stateMutability": "view",
      "type": "function"
    },
    {
      "inputs": [
        {
          "internalType": "address",
          "name": "_account",
          "type": "address"
        }
      ],
      "name": "fAssetFeeDebtOf",
      "outputs": [
        {
          "internalType": "uint256",
          "name": "",
          "type": "uint256"
        }
      ],
      "stateMutability": "view",
      "type": "function"
    },
    {
      "inputs": [
        {
          "internalType": "uint256",
          "name": "_amount",
          "type": "uint256"
        }
      ],
      "name": "fAssetFeeDeposited",
      "outputs": [],
      "stateMutability": "nonpayable",
      "type": "function"
    },
    {
      "inputs": [
        {
          "internalType": "address",
          "name": "_account",
          "type": "address"
        }
      ],
      "name": "fAssetFeesOf",
      "outputs": [
        {
          "internalType": "uint256",
          "name": "",
          "type": "uint256"
        }
      ],
      "stateMutability": "view",
      "type": "function"
    },
    {
      "inputs": [
        {
          "internalType": "uint256",
          "name": "_tokenAmountWei",
          "type": "uint256"
        }
      ],
      "name": "fAssetRequiredForSelfCloseExit",
      "outputs": [
        {
          "internalType": "uint256",
          "name": "",
          "type": "uint256"
        }
      ],
      "stateMutability": "view",
      "type": "function"
    },
    {
      "inputs": [],
      "name": "implementation",
      "outputs": [
        {
          "internalType": "address",
          "name": "",
          "type": "address"
        }
      ],
      "stateMutability": "view",
      "type": "function"
    },
    {
      "inputs": [
        {
          "internalType": "address",
          "name": "_agentVault",
          "type": "address"
        },
        {
          "internalType": "address",
          "name": "_assetManager",
          "type": "address"
        },
        {
          "internalType": "address",
          "name": "_fAsset",
          "type": "address"
        },
        {
          "internalType": "uint32",
          "name": "_exitCollateralRatioBIPS",
          "type": "uint32"
        },
        {
          "internalType": "uint32",
          "name": "_topupCollateralRatioBIPS",
          "type": "uint32"
        },
        {
          "internalType": "uint16",
          "name": "_topupTokenPriceFactorBIPS",
          "type": "uint16"
        }
      ],
      "name": "initialize",
      "outputs": [],
      "stateMutability": "nonpayable",
      "type": "function"
    },
    {
      "inputs": [
        {
          "internalType": "contract IDistributionToDelegators",
          "name": "_distribution",
          "type": "address"
        }
      ],
      "name": "optOutOfAirdrop",
      "outputs": [],
      "stateMutability": "nonpayable",
      "type": "function"
    },
    {
      "inputs": [
        {
          "internalType": "uint256",
          "name": "_fAssets",
          "type": "uint256"
        }
      ],
      "name": "payFAssetFeeDebt",
      "outputs": [],
      "stateMutability": "nonpayable",
      "type": "function"
    },
    {
      "inputs": [
        {
          "internalType": "address",
          "name": "_recipient",
          "type": "address"
        },
        {
          "internalType": "uint256",
          "name": "_amount",
          "type": "uint256"
        },
        {
          "internalType": "uint256",
          "name": "_agentResponsibilityWei",
          "type": "uint256"
        }
      ],
      "name": "payout",
      "outputs": [],
      "stateMutability": "nonpayable",
      "type": "function"
    },
    {
      "inputs": [],
      "name": "poolToken",
      "outputs": [
        {
          "internalType": "contract ICollateralPoolToken",
          "name": "",
          "type": "address"
        }
      ],
      "stateMutability": "view",
      "type": "function"
    },
    {
      "inputs": [],
      "name": "proxiableUUID",
      "outputs": [
        {
          "internalType": "bytes32",
          "name": "",
          "type": "bytes32"
        }
      ],
      "stateMutability": "view",
      "type": "function"
    },
    {
      "inputs": [
        {
          "internalType": "address",
          "name": "_who",
          "type": "address"
        },
        {
          "internalType": "uint256",
          "name": "_blockNumber",
          "type": "uint256"
        }
      ],
      "name": "revokeDelegationAt",
      "outputs": [],
      "stateMutability": "nonpayable",
      "type": "function"
    },
    {
      "inputs": [
        {
          "internalType": "uint256",
          "name": "_tokenShare",
          "type": "uint256"
        },
        {
          "internalType": "bool",
          "name": "_redeemToCollateral",
          "type": "bool"
        },
        {
          "internalType": "string",
          "name": "_redeemerUnderlyingAddress",
          "type": "string"
        },
        {
          "internalType": "address payable",
          "name": "_executor",
          "type": "address"
        }
      ],
      "name": "selfCloseExit",
      "outputs": [],
      "stateMutability": "payable",
      "type": "function"
    },
    {
      "inputs": [
        {
          "internalType": "uint256",
          "name": "_tokenShare",
          "type": "uint256"
        },
        {
          "internalType": "bool",
          "name": "_redeemToCollateral",
          "type": "bool"
        },
        {
          "internalType": "address payable",
          "name": "_recipient",
          "type": "address"
        },
        {
          "internalType": "string",
          "name": "_redeemerUnderlyingAddress",
          "type": "string"
        },
        {
          "internalType": "address payable",
          "name": "_executor",
          "type": "address"
        }
      ],
      "name": "selfCloseExitTo",
      "outputs": [],
      "stateMutability": "payable",
      "type": "function"
    },
    {
      "inputs": [
        {
          "internalType": "uint256",
          "name": "_exitCollateralRatioBIPS",
          "type": "uint256"
        }
      ],
      "name": "setExitCollateralRatioBIPS",
      "outputs": [],
      "stateMutability": "nonpayable",
      "type": "function"
    },
    {
      "inputs": [
        {
          "internalType": "address",
          "name": "_poolToken",
          "type": "address"
        }
      ],
      "name": "setPoolToken",
      "outputs": [],
      "stateMutability": "nonpayable",
      "type": "function"
    },
    {
      "inputs": [
        {
          "internalType": "uint256",
          "name": "_topupCollateralRatioBIPS",
          "type": "uint256"
        }
      ],
      "name": "setTopupCollateralRatioBIPS",
      "outputs": [],
      "stateMutability": "nonpayable",
      "type": "function"
    },
    {
      "inputs": [
        {
          "internalType": "uint256",
          "name": "_topupTokenPriceFactorBIPS",
          "type": "uint256"
        }
      ],
      "name": "setTopupTokenPriceFactorBIPS",
      "outputs": [],
      "stateMutability": "nonpayable",
      "type": "function"
    },
    {
      "inputs": [
        {
          "internalType": "bytes4",
          "name": "_interfaceId",
          "type": "bytes4"
        }
      ],
      "name": "supportsInterface",
      "outputs": [
        {
          "internalType": "bool",
          "name": "",
          "type": "bool"
        }
      ],
      "stateMutability": "pure",
      "type": "function"
    },
    {
      "inputs": [],
      "name": "token",
      "outputs": [
        {
          "internalType": "contract IICollateralPoolToken",
          "name": "",
          "type": "address"
        }
      ],
      "stateMutability": "view",
      "type": "function"
    },
    {
      "inputs": [],
      "name": "topupCollateralRatioBIPS",
      "outputs": [
        {
          "internalType": "uint32",
          "name": "",
          "type": "uint32"
        }
      ],
      "stateMutability": "view",
      "type": "function"
    },
    {
      "inputs": [],
      "name": "topupTokenPriceFactorBIPS",
      "outputs": [
        {
          "internalType": "uint16",
          "name": "",
          "type": "uint16"
        }
      ],
      "stateMutability": "view",
      "type": "function"
    },
    {
      "inputs": [],
      "name": "totalCollateral",
      "outputs": [
        {
          "internalType": "uint256",
          "name": "",
          "type": "uint256"
        }
      ],
      "stateMutability": "view",
      "type": "function"
    },
    {
      "inputs": [],
      "name": "totalFAssetFeeDebt",
      "outputs": [
        {
          "internalType": "uint256",
          "name": "",
          "type": "uint256"
        }
      ],
      "stateMutability": "view",
      "type": "function"
    },
    {
      "inputs": [],
      "name": "totalFAssetFees",
      "outputs": [
        {
          "internalType": "uint256",
          "name": "",
          "type": "uint256"
        }
      ],
      "stateMutability": "view",
      "type": "function"
    },
    {
      "inputs": [],
      "name": "undelegateAll",
      "outputs": [],
      "stateMutability": "nonpayable",
      "type": "function"
    },
    {
      "inputs": [],
      "name": "undelegateGovernance",
      "outputs": [],
      "stateMutability": "nonpayable",
      "type": "function"
    },
    {
      "inputs": [
        {
          "internalType": "address",
          "name": "newImplementation",
          "type": "address"
        }
      ],
      "name": "upgradeTo",
      "outputs": [],
      "stateMutability": "nonpayable",
      "type": "function"
    },
    {
      "inputs": [
        {
          "internalType": "address",
          "name": "newImplementation",
          "type": "address"
        },
        {
          "internalType": "bytes",
          "name": "data",
          "type": "bytes"
        }
      ],
      "name": "upgradeToAndCall",
      "outputs": [],
      "stateMutability": "payable",
      "type": "function"
    },
    {
      "inputs": [
        {
          "internalType": "contract IWNat",
          "name": "_newWNat",
          "type": "address"
        }
      ],
      "name": "upgradeWNatContract",
      "outputs": [],
      "stateMutability": "nonpayable",
      "type": "function"
    },
    {
      "inputs": [
        {
          "internalType": "address",
          "name": "_account",
          "type": "address"
        }
      ],
      "name": "virtualFAssetOf",
      "outputs": [
        {
          "internalType": "uint256",
          "name": "",
          "type": "uint256"
        }
      ],
      "stateMutability": "view",
      "type": "function"
    },
    {
      "inputs": [],
      "name": "wNat",
      "outputs": [
        {
          "internalType": "contract IWNat",
          "name": "",
          "type": "address"
        }
      ],
      "stateMutability": "view",
      "type": "function"
    },
    {
      "inputs": [
        {
          "internalType": "uint256",
          "name": "_fAssets",
          "type": "uint256"
        }
      ],
      "name": "withdrawFees",
      "outputs": [],
      "stateMutability": "nonpayable",
      "type": "function"
    },
    {
      "inputs": [
        {
          "internalType": "uint256",
          "name": "_fAssets",
          "type": "uint256"
        },
        {
          "internalType": "address",
          "name": "_recipient",
          "type": "address"
        }
      ],
      "name": "withdrawFeesTo",
      "outputs": [],
      "stateMutability": "nonpayable",
      "type": "function"
    },
    {
      "stateMutability": "payable",
      "type": "receive"
    }
  ],
  "bytecode": "0x60a0604052306080523480156200001557600080fd5b50604051620059f7380380620059f783398101604081905262000038916200022c565b6200004886868686868662000054565b505050505050620002e6565b600454600160f81b900460ff1615620000b35760405162461bcd60e51b815260206004820152601360248201527f616c726561647920696e697469616c697a656400000000000000000000000000604482015260640160405180910390fd5b600480546001600160f81b0316600160f81b179055600080546001600160a01b038089166001600160a01b0319928316179092556001805488841690831681179091556002805493881693909216929092179055620001145760006200018e565b600160009054906101000a90046001600160a01b03166001600160a01b031663b5a488a66040518163ffffffff1660e01b8152600401602060405180830381865afa15801562000168573d6000803e3d6000fd5b505050506040513d601f19601f820116820180604052508101906200018e9190620002bf565b6004805461ffff909316600160e01b0261ffff60e01b1963ffffffff958616600160c01b021665ffffffffffff60c01b1995909616600160a01b026001600160c01b03199094166001600160a01b039390931692909217929092179290921692909217179055505050565b6001600160a01b03811681146200020f57600080fd5b50565b805163ffffffff811681146200022757600080fd5b919050565b60008060008060008060c087890312156200024657600080fd5b86516200025381620001f9565b60208801519096506200026681620001f9565b60408801519095506200027981620001f9565b9350620002896060880162000212565b9250620002996080880162000212565b915060a087015161ffff81168114620002b157600080fd5b809150509295509295509295565b600060208284031215620002d257600080fd5b8151620002df81620001f9565b9392505050565b6080516156d96200031e60003960008181610f0301528181610f43015281816110ca0152818161110a015261118601526156d96000f3fe60806040526004361061031d5760003560e01c806387a2a0dc116101ab578063c1b0bbf8116100f7578063e4df73f011610095578063ee781db01161006f578063ee781db01461093f578063f4d000b21461095f578063fc0c546a1461097f578063fd86d3ea1461099f57600080fd5b8063e4df73f0146108ec578063e6916906146108ff578063eaf413fd1461091f57600080fd5b8063cb209413116100d1578063cb2094131461087a578063cbabdf39146108b0578063cbdf382c146108c6578063d1b8890e146108e457600080fd5b8063c1b0bbf814610832578063c79d245d14610852578063c93e29d01461087257600080fd5b8063a854a6a211610164578063b302f3931161013e578063b302f393146107d9578063b337929b146107ee578063b9e26483146103f0578063bbd6fbf81461081257600080fd5b8063a854a6a214610786578063ac3736c1146107a6578063adf58c15146107b957600080fd5b806387a2a0dc146106db57806388985cd6146106f0578063923f89321461071057806394217ad1146107265780639a4247e6146107465780639edbf0071461076657600080fd5b80634ac8eb5f1161026a578063787b9ca81161022357806380f13ee9116101fd57806380f13ee914610668578063815ea9d61461067b578063868c3ba71461069b57806386ac57a2146106bb57600080fd5b8063787b9ca8146106085780637a68a508146106285780637c7db1a51461064857600080fd5b80634ac8eb5f1461055d5780634f1ef2861461057357806352d1902d1461058657806359c3d5491461059b5780635c60da1b146105bb5780635e318e07146105e857600080fd5b80631b92d84a116102d75780633659cfe6116102b15780633659cfe6146104af5780633cfc747d146104cf578063406c7007146105085780634a4ac2ef1461052857600080fd5b80631b92d84a1461043a5780632f35eac21461045a57806333ce01fd1461048f57600080fd5b8062f55d9d1461037b57806301ffc9a71461039b578063026e402b146103d05780630ac07344146103f05780630dc1e5e1146103f057806315e2bfba1461041a57600080fd5b3661037657600454600160f01b900460ff166103745760405162461bcd60e51b81526020600482015260116024820152706f6e6c7920696e7465726e616c2075736560781b60448201526064015b60405180910390fd5b005b600080fd5b34801561038757600080fd5b50610374610396366004614b97565b6109bf565b3480156103a757600080fd5b506103bb6103b6366004614bb4565b610c5a565b60405190151581526020015b60405180910390f35b3480156103dc57600080fd5b506103746103eb366004614bde565b610cac565b3480156103fc57600080fd5b5061040c670de0b6b3a764000081565b6040519081526020016103c7565b34801561042657600080fd5b5061040c610435366004614b97565b610d3e565b34801561044657600080fd5b5061040c610455366004614c0a565b610dd4565b34801561046657600080fd5b5061047a610475366004614c37565b610e32565b604080519283526020830191909152016103c7565b34801561049b57600080fd5b506103746104aa366004614b97565b610e5b565b3480156104bb57600080fd5b506103746104ca366004614b97565b610ef9565b3480156104db57600080fd5b506004546104f390600160a01b900463ffffffff1681565b60405163ffffffff90911681526020016103c7565b34801561051457600080fd5b5061040c610523366004614bde565b610fbe565b34801561053457600080fd5b5060045461054a90600160e01b900461ffff1681565b60405161ffff90911681526020016103c7565b34801561056957600080fd5b5061040c60085481565b610374610581366004614cef565b6110c0565b34801561059257600080fd5b5061040c611179565b3480156105a757600080fd5b5061040c6105b6366004614d66565b61122c565b3480156105c757600080fd5b506105d061132d565b6040516001600160a01b0390911681526020016103c7565b3480156105f457600080fd5b50610374610603366004614c0a565b61133c565b34801561061457600080fd5b50610374610623366004614c0a565b611356565b34801561063457600080fd5b50610374610643366004614b97565b6113fa565b34801561065457600080fd5b506002546105d0906001600160a01b031681565b610374610676366004614e27565b6114ea565b34801561068757600080fd5b506000546105d0906001600160a01b031681565b3480156106a757600080fd5b506103746106b6366004614ea8565b611507565b3480156106c757600080fd5b506103746106d6366004614b97565b611521565b3480156106e757600080fd5b50610374611581565b3480156106fc57600080fd5b5061037461070b366004614c0a565b611665565b34801561071c57600080fd5b5061040c60065481565b34801561073257600080fd5b506001546105d0906001600160a01b031681565b34801561075257600080fd5b50610374610761366004614c0a565b61174c565b34801561077257600080fd5b506004546105d0906001600160a01b031681565b34801561079257600080fd5b506103746107a1366004614c0a565b611822565b61047a6107b4366004614ed8565b611866565b3480156107c557600080fd5b506103746107d4366004614efd565b611d23565b3480156107e557600080fd5b50610374611f6e565b3480156107fa57600080fd5b506004546104f390600160c01b900463ffffffff1681565b34801561081e57600080fd5b5061037461082d366004614bde565b611fd6565b34801561083e57600080fd5b5061040c61084d366004614b97565b612036565b34801561085e57600080fd5b5061040c61086d366004614b97565b61204d565b610374612064565b34801561088657600080fd5b5061040c610895366004614b97565b6001600160a01b031660009081526005602052604090205490565b3480156108bc57600080fd5b5061040c60075481565b3480156108d257600080fd5b506003546001600160a01b03166105d0565b610374612145565b6103746108fa366004614f32565b612179565b34801561090b57600080fd5b5061037461091a366004614fb2565b612196565b34801561092b57600080fd5b5061047a61093a366004615037565b612327565b34801561094b57600080fd5b5061037461095a366004614c0a565b612351565b34801561096b57600080fd5b5061037461097a366004614b97565b612597565b34801561098b57600080fd5b506003546105d0906001600160a01b031681565b3480156109ab57600080fd5b5061040c6109ba366004614b97565b6127b7565b6001546001600160a01b031633146109e95760405162461bcd60e51b815260040161036b90615075565b6109f16127ce565b600360009054906101000a90046001600160a01b03166001600160a01b03166318160ddd6040518163ffffffff1660e01b8152600401602060405180830381865afa158015610a44573d6000803e3d6000fd5b505050506040513d601f19601f82011682018060405250810190610a6891906150a1565b15610ac65760405162461bcd60e51b815260206004820152602860248201527f63616e6e6f742064657374726f79206120706f6f6c20776974682069737375656044820152676420746f6b656e7360c01b606482015260840161036b565b60035460405162f55d9d60e01b81526001600160a01b0383811660048301529091169062f55d9d90602401600060405180830381600087803b158015610b0b57600080fd5b505af1158015610b1f573d6000803e3d6000fd5b50505050610b2d8147612847565b600480546040516370a0823160e01b815230928101929092526000916001600160a01b03909116906370a0823190602401602060405180830381865afa158015610b7b573d6000803e3d6000fd5b505050506040513d601f19601f82011682018060405250810190610b9f91906150a1565b6002546040516370a0823160e01b81523060048201529192506000916001600160a01b03909116906370a0823190602401602060405180830381865afa158015610bed573d6000803e3d6000fd5b505050506040513d601f19601f82011682018060405250810190610c1191906150a1565b90508115610c3057600454610c30906001600160a01b031684846128f0565b8015610c4d57600254610c4d906001600160a01b031684836128f0565b5050610c57612942565b50565b60006001600160e01b031982166301ffc9a760e01b1480610c8b57506001600160e01b0319821663982c94a560e01b145b80610ca657506001600160e01b031982166350eb34e160e11b145b92915050565b610cb533612968565b610cd15760405162461bcd60e51b815260040161036b906150ba565b6004805460405163026e402b60e01b81526001600160a01b03858116938201939093526024810184905291169063026e402b906044015b600060405180830381600087803b158015610d2257600080fd5b505af1158015610d36573d6000803e3d6000fd5b505050505050565b600080610d496129e2565b6003546040516370a0823160e01b81526001600160a01b038681166004830152929350610dcd92909116906370a0823190602401602060405180830381865afa158015610d9a573d6000803e3d6000fd5b505050506040513d601f19601f82011682018060405250810190610dbe91906150a1565b610dc88386612bd2565b612cd8565b9392505050565b600080610ddf6129e2565b90506000610e008483602001518460600151612cf29092919063ffffffff16565b90506000610e0e8383612e18565b90506000610e1c8433612e9b565b9050610e288282612cd8565b9695505050505050565b600080610e3d6127ce565b610e48843385612ee4565b91509150610e54612942565b9250929050565b6001546001600160a01b03163314610e855760405162461bcd60e51b815260040161036b90615075565b6003546001600160a01b031615610ed75760405162461bcd60e51b81526020600482015260166024820152751c1bdbdb081d1bdad95b88185b1c9958591e481cd95d60521b604482015260640161036b565b600380546001600160a01b0319166001600160a01b0392909216919091179055565b6001600160a01b037f0000000000000000000000000000000000000000000000000000000000000000163003610f415760405162461bcd60e51b815260040161036b906150de565b7f00000000000000000000000000000000000000000000000000000000000000006001600160a01b0316610f7361331c565b6001600160a01b031614610f995760405162461bcd60e51b815260040161036b9061512a565b610fa281613338565b60408051600080825260208201909252610c5791839190613362565b6000610fc933612968565b610fe55760405162461bcd60e51b815260040161036b906150ba565b60405163596090c960e11b81523060048201819052602482015260448101839052600160648201526000906001600160a01b0385169063b2c12192906084016020604051808303816000875af1158015611043573d6000803e3d6000fd5b505050506040513d601f19601f8201168201806040525081019061106791906150a1565b9050806008600082825461107b919061518c565b909155505060408051828152600060208201527f1a53692b4ecb924a87c6d9eae27be062cc1005b4c2d41cc35d8b59dbd6f4ba1b910160405180910390a19392505050565b6001600160a01b037f00000000000000000000000000000000000000000000000000000000000000001630036111085760405162461bcd60e51b815260040161036b906150de565b7f00000000000000000000000000000000000000000000000000000000000000006001600160a01b031661113a61331c565b6001600160a01b0316146111605760405162461bcd60e51b815260040161036b9061512a565b61116982613338565b61117582826001613362565b5050565b6000306001600160a01b037f000000000000000000000000000000000000000000000000000000000000000016146112195760405162461bcd60e51b815260206004820152603860248201527f555550535570677261646561626c653a206d757374206e6f742062652063616c60448201527f6c6564207468726f7567682064656c656761746563616c6c0000000000000000606482015260840161036b565b5060008051602061563d83398151915290565b600061123733612968565b6112535760405162461bcd60e51b815260040161036b906150ba565b604051638e33aba560e01b81526000906001600160a01b03871690638e33aba59061128d90309081908a906001908b908b90600401615232565b6020604051808303816000875af11580156112ac573d6000803e3d6000fd5b505050506040513d601f19601f820116820180604052508101906112d091906150a1565b905080600860008282546112e4919061518c565b909155505060408051828152600160208201527f1a53692b4ecb924a87c6d9eae27be062cc1005b4c2d41cc35d8b59dbd6f4ba1b910160405180910390a190505b949350505050565b600061133761331c565b905090565b6113446127ce565b61134e81336134cd565b610c57612942565b6001546001600160a01b031633146113805760405162461bcd60e51b815260040161036b90615075565b600454600160c01b900463ffffffff1681116113ce5760405162461bcd60e51b815260206004820152600d60248201526c76616c756520746f6f206c6f7760981b604482015260640161036b565b6113d7816135f1565b600460146101000a81548163ffffffff021916908363ffffffff16021790555050565b61140333612968565b61141f5760405162461bcd60e51b815260040161036b906150ba565b6004805460408051638c2b8ae160e01b815290516001600160a01b0390921692638c2b8ae19282820192602092908290030181865afa158015611466573d6000803e3d6000fd5b505050506040513d601f19601f8201168201806040525081019061148a919061534c565b6040516317066a5760e21b81526001600160a01b0383811660048301529190911690635c19a95c90602401600060405180830381600087803b1580156114cf57600080fd5b505af11580156114e3573d6000803e3d6000fd5b5050505050565b6114f26127ce565b6114ff858585858561365a565b6114e3612942565b61150f6127ce565b61151982826134cd565b611175612942565b61152a33612968565b6115465760405162461bcd60e51b815260040161036b906150ba565b806001600160a01b031663f2a1f7676040518163ffffffff1660e01b8152600401600060405180830381600087803b1580156114cf57600080fd5b61158a33612968565b6115a65760405162461bcd60e51b815260040161036b906150ba565b6004805460408051638c2b8ae160e01b815290516001600160a01b0390921692638c2b8ae19282820192602092908290030181865afa1580156115ed573d6000803e3d6000fd5b505050506040513d601f19601f82011682018060405250810190611611919061534c565b6001600160a01b03166392ab89bb6040518163ffffffff1660e01b8152600401600060405180830381600087803b15801561164b57600080fd5b505af115801561165f573d6000803e3d6000fd5b50505050565b6001546001600160a01b0316331461168f5760405162461bcd60e51b815260040161036b90615075565b600454600160a01b900463ffffffff1681106116de5760405162461bcd60e51b815260206004820152600e60248201526d0ecc2d8eaca40e8dede40d0d2ced60931b604482015260640161036b565b600081116117205760405162461bcd60e51b815260206004820152600f60248201526e6d757374206265206e6f6e7a65726f60881b604482015260640161036b565b611729816135f1565b600460186101000a81548163ffffffff021916908363ffffffff16021790555050565b6001546001600160a01b031633146117765760405162461bcd60e51b815260040161036b90615075565b61271081106117b85760405162461bcd60e51b815260206004820152600e60248201526d0ecc2d8eaca40e8dede40d0d2ced60931b604482015260640161036b565b600081116117fa5760405162461bcd60e51b815260206004820152600f60248201526e6d757374206265206e6f6e7a65726f60881b604482015260640161036b565b61180381613f08565b6004601c6101000a81548161ffff021916908361ffff16021790555050565b6001546001600160a01b0316331461184c5760405162461bcd60e51b815260040161036b90615075565b806007600082825461185e919061518c565b909155505050565b6000806118716127ce565b600061187b6129e2565b9050670de0b6b3a76400003410156118d55760405162461bcd60e51b815260206004820152601d60248201527f616d6f756e74206f66206e61742073656e7420697320746f6f206c6f77000000604482015260640161036b565b8060200151600003611a365780606001513410156119815760405162461bcd60e51b815260206004820152606060248201527f696620706f6f6c20686173206e6f20746f6b656e732c2062757420686f6c647360448201527f20636f6c6c61746572616c2c20796f75206e65656420746f2073656e6420617460648201527f206c65617374207468617420616d6f756e74206f6620636f6c6c61746572616c608482015260a40161036b565b60c081015160e0820151608083015161199b929091612cf2565b341015611a365760405162461bcd60e51b815260206004820152605f60248201527f496620706f6f6c20686173206e6f20746f6b656e732c2062757420686f6c647360448201527f20662d61737365742c20796f75206e65656420746f2073656e64206174206c6560648201527f61737420662d617373657420776f727468206f6620636f6c6c61746572616c00608482015260a40161036b565b6000611a428234613f6b565b9050600080836020015111611a58576000611a6d565b602083015160a0840151611a6d918490612cf2565b9050600086611a8557611a8088836140be565b611a87565b815b90508015611baf576002546040516352adac0760e11b81526000916001600160a01b03169063a55b580e90611ac490339030908790600401615369565b6040805180830381865afa158015611ae0573d6000803e3d6000fd5b505050506040513d601f19601f82011682018060405250810190611b04919061538d565b9150611b129050818361518c565b600254604051636eb1769f60e11b81523360048201523060248201526001600160a01b039091169063dd62ed3e90604401602060405180830381865afa158015611b60573d6000803e3d6000fd5b505050506040513d601f19601f82011682018060405250810190611b8491906150a1565b1015611ba25760405162461bcd60e51b815260040161036b906153b1565b611bad3330846140d4565b505b611bc233611bbd83856153e8565b6141f0565b611bca61423a565b6001546000546004805460405163053fe26160e31b81526001600160a01b0393841692810192909252821660248201529116906329ff130890604401600060405180830381600087803b158015611c2057600080fd5b505af1158015611c34573d6000803e3d6000fd5b50506003546040516340c10f1960e01b815233600482015260248101879052600093506001600160a01b0390911691506340c10f19906044016020604051808303816000875af1158015611c8c573d6000803e3d6000fd5b505050506040513d601f19601f82011682018060405250810190611cb091906150a1565b33600081815260056020908152604091829020548251348152918201899052818301879052606082015260808101849052905192935090917f8837aea61d24df2daef4ee681be933e5ea5c7ebe3cde964adef015dad51fe7859181900360a00190a2929550919350505050610e54612942565b6001546001600160a01b03163314611d4d5760405162461bcd60e51b815260040161036b90615075565b611d556127ce565b6000611d5f6129e2565b9050611d6b848461429c565b600354600080546040516370a0823160e01b81526001600160a01b039182166004820152919216906370a0823190602401602060405180830381865afa158015611db9573d6000803e3d6000fd5b505050506040513d601f19601f82011682018060405250810190611ddd91906150a1565b9050600080836060015111611df25781611e07565b60608301516020840151611e07918690612cf2565b90506000611e1582846140be565b90508015611f195760008054611e389086906001600160a01b03168460026142d0565b50600054909150611e52906001600160a01b031682614458565b6003546000546040516376fd4fdf60e01b81526001600160a01b03928316926376fd4fdf92611e8b9291169086906001906004016153fb565b600060405180830381600087803b158015611ea557600080fd5b505af1158015611eb9573d6000803e3d6000fd5b5050600080546001600160a01b031680825260056020908152604080842054815189815292830185905290820184905260608201939093526080810192909252925060008051602061565d833981519152915060a00160405180910390a2505b60408051878152602081018390526001600160a01b038916917f7ca7469714f3e1d8732b3a67b0599fba3be82b826137fcfa805c19afc2b20aeb910160405180910390a250505050611f69612942565b505050565b611f7733612968565b611f935760405162461bcd60e51b815260040161036b906150ba565b600480546040805163b302f39360e01b815290516001600160a01b039092169263b302f39392828201926000929082900301818387803b15801561164b57600080fd5b611fdf33612968565b611ffb5760405162461bcd60e51b815260040161036b906150ba565b6004805460405163177adf7f60e31b81526001600160a01b03858116938201939093526024810184905291169063bbd6fbf890604401610d08565b6000806120416129e2565b9050610dcd8184612e9b565b6000806120586129e2565b9050610dcd8184612bd2565b670de0b6b3a76400003410158015612089575060646008546120869190615434565b34105b6121065760405162461bcd60e51b815260206004820152604260248201527f646f6e6174696f6e206d757374206265206265747765656e2031204e4154206160448201527f6e64203125206f662074686520746f74616c20706f6f6c20636f6c6c61746572606482015261185b60f21b608482015260a40161036b565b61210e61423a565b60405134815233907f2a01595cddf097c90216094025db714da3f4e5bd8877b56ba86a24ecead8e5439060200160405180910390a2565b6001546001600160a01b0316331461216f5760405162461bcd60e51b815260040161036b90615075565b61217761423a565b565b6121816127ce565b61218e848433858561365a565b61165f612942565b600454600160f81b900460ff16156121e65760405162461bcd60e51b8152602060048201526013602482015272185b1c9958591e481a5b9a5d1a585b1a5e9959606a1b604482015260640161036b565b600480546001600160f81b0316600160f81b179055600080546001600160a01b038089166001600160a01b03199283161790925560018054888416908316811790915560028054938816939092169290921790556122455760006122bc565b600160009054906101000a90046001600160a01b03166001600160a01b031663b5a488a66040518163ffffffff1660e01b8152600401602060405180830381865afa158015612298573d6000803e3d6000fd5b505050506040513d601f19601f820116820180604052508101906122bc919061534c565b6004805461ffff909316600160e01b0261ffff60e01b1963ffffffff958616600160c01b021665ffffffffffff60c01b1995909616600160a01b026001600160c01b03199094166001600160a01b039390931692909217929092179290921692909217179055505050565b6000806123326127ce565b61233d858585612ee4565b91509150612349612942565b935093915050565b6123596127ce565b806000036123a95760405162461bcd60e51b815260206004820152601960248201527f7a65726f20662d61737365742064656274207061796d656e7400000000000000604482015260640161036b565b336000908152600560205260409020548111156124085760405162461bcd60e51b815260206004820152601e60248201527f6465627420662d61737365742062616c616e636520746f6f20736d616c6c0000604482015260640161036b565b6002546040516352adac0760e11b81526000916001600160a01b03169063a55b580e9061243d90339030908790600401615369565b6040805180830381865afa158015612459573d6000803e3d6000fd5b505050506040513d601f19601f8201168201806040525081019061247d919061538d565b915061248b9050818361518c565b600254604051636eb1769f60e11b81523360048201523060248201526001600160a01b039091169063dd62ed3e90604401602060405180830381865afa1580156124d9573d6000803e3d6000fd5b505050506040513d601f19601f820116820180604052508101906124fd91906150a1565b101561251b5760405162461bcd60e51b815260040161036b906153b1565b6125253383614458565b6125303330846140d4565b336000818152600560209081526040808320548151848152928301849052908201869052606082015260808101919091527f8837aea61d24df2daef4ee681be933e5ea5c7ebe3cde964adef015dad51fe7859060a00160405180910390a250610c57612942565b6001546001600160a01b031633146125c15760405162461bcd60e51b815260040161036b90615075565b6125c96127ce565b6004546001600160a01b0382811691161461134e57600480546040516370a0823160e01b815230928101929092526000916001600160a01b03909116906370a0823190602401602060405180830381865afa15801561262c573d6000803e3d6000fd5b505050506040513d601f19601f8201168201806040525081019061265091906150a1565b6004805460ff60f01b198116600160f01b178255604051632e1a7d4d60e01b81529293506001600160a01b031691632e1a7d4d916126949185910190815260200190565b600060405180830381600087803b1580156126ae57600080fd5b505af11580156126c2573d6000803e3d6000fd5b50506004805460ff60f01b1916815560408051630d0e30db60e41b815290516001600160a01b038716945063d0e30db09350859282810192600092919082900301818588803b15801561271457600080fd5b505af1158015612728573d6000803e3d6000fd5b5050600480546001600160a01b0319166001600160a01b03878116918217835560015460005460405163053fe26160e31b81529083169481019490945260248401929092521693506329ff130892506044019050600060405180830381600087803b15801561279657600080fd5b505af11580156127aa573d6000803e3d6000fd5b5050505050610c57612942565b6000806127c26129e2565b9050610dcd8184614499565b7f0cd2207518cd3e5213e2c6dbe63d55b60aa893c194a427b7d7f1600408fd5bde8054600119016128415760405162461bcd60e51b815260206004820152601f60248201527f5265656e7472616e637947756172643a207265656e7472616e742063616c6c00604482015260640161036b565b60029055565b61284f614534565b8015611175576000826001600160a01b031682620186a090604051600060405180830381858888f193505050503d80600081146128a8576040519150601f19603f3d011682016040523d82523d6000602084013e6128ad565b606091505b5050905080611f695760405162461bcd60e51b815260206004820152600f60248201526e1d1c985b9cd9995c8819985a5b1959608a1b604482015260640161036b565b604080516001600160a01b038416602482015260448082018490528251808303909101815260649091019091526020810180516001600160e01b031663a9059cbb60e01b179052611f699084906145a5565b60017f0cd2207518cd3e5213e2c6dbe63d55b60aa893c194a427b7d7f1600408fd5bde55565b6001546000805460405163d6b93a9f60e01b81526001600160a01b03918216600482015284821660248201529192169063d6b93a9f90604401602060405180830381865afa1580156129be573d6000803e3d6000fd5b505050506040513d601f19601f82011682018060405250810190610ca69190615448565b612a2a60405180610100016040528060008152602001600081526020016000815260200160008152602001600081526020016000815260200160008152602001600081525090565b60075460015460408051628c4abb60e21b8152815160009384936001600160a01b03909116926302312aec92600480830193928290030181865afa158015612a76573d6000803e3d6000fd5b505050506040513d601f19601f82011682018060405250810190612a9a919061538d565b91509150604051806101000160405280612ab261467a565b8152600354604080516318160ddd60e01b815290516020938401936001600160a01b03909316926318160ddd92600480820193918290030181865afa158015612aff573d6000803e3d6000fd5b505050506040513d601f19601f82011682018060405250810190612b2391906150a1565b815260015460005460405163769bb15560e11b81526001600160a01b03918216600482015260209093019291169063ed3762aa90602401602060405180830381865afa158015612b77573d6000803e3d6000fd5b505050506040513d601f19601f82011682018060405250810190612b9b91906150a1565b8152602001600854815260200184815260200160065485612bbc919061518c565b8152602081019390935260409092015292915050565b6003546040516370a0823160e01b81526001600160a01b03838116600483015260009283929116906370a0823190602401602060405180830381865afa158015612c20573d6000803e3d6000fd5b505050506040513d601f19601f82011682018060405250810190612c4491906150a1565b905080600003612c58576000915050610ca6565b6001600160a01b03831660009081526005602052604081205490819003612c8157509050610ca6565b6000612ca08387602001518860a00151612cf29092919063ffffffff16565b90506000612cae8284612cd8565b9050612ccd818860a001518960200151612cf29092919063ffffffff16565b979650505050505050565b6000818311612ce8576000610dcd565b610dcd82846153e8565b6000808211612d365760405162461bcd60e51b815260206004820152601060248201526f4469766973696f6e206279207a65726f60801b604482015260640161036b565b83600003612d4657506000610dcd565b83830283858281612d5957612d5961541e565b0403612d7757828181612d6e57612d6e61541e565b04915050610dcd565b506000612d848386615434565b90506000612d928487615465565b90506000612da08587615434565b90506000612dae8688615465565b905085612dbb8285615479565b612dc59190615434565b612dcf8385615479565b612dd98387615479565b88612de48689615479565b612dee9190615479565b612df8919061518c565b612e02919061518c565b612e0c919061518c565b98975050505050505050565b6000612e2a8360008560000151614713565b15612e86576040830151835160c0850151612e7f9291612e4991615479565b612710858760600151612e5c91906153e8565b8760e00151612e6b9190615479565b612e759190615479565b610dc89190615434565b9050610ca6565b60608301516040840151612e7f918490612cf2565b600080612ea88484614499565b6001600160a01b038416600090815260056020526040902054909150612edb612ed18383612cd8565b86608001516140be565b95945050505050565b60008060008511612f2d5760405162461bcd60e51b8152602060048201526013602482015272746f6b656e207368617265206973207a65726f60681b604482015260640161036b565b6003546040516370a0823160e01b81523360048201526001600160a01b03909116906370a0823190602401602060405180830381865afa158015612f75573d6000803e3d6000fd5b505050506040513d601f19601f82011682018060405250810190612f9991906150a1565b851115612fe05760405162461bcd60e51b8152602060048201526015602482015274746f6b656e2062616c616e636520746f6f206c6f7760581b604482015260640161036b565b6000612fea6129e2565b905085816020015114806130155750670de0b6b3a764000086826020015161301291906153e8565b10155b6130315760405162461bcd60e51b815260040161036b90615490565b60006130508260600151836020015189612cf29092919063ffffffff16565b9050600081116130725760405162461bcd60e51b815260040161036b906154e4565b808260600151148061309b5750670de0b6b3a764000081836060015161309891906153e8565b10155b6130b75760405162461bcd60e51b815260040161036b90615526565b600260009054906101000a90046001600160a01b03166001600160a01b031663194307bf6040518163ffffffff1660e01b8152600401602060405180830381865afa15801561310a573d6000803e3d6000fd5b505050506040513d601f19601f8201168201806040525081019061312e9190615448565b156131b1576003546040516376fd4fdf60e01b81526001600160a01b03909116906376fd4fdf906131689033908b906001906004016153fb565b600060405180830381600087803b15801561318257600080fd5b505af1158015613196573d6000803e3d6000fd5b505050506131a48682614756565b9250600091506123499050565b6131c082828460000151614713565b6132185760405162461bcd60e51b815260206004820152602360248201527f636f6c6c61746572616c20726174696f2066616c6c732062656c6f77206578696044820152623a21a960e91b606482015260840161036b565b60008061322784338b8a6142d0565b9092509050801561323d5761323d3089836140d4565b811561324d5761324d3383614458565b6003546040516376fd4fdf60e01b81526001600160a01b03909116906376fd4fdf906132829033908d906000906004016153fb565b600060405180830381600087803b15801561329c57600080fd5b505af11580156132b0573d6000803e3d6000fd5b505050506132be8884614756565b3360008181526005602090815260408083205481518e81529283018890529082018590526060820192909252608081019190915260008051602061565d8339815191529060a00160405180910390a291989197509095505050505050565b60008051602061563d833981519152546001600160a01b031690565b6001546001600160a01b03163314610c575760405162461bcd60e51b815260040161036b90615075565b7f4910fdfa16fed3260ed0e7147f7cc6da11a60208b5b9406d12a635614ffd91435460ff161561339557611f69836147f7565b826001600160a01b03166352d1902d6040518163ffffffff1660e01b8152600401602060405180830381865afa9250505080156133ef575060408051601f3d908101601f191682019092526133ec918101906150a1565b60015b6134525760405162461bcd60e51b815260206004820152602e60248201527f45524331393637557067726164653a206e657720696d706c656d656e7461746960448201526d6f6e206973206e6f74205555505360901b606482015260840161036b565b60008051602061563d83398151915281146134c15760405162461bcd60e51b815260206004820152602960248201527f45524331393637557067726164653a20756e737570706f727465642070726f786044820152681a58589b195555525160ba1b606482015260840161036b565b50611f69838383614893565b6000821161351d5760405162461bcd60e51b815260206004820181905260248201527f747279696e6720746f207769746864726177207a65726f20662d617373657473604482015260640161036b565b60006135276129e2565b905060006135358233612e9b565b9050808411156135875760405162461bcd60e51b815260206004820152601e60248201527f6672656520662d61737365742062616c616e636520746f6f20736d616c6c0000604482015260640161036b565b61359133856141f0565b61359c3084866140d4565b3360008181526005602090815260408083205481518481529283018490529082018890526060820192909252608081019190915260008051602061565d8339815191529060a00160405180910390a250505050565b600063ffffffff8211156136565760405162461bcd60e51b815260206004820152602660248201527f53616665436173743a2076616c756520646f65736e27742066697420696e203360448201526532206269747360d01b606482015260840161036b565b5090565b600085116136a05760405162461bcd60e51b8152602060048201526013602482015272746f6b656e207368617265206973207a65726f60681b604482015260640161036b565b6003546040516370a0823160e01b81523360048201526001600160a01b03909116906370a0823190602401602060405180830381865afa1580156136e8573d6000803e3d6000fd5b505050506040513d601f19601f8201168201806040525081019061370c91906150a1565b8511156137535760405162461bcd60e51b8152602060048201526015602482015274746f6b656e2062616c616e636520746f6f206c6f7760581b604482015260640161036b565b600061375d6129e2565b905085816020015114806137885750670de0b6b3a764000086826020015161378591906153e8565b10155b6137a45760405162461bcd60e51b815260040161036b90615490565b60006137c38783602001518460600151612cf29092919063ffffffff16565b9050600081116137e55760405162461bcd60e51b815260040161036b906154e4565b808260600151148061380e5750670de0b6b3a764000081836060015161380b91906153e8565b10155b61382a5760405162461bcd60e51b815260040161036b90615526565b60015460008054604051631e8bee0160e01b81526001600160a01b03918216600482015291921690631e8bee0190602401602060405180830381865afa158015613878573d6000803e3d6000fd5b505050506040513d601f19601f8201168201806040525081019061389c91906150a1565b905060006138aa8484612e18565b9050808210156139e05750806138c084826148b8565b9250600083116139495760405162461bcd60e51b815260206004820152604860248201527f616d6f756e74206f662073656e7420746f6b656e7320697320746f6f20736d6160448201527f6c6c206166746572206167656e74206d617820726564656d7074696f6e20636f606482015267393932b1ba34b7b760c11b608482015260a40161036b565b82846060015114806139725750670de0b6b3a764000083856060015161396f91906153e8565b10155b61398e5760405162461bcd60e51b815260040161036b90615526565b606084015160208501516139a3918590612cf2565b6040805182815260208101849052919a507f7543f09ac709677c25f5aa8284e92f885eae7c7496789dd47cf87e28e5a1cf1c910160405180910390a15b60006139ec8533612e9b565b90506000806139fe87338e60006142d0565b9150915083831015613bf3576000613a1684866153e8565b6002546040516352adac0760e11b81529192506000916001600160a01b039091169063a55b580e90613a5090339030908790600401615369565b6040805180830381865afa158015613a6c573d6000803e3d6000fd5b505050506040513d601f19601f82011682018060405250810190613a90919061538d565b9150613a9e9050818361518c565b600254604051636eb1769f60e11b81523360048201523060248201526001600160a01b039091169063dd62ed3e90604401602060405180830381865afa158015613aec573d6000803e3d6000fd5b505050506040513d601f19601f82011682018060405250810190613b1091906150a1565b1015613b2e5760405162461bcd60e51b815260040161036b906153b1565b600254604051634b9a2c3760e11b81526000916001600160a01b031690639734586e90613b6390339030908890600401615369565b6020604051808303816000875af1158015613b82573d6000803e3d6000fd5b505050506040513d601f19601f82011682018060405250810190613ba69190615448565b905080613bef5760405162461bcd60e51b8152602060048201526017602482015276198b585cdcd95d081d1c985b9cd9995c8819985a5b1959604a1b604482015260640161036b565b5050505b8315613d7e57600160009054906101000a90046001600160a01b03166001600160a01b0316634942f65f6040518163ffffffff1660e01b8152600401602060405180830381865afa158015613c4c573d6000803e3d6000fd5b505050506040513d601f19601f82011682018060405250810190613c7091906150a1565b841080613c7a57508a5b15613cee57600154600054604051630ed000b360e41b81526001600160a01b039283169263ed000b3092613cb7929116908e908990600401615369565b600060405180830381600087803b158015613cd157600080fd5b505af1158015613ce5573d6000803e3d6000fd5b50505050613d7e565b600160009054906101000a90046001600160a01b03166001600160a01b031663997be0f43460008054906101000a90046001600160a01b03168d888e8e6040518763ffffffff1660e01b8152600401613d4b9594939291906155c8565b6000604051808303818588803b158015613d6457600080fd5b505af1158015613d78573d6000803e3d6000fd5b50505050505b6000613d8a85856140be565b90508015613ddc578060076000828254613da491906153e8565b90915550613db4905033826141f0565b6000613dc082846140be565b9050613dcc81846153e8565b9250613dd8818561518c565b9350505b8115613ded57613ded308c846140d4565b8215613dfd57613dfd3384614458565b600360009054906101000a90046001600160a01b03166001600160a01b03166376fd4fdf338f60006040518463ffffffff1660e01b8152600401613e43939291906153fb565b600060405180830381600087803b158015613e5d57600080fd5b505af1158015613e71573d6000803e3d6000fd5b50505050613e7f8b88614756565b336001600160a01b031660008051602061565d8339815191528e89848960056000336001600160a01b03166001600160a01b0316815260200190815260200160002054604051613ef1959493929190948552602085019390935260408401919091526060830152608082015260a00190565b60405180910390a250505050505050505050505050565b600061ffff8211156136565760405162461bcd60e51b815260206004820152602660248201527f53616665436173743a2076616c756520646f65736e27742066697420696e203160448201526536206269747360d01b606482015260840161036b565b600080836060015160001480613f8357506020840151155b600454604086015160c0870151929350600092613fb792600160c01b900463ffffffff1691613fb191615479565b90614918565b905060008560e001518660600151613fcf9190615479565b8211613fdc576000613ffa565b606086015160e0870151613ff09084615434565b613ffa91906153e8565b9050600061400886836140be565b905060006140168783612cd8565b60045490915060009061403990849061271090600160e01b900461ffff16612cf2565b905060008661405c5760608a015160208b0151614057918490612cf2565b61405e565b815b9050600087801561406d575081155b6140a15761409c84868d60600151614085919061518c565b848e60200151614095919061518c565b9190612cf2565b6140a3565b835b90506140af818361518c565b9b9a5050505050505050505050565b60008183106140cd5781610dcd565b5090919050565b8015611f6957306001600160a01b038416036141185780600760008282546140fc91906153e8565b9091555050600254611f69906001600160a01b031683836128f0565b806007600082825461412a919061518c565b9091555050600254604051634b9a2c3760e11b81526000916001600160a01b031690639734586e9061416490879087908790600401615369565b6020604051808303816000875af1158015614183573d6000803e3d6000fd5b505050506040513d601f19601f820116820180604052508101906141a79190615448565b90508061165f5760405162461bcd60e51b8152602060048201526017602482015276198b585cdcd95d081d1c985b9cd9995c8819985a5b1959604a1b604482015260640161036b565b6001600160a01b0382166000908152600560205260408120805483929061421890849061518c565b925050819055508060066000828254614231919061518c565b90915550505050565b3415612177573460086000828254614252919061518c565b90915550506004805460408051630d0e30db60e41b815290516001600160a01b039092169263d0e30db0923492808301926000929182900301818588803b1580156114cf57600080fd5b80156111755780600860008282546142b491906153e8565b9091555050600454611175906001600160a01b031683836128f0565b60008060006142df8787614499565b6001600160a01b038781166000818152600560205260408082205460035491516370a0823160e01b81526004810194909452949550909216906370a0823190602401602060405180830381865afa15801561433e573d6000803e3d6000fd5b505050506040513d601f19601f8201168201806040525081019061436291906150a1565b90508060000361437b576000809450945050505061444f565b6000614388848984612cf2565b9050600087600281111561439e5761439e61519f565b036143cf5760006143af8585612cd8565b90506143bb82826140be565b95506143c786836153e8565b96505061442e565b60018760028111156143e3576143e361519f565b03614405576143f281846140be565b95506143fe86826153e8565b945061442e565b6000841161441457600061441f565b61441f838286612cf2565b955061442b8187612cd8565b94505b61443a856007546140be565b9450614448866006546140be565b9550505050505b94509492505050565b6001600160a01b038216600090815260056020526040812080548392906144809084906153e8565b92505081905550806006600082825461423191906153e8565b6003546040516370a0823160e01b81526001600160a01b03838116600483015260009283929116906370a0823190602401602060405180830381865afa1580156144e7573d6000803e3d6000fd5b505050506040513d601f19601f8201168201806040525081019061450b91906150a1565b90508060000361451f576000915050610ca6565b602084015160a0850151611325918390612cf2565b7f0cd2207518cd3e5213e2c6dbe63d55b60aa893c194a427b7d7f1600408fd5bde546002146121775760405162461bcd60e51b815260206004820152601f60248201527f5265656e7472616e637947756172643a20677561726420726571756972656400604482015260640161036b565b60006145fa826040518060400160405280602081526020017f5361666545524332303a206c6f772d6c6576656c2063616c6c206661696c6564815250856001600160a01b03166149279092919063ffffffff16565b905080516000148061461b57508080602001905181019061461b9190615448565b611f695760405162461bcd60e51b815260206004820152602a60248201527f5361666545524332303a204552433230206f7065726174696f6e20646964206e6044820152691bdd081cdd58d8d9595960b21b606482015260840161036b565b6001546000805460405163cd71593560e01b81526001600160a01b0391821660048201529192839291169063cd71593590602401602060405180830381865afa1580156146cb573d6000803e3d6000fd5b505050506040513d601f19601f820116820180604052508101906146ef91906150a1565b60045490915061470d908290600160a01b900463ffffffff16614936565b91505090565b600061472d828560c001518660400151613fb19190615479565b8460e0015184866060015161474291906153e8565b61474c9190615479565b1015949350505050565b801561117557806008600082825461476e91906153e8565b909155505060048054600160f01b60ff60f01b198216178255604051632e1a7d4d60e01b81529182018390526001600160a01b031690632e1a7d4d90602401600060405180830381600087803b1580156147c757600080fd5b505af11580156147db573d6000803e3d6000fd5b50506004805460ff60f01b191690555061117590508282612847565b6001600160a01b0381163b6148645760405162461bcd60e51b815260206004820152602d60248201527f455243313936373a206e657720696d706c656d656e746174696f6e206973206e60448201526c1bdd08184818dbdb9d1c9858dd609a1b606482015260840161036b565b60008051602061563d83398151915280546001600160a01b0319166001600160a01b0392909216919091179055565b61489c83614945565b6000825111806148a95750805b15611f695761165f8383614985565b60006148ca8360008560000151614713565b1561490357612e7f83606001518460e00151612e7586600001518688604001516148f491906153e8565b8860c00151613fb19190615479565b60408301516060840151612e7f918490612cf2565b6000610dcd8383612710612cf2565b606061132584846000856149aa565b60008183116140cd5781610dcd565b61494e816147f7565b6040516001600160a01b038216907fbc7cd75a20ee27fd9adebab32041f755214dbc6bffa90cc0225b39da2e5c2d3b90600090a250565b6060610dcd838360405180606001604052806027815260200161567d60279139614a7a565b606082471015614a0b5760405162461bcd60e51b815260206004820152602660248201527f416464726573733a20696e73756666696369656e742062616c616e636520666f6044820152651c8818d85b1b60d21b606482015260840161036b565b600080866001600160a01b03168587604051614a27919061560d565b60006040518083038185875af1925050503d8060008114614a64576040519150601f19603f3d011682016040523d82523d6000602084013e614a69565b606091505b5091509150612ccd87838387614ae4565b6060600080856001600160a01b031685604051614a97919061560d565b600060405180830381855af49150503d8060008114614ad2576040519150601f19603f3d011682016040523d82523d6000602084013e614ad7565b606091505b5091509150610e28868383875b60608315614b53578251600003614b4c576001600160a01b0385163b614b4c5760405162461bcd60e51b815260206004820152601d60248201527f416464726573733a2063616c6c20746f206e6f6e2d636f6e7472616374000000604482015260640161036b565b5081611325565b6113258383815115614b685781518083602001fd5b8060405162461bcd60e51b815260040161036b9190615629565b6001600160a01b0381168114610c5757600080fd5b600060208284031215614ba957600080fd5b8135610dcd81614b82565b600060208284031215614bc657600080fd5b81356001600160e01b031981168114610dcd57600080fd5b60008060408385031215614bf157600080fd5b8235614bfc81614b82565b946020939093013593505050565b600060208284031215614c1c57600080fd5b5035919050565b803560038110614c3257600080fd5b919050565b60008060408385031215614c4a57600080fd5b82359150614c5a60208401614c23565b90509250929050565b634e487b7160e01b600052604160045260246000fd5b600067ffffffffffffffff80841115614c9457614c94614c63565b604051601f8501601f19908116603f01168101908282118183101715614cbc57614cbc614c63565b81604052809350858152868686011115614cd557600080fd5b858560208301376000602087830101525050509392505050565b60008060408385031215614d0257600080fd5b8235614d0d81614b82565b9150602083013567ffffffffffffffff811115614d2957600080fd5b8301601f81018513614d3a57600080fd5b614d4985823560208401614c79565b9150509250929050565b803562ffffff81168114614c3257600080fd5b60008060008060608587031215614d7c57600080fd5b8435614d8781614b82565b9350614d9560208601614d53565b9250604085013567ffffffffffffffff80821115614db257600080fd5b818701915087601f830112614dc657600080fd5b813581811115614dd557600080fd5b8860208260051b8501011115614dea57600080fd5b95989497505060200194505050565b8015158114610c5757600080fd5b600082601f830112614e1857600080fd5b610dcd83833560208501614c79565b600080600080600060a08688031215614e3f57600080fd5b853594506020860135614e5181614df9565b93506040860135614e6181614b82565b9250606086013567ffffffffffffffff811115614e7d57600080fd5b614e8988828901614e07565b9250506080860135614e9a81614b82565b809150509295509295909350565b60008060408385031215614ebb57600080fd5b823591506020830135614ecd81614b82565b809150509250929050565b60008060408385031215614eeb57600080fd5b823591506020830135614ecd81614df9565b600080600060608486031215614f1257600080fd5b8335614f1d81614b82565b95602085013595506040909401359392505050565b60008060008060808587031215614f4857600080fd5b843593506020850135614f5a81614df9565b9250604085013567ffffffffffffffff811115614f7657600080fd5b614f8287828801614e07565b9250506060850135614f9381614b82565b939692955090935050565b803563ffffffff81168114614c3257600080fd5b60008060008060008060c08789031215614fcb57600080fd5b8635614fd681614b82565b95506020870135614fe681614b82565b94506040870135614ff681614b82565b935061500460608801614f9e565b925061501260808801614f9e565b915060a087013561ffff8116811461502957600080fd5b809150509295509295509295565b60008060006060848603121561504c57600080fd5b83359250602084013561505e81614b82565b915061506c60408501614c23565b90509250925092565b60208082526012908201527137b7363c9030b9b9b2ba1036b0b730b3b2b960711b604082015260600190565b6000602082840312156150b357600080fd5b5051919050565b6020808252600a90820152691bdb9b1e481859d95b9d60b21b604082015260600190565b6020808252602c908201527f46756e6374696f6e206d7573742062652063616c6c6564207468726f7567682060408201526b19195b1959d85d1958d85b1b60a21b606082015260800190565b6020808252602c908201527f46756e6374696f6e206d7573742062652063616c6c6564207468726f7567682060408201526b6163746976652070726f787960a01b606082015260800190565b634e487b7160e01b600052601160045260246000fd5b80820180821115610ca657610ca6615176565b634e487b7160e01b600052602160045260246000fd5b62ffffff6151c282614d53565b16825260208101356bffffffffffffffffffffffff1981168082146151e657600080fd5b60208401525060408101356effffffffffffffffffffffffffffff811680821461520f57600080fd5b60408401525060608101356005811061522757600080fd5b806060840152505050565b6001600160a01b038781168252861660208083019190915262ffffff86166040830152841515606083015260a06080830181905282810184905260009160c09081850190600587811b8701840189875b8a8110156153385789830360bf190186528135368d9003609e190181126152a857600080fd5b8c01803536829003601e190181126152bf57600080fd5b8101868101903567ffffffffffffffff8111156152db57600080fd5b80871b8036038313156152ed57600080fd5b8b8752868c018290526001600160fb1b0382111561530a57600080fd5b80838c89013761531e8988018a86016151b5565b988801989590950189019450505090840190600101615282565b50909e9d5050505050505050505050505050565b60006020828403121561535e57600080fd5b8151610dcd81614b82565b6001600160a01b039384168152919092166020820152604081019190915260600190565b600080604083850312156153a057600080fd5b505080516020909101519092909150565b6020808252601b908201527f662d617373657420616c6c6f77616e636520746f6f20736d616c6c0000000000604082015260600190565b81810381811115610ca657610ca6615176565b6001600160a01b0393909316835260208301919091521515604082015260600190565b634e487b7160e01b600052601260045260246000fd5b6000826154435761544361541e565b500490565b60006020828403121561545a57600080fd5b8151610dcd81614df9565b6000826154745761547461541e565b500690565b8082028115828204841417610ca657610ca6615176565b60208082526034908201527f746f6b656e20737570706c79206c656674206166746572206578697420697320604082015273746f6f206c6f7720616e64206e6f6e2d7a65726f60601b606082015260800190565b60208082526022908201527f616d6f756e74206f662073656e7420746f6b656e7320697320746f6f20736d616040820152611b1b60f21b606082015260800190565b60208082526032908201527f636f6c6c61746572616c206c656674206166746572206578697420697320746f6040820152716f206c6f7720616e64206e6f6e2d7a65726f60701b606082015260800190565b60005b8381101561559357818101518382015260200161557b565b50506000910152565b600081518084526155b4816020860160208601615578565b601f01601f19169290920160200192915050565b600060018060a01b038088168352808716602084015285604084015260a060608401526155f860a084018661559c565b91508084166080840152509695505050505050565b6000825161561f818460208701615578565b9190910192915050565b602081526000610dcd602083018461559c56fe360894a13ba1a3210667c828492db98dca3e2076cc3735a920a3ca505d382bbc3cbd229dedaa8b29b8f29100166a217701549be8e58e781f204124f23fd0154e416464726573733a206c6f772d6c6576656c2064656c65676174652063616c6c206661696c6564a264697066735822122049ee3701cb14e2e32c7904b9701f5ed6df8df0f4bc83e9a2af5d3e949778715e64736f6c63430008170033",
  "linkReferences": {},
  "deployedLinkReferences": {}
}