{
  "_format": "hh-sol-artifact-1",
  "contractName": "CollateralPool",
  "sourceName": "contracts/assetManager/implementation/CollateralPool.sol",
  "abi": [
    {
      "inputs": [
        {
          "internalType": "address",
          "name": "_agentVault",
          "type": "address"
        },
        {
          "internalType": "address",
          "name": "_assetManager",
          "type": "address"
        },
        {
          "internalType": "address",
          "name": "_fAsset",
          "type": "address"
        },
        {
          "internalType": "uint32",
          "name": "_exitCollateralRatioBIPS",
          "type": "uint32"
        },
        {
          "internalType": "uint32",
          "name": "_topupCollateralRatioBIPS",
          "type": "uint32"
        },
        {
          "internalType": "uint16",
          "name": "_topupTokenPriceFactorBIPS",
          "type": "uint16"
        }
      ],
      "stateMutability": "nonpayable",
      "type": "constructor"
    },
    {
      "anonymous": false,
      "inputs": [
        {
          "indexed": false,
          "internalType": "address",
          "name": "previousAdmin",
          "type": "address"
        },
        {
          "indexed": false,
          "internalType": "address",
          "name": "newAdmin",
          "type": "address"
        }
      ],
      "name": "AdminChanged",
      "type": "event"
    },
    {
      "anonymous": false,
      "inputs": [
        {
          "indexed": true,
          "internalType": "address",
          "name": "beacon",
          "type": "address"
        }
      ],
      "name": "BeaconUpgraded",
      "type": "event"
    },
    {
      "anonymous": false,
      "inputs": [
        {
          "indexed": false,
          "internalType": "uint256",
          "name": "amountNatWei",
          "type": "uint256"
        },
        {
          "indexed": false,
          "internalType": "uint8",
          "name": "rewardType",
          "type": "uint8"
        }
      ],
      "name": "ClaimedReward",
      "type": "event"
    },
    {
      "anonymous": false,
      "inputs": [
        {
          "indexed": true,
          "internalType": "address",
          "name": "donator",
          "type": "address"
        },
        {
          "indexed": false,
          "internalType": "uint256",
          "name": "amountNatWei",
          "type": "uint256"
        }
      ],
      "name": "Donated",
      "type": "event"
    },
    {
      "anonymous": false,
      "inputs": [
        {
          "indexed": true,
          "internalType": "address",
          "name": "tokenHolder",
          "type": "address"
        },
        {
          "indexed": false,
          "internalType": "uint256",
          "name": "amountNatWei",
          "type": "uint256"
        },
        {
          "indexed": false,
          "internalType": "uint256",
          "name": "receivedTokensWei",
          "type": "uint256"
        },
        {
          "indexed": false,
          "internalType": "uint256",
          "name": "addedFAssetFeesUBA",
          "type": "uint256"
        },
        {
          "indexed": false,
          "internalType": "uint256",
          "name": "newFAssetFeeDebt",
          "type": "uint256"
        },
        {
          "indexed": false,
          "internalType": "uint256",
          "name": "timelockExpiresAt",
          "type": "uint256"
        }
      ],
      "name": "Entered",
      "type": "event"
    },
    {
      "anonymous": false,
      "inputs": [
        {
          "indexed": true,
          "internalType": "address",
          "name": "tokenHolder",
          "type": "address"
        },
        {
          "indexed": false,
          "internalType": "uint256",
          "name": "burnedTokensWei",
          "type": "uint256"
        },
        {
          "indexed": false,
          "internalType": "uint256",
          "name": "receivedNatWei",
          "type": "uint256"
        },
        {
          "indexed": false,
          "internalType": "uint256",
          "name": "receviedFAssetFeesUBA",
          "type": "uint256"
        },
        {
          "indexed": false,
          "internalType": "uint256",
          "name": "closedFAssetsUBA",
          "type": "uint256"
        },
        {
          "indexed": false,
          "internalType": "uint256",
          "name": "newFAssetFeeDebt",
          "type": "uint256"
        }
      ],
      "name": "Exited",
      "type": "event"
    },
    {
      "anonymous": false,
      "inputs": [
        {
          "indexed": false,
          "internalType": "uint256",
          "name": "burnedTokensWei",
          "type": "uint256"
        },
        {
          "indexed": false,
          "internalType": "uint256",
          "name": "redeemedFAssetUBA",
          "type": "uint256"
        }
      ],
      "name": "IncompleteSelfCloseExit",
      "type": "event"
    },
    {
      "anonymous": false,
      "inputs": [
        {
          "indexed": true,
          "internalType": "address",
          "name": "recipient",
          "type": "address"
        },
        {
          "indexed": false,
          "internalType": "uint256",
          "name": "paidNatWei",
          "type": "uint256"
        },
        {
          "indexed": false,
          "internalType": "uint256",
          "name": "burnedTokensWei",
          "type": "uint256"
        }
      ],
      "name": "PaidOut",
      "type": "event"
    },
    {
      "anonymous": false,
      "inputs": [
        {
          "indexed": true,
          "internalType": "address",
          "name": "implementation",
          "type": "address"
        }
      ],
      "name": "Upgraded",
      "type": "event"
    },
    {
      "inputs": [],
      "name": "MIN_NAT_BALANCE_AFTER_EXIT",
      "outputs": [
        {
          "internalType": "uint256",
          "name": "",
          "type": "uint256"
        }
      ],
      "stateMutability": "view",
      "type": "function"
    },
    {
      "inputs": [],
      "name": "MIN_NAT_TO_ENTER",
      "outputs": [
        {
          "internalType": "uint256",
          "name": "",
          "type": "uint256"
        }
      ],
      "stateMutability": "view",
      "type": "function"
    },
    {
      "inputs": [],
      "name": "MIN_TOKEN_SUPPLY_AFTER_EXIT",
      "outputs": [
        {
          "internalType": "uint256",
          "name": "",
          "type": "uint256"
        }
      ],
      "stateMutability": "view",
      "type": "function"
    },
    {
      "inputs": [],
      "name": "agentVault",
      "outputs": [
        {
          "internalType": "address",
          "name": "",
          "type": "address"
        }
      ],
      "stateMutability": "view",
      "type": "function"
    },
    {
      "inputs": [],
      "name": "assetManager",
      "outputs": [
        {
          "internalType": "contract IIAssetManager",
          "name": "",
          "type": "address"
        }
      ],
      "stateMutability": "view",
      "type": "function"
    },
    {
      "inputs": [
        {
          "internalType": "contract IDistributionToDelegators",
          "name": "_distribution",
          "type": "address"
        },
        {
          "internalType": "uint256",
          "name": "_month",
          "type": "uint256"
        }
      ],
      "name": "claimAirdropDistribution",
      "outputs": [
        {
          "internalType": "uint256",
          "name": "",
          "type": "uint256"
        }
      ],
      "stateMutability": "nonpayable",
      "type": "function"
    },
    {
      "inputs": [
        {
          "internalType": "contract IRewardManager",
          "name": "_rewardManager",
          "type": "address"
        },
        {
          "internalType": "uint24",
          "name": "_lastRewardEpoch",
          "type": "uint24"
        },
        {
          "components": [
            {
              "internalType": "bytes32[]",
              "name": "merkleProof",
              "type": "bytes32[]"
            },
            {
              "components": [
                {
                  "internalType": "uint24",
                  "name": "rewardEpochId",
                  "type": "uint24"
                },
                {
                  "internalType": "bytes20",
                  "name": "beneficiary",
                  "type": "bytes20"
                },
                {
                  "internalType": "uint120",
                  "name": "amount",
                  "type": "uint120"
                },
                {
                  "internalType": "enum RewardsV2Interface.ClaimType",
                  "name": "claimType",
                  "type": "uint8"
                }
              ],
              "internalType": "struct RewardsV2Interface.RewardClaim",
              "name": "body",
              "type": "tuple"
            }
          ],
          "internalType": "struct RewardsV2Interface.RewardClaimWithProof[]",
          "name": "_proofs",
          "type": "tuple[]"
        }
      ],
      "name": "claimDelegationRewards",
      "outputs": [
        {
          "internalType": "uint256",
          "name": "",
          "type": "uint256"
        }
      ],
      "stateMutability": "nonpayable",
      "type": "function"
    },
    {
      "inputs": [
        {
          "internalType": "address",
          "name": "_account",
          "type": "address"
        }
      ],
      "name": "debtFreeTokensOf",
      "outputs": [
        {
          "internalType": "uint256",
          "name": "",
          "type": "uint256"
        }
      ],
      "stateMutability": "view",
      "type": "function"
    },
    {
      "inputs": [
        {
          "internalType": "address",
          "name": "_account",
          "type": "address"
        }
      ],
      "name": "debtLockedTokensOf",
      "outputs": [
        {
          "internalType": "uint256",
          "name": "",
          "type": "uint256"
        }
      ],
      "stateMutability": "view",
      "type": "function"
    },
    {
      "inputs": [
        {
          "internalType": "address",
          "name": "_to",
          "type": "address"
        },
        {
          "internalType": "uint256",
          "name": "_bips",
          "type": "uint256"
        }
      ],
      "name": "delegate",
      "outputs": [],
      "stateMutability": "nonpayable",
      "type": "function"
    },
    {
      "inputs": [
        {
          "internalType": "address",
          "name": "_to",
          "type": "address"
        }
      ],
      "name": "delegateGovernance",
      "outputs": [],
      "stateMutability": "nonpayable",
      "type": "function"
    },
    {
      "inputs": [],
      "name": "depositNat",
      "outputs": [],
      "stateMutability": "payable",
      "type": "function"
    },
    {
      "inputs": [
        {
          "internalType": "address payable",
          "name": "_recipient",
          "type": "address"
        }
      ],
      "name": "destroy",
      "outputs": [],
      "stateMutability": "nonpayable",
      "type": "function"
    },
    {
      "inputs": [],
      "name": "donateNat",
      "outputs": [],
      "stateMutability": "payable",
      "type": "function"
    },
    {
      "inputs": [
        {
          "internalType": "uint256",
          "name": "_fAssets",
          "type": "uint256"
        },
        {
          "internalType": "bool",
          "name": "_enterWithFullFAssets",
          "type": "bool"
        }
      ],
      "name": "enter",
      "outputs": [
        {
          "internalType": "uint256",
          "name": "",
          "type": "uint256"
        },
        {
          "internalType": "uint256",
          "name": "",
          "type": "uint256"
        }
      ],
      "stateMutability": "payable",
      "type": "function"
    },
    {
      "inputs": [
        {
          "internalType": "uint256",
          "name": "_tokenShare",
          "type": "uint256"
        },
        {
          "internalType": "enum ICollateralPool.TokenExitType",
          "name": "_exitType",
          "type": "uint8"
        }
      ],
      "name": "exit",
      "outputs": [
        {
          "internalType": "uint256",
          "name": "",
          "type": "uint256"
        },
        {
          "internalType": "uint256",
          "name": "",
          "type": "uint256"
        }
      ],
      "stateMutability": "nonpayable",
      "type": "function"
    },
    {
      "inputs": [],
      "name": "exitCollateralRatioBIPS",
      "outputs": [
        {
          "internalType": "uint32",
          "name": "",
          "type": "uint32"
        }
      ],
      "stateMutability": "view",
      "type": "function"
    },
    {
      "inputs": [
        {
          "internalType": "uint256",
          "name": "_tokenShare",
          "type": "uint256"
        },
        {
          "internalType": "address payable",
          "name": "_recipient",
          "type": "address"
        },
        {
          "internalType": "enum ICollateralPool.TokenExitType",
          "name": "_exitType",
          "type": "uint8"
        }
      ],
      "name": "exitTo",
      "outputs": [
        {
          "internalType": "uint256",
          "name": "",
          "type": "uint256"
        },
        {
          "internalType": "uint256",
          "name": "",
          "type": "uint256"
        }
      ],
      "stateMutability": "nonpayable",
      "type": "function"
    },
    {
      "inputs": [],
      "name": "fAsset",
      "outputs": [
        {
          "internalType": "contract IFAsset",
          "name": "",
          "type": "address"
        }
      ],
      "stateMutability": "view",
      "type": "function"
    },
    {
      "inputs": [
        {
          "internalType": "address",
          "name": "_account",
          "type": "address"
        }
      ],
      "name": "fAssetFeeDebtOf",
      "outputs": [
        {
          "internalType": "uint256",
          "name": "",
          "type": "uint256"
        }
      ],
      "stateMutability": "view",
      "type": "function"
    },
    {
      "inputs": [
        {
          "internalType": "uint256",
          "name": "_amount",
          "type": "uint256"
        }
      ],
      "name": "fAssetFeeDeposited",
      "outputs": [],
      "stateMutability": "nonpayable",
      "type": "function"
    },
    {
      "inputs": [
        {
          "internalType": "address",
          "name": "_account",
          "type": "address"
        }
      ],
      "name": "fAssetFeesOf",
      "outputs": [
        {
          "internalType": "uint256",
          "name": "",
          "type": "uint256"
        }
      ],
      "stateMutability": "view",
      "type": "function"
    },
    {
      "inputs": [
        {
          "internalType": "uint256",
          "name": "_tokenAmountWei",
          "type": "uint256"
        }
      ],
      "name": "fAssetRequiredForSelfCloseExit",
      "outputs": [
        {
          "internalType": "uint256",
          "name": "",
          "type": "uint256"
        }
      ],
      "stateMutability": "view",
      "type": "function"
    },
    {
      "inputs": [],
      "name": "implementation",
      "outputs": [
        {
          "internalType": "address",
          "name": "",
          "type": "address"
        }
      ],
      "stateMutability": "view",
      "type": "function"
    },
    {
      "inputs": [
        {
          "internalType": "address",
          "name": "_agentVault",
          "type": "address"
        },
        {
          "internalType": "address",
          "name": "_assetManager",
          "type": "address"
        },
        {
          "internalType": "address",
          "name": "_fAsset",
          "type": "address"
        },
        {
          "internalType": "uint32",
          "name": "_exitCollateralRatioBIPS",
          "type": "uint32"
        },
        {
          "internalType": "uint32",
          "name": "_topupCollateralRatioBIPS",
          "type": "uint32"
        },
        {
          "internalType": "uint16",
          "name": "_topupTokenPriceFactorBIPS",
          "type": "uint16"
        }
      ],
      "name": "initialize",
      "outputs": [],
      "stateMutability": "nonpayable",
      "type": "function"
    },
    {
      "inputs": [
        {
          "internalType": "contract IDistributionToDelegators",
          "name": "_distribution",
          "type": "address"
        }
      ],
      "name": "optOutOfAirdrop",
      "outputs": [],
      "stateMutability": "nonpayable",
      "type": "function"
    },
    {
      "inputs": [
        {
          "internalType": "uint256",
          "name": "_fAssets",
          "type": "uint256"
        }
      ],
      "name": "payFAssetFeeDebt",
      "outputs": [],
      "stateMutability": "nonpayable",
      "type": "function"
    },
    {
      "inputs": [
        {
          "internalType": "address",
          "name": "_recipient",
          "type": "address"
        },
        {
          "internalType": "uint256",
          "name": "_amount",
          "type": "uint256"
        },
        {
          "internalType": "uint256",
          "name": "_agentResponsibilityWei",
          "type": "uint256"
        }
      ],
      "name": "payout",
      "outputs": [],
      "stateMutability": "nonpayable",
      "type": "function"
    },
    {
      "inputs": [],
      "name": "poolToken",
      "outputs": [
        {
          "internalType": "contract ICollateralPoolToken",
          "name": "",
          "type": "address"
        }
      ],
      "stateMutability": "view",
      "type": "function"
    },
    {
      "inputs": [],
      "name": "proxiableUUID",
      "outputs": [
        {
          "internalType": "bytes32",
          "name": "",
          "type": "bytes32"
        }
      ],
      "stateMutability": "view",
      "type": "function"
    },
    {
      "inputs": [
        {
          "internalType": "address",
          "name": "_who",
          "type": "address"
        },
        {
          "internalType": "uint256",
          "name": "_blockNumber",
          "type": "uint256"
        }
      ],
      "name": "revokeDelegationAt",
      "outputs": [],
      "stateMutability": "nonpayable",
      "type": "function"
    },
    {
      "inputs": [
        {
          "internalType": "uint256",
          "name": "_tokenShare",
          "type": "uint256"
        },
        {
          "internalType": "bool",
          "name": "_redeemToCollateral",
          "type": "bool"
        },
        {
          "internalType": "string",
          "name": "_redeemerUnderlyingAddress",
          "type": "string"
        },
        {
          "internalType": "address payable",
          "name": "_executor",
          "type": "address"
        }
      ],
      "name": "selfCloseExit",
      "outputs": [],
      "stateMutability": "payable",
      "type": "function"
    },
    {
      "inputs": [
        {
          "internalType": "uint256",
          "name": "_tokenShare",
          "type": "uint256"
        },
        {
          "internalType": "bool",
          "name": "_redeemToCollateral",
          "type": "bool"
        },
        {
          "internalType": "address payable",
          "name": "_recipient",
          "type": "address"
        },
        {
          "internalType": "string",
          "name": "_redeemerUnderlyingAddress",
          "type": "string"
        },
        {
          "internalType": "address payable",
          "name": "_executor",
          "type": "address"
        }
      ],
      "name": "selfCloseExitTo",
      "outputs": [],
      "stateMutability": "payable",
      "type": "function"
    },
    {
      "inputs": [
        {
          "internalType": "uint256",
          "name": "_exitCollateralRatioBIPS",
          "type": "uint256"
        }
      ],
      "name": "setExitCollateralRatioBIPS",
      "outputs": [],
      "stateMutability": "nonpayable",
      "type": "function"
    },
    {
      "inputs": [
        {
          "internalType": "address",
          "name": "_poolToken",
          "type": "address"
        }
      ],
      "name": "setPoolToken",
      "outputs": [],
      "stateMutability": "nonpayable",
      "type": "function"
    },
    {
      "inputs": [
        {
          "internalType": "uint256",
          "name": "_topupCollateralRatioBIPS",
          "type": "uint256"
        }
      ],
      "name": "setTopupCollateralRatioBIPS",
      "outputs": [],
      "stateMutability": "nonpayable",
      "type": "function"
    },
    {
      "inputs": [
        {
          "internalType": "uint256",
          "name": "_topupTokenPriceFactorBIPS",
          "type": "uint256"
        }
      ],
      "name": "setTopupTokenPriceFactorBIPS",
      "outputs": [],
      "stateMutability": "nonpayable",
      "type": "function"
    },
    {
      "inputs": [
        {
          "internalType": "bytes4",
          "name": "_interfaceId",
          "type": "bytes4"
        }
      ],
      "name": "supportsInterface",
      "outputs": [
        {
          "internalType": "bool",
          "name": "",
          "type": "bool"
        }
      ],
      "stateMutability": "pure",
      "type": "function"
    },
    {
      "inputs": [],
      "name": "token",
      "outputs": [
        {
          "internalType": "contract IICollateralPoolToken",
          "name": "",
          "type": "address"
        }
      ],
      "stateMutability": "view",
      "type": "function"
    },
    {
      "inputs": [],
      "name": "topupCollateralRatioBIPS",
      "outputs": [
        {
          "internalType": "uint32",
          "name": "",
          "type": "uint32"
        }
      ],
      "stateMutability": "view",
      "type": "function"
    },
    {
      "inputs": [],
      "name": "topupTokenPriceFactorBIPS",
      "outputs": [
        {
          "internalType": "uint16",
          "name": "",
          "type": "uint16"
        }
      ],
      "stateMutability": "view",
      "type": "function"
    },
    {
      "inputs": [],
      "name": "totalCollateral",
      "outputs": [
        {
          "internalType": "uint256",
          "name": "",
          "type": "uint256"
        }
      ],
      "stateMutability": "view",
      "type": "function"
    },
    {
      "inputs": [],
      "name": "totalFAssetFeeDebt",
      "outputs": [
        {
          "internalType": "uint256",
          "name": "",
          "type": "uint256"
        }
      ],
      "stateMutability": "view",
      "type": "function"
    },
    {
      "inputs": [],
      "name": "totalFAssetFees",
      "outputs": [
        {
          "internalType": "uint256",
          "name": "",
          "type": "uint256"
        }
      ],
      "stateMutability": "view",
      "type": "function"
    },
    {
      "inputs": [],
      "name": "undelegateAll",
      "outputs": [],
      "stateMutability": "nonpayable",
      "type": "function"
    },
    {
      "inputs": [],
      "name": "undelegateGovernance",
      "outputs": [],
      "stateMutability": "nonpayable",
      "type": "function"
    },
    {
      "inputs": [
        {
          "internalType": "address",
          "name": "newImplementation",
          "type": "address"
        }
      ],
      "name": "upgradeTo",
      "outputs": [],
      "stateMutability": "nonpayable",
      "type": "function"
    },
    {
      "inputs": [
        {
          "internalType": "address",
          "name": "newImplementation",
          "type": "address"
        },
        {
          "internalType": "bytes",
          "name": "data",
          "type": "bytes"
        }
      ],
      "name": "upgradeToAndCall",
      "outputs": [],
      "stateMutability": "payable",
      "type": "function"
    },
    {
      "inputs": [
        {
          "internalType": "contract IWNat",
          "name": "_newWNat",
          "type": "address"
        }
      ],
      "name": "upgradeWNatContract",
      "outputs": [],
      "stateMutability": "nonpayable",
      "type": "function"
    },
    {
      "inputs": [
        {
          "internalType": "address",
          "name": "_account",
          "type": "address"
        }
      ],
      "name": "virtualFAssetOf",
      "outputs": [
        {
          "internalType": "uint256",
          "name": "",
          "type": "uint256"
        }
      ],
      "stateMutability": "view",
      "type": "function"
    },
    {
      "inputs": [],
      "name": "wNat",
      "outputs": [
        {
          "internalType": "contract IWNat",
          "name": "",
          "type": "address"
        }
      ],
      "stateMutability": "view",
      "type": "function"
    },
    {
      "inputs": [
        {
          "internalType": "uint256",
          "name": "_fAssets",
          "type": "uint256"
        }
      ],
      "name": "withdrawFees",
      "outputs": [],
      "stateMutability": "nonpayable",
      "type": "function"
    },
    {
      "inputs": [
        {
          "internalType": "uint256",
          "name": "_fAssets",
          "type": "uint256"
        },
        {
          "internalType": "address",
          "name": "_recipient",
          "type": "address"
        }
      ],
      "name": "withdrawFeesTo",
      "outputs": [],
      "stateMutability": "nonpayable",
      "type": "function"
    },
    {
      "stateMutability": "payable",
      "type": "receive"
    }
  ],
  "bytecode": "0x60a0604052306080523480156200001557600080fd5b50604051620059783803806200597883398101604081905262000038916200022c565b6200004886868686868662000054565b505050505050620002e6565b600454600160f81b900460ff1615620000b35760405162461bcd60e51b815260206004820152601360248201527f616c726561647920696e697469616c697a656400000000000000000000000000604482015260640160405180910390fd5b600480546001600160f81b0316600160f81b179055600080546001600160a01b038089166001600160a01b0319928316179092556001805488841690831681179091556002805493881693909216929092179055620001145760006200018e565b600160009054906101000a90046001600160a01b03166001600160a01b031663b5a488a66040518163ffffffff1660e01b8152600401602060405180830381865afa15801562000168573d6000803e3d6000fd5b505050506040513d601f19601f820116820180604052508101906200018e9190620002bf565b6004805461ffff909316600160e01b0261ffff60e01b1963ffffffff958616600160c01b021665ffffffffffff60c01b1995909616600160a01b026001600160c01b03199094166001600160a01b039390931692909217929092179290921692909217179055505050565b6001600160a01b03811681146200020f57600080fd5b50565b805163ffffffff811681146200022757600080fd5b919050565b60008060008060008060c087890312156200024657600080fd5b86516200025381620001f9565b60208801519096506200026681620001f9565b60408801519095506200027981620001f9565b9350620002896060880162000212565b9250620002996080880162000212565b915060a087015161ffff81168114620002b157600080fd5b809150509295509295509295565b600060208284031215620002d257600080fd5b8151620002df81620001f9565b9392505050565b60805161565a6200031e60003960008181610f0301528181610f43015281816110ca0152818161110a0152611186015261565a6000f3fe60806040526004361061031d5760003560e01c806387a2a0dc116101ab578063c1b0bbf8116100f7578063e4df73f011610095578063ee781db01161006f578063ee781db01461093f578063f4d000b21461095f578063fc0c546a1461097f578063fd86d3ea1461099f57600080fd5b8063e4df73f0146108ec578063e6916906146108ff578063eaf413fd1461091f57600080fd5b8063cb209413116100d1578063cb2094131461087a578063cbabdf39146108b0578063cbdf382c146108c6578063d1b8890e146108e457600080fd5b8063c1b0bbf814610832578063c79d245d14610852578063c93e29d01461087257600080fd5b8063a854a6a211610164578063b302f3931161013e578063b302f393146107d9578063b337929b146107ee578063b9e26483146103f0578063bbd6fbf81461081257600080fd5b8063a854a6a214610786578063ac3736c1146107a6578063adf58c15146107b957600080fd5b806387a2a0dc146106db57806388985cd6146106f0578063923f89321461071057806394217ad1146107265780639a4247e6146107465780639edbf0071461076657600080fd5b80634ac8eb5f1161026a578063787b9ca81161022357806380f13ee9116101fd57806380f13ee914610668578063815ea9d61461067b578063868c3ba71461069b57806386ac57a2146106bb57600080fd5b8063787b9ca8146106085780637a68a508146106285780637c7db1a51461064857600080fd5b80634ac8eb5f1461055d5780634f1ef2861461057357806352d1902d1461058657806359c3d5491461059b5780635c60da1b146105bb5780635e318e07146105e857600080fd5b80631b92d84a116102d75780633659cfe6116102b15780633659cfe6146104af5780633cfc747d146104cf578063406c7007146105085780634a4ac2ef1461052857600080fd5b80631b92d84a1461043a5780632f35eac21461045a57806333ce01fd1461048f57600080fd5b8062f55d9d1461037b57806301ffc9a71461039b578063026e402b146103d05780630ac07344146103f05780630dc1e5e1146103f057806315e2bfba1461041a57600080fd5b3661037657600454600160f01b900460ff166103745760405162461bcd60e51b81526020600482015260116024820152706f6e6c7920696e7465726e616c2075736560781b60448201526064015b60405180910390fd5b005b600080fd5b34801561038757600080fd5b50610374610396366004614b18565b6109bf565b3480156103a757600080fd5b506103bb6103b6366004614b35565b610c5a565b60405190151581526020015b60405180910390f35b3480156103dc57600080fd5b506103746103eb366004614b5f565b610cac565b3480156103fc57600080fd5b5061040c670de0b6b3a764000081565b6040519081526020016103c7565b34801561042657600080fd5b5061040c610435366004614b18565b610d3e565b34801561044657600080fd5b5061040c610455366004614b8b565b610dd4565b34801561046657600080fd5b5061047a610475366004614bb8565b610e32565b604080519283526020830191909152016103c7565b34801561049b57600080fd5b506103746104aa366004614b18565b610e5b565b3480156104bb57600080fd5b506103746104ca366004614b18565b610ef9565b3480156104db57600080fd5b506004546104f390600160a01b900463ffffffff1681565b60405163ffffffff90911681526020016103c7565b34801561051457600080fd5b5061040c610523366004614b5f565b610fbe565b34801561053457600080fd5b5060045461054a90600160e01b900461ffff1681565b60405161ffff90911681526020016103c7565b34801561056957600080fd5b5061040c60085481565b610374610581366004614c70565b6110c0565b34801561059257600080fd5b5061040c611179565b3480156105a757600080fd5b5061040c6105b6366004614ce7565b61122c565b3480156105c757600080fd5b506105d061132d565b6040516001600160a01b0390911681526020016103c7565b3480156105f457600080fd5b50610374610603366004614b8b565b61133c565b34801561061457600080fd5b50610374610623366004614b8b565b611356565b34801561063457600080fd5b50610374610643366004614b18565b6113fa565b34801561065457600080fd5b506002546105d0906001600160a01b031681565b610374610676366004614da8565b6114ea565b34801561068757600080fd5b506000546105d0906001600160a01b031681565b3480156106a757600080fd5b506103746106b6366004614e29565b611507565b3480156106c757600080fd5b506103746106d6366004614b18565b611521565b3480156106e757600080fd5b50610374611581565b3480156106fc57600080fd5b5061037461070b366004614b8b565b611665565b34801561071c57600080fd5b5061040c60065481565b34801561073257600080fd5b506001546105d0906001600160a01b031681565b34801561075257600080fd5b50610374610761366004614b8b565b61174c565b34801561077257600080fd5b506004546105d0906001600160a01b031681565b34801561079257600080fd5b506103746107a1366004614b8b565b611822565b61047a6107b4366004614e59565b611866565b3480156107c557600080fd5b506103746107d4366004614e7e565b611d23565b3480156107e557600080fd5b50610374611f6e565b3480156107fa57600080fd5b506004546104f390600160c01b900463ffffffff1681565b34801561081e57600080fd5b5061037461082d366004614b5f565b611fd6565b34801561083e57600080fd5b5061040c61084d366004614b18565b612036565b34801561085e57600080fd5b5061040c61086d366004614b18565b61204d565b610374612064565b34801561088657600080fd5b5061040c610895366004614b18565b6001600160a01b031660009081526005602052604090205490565b3480156108bc57600080fd5b5061040c60075481565b3480156108d257600080fd5b506003546001600160a01b03166105d0565b610374612145565b6103746108fa366004614eb3565b612179565b34801561090b57600080fd5b5061037461091a366004614f33565b612196565b34801561092b57600080fd5b5061047a61093a366004614fb8565b612327565b34801561094b57600080fd5b5061037461095a366004614b8b565b612351565b34801561096b57600080fd5b5061037461097a366004614b18565b612597565b34801561098b57600080fd5b506003546105d0906001600160a01b031681565b3480156109ab57600080fd5b5061040c6109ba366004614b18565b6127b7565b6001546001600160a01b031633146109e95760405162461bcd60e51b815260040161036b90614ff6565b6109f16127ce565b600360009054906101000a90046001600160a01b03166001600160a01b03166318160ddd6040518163ffffffff1660e01b8152600401602060405180830381865afa158015610a44573d6000803e3d6000fd5b505050506040513d601f19601f82011682018060405250810190610a689190615022565b15610ac65760405162461bcd60e51b815260206004820152602860248201527f63616e6e6f742064657374726f79206120706f6f6c20776974682069737375656044820152676420746f6b656e7360c01b606482015260840161036b565b60035460405162f55d9d60e01b81526001600160a01b0383811660048301529091169062f55d9d90602401600060405180830381600087803b158015610b0b57600080fd5b505af1158015610b1f573d6000803e3d6000fd5b50505050610b2d8147612847565b600480546040516370a0823160e01b815230928101929092526000916001600160a01b03909116906370a0823190602401602060405180830381865afa158015610b7b573d6000803e3d6000fd5b505050506040513d601f19601f82011682018060405250810190610b9f9190615022565b6002546040516370a0823160e01b81523060048201529192506000916001600160a01b03909116906370a0823190602401602060405180830381865afa158015610bed573d6000803e3d6000fd5b505050506040513d601f19601f82011682018060405250810190610c119190615022565b90508115610c3057600454610c30906001600160a01b031684846128e2565b8015610c4d57600254610c4d906001600160a01b031684836128e2565b5050610c57612934565b50565b60006001600160e01b031982166301ffc9a760e01b1480610c8b57506001600160e01b0319821663982c94a560e01b145b80610ca657506001600160e01b031982166350eb34e160e11b145b92915050565b610cb53361295a565b610cd15760405162461bcd60e51b815260040161036b9061503b565b6004805460405163026e402b60e01b81526001600160a01b03858116938201939093526024810184905291169063026e402b906044015b600060405180830381600087803b158015610d2257600080fd5b505af1158015610d36573d6000803e3d6000fd5b505050505050565b600080610d496129d4565b6003546040516370a0823160e01b81526001600160a01b038681166004830152929350610dcd92909116906370a0823190602401602060405180830381865afa158015610d9a573d6000803e3d6000fd5b505050506040513d601f19601f82011682018060405250810190610dbe9190615022565b610dc88386612bc4565b612cca565b9392505050565b600080610ddf6129d4565b90506000610e008483602001518460600151612ce49092919063ffffffff16565b90506000610e0e8383612e0a565b90506000610e1c8433612e8d565b9050610e288282612cca565b9695505050505050565b600080610e3d6127ce565b610e48843385612ed6565b91509150610e54612934565b9250929050565b6001546001600160a01b03163314610e855760405162461bcd60e51b815260040161036b90614ff6565b6003546001600160a01b031615610ed75760405162461bcd60e51b81526020600482015260166024820152751c1bdbdb081d1bdad95b88185b1c9958591e481cd95d60521b604482015260640161036b565b600380546001600160a01b0319166001600160a01b0392909216919091179055565b6001600160a01b037f0000000000000000000000000000000000000000000000000000000000000000163003610f415760405162461bcd60e51b815260040161036b9061505f565b7f00000000000000000000000000000000000000000000000000000000000000006001600160a01b0316610f7361330e565b6001600160a01b031614610f995760405162461bcd60e51b815260040161036b906150ab565b610fa28161332a565b60408051600080825260208201909252610c5791839190613354565b6000610fc93361295a565b610fe55760405162461bcd60e51b815260040161036b9061503b565b60405163596090c960e11b81523060048201819052602482015260448101839052600160648201526000906001600160a01b0385169063b2c12192906084016020604051808303816000875af1158015611043573d6000803e3d6000fd5b505050506040513d601f19601f820116820180604052508101906110679190615022565b9050806008600082825461107b919061510d565b909155505060408051828152600060208201527f1a53692b4ecb924a87c6d9eae27be062cc1005b4c2d41cc35d8b59dbd6f4ba1b910160405180910390a19392505050565b6001600160a01b037f00000000000000000000000000000000000000000000000000000000000000001630036111085760405162461bcd60e51b815260040161036b9061505f565b7f00000000000000000000000000000000000000000000000000000000000000006001600160a01b031661113a61330e565b6001600160a01b0316146111605760405162461bcd60e51b815260040161036b906150ab565b6111698261332a565b61117582826001613354565b5050565b6000306001600160a01b037f000000000000000000000000000000000000000000000000000000000000000016146112195760405162461bcd60e51b815260206004820152603860248201527f555550535570677261646561626c653a206d757374206e6f742062652063616c60448201527f6c6564207468726f7567682064656c656761746563616c6c0000000000000000606482015260840161036b565b506000805160206155be83398151915290565b60006112373361295a565b6112535760405162461bcd60e51b815260040161036b9061503b565b604051638e33aba560e01b81526000906001600160a01b03871690638e33aba59061128d90309081908a906001908b908b906004016151b3565b6020604051808303816000875af11580156112ac573d6000803e3d6000fd5b505050506040513d601f19601f820116820180604052508101906112d09190615022565b905080600860008282546112e4919061510d565b909155505060408051828152600160208201527f1a53692b4ecb924a87c6d9eae27be062cc1005b4c2d41cc35d8b59dbd6f4ba1b910160405180910390a190505b949350505050565b600061133761330e565b905090565b6113446127ce565b61134e81336134bf565b610c57612934565b6001546001600160a01b031633146113805760405162461bcd60e51b815260040161036b90614ff6565b600454600160c01b900463ffffffff1681116113ce5760405162461bcd60e51b815260206004820152600d60248201526c76616c756520746f6f206c6f7760981b604482015260640161036b565b6113d7816135e3565b600460146101000a81548163ffffffff021916908363ffffffff16021790555050565b6114033361295a565b61141f5760405162461bcd60e51b815260040161036b9061503b565b6004805460408051638c2b8ae160e01b815290516001600160a01b0390921692638c2b8ae19282820192602092908290030181865afa158015611466573d6000803e3d6000fd5b505050506040513d601f19601f8201168201806040525081019061148a91906152cd565b6040516317066a5760e21b81526001600160a01b0383811660048301529190911690635c19a95c90602401600060405180830381600087803b1580156114cf57600080fd5b505af11580156114e3573d6000803e3d6000fd5b5050505050565b6114f26127ce565b6114ff858585858561364c565b6114e3612934565b61150f6127ce565b61151982826134bf565b611175612934565b61152a3361295a565b6115465760405162461bcd60e51b815260040161036b9061503b565b806001600160a01b031663f2a1f7676040518163ffffffff1660e01b8152600401600060405180830381600087803b1580156114cf57600080fd5b61158a3361295a565b6115a65760405162461bcd60e51b815260040161036b9061503b565b6004805460408051638c2b8ae160e01b815290516001600160a01b0390921692638c2b8ae19282820192602092908290030181865afa1580156115ed573d6000803e3d6000fd5b505050506040513d601f19601f8201168201806040525081019061161191906152cd565b6001600160a01b03166392ab89bb6040518163ffffffff1660e01b8152600401600060405180830381600087803b15801561164b57600080fd5b505af115801561165f573d6000803e3d6000fd5b50505050565b6001546001600160a01b0316331461168f5760405162461bcd60e51b815260040161036b90614ff6565b600454600160a01b900463ffffffff1681106116de5760405162461bcd60e51b815260206004820152600e60248201526d0ecc2d8eaca40e8dede40d0d2ced60931b604482015260640161036b565b600081116117205760405162461bcd60e51b815260206004820152600f60248201526e6d757374206265206e6f6e7a65726f60881b604482015260640161036b565b611729816135e3565b600460186101000a81548163ffffffff021916908363ffffffff16021790555050565b6001546001600160a01b031633146117765760405162461bcd60e51b815260040161036b90614ff6565b61271081106117b85760405162461bcd60e51b815260206004820152600e60248201526d0ecc2d8eaca40e8dede40d0d2ced60931b604482015260640161036b565b600081116117fa5760405162461bcd60e51b815260206004820152600f60248201526e6d757374206265206e6f6e7a65726f60881b604482015260640161036b565b61180381613efa565b6004601c6101000a81548161ffff021916908361ffff16021790555050565b6001546001600160a01b0316331461184c5760405162461bcd60e51b815260040161036b90614ff6565b806007600082825461185e919061510d565b909155505050565b6000806118716127ce565b600061187b6129d4565b9050670de0b6b3a76400003410156118d55760405162461bcd60e51b815260206004820152601d60248201527f616d6f756e74206f66206e61742073656e7420697320746f6f206c6f77000000604482015260640161036b565b8060200151600003611a365780606001513410156119815760405162461bcd60e51b815260206004820152606060248201527f696620706f6f6c20686173206e6f20746f6b656e732c2062757420686f6c647360448201527f20636f6c6c61746572616c2c20796f75206e65656420746f2073656e6420617460648201527f206c65617374207468617420616d6f756e74206f6620636f6c6c61746572616c608482015260a40161036b565b60c081015160e0820151608083015161199b929091612ce4565b341015611a365760405162461bcd60e51b815260206004820152605f60248201527f496620706f6f6c20686173206e6f20746f6b656e732c2062757420686f6c647360448201527f20662d61737365742c20796f75206e65656420746f2073656e64206174206c6560648201527f61737420662d617373657420776f727468206f6620636f6c6c61746572616c00608482015260a40161036b565b6000611a428234613f5d565b9050600080836020015111611a58576000611a6d565b602083015160a0840151611a6d918490612ce4565b9050600086611a8557611a8088836140b0565b611a87565b815b90508015611baf576002546040516352adac0760e11b81526000916001600160a01b03169063a55b580e90611ac4903390309087906004016152ea565b6040805180830381865afa158015611ae0573d6000803e3d6000fd5b505050506040513d601f19601f82011682018060405250810190611b04919061530e565b9150611b129050818361510d565b600254604051636eb1769f60e11b81523360048201523060248201526001600160a01b039091169063dd62ed3e90604401602060405180830381865afa158015611b60573d6000803e3d6000fd5b505050506040513d601f19601f82011682018060405250810190611b849190615022565b1015611ba25760405162461bcd60e51b815260040161036b90615332565b611bad3330846140c6565b505b611bc233611bbd8385615369565b6141e2565b611bca61422c565b6001546000546004805460405163053fe26160e31b81526001600160a01b0393841692810192909252821660248201529116906329ff130890604401600060405180830381600087803b158015611c2057600080fd5b505af1158015611c34573d6000803e3d6000fd5b50506003546040516340c10f1960e01b815233600482015260248101879052600093506001600160a01b0390911691506340c10f19906044016020604051808303816000875af1158015611c8c573d6000803e3d6000fd5b505050506040513d601f19601f82011682018060405250810190611cb09190615022565b33600081815260056020908152604091829020548251348152918201899052818301879052606082015260808101849052905192935090917f8837aea61d24df2daef4ee681be933e5ea5c7ebe3cde964adef015dad51fe7859181900360a00190a2929550919350505050610e54612934565b6001546001600160a01b03163314611d4d5760405162461bcd60e51b815260040161036b90614ff6565b611d556127ce565b6000611d5f6129d4565b9050611d6b848461428e565b600354600080546040516370a0823160e01b81526001600160a01b039182166004820152919216906370a0823190602401602060405180830381865afa158015611db9573d6000803e3d6000fd5b505050506040513d601f19601f82011682018060405250810190611ddd9190615022565b9050600080836060015111611df25781611e07565b60608301516020840151611e07918690612ce4565b90506000611e1582846140b0565b90508015611f195760008054611e389086906001600160a01b03168460026142c2565b50600054909150611e52906001600160a01b03168261444a565b6003546000546040516376fd4fdf60e01b81526001600160a01b03928316926376fd4fdf92611e8b92911690869060019060040161537c565b600060405180830381600087803b158015611ea557600080fd5b505af1158015611eb9573d6000803e3d6000fd5b5050600080546001600160a01b03168082526005602090815260408084205481518981529283018590529082018490526060820193909352608081019290925292506000805160206155de833981519152915060a00160405180910390a2505b60408051878152602081018390526001600160a01b038916917f7ca7469714f3e1d8732b3a67b0599fba3be82b826137fcfa805c19afc2b20aeb910160405180910390a250505050611f69612934565b505050565b611f773361295a565b611f935760405162461bcd60e51b815260040161036b9061503b565b600480546040805163b302f39360e01b815290516001600160a01b039092169263b302f39392828201926000929082900301818387803b15801561164b57600080fd5b611fdf3361295a565b611ffb5760405162461bcd60e51b815260040161036b9061503b565b6004805460405163177adf7f60e31b81526001600160a01b03858116938201939093526024810184905291169063bbd6fbf890604401610d08565b6000806120416129d4565b9050610dcd8184612e8d565b6000806120586129d4565b9050610dcd8184612bc4565b670de0b6b3a764000034101580156120895750606460085461208691906153b5565b34105b6121065760405162461bcd60e51b815260206004820152604260248201527f646f6e6174696f6e206d757374206265206265747765656e2031204e4154206160448201527f6e64203125206f662074686520746f74616c20706f6f6c20636f6c6c61746572606482015261185b60f21b608482015260a40161036b565b61210e61422c565b60405134815233907f2a01595cddf097c90216094025db714da3f4e5bd8877b56ba86a24ecead8e5439060200160405180910390a2565b6001546001600160a01b0316331461216f5760405162461bcd60e51b815260040161036b90614ff6565b61217761422c565b565b6121816127ce565b61218e848433858561364c565b61165f612934565b600454600160f81b900460ff16156121e65760405162461bcd60e51b8152602060048201526013602482015272185b1c9958591e481a5b9a5d1a585b1a5e9959606a1b604482015260640161036b565b600480546001600160f81b0316600160f81b179055600080546001600160a01b038089166001600160a01b03199283161790925560018054888416908316811790915560028054938816939092169290921790556122455760006122bc565b600160009054906101000a90046001600160a01b03166001600160a01b031663b5a488a66040518163ffffffff1660e01b8152600401602060405180830381865afa158015612298573d6000803e3d6000fd5b505050506040513d601f19601f820116820180604052508101906122bc91906152cd565b6004805461ffff909316600160e01b0261ffff60e01b1963ffffffff958616600160c01b021665ffffffffffff60c01b1995909616600160a01b026001600160c01b03199094166001600160a01b039390931692909217929092179290921692909217179055505050565b6000806123326127ce565b61233d858585612ed6565b91509150612349612934565b935093915050565b6123596127ce565b806000036123a95760405162461bcd60e51b815260206004820152601960248201527f7a65726f20662d61737365742064656274207061796d656e7400000000000000604482015260640161036b565b336000908152600560205260409020548111156124085760405162461bcd60e51b815260206004820152601e60248201527f6465627420662d61737365742062616c616e636520746f6f20736d616c6c0000604482015260640161036b565b6002546040516352adac0760e11b81526000916001600160a01b03169063a55b580e9061243d903390309087906004016152ea565b6040805180830381865afa158015612459573d6000803e3d6000fd5b505050506040513d601f19601f8201168201806040525081019061247d919061530e565b915061248b9050818361510d565b600254604051636eb1769f60e11b81523360048201523060248201526001600160a01b039091169063dd62ed3e90604401602060405180830381865afa1580156124d9573d6000803e3d6000fd5b505050506040513d601f19601f820116820180604052508101906124fd9190615022565b101561251b5760405162461bcd60e51b815260040161036b90615332565b612525338361444a565b6125303330846140c6565b336000818152600560209081526040808320548151848152928301849052908201869052606082015260808101919091527f8837aea61d24df2daef4ee681be933e5ea5c7ebe3cde964adef015dad51fe7859060a00160405180910390a250610c57612934565b6001546001600160a01b031633146125c15760405162461bcd60e51b815260040161036b90614ff6565b6125c96127ce565b6004546001600160a01b0382811691161461134e57600480546040516370a0823160e01b815230928101929092526000916001600160a01b03909116906370a0823190602401602060405180830381865afa15801561262c573d6000803e3d6000fd5b505050506040513d601f19601f820116820180604052508101906126509190615022565b6004805460ff60f01b198116600160f01b178255604051632e1a7d4d60e01b81529293506001600160a01b031691632e1a7d4d916126949185910190815260200190565b600060405180830381600087803b1580156126ae57600080fd5b505af11580156126c2573d6000803e3d6000fd5b50506004805460ff60f01b1916815560408051630d0e30db60e41b815290516001600160a01b038716945063d0e30db09350859282810192600092919082900301818588803b15801561271457600080fd5b505af1158015612728573d6000803e3d6000fd5b5050600480546001600160a01b0319166001600160a01b03878116918217835560015460005460405163053fe26160e31b81529083169481019490945260248401929092521693506329ff130892506044019050600060405180830381600087803b15801561279657600080fd5b505af11580156127aa573d6000803e3d6000fd5b5050505050610c57612934565b6000806127c26129d4565b9050610dcd818461448b565b7f0cd2207518cd3e5213e2c6dbe63d55b60aa893c194a427b7d7f1600408fd5bde8054600119016128415760405162461bcd60e51b815260206004820152601f60248201527f5265656e7472616e637947756172643a207265656e7472616e742063616c6c00604482015260640161036b565b60029055565b8015611175576000826001600160a01b03168260405160006040518083038185875af1925050503d806000811461289a576040519150601f19603f3d011682016040523d82523d6000602084013e61289f565b606091505b5050905080611f695760405162461bcd60e51b815260206004820152600f60248201526e1d1c985b9cd9995c8819985a5b1959608a1b604482015260640161036b565b604080516001600160a01b038416602482015260448082018490528251808303909101815260649091019091526020810180516001600160e01b031663a9059cbb60e01b179052611f69908490614526565b60017f0cd2207518cd3e5213e2c6dbe63d55b60aa893c194a427b7d7f1600408fd5bde55565b6001546000805460405163d6b93a9f60e01b81526001600160a01b03918216600482015284821660248201529192169063d6b93a9f90604401602060405180830381865afa1580156129b0573d6000803e3d6000fd5b505050506040513d601f19601f82011682018060405250810190610ca691906153c9565b612a1c60405180610100016040528060008152602001600081526020016000815260200160008152602001600081526020016000815260200160008152602001600081525090565b60075460015460408051628c4abb60e21b8152815160009384936001600160a01b03909116926302312aec92600480830193928290030181865afa158015612a68573d6000803e3d6000fd5b505050506040513d601f19601f82011682018060405250810190612a8c919061530e565b91509150604051806101000160405280612aa46145fb565b8152600354604080516318160ddd60e01b815290516020938401936001600160a01b03909316926318160ddd92600480820193918290030181865afa158015612af1573d6000803e3d6000fd5b505050506040513d601f19601f82011682018060405250810190612b159190615022565b815260015460005460405163769bb15560e11b81526001600160a01b03918216600482015260209093019291169063ed3762aa90602401602060405180830381865afa158015612b69573d6000803e3d6000fd5b505050506040513d601f19601f82011682018060405250810190612b8d9190615022565b8152602001600854815260200184815260200160065485612bae919061510d565b8152602081019390935260409092015292915050565b6003546040516370a0823160e01b81526001600160a01b03838116600483015260009283929116906370a0823190602401602060405180830381865afa158015612c12573d6000803e3d6000fd5b505050506040513d601f19601f82011682018060405250810190612c369190615022565b905080600003612c4a576000915050610ca6565b6001600160a01b03831660009081526005602052604081205490819003612c7357509050610ca6565b6000612c928387602001518860a00151612ce49092919063ffffffff16565b90506000612ca08284612cca565b9050612cbf818860a001518960200151612ce49092919063ffffffff16565b979650505050505050565b6000818311612cda576000610dcd565b610dcd8284615369565b6000808211612d285760405162461bcd60e51b815260206004820152601060248201526f4469766973696f6e206279207a65726f60801b604482015260640161036b565b83600003612d3857506000610dcd565b83830283858281612d4b57612d4b61539f565b0403612d6957828181612d6057612d6061539f565b04915050610dcd565b506000612d7683866153b5565b90506000612d8484876153e6565b90506000612d9285876153b5565b90506000612da086886153e6565b905085612dad82856153fa565b612db791906153b5565b612dc183856153fa565b612dcb83876153fa565b88612dd686896153fa565b612de091906153fa565b612dea919061510d565b612df4919061510d565b612dfe919061510d565b98975050505050505050565b6000612e1c8360008560000151614694565b15612e78576040830151835160c0850151612e719291612e3b916153fa565b612710858760600151612e4e9190615369565b8760e00151612e5d91906153fa565b612e6791906153fa565b610dc891906153b5565b9050610ca6565b60608301516040840151612e71918490612ce4565b600080612e9a848461448b565b6001600160a01b038416600090815260056020526040902054909150612ecd612ec38383612cca565b86608001516140b0565b95945050505050565b60008060008511612f1f5760405162461bcd60e51b8152602060048201526013602482015272746f6b656e207368617265206973207a65726f60681b604482015260640161036b565b6003546040516370a0823160e01b81523360048201526001600160a01b03909116906370a0823190602401602060405180830381865afa158015612f67573d6000803e3d6000fd5b505050506040513d601f19601f82011682018060405250810190612f8b9190615022565b851115612fd25760405162461bcd60e51b8152602060048201526015602482015274746f6b656e2062616c616e636520746f6f206c6f7760581b604482015260640161036b565b6000612fdc6129d4565b905085816020015114806130075750670de0b6b3a76400008682602001516130049190615369565b10155b6130235760405162461bcd60e51b815260040161036b90615411565b60006130428260600151836020015189612ce49092919063ffffffff16565b9050600081116130645760405162461bcd60e51b815260040161036b90615465565b808260600151148061308d5750670de0b6b3a764000081836060015161308a9190615369565b10155b6130a95760405162461bcd60e51b815260040161036b906154a7565b600260009054906101000a90046001600160a01b03166001600160a01b031663194307bf6040518163ffffffff1660e01b8152600401602060405180830381865afa1580156130fc573d6000803e3d6000fd5b505050506040513d601f19601f8201168201806040525081019061312091906153c9565b156131a3576003546040516376fd4fdf60e01b81526001600160a01b03909116906376fd4fdf9061315a9033908b9060019060040161537c565b600060405180830381600087803b15801561317457600080fd5b505af1158015613188573d6000803e3d6000fd5b5050505061319686826146d7565b9250600091506123499050565b6131b282828460000151614694565b61320a5760405162461bcd60e51b815260206004820152602360248201527f636f6c6c61746572616c20726174696f2066616c6c732062656c6f77206578696044820152623a21a960e91b606482015260840161036b565b60008061321984338b8a6142c2565b9092509050801561322f5761322f3089836140c6565b811561323f5761323f338361444a565b6003546040516376fd4fdf60e01b81526001600160a01b03909116906376fd4fdf906132749033908d9060009060040161537c565b600060405180830381600087803b15801561328e57600080fd5b505af11580156132a2573d6000803e3d6000fd5b505050506132b088846146d7565b3360008181526005602090815260408083205481518e8152928301889052908201859052606082019290925260808101919091526000805160206155de8339815191529060a00160405180910390a291989197509095505050505050565b6000805160206155be833981519152546001600160a01b031690565b6001546001600160a01b03163314610c575760405162461bcd60e51b815260040161036b90614ff6565b7f4910fdfa16fed3260ed0e7147f7cc6da11a60208b5b9406d12a635614ffd91435460ff161561338757611f6983614778565b826001600160a01b03166352d1902d6040518163ffffffff1660e01b8152600401602060405180830381865afa9250505080156133e1575060408051601f3d908101601f191682019092526133de91810190615022565b60015b6134445760405162461bcd60e51b815260206004820152602e60248201527f45524331393637557067726164653a206e657720696d706c656d656e7461746960448201526d6f6e206973206e6f74205555505360901b606482015260840161036b565b6000805160206155be83398151915281146134b35760405162461bcd60e51b815260206004820152602960248201527f45524331393637557067726164653a20756e737570706f727465642070726f786044820152681a58589b195555525160ba1b606482015260840161036b565b50611f69838383614814565b6000821161350f5760405162461bcd60e51b815260206004820181905260248201527f747279696e6720746f207769746864726177207a65726f20662d617373657473604482015260640161036b565b60006135196129d4565b905060006135278233612e8d565b9050808411156135795760405162461bcd60e51b815260206004820152601e60248201527f6672656520662d61737365742062616c616e636520746f6f20736d616c6c0000604482015260640161036b565b61358333856141e2565b61358e3084866140c6565b336000818152600560209081526040808320548151848152928301849052908201889052606082019290925260808101919091526000805160206155de8339815191529060a00160405180910390a250505050565b600063ffffffff8211156136485760405162461bcd60e51b815260206004820152602660248201527f53616665436173743a2076616c756520646f65736e27742066697420696e203360448201526532206269747360d01b606482015260840161036b565b5090565b600085116136925760405162461bcd60e51b8152602060048201526013602482015272746f6b656e207368617265206973207a65726f60681b604482015260640161036b565b6003546040516370a0823160e01b81523360048201526001600160a01b03909116906370a0823190602401602060405180830381865afa1580156136da573d6000803e3d6000fd5b505050506040513d601f19601f820116820180604052508101906136fe9190615022565b8511156137455760405162461bcd60e51b8152602060048201526015602482015274746f6b656e2062616c616e636520746f6f206c6f7760581b604482015260640161036b565b600061374f6129d4565b9050858160200151148061377a5750670de0b6b3a76400008682602001516137779190615369565b10155b6137965760405162461bcd60e51b815260040161036b90615411565b60006137b58783602001518460600151612ce49092919063ffffffff16565b9050600081116137d75760405162461bcd60e51b815260040161036b90615465565b80826060015114806138005750670de0b6b3a76400008183606001516137fd9190615369565b10155b61381c5760405162461bcd60e51b815260040161036b906154a7565b60015460008054604051631e8bee0160e01b81526001600160a01b03918216600482015291921690631e8bee0190602401602060405180830381865afa15801561386a573d6000803e3d6000fd5b505050506040513d601f19601f8201168201806040525081019061388e9190615022565b9050600061389c8484612e0a565b9050808210156139d25750806138b28482614839565b92506000831161393b5760405162461bcd60e51b815260206004820152604860248201527f616d6f756e74206f662073656e7420746f6b656e7320697320746f6f20736d6160448201527f6c6c206166746572206167656e74206d617820726564656d7074696f6e20636f606482015267393932b1ba34b7b760c11b608482015260a40161036b565b82846060015114806139645750670de0b6b3a76400008385606001516139619190615369565b10155b6139805760405162461bcd60e51b815260040161036b906154a7565b60608401516020850151613995918590612ce4565b6040805182815260208101849052919a507f7543f09ac709677c25f5aa8284e92f885eae7c7496789dd47cf87e28e5a1cf1c910160405180910390a15b60006139de8533612e8d565b90506000806139f087338e60006142c2565b9150915083831015613be5576000613a088486615369565b6002546040516352adac0760e11b81529192506000916001600160a01b039091169063a55b580e90613a42903390309087906004016152ea565b6040805180830381865afa158015613a5e573d6000803e3d6000fd5b505050506040513d601f19601f82011682018060405250810190613a82919061530e565b9150613a909050818361510d565b600254604051636eb1769f60e11b81523360048201523060248201526001600160a01b039091169063dd62ed3e90604401602060405180830381865afa158015613ade573d6000803e3d6000fd5b505050506040513d601f19601f82011682018060405250810190613b029190615022565b1015613b205760405162461bcd60e51b815260040161036b90615332565b600254604051634b9a2c3760e11b81526000916001600160a01b031690639734586e90613b55903390309088906004016152ea565b6020604051808303816000875af1158015613b74573d6000803e3d6000fd5b505050506040513d601f19601f82011682018060405250810190613b9891906153c9565b905080613be15760405162461bcd60e51b8152602060048201526017602482015276198b585cdcd95d081d1c985b9cd9995c8819985a5b1959604a1b604482015260640161036b565b5050505b8315613d7057600160009054906101000a90046001600160a01b03166001600160a01b0316634942f65f6040518163ffffffff1660e01b8152600401602060405180830381865afa158015613c3e573d6000803e3d6000fd5b505050506040513d601f19601f82011682018060405250810190613c629190615022565b841080613c6c57508a5b15613ce057600154600054604051630ed000b360e41b81526001600160a01b039283169263ed000b3092613ca9929116908e9089906004016152ea565b600060405180830381600087803b158015613cc357600080fd5b505af1158015613cd7573d6000803e3d6000fd5b50505050613d70565b600160009054906101000a90046001600160a01b03166001600160a01b031663997be0f43460008054906101000a90046001600160a01b03168d888e8e6040518763ffffffff1660e01b8152600401613d3d959493929190615549565b6000604051808303818588803b158015613d5657600080fd5b505af1158015613d6a573d6000803e3d6000fd5b50505050505b6000613d7c85856140b0565b90508015613dce578060076000828254613d969190615369565b90915550613da6905033826141e2565b6000613db282846140b0565b9050613dbe8184615369565b9250613dca818561510d565b9350505b8115613ddf57613ddf308c846140c6565b8215613def57613def338461444a565b600360009054906101000a90046001600160a01b03166001600160a01b03166376fd4fdf338f60006040518463ffffffff1660e01b8152600401613e359392919061537c565b600060405180830381600087803b158015613e4f57600080fd5b505af1158015613e63573d6000803e3d6000fd5b50505050613e718b886146d7565b336001600160a01b03166000805160206155de8339815191528e89848960056000336001600160a01b03166001600160a01b0316815260200190815260200160002054604051613ee3959493929190948552602085019390935260408401919091526060830152608082015260a00190565b60405180910390a250505050505050505050505050565b600061ffff8211156136485760405162461bcd60e51b815260206004820152602660248201527f53616665436173743a2076616c756520646f65736e27742066697420696e203160448201526536206269747360d01b606482015260840161036b565b600080836060015160001480613f7557506020840151155b600454604086015160c0870151929350600092613fa992600160c01b900463ffffffff1691613fa3916153fa565b90614899565b905060008560e001518660600151613fc191906153fa565b8211613fce576000613fec565b606086015160e0870151613fe290846153b5565b613fec9190615369565b90506000613ffa86836140b0565b905060006140088783612cca565b60045490915060009061402b90849061271090600160e01b900461ffff16612ce4565b905060008661404e5760608a015160208b0151614049918490612ce4565b614050565b815b9050600087801561405f575081155b6140935761408e84868d60600151614077919061510d565b848e60200151614087919061510d565b9190612ce4565b614095565b835b90506140a1818361510d565b9b9a5050505050505050505050565b60008183106140bf5781610dcd565b5090919050565b8015611f6957306001600160a01b0384160361410a5780600760008282546140ee9190615369565b9091555050600254611f69906001600160a01b031683836128e2565b806007600082825461411c919061510d565b9091555050600254604051634b9a2c3760e11b81526000916001600160a01b031690639734586e90614156908790879087906004016152ea565b6020604051808303816000875af1158015614175573d6000803e3d6000fd5b505050506040513d601f19601f8201168201806040525081019061419991906153c9565b90508061165f5760405162461bcd60e51b8152602060048201526017602482015276198b585cdcd95d081d1c985b9cd9995c8819985a5b1959604a1b604482015260640161036b565b6001600160a01b0382166000908152600560205260408120805483929061420a90849061510d565b925050819055508060066000828254614223919061510d565b90915550505050565b3415612177573460086000828254614244919061510d565b90915550506004805460408051630d0e30db60e41b815290516001600160a01b039092169263d0e30db0923492808301926000929182900301818588803b1580156114cf57600080fd5b80156111755780600860008282546142a69190615369565b9091555050600454611175906001600160a01b031683836128e2565b60008060006142d1878761448b565b6001600160a01b038781166000818152600560205260408082205460035491516370a0823160e01b81526004810194909452949550909216906370a0823190602401602060405180830381865afa158015614330573d6000803e3d6000fd5b505050506040513d601f19601f820116820180604052508101906143549190615022565b90508060000361436d5760008094509450505050614441565b600061437a848984612ce4565b9050600087600281111561439057614390615120565b036143c15760006143a18585612cca565b90506143ad82826140b0565b95506143b98683615369565b965050614420565b60018760028111156143d5576143d5615120565b036143f7576143e481846140b0565b95506143f08682615369565b9450614420565b60008411614406576000614411565b614411838286612ce4565b955061441d8187612cca565b94505b61442c856007546140b0565b945061443a866006546140b0565b9550505050505b94509492505050565b6001600160a01b03821660009081526005602052604081208054839290614472908490615369565b9250508190555080600660008282546142239190615369565b6003546040516370a0823160e01b81526001600160a01b03838116600483015260009283929116906370a0823190602401602060405180830381865afa1580156144d9573d6000803e3d6000fd5b505050506040513d601f19601f820116820180604052508101906144fd9190615022565b905080600003614511576000915050610ca6565b602084015160a0850151611325918390612ce4565b600061457b826040518060400160405280602081526020017f5361666545524332303a206c6f772d6c6576656c2063616c6c206661696c6564815250856001600160a01b03166148a89092919063ffffffff16565b905080516000148061459c57508080602001905181019061459c91906153c9565b611f695760405162461bcd60e51b815260206004820152602a60248201527f5361666545524332303a204552433230206f7065726174696f6e20646964206e6044820152691bdd081cdd58d8d9595960b21b606482015260840161036b565b6001546000805460405163cd71593560e01b81526001600160a01b0391821660048201529192839291169063cd71593590602401602060405180830381865afa15801561464c573d6000803e3d6000fd5b505050506040513d601f19601f820116820180604052508101906146709190615022565b60045490915061468e908290600160a01b900463ffffffff166148b7565b91505090565b60006146ae828560c001518660400151613fa391906153fa565b8460e001518486606001516146c39190615369565b6146cd91906153fa565b1015949350505050565b80156111755780600860008282546146ef9190615369565b909155505060048054600160f01b60ff60f01b198216178255604051632e1a7d4d60e01b81529182018390526001600160a01b031690632e1a7d4d90602401600060405180830381600087803b15801561474857600080fd5b505af115801561475c573d6000803e3d6000fd5b50506004805460ff60f01b191690555061117590508282612847565b6001600160a01b0381163b6147e55760405162461bcd60e51b815260206004820152602d60248201527f455243313936373a206e657720696d706c656d656e746174696f6e206973206e60448201526c1bdd08184818dbdb9d1c9858dd609a1b606482015260840161036b565b6000805160206155be83398151915280546001600160a01b0319166001600160a01b0392909216919091179055565b61481d836148c6565b60008251118061482a5750805b15611f695761165f8383614906565b600061484b8360008560000151614694565b1561488457612e7183606001518460e00151612e6786600001518688604001516148759190615369565b8860c00151613fa391906153fa565b60408301516060840151612e71918490612ce4565b6000610dcd8383612710612ce4565b6060611325848460008561492b565b60008183116140bf5781610dcd565b6148cf81614778565b6040516001600160a01b038216907fbc7cd75a20ee27fd9adebab32041f755214dbc6bffa90cc0225b39da2e5c2d3b90600090a250565b6060610dcd83836040518060600160405280602781526020016155fe602791396149fb565b60608247101561498c5760405162461bcd60e51b815260206004820152602660248201527f416464726573733a20696e73756666696369656e742062616c616e636520666f6044820152651c8818d85b1b60d21b606482015260840161036b565b600080866001600160a01b031685876040516149a8919061558e565b60006040518083038185875af1925050503d80600081146149e5576040519150601f19603f3d011682016040523d82523d6000602084013e6149ea565b606091505b5091509150612cbf87838387614a65565b6060600080856001600160a01b031685604051614a18919061558e565b600060405180830381855af49150503d8060008114614a53576040519150601f19603f3d011682016040523d82523d6000602084013e614a58565b606091505b5091509150610e28868383875b60608315614ad4578251600003614acd576001600160a01b0385163b614acd5760405162461bcd60e51b815260206004820152601d60248201527f416464726573733a2063616c6c20746f206e6f6e2d636f6e7472616374000000604482015260640161036b565b5081611325565b6113258383815115614ae95781518083602001fd5b8060405162461bcd60e51b815260040161036b91906155aa565b6001600160a01b0381168114610c5757600080fd5b600060208284031215614b2a57600080fd5b8135610dcd81614b03565b600060208284031215614b4757600080fd5b81356001600160e01b031981168114610dcd57600080fd5b60008060408385031215614b7257600080fd5b8235614b7d81614b03565b946020939093013593505050565b600060208284031215614b9d57600080fd5b5035919050565b803560038110614bb357600080fd5b919050565b60008060408385031215614bcb57600080fd5b82359150614bdb60208401614ba4565b90509250929050565b634e487b7160e01b600052604160045260246000fd5b600067ffffffffffffffff80841115614c1557614c15614be4565b604051601f8501601f19908116603f01168101908282118183101715614c3d57614c3d614be4565b81604052809350858152868686011115614c5657600080fd5b858560208301376000602087830101525050509392505050565b60008060408385031215614c8357600080fd5b8235614c8e81614b03565b9150602083013567ffffffffffffffff811115614caa57600080fd5b8301601f81018513614cbb57600080fd5b614cca85823560208401614bfa565b9150509250929050565b803562ffffff81168114614bb357600080fd5b60008060008060608587031215614cfd57600080fd5b8435614d0881614b03565b9350614d1660208601614cd4565b9250604085013567ffffffffffffffff80821115614d3357600080fd5b818701915087601f830112614d4757600080fd5b813581811115614d5657600080fd5b8860208260051b8501011115614d6b57600080fd5b95989497505060200194505050565b8015158114610c5757600080fd5b600082601f830112614d9957600080fd5b610dcd83833560208501614bfa565b600080600080600060a08688031215614dc057600080fd5b853594506020860135614dd281614d7a565b93506040860135614de281614b03565b9250606086013567ffffffffffffffff811115614dfe57600080fd5b614e0a88828901614d88565b9250506080860135614e1b81614b03565b809150509295509295909350565b60008060408385031215614e3c57600080fd5b823591506020830135614e4e81614b03565b809150509250929050565b60008060408385031215614e6c57600080fd5b823591506020830135614e4e81614d7a565b600080600060608486031215614e9357600080fd5b8335614e9e81614b03565b95602085013595506040909401359392505050565b60008060008060808587031215614ec957600080fd5b843593506020850135614edb81614d7a565b9250604085013567ffffffffffffffff811115614ef757600080fd5b614f0387828801614d88565b9250506060850135614f1481614b03565b939692955090935050565b803563ffffffff81168114614bb357600080fd5b60008060008060008060c08789031215614f4c57600080fd5b8635614f5781614b03565b95506020870135614f6781614b03565b94506040870135614f7781614b03565b9350614f8560608801614f1f565b9250614f9360808801614f1f565b915060a087013561ffff81168114614faa57600080fd5b809150509295509295509295565b600080600060608486031215614fcd57600080fd5b833592506020840135614fdf81614b03565b9150614fed60408501614ba4565b90509250925092565b60208082526012908201527137b7363c9030b9b9b2ba1036b0b730b3b2b960711b604082015260600190565b60006020828403121561503457600080fd5b5051919050565b6020808252600a90820152691bdb9b1e481859d95b9d60b21b604082015260600190565b6020808252602c908201527f46756e6374696f6e206d7573742062652063616c6c6564207468726f7567682060408201526b19195b1959d85d1958d85b1b60a21b606082015260800190565b6020808252602c908201527f46756e6374696f6e206d7573742062652063616c6c6564207468726f7567682060408201526b6163746976652070726f787960a01b606082015260800190565b634e487b7160e01b600052601160045260246000fd5b80820180821115610ca657610ca66150f7565b634e487b7160e01b600052602160045260246000fd5b62ffffff61514382614cd4565b16825260208101356bffffffffffffffffffffffff19811680821461516757600080fd5b60208401525060408101356effffffffffffffffffffffffffffff811680821461519057600080fd5b6040840152506060810135600581106151a857600080fd5b806060840152505050565b6001600160a01b038781168252861660208083019190915262ffffff86166040830152841515606083015260a06080830181905282810184905260009160c09081850190600587811b8701840189875b8a8110156152b95789830360bf190186528135368d9003609e1901811261522957600080fd5b8c01803536829003601e1901811261524057600080fd5b8101868101903567ffffffffffffffff81111561525c57600080fd5b80871b80360383131561526e57600080fd5b8b8752868c018290526001600160fb1b0382111561528b57600080fd5b80838c89013761529f8988018a8601615136565b988801989590950189019450505090840190600101615203565b50909e9d5050505050505050505050505050565b6000602082840312156152df57600080fd5b8151610dcd81614b03565b6001600160a01b039384168152919092166020820152604081019190915260600190565b6000806040838503121561532157600080fd5b505080516020909101519092909150565b6020808252601b908201527f662d617373657420616c6c6f77616e636520746f6f20736d616c6c0000000000604082015260600190565b81810381811115610ca657610ca66150f7565b6001600160a01b0393909316835260208301919091521515604082015260600190565b634e487b7160e01b600052601260045260246000fd5b6000826153c4576153c461539f565b500490565b6000602082840312156153db57600080fd5b8151610dcd81614d7a565b6000826153f5576153f561539f565b500690565b8082028115828204841417610ca657610ca66150f7565b60208082526034908201527f746f6b656e20737570706c79206c656674206166746572206578697420697320604082015273746f6f206c6f7720616e64206e6f6e2d7a65726f60601b606082015260800190565b60208082526022908201527f616d6f756e74206f662073656e7420746f6b656e7320697320746f6f20736d616040820152611b1b60f21b606082015260800190565b60208082526032908201527f636f6c6c61746572616c206c656674206166746572206578697420697320746f6040820152716f206c6f7720616e64206e6f6e2d7a65726f60701b606082015260800190565b60005b838110156155145781810151838201526020016154fc565b50506000910152565b600081518084526155358160208601602086016154f9565b601f01601f19169290920160200192915050565b600060018060a01b038088168352808716602084015285604084015260a0606084015261557960a084018661551d565b91508084166080840152509695505050505050565b600082516155a08184602087016154f9565b9190910192915050565b602081526000610dcd602083018461551d56fe360894a13ba1a3210667c828492db98dca3e2076cc3735a920a3ca505d382bbc3cbd229dedaa8b29b8f29100166a217701549be8e58e781f204124f23fd0154e416464726573733a206c6f772d6c6576656c2064656c65676174652063616c6c206661696c6564a2646970667358221220746ee5a820314864db6a22bef0de83a3454566cb0b4849ef014a6ab54b0fae1a64736f6c63430008170033",
  "linkReferences": {},
  "deployedLinkReferences": {}
}