{
  "_format": "hh-sol-artifact-1",
  "contractName": "CollateralPool",
  "sourceName": "contracts/assetManager/implementation/CollateralPool.sol",
  "abi": [
    {
      "inputs": [
        {
          "internalType": "address",
          "name": "_agentVault",
          "type": "address"
        },
        {
          "internalType": "address",
          "name": "_assetManager",
          "type": "address"
        },
        {
          "internalType": "address",
          "name": "_fAsset",
          "type": "address"
        },
        {
          "internalType": "uint32",
          "name": "_exitCollateralRatioBIPS",
          "type": "uint32"
        },
        {
          "internalType": "uint32",
          "name": "_topupCollateralRatioBIPS",
          "type": "uint32"
        },
        {
          "internalType": "uint16",
          "name": "_topupTokenPriceFactorBIPS",
          "type": "uint16"
        }
      ],
      "stateMutability": "nonpayable",
      "type": "constructor"
    },
    {
      "anonymous": false,
      "inputs": [
        {
          "indexed": true,
          "internalType": "address",
          "name": "tokenHolder",
          "type": "address"
        },
        {
          "indexed": false,
          "internalType": "uint256",
          "name": "amountNatWei",
          "type": "uint256"
        },
        {
          "indexed": false,
          "internalType": "uint256",
          "name": "receivedTokensWei",
          "type": "uint256"
        },
        {
          "indexed": false,
          "internalType": "uint256",
          "name": "addedFAssetFeesUBA",
          "type": "uint256"
        },
        {
          "indexed": false,
          "internalType": "uint256",
          "name": "newFAssetFeeDebt",
          "type": "uint256"
        },
        {
          "indexed": false,
          "internalType": "uint256",
          "name": "timelockExpiresAt",
          "type": "uint256"
        }
      ],
      "name": "Entered",
      "type": "event"
    },
    {
      "anonymous": false,
      "inputs": [
        {
          "indexed": true,
          "internalType": "address",
          "name": "tokenHolder",
          "type": "address"
        },
        {
          "indexed": false,
          "internalType": "uint256",
          "name": "burnedTokensWei",
          "type": "uint256"
        },
        {
          "indexed": false,
          "internalType": "uint256",
          "name": "receivedNatWei",
          "type": "uint256"
        },
        {
          "indexed": false,
          "internalType": "uint256",
          "name": "receviedFAssetFeesUBA",
          "type": "uint256"
        },
        {
          "indexed": false,
          "internalType": "uint256",
          "name": "closedFAssetsUBA",
          "type": "uint256"
        },
        {
          "indexed": false,
          "internalType": "uint256",
          "name": "newFAssetFeeDebt",
          "type": "uint256"
        }
      ],
      "name": "Exited",
      "type": "event"
    },
    {
      "anonymous": false,
      "inputs": [
        {
          "indexed": false,
          "internalType": "uint256",
          "name": "burnedTokensWei",
          "type": "uint256"
        },
        {
          "indexed": false,
          "internalType": "uint256",
          "name": "redeemedFAssetUBA",
          "type": "uint256"
        }
      ],
      "name": "IncompleteSelfCloseExit",
      "type": "event"
    },
    {
      "inputs": [],
      "name": "MIN_NAT_BALANCE_AFTER_EXIT",
      "outputs": [
        {
          "internalType": "uint256",
          "name": "",
          "type": "uint256"
        }
      ],
      "stateMutability": "view",
      "type": "function"
    },
    {
      "inputs": [],
      "name": "MIN_NAT_TO_ENTER",
      "outputs": [
        {
          "internalType": "uint256",
          "name": "",
          "type": "uint256"
        }
      ],
      "stateMutability": "view",
      "type": "function"
    },
    {
      "inputs": [],
      "name": "MIN_TOKEN_SUPPLY_AFTER_EXIT",
      "outputs": [
        {
          "internalType": "uint256",
          "name": "",
          "type": "uint256"
        }
      ],
      "stateMutability": "view",
      "type": "function"
    },
    {
      "inputs": [],
      "name": "agentVault",
      "outputs": [
        {
          "internalType": "address",
          "name": "",
          "type": "address"
        }
      ],
      "stateMutability": "view",
      "type": "function"
    },
    {
      "inputs": [],
      "name": "assetManager",
      "outputs": [
        {
          "internalType": "contract IIAssetManager",
          "name": "",
          "type": "address"
        }
      ],
      "stateMutability": "view",
      "type": "function"
    },
    {
      "inputs": [
        {
          "internalType": "contract IDistributionToDelegators",
          "name": "_distribution",
          "type": "address"
        },
        {
          "internalType": "uint256",
          "name": "_month",
          "type": "uint256"
        }
      ],
      "name": "claimAirdropDistribution",
      "outputs": [
        {
          "internalType": "uint256",
          "name": "",
          "type": "uint256"
        }
      ],
      "stateMutability": "nonpayable",
      "type": "function"
    },
    {
      "inputs": [
        {
          "internalType": "contract IRewardManager",
          "name": "_rewardManager",
          "type": "address"
        },
        {
          "internalType": "uint24",
          "name": "_lastRewardEpoch",
          "type": "uint24"
        },
        {
          "components": [
            {
              "internalType": "bytes32[]",
              "name": "merkleProof",
              "type": "bytes32[]"
            },
            {
              "components": [
                {
                  "internalType": "uint24",
                  "name": "rewardEpochId",
                  "type": "uint24"
                },
                {
                  "internalType": "bytes20",
                  "name": "beneficiary",
                  "type": "bytes20"
                },
                {
                  "internalType": "uint120",
                  "name": "amount",
                  "type": "uint120"
                },
                {
                  "internalType": "enum RewardsV2Interface.ClaimType",
                  "name": "claimType",
                  "type": "uint8"
                }
              ],
              "internalType": "struct RewardsV2Interface.RewardClaim",
              "name": "body",
              "type": "tuple"
            }
          ],
          "internalType": "struct RewardsV2Interface.RewardClaimWithProof[]",
          "name": "_proofs",
          "type": "tuple[]"
        }
      ],
      "name": "claimDelegationRewards",
      "outputs": [
        {
          "internalType": "uint256",
          "name": "",
          "type": "uint256"
        }
      ],
      "stateMutability": "nonpayable",
      "type": "function"
    },
    {
      "inputs": [
        {
          "internalType": "address",
          "name": "_account",
          "type": "address"
        }
      ],
      "name": "debtFreeTokensOf",
      "outputs": [
        {
          "internalType": "uint256",
          "name": "",
          "type": "uint256"
        }
      ],
      "stateMutability": "view",
      "type": "function"
    },
    {
      "inputs": [
        {
          "internalType": "address",
          "name": "_account",
          "type": "address"
        }
      ],
      "name": "debtLockedTokensOf",
      "outputs": [
        {
          "internalType": "uint256",
          "name": "",
          "type": "uint256"
        }
      ],
      "stateMutability": "view",
      "type": "function"
    },
    {
      "inputs": [
        {
          "internalType": "address",
          "name": "_to",
          "type": "address"
        },
        {
          "internalType": "uint256",
          "name": "_bips",
          "type": "uint256"
        }
      ],
      "name": "delegate",
      "outputs": [],
      "stateMutability": "nonpayable",
      "type": "function"
    },
    {
      "inputs": [
        {
          "internalType": "address",
          "name": "_to",
          "type": "address"
        }
      ],
      "name": "delegateGovernance",
      "outputs": [],
      "stateMutability": "nonpayable",
      "type": "function"
    },
    {
      "inputs": [],
      "name": "depositNat",
      "outputs": [],
      "stateMutability": "payable",
      "type": "function"
    },
    {
      "inputs": [
        {
          "internalType": "address payable",
          "name": "_recipient",
          "type": "address"
        }
      ],
      "name": "destroy",
      "outputs": [],
      "stateMutability": "nonpayable",
      "type": "function"
    },
    {
      "inputs": [
        {
          "internalType": "uint256",
          "name": "_fAssets",
          "type": "uint256"
        },
        {
          "internalType": "bool",
          "name": "_enterWithFullFAssets",
          "type": "bool"
        }
      ],
      "name": "enter",
      "outputs": [
        {
          "internalType": "uint256",
          "name": "",
          "type": "uint256"
        },
        {
          "internalType": "uint256",
          "name": "",
          "type": "uint256"
        }
      ],
      "stateMutability": "payable",
      "type": "function"
    },
    {
      "inputs": [
        {
          "internalType": "uint256",
          "name": "_tokenShare",
          "type": "uint256"
        },
        {
          "internalType": "enum ICollateralPool.TokenExitType",
          "name": "_exitType",
          "type": "uint8"
        }
      ],
      "name": "exit",
      "outputs": [
        {
          "internalType": "uint256",
          "name": "",
          "type": "uint256"
        },
        {
          "internalType": "uint256",
          "name": "",
          "type": "uint256"
        }
      ],
      "stateMutability": "nonpayable",
      "type": "function"
    },
    {
      "inputs": [],
      "name": "exitCollateralRatioBIPS",
      "outputs": [
        {
          "internalType": "uint32",
          "name": "",
          "type": "uint32"
        }
      ],
      "stateMutability": "view",
      "type": "function"
    },
    {
      "inputs": [
        {
          "internalType": "uint256",
          "name": "_tokenShare",
          "type": "uint256"
        },
        {
          "internalType": "address payable",
          "name": "_recipient",
          "type": "address"
        },
        {
          "internalType": "enum ICollateralPool.TokenExitType",
          "name": "_exitType",
          "type": "uint8"
        }
      ],
      "name": "exitTo",
      "outputs": [
        {
          "internalType": "uint256",
          "name": "",
          "type": "uint256"
        },
        {
          "internalType": "uint256",
          "name": "",
          "type": "uint256"
        }
      ],
      "stateMutability": "nonpayable",
      "type": "function"
    },
    {
      "inputs": [],
      "name": "fAsset",
      "outputs": [
        {
          "internalType": "contract IFAsset",
          "name": "",
          "type": "address"
        }
      ],
      "stateMutability": "view",
      "type": "function"
    },
    {
      "inputs": [
        {
          "internalType": "address",
          "name": "_account",
          "type": "address"
        }
      ],
      "name": "fAssetFeeDebtOf",
      "outputs": [
        {
          "internalType": "uint256",
          "name": "",
          "type": "uint256"
        }
      ],
      "stateMutability": "view",
      "type": "function"
    },
    {
      "inputs": [
        {
          "internalType": "uint256",
          "name": "_amount",
          "type": "uint256"
        }
      ],
      "name": "fAssetFeeDeposited",
      "outputs": [],
      "stateMutability": "nonpayable",
      "type": "function"
    },
    {
      "inputs": [
        {
          "internalType": "address",
          "name": "_account",
          "type": "address"
        }
      ],
      "name": "fAssetFeesOf",
      "outputs": [
        {
          "internalType": "uint256",
          "name": "",
          "type": "uint256"
        }
      ],
      "stateMutability": "view",
      "type": "function"
    },
    {
      "inputs": [
        {
          "internalType": "uint256",
          "name": "_tokenAmountWei",
          "type": "uint256"
        }
      ],
      "name": "fAssetRequiredForSelfCloseExit",
      "outputs": [
        {
          "internalType": "uint256",
          "name": "",
          "type": "uint256"
        }
      ],
      "stateMutability": "view",
      "type": "function"
    },
    {
      "inputs": [
        {
          "internalType": "address",
          "name": "_agentVault",
          "type": "address"
        },
        {
          "internalType": "address",
          "name": "_assetManager",
          "type": "address"
        },
        {
          "internalType": "address",
          "name": "_fAsset",
          "type": "address"
        },
        {
          "internalType": "uint32",
          "name": "_exitCollateralRatioBIPS",
          "type": "uint32"
        },
        {
          "internalType": "uint32",
          "name": "_topupCollateralRatioBIPS",
          "type": "uint32"
        },
        {
          "internalType": "uint16",
          "name": "_topupTokenPriceFactorBIPS",
          "type": "uint16"
        }
      ],
      "name": "initialize",
      "outputs": [],
      "stateMutability": "nonpayable",
      "type": "function"
    },
    {
      "inputs": [
        {
          "internalType": "contract IDistributionToDelegators",
          "name": "_distribution",
          "type": "address"
        }
      ],
      "name": "optOutOfAirdrop",
      "outputs": [],
      "stateMutability": "nonpayable",
      "type": "function"
    },
    {
      "inputs": [
        {
          "internalType": "uint256",
          "name": "_fAssets",
          "type": "uint256"
        }
      ],
      "name": "payFAssetFeeDebt",
      "outputs": [],
      "stateMutability": "nonpayable",
      "type": "function"
    },
    {
      "inputs": [
        {
          "internalType": "address",
          "name": "_recipient",
          "type": "address"
        },
        {
          "internalType": "uint256",
          "name": "_amount",
          "type": "uint256"
        },
        {
          "internalType": "uint256",
          "name": "_agentResponsibilityWei",
          "type": "uint256"
        }
      ],
      "name": "payout",
      "outputs": [],
      "stateMutability": "nonpayable",
      "type": "function"
    },
    {
      "inputs": [],
      "name": "poolToken",
      "outputs": [
        {
          "internalType": "contract ICollateralPoolToken",
          "name": "",
          "type": "address"
        }
      ],
      "stateMutability": "view",
      "type": "function"
    },
    {
      "inputs": [
        {
          "internalType": "address",
          "name": "_who",
          "type": "address"
        },
        {
          "internalType": "uint256",
          "name": "_blockNumber",
          "type": "uint256"
        }
      ],
      "name": "revokeDelegationAt",
      "outputs": [],
      "stateMutability": "nonpayable",
      "type": "function"
    },
    {
      "inputs": [
        {
          "internalType": "uint256",
          "name": "_tokenShare",
          "type": "uint256"
        },
        {
          "internalType": "bool",
          "name": "_redeemToCollateral",
          "type": "bool"
        },
        {
          "internalType": "string",
          "name": "_redeemerUnderlyingAddress",
          "type": "string"
        },
        {
          "internalType": "address payable",
          "name": "_executor",
          "type": "address"
        }
      ],
      "name": "selfCloseExit",
      "outputs": [],
      "stateMutability": "payable",
      "type": "function"
    },
    {
      "inputs": [
        {
          "internalType": "uint256",
          "name": "_tokenShare",
          "type": "uint256"
        },
        {
          "internalType": "bool",
          "name": "_redeemToCollateral",
          "type": "bool"
        },
        {
          "internalType": "address payable",
          "name": "_recipient",
          "type": "address"
        },
        {
          "internalType": "string",
          "name": "_redeemerUnderlyingAddress",
          "type": "string"
        },
        {
          "internalType": "address payable",
          "name": "_executor",
          "type": "address"
        }
      ],
      "name": "selfCloseExitTo",
      "outputs": [],
      "stateMutability": "payable",
      "type": "function"
    },
    {
      "inputs": [
        {
          "internalType": "uint256",
          "name": "_exitCollateralRatioBIPS",
          "type": "uint256"
        }
      ],
      "name": "setExitCollateralRatioBIPS",
      "outputs": [],
      "stateMutability": "nonpayable",
      "type": "function"
    },
    {
      "inputs": [
        {
          "internalType": "address",
          "name": "_poolToken",
          "type": "address"
        }
      ],
      "name": "setPoolToken",
      "outputs": [],
      "stateMutability": "nonpayable",
      "type": "function"
    },
    {
      "inputs": [
        {
          "internalType": "uint256",
          "name": "_topupCollateralRatioBIPS",
          "type": "uint256"
        }
      ],
      "name": "setTopupCollateralRatioBIPS",
      "outputs": [],
      "stateMutability": "nonpayable",
      "type": "function"
    },
    {
      "inputs": [
        {
          "internalType": "uint256",
          "name": "_topupTokenPriceFactorBIPS",
          "type": "uint256"
        }
      ],
      "name": "setTopupTokenPriceFactorBIPS",
      "outputs": [],
      "stateMutability": "nonpayable",
      "type": "function"
    },
    {
      "inputs": [
        {
          "internalType": "bytes4",
          "name": "_interfaceId",
          "type": "bytes4"
        }
      ],
      "name": "supportsInterface",
      "outputs": [
        {
          "internalType": "bool",
          "name": "",
          "type": "bool"
        }
      ],
      "stateMutability": "pure",
      "type": "function"
    },
    {
      "inputs": [],
      "name": "token",
      "outputs": [
        {
          "internalType": "contract IICollateralPoolToken",
          "name": "",
          "type": "address"
        }
      ],
      "stateMutability": "view",
      "type": "function"
    },
    {
      "inputs": [],
      "name": "topupCollateralRatioBIPS",
      "outputs": [
        {
          "internalType": "uint32",
          "name": "",
          "type": "uint32"
        }
      ],
      "stateMutability": "view",
      "type": "function"
    },
    {
      "inputs": [],
      "name": "topupTokenPriceFactorBIPS",
      "outputs": [
        {
          "internalType": "uint16",
          "name": "",
          "type": "uint16"
        }
      ],
      "stateMutability": "view",
      "type": "function"
    },
    {
      "inputs": [],
      "name": "totalCollateral",
      "outputs": [
        {
          "internalType": "uint256",
          "name": "",
          "type": "uint256"
        }
      ],
      "stateMutability": "view",
      "type": "function"
    },
    {
      "inputs": [],
      "name": "totalFAssetFeeDebt",
      "outputs": [
        {
          "internalType": "uint256",
          "name": "",
          "type": "uint256"
        }
      ],
      "stateMutability": "view",
      "type": "function"
    },
    {
      "inputs": [],
      "name": "totalFAssetFees",
      "outputs": [
        {
          "internalType": "uint256",
          "name": "",
          "type": "uint256"
        }
      ],
      "stateMutability": "view",
      "type": "function"
    },
    {
      "inputs": [],
      "name": "undelegateAll",
      "outputs": [],
      "stateMutability": "nonpayable",
      "type": "function"
    },
    {
      "inputs": [],
      "name": "undelegateGovernance",
      "outputs": [],
      "stateMutability": "nonpayable",
      "type": "function"
    },
    {
      "inputs": [
        {
          "internalType": "contract IWNat",
          "name": "_newWNat",
          "type": "address"
        }
      ],
      "name": "upgradeWNatContract",
      "outputs": [],
      "stateMutability": "nonpayable",
      "type": "function"
    },
    {
      "inputs": [
        {
          "internalType": "address",
          "name": "_account",
          "type": "address"
        }
      ],
      "name": "virtualFAssetOf",
      "outputs": [
        {
          "internalType": "uint256",
          "name": "",
          "type": "uint256"
        }
      ],
      "stateMutability": "view",
      "type": "function"
    },
    {
      "inputs": [],
      "name": "wNat",
      "outputs": [
        {
          "internalType": "contract IWNat",
          "name": "",
          "type": "address"
        }
      ],
      "stateMutability": "view",
      "type": "function"
    },
    {
      "inputs": [
        {
          "internalType": "uint256",
          "name": "_fAssets",
          "type": "uint256"
        }
      ],
      "name": "withdrawFees",
      "outputs": [],
      "stateMutability": "nonpayable",
      "type": "function"
    },
    {
      "inputs": [
        {
          "internalType": "uint256",
          "name": "_fAssets",
          "type": "uint256"
        },
        {
          "internalType": "address",
          "name": "_recipient",
          "type": "address"
        }
      ],
      "name": "withdrawFeesTo",
      "outputs": [],
      "stateMutability": "nonpayable",
      "type": "function"
    },
    {
      "stateMutability": "payable",
      "type": "receive"
    }
  ],
  "bytecode": "0x60806040523480156200001157600080fd5b5060405162004c9838038062004c98833981016040819052620000349162000228565b6200004486868686868662000050565b505050505050620002e2565b600454600160f81b900460ff1615620000af5760405162461bcd60e51b815260206004820152601360248201527f616c726561647920696e697469616c697a656400000000000000000000000000604482015260640160405180910390fd5b600480546001600160f81b0316600160f81b179055600080546001600160a01b038089166001600160a01b0319928316179092556001805488841690831681179091556002805493881693909216929092179055620001105760006200018a565b600160009054906101000a90046001600160a01b03166001600160a01b031663b5a488a66040518163ffffffff1660e01b8152600401602060405180830381865afa15801562000164573d6000803e3d6000fd5b505050506040513d601f19601f820116820180604052508101906200018a9190620002bb565b6004805461ffff909316600160e01b0261ffff60e01b1963ffffffff958616600160c01b021665ffffffffffff60c01b1995909616600160a01b026001600160c01b03199094166001600160a01b039390931692909217929092179290921692909217179055505050565b6001600160a01b03811681146200020b57600080fd5b50565b805163ffffffff811681146200022357600080fd5b919050565b60008060008060008060c087890312156200024257600080fd5b86516200024f81620001f5565b60208801519096506200026281620001f5565b60408801519095506200027581620001f5565b935062000285606088016200020e565b925062000295608088016200020e565b915060a087015161ffff81168114620002ad57600080fd5b809150509295509295509295565b600060208284031215620002ce57600080fd5b8151620002db81620001f5565b9392505050565b6149a680620002f26000396000f3fe6080604052600436106102965760003560e01c8063923f89321161015a578063c79d245d116100c1578063e69169061161007a578063e691690614610813578063eaf413fd14610833578063ee781db014610853578063f4d000b214610873578063fc0c546a14610893578063fd86d3ea146108b357600080fd5b8063c79d245d1461076e578063cb2094131461078e578063cbabdf39146107c4578063cbdf382c146107da578063d1b8890e146107f8578063e4df73f01461080057600080fd5b8063adf58c1511610113578063adf58c15146106d5578063b302f393146106f5578063b337929b1461070a578063b9e2648314610369578063bbd6fbf81461072e578063c1b0bbf81461074e57600080fd5b8063923f89321461062c57806394217ad1146106425780639a4247e6146106625780639edbf00714610682578063a854a6a2146106a2578063ac3736c1146106c257600080fd5b80634ac8eb5f116101fe57806380f13ee9116101b757806380f13ee914610584578063815ea9d614610597578063868c3ba7146105b757806386ac57a2146105d757806387a2a0dc146105f757806388985cd61461060c57600080fd5b80634ac8eb5f146104b657806359c3d549146104cc5780635e318e07146104ec578063787b9ca81461050c5780637a68a5081461052c5780637c7db1a51461054c57600080fd5b80631b92d84a116102505780631b92d84a146103b35780632f35eac2146103d357806333ce01fd146104085780633cfc747d14610428578063406c7007146104615780634a4ac2ef1461048157600080fd5b8062f55d9d146102f457806301ffc9a714610314578063026e402b146103495780630ac07344146103695780630dc1e5e11461036957806315e2bfba1461039357600080fd5b366102ef57600454600160f01b900460ff166102ed5760405162461bcd60e51b81526020600482015260116024820152706f6e6c7920696e7465726e616c2075736560781b60448201526064015b60405180910390fd5b005b600080fd5b34801561030057600080fd5b506102ed61030f366004613fd4565b6108d3565b34801561032057600080fd5b5061033461032f366004613ff1565b610b6e565b60405190151581526020015b60405180910390f35b34801561035557600080fd5b506102ed61036436600461401b565b610bc0565b34801561037557600080fd5b50610385670de0b6b3a764000081565b604051908152602001610340565b34801561039f57600080fd5b506103856103ae366004613fd4565b610c52565b3480156103bf57600080fd5b506103856103ce366004614047565b610ce8565b3480156103df57600080fd5b506103f36103ee366004614074565b610d3d565b60408051928352602083019190915201610340565b34801561041457600080fd5b506102ed610423366004613fd4565b610d66565b34801561043457600080fd5b5060045461044c90600160a01b900463ffffffff1681565b60405163ffffffff9091168152602001610340565b34801561046d57600080fd5b5061038561047c36600461401b565b610e04565b34801561048d57600080fd5b506004546104a390600160e01b900461ffff1681565b60405161ffff9091168152602001610340565b3480156104c257600080fd5b5061038560085481565b3480156104d857600080fd5b506103856104e73660046140b3565b610ece565b3480156104f857600080fd5b506102ed610507366004614047565b610f97565b34801561051857600080fd5b506102ed610527366004614047565b610fb1565b34801561053857600080fd5b506102ed610547366004613fd4565b611055565b34801561055857600080fd5b5060025461056c906001600160a01b031681565b6040516001600160a01b039091168152602001610340565b6102ed6105923660046141f7565b611145565b3480156105a357600080fd5b5060005461056c906001600160a01b031681565b3480156105c357600080fd5b506102ed6105d2366004614278565b611162565b3480156105e357600080fd5b506102ed6105f2366004613fd4565b611180565b34801561060357600080fd5b506102ed6111e0565b34801561061857600080fd5b506102ed610627366004614047565b6112c4565b34801561063857600080fd5b5061038560065481565b34801561064e57600080fd5b5060015461056c906001600160a01b031681565b34801561066e57600080fd5b506102ed61067d366004614047565b6113ab565b34801561068e57600080fd5b5060045461056c906001600160a01b031681565b3480156106ae57600080fd5b506102ed6106bd366004614047565b611481565b6103f36106d03660046142a8565b6114c5565b3480156106e157600080fd5b506102ed6106f03660046142cd565b611959565b34801561070157600080fd5b506102ed611b5d565b34801561071657600080fd5b5060045461044c90600160c01b900463ffffffff1681565b34801561073a57600080fd5b506102ed61074936600461401b565b611bc5565b34801561075a57600080fd5b50610385610769366004613fd4565b611c25565b34801561077a57600080fd5b50610385610789366004613fd4565b611c3c565b34801561079a57600080fd5b506103856107a9366004613fd4565b6001600160a01b031660009081526005602052604090205490565b3480156107d057600080fd5b5061038560075481565b3480156107e657600080fd5b506003546001600160a01b031661056c565b6102ed611c53565b6102ed61080e366004614302565b611c87565b34801561081f57600080fd5b506102ed61082e366004614382565b611ca4565b34801561083f57600080fd5b506103f361084e366004614407565b611e35565b34801561085f57600080fd5b506102ed61086e366004614047565b611e5f565b34801561087f57600080fd5b506102ed61088e366004613fd4565b612021565b34801561089f57600080fd5b5060035461056c906001600160a01b031681565b3480156108bf57600080fd5b506103856108ce366004613fd4565b612241565b6001546001600160a01b031633146108fd5760405162461bcd60e51b81526004016102e490614445565b610905612258565b600360009054906101000a90046001600160a01b03166001600160a01b03166318160ddd6040518163ffffffff1660e01b8152600401602060405180830381865afa158015610958573d6000803e3d6000fd5b505050506040513d601f19601f8201168201806040525081019061097c9190614471565b156109da5760405162461bcd60e51b815260206004820152602860248201527f63616e6e6f742064657374726f79206120706f6f6c20776974682069737375656044820152676420746f6b656e7360c01b60648201526084016102e4565b60035460405162f55d9d60e01b81526001600160a01b0383811660048301529091169062f55d9d90602401600060405180830381600087803b158015610a1f57600080fd5b505af1158015610a33573d6000803e3d6000fd5b50505050610a4181476122d1565b600480546040516370a0823160e01b815230928101929092526000916001600160a01b03909116906370a0823190602401602060405180830381865afa158015610a8f573d6000803e3d6000fd5b505050506040513d601f19601f82011682018060405250810190610ab39190614471565b6002546040516370a0823160e01b81523060048201529192506000916001600160a01b03909116906370a0823190602401602060405180830381865afa158015610b01573d6000803e3d6000fd5b505050506040513d601f19601f82011682018060405250810190610b259190614471565b90508115610b4457600454610b44906001600160a01b0316848461236c565b8015610b6157600254610b61906001600160a01b0316848361236c565b5050610b6b6123cf565b50565b60006001600160e01b031982166301ffc9a760e01b1480610b9f57506001600160e01b0319821663982c94a560e01b145b80610bba57506001600160e01b031982166350eb34e160e11b145b92915050565b610bc9336123f5565b610be55760405162461bcd60e51b81526004016102e49061448a565b6004805460405163026e402b60e01b81526001600160a01b03858116938201939093526024810184905291169063026e402b906044015b600060405180830381600087803b158015610c3657600080fd5b505af1158015610c4a573d6000803e3d6000fd5b505050505050565b600080610c5d61246f565b6003546040516370a0823160e01b81526001600160a01b038681166004830152929350610ce192909116906370a0823190602401602060405180830381865afa158015610cae573d6000803e3d6000fd5b505050506040513d601f19601f82011682018060405250810190610cd29190614471565b610cdc8386612654565b612748565b9392505050565b600080610cf361246f565b80516040820151919250600091610d0b918690612762565b90506000610d198383612888565b90506000610d27843361292f565b9050610d338282612748565b9695505050505050565b600080610d48612258565b610d53843385612978565b91509150610d5f6123cf565b9250929050565b6001546001600160a01b03163314610d905760405162461bcd60e51b81526004016102e490614445565b6003546001600160a01b031615610de25760405162461bcd60e51b81526020600482015260166024820152751c1bdbdb081d1bdad95b88185b1c9958591e481cd95d60521b60448201526064016102e4565b600380546001600160a01b0319166001600160a01b0392909216919091179055565b6000610e0f336123f5565b610e2b5760405162461bcd60e51b81526004016102e49061448a565b60405163596090c960e11b81523060048201819052602482015260448101839052600160648201526000906001600160a01b0385169063b2c12192906084016020604051808303816000875af1158015610e89573d6000803e3d6000fd5b505050506040513d601f19601f82011682018060405250810190610ead9190614471565b90508060086000828254610ec191906144c4565b9091555090949350505050565b6000610ed9336123f5565b610ef55760405162461bcd60e51b81526004016102e49061448a565b604051638e33aba560e01b81526000906001600160a01b03871690638e33aba590610f2f90309081908a906001908b908b9060040161456a565b6020604051808303816000875af1158015610f4e573d6000803e3d6000fd5b505050506040513d601f19601f82011682018060405250810190610f729190614471565b90508060086000828254610f8691906144c4565b90915550909150505b949350505050565b610f9f612258565b610fa98133612db1565b610b6b6123cf565b6001546001600160a01b03163314610fdb5760405162461bcd60e51b81526004016102e490614445565b600454600160c01b900463ffffffff1681116110295760405162461bcd60e51b815260206004820152600d60248201526c76616c756520746f6f206c6f7760981b60448201526064016102e4565b61103281612ed5565b600460146101000a81548163ffffffff021916908363ffffffff16021790555050565b61105e336123f5565b61107a5760405162461bcd60e51b81526004016102e49061448a565b6004805460408051638c2b8ae160e01b815290516001600160a01b0390921692638c2b8ae19282820192602092908290030181865afa1580156110c1573d6000803e3d6000fd5b505050506040513d601f19601f820116820180604052508101906110e59190614684565b6040516317066a5760e21b81526001600160a01b0383811660048301529190911690635c19a95c90602401600060405180830381600087803b15801561112a57600080fd5b505af115801561113e573d6000803e3d6000fd5b5050505050565b61114d612258565b61115a8585858585612f3e565b61113e6123cf565b61116a612258565b6111748282612db1565b61117c6123cf565b5050565b611189336123f5565b6111a55760405162461bcd60e51b81526004016102e49061448a565b806001600160a01b031663f2a1f7676040518163ffffffff1660e01b8152600401600060405180830381600087803b15801561112a57600080fd5b6111e9336123f5565b6112055760405162461bcd60e51b81526004016102e49061448a565b6004805460408051638c2b8ae160e01b815290516001600160a01b0390921692638c2b8ae19282820192602092908290030181865afa15801561124c573d6000803e3d6000fd5b505050506040513d601f19601f820116820180604052508101906112709190614684565b6001600160a01b03166392ab89bb6040518163ffffffff1660e01b8152600401600060405180830381600087803b1580156112aa57600080fd5b505af11580156112be573d6000803e3d6000fd5b50505050565b6001546001600160a01b031633146112ee5760405162461bcd60e51b81526004016102e490614445565b600454600160a01b900463ffffffff16811061133d5760405162461bcd60e51b815260206004820152600e60248201526d0ecc2d8eaca40e8dede40d0d2ced60931b60448201526064016102e4565b6000811161137f5760405162461bcd60e51b815260206004820152600f60248201526e6d757374206265206e6f6e7a65726f60881b60448201526064016102e4565b61138881612ed5565b600460186101000a81548163ffffffff021916908363ffffffff16021790555050565b6001546001600160a01b031633146113d55760405162461bcd60e51b81526004016102e490614445565b61271081106114175760405162461bcd60e51b815260206004820152600e60248201526d0ecc2d8eaca40e8dede40d0d2ced60931b60448201526064016102e4565b600081116114595760405162461bcd60e51b815260206004820152600f60248201526e6d757374206265206e6f6e7a65726f60881b60448201526064016102e4565b611462816136b3565b6004601c6101000a81548161ffff021916908361ffff16021790555050565b6001546001600160a01b031633146114ab5760405162461bcd60e51b81526004016102e490614445565b80600760008282546114bd91906144c4565b909155505050565b6000806114d0612258565b60006114da61246f565b90506103e881604001516114ee91906146a1565b8151111561153e5760405162461bcd60e51b815260206004820152601a60248201527f706f6f6c206e61742062616c616e636520746f6f20736d616c6c00000000000060448201526064016102e4565b670de0b6b3a76400003410156115965760405162461bcd60e51b815260206004820152601d60248201527f616d6f756e74206f66206e61742073656e7420697320746f6f206c6f7700000060448201526064016102e4565b80516000036116f457806040015134101561163f5760405162461bcd60e51b815260206004820152606060248201527f696620706f6f6c20686173206e6f20746f6b656e732c2062757420686f6c647360448201527f20636f6c6c61746572616c2c20796f75206e65656420746f2073656e6420617460648201527f206c65617374207468617420616d6f756e74206f6620636f6c6c61746572616c608482015260a4016102e4565b60a081015160c08201516060830151611659929091612762565b3410156116f45760405162461bcd60e51b815260206004820152605f60248201527f496620706f6f6c20686173206e6f20746f6b656e732c2062757420686f6c647360448201527f20662d61737365742c20796f75206e65656420746f2073656e64206174206c6560648201527f61737420662d617373657420776f727468206f6620636f6c6c61746572616c00608482015260a4016102e4565b60006117008234613716565b9050600080836000015111611716576000611728565b82516080840151611728918490612762565b90506000866117405761173b8883613860565b611742565b815b905080156117e557600254604051636eb1769f60e11b815233600482015230602482015282916001600160a01b03169063dd62ed3e90604401602060405180830381865afa158015611798573d6000803e3d6000fd5b505050506040513d601f19601f820116820180604052508101906117bc9190614471565b10156117da5760405162461bcd60e51b81526004016102e4906146b8565b6117e5333083613876565b6117f8336117f383856146ef565b6138e9565b611800613933565b6001546000546004805460405163053fe26160e31b81526001600160a01b0393841692810192909252821660248201529116906329ff130890604401600060405180830381600087803b15801561185657600080fd5b505af115801561186a573d6000803e3d6000fd5b50506003546040516340c10f1960e01b815233600482015260248101879052600093506001600160a01b0390911691506340c10f19906044016020604051808303816000875af11580156118c2573d6000803e3d6000fd5b505050506040513d601f19601f820116820180604052508101906118e69190614471565b33600081815260056020908152604091829020548251348152918201899052818301879052606082015260808101849052905192935090917f8837aea61d24df2daef4ee681be933e5ea5c7ebe3cde964adef015dad51fe7859181900360a00190a2929550919350505050610d5f6123cf565b6001546001600160a01b031633146119835760405162461bcd60e51b81526004016102e490614445565b61198b612258565b600061199561246f565b90506119a18484613995565b600354600080546040516370a0823160e01b81526001600160a01b039182166004820152919216906370a0823190602401602060405180830381865afa1580156119ef573d6000803e3d6000fd5b505050506040513d601f19601f82011682018060405250810190611a139190614471565b9050600080836040015111611a285781611a3a565b60408301518351611a3a918690612762565b90506000611a488284613860565b90508015611b4c5760008054611a6b9086906001600160a01b03168460026139c9565b50600054909150611a85906001600160a01b031682613b51565b6003546000546040516376fd4fdf60e01b81526001600160a01b03928316926376fd4fdf92611abe929116908690600190600401614702565b600060405180830381600087803b158015611ad857600080fd5b505af1158015611aec573d6000803e3d6000fd5b5050600080546001600160a01b0316808252600560209081526040808420548151898152928301859052908201849052606082019390935260808101929092529250600080516020614951833981519152915060a00160405180910390a2505b50505050611b586123cf565b505050565b611b66336123f5565b611b825760405162461bcd60e51b81526004016102e49061448a565b600480546040805163b302f39360e01b815290516001600160a01b039092169263b302f39392828201926000929082900301818387803b1580156112aa57600080fd5b611bce336123f5565b611bea5760405162461bcd60e51b81526004016102e49061448a565b6004805460405163177adf7f60e31b81526001600160a01b03858116938201939093526024810184905291169063bbd6fbf890604401610c1c565b600080611c3061246f565b9050610ce1818461292f565b600080611c4761246f565b9050610ce18184612654565b6001546001600160a01b03163314611c7d5760405162461bcd60e51b81526004016102e490614445565b611c85613933565b565b611c8f612258565b611c9c8484338585612f3e565b6112be6123cf565b600454600160f81b900460ff1615611cf45760405162461bcd60e51b8152602060048201526013602482015272185b1c9958591e481a5b9a5d1a585b1a5e9959606a1b60448201526064016102e4565b600480546001600160f81b0316600160f81b179055600080546001600160a01b038089166001600160a01b0319928316179092556001805488841690831681179091556002805493881693909216929092179055611d53576000611dca565b600160009054906101000a90046001600160a01b03166001600160a01b031663b5a488a66040518163ffffffff1660e01b8152600401602060405180830381865afa158015611da6573d6000803e3d6000fd5b505050506040513d601f19601f82011682018060405250810190611dca9190614684565b6004805461ffff909316600160e01b0261ffff60e01b1963ffffffff958616600160c01b021665ffffffffffff60c01b1995909616600160a01b026001600160c01b03199094166001600160a01b039390931692909217929092179290921692909217179055505050565b600080611e40612258565b611e4b858585612978565b91509150611e576123cf565b935093915050565b611e67612258565b80600003611eb75760405162461bcd60e51b815260206004820152601960248201527f7a65726f20662d61737365742064656274207061796d656e740000000000000060448201526064016102e4565b33600090815260056020526040902054811115611f165760405162461bcd60e51b815260206004820152601e60248201527f6465627420662d61737365742062616c616e636520746f6f20736d616c6c000060448201526064016102e4565b600254604051636eb1769f60e11b815233600482015230602482015282916001600160a01b03169063dd62ed3e90604401602060405180830381865afa158015611f64573d6000803e3d6000fd5b505050506040513d601f19601f82011682018060405250810190611f889190614471565b1015611fa65760405162461bcd60e51b81526004016102e4906146b8565b611fb03382613b51565b611fbb333083613876565b336000818152600560209081526040808320548151848152928301849052908201859052606082015260808101919091527f8837aea61d24df2daef4ee681be933e5ea5c7ebe3cde964adef015dad51fe7859060a00160405180910390a2610b6b6123cf565b6001546001600160a01b0316331461204b5760405162461bcd60e51b81526004016102e490614445565b612053612258565b6004546001600160a01b03828116911614610fa957600480546040516370a0823160e01b815230928101929092526000916001600160a01b03909116906370a0823190602401602060405180830381865afa1580156120b6573d6000803e3d6000fd5b505050506040513d601f19601f820116820180604052508101906120da9190614471565b6004805460ff60f01b198116600160f01b178255604051632e1a7d4d60e01b81529293506001600160a01b031691632e1a7d4d9161211e9185910190815260200190565b600060405180830381600087803b15801561213857600080fd5b505af115801561214c573d6000803e3d6000fd5b50506004805460ff60f01b1916815560408051630d0e30db60e41b815290516001600160a01b038716945063d0e30db09350859282810192600092919082900301818588803b15801561219e57600080fd5b505af11580156121b2573d6000803e3d6000fd5b5050600480546001600160a01b0319166001600160a01b03878116918217835560015460005460405163053fe26160e31b81529083169481019490945260248401929092521693506329ff130892506044019050600060405180830381600087803b15801561222057600080fd5b505af1158015612234573d6000803e3d6000fd5b5050505050610b6b6123cf565b60008061224c61246f565b9050610ce18184613b92565b7f0cd2207518cd3e5213e2c6dbe63d55b60aa893c194a427b7d7f1600408fd5bde8054600119016122cb5760405162461bcd60e51b815260206004820152601f60248201527f5265656e7472616e637947756172643a207265656e7472616e742063616c6c0060448201526064016102e4565b60029055565b801561117c576000826001600160a01b03168260405160006040518083038185875af1925050503d8060008114612324576040519150601f19603f3d011682016040523d82523d6000602084013e612329565b606091505b5050905080611b585760405162461bcd60e51b815260206004820152600f60248201526e1d1c985b9cd9995c8819985a5b1959608a1b60448201526064016102e4565b6040516001600160a01b038316602482015260448101829052611b5890849063a9059cbb60e01b906064015b60408051601f198184030181529190526020810180516001600160e01b03166001600160e01b031990931692909217909152613c2a565b60017f0cd2207518cd3e5213e2c6dbe63d55b60aa893c194a427b7d7f1600408fd5bde55565b6001546000805460405163d6b93a9f60e01b81526001600160a01b03918216600482015284821660248201529192169063d6b93a9f90604401602060405180830381865afa15801561244b573d6000803e3d6000fd5b505050506040513d601f19601f82011682018060405250810190610bba9190614725565b6124af6040518060e00160405280600081526020016000815260200160008152602001600081526020016000815260200160008152602001600081525090565b60075460015460408051628c4abb60e21b8152815160009384936001600160a01b03909116926302312aec92600480830193928290030181865afa1580156124fb573d6000803e3d6000fd5b505050506040513d601f19601f8201168201806040525081019061251f9190614742565b915091506040518060e00160405280600360009054906101000a90046001600160a01b03166001600160a01b03166318160ddd6040518163ffffffff1660e01b8152600401602060405180830381865afa158015612581573d6000803e3d6000fd5b505050506040513d601f19601f820116820180604052508101906125a59190614471565b815260015460005460405163769bb15560e11b81526001600160a01b03918216600482015260209093019291169063ed3762aa90602401602060405180830381865afa1580156125f9573d6000803e3d6000fd5b505050506040513d601f19601f8201168201806040525081019061261d9190614471565b815260200160085481526020018481526020016006548561263e91906144c4565b8152602081019390935260409092015292915050565b6003546040516370a0823160e01b81526001600160a01b03838116600483015260009283929116906370a0823190602401602060405180830381865afa1580156126a2573d6000803e3d6000fd5b505050506040513d601f19601f820116820180604052508101906126c69190614471565b9050806000036126da576000915050610bba565b6001600160a01b0383166000908152600560205260408120549081900361270357509050610bba565b8451608086015160009161271991908590612762565b905060006127278284612748565b6080880151885191925061273d91908390612762565b979650505050505050565b6000818311612758576000610ce1565b610ce182846146ef565b60008082116127a65760405162461bcd60e51b815260206004820152601060248201526f4469766973696f6e206279207a65726f60801b60448201526064016102e4565b836000036127b657506000610ce1565b838302838582816127c9576127c9614766565b04036127e7578281816127de576127de614766565b04915050610ce1565b5060006127f4838661477c565b905060006128028487614790565b90506000612810858761477c565b9050600061281e8688614790565b90508561282b82856146a1565b612835919061477c565b61283f83856146a1565b61284983876146a1565b8861285486896146a1565b61285e91906146a1565b61286891906144c4565b61287291906144c4565b61287c91906144c4565b98975050505050505050565b6004546000906128a89084908390600160a01b900463ffffffff16613cff565b1561291a576129138360200151600460149054906101000a900463ffffffff1663ffffffff168560a001516128dd91906146a1565b6127108587604001516128f091906146ef565b8760c001516128ff91906146a1565b61290991906146a1565b610cdc919061477c565b9050610bba565b60408301516020840151612913918490612762565b60008061293c8484613b92565b6001600160a01b03841660009081526005602052604090205490915061296f6129658383612748565b8660600151613860565b95945050505050565b600080600085116129c15760405162461bcd60e51b8152602060048201526013602482015272746f6b656e207368617265206973207a65726f60681b60448201526064016102e4565b6003546040516370a0823160e01b81523360048201526001600160a01b03909116906370a0823190602401602060405180830381865afa158015612a09573d6000803e3d6000fd5b505050506040513d601f19601f82011682018060405250810190612a2d9190614471565b851115612a745760405162461bcd60e51b8152602060048201526015602482015274746f6b656e2062616c616e636520746f6f206c6f7760581b60448201526064016102e4565b6000612a7e61246f565b8051909150861480612aa557508051670de0b6b3a764000090612aa29088906146ef565b10155b612ac15760405162461bcd60e51b81526004016102e4906147a4565b60408101518151600091612ad791899190612762565b905060008111612af95760405162461bcd60e51b81526004016102e4906147f8565b8082604001511480612b225750670de0b6b3a7640000818360400151612b1f91906146ef565b10155b612b3e5760405162461bcd60e51b81526004016102e49061483a565b600260009054906101000a90046001600160a01b03166001600160a01b031663194307bf6040518163ffffffff1660e01b8152600401602060405180830381865afa158015612b91573d6000803e3d6000fd5b505050506040513d601f19601f82011682018060405250810190612bb59190614725565b15612c38576003546040516376fd4fdf60e01b81526001600160a01b03909116906376fd4fdf90612bef9033908b90600190600401614702565b600060405180830381600087803b158015612c0957600080fd5b505af1158015612c1d573d6000803e3d6000fd5b50505050612c2b8682613995565b925060009150611e579050565b600454612c559083908390600160a01b900463ffffffff16613cff565b612cad5760405162461bcd60e51b815260206004820152602360248201527f636f6c6c61746572616c20726174696f2066616c6c732062656c6f77206578696044820152623a21a960e91b60648201526084016102e4565b600080612cbc84338b8a6139c9565b90925090508015612cd257612cd2308983613876565b8115612ce257612ce23383613b51565b6003546040516376fd4fdf60e01b81526001600160a01b03909116906376fd4fdf90612d179033908d90600090600401614702565b600060405180830381600087803b158015612d3157600080fd5b505af1158015612d45573d6000803e3d6000fd5b50505050612d538884613d42565b3360008181526005602090815260408083205481518e8152928301889052908201859052606082019290925260808101919091526000805160206149518339815191529060a00160405180910390a291989197509095505050505050565b60008211612e015760405162461bcd60e51b815260206004820181905260248201527f747279696e6720746f207769746864726177207a65726f20662d61737365747360448201526064016102e4565b6000612e0b61246f565b90506000612e19823361292f565b905080841115612e6b5760405162461bcd60e51b815260206004820152601e60248201527f6672656520662d61737365742062616c616e636520746f6f20736d616c6c000060448201526064016102e4565b612e7533856138e9565b612e80308486613876565b336000818152600560209081526040808320548151848152928301849052908201889052606082019290925260808101919091526000805160206149518339815191529060a00160405180910390a250505050565b600063ffffffff821115612f3a5760405162461bcd60e51b815260206004820152602660248201527f53616665436173743a2076616c756520646f65736e27742066697420696e203360448201526532206269747360d01b60648201526084016102e4565b5090565b60008511612f845760405162461bcd60e51b8152602060048201526013602482015272746f6b656e207368617265206973207a65726f60681b60448201526064016102e4565b6003546040516370a0823160e01b81523360048201526001600160a01b03909116906370a0823190602401602060405180830381865afa158015612fcc573d6000803e3d6000fd5b505050506040513d601f19601f82011682018060405250810190612ff09190614471565b8511156130375760405162461bcd60e51b8152602060048201526015602482015274746f6b656e2062616c616e636520746f6f206c6f7760581b60448201526064016102e4565b600061304161246f565b805190915086148061306857508051670de0b6b3a7640000906130659088906146ef565b10155b6130845760405162461bcd60e51b81526004016102e4906147a4565b8051604082015160009161309a91908990612762565b9050600081116130bc5760405162461bcd60e51b81526004016102e4906147f8565b80826040015114806130e55750670de0b6b3a76400008183604001516130e291906146ef565b10155b6131015760405162461bcd60e51b81526004016102e49061483a565b60015460008054604051631e8bee0160e01b81526001600160a01b03918216600482015291921690631e8bee0190602401602060405180830381865afa15801561314f573d6000803e3d6000fd5b505050506040513d601f19601f820116820180604052508101906131739190614471565b905060006131818484612888565b9050808210156132b35750806131978482613de3565b92506000831161321f5760405162461bcd60e51b815260206004820152604760248201527f616d6f756e74206f662073656e7420746f6b656e7320697320746f6f20736d6160448201527f6c6c206166746572206167656e74206d617820726564656d70746f6e20636f726064820152663932b1ba34b7b760c91b608482015260a4016102e4565b82846040015114806132485750670de0b6b3a764000083856040015161324591906146ef565b10155b6132645760405162461bcd60e51b81526004016102e49061483a565b60408401518451613276918590612762565b6040805182815260208101849052919a507f7543f09ac709677c25f5aa8284e92f885eae7c7496789dd47cf87e28e5a1cf1c910160405180910390a15b60006132bf853361292f565b90506000806132d187338e60006139c9565b91509150838310156133985760006132e984866146ef565b600254604051636eb1769f60e11b815233600482015230602482015291925082916001600160a01b039091169063dd62ed3e90604401602060405180830381865afa15801561333c573d6000803e3d6000fd5b505050506040513d601f19601f820116820180604052508101906133609190614471565b101561337e5760405162461bcd60e51b81526004016102e4906146b8565b600254613396906001600160a01b0316333084613e65565b505b831561352957600160009054906101000a90046001600160a01b03166001600160a01b0316634942f65f6040518163ffffffff1660e01b8152600401602060405180830381865afa1580156133f1573d6000803e3d6000fd5b505050506040513d601f19601f820116820180604052508101906134159190614471565b84108061341f57508a5b1561349957600154600054604051630ed000b360e41b81526001600160a01b0391821660048201528c821660248201526044810187905291169063ed000b3090606401600060405180830381600087803b15801561347c57600080fd5b505af1158015613490573d6000803e3d6000fd5b50505050613529565b600160009054906101000a90046001600160a01b03166001600160a01b031663997be0f43460008054906101000a90046001600160a01b03168d888e8e6040518763ffffffff1660e01b81526004016134f69594939291906148dc565b6000604051808303818588803b15801561350f57600080fd5b505af1158015613523573d6000803e3d6000fd5b50505050505b60006135358585613860565b9050801561358757806007600082825461354f91906146ef565b9091555061355f905033826138e9565b600061356b8284613860565b905061357781846146ef565b925061358381856144c4565b9350505b811561359857613598308c84613876565b82156135a8576135a83384613b51565b600360009054906101000a90046001600160a01b03166001600160a01b03166376fd4fdf338f60006040518463ffffffff1660e01b81526004016135ee93929190614702565b600060405180830381600087803b15801561360857600080fd5b505af115801561361c573d6000803e3d6000fd5b5050505061362a8b88613d42565b336001600160a01b03166000805160206149518339815191528e89848960056000336001600160a01b03166001600160a01b031681526020019081526020016000205460405161369c959493929190948552602085019390935260408401919091526060830152608082015260a00190565b60405180910390a250505050505050505050505050565b600061ffff821115612f3a5760405162461bcd60e51b815260206004820152602660248201527f53616665436173743a2076616c756520646f65736e27742066697420696e203160448201526536206269747360d01b60648201526084016102e4565b60008083604001516000148061372b57508351155b600454602086015160a087015192935060009261375f92600160c01b900463ffffffff1691613759916146a1565b90613e9d565b905060008560c00151866040015161377791906146a1565b82116137845760006137a2565b604086015160c0870151613798908461477c565b6137a291906146ef565b905060006137b08683613860565b905060006137be8783612748565b6004549091506000906137e190849061271090600160e01b900461ffff16612762565b90506000866138015760408a01518a516137fc918490612762565b613803565b815b90506000878015613812575081155b6138435761383e84868d6040015161382a91906144c4565b8d516138379086906144c4565b9190612762565b613845565b835b905061385181836144c4565b9b9a5050505050505050505050565b600081831061386f5781610ce1565b5090919050565b8015611b5857306001600160a01b038416036138ba57806007600082825461389e91906146ef565b9091555050600254611b58906001600160a01b0316838361236c565b80600760008282546138cc91906144c4565b9091555050600254611b58906001600160a01b0316848484613e65565b6001600160a01b038216600090815260056020526040812080548392906139119084906144c4565b92505081905550806006600082825461392a91906144c4565b90915550505050565b3415611c8557346008600082825461394b91906144c4565b90915550506004805460408051630d0e30db60e41b815290516001600160a01b039092169263d0e30db0923492808301926000929182900301818588803b15801561112a57600080fd5b801561117c5780600860008282546139ad91906146ef565b909155505060045461117c906001600160a01b0316838361236c565b60008060006139d88787613b92565b6001600160a01b038781166000818152600560205260408082205460035491516370a0823160e01b81526004810194909452949550909216906370a0823190602401602060405180830381865afa158015613a37573d6000803e3d6000fd5b505050506040513d601f19601f82011682018060405250810190613a5b9190614471565b905080600003613a745760008094509450505050613b48565b6000613a81848984612762565b90506000876002811115613a9757613a976144d7565b03613ac8576000613aa88585612748565b9050613ab48282613860565b9550613ac086836146ef565b965050613b27565b6001876002811115613adc57613adc6144d7565b03613afe57613aeb8184613860565b9550613af786826146ef565b9450613b27565b60008411613b0d576000613b18565b613b18838286612762565b9550613b248187612748565b94505b613b3385600754613860565b9450613b4186600654613860565b9550505050505b94509492505050565b6001600160a01b03821660009081526005602052604081208054839290613b799084906146ef565b92505081905550806006600082825461392a91906146ef565b6003546040516370a0823160e01b81526001600160a01b03838116600483015260009283929116906370a0823190602401602060405180830381865afa158015613be0573d6000803e3d6000fd5b505050506040513d601f19601f82011682018060405250810190613c049190614471565b905080600003613c18576000915050610bba565b83516080850151610f8f918390612762565b6000613c7f826040518060400160405280602081526020017f5361666545524332303a206c6f772d6c6576656c2063616c6c206661696c6564815250856001600160a01b0316613eac9092919063ffffffff16565b9050805160001480613ca0575080806020019051810190613ca09190614725565b611b585760405162461bcd60e51b815260206004820152602a60248201527f5361666545524332303a204552433230206f7065726174696f6e20646964206e6044820152691bdd081cdd58d8d9595960b21b60648201526084016102e4565b6000613d19828560a00151866020015161375991906146a1565b8460c00151848660400151613d2e91906146ef565b613d3891906146a1565b1015949350505050565b801561117c578060086000828254613d5a91906146ef565b909155505060048054600160f01b60ff60f01b198216178255604051632e1a7d4d60e01b81529182018390526001600160a01b031690632e1a7d4d90602401600060405180830381600087803b158015613db357600080fd5b505af1158015613dc7573d6000803e3d6000fd5b50506004805460ff60f01b191690555061117c905082826122d1565b600454600090613e039084908390600160a01b900463ffffffff16613cff565b15613e505761291383604001518460c00151612909600460149054906101000a900463ffffffff1663ffffffff16868860200151613e4191906146ef565b8860a0015161375991906146a1565b60208301516040840151612913918490612762565b6040516001600160a01b03808516602483015283166044820152606481018290526112be9085906323b872dd60e01b90608401612398565b6000610ce18383612710612762565b6060610f8f848460008585600080866001600160a01b03168587604051613ed39190614921565b60006040518083038185875af1925050503d8060008114613f10576040519150601f19603f3d011682016040523d82523d6000602084013e613f15565b606091505b509150915061273d8783838760608315613f90578251600003613f89576001600160a01b0385163b613f895760405162461bcd60e51b815260206004820152601d60248201527f416464726573733a2063616c6c20746f206e6f6e2d636f6e747261637400000060448201526064016102e4565b5081610f8f565b610f8f8383815115613fa55781518083602001fd5b8060405162461bcd60e51b81526004016102e4919061493d565b6001600160a01b0381168114610b6b57600080fd5b600060208284031215613fe657600080fd5b8135610ce181613fbf565b60006020828403121561400357600080fd5b81356001600160e01b031981168114610ce157600080fd5b6000806040838503121561402e57600080fd5b823561403981613fbf565b946020939093013593505050565b60006020828403121561405957600080fd5b5035919050565b80356003811061406f57600080fd5b919050565b6000806040838503121561408757600080fd5b8235915061409760208401614060565b90509250929050565b803562ffffff8116811461406f57600080fd5b600080600080606085870312156140c957600080fd5b84356140d481613fbf565b93506140e2602086016140a0565b9250604085013567ffffffffffffffff808211156140ff57600080fd5b818701915087601f83011261411357600080fd5b81358181111561412257600080fd5b8860208260051b850101111561413757600080fd5b95989497505060200194505050565b8015158114610b6b57600080fd5b634e487b7160e01b600052604160045260246000fd5b600082601f83011261417b57600080fd5b813567ffffffffffffffff8082111561419657614196614154565b604051601f8301601f19908116603f011681019082821181831017156141be576141be614154565b816040528381528660208588010111156141d757600080fd5b836020870160208301376000602085830101528094505050505092915050565b600080600080600060a0868803121561420f57600080fd5b85359450602086013561422181614146565b9350604086013561423181613fbf565b9250606086013567ffffffffffffffff81111561424d57600080fd5b6142598882890161416a565b925050608086013561426a81613fbf565b809150509295509295909350565b6000806040838503121561428b57600080fd5b82359150602083013561429d81613fbf565b809150509250929050565b600080604083850312156142bb57600080fd5b82359150602083013561429d81614146565b6000806000606084860312156142e257600080fd5b83356142ed81613fbf565b95602085013595506040909401359392505050565b6000806000806080858703121561431857600080fd5b84359350602085013561432a81614146565b9250604085013567ffffffffffffffff81111561434657600080fd5b6143528782880161416a565b925050606085013561436381613fbf565b939692955090935050565b803563ffffffff8116811461406f57600080fd5b60008060008060008060c0878903121561439b57600080fd5b86356143a681613fbf565b955060208701356143b681613fbf565b945060408701356143c681613fbf565b93506143d46060880161436e565b92506143e26080880161436e565b915060a087013561ffff811681146143f957600080fd5b809150509295509295509295565b60008060006060848603121561441c57600080fd5b83359250602084013561442e81613fbf565b915061443c60408501614060565b90509250925092565b60208082526012908201527137b7363c9030b9b9b2ba1036b0b730b3b2b960711b604082015260600190565b60006020828403121561448357600080fd5b5051919050565b6020808252600a90820152691bdb9b1e481859d95b9d60b21b604082015260600190565b634e487b7160e01b600052601160045260246000fd5b80820180821115610bba57610bba6144ae565b634e487b7160e01b600052602160045260246000fd5b62ffffff6144fa826140a0565b16825260208101356bffffffffffffffffffffffff19811680821461451e57600080fd5b60208401525060408101356effffffffffffffffffffffffffffff811680821461454757600080fd5b60408401525060608101356005811061455f57600080fd5b806060840152505050565b6001600160a01b038781168252861660208083019190915262ffffff86166040830152841515606083015260a06080830181905282810184905260009160c09081850190600587811b8701840189875b8a8110156146705789830360bf190186528135368d9003609e190181126145e057600080fd5b8c01803536829003601e190181126145f757600080fd5b8101868101903567ffffffffffffffff81111561461357600080fd5b80871b80360383131561462557600080fd5b8b8752868c018290526001600160fb1b0382111561464257600080fd5b80838c8901376146568988018a86016144ed565b9888019895909501890194505050908401906001016145ba565b50909e9d5050505050505050505050505050565b60006020828403121561469657600080fd5b8151610ce181613fbf565b8082028115828204841417610bba57610bba6144ae565b6020808252601b908201527f662d617373657420616c6c6f77616e636520746f6f20736d616c6c0000000000604082015260600190565b81810381811115610bba57610bba6144ae565b6001600160a01b0393909316835260208301919091521515604082015260600190565b60006020828403121561473757600080fd5b8151610ce181614146565b6000806040838503121561475557600080fd5b505080516020909101519092909150565b634e487b7160e01b600052601260045260246000fd5b60008261478b5761478b614766565b500490565b60008261479f5761479f614766565b500690565b60208082526034908201527f746f6b656e20737570706c79206c656674206166746572206578697420697320604082015273746f6f206c6f7720616e64206e6f6e2d7a65726f60601b606082015260800190565b60208082526022908201527f616d6f756e74206f662073656e7420746f6b656e7320697320746f6f20736d616040820152611b1b60f21b606082015260800190565b60208082526032908201527f636f6c6c61746572616c206c656674206166746572206578697420697320746f6040820152716f206c6f7720616e64206e6f6e2d7a65726f60701b606082015260800190565b60005b838110156148a757818101518382015260200161488f565b50506000910152565b600081518084526148c881602086016020860161488c565b601f01601f19169290920160200192915050565b600060018060a01b038088168352808716602084015285604084015260a0606084015261490c60a08401866148b0565b91508084166080840152509695505050505050565b6000825161493381846020870161488c565b9190910192915050565b602081526000610ce160208301846148b056fe3cbd229dedaa8b29b8f29100166a217701549be8e58e781f204124f23fd0154ea26469706673582212209a8e1da4ae24522d0d20b5d8cfd4d55d2ffd7457af4a8919d3a27539292eeee764736f6c63430008170033",
  "linkReferences": {},
  "deployedLinkReferences": {}
}