{
  "_format": "hh-sol-artifact-1",
  "contractName": "CollateralPool",
  "sourceName": "contracts/assetManager/implementation/CollateralPool.sol",
  "abi": [
    {
      "inputs": [
        {
          "internalType": "address",
          "name": "_agentVault",
          "type": "address"
        },
        {
          "internalType": "address",
          "name": "_assetManager",
          "type": "address"
        },
        {
          "internalType": "address",
          "name": "_fAsset",
          "type": "address"
        },
        {
          "internalType": "uint32",
          "name": "_exitCollateralRatioBIPS",
          "type": "uint32"
        },
        {
          "internalType": "uint32",
          "name": "_topupCollateralRatioBIPS",
          "type": "uint32"
        },
        {
          "internalType": "uint16",
          "name": "_topupTokenPriceFactorBIPS",
          "type": "uint16"
        }
      ],
      "stateMutability": "nonpayable",
      "type": "constructor"
    },
    {
      "anonymous": false,
      "inputs": [
        {
          "indexed": false,
          "internalType": "address",
          "name": "previousAdmin",
          "type": "address"
        },
        {
          "indexed": false,
          "internalType": "address",
          "name": "newAdmin",
          "type": "address"
        }
      ],
      "name": "AdminChanged",
      "type": "event"
    },
    {
      "anonymous": false,
      "inputs": [
        {
          "indexed": true,
          "internalType": "address",
          "name": "beacon",
          "type": "address"
        }
      ],
      "name": "BeaconUpgraded",
      "type": "event"
    },
    {
      "anonymous": false,
      "inputs": [
        {
          "indexed": true,
          "internalType": "address",
          "name": "tokenHolder",
          "type": "address"
        },
        {
          "indexed": false,
          "internalType": "uint256",
          "name": "amountNatWei",
          "type": "uint256"
        },
        {
          "indexed": false,
          "internalType": "uint256",
          "name": "receivedTokensWei",
          "type": "uint256"
        },
        {
          "indexed": false,
          "internalType": "uint256",
          "name": "addedFAssetFeesUBA",
          "type": "uint256"
        },
        {
          "indexed": false,
          "internalType": "uint256",
          "name": "newFAssetFeeDebt",
          "type": "uint256"
        },
        {
          "indexed": false,
          "internalType": "uint256",
          "name": "timelockExpiresAt",
          "type": "uint256"
        }
      ],
      "name": "Entered",
      "type": "event"
    },
    {
      "anonymous": false,
      "inputs": [
        {
          "indexed": true,
          "internalType": "address",
          "name": "tokenHolder",
          "type": "address"
        },
        {
          "indexed": false,
          "internalType": "uint256",
          "name": "burnedTokensWei",
          "type": "uint256"
        },
        {
          "indexed": false,
          "internalType": "uint256",
          "name": "receivedNatWei",
          "type": "uint256"
        },
        {
          "indexed": false,
          "internalType": "uint256",
          "name": "receviedFAssetFeesUBA",
          "type": "uint256"
        },
        {
          "indexed": false,
          "internalType": "uint256",
          "name": "closedFAssetsUBA",
          "type": "uint256"
        },
        {
          "indexed": false,
          "internalType": "uint256",
          "name": "newFAssetFeeDebt",
          "type": "uint256"
        }
      ],
      "name": "Exited",
      "type": "event"
    },
    {
      "anonymous": false,
      "inputs": [
        {
          "indexed": false,
          "internalType": "uint256",
          "name": "burnedTokensWei",
          "type": "uint256"
        },
        {
          "indexed": false,
          "internalType": "uint256",
          "name": "redeemedFAssetUBA",
          "type": "uint256"
        }
      ],
      "name": "IncompleteSelfCloseExit",
      "type": "event"
    },
    {
      "anonymous": false,
      "inputs": [
        {
          "indexed": true,
          "internalType": "address",
          "name": "implementation",
          "type": "address"
        }
      ],
      "name": "Upgraded",
      "type": "event"
    },
    {
      "inputs": [],
      "name": "MIN_NAT_BALANCE_AFTER_EXIT",
      "outputs": [
        {
          "internalType": "uint256",
          "name": "",
          "type": "uint256"
        }
      ],
      "stateMutability": "view",
      "type": "function"
    },
    {
      "inputs": [],
      "name": "MIN_NAT_TO_ENTER",
      "outputs": [
        {
          "internalType": "uint256",
          "name": "",
          "type": "uint256"
        }
      ],
      "stateMutability": "view",
      "type": "function"
    },
    {
      "inputs": [],
      "name": "MIN_TOKEN_SUPPLY_AFTER_EXIT",
      "outputs": [
        {
          "internalType": "uint256",
          "name": "",
          "type": "uint256"
        }
      ],
      "stateMutability": "view",
      "type": "function"
    },
    {
      "inputs": [],
      "name": "agentVault",
      "outputs": [
        {
          "internalType": "address",
          "name": "",
          "type": "address"
        }
      ],
      "stateMutability": "view",
      "type": "function"
    },
    {
      "inputs": [],
      "name": "assetManager",
      "outputs": [
        {
          "internalType": "contract IIAssetManager",
          "name": "",
          "type": "address"
        }
      ],
      "stateMutability": "view",
      "type": "function"
    },
    {
      "inputs": [
        {
          "internalType": "contract IDistributionToDelegators",
          "name": "_distribution",
          "type": "address"
        },
        {
          "internalType": "uint256",
          "name": "_month",
          "type": "uint256"
        }
      ],
      "name": "claimAirdropDistribution",
      "outputs": [
        {
          "internalType": "uint256",
          "name": "",
          "type": "uint256"
        }
      ],
      "stateMutability": "nonpayable",
      "type": "function"
    },
    {
      "inputs": [
        {
          "internalType": "contract IRewardManager",
          "name": "_rewardManager",
          "type": "address"
        },
        {
          "internalType": "uint24",
          "name": "_lastRewardEpoch",
          "type": "uint24"
        },
        {
          "components": [
            {
              "internalType": "bytes32[]",
              "name": "merkleProof",
              "type": "bytes32[]"
            },
            {
              "components": [
                {
                  "internalType": "uint24",
                  "name": "rewardEpochId",
                  "type": "uint24"
                },
                {
                  "internalType": "bytes20",
                  "name": "beneficiary",
                  "type": "bytes20"
                },
                {
                  "internalType": "uint120",
                  "name": "amount",
                  "type": "uint120"
                },
                {
                  "internalType": "enum RewardsV2Interface.ClaimType",
                  "name": "claimType",
                  "type": "uint8"
                }
              ],
              "internalType": "struct RewardsV2Interface.RewardClaim",
              "name": "body",
              "type": "tuple"
            }
          ],
          "internalType": "struct RewardsV2Interface.RewardClaimWithProof[]",
          "name": "_proofs",
          "type": "tuple[]"
        }
      ],
      "name": "claimDelegationRewards",
      "outputs": [
        {
          "internalType": "uint256",
          "name": "",
          "type": "uint256"
        }
      ],
      "stateMutability": "nonpayable",
      "type": "function"
    },
    {
      "inputs": [
        {
          "internalType": "address",
          "name": "_account",
          "type": "address"
        }
      ],
      "name": "debtFreeTokensOf",
      "outputs": [
        {
          "internalType": "uint256",
          "name": "",
          "type": "uint256"
        }
      ],
      "stateMutability": "view",
      "type": "function"
    },
    {
      "inputs": [
        {
          "internalType": "address",
          "name": "_account",
          "type": "address"
        }
      ],
      "name": "debtLockedTokensOf",
      "outputs": [
        {
          "internalType": "uint256",
          "name": "",
          "type": "uint256"
        }
      ],
      "stateMutability": "view",
      "type": "function"
    },
    {
      "inputs": [
        {
          "internalType": "address",
          "name": "_to",
          "type": "address"
        },
        {
          "internalType": "uint256",
          "name": "_bips",
          "type": "uint256"
        }
      ],
      "name": "delegate",
      "outputs": [],
      "stateMutability": "nonpayable",
      "type": "function"
    },
    {
      "inputs": [
        {
          "internalType": "address",
          "name": "_to",
          "type": "address"
        }
      ],
      "name": "delegateGovernance",
      "outputs": [],
      "stateMutability": "nonpayable",
      "type": "function"
    },
    {
      "inputs": [],
      "name": "depositNat",
      "outputs": [],
      "stateMutability": "payable",
      "type": "function"
    },
    {
      "inputs": [
        {
          "internalType": "address payable",
          "name": "_recipient",
          "type": "address"
        }
      ],
      "name": "destroy",
      "outputs": [],
      "stateMutability": "nonpayable",
      "type": "function"
    },
    {
      "inputs": [
        {
          "internalType": "uint256",
          "name": "_fAssets",
          "type": "uint256"
        },
        {
          "internalType": "bool",
          "name": "_enterWithFullFAssets",
          "type": "bool"
        }
      ],
      "name": "enter",
      "outputs": [
        {
          "internalType": "uint256",
          "name": "",
          "type": "uint256"
        },
        {
          "internalType": "uint256",
          "name": "",
          "type": "uint256"
        }
      ],
      "stateMutability": "payable",
      "type": "function"
    },
    {
      "inputs": [
        {
          "internalType": "uint256",
          "name": "_tokenShare",
          "type": "uint256"
        },
        {
          "internalType": "enum ICollateralPool.TokenExitType",
          "name": "_exitType",
          "type": "uint8"
        }
      ],
      "name": "exit",
      "outputs": [
        {
          "internalType": "uint256",
          "name": "",
          "type": "uint256"
        },
        {
          "internalType": "uint256",
          "name": "",
          "type": "uint256"
        }
      ],
      "stateMutability": "nonpayable",
      "type": "function"
    },
    {
      "inputs": [],
      "name": "exitCollateralRatioBIPS",
      "outputs": [
        {
          "internalType": "uint32",
          "name": "",
          "type": "uint32"
        }
      ],
      "stateMutability": "view",
      "type": "function"
    },
    {
      "inputs": [
        {
          "internalType": "uint256",
          "name": "_tokenShare",
          "type": "uint256"
        },
        {
          "internalType": "address payable",
          "name": "_recipient",
          "type": "address"
        },
        {
          "internalType": "enum ICollateralPool.TokenExitType",
          "name": "_exitType",
          "type": "uint8"
        }
      ],
      "name": "exitTo",
      "outputs": [
        {
          "internalType": "uint256",
          "name": "",
          "type": "uint256"
        },
        {
          "internalType": "uint256",
          "name": "",
          "type": "uint256"
        }
      ],
      "stateMutability": "nonpayable",
      "type": "function"
    },
    {
      "inputs": [],
      "name": "fAsset",
      "outputs": [
        {
          "internalType": "contract IFAsset",
          "name": "",
          "type": "address"
        }
      ],
      "stateMutability": "view",
      "type": "function"
    },
    {
      "inputs": [
        {
          "internalType": "address",
          "name": "_account",
          "type": "address"
        }
      ],
      "name": "fAssetFeeDebtOf",
      "outputs": [
        {
          "internalType": "uint256",
          "name": "",
          "type": "uint256"
        }
      ],
      "stateMutability": "view",
      "type": "function"
    },
    {
      "inputs": [
        {
          "internalType": "uint256",
          "name": "_amount",
          "type": "uint256"
        }
      ],
      "name": "fAssetFeeDeposited",
      "outputs": [],
      "stateMutability": "nonpayable",
      "type": "function"
    },
    {
      "inputs": [
        {
          "internalType": "address",
          "name": "_account",
          "type": "address"
        }
      ],
      "name": "fAssetFeesOf",
      "outputs": [
        {
          "internalType": "uint256",
          "name": "",
          "type": "uint256"
        }
      ],
      "stateMutability": "view",
      "type": "function"
    },
    {
      "inputs": [
        {
          "internalType": "uint256",
          "name": "_tokenAmountWei",
          "type": "uint256"
        }
      ],
      "name": "fAssetRequiredForSelfCloseExit",
      "outputs": [
        {
          "internalType": "uint256",
          "name": "",
          "type": "uint256"
        }
      ],
      "stateMutability": "view",
      "type": "function"
    },
    {
      "inputs": [],
      "name": "implementation",
      "outputs": [
        {
          "internalType": "address",
          "name": "",
          "type": "address"
        }
      ],
      "stateMutability": "view",
      "type": "function"
    },
    {
      "inputs": [
        {
          "internalType": "address",
          "name": "_agentVault",
          "type": "address"
        },
        {
          "internalType": "address",
          "name": "_assetManager",
          "type": "address"
        },
        {
          "internalType": "address",
          "name": "_fAsset",
          "type": "address"
        },
        {
          "internalType": "uint32",
          "name": "_exitCollateralRatioBIPS",
          "type": "uint32"
        },
        {
          "internalType": "uint32",
          "name": "_topupCollateralRatioBIPS",
          "type": "uint32"
        },
        {
          "internalType": "uint16",
          "name": "_topupTokenPriceFactorBIPS",
          "type": "uint16"
        }
      ],
      "name": "initialize",
      "outputs": [],
      "stateMutability": "nonpayable",
      "type": "function"
    },
    {
      "inputs": [
        {
          "internalType": "contract IDistributionToDelegators",
          "name": "_distribution",
          "type": "address"
        }
      ],
      "name": "optOutOfAirdrop",
      "outputs": [],
      "stateMutability": "nonpayable",
      "type": "function"
    },
    {
      "inputs": [
        {
          "internalType": "uint256",
          "name": "_fAssets",
          "type": "uint256"
        }
      ],
      "name": "payFAssetFeeDebt",
      "outputs": [],
      "stateMutability": "nonpayable",
      "type": "function"
    },
    {
      "inputs": [
        {
          "internalType": "address",
          "name": "_recipient",
          "type": "address"
        },
        {
          "internalType": "uint256",
          "name": "_amount",
          "type": "uint256"
        },
        {
          "internalType": "uint256",
          "name": "_agentResponsibilityWei",
          "type": "uint256"
        }
      ],
      "name": "payout",
      "outputs": [],
      "stateMutability": "nonpayable",
      "type": "function"
    },
    {
      "inputs": [],
      "name": "poolToken",
      "outputs": [
        {
          "internalType": "contract ICollateralPoolToken",
          "name": "",
          "type": "address"
        }
      ],
      "stateMutability": "view",
      "type": "function"
    },
    {
      "inputs": [],
      "name": "proxiableUUID",
      "outputs": [
        {
          "internalType": "bytes32",
          "name": "",
          "type": "bytes32"
        }
      ],
      "stateMutability": "view",
      "type": "function"
    },
    {
      "inputs": [
        {
          "internalType": "address",
          "name": "_who",
          "type": "address"
        },
        {
          "internalType": "uint256",
          "name": "_blockNumber",
          "type": "uint256"
        }
      ],
      "name": "revokeDelegationAt",
      "outputs": [],
      "stateMutability": "nonpayable",
      "type": "function"
    },
    {
      "inputs": [
        {
          "internalType": "uint256",
          "name": "_tokenShare",
          "type": "uint256"
        },
        {
          "internalType": "bool",
          "name": "_redeemToCollateral",
          "type": "bool"
        },
        {
          "internalType": "string",
          "name": "_redeemerUnderlyingAddress",
          "type": "string"
        },
        {
          "internalType": "address payable",
          "name": "_executor",
          "type": "address"
        }
      ],
      "name": "selfCloseExit",
      "outputs": [],
      "stateMutability": "payable",
      "type": "function"
    },
    {
      "inputs": [
        {
          "internalType": "uint256",
          "name": "_tokenShare",
          "type": "uint256"
        },
        {
          "internalType": "bool",
          "name": "_redeemToCollateral",
          "type": "bool"
        },
        {
          "internalType": "address payable",
          "name": "_recipient",
          "type": "address"
        },
        {
          "internalType": "string",
          "name": "_redeemerUnderlyingAddress",
          "type": "string"
        },
        {
          "internalType": "address payable",
          "name": "_executor",
          "type": "address"
        }
      ],
      "name": "selfCloseExitTo",
      "outputs": [],
      "stateMutability": "payable",
      "type": "function"
    },
    {
      "inputs": [
        {
          "internalType": "uint256",
          "name": "_exitCollateralRatioBIPS",
          "type": "uint256"
        }
      ],
      "name": "setExitCollateralRatioBIPS",
      "outputs": [],
      "stateMutability": "nonpayable",
      "type": "function"
    },
    {
      "inputs": [
        {
          "internalType": "address",
          "name": "_poolToken",
          "type": "address"
        }
      ],
      "name": "setPoolToken",
      "outputs": [],
      "stateMutability": "nonpayable",
      "type": "function"
    },
    {
      "inputs": [
        {
          "internalType": "uint256",
          "name": "_topupCollateralRatioBIPS",
          "type": "uint256"
        }
      ],
      "name": "setTopupCollateralRatioBIPS",
      "outputs": [],
      "stateMutability": "nonpayable",
      "type": "function"
    },
    {
      "inputs": [
        {
          "internalType": "uint256",
          "name": "_topupTokenPriceFactorBIPS",
          "type": "uint256"
        }
      ],
      "name": "setTopupTokenPriceFactorBIPS",
      "outputs": [],
      "stateMutability": "nonpayable",
      "type": "function"
    },
    {
      "inputs": [
        {
          "internalType": "bytes4",
          "name": "_interfaceId",
          "type": "bytes4"
        }
      ],
      "name": "supportsInterface",
      "outputs": [
        {
          "internalType": "bool",
          "name": "",
          "type": "bool"
        }
      ],
      "stateMutability": "pure",
      "type": "function"
    },
    {
      "inputs": [],
      "name": "token",
      "outputs": [
        {
          "internalType": "contract IICollateralPoolToken",
          "name": "",
          "type": "address"
        }
      ],
      "stateMutability": "view",
      "type": "function"
    },
    {
      "inputs": [],
      "name": "topupCollateralRatioBIPS",
      "outputs": [
        {
          "internalType": "uint32",
          "name": "",
          "type": "uint32"
        }
      ],
      "stateMutability": "view",
      "type": "function"
    },
    {
      "inputs": [],
      "name": "topupTokenPriceFactorBIPS",
      "outputs": [
        {
          "internalType": "uint16",
          "name": "",
          "type": "uint16"
        }
      ],
      "stateMutability": "view",
      "type": "function"
    },
    {
      "inputs": [],
      "name": "totalCollateral",
      "outputs": [
        {
          "internalType": "uint256",
          "name": "",
          "type": "uint256"
        }
      ],
      "stateMutability": "view",
      "type": "function"
    },
    {
      "inputs": [],
      "name": "totalFAssetFeeDebt",
      "outputs": [
        {
          "internalType": "uint256",
          "name": "",
          "type": "uint256"
        }
      ],
      "stateMutability": "view",
      "type": "function"
    },
    {
      "inputs": [],
      "name": "totalFAssetFees",
      "outputs": [
        {
          "internalType": "uint256",
          "name": "",
          "type": "uint256"
        }
      ],
      "stateMutability": "view",
      "type": "function"
    },
    {
      "inputs": [],
      "name": "undelegateAll",
      "outputs": [],
      "stateMutability": "nonpayable",
      "type": "function"
    },
    {
      "inputs": [],
      "name": "undelegateGovernance",
      "outputs": [],
      "stateMutability": "nonpayable",
      "type": "function"
    },
    {
      "inputs": [
        {
          "internalType": "address",
          "name": "newImplementation",
          "type": "address"
        }
      ],
      "name": "upgradeTo",
      "outputs": [],
      "stateMutability": "nonpayable",
      "type": "function"
    },
    {
      "inputs": [
        {
          "internalType": "address",
          "name": "newImplementation",
          "type": "address"
        },
        {
          "internalType": "bytes",
          "name": "data",
          "type": "bytes"
        }
      ],
      "name": "upgradeToAndCall",
      "outputs": [],
      "stateMutability": "payable",
      "type": "function"
    },
    {
      "inputs": [
        {
          "internalType": "contract IWNat",
          "name": "_newWNat",
          "type": "address"
        }
      ],
      "name": "upgradeWNatContract",
      "outputs": [],
      "stateMutability": "nonpayable",
      "type": "function"
    },
    {
      "inputs": [
        {
          "internalType": "address",
          "name": "_account",
          "type": "address"
        }
      ],
      "name": "virtualFAssetOf",
      "outputs": [
        {
          "internalType": "uint256",
          "name": "",
          "type": "uint256"
        }
      ],
      "stateMutability": "view",
      "type": "function"
    },
    {
      "inputs": [],
      "name": "wNat",
      "outputs": [
        {
          "internalType": "contract IWNat",
          "name": "",
          "type": "address"
        }
      ],
      "stateMutability": "view",
      "type": "function"
    },
    {
      "inputs": [
        {
          "internalType": "uint256",
          "name": "_fAssets",
          "type": "uint256"
        }
      ],
      "name": "withdrawFees",
      "outputs": [],
      "stateMutability": "nonpayable",
      "type": "function"
    },
    {
      "inputs": [
        {
          "internalType": "uint256",
          "name": "_fAssets",
          "type": "uint256"
        },
        {
          "internalType": "address",
          "name": "_recipient",
          "type": "address"
        }
      ],
      "name": "withdrawFeesTo",
      "outputs": [],
      "stateMutability": "nonpayable",
      "type": "function"
    },
    {
      "stateMutability": "payable",
      "type": "receive"
    }
  ],
  "bytecode": "0x60a0604052306080523480156200001557600080fd5b50604051620054c0380380620054c083398101604081905262000038916200022c565b6200004886868686868662000054565b505050505050620002e6565b600454600160f81b900460ff1615620000b35760405162461bcd60e51b815260206004820152601360248201527f616c726561647920696e697469616c697a656400000000000000000000000000604482015260640160405180910390fd5b600480546001600160f81b0316600160f81b179055600080546001600160a01b038089166001600160a01b0319928316179092556001805488841690831681179091556002805493881693909216929092179055620001145760006200018e565b600160009054906101000a90046001600160a01b03166001600160a01b031663b5a488a66040518163ffffffff1660e01b8152600401602060405180830381865afa15801562000168573d6000803e3d6000fd5b505050506040513d601f19601f820116820180604052508101906200018e9190620002bf565b6004805461ffff909316600160e01b0261ffff60e01b1963ffffffff958616600160c01b021665ffffffffffff60c01b1995909616600160a01b026001600160c01b03199094166001600160a01b039390931692909217929092179290921692909217179055505050565b6001600160a01b03811681146200020f57600080fd5b50565b805163ffffffff811681146200022757600080fd5b919050565b60008060008060008060c087890312156200024657600080fd5b86516200025381620001f9565b60208801519096506200026681620001f9565b60408801519095506200027981620001f9565b9350620002896060880162000212565b9250620002996080880162000212565b915060a087015161ffff81168114620002b157600080fd5b809150509295509295509295565b600060208284031215620002d257600080fd5b8151620002df81620001f9565b9392505050565b6080516151a26200031e60003960008181610ed701528181610f1701528181611066015281816110a6015261112201526151a26000f3fe6080604052600436106103025760003560e01c806387a2a0dc11610190578063c1b0bbf8116100dc578063e4df73f011610095578063ee781db01161006f578063ee781db01461091c578063f4d000b21461093c578063fc0c546a1461095c578063fd86d3ea1461097c57600080fd5b8063e4df73f0146108c9578063e6916906146108dc578063eaf413fd146108fc57600080fd5b8063c1b0bbf814610817578063c79d245d14610837578063cb20941314610857578063cbabdf391461088d578063cbdf382c146108a3578063d1b8890e146108c157600080fd5b8063a854a6a211610149578063b302f39311610123578063b302f393146107be578063b337929b146107d3578063b9e26483146103d5578063bbd6fbf8146107f757600080fd5b8063a854a6a21461076b578063ac3736c11461078b578063adf58c151461079e57600080fd5b806387a2a0dc146106c057806388985cd6146106d5578063923f8932146106f557806394217ad11461070b5780639a4247e61461072b5780639edbf0071461074b57600080fd5b80634ac8eb5f1161024f578063787b9ca81161020857806380f13ee9116101e257806380f13ee91461064d578063815ea9d614610660578063868c3ba71461068057806386ac57a2146106a057600080fd5b8063787b9ca8146105ed5780637a68a5081461060d5780637c7db1a51461062d57600080fd5b80634ac8eb5f146105425780634f1ef2861461055857806352d1902d1461056b57806359c3d549146105805780635c60da1b146105a05780635e318e07146105cd57600080fd5b80631b92d84a116102bc5780633659cfe6116102965780633659cfe6146104945780633cfc747d146104b4578063406c7007146104ed5780634a4ac2ef1461050d57600080fd5b80631b92d84a1461041f5780632f35eac21461043f57806333ce01fd1461047457600080fd5b8062f55d9d1461036057806301ffc9a714610380578063026e402b146103b55780630ac07344146103d55780630dc1e5e1146103d557806315e2bfba146103ff57600080fd5b3661035b57600454600160f01b900460ff166103595760405162461bcd60e51b81526020600482015260116024820152706f6e6c7920696e7465726e616c2075736560781b60448201526064015b60405180910390fd5b005b600080fd5b34801561036c57600080fd5b5061035961037b366004614684565b61099c565b34801561038c57600080fd5b506103a061039b3660046146a1565b610c37565b60405190151581526020015b60405180910390f35b3480156103c157600080fd5b506103596103d03660046146cb565b610c89565b3480156103e157600080fd5b506103f1670de0b6b3a764000081565b6040519081526020016103ac565b34801561040b57600080fd5b506103f161041a366004614684565b610d1b565b34801561042b57600080fd5b506103f161043a3660046146f7565b610db1565b34801561044b57600080fd5b5061045f61045a366004614724565b610e06565b604080519283526020830191909152016103ac565b34801561048057600080fd5b5061035961048f366004614684565b610e2f565b3480156104a057600080fd5b506103596104af366004614684565b610ecd565b3480156104c057600080fd5b506004546104d890600160a01b900463ffffffff1681565b60405163ffffffff90911681526020016103ac565b3480156104f957600080fd5b506103f16105083660046146cb565b610f92565b34801561051957600080fd5b5060045461052f90600160e01b900461ffff1681565b60405161ffff90911681526020016103ac565b34801561054e57600080fd5b506103f160085481565b6103596105663660046147dc565b61105c565b34801561057757600080fd5b506103f1611115565b34801561058c57600080fd5b506103f161059b366004614853565b6111c8565b3480156105ac57600080fd5b506105b5611291565b6040516001600160a01b0390911681526020016103ac565b3480156105d957600080fd5b506103596105e83660046146f7565b6112a0565b3480156105f957600080fd5b506103596106083660046146f7565b6112ba565b34801561061957600080fd5b50610359610628366004614684565b61135e565b34801561063957600080fd5b506002546105b5906001600160a01b031681565b61035961065b366004614914565b61144e565b34801561066c57600080fd5b506000546105b5906001600160a01b031681565b34801561068c57600080fd5b5061035961069b366004614995565b61146b565b3480156106ac57600080fd5b506103596106bb366004614684565b611485565b3480156106cc57600080fd5b506103596114e5565b3480156106e157600080fd5b506103596106f03660046146f7565b6115c9565b34801561070157600080fd5b506103f160065481565b34801561071757600080fd5b506001546105b5906001600160a01b031681565b34801561073757600080fd5b506103596107463660046146f7565b6116b0565b34801561075757600080fd5b506004546105b5906001600160a01b031681565b34801561077757600080fd5b506103596107863660046146f7565b611786565b61045f6107993660046149c5565b6117ca565b3480156107aa57600080fd5b506103596107b93660046149ea565b611c5e565b3480156107ca57600080fd5b50610359611e62565b3480156107df57600080fd5b506004546104d890600160c01b900463ffffffff1681565b34801561080357600080fd5b506103596108123660046146cb565b611eca565b34801561082357600080fd5b506103f1610832366004614684565b611f2a565b34801561084357600080fd5b506103f1610852366004614684565b611f41565b34801561086357600080fd5b506103f1610872366004614684565b6001600160a01b031660009081526005602052604090205490565b34801561089957600080fd5b506103f160075481565b3480156108af57600080fd5b506003546001600160a01b03166105b5565b610359611f58565b6103596108d7366004614a1f565b611f8c565b3480156108e857600080fd5b506103596108f7366004614a9f565b611fa9565b34801561090857600080fd5b5061045f610917366004614b24565b61213a565b34801561092857600080fd5b506103596109373660046146f7565b612164565b34801561094857600080fd5b50610359610957366004614684565b612326565b34801561096857600080fd5b506003546105b5906001600160a01b031681565b34801561098857600080fd5b506103f1610997366004614684565b612546565b6001546001600160a01b031633146109c65760405162461bcd60e51b815260040161035090614b62565b6109ce61255d565b600360009054906101000a90046001600160a01b03166001600160a01b03166318160ddd6040518163ffffffff1660e01b8152600401602060405180830381865afa158015610a21573d6000803e3d6000fd5b505050506040513d601f19601f82011682018060405250810190610a459190614b8e565b15610aa35760405162461bcd60e51b815260206004820152602860248201527f63616e6e6f742064657374726f79206120706f6f6c20776974682069737375656044820152676420746f6b656e7360c01b6064820152608401610350565b60035460405162f55d9d60e01b81526001600160a01b0383811660048301529091169062f55d9d90602401600060405180830381600087803b158015610ae857600080fd5b505af1158015610afc573d6000803e3d6000fd5b50505050610b0a81476125d6565b600480546040516370a0823160e01b815230928101929092526000916001600160a01b03909116906370a0823190602401602060405180830381865afa158015610b58573d6000803e3d6000fd5b505050506040513d601f19601f82011682018060405250810190610b7c9190614b8e565b6002546040516370a0823160e01b81523060048201529192506000916001600160a01b03909116906370a0823190602401602060405180830381865afa158015610bca573d6000803e3d6000fd5b505050506040513d601f19601f82011682018060405250810190610bee9190614b8e565b90508115610c0d57600454610c0d906001600160a01b03168484612671565b8015610c2a57600254610c2a906001600160a01b03168483612671565b5050610c346126d4565b50565b60006001600160e01b031982166301ffc9a760e01b1480610c6857506001600160e01b0319821663982c94a560e01b145b80610c8357506001600160e01b031982166350eb34e160e11b145b92915050565b610c92336126fa565b610cae5760405162461bcd60e51b815260040161035090614ba7565b6004805460405163026e402b60e01b81526001600160a01b03858116938201939093526024810184905291169063026e402b906044015b600060405180830381600087803b158015610cff57600080fd5b505af1158015610d13573d6000803e3d6000fd5b505050505050565b600080610d26612774565b6003546040516370a0823160e01b81526001600160a01b038681166004830152929350610daa92909116906370a0823190602401602060405180830381865afa158015610d77573d6000803e3d6000fd5b505050506040513d601f19601f82011682018060405250810190610d9b9190614b8e565b610da58386612959565b612a4d565b9392505050565b600080610dbc612774565b80516040820151919250600091610dd4918690612a67565b90506000610de28383612b8d565b90506000610df08433612c34565b9050610dfc8282612a4d565b9695505050505050565b600080610e1161255d565b610e1c843385612c7d565b91509150610e286126d4565b9250929050565b6001546001600160a01b03163314610e595760405162461bcd60e51b815260040161035090614b62565b6003546001600160a01b031615610eab5760405162461bcd60e51b81526020600482015260166024820152751c1bdbdb081d1bdad95b88185b1c9958591e481cd95d60521b6044820152606401610350565b600380546001600160a01b0319166001600160a01b0392909216919091179055565b6001600160a01b037f0000000000000000000000000000000000000000000000000000000000000000163003610f155760405162461bcd60e51b815260040161035090614bcb565b7f00000000000000000000000000000000000000000000000000000000000000006001600160a01b0316610f476130b6565b6001600160a01b031614610f6d5760405162461bcd60e51b815260040161035090614c17565b610f76816130d2565b60408051600080825260208201909252610c34918391906130fc565b6000610f9d336126fa565b610fb95760405162461bcd60e51b815260040161035090614ba7565b60405163596090c960e11b81523060048201819052602482015260448101839052600160648201526000906001600160a01b0385169063b2c12192906084016020604051808303816000875af1158015611017573d6000803e3d6000fd5b505050506040513d601f19601f8201168201806040525081019061103b9190614b8e565b9050806008600082825461104f9190614c79565b9091555090949350505050565b6001600160a01b037f00000000000000000000000000000000000000000000000000000000000000001630036110a45760405162461bcd60e51b815260040161035090614bcb565b7f00000000000000000000000000000000000000000000000000000000000000006001600160a01b03166110d66130b6565b6001600160a01b0316146110fc5760405162461bcd60e51b815260040161035090614c17565b611105826130d2565b611111828260016130fc565b5050565b6000306001600160a01b037f000000000000000000000000000000000000000000000000000000000000000016146111b55760405162461bcd60e51b815260206004820152603860248201527f555550535570677261646561626c653a206d757374206e6f742062652063616c60448201527f6c6564207468726f7567682064656c656761746563616c6c00000000000000006064820152608401610350565b5060008051602061510683398151915290565b60006111d3336126fa565b6111ef5760405162461bcd60e51b815260040161035090614ba7565b604051638e33aba560e01b81526000906001600160a01b03871690638e33aba59061122990309081908a906001908b908b90600401614d1f565b6020604051808303816000875af1158015611248573d6000803e3d6000fd5b505050506040513d601f19601f8201168201806040525081019061126c9190614b8e565b905080600860008282546112809190614c79565b90915550909150505b949350505050565b600061129b6130b6565b905090565b6112a861255d565b6112b28133613267565b610c346126d4565b6001546001600160a01b031633146112e45760405162461bcd60e51b815260040161035090614b62565b600454600160c01b900463ffffffff1681116113325760405162461bcd60e51b815260206004820152600d60248201526c76616c756520746f6f206c6f7760981b6044820152606401610350565b61133b8161338b565b600460146101000a81548163ffffffff021916908363ffffffff16021790555050565b611367336126fa565b6113835760405162461bcd60e51b815260040161035090614ba7565b6004805460408051638c2b8ae160e01b815290516001600160a01b0390921692638c2b8ae19282820192602092908290030181865afa1580156113ca573d6000803e3d6000fd5b505050506040513d601f19601f820116820180604052508101906113ee9190614e39565b6040516317066a5760e21b81526001600160a01b0383811660048301529190911690635c19a95c90602401600060405180830381600087803b15801561143357600080fd5b505af1158015611447573d6000803e3d6000fd5b5050505050565b61145661255d565b61146385858585856133f4565b6114476126d4565b61147361255d565b61147d8282613267565b6111116126d4565b61148e336126fa565b6114aa5760405162461bcd60e51b815260040161035090614ba7565b806001600160a01b031663f2a1f7676040518163ffffffff1660e01b8152600401600060405180830381600087803b15801561143357600080fd5b6114ee336126fa565b61150a5760405162461bcd60e51b815260040161035090614ba7565b6004805460408051638c2b8ae160e01b815290516001600160a01b0390921692638c2b8ae19282820192602092908290030181865afa158015611551573d6000803e3d6000fd5b505050506040513d601f19601f820116820180604052508101906115759190614e39565b6001600160a01b03166392ab89bb6040518163ffffffff1660e01b8152600401600060405180830381600087803b1580156115af57600080fd5b505af11580156115c3573d6000803e3d6000fd5b50505050565b6001546001600160a01b031633146115f35760405162461bcd60e51b815260040161035090614b62565b600454600160a01b900463ffffffff1681106116425760405162461bcd60e51b815260206004820152600e60248201526d0ecc2d8eaca40e8dede40d0d2ced60931b6044820152606401610350565b600081116116845760405162461bcd60e51b815260206004820152600f60248201526e6d757374206265206e6f6e7a65726f60881b6044820152606401610350565b61168d8161338b565b600460186101000a81548163ffffffff021916908363ffffffff16021790555050565b6001546001600160a01b031633146116da5760405162461bcd60e51b815260040161035090614b62565b612710811061171c5760405162461bcd60e51b815260206004820152600e60248201526d0ecc2d8eaca40e8dede40d0d2ced60931b6044820152606401610350565b6000811161175e5760405162461bcd60e51b815260206004820152600f60248201526e6d757374206265206e6f6e7a65726f60881b6044820152606401610350565b61176781613b69565b6004601c6101000a81548161ffff021916908361ffff16021790555050565b6001546001600160a01b031633146117b05760405162461bcd60e51b815260040161035090614b62565b80600760008282546117c29190614c79565b909155505050565b6000806117d561255d565b60006117df612774565b90506103e881604001516117f39190614e56565b815111156118435760405162461bcd60e51b815260206004820152601a60248201527f706f6f6c206e61742062616c616e636520746f6f20736d616c6c0000000000006044820152606401610350565b670de0b6b3a764000034101561189b5760405162461bcd60e51b815260206004820152601d60248201527f616d6f756e74206f66206e61742073656e7420697320746f6f206c6f770000006044820152606401610350565b80516000036119f95780604001513410156119445760405162461bcd60e51b815260206004820152606060248201527f696620706f6f6c20686173206e6f20746f6b656e732c2062757420686f6c647360448201527f20636f6c6c61746572616c2c20796f75206e65656420746f2073656e6420617460648201527f206c65617374207468617420616d6f756e74206f6620636f6c6c61746572616c608482015260a401610350565b60a081015160c0820151606083015161195e929091612a67565b3410156119f95760405162461bcd60e51b815260206004820152605f60248201527f496620706f6f6c20686173206e6f20746f6b656e732c2062757420686f6c647360448201527f20662d61737365742c20796f75206e65656420746f2073656e64206174206c6560648201527f61737420662d617373657420776f727468206f6620636f6c6c61746572616c00608482015260a401610350565b6000611a058234613bcc565b9050600080836000015111611a1b576000611a2d565b82516080840151611a2d918490612a67565b9050600086611a4557611a408883613d16565b611a47565b815b90508015611aea57600254604051636eb1769f60e11b815233600482015230602482015282916001600160a01b03169063dd62ed3e90604401602060405180830381865afa158015611a9d573d6000803e3d6000fd5b505050506040513d601f19601f82011682018060405250810190611ac19190614b8e565b1015611adf5760405162461bcd60e51b815260040161035090614e6d565b611aea333083613d2c565b611afd33611af88385614ea4565b613d9f565b611b05613de9565b6001546000546004805460405163053fe26160e31b81526001600160a01b0393841692810192909252821660248201529116906329ff130890604401600060405180830381600087803b158015611b5b57600080fd5b505af1158015611b6f573d6000803e3d6000fd5b50506003546040516340c10f1960e01b815233600482015260248101879052600093506001600160a01b0390911691506340c10f19906044016020604051808303816000875af1158015611bc7573d6000803e3d6000fd5b505050506040513d601f19601f82011682018060405250810190611beb9190614b8e565b33600081815260056020908152604091829020548251348152918201899052818301879052606082015260808101849052905192935090917f8837aea61d24df2daef4ee681be933e5ea5c7ebe3cde964adef015dad51fe7859181900360a00190a2929550919350505050610e286126d4565b6001546001600160a01b03163314611c885760405162461bcd60e51b815260040161035090614b62565b611c9061255d565b6000611c9a612774565b9050611ca68484613e4b565b600354600080546040516370a0823160e01b81526001600160a01b039182166004820152919216906370a0823190602401602060405180830381865afa158015611cf4573d6000803e3d6000fd5b505050506040513d601f19601f82011682018060405250810190611d189190614b8e565b9050600080836040015111611d2d5781611d3f565b60408301518351611d3f918690612a67565b90506000611d4d8284613d16565b90508015611e515760008054611d709086906001600160a01b0316846002613e7f565b50600054909150611d8a906001600160a01b031682614007565b6003546000546040516376fd4fdf60e01b81526001600160a01b03928316926376fd4fdf92611dc3929116908690600190600401614eb7565b600060405180830381600087803b158015611ddd57600080fd5b505af1158015611df1573d6000803e3d6000fd5b5050600080546001600160a01b0316808252600560209081526040808420548151898152928301859052908201849052606082019390935260808101929092529250600080516020615126833981519152915060a00160405180910390a2505b50505050611e5d6126d4565b505050565b611e6b336126fa565b611e875760405162461bcd60e51b815260040161035090614ba7565b600480546040805163b302f39360e01b815290516001600160a01b039092169263b302f39392828201926000929082900301818387803b1580156115af57600080fd5b611ed3336126fa565b611eef5760405162461bcd60e51b815260040161035090614ba7565b6004805460405163177adf7f60e31b81526001600160a01b03858116938201939093526024810184905291169063bbd6fbf890604401610ce5565b600080611f35612774565b9050610daa8184612c34565b600080611f4c612774565b9050610daa8184612959565b6001546001600160a01b03163314611f825760405162461bcd60e51b815260040161035090614b62565b611f8a613de9565b565b611f9461255d565b611fa184843385856133f4565b6115c36126d4565b600454600160f81b900460ff1615611ff95760405162461bcd60e51b8152602060048201526013602482015272185b1c9958591e481a5b9a5d1a585b1a5e9959606a1b6044820152606401610350565b600480546001600160f81b0316600160f81b179055600080546001600160a01b038089166001600160a01b03199283161790925560018054888416908316811790915560028054938816939092169290921790556120585760006120cf565b600160009054906101000a90046001600160a01b03166001600160a01b031663b5a488a66040518163ffffffff1660e01b8152600401602060405180830381865afa1580156120ab573d6000803e3d6000fd5b505050506040513d601f19601f820116820180604052508101906120cf9190614e39565b6004805461ffff909316600160e01b0261ffff60e01b1963ffffffff958616600160c01b021665ffffffffffff60c01b1995909616600160a01b026001600160c01b03199094166001600160a01b039390931692909217929092179290921692909217179055505050565b60008061214561255d565b612150858585612c7d565b9150915061215c6126d4565b935093915050565b61216c61255d565b806000036121bc5760405162461bcd60e51b815260206004820152601960248201527f7a65726f20662d61737365742064656274207061796d656e74000000000000006044820152606401610350565b3360009081526005602052604090205481111561221b5760405162461bcd60e51b815260206004820152601e60248201527f6465627420662d61737365742062616c616e636520746f6f20736d616c6c00006044820152606401610350565b600254604051636eb1769f60e11b815233600482015230602482015282916001600160a01b03169063dd62ed3e90604401602060405180830381865afa158015612269573d6000803e3d6000fd5b505050506040513d601f19601f8201168201806040525081019061228d9190614b8e565b10156122ab5760405162461bcd60e51b815260040161035090614e6d565b6122b53382614007565b6122c0333083613d2c565b336000818152600560209081526040808320548151848152928301849052908201859052606082015260808101919091527f8837aea61d24df2daef4ee681be933e5ea5c7ebe3cde964adef015dad51fe7859060a00160405180910390a2610c346126d4565b6001546001600160a01b031633146123505760405162461bcd60e51b815260040161035090614b62565b61235861255d565b6004546001600160a01b038281169116146112b257600480546040516370a0823160e01b815230928101929092526000916001600160a01b03909116906370a0823190602401602060405180830381865afa1580156123bb573d6000803e3d6000fd5b505050506040513d601f19601f820116820180604052508101906123df9190614b8e565b6004805460ff60f01b198116600160f01b178255604051632e1a7d4d60e01b81529293506001600160a01b031691632e1a7d4d916124239185910190815260200190565b600060405180830381600087803b15801561243d57600080fd5b505af1158015612451573d6000803e3d6000fd5b50506004805460ff60f01b1916815560408051630d0e30db60e41b815290516001600160a01b038716945063d0e30db09350859282810192600092919082900301818588803b1580156124a357600080fd5b505af11580156124b7573d6000803e3d6000fd5b5050600480546001600160a01b0319166001600160a01b03878116918217835560015460005460405163053fe26160e31b81529083169481019490945260248401929092521693506329ff130892506044019050600060405180830381600087803b15801561252557600080fd5b505af1158015612539573d6000803e3d6000fd5b5050505050610c346126d4565b600080612551612774565b9050610daa8184614048565b7f0cd2207518cd3e5213e2c6dbe63d55b60aa893c194a427b7d7f1600408fd5bde8054600119016125d05760405162461bcd60e51b815260206004820152601f60248201527f5265656e7472616e637947756172643a207265656e7472616e742063616c6c006044820152606401610350565b60029055565b8015611111576000826001600160a01b03168260405160006040518083038185875af1925050503d8060008114612629576040519150601f19603f3d011682016040523d82523d6000602084013e61262e565b606091505b5050905080611e5d5760405162461bcd60e51b815260206004820152600f60248201526e1d1c985b9cd9995c8819985a5b1959608a1b6044820152606401610350565b6040516001600160a01b038316602482015260448101829052611e5d90849063a9059cbb60e01b906064015b60408051601f198184030181529190526020810180516001600160e01b03166001600160e01b0319909316929092179091526140e0565b60017f0cd2207518cd3e5213e2c6dbe63d55b60aa893c194a427b7d7f1600408fd5bde55565b6001546000805460405163d6b93a9f60e01b81526001600160a01b03918216600482015284821660248201529192169063d6b93a9f90604401602060405180830381865afa158015612750573d6000803e3d6000fd5b505050506040513d601f19601f82011682018060405250810190610c839190614eda565b6127b46040518060e00160405280600081526020016000815260200160008152602001600081526020016000815260200160008152602001600081525090565b60075460015460408051628c4abb60e21b8152815160009384936001600160a01b03909116926302312aec92600480830193928290030181865afa158015612800573d6000803e3d6000fd5b505050506040513d601f19601f820116820180604052508101906128249190614ef7565b915091506040518060e00160405280600360009054906101000a90046001600160a01b03166001600160a01b03166318160ddd6040518163ffffffff1660e01b8152600401602060405180830381865afa158015612886573d6000803e3d6000fd5b505050506040513d601f19601f820116820180604052508101906128aa9190614b8e565b815260015460005460405163769bb15560e11b81526001600160a01b03918216600482015260209093019291169063ed3762aa90602401602060405180830381865afa1580156128fe573d6000803e3d6000fd5b505050506040513d601f19601f820116820180604052508101906129229190614b8e565b81526020016008548152602001848152602001600654856129439190614c79565b8152602081019390935260409092015292915050565b6003546040516370a0823160e01b81526001600160a01b03838116600483015260009283929116906370a0823190602401602060405180830381865afa1580156129a7573d6000803e3d6000fd5b505050506040513d601f19601f820116820180604052508101906129cb9190614b8e565b9050806000036129df576000915050610c83565b6001600160a01b03831660009081526005602052604081205490819003612a0857509050610c83565b84516080860151600091612a1e91908590612a67565b90506000612a2c8284612a4d565b60808801518851919250612a4291908390612a67565b979650505050505050565b6000818311612a5d576000610daa565b610daa8284614ea4565b6000808211612aab5760405162461bcd60e51b815260206004820152601060248201526f4469766973696f6e206279207a65726f60801b6044820152606401610350565b83600003612abb57506000610daa565b83830283858281612ace57612ace614f1b565b0403612aec57828181612ae357612ae3614f1b565b04915050610daa565b506000612af98386614f31565b90506000612b078487614f45565b90506000612b158587614f31565b90506000612b238688614f45565b905085612b308285614e56565b612b3a9190614f31565b612b448385614e56565b612b4e8387614e56565b88612b598689614e56565b612b639190614e56565b612b6d9190614c79565b612b779190614c79565b612b819190614c79565b98975050505050505050565b600454600090612bad9084908390600160a01b900463ffffffff166141b5565b15612c1f57612c188360200151600460149054906101000a900463ffffffff1663ffffffff168560a00151612be29190614e56565b612710858760400151612bf59190614ea4565b8760c00151612c049190614e56565b612c0e9190614e56565b610da59190614f31565b9050610c83565b60408301516020840151612c18918490612a67565b600080612c418484614048565b6001600160a01b038416600090815260056020526040902054909150612c74612c6a8383612a4d565b8660600151613d16565b95945050505050565b60008060008511612cc65760405162461bcd60e51b8152602060048201526013602482015272746f6b656e207368617265206973207a65726f60681b6044820152606401610350565b6003546040516370a0823160e01b81523360048201526001600160a01b03909116906370a0823190602401602060405180830381865afa158015612d0e573d6000803e3d6000fd5b505050506040513d601f19601f82011682018060405250810190612d329190614b8e565b851115612d795760405162461bcd60e51b8152602060048201526015602482015274746f6b656e2062616c616e636520746f6f206c6f7760581b6044820152606401610350565b6000612d83612774565b8051909150861480612daa57508051670de0b6b3a764000090612da7908890614ea4565b10155b612dc65760405162461bcd60e51b815260040161035090614f59565b60408101518151600091612ddc91899190612a67565b905060008111612dfe5760405162461bcd60e51b815260040161035090614fad565b8082604001511480612e275750670de0b6b3a7640000818360400151612e249190614ea4565b10155b612e435760405162461bcd60e51b815260040161035090614fef565b600260009054906101000a90046001600160a01b03166001600160a01b031663194307bf6040518163ffffffff1660e01b8152600401602060405180830381865afa158015612e96573d6000803e3d6000fd5b505050506040513d601f19601f82011682018060405250810190612eba9190614eda565b15612f3d576003546040516376fd4fdf60e01b81526001600160a01b03909116906376fd4fdf90612ef49033908b90600190600401614eb7565b600060405180830381600087803b158015612f0e57600080fd5b505af1158015612f22573d6000803e3d6000fd5b50505050612f308682613e4b565b92506000915061215c9050565b600454612f5a9083908390600160a01b900463ffffffff166141b5565b612fb25760405162461bcd60e51b815260206004820152602360248201527f636f6c6c61746572616c20726174696f2066616c6c732062656c6f77206578696044820152623a21a960e91b6064820152608401610350565b600080612fc184338b8a613e7f565b90925090508015612fd757612fd7308983613d2c565b8115612fe757612fe73383614007565b6003546040516376fd4fdf60e01b81526001600160a01b03909116906376fd4fdf9061301c9033908d90600090600401614eb7565b600060405180830381600087803b15801561303657600080fd5b505af115801561304a573d6000803e3d6000fd5b5050505061305888846141f8565b3360008181526005602090815260408083205481518e8152928301889052908201859052606082019290925260808101919091526000805160206151268339815191529060a00160405180910390a291989197509095505050505050565b600080516020615106833981519152546001600160a01b031690565b6001546001600160a01b03163314610c345760405162461bcd60e51b815260040161035090614b62565b7f4910fdfa16fed3260ed0e7147f7cc6da11a60208b5b9406d12a635614ffd91435460ff161561312f57611e5d83614299565b826001600160a01b03166352d1902d6040518163ffffffff1660e01b8152600401602060405180830381865afa925050508015613189575060408051601f3d908101601f1916820190925261318691810190614b8e565b60015b6131ec5760405162461bcd60e51b815260206004820152602e60248201527f45524331393637557067726164653a206e657720696d706c656d656e7461746960448201526d6f6e206973206e6f74205555505360901b6064820152608401610350565b600080516020615106833981519152811461325b5760405162461bcd60e51b815260206004820152602960248201527f45524331393637557067726164653a20756e737570706f727465642070726f786044820152681a58589b195555525160ba1b6064820152608401610350565b50611e5d838383614335565b600082116132b75760405162461bcd60e51b815260206004820181905260248201527f747279696e6720746f207769746864726177207a65726f20662d6173736574736044820152606401610350565b60006132c1612774565b905060006132cf8233612c34565b9050808411156133215760405162461bcd60e51b815260206004820152601e60248201527f6672656520662d61737365742062616c616e636520746f6f20736d616c6c00006044820152606401610350565b61332b3385613d9f565b613336308486613d2c565b336000818152600560209081526040808320548151848152928301849052908201889052606082019290925260808101919091526000805160206151268339815191529060a00160405180910390a250505050565b600063ffffffff8211156133f05760405162461bcd60e51b815260206004820152602660248201527f53616665436173743a2076616c756520646f65736e27742066697420696e203360448201526532206269747360d01b6064820152608401610350565b5090565b6000851161343a5760405162461bcd60e51b8152602060048201526013602482015272746f6b656e207368617265206973207a65726f60681b6044820152606401610350565b6003546040516370a0823160e01b81523360048201526001600160a01b03909116906370a0823190602401602060405180830381865afa158015613482573d6000803e3d6000fd5b505050506040513d601f19601f820116820180604052508101906134a69190614b8e565b8511156134ed5760405162461bcd60e51b8152602060048201526015602482015274746f6b656e2062616c616e636520746f6f206c6f7760581b6044820152606401610350565b60006134f7612774565b805190915086148061351e57508051670de0b6b3a76400009061351b908890614ea4565b10155b61353a5760405162461bcd60e51b815260040161035090614f59565b8051604082015160009161355091908990612a67565b9050600081116135725760405162461bcd60e51b815260040161035090614fad565b808260400151148061359b5750670de0b6b3a76400008183604001516135989190614ea4565b10155b6135b75760405162461bcd60e51b815260040161035090614fef565b60015460008054604051631e8bee0160e01b81526001600160a01b03918216600482015291921690631e8bee0190602401602060405180830381865afa158015613605573d6000803e3d6000fd5b505050506040513d601f19601f820116820180604052508101906136299190614b8e565b905060006136378484612b8d565b90508082101561376957508061364d848261435a565b9250600083116136d55760405162461bcd60e51b815260206004820152604760248201527f616d6f756e74206f662073656e7420746f6b656e7320697320746f6f20736d6160448201527f6c6c206166746572206167656e74206d617820726564656d70746f6e20636f726064820152663932b1ba34b7b760c91b608482015260a401610350565b82846040015114806136fe5750670de0b6b3a76400008385604001516136fb9190614ea4565b10155b61371a5760405162461bcd60e51b815260040161035090614fef565b6040840151845161372c918590612a67565b6040805182815260208101849052919a507f7543f09ac709677c25f5aa8284e92f885eae7c7496789dd47cf87e28e5a1cf1c910160405180910390a15b60006137758533612c34565b905060008061378787338e6000613e7f565b915091508383101561384e57600061379f8486614ea4565b600254604051636eb1769f60e11b815233600482015230602482015291925082916001600160a01b039091169063dd62ed3e90604401602060405180830381865afa1580156137f2573d6000803e3d6000fd5b505050506040513d601f19601f820116820180604052508101906138169190614b8e565b10156138345760405162461bcd60e51b815260040161035090614e6d565b60025461384c906001600160a01b03163330846143dc565b505b83156139df57600160009054906101000a90046001600160a01b03166001600160a01b0316634942f65f6040518163ffffffff1660e01b8152600401602060405180830381865afa1580156138a7573d6000803e3d6000fd5b505050506040513d601f19601f820116820180604052508101906138cb9190614b8e565b8410806138d557508a5b1561394f57600154600054604051630ed000b360e41b81526001600160a01b0391821660048201528c821660248201526044810187905291169063ed000b3090606401600060405180830381600087803b15801561393257600080fd5b505af1158015613946573d6000803e3d6000fd5b505050506139df565b600160009054906101000a90046001600160a01b03166001600160a01b031663997be0f43460008054906101000a90046001600160a01b03168d888e8e6040518763ffffffff1660e01b81526004016139ac959493929190615091565b6000604051808303818588803b1580156139c557600080fd5b505af11580156139d9573d6000803e3d6000fd5b50505050505b60006139eb8585613d16565b90508015613a3d578060076000828254613a059190614ea4565b90915550613a1590503382613d9f565b6000613a218284613d16565b9050613a2d8184614ea4565b9250613a398185614c79565b9350505b8115613a4e57613a4e308c84613d2c565b8215613a5e57613a5e3384614007565b600360009054906101000a90046001600160a01b03166001600160a01b03166376fd4fdf338f60006040518463ffffffff1660e01b8152600401613aa493929190614eb7565b600060405180830381600087803b158015613abe57600080fd5b505af1158015613ad2573d6000803e3d6000fd5b50505050613ae08b886141f8565b336001600160a01b03166000805160206151268339815191528e89848960056000336001600160a01b03166001600160a01b0316815260200190815260200160002054604051613b52959493929190948552602085019390935260408401919091526060830152608082015260a00190565b60405180910390a250505050505050505050505050565b600061ffff8211156133f05760405162461bcd60e51b815260206004820152602660248201527f53616665436173743a2076616c756520646f65736e27742066697420696e203160448201526536206269747360d01b6064820152608401610350565b600080836040015160001480613be157508351155b600454602086015160a0870151929350600092613c1592600160c01b900463ffffffff1691613c0f91614e56565b90614414565b905060008560c001518660400151613c2d9190614e56565b8211613c3a576000613c58565b604086015160c0870151613c4e9084614f31565b613c589190614ea4565b90506000613c668683613d16565b90506000613c748783612a4d565b600454909150600090613c9790849061271090600160e01b900461ffff16612a67565b9050600086613cb75760408a01518a51613cb2918490612a67565b613cb9565b815b90506000878015613cc8575081155b613cf957613cf484868d60400151613ce09190614c79565b8d51613ced908690614c79565b9190612a67565b613cfb565b835b9050613d078183614c79565b9b9a5050505050505050505050565b6000818310613d255781610daa565b5090919050565b8015611e5d57306001600160a01b03841603613d70578060076000828254613d549190614ea4565b9091555050600254611e5d906001600160a01b03168383612671565b8060076000828254613d829190614c79565b9091555050600254611e5d906001600160a01b03168484846143dc565b6001600160a01b03821660009081526005602052604081208054839290613dc7908490614c79565b925050819055508060066000828254613de09190614c79565b90915550505050565b3415611f8a573460086000828254613e019190614c79565b90915550506004805460408051630d0e30db60e41b815290516001600160a01b039092169263d0e30db0923492808301926000929182900301818588803b15801561143357600080fd5b8015611111578060086000828254613e639190614ea4565b9091555050600454611111906001600160a01b03168383612671565b6000806000613e8e8787614048565b6001600160a01b038781166000818152600560205260408082205460035491516370a0823160e01b81526004810194909452949550909216906370a0823190602401602060405180830381865afa158015613eed573d6000803e3d6000fd5b505050506040513d601f19601f82011682018060405250810190613f119190614b8e565b905080600003613f2a5760008094509450505050613ffe565b6000613f37848984612a67565b90506000876002811115613f4d57613f4d614c8c565b03613f7e576000613f5e8585612a4d565b9050613f6a8282613d16565b9550613f768683614ea4565b965050613fdd565b6001876002811115613f9257613f92614c8c565b03613fb457613fa18184613d16565b9550613fad8682614ea4565b9450613fdd565b60008411613fc3576000613fce565b613fce838286612a67565b9550613fda8187612a4d565b94505b613fe985600754613d16565b9450613ff786600654613d16565b9550505050505b94509492505050565b6001600160a01b0382166000908152600560205260408120805483929061402f908490614ea4565b925050819055508060066000828254613de09190614ea4565b6003546040516370a0823160e01b81526001600160a01b03838116600483015260009283929116906370a0823190602401602060405180830381865afa158015614096573d6000803e3d6000fd5b505050506040513d601f19601f820116820180604052508101906140ba9190614b8e565b9050806000036140ce576000915050610c83565b83516080850151611289918390612a67565b6000614135826040518060400160405280602081526020017f5361666545524332303a206c6f772d6c6576656c2063616c6c206661696c6564815250856001600160a01b03166144239092919063ffffffff16565b90508051600014806141565750808060200190518101906141569190614eda565b611e5d5760405162461bcd60e51b815260206004820152602a60248201527f5361666545524332303a204552433230206f7065726174696f6e20646964206e6044820152691bdd081cdd58d8d9595960b21b6064820152608401610350565b60006141cf828560a001518660200151613c0f9190614e56565b8460c001518486604001516141e49190614ea4565b6141ee9190614e56565b1015949350505050565b80156111115780600860008282546142109190614ea4565b909155505060048054600160f01b60ff60f01b198216178255604051632e1a7d4d60e01b81529182018390526001600160a01b031690632e1a7d4d90602401600060405180830381600087803b15801561426957600080fd5b505af115801561427d573d6000803e3d6000fd5b50506004805460ff60f01b1916905550611111905082826125d6565b6001600160a01b0381163b6143065760405162461bcd60e51b815260206004820152602d60248201527f455243313936373a206e657720696d706c656d656e746174696f6e206973206e60448201526c1bdd08184818dbdb9d1c9858dd609a1b6064820152608401610350565b60008051602061510683398151915280546001600160a01b0319166001600160a01b0392909216919091179055565b61433e83614432565b60008251118061434b5750805b15611e5d576115c38383614472565b60045460009061437a9084908390600160a01b900463ffffffff166141b5565b156143c757612c1883604001518460c00151612c0e600460149054906101000a900463ffffffff1663ffffffff168688602001516143b89190614ea4565b8860a00151613c0f9190614e56565b60208301516040840151612c18918490612a67565b6040516001600160a01b03808516602483015283166044820152606481018290526115c39085906323b872dd60e01b9060840161269d565b6000610daa8383612710612a67565b60606112898484600085614497565b61443b81614299565b6040516001600160a01b038216907fbc7cd75a20ee27fd9adebab32041f755214dbc6bffa90cc0225b39da2e5c2d3b90600090a250565b6060610daa838360405180606001604052806027815260200161514660279139614567565b6060824710156144f85760405162461bcd60e51b815260206004820152602660248201527f416464726573733a20696e73756666696369656e742062616c616e636520666f6044820152651c8818d85b1b60d21b6064820152608401610350565b600080866001600160a01b0316858760405161451491906150d6565b60006040518083038185875af1925050503d8060008114614551576040519150601f19603f3d011682016040523d82523d6000602084013e614556565b606091505b5091509150612a42878383876145d1565b6060600080856001600160a01b03168560405161458491906150d6565b600060405180830381855af49150503d80600081146145bf576040519150601f19603f3d011682016040523d82523d6000602084013e6145c4565b606091505b5091509150610dfc868383875b60608315614640578251600003614639576001600160a01b0385163b6146395760405162461bcd60e51b815260206004820152601d60248201527f416464726573733a2063616c6c20746f206e6f6e2d636f6e74726163740000006044820152606401610350565b5081611289565b61128983838151156146555781518083602001fd5b8060405162461bcd60e51b815260040161035091906150f2565b6001600160a01b0381168114610c3457600080fd5b60006020828403121561469657600080fd5b8135610daa8161466f565b6000602082840312156146b357600080fd5b81356001600160e01b031981168114610daa57600080fd5b600080604083850312156146de57600080fd5b82356146e98161466f565b946020939093013593505050565b60006020828403121561470957600080fd5b5035919050565b80356003811061471f57600080fd5b919050565b6000806040838503121561473757600080fd5b8235915061474760208401614710565b90509250929050565b634e487b7160e01b600052604160045260246000fd5b600067ffffffffffffffff8084111561478157614781614750565b604051601f8501601f19908116603f011681019082821181831017156147a9576147a9614750565b816040528093508581528686860111156147c257600080fd5b858560208301376000602087830101525050509392505050565b600080604083850312156147ef57600080fd5b82356147fa8161466f565b9150602083013567ffffffffffffffff81111561481657600080fd5b8301601f8101851361482757600080fd5b61483685823560208401614766565b9150509250929050565b803562ffffff8116811461471f57600080fd5b6000806000806060858703121561486957600080fd5b84356148748161466f565b935061488260208601614840565b9250604085013567ffffffffffffffff8082111561489f57600080fd5b818701915087601f8301126148b357600080fd5b8135818111156148c257600080fd5b8860208260051b85010111156148d757600080fd5b95989497505060200194505050565b8015158114610c3457600080fd5b600082601f83011261490557600080fd5b610daa83833560208501614766565b600080600080600060a0868803121561492c57600080fd5b85359450602086013561493e816148e6565b9350604086013561494e8161466f565b9250606086013567ffffffffffffffff81111561496a57600080fd5b614976888289016148f4565b92505060808601356149878161466f565b809150509295509295909350565b600080604083850312156149a857600080fd5b8235915060208301356149ba8161466f565b809150509250929050565b600080604083850312156149d857600080fd5b8235915060208301356149ba816148e6565b6000806000606084860312156149ff57600080fd5b8335614a0a8161466f565b95602085013595506040909401359392505050565b60008060008060808587031215614a3557600080fd5b843593506020850135614a47816148e6565b9250604085013567ffffffffffffffff811115614a6357600080fd5b614a6f878288016148f4565b9250506060850135614a808161466f565b939692955090935050565b803563ffffffff8116811461471f57600080fd5b60008060008060008060c08789031215614ab857600080fd5b8635614ac38161466f565b95506020870135614ad38161466f565b94506040870135614ae38161466f565b9350614af160608801614a8b565b9250614aff60808801614a8b565b915060a087013561ffff81168114614b1657600080fd5b809150509295509295509295565b600080600060608486031215614b3957600080fd5b833592506020840135614b4b8161466f565b9150614b5960408501614710565b90509250925092565b60208082526012908201527137b7363c9030b9b9b2ba1036b0b730b3b2b960711b604082015260600190565b600060208284031215614ba057600080fd5b5051919050565b6020808252600a90820152691bdb9b1e481859d95b9d60b21b604082015260600190565b6020808252602c908201527f46756e6374696f6e206d7573742062652063616c6c6564207468726f7567682060408201526b19195b1959d85d1958d85b1b60a21b606082015260800190565b6020808252602c908201527f46756e6374696f6e206d7573742062652063616c6c6564207468726f7567682060408201526b6163746976652070726f787960a01b606082015260800190565b634e487b7160e01b600052601160045260246000fd5b80820180821115610c8357610c83614c63565b634e487b7160e01b600052602160045260246000fd5b62ffffff614caf82614840565b16825260208101356bffffffffffffffffffffffff198116808214614cd357600080fd5b60208401525060408101356effffffffffffffffffffffffffffff8116808214614cfc57600080fd5b604084015250606081013560058110614d1457600080fd5b806060840152505050565b6001600160a01b038781168252861660208083019190915262ffffff86166040830152841515606083015260a06080830181905282810184905260009160c09081850190600587811b8701840189875b8a811015614e255789830360bf190186528135368d9003609e19018112614d9557600080fd5b8c01803536829003601e19018112614dac57600080fd5b8101868101903567ffffffffffffffff811115614dc857600080fd5b80871b803603831315614dda57600080fd5b8b8752868c018290526001600160fb1b03821115614df757600080fd5b80838c890137614e0b8988018a8601614ca2565b988801989590950189019450505090840190600101614d6f565b50909e9d5050505050505050505050505050565b600060208284031215614e4b57600080fd5b8151610daa8161466f565b8082028115828204841417610c8357610c83614c63565b6020808252601b908201527f662d617373657420616c6c6f77616e636520746f6f20736d616c6c0000000000604082015260600190565b81810381811115610c8357610c83614c63565b6001600160a01b0393909316835260208301919091521515604082015260600190565b600060208284031215614eec57600080fd5b8151610daa816148e6565b60008060408385031215614f0a57600080fd5b505080516020909101519092909150565b634e487b7160e01b600052601260045260246000fd5b600082614f4057614f40614f1b565b500490565b600082614f5457614f54614f1b565b500690565b60208082526034908201527f746f6b656e20737570706c79206c656674206166746572206578697420697320604082015273746f6f206c6f7720616e64206e6f6e2d7a65726f60601b606082015260800190565b60208082526022908201527f616d6f756e74206f662073656e7420746f6b656e7320697320746f6f20736d616040820152611b1b60f21b606082015260800190565b60208082526032908201527f636f6c6c61746572616c206c656674206166746572206578697420697320746f6040820152716f206c6f7720616e64206e6f6e2d7a65726f60701b606082015260800190565b60005b8381101561505c578181015183820152602001615044565b50506000910152565b6000815180845261507d816020860160208601615041565b601f01601f19169290920160200192915050565b600060018060a01b038088168352808716602084015285604084015260a060608401526150c160a0840186615065565b91508084166080840152509695505050505050565b600082516150e8818460208701615041565b9190910192915050565b602081526000610daa602083018461506556fe360894a13ba1a3210667c828492db98dca3e2076cc3735a920a3ca505d382bbc3cbd229dedaa8b29b8f29100166a217701549be8e58e781f204124f23fd0154e416464726573733a206c6f772d6c6576656c2064656c65676174652063616c6c206661696c6564a26469706673582212206102b931dcec01a30a869e20325ec68eeebe333b7bbb933c3c14e18950d1974e64736f6c63430008170033",
  "linkReferences": {},
  "deployedLinkReferences": {}
}