{
  "_format": "hh-sol-artifact-1",
  "contractName": "CollateralPool",
  "sourceName": "contracts/assetManager/implementation/CollateralPool.sol",
  "abi": [
    {
      "inputs": [
        {
          "internalType": "address",
          "name": "_agentVault",
          "type": "address"
        },
        {
          "internalType": "address",
          "name": "_assetManager",
          "type": "address"
        },
        {
          "internalType": "address",
          "name": "_fAsset",
          "type": "address"
        },
        {
          "internalType": "uint32",
          "name": "_exitCollateralRatioBIPS",
          "type": "uint32"
        },
        {
          "internalType": "uint32",
          "name": "_topupCollateralRatioBIPS",
          "type": "uint32"
        },
        {
          "internalType": "uint16",
          "name": "_topupTokenPriceFactorBIPS",
          "type": "uint16"
        }
      ],
      "stateMutability": "nonpayable",
      "type": "constructor"
    },
    {
      "anonymous": false,
      "inputs": [
        {
          "indexed": false,
          "internalType": "address",
          "name": "previousAdmin",
          "type": "address"
        },
        {
          "indexed": false,
          "internalType": "address",
          "name": "newAdmin",
          "type": "address"
        }
      ],
      "name": "AdminChanged",
      "type": "event"
    },
    {
      "anonymous": false,
      "inputs": [
        {
          "indexed": true,
          "internalType": "address",
          "name": "beacon",
          "type": "address"
        }
      ],
      "name": "BeaconUpgraded",
      "type": "event"
    },
    {
      "anonymous": false,
      "inputs": [
        {
          "indexed": true,
          "internalType": "address",
          "name": "tokenHolder",
          "type": "address"
        },
        {
          "indexed": false,
          "internalType": "uint256",
          "name": "amountNatWei",
          "type": "uint256"
        },
        {
          "indexed": false,
          "internalType": "uint256",
          "name": "receivedTokensWei",
          "type": "uint256"
        },
        {
          "indexed": false,
          "internalType": "uint256",
          "name": "addedFAssetFeesUBA",
          "type": "uint256"
        },
        {
          "indexed": false,
          "internalType": "uint256",
          "name": "newFAssetFeeDebt",
          "type": "uint256"
        },
        {
          "indexed": false,
          "internalType": "uint256",
          "name": "timelockExpiresAt",
          "type": "uint256"
        }
      ],
      "name": "Entered",
      "type": "event"
    },
    {
      "anonymous": false,
      "inputs": [
        {
          "indexed": true,
          "internalType": "address",
          "name": "tokenHolder",
          "type": "address"
        },
        {
          "indexed": false,
          "internalType": "uint256",
          "name": "burnedTokensWei",
          "type": "uint256"
        },
        {
          "indexed": false,
          "internalType": "uint256",
          "name": "receivedNatWei",
          "type": "uint256"
        },
        {
          "indexed": false,
          "internalType": "uint256",
          "name": "receviedFAssetFeesUBA",
          "type": "uint256"
        },
        {
          "indexed": false,
          "internalType": "uint256",
          "name": "closedFAssetsUBA",
          "type": "uint256"
        },
        {
          "indexed": false,
          "internalType": "uint256",
          "name": "newFAssetFeeDebt",
          "type": "uint256"
        }
      ],
      "name": "Exited",
      "type": "event"
    },
    {
      "anonymous": false,
      "inputs": [
        {
          "indexed": false,
          "internalType": "uint256",
          "name": "burnedTokensWei",
          "type": "uint256"
        },
        {
          "indexed": false,
          "internalType": "uint256",
          "name": "redeemedFAssetUBA",
          "type": "uint256"
        }
      ],
      "name": "IncompleteSelfCloseExit",
      "type": "event"
    },
    {
      "anonymous": false,
      "inputs": [
        {
          "indexed": true,
          "internalType": "address",
          "name": "implementation",
          "type": "address"
        }
      ],
      "name": "Upgraded",
      "type": "event"
    },
    {
      "inputs": [],
      "name": "MIN_NAT_BALANCE_AFTER_EXIT",
      "outputs": [
        {
          "internalType": "uint256",
          "name": "",
          "type": "uint256"
        }
      ],
      "stateMutability": "view",
      "type": "function"
    },
    {
      "inputs": [],
      "name": "MIN_NAT_TO_ENTER",
      "outputs": [
        {
          "internalType": "uint256",
          "name": "",
          "type": "uint256"
        }
      ],
      "stateMutability": "view",
      "type": "function"
    },
    {
      "inputs": [],
      "name": "MIN_TOKEN_SUPPLY_AFTER_EXIT",
      "outputs": [
        {
          "internalType": "uint256",
          "name": "",
          "type": "uint256"
        }
      ],
      "stateMutability": "view",
      "type": "function"
    },
    {
      "inputs": [],
      "name": "agentVault",
      "outputs": [
        {
          "internalType": "address",
          "name": "",
          "type": "address"
        }
      ],
      "stateMutability": "view",
      "type": "function"
    },
    {
      "inputs": [],
      "name": "assetManager",
      "outputs": [
        {
          "internalType": "contract IIAssetManager",
          "name": "",
          "type": "address"
        }
      ],
      "stateMutability": "view",
      "type": "function"
    },
    {
      "inputs": [
        {
          "internalType": "contract IDistributionToDelegators",
          "name": "_distribution",
          "type": "address"
        },
        {
          "internalType": "uint256",
          "name": "_month",
          "type": "uint256"
        }
      ],
      "name": "claimAirdropDistribution",
      "outputs": [
        {
          "internalType": "uint256",
          "name": "",
          "type": "uint256"
        }
      ],
      "stateMutability": "nonpayable",
      "type": "function"
    },
    {
      "inputs": [
        {
          "internalType": "contract IRewardManager",
          "name": "_rewardManager",
          "type": "address"
        },
        {
          "internalType": "uint24",
          "name": "_lastRewardEpoch",
          "type": "uint24"
        },
        {
          "components": [
            {
              "internalType": "bytes32[]",
              "name": "merkleProof",
              "type": "bytes32[]"
            },
            {
              "components": [
                {
                  "internalType": "uint24",
                  "name": "rewardEpochId",
                  "type": "uint24"
                },
                {
                  "internalType": "bytes20",
                  "name": "beneficiary",
                  "type": "bytes20"
                },
                {
                  "internalType": "uint120",
                  "name": "amount",
                  "type": "uint120"
                },
                {
                  "internalType": "enum RewardsV2Interface.ClaimType",
                  "name": "claimType",
                  "type": "uint8"
                }
              ],
              "internalType": "struct RewardsV2Interface.RewardClaim",
              "name": "body",
              "type": "tuple"
            }
          ],
          "internalType": "struct RewardsV2Interface.RewardClaimWithProof[]",
          "name": "_proofs",
          "type": "tuple[]"
        }
      ],
      "name": "claimDelegationRewards",
      "outputs": [
        {
          "internalType": "uint256",
          "name": "",
          "type": "uint256"
        }
      ],
      "stateMutability": "nonpayable",
      "type": "function"
    },
    {
      "inputs": [
        {
          "internalType": "address",
          "name": "_account",
          "type": "address"
        }
      ],
      "name": "debtFreeTokensOf",
      "outputs": [
        {
          "internalType": "uint256",
          "name": "",
          "type": "uint256"
        }
      ],
      "stateMutability": "view",
      "type": "function"
    },
    {
      "inputs": [
        {
          "internalType": "address",
          "name": "_account",
          "type": "address"
        }
      ],
      "name": "debtLockedTokensOf",
      "outputs": [
        {
          "internalType": "uint256",
          "name": "",
          "type": "uint256"
        }
      ],
      "stateMutability": "view",
      "type": "function"
    },
    {
      "inputs": [
        {
          "internalType": "address",
          "name": "_to",
          "type": "address"
        },
        {
          "internalType": "uint256",
          "name": "_bips",
          "type": "uint256"
        }
      ],
      "name": "delegate",
      "outputs": [],
      "stateMutability": "nonpayable",
      "type": "function"
    },
    {
      "inputs": [
        {
          "internalType": "address",
          "name": "_to",
          "type": "address"
        }
      ],
      "name": "delegateGovernance",
      "outputs": [],
      "stateMutability": "nonpayable",
      "type": "function"
    },
    {
      "inputs": [],
      "name": "depositNat",
      "outputs": [],
      "stateMutability": "payable",
      "type": "function"
    },
    {
      "inputs": [
        {
          "internalType": "address payable",
          "name": "_recipient",
          "type": "address"
        }
      ],
      "name": "destroy",
      "outputs": [],
      "stateMutability": "nonpayable",
      "type": "function"
    },
    {
      "inputs": [
        {
          "internalType": "uint256",
          "name": "_fAssets",
          "type": "uint256"
        },
        {
          "internalType": "bool",
          "name": "_enterWithFullFAssets",
          "type": "bool"
        }
      ],
      "name": "enter",
      "outputs": [
        {
          "internalType": "uint256",
          "name": "",
          "type": "uint256"
        },
        {
          "internalType": "uint256",
          "name": "",
          "type": "uint256"
        }
      ],
      "stateMutability": "payable",
      "type": "function"
    },
    {
      "inputs": [
        {
          "internalType": "uint256",
          "name": "_tokenShare",
          "type": "uint256"
        },
        {
          "internalType": "enum ICollateralPool.TokenExitType",
          "name": "_exitType",
          "type": "uint8"
        }
      ],
      "name": "exit",
      "outputs": [
        {
          "internalType": "uint256",
          "name": "",
          "type": "uint256"
        },
        {
          "internalType": "uint256",
          "name": "",
          "type": "uint256"
        }
      ],
      "stateMutability": "nonpayable",
      "type": "function"
    },
    {
      "inputs": [],
      "name": "exitCollateralRatioBIPS",
      "outputs": [
        {
          "internalType": "uint32",
          "name": "",
          "type": "uint32"
        }
      ],
      "stateMutability": "view",
      "type": "function"
    },
    {
      "inputs": [
        {
          "internalType": "uint256",
          "name": "_tokenShare",
          "type": "uint256"
        },
        {
          "internalType": "address payable",
          "name": "_recipient",
          "type": "address"
        },
        {
          "internalType": "enum ICollateralPool.TokenExitType",
          "name": "_exitType",
          "type": "uint8"
        }
      ],
      "name": "exitTo",
      "outputs": [
        {
          "internalType": "uint256",
          "name": "",
          "type": "uint256"
        },
        {
          "internalType": "uint256",
          "name": "",
          "type": "uint256"
        }
      ],
      "stateMutability": "nonpayable",
      "type": "function"
    },
    {
      "inputs": [],
      "name": "fAsset",
      "outputs": [
        {
          "internalType": "contract IFAsset",
          "name": "",
          "type": "address"
        }
      ],
      "stateMutability": "view",
      "type": "function"
    },
    {
      "inputs": [
        {
          "internalType": "address",
          "name": "_account",
          "type": "address"
        }
      ],
      "name": "fAssetFeeDebtOf",
      "outputs": [
        {
          "internalType": "uint256",
          "name": "",
          "type": "uint256"
        }
      ],
      "stateMutability": "view",
      "type": "function"
    },
    {
      "inputs": [
        {
          "internalType": "uint256",
          "name": "_amount",
          "type": "uint256"
        }
      ],
      "name": "fAssetFeeDeposited",
      "outputs": [],
      "stateMutability": "nonpayable",
      "type": "function"
    },
    {
      "inputs": [
        {
          "internalType": "address",
          "name": "_account",
          "type": "address"
        }
      ],
      "name": "fAssetFeesOf",
      "outputs": [
        {
          "internalType": "uint256",
          "name": "",
          "type": "uint256"
        }
      ],
      "stateMutability": "view",
      "type": "function"
    },
    {
      "inputs": [
        {
          "internalType": "uint256",
          "name": "_tokenAmountWei",
          "type": "uint256"
        }
      ],
      "name": "fAssetRequiredForSelfCloseExit",
      "outputs": [
        {
          "internalType": "uint256",
          "name": "",
          "type": "uint256"
        }
      ],
      "stateMutability": "view",
      "type": "function"
    },
    {
      "inputs": [],
      "name": "implementation",
      "outputs": [
        {
          "internalType": "address",
          "name": "",
          "type": "address"
        }
      ],
      "stateMutability": "view",
      "type": "function"
    },
    {
      "inputs": [
        {
          "internalType": "address",
          "name": "_agentVault",
          "type": "address"
        },
        {
          "internalType": "address",
          "name": "_assetManager",
          "type": "address"
        },
        {
          "internalType": "address",
          "name": "_fAsset",
          "type": "address"
        },
        {
          "internalType": "uint32",
          "name": "_exitCollateralRatioBIPS",
          "type": "uint32"
        },
        {
          "internalType": "uint32",
          "name": "_topupCollateralRatioBIPS",
          "type": "uint32"
        },
        {
          "internalType": "uint16",
          "name": "_topupTokenPriceFactorBIPS",
          "type": "uint16"
        }
      ],
      "name": "initialize",
      "outputs": [],
      "stateMutability": "nonpayable",
      "type": "function"
    },
    {
      "inputs": [
        {
          "internalType": "contract IDistributionToDelegators",
          "name": "_distribution",
          "type": "address"
        }
      ],
      "name": "optOutOfAirdrop",
      "outputs": [],
      "stateMutability": "nonpayable",
      "type": "function"
    },
    {
      "inputs": [
        {
          "internalType": "uint256",
          "name": "_fAssets",
          "type": "uint256"
        }
      ],
      "name": "payFAssetFeeDebt",
      "outputs": [],
      "stateMutability": "nonpayable",
      "type": "function"
    },
    {
      "inputs": [
        {
          "internalType": "address",
          "name": "_recipient",
          "type": "address"
        },
        {
          "internalType": "uint256",
          "name": "_amount",
          "type": "uint256"
        },
        {
          "internalType": "uint256",
          "name": "_agentResponsibilityWei",
          "type": "uint256"
        }
      ],
      "name": "payout",
      "outputs": [],
      "stateMutability": "nonpayable",
      "type": "function"
    },
    {
      "inputs": [],
      "name": "poolToken",
      "outputs": [
        {
          "internalType": "contract ICollateralPoolToken",
          "name": "",
          "type": "address"
        }
      ],
      "stateMutability": "view",
      "type": "function"
    },
    {
      "inputs": [],
      "name": "proxiableUUID",
      "outputs": [
        {
          "internalType": "bytes32",
          "name": "",
          "type": "bytes32"
        }
      ],
      "stateMutability": "view",
      "type": "function"
    },
    {
      "inputs": [
        {
          "internalType": "address",
          "name": "_who",
          "type": "address"
        },
        {
          "internalType": "uint256",
          "name": "_blockNumber",
          "type": "uint256"
        }
      ],
      "name": "revokeDelegationAt",
      "outputs": [],
      "stateMutability": "nonpayable",
      "type": "function"
    },
    {
      "inputs": [
        {
          "internalType": "uint256",
          "name": "_tokenShare",
          "type": "uint256"
        },
        {
          "internalType": "bool",
          "name": "_redeemToCollateral",
          "type": "bool"
        },
        {
          "internalType": "string",
          "name": "_redeemerUnderlyingAddress",
          "type": "string"
        },
        {
          "internalType": "address payable",
          "name": "_executor",
          "type": "address"
        }
      ],
      "name": "selfCloseExit",
      "outputs": [],
      "stateMutability": "payable",
      "type": "function"
    },
    {
      "inputs": [
        {
          "internalType": "uint256",
          "name": "_tokenShare",
          "type": "uint256"
        },
        {
          "internalType": "bool",
          "name": "_redeemToCollateral",
          "type": "bool"
        },
        {
          "internalType": "address payable",
          "name": "_recipient",
          "type": "address"
        },
        {
          "internalType": "string",
          "name": "_redeemerUnderlyingAddress",
          "type": "string"
        },
        {
          "internalType": "address payable",
          "name": "_executor",
          "type": "address"
        }
      ],
      "name": "selfCloseExitTo",
      "outputs": [],
      "stateMutability": "payable",
      "type": "function"
    },
    {
      "inputs": [
        {
          "internalType": "uint256",
          "name": "_exitCollateralRatioBIPS",
          "type": "uint256"
        }
      ],
      "name": "setExitCollateralRatioBIPS",
      "outputs": [],
      "stateMutability": "nonpayable",
      "type": "function"
    },
    {
      "inputs": [
        {
          "internalType": "address",
          "name": "_poolToken",
          "type": "address"
        }
      ],
      "name": "setPoolToken",
      "outputs": [],
      "stateMutability": "nonpayable",
      "type": "function"
    },
    {
      "inputs": [
        {
          "internalType": "uint256",
          "name": "_topupCollateralRatioBIPS",
          "type": "uint256"
        }
      ],
      "name": "setTopupCollateralRatioBIPS",
      "outputs": [],
      "stateMutability": "nonpayable",
      "type": "function"
    },
    {
      "inputs": [
        {
          "internalType": "uint256",
          "name": "_topupTokenPriceFactorBIPS",
          "type": "uint256"
        }
      ],
      "name": "setTopupTokenPriceFactorBIPS",
      "outputs": [],
      "stateMutability": "nonpayable",
      "type": "function"
    },
    {
      "inputs": [
        {
          "internalType": "bytes4",
          "name": "_interfaceId",
          "type": "bytes4"
        }
      ],
      "name": "supportsInterface",
      "outputs": [
        {
          "internalType": "bool",
          "name": "",
          "type": "bool"
        }
      ],
      "stateMutability": "pure",
      "type": "function"
    },
    {
      "inputs": [],
      "name": "token",
      "outputs": [
        {
          "internalType": "contract IICollateralPoolToken",
          "name": "",
          "type": "address"
        }
      ],
      "stateMutability": "view",
      "type": "function"
    },
    {
      "inputs": [],
      "name": "topupCollateralRatioBIPS",
      "outputs": [
        {
          "internalType": "uint32",
          "name": "",
          "type": "uint32"
        }
      ],
      "stateMutability": "view",
      "type": "function"
    },
    {
      "inputs": [],
      "name": "topupTokenPriceFactorBIPS",
      "outputs": [
        {
          "internalType": "uint16",
          "name": "",
          "type": "uint16"
        }
      ],
      "stateMutability": "view",
      "type": "function"
    },
    {
      "inputs": [],
      "name": "totalCollateral",
      "outputs": [
        {
          "internalType": "uint256",
          "name": "",
          "type": "uint256"
        }
      ],
      "stateMutability": "view",
      "type": "function"
    },
    {
      "inputs": [],
      "name": "totalFAssetFeeDebt",
      "outputs": [
        {
          "internalType": "uint256",
          "name": "",
          "type": "uint256"
        }
      ],
      "stateMutability": "view",
      "type": "function"
    },
    {
      "inputs": [],
      "name": "totalFAssetFees",
      "outputs": [
        {
          "internalType": "uint256",
          "name": "",
          "type": "uint256"
        }
      ],
      "stateMutability": "view",
      "type": "function"
    },
    {
      "inputs": [],
      "name": "undelegateAll",
      "outputs": [],
      "stateMutability": "nonpayable",
      "type": "function"
    },
    {
      "inputs": [],
      "name": "undelegateGovernance",
      "outputs": [],
      "stateMutability": "nonpayable",
      "type": "function"
    },
    {
      "inputs": [
        {
          "internalType": "address",
          "name": "newImplementation",
          "type": "address"
        }
      ],
      "name": "upgradeTo",
      "outputs": [],
      "stateMutability": "nonpayable",
      "type": "function"
    },
    {
      "inputs": [
        {
          "internalType": "address",
          "name": "newImplementation",
          "type": "address"
        },
        {
          "internalType": "bytes",
          "name": "data",
          "type": "bytes"
        }
      ],
      "name": "upgradeToAndCall",
      "outputs": [],
      "stateMutability": "payable",
      "type": "function"
    },
    {
      "inputs": [
        {
          "internalType": "contract IWNat",
          "name": "_newWNat",
          "type": "address"
        }
      ],
      "name": "upgradeWNatContract",
      "outputs": [],
      "stateMutability": "nonpayable",
      "type": "function"
    },
    {
      "inputs": [
        {
          "internalType": "address",
          "name": "_account",
          "type": "address"
        }
      ],
      "name": "virtualFAssetOf",
      "outputs": [
        {
          "internalType": "uint256",
          "name": "",
          "type": "uint256"
        }
      ],
      "stateMutability": "view",
      "type": "function"
    },
    {
      "inputs": [],
      "name": "wNat",
      "outputs": [
        {
          "internalType": "contract IWNat",
          "name": "",
          "type": "address"
        }
      ],
      "stateMutability": "view",
      "type": "function"
    },
    {
      "inputs": [
        {
          "internalType": "uint256",
          "name": "_fAssets",
          "type": "uint256"
        }
      ],
      "name": "withdrawFees",
      "outputs": [],
      "stateMutability": "nonpayable",
      "type": "function"
    },
    {
      "inputs": [
        {
          "internalType": "uint256",
          "name": "_fAssets",
          "type": "uint256"
        },
        {
          "internalType": "address",
          "name": "_recipient",
          "type": "address"
        }
      ],
      "name": "withdrawFeesTo",
      "outputs": [],
      "stateMutability": "nonpayable",
      "type": "function"
    },
    {
      "stateMutability": "payable",
      "type": "receive"
    }
  ],
  "bytecode": "0x60a0604052306080523480156200001557600080fd5b50604051620058253803806200582583398101604081905262000038916200022c565b6200004886868686868662000054565b505050505050620002e6565b600454600160f81b900460ff1615620000b35760405162461bcd60e51b815260206004820152601360248201527f616c726561647920696e697469616c697a656400000000000000000000000000604482015260640160405180910390fd5b600480546001600160f81b0316600160f81b179055600080546001600160a01b038089166001600160a01b0319928316179092556001805488841690831681179091556002805493881693909216929092179055620001145760006200018e565b600160009054906101000a90046001600160a01b03166001600160a01b031663b5a488a66040518163ffffffff1660e01b8152600401602060405180830381865afa15801562000168573d6000803e3d6000fd5b505050506040513d601f19601f820116820180604052508101906200018e9190620002bf565b6004805461ffff909316600160e01b0261ffff60e01b1963ffffffff958616600160c01b021665ffffffffffff60c01b1995909616600160a01b026001600160c01b03199094166001600160a01b039390931692909217929092179290921692909217179055505050565b6001600160a01b03811681146200020f57600080fd5b50565b805163ffffffff811681146200022757600080fd5b919050565b60008060008060008060c087890312156200024657600080fd5b86516200025381620001f9565b60208801519096506200026681620001f9565b60408801519095506200027981620001f9565b9350620002896060880162000212565b9250620002996080880162000212565b915060a087015161ffff81168114620002b157600080fd5b809150509295509295509295565b600060208284031215620002d257600080fd5b8151620002df81620001f9565b9392505050565b6080516155076200031e60003960008181610ee001528181610f200152818161106f015281816110af015261112b01526155076000f3fe6080604052600436106103025760003560e01c806387a2a0dc11610190578063c1b0bbf8116100dc578063e4df73f011610095578063ee781db01161006f578063ee781db01461091c578063f4d000b21461093c578063fc0c546a1461095c578063fd86d3ea1461097c57600080fd5b8063e4df73f0146108c9578063e6916906146108dc578063eaf413fd146108fc57600080fd5b8063c1b0bbf814610817578063c79d245d14610837578063cb20941314610857578063cbabdf391461088d578063cbdf382c146108a3578063d1b8890e146108c157600080fd5b8063a854a6a211610149578063b302f39311610123578063b302f393146107be578063b337929b146107d3578063b9e26483146103d5578063bbd6fbf8146107f757600080fd5b8063a854a6a21461076b578063ac3736c11461078b578063adf58c151461079e57600080fd5b806387a2a0dc146106c057806388985cd6146106d5578063923f8932146106f557806394217ad11461070b5780639a4247e61461072b5780639edbf0071461074b57600080fd5b80634ac8eb5f1161024f578063787b9ca81161020857806380f13ee9116101e257806380f13ee91461064d578063815ea9d614610660578063868c3ba71461068057806386ac57a2146106a057600080fd5b8063787b9ca8146105ed5780637a68a5081461060d5780637c7db1a51461062d57600080fd5b80634ac8eb5f146105425780634f1ef2861461055857806352d1902d1461056b57806359c3d549146105805780635c60da1b146105a05780635e318e07146105cd57600080fd5b80631b92d84a116102bc5780633659cfe6116102965780633659cfe6146104945780633cfc747d146104b4578063406c7007146104ed5780634a4ac2ef1461050d57600080fd5b80631b92d84a1461041f5780632f35eac21461043f57806333ce01fd1461047457600080fd5b8062f55d9d1461036057806301ffc9a714610380578063026e402b146103b55780630ac07344146103d55780630dc1e5e1146103d557806315e2bfba146103ff57600080fd5b3661035b57600454600160f01b900460ff166103595760405162461bcd60e51b81526020600482015260116024820152706f6e6c7920696e7465726e616c2075736560781b60448201526064015b60405180910390fd5b005b600080fd5b34801561036c57600080fd5b5061035961037b3660046149c5565b61099c565b34801561038c57600080fd5b506103a061039b3660046149e2565b610c37565b60405190151581526020015b60405180910390f35b3480156103c157600080fd5b506103596103d0366004614a0c565b610c89565b3480156103e157600080fd5b506103f1670de0b6b3a764000081565b6040519081526020016103ac565b34801561040b57600080fd5b506103f161041a3660046149c5565b610d1b565b34801561042b57600080fd5b506103f161043a366004614a38565b610db1565b34801561044b57600080fd5b5061045f61045a366004614a65565b610e0f565b604080519283526020830191909152016103ac565b34801561048057600080fd5b5061035961048f3660046149c5565b610e38565b3480156104a057600080fd5b506103596104af3660046149c5565b610ed6565b3480156104c057600080fd5b506004546104d890600160a01b900463ffffffff1681565b60405163ffffffff90911681526020016103ac565b3480156104f957600080fd5b506103f1610508366004614a0c565b610f9b565b34801561051957600080fd5b5060045461052f90600160e01b900461ffff1681565b60405161ffff90911681526020016103ac565b34801561054e57600080fd5b506103f160085481565b610359610566366004614b1d565b611065565b34801561057757600080fd5b506103f161111e565b34801561058c57600080fd5b506103f161059b366004614b94565b6111d1565b3480156105ac57600080fd5b506105b561129a565b6040516001600160a01b0390911681526020016103ac565b3480156105d957600080fd5b506103596105e8366004614a38565b6112a9565b3480156105f957600080fd5b50610359610608366004614a38565b6112c3565b34801561061957600080fd5b506103596106283660046149c5565b611367565b34801561063957600080fd5b506002546105b5906001600160a01b031681565b61035961065b366004614c55565b611457565b34801561066c57600080fd5b506000546105b5906001600160a01b031681565b34801561068c57600080fd5b5061035961069b366004614cd6565b611474565b3480156106ac57600080fd5b506103596106bb3660046149c5565b61148e565b3480156106cc57600080fd5b506103596114ee565b3480156106e157600080fd5b506103596106f0366004614a38565b6115d2565b34801561070157600080fd5b506103f160065481565b34801561071757600080fd5b506001546105b5906001600160a01b031681565b34801561073757600080fd5b50610359610746366004614a38565b6116b9565b34801561075757600080fd5b506004546105b5906001600160a01b031681565b34801561077757600080fd5b50610359610786366004614a38565b61178f565b61045f610799366004614d06565b6117d3565b3480156107aa57600080fd5b506103596107b9366004614d2b565b611cf5565b3480156107ca57600080fd5b50610359611efc565b3480156107df57600080fd5b506004546104d890600160c01b900463ffffffff1681565b34801561080357600080fd5b50610359610812366004614a0c565b611f64565b34801561082357600080fd5b506103f16108323660046149c5565b611fc4565b34801561084357600080fd5b506103f16108523660046149c5565b611fdb565b34801561086357600080fd5b506103f16108723660046149c5565b6001600160a01b031660009081526005602052604090205490565b34801561089957600080fd5b506103f160075481565b3480156108af57600080fd5b506003546001600160a01b03166105b5565b610359611ff2565b6103596108d7366004614d60565b612026565b3480156108e857600080fd5b506103596108f7366004614de0565b612043565b34801561090857600080fd5b5061045f610917366004614e65565b6121d4565b34801561092857600080fd5b50610359610937366004614a38565b6121fe565b34801561094857600080fd5b506103596109573660046149c5565b612444565b34801561096857600080fd5b506003546105b5906001600160a01b031681565b34801561098857600080fd5b506103f16109973660046149c5565b612664565b6001546001600160a01b031633146109c65760405162461bcd60e51b815260040161035090614ea3565b6109ce61267b565b600360009054906101000a90046001600160a01b03166001600160a01b03166318160ddd6040518163ffffffff1660e01b8152600401602060405180830381865afa158015610a21573d6000803e3d6000fd5b505050506040513d601f19601f82011682018060405250810190610a459190614ecf565b15610aa35760405162461bcd60e51b815260206004820152602860248201527f63616e6e6f742064657374726f79206120706f6f6c20776974682069737375656044820152676420746f6b656e7360c01b6064820152608401610350565b60035460405162f55d9d60e01b81526001600160a01b0383811660048301529091169062f55d9d90602401600060405180830381600087803b158015610ae857600080fd5b505af1158015610afc573d6000803e3d6000fd5b50505050610b0a81476126f4565b600480546040516370a0823160e01b815230928101929092526000916001600160a01b03909116906370a0823190602401602060405180830381865afa158015610b58573d6000803e3d6000fd5b505050506040513d601f19601f82011682018060405250810190610b7c9190614ecf565b6002546040516370a0823160e01b81523060048201529192506000916001600160a01b03909116906370a0823190602401602060405180830381865afa158015610bca573d6000803e3d6000fd5b505050506040513d601f19601f82011682018060405250810190610bee9190614ecf565b90508115610c0d57600454610c0d906001600160a01b0316848461278f565b8015610c2a57600254610c2a906001600160a01b0316848361278f565b5050610c346127e1565b50565b60006001600160e01b031982166301ffc9a760e01b1480610c6857506001600160e01b0319821663982c94a560e01b145b80610c8357506001600160e01b031982166350eb34e160e11b145b92915050565b610c9233612807565b610cae5760405162461bcd60e51b815260040161035090614ee8565b6004805460405163026e402b60e01b81526001600160a01b03858116938201939093526024810184905291169063026e402b906044015b600060405180830381600087803b158015610cff57600080fd5b505af1158015610d13573d6000803e3d6000fd5b505050505050565b600080610d26612881565b6003546040516370a0823160e01b81526001600160a01b038681166004830152929350610daa92909116906370a0823190602401602060405180830381865afa158015610d77573d6000803e3d6000fd5b505050506040513d601f19601f82011682018060405250810190610d9b9190614ecf565b610da58386612a71565b612b77565b9392505050565b600080610dbc612881565b90506000610ddd8483602001518460600151612b919092919063ffffffff16565b90506000610deb8383612cb7565b90506000610df98433612d3a565b9050610e058282612b77565b9695505050505050565b600080610e1a61267b565b610e25843385612d83565b91509150610e316127e1565b9250929050565b6001546001600160a01b03163314610e625760405162461bcd60e51b815260040161035090614ea3565b6003546001600160a01b031615610eb45760405162461bcd60e51b81526020600482015260166024820152751c1bdbdb081d1bdad95b88185b1c9958591e481cd95d60521b6044820152606401610350565b600380546001600160a01b0319166001600160a01b0392909216919091179055565b6001600160a01b037f0000000000000000000000000000000000000000000000000000000000000000163003610f1e5760405162461bcd60e51b815260040161035090614f0c565b7f00000000000000000000000000000000000000000000000000000000000000006001600160a01b0316610f506131bb565b6001600160a01b031614610f765760405162461bcd60e51b815260040161035090614f58565b610f7f816131d7565b60408051600080825260208201909252610c3491839190613201565b6000610fa633612807565b610fc25760405162461bcd60e51b815260040161035090614ee8565b60405163596090c960e11b81523060048201819052602482015260448101839052600160648201526000906001600160a01b0385169063b2c12192906084016020604051808303816000875af1158015611020573d6000803e3d6000fd5b505050506040513d601f19601f820116820180604052508101906110449190614ecf565b905080600860008282546110589190614fba565b9091555090949350505050565b6001600160a01b037f00000000000000000000000000000000000000000000000000000000000000001630036110ad5760405162461bcd60e51b815260040161035090614f0c565b7f00000000000000000000000000000000000000000000000000000000000000006001600160a01b03166110df6131bb565b6001600160a01b0316146111055760405162461bcd60e51b815260040161035090614f58565b61110e826131d7565b61111a82826001613201565b5050565b6000306001600160a01b037f000000000000000000000000000000000000000000000000000000000000000016146111be5760405162461bcd60e51b815260206004820152603860248201527f555550535570677261646561626c653a206d757374206e6f742062652063616c60448201527f6c6564207468726f7567682064656c656761746563616c6c00000000000000006064820152608401610350565b5060008051602061546b83398151915290565b60006111dc33612807565b6111f85760405162461bcd60e51b815260040161035090614ee8565b604051638e33aba560e01b81526000906001600160a01b03871690638e33aba59061123290309081908a906001908b908b90600401615060565b6020604051808303816000875af1158015611251573d6000803e3d6000fd5b505050506040513d601f19601f820116820180604052508101906112759190614ecf565b905080600860008282546112899190614fba565b90915550909150505b949350505050565b60006112a46131bb565b905090565b6112b161267b565b6112bb813361336c565b610c346127e1565b6001546001600160a01b031633146112ed5760405162461bcd60e51b815260040161035090614ea3565b600454600160c01b900463ffffffff16811161133b5760405162461bcd60e51b815260206004820152600d60248201526c76616c756520746f6f206c6f7760981b6044820152606401610350565b61134481613490565b600460146101000a81548163ffffffff021916908363ffffffff16021790555050565b61137033612807565b61138c5760405162461bcd60e51b815260040161035090614ee8565b6004805460408051638c2b8ae160e01b815290516001600160a01b0390921692638c2b8ae19282820192602092908290030181865afa1580156113d3573d6000803e3d6000fd5b505050506040513d601f19601f820116820180604052508101906113f7919061517a565b6040516317066a5760e21b81526001600160a01b0383811660048301529190911690635c19a95c90602401600060405180830381600087803b15801561143c57600080fd5b505af1158015611450573d6000803e3d6000fd5b5050505050565b61145f61267b565b61146c85858585856134f9565b6114506127e1565b61147c61267b565b611486828261336c565b61111a6127e1565b61149733612807565b6114b35760405162461bcd60e51b815260040161035090614ee8565b806001600160a01b031663f2a1f7676040518163ffffffff1660e01b8152600401600060405180830381600087803b15801561143c57600080fd5b6114f733612807565b6115135760405162461bcd60e51b815260040161035090614ee8565b6004805460408051638c2b8ae160e01b815290516001600160a01b0390921692638c2b8ae19282820192602092908290030181865afa15801561155a573d6000803e3d6000fd5b505050506040513d601f19601f8201168201806040525081019061157e919061517a565b6001600160a01b03166392ab89bb6040518163ffffffff1660e01b8152600401600060405180830381600087803b1580156115b857600080fd5b505af11580156115cc573d6000803e3d6000fd5b50505050565b6001546001600160a01b031633146115fc5760405162461bcd60e51b815260040161035090614ea3565b600454600160a01b900463ffffffff16811061164b5760405162461bcd60e51b815260206004820152600e60248201526d0ecc2d8eaca40e8dede40d0d2ced60931b6044820152606401610350565b6000811161168d5760405162461bcd60e51b815260206004820152600f60248201526e6d757374206265206e6f6e7a65726f60881b6044820152606401610350565b61169681613490565b600460186101000a81548163ffffffff021916908363ffffffff16021790555050565b6001546001600160a01b031633146116e35760405162461bcd60e51b815260040161035090614ea3565b61271081106117255760405162461bcd60e51b815260206004820152600e60248201526d0ecc2d8eaca40e8dede40d0d2ced60931b6044820152606401610350565b600081116117675760405162461bcd60e51b815260206004820152600f60248201526e6d757374206265206e6f6e7a65726f60881b6044820152606401610350565b61177081613da7565b6004601c6101000a81548161ffff021916908361ffff16021790555050565b6001546001600160a01b031633146117b95760405162461bcd60e51b815260040161035090614ea3565b80600760008282546117cb9190614fba565b909155505050565b6000806117de61267b565b60006117e8612881565b90506103e881606001516117fc9190615197565b8160200151111561184f5760405162461bcd60e51b815260206004820152601a60248201527f706f6f6c206e61742062616c616e636520746f6f20736d616c6c0000000000006044820152606401610350565b670de0b6b3a76400003410156118a75760405162461bcd60e51b815260206004820152601d60248201527f616d6f756e74206f66206e61742073656e7420697320746f6f206c6f770000006044820152606401610350565b8060200151600003611a085780606001513410156119535760405162461bcd60e51b815260206004820152606060248201527f696620706f6f6c20686173206e6f20746f6b656e732c2062757420686f6c647360448201527f20636f6c6c61746572616c2c20796f75206e65656420746f2073656e6420617460648201527f206c65617374207468617420616d6f756e74206f6620636f6c6c61746572616c608482015260a401610350565b60c081015160e0820151608083015161196d929091612b91565b341015611a085760405162461bcd60e51b815260206004820152605f60248201527f496620706f6f6c20686173206e6f20746f6b656e732c2062757420686f6c647360448201527f20662d61737365742c20796f75206e65656420746f2073656e64206174206c6560648201527f61737420662d617373657420776f727468206f6620636f6c6c61746572616c00608482015260a401610350565b6000611a148234613e0a565b9050600080836020015111611a2a576000611a3f565b602083015160a0840151611a3f918490612b91565b9050600086611a5757611a528883613f5d565b611a59565b815b90508015611b81576002546040516352adac0760e11b81526000916001600160a01b03169063a55b580e90611a96903390309087906004016151ae565b6040805180830381865afa158015611ab2573d6000803e3d6000fd5b505050506040513d601f19601f82011682018060405250810190611ad691906151d2565b9150611ae490508183614fba565b600254604051636eb1769f60e11b81523360048201523060248201526001600160a01b039091169063dd62ed3e90604401602060405180830381865afa158015611b32573d6000803e3d6000fd5b505050506040513d601f19601f82011682018060405250810190611b569190614ecf565b1015611b745760405162461bcd60e51b8152600401610350906151f6565b611b7f333084613f73565b505b611b9433611b8f838561522d565b61408f565b611b9c6140d9565b6001546000546004805460405163053fe26160e31b81526001600160a01b0393841692810192909252821660248201529116906329ff130890604401600060405180830381600087803b158015611bf257600080fd5b505af1158015611c06573d6000803e3d6000fd5b50506003546040516340c10f1960e01b815233600482015260248101879052600093506001600160a01b0390911691506340c10f19906044016020604051808303816000875af1158015611c5e573d6000803e3d6000fd5b505050506040513d601f19601f82011682018060405250810190611c829190614ecf565b33600081815260056020908152604091829020548251348152918201899052818301879052606082015260808101849052905192935090917f8837aea61d24df2daef4ee681be933e5ea5c7ebe3cde964adef015dad51fe7859181900360a00190a2929550919350505050610e316127e1565b6001546001600160a01b03163314611d1f5760405162461bcd60e51b815260040161035090614ea3565b611d2761267b565b6000611d31612881565b9050611d3d848461413b565b600354600080546040516370a0823160e01b81526001600160a01b039182166004820152919216906370a0823190602401602060405180830381865afa158015611d8b573d6000803e3d6000fd5b505050506040513d601f19601f82011682018060405250810190611daf9190614ecf565b9050600080836060015111611dc45781611dd9565b60608301516020840151611dd9918690612b91565b90506000611de78284613f5d565b90508015611eeb5760008054611e0a9086906001600160a01b031684600261416f565b50600054909150611e24906001600160a01b0316826142f7565b6003546000546040516376fd4fdf60e01b81526001600160a01b03928316926376fd4fdf92611e5d929116908690600190600401615240565b600060405180830381600087803b158015611e7757600080fd5b505af1158015611e8b573d6000803e3d6000fd5b5050600080546001600160a01b031680825260056020908152604080842054815189815292830185905290820184905260608201939093526080810192909252925060008051602061548b833981519152915060a00160405180910390a2505b50505050611ef76127e1565b505050565b611f0533612807565b611f215760405162461bcd60e51b815260040161035090614ee8565b600480546040805163b302f39360e01b815290516001600160a01b039092169263b302f39392828201926000929082900301818387803b1580156115b857600080fd5b611f6d33612807565b611f895760405162461bcd60e51b815260040161035090614ee8565b6004805460405163177adf7f60e31b81526001600160a01b03858116938201939093526024810184905291169063bbd6fbf890604401610ce5565b600080611fcf612881565b9050610daa8184612d3a565b600080611fe6612881565b9050610daa8184612a71565b6001546001600160a01b0316331461201c5760405162461bcd60e51b815260040161035090614ea3565b6120246140d9565b565b61202e61267b565b61203b84843385856134f9565b6115cc6127e1565b600454600160f81b900460ff16156120935760405162461bcd60e51b8152602060048201526013602482015272185b1c9958591e481a5b9a5d1a585b1a5e9959606a1b6044820152606401610350565b600480546001600160f81b0316600160f81b179055600080546001600160a01b038089166001600160a01b03199283161790925560018054888416908316811790915560028054938816939092169290921790556120f2576000612169565b600160009054906101000a90046001600160a01b03166001600160a01b031663b5a488a66040518163ffffffff1660e01b8152600401602060405180830381865afa158015612145573d6000803e3d6000fd5b505050506040513d601f19601f82011682018060405250810190612169919061517a565b6004805461ffff909316600160e01b0261ffff60e01b1963ffffffff958616600160c01b021665ffffffffffff60c01b1995909616600160a01b026001600160c01b03199094166001600160a01b039390931692909217929092179290921692909217179055505050565b6000806121df61267b565b6121ea858585612d83565b915091506121f66127e1565b935093915050565b61220661267b565b806000036122565760405162461bcd60e51b815260206004820152601960248201527f7a65726f20662d61737365742064656274207061796d656e74000000000000006044820152606401610350565b336000908152600560205260409020548111156122b55760405162461bcd60e51b815260206004820152601e60248201527f6465627420662d61737365742062616c616e636520746f6f20736d616c6c00006044820152606401610350565b6002546040516352adac0760e11b81526000916001600160a01b03169063a55b580e906122ea903390309087906004016151ae565b6040805180830381865afa158015612306573d6000803e3d6000fd5b505050506040513d601f19601f8201168201806040525081019061232a91906151d2565b915061233890508183614fba565b600254604051636eb1769f60e11b81523360048201523060248201526001600160a01b039091169063dd62ed3e90604401602060405180830381865afa158015612386573d6000803e3d6000fd5b505050506040513d601f19601f820116820180604052508101906123aa9190614ecf565b10156123c85760405162461bcd60e51b8152600401610350906151f6565b6123d233836142f7565b6123dd333084613f73565b336000818152600560209081526040808320548151848152928301849052908201869052606082015260808101919091527f8837aea61d24df2daef4ee681be933e5ea5c7ebe3cde964adef015dad51fe7859060a00160405180910390a250610c346127e1565b6001546001600160a01b0316331461246e5760405162461bcd60e51b815260040161035090614ea3565b61247661267b565b6004546001600160a01b038281169116146112bb57600480546040516370a0823160e01b815230928101929092526000916001600160a01b03909116906370a0823190602401602060405180830381865afa1580156124d9573d6000803e3d6000fd5b505050506040513d601f19601f820116820180604052508101906124fd9190614ecf565b6004805460ff60f01b198116600160f01b178255604051632e1a7d4d60e01b81529293506001600160a01b031691632e1a7d4d916125419185910190815260200190565b600060405180830381600087803b15801561255b57600080fd5b505af115801561256f573d6000803e3d6000fd5b50506004805460ff60f01b1916815560408051630d0e30db60e41b815290516001600160a01b038716945063d0e30db09350859282810192600092919082900301818588803b1580156125c157600080fd5b505af11580156125d5573d6000803e3d6000fd5b5050600480546001600160a01b0319166001600160a01b03878116918217835560015460005460405163053fe26160e31b81529083169481019490945260248401929092521693506329ff130892506044019050600060405180830381600087803b15801561264357600080fd5b505af1158015612657573d6000803e3d6000fd5b5050505050610c346127e1565b60008061266f612881565b9050610daa8184614338565b7f0cd2207518cd3e5213e2c6dbe63d55b60aa893c194a427b7d7f1600408fd5bde8054600119016126ee5760405162461bcd60e51b815260206004820152601f60248201527f5265656e7472616e637947756172643a207265656e7472616e742063616c6c006044820152606401610350565b60029055565b801561111a576000826001600160a01b03168260405160006040518083038185875af1925050503d8060008114612747576040519150601f19603f3d011682016040523d82523d6000602084013e61274c565b606091505b5050905080611ef75760405162461bcd60e51b815260206004820152600f60248201526e1d1c985b9cd9995c8819985a5b1959608a1b6044820152606401610350565b604080516001600160a01b038416602482015260448082018490528251808303909101815260649091019091526020810180516001600160e01b031663a9059cbb60e01b179052611ef79084906143d3565b60017f0cd2207518cd3e5213e2c6dbe63d55b60aa893c194a427b7d7f1600408fd5bde55565b6001546000805460405163d6b93a9f60e01b81526001600160a01b03918216600482015284821660248201529192169063d6b93a9f90604401602060405180830381865afa15801561285d573d6000803e3d6000fd5b505050506040513d601f19601f82011682018060405250810190610c839190615263565b6128c960405180610100016040528060008152602001600081526020016000815260200160008152602001600081526020016000815260200160008152602001600081525090565b60075460015460408051628c4abb60e21b8152815160009384936001600160a01b03909116926302312aec92600480830193928290030181865afa158015612915573d6000803e3d6000fd5b505050506040513d601f19601f8201168201806040525081019061293991906151d2565b915091506040518061010001604052806129516144a8565b8152600354604080516318160ddd60e01b815290516020938401936001600160a01b03909316926318160ddd92600480820193918290030181865afa15801561299e573d6000803e3d6000fd5b505050506040513d601f19601f820116820180604052508101906129c29190614ecf565b815260015460005460405163769bb15560e11b81526001600160a01b03918216600482015260209093019291169063ed3762aa90602401602060405180830381865afa158015612a16573d6000803e3d6000fd5b505050506040513d601f19601f82011682018060405250810190612a3a9190614ecf565b8152602001600854815260200184815260200160065485612a5b9190614fba565b8152602081019390935260409092015292915050565b6003546040516370a0823160e01b81526001600160a01b03838116600483015260009283929116906370a0823190602401602060405180830381865afa158015612abf573d6000803e3d6000fd5b505050506040513d601f19601f82011682018060405250810190612ae39190614ecf565b905080600003612af7576000915050610c83565b6001600160a01b03831660009081526005602052604081205490819003612b2057509050610c83565b6000612b3f8387602001518860a00151612b919092919063ffffffff16565b90506000612b4d8284612b77565b9050612b6c818860a001518960200151612b919092919063ffffffff16565b979650505050505050565b6000818311612b87576000610daa565b610daa828461522d565b6000808211612bd55760405162461bcd60e51b815260206004820152601060248201526f4469766973696f6e206279207a65726f60801b6044820152606401610350565b83600003612be557506000610daa565b83830283858281612bf857612bf8615280565b0403612c1657828181612c0d57612c0d615280565b04915050610daa565b506000612c238386615296565b90506000612c3184876152aa565b90506000612c3f8587615296565b90506000612c4d86886152aa565b905085612c5a8285615197565b612c649190615296565b612c6e8385615197565b612c788387615197565b88612c838689615197565b612c8d9190615197565b612c979190614fba565b612ca19190614fba565b612cab9190614fba565b98975050505050505050565b6000612cc98360008560000151614541565b15612d25576040830151835160c0850151612d1e9291612ce891615197565b612710858760600151612cfb919061522d565b8760e00151612d0a9190615197565b612d149190615197565b610da59190615296565b9050610c83565b60608301516040840151612d1e918490612b91565b600080612d478484614338565b6001600160a01b038416600090815260056020526040902054909150612d7a612d708383612b77565b8660800151613f5d565b95945050505050565b60008060008511612dcc5760405162461bcd60e51b8152602060048201526013602482015272746f6b656e207368617265206973207a65726f60681b6044820152606401610350565b6003546040516370a0823160e01b81523360048201526001600160a01b03909116906370a0823190602401602060405180830381865afa158015612e14573d6000803e3d6000fd5b505050506040513d601f19601f82011682018060405250810190612e389190614ecf565b851115612e7f5760405162461bcd60e51b8152602060048201526015602482015274746f6b656e2062616c616e636520746f6f206c6f7760581b6044820152606401610350565b6000612e89612881565b90508581602001511480612eb45750670de0b6b3a7640000868260200151612eb1919061522d565b10155b612ed05760405162461bcd60e51b8152600401610350906152be565b6000612eef8260600151836020015189612b919092919063ffffffff16565b905060008111612f115760405162461bcd60e51b815260040161035090615312565b8082606001511480612f3a5750670de0b6b3a7640000818360600151612f37919061522d565b10155b612f565760405162461bcd60e51b815260040161035090615354565b600260009054906101000a90046001600160a01b03166001600160a01b031663194307bf6040518163ffffffff1660e01b8152600401602060405180830381865afa158015612fa9573d6000803e3d6000fd5b505050506040513d601f19601f82011682018060405250810190612fcd9190615263565b15613050576003546040516376fd4fdf60e01b81526001600160a01b03909116906376fd4fdf906130079033908b90600190600401615240565b600060405180830381600087803b15801561302157600080fd5b505af1158015613035573d6000803e3d6000fd5b50505050613043868261413b565b9250600091506121f69050565b61305f82828460000151614541565b6130b75760405162461bcd60e51b815260206004820152602360248201527f636f6c6c61746572616c20726174696f2066616c6c732062656c6f77206578696044820152623a21a960e91b6064820152608401610350565b6000806130c684338b8a61416f565b909250905080156130dc576130dc308983613f73565b81156130ec576130ec33836142f7565b6003546040516376fd4fdf60e01b81526001600160a01b03909116906376fd4fdf906131219033908d90600090600401615240565b600060405180830381600087803b15801561313b57600080fd5b505af115801561314f573d6000803e3d6000fd5b5050505061315d8884614584565b3360008181526005602090815260408083205481518e81529283018890529082018590526060820192909252608081019190915260008051602061548b8339815191529060a00160405180910390a291989197509095505050505050565b60008051602061546b833981519152546001600160a01b031690565b6001546001600160a01b03163314610c345760405162461bcd60e51b815260040161035090614ea3565b7f4910fdfa16fed3260ed0e7147f7cc6da11a60208b5b9406d12a635614ffd91435460ff161561323457611ef783614625565b826001600160a01b03166352d1902d6040518163ffffffff1660e01b8152600401602060405180830381865afa92505050801561328e575060408051601f3d908101601f1916820190925261328b91810190614ecf565b60015b6132f15760405162461bcd60e51b815260206004820152602e60248201527f45524331393637557067726164653a206e657720696d706c656d656e7461746960448201526d6f6e206973206e6f74205555505360901b6064820152608401610350565b60008051602061546b83398151915281146133605760405162461bcd60e51b815260206004820152602960248201527f45524331393637557067726164653a20756e737570706f727465642070726f786044820152681a58589b195555525160ba1b6064820152608401610350565b50611ef78383836146c1565b600082116133bc5760405162461bcd60e51b815260206004820181905260248201527f747279696e6720746f207769746864726177207a65726f20662d6173736574736044820152606401610350565b60006133c6612881565b905060006133d48233612d3a565b9050808411156134265760405162461bcd60e51b815260206004820152601e60248201527f6672656520662d61737365742062616c616e636520746f6f20736d616c6c00006044820152606401610350565b613430338561408f565b61343b308486613f73565b3360008181526005602090815260408083205481518481529283018490529082018890526060820192909252608081019190915260008051602061548b8339815191529060a00160405180910390a250505050565b600063ffffffff8211156134f55760405162461bcd60e51b815260206004820152602660248201527f53616665436173743a2076616c756520646f65736e27742066697420696e203360448201526532206269747360d01b6064820152608401610350565b5090565b6000851161353f5760405162461bcd60e51b8152602060048201526013602482015272746f6b656e207368617265206973207a65726f60681b6044820152606401610350565b6003546040516370a0823160e01b81523360048201526001600160a01b03909116906370a0823190602401602060405180830381865afa158015613587573d6000803e3d6000fd5b505050506040513d601f19601f820116820180604052508101906135ab9190614ecf565b8511156135f25760405162461bcd60e51b8152602060048201526015602482015274746f6b656e2062616c616e636520746f6f206c6f7760581b6044820152606401610350565b60006135fc612881565b905085816020015114806136275750670de0b6b3a7640000868260200151613624919061522d565b10155b6136435760405162461bcd60e51b8152600401610350906152be565b60006136628783602001518460600151612b919092919063ffffffff16565b9050600081116136845760405162461bcd60e51b815260040161035090615312565b80826060015114806136ad5750670de0b6b3a76400008183606001516136aa919061522d565b10155b6136c95760405162461bcd60e51b815260040161035090615354565b60015460008054604051631e8bee0160e01b81526001600160a01b03918216600482015291921690631e8bee0190602401602060405180830381865afa158015613717573d6000803e3d6000fd5b505050506040513d601f19601f8201168201806040525081019061373b9190614ecf565b905060006137498484612cb7565b90508082101561387f57508061375f84826146e6565b9250600083116137e85760405162461bcd60e51b815260206004820152604860248201527f616d6f756e74206f662073656e7420746f6b656e7320697320746f6f20736d6160448201527f6c6c206166746572206167656e74206d617820726564656d7074696f6e20636f606482015267393932b1ba34b7b760c11b608482015260a401610350565b82846060015114806138115750670de0b6b3a764000083856060015161380e919061522d565b10155b61382d5760405162461bcd60e51b815260040161035090615354565b60608401516020850151613842918590612b91565b6040805182815260208101849052919a507f7543f09ac709677c25f5aa8284e92f885eae7c7496789dd47cf87e28e5a1cf1c910160405180910390a15b600061388b8533612d3a565b905060008061389d87338e600061416f565b9150915083831015613a925760006138b5848661522d565b6002546040516352adac0760e11b81529192506000916001600160a01b039091169063a55b580e906138ef903390309087906004016151ae565b6040805180830381865afa15801561390b573d6000803e3d6000fd5b505050506040513d601f19601f8201168201806040525081019061392f91906151d2565b915061393d90508183614fba565b600254604051636eb1769f60e11b81523360048201523060248201526001600160a01b039091169063dd62ed3e90604401602060405180830381865afa15801561398b573d6000803e3d6000fd5b505050506040513d601f19601f820116820180604052508101906139af9190614ecf565b10156139cd5760405162461bcd60e51b8152600401610350906151f6565b600254604051634b9a2c3760e11b81526000916001600160a01b031690639734586e90613a02903390309088906004016151ae565b6020604051808303816000875af1158015613a21573d6000803e3d6000fd5b505050506040513d601f19601f82011682018060405250810190613a459190615263565b905080613a8e5760405162461bcd60e51b8152602060048201526017602482015276198b585cdcd95d081d1c985b9cd9995c8819985a5b1959604a1b6044820152606401610350565b5050505b8315613c1d57600160009054906101000a90046001600160a01b03166001600160a01b0316634942f65f6040518163ffffffff1660e01b8152600401602060405180830381865afa158015613aeb573d6000803e3d6000fd5b505050506040513d601f19601f82011682018060405250810190613b0f9190614ecf565b841080613b1957508a5b15613b8d57600154600054604051630ed000b360e41b81526001600160a01b039283169263ed000b3092613b56929116908e9089906004016151ae565b600060405180830381600087803b158015613b7057600080fd5b505af1158015613b84573d6000803e3d6000fd5b50505050613c1d565b600160009054906101000a90046001600160a01b03166001600160a01b031663997be0f43460008054906101000a90046001600160a01b03168d888e8e6040518763ffffffff1660e01b8152600401613bea9594939291906153f6565b6000604051808303818588803b158015613c0357600080fd5b505af1158015613c17573d6000803e3d6000fd5b50505050505b6000613c298585613f5d565b90508015613c7b578060076000828254613c43919061522d565b90915550613c539050338261408f565b6000613c5f8284613f5d565b9050613c6b818461522d565b9250613c778185614fba565b9350505b8115613c8c57613c8c308c84613f73565b8215613c9c57613c9c33846142f7565b600360009054906101000a90046001600160a01b03166001600160a01b03166376fd4fdf338f60006040518463ffffffff1660e01b8152600401613ce293929190615240565b600060405180830381600087803b158015613cfc57600080fd5b505af1158015613d10573d6000803e3d6000fd5b50505050613d1e8b88614584565b336001600160a01b031660008051602061548b8339815191528e89848960056000336001600160a01b03166001600160a01b0316815260200190815260200160002054604051613d90959493929190948552602085019390935260408401919091526060830152608082015260a00190565b60405180910390a250505050505050505050505050565b600061ffff8211156134f55760405162461bcd60e51b815260206004820152602660248201527f53616665436173743a2076616c756520646f65736e27742066697420696e203160448201526536206269747360d01b6064820152608401610350565b600080836060015160001480613e2257506020840151155b600454604086015160c0870151929350600092613e5692600160c01b900463ffffffff1691613e5091615197565b90614746565b905060008560e001518660600151613e6e9190615197565b8211613e7b576000613e99565b606086015160e0870151613e8f9084615296565b613e99919061522d565b90506000613ea78683613f5d565b90506000613eb58783612b77565b600454909150600090613ed890849061271090600160e01b900461ffff16612b91565b9050600086613efb5760608a015160208b0151613ef6918490612b91565b613efd565b815b90506000878015613f0c575081155b613f4057613f3b84868d60600151613f249190614fba565b848e60200151613f349190614fba565b9190612b91565b613f42565b835b9050613f4e8183614fba565b9b9a5050505050505050505050565b6000818310613f6c5781610daa565b5090919050565b8015611ef757306001600160a01b03841603613fb7578060076000828254613f9b919061522d565b9091555050600254611ef7906001600160a01b0316838361278f565b8060076000828254613fc99190614fba565b9091555050600254604051634b9a2c3760e11b81526000916001600160a01b031690639734586e90614003908790879087906004016151ae565b6020604051808303816000875af1158015614022573d6000803e3d6000fd5b505050506040513d601f19601f820116820180604052508101906140469190615263565b9050806115cc5760405162461bcd60e51b8152602060048201526017602482015276198b585cdcd95d081d1c985b9cd9995c8819985a5b1959604a1b6044820152606401610350565b6001600160a01b038216600090815260056020526040812080548392906140b7908490614fba565b9250508190555080600660008282546140d09190614fba565b90915550505050565b34156120245734600860008282546140f19190614fba565b90915550506004805460408051630d0e30db60e41b815290516001600160a01b039092169263d0e30db0923492808301926000929182900301818588803b15801561143c57600080fd5b801561111a578060086000828254614153919061522d565b909155505060045461111a906001600160a01b0316838361278f565b600080600061417e8787614338565b6001600160a01b038781166000818152600560205260408082205460035491516370a0823160e01b81526004810194909452949550909216906370a0823190602401602060405180830381865afa1580156141dd573d6000803e3d6000fd5b505050506040513d601f19601f820116820180604052508101906142019190614ecf565b90508060000361421a57600080945094505050506142ee565b6000614227848984612b91565b9050600087600281111561423d5761423d614fcd565b0361426e57600061424e8585612b77565b905061425a8282613f5d565b9550614266868361522d565b9650506142cd565b600187600281111561428257614282614fcd565b036142a4576142918184613f5d565b955061429d868261522d565b94506142cd565b600084116142b35760006142be565b6142be838286612b91565b95506142ca8187612b77565b94505b6142d985600754613f5d565b94506142e786600654613f5d565b9550505050505b94509492505050565b6001600160a01b0382166000908152600560205260408120805483929061431f90849061522d565b9250508190555080600660008282546140d0919061522d565b6003546040516370a0823160e01b81526001600160a01b03838116600483015260009283929116906370a0823190602401602060405180830381865afa158015614386573d6000803e3d6000fd5b505050506040513d601f19601f820116820180604052508101906143aa9190614ecf565b9050806000036143be576000915050610c83565b602084015160a0850151611292918390612b91565b6000614428826040518060400160405280602081526020017f5361666545524332303a206c6f772d6c6576656c2063616c6c206661696c6564815250856001600160a01b03166147559092919063ffffffff16565b90508051600014806144495750808060200190518101906144499190615263565b611ef75760405162461bcd60e51b815260206004820152602a60248201527f5361666545524332303a204552433230206f7065726174696f6e20646964206e6044820152691bdd081cdd58d8d9595960b21b6064820152608401610350565b6001546000805460405163cd71593560e01b81526001600160a01b0391821660048201529192839291169063cd71593590602401602060405180830381865afa1580156144f9573d6000803e3d6000fd5b505050506040513d601f19601f8201168201806040525081019061451d9190614ecf565b60045490915061453b908290600160a01b900463ffffffff16614764565b91505090565b600061455b828560c001518660400151613e509190615197565b8460e00151848660600151614570919061522d565b61457a9190615197565b1015949350505050565b801561111a57806008600082825461459c919061522d565b909155505060048054600160f01b60ff60f01b198216178255604051632e1a7d4d60e01b81529182018390526001600160a01b031690632e1a7d4d90602401600060405180830381600087803b1580156145f557600080fd5b505af1158015614609573d6000803e3d6000fd5b50506004805460ff60f01b191690555061111a905082826126f4565b6001600160a01b0381163b6146925760405162461bcd60e51b815260206004820152602d60248201527f455243313936373a206e657720696d706c656d656e746174696f6e206973206e60448201526c1bdd08184818dbdb9d1c9858dd609a1b6064820152608401610350565b60008051602061546b83398151915280546001600160a01b0319166001600160a01b0392909216919091179055565b6146ca83614773565b6000825111806146d75750805b15611ef7576115cc83836147b3565b60006146f88360008560000151614541565b1561473157612d1e83606001518460e00151612d148660000151868860400151614722919061522d565b8860c00151613e509190615197565b60408301516060840151612d1e918490612b91565b6000610daa8383612710612b91565b606061129284846000856147d8565b6000818311613f6c5781610daa565b61477c81614625565b6040516001600160a01b038216907fbc7cd75a20ee27fd9adebab32041f755214dbc6bffa90cc0225b39da2e5c2d3b90600090a250565b6060610daa83836040518060600160405280602781526020016154ab602791396148a8565b6060824710156148395760405162461bcd60e51b815260206004820152602660248201527f416464726573733a20696e73756666696369656e742062616c616e636520666f6044820152651c8818d85b1b60d21b6064820152608401610350565b600080866001600160a01b03168587604051614855919061543b565b60006040518083038185875af1925050503d8060008114614892576040519150601f19603f3d011682016040523d82523d6000602084013e614897565b606091505b5091509150612b6c87838387614912565b6060600080856001600160a01b0316856040516148c5919061543b565b600060405180830381855af49150503d8060008114614900576040519150601f19603f3d011682016040523d82523d6000602084013e614905565b606091505b5091509150610e05868383875b6060831561498157825160000361497a576001600160a01b0385163b61497a5760405162461bcd60e51b815260206004820152601d60248201527f416464726573733a2063616c6c20746f206e6f6e2d636f6e74726163740000006044820152606401610350565b5081611292565b61129283838151156149965781518083602001fd5b8060405162461bcd60e51b81526004016103509190615457565b6001600160a01b0381168114610c3457600080fd5b6000602082840312156149d757600080fd5b8135610daa816149b0565b6000602082840312156149f457600080fd5b81356001600160e01b031981168114610daa57600080fd5b60008060408385031215614a1f57600080fd5b8235614a2a816149b0565b946020939093013593505050565b600060208284031215614a4a57600080fd5b5035919050565b803560038110614a6057600080fd5b919050565b60008060408385031215614a7857600080fd5b82359150614a8860208401614a51565b90509250929050565b634e487b7160e01b600052604160045260246000fd5b600067ffffffffffffffff80841115614ac257614ac2614a91565b604051601f8501601f19908116603f01168101908282118183101715614aea57614aea614a91565b81604052809350858152868686011115614b0357600080fd5b858560208301376000602087830101525050509392505050565b60008060408385031215614b3057600080fd5b8235614b3b816149b0565b9150602083013567ffffffffffffffff811115614b5757600080fd5b8301601f81018513614b6857600080fd5b614b7785823560208401614aa7565b9150509250929050565b803562ffffff81168114614a6057600080fd5b60008060008060608587031215614baa57600080fd5b8435614bb5816149b0565b9350614bc360208601614b81565b9250604085013567ffffffffffffffff80821115614be057600080fd5b818701915087601f830112614bf457600080fd5b813581811115614c0357600080fd5b8860208260051b8501011115614c1857600080fd5b95989497505060200194505050565b8015158114610c3457600080fd5b600082601f830112614c4657600080fd5b610daa83833560208501614aa7565b600080600080600060a08688031215614c6d57600080fd5b853594506020860135614c7f81614c27565b93506040860135614c8f816149b0565b9250606086013567ffffffffffffffff811115614cab57600080fd5b614cb788828901614c35565b9250506080860135614cc8816149b0565b809150509295509295909350565b60008060408385031215614ce957600080fd5b823591506020830135614cfb816149b0565b809150509250929050565b60008060408385031215614d1957600080fd5b823591506020830135614cfb81614c27565b600080600060608486031215614d4057600080fd5b8335614d4b816149b0565b95602085013595506040909401359392505050565b60008060008060808587031215614d7657600080fd5b843593506020850135614d8881614c27565b9250604085013567ffffffffffffffff811115614da457600080fd5b614db087828801614c35565b9250506060850135614dc1816149b0565b939692955090935050565b803563ffffffff81168114614a6057600080fd5b60008060008060008060c08789031215614df957600080fd5b8635614e04816149b0565b95506020870135614e14816149b0565b94506040870135614e24816149b0565b9350614e3260608801614dcc565b9250614e4060808801614dcc565b915060a087013561ffff81168114614e5757600080fd5b809150509295509295509295565b600080600060608486031215614e7a57600080fd5b833592506020840135614e8c816149b0565b9150614e9a60408501614a51565b90509250925092565b60208082526012908201527137b7363c9030b9b9b2ba1036b0b730b3b2b960711b604082015260600190565b600060208284031215614ee157600080fd5b5051919050565b6020808252600a90820152691bdb9b1e481859d95b9d60b21b604082015260600190565b6020808252602c908201527f46756e6374696f6e206d7573742062652063616c6c6564207468726f7567682060408201526b19195b1959d85d1958d85b1b60a21b606082015260800190565b6020808252602c908201527f46756e6374696f6e206d7573742062652063616c6c6564207468726f7567682060408201526b6163746976652070726f787960a01b606082015260800190565b634e487b7160e01b600052601160045260246000fd5b80820180821115610c8357610c83614fa4565b634e487b7160e01b600052602160045260246000fd5b62ffffff614ff082614b81565b16825260208101356bffffffffffffffffffffffff19811680821461501457600080fd5b60208401525060408101356effffffffffffffffffffffffffffff811680821461503d57600080fd5b60408401525060608101356005811061505557600080fd5b806060840152505050565b6001600160a01b038781168252861660208083019190915262ffffff86166040830152841515606083015260a06080830181905282810184905260009160c09081850190600587811b8701840189875b8a8110156151665789830360bf190186528135368d9003609e190181126150d657600080fd5b8c01803536829003601e190181126150ed57600080fd5b8101868101903567ffffffffffffffff81111561510957600080fd5b80871b80360383131561511b57600080fd5b8b8752868c018290526001600160fb1b0382111561513857600080fd5b80838c89013761514c8988018a8601614fe3565b9888019895909501890194505050908401906001016150b0565b50909e9d5050505050505050505050505050565b60006020828403121561518c57600080fd5b8151610daa816149b0565b8082028115828204841417610c8357610c83614fa4565b6001600160a01b039384168152919092166020820152604081019190915260600190565b600080604083850312156151e557600080fd5b505080516020909101519092909150565b6020808252601b908201527f662d617373657420616c6c6f77616e636520746f6f20736d616c6c0000000000604082015260600190565b81810381811115610c8357610c83614fa4565b6001600160a01b0393909316835260208301919091521515604082015260600190565b60006020828403121561527557600080fd5b8151610daa81614c27565b634e487b7160e01b600052601260045260246000fd5b6000826152a5576152a5615280565b500490565b6000826152b9576152b9615280565b500690565b60208082526034908201527f746f6b656e20737570706c79206c656674206166746572206578697420697320604082015273746f6f206c6f7720616e64206e6f6e2d7a65726f60601b606082015260800190565b60208082526022908201527f616d6f756e74206f662073656e7420746f6b656e7320697320746f6f20736d616040820152611b1b60f21b606082015260800190565b60208082526032908201527f636f6c6c61746572616c206c656674206166746572206578697420697320746f6040820152716f206c6f7720616e64206e6f6e2d7a65726f60701b606082015260800190565b60005b838110156153c15781810151838201526020016153a9565b50506000910152565b600081518084526153e28160208601602086016153a6565b601f01601f19169290920160200192915050565b600060018060a01b038088168352808716602084015285604084015260a0606084015261542660a08401866153ca565b91508084166080840152509695505050505050565b6000825161544d8184602087016153a6565b9190910192915050565b602081526000610daa60208301846153ca56fe360894a13ba1a3210667c828492db98dca3e2076cc3735a920a3ca505d382bbc3cbd229dedaa8b29b8f29100166a217701549be8e58e781f204124f23fd0154e416464726573733a206c6f772d6c6576656c2064656c65676174652063616c6c206661696c6564a2646970667358221220582eb2b230ed9d17571032a9030bb33b38150e148e0c883a548970ab68fe10bf64736f6c63430008170033",
  "linkReferences": {},
  "deployedLinkReferences": {}
}