{
  "_format": "hh-sol-artifact-1",
  "contractName": "TransferFeeFacet",
  "sourceName": "contracts/assetManager/facets/TransferFeeFacet.sol",
  "abi": [
    {
      "inputs": [],
      "stateMutability": "nonpayable",
      "type": "constructor"
    },
    {
      "anonymous": false,
      "inputs": [
        {
          "indexed": true,
          "internalType": "address",
          "name": "agentVault",
          "type": "address"
        },
        {
          "indexed": false,
          "internalType": "uint256",
          "name": "feeBIPS",
          "type": "uint256"
        },
        {
          "indexed": false,
          "internalType": "uint256",
          "name": "mintingVaultCollateralRatioBIPS",
          "type": "uint256"
        },
        {
          "indexed": false,
          "internalType": "uint256",
          "name": "mintingPoolCollateralRatioBIPS",
          "type": "uint256"
        },
        {
          "indexed": false,
          "internalType": "uint256",
          "name": "freeCollateralLots",
          "type": "uint256"
        }
      ],
      "name": "AgentAvailable",
      "type": "event"
    },
    {
      "anonymous": false,
      "inputs": [
        {
          "indexed": true,
          "internalType": "address",
          "name": "agentVault",
          "type": "address"
        },
        {
          "indexed": false,
          "internalType": "uint8",
          "name": "collateralClass",
          "type": "uint8"
        },
        {
          "indexed": false,
          "internalType": "address",
          "name": "token",
          "type": "address"
        }
      ],
      "name": "AgentCollateralTypeChanged",
      "type": "event"
    },
    {
      "anonymous": false,
      "inputs": [
        {
          "indexed": true,
          "internalType": "address",
          "name": "agentVault",
          "type": "address"
        },
        {
          "indexed": false,
          "internalType": "uint256",
          "name": "destroyAllowedAt",
          "type": "uint256"
        }
      ],
      "name": "AgentDestroyAnnounced",
      "type": "event"
    },
    {
      "anonymous": false,
      "inputs": [
        {
          "indexed": true,
          "internalType": "address",
          "name": "agentVault",
          "type": "address"
        }
      ],
      "name": "AgentDestroyed",
      "type": "event"
    },
    {
      "anonymous": false,
      "inputs": [
        {
          "indexed": true,
          "internalType": "address",
          "name": "agentVault",
          "type": "address"
        },
        {
          "indexed": false,
          "internalType": "uint256",
          "name": "timestamp",
          "type": "uint256"
        }
      ],
      "name": "AgentInCCB",
      "type": "event"
    },
    {
      "anonymous": false,
      "inputs": [
        {
          "indexed": true,
          "internalType": "address",
          "name": "agentVault",
          "type": "address"
        },
        {
          "indexed": false,
          "internalType": "string",
          "name": "name",
          "type": "string"
        },
        {
          "indexed": false,
          "internalType": "uint256",
          "name": "value",
          "type": "uint256"
        },
        {
          "indexed": false,
          "internalType": "uint256",
          "name": "validAt",
          "type": "uint256"
        }
      ],
      "name": "AgentSettingChangeAnnounced",
      "type": "event"
    },
    {
      "anonymous": false,
      "inputs": [
        {
          "indexed": true,
          "internalType": "address",
          "name": "agentVault",
          "type": "address"
        },
        {
          "indexed": false,
          "internalType": "string",
          "name": "name",
          "type": "string"
        },
        {
          "indexed": false,
          "internalType": "uint256",
          "name": "value",
          "type": "uint256"
        }
      ],
      "name": "AgentSettingChanged",
      "type": "event"
    },
    {
      "anonymous": false,
      "inputs": [
        {
          "indexed": true,
          "internalType": "address",
          "name": "owner",
          "type": "address"
        },
        {
          "indexed": true,
          "internalType": "address",
          "name": "agentVault",
          "type": "address"
        },
        {
          "components": [
            {
              "internalType": "address",
              "name": "collateralPool",
              "type": "address"
            },
            {
              "internalType": "address",
              "name": "collateralPoolToken",
              "type": "address"
            },
            {
              "internalType": "string",
              "name": "underlyingAddress",
              "type": "string"
            },
            {
              "internalType": "address",
              "name": "vaultCollateralToken",
              "type": "address"
            },
            {
              "internalType": "address",
              "name": "poolWNatToken",
              "type": "address"
            },
            {
              "internalType": "uint256",
              "name": "feeBIPS",
              "type": "uint256"
            },
            {
              "internalType": "uint256",
              "name": "poolFeeShareBIPS",
              "type": "uint256"
            },
            {
              "internalType": "uint256",
              "name": "mintingVaultCollateralRatioBIPS",
              "type": "uint256"
            },
            {
              "internalType": "uint256",
              "name": "mintingPoolCollateralRatioBIPS",
              "type": "uint256"
            },
            {
              "internalType": "uint256",
              "name": "buyFAssetByAgentFactorBIPS",
              "type": "uint256"
            },
            {
              "internalType": "uint256",
              "name": "poolExitCollateralRatioBIPS",
              "type": "uint256"
            },
            {
              "internalType": "uint256",
              "name": "poolTopupCollateralRatioBIPS",
              "type": "uint256"
            },
            {
              "internalType": "uint256",
              "name": "poolTopupTokenPriceFactorBIPS",
              "type": "uint256"
            },
            {
              "internalType": "uint256",
              "name": "handshakeType",
              "type": "uint256"
            }
          ],
          "indexed": false,
          "internalType": "struct IAssetManagerEvents.AgentVaultCreationData",
          "name": "creationData",
          "type": "tuple"
        }
      ],
      "name": "AgentVaultCreated",
      "type": "event"
    },
    {
      "anonymous": false,
      "inputs": [
        {
          "indexed": true,
          "internalType": "address",
          "name": "agentVault",
          "type": "address"
        },
        {
          "indexed": false,
          "internalType": "uint256",
          "name": "exitAllowedAt",
          "type": "uint256"
        }
      ],
      "name": "AvailableAgentExitAnnounced",
      "type": "event"
    },
    {
      "anonymous": false,
      "inputs": [
        {
          "indexed": true,
          "internalType": "address",
          "name": "agentVault",
          "type": "address"
        }
      ],
      "name": "AvailableAgentExited",
      "type": "event"
    },
    {
      "anonymous": false,
      "inputs": [
        {
          "indexed": false,
          "internalType": "uint8",
          "name": "collateralClass",
          "type": "uint8"
        },
        {
          "indexed": false,
          "internalType": "address",
          "name": "collateralToken",
          "type": "address"
        },
        {
          "indexed": false,
          "internalType": "uint256",
          "name": "minCollateralRatioBIPS",
          "type": "uint256"
        },
        {
          "indexed": false,
          "internalType": "uint256",
          "name": "ccbMinCollateralRatioBIPS",
          "type": "uint256"
        },
        {
          "indexed": false,
          "internalType": "uint256",
          "name": "safetyMinCollateralRatioBIPS",
          "type": "uint256"
        }
      ],
      "name": "CollateralRatiosChanged",
      "type": "event"
    },
    {
      "anonymous": false,
      "inputs": [
        {
          "indexed": true,
          "internalType": "address",
          "name": "agentVault",
          "type": "address"
        },
        {
          "indexed": true,
          "internalType": "address",
          "name": "minter",
          "type": "address"
        },
        {
          "indexed": true,
          "internalType": "uint256",
          "name": "collateralReservationId",
          "type": "uint256"
        }
      ],
      "name": "CollateralReservationCancelled",
      "type": "event"
    },
    {
      "anonymous": false,
      "inputs": [
        {
          "indexed": true,
          "internalType": "address",
          "name": "agentVault",
          "type": "address"
        },
        {
          "indexed": true,
          "internalType": "address",
          "name": "minter",
          "type": "address"
        },
        {
          "indexed": true,
          "internalType": "uint256",
          "name": "collateralReservationId",
          "type": "uint256"
        },
        {
          "indexed": false,
          "internalType": "uint256",
          "name": "reservedAmountUBA",
          "type": "uint256"
        }
      ],
      "name": "CollateralReservationDeleted",
      "type": "event"
    },
    {
      "anonymous": false,
      "inputs": [
        {
          "indexed": true,
          "internalType": "address",
          "name": "agentVault",
          "type": "address"
        },
        {
          "indexed": true,
          "internalType": "address",
          "name": "minter",
          "type": "address"
        },
        {
          "indexed": true,
          "internalType": "uint256",
          "name": "collateralReservationId",
          "type": "uint256"
        }
      ],
      "name": "CollateralReservationRejected",
      "type": "event"
    },
    {
      "anonymous": false,
      "inputs": [
        {
          "indexed": true,
          "internalType": "address",
          "name": "agentVault",
          "type": "address"
        },
        {
          "indexed": true,
          "internalType": "address",
          "name": "minter",
          "type": "address"
        },
        {
          "indexed": true,
          "internalType": "uint256",
          "name": "collateralReservationId",
          "type": "uint256"
        },
        {
          "indexed": false,
          "internalType": "uint256",
          "name": "valueUBA",
          "type": "uint256"
        },
        {
          "indexed": false,
          "internalType": "uint256",
          "name": "feeUBA",
          "type": "uint256"
        },
        {
          "indexed": false,
          "internalType": "uint256",
          "name": "firstUnderlyingBlock",
          "type": "uint256"
        },
        {
          "indexed": false,
          "internalType": "uint256",
          "name": "lastUnderlyingBlock",
          "type": "uint256"
        },
        {
          "indexed": false,
          "internalType": "uint256",
          "name": "lastUnderlyingTimestamp",
          "type": "uint256"
        },
        {
          "indexed": false,
          "internalType": "string",
          "name": "paymentAddress",
          "type": "string"
        },
        {
          "indexed": false,
          "internalType": "bytes32",
          "name": "paymentReference",
          "type": "bytes32"
        },
        {
          "indexed": false,
          "internalType": "address",
          "name": "executor",
          "type": "address"
        },
        {
          "indexed": false,
          "internalType": "uint256",
          "name": "executorFeeNatWei",
          "type": "uint256"
        }
      ],
      "name": "CollateralReserved",
      "type": "event"
    },
    {
      "anonymous": false,
      "inputs": [
        {
          "indexed": false,
          "internalType": "uint8",
          "name": "collateralClass",
          "type": "uint8"
        },
        {
          "indexed": false,
          "internalType": "address",
          "name": "token",
          "type": "address"
        },
        {
          "indexed": false,
          "internalType": "uint256",
          "name": "decimals",
          "type": "uint256"
        },
        {
          "indexed": false,
          "internalType": "bool",
          "name": "directPricePair",
          "type": "bool"
        },
        {
          "indexed": false,
          "internalType": "string",
          "name": "assetFtsoSymbol",
          "type": "string"
        },
        {
          "indexed": false,
          "internalType": "string",
          "name": "tokenFtsoSymbol",
          "type": "string"
        },
        {
          "indexed": false,
          "internalType": "uint256",
          "name": "minCollateralRatioBIPS",
          "type": "uint256"
        },
        {
          "indexed": false,
          "internalType": "uint256",
          "name": "ccbMinCollateralRatioBIPS",
          "type": "uint256"
        },
        {
          "indexed": false,
          "internalType": "uint256",
          "name": "safetyMinCollateralRatioBIPS",
          "type": "uint256"
        }
      ],
      "name": "CollateralTypeAdded",
      "type": "event"
    },
    {
      "anonymous": false,
      "inputs": [
        {
          "indexed": false,
          "internalType": "uint8",
          "name": "collateralClass",
          "type": "uint8"
        },
        {
          "indexed": false,
          "internalType": "address",
          "name": "collateralToken",
          "type": "address"
        },
        {
          "indexed": false,
          "internalType": "uint256",
          "name": "validUntil",
          "type": "uint256"
        }
      ],
      "name": "CollateralTypeDeprecated",
      "type": "event"
    },
    {
      "anonymous": false,
      "inputs": [
        {
          "indexed": false,
          "internalType": "string",
          "name": "name",
          "type": "string"
        },
        {
          "indexed": false,
          "internalType": "address",
          "name": "value",
          "type": "address"
        }
      ],
      "name": "ContractChanged",
      "type": "event"
    },
    {
      "anonymous": false,
      "inputs": [
        {
          "indexed": false,
          "internalType": "uint256",
          "name": "underlyingBlockNumber",
          "type": "uint256"
        },
        {
          "indexed": false,
          "internalType": "uint256",
          "name": "underlyingBlockTimestamp",
          "type": "uint256"
        },
        {
          "indexed": false,
          "internalType": "uint256",
          "name": "updatedAt",
          "type": "uint256"
        }
      ],
      "name": "CurrentUnderlyingBlockUpdated",
      "type": "event"
    },
    {
      "anonymous": false,
      "inputs": [
        {
          "indexed": true,
          "internalType": "address",
          "name": "agentVault",
          "type": "address"
        },
        {
          "indexed": false,
          "internalType": "bytes32",
          "name": "transactionHash1",
          "type": "bytes32"
        },
        {
          "indexed": false,
          "internalType": "bytes32",
          "name": "transactionHash2",
          "type": "bytes32"
        }
      ],
      "name": "DuplicatePaymentConfirmed",
      "type": "event"
    },
    {
      "anonymous": false,
      "inputs": [
        {
          "indexed": true,
          "internalType": "address",
          "name": "agentVault",
          "type": "address"
        },
        {
          "indexed": false,
          "internalType": "uint256",
          "name": "dustUBA",
          "type": "uint256"
        }
      ],
      "name": "DustChanged",
      "type": "event"
    },
    {
      "anonymous": false,
      "inputs": [],
      "name": "EmergencyPauseCanceled",
      "type": "event"
    },
    {
      "anonymous": false,
      "inputs": [],
      "name": "EmergencyPauseTransfersCanceled",
      "type": "event"
    },
    {
      "anonymous": false,
      "inputs": [
        {
          "indexed": false,
          "internalType": "uint256",
          "name": "pausedUntil",
          "type": "uint256"
        }
      ],
      "name": "EmergencyPauseTransfersTriggered",
      "type": "event"
    },
    {
      "anonymous": false,
      "inputs": [
        {
          "indexed": false,
          "internalType": "uint256",
          "name": "pausedUntil",
          "type": "uint256"
        }
      ],
      "name": "EmergencyPauseTriggered",
      "type": "event"
    },
    {
      "anonymous": false,
      "inputs": [
        {
          "indexed": true,
          "internalType": "address",
          "name": "agentVault",
          "type": "address"
        },
        {
          "indexed": false,
          "internalType": "uint256",
          "name": "timestamp",
          "type": "uint256"
        }
      ],
      "name": "FullLiquidationStarted",
      "type": "event"
    },
    {
      "anonymous": false,
      "inputs": [
        {
          "indexed": true,
          "internalType": "address",
          "name": "agentVault",
          "type": "address"
        },
        {
          "indexed": true,
          "internalType": "address",
          "name": "minter",
          "type": "address"
        },
        {
          "indexed": true,
          "internalType": "uint256",
          "name": "collateralReservationId",
          "type": "uint256"
        },
        {
          "indexed": false,
          "internalType": "string[]",
          "name": "minterUnderlyingAddresses",
          "type": "string[]"
        },
        {
          "indexed": false,
          "internalType": "uint256",
          "name": "valueUBA",
          "type": "uint256"
        },
        {
          "indexed": false,
          "internalType": "uint256",
          "name": "feeUBA",
          "type": "uint256"
        }
      ],
      "name": "HandshakeRequired",
      "type": "event"
    },
    {
      "anonymous": false,
      "inputs": [
        {
          "indexed": true,
          "internalType": "address",
          "name": "agentVault",
          "type": "address"
        },
        {
          "indexed": false,
          "internalType": "bytes32",
          "name": "transactionHash",
          "type": "bytes32"
        }
      ],
      "name": "IllegalPaymentConfirmed",
      "type": "event"
    },
    {
      "anonymous": false,
      "inputs": [
        {
          "indexed": true,
          "internalType": "address",
          "name": "agentVault",
          "type": "address"
        }
      ],
      "name": "LiquidationEnded",
      "type": "event"
    },
    {
      "anonymous": false,
      "inputs": [
        {
          "indexed": true,
          "internalType": "address",
          "name": "agentVault",
          "type": "address"
        },
        {
          "indexed": true,
          "internalType": "address",
          "name": "liquidator",
          "type": "address"
        },
        {
          "indexed": false,
          "internalType": "uint256",
          "name": "valueUBA",
          "type": "uint256"
        },
        {
          "indexed": false,
          "internalType": "uint256",
          "name": "paidVaultCollateralWei",
          "type": "uint256"
        },
        {
          "indexed": false,
          "internalType": "uint256",
          "name": "paidPoolCollateralWei",
          "type": "uint256"
        }
      ],
      "name": "LiquidationPerformed",
      "type": "event"
    },
    {
      "anonymous": false,
      "inputs": [
        {
          "indexed": true,
          "internalType": "address",
          "name": "agentVault",
          "type": "address"
        },
        {
          "indexed": false,
          "internalType": "uint256",
          "name": "timestamp",
          "type": "uint256"
        }
      ],
      "name": "LiquidationStarted",
      "type": "event"
    },
    {
      "anonymous": false,
      "inputs": [
        {
          "indexed": true,
          "internalType": "address",
          "name": "agentVault",
          "type": "address"
        },
        {
          "indexed": true,
          "internalType": "uint256",
          "name": "collateralReservationId",
          "type": "uint256"
        },
        {
          "indexed": false,
          "internalType": "uint256",
          "name": "mintedAmountUBA",
          "type": "uint256"
        },
        {
          "indexed": false,
          "internalType": "uint256",
          "name": "agentFeeUBA",
          "type": "uint256"
        },
        {
          "indexed": false,
          "internalType": "uint256",
          "name": "poolFeeUBA",
          "type": "uint256"
        }
      ],
      "name": "MintingExecuted",
      "type": "event"
    },
    {
      "anonymous": false,
      "inputs": [
        {
          "indexed": true,
          "internalType": "address",
          "name": "agentVault",
          "type": "address"
        },
        {
          "indexed": true,
          "internalType": "address",
          "name": "minter",
          "type": "address"
        },
        {
          "indexed": true,
          "internalType": "uint256",
          "name": "collateralReservationId",
          "type": "uint256"
        },
        {
          "indexed": false,
          "internalType": "uint256",
          "name": "reservedAmountUBA",
          "type": "uint256"
        }
      ],
      "name": "MintingPaymentDefault",
      "type": "event"
    },
    {
      "anonymous": false,
      "inputs": [
        {
          "indexed": true,
          "internalType": "address",
          "name": "agentVault",
          "type": "address"
        },
        {
          "indexed": false,
          "internalType": "uint256",
          "name": "amountWei",
          "type": "uint256"
        },
        {
          "indexed": false,
          "internalType": "uint256",
          "name": "withdrawalAllowedAt",
          "type": "uint256"
        }
      ],
      "name": "PoolTokenRedemptionAnnounced",
      "type": "event"
    },
    {
      "anonymous": false,
      "inputs": [
        {
          "indexed": true,
          "internalType": "address",
          "name": "agentVault",
          "type": "address"
        },
        {
          "indexed": true,
          "internalType": "address",
          "name": "redeemer",
          "type": "address"
        },
        {
          "indexed": false,
          "internalType": "uint256",
          "name": "redemptionAmountUBA",
          "type": "uint256"
        },
        {
          "indexed": false,
          "internalType": "uint256",
          "name": "paidVaultCollateralWei",
          "type": "uint256"
        }
      ],
      "name": "RedeemedInCollateral",
      "type": "event"
    },
    {
      "anonymous": false,
      "inputs": [
        {
          "indexed": true,
          "internalType": "address",
          "name": "agentVault",
          "type": "address"
        },
        {
          "indexed": true,
          "internalType": "address",
          "name": "redeemer",
          "type": "address"
        },
        {
          "indexed": true,
          "internalType": "uint64",
          "name": "requestId",
          "type": "uint64"
        },
        {
          "indexed": false,
          "internalType": "uint256",
          "name": "redemptionAmountUBA",
          "type": "uint256"
        },
        {
          "indexed": false,
          "internalType": "uint256",
          "name": "redeemedVaultCollateralWei",
          "type": "uint256"
        },
        {
          "indexed": false,
          "internalType": "uint256",
          "name": "redeemedPoolCollateralWei",
          "type": "uint256"
        }
      ],
      "name": "RedemptionDefault",
      "type": "event"
    },
    {
      "anonymous": false,
      "inputs": [
        {
          "indexed": true,
          "internalType": "address",
          "name": "agentVault",
          "type": "address"
        },
        {
          "indexed": true,
          "internalType": "address",
          "name": "redeemer",
          "type": "address"
        },
        {
          "indexed": true,
          "internalType": "uint64",
          "name": "requestId",
          "type": "uint64"
        },
        {
          "indexed": false,
          "internalType": "bytes32",
          "name": "transactionHash",
          "type": "bytes32"
        },
        {
          "indexed": false,
          "internalType": "uint256",
          "name": "redemptionAmountUBA",
          "type": "uint256"
        },
        {
          "indexed": false,
          "internalType": "int256",
          "name": "spentUnderlyingUBA",
          "type": "int256"
        }
      ],
      "name": "RedemptionPaymentBlocked",
      "type": "event"
    },
    {
      "anonymous": false,
      "inputs": [
        {
          "indexed": true,
          "internalType": "address",
          "name": "agentVault",
          "type": "address"
        },
        {
          "indexed": true,
          "internalType": "address",
          "name": "redeemer",
          "type": "address"
        },
        {
          "indexed": true,
          "internalType": "uint64",
          "name": "requestId",
          "type": "uint64"
        },
        {
          "indexed": false,
          "internalType": "bytes32",
          "name": "transactionHash",
          "type": "bytes32"
        },
        {
          "indexed": false,
          "internalType": "int256",
          "name": "spentUnderlyingUBA",
          "type": "int256"
        },
        {
          "indexed": false,
          "internalType": "string",
          "name": "failureReason",
          "type": "string"
        }
      ],
      "name": "RedemptionPaymentFailed",
      "type": "event"
    },
    {
      "anonymous": false,
      "inputs": [
        {
          "indexed": true,
          "internalType": "address",
          "name": "agentVault",
          "type": "address"
        },
        {
          "indexed": true,
          "internalType": "address",
          "name": "redeemer",
          "type": "address"
        },
        {
          "indexed": true,
          "internalType": "uint64",
          "name": "requestId",
          "type": "uint64"
        },
        {
          "indexed": false,
          "internalType": "bytes32",
          "name": "transactionHash",
          "type": "bytes32"
        },
        {
          "indexed": false,
          "internalType": "uint256",
          "name": "redemptionAmountUBA",
          "type": "uint256"
        },
        {
          "indexed": false,
          "internalType": "int256",
          "name": "spentUnderlyingUBA",
          "type": "int256"
        }
      ],
      "name": "RedemptionPerformed",
      "type": "event"
    },
    {
      "anonymous": false,
      "inputs": [
        {
          "indexed": true,
          "internalType": "address",
          "name": "agentVault",
          "type": "address"
        },
        {
          "indexed": true,
          "internalType": "address",
          "name": "redeemer",
          "type": "address"
        },
        {
          "indexed": true,
          "internalType": "uint64",
          "name": "requestId",
          "type": "uint64"
        },
        {
          "indexed": false,
          "internalType": "uint256",
          "name": "redemptionAmountUBA",
          "type": "uint256"
        }
      ],
      "name": "RedemptionRejected",
      "type": "event"
    },
    {
      "anonymous": false,
      "inputs": [
        {
          "indexed": true,
          "internalType": "address",
          "name": "redeemer",
          "type": "address"
        },
        {
          "indexed": false,
          "internalType": "uint256",
          "name": "remainingLots",
          "type": "uint256"
        }
      ],
      "name": "RedemptionRequestIncomplete",
      "type": "event"
    },
    {
      "anonymous": false,
      "inputs": [
        {
          "indexed": true,
          "internalType": "address",
          "name": "agentVault",
          "type": "address"
        },
        {
          "indexed": true,
          "internalType": "address",
          "name": "redeemer",
          "type": "address"
        },
        {
          "indexed": true,
          "internalType": "uint64",
          "name": "requestId",
          "type": "uint64"
        },
        {
          "indexed": false,
          "internalType": "string",
          "name": "paymentAddress",
          "type": "string"
        },
        {
          "indexed": false,
          "internalType": "uint256",
          "name": "valueUBA",
          "type": "uint256"
        }
      ],
      "name": "RedemptionRequestRejected",
      "type": "event"
    },
    {
      "anonymous": false,
      "inputs": [
        {
          "indexed": true,
          "internalType": "address",
          "name": "agentVault",
          "type": "address"
        },
        {
          "indexed": true,
          "internalType": "address",
          "name": "redeemer",
          "type": "address"
        },
        {
          "indexed": true,
          "internalType": "uint64",
          "name": "requestId",
          "type": "uint64"
        },
        {
          "indexed": false,
          "internalType": "uint256",
          "name": "valueTakenOverUBA",
          "type": "uint256"
        },
        {
          "indexed": false,
          "internalType": "address",
          "name": "newAgentVault",
          "type": "address"
        },
        {
          "indexed": false,
          "internalType": "uint64",
          "name": "newRequestId",
          "type": "uint64"
        }
      ],
      "name": "RedemptionRequestTakenOver",
      "type": "event"
    },
    {
      "anonymous": false,
      "inputs": [
        {
          "indexed": true,
          "internalType": "address",
          "name": "agentVault",
          "type": "address"
        },
        {
          "indexed": true,
          "internalType": "address",
          "name": "redeemer",
          "type": "address"
        },
        {
          "indexed": true,
          "internalType": "uint256",
          "name": "requestId",
          "type": "uint256"
        },
        {
          "indexed": false,
          "internalType": "string",
          "name": "paymentAddress",
          "type": "string"
        },
        {
          "indexed": false,
          "internalType": "uint256",
          "name": "valueUBA",
          "type": "uint256"
        },
        {
          "indexed": false,
          "internalType": "uint256",
          "name": "feeUBA",
          "type": "uint256"
        },
        {
          "indexed": false,
          "internalType": "uint256",
          "name": "firstUnderlyingBlock",
          "type": "uint256"
        },
        {
          "indexed": false,
          "internalType": "uint256",
          "name": "lastUnderlyingBlock",
          "type": "uint256"
        },
        {
          "indexed": false,
          "internalType": "uint256",
          "name": "lastUnderlyingTimestamp",
          "type": "uint256"
        },
        {
          "indexed": false,
          "internalType": "bytes32",
          "name": "paymentReference",
          "type": "bytes32"
        },
        {
          "indexed": false,
          "internalType": "address",
          "name": "executor",
          "type": "address"
        },
        {
          "indexed": false,
          "internalType": "uint256",
          "name": "executorFeeNatWei",
          "type": "uint256"
        }
      ],
      "name": "RedemptionRequested",
      "type": "event"
    },
    {
      "anonymous": false,
      "inputs": [
        {
          "indexed": true,
          "internalType": "address",
          "name": "agentVault",
          "type": "address"
        },
        {
          "indexed": true,
          "internalType": "uint256",
          "name": "redemptionTicketId",
          "type": "uint256"
        },
        {
          "indexed": false,
          "internalType": "uint256",
          "name": "ticketValueUBA",
          "type": "uint256"
        }
      ],
      "name": "RedemptionTicketCreated",
      "type": "event"
    },
    {
      "anonymous": false,
      "inputs": [
        {
          "indexed": true,
          "internalType": "address",
          "name": "agentVault",
          "type": "address"
        },
        {
          "indexed": true,
          "internalType": "uint256",
          "name": "redemptionTicketId",
          "type": "uint256"
        }
      ],
      "name": "RedemptionTicketDeleted",
      "type": "event"
    },
    {
      "anonymous": false,
      "inputs": [
        {
          "indexed": true,
          "internalType": "address",
          "name": "agentVault",
          "type": "address"
        },
        {
          "indexed": true,
          "internalType": "uint256",
          "name": "redemptionTicketId",
          "type": "uint256"
        },
        {
          "indexed": false,
          "internalType": "uint256",
          "name": "ticketValueUBA",
          "type": "uint256"
        }
      ],
      "name": "RedemptionTicketUpdated",
      "type": "event"
    },
    {
      "anonymous": false,
      "inputs": [
        {
          "indexed": true,
          "internalType": "address",
          "name": "agentVault",
          "type": "address"
        },
        {
          "indexed": false,
          "internalType": "uint256",
          "name": "valueUBA",
          "type": "uint256"
        }
      ],
      "name": "SelfClose",
      "type": "event"
    },
    {
      "anonymous": false,
      "inputs": [
        {
          "indexed": true,
          "internalType": "address",
          "name": "agentVault",
          "type": "address"
        },
        {
          "indexed": false,
          "internalType": "bool",
          "name": "mintFromFreeUnderlying",
          "type": "bool"
        },
        {
          "indexed": false,
          "internalType": "uint256",
          "name": "mintedAmountUBA",
          "type": "uint256"
        },
        {
          "indexed": false,
          "internalType": "uint256",
          "name": "depositedAmountUBA",
          "type": "uint256"
        },
        {
          "indexed": false,
          "internalType": "uint256",
          "name": "poolFeeUBA",
          "type": "uint256"
        }
      ],
      "name": "SelfMint",
      "type": "event"
    },
    {
      "anonymous": false,
      "inputs": [
        {
          "indexed": false,
          "internalType": "string",
          "name": "name",
          "type": "string"
        },
        {
          "indexed": false,
          "internalType": "uint256[]",
          "name": "value",
          "type": "uint256[]"
        }
      ],
      "name": "SettingArrayChanged",
      "type": "event"
    },
    {
      "anonymous": false,
      "inputs": [
        {
          "indexed": false,
          "internalType": "string",
          "name": "name",
          "type": "string"
        },
        {
          "indexed": false,
          "internalType": "uint256",
          "name": "value",
          "type": "uint256"
        }
      ],
      "name": "SettingChanged",
      "type": "event"
    },
    {
      "anonymous": false,
      "inputs": [
        {
          "indexed": false,
          "internalType": "uint256",
          "name": "nextTransferFeeMillionths",
          "type": "uint256"
        },
        {
          "indexed": false,
          "internalType": "uint256",
          "name": "scheduledAt",
          "type": "uint256"
        }
      ],
      "name": "TransferFeeChangeScheduled",
      "type": "event"
    },
    {
      "anonymous": false,
      "inputs": [
        {
          "indexed": true,
          "internalType": "address",
          "name": "agentVault",
          "type": "address"
        },
        {
          "indexed": false,
          "internalType": "address",
          "name": "recipient",
          "type": "address"
        },
        {
          "indexed": false,
          "internalType": "uint256",
          "name": "agentClaimedUBA",
          "type": "uint256"
        },
        {
          "indexed": false,
          "internalType": "uint256",
          "name": "poolClaimedUBA",
          "type": "uint256"
        },
        {
          "indexed": false,
          "internalType": "uint256",
          "name": "remainingUnclaimedEpochs",
          "type": "uint256"
        }
      ],
      "name": "TransferFeesClaimed",
      "type": "event"
    },
    {
      "anonymous": false,
      "inputs": [
        {
          "indexed": true,
          "internalType": "address",
          "name": "agentVault",
          "type": "address"
        },
        {
          "indexed": false,
          "internalType": "int256",
          "name": "underlyingBalanceUBA",
          "type": "int256"
        }
      ],
      "name": "UnderlyingBalanceChanged",
      "type": "event"
    },
    {
      "anonymous": false,
      "inputs": [
        {
          "indexed": true,
          "internalType": "address",
          "name": "agentVault",
          "type": "address"
        },
        {
          "indexed": false,
          "internalType": "int256",
          "name": "balance",
          "type": "int256"
        },
        {
          "indexed": false,
          "internalType": "uint256",
          "name": "requiredBalance",
          "type": "uint256"
        }
      ],
      "name": "UnderlyingBalanceTooLow",
      "type": "event"
    },
    {
      "anonymous": false,
      "inputs": [
        {
          "indexed": true,
          "internalType": "address",
          "name": "agentVault",
          "type": "address"
        },
        {
          "indexed": false,
          "internalType": "bytes32",
          "name": "transactionHash",
          "type": "bytes32"
        },
        {
          "indexed": false,
          "internalType": "uint256",
          "name": "depositedUBA",
          "type": "uint256"
        }
      ],
      "name": "UnderlyingBalanceToppedUp",
      "type": "event"
    },
    {
      "anonymous": false,
      "inputs": [
        {
          "indexed": true,
          "internalType": "address",
          "name": "agentVault",
          "type": "address"
        },
        {
          "indexed": true,
          "internalType": "uint64",
          "name": "announcementId",
          "type": "uint64"
        },
        {
          "indexed": false,
          "internalType": "bytes32",
          "name": "paymentReference",
          "type": "bytes32"
        }
      ],
      "name": "UnderlyingWithdrawalAnnounced",
      "type": "event"
    },
    {
      "anonymous": false,
      "inputs": [
        {
          "indexed": true,
          "internalType": "address",
          "name": "agentVault",
          "type": "address"
        },
        {
          "indexed": true,
          "internalType": "uint64",
          "name": "announcementId",
          "type": "uint64"
        }
      ],
      "name": "UnderlyingWithdrawalCancelled",
      "type": "event"
    },
    {
      "anonymous": false,
      "inputs": [
        {
          "indexed": true,
          "internalType": "address",
          "name": "agentVault",
          "type": "address"
        },
        {
          "indexed": true,
          "internalType": "uint64",
          "name": "announcementId",
          "type": "uint64"
        },
        {
          "indexed": false,
          "internalType": "int256",
          "name": "spentUBA",
          "type": "int256"
        },
        {
          "indexed": false,
          "internalType": "bytes32",
          "name": "transactionHash",
          "type": "bytes32"
        }
      ],
      "name": "UnderlyingWithdrawalConfirmed",
      "type": "event"
    },
    {
      "anonymous": false,
      "inputs": [
        {
          "indexed": true,
          "internalType": "address",
          "name": "agentVault",
          "type": "address"
        },
        {
          "indexed": false,
          "internalType": "uint256",
          "name": "amountWei",
          "type": "uint256"
        },
        {
          "indexed": false,
          "internalType": "uint256",
          "name": "withdrawalAllowedAt",
          "type": "uint256"
        }
      ],
      "name": "VaultCollateralWithdrawalAnnounced",
      "type": "event"
    },
    {
      "inputs": [
        {
          "internalType": "address",
          "name": "_agentVault",
          "type": "address"
        },
        {
          "internalType": "uint256",
          "name": "_maxEpochsToClaim",
          "type": "uint256"
        }
      ],
      "name": "agentTransferFeeShare",
      "outputs": [
        {
          "internalType": "uint256",
          "name": "_feeShareUBA",
          "type": "uint256"
        }
      ],
      "stateMutability": "view",
      "type": "function"
    },
    {
      "inputs": [
        {
          "internalType": "address",
          "name": "_agentVault",
          "type": "address"
        },
        {
          "internalType": "uint256",
          "name": "_epoch",
          "type": "uint256"
        }
      ],
      "name": "agentTransferFeeShareForEpoch",
      "outputs": [
        {
          "internalType": "uint256",
          "name": "",
          "type": "uint256"
        }
      ],
      "stateMutability": "view",
      "type": "function"
    },
    {
      "inputs": [
        {
          "internalType": "address",
          "name": "_agentVault",
          "type": "address"
        }
      ],
      "name": "agentUnclaimedTransferFeeEpochs",
      "outputs": [
        {
          "internalType": "uint256",
          "name": "_first",
          "type": "uint256"
        },
        {
          "internalType": "uint256",
          "name": "_count",
          "type": "uint256"
        }
      ],
      "stateMutability": "view",
      "type": "function"
    },
    {
      "inputs": [
        {
          "internalType": "address",
          "name": "_agentVault",
          "type": "address"
        },
        {
          "internalType": "address",
          "name": "_recipient",
          "type": "address"
        },
        {
          "internalType": "uint256",
          "name": "_maxEpochsToClaim",
          "type": "uint256"
        }
      ],
      "name": "claimTransferFees",
      "outputs": [
        {
          "internalType": "uint256",
          "name": "_agentClaimedUBA",
          "type": "uint256"
        },
        {
          "internalType": "uint256",
          "name": "_poolClaimedUBA",
          "type": "uint256"
        },
        {
          "internalType": "uint256",
          "name": "_remainingUnclaimedEpochs",
          "type": "uint256"
        }
      ],
      "stateMutability": "nonpayable",
      "type": "function"
    },
    {
      "inputs": [],
      "name": "currentTransferFeeEpoch",
      "outputs": [
        {
          "internalType": "uint256",
          "name": "",
          "type": "uint256"
        }
      ],
      "stateMutability": "view",
      "type": "function"
    },
    {
      "inputs": [
        {
          "internalType": "uint256",
          "name": "_fee",
          "type": "uint256"
        }
      ],
      "name": "fassetTransferFeePaid",
      "outputs": [],
      "stateMutability": "nonpayable",
      "type": "function"
    },
    {
      "inputs": [],
      "name": "firstClaimableTransferFeeEpoch",
      "outputs": [
        {
          "internalType": "uint256",
          "name": "",
          "type": "uint256"
        }
      ],
      "stateMutability": "view",
      "type": "function"
    },
    {
      "inputs": [
        {
          "internalType": "address[]",
          "name": "_agentVaults",
          "type": "address[]"
        }
      ],
      "name": "initAgentsMintingHistory",
      "outputs": [],
      "stateMutability": "nonpayable",
      "type": "function"
    },
    {
      "inputs": [
        {
          "internalType": "uint256",
          "name": "_transferFeeMillionths",
          "type": "uint256"
        },
        {
          "internalType": "uint256",
          "name": "_firstEpochStartTs",
          "type": "uint256"
        },
        {
          "internalType": "uint256",
          "name": "_epochDuration",
          "type": "uint256"
        },
        {
          "internalType": "uint256",
          "name": "_maxUnexpiredEpochs",
          "type": "uint256"
        }
      ],
      "name": "initTransferFeeFacet",
      "outputs": [],
      "stateMutability": "nonpayable",
      "type": "function"
    },
    {
      "inputs": [
        {
          "internalType": "uint256",
          "name": "_value",
          "type": "uint256"
        },
        {
          "internalType": "uint256",
          "name": "_scheduledAt",
          "type": "uint256"
        }
      ],
      "name": "setTransferFeeMillionths",
      "outputs": [],
      "stateMutability": "nonpayable",
      "type": "function"
    },
    {
      "inputs": [
        {
          "internalType": "address",
          "name": "_agentVault",
          "type": "address"
        },
        {
          "internalType": "uint256",
          "name": "_epoch",
          "type": "uint256"
        }
      ],
      "name": "transferFeeCalculationDataForAgent",
      "outputs": [
        {
          "components": [
            {
              "internalType": "uint256",
              "name": "totalFees",
              "type": "uint256"
            },
            {
              "internalType": "uint256",
              "name": "cumulativeMinted",
              "type": "uint256"
            },
            {
              "internalType": "uint256",
              "name": "totalCumulativeMinted",
              "type": "uint256"
            },
            {
              "internalType": "bool",
              "name": "claimable",
              "type": "bool"
            },
            {
              "internalType": "bool",
              "name": "claimed",
              "type": "bool"
            }
          ],
          "internalType": "struct ITransferFees.TransferFeeCalculationDataForAgent",
          "name": "",
          "type": "tuple"
        }
      ],
      "stateMutability": "view",
      "type": "function"
    },
    {
      "inputs": [
        {
          "internalType": "uint256",
          "name": "_epoch",
          "type": "uint256"
        }
      ],
      "name": "transferFeeEpochData",
      "outputs": [
        {
          "components": [
            {
              "internalType": "uint256",
              "name": "startTs",
              "type": "uint256"
            },
            {
              "internalType": "uint256",
              "name": "endTs",
              "type": "uint256"
            },
            {
              "internalType": "uint256",
              "name": "totalFees",
              "type": "uint256"
            },
            {
              "internalType": "uint256",
              "name": "claimedFees",
              "type": "uint256"
            },
            {
              "internalType": "bool",
              "name": "claimable",
              "type": "bool"
            },
            {
              "internalType": "bool",
              "name": "expired",
              "type": "bool"
            }
          ],
          "internalType": "struct ITransferFees.TransferFeeEpochData",
          "name": "",
          "type": "tuple"
        }
      ],
      "stateMutability": "view",
      "type": "function"
    },
    {
      "inputs": [],
      "name": "transferFeeMillionths",
      "outputs": [
        {
          "internalType": "uint256",
          "name": "",
          "type": "uint256"
        }
      ],
      "stateMutability": "view",
      "type": "function"
    },
    {
      "inputs": [],
      "name": "transferFeeSettings",
      "outputs": [
        {
          "components": [
            {
              "internalType": "uint256",
              "name": "transferFeeMillionths",
              "type": "uint256"
            },
            {
              "internalType": "uint256",
              "name": "firstEpochStartTs",
              "type": "uint256"
            },
            {
              "internalType": "uint256",
              "name": "epochDuration",
              "type": "uint256"
            },
            {
              "internalType": "uint256",
              "name": "maxUnexpiredEpochs",
              "type": "uint256"
            },
            {
              "internalType": "uint256",
              "name": "firstClaimableEpoch",
              "type": "uint256"
            }
          ],
          "internalType": "struct ITransferFees.TransferFeeSettings",
          "name": "",
          "type": "tuple"
        }
      ],
      "stateMutability": "view",
      "type": "function"
    }
  ],
  "bytecode": "0x60806040523480156200001157600080fd5b507f341c6685fdb8ed7133465b64f545b9fbc5699a59cbd1ad98992e5c070a74c511620000438160006001816200004a565b5062000292565b60038401546801000000000000000090046001600160401b031615620000b75760405162461bcd60e51b815260206004820152601360248201527f616c726561647920696e697469616c697a65640000000000000000000000000060448201526064015b60405180910390fd5b6000826001600160401b031611620001125760405162461bcd60e51b815260206004820152601e60248201527f65706f6368206475726174696f6e206d757374206265206e6f6e7a65726f00006044820152606401620000ae565b6003840180546001600160401b03838116600160801b02600160801b600160c01b031986831668010000000000000000026001600160801b0319909416928816929092179290921716179055620001736200016d85620001a1565b620001df565b8460030160186101000a8154816001600160401b0302191690836001600160401b0316021790555050505050565b60038101546000906001600160401b03680100000000000000008204811691620001cd9116426200024d565b620001d991906200026f565b92915050565b60006001600160401b03821115620002495760405162461bcd60e51b815260206004820152602660248201527f53616665436173743a2076616c756520646f65736e27742066697420696e203660448201526534206269747360d01b6064820152608401620000ae565b5090565b81810381811115620001d957634e487b7160e01b600052601160045260246000fd5b6000826200028d57634e487b7160e01b600052601260045260246000fd5b500490565b6125f080620002a26000396000f3fe608060405234801561001057600080fd5b50600436106100ea5760003560e01c80635a38e03f1161008c578063b706b3cc11610066578063b706b3cc14610270578063f051952e14610283578063f6bda95d146102dc578063fc52f16d1461030a57600080fd5b80635a38e03f146101dc57806361359fcb14610226578063842f87c01461023957600080fd5b806332076117116100c85780633207611714610191578063367b11cf146101995780633ba60fb1146101ac5780633cc0b064146101b457600080fd5b80631111862b146100ef5780631be754e11461015b5780632824fc7e1461017c575b600080fd5b6101026100fd36600461226b565b61031d565b6040516101529190600060c0820190508251825260208301516020830152604083015160408301526060830151606083015260808301511515608083015260a0830151151560a083015292915050565b60405180910390f35b61016e610169366004612299565b61040b565b604051908152602001610152565b61018f61018a3660046122c5565b610430565b005b61016e610593565b61016e6101a7366004612299565b6105b3565b61016e610643565b6101c76101c23660046122e7565b610658565b60408051928352602083019190915201610152565b6101e4610706565b6040516101529190600060a082019050825182526020830151602083015260408301516040830152606083015160608301526080830151608083015292915050565b61018f610234366004612304565b6107af565b7f341c6685fdb8ed7133465b64f545b9fbc5699a59cbd1ad98992e5c070a74c51454600160c01b90046001600160401b031661016e565b61018f61027e366004612378565b61086d565b610296610291366004612299565b6109e9565b6040516101529190600060a08201905082518252602083015160208301526040830151604083015260608301511515606083015260808301511515608083015292915050565b6102ef6102ea3660046123aa565b610aeb565b60408051938452602084019290925290820152606001610152565b61018f61031836600461226b565b610d17565b61035a6040518060c00160405280600081526020016000815260200160008152602001600081526020016000151581526020016000151581525090565b6040805160c0810190915260008051602061259b83398151915290806103808386610dbe565b815260200161039a610393866001612401565b8490610dbe565b815260008581526002840160208181526040808420546001600160801b0380821684880152948a905292909152600160801b909104909116908201526060016103e38386610e00565b151581526003909201546001600160401b03600160c01b909104169093106020909101525090565b600060008051602061259b833981519152610427818585610e34565b50949350505050565b610438610ee6565b610440610f63565b600061044a61105a565b63ffffffff169050620f424083106104a55760405162461bcd60e51b81526020600482015260196024820152780dad2d8d8d2dedce8d0e640ecc2d8eaca40e8dede40d0d2ced603b1b60448201526064015b60405180910390fd5b6104b0816004612414565b6104bc906103e8612401565b8311156104fe5760405162461bcd60e51b815260206004820152601060248201526f696e63726561736520746f6f2062696760801b604482015260640161049c565b610509600482612441565b83101561054b5760405162461bcd60e51b815260206004820152601060248201526f646563726561736520746f6f2062696760801b604482015260640161049c565b61055583836110ce565b60408051848152602081018490527f4cb6e1e3604f0d8f53b729aca897d431dd051f3f93d382ac9b4baea1e3baa9b9910160405180910390a1505050565b600060008051602061259b8339815191526105ad81611199565b91505090565b6001600160a01b03821660009081527f341c6685fdb8ed7133465b64f545b9fbc5699a59cbd1ad98992e5c070a74c5156020526040812060008051602061259b83398151915290826106058386610e00565b801561061e575060028201546001600160401b03168510155b90508061062c576000610637565b6106378383876111c8565b93505050505b92915050565b600061064d61105a565b63ffffffff16905090565b6001600160a01b03811660009081527f341c6685fdb8ed7133465b64f545b9fbc5699a59cbd1ad98992e5c070a74c5156020526040812060028101547f341c6685fdb8ed7133465b64f545b9fbc5699a59cbd1ad98992e5c070a74c51454839260008051602061259b8339815191529290916106e7916001600160401b0390811691600160c01b90041661123a565b9350836106f383611199565b6106fd9190612455565b92505050915091565b6107386040518060a0016040528060008152602001600081526020016000815260200160008152602001600081525090565b600060008051602061259b83398151915290506040518060a0016040528061075e61105a565b63ffffffff1681526003909201546001600160401b038082166020850152600160401b820481166040850152600160801b820481166060850152600160c01b90910416608090920191909152919050565b60008051602061259b83398151915260005b828110156108675760006107fa8585848181106107e0576107e0612468565b90506020020160208101906107f591906122e7565b611250565b6005810154909150600160401b90046001600160401b03161561085e5761085e85858481811061082c5761082c612468565b905060200201602081019061084191906122e7565b6005830154859190600160401b90046001600160401b03166112f7565b506001016107c1565b50505050565b6301ffc9a760e01b6000527fc8fcad8db84d3cc18b4c41d551ea0ee66dd599cde068d998e57d5e09332c131e6020527f673a26ab9c976db950bbe987aa80c5e387f329563bb0afe093ddccc970489e31547fc8fcad8db84d3cc18b4c41d551ea0ee66dd599cde068d998e57d5e09332c131c9060ff1661092f5760405162461bcd60e51b815260206004820152601760248201527f6469616d6f6e64206e6f7420696e697469616c697a6564000000000000000000604482015260640161049c565b636454d49360e01b60009081526002820160205260409020805460ff19166001179055620f424085106109a05760405162461bcd60e51b81526020600482015260196024820152780dad2d8d8d2dedce8d0e640ecc2d8eaca40e8dede40d0d2ced603b1b604482015260640161049c565b6109ab8560006110ce565b60008051602061259b8339815191526109e16109c68661133a565b6109cf8661133a565b6109d88661133a565b849291906113a6565b505050505050565b610a1f6040518060a001604052806000815260200160008152602001600081526020016000151581526020016000151581525090565b6001600160a01b03831660009081527f341c6685fdb8ed7133465b64f545b9fbc5699a59cbd1ad98992e5c070a74c5156020526040812060008051602061259b83398151915291610a708386610e00565b6040805160a0810182526000888152600287016020908152929020546001600160801b031681529192508101610aa78585896114de565b8152602001610ab78580896114de565b81526020018215158152602001828015610add575060028401546001600160401b031687105b151590529695505050505050565b600080600085610afa81611511565b60008051602061259b833981519152600080610b17838b8a611568565b915091506000610b268b611250565b90506000610b5b7f4f24f5c433db0962dac0d2c8b84197a6e6c7cc4e5d9ebe1916a1b6193da2f33b546001600160a01b031690565b6004830154909150610b79908590600160581b900461ffff1661169a565b9750610b858885612455565b604051631cb8f94f60e01b81526001600160a01b038d8116600483015260248201839052919a50939750879390821690631cb8f94f90604401600060405180830381600087803b158015610bd857600080fd5b505af1158015610bec573d6000803e3d6000fd5b50508354604051631cb8f94f60e01b81526001600160a01b039182166004820152602481018c90529084169250631cb8f94f9150604401600060405180830381600087803b158015610c3d57600080fd5b505af1158015610c51573d6000803e3d6000fd5b5050835460405163542a535160e11b8152600481018c90526001600160a01b03909116925063a854a6a29150602401600060405180830381600087803b158015610c9a57600080fd5b505af1158015610cae573d6000803e3d6000fd5b5050604080516001600160a01b038f81168252602082018e90529181018c905260608101879052908f1692507fe4b337ad6dc4f119046c145811cbcf40d8b0073fc94049b74c44032c9ed1995a915060800160405180910390a250505050505093509350939050565b7f4f24f5c433db0962dac0d2c8b84197a6e6c7cc4e5d9ebe1916a1b6193da2f33b547f4f24f5c433db0962dac0d2c8b84197a6e6c7cc4e5d9ebe1916a1b6193da2f33a906001600160a01b03163314610da05760405162461bcd60e51b815260206004820152600b60248201526a1bdb9b1e4811905cdcd95d60aa1b604482015260640161049c565b60008051602061259b833981519152610db981846116a9565b505050565b6003820154600090610de1908390600160401b90046001600160401b0316612414565b6003840154610df991906001600160401b0316612401565b9392505050565b6003820154600090600160c01b90046001600160401b03168210801590610df95750610e2b83611199565b90911092915050565b6001600160a01b03821660009081526004840160205260408120819081610e5a87611199565b60028301546003890154919250600091610e87916001600160401b0390811691600160c01b90041661123a565b90506000610e9e83610e998985612401565b61171b565b600096509050815b81811015610ecd57610eb98a86836111c8565b610ec39088612401565b9650600101610ea6565b50610ed88184612455565b945050505050935093915050565b7f4f24f5c433db0962dac0d2c8b84197a6e6c7cc4e5d9ebe1916a1b6193da2f33a80546001600160a01b03163314610f605760405162461bcd60e51b815260206004820152601d60248201527f6f6e6c79206173736574206d616e6167657220636f6e74726f6c6c6572000000604482015260640161049c565b50565b600080356001600160e01b0319168082527fc6aafbe0f74bbe68eec7559401d7d311a092b5c4d8feb0452323e4ba73d8d8d160208190526040909220547f4f24f5c433db0962dac0d2c8b84197a6e6c7cc4e5d9ebe1916a1b6193da2f33a9190801580610fee57506011830154610fea90600160801b90046001600160401b031682612401565b4210155b61103a5760405162461bcd60e51b815260206004820152601c60248201527f746f6f20636c6f736520746f2070726576696f75732075706461746500000000604482015260640161049c565b506001600160e01b03191660009081526020929092525060409020429055565b7f341c6685fdb8ed7133465b64f545b9fbc5699a59cbd1ad98992e5c070a74c510805460009190600160401b90046001600160401b03168281158015906110a15750428211155b9050806110b557825463ffffffff166110c6565b8254640100000000900463ffffffff165b935050505090565b7f341c6685fdb8ed7133465b64f545b9fbc5699a59cbd1ad98992e5c070a74c51042821115611173576110ff61105a565b815463ffffffff191663ffffffff9190911617815561111d8361172a565b815463ffffffff919091166401000000000267ffffffff00000000199091161781556111488261172a565b81546fffffffffffffffff0000000000000000191663ffffffff91909116600160401b021790555050565b61117c8361172a565b81546001600160801b03191663ffffffff91909116178155505050565b60038101546000906001600160401b03600160401b82048116916111be911642612455565b61063d9190612441565b60008181526002840160205260408120816111e48686866114de565b905060006111f38780876114de565b9050808211156112055761120561247e565b816000036112195760009350505050610df9565b825461122f906001600160801b0316838361178f565b979650505050505050565b60008183116112495781610df9565b5090919050565b7f5bebac0595fee029d42bb673937f5f1cb81cf8641382bc17774635de9b7d796568010000000000000000600160e01b03604083901b161880600060048084015460ff16908111156112a4576112a4612494565b036112f15760405162461bcd60e51b815260206004820152601b60248201527f696e76616c6964206167656e74207661756c7420616464726573730000000000604482015260640161049c565b50919050565b6001600160a01b0382166000908152600484016020526040812060018101549091600160401b9091046001600160401b03169003610867576108678484846118b5565b60006001600160401b038211156113a25760405162461bcd60e51b815260206004820152602660248201527f53616665436173743a2076616c756520646f65736e27742066697420696e203660448201526534206269747360d01b606482015260840161049c565b5090565b6003840154600160401b90046001600160401b0316156113fe5760405162461bcd60e51b8152602060048201526013602482015272185b1c9958591e481a5b9a5d1a585b1a5e9959606a1b604482015260640161049c565b6000826001600160401b0316116114575760405162461bcd60e51b815260206004820152601e60248201527f65706f6368206475726174696f6e206d757374206265206e6f6e7a65726f0000604482015260640161049c565b6003840180546001600160401b03838116600160801b0267ffffffffffffffff60801b19868316600160401b026001600160801b03199094169288169290921792909217161790556114b06114ab85611199565b61133a565b8460030160186101000a8154816001600160401b0302191690836001600160401b0316021790555050505050565b60006115096114ed8584610dbe565b611501866114fc866001612401565b610dbe565b85919061191e565b949350505050565b61152361151d82611250565b336119a0565b610f605760405162461bcd60e51b815260206004820152601660248201527537b7363c9030b3b2b73a103b30bab63a1037bbb732b960511b604482015260640161049c565b6001600160a01b0382166000908152600484016020526040812081908161158e87611199565b600283015460038901549192506000916115bb916001600160401b0390811691600160c01b90041661123a565b905060006115cd83610e998985612401565b600096509050815b818110156116635760006115ea8b87846111c8565b90506115f68189612401565b975061160181611a71565b600083815260028d01602052604090208054601090611631908490600160801b90046001600160801b03166124aa565b92506101000a8154816001600160801b0302191690836001600160801b031602179055505080806001019150506115d5565b5061166d8161133a565b60028501805467ffffffffffffffff19166001600160401b0392909216919091179055610ed88184612455565b6000610df9838361271061178f565b60006116b483611199565b90506116c08382611ada565b6116c982611a71565b6000828152600285016020526040812080549091906116f29084906001600160801b03166124aa565b92506101000a8154816001600160801b0302191690836001600160801b03160217905550505050565b60008183106112495781610df9565b600063ffffffff8211156113a25760405162461bcd60e51b815260206004820152602660248201527f53616665436173743a2076616c756520646f65736e27742066697420696e203360448201526532206269747360d01b606482015260840161049c565b60008082116117d35760405162461bcd60e51b815260206004820152601060248201526f4469766973696f6e206279207a65726f60801b604482015260640161049c565b836000036117e357506000610df9565b838302838582816117f6576117f661242b565b04036118145782818161180b5761180b61242b565b04915050610df9565b5060006118218386612441565b9050600061182f84876124ca565b9050600061183d8587612441565b9050600061184b86886124ca565b9050856118588285612414565b6118629190612441565b61186c8385612414565b6118768387612414565b886118818689612414565b61188b9190612414565b6118959190612401565b61189f9190612401565b6118a99190612401565b98975050505050505050565b6001600160a01b03821660009081526004840160205260408120906118d982611ba1565b905060006118e686611ba1565b90506118f3834286611c3c565b611914428361190287856124de565b61190c91906124fe565b889190611c3c565b6109e18684611fad565b6000818311156119825760405162461bcd60e51b815260206004820152602960248201527f54696d6543756d756c61746976653a20696e74657276616c20656e64206265666044820152681bdc99481cdd185c9d60ba1b606482015260840161049c565b61198c8484611fea565b6119968584611fea565b6115099190612455565b60018201546000906001600160a01b0390811690831681148061150957507f4f24f5c433db0962dac0d2c8b84197a6e6c7cc4e5d9ebe1916a1b6193da2f341546001600160a01b0316604051631f86345d60e31b81526001600160a01b038381166004830152919091169063fc31a2e890602401602060405180830381865afa158015611a31573d6000803e3d6000fd5b505050506040513d601f19601f82011682018060405250810190611a55919061251e565b6001600160a01b0316836001600160a01b031614949350505050565b60006001600160801b038211156113a25760405162461bcd60e51b815260206004820152602760248201527f53616665436173743a2076616c756520646f65736e27742066697420696e20316044820152663238206269747360c81b606482015260840161049c565b60038201546001600160401b03600160c01b82048116918391611b0591600160801b90041683612401565b1015610db957600081815260028401602052604090208054611b39906001600160801b03600160801b82048116911661253b565b600084815260028601602052604081208054909190611b629084906001600160801b03166124aa565b82546001600160801b039182166101009390930a92830291909202199091161790555060008281526002850160205260408120556114b0826001612401565b6001810154600090600160401b90046001600160401b03168103611bc757506000919050565b60018201546001600160401b03808216600160401b9092041611611bed57611bed61247e565b6001828101548391600091611c129190600160401b90046001600160401b03166124fe565b6001600160401b039081168252602082019290925260400160002054600160c01b90041692915050565b6001830154600160401b90046001600160401b0316600003611d5b5760018301546001600160401b031615611c7357611c7361247e565b604051806060016040528060006001600160801b03168152602001611c978461133a565b6001600160401b0390811682528381166020909201919091526001850180548692600092600160401b90920416906008611cd08361255b565b82546001600160401b039182166101009390930a92830292820219169190911790915590811682526020808301939093526040918201600020845181549486015195909301518216600160c01b026001600160c01b0395909216600160801b026001600160c01b03199094166001600160801b03909316929092179290921792909216179055505050565b60018301546001600160401b03808216600160401b9092041611611d8157611d8161247e565b60018381015460009185918391611da791600160401b90046001600160401b03166124fe565b6001600160401b03908116825260208201929092526040016000208054909250600160801b900416839003611df95780546001600160c01b0316600160c01b6001600160401b03841602178155610867565b8054600160801b90046001600160401b03168311611e6a5760405162461bcd60e51b815260206004820152602860248201527f54696d6543756d756c61746976653a2074696d657374616d70206e6f7420696e6044820152676372656173696e6760c01b606482015260840161049c565b8054600090611e8990600160801b90046001600160401b031685612455565b8254611ea59190600160c01b90046001600160401b0316612414565b8254611eba91906001600160801b0316612401565b90506040518060600160405280611ed083611a71565b6001600160801b03168152602001611ee78661133a565b6001600160401b0390811682528581166020909201919091526001870180548892600092600160401b90920416906008611f208361255b565b82546001600160401b039182166101009390930a92830292820219169190911790915590811682526020808301939093526040918201600020845181549486015195909301518216600160c01b026001600160c01b0395909216600160801b026001600160c01b03199094166001600160801b039093169290921792909217929092161790555050505050565b6003820154600090611fd0908490600160c01b90046001600160401b0316610dbe565b9050611fde828260026120dd565b610db9838260026120dd565b600080611ff784846121ae565b905060001981036120725760018401546001600160401b0316156120685760405162461bcd60e51b815260206004820152602260248201527f54696d6543756d756c61746976653a20616c726561647920636c65616e656420604482015261075760f41b606482015260840161049c565b600091505061063d565b6000818152602085905260409020805461209c90600160801b90046001600160401b031685612455565b81546120b89190600160c01b90046001600160401b0316612414565b81546120cd91906001600160801b0316612401565b9250505061063d565b5092915050565b60018301546001600160401b0380821691600160401b90041660005b838110801561211157508161210f846001612401565b105b801561214a575084866000612127866001612401565b8152602081019190915260400160002054600160801b90046001600160401b0316105b156121795760008381526020879052604081205561216783612581565b925061217281612581565b90506120f9565b6121828361133a565b600196909601805467ffffffffffffffff19166001600160401b03909716969096179095555050505050565b60018201546000906001600160401b0380821691600160401b90041680821015806121f65750600082815260208690526040902054600160801b90046001600160401b031684105b15612207576000199250505061063d565b612212826001612401565b81111561226357600060016122278385612401565b901c600081815260208890526040902054909150600160801b90046001600160401b031685106122595780925061225d565b8091505b50612207565b509392505050565b60006020828403121561227d57600080fd5b5035919050565b6001600160a01b0381168114610f6057600080fd5b600080604083850312156122ac57600080fd5b82356122b781612284565b946020939093013593505050565b600080604083850312156122d857600080fd5b50508035926020909101359150565b6000602082840312156122f957600080fd5b8135610df981612284565b6000806020838503121561231757600080fd5b82356001600160401b038082111561232e57600080fd5b818501915085601f83011261234257600080fd5b81358181111561235157600080fd5b8660208260051b850101111561236657600080fd5b60209290920196919550909350505050565b6000806000806080858703121561238e57600080fd5b5050823594602084013594506040840135936060013592509050565b6000806000606084860312156123bf57600080fd5b83356123ca81612284565b925060208401356123da81612284565b929592945050506040919091013590565b634e487b7160e01b600052601160045260246000fd5b8082018082111561063d5761063d6123eb565b808202811582820484141761063d5761063d6123eb565b634e487b7160e01b600052601260045260246000fd5b6000826124505761245061242b565b500490565b8181038181111561063d5761063d6123eb565b634e487b7160e01b600052603260045260246000fd5b634e487b7160e01b600052600160045260246000fd5b634e487b7160e01b600052602160045260246000fd5b6001600160801b038181168382160190808211156120d6576120d66123eb565b6000826124d9576124d961242b565b500690565b6001600160401b038181168382160190808211156120d6576120d66123eb565b6001600160401b038281168282160390808211156120d6576120d66123eb565b60006020828403121561253057600080fd5b8151610df981612284565b6001600160801b038281168282160390808211156120d6576120d66123eb565b60006001600160401b03808316818103612577576125776123eb565b6001019392505050565b600060018201612593576125936123eb565b506001019056fe341c6685fdb8ed7133465b64f545b9fbc5699a59cbd1ad98992e5c070a74c511a2646970667358221220e2ce66783ef0f706966121f184c3e600f39f18402a14cdd1768cb8685da053d064736f6c63430008170033",
  "linkReferences": {},
  "deployedLinkReferences": {}
}