{
  "_format": "hh-sol-artifact-1",
  "contractName": "TransferFeeFacet",
  "sourceName": "contracts/assetManager/facets/TransferFeeFacet.sol",
  "abi": [
    {
      "anonymous": false,
      "inputs": [
        {
          "indexed": true,
          "internalType": "address",
          "name": "agentVault",
          "type": "address"
        },
        {
          "indexed": false,
          "internalType": "uint256",
          "name": "feeBIPS",
          "type": "uint256"
        },
        {
          "indexed": false,
          "internalType": "uint256",
          "name": "mintingVaultCollateralRatioBIPS",
          "type": "uint256"
        },
        {
          "indexed": false,
          "internalType": "uint256",
          "name": "mintingPoolCollateralRatioBIPS",
          "type": "uint256"
        },
        {
          "indexed": false,
          "internalType": "uint256",
          "name": "freeCollateralLots",
          "type": "uint256"
        }
      ],
      "name": "AgentAvailable",
      "type": "event"
    },
    {
      "anonymous": false,
      "inputs": [
        {
          "indexed": true,
          "internalType": "address",
          "name": "agentVault",
          "type": "address"
        },
        {
          "indexed": false,
          "internalType": "uint8",
          "name": "collateralClass",
          "type": "uint8"
        },
        {
          "indexed": false,
          "internalType": "address",
          "name": "token",
          "type": "address"
        }
      ],
      "name": "AgentCollateralTypeChanged",
      "type": "event"
    },
    {
      "anonymous": false,
      "inputs": [
        {
          "indexed": true,
          "internalType": "address",
          "name": "agentVault",
          "type": "address"
        },
        {
          "indexed": false,
          "internalType": "uint256",
          "name": "destroyAllowedAt",
          "type": "uint256"
        }
      ],
      "name": "AgentDestroyAnnounced",
      "type": "event"
    },
    {
      "anonymous": false,
      "inputs": [
        {
          "indexed": true,
          "internalType": "address",
          "name": "agentVault",
          "type": "address"
        }
      ],
      "name": "AgentDestroyed",
      "type": "event"
    },
    {
      "anonymous": false,
      "inputs": [
        {
          "indexed": true,
          "internalType": "address",
          "name": "agentVault",
          "type": "address"
        },
        {
          "indexed": false,
          "internalType": "uint256",
          "name": "timestamp",
          "type": "uint256"
        }
      ],
      "name": "AgentInCCB",
      "type": "event"
    },
    {
      "anonymous": false,
      "inputs": [
        {
          "indexed": true,
          "internalType": "address",
          "name": "agentVault",
          "type": "address"
        },
        {
          "indexed": false,
          "internalType": "string",
          "name": "name",
          "type": "string"
        },
        {
          "indexed": false,
          "internalType": "uint256",
          "name": "value",
          "type": "uint256"
        },
        {
          "indexed": false,
          "internalType": "uint256",
          "name": "validAt",
          "type": "uint256"
        }
      ],
      "name": "AgentSettingChangeAnnounced",
      "type": "event"
    },
    {
      "anonymous": false,
      "inputs": [
        {
          "indexed": true,
          "internalType": "address",
          "name": "agentVault",
          "type": "address"
        },
        {
          "indexed": false,
          "internalType": "string",
          "name": "name",
          "type": "string"
        },
        {
          "indexed": false,
          "internalType": "uint256",
          "name": "value",
          "type": "uint256"
        }
      ],
      "name": "AgentSettingChanged",
      "type": "event"
    },
    {
      "anonymous": false,
      "inputs": [
        {
          "indexed": true,
          "internalType": "address",
          "name": "owner",
          "type": "address"
        },
        {
          "indexed": true,
          "internalType": "address",
          "name": "agentVault",
          "type": "address"
        },
        {
          "components": [
            {
              "internalType": "address",
              "name": "collateralPool",
              "type": "address"
            },
            {
              "internalType": "address",
              "name": "collateralPoolToken",
              "type": "address"
            },
            {
              "internalType": "string",
              "name": "underlyingAddress",
              "type": "string"
            },
            {
              "internalType": "address",
              "name": "vaultCollateralToken",
              "type": "address"
            },
            {
              "internalType": "address",
              "name": "poolWNatToken",
              "type": "address"
            },
            {
              "internalType": "uint256",
              "name": "feeBIPS",
              "type": "uint256"
            },
            {
              "internalType": "uint256",
              "name": "poolFeeShareBIPS",
              "type": "uint256"
            },
            {
              "internalType": "uint256",
              "name": "mintingVaultCollateralRatioBIPS",
              "type": "uint256"
            },
            {
              "internalType": "uint256",
              "name": "mintingPoolCollateralRatioBIPS",
              "type": "uint256"
            },
            {
              "internalType": "uint256",
              "name": "buyFAssetByAgentFactorBIPS",
              "type": "uint256"
            },
            {
              "internalType": "uint256",
              "name": "poolExitCollateralRatioBIPS",
              "type": "uint256"
            },
            {
              "internalType": "uint256",
              "name": "poolTopupCollateralRatioBIPS",
              "type": "uint256"
            },
            {
              "internalType": "uint256",
              "name": "poolTopupTokenPriceFactorBIPS",
              "type": "uint256"
            },
            {
              "internalType": "uint256",
              "name": "handshakeType",
              "type": "uint256"
            }
          ],
          "indexed": false,
          "internalType": "struct IAssetManagerEvents.AgentVaultCreationData",
          "name": "creationData",
          "type": "tuple"
        }
      ],
      "name": "AgentVaultCreated",
      "type": "event"
    },
    {
      "anonymous": false,
      "inputs": [
        {
          "indexed": true,
          "internalType": "address",
          "name": "agentVault",
          "type": "address"
        },
        {
          "indexed": false,
          "internalType": "uint256",
          "name": "exitAllowedAt",
          "type": "uint256"
        }
      ],
      "name": "AvailableAgentExitAnnounced",
      "type": "event"
    },
    {
      "anonymous": false,
      "inputs": [
        {
          "indexed": true,
          "internalType": "address",
          "name": "agentVault",
          "type": "address"
        }
      ],
      "name": "AvailableAgentExited",
      "type": "event"
    },
    {
      "anonymous": false,
      "inputs": [
        {
          "indexed": false,
          "internalType": "uint8",
          "name": "collateralClass",
          "type": "uint8"
        },
        {
          "indexed": false,
          "internalType": "address",
          "name": "collateralToken",
          "type": "address"
        },
        {
          "indexed": false,
          "internalType": "uint256",
          "name": "minCollateralRatioBIPS",
          "type": "uint256"
        },
        {
          "indexed": false,
          "internalType": "uint256",
          "name": "ccbMinCollateralRatioBIPS",
          "type": "uint256"
        },
        {
          "indexed": false,
          "internalType": "uint256",
          "name": "safetyMinCollateralRatioBIPS",
          "type": "uint256"
        }
      ],
      "name": "CollateralRatiosChanged",
      "type": "event"
    },
    {
      "anonymous": false,
      "inputs": [
        {
          "indexed": true,
          "internalType": "address",
          "name": "agentVault",
          "type": "address"
        },
        {
          "indexed": true,
          "internalType": "address",
          "name": "minter",
          "type": "address"
        },
        {
          "indexed": true,
          "internalType": "uint256",
          "name": "collateralReservationId",
          "type": "uint256"
        }
      ],
      "name": "CollateralReservationCancelled",
      "type": "event"
    },
    {
      "anonymous": false,
      "inputs": [
        {
          "indexed": true,
          "internalType": "address",
          "name": "agentVault",
          "type": "address"
        },
        {
          "indexed": true,
          "internalType": "address",
          "name": "minter",
          "type": "address"
        },
        {
          "indexed": true,
          "internalType": "uint256",
          "name": "collateralReservationId",
          "type": "uint256"
        },
        {
          "indexed": false,
          "internalType": "uint256",
          "name": "reservedAmountUBA",
          "type": "uint256"
        }
      ],
      "name": "CollateralReservationDeleted",
      "type": "event"
    },
    {
      "anonymous": false,
      "inputs": [
        {
          "indexed": true,
          "internalType": "address",
          "name": "agentVault",
          "type": "address"
        },
        {
          "indexed": true,
          "internalType": "address",
          "name": "minter",
          "type": "address"
        },
        {
          "indexed": true,
          "internalType": "uint256",
          "name": "collateralReservationId",
          "type": "uint256"
        }
      ],
      "name": "CollateralReservationRejected",
      "type": "event"
    },
    {
      "anonymous": false,
      "inputs": [
        {
          "indexed": true,
          "internalType": "address",
          "name": "agentVault",
          "type": "address"
        },
        {
          "indexed": true,
          "internalType": "address",
          "name": "minter",
          "type": "address"
        },
        {
          "indexed": true,
          "internalType": "uint256",
          "name": "collateralReservationId",
          "type": "uint256"
        },
        {
          "indexed": false,
          "internalType": "uint256",
          "name": "valueUBA",
          "type": "uint256"
        },
        {
          "indexed": false,
          "internalType": "uint256",
          "name": "feeUBA",
          "type": "uint256"
        },
        {
          "indexed": false,
          "internalType": "uint256",
          "name": "firstUnderlyingBlock",
          "type": "uint256"
        },
        {
          "indexed": false,
          "internalType": "uint256",
          "name": "lastUnderlyingBlock",
          "type": "uint256"
        },
        {
          "indexed": false,
          "internalType": "uint256",
          "name": "lastUnderlyingTimestamp",
          "type": "uint256"
        },
        {
          "indexed": false,
          "internalType": "string",
          "name": "paymentAddress",
          "type": "string"
        },
        {
          "indexed": false,
          "internalType": "bytes32",
          "name": "paymentReference",
          "type": "bytes32"
        },
        {
          "indexed": false,
          "internalType": "address",
          "name": "executor",
          "type": "address"
        },
        {
          "indexed": false,
          "internalType": "uint256",
          "name": "executorFeeNatWei",
          "type": "uint256"
        }
      ],
      "name": "CollateralReserved",
      "type": "event"
    },
    {
      "anonymous": false,
      "inputs": [
        {
          "indexed": false,
          "internalType": "uint8",
          "name": "collateralClass",
          "type": "uint8"
        },
        {
          "indexed": false,
          "internalType": "address",
          "name": "token",
          "type": "address"
        },
        {
          "indexed": false,
          "internalType": "uint256",
          "name": "decimals",
          "type": "uint256"
        },
        {
          "indexed": false,
          "internalType": "bool",
          "name": "directPricePair",
          "type": "bool"
        },
        {
          "indexed": false,
          "internalType": "string",
          "name": "assetFtsoSymbol",
          "type": "string"
        },
        {
          "indexed": false,
          "internalType": "string",
          "name": "tokenFtsoSymbol",
          "type": "string"
        },
        {
          "indexed": false,
          "internalType": "uint256",
          "name": "minCollateralRatioBIPS",
          "type": "uint256"
        },
        {
          "indexed": false,
          "internalType": "uint256",
          "name": "ccbMinCollateralRatioBIPS",
          "type": "uint256"
        },
        {
          "indexed": false,
          "internalType": "uint256",
          "name": "safetyMinCollateralRatioBIPS",
          "type": "uint256"
        }
      ],
      "name": "CollateralTypeAdded",
      "type": "event"
    },
    {
      "anonymous": false,
      "inputs": [
        {
          "indexed": false,
          "internalType": "uint8",
          "name": "collateralClass",
          "type": "uint8"
        },
        {
          "indexed": false,
          "internalType": "address",
          "name": "collateralToken",
          "type": "address"
        },
        {
          "indexed": false,
          "internalType": "uint256",
          "name": "validUntil",
          "type": "uint256"
        }
      ],
      "name": "CollateralTypeDeprecated",
      "type": "event"
    },
    {
      "anonymous": false,
      "inputs": [
        {
          "indexed": false,
          "internalType": "string",
          "name": "name",
          "type": "string"
        },
        {
          "indexed": false,
          "internalType": "address",
          "name": "value",
          "type": "address"
        }
      ],
      "name": "ContractChanged",
      "type": "event"
    },
    {
      "anonymous": false,
      "inputs": [
        {
          "indexed": false,
          "internalType": "uint256",
          "name": "underlyingBlockNumber",
          "type": "uint256"
        },
        {
          "indexed": false,
          "internalType": "uint256",
          "name": "underlyingBlockTimestamp",
          "type": "uint256"
        },
        {
          "indexed": false,
          "internalType": "uint256",
          "name": "updatedAt",
          "type": "uint256"
        }
      ],
      "name": "CurrentUnderlyingBlockUpdated",
      "type": "event"
    },
    {
      "anonymous": false,
      "inputs": [
        {
          "indexed": true,
          "internalType": "address",
          "name": "agentVault",
          "type": "address"
        },
        {
          "indexed": false,
          "internalType": "bytes32",
          "name": "transactionHash1",
          "type": "bytes32"
        },
        {
          "indexed": false,
          "internalType": "bytes32",
          "name": "transactionHash2",
          "type": "bytes32"
        }
      ],
      "name": "DuplicatePaymentConfirmed",
      "type": "event"
    },
    {
      "anonymous": false,
      "inputs": [
        {
          "indexed": true,
          "internalType": "address",
          "name": "agentVault",
          "type": "address"
        },
        {
          "indexed": false,
          "internalType": "uint256",
          "name": "dustUBA",
          "type": "uint256"
        }
      ],
      "name": "DustChanged",
      "type": "event"
    },
    {
      "anonymous": false,
      "inputs": [],
      "name": "EmergencyPauseCanceled",
      "type": "event"
    },
    {
      "anonymous": false,
      "inputs": [
        {
          "indexed": false,
          "internalType": "uint256",
          "name": "pausedUntil",
          "type": "uint256"
        }
      ],
      "name": "EmergencyPauseTriggered",
      "type": "event"
    },
    {
      "anonymous": false,
      "inputs": [
        {
          "indexed": true,
          "internalType": "address",
          "name": "agentVault",
          "type": "address"
        },
        {
          "indexed": false,
          "internalType": "uint256",
          "name": "timestamp",
          "type": "uint256"
        }
      ],
      "name": "FullLiquidationStarted",
      "type": "event"
    },
    {
      "anonymous": false,
      "inputs": [
        {
          "indexed": true,
          "internalType": "address",
          "name": "agentVault",
          "type": "address"
        },
        {
          "indexed": true,
          "internalType": "address",
          "name": "minter",
          "type": "address"
        },
        {
          "indexed": true,
          "internalType": "uint256",
          "name": "collateralReservationId",
          "type": "uint256"
        },
        {
          "indexed": false,
          "internalType": "string[]",
          "name": "minterUnderlyingAddresses",
          "type": "string[]"
        },
        {
          "indexed": false,
          "internalType": "uint256",
          "name": "valueUBA",
          "type": "uint256"
        },
        {
          "indexed": false,
          "internalType": "uint256",
          "name": "feeUBA",
          "type": "uint256"
        }
      ],
      "name": "HandshakeRequired",
      "type": "event"
    },
    {
      "anonymous": false,
      "inputs": [
        {
          "indexed": true,
          "internalType": "address",
          "name": "agentVault",
          "type": "address"
        },
        {
          "indexed": false,
          "internalType": "bytes32",
          "name": "transactionHash",
          "type": "bytes32"
        }
      ],
      "name": "IllegalPaymentConfirmed",
      "type": "event"
    },
    {
      "anonymous": false,
      "inputs": [
        {
          "indexed": true,
          "internalType": "address",
          "name": "agentVault",
          "type": "address"
        }
      ],
      "name": "LiquidationEnded",
      "type": "event"
    },
    {
      "anonymous": false,
      "inputs": [
        {
          "indexed": true,
          "internalType": "address",
          "name": "agentVault",
          "type": "address"
        },
        {
          "indexed": true,
          "internalType": "address",
          "name": "liquidator",
          "type": "address"
        },
        {
          "indexed": false,
          "internalType": "uint256",
          "name": "valueUBA",
          "type": "uint256"
        },
        {
          "indexed": false,
          "internalType": "uint256",
          "name": "paidVaultCollateralWei",
          "type": "uint256"
        },
        {
          "indexed": false,
          "internalType": "uint256",
          "name": "paidPoolCollateralWei",
          "type": "uint256"
        }
      ],
      "name": "LiquidationPerformed",
      "type": "event"
    },
    {
      "anonymous": false,
      "inputs": [
        {
          "indexed": true,
          "internalType": "address",
          "name": "agentVault",
          "type": "address"
        },
        {
          "indexed": false,
          "internalType": "uint256",
          "name": "timestamp",
          "type": "uint256"
        }
      ],
      "name": "LiquidationStarted",
      "type": "event"
    },
    {
      "anonymous": false,
      "inputs": [
        {
          "indexed": true,
          "internalType": "address",
          "name": "agentVault",
          "type": "address"
        },
        {
          "indexed": true,
          "internalType": "uint256",
          "name": "collateralReservationId",
          "type": "uint256"
        },
        {
          "indexed": false,
          "internalType": "uint256",
          "name": "mintedAmountUBA",
          "type": "uint256"
        },
        {
          "indexed": false,
          "internalType": "uint256",
          "name": "agentFeeUBA",
          "type": "uint256"
        },
        {
          "indexed": false,
          "internalType": "uint256",
          "name": "poolFeeUBA",
          "type": "uint256"
        }
      ],
      "name": "MintingExecuted",
      "type": "event"
    },
    {
      "anonymous": false,
      "inputs": [
        {
          "indexed": true,
          "internalType": "address",
          "name": "agentVault",
          "type": "address"
        },
        {
          "indexed": true,
          "internalType": "address",
          "name": "minter",
          "type": "address"
        },
        {
          "indexed": true,
          "internalType": "uint256",
          "name": "collateralReservationId",
          "type": "uint256"
        },
        {
          "indexed": false,
          "internalType": "uint256",
          "name": "reservedAmountUBA",
          "type": "uint256"
        }
      ],
      "name": "MintingPaymentDefault",
      "type": "event"
    },
    {
      "anonymous": false,
      "inputs": [
        {
          "indexed": true,
          "internalType": "address",
          "name": "agentVault",
          "type": "address"
        },
        {
          "indexed": false,
          "internalType": "uint256",
          "name": "amountWei",
          "type": "uint256"
        },
        {
          "indexed": false,
          "internalType": "uint256",
          "name": "withdrawalAllowedAt",
          "type": "uint256"
        }
      ],
      "name": "PoolTokenRedemptionAnnounced",
      "type": "event"
    },
    {
      "anonymous": false,
      "inputs": [
        {
          "indexed": true,
          "internalType": "address",
          "name": "agentVault",
          "type": "address"
        },
        {
          "indexed": true,
          "internalType": "address",
          "name": "redeemer",
          "type": "address"
        },
        {
          "indexed": false,
          "internalType": "uint256",
          "name": "redemptionAmountUBA",
          "type": "uint256"
        },
        {
          "indexed": false,
          "internalType": "uint256",
          "name": "paidVaultCollateralWei",
          "type": "uint256"
        }
      ],
      "name": "RedeemedInCollateral",
      "type": "event"
    },
    {
      "anonymous": false,
      "inputs": [
        {
          "indexed": true,
          "internalType": "address",
          "name": "agentVault",
          "type": "address"
        },
        {
          "indexed": true,
          "internalType": "address",
          "name": "redeemer",
          "type": "address"
        },
        {
          "indexed": true,
          "internalType": "uint64",
          "name": "requestId",
          "type": "uint64"
        },
        {
          "indexed": false,
          "internalType": "uint256",
          "name": "redemptionAmountUBA",
          "type": "uint256"
        },
        {
          "indexed": false,
          "internalType": "uint256",
          "name": "redeemedVaultCollateralWei",
          "type": "uint256"
        },
        {
          "indexed": false,
          "internalType": "uint256",
          "name": "redeemedPoolCollateralWei",
          "type": "uint256"
        }
      ],
      "name": "RedemptionDefault",
      "type": "event"
    },
    {
      "anonymous": false,
      "inputs": [
        {
          "indexed": true,
          "internalType": "address",
          "name": "agentVault",
          "type": "address"
        },
        {
          "indexed": true,
          "internalType": "address",
          "name": "redeemer",
          "type": "address"
        },
        {
          "indexed": true,
          "internalType": "uint64",
          "name": "requestId",
          "type": "uint64"
        },
        {
          "indexed": false,
          "internalType": "bytes32",
          "name": "transactionHash",
          "type": "bytes32"
        },
        {
          "indexed": false,
          "internalType": "uint256",
          "name": "redemptionAmountUBA",
          "type": "uint256"
        },
        {
          "indexed": false,
          "internalType": "int256",
          "name": "spentUnderlyingUBA",
          "type": "int256"
        }
      ],
      "name": "RedemptionPaymentBlocked",
      "type": "event"
    },
    {
      "anonymous": false,
      "inputs": [
        {
          "indexed": true,
          "internalType": "address",
          "name": "agentVault",
          "type": "address"
        },
        {
          "indexed": true,
          "internalType": "address",
          "name": "redeemer",
          "type": "address"
        },
        {
          "indexed": true,
          "internalType": "uint64",
          "name": "requestId",
          "type": "uint64"
        },
        {
          "indexed": false,
          "internalType": "bytes32",
          "name": "transactionHash",
          "type": "bytes32"
        },
        {
          "indexed": false,
          "internalType": "int256",
          "name": "spentUnderlyingUBA",
          "type": "int256"
        },
        {
          "indexed": false,
          "internalType": "string",
          "name": "failureReason",
          "type": "string"
        }
      ],
      "name": "RedemptionPaymentFailed",
      "type": "event"
    },
    {
      "anonymous": false,
      "inputs": [
        {
          "indexed": true,
          "internalType": "address",
          "name": "agentVault",
          "type": "address"
        },
        {
          "indexed": true,
          "internalType": "address",
          "name": "redeemer",
          "type": "address"
        },
        {
          "indexed": true,
          "internalType": "uint64",
          "name": "requestId",
          "type": "uint64"
        },
        {
          "indexed": false,
          "internalType": "bytes32",
          "name": "transactionHash",
          "type": "bytes32"
        },
        {
          "indexed": false,
          "internalType": "uint256",
          "name": "redemptionAmountUBA",
          "type": "uint256"
        },
        {
          "indexed": false,
          "internalType": "int256",
          "name": "spentUnderlyingUBA",
          "type": "int256"
        }
      ],
      "name": "RedemptionPerformed",
      "type": "event"
    },
    {
      "anonymous": false,
      "inputs": [
        {
          "indexed": true,
          "internalType": "address",
          "name": "agentVault",
          "type": "address"
        },
        {
          "indexed": true,
          "internalType": "address",
          "name": "redeemer",
          "type": "address"
        },
        {
          "indexed": true,
          "internalType": "uint64",
          "name": "requestId",
          "type": "uint64"
        },
        {
          "indexed": false,
          "internalType": "uint256",
          "name": "redemptionAmountUBA",
          "type": "uint256"
        }
      ],
      "name": "RedemptionRejected",
      "type": "event"
    },
    {
      "anonymous": false,
      "inputs": [
        {
          "indexed": true,
          "internalType": "address",
          "name": "redeemer",
          "type": "address"
        },
        {
          "indexed": false,
          "internalType": "uint256",
          "name": "remainingLots",
          "type": "uint256"
        }
      ],
      "name": "RedemptionRequestIncomplete",
      "type": "event"
    },
    {
      "anonymous": false,
      "inputs": [
        {
          "indexed": true,
          "internalType": "address",
          "name": "agentVault",
          "type": "address"
        },
        {
          "indexed": true,
          "internalType": "address",
          "name": "redeemer",
          "type": "address"
        },
        {
          "indexed": true,
          "internalType": "uint64",
          "name": "requestId",
          "type": "uint64"
        }
      ],
      "name": "RedemptionRequestRejected",
      "type": "event"
    },
    {
      "anonymous": false,
      "inputs": [
        {
          "indexed": true,
          "internalType": "address",
          "name": "agentVault",
          "type": "address"
        },
        {
          "indexed": true,
          "internalType": "address",
          "name": "redeemer",
          "type": "address"
        },
        {
          "indexed": true,
          "internalType": "uint64",
          "name": "requestId",
          "type": "uint64"
        },
        {
          "indexed": false,
          "internalType": "uint256",
          "name": "valueTakenOverUBA",
          "type": "uint256"
        },
        {
          "indexed": false,
          "internalType": "address",
          "name": "newAgentVault",
          "type": "address"
        },
        {
          "indexed": false,
          "internalType": "uint64",
          "name": "newRequestId",
          "type": "uint64"
        }
      ],
      "name": "RedemptionRequestTakenOver",
      "type": "event"
    },
    {
      "anonymous": false,
      "inputs": [
        {
          "indexed": true,
          "internalType": "address",
          "name": "agentVault",
          "type": "address"
        },
        {
          "indexed": true,
          "internalType": "address",
          "name": "redeemer",
          "type": "address"
        },
        {
          "indexed": true,
          "internalType": "uint256",
          "name": "requestId",
          "type": "uint256"
        },
        {
          "indexed": false,
          "internalType": "string",
          "name": "paymentAddress",
          "type": "string"
        },
        {
          "indexed": false,
          "internalType": "uint256",
          "name": "valueUBA",
          "type": "uint256"
        },
        {
          "indexed": false,
          "internalType": "uint256",
          "name": "feeUBA",
          "type": "uint256"
        },
        {
          "indexed": false,
          "internalType": "uint256",
          "name": "firstUnderlyingBlock",
          "type": "uint256"
        },
        {
          "indexed": false,
          "internalType": "uint256",
          "name": "lastUnderlyingBlock",
          "type": "uint256"
        },
        {
          "indexed": false,
          "internalType": "uint256",
          "name": "lastUnderlyingTimestamp",
          "type": "uint256"
        },
        {
          "indexed": false,
          "internalType": "bytes32",
          "name": "paymentReference",
          "type": "bytes32"
        },
        {
          "indexed": false,
          "internalType": "address",
          "name": "executor",
          "type": "address"
        },
        {
          "indexed": false,
          "internalType": "uint256",
          "name": "executorFeeNatWei",
          "type": "uint256"
        }
      ],
      "name": "RedemptionRequested",
      "type": "event"
    },
    {
      "anonymous": false,
      "inputs": [
        {
          "indexed": true,
          "internalType": "address",
          "name": "agentVault",
          "type": "address"
        },
        {
          "indexed": true,
          "internalType": "uint256",
          "name": "redemptionTicketId",
          "type": "uint256"
        },
        {
          "indexed": false,
          "internalType": "uint256",
          "name": "ticketValueUBA",
          "type": "uint256"
        }
      ],
      "name": "RedemptionTicketCreated",
      "type": "event"
    },
    {
      "anonymous": false,
      "inputs": [
        {
          "indexed": true,
          "internalType": "address",
          "name": "agentVault",
          "type": "address"
        },
        {
          "indexed": true,
          "internalType": "uint256",
          "name": "redemptionTicketId",
          "type": "uint256"
        }
      ],
      "name": "RedemptionTicketDeleted",
      "type": "event"
    },
    {
      "anonymous": false,
      "inputs": [
        {
          "indexed": true,
          "internalType": "address",
          "name": "agentVault",
          "type": "address"
        },
        {
          "indexed": true,
          "internalType": "uint256",
          "name": "redemptionTicketId",
          "type": "uint256"
        },
        {
          "indexed": false,
          "internalType": "uint256",
          "name": "ticketValueUBA",
          "type": "uint256"
        }
      ],
      "name": "RedemptionTicketUpdated",
      "type": "event"
    },
    {
      "anonymous": false,
      "inputs": [
        {
          "indexed": true,
          "internalType": "address",
          "name": "agentVault",
          "type": "address"
        },
        {
          "indexed": false,
          "internalType": "uint256",
          "name": "valueUBA",
          "type": "uint256"
        }
      ],
      "name": "SelfClose",
      "type": "event"
    },
    {
      "anonymous": false,
      "inputs": [
        {
          "indexed": true,
          "internalType": "address",
          "name": "agentVault",
          "type": "address"
        },
        {
          "indexed": false,
          "internalType": "bool",
          "name": "mintFromFreeUnderlying",
          "type": "bool"
        },
        {
          "indexed": false,
          "internalType": "uint256",
          "name": "mintedAmountUBA",
          "type": "uint256"
        },
        {
          "indexed": false,
          "internalType": "uint256",
          "name": "depositedAmountUBA",
          "type": "uint256"
        },
        {
          "indexed": false,
          "internalType": "uint256",
          "name": "poolFeeUBA",
          "type": "uint256"
        }
      ],
      "name": "SelfMint",
      "type": "event"
    },
    {
      "anonymous": false,
      "inputs": [
        {
          "indexed": false,
          "internalType": "string",
          "name": "name",
          "type": "string"
        },
        {
          "indexed": false,
          "internalType": "uint256[]",
          "name": "value",
          "type": "uint256[]"
        }
      ],
      "name": "SettingArrayChanged",
      "type": "event"
    },
    {
      "anonymous": false,
      "inputs": [
        {
          "indexed": false,
          "internalType": "string",
          "name": "name",
          "type": "string"
        },
        {
          "indexed": false,
          "internalType": "uint256",
          "name": "value",
          "type": "uint256"
        }
      ],
      "name": "SettingChanged",
      "type": "event"
    },
    {
      "anonymous": false,
      "inputs": [
        {
          "indexed": false,
          "internalType": "uint256",
          "name": "nextTransferFeeMillionths",
          "type": "uint256"
        },
        {
          "indexed": false,
          "internalType": "uint256",
          "name": "scheduledAt",
          "type": "uint256"
        }
      ],
      "name": "TransferFeeChangeScheduled",
      "type": "event"
    },
    {
      "anonymous": false,
      "inputs": [
        {
          "indexed": true,
          "internalType": "address",
          "name": "agentVault",
          "type": "address"
        },
        {
          "indexed": false,
          "internalType": "address",
          "name": "recipient",
          "type": "address"
        },
        {
          "indexed": false,
          "internalType": "uint256",
          "name": "agentClaimedUBA",
          "type": "uint256"
        },
        {
          "indexed": false,
          "internalType": "uint256",
          "name": "poolClaimedUBA",
          "type": "uint256"
        },
        {
          "indexed": false,
          "internalType": "uint256",
          "name": "remainingUnclaimedEpochs",
          "type": "uint256"
        }
      ],
      "name": "TransferFeesClaimed",
      "type": "event"
    },
    {
      "anonymous": false,
      "inputs": [
        {
          "indexed": true,
          "internalType": "address",
          "name": "agentVault",
          "type": "address"
        },
        {
          "indexed": false,
          "internalType": "int256",
          "name": "underlyingBalanceUBA",
          "type": "int256"
        }
      ],
      "name": "UnderlyingBalanceChanged",
      "type": "event"
    },
    {
      "anonymous": false,
      "inputs": [
        {
          "indexed": true,
          "internalType": "address",
          "name": "agentVault",
          "type": "address"
        },
        {
          "indexed": false,
          "internalType": "int256",
          "name": "balance",
          "type": "int256"
        },
        {
          "indexed": false,
          "internalType": "uint256",
          "name": "requiredBalance",
          "type": "uint256"
        }
      ],
      "name": "UnderlyingBalanceTooLow",
      "type": "event"
    },
    {
      "anonymous": false,
      "inputs": [
        {
          "indexed": true,
          "internalType": "address",
          "name": "agentVault",
          "type": "address"
        },
        {
          "indexed": false,
          "internalType": "bytes32",
          "name": "transactionHash",
          "type": "bytes32"
        },
        {
          "indexed": false,
          "internalType": "uint256",
          "name": "depositedUBA",
          "type": "uint256"
        }
      ],
      "name": "UnderlyingBalanceToppedUp",
      "type": "event"
    },
    {
      "anonymous": false,
      "inputs": [
        {
          "indexed": true,
          "internalType": "address",
          "name": "agentVault",
          "type": "address"
        },
        {
          "indexed": true,
          "internalType": "uint64",
          "name": "announcementId",
          "type": "uint64"
        },
        {
          "indexed": false,
          "internalType": "bytes32",
          "name": "paymentReference",
          "type": "bytes32"
        }
      ],
      "name": "UnderlyingWithdrawalAnnounced",
      "type": "event"
    },
    {
      "anonymous": false,
      "inputs": [
        {
          "indexed": true,
          "internalType": "address",
          "name": "agentVault",
          "type": "address"
        },
        {
          "indexed": true,
          "internalType": "uint64",
          "name": "announcementId",
          "type": "uint64"
        }
      ],
      "name": "UnderlyingWithdrawalCancelled",
      "type": "event"
    },
    {
      "anonymous": false,
      "inputs": [
        {
          "indexed": true,
          "internalType": "address",
          "name": "agentVault",
          "type": "address"
        },
        {
          "indexed": true,
          "internalType": "uint64",
          "name": "announcementId",
          "type": "uint64"
        },
        {
          "indexed": false,
          "internalType": "int256",
          "name": "spentUBA",
          "type": "int256"
        },
        {
          "indexed": false,
          "internalType": "bytes32",
          "name": "transactionHash",
          "type": "bytes32"
        }
      ],
      "name": "UnderlyingWithdrawalConfirmed",
      "type": "event"
    },
    {
      "anonymous": false,
      "inputs": [
        {
          "indexed": true,
          "internalType": "address",
          "name": "agentVault",
          "type": "address"
        },
        {
          "indexed": false,
          "internalType": "uint256",
          "name": "amountWei",
          "type": "uint256"
        },
        {
          "indexed": false,
          "internalType": "uint256",
          "name": "withdrawalAllowedAt",
          "type": "uint256"
        }
      ],
      "name": "VaultCollateralWithdrawalAnnounced",
      "type": "event"
    },
    {
      "inputs": [
        {
          "internalType": "address",
          "name": "_agentVault",
          "type": "address"
        },
        {
          "internalType": "uint256",
          "name": "_maxEpochsToClaim",
          "type": "uint256"
        }
      ],
      "name": "agentTransferFeeShare",
      "outputs": [
        {
          "internalType": "uint256",
          "name": "_feeShareUBA",
          "type": "uint256"
        }
      ],
      "stateMutability": "view",
      "type": "function"
    },
    {
      "inputs": [
        {
          "internalType": "address",
          "name": "_agentVault",
          "type": "address"
        },
        {
          "internalType": "uint256",
          "name": "_epoch",
          "type": "uint256"
        }
      ],
      "name": "agentTransferFeeShareForEpoch",
      "outputs": [
        {
          "internalType": "uint256",
          "name": "",
          "type": "uint256"
        }
      ],
      "stateMutability": "view",
      "type": "function"
    },
    {
      "inputs": [
        {
          "internalType": "address",
          "name": "_agentVault",
          "type": "address"
        }
      ],
      "name": "agentUnclaimedTransferFeeEpochs",
      "outputs": [
        {
          "internalType": "uint256",
          "name": "_first",
          "type": "uint256"
        },
        {
          "internalType": "uint256",
          "name": "_count",
          "type": "uint256"
        }
      ],
      "stateMutability": "view",
      "type": "function"
    },
    {
      "inputs": [
        {
          "internalType": "address",
          "name": "_agentVault",
          "type": "address"
        },
        {
          "internalType": "address",
          "name": "_recipient",
          "type": "address"
        },
        {
          "internalType": "uint256",
          "name": "_maxEpochsToClaim",
          "type": "uint256"
        }
      ],
      "name": "claimTransferFees",
      "outputs": [
        {
          "internalType": "uint256",
          "name": "_agentClaimedUBA",
          "type": "uint256"
        },
        {
          "internalType": "uint256",
          "name": "_poolClaimedUBA",
          "type": "uint256"
        },
        {
          "internalType": "uint256",
          "name": "_remainingUnclaimedEpochs",
          "type": "uint256"
        }
      ],
      "stateMutability": "nonpayable",
      "type": "function"
    },
    {
      "inputs": [],
      "name": "currentTransferFeeEpoch",
      "outputs": [
        {
          "internalType": "uint256",
          "name": "",
          "type": "uint256"
        }
      ],
      "stateMutability": "view",
      "type": "function"
    },
    {
      "inputs": [
        {
          "internalType": "uint256",
          "name": "_fee",
          "type": "uint256"
        }
      ],
      "name": "fassetTransferFeePaid",
      "outputs": [],
      "stateMutability": "nonpayable",
      "type": "function"
    },
    {
      "inputs": [],
      "name": "firstClaimableTransferFeeEpoch",
      "outputs": [
        {
          "internalType": "uint256",
          "name": "",
          "type": "uint256"
        }
      ],
      "stateMutability": "view",
      "type": "function"
    },
    {
      "inputs": [
        {
          "internalType": "address[]",
          "name": "_agentVaults",
          "type": "address[]"
        }
      ],
      "name": "initAgentsMintingHistory",
      "outputs": [],
      "stateMutability": "nonpayable",
      "type": "function"
    },
    {
      "inputs": [
        {
          "internalType": "uint256",
          "name": "_transferFeeMillionths",
          "type": "uint256"
        },
        {
          "internalType": "uint256",
          "name": "_firstEpochStartTs",
          "type": "uint256"
        },
        {
          "internalType": "uint256",
          "name": "_epochDuration",
          "type": "uint256"
        },
        {
          "internalType": "uint256",
          "name": "_maxUnexpiredEpochs",
          "type": "uint256"
        }
      ],
      "name": "initTransferFeeFacet",
      "outputs": [],
      "stateMutability": "nonpayable",
      "type": "function"
    },
    {
      "inputs": [
        {
          "internalType": "uint256",
          "name": "_value",
          "type": "uint256"
        },
        {
          "internalType": "uint256",
          "name": "_scheduledAt",
          "type": "uint256"
        }
      ],
      "name": "setTransferFeeMillionths",
      "outputs": [],
      "stateMutability": "nonpayable",
      "type": "function"
    },
    {
      "inputs": [
        {
          "internalType": "address",
          "name": "_agentVault",
          "type": "address"
        },
        {
          "internalType": "uint256",
          "name": "_epoch",
          "type": "uint256"
        }
      ],
      "name": "transferFeeCalculationDataForAgent",
      "outputs": [
        {
          "components": [
            {
              "internalType": "uint256",
              "name": "totalFees",
              "type": "uint256"
            },
            {
              "internalType": "uint256",
              "name": "cumulativeMinted",
              "type": "uint256"
            },
            {
              "internalType": "uint256",
              "name": "totalCumulativeMinted",
              "type": "uint256"
            },
            {
              "internalType": "bool",
              "name": "claimable",
              "type": "bool"
            },
            {
              "internalType": "bool",
              "name": "claimed",
              "type": "bool"
            }
          ],
          "internalType": "struct ITransferFees.TransferFeeCalculationDataForAgent",
          "name": "",
          "type": "tuple"
        }
      ],
      "stateMutability": "view",
      "type": "function"
    },
    {
      "inputs": [
        {
          "internalType": "uint256",
          "name": "_epoch",
          "type": "uint256"
        }
      ],
      "name": "transferFeeEpochData",
      "outputs": [
        {
          "components": [
            {
              "internalType": "uint256",
              "name": "startTs",
              "type": "uint256"
            },
            {
              "internalType": "uint256",
              "name": "endTs",
              "type": "uint256"
            },
            {
              "internalType": "uint256",
              "name": "totalFees",
              "type": "uint256"
            },
            {
              "internalType": "uint256",
              "name": "claimedFees",
              "type": "uint256"
            },
            {
              "internalType": "bool",
              "name": "claimable",
              "type": "bool"
            },
            {
              "internalType": "bool",
              "name": "expired",
              "type": "bool"
            }
          ],
          "internalType": "struct ITransferFees.TransferFeeEpochData",
          "name": "",
          "type": "tuple"
        }
      ],
      "stateMutability": "view",
      "type": "function"
    },
    {
      "inputs": [],
      "name": "transferFeeMillionths",
      "outputs": [
        {
          "internalType": "uint256",
          "name": "",
          "type": "uint256"
        }
      ],
      "stateMutability": "view",
      "type": "function"
    },
    {
      "inputs": [],
      "name": "transferFeeSettings",
      "outputs": [
        {
          "components": [
            {
              "internalType": "uint256",
              "name": "transferFeeMillionths",
              "type": "uint256"
            },
            {
              "internalType": "uint256",
              "name": "firstEpochStartTs",
              "type": "uint256"
            },
            {
              "internalType": "uint256",
              "name": "epochDuration",
              "type": "uint256"
            },
            {
              "internalType": "uint256",
              "name": "maxUnexpiredEpochs",
              "type": "uint256"
            },
            {
              "internalType": "uint256",
              "name": "firstClaimableEpoch",
              "type": "uint256"
            }
          ],
          "internalType": "struct ITransferFees.TransferFeeSettings",
          "name": "",
          "type": "tuple"
        }
      ],
      "stateMutability": "view",
      "type": "function"
    }
  ],
  "bytecode": "0x608060405234801561001057600080fd5b50612541806100206000396000f3fe608060405234801561001057600080fd5b50600436106100ea5760003560e01c80635a38e03f1161008c578063b706b3cc11610066578063b706b3cc14610270578063f051952e14610283578063f6bda95d146102dc578063fc52f16d1461030a57600080fd5b80635a38e03f146101dc57806361359fcb14610226578063842f87c01461023957600080fd5b806332076117116100c85780633207611714610191578063367b11cf146101995780633ba60fb1146101ac5780633cc0b064146101b457600080fd5b80631111862b146100ef5780631be754e11461015b5780632824fc7e1461017c575b600080fd5b6101026100fd3660046121bc565b61031d565b6040516101529190600060c0820190508251825260208301516020830152604083015160408301526060830151606083015260808301511515608083015260a0830151151560a083015292915050565b60405180910390f35b61016e6101693660046121ea565b61040b565b604051908152602001610152565b61018f61018a366004612216565b610430565b005b61016e610594565b61016e6101a73660046121ea565b6105b4565b61016e610644565b6101c76101c2366004612238565b610659565b60408051928352602083019190915201610152565b6101e4610707565b6040516101529190600060a082019050825182526020830151602083015260408301516040830152606083015160608301526080830151608083015292915050565b61018f610234366004612255565b6107b0565b7f341c6685fdb8ed7133465b64f545b9fbc5699a59cbd1ad98992e5c070a74c51454600160c01b90046001600160401b031661016e565b61018f61027e3660046122c9565b61086e565b6102966102913660046121ea565b6109eb565b6040516101529190600060a08201905082518252602083015160208301526040830151604083015260608301511515606083015260808301511515608083015292915050565b6102ef6102ea3660046122fb565b610aed565b60408051938452602084019290925290820152606001610152565b61018f6103183660046121bc565b610d19565b61035a6040518060c00160405280600081526020016000815260200160008152602001600081526020016000151581526020016000151581525090565b6040805160c081019091526000805160206124ec83398151915290806103808386610dc0565b815260200161039a610393866001612352565b8490610dc0565b815260008581526002840160208181526040808420546001600160801b0380821684880152948a905292909152600160801b909104909116908201526060016103e38386610e02565b151581526003909201546001600160401b03600160c01b909104169093106020909101525090565b60006000805160206124ec833981519152610427818585610e36565b50949350505050565b610438610ee8565b610440610f65565b600061044a61105c565b63ffffffff169050620f42408311156104a65760405162461bcd60e51b81526020600482015260196024820152780dad2d8d8d2dedce8d0e640ecc2d8eaca40e8dede40d0d2ced603b1b60448201526064015b60405180910390fd5b6104b1816004612365565b6104bd906103e8612352565b8311156104ff5760405162461bcd60e51b815260206004820152601060248201526f696e63726561736520746f6f2062696760801b604482015260640161049d565b61050a600482612392565b83101561054c5760405162461bcd60e51b815260206004820152601060248201526f646563726561736520746f6f2062696760801b604482015260640161049d565b61055683836110d0565b60408051848152602081018490527f4cb6e1e3604f0d8f53b729aca897d431dd051f3f93d382ac9b4baea1e3baa9b9910160405180910390a1505050565b60006000805160206124ec8339815191526105ae8161119b565b91505090565b6001600160a01b03821660009081527f341c6685fdb8ed7133465b64f545b9fbc5699a59cbd1ad98992e5c070a74c515602052604081206000805160206124ec83398151915290826106068386610e02565b801561061f575060028201546001600160401b03168510155b90508061062d576000610638565b6106388383876111ca565b93505050505b92915050565b600061064e61105c565b63ffffffff16905090565b6001600160a01b03811660009081527f341c6685fdb8ed7133465b64f545b9fbc5699a59cbd1ad98992e5c070a74c5156020526040812060028101547f341c6685fdb8ed7133465b64f545b9fbc5699a59cbd1ad98992e5c070a74c5145483926000805160206124ec8339815191529290916106e8916001600160401b0390811691600160c01b90041661123c565b9350836106f48361119b565b6106fe91906123a6565b92505050915091565b6107396040518060a0016040528060008152602001600081526020016000815260200160008152602001600081525090565b60006000805160206124ec83398151915290506040518060a0016040528061075f61105c565b63ffffffff1681526003909201546001600160401b038082166020850152600160401b820481166040850152600160801b820481166060850152600160c01b90910416608090920191909152919050565b6000805160206124ec83398151915260005b828110156108685760006107fb8585848181106107e1576107e16123b9565b90506020020160208101906107f69190612238565b611252565b6005810154909150600160401b90046001600160401b03161561085f5761085f85858481811061082d5761082d6123b9565b90506020020160208101906108429190612238565b6005830154859190600160401b90046001600160401b03166112f9565b506001016107c2565b50505050565b6301ffc9a760e01b6000527fc8fcad8db84d3cc18b4c41d551ea0ee66dd599cde068d998e57d5e09332c131e6020527f673a26ab9c976db950bbe987aa80c5e387f329563bb0afe093ddccc970489e31547fc8fcad8db84d3cc18b4c41d551ea0ee66dd599cde068d998e57d5e09332c131c9060ff166109305760405162461bcd60e51b815260206004820152601760248201527f6469616d6f6e64206e6f7420696e697469616c697a6564000000000000000000604482015260640161049d565b636454d49360e01b60009081526002820160205260409020805460ff19166001179055620f42408511156109a25760405162461bcd60e51b81526020600482015260196024820152780dad2d8d8d2dedce8d0e640ecc2d8eaca40e8dede40d0d2ced603b1b604482015260640161049d565b6109ad8560006110d0565b6000805160206124ec8339815191526109e36109c88661133c565b6109d18661133c565b6109da8661133c565b849291906113a8565b505050505050565b610a216040518060a001604052806000815260200160008152602001600081526020016000151581526020016000151581525090565b6001600160a01b03831660009081527f341c6685fdb8ed7133465b64f545b9fbc5699a59cbd1ad98992e5c070a74c515602052604081206000805160206124ec83398151915291610a728386610e02565b6040805160a0810182526000888152600287016020908152929020546001600160801b031681529192508101610aa985858961142f565b8152602001610ab985808961142f565b81526020018215158152602001828015610adf575060028401546001600160401b031687105b151590529695505050505050565b600080600085610afc81611462565b6000805160206124ec833981519152600080610b19838b8a6114b9565b915091506000610b288b611252565b90506000610b5d7f4f24f5c433db0962dac0d2c8b84197a6e6c7cc4e5d9ebe1916a1b6193da2f33b546001600160a01b031690565b6004830154909150610b7b908590600160581b900461ffff166115eb565b9750610b8788856123a6565b604051631cb8f94f60e01b81526001600160a01b038d8116600483015260248201839052919a50939750879390821690631cb8f94f90604401600060405180830381600087803b158015610bda57600080fd5b505af1158015610bee573d6000803e3d6000fd5b50508354604051631cb8f94f60e01b81526001600160a01b039182166004820152602481018c90529084169250631cb8f94f9150604401600060405180830381600087803b158015610c3f57600080fd5b505af1158015610c53573d6000803e3d6000fd5b5050835460405163542a535160e11b8152600481018c90526001600160a01b03909116925063a854a6a29150602401600060405180830381600087803b158015610c9c57600080fd5b505af1158015610cb0573d6000803e3d6000fd5b5050604080516001600160a01b038f81168252602082018e90529181018c905260608101879052908f1692507fe4b337ad6dc4f119046c145811cbcf40d8b0073fc94049b74c44032c9ed1995a915060800160405180910390a250505050505093509350939050565b7f4f24f5c433db0962dac0d2c8b84197a6e6c7cc4e5d9ebe1916a1b6193da2f33b547f4f24f5c433db0962dac0d2c8b84197a6e6c7cc4e5d9ebe1916a1b6193da2f33a906001600160a01b03163314610da25760405162461bcd60e51b815260206004820152600b60248201526a1bdb9b1e4811905cdcd95d60aa1b604482015260640161049d565b6000805160206124ec833981519152610dbb81846115fa565b505050565b6003820154600090610de3908390600160401b90046001600160401b0316612365565b6003840154610dfb91906001600160401b0316612352565b9392505050565b6003820154600090600160c01b90046001600160401b03168210801590610dfb5750610e2d8361119b565b90911092915050565b6001600160a01b03821660009081526004840160205260408120819081610e5c8761119b565b60028301546003890154919250600091610e89916001600160401b0390811691600160c01b90041661123c565b90506000610ea083610e9b8985612352565b61166c565b600096509050815b81811015610ecf57610ebb8a86836111ca565b610ec59088612352565b9650600101610ea8565b50610eda81846123a6565b945050505050935093915050565b7f4f24f5c433db0962dac0d2c8b84197a6e6c7cc4e5d9ebe1916a1b6193da2f33a80546001600160a01b03163314610f625760405162461bcd60e51b815260206004820152601d60248201527f6f6e6c79206173736574206d616e6167657220636f6e74726f6c6c6572000000604482015260640161049d565b50565b600080356001600160e01b0319168082527fc6aafbe0f74bbe68eec7559401d7d311a092b5c4d8feb0452323e4ba73d8d8d160208190526040909220547f4f24f5c433db0962dac0d2c8b84197a6e6c7cc4e5d9ebe1916a1b6193da2f33a9190801580610ff057506011830154610fec90600160801b90046001600160401b031682612352565b4210155b61103c5760405162461bcd60e51b815260206004820152601c60248201527f746f6f20636c6f736520746f2070726576696f75732075706461746500000000604482015260640161049d565b506001600160e01b03191660009081526020929092525060409020429055565b7f341c6685fdb8ed7133465b64f545b9fbc5699a59cbd1ad98992e5c070a74c510805460009190600160401b90046001600160401b03168281158015906110a35750428211155b9050806110b757825463ffffffff166110c8565b8254640100000000900463ffffffff165b935050505090565b7f341c6685fdb8ed7133465b64f545b9fbc5699a59cbd1ad98992e5c070a74c510428211156111755761110161105c565b815463ffffffff191663ffffffff9190911617815561111f8361167b565b815463ffffffff919091166401000000000267ffffffff000000001990911617815561114a8261167b565b81546fffffffffffffffff0000000000000000191663ffffffff91909116600160401b021790555050565b61117e8361167b565b81546001600160801b03191663ffffffff91909116178155505050565b60038101546000906001600160401b03600160401b82048116916111c09116426123a6565b61063e9190612392565b60008181526002840160205260408120816111e686868661142f565b905060006111f587808761142f565b905080821115611207576112076123cf565b8160000361121b5760009350505050610dfb565b8254611231906001600160801b031683836116e0565b979650505050505050565b600081831161124b5781610dfb565b5090919050565b7f5bebac0595fee029d42bb673937f5f1cb81cf8641382bc17774635de9b7d796568010000000000000000600160e01b03604083901b161880600060048084015460ff16908111156112a6576112a66123e5565b036112f35760405162461bcd60e51b815260206004820152601b60248201527f696e76616c6964206167656e74207661756c7420616464726573730000000000604482015260640161049d565b50919050565b6001600160a01b0382166000908152600484016020526040812060018101549091600160401b9091046001600160401b0316900361086857610868848484611806565b60006001600160401b038211156113a45760405162461bcd60e51b815260206004820152602660248201527f53616665436173743a2076616c756520646f65736e27742066697420696e203660448201526534206269747360d01b606482015260840161049d565b5090565b6003840180546001600160401b03838116600160801b0267ffffffffffffffff60801b19868316600160401b026001600160801b03199094169288169290921792909217161790556114016113fc8561119b565b61133c565b8460030160186101000a8154816001600160401b0302191690836001600160401b0316021790555050505050565b600061145a61143e8584610dc0565b6114528661144d866001612352565b610dc0565b85919061186f565b949350505050565b61147461146e82611252565b336118f1565b610f625760405162461bcd60e51b815260206004820152601660248201527537b7363c9030b3b2b73a103b30bab63a1037bbb732b960511b604482015260640161049d565b6001600160a01b038216600090815260048401602052604081208190816114df8761119b565b6002830154600389015491925060009161150c916001600160401b0390811691600160c01b90041661123c565b9050600061151e83610e9b8985612352565b600096509050815b818110156115b457600061153b8b87846111ca565b90506115478189612352565b9750611552816119c2565b600083815260028d01602052604090208054601090611582908490600160801b90046001600160801b03166123fb565b92506101000a8154816001600160801b0302191690836001600160801b03160217905550508080600101915050611526565b506115be8161133c565b60028501805467ffffffffffffffff19166001600160401b0392909216919091179055610eda81846123a6565b6000610dfb83836127106116e0565b60006116058361119b565b90506116118382611a2b565b61161a826119c2565b6000828152600285016020526040812080549091906116439084906001600160801b03166123fb565b92506101000a8154816001600160801b0302191690836001600160801b03160217905550505050565b600081831061124b5781610dfb565b600063ffffffff8211156113a45760405162461bcd60e51b815260206004820152602660248201527f53616665436173743a2076616c756520646f65736e27742066697420696e203360448201526532206269747360d01b606482015260840161049d565b60008082116117245760405162461bcd60e51b815260206004820152601060248201526f4469766973696f6e206279207a65726f60801b604482015260640161049d565b8360000361173457506000610dfb565b838302838582816117475761174761237c565b04036117655782818161175c5761175c61237c565b04915050610dfb565b5060006117728386612392565b90506000611780848761241b565b9050600061178e8587612392565b9050600061179c868861241b565b9050856117a98285612365565b6117b39190612392565b6117bd8385612365565b6117c78387612365565b886117d28689612365565b6117dc9190612365565b6117e69190612352565b6117f09190612352565b6117fa9190612352565b98975050505050505050565b6001600160a01b038216600090815260048401602052604081209061182a82611af2565b9050600061183786611af2565b9050611844834286611b8d565b6118654283611853878561242f565b61185d919061244f565b889190611b8d565b6109e38684611efe565b6000818311156118d35760405162461bcd60e51b815260206004820152602960248201527f54696d6543756d756c61746976653a20696e74657276616c20656e64206265666044820152681bdc99481cdd185c9d60ba1b606482015260840161049d565b6118dd8484611f3b565b6118e78584611f3b565b61145a91906123a6565b60018201546000906001600160a01b0390811690831681148061145a57507f4f24f5c433db0962dac0d2c8b84197a6e6c7cc4e5d9ebe1916a1b6193da2f341546001600160a01b0316604051631f86345d60e31b81526001600160a01b038381166004830152919091169063fc31a2e890602401602060405180830381865afa158015611982573d6000803e3d6000fd5b505050506040513d601f19601f820116820180604052508101906119a6919061246f565b6001600160a01b0316836001600160a01b031614949350505050565b60006001600160801b038211156113a45760405162461bcd60e51b815260206004820152602760248201527f53616665436173743a2076616c756520646f65736e27742066697420696e20316044820152663238206269747360c81b606482015260840161049d565b60038201546001600160401b03600160c01b82048116918391611a5691600160801b90041683612352565b1015610dbb57600081815260028401602052604090208054611a8a906001600160801b03600160801b82048116911661248c565b600084815260028601602052604081208054909190611ab39084906001600160801b03166123fb565b82546001600160801b039182166101009390930a9283029190920219909116179055506000828152600285016020526040812055611401826001612352565b6001810154600090600160401b90046001600160401b03168103611b1857506000919050565b60018201546001600160401b03808216600160401b9092041611611b3e57611b3e6123cf565b6001828101548391600091611b639190600160401b90046001600160401b031661244f565b6001600160401b039081168252602082019290925260400160002054600160c01b90041692915050565b6001830154600160401b90046001600160401b0316600003611cac5760018301546001600160401b031615611bc457611bc46123cf565b604051806060016040528060006001600160801b03168152602001611be88461133c565b6001600160401b0390811682528381166020909201919091526001850180548692600092600160401b90920416906008611c21836124ac565b82546001600160401b039182166101009390930a92830292820219169190911790915590811682526020808301939093526040918201600020845181549486015195909301518216600160c01b026001600160c01b0395909216600160801b026001600160c01b03199094166001600160801b03909316929092179290921792909216179055505050565b60018301546001600160401b03808216600160401b9092041611611cd257611cd26123cf565b60018381015460009185918391611cf891600160401b90046001600160401b031661244f565b6001600160401b03908116825260208201929092526040016000208054909250600160801b900416839003611d4a5780546001600160c01b0316600160c01b6001600160401b03841602178155610868565b8054600160801b90046001600160401b03168311611dbb5760405162461bcd60e51b815260206004820152602860248201527f54696d6543756d756c61746976653a2074696d657374616d70206e6f7420696e6044820152676372656173696e6760c01b606482015260840161049d565b8054600090611dda90600160801b90046001600160401b0316856123a6565b8254611df69190600160c01b90046001600160401b0316612365565b8254611e0b91906001600160801b0316612352565b90506040518060600160405280611e21836119c2565b6001600160801b03168152602001611e388661133c565b6001600160401b0390811682528581166020909201919091526001870180548892600092600160401b90920416906008611e71836124ac565b82546001600160401b039182166101009390930a92830292820219169190911790915590811682526020808301939093526040918201600020845181549486015195909301518216600160c01b026001600160c01b0395909216600160801b026001600160c01b03199094166001600160801b039093169290921792909217929092161790555050505050565b6003820154600090611f21908490600160c01b90046001600160401b0316610dc0565b9050611f2f8282600261202e565b610dbb8382600261202e565b600080611f4884846120ff565b90506000198103611fc35760018401546001600160401b031615611fb95760405162461bcd60e51b815260206004820152602260248201527f54696d6543756d756c61746976653a20616c726561647920636c65616e656420604482015261075760f41b606482015260840161049d565b600091505061063e565b60008181526020859052604090208054611fed90600160801b90046001600160401b0316856123a6565b81546120099190600160c01b90046001600160401b0316612365565b815461201e91906001600160801b0316612352565b9250505061063e565b5092915050565b60018301546001600160401b0380821691600160401b90041660005b8381108015612062575081612060846001612352565b105b801561209b575084866000612078866001612352565b8152602081019190915260400160002054600160801b90046001600160401b0316105b156120ca576000838152602087905260408120556120b8836124d2565b92506120c3816124d2565b905061204a565b6120d38361133c565b600196909601805467ffffffffffffffff19166001600160401b03909716969096179095555050505050565b60018201546000906001600160401b0380821691600160401b90041680821015806121475750600082815260208690526040902054600160801b90046001600160401b031684105b15612158576000199250505061063e565b612163826001612352565b8111156121b457600060016121788385612352565b901c600081815260208890526040902054909150600160801b90046001600160401b031685106121aa578092506121ae565b8091505b50612158565b509392505050565b6000602082840312156121ce57600080fd5b5035919050565b6001600160a01b0381168114610f6257600080fd5b600080604083850312156121fd57600080fd5b8235612208816121d5565b946020939093013593505050565b6000806040838503121561222957600080fd5b50508035926020909101359150565b60006020828403121561224a57600080fd5b8135610dfb816121d5565b6000806020838503121561226857600080fd5b82356001600160401b038082111561227f57600080fd5b818501915085601f83011261229357600080fd5b8135818111156122a257600080fd5b8660208260051b85010111156122b757600080fd5b60209290920196919550909350505050565b600080600080608085870312156122df57600080fd5b5050823594602084013594506040840135936060013592509050565b60008060006060848603121561231057600080fd5b833561231b816121d5565b9250602084013561232b816121d5565b929592945050506040919091013590565b634e487b7160e01b600052601160045260246000fd5b8082018082111561063e5761063e61233c565b808202811582820484141761063e5761063e61233c565b634e487b7160e01b600052601260045260246000fd5b6000826123a1576123a161237c565b500490565b8181038181111561063e5761063e61233c565b634e487b7160e01b600052603260045260246000fd5b634e487b7160e01b600052600160045260246000fd5b634e487b7160e01b600052602160045260246000fd5b6001600160801b038181168382160190808211156120275761202761233c565b60008261242a5761242a61237c565b500690565b6001600160401b038181168382160190808211156120275761202761233c565b6001600160401b038281168282160390808211156120275761202761233c565b60006020828403121561248157600080fd5b8151610dfb816121d5565b6001600160801b038281168282160390808211156120275761202761233c565b60006001600160401b038083168181036124c8576124c861233c565b6001019392505050565b6000600182016124e4576124e461233c565b506001019056fe341c6685fdb8ed7133465b64f545b9fbc5699a59cbd1ad98992e5c070a74c511a2646970667358221220dc9e987961bb7a58db1c654476fac8bfb38d0bd94d7f302d2a418778ed2993d164736f6c63430008170033",
  "linkReferences": {},
  "deployedLinkReferences": {}
}