{
  "_format": "hh-sol-artifact-1",
  "contractName": "RedemptionQueueMock",
  "sourceName": "contracts/assetManager/library/mock/RedemptionQueueMock.sol",
  "abi": [
    {
      "inputs": [
        {
          "internalType": "address",
          "name": "_agentVault",
          "type": "address"
        },
        {
          "internalType": "uint64",
          "name": "_valueAMG",
          "type": "uint64"
        }
      ],
      "name": "createRedemptionTicket",
      "outputs": [
        {
          "internalType": "uint64",
          "name": "",
          "type": "uint64"
        }
      ],
      "stateMutability": "nonpayable",
      "type": "function"
    },
    {
      "inputs": [
        {
          "internalType": "uint64",
          "name": "_ticketId",
          "type": "uint64"
        }
      ],
      "name": "deleteRedemptionTicket",
      "outputs": [],
      "stateMutability": "nonpayable",
      "type": "function"
    },
    {
      "inputs": [
        {
          "internalType": "uint64",
          "name": "_id",
          "type": "uint64"
        }
      ],
      "name": "getTicket",
      "outputs": [
        {
          "components": [
            {
              "internalType": "address",
              "name": "agentVault",
              "type": "address"
            },
            {
              "internalType": "uint64",
              "name": "valueAMG",
              "type": "uint64"
            },
            {
              "internalType": "uint64",
              "name": "prev",
              "type": "uint64"
            },
            {
              "internalType": "uint64",
              "name": "next",
              "type": "uint64"
            },
            {
              "internalType": "uint64",
              "name": "prevForAgent",
              "type": "uint64"
            },
            {
              "internalType": "uint64",
              "name": "nextForAgent",
              "type": "uint64"
            }
          ],
          "internalType": "struct RedemptionQueue.Ticket",
          "name": "",
          "type": "tuple"
        }
      ],
      "stateMutability": "view",
      "type": "function"
    }
  ],
  "bytecode": "0x608060405234801561001057600080fd5b50610ab5806100206000396000f3fe608060405234801561001057600080fd5b50600436106100415760003560e01c806303c461ce146100465780633e578e721461005b57806352bcacc91461018d575b600080fd5b6100596100543660046109d9565b6101b8565b005b61011f6100693660046109d9565b6040805160c08101825260008082526020808301829052828401829052606083018290526080830182905260a083018290526001600160401b0385168252819052919091206040805160c08101825282546001600160a01b03811682526001600160401b03600160a01b9091048116602083015260019093015480841692820192909252600160401b820483166060820152600160801b820483166080820152600160c01b90910490911660a082015292915050565b604051610184919081516001600160a01b031681526020808301516001600160401b039081169183019190915260408084015182169083015260608084015182169083015260808084015182169083015260a092830151169181019190915260c00190565b60405180910390f35b6101a061019b3660046109f4565b6101c6565b6040516001600160401b039091168152602001610184565b6101c36000826101da565b50565b60006101d38184846105b4565b9392505050565b6001600160401b038116600090815260208390526040902080546001600160a01b031661020957610209610a35565b80546001600160a01b031660009081526001808501602052604082209083015490916001600160401b03909116900361028f5760028401546001600160401b0384811691161461025b5761025b610a35565b6001820154600285018054600160401b9092046001600160401b031667ffffffffffffffff199092169190911790556102f7565b60028401546001600160401b03908116908416036102af576102af610a35565b6001828101546001600160401b038082166000908152602088905260409020909201805467ffffffffffffffff60401b1916600160401b928390049093169091029190911790555b6001820154600160401b90046001600160401b031660000361036e5760028401546001600160401b03848116600160401b909204161461033957610339610a35565b600182015460028501805467ffffffffffffffff60401b19166001600160401b03909216600160401b029190911790556103d6565b60028401546001600160401b03600160401b90910481169084160361039557610395610a35565b600180830154600160401b81046001600160401b039081166000908152602088905260409020909201805467ffffffffffffffff1916929091169190911790555b6001820154600160801b90046001600160401b031660000361043b5780546001600160401b0384811691161461040e5761040e610a35565b60018201548154600160c01b9091046001600160401b031667ffffffffffffffff199091161781556104a1565b80546001600160401b039081169084160361045857610458610a35565b6001828101546001600160401b03600160801b82048116600090815260208890526040902090920180546001600160c01b0316600160c01b928390049093169091029190911790555b6001820154600160c01b90046001600160401b03166000036105145780546001600160401b03848116600160401b90920416146104e0576104e0610a35565b6001820154815467ffffffffffffffff60401b1916600160801b9091046001600160401b0316600160401b02178155610586565b80546001600160401b03600160401b90910481169084160361053857610538610a35565b6001828101546001600160401b03600160c01b820481166000908152602088905260409020909201805467ffffffffffffffff60801b1916600160801b928390049093169091029190911790555b50506001600160401b031660009081526020919091526040812080546001600160e01b031916815560010155565b6001600160a01b038216600090815260018401602052604081206002850180548391906010906105f390600160801b90046001600160401b0316610a4b565b91906101000a8154816001600160401b0302191690836001600160401b03160217905590506040518060c00160405280866001600160a01b03168152602001856001600160401b031681526020018760020160089054906101000a90046001600160401b03166001600160401b0316815260200160006001600160401b031681526020018360000160089054906101000a90046001600160401b03166001600160401b0316815260200160006001600160401b0316815250866000016000836001600160401b03166001600160401b0316815260200190815260200160002060008201518160000160006101000a8154816001600160a01b0302191690836001600160a01b0316021790555060208201518160000160146101000a8154816001600160401b0302191690836001600160401b0316021790555060408201518160010160006101000a8154816001600160401b0302191690836001600160401b0316021790555060608201518160010160086101000a8154816001600160401b0302191690836001600160401b0316021790555060808201518160010160106101000a8154816001600160401b0302191690836001600160401b0316021790555060a08201518160010160186101000a8154816001600160401b0302191690836001600160401b031602179055509050508560020160009054906101000a90046001600160401b03166001600160401b0316600003610850576002860154600160401b90046001600160401b03161561082d5761082d610a35565b60028601805467ffffffffffffffff19166001600160401b0383161790556108b8565b6002860154600160401b90046001600160401b031660000361087457610874610a35565b6002860154600160401b908190046001600160401b039081166000908152602089905260409020600101805467ffffffffffffffff60401b19169184169092021790555b6002860180546001600160401b03808416600160401b0267ffffffffffffffff60401b199092169190911790915582541660000361092e578154600160401b90046001600160401b03161561090f5761090f610a35565b815467ffffffffffffffff19166001600160401b038216178255610991565b8154600160401b90046001600160401b031660000361094f5761094f610a35565b81546001600160401b03600160401b909104811660009081526020889052604090206001018054918316600160c01b026001600160c01b039092169190911790555b815467ffffffffffffffff60401b1916600160401b6001600160401b0383160217909155949350505050565b80356001600160401b03811681146109d457600080fd5b919050565b6000602082840312156109eb57600080fd5b6101d3826109bd565b60008060408385031215610a0757600080fd5b82356001600160a01b0381168114610a1e57600080fd5b9150610a2c602084016109bd565b90509250929050565b634e487b7160e01b600052600160045260246000fd5b60006001600160401b03808316818103610a7557634e487b7160e01b600052601160045260246000fd5b600101939250505056fea264697066735822122056fe115c11581c1b654831142762e941550b1ded00dfc3f4b35261303c7f862764736f6c63430008170033",
  "linkReferences": {},
  "deployedLinkReferences": {}
}