{
  "_format": "hh-sol-artifact-1",
  "contractName": "Whitelist",
  "sourceName": "contracts/fasset/implementation/Whitelist.sol",
  "abi": [
    {
      "inputs": [
        {
          "internalType": "contract IGovernanceSettings",
          "name": "_governanceSettings",
          "type": "address"
        },
        {
          "internalType": "address",
          "name": "_initialGovernance",
          "type": "address"
        },
        {
          "internalType": "bool",
          "name": "_supportsRevoke",
          "type": "bool"
        }
      ],
      "stateMutability": "nonpayable",
      "type": "constructor"
    },
    {
      "anonymous": false,
      "inputs": [
        {
          "indexed": false,
          "internalType": "bytes",
          "name": "encodedCall",
          "type": "bytes"
        },
        {
          "indexed": false,
          "internalType": "bytes32",
          "name": "encodedCallHash",
          "type": "bytes32"
        },
        {
          "indexed": false,
          "internalType": "uint256",
          "name": "allowedAfterTimestamp",
          "type": "uint256"
        }
      ],
      "name": "GovernanceCallTimelocked",
      "type": "event"
    },
    {
      "anonymous": false,
      "inputs": [
        {
          "indexed": false,
          "internalType": "address",
          "name": "initialGovernance",
          "type": "address"
        }
      ],
      "name": "GovernanceInitialised",
      "type": "event"
    },
    {
      "anonymous": false,
      "inputs": [
        {
          "indexed": false,
          "internalType": "address",
          "name": "governanceSettings",
          "type": "address"
        }
      ],
      "name": "GovernedProductionModeEntered",
      "type": "event"
    },
    {
      "anonymous": false,
      "inputs": [
        {
          "indexed": false,
          "internalType": "bytes32",
          "name": "encodedCallHash",
          "type": "bytes32"
        }
      ],
      "name": "TimelockedGovernanceCallCanceled",
      "type": "event"
    },
    {
      "anonymous": false,
      "inputs": [
        {
          "indexed": false,
          "internalType": "bytes32",
          "name": "encodedCallHash",
          "type": "bytes32"
        }
      ],
      "name": "TimelockedGovernanceCallExecuted",
      "type": "event"
    },
    {
      "anonymous": false,
      "inputs": [
        {
          "indexed": false,
          "internalType": "address",
          "name": "value",
          "type": "address"
        }
      ],
      "name": "Whitelisted",
      "type": "event"
    },
    {
      "anonymous": false,
      "inputs": [
        {
          "indexed": false,
          "internalType": "address",
          "name": "value",
          "type": "address"
        }
      ],
      "name": "WhitelistingRevoked",
      "type": "event"
    },
    {
      "inputs": [
        {
          "internalType": "address",
          "name": "_address",
          "type": "address"
        }
      ],
      "name": "addAddressToWhitelist",
      "outputs": [],
      "stateMutability": "nonpayable",
      "type": "function"
    },
    {
      "inputs": [
        {
          "internalType": "address[]",
          "name": "_addresses",
          "type": "address[]"
        }
      ],
      "name": "addAddressesToWhitelist",
      "outputs": [],
      "stateMutability": "nonpayable",
      "type": "function"
    },
    {
      "inputs": [],
      "name": "allowAll",
      "outputs": [
        {
          "internalType": "bool",
          "name": "",
          "type": "bool"
        }
      ],
      "stateMutability": "view",
      "type": "function"
    },
    {
      "inputs": [
        {
          "internalType": "bytes",
          "name": "_encodedCall",
          "type": "bytes"
        }
      ],
      "name": "cancelGovernanceCall",
      "outputs": [],
      "stateMutability": "nonpayable",
      "type": "function"
    },
    {
      "inputs": [
        {
          "internalType": "bytes",
          "name": "_encodedCall",
          "type": "bytes"
        }
      ],
      "name": "executeGovernanceCall",
      "outputs": [],
      "stateMutability": "nonpayable",
      "type": "function"
    },
    {
      "inputs": [],
      "name": "governance",
      "outputs": [
        {
          "internalType": "address",
          "name": "",
          "type": "address"
        }
      ],
      "stateMutability": "view",
      "type": "function"
    },
    {
      "inputs": [],
      "name": "governanceSettings",
      "outputs": [
        {
          "internalType": "contract IGovernanceSettings",
          "name": "",
          "type": "address"
        }
      ],
      "stateMutability": "view",
      "type": "function"
    },
    {
      "inputs": [
        {
          "internalType": "contract IGovernanceSettings",
          "name": "_governanceSettings",
          "type": "address"
        },
        {
          "internalType": "address",
          "name": "_initialGovernance",
          "type": "address"
        }
      ],
      "name": "initialise",
      "outputs": [],
      "stateMutability": "nonpayable",
      "type": "function"
    },
    {
      "inputs": [
        {
          "internalType": "address",
          "name": "_address",
          "type": "address"
        }
      ],
      "name": "isExecutor",
      "outputs": [
        {
          "internalType": "bool",
          "name": "",
          "type": "bool"
        }
      ],
      "stateMutability": "view",
      "type": "function"
    },
    {
      "inputs": [
        {
          "internalType": "address",
          "name": "_address",
          "type": "address"
        }
      ],
      "name": "isWhitelisted",
      "outputs": [
        {
          "internalType": "bool",
          "name": "",
          "type": "bool"
        }
      ],
      "stateMutability": "view",
      "type": "function"
    },
    {
      "inputs": [],
      "name": "productionMode",
      "outputs": [
        {
          "internalType": "bool",
          "name": "",
          "type": "bool"
        }
      ],
      "stateMutability": "view",
      "type": "function"
    },
    {
      "inputs": [
        {
          "internalType": "address",
          "name": "_address",
          "type": "address"
        }
      ],
      "name": "revokeAddress",
      "outputs": [],
      "stateMutability": "nonpayable",
      "type": "function"
    },
    {
      "inputs": [
        {
          "internalType": "bool",
          "name": "_allowAll",
          "type": "bool"
        }
      ],
      "name": "setAllowAll",
      "outputs": [],
      "stateMutability": "nonpayable",
      "type": "function"
    },
    {
      "inputs": [
        {
          "internalType": "bytes4",
          "name": "_interfaceId",
          "type": "bytes4"
        }
      ],
      "name": "supportsInterface",
      "outputs": [
        {
          "internalType": "bool",
          "name": "",
          "type": "bool"
        }
      ],
      "stateMutability": "pure",
      "type": "function"
    },
    {
      "inputs": [],
      "name": "supportsRevoke",
      "outputs": [
        {
          "internalType": "bool",
          "name": "",
          "type": "bool"
        }
      ],
      "stateMutability": "view",
      "type": "function"
    },
    {
      "inputs": [],
      "name": "switchToProductionMode",
      "outputs": [],
      "stateMutability": "nonpayable",
      "type": "function"
    }
  ],
  "bytecode": "0x60a06040523480156200001157600080fd5b506040516200136d3803806200136d83398101604081905262000034916200020d565b82826200004282826200005b565b5050151560805250506000805460ff1916905562000265565b7f2aa47ee5db910f3b2a06970c443249cc77dbd9f96100cfebc1775ab7fb1d18248054600160a01b900460ff1615620000db5760405162461bcd60e51b815260206004820152601460248201527f696e697469616c6973656420213d2066616c736500000000000000000000000060448201526064015b60405180910390fd5b6001600160a01b038316620001335760405162461bcd60e51b815260206004820152601860248201527f676f7665726e616e63652073657474696e6773207a65726f00000000000000006044820152606401620000d2565b6001600160a01b0382166200017e5760405162461bcd60e51b815260206004820152601060248201526f5f676f7665726e616e6365207a65726f60801b6044820152606401620000d2565b80546001600160a01b038481166001600160a81b031990921691909117600160a01b1782556001820180549184166001600160a01b0319909216821790556040519081527f9789733827840833afc031fb2ef9ab6894271f77bad2085687cf4ae5c7bee4db9060200160405180910390a1505050565b6001600160a01b03811681146200020a57600080fd5b50565b6000806000606084860312156200022357600080fd5b83516200023081620001f4565b60208501519093506200024381620001f4565b604085015190925080151581146200025a57600080fd5b809150509250925092565b6080516110e5620002886000396000818161015a015261059801526110e56000f3fe608060405234801561001057600080fd5b50600436106101005760003560e01c80635aa6e67511610097578063e17f212e11610066578063e17f212e14610226578063e2ec6ec314610245578063ef88bf1314610258578063f5a983831461026b57600080fd5b80635aa6e675146101c257806362354e03146101e25780637b9417c814610200578063debfda301461021357600080fd5b8063317a7aec116100d3578063317a7aec1461017c5780633af32abf1461018f5780634d7d9c01146101a25780634ee643a5146101b557600080fd5b806301ffc9a71461010557806316fc2f6d1461012d57806320c5f99d146101425780632583e7f714610155575b600080fd5b610118610113366004610d82565b610273565b60405190151581526020015b60405180910390f35b61014061013b366004610dac565b6102aa565b005b610140610150366004610dac565b610392565b6101187f000000000000000000000000000000000000000000000000000000000000000081565b61014061018a366004610e43565b610581565b61011861019d366004610e43565b610613565b6101406101b0366004610e6e565b610641565b6000546101189060ff1681565b6101ca610667565b6040516001600160a01b039091168152602001610124565b600080516020611090833981519152546001600160a01b03166101ca565b61014061020e366004610e43565b610710565b610118610221366004610e43565b610721565b60008051602061109083398151915254600160a81b900460ff16610118565b610140610253366004610ea1565b6107bb565b610140610266366004610f66565b6107fd565b610140610971565b60006001600160e01b031982166301ffc9a760e01b14806102a457506001600160e01b03198216633af32abf60e01b145b92915050565b6102b2610a46565b604051600080516020611090833981519152906000906102d59085908590610f9f565b60405180910390209050816002016000828152602001908152602001600020546000036103495760405162461bcd60e51b815260206004820152601a60248201527f74696d656c6f636b3a20696e76616c69642073656c6563746f7200000000000060448201526064015b60405180910390fd5b6040518181527f69b058d6225c01c1f2a25801ca5b05705fa2e9118e93d518390ba804398c87b19060200160405180910390a16000908152600290910160205260408120555050565b6000805160206110908339815191526103aa33610721565b6103e65760405162461bcd60e51b815260206004820152600d60248201526c37b7363c9032bc32b1baba37b960991b6044820152606401610340565b600083836040516103f8929190610f9f565b604080519182900390912060008181526002850160205291822054909250908190036104665760405162461bcd60e51b815260206004820152601a60248201527f74696d656c6f636b3a20696e76616c69642073656c6563746f720000000000006044820152606401610340565b804210156104b65760405162461bcd60e51b815260206004820152601960248201527f74696d656c6f636b3a206e6f7420616c6c6f77656420796574000000000000006044820152606401610340565b6000828152600284016020526040808220829055845460ff60b01b1916600160b01b1785555130906104eb9088908890610f9f565b6000604051808303816000865af19150503d8060008114610528576040519150601f19603f3d011682016040523d82523d6000602084013e61052d565b606091505b5050845460ff60b01b191685556040518481529091507fec1225e5a8a8acb91e03ce648c683c74f5d152a775b9715980999441d714c44f9060200160405180910390a161057981610aa2565b505050505050565b610589610abf565b1561060657610596610af5565b7f00000000000000000000000000000000000000000000000000000000000000006105fa5760405162461bcd60e51b81526020600482015260146024820152731c995d9bdad9481b9bdd081cdd5c1c1bdc9d195960621b6044820152606401610340565b61060381610b39565b50565b6106036000366000610bad565b6001600160a01b03811660009081526001602052604081205460ff16806102a4575060005460ff1692915050565b610649610abf565b1561060657610656610af5565b6000805460ff191682151517905550565b600080516020611090833981519152805460009190600160a81b900460ff1661069d5760018101546001600160a01b031661070a565b805460408051631cc9492560e21b815290516001600160a01b03909216916373252494916004808201926020929091908290030181865afa1580156106e6573d6000803e3d6000fd5b505050506040513d601f19601f8201168201806040525081019061070a9190610faf565b91505090565b610718610a46565b61060381610cc4565b600080516020611090833981519152805460009190600160a01b900460ff1680156107b457508054604051630debfda360e41b81526001600160a01b0385811660048301529091169063debfda3090602401602060405180830381865afa158015610790573d6000803e3d6000fd5b505050506040513d601f19601f820116820180604052508101906107b49190610fcc565b9392505050565b6107c3610a46565b60005b81518110156107f9576107f18282815181106107e4576107e4610fe9565b6020026020010151610cc4565b6001016107c6565b5050565b6000805160206110908339815191528054600160a01b900460ff161561085c5760405162461bcd60e51b8152602060048201526014602482015273696e697469616c6973656420213d2066616c736560601b6044820152606401610340565b6001600160a01b0383166108b25760405162461bcd60e51b815260206004820152601860248201527f676f7665726e616e63652073657474696e6773207a65726f00000000000000006044820152606401610340565b6001600160a01b0382166108fb5760405162461bcd60e51b815260206004820152601060248201526f5f676f7665726e616e6365207a65726f60801b6044820152606401610340565b80546001600160a01b038481166001600160a81b031990921691909117600160a01b1782556001820180549184166001600160a01b0319909216821790556040519081527f9789733827840833afc031fb2ef9ab6894271f77bad2085687cf4ae5c7bee4db9060200160405180910390a1505050565b610979610a46565b6000805160206110908339815191528054600160a81b900460ff16156109e15760405162461bcd60e51b815260206004820152601a60248201527f616c726561647920696e2070726f64756374696f6e206d6f64650000000000006044820152606401610340565b6001810180546001600160a01b03191690558054600160a81b60ff60a81b1982161782556040516001600160a01b0390911681527f83af113638b5422f9e977cebc0aaf0eaf2188eb9a8baae7f9d46c42b33a1560c906020015b60405180910390a150565b610a4e610667565b6001600160a01b0316336001600160a01b031614610aa05760405162461bcd60e51b815260206004820152600f60248201526e6f6e6c7920676f7665726e616e636560881b6044820152606401610340565b565b3d604051818101604052816000823e8215610abb578181f35b8181fd5b600080516020611090833981519152805460009190600160b01b900460ff168061070a575054600160a81b900460ff1615919050565b6000805160206110908339815191528054600160b01b900460ff1615610b3157333014610b2457610b24610fff565b805460ff60b01b19169055565b610603610a46565b6001600160a01b03811660009081526001602052604090205460ff16610b5c5750565b6001600160a01b038116600081815260016020908152604091829020805460ff1916905590519182527fe01091cddc91f5497c62b6d5b4ae6514036739c2528f0463485236065e1eba4a9101610a3b565b600080516020611090833981519152610bc4610a46565b60008484604051610bd6929190610f9f565b604080519182900382208454636221a54b60e01b845291519093506000926001600160a01b0390921691636221a54b9160048083019260209291908290030181865afa158015610c2a573d6000803e3d6000fd5b505050506040513d601f19601f82011682018060405250810190610c4e9190611015565b905083811015610c5b5750825b6000610c67824261102e565b600084815260028601602052604090819020829055519091507f8c02104dfc280f713854f25297de671710c544c58de69dbde8fb66974ce1ab9e90610cb390899089908790869061104f565b60405180910390a150505050505050565b6001600160a01b038116610d095760405162461bcd60e51b815260206004820152600c60248201526b61646472657373207a65726f60a01b6044820152606401610340565b6001600160a01b03811660009081526001602052604090205460ff1615610d2d5750565b6001600160a01b038116600081815260016020818152604092839020805460ff191690921790915590519182527faab7954e9d246b167ef88aeddad35209ca2489d95a8aeb59e288d9b19fae5a549101610a3b565b600060208284031215610d9457600080fd5b81356001600160e01b0319811681146107b457600080fd5b60008060208385031215610dbf57600080fd5b823567ffffffffffffffff80821115610dd757600080fd5b818501915085601f830112610deb57600080fd5b813581811115610dfa57600080fd5b866020828501011115610e0c57600080fd5b60209290920196919550909350505050565b6001600160a01b038116811461060357600080fd5b8035610e3e81610e1e565b919050565b600060208284031215610e5557600080fd5b81356107b481610e1e565b801515811461060357600080fd5b600060208284031215610e8057600080fd5b81356107b481610e60565b634e487b7160e01b600052604160045260246000fd5b60006020808385031215610eb457600080fd5b823567ffffffffffffffff80821115610ecc57600080fd5b818501915085601f830112610ee057600080fd5b813581811115610ef257610ef2610e8b565b8060051b604051601f19603f83011681018181108582111715610f1757610f17610e8b565b604052918252848201925083810185019188831115610f3557600080fd5b938501935b82851015610f5a57610f4b85610e33565b84529385019392850192610f3a565b98975050505050505050565b60008060408385031215610f7957600080fd5b8235610f8481610e1e565b91506020830135610f9481610e1e565b809150509250929050565b8183823760009101908152919050565b600060208284031215610fc157600080fd5b81516107b481610e1e565b600060208284031215610fde57600080fd5b81516107b481610e60565b634e487b7160e01b600052603260045260246000fd5b634e487b7160e01b600052600160045260246000fd5b60006020828403121561102757600080fd5b5051919050565b808201808211156102a457634e487b7160e01b600052601160045260246000fd5b606081528360608201528385608083013760006080858301015260006080601f19601f87011683010190508360208301528260408301529594505050505056fe2aa47ee5db910f3b2a06970c443249cc77dbd9f96100cfebc1775ab7fb1d1824a2646970667358221220b4cb18c2a587c08c97aa560414e943fe5fae5ca80b84c8bfd891930d21a4e43664736f6c63430008170033",
  "linkReferences": {},
  "deployedLinkReferences": {}
}