{
  "_format": "hh-sol-artifact-1",
  "contractName": "Liquidator",
  "sourceName": "liquidator/contracts/Liquidator.sol",
  "abi": [
    {
      "inputs": [
        {
          "internalType": "contract IERC3156FlashLender",
          "name": "_flashLender",
          "type": "address"
        },
        {
          "internalType": "contract IBlazeSwapRouter",
          "name": "_blazeSwapRouter",
          "type": "address"
        }
      ],
      "stateMutability": "nonpayable",
      "type": "constructor"
    },
    {
      "anonymous": false,
      "inputs": [
        {
          "indexed": true,
          "internalType": "address",
          "name": "previousOwner",
          "type": "address"
        },
        {
          "indexed": true,
          "internalType": "address",
          "name": "newOwner",
          "type": "address"
        }
      ],
      "name": "OwnershipTransferred",
      "type": "event"
    },
    {
      "inputs": [],
      "name": "blazeSwapRouter",
      "outputs": [
        {
          "internalType": "contract IBlazeSwapRouter",
          "name": "",
          "type": "address"
        }
      ],
      "stateMutability": "view",
      "type": "function"
    },
    {
      "inputs": [],
      "name": "flashLender",
      "outputs": [
        {
          "internalType": "contract IERC3156FlashLender",
          "name": "",
          "type": "address"
        }
      ],
      "stateMutability": "view",
      "type": "function"
    },
    {
      "inputs": [
        {
          "internalType": "address",
          "name": "",
          "type": "address"
        },
        {
          "internalType": "address",
          "name": "_token",
          "type": "address"
        },
        {
          "internalType": "uint256",
          "name": "_amount",
          "type": "uint256"
        },
        {
          "internalType": "uint256",
          "name": "_fee",
          "type": "uint256"
        },
        {
          "internalType": "bytes",
          "name": "_data",
          "type": "bytes"
        }
      ],
      "name": "onFlashLoan",
      "outputs": [
        {
          "internalType": "bytes32",
          "name": "",
          "type": "bytes32"
        }
      ],
      "stateMutability": "nonpayable",
      "type": "function"
    },
    {
      "inputs": [],
      "name": "owner",
      "outputs": [
        {
          "internalType": "address",
          "name": "",
          "type": "address"
        }
      ],
      "stateMutability": "view",
      "type": "function"
    },
    {
      "inputs": [],
      "name": "renounceOwnership",
      "outputs": [],
      "stateMutability": "nonpayable",
      "type": "function"
    },
    {
      "inputs": [
        {
          "internalType": "contract IIAgentVault",
          "name": "_agentVault",
          "type": "address"
        }
      ],
      "name": "runArbitrage",
      "outputs": [],
      "stateMutability": "nonpayable",
      "type": "function"
    },
    {
      "inputs": [
        {
          "internalType": "contract IIAgentVault",
          "name": "_agentVault",
          "type": "address"
        },
        {
          "internalType": "contract IERC3156FlashLender",
          "name": "_flashLender",
          "type": "address"
        },
        {
          "internalType": "contract IBlazeSwapRouter",
          "name": "_blazeSwapRouter",
          "type": "address"
        }
      ],
      "name": "runArbitrageWithCustomParams",
      "outputs": [],
      "stateMutability": "nonpayable",
      "type": "function"
    },
    {
      "inputs": [
        {
          "internalType": "address",
          "name": "newOwner",
          "type": "address"
        }
      ],
      "name": "transferOwnership",
      "outputs": [],
      "stateMutability": "nonpayable",
      "type": "function"
    },
    {
      "inputs": [],
      "name": "withderawNat",
      "outputs": [],
      "stateMutability": "nonpayable",
      "type": "function"
    },
    {
      "inputs": [
        {
          "internalType": "contract IERC20",
          "name": "token",
          "type": "address"
        }
      ],
      "name": "withdrawToken",
      "outputs": [],
      "stateMutability": "nonpayable",
      "type": "function"
    }
  ],
  "bytecode": "0x60c06040523480156200001157600080fd5b506040516200337b3803806200337b8339810160408190526200003491620000c0565b6200003f3362000057565b6001600160a01b039182166080521660a052620000ff565b600080546001600160a01b038381166001600160a01b0319831681178455604051919092169283917f8be0079c531659141344cd1fd0a4f28419497f9722a3daafe3b4186f6b6457e09190a35050565b6001600160a01b0381168114620000bd57600080fd5b50565b60008060408385031215620000d457600080fd5b8251620000e181620000a7565b6020840151909250620000f481620000a7565b809150509250929050565b60805160a051613242620001396000396000818160c8015261053e0152600081816101890152818161051d01526112cd01526132426000f3fe608060405234801561001057600080fd5b50600436106100be5760003560e01c80638947606911610076578063a52507a71161005b578063a52507a714610171578063a771445814610184578063f2fde38b146101ab57600080fd5b8063894760691461014d5780638da5cb5b1461016057600080fd5b80632491576f116100a75780632491576f146101285780633895f78614610132578063715018a61461014557600080fd5b80630b1f2e64146100c357806323e30c8b14610107575b600080fd5b6100ea7f000000000000000000000000000000000000000000000000000000000000000081565b6040516001600160a01b0390911681526020015b60405180910390f35b61011a61011536600461222b565b6101be565b6040519081526020016100fe565b6101306104d2565b005b6101306101403660046122d5565b610517565b610130610562565b61013061015b3660046122d5565b610576565b6000546001600160a01b03166100ea565b61013061017f3660046122f2565b6106ab565b6100ea7f000000000000000000000000000000000000000000000000000000000000000081565b6101306101b93660046122d5565b6106c3565b6000600160005474010000000000000000000000000000000000000000900460ff1660028111156101f1576101f161233d565b14610283576040517f08c379a000000000000000000000000000000000000000000000000000000000815260206004820152602d60248201527f4c697175696461746f723a20466c617368206c6f616e207769746820696e766160448201527f6c696420696e69746961746f720000000000000000000000000000000000000060648201526084015b60405180910390fd5b60008054740200000000000000000000000000000000000000007fffffffffffffffffffffff00ffffffffffffffffffffffffffffffffffffffff9091161790556040517f70a0823100000000000000000000000000000000000000000000000000000000815230600482015285906001600160a01b038816906370a0823190602401602060405180830381865afa158015610323573d6000803e3d6000fd5b505050506040513d601f19601f82011682018060405250810190610347919061236c565b146103d4576040517f08c379a000000000000000000000000000000000000000000000000000000000815260206004820152602760248201527f4c697175696461746f723a20496e636f727265637420666c617368206c6f616e60448201527f20616d6f756e7400000000000000000000000000000000000000000000000000606482015260840161027a565b6000808080806103e687890189612385565b945094509450945094506103ff8a868d8787878761076a565b6001600160a01b038b1663095ea7b3336104198c8e612425565b6040517fffffffff0000000000000000000000000000000000000000000000000000000060e085901b1681526001600160a01b03909216600483015260248201526044016020604051808303816000875af115801561047c573d6000803e3d6000fd5b505050506040513d601f19601f820116820180604052508101906104a0919061244d565b507f439148f0bbc682ca079e46d6e2c2f0c1e3b820f1a291b069d8882abf8cf18dd99c9b505050505050505050505050565b6104da610b6e565b600080546040516001600160a01b03909116914780156108fc02929091818181858888f19350505050158015610514573d6000803e3d6000fd5b50565b610514817f00000000000000000000000000000000000000000000000000000000000000007f00000000000000000000000000000000000000000000000000000000000000006106ab565b61056a610b6e565b6105746000610be2565b565b61057e610b6e565b806001600160a01b031663a9059cbb61059f6000546001600160a01b031690565b6040517f70a082310000000000000000000000000000000000000000000000000000000081523060048201526001600160a01b038516906370a0823190602401602060405180830381865afa1580156105fc573d6000803e3d6000fd5b505050506040513d601f19601f82011682018060405250810190610620919061236c565b6040517fffffffff0000000000000000000000000000000000000000000000000000000060e085901b1681526001600160a01b03909216600483015260248201526044016020604051808303816000875af1158015610683573d6000803e3d6000fd5b505050506040513d601f19601f820116820180604052508101906106a7919061244d565b5050565b6106be6106b9848385610c4a565b611125565b505050565b6106cb610b6e565b6001600160a01b038116610761576040517f08c379a000000000000000000000000000000000000000000000000000000000815260206004820152602660248201527f4f776e61626c653a206e6577206f776e657220697320746865207a65726f206160448201527f6464726573730000000000000000000000000000000000000000000000000000606482015260840161027a565b61051481610be2565b6040517f095ea7b30000000000000000000000000000000000000000000000000000000081526001600160a01b038281166004830152602482018990526060919087169063095ea7b3906044016020604051808303816000875af11580156107d6573d6000803e3d6000fd5b505050506040513d601f19601f820116820180604052508101906107fa919061244d565b50816001600160a01b03166338ed17398960006108178a8c611891565b30426040518663ffffffff1660e01b8152600401610839959493929190612468565b6000604051808303816000875af1158015610858573d6000803e3d6000fd5b505050506040513d6000823e601f3d908101601f191682016040526108809190810190612620565b6040517f095ea7b30000000000000000000000000000000000000000000000000000000081526001600160a01b03858116600483015260006024830152919350908816915063095ea7b3906044016020604051808303816000875af11580156108ed573d6000803e3d6000fd5b505050506040513d601f19601f82011682018060405250810190610911919061244d565b506000846001600160a01b031663bcbaf487858460018151811061093757610937612684565b60200260200101516040518363ffffffff1660e01b81526004016109709291906001600160a01b03929092168252602082015260400190565b6060604051808303816000875af115801561098f573d6000803e3d6000fd5b505050506040513d601f19601f820116820180604052508101906109b391906126b3565b92505081159050610b63576040517f095ea7b30000000000000000000000000000000000000000000000000000000081526001600160a01b0384811660048301526024820183905287169063095ea7b3906044016020604051808303816000875af1158015610a26573d6000803e3d6000fd5b505050506040513d601f19601f82011682018060405250810190610a4a919061244d565b50826001600160a01b03166338ed1739826000610a678a8c611891565b30426040518663ffffffff1660e01b8152600401610a89959493929190612468565b6000604051808303816000875af1158015610aa8573d6000803e3d6000fd5b505050506040513d6000823e601f3d908101601f19168201604052610ad09190810190612620565b6040517f095ea7b30000000000000000000000000000000000000000000000000000000081526001600160a01b03868116600483015260006024830152919450908816915063095ea7b3906044016020604051808303816000875af1158015610b3d573d6000803e3d6000fd5b505050506040513d601f19601f82011682018060405250810190610b61919061244d565b505b505050505050505050565b6000546001600160a01b03163314610574576040517f08c379a000000000000000000000000000000000000000000000000000000000815260206004820181905260248201527f4f776e61626c653a2063616c6c6572206973206e6f7420746865206f776e6572604482015260640161027a565b600080546001600160a01b038381167fffffffffffffffffffffffff0000000000000000000000000000000000000000831681178455604051919092169283917f8be0079c531659141344cd1fd0a4f28419497f9722a3daafe3b4186f6b6457e09190a35050565b610d2c604051806102a0016040528060006001600160a01b0316815260200160006001600160a01b0316815260200160006001600160a01b0316815260200160006001600160a01b0316815260200160006001600160a01b0316815260200160006001600160a01b0316815260200160006001600160a01b0316815260200160008152602001600081526020016000815260200160008152602001600081526020016000815260200160008152602001600081526020016000815260200160008152602001600081526020016000815260200160008152602001600081525090565b6000846001600160a01b03166394217ad16040518163ffffffff1660e01b8152600401602060405180830381865afa158015610d6c573d6000803e3d6000fd5b505050506040513d601f19601f82011682018060405250810190610d9091906126e1565b6040517f152052b00000000000000000000000000000000000000000000000000000000081526001600160a01b03878116600483015291925060009183169063152052b090602401600060405180830381865afa158015610df5573d6000803e3d6000fd5b505050506040513d6000823e601f3d908101601f19168201604052610e1d91908101906127a0565b90506000826001600160a01b03166385b4bb536040518163ffffffff1660e01b8152600401600060405180830381865afa158015610e5f573d6000803e3d6000fd5b505050506040513d6000823e601f3d908101601f19168201604052610e879190810190612a53565b6001600160a01b038085168087528982166020808901919091528983166040808a019190915289841660608a015281850151841660808a015261010087015190931660a089015282517fb5a488a60000000000000000000000000000000000000000000000000000000081529251939450909263b5a488a69260048082019392918290030181865afa158015610f21573d6000803e3d6000fd5b505050506040513d601f19601f82011682018060405250810190610f4591906126e1565b6001600160a01b0390811660c08601526101808381015160e08701526101e08401516101008701526103a08401516101208701526103c08401516101408701526103e084015161016087015261028083015167ffffffffffffffff169086015260a085015160808601516040517fd52bb6f40000000000000000000000000000000000000000000000000000000081529183166004830152821660248201529087169063d52bb6f4906044016040805180830381865afa15801561100d573d6000803e3d6000fd5b505050506040513d601f19601f820116820180604052508101906110319190612e7b565b6101c08601526101a085015260c084015160a08501516040517fd52bb6f40000000000000000000000000000000000000000000000000000000081526001600160a01b03928316600482015290821660248201529087169063d52bb6f4906044016040805180830381865afa1580156110ae573d6000803e3d6000fd5b505050506040513d601f19601f820116820180604052508101906110d29190612e7b565b6102008601526101e08501528351610180820151608086015160a087015160c0880151611102949392919061191f565b610280880152610260870152610240860152610220850152509195945050505050565b6000805474010000000000000000000000000000000000000000900460ff1660028111156111555761115561233d565b146111bc576040517f08c379a000000000000000000000000000000000000000000000000000000000815260206004820152601e60248201527f4c697175696461746f723a205265656e7472616e637920626c6f636b65640000604482015260640161027a565b600080547fffffffffffffffffffffff00ffffffffffffffffffffffffffffffffffffffff167401000000000000000000000000000000000000000017905561012081015161128d576040517f08c379a000000000000000000000000000000000000000000000000000000000815260206004820152602360248201527f4c697175696461746f723a204e6f20662d617373657420746f206c697175696460448201527f6174650000000000000000000000000000000000000000000000000000000000606482015260840161027a565b60a08101516040517f613255ab0000000000000000000000000000000000000000000000000000000081526001600160a01b0391821660048201526000917f0000000000000000000000000000000000000000000000000000000000000000169063613255ab90602401602060405180830381865afa158015611314573d6000803e3d6000fd5b505050506040513d601f19601f82011682018060405250810190611338919061236c565b9050600081116113ca576040517f08c379a000000000000000000000000000000000000000000000000000000000815260206004820152602360248201527f4c697175696461746f723a204e6f20666c617368206c6f616e20617661696c6160448201527f626c650000000000000000000000000000000000000000000000000000000000606482015260840161027a565b60006113d583611bfd565b905060008111611467576040517f08c379a000000000000000000000000000000000000000000000000000000000815260206004820152602f60248201527f4c697175696461746f723a204e6f2070726f66697461626c652061726269747260448201527f616765206f70706f7274756e6974790000000000000000000000000000000000606482015260840161027a565b8260a001516001600160a01b031663a9059cbb61148c6000546001600160a01b031690565b60a08601516040517f70a082310000000000000000000000000000000000000000000000000000000081523060048201526001600160a01b03909116906370a0823190602401602060405180830381865afa1580156114ef573d6000803e3d6000fd5b505050506040513d601f19601f82011682018060405250810190611513919061236c565b6040517fffffffff0000000000000000000000000000000000000000000000000000000060e085901b1681526001600160a01b03909216600483015260248201526044016020604051808303816000875af1158015611576573d6000803e3d6000fd5b505050506040513d601f19601f8201168201806040525081019061159a919061244d565b5082606001516001600160a01b0316635cffe9de308560a001516115be8686611c79565b608088015160c089015189516020808c01516040808e0151905161161296959493016001600160a01b0395861681529385166020850152918416604084015283166060830152909116608082015260a00190565b6040516020818303038152906040526040518563ffffffff1660e01b81526004016116409493929190612ecb565b6020604051808303816000875af115801561165f573d6000803e3d6000fd5b505050506040513d601f19601f82011682018060405250810190611683919061244d565b5060a08301516040517f70a082310000000000000000000000000000000000000000000000000000000081523060048201526001600160a01b039091169063a9059cbb90339083906370a0823190602401602060405180830381865afa1580156116f1573d6000803e3d6000fd5b505050506040513d601f19601f82011682018060405250810190611715919061236c565b6040517fffffffff0000000000000000000000000000000000000000000000000000000060e085901b1681526001600160a01b03909216600483015260248201526044016020604051808303816000875af1158015611778573d6000803e3d6000fd5b505050506040513d601f19601f8201168201806040525081019061179c919061244d565b50600291506117a89050565b60005474010000000000000000000000000000000000000000900460ff1660028111156117d7576117d761233d565b1461186657604080517f08c379a00000000000000000000000000000000000000000000000000000000081526020600482015260248101919091527f4c697175696461746f723a205265656e7472616e637920626c6f636b6564206f60448201527f7220666c617368206c6f616e207265636569766572206e6f742063616c6c6564606482015260840161027a565b50600080547fffffffffffffffffffffff00ffffffffffffffffffffffffffffffffffffffff169055565b6040805160028082526060808301845292600092919060208301908036833701905050905083816000815181106118ca576118ca612684565b60200260200101906001600160a01b031690816001600160a01b03168152505082816001815181106118fe576118fe612684565b6001600160a01b039092166020928302919091019091015290505b92915050565b60008060008060006119328a8888611c91565b90506000886001600160a01b031663313ce5676040518163ffffffff1660e01b8152600401602060405180830381865afa158015611974573d6000803e3d6000fd5b505050506040513d601f19601f820116820180604052508101906119989190612efd565b82516040517f524f388900000000000000000000000000000000000000000000000000000000815291925060009182916001600160a01b038e169163524f3889916119e591600401612f18565b606060405180830381865afa158015611a02573d6000803e3d6000fd5b505050506040513d601f19601f82011682018060405250810190611a2691906126b3565b92505091506000808d6001600160a01b031663524f388987602001516040518263ffffffff1660e01b8152600401611a5e9190612f18565b606060405180830381865afa158015611a7b573d6000803e3d6000fd5b505050506040513d601f19601f82011682018060405250810190611a9f91906126b3565b9250509150611b198560ff1684868f6001600160a01b031663313ce5676040518163ffffffff1660e01b8152600401602060405180830381865afa158015611aeb573d6000803e3d6000fd5b505050506040513d601f19601f82011682018060405250810190611b0f9190612efd565b60ff168587611de0565b809a50819b50505050506000808d6001600160a01b031663524f388987604001516040518263ffffffff1660e01b8152600401611b569190612f18565b606060405180830381865afa158015611b73573d6000803e3d6000fd5b505050506040513d601f19601f82011682018060405250810190611b9791906126b3565b9250509150611be38560ff1684868e6001600160a01b031663313ce5676040518163ffffffff1660e01b8152600401602060405180830381865afa158015611aeb573d6000803e3d6000fd5b809850819950505050505050505095509550955095915050565b600080611c0983611e30565b90506000611c3e611c33611c2884876101a00151886101c00151611fbb565b86610180015161200a565b856101200151611c79565b90508015611c6e57611c69611c5e82866101a00151876101c0015161203c565b856101a00151611c79565b611c71565b60005b949350505050565b6000818310611c885781611c8a565b825b9392505050565b611cb560405180606001604052806060815260200160608152602001606081525090565b6040517f4610bc230000000000000000000000000000000000000000000000000000000081526000906001600160a01b03861690634610bc2390611d00906002908890600401612f2b565b600060405180830381865afa158015611d1d573d6000803e3d6000fd5b505050506040513d6000823e601f3d908101601f19168201604052611d459190810190612f8d565b90506000856001600160a01b0316634610bc236001866040518363ffffffff1660e01b8152600401611d78929190612f2b565b600060405180830381865afa158015611d95573d6000803e3d6000fd5b505050506040513d6000823e601f3d908101601f19168201604052611dbd9190810190612f8d565b60a0830151845260c0928301516020850152909101516040830152509392505050565b600080611ded8486612425565b611df890600a6131a8565b611e0290876131b4565b611e0c888a612425565b611e1790600a6131a8565b611e2190856131b4565b91509150965096945050505050565b6000816101e001516103e8836101a001516103e5611e4e91906131b4565b611e5891906131fa565b611e6291906131b4565b9050611e6d81612090565b90506000826101e00151836102400151846102200151612710866101400151876101c00151611e9c91906131b4565b611ea691906131fa565b611eb091906131b4565b611eba91906131fa565b611ec491906131b4565b905060008361020001516103e8856102800151866102600151612710886101600151896101c00151611ef691906131b4565b611f0091906131fa565b611f0a91906131b4565b611f1491906131fa565b611f20906103e56131b4565b611f2a91906131fa565b611f3491906131b4565b9050611f48611f438284612425565b612090565b611f5290846131b4565b925050506000826101e00151836101a00151611f6e91906131b4565b9050818110611f805750600092915050565b611f8a818361320e565b9150611f9a90506103e8826131b4565b9050611fa86103e5826131fa565b9050816101e001518161191991906131fa565b600080611fca856103e56131b4565b90506000611fd884836131b4565b9050600082611fe9876103e86131b4565b611ff39190612425565b9050611fff81836131fa565b979650505050505050565b6000806120178385613221565b90508015612034578061202a8486612425565b611c69919061320e565b509192915050565b60008061204985856131b4565b612055906103e86131b4565b90506000612063868561320e565b61206f906103e56131b4565b905061207b81836131fa565b612086906001612425565b9695505050505050565b6000816000036120a257506000919050565b81600170010000000000000000000000000000000082106120c85760809190911c9060401b5b6801000000000000000082106120e35760409190911c9060201b5b64010000000082106120fa5760209190911c9060101b5b62010000821061210f5760109190911c9060081b5b61010082106121235760089190911c9060041b5b601082106121365760049190911c9060021b5b600882106121425760011b5b6001818581612153576121536131cb565b048201901c9050600181858161216b5761216b6131cb565b048201901c90506001818581612183576121836131cb565b048201901c9050600181858161219b5761219b6131cb565b048201901c905060018185816121b3576121b36131cb565b048201901c905060018185816121cb576121cb6131cb565b048201901c905060018185816121e3576121e36131cb565b048201901c905060008185816121fb576121fb6131cb565b04905080821061220b578061220d565b815b95945050505050565b6001600160a01b038116811461051457600080fd5b60008060008060008060a0878903121561224457600080fd5b863561224f81612216565b9550602087013561225f81612216565b94506040870135935060608701359250608087013567ffffffffffffffff8082111561228a57600080fd5b818901915089601f83011261229e57600080fd5b8135818111156122ad57600080fd5b8a60208285010111156122bf57600080fd5b6020830194508093505050509295509295509295565b6000602082840312156122e757600080fd5b8135611c8a81612216565b60008060006060848603121561230757600080fd5b833561231281612216565b9250602084013561232281612216565b9150604084013561233281612216565b809150509250925092565b7f4e487b7100000000000000000000000000000000000000000000000000000000600052602160045260246000fd5b60006020828403121561237e57600080fd5b5051919050565b600080600080600060a0868803121561239d57600080fd5b85356123a881612216565b945060208601356123b881612216565b935060408601356123c881612216565b925060608601356123d881612216565b915060808601356123e881612216565b809150509295509295909350565b7f4e487b7100000000000000000000000000000000000000000000000000000000600052601160045260246000fd5b80820180821115611919576119196123f6565b8051801515811461244857600080fd5b919050565b60006020828403121561245f57600080fd5b611c8a82612438565b600060a082018783526020878185015260a0604085015281875180845260c086019150828901935060005b818110156124b85784516001600160a01b031683529383019391830191600101612493565b50506001600160a01b03969096166060850152505050608001529392505050565b7f4e487b7100000000000000000000000000000000000000000000000000000000600052604160045260246000fd5b604051610500810167ffffffffffffffff8111828210171561252c5761252c6124d9565b60405290565b604051610640810167ffffffffffffffff8111828210171561252c5761252c6124d9565b604051610140810167ffffffffffffffff8111828210171561252c5761252c6124d9565b604051601f8201601f1916810167ffffffffffffffff811182821017156125a3576125a36124d9565b604052919050565b600082601f8301126125bc57600080fd5b8151602067ffffffffffffffff8211156125d8576125d86124d9565b8160051b6125e782820161257a565b928352848101820192828101908785111561260157600080fd5b83870192505b84831015611fff57825182529183019190830190612607565b6000806040838503121561263357600080fd5b825167ffffffffffffffff8082111561264b57600080fd5b612657868387016125ab565b9350602085015191508082111561266d57600080fd5b5061267a858286016125ab565b9150509250929050565b7f4e487b7100000000000000000000000000000000000000000000000000000000600052603260045260246000fd5b6000806000606084860312156126c857600080fd5b8351925060208401519150604084015190509250925092565b6000602082840312156126f357600080fd5b8151611c8a81612216565b80516005811061244857600080fd5b805161244881612216565b60005b8381101561273357818101518382015260200161271b565b50506000910152565b600082601f83011261274d57600080fd5b815167ffffffffffffffff811115612767576127676124d9565b61277a6020601f19601f8401160161257a565b81815284602083860101111561278f57600080fd5b611c71826020830160208701612718565b6000602082840312156127b257600080fd5b815167ffffffffffffffff808211156127ca57600080fd5b9083019061050082860312156127df57600080fd5b6127e7612508565b6127f0836126fe565b81526127fe6020840161270d565b602082015261280f6040840161270d565b60408201526128206060840161270d565b606082015260808301518281111561283757600080fd5b6128438782860161273c565b60808301525061285560a08401612438565b60a082015260c083015160c082015260e083015160e0820152610100915061287e82840161270d565b9181019190915261012082810151908201526101408083015190820152610160808301519082015261018080830151908201526101a080830151908201526101c080830151908201526101e08083015190820152610200808301519082015261022080830151908201526102408083015190820152610260808301519082015261028080830151908201526102a080830151908201526102c080830151908201526102e08083015190820152610300808301519082015261032080830151908201526103408083015190820152610360808301519082015261038080830151908201526103a080830151908201526103c080830151908201526103e08083015190820152610400808301519082015261042080830151908201526104408083015190820152610460808301519082015261048080830151908201526104a080830151908201526104c080830151908201526104e091820151918101919091529392505050565b805160ff8116811461244857600080fd5b805163ffffffff8116811461244857600080fd5b805161ffff8116811461244857600080fd5b805167ffffffffffffffff8116811461244857600080fd5b80516fffffffffffffffffffffffffffffffff8116811461244857600080fd5b600060208284031215612a6557600080fd5b815167ffffffffffffffff80821115612a7d57600080fd5b908301906106408286031215612a9257600080fd5b612a9a612532565b612aa38361270d565b8152612ab16020840161270d565b6020820152612ac26040840161270d565b6040820152612ad36060840161270d565b6060820152612ae46080840161270d565b608082015260a083015182811115612afb57600080fd5b612b078782860161273c565b60a083015250612b1960c0840161270d565b60c0820152612b2a60e0840161270d565b60e08201526101009150612b3f82840161270d565b828201526101209150612b5382840161270d565b828201526101409150612b6782840161270d565b828201526101609150612b7b82840161270d565b828201526101809150612b8f82840161270d565b828201526101a09150612ba38284016129e4565b828201526101c09150612bb78284016129e4565b828201526101e0915081830151828201526102009150612bd88284016129f5565b828201526102209150612bec8284016129f5565b828201526102409150612c00828401612a09565b828201526102609150612c14828401612a1b565b828201526102809150612c28828401612a1b565b828201526102a09150612c3c828401612a1b565b828201526102c09150612c50828401612a09565b828201526102e09150612c64828401612438565b828201526103009150612c78828401612a1b565b828201526103209150612c8c828401612a1b565b828201526103409150612ca0828401612a1b565b828201526103609150612cb4828401612a09565b828201526103809150612cc88284016129f5565b828201526103a09150612cdc8284016129f5565b828201526103c09150612cf0828401612a1b565b828201526103e09150612d04828401612a33565b828201526104009150612d18828401612a09565b828201526104209150612d2c828401612a09565b828201526104409150612d40828401612a33565b828201526104609150612d54828401612a1b565b828201526104809150612d68828401612a1b565b828201526104a09150612d7c828401612a1b565b828201526104c09150612d90828401612a1b565b828201526104e09150612da4828401612a1b565b828201526105009150612db8828401612a1b565b828201526105209150612dcc828401612a1b565b828201526105409150612de0828401612a1b565b828201526105609150612df48284016129f5565b828201526105809150612e08828401612a1b565b828201526105a09150612e1c828401612a1b565b828201526105c09150612e30828401612a1b565b828201526105e09150612e44828401612a1b565b828201526106009150612e58828401612a1b565b828201526106209150612e6c8284016129f5565b91810191909152949350505050565b60008060408385031215612e8e57600080fd5b505080516020909101519092909150565b60008151808452612eb7816020860160208601612718565b601f01601f19169290920160200192915050565b60006001600160a01b038087168352808616602084015250836040830152608060608301526120866080830184612e9f565b600060208284031215612f0f57600080fd5b611c8a826129e4565b602081526000611c8a6020830184612e9f565b6040810160038410612f66577f4e487b7100000000000000000000000000000000000000000000000000000000600052602160045260246000fd5b9281526001600160a01b039190911660209091015290565b80516003811061244857600080fd5b600060208284031215612f9f57600080fd5b815167ffffffffffffffff80821115612fb757600080fd5b908301906101408286031215612fcc57600080fd5b612fd4612556565b612fdd83612f7e565b8152612feb6020840161270d565b6020820152604083015160408201526060830151606082015261301060808401612438565b608082015260a08301518281111561302757600080fd5b6130338782860161273c565b60a08301525060c08301518281111561304b57600080fd5b6130578782860161273c565b60c08301525060e0838101519082015261010080840151908201526101209283015192810192909252509392505050565b600181815b808511156130e157817fffffffffffffffffffffffffffffffffffffffffffffffffffffffffffffffff048211156130c7576130c76123f6565b808516156130d457918102915b93841c939080029061308d565b509250929050565b6000826130f857506001611919565b8161310557506000611919565b816001811461311b576002811461312557613141565b6001915050611919565b60ff841115613136576131366123f6565b50506001821b611919565b5060208310610133831016604e8410600b8410161715613164575081810a611919565b61316e8383613088565b807fffffffffffffffffffffffffffffffffffffffffffffffffffffffffffffffff048211156131a0576131a06123f6565b029392505050565b6000611c8a83836130e9565b8082028115828204841417611919576119196123f6565b7f4e487b7100000000000000000000000000000000000000000000000000000000600052601260045260246000fd5b600082613209576132096131cb565b500490565b81810381811115611919576119196123f6565b600082613230576132306131cb565b50069056fea164736f6c6343000814000a",
  "linkReferences": {},
  "deployedLinkReferences": {}
}