{
  "_format": "hh-sol-artifact-1",
  "contractName": "Liquidator",
  "sourceName": "liquidator/contracts/Liquidator.sol",
  "abi": [
    {
      "inputs": [
        {
          "internalType": "contract IERC3156FlashLender",
          "name": "_flashLender",
          "type": "address"
        },
        {
          "internalType": "contract IBlazeSwapRouter",
          "name": "_blazeSwapRouter",
          "type": "address"
        }
      ],
      "stateMutability": "nonpayable",
      "type": "constructor"
    },
    {
      "inputs": [],
      "name": "blazeSwapRouter",
      "outputs": [
        {
          "internalType": "contract IBlazeSwapRouter",
          "name": "",
          "type": "address"
        }
      ],
      "stateMutability": "view",
      "type": "function"
    },
    {
      "inputs": [],
      "name": "flashLender",
      "outputs": [
        {
          "internalType": "contract IERC3156FlashLender",
          "name": "",
          "type": "address"
        }
      ],
      "stateMutability": "view",
      "type": "function"
    },
    {
      "inputs": [
        {
          "internalType": "address",
          "name": "",
          "type": "address"
        },
        {
          "internalType": "address",
          "name": "_token",
          "type": "address"
        },
        {
          "internalType": "uint256",
          "name": "_amount",
          "type": "uint256"
        },
        {
          "internalType": "uint256",
          "name": "_fee",
          "type": "uint256"
        },
        {
          "internalType": "bytes",
          "name": "_data",
          "type": "bytes"
        }
      ],
      "name": "onFlashLoan",
      "outputs": [
        {
          "internalType": "bytes32",
          "name": "",
          "type": "bytes32"
        }
      ],
      "stateMutability": "nonpayable",
      "type": "function"
    },
    {
      "inputs": [
        {
          "internalType": "address",
          "name": "_agentVault",
          "type": "address"
        }
      ],
      "name": "runArbitrage",
      "outputs": [],
      "stateMutability": "nonpayable",
      "type": "function"
    },
    {
      "inputs": [
        {
          "internalType": "address",
          "name": "_agentVault",
          "type": "address"
        },
        {
          "internalType": "contract IERC3156FlashLender",
          "name": "_flashLender",
          "type": "address"
        },
        {
          "internalType": "contract IBlazeSwapRouter",
          "name": "_blazeSwapRouter",
          "type": "address"
        }
      ],
      "name": "runArbitrageWithCustomParams",
      "outputs": [],
      "stateMutability": "nonpayable",
      "type": "function"
    }
  ],
  "bytecode": "0x60c06040523480156200001157600080fd5b5060405162002edc38038062002edc833981016040819052620000349162000065565b6001600160a01b039182166080521660a052620000a4565b6001600160a01b03811681146200006257600080fd5b50565b600080604083850312156200007957600080fd5b825162000086816200004c565b602084015190925062000099816200004c565b809150509250929050565b60805160a051612dfe620000de600039600081816071015261034201526000818161010b015281816103210152610ec90152612dfe6000f3fe608060405234801561001057600080fd5b50600436106100675760003560e01c80633895f786116100505780633895f786146100de578063a52507a7146100f3578063a77144581461010657600080fd5b80630b1f2e641461006c57806323e30c8b146100bd575b600080fd5b6100937f000000000000000000000000000000000000000000000000000000000000000081565b60405173ffffffffffffffffffffffffffffffffffffffff90911681526020015b60405180910390f35b6100d06100cb366004611d87565b61012d565b6040519081526020016100b4565b6100f16100ec366004611e31565b61031b565b005b6100f1610101366004611e4e565b610369565b6100937f000000000000000000000000000000000000000000000000000000000000000081565b6000600160005460ff16600281111561014857610148611e99565b146101da576040517f08c379a000000000000000000000000000000000000000000000000000000000815260206004820152602d60248201527f4c697175696461746f723a20466c617368206c6f616e207769746820696e766160448201527f6c696420696e69746961746f720000000000000000000000000000000000000060648201526084015b60405180910390fd5b600080547fffffffffffffffffffffffffffffffffffffffffffffffffffffffffffffff001660021781558080808061021588880189611ec8565b9450945094509450945061022e8a868d87878787610485565b73ffffffffffffffffffffffffffffffffffffffff8b1663095ea7b3336102558c8e611f68565b6040517fffffffff0000000000000000000000000000000000000000000000000000000060e085901b16815273ffffffffffffffffffffffffffffffffffffffff909216600483015260248201526044016020604051808303816000875af11580156102c5573d6000803e3d6000fd5b505050506040513d601f19601f820116820180604052508101906102e99190611f90565b507f439148f0bbc682ca079e46d6e2c2f0c1e3b820f1a291b069d8882abf8cf18dd99c9b505050505050505050505050565b610366817f00000000000000000000000000000000000000000000000000000000000000007f0000000000000000000000000000000000000000000000000000000000000000610369565b50565b8273ffffffffffffffffffffffffffffffffffffffff166394217ad16040518163ffffffff1660e01b8152600401602060405180830381865afa1580156103b4573d6000803e3d6000fd5b505050506040513d601f19601f820116820180604052508101906103d89190611fab565b6040517fe1c5010000000000000000000000000000000000000000000000000000000000815273ffffffffffffffffffffffffffffffffffffffff8581166004830152919091169063e1c501009060240160408051808303816000875af1158015610447573d6000803e3d6000fd5b505050506040513d601f19601f8201168201806040525081019061046b9190611fd9565b505061048061047b8483856107bc565b610d40565b505050565b6040517f095ea7b300000000000000000000000000000000000000000000000000000000815273ffffffffffffffffffffffffffffffffffffffff8281166004830152602482018990526060919087169063095ea7b3906044016020604051808303816000875af11580156104fe573d6000803e3d6000fd5b505050506040513d601f19601f820116820180604052508101906105229190611f90565b508173ffffffffffffffffffffffffffffffffffffffff166338ed173989600061054c8a8c611351565b30426040518663ffffffff1660e01b815260040161056e959493929190612005565b6000604051808303816000875af115801561058d573d6000803e3d6000fd5b505050506040513d6000823e601f3d908101601f191682016040526105b591908101906121d7565b90508091505060008473ffffffffffffffffffffffffffffffffffffffff1663bcbaf48785846001815181106105ed576105ed61223b565b60200260200101516040518363ffffffff1660e01b815260040161063392919073ffffffffffffffffffffffffffffffffffffffff929092168252602082015260400190565b6060604051808303816000875af1158015610652573d6000803e3d6000fd5b505050506040513d601f19601f82011682018060405250810190610676919061226a565b925050811590506107b1576040517f095ea7b300000000000000000000000000000000000000000000000000000000815273ffffffffffffffffffffffffffffffffffffffff84811660048301526024820183905287169063095ea7b3906044016020604051808303816000875af11580156106f6573d6000803e3d6000fd5b505050506040513d601f19601f8201168201806040525081019061071a9190611f90565b508273ffffffffffffffffffffffffffffffffffffffff166338ed17398260006107448a8c611351565b30426040518663ffffffff1660e01b8152600401610766959493929190612005565b6000604051808303816000875af1158015610785573d6000803e3d6000fd5b505050506040513d6000823e601f3d908101601f191682016040526107ad91908101906121d7565b9250505b505050505050505050565b6108f9604051806102a00160405280600073ffffffffffffffffffffffffffffffffffffffff168152602001600073ffffffffffffffffffffffffffffffffffffffff168152602001600073ffffffffffffffffffffffffffffffffffffffff168152602001600073ffffffffffffffffffffffffffffffffffffffff168152602001600073ffffffffffffffffffffffffffffffffffffffff168152602001600073ffffffffffffffffffffffffffffffffffffffff168152602001600073ffffffffffffffffffffffffffffffffffffffff16815260200160008152602001600081526020016000815260200160008152602001600081526020016000815260200160008152602001600081526020016000815260200160008152602001600081526020016000815260200160008152602001600081525090565b60008473ffffffffffffffffffffffffffffffffffffffff166394217ad16040518163ffffffff1660e01b8152600401602060405180830381865afa158015610946573d6000803e3d6000fd5b505050506040513d601f19601f8201168201806040525081019061096a9190611fab565b6040517f152052b000000000000000000000000000000000000000000000000000000000815273ffffffffffffffffffffffffffffffffffffffff878116600483015291925060009183169063152052b090602401600060405180830381865afa1580156109dc573d6000803e3d6000fd5b505050506040513d6000823e601f3d908101601f19168201604052610a04919081019061233a565b905060008273ffffffffffffffffffffffffffffffffffffffff166385b4bb536040518163ffffffff1660e01b8152600401600060405180830381865afa158015610a53573d6000803e3d6000fd5b505050506040513d6000823e601f3d908101601f19168201604052610a7b91908101906125dc565b73ffffffffffffffffffffffffffffffffffffffff8085168087528982166020808901919091528983166040808a019190915289841660608a015281850151841660808a015261010087015190931660a089015282517fb5a488a60000000000000000000000000000000000000000000000000000000081529251939450909263b5a488a69260048082019392918290030181865afa158015610b22573d6000803e3d6000fd5b505050506040513d601f19601f82011682018060405250810190610b469190611fab565b73ffffffffffffffffffffffffffffffffffffffff90811660c08601526101808381015160e08701526101e08401516101008701526103a08401516101208701526103c08401516101408701526103e084015161016087015261028083015167ffffffffffffffff169086015260a085015160808601516040517fd52bb6f40000000000000000000000000000000000000000000000000000000081529183166004830152821660248201529087169063d52bb6f4906044016040805180830381865afa158015610c1b573d6000803e3d6000fd5b505050506040513d601f19601f82011682018060405250810190610c3f9190612a04565b6101c08601526101a085015260c084015160a08501516040517fd52bb6f400000000000000000000000000000000000000000000000000000000815273ffffffffffffffffffffffffffffffffffffffff928316600482015290821660248201529087169063d52bb6f4906044016040805180830381865afa158015610cc9573d6000803e3d6000fd5b505050506040513d601f19601f82011682018060405250810190610ced9190612a04565b6102008601526101e08501528351610180820151608086015160a087015160c0880151610d1d9493929190611406565b610280880152610260870152610240860152610220850152509195945050505050565b6000805460ff166002811115610d5857610d58611e99565b14610dbf576040517f08c379a000000000000000000000000000000000000000000000000000000000815260206004820152601e60248201527f4c697175696461746f723a205265656e7472616e637920626c6f636b6564000060448201526064016101d1565b600080547fffffffffffffffffffffffffffffffffffffffffffffffffffffffffffffff00166001179055610120810151610e7c576040517f08c379a000000000000000000000000000000000000000000000000000000000815260206004820152602360248201527f4c697175696461746f723a204e6f20662d617373657420746f206c697175696460448201527f617465000000000000000000000000000000000000000000000000000000000060648201526084016101d1565b60a08101516040517f613255ab00000000000000000000000000000000000000000000000000000000815273ffffffffffffffffffffffffffffffffffffffff91821660048201526000917f0000000000000000000000000000000000000000000000000000000000000000169063613255ab90602401602060405180830381865afa158015610f10573d6000803e3d6000fd5b505050506040513d601f19601f82011682018060405250810190610f349190612a28565b905060008111610fc6576040517f08c379a000000000000000000000000000000000000000000000000000000000815260206004820152602260248201527f4c697175696461746f723a20466c617368206c6f616e20756e617661696c616260448201527f6c6500000000000000000000000000000000000000000000000000000000000060648201526084016101d1565b6000610fd183611732565b90506000811161103d576040517f08c379a000000000000000000000000000000000000000000000000000000000815260206004820152601f60248201527f4c697175696461746f723a204e6f2070726f66697420617661696c61626c650060448201526064016101d1565b826060015173ffffffffffffffffffffffffffffffffffffffff16635cffe9de308560a0015161106d86866117ae565b608088015160c089015189516020808c01516040808e015190516110ce969594930173ffffffffffffffffffffffffffffffffffffffff95861681529385166020850152918416604084015283166060830152909116608082015260a00190565b6040516020818303038152906040526040518563ffffffff1660e01b81526004016110fc9493929190612a6d565b6020604051808303816000875af115801561111b573d6000803e3d6000fd5b505050506040513d601f19601f8201168201806040525081019061113f9190611f90565b5060a08301516040517f70a0823100000000000000000000000000000000000000000000000000000000815230600482015260009173ffffffffffffffffffffffffffffffffffffffff16906370a0823190602401602060405180830381865afa1580156111b1573d6000803e3d6000fd5b505050506040513d601f19601f820116820180604052508101906111d59190612a28565b60a08501516040517fa9059cbb0000000000000000000000000000000000000000000000000000000081523360048201526024810183905291925073ffffffffffffffffffffffffffffffffffffffff169063a9059cbb906044016020604051808303816000875af115801561124f573d6000803e3d6000fd5b505050506040513d601f19601f820116820180604052508101906112739190611f90565b5060029250611280915050565b60005460ff16600281111561129757611297611e99565b1461132657604080517f08c379a00000000000000000000000000000000000000000000000000000000081526020600482015260248101919091527f4c697175696461746f723a205265656e7472616e637920626c6f636b6564206f60448201527f7220666c617368206c6f616e207265636569766572206e6f742063616c6c656460648201526084016101d1565b50600080547fffffffffffffffffffffffffffffffffffffffffffffffffffffffffffffff00169055565b60408051600280825260608083018452926000929190602083019080368337019050509050838160008151811061138a5761138a61223b565b602002602001019073ffffffffffffffffffffffffffffffffffffffff16908173ffffffffffffffffffffffffffffffffffffffff168152505082816001815181106113d8576113d861223b565b73ffffffffffffffffffffffffffffffffffffffff9092166020928302919091019091015290505b92915050565b60008060008060006114198a88886117c6565b905060008873ffffffffffffffffffffffffffffffffffffffff1663313ce5676040518163ffffffff1660e01b8152600401602060405180830381865afa158015611468573d6000803e3d6000fd5b505050506040513d601f19601f8201168201806040525081019061148c9190612aac565b82516040517f524f3889000000000000000000000000000000000000000000000000000000008152919250600091829173ffffffffffffffffffffffffffffffffffffffff8e169163524f3889916114e691600401612ac7565b606060405180830381865afa158015611503573d6000803e3d6000fd5b505050506040513d601f19601f82011682018060405250810190611527919061226a565b92505091506000808d73ffffffffffffffffffffffffffffffffffffffff1663524f388987602001516040518263ffffffff1660e01b815260040161156c9190612ac7565b606060405180830381865afa158015611589573d6000803e3d6000fd5b505050506040513d601f19601f820116820180604052508101906115ad919061226a565b92505091506116348560ff1684868f73ffffffffffffffffffffffffffffffffffffffff1663313ce5676040518163ffffffff1660e01b8152600401602060405180830381865afa158015611606573d6000803e3d6000fd5b505050506040513d601f19601f8201168201806040525081019061162a9190612aac565b60ff16858761192f565b809a50819b50505050506000808d73ffffffffffffffffffffffffffffffffffffffff1663524f388987604001516040518263ffffffff1660e01b815260040161167e9190612ac7565b606060405180830381865afa15801561169b573d6000803e3d6000fd5b505050506040513d601f19601f820116820180604052508101906116bf919061226a565b92505091506117188560ff1684868e73ffffffffffffffffffffffffffffffffffffffff1663313ce5676040518163ffffffff1660e01b8152600401602060405180830381865afa158015611606573d6000803e3d6000fd5b809850819950505050505050505095509550955095915050565b60008061173e8361197f565b9050600061177361176861175d84876101a00151886101c00151611b0a565b866101800151611b59565b8561012001516117ae565b905080156117a35761179e61179382866101a00151876101c00151611b8b565b856101a001516117ae565b6117a6565b60005b949350505050565b60008183106117bd57816117bf565b825b9392505050565b6117ea60405180606001604052806060815260200160608152602001606081525090565b6040517f4610bc2300000000000000000000000000000000000000000000000000000000815260009073ffffffffffffffffffffffffffffffffffffffff861690634610bc2390611842906002908890600401612ada565b600060405180830381865afa15801561185f573d6000803e3d6000fd5b505050506040513d6000823e601f3d908101601f191682016040526118879190810190612b49565b905060008573ffffffffffffffffffffffffffffffffffffffff16634610bc236001866040518363ffffffff1660e01b81526004016118c7929190612ada565b600060405180830381865afa1580156118e4573d6000803e3d6000fd5b505050506040513d6000823e601f3d908101601f1916820160405261190c9190810190612b49565b60a0830151845260c0928301516020850152909101516040830152509392505050565b60008061193c8486611f68565b61194790600a612d64565b6119519087612d70565b61195b888a611f68565b61196690600a612d64565b6119709085612d70565b91509150965096945050505050565b6000816101e001516103e8836101a001516103e561199d9190612d70565b6119a79190612db6565b6119b19190612d70565b90506119bc81611bdf565b90506000826101e00151836102400151846102200151612710866101400151876101c001516119eb9190612d70565b6119f59190612db6565b6119ff9190612d70565b611a099190612db6565b611a139190612d70565b905060008361020001516103e8856102800151866102600151612710886101600151896101c00151611a459190612d70565b611a4f9190612db6565b611a599190612d70565b611a639190612db6565b611a6f906103e5612d70565b611a799190612db6565b611a839190612d70565b9050611a97611a928284611f68565b611bdf565b611aa19084612d70565b925050506000826101e00151836101a00151611abd9190612d70565b9050818110611acf5750600092915050565b611ad98183612dca565b9150611ae990506103e882612d70565b9050611af76103e582612db6565b9050816101e00151816114009190612db6565b600080611b19856103e5612d70565b90506000611b278483612d70565b9050600082611b38876103e8612d70565b611b429190611f68565b9050611b4e8183612db6565b979650505050505050565b600080611b668385612ddd565b90508015611b835780611b798486611f68565b61179e9190612dca565b509192915050565b600080611b988585612d70565b611ba4906103e8612d70565b90506000611bb28685612dca565b611bbe906103e5612d70565b9050611bca8183612db6565b611bd5906001611f68565b9695505050505050565b600081600003611bf157506000919050565b8160017001000000000000000000000000000000008210611c175760809190911c9060401b5b680100000000000000008210611c325760409190911c9060201b5b6401000000008210611c495760209190911c9060101b5b620100008210611c5e5760109190911c9060081b5b6101008210611c725760089190911c9060041b5b60108210611c855760049190911c9060021b5b60088210611c915760011b5b6001818581611ca257611ca2612d87565b048201901c90506001818581611cba57611cba612d87565b048201901c90506001818581611cd257611cd2612d87565b048201901c90506001818581611cea57611cea612d87565b048201901c90506001818581611d0257611d02612d87565b048201901c90506001818581611d1a57611d1a612d87565b048201901c90506001818581611d3257611d32612d87565b048201901c90506000818581611d4a57611d4a612d87565b049050808210611d5a5780611d5c565b815b95945050505050565b73ffffffffffffffffffffffffffffffffffffffff8116811461036657600080fd5b60008060008060008060a08789031215611da057600080fd5b8635611dab81611d65565b95506020870135611dbb81611d65565b94506040870135935060608701359250608087013567ffffffffffffffff80821115611de657600080fd5b818901915089601f830112611dfa57600080fd5b813581811115611e0957600080fd5b8a6020828501011115611e1b57600080fd5b6020830194508093505050509295509295509295565b600060208284031215611e4357600080fd5b81356117bf81611d65565b600080600060608486031215611e6357600080fd5b8335611e6e81611d65565b92506020840135611e7e81611d65565b91506040840135611e8e81611d65565b809150509250925092565b7f4e487b7100000000000000000000000000000000000000000000000000000000600052602160045260246000fd5b600080600080600060a08688031215611ee057600080fd5b8535611eeb81611d65565b94506020860135611efb81611d65565b93506040860135611f0b81611d65565b92506060860135611f1b81611d65565b91506080860135611f2b81611d65565b809150509295509295909350565b7f4e487b7100000000000000000000000000000000000000000000000000000000600052601160045260246000fd5b8082018082111561140057611400611f39565b80518015158114611f8b57600080fd5b919050565b600060208284031215611fa257600080fd5b6117bf82611f7b565b600060208284031215611fbd57600080fd5b81516117bf81611d65565b805160ff81168114611f8b57600080fd5b60008060408385031215611fec57600080fd5b611ff583611fc8565b9150602083015190509250929050565b600060a082018783526020878185015260a0604085015281875180845260c086019150828901935060005b8181101561206257845173ffffffffffffffffffffffffffffffffffffffff1683529383019391830191600101612030565b505073ffffffffffffffffffffffffffffffffffffffff969096166060850152505050608001529392505050565b7f4e487b7100000000000000000000000000000000000000000000000000000000600052604160045260246000fd5b604051610500810167ffffffffffffffff811182821017156120e3576120e3612090565b60405290565b604051610640810167ffffffffffffffff811182821017156120e3576120e3612090565b604051610140810167ffffffffffffffff811182821017156120e3576120e3612090565b604051601f8201601f1916810167ffffffffffffffff8111828210171561215a5761215a612090565b604052919050565b600082601f83011261217357600080fd5b8151602067ffffffffffffffff82111561218f5761218f612090565b8160051b61219e828201612131565b92835284810182019282810190878511156121b857600080fd5b83870192505b84831015611b4e578251825291830191908301906121be565b600080604083850312156121ea57600080fd5b825167ffffffffffffffff8082111561220257600080fd5b61220e86838701612162565b9350602085015191508082111561222457600080fd5b5061223185828601612162565b9150509250929050565b7f4e487b7100000000000000000000000000000000000000000000000000000000600052603260045260246000fd5b60008060006060848603121561227f57600080fd5b8351925060208401519150604084015190509250925092565b805160058110611f8b57600080fd5b8051611f8b81611d65565b60005b838110156122cd5781810151838201526020016122b5565b50506000910152565b600082601f8301126122e757600080fd5b815167ffffffffffffffff81111561230157612301612090565b6123146020601f19601f84011601612131565b81815284602083860101111561232957600080fd5b6117a68260208301602087016122b2565b60006020828403121561234c57600080fd5b815167ffffffffffffffff8082111561236457600080fd5b90830190610500828603121561237957600080fd5b6123816120bf565b61238a83612298565b8152612398602084016122a7565b60208201526123a9604084016122a7565b60408201526123ba606084016122a7565b60608201526080830151828111156123d157600080fd5b6123dd878286016122d6565b6080830152506123ef60a08401611f7b565b60a082015260c083015160c082015260e083015160e082015261010091506124188284016122a7565b9181019190915261012082810151908201526101408083015190820152610160808301519082015261018080830151908201526101a080830151908201526101c080830151908201526101e08083015190820152610200808301519082015261022080830151908201526102408083015190820152610260808301519082015261028080830151908201526102a080830151908201526102c080830151908201526102e08083015190820152610300808301519082015261032080830151908201526103408083015190820152610360808301519082015261038080830151908201526103a080830151908201526103c080830151908201526103e08083015190820152610400808301519082015261042080830151908201526104408083015190820152610460808301519082015261048080830151908201526104a080830151908201526104c080830151908201526104e091820151918101919091529392505050565b805163ffffffff81168114611f8b57600080fd5b805161ffff81168114611f8b57600080fd5b805167ffffffffffffffff81168114611f8b57600080fd5b80516fffffffffffffffffffffffffffffffff81168114611f8b57600080fd5b6000602082840312156125ee57600080fd5b815167ffffffffffffffff8082111561260657600080fd5b90830190610640828603121561261b57600080fd5b6126236120e9565b61262c836122a7565b815261263a602084016122a7565b602082015261264b604084016122a7565b604082015261265c606084016122a7565b606082015261266d608084016122a7565b608082015260a08301518281111561268457600080fd5b612690878286016122d6565b60a0830152506126a260c084016122a7565b60c08201526126b360e084016122a7565b60e082015261010091506126c88284016122a7565b8282015261012091506126dc8284016122a7565b8282015261014091506126f08284016122a7565b8282015261016091506127048284016122a7565b8282015261018091506127188284016122a7565b828201526101a0915061272c828401611fc8565b828201526101c09150612740828401611fc8565b828201526101e091508183015182820152610200915061276182840161257e565b82820152610220915061277582840161257e565b828201526102409150612789828401612592565b82820152610260915061279d8284016125a4565b8282015261028091506127b18284016125a4565b828201526102a091506127c58284016125a4565b828201526102c091506127d9828401612592565b828201526102e091506127ed828401611f7b565b8282015261030091506128018284016125a4565b8282015261032091506128158284016125a4565b8282015261034091506128298284016125a4565b82820152610360915061283d828401612592565b82820152610380915061285182840161257e565b828201526103a0915061286582840161257e565b828201526103c091506128798284016125a4565b828201526103e0915061288d8284016125bc565b8282015261040091506128a1828401612592565b8282015261042091506128b5828401612592565b8282015261044091506128c98284016125bc565b8282015261046091506128dd8284016125a4565b8282015261048091506128f18284016125a4565b828201526104a091506129058284016125a4565b828201526104c091506129198284016125a4565b828201526104e0915061292d8284016125a4565b8282015261050091506129418284016125a4565b8282015261052091506129558284016125a4565b8282015261054091506129698284016125a4565b82820152610560915061297d82840161257e565b8282015261058091506129918284016125a4565b828201526105a091506129a58284016125a4565b828201526105c091506129b98284016125a4565b828201526105e091506129cd8284016125a4565b8282015261060091506129e18284016125a4565b8282015261062091506129f582840161257e565b91810191909152949350505050565b60008060408385031215612a1757600080fd5b505080516020909101519092909150565b600060208284031215612a3a57600080fd5b5051919050565b60008151808452612a598160208601602086016122b2565b601f01601f19169290920160200192915050565b600073ffffffffffffffffffffffffffffffffffffffff808716835280861660208401525083604083015260806060830152611bd56080830184612a41565b600060208284031215612abe57600080fd5b6117bf82611fc8565b6020815260006117bf6020830184612a41565b6040810160038410612b15577f4e487b7100000000000000000000000000000000000000000000000000000000600052602160045260246000fd5b92815273ffffffffffffffffffffffffffffffffffffffff9190911660209091015290565b805160038110611f8b57600080fd5b600060208284031215612b5b57600080fd5b815167ffffffffffffffff80821115612b7357600080fd5b908301906101408286031215612b8857600080fd5b612b9061210d565b612b9983612b3a565b8152612ba7602084016122a7565b60208201526040830151604082015260608301516060820152612bcc60808401611f7b565b608082015260a083015182811115612be357600080fd5b612bef878286016122d6565b60a08301525060c083015182811115612c0757600080fd5b612c13878286016122d6565b60c08301525060e0838101519082015261010080840151908201526101209283015192810192909252509392505050565b600181815b80851115612c9d57817fffffffffffffffffffffffffffffffffffffffffffffffffffffffffffffffff04821115612c8357612c83611f39565b80851615612c9057918102915b93841c9390800290612c49565b509250929050565b600082612cb457506001611400565b81612cc157506000611400565b8160018114612cd75760028114612ce157612cfd565b6001915050611400565b60ff841115612cf257612cf2611f39565b50506001821b611400565b5060208310610133831016604e8410600b8410161715612d20575081810a611400565b612d2a8383612c44565b807fffffffffffffffffffffffffffffffffffffffffffffffffffffffffffffffff04821115612d5c57612d5c611f39565b029392505050565b60006117bf8383612ca5565b808202811582820484141761140057611400611f39565b7f4e487b7100000000000000000000000000000000000000000000000000000000600052601260045260246000fd5b600082612dc557612dc5612d87565b500490565b8181038181111561140057611400611f39565b600082612dec57612dec612d87565b50069056fea164736f6c6343000814000a",
  "linkReferences": {},
  "deployedLinkReferences": {}
}