{
  "_format": "hh-sol-artifact-1",
  "contractName": "CollateralPoolFactory",
  "sourceName": "contracts/fasset/implementation/CollateralPoolFactory.sol",
  "abi": [
    {
      "inputs": [
        {
          "internalType": "contract IIAssetManager",
          "name": "_assetManager",
          "type": "address"
        },
        {
          "internalType": "address",
          "name": "_agentVault",
          "type": "address"
        },
        {
          "components": [
            {
              "internalType": "contract IERC20",
              "name": "vaultCollateralToken",
              "type": "address"
            },
            {
              "internalType": "string",
              "name": "poolTokenSuffix",
              "type": "string"
            },
            {
              "internalType": "uint256",
              "name": "feeBIPS",
              "type": "uint256"
            },
            {
              "internalType": "uint256",
              "name": "poolFeeShareBIPS",
              "type": "uint256"
            },
            {
              "internalType": "uint256",
              "name": "mintingVaultCollateralRatioBIPS",
              "type": "uint256"
            },
            {
              "internalType": "uint256",
              "name": "mintingPoolCollateralRatioBIPS",
              "type": "uint256"
            },
            {
              "internalType": "uint256",
              "name": "buyFAssetByAgentFactorBIPS",
              "type": "uint256"
            },
            {
              "internalType": "uint256",
              "name": "poolExitCollateralRatioBIPS",
              "type": "uint256"
            },
            {
              "internalType": "uint256",
              "name": "poolTopupCollateralRatioBIPS",
              "type": "uint256"
            },
            {
              "internalType": "uint256",
              "name": "poolTopupTokenPriceFactorBIPS",
              "type": "uint256"
            }
          ],
          "internalType": "struct AgentSettings.Data",
          "name": "_settings",
          "type": "tuple"
        }
      ],
      "name": "create",
      "outputs": [
        {
          "internalType": "contract IICollateralPool",
          "name": "",
          "type": "address"
        }
      ],
      "stateMutability": "nonpayable",
      "type": "function"
    },
    {
      "inputs": [
        {
          "internalType": "bytes4",
          "name": "_interfaceId",
          "type": "bytes4"
        }
      ],
      "name": "supportsInterface",
      "outputs": [
        {
          "internalType": "bool",
          "name": "",
          "type": "bool"
        }
      ],
      "stateMutability": "pure",
      "type": "function"
    }
  ],
  "bytecode": "0x608060405234801561001057600080fd5b50614b93806100206000396000f3fe608060405234801561001057600080fd5b50600436106100365760003560e01c806301ffc9a71461003b578063c09832d114610063575b600080fd5b61004e6100493660046102aa565b61008e565b60405190151581526020015b60405180910390f35b6100766100713660046103d0565b6100c5565b6040516001600160a01b03909116815260200161005a565b60006001600160e01b031982166301ffc9a760e01b14806100bf57506001600160e01b0319821663c09832d160e01b145b92915050565b600080846001600160a01b0316637c7db1a56040518163ffffffff1660e01b8152600401602060405180830381865afa158015610106573d6000803e3d6000fd5b505050506040513d601f19601f8201168201806040525081019061012a91906104cc565b9050600084868361013e8760e001516101cc565b61014c8861010001516101cc565b61015a89610120015161023a565b6040516101669061029d565b6001600160a01b039687168152948616602086015294909216604084015263ffffffff908116606084015216608082015261ffff90911660a082015260c001604051809103906000f0801580156101c1573d6000803e3d6000fd5b509695505050505050565b600063ffffffff8211156102365760405162461bcd60e51b815260206004820152602660248201527f53616665436173743a2076616c756520646f65736e27742066697420696e203360448201526532206269747360d01b60648201526084015b60405180910390fd5b5090565b600061ffff8211156102365760405162461bcd60e51b815260206004820152602660248201527f53616665436173743a2076616c756520646f65736e27742066697420696e203160448201526536206269747360d01b606482015260840161022d565b614674806104ea83390190565b6000602082840312156102bc57600080fd5b81356001600160e01b0319811681146102d457600080fd5b9392505050565b6001600160a01b03811681146102f057600080fd5b50565b634e487b7160e01b600052604160045260246000fd5b604051610140810167ffffffffffffffff8111828210171561032d5761032d6102f3565b60405290565b803561033e816102db565b919050565b600082601f83011261035457600080fd5b813567ffffffffffffffff8082111561036f5761036f6102f3565b604051601f8301601f19908116603f01168101908282118183101715610397576103976102f3565b816040528381528660208588010111156103b057600080fd5b836020870160208301376000602085830101528094505050505092915050565b6000806000606084860312156103e557600080fd5b83356103f0816102db565b92506020840135610400816102db565b9150604084013567ffffffffffffffff8082111561041d57600080fd5b90850190610140828803121561043257600080fd5b61043a610309565b61044383610333565b815260208301358281111561045757600080fd5b61046389828601610343565b60208301525060408301356040820152606083013560608201526080830135608082015260a083013560a082015260c083013560c082015260e083013560e082015261010091508183013582820152610120915081830135828201528093505050509250925092565b6000602082840312156104de57600080fd5b81516102d4816102db56fe60806040523480156200001157600080fd5b506040516200467438038062004674833981016040819052620000349162000178565b600080546001600160a01b038089166001600160a01b031992831617909255600180548884169083168117909155600280549388169390921692909217905560408051635ad2445360e11b8152905163b5a488a6916004808201926020929091908290030181865afa158015620000af573d6000803e3d6000fd5b505050506040513d601f19601f82011682018060405250810190620000d591906200020b565b6004805461ffff909316600160e01b0261ffff60e01b1963ffffffff958616600160c01b021665ffffffffffff60c01b1995909616600160a01b026001600160c01b03199094166001600160a01b0393909316929092179290921792909216929092171790555062000232915050565b6001600160a01b03811681146200015b57600080fd5b50565b805163ffffffff811681146200017357600080fd5b919050565b60008060008060008060c087890312156200019257600080fd5b86516200019f8162000145565b6020880151909650620001b28162000145565b6040880151909550620001c58162000145565b9350620001d5606088016200015e565b9250620001e5608088016200015e565b915060a087015161ffff81168114620001fd57600080fd5b809150509295509295509295565b6000602082840312156200021e57600080fd5b81516200022b8162000145565b9392505050565b61443280620002426000396000f3fe6080604052600436106102755760003560e01c806394217ad11161014f578063c1b0bbf8116100c1578063e4df73f01161007a578063e4df73f0146107a1578063ee781db0146107b4578063f4d000b2146107d4578063fbebcadf14610440578063fc0c546a146107f4578063fd86d3ea1461081457600080fd5b8063c1b0bbf8146106ef578063c79d245d1461070f578063cb2094131461072f578063cbabdf3914610765578063cbdf382c1461077b578063d1b8890e1461079957600080fd5b8063adf58c1511610113578063adf58c1514610661578063b302f39314610681578063b337929b14610696578063b9e2648314610348578063ba133b87146106ba578063bbd6fbf8146106cf57600080fd5b806394217ad1146105ce5780639a4247e6146105ee5780639edbf0071461060e578063a854a6a21461062e578063ac3736c11461064e57600080fd5b80634a4ac2ef116101e85780637c7db1a5116101ac5780637c7db1a51461050b578063815ea9d61461054357806386ac57a21461056357806387a2a0dc1461058357806388985cd614610598578063923f8932146105b857600080fd5b80634a4ac2ef146104605780634ac8eb5f146104955780635e318e07146104ab578063787b9ca8146104cb5780637a68a508146104eb57600080fd5b806315e2bfba1161023a57806315e2bfba146103725780631b92d84a146103925780632f35eac2146103b257806333ce01fd146103e75780633cfc747d14610407578063406c70071461044057600080fd5b8062f55d9d146102d357806301ffc9a7146102f3578063026e402b146103285780630ac07344146103485780630dc1e5e11461034857600080fd5b366102ce57600454600160f01b900460ff166102cc5760405162461bcd60e51b81526020600482015260116024820152706f6e6c7920696e7465726e616c2075736560781b60448201526064015b60405180910390fd5b005b600080fd5b3480156102df57600080fd5b506102cc6102ee366004613e2c565b610834565b3480156102ff57600080fd5b5061031361030e366004613e49565b610ade565b60405190151581526020015b60405180910390f35b34801561033457600080fd5b506102cc610343366004613e73565b610b30565b34801561035457600080fd5b50610364670de0b6b3a764000081565b60405190815260200161031f565b34801561037e57600080fd5b5061036461038d366004613e2c565b610bc2565b34801561039e57600080fd5b506103646103ad366004613e9f565b610c58565b3480156103be57600080fd5b506103d26103cd366004613eb8565b610cad565b6040805192835260208301919091520161031f565b3480156103f357600080fd5b506102cc610402366004613e2c565b61100b565b34801561041357600080fd5b5060045461042b90600160a01b900463ffffffff1681565b60405163ffffffff909116815260200161031f565b34801561044c57600080fd5b5061036461045b366004613e73565b6110a9565b34801561046c57600080fd5b5060045461048290600160e01b900461ffff1681565b60405161ffff909116815260200161031f565b3480156104a157600080fd5b5061036460085481565b3480156104b757600080fd5b506102cc6104c6366004613e9f565b611173565b3480156104d757600080fd5b506102cc6104e6366004613e9f565b6112b2565b3480156104f757600080fd5b506102cc610506366004613e2c565b611356565b34801561051757600080fd5b5060025461052b906001600160a01b031681565b6040516001600160a01b03909116815260200161031f565b34801561054f57600080fd5b5060005461052b906001600160a01b031681565b34801561056f57600080fd5b506102cc61057e366004613e2c565b611446565b34801561058f57600080fd5b506102cc6114a6565b3480156105a457600080fd5b506102cc6105b3366004613e9f565b61158a565b3480156105c457600080fd5b5061036460065481565b3480156105da57600080fd5b5060015461052b906001600160a01b031681565b3480156105fa57600080fd5b506102cc610609366004613e9f565b611671565b34801561061a57600080fd5b5060045461052b906001600160a01b031681565b34801561063a57600080fd5b506102cc610649366004613e9f565b611747565b6103d261065c366004613efa565b61178b565b34801561066d57600080fd5b506102cc61067c366004613f1f565b611c2e565b34801561068d57600080fd5b506102cc611e41565b3480156106a257600080fd5b5060045461042b90600160c01b900463ffffffff1681565b3480156106c657600080fd5b506102cc611ea9565b3480156106db57600080fd5b506102cc6106ea366004613e73565b612136565b3480156106fb57600080fd5b5061036461070a366004613e2c565b612196565b34801561071b57600080fd5b5061036461072a366004613e2c565b6121ad565b34801561073b57600080fd5b5061036461074a366004613e2c565b6001600160a01b031660009081526005602052604090205490565b34801561077157600080fd5b5061036460075481565b34801561078757600080fd5b506003546001600160a01b031661052b565b6102cc6121c4565b6102cc6107af366004613f6a565b6121f6565b3480156107c057600080fd5b506102cc6107cf366004613e9f565b612986565b3480156107e057600080fd5b506102cc6107ef366004613e2c565b612b57565b34801561080057600080fd5b5060035461052b906001600160a01b031681565b34801561082057600080fd5b5061036461082f366004613e2c565b612d87565b6001546001600160a01b0316331461085e5760405162461bcd60e51b81526004016102c390614048565b610866612d9e565b600360009054906101000a90046001600160a01b03166001600160a01b03166318160ddd6040518163ffffffff1660e01b8152600401602060405180830381865afa1580156108b9573d6000803e3d6000fd5b505050506040513d601f19601f820116820180604052508101906108dd9190614074565b1561093b5760405162461bcd60e51b815260206004820152602860248201527f63616e6e6f742064657374726f79206120706f6f6c20776974682069737375656044820152676420746f6b656e7360c01b60648201526084016102c3565b60035460405162f55d9d60e01b81526001600160a01b0383811660048301529091169062f55d9d90602401600060405180830381600087803b15801561098057600080fd5b505af1158015610994573d6000803e3d6000fd5b505050506109a28147612e05565b600480546040516370a0823160e01b815230928101929092526000916001600160a01b03909116906370a0823190602401602060405180830381865afa1580156109f0573d6000803e3d6000fd5b505050506040513d601f19601f82011682018060405250810190610a149190614074565b6002546040516370a0823160e01b81523060048201529192506000916001600160a01b03909116906370a0823190602401602060405180830381865afa158015610a62573d6000803e3d6000fd5b505050506040513d601f19601f82011682018060405250810190610a869190614074565b90508115610aa557600454610aa5906001600160a01b03168484612ea4565b8015610ac257600254610ac2906001600160a01b03168483612ea4565b5050610adb60016000805160206143dd83398151915255565b50565b60006001600160e01b031982166301ffc9a760e01b1480610b0f57506001600160e01b03198216636c9ea60760e01b145b80610b2a57506001600160e01b031982166350eb34e160e11b145b92915050565b610b3933612f07565b610b555760405162461bcd60e51b81526004016102c39061408d565b6004805460405163026e402b60e01b81526001600160a01b03858116938201939093526024810184905291169063026e402b906044015b600060405180830381600087803b158015610ba657600080fd5b505af1158015610bba573d6000803e3d6000fd5b505050505050565b600080610bcd612f81565b6003546040516370a0823160e01b81526001600160a01b038681166004830152929350610c5192909116906370a0823190602401602060405180830381865afa158015610c1e573d6000803e3d6000fd5b505050506040513d601f19601f82011682018060405250810190610c429190614074565b610c4c8386613166565b61325a565b9392505050565b600080610c63612f81565b80516040820151919250600091610c7b918690613274565b90506000610c89838361339a565b90506000610c978433613441565b9050610ca3828261325a565b9695505050505050565b600080610cb8612d9e565b60008411610cfe5760405162461bcd60e51b8152602060048201526013602482015272746f6b656e207368617265206973207a65726f60681b60448201526064016102c3565b6003546040516370a0823160e01b81523360048201526001600160a01b03909116906370a0823190602401602060405180830381865afa158015610d46573d6000803e3d6000fd5b505050506040513d601f19601f82011682018060405250810190610d6a9190614074565b841115610db15760405162461bcd60e51b8152602060048201526015602482015274746f6b656e2062616c616e636520746f6f206c6f7760581b60448201526064016102c3565b6000610dbb612f81565b8051909150851480610de257508051670de0b6b3a764000090610ddf9087906140c7565b10155b610dfe5760405162461bcd60e51b81526004016102c3906140da565b60408101518151600091610e1491889190613274565b905060008111610e365760405162461bcd60e51b81526004016102c39061412e565b8082604001511480610e5f5750670de0b6b3a7640000818360400151610e5c91906140c7565b10155b610e7b5760405162461bcd60e51b81526004016102c390614170565b600454610e989083908390600160a01b900463ffffffff1661348a565b610ef05760405162461bcd60e51b815260206004820152602360248201527f636f6c6c61746572616c20726174696f2066616c6c732062656c6f77206578696044820152623a21a960e91b60648201526084016102c3565b600080610eff84338a8a6134d3565b90925090508015610f1557610f1530338361365b565b8115610f2557610f2533836136ce565b6003546040516376fd4fdf60e01b81526001600160a01b03909116906376fd4fdf90610f5a9033908c906000906004016141c2565b600060405180830381600087803b158015610f7457600080fd5b505af1158015610f88573d6000803e3d6000fd5b50505050610f963384613718565b3360008181526005602090815260408083205481518d8152928301889052908201859052606082019290925260808101919091526000805160206143bd8339815191529060a00160405180910390a2919450909250505061100460016000805160206143dd83398151915255565b9250929050565b6001546001600160a01b031633146110355760405162461bcd60e51b81526004016102c390614048565b6003546001600160a01b0316156110875760405162461bcd60e51b81526020600482015260166024820152751c1bdbdb081d1bdad95b88185b1c9958591e481cd95d60521b60448201526064016102c3565b600380546001600160a01b0319166001600160a01b0392909216919091179055565b60006110b433612f07565b6110d05760405162461bcd60e51b81526004016102c39061408d565b60405163596090c960e11b81523060048201819052602482015260448101839052600160648201526000906001600160a01b0385169063b2c12192906084016020604051808303816000875af115801561112e573d6000803e3d6000fd5b505050506040513d601f19601f820116820180604052508101906111529190614074565b9050806008600082825461116691906141e5565b9091555090949350505050565b61117b612d9e565b600081116111cb5760405162461bcd60e51b815260206004820181905260248201527f747279696e6720746f207769746864726177207a65726f20662d61737365747360448201526064016102c3565b60006111d5612f81565b905060006111e38233613441565b9050808311156112355760405162461bcd60e51b815260206004820152601e60248201527f6672656520662d61737365742062616c616e636520746f6f20736d616c6c000060448201526064016102c3565b61123f33846137b9565b61124a30338561365b565b336000818152600560209081526040808320548151848152928301849052908201859052606082019290925260808101919091526000805160206143bd8339815191529060a00160405180910390a25050610adb60016000805160206143dd83398151915255565b6001546001600160a01b031633146112dc5760405162461bcd60e51b81526004016102c390614048565b600454600160c01b900463ffffffff16811161132a5760405162461bcd60e51b815260206004820152600d60248201526c76616c756520746f6f206c6f7760981b60448201526064016102c3565b611333816137fa565b600460146101000a81548163ffffffff021916908363ffffffff16021790555050565b61135f33612f07565b61137b5760405162461bcd60e51b81526004016102c39061408d565b6004805460408051638c2b8ae160e01b815290516001600160a01b0390921692638c2b8ae19282820192602092908290030181865afa1580156113c2573d6000803e3d6000fd5b505050506040513d601f19601f820116820180604052508101906113e691906141f8565b6040516317066a5760e21b81526001600160a01b0383811660048301529190911690635c19a95c90602401600060405180830381600087803b15801561142b57600080fd5b505af115801561143f573d6000803e3d6000fd5b5050505050565b61144f33612f07565b61146b5760405162461bcd60e51b81526004016102c39061408d565b806001600160a01b031663f2a1f7676040518163ffffffff1660e01b8152600401600060405180830381600087803b15801561142b57600080fd5b6114af33612f07565b6114cb5760405162461bcd60e51b81526004016102c39061408d565b6004805460408051638c2b8ae160e01b815290516001600160a01b0390921692638c2b8ae19282820192602092908290030181865afa158015611512573d6000803e3d6000fd5b505050506040513d601f19601f8201168201806040525081019061153691906141f8565b6001600160a01b03166392ab89bb6040518163ffffffff1660e01b8152600401600060405180830381600087803b15801561157057600080fd5b505af1158015611584573d6000803e3d6000fd5b50505050565b6001546001600160a01b031633146115b45760405162461bcd60e51b81526004016102c390614048565b600454600160a01b900463ffffffff1681106116035760405162461bcd60e51b815260206004820152600e60248201526d0ecc2d8eaca40e8dede40d0d2ced60931b60448201526064016102c3565b600081116116455760405162461bcd60e51b815260206004820152600f60248201526e6d757374206265206e6f6e7a65726f60881b60448201526064016102c3565b61164e816137fa565b600460186101000a81548163ffffffff021916908363ffffffff16021790555050565b6001546001600160a01b0316331461169b5760405162461bcd60e51b81526004016102c390614048565b61271081106116dd5760405162461bcd60e51b815260206004820152600e60248201526d0ecc2d8eaca40e8dede40d0d2ced60931b60448201526064016102c3565b6000811161171f5760405162461bcd60e51b815260206004820152600f60248201526e6d757374206265206e6f6e7a65726f60881b60448201526064016102c3565b61172881613863565b6004601c6101000a81548161ffff021916908361ffff16021790555050565b6001546001600160a01b031633146117715760405162461bcd60e51b81526004016102c390614048565b806007600082825461178391906141e5565b909155505050565b600080611796612d9e565b60006117a0612f81565b90506103e881604001516117b49190614215565b815111156118045760405162461bcd60e51b815260206004820152601a60248201527f706f6f6c206e61742062616c616e636520746f6f20736d616c6c00000000000060448201526064016102c3565b670de0b6b3a764000034101561185c5760405162461bcd60e51b815260206004820152601d60248201527f616d6f756e74206f66206e61742073656e7420697320746f6f206c6f7700000060448201526064016102c3565b80516000036119ba5780604001513410156119055760405162461bcd60e51b815260206004820152606060248201527f696620706f6f6c20686173206e6f20746f6b656e732c2062757420686f6c647360448201527f20636f6c6c61746572616c2c20796f75206e65656420746f2073656e6420617460648201527f206c65617374207468617420616d6f756e74206f6620636f6c6c61746572616c608482015260a4016102c3565b60a081015160c0820151606083015161191f929091613274565b3410156119ba5760405162461bcd60e51b815260206004820152605f60248201527f496620706f6f6c20686173206e6f20746f6b656e732c2062757420686f6c647360448201527f20662d61737365742c20796f75206e65656420746f2073656e64206174206c6560648201527f61737420662d617373657420776f727468206f6620636f6c6c61746572616c00608482015260a4016102c3565b60006119c682346138c6565b90506000808360000151116119dc5760006119ee565b825160808401516119ee918490613274565b9050600086611a0657611a018883613a0a565b611a08565b815b90508015611aab57600254604051636eb1769f60e11b815233600482015230602482015282916001600160a01b03169063dd62ed3e90604401602060405180830381865afa158015611a5e573d6000803e3d6000fd5b505050506040513d601f19601f82011682018060405250810190611a829190614074565b1015611aa05760405162461bcd60e51b81526004016102c39061422c565b611aab33308361365b565b611abe33611ab983856140c7565b6137b9565b611ac6613a20565b6001546000546004805460405163053fe26160e31b81526001600160a01b0393841692810192909252821660248201529116906329ff130890604401600060405180830381600087803b158015611b1c57600080fd5b505af1158015611b30573d6000803e3d6000fd5b50506003546040516340c10f1960e01b815233600482015260248101879052600093506001600160a01b0390911691506340c10f19906044016020604051808303816000875af1158015611b88573d6000803e3d6000fd5b505050506040513d601f19601f82011682018060405250810190611bac9190614074565b33600081815260056020908152604091829020548251348152918201899052818301879052606082015260808101849052905192935090917f8837aea61d24df2daef4ee681be933e5ea5c7ebe3cde964adef015dad51fe7859181900360a00190a292955091935050505061100460016000805160206143dd83398151915255565b6001546001600160a01b03163314611c585760405162461bcd60e51b81526004016102c390614048565b611c60612d9e565b6000611c6a612f81565b9050611c768484613a82565b600354600080546040516370a0823160e01b81526001600160a01b039182166004820152919216906370a0823190602401602060405180830381865afa158015611cc4573d6000803e3d6000fd5b505050506040513d601f19601f82011682018060405250810190611ce89190614074565b9050600080836040015111611cfd5781611d0f565b60408301518351611d0f918690613274565b90506000611d1d8284613a0a565b90508015611e215760008054611d409086906001600160a01b03168460026134d3565b50600054909150611d5a906001600160a01b0316826136ce565b6003546000546040516376fd4fdf60e01b81526001600160a01b03928316926376fd4fdf92611d939291169086906001906004016141c2565b600060405180830381600087803b158015611dad57600080fd5b505af1158015611dc1573d6000803e3d6000fd5b5050600080546001600160a01b03168082526005602090815260408084205481518981529283018590529082018490526060820193909352608081019290925292506000805160206143bd833981519152915060a00160405180910390a2505b50505050611e3c60016000805160206143dd83398151915255565b505050565b611e4a33612f07565b611e665760405162461bcd60e51b81526004016102c39061408d565b600480546040805163b302f39360e01b815290516001600160a01b039092169263b302f39392828201926000929082900301818387803b15801561157057600080fd5b611eb1612d9e565b600260009054906101000a90046001600160a01b03166001600160a01b031663194307bf6040518163ffffffff1660e01b8152600401602060405180830381865afa158015611f04573d6000803e3d6000fd5b505050506040513d601f19601f82011682018060405250810190611f289190614263565b611f6d5760405162461bcd60e51b8152602060048201526016602482015275198b585cdcd95d081b9bdd081d195c9b5a5b985d195960521b60448201526064016102c3565b6003546040516370a0823160e01b81523360048201526000916001600160a01b0316906370a0823190602401602060405180830381865afa158015611fb6573d6000803e3d6000fd5b505050506040513d601f19601f82011682018060405250810190611fda9190614074565b9050600081116120225760405162461bcd60e51b81526020600482015260136024820152726e6f7468696e6720746f20776974686472617760681b60448201526064016102c3565b60006120a9600854600360009054906101000a90046001600160a01b03166001600160a01b03166318160ddd6040518163ffffffff1660e01b8152600401602060405180830381865afa15801561207d573d6000803e3d6000fd5b505050506040513d601f19601f820116820180604052508101906120a19190614074565b849190613274565b6003546040516376fd4fdf60e01b81529192506001600160a01b0316906376fd4fdf906120df90339086906001906004016141c2565b600060405180830381600087803b1580156120f957600080fd5b505af115801561210d573d6000803e3d6000fd5b5050505061211b3382613a82565b505061213460016000805160206143dd83398151915255565b565b61213f33612f07565b61215b5760405162461bcd60e51b81526004016102c39061408d565b6004805460405163177adf7f60e31b81526001600160a01b03858116938201939093526024810184905291169063bbd6fbf890604401610b8c565b6000806121a1612f81565b9050610c518184613441565b6000806121b8612f81565b9050610c518184613166565b6001546001600160a01b031633146121ee5760405162461bcd60e51b81526004016102c390614048565b612134613a20565b6121fe612d9e565b600084116122445760405162461bcd60e51b8152602060048201526013602482015272746f6b656e207368617265206973207a65726f60681b60448201526064016102c3565b6003546040516370a0823160e01b81523360048201526000916001600160a01b0316906370a0823190602401602060405180830381865afa15801561228d573d6000803e3d6000fd5b505050506040513d601f19601f820116820180604052508101906122b19190614074565b9050808511156122fb5760405162461bcd60e51b8152602060048201526015602482015274746f6b656e2062616c616e636520746f6f206c6f7760581b60448201526064016102c3565b6000612305612f81565b805190915086148061232c57508051670de0b6b3a7640000906123299088906140c7565b10155b6123485760405162461bcd60e51b81526004016102c3906140da565b8051604082015160009161235e91908990613274565b9050600081116123805760405162461bcd60e51b81526004016102c39061412e565b80826040015114806123a95750670de0b6b3a76400008183604001516123a691906140c7565b10155b6123c55760405162461bcd60e51b81526004016102c390614170565b60015460008054604051631e8bee0160e01b81526001600160a01b03918216600482015291921690631e8bee0190602401602060405180830381865afa158015612413573d6000803e3d6000fd5b505050506040513d601f19601f820116820180604052508101906124379190614074565b90506000612445848461339a565b90508082101561257757508061245b8482613ab6565b9250600083116124e35760405162461bcd60e51b815260206004820152604760248201527f616d6f756e74206f662073656e7420746f6b656e7320697320746f6f20736d6160448201527f6c6c206166746572206167656e74206d617820726564656d70746f6e20636f726064820152663932b1ba34b7b760c91b608482015260a4016102c3565b828460400151148061250c5750670de0b6b3a764000083856040015161250991906140c7565b10155b6125285760405162461bcd60e51b81526004016102c390614170565b6040840151845161253a918590613274565b6040805182815260208101849052919a507f7543f09ac709677c25f5aa8284e92f885eae7c7496789dd47cf87e28e5a1cf1c910160405180910390a15b60006125838533613441565b905060008061259587338e60006134d3565b915091508383101561265c5760006125ad84866140c7565b600254604051636eb1769f60e11b815233600482015230602482015291925082916001600160a01b039091169063dd62ed3e90604401602060405180830381865afa158015612600573d6000803e3d6000fd5b505050506040513d601f19601f820116820180604052508101906126249190614074565b10156126425760405162461bcd60e51b81526004016102c39061422c565b60025461265a906001600160a01b0316333084613b38565b505b83156127eb57600160009054906101000a90046001600160a01b03166001600160a01b0316634942f65f6040518163ffffffff1660e01b8152600401602060405180830381865afa1580156126b5573d6000803e3d6000fd5b505050506040513d601f19601f820116820180604052508101906126d99190614074565b8410806126e357508a5b1561275b57600154600054604051630ed000b360e41b81526001600160a01b0391821660048201523360248201526044810187905291169063ed000b3090606401600060405180830381600087803b15801561273e57600080fd5b505af1158015612752573d6000803e3d6000fd5b505050506127eb565b600160009054906101000a90046001600160a01b03166001600160a01b031663997be0f43460008054906101000a90046001600160a01b031633888f8f6040518763ffffffff1660e01b81526004016127b89594939291906142d0565b6000604051808303818588803b1580156127d157600080fd5b505af11580156127e5573d6000803e3d6000fd5b50505050505b60006127f78585613a0a565b9050801561284957806007600082825461281191906140c7565b90915550612821905033826137b9565b600061282d8284613a0a565b905061283981846140c7565b925061284581856141e5565b9350505b811561285a5761285a30338461365b565b821561286a5761286a33846136ce565b600360009054906101000a90046001600160a01b03166001600160a01b03166376fd4fdf338f60006040518463ffffffff1660e01b81526004016128b0939291906141c2565b600060405180830381600087803b1580156128ca57600080fd5b505af11580156128de573d6000803e3d6000fd5b505050506128ec3388613718565b336001600160a01b03166000805160206143bd8339815191528e89848960056000336001600160a01b03166001600160a01b031681526020019081526020016000205460405161295e959493929190948552602085019390935260408401919091526060830152608082015260a00190565b60405180910390a250505050505050505061158460016000805160206143dd83398151915255565b61298e612d9e565b806000036129de5760405162461bcd60e51b815260206004820152601960248201527f7a65726f20662d61737365742064656274207061796d656e740000000000000060448201526064016102c3565b33600090815260056020526040902054811115612a3d5760405162461bcd60e51b815260206004820152601e60248201527f6465627420662d61737365742062616c616e636520746f6f20736d616c6c000060448201526064016102c3565b600254604051636eb1769f60e11b815233600482015230602482015282916001600160a01b03169063dd62ed3e90604401602060405180830381865afa158015612a8b573d6000803e3d6000fd5b505050506040513d601f19601f82011682018060405250810190612aaf9190614074565b1015612acd5760405162461bcd60e51b81526004016102c39061422c565b612ad733826136ce565b612ae233308361365b565b336000818152600560209081526040808320548151848152928301849052908201859052606082015260808101919091527f8837aea61d24df2daef4ee681be933e5ea5c7ebe3cde964adef015dad51fe7859060a00160405180910390a2610adb60016000805160206143dd83398151915255565b6001546001600160a01b03163314612b815760405162461bcd60e51b81526004016102c390614048565b612b89612d9e565b6004546001600160a01b03828116911614612d7057600480546040516370a0823160e01b815230928101929092526000916001600160a01b03909116906370a0823190602401602060405180830381865afa158015612bec573d6000803e3d6000fd5b505050506040513d601f19601f82011682018060405250810190612c109190614074565b6004805460ff60f01b198116600160f01b178255604051632e1a7d4d60e01b81529293506001600160a01b031691632e1a7d4d91612c549185910190815260200190565b600060405180830381600087803b158015612c6e57600080fd5b505af1158015612c82573d6000803e3d6000fd5b50506004805460ff60f01b1916815560408051630d0e30db60e41b815290516001600160a01b038716945063d0e30db09350859282810192600092919082900301818588803b158015612cd457600080fd5b505af1158015612ce8573d6000803e3d6000fd5b5050600480546001600160a01b0319166001600160a01b03878116918217835560015460005460405163053fe26160e31b81529083169481019490945260248401929092521693506329ff130892506044019050600060405180830381600087803b158015612d5657600080fd5b505af1158015612d6a573d6000803e3d6000fd5b50505050505b610adb60016000805160206143dd83398151915255565b600080612d92612f81565b9050610c518184613b70565b6000805160206143dd833981519152805460011901612dff5760405162461bcd60e51b815260206004820152601f60248201527f5265656e7472616e637947756172643a207265656e7472616e742063616c6c0060448201526064016102c3565b60029055565b8015612ea0576000826001600160a01b03168260405160006040518083038185875af1925050503d8060008114612e58576040519150601f19603f3d011682016040523d82523d6000602084013e612e5d565b606091505b5050905080611e3c5760405162461bcd60e51b815260206004820152600f60248201526e1d1c985b9cd9995c8819985a5b1959608a1b60448201526064016102c3565b5050565b6040516001600160a01b038316602482015260448101829052611e3c90849063a9059cbb60e01b906064015b60408051601f198184030181529190526020810180516001600160e01b03166001600160e01b031990931692909217909152613c10565b6001546000805460405163d6b93a9f60e01b81526001600160a01b03918216600482015284821660248201529192169063d6b93a9f90604401602060405180830381865afa158015612f5d573d6000803e3d6000fd5b505050506040513d601f19601f82011682018060405250810190610b2a9190614263565b612fc16040518060e00160405280600081526020016000815260200160008152602001600081526020016000815260200160008152602001600081525090565b60075460015460408051628c4abb60e21b8152815160009384936001600160a01b03909116926302312aec92600480830193928290030181865afa15801561300d573d6000803e3d6000fd5b505050506040513d601f19601f820116820180604052508101906130319190614315565b915091506040518060e00160405280600360009054906101000a90046001600160a01b03166001600160a01b03166318160ddd6040518163ffffffff1660e01b8152600401602060405180830381865afa158015613093573d6000803e3d6000fd5b505050506040513d601f19601f820116820180604052508101906130b79190614074565b815260015460005460405163769bb15560e11b81526001600160a01b03918216600482015260209093019291169063ed3762aa90602401602060405180830381865afa15801561310b573d6000803e3d6000fd5b505050506040513d601f19601f8201168201806040525081019061312f9190614074565b815260200160085481526020018481526020016006548561315091906141e5565b8152602081019390935260409092015292915050565b6003546040516370a0823160e01b81526001600160a01b03838116600483015260009283929116906370a0823190602401602060405180830381865afa1580156131b4573d6000803e3d6000fd5b505050506040513d601f19601f820116820180604052508101906131d89190614074565b9050806000036131ec576000915050610b2a565b6001600160a01b0383166000908152600560205260408120549081900361321557509050610b2a565b8451608086015160009161322b91908590613274565b90506000613239828461325a565b6080880151885191925061324f91908390613274565b979650505050505050565b600081831161326a576000610c51565b610c5182846140c7565b60008082116132b85760405162461bcd60e51b815260206004820152601060248201526f4469766973696f6e206279207a65726f60801b60448201526064016102c3565b836000036132c857506000610c51565b838302838582816132db576132db614339565b04036132f9578281816132f0576132f0614339565b04915050610c51565b506000613306838661434f565b905060006133148487614363565b90506000613322858761434f565b905060006133308688614363565b90508561333d8285614215565b613347919061434f565b6133518385614215565b61335b8387614215565b886133668689614215565b6133709190614215565b61337a91906141e5565b61338491906141e5565b61338e91906141e5565b98975050505050505050565b6004546000906133ba9084908390600160a01b900463ffffffff1661348a565b1561342c576134258360200151600460149054906101000a900463ffffffff1663ffffffff168560a001516133ef9190614215565b61271085876040015161340291906140c7565b8760c001516134119190614215565b61341b9190614215565b610c4c919061434f565b9050610b2a565b60408301516020840151613425918490613274565b60008061344e8484613b70565b6001600160a01b038416600090815260056020526040902054909150613481613477838361325a565b8660600151613a0a565b95945050505050565b60006134aa828560a0015186602001516134a49190614215565b90613ce5565b8460c001518486604001516134bf91906140c7565b6134c99190614215565b1015949350505050565b60008060006134e28787613b70565b6001600160a01b038781166000818152600560205260408082205460035491516370a0823160e01b81526004810194909452949550909216906370a0823190602401602060405180830381865afa158015613541573d6000803e3d6000fd5b505050506040513d601f19601f820116820180604052508101906135659190614074565b90508060000361357e5760008094509450505050613652565b600061358b848984613274565b905060008760028111156135a1576135a1614377565b036135d25760006135b2858561325a565b90506135be8282613a0a565b95506135ca86836140c7565b965050613631565b60018760028111156135e6576135e6614377565b03613608576135f58184613a0a565b955061360186826140c7565b9450613631565b60008411613617576000613622565b613622838286613274565b955061362e86826140c7565b94505b61363d85600754613a0a565b945061364b86600654613a0a565b9550505050505b94509492505050565b8015611e3c57306001600160a01b0384160361369f57806007600082825461368391906140c7565b9091555050600254611e3c906001600160a01b03168383612ea4565b80600760008282546136b191906141e5565b9091555050600254611e3c906001600160a01b0316848484613b38565b6001600160a01b038216600090815260056020526040812080548392906136f69084906140c7565b92505081905550806006600082825461370f91906140c7565b90915550505050565b8015612ea057806008600082825461373091906140c7565b909155505060048054600160f01b60ff60f01b198216178255604051632e1a7d4d60e01b81529182018390526001600160a01b031690632e1a7d4d90602401600060405180830381600087803b15801561378957600080fd5b505af115801561379d573d6000803e3d6000fd5b50506004805460ff60f01b1916905550612ea090508282612e05565b6001600160a01b038216600090815260056020526040812080548392906137e19084906141e5565b92505081905550806006600082825461370f91906141e5565b600063ffffffff82111561385f5760405162461bcd60e51b815260206004820152602660248201527f53616665436173743a2076616c756520646f65736e27742066697420696e203360448201526532206269747360d01b60648201526084016102c3565b5090565b600061ffff82111561385f5760405162461bcd60e51b815260206004820152602660248201527f53616665436173743a2076616c756520646f65736e27742066697420696e203160448201526536206269747360d01b60648201526084016102c3565b6000808360400151600014806138db57508351155b600454602086015160a087015192935060009261390992600160c01b900463ffffffff16916134a491614215565b905060008560c0015186604001516139219190614215565b821161392e57600061394c565b604086015160c0870151613942908461434f565b61394c91906140c7565b9050600061395a8683613a0a565b90506000613968878361325a565b60045490915060009061398b90849061271090600160e01b900461ffff16613274565b90506000866139ab5760408a01518a516139a6918490613274565b6139ad565b815b905060008780156139bc575081155b6139ed576139e884868d604001516139d491906141e5565b8d516139e19086906141e5565b9190613274565b6139ef565b835b90506139fb81836141e5565b9b9a5050505050505050505050565b6000818310613a195781610c51565b5090919050565b3415612134573460086000828254613a3891906141e5565b90915550506004805460408051630d0e30db60e41b815290516001600160a01b039092169263d0e30db0923492808301926000929182900301818588803b15801561142b57600080fd5b8015612ea0578060086000828254613a9a91906140c7565b9091555050600454612ea0906001600160a01b03168383612ea4565b600454600090613ad69084908390600160a01b900463ffffffff1661348a565b15613b235761342583604001518460c0015161341b600460149054906101000a900463ffffffff1663ffffffff16868860200151613b1491906140c7565b8860a001516134a49190614215565b60208301516040840151613425918490613274565b6040516001600160a01b03808516602483015283166044820152606481018290526115849085906323b872dd60e01b90608401612ed0565b6003546040516370a0823160e01b81526001600160a01b03838116600483015260009283929116906370a0823190602401602060405180830381865afa158015613bbe573d6000803e3d6000fd5b505050506040513d601f19601f82011682018060405250810190613be29190614074565b905080600003613bf6576000915050610b2a565b83516080850151613c08918390613274565b949350505050565b6000613c65826040518060400160405280602081526020017f5361666545524332303a206c6f772d6c6576656c2063616c6c206661696c6564815250856001600160a01b0316613cf49092919063ffffffff16565b9050805160001480613c86575080806020019051810190613c869190614263565b611e3c5760405162461bcd60e51b815260206004820152602a60248201527f5361666545524332303a204552433230206f7065726174696f6e20646964206e6044820152691bdd081cdd58d8d9595960b21b60648201526084016102c3565b6000610c518383612710613274565b6060613c08848460008585600080866001600160a01b03168587604051613d1b919061438d565b60006040518083038185875af1925050503d8060008114613d58576040519150601f19603f3d011682016040523d82523d6000602084013e613d5d565b606091505b509150915061324f8783838760608315613dd8578251600003613dd1576001600160a01b0385163b613dd15760405162461bcd60e51b815260206004820152601d60248201527f416464726573733a2063616c6c20746f206e6f6e2d636f6e747261637400000060448201526064016102c3565b5081613c08565b613c088383815115613ded5781518083602001fd5b8060405162461bcd60e51b81526004016102c391906143a9565b6001600160a01b0381168114610adb57600080fd5b8035613e2781613e07565b919050565b600060208284031215613e3e57600080fd5b8135610c5181613e07565b600060208284031215613e5b57600080fd5b81356001600160e01b031981168114610c5157600080fd5b60008060408385031215613e8657600080fd5b8235613e9181613e07565b946020939093013593505050565b600060208284031215613eb157600080fd5b5035919050565b60008060408385031215613ecb57600080fd5b82359150602083013560038110613ee157600080fd5b809150509250929050565b8015158114610adb57600080fd5b60008060408385031215613f0d57600080fd5b823591506020830135613ee181613eec565b600080600060608486031215613f3457600080fd5b8335613f3f81613e07565b95602085013595506040909401359392505050565b634e487b7160e01b600052604160045260246000fd5b60008060008060808587031215613f8057600080fd5b843593506020850135613f9281613eec565b9250604085013567ffffffffffffffff80821115613faf57600080fd5b818701915087601f830112613fc357600080fd5b813581811115613fd557613fd5613f54565b604051601f8201601f19908116603f01168101908382118183101715613ffd57613ffd613f54565b816040528281528a602084870101111561401657600080fd5b82602086016020830137600060208483010152809650505050505061403d60608601613e1c565b905092959194509250565b60208082526012908201527137b7363c9030b9b9b2ba1036b0b730b3b2b960711b604082015260600190565b60006020828403121561408657600080fd5b5051919050565b6020808252600a90820152691bdb9b1e481859d95b9d60b21b604082015260600190565b634e487b7160e01b600052601160045260246000fd5b81810381811115610b2a57610b2a6140b1565b60208082526034908201527f746f6b656e20737570706c79206c656674206166746572206578697420697320604082015273746f6f206c6f7720616e64206e6f6e2d7a65726f60601b606082015260800190565b60208082526022908201527f616d6f756e74206f662073656e7420746f6b656e7320697320746f6f20736d616040820152611b1b60f21b606082015260800190565b60208082526032908201527f636f6c6c61746572616c206c656674206166746572206578697420697320746f6040820152716f206c6f7720616e64206e6f6e2d7a65726f60701b606082015260800190565b6001600160a01b0393909316835260208301919091521515604082015260600190565b80820180821115610b2a57610b2a6140b1565b60006020828403121561420a57600080fd5b8151610c5181613e07565b8082028115828204841417610b2a57610b2a6140b1565b6020808252601b908201527f662d617373657420616c6c6f77616e636520746f6f20736d616c6c0000000000604082015260600190565b60006020828403121561427557600080fd5b8151610c5181613eec565b60005b8381101561429b578181015183820152602001614283565b50506000910152565b600081518084526142bc816020860160208601614280565b601f01601f19169290920160200192915050565b600060018060a01b038088168352808716602084015285604084015260a0606084015261430060a08401866142a4565b91508084166080840152509695505050505050565b6000806040838503121561432857600080fd5b505080516020909101519092909150565b634e487b7160e01b600052601260045260246000fd5b60008261435e5761435e614339565b500490565b60008261437257614372614339565b500690565b634e487b7160e01b600052602160045260246000fd5b6000825161439f818460208701614280565b9190910192915050565b602081526000610c5160208301846142a456fe3cbd229dedaa8b29b8f29100166a217701549be8e58e781f204124f23fd0154e0cd2207518cd3e5213e2c6dbe63d55b60aa893c194a427b7d7f1600408fd5bdea2646970667358221220ef5585c34c7d6973b7cbeb4ce67c390624a83587f5b835656363665e8d5b3bd464736f6c63430008170033a264697066735822122032ee69dda504ee44e77b525d0e30c56a10d7f388fe7c47fcd1195a9fe7022fbe64736f6c63430008170033",
  "linkReferences": {},
  "deployedLinkReferences": {}
}