{
  "_format": "hh-sol-artifact-1",
  "contractName": "FAsset",
  "sourceName": "contracts/fasset/implementation/FAsset.sol",
  "abi": [
    {
      "inputs": [
        {
          "internalType": "address",
          "name": "_governance",
          "type": "address"
        },
        {
          "internalType": "string",
          "name": "_name",
          "type": "string"
        },
        {
          "internalType": "string",
          "name": "_symbol",
          "type": "string"
        },
        {
          "internalType": "string",
          "name": "_assetName",
          "type": "string"
        },
        {
          "internalType": "string",
          "name": "_assetSymbol",
          "type": "string"
        },
        {
          "internalType": "uint8",
          "name": "_decimals",
          "type": "uint8"
        }
      ],
      "stateMutability": "nonpayable",
      "type": "constructor"
    },
    {
      "anonymous": false,
      "inputs": [
        {
          "indexed": true,
          "internalType": "address",
          "name": "owner",
          "type": "address"
        },
        {
          "indexed": true,
          "internalType": "address",
          "name": "spender",
          "type": "address"
        },
        {
          "indexed": false,
          "internalType": "uint256",
          "name": "value",
          "type": "uint256"
        }
      ],
      "name": "Approval",
      "type": "event"
    },
    {
      "anonymous": false,
      "inputs": [
        {
          "indexed": false,
          "internalType": "uint256",
          "name": "_blockNumber",
          "type": "uint256"
        }
      ],
      "name": "CreatedTotalSupplyCache",
      "type": "event"
    },
    {
      "anonymous": false,
      "inputs": [
        {
          "indexed": false,
          "internalType": "bytes4",
          "name": "selector",
          "type": "bytes4"
        },
        {
          "indexed": false,
          "internalType": "uint256",
          "name": "allowedAfterTimestamp",
          "type": "uint256"
        },
        {
          "indexed": false,
          "internalType": "bytes",
          "name": "encodedCall",
          "type": "bytes"
        }
      ],
      "name": "GovernanceCallTimelocked",
      "type": "event"
    },
    {
      "anonymous": false,
      "inputs": [
        {
          "indexed": false,
          "internalType": "address",
          "name": "initialGovernance",
          "type": "address"
        }
      ],
      "name": "GovernanceInitialised",
      "type": "event"
    },
    {
      "anonymous": false,
      "inputs": [
        {
          "indexed": false,
          "internalType": "address",
          "name": "governanceSettings",
          "type": "address"
        }
      ],
      "name": "GovernedProductionModeEntered",
      "type": "event"
    },
    {
      "anonymous": false,
      "inputs": [
        {
          "indexed": false,
          "internalType": "bytes4",
          "name": "selector",
          "type": "bytes4"
        },
        {
          "indexed": false,
          "internalType": "uint256",
          "name": "timestamp",
          "type": "uint256"
        }
      ],
      "name": "TimelockedGovernanceCallCanceled",
      "type": "event"
    },
    {
      "anonymous": false,
      "inputs": [
        {
          "indexed": false,
          "internalType": "bytes4",
          "name": "selector",
          "type": "bytes4"
        },
        {
          "indexed": false,
          "internalType": "uint256",
          "name": "timestamp",
          "type": "uint256"
        }
      ],
      "name": "TimelockedGovernanceCallExecuted",
      "type": "event"
    },
    {
      "anonymous": false,
      "inputs": [
        {
          "indexed": true,
          "internalType": "address",
          "name": "from",
          "type": "address"
        },
        {
          "indexed": true,
          "internalType": "address",
          "name": "to",
          "type": "address"
        },
        {
          "indexed": false,
          "internalType": "uint256",
          "name": "value",
          "type": "uint256"
        }
      ],
      "name": "Transfer",
      "type": "event"
    },
    {
      "anonymous": false,
      "inputs": [
        {
          "indexed": false,
          "internalType": "uint256",
          "name": "_contractType",
          "type": "uint256"
        },
        {
          "indexed": false,
          "internalType": "address",
          "name": "_oldContractAddress",
          "type": "address"
        },
        {
          "indexed": false,
          "internalType": "address",
          "name": "_newContractAddress",
          "type": "address"
        }
      ],
      "name": "VotePowerContractChanged",
      "type": "event"
    },
    {
      "inputs": [
        {
          "internalType": "address",
          "name": "owner",
          "type": "address"
        },
        {
          "internalType": "address",
          "name": "spender",
          "type": "address"
        }
      ],
      "name": "allowance",
      "outputs": [
        {
          "internalType": "uint256",
          "name": "",
          "type": "uint256"
        }
      ],
      "stateMutability": "view",
      "type": "function"
    },
    {
      "inputs": [
        {
          "internalType": "address",
          "name": "spender",
          "type": "address"
        },
        {
          "internalType": "uint256",
          "name": "amount",
          "type": "uint256"
        }
      ],
      "name": "approve",
      "outputs": [
        {
          "internalType": "bool",
          "name": "",
          "type": "bool"
        }
      ],
      "stateMutability": "nonpayable",
      "type": "function"
    },
    {
      "inputs": [],
      "name": "assetManager",
      "outputs": [
        {
          "internalType": "address",
          "name": "",
          "type": "address"
        }
      ],
      "stateMutability": "view",
      "type": "function"
    },
    {
      "inputs": [],
      "name": "assetName",
      "outputs": [
        {
          "internalType": "string",
          "name": "",
          "type": "string"
        }
      ],
      "stateMutability": "view",
      "type": "function"
    },
    {
      "inputs": [],
      "name": "assetSymbol",
      "outputs": [
        {
          "internalType": "string",
          "name": "",
          "type": "string"
        }
      ],
      "stateMutability": "view",
      "type": "function"
    },
    {
      "inputs": [
        {
          "internalType": "address",
          "name": "_owner",
          "type": "address"
        },
        {
          "internalType": "uint256",
          "name": "_count",
          "type": "uint256"
        }
      ],
      "name": "balanceHistoryCleanup",
      "outputs": [
        {
          "internalType": "uint256",
          "name": "",
          "type": "uint256"
        }
      ],
      "stateMutability": "nonpayable",
      "type": "function"
    },
    {
      "inputs": [
        {
          "internalType": "address",
          "name": "account",
          "type": "address"
        }
      ],
      "name": "balanceOf",
      "outputs": [
        {
          "internalType": "uint256",
          "name": "",
          "type": "uint256"
        }
      ],
      "stateMutability": "view",
      "type": "function"
    },
    {
      "inputs": [
        {
          "internalType": "address",
          "name": "_owner",
          "type": "address"
        },
        {
          "internalType": "uint256",
          "name": "_blockNumber",
          "type": "uint256"
        }
      ],
      "name": "balanceOfAt",
      "outputs": [
        {
          "internalType": "uint256",
          "name": "",
          "type": "uint256"
        }
      ],
      "stateMutability": "view",
      "type": "function"
    },
    {
      "inputs": [
        {
          "internalType": "address[]",
          "name": "_delegatees",
          "type": "address[]"
        },
        {
          "internalType": "uint256[]",
          "name": "_bips",
          "type": "uint256[]"
        }
      ],
      "name": "batchDelegate",
      "outputs": [],
      "stateMutability": "nonpayable",
      "type": "function"
    },
    {
      "inputs": [
        {
          "internalType": "address[]",
          "name": "_owners",
          "type": "address[]"
        },
        {
          "internalType": "uint256",
          "name": "_blockNumber",
          "type": "uint256"
        }
      ],
      "name": "batchVotePowerOfAt",
      "outputs": [
        {
          "internalType": "uint256[]",
          "name": "",
          "type": "uint256[]"
        }
      ],
      "stateMutability": "view",
      "type": "function"
    },
    {
      "inputs": [
        {
          "internalType": "address",
          "name": "_owner",
          "type": "address"
        },
        {
          "internalType": "uint256",
          "name": "_amount",
          "type": "uint256"
        }
      ],
      "name": "burn",
      "outputs": [],
      "stateMutability": "nonpayable",
      "type": "function"
    },
    {
      "inputs": [
        {
          "internalType": "bytes4",
          "name": "_selector",
          "type": "bytes4"
        }
      ],
      "name": "cancelGovernanceCall",
      "outputs": [],
      "stateMutability": "nonpayable",
      "type": "function"
    },
    {
      "inputs": [],
      "name": "cleanerContract",
      "outputs": [
        {
          "internalType": "address",
          "name": "",
          "type": "address"
        }
      ],
      "stateMutability": "view",
      "type": "function"
    },
    {
      "inputs": [],
      "name": "cleanupBlockNumber",
      "outputs": [
        {
          "internalType": "uint256",
          "name": "",
          "type": "uint256"
        }
      ],
      "stateMutability": "view",
      "type": "function"
    },
    {
      "inputs": [],
      "name": "cleanupBlockNumberManager",
      "outputs": [
        {
          "internalType": "address",
          "name": "",
          "type": "address"
        }
      ],
      "stateMutability": "view",
      "type": "function"
    },
    {
      "inputs": [],
      "name": "decimals",
      "outputs": [
        {
          "internalType": "uint8",
          "name": "",
          "type": "uint8"
        }
      ],
      "stateMutability": "view",
      "type": "function"
    },
    {
      "inputs": [
        {
          "internalType": "address",
          "name": "spender",
          "type": "address"
        },
        {
          "internalType": "uint256",
          "name": "subtractedValue",
          "type": "uint256"
        }
      ],
      "name": "decreaseAllowance",
      "outputs": [
        {
          "internalType": "bool",
          "name": "",
          "type": "bool"
        }
      ],
      "stateMutability": "nonpayable",
      "type": "function"
    },
    {
      "inputs": [
        {
          "internalType": "address",
          "name": "_to",
          "type": "address"
        },
        {
          "internalType": "uint256",
          "name": "_bips",
          "type": "uint256"
        }
      ],
      "name": "delegate",
      "outputs": [],
      "stateMutability": "nonpayable",
      "type": "function"
    },
    {
      "inputs": [
        {
          "internalType": "address",
          "name": "_to",
          "type": "address"
        },
        {
          "internalType": "uint256",
          "name": "_amount",
          "type": "uint256"
        }
      ],
      "name": "delegateExplicit",
      "outputs": [],
      "stateMutability": "nonpayable",
      "type": "function"
    },
    {
      "inputs": [
        {
          "internalType": "address",
          "name": "_owner",
          "type": "address"
        }
      ],
      "name": "delegatesOf",
      "outputs": [
        {
          "internalType": "address[]",
          "name": "_delegateAddresses",
          "type": "address[]"
        },
        {
          "internalType": "uint256[]",
          "name": "_bips",
          "type": "uint256[]"
        },
        {
          "internalType": "uint256",
          "name": "_count",
          "type": "uint256"
        },
        {
          "internalType": "uint256",
          "name": "_delegationMode",
          "type": "uint256"
        }
      ],
      "stateMutability": "view",
      "type": "function"
    },
    {
      "inputs": [
        {
          "internalType": "address",
          "name": "_owner",
          "type": "address"
        },
        {
          "internalType": "uint256",
          "name": "_blockNumber",
          "type": "uint256"
        }
      ],
      "name": "delegatesOfAt",
      "outputs": [
        {
          "internalType": "address[]",
          "name": "_delegateAddresses",
          "type": "address[]"
        },
        {
          "internalType": "uint256[]",
          "name": "_bips",
          "type": "uint256[]"
        },
        {
          "internalType": "uint256",
          "name": "_count",
          "type": "uint256"
        },
        {
          "internalType": "uint256",
          "name": "_delegationMode",
          "type": "uint256"
        }
      ],
      "stateMutability": "view",
      "type": "function"
    },
    {
      "inputs": [
        {
          "internalType": "address",
          "name": "_who",
          "type": "address"
        }
      ],
      "name": "delegationModeOf",
      "outputs": [
        {
          "internalType": "uint256",
          "name": "",
          "type": "uint256"
        }
      ],
      "stateMutability": "view",
      "type": "function"
    },
    {
      "inputs": [
        {
          "internalType": "bytes4",
          "name": "_selector",
          "type": "bytes4"
        }
      ],
      "name": "executeGovernanceCall",
      "outputs": [],
      "stateMutability": "nonpayable",
      "type": "function"
    },
    {
      "inputs": [],
      "name": "governance",
      "outputs": [
        {
          "internalType": "address",
          "name": "",
          "type": "address"
        }
      ],
      "stateMutability": "view",
      "type": "function"
    },
    {
      "inputs": [],
      "name": "governanceSettings",
      "outputs": [
        {
          "internalType": "contract IGovernanceSettings",
          "name": "",
          "type": "address"
        }
      ],
      "stateMutability": "view",
      "type": "function"
    },
    {
      "inputs": [],
      "name": "governanceVotePower",
      "outputs": [
        {
          "internalType": "contract IGovernanceVotePower",
          "name": "",
          "type": "address"
        }
      ],
      "stateMutability": "view",
      "type": "function"
    },
    {
      "inputs": [
        {
          "internalType": "address",
          "name": "spender",
          "type": "address"
        },
        {
          "internalType": "uint256",
          "name": "addedValue",
          "type": "uint256"
        }
      ],
      "name": "increaseAllowance",
      "outputs": [
        {
          "internalType": "bool",
          "name": "",
          "type": "bool"
        }
      ],
      "stateMutability": "nonpayable",
      "type": "function"
    },
    {
      "inputs": [
        {
          "internalType": "address",
          "name": "_initialGovernance",
          "type": "address"
        }
      ],
      "name": "initialise",
      "outputs": [],
      "stateMutability": "nonpayable",
      "type": "function"
    },
    {
      "inputs": [
        {
          "internalType": "address",
          "name": "_owner",
          "type": "address"
        },
        {
          "internalType": "uint256",
          "name": "_amount",
          "type": "uint256"
        }
      ],
      "name": "mint",
      "outputs": [],
      "stateMutability": "nonpayable",
      "type": "function"
    },
    {
      "inputs": [],
      "name": "name",
      "outputs": [
        {
          "internalType": "string",
          "name": "",
          "type": "string"
        }
      ],
      "stateMutability": "view",
      "type": "function"
    },
    {
      "inputs": [],
      "name": "productionMode",
      "outputs": [
        {
          "internalType": "bool",
          "name": "",
          "type": "bool"
        }
      ],
      "stateMutability": "view",
      "type": "function"
    },
    {
      "inputs": [],
      "name": "readVotePowerContract",
      "outputs": [
        {
          "internalType": "contract IVPContractEvents",
          "name": "",
          "type": "address"
        }
      ],
      "stateMutability": "view",
      "type": "function"
    },
    {
      "inputs": [
        {
          "internalType": "address",
          "name": "_who",
          "type": "address"
        },
        {
          "internalType": "uint256",
          "name": "_blockNumber",
          "type": "uint256"
        }
      ],
      "name": "revokeDelegationAt",
      "outputs": [],
      "stateMutability": "nonpayable",
      "type": "function"
    },
    {
      "inputs": [
        {
          "internalType": "address",
          "name": "_assetManager",
          "type": "address"
        }
      ],
      "name": "setAssetManager",
      "outputs": [],
      "stateMutability": "nonpayable",
      "type": "function"
    },
    {
      "inputs": [
        {
          "internalType": "address",
          "name": "_cleanerContract",
          "type": "address"
        }
      ],
      "name": "setCleanerContract",
      "outputs": [],
      "stateMutability": "nonpayable",
      "type": "function"
    },
    {
      "inputs": [
        {
          "internalType": "uint256",
          "name": "_blockNumber",
          "type": "uint256"
        }
      ],
      "name": "setCleanupBlockNumber",
      "outputs": [],
      "stateMutability": "nonpayable",
      "type": "function"
    },
    {
      "inputs": [
        {
          "internalType": "address",
          "name": "_cleanupBlockNumberManager",
          "type": "address"
        }
      ],
      "name": "setCleanupBlockNumberManager",
      "outputs": [],
      "stateMutability": "nonpayable",
      "type": "function"
    },
    {
      "inputs": [
        {
          "internalType": "contract IIGovernanceVotePower",
          "name": "_governanceVotePower",
          "type": "address"
        }
      ],
      "name": "setGovernanceVotePower",
      "outputs": [],
      "stateMutability": "nonpayable",
      "type": "function"
    },
    {
      "inputs": [
        {
          "internalType": "contract IIVPContract",
          "name": "_vpContract",
          "type": "address"
        }
      ],
      "name": "setReadVpContract",
      "outputs": [],
      "stateMutability": "nonpayable",
      "type": "function"
    },
    {
      "inputs": [
        {
          "internalType": "contract IIVPContract",
          "name": "_vpContract",
          "type": "address"
        }
      ],
      "name": "setWriteVpContract",
      "outputs": [],
      "stateMutability": "nonpayable",
      "type": "function"
    },
    {
      "inputs": [
        {
          "internalType": "bytes4",
          "name": "_interfaceId",
          "type": "bytes4"
        }
      ],
      "name": "supportsInterface",
      "outputs": [
        {
          "internalType": "bool",
          "name": "",
          "type": "bool"
        }
      ],
      "stateMutability": "pure",
      "type": "function"
    },
    {
      "inputs": [],
      "name": "switchToProductionMode",
      "outputs": [],
      "stateMutability": "nonpayable",
      "type": "function"
    },
    {
      "inputs": [],
      "name": "symbol",
      "outputs": [
        {
          "internalType": "string",
          "name": "",
          "type": "string"
        }
      ],
      "stateMutability": "view",
      "type": "function"
    },
    {
      "inputs": [],
      "name": "terminate",
      "outputs": [],
      "stateMutability": "nonpayable",
      "type": "function"
    },
    {
      "inputs": [],
      "name": "terminated",
      "outputs": [
        {
          "internalType": "bool",
          "name": "",
          "type": "bool"
        }
      ],
      "stateMutability": "view",
      "type": "function"
    },
    {
      "inputs": [],
      "name": "terminatedAt",
      "outputs": [
        {
          "internalType": "uint64",
          "name": "",
          "type": "uint64"
        }
      ],
      "stateMutability": "view",
      "type": "function"
    },
    {
      "inputs": [
        {
          "internalType": "bytes4",
          "name": "",
          "type": "bytes4"
        }
      ],
      "name": "timelockedCalls",
      "outputs": [
        {
          "internalType": "uint256",
          "name": "allowedAfterTimestamp",
          "type": "uint256"
        },
        {
          "internalType": "bytes",
          "name": "encodedCall",
          "type": "bytes"
        }
      ],
      "stateMutability": "view",
      "type": "function"
    },
    {
      "inputs": [],
      "name": "totalSupply",
      "outputs": [
        {
          "internalType": "uint256",
          "name": "",
          "type": "uint256"
        }
      ],
      "stateMutability": "view",
      "type": "function"
    },
    {
      "inputs": [
        {
          "internalType": "uint256",
          "name": "_blockNumber",
          "type": "uint256"
        }
      ],
      "name": "totalSupplyAt",
      "outputs": [
        {
          "internalType": "uint256",
          "name": "",
          "type": "uint256"
        }
      ],
      "stateMutability": "view",
      "type": "function"
    },
    {
      "inputs": [
        {
          "internalType": "uint256",
          "name": "_blockNumber",
          "type": "uint256"
        }
      ],
      "name": "totalSupplyCacheCleanup",
      "outputs": [
        {
          "internalType": "uint256",
          "name": "",
          "type": "uint256"
        }
      ],
      "stateMutability": "nonpayable",
      "type": "function"
    },
    {
      "inputs": [
        {
          "internalType": "uint256",
          "name": "_count",
          "type": "uint256"
        }
      ],
      "name": "totalSupplyHistoryCleanup",
      "outputs": [
        {
          "internalType": "uint256",
          "name": "",
          "type": "uint256"
        }
      ],
      "stateMutability": "nonpayable",
      "type": "function"
    },
    {
      "inputs": [],
      "name": "totalVotePower",
      "outputs": [
        {
          "internalType": "uint256",
          "name": "",
          "type": "uint256"
        }
      ],
      "stateMutability": "view",
      "type": "function"
    },
    {
      "inputs": [
        {
          "internalType": "uint256",
          "name": "_blockNumber",
          "type": "uint256"
        }
      ],
      "name": "totalVotePowerAt",
      "outputs": [
        {
          "internalType": "uint256",
          "name": "",
          "type": "uint256"
        }
      ],
      "stateMutability": "view",
      "type": "function"
    },
    {
      "inputs": [
        {
          "internalType": "uint256",
          "name": "_blockNumber",
          "type": "uint256"
        }
      ],
      "name": "totalVotePowerAtCached",
      "outputs": [
        {
          "internalType": "uint256",
          "name": "",
          "type": "uint256"
        }
      ],
      "stateMutability": "nonpayable",
      "type": "function"
    },
    {
      "inputs": [
        {
          "internalType": "address",
          "name": "recipient",
          "type": "address"
        },
        {
          "internalType": "uint256",
          "name": "amount",
          "type": "uint256"
        }
      ],
      "name": "transfer",
      "outputs": [
        {
          "internalType": "bool",
          "name": "",
          "type": "bool"
        }
      ],
      "stateMutability": "nonpayable",
      "type": "function"
    },
    {
      "inputs": [
        {
          "internalType": "address",
          "name": "sender",
          "type": "address"
        },
        {
          "internalType": "address",
          "name": "recipient",
          "type": "address"
        },
        {
          "internalType": "uint256",
          "name": "amount",
          "type": "uint256"
        }
      ],
      "name": "transferFrom",
      "outputs": [
        {
          "internalType": "bool",
          "name": "",
          "type": "bool"
        }
      ],
      "stateMutability": "nonpayable",
      "type": "function"
    },
    {
      "inputs": [],
      "name": "undelegateAll",
      "outputs": [],
      "stateMutability": "nonpayable",
      "type": "function"
    },
    {
      "inputs": [
        {
          "internalType": "address[]",
          "name": "_delegateAddresses",
          "type": "address[]"
        }
      ],
      "name": "undelegateAllExplicit",
      "outputs": [
        {
          "internalType": "uint256",
          "name": "_remainingDelegation",
          "type": "uint256"
        }
      ],
      "stateMutability": "nonpayable",
      "type": "function"
    },
    {
      "inputs": [
        {
          "internalType": "address",
          "name": "_owner",
          "type": "address"
        }
      ],
      "name": "undelegatedVotePowerOf",
      "outputs": [
        {
          "internalType": "uint256",
          "name": "",
          "type": "uint256"
        }
      ],
      "stateMutability": "view",
      "type": "function"
    },
    {
      "inputs": [
        {
          "internalType": "address",
          "name": "_owner",
          "type": "address"
        },
        {
          "internalType": "uint256",
          "name": "_blockNumber",
          "type": "uint256"
        }
      ],
      "name": "undelegatedVotePowerOfAt",
      "outputs": [
        {
          "internalType": "uint256",
          "name": "",
          "type": "uint256"
        }
      ],
      "stateMutability": "view",
      "type": "function"
    },
    {
      "inputs": [
        {
          "internalType": "address",
          "name": "_from",
          "type": "address"
        },
        {
          "internalType": "address",
          "name": "_to",
          "type": "address"
        }
      ],
      "name": "votePowerFromTo",
      "outputs": [
        {
          "internalType": "uint256",
          "name": "",
          "type": "uint256"
        }
      ],
      "stateMutability": "view",
      "type": "function"
    },
    {
      "inputs": [
        {
          "internalType": "address",
          "name": "_from",
          "type": "address"
        },
        {
          "internalType": "address",
          "name": "_to",
          "type": "address"
        },
        {
          "internalType": "uint256",
          "name": "_blockNumber",
          "type": "uint256"
        }
      ],
      "name": "votePowerFromToAt",
      "outputs": [
        {
          "internalType": "uint256",
          "name": "",
          "type": "uint256"
        }
      ],
      "stateMutability": "view",
      "type": "function"
    },
    {
      "inputs": [
        {
          "internalType": "address",
          "name": "_owner",
          "type": "address"
        }
      ],
      "name": "votePowerOf",
      "outputs": [
        {
          "internalType": "uint256",
          "name": "",
          "type": "uint256"
        }
      ],
      "stateMutability": "view",
      "type": "function"
    },
    {
      "inputs": [
        {
          "internalType": "address",
          "name": "_owner",
          "type": "address"
        },
        {
          "internalType": "uint256",
          "name": "_blockNumber",
          "type": "uint256"
        }
      ],
      "name": "votePowerOfAt",
      "outputs": [
        {
          "internalType": "uint256",
          "name": "",
          "type": "uint256"
        }
      ],
      "stateMutability": "view",
      "type": "function"
    },
    {
      "inputs": [
        {
          "internalType": "address",
          "name": "_owner",
          "type": "address"
        },
        {
          "internalType": "uint256",
          "name": "_blockNumber",
          "type": "uint256"
        }
      ],
      "name": "votePowerOfAtCached",
      "outputs": [
        {
          "internalType": "uint256",
          "name": "",
          "type": "uint256"
        }
      ],
      "stateMutability": "nonpayable",
      "type": "function"
    },
    {
      "inputs": [
        {
          "internalType": "address",
          "name": "_owner",
          "type": "address"
        },
        {
          "internalType": "uint256",
          "name": "_blockNumber",
          "type": "uint256"
        }
      ],
      "name": "votePowerOfAtIgnoringRevocation",
      "outputs": [
        {
          "internalType": "uint256",
          "name": "",
          "type": "uint256"
        }
      ],
      "stateMutability": "view",
      "type": "function"
    },
    {
      "inputs": [],
      "name": "vpContractInitialized",
      "outputs": [
        {
          "internalType": "bool",
          "name": "",
          "type": "bool"
        }
      ],
      "stateMutability": "view",
      "type": "function"
    },
    {
      "inputs": [],
      "name": "writeVotePowerContract",
      "outputs": [
        {
          "internalType": "contract IVPContractEvents",
          "name": "",
          "type": "address"
        }
      ],
      "stateMutability": "view",
      "type": "function"
    }
  ],
  "bytecode": "0x60806040526011805460ff60a01b1916905560128054600160a01b600160e01b03191690553480156200003157600080fd5b506040516200561738038062005617833981810160405260c08110156200005757600080fd5b8151602083018051604051929492938301929190846401000000008211156200007f57600080fd5b9083019060208201858111156200009557600080fd5b8251640100000000811182820188101715620000b057600080fd5b82525081516020918201929091019080838360005b83811015620000df578181015183820152602001620000c5565b50505050905090810190601f1680156200010d5780820380516001836020036101000a031916815260200191505b50604052602001805160405193929190846401000000008211156200013157600080fd5b9083019060208201858111156200014757600080fd5b82516401000000008111828201881017156200016257600080fd5b82525081516020918201929091019080838360005b838110156200019157818101518382015260200162000177565b50505050905090810190601f168015620001bf5780820380516001836020036101000a031916815260200191505b5060405260200180516040519392919084640100000000821115620001e357600080fd5b908301906020820185811115620001f957600080fd5b82516401000000008111828201881017156200021457600080fd5b82525081516020918201929091019080838360005b838110156200024357818101518382015260200162000229565b50505050905090810190601f168015620002715780820380516001836020036101000a031916815260200191505b50604052602001805160405193929190846401000000008211156200029557600080fd5b908301906020820185811115620002ab57600080fd5b8251640100000000811182820188101715620002c657600080fd5b82525081516020918201929091019080838360005b83811015620002f5578181015183820152602001620002db565b50505050905090810190601f168015620003235780820380516001836020036101000a031916815260200191505b506040526020908101518751909350889250879187918491829185918591620003539160039190850190620004be565b50805162000369906004906020840190620004be565b50506005805460ff19166012179055506001600160a01b038116156200039457620003948162000414565b506001600160a01b038116620003c75760405162461bcd60e51b8152600401620003be906200057e565b60405180910390fd5b50505050620003dc81620004a860201b60201c565b8251620003f1906013906020860190620004be565b50815162000407906014906020850190620004be565b50505050505050620005df565b600c54600160a01b900460ff1615620004415760405162461bcd60e51b8152600401620003be90620005a8565b600c8054600160a01b60ff60a01b19909116176001600160a01b0319166001600160a01b0383161790556040517f9789733827840833afc031fb2ef9ab6894271f77bad2085687cf4ae5c7bee4db906200049d9083906200056a565b60405180910390a150565b6005805460ff191660ff92909216919091179055565b828054600181600116156101000203166002900490600052602060002090601f016020900481019282620004f6576000855562000541565b82601f106200051157805160ff191683800117855562000541565b8280016001018555821562000541579182015b828111156200054157825182559160200191906001019062000524565b506200054f92915062000553565b5090565b5b808211156200054f576000815560010162000554565b6001600160a01b0391909116815260200190565b60208082526010908201526f5f676f7665726e616e6365207a65726f60801b604082015260600190565b60208082526014908201527f696e697469616c6973656420213d2066616c7365000000000000000000000000604082015260600190565b61502880620005ef6000396000f3fe608060405234801561001057600080fd5b50600436106103fc5760003560e01c80638c2b8ae111610215578063c9230c5d11610125578063e587497e116100b8578063f5a9838311610087578063f5a9838314610fa2578063f5f3d4f714610faa578063f62f8f3a14610fb2578063f683776714610fcf578063f6a494af14610ff5576103fc565b8063e587497e14610ee8578063e64767aa14610f14578063ed475a7914610f4a578063f0e292c914610f76576103fc565b8063dc4fcda7116100f4578063dc4fcda714610d87578063dd62ed3e14610eaa578063deea13e714610ed8578063e17f212e14610ee0576103fc565b8063c9230c5d14610d10578063caeb942b14610d18578063d06dc3ad14610d35578063d6aa0b7714610d61576103fc565b80639d6a890f116101a8578063a9059cbb11610177578063a9059cbb14610c7a578063b302f39314610ca6578063bbd6fbf814610cae578063be0ca74714610cda578063c787a8fc14610d08576103fc565b80639d6a890f14610bd85780639dc29fac14610bfe5780639e3bc20814610c2a578063a457c2d714610c4e576103fc565b8063981b24d0116101e4578063981b24d014610b855780639b3baa0e14610ba25780639ca20e4e14610baa5780639ca2231a14610bb2576103fc565b80638c2b8ae114610b4157806392bfe6d814610b4957806394217ad114610b7557806395d89b4114610b7d576103fc565b806340c10f19116103105780635ff27079116102a357806374e6310e1161027257806374e6310e14610956578063755d10a4146109fc5780637de5b8ed14610a225780637f4fcaa914610aef57806383035a8214610b15576103fc565b80635ff27079146108da57806362354e031461090157806367fc40291461090957806370a0823114610930576103fc565b80634eac870f116102df5780634eac870f146107fd5780634ee2cd7e146108055780635aa6e675146108315780635d6d11eb14610839576103fc565b806340c10f191461069b57806343060237146106c757806343ea370b146106ed57806349e3c7e51461070a576103fc565b8063176de7a81161039357806323b872dd1161036257806323b872dd146105d8578063313ce5671461060e57806331d12a161461062c57806339509351146106525780633e5aa26a1461067e576103fc565b8063176de7a81461059c57806318160ddd146105a4578063194307bf146105ac5780631fec092a146105b4576103fc565b8063095ea7b3116103cf578063095ea7b3146105255780630c08bf881461055157806313de97f514610559578063142d101814610576576103fc565b806301ffc9a714610401578063026e402b1461043c57806304bb4e431461046a57806306fdde03146104a8575b600080fd5b6104286004803603602081101561041757600080fd5b50356001600160e01b03191661101b565b604080519115158252519081900360200190f35b6104686004803603604081101561045257600080fd5b506001600160a01b0381351690602001356110c0565b005b6104966004803603604081101561048057600080fd5b506001600160a01b038135169060200135611137565b60408051918252519081900360200190f35b6104b06111c7565b6040805160208082528351818301528351919283929083019185019080838360005b838110156104ea5781810151838201526020016104d2565b50505050905090810190601f1680156105175780820380516001836020036101000a031916815260200191505b509250505060405180910390f35b6104286004803603604081101561053b57600080fd5b506001600160a01b0381351690602001356111d6565b6104686111f3565b6104686004803603602081101561056f57600080fd5b5035611286565b6104966004803603602081101561058c57600080fd5b50356001600160a01b0316611440565b6104b06114c5565b610496611553565b610428611559565b6105bc611571565b604080516001600160a01b039092168252519081900360200190f35b610428600480360360608110156105ee57600080fd5b506001600160a01b03813581169160208101359091169060400135611580565b610616611608565b6040805160ff9092168252519081900360200190f35b6104686004803603602081101561064257600080fd5b50356001600160a01b0316611612565b6104286004803603604081101561066857600080fd5b506001600160a01b0381351690602001356117ca565b6104966004803603602081101561069457600080fd5b5035611818565b610468600480360360408110156106b157600080fd5b506001600160a01b038135169060200135611823565b610468600480360360208110156106dd57600080fd5b50356001600160a01b0316611885565b6104966004803603602081101561070357600080fd5b5035611982565b6107ad6004803603604081101561072057600080fd5b810190602081018135600160201b81111561073a57600080fd5b82018360208201111561074c57600080fd5b803590602001918460208302840111600160201b8311171561076d57600080fd5b91908080602002602001604051908101604052809392919081815260200183836020028082843760009201919091525092955050913592506119db915050565b60408051602080825283518183015283519192839290830191858101910280838360005b838110156107e95781810151838201526020016107d1565b505050509050019250505060405180910390f35b6105bc611a66565b6104966004803603604081101561081b57600080fd5b506001600160a01b038135169060200135611a75565b6105bc611a81565b6104966004803603602081101561084f57600080fd5b810190602081018135600160201b81111561086957600080fd5b82018360208201111561087b57600080fd5b803590602001918460208302840111600160201b8311171561089c57600080fd5b919080806020026020016040519081016040528093929190818152602001838360200280828437600092019190915250929550611b1e945050505050565b610468600480360360208110156108f057600080fd5b50356001600160e01b031916611b83565b6105bc611e02565b6104686004803603602081101561091f57600080fd5b50356001600160e01b031916611e0d565b6104966004803603602081101561094657600080fd5b50356001600160a01b0316611eb3565b61097d6004803603602081101561096c57600080fd5b50356001600160e01b031916611ece565b6040518083815260200180602001828103825283818151815260200191508051906020019080838360005b838110156109c05781810151838201526020016109a8565b50505050905090810190601f1680156109ed5780820380516001836020036101000a031916815260200191505b50935050505060405180910390f35b61046860048036036020811015610a1257600080fd5b50356001600160a01b0316611f75565b610a4860048036036020811015610a3857600080fd5b50356001600160a01b03166121d6565b604051808060200180602001858152602001848152602001838103835287818151815260200191508051906020019060200280838360005b83811015610a98578181015183820152602001610a80565b50505050905001838103825286818151815260200191508051906020019060200280838360005b83811015610ad7578181015183820152602001610abf565b50505050905001965050505050505060405180910390f35b61046860048036036020811015610b0557600080fd5b50356001600160a01b0316612272565b61049660048036036040811015610b2b57600080fd5b506001600160a01b0381351690602001356122c1565b6105bc612303565b61049660048036036040811015610b5f57600080fd5b506001600160a01b038135169060200135612312565b6105bc612349565b6104b0612358565b61049660048036036020811015610b9b57600080fd5b5035612362565b6105bc61236d565b6105bc61237c565b61046860048036036020811015610bc857600080fd5b50356001600160a01b031661238b565b61046860048036036020811015610bee57600080fd5b50356001600160a01b03166124c3565b61046860048036036040811015610c1457600080fd5b506001600160a01b038135169060200135612552565b610c326125b0565b604080516001600160401b039092168252519081900360200190f35b61042860048036036040811015610c6457600080fd5b506001600160a01b0381351690602001356125c6565b61042860048036036040811015610c9057600080fd5b506001600160a01b03813516906020013561262e565b610468612642565b61046860048036036040811015610cc457600080fd5b506001600160a01b0381351690602001356126ad565b61049660048036036040811015610cf057600080fd5b506001600160a01b03813581169160200135166127d2565b610428612813565b6104b0612823565b61049660048036036020811015610d2e57600080fd5b503561287e565b61046860048036036040811015610d4b57600080fd5b506001600160a01b038135169060200135612889565b61049660048036036020811015610d7757600080fd5b50356001600160a01b03166128aa565b61046860048036036040811015610d9d57600080fd5b810190602081018135600160201b811115610db757600080fd5b820183602082011115610dc957600080fd5b803590602001918460208302840111600160201b83111715610dea57600080fd5b9190808060200260200160405190810160405280939291908181526020018383602002808284376000920191909152509295949360208101935035915050600160201b811115610e3957600080fd5b820183602082011115610e4b57600080fd5b803590602001918460208302840111600160201b83111715610e6c57600080fd5b9190808060200260200160405190810160405280939291908181526020018383602002808284376000920191909152509295506128e9945050505050565b61049660048036036040811015610ec057600080fd5b506001600160a01b0381358116916020013516612a26565b610496612a51565b610428612a5b565b61049660048036036040811015610efe57600080fd5b506001600160a01b038135169060200135612a6b565b61049660048036036060811015610f2a57600080fd5b506001600160a01b03813581169160208101359091169060400135612ad0565b610a4860048036036040811015610f6057600080fd5b506001600160a01b038135169060200135612b6c565b61049660048036036040811015610f8c57600080fd5b506001600160a01b038135169060200135612c0b565b610468612c4b565b610496612cd5565b61049660048036036020811015610fc857600080fd5b5035612cdf565b61049660048036036020811015610fe557600080fd5b50356001600160a01b0316612d1d565b6104686004803603602081101561100b57600080fd5b50356001600160a01b0316612d52565b60006001600160e01b031982166301ffc9a760e01b148061104c57506001600160e01b031982166336372b0760e01b145b8061106757506001600160e01b031982166302d57e8d60e11b145b8061108257506001600160e01b03198216634113dcd360e11b145b8061109d57506001600160e01b03198216638562f30360e01b145b806110b857506001600160e01b03198216633b9010bd60e01b145b90505b919050565b6110c8612f0a565b6001600160a01b0316636230001a33846110e133611eb3565b856040518563ffffffff1660e01b815260040161110194939291906145a4565b600060405180830381600087803b15801561111b57600080fd5b505af115801561112f573d6000803e3d6000fd5b505050505050565b6000611141612f36565b6001600160a01b03166304bb4e4384846040518363ffffffff1660e01b815260040161116e9291906145f1565b60206040518083038186803b15801561118657600080fd5b505afa15801561119a573d6000803e3d6000fd5b505050506040513d601f19601f820116820180604052508101906111be9190614519565b90505b92915050565b60606111d1612f62565b905090565b60006111ea6111e3612ff8565b8484612ffc565b50600192915050565b6012546001600160a01b03163314611247576040805162461bcd60e51b815260206004820152601260248201527137b7363c9030b9b9b2ba1036b0b730b3b2b960711b604482015290519081900360640190fd5b601254600160a01b90046001600160401b0316611284576012805467ffffffffffffffff60a01b1916600160a01b426001600160401b0316021790555b565b6011546001600160a01b031633146112b95760405162461bcd60e51b81526004016112b090614d8e565b60405180910390fd5b6112c2816130b0565b600e546001600160a01b03161561133657600e546040516313de97f560e01b81526001600160a01b03909116906313de97f590611303908490600401614ed3565b600060405180830381600087803b15801561131d57600080fd5b505af1158015611331573d6000803e3d6000fd5b505050505b600f546001600160a01b0316158015906113615750600e54600f546001600160a01b03908116911614155b156113c957600f546040516313de97f560e01b81526001600160a01b03909116906313de97f590611396908490600401614ed3565b600060405180830381600087803b1580156113b057600080fd5b505af11580156113c4573d6000803e3d6000fd5b505050505b6010546001600160a01b03161561143d576010546040516313de97f560e01b81526001600160a01b03909116906313de97f59061140a908490600401614ed3565b600060405180830381600087803b15801561142457600080fd5b505af1158015611438573d6000803e3d6000fd5b505050505b50565b600061144a612f36565b6001600160a01b031663142d1018836040518263ffffffff1660e01b81526004016114759190614590565b60206040518083038186803b15801561148d57600080fd5b505afa1580156114a1573d6000803e3d6000fd5b505050506040513d601f19601f820116820180604052508101906110b89190614519565b6014805460408051602060026001851615610100026000190190941693909304601f8101849004840282018401909252818152929183018282801561154b5780601f106115205761010080835404028352916020019161154b565b820191906000526020600020905b81548152906001019060200180831161152e57829003601f168201915b505050505081565b60025490565b601254600160a01b90046001600160401b0316151590565b600f546001600160a01b031690565b600061158d8484846130f6565b6115fd84611599612ff8565b6115f885604051806060016040528060288152602001614fa6602891396001600160a01b038a166000908152600160205260408120906115d7612ff8565b6001600160a01b03168152602081019190915260400160002054919061320b565b612ffc565b5060015b9392505050565b60006111d1613237565b600c54600160b01b900460ff16806116345750600c54600160a81b900460ff16155b156117bf57611641613240565b6001600160a01b0381161561175757306001600160a01b0316816001600160a01b031663653718836040518163ffffffff1660e01b815260040160206040518083038186803b15801561169357600080fd5b505afa1580156116a7573d6000803e3d6000fd5b505050506040513d601f19601f820116820180604052508101906116cb91906143d9565b6001600160a01b0316146116f15760405162461bcd60e51b81526004016112b090614e91565b806001600160a01b03166313de97f5611708613275565b6040518263ffffffff1660e01b81526004016117249190614ed3565b600060405180830381600087803b15801561173e57600080fd5b505af1158015611752573d6000803e3d6000fd5b505050505b600e546040517fbec98a6c0f609cda6b9f23b95824ba6ac733cb57edd17d344f2f27968440073991611797916000916001600160a01b0316908590614702565b60405180910390a1600e80546001600160a01b0319166001600160a01b03831617905561143d565b61143d60003661327b565b60006111ea6117d7612ff8565b846115f885600160006117e8612ff8565b6001600160a01b03908116825260208083019390935260409182016000908120918c1681529252902054906133d4565b60006110b882612362565b6012546001600160a01b03163314611877576040805162461bcd60e51b815260206004820152601260248201527137b7363c9030b9b9b2ba1036b0b730b3b2b960711b604482015290519081900360640190fd5b61188182826133f9565b5050565b600c54600160b01b900460ff16806118a75750600c54600160a81b900460ff16155b156117bf576118b4613240565b6001600160a01b038116611904576040805162461bcd60e51b81526020600482015260126024820152713d32b9379030b9b9b2ba1036b0b730b3b2b960711b604482015290519081900360640190fd5b6012546001600160a01b031615611962576040805162461bcd60e51b815260206004820152601c60248201527f63616e6e6f74207265706c616365206173736574206d616e6167657200000000604482015290519081900360640190fd5b601280546001600160a01b0319166001600160a01b03831617905561143d565b600b546000906001600160a01b031633146119af5760405162461bcd60e51b81526004016112b090614a98565b600a5482106119d05760405162461bcd60e51b81526004016112b090614ca2565b6110b86009836134b9565b60606119e5612f36565b6001600160a01b03166349e3c7e584846040518363ffffffff1660e01b8152600401611a12929190614680565b60006040518083038186803b158015611a2a57600080fd5b505afa158015611a3e573d6000803e3d6000fd5b505050506040513d6000823e601f3d908101601f191682016040526111be91908101906144c7565b6011546001600160a01b031681565b60006111be83836134ed565b600c54600090600160a81b900460ff16611aa657600c546001600160a01b03166111d1565b60076001609c1b016001600160a01b031663732524946040518163ffffffff1660e01b815260040160206040518083038186803b158015611ae657600080fd5b505afa158015611afa573d6000803e3d6000fd5b505050506040513d601f19601f820116820180604052508101906111d191906143d9565b6000611b28612f0a565b6001600160a01b0316630f8b8af733846040518363ffffffff1660e01b8152600401611b559291906145cd565b602060405180830381600087803b158015611b6f57600080fd5b505af11580156114a1573d6000803e3d6000fd5b604051630debfda360e41b815260076001609c1b019063debfda3090611bad903390600401614590565b60206040518083038186803b158015611bc557600080fd5b505afa158015611bd9573d6000803e3d6000fd5b505050506040513d601f19601f82011682018060405250810190611bfd91906144f9565b611c195760405162461bcd60e51b81526004016112b090614dc5565b6001600160e01b031981166000908152600d602052604090208054611c505760405162461bcd60e51b81526004016112b090614dec565b8054421015611c715760405162461bcd60e51b81526004016112b090614b44565b6000816001018054600181600116156101000203166002900480601f016020809104026020016040519081016040528092919081815260200182805460018160011615610100020316600290048015611d0b5780601f10611ce057610100808354040283529160200191611d0b565b820191906000526020600020905b815481529060010190602001808311611cee57829003601f168201915b505050506001600160e01b031985166000908152600d602052604081208181559293509050611d3d6001830182614290565b5050600c805460ff60b01b1916600160b01b1790556040516000903090611d65908490614574565b6000604051808303816000865af19150503d8060008114611da2576040519150601f19603f3d011682016040523d82523d6000602084013e611da7565b606091505b5050600c805460ff60b01b191690556040519091507fa7326b57fc9cfe267aaea5e7f0b01757154d265620a0585819416ee9ddd2c43890611deb90869042906146a2565b60405180910390a1611dfc8161351e565b50505050565b60076001609c1b0181565b611e1561353b565b6001600160e01b031981166000908152600d6020526040902054611e4b5760405162461bcd60e51b81526004016112b090614dec565b7f7735b2391c38a81419c513e30ca578db7158eadd7101511b23e221c654d19cf88142604051611e7c9291906146a2565b60405180910390a16001600160e01b031981166000908152600d6020526040812081815590611eae6001830182614290565b505050565b6001600160a01b031660009081526020819052604090205490565b600d602090815260009182526040918290208054600180830180548651600293821615610100026000190190911692909204601f810186900486028301860190965285825291949293909290830182828015611f6b5780601f10611f4057610100808354040283529160200191611f6b565b820191906000526020600020905b815481529060010190602001808311611f4e57829003601f168201915b5050505050905082565b600c54600160b01b900460ff1680611f975750600c54600160a81b900460ff16155b156117bf57611fa4613240565b6001600160a01b0381161561216e57306001600160a01b0316816001600160a01b031663653718836040518163ffffffff1660e01b815260040160206040518083038186803b158015611ff657600080fd5b505afa15801561200a573d6000803e3d6000fd5b505050506040513d601f19601f8201168201806040525081019061202e91906143d9565b6001600160a01b0316146120545760405162461bcd60e51b81526004016112b090614e91565b601154600160a01b900460ff1615806120d95750806001600160a01b031663aa94d3f26040518163ffffffff1660e01b815260040160206040518083038186803b1580156120a157600080fd5b505afa1580156120b5573d6000803e3d6000fd5b505050506040513d601f19601f820116820180604052508101906120d991906144f9565b6120f55760405162461bcd60e51b81526004016112b090614a18565b806001600160a01b03166313de97f561210c613275565b6040518263ffffffff1660e01b81526004016121289190614ed3565b600060405180830381600087803b15801561214257600080fd5b505af1158015612156573d6000803e3d6000fd5b50506011805460ff60a01b1916600160a01b17905550505b600f546040517fbec98a6c0f609cda6b9f23b95824ba6ac733cb57edd17d344f2f279684400739916121ae916001916001600160a01b0316908590614702565b60405180910390a1600f80546001600160a01b0319166001600160a01b03831617905561143d565b6060806000806121e4612f36565b6001600160a01b0316637de5b8ed866040518263ffffffff1660e01b815260040161220f9190614590565b60006040518083038186803b15801561222757600080fd5b505afa15801561223b573d6000803e3d6000fd5b505050506040513d6000823e601f3d908101601f1916820160405261226391908101906143f5565b93509350935093509193509193565b600c54600160b01b900460ff16806122945750600c54600160a81b900460ff16155b156117bf576122a1613240565b601180546001600160a01b0319166001600160a01b03831617905561143d565b60006122cb612f36565b6001600160a01b03166331503927846122e48686611a75565b856040518463ffffffff1660e01b815260040161116e9392919061465f565b6010546001600160a01b031690565b600061231c612f36565b6001600160a01b03166392bfe6d884846040518363ffffffff1660e01b815260040161116e9291906145f1565b6012546001600160a01b031681565b60606111d1613573565b60006110b8826135d4565b600e546001600160a01b031690565b600b546001600160a01b031681565b600c54600160b01b900460ff16806123ad5750600c54600160a81b900460ff16155b156117bf576123ba613240565b306001600160a01b0316816001600160a01b031663653718836040518163ffffffff1660e01b815260040160206040518083038186803b1580156123fd57600080fd5b505afa158015612411573d6000803e3d6000fd5b505050506040513d601f19601f8201168201806040525081019061243591906143d9565b6001600160a01b03161461245b5760405162461bcd60e51b81526004016112b090614b7b565b6010546040517fbec98a6c0f609cda6b9f23b95824ba6ac733cb57edd17d344f2f2796844007399161249b916002916001600160a01b0316908590614702565b60405180910390a1601080546001600160a01b0319166001600160a01b03831617905561143d565b600c54600160a01b900460ff16156124ed5760405162461bcd60e51b81526004016112b090614d29565b600c8054600160a01b60ff60a01b19909116176001600160a01b0319166001600160a01b0383161790556040517f9789733827840833afc031fb2ef9ab6894271f77bad2085687cf4ae5c7bee4db90612547908390614590565b60405180910390a150565b6012546001600160a01b031633146125a6576040805162461bcd60e51b815260206004820152601260248201527137b7363c9030b9b9b2ba1036b0b730b3b2b960711b604482015290519081900360640190fd5b6118818282613604565b601254600160a01b90046001600160401b031681565b60006111ea6125d3612ff8565b846115f885604051806060016040528060258152602001614fce60259139600160006125fd612ff8565b6001600160a01b03908116825260208083019390935260409182016000908120918d1681529252902054919061320b565b60006111ea61263b612ff8565b84846130f6565b61264a612f0a565b6001600160a01b03166305109ecf3361266233611eb3565b6040518363ffffffff1660e01b815260040161267f9291906145f1565b600060405180830381600087803b15801561269957600080fd5b505af1158015611dfc573d6000803e3d6000fd5b600f54600e546001600160a01b039182169116811561273457816001600160a01b031663c7c62fab33866126e13388611a75565b876040518563ffffffff1660e01b815260040161270194939291906145a4565b600060405180830381600087803b15801561271b57600080fd5b505af115801561272f573d6000803e3d6000fd5b505050505b816001600160a01b0316816001600160a01b03161415801561275e57506001600160a01b03811615155b15611dfc57806001600160a01b031663c7c62fab338661277e3388611a75565b876040518563ffffffff1660e01b815260040161279e94939291906145a4565b600060405180830381600087803b1580156127b857600080fd5b505af19250505080156127c9575060015b611dfc57611dfc565b60006127dc612f36565b6001600160a01b0316639dc6b9f284846127f587611eb3565b6040518463ffffffff1660e01b815260040161116e9392919061460a565b601154600160a01b900460ff1681565b6013805460408051602060026001851615610100026000190190941693909304601f8101849004840282018401909252818152929183018282801561154b5780601f106115205761010080835404028352916020019161154b565b60006110b8826136da565b612891612f0a565b6001600160a01b031663404d9e8233846110e133611eb3565b60006128b4612f36565b6001600160a01b0316634a03d556836128cc85611eb3565b6040518363ffffffff1660e01b81526004016114759291906145f1565b805182511461290a5760405162461bcd60e51b81526004016112b0906147d8565b6000612914612f0a565b9050600061292133611eb3565b6040516305109ecf60e01b81529091506001600160a01b038316906305109ecf9061295290339085906004016145f1565b600060405180830381600087803b15801561296c57600080fd5b505af1158015612980573d6000803e3d6000fd5b5050505060005b845181101561143857826001600160a01b0316636230001a338784815181106129ac57fe5b6020026020010151858886815181106129c157fe5b60200260200101516040518563ffffffff1660e01b81526004016129e894939291906145a4565b600060405180830381600087803b158015612a0257600080fd5b505af1158015612a16573d6000803e3d6000fd5b5050600190920191506129879050565b6001600160a01b03918216600090815260016020908152604080832093909416825291909152205490565b60006111d1613275565b600c54600160a81b900460ff1681565b6000612a75612f36565b6001600160a01b031663e587497e84846040518363ffffffff1660e01b8152600401612aa29291906145f1565b602060405180830381600087803b158015612abc57600080fd5b505af115801561119a573d6000803e3d6000fd5b6000612ada612f36565b6001600160a01b031663833aca928585612af48887611a75565b866040518563ffffffff1660e01b8152600401612b1494939291906145a4565b60206040518083038186803b158015612b2c57600080fd5b505afa158015612b40573d6000803e3d6000fd5b505050506040513d601f19601f82011682018060405250810190612b649190614519565b949350505050565b606080600080612b7a612f36565b6001600160a01b031663ed475a7987876040518363ffffffff1660e01b8152600401612ba79291906145f1565b60006040518083038186803b158015612bbf57600080fd5b505afa158015612bd3573d6000803e3d6000fd5b505050506040513d6000823e601f3d908101601f19168201604052612bfb91908101906143f5565b9299919850965090945092505050565b600b546000906001600160a01b03163314612c385760405162461bcd60e51b81526004016112b090614a98565b600a546111be9060069085908590613778565b612c5361353b565b600c54600160a81b900460ff1615612c7d5760405162461bcd60e51b81526004016112b090614934565b600c8054600161ff0160a01b031916600160a81b1790556040517f83af113638b5422f9e977cebc0aaf0eaf2188eb9a8baae7f9d46c42b33a1560c90612ccb9060076001609c1b0190614590565b60405180910390a1565b60006111d1611553565b600b546000906001600160a01b03163314612d0c5760405162461bcd60e51b81526004016112b090614a98565b600a546110b89060079084906137be565b6000612d27612f36565b6001600160a01b031663f6837767836040518263ffffffff1660e01b81526004016114759190614590565b600c54600160b01b900460ff1680612d745750600c54600160a81b900460ff16155b156117bf57612d81613240565b612d8a816138ab565b600e546001600160a01b031615612dfe57600e5460405163f6a494af60e01b81526001600160a01b039091169063f6a494af90612dcb908490600401614590565b600060405180830381600087803b158015612de557600080fd5b505af1158015612df9573d6000803e3d6000fd5b505050505b600f546001600160a01b031615801590612e295750600e54600f546001600160a01b03908116911614155b15612e9157600f5460405163f6a494af60e01b81526001600160a01b039091169063f6a494af90612e5e908490600401614590565b600060405180830381600087803b158015612e7857600080fd5b505af1158015612e8c573d6000803e3d6000fd5b505050505b6010546001600160a01b031615612f055760105460405163f6a494af60e01b81526001600160a01b039091169063f6a494af90612ed2908490600401614590565b600060405180830381600087803b158015612eec57600080fd5b505af1158015612f00573d6000803e3d6000fd5b505050505b61143d565b600f546000906001600160a01b0316806111d15760405162461bcd60e51b81526004016112b090614ac7565b600e546000906001600160a01b0316806111d15760405162461bcd60e51b81526004016112b090614e23565b60038054604080516020601f6002600019610100600188161502019095169490940493840181900481028201810190925282815260609390929091830182828015612fee5780601f10612fc357610100808354040283529160200191612fee565b820191906000526020600020905b815481529060010190602001808311612fd157829003601f168201915b5050505050905090565b3390565b6001600160a01b0383166130225760405162461bcd60e51b81526004016112b090614c5e565b6001600160a01b0382166130485760405162461bcd60e51b81526004016112b090614807565b6001600160a01b0380841660008181526001602090815260408083209487168084529490915290819020849055517f8c5be1e5ebec7d5bd14f71427d1e84f3dd0314c0f7b2291e5b200ac8c7c3b925906130a3908590614ed3565b60405180910390a3505050565b600a548110156130d25760405162461bcd60e51b81526004016112b090614880565b4381106130f15760405162461bcd60e51b81526004016112b090614797565b600a55565b6001600160a01b03831661311c5760405162461bcd60e51b81526004016112b090614c19565b6001600160a01b0382166131425760405162461bcd60e51b81526004016112b090614754565b61314d8383836138cd565b61318a81604051806060016040528060268152602001614f80602691396001600160a01b038616600090815260208190526040902054919061320b565b6001600160a01b0380851660009081526020819052604080822093909355908416815220546131b990826133d4565b6001600160a01b0380841660008181526020819052604090819020939093559151908516907fddf252ad1be2c89b69c2b068fc378daa952ba7f163c4a11628f55a4df523b3ef906130a3908590614ed3565b6000818484111561322f5760405162461bcd60e51b81526004016112b09190614721565b505050900390565b60055460ff1690565b600c54600160b01b900460ff161561326d5733301461325b57fe5b600c805460ff60b01b19169055611284565b61128461353b565b600a5490565b61328361353b565b600082359050600060076001609c1b016001600160a01b0316636221a54b6040518163ffffffff1660e01b815260040160206040518083038186803b1580156132cb57600080fd5b505afa1580156132df573d6000803e3d6000fd5b505050506040513d601f19601f820116820180604052508101906133039190614519565b905060008142019050604051806040016040528082815260200186868080601f01602080910402602001604051908101604052809392919081815260200183838082843760009201829052509390945250506001600160e01b031986168152600d602090815260409091208351815583820151805191935061338c9260018501929101906142d4565b509050507fed948300a3694aa01d4a6b258bfd664350193d770c0b51f8387277f6d83ea3b6838287876040516133c594939291906146bc565b60405180910390a15050505050565b6000828201838110156111be5760405162461bcd60e51b81526004016112b090614849565b6001600160a01b03821661341f5760405162461bcd60e51b81526004016112b090614e5a565b61342b600083836138cd565b60025461343890826133d4565b6002556001600160a01b03821660009081526020819052604090205461345e90826133d4565b6001600160a01b0383166000818152602081905260408082209390935591519091907fddf252ad1be2c89b69c2b068fc378daa952ba7f163c4a11628f55a4df523b3ef906134ad908590614ed3565b60405180910390a35050565b600081815260208390526040812054156134e4575060008181526020839052604081205560016111c1565b50600092915050565b600081600a548110156135125760405162461bcd60e51b81526004016112b0906149cb565b612b64600685856139a1565b3d604051818101604052816000823e8215613537578181f35b8181fd5b613543611a81565b6001600160a01b0316336001600160a01b0316146112845760405162461bcd60e51b81526004016112b09061496b565b60048054604080516020601f6002600019610100600188161502019095169490940493840181900481028201810190925282815260609390929091830182828015612fee5780601f10612fc357610100808354040283529160200191612fee565b600081600a548110156135f95760405162461bcd60e51b81526004016112b0906149cb565b6116016007846139cc565b6001600160a01b03821661362a5760405162461bcd60e51b81526004016112b090614bd8565b613636826000836138cd565b61367381604051806060016040528060228152602001614f5e602291396001600160a01b038516600090815260208190526040902054919061320b565b6001600160a01b0383166000908152602081905260409020556002546136999082613af0565b6002556040516000906001600160a01b038416907fddf252ad1be2c89b69c2b068fc378daa952ba7f163c4a11628f55a4df523b3ef906134ad908590614ed3565b600081600a548110156136ff5760405162461bcd60e51b81526004016112b0906149cb565b43831061371e5760405162461bcd60e51b81526004016112b0906148c8565b60008061372e6009600787613b18565b915091508015613770577ffec477a10b4fcdfdf1114eb32b3caf6118b2d76d20e1fcb70007274bb4b616be856040516137679190614ed3565b60405180910390a15b509392505050565b60006001600160a01b038416156137b3576001600160a01b03841660009081526020869052604090206137ac9084846137be565b9050612b64565b506000949350505050565b6000816137cd57506000611601565b6001840154600160401b90046001600160401b0316806137f1576000915050611601565b60018501546001600160401b0316600061381761380e83886133d4565b60018503613b76565b9050815b818110801561384c575060018101600090815260208990526040902054600160c01b90046001600160401b03168610155b156138685760008181526020899052604081205560010161381b565b8281111561389d5761387981613b8c565b60018901805467ffffffffffffffff19166001600160401b03929092169190911790555b919091039695505050505050565b600b80546001600160a01b0319166001600160a01b0392909216919091179055565b601254600160a01b90046001600160401b031615613927576040805162461bcd60e51b8152602060048201526012602482015271198b585cdcd95d081d195c9b5a5b985d195960721b604482015290519081900360640190fd5b6001600160a01b038316158061394557508061394284611eb3565b10155b613996576040805162461bcd60e51b815260206004820152601760248201527f662d61737365742062616c616e636520746f6f206c6f77000000000000000000604482015290519081900360640190fd5b611eae838383613bb5565b6001600160a01b03821660009081526020849052604081206139c381846139cc565b95945050505050565b6001820154600090600160401b90046001600160401b0316806139f35760009150506111c1565b4383101580613a2557506000198101600090815260208590526040902054600160c01b90046001600160401b03168310155b15613a4d57600019016000908152602084905260409020546001600160c01b031690506111c1565b60018401546001600160401b039081166000818152602087905260409020549091600160c01b90910416841015613aa7578015613a9c5760405162461bcd60e51b81526004016112b090614cd9565b6000925050506111c1565b6001850154600090613acd9087908490600160401b90046001600160401b031688613d5b565b6000908152602087905260409020546001600160c01b0316935050505092915050565b600082821115613b125760405162461bcd60e51b81526004016112b0906148fd565b50900390565b60008181526020849052604081205481908015613b3e5760001901915060009050613b6e565b6000613b4a86866139cc565b9050613b578160016133d4565b600086815260208990526040902055925060019150505b935093915050565b6000818310613b8557816111be565b5090919050565b6000600160401b8210613bb15760405162461bcd60e51b81526004016112b090614afe565b5090565b816001600160a01b0316836001600160a01b03161415613be75760405162461bcd60e51b81526004016112b090614d57565b60006001600160a01b038416613bfe576000613c07565b613c0784611eb3565b905060006001600160a01b038416613c20576000613c29565b613c2984611eb3565b600f549091506001600160a01b03168015613ca95760405163756da1b160e11b81526001600160a01b0382169063eadb436290613c729089908990889088908b9060040161462e565b600060405180830381600087803b158015613c8c57600080fd5b505af1158015613ca0573d6000803e3d6000fd5b50505050613cce565b601154600160a01b900460ff16613cce576011805460ff60a01b1916600160a01b1790555b6010546001600160a01b03168015613d475760405163756da1b160e11b81526001600160a01b0382169063eadb436290613d14908a908a90899089908c9060040161462e565b600060405180830381600087803b158015613d2e57600080fd5b505af1158015613d42573d6000803e3d6000fd5b505050505b613d52878787613de5565b50505050505050565b60008381613d6a856001613af0565b90505b81811115613ddb576000613d976002613d916001613d8b86886133d4565b906133d4565b90613e25565b600081815260208a90526040902054909150600160c01b90046001600160401b03168510613dc757809250613dd5565b613dd2816001613af0565b91505b50613d6d565b5095945050505050565b6001600160a01b038316613e0257613dfd8282613e57565b611eae565b6001600160a01b038216613e1a57613dfd8382613eb4565b611eae838383613f63565b6000808211613e465760405162461bcd60e51b81526004016112b090614994565b818381613e4f57fe5b049392505050565b6000613e6782613d8b8543611a75565b9050613e7560068483613f99565b600a54613e89906006908590600290613778565b50613ea2613e9a83613d8b43612362565b600790613fb7565b600a54611dfc906007906002906137be565b6000613efa8260405180604001604052806016815260200175213ab937103a37b7903134b3903337b91037bbb732b960511b815250613ef38643611a75565b919061320b565b9050613f0860068483613f99565b600a54613f1c906006908590600290613778565b50613ea2613e9a836040518060400160405280601d81526020017f4275726e20746f6f2062696720666f7220746f74616c20737570706c79000000815250613ef343612362565b613f706006848484614178565b600a54613f84906006908590600290613778565b50600a54611dfc906006908490600290613778565b6001600160a01b0382166000908152602084905260409020611dfc81835b6001820154600160401b90046001600160401b03168061406e576040518060400160405280613fe584614207565b6001600160c01b03168152602001613ffc43613b8c565b6001600160401b03908116909152600080805260208681526040909120835181549490920151909216600160c01b026001600160c01b039182166001600160c01b0319909416939093171691909117905560018301805467ffffffffffffffff60401b1916600160401b179055611eae565b600019810160009081526020849052604090208054600160c01b90046001600160401b0316438114156140c4576140a484614207565b82546001600160c01b0319166001600160c01b0391909116178255611438565b8043116140cd57fe5b60405180604001604052806140e186614207565b6001600160c01b031681526020016140f843613b8c565b6001600160401b039081169091526000858152602088815260409091208351815494909201518316600160c01b026001600160c01b039283166001600160c01b0319909516949094179091169290921790915560018087018054918601909216600160401b0267ffffffffffffffff60401b199091161790555050505050565b8061418257611dfc565b6001600160a01b0383161580156141a057506001600160a01b038216155b156141a757fe5b6001600160a01b038316156141db5760006141cc826141c6878761422c565b90613af0565b90506141d9858583613f99565b505b6001600160a01b03821615611dfc5760006141fa82613d8b878661422c565b9050611438858483613f99565b6000600160c01b8210613bb15760405162461bcd60e51b81526004016112b090614a61565b6001600160a01b0381166000908152602083905260408120612b64816001810154600090600160401b90046001600160401b03168061426f5760009150506110bb565b6000190160009081526020929092525060409020546001600160c01b031690565b50805460018160011615610100020316600290046000825580601f106142b6575061143d565b601f01602090049060005260206000209081019061143d9190614358565b828054600181600116156101000203166002900490600052602060002090601f01602090048101928261430a5760008555614350565b82601f1061432357805160ff1916838001178555614350565b82800160010185558215614350579182015b82811115614350578251825591602001919060010190614335565b50613bb19291505b5b80821115613bb15760008155600101614359565b600082601f83011261437d578081fd5b8151602061439261438d83614eff565b614edc565b82815281810190858301838502870184018810156143ae578586fd5b855b858110156143cc578151845292840192908401906001016143b0565b5090979650505050505050565b6000602082840312156143ea578081fd5b81516111be81614f48565b6000806000806080858703121561440a578283fd5b84516001600160401b0380821115614420578485fd5b818701915087601f830112614433578485fd5b8151602061444361438d83614eff565b82815281810190858301838502870184018d101561445f57898afd5b8996505b8487101561448a57805161447681614f48565b835260019690960195918301918301614463565b50918a01519198509093505050808211156144a3578485fd5b506144b08782880161436d565b604087015160609097015195989097509350505050565b6000602082840312156144d8578081fd5b81516001600160401b038111156144ed578182fd5b612b648482850161436d565b60006020828403121561450a578081fd5b815180151581146111be578182fd5b60006020828403121561452a578081fd5b5051919050565b6000815180845260208085019450808401835b838110156145695781516001600160a01b031687529582019590820190600101614544565b509495945050505050565b60008251614586818460208701614f1c565b9190910192915050565b6001600160a01b0391909116815260200190565b6001600160a01b0394851681529290931660208301526040820152606081019190915260800190565b6001600160a01b0383168152604060208201819052600090612b6490830184614531565b6001600160a01b03929092168252602082015260400190565b6001600160a01b039384168152919092166020820152604081019190915260600190565b6001600160a01b03958616815293909416602084015260408301919091526060820152608081019190915260a00190565b6001600160a01b039390931683526020830191909152604082015260600190565b6000604082526146936040830185614531565b90508260208301529392505050565b6001600160e01b0319929092168252602082015260400190565b600063ffffffff60e01b861682528460208301526060604083015282606083015282846080840137818301608090810191909152601f909201601f191601019392505050565b9283526001600160a01b03918216602084015216604082015260600190565b6000602082528251806020840152614740816040850160208701614f1c565b601f01601f19169190910160400192915050565b60208082526023908201527f45524332303a207472616e7366657220746f20746865207a65726f206164647260408201526265737360e81b606082015260800190565b60208082526021908201527f436c65616e757020626c6f636b206d75737420626520696e20746865207061736040820152601d60fa1b606082015260800190565b602080825260159082015274082e4e4c2f240d8cadccee8d040dad2e6dac2e8c6d605b1b604082015260600190565b60208082526022908201527f45524332303a20617070726f766520746f20746865207a65726f206164647265604082015261737360f01b606082015260800190565b6020808252601b908201527f536166654d6174683a206164646974696f6e206f766572666c6f770000000000604082015260600190565b60208082526028908201527f436c65616e757020626c6f636b206e756d626572206d757374206e6576657220604082015267646563726561736560c01b606082015260800190565b6020808252818101527f43616e206f6e6c79206265207573656420666f72207061737420626c6f636b73604082015260600190565b6020808252601e908201527f536166654d6174683a207375627472616374696f6e206f766572666c6f770000604082015260600190565b6020808252601a908201527f616c726561647920696e2070726f64756374696f6e206d6f6465000000000000604082015260600190565b6020808252600f908201526e6f6e6c7920676f7665726e616e636560881b604082015260600190565b6020808252601a908201527f536166654d6174683a206469766973696f6e206279207a65726f000000000000604082015260600190565b6020808252602d908201527f436865636b506f696e7461626c653a2072656164696e672066726f6d20636c6560408201526c616e65642d757020626c6f636b60981b606082015260800190565b60208082526029908201527f5650436f6e7472616374206e6f7420636f6e6669677572656420666f722072656040820152681c1b1858d95b595b9d60ba1b606082015260800190565b6020808252601d908201527f76616c756520646f65736e27742066697420696e203139322062697473000000604082015260600190565b60208082526015908201527413db9b1e4818db19585b995c8818dbdb9d1c9858dd605a1b604082015260600190565b6020808252601e908201527f546f6b656e206d697373696e67207772697465205650436f6e74726163740000604082015260600190565b60208082526026908201527f53616665436173743a2076616c756520646f65736e27742066697420696e203660408201526534206269747360d01b606082015260800190565b60208082526019908201527f74696d656c6f636b3a206e6f7420616c6c6f7765642079657400000000000000604082015260600190565b6020808252603d908201527f476f7665726e616e636520766f746520706f77657220636f6e7472616374206460408201527f6f6573206e6f742062656c6f6e6720746f207468697320746f6b656e2e000000606082015260800190565b60208082526021908201527f45524332303a206275726e2066726f6d20746865207a65726f206164647265736040820152607360f81b606082015260800190565b60208082526025908201527f45524332303a207472616e736665722066726f6d20746865207a65726f206164604082015264647265737360d81b606082015260800190565b60208082526024908201527f45524332303a20617070726f76652066726f6d20746865207a65726f206164646040820152637265737360e01b606082015260800190565b6020808252601e908201527f4e6f20636c65616e757020616674657220636c65616e757020626c6f636b0000604082015260600190565b60208082526030908201527f436865636b506f696e74486973746f72793a2072656164696e672066726f6d2060408201526f636c65616e65642d757020626c6f636b60801b606082015260800190565b602080825260149082015273696e697469616c6973656420213d2066616c736560601b604082015260600190565b60208082526017908201527f43616e6e6f74207472616e7366657220746f2073656c66000000000000000000604082015260600190565b6020808252601a908201527f6f6e6c7920636c65616e757020626c6f636b206d616e61676572000000000000604082015260600190565b6020808252600d908201526c37b7363c9032bc32b1baba37b960991b604082015260600190565b6020808252601a908201527f74696d656c6f636b3a20696e76616c69642073656c6563746f72000000000000604082015260600190565b6020808252601d908201527f546f6b656e206d697373696e672072656164205650436f6e7472616374000000604082015260600190565b6020808252601f908201527f45524332303a206d696e7420746f20746865207a65726f206164647265737300604082015260600190565b60208082526022908201527f5650436f6e7472616374206e6f74206f776e6564206279207468697320746f6b60408201526132b760f11b606082015260800190565b90815260200190565b6040518181016001600160401b0381118282101715614ef757fe5b604052919050565b60006001600160401b03821115614f1257fe5b5060209081020190565b60005b83811015614f37578181015183820152602001614f1f565b83811115611dfc5750506000910152565b6001600160a01b038116811461143d57600080fdfe45524332303a206275726e20616d6f756e7420657863656564732062616c616e636545524332303a207472616e7366657220616d6f756e7420657863656564732062616c616e636545524332303a207472616e7366657220616d6f756e74206578636565647320616c6c6f77616e636545524332303a2064656372656173656420616c6c6f77616e63652062656c6f77207a65726fa2646970667358221220160d9749abf27e05c5e6a7535efe948c412c379c0698f5d2f32e4e678108daf064736f6c63430007060033",
  "linkReferences": {},
  "deployedLinkReferences": {}
}