{
  "_format": "hh-sol-artifact-1",
  "contractName": "RedemptionRequests",
  "sourceName": "contracts/fasset/library/RedemptionRequests.sol",
  "abi": [
    {
      "anonymous": false,
      "inputs": [
        {
          "indexed": true,
          "internalType": "address",
          "name": "agentVault",
          "type": "address"
        },
        {
          "indexed": false,
          "internalType": "uint256",
          "name": "dustUBA",
          "type": "uint256"
        }
      ],
      "name": "DustChanged",
      "type": "event"
    },
    {
      "anonymous": false,
      "inputs": [
        {
          "indexed": true,
          "internalType": "address",
          "name": "agentVault",
          "type": "address"
        }
      ],
      "name": "LiquidationEnded",
      "type": "event"
    },
    {
      "anonymous": false,
      "inputs": [
        {
          "indexed": true,
          "internalType": "address",
          "name": "agentVault",
          "type": "address"
        },
        {
          "indexed": true,
          "internalType": "address",
          "name": "redeemer",
          "type": "address"
        },
        {
          "indexed": false,
          "internalType": "uint256",
          "name": "redemptionAmountUBA",
          "type": "uint256"
        },
        {
          "indexed": false,
          "internalType": "uint256",
          "name": "paidClass1Wei",
          "type": "uint256"
        }
      ],
      "name": "RedeemedInCollateral",
      "type": "event"
    },
    {
      "anonymous": false,
      "inputs": [
        {
          "indexed": true,
          "internalType": "address",
          "name": "redeemer",
          "type": "address"
        },
        {
          "indexed": false,
          "internalType": "uint256",
          "name": "remainingLots",
          "type": "uint256"
        }
      ],
      "name": "RedemptionRequestIncomplete",
      "type": "event"
    },
    {
      "anonymous": false,
      "inputs": [
        {
          "indexed": true,
          "internalType": "address",
          "name": "agentVault",
          "type": "address"
        },
        {
          "indexed": true,
          "internalType": "address",
          "name": "redeemer",
          "type": "address"
        },
        {
          "indexed": false,
          "internalType": "uint256",
          "name": "requestId",
          "type": "uint256"
        },
        {
          "indexed": false,
          "internalType": "string",
          "name": "paymentAddress",
          "type": "string"
        },
        {
          "indexed": false,
          "internalType": "uint256",
          "name": "valueUBA",
          "type": "uint256"
        },
        {
          "indexed": false,
          "internalType": "uint256",
          "name": "feeUBA",
          "type": "uint256"
        },
        {
          "indexed": false,
          "internalType": "uint256",
          "name": "firstUnderlyingBlock",
          "type": "uint256"
        },
        {
          "indexed": false,
          "internalType": "uint256",
          "name": "lastUnderlyingBlock",
          "type": "uint256"
        },
        {
          "indexed": false,
          "internalType": "uint256",
          "name": "lastUnderlyingTimestamp",
          "type": "uint256"
        },
        {
          "indexed": false,
          "internalType": "bytes32",
          "name": "paymentReference",
          "type": "bytes32"
        }
      ],
      "name": "RedemptionRequested",
      "type": "event"
    },
    {
      "anonymous": false,
      "inputs": [
        {
          "indexed": true,
          "internalType": "address",
          "name": "agentVault",
          "type": "address"
        },
        {
          "indexed": false,
          "internalType": "uint256",
          "name": "valueUBA",
          "type": "uint256"
        }
      ],
      "name": "SelfClose",
      "type": "event"
    },
    {
      "inputs": [
        {
          "internalType": "address",
          "name": "_agentVault",
          "type": "address"
        }
      ],
      "name": "maxRedemptionFromAgent",
      "outputs": [
        {
          "internalType": "uint256",
          "name": "",
          "type": "uint256"
        }
      ],
      "stateMutability": "view",
      "type": "function"
    }
  ],
  "bytecode": "0x6132c261003a600b82828239805160001a60731461002d57634e487b7160e01b600052600060045260246000fd5b30600052607381538281f3fe73000000000000000000000000000000000000000030146080604052600436106100615760003560e01c80631e8bee011461006657806326e68cd41461008b5780639584da2a146100ab578063ed000b30146100cb578063f060b3f1146100ed575b600080fd5b610079610074366004612bbc565b61010d565b60405190815260200160405180910390f35b81801561009757600080fd5b506100796100a6366004612c9c565b61012b565b8180156100b757600080fd5b506100796100c6366004612d06565b610372565b8180156100d757600080fd5b506100eb6100e6366004612d32565b610448565b005b8180156100f957600080fd5b506100eb610108366004612d73565b610585565b60008061011983610638565b9050610124816106cd565b9392505050565b7fec7e8c1c441439dd40959777f4c577ea0cd42fcc1dbe59d2bd0f5d9c55df8dc35460408051808201909152600091600160e01b900461ffff1690829080836001600160401b0381111561018157610181612bd9565b6040519080825280602002602001820160405280156101c657816020015b604080518082019091526000808252602082015281526020019060019003908161019f5790505b508152602001600081525090506000805b83811080156101f75750866001600160401b0316826001600160401b0316105b1561024a57600061021161020b848a612df4565b856107fd565b9050806001600160401b031660000361022a575061024a565b6102348184612e14565b925050808061024290612e34565b9150506101d7565b50806001600160401b03166000036102995760405162461bcd60e51b815260206004820152600d60248201526c72656465656d2030206c6f747360981b60448201526064015b60405180910390fd5b60005b82602001518110156102e4576102d2836000015182815181106102c1576102c1612e4d565b602002602001015189886000610a09565b806102dc81612e34565b91505061029c565b50856001600160401b0316816001600160401b03161015610350576001600160a01b0387167fffb29516defd624d1f4ff8436cc96282ba7b4294c3a18cf274c3bdf21c9ccd996103348389612df4565b6040516001600160401b03909116815260200160405180910390a25b600061035b82610d48565b90506103673382610daf565b979650505050505050565b60008061037e84610638565b905061038984610e42565b826000036103cb5760405162461bcd60e51b815260206004820152600f60248201526e073656c6620636c6f7365206f66203608c1b6044820152606401610290565b60006103d684610e9c565b905060006103e48383610ef4565b9150506103f13382610daf565b6103fa83611047565b856001600160a01b03167f27a9c0ea115e1a078f8a4ddd385379102c3138ded0ddd00bf9cc5ee197457dc88260405161043591815260200190565b60405180910390a2925050505b92915050565b600061045384610638565b905061045e8161113f565b816000036104a05760405162461bcd60e51b815260206004820152600f60248201526e0726564656d7074696f6e206f66203608c1b6044820152606401610290565b60006104ab83610e9c565b90506000806104ba8484610ef4565b600486015491935091506000906104d990610100900461ffff1661118f565b600a86015490915060009061050c90600160801b900461ffff166105066001600160401b038716856111da565b906111f4565b9050610519868983611203565b50876001600160a01b0316896001600160a01b03167f25c177efe505ee9dd8e37b9825d729e1a27b6ac048c6e55ba91841d9a7fa9ecc8584604051610568929190918252602082015260400190565b60405180910390a361057a3384610daf565b505050505050505050565b600061059085610638565b905061059b8161113f565b826000036105dd5760405162461bcd60e51b815260206004820152600f60248201526e0726564656d7074696f6e206f66203608c1b6044820152606401610290565b60006105e884610e9c565b90506000806105f78484610ef4565b604080518082019091526001600160a01b038b1681526001600160401b0383166020820152919350915061062e8189886001610a09565b61057a3383610daf565b60008051602061324d83398151915268010000000000000000600160e01b03604083901b161880600060048084015460ff169081111561067a5761067a612e63565b036106c75760405162461bcd60e51b815260206004820152601b60248201527f696e76616c6964206167656e74207661756c74206164647265737300000000006044820152606401610290565b50919050565b60068101547fec7e8c1c441439dd40959777f4c577ea0cd42fcc1dbe59d2bd0f5d9c55df8dc35460008051602061324d8339815191528318604090811c6001600160a01b031660009081527fec7e8c1c441439dd40959777f4c577ea0cd42fcc1dbe59d2bd0f5d9c55df8dd160205290812054909260008051602061326d833981519152926001600160401b0391821692600160e01b90910461ffff169116845b6001600160401b0382161580159061078557508281105b156107e9576001600160401b038281166000908152601a870160205260409020805490916107bb91600160a01b90041686612e14565b6001909101549094506001600160401b03600160c01b909104169150806107e181612e34565b91505061076e565b506107f383611318565b9695505050505050565b7fec7e8c1c441439dd40959777f4c577ea0cd42fcc1dbe59d2bd0f5d9c55df8dd25460009060008051602061326d833981519152906001600160401b031680830361084d57600092505050610442565b6001600160401b038181166000908152601a840160205260408120600b8501548154919361088d92600160b01b909204811691600160a01b900416612e8f565b9050610899878261136b565b600b8501549095506000906108be90600160b01b90046001600160401b031687612eb5565b83549091506001600160a01b031660005b8860200151811080156109155750816001600160a01b0316896000015182815181106108fd576108fd612e4d565b6020026020010151600001516001600160a01b031614155b1561092a5761092381612e34565b90506108cf565b886020015181101561099657828960000151828151811061094d5761094d612e4d565b6020026020010151602001516109639190612e14565b895180518390811061097757610977612e4d565b6020908102919091018101516001600160401b039092169101526109f2565b6040518060400160405280836001600160a01b03168152602001846001600160401b031681525089600001518a60200180518091906109d490612e34565b9052815181106109e6576109e6612e4d565b60200260200101819052505b6109fc8684611394565b5050505050505092915050565b60008051602061326d833981519152600080610a248561149c565b915091506000610a3f610a3a8960200151611318565b611663565b90506000610a4c866116d0565b9050600080610a59611765565b600c8901549193509150600090610a8990610a3a906001600160801b03881690600160c81b900461ffff166111f4565b905060008860220160029054906101000a90046001600160401b03169050604051806101800160405280888152602001876001600160801b03168152602001836001600160801b03168152602001826001600160401b03168152602001856001600160401b03168152602001846001600160401b031681526020018e602001516001600160401b031681526020018d6001600160a01b03168152602001610b2f4261183d565b6001600160401b031681528e516001600160a01b03166020820152604001600181528b15156020918201526001600160401b038088166000908152601d8d0183526040908190208451815592840151908401516001600160801b03908116600160801b908102928216929092176001850155606085015160028086018054608089015160a08a015160c08b01518916600160c01b026001600160c01b03918a1690980216908816600160401b026fffffffffffffffffffffffffffffffff199290921694881694909417179093169190911792909217905560e0840151600384018054610100870151909416600160a01b9081026001600160e01b03199095166001600160a01b0393841617949094179055610120850151600485018054919092166001600160a01b03198216811783556101408701519492936001600160a81b03199092161791908490811115610c8957610c89612e63565b0217905550610160919091015160049091018054911515600160a81b0260ff60a81b199092169190911790558c51610ccf90610cc490610638565b8e602001518c6118a5565b8c516001600160a01b038d811691167faef17f8f8fc5360408ad71278d270ac0c273a8207151b93c21326b5c46846081878b8a87878b8b67232128293320800160c11b6001600160401b03881617604051610d31989796959493929190612f30565b60405180910390a350505050505050505050505050565b7fec7e8c1c441439dd40959777f4c577ea0cd42fcc1dbe59d2bd0f5d9c55df8dc15460009060008051602061326d833981519152906001600160401b03600160701b8204811691610da591600160b01b9091048116908616612f94565b6101249190612f94565b7fec7e8c1c441439dd40959777f4c577ea0cd42fcc1dbe59d2bd0f5d9c55df8db7546001600160a01b0316604051632770a7eb60e21b81526001600160a01b038481166004830152602482018490529190911690639dc29fac90604401600060405180830381600087803b158015610e2657600080fd5b505af1158015610e3a573d6000803e3d6000fd5b505050505050565b610e54610e4e82610638565b336119b7565b610e995760405162461bcd60e51b815260206004820152601660248201527537b7363c9030b3b2b73a103b30bab63a1037bbb732b960511b6044820152606401610290565b50565b7fec7e8c1c441439dd40959777f4c577ea0cd42fcc1dbe59d2bd0f5d9c55df8dc15460009060008051602061326d8339815191529061012490610eef90600160701b90046001600160401b031685612fab565b61183d565b6006820154600090819060008051602061326d83398151915290610f229085906001600160401b031661136b565b92506001600160401b03831615610f3d57610f3d8584611a11565b600d810154600160e01b900461ffff1660005b8181108015610f705750856001600160401b0316856001600160401b0316105b156110285760008051602061324d8339815191528718604090811c6001600160a01b03166000908152601b8501602052908120546001600160401b031690819003610fbb5750611028565b6001600160401b0381166000908152601a85016020526040812090610ffa610fe3898b612df4565b8354600160a01b90046001600160401b031661136b565b90506110068382611394565b6110108189612e14565b9750505050808061102090612e34565b915050610f50565b5061103284611318565b925061103e8685611a67565b50509250929050565b600260048083015460ff169081111561106257611062612e63565b1461106a5750565b600061107582611ade565b9050600061108283611b52565b9050600061109284836000611c2e565b905060006110a285846001611c2e565b9050818460000151101580156110bc575080846020015110155b15611138576004850180547fff00000000000000000000ffffffffffffffffffffffffffffffffffffffff0016600117905560008051602061324d833981519152851860401c6001600160a01b03167fe513b42585b0ceec0d56d56fe3a23861c15a2f74eb4c32c94334d63d68ff4dcf60405160405180910390a25b5050505050565b80546001600160a01b03163314610e995760405162461bcd60e51b81526020600482015260146024820152731bdb9b1e4818dbdb1b185d195c985b081c1bdbdb60621b6044820152606401610290565b60008060008051602061326d83398151915290506111d08160120184815481106111bb576111bb612e4d565b90600052602060002090600402016000611c92565b5090949350505050565b6000610124826111ec6009600a6130a3565b859190611e51565b60006101248383612710611e51565b60008061120f85611f77565b9050600060008051602061324d833981519152861860401c82546040516370a0823160e01b81526001600160a01b0380841660048301529293506112a092879216906370a0823190602401602060405180830381865afa158015611277573d6000803e3d6000fd5b505050506040513d601f19601f8201168201806040525081019061129b91906130af565b611fe2565b825460405163083e007560e21b81526001600160a01b0391821660048201528782166024820152604481018390529194508216906320f801d490606401600060405180830381600087803b1580156112f757600080fd5b505af115801561130b573d6000803e3d6000fd5b5050505050509392505050565b7fec7e8c1c441439dd40959777f4c577ea0cd42fcc1dbe59d2bd0f5d9c55df8dc15460009060008051602061326d8339815191529061012490600160701b90046001600160401b03908116908516612f94565b6000816001600160401b0316836001600160401b0316111561138d5781610124565b5090919050565b6001600160401b0382811660009081527fec7e8c1c441439dd40959777f4c577ea0cd42fcc1dbe59d2bd0f5d9c55df8dd060205260408120805460008051602061326d833981519152939192916113f5918691600160a01b90910416612df4565b9050806001600160401b031660000361141a57611415601a840186611ff1565b611138565b600b8301546001600160401b03600160b01b90910481169082161015611470578154600090611451906001600160a01b0316610638565b905061145d81836123cb565b61146a601a850187611ff1565b50611138565b81546001600160401b038216600160a01b0267ffffffffffffffff60a01b199091161782555050505050565b7fec7e8c1c441439dd40959777f4c577ea0cd42fcc1dbe59d2bd0f5d9c55df8dbd54815160609160009160008051602061326d833981519152916001600160a01b031690830361152e5760405162461bcd60e51b815260206004820152601860248201527f656d70747920756e6465726c79696e67206164647265737300000000000000006044820152606401610290565b60405163d182b83b60e01b81526001600160a01b0382169063d182b83b9061155a9088906004016130c8565b602060405180830381865afa158015611577573d6000803e3d6000fd5b505050506040513d601f19601f8201168201806040525081019061159b91906130db565b6115e75760405162461bcd60e51b815260206004820152601a60248201527f696e76616c696420756e6465726c79696e6720616464726573730000000000006044820152606401610290565b604051639f10f4b560e01b81526001600160a01b03821690639f10f4b5906116139088906004016130c8565b600060405180830381865afa158015611630573d6000803e3d6000fd5b505050506040513d6000823e601f3d908101601f1916820160405261165891908101906130fd565b935093505050915091565b60006001600160801b038211156116cc5760405162461bcd60e51b815260206004820152602760248201527f53616665436173743a2076616c756520646f65736e27742066697420696e20316044820152663238206269747360c81b6064820152608401610290565b5090565b600060008051602061326d833981519152816116ea6123f3565b60218301546117099190600160401b90046001600160401b0316612e14565b905060008461171957600061171c565b60015b60ff1660011961172d846001612e14565b16179050808360210160086101000a8154816001600160401b0302191690836001600160401b03160217905550809350505050919050565b7fec7e8c1c441439dd40959777f4c577ea0cd42fcc1dbe59d2bd0f5d9c55df8dd854600090819060008051602061326d833981519152908290600160901b90046001600160401b03166117b74261183d565b6117c19190612df4565b600c83015460228401549192506117f8916001600160401b0369010000000000000000009092048216916201000090910416612e14565b600c83015460228401549195506001600160401b03600160881b90910481169161182b918491600160501b900416612e14565b6118359190612e14565b925050509091565b60006001600160401b038211156116cc5760405162461bcd60e51b815260206004820152602660248201527f53616665436173743a2076616c756520646f65736e27742066697420696e203660448201526534206269747360d01b6064820152608401610290565b818360050160108282829054906101000a90046001600160401b03166118cb9190612e14565b92506101000a8154816001600160401b0302191690836001600160401b031602179055508061193f57818360050160188282829054906101000a90046001600160401b031661191a9190612e14565b92506101000a8154816001600160401b0302191690836001600160401b031602179055505b61198a8360050160089054906101000a90046001600160401b031683604051806040016040528060118152602001701b9bdd08195b9bdd59da081b5a5b9d1959607a1b815250612411565b8360050160086101000a8154816001600160401b0302191690836001600160401b03160217905550505050565b600182015460009060008051602061326d833981519152906001600160a01b03908116908416811480611a0857506001600160a01b0380821660009081526015840160205260409020548582169116145b95945050505050565b600682015460408051808201909152600f81526e1b9bdd08195b9bdd59da08191d5cdd608a1b6020820152600091611a56916001600160401b03909116908490612411565b9050611a62838261245c565b505050565b611ab28260050160089054906101000a90046001600160401b031682604051806040016040528060118152602001701b9bdd08195b9bdd59da081b5a5b9d1959607a1b815250612411565b8260050160086101000a8154816001600160401b0302191690836001600160401b031602179055505050565b611b096040518060800160405280600081526020016000815260200160008152602001600081525090565b600080611b178460006124fd565b91509150600080611b298660016124fd565b604080516080810182529687526020870192909252908501939093525050606082015292915050565b60008060008051602061326d833981519152600484015490915060ff166002816004811115611b8357611b83612e63565b03611c0157600060016004860154600160e81b900460ff166002811115611bac57611bac612e63565b148015611be85750600f8301546004860154611bdb916001600160401b0390811691600160a81b900416612e14565b6001600160401b03164211155b905080611bf6576002611a08565b600195945050505050565b6003816004811115611c1557611c15612e63565b03611c24575060029392505050565b5060009392505050565b600080611c3b858461254b565b90506001846002811115611c5157611c51612e63565b1480611c645750611c6285846125ff565b155b15611c7a576003015463ffffffff169050610124565b60030154600160401b900463ffffffff169050610124565b600080600080600080611d31886001018054611cad9061317d565b80601f0160208091040260200160405190810160405280929190818152602001828054611cd99061317d565b8015611d265780601f10611cfb57610100808354040283529160200191611d26565b820191906000526020600020905b815481529060010190602001808311611d0957829003601f168201915b505050505088612668565b8a549295509093509150600160f01b900460ff1615611d78578754600090611d6790600160a81b900460ff1660018387866127c4565b9650919450849350611e4a92505050565b6000806000611e138b6002018054611d8f9061317d565b80601f0160208091040260200160405190810160405280929190818152602001828054611dbb9061317d565b8015611e085780601f10611ddd57610100808354040283529160200191611e08565b820191906000526020600020905b815481529060010190602001808311611deb57829003601f168201915b50505050508b612668565b8d549295509093509150600090611e3790600160a81b900460ff1685848a896127c4565b9950949750909550611e4a945050505050565b9250925092565b6000808211611e955760405162461bcd60e51b815260206004820152601060248201526f4469766973696f6e206279207a65726f60801b6044820152606401610290565b83600003611ea557506000610124565b83830283858281611eb857611eb8612e79565b0403611ed657828181611ecd57611ecd612e79565b04915050610124565b506000611ee38386612fab565b90506000611ef184876131b1565b90506000611eff8587612fab565b90506000611f0d86886131b1565b905085611f1a8285612f94565b611f249190612fab565b611f2e8385612f94565b611f388387612f94565b88611f438689612f94565b611f4d9190612f94565b611f5791906131c5565b611f6191906131c5565b611f6b91906131c5565b98975050505050505050565b60048101547fec7e8c1c441439dd40959777f4c577ea0cd42fcc1dbe59d2bd0f5d9c55df8dc8805460009260008051602061326d833981519152929161010090910461ffff16908110611fcc57611fcc612e4d565b9060005260206000209060040201915050919050565b600081831061138d5781610124565b6001600160401b038116600090815260208390526040902080546001600160a01b0316612020576120206131d8565b80546001600160a01b031660009081526001808501602052604082209083015490916001600160401b0390911690036120a65760028401546001600160401b03848116911614612072576120726131d8565b6001820154600285018054600160401b9092046001600160401b031667ffffffffffffffff1990921691909117905561210e565b60028401546001600160401b03908116908416036120c6576120c66131d8565b6001828101546001600160401b038082166000908152602088905260409020909201805467ffffffffffffffff60401b1916600160401b928390049093169091029190911790555b6001820154600160401b90046001600160401b03166000036121855760028401546001600160401b03848116600160401b9092041614612150576121506131d8565b600182015460028501805467ffffffffffffffff60401b19166001600160401b03909216600160401b029190911790556121ed565b60028401546001600160401b03600160401b9091048116908416036121ac576121ac6131d8565b600180830154600160401b81046001600160401b039081166000908152602088905260409020909201805467ffffffffffffffff1916929091169190911790555b6001820154600160801b90046001600160401b03166000036122525780546001600160401b03848116911614612225576122256131d8565b60018201548154600160c01b9091046001600160401b031667ffffffffffffffff199091161781556122b8565b80546001600160401b039081169084160361226f5761226f6131d8565b6001828101546001600160401b03600160801b82048116600090815260208890526040902090920180546001600160c01b0316600160c01b928390049093169091029190911790555b6001820154600160c01b90046001600160401b031660000361232b5780546001600160401b03848116600160401b90920416146122f7576122f76131d8565b6001820154815467ffffffffffffffff60401b1916600160801b9091046001600160401b0316600160401b0217815561239d565b80546001600160401b03600160401b90910481169084160361234f5761234f6131d8565b6001828101546001600160401b03600160c01b820481166000908152602088905260409020909201805467ffffffffffffffff60801b1916600160801b928390049093169091029190911790555b50506001600160401b031660009081526020919091526040812080546001600160e01b031916815560010155565b60068201546123ef9083906123ea9084906001600160401b0316612e14565b61245c565b5050565b60006124016103e8436131b1565b61240c9060016131c5565b905090565b6000826001600160401b0316846001600160401b0316101582906124485760405162461bcd60e51b815260040161029091906130c8565b5050506001600160401b0390811691160390565b60068201546001600160401b03808316911603612477575050565b60068201805467ffffffffffffffff19166001600160401b03831617905560006124a082611318565b905060008051602061324d833981519152831860401c6001600160a01b03167fa3db2bc927901a1d3ba09ad51d84609457b98443be9132a0a936a47c5a1081b5826040516124f091815260200190565b60405180910390a2505050565b60008060008061250d868661284b565b91509150600061251d83886129ae565b9050600061252b83896129ae565b90508360400151945061253e8282612a6f565b9550505050509250929050565b6000600282600281111561256157612561612e63565b0361256e5761256e6131d8565b60008051602061326d833981519152600083600281111561259157612591612e63565b036125d15760048401546012820180549091610100900461ffff169081106125bb576125bb612e4d565b9060005260206000209060040201915050610442565b600484015460128201805490916301000000900461ffff169081106125bb576125bb612e4d565b5092915050565b60008082600281111561261457612614612e63565b0361263057506004820154600160f01b90046001161515610442565b600182600281111561264457612644612e63565b14612651576126516131d8565b506004820154600160f01b90046002161515610442565b7fec7e8c1c441439dd40959777f4c577ea0cd42fcc1dbe59d2bd0f5d9c55df8dc0546040516325f69abd60e21b81526000918291829160008051602061326d8339815191529183916001600160a01b0316906397da6af4906126ce908a906004016130c8565b602060405180830381865afa1580156126eb573d6000803e3d6000fd5b505050506040513d601f19601f8201168201806040525081019061270f91906131ee565b9050851561278657806001600160a01b0316633cacb3ae6040518163ffffffff1660e01b8152600401606060405180830381865afa158015612755573d6000803e3d6000fd5b505050506040513d601f19601f82011682018060405250810190612779919061320b565b9450945094505050611e4a565b806001600160a01b03166365f5cd866040518163ffffffff1660e01b8152600401606060405180830381865afa158015612755573d6000803e3d6000fd5b600060008051602061326d8339815191528160096127e2878a6131c5565b6127ec91906131c5565b600a83015490915060009061280c908690600160a81b900460ff166131c5565b90508082101561281e5761281e6131d8565b61283e61282b8284613239565b61283690600a6130a3565b87908a611e51565b9998505050505050505050565b6128706040805160608101909152806000815260200160008152602001600081525090565b6128956040805160608101909152806000815260200160008152602001600081525090565b60006128a1858561254b565b905060006128af8686612a7e565b905060006128bc83612ac1565b6128c7576000612934565b82546040516370a0823160e01b81526001600160a01b038481166004830152909116906370a0823190602401602060405180830381865afa158015612910573d6000803e3d6000fd5b505050506040513d601f19601f8201168201806040525081019061293491906130af565b905060008061294285612af8565b91509150604051806060016040528089600281111561296357612963612e63565b8152602001848152602001838152509650604051806060016040528089600281111561299157612991612e63565b815260200184815260200182815250955050505050509250929050565b6000806001845160028111156129c6576129c6612e63565b146129e5576005830154600160801b90046001600160401b03166129fb565b6005830154600160c01b90046001600160401b03165b60058401546001600160401b0391821692506000918391612a279181811691600160401b9004166131c5565b612a3191906131c5565b905080600003612a4a576402540be40092505050610442565b6000612a5a8287604001516111da565b60208701519091506107f39061271083611e51565b600081831161138d5781610124565b60006001826002811115612a9457612a94612e63565b14612ab25760008051602061324d833981519152831860401c610124565b5050546001600160a01b031690565b8054600090600160b01b90046001600160401b031615806104425750815442600160b01b9091046001600160401b03161192915050565b60008060008051602061326d833981519152818080612b178782611c92565b9250925092506000806000612b2d8a6001611c92565b600e8a015492955090935091506000908590612b5990600160c01b90046001600160401b0316846131c5565b10158015612b865750600e8801548690612b8390600160c01b90046001600160401b0316856131c5565b10155b905086995080612b965786612b98565b835b98505050505050505050915091565b6001600160a01b0381168114610e9957600080fd5b600060208284031215612bce57600080fd5b813561012481612ba7565b634e487b7160e01b600052604160045260246000fd5b604051601f8201601f191681016001600160401b0381118282101715612c1757612c17612bd9565b604052919050565b60006001600160401b03821115612c3857612c38612bd9565b50601f01601f191660200190565b600082601f830112612c5757600080fd5b8135612c6a612c6582612c1f565b612bef565b818152846020838601011115612c7f57600080fd5b816020850160208301376000918101602001919091529392505050565b600080600060608486031215612cb157600080fd5b8335612cbc81612ba7565b925060208401356001600160401b038082168214612cd957600080fd5b90925060408501359080821115612cef57600080fd5b50612cfc86828701612c46565b9150509250925092565b60008060408385031215612d1957600080fd5b8235612d2481612ba7565b946020939093013593505050565b600080600060608486031215612d4757600080fd5b8335612d5281612ba7565b92506020840135612d6281612ba7565b929592945050506040919091013590565b60008060008060808587031215612d8957600080fd5b8435612d9481612ba7565b93506020850135612da481612ba7565b92506040850135915060608501356001600160401b03811115612dc657600080fd5b612dd287828801612c46565b91505092959194509250565b634e487b7160e01b600052601160045260246000fd5b6001600160401b038281168282160390808211156125f8576125f8612dde565b6001600160401b038181168382160190808211156125f8576125f8612dde565b600060018201612e4657612e46612dde565b5060010190565b634e487b7160e01b600052603260045260246000fd5b634e487b7160e01b600052602160045260246000fd5b634e487b7160e01b600052601260045260246000fd5b60006001600160401b0380841680612ea957612ea9612e79565b92169190910492915050565b6001600160401b03818116838216028082169190828114612ed857612ed8612dde565b505092915050565b60005b83811015612efb578181015183820152602001612ee3565b50506000910152565b60008151808452612f1c816020860160208601612ee0565b601f01601f19169290920160200192915050565b60006101006001600160401b03808c168452816020850152612f548285018c612f04565b6001600160801b039a8b1660408601529890991660608401525050938616608085015291851660a084015290931660c082015260e0019190915292915050565b808202811582820484141761044257610442612dde565b600082612fba57612fba612e79565b500490565b600181815b80851115612ffa578160001904821115612fe057612fe0612dde565b80851615612fed57918102915b93841c9390800290612fc4565b509250929050565b60008261301157506001610442565b8161301e57506000610442565b8160018114613034576002811461303e5761305a565b6001915050610442565b60ff84111561304f5761304f612dde565b50506001821b610442565b5060208310610133831016604e8410600b841016171561307d575081810a610442565b6130878383612fbf565b806000190482111561309b5761309b612dde565b029392505050565b60006101248383613002565b6000602082840312156130c157600080fd5b5051919050565b6020815260006101246020830184612f04565b6000602082840312156130ed57600080fd5b8151801515811461012457600080fd5b6000806040838503121561311057600080fd5b82516001600160401b0381111561312657600080fd5b8301601f8101851361313757600080fd5b8051613145612c6582612c1f565b81815286602083850101111561315a57600080fd5b61316b826020830160208601612ee0565b60209590950151949694955050505050565b600181811c9082168061319157607f821691505b6020821081036106c757634e487b7160e01b600052602260045260246000fd5b6000826131c0576131c0612e79565b500690565b8082018082111561044257610442612dde565b634e487b7160e01b600052600160045260246000fd5b60006020828403121561320057600080fd5b815161012481612ba7565b60008060006060848603121561322057600080fd5b8351925060208401519150604084015190509250925092565b8181038181111561044257610442612dde56fe5bebac0595fee029d42bb673937f5f1cb81cf8641382bc17774635de9b7d7965ec7e8c1c441439dd40959777f4c577ea0cd42fcc1dbe59d2bd0f5d9c55df8db6a2646970667358221220385cefdcb1a3d65d759729a4b03296b13734f7065845e380c628e5b4ffbb678164736f6c63430008140033",
  "linkReferences": {},
  "deployedLinkReferences": {}
}