{
  "_format": "hh-sol-artifact-1",
  "contractName": "FakeERC20",
  "sourceName": "contracts/fasset/mock/FakeERC20.sol",
  "abi": [
    {
      "inputs": [
        {
          "internalType": "address",
          "name": "_minter",
          "type": "address"
        },
        {
          "internalType": "string",
          "name": "_name",
          "type": "string"
        },
        {
          "internalType": "string",
          "name": "_symbol",
          "type": "string"
        }
      ],
      "stateMutability": "nonpayable",
      "type": "constructor"
    },
    {
      "anonymous": false,
      "inputs": [
        {
          "indexed": true,
          "internalType": "address",
          "name": "owner",
          "type": "address"
        },
        {
          "indexed": true,
          "internalType": "address",
          "name": "spender",
          "type": "address"
        },
        {
          "indexed": false,
          "internalType": "uint256",
          "name": "value",
          "type": "uint256"
        }
      ],
      "name": "Approval",
      "type": "event"
    },
    {
      "anonymous": false,
      "inputs": [
        {
          "indexed": true,
          "internalType": "address",
          "name": "from",
          "type": "address"
        },
        {
          "indexed": true,
          "internalType": "address",
          "name": "to",
          "type": "address"
        },
        {
          "indexed": false,
          "internalType": "uint256",
          "name": "value",
          "type": "uint256"
        }
      ],
      "name": "Transfer",
      "type": "event"
    },
    {
      "inputs": [
        {
          "internalType": "address",
          "name": "owner",
          "type": "address"
        },
        {
          "internalType": "address",
          "name": "spender",
          "type": "address"
        }
      ],
      "name": "allowance",
      "outputs": [
        {
          "internalType": "uint256",
          "name": "",
          "type": "uint256"
        }
      ],
      "stateMutability": "view",
      "type": "function"
    },
    {
      "inputs": [
        {
          "internalType": "address",
          "name": "spender",
          "type": "address"
        },
        {
          "internalType": "uint256",
          "name": "amount",
          "type": "uint256"
        }
      ],
      "name": "approve",
      "outputs": [
        {
          "internalType": "bool",
          "name": "",
          "type": "bool"
        }
      ],
      "stateMutability": "nonpayable",
      "type": "function"
    },
    {
      "inputs": [
        {
          "internalType": "address",
          "name": "account",
          "type": "address"
        }
      ],
      "name": "balanceOf",
      "outputs": [
        {
          "internalType": "uint256",
          "name": "",
          "type": "uint256"
        }
      ],
      "stateMutability": "view",
      "type": "function"
    },
    {
      "inputs": [
        {
          "internalType": "address",
          "name": "_target",
          "type": "address"
        },
        {
          "internalType": "uint256",
          "name": "_amount",
          "type": "uint256"
        }
      ],
      "name": "burnAmount",
      "outputs": [],
      "stateMutability": "nonpayable",
      "type": "function"
    },
    {
      "inputs": [],
      "name": "decimals",
      "outputs": [
        {
          "internalType": "uint8",
          "name": "",
          "type": "uint8"
        }
      ],
      "stateMutability": "view",
      "type": "function"
    },
    {
      "inputs": [
        {
          "internalType": "address",
          "name": "spender",
          "type": "address"
        },
        {
          "internalType": "uint256",
          "name": "subtractedValue",
          "type": "uint256"
        }
      ],
      "name": "decreaseAllowance",
      "outputs": [
        {
          "internalType": "bool",
          "name": "",
          "type": "bool"
        }
      ],
      "stateMutability": "nonpayable",
      "type": "function"
    },
    {
      "inputs": [
        {
          "internalType": "address",
          "name": "spender",
          "type": "address"
        },
        {
          "internalType": "uint256",
          "name": "addedValue",
          "type": "uint256"
        }
      ],
      "name": "increaseAllowance",
      "outputs": [
        {
          "internalType": "bool",
          "name": "",
          "type": "bool"
        }
      ],
      "stateMutability": "nonpayable",
      "type": "function"
    },
    {
      "inputs": [
        {
          "internalType": "address",
          "name": "_target",
          "type": "address"
        },
        {
          "internalType": "uint256",
          "name": "amount",
          "type": "uint256"
        }
      ],
      "name": "mintAmount",
      "outputs": [],
      "stateMutability": "nonpayable",
      "type": "function"
    },
    {
      "inputs": [],
      "name": "minter",
      "outputs": [
        {
          "internalType": "address",
          "name": "",
          "type": "address"
        }
      ],
      "stateMutability": "view",
      "type": "function"
    },
    {
      "inputs": [],
      "name": "name",
      "outputs": [
        {
          "internalType": "string",
          "name": "",
          "type": "string"
        }
      ],
      "stateMutability": "view",
      "type": "function"
    },
    {
      "inputs": [
        {
          "internalType": "bytes4",
          "name": "_interfaceId",
          "type": "bytes4"
        }
      ],
      "name": "supportsInterface",
      "outputs": [
        {
          "internalType": "bool",
          "name": "",
          "type": "bool"
        }
      ],
      "stateMutability": "pure",
      "type": "function"
    },
    {
      "inputs": [],
      "name": "symbol",
      "outputs": [
        {
          "internalType": "string",
          "name": "",
          "type": "string"
        }
      ],
      "stateMutability": "view",
      "type": "function"
    },
    {
      "inputs": [],
      "name": "totalSupply",
      "outputs": [
        {
          "internalType": "uint256",
          "name": "",
          "type": "uint256"
        }
      ],
      "stateMutability": "view",
      "type": "function"
    },
    {
      "inputs": [
        {
          "internalType": "address",
          "name": "to",
          "type": "address"
        },
        {
          "internalType": "uint256",
          "name": "amount",
          "type": "uint256"
        }
      ],
      "name": "transfer",
      "outputs": [
        {
          "internalType": "bool",
          "name": "",
          "type": "bool"
        }
      ],
      "stateMutability": "nonpayable",
      "type": "function"
    },
    {
      "inputs": [
        {
          "internalType": "address",
          "name": "from",
          "type": "address"
        },
        {
          "internalType": "address",
          "name": "to",
          "type": "address"
        },
        {
          "internalType": "uint256",
          "name": "amount",
          "type": "uint256"
        }
      ],
      "name": "transferFrom",
      "outputs": [
        {
          "internalType": "bool",
          "name": "",
          "type": "bool"
        }
      ],
      "stateMutability": "nonpayable",
      "type": "function"
    }
  ],
  "bytecode": "0x60806040523480156200001157600080fd5b5060405162000f4638038062000f46833981016040819052620000349162000145565b818160036200004483826200025e565b5060046200005382826200025e565b5050600580546001600160a01b0319166001600160a01b039590951694909417909355506200032a915050565b634e487b7160e01b600052604160045260246000fd5b600082601f830112620000a857600080fd5b81516001600160401b0380821115620000c557620000c562000080565b604051601f8301601f19908116603f01168101908282118183101715620000f057620000f062000080565b816040528381526020925086838588010111156200010d57600080fd5b600091505b8382101562000131578582018301518183018401529082019062000112565b600093810190920192909252949350505050565b6000806000606084860312156200015b57600080fd5b83516001600160a01b03811681146200017357600080fd5b60208501519093506001600160401b03808211156200019157600080fd5b6200019f8783880162000096565b93506040860151915080821115620001b657600080fd5b50620001c58682870162000096565b9150509250925092565b600181811c90821680620001e457607f821691505b6020821081036200020557634e487b7160e01b600052602260045260246000fd5b50919050565b601f8211156200025957600081815260208120601f850160051c81016020861015620002345750805b601f850160051c820191505b81811015620002555782815560010162000240565b5050505b505050565b81516001600160401b038111156200027a576200027a62000080565b62000292816200028b8454620001cf565b846200020b565b602080601f831160018114620002ca5760008415620002b15750858301515b600019600386901b1c1916600185901b17855562000255565b600085815260208120601f198616915b82811015620002fb57888601518255948401946001909101908401620002da565b50858210156200031a5787850151600019600388901b60f8161c191681555b5050505050600190811b01905550565b610c0c806200033a6000396000f3fe608060405234801561001057600080fd5b50600436106100f55760003560e01c8063313ce56711610097578063a457c2d711610066578063a457c2d714610202578063a9059cbb14610215578063dd62ed3e14610228578063fb8bd26f1461023b57600080fd5b8063313ce567146101af57806339509351146101be57806370a08231146101d157806395d89b41146101fa57600080fd5b8063095ea7b3116100d3578063095ea7b3146101625780630e583dd21461017557806318160ddd1461018a57806323b872dd1461019c57600080fd5b806301ffc9a7146100fa57806306fdde03146101225780630754617214610137575b600080fd5b61010d610108366004610a2c565b61024e565b60405190151581526020015b60405180910390f35b61012a6102a0565b6040516101199190610a5d565b60055461014a906001600160a01b031681565b6040516001600160a01b039091168152602001610119565b61010d610170366004610ac7565b610332565b610188610183366004610ac7565b61034a565b005b6002545b604051908152602001610119565b61010d6101aa366004610af1565b6103a5565b60405160128152602001610119565b61010d6101cc366004610ac7565b6103c9565b61018e6101df366004610b2d565b6001600160a01b031660009081526020819052604090205490565b61012a6103eb565b61010d610210366004610ac7565b6103fa565b61010d610223366004610ac7565b610475565b61018e610236366004610b48565b610483565b610188610249366004610ac7565b6104ae565b60006001600160e01b031982166301ffc9a760e01b148061027f57506001600160e01b031982166336372b0760e01b145b8061029a57506001600160e01b0319821663a219a02560e01b145b92915050565b6060600380546102af90610b7b565b80601f01602080910402602001604051908101604052809291908181526020018280546102db90610b7b565b80156103285780601f106102fd57610100808354040283529160200191610328565b820191906000526020600020905b81548152906001019060200180831161030b57829003601f168201915b5050505050905090565b600033610340818585610500565b5060019392505050565b6005546001600160a01b031633146103975760405162461bcd60e51b815260206004820152600b60248201526a37b7363c9036b4b73a32b960a91b60448201526064015b60405180910390fd5b6103a18282610625565b5050565b6000336103b38582856106e4565b6103be85858561075e565b506001949350505050565b6000336103408185856103dc8383610483565b6103e69190610bb5565b610500565b6060600480546102af90610b7b565b600033816104088286610483565b9050838110156104685760405162461bcd60e51b815260206004820152602560248201527f45524332303a2064656372656173656420616c6c6f77616e63652062656c6f77604482015264207a65726f60d81b606482015260840161038e565b6103be8286868403610500565b60003361034081858561075e565b6001600160a01b03918216600090815260016020908152604080832093909416825291909152205490565b6005546001600160a01b031633146104f65760405162461bcd60e51b815260206004820152600b60248201526a37b7363c9036b4b73a32b960a91b604482015260640161038e565b6103a18282610902565b6001600160a01b0383166105625760405162461bcd60e51b8152602060048201526024808201527f45524332303a20617070726f76652066726f6d20746865207a65726f206164646044820152637265737360e01b606482015260840161038e565b6001600160a01b0382166105c35760405162461bcd60e51b815260206004820152602260248201527f45524332303a20617070726f766520746f20746865207a65726f206164647265604482015261737360f01b606482015260840161038e565b6001600160a01b0383811660008181526001602090815260408083209487168084529482529182902085905590518481527f8c5be1e5ebec7d5bd14f71427d1e84f3dd0314c0f7b2291e5b200ac8c7c3b92591015b60405180910390a3505050565b6001600160a01b03821661067b5760405162461bcd60e51b815260206004820152601f60248201527f45524332303a206d696e7420746f20746865207a65726f206164647265737300604482015260640161038e565b806002600082825461068d9190610bb5565b90915550506001600160a01b038216600081815260208181526040808320805486019055518481527fddf252ad1be2c89b69c2b068fc378daa952ba7f163c4a11628f55a4df523b3ef910160405180910390a35050565b60006106f08484610483565b90506000198114610758578181101561074b5760405162461bcd60e51b815260206004820152601d60248201527f45524332303a20696e73756666696369656e7420616c6c6f77616e6365000000604482015260640161038e565b6107588484848403610500565b50505050565b6001600160a01b0383166107c25760405162461bcd60e51b815260206004820152602560248201527f45524332303a207472616e736665722066726f6d20746865207a65726f206164604482015264647265737360d81b606482015260840161038e565b6001600160a01b0382166108245760405162461bcd60e51b815260206004820152602360248201527f45524332303a207472616e7366657220746f20746865207a65726f206164647260448201526265737360e81b606482015260840161038e565b6001600160a01b0383166000908152602081905260409020548181101561089c5760405162461bcd60e51b815260206004820152602660248201527f45524332303a207472616e7366657220616d6f756e7420657863656564732062604482015265616c616e636560d01b606482015260840161038e565b6001600160a01b03848116600081815260208181526040808320878703905593871680835291849020805487019055925185815290927fddf252ad1be2c89b69c2b068fc378daa952ba7f163c4a11628f55a4df523b3ef910160405180910390a3610758565b6001600160a01b0382166109625760405162461bcd60e51b815260206004820152602160248201527f45524332303a206275726e2066726f6d20746865207a65726f206164647265736044820152607360f81b606482015260840161038e565b6001600160a01b038216600090815260208190526040902054818110156109d65760405162461bcd60e51b815260206004820152602260248201527f45524332303a206275726e20616d6f756e7420657863656564732062616c616e604482015261636560f01b606482015260840161038e565b6001600160a01b0383166000818152602081815260408083208686039055600280548790039055518581529192917fddf252ad1be2c89b69c2b068fc378daa952ba7f163c4a11628f55a4df523b3ef9101610618565b600060208284031215610a3e57600080fd5b81356001600160e01b031981168114610a5657600080fd5b9392505050565b600060208083528351808285015260005b81811015610a8a57858101830151858201604001528201610a6e565b506000604082860101526040601f19601f8301168501019250505092915050565b80356001600160a01b0381168114610ac257600080fd5b919050565b60008060408385031215610ada57600080fd5b610ae383610aab565b946020939093013593505050565b600080600060608486031215610b0657600080fd5b610b0f84610aab565b9250610b1d60208501610aab565b9150604084013590509250925092565b600060208284031215610b3f57600080fd5b610a5682610aab565b60008060408385031215610b5b57600080fd5b610b6483610aab565b9150610b7260208401610aab565b90509250929050565b600181811c90821680610b8f57607f821691505b602082108103610baf57634e487b7160e01b600052602260045260246000fd5b50919050565b8082018082111561029a57634e487b7160e01b600052601160045260246000fdfea26469706673582212203c1d03efb1a0a5237f7698da45e1dabd1a938bcbe2495a15cbecf8a920d3cc0c64736f6c63430008140033",
  "linkReferences": {},
  "deployedLinkReferences": {}
}