{
  "_format": "hh-sol-artifact-1",
  "contractName": "UnderlyingBalanceFacet",
  "sourceName": "contracts/assetManager/facets/UnderlyingBalanceFacet.sol",
  "abi": [
    {
      "anonymous": false,
      "inputs": [
        {
          "indexed": true,
          "internalType": "address",
          "name": "agentVault",
          "type": "address"
        },
        {
          "indexed": false,
          "internalType": "uint256",
          "name": "timestamp",
          "type": "uint256"
        }
      ],
      "name": "FullLiquidationStarted",
      "type": "event"
    },
    {
      "anonymous": false,
      "inputs": [
        {
          "indexed": true,
          "internalType": "address",
          "name": "agentVault",
          "type": "address"
        },
        {
          "indexed": false,
          "internalType": "int256",
          "name": "underlyingBalanceUBA",
          "type": "int256"
        }
      ],
      "name": "UnderlyingBalanceChanged",
      "type": "event"
    },
    {
      "anonymous": false,
      "inputs": [
        {
          "indexed": true,
          "internalType": "address",
          "name": "agentVault",
          "type": "address"
        },
        {
          "indexed": false,
          "internalType": "int256",
          "name": "balance",
          "type": "int256"
        },
        {
          "indexed": false,
          "internalType": "uint256",
          "name": "requiredBalance",
          "type": "uint256"
        }
      ],
      "name": "UnderlyingBalanceTooLow",
      "type": "event"
    },
    {
      "anonymous": false,
      "inputs": [
        {
          "indexed": true,
          "internalType": "address",
          "name": "agentVault",
          "type": "address"
        },
        {
          "indexed": false,
          "internalType": "bytes32",
          "name": "transactionHash",
          "type": "bytes32"
        },
        {
          "indexed": false,
          "internalType": "uint256",
          "name": "depositedUBA",
          "type": "uint256"
        }
      ],
      "name": "UnderlyingBalanceToppedUp",
      "type": "event"
    },
    {
      "anonymous": false,
      "inputs": [
        {
          "indexed": true,
          "internalType": "address",
          "name": "agentVault",
          "type": "address"
        },
        {
          "indexed": true,
          "internalType": "uint64",
          "name": "announcementId",
          "type": "uint64"
        },
        {
          "indexed": false,
          "internalType": "bytes32",
          "name": "paymentReference",
          "type": "bytes32"
        }
      ],
      "name": "UnderlyingWithdrawalAnnounced",
      "type": "event"
    },
    {
      "anonymous": false,
      "inputs": [
        {
          "indexed": true,
          "internalType": "address",
          "name": "agentVault",
          "type": "address"
        },
        {
          "indexed": true,
          "internalType": "uint64",
          "name": "announcementId",
          "type": "uint64"
        }
      ],
      "name": "UnderlyingWithdrawalCancelled",
      "type": "event"
    },
    {
      "anonymous": false,
      "inputs": [
        {
          "indexed": true,
          "internalType": "address",
          "name": "agentVault",
          "type": "address"
        },
        {
          "indexed": true,
          "internalType": "uint64",
          "name": "announcementId",
          "type": "uint64"
        },
        {
          "indexed": false,
          "internalType": "int256",
          "name": "spentUBA",
          "type": "int256"
        },
        {
          "indexed": false,
          "internalType": "bytes32",
          "name": "transactionHash",
          "type": "bytes32"
        }
      ],
      "name": "UnderlyingWithdrawalConfirmed",
      "type": "event"
    },
    {
      "inputs": [
        {
          "internalType": "address",
          "name": "_agentVault",
          "type": "address"
        }
      ],
      "name": "announceUnderlyingWithdrawal",
      "outputs": [],
      "stateMutability": "nonpayable",
      "type": "function"
    },
    {
      "inputs": [
        {
          "internalType": "address",
          "name": "_agentVault",
          "type": "address"
        }
      ],
      "name": "cancelUnderlyingWithdrawal",
      "outputs": [],
      "stateMutability": "nonpayable",
      "type": "function"
    },
    {
      "inputs": [
        {
          "components": [
            {
              "internalType": "bytes32[]",
              "name": "merkleProof",
              "type": "bytes32[]"
            },
            {
              "components": [
                {
                  "internalType": "bytes32",
                  "name": "attestationType",
                  "type": "bytes32"
                },
                {
                  "internalType": "bytes32",
                  "name": "sourceId",
                  "type": "bytes32"
                },
                {
                  "internalType": "uint64",
                  "name": "votingRound",
                  "type": "uint64"
                },
                {
                  "internalType": "uint64",
                  "name": "lowestUsedTimestamp",
                  "type": "uint64"
                },
                {
                  "components": [
                    {
                      "internalType": "bytes32",
                      "name": "transactionId",
                      "type": "bytes32"
                    },
                    {
                      "internalType": "uint256",
                      "name": "inUtxo",
                      "type": "uint256"
                    },
                    {
                      "internalType": "uint256",
                      "name": "utxo",
                      "type": "uint256"
                    }
                  ],
                  "internalType": "struct IPayment.RequestBody",
                  "name": "requestBody",
                  "type": "tuple"
                },
                {
                  "components": [
                    {
                      "internalType": "uint64",
                      "name": "blockNumber",
                      "type": "uint64"
                    },
                    {
                      "internalType": "uint64",
                      "name": "blockTimestamp",
                      "type": "uint64"
                    },
                    {
                      "internalType": "bytes32",
                      "name": "sourceAddressHash",
                      "type": "bytes32"
                    },
                    {
                      "internalType": "bytes32",
                      "name": "sourceAddressesRoot",
                      "type": "bytes32"
                    },
                    {
                      "internalType": "bytes32",
                      "name": "receivingAddressHash",
                      "type": "bytes32"
                    },
                    {
                      "internalType": "bytes32",
                      "name": "intendedReceivingAddressHash",
                      "type": "bytes32"
                    },
                    {
                      "internalType": "int256",
                      "name": "spentAmount",
                      "type": "int256"
                    },
                    {
                      "internalType": "int256",
                      "name": "intendedSpentAmount",
                      "type": "int256"
                    },
                    {
                      "internalType": "int256",
                      "name": "receivedAmount",
                      "type": "int256"
                    },
                    {
                      "internalType": "int256",
                      "name": "intendedReceivedAmount",
                      "type": "int256"
                    },
                    {
                      "internalType": "bytes32",
                      "name": "standardPaymentReference",
                      "type": "bytes32"
                    },
                    {
                      "internalType": "bool",
                      "name": "oneToOne",
                      "type": "bool"
                    },
                    {
                      "internalType": "uint8",
                      "name": "status",
                      "type": "uint8"
                    }
                  ],
                  "internalType": "struct IPayment.ResponseBody",
                  "name": "responseBody",
                  "type": "tuple"
                }
              ],
              "internalType": "struct IPayment.Response",
              "name": "data",
              "type": "tuple"
            }
          ],
          "internalType": "struct IPayment.Proof",
          "name": "_payment",
          "type": "tuple"
        },
        {
          "internalType": "address",
          "name": "_agentVault",
          "type": "address"
        }
      ],
      "name": "confirmTopupPayment",
      "outputs": [],
      "stateMutability": "nonpayable",
      "type": "function"
    },
    {
      "inputs": [
        {
          "components": [
            {
              "internalType": "bytes32[]",
              "name": "merkleProof",
              "type": "bytes32[]"
            },
            {
              "components": [
                {
                  "internalType": "bytes32",
                  "name": "attestationType",
                  "type": "bytes32"
                },
                {
                  "internalType": "bytes32",
                  "name": "sourceId",
                  "type": "bytes32"
                },
                {
                  "internalType": "uint64",
                  "name": "votingRound",
                  "type": "uint64"
                },
                {
                  "internalType": "uint64",
                  "name": "lowestUsedTimestamp",
                  "type": "uint64"
                },
                {
                  "components": [
                    {
                      "internalType": "bytes32",
                      "name": "transactionId",
                      "type": "bytes32"
                    },
                    {
                      "internalType": "uint256",
                      "name": "inUtxo",
                      "type": "uint256"
                    },
                    {
                      "internalType": "uint256",
                      "name": "utxo",
                      "type": "uint256"
                    }
                  ],
                  "internalType": "struct IPayment.RequestBody",
                  "name": "requestBody",
                  "type": "tuple"
                },
                {
                  "components": [
                    {
                      "internalType": "uint64",
                      "name": "blockNumber",
                      "type": "uint64"
                    },
                    {
                      "internalType": "uint64",
                      "name": "blockTimestamp",
                      "type": "uint64"
                    },
                    {
                      "internalType": "bytes32",
                      "name": "sourceAddressHash",
                      "type": "bytes32"
                    },
                    {
                      "internalType": "bytes32",
                      "name": "sourceAddressesRoot",
                      "type": "bytes32"
                    },
                    {
                      "internalType": "bytes32",
                      "name": "receivingAddressHash",
                      "type": "bytes32"
                    },
                    {
                      "internalType": "bytes32",
                      "name": "intendedReceivingAddressHash",
                      "type": "bytes32"
                    },
                    {
                      "internalType": "int256",
                      "name": "spentAmount",
                      "type": "int256"
                    },
                    {
                      "internalType": "int256",
                      "name": "intendedSpentAmount",
                      "type": "int256"
                    },
                    {
                      "internalType": "int256",
                      "name": "receivedAmount",
                      "type": "int256"
                    },
                    {
                      "internalType": "int256",
                      "name": "intendedReceivedAmount",
                      "type": "int256"
                    },
                    {
                      "internalType": "bytes32",
                      "name": "standardPaymentReference",
                      "type": "bytes32"
                    },
                    {
                      "internalType": "bool",
                      "name": "oneToOne",
                      "type": "bool"
                    },
                    {
                      "internalType": "uint8",
                      "name": "status",
                      "type": "uint8"
                    }
                  ],
                  "internalType": "struct IPayment.ResponseBody",
                  "name": "responseBody",
                  "type": "tuple"
                }
              ],
              "internalType": "struct IPayment.Response",
              "name": "data",
              "type": "tuple"
            }
          ],
          "internalType": "struct IPayment.Proof",
          "name": "_payment",
          "type": "tuple"
        },
        {
          "internalType": "address",
          "name": "_agentVault",
          "type": "address"
        }
      ],
      "name": "confirmUnderlyingWithdrawal",
      "outputs": [],
      "stateMutability": "nonpayable",
      "type": "function"
    }
  ],
  "bytecode": "0x608060405234801561001057600080fd5b50612076806100206000396000f3fe608060405234801561001057600080fd5b506004361061004c5760003560e01c80630529cf5a1461005157806387b4fac614610066578063a07ea7af14610079578063c0674b461461008c575b600080fd5b61006461005f366004611996565b61009f565b005b610064610074366004611996565b6100de565b6100646100873660046119ed565b6100e8565b61006461009a3660046119ed565b6100f4565b6100a76100fd565b6100b1828261017b565b6100da60017f0cd2207518cd3e5213e2c6dbe63d55b60aa893c194a427b7d7f1600408fd5bde55565b5050565b6100da8282610491565b6100f181610670565b50565b6100f1816107b4565b7f0cd2207518cd3e5213e2c6dbe63d55b60aa893c194a427b7d7f1600408fd5bde8054600119016101755760405162461bcd60e51b815260206004820152601f60248201527f5265656e7472616e637947756172643a207265656e7472616e742063616c6c0060448201526064015b60405180910390fd5b60029055565b600080516020612021833981519152600080516020611fe18339815191526101a284610961565b60006101ad84610b2e565b905060006101bb8233610bc3565b6006830154909150600160c01b90046001600160401b0316600081900361021d5760405162461bcd60e51b81526020600482015260166024820152751b9bc81858dd1a5d9948185b9b9bdd5b98d95b595b9d60521b604482015260640161016c565b6001600160401b03811667464250526641000360c01b1761024088013581146102885760405162461bcd60e51b815260206004820152601d60248201527f77726f6e6720616e6e6f756e63656420706d74207265666572656e6365000000604482015260640161016c565b6003840154610140890135146102e05760405162461bcd60e51b815260206004820152601a60248201527f77726f6e6720616e6e6f756e63656420706d7420736f75726365000000000000604482015260640161016c565b828061031a5750600e850154600785015461030e916001600160401b03600160901b90910481169116611a20565b6001600160401b031642115b61035f5760405162461bcd60e51b815260206004820152601660248201527537b7363c9030b3b2b73a103b30bab63a1037bbb732b960511b604482015260640161016c565b6012850154600785015461037f916001600160401b039081169116611a20565b6001600160401b031642116103ce5760405162461bcd60e51b815260206004820152601560248201527431b7b73334b936b0ba34b7b7103a37b79039b7b7b760591b604482015260640161016c565b6103db600b870189610c97565b6006840180546001600160c01b03169055610403846103fe6101c08b0135611a47565b610cd3565b8261043057600f85015461042e90859033906104299083906001600160801b0316610e21565b610e3c565b505b604080516101c08a0135815260a08a013560208201526001600160401b038416916001600160a01b038a16917f39046cbce371743ba56a4e72e03502b4285d147dd5fbdda30291fc09a2577fe1910160405180910390a35050505050505050565b600061049c82610b2e565b90506104a782610f51565b6000805160206120218339815191526104bf84610fa8565b6003820154610180850135146105105760405162461bcd60e51b81526020600482015260166024820152756e6f7420756e6465726c79696e67206164647265737360501b604482015260640161016c565b67464250526641001160c01b6001600160a01b03841617610240850135146105705760405162461bcd60e51b81526020600482015260136024820152721b9bdd0818481d1bdc1d5c081c185e5b595b9d606a1b604482015260640161016c565b600a8201546001600160401b031661059061012086016101008701611a7a565b6001600160401b031610156105e75760405162461bcd60e51b815260206004820152601a60248201527f746f707570206265666f7265206167656e742063726561746564000000000000604482015260640161016c565b6105f4600b820185611006565b6000610604610200860135611014565b9050610621836106138361106a565b6001600160801b0316611093565b6040805160a08701358152602081018390526001600160a01b038616917f4a204fd1cc26ecb86a5e85bb72577205ecc986e7376f08cd30e4b75a9636e177910160405180910390a25050505050565b600080516020611fe183398151915261068882610f51565b600061069383610b2e565b6006810154909150600160c01b90046001600160401b031660008190036106f55760405162461bcd60e51b81526020600482015260166024820152751b9bc81858dd1a5d9948185b9b9bdd5b98d95b595b9d60521b604482015260640161016c565b60128301546007830154610715916001600160401b039081169116611a20565b6001600160401b0316421161075e5760405162461bcd60e51b815260206004820152600f60248201526e31b0b731b2b6103a37b79039b7b7b760891b604482015260640161016c565b6006820180546001600160c01b031690556040516001600160401b038216906001600160a01b038616907f31bb892edc3d22ffdbdf43c317b6dc29cc6d49317559352f20d80238490f9f9790600090a350505050565b6000805160206120218339815191526107cc82610f51565b60006107d783610b2e565b6006810154909150600160c01b90046001600160401b03161561084b5760405162461bcd60e51b815260206004820152602660248201527f616e6e6f756e63656420756e6465726c79696e67207769746864726177616c2060448201526561637469766560d01b606482015260840161016c565b610853611157565b600e83018054601090610877908490600160801b90046001600160401b0316611a20565b92506101000a8154816001600160401b0302191690836001600160401b03160217905550600082600e0160109054906101000a90046001600160401b03169050808260060160186101000a8154816001600160401b0302191690836001600160401b031602179055506108e942611175565b6007830180546001600160401b0392831667ffffffffffffffff1990911617905560405190821667464250526641000360c01b8117808352916001600160a01b038716907f0b8d8807a6901c2282687e1c52668f998d08a4a7f40cd5676f91cdd07849fdd99060200160405180910390a35050505050565b7f4f24f5c433db0962dac0d2c8b84197a6e6c7cc4e5d9ebe1916a1b6193da2f342547f4f24f5c433db0962dac0d2c8b84197a6e6c7cc4e5d9ebe1916a1b6193da2f34554600080516020611fe1833981519152916001600160a01b031690604084013514610a015760405162461bcd60e51b815260206004820152600d60248201526c34b73b30b634b21031b430b4b760991b604482015260640161016c565b60405163a7a3797560e01b81526001600160a01b0382169063a7a3797590610a2d908690600401611be9565b602060405180830381865afa158015610a4a573d6000803e3d6000fd5b505050506040513d601f19601f82011682018060405250810190610a6e9190611c7c565b610aba5760405162461bcd60e51b815260206004820152601860248201527f6c6567616c207061796d656e74206e6f742070726f7665640000000000000000604482015260640161016c565b610add610acf61014085016101208601611a7a565b6001600160401b03166111dd565b610b295760405162461bcd60e51b815260206004820152601c60248201527f7665726966696564207472616e73616374696f6e20746f6f206f6c6400000000604482015260640161016c565b505050565b60008051602061200183398151915268010000000000000000600160e01b03604083901b161880600060048084015460ff1690811115610b7057610b70611c99565b03610bbd5760405162461bcd60e51b815260206004820152601b60248201527f696e76616c6964206167656e74207661756c7420616464726573730000000000604482015260640161016c565b50919050565b60018201546000906001600160a01b03908116908316811480610c8d57507f4f24f5c433db0962dac0d2c8b84197a6e6c7cc4e5d9ebe1916a1b6193da2f341546001600160a01b0316604051631f86345d60e31b81526001600160a01b038381166004830152919091169063fc31a2e890602401602060405180830381865afa158015610c54573d6000803e3d6000fd5b505050506040513d601f19601f82011682018060405250810190610c789190611caf565b6001600160a01b0316836001600160a01b0316145b9150505b92915050565b6040805161014083013560208083019190915260a08401358284015282518083038401815260609092019092528051910120610b298382611200565b6006820154600090610cf0908390600160401b9004600f0b611ccc565b90506000610cfd846112c9565b9050610d088161136c565b821215610d6e5760408051838152602081018390526001600160a01b036000805160206120018339815191528718831c16917f3232fdbb55664d655aff08d1cc31318b51047d1178a5cea499006d9f9d4c07ae910160405180910390a2610d6e846113d6565b610d77826114e4565b6006850180546001600160801b0392909216600160401b0277ffffffffffffffffffffffffffffffff000000000000000019909216919091179055610dcc846000805160206120018339815191521860401c90565b6006850154604051600160401b909104600f0b81526001600160a01b0391909116907f73da6891cb86668451f612d2555e88650888a0133a30b1d226b2d1f955e62bca9060200160405180910390a250505050565b6000610e3582610e308561150d565b61155a565b9392505050565b600080610e488561150d565b90506000600080516020612001833981519152861860401c82546040516370a0823160e01b81526001600160a01b038084166004830152929350610ed992879216906370a0823190602401602060405180830381865afa158015610eb0573d6000803e3d6000fd5b505050506040513d601f19601f82011682018060405250810190610ed49190611cf4565b611664565b825460405163083e007560e21b81526001600160a01b0391821660048201528782166024820152604481018390529194508216906320f801d490606401600060405180830381600087803b158015610f3057600080fd5b505af1158015610f44573d6000803e3d6000fd5b5050505050509392505050565b610f63610f5d82610b2e565b33610bc3565b6100f15760405162461bcd60e51b815260206004820152601660248201527537b7363c9030b3b2b73a103b30bab63a1037bbb732b960511b604482015260640161016c565b6000610fbc6102a083016102808401611d0d565b60ff1614610ffd5760405162461bcd60e51b815260206004820152600e60248201526d1c185e5b595b9d0819985a5b195960921b604482015260640161016c565b6100f181610961565b6100da8260a0830135611200565b6000808212156110665760405162461bcd60e51b815260206004820181905260248201527f53616665436173743a2076616c7565206d75737420626520706f736974697665604482015260640161016c565b5090565b60006001600160801b038211156110665760405162461bcd60e51b815260040161016c90611d28565b6110a461109f8261136c565b6114e4565b6006830180546008906110c2908490600160401b9004600f0b611d6f565b92506101000a8154816001600160801b030219169083600f0b6001600160801b03160217905550611103826000805160206120018339815191521860401c90565b6006830154604051600160401b909104600f0b81526001600160a01b0391909116907f73da6891cb86668451f612d2555e88650888a0133a30b1d226b2d1f955e62bca906020015b60405180910390a25050565b60006111656103e843611dc4565b611170906001611dd8565b905090565b60006001600160401b038211156110665760405162461bcd60e51b815260206004820152602660248201527f53616665436173743a2076616c756520646f65736e27742066697420696e203660448201526534206269747360d01b606482015260840161016c565b60006111ed600e62015180611deb565b6111f79042611e02565b90911015919050565b6000818152602083905260409020541561125c5760405162461bcd60e51b815260206004820152601960248201527f7061796d656e7420616c726561647920636f6e6669726d656400000000000000604482015260640161016c565b600061126b6201518042611e15565b600081815260018501602052604081205491925081900361128c578261128e565b805b60008481526020868152604080832093909355848252600187019052908120849055600285015490036112c357600284018290555b50505050565b7f4f24f5c433db0962dac0d2c8b84197a6e6c7cc4e5d9ebe1916a1b6193da2f346546005820154600091600080516020611fe1833981519152918391600160901b90046001600160401b039081169161133391600160801b8204811691600160401b900416611a20565b6001600160401b03166113469190611deb565b600d830154909150611364908290600160401b900461ffff1661167a565b949350505050565b60006001600160ff1b038211156110665760405162461bcd60e51b815260206004820152602860248201527f53616665436173743a2076616c756520646f65736e27742066697420696e2061604482015267371034b73a191a9b60c11b606482015260840161016c565b600360048083015460ff16908111156113f1576113f1611c99565b1480611413575060048181015460ff168181111561141157611411611c99565b145b1561141b5750565b600061142682611689565b9050600281600281111561143c5761143c611c99565b146114875761144a42611175565b6004830180546001600160401b0392909216600160a81b0260ff60e81b191668ffffffffffffffffff60a81b1990921691909117600160e91b1790555b60048201805460ff19166003179055600080516020612001833981519152821860401c6001600160a01b03167fa3bf539465c1a8746950e123769affaff9097155e9e8cb9e079e1d55d6ba34974260405161114b91815260200190565b80600f81900b81146115085760405162461bcd60e51b815260040161016c90611d28565b919050565b60008060008051602061202183398151915260048401548154919250829161010090910461ffff1690811061154457611544611e29565b9060005260206000209060040201915050919050565b600081600201805461156b90611e3f565b905060000361157b575081610c91565b60008061161584600201805461159090611e3f565b80601f01602080910402602001604051908101604052809291908181526020018280546115bc90611e3f565b80156116095780601f106115de57610100808354040283529160200191611609565b820191906000526020600020905b8154815290600101906020018083116115ec57829003601f168201915b50505050506000611766565b8654929450925060009160059150611638908490600160a81b900460ff16611dd8565b6116429190611e02565b905061165a61165282600a611f57565b87908561185b565b9695505050505050565b60008183106116735781610e35565b5090919050565b6000610e35838361271061185b565b600080600080516020611fe1833981519152600484015490915060ff1660028160048111156116ba576116ba611c99565b0361173957600060016004860154600160e81b900460ff1660028111156116e3576116e3611c99565b14801561171f575060118301546004860154611712916001600160401b0390811691600160a81b900416611a20565b6001600160401b03164211155b90508061172d576002611730565b60015b95945050505050565b600381600481111561174d5761174d611c99565b0361175c575060029392505050565b5060009392505050565b7f4f24f5c433db0962dac0d2c8b84197a6e6c7cc4e5d9ebe1916a1b6193da2f3445460009081908190600080516020611fe1833981519152906001600160a01b031685156118285760405163e4a0a55b60e01b81526001600160a01b0382169063e4a0a55b906117da908a90600401611f63565b606060405180830381865afa1580156117f7573d6000803e3d6000fd5b505050506040513d601f19601f8201168201806040525081019061181b9190611fb2565b9450945094505050611854565b60405163524f388960e01b81526001600160a01b0382169063524f3889906117da908a90600401611f63565b9250925092565b600080821161189f5760405162461bcd60e51b815260206004820152601060248201526f4469766973696f6e206279207a65726f60801b604482015260640161016c565b836000036118af57506000610e35565b838302838582816118c2576118c2611dae565b04036118e0578281816118d7576118d7611dae565b04915050610e35565b5060006118ed8386611e15565b905060006118fb8487611dc4565b905060006119098587611e15565b905060006119178688611dc4565b9050856119248285611deb565b61192e9190611e15565b6119388385611deb565b6119428387611deb565b8861194d8689611deb565b6119579190611deb565b6119619190611dd8565b61196b9190611dd8565b6119759190611dd8565b98975050505050505050565b6001600160a01b03811681146100f157600080fd5b600080604083850312156119a957600080fd5b82356001600160401b038111156119bf57600080fd5b83016102a081860312156119d257600080fd5b915060208301356119e281611981565b809150509250929050565b6000602082840312156119ff57600080fd5b8135610e3581611981565b634e487b7160e01b600052601160045260246000fd5b6001600160401b03818116838216019080821115611a4057611a40611a0a565b5092915050565b6000600160ff1b8201611a5c57611a5c611a0a565b5060000390565b80356001600160401b038116811461150857600080fd5b600060208284031215611a8c57600080fd5b610e3582611a63565b80151581146100f157600080fd5b803561150881611a95565b803560ff8116811461150857600080fd5b8035825260208101356020830152611ad960408201611a63565b6001600160401b03808216604085015280611af660608501611a63565b16606085015250506080810135608083015260a081013560a083015260c081013560c0830152611b3c60e08301611b2f60e08401611a63565b6001600160401b03169052565b610100611b4a818301611a63565b6001600160401b03169083015261012081810135908301526101408082013590830152610160808201359083015261018080820135908301526101a080820135908301526101c080820135908301526101e0808201359083015261020080820135908301526102208082013590830152610240611bc8818301611aa3565b151590830152610260611bdc828201611aae565b60ff8116848301526112c3565b6020815260008235601e19843603018112611c0357600080fd5b83016020810190356001600160401b03811115611c1f57600080fd5b8060051b803603831315611c3257600080fd5b6102a060208601526102c085018290526102e06001600160fb1b03831115611c5957600080fd5b818482880137611c6f6040870160208901611abf565b9401909301949350505050565b600060208284031215611c8e57600080fd5b8151610e3581611a95565b634e487b7160e01b600052602160045260246000fd5b600060208284031215611cc157600080fd5b8151610e3581611981565b8082018281126000831280158216821582161715611cec57611cec611a0a565b505092915050565b600060208284031215611d0657600080fd5b5051919050565b600060208284031215611d1f57600080fd5b610e3582611aae565b60208082526027908201527f53616665436173743a2076616c756520646f65736e27742066697420696e20316040820152663238206269747360c81b606082015260800190565b600f81810b9083900b016f7fffffffffffffffffffffffffffffff81136f7fffffffffffffffffffffffffffffff1982121715610c9157610c91611a0a565b634e487b7160e01b600052601260045260246000fd5b600082611dd357611dd3611dae565b500690565b80820180821115610c9157610c91611a0a565b8082028115828204841417610c9157610c91611a0a565b81810381811115610c9157610c91611a0a565b600082611e2457611e24611dae565b500490565b634e487b7160e01b600052603260045260246000fd5b600181811c90821680611e5357607f821691505b602082108103610bbd57634e487b7160e01b600052602260045260246000fd5b600181815b80851115611eae578160001904821115611e9457611e94611a0a565b80851615611ea157918102915b93841c9390800290611e78565b509250929050565b600082611ec557506001610c91565b81611ed257506000610c91565b8160018114611ee85760028114611ef257611f0e565b6001915050610c91565b60ff841115611f0357611f03611a0a565b50506001821b610c91565b5060208310610133831016604e8410600b8410161715611f31575081810a610c91565b611f3b8383611e73565b8060001904821115611f4f57611f4f611a0a565b029392505050565b6000610e358383611eb6565b60006020808352835180602085015260005b81811015611f9157858101830151858201604001528201611f75565b506000604082860101526040601f19601f8301168501019250505092915050565b600080600060608486031215611fc757600080fd5b835192506020840151915060408401519050925092509256fe4f24f5c433db0962dac0d2c8b84197a6e6c7cc4e5d9ebe1916a1b6193da2f33a5bebac0595fee029d42bb673937f5f1cb81cf8641382bc17774635de9b7d7965ec7e8c1c441439dd40959777f4c577ea0cd42fcc1dbe59d2bd0f5d9c55df8db6a26469706673582212205f2f4528ae3027bf951e9a8b6f4021605ca82ac83fbf76781f57847254d3c34464736f6c63430008170033",
  "linkReferences": {},
  "deployedLinkReferences": {}
}