{
  "_format": "hh-sol-artifact-1",
  "contractName": "UnderlyingBalanceFacet",
  "sourceName": "contracts/assetManager/facets/UnderlyingBalanceFacet.sol",
  "abi": [
    {
      "anonymous": false,
      "inputs": [
        {
          "indexed": true,
          "internalType": "address",
          "name": "agentVault",
          "type": "address"
        },
        {
          "indexed": false,
          "internalType": "uint256",
          "name": "timestamp",
          "type": "uint256"
        }
      ],
      "name": "FullLiquidationStarted",
      "type": "event"
    },
    {
      "anonymous": false,
      "inputs": [
        {
          "indexed": true,
          "internalType": "address",
          "name": "agentVault",
          "type": "address"
        },
        {
          "indexed": false,
          "internalType": "int256",
          "name": "underlyingBalanceUBA",
          "type": "int256"
        }
      ],
      "name": "UnderlyingBalanceChanged",
      "type": "event"
    },
    {
      "anonymous": false,
      "inputs": [
        {
          "indexed": true,
          "internalType": "address",
          "name": "agentVault",
          "type": "address"
        },
        {
          "indexed": false,
          "internalType": "int256",
          "name": "balance",
          "type": "int256"
        },
        {
          "indexed": false,
          "internalType": "uint256",
          "name": "requiredBalance",
          "type": "uint256"
        }
      ],
      "name": "UnderlyingBalanceTooLow",
      "type": "event"
    },
    {
      "anonymous": false,
      "inputs": [
        {
          "indexed": true,
          "internalType": "address",
          "name": "agentVault",
          "type": "address"
        },
        {
          "indexed": false,
          "internalType": "bytes32",
          "name": "transactionHash",
          "type": "bytes32"
        },
        {
          "indexed": false,
          "internalType": "uint256",
          "name": "depositedUBA",
          "type": "uint256"
        }
      ],
      "name": "UnderlyingBalanceToppedUp",
      "type": "event"
    },
    {
      "anonymous": false,
      "inputs": [
        {
          "indexed": true,
          "internalType": "address",
          "name": "agentVault",
          "type": "address"
        },
        {
          "indexed": true,
          "internalType": "uint64",
          "name": "announcementId",
          "type": "uint64"
        },
        {
          "indexed": false,
          "internalType": "bytes32",
          "name": "paymentReference",
          "type": "bytes32"
        }
      ],
      "name": "UnderlyingWithdrawalAnnounced",
      "type": "event"
    },
    {
      "anonymous": false,
      "inputs": [
        {
          "indexed": true,
          "internalType": "address",
          "name": "agentVault",
          "type": "address"
        },
        {
          "indexed": true,
          "internalType": "uint64",
          "name": "announcementId",
          "type": "uint64"
        }
      ],
      "name": "UnderlyingWithdrawalCancelled",
      "type": "event"
    },
    {
      "anonymous": false,
      "inputs": [
        {
          "indexed": true,
          "internalType": "address",
          "name": "agentVault",
          "type": "address"
        },
        {
          "indexed": true,
          "internalType": "uint64",
          "name": "announcementId",
          "type": "uint64"
        },
        {
          "indexed": false,
          "internalType": "int256",
          "name": "spentUBA",
          "type": "int256"
        },
        {
          "indexed": false,
          "internalType": "bytes32",
          "name": "transactionHash",
          "type": "bytes32"
        }
      ],
      "name": "UnderlyingWithdrawalConfirmed",
      "type": "event"
    },
    {
      "inputs": [
        {
          "internalType": "address",
          "name": "_agentVault",
          "type": "address"
        }
      ],
      "name": "announceUnderlyingWithdrawal",
      "outputs": [],
      "stateMutability": "nonpayable",
      "type": "function"
    },
    {
      "inputs": [
        {
          "internalType": "address",
          "name": "_agentVault",
          "type": "address"
        }
      ],
      "name": "cancelUnderlyingWithdrawal",
      "outputs": [],
      "stateMutability": "nonpayable",
      "type": "function"
    },
    {
      "inputs": [
        {
          "components": [
            {
              "internalType": "bytes32[]",
              "name": "merkleProof",
              "type": "bytes32[]"
            },
            {
              "components": [
                {
                  "internalType": "bytes32",
                  "name": "attestationType",
                  "type": "bytes32"
                },
                {
                  "internalType": "bytes32",
                  "name": "sourceId",
                  "type": "bytes32"
                },
                {
                  "internalType": "uint64",
                  "name": "votingRound",
                  "type": "uint64"
                },
                {
                  "internalType": "uint64",
                  "name": "lowestUsedTimestamp",
                  "type": "uint64"
                },
                {
                  "components": [
                    {
                      "internalType": "bytes32",
                      "name": "transactionId",
                      "type": "bytes32"
                    },
                    {
                      "internalType": "uint256",
                      "name": "inUtxo",
                      "type": "uint256"
                    },
                    {
                      "internalType": "uint256",
                      "name": "utxo",
                      "type": "uint256"
                    }
                  ],
                  "internalType": "struct Payment.RequestBody",
                  "name": "requestBody",
                  "type": "tuple"
                },
                {
                  "components": [
                    {
                      "internalType": "uint64",
                      "name": "blockNumber",
                      "type": "uint64"
                    },
                    {
                      "internalType": "uint64",
                      "name": "blockTimestamp",
                      "type": "uint64"
                    },
                    {
                      "internalType": "bytes32",
                      "name": "sourceAddressHash",
                      "type": "bytes32"
                    },
                    {
                      "internalType": "bytes32",
                      "name": "receivingAddressHash",
                      "type": "bytes32"
                    },
                    {
                      "internalType": "bytes32",
                      "name": "intendedReceivingAddressHash",
                      "type": "bytes32"
                    },
                    {
                      "internalType": "int256",
                      "name": "spentAmount",
                      "type": "int256"
                    },
                    {
                      "internalType": "int256",
                      "name": "intendedSpentAmount",
                      "type": "int256"
                    },
                    {
                      "internalType": "int256",
                      "name": "receivedAmount",
                      "type": "int256"
                    },
                    {
                      "internalType": "int256",
                      "name": "intendedReceivedAmount",
                      "type": "int256"
                    },
                    {
                      "internalType": "bytes32",
                      "name": "standardPaymentReference",
                      "type": "bytes32"
                    },
                    {
                      "internalType": "bool",
                      "name": "oneToOne",
                      "type": "bool"
                    },
                    {
                      "internalType": "uint8",
                      "name": "status",
                      "type": "uint8"
                    }
                  ],
                  "internalType": "struct Payment.ResponseBody",
                  "name": "responseBody",
                  "type": "tuple"
                }
              ],
              "internalType": "struct Payment.Response",
              "name": "data",
              "type": "tuple"
            }
          ],
          "internalType": "struct Payment.Proof",
          "name": "_payment",
          "type": "tuple"
        },
        {
          "internalType": "address",
          "name": "_agentVault",
          "type": "address"
        }
      ],
      "name": "confirmTopupPayment",
      "outputs": [],
      "stateMutability": "nonpayable",
      "type": "function"
    },
    {
      "inputs": [
        {
          "components": [
            {
              "internalType": "bytes32[]",
              "name": "merkleProof",
              "type": "bytes32[]"
            },
            {
              "components": [
                {
                  "internalType": "bytes32",
                  "name": "attestationType",
                  "type": "bytes32"
                },
                {
                  "internalType": "bytes32",
                  "name": "sourceId",
                  "type": "bytes32"
                },
                {
                  "internalType": "uint64",
                  "name": "votingRound",
                  "type": "uint64"
                },
                {
                  "internalType": "uint64",
                  "name": "lowestUsedTimestamp",
                  "type": "uint64"
                },
                {
                  "components": [
                    {
                      "internalType": "bytes32",
                      "name": "transactionId",
                      "type": "bytes32"
                    },
                    {
                      "internalType": "uint256",
                      "name": "inUtxo",
                      "type": "uint256"
                    },
                    {
                      "internalType": "uint256",
                      "name": "utxo",
                      "type": "uint256"
                    }
                  ],
                  "internalType": "struct Payment.RequestBody",
                  "name": "requestBody",
                  "type": "tuple"
                },
                {
                  "components": [
                    {
                      "internalType": "uint64",
                      "name": "blockNumber",
                      "type": "uint64"
                    },
                    {
                      "internalType": "uint64",
                      "name": "blockTimestamp",
                      "type": "uint64"
                    },
                    {
                      "internalType": "bytes32",
                      "name": "sourceAddressHash",
                      "type": "bytes32"
                    },
                    {
                      "internalType": "bytes32",
                      "name": "receivingAddressHash",
                      "type": "bytes32"
                    },
                    {
                      "internalType": "bytes32",
                      "name": "intendedReceivingAddressHash",
                      "type": "bytes32"
                    },
                    {
                      "internalType": "int256",
                      "name": "spentAmount",
                      "type": "int256"
                    },
                    {
                      "internalType": "int256",
                      "name": "intendedSpentAmount",
                      "type": "int256"
                    },
                    {
                      "internalType": "int256",
                      "name": "receivedAmount",
                      "type": "int256"
                    },
                    {
                      "internalType": "int256",
                      "name": "intendedReceivedAmount",
                      "type": "int256"
                    },
                    {
                      "internalType": "bytes32",
                      "name": "standardPaymentReference",
                      "type": "bytes32"
                    },
                    {
                      "internalType": "bool",
                      "name": "oneToOne",
                      "type": "bool"
                    },
                    {
                      "internalType": "uint8",
                      "name": "status",
                      "type": "uint8"
                    }
                  ],
                  "internalType": "struct Payment.ResponseBody",
                  "name": "responseBody",
                  "type": "tuple"
                }
              ],
              "internalType": "struct Payment.Response",
              "name": "data",
              "type": "tuple"
            }
          ],
          "internalType": "struct Payment.Proof",
          "name": "_payment",
          "type": "tuple"
        },
        {
          "internalType": "address",
          "name": "_agentVault",
          "type": "address"
        }
      ],
      "name": "confirmUnderlyingWithdrawal",
      "outputs": [],
      "stateMutability": "nonpayable",
      "type": "function"
    }
  ],
  "bytecode": "0x608060405234801561001057600080fd5b50611fc1806100206000396000f3fe608060405234801561001057600080fd5b506004361061004c5760003560e01c8063345cf8ab14610051578063a07ea7af14610066578063c0674b4614610079578063de79b8a21461008c575b600080fd5b61006461005f3660046118ec565b61009f565b005b610064610074366004611943565b6100ad565b610064610087366004611943565b6100b9565b61006461009a3660046118ec565b6100c2565b6100a982826100cc565b5050565b6100b6816103e7565b50565b6100b68161052b565b6100a982826106d8565b600080516020611f6c833981519152600080516020611f2c8339815191526100f3846108b7565b60006100fe84610a84565b9050600061010c8233610b19565b6006830154909150600160c01b90046001600160401b031660008190036101735760405162461bcd60e51b81526020600482015260166024820152751b9bc81858dd1a5d9948185b9b9bdd5b98d95b595b9d60521b60448201526064015b60405180910390fd5b6001600160401b03811667464250526641000360c01b1761022088013581146101de5760405162461bcd60e51b815260206004820152601d60248201527f77726f6e6720616e6e6f756e63656420706d74207265666572656e6365000000604482015260640161016a565b6003840154610140890135146102365760405162461bcd60e51b815260206004820152601a60248201527f77726f6e6720616e6e6f756e63656420706d7420736f75726365000000000000604482015260640161016a565b82806102705750600e8501546007850154610264916001600160401b03600160901b90910481169116611976565b6001600160401b031642115b6102b55760405162461bcd60e51b815260206004820152601660248201527537b7363c9030b3b2b73a103b30bab63a1037bbb732b960511b604482015260640161016a565b601285015460078501546102d5916001600160401b039081169116611976565b6001600160401b031642116103245760405162461bcd60e51b815260206004820152601560248201527431b7b73334b936b0ba34b7b7103a37b79039b7b7b760591b604482015260640161016a565b610331600b870189610bed565b6006840180546001600160c01b03169055610359846103546101a08b013561199d565b610c29565b8261038657600f850154610384908590339061037f9083906001600160801b0316610d77565b610d92565b505b604080516101a08a0135815260a08a013560208201526001600160401b038416916001600160a01b038a16917f39046cbce371743ba56a4e72e03502b4285d147dd5fbdda30291fc09a2577fe1910160405180910390a35050505050505050565b600080516020611f2c8339815191526103ff82610ea7565b600061040a83610a84565b6006810154909150600160c01b90046001600160401b0316600081900361046c5760405162461bcd60e51b81526020600482015260166024820152751b9bc81858dd1a5d9948185b9b9bdd5b98d95b595b9d60521b604482015260640161016a565b6012830154600783015461048c916001600160401b039081169116611976565b6001600160401b031642116104d55760405162461bcd60e51b815260206004820152600f60248201526e31b0b731b2b6103a37b79039b7b7b760891b604482015260640161016a565b6006820180546001600160c01b031690556040516001600160401b038216906001600160a01b038616907f31bb892edc3d22ffdbdf43c317b6dc29cc6d49317559352f20d80238490f9f9790600090a350505050565b600080516020611f6c83398151915261054382610ea7565b600061054e83610a84565b6006810154909150600160c01b90046001600160401b0316156105c25760405162461bcd60e51b815260206004820152602660248201527f616e6e6f756e63656420756e6465726c79696e67207769746864726177616c2060448201526561637469766560d01b606482015260840161016a565b6105ca610efe565b600e830180546010906105ee908490600160801b90046001600160401b0316611976565b92506101000a8154816001600160401b0302191690836001600160401b03160217905550600082600e0160109054906101000a90046001600160401b03169050808260060160186101000a8154816001600160401b0302191690836001600160401b0316021790555061066042610f1c565b6007830180546001600160401b0392831667ffffffffffffffff1990911617905560405190821667464250526641000360c01b8117808352916001600160a01b038716907f0b8d8807a6901c2282687e1c52668f998d08a4a7f40cd5676f91cdd07849fdd99060200160405180910390a35050505050565b60006106e382610a84565b90506106ee82610ea7565b600080516020611f6c83398151915261070684610f88565b6003820154610160850135146107575760405162461bcd60e51b81526020600482015260166024820152756e6f7420756e6465726c79696e67206164647265737360501b604482015260640161016a565b67464250526641001160c01b6001600160a01b03841617610220850135146107b75760405162461bcd60e51b81526020600482015260136024820152721b9bdd0818481d1bdc1d5c081c185e5b595b9d606a1b604482015260640161016a565b600a8201546001600160401b03166107d7610120860161010087016119d0565b6001600160401b0316101561082e5760405162461bcd60e51b815260206004820152601a60248201527f746f707570206265666f7265206167656e742063726561746564000000000000604482015260640161016a565b61083b600b820185610fe6565b600061084b6101e0860135610ff4565b90506108688361085a83611046565b6001600160801b031661106f565b6040805160a08701358152602081018390526001600160a01b038616917f4a204fd1cc26ecb86a5e85bb72577205ecc986e7376f08cd30e4b75a9636e177910160405180910390a25050505050565b7f4f24f5c433db0962dac0d2c8b84197a6e6c7cc4e5d9ebe1916a1b6193da2f342547f4f24f5c433db0962dac0d2c8b84197a6e6c7cc4e5d9ebe1916a1b6193da2f34554600080516020611f2c833981519152916001600160a01b0316906040840135146109575760405162461bcd60e51b815260206004820152600d60248201526c34b73b30b634b21031b430b4b760991b604482015260640161016a565b604051634661c36760e11b81526001600160a01b03821690638cc386ce90610983908690600401611b34565b602060405180830381865afa1580156109a0573d6000803e3d6000fd5b505050506040513d601f19601f820116820180604052508101906109c49190611bc7565b610a105760405162461bcd60e51b815260206004820152601860248201527f6c6567616c207061796d656e74206e6f742070726f7665640000000000000000604482015260640161016a565b610a33610a25610140850161012086016119d0565b6001600160401b0316611133565b610a7f5760405162461bcd60e51b815260206004820152601c60248201527f7665726966696564207472616e73616374696f6e20746f6f206f6c6400000000604482015260640161016a565b505050565b600080516020611f4c83398151915268010000000000000000600160e01b03604083901b161880600060048084015460ff1690811115610ac657610ac6611be4565b03610b135760405162461bcd60e51b815260206004820152601b60248201527f696e76616c6964206167656e74207661756c7420616464726573730000000000604482015260640161016a565b50919050565b60018201546000906001600160a01b03908116908316811480610be357507f4f24f5c433db0962dac0d2c8b84197a6e6c7cc4e5d9ebe1916a1b6193da2f341546001600160a01b0316604051631f86345d60e31b81526001600160a01b038381166004830152919091169063fc31a2e890602401602060405180830381865afa158015610baa573d6000803e3d6000fd5b505050506040513d601f19601f82011682018060405250810190610bce9190611bfa565b6001600160a01b0316836001600160a01b0316145b9150505b92915050565b6040805161014083013560208083019190915260a08401358284015282518083038401815260609092019092528051910120610a7f8382611156565b6006820154600090610c46908390600160401b9004600f0b611c17565b90506000610c538461121f565b9050610c5e816112c2565b821215610cc45760408051838152602081018390526001600160a01b03600080516020611f4c8339815191528718831c16917f3232fdbb55664d655aff08d1cc31318b51047d1178a5cea499006d9f9d4c07ae910160405180910390a2610cc48461132c565b610ccd8261143a565b6006850180546001600160801b0392909216600160401b0277ffffffffffffffffffffffffffffffff000000000000000019909216919091179055610d2284600080516020611f4c8339815191521860401c90565b6006850154604051600160401b909104600f0b81526001600160a01b0391909116907f73da6891cb86668451f612d2555e88650888a0133a30b1d226b2d1f955e62bca9060200160405180910390a250505050565b6000610d8b82610d8685611463565b6114b0565b9392505050565b600080610d9e85611463565b90506000600080516020611f4c833981519152861860401c82546040516370a0823160e01b81526001600160a01b038084166004830152929350610e2f92879216906370a0823190602401602060405180830381865afa158015610e06573d6000803e3d6000fd5b505050506040513d601f19601f82011682018060405250810190610e2a9190611c3f565b6115ba565b825460405163083e007560e21b81526001600160a01b0391821660048201528782166024820152604481018390529194508216906320f801d490606401600060405180830381600087803b158015610e8657600080fd5b505af1158015610e9a573d6000803e3d6000fd5b5050505050509392505050565b610eb9610eb382610a84565b33610b19565b6100b65760405162461bcd60e51b815260206004820152601660248201527537b7363c9030b3b2b73a103b30bab63a1037bbb732b960511b604482015260640161016a565b6000610f0c6103e843611c6e565b610f17906001611c82565b905090565b60006001600160401b03821115610f845760405162461bcd60e51b815260206004820152602660248201527f53616665436173743a2076616c756520646f65736e27742066697420696e203660448201526534206269747360d01b606482015260840161016a565b5090565b6000610f9c61028083016102608401611c95565b60ff1614610fdd5760405162461bcd60e51b815260206004820152600e60248201526d1c185e5b595b9d0819985a5b195960921b604482015260640161016a565b6100b6816108b7565b6100a98260a0830135611156565b600080821215610f845760405162461bcd60e51b815260206004820181905260248201527f53616665436173743a2076616c7565206d75737420626520706f736974697665604482015260640161016a565b60006001600160801b03821115610f845760405162461bcd60e51b815260040161016a90611cb0565b61108061107b826112c2565b61143a565b60068301805460089061109e908490600160401b9004600f0b611cf7565b92506101000a8154816001600160801b030219169083600f0b6001600160801b031602179055506110df82600080516020611f4c8339815191521860401c90565b6006830154604051600160401b909104600f0b81526001600160a01b0391909116907f73da6891cb86668451f612d2555e88650888a0133a30b1d226b2d1f955e62bca906020015b60405180910390a25050565b6000611143600e62015180611d36565b61114d9042611d4d565b90911015919050565b600081815260208390526040902054156111b25760405162461bcd60e51b815260206004820152601960248201527f7061796d656e7420616c726561647920636f6e6669726d656400000000000000604482015260640161016a565b60006111c16201518042611d60565b60008181526001850160205260408120549192508190036111e257826111e4565b805b600084815260208681526040808320939093558482526001870190529081208490556002850154900361121957600284018290555b50505050565b7f4f24f5c433db0962dac0d2c8b84197a6e6c7cc4e5d9ebe1916a1b6193da2f346546005820154600091600080516020611f2c833981519152918391600160901b90046001600160401b039081169161128991600160801b8204811691600160401b900416611976565b6001600160401b031661129c9190611d36565b600d8301549091506112ba908290600160401b900461ffff166115d0565b949350505050565b60006001600160ff1b03821115610f845760405162461bcd60e51b815260206004820152602860248201527f53616665436173743a2076616c756520646f65736e27742066697420696e2061604482015267371034b73a191a9b60c11b606482015260840161016a565b600360048083015460ff169081111561134757611347611be4565b1480611369575060048181015460ff168181111561136757611367611be4565b145b156113715750565b600061137c826115df565b9050600281600281111561139257611392611be4565b146113dd576113a042610f1c565b6004830180546001600160401b0392909216600160a81b0260ff60e81b191668ffffffffffffffffff60a81b1990921691909117600160e91b1790555b60048201805460ff19166003179055600080516020611f4c833981519152821860401c6001600160a01b03167fa3bf539465c1a8746950e123769affaff9097155e9e8cb9e079e1d55d6ba34974260405161112791815260200190565b80600f81900b811461145e5760405162461bcd60e51b815260040161016a90611cb0565b919050565b600080600080516020611f6c83398151915260048401548154919250829161010090910461ffff1690811061149a5761149a611d74565b9060005260206000209060040201915050919050565b60008160020180546114c190611d8a565b90506000036114d1575081610be7565b60008061156b8460020180546114e690611d8a565b80601f016020809104026020016040519081016040528092919081815260200182805461151290611d8a565b801561155f5780601f106115345761010080835404028352916020019161155f565b820191906000526020600020905b81548152906001019060200180831161154257829003601f168201915b505050505060006116bc565b865492945092506000916005915061158e908490600160a81b900460ff16611c82565b6115989190611d4d565b90506115b06115a882600a611ea2565b8790856117b1565b9695505050505050565b60008183106115c95781610d8b565b5090919050565b6000610d8b83836127106117b1565b600080600080516020611f2c833981519152600484015490915060ff16600281600481111561161057611610611be4565b0361168f57600060016004860154600160e81b900460ff16600281111561163957611639611be4565b148015611675575060118301546004860154611668916001600160401b0390811691600160a81b900416611976565b6001600160401b03164211155b905080611683576002611686565b60015b95945050505050565b60038160048111156116a3576116a3611be4565b036116b2575060029392505050565b5060009392505050565b7f4f24f5c433db0962dac0d2c8b84197a6e6c7cc4e5d9ebe1916a1b6193da2f3445460009081908190600080516020611f2c833981519152906001600160a01b0316851561177e5760405163e4a0a55b60e01b81526001600160a01b0382169063e4a0a55b90611730908a90600401611eae565b606060405180830381865afa15801561174d573d6000803e3d6000fd5b505050506040513d601f19601f820116820180604052508101906117719190611efd565b94509450945050506117aa565b60405163524f388960e01b81526001600160a01b0382169063524f388990611730908a90600401611eae565b9250925092565b60008082116117f55760405162461bcd60e51b815260206004820152601060248201526f4469766973696f6e206279207a65726f60801b604482015260640161016a565b8360000361180557506000610d8b565b8383028385828161181857611818611c58565b04036118365782818161182d5761182d611c58565b04915050610d8b565b5060006118438386611d60565b905060006118518487611c6e565b9050600061185f8587611d60565b9050600061186d8688611c6e565b90508561187a8285611d36565b6118849190611d60565b61188e8385611d36565b6118988387611d36565b886118a38689611d36565b6118ad9190611d36565b6118b79190611c82565b6118c19190611c82565b6118cb9190611c82565b98975050505050505050565b6001600160a01b03811681146100b657600080fd5b600080604083850312156118ff57600080fd5b82356001600160401b0381111561191557600080fd5b8301610280818603121561192857600080fd5b91506020830135611938816118d7565b809150509250929050565b60006020828403121561195557600080fd5b8135610d8b816118d7565b634e487b7160e01b600052601160045260246000fd5b6001600160401b0381811683821601908082111561199657611996611960565b5092915050565b6000600160ff1b82016119b2576119b2611960565b5060000390565b80356001600160401b038116811461145e57600080fd5b6000602082840312156119e257600080fd5b610d8b826119b9565b80151581146100b657600080fd5b803561145e816119eb565b803560ff8116811461145e57600080fd5b8035825260208101356020830152611a2f604082016119b9565b6001600160401b03808216604085015280611a4c606085016119b9565b16606085015250506080810135608083015260a081013560a083015260c081013560c0830152611a9260e08301611a8560e084016119b9565b6001600160401b03169052565b610100611aa08183016119b9565b6001600160401b03169083015261012081810135908301526101408082013590830152610160808201359083015261018080820135908301526101a080820135908301526101c080820135908301526101e080820135908301526102008082013590830152610220611b138183016119f9565b151590830152610240611b27828201611a04565b60ff811684830152611219565b6020815260008235601e19843603018112611b4e57600080fd5b83016020810190356001600160401b03811115611b6a57600080fd5b8060051b803603831315611b7d57600080fd5b61028060208601526102a085018290526102c06001600160fb1b03831115611ba457600080fd5b818482880137611bba6040870160208901611a15565b9401909301949350505050565b600060208284031215611bd957600080fd5b8151610d8b816119eb565b634e487b7160e01b600052602160045260246000fd5b600060208284031215611c0c57600080fd5b8151610d8b816118d7565b8082018281126000831280158216821582161715611c3757611c37611960565b505092915050565b600060208284031215611c5157600080fd5b5051919050565b634e487b7160e01b600052601260045260246000fd5b600082611c7d57611c7d611c58565b500690565b80820180821115610be757610be7611960565b600060208284031215611ca757600080fd5b610d8b82611a04565b60208082526027908201527f53616665436173743a2076616c756520646f65736e27742066697420696e20316040820152663238206269747360c81b606082015260800190565b600f81810b9083900b016f7fffffffffffffffffffffffffffffff81136f7fffffffffffffffffffffffffffffff1982121715610be757610be7611960565b8082028115828204841417610be757610be7611960565b81810381811115610be757610be7611960565b600082611d6f57611d6f611c58565b500490565b634e487b7160e01b600052603260045260246000fd5b600181811c90821680611d9e57607f821691505b602082108103610b1357634e487b7160e01b600052602260045260246000fd5b600181815b80851115611df9578160001904821115611ddf57611ddf611960565b80851615611dec57918102915b93841c9390800290611dc3565b509250929050565b600082611e1057506001610be7565b81611e1d57506000610be7565b8160018114611e335760028114611e3d57611e59565b6001915050610be7565b60ff841115611e4e57611e4e611960565b50506001821b610be7565b5060208310610133831016604e8410600b8410161715611e7c575081810a610be7565b611e868383611dbe565b8060001904821115611e9a57611e9a611960565b029392505050565b6000610d8b8383611e01565b60006020808352835180602085015260005b81811015611edc57858101830151858201604001528201611ec0565b506000604082860101526040601f19601f8301168501019250505092915050565b600080600060608486031215611f1257600080fd5b835192506020840151915060408401519050925092509256fe4f24f5c433db0962dac0d2c8b84197a6e6c7cc4e5d9ebe1916a1b6193da2f33a5bebac0595fee029d42bb673937f5f1cb81cf8641382bc17774635de9b7d7965ec7e8c1c441439dd40959777f4c577ea0cd42fcc1dbe59d2bd0f5d9c55df8db6a26469706673582212208cfe7a7f4425696960a7aa0f876f127d32a56d969ea76346272951be0f7d996d64736f6c63430008170033",
  "linkReferences": {},
  "deployedLinkReferences": {}
}