{
  "_format": "hh-sol-artifact-1",
  "contractName": "AgentAlwaysAllowedMintersFacet",
  "sourceName": "contracts/assetManager/facets/AgentAlwaysAllowedMintersFacet.sol",
  "abi": [
    {
      "inputs": [
        {
          "internalType": "address",
          "name": "_agentVault",
          "type": "address"
        },
        {
          "internalType": "address",
          "name": "_minter",
          "type": "address"
        }
      ],
      "name": "addAlwaysAllowedMinterForAgent",
      "outputs": [],
      "stateMutability": "nonpayable",
      "type": "function"
    },
    {
      "inputs": [
        {
          "internalType": "address",
          "name": "_agentVault",
          "type": "address"
        }
      ],
      "name": "alwaysAllowedMintersForAgent",
      "outputs": [
        {
          "internalType": "address[]",
          "name": "",
          "type": "address[]"
        }
      ],
      "stateMutability": "view",
      "type": "function"
    },
    {
      "inputs": [
        {
          "internalType": "address",
          "name": "_agentVault",
          "type": "address"
        },
        {
          "internalType": "address",
          "name": "_minter",
          "type": "address"
        }
      ],
      "name": "removeAlwaysAllowedMinterForAgent",
      "outputs": [],
      "stateMutability": "nonpayable",
      "type": "function"
    }
  ],
  "bytecode": "0x608060405234801561001057600080fd5b5061062c806100206000396000f3fe608060405234801561001057600080fd5b50600436106100415760003560e01c80630873975314610046578063b291dde81461005b578063bc7f75fd14610084575b600080fd5b6100596100543660046104d3565b610097565b005b61006e61006936600461050c565b6100c2565b60405161007b9190610529565b60405180910390f35b6100596100923660046104d3565b6100e4565b816100a181610108565b60006100ac84610167565b90506100bb600d82018461020e565b5050505050565b606060006100cf83610167565b90506100dd81600d0161022c565b9392505050565b816100ee81610108565b60006100f984610167565b90506100bb600d820184610239565b61011a61011482610167565b3361024e565b6101645760405162461bcd60e51b815260206004820152601660248201527537b7363c9030b3b2b73a103b30bab63a1037bbb732b960511b60448201526064015b60405180910390fd5b50565b7f5bebac0595fee029d42bb673937f5f1cb81cf8641382bc17774635de9b7d796568010000000000000000600160e01b03604083901b161880600060048084015460ff16908111156101bb576101bb610576565b036102085760405162461bcd60e51b815260206004820152601b60248201527f696e76616c6964206167656e74207661756c7420616464726573730000000000604482015260640161015b565b50919050565b6000610223836001600160a01b038416610320565b90505b92915050565b606060006100dd8361036f565b6000610223836001600160a01b0384166103cb565b60018201546000906001600160a01b0390811690831681148061031857507f4f24f5c433db0962dac0d2c8b84197a6e6c7cc4e5d9ebe1916a1b6193da2f341546001600160a01b0316604051631f86345d60e31b81526001600160a01b038381166004830152919091169063fc31a2e890602401602060405180830381865afa1580156102df573d6000803e3d6000fd5b505050506040513d601f19601f82011682018060405250810190610303919061058c565b6001600160a01b0316836001600160a01b0316145b949350505050565b600081815260018301602052604081205461036757508154600181810184556000848152602080822090930184905584548482528286019093526040902091909155610226565b506000610226565b6060816000018054806020026020016040519081016040528092919081815260200182805480156103bf57602002820191906000526020600020905b8154815260200190600101908083116103ab575b50505050509050919050565b600081815260018301602052604081205480156104b45760006103ef6001836105a9565b8554909150600090610403906001906105a9565b9050818114610468576000866000018281548110610423576104236105ca565b9060005260206000200154905080876000018481548110610446576104466105ca565b6000918252602080832090910192909255918252600188019052604090208390555b8554869080610479576104796105e0565b600190038181906000526020600020016000905590558560010160008681526020019081526020016000206000905560019350505050610226565b6000915050610226565b6001600160a01b038116811461016457600080fd5b600080604083850312156104e657600080fd5b82356104f1816104be565b91506020830135610501816104be565b809150509250929050565b60006020828403121561051e57600080fd5b81356100dd816104be565b6020808252825182820181905260009190848201906040850190845b8181101561056a5783516001600160a01b031683529284019291840191600101610545565b50909695505050505050565b634e487b7160e01b600052602160045260246000fd5b60006020828403121561059e57600080fd5b81516100dd816104be565b8181038181111561022657634e487b7160e01b600052601160045260246000fd5b634e487b7160e01b600052603260045260246000fd5b634e487b7160e01b600052603160045260246000fdfea264697066735822122087138f838ce579ec8e628c24140439776565627767d4370ecc812c896081bbe064736f6c63430008170033",
  "linkReferences": {},
  "deployedLinkReferences": {}
}