{
  "_format": "hh-sol-artifact-1",
  "contractName": "CoreVaultFacet",
  "sourceName": "contracts/assetManager/facets/CoreVaultFacet.sol",
  "abi": [
    {
      "inputs": [],
      "stateMutability": "nonpayable",
      "type": "constructor"
    },
    {
      "anonymous": false,
      "inputs": [
        {
          "indexed": true,
          "internalType": "address",
          "name": "redeemer",
          "type": "address"
        },
        {
          "indexed": false,
          "internalType": "string",
          "name": "paymentAddress",
          "type": "string"
        },
        {
          "indexed": false,
          "internalType": "bytes32",
          "name": "paymentReference",
          "type": "bytes32"
        },
        {
          "indexed": false,
          "internalType": "uint256",
          "name": "valueUBA",
          "type": "uint256"
        },
        {
          "indexed": false,
          "internalType": "uint256",
          "name": "feeUBA",
          "type": "uint256"
        }
      ],
      "name": "CoreVaultRedemptionRequested",
      "type": "event"
    },
    {
      "anonymous": false,
      "inputs": [
        {
          "indexed": true,
          "internalType": "address",
          "name": "agentVault",
          "type": "address"
        },
        {
          "indexed": false,
          "internalType": "uint256",
          "name": "dustUBA",
          "type": "uint256"
        }
      ],
      "name": "DustChanged",
      "type": "event"
    },
    {
      "anonymous": false,
      "inputs": [
        {
          "indexed": true,
          "internalType": "address",
          "name": "agentVault",
          "type": "address"
        },
        {
          "indexed": true,
          "internalType": "address",
          "name": "redeemer",
          "type": "address"
        },
        {
          "indexed": true,
          "internalType": "uint256",
          "name": "requestId",
          "type": "uint256"
        },
        {
          "indexed": false,
          "internalType": "string",
          "name": "paymentAddress",
          "type": "string"
        },
        {
          "indexed": false,
          "internalType": "uint256",
          "name": "valueUBA",
          "type": "uint256"
        },
        {
          "indexed": false,
          "internalType": "uint256",
          "name": "feeUBA",
          "type": "uint256"
        },
        {
          "indexed": false,
          "internalType": "uint256",
          "name": "firstUnderlyingBlock",
          "type": "uint256"
        },
        {
          "indexed": false,
          "internalType": "uint256",
          "name": "lastUnderlyingBlock",
          "type": "uint256"
        },
        {
          "indexed": false,
          "internalType": "uint256",
          "name": "lastUnderlyingTimestamp",
          "type": "uint256"
        },
        {
          "indexed": false,
          "internalType": "bytes32",
          "name": "paymentReference",
          "type": "bytes32"
        },
        {
          "indexed": false,
          "internalType": "address",
          "name": "executor",
          "type": "address"
        },
        {
          "indexed": false,
          "internalType": "uint256",
          "name": "executorFeeNatWei",
          "type": "uint256"
        }
      ],
      "name": "RedemptionRequested",
      "type": "event"
    },
    {
      "anonymous": false,
      "inputs": [
        {
          "indexed": true,
          "internalType": "address",
          "name": "agentVault",
          "type": "address"
        },
        {
          "indexed": true,
          "internalType": "uint256",
          "name": "redemptionTicketId",
          "type": "uint256"
        },
        {
          "indexed": false,
          "internalType": "uint256",
          "name": "ticketValueUBA",
          "type": "uint256"
        }
      ],
      "name": "RedemptionTicketCreated",
      "type": "event"
    },
    {
      "anonymous": false,
      "inputs": [
        {
          "indexed": true,
          "internalType": "address",
          "name": "agentVault",
          "type": "address"
        },
        {
          "indexed": true,
          "internalType": "uint256",
          "name": "redemptionTicketId",
          "type": "uint256"
        }
      ],
      "name": "RedemptionTicketDeleted",
      "type": "event"
    },
    {
      "anonymous": false,
      "inputs": [
        {
          "indexed": true,
          "internalType": "address",
          "name": "agentVault",
          "type": "address"
        },
        {
          "indexed": true,
          "internalType": "uint256",
          "name": "redemptionTicketId",
          "type": "uint256"
        },
        {
          "indexed": false,
          "internalType": "uint256",
          "name": "ticketValueUBA",
          "type": "uint256"
        }
      ],
      "name": "RedemptionTicketUpdated",
      "type": "event"
    },
    {
      "anonymous": false,
      "inputs": [
        {
          "indexed": true,
          "internalType": "address",
          "name": "agentVault",
          "type": "address"
        },
        {
          "indexed": true,
          "internalType": "uint256",
          "name": "requestId",
          "type": "uint256"
        }
      ],
      "name": "ReturnFromCoreVaultCancelled",
      "type": "event"
    },
    {
      "anonymous": false,
      "inputs": [
        {
          "indexed": true,
          "internalType": "address",
          "name": "agentVault",
          "type": "address"
        },
        {
          "indexed": true,
          "internalType": "uint256",
          "name": "requestId",
          "type": "uint256"
        },
        {
          "indexed": false,
          "internalType": "uint256",
          "name": "receivedUnderlyingUBA",
          "type": "uint256"
        },
        {
          "indexed": false,
          "internalType": "uint256",
          "name": "remintedUBA",
          "type": "uint256"
        }
      ],
      "name": "ReturnFromCoreVaultConfirmed",
      "type": "event"
    },
    {
      "anonymous": false,
      "inputs": [
        {
          "indexed": true,
          "internalType": "address",
          "name": "agentVault",
          "type": "address"
        },
        {
          "indexed": true,
          "internalType": "uint256",
          "name": "requestId",
          "type": "uint256"
        },
        {
          "indexed": false,
          "internalType": "bytes32",
          "name": "paymentReference",
          "type": "bytes32"
        },
        {
          "indexed": false,
          "internalType": "uint256",
          "name": "valueUBA",
          "type": "uint256"
        }
      ],
      "name": "ReturnFromCoreVaultRequested",
      "type": "event"
    },
    {
      "anonymous": false,
      "inputs": [
        {
          "indexed": true,
          "internalType": "address",
          "name": "agentVault",
          "type": "address"
        },
        {
          "indexed": true,
          "internalType": "uint256",
          "name": "transferRedemptionRequestId",
          "type": "uint256"
        },
        {
          "indexed": false,
          "internalType": "uint256",
          "name": "remintedUBA",
          "type": "uint256"
        }
      ],
      "name": "TransferToCoreVaultDefaulted",
      "type": "event"
    },
    {
      "anonymous": false,
      "inputs": [
        {
          "indexed": true,
          "internalType": "address",
          "name": "agentVault",
          "type": "address"
        },
        {
          "indexed": true,
          "internalType": "uint256",
          "name": "transferRedemptionRequestId",
          "type": "uint256"
        },
        {
          "indexed": false,
          "internalType": "uint256",
          "name": "valueUBA",
          "type": "uint256"
        }
      ],
      "name": "TransferToCoreVaultStarted",
      "type": "event"
    },
    {
      "anonymous": false,
      "inputs": [
        {
          "indexed": true,
          "internalType": "address",
          "name": "agentVault",
          "type": "address"
        },
        {
          "indexed": true,
          "internalType": "uint256",
          "name": "transferRedemptionRequestId",
          "type": "uint256"
        },
        {
          "indexed": false,
          "internalType": "uint256",
          "name": "valueUBA",
          "type": "uint256"
        }
      ],
      "name": "TransferToCoreVaultSuccessful",
      "type": "event"
    },
    {
      "anonymous": false,
      "inputs": [
        {
          "indexed": true,
          "internalType": "address",
          "name": "agentVault",
          "type": "address"
        },
        {
          "indexed": false,
          "internalType": "int256",
          "name": "underlyingBalanceUBA",
          "type": "int256"
        }
      ],
      "name": "UnderlyingBalanceChanged",
      "type": "event"
    },
    {
      "inputs": [
        {
          "internalType": "address",
          "name": "_agentVault",
          "type": "address"
        }
      ],
      "name": "cancelReturnFromCoreVault",
      "outputs": [],
      "stateMutability": "nonpayable",
      "type": "function"
    },
    {
      "inputs": [
        {
          "components": [
            {
              "internalType": "bytes32[]",
              "name": "merkleProof",
              "type": "bytes32[]"
            },
            {
              "components": [
                {
                  "internalType": "bytes32",
                  "name": "attestationType",
                  "type": "bytes32"
                },
                {
                  "internalType": "bytes32",
                  "name": "sourceId",
                  "type": "bytes32"
                },
                {
                  "internalType": "uint64",
                  "name": "votingRound",
                  "type": "uint64"
                },
                {
                  "internalType": "uint64",
                  "name": "lowestUsedTimestamp",
                  "type": "uint64"
                },
                {
                  "components": [
                    {
                      "internalType": "bytes32",
                      "name": "transactionId",
                      "type": "bytes32"
                    },
                    {
                      "internalType": "uint256",
                      "name": "inUtxo",
                      "type": "uint256"
                    },
                    {
                      "internalType": "uint256",
                      "name": "utxo",
                      "type": "uint256"
                    }
                  ],
                  "internalType": "struct IPayment.RequestBody",
                  "name": "requestBody",
                  "type": "tuple"
                },
                {
                  "components": [
                    {
                      "internalType": "uint64",
                      "name": "blockNumber",
                      "type": "uint64"
                    },
                    {
                      "internalType": "uint64",
                      "name": "blockTimestamp",
                      "type": "uint64"
                    },
                    {
                      "internalType": "bytes32",
                      "name": "sourceAddressHash",
                      "type": "bytes32"
                    },
                    {
                      "internalType": "bytes32",
                      "name": "sourceAddressesRoot",
                      "type": "bytes32"
                    },
                    {
                      "internalType": "bytes32",
                      "name": "receivingAddressHash",
                      "type": "bytes32"
                    },
                    {
                      "internalType": "bytes32",
                      "name": "intendedReceivingAddressHash",
                      "type": "bytes32"
                    },
                    {
                      "internalType": "int256",
                      "name": "spentAmount",
                      "type": "int256"
                    },
                    {
                      "internalType": "int256",
                      "name": "intendedSpentAmount",
                      "type": "int256"
                    },
                    {
                      "internalType": "int256",
                      "name": "receivedAmount",
                      "type": "int256"
                    },
                    {
                      "internalType": "int256",
                      "name": "intendedReceivedAmount",
                      "type": "int256"
                    },
                    {
                      "internalType": "bytes32",
                      "name": "standardPaymentReference",
                      "type": "bytes32"
                    },
                    {
                      "internalType": "bool",
                      "name": "oneToOne",
                      "type": "bool"
                    },
                    {
                      "internalType": "uint8",
                      "name": "status",
                      "type": "uint8"
                    }
                  ],
                  "internalType": "struct IPayment.ResponseBody",
                  "name": "responseBody",
                  "type": "tuple"
                }
              ],
              "internalType": "struct IPayment.Response",
              "name": "data",
              "type": "tuple"
            }
          ],
          "internalType": "struct IPayment.Proof",
          "name": "_payment",
          "type": "tuple"
        },
        {
          "internalType": "address",
          "name": "_agentVault",
          "type": "address"
        }
      ],
      "name": "confirmReturnFromCoreVault",
      "outputs": [],
      "stateMutability": "nonpayable",
      "type": "function"
    },
    {
      "inputs": [],
      "name": "coreVaultAvailableAmount",
      "outputs": [
        {
          "internalType": "uint256",
          "name": "_immediatelyAvailableUBA",
          "type": "uint256"
        },
        {
          "internalType": "uint256",
          "name": "_totalAvailableUBA",
          "type": "uint256"
        }
      ],
      "stateMutability": "view",
      "type": "function"
    },
    {
      "inputs": [
        {
          "internalType": "address",
          "name": "_agentVault",
          "type": "address"
        }
      ],
      "name": "maximumTransferToCoreVault",
      "outputs": [
        {
          "internalType": "uint256",
          "name": "_maximumTransferUBA",
          "type": "uint256"
        },
        {
          "internalType": "uint256",
          "name": "_minimumLeftAmountUBA",
          "type": "uint256"
        }
      ],
      "stateMutability": "view",
      "type": "function"
    },
    {
      "inputs": [
        {
          "internalType": "uint64",
          "name": "_lots",
          "type": "uint64"
        },
        {
          "internalType": "string",
          "name": "_redeemerUnderlyingAddress",
          "type": "string"
        }
      ],
      "name": "redeemFromCoreVault",
      "outputs": [],
      "stateMutability": "nonpayable",
      "type": "function"
    },
    {
      "inputs": [
        {
          "internalType": "address",
          "name": "_agentVault",
          "type": "address"
        },
        {
          "internalType": "uint64",
          "name": "_lots",
          "type": "uint64"
        }
      ],
      "name": "requestReturnFromCoreVault",
      "outputs": [],
      "stateMutability": "nonpayable",
      "type": "function"
    },
    {
      "inputs": [
        {
          "internalType": "address",
          "name": "_agentVault",
          "type": "address"
        },
        {
          "internalType": "uint256",
          "name": "_amountUBA",
          "type": "uint256"
        }
      ],
      "name": "transferToCoreVault",
      "outputs": [],
      "stateMutability": "payable",
      "type": "function"
    },
    {
      "inputs": [
        {
          "internalType": "uint256",
          "name": "_amountUBA",
          "type": "uint256"
        }
      ],
      "name": "transferToCoreVaultFee",
      "outputs": [
        {
          "internalType": "uint256",
          "name": "_transferFeeNatWei",
          "type": "uint256"
        }
      ],
      "stateMutability": "view",
      "type": "function"
    }
  ],
  "bytecode": "0x608060405234801561001057600080fd5b507f908500188c8f91f50d58dffac83eda18fc06d9da0208fc6b66c78a4c3fec74f4805460ff60401b191668010000000000000000179055615ba880620000586000396000f3fe60806040526004361061007b5760003560e01c80639b70be1f1161004e5780639b70be1f14610104578063bfbf712114610124578063cfffc00614610152578063df10b5ea1461017257600080fd5b806332974aaf146100805780636286592e146100af578063687fea71146100c4578063768d0e96146100e4575b600080fd5b34801561008c57600080fd5b50610095610192565b604080519283526020830191909152015b60405180910390f35b6100c26100bd366004614ede565b6101a5565b005b3480156100d057600080fd5b506100c26100df366004614f0a565b610201565b3480156100f057600080fd5b506100c26100ff366004614fe5565b610243565b34801561011057600080fd5b506100c261011f366004615075565b610274565b34801561013057600080fd5b5061014461013f366004615092565b6102b8565b6040519081526020016100a6565b34801561015e57600080fd5b5061009561016d366004615075565b6102d6565b34801561017e57600080fd5b506100c261018d3660046150ab565b61031f565b60008061019d610350565b915091509091565b6101ad61051d565b6101b56105ad565b816101bf81610614565b60006101ca8461066b565b905060006101d784610712565b90506101e38282610748565b5050506101fd6001600080516020615b5383398151915255565b5050565b6102096105ad565b8061021381610614565b600061021e8361066b565b905061022a8482610b4a565b50506101fd6001600080516020615b5383398151915255565b61024b61051d565b6102536105ad565b61025d8282610e4d565b6101fd6001600080516020615b5383398151915255565b61027c6105ad565b8061028681610614565b60006102918361066b565b905061029c816111be565b50506102b56001600080516020615b5383398151915255565b50565b6000806102c483610712565b90506102cf816112f1565b9392505050565b60008060006102e48461066b565b90506000806102f283611351565b9150915061030761030283611386565b6113f2565b945061031561030282611386565b9350505050915091565b61032761051d565b61032f6105ad565b8161033981610614565b60006103448461066b565b905061022a8184611423565b60008080600080516020615b33833981519152905060008160000160009054906101000a90046001600160a01b03166001600160a01b03166346fcff4c6040518163ffffffff1660e01b8152600401602060405180830381865afa1580156103bc573d6000803e3d6000fd5b505050506040513d601f19601f820116820180604052508101906103e091906150f7565b6001600160801b0316905060008260000160009054906101000a90046001600160a01b03166001600160a01b031663f0ec77fa6040518163ffffffff1660e01b8152600401602060405180830381865afa158015610442573d6000803e3d6000fd5b505050506040513d601f19601f8201168201806040525081019061046691906150f7565b6001600160801b03169050600061047b61192b565b845460408051631214493d60e11b815290516001600160a01b0390921691632428927a916004808201926020929091908290030181865afa1580156104c4573d6000803e3d6000fd5b505050506040513d601f19601f820116820180604052508101906104e89190615112565b6104f29190615141565b90506104fe83826119c0565b955061051361050d8385615141565b826119c0565b9450505050509091565b7fec7e8c1c441439dd40959777f4c577ea0cd42fcc1dbe59d2bd0f5d9c55df8dc654600080516020615b138339815191529042600160401b9091046001600160401b031611156102b55760405162461bcd60e51b8152602060048201526016602482015275656d657267656e63792070617573652061637469766560501b60448201526064015b60405180910390fd5b600080516020615b5383398151915280546001190161060e5760405162461bcd60e51b815260206004820152601f60248201527f5265656e7472616e637947756172643a207265656e7472616e742063616c6c0060448201526064016105a4565b60029055565b6106266106208261066b565b336119e3565b6102b55760405162461bcd60e51b815260206004820152601660248201527537b7363c9030b3b2b73a103b30bab63a1037bbb732b960511b60448201526064016105a4565b7f5bebac0595fee029d42bb673937f5f1cb81cf8641382bc17774635de9b7d796568010000000000000000600160e01b03604083901b161880600060048084015460ff16908111156106bf576106bf615154565b0361070c5760405162461bcd60e51b815260206004820152601b60248201527f696e76616c6964206167656e74207661756c742061646472657373000000000060448201526064016105a4565b50919050565b60008061071d611a92565b600c8101549091506102cf9061074390600160901b90046001600160401b031685615180565b611386565b610750611ab6565b600080516020615b33833981519152600061076a84611b15565b9050600360048086015460ff169081111561078757610787615154565b036107cb5760405162461bcd60e51b8152602060048201526014602482015273696e76616c6964206167656e742073746174757360601b60448201526064016105a4565b6000836001600160401b0316116108245760405162461bcd60e51b815260206004820152601960248201527f7a65726f207472616e73666572206e6f7420616c6c6f7765640000000000000060448201526064016105a4565b6006840154600160401b9004600f0b61084461083f856113f2565b611b3d565b131561088a5760405162461bcd60e51b81526020600482015260156024820152746e6f7420656e6f75676820756e6465726c79696e6760581b60448201526064016105a4565b600c84015464010000000090046001600160401b0316156108ed5760405162461bcd60e51b815260206004820152601760248201527f7472616e7366657220616c72656164792061637469766500000000000000000060448201526064016105a4565b60006108fc8585600080611ba7565b509050600061090a826112f1565b90508034101561095c5760405162461bcd60e51b815260206004820152601e60248201527f7472616e7366657220666565207061796d656e7420746f6f20736d616c6c000060448201526064016105a4565b600061096787611351565b50905080836001600160401b031611156109d25760405162461bcd60e51b815260206004820152602660248201527f746f6f206c6974746c65206d696e74696e67206c65667420616674657220747260448201526530b739b332b960d11b60648201526084016105a4565b845460408051633d083bf560e11b815290516000926001600160a01b031691637a1077ea91600480830192869291908290030181865afa158015610a1a573d6000803e3d6000fd5b505050506040513d6000823e601f3d908101601f19168201604052610a4291908101906151b8565b90506000610aa06040518060400160405280610a5d8c611b15565b6001600160a01b0390811682526001600160401b03808a166020909301929092526001808c01548c54921692879260009283928392600160a01b90041690611d7c565b600c8a0180546bffffffffffffffff0000000019166401000000006001600160401b038416021790556001880154909150610ae4906001600160a01b03163461221d565b6000610aef866113f2565b9050816001600160401b0316876001600160a01b03167f7720ffc529ed13201c71ca65a93771ecb026d4a7ea1a557116dfac60fafd9fb683604051610b3691815260200190565b60405180910390a350505050505050505050565b610b52611ab6565b600080516020615b33833981519152610b6a836122cb565b600c820154600160601b90046001600160401b03166000819003610bcb5760405162461bcd60e51b81526020600482015260186024820152771b9bc81858dd1a5d99481c995d1d5c9b881c995c5d595cdd60421b60448201526064016105a4565b81546040805163c9febdf560e01b815290516001600160a01b039092169163c9febdf5916004808201926020929091908290030181865afa158015610c14573d6000803e3d6000fd5b505050506040513d601f19601f82011682018060405250810190610c389190615112565b61014085013514610c8b5760405162461bcd60e51b815260206004820152601b60248201527f7061796d656e74206e6f742066726f6d20636f7265207661756c74000000000060448201526064016105a4565b600383015461018085013514610ce35760405162461bcd60e51b815260206004820152601e60248201527f7061796d656e74206e6f7420746f206167656e7427732061646472657373000060448201526064016105a4565b67119094149990400160c21b6001600160401b0382161761024085013514610d4d5760405162461bcd60e51b815260206004820152601960248201527f696e76616c6964207061796d656e74207265666572656e63650000000000000060448201526064016105a4565b610d777fec7e8c1c441439dd40959777f4c577ea0cd42fcc1dbe59d2bd0f5d9c55df8dc185612329565b6000610d87610200860135612337565b90506000610d9482610712565b90506000610db986600c0160149054906101000a90046001600160401b031683612389565b9050610dc586826123b2565b610dcf868461243e565b610dd8866124f0565b6000610de3826113f2565b9050846001600160401b0316610df888611b15565b6001600160a01b03167ff31c790716bd513f9122b4d1e80f9fce17cd414160d32271088b0c6b2af33e258684604051610e3b929190918252602082015260400190565b60405180910390a35050505050505050565b610e55611ab6565b600080516020615b338339815191528054604051632b656fef60e01b81526001600160a01b0390911690632b656fef90610e93908590600401615251565b602060405180830381865afa158015610eb0573d6000803e3d6000fd5b505050506040513d601f19601f82011682018060405250810190610ed49190615272565b610f355760405162461bcd60e51b815260206004820152602c60248201527f756e6465726c79696e672061646472657373206e6f7420616c6c6f776564206260448201526b1e4818dbdc99481d985d5b1d60a21b60648201526084016105a4565b6000610f3f611a92565b90506000610f4b6125a1565b9050806001600160401b0316856001600160401b03161115610f7f5760405162461bcd60e51b81526004016105a49061528f565b6002830154600090610f9a906001600160401b031683612389565b9050806001600160401b0316866001600160401b03161015610ffe5760405162461bcd60e51b815260206004820152601a60248201527f72657175657374656420616d6f756e7420746f6f20736d616c6c00000000000060448201526064016105a4565b600d830154600090611019906001600160401b0316886152d1565b90506000611026826113f2565b905061103233826125e5565b6001860154600090611050908390600160b01b900461ffff1661264d565b9050600061106661106183856152fc565b61265c565b9050611070612685565b600289018054601190611094908490600160881b90046001600160401b031661530f565b92506101000a8154816001600160401b0302191690836001600160401b0316021790555060006110ee8960020160119054906101000a90046001600160401b03166001600160401b031667464250526641000560c01b1790565b8954604051631700b8c760e31b81529192506001600160a01b03169063b805c63890611125908d9085908790600090600401615336565b6020604051808303816000875af1158015611144573d6000803e3d6000fd5b505050506040513d601f19601f820116820180604052508101906111689190615112565b9050336001600160a01b03167f81390715ea13edf7069460e93980705ef2cd439f5c4a1a7c4fc1a323a2d4996b8b8387876040516111a99493929190615370565b60405180910390a25050505050505050505050565b6111c6611ab6565b600c810154600080516020615b3383398151915290600160601b90046001600160401b031660008190036112375760405162461bcd60e51b81526020600482015260186024820152771b9bc81858dd1a5d99481c995d1d5c9b881c995c5d595cdd60421b60448201526064016105a4565b815460405163a903532560e01b81526001600160a01b039091169063a903532590611269906002870190600401615450565b600060405180830381600087803b15801561128357600080fd5b505af1158015611297573d6000803e3d6000fd5b505050506112a4836124f0565b806001600160401b03166112b784611b15565b6001600160a01b03167f89413196dc66c2fb1b91c291e94b73b766a03f31219603ff31ef497ef202e93460405160405180910390a3505050565b6000600080516020615b338339815191528161131361130e6126a3565b612704565b9050600061132a856001600160401b03168361271a565b6001840154909150611348908290600160a01b900461ffff1661264d565b95945050505050565b60008061135d83612734565b600584015490915061137f90600160401b90046001600160401b0316826119c0565b9150915091565b60006001600160401b038211156113ee5760405162461bcd60e51b815260206004820152602660248201527f53616665436173743a2076616c756520646f65736e27742066697420696e203660448201526534206269747360d01b60648201526084016105a4565b5090565b6000806113fd611a92565b600c8101549091506102cf906001600160401b03600160901b9091048116908516615463565b61142b611ab6565b600080516020615b338339815191528054604051632b656fef60e01b81526001600160a01b0390911690632b656fef9061146c906002870190600401615450565b602060405180830381865afa158015611489573d6000803e3d6000fd5b505050506040513d601f19601f820116820180604052508101906114ad9190615272565b6115165760405162461bcd60e51b815260206004820152603460248201527f6167656e74277320756e6465726c79696e672061646472657373206e6f7420616044820152731b1b1bddd95908189e4818dbdc99481d985d5b1d60621b60648201526084016105a4565b600c830154600160601b90046001600160401b0316156115895760405162461bcd60e51b815260206004820152602860248201527f72657475726e2066726f6d20636f7265207661756c7420616c72656164792072604482015267195c5d595cdd195960c21b60648201526084016105a4565b600061159484612795565b90506000836001600160401b0316116115e65760405162461bcd60e51b815260206004820152601460248201527363616e6e6f742072657475726e2030206c6f747360601b60448201526064016105a4565b600160048086015460ff169081111561160157611601615154565b146116455760405162461bcd60e51b8152602060048201526014602482015273696e76616c6964206167656e742073746174757360601b60448201526064016105a4565b6001600160401b03831661165b8286600061283f565b10156116a95760405162461bcd60e51b815260206004820152601a60248201527f6e6f7420656e6f756768206672656520636f6c6c61746572616c00000000000060448201526064016105a4565b60006116b36125a1565b9050806001600160401b0316846001600160401b031611156116e75760405162461bcd60e51b81526004016105a49061528f565b6116ef612685565b600284018054600990611713908490600160481b90046001600160401b031661530f565b82546101009290920a6001600160401b038181021990931691831602179091556002850154600c8801805467ffffffffffffffff60601b1916600160481b9092048316600160601b81029290921790819055909250600160a01b9004161561177d5761177d61547a565b6000611787611a92565b600d015461179e906001600160401b0316876152d1565b600c880180546001600160401b03808416600160a01b0267ffffffffffffffff60a01b1990921691909117909155600589018054929350839290916000916117e89185911661530f565b92506101000a8154816001600160401b0302191690836001600160401b03160217905550600061182b836001600160401b031667119094149990400160c21b1790565b9050600061183b611061846113f2565b8754604051631700b8c760e31b81529192506001600160a01b03169063b805c638906118759060028d019086908690600190600401615490565b6020604051808303816000875af1158015611894573d6000803e3d6000fd5b505050506040513d601f19601f820116820180604052508101906118b89190615112565b50836001600160401b03166118cc8a611b15565b6001600160a01b03167fbeb006f5c72be7811ac8a5314277e6fab21e6a2737d4119694735e810899079184846040516119189291909182526001600160801b0316602082015260400190565b60405180910390a3505050505050505050565b600080516020615b338339815191528054604080516385b4bb5360e01b815290516000939284926001600160a01b03909116916385b4bb53916004808201926080929091908290030181865afa158015611989573d6000803e3d6000fd5b505050506040513d601f19601f820116820180604052508101906119ad91906154a3565b6001600160801b03169695505050505050565b60008183116119d05760006119da565b6119da82846152fc565b90505b92915050565b60018201546000906001600160a01b03908116908316811480611a8a5750611a09612892565b604051631f86345d60e31b81526001600160a01b038381166004830152919091169063fc31a2e890602401602060405180830381865afa158015611a51573d6000803e3d6000fd5b505050506040513d601f19601f82011682018060405250810190611a7591906154f7565b6001600160a01b0316836001600160a01b0316145b949350505050565b7f4f24f5c433db0962dac0d2c8b84197a6e6c7cc4e5d9ebe1916a1b6193da2f33a90565b600080516020615b3383398151915280546001600160a01b03166102b55760405162461bcd60e51b815260206004820152601660248201527518dbdc99481d985d5b1d081b9bdd08195b98589b195960521b60448201526064016105a4565b7f5bebac0595fee029d42bb673937f5f1cb81cf8641382bc17774635de9b7d79651860401c90565b60006001600160ff1b038211156113ee5760405162461bcd60e51b815260206004820152602860248201527f53616665436173743a2076616c756520646f65736e27742066697420696e2061604482015267371034b73a191a9b60c11b60648201526084016105a4565b600080600080516020615b1383398151915281611bc2611a92565b600f0154600160801b900461ffff1690506000611bdd611a92565b600d01546001600160401b0316905060005b8281108015611c0f5750886001600160401b0316866001600160401b0316105b15611ced5760006008850181611c248d611b15565b6001600160a01b0316815260208101919091526040016000908120546001600160401b03169150819003611c585750611ced565b6001600160401b038181166000908152600787016020526040812060068e015481549193611c919291811691600160a01b90041661530f565b9050611c9d8582615514565b611ca7908261553a565b90506000611cbe611cb88b8f61553a565b83612389565b9050611cca84826128b0565b611cd4818b61530f565b9950505050508080611ce59061555a565b915050611bef565b506000611d10611cfd878b61553a565b60068c01546001600160401b0316612389565b90508615611d2f57611d228282615514565b611d2c908261553a565b90505b6001600160401b03811615611d5457611d48818761530f565b9550611d548a82612a87565b8715611d6457611d648a87612ad8565b611d6d866113f2565b94505050505094509492505050565b8751600090600080516020615b13833981519152908290611d9c9061066b565b895160208b01206003820154919250908103611dfa5760405162461bcd60e51b815260206004820181905260248201527f63616e6e6f742072656465656d20746f206167656e742773206164647265737360448201526064016105a4565b6000611e0c6110618e602001516113f2565b9050611e178a612b71565b9450611eb16040805161026081018252600080825260208201819052918101829052606081018290526080810182905260a0810182905260c0810182905260e08101829052610100810182905261012081018290529061014082019081526000602082018190526040820181905260608083018290526080830182905260a0830182905260c083015260e082018190526101009091015290565b8281526001600160801b0382166020820152600f8501546201000090046001600160401b031660608201528d51611ee89089612c06565b6001600160401b0390811660a0840152166080820152611f0742611386565b6001600160401b031661010082015286611f4d57611f48611061611f29611a92565b600e01546001600160801b03851690600160401b900461ffff1661264d565b611f50565b60005b6001600160801b031660408201526001600160a01b038d811660e08301528e511661012082015260208e01516001600160401b031660c082015260016101408201819052508a15156101608201526001600160a01b038a81166101808301526001600160401b038a81166101a084015261020083018e9052881515610220840152600c860154600160e01b900461ffff166102408401528781166000908152600a880160209081526040918290208551815590850151918501516001600160801b03928316600160801b918416820217600183015560608601516002808401805460808a015160a08b015160c08c0151958a166001600160801b031990931692909217600160401b918a1691909102179096169587169093026001600160c01b031694909417600160c01b9186169190910217905560e08501516003820180546101008801519287166001600160e01b031990911617600160a01b929095168202949094179093556101208501516004820180546001600160a01b0319811692909616918217815561014087015187969395909491936001600160a81b0319169092179190849081111561210657612106615154565b021790555061016082015160048201805460ff60a81b1916600160a81b921515929092029190911790556101808201516005820180546101a08501516001600160a01b039093166001600160e01b031990911617600160a01b6001600160401b03938416021790556101c08301516006830180546101e08601519284166001600160801b031990911617600160401b929093169190910291909117905561020082015160078201906121b890826155bb565b50610220820151600890910180546102409093015161ffff166101000262ffff00199215159290921662ffffff199093169290921717905560208e01516122019085908d612d1e565b61220c81878e612dc2565b505050505098975050505050505050565b612225612e87565b80156101fd576000826001600160a01b031682620186a090604051600060405180830381858888f193505050503d806000811461227e576040519150601f19603f3d011682016040523d82523d6000602084013e612283565b606091505b50509050806122c65760405162461bcd60e51b815260206004820152600f60248201526e1d1c985b9cd9995c8819985a5b1959608a1b60448201526064016105a4565b505050565b60006122df6102a08301610280840161568b565b60ff16146123205760405162461bcd60e51b815260206004820152600e60248201526d1c185e5b595b9d0819985a5b195960921b60448201526064016105a4565b6102b581612ee8565b6101fd8260a0830135613073565b6000808212156113ee5760405162461bcd60e51b815260206004820181905260248201527f53616665436173743a2076616c7565206d75737420626520706f73697469766560448201526064016105a4565b6000816001600160401b0316836001600160401b031611156123ab57816119da565b5090919050565b60006123bc611a92565b60068401549091506000906123db9084906001600160401b031661530f565b600d8301549091506000906123f9906001600160401b031683615514565b90506000612407828461553a565b9050612413868661313c565b6001600160401b0381161561242c5761242c868261315c565b61243686836132ed565b505050505050565b61244f61244a82611b3d565b613383565b60068301805460089061246d908490600160401b9004600f0b6156a6565b92506101000a8154816001600160801b030219169083600f0b6001600160801b0316021790555061249d82611b15565b6006830154604051600160401b909104600f0b81526001600160a01b0391909116907f73da6891cb86668451f612d2555e88650888a0133a30b1d226b2d1f955e62bca9060200160405180910390a25050565b600c810154600160601b90046001600160401b0316158015906125265750600c810154600160a01b90046001600160401b031615155b6125325761253261547a565b600c8101546005820180546001600160401b03600160a01b90930483169260009161255f9185911661553a565b82546001600160401b039182166101009390930a928302919092021990911617905550600c0180546fffffffffffffffffffffffffffffffff60601b19169055565b6000806125ac611a92565b905060006125b8610350565b600d8401549092506001600160401b031690506125d482610712565b6125de91906156e5565b9250505090565b6125ed6133ac565b604051632770a7eb60e21b81526001600160a01b038481166004830152602482018490529190911690639dc29fac90604401600060405180830381600087803b15801561263957600080fd5b505af1158015612436573d6000803e3d6000fd5b60006119da83836127106133ca565b60006001600160801b038211156113ee5760405162461bcd60e51b81526004016105a49061570b565b60006126936103e843615752565b61269e906001615141565b905090565b7fec7e8c1c441439dd40959777f4c577ea0cd42fcc1dbe59d2bd0f5d9c55df8dc554600080516020615b138339815191528054600092829161ffff9091169081106126f0576126f0615766565b906000526020600020906004020191505090565b60006127118260006134f0565b50909392505050565b60006119da8261272c6009600a615860565b8591906133ca565b60008061274083612795565b905060006127528483600001516136af565b905060006127648584602001516136af565b905060006127768685604001516136af565b905061278b836127868484613719565b613719565b9695505050505050565b6128006040805160c081019091526000606082018181526080830182905260a083019190915281908152604080516060810182526000808252602082810182905292820152910190815260408051606081018252600080825260208281018290529282015291015290565b600061280b83613728565b90506040518060600160405280612821856137e5565b8152602001828152602001612836858461388a565b90529392505050565b60008061285185600001518585613a59565b9050600061286486602001518686613a59565b9050600061287787604001518787613a59565b9050612887836127868484613719565b979650505050505050565b60008061289d611a92565b600701546001600160a01b031692915050565b6001600160401b03821660009081527fec7e8c1c441439dd40959777f4c577ea0cd42fcc1dbe59d2bd0f5d9c55df8dbd602081905260408220805491929091612901906001600160a01b031661066b565b9050600061290d611a92565b600d0154600683015484546001600160401b03928316935060009288926129409290821691600160a01b9091041661530f565b61294a919061553a565b905060006129588383615514565b90506000612966828461553a565b9050806001600160401b03166000036129d057612983878a613a90565b886001600160401b031661299686611b15565b6001600160a01b03167fb7f65e70a51658e24800516a5dc90e2dd65176e18381adda77f58e2044482b1960405160405180910390a3612a72565b85546001600160401b03828116600160a01b9092041614612a7257855467ffffffffffffffff60a01b1916600160a01b6001600160401b038316021786556000612a19826113f2565b9050896001600160401b0316612a2e87611b15565b6001600160a01b03167f9d2e72c50be7927e999d37329649af37a863df77bcb25361699ce021d3d7475d83604051612a6891815260200190565b60405180910390a3505b612a7c85836132ed565b505050505050505050565b600682015460408051808201909152600f81526e1b9bdd08195b9bdd59da08191d5cdd608a1b6020820152600091612acc916001600160401b03909116908490613e6a565b90506122c683826132ed565b612b238260050160089054906101000a90046001600160401b031682604051806040016040528060118152602001701b9bdd08195b9bdd59da081b5a5b9d1959607a1b815250613e6a565b8260050160086101000a8154816001600160401b0302191690836001600160401b031602179055506101fd612b5783611b15565b6005840154600160401b90046001600160401b0316613eb5565b6000600080516020615b1383398151915281612b8b612685565b600e830154612baa9190600160401b90046001600160401b031661530f565b9050600084612bba576000612bbd565b60015b60ff16600119612bce84600161530f565b161790508083600e0160086101000a8154816001600160401b0302191690836001600160401b03160217905550809350505050919050565b600080600080516020615b1383398151915281612c21611a92565b9050600085612c2f88613f01565b600f850154600160901b90046001600160401b0316612c4d42611386565b612c57919061553a565b612c61919061530f565b612c6b919061530f565b600c830154909150600090612c9f9063ffffffff16612c956001600160401b0385166103e8615463565b6107439190615180565b600d840154600f8601549192506001600160401b03600160981b909104811691612cd19184916201000090041661530f565b612cdb919061530f565b600e840154600f8601549197506001600160401b0390811691612d07918591600160501b90041661530f565b612d11919061530f565b9450505050509250929050565b818360050160108282829054906101000a90046001600160401b0316612d44919061530f565b92506101000a8154816001600160401b0302191690836001600160401b0316021790555080612db857818360050160188282829054906101000a90046001600160401b0316612d93919061530f565b92506101000a8154816001600160401b0302191690836001600160401b031602179055505b6122c68383612ad8565b816001600160401b03168360e001516001600160a01b03168461012001516001600160a01b03167f8cbbd73a8d1b8b02a53c4c3b0ee34b472fe3099cc19bcfb57f1aae09e8a9847e848760200151886040015189606001518a608001518b60a00151612e418c6001600160401b031667232128293320800160c11b1790565b8d6101800151633b9aca008f6101a001516001600160401b0316612e659190615463565b604051612e7a9998979695949392919061586c565b60405180910390a4505050565b600080516020615b5383398151915254600214612ee65760405162461bcd60e51b815260206004820152601f60248201527f5265656e7472616e637947756172643a2067756172642072657175697265640060448201526064016105a4565b565b6000612ef2611a92565b6008810154600b8201549192506001600160a01b031690604084013514612f4b5760405162461bcd60e51b815260206004820152600d60248201526c34b73b30b634b21031b430b4b760991b60448201526064016105a4565b60405163a7a3797560e01b81526001600160a01b0382169063a7a3797590612f77908690600401615a10565b602060405180830381865afa158015612f94573d6000803e3d6000fd5b505050506040513d601f19601f82011682018060405250810190612fb89190615272565b6130045760405162461bcd60e51b815260206004820152601860248201527f6c6567616c207061796d656e74206e6f742070726f766564000000000000000060448201526064016105a4565b61302761301961014085016101208601615aa3565b6001600160401b0316613fb9565b6122c65760405162461bcd60e51b815260206004820152601c60248201527f7665726966696564207472616e73616374696f6e20746f6f206f6c640000000060448201526064016105a4565b600081815260208390526040902054156130cf5760405162461bcd60e51b815260206004820152601960248201527f7061796d656e7420616c726561647920636f6e6669726d65640000000000000060448201526064016105a4565b60006130de6201518042615180565b60008181526001850160205260408120549192508190036130ff5782613101565b805b600084815260208681526040808320939093558482526001870190529081208490556002850154900361313657600284018290555b50505050565b6005820154612b23908290600160401b90046001600160401b031661530f565b600080516020615b138339815191526001600160401b03821660000361318157505050565b600061318c84611b15565b6009830154600160401b90046001600160401b031660008181526007850160205260409020805492935090916001600160a01b03808516911603613289578054859082906014906131ee908490600160a01b90046001600160401b031661530f565b92506101000a8154816001600160401b0302191690836001600160401b0316021790555060006132348260000160149054906101000a90046001600160401b03166113f2565b9050826001600160401b0316846001600160a01b03167f9d2e72c50be7927e999d37329649af37a863df77bcb25361699ce021d3d7475d8360405161327b91815260200190565b60405180910390a350612436565b6000613299600786018588613fdc565b905060006132a6876113f2565b9050816001600160401b0316856001600160a01b03167f631f8f2039090539b2ea4ef7dc567f7f1939ef4dd3e790b1ca7bc548a1fada5883604051610e3b91815260200190565b60068201546001600160401b03808316911603613308575050565b60068201805467ffffffffffffffff19166001600160401b0383161790556000613331826113f2565b905061333c83611b15565b6001600160a01b03167fa3db2bc927901a1d3ba09ad51d84609457b98443be9132a0a936a47c5a1081b58260405161337691815260200190565b60405180910390a2505050565b80600f81900b81146133a75760405162461bcd60e51b81526004016105a49061570b565b919050565b6000806133b7611a92565b600101546001600160a01b031692915050565b600080821161340e5760405162461bcd60e51b815260206004820152601060248201526f4469766973696f6e206279207a65726f60801b60448201526064016105a4565b8360000361341e575060006102cf565b838302838582816134315761343161516a565b040361344f578281816134465761344661516a565b049150506102cf565b50600061345c8386615180565b9050600061346a8487615752565b905060006134788587615180565b905060006134868688615752565b9050856134938285615463565b61349d9190615180565b6134a78385615463565b6134b18387615463565b886134bc8689615463565b6134c69190615463565b6134d09190615141565b6134da9190615141565b6134e49190615141565b98975050505050505050565b60008060008060008061358f88600101805461350b9061539f565b80601f01602080910402602001604051908101604052809291908181526020018280546135379061539f565b80156135845780601f1061355957610100808354040283529160200191613584565b820191906000526020600020905b81548152906001019060200180831161356757829003601f168201915b5050505050886143e5565b8a549295509093509150600160f01b900460ff16156135d65787546000906135c590600160a81b900460ff1660018387866144b0565b96509194508493506136a892505050565b60008060006136718b60020180546135ed9061539f565b80601f01602080910402602001604051908101604052809291908181526020018280546136199061539f565b80156136665780601f1061363b57610100808354040283529160200191613666565b820191906000526020600020905b81548152906001019060200180831161364957829003601f168201915b50505050508b6143e5565b8d54929550909350915060009061369590600160a81b900460ff1685848a896144b0565b99509497509095506136a8945050505050565b9250925092565b600080600080516020615b33833981519152905060006136d3858560000151614534565b91505060006136ea85602001518660400151614600565b905060006136fb82612710856133ca565b6001850154909150612887908290600160c01b900461ffff1661264d565b60008183106123ab57816119da565b61374d6040805160608101909152806000815260200160008152602001600081525090565b600061375883614619565b604080516060810182526001815285548251634ac8eb5f60e01b8152925193945090926020808501936001600160a01b0390931692634ac8eb5f92600480830193928290030181865afa1580156137b3573d6000803e3d6000fd5b505050506040513d601f19601f820116820180604052508101906137d79190615112565b815260200161283683612704565b61380a6040805160608101909152806000815260200160008152602001600081525090565b600061381583614668565b60408051606081019091526000815281549192509060208201906001600160a01b03166370a0823161384687611b15565b6040516001600160e01b031960e084901b1681526001600160a01b039091166004820152602401602060405180830381865afa1580156137b3573d6000803e3d6000fd5b6138af6040805160608101909152806000815260200160008152602001600081525090565b8254604080516332f7ce0b60e21b815290516000926001600160a01b03169163cbdf382c9160048083019260209291908290030181865afa1580156138f8573d6000803e3d6000fd5b505050506040513d601f19601f8201168201806040525081019061391c91906154f7565b90506000816001600160a01b03166370a0823161393887611b15565b6040516001600160e01b031960e084901b1681526001600160a01b039091166004820152602401602060405180830381865afa15801561397c573d6000803e3d6000fd5b505050506040513d601f19601f820116820180604052508101906139a09190615112565b90506000826001600160a01b03166318160ddd6040518163ffffffff1660e01b8152600401602060405180830381865afa1580156139e2573d6000803e3d6000fd5b505050506040513d601f19601f82011682018060405250810190613a069190615112565b905060008560200151600003613a20578560400151613a35565b60208601516040870151613a359184906133ca565b60408051606081018252600281526020810195909552840152509095945050505050565b600080613a66858561469f565b90506000613a758686866146bc565b905080600003613a8657600061278b565b61278b8183615180565b6001600160401b038116600090815260208390526040902080546001600160a01b0316613abf57613abf61547a565b80546001600160a01b031660009081526001808501602052604082209083015490916001600160401b039091169003613b455760028401546001600160401b03848116911614613b1157613b1161547a565b6001820154600285018054600160401b9092046001600160401b031667ffffffffffffffff19909216919091179055613bad565b60028401546001600160401b0390811690841603613b6557613b6561547a565b6001828101546001600160401b038082166000908152602088905260409020909201805467ffffffffffffffff60401b1916600160401b928390049093169091029190911790555b6001820154600160401b90046001600160401b0316600003613c245760028401546001600160401b03848116600160401b9092041614613bef57613bef61547a565b600182015460028501805467ffffffffffffffff60401b19166001600160401b03909216600160401b02919091179055613c8c565b60028401546001600160401b03600160401b909104811690841603613c4b57613c4b61547a565b600180830154600160401b81046001600160401b039081166000908152602088905260409020909201805467ffffffffffffffff1916929091169190911790555b6001820154600160801b90046001600160401b0316600003613cf15780546001600160401b03848116911614613cc457613cc461547a565b60018201548154600160c01b9091046001600160401b031667ffffffffffffffff19909116178155613d57565b80546001600160401b0390811690841603613d0e57613d0e61547a565b6001828101546001600160401b03600160801b82048116600090815260208890526040902090920180546001600160c01b0316600160c01b928390049093169091029190911790555b6001820154600160c01b90046001600160401b0316600003613dca5780546001600160401b03848116600160401b9092041614613d9657613d9661547a565b6001820154815467ffffffffffffffff60401b1916600160801b9091046001600160401b0316600160401b02178155613e3c565b80546001600160401b03600160401b909104811690841603613dee57613dee61547a565b6001828101546001600160401b03600160c01b820481166000908152602088905260409020909201805467ffffffffffffffff60801b1916600160801b928390049093169091029190911790555b50506001600160401b031660009081526020919091526040812080546001600160e01b031916815560010155565b6000826001600160401b0316846001600160401b031610158290613ea15760405162461bcd60e51b81526004016105a49190615251565b5050506001600160401b0390811691160390565b7f341c6685fdb8ed7133465b64f545b9fbc5699a59cbd1ad98992e5c070a74c5106122c67f341c6685fdb8ed7133465b64f545b9fbc5699a59cbd1ad98992e5c070a74c51184846146e6565b6001600160a01b03811660009081527f1309a575a1ebd5e5ca64d58e63b864f1d06aed3e31a021b0eabae653c215fb07602052604081207f1309a575a1ebd5e5ca64d58e63b864f1d06aed3e31a021b0eabae653c215fb069082613f6442611386565b83548354919250600091613f84916001600160401b03908116911661530f565b9050613f90818361474f565b835467ffffffffffffffff19166001600160401b0391909116908117845561278b90839061553a565b6000613fc9600e62015180615463565b613fd390426152fc565b90911015919050565b6001600160a01b0382166000908152600184016020526040812060028501805483919060109061401b90600160801b90046001600160401b0316615abe565b91906101000a8154816001600160401b0302191690836001600160401b03160217905590506040518060c00160405280866001600160a01b03168152602001856001600160401b031681526020018760020160089054906101000a90046001600160401b03166001600160401b0316815260200160006001600160401b031681526020018360000160089054906101000a90046001600160401b03166001600160401b0316815260200160006001600160401b0316815250866000016000836001600160401b03166001600160401b0316815260200190815260200160002060008201518160000160006101000a8154816001600160a01b0302191690836001600160a01b0316021790555060208201518160000160146101000a8154816001600160401b0302191690836001600160401b0316021790555060408201518160010160006101000a8154816001600160401b0302191690836001600160401b0316021790555060608201518160010160086101000a8154816001600160401b0302191690836001600160401b0316021790555060808201518160010160106101000a8154816001600160401b0302191690836001600160401b0316021790555060a08201518160010160186101000a8154816001600160401b0302191690836001600160401b031602179055509050508560020160009054906101000a90046001600160401b03166001600160401b0316600003614278576002860154600160401b90046001600160401b0316156142555761425561547a565b60028601805467ffffffffffffffff19166001600160401b0383161790556142e0565b6002860154600160401b90046001600160401b031660000361429c5761429c61547a565b6002860154600160401b908190046001600160401b039081166000908152602089905260409020600101805467ffffffffffffffff60401b19169184169092021790555b6002860180546001600160401b03808416600160401b0267ffffffffffffffff60401b1990921691909117909155825416600003614356578154600160401b90046001600160401b0316156143375761433761547a565b815467ffffffffffffffff19166001600160401b0382161782556143b9565b8154600160401b90046001600160401b03166000036143775761437761547a565b81546001600160401b03600160401b909104811660009081526020889052604090206001018054918316600160c01b026001600160c01b039092169190911790555b815467ffffffffffffffff60401b1916600160401b6001600160401b0383160217909155949350505050565b6000806000806143f3611a92565b600a8101549091506001600160a01b031685156144845760405163e4a0a55b60e01b81526001600160a01b0382169063e4a0a55b90614436908a90600401615251565b606060405180830381865afa158015614453573d6000803e3d6000fd5b505050506040513d601f19601f820116820180604052508101906144779190615ae4565b94509450945050506136a8565b60405163524f388960e01b81526001600160a01b0382169063524f388990614436908a90600401615251565b6000806144bb611a92565b9050600060096144cb878a615141565b6144d59190615141565b600a8301549091506000906144f5908690600160a81b900460ff16615141565b9050808210156145075761450761547a565b61452761451482846152fc565b61451f90600a615860565b87908a6133ca565b9998505050505050505050565b600080600283600281111561454b5761454b615154565b0361457857600061455a611a92565b600c0154640100000000900463ffffffff1692508291506145f99050565b600183600281111561458c5761458c615154565b036145c75761459a84614619565b60030154600485015463ffffffff91821692506145c091600160881b9091041682614771565b91506145f9565b6145d084614668565b60030154600485015463ffffffff91821692506145f691600160681b9091041682614771565b91505b9250929050565b60006119da6146116009600a615860565b8490846133ca565b600080600080516020615b13833981519152600484015481549192508291630100000090910461ffff1690811061465257614652615766565b9060005260206000209060040201915050919050565b600080600080516020615b1383398151915260048401548154919250829161010090910461ffff1690811061465257614652615766565b6000806146ac8484614780565b9050611a8a8460200151826119c0565b6000806146c7611a92565b600d81015490915061134890869086906001600160401b0316866148b0565b6001600160a01b038216600090815260048401602052604081209061470a82614927565b9050600061471786614927565b90506147248342866149c2565b6147454283614733878561530f565b61473d919061553a565b8891906149c2565b6124368684614d33565b6000816001600160401b0316836001600160401b031610156123ab57816119da565b60008183116123ab57816119da565b6000806000614793848660000151614534565b600586015491935091506000906147bc906001600160401b03600160401b820481169116615141565b905060006147d8846147d2848a6040015161271a565b9061264d565b905060006001885160028111156147f1576147f1615154565b14614810576005870154600160801b90046001600160401b0316614826565b6005870154600160c01b90046001600160401b03165b90506000614845856147d2846001600160401b03168c6040015161271a565b9050600060018a51600281111561485e5761485e615154565b0361486a576000614882565b8951614877908a90614d70565b546001600160801b03165b6001600160801b03169050806148988386615141565b6148a29190615141565b9a9950505050505050505050565b600080826148bf5760006148e8565b60048501546148e89061ffff600160581b82048116916147d2918891600160481b90041661264d565b905060006148f68286615141565b9050600061490882896040015161271a565b9050600061491a888a60000151614534565b509050614527828261264d565b6001810154600090600160401b90046001600160401b0316810361494d57506000919050565b60018201546001600160401b03808216600160401b90920416116149735761497361547a565b60018281015483916000916149989190600160401b90046001600160401b031661553a565b6001600160401b039081168252602082019290925260400160002054600160c01b90041692915050565b6001830154600160401b90046001600160401b0316600003614ae15760018301546001600160401b0316156149f9576149f961547a565b604051806060016040528060006001600160801b03168152602001614a1d84611386565b6001600160401b0390811682528381166020909201919091526001850180548692600092600160401b90920416906008614a5683615abe565b82546001600160401b039182166101009390930a92830292820219169190911790915590811682526020808301939093526040918201600020845181549486015195909301518216600160c01b026001600160c01b0395909216600160801b026001600160c01b03199094166001600160801b03909316929092179290921792909216179055505050565b60018301546001600160401b03808216600160401b9092041611614b0757614b0761547a565b60018381015460009185918391614b2d91600160401b90046001600160401b031661553a565b6001600160401b03908116825260208201929092526040016000208054909250600160801b900416839003614b7f5780546001600160c01b0316600160c01b6001600160401b03841602178155613136565b8054600160801b90046001600160401b03168311614bf05760405162461bcd60e51b815260206004820152602860248201527f54696d6543756d756c61746976653a2074696d657374616d70206e6f7420696e6044820152676372656173696e6760c01b60648201526084016105a4565b8054600090614c0f90600160801b90046001600160401b0316856152fc565b8254614c2b9190600160c01b90046001600160401b0316615463565b8254614c4091906001600160801b0316615141565b90506040518060600160405280614c568361265c565b6001600160801b03168152602001614c6d86611386565b6001600160401b0390811682528581166020909201919091526001870180548892600092600160401b90920416906008614ca683615abe565b82546001600160401b039182166101009390930a92830292820219169190911790915590811682526020808301939093526040918201600020845181549486015195909301518216600160c01b026001600160c01b0395909216600160801b026001600160c01b03199094166001600160801b039093169290921792909217929092161790555050505050565b6003820154600090614d56908490600160c01b90046001600160401b0316614dbd565b9050614d6482826002614df8565b6122c683826002614df8565b60006001826002811115614d8657614d86615154565b03614d9357614d9361547a565b6000826002811115614da757614da7615154565b14614db557826009016119da565b505060080190565b6003820154600090614de0908390600160401b90046001600160401b0316615463565b60038401546119da91906001600160401b0316615141565b60018301546001600160401b0380821691600160401b90041660005b8381108015614e2c575081614e2a846001615141565b105b8015614e65575084866000614e42866001615141565b8152602081019190915260400160002054600160801b90046001600160401b0316105b15614e9457600083815260208790526040812055614e828361555a565b9250614e8d8161555a565b9050614e14565b614e9d83611386565b600196909601805467ffffffffffffffff19166001600160401b03909716969096179095555050505050565b6001600160a01b03811681146102b557600080fd5b60008060408385031215614ef157600080fd5b8235614efc81614ec9565b946020939093013593505050565b60008060408385031215614f1d57600080fd5b82356001600160401b03811115614f3357600080fd5b83016102a08186031215614f4657600080fd5b91506020830135614f5681614ec9565b809150509250929050565b80356001600160401b03811681146133a757600080fd5b634e487b7160e01b600052604160045260246000fd5b604051601f8201601f191681016001600160401b0381118282101715614fb657614fb6614f78565b604052919050565b60006001600160401b03821115614fd757614fd7614f78565b50601f01601f191660200190565b60008060408385031215614ff857600080fd5b61500183614f61565b915060208301356001600160401b0381111561501c57600080fd5b8301601f8101851361502d57600080fd5b803561504061503b82614fbe565b614f8e565b81815286602083850101111561505557600080fd5b816020840160208301376000602083830101528093505050509250929050565b60006020828403121561508757600080fd5b81356102cf81614ec9565b6000602082840312156150a457600080fd5b5035919050565b600080604083850312156150be57600080fd5b82356150c981614ec9565b91506150d760208401614f61565b90509250929050565b80516001600160801b03811681146133a757600080fd5b60006020828403121561510957600080fd5b6119da826150e0565b60006020828403121561512457600080fd5b5051919050565b634e487b7160e01b600052601160045260246000fd5b808201808211156119dd576119dd61512b565b634e487b7160e01b600052602160045260246000fd5b634e487b7160e01b600052601260045260246000fd5b60008261518f5761518f61516a565b500490565b60005b838110156151af578181015183820152602001615197565b50506000910152565b6000602082840312156151ca57600080fd5b81516001600160401b038111156151e057600080fd5b8201601f810184136151f157600080fd5b80516151ff61503b82614fbe565b81815285602083850101111561521457600080fd5b611348826020830160208601615194565b6000815180845261523d816020860160208601615194565b601f01601f19169290920160200192915050565b6020815260006119da6020830184615225565b80151581146102b557600080fd5b60006020828403121561528457600080fd5b81516102cf81615264565b60208082526022908201527f6e6f7420656e6f75676820617661696c61626c65206f6e20636f7265207661756040820152611b1d60f21b606082015260800190565b6001600160401b038181168382160280821691908281146152f4576152f461512b565b505092915050565b818103818111156119dd576119dd61512b565b6001600160401b0381811683821601908082111561532f5761532f61512b565b5092915050565b6080815260006153496080830187615225565b6020830195909552506001600160801b039290921660408301521515606090910152919050565b6080815260006153836080830187615225565b6020830195909552506040810192909252606090910152919050565b600181811c908216806153b357607f821691505b60208210810361070c57634e487b7160e01b600052602260045260246000fd5b600081546153e08161539f565b8085526020600183811680156153fd576001811461541757615445565b60ff1985168884015283151560051b880183019550615445565b866000528260002060005b8581101561543d5781548a8201860152908301908401615422565b890184019650505b505050505092915050565b6020815260006119da60208301846153d3565b80820281158282048414176119dd576119dd61512b565b634e487b7160e01b600052600160045260246000fd5b60808152600061534960808301876153d3565b600080600080608085870312156154b957600080fd5b6154c2856150e0565b93506154d0602086016150e0565b92506154de604086016150e0565b91506154ec606086016150e0565b905092959194509250565b60006020828403121561550957600080fd5b81516102cf81614ec9565b60006001600160401b038084168061552e5761552e61516a565b92169190910692915050565b6001600160401b0382811682821603908082111561532f5761532f61512b565b60006001820161556c5761556c61512b565b5060010190565b601f8211156122c6576000816000526020600020601f850160051c8101602086101561559c5750805b601f850160051c820191505b81811015612436578281556001016155a8565b81516001600160401b038111156155d4576155d4614f78565b6155e8816155e2845461539f565b84615573565b602080601f83116001811461561d57600084156156055750858301515b600019600386901b1c1916600185901b178555612436565b600085815260208120601f198616915b8281101561564c5788860151825594840194600190910190840161562d565b508582101561566a5787850151600019600388901b60f8161c191681555b5050505050600190811b01905550565b803560ff811681146133a757600080fd5b60006020828403121561569d57600080fd5b6119da8261567a565b600f81810b9083900b016f7fffffffffffffffffffffffffffffff81136f7fffffffffffffffffffffffffffffff19821217156119dd576119dd61512b565b60006001600160401b03808416806156ff576156ff61516a565b92169190910492915050565b60208082526027908201527f53616665436173743a2076616c756520646f65736e27742066697420696e20316040820152663238206269747360c81b606082015260800190565b6000826157615761576161516a565b500690565b634e487b7160e01b600052603260045260246000fd5b600181815b808511156157b757816000190482111561579d5761579d61512b565b808516156157aa57918102915b93841c9390800290615781565b509250929050565b6000826157ce575060016119dd565b816157db575060006119dd565b81600181146157f157600281146157fb57615817565b60019150506119dd565b60ff84111561580c5761580c61512b565b50506001821b6119dd565b5060208310610133831016604e8410600b841016171561583a575081810a6119dd565b615844838361577c565b80600019048211156158585761585861512b565b029392505050565b60006119da83836157bf565b60006101208083526158808184018d615225565b6001600160801b039b8c16602085015299909a166040830152506001600160401b03968716606082015294861660808601529290941660a084015260c08301526001600160a01b0390921660e0820152610100015292915050565b80356133a781615264565b803582526020810135602083015261590060408201614f61565b6001600160401b0380821660408501528061591d60608501614f61565b16606085015250506080810135608083015260a081013560a083015260c081013560c083015261596360e0830161595660e08401614f61565b6001600160401b03169052565b610100615971818301614f61565b6001600160401b03169083015261012081810135908301526101408082013590830152610160808201359083015261018080820135908301526101a080820135908301526101c080820135908301526101e08082013590830152610200808201359083015261022080820135908301526102406159ef8183016158db565b151590830152610260615a0382820161567a565b60ff811684830152613136565b6020815260008235601e19843603018112615a2a57600080fd5b83016020810190356001600160401b03811115615a4657600080fd5b8060051b803603831315615a5957600080fd5b6102a060208601526102c085018290526102e06001600160fb1b03831115615a8057600080fd5b818482880137615a9660408701602089016158e6565b9401909301949350505050565b600060208284031215615ab557600080fd5b6119da82614f61565b60006001600160401b03808316818103615ada57615ada61512b565b6001019392505050565b600080600060608486031215615af957600080fd5b835192506020840151915060408401519050925092509256feec7e8c1c441439dd40959777f4c577ea0cd42fcc1dbe59d2bd0f5d9c55df8db6908500188c8f91f50d58dffac83eda18fc06d9da0208fc6b66c78a4c3fec74f20cd2207518cd3e5213e2c6dbe63d55b60aa893c194a427b7d7f1600408fd5bdea26469706673582212209bde769ee6d214c3c4af2dcee923a80ef1f1421ef5145ce524d1ac208184682564736f6c63430008170033",
  "linkReferences": {},
  "deployedLinkReferences": {}
}