{
  "_format": "hh-sol-artifact-1",
  "contractName": "CoreVaultFacet",
  "sourceName": "contracts/assetManager/facets/CoreVaultFacet.sol",
  "abi": [
    {
      "inputs": [],
      "stateMutability": "nonpayable",
      "type": "constructor"
    },
    {
      "anonymous": false,
      "inputs": [
        {
          "indexed": true,
          "internalType": "address",
          "name": "redeemer",
          "type": "address"
        },
        {
          "indexed": false,
          "internalType": "string",
          "name": "paymentAddress",
          "type": "string"
        },
        {
          "indexed": false,
          "internalType": "uint256",
          "name": "valueUBA",
          "type": "uint256"
        }
      ],
      "name": "CoreVaultRedemptionRequested",
      "type": "event"
    },
    {
      "anonymous": false,
      "inputs": [
        {
          "indexed": true,
          "internalType": "address",
          "name": "agentVault",
          "type": "address"
        },
        {
          "indexed": true,
          "internalType": "uint256",
          "name": "transferRedemptionRequestId",
          "type": "uint256"
        }
      ],
      "name": "CoreVaultTransferCancelled",
      "type": "event"
    },
    {
      "anonymous": false,
      "inputs": [
        {
          "indexed": true,
          "internalType": "address",
          "name": "agentVault",
          "type": "address"
        },
        {
          "indexed": true,
          "internalType": "uint256",
          "name": "transferRedemptionRequestId",
          "type": "uint256"
        },
        {
          "indexed": false,
          "internalType": "uint256",
          "name": "valueUBA",
          "type": "uint256"
        }
      ],
      "name": "CoreVaultTransferStarted",
      "type": "event"
    },
    {
      "anonymous": false,
      "inputs": [
        {
          "indexed": true,
          "internalType": "address",
          "name": "agentVault",
          "type": "address"
        },
        {
          "indexed": true,
          "internalType": "uint256",
          "name": "transferRedemptionRequestId",
          "type": "uint256"
        },
        {
          "indexed": false,
          "internalType": "uint256",
          "name": "valueUBA",
          "type": "uint256"
        }
      ],
      "name": "CoreVaultTransferSuccessful",
      "type": "event"
    },
    {
      "anonymous": false,
      "inputs": [
        {
          "indexed": true,
          "internalType": "address",
          "name": "agentVault",
          "type": "address"
        },
        {
          "indexed": false,
          "internalType": "uint256",
          "name": "dustUBA",
          "type": "uint256"
        }
      ],
      "name": "DustChanged",
      "type": "event"
    },
    {
      "anonymous": false,
      "inputs": [
        {
          "indexed": true,
          "internalType": "address",
          "name": "agentVault",
          "type": "address"
        },
        {
          "indexed": true,
          "internalType": "address",
          "name": "redeemer",
          "type": "address"
        },
        {
          "indexed": true,
          "internalType": "uint256",
          "name": "requestId",
          "type": "uint256"
        },
        {
          "indexed": false,
          "internalType": "string",
          "name": "paymentAddress",
          "type": "string"
        },
        {
          "indexed": false,
          "internalType": "uint256",
          "name": "valueUBA",
          "type": "uint256"
        },
        {
          "indexed": false,
          "internalType": "uint256",
          "name": "feeUBA",
          "type": "uint256"
        },
        {
          "indexed": false,
          "internalType": "uint256",
          "name": "firstUnderlyingBlock",
          "type": "uint256"
        },
        {
          "indexed": false,
          "internalType": "uint256",
          "name": "lastUnderlyingBlock",
          "type": "uint256"
        },
        {
          "indexed": false,
          "internalType": "uint256",
          "name": "lastUnderlyingTimestamp",
          "type": "uint256"
        },
        {
          "indexed": false,
          "internalType": "bytes32",
          "name": "paymentReference",
          "type": "bytes32"
        },
        {
          "indexed": false,
          "internalType": "address",
          "name": "executor",
          "type": "address"
        },
        {
          "indexed": false,
          "internalType": "uint256",
          "name": "executorFeeNatWei",
          "type": "uint256"
        }
      ],
      "name": "RedemptionRequested",
      "type": "event"
    },
    {
      "anonymous": false,
      "inputs": [
        {
          "indexed": true,
          "internalType": "address",
          "name": "agentVault",
          "type": "address"
        },
        {
          "indexed": true,
          "internalType": "uint256",
          "name": "redemptionTicketId",
          "type": "uint256"
        },
        {
          "indexed": false,
          "internalType": "uint256",
          "name": "ticketValueUBA",
          "type": "uint256"
        }
      ],
      "name": "RedemptionTicketCreated",
      "type": "event"
    },
    {
      "anonymous": false,
      "inputs": [
        {
          "indexed": true,
          "internalType": "address",
          "name": "agentVault",
          "type": "address"
        },
        {
          "indexed": true,
          "internalType": "uint256",
          "name": "redemptionTicketId",
          "type": "uint256"
        }
      ],
      "name": "RedemptionTicketDeleted",
      "type": "event"
    },
    {
      "anonymous": false,
      "inputs": [
        {
          "indexed": true,
          "internalType": "address",
          "name": "agentVault",
          "type": "address"
        },
        {
          "indexed": true,
          "internalType": "uint256",
          "name": "redemptionTicketId",
          "type": "uint256"
        },
        {
          "indexed": false,
          "internalType": "uint256",
          "name": "ticketValueUBA",
          "type": "uint256"
        }
      ],
      "name": "RedemptionTicketUpdated",
      "type": "event"
    },
    {
      "anonymous": false,
      "inputs": [
        {
          "indexed": true,
          "internalType": "address",
          "name": "agentVault",
          "type": "address"
        }
      ],
      "name": "ReturnFromCoreVaultCancelled",
      "type": "event"
    },
    {
      "anonymous": false,
      "inputs": [
        {
          "indexed": true,
          "internalType": "address",
          "name": "agentVault",
          "type": "address"
        },
        {
          "indexed": false,
          "internalType": "uint256",
          "name": "receivedUnderlyingUBA",
          "type": "uint256"
        },
        {
          "indexed": false,
          "internalType": "uint256",
          "name": "reMintedUBA",
          "type": "uint256"
        }
      ],
      "name": "ReturnFromCoreVaultConfirmed",
      "type": "event"
    },
    {
      "anonymous": false,
      "inputs": [
        {
          "indexed": true,
          "internalType": "address",
          "name": "agentVault",
          "type": "address"
        },
        {
          "indexed": false,
          "internalType": "uint256",
          "name": "valueUBA",
          "type": "uint256"
        }
      ],
      "name": "ReturnFromCoreVaultRequested",
      "type": "event"
    },
    {
      "anonymous": false,
      "inputs": [
        {
          "indexed": true,
          "internalType": "address",
          "name": "agentVault",
          "type": "address"
        },
        {
          "indexed": false,
          "internalType": "int256",
          "name": "underlyingBalanceUBA",
          "type": "int256"
        }
      ],
      "name": "UnderlyingBalanceChanged",
      "type": "event"
    },
    {
      "inputs": [
        {
          "internalType": "address",
          "name": "_agentVault",
          "type": "address"
        }
      ],
      "name": "cancelReturnFromCoreVault",
      "outputs": [],
      "stateMutability": "nonpayable",
      "type": "function"
    },
    {
      "inputs": [
        {
          "internalType": "address",
          "name": "_agentVault",
          "type": "address"
        }
      ],
      "name": "cancelTransferToCoreVault",
      "outputs": [],
      "stateMutability": "nonpayable",
      "type": "function"
    },
    {
      "inputs": [
        {
          "components": [
            {
              "internalType": "bytes32[]",
              "name": "merkleProof",
              "type": "bytes32[]"
            },
            {
              "components": [
                {
                  "internalType": "bytes32",
                  "name": "attestationType",
                  "type": "bytes32"
                },
                {
                  "internalType": "bytes32",
                  "name": "sourceId",
                  "type": "bytes32"
                },
                {
                  "internalType": "uint64",
                  "name": "votingRound",
                  "type": "uint64"
                },
                {
                  "internalType": "uint64",
                  "name": "lowestUsedTimestamp",
                  "type": "uint64"
                },
                {
                  "components": [
                    {
                      "internalType": "bytes32",
                      "name": "transactionId",
                      "type": "bytes32"
                    },
                    {
                      "internalType": "uint256",
                      "name": "inUtxo",
                      "type": "uint256"
                    },
                    {
                      "internalType": "uint256",
                      "name": "utxo",
                      "type": "uint256"
                    }
                  ],
                  "internalType": "struct IPayment.RequestBody",
                  "name": "requestBody",
                  "type": "tuple"
                },
                {
                  "components": [
                    {
                      "internalType": "uint64",
                      "name": "blockNumber",
                      "type": "uint64"
                    },
                    {
                      "internalType": "uint64",
                      "name": "blockTimestamp",
                      "type": "uint64"
                    },
                    {
                      "internalType": "bytes32",
                      "name": "sourceAddressHash",
                      "type": "bytes32"
                    },
                    {
                      "internalType": "bytes32",
                      "name": "sourceAddressesRoot",
                      "type": "bytes32"
                    },
                    {
                      "internalType": "bytes32",
                      "name": "receivingAddressHash",
                      "type": "bytes32"
                    },
                    {
                      "internalType": "bytes32",
                      "name": "intendedReceivingAddressHash",
                      "type": "bytes32"
                    },
                    {
                      "internalType": "int256",
                      "name": "spentAmount",
                      "type": "int256"
                    },
                    {
                      "internalType": "int256",
                      "name": "intendedSpentAmount",
                      "type": "int256"
                    },
                    {
                      "internalType": "int256",
                      "name": "receivedAmount",
                      "type": "int256"
                    },
                    {
                      "internalType": "int256",
                      "name": "intendedReceivedAmount",
                      "type": "int256"
                    },
                    {
                      "internalType": "bytes32",
                      "name": "standardPaymentReference",
                      "type": "bytes32"
                    },
                    {
                      "internalType": "bool",
                      "name": "oneToOne",
                      "type": "bool"
                    },
                    {
                      "internalType": "uint8",
                      "name": "status",
                      "type": "uint8"
                    }
                  ],
                  "internalType": "struct IPayment.ResponseBody",
                  "name": "responseBody",
                  "type": "tuple"
                }
              ],
              "internalType": "struct IPayment.Response",
              "name": "data",
              "type": "tuple"
            }
          ],
          "internalType": "struct IPayment.Proof",
          "name": "_payment",
          "type": "tuple"
        },
        {
          "internalType": "address",
          "name": "_agentVault",
          "type": "address"
        }
      ],
      "name": "confirmReturnFromCoreVault",
      "outputs": [],
      "stateMutability": "nonpayable",
      "type": "function"
    },
    {
      "inputs": [
        {
          "internalType": "address",
          "name": "_agentVault",
          "type": "address"
        }
      ],
      "name": "maximumTransferToCoreVault",
      "outputs": [
        {
          "internalType": "uint256",
          "name": "_maximumTransferUBA",
          "type": "uint256"
        },
        {
          "internalType": "uint256",
          "name": "_minimumLeftAmountUBA",
          "type": "uint256"
        }
      ],
      "stateMutability": "view",
      "type": "function"
    },
    {
      "inputs": [
        {
          "internalType": "uint64",
          "name": "_lots",
          "type": "uint64"
        },
        {
          "internalType": "string",
          "name": "_redeemerUnderlyingAddress",
          "type": "string"
        }
      ],
      "name": "redeemFromCoreVault",
      "outputs": [],
      "stateMutability": "nonpayable",
      "type": "function"
    },
    {
      "inputs": [
        {
          "internalType": "address",
          "name": "_agentVault",
          "type": "address"
        },
        {
          "internalType": "uint64",
          "name": "_lots",
          "type": "uint64"
        }
      ],
      "name": "requestReturnFromCoreVault",
      "outputs": [],
      "stateMutability": "nonpayable",
      "type": "function"
    },
    {
      "inputs": [
        {
          "internalType": "address",
          "name": "_agentVault",
          "type": "address"
        },
        {
          "internalType": "uint256",
          "name": "_amountUBA",
          "type": "uint256"
        }
      ],
      "name": "transferToCoreVault",
      "outputs": [],
      "stateMutability": "payable",
      "type": "function"
    },
    {
      "inputs": [
        {
          "internalType": "uint256",
          "name": "_amountUBA",
          "type": "uint256"
        }
      ],
      "name": "transferToCoreVaultFee",
      "outputs": [
        {
          "internalType": "uint256",
          "name": "_transferFeeNatWei",
          "type": "uint256"
        }
      ],
      "stateMutability": "view",
      "type": "function"
    }
  ],
  "bytecode": "0x608060405234801561001057600080fd5b507f908500188c8f91f50d58dffac83eda18fc06d9da0208fc6b66c78a4c3fec74f4805460ff60401b191668010000000000000000179055615b7380620000586000396000f3fe60806040526004361061007b5760003560e01c8063b35c1dbc1161004e578063b35c1dbc146100f5578063bfbf712114610115578063cfffc00614610148578063df10b5ea1461017d57600080fd5b80636286592e14610080578063687fea7114610095578063768d0e96146100b55780639b70be1f146100d5575b600080fd5b61009361008e366004614ed1565b61019d565b005b3480156100a157600080fd5b506100936100b0366004614efd565b6101f1565b3480156100c157600080fd5b506100936100d0366004614fd8565b610233565b3480156100e157600080fd5b506100936100f0366004615068565b61025c565b34801561010157600080fd5b50610093610110366004615068565b6102a0565b34801561012157600080fd5b50610135610130366004615085565b6102c8565b6040519081526020015b60405180910390f35b34801561015457600080fd5b50610168610163366004615068565b6102e6565b6040805192835260208301919091520161013f565b34801561018957600080fd5b5061009361019836600461509e565b61032f565b6101a5610358565b816101af816103c4565b60006101ba8461041b565b905060006101c7846104c2565b90506101d3828261051a565b5050506101ed6001600080516020615b1e83398151915255565b5050565b6101f9610358565b80610203816103c4565b600061020e8361041b565b905061021a8482610801565b50506101ed6001600080516020615b1e83398151915255565b61023b610358565b6102458282610a8b565b6101ed6001600080516020615b1e83398151915255565b610264610358565b8061026e816103c4565b60006102798361041b565b905061028481610d37565b505061029d6001600080516020615b1e83398151915255565b50565b6102a8610358565b806102b2816103c4565b60006102bd8361041b565b905061028481610e5a565b6000806102d4836104c2565b90506102df81610f2b565b9392505050565b60008060006102f48461041b565b905060008061030283610f8b565b9150915061031761031283610fc0565b61102c565b945061032561031282610fc0565b9350505050915091565b610337610358565b81610341816103c4565b600061034c8461041b565b905061021a818461107f565b600080516020615b1e8339815191528054600119016103be5760405162461bcd60e51b815260206004820152601f60248201527f5265656e7472616e637947756172643a207265656e7472616e742063616c6c0060448201526064015b60405180910390fd5b60029055565b6103d66103d08261041b565b336114ae565b61029d5760405162461bcd60e51b815260206004820152601660248201527537b7363c9030b3b2b73a103b30bab63a1037bbb732b960511b60448201526064016103b5565b7f5bebac0595fee029d42bb673937f5f1cb81cf8641382bc17774635de9b7d796568010000000000000000600160e01b03604083901b161880600060048084015460ff169081111561046f5761046f6150d3565b036104bc5760405162461bcd60e51b815260206004820152601b60248201527f696e76616c6964206167656e74207661756c742061646472657373000000000060448201526064016103b5565b50919050565b7f4f24f5c433db0962dac0d2c8b84197a6e6c7cc4e5d9ebe1916a1b6193da2f34654600090600080516020615abe833981519152906102df9061051590600160901b90046001600160401b031685615115565b610fc0565b610522611582565b600080516020615afe833981519152600061053c846115e1565b600c85015490915064010000000090046001600160401b0316156105a25760405162461bcd60e51b815260206004820152601760248201527f7472616e7366657220616c72656164792061637469766500000000000000000060448201526064016103b5565b60006105b18585600080611609565b50905060006105bf85610f2b565b9050803410156106115760405162461bcd60e51b815260206004820152601e60248201527f7472616e7366657220666565207061796d656e7420746f6f20736d616c6c000060448201526064016103b5565b600061061c87610f8b565b50905080866001600160401b031611156106875760405162461bcd60e51b815260206004820152602660248201527f746f6f206c6974746c65206d696e74696e67206c65667420616674657220747260448201526530b739b332b960d11b60648201526084016103b5565b845460408051633d083bf560e11b815290516000926001600160a01b031691637a1077ea91600480830192869291908290030181865afa1580156106cf573d6000803e3d6000fd5b505050506040513d6000823e601f3d908101601f191682016040526106f7919081019061514d565b9050600061075760405180604001604052806107128c6115e1565b6001600160a01b03168152602001876001600160401b03168152508860010160009054906101000a90046001600160a01b03168460008060006305f5e1006001611781565b600c8a0180546bffffffffffffffff0000000019166401000000006001600160401b03841602179055600188015490915061079b906001600160a01b031634611c22565b60006107a68961102c565b9050816001600160401b0316876001600160a01b03167f226564129ef53d055bcb5ec4fecddda26e652b99a6809e58cd39fe1f9a5bc8d1836040516107ed91815260200190565b60405180910390a350505050505050505050565b610809611582565b600080516020615afe83398151915261082183611cd0565b80546040805163c9febdf560e01b815290516001600160a01b039092169163c9febdf5916004808201926020929091908290030181865afa15801561086a573d6000803e3d6000fd5b505050506040513d601f19601f8201168201806040525081019061088e91906151ba565b610140840135146108e15760405162461bcd60e51b815260206004820152601b60248201527f7061796d656e74206e6f742066726f6d20636f7265207661756c74000000000060448201526064016103b5565b6003820154610180840135146109395760405162461bcd60e51b815260206004820152601e60248201527f7061796d656e74206e6f7420746f206167656e7427732061646472657373000060448201526064016103b5565b6109637fec7e8c1c441439dd40959777f4c577ea0cd42fcc1dbe59d2bd0f5d9c55df8dc184611d2e565b6000610973610200850135611d3c565b90506000610980826104c2565b905060006109a585600c01600c9054906101000a90046001600160401b031683611d8e565b90506109b18582611db7565b6109bb8584611e46565b600c8501546005860180546001600160401b03600160601b9093048316926000916109e8918591166151d3565b82546001600160401b039182166101009390930a928302919092021990911617905550600c8501805467ffffffffffffffff60601b191690556000610a2c8261102c565b9050610a37866115e1565b6001600160a01b03167f4ad7967bc55086dcfc6cea62c8d03a5b4cb64e9ac6ae051a3d61440a48f32f498583604051610a7a929190918252602082015260400190565b60405180910390a250505050505050565b610a93611582565b600080516020615afe8339815191528054604051632b656fef60e01b81526001600160a01b0390911690632b656fef90610ad1908590600401615226565b602060405180830381865afa158015610aee573d6000803e3d6000fd5b505050506040513d601f19601f82011682018060405250810190610b129190615247565b610b735760405162461bcd60e51b815260206004820152602c60248201527f756e6465726c79696e672061646472657373206e6f7420616c6c6f776564206260448201526b1e4818dbdc99481d985d5b1d60a21b60648201526084016103b5565b600080516020615abe8339815191526000610b8c611ef8565b9050806001600160401b0316856001600160401b03161115610bc05760405162461bcd60e51b81526004016103b590615264565b6002830154600090610bdb906001600160401b031683611d8e565b9050806001600160401b0316866001600160401b03161015610c3f5760405162461bcd60e51b815260206004820152601a60248201527f72657175657374656420616d6f756e7420746f6f20736d616c6c00000000000060448201526064016103b5565b600d830154600090610c5a906001600160401b0316886152a6565b90506000610c6f610c6a8361102c565b611f3c565b9050610c8433826001600160801b0316611f65565b8554604051631f1ebe9560e01b81526001600160a01b0390911690631f1ebe9590610cb8908a9085906000906004016152d1565b600060405180830381600087803b158015610cd257600080fd5b505af1158015610ce6573d6000803e3d6000fd5b50505050336001600160a01b03167fddadb43586bd6be298cbe938278f7d92143a6ea4ea385151d715c8ee6c9be8a68883604051610d25929190615304565b60405180910390a25050505050505050565b610d3f611582565b600080516020615afe833981519152805460405163a903532560e01b81526001600160a01b039091169063a903532590610d809060028601906004016153e0565b600060405180830381600087803b158015610d9a57600080fd5b505af1158015610dae573d6000803e3d6000fd5b50505050600c8201546005830180546001600160401b03600160601b909304831692600091610ddf918591166151d3565b82546001600160401b039182166101009390930a928302919092021990911617905550600c8201805467ffffffffffffffff60601b19169055610e21826115e1565b6001600160a01b03167fd0fe284ec2058d8def89f4923dbe52801128f4413ebc7788202923740b831ad360405160405180910390a25050565b610e62611582565b600c81015464010000000090046001600160401b03166000819003610ebe5760405162461bcd60e51b815260206004820152601260248201527137379030b1ba34bb32903a3930b739b332b960711b60448201526064016103b5565b6000610ec982611ff0565b9050610ed583826120cc565b610ede8261211f565b816001600160401b0316610ef1846115e1565b6001600160a01b03167f7f69a22a90768714290c040d5a6b6452b052bb1377d9e6f4889aef082bb29daa60405160405180910390a3505050565b6000600080516020615afe83398151915281610f4d610f486121e3565b612244565b90506000610f64856001600160401b03168361225a565b6001840154909150610f82908290600160a01b900461ffff16612274565b95945050505050565b600080610f9783612283565b6005840154909150610fb990600160401b90046001600160401b0316826122e4565b9150915091565b60006001600160401b038211156110285760405162461bcd60e51b815260206004820152602660248201527f53616665436173743a2076616c756520646f65736e27742066697420696e203660448201526534206269747360d01b60648201526084016103b5565b5090565b7f4f24f5c433db0962dac0d2c8b84197a6e6c7cc4e5d9ebe1916a1b6193da2f34654600090600080516020615abe833981519152906102df90600160901b90046001600160401b039081169085166153f3565b611087611582565b600080516020615afe8339815191528054604051632b656fef60e01b81526001600160a01b0390911690632b656fef906110c89060028701906004016153e0565b602060405180830381865afa1580156110e5573d6000803e3d6000fd5b505050506040513d601f19601f820116820180604052508101906111099190615247565b6111725760405162461bcd60e51b815260206004820152603460248201527f6167656e74277320756e6465726c79696e672061646472657373206e6f7420616044820152731b1b1bddd95908189e4818dbdc99481d985d5b1d60621b60648201526084016103b5565b600c830154600160601b90046001600160401b0316156111e55760405162461bcd60e51b815260206004820152602860248201527f72657475726e2066726f6d20636f7265207661756c7420616c72656164792072604482015267195c5d595cdd195960c21b60648201526084016103b5565b60006111f0846122fe565b90506000836001600160401b0316116112425760405162461bcd60e51b815260206004820152601460248201527363616e6e6f742072657475726e2030206c6f747360601b60448201526064016103b5565b600160048086015460ff169081111561125d5761125d6150d3565b146112a15760405162461bcd60e51b8152602060048201526014602482015273696e76616c6964206167656e742073746174757360601b60448201526064016103b5565b6001600160401b0383166112b582866123a8565b10156113035760405162461bcd60e51b815260206004820152601a60248201527f6e6f7420656e6f756768206672656520636f6c6c61746572616c00000000000060448201526064016103b5565b600061130d611ef8565b9050806001600160401b0316846001600160401b031611156113415760405162461bcd60e51b81526004016103b590615264565b7f4f24f5c433db0962dac0d2c8b84197a6e6c7cc4e5d9ebe1916a1b6193da2f34754600090611379906001600160401b0316866152a6565b600c870180546001600160401b03808416600160601b0267ffffffffffffffff60601b1990921691909117909155600588018054929350839290916000916113c39185911661540a565b92506101000a8154816001600160401b0302191690836001600160401b0316021790555060006113f5610c6a8361102c565b8554604051631f1ebe9560e01b81529192506001600160a01b031690631f1ebe959061142d9060028b0190859060019060040161542a565b600060405180830381600087803b15801561144757600080fd5b505af115801561145b573d6000803e3d6000fd5b50505050611468876115e1565b6040516001600160801b03831681526001600160a01b0391909116907fcdaef6e2ada754d3ef3eb5c3f6d0ce8731b1769a99768be3330c4086d83141d890602001610a7a565b60018201546000906001600160a01b0390811690831681148061157857507f4f24f5c433db0962dac0d2c8b84197a6e6c7cc4e5d9ebe1916a1b6193da2f341546001600160a01b0316604051631f86345d60e31b81526001600160a01b038381166004830152919091169063fc31a2e890602401602060405180830381865afa15801561153f573d6000803e3d6000fd5b505050506040513d601f19601f82011682018060405250810190611563919061543d565b6001600160a01b0316836001600160a01b0316145b9150505b92915050565b600080516020615afe83398151915280546001600160a01b031661029d5760405162461bcd60e51b815260206004820152601660248201527518dbdc99481d985d5b1d081b9bdd08195b98589b195960521b60448201526064016103b5565b7f5bebac0595fee029d42bb673937f5f1cb81cf8641382bc17774635de9b7d79651860401c90565b600080600080516020615ade833981519152836116545760068701546116399087906001600160401b0316611d8e565b92506001600160401b038316156116545761165487846123dd565b7f4f24f5c433db0962dac0d2c8b84197a6e6c7cc4e5d9ebe1916a1b6193da2f34954600160801b900461ffff1660005b81811080156116a45750876001600160401b0316856001600160401b0316105b1561175a57600060088401816116b98c6115e1565b6001600160a01b0316815260208101919091526040016000908120546001600160401b031691508190036116ed575061175a565b6001600160401b038116600090815260078501602052604081209061172c611715898d6151d3565b8354600160a01b90046001600160401b0316611d8e565b9050611738838261242e565b611742818961540a565b975050505080806117529061545a565b915050611684565b506117648461102c565b92508515611776576117768885612626565b505094509492505050565b8751600090600080516020615ade8339815191529082906117a19061041b565b895160208b012060038201549192509081036117ff5760405162461bcd60e51b815260206004820181905260248201527f63616e6e6f742072656465656d20746f206167656e742773206164647265737360448201526064016103b5565b6000611811610c6a8e6020015161102c565b905061181c8a6126bf565b94506118b66040805161026081018252600080825260208201819052918101829052606081018290526080810182905260a0810182905260c0810182905260e08101829052610100810182905261012081018290529061014082019081526000602082018190526040820181905260608083018290526080830182905260a0830182905260c083015260e082018190526101009091015290565b8281526001600160801b0382166020820152600f8501546201000090046001600160401b031660608201528d516118ed9089612754565b6001600160401b0390811660a084015216608082015261190c42610fc0565b6001600160401b03166101008201528661195957611954610c6a600080516020615abe833981519152600e01546001600160801b03851690600160401b900461ffff16612274565b61195c565b60005b6001600160801b031660408201526001600160a01b038d811660e08301528e511661012082015260208e01516001600160401b031660c082015260016101408201819052508a15156101608201526001600160a01b038a81166101808301526001600160401b038a81166101a084015261020083018e9052881515610220840152600c860154600160a01b9081900461ffff166102408501528882166000908152600a890160209081526040918290208651815590860151918601516001600160801b03928316600160801b918416820217600183015560608701516002808401805460808b015160a08c015160c08d0151958b166001600160801b031990931692909217600160401b918b1691909102179096169588169093026001600160c01b031694909417600160c01b9187169190910217905560e08601516003820180546101008901519288166001600160e01b031990911617919095168402179093556101208501516004840180546001600160a01b031981169290961691821781556101408701518796909491936001600160a81b0319909116909217918490811115611b0b57611b0b6150d3565b021790555061016082015160048201805460ff60a81b1916600160a81b921515929092029190911790556101808201516005820180546101a08501516001600160a01b039093166001600160e01b031990911617600160a01b6001600160401b03938416021790556101c08301516006830180546101e08601519284166001600160801b031990911617600160401b92909316919091029190911790556102008201516007820190611bbd90826154bb565b50610220820151600890910180546102409093015161ffff166101000262ffff00199215159290921662ffffff199093169290921717905560208e0151611c069085908d61286f565b611c1181878e612913565b505050505098975050505050505050565b611c2a6129d8565b80156101ed576000826001600160a01b031682620186a090604051600060405180830381858888f193505050503d8060008114611c83576040519150601f19603f3d011682016040523d82523d6000602084013e611c88565b606091505b5050905080611ccb5760405162461bcd60e51b815260206004820152600f60248201526e1d1c985b9cd9995c8819985a5b1959608a1b60448201526064016103b5565b505050565b6000611ce46102a08301610280840161558b565b60ff1614611d255760405162461bcd60e51b815260206004820152600e60248201526d1c185e5b595b9d0819985a5b195960921b60448201526064016103b5565b61029d81612a39565b6101ed8260a0830135612c01565b6000808212156110285760405162461bcd60e51b815260206004820181905260248201527f53616665436173743a2076616c7565206d75737420626520706f73697469766560448201526064016103b5565b6000816001600160401b0316836001600160401b03161115611db057816102df565b5090919050565b6006820154600080516020615abe83398151915290600090611de39084906001600160401b031661540a565b600d830154909150600090611e01906001600160401b0316836155a6565b90506000611e0f82846151d3565b9050611e1b8686612cca565b6001600160401b03811615611e3457611e348682612cea565b611e3e8683612e77565b505050505050565b611e57611e5282612f0d565b612f77565b600683018054600890611e75908490600160401b9004600f0b6155cc565b92506101000a8154816001600160801b030219169083600f0b6001600160801b03160217905550611ea5826115e1565b6006830154604051600160401b909104600f0b81526001600160a01b0391909116907f73da6891cb86668451f612d2555e88650888a0133a30b1d226b2d1f955e62bca9060200160405180910390a25050565b6000600080516020615abe83398151915281611f1a611f15612fa0565b6104c2565b600d830154909150611f35906001600160401b03168261560b565b9250505090565b60006001600160801b038211156110285760405162461bcd60e51b81526004016103b590615631565b7f4f24f5c433db0962dac0d2c8b84197a6e6c7cc4e5d9ebe1916a1b6193da2f33b546001600160a01b0316604051632770a7eb60e21b81526001600160a01b038481166004830152602482018490529190911690639dc29fac90604401600060405180830381600087803b158015611fdc57600080fd5b505af1158015611e3e573d6000803e3d6000fd5b6000600080516020615ade8339815191526001600160401b038316820361204e5760405162461bcd60e51b81526020600482015260126024820152711a5b9d985b1a59081c995c5d595cdd081a5960721b60448201526064016103b5565b6001600160401b0383166000908152600a82016020526040812092506004830154600160a01b900460ff16600281111561208a5761208a6150d3565b036104bc5760405162461bcd60e51b81526020600482015260126024820152711a5b9d985b1a59081c995c5d595cdd081a5960721b60448201526064016103b5565b6120ff828260020160189054906101000a90046001600160401b03168360040160159054906101000a900460ff166131c5565b60028101546101ed908390600160c01b90046001600160401b0316611db7565b612128816132bb565b6001600160401b03811660009081527fec7e8c1c441439dd40959777f4c577ea0cd42fcc1dbe59d2bd0f5d9c55df8dc06020526040812081815560018101829055600281018290556003810180546001600160e01b03199081169091556004820180546001600160b01b031916905560058201805490911690556006810180546001600160801b0319169055600080516020615ade833981519152916121d16007830182614e72565b50600801805462ffffff191690555050565b7fec7e8c1c441439dd40959777f4c577ea0cd42fcc1dbe59d2bd0f5d9c55df8dc554600080516020615ade8339815191528054600092829161ffff90911690811061223057612230615678565b906000526020600020906004020191505090565b600061225182600061332c565b50909392505050565b60006102df8261226c6009600a615772565b8591906134eb565b60006102df83836127106134eb565b60008061228f836122fe565b905060006122a1848360000151613611565b905060006122b3858460200151613611565b905060006122c5868560400151613611565b90506122da836122d58484613686565b613686565b9695505050505050565b60008183116122f45760006102df565b6102df828461577e565b6123696040805160c081019091526000606082018181526080830182905260a083019190915281908152604080516060810182526000808252602082810182905292820152910190815260408051606081018252600080825260208281018290529282015291015290565b600061237483613695565b9050604051806060016040528061238a8561375b565b815260200182815260200161239f85846137e8565b90529392505050565b6000806123b98460000151846139b4565b905060006123cb8560200151856139b4565b905060006122c58660400151866139b4565b600682015460408051808201909152600f81526e1b9bdd08195b9bdd59da08191d5cdd608a1b6020820152600091612422916001600160401b039091169084906139ea565b9050611ccb8382612e77565b6001600160401b0382811660009081527fec7e8c1c441439dd40959777f4c577ea0cd42fcc1dbe59d2bd0f5d9c55df8dbd602052604081208054600080516020615ade8339815191529391929161248f918691600160a01b909104166151d3565b9050806001600160401b03166000036124f45781546040516001600160401b038716916001600160a01b0316907fb7f65e70a51658e24800516a5dc90e2dd65176e18381adda77f58e2044482b1990600090a36124ef6007840186613a35565b61261f565b7f4f24f5c433db0962dac0d2c8b84197a6e6c7cc4e5d9ebe1916a1b6193da2f347546001600160401b0390811690821610156125a0578154600090612541906001600160a01b031661041b565b905061254d8183613e0f565b82546040516001600160401b038816916001600160a01b0316907fb7f65e70a51658e24800516a5dc90e2dd65176e18381adda77f58e2044482b1990600090a361259a6007850187613a35565b5061261f565b815467ffffffffffffffff60a01b1916600160a01b6001600160401b0383160217825560006125ce8261102c565b83546040518281529192506001600160401b038816916001600160a01b03909116907f9d2e72c50be7927e999d37329649af37a863df77bcb25361699ce021d3d7475d9060200160405180910390a3505b5050505050565b6126718260050160089054906101000a90046001600160401b031682604051806040016040528060118152602001701b9bdd08195b9bdd59da081b5a5b9d1959607a1b8152506139ea565b8260050160086101000a8154816001600160401b0302191690836001600160401b031602179055506101ed6126a5836115e1565b6005840154600160401b90046001600160401b0316613e33565b6000600080516020615ade833981519152816126d9613e7f565b600e8301546126f89190600160401b90046001600160401b031661540a565b905060008461270857600061270b565b60015b60ff1660011961271c84600161540a565b161790508083600e0160086101000a8154816001600160401b0302191690836001600160401b03160217905550809350505050919050565b600080600080516020615ade833981519152600080516020615abe833981519152828561278088613e9d565b600f850154600160901b90046001600160401b031661279e42610fc0565b6127a891906151d3565b6127b2919061540a565b6127bc919061540a565b600c8301549091506000906127f09063ffffffff166127e66001600160401b0385166103e86153f3565b6105159190615115565b600d840154600f8601549192506001600160401b03600160981b9091048116916128229184916201000090041661540a565b61282c919061540a565b600e840154600f8601549197506001600160401b0390811691612858918591600160501b90041661540a565b612862919061540a565b9450505050509250929050565b818360050160108282829054906101000a90046001600160401b0316612895919061540a565b92506101000a8154816001600160401b0302191690836001600160401b031602179055508061290957818360050160188282829054906101000a90046001600160401b03166128e4919061540a565b92506101000a8154816001600160401b0302191690836001600160401b031602179055505b611ccb8383612626565b816001600160401b03168360e001516001600160a01b03168461012001516001600160a01b03167f8cbbd73a8d1b8b02a53c4c3b0ee34b472fe3099cc19bcfb57f1aae09e8a9847e848760200151886040015189606001518a608001518b60a001516129928c6001600160401b031667232128293320800160c11b1790565b8d6101800151633b9aca008f6101a001516001600160401b03166129b691906153f3565b6040516129cb99989796959493929190615791565b60405180910390a4505050565b600080516020615b1e83398151915254600214612a375760405162461bcd60e51b815260206004820152601f60248201527f5265656e7472616e637947756172643a2067756172642072657175697265640060448201526064016103b5565b565b7f4f24f5c433db0962dac0d2c8b84197a6e6c7cc4e5d9ebe1916a1b6193da2f342547f4f24f5c433db0962dac0d2c8b84197a6e6c7cc4e5d9ebe1916a1b6193da2f34554600080516020615abe833981519152916001600160a01b031690604084013514612ad95760405162461bcd60e51b815260206004820152600d60248201526c34b73b30b634b21031b430b4b760991b60448201526064016103b5565b60405163a7a3797560e01b81526001600160a01b0382169063a7a3797590612b05908690600401615935565b602060405180830381865afa158015612b22573d6000803e3d6000fd5b505050506040513d601f19601f82011682018060405250810190612b469190615247565b612b925760405162461bcd60e51b815260206004820152601860248201527f6c6567616c207061796d656e74206e6f742070726f766564000000000000000060448201526064016103b5565b612bb5612ba7610140850161012086016159c8565b6001600160401b0316613f55565b611ccb5760405162461bcd60e51b815260206004820152601c60248201527f7665726966696564207472616e73616374696f6e20746f6f206f6c640000000060448201526064016103b5565b60008181526020839052604090205415612c5d5760405162461bcd60e51b815260206004820152601960248201527f7061796d656e7420616c726561647920636f6e6669726d65640000000000000060448201526064016103b5565b6000612c6c6201518042615115565b6000818152600185016020526040812054919250819003612c8d5782612c8f565b805b6000848152602086815260408083209390935584825260018701905290812084905560028501549003612cc457600284018290555b50505050565b6005820154612671908290600160401b90046001600160401b031661540a565b600080516020615ade8339815191526000612d04846115e1565b6009830154600160401b90046001600160401b031660008181526007850160205260409020805492935090916001600160a01b03808516911603612e0157805485908290601490612d66908490600160a01b90046001600160401b031661540a565b92506101000a8154816001600160401b0302191690836001600160401b031602179055506000612dac8260000160149054906101000a90046001600160401b031661102c565b9050826001600160401b0316846001600160a01b03167f9d2e72c50be7927e999d37329649af37a863df77bcb25361699ce021d3d7475d83604051612df391815260200190565b60405180910390a350611e3e565b6000612e11600786018588613f78565b90506000612e1e8761102c565b9050816001600160401b0316856001600160a01b03167f631f8f2039090539b2ea4ef7dc567f7f1939ef4dd3e790b1ca7bc548a1fada5883604051612e6591815260200190565b60405180910390a35050505050505050565b60068201546001600160401b03808316911603612e92575050565b60068201805467ffffffffffffffff19166001600160401b0383161790556000612ebb8261102c565b9050612ec6836115e1565b6001600160a01b03167fa3db2bc927901a1d3ba09ad51d84609457b98443be9132a0a936a47c5a1081b582604051612f0091815260200190565b60405180910390a2505050565b60006001600160ff1b038211156110285760405162461bcd60e51b815260206004820152602860248201527f53616665436173743a2076616c756520646f65736e27742066697420696e2061604482015267371034b73a191a9b60c11b60648201526084016103b5565b80600f81900b8114612f9b5760405162461bcd60e51b81526004016103b590615631565b919050565b600080516020615afe8339815191528054604080516378763bfd60e11b815290516000939284926001600160a01b039091169163f0ec77fa916004808201926020929091908290030181865afa158015612ffe573d6000803e3d6000fd5b505050506040513d601f19601f8201168201806040525081019061302291906159e3565b8254604080516311bf3fd360e21b815290516001600160a01b03909216916346fcff4c916004808201926020929091908290030181865afa15801561306b573d6000803e3d6000fd5b505050506040513d601f19601f8201168201806040525081019061308f91906159e3565b6130999190615a0c565b6001600160801b0316905060008260000160009054906101000a90046001600160a01b03166001600160a01b031663dc2448406040518163ffffffff1660e01b8152600401602060405180830381865afa1580156130fb573d6000803e3d6000fd5b505050506040513d601f19601f8201168201806040525081019061311f91906159e3565b8354604080516392321adb60e01b815290516001600160a01b03909216916392321adb916004808201926020929091908290030181865afa158015613168573d6000803e3d6000fd5b505050506040513d601f19601f8201168201806040525081019061318c91906159e3565b6131969190615a0c565b6001600160801b03169050808211156131bb576131b3818361577e565b935050505090565b6000935050505090565b6132138360050160109054906101000a90046001600160401b031683604051806040016040528060148152602001736e6f7420656e6f7567682072656465656d696e6760601b8152506139ea565b8360050160106101000a8154816001600160401b0302191690836001600160401b0316021790555080611ccb5761328e8360050160189054906101000a90046001600160401b031683604051806040016040528060148152602001736e6f7420656e6f7567682072656465656d696e6760601b8152506139ea565b8360050160186101000a8154816001600160401b0302191690836001600160401b03160217905550505050565b60006132c682611ff0565b600881015490915060ff16156101ed5760048101546000906132f0906001600160a01b031661041b565b600c8101549091506001600160401b038085166401000000009092041603611ccb57600c0180546bffffffffffffffff00000000191690555050565b6000806000806000806133cb8860010180546133479061532f565b80601f01602080910402602001604051908101604052809291908181526020018280546133739061532f565b80156133c05780601f10613395576101008083540402835291602001916133c0565b820191906000526020600020905b8154815290600101906020018083116133a357829003601f168201915b505050505088614381565b8a549295509093509150600160f01b900460ff161561341257875460009061340190600160a81b900460ff16600183878661446f565b96509194508493506134e492505050565b60008060006134ad8b60020180546134299061532f565b80601f01602080910402602001604051908101604052809291908181526020018280546134559061532f565b80156134a25780601f10613477576101008083540402835291602001916134a2565b820191906000526020600020905b81548152906001019060200180831161348557829003601f168201915b50505050508b614381565b8d5492955090935091506000906134d190600160a81b900460ff1685848a8961446f565b99509497509095506134e4945050505050565b9250925092565b600080821161352f5760405162461bcd60e51b815260206004820152601060248201526f4469766973696f6e206279207a65726f60801b60448201526064016103b5565b8360000361353f575060006102df565b83830283858281613552576135526150e9565b040361357057828181613567576135676150e9565b049150506102df565b50600061357d8386615115565b9050600061358b8487615a2c565b905060006135998587615115565b905060006135a78688615a2c565b9050856135b482856153f3565b6135be9190615115565b6135c883856153f3565b6135d283876153f3565b886135dd86896153f3565b6135e791906153f3565b6135f19190615a40565b6135fb9190615a40565b6136059190615a40565b98975050505050505050565b600080600080516020615afe833981519152905060006136358585600001516144f6565b915050600061364c856020015186604001516145fd565b9050600061365d82612710856134eb565b600185015490915061367b908290600160d01b900461ffff16612274565b979650505050505050565b6000818310611db057816102df565b6136ba6040805160608101909152806000815260200160008152602001600081525090565b60006136c583614616565b60408051606081019091529091508060018152825485546040516370a0823160e01b81526001600160a01b0391821660048201526020909301929116906370a08231906024015b602060405180830381865afa158015613729573d6000803e3d6000fd5b505050506040513d601f19601f8201168201806040525081019061374d91906151ba565b815260200161239f83612244565b6137806040805160608101909152806000815260200160008152602001600081525090565b600061378b83614665565b60408051606081019091526000815281549192509060208201906001600160a01b03166370a082316137bc876115e1565b6040516001600160e01b031960e084901b1681526001600160a01b03909116600482015260240161370c565b61380d6040805160608101909152806000815260200160008152602001600081525090565b8254604080516332f7ce0b60e21b815290516000926001600160a01b03169163cbdf382c9160048083019260209291908290030181865afa158015613856573d6000803e3d6000fd5b505050506040513d601f19601f8201168201806040525081019061387a919061543d565b90506000816001600160a01b03166370a08231613896876115e1565b6040516001600160e01b031960e084901b1681526001600160a01b039091166004820152602401602060405180830381865afa1580156138da573d6000803e3d6000fd5b505050506040513d601f19601f820116820180604052508101906138fe91906151ba565b90506000826001600160a01b03166318160ddd6040518163ffffffff1660e01b8152600401602060405180830381865afa158015613940573d6000803e3d6000fd5b505050506040513d601f19601f8201168201806040525081019061396491906151ba565b90506000856020015160000361397b576000613990565b602086015160408701516139909184906134eb565b60408051606081018252600281526020810195909552840152509095945050505050565b6000806139c1848461469c565b905060006139cf85856146b9565b9050806000036139e0576000610f82565b610f828183615115565b6000826001600160401b0316846001600160401b031610158290613a215760405162461bcd60e51b81526004016103b59190615226565b5050506001600160401b0390811691160390565b6001600160401b038116600090815260208390526040902080546001600160a01b0316613a6457613a64615a53565b80546001600160a01b031660009081526001808501602052604082209083015490916001600160401b039091169003613aea5760028401546001600160401b03848116911614613ab657613ab6615a53565b6001820154600285018054600160401b9092046001600160401b031667ffffffffffffffff19909216919091179055613b52565b60028401546001600160401b0390811690841603613b0a57613b0a615a53565b6001828101546001600160401b038082166000908152602088905260409020909201805467ffffffffffffffff60401b1916600160401b928390049093169091029190911790555b6001820154600160401b90046001600160401b0316600003613bc95760028401546001600160401b03848116600160401b9092041614613b9457613b94615a53565b600182015460028501805467ffffffffffffffff60401b19166001600160401b03909216600160401b02919091179055613c31565b60028401546001600160401b03600160401b909104811690841603613bf057613bf0615a53565b600180830154600160401b81046001600160401b039081166000908152602088905260409020909201805467ffffffffffffffff1916929091169190911790555b6001820154600160801b90046001600160401b0316600003613c965780546001600160401b03848116911614613c6957613c69615a53565b60018201548154600160c01b9091046001600160401b031667ffffffffffffffff19909116178155613cfc565b80546001600160401b0390811690841603613cb357613cb3615a53565b6001828101546001600160401b03600160801b82048116600090815260208890526040902090920180546001600160c01b0316600160c01b928390049093169091029190911790555b6001820154600160c01b90046001600160401b0316600003613d6f5780546001600160401b03848116600160401b9092041614613d3b57613d3b615a53565b6001820154815467ffffffffffffffff60401b1916600160801b9091046001600160401b0316600160401b02178155613de1565b80546001600160401b03600160401b909104811690841603613d9357613d93615a53565b6001828101546001600160401b03600160c01b820481166000908152602088905260409020909201805467ffffffffffffffff60801b1916600160801b928390049093169091029190911790555b50506001600160401b031660009081526020919091526040812080546001600160e01b031916815560010155565b60068201546101ed908390613e2e9084906001600160401b031661540a565b612e77565b7f341c6685fdb8ed7133465b64f545b9fbc5699a59cbd1ad98992e5c070a74c510611ccb7f341c6685fdb8ed7133465b64f545b9fbc5699a59cbd1ad98992e5c070a74c511848461470c565b6000613e8d6103e843615a2c565b613e98906001615a40565b905090565b6001600160a01b03811660009081527f1309a575a1ebd5e5ca64d58e63b864f1d06aed3e31a021b0eabae653c215fb07602052604081207f1309a575a1ebd5e5ca64d58e63b864f1d06aed3e31a021b0eabae653c215fb069082613f0042610fc0565b83548354919250600091613f20916001600160401b03908116911661540a565b9050613f2c8183614775565b835467ffffffffffffffff19166001600160401b039190911690811784556122da9083906151d3565b6000613f65600e620151806153f3565b613f6f904261577e565b90911015919050565b6001600160a01b03821660009081526001840160205260408120600285018054839190601090613fb790600160801b90046001600160401b0316615a69565b91906101000a8154816001600160401b0302191690836001600160401b03160217905590506040518060c00160405280866001600160a01b03168152602001856001600160401b031681526020018760020160089054906101000a90046001600160401b03166001600160401b0316815260200160006001600160401b031681526020018360000160089054906101000a90046001600160401b03166001600160401b0316815260200160006001600160401b0316815250866000016000836001600160401b03166001600160401b0316815260200190815260200160002060008201518160000160006101000a8154816001600160a01b0302191690836001600160a01b0316021790555060208201518160000160146101000a8154816001600160401b0302191690836001600160401b0316021790555060408201518160010160006101000a8154816001600160401b0302191690836001600160401b0316021790555060608201518160010160086101000a8154816001600160401b0302191690836001600160401b0316021790555060808201518160010160106101000a8154816001600160401b0302191690836001600160401b0316021790555060a08201518160010160186101000a8154816001600160401b0302191690836001600160401b031602179055509050508560020160009054906101000a90046001600160401b03166001600160401b0316600003614214576002860154600160401b90046001600160401b0316156141f1576141f1615a53565b60028601805467ffffffffffffffff19166001600160401b03831617905561427c565b6002860154600160401b90046001600160401b031660000361423857614238615a53565b6002860154600160401b908190046001600160401b039081166000908152602089905260409020600101805467ffffffffffffffff60401b19169184169092021790555b6002860180546001600160401b03808416600160401b0267ffffffffffffffff60401b19909216919091179091558254166000036142f2578154600160401b90046001600160401b0316156142d3576142d3615a53565b815467ffffffffffffffff19166001600160401b038216178255614355565b8154600160401b90046001600160401b031660000361431357614313615a53565b81546001600160401b03600160401b909104811660009081526020889052604090206001018054918316600160c01b026001600160c01b039092169190911790555b815467ffffffffffffffff60401b1916600160401b6001600160401b0383160217909155949350505050565b7f4f24f5c433db0962dac0d2c8b84197a6e6c7cc4e5d9ebe1916a1b6193da2f3445460009081908190600080516020615abe833981519152906001600160a01b031685156144435760405163e4a0a55b60e01b81526001600160a01b0382169063e4a0a55b906143f5908a90600401615226565b606060405180830381865afa158015614412573d6000803e3d6000fd5b505050506040513d601f19601f820116820180604052508101906144369190615a8f565b94509450945050506134e4565b60405163524f388960e01b81526001600160a01b0382169063524f3889906143f5908a90600401615226565b6000600080516020615abe83398151915281600961448d878a615a40565b6144979190615a40565b600a8301549091506000906144b7908690600160a81b900460ff16615a40565b9050808210156144c9576144c9615a53565b6144e96144d6828461577e565b6144e190600a615772565b87908a6134eb565b9998505050505050505050565b600080600283600281111561450d5761450d6150d3565b03614575576000806145208660016144f6565b91509150600061453b600080516020615abe83398151915290565b600c015463ffffffff6401000000009091048116915061455f908290849061227416565b935061456b8184612274565b94505050506145f6565b6001836002811115614589576145896150d3565b036145c45761459784614616565b60030154600485015463ffffffff91821692506145bd91600160881b9091041682614797565b91506145f6565b6145cd84614665565b60030154600485015463ffffffff91821692506145f391600160681b9091041682614797565b91505b9250929050565b60006102df61460e6009600a615772565b8490846134eb565b600080600080516020615ade833981519152600484015481549192508291630100000090910461ffff1690811061464f5761464f615678565b9060005260206000209060040201915050919050565b600080600080516020615ade83398151915260048401548154919250829161010090910461ffff1690811061464f5761464f615678565b6000806146a984846147a6565b90506115788460200151826122e4565b600080600080516020615abe833981519152905060006146dd8486600001516144f6565b50600d8301546040870151919250610f82918391614706916001600160401b039091169061225a565b90612274565b6001600160a01b0382166000908152600484016020526040812090614730826148d0565b9050600061473d866148d0565b905061474a83428661496b565b61476b4283614759878561540a565b61476391906151d3565b88919061496b565b611e3e8684614cdc565b6000816001600160401b0316836001600160401b03161015611db057816102df565b6000818311611db057816102df565b60008060006147b98486600001516144f6565b600586015491935091506000906147e2906001600160401b03600160401b820481169116615a40565b905060006147f884614706848a6040015161225a565b90506000600188516002811115614811576148116150d3565b14614830576005870154600160801b90046001600160401b0316614846565b6005870154600160c01b90046001600160401b03165b9050600061486585614706846001600160401b03168c6040015161225a565b9050600060018a51600281111561487e5761487e6150d3565b0361488a5760006148a2565b8951614897908a90614d19565b546001600160801b03165b6001600160801b03169050806148b88386615a40565b6148c29190615a40565b9a9950505050505050505050565b6001810154600090600160401b90046001600160401b031681036148f657506000919050565b60018201546001600160401b03808216600160401b909204161161491c5761491c615a53565b60018281015483916000916149419190600160401b90046001600160401b03166151d3565b6001600160401b039081168252602082019290925260400160002054600160c01b90041692915050565b6001830154600160401b90046001600160401b0316600003614a8a5760018301546001600160401b0316156149a2576149a2615a53565b604051806060016040528060006001600160801b031681526020016149c684610fc0565b6001600160401b0390811682528381166020909201919091526001850180548692600092600160401b909204169060086149ff83615a69565b82546001600160401b039182166101009390930a92830292820219169190911790915590811682526020808301939093526040918201600020845181549486015195909301518216600160c01b026001600160c01b0395909216600160801b026001600160c01b03199094166001600160801b03909316929092179290921792909216179055505050565b60018301546001600160401b03808216600160401b9092041611614ab057614ab0615a53565b60018381015460009185918391614ad691600160401b90046001600160401b03166151d3565b6001600160401b03908116825260208201929092526040016000208054909250600160801b900416839003614b285780546001600160c01b0316600160c01b6001600160401b03841602178155612cc4565b8054600160801b90046001600160401b03168311614b995760405162461bcd60e51b815260206004820152602860248201527f54696d6543756d756c61746976653a2074696d657374616d70206e6f7420696e6044820152676372656173696e6760c01b60648201526084016103b5565b8054600090614bb890600160801b90046001600160401b03168561577e565b8254614bd49190600160c01b90046001600160401b03166153f3565b8254614be991906001600160801b0316615a40565b90506040518060600160405280614bff83611f3c565b6001600160801b03168152602001614c1686610fc0565b6001600160401b0390811682528581166020909201919091526001870180548892600092600160401b90920416906008614c4f83615a69565b82546001600160401b039182166101009390930a92830292820219169190911790915590811682526020808301939093526040918201600020845181549486015195909301518216600160c01b026001600160c01b0395909216600160801b026001600160c01b03199094166001600160801b039093169290921792909217929092161790555050505050565b6003820154600090614cff908490600160c01b90046001600160401b0316614d66565b9050614d0d82826002614da1565b611ccb83826002614da1565b60006001826002811115614d2f57614d2f6150d3565b03614d3c57614d3c615a53565b6000826002811115614d5057614d506150d3565b14614d5e57826009016102df565b505060080190565b6003820154600090614d89908390600160401b90046001600160401b03166153f3565b60038401546102df91906001600160401b0316615a40565b60018301546001600160401b0380821691600160401b90041660005b8381108015614dd5575081614dd3846001615a40565b105b8015614e0e575084866000614deb866001615a40565b8152602081019190915260400160002054600160801b90046001600160401b0316105b15614e3d57600083815260208790526040812055614e2b8361545a565b9250614e368161545a565b9050614dbd565b614e4683610fc0565b600196909601805467ffffffffffffffff19166001600160401b03909716969096179095555050505050565b508054614e7e9061532f565b6000825580601f10614e8e575050565b601f01602090049060005260206000209081019061029d91905b808211156110285760008155600101614ea8565b6001600160a01b038116811461029d57600080fd5b60008060408385031215614ee457600080fd5b8235614eef81614ebc565b946020939093013593505050565b60008060408385031215614f1057600080fd5b82356001600160401b03811115614f2657600080fd5b83016102a08186031215614f3957600080fd5b91506020830135614f4981614ebc565b809150509250929050565b80356001600160401b0381168114612f9b57600080fd5b634e487b7160e01b600052604160045260246000fd5b604051601f8201601f191681016001600160401b0381118282101715614fa957614fa9614f6b565b604052919050565b60006001600160401b03821115614fca57614fca614f6b565b50601f01601f191660200190565b60008060408385031215614feb57600080fd5b614ff483614f54565b915060208301356001600160401b0381111561500f57600080fd5b8301601f8101851361502057600080fd5b803561503361502e82614fb1565b614f81565b81815286602083850101111561504857600080fd5b816020840160208301376000602083830101528093505050509250929050565b60006020828403121561507a57600080fd5b81356102df81614ebc565b60006020828403121561509757600080fd5b5035919050565b600080604083850312156150b157600080fd5b82356150bc81614ebc565b91506150ca60208401614f54565b90509250929050565b634e487b7160e01b600052602160045260246000fd5b634e487b7160e01b600052601260045260246000fd5b634e487b7160e01b600052601160045260246000fd5b600082615124576151246150e9565b500490565b60005b8381101561514457818101518382015260200161512c565b50506000910152565b60006020828403121561515f57600080fd5b81516001600160401b0381111561517557600080fd5b8201601f8101841361518657600080fd5b805161519461502e82614fb1565b8181528560208385010111156151a957600080fd5b610f82826020830160208601615129565b6000602082840312156151cc57600080fd5b5051919050565b6001600160401b038281168282160390808211156151f3576151f36150ff565b5092915050565b60008151808452615212816020860160208601615129565b601f01601f19169290920160200192915050565b6020815260006102df60208301846151fa565b801515811461029d57600080fd5b60006020828403121561525957600080fd5b81516102df81615239565b60208082526022908201527f6e6f7420656e6f75676820617661696c61626c65206f6e20636f7265207661756040820152611b1d60f21b606082015260800190565b6001600160401b038181168382160280821691908281146152c9576152c96150ff565b505092915050565b6060815260006152e460608301866151fa565b6001600160801b0394909416602083015250901515604090910152919050565b60408152600061531760408301856151fa565b90506001600160801b03831660208301529392505050565b600181811c9082168061534357607f821691505b6020821081036104bc57634e487b7160e01b600052602260045260246000fd5b600081546153708161532f565b80855260206001838116801561538d57600181146153a7576153d5565b60ff1985168884015283151560051b8801830195506153d5565b866000528260002060005b858110156153cd5781548a82018601529083019084016153b2565b890184019650505b505050505092915050565b6020815260006102df6020830184615363565b808202811582820484141761157c5761157c6150ff565b6001600160401b038181168382160190808211156151f3576151f36150ff565b6060815260006152e46060830186615363565b60006020828403121561544f57600080fd5b81516102df81614ebc565b60006001820161546c5761546c6150ff565b5060010190565b601f821115611ccb576000816000526020600020601f850160051c8101602086101561549c5750805b601f850160051c820191505b81811015611e3e578281556001016154a8565b81516001600160401b038111156154d4576154d4614f6b565b6154e8816154e2845461532f565b84615473565b602080601f83116001811461551d57600084156155055750858301515b600019600386901b1c1916600185901b178555611e3e565b600085815260208120601f198616915b8281101561554c5788860151825594840194600190910190840161552d565b508582101561556a5787850151600019600388901b60f8161c191681555b5050505050600190811b01905550565b803560ff81168114612f9b57600080fd5b60006020828403121561559d57600080fd5b6102df8261557a565b60006001600160401b03808416806155c0576155c06150e9565b92169190910692915050565b600f81810b9083900b016f7fffffffffffffffffffffffffffffff81136f7fffffffffffffffffffffffffffffff198212171561157c5761157c6150ff565b60006001600160401b0380841680615625576156256150e9565b92169190910492915050565b60208082526027908201527f53616665436173743a2076616c756520646f65736e27742066697420696e20316040820152663238206269747360c81b606082015260800190565b634e487b7160e01b600052603260045260246000fd5b600181815b808511156156c95781600019048211156156af576156af6150ff565b808516156156bc57918102915b93841c9390800290615693565b509250929050565b6000826156e05750600161157c565b816156ed5750600061157c565b8160018114615703576002811461570d57615729565b600191505061157c565b60ff84111561571e5761571e6150ff565b50506001821b61157c565b5060208310610133831016604e8410600b841016171561574c575081810a61157c565b615756838361568e565b806000190482111561576a5761576a6150ff565b029392505050565b60006102df83836156d1565b8181038181111561157c5761157c6150ff565b60006101208083526157a58184018d6151fa565b6001600160801b039b8c16602085015299909a166040830152506001600160401b03968716606082015294861660808601529290941660a084015260c08301526001600160a01b0390921660e0820152610100015292915050565b8035612f9b81615239565b803582526020810135602083015261582560408201614f54565b6001600160401b0380821660408501528061584260608501614f54565b16606085015250506080810135608083015260a081013560a083015260c081013560c083015261588860e0830161587b60e08401614f54565b6001600160401b03169052565b610100615896818301614f54565b6001600160401b03169083015261012081810135908301526101408082013590830152610160808201359083015261018080820135908301526101a080820135908301526101c080820135908301526101e0808201359083015261020080820135908301526102208082013590830152610240615914818301615800565b15159083015261026061592882820161557a565b60ff811684830152612cc4565b6020815260008235601e1984360301811261594f57600080fd5b83016020810190356001600160401b0381111561596b57600080fd5b8060051b80360383131561597e57600080fd5b6102a060208601526102c085018290526102e06001600160fb1b038311156159a557600080fd5b8184828801376159bb604087016020890161580b565b9401909301949350505050565b6000602082840312156159da57600080fd5b6102df82614f54565b6000602082840312156159f557600080fd5b81516001600160801b03811681146102df57600080fd5b6001600160801b038181168382160190808211156151f3576151f36150ff565b600082615a3b57615a3b6150e9565b500690565b8082018082111561157c5761157c6150ff565b634e487b7160e01b600052600160045260246000fd5b60006001600160401b03808316818103615a8557615a856150ff565b6001019392505050565b600080600060608486031215615aa457600080fd5b835192506020840151915060408401519050925092509256fe4f24f5c433db0962dac0d2c8b84197a6e6c7cc4e5d9ebe1916a1b6193da2f33aec7e8c1c441439dd40959777f4c577ea0cd42fcc1dbe59d2bd0f5d9c55df8db6908500188c8f91f50d58dffac83eda18fc06d9da0208fc6b66c78a4c3fec74f20cd2207518cd3e5213e2c6dbe63d55b60aa893c194a427b7d7f1600408fd5bdea2646970667358221220667d8b1fdc9f4c6c6033988cc7ade0c3c710a274896b6cf3f6969df65541e6d364736f6c63430008170033",
  "linkReferences": {},
  "deployedLinkReferences": {}
}