{
  "_format": "hh-sol-artifact-1",
  "contractName": "CoreVaultFacet",
  "sourceName": "contracts/assetManager/facets/CoreVaultFacet.sol",
  "abi": [
    {
      "inputs": [],
      "stateMutability": "nonpayable",
      "type": "constructor"
    },
    {
      "anonymous": false,
      "inputs": [
        {
          "indexed": true,
          "internalType": "address",
          "name": "redeemer",
          "type": "address"
        },
        {
          "indexed": false,
          "internalType": "string",
          "name": "paymentAddress",
          "type": "string"
        },
        {
          "indexed": false,
          "internalType": "uint256",
          "name": "valueUBA",
          "type": "uint256"
        }
      ],
      "name": "CoreVaultRedemptionRequested",
      "type": "event"
    },
    {
      "anonymous": false,
      "inputs": [
        {
          "indexed": true,
          "internalType": "address",
          "name": "agentVault",
          "type": "address"
        },
        {
          "indexed": false,
          "internalType": "uint256",
          "name": "dustUBA",
          "type": "uint256"
        }
      ],
      "name": "DustChanged",
      "type": "event"
    },
    {
      "anonymous": false,
      "inputs": [
        {
          "indexed": true,
          "internalType": "address",
          "name": "agentVault",
          "type": "address"
        },
        {
          "indexed": true,
          "internalType": "address",
          "name": "redeemer",
          "type": "address"
        },
        {
          "indexed": true,
          "internalType": "uint256",
          "name": "requestId",
          "type": "uint256"
        },
        {
          "indexed": false,
          "internalType": "string",
          "name": "paymentAddress",
          "type": "string"
        },
        {
          "indexed": false,
          "internalType": "uint256",
          "name": "valueUBA",
          "type": "uint256"
        },
        {
          "indexed": false,
          "internalType": "uint256",
          "name": "feeUBA",
          "type": "uint256"
        },
        {
          "indexed": false,
          "internalType": "uint256",
          "name": "firstUnderlyingBlock",
          "type": "uint256"
        },
        {
          "indexed": false,
          "internalType": "uint256",
          "name": "lastUnderlyingBlock",
          "type": "uint256"
        },
        {
          "indexed": false,
          "internalType": "uint256",
          "name": "lastUnderlyingTimestamp",
          "type": "uint256"
        },
        {
          "indexed": false,
          "internalType": "bytes32",
          "name": "paymentReference",
          "type": "bytes32"
        },
        {
          "indexed": false,
          "internalType": "address",
          "name": "executor",
          "type": "address"
        },
        {
          "indexed": false,
          "internalType": "uint256",
          "name": "executorFeeNatWei",
          "type": "uint256"
        }
      ],
      "name": "RedemptionRequested",
      "type": "event"
    },
    {
      "anonymous": false,
      "inputs": [
        {
          "indexed": true,
          "internalType": "address",
          "name": "agentVault",
          "type": "address"
        },
        {
          "indexed": true,
          "internalType": "uint256",
          "name": "redemptionTicketId",
          "type": "uint256"
        },
        {
          "indexed": false,
          "internalType": "uint256",
          "name": "ticketValueUBA",
          "type": "uint256"
        }
      ],
      "name": "RedemptionTicketCreated",
      "type": "event"
    },
    {
      "anonymous": false,
      "inputs": [
        {
          "indexed": true,
          "internalType": "address",
          "name": "agentVault",
          "type": "address"
        },
        {
          "indexed": true,
          "internalType": "uint256",
          "name": "redemptionTicketId",
          "type": "uint256"
        }
      ],
      "name": "RedemptionTicketDeleted",
      "type": "event"
    },
    {
      "anonymous": false,
      "inputs": [
        {
          "indexed": true,
          "internalType": "address",
          "name": "agentVault",
          "type": "address"
        },
        {
          "indexed": true,
          "internalType": "uint256",
          "name": "redemptionTicketId",
          "type": "uint256"
        },
        {
          "indexed": false,
          "internalType": "uint256",
          "name": "ticketValueUBA",
          "type": "uint256"
        }
      ],
      "name": "RedemptionTicketUpdated",
      "type": "event"
    },
    {
      "anonymous": false,
      "inputs": [
        {
          "indexed": true,
          "internalType": "address",
          "name": "agentVault",
          "type": "address"
        },
        {
          "indexed": true,
          "internalType": "uint256",
          "name": "requestId",
          "type": "uint256"
        }
      ],
      "name": "ReturnFromCoreVaultCancelled",
      "type": "event"
    },
    {
      "anonymous": false,
      "inputs": [
        {
          "indexed": true,
          "internalType": "address",
          "name": "agentVault",
          "type": "address"
        },
        {
          "indexed": true,
          "internalType": "uint256",
          "name": "requestId",
          "type": "uint256"
        },
        {
          "indexed": false,
          "internalType": "uint256",
          "name": "receivedUnderlyingUBA",
          "type": "uint256"
        },
        {
          "indexed": false,
          "internalType": "uint256",
          "name": "remintedUBA",
          "type": "uint256"
        }
      ],
      "name": "ReturnFromCoreVaultConfirmed",
      "type": "event"
    },
    {
      "anonymous": false,
      "inputs": [
        {
          "indexed": true,
          "internalType": "address",
          "name": "agentVault",
          "type": "address"
        },
        {
          "indexed": true,
          "internalType": "uint256",
          "name": "requestId",
          "type": "uint256"
        },
        {
          "indexed": false,
          "internalType": "bytes32",
          "name": "paymentReference",
          "type": "bytes32"
        },
        {
          "indexed": false,
          "internalType": "uint256",
          "name": "valueUBA",
          "type": "uint256"
        }
      ],
      "name": "ReturnFromCoreVaultRequested",
      "type": "event"
    },
    {
      "anonymous": false,
      "inputs": [
        {
          "indexed": true,
          "internalType": "address",
          "name": "agentVault",
          "type": "address"
        },
        {
          "indexed": true,
          "internalType": "uint256",
          "name": "transferRedemptionRequestId",
          "type": "uint256"
        }
      ],
      "name": "TransferToCoreVaultCancelled",
      "type": "event"
    },
    {
      "anonymous": false,
      "inputs": [
        {
          "indexed": true,
          "internalType": "address",
          "name": "agentVault",
          "type": "address"
        },
        {
          "indexed": true,
          "internalType": "uint256",
          "name": "transferRedemptionRequestId",
          "type": "uint256"
        },
        {
          "indexed": false,
          "internalType": "uint256",
          "name": "valueUBA",
          "type": "uint256"
        }
      ],
      "name": "TransferToCoreVaultStarted",
      "type": "event"
    },
    {
      "anonymous": false,
      "inputs": [
        {
          "indexed": true,
          "internalType": "address",
          "name": "agentVault",
          "type": "address"
        },
        {
          "indexed": true,
          "internalType": "uint256",
          "name": "transferRedemptionRequestId",
          "type": "uint256"
        },
        {
          "indexed": false,
          "internalType": "uint256",
          "name": "valueUBA",
          "type": "uint256"
        }
      ],
      "name": "TransferToCoreVaultSuccessful",
      "type": "event"
    },
    {
      "anonymous": false,
      "inputs": [
        {
          "indexed": true,
          "internalType": "address",
          "name": "agentVault",
          "type": "address"
        },
        {
          "indexed": false,
          "internalType": "int256",
          "name": "underlyingBalanceUBA",
          "type": "int256"
        }
      ],
      "name": "UnderlyingBalanceChanged",
      "type": "event"
    },
    {
      "inputs": [
        {
          "internalType": "address",
          "name": "_agentVault",
          "type": "address"
        }
      ],
      "name": "cancelReturnFromCoreVault",
      "outputs": [],
      "stateMutability": "nonpayable",
      "type": "function"
    },
    {
      "inputs": [
        {
          "internalType": "address",
          "name": "_agentVault",
          "type": "address"
        }
      ],
      "name": "cancelTransferToCoreVault",
      "outputs": [],
      "stateMutability": "nonpayable",
      "type": "function"
    },
    {
      "inputs": [
        {
          "components": [
            {
              "internalType": "bytes32[]",
              "name": "merkleProof",
              "type": "bytes32[]"
            },
            {
              "components": [
                {
                  "internalType": "bytes32",
                  "name": "attestationType",
                  "type": "bytes32"
                },
                {
                  "internalType": "bytes32",
                  "name": "sourceId",
                  "type": "bytes32"
                },
                {
                  "internalType": "uint64",
                  "name": "votingRound",
                  "type": "uint64"
                },
                {
                  "internalType": "uint64",
                  "name": "lowestUsedTimestamp",
                  "type": "uint64"
                },
                {
                  "components": [
                    {
                      "internalType": "bytes32",
                      "name": "transactionId",
                      "type": "bytes32"
                    },
                    {
                      "internalType": "uint256",
                      "name": "inUtxo",
                      "type": "uint256"
                    },
                    {
                      "internalType": "uint256",
                      "name": "utxo",
                      "type": "uint256"
                    }
                  ],
                  "internalType": "struct IPayment.RequestBody",
                  "name": "requestBody",
                  "type": "tuple"
                },
                {
                  "components": [
                    {
                      "internalType": "uint64",
                      "name": "blockNumber",
                      "type": "uint64"
                    },
                    {
                      "internalType": "uint64",
                      "name": "blockTimestamp",
                      "type": "uint64"
                    },
                    {
                      "internalType": "bytes32",
                      "name": "sourceAddressHash",
                      "type": "bytes32"
                    },
                    {
                      "internalType": "bytes32",
                      "name": "sourceAddressesRoot",
                      "type": "bytes32"
                    },
                    {
                      "internalType": "bytes32",
                      "name": "receivingAddressHash",
                      "type": "bytes32"
                    },
                    {
                      "internalType": "bytes32",
                      "name": "intendedReceivingAddressHash",
                      "type": "bytes32"
                    },
                    {
                      "internalType": "int256",
                      "name": "spentAmount",
                      "type": "int256"
                    },
                    {
                      "internalType": "int256",
                      "name": "intendedSpentAmount",
                      "type": "int256"
                    },
                    {
                      "internalType": "int256",
                      "name": "receivedAmount",
                      "type": "int256"
                    },
                    {
                      "internalType": "int256",
                      "name": "intendedReceivedAmount",
                      "type": "int256"
                    },
                    {
                      "internalType": "bytes32",
                      "name": "standardPaymentReference",
                      "type": "bytes32"
                    },
                    {
                      "internalType": "bool",
                      "name": "oneToOne",
                      "type": "bool"
                    },
                    {
                      "internalType": "uint8",
                      "name": "status",
                      "type": "uint8"
                    }
                  ],
                  "internalType": "struct IPayment.ResponseBody",
                  "name": "responseBody",
                  "type": "tuple"
                }
              ],
              "internalType": "struct IPayment.Response",
              "name": "data",
              "type": "tuple"
            }
          ],
          "internalType": "struct IPayment.Proof",
          "name": "_payment",
          "type": "tuple"
        },
        {
          "internalType": "address",
          "name": "_agentVault",
          "type": "address"
        }
      ],
      "name": "confirmReturnFromCoreVault",
      "outputs": [],
      "stateMutability": "nonpayable",
      "type": "function"
    },
    {
      "inputs": [
        {
          "internalType": "address",
          "name": "_agentVault",
          "type": "address"
        }
      ],
      "name": "maximumTransferToCoreVault",
      "outputs": [
        {
          "internalType": "uint256",
          "name": "_maximumTransferUBA",
          "type": "uint256"
        },
        {
          "internalType": "uint256",
          "name": "_minimumLeftAmountUBA",
          "type": "uint256"
        }
      ],
      "stateMutability": "view",
      "type": "function"
    },
    {
      "inputs": [
        {
          "internalType": "uint64",
          "name": "_lots",
          "type": "uint64"
        },
        {
          "internalType": "string",
          "name": "_redeemerUnderlyingAddress",
          "type": "string"
        }
      ],
      "name": "redeemFromCoreVault",
      "outputs": [],
      "stateMutability": "nonpayable",
      "type": "function"
    },
    {
      "inputs": [
        {
          "internalType": "address",
          "name": "_agentVault",
          "type": "address"
        },
        {
          "internalType": "uint64",
          "name": "_lots",
          "type": "uint64"
        }
      ],
      "name": "requestReturnFromCoreVault",
      "outputs": [],
      "stateMutability": "nonpayable",
      "type": "function"
    },
    {
      "inputs": [
        {
          "internalType": "address",
          "name": "_agentVault",
          "type": "address"
        },
        {
          "internalType": "uint256",
          "name": "_amountUBA",
          "type": "uint256"
        }
      ],
      "name": "transferToCoreVault",
      "outputs": [],
      "stateMutability": "payable",
      "type": "function"
    },
    {
      "inputs": [
        {
          "internalType": "uint256",
          "name": "_amountUBA",
          "type": "uint256"
        }
      ],
      "name": "transferToCoreVaultFee",
      "outputs": [
        {
          "internalType": "uint256",
          "name": "_transferFeeNatWei",
          "type": "uint256"
        }
      ],
      "stateMutability": "view",
      "type": "function"
    }
  ],
  "bytecode": "0x608060405234801561001057600080fd5b507f908500188c8f91f50d58dffac83eda18fc06d9da0208fc6b66c78a4c3fec74f4805460ff60401b191668010000000000000000179055615d8780620000586000396000f3fe60806040526004361061007b5760003560e01c8063b35c1dbc1161004e578063b35c1dbc146100f5578063bfbf712114610115578063cfffc00614610148578063df10b5ea1461017d57600080fd5b80636286592e14610080578063687fea7114610095578063768d0e96146100b55780639b70be1f146100d5575b600080fd5b61009361008e3660046150de565b61019d565b005b3480156100a157600080fd5b506100936100b036600461510a565b6101f1565b3480156100c157600080fd5b506100936100d03660046151e5565b610233565b3480156100e157600080fd5b506100936100f0366004615275565b61025c565b34801561010157600080fd5b50610093610110366004615275565b6102a0565b34801561012157600080fd5b50610135610130366004615292565b6102c8565b6040519081526020015b60405180910390f35b34801561015457600080fd5b50610168610163366004615275565b6102e6565b6040805192835260208301919091520161013f565b34801561018957600080fd5b506100936101983660046152ab565b61032f565b6101a5610358565b816101af816103c4565b60006101ba8461041b565b905060006101c7846104c2565b90506101d3828261051a565b5050506101ed6001600080516020615d3283398151915255565b5050565b6101f9610358565b80610203816103c4565b600061020e8361041b565b905061021a8482610801565b50506101ed6001600080516020615d3283398151915255565b61023b610358565b6102458282610b04565b6101ed6001600080516020615d3283398151915255565b610264610358565b8061026e816103c4565b60006102798361041b565b905061028481610db2565b505061029d6001600080516020615d3283398151915255565b50565b6102a8610358565b806102b2816103c4565b60006102bd8361041b565b905061028481610ee5565b6000806102d4836104c2565b90506102df81610fb6565b9392505050565b60008060006102f48461041b565b905060008061030283611016565b915091506103176103128361104b565b6110b7565b94506103256103128261104b565b9350505050915091565b610337610358565b81610341816103c4565b600061034c8461041b565b905061021a818461110a565b600080516020615d328339815191528054600119016103be5760405162461bcd60e51b815260206004820152601f60248201527f5265656e7472616e637947756172643a207265656e7472616e742063616c6c0060448201526064015b60405180910390fd5b60029055565b6103d66103d08261041b565b33611615565b61029d5760405162461bcd60e51b815260206004820152601660248201527537b7363c9030b3b2b73a103b30bab63a1037bbb732b960511b60448201526064016103b5565b7f5bebac0595fee029d42bb673937f5f1cb81cf8641382bc17774635de9b7d796568010000000000000000600160e01b03604083901b161880600060048084015460ff169081111561046f5761046f6152e0565b036104bc5760405162461bcd60e51b815260206004820152601b60248201527f696e76616c6964206167656e74207661756c742061646472657373000000000060448201526064016103b5565b50919050565b7f4f24f5c433db0962dac0d2c8b84197a6e6c7cc4e5d9ebe1916a1b6193da2f34654600090600080516020615cd2833981519152906102df9061051590600160901b90046001600160401b031685615322565b61104b565b6105226116e9565b600080516020615d12833981519152600061053c84611748565b600c85015490915064010000000090046001600160401b0316156105a25760405162461bcd60e51b815260206004820152601760248201527f7472616e7366657220616c72656164792061637469766500000000000000000060448201526064016103b5565b60006105b18585600080611770565b50905060006105bf82610fb6565b9050803410156106115760405162461bcd60e51b815260206004820152601e60248201527f7472616e7366657220666565207061796d656e7420746f6f20736d616c6c000060448201526064016103b5565b600061061c87611016565b50905080836001600160401b031611156106875760405162461bcd60e51b815260206004820152602660248201527f746f6f206c6974746c65206d696e74696e67206c65667420616674657220747260448201526530b739b332b960d11b60648201526084016103b5565b845460408051633d083bf560e11b815290516000926001600160a01b031691637a1077ea91600480830192869291908290030181865afa1580156106cf573d6000803e3d6000fd5b505050506040513d6000823e601f3d908101601f191682016040526106f7919081019061535a565b9050600061075760405180604001604052806107128c611748565b6001600160a01b03168152602001876001600160401b03168152508860010160009054906101000a90046001600160a01b03168460008060006305f5e10060016118e8565b600c8a0180546bffffffffffffffff0000000019166401000000006001600160401b03841602179055600188015490915061079b906001600160a01b031634611d90565b60006107a6866110b7565b9050816001600160401b0316876001600160a01b03167f7720ffc529ed13201c71ca65a93771ecb026d4a7ea1a557116dfac60fafd9fb6836040516107ed91815260200190565b60405180910390a350505050505050505050565b6108096116e9565b600080516020615d1283398151915261082183611e3e565b600c820154600160601b90046001600160401b031660008190036108825760405162461bcd60e51b81526020600482015260186024820152771b9bc81858dd1a5d99481c995d1d5c9b881c995c5d595cdd60421b60448201526064016103b5565b81546040805163c9febdf560e01b815290516001600160a01b039092169163c9febdf5916004808201926020929091908290030181865afa1580156108cb573d6000803e3d6000fd5b505050506040513d601f19601f820116820180604052508101906108ef91906153c7565b610140850135146109425760405162461bcd60e51b815260206004820152601b60248201527f7061796d656e74206e6f742066726f6d20636f7265207661756c74000000000060448201526064016103b5565b60038301546101808501351461099a5760405162461bcd60e51b815260206004820152601e60248201527f7061796d656e74206e6f7420746f206167656e7427732061646472657373000060448201526064016103b5565b67119094149990400160c21b6001600160401b0382161761024085013514610a045760405162461bcd60e51b815260206004820152601960248201527f696e76616c6964207061796d656e74207265666572656e63650000000000000060448201526064016103b5565b610a2e7fec7e8c1c441439dd40959777f4c577ea0cd42fcc1dbe59d2bd0f5d9c55df8dc185611e9c565b6000610a3e610200860135611eaa565b90506000610a4b826104c2565b90506000610a7086600c0160149054906101000a90046001600160401b031683611efc565b9050610a7c8682611f25565b610a868684611fb4565b610a8f86612066565b6000610a9a826110b7565b9050846001600160401b0316610aaf88611748565b6001600160a01b03167ff31c790716bd513f9122b4d1e80f9fce17cd414160d32271088b0c6b2af33e258684604051610af2929190918252602082015260400190565b60405180910390a35050505050505050565b610b0c6116e9565b600080516020615d128339815191528054604051632b656fef60e01b81526001600160a01b0390911690632b656fef90610b4a90859060040161540c565b602060405180830381865afa158015610b67573d6000803e3d6000fd5b505050506040513d601f19601f82011682018060405250810190610b8b919061542d565b610bec5760405162461bcd60e51b815260206004820152602c60248201527f756e6465726c79696e672061646472657373206e6f7420616c6c6f776564206260448201526b1e4818dbdc99481d985d5b1d60a21b60648201526084016103b5565b600080516020615cd28339815191526000610c05612117565b9050806001600160401b0316856001600160401b03161115610c395760405162461bcd60e51b81526004016103b59061544a565b6002830154600090610c54906001600160401b031683611efc565b9050806001600160401b0316866001600160401b03161015610cb85760405162461bcd60e51b815260206004820152601a60248201527f72657175657374656420616d6f756e7420746f6f20736d616c6c00000000000060448201526064016103b5565b600d830154600090610cd3906001600160401b03168861548c565b90506000610ce8610ce3836110b7565b61215b565b9050610cfd33826001600160801b0316612184565b8554604051631700b8c760e31b81526001600160a01b039091169063b805c63890610d33908a90600090869082906004016154b7565b600060405180830381600087803b158015610d4d57600080fd5b505af1158015610d61573d6000803e3d6000fd5b50505050336001600160a01b03167fddadb43586bd6be298cbe938278f7d92143a6ea4ea385151d715c8ee6c9be8a68883604051610da09291906154f1565b60405180910390a25050505050505050565b610dba6116e9565b600c810154600080516020615d1283398151915290600160601b90046001600160401b03166000819003610e2b5760405162461bcd60e51b81526020600482015260186024820152771b9bc81858dd1a5d99481c995d1d5c9b881c995c5d595cdd60421b60448201526064016103b5565b815460405163a903532560e01b81526001600160a01b039091169063a903532590610e5d9060028701906004016155cd565b600060405180830381600087803b158015610e7757600080fd5b505af1158015610e8b573d6000803e3d6000fd5b50505050610e9883612066565b806001600160401b0316610eab84611748565b6001600160a01b03167f89413196dc66c2fb1b91c291e94b73b766a03f31219603ff31ef497ef202e93460405160405180910390a3505050565b610eed6116e9565b600c81015464010000000090046001600160401b03166000819003610f495760405162461bcd60e51b815260206004820152601260248201527137379030b1ba34bb32903a3930b739b332b960711b60448201526064016103b5565b6000610f548261220f565b9050610f6083826122eb565b610f698261233e565b816001600160401b0316610f7c84611748565b6001600160a01b03167f80e3328d3e80dc4c7a8259e0419de49f0fc771a09a0ce0c1a0475afe2499371c60405160405180910390a3505050565b6000600080516020615d1283398151915281610fd8610fd3612402565b612463565b90506000610fef856001600160401b031683612479565b600184015490915061100d908290600160a01b900461ffff16612493565b95945050505050565b600080611022836124a2565b600584015490915061104490600160401b90046001600160401b031682612503565b9150915091565b60006001600160401b038211156110b35760405162461bcd60e51b815260206004820152602660248201527f53616665436173743a2076616c756520646f65736e27742066697420696e203660448201526534206269747360d01b60648201526084016103b5565b5090565b7f4f24f5c433db0962dac0d2c8b84197a6e6c7cc4e5d9ebe1916a1b6193da2f34654600090600080516020615cd2833981519152906102df90600160901b90046001600160401b039081169085166155e0565b6111126116e9565b600080516020615d128339815191528054604051632b656fef60e01b81526001600160a01b0390911690632b656fef906111539060028701906004016155cd565b602060405180830381865afa158015611170573d6000803e3d6000fd5b505050506040513d601f19601f82011682018060405250810190611194919061542d565b6111fd5760405162461bcd60e51b815260206004820152603460248201527f6167656e74277320756e6465726c79696e672061646472657373206e6f7420616044820152731b1b1bddd95908189e4818dbdc99481d985d5b1d60621b60648201526084016103b5565b600c830154600160601b90046001600160401b0316156112705760405162461bcd60e51b815260206004820152602860248201527f72657475726e2066726f6d20636f7265207661756c7420616c72656164792072604482015267195c5d595cdd195960c21b60648201526084016103b5565b600061127b8461251d565b90506000836001600160401b0316116112cd5760405162461bcd60e51b815260206004820152601460248201527363616e6e6f742072657475726e2030206c6f747360601b60448201526064016103b5565b600160048086015460ff16908111156112e8576112e86152e0565b1461132c5760405162461bcd60e51b8152602060048201526014602482015273696e76616c6964206167656e742073746174757360601b60448201526064016103b5565b6001600160401b03831661134082866125c7565b101561138e5760405162461bcd60e51b815260206004820152601a60248201527f6e6f7420656e6f756768206672656520636f6c6c61746572616c00000000000060448201526064016103b5565b6000611398612117565b9050806001600160401b0316846001600160401b031611156113cc5760405162461bcd60e51b81526004016103b59061544a565b6113d46125fc565b6002840180546009906113f8908490600160481b90046001600160401b03166155f7565b82546101009290920a6001600160401b038181021990931691831602179091556002850154600c8801805467ffffffffffffffff60601b1916600160481b9092048316600160601b81029290921790819055909250600160a01b900416156114625761146261561e565b7f4f24f5c433db0962dac0d2c8b84197a6e6c7cc4e5d9ebe1916a1b6193da2f3475460009061149a906001600160401b03168761548c565b600c880180546001600160401b03808416600160a01b0267ffffffffffffffff60a01b1990921691909117909155600589018054929350839290916000916114e4918591166155f7565b92506101000a8154816001600160401b0302191690836001600160401b031602179055506000611527836001600160401b031667119094149990400160c21b1790565b90506000611537610ce3846110b7565b8754604051631700b8c760e31b81529192506001600160a01b03169063b805c638906115719060028d019086908690600190600401615634565b600060405180830381600087803b15801561158b57600080fd5b505af115801561159f573d6000803e3d6000fd5b50505050836001600160401b03166115b68a611748565b6001600160a01b03167fbeb006f5c72be7811ac8a5314277e6fab21e6a2737d4119694735e810899079184846040516116029291909182526001600160801b0316602082015260400190565b60405180910390a3505050505050505050565b60018201546000906001600160a01b039081169083168114806116df57507f4f24f5c433db0962dac0d2c8b84197a6e6c7cc4e5d9ebe1916a1b6193da2f341546001600160a01b0316604051631f86345d60e31b81526001600160a01b038381166004830152919091169063fc31a2e890602401602060405180830381865afa1580156116a6573d6000803e3d6000fd5b505050506040513d601f19601f820116820180604052508101906116ca9190615647565b6001600160a01b0316836001600160a01b0316145b9150505b92915050565b600080516020615d1283398151915280546001600160a01b031661029d5760405162461bcd60e51b815260206004820152601660248201527518dbdc99481d985d5b1d081b9bdd08195b98589b195960521b60448201526064016103b5565b7f5bebac0595fee029d42bb673937f5f1cb81cf8641382bc17774635de9b7d79651860401c90565b600080600080516020615cf2833981519152836117bb5760068701546117a09087906001600160401b0316611efc565b92506001600160401b038316156117bb576117bb878461261a565b7f4f24f5c433db0962dac0d2c8b84197a6e6c7cc4e5d9ebe1916a1b6193da2f34954600160801b900461ffff1660005b818110801561180b5750876001600160401b0316856001600160401b0316105b156118c157600060088401816118208c611748565b6001600160a01b0316815260208101919091526040016000908120546001600160401b0316915081900361185457506118c1565b6001600160401b038116600090815260078501602052604081209061189361187c898d615664565b8354600160a01b90046001600160401b0316611efc565b905061189f838261266b565b6118a981896155f7565b975050505080806118b990615684565b9150506117eb565b506118cb846110b7565b925085156118dd576118dd8885612863565b505094509492505050565b8751600090600080516020615cf28339815191529082906119089061041b565b895160208b012060038201549192509081036119665760405162461bcd60e51b815260206004820181905260248201527f63616e6e6f742072656465656d20746f206167656e742773206164647265737360448201526064016103b5565b6000611978610ce38e602001516110b7565b90506119838a6128fc565b9450611a1d6040805161026081018252600080825260208201819052918101829052606081018290526080810182905260a0810182905260c0810182905260e08101829052610100810182905261012081018290529061014082019081526000602082018190526040820181905260608083018290526080830182905260a0830182905260c083015260e082018190526101009091015290565b8281526001600160801b0382166020820152600f8501546201000090046001600160401b031660608201528d51611a549089612991565b6001600160401b0390811660a0840152166080820152611a734261104b565b6001600160401b031661010082015286611ac057611abb610ce3600080516020615cd2833981519152600e01546001600160801b03851690600160401b900461ffff16612493565b611ac3565b60005b6001600160801b031660408201526001600160a01b038d811660e08301528e511661012082015260208e01516001600160401b031660c082015260016101408201819052508a15156101608201526001600160a01b038a81166101808301526001600160401b038a81166101a084015261020083018e9052881515610220840152600c860154600160e01b900461ffff166102408401528781166000908152600a880160209081526040918290208551815590850151918501516001600160801b03928316600160801b918416820217600183015560608601516002808401805460808a015160a08b015160c08c0151958a166001600160801b031990931692909217600160401b918a1691909102179096169587169093026001600160c01b031694909417600160c01b9186169190910217905560e08501516003820180546101008801519287166001600160e01b031990911617600160a01b929095168202949094179093556101208501516004820180546001600160a01b0319811692909616918217815561014087015187969395909491936001600160a81b03191690921791908490811115611c7957611c796152e0565b021790555061016082015160048201805460ff60a81b1916600160a81b921515929092029190911790556101808201516005820180546101a08501516001600160a01b039093166001600160e01b031990911617600160a01b6001600160401b03938416021790556101c08301516006830180546101e08601519284166001600160801b031990911617600160401b92909316919091029190911790556102008201516007820190611d2b90826156e5565b50610220820151600890910180546102409093015161ffff166101000262ffff00199215159290921662ffffff199093169290921717905560208e0151611d749085908d612aac565b611d7f81878e612b50565b505050505098975050505050505050565b611d98612c15565b80156101ed576000826001600160a01b031682620186a090604051600060405180830381858888f193505050503d8060008114611df1576040519150601f19603f3d011682016040523d82523d6000602084013e611df6565b606091505b5050905080611e395760405162461bcd60e51b815260206004820152600f60248201526e1d1c985b9cd9995c8819985a5b1959608a1b60448201526064016103b5565b505050565b6000611e526102a0830161028084016157b5565b60ff1614611e935760405162461bcd60e51b815260206004820152600e60248201526d1c185e5b595b9d0819985a5b195960921b60448201526064016103b5565b61029d81612c76565b6101ed8260a0830135612e3e565b6000808212156110b35760405162461bcd60e51b815260206004820181905260248201527f53616665436173743a2076616c7565206d75737420626520706f73697469766560448201526064016103b5565b6000816001600160401b0316836001600160401b03161115611f1e57816102df565b5090919050565b6006820154600080516020615cd283398151915290600090611f519084906001600160401b03166155f7565b600d830154909150600090611f6f906001600160401b0316836157d0565b90506000611f7d8284615664565b9050611f898686612f07565b6001600160401b03811615611fa257611fa28682612f27565b611fac86836130a2565b505050505050565b611fc5611fc082613138565b6131a2565b600683018054600890611fe3908490600160401b9004600f0b6157f6565b92506101000a8154816001600160801b030219169083600f0b6001600160801b0316021790555061201382611748565b6006830154604051600160401b909104600f0b81526001600160a01b0391909116907f73da6891cb86668451f612d2555e88650888a0133a30b1d226b2d1f955e62bca9060200160405180910390a25050565b600c810154600160601b90046001600160401b03161580159061209c5750600c810154600160a01b90046001600160401b031615155b6120a8576120a861561e565b600c8101546005820180546001600160401b03600160a01b9093048316926000916120d591859116615664565b82546001600160401b039182166101009390930a928302919092021990911617905550600c0180546fffffffffffffffffffffffffffffffff60601b19169055565b6000600080516020615cd2833981519152816121396121346131cb565b6104c2565b600d830154909150612154906001600160401b031682615835565b9250505090565b60006001600160801b038211156110b35760405162461bcd60e51b81526004016103b59061585b565b7f4f24f5c433db0962dac0d2c8b84197a6e6c7cc4e5d9ebe1916a1b6193da2f33b546001600160a01b0316604051632770a7eb60e21b81526001600160a01b038481166004830152602482018490529190911690639dc29fac90604401600060405180830381600087803b1580156121fb57600080fd5b505af1158015611fac573d6000803e3d6000fd5b6000600080516020615cf28339815191526001600160401b038316820361226d5760405162461bcd60e51b81526020600482015260126024820152711a5b9d985b1a59081c995c5d595cdd081a5960721b60448201526064016103b5565b6001600160401b0383166000908152600a82016020526040812092506004830154600160a01b900460ff1660028111156122a9576122a96152e0565b036104bc5760405162461bcd60e51b81526020600482015260126024820152711a5b9d985b1a59081c995c5d595cdd081a5960721b60448201526064016103b5565b61231e828260020160189054906101000a90046001600160401b03168360040160159054906101000a900460ff166133f0565b60028101546101ed908390600160c01b90046001600160401b0316611f25565b612347816134e6565b6001600160401b03811660009081527fec7e8c1c441439dd40959777f4c577ea0cd42fcc1dbe59d2bd0f5d9c55df8dc06020526040812081815560018101829055600281018290556003810180546001600160e01b03199081169091556004820180546001600160b01b031916905560058201805490911690556006810180546001600160801b0319169055600080516020615cf2833981519152916123f0600783018261507f565b50600801805462ffffff191690555050565b7fec7e8c1c441439dd40959777f4c577ea0cd42fcc1dbe59d2bd0f5d9c55df8dc554600080516020615cf28339815191528054600092829161ffff90911690811061244f5761244f6158a2565b906000526020600020906004020191505090565b6000612470826000613557565b50909392505050565b60006102df8261248b6009600a61599c565b859190613716565b60006102df8383612710613716565b6000806124ae8361251d565b905060006124c084836000015161383c565b905060006124d285846020015161383c565b905060006124e486856040015161383c565b90506124f9836124f484846138b1565b6138b1565b9695505050505050565b60008183116125135760006102df565b6102df82846159a8565b6125886040805160c081019091526000606082018181526080830182905260a083019190915281908152604080516060810182526000808252602082810182905292820152910190815260408051606081018252600080825260208281018290529282015291015290565b6000612593836138c0565b905060405180606001604052806125a985613986565b81526020018281526020016125be8584613a13565b90529392505050565b6000806125d8846000015184613bdf565b905060006125ea856020015185613bdf565b905060006124e4866040015186613bdf565b600061260a6103e8436159bb565b6126159060016159cf565b905090565b600682015460408051808201909152600f81526e1b9bdd08195b9bdd59da08191d5cdd608a1b602082015260009161265f916001600160401b03909116908490613c15565b9050611e3983826130a2565b6001600160401b0382811660009081527fec7e8c1c441439dd40959777f4c577ea0cd42fcc1dbe59d2bd0f5d9c55df8dbd602052604081208054600080516020615cf2833981519152939192916126cc918691600160a01b90910416615664565b9050806001600160401b03166000036127315781546040516001600160401b038716916001600160a01b0316907fb7f65e70a51658e24800516a5dc90e2dd65176e18381adda77f58e2044482b1990600090a361272c6007840186613c60565b61285c565b7f4f24f5c433db0962dac0d2c8b84197a6e6c7cc4e5d9ebe1916a1b6193da2f347546001600160401b0390811690821610156127dd57815460009061277e906001600160a01b031661041b565b905061278a818361403a565b82546040516001600160401b038816916001600160a01b0316907fb7f65e70a51658e24800516a5dc90e2dd65176e18381adda77f58e2044482b1990600090a36127d76007850187613c60565b5061285c565b815467ffffffffffffffff60a01b1916600160a01b6001600160401b03831602178255600061280b826110b7565b83546040518281529192506001600160401b038816916001600160a01b03909116907f9d2e72c50be7927e999d37329649af37a863df77bcb25361699ce021d3d7475d9060200160405180910390a3505b5050505050565b6128ae8260050160089054906101000a90046001600160401b031682604051806040016040528060118152602001701b9bdd08195b9bdd59da081b5a5b9d1959607a1b815250613c15565b8260050160086101000a8154816001600160401b0302191690836001600160401b031602179055506101ed6128e283611748565b6005840154600160401b90046001600160401b031661405e565b6000600080516020615cf2833981519152816129166125fc565b600e8301546129359190600160401b90046001600160401b03166155f7565b9050600084612945576000612948565b60015b60ff166001196129598460016155f7565b161790508083600e0160086101000a8154816001600160401b0302191690836001600160401b03160217905550809350505050919050565b600080600080516020615cf2833981519152600080516020615cd283398151915282856129bd886140aa565b600f850154600160901b90046001600160401b03166129db4261104b565b6129e59190615664565b6129ef91906155f7565b6129f991906155f7565b600c830154909150600090612a2d9063ffffffff16612a236001600160401b0385166103e86155e0565b6105159190615322565b600d840154600f8601549192506001600160401b03600160981b909104811691612a5f918491620100009004166155f7565b612a6991906155f7565b600e840154600f8601549197506001600160401b0390811691612a95918591600160501b9004166155f7565b612a9f91906155f7565b9450505050509250929050565b818360050160108282829054906101000a90046001600160401b0316612ad291906155f7565b92506101000a8154816001600160401b0302191690836001600160401b0316021790555080612b4657818360050160188282829054906101000a90046001600160401b0316612b2191906155f7565b92506101000a8154816001600160401b0302191690836001600160401b031602179055505b611e398383612863565b816001600160401b03168360e001516001600160a01b03168461012001516001600160a01b03167f8cbbd73a8d1b8b02a53c4c3b0ee34b472fe3099cc19bcfb57f1aae09e8a9847e848760200151886040015189606001518a608001518b60a00151612bcf8c6001600160401b031667232128293320800160c11b1790565b8d6101800151633b9aca008f6101a001516001600160401b0316612bf391906155e0565b604051612c08999897969594939291906159e2565b60405180910390a4505050565b600080516020615d3283398151915254600214612c745760405162461bcd60e51b815260206004820152601f60248201527f5265656e7472616e637947756172643a2067756172642072657175697265640060448201526064016103b5565b565b7f4f24f5c433db0962dac0d2c8b84197a6e6c7cc4e5d9ebe1916a1b6193da2f342547f4f24f5c433db0962dac0d2c8b84197a6e6c7cc4e5d9ebe1916a1b6193da2f34554600080516020615cd2833981519152916001600160a01b031690604084013514612d165760405162461bcd60e51b815260206004820152600d60248201526c34b73b30b634b21031b430b4b760991b60448201526064016103b5565b60405163a7a3797560e01b81526001600160a01b0382169063a7a3797590612d42908690600401615b86565b602060405180830381865afa158015612d5f573d6000803e3d6000fd5b505050506040513d601f19601f82011682018060405250810190612d83919061542d565b612dcf5760405162461bcd60e51b815260206004820152601860248201527f6c6567616c207061796d656e74206e6f742070726f766564000000000000000060448201526064016103b5565b612df2612de461014085016101208601615c19565b6001600160401b0316614162565b611e395760405162461bcd60e51b815260206004820152601c60248201527f7665726966696564207472616e73616374696f6e20746f6f206f6c640000000060448201526064016103b5565b60008181526020839052604090205415612e9a5760405162461bcd60e51b815260206004820152601960248201527f7061796d656e7420616c726561647920636f6e6669726d65640000000000000060448201526064016103b5565b6000612ea96201518042615322565b6000818152600185016020526040812054919250819003612eca5782612ecc565b805b6000848152602086815260408083209390935584825260018701905290812084905560028501549003612f0157600284018290555b50505050565b60058201546128ae908290600160401b90046001600160401b03166155f7565b600080516020615cf28339815191526000612f4184611748565b6009830154600160401b90046001600160401b031660008181526007850160205260409020805492935090916001600160a01b0380851691160361303e57805485908290601490612fa3908490600160a01b90046001600160401b03166155f7565b92506101000a8154816001600160401b0302191690836001600160401b031602179055506000612fe98260000160149054906101000a90046001600160401b03166110b7565b9050826001600160401b0316846001600160a01b03167f9d2e72c50be7927e999d37329649af37a863df77bcb25361699ce021d3d7475d8360405161303091815260200190565b60405180910390a350611fac565b600061304e600786018588614185565b9050600061305b876110b7565b9050816001600160401b0316856001600160a01b03167f631f8f2039090539b2ea4ef7dc567f7f1939ef4dd3e790b1ca7bc548a1fada5883604051610af291815260200190565b60068201546001600160401b038083169116036130bd575050565b60068201805467ffffffffffffffff19166001600160401b03831617905560006130e6826110b7565b90506130f183611748565b6001600160a01b03167fa3db2bc927901a1d3ba09ad51d84609457b98443be9132a0a936a47c5a1081b58260405161312b91815260200190565b60405180910390a2505050565b60006001600160ff1b038211156110b35760405162461bcd60e51b815260206004820152602860248201527f53616665436173743a2076616c756520646f65736e27742066697420696e2061604482015267371034b73a191a9b60c11b60648201526084016103b5565b80600f81900b81146131c65760405162461bcd60e51b81526004016103b59061585b565b919050565b600080516020615d128339815191528054604080516378763bfd60e11b815290516000939284926001600160a01b039091169163f0ec77fa916004808201926020929091908290030181865afa158015613229573d6000803e3d6000fd5b505050506040513d601f19601f8201168201806040525081019061324d9190615c34565b8254604080516311bf3fd360e21b815290516001600160a01b03909216916346fcff4c916004808201926020929091908290030181865afa158015613296573d6000803e3d6000fd5b505050506040513d601f19601f820116820180604052508101906132ba9190615c34565b6132c49190615c5d565b6001600160801b0316905060008260000160009054906101000a90046001600160a01b03166001600160a01b031663dc2448406040518163ffffffff1660e01b8152600401602060405180830381865afa158015613326573d6000803e3d6000fd5b505050506040513d601f19601f8201168201806040525081019061334a9190615c34565b8354604080516392321adb60e01b815290516001600160a01b03909216916392321adb916004808201926020929091908290030181865afa158015613393573d6000803e3d6000fd5b505050506040513d601f19601f820116820180604052508101906133b79190615c34565b6133c19190615c5d565b6001600160801b03169050808211156133e6576133de81836159a8565b935050505090565b6000935050505090565b61343e8360050160109054906101000a90046001600160401b031683604051806040016040528060148152602001736e6f7420656e6f7567682072656465656d696e6760601b815250613c15565b8360050160106101000a8154816001600160401b0302191690836001600160401b0316021790555080611e39576134b98360050160189054906101000a90046001600160401b031683604051806040016040528060148152602001736e6f7420656e6f7567682072656465656d696e6760601b815250613c15565b8360050160186101000a8154816001600160401b0302191690836001600160401b03160217905550505050565b60006134f18261220f565b600881015490915060ff16156101ed57600481015460009061351b906001600160a01b031661041b565b600c8101549091506001600160401b038085166401000000009092041603611e3957600c0180546bffffffffffffffff00000000191690555050565b6000806000806000806135f68860010180546135729061551c565b80601f016020809104026020016040519081016040528092919081815260200182805461359e9061551c565b80156135eb5780601f106135c0576101008083540402835291602001916135eb565b820191906000526020600020905b8154815290600101906020018083116135ce57829003601f168201915b50505050508861458e565b8a549295509093509150600160f01b900460ff161561363d57875460009061362c90600160a81b900460ff16600183878661467c565b965091945084935061370f92505050565b60008060006136d88b60020180546136549061551c565b80601f01602080910402602001604051908101604052809291908181526020018280546136809061551c565b80156136cd5780601f106136a2576101008083540402835291602001916136cd565b820191906000526020600020905b8154815290600101906020018083116136b057829003601f168201915b50505050508b61458e565b8d5492955090935091506000906136fc90600160a81b900460ff1685848a8961467c565b995094975090955061370f945050505050565b9250925092565b600080821161375a5760405162461bcd60e51b815260206004820152601060248201526f4469766973696f6e206279207a65726f60801b60448201526064016103b5565b8360000361376a575060006102df565b8383028385828161377d5761377d6152f6565b040361379b57828181613792576137926152f6565b049150506102df565b5060006137a88386615322565b905060006137b684876159bb565b905060006137c48587615322565b905060006137d286886159bb565b9050856137df82856155e0565b6137e99190615322565b6137f383856155e0565b6137fd83876155e0565b8861380886896155e0565b61381291906155e0565b61381c91906159cf565b61382691906159cf565b61383091906159cf565b98975050505050505050565b600080600080516020615d1283398151915290506000613860858560000151614703565b91505060006138778560200151866040015161480a565b905060006138888261271085613716565b60018501549091506138a6908290600160c01b900461ffff16612493565b979650505050505050565b6000818310611f1e57816102df565b6138e56040805160608101909152806000815260200160008152602001600081525090565b60006138f083614823565b60408051606081019091529091508060018152825485546040516370a0823160e01b81526001600160a01b0391821660048201526020909301929116906370a08231906024015b602060405180830381865afa158015613954573d6000803e3d6000fd5b505050506040513d601f19601f8201168201806040525081019061397891906153c7565b81526020016125be83612463565b6139ab6040805160608101909152806000815260200160008152602001600081525090565b60006139b683614872565b60408051606081019091526000815281549192509060208201906001600160a01b03166370a082316139e787611748565b6040516001600160e01b031960e084901b1681526001600160a01b039091166004820152602401613937565b613a386040805160608101909152806000815260200160008152602001600081525090565b8254604080516332f7ce0b60e21b815290516000926001600160a01b03169163cbdf382c9160048083019260209291908290030181865afa158015613a81573d6000803e3d6000fd5b505050506040513d601f19601f82011682018060405250810190613aa59190615647565b90506000816001600160a01b03166370a08231613ac187611748565b6040516001600160e01b031960e084901b1681526001600160a01b039091166004820152602401602060405180830381865afa158015613b05573d6000803e3d6000fd5b505050506040513d601f19601f82011682018060405250810190613b2991906153c7565b90506000826001600160a01b03166318160ddd6040518163ffffffff1660e01b8152600401602060405180830381865afa158015613b6b573d6000803e3d6000fd5b505050506040513d601f19601f82011682018060405250810190613b8f91906153c7565b905060008560200151600003613ba6576000613bbb565b60208601516040870151613bbb918490613716565b60408051606081018252600281526020810195909552840152509095945050505050565b600080613bec84846148a9565b90506000613bfa85856148c6565b905080600003613c0b57600061100d565b61100d8183615322565b6000826001600160401b0316846001600160401b031610158290613c4c5760405162461bcd60e51b81526004016103b5919061540c565b5050506001600160401b0390811691160390565b6001600160401b038116600090815260208390526040902080546001600160a01b0316613c8f57613c8f61561e565b80546001600160a01b031660009081526001808501602052604082209083015490916001600160401b039091169003613d155760028401546001600160401b03848116911614613ce157613ce161561e565b6001820154600285018054600160401b9092046001600160401b031667ffffffffffffffff19909216919091179055613d7d565b60028401546001600160401b0390811690841603613d3557613d3561561e565b6001828101546001600160401b038082166000908152602088905260409020909201805467ffffffffffffffff60401b1916600160401b928390049093169091029190911790555b6001820154600160401b90046001600160401b0316600003613df45760028401546001600160401b03848116600160401b9092041614613dbf57613dbf61561e565b600182015460028501805467ffffffffffffffff60401b19166001600160401b03909216600160401b02919091179055613e5c565b60028401546001600160401b03600160401b909104811690841603613e1b57613e1b61561e565b600180830154600160401b81046001600160401b039081166000908152602088905260409020909201805467ffffffffffffffff1916929091169190911790555b6001820154600160801b90046001600160401b0316600003613ec15780546001600160401b03848116911614613e9457613e9461561e565b60018201548154600160c01b9091046001600160401b031667ffffffffffffffff19909116178155613f27565b80546001600160401b0390811690841603613ede57613ede61561e565b6001828101546001600160401b03600160801b82048116600090815260208890526040902090920180546001600160c01b0316600160c01b928390049093169091029190911790555b6001820154600160c01b90046001600160401b0316600003613f9a5780546001600160401b03848116600160401b9092041614613f6657613f6661561e565b6001820154815467ffffffffffffffff60401b1916600160801b9091046001600160401b0316600160401b0217815561400c565b80546001600160401b03600160401b909104811690841603613fbe57613fbe61561e565b6001828101546001600160401b03600160c01b820481166000908152602088905260409020909201805467ffffffffffffffff60801b1916600160801b928390049093169091029190911790555b50506001600160401b031660009081526020919091526040812080546001600160e01b031916815560010155565b60068201546101ed9083906140599084906001600160401b03166155f7565b6130a2565b7f341c6685fdb8ed7133465b64f545b9fbc5699a59cbd1ad98992e5c070a74c510611e397f341c6685fdb8ed7133465b64f545b9fbc5699a59cbd1ad98992e5c070a74c5118484614919565b6001600160a01b03811660009081527f1309a575a1ebd5e5ca64d58e63b864f1d06aed3e31a021b0eabae653c215fb07602052604081207f1309a575a1ebd5e5ca64d58e63b864f1d06aed3e31a021b0eabae653c215fb06908261410d4261104b565b8354835491925060009161412d916001600160401b0390811691166155f7565b90506141398183614982565b835467ffffffffffffffff19166001600160401b039190911690811784556124f9908390615664565b6000614172600e620151806155e0565b61417c90426159a8565b90911015919050565b6001600160a01b038216600090815260018401602052604081206002850180548391906010906141c490600160801b90046001600160401b0316615c7d565b91906101000a8154816001600160401b0302191690836001600160401b03160217905590506040518060c00160405280866001600160a01b03168152602001856001600160401b031681526020018760020160089054906101000a90046001600160401b03166001600160401b0316815260200160006001600160401b031681526020018360000160089054906101000a90046001600160401b03166001600160401b0316815260200160006001600160401b0316815250866000016000836001600160401b03166001600160401b0316815260200190815260200160002060008201518160000160006101000a8154816001600160a01b0302191690836001600160a01b0316021790555060208201518160000160146101000a8154816001600160401b0302191690836001600160401b0316021790555060408201518160010160006101000a8154816001600160401b0302191690836001600160401b0316021790555060608201518160010160086101000a8154816001600160401b0302191690836001600160401b0316021790555060808201518160010160106101000a8154816001600160401b0302191690836001600160401b0316021790555060a08201518160010160186101000a8154816001600160401b0302191690836001600160401b031602179055509050508560020160009054906101000a90046001600160401b03166001600160401b0316600003614421576002860154600160401b90046001600160401b0316156143fe576143fe61561e565b60028601805467ffffffffffffffff19166001600160401b038316179055614489565b6002860154600160401b90046001600160401b03166000036144455761444561561e565b6002860154600160401b908190046001600160401b039081166000908152602089905260409020600101805467ffffffffffffffff60401b19169184169092021790555b6002860180546001600160401b03808416600160401b0267ffffffffffffffff60401b19909216919091179091558254166000036144ff578154600160401b90046001600160401b0316156144e0576144e061561e565b815467ffffffffffffffff19166001600160401b038216178255614562565b8154600160401b90046001600160401b03166000036145205761452061561e565b81546001600160401b03600160401b909104811660009081526020889052604090206001018054918316600160c01b026001600160c01b039092169190911790555b815467ffffffffffffffff60401b1916600160401b6001600160401b0383160217909155949350505050565b7f4f24f5c433db0962dac0d2c8b84197a6e6c7cc4e5d9ebe1916a1b6193da2f3445460009081908190600080516020615cd2833981519152906001600160a01b031685156146505760405163e4a0a55b60e01b81526001600160a01b0382169063e4a0a55b90614602908a9060040161540c565b606060405180830381865afa15801561461f573d6000803e3d6000fd5b505050506040513d601f19601f820116820180604052508101906146439190615ca3565b945094509450505061370f565b60405163524f388960e01b81526001600160a01b0382169063524f388990614602908a9060040161540c565b6000600080516020615cd283398151915281600961469a878a6159cf565b6146a491906159cf565b600a8301549091506000906146c4908690600160a81b900460ff166159cf565b9050808210156146d6576146d661561e565b6146f66146e382846159a8565b6146ee90600a61599c565b87908a613716565b9998505050505050505050565b600080600283600281111561471a5761471a6152e0565b036147825760008061472d866001614703565b915091506000614748600080516020615cd283398151915290565b600c015463ffffffff6401000000009091048116915061476c908290849061249316565b93506147788184612493565b9450505050614803565b6001836002811115614796576147966152e0565b036147d1576147a484614823565b60030154600485015463ffffffff91821692506147ca91600160881b90910416826149a4565b9150614803565b6147da84614872565b60030154600485015463ffffffff918216925061480091600160681b90910416826149a4565b91505b9250929050565b60006102df61481b6009600a61599c565b849084613716565b600080600080516020615cf2833981519152600484015481549192508291630100000090910461ffff1690811061485c5761485c6158a2565b9060005260206000209060040201915050919050565b600080600080516020615cf283398151915260048401548154919250829161010090910461ffff1690811061485c5761485c6158a2565b6000806148b684846149b3565b90506116df846020015182612503565b600080600080516020615cd2833981519152905060006148ea848660000151614703565b50600d830154604087015191925061100d918391614913916001600160401b0390911690612479565b90612493565b6001600160a01b038216600090815260048401602052604081209061493d82614add565b9050600061494a86614add565b9050614957834286614b78565b614978428361496687856155f7565b6149709190615664565b889190614b78565b611fac8684614ee9565b6000816001600160401b0316836001600160401b03161015611f1e57816102df565b6000818311611f1e57816102df565b60008060006149c6848660000151614703565b600586015491935091506000906149ef906001600160401b03600160401b8204811691166159cf565b90506000614a0584614913848a60400151612479565b90506000600188516002811115614a1e57614a1e6152e0565b14614a3d576005870154600160801b90046001600160401b0316614a53565b6005870154600160c01b90046001600160401b03165b90506000614a7285614913846001600160401b03168c60400151612479565b9050600060018a516002811115614a8b57614a8b6152e0565b03614a97576000614aaf565b8951614aa4908a90614f26565b546001600160801b03165b6001600160801b0316905080614ac583866159cf565b614acf91906159cf565b9a9950505050505050505050565b6001810154600090600160401b90046001600160401b03168103614b0357506000919050565b60018201546001600160401b03808216600160401b9092041611614b2957614b2961561e565b6001828101548391600091614b4e9190600160401b90046001600160401b0316615664565b6001600160401b039081168252602082019290925260400160002054600160c01b90041692915050565b6001830154600160401b90046001600160401b0316600003614c975760018301546001600160401b031615614baf57614baf61561e565b604051806060016040528060006001600160801b03168152602001614bd38461104b565b6001600160401b0390811682528381166020909201919091526001850180548692600092600160401b90920416906008614c0c83615c7d565b82546001600160401b039182166101009390930a92830292820219169190911790915590811682526020808301939093526040918201600020845181549486015195909301518216600160c01b026001600160c01b0395909216600160801b026001600160c01b03199094166001600160801b03909316929092179290921792909216179055505050565b60018301546001600160401b03808216600160401b9092041611614cbd57614cbd61561e565b60018381015460009185918391614ce391600160401b90046001600160401b0316615664565b6001600160401b03908116825260208201929092526040016000208054909250600160801b900416839003614d355780546001600160c01b0316600160c01b6001600160401b03841602178155612f01565b8054600160801b90046001600160401b03168311614da65760405162461bcd60e51b815260206004820152602860248201527f54696d6543756d756c61746976653a2074696d657374616d70206e6f7420696e6044820152676372656173696e6760c01b60648201526084016103b5565b8054600090614dc590600160801b90046001600160401b0316856159a8565b8254614de19190600160c01b90046001600160401b03166155e0565b8254614df691906001600160801b03166159cf565b90506040518060600160405280614e0c8361215b565b6001600160801b03168152602001614e238661104b565b6001600160401b0390811682528581166020909201919091526001870180548892600092600160401b90920416906008614e5c83615c7d565b82546001600160401b039182166101009390930a92830292820219169190911790915590811682526020808301939093526040918201600020845181549486015195909301518216600160c01b026001600160c01b0395909216600160801b026001600160c01b03199094166001600160801b039093169290921792909217929092161790555050505050565b6003820154600090614f0c908490600160c01b90046001600160401b0316614f73565b9050614f1a82826002614fae565b611e3983826002614fae565b60006001826002811115614f3c57614f3c6152e0565b03614f4957614f4961561e565b6000826002811115614f5d57614f5d6152e0565b14614f6b57826009016102df565b505060080190565b6003820154600090614f96908390600160401b90046001600160401b03166155e0565b60038401546102df91906001600160401b03166159cf565b60018301546001600160401b0380821691600160401b90041660005b8381108015614fe2575081614fe08460016159cf565b105b801561501b575084866000614ff88660016159cf565b8152602081019190915260400160002054600160801b90046001600160401b0316105b1561504a5760008381526020879052604081205561503883615684565b925061504381615684565b9050614fca565b6150538361104b565b600196909601805467ffffffffffffffff19166001600160401b03909716969096179095555050505050565b50805461508b9061551c565b6000825580601f1061509b575050565b601f01602090049060005260206000209081019061029d91905b808211156110b357600081556001016150b5565b6001600160a01b038116811461029d57600080fd5b600080604083850312156150f157600080fd5b82356150fc816150c9565b946020939093013593505050565b6000806040838503121561511d57600080fd5b82356001600160401b0381111561513357600080fd5b83016102a0818603121561514657600080fd5b91506020830135615156816150c9565b809150509250929050565b80356001600160401b03811681146131c657600080fd5b634e487b7160e01b600052604160045260246000fd5b604051601f8201601f191681016001600160401b03811182821017156151b6576151b6615178565b604052919050565b60006001600160401b038211156151d7576151d7615178565b50601f01601f191660200190565b600080604083850312156151f857600080fd5b61520183615161565b915060208301356001600160401b0381111561521c57600080fd5b8301601f8101851361522d57600080fd5b803561524061523b826151be565b61518e565b81815286602083850101111561525557600080fd5b816020840160208301376000602083830101528093505050509250929050565b60006020828403121561528757600080fd5b81356102df816150c9565b6000602082840312156152a457600080fd5b5035919050565b600080604083850312156152be57600080fd5b82356152c9816150c9565b91506152d760208401615161565b90509250929050565b634e487b7160e01b600052602160045260246000fd5b634e487b7160e01b600052601260045260246000fd5b634e487b7160e01b600052601160045260246000fd5b600082615331576153316152f6565b500490565b60005b83811015615351578181015183820152602001615339565b50506000910152565b60006020828403121561536c57600080fd5b81516001600160401b0381111561538257600080fd5b8201601f8101841361539357600080fd5b80516153a161523b826151be565b8181528560208385010111156153b657600080fd5b61100d826020830160208601615336565b6000602082840312156153d957600080fd5b5051919050565b600081518084526153f8816020860160208601615336565b601f01601f19169290920160200192915050565b6020815260006102df60208301846153e0565b801515811461029d57600080fd5b60006020828403121561543f57600080fd5b81516102df8161541f565b60208082526022908201527f6e6f7420656e6f75676820617661696c61626c65206f6e20636f7265207661756040820152611b1d60f21b606082015260800190565b6001600160401b038181168382160280821691908281146154af576154af61530c565b505092915050565b6080815260006154ca60808301876153e0565b6020830195909552506001600160801b039290921660408301521515606090910152919050565b60408152600061550460408301856153e0565b90506001600160801b03831660208301529392505050565b600181811c9082168061553057607f821691505b6020821081036104bc57634e487b7160e01b600052602260045260246000fd5b6000815461555d8161551c565b80855260206001838116801561557a5760018114615594576155c2565b60ff1985168884015283151560051b8801830195506155c2565b866000528260002060005b858110156155ba5781548a820186015290830190840161559f565b890184019650505b505050505092915050565b6020815260006102df6020830184615550565b80820281158282048414176116e3576116e361530c565b6001600160401b038181168382160190808211156156175761561761530c565b5092915050565b634e487b7160e01b600052600160045260246000fd5b6080815260006154ca6080830187615550565b60006020828403121561565957600080fd5b81516102df816150c9565b6001600160401b038281168282160390808211156156175761561761530c565b6000600182016156965761569661530c565b5060010190565b601f821115611e39576000816000526020600020601f850160051c810160208610156156c65750805b601f850160051c820191505b81811015611fac578281556001016156d2565b81516001600160401b038111156156fe576156fe615178565b6157128161570c845461551c565b8461569d565b602080601f831160018114615747576000841561572f5750858301515b600019600386901b1c1916600185901b178555611fac565b600085815260208120601f198616915b8281101561577657888601518255948401946001909101908401615757565b50858210156157945787850151600019600388901b60f8161c191681555b5050505050600190811b01905550565b803560ff811681146131c657600080fd5b6000602082840312156157c757600080fd5b6102df826157a4565b60006001600160401b03808416806157ea576157ea6152f6565b92169190910692915050565b600f81810b9083900b016f7fffffffffffffffffffffffffffffff81136f7fffffffffffffffffffffffffffffff19821217156116e3576116e361530c565b60006001600160401b038084168061584f5761584f6152f6565b92169190910492915050565b60208082526027908201527f53616665436173743a2076616c756520646f65736e27742066697420696e20316040820152663238206269747360c81b606082015260800190565b634e487b7160e01b600052603260045260246000fd5b600181815b808511156158f35781600019048211156158d9576158d961530c565b808516156158e657918102915b93841c93908002906158bd565b509250929050565b60008261590a575060016116e3565b81615917575060006116e3565b816001811461592d576002811461593757615953565b60019150506116e3565b60ff8411156159485761594861530c565b50506001821b6116e3565b5060208310610133831016604e8410600b8410161715615976575081810a6116e3565b61598083836158b8565b80600019048211156159945761599461530c565b029392505050565b60006102df83836158fb565b818103818111156116e3576116e361530c565b6000826159ca576159ca6152f6565b500690565b808201808211156116e3576116e361530c565b60006101208083526159f68184018d6153e0565b6001600160801b039b8c16602085015299909a166040830152506001600160401b03968716606082015294861660808601529290941660a084015260c08301526001600160a01b0390921660e0820152610100015292915050565b80356131c68161541f565b8035825260208101356020830152615a7660408201615161565b6001600160401b03808216604085015280615a9360608501615161565b16606085015250506080810135608083015260a081013560a083015260c081013560c0830152615ad960e08301615acc60e08401615161565b6001600160401b03169052565b610100615ae7818301615161565b6001600160401b03169083015261012081810135908301526101408082013590830152610160808201359083015261018080820135908301526101a080820135908301526101c080820135908301526101e0808201359083015261020080820135908301526102208082013590830152610240615b65818301615a51565b151590830152610260615b798282016157a4565b60ff811684830152612f01565b6020815260008235601e19843603018112615ba057600080fd5b83016020810190356001600160401b03811115615bbc57600080fd5b8060051b803603831315615bcf57600080fd5b6102a060208601526102c085018290526102e06001600160fb1b03831115615bf657600080fd5b818482880137615c0c6040870160208901615a5c565b9401909301949350505050565b600060208284031215615c2b57600080fd5b6102df82615161565b600060208284031215615c4657600080fd5b81516001600160801b03811681146102df57600080fd5b6001600160801b038181168382160190808211156156175761561761530c565b60006001600160401b03808316818103615c9957615c9961530c565b6001019392505050565b600080600060608486031215615cb857600080fd5b835192506020840151915060408401519050925092509256fe4f24f5c433db0962dac0d2c8b84197a6e6c7cc4e5d9ebe1916a1b6193da2f33aec7e8c1c441439dd40959777f4c577ea0cd42fcc1dbe59d2bd0f5d9c55df8db6908500188c8f91f50d58dffac83eda18fc06d9da0208fc6b66c78a4c3fec74f20cd2207518cd3e5213e2c6dbe63d55b60aa893c194a427b7d7f1600408fd5bdea26469706673582212202b2b5dc82663c0a6ca0d6476f9b1d8b1183c2ba13f97a973ea9c38074484f27564736f6c63430008170033",
  "linkReferences": {},
  "deployedLinkReferences": {}
}