{
  "_format": "hh-sol-artifact-1",
  "contractName": "CoreVaultFacet",
  "sourceName": "contracts/assetManager/facets/CoreVaultFacet.sol",
  "abi": [
    {
      "inputs": [],
      "stateMutability": "nonpayable",
      "type": "constructor"
    },
    {
      "anonymous": false,
      "inputs": [
        {
          "indexed": true,
          "internalType": "address",
          "name": "redeemer",
          "type": "address"
        },
        {
          "indexed": false,
          "internalType": "string",
          "name": "paymentAddress",
          "type": "string"
        },
        {
          "indexed": false,
          "internalType": "bytes32",
          "name": "paymentReference",
          "type": "bytes32"
        },
        {
          "indexed": false,
          "internalType": "uint256",
          "name": "valueUBA",
          "type": "uint256"
        },
        {
          "indexed": false,
          "internalType": "uint256",
          "name": "feeUBA",
          "type": "uint256"
        }
      ],
      "name": "CoreVaultRedemptionRequested",
      "type": "event"
    },
    {
      "anonymous": false,
      "inputs": [
        {
          "indexed": true,
          "internalType": "address",
          "name": "agentVault",
          "type": "address"
        },
        {
          "indexed": false,
          "internalType": "uint256",
          "name": "dustUBA",
          "type": "uint256"
        }
      ],
      "name": "DustChanged",
      "type": "event"
    },
    {
      "anonymous": false,
      "inputs": [
        {
          "indexed": true,
          "internalType": "address",
          "name": "agentVault",
          "type": "address"
        },
        {
          "indexed": true,
          "internalType": "address",
          "name": "redeemer",
          "type": "address"
        },
        {
          "indexed": true,
          "internalType": "uint256",
          "name": "requestId",
          "type": "uint256"
        },
        {
          "indexed": false,
          "internalType": "string",
          "name": "paymentAddress",
          "type": "string"
        },
        {
          "indexed": false,
          "internalType": "uint256",
          "name": "valueUBA",
          "type": "uint256"
        },
        {
          "indexed": false,
          "internalType": "uint256",
          "name": "feeUBA",
          "type": "uint256"
        },
        {
          "indexed": false,
          "internalType": "uint256",
          "name": "firstUnderlyingBlock",
          "type": "uint256"
        },
        {
          "indexed": false,
          "internalType": "uint256",
          "name": "lastUnderlyingBlock",
          "type": "uint256"
        },
        {
          "indexed": false,
          "internalType": "uint256",
          "name": "lastUnderlyingTimestamp",
          "type": "uint256"
        },
        {
          "indexed": false,
          "internalType": "bytes32",
          "name": "paymentReference",
          "type": "bytes32"
        },
        {
          "indexed": false,
          "internalType": "address",
          "name": "executor",
          "type": "address"
        },
        {
          "indexed": false,
          "internalType": "uint256",
          "name": "executorFeeNatWei",
          "type": "uint256"
        }
      ],
      "name": "RedemptionRequested",
      "type": "event"
    },
    {
      "anonymous": false,
      "inputs": [
        {
          "indexed": true,
          "internalType": "address",
          "name": "agentVault",
          "type": "address"
        },
        {
          "indexed": true,
          "internalType": "uint256",
          "name": "redemptionTicketId",
          "type": "uint256"
        },
        {
          "indexed": false,
          "internalType": "uint256",
          "name": "ticketValueUBA",
          "type": "uint256"
        }
      ],
      "name": "RedemptionTicketCreated",
      "type": "event"
    },
    {
      "anonymous": false,
      "inputs": [
        {
          "indexed": true,
          "internalType": "address",
          "name": "agentVault",
          "type": "address"
        },
        {
          "indexed": true,
          "internalType": "uint256",
          "name": "redemptionTicketId",
          "type": "uint256"
        }
      ],
      "name": "RedemptionTicketDeleted",
      "type": "event"
    },
    {
      "anonymous": false,
      "inputs": [
        {
          "indexed": true,
          "internalType": "address",
          "name": "agentVault",
          "type": "address"
        },
        {
          "indexed": true,
          "internalType": "uint256",
          "name": "redemptionTicketId",
          "type": "uint256"
        },
        {
          "indexed": false,
          "internalType": "uint256",
          "name": "ticketValueUBA",
          "type": "uint256"
        }
      ],
      "name": "RedemptionTicketUpdated",
      "type": "event"
    },
    {
      "anonymous": false,
      "inputs": [
        {
          "indexed": true,
          "internalType": "address",
          "name": "agentVault",
          "type": "address"
        },
        {
          "indexed": true,
          "internalType": "uint256",
          "name": "requestId",
          "type": "uint256"
        }
      ],
      "name": "ReturnFromCoreVaultCancelled",
      "type": "event"
    },
    {
      "anonymous": false,
      "inputs": [
        {
          "indexed": true,
          "internalType": "address",
          "name": "agentVault",
          "type": "address"
        },
        {
          "indexed": true,
          "internalType": "uint256",
          "name": "requestId",
          "type": "uint256"
        },
        {
          "indexed": false,
          "internalType": "uint256",
          "name": "receivedUnderlyingUBA",
          "type": "uint256"
        },
        {
          "indexed": false,
          "internalType": "uint256",
          "name": "remintedUBA",
          "type": "uint256"
        }
      ],
      "name": "ReturnFromCoreVaultConfirmed",
      "type": "event"
    },
    {
      "anonymous": false,
      "inputs": [
        {
          "indexed": true,
          "internalType": "address",
          "name": "agentVault",
          "type": "address"
        },
        {
          "indexed": true,
          "internalType": "uint256",
          "name": "requestId",
          "type": "uint256"
        },
        {
          "indexed": false,
          "internalType": "bytes32",
          "name": "paymentReference",
          "type": "bytes32"
        },
        {
          "indexed": false,
          "internalType": "uint256",
          "name": "valueUBA",
          "type": "uint256"
        }
      ],
      "name": "ReturnFromCoreVaultRequested",
      "type": "event"
    },
    {
      "anonymous": false,
      "inputs": [
        {
          "indexed": true,
          "internalType": "address",
          "name": "agentVault",
          "type": "address"
        },
        {
          "indexed": true,
          "internalType": "uint256",
          "name": "transferRedemptionRequestId",
          "type": "uint256"
        }
      ],
      "name": "TransferToCoreVaultDefaulted",
      "type": "event"
    },
    {
      "anonymous": false,
      "inputs": [
        {
          "indexed": true,
          "internalType": "address",
          "name": "agentVault",
          "type": "address"
        },
        {
          "indexed": true,
          "internalType": "uint256",
          "name": "transferRedemptionRequestId",
          "type": "uint256"
        },
        {
          "indexed": false,
          "internalType": "uint256",
          "name": "valueUBA",
          "type": "uint256"
        }
      ],
      "name": "TransferToCoreVaultStarted",
      "type": "event"
    },
    {
      "anonymous": false,
      "inputs": [
        {
          "indexed": true,
          "internalType": "address",
          "name": "agentVault",
          "type": "address"
        },
        {
          "indexed": true,
          "internalType": "uint256",
          "name": "transferRedemptionRequestId",
          "type": "uint256"
        },
        {
          "indexed": false,
          "internalType": "uint256",
          "name": "valueUBA",
          "type": "uint256"
        }
      ],
      "name": "TransferToCoreVaultSuccessful",
      "type": "event"
    },
    {
      "anonymous": false,
      "inputs": [
        {
          "indexed": true,
          "internalType": "address",
          "name": "agentVault",
          "type": "address"
        },
        {
          "indexed": false,
          "internalType": "int256",
          "name": "underlyingBalanceUBA",
          "type": "int256"
        }
      ],
      "name": "UnderlyingBalanceChanged",
      "type": "event"
    },
    {
      "inputs": [
        {
          "internalType": "address",
          "name": "_agentVault",
          "type": "address"
        }
      ],
      "name": "cancelReturnFromCoreVault",
      "outputs": [],
      "stateMutability": "nonpayable",
      "type": "function"
    },
    {
      "inputs": [
        {
          "components": [
            {
              "internalType": "bytes32[]",
              "name": "merkleProof",
              "type": "bytes32[]"
            },
            {
              "components": [
                {
                  "internalType": "bytes32",
                  "name": "attestationType",
                  "type": "bytes32"
                },
                {
                  "internalType": "bytes32",
                  "name": "sourceId",
                  "type": "bytes32"
                },
                {
                  "internalType": "uint64",
                  "name": "votingRound",
                  "type": "uint64"
                },
                {
                  "internalType": "uint64",
                  "name": "lowestUsedTimestamp",
                  "type": "uint64"
                },
                {
                  "components": [
                    {
                      "internalType": "bytes32",
                      "name": "transactionId",
                      "type": "bytes32"
                    },
                    {
                      "internalType": "uint256",
                      "name": "inUtxo",
                      "type": "uint256"
                    },
                    {
                      "internalType": "uint256",
                      "name": "utxo",
                      "type": "uint256"
                    }
                  ],
                  "internalType": "struct IPayment.RequestBody",
                  "name": "requestBody",
                  "type": "tuple"
                },
                {
                  "components": [
                    {
                      "internalType": "uint64",
                      "name": "blockNumber",
                      "type": "uint64"
                    },
                    {
                      "internalType": "uint64",
                      "name": "blockTimestamp",
                      "type": "uint64"
                    },
                    {
                      "internalType": "bytes32",
                      "name": "sourceAddressHash",
                      "type": "bytes32"
                    },
                    {
                      "internalType": "bytes32",
                      "name": "sourceAddressesRoot",
                      "type": "bytes32"
                    },
                    {
                      "internalType": "bytes32",
                      "name": "receivingAddressHash",
                      "type": "bytes32"
                    },
                    {
                      "internalType": "bytes32",
                      "name": "intendedReceivingAddressHash",
                      "type": "bytes32"
                    },
                    {
                      "internalType": "int256",
                      "name": "spentAmount",
                      "type": "int256"
                    },
                    {
                      "internalType": "int256",
                      "name": "intendedSpentAmount",
                      "type": "int256"
                    },
                    {
                      "internalType": "int256",
                      "name": "receivedAmount",
                      "type": "int256"
                    },
                    {
                      "internalType": "int256",
                      "name": "intendedReceivedAmount",
                      "type": "int256"
                    },
                    {
                      "internalType": "bytes32",
                      "name": "standardPaymentReference",
                      "type": "bytes32"
                    },
                    {
                      "internalType": "bool",
                      "name": "oneToOne",
                      "type": "bool"
                    },
                    {
                      "internalType": "uint8",
                      "name": "status",
                      "type": "uint8"
                    }
                  ],
                  "internalType": "struct IPayment.ResponseBody",
                  "name": "responseBody",
                  "type": "tuple"
                }
              ],
              "internalType": "struct IPayment.Response",
              "name": "data",
              "type": "tuple"
            }
          ],
          "internalType": "struct IPayment.Proof",
          "name": "_payment",
          "type": "tuple"
        },
        {
          "internalType": "address",
          "name": "_agentVault",
          "type": "address"
        }
      ],
      "name": "confirmReturnFromCoreVault",
      "outputs": [],
      "stateMutability": "nonpayable",
      "type": "function"
    },
    {
      "inputs": [],
      "name": "coreVaultAvailableAmount",
      "outputs": [
        {
          "internalType": "uint256",
          "name": "_immediatelyAvailableUBA",
          "type": "uint256"
        },
        {
          "internalType": "uint256",
          "name": "_totalAvailableUBA",
          "type": "uint256"
        }
      ],
      "stateMutability": "view",
      "type": "function"
    },
    {
      "inputs": [
        {
          "internalType": "address",
          "name": "_agentVault",
          "type": "address"
        }
      ],
      "name": "maximumTransferToCoreVault",
      "outputs": [
        {
          "internalType": "uint256",
          "name": "_maximumTransferUBA",
          "type": "uint256"
        },
        {
          "internalType": "uint256",
          "name": "_minimumLeftAmountUBA",
          "type": "uint256"
        }
      ],
      "stateMutability": "view",
      "type": "function"
    },
    {
      "inputs": [
        {
          "internalType": "uint64",
          "name": "_lots",
          "type": "uint64"
        },
        {
          "internalType": "string",
          "name": "_redeemerUnderlyingAddress",
          "type": "string"
        }
      ],
      "name": "redeemFromCoreVault",
      "outputs": [],
      "stateMutability": "nonpayable",
      "type": "function"
    },
    {
      "inputs": [
        {
          "internalType": "address",
          "name": "_agentVault",
          "type": "address"
        },
        {
          "internalType": "uint64",
          "name": "_lots",
          "type": "uint64"
        }
      ],
      "name": "requestReturnFromCoreVault",
      "outputs": [],
      "stateMutability": "nonpayable",
      "type": "function"
    },
    {
      "inputs": [
        {
          "internalType": "address",
          "name": "_agentVault",
          "type": "address"
        },
        {
          "internalType": "uint256",
          "name": "_amountUBA",
          "type": "uint256"
        }
      ],
      "name": "transferToCoreVault",
      "outputs": [],
      "stateMutability": "payable",
      "type": "function"
    },
    {
      "inputs": [
        {
          "internalType": "uint256",
          "name": "_amountUBA",
          "type": "uint256"
        }
      ],
      "name": "transferToCoreVaultFee",
      "outputs": [
        {
          "internalType": "uint256",
          "name": "_transferFeeNatWei",
          "type": "uint256"
        }
      ],
      "stateMutability": "view",
      "type": "function"
    }
  ],
  "bytecode": "0x608060405234801561001057600080fd5b507f908500188c8f91f50d58dffac83eda18fc06d9da0208fc6b66c78a4c3fec74f4805460ff60401b191668010000000000000000179055615a4180620000586000396000f3fe60806040526004361061007b5760003560e01c80639b70be1f1161004e5780639b70be1f14610104578063bfbf712114610124578063cfffc00614610152578063df10b5ea1461017257600080fd5b806332974aaf146100805780636286592e146100af578063687fea71146100c4578063768d0e96146100e4575b600080fd5b34801561008c57600080fd5b50610095610192565b604080519283526020830191909152015b60405180910390f35b6100c26100bd366004614d77565b6101a5565b005b3480156100d057600080fd5b506100c26100df366004614da3565b6101f9565b3480156100f057600080fd5b506100c26100ff366004614e7e565b61023b565b34801561011057600080fd5b506100c261011f366004614f0e565b610264565b34801561013057600080fd5b5061014461013f366004614f2b565b6102a8565b6040519081526020016100a6565b34801561015e57600080fd5b5061009561016d366004614f0e565b6102c6565b34801561017e57600080fd5b506100c261018d366004614f44565b61030f565b60008061019d610338565b915091509091565b6101ad610505565b816101b781610571565b60006101c2846105c8565b905060006101cf8461066f565b90506101db82826106a5565b5050506101f560016000805160206159ec83398151915255565b5050565b610201610505565b8061020b81610571565b6000610216836105c8565b90506102228482610a4e565b50506101f560016000805160206159ec83398151915255565b610243610505565b61024d8282610d51565b6101f560016000805160206159ec83398151915255565b61026c610505565b8061027681610571565b6000610281836105c8565b905061028c816110c2565b50506102a560016000805160206159ec83398151915255565b50565b6000806102b48361066f565b90506102bf816111f5565b9392505050565b60008060006102d4846105c8565b90506000806102e283611255565b915091506102f76102f28361128a565b6112f6565b94506103056102f28261128a565b9350505050915091565b610317610505565b8161032181610571565b600061032c846105c8565b90506102228184611327565b600080806000805160206159cc833981519152905060008160000160009054906101000a90046001600160a01b03166001600160a01b03166346fcff4c6040518163ffffffff1660e01b8152600401602060405180830381865afa1580156103a4573d6000803e3d6000fd5b505050506040513d601f19601f820116820180604052508101906103c89190614f90565b6001600160801b0316905060008260000160009054906101000a90046001600160a01b03166001600160a01b031663f0ec77fa6040518163ffffffff1660e01b8152600401602060405180830381865afa15801561042a573d6000803e3d6000fd5b505050506040513d601f19601f8201168201806040525081019061044e9190614f90565b6001600160801b03169050600061046361182d565b845460408051631214493d60e11b815290516001600160a01b0390921691632428927a916004808201926020929091908290030181865afa1580156104ac573d6000803e3d6000fd5b505050506040513d601f19601f820116820180604052508101906104d09190614fab565b6104da9190614fda565b90506104e683826118c2565b95506104fb6104f58385614fda565b826118c2565b9450505050509091565b6000805160206159ec83398151915280546001190161056b5760405162461bcd60e51b815260206004820152601f60248201527f5265656e7472616e637947756172643a207265656e7472616e742063616c6c0060448201526064015b60405180910390fd5b60029055565b61058361057d826105c8565b336118e5565b6102a55760405162461bcd60e51b815260206004820152601660248201527537b7363c9030b3b2b73a103b30bab63a1037bbb732b960511b6044820152606401610562565b7f5bebac0595fee029d42bb673937f5f1cb81cf8641382bc17774635de9b7d796568010000000000000000600160e01b03604083901b161880600060048084015460ff169081111561061c5761061c614fed565b036106695760405162461bcd60e51b815260206004820152601b60248201527f696e76616c6964206167656e74207661756c74206164647265737300000000006044820152606401610562565b50919050565b60008061067a611994565b600c8101549091506102bf906106a090600160901b90046001600160401b031685615019565b61128a565b6106ad6119b8565b6000805160206159cc83398151915260006106c784611a17565b9050600360048086015460ff16908111156106e4576106e4614fed565b036107285760405162461bcd60e51b8152602060048201526014602482015273696e76616c6964206167656e742073746174757360601b6044820152606401610562565b6006840154600160401b9004600f0b610748610743856112f6565b611a3f565b131561078e5760405162461bcd60e51b81526020600482015260156024820152746e6f7420656e6f75676820756e6465726c79696e6760581b6044820152606401610562565b600c84015464010000000090046001600160401b0316156107f15760405162461bcd60e51b815260206004820152601760248201527f7472616e7366657220616c7265616479206163746976650000000000000000006044820152606401610562565b60006108008585600080611aa9565b509050600061080e826111f5565b9050803410156108605760405162461bcd60e51b815260206004820152601e60248201527f7472616e7366657220666565207061796d656e7420746f6f20736d616c6c00006044820152606401610562565b600061086b87611255565b50905080836001600160401b031611156108d65760405162461bcd60e51b815260206004820152602660248201527f746f6f206c6974746c65206d696e74696e67206c65667420616674657220747260448201526530b739b332b960d11b6064820152608401610562565b845460408051633d083bf560e11b815290516000926001600160a01b031691637a1077ea91600480830192869291908290030181865afa15801561091e573d6000803e3d6000fd5b505050506040513d6000823e601f3d908101601f191682016040526109469190810190615051565b905060006109a460405180604001604052806109618c611a17565b6001600160a01b0390811682526001600160401b03808a166020909301929092526001808c01548c54921692879260009283928392600160a01b90041690611c7e565b600c8a0180546bffffffffffffffff0000000019166401000000006001600160401b0384160217905560018801549091506109e8906001600160a01b03163461211f565b60006109f3866112f6565b9050816001600160401b0316876001600160a01b03167f7720ffc529ed13201c71ca65a93771ecb026d4a7ea1a557116dfac60fafd9fb683604051610a3a91815260200190565b60405180910390a350505050505050505050565b610a566119b8565b6000805160206159cc833981519152610a6e836121cd565b600c820154600160601b90046001600160401b03166000819003610acf5760405162461bcd60e51b81526020600482015260186024820152771b9bc81858dd1a5d99481c995d1d5c9b881c995c5d595cdd60421b6044820152606401610562565b81546040805163c9febdf560e01b815290516001600160a01b039092169163c9febdf5916004808201926020929091908290030181865afa158015610b18573d6000803e3d6000fd5b505050506040513d601f19601f82011682018060405250810190610b3c9190614fab565b61014085013514610b8f5760405162461bcd60e51b815260206004820152601b60248201527f7061796d656e74206e6f742066726f6d20636f7265207661756c7400000000006044820152606401610562565b600383015461018085013514610be75760405162461bcd60e51b815260206004820152601e60248201527f7061796d656e74206e6f7420746f206167656e742773206164647265737300006044820152606401610562565b67119094149990400160c21b6001600160401b0382161761024085013514610c515760405162461bcd60e51b815260206004820152601960248201527f696e76616c6964207061796d656e74207265666572656e6365000000000000006044820152606401610562565b610c7b7fec7e8c1c441439dd40959777f4c577ea0cd42fcc1dbe59d2bd0f5d9c55df8dc18561222b565b6000610c8b610200860135612239565b90506000610c988261066f565b90506000610cbd86600c0160149054906101000a90046001600160401b03168361228b565b9050610cc986826122b4565b610cd38684612340565b610cdc866123f2565b6000610ce7826112f6565b9050846001600160401b0316610cfc88611a17565b6001600160a01b03167ff31c790716bd513f9122b4d1e80f9fce17cd414160d32271088b0c6b2af33e258684604051610d3f929190918252602082015260400190565b60405180910390a35050505050505050565b610d596119b8565b6000805160206159cc8339815191528054604051632b656fef60e01b81526001600160a01b0390911690632b656fef90610d979085906004016150ea565b602060405180830381865afa158015610db4573d6000803e3d6000fd5b505050506040513d601f19601f82011682018060405250810190610dd8919061510b565b610e395760405162461bcd60e51b815260206004820152602c60248201527f756e6465726c79696e672061646472657373206e6f7420616c6c6f776564206260448201526b1e4818dbdc99481d985d5b1d60a21b6064820152608401610562565b6000610e43611994565b90506000610e4f6124a3565b9050806001600160401b0316856001600160401b03161115610e835760405162461bcd60e51b815260040161056290615128565b6002830154600090610e9e906001600160401b03168361228b565b9050806001600160401b0316866001600160401b03161015610f025760405162461bcd60e51b815260206004820152601a60248201527f72657175657374656420616d6f756e7420746f6f20736d616c6c0000000000006044820152606401610562565b600d830154600090610f1d906001600160401b03168861516a565b90506000610f2a826112f6565b9050610f3633826124e7565b6001860154600090610f54908390600160b01b900461ffff1661254f565b90506000610f6a610f658385615195565b61255e565b9050610f74612587565b600289018054601190610f98908490600160881b90046001600160401b03166151a8565b92506101000a8154816001600160401b0302191690836001600160401b031602179055506000610ff28960020160119054906101000a90046001600160401b03166001600160401b031667464250526641000560c01b1790565b8954604051631700b8c760e31b81529192506001600160a01b03169063b805c63890611029908d90859087906000906004016151cf565b6020604051808303816000875af1158015611048573d6000803e3d6000fd5b505050506040513d601f19601f8201168201806040525081019061106c9190614fab565b9050336001600160a01b03167f81390715ea13edf7069460e93980705ef2cd439f5c4a1a7c4fc1a323a2d4996b8b8387876040516110ad9493929190615209565b60405180910390a25050505050505050505050565b6110ca6119b8565b600c8101546000805160206159cc83398151915290600160601b90046001600160401b0316600081900361113b5760405162461bcd60e51b81526020600482015260186024820152771b9bc81858dd1a5d99481c995d1d5c9b881c995c5d595cdd60421b6044820152606401610562565b815460405163a903532560e01b81526001600160a01b039091169063a90353259061116d9060028701906004016152e9565b600060405180830381600087803b15801561118757600080fd5b505af115801561119b573d6000803e3d6000fd5b505050506111a8836123f2565b806001600160401b03166111bb84611a17565b6001600160a01b03167f89413196dc66c2fb1b91c291e94b73b766a03f31219603ff31ef497ef202e93460405160405180910390a3505050565b60006000805160206159cc833981519152816112176112126125a5565b612606565b9050600061122e856001600160401b03168361261c565b600184015490915061124c908290600160a01b900461ffff1661254f565b95945050505050565b60008061126183612636565b600584015490915061128390600160401b90046001600160401b0316826118c2565b9150915091565b60006001600160401b038211156112f25760405162461bcd60e51b815260206004820152602660248201527f53616665436173743a2076616c756520646f65736e27742066697420696e203660448201526534206269747360d01b6064820152608401610562565b5090565b600080611301611994565b600c8101549091506102bf906001600160401b03600160901b90910481169085166152fc565b61132f6119b8565b6000805160206159cc8339815191528054604051632b656fef60e01b81526001600160a01b0390911690632b656fef906113709060028701906004016152e9565b602060405180830381865afa15801561138d573d6000803e3d6000fd5b505050506040513d601f19601f820116820180604052508101906113b1919061510b565b61141a5760405162461bcd60e51b815260206004820152603460248201527f6167656e74277320756e6465726c79696e672061646472657373206e6f7420616044820152731b1b1bddd95908189e4818dbdc99481d985d5b1d60621b6064820152608401610562565b600c830154600160601b90046001600160401b03161561148d5760405162461bcd60e51b815260206004820152602860248201527f72657475726e2066726f6d20636f7265207661756c7420616c72656164792072604482015267195c5d595cdd195960c21b6064820152608401610562565b600061149884612697565b90506000836001600160401b0316116114ea5760405162461bcd60e51b815260206004820152601460248201527363616e6e6f742072657475726e2030206c6f747360601b6044820152606401610562565b600160048086015460ff169081111561150557611505614fed565b146115495760405162461bcd60e51b8152602060048201526014602482015273696e76616c6964206167656e742073746174757360601b6044820152606401610562565b6001600160401b03831661155d8286612741565b10156115ab5760405162461bcd60e51b815260206004820152601a60248201527f6e6f7420656e6f756768206672656520636f6c6c61746572616c0000000000006044820152606401610562565b60006115b56124a3565b9050806001600160401b0316846001600160401b031611156115e95760405162461bcd60e51b815260040161056290615128565b6115f1612587565b600284018054600990611615908490600160481b90046001600160401b03166151a8565b82546101009290920a6001600160401b038181021990931691831602179091556002850154600c8801805467ffffffffffffffff60601b1916600160481b9092048316600160601b81029290921790819055909250600160a01b9004161561167f5761167f615313565b6000611689611994565b600d01546116a0906001600160401b03168761516a565b600c880180546001600160401b03808416600160a01b0267ffffffffffffffff60a01b1990921691909117909155600589018054929350839290916000916116ea918591166151a8565b92506101000a8154816001600160401b0302191690836001600160401b03160217905550600061172d836001600160401b031667119094149990400160c21b1790565b9050600061173d610f65846112f6565b8754604051631700b8c760e31b81529192506001600160a01b03169063b805c638906117779060028d019086908690600190600401615329565b6020604051808303816000875af1158015611796573d6000803e3d6000fd5b505050506040513d601f19601f820116820180604052508101906117ba9190614fab565b50836001600160401b03166117ce8a611a17565b6001600160a01b03167fbeb006f5c72be7811ac8a5314277e6fab21e6a2737d4119694735e8108990791848460405161181a9291909182526001600160801b0316602082015260400190565b60405180910390a3505050505050505050565b6000805160206159cc8339815191528054604080516385b4bb5360e01b815290516000939284926001600160a01b03909116916385b4bb53916004808201926080929091908290030181865afa15801561188b573d6000803e3d6000fd5b505050506040513d601f19601f820116820180604052508101906118af919061533c565b6001600160801b03169695505050505050565b60008183116118d25760006118dc565b6118dc8284615195565b90505b92915050565b60018201546000906001600160a01b0390811690831681148061198c575061190b612776565b604051631f86345d60e31b81526001600160a01b038381166004830152919091169063fc31a2e890602401602060405180830381865afa158015611953573d6000803e3d6000fd5b505050506040513d601f19601f820116820180604052508101906119779190615390565b6001600160a01b0316836001600160a01b0316145b949350505050565b7f4f24f5c433db0962dac0d2c8b84197a6e6c7cc4e5d9ebe1916a1b6193da2f33a90565b6000805160206159cc83398151915280546001600160a01b03166102a55760405162461bcd60e51b815260206004820152601660248201527518dbdc99481d985d5b1d081b9bdd08195b98589b195960521b6044820152606401610562565b7f5bebac0595fee029d42bb673937f5f1cb81cf8641382bc17774635de9b7d79651860401c90565b60006001600160ff1b038211156112f25760405162461bcd60e51b815260206004820152602860248201527f53616665436173743a2076616c756520646f65736e27742066697420696e2061604482015267371034b73a191a9b60c11b6064820152608401610562565b6000806000805160206159ac83398151915281611ac4611994565b600f0154600160801b900461ffff1690506000611adf611994565b600d01546001600160401b0316905060005b8281108015611b115750886001600160401b0316866001600160401b0316105b15611bef5760006008850181611b268d611a17565b6001600160a01b0316815260208101919091526040016000908120546001600160401b03169150819003611b5a5750611bef565b6001600160401b038181166000908152600787016020526040812060068e015481549193611b939291811691600160a01b9004166151a8565b9050611b9f85826153ad565b611ba990826153d3565b90506000611bc0611bba8b8f6153d3565b8361228b565b9050611bcc8482612794565b611bd6818b6151a8565b9950505050508080611be7906153f3565b915050611af1565b506000611c12611bff878b6153d3565b60068c01546001600160401b031661228b565b90508615611c3157611c2482826153ad565b611c2e90826153d3565b90505b6001600160401b03811615611c5657611c4a81876151a8565b9550611c568a8261296b565b8715611c6657611c668a876129bc565b611c6f866112f6565b94505050505094509492505050565b87516000906000805160206159ac833981519152908290611c9e906105c8565b895160208b01206003820154919250908103611cfc5760405162461bcd60e51b815260206004820181905260248201527f63616e6e6f742072656465656d20746f206167656e74277320616464726573736044820152606401610562565b6000611d0e610f658e602001516112f6565b9050611d198a612a55565b9450611db36040805161026081018252600080825260208201819052918101829052606081018290526080810182905260a0810182905260c0810182905260e08101829052610100810182905261012081018290529061014082019081526000602082018190526040820181905260608083018290526080830182905260a0830182905260c083015260e082018190526101009091015290565b8281526001600160801b0382166020820152600f8501546201000090046001600160401b031660608201528d51611dea9089612aea565b6001600160401b0390811660a0840152166080820152611e094261128a565b6001600160401b031661010082015286611e4f57611e4a610f65611e2b611994565b600e01546001600160801b03851690600160401b900461ffff1661254f565b611e52565b60005b6001600160801b031660408201526001600160a01b038d811660e08301528e511661012082015260208e01516001600160401b031660c082015260016101408201819052508a15156101608201526001600160a01b038a81166101808301526001600160401b038a81166101a084015261020083018e9052881515610220840152600c860154600160e01b900461ffff166102408401528781166000908152600a880160209081526040918290208551815590850151918501516001600160801b03928316600160801b918416820217600183015560608601516002808401805460808a015160a08b015160c08c0151958a166001600160801b031990931692909217600160401b918a1691909102179096169587169093026001600160c01b031694909417600160c01b9186169190910217905560e08501516003820180546101008801519287166001600160e01b031990911617600160a01b929095168202949094179093556101208501516004820180546001600160a01b0319811692909616918217815561014087015187969395909491936001600160a81b0319169092179190849081111561200857612008614fed565b021790555061016082015160048201805460ff60a81b1916600160a81b921515929092029190911790556101808201516005820180546101a08501516001600160a01b039093166001600160e01b031990911617600160a01b6001600160401b03938416021790556101c08301516006830180546101e08601519284166001600160801b031990911617600160401b929093169190910291909117905561020082015160078201906120ba9082615454565b50610220820151600890910180546102409093015161ffff166101000262ffff00199215159290921662ffffff199093169290921717905560208e01516121039085908d612c02565b61210e81878e612ca6565b505050505098975050505050505050565b612127612d6b565b80156101f5576000826001600160a01b031682620186a090604051600060405180830381858888f193505050503d8060008114612180576040519150601f19603f3d011682016040523d82523d6000602084013e612185565b606091505b50509050806121c85760405162461bcd60e51b815260206004820152600f60248201526e1d1c985b9cd9995c8819985a5b1959608a1b6044820152606401610562565b505050565b60006121e16102a083016102808401615524565b60ff16146122225760405162461bcd60e51b815260206004820152600e60248201526d1c185e5b595b9d0819985a5b195960921b6044820152606401610562565b6102a581612dcc565b6101f58260a0830135612f57565b6000808212156112f25760405162461bcd60e51b815260206004820181905260248201527f53616665436173743a2076616c7565206d75737420626520706f7369746976656044820152606401610562565b6000816001600160401b0316836001600160401b031611156122ad57816118dc565b5090919050565b60006122be611994565b60068401549091506000906122dd9084906001600160401b03166151a8565b600d8301549091506000906122fb906001600160401b0316836153ad565b9050600061230982846153d3565b90506123158686613020565b6001600160401b0381161561232e5761232e8682613040565b61233886836131bb565b505050505050565b61235161234c82611a3f565b613251565b60068301805460089061236f908490600160401b9004600f0b61553f565b92506101000a8154816001600160801b030219169083600f0b6001600160801b0316021790555061239f82611a17565b6006830154604051600160401b909104600f0b81526001600160a01b0391909116907f73da6891cb86668451f612d2555e88650888a0133a30b1d226b2d1f955e62bca9060200160405180910390a25050565b600c810154600160601b90046001600160401b0316158015906124285750600c810154600160a01b90046001600160401b031615155b61243457612434615313565b600c8101546005820180546001600160401b03600160a01b909304831692600091612461918591166153d3565b82546001600160401b039182166101009390930a928302919092021990911617905550600c0180546fffffffffffffffffffffffffffffffff60601b19169055565b6000806124ae611994565b905060006124ba610338565b600d8401549092506001600160401b031690506124d68261066f565b6124e0919061557e565b9250505090565b6124ef61327a565b604051632770a7eb60e21b81526001600160a01b038481166004830152602482018490529190911690639dc29fac90604401600060405180830381600087803b15801561253b57600080fd5b505af1158015612338573d6000803e3d6000fd5b60006118dc8383612710613298565b60006001600160801b038211156112f25760405162461bcd60e51b8152600401610562906155a4565b60006125956103e8436155eb565b6125a0906001614fda565b905090565b7fec7e8c1c441439dd40959777f4c577ea0cd42fcc1dbe59d2bd0f5d9c55df8dc5546000805160206159ac8339815191528054600092829161ffff9091169081106125f2576125f26155ff565b906000526020600020906004020191505090565b60006126138260006133be565b50909392505050565b60006118dc8261262e6009600a6156f9565b859190613298565b60008061264283612697565b9050600061265484836000015161357d565b9050600061266685846020015161357d565b9050600061267886856040015161357d565b905061268d8361268884846135f2565b6135f2565b9695505050505050565b6127026040805160c081019091526000606082018181526080830182905260a083019190915281908152604080516060810182526000808252602082810182905292820152910190815260408051606081018252600080825260208281018290529282015291015290565b600061270d83613601565b90506040518060600160405280612723856136c7565b81526020018281526020016127388584613754565b90529392505050565b600080612752846000015184613920565b90506000612764856020015185613920565b90506000612678866040015186613920565b600080612781611994565b600701546001600160a01b031692915050565b6001600160401b03821660009081527fec7e8c1c441439dd40959777f4c577ea0cd42fcc1dbe59d2bd0f5d9c55df8dbd6020819052604082208054919290916127e5906001600160a01b03166105c8565b905060006127f1611994565b600d0154600683015484546001600160401b03928316935060009288926128249290821691600160a01b909104166151a8565b61282e91906153d3565b9050600061283c83836153ad565b9050600061284a82846153d3565b9050806001600160401b03166000036128b457612867878a613956565b886001600160401b031661287a86611a17565b6001600160a01b03167fb7f65e70a51658e24800516a5dc90e2dd65176e18381adda77f58e2044482b1960405160405180910390a3612956565b85546001600160401b03828116600160a01b909204161461295657855467ffffffffffffffff60a01b1916600160a01b6001600160401b0383160217865560006128fd826112f6565b9050896001600160401b031661291287611a17565b6001600160a01b03167f9d2e72c50be7927e999d37329649af37a863df77bcb25361699ce021d3d7475d8360405161294c91815260200190565b60405180910390a3505b61296085836131bb565b505050505050505050565b600682015460408051808201909152600f81526e1b9bdd08195b9bdd59da08191d5cdd608a1b60208201526000916129b0916001600160401b03909116908490613d30565b90506121c883826131bb565b612a078260050160089054906101000a90046001600160401b031682604051806040016040528060118152602001701b9bdd08195b9bdd59da081b5a5b9d1959607a1b815250613d30565b8260050160086101000a8154816001600160401b0302191690836001600160401b031602179055506101f5612a3b83611a17565b6005840154600160401b90046001600160401b0316613d7b565b60006000805160206159ac83398151915281612a6f612587565b600e830154612a8e9190600160401b90046001600160401b03166151a8565b9050600084612a9e576000612aa1565b60015b60ff16600119612ab28460016151a8565b161790508083600e0160086101000a8154816001600160401b0302191690836001600160401b03160217905550809350505050919050565b6000806000805160206159ac83398151915281612b05611994565b9050600085612b1388613dc7565b600f850154600160901b90046001600160401b0316612b314261128a565b612b3b91906153d3565b612b4591906151a8565b612b4f91906151a8565b600c830154909150600090612b839063ffffffff16612b796001600160401b0385166103e86152fc565b6106a09190615019565b600d840154600f8601549192506001600160401b03600160981b909104811691612bb5918491620100009004166151a8565b612bbf91906151a8565b600e840154600f8601549197506001600160401b0390811691612beb918591600160501b9004166151a8565b612bf591906151a8565b9450505050509250929050565b818360050160108282829054906101000a90046001600160401b0316612c2891906151a8565b92506101000a8154816001600160401b0302191690836001600160401b0316021790555080612c9c57818360050160188282829054906101000a90046001600160401b0316612c7791906151a8565b92506101000a8154816001600160401b0302191690836001600160401b031602179055505b6121c883836129bc565b816001600160401b03168360e001516001600160a01b03168461012001516001600160a01b03167f8cbbd73a8d1b8b02a53c4c3b0ee34b472fe3099cc19bcfb57f1aae09e8a9847e848760200151886040015189606001518a608001518b60a00151612d258c6001600160401b031667232128293320800160c11b1790565b8d6101800151633b9aca008f6101a001516001600160401b0316612d4991906152fc565b604051612d5e99989796959493929190615705565b60405180910390a4505050565b6000805160206159ec83398151915254600214612dca5760405162461bcd60e51b815260206004820152601f60248201527f5265656e7472616e637947756172643a206775617264207265717569726564006044820152606401610562565b565b6000612dd6611994565b6008810154600b8201549192506001600160a01b031690604084013514612e2f5760405162461bcd60e51b815260206004820152600d60248201526c34b73b30b634b21031b430b4b760991b6044820152606401610562565b60405163a7a3797560e01b81526001600160a01b0382169063a7a3797590612e5b9086906004016158a9565b602060405180830381865afa158015612e78573d6000803e3d6000fd5b505050506040513d601f19601f82011682018060405250810190612e9c919061510b565b612ee85760405162461bcd60e51b815260206004820152601860248201527f6c6567616c207061796d656e74206e6f742070726f76656400000000000000006044820152606401610562565b612f0b612efd6101408501610120860161593c565b6001600160401b0316613e7f565b6121c85760405162461bcd60e51b815260206004820152601c60248201527f7665726966696564207472616e73616374696f6e20746f6f206f6c64000000006044820152606401610562565b60008181526020839052604090205415612fb35760405162461bcd60e51b815260206004820152601960248201527f7061796d656e7420616c726561647920636f6e6669726d6564000000000000006044820152606401610562565b6000612fc26201518042615019565b6000818152600185016020526040812054919250819003612fe35782612fe5565b805b600084815260208681526040808320939093558482526001870190529081208490556002850154900361301a57600284018290555b50505050565b6005820154612a07908290600160401b90046001600160401b03166151a8565b6000805160206159ac833981519152600061305a84611a17565b6009830154600160401b90046001600160401b031660008181526007850160205260409020805492935090916001600160a01b03808516911603613157578054859082906014906130bc908490600160a01b90046001600160401b03166151a8565b92506101000a8154816001600160401b0302191690836001600160401b0316021790555060006131028260000160149054906101000a90046001600160401b03166112f6565b9050826001600160401b0316846001600160a01b03167f9d2e72c50be7927e999d37329649af37a863df77bcb25361699ce021d3d7475d8360405161314991815260200190565b60405180910390a350612338565b6000613167600786018588613ea2565b90506000613174876112f6565b9050816001600160401b0316856001600160a01b03167f631f8f2039090539b2ea4ef7dc567f7f1939ef4dd3e790b1ca7bc548a1fada5883604051610d3f91815260200190565b60068201546001600160401b038083169116036131d6575050565b60068201805467ffffffffffffffff19166001600160401b03831617905560006131ff826112f6565b905061320a83611a17565b6001600160a01b03167fa3db2bc927901a1d3ba09ad51d84609457b98443be9132a0a936a47c5a1081b58260405161324491815260200190565b60405180910390a2505050565b80600f81900b81146132755760405162461bcd60e51b8152600401610562906155a4565b919050565b600080613285611994565b600101546001600160a01b031692915050565b60008082116132dc5760405162461bcd60e51b815260206004820152601060248201526f4469766973696f6e206279207a65726f60801b6044820152606401610562565b836000036132ec575060006102bf565b838302838582816132ff576132ff615003565b040361331d5782818161331457613314615003565b049150506102bf565b50600061332a8386615019565b9050600061333884876155eb565b905060006133468587615019565b9050600061335486886155eb565b90508561336182856152fc565b61336b9190615019565b61337583856152fc565b61337f83876152fc565b8861338a86896152fc565b61339491906152fc565b61339e9190614fda565b6133a89190614fda565b6133b29190614fda565b98975050505050505050565b60008060008060008061345d8860010180546133d990615238565b80601f016020809104026020016040519081016040528092919081815260200182805461340590615238565b80156134525780601f1061342757610100808354040283529160200191613452565b820191906000526020600020905b81548152906001019060200180831161343557829003601f168201915b5050505050886142ab565b8a549295509093509150600160f01b900460ff16156134a457875460009061349390600160a81b900460ff166001838786614376565b965091945084935061357692505050565b600080600061353f8b60020180546134bb90615238565b80601f01602080910402602001604051908101604052809291908181526020018280546134e790615238565b80156135345780601f1061350957610100808354040283529160200191613534565b820191906000526020600020905b81548152906001019060200180831161351757829003601f168201915b50505050508b6142ab565b8d54929550909350915060009061356390600160a81b900460ff1685848a89614376565b9950949750909550613576945050505050565b9250925092565b6000806000805160206159cc833981519152905060006135a18585600001516143fa565b91505060006135b8856020015186604001516144f4565b905060006135c98261271085613298565b60018501549091506135e7908290600160c01b900461ffff1661254f565b979650505050505050565b60008183106122ad57816118dc565b6136266040805160608101909152806000815260200160008152602001600081525090565b60006136318361450d565b60408051606081019091529091508060018152825485546040516370a0823160e01b81526001600160a01b0391821660048201526020909301929116906370a08231906024015b602060405180830381865afa158015613695573d6000803e3d6000fd5b505050506040513d601f19601f820116820180604052508101906136b99190614fab565b815260200161273883612606565b6136ec6040805160608101909152806000815260200160008152602001600081525090565b60006136f78361455c565b60408051606081019091526000815281549192509060208201906001600160a01b03166370a0823161372887611a17565b6040516001600160e01b031960e084901b1681526001600160a01b039091166004820152602401613678565b6137796040805160608101909152806000815260200160008152602001600081525090565b8254604080516332f7ce0b60e21b815290516000926001600160a01b03169163cbdf382c9160048083019260209291908290030181865afa1580156137c2573d6000803e3d6000fd5b505050506040513d601f19601f820116820180604052508101906137e69190615390565b90506000816001600160a01b03166370a0823161380287611a17565b6040516001600160e01b031960e084901b1681526001600160a01b039091166004820152602401602060405180830381865afa158015613846573d6000803e3d6000fd5b505050506040513d601f19601f8201168201806040525081019061386a9190614fab565b90506000826001600160a01b03166318160ddd6040518163ffffffff1660e01b8152600401602060405180830381865afa1580156138ac573d6000803e3d6000fd5b505050506040513d601f19601f820116820180604052508101906138d09190614fab565b9050600085602001516000036138e75760006138fc565b602086015160408701516138fc918490613298565b60408051606081018252600281526020810195909552840152509095945050505050565b60008061392d8484614593565b9050600061393b85856145b0565b90508060000361394c57600061124c565b61124c8183615019565b6001600160401b038116600090815260208390526040902080546001600160a01b031661398557613985615313565b80546001600160a01b031660009081526001808501602052604082209083015490916001600160401b039091169003613a0b5760028401546001600160401b038481169116146139d7576139d7615313565b6001820154600285018054600160401b9092046001600160401b031667ffffffffffffffff19909216919091179055613a73565b60028401546001600160401b0390811690841603613a2b57613a2b615313565b6001828101546001600160401b038082166000908152602088905260409020909201805467ffffffffffffffff60401b1916600160401b928390049093169091029190911790555b6001820154600160401b90046001600160401b0316600003613aea5760028401546001600160401b03848116600160401b9092041614613ab557613ab5615313565b600182015460028501805467ffffffffffffffff60401b19166001600160401b03909216600160401b02919091179055613b52565b60028401546001600160401b03600160401b909104811690841603613b1157613b11615313565b600180830154600160401b81046001600160401b039081166000908152602088905260409020909201805467ffffffffffffffff1916929091169190911790555b6001820154600160801b90046001600160401b0316600003613bb75780546001600160401b03848116911614613b8a57613b8a615313565b60018201548154600160c01b9091046001600160401b031667ffffffffffffffff19909116178155613c1d565b80546001600160401b0390811690841603613bd457613bd4615313565b6001828101546001600160401b03600160801b82048116600090815260208890526040902090920180546001600160c01b0316600160c01b928390049093169091029190911790555b6001820154600160c01b90046001600160401b0316600003613c905780546001600160401b03848116600160401b9092041614613c5c57613c5c615313565b6001820154815467ffffffffffffffff60401b1916600160801b9091046001600160401b0316600160401b02178155613d02565b80546001600160401b03600160401b909104811690841603613cb457613cb4615313565b6001828101546001600160401b03600160c01b820481166000908152602088905260409020909201805467ffffffffffffffff60801b1916600160801b928390049093169091029190911790555b50506001600160401b031660009081526020919091526040812080546001600160e01b031916815560010155565b6000826001600160401b0316846001600160401b031610158290613d675760405162461bcd60e51b815260040161056291906150ea565b5050506001600160401b0390811691160390565b7f341c6685fdb8ed7133465b64f545b9fbc5699a59cbd1ad98992e5c070a74c5106121c87f341c6685fdb8ed7133465b64f545b9fbc5699a59cbd1ad98992e5c070a74c51184846145fc565b6001600160a01b03811660009081527f1309a575a1ebd5e5ca64d58e63b864f1d06aed3e31a021b0eabae653c215fb07602052604081207f1309a575a1ebd5e5ca64d58e63b864f1d06aed3e31a021b0eabae653c215fb069082613e2a4261128a565b83548354919250600091613e4a916001600160401b0390811691166151a8565b9050613e568183614665565b835467ffffffffffffffff19166001600160401b0391909116908117845561268d9083906153d3565b6000613e8f600e620151806152fc565b613e999042615195565b90911015919050565b6001600160a01b03821660009081526001840160205260408120600285018054839190601090613ee190600160801b90046001600160401b0316615957565b91906101000a8154816001600160401b0302191690836001600160401b03160217905590506040518060c00160405280866001600160a01b03168152602001856001600160401b031681526020018760020160089054906101000a90046001600160401b03166001600160401b0316815260200160006001600160401b031681526020018360000160089054906101000a90046001600160401b03166001600160401b0316815260200160006001600160401b0316815250866000016000836001600160401b03166001600160401b0316815260200190815260200160002060008201518160000160006101000a8154816001600160a01b0302191690836001600160a01b0316021790555060208201518160000160146101000a8154816001600160401b0302191690836001600160401b0316021790555060408201518160010160006101000a8154816001600160401b0302191690836001600160401b0316021790555060608201518160010160086101000a8154816001600160401b0302191690836001600160401b0316021790555060808201518160010160106101000a8154816001600160401b0302191690836001600160401b0316021790555060a08201518160010160186101000a8154816001600160401b0302191690836001600160401b031602179055509050508560020160009054906101000a90046001600160401b03166001600160401b031660000361413e576002860154600160401b90046001600160401b03161561411b5761411b615313565b60028601805467ffffffffffffffff19166001600160401b0383161790556141a6565b6002860154600160401b90046001600160401b031660000361416257614162615313565b6002860154600160401b908190046001600160401b039081166000908152602089905260409020600101805467ffffffffffffffff60401b19169184169092021790555b6002860180546001600160401b03808416600160401b0267ffffffffffffffff60401b199092169190911790915582541660000361421c578154600160401b90046001600160401b0316156141fd576141fd615313565b815467ffffffffffffffff19166001600160401b03821617825561427f565b8154600160401b90046001600160401b031660000361423d5761423d615313565b81546001600160401b03600160401b909104811660009081526020889052604090206001018054918316600160c01b026001600160c01b039092169190911790555b815467ffffffffffffffff60401b1916600160401b6001600160401b0383160217909155949350505050565b6000806000806142b9611994565b600a8101549091506001600160a01b0316851561434a5760405163e4a0a55b60e01b81526001600160a01b0382169063e4a0a55b906142fc908a906004016150ea565b606060405180830381865afa158015614319573d6000803e3d6000fd5b505050506040513d601f19601f8201168201806040525081019061433d919061597d565b9450945094505050613576565b60405163524f388960e01b81526001600160a01b0382169063524f3889906142fc908a906004016150ea565b600080614381611994565b905060006009614391878a614fda565b61439b9190614fda565b600a8301549091506000906143bb908690600160a81b900460ff16614fda565b9050808210156143cd576143cd615313565b6143ed6143da8284615195565b6143e590600a6156f9565b87908a613298565b9998505050505050505050565b600080600283600281111561441157614411614fed565b0361446c576000806144248660016143fa565b915091506000614432611994565b600c015463ffffffff64010000000090910481169150614456908290849061254f16565b9350614462818461254f565b94505050506144ed565b600183600281111561448057614480614fed565b036144bb5761448e8461450d565b60030154600485015463ffffffff91821692506144b491600160881b9091041682614687565b91506144ed565b6144c48461455c565b60030154600485015463ffffffff91821692506144ea91600160681b9091041682614687565b91505b9250929050565b60006118dc6145056009600a6156f9565b849084613298565b6000806000805160206159ac833981519152600484015481549192508291630100000090910461ffff16908110614546576145466155ff565b9060005260206000209060040201915050919050565b6000806000805160206159ac83398151915260048401548154919250829161010090910461ffff16908110614546576145466155ff565b6000806145a08484614696565b905061198c8460200151826118c2565b6000806145bb611994565b905060006145cd8486600001516143fa565b50600d830154604087015191925061124c9183916145f6916001600160401b039091169061261c565b9061254f565b6001600160a01b0382166000908152600484016020526040812090614620826147c0565b9050600061462d866147c0565b905061463a83428661485b565b61465b428361464987856151a8565b61465391906153d3565b88919061485b565b6123388684614bcc565b6000816001600160401b0316836001600160401b031610156122ad57816118dc565b60008183116122ad57816118dc565b60008060006146a98486600001516143fa565b600586015491935091506000906146d2906001600160401b03600160401b820481169116614fda565b905060006146e8846145f6848a6040015161261c565b9050600060018851600281111561470157614701614fed565b14614720576005870154600160801b90046001600160401b0316614736565b6005870154600160c01b90046001600160401b03165b90506000614755856145f6846001600160401b03168c6040015161261c565b9050600060018a51600281111561476e5761476e614fed565b0361477a576000614792565b8951614787908a90614c09565b546001600160801b03165b6001600160801b03169050806147a88386614fda565b6147b29190614fda565b9a9950505050505050505050565b6001810154600090600160401b90046001600160401b031681036147e657506000919050565b60018201546001600160401b03808216600160401b909204161161480c5761480c615313565b60018281015483916000916148319190600160401b90046001600160401b03166153d3565b6001600160401b039081168252602082019290925260400160002054600160c01b90041692915050565b6001830154600160401b90046001600160401b031660000361497a5760018301546001600160401b03161561489257614892615313565b604051806060016040528060006001600160801b031681526020016148b68461128a565b6001600160401b0390811682528381166020909201919091526001850180548692600092600160401b909204169060086148ef83615957565b82546001600160401b039182166101009390930a92830292820219169190911790915590811682526020808301939093526040918201600020845181549486015195909301518216600160c01b026001600160c01b0395909216600160801b026001600160c01b03199094166001600160801b03909316929092179290921792909216179055505050565b60018301546001600160401b03808216600160401b90920416116149a0576149a0615313565b600183810154600091859183916149c691600160401b90046001600160401b03166153d3565b6001600160401b03908116825260208201929092526040016000208054909250600160801b900416839003614a185780546001600160c01b0316600160c01b6001600160401b0384160217815561301a565b8054600160801b90046001600160401b03168311614a895760405162461bcd60e51b815260206004820152602860248201527f54696d6543756d756c61746976653a2074696d657374616d70206e6f7420696e6044820152676372656173696e6760c01b6064820152608401610562565b8054600090614aa890600160801b90046001600160401b031685615195565b8254614ac49190600160c01b90046001600160401b03166152fc565b8254614ad991906001600160801b0316614fda565b90506040518060600160405280614aef8361255e565b6001600160801b03168152602001614b068661128a565b6001600160401b0390811682528581166020909201919091526001870180548892600092600160401b90920416906008614b3f83615957565b82546001600160401b039182166101009390930a92830292820219169190911790915590811682526020808301939093526040918201600020845181549486015195909301518216600160c01b026001600160c01b0395909216600160801b026001600160c01b03199094166001600160801b039093169290921792909217929092161790555050505050565b6003820154600090614bef908490600160c01b90046001600160401b0316614c56565b9050614bfd82826002614c91565b6121c883826002614c91565b60006001826002811115614c1f57614c1f614fed565b03614c2c57614c2c615313565b6000826002811115614c4057614c40614fed565b14614c4e57826009016118dc565b505060080190565b6003820154600090614c79908390600160401b90046001600160401b03166152fc565b60038401546118dc91906001600160401b0316614fda565b60018301546001600160401b0380821691600160401b90041660005b8381108015614cc5575081614cc3846001614fda565b105b8015614cfe575084866000614cdb866001614fda565b8152602081019190915260400160002054600160801b90046001600160401b0316105b15614d2d57600083815260208790526040812055614d1b836153f3565b9250614d26816153f3565b9050614cad565b614d368361128a565b600196909601805467ffffffffffffffff19166001600160401b03909716969096179095555050505050565b6001600160a01b03811681146102a557600080fd5b60008060408385031215614d8a57600080fd5b8235614d9581614d62565b946020939093013593505050565b60008060408385031215614db657600080fd5b82356001600160401b03811115614dcc57600080fd5b83016102a08186031215614ddf57600080fd5b91506020830135614def81614d62565b809150509250929050565b80356001600160401b038116811461327557600080fd5b634e487b7160e01b600052604160045260246000fd5b604051601f8201601f191681016001600160401b0381118282101715614e4f57614e4f614e11565b604052919050565b60006001600160401b03821115614e7057614e70614e11565b50601f01601f191660200190565b60008060408385031215614e9157600080fd5b614e9a83614dfa565b915060208301356001600160401b03811115614eb557600080fd5b8301601f81018513614ec657600080fd5b8035614ed9614ed482614e57565b614e27565b818152866020838501011115614eee57600080fd5b816020840160208301376000602083830101528093505050509250929050565b600060208284031215614f2057600080fd5b81356102bf81614d62565b600060208284031215614f3d57600080fd5b5035919050565b60008060408385031215614f5757600080fd5b8235614f6281614d62565b9150614f7060208401614dfa565b90509250929050565b80516001600160801b038116811461327557600080fd5b600060208284031215614fa257600080fd5b6118dc82614f79565b600060208284031215614fbd57600080fd5b5051919050565b634e487b7160e01b600052601160045260246000fd5b808201808211156118df576118df614fc4565b634e487b7160e01b600052602160045260246000fd5b634e487b7160e01b600052601260045260246000fd5b60008261502857615028615003565b500490565b60005b83811015615048578181015183820152602001615030565b50506000910152565b60006020828403121561506357600080fd5b81516001600160401b0381111561507957600080fd5b8201601f8101841361508a57600080fd5b8051615098614ed482614e57565b8181528560208385010111156150ad57600080fd5b61124c82602083016020860161502d565b600081518084526150d681602086016020860161502d565b601f01601f19169290920160200192915050565b6020815260006118dc60208301846150be565b80151581146102a557600080fd5b60006020828403121561511d57600080fd5b81516102bf816150fd565b60208082526022908201527f6e6f7420656e6f75676820617661696c61626c65206f6e20636f7265207661756040820152611b1d60f21b606082015260800190565b6001600160401b0381811683821602808216919082811461518d5761518d614fc4565b505092915050565b818103818111156118df576118df614fc4565b6001600160401b038181168382160190808211156151c8576151c8614fc4565b5092915050565b6080815260006151e260808301876150be565b6020830195909552506001600160801b039290921660408301521515606090910152919050565b60808152600061521c60808301876150be565b6020830195909552506040810192909252606090910152919050565b600181811c9082168061524c57607f821691505b60208210810361066957634e487b7160e01b600052602260045260246000fd5b6000815461527981615238565b80855260206001838116801561529657600181146152b0576152de565b60ff1985168884015283151560051b8801830195506152de565b866000528260002060005b858110156152d65781548a82018601529083019084016152bb565b890184019650505b505050505092915050565b6020815260006118dc602083018461526c565b80820281158282048414176118df576118df614fc4565b634e487b7160e01b600052600160045260246000fd5b6080815260006151e2608083018761526c565b6000806000806080858703121561535257600080fd5b61535b85614f79565b935061536960208601614f79565b925061537760408601614f79565b915061538560608601614f79565b905092959194509250565b6000602082840312156153a257600080fd5b81516102bf81614d62565b60006001600160401b03808416806153c7576153c7615003565b92169190910692915050565b6001600160401b038281168282160390808211156151c8576151c8614fc4565b60006001820161540557615405614fc4565b5060010190565b601f8211156121c8576000816000526020600020601f850160051c810160208610156154355750805b601f850160051c820191505b8181101561233857828155600101615441565b81516001600160401b0381111561546d5761546d614e11565b6154818161547b8454615238565b8461540c565b602080601f8311600181146154b6576000841561549e5750858301515b600019600386901b1c1916600185901b178555612338565b600085815260208120601f198616915b828110156154e5578886015182559484019460019091019084016154c6565b50858210156155035787850151600019600388901b60f8161c191681555b5050505050600190811b01905550565b803560ff8116811461327557600080fd5b60006020828403121561553657600080fd5b6118dc82615513565b600f81810b9083900b016f7fffffffffffffffffffffffffffffff81136f7fffffffffffffffffffffffffffffff19821217156118df576118df614fc4565b60006001600160401b038084168061559857615598615003565b92169190910492915050565b60208082526027908201527f53616665436173743a2076616c756520646f65736e27742066697420696e20316040820152663238206269747360c81b606082015260800190565b6000826155fa576155fa615003565b500690565b634e487b7160e01b600052603260045260246000fd5b600181815b8085111561565057816000190482111561563657615636614fc4565b8085161561564357918102915b93841c939080029061561a565b509250929050565b600082615667575060016118df565b81615674575060006118df565b816001811461568a5760028114615694576156b0565b60019150506118df565b60ff8411156156a5576156a5614fc4565b50506001821b6118df565b5060208310610133831016604e8410600b84101617156156d3575081810a6118df565b6156dd8383615615565b80600019048211156156f1576156f1614fc4565b029392505050565b60006118dc8383615658565b60006101208083526157198184018d6150be565b6001600160801b039b8c16602085015299909a166040830152506001600160401b03968716606082015294861660808601529290941660a084015260c08301526001600160a01b0390921660e0820152610100015292915050565b8035613275816150fd565b803582526020810135602083015261579960408201614dfa565b6001600160401b038082166040850152806157b660608501614dfa565b16606085015250506080810135608083015260a081013560a083015260c081013560c08301526157fc60e083016157ef60e08401614dfa565b6001600160401b03169052565b61010061580a818301614dfa565b6001600160401b03169083015261012081810135908301526101408082013590830152610160808201359083015261018080820135908301526101a080820135908301526101c080820135908301526101e0808201359083015261020080820135908301526102208082013590830152610240615888818301615774565b15159083015261026061589c828201615513565b60ff81168483015261301a565b6020815260008235601e198436030181126158c357600080fd5b83016020810190356001600160401b038111156158df57600080fd5b8060051b8036038313156158f257600080fd5b6102a060208601526102c085018290526102e06001600160fb1b0383111561591957600080fd5b81848288013761592f604087016020890161577f565b9401909301949350505050565b60006020828403121561594e57600080fd5b6118dc82614dfa565b60006001600160401b0380831681810361597357615973614fc4565b6001019392505050565b60008060006060848603121561599257600080fd5b835192506020840151915060408401519050925092509256feec7e8c1c441439dd40959777f4c577ea0cd42fcc1dbe59d2bd0f5d9c55df8db6908500188c8f91f50d58dffac83eda18fc06d9da0208fc6b66c78a4c3fec74f20cd2207518cd3e5213e2c6dbe63d55b60aa893c194a427b7d7f1600408fd5bdea2646970667358221220cec8df9a122430093da077f3b19c07b069cfc60fd418c2015ddc793d53dabea964736f6c63430008170033",
  "linkReferences": {},
  "deployedLinkReferences": {}
}