{
  "_format": "hh-sol-artifact-1",
  "contractName": "TrivialAddressValidatorMock",
  "sourceName": "contracts/fasset/mock/TrivialAddressValidatorMock.sol",
  "abi": [
    {
      "inputs": [
        {
          "internalType": "string",
          "name": "_underlyingAddress",
          "type": "string"
        }
      ],
      "name": "normalize",
      "outputs": [
        {
          "internalType": "string",
          "name": "_normalizedAddress",
          "type": "string"
        },
        {
          "internalType": "bytes32",
          "name": "_uniqueHash",
          "type": "bytes32"
        }
      ],
      "stateMutability": "pure",
      "type": "function"
    },
    {
      "inputs": [
        {
          "internalType": "string",
          "name": "",
          "type": "string"
        }
      ],
      "name": "validate",
      "outputs": [
        {
          "internalType": "bool",
          "name": "",
          "type": "bool"
        }
      ],
      "stateMutability": "pure",
      "type": "function"
    }
  ],
  "bytecode": "0x608060405234801561001057600080fd5b506101e9806100206000396000f3fe608060405234801561001057600080fd5b50600436106100365760003560e01c80639f10f4b51461003b578063d182b83b1461006b575b600080fd5b6100546100493660046100a5565b805160208201209091565b604051610062929190610156565b60405180910390f35b61007f6100793660046100a5565b50600190565b6040519015158152602001610062565b634e487b7160e01b600052604160045260246000fd5b6000602082840312156100b757600080fd5b813567ffffffffffffffff808211156100cf57600080fd5b818401915084601f8301126100e357600080fd5b8135818111156100f5576100f561008f565b604051601f8201601f19908116603f0116810190838211818310171561011d5761011d61008f565b8160405282815287602084870101111561013657600080fd5b826020860160208301376000928101602001929092525095945050505050565b604081526000835180604084015260005b818110156101845760208187018101516060868401015201610167565b81811115610196576000606083860101525b50602083019390935250601f91909101601f19160160600191905056fea2646970667358221220140ebaddc956266f91e0d60c414a0fdec5fc4c48b5d111c3b7b692e20de0e7da64736f6c634300080b0033",
  "linkReferences": {},
  "deployedLinkReferences": {}
}