{
  "_format": "hh-sol-artifact-1",
  "contractName": "AssetManagerController",
  "sourceName": "contracts/fasset/implementation/AssetManagerController.sol",
  "abi": [
    {
      "inputs": [
        {
          "internalType": "contract IGovernanceSettings",
          "name": "_governanceSettings",
          "type": "address"
        },
        {
          "internalType": "address",
          "name": "_initialGovernance",
          "type": "address"
        },
        {
          "internalType": "address",
          "name": "_addressUpdater",
          "type": "address"
        }
      ],
      "stateMutability": "nonpayable",
      "type": "constructor"
    },
    {
      "anonymous": false,
      "inputs": [
        {
          "indexed": true,
          "internalType": "address",
          "name": "agentVault",
          "type": "address"
        },
        {
          "indexed": false,
          "internalType": "uint256",
          "name": "feeBIPS",
          "type": "uint256"
        },
        {
          "indexed": false,
          "internalType": "uint256",
          "name": "mintingVaultCollateralRatioBIPS",
          "type": "uint256"
        },
        {
          "indexed": false,
          "internalType": "uint256",
          "name": "mintingPoolCollateralRatioBIPS",
          "type": "uint256"
        },
        {
          "indexed": false,
          "internalType": "uint256",
          "name": "freeCollateralLots",
          "type": "uint256"
        }
      ],
      "name": "AgentAvailable",
      "type": "event"
    },
    {
      "anonymous": false,
      "inputs": [
        {
          "indexed": true,
          "internalType": "address",
          "name": "agentVault",
          "type": "address"
        },
        {
          "indexed": false,
          "internalType": "uint8",
          "name": "collateralClass",
          "type": "uint8"
        },
        {
          "indexed": false,
          "internalType": "address",
          "name": "token",
          "type": "address"
        }
      ],
      "name": "AgentCollateralTypeChanged",
      "type": "event"
    },
    {
      "anonymous": false,
      "inputs": [
        {
          "indexed": true,
          "internalType": "address",
          "name": "agentVault",
          "type": "address"
        },
        {
          "indexed": false,
          "internalType": "uint256",
          "name": "destroyAllowedAt",
          "type": "uint256"
        }
      ],
      "name": "AgentDestroyAnnounced",
      "type": "event"
    },
    {
      "anonymous": false,
      "inputs": [
        {
          "indexed": true,
          "internalType": "address",
          "name": "agentVault",
          "type": "address"
        }
      ],
      "name": "AgentDestroyed",
      "type": "event"
    },
    {
      "anonymous": false,
      "inputs": [
        {
          "indexed": true,
          "internalType": "address",
          "name": "agentVault",
          "type": "address"
        },
        {
          "indexed": false,
          "internalType": "uint256",
          "name": "timestamp",
          "type": "uint256"
        }
      ],
      "name": "AgentInCCB",
      "type": "event"
    },
    {
      "anonymous": false,
      "inputs": [
        {
          "indexed": true,
          "internalType": "address",
          "name": "agentVault",
          "type": "address"
        },
        {
          "indexed": false,
          "internalType": "string",
          "name": "name",
          "type": "string"
        },
        {
          "indexed": false,
          "internalType": "uint256",
          "name": "value",
          "type": "uint256"
        },
        {
          "indexed": false,
          "internalType": "uint256",
          "name": "validAt",
          "type": "uint256"
        }
      ],
      "name": "AgentSettingChangeAnnounced",
      "type": "event"
    },
    {
      "anonymous": false,
      "inputs": [
        {
          "indexed": true,
          "internalType": "address",
          "name": "agentVault",
          "type": "address"
        },
        {
          "indexed": false,
          "internalType": "string",
          "name": "name",
          "type": "string"
        },
        {
          "indexed": false,
          "internalType": "uint256",
          "name": "value",
          "type": "uint256"
        }
      ],
      "name": "AgentSettingChanged",
      "type": "event"
    },
    {
      "anonymous": false,
      "inputs": [
        {
          "indexed": true,
          "internalType": "address",
          "name": "owner",
          "type": "address"
        },
        {
          "indexed": true,
          "internalType": "address",
          "name": "agentVault",
          "type": "address"
        },
        {
          "indexed": true,
          "internalType": "address",
          "name": "collateralPool",
          "type": "address"
        },
        {
          "indexed": false,
          "internalType": "string",
          "name": "underlyingAddress",
          "type": "string"
        },
        {
          "indexed": false,
          "internalType": "address",
          "name": "vaultCollateralToken",
          "type": "address"
        },
        {
          "indexed": false,
          "internalType": "uint256",
          "name": "feeBIPS",
          "type": "uint256"
        },
        {
          "indexed": false,
          "internalType": "uint256",
          "name": "poolFeeShareBIPS",
          "type": "uint256"
        },
        {
          "indexed": false,
          "internalType": "uint256",
          "name": "mintingVaultCollateralRatioBIPS",
          "type": "uint256"
        },
        {
          "indexed": false,
          "internalType": "uint256",
          "name": "mintingPoolCollateralRatioBIPS",
          "type": "uint256"
        },
        {
          "indexed": false,
          "internalType": "uint256",
          "name": "buyFAssetByAgentFactorBIPS",
          "type": "uint256"
        },
        {
          "indexed": false,
          "internalType": "uint256",
          "name": "poolExitCollateralRatioBIPS",
          "type": "uint256"
        },
        {
          "indexed": false,
          "internalType": "uint256",
          "name": "poolTopupCollateralRatioBIPS",
          "type": "uint256"
        },
        {
          "indexed": false,
          "internalType": "uint256",
          "name": "poolTopupTokenPriceFactorBIPS",
          "type": "uint256"
        }
      ],
      "name": "AgentVaultCreated",
      "type": "event"
    },
    {
      "anonymous": false,
      "inputs": [
        {
          "indexed": true,
          "internalType": "address",
          "name": "agentVault",
          "type": "address"
        },
        {
          "indexed": false,
          "internalType": "uint256",
          "name": "exitAllowedAt",
          "type": "uint256"
        }
      ],
      "name": "AvailableAgentExitAnnounced",
      "type": "event"
    },
    {
      "anonymous": false,
      "inputs": [
        {
          "indexed": true,
          "internalType": "address",
          "name": "agentVault",
          "type": "address"
        }
      ],
      "name": "AvailableAgentExited",
      "type": "event"
    },
    {
      "anonymous": false,
      "inputs": [
        {
          "indexed": false,
          "internalType": "uint8",
          "name": "collateralClass",
          "type": "uint8"
        },
        {
          "indexed": false,
          "internalType": "address",
          "name": "collateralToken",
          "type": "address"
        },
        {
          "indexed": false,
          "internalType": "uint256",
          "name": "minCollateralRatioBIPS",
          "type": "uint256"
        },
        {
          "indexed": false,
          "internalType": "uint256",
          "name": "ccbMinCollateralRatioBIPS",
          "type": "uint256"
        },
        {
          "indexed": false,
          "internalType": "uint256",
          "name": "safetyMinCollateralRatioBIPS",
          "type": "uint256"
        }
      ],
      "name": "CollateralRatiosChanged",
      "type": "event"
    },
    {
      "anonymous": false,
      "inputs": [
        {
          "indexed": true,
          "internalType": "address",
          "name": "agentVault",
          "type": "address"
        },
        {
          "indexed": true,
          "internalType": "address",
          "name": "minter",
          "type": "address"
        },
        {
          "indexed": true,
          "internalType": "uint256",
          "name": "collateralReservationId",
          "type": "uint256"
        },
        {
          "indexed": false,
          "internalType": "uint256",
          "name": "reservedAmountUBA",
          "type": "uint256"
        }
      ],
      "name": "CollateralReservationDeleted",
      "type": "event"
    },
    {
      "anonymous": false,
      "inputs": [
        {
          "indexed": true,
          "internalType": "address",
          "name": "agentVault",
          "type": "address"
        },
        {
          "indexed": true,
          "internalType": "address",
          "name": "minter",
          "type": "address"
        },
        {
          "indexed": true,
          "internalType": "uint256",
          "name": "collateralReservationId",
          "type": "uint256"
        },
        {
          "indexed": false,
          "internalType": "uint256",
          "name": "valueUBA",
          "type": "uint256"
        },
        {
          "indexed": false,
          "internalType": "uint256",
          "name": "feeUBA",
          "type": "uint256"
        },
        {
          "indexed": false,
          "internalType": "uint256",
          "name": "firstUnderlyingBlock",
          "type": "uint256"
        },
        {
          "indexed": false,
          "internalType": "uint256",
          "name": "lastUnderlyingBlock",
          "type": "uint256"
        },
        {
          "indexed": false,
          "internalType": "uint256",
          "name": "lastUnderlyingTimestamp",
          "type": "uint256"
        },
        {
          "indexed": false,
          "internalType": "string",
          "name": "paymentAddress",
          "type": "string"
        },
        {
          "indexed": false,
          "internalType": "bytes32",
          "name": "paymentReference",
          "type": "bytes32"
        },
        {
          "indexed": false,
          "internalType": "address",
          "name": "executor",
          "type": "address"
        },
        {
          "indexed": false,
          "internalType": "uint256",
          "name": "executorFeeNatWei",
          "type": "uint256"
        }
      ],
      "name": "CollateralReserved",
      "type": "event"
    },
    {
      "anonymous": false,
      "inputs": [
        {
          "indexed": false,
          "internalType": "uint8",
          "name": "collateralClass",
          "type": "uint8"
        },
        {
          "indexed": false,
          "internalType": "address",
          "name": "token",
          "type": "address"
        },
        {
          "indexed": false,
          "internalType": "uint256",
          "name": "decimals",
          "type": "uint256"
        },
        {
          "indexed": false,
          "internalType": "bool",
          "name": "directPricePair",
          "type": "bool"
        },
        {
          "indexed": false,
          "internalType": "string",
          "name": "assetFtsoSymbol",
          "type": "string"
        },
        {
          "indexed": false,
          "internalType": "string",
          "name": "tokenFtsoSymbol",
          "type": "string"
        },
        {
          "indexed": false,
          "internalType": "uint256",
          "name": "minCollateralRatioBIPS",
          "type": "uint256"
        },
        {
          "indexed": false,
          "internalType": "uint256",
          "name": "ccbMinCollateralRatioBIPS",
          "type": "uint256"
        },
        {
          "indexed": false,
          "internalType": "uint256",
          "name": "safetyMinCollateralRatioBIPS",
          "type": "uint256"
        }
      ],
      "name": "CollateralTypeAdded",
      "type": "event"
    },
    {
      "anonymous": false,
      "inputs": [
        {
          "indexed": false,
          "internalType": "uint8",
          "name": "collateralClass",
          "type": "uint8"
        },
        {
          "indexed": false,
          "internalType": "address",
          "name": "collateralToken",
          "type": "address"
        },
        {
          "indexed": false,
          "internalType": "uint256",
          "name": "validUntil",
          "type": "uint256"
        }
      ],
      "name": "CollateralTypeDeprecated",
      "type": "event"
    },
    {
      "anonymous": false,
      "inputs": [
        {
          "indexed": false,
          "internalType": "string",
          "name": "name",
          "type": "string"
        },
        {
          "indexed": false,
          "internalType": "address",
          "name": "value",
          "type": "address"
        }
      ],
      "name": "ContractChanged",
      "type": "event"
    },
    {
      "anonymous": false,
      "inputs": [
        {
          "indexed": false,
          "internalType": "uint256",
          "name": "underlyingBlockNumber",
          "type": "uint256"
        },
        {
          "indexed": false,
          "internalType": "uint256",
          "name": "underlyingBlockTimestamp",
          "type": "uint256"
        },
        {
          "indexed": false,
          "internalType": "uint256",
          "name": "updatedAt",
          "type": "uint256"
        }
      ],
      "name": "CurrentUnderlyingBlockUpdated",
      "type": "event"
    },
    {
      "anonymous": false,
      "inputs": [
        {
          "indexed": true,
          "internalType": "address",
          "name": "agentVault",
          "type": "address"
        },
        {
          "indexed": false,
          "internalType": "bytes32",
          "name": "transactionHash1",
          "type": "bytes32"
        },
        {
          "indexed": false,
          "internalType": "bytes32",
          "name": "transactionHash2",
          "type": "bytes32"
        }
      ],
      "name": "DuplicatePaymentConfirmed",
      "type": "event"
    },
    {
      "anonymous": false,
      "inputs": [
        {
          "indexed": true,
          "internalType": "address",
          "name": "agentVault",
          "type": "address"
        },
        {
          "indexed": false,
          "internalType": "uint256",
          "name": "dustUBA",
          "type": "uint256"
        }
      ],
      "name": "DustChanged",
      "type": "event"
    },
    {
      "anonymous": false,
      "inputs": [
        {
          "indexed": true,
          "internalType": "address",
          "name": "agentVault",
          "type": "address"
        },
        {
          "indexed": false,
          "internalType": "uint256",
          "name": "timestamp",
          "type": "uint256"
        }
      ],
      "name": "FullLiquidationStarted",
      "type": "event"
    },
    {
      "anonymous": false,
      "inputs": [
        {
          "indexed": false,
          "internalType": "bytes4",
          "name": "selector",
          "type": "bytes4"
        },
        {
          "indexed": false,
          "internalType": "uint256",
          "name": "allowedAfterTimestamp",
          "type": "uint256"
        },
        {
          "indexed": false,
          "internalType": "bytes",
          "name": "encodedCall",
          "type": "bytes"
        }
      ],
      "name": "GovernanceCallTimelocked",
      "type": "event"
    },
    {
      "anonymous": false,
      "inputs": [
        {
          "indexed": false,
          "internalType": "address",
          "name": "initialGovernance",
          "type": "address"
        }
      ],
      "name": "GovernanceInitialised",
      "type": "event"
    },
    {
      "anonymous": false,
      "inputs": [
        {
          "indexed": false,
          "internalType": "address",
          "name": "governanceSettings",
          "type": "address"
        }
      ],
      "name": "GovernedProductionModeEntered",
      "type": "event"
    },
    {
      "anonymous": false,
      "inputs": [
        {
          "indexed": true,
          "internalType": "address",
          "name": "agentVault",
          "type": "address"
        },
        {
          "indexed": false,
          "internalType": "bytes32",
          "name": "transactionHash",
          "type": "bytes32"
        }
      ],
      "name": "IllegalPaymentConfirmed",
      "type": "event"
    },
    {
      "anonymous": false,
      "inputs": [
        {
          "indexed": true,
          "internalType": "address",
          "name": "agentVault",
          "type": "address"
        }
      ],
      "name": "LiquidationEnded",
      "type": "event"
    },
    {
      "anonymous": false,
      "inputs": [
        {
          "indexed": true,
          "internalType": "address",
          "name": "agentVault",
          "type": "address"
        },
        {
          "indexed": true,
          "internalType": "address",
          "name": "liquidator",
          "type": "address"
        },
        {
          "indexed": false,
          "internalType": "uint256",
          "name": "valueUBA",
          "type": "uint256"
        }
      ],
      "name": "LiquidationPerformed",
      "type": "event"
    },
    {
      "anonymous": false,
      "inputs": [
        {
          "indexed": true,
          "internalType": "address",
          "name": "agentVault",
          "type": "address"
        },
        {
          "indexed": false,
          "internalType": "uint256",
          "name": "timestamp",
          "type": "uint256"
        }
      ],
      "name": "LiquidationStarted",
      "type": "event"
    },
    {
      "anonymous": false,
      "inputs": [
        {
          "indexed": true,
          "internalType": "address",
          "name": "agentVault",
          "type": "address"
        },
        {
          "indexed": true,
          "internalType": "uint256",
          "name": "collateralReservationId",
          "type": "uint256"
        },
        {
          "indexed": false,
          "internalType": "uint256",
          "name": "mintedAmountUBA",
          "type": "uint256"
        },
        {
          "indexed": false,
          "internalType": "uint256",
          "name": "agentFeeUBA",
          "type": "uint256"
        },
        {
          "indexed": false,
          "internalType": "uint256",
          "name": "poolFeeUBA",
          "type": "uint256"
        }
      ],
      "name": "MintingExecuted",
      "type": "event"
    },
    {
      "anonymous": false,
      "inputs": [
        {
          "indexed": true,
          "internalType": "address",
          "name": "agentVault",
          "type": "address"
        },
        {
          "indexed": true,
          "internalType": "address",
          "name": "minter",
          "type": "address"
        },
        {
          "indexed": true,
          "internalType": "uint256",
          "name": "collateralReservationId",
          "type": "uint256"
        },
        {
          "indexed": false,
          "internalType": "uint256",
          "name": "reservedAmountUBA",
          "type": "uint256"
        }
      ],
      "name": "MintingPaymentDefault",
      "type": "event"
    },
    {
      "anonymous": false,
      "inputs": [
        {
          "indexed": true,
          "internalType": "address",
          "name": "agentVault",
          "type": "address"
        },
        {
          "indexed": false,
          "internalType": "uint256",
          "name": "amountWei",
          "type": "uint256"
        },
        {
          "indexed": false,
          "internalType": "uint256",
          "name": "withdrawalAllowedAt",
          "type": "uint256"
        }
      ],
      "name": "PoolTokenRedemptionAnnounced",
      "type": "event"
    },
    {
      "anonymous": false,
      "inputs": [
        {
          "indexed": true,
          "internalType": "address",
          "name": "agentVault",
          "type": "address"
        },
        {
          "indexed": true,
          "internalType": "address",
          "name": "redeemer",
          "type": "address"
        },
        {
          "indexed": false,
          "internalType": "uint256",
          "name": "redemptionAmountUBA",
          "type": "uint256"
        },
        {
          "indexed": false,
          "internalType": "uint256",
          "name": "paidVaultCollateralWei",
          "type": "uint256"
        }
      ],
      "name": "RedeemedInCollateral",
      "type": "event"
    },
    {
      "anonymous": false,
      "inputs": [
        {
          "indexed": true,
          "internalType": "address",
          "name": "agentVault",
          "type": "address"
        },
        {
          "indexed": true,
          "internalType": "address",
          "name": "redeemer",
          "type": "address"
        },
        {
          "indexed": true,
          "internalType": "uint64",
          "name": "requestId",
          "type": "uint64"
        },
        {
          "indexed": false,
          "internalType": "uint256",
          "name": "redemptionAmountUBA",
          "type": "uint256"
        },
        {
          "indexed": false,
          "internalType": "uint256",
          "name": "redeemedVaultCollateralWei",
          "type": "uint256"
        },
        {
          "indexed": false,
          "internalType": "uint256",
          "name": "redeemedPoolCollateralWei",
          "type": "uint256"
        }
      ],
      "name": "RedemptionDefault",
      "type": "event"
    },
    {
      "anonymous": false,
      "inputs": [
        {
          "indexed": true,
          "internalType": "address",
          "name": "agentVault",
          "type": "address"
        },
        {
          "indexed": true,
          "internalType": "address",
          "name": "redeemer",
          "type": "address"
        },
        {
          "indexed": true,
          "internalType": "uint64",
          "name": "requestId",
          "type": "uint64"
        },
        {
          "indexed": false,
          "internalType": "bytes32",
          "name": "transactionHash",
          "type": "bytes32"
        },
        {
          "indexed": false,
          "internalType": "uint256",
          "name": "redemptionAmountUBA",
          "type": "uint256"
        },
        {
          "indexed": false,
          "internalType": "int256",
          "name": "spentUnderlyingUBA",
          "type": "int256"
        }
      ],
      "name": "RedemptionPaymentBlocked",
      "type": "event"
    },
    {
      "anonymous": false,
      "inputs": [
        {
          "indexed": true,
          "internalType": "address",
          "name": "agentVault",
          "type": "address"
        },
        {
          "indexed": true,
          "internalType": "address",
          "name": "redeemer",
          "type": "address"
        },
        {
          "indexed": true,
          "internalType": "uint64",
          "name": "requestId",
          "type": "uint64"
        },
        {
          "indexed": false,
          "internalType": "bytes32",
          "name": "transactionHash",
          "type": "bytes32"
        },
        {
          "indexed": false,
          "internalType": "int256",
          "name": "spentUnderlyingUBA",
          "type": "int256"
        },
        {
          "indexed": false,
          "internalType": "string",
          "name": "failureReason",
          "type": "string"
        }
      ],
      "name": "RedemptionPaymentFailed",
      "type": "event"
    },
    {
      "anonymous": false,
      "inputs": [
        {
          "indexed": true,
          "internalType": "address",
          "name": "agentVault",
          "type": "address"
        },
        {
          "indexed": true,
          "internalType": "address",
          "name": "redeemer",
          "type": "address"
        },
        {
          "indexed": true,
          "internalType": "uint64",
          "name": "requestId",
          "type": "uint64"
        },
        {
          "indexed": false,
          "internalType": "bytes32",
          "name": "transactionHash",
          "type": "bytes32"
        },
        {
          "indexed": false,
          "internalType": "uint256",
          "name": "redemptionAmountUBA",
          "type": "uint256"
        },
        {
          "indexed": false,
          "internalType": "int256",
          "name": "spentUnderlyingUBA",
          "type": "int256"
        }
      ],
      "name": "RedemptionPerformed",
      "type": "event"
    },
    {
      "anonymous": false,
      "inputs": [
        {
          "indexed": true,
          "internalType": "address",
          "name": "agentVault",
          "type": "address"
        },
        {
          "indexed": true,
          "internalType": "address",
          "name": "redeemer",
          "type": "address"
        },
        {
          "indexed": true,
          "internalType": "uint64",
          "name": "requestId",
          "type": "uint64"
        },
        {
          "indexed": false,
          "internalType": "uint256",
          "name": "redemptionAmountUBA",
          "type": "uint256"
        }
      ],
      "name": "RedemptionRejected",
      "type": "event"
    },
    {
      "anonymous": false,
      "inputs": [
        {
          "indexed": true,
          "internalType": "address",
          "name": "redeemer",
          "type": "address"
        },
        {
          "indexed": false,
          "internalType": "uint256",
          "name": "remainingLots",
          "type": "uint256"
        }
      ],
      "name": "RedemptionRequestIncomplete",
      "type": "event"
    },
    {
      "anonymous": false,
      "inputs": [
        {
          "indexed": true,
          "internalType": "address",
          "name": "agentVault",
          "type": "address"
        },
        {
          "indexed": true,
          "internalType": "address",
          "name": "redeemer",
          "type": "address"
        },
        {
          "indexed": true,
          "internalType": "uint256",
          "name": "requestId",
          "type": "uint256"
        },
        {
          "indexed": false,
          "internalType": "string",
          "name": "paymentAddress",
          "type": "string"
        },
        {
          "indexed": false,
          "internalType": "uint256",
          "name": "valueUBA",
          "type": "uint256"
        },
        {
          "indexed": false,
          "internalType": "uint256",
          "name": "feeUBA",
          "type": "uint256"
        },
        {
          "indexed": false,
          "internalType": "uint256",
          "name": "firstUnderlyingBlock",
          "type": "uint256"
        },
        {
          "indexed": false,
          "internalType": "uint256",
          "name": "lastUnderlyingBlock",
          "type": "uint256"
        },
        {
          "indexed": false,
          "internalType": "uint256",
          "name": "lastUnderlyingTimestamp",
          "type": "uint256"
        },
        {
          "indexed": false,
          "internalType": "bytes32",
          "name": "paymentReference",
          "type": "bytes32"
        },
        {
          "indexed": false,
          "internalType": "address",
          "name": "executor",
          "type": "address"
        },
        {
          "indexed": false,
          "internalType": "uint256",
          "name": "executorFeeNatWei",
          "type": "uint256"
        }
      ],
      "name": "RedemptionRequested",
      "type": "event"
    },
    {
      "anonymous": false,
      "inputs": [
        {
          "indexed": true,
          "internalType": "address",
          "name": "agentVault",
          "type": "address"
        },
        {
          "indexed": true,
          "internalType": "uint256",
          "name": "redemptionTicketId",
          "type": "uint256"
        },
        {
          "indexed": false,
          "internalType": "uint256",
          "name": "ticketValueUBA",
          "type": "uint256"
        }
      ],
      "name": "RedemptionTicketCreated",
      "type": "event"
    },
    {
      "anonymous": false,
      "inputs": [
        {
          "indexed": true,
          "internalType": "address",
          "name": "agentVault",
          "type": "address"
        },
        {
          "indexed": true,
          "internalType": "uint256",
          "name": "redemptionTicketId",
          "type": "uint256"
        }
      ],
      "name": "RedemptionTicketDeleted",
      "type": "event"
    },
    {
      "anonymous": false,
      "inputs": [
        {
          "indexed": true,
          "internalType": "address",
          "name": "agentVault",
          "type": "address"
        },
        {
          "indexed": true,
          "internalType": "uint256",
          "name": "redemptionTicketId",
          "type": "uint256"
        },
        {
          "indexed": false,
          "internalType": "uint256",
          "name": "ticketValueUBA",
          "type": "uint256"
        }
      ],
      "name": "RedemptionTicketUpdated",
      "type": "event"
    },
    {
      "anonymous": false,
      "inputs": [
        {
          "indexed": true,
          "internalType": "address",
          "name": "agentVault",
          "type": "address"
        },
        {
          "indexed": false,
          "internalType": "uint256",
          "name": "valueUBA",
          "type": "uint256"
        }
      ],
      "name": "SelfClose",
      "type": "event"
    },
    {
      "anonymous": false,
      "inputs": [
        {
          "indexed": false,
          "internalType": "string",
          "name": "name",
          "type": "string"
        },
        {
          "indexed": false,
          "internalType": "uint256[]",
          "name": "value",
          "type": "uint256[]"
        }
      ],
      "name": "SettingArrayChanged",
      "type": "event"
    },
    {
      "anonymous": false,
      "inputs": [
        {
          "indexed": false,
          "internalType": "string",
          "name": "name",
          "type": "string"
        },
        {
          "indexed": false,
          "internalType": "uint256",
          "name": "value",
          "type": "uint256"
        }
      ],
      "name": "SettingChanged",
      "type": "event"
    },
    {
      "anonymous": false,
      "inputs": [
        {
          "indexed": false,
          "internalType": "bytes4",
          "name": "selector",
          "type": "bytes4"
        },
        {
          "indexed": false,
          "internalType": "uint256",
          "name": "timestamp",
          "type": "uint256"
        }
      ],
      "name": "TimelockedGovernanceCallCanceled",
      "type": "event"
    },
    {
      "anonymous": false,
      "inputs": [
        {
          "indexed": false,
          "internalType": "bytes4",
          "name": "selector",
          "type": "bytes4"
        },
        {
          "indexed": false,
          "internalType": "uint256",
          "name": "timestamp",
          "type": "uint256"
        }
      ],
      "name": "TimelockedGovernanceCallExecuted",
      "type": "event"
    },
    {
      "anonymous": false,
      "inputs": [
        {
          "indexed": true,
          "internalType": "address",
          "name": "agentVault",
          "type": "address"
        },
        {
          "indexed": false,
          "internalType": "int256",
          "name": "underlyingBalanceUBA",
          "type": "int256"
        }
      ],
      "name": "UnderlyingBalanceChanged",
      "type": "event"
    },
    {
      "anonymous": false,
      "inputs": [
        {
          "indexed": true,
          "internalType": "address",
          "name": "agentVault",
          "type": "address"
        },
        {
          "indexed": false,
          "internalType": "int256",
          "name": "balance",
          "type": "int256"
        },
        {
          "indexed": false,
          "internalType": "uint256",
          "name": "requiredBalance",
          "type": "uint256"
        }
      ],
      "name": "UnderlyingBalanceTooLow",
      "type": "event"
    },
    {
      "anonymous": false,
      "inputs": [
        {
          "indexed": true,
          "internalType": "address",
          "name": "agentVault",
          "type": "address"
        },
        {
          "indexed": false,
          "internalType": "bytes32",
          "name": "transactionHash",
          "type": "bytes32"
        },
        {
          "indexed": false,
          "internalType": "uint256",
          "name": "depositedUBA",
          "type": "uint256"
        }
      ],
      "name": "UnderlyingBalanceToppedUp",
      "type": "event"
    },
    {
      "anonymous": false,
      "inputs": [
        {
          "indexed": true,
          "internalType": "address",
          "name": "agentVault",
          "type": "address"
        },
        {
          "indexed": true,
          "internalType": "uint64",
          "name": "announcementId",
          "type": "uint64"
        },
        {
          "indexed": false,
          "internalType": "bytes32",
          "name": "paymentReference",
          "type": "bytes32"
        }
      ],
      "name": "UnderlyingWithdrawalAnnounced",
      "type": "event"
    },
    {
      "anonymous": false,
      "inputs": [
        {
          "indexed": true,
          "internalType": "address",
          "name": "agentVault",
          "type": "address"
        },
        {
          "indexed": true,
          "internalType": "uint64",
          "name": "announcementId",
          "type": "uint64"
        }
      ],
      "name": "UnderlyingWithdrawalCancelled",
      "type": "event"
    },
    {
      "anonymous": false,
      "inputs": [
        {
          "indexed": true,
          "internalType": "address",
          "name": "agentVault",
          "type": "address"
        },
        {
          "indexed": true,
          "internalType": "uint64",
          "name": "announcementId",
          "type": "uint64"
        },
        {
          "indexed": false,
          "internalType": "int256",
          "name": "spentUBA",
          "type": "int256"
        },
        {
          "indexed": false,
          "internalType": "bytes32",
          "name": "transactionHash",
          "type": "bytes32"
        }
      ],
      "name": "UnderlyingWithdrawalConfirmed",
      "type": "event"
    },
    {
      "anonymous": false,
      "inputs": [
        {
          "indexed": true,
          "internalType": "address",
          "name": "agentVault",
          "type": "address"
        },
        {
          "indexed": false,
          "internalType": "uint256",
          "name": "amountWei",
          "type": "uint256"
        },
        {
          "indexed": false,
          "internalType": "uint256",
          "name": "withdrawalAllowedAt",
          "type": "uint256"
        }
      ],
      "name": "VaultCollateralWithdrawalAnnounced",
      "type": "event"
    },
    {
      "inputs": [
        {
          "internalType": "contract IIAssetManager",
          "name": "_assetManager",
          "type": "address"
        }
      ],
      "name": "addAssetManager",
      "outputs": [],
      "stateMutability": "nonpayable",
      "type": "function"
    },
    {
      "inputs": [
        {
          "internalType": "contract IIAssetManager[]",
          "name": "_assetManagers",
          "type": "address[]"
        },
        {
          "components": [
            {
              "internalType": "enum CollateralType.Class",
              "name": "collateralClass",
              "type": "uint8"
            },
            {
              "internalType": "contract IERC20",
              "name": "token",
              "type": "address"
            },
            {
              "internalType": "uint256",
              "name": "decimals",
              "type": "uint256"
            },
            {
              "internalType": "uint256",
              "name": "validUntil",
              "type": "uint256"
            },
            {
              "internalType": "bool",
              "name": "directPricePair",
              "type": "bool"
            },
            {
              "internalType": "string",
              "name": "assetFtsoSymbol",
              "type": "string"
            },
            {
              "internalType": "string",
              "name": "tokenFtsoSymbol",
              "type": "string"
            },
            {
              "internalType": "uint256",
              "name": "minCollateralRatioBIPS",
              "type": "uint256"
            },
            {
              "internalType": "uint256",
              "name": "ccbMinCollateralRatioBIPS",
              "type": "uint256"
            },
            {
              "internalType": "uint256",
              "name": "safetyMinCollateralRatioBIPS",
              "type": "uint256"
            }
          ],
          "internalType": "struct CollateralType.Data",
          "name": "_data",
          "type": "tuple"
        }
      ],
      "name": "addCollateralType",
      "outputs": [],
      "stateMutability": "nonpayable",
      "type": "function"
    },
    {
      "inputs": [
        {
          "internalType": "address",
          "name": "_assetManager",
          "type": "address"
        }
      ],
      "name": "assetManagerExists",
      "outputs": [
        {
          "internalType": "bool",
          "name": "",
          "type": "bool"
        }
      ],
      "stateMutability": "view",
      "type": "function"
    },
    {
      "inputs": [
        {
          "internalType": "bytes4",
          "name": "_selector",
          "type": "bytes4"
        }
      ],
      "name": "cancelGovernanceCall",
      "outputs": [],
      "stateMutability": "nonpayable",
      "type": "function"
    },
    {
      "inputs": [
        {
          "internalType": "contract IIAssetManager[]",
          "name": "_assetManagers",
          "type": "address[]"
        },
        {
          "internalType": "enum CollateralType.Class",
          "name": "_class",
          "type": "uint8"
        },
        {
          "internalType": "contract IERC20",
          "name": "_token",
          "type": "address"
        },
        {
          "internalType": "uint256",
          "name": "_invalidationTimeSec",
          "type": "uint256"
        }
      ],
      "name": "deprecateCollateralType",
      "outputs": [],
      "stateMutability": "nonpayable",
      "type": "function"
    },
    {
      "inputs": [
        {
          "internalType": "bytes4",
          "name": "_selector",
          "type": "bytes4"
        }
      ],
      "name": "executeGovernanceCall",
      "outputs": [],
      "stateMutability": "nonpayable",
      "type": "function"
    },
    {
      "inputs": [],
      "name": "getAddressUpdater",
      "outputs": [
        {
          "internalType": "address",
          "name": "_addressUpdater",
          "type": "address"
        }
      ],
      "stateMutability": "view",
      "type": "function"
    },
    {
      "inputs": [],
      "name": "getAssetManagers",
      "outputs": [
        {
          "internalType": "contract IIAssetManager[]",
          "name": "",
          "type": "address[]"
        }
      ],
      "stateMutability": "view",
      "type": "function"
    },
    {
      "inputs": [],
      "name": "governance",
      "outputs": [
        {
          "internalType": "address",
          "name": "",
          "type": "address"
        }
      ],
      "stateMutability": "view",
      "type": "function"
    },
    {
      "inputs": [],
      "name": "governanceSettings",
      "outputs": [
        {
          "internalType": "contract IGovernanceSettings",
          "name": "",
          "type": "address"
        }
      ],
      "stateMutability": "view",
      "type": "function"
    },
    {
      "inputs": [
        {
          "internalType": "contract IGovernanceSettings",
          "name": "_governanceSettings",
          "type": "address"
        },
        {
          "internalType": "address",
          "name": "_initialGovernance",
          "type": "address"
        }
      ],
      "name": "initialise",
      "outputs": [],
      "stateMutability": "nonpayable",
      "type": "function"
    },
    {
      "inputs": [
        {
          "internalType": "address",
          "name": "_address",
          "type": "address"
        }
      ],
      "name": "isExecutor",
      "outputs": [
        {
          "internalType": "bool",
          "name": "",
          "type": "bool"
        }
      ],
      "stateMutability": "view",
      "type": "function"
    },
    {
      "inputs": [
        {
          "internalType": "contract IIAssetManager[]",
          "name": "_assetManagers",
          "type": "address[]"
        }
      ],
      "name": "pause",
      "outputs": [],
      "stateMutability": "nonpayable",
      "type": "function"
    },
    {
      "inputs": [],
      "name": "productionMode",
      "outputs": [
        {
          "internalType": "bool",
          "name": "",
          "type": "bool"
        }
      ],
      "stateMutability": "view",
      "type": "function"
    },
    {
      "inputs": [
        {
          "internalType": "contract IIAssetManager",
          "name": "_assetManager",
          "type": "address"
        }
      ],
      "name": "removeAssetManager",
      "outputs": [],
      "stateMutability": "nonpayable",
      "type": "function"
    },
    {
      "inputs": [],
      "name": "replacedBy",
      "outputs": [
        {
          "internalType": "address",
          "name": "",
          "type": "address"
        }
      ],
      "stateMutability": "view",
      "type": "function"
    },
    {
      "inputs": [
        {
          "internalType": "contract IIAssetManager[]",
          "name": "_assetManagers",
          "type": "address[]"
        },
        {
          "internalType": "uint256",
          "name": "_value",
          "type": "uint256"
        }
      ],
      "name": "setAgentExitAvailableTimelockSeconds",
      "outputs": [],
      "stateMutability": "nonpayable",
      "type": "function"
    },
    {
      "inputs": [
        {
          "internalType": "contract IIAssetManager[]",
          "name": "_assetManagers",
          "type": "address[]"
        },
        {
          "internalType": "uint256",
          "name": "_value",
          "type": "uint256"
        }
      ],
      "name": "setAgentFeeChangeTimelockSeconds",
      "outputs": [],
      "stateMutability": "nonpayable",
      "type": "function"
    },
    {
      "inputs": [
        {
          "internalType": "contract IIAssetManager[]",
          "name": "_assetManagers",
          "type": "address[]"
        },
        {
          "internalType": "uint256",
          "name": "_value",
          "type": "uint256"
        }
      ],
      "name": "setAgentMintingCRChangeTimelockSeconds",
      "outputs": [],
      "stateMutability": "nonpayable",
      "type": "function"
    },
    {
      "inputs": [
        {
          "internalType": "contract IIAssetManager[]",
          "name": "_assetManagers",
          "type": "address[]"
        },
        {
          "internalType": "address",
          "name": "_value",
          "type": "address"
        }
      ],
      "name": "setAgentOwnerRegistry",
      "outputs": [],
      "stateMutability": "nonpayable",
      "type": "function"
    },
    {
      "inputs": [
        {
          "internalType": "contract IIAssetManager[]",
          "name": "_assetManagers",
          "type": "address[]"
        },
        {
          "internalType": "uint256",
          "name": "_value",
          "type": "uint256"
        }
      ],
      "name": "setAgentTimelockedOperationWindowSeconds",
      "outputs": [],
      "stateMutability": "nonpayable",
      "type": "function"
    },
    {
      "inputs": [
        {
          "internalType": "contract IIAssetManager[]",
          "name": "_assetManagers",
          "type": "address[]"
        },
        {
          "internalType": "address",
          "name": "_value",
          "type": "address"
        }
      ],
      "name": "setAgentVaultFactory",
      "outputs": [],
      "stateMutability": "nonpayable",
      "type": "function"
    },
    {
      "inputs": [
        {
          "internalType": "contract IIAssetManager[]",
          "name": "_assetManagers",
          "type": "address[]"
        },
        {
          "internalType": "uint256",
          "name": "_value",
          "type": "uint256"
        }
      ],
      "name": "setAnnouncedUnderlyingConfirmationMinSeconds",
      "outputs": [],
      "stateMutability": "nonpayable",
      "type": "function"
    },
    {
      "inputs": [
        {
          "internalType": "contract IIAssetManager[]",
          "name": "_assetManagers",
          "type": "address[]"
        },
        {
          "internalType": "uint256",
          "name": "_value",
          "type": "uint256"
        }
      ],
      "name": "setAttestationWindowSeconds",
      "outputs": [],
      "stateMutability": "nonpayable",
      "type": "function"
    },
    {
      "inputs": [
        {
          "internalType": "contract IIAssetManager[]",
          "name": "_assetManagers",
          "type": "address[]"
        },
        {
          "internalType": "uint256",
          "name": "_value",
          "type": "uint256"
        }
      ],
      "name": "setAverageBlockTimeMS",
      "outputs": [],
      "stateMutability": "nonpayable",
      "type": "function"
    },
    {
      "inputs": [
        {
          "internalType": "contract IIAssetManager[]",
          "name": "_assetManagers",
          "type": "address[]"
        },
        {
          "internalType": "uint256",
          "name": "_value",
          "type": "uint256"
        }
      ],
      "name": "setCcbTimeSeconds",
      "outputs": [],
      "stateMutability": "nonpayable",
      "type": "function"
    },
    {
      "inputs": [
        {
          "internalType": "contract IIAssetManager[]",
          "name": "_assetManagers",
          "type": "address[]"
        },
        {
          "internalType": "address",
          "name": "_value",
          "type": "address"
        }
      ],
      "name": "setCollateralPoolFactory",
      "outputs": [],
      "stateMutability": "nonpayable",
      "type": "function"
    },
    {
      "inputs": [
        {
          "internalType": "contract IIAssetManager[]",
          "name": "_assetManagers",
          "type": "address[]"
        },
        {
          "internalType": "address",
          "name": "_value",
          "type": "address"
        }
      ],
      "name": "setCollateralPoolTokenFactory",
      "outputs": [],
      "stateMutability": "nonpayable",
      "type": "function"
    },
    {
      "inputs": [
        {
          "internalType": "contract IIAssetManager[]",
          "name": "_assetManagers",
          "type": "address[]"
        },
        {
          "internalType": "uint256",
          "name": "_value",
          "type": "uint256"
        }
      ],
      "name": "setCollateralPoolTokenTimelockSeconds",
      "outputs": [],
      "stateMutability": "nonpayable",
      "type": "function"
    },
    {
      "inputs": [
        {
          "internalType": "contract IIAssetManager[]",
          "name": "_assetManagers",
          "type": "address[]"
        },
        {
          "internalType": "enum CollateralType.Class",
          "name": "_class",
          "type": "uint8"
        },
        {
          "internalType": "contract IERC20",
          "name": "_token",
          "type": "address"
        },
        {
          "internalType": "uint256",
          "name": "_minCollateralRatioBIPS",
          "type": "uint256"
        },
        {
          "internalType": "uint256",
          "name": "_ccbMinCollateralRatioBIPS",
          "type": "uint256"
        },
        {
          "internalType": "uint256",
          "name": "_safetyMinCollateralRatioBIPS",
          "type": "uint256"
        }
      ],
      "name": "setCollateralRatiosForToken",
      "outputs": [],
      "stateMutability": "nonpayable",
      "type": "function"
    },
    {
      "inputs": [
        {
          "internalType": "contract IIAssetManager[]",
          "name": "_assetManagers",
          "type": "address[]"
        },
        {
          "internalType": "uint256",
          "name": "_value",
          "type": "uint256"
        }
      ],
      "name": "setCollateralReservationFeeBips",
      "outputs": [],
      "stateMutability": "nonpayable",
      "type": "function"
    },
    {
      "inputs": [
        {
          "internalType": "contract IIAssetManager[]",
          "name": "_assetManagers",
          "type": "address[]"
        },
        {
          "internalType": "uint256",
          "name": "_value",
          "type": "uint256"
        }
      ],
      "name": "setConfirmationByOthersAfterSeconds",
      "outputs": [],
      "stateMutability": "nonpayable",
      "type": "function"
    },
    {
      "inputs": [
        {
          "internalType": "contract IIAssetManager[]",
          "name": "_assetManagers",
          "type": "address[]"
        },
        {
          "internalType": "uint256",
          "name": "_value",
          "type": "uint256"
        }
      ],
      "name": "setConfirmationByOthersRewardUSD5",
      "outputs": [],
      "stateMutability": "nonpayable",
      "type": "function"
    },
    {
      "inputs": [
        {
          "internalType": "contract IIAssetManager[]",
          "name": "_assetManagers",
          "type": "address[]"
        },
        {
          "internalType": "address",
          "name": "_liquidationStrategy",
          "type": "address"
        },
        {
          "internalType": "bytes",
          "name": "_encodedInitialSettings",
          "type": "bytes"
        }
      ],
      "name": "setLiquidationStrategy",
      "outputs": [],
      "stateMutability": "nonpayable",
      "type": "function"
    },
    {
      "inputs": [
        {
          "internalType": "contract IIAssetManager[]",
          "name": "_assetManagers",
          "type": "address[]"
        },
        {
          "internalType": "uint256",
          "name": "_value",
          "type": "uint256"
        }
      ],
      "name": "setLotSizeAmg",
      "outputs": [],
      "stateMutability": "nonpayable",
      "type": "function"
    },
    {
      "inputs": [
        {
          "internalType": "contract IIAssetManager[]",
          "name": "_assetManagers",
          "type": "address[]"
        },
        {
          "internalType": "uint256",
          "name": "_value",
          "type": "uint256"
        }
      ],
      "name": "setMaxRedeemedTickets",
      "outputs": [],
      "stateMutability": "nonpayable",
      "type": "function"
    },
    {
      "inputs": [
        {
          "internalType": "contract IIAssetManager[]",
          "name": "_assetManagers",
          "type": "address[]"
        },
        {
          "internalType": "uint256",
          "name": "_value",
          "type": "uint256"
        }
      ],
      "name": "setMaxTrustedPriceAgeSeconds",
      "outputs": [],
      "stateMutability": "nonpayable",
      "type": "function"
    },
    {
      "inputs": [
        {
          "internalType": "contract IIAssetManager[]",
          "name": "_assetManagers",
          "type": "address[]"
        },
        {
          "internalType": "uint256",
          "name": "_value",
          "type": "uint256"
        }
      ],
      "name": "setMinUnderlyingBackingBips",
      "outputs": [],
      "stateMutability": "nonpayable",
      "type": "function"
    },
    {
      "inputs": [
        {
          "internalType": "contract IIAssetManager[]",
          "name": "_assetManagers",
          "type": "address[]"
        },
        {
          "internalType": "uint256",
          "name": "_value",
          "type": "uint256"
        }
      ],
      "name": "setMinUpdateRepeatTimeSeconds",
      "outputs": [],
      "stateMutability": "nonpayable",
      "type": "function"
    },
    {
      "inputs": [
        {
          "internalType": "contract IIAssetManager[]",
          "name": "_assetManagers",
          "type": "address[]"
        },
        {
          "internalType": "uint256",
          "name": "_value",
          "type": "uint256"
        }
      ],
      "name": "setMintingCapAmg",
      "outputs": [],
      "stateMutability": "nonpayable",
      "type": "function"
    },
    {
      "inputs": [
        {
          "internalType": "contract IIAssetManager[]",
          "name": "_assetManagers",
          "type": "address[]"
        },
        {
          "internalType": "uint256",
          "name": "_value",
          "type": "uint256"
        }
      ],
      "name": "setMintingPoolHoldingsRequiredBIPS",
      "outputs": [],
      "stateMutability": "nonpayable",
      "type": "function"
    },
    {
      "inputs": [
        {
          "internalType": "contract IIAssetManager[]",
          "name": "_assetManagers",
          "type": "address[]"
        },
        {
          "internalType": "uint256",
          "name": "_rewardVaultCollateralWei",
          "type": "uint256"
        },
        {
          "internalType": "uint256",
          "name": "_rewardBIPS",
          "type": "uint256"
        }
      ],
      "name": "setPaymentChallengeReward",
      "outputs": [],
      "stateMutability": "nonpayable",
      "type": "function"
    },
    {
      "inputs": [
        {
          "internalType": "contract IIAssetManager[]",
          "name": "_assetManagers",
          "type": "address[]"
        },
        {
          "internalType": "uint256",
          "name": "_value",
          "type": "uint256"
        }
      ],
      "name": "setPoolExitAndTopupChangeTimelockSeconds",
      "outputs": [],
      "stateMutability": "nonpayable",
      "type": "function"
    },
    {
      "inputs": [
        {
          "internalType": "contract IIAssetManager[]",
          "name": "_assetManagers",
          "type": "address[]"
        },
        {
          "internalType": "address",
          "name": "_value",
          "type": "address"
        }
      ],
      "name": "setPriceReader",
      "outputs": [],
      "stateMutability": "nonpayable",
      "type": "function"
    },
    {
      "inputs": [
        {
          "internalType": "contract IIAssetManager[]",
          "name": "_assetManagers",
          "type": "address[]"
        },
        {
          "internalType": "uint256",
          "name": "_vaultF",
          "type": "uint256"
        },
        {
          "internalType": "uint256",
          "name": "_poolF",
          "type": "uint256"
        }
      ],
      "name": "setRedemptionDefaultFactorBips",
      "outputs": [],
      "stateMutability": "nonpayable",
      "type": "function"
    },
    {
      "inputs": [
        {
          "internalType": "contract IIAssetManager[]",
          "name": "_assetManagers",
          "type": "address[]"
        },
        {
          "internalType": "uint256",
          "name": "_value",
          "type": "uint256"
        }
      ],
      "name": "setRedemptionFeeBips",
      "outputs": [],
      "stateMutability": "nonpayable",
      "type": "function"
    },
    {
      "inputs": [
        {
          "internalType": "contract IIAssetManager[]",
          "name": "_assetManagers",
          "type": "address[]"
        },
        {
          "internalType": "address",
          "name": "_value",
          "type": "address"
        }
      ],
      "name": "setSCProofVerifier",
      "outputs": [],
      "stateMutability": "nonpayable",
      "type": "function"
    },
    {
      "inputs": [
        {
          "internalType": "contract IIAssetManager[]",
          "name": "_assetManagers",
          "type": "address[]"
        },
        {
          "internalType": "uint256",
          "name": "_underlyingBlocks",
          "type": "uint256"
        },
        {
          "internalType": "uint256",
          "name": "_underlyingSeconds",
          "type": "uint256"
        }
      ],
      "name": "setTimeForPayment",
      "outputs": [],
      "stateMutability": "nonpayable",
      "type": "function"
    },
    {
      "inputs": [
        {
          "internalType": "contract IIAssetManager[]",
          "name": "_assetManagers",
          "type": "address[]"
        },
        {
          "internalType": "uint256",
          "name": "_value",
          "type": "uint256"
        }
      ],
      "name": "setTokenInvalidationTimeMinSeconds",
      "outputs": [],
      "stateMutability": "nonpayable",
      "type": "function"
    },
    {
      "inputs": [
        {
          "internalType": "contract IIAssetManager[]",
          "name": "_assetManagers",
          "type": "address[]"
        },
        {
          "internalType": "uint256",
          "name": "_value",
          "type": "uint256"
        }
      ],
      "name": "setVaultCollateralBuyForFlareFactorBIPS",
      "outputs": [],
      "stateMutability": "nonpayable",
      "type": "function"
    },
    {
      "inputs": [
        {
          "internalType": "contract IIAssetManager[]",
          "name": "_assetManagers",
          "type": "address[]"
        },
        {
          "internalType": "address",
          "name": "_value",
          "type": "address"
        }
      ],
      "name": "setWhitelist",
      "outputs": [],
      "stateMutability": "nonpayable",
      "type": "function"
    },
    {
      "inputs": [
        {
          "internalType": "contract IIAssetManager[]",
          "name": "_assetManagers",
          "type": "address[]"
        },
        {
          "internalType": "uint256",
          "name": "_value",
          "type": "uint256"
        }
      ],
      "name": "setWithdrawalOrDestroyWaitMinSeconds",
      "outputs": [],
      "stateMutability": "nonpayable",
      "type": "function"
    },
    {
      "inputs": [
        {
          "internalType": "bytes4",
          "name": "_interfaceId",
          "type": "bytes4"
        }
      ],
      "name": "supportsInterface",
      "outputs": [
        {
          "internalType": "bool",
          "name": "",
          "type": "bool"
        }
      ],
      "stateMutability": "pure",
      "type": "function"
    },
    {
      "inputs": [],
      "name": "switchToProductionMode",
      "outputs": [],
      "stateMutability": "nonpayable",
      "type": "function"
    },
    {
      "inputs": [
        {
          "internalType": "contract IIAssetManager[]",
          "name": "_assetManagers",
          "type": "address[]"
        }
      ],
      "name": "terminate",
      "outputs": [],
      "stateMutability": "nonpayable",
      "type": "function"
    },
    {
      "inputs": [
        {
          "internalType": "bytes4",
          "name": "",
          "type": "bytes4"
        }
      ],
      "name": "timelockedCalls",
      "outputs": [
        {
          "internalType": "uint256",
          "name": "allowedAfterTimestamp",
          "type": "uint256"
        },
        {
          "internalType": "bytes",
          "name": "encodedCall",
          "type": "bytes"
        }
      ],
      "stateMutability": "view",
      "type": "function"
    },
    {
      "inputs": [
        {
          "internalType": "contract IIAssetManager[]",
          "name": "_assetManagers",
          "type": "address[]"
        }
      ],
      "name": "unpause",
      "outputs": [],
      "stateMutability": "nonpayable",
      "type": "function"
    },
    {
      "inputs": [
        {
          "internalType": "bytes32[]",
          "name": "_contractNameHashes",
          "type": "bytes32[]"
        },
        {
          "internalType": "address[]",
          "name": "_contractAddresses",
          "type": "address[]"
        }
      ],
      "name": "updateContractAddresses",
      "outputs": [],
      "stateMutability": "nonpayable",
      "type": "function"
    },
    {
      "inputs": [
        {
          "internalType": "contract IIAssetManager[]",
          "name": "_assetManagers",
          "type": "address[]"
        }
      ],
      "name": "updateContracts",
      "outputs": [],
      "stateMutability": "nonpayable",
      "type": "function"
    },
    {
      "inputs": [
        {
          "internalType": "contract IIAssetManager[]",
          "name": "_assetManagers",
          "type": "address[]"
        },
        {
          "internalType": "bytes",
          "name": "_encodedSettings",
          "type": "bytes"
        }
      ],
      "name": "updateLiquidationStrategySettings",
      "outputs": [],
      "stateMutability": "nonpayable",
      "type": "function"
    }
  ],
  "bytecode": "0x60806040523480156200001157600080fd5b5060405162003cd438038062003cd483398101604081905262000034916200020b565b80838362000043828262000079565b506200006f9050817f714f205b2abd25bef1d06a1af944e38c113fe6160375c4e1d6d5cf28848e771955565b505050506200025f565b600054600160a01b900460ff1615620000d95760405162461bcd60e51b815260206004820152601460248201527f696e697469616c6973656420213d2066616c736500000000000000000000000060448201526064015b60405180910390fd5b6001600160a01b038216620001315760405162461bcd60e51b815260206004820152601860248201527f676f7665726e616e63652073657474696e6773207a65726f00000000000000006044820152606401620000d0565b6001600160a01b0381166200017c5760405162461bcd60e51b815260206004820152601060248201526f5f676f7665726e616e6365207a65726f60801b6044820152606401620000d0565b600080546001600160a01b038481166001600160a81b031990921691909117600160a01b17909155600180549183166001600160a01b0319909216821790556040519081527f9789733827840833afc031fb2ef9ab6894271f77bad2085687cf4ae5c7bee4db9060200160405180910390a15050565b6001600160a01b03811681146200020857600080fd5b50565b6000806000606084860312156200022157600080fd5b83516200022e81620001f2565b60208501519093506200024181620001f2565b60408501519092506200025481620001f2565b809150509250925092565b613a65806200026f6000396000f3fe608060405234801561001057600080fd5b50600436106103a45760003560e01c8063758f07f2116101e9578063bb6f41b31161010f578063d48b75f6116100ad578063ec8e31611161007c578063ec8e31611461081c578063eddaf2931461082f578063ef88bf1314610842578063f5a983831461085557600080fd5b8063d48b75f6146107cf578063debfda30146107e2578063dede95f1146107f5578063e17f212e1461080857600080fd5b8063ccfb7911116100e9578063ccfb791114610783578063d0c391b514610796578063d13e499d146107a9578063d3521ed6146107bc57600080fd5b8063bb6f41b31461074a578063be46c73d1461075d578063c38ec4181461077057600080fd5b8063a391dd9c11610187578063b00c0b7611610156578063b00c0b76146106fc578063b4c0a3331461070f578063b577fc7614610722578063b87b82f01461073557600080fd5b8063a391dd9c146106b0578063a6a24e25146106c3578063a82ee3d5146106d6578063aeb41555146106e957600080fd5b80638ca061d4116101c35780638ca061d4146106645780639755c6a714610677578063987ea8991461068a5780639e1508a11461069d57600080fd5b8063758f07f2146106135780637ad62f51146106265780637e3566fe1461065157600080fd5b806344944a9b116102ce5780635b5bad731161026c57806362354e031161023b57806362354e03146105b957806367fc4029146105cc578063746d02ee146105df57806374e6310e146105f257600080fd5b80635b5bad731461056d5780635cce89ea146105805780635ff2707914610593578063617637aa146105a657600080fd5b806351241060116102a857806351241060146105165780635267a15d14610529578063556d5118146105525780635aa6e6751461056557600080fd5b806344944a9b146104dd57806347956606146104f05780634a79bc9f1461050357600080fd5b806320756671116103465780632d5846da116103155780632d5846da146104915780632d8ced18146104a457806334dc3932146104b7578063358bca77146104ca57600080fd5b8063207566711461044557806326a9055b146104585780632aedabe41461046b5780632af713fc1461047e57600080fd5b8063038214521161038257806303821452146103f957806305a1790a1461040c5780630a3eb8741461041f578063115a6e151461043257600080fd5b80630117d987146103a957806301ffc9a7146103be5780630207aff2146103e6575b600080fd5b6103bc6103b7366004612f27565b61085d565b005b6103d16103cc366004612f6b565b6108e7565b60405190151581526020015b60405180910390f35b6103bc6103f4366004612f27565b61091e565b6103bc610407366004612f9c565b61095e565b6103bc61041a366004613010565b610a0a565b6103bc61042d366004612f27565b610ab0565b6103bc610440366004612f27565b610af0565b6103bc610453366004612f27565b610b30565b6103bc610466366004612f27565b610b97565b6103bc610479366004612f27565b610bd7565b6103bc61048c36600461307b565b610c17565b6103bc61049f366004612f27565b610c87565b6103bc6104b2366004613130565b610cc7565b6103bc6104c5366004612f27565b610d39565b6103bc6104d83660046131a7565b610d79565b6103bc6104eb3660046131c4565b610fd5565b6103bc6104fe366004612f27565b61101e565b6103bc61051136600461307b565b61105e565b6103bc610524366004612f27565b6110ce565b600080516020613a10833981519152545b6040516001600160a01b0390911681526020016103dd565b6103bc610560366004612f27565b61110e565b61053a61114e565b6103bc61057b366004612f9c565b6111ea565b6103bc61058e366004612f27565b611277565b6103bc6105a1366004612f6b565b6112b7565b6103bc6105b4366004612f27565b61153c565b60005461053a906001600160a01b031681565b6103bc6105da366004612f6b565b61157c565b6103bc6105ed36600461307b565b611658565b610605610600366004612f6b565b6116c8565b6040516103dd929190613261565b6103bc610621366004612f27565b61176d565b6103d16106343660046131a7565b6001600160a01b0316600090815260046020526040902054151590565b6103bc61065f366004612f27565b6117ad565b6103bc6106723660046132a1565b6117ed565b6103bc610685366004612f9c565b6118ce565b6103bc6106983660046131a7565b61195b565b6103bc6106ab366004612f27565b611ad0565b6103bc6106be3660046131c4565b611b37565b6103bc6106d136600461307b565b611ba7565b6103bc6106e4366004612f27565b611c17565b6103bc6106f7366004612f27565b611c57565b6103bc61070a366004613380565b611c97565b6103bc61071d366004613438565b611d4e565b60035461053a906001600160a01b031681565b61073d611deb565b6040516103dd919061349f565b6103bc61075836600461307b565b611e4d565b6103bc61076b366004612f27565b611ebd565b6103bc61077e366004612f27565b611efd565b6103bc610791366004612f27565b611f3d565b6103bc6107a4366004612f27565b611fa4565b6103bc6107b7366004612f9c565b61200b565b6103bc6107ca3660046134ec565b612391565b6103bc6107dd36600461307b565b6123eb565b6103d16107f03660046131a7565b61245b565b6103bc610803366004612f27565b6124de565b6000546103d190600160a81b900460ff1681565b6103bc61082a36600461307b565b61251e565b6103bc61083d3660046131c4565b61258e565b6103bc610850366004613545565b6125d7565b6103bc61273d565b600054600160b01b900460ff168061087f5750600054600160a81b900460ff16155b156108dc5761088c612803565b6108d8827fe5cbaf9388ab04e6a84ccb4d318b7411cf3cba5c27c08ff531f6cc63bd9f3d15836040516020016108c491815260200190565b60405160208183030381529060405261283d565b5050565b6108d860003661294c565b60006001600160e01b031982166301ffc9a760e01b148061091857506001600160e01b0319821663580605bb60e11b145b92915050565b610926612a98565b6108d8827fd074339531c0c426f419e40c630fba3e9e49d8640b542935b487a324e3fa6476836040516020016108c491815260200190565b610966612a98565b60005b81811015610a05576109a083838381811061098657610986613573565b905060200201602081019061099b91906131a7565b612af2565b6001600160a01b0316633f4ba83a6040518163ffffffff1660e01b8152600401600060405180830381600087803b1580156109da57600080fd5b505af11580156109ee573d6000803e3d6000fd5b5050505080806109fd9061359f565b915050610969565b505050565b610a12612a98565b60005b8251811015610a0557610a40838281518110610a3357610a33613573565b6020026020010151612af2565b6001600160a01b031663eebbcd55836040518263ffffffff1660e01b8152600401610a6b9190613668565b600060405180830381600087803b158015610a8557600080fd5b505af1158015610a99573d6000803e3d6000fd5b505050508080610aa89061359f565b915050610a15565b610ab8612a98565b6108d8827fdb8617d6427f99a93c9a0c29cea5de59ff5e46d6b670defb2621832b9ecf8e73836040516020016108c491815260200190565b610af8612a98565b6108d8827f609571923b97b2125de563bd2442533110877ce09c57103efd81a2350d926748836040516020016108c491815260200190565b600054600160b01b900460ff1680610b525750600054600160a81b900460ff16155b156108dc57610b5f612803565b6108d8827faf5f2b98f83ec754c2468c6f795cd14e63ea828a68b271c17461d623661e8d0c836040516020016108c491815260200190565b610b9f612a98565b6108d8827f77eef583b25f73c60677890790c00fbf5ab5dc5b952b567609eab319437bf2fe836040516020016108c491815260200190565b610bdf612a98565b6108d8827f568ae58ed29d3123b07c83375be93831571baa4efa6eca219a665b6edcce3bd2836040516020016108c491815260200190565b600054600160b01b900460ff1680610c395750600054600160a81b900460ff16155b156108dc57610c46612803565b604080516001600160a01b03831660208201526108d89184917fbe06971979bbc89a786ccfb7ab4127e6bab93518d7e34a3600219f74c02a912b91016108c4565b610c8f612a98565b6108d8827fdd64bd048b711cc14ce05eb540d2dbb9001521d5365cdac63643f90be13128a7836040516020016108c491815260200190565b600054600160b01b900460ff1680610ce95750600054600160a81b900460ff16155b15610d2e57610cf6612803565b610a05837f84afd878f1616875c56a72462a02c12689b2e62280ef7ba82a1027952f63e74a84846040516020016108c4929190613743565b610a0560003661294c565b610d41612a98565b6108d8827f9db27f55d4910a7a49292d8345f039e6266f7dc44269477125dfdf9c0a20bda2836040516020016108c491815260200190565b600054600160b01b900460ff1680610d9b5750600054600160a81b900460ff16155b15610fc757610da8612803565b6001600160a01b03811660009081526004602052604081205490819003610dcd575050565b6000610dda600183613767565b600554909150600090610def90600190613767565b905080821015610ea95760058181548110610e0c57610e0c613573565b600091825260209091200154600580546001600160a01b039092169184908110610e3857610e38613573565b600091825260209091200180546001600160a01b0319166001600160a01b0392909216919091179055610e6c82600161377a565b6004600060058581548110610e8357610e83613573565b60009182526020808320909101546001600160a01b031683528201929092526040019020555b6005805480610eba57610eba61378d565b60008281526020808220830160001990810180546001600160a01b03191690559092019092556001600160a01b0386168083526004808352604080852094909455835163f0c0b72560e01b815293513094929363f0c0b7259380840193919291908290030181865afa158015610f34573d6000803e3d6000fd5b505050506040513d601f19601f82011682018060405250810190610f5891906137a3565b6001600160a01b031603610fc15760405163b928b53360e01b8152600060048201526001600160a01b0385169063b928b53390602401600060405180830381600087803b158015610fa857600080fd5b505af1158015610fbc573d6000803e3d6000fd5b505050505b50505050565b610fd260003661294c565b50565b610fdd612a98565b610a05837f1529264fcbf2bf5cf598b2450b293923f6c0d9f9cdf587da5a1c31f05102bc0784846040516020016108c4929190918252602082015260400190565b611026612a98565b6108d8827f47814c0626f9db4541c2626f398ce27bbf58b6f2fbe51e47c992fc40c99c2f14836040516020016108c491815260200190565b600054600160b01b900460ff16806110805750600054600160a81b900460ff16155b156108dc5761108d612803565b604080516001600160a01b03831660208201526108d89184917f13d6a5e25fb62370430ae75c7288645ab675293a216337c6579449dae495ca0791016108c4565b6110d6612a98565b6108d8827f5ac5c11e3be51a3b2f1c18cb30a2917c10f24fdee614a595d151c820e854756d836040516020016108c491815260200190565b611116612a98565b6108d8827ff1d9867587e5cf029d516cd605c11c24de74467605b6f64eba8e727887e959b3836040516020016108c491815260200190565b60008054600160a81b900460ff1661117057506001546001600160a01b031690565b60008054906101000a90046001600160a01b03166001600160a01b031663732524946040518163ffffffff1660e01b8152600401602060405180830381865afa1580156111c1573d6000803e3d6000fd5b505050506040513d601f19601f820116820180604052508101906111e591906137a3565b905090565b6111f2612a98565b60005b81811015610a055761121283838381811061098657610986613573565b6001600160a01b0316630c08bf886040518163ffffffff1660e01b8152600401600060405180830381600087803b15801561124c57600080fd5b505af1158015611260573d6000803e3d6000fd5b50505050808061126f9061359f565b9150506111f5565b61127f612a98565b6108d8827f3dcb30c522b719e41e182cfd89e7280d805977d0b4c728429d018c8f53aa054e836040516020016108c491815260200190565b6112c03361245b565b6113015760405162461bcd60e51b815260206004820152600d60248201526c37b7363c9032bc32b1baba37b960991b60448201526064015b60405180910390fd5b6001600160e01b031981166000908152600260205260408120805490910361136b5760405162461bcd60e51b815260206004820152601a60248201527f74696d656c6f636b3a20696e76616c69642073656c6563746f7200000000000060448201526064016112f8565b80544210156113bc5760405162461bcd60e51b815260206004820152601960248201527f74696d656c6f636b3a206e6f7420616c6c6f776564207965740000000000000060448201526064016112f8565b60008160010180546113cd906137c0565b80601f01602080910402602001604051908101604052809291908181526020018280546113f9906137c0565b80156114465780601f1061141b57610100808354040283529160200191611446565b820191906000526020600020905b81548152906001019060200180831161142957829003601f168201915b505050506001600160e01b03198516600090815260026020526040812081815592935090506114786001830182612deb565b50506000805460ff60b01b1916600160b01b178155604051309061149d9084906137fa565b6000604051808303816000865af19150503d80600081146114da576040519150601f19603f3d011682016040523d82523d6000602084013e6114df565b606091505b50506000805460ff60b01b19169055604080516001600160e01b0319871681524260208201529192507fa7326b57fc9cfe267aaea5e7f0b01757154d265620a0585819416ee9ddd2c438910160405180910390a1610fc181612b59565b611544612a98565b6108d8827ffb6ac7868b9ce1a209e7180ca265b60cbcfd951f17e32cfa9b09b53bfe0189bb836040516020016108c491815260200190565b611584612a98565b6001600160e01b0319811660009081526002602052604081205490036115ec5760405162461bcd60e51b815260206004820152601a60248201527f74696d656c6f636b3a20696e76616c69642073656c6563746f7200000000000060448201526064016112f8565b604080516001600160e01b0319831681524260208201527f7735b2391c38a81419c513e30ca578db7158eadd7101511b23e221c654d19cf8910160405180910390a16001600160e01b03198116600090815260026020526040812081815590610a056001830182612deb565b600054600160b01b900460ff168061167a5750600054600160a81b900460ff16155b156108dc57611687612803565b604080516001600160a01b03831660208201526108d89184917f89ef27d6045eca6b22da580f7a126a285ef62527e9553a8d9b632b0f5e26c3af91016108c4565b600260205260009081526040902080546001820180549192916116ea906137c0565b80601f0160208091040260200160405190810160405280929190818152602001828054611716906137c0565b80156117635780601f1061173857610100808354040283529160200191611763565b820191906000526020600020905b81548152906001019060200180831161174657829003601f168201915b5050505050905082565b611775612a98565b6108d8827f578bfb3ec6febb59d8c59fbf6c5a3312bbb9570dd5f6a7265cf5c6fb1d227938836040516020016108c491815260200190565b6117b5612a98565b6108d8827ff9b9b44651521fa32e45f527b7392825f165c03571fd1485e7dc0e2a3e460a6f836040516020016108c491815260200190565b600054600160b01b900460ff168061180f5750600054600160a81b900460ff16155b156118bb5761181c612803565b60005b86518110156118b55761183d878281518110610a3357610a33613573565b6001600160a01b031663249f1b5987878787876040518663ffffffff1660e01b8152600401611870959493929190613816565b600060405180830381600087803b15801561188a57600080fd5b505af115801561189e573d6000803e3d6000fd5b5050505080806118ad9061359f565b91505061181f565b506118c6565b6118c660003661294c565b505050505050565b6118d6612a98565b60005b81811015610a05576118f683838381811061098657610986613573565b6001600160a01b0316638456cb596040518163ffffffff1660e01b8152600401600060405180830381600087803b15801561193057600080fd5b505af1158015611944573d6000803e3d6000fd5b5050505080806119539061359f565b9150506118d9565b600054600160b01b900460ff168061197d5750600054600160a81b900460ff16155b15610fc75761198a612803565b6001600160a01b0381166000908152600460205260408120549003610fd257600580546001810182557f036b6384b5eca791c62761152d0c79bb0604c104a5fb6f4eb0703f3154bb3db00180546001600160a01b0319166001600160a01b038416908117909155905460008281526004602081815260409283902093909355815163f0c0b72560e01b8152915130949363f0c0b7259380840193919291908290030181865afa158015611a41573d6000803e3d6000fd5b505050506040513d601f19601f82011682018060405250810190611a6591906137a3565b6001600160a01b031603610fd25760405163b928b53360e01b8152600160048201526001600160a01b0382169063b928b53390602401600060405180830381600087803b158015611ab557600080fd5b505af1158015611ac9573d6000803e3d6000fd5b5050505050565b600054600160b01b900460ff1680611af25750600054600160a81b900460ff16155b156108dc57611aff612803565b6108d8827fd57d25c52236f43d429cb6932e0bdfb00c2fc7ee9aaddccd2ccee1b24a90e724836040516020016108c491815260200190565b600054600160b01b900460ff1680611b595750600054600160a81b900460ff16155b15610d2e57611b66612803565b610a05837f69b89e7ecda74b156ebb6553c166323512e616eb5e0a3d77b3e376086c891f7e84846040516020016108c4929190918252602082015260400190565b600054600160b01b900460ff1680611bc95750600054600160a81b900460ff16155b156108dc57611bd6612803565b604080516001600160a01b03831660208201526108d89184917fdf06ea96f34c4b924cb722cc7b502fff4895bddce12b805d5778a9cd3ae2241391016108c4565b611c1f612a98565b6108d8827fdfc5941748b75983d6817917ceea4fb882f2d1482879fb7842e0c15d7c0f2a81836040516020016108c491815260200190565b611c5f612a98565b6108d8827f2779aaaa0a4aba6761d05634679205836858e31b3d82fff3dc5a6b4b1f32c1a1836040516020016108c491815260200190565b600080516020613a10833981519152546001600160a01b0316336001600160a01b031614611cfe5760405162461bcd60e51b815260206004820152601460248201527337b7363c9030b2323932b9b9903ab83230ba32b960611b60448201526064016112f8565b611d44611d3283836040518060400160405280600e81526020016d20b2323932b9b9aab83230ba32b960911b815250612b76565b600080516020613a1083398151915255565b6108d88282612c51565b611d56612a98565b60005b8451811015611ac957611d77858281518110610a3357610a33613573565b6001600160a01b03166313199ee08585856040518463ffffffff1660e01b8152600401611da693929190613850565b600060405180830381600087803b158015611dc057600080fd5b505af1158015611dd4573d6000803e3d6000fd5b505050508080611de39061359f565b915050611d59565b60606005805480602002602001604051908101604052809291908181526020018280548015611e4357602002820191906000526020600020905b81546001600160a01b03168152600190910190602001808311611e25575b5050505050905090565b600054600160b01b900460ff1680611e6f5750600054600160a81b900460ff16155b156108dc57611e7c612803565b604080516001600160a01b03831660208201526108d89184917f6dd3d5890781dccec88a387799c9132d0552124a770d12680fb289cac28d77c491016108c4565b611ec5612a98565b6108d8827fcfcb991d8ac2c7b21f03e1f09ee4750b1a3a5353cde79bdb89bf474ca9691ea1836040516020016108c491815260200190565b611f05612a98565b6108d8827f6a2a01c67f39de53cff23057cec2bfedb658511d783789a09ca4c590b5ba395d836040516020016108c491815260200190565b600054600160b01b900460ff1680611f5f5750600054600160a81b900460ff16155b156108dc57611f6c612803565b6108d8827ff35653f1a2f3028179f583cb5399707d5358006fa6c9242ac649d0a1336c1a50836040516020016108c491815260200190565b600054600160b01b900460ff1680611fc65750600054600160a81b900460ff16155b156108dc57611fd3612803565b6108d8827f7191500e7bd8061a21587101a27340f39012e9bd508e25ce75ba96ed3762e791836040516020016108c491815260200190565b6000612023600080516020613a108339815191525490565b604051630110ceef60e21b815260206004820152600e60248201526d20b2323932b9b9aab83230ba32b960911b60448201529091506000906001600160a01b038316906304433bbc90606401602060405180830381865afa15801561208c573d6000803e3d6000fd5b505050506040513d601f19601f820116820180604052508101906120b091906137a3565b604051630110ceef60e21b815260206004820152601660248201527520b9b9b2ba26b0b730b3b2b921b7b73a3937b63632b960511b60448201529091506000906001600160a01b038416906304433bbc90606401602060405180830381865afa158015612121573d6000803e3d6000fd5b505050506040513d601f19601f8201168201806040525081019061214591906137a3565b90506000836001600160a01b03166304433bbc6040518163ffffffff1660e01b815260040161218c9060208082526004908201526315d3985d60e21b604082015260600190565b602060405180830381865afa1580156121a9573d6000803e3d6000fd5b505050506040513d601f19601f820116820180604052508101906121cd91906137a3565b90506001600160a01b038316158015906121ef57506001600160a01b03821615155b801561220357506001600160a01b03811615155b61223e5760405162461bcd60e51b815260206004820152600c60248201526b61646472657373207a65726f60a01b60448201526064016112f8565b836001600160a01b0316836001600160a01b03161461226d5761226d83600080516020613a1083398151915255565b60005b8581101561235b57600061228f88888481811061098657610986613573565b9050806001600160a01b031663f19d3c067f98d4740d142b60ed8b5406840c42cc27af11aa519fed871c9276ea711331454386866040516020016122e99291906001600160a01b0392831681529116602082015260400190565b6040516020818303038152906040526040518363ffffffff1660e01b8152600401612315929190613261565b600060405180830381600087803b15801561232f57600080fd5b505af1158015612343573d6000803e3d6000fd5b505050505080806123539061359f565b915050612270565b506001600160a01b03821630146118c657600380546001600160a01b0384166001600160a01b0319909116179055505050505050565b600054600160b01b900460ff16806123b35750600054600160a81b900460ff16155b156108dc576123c0612803565b6108d8827f3bc2131c3ff3dd5c528bcad0f54164e3b7c1f568a6eb5cd51f333272147ad1c88361283d565b600054600160b01b900460ff168061240d5750600054600160a81b900460ff16155b156108dc5761241a612803565b604080516001600160a01b03831660208201526108d89184917fcda4c541af241973f55d9f04122488b0e8bb0a374625422fb564fd2a2f233af591016108c4565b60008054600160a01b900460ff1680156109185750600054604051630debfda360e41b81526001600160a01b0384811660048301529091169063debfda3090602401602060405180830381865afa1580156124ba573d6000803e3d6000fd5b505050506040513d601f19601f820116820180604052508101906109189190613878565b6124e6612a98565b6108d8827f263685c89ecca5f576193f222d02951438094b3eb36a8911d113f03be5c9c891836040516020016108c491815260200190565b600054600160b01b900460ff16806125405750600054600160a81b900460ff16155b156108dc5761254d612803565b604080516001600160a01b03831660208201526108d89184917f854cff2f06134808792749e4c9e6efde176603ff5656cbb2cda605578a5e6dc291016108c4565b612596612a98565b610a05837f68f224ba1b1345ef831341b77bb145c7ff885cf1c8ce6f35dfa089079d38dd1884846040516020016108c4929190918252602082015260400190565b600054600160a01b900460ff16156126285760405162461bcd60e51b8152602060048201526014602482015273696e697469616c6973656420213d2066616c736560601b60448201526064016112f8565b6001600160a01b03821661267e5760405162461bcd60e51b815260206004820152601860248201527f676f7665726e616e63652073657474696e6773207a65726f000000000000000060448201526064016112f8565b6001600160a01b0381166126c75760405162461bcd60e51b815260206004820152601060248201526f5f676f7665726e616e6365207a65726f60801b60448201526064016112f8565b600080546001600160a01b038481166001600160a81b031990921691909117600160a01b17909155600180549183166001600160a01b0319909216821790556040519081527f9789733827840833afc031fb2ef9ab6894271f77bad2085687cf4ae5c7bee4db9060200160405180910390a15050565b612745612a98565b600054600160a81b900460ff161561279f5760405162461bcd60e51b815260206004820152601a60248201527f616c726561647920696e2070726f64756374696f6e206d6f646500000000000060448201526064016112f8565b600180546001600160a01b031916905560008054600160a81b60ff60a81b198216179091556040516001600160a01b0390911681527f83af113638b5422f9e977cebc0aaf0eaf2188eb9a8baae7f9d46c42b33a1560c9060200160405180910390a1565b600054600160b01b900460ff16156128335733301461282457612824613895565b6000805460ff60b01b19169055565b61283b612a98565b565b60005b8351811015610fc157600084828151811061285d5761285d613573565b6020026020010151905060046000826001600160a01b03166001600160a01b03168152602001908152602001600020546000036128d85760405162461bcd60e51b8152602060048201526019602482015278105cdcd95d081b585b9859d95c881b9bdd081b585b9859d959603a1b60448201526064016112f8565b6040516378ce9e0360e11b81526001600160a01b0382169063f19d3c06906129069087908790600401613261565b600060405180830381600087803b15801561292057600080fd5b505af1158015612934573d6000803e3d6000fd5b505050505080806129449061359f565b915050612840565b612954612a98565b6000805460408051636221a54b60e01b81529051853593926001600160a01b031691636221a54b9160048083019260209291908290030181865afa1580156129a0573d6000803e3d6000fd5b505050506040513d601f19601f820116820180604052508101906129c491906138ab565b905060006129d2824261377a565b9050604051806040016040528082815260200186868080601f01602080910402602001604051908101604052809392919081815260200183838082843760009201829052509390945250506001600160e01b03198616815260026020908152604090912083518155908301519091506001820190612a50908261390a565b509050507fed948300a3694aa01d4a6b258bfd664350193d770c0b51f8387277f6d83ea3b683828787604051612a8994939291906139c9565b60405180910390a15050505050565b612aa061114e565b6001600160a01b0316336001600160a01b03161461283b5760405162461bcd60e51b815260206004820152600f60248201526e6f6e6c7920676f7665726e616e636560881b60448201526064016112f8565b6001600160a01b0381166000908152600460205260408120548103612b555760405162461bcd60e51b8152602060048201526019602482015278105cdcd95d081b585b9859d95c881b9bdd081b585b9859d959603a1b60448201526064016112f8565b5090565b3d604051818101604052816000823e8215612b72578181f35b8181fd5b60008082604051602001612b8a91906139fc565b6040516020818303038152906040528051906020012090506000805b8651811015612c0257868181518110612bc157612bc1613573565b60200260200101518303612bf057858181518110612be157612be1613573565b60200260200101519150612c02565b80612bfa8161359f565b915050612ba6565b506001600160a01b038116612c485760405162461bcd60e51b815260206004820152600c60248201526b61646472657373207a65726f60a01b60448201526064016112f8565b95945050505050565b6000612c8c83836040518060400160405280601681526020017520b9b9b2ba26b0b730b3b2b921b7b73a3937b63632b960511b815250612b76565b90506000612cb784846040518060400160405280600481526020016315d3985d60e21b815250612b76565b905060005b600554811015612db757600060058281548110612cdb57612cdb613573565b600091825260209182902001546040516001600160a01b039091169250829163f19d3c06917f98d4740d142b60ed8b5406840c42cc27af11aa519fed871c9276ea711331454391612d459189918991016001600160a01b0392831681529116602082015260400190565b6040516020818303038152906040526040518363ffffffff1660e01b8152600401612d71929190613261565b600060405180830381600087803b158015612d8b57600080fd5b505af1158015612d9f573d6000803e3d6000fd5b50505050508080612daf9061359f565b915050612cbc565b506001600160a01b0382163014610fc157600380546001600160a01b0384166001600160a01b031990911617905550505050565b508054612df7906137c0565b6000825580601f10612e07575050565b601f016020900490600052602060002090810190610fd291905b80821115612b555760008155600101612e21565b634e487b7160e01b600052604160045260246000fd5b604051601f8201601f191681016001600160401b0381118282101715612e7357612e73612e35565b604052919050565b60006001600160401b03821115612e9457612e94612e35565b5060051b60200190565b6001600160a01b0381168114610fd257600080fd5b600082601f830112612ec457600080fd5b81356020612ed9612ed483612e7b565b612e4b565b82815260059290921b84018101918181019086841115612ef857600080fd5b8286015b84811015612f1c578035612f0f81612e9e565b8352918301918301612efc565b509695505050505050565b60008060408385031215612f3a57600080fd5b82356001600160401b03811115612f5057600080fd5b612f5c85828601612eb3565b95602094909401359450505050565b600060208284031215612f7d57600080fd5b81356001600160e01b031981168114612f9557600080fd5b9392505050565b60008060208385031215612faf57600080fd5b82356001600160401b0380821115612fc657600080fd5b818501915085601f830112612fda57600080fd5b813581811115612fe957600080fd5b8660208260051b8501011115612ffe57600080fd5b60209290920196919550909350505050565b6000806040838503121561302357600080fd5b82356001600160401b038082111561303a57600080fd5b61304686838701612eb3565b9350602085013591508082111561305c57600080fd5b508301610140818603121561307057600080fd5b809150509250929050565b6000806040838503121561308e57600080fd5b82356001600160401b038111156130a457600080fd5b6130b085828601612eb3565b925050602083013561307081612e9e565b600082601f8301126130d257600080fd5b81356001600160401b038111156130eb576130eb612e35565b6130fe601f8201601f1916602001612e4b565b81815284602083860101111561311357600080fd5b816020850160208301376000918101602001919091529392505050565b60008060006060848603121561314557600080fd5b83356001600160401b038082111561315c57600080fd5b61316887838801612eb3565b94506020860135915061317a82612e9e565b9092506040850135908082111561319057600080fd5b5061319d868287016130c1565b9150509250925092565b6000602082840312156131b957600080fd5b8135612f9581612e9e565b6000806000606084860312156131d957600080fd5b83356001600160401b038111156131ef57600080fd5b6131fb86828701612eb3565b9660208601359650604090950135949350505050565b60005b8381101561322c578181015183820152602001613214565b50506000910152565b6000815180845261324d816020860160208601613211565b601f01601f19169290920160200192915050565b82815260406020820152600061327a6040830184613235565b949350505050565b80356003811061329157600080fd5b919050565b803561329181612e9e565b60008060008060008060c087890312156132ba57600080fd5b86356001600160401b038111156132d057600080fd5b6132dc89828a01612eb3565b9650506132eb60208801613282565b945060408701356132fb81612e9e565b959894975094956060810135955060808101359460a0909101359350915050565b600082601f83011261332d57600080fd5b8135602061333d612ed483612e7b565b82815260059290921b8401810191818101908684111561335c57600080fd5b8286015b84811015612f1c57803561337381612e9e565b8352918301918301613360565b6000806040838503121561339357600080fd5b82356001600160401b03808211156133aa57600080fd5b818501915085601f8301126133be57600080fd5b813560206133ce612ed483612e7b565b82815260059290921b840181019181810190898411156133ed57600080fd5b948201945b8386101561340b578535825294820194908201906133f2565b9650508601359250508082111561342157600080fd5b5061342e8582860161331c565b9150509250929050565b6000806000806080858703121561344e57600080fd5b84356001600160401b0381111561346457600080fd5b61347087828801612eb3565b94505061347f60208601613282565b9250604085013561348f81612e9e565b9396929550929360600135925050565b6020808252825182820181905260009190848201906040850190845b818110156134e05783516001600160a01b0316835292840192918401916001016134bb565b50909695505050505050565b600080604083850312156134ff57600080fd5b82356001600160401b038082111561351657600080fd5b61352286838701612eb3565b9350602085013591508082111561353857600080fd5b5061342e858286016130c1565b6000806040838503121561355857600080fd5b823561356381612e9e565b9150602083013561307081612e9e565b634e487b7160e01b600052603260045260246000fd5b634e487b7160e01b600052601160045260246000fd5b6000600182016135b1576135b1613589565b5060010190565b600381106135d657634e487b7160e01b600052602160045260246000fd5b9052565b8015158114610fd257600080fd5b8035613291816135da565b6000808335601e1984360301811261360a57600080fd5b83016020810192503590506001600160401b0381111561362957600080fd5b80360382131561363857600080fd5b9250929050565b81835281816020850137506000828201602090810191909152601f909101601f19169091010190565b602081526136816020820161367c84613282565b6135b8565b600061368f60208401613296565b6001600160a01b03811660408401525060408301356060830152606083013560808301526136bf608084016135e8565b80151560a0840152506136d560a08401846135f3565b6101408060c08601526136ed6101608601838561363f565b92506136fc60c08701876135f3565b868503601f190160e0880152925061371584848361363f565b60e0880135610100888101919091528801356101208089019190915290970135919095015250929392505050565b6001600160a01b038316815260406020820181905260009061327a90830184613235565b8181038181111561091857610918613589565b8082018082111561091857610918613589565b634e487b7160e01b600052603160045260246000fd5b6000602082840312156137b557600080fd5b8151612f9581612e9e565b600181811c908216806137d457607f821691505b6020821081036137f457634e487b7160e01b600052602260045260246000fd5b50919050565b6000825161380c818460208701613211565b9190910192915050565b60a0810161382482886135b8565b6001600160a01b0395909516602082015260408101939093526060830191909152608090910152919050565b6060810161385e82866135b8565b6001600160a01b0393909316602082015260400152919050565b60006020828403121561388a57600080fd5b8151612f95816135da565b634e487b7160e01b600052600160045260246000fd5b6000602082840312156138bd57600080fd5b5051919050565b601f821115610a0557600081815260208120601f850160051c810160208610156138eb5750805b601f850160051c820191505b818110156118c6578281556001016138f7565b81516001600160401b0381111561392357613923612e35565b6139378161393184546137c0565b846138c4565b602080601f83116001811461396c57600084156139545750858301515b600019600386901b1c1916600185901b1785556118c6565b600085815260208120601f198616915b8281101561399b5788860151825594840194600190910190840161397c565b50858210156139b95787850151600019600388901b60f8161c191681555b5050505050600190811b01905550565b63ffffffff60e01b851681528360208201526060604082015260006139f260608301848661363f565b9695505050505050565b602081526000612f95602083018461323556fe714f205b2abd25bef1d06a1af944e38c113fe6160375c4e1d6d5cf28848e7719a2646970667358221220fa19c9b0840686eeb8a70ecfa7772727323195d93f1d2fb9910e78d49581e25e64736f6c63430008140033",
  "linkReferences": {},
  "deployedLinkReferences": {}
}