{
  "_format": "hh-sol-artifact-1",
  "contractName": "UnderlyingTimekeepingFacet",
  "sourceName": "contracts/assetManager/facets/UnderlyingTimekeepingFacet.sol",
  "abi": [
    {
      "anonymous": false,
      "inputs": [
        {
          "indexed": false,
          "internalType": "uint256",
          "name": "underlyingBlockNumber",
          "type": "uint256"
        },
        {
          "indexed": false,
          "internalType": "uint256",
          "name": "underlyingBlockTimestamp",
          "type": "uint256"
        },
        {
          "indexed": false,
          "internalType": "uint256",
          "name": "updatedAt",
          "type": "uint256"
        }
      ],
      "name": "CurrentUnderlyingBlockUpdated",
      "type": "event"
    },
    {
      "inputs": [],
      "name": "currentUnderlyingBlock",
      "outputs": [
        {
          "internalType": "uint256",
          "name": "_blockNumber",
          "type": "uint256"
        },
        {
          "internalType": "uint256",
          "name": "_blockTimestamp",
          "type": "uint256"
        },
        {
          "internalType": "uint256",
          "name": "_lastUpdateTs",
          "type": "uint256"
        }
      ],
      "stateMutability": "view",
      "type": "function"
    },
    {
      "inputs": [
        {
          "components": [
            {
              "internalType": "bytes32[]",
              "name": "merkleProof",
              "type": "bytes32[]"
            },
            {
              "components": [
                {
                  "internalType": "bytes32",
                  "name": "attestationType",
                  "type": "bytes32"
                },
                {
                  "internalType": "bytes32",
                  "name": "sourceId",
                  "type": "bytes32"
                },
                {
                  "internalType": "uint64",
                  "name": "votingRound",
                  "type": "uint64"
                },
                {
                  "internalType": "uint64",
                  "name": "lowestUsedTimestamp",
                  "type": "uint64"
                },
                {
                  "components": [
                    {
                      "internalType": "uint64",
                      "name": "blockNumber",
                      "type": "uint64"
                    },
                    {
                      "internalType": "uint64",
                      "name": "queryWindow",
                      "type": "uint64"
                    }
                  ],
                  "internalType": "struct IConfirmedBlockHeightExists.RequestBody",
                  "name": "requestBody",
                  "type": "tuple"
                },
                {
                  "components": [
                    {
                      "internalType": "uint64",
                      "name": "blockTimestamp",
                      "type": "uint64"
                    },
                    {
                      "internalType": "uint64",
                      "name": "numberOfConfirmations",
                      "type": "uint64"
                    },
                    {
                      "internalType": "uint64",
                      "name": "lowestQueryWindowBlockNumber",
                      "type": "uint64"
                    },
                    {
                      "internalType": "uint64",
                      "name": "lowestQueryWindowBlockTimestamp",
                      "type": "uint64"
                    }
                  ],
                  "internalType": "struct IConfirmedBlockHeightExists.ResponseBody",
                  "name": "responseBody",
                  "type": "tuple"
                }
              ],
              "internalType": "struct IConfirmedBlockHeightExists.Response",
              "name": "data",
              "type": "tuple"
            }
          ],
          "internalType": "struct IConfirmedBlockHeightExists.Proof",
          "name": "_proof",
          "type": "tuple"
        }
      ],
      "name": "updateCurrentBlock",
      "outputs": [],
      "stateMutability": "nonpayable",
      "type": "function"
    }
  ],
  "bytecode": "0x608060405234801561001057600080fd5b5061074f806100206000396000f3fe608060405234801561001057600080fd5b50600436106100365760003560e01c80630877acff1461003b5780634f4fbfca1461009c575b600080fd5b7fec7e8c1c441439dd40959777f4c577ea0cd42fcc1dbe59d2bd0f5d9c55df8dc554604080516201000083046001600160401b039081168252600160501b840481166020830152600160901b90930490921682820152519081900360600190f35b6100af6100aa366004610494565b6100b1565b005b6100ba816100bd565b50565b6100c681610101565b6100ba6100d960c0830160a084016104f2565b6100ea610100840160e085016104f2565b6100fc610120850161010086016104f2565b610276565b7f4f24f5c433db0962dac0d2c8b84197a6e6c7cc4e5d9ebe1916a1b6193da2f342547f4f24f5c433db0962dac0d2c8b84197a6e6c7cc4e5d9ebe1916a1b6193da2f345547f4f24f5c433db0962dac0d2c8b84197a6e6c7cc4e5d9ebe1916a1b6193da2f33a916001600160a01b0316906040840135146101b85760405162461bcd60e51b815260206004820152600d60248201526c34b73b30b634b21031b430b4b760991b60448201526064015b60405180910390fd5b604051635e30ebfb60e01b81526001600160a01b03821690635e30ebfb906101e49086906004016105c8565b602060405180830381865afa158015610201573d6000803e3d6000fd5b505050506040513d601f19601f82011682018060405250810190610225919061065b565b6102715760405162461bcd60e51b815260206004820152601760248201527f626c6f636b20686569676874206e6f742070726f76656400000000000000000060448201526064016101af565b505050565b7fec7e8c1c441439dd40959777f4c577ea0cd42fcc1dbe59d2bd0f5d9c55df8db66000806102a48487610693565b600f8401549091506001600160401b0362010000909104811690821611156102f057600f8301805469ffffffffffffffff00001916620100006001600160401b03841602179055600191505b60006103e87f4f24f5c433db0962dac0d2c8b84197a6e6c7cc4e5d9ebe1916a1b6193da2f33a600c015461032a9063ffffffff16876106ba565b61033491906106e5565b61033e9087610693565b600f8501546001600160401b039182169250600160501b9004168111156103955761036881610428565b84600f01600a6101000a8154816001600160401b0302191690836001600160401b03160217905550600192505b821561041f576103a442610428565b600f8501805467ffffffffffffffff60901b1916600160901b6001600160401b039384160217908190556040805162010000830484168152600160501b9092049092166020820152428183015290517f2078549e3faec355556787458d744ad19765bbb953b3f71801333f29abdce1c8916060908290030190a15b50505050505050565b60006001600160401b038211156104905760405162461bcd60e51b815260206004820152602660248201527f53616665436173743a2076616c756520646f65736e27742066697420696e203660448201526534206269747360d01b60648201526084016101af565b5090565b6000602082840312156104a657600080fd5b81356001600160401b038111156104bc57600080fd5b820161016081850312156104cf57600080fd5b9392505050565b80356001600160401b03811681146104ed57600080fd5b919050565b60006020828403121561050457600080fd5b6104cf826104d6565b8035825260208101356020830152610527604082016104d6565b6001600160401b03808216604085015280610544606085016104d6565b16606085015280610557608085016104d6565b1660808501528061056a60a085016104d6565b1660a08501528061057d60c085016104d6565b1660c08501528061059060e085016104d6565b1660e08501526101009150806105a78385016104d6565b16828501526101209150806105bd8385016104d6565b168285015250505050565b6020815260008235601e198436030181126105e257600080fd5b83016020810190356001600160401b038111156105fe57600080fd5b8060051b80360383131561061157600080fd5b610160602086015261018085018290526101a06001600160fb1b0383111561063857600080fd5b81848288013761064e604087016020890161050d565b9401909301949350505050565b60006020828403121561066d57600080fd5b815180151581146104cf57600080fd5b634e487b7160e01b600052601160045260246000fd5b6001600160401b038181168382160190808211156106b3576106b361067d565b5092915050565b6001600160401b038181168382160280821691908281146106dd576106dd61067d565b505092915050565b60006001600160401b038084168061070d57634e487b7160e01b600052601260045260246000fd5b9216919091049291505056fea2646970667358221220ab8ee5ac7b77daeef9f9693b4fcfbc7b3a50d91f7fa2209bcaa3799e27f05fa364736f6c63430008170033",
  "linkReferences": {},
  "deployedLinkReferences": {}
}