{
  "_format": "hh-sol-artifact-1",
  "contractName": "ERC20Mock",
  "sourceName": "contracts/assetManager/mock/ERC20Mock.sol",
  "abi": [
    {
      "inputs": [
        {
          "internalType": "string",
          "name": "_name",
          "type": "string"
        },
        {
          "internalType": "string",
          "name": "_symbol",
          "type": "string"
        }
      ],
      "stateMutability": "nonpayable",
      "type": "constructor"
    },
    {
      "anonymous": false,
      "inputs": [
        {
          "indexed": true,
          "internalType": "address",
          "name": "owner",
          "type": "address"
        },
        {
          "indexed": true,
          "internalType": "address",
          "name": "spender",
          "type": "address"
        },
        {
          "indexed": false,
          "internalType": "uint256",
          "name": "value",
          "type": "uint256"
        }
      ],
      "name": "Approval",
      "type": "event"
    },
    {
      "anonymous": false,
      "inputs": [
        {
          "indexed": true,
          "internalType": "address",
          "name": "from",
          "type": "address"
        },
        {
          "indexed": true,
          "internalType": "address",
          "name": "to",
          "type": "address"
        },
        {
          "indexed": false,
          "internalType": "uint256",
          "name": "value",
          "type": "uint256"
        }
      ],
      "name": "Transfer",
      "type": "event"
    },
    {
      "inputs": [
        {
          "internalType": "address",
          "name": "_address",
          "type": "address"
        }
      ],
      "name": "addToSanctionList",
      "outputs": [],
      "stateMutability": "nonpayable",
      "type": "function"
    },
    {
      "inputs": [
        {
          "internalType": "address",
          "name": "owner",
          "type": "address"
        },
        {
          "internalType": "address",
          "name": "spender",
          "type": "address"
        }
      ],
      "name": "allowance",
      "outputs": [
        {
          "internalType": "uint256",
          "name": "",
          "type": "uint256"
        }
      ],
      "stateMutability": "view",
      "type": "function"
    },
    {
      "inputs": [
        {
          "internalType": "address",
          "name": "spender",
          "type": "address"
        },
        {
          "internalType": "uint256",
          "name": "amount",
          "type": "uint256"
        }
      ],
      "name": "approve",
      "outputs": [
        {
          "internalType": "bool",
          "name": "",
          "type": "bool"
        }
      ],
      "stateMutability": "nonpayable",
      "type": "function"
    },
    {
      "inputs": [
        {
          "internalType": "address",
          "name": "account",
          "type": "address"
        }
      ],
      "name": "balanceOf",
      "outputs": [
        {
          "internalType": "uint256",
          "name": "",
          "type": "uint256"
        }
      ],
      "stateMutability": "view",
      "type": "function"
    },
    {
      "inputs": [
        {
          "internalType": "address",
          "name": "_target",
          "type": "address"
        },
        {
          "internalType": "uint256",
          "name": "_amount",
          "type": "uint256"
        }
      ],
      "name": "burnAmount",
      "outputs": [],
      "stateMutability": "nonpayable",
      "type": "function"
    },
    {
      "inputs": [],
      "name": "decimals",
      "outputs": [
        {
          "internalType": "uint8",
          "name": "",
          "type": "uint8"
        }
      ],
      "stateMutability": "view",
      "type": "function"
    },
    {
      "inputs": [
        {
          "internalType": "address",
          "name": "spender",
          "type": "address"
        },
        {
          "internalType": "uint256",
          "name": "subtractedValue",
          "type": "uint256"
        }
      ],
      "name": "decreaseAllowance",
      "outputs": [
        {
          "internalType": "bool",
          "name": "",
          "type": "bool"
        }
      ],
      "stateMutability": "nonpayable",
      "type": "function"
    },
    {
      "inputs": [],
      "name": "deposit",
      "outputs": [],
      "stateMutability": "payable",
      "type": "function"
    },
    {
      "inputs": [
        {
          "internalType": "address",
          "name": "spender",
          "type": "address"
        },
        {
          "internalType": "uint256",
          "name": "addedValue",
          "type": "uint256"
        }
      ],
      "name": "increaseAllowance",
      "outputs": [
        {
          "internalType": "bool",
          "name": "",
          "type": "bool"
        }
      ],
      "stateMutability": "nonpayable",
      "type": "function"
    },
    {
      "inputs": [
        {
          "internalType": "address",
          "name": "_target",
          "type": "address"
        },
        {
          "internalType": "uint256",
          "name": "amount",
          "type": "uint256"
        }
      ],
      "name": "mintAmount",
      "outputs": [],
      "stateMutability": "nonpayable",
      "type": "function"
    },
    {
      "inputs": [],
      "name": "name",
      "outputs": [
        {
          "internalType": "string",
          "name": "",
          "type": "string"
        }
      ],
      "stateMutability": "view",
      "type": "function"
    },
    {
      "inputs": [
        {
          "internalType": "address",
          "name": "",
          "type": "address"
        }
      ],
      "name": "sanctionedAddresses",
      "outputs": [
        {
          "internalType": "bool",
          "name": "",
          "type": "bool"
        }
      ],
      "stateMutability": "view",
      "type": "function"
    },
    {
      "inputs": [],
      "name": "symbol",
      "outputs": [
        {
          "internalType": "string",
          "name": "",
          "type": "string"
        }
      ],
      "stateMutability": "view",
      "type": "function"
    },
    {
      "inputs": [],
      "name": "terminated",
      "outputs": [
        {
          "internalType": "bool",
          "name": "",
          "type": "bool"
        }
      ],
      "stateMutability": "pure",
      "type": "function"
    },
    {
      "inputs": [],
      "name": "totalSupply",
      "outputs": [
        {
          "internalType": "uint256",
          "name": "",
          "type": "uint256"
        }
      ],
      "stateMutability": "view",
      "type": "function"
    },
    {
      "inputs": [
        {
          "internalType": "address",
          "name": "to",
          "type": "address"
        },
        {
          "internalType": "uint256",
          "name": "amount",
          "type": "uint256"
        }
      ],
      "name": "transfer",
      "outputs": [
        {
          "internalType": "bool",
          "name": "",
          "type": "bool"
        }
      ],
      "stateMutability": "nonpayable",
      "type": "function"
    },
    {
      "inputs": [
        {
          "internalType": "address",
          "name": "from",
          "type": "address"
        },
        {
          "internalType": "address",
          "name": "to",
          "type": "address"
        },
        {
          "internalType": "uint256",
          "name": "amount",
          "type": "uint256"
        }
      ],
      "name": "transferFrom",
      "outputs": [
        {
          "internalType": "bool",
          "name": "",
          "type": "bool"
        }
      ],
      "stateMutability": "nonpayable",
      "type": "function"
    },
    {
      "inputs": [
        {
          "internalType": "uint256",
          "name": "amount",
          "type": "uint256"
        }
      ],
      "name": "withdraw",
      "outputs": [],
      "stateMutability": "nonpayable",
      "type": "function"
    }
  ],
  "bytecode": "0x60806040523480156200001157600080fd5b506040516200103538038062001035833981016040819052620000349162000126565b8181600362000044838262000221565b50600462000053828262000221565b5050505050620002ed565b634e487b7160e01b600052604160045260246000fd5b600082601f8301126200008657600080fd5b81516001600160401b0380821115620000a357620000a36200005e565b604051601f8301601f19908116603f01168101908282118183101715620000ce57620000ce6200005e565b8160405283815260209250866020858801011115620000ec57600080fd5b600091505b83821015620001105785820183015181830184015290820190620000f1565b6000602085830101528094505050505092915050565b600080604083850312156200013a57600080fd5b82516001600160401b03808211156200015257600080fd5b620001608683870162000074565b935060208501519150808211156200017757600080fd5b50620001868582860162000074565b9150509250929050565b600181811c90821680620001a557607f821691505b602082108103620001c657634e487b7160e01b600052602260045260246000fd5b50919050565b601f8211156200021c576000816000526020600020601f850160051c81016020861015620001f75750805b601f850160051c820191505b81811015620002185782815560010162000203565b5050505b505050565b81516001600160401b038111156200023d576200023d6200005e565b62000255816200024e845462000190565b84620001cc565b602080601f8311600181146200028d5760008415620002745750858301515b600019600386901b1c1916600185901b17855562000218565b600085815260208120601f198616915b82811015620002be578886015182559484019460019091019084016200029d565b5085821015620002dd5787850151600019600388901b60f8161c191681555b5050505050600190811b01905550565b610d3880620002fd6000396000f3fe6080604052600436106101095760003560e01c80633950935111610095578063a556a56311610064578063a556a563146102e4578063a9059cbb14610314578063d0e30db014610334578063dd62ed3e1461033c578063fb8bd26f1461035c57600080fd5b8063395093511461025957806370a082311461027957806395d89b41146102af578063a457c2d7146102c457600080fd5b806318160ddd116100dc57806318160ddd146101ca578063194307bf146101e957806323b872dd146101fd5780632e1a7d4d1461021d578063313ce5671461023d57600080fd5b806306fdde031461010e578063095ea7b3146101395780630e583dd2146101695780630f7863591461018b575b600080fd5b34801561011a57600080fd5b5061012361037c565b6040516101309190610b68565b60405180910390f35b34801561014557600080fd5b50610159610154366004610bd3565b61040e565b6040519015158152602001610130565b34801561017557600080fd5b50610189610184366004610bd3565b610428565b005b34801561019757600080fd5b506101896101a6366004610bfd565b6001600160a01b03166000908152600560205260409020805460ff19166001179055565b3480156101d657600080fd5b506002545b604051908152602001610130565b3480156101f557600080fd5b506000610159565b34801561020957600080fd5b50610159610218366004610c1f565b610436565b34801561022957600080fd5b50610189610238366004610c5b565b61045a565b34801561024957600080fd5b5060405160128152602001610130565b34801561026557600080fd5b50610159610274366004610bd3565b610491565b34801561028557600080fd5b506101db610294366004610bfd565b6001600160a01b031660009081526020819052604090205490565b3480156102bb57600080fd5b506101236104b3565b3480156102d057600080fd5b506101596102df366004610bd3565b6104c2565b3480156102f057600080fd5b506101596102ff366004610bfd565b60056020526000908152604090205460ff1681565b34801561032057600080fd5b5061015961032f366004610bd3565b610542565b610189610550565b34801561034857600080fd5b506101db610357366004610c74565b61055c565b34801561036857600080fd5b50610189610377366004610bd3565b610587565b60606003805461038b90610ca7565b80601f01602080910402602001604051908101604052809291908181526020018280546103b790610ca7565b80156104045780601f106103d957610100808354040283529160200191610404565b820191906000526020600020905b8154815290600101906020018083116103e757829003601f168201915b5050505050905090565b60003361041c818585610591565b60019150505b92915050565b61043282826106b6565b5050565b600033610444858285610781565b61044f8585856107fb565b506001949350505050565b61046433826109aa565b604051339082156108fc029083906000818181858888f19350505050158015610432573d6000803e3d6000fd5b60003361041c8185856104a4838361055c565b6104ae9190610ce1565b610591565b60606004805461038b90610ca7565b600033816104d0828661055c565b9050838110156105355760405162461bcd60e51b815260206004820152602560248201527f45524332303a2064656372656173656420616c6c6f77616e63652062656c6f77604482015264207a65726f60d81b60648201526084015b60405180910390fd5b61044f8286868403610591565b60003361041c8185856107fb565b61055a33346106b6565b565b6001600160a01b03918216600090815260016020908152604080832093909416825291909152205490565b61043282826109aa565b6001600160a01b0383166105f35760405162461bcd60e51b8152602060048201526024808201527f45524332303a20617070726f76652066726f6d20746865207a65726f206164646044820152637265737360e01b606482015260840161052c565b6001600160a01b0382166106545760405162461bcd60e51b815260206004820152602260248201527f45524332303a20617070726f766520746f20746865207a65726f206164647265604482015261737360f01b606482015260840161052c565b6001600160a01b0383811660008181526001602090815260408083209487168084529482529182902085905590518481527f8c5be1e5ebec7d5bd14f71427d1e84f3dd0314c0f7b2291e5b200ac8c7c3b92591015b60405180910390a3505050565b6001600160a01b03821661070c5760405162461bcd60e51b815260206004820152601f60248201527f45524332303a206d696e7420746f20746865207a65726f206164647265737300604482015260640161052c565b61071860008383610ae5565b806002600082825461072a9190610ce1565b90915550506001600160a01b038216600081815260208181526040808320805486019055518481527fddf252ad1be2c89b69c2b068fc378daa952ba7f163c4a11628f55a4df523b3ef910160405180910390a35050565b600061078d848461055c565b905060001981146107f557818110156107e85760405162461bcd60e51b815260206004820152601d60248201527f45524332303a20696e73756666696369656e7420616c6c6f77616e6365000000604482015260640161052c565b6107f58484848403610591565b50505050565b6001600160a01b03831661085f5760405162461bcd60e51b815260206004820152602560248201527f45524332303a207472616e736665722066726f6d20746865207a65726f206164604482015264647265737360d81b606482015260840161052c565b6001600160a01b0382166108c15760405162461bcd60e51b815260206004820152602360248201527f45524332303a207472616e7366657220746f20746865207a65726f206164647260448201526265737360e81b606482015260840161052c565b6108cc838383610ae5565b6001600160a01b038316600090815260208190526040902054818110156109445760405162461bcd60e51b815260206004820152602660248201527f45524332303a207472616e7366657220616d6f756e7420657863656564732062604482015265616c616e636560d01b606482015260840161052c565b6001600160a01b03848116600081815260208181526040808320878703905593871680835291849020805487019055925185815290927fddf252ad1be2c89b69c2b068fc378daa952ba7f163c4a11628f55a4df523b3ef910160405180910390a36107f5565b6001600160a01b038216610a0a5760405162461bcd60e51b815260206004820152602160248201527f45524332303a206275726e2066726f6d20746865207a65726f206164647265736044820152607360f81b606482015260840161052c565b610a1682600083610ae5565b6001600160a01b03821660009081526020819052604090205481811015610a8a5760405162461bcd60e51b815260206004820152602260248201527f45524332303a206275726e20616d6f756e7420657863656564732062616c616e604482015261636560f01b606482015260840161052c565b6001600160a01b0383166000818152602081815260408083208686039055600280548790039055518581529192917fddf252ad1be2c89b69c2b068fc378daa952ba7f163c4a11628f55a4df523b3ef91016106a9565b505050565b6001600160a01b03831660009081526005602052604090205460ff16158015610b2757506001600160a01b03821660009081526005602052604090205460ff16155b610ae05760405162461bcd60e51b815260206004820152601260248201527173616e6374696f6e6564206164647265737360701b604482015260640161052c565b60006020808352835180602085015260005b81811015610b9657858101830151858201604001528201610b7a565b506000604082860101526040601f19601f8301168501019250505092915050565b80356001600160a01b0381168114610bce57600080fd5b919050565b60008060408385031215610be657600080fd5b610bef83610bb7565b946020939093013593505050565b600060208284031215610c0f57600080fd5b610c1882610bb7565b9392505050565b600080600060608486031215610c3457600080fd5b610c3d84610bb7565b9250610c4b60208501610bb7565b9150604084013590509250925092565b600060208284031215610c6d57600080fd5b5035919050565b60008060408385031215610c8757600080fd5b610c9083610bb7565b9150610c9e60208401610bb7565b90509250929050565b600181811c90821680610cbb57607f821691505b602082108103610cdb57634e487b7160e01b600052602260045260246000fd5b50919050565b8082018082111561042257634e487b7160e01b600052601160045260246000fdfea2646970667358221220fb850e07f5c9037172915c240318f485c385014c0b1cc612a3b286d95ec92f3964736f6c63430008170033",
  "linkReferences": {},
  "deployedLinkReferences": {}
}