{
  "_format": "hh-sol-artifact-1",
  "contractName": "MinterMock",
  "sourceName": "contracts/assetManager/mock/MinterMock.sol",
  "abi": [
    {
      "inputs": [],
      "name": "receiveFunds",
      "outputs": [],
      "stateMutability": "payable",
      "type": "function"
    },
    {
      "inputs": [
        {
          "internalType": "contract IIAssetManager",
          "name": "_assetManager",
          "type": "address"
        },
        {
          "internalType": "address",
          "name": "_agentVault",
          "type": "address"
        },
        {
          "internalType": "uint256",
          "name": "_lots",
          "type": "uint256"
        },
        {
          "internalType": "uint256",
          "name": "_maxMintingFeeBIPS",
          "type": "uint256"
        },
        {
          "internalType": "address payable",
          "name": "_executor",
          "type": "address"
        },
        {
          "internalType": "string[]",
          "name": "_minterUnderlyingAddresses",
          "type": "string[]"
        }
      ],
      "name": "reserveCollateral",
      "outputs": [],
      "stateMutability": "payable",
      "type": "function"
    }
  ],
  "bytecode": "0x608060405234801561001057600080fd5b506102b1806100206000396000f3fe6080604052600436106100285760003560e01c80625c33e11461002d5780630805bc161461002f575b600080fd5b005b61002d61003d3660046100c8565b604051631a7b5ff760e01b81526001600160a01b03881690631a7b5ff7903490610075908a908a908a908a908a908a906004016101b2565b6000604051808303818588803b15801561008e57600080fd5b505af11580156100a2573d6000803e3d6000fd5b505050505050505050505050565b6001600160a01b03811681146100c557600080fd5b50565b600080600080600080600060c0888a0312156100e357600080fd5b87356100ee816100b0565b965060208801356100fe816100b0565b95506040880135945060608801359350608088013561011c816100b0565b925060a088013567ffffffffffffffff8082111561013957600080fd5b818a0191508a601f83011261014d57600080fd5b81358181111561015c57600080fd5b8b60208260051b850101111561017157600080fd5b60208301945080935050505092959891949750929550565b81835281816020850137506000828201602090810191909152601f909101601f19169091010190565b6001600160a01b038781168252602080830188905260408301879052908516606083015260a060808301819052820183905260009060c0600585901b84018101919084019086845b8781101561026a5786850360bf190184528135368a9003601e1901811261022057600080fd5b8901838101903567ffffffffffffffff81111561023c57600080fd5b80360382131561024b57600080fd5b610256878284610189565b9650505092820192908201906001016101fa565b50929b9a505050505050505050505056fea26469706673582212206263c20f9859ee74442febaf92a4f53519927bc80f747fd0492cbb700ef4290264736f6c63430008170033",
  "linkReferences": {},
  "deployedLinkReferences": {}
}