{
  "_format": "hh-sol-artifact-1",
  "contractName": "CollateralPoolToken",
  "sourceName": "contracts/assetManager/implementation/CollateralPoolToken.sol",
  "abi": [
    {
      "inputs": [
        {
          "internalType": "address",
          "name": "_collateralPool",
          "type": "address"
        },
        {
          "internalType": "string",
          "name": "_tokenName",
          "type": "string"
        },
        {
          "internalType": "string",
          "name": "_tokenSymbol",
          "type": "string"
        }
      ],
      "stateMutability": "nonpayable",
      "type": "constructor"
    },
    {
      "anonymous": false,
      "inputs": [
        {
          "indexed": false,
          "internalType": "address",
          "name": "previousAdmin",
          "type": "address"
        },
        {
          "indexed": false,
          "internalType": "address",
          "name": "newAdmin",
          "type": "address"
        }
      ],
      "name": "AdminChanged",
      "type": "event"
    },
    {
      "anonymous": false,
      "inputs": [
        {
          "indexed": true,
          "internalType": "address",
          "name": "owner",
          "type": "address"
        },
        {
          "indexed": true,
          "internalType": "address",
          "name": "spender",
          "type": "address"
        },
        {
          "indexed": false,
          "internalType": "uint256",
          "name": "value",
          "type": "uint256"
        }
      ],
      "name": "Approval",
      "type": "event"
    },
    {
      "anonymous": false,
      "inputs": [
        {
          "indexed": true,
          "internalType": "address",
          "name": "beacon",
          "type": "address"
        }
      ],
      "name": "BeaconUpgraded",
      "type": "event"
    },
    {
      "anonymous": false,
      "inputs": [
        {
          "indexed": true,
          "internalType": "address",
          "name": "from",
          "type": "address"
        },
        {
          "indexed": true,
          "internalType": "address",
          "name": "to",
          "type": "address"
        },
        {
          "indexed": false,
          "internalType": "uint256",
          "name": "value",
          "type": "uint256"
        }
      ],
      "name": "Transfer",
      "type": "event"
    },
    {
      "anonymous": false,
      "inputs": [
        {
          "indexed": true,
          "internalType": "address",
          "name": "implementation",
          "type": "address"
        }
      ],
      "name": "Upgraded",
      "type": "event"
    },
    {
      "inputs": [
        {
          "internalType": "address",
          "name": "owner",
          "type": "address"
        },
        {
          "internalType": "address",
          "name": "spender",
          "type": "address"
        }
      ],
      "name": "allowance",
      "outputs": [
        {
          "internalType": "uint256",
          "name": "",
          "type": "uint256"
        }
      ],
      "stateMutability": "view",
      "type": "function"
    },
    {
      "inputs": [
        {
          "internalType": "address",
          "name": "spender",
          "type": "address"
        },
        {
          "internalType": "uint256",
          "name": "amount",
          "type": "uint256"
        }
      ],
      "name": "approve",
      "outputs": [
        {
          "internalType": "bool",
          "name": "",
          "type": "bool"
        }
      ],
      "stateMutability": "nonpayable",
      "type": "function"
    },
    {
      "inputs": [
        {
          "internalType": "address",
          "name": "account",
          "type": "address"
        }
      ],
      "name": "balanceOf",
      "outputs": [
        {
          "internalType": "uint256",
          "name": "",
          "type": "uint256"
        }
      ],
      "stateMutability": "view",
      "type": "function"
    },
    {
      "inputs": [
        {
          "internalType": "address",
          "name": "_account",
          "type": "address"
        },
        {
          "internalType": "uint256",
          "name": "_amount",
          "type": "uint256"
        },
        {
          "internalType": "bool",
          "name": "_ignoreTimelocked",
          "type": "bool"
        }
      ],
      "name": "burn",
      "outputs": [],
      "stateMutability": "nonpayable",
      "type": "function"
    },
    {
      "inputs": [
        {
          "internalType": "address",
          "name": "_account",
          "type": "address"
        },
        {
          "internalType": "uint256",
          "name": "_maxTimelockedEntries",
          "type": "uint256"
        }
      ],
      "name": "cleanupExpiredTimelocks",
      "outputs": [
        {
          "internalType": "bool",
          "name": "_cleanedAllExpired",
          "type": "bool"
        }
      ],
      "stateMutability": "nonpayable",
      "type": "function"
    },
    {
      "inputs": [],
      "name": "collateralPool",
      "outputs": [
        {
          "internalType": "address",
          "name": "",
          "type": "address"
        }
      ],
      "stateMutability": "view",
      "type": "function"
    },
    {
      "inputs": [
        {
          "internalType": "address",
          "name": "_account",
          "type": "address"
        }
      ],
      "name": "debtFreeBalanceOf",
      "outputs": [
        {
          "internalType": "uint256",
          "name": "",
          "type": "uint256"
        }
      ],
      "stateMutability": "view",
      "type": "function"
    },
    {
      "inputs": [
        {
          "internalType": "address",
          "name": "_account",
          "type": "address"
        }
      ],
      "name": "debtLockedBalanceOf",
      "outputs": [
        {
          "internalType": "uint256",
          "name": "",
          "type": "uint256"
        }
      ],
      "stateMutability": "view",
      "type": "function"
    },
    {
      "inputs": [],
      "name": "decimals",
      "outputs": [
        {
          "internalType": "uint8",
          "name": "",
          "type": "uint8"
        }
      ],
      "stateMutability": "view",
      "type": "function"
    },
    {
      "inputs": [
        {
          "internalType": "address",
          "name": "spender",
          "type": "address"
        },
        {
          "internalType": "uint256",
          "name": "subtractedValue",
          "type": "uint256"
        }
      ],
      "name": "decreaseAllowance",
      "outputs": [
        {
          "internalType": "bool",
          "name": "",
          "type": "bool"
        }
      ],
      "stateMutability": "nonpayable",
      "type": "function"
    },
    {
      "inputs": [
        {
          "internalType": "address payable",
          "name": "_recipient",
          "type": "address"
        }
      ],
      "name": "destroy",
      "outputs": [],
      "stateMutability": "nonpayable",
      "type": "function"
    },
    {
      "inputs": [],
      "name": "implementation",
      "outputs": [
        {
          "internalType": "address",
          "name": "",
          "type": "address"
        }
      ],
      "stateMutability": "view",
      "type": "function"
    },
    {
      "inputs": [
        {
          "internalType": "address",
          "name": "spender",
          "type": "address"
        },
        {
          "internalType": "uint256",
          "name": "addedValue",
          "type": "uint256"
        }
      ],
      "name": "increaseAllowance",
      "outputs": [
        {
          "internalType": "bool",
          "name": "",
          "type": "bool"
        }
      ],
      "stateMutability": "nonpayable",
      "type": "function"
    },
    {
      "inputs": [
        {
          "internalType": "address",
          "name": "_collateralPool",
          "type": "address"
        },
        {
          "internalType": "string",
          "name": "_tokenName",
          "type": "string"
        },
        {
          "internalType": "string",
          "name": "_tokenSymbol",
          "type": "string"
        }
      ],
      "name": "initialize",
      "outputs": [],
      "stateMutability": "nonpayable",
      "type": "function"
    },
    {
      "inputs": [
        {
          "internalType": "address",
          "name": "_account",
          "type": "address"
        }
      ],
      "name": "lockedBalanceOf",
      "outputs": [
        {
          "internalType": "uint256",
          "name": "",
          "type": "uint256"
        }
      ],
      "stateMutability": "view",
      "type": "function"
    },
    {
      "inputs": [
        {
          "internalType": "address",
          "name": "_account",
          "type": "address"
        },
        {
          "internalType": "uint256",
          "name": "_amount",
          "type": "uint256"
        }
      ],
      "name": "mint",
      "outputs": [
        {
          "internalType": "uint256",
          "name": "_timelockExpiresAt",
          "type": "uint256"
        }
      ],
      "stateMutability": "nonpayable",
      "type": "function"
    },
    {
      "inputs": [],
      "name": "name",
      "outputs": [
        {
          "internalType": "string",
          "name": "",
          "type": "string"
        }
      ],
      "stateMutability": "view",
      "type": "function"
    },
    {
      "inputs": [
        {
          "internalType": "address",
          "name": "_account",
          "type": "address"
        }
      ],
      "name": "nonTimelockedBalanceOf",
      "outputs": [
        {
          "internalType": "uint256",
          "name": "",
          "type": "uint256"
        }
      ],
      "stateMutability": "view",
      "type": "function"
    },
    {
      "inputs": [],
      "name": "proxiableUUID",
      "outputs": [
        {
          "internalType": "bytes32",
          "name": "",
          "type": "bytes32"
        }
      ],
      "stateMutability": "view",
      "type": "function"
    },
    {
      "inputs": [
        {
          "internalType": "bytes4",
          "name": "_interfaceId",
          "type": "bytes4"
        }
      ],
      "name": "supportsInterface",
      "outputs": [
        {
          "internalType": "bool",
          "name": "",
          "type": "bool"
        }
      ],
      "stateMutability": "pure",
      "type": "function"
    },
    {
      "inputs": [],
      "name": "symbol",
      "outputs": [
        {
          "internalType": "string",
          "name": "",
          "type": "string"
        }
      ],
      "stateMutability": "view",
      "type": "function"
    },
    {
      "inputs": [
        {
          "internalType": "address",
          "name": "_account",
          "type": "address"
        }
      ],
      "name": "timelockedBalanceOf",
      "outputs": [
        {
          "internalType": "uint256",
          "name": "_timelocked",
          "type": "uint256"
        }
      ],
      "stateMutability": "view",
      "type": "function"
    },
    {
      "inputs": [],
      "name": "totalSupply",
      "outputs": [
        {
          "internalType": "uint256",
          "name": "",
          "type": "uint256"
        }
      ],
      "stateMutability": "view",
      "type": "function"
    },
    {
      "inputs": [
        {
          "internalType": "address",
          "name": "to",
          "type": "address"
        },
        {
          "internalType": "uint256",
          "name": "amount",
          "type": "uint256"
        }
      ],
      "name": "transfer",
      "outputs": [
        {
          "internalType": "bool",
          "name": "",
          "type": "bool"
        }
      ],
      "stateMutability": "nonpayable",
      "type": "function"
    },
    {
      "inputs": [
        {
          "internalType": "address",
          "name": "from",
          "type": "address"
        },
        {
          "internalType": "address",
          "name": "to",
          "type": "address"
        },
        {
          "internalType": "uint256",
          "name": "amount",
          "type": "uint256"
        }
      ],
      "name": "transferFrom",
      "outputs": [
        {
          "internalType": "bool",
          "name": "",
          "type": "bool"
        }
      ],
      "stateMutability": "nonpayable",
      "type": "function"
    },
    {
      "inputs": [
        {
          "internalType": "address",
          "name": "_account",
          "type": "address"
        }
      ],
      "name": "transferableBalanceOf",
      "outputs": [
        {
          "internalType": "uint256",
          "name": "",
          "type": "uint256"
        }
      ],
      "stateMutability": "view",
      "type": "function"
    },
    {
      "inputs": [
        {
          "internalType": "address",
          "name": "newImplementation",
          "type": "address"
        }
      ],
      "name": "upgradeTo",
      "outputs": [],
      "stateMutability": "nonpayable",
      "type": "function"
    },
    {
      "inputs": [
        {
          "internalType": "address",
          "name": "newImplementation",
          "type": "address"
        },
        {
          "internalType": "bytes",
          "name": "data",
          "type": "bytes"
        }
      ],
      "name": "upgradeToAndCall",
      "outputs": [],
      "stateMutability": "payable",
      "type": "function"
    }
  ],
  "bytecode": "0x60a0604052306080523480156200001557600080fd5b5060405162002636380380620026368339810160408190526200003891620001ea565b8181600362000048838262000305565b50600462000057828262000305565b5050506200006d8383836200007660201b60201c565b505050620003d1565b600954610100900460ff1615620000d35760405162461bcd60e51b815260206004820152601360248201527f616c726561647920696e697469616c697a656400000000000000000000000000604482015260640160405180910390fd5b6009805461ff001916610100179055600580546001600160a01b0385166001600160a01b031990911617905560066200010d838262000305565b5060076200011c828262000305565b50505050565b634e487b7160e01b600052604160045260246000fd5b600082601f8301126200014a57600080fd5b81516001600160401b038082111562000167576200016762000122565b604051601f8301601f19908116603f0116810190828211818310171562000192576200019262000122565b8160405283815260209250866020858801011115620001b057600080fd5b600091505b83821015620001d45785820183015181830184015290820190620001b5565b6000602085830101528094505050505092915050565b6000806000606084860312156200020057600080fd5b83516001600160a01b03811681146200021857600080fd5b60208501519093506001600160401b03808211156200023657600080fd5b620002448783880162000138565b935060408601519150808211156200025b57600080fd5b506200026a8682870162000138565b9150509250925092565b600181811c908216806200028957607f821691505b602082108103620002aa57634e487b7160e01b600052602260045260246000fd5b50919050565b601f82111562000300576000816000526020600020601f850160051c81016020861015620002db5750805b601f850160051c820191505b81811015620002fc57828155600101620002e7565b5050505b505050565b81516001600160401b0381111562000321576200032162000122565b620003398162000332845462000274565b84620002b0565b602080601f831160018114620003715760008415620003585750858301515b600019600386901b1c1916600185901b178555620002fc565b600085815260208120601f198616915b82811015620003a25788860151825594840194600190910190840162000381565b5085821015620003c15787850151600019600388901b60f8161c191681555b5050505050600190811b01905550565b60805161222d62000409600039600081816106af015281816106ef015281816108e50152818161092501526109a1015261222d6000f3fe6080604052600436106101b65760003560e01c806370a08231116100ec578063a9059cbb1161008a578063d103be9911610064578063d103be99146104cf578063dd62ed3e146104ef578063e5f71bda1461050f578063ff0eccf61461052f57600080fd5b8063a9059cbb1461046f578063c3bb25a01461048f578063c7d9f4d1146104af57600080fd5b806388b58c72116100c657806388b58c72146103fa578063906571471461041a57806395d89b411461043a578063a457c2d71461044f57600080fd5b806370a082311461038457806376fd4fdf146103ba5780637ee68fc4146103da57600080fd5b80633659cfe6116101595780634f1ef286116101335780634f1ef2861461030f57806352d1902d1461032257806359355736146103375780635c60da1b1461035757600080fd5b80633659cfe6146102af57806339509351146102cf57806340c10f19146102ef57600080fd5b8063095ea7b311610195578063095ea7b31461023457806318160ddd1461025457806323b872dd14610273578063313ce5671461029357600080fd5b8062f55d9d146101bb57806301ffc9a7146101dd57806306fdde0314610212575b600080fd5b3480156101c757600080fd5b506101db6101d6366004611bc2565b61054f565b005b3480156101e957600080fd5b506101fd6101f8366004611bdf565b610585565b60405190151581526020015b60405180910390f35b34801561021e57600080fd5b506102276105d7565b6040516102099190611c2d565b34801561024057600080fd5b506101fd61024f366004611c60565b610669565b34801561026057600080fd5b506002545b604051908152602001610209565b34801561027f57600080fd5b506101fd61028e366004611c8c565b610681565b34801561029f57600080fd5b5060405160128152602001610209565b3480156102bb57600080fd5b506101db6102ca366004611bc2565b6106a5565b3480156102db57600080fd5b506101fd6102ea366004611c60565b61076a565b3480156102fb57600080fd5b5061026561030a366004611c60565b61078c565b6101db61031d366004611d59565b6108db565b34801561032e57600080fd5b50610265610994565b34801561034357600080fd5b50610265610352366004611bc2565b610a47565b34801561036357600080fd5b5061036c610a79565b6040516001600160a01b039091168152602001610209565b34801561039057600080fd5b5061026561039f366004611bc2565b6001600160a01b031660009081526020819052604090205490565b3480156103c657600080fd5b506101db6103d5366004611dbd565b610a88565b3480156103e657600080fd5b506102656103f5366004611bc2565b610ae6565b34801561040657600080fd5b50610265610415366004611bc2565b610b56565b34801561042657600080fd5b506101db610435366004611e24565b610b89565b34801561044657600080fd5b50610227610c22565b34801561045b57600080fd5b506101fd61046a366004611c60565b610c31565b34801561047b57600080fd5b506101fd61048a366004611c60565b610cac565b34801561049b57600080fd5b506102656104aa366004611bc2565b610cba565b3480156104bb57600080fd5b506102656104ca366004611bc2565b610ce8565b3480156104db57600080fd5b506102656104ea366004611bc2565b610d10565b3480156104fb57600080fd5b5061026561050a366004611e9a565b610dc5565b34801561051b57600080fd5b506101fd61052a366004611c60565b610df0565b34801561053b57600080fd5b5060055461036c906001600160a01b031681565b6005546001600160a01b031633146105825760405162461bcd60e51b815260040161057990611ed3565b60405180910390fd5b50565b60006001600160e01b031982166301ffc9a760e01b14806105b657506001600160e01b031982166336372b0760e01b145b806105d157506001600160e01b03198216634284fbcf60e11b145b92915050565b6060600680546105e690611f01565b80601f016020809104026020016040519081016040528092919081815260200182805461061290611f01565b801561065f5780601f106106345761010080835404028352916020019161065f565b820191906000526020600020905b81548152906001019060200180831161064257829003601f168201915b5050505050905090565b600033610677818585610f0c565b5060019392505050565b60003361068f858285611030565b61069a8585856110a4565b506001949350505050565b6001600160a01b037f00000000000000000000000000000000000000000000000000000000000000001630036106ed5760405162461bcd60e51b815260040161057990611f3b565b7f00000000000000000000000000000000000000000000000000000000000000006001600160a01b031661071f611253565b6001600160a01b0316146107455760405162461bcd60e51b815260040161057990611f87565b61074e8161126f565b604080516000808252602082019092526105829183919061132c565b60003361067781858561077d8383610dc5565b6107879190611fe9565b610f0c565b6005546000906001600160a01b031633146107b95760405162461bcd60e51b815260040161057990611ed3565b6107c38383611497565b60006107cd611562565b90506107d98142611fe9565b91506000811180156107eb5750600083115b156108d4576001600160a01b038416600090815260086020526040908190208151808301909252908061081d86611646565b6001600160801b03168152602001610834856116b3565b67ffffffffffffffff1690526001820180548391600091600160801b90046001600160801b031690601061086783611ffc565b82546101009290920a6001600160801b0381810219909316918316021790915590811682526020808301939093526040909101600020835181549490930151929091166001600160c01b031990931692909217600160801b67ffffffffffffffff90921691909102179055505b5092915050565b6001600160a01b037f00000000000000000000000000000000000000000000000000000000000000001630036109235760405162461bcd60e51b815260040161057990611f3b565b7f00000000000000000000000000000000000000000000000000000000000000006001600160a01b0316610955611253565b6001600160a01b03161461097b5760405162461bcd60e51b815260040161057990611f87565b6109848261126f565b6109908282600161132c565b5050565b6000306001600160a01b037f00000000000000000000000000000000000000000000000000000000000000001614610a345760405162461bcd60e51b815260206004820152603860248201527f555550535570677261646561626c653a206d757374206e6f742062652063616c60448201527f6c6564207468726f7567682064656c656761746563616c6c00000000000000006064820152608401610579565b506000805160206121b183398151915290565b600080610a5383610b56565b90506000610a6084610d10565b9050808211610a6f5780610a71565b815b949350505050565b6000610a83611253565b905090565b6005546001600160a01b03163314610ab25760405162461bcd60e51b815260040161057990611ed3565b8015610ac6576009805460ff191660011790555b610ad0838361171c565b8015610ae1576009805460ff191690555b505050565b60055460405163c79d245d60e01b81526001600160a01b038381166004830152600092169063c79d245d906024015b602060405180830381865afa158015610b32573d6000803e3d6000fd5b505050506040513d601f19601f820116820180604052508101906105d19190612022565b600554604051630af15fdd60e11b81526001600160a01b03838116600483015260009216906315e2bfba90602401610b15565b600954610100900460ff1615610bd75760405162461bcd60e51b8152602060048201526013602482015272185b1c9958591e481a5b9a5d1a585b1a5e9959606a1b6044820152606401610579565b6009805461ff001916610100179055600580546001600160a01b0385166001600160a01b03199091161790556006610c0f838261208b565b506007610c1c828261208b565b50505050565b6060600780546105e690611f01565b60003381610c3f8286610dc5565b905083811015610c9f5760405162461bcd60e51b815260206004820152602560248201527f45524332303a2064656372656173656420616c6c6f77616e63652062656c6f77604482015264207a65726f60d81b6064820152608401610579565b61069a8286868403610f0c565b6000336106778185856110a4565b6000610cc582610d10565b6001600160a01b0383166000908152602081905260409020546105d1919061214b565b600080610cf483610ae6565b90506000610d0184610cba565b9050808210610a6f5780610a71565b6001600160a01b038116600090815260086020526040812060018101546001600160801b03600160801b8204811691165b81811015610d93576000818152602084905260409020805442600160801b90910467ffffffffffffffff161115610d8a578054610d87906001600160801b031686611fe9565b94505b50600101610d41565b506001600160a01b038416600090815260208190526040902054808410610dba5780610dbc565b835b95945050505050565b6001600160a01b03918216600090815260016020908152604080832093909416825291909152205490565b6001600160a01b038216600090815260086020526040812060018101546001600160801b0316825b84811015610e9c576001830154600160801b90046001600160801b031682101580610e62575060008281526020849052604090205442600160801b90910467ffffffffffffffff16115b610e9c5782600083610e738161215e565b908252602082019290925260400160002080546001600160c01b03191690559150600101610e18565b50610ea681611646565b6001830180546fffffffffffffffffffffffffffffffff19166001600160801b039283161790819055600160801b90041681101580610dbc575060008181526020839052604090205442600160801b90910467ffffffffffffffff161195945050505050565b6001600160a01b038316610f6e5760405162461bcd60e51b8152602060048201526024808201527f45524332303a20617070726f76652066726f6d20746865207a65726f206164646044820152637265737360e01b6064820152608401610579565b6001600160a01b038216610fcf5760405162461bcd60e51b815260206004820152602260248201527f45524332303a20617070726f766520746f20746865207a65726f206164647265604482015261737360f01b6064820152608401610579565b6001600160a01b0383811660008181526001602090815260408083209487168084529482529182902085905590518481527f8c5be1e5ebec7d5bd14f71427d1e84f3dd0314c0f7b2291e5b200ac8c7c3b925910160405180910390a3505050565b600061103c8484610dc5565b90506000198114610c1c57818110156110975760405162461bcd60e51b815260206004820152601d60248201527f45524332303a20696e73756666696369656e7420616c6c6f77616e63650000006044820152606401610579565b610c1c8484848403610f0c565b6001600160a01b0383166111085760405162461bcd60e51b815260206004820152602560248201527f45524332303a207472616e736665722066726f6d20746865207a65726f206164604482015264647265737360d81b6064820152608401610579565b6001600160a01b03821661116a5760405162461bcd60e51b815260206004820152602360248201527f45524332303a207472616e7366657220746f20746865207a65726f206164647260448201526265737360e81b6064820152608401610579565b61117583838361185a565b6001600160a01b038316600090815260208190526040902054818110156111ed5760405162461bcd60e51b815260206004820152602660248201527f45524332303a207472616e7366657220616d6f756e7420657863656564732062604482015265616c616e636560d01b6064820152608401610579565b6001600160a01b03848116600081815260208181526040808320878703905593871680835291849020805487019055925185815290927fddf252ad1be2c89b69c2b068fc378daa952ba7f163c4a11628f55a4df523b3ef910160405180910390a3610c1c565b6000805160206121b1833981519152546001600160a01b031690565b600554604080516394217ad160e01b815290516000926001600160a01b0316916394217ad19160048083019260209291908290030181865afa1580156112b9573d6000803e3d6000fd5b505050506040513d601f19601f820116820180604052508101906112dd9190612177565b9050336001600160a01b038216146109905760405162461bcd60e51b815260206004820152601260248201527137b7363c9030b9b9b2ba1036b0b730b3b2b960711b6044820152606401610579565b7f4910fdfa16fed3260ed0e7147f7cc6da11a60208b5b9406d12a635614ffd91435460ff161561135f57610ae18361196a565b826001600160a01b03166352d1902d6040518163ffffffff1660e01b8152600401602060405180830381865afa9250505080156113b9575060408051601f3d908101601f191682019092526113b691810190612022565b60015b61141c5760405162461bcd60e51b815260206004820152602e60248201527f45524331393637557067726164653a206e657720696d706c656d656e7461746960448201526d6f6e206973206e6f74205555505360901b6064820152608401610579565b6000805160206121b1833981519152811461148b5760405162461bcd60e51b815260206004820152602960248201527f45524331393637557067726164653a20756e737570706f727465642070726f786044820152681a58589b195555525160ba1b6064820152608401610579565b50610ae1838383611a06565b6001600160a01b0382166114ed5760405162461bcd60e51b815260206004820152601f60248201527f45524332303a206d696e7420746f20746865207a65726f2061646472657373006044820152606401610579565b6114f96000838361185a565b806002600082825461150b9190611fe9565b90915550506001600160a01b038216600081815260208181526040808320805486019055518481527fddf252ad1be2c89b69c2b068fc378daa952ba7f163c4a11628f55a4df523b3ef910160405180910390a35050565b600080600560009054906101000a90046001600160a01b03166001600160a01b03166394217ad16040518163ffffffff1660e01b8152600401602060405180830381865afa1580156115b8573d6000803e3d6000fd5b505050506040513d601f19601f820116820180604052508101906115dc9190612177565b9050806001600160a01b031663177d03076040518163ffffffff1660e01b8152600401602060405180830381865afa15801561161c573d6000803e3d6000fd5b505050506040513d601f19601f820116820180604052508101906116409190612022565b91505090565b60006001600160801b038211156116af5760405162461bcd60e51b815260206004820152602760248201527f53616665436173743a2076616c756520646f65736e27742066697420696e20316044820152663238206269747360c81b6064820152608401610579565b5090565b600067ffffffffffffffff8211156116af5760405162461bcd60e51b815260206004820152602660248201527f53616665436173743a2076616c756520646f65736e27742066697420696e203660448201526534206269747360d01b6064820152608401610579565b6001600160a01b03821661177c5760405162461bcd60e51b815260206004820152602160248201527f45524332303a206275726e2066726f6d20746865207a65726f206164647265736044820152607360f81b6064820152608401610579565b6117888260008361185a565b6001600160a01b038216600090815260208190526040902054818110156117fc5760405162461bcd60e51b815260206004820152602260248201527f45524332303a206275726e20616d6f756e7420657863656564732062616c616e604482015261636560f01b6064820152608401610579565b6001600160a01b0383166000818152602081815260408083208686039055600280548790039055518581529192917fddf252ad1be2c89b69c2b068fc378daa952ba7f163c4a11628f55a4df523b3ef910160405180910390a3505050565b6005546001600160a01b031633146118d557600061187784610ae6565b9050808211156118d35760405162461bcd60e51b815260206004820152602160248201527f696e73756666696369656e74207472616e7366657261626c652062616c616e636044820152606560f81b6064820152608401610579565b505b60095460ff161580156118f057506001600160a01b03831615155b15610ae15761190083600a610df0565b50600061190c84610cba565b905080821115610c1c5760405162461bcd60e51b815260206004820152602360248201527f696e73756666696369656e74206e6f6e2d74696d656c6f636b65642062616c616044820152626e636560e81b6064820152608401610579565b6001600160a01b0381163b6119d75760405162461bcd60e51b815260206004820152602d60248201527f455243313936373a206e657720696d706c656d656e746174696f6e206973206e60448201526c1bdd08184818dbdb9d1c9858dd609a1b6064820152608401610579565b6000805160206121b183398151915280546001600160a01b0319166001600160a01b0392909216919091179055565b611a0f83611a2b565b600082511180611a1c5750805b15610ae157610c1c8383611a6b565b611a348161196a565b6040516001600160a01b038216907fbc7cd75a20ee27fd9adebab32041f755214dbc6bffa90cc0225b39da2e5c2d3b90600090a250565b6060611a9083836040518060600160405280602781526020016121d160279139611a97565b9392505050565b6060600080856001600160a01b031685604051611ab49190612194565b600060405180830381855af49150503d8060008114611aef576040519150601f19603f3d011682016040523d82523d6000602084013e611af4565b606091505b5091509150611b0586838387611b0f565b9695505050505050565b60608315611b7e578251600003611b77576001600160a01b0385163b611b775760405162461bcd60e51b815260206004820152601d60248201527f416464726573733a2063616c6c20746f206e6f6e2d636f6e74726163740000006044820152606401610579565b5081610a71565b610a718383815115611b935781518083602001fd5b8060405162461bcd60e51b81526004016105799190611c2d565b6001600160a01b038116811461058257600080fd5b600060208284031215611bd457600080fd5b8135611a9081611bad565b600060208284031215611bf157600080fd5b81356001600160e01b031981168114611a9057600080fd5b60005b83811015611c24578181015183820152602001611c0c565b50506000910152565b6020815260008251806020840152611c4c816040850160208701611c09565b601f01601f19169190910160400192915050565b60008060408385031215611c7357600080fd5b8235611c7e81611bad565b946020939093013593505050565b600080600060608486031215611ca157600080fd5b8335611cac81611bad565b92506020840135611cbc81611bad565b929592945050506040919091013590565b634e487b7160e01b600052604160045260246000fd5b600067ffffffffffffffff80841115611cfe57611cfe611ccd565b604051601f8501601f19908116603f01168101908282118183101715611d2657611d26611ccd565b81604052809350858152868686011115611d3f57600080fd5b858560208301376000602087830101525050509392505050565b60008060408385031215611d6c57600080fd5b8235611d7781611bad565b9150602083013567ffffffffffffffff811115611d9357600080fd5b8301601f81018513611da457600080fd5b611db385823560208401611ce3565b9150509250929050565b600080600060608486031215611dd257600080fd5b8335611ddd81611bad565b92506020840135915060408401358015158114611df957600080fd5b809150509250925092565b600082601f830112611e1557600080fd5b611a9083833560208501611ce3565b600080600060608486031215611e3957600080fd5b8335611e4481611bad565b9250602084013567ffffffffffffffff80821115611e6157600080fd5b611e6d87838801611e04565b93506040860135915080821115611e8357600080fd5b50611e9086828701611e04565b9150509250925092565b60008060408385031215611ead57600080fd5b8235611eb881611bad565b91506020830135611ec881611bad565b809150509250929050565b6020808252601490820152731bdb9b1e4818dbdb1b185d195c985b081c1bdbdb60621b604082015260600190565b600181811c90821680611f1557607f821691505b602082108103611f3557634e487b7160e01b600052602260045260246000fd5b50919050565b6020808252602c908201527f46756e6374696f6e206d7573742062652063616c6c6564207468726f7567682060408201526b19195b1959d85d1958d85b1b60a21b606082015260800190565b6020808252602c908201527f46756e6374696f6e206d7573742062652063616c6c6564207468726f7567682060408201526b6163746976652070726f787960a01b606082015260800190565b634e487b7160e01b600052601160045260246000fd5b808201808211156105d1576105d1611fd3565b60006001600160801b0380831681810361201857612018611fd3565b6001019392505050565b60006020828403121561203457600080fd5b5051919050565b601f821115610ae1576000816000526020600020601f850160051c810160208610156120645750805b601f850160051c820191505b8181101561208357828155600101612070565b505050505050565b815167ffffffffffffffff8111156120a5576120a5611ccd565b6120b9816120b38454611f01565b8461203b565b602080601f8311600181146120ee57600084156120d65750858301515b600019600386901b1c1916600185901b178555612083565b600085815260208120601f198616915b8281101561211d578886015182559484019460019091019084016120fe565b508582101561213b5787850151600019600388901b60f8161c191681555b5050505050600190811b01905550565b818103818111156105d1576105d1611fd3565b60006001820161217057612170611fd3565b5060010190565b60006020828403121561218957600080fd5b8151611a9081611bad565b600082516121a6818460208701611c09565b919091019291505056fe360894a13ba1a3210667c828492db98dca3e2076cc3735a920a3ca505d382bbc416464726573733a206c6f772d6c6576656c2064656c65676174652063616c6c206661696c6564a2646970667358221220185db02867db7b789a95d340e79db9729d22d7daaca745c262c8a733a02e7c3864736f6c63430008170033",
  "linkReferences": {},
  "deployedLinkReferences": {}
}