{
  "_format": "hh-sol-artifact-1",
  "contractName": "ContingencyPool",
  "sourceName": "contracts/fasset/implementation/ContingencyPool.sol",
  "abi": [
    {
      "inputs": [
        {
          "internalType": "address",
          "name": "_agentVault",
          "type": "address"
        },
        {
          "internalType": "address",
          "name": "_assetManager",
          "type": "address"
        },
        {
          "internalType": "address",
          "name": "_fAsset",
          "type": "address"
        },
        {
          "internalType": "uint32",
          "name": "_exitCollateralRatioBIPS",
          "type": "uint32"
        },
        {
          "internalType": "uint32",
          "name": "_topupCollateralRatioBIPS",
          "type": "uint32"
        },
        {
          "internalType": "uint16",
          "name": "_topupTokenPriceFactorBIPS",
          "type": "uint16"
        }
      ],
      "stateMutability": "nonpayable",
      "type": "constructor"
    },
    {
      "anonymous": false,
      "inputs": [
        {
          "indexed": true,
          "internalType": "address",
          "name": "tokenHolder",
          "type": "address"
        },
        {
          "indexed": false,
          "internalType": "uint256",
          "name": "amountNatWei",
          "type": "uint256"
        },
        {
          "indexed": false,
          "internalType": "uint256",
          "name": "receivedTokensWei",
          "type": "uint256"
        },
        {
          "indexed": false,
          "internalType": "uint256",
          "name": "addedFAssetFeesUBA",
          "type": "uint256"
        }
      ],
      "name": "Entered",
      "type": "event"
    },
    {
      "anonymous": false,
      "inputs": [
        {
          "indexed": true,
          "internalType": "address",
          "name": "tokenHolder",
          "type": "address"
        },
        {
          "indexed": false,
          "internalType": "uint256",
          "name": "burnedTokensWei",
          "type": "uint256"
        },
        {
          "indexed": false,
          "internalType": "uint256",
          "name": "receivedNatWei",
          "type": "uint256"
        },
        {
          "indexed": false,
          "internalType": "uint256",
          "name": "receviedFAssetFeesUBA",
          "type": "uint256"
        },
        {
          "indexed": false,
          "internalType": "uint256",
          "name": "closedFAssetsUBA",
          "type": "uint256"
        }
      ],
      "name": "Exited",
      "type": "event"
    },
    {
      "anonymous": false,
      "inputs": [
        {
          "indexed": false,
          "internalType": "uint256",
          "name": "burnedTokensWei",
          "type": "uint256"
        },
        {
          "indexed": false,
          "internalType": "uint256",
          "name": "redeemedFAssetUBA",
          "type": "uint256"
        }
      ],
      "name": "IncompleteSelfCloseExit",
      "type": "event"
    },
    {
      "inputs": [],
      "name": "MIN_NAT_BALANCE_AFTER_EXIT",
      "outputs": [
        {
          "internalType": "uint256",
          "name": "",
          "type": "uint256"
        }
      ],
      "stateMutability": "view",
      "type": "function"
    },
    {
      "inputs": [],
      "name": "MIN_NAT_TO_ENTER",
      "outputs": [
        {
          "internalType": "uint256",
          "name": "",
          "type": "uint256"
        }
      ],
      "stateMutability": "view",
      "type": "function"
    },
    {
      "inputs": [],
      "name": "MIN_TOKEN_SUPPLY_AFTER_EXIT",
      "outputs": [
        {
          "internalType": "uint256",
          "name": "",
          "type": "uint256"
        }
      ],
      "stateMutability": "view",
      "type": "function"
    },
    {
      "inputs": [],
      "name": "agentVault",
      "outputs": [
        {
          "internalType": "address",
          "name": "",
          "type": "address"
        }
      ],
      "stateMutability": "view",
      "type": "function"
    },
    {
      "inputs": [],
      "name": "assetManager",
      "outputs": [
        {
          "internalType": "contract IIAssetManager",
          "name": "",
          "type": "address"
        }
      ],
      "stateMutability": "view",
      "type": "function"
    },
    {
      "inputs": [
        {
          "internalType": "contract IDistributionToDelegators",
          "name": "_distribution",
          "type": "address"
        },
        {
          "internalType": "uint256",
          "name": "_month",
          "type": "uint256"
        }
      ],
      "name": "claimAirdropDistribution",
      "outputs": [
        {
          "internalType": "uint256",
          "name": "",
          "type": "uint256"
        }
      ],
      "stateMutability": "nonpayable",
      "type": "function"
    },
    {
      "inputs": [
        {
          "internalType": "contract IFtsoRewardManager",
          "name": "_ftsoRewardManager",
          "type": "address"
        },
        {
          "internalType": "uint256",
          "name": "_lastRewardEpoch",
          "type": "uint256"
        }
      ],
      "name": "claimFtsoRewards",
      "outputs": [
        {
          "internalType": "uint256",
          "name": "",
          "type": "uint256"
        }
      ],
      "stateMutability": "nonpayable",
      "type": "function"
    },
    {
      "inputs": [
        {
          "internalType": "address[]",
          "name": "_to",
          "type": "address[]"
        },
        {
          "internalType": "uint256[]",
          "name": "_bips",
          "type": "uint256[]"
        }
      ],
      "name": "delegate",
      "outputs": [],
      "stateMutability": "nonpayable",
      "type": "function"
    },
    {
      "inputs": [
        {
          "internalType": "address",
          "name": "_to",
          "type": "address"
        }
      ],
      "name": "delegateGovernance",
      "outputs": [],
      "stateMutability": "nonpayable",
      "type": "function"
    },
    {
      "inputs": [
        {
          "internalType": "address payable",
          "name": "_recipient",
          "type": "address"
        }
      ],
      "name": "destroy",
      "outputs": [],
      "stateMutability": "nonpayable",
      "type": "function"
    },
    {
      "inputs": [
        {
          "internalType": "uint256",
          "name": "_fAssets",
          "type": "uint256"
        },
        {
          "internalType": "bool",
          "name": "_enterWithFullFAssets",
          "type": "bool"
        }
      ],
      "name": "enter",
      "outputs": [],
      "stateMutability": "payable",
      "type": "function"
    },
    {
      "inputs": [
        {
          "internalType": "uint256",
          "name": "_tokenShare",
          "type": "uint256"
        },
        {
          "internalType": "enum IContingencyPool.TokenExitType",
          "name": "_exitType",
          "type": "uint8"
        }
      ],
      "name": "exit",
      "outputs": [
        {
          "internalType": "uint256",
          "name": "",
          "type": "uint256"
        },
        {
          "internalType": "uint256",
          "name": "",
          "type": "uint256"
        }
      ],
      "stateMutability": "nonpayable",
      "type": "function"
    },
    {
      "inputs": [],
      "name": "exitCollateralRatioBIPS",
      "outputs": [
        {
          "internalType": "uint32",
          "name": "",
          "type": "uint32"
        }
      ],
      "stateMutability": "view",
      "type": "function"
    },
    {
      "inputs": [],
      "name": "fAsset",
      "outputs": [
        {
          "internalType": "contract IERC20",
          "name": "",
          "type": "address"
        }
      ],
      "stateMutability": "view",
      "type": "function"
    },
    {
      "inputs": [
        {
          "internalType": "address",
          "name": "_account",
          "type": "address"
        }
      ],
      "name": "fAssetFeeDebtOf",
      "outputs": [
        {
          "internalType": "uint256",
          "name": "",
          "type": "uint256"
        }
      ],
      "stateMutability": "view",
      "type": "function"
    },
    {
      "inputs": [
        {
          "internalType": "uint256",
          "name": "_amount",
          "type": "uint256"
        }
      ],
      "name": "fAssetFeeDeposited",
      "outputs": [],
      "stateMutability": "nonpayable",
      "type": "function"
    },
    {
      "inputs": [
        {
          "internalType": "address",
          "name": "_account",
          "type": "address"
        }
      ],
      "name": "fAssetFeesOf",
      "outputs": [
        {
          "internalType": "uint256",
          "name": "",
          "type": "uint256"
        }
      ],
      "stateMutability": "view",
      "type": "function"
    },
    {
      "inputs": [
        {
          "internalType": "uint256",
          "name": "_tokenAmountWei",
          "type": "uint256"
        }
      ],
      "name": "fAssetRequiredForSelfCloseExit",
      "outputs": [
        {
          "internalType": "uint256",
          "name": "",
          "type": "uint256"
        }
      ],
      "stateMutability": "view",
      "type": "function"
    },
    {
      "inputs": [
        {
          "internalType": "address",
          "name": "_account",
          "type": "address"
        }
      ],
      "name": "lockedTokensOf",
      "outputs": [
        {
          "internalType": "uint256",
          "name": "",
          "type": "uint256"
        }
      ],
      "stateMutability": "view",
      "type": "function"
    },
    {
      "inputs": [
        {
          "internalType": "contract IDistributionToDelegators",
          "name": "_distribution",
          "type": "address"
        }
      ],
      "name": "optOutOfAirdrop",
      "outputs": [],
      "stateMutability": "nonpayable",
      "type": "function"
    },
    {
      "inputs": [
        {
          "internalType": "uint256",
          "name": "_fAssets",
          "type": "uint256"
        }
      ],
      "name": "payFAssetFeeDebt",
      "outputs": [],
      "stateMutability": "nonpayable",
      "type": "function"
    },
    {
      "inputs": [
        {
          "internalType": "address",
          "name": "_recipient",
          "type": "address"
        },
        {
          "internalType": "uint256",
          "name": "_amount",
          "type": "uint256"
        },
        {
          "internalType": "uint256",
          "name": "_agentResponsibilityWei",
          "type": "uint256"
        }
      ],
      "name": "payout",
      "outputs": [],
      "stateMutability": "nonpayable",
      "type": "function"
    },
    {
      "inputs": [],
      "name": "poolToken",
      "outputs": [
        {
          "internalType": "contract IContingencyPoolToken",
          "name": "",
          "type": "address"
        }
      ],
      "stateMutability": "view",
      "type": "function"
    },
    {
      "inputs": [
        {
          "internalType": "address",
          "name": "_who",
          "type": "address"
        },
        {
          "internalType": "uint256",
          "name": "_blockNumber",
          "type": "uint256"
        }
      ],
      "name": "revokeDelegationAt",
      "outputs": [],
      "stateMutability": "nonpayable",
      "type": "function"
    },
    {
      "inputs": [
        {
          "internalType": "uint256",
          "name": "_tokenShare",
          "type": "uint256"
        },
        {
          "internalType": "bool",
          "name": "_redeemToCollateral",
          "type": "bool"
        },
        {
          "internalType": "string",
          "name": "_redeemerUnderlyingAddress",
          "type": "string"
        }
      ],
      "name": "selfCloseExit",
      "outputs": [],
      "stateMutability": "nonpayable",
      "type": "function"
    },
    {
      "inputs": [
        {
          "internalType": "contract IClaimSetupManager",
          "name": "_claimSetupManager",
          "type": "address"
        },
        {
          "internalType": "address[]",
          "name": "_executors",
          "type": "address[]"
        }
      ],
      "name": "setAutoClaiming",
      "outputs": [],
      "stateMutability": "payable",
      "type": "function"
    },
    {
      "inputs": [
        {
          "internalType": "uint256",
          "name": "_exitCollateralRatioBIPS",
          "type": "uint256"
        }
      ],
      "name": "setExitCollateralRatioBIPS",
      "outputs": [],
      "stateMutability": "nonpayable",
      "type": "function"
    },
    {
      "inputs": [
        {
          "internalType": "address",
          "name": "_poolToken",
          "type": "address"
        }
      ],
      "name": "setPoolToken",
      "outputs": [],
      "stateMutability": "nonpayable",
      "type": "function"
    },
    {
      "inputs": [
        {
          "internalType": "uint256",
          "name": "_topupCollateralRatioBIPS",
          "type": "uint256"
        }
      ],
      "name": "setTopupCollateralRatioBIPS",
      "outputs": [],
      "stateMutability": "nonpayable",
      "type": "function"
    },
    {
      "inputs": [
        {
          "internalType": "uint256",
          "name": "_topupTokenPriceFactorBIPS",
          "type": "uint256"
        }
      ],
      "name": "setTopupTokenPriceFactorBIPS",
      "outputs": [],
      "stateMutability": "nonpayable",
      "type": "function"
    },
    {
      "inputs": [
        {
          "internalType": "bytes4",
          "name": "_interfaceId",
          "type": "bytes4"
        }
      ],
      "name": "supportsInterface",
      "outputs": [
        {
          "internalType": "bool",
          "name": "",
          "type": "bool"
        }
      ],
      "stateMutability": "pure",
      "type": "function"
    },
    {
      "inputs": [],
      "name": "token",
      "outputs": [
        {
          "internalType": "contract ContingencyPoolToken",
          "name": "",
          "type": "address"
        }
      ],
      "stateMutability": "view",
      "type": "function"
    },
    {
      "inputs": [],
      "name": "topupCollateralRatioBIPS",
      "outputs": [
        {
          "internalType": "uint32",
          "name": "",
          "type": "uint32"
        }
      ],
      "stateMutability": "view",
      "type": "function"
    },
    {
      "inputs": [],
      "name": "topupTokenPriceFactorBIPS",
      "outputs": [
        {
          "internalType": "uint16",
          "name": "",
          "type": "uint16"
        }
      ],
      "stateMutability": "view",
      "type": "function"
    },
    {
      "inputs": [],
      "name": "totalCollateral",
      "outputs": [
        {
          "internalType": "uint256",
          "name": "",
          "type": "uint256"
        }
      ],
      "stateMutability": "view",
      "type": "function"
    },
    {
      "inputs": [],
      "name": "totalFAssetFeeDebt",
      "outputs": [
        {
          "internalType": "uint256",
          "name": "",
          "type": "uint256"
        }
      ],
      "stateMutability": "view",
      "type": "function"
    },
    {
      "inputs": [],
      "name": "totalFAssetFees",
      "outputs": [
        {
          "internalType": "uint256",
          "name": "",
          "type": "uint256"
        }
      ],
      "stateMutability": "view",
      "type": "function"
    },
    {
      "inputs": [
        {
          "internalType": "address",
          "name": "_account",
          "type": "address"
        }
      ],
      "name": "transferableTokensOf",
      "outputs": [
        {
          "internalType": "uint256",
          "name": "",
          "type": "uint256"
        }
      ],
      "stateMutability": "view",
      "type": "function"
    },
    {
      "inputs": [],
      "name": "undelegateAll",
      "outputs": [],
      "stateMutability": "nonpayable",
      "type": "function"
    },
    {
      "inputs": [],
      "name": "undelegateGovernance",
      "outputs": [],
      "stateMutability": "nonpayable",
      "type": "function"
    },
    {
      "inputs": [
        {
          "internalType": "contract IWNat",
          "name": "_newWNat",
          "type": "address"
        }
      ],
      "name": "upgradeWNatContract",
      "outputs": [],
      "stateMutability": "nonpayable",
      "type": "function"
    },
    {
      "inputs": [
        {
          "internalType": "address",
          "name": "_account",
          "type": "address"
        }
      ],
      "name": "virtualFAssetOf",
      "outputs": [
        {
          "internalType": "uint256",
          "name": "",
          "type": "uint256"
        }
      ],
      "stateMutability": "view",
      "type": "function"
    },
    {
      "inputs": [],
      "name": "wNat",
      "outputs": [
        {
          "internalType": "contract IWNat",
          "name": "",
          "type": "address"
        }
      ],
      "stateMutability": "view",
      "type": "function"
    },
    {
      "inputs": [],
      "name": "withdrawCollateralWhenFAssetTerminated",
      "outputs": [],
      "stateMutability": "nonpayable",
      "type": "function"
    },
    {
      "inputs": [
        {
          "internalType": "uint256",
          "name": "_fAssets",
          "type": "uint256"
        }
      ],
      "name": "withdrawFees",
      "outputs": [],
      "stateMutability": "nonpayable",
      "type": "function"
    },
    {
      "stateMutability": "payable",
      "type": "receive"
    }
  ],
  "bytecode": "0x60e06040523480156200001157600080fd5b5060405162004ba138038062004ba183398101604081905262000034916200015a565b60016000556001600160a01b0380871660805285811660a081905290851660c05260408051635ad2445360e11b8152905163b5a488a6916004808201926020929091908290030181865afa15801562000091573d6000803e3d6000fd5b505050506040513d601f19601f82011682018060405250810190620000b79190620001ed565b6002805461ffff909316600160e01b0261ffff60e01b1963ffffffff958616600160c01b021665ffffffffffff60c01b1995909616600160a01b026001600160c01b03199094166001600160a01b0393909316929092179290921792909216929092171790555062000214915050565b6001600160a01b03811681146200013d57600080fd5b50565b805163ffffffff811681146200015557600080fd5b919050565b60008060008060008060c087890312156200017457600080fd5b8651620001818162000127565b6020880151909650620001948162000127565b6040880151909550620001a78162000127565b9350620001b76060880162000140565b9250620001c76080880162000140565b915060a087015161ffff81168114620001df57600080fd5b809150509295509295509295565b6000602082840312156200020057600080fd5b81516200020d8162000127565b9392505050565b60805160a05160c05161485a620003476000396000818161055d01528181610b6401528181610c010152818161165f015281816116f501528181612438015281816128f301528181612c6a015281816137b5015261380101526000818161065b01528181610893015281816110320152818161145401528181611727015281816118020152818161187a01528181611c3301528181611fcd0152818161209001528181612142015281816125390152818161265b01528181612d6801528181612f650152818161318d015281816132d901526139e50152600081816105bc01528181611429015281816117cd015281816118a701528181612509015281816126d00152818161278a015281816127b9015281816127f801528181612f35015281816132ab01526139b2015261485a6000f3fe6080604052600436106102755760003560e01c806387a2a0dc1161014f578063b9e26483116100c1578063cbdf382c1161007a578063cbdf382c146107ea578063ee781db014610808578063f4d000b214610828578063fbebcadf14610420578063fc0c546a14610848578063fd86d3ea1461086857600080fd5b8063b9e2648314610328578063ba133b8714610749578063bbd6fbf81461075e578063c1b0bbf81461077e578063cb2094131461079e578063cbabdf39146107d457600080fd5b80639edbf007116101135780639edbf0071461069d578063a854a6a2146106bd578063ac3736c1146106dd578063adf58c15146106f0578063b302f39314610710578063b337929b1461072557600080fd5b806387a2a0dc146105fe57806388985cd614610613578063923f89321461063357806394217ad1146106495780639a4247e61461067d57600080fd5b80634ac8eb5f116101e8578063787b9ca8116101ac578063787b9ca81461050b5780637a68a5081461052b5780637c7db1a51461054b5780638043497814610597578063815ea9d6146105aa57806386ac57a2146105de57600080fd5b80634ac8eb5f146104755780635ca364891461048b5780635e318e07146104ab57806365325871146104cb5780636d73e7c8146104eb57600080fd5b80632f35eac21161023a5780632f35eac21461037257806333ce01fd146103a75780633a22a94d146103c75780633cfc747d146103e7578063406c7007146104205780634a4ac2ef1461044057600080fd5b8062f55d9d146102d357806301ffc9a7146102f35780630ac07344146103285780630dc1e5e1146103285780631b92d84a1461035257600080fd5b366102ce57600254600160f01b900460ff166102cc5760405162461bcd60e51b81526020600482015260116024820152706f6e6c7920696e7465726e616c2075736560781b60448201526064015b60405180910390fd5b005b600080fd5b3480156102df57600080fd5b506102cc6102ee366004614063565b610888565b3480156102ff57600080fd5b5061031361030e366004614080565b610c37565b60405190151581526020015b60405180910390f35b34801561033457600080fd5b50610344670de0b6b3a764000081565b60405190815260200161031f565b34801561035e57600080fd5b5061034461036d3660046140aa565b610c89565b34801561037e57600080fd5b5061039261038d3660046140c3565b610cde565b6040805192835260208301919091520161031f565b3480156103b357600080fd5b506102cc6103c2366004614063565b611027565b3480156103d357600080fd5b506103446103e2366004614063565b6110e3565b3480156103f357600080fd5b5060025461040b90600160a01b900463ffffffff1681565b60405163ffffffff909116815260200161031f565b34801561042c57600080fd5b5061034461043b3660046140f7565b611179565b34801561044c57600080fd5b5060025461046290600160e01b900461ffff1681565b60405161ffff909116815260200161031f565b34801561048157600080fd5b5061034460065481565b34801561049757600080fd5b506102cc6104a6366004614178565b611243565b3480156104b757600080fd5b506102cc6104c63660046140aa565b611a57565b3480156104d757600080fd5b506103446104e6366004614063565b611b84565b3480156104f757600080fd5b506102cc6105063660046142c1565b611b9b565b34801561051757600080fd5b506102cc6105263660046140aa565b611c28565b34801561053757600080fd5b506102cc610546366004614063565b611cea565b34801561055757600080fd5b5061057f7f000000000000000000000000000000000000000000000000000000000000000081565b6040516001600160a01b03909116815260200161031f565b6102cc6105a536600461437c565b611de6565b3480156105b657600080fd5b5061057f7f000000000000000000000000000000000000000000000000000000000000000081565b3480156105ea57600080fd5b506102cc6105f9366004614063565b611e72565b34801561060a57600080fd5b506102cc611ed2565b34801561061f57600080fd5b506102cc61062e3660046140aa565b611fc2565b34801561063f57600080fd5b5061034460045481565b34801561065557600080fd5b5061057f7f000000000000000000000000000000000000000000000000000000000000000081565b34801561068957600080fd5b506102cc6106983660046140aa565b612085565b3480156106a957600080fd5b5060025461057f906001600160a01b031681565b3480156106c957600080fd5b506102cc6106d83660046140aa565b612137565b6102cc6106eb3660046143cc565b612199565b3480156106fc57600080fd5b506102cc61070b3660046143f1565b612650565b34801561071c57600080fd5b506102cc612874565b34801561073157600080fd5b5060025461040b90600160c01b900463ffffffff1681565b34801561075557600080fd5b506102cc6128e9565b34801561076a57600080fd5b506102cc6107793660046140f7565b612b71565b34801561078a57600080fd5b50610344610799366004614063565b612bcf565b3480156107aa57600080fd5b506103446107b9366004614063565b6001600160a01b031660009081526003602052604090205490565b3480156107e057600080fd5b5061034460055481565b3480156107f657600080fd5b506001546001600160a01b031661057f565b34801561081457600080fd5b506102cc6108233660046140aa565b612be6565b34801561083457600080fd5b506102cc610843366004614063565b612d5d565b34801561085457600080fd5b5060015461057f906001600160a01b031681565b34801561087457600080fd5b50610344610883366004614063565b612fd3565b336001600160a01b037f000000000000000000000000000000000000000000000000000000000000000016146108d05760405162461bcd60e51b81526004016102c390614426565b6108d8612fea565b600160009054906101000a90046001600160a01b03166001600160a01b03166318160ddd6040518163ffffffff1660e01b8152600401602060405180830381865afa15801561092b573d6000803e3d6000fd5b505050506040513d601f19601f8201168201806040525081019061094f9190614452565b156109ad5760405162461bcd60e51b815260206004820152602860248201527f63616e6e6f742064657374726f79206120706f6f6c20776974682069737375656044820152676420746f6b656e7360c01b60648201526084016102c3565b60065415610a0e5760405162461bcd60e51b815260206004820152602860248201527f63616e6e6f742064657374726f79206120706f6f6c20686f6c64696e6720636f6044820152671b1b185d195c985b60c21b60648201526084016102c3565b60055415610a6d5760405162461bcd60e51b815260206004820152602660248201527f63616e6e6f742064657374726f79206120706f6f6c20686f6c64696e6720662d60448201526561737365747360d01b60648201526084016102c3565b60015460405162f55d9d60e01b81526001600160a01b0383811660048301529091169062f55d9d90602401600060405180830381600087803b158015610ab257600080fd5b505af1158015610ac6573d6000803e3d6000fd5b50505050610ad48147613043565b6002546040516370a0823160e01b81523060048201526000916001600160a01b0316906370a0823190602401602060405180830381865afa158015610b1d573d6000803e3d6000fd5b505050506040513d601f19601f82011682018060405250810190610b419190614452565b6040516370a0823160e01b81523060048201529091506000906001600160a01b037f000000000000000000000000000000000000000000000000000000000000000016906370a0823190602401602060405180830381865afa158015610bab573d6000803e3d6000fd5b505050506040513d601f19601f82011682018060405250810190610bcf9190614452565b90508115610bee57600254610bee906001600160a01b031684846130de565b8015610c2857610c286001600160a01b037f00000000000000000000000000000000000000000000000000000000000000001684836130de565b5050610c346001600055565b50565b60006001600160e01b031982166301ffc9a760e01b1480610c6857506001600160e01b03198216634df1089160e11b145b80610c8357506001600160e01b03198216633490786360e11b145b92915050565b600080610c94613141565b80516040820151919250600091610cac91869061337b565b90506000610cba83836134a1565b90506000610cc88433613548565b9050610cd4828261358f565b9695505050505050565b600080610ce9612fea565b60008411610d2f5760405162461bcd60e51b8152602060048201526013602482015272746f6b656e207368617265206973207a65726f60681b60448201526064016102c3565b6001546040516370a0823160e01b81523360048201526001600160a01b03909116906370a0823190602401602060405180830381865afa158015610d77573d6000803e3d6000fd5b505050506040513d601f19601f82011682018060405250810190610d9b9190614452565b841115610de25760405162461bcd60e51b8152602060048201526015602482015274746f6b656e2062616c616e636520746f6f206c6f7760581b60448201526064016102c3565b6000610dec613141565b8051909150851480610e1357508051670de0b6b3a764000090610e10908790614481565b10155b610e2f5760405162461bcd60e51b81526004016102c390614494565b60408101518151600091610e459188919061337b565b905060008111610e675760405162461bcd60e51b81526004016102c3906144e8565b8082604001511480610e905750670de0b6b3a7640000818360400151610e8d9190614481565b10155b610eac5760405162461bcd60e51b81526004016102c39061452a565b600254610ec99083908390600160a01b900463ffffffff166135a9565b610f215760405162461bcd60e51b815260206004820152602360248201527f636f6c6c61746572616c20726174696f2066616c6c732062656c6f77206578696044820152623a21a960e91b60648201526084016102c3565b600080610f3084338a8a6135f2565b90925090508015610f4657610f4630338361377a565b8115610f5657610f563383613829565b600154604051632770a7eb60e21b8152336004820152602481018a90526001600160a01b0390911690639dc29fac90604401600060405180830381600087803b158015610fa257600080fd5b505af1158015610fb6573d6000803e3d6000fd5b50505050610fc43384613873565b60408051898152602081018590529081018290526000606082015233907fd7a0a15455c784069bb034ffea3bf908298c11be5f633397b9eec96ea692a0cc9060800160405180910390a291945090925050506110206001600055565b9250929050565b336001600160a01b037f0000000000000000000000000000000000000000000000000000000000000000161461106f5760405162461bcd60e51b81526004016102c390614426565b6001546001600160a01b0316156110c15760405162461bcd60e51b81526020600482015260166024820152751c1bdbdb081d1bdad95b88185b1c9958591e481cd95d60521b60448201526064016102c3565b600180546001600160a01b0319166001600160a01b0392909216919091179055565b6000806110ee613141565b6001546040516370a0823160e01b81526001600160a01b03868116600483015292935061117292909116906370a0823190602401602060405180830381865afa15801561113f573d6000803e3d6000fd5b505050506040513d601f19601f820116820180604052508101906111639190614452565b61116d83866138a7565b61358f565b9392505050565b60006111843361399b565b6111a05760405162461bcd60e51b81526004016102c39061457c565b60405163596090c960e11b81523060048201819052602482015260448101839052600160648201526000906001600160a01b0385169063b2c12192906084016020604051808303816000875af11580156111fe573d6000803e3d6000fd5b505050506040513d601f19601f820116820180604052508101906112229190614452565b9050806006600082825461123691906145a0565b9091555090949350505050565b61124b612fea565b600083116112915760405162461bcd60e51b8152602060048201526013602482015272746f6b656e207368617265206973207a65726f60681b60448201526064016102c3565b6001546040516370a0823160e01b81523360048201526000916001600160a01b0316906370a0823190602401602060405180830381865afa1580156112da573d6000803e3d6000fd5b505050506040513d601f19601f820116820180604052508101906112fe9190614452565b9050808411156113485760405162461bcd60e51b8152602060048201526015602482015274746f6b656e2062616c616e636520746f6f206c6f7760581b60448201526064016102c3565b6000611352613141565b805190915085148061137957508051670de0b6b3a764000090611376908790614481565b10155b6113955760405162461bcd60e51b81526004016102c390614494565b805160408201516000916113ab9190889061337b565b9050600081116113cd5760405162461bcd60e51b81526004016102c3906144e8565b80826040015114806113f65750670de0b6b3a76400008183604001516113f39190614481565b10155b6114125760405162461bcd60e51b81526004016102c39061452a565b604051631e8bee0160e01b81526001600160a01b037f0000000000000000000000000000000000000000000000000000000000000000811660048301526000917f000000000000000000000000000000000000000000000000000000000000000090911690631e8bee0190602401602060405180830381865afa15801561149d573d6000803e3d6000fd5b505050506040513d601f19601f820116820180604052508101906114c19190614452565b905060006114cf84846134a1565b9050808210156116015750806114e58482613a52565b92506000831161156d5760405162461bcd60e51b815260206004820152604760248201527f616d6f756e74206f662073656e7420746f6b656e7320697320746f6f20736d6160448201527f6c6c206166746572206167656e74206d617820726564656d70746f6e20636f726064820152663932b1ba34b7b760c91b608482015260a4016102c3565b82846040015114806115965750670de0b6b3a76400008385604001516115939190614481565b10155b6115b25760405162461bcd60e51b81526004016102c39061452a565b604084015184516115c491859061337b565b60408051828152602081018490529199507f7543f09ac709677c25f5aa8284e92f885eae7c7496789dd47cf87e28e5a1cf1c910160405180910390a15b600061160d8533613548565b905060008061161f87338d60006135f2565b915091508383101561171f5760006116378486614481565b604051636eb1769f60e11b815233600482015230602482015290915081906001600160a01b037f0000000000000000000000000000000000000000000000000000000000000000169063dd62ed3e90604401602060405180830381865afa1580156116a6573d6000803e3d6000fd5b505050506040513d601f19601f820116820180604052508101906116ca9190614452565b10156116e85760405162461bcd60e51b81526004016102c3906145b3565b61171d6001600160a01b037f000000000000000000000000000000000000000000000000000000000000000016333084613ad4565b505b8315611908577f00000000000000000000000000000000000000000000000000000000000000006001600160a01b0316634942f65f6040518163ffffffff1660e01b8152600401602060405180830381865afa158015611783573d6000803e3d6000fd5b505050506040513d601f19601f820116820180604052508101906117a79190614452565b8410806117b15750895b1561186357604051630ed000b360e41b81526001600160a01b037f000000000000000000000000000000000000000000000000000000000000000081166004830152336024830152604482018690527f0000000000000000000000000000000000000000000000000000000000000000169063ed000b3090606401600060405180830381600087803b15801561184657600080fd5b505af115801561185a573d6000803e3d6000fd5b50505050611908565b60405163f060b3f160e01b81526001600160a01b037f0000000000000000000000000000000000000000000000000000000000000000169063f060b3f1906118d5907f000000000000000000000000000000000000000000000000000000000000000090339089908f9060040161463a565b600060405180830381600087803b1580156118ef57600080fd5b505af1158015611903573d6000803e3d6000fd5b505050505b60006119148585613b0c565b9050801561196657806005600082825461192e9190614481565b9091555061193e90503382613b22565b600061194a8284613b0c565b90506119568184614481565b925061196281856145a0565b9350505b81156119775761197730338461377a565b8215611987576119873384613829565b600154604051632770a7eb60e21b8152336004820152602481018e90526001600160a01b0390911690639dc29fac90604401600060405180830381600087803b1580156119d357600080fd5b505af11580156119e7573d6000803e3d6000fd5b505050506119f53388613873565b604080518d8152602081018990529081018290526060810186905233907fd7a0a15455c784069bb034ffea3bf908298c11be5f633397b9eec96ea692a0cc9060800160405180910390a2505050505050505050611a526001600055565b505050565b611a5f612fea565b60008111611aaf5760405162461bcd60e51b815260206004820181905260248201527f747279696e6720746f207769746864726177207a65726f20662d61737365747360448201526064016102c3565b6000611ab9613141565b90506000611ac78233613548565b905080831115611b195760405162461bcd60e51b815260206004820152601e60248201527f6672656520662d61737365742062616c616e636520746f6f20736d616c6c000060448201526064016102c3565b611b233384613b22565b611b2e30338561377a565b604080516000808252602082018190528183018490526060820152905133917fd7a0a15455c784069bb034ffea3bf908298c11be5f633397b9eec96ea692a0cc919081900360800190a25050610c346001600055565b600080611b8f613141565b905061117281846138a7565b611ba43361399b565b611bc05760405162461bcd60e51b81526004016102c39061457c565b60025460405163dc4fcda760e01b81526001600160a01b039091169063dc4fcda790611bf290859085906004016146b1565b600060405180830381600087803b158015611c0c57600080fd5b505af1158015611c20573d6000803e3d6000fd5b505050505050565b336001600160a01b037f00000000000000000000000000000000000000000000000000000000000000001614611c705760405162461bcd60e51b81526004016102c390614426565b600254600160c01b900463ffffffff168111611cbe5760405162461bcd60e51b815260206004820152600d60248201526c76616c756520746f6f206c6f7760981b60448201526064016102c3565b611cc781613b63565b600260146101000a81548163ffffffff021916908363ffffffff16021790555050565b611cf33361399b565b611d0f5760405162461bcd60e51b81526004016102c39061457c565b600260009054906101000a90046001600160a01b03166001600160a01b0316638c2b8ae16040518163ffffffff1660e01b8152600401602060405180830381865afa158015611d62573d6000803e3d6000fd5b505050506040513d601f19601f82011682018060405250810190611d869190614708565b6040516317066a5760e21b81526001600160a01b0383811660048301529190911690635c19a95c90602401600060405180830381600087803b158015611dcb57600080fd5b505af1158015611ddf573d6000803e3d6000fd5b5050505050565b611def3361399b565b611e0b5760405162461bcd60e51b81526004016102c39061457c565b60405163e72dcdbb60e01b81526001600160a01b0383169063e72dcdbb903490611e3c908590600090600401614725565b6000604051808303818588803b158015611e5557600080fd5b505af1158015611e69573d6000803e3d6000fd5b50505050505050565b611e7b3361399b565b611e975760405162461bcd60e51b81526004016102c39061457c565b806001600160a01b031663f2a1f7676040518163ffffffff1660e01b8152600401600060405180830381600087803b158015611dcb57600080fd5b611edb3361399b565b611ef75760405162461bcd60e51b81526004016102c39061457c565b600260009054906101000a90046001600160a01b03166001600160a01b0316638c2b8ae16040518163ffffffff1660e01b8152600401602060405180830381865afa158015611f4a573d6000803e3d6000fd5b505050506040513d601f19601f82011682018060405250810190611f6e9190614708565b6001600160a01b03166392ab89bb6040518163ffffffff1660e01b8152600401600060405180830381600087803b158015611fa857600080fd5b505af1158015611fbc573d6000803e3d6000fd5b50505050565b336001600160a01b037f0000000000000000000000000000000000000000000000000000000000000000161461200a5760405162461bcd60e51b81526004016102c390614426565b600254600160a01b900463ffffffff1681106120595760405162461bcd60e51b815260206004820152600e60248201526d0ecc2d8eaca40e8dede40d0d2ced60931b60448201526064016102c3565b61206281613b63565b600260186101000a81548163ffffffff021916908363ffffffff16021790555050565b336001600160a01b037f000000000000000000000000000000000000000000000000000000000000000016146120cd5760405162461bcd60e51b81526004016102c390614426565b612710811061210f5760405162461bcd60e51b815260206004820152600e60248201526d0ecc2d8eaca40e8dede40d0d2ced60931b60448201526064016102c3565b61211881613bcc565b6002601c6101000a81548161ffff021916908361ffff16021790555050565b336001600160a01b037f0000000000000000000000000000000000000000000000000000000000000000161461217f5760405162461bcd60e51b81526004016102c390614426565b806005600082825461219191906145a0565b909155505050565b6121a1612fea565b60006121ab613141565b90506103e881604001516121bf9190614749565b8151111561220f5760405162461bcd60e51b815260206004820152601a60248201527f706f6f6c206e61742062616c616e636520746f6f20736d616c6c00000000000060448201526064016102c3565b670de0b6b3a76400003410156122675760405162461bcd60e51b815260206004820152601d60248201527f616d6f756e74206f66206e61742073656e7420697320746f6f206c6f7700000060448201526064016102c3565b80516000036123c55780604001513410156123105760405162461bcd60e51b815260206004820152606060248201527f696620706f6f6c20686173206e6f20746f6b656e732c2062757420686f6c647360448201527f20636f6c6c61746572616c2c20796f75206e65656420746f2073656e6420617460648201527f206c65617374207468617420616d6f756e74206f6620636f6c6c61746572616c608482015260a4016102c3565b60a081015160c0820151606083015161232a92909161337b565b3410156123c55760405162461bcd60e51b815260206004820152605f60248201527f496620706f6f6c20686173206e6f20746f6b656e732c2062757420686f6c647360448201527f20662d61737365742c20796f75206e65656420746f2073656e64206174206c6560648201527f61737420662d617373657420776f727468206f6620636f6c6c61746572616c00608482015260a4016102c3565b60006123d18234613c2f565b90506000808360000151116123e75760006123f9565b825160808401516123f991849061337b565b90506000846124115761240c8683613b0c565b612413565b815b905080156124d457604051636eb1769f60e11b815233600482015230602482015281907f00000000000000000000000000000000000000000000000000000000000000006001600160a01b03169063dd62ed3e90604401602060405180830381865afa158015612487573d6000803e3d6000fd5b505050506040513d601f19601f820116820180604052508101906124ab9190614452565b10156124c95760405162461bcd60e51b81526004016102c3906145b3565b6124d433308361377a565b6124e7336124e28385614481565b613b22565b6124ef613d53565b60025460405163053fe26160e31b81526001600160a01b037f00000000000000000000000000000000000000000000000000000000000000008116600483015291821660248201527f0000000000000000000000000000000000000000000000000000000000000000909116906329ff130890604401600060405180830381600087803b15801561257f57600080fd5b505af1158015612593573d6000803e3d6000fd5b50506001546040516340c10f1960e01b8152336004820152602481018790526001600160a01b0390911692506340c10f199150604401600060405180830381600087803b1580156125e357600080fd5b505af11580156125f7573d6000803e3d6000fd5b505060408051348152602081018790529081018490523392507fa9cf4922f2856a66149c9a3bf0008b3792335527ce5112f6d19fe9533e54349f915060600160405180910390a25050505061264c6001600055565b5050565b336001600160a01b037f000000000000000000000000000000000000000000000000000000000000000016146126985760405162461bcd60e51b81526004016102c390614426565b6126a0612fea565b60006126aa613141565b90506126b68484613873565b6001546040516370a0823160e01b81526001600160a01b037f00000000000000000000000000000000000000000000000000000000000000008116600483015260009216906370a0823190602401602060405180830381865afa158015612721573d6000803e3d6000fd5b505050506040513d601f19601f820116820180604052508101906127459190614452565b905060008083604001511161275a578161276c565b6040830151835161276c91869061337b565b9050600061277a8284613b0c565b905080156128665760006127b1857f00000000000000000000000000000000000000000000000000000000000000008460026135f2565b5090506127de7f000000000000000000000000000000000000000000000000000000000000000082613829565b600154604051632770a7eb60e21b81526001600160a01b037f0000000000000000000000000000000000000000000000000000000000000000811660048301526024820185905290911690639dc29fac90604401600060405180830381600087803b15801561284c57600080fd5b505af1158015612860573d6000803e3d6000fd5b50505050505b50505050611a526001600055565b61287d3361399b565b6128995760405162461bcd60e51b81526004016102c39061457c565b600260009054906101000a90046001600160a01b03166001600160a01b031663b302f3936040518163ffffffff1660e01b8152600401600060405180830381600087803b158015611fa857600080fd5b6128f1612fea565b7f00000000000000000000000000000000000000000000000000000000000000006001600160a01b031663194307bf6040518163ffffffff1660e01b8152600401602060405180830381865afa15801561294f573d6000803e3d6000fd5b505050506040513d601f19601f820116820180604052508101906129739190614760565b6129b85760405162461bcd60e51b8152602060048201526016602482015275198b585cdcd95d081b9bdd081d195c9b5a5b985d195960521b60448201526064016102c3565b6001546040516370a0823160e01b81523360048201526000916001600160a01b0316906370a0823190602401602060405180830381865afa158015612a01573d6000803e3d6000fd5b505050506040513d601f19601f82011682018060405250810190612a259190614452565b905060008111612a6d5760405162461bcd60e51b81526020600482015260136024820152726e6f7468696e6720746f20776974686472617760681b60448201526064016102c3565b6000612af4600654600160009054906101000a90046001600160a01b03166001600160a01b03166318160ddd6040518163ffffffff1660e01b8152600401602060405180830381865afa158015612ac8573d6000803e3d6000fd5b505050506040513d601f19601f82011682018060405250810190612aec9190614452565b84919061337b565b600154604051632770a7eb60e21b8152336004820152602481018590529192506001600160a01b031690639dc29fac90604401600060405180830381600087803b158015612b4157600080fd5b505af1158015612b55573d6000803e3d6000fd5b50505050612b633382613873565b5050612b6f6001600055565b565b612b7a3361399b565b612b965760405162461bcd60e51b81526004016102c39061457c565b60025460405163177adf7f60e31b81526001600160a01b038481166004830152602482018490529091169063bbd6fbf890604401611bf2565b600080612bda613141565b90506111728184613548565b612bee612fea565b33600090815260036020526040902054811115612c4d5760405162461bcd60e51b815260206004820152601e60248201527f6465627420662d61737365742062616c616e636520746f6f20736d616c6c000060448201526064016102c3565b604051636eb1769f60e11b815233600482015230602482015281907f00000000000000000000000000000000000000000000000000000000000000006001600160a01b03169063dd62ed3e90604401602060405180830381865afa158015612cb9573d6000803e3d6000fd5b505050506040513d601f19601f82011682018060405250810190612cdd9190614452565b1015612cfb5760405162461bcd60e51b81526004016102c3906145b3565b612d053382613829565b612d1033308361377a565b604080516000808252602082015290810182905233907fa9cf4922f2856a66149c9a3bf0008b3792335527ce5112f6d19fe9533e54349f9060600160405180910390a2610c346001600055565b336001600160a01b037f00000000000000000000000000000000000000000000000000000000000000001614612da55760405162461bcd60e51b81526004016102c390614426565b612dad612fea565b6002546001600160a01b03828116911614612fc9576002546040516370a0823160e01b81523060048201526000916001600160a01b0316906370a0823190602401602060405180830381865afa158015612e0b573d6000803e3d6000fd5b505050506040513d601f19601f82011682018060405250810190612e2f9190614452565b60028054600160f01b60ff60f01b19821617909155604051632e1a7d4d60e01b8152600481018390529192506001600160a01b031690632e1a7d4d90602401600060405180830381600087803b158015612e8857600080fd5b505af1158015612e9c573d6000803e3d6000fd5b50506002805460ff60f01b19169055505060408051630d0e30db60e41b815290516001600160a01b0384169163d0e30db091849160048082019260009290919082900301818588803b158015612ef157600080fd5b505af1158015612f05573d6000803e3d6000fd5b5050600280546001600160a01b0319166001600160a01b0387811691821790925560405163053fe26160e31b81527f00000000000000000000000000000000000000000000000000000000000000008316600482015260248101919091527f000000000000000000000000000000000000000000000000000000000000000090911693506329ff130892506044019050600060405180830381600087803b158015612faf57600080fd5b505af1158015612fc3573d6000803e3d6000fd5b50505050505b610c346001600055565b600080612fde613141565b90506111728184613db7565b60026000540361303c5760405162461bcd60e51b815260206004820152601f60248201527f5265656e7472616e637947756172643a207265656e7472616e742063616c6c0060448201526064016102c3565b6002600055565b801561264c576000826001600160a01b03168260405160006040518083038185875af1925050503d8060008114613096576040519150601f19603f3d011682016040523d82523d6000602084013e61309b565b606091505b5050905080611a525760405162461bcd60e51b815260206004820152600f60248201526e1d1c985b9cd9995c8819985a5b1959608a1b60448201526064016102c3565b6040516001600160a01b038316602482015260448101829052611a5290849063a9059cbb60e01b906064015b60408051601f198184030181529190526020810180516001600160e01b03166001600160e01b031990931692909217909152613e57565b6131816040518060e00160405280600081526020016000815260200160008152602001600081526020016000815260200160008152602001600081525090565b600060055490506000807f00000000000000000000000000000000000000000000000000000000000000006001600160a01b03166302312aec6040518163ffffffff1660e01b81526004016040805180830381865afa1580156131e8573d6000803e3d6000fd5b505050506040513d601f19601f8201168201806040525081019061320c919061477d565b915091506040518060e00160405280600160009054906101000a90046001600160a01b03166001600160a01b03166318160ddd6040518163ffffffff1660e01b8152600401602060405180830381865afa15801561326e573d6000803e3d6000fd5b505050506040513d601f19601f820116820180604052508101906132929190614452565b815260405163769bb15560e11b81526001600160a01b037f0000000000000000000000000000000000000000000000000000000000000000811660048301526020909201917f0000000000000000000000000000000000000000000000000000000000000000169063ed3762aa90602401602060405180830381865afa158015613320573d6000803e3d6000fd5b505050506040513d601f19601f820116820180604052508101906133449190614452565b815260200160065481526020018481526020016004548561336591906145a0565b8152602081019390935260409092015292915050565b60008082116133bf5760405162461bcd60e51b815260206004820152601060248201526f4469766973696f6e206279207a65726f60801b60448201526064016102c3565b836000036133cf57506000611172565b838302838582816133e2576133e26147a1565b0403613400578281816133f7576133f76147a1565b04915050611172565b50600061340d83866147b7565b9050600061341b84876147cb565b9050600061342985876147b7565b9050600061343786886147cb565b9050856134448285614749565b61344e91906147b7565b6134588385614749565b6134628387614749565b8861346d8689614749565b6134779190614749565b61348191906145a0565b61348b91906145a0565b61349591906145a0565b98975050505050505050565b6002546000906134c19084908390600160a01b900463ffffffff166135a9565b156135335761352c8360200151600260149054906101000a900463ffffffff1663ffffffff168560a001516134f69190614749565b6127108587604001516135099190614481565b8760c001516135189190614749565b6135229190614749565b61116d91906147b7565b9050610c83565b6040830151602084015161352c91849061337b565b6000806135558484613db7565b6001600160a01b03841660009081526003602052604090205490915061358661357e838361358f565b600554613b0c565b95945050505050565b600081831161359f576000611172565b6111728284614481565b60006135c9828560a0015186602001516135c39190614749565b90613f2c565b8460c001518486604001516135de9190614481565b6135e89190614749565b1015949350505050565b60008060006136018787613db7565b6001600160a01b038781166000818152600360205260408082205460015491516370a0823160e01b81526004810194909452949550909216906370a0823190602401602060405180830381865afa158015613660573d6000803e3d6000fd5b505050506040513d601f19601f820116820180604052508101906136849190614452565b90508060000361369d5760008094509450505050613771565b60006136aa84898461337b565b905060008760028111156136c0576136c06147df565b036136f15760006136d1858561358f565b90506136dd8282613b0c565b95506136e98683614481565b965050613750565b6001876002811115613705576137056147df565b03613727576137148184613b0c565b95506137208682614481565b9450613750565b60008411613736576000613741565b61374183828661337b565b955061374d8682614481565b94505b61375c85600554613b0c565b945061376a86600454613b0c565b9550505050505b94509492505050565b8015611a5257306001600160a01b038416036137dc5780600560008282546137a29190614481565b90915550611a5290506001600160a01b037f00000000000000000000000000000000000000000000000000000000000000001683836130de565b80600560008282546137ee91906145a0565b90915550611a5290506001600160a01b037f000000000000000000000000000000000000000000000000000000000000000016848484613ad4565b6001600160a01b03821660009081526003602052604081208054839290613851908490614481565b92505081905550806004600082825461386a9190614481565b90915550505050565b801561264c57806006600082825461388b9190614481565b909155505060025461264c906001600160a01b031683836130de565b6001546040516370a0823160e01b81526001600160a01b03838116600483015260009283929116906370a0823190602401602060405180830381865afa1580156138f5573d6000803e3d6000fd5b505050506040513d601f19601f820116820180604052508101906139199190614452565b90508060000361392d576000915050610c83565b6001600160a01b0383166000908152600360205260408120549081900361395657509050610c83565b8451608086015160009161396c9190859061337b565b9050600061397a828461358f565b608088015188519192506139909190839061337b565b979650505050505050565b60405163d6b93a9f60e01b81526001600160a01b037f00000000000000000000000000000000000000000000000000000000000000008116600483015282811660248301526000917f00000000000000000000000000000000000000000000000000000000000000009091169063d6b93a9f90604401602060405180830381865afa158015613a2e573d6000803e3d6000fd5b505050506040513d601f19601f82011682018060405250810190610c839190614760565b600254600090613a729084908390600160a01b900463ffffffff166135a9565b15613abf5761352c83604001518460c00151613522600260149054906101000a900463ffffffff1663ffffffff16868860200151613ab09190614481565b8860a001516135c39190614749565b6020830151604084015161352c91849061337b565b6040516001600160a01b0380851660248301528316604482015260648101829052611fbc9085906323b872dd60e01b9060840161310a565b6000818310613b1b5781611172565b5090919050565b6001600160a01b03821660009081526003602052604081208054839290613b4a9084906145a0565b92505081905550806004600082825461386a91906145a0565b600063ffffffff821115613bc85760405162461bcd60e51b815260206004820152602660248201527f53616665436173743a2076616c756520646f65736e27742066697420696e203360448201526532206269747360d01b60648201526084016102c3565b5090565b600061ffff821115613bc85760405162461bcd60e51b815260206004820152602660248201527f53616665436173743a2076616c756520646f65736e27742066697420696e203160448201526536206269747360d01b60648201526084016102c3565b600080836040015160001480613c4457508351155b600254602086015160a0870151929350600092613c7292600160c01b900463ffffffff16916135c391614749565b905060008560c001518660400151613c8a9190614749565b8211613c97576000613cb5565b604086015160c0870151613cab90846147b7565b613cb59190614481565b90506000613cc38683613b0c565b90506000613cd1878361358f565b600254909150600090613cf490849061271090600160e01b900461ffff1661337b565b9050600086613d145760408a01518a51613d0f91859061337b565b613d16565b825b9050600087613d365760408b01518b51613d3191859061337b565b613d38565b825b9050613d4482826145a0565b9b9a5050505050505050505050565b3415612b6f573460066000828254613d6b91906145a0565b909155505060025460408051630d0e30db60e41b815290516001600160a01b039092169163d0e30db0913491600480830192600092919082900301818588803b158015611dcb57600080fd5b6001546040516370a0823160e01b81526001600160a01b03838116600483015260009283929116906370a0823190602401602060405180830381865afa158015613e05573d6000803e3d6000fd5b505050506040513d601f19601f82011682018060405250810190613e299190614452565b905080600003613e3d576000915050610c83565b83516080850151613e4f91839061337b565b949350505050565b6000613eac826040518060400160405280602081526020017f5361666545524332303a206c6f772d6c6576656c2063616c6c206661696c6564815250856001600160a01b0316613f3b9092919063ffffffff16565b9050805160001480613ecd575080806020019051810190613ecd9190614760565b611a525760405162461bcd60e51b815260206004820152602a60248201527f5361666545524332303a204552433230206f7065726174696f6e20646964206e6044820152691bdd081cdd58d8d9595960b21b60648201526084016102c3565b6000611172838361271061337b565b6060613e4f848460008585600080866001600160a01b03168587604051613f6291906147f5565b60006040518083038185875af1925050503d8060008114613f9f576040519150601f19603f3d011682016040523d82523d6000602084013e613fa4565b606091505b5091509150613990878383876060831561401f578251600003614018576001600160a01b0385163b6140185760405162461bcd60e51b815260206004820152601d60248201527f416464726573733a2063616c6c20746f206e6f6e2d636f6e747261637400000060448201526064016102c3565b5081613e4f565b613e4f83838151156140345781518083602001fd5b8060405162461bcd60e51b81526004016102c39190614811565b6001600160a01b0381168114610c3457600080fd5b60006020828403121561407557600080fd5b81356111728161404e565b60006020828403121561409257600080fd5b81356001600160e01b03198116811461117257600080fd5b6000602082840312156140bc57600080fd5b5035919050565b600080604083850312156140d657600080fd5b823591506020830135600381106140ec57600080fd5b809150509250929050565b6000806040838503121561410a57600080fd5b82356141158161404e565b946020939093013593505050565b8015158114610c3457600080fd5b634e487b7160e01b600052604160045260246000fd5b604051601f8201601f1916810167ffffffffffffffff8111828210171561417057614170614131565b604052919050565b60008060006060848603121561418d57600080fd5b833592506020808501356141a081614123565b9250604085013567ffffffffffffffff808211156141bd57600080fd5b818701915087601f8301126141d157600080fd5b8135818111156141e3576141e3614131565b6141f5601f8201601f19168501614147565b9150808252888482850101111561420b57600080fd5b80848401858401376000848284010152508093505050509250925092565b600067ffffffffffffffff82111561424357614243614131565b5060051b60200190565b600082601f83011261425e57600080fd5b8135602061427361426e83614229565b614147565b82815260059290921b8401810191818101908684111561429257600080fd5b8286015b848110156142b65780356142a98161404e565b8352918301918301614296565b509695505050505050565b600080604083850312156142d457600080fd5b823567ffffffffffffffff808211156142ec57600080fd5b6142f88683870161424d565b935060209150818501358181111561430f57600080fd5b85019050601f8101861361432257600080fd5b803561433061426e82614229565b81815260059190911b8201830190838101908883111561434f57600080fd5b928401925b8284101561436d57833582529284019290840190614354565b80955050505050509250929050565b6000806040838503121561438f57600080fd5b823561439a8161404e565b9150602083013567ffffffffffffffff8111156143b657600080fd5b6143c28582860161424d565b9150509250929050565b600080604083850312156143df57600080fd5b8235915060208301356140ec81614123565b60008060006060848603121561440657600080fd5b83356144118161404e565b95602085013595506040909401359392505050565b60208082526012908201527137b7363c9030b9b9b2ba1036b0b730b3b2b960711b604082015260600190565b60006020828403121561446457600080fd5b5051919050565b634e487b7160e01b600052601160045260246000fd5b81810381811115610c8357610c8361446b565b60208082526034908201527f746f6b656e20737570706c79206c656674206166746572206578697420697320604082015273746f6f206c6f7720616e64206e6f6e2d7a65726f60601b606082015260800190565b60208082526022908201527f616d6f756e74206f662073656e7420746f6b656e7320697320746f6f20736d616040820152611b1b60f21b606082015260800190565b60208082526032908201527f636f6c6c61746572616c206c656674206166746572206578697420697320746f6040820152716f206c6f7720616e64206e6f6e2d7a65726f60701b606082015260800190565b6020808252600a90820152691bdb9b1e481859d95b9d60b21b604082015260600190565b80820180821115610c8357610c8361446b565b6020808252601b908201527f662d617373657420616c6c6f77616e636520746f6f20736d616c6c0000000000604082015260600190565b60005b838110156146055781810151838201526020016145ed565b50506000910152565b600081518084526146268160208601602086016145ea565b601f01601f19169290920160200192915050565b6001600160a01b0385811682528416602082015260408101839052608060608201819052600090610cd49083018461460e565b600081518084526020808501945080840160005b838110156146a65781516001600160a01b031687529582019590820190600101614681565b509495945050505050565b6040815260006146c4604083018561466d565b82810360208481019190915284518083528582019282019060005b818110156146fb578451835293830193918301916001016146df565b5090979650505050505050565b60006020828403121561471a57600080fd5b81516111728161404e565b604081526000614738604083018561466d565b905082151560208301529392505050565b8082028115828204841417610c8357610c8361446b565b60006020828403121561477257600080fd5b815161117281614123565b6000806040838503121561479057600080fd5b505080516020909101519092909150565b634e487b7160e01b600052601260045260246000fd5b6000826147c6576147c66147a1565b500490565b6000826147da576147da6147a1565b500690565b634e487b7160e01b600052602160045260246000fd5b600082516148078184602087016145ea565b9190910192915050565b602081526000611172602083018461460e56fea264697066735822122067797d4fb3d4408ad77b26c2a2066f4017664034559478988bf402aed11c3d0564736f6c63430008140033",
  "linkReferences": {},
  "deployedLinkReferences": {}
}