{
  "_format": "hh-sol-artifact-1",
  "contractName": "AgentsExternal",
  "sourceName": "contracts/fasset/library/AgentsExternal.sol",
  "abi": [
    {
      "inputs": [
        {
          "internalType": "address",
          "name": "_agentVault",
          "type": "address"
        }
      ],
      "name": "getAgentVaultOwner",
      "outputs": [
        {
          "internalType": "address",
          "name": "_ownerColdAddress",
          "type": "address"
        },
        {
          "internalType": "address",
          "name": "_ownerHotAddress",
          "type": "address"
        }
      ],
      "stateMutability": "view",
      "type": "function"
    },
    {
      "inputs": [
        {
          "internalType": "address",
          "name": "_agentVault",
          "type": "address"
        }
      ],
      "name": "getFAssetsBackedByPool",
      "outputs": [
        {
          "internalType": "uint256",
          "name": "",
          "type": "uint256"
        }
      ],
      "stateMutability": "view",
      "type": "function"
    },
    {
      "inputs": [
        {
          "internalType": "address",
          "name": "_agentVault",
          "type": "address"
        },
        {
          "internalType": "contract IERC20",
          "name": "_token",
          "type": "IERC20"
        }
      ],
      "name": "isCollateralToken",
      "outputs": [
        {
          "internalType": "bool",
          "name": "",
          "type": "bool"
        }
      ],
      "stateMutability": "view",
      "type": "function"
    }
  ],
  "bytecode": "0x61303461003a600b82828239805160001a60731461002d57634e487b7160e01b600052600060045260246000fd5b30600052607381538281f3fe730000000000000000000000000000000000000000301460806040526004361061009d5760003560e01c80637d18f88c116100705780637d18f88c1461013f578063a43ba5ab1461015f578063c7be12eb1461017f578063ed3762aa1461019f578063f4d000b2146101c057600080fd5b80630659eaf8146100a257806365454f94146100ca5780636e61164f146100ec57806375f4d63f1461011f575b600080fd5b6100b56100b0366004612c13565b6101e0565b60405190151581526020015b60405180910390f35b8180156100d657600080fd5b506100ea6100e5366004612c4c565b610202565b005b6100ff6100fa366004612c4c565b610373565b604080516001600160a01b039384168152929091166020830152016100c1565b81801561012b57600080fd5b506100ea61013a366004612c13565b6103cf565b81801561014b57600080fd5b506100ea61015a366004612c69565b610472565b81801561016b57600080fd5b506100ea61017a366004612caa565b61071d565b81801561018b57600080fd5b506100ea61019a366004612c13565b6109b9565b6101b26101ad366004612c4c565b6109de565b6040519081526020016100c1565b8180156101cc57600080fd5b506100ea6101db366004612c4c565b610a32565b6000806101ec84610ca2565b90506101f88184610d38565b9150505b92915050565b600080516020612fdf833981519152600061021c83610ca2565b600c83015460068201549192506001600160401b03600160801b909104811691161061036e57600c820154600682015460009161026c916001600160401b03600160801b90920482169116612ce4565b600683015490915060009061028b9083906001600160401b0316612d20565b9050600061029d601a86018784610d81565b60068501805467ffffffffffffffff19166001600160401b038616179055905060006102c883611183565b604080516001600160401b0385168152602081018390529192506001600160a01b038916917f431b2ade30b3ff33dff1b07ffe3f765406b0038260ee4e0170c47a38fa8e38d4910160405180910390a2600061032385611183565b9050876001600160a01b03167fa3db2bc927901a1d3ba09ad51d84609457b98443be9132a0a936a47c5a1081b58260405161036091815260200190565b60405180910390a250505050505b505050565b6000806103c661038284610ca2565b600101546001600160a01b0390811660008181527fec7e8c1c441439dd40959777f4c577ea0cd42fcc1dbe59d2bd0f5d9c55df8dcc60205260409020549092911690565b91509150915091565b816103d9816111d6565b60006103e484610ca2565b905060006103f182611230565b8054909150600160c01b90046001600160401b03166104615760405162461bcd60e51b815260206004820152602160248201527f63757272656e7420636f6c6c61746572616c206e6f74206465707265636174656044820152601960fa1b60648201526084015b60405180910390fd5b61046b828561128a565b5050505050565b600061047d83610ca2565b9050600061048a82611432565b6001600160a01b0316856001600160a01b031614156104ab57506000610535565b8154604080516332f7ce0b60e21b815290516001600160a01b039092169163cbdf382c916004808201926020929091908290030181865afa1580156104f4573d6000803e3d6000fd5b505050506040513d601f19601f820116820180604052508101906105189190612d48565b6001600160a01b0316856001600160a01b0316141561046b575060025b60006105418383611497565b905060006004840154610100900460ff16600381111561056357610563612d65565b146105b05760405162461bcd60e51b815260206004820152601a60248201527f7769746864726177616c3a20696e76616c6964207374617475730000000000006044820152606401610458565b8054600160801b90046001600160401b031661060e5760405162461bcd60e51b815260206004820152601960248201527f7769746864726177616c3a206e6f7420616e6e6f756e636564000000000000006044820152606401610458565b80546001600160801b03168411156106685760405162461bcd60e51b815260206004820152601f60248201527f7769746864726177616c3a206d6f7265207468616e20616e6e6f756e636564006044820152606401610458565b8054600160801b90046001600160401b031642116106c85760405162461bcd60e51b815260206004820152601b60248201527f7769746864726177616c3a206e6f7420616c6c6f7765642079657400000000006044820152606401610458565b80546000906106e19086906001600160801b0316612d7b565b82546001600160801b0319166001600160801b03821617835590508061071457815467ffffffffffffffff60801b191682555b50505050505050565b81610727816111d6565b600061073284610ca2565b905060006004820154610100900460ff16600381111561075457610754612d65565b146107a15760405162461bcd60e51b815260206004820152601e60248201527f7769746864726177616c20616e6e3a20696e76616c69642073746174757300006044820152606401610458565b60006107ad8287611497565b80549091506001600160801b03168411156108ab57600080516020612fdf83398151915260006107dd84896114e5565b83549091506000906107f8906001600160801b031688612d7b565b90506108048286611569565b8111156108535760405162461bcd60e51b815260206004820152601a60248201527f7769746864726177616c3a2076616c756520746f6f20686967680000000000006044820152606401610458565b600f83015461087b9061087690600160801b90046001600160401b031642612d92565b61159b565b84546001600160401b0391909116600160801b0267ffffffffffffffff60801b19909116178455506108c3915050565b836108c357805467ffffffffffffffff60801b191681555b6108cc84611607565b81546001600160801b0319166001600160801b039190911617815560008660028111156108fb576108fb612d65565b141561095b57805460408051868152600160801b9092046001600160401b031660208301526001600160a01b038716917f6d6c69762d6465dac8ef5a1994f86eace3f44f0ed0ee2e5419eaa8416da90d09910160405180910390a26109b1565b805460408051868152600160801b9092046001600160401b031660208301526001600160a01b038716917fd8af9ece0435675178bfc0aba18c040e3bd5ad88eabd3d313cd0b469a8e1d06b910160405180910390a25b505050505050565b60006109c482610ca2565b90506109d08184610d38565b1561036e5761036e81611670565b6000806109ea83610ca2565b6005810154909150610a2b906001600160401b03600160c01b8204811691610a1c91600160401b820481169116612daa565b610a269190612daa565b611183565b9392505050565b80610a3c816111d6565b6000610a4783610ca2565b7fec7e8c1c441439dd40959777f4c577ea0cd42fcc1dbe59d2bd0f5d9c55df8dd854600080516020612f9f8339815191528054929350600080516020612fdf8339815191529260009261ffff16908110610aa357610aa3612dd5565b6000918252602090912060039091020154602283015460048501546001600160a01b03909216925061ffff9081166401000000009092041614610b695760228201546004848101805465ffff00000000191661ffff90931664010000000002929092179091558354604051637a68005960e11b81526001600160a01b038481169382019390935291169063f4d000b290602401600060405180830381600087803b158015610b5057600080fd5b505af1158015610b64573d6000803e3d6000fd5b505050505b6000856001600160a01b0316639edbf0076040518163ffffffff1660e01b8152600401602060405180830381865afa158015610ba9573d6000803e3d6000fd5b505050506040513d601f19601f82011682018060405250810190610bcd9190612d48565b9050816001600160a01b0316816001600160a01b0316146109b157604051637a68005960e11b81526001600160a01b03838116600483015287169063f4d000b290602401600060405180830381600087803b158015610c2b57600080fd5b505af1158015610c3f573d6000803e3d6000fd5b50505050610c4c84611432565b6001600160a01b0316816001600160a01b031614156109b157600080610c73600284611751565b915091508115610c985760048601805463ffff000019166201000061ffff8416021790555b5050505050505050565b600080516020612fbf83398151915268010000000000000000600160e01b03604083901b1618806000600483015460ff166002811115610ce457610ce4612d65565b1415610d325760405162461bcd60e51b815260206004820152601b60248201527f696e76616c6964206167656e74207661756c74206164647265737300000000006044820152606401610458565b50919050565b6000610d43836117c9565b6001600160a01b0316826001600160a01b03161480610a2b5750610d6683611432565b6001600160a01b0316826001600160a01b0316149392505050565b6001600160a01b03821660009081526001840160205260408120600285018054839190601090610dc090600160801b90046001600160401b0316612deb565b91906101000a8154816001600160401b0302191690836001600160401b03160217905590506040518060c00160405280866001600160a01b03168152602001856001600160401b031681526020018760020160089054906101000a90046001600160401b03166001600160401b0316815260200160006001600160401b031681526020018360000160089054906101000a90046001600160401b03166001600160401b0316815260200160006001600160401b0316815250866000016000836001600160401b03166001600160401b0316815260200190815260200160002060008201518160000160006101000a8154816001600160a01b0302191690836001600160a01b0316021790555060208201518160000160146101000a8154816001600160401b0302191690836001600160401b0316021790555060408201518160010160006101000a8154816001600160401b0302191690836001600160401b0316021790555060608201518160010160086101000a8154816001600160401b0302191690836001600160401b0316021790555060808201518160010160106101000a8154816001600160401b0302191690836001600160401b0316021790555060a08201518160010160186101000a8154816001600160401b0302191690836001600160401b031602179055509050508560020160009054906101000a90046001600160401b03166001600160401b03166000141561101e576002860154600160401b90046001600160401b031615610ffb57610ffb612e12565b60028601805467ffffffffffffffff19166001600160401b038316179055611083565b6002860154600160401b90046001600160401b031661103f5761103f612e12565b6002860154600160401b908190046001600160401b039081166000908152602089905260409020600101805467ffffffffffffffff60401b19169184169092021790555b6002860180546001600160401b03808416600160401b0267ffffffffffffffff60401b19909216919091179091558254166110f6578154600160401b90046001600160401b0316156110d7576110d7612e12565b815467ffffffffffffffff19166001600160401b038216178255611156565b8154600160401b90046001600160401b031661111457611114612e12565b81546001600160401b03600160401b909104811660009081526020889052604090206001018054918316600160c01b026001600160c01b039092169190911790555b815467ffffffffffffffff60401b1916600160401b6001600160401b038316021790915590509392505050565b7fec7e8c1c441439dd40959777f4c577ea0cd42fcc1dbe59d2bd0f5d9c55df8dc254600090600080516020612fdf83398151915290610a2b90600160401b90046001600160401b03908116908516612e28565b6111e86111e282610ca2565b3361180f565b61122d5760405162461bcd60e51b815260206004820152601660248201527537b7363c9030b3b2b73a103b30bab63a1037bbb732b960511b6044820152606401610458565b50565b6004810154600080516020612f9f8339815191528054600092600080516020612fdf83398151915292916201000090910461ffff1690811061127457611274612dd5565b9060005260206000209060030201915050919050565b600080516020612fdf83398151915260006112a6600284611869565b905060008260130182815481106112bf576112bf612dd5565b60009182526020909120600390910201905060028154600160a01b900460ff1660028111156112f0576112f0612d65565b1461133d5760405162461bcd60e51b815260206004820152601b60248201527f6e6f7420636c6173733120636f6c6c61746572616c20746f6b656e00000000006044820152606401610458565b8054600160c01b90046001600160401b0316156113945760405162461bcd60e51b815260206004820152601560248201527418dbdb1b185d195c985b0819195c1c9958d85d1959605a1b6044820152606401610458565b600061139f86611903565b905060006113ad8288611a47565b600284015490915063ffffffff168110156114025760405162461bcd60e51b81526020600482015260156024820152741b9bdd08195b9bdd59da0818dbdb1b185d195c985b605a1b6044820152606401610458565b61140b84611abc565b8760040160026101000a81548161ffff021916908361ffff16021790555050505050505050565b6004810154600080516020612f9f8339815191528054600092600080516020612fdf83398151915292916201000090910461ffff1690811061147657611476612dd5565b60009182526020909120600390910201546001600160a01b03169392505050565b600060018260028111156114ad576114ad612d65565b14156114bb576114bb612e12565b60008260028111156114cf576114cf612d65565b146114dd5782600901610a2b565b505060080190565b61150a6040805160608101909152806000815260200160008152602001600081525090565b600082600281111561151e5761151e612d65565b14156115345761152d83611903565b90506101fc565b600082600281111561154857611548612d65565b14156115575761152d83611b1f565b61152d8361156485611b1f565b611bf2565b6000806115768484611dca565b90506000611591828660200151611efc90919063ffffffff16565b9695505050505050565b60006001600160401b038211156116035760405162461bcd60e51b815260206004820152602660248201527f53616665436173743a2076616c756520646f65736e27742066697420696e203660448201526534206269747360d01b6064820152608401610458565b5090565b60006001600160801b038211156116035760405162461bcd60e51b815260206004820152602760248201527f53616665436173743a2076616c756520646f65736e27742066697420696e20316044820152663238206269747360c81b6064820152608401610458565b60016004820154610100900460ff16600381111561169057611690612d65565b146116985750565b60006116a382611f22565b905060006116b083611f96565b905060006116c08483600061207e565b905060006116d08584600161207e565b9050818460000151101580156116ea575080846020015110155b1561046b5760048501805461ff01600160b01b03169055600080516020612fbf833981519152851860401c6001600160a01b03167fe513b42585b0ceec0d56d56fe3a23861c15a2f74eb4c32c94334d63d68ff4dcf60405160405180910390a25050505050565b600080600080516020612fdf833981519152817fec7e8c1c441439dd40959777f4c577ea0cd42fcc1dbe59d2bd0f5d9c55df8dca8161179088886120e2565b8152602001908152602001600020549050600081119350836117b35760006117be565b6117be600182612d7b565b925050509250929050565b6004810154600080516020612f9f8339815191528054600092600080516020612fdf833981519152929164010000000090910461ffff1690811061147657611476612dd5565b6001820154600090600080516020612fdf833981519152906001600160a01b0390811690841681148061186057506001600160a01b0380821660009081526016840160205260409020548582169116145b95945050505050565b6000600080516020612fdf833981519152817fec7e8c1c441439dd40959777f4c577ea0cd42fcc1dbe59d2bd0f5d9c55df8dca816118a787876120e2565b8152602001908152602001600020549050600081116118f85760405162461bcd60e51b815260206004820152600d60248201526c3ab735b737bbb7103a37b5b2b760991b6044820152606401610458565b611860600182612d7b565b6119286040805160608101909152806000815260200160008152602001600081525090565b6004820154600080516020612f9f8339815191528054600080516020612fdf83398151915292600092916201000090910461ffff1690811061196c5761196c612dd5565b9060005260206000209060030201905060405180606001604052806000600281111561199a5761199a612d65565b815282546020909101906001600160a01b03166370a08231600080516020612fbf833981519152881860401c6040516001600160e01b031960e084901b1681526001600160a01b0390911660048201526024015b602060405180830381865afa158015611a0b573d6000803e3d6000fd5b505050506040513d601f19601f82011682018060405250810190611a2f9190612e47565b8152602001611a3d8361210c565b9052949350505050565b600581015460009081906001600160401b03600160801b8204811691611a789180821691600160401b900416612d92565b611a829190612d92565b905080611a97576402540be4009150506101fc565b6000611aa7828660400151612120565b60208601519091506118609061271083612136565b600061ffff8211156116035760405162461bcd60e51b815260206004820152602660248201527f53616665436173743a2076616c756520646f65736e27742066697420696e203160448201526536206269747360d01b6064820152608401610458565b611b446040805160608101909152806000815260200160008152602001600081525090565b6004820154600080516020612f9f8339815191528054600080516020612fdf833981519152926000929164010000000090910461ffff16908110611b8a57611b8a612dd5565b90600052602060002090600302019050604051806060016040528060016002811115611bb857611bb8612d65565b8152825486546040516370a0823160e01b81526001600160a01b0391821660048201526020909301929116906370a08231906024016119ee565b611c176040805160608101909152806000815260200160008152602001600081525090565b8254604080516332f7ce0b60e21b815290516000926001600160a01b03169163cbdf382c9160048083019260209291908290030181865afa158015611c60573d6000803e3d6000fd5b505050506040513d601f19601f82011682018060405250810190611c849190612d48565b905060006001600160a01b0382166370a08231600080516020612fbf833981519152871860401c6040516001600160e01b031960e084901b1681526001600160a01b039091166004820152602401602060405180830381865afa158015611cef573d6000803e3d6000fd5b505050506040513d601f19601f82011682018060405250810190611d139190612e47565b90506000826001600160a01b03166318160ddd6040518163ffffffff1660e01b8152600401602060405180830381865afa158015611d55573d6000803e3d6000fd5b505050506040513d601f19601f82011682018060405250810190611d799190612e47565b90506000856020015160001415611d91576000611da6565b60208601516040870151611da6918490612136565b60408051606081018252600281526020810195909552840152509095945050505050565b6000806000611ddd84866000015161225a565b60058601549193509150600090611e06906001600160401b03600160401b820481169116612d92565b90506000611e2284611e1c848a60400151612120565b90612387565b90506000600188516002811115611e3b57611e3b612d65565b14611e5a576005870154600160801b90046001600160401b0316611e70565b6005870154600160c01b90046001600160401b03165b90506000611e8f85611e1c846001600160401b03168c60400151612120565b9050600060018a516002811115611ea857611ea8612d65565b1415611eb5576000611ece565b611ec3898b60000151611497565b546001600160801b03165b6001600160801b0316905080611ee48386612d92565b611eee9190612d92565b9a9950505050505050505050565b60008083831115611f1257506000905080611f1b565b50600190508183035b9250929050565b611f4d6040518060800160405280600081526020016000815260200160008152602001600081525090565b600080611f5b846000612396565b91509150600080611f6d866001612396565b604080516080810182529687526020870192909252908501939093525050606082015292915050565b6004810154600090600080516020612fdf83398151915290610100900460ff166001816003811115611fca57611fca612d65565b141561205057600060016004860154600160f01b900460ff166002811115611ff457611ff4612d65565b1480156120375750600f830154600486015461202a916001600160401b03600160c01b909104811691600160b01b900416612daa565b6001600160401b03164211155b905080612045576002611860565b600195945050505050565b600281600381111561206457612064612d65565b1415612074575060029392505050565b5060009392505050565b60008061208b85846123e4565b905060018460028111156120a1576120a1612d65565b14806120b457506120b28584612495565b155b156120ca576002015463ffffffff169050610a2b565b60020154600160401b900463ffffffff169050610a2b565b6000816001600160a01b031660a084600281111561210257612102612d65565b901b179392505050565b600061211782612500565b50909392505050565b6000610a2b826121326009600a612f3c565b8591905b600080821161217a5760405162461bcd60e51b815260206004820152601060248201526f4469766973696f6e206279207a65726f60801b6044820152606401610458565b8361218757506000610a2b565b8383028385828161219a5761219a612cce565b0414156121b9578281816121b0576121b0612cce565b04915050610a2b565b5060006121c68386612f48565b905060006121d48487612f5c565b905060006121e28587612f48565b905060006121f08688612f5c565b9050856121fd8285612e28565b6122079190612f48565b6122118385612e28565b61221b8387612e28565b886122268689612e28565b6122309190612e28565b61223a9190612d92565b6122449190612d92565b61224e9190612d92565b98975050505050505050565b600080600080516020612fdf8339815191526002848181111561227f5761227f612d65565b14156122a1576009810154600160d01b900463ffffffff16925082915061237f565b60018460028111156122b5576122b5612d65565b14156123205760048501546013820180549091640100000000900461ffff169081106122e3576122e3612dd5565b6000918252602090912060026003909202010154600486015463ffffffff918216935061231991600160901b9091041683612724565b925061237f565b6004850154601382018054909162010000900461ffff1690811061234657612346612dd5565b6000918252602090912060026003909202010154600486015463ffffffff918216935061237c91600160701b9091041683612724565b92505b509250929050565b6000610a2b8383612710612136565b6000806000806123a6868661273b565b9150915060006123b68388611a47565b905060006123c48389611a47565b9050836040015194506123d78282612724565b9550505050509250929050565b600060028260028111156123fa576123fa612d65565b141561240857612408612e12565b600080516020612fdf833981519152600083600281111561242b5761242b612d65565b141561246d576004840154601382018054909162010000900461ffff1690811061245757612457612dd5565b90600052602060002090600302019150506101fc565b60048401546013820180549091640100000000900461ffff1690811061245757612457612dd5565b6000808260028111156124aa576124aa612d65565b14156124c757506004820154600160f81b900460011615156101fc565b60018260028111156124db576124db612d65565b14156124f857506004820154600160f81b900460021615156101fc565b5060006101fc565b6000808080600080516020612fdf833981519152600981015460405163d75f6d8160e01b8152600160a01b820463ffffffff1660048201529192506001600160a01b031690600090829063d75f6d8190602401602060405180830381865afa158015612570573d6000803e3d6000fd5b505050506040513d601f19601f820116820180604052508101906125949190612d48565b875460405163d75f6d8160e01b8152600160b01b90910461ffff1660048201529091506000906001600160a01b0384169063d75f6d8190602401602060405180830381865afa1580156125eb573d6000803e3d6000fd5b505050506040513d601f19601f8201168201806040525081019061260f9190612d48565b90506000806000846001600160a01b03166365f5cd866040518163ffffffff1660e01b8152600401606060405180830381865afa158015612654573d6000803e3d6000fd5b505050506040513d601f19601f820116820180604052508101906126789190612f70565b9250925092506000806000866001600160a01b03166365f5cd866040518163ffffffff1660e01b8152600401606060405180830381865afa1580156126c1573d6000803e3d6000fd5b505050506040513d601f19601f820116820180604052508101906126e59190612f70565b925092509250600061270e8f60000160159054906101000a900460ff1660ff1685848a8961289e565b9f959e50919c50939a5050505050505050505050565b6000818310156127345781610a2b565b5090919050565b6127606040805160608101909152806000815260200160008152602001600081525090565b6127856040805160608101909152806000815260200160008152602001600081525090565b600061279185856123e4565b9050600061279f8686612925565b905060006127ac83612968565b6127b7576000612824565b82546040516370a0823160e01b81526001600160a01b038481166004830152909116906370a0823190602401602060405180830381865afa158015612800573d6000803e3d6000fd5b505050506040513d601f19601f820116820180604052508101906128249190612e47565b90506000806128328561299f565b91509150604051806060016040528089600281111561285357612853612d65565b8152602001848152602001838152509650604051806060016040528089600281111561288157612881612d65565b815260200184815260200182815250955050505050509250929050565b6000600080516020612fdf8339815191528160096128bc878a612d92565b6128c69190612d92565b60098301549091506000906128e6908690600160c81b900460ff16612d92565b9050808210156128f8576128f8612e12565b6129186129058284612d7b565b61291090600a612f3c565b87908a612136565b9998505050505050505050565b6000600182600281111561293b5761293b612d65565b1461295957600080516020612fbf833981519152831860401c610a2b565b5050546001600160a01b031690565b8054600090600160c01b90046001600160401b031615806101fc5750815442600160c01b9091046001600160401b03161192915050565b600080600080516020612fdf8339815191528180806129bd87612500565b92509250925060008060006129d18a612a3d565b600d8a0154929550909350915060009085906129f6906001600160401b031684612d92565b10158015612a1c5750600d8801548690612a19906001600160401b031685612d92565b10155b905086995080612a2c5786612a2e565b835b98505050505050505050915091565b6000808080600080516020612fdf833981519152600981015460405163d75f6d8160e01b8152600160a01b820463ffffffff1660048201529192506001600160a01b031690600090829063d75f6d8190602401602060405180830381865afa158015612aad573d6000803e3d6000fd5b505050506040513d601f19601f82011682018060405250810190612ad19190612d48565b875460405163d75f6d8160e01b8152600160b01b90910461ffff1660048201529091506000906001600160a01b0384169063d75f6d8190602401602060405180830381865afa158015612b28573d6000803e3d6000fd5b505050506040513d601f19601f82011682018060405250810190612b4c9190612d48565b90506000806000846001600160a01b0316633cacb3ae6040518163ffffffff1660e01b8152600401606060405180830381865afa158015612b91573d6000803e3d6000fd5b505050506040513d601f19601f82011682018060405250810190612bb59190612f70565b9250925092506000806000866001600160a01b0316633cacb3ae6040518163ffffffff1660e01b8152600401606060405180830381865afa1580156126c1573d6000803e3d6000fd5b6001600160a01b038116811461122d57600080fd5b60008060408385031215612c2657600080fd5b8235612c3181612bfe565b91506020830135612c4181612bfe565b809150509250929050565b600060208284031215612c5e57600080fd5b8135610a2b81612bfe565b600080600060608486031215612c7e57600080fd5b8335612c8981612bfe565b92506020840135612c9981612bfe565b929592945050506040919091013590565b600080600060608486031215612cbf57600080fd5b833560038110612c8957600080fd5b634e487b7160e01b600052601260045260246000fd5b60006001600160401b0380841680612cfe57612cfe612cce565b92169190910692915050565b634e487b7160e01b600052601160045260246000fd5b60006001600160401b0383811690831681811015612d4057612d40612d0a565b039392505050565b600060208284031215612d5a57600080fd5b8151610a2b81612bfe565b634e487b7160e01b600052602160045260246000fd5b600082821015612d8d57612d8d612d0a565b500390565b60008219821115612da557612da5612d0a565b500190565b60006001600160401b03808316818516808303821115612dcc57612dcc612d0a565b01949350505050565b634e487b7160e01b600052603260045260246000fd5b60006001600160401b0380831681811415612e0857612e08612d0a565b6001019392505050565b634e487b7160e01b600052600160045260246000fd5b6000816000190483118215151615612e4257612e42612d0a565b500290565b600060208284031215612e5957600080fd5b5051919050565b600181815b8085111561237f578160001904821115612e8157612e81612d0a565b80851615612e8e57918102915b93841c9390800290612e65565b600082612eaa575060016101fc565b81612eb7575060006101fc565b8160018114612ecd5760028114612ed757612ef3565b60019150506101fc565b60ff841115612ee857612ee8612d0a565b50506001821b6101fc565b5060208310610133831016604e8410600b8410161715612f16575081810a6101fc565b612f208383612e60565b8060001904821115612f3457612f34612d0a565b029392505050565b6000610a2b8383612e9b565b600082612f5757612f57612cce565b500490565b600082612f6b57612f6b612cce565b500690565b600080600060608486031215612f8557600080fd5b835192506020840151915060408401519050925092509256feec7e8c1c441439dd40959777f4c577ea0cd42fcc1dbe59d2bd0f5d9c55df8dc95bebac0595fee029d42bb673937f5f1cb81cf8641382bc17774635de9b7d7965ec7e8c1c441439dd40959777f4c577ea0cd42fcc1dbe59d2bd0f5d9c55df8db6a26469706673582212206f28d9127977a0ebd701640bcc1ad8e74f129b4732bd5156d6b817cfa5c58fcc64736f6c634300080b0033",
  "linkReferences": {},
  "deployedLinkReferences": {}
}