{
  "_format": "hh-sol-artifact-1",
  "contractName": "AgentsExternal",
  "sourceName": "contracts/fasset/library/AgentsExternal.sol",
  "abi": [
    {
      "inputs": [
        {
          "internalType": "address",
          "name": "_agentVault",
          "type": "address"
        }
      ],
      "name": "getAgentVaultOwner",
      "outputs": [
        {
          "internalType": "address",
          "name": "_ownerColdAddress",
          "type": "address"
        },
        {
          "internalType": "address",
          "name": "_ownerHotAddress",
          "type": "address"
        }
      ],
      "stateMutability": "view",
      "type": "function"
    },
    {
      "inputs": [
        {
          "internalType": "uint256",
          "name": "_start",
          "type": "uint256"
        },
        {
          "internalType": "uint256",
          "name": "_end",
          "type": "uint256"
        }
      ],
      "name": "getAllAgents",
      "outputs": [
        {
          "internalType": "address[]",
          "name": "_agents",
          "type": "address[]"
        },
        {
          "internalType": "uint256",
          "name": "_totalLength",
          "type": "uint256"
        }
      ],
      "stateMutability": "view",
      "type": "function"
    },
    {
      "inputs": [
        {
          "internalType": "address",
          "name": "_agentVault",
          "type": "address"
        }
      ],
      "name": "getFAssetsBackedByPool",
      "outputs": [
        {
          "internalType": "uint256",
          "name": "",
          "type": "uint256"
        }
      ],
      "stateMutability": "view",
      "type": "function"
    },
    {
      "inputs": [
        {
          "internalType": "address",
          "name": "_agentVault",
          "type": "address"
        },
        {
          "internalType": "contract IERC20",
          "name": "_token",
          "type": "IERC20"
        }
      ],
      "name": "isCollateralToken",
      "outputs": [
        {
          "internalType": "bool",
          "name": "",
          "type": "bool"
        }
      ],
      "stateMutability": "view",
      "type": "function"
    }
  ],
  "bytecode": "0x61324361003a600b82828239805160001a60731461002d57634e487b7160e01b600052600060045260246000fd5b30600052607381538281f3fe73000000000000000000000000000000000000000030146080604052600436106100a85760003560e01c8063a43ba5ab11610070578063a43ba5ab1461016a578063b19aec171461018a578063c7be12eb146101ab578063ed3762aa146101cb578063f4d000b2146101ec57600080fd5b80630659eaf8146100ad57806365454f94146100d55780636e61164f146100f757806375f4d63f1461012a5780637d18f88c1461014a575b600080fd5b6100c06100bb366004612cec565b61020c565b60405190151581526020015b60405180910390f35b8180156100e157600080fd5b506100f56100f0366004612d25565b61022e565b005b61010a610105366004612d25565b61039f565b604080516001600160a01b039384168152929091166020830152016100cc565b81801561013657600080fd5b506100f5610145366004612cec565b6103fb565b81801561015657600080fd5b506100f5610165366004612d42565b61049e565b81801561017657600080fd5b506100f5610185366004612d83565b610744565b61019d610198366004612da7565b6109db565b6040516100cc929190612dc9565b8180156101b757600080fd5b506100f56101c6366004612cec565b610af6565b6101de6101d9366004612d25565b610b1b565b6040519081526020016100cc565b8180156101f857600080fd5b506100f5610207366004612d25565b610b6f565b60008061021884610e6b565b90506102248184610f01565b9150505b92915050565b6000805160206131ee833981519152600061024883610e6b565b600b83015460068201549192506001600160401b03600160801b909104811691161061039a57600b8201546006820154600091610298916001600160401b03600160801b90920482169116612e30565b60068301549091506000906102b79083906001600160401b0316612e6c565b905060006102c9601b86018784610f4a565b60068501805467ffffffffffffffff19166001600160401b038616179055905060006102f48361134c565b604080516001600160401b0385168152602081018390529192506001600160a01b038916917f431b2ade30b3ff33dff1b07ffe3f765406b0038260ee4e0170c47a38fa8e38d4910160405180910390a2600061034f8561134c565b9050876001600160a01b03167fa3db2bc927901a1d3ba09ad51d84609457b98443be9132a0a936a47c5a1081b58260405161038c91815260200190565b60405180910390a250505050505b505050565b6000806103f26103ae84610e6b565b600101546001600160a01b0390811660008181527fec7e8c1c441439dd40959777f4c577ea0cd42fcc1dbe59d2bd0f5d9c55df8dcc60205260409020549092911690565b91509150915091565b816104058161139f565b600061041084610e6b565b9050600061041d826113f9565b8054909150600160b01b90046001600160401b031661048d5760405162461bcd60e51b815260206004820152602160248201527f63757272656e7420636f6c6c61746572616c206e6f74206465707265636174656044820152601960fa1b60648201526084015b60405180910390fd5b6104978285611452565b5050505050565b60006104a983610e6b565b905060006104b6826115fa565b6001600160a01b0316856001600160a01b031614156104d757506000610561565b8154604080516332f7ce0b60e21b815290516001600160a01b039092169163cbdf382c916004808201926020929091908290030181865afa158015610520573d6000803e3d6000fd5b505050506040513d601f19601f820116820180604052508101906105449190612e94565b6001600160a01b0316856001600160a01b03161415610497575060025b600061056d838361165e565b9050600160048085015460ff169081111561058a5761058a612eb1565b146105d75760405162461bcd60e51b815260206004820152601a60248201527f7769746864726177616c3a20696e76616c6964207374617475730000000000006044820152606401610484565b8054600160801b90046001600160401b03166106355760405162461bcd60e51b815260206004820152601960248201527f7769746864726177616c3a206e6f7420616e6e6f756e636564000000000000006044820152606401610484565b80546001600160801b031684111561068f5760405162461bcd60e51b815260206004820152601f60248201527f7769746864726177616c3a206d6f7265207468616e20616e6e6f756e636564006044820152606401610484565b8054600160801b90046001600160401b031642116106ef5760405162461bcd60e51b815260206004820152601b60248201527f7769746864726177616c3a206e6f7420616c6c6f7765642079657400000000006044820152606401610484565b80546000906107089086906001600160801b0316612ec7565b82546001600160801b0319166001600160801b03821617835590508061073b57815467ffffffffffffffff60801b191682555b50505050505050565b8161074e8161139f565b600061075984610e6b565b9050600160048083015460ff169081111561077657610776612eb1565b146107c35760405162461bcd60e51b815260206004820152601e60248201527f7769746864726177616c20616e6e3a20696e76616c69642073746174757300006044820152606401610484565b60006107cf828761165e565b80549091506001600160801b03168411156108cd576000805160206131ee83398151915260006107ff84896116ac565b835490915060009061081a906001600160801b031688612ec7565b90506108268286611730565b8111156108755760405162461bcd60e51b815260206004820152601a60248201527f7769746864726177616c3a2076616c756520746f6f20686967680000000000006044820152606401610484565b600f83015461089d9061089890600160801b90046001600160401b031642612ede565b611762565b84546001600160401b0391909116600160801b0267ffffffffffffffff60801b19909116178455506108e5915050565b836108e557805467ffffffffffffffff60801b191681555b6108ee846117ce565b81546001600160801b0319166001600160801b0391909116178155600086600281111561091d5761091d612eb1565b141561097d57805460408051868152600160801b9092046001600160401b031660208301526001600160a01b038716917f6d6c69762d6465dac8ef5a1994f86eace3f44f0ed0ee2e5419eaa8416da90d09910160405180910390a26109d3565b805460408051868152600160801b9092046001600160401b031660208301526001600160a01b038716917fd8af9ece0435675178bfc0aba18c040e3bd5ad88eabd3d313cd0b469a8e1d06b910160405180910390a25b505050505050565b7fec7e8c1c441439dd40959777f4c577ea0cd42fcc1dbe59d2bd0f5d9c55df8dcd546060906000805160206131ee833981519152610a198483611837565b9350610a258585611837565b9450610a318585612ec7565b6001600160401b03811115610a4857610a48612ef6565b604051908082528060200260200182016040528015610a71578160200160208202803683370190505b509250845b84811015610aed57816017018181548110610a9357610a93612f0c565b6000918252602090912001546001600160a01b031684610ab38884612ec7565b81518110610ac357610ac3612f0c565b6001600160a01b039092166020928302919091019091015280610ae581612f22565b915050610a76565b50509250929050565b6000610b0182610e6b565b9050610b0d8184610f01565b1561039a5761039a8161184d565b600080610b2783610e6b565b6005810154909150610b68906001600160401b03600160c01b8204811691610b5991600160401b820481169116612f3d565b610b639190612f3d565b61134c565b9392505050565b80610b798161139f565b6000610b8483610e6b565b7fec7e8c1c441439dd40959777f4c577ea0cd42fcc1dbe59d2bd0f5d9c55df8dd9546000805160206131ae83398151915280549293506000805160206131ee8339815191529260009261ffff16908110610be057610be0612f0c565b60009182526020909120600491820201546023840154918501546001600160a01b0390911692506301000000900461ffff908116911614610ce85760238201546004848101805464ffff000000191661ffff909316630100000002929092179091558354604051637a68005960e11b81526001600160a01b038481169382019390935291169063f4d000b290602401600060405180830381600087803b158015610c8957600080fd5b505af1158015610c9d573d6000803e3d6000fd5b505060408051600181526001600160a01b038581166020830152891693507f88b6ac79ad99776ae32e236db624ff70afc6aedfaa56430d9924c5165ceadef692500160405180910390a25b6000856001600160a01b0316639edbf0076040518163ffffffff1660e01b8152600401602060405180830381865afa158015610d28573d6000803e3d6000fd5b505050506040513d601f19601f82011682018060405250810190610d4c9190612e94565b9050816001600160a01b0316816001600160a01b0316146109d357604051637a68005960e11b81526001600160a01b03838116600483015287169063f4d000b290602401600060405180830381600087803b158015610daa57600080fd5b505af1158015610dbe573d6000803e3d6000fd5b50505050610dcb846115fa565b6001600160a01b0316816001600160a01b031614156109d357600080610df2600284611944565b915091508115610e615760048601805462ffff00191661010061ffff8416021790556001600160a01b0388167f88b6ac79ad99776ae32e236db624ff70afc6aedfaa56430d9924c5165ceadef660026040805160ff90921682526001600160a01b03881660208301520161038c565b5050505050505050565b6000805160206131ce83398151915268010000000000000000600160e01b03604083901b161880600060048084015460ff1690811115610ead57610ead612eb1565b1415610efb5760405162461bcd60e51b815260206004820152601b60248201527f696e76616c6964206167656e74207661756c74206164647265737300000000006044820152606401610484565b50919050565b6000610f0c836119bc565b6001600160a01b0316826001600160a01b03161480610b685750610f2f836115fa565b6001600160a01b0316826001600160a01b0316149392505050565b6001600160a01b03821660009081526001840160205260408120600285018054839190601090610f8990600160801b90046001600160401b0316612f68565b91906101000a8154816001600160401b0302191690836001600160401b03160217905590506040518060c00160405280866001600160a01b03168152602001856001600160401b031681526020018760020160089054906101000a90046001600160401b03166001600160401b0316815260200160006001600160401b031681526020018360000160089054906101000a90046001600160401b03166001600160401b0316815260200160006001600160401b0316815250866000016000836001600160401b03166001600160401b0316815260200190815260200160002060008201518160000160006101000a8154816001600160a01b0302191690836001600160a01b0316021790555060208201518160000160146101000a8154816001600160401b0302191690836001600160401b0316021790555060408201518160010160006101000a8154816001600160401b0302191690836001600160401b0316021790555060608201518160010160086101000a8154816001600160401b0302191690836001600160401b0316021790555060808201518160010160106101000a8154816001600160401b0302191690836001600160401b0316021790555060a08201518160010160186101000a8154816001600160401b0302191690836001600160401b031602179055509050508560020160009054906101000a90046001600160401b03166001600160401b0316600014156111e7576002860154600160401b90046001600160401b0316156111c4576111c4612f8f565b60028601805467ffffffffffffffff19166001600160401b03831617905561124c565b6002860154600160401b90046001600160401b031661120857611208612f8f565b6002860154600160401b908190046001600160401b039081166000908152602089905260409020600101805467ffffffffffffffff60401b19169184169092021790555b6002860180546001600160401b03808416600160401b0267ffffffffffffffff60401b19909216919091179091558254166112bf578154600160401b90046001600160401b0316156112a0576112a0612f8f565b815467ffffffffffffffff19166001600160401b03821617825561131f565b8154600160401b90046001600160401b03166112dd576112dd612f8f565b81546001600160401b03600160401b909104811660009081526020889052604090206001018054918316600160c01b026001600160c01b039092169190911790555b815467ffffffffffffffff60401b1916600160401b6001600160401b038316021790915590509392505050565b7fec7e8c1c441439dd40959777f4c577ea0cd42fcc1dbe59d2bd0f5d9c55df8dc1546000906000805160206131ee83398151915290610b6890600160401b90046001600160401b03908116908516612fa5565b6113b16113ab82610e6b565b33611a01565b6113f65760405162461bcd60e51b815260206004820152601660248201527537b7363c9030b3b2b73a103b30bab63a1037bbb732b960511b6044820152606401610484565b50565b60048101546000805160206131ae83398151915280546000926000805160206131ee833981519152929161010090910461ffff1690811061143c5761143c612f0c565b9060005260206000209060040201915050919050565b6000805160206131ee833981519152600061146e600284611a5b565b9050600082601301828154811061148757611487612f0c565b60009182526020909120600490910201905060028154600160a01b900460ff1660028111156114b8576114b8612eb1565b146115055760405162461bcd60e51b815260206004820152601b60248201527f6e6f7420636c6173733120636f6c6c61746572616c20746f6b656e00000000006044820152606401610484565b8054600160b01b90046001600160401b03161561155c5760405162461bcd60e51b815260206004820152601560248201527418dbdb1b185d195c985b0819195c1c9958d85d1959605a1b6044820152606401610484565b600061156786611af5565b905060006115758288611bd4565b600384015490915063ffffffff168110156115ca5760405162461bcd60e51b81526020600482015260156024820152741b9bdd08195b9bdd59da0818dbdb1b185d195c985b605a1b6044820152606401610484565b6115d384611c92565b8760040160016101000a81548161ffff021916908361ffff16021790555050505050505050565b60048101546000805160206131ae83398151915280546000926000805160206131ee833981519152929161010090910461ffff1690811061163d5761163d612f0c565b60009182526020909120600490910201546001600160a01b03169392505050565b6000600182600281111561167457611674612eb1565b141561168257611682612f8f565b600082600281111561169657611696612eb1565b146116a45782600901610b68565b505060080190565b6116d16040805160608101909152806000815260200160008152602001600081525090565b60008260028111156116e5576116e5612eb1565b14156116fb576116f483611af5565b9050610228565b600082600281111561170f5761170f612eb1565b141561171e576116f483611cf5565b6116f48361172b85611cf5565b611d70565b60008061173d8484611f48565b9050600061175882866020015161207990919063ffffffff16565b9695505050505050565b60006001600160401b038211156117ca5760405162461bcd60e51b815260206004820152602660248201527f53616665436173743a2076616c756520646f65736e27742066697420696e203660448201526534206269747360d01b6064820152608401610484565b5090565b60006001600160801b038211156117ca5760405162461bcd60e51b815260206004820152602760248201527f53616665436173743a2076616c756520646f65736e27742066697420696e20316044820152663238206269747360c81b6064820152608401610484565b60008183106118465781610b68565b5090919050565b600260048083015460ff169081111561186857611868612eb1565b146118705750565b600061187b8261209f565b9050600061188883612113565b90506000611898848360006121f8565b905060006118a8858460016121f8565b9050818460000151101580156118c2575080846020015110155b15610497576004850180547fff00000000000000000000ffffffffffffffffffffffffffffffffffffffff001660011790556000805160206131ce833981519152851860401c6001600160a01b03167fe513b42585b0ceec0d56d56fe3a23861c15a2f74eb4c32c94334d63d68ff4dcf60405160405180910390a25050505050565b6000806000805160206131ee833981519152817fec7e8c1c441439dd40959777f4c577ea0cd42fcc1dbe59d2bd0f5d9c55df8dca81611983888861225c565b8152602001908152602001600020549050600081119350836119a65760006119b1565b6119b1600182612ec7565b925050509250929050565b60048101546000805160206131ae83398151915280546000926000805160206131ee8339815191529291630100000090910461ffff1690811061163d5761163d612f0c565b60018201546000906000805160206131ee833981519152906001600160a01b03908116908416811480611a5257506001600160a01b0380821660009081526016840160205260409020548582169116145b95945050505050565b60006000805160206131ee833981519152817fec7e8c1c441439dd40959777f4c577ea0cd42fcc1dbe59d2bd0f5d9c55df8dca81611a99878761225c565b815260200190815260200160002054905060008111611aea5760405162461bcd60e51b815260206004820152600d60248201526c3ab735b737bbb7103a37b5b2b760991b6044820152606401610484565b611a52600182612ec7565b611b1a6040805160608101909152806000815260200160008152602001600081525090565b6000611b25836113f9565b6040805160608101825260008152825482516370a0823160e01b81526000805160206131ce833981519152881890931c6001600160a01b039081166004850152939450909260208401929116906370a08231906024015b602060405180830381865afa158015611b99573d6000803e3d6000fd5b505050506040513d601f19601f82011682018060405250810190611bbd9190612fc4565b8152602001611bcb83612286565b90529392505050565b600080600184516002811115611bec57611bec612eb1565b14611c0b576005830154600160801b90046001600160401b0316611c21565b6005830154600160c01b90046001600160401b03165b60058401546001600160401b0391821692506000918391611c4d9181811691600160401b900416612ede565b611c579190612ede565b905080611c6d576402540be40092505050610228565b6000611c7d82876040015161229c565b602087015190915061175890612710836122b2565b600061ffff8211156117ca5760405162461bcd60e51b815260206004820152602660248201527f53616665436173743a2076616c756520646f65736e27742066697420696e203160448201526536206269747360d01b6064820152608401610484565b611d1a6040805160608101909152806000815260200160008152602001600081525090565b6000611d25836123d6565b60408051606081019091529091508060018152825485546040516370a0823160e01b81526001600160a01b0391821660048201526020909301929116906370a0823190602401611b7c565b611d956040805160608101909152806000815260200160008152602001600081525090565b8254604080516332f7ce0b60e21b815290516000926001600160a01b03169163cbdf382c9160048083019260209291908290030181865afa158015611dde573d6000803e3d6000fd5b505050506040513d601f19601f82011682018060405250810190611e029190612e94565b905060006001600160a01b0382166370a082316000805160206131ce833981519152871860401c6040516001600160e01b031960e084901b1681526001600160a01b039091166004820152602401602060405180830381865afa158015611e6d573d6000803e3d6000fd5b505050506040513d601f19601f82011682018060405250810190611e919190612fc4565b90506000826001600160a01b03166318160ddd6040518163ffffffff1660e01b8152600401602060405180830381865afa158015611ed3573d6000803e3d6000fd5b505050506040513d601f19601f82011682018060405250810190611ef79190612fc4565b90506000856020015160001415611f0f576000611f24565b60208601516040870151611f249184906122b2565b60408051606081018252600281526020810195909552840152509095945050505050565b6000806000611f5b84866000015161241b565b60058601549193509150600090611f84906001600160401b03600160401b820481169116612ede565b90506000611fa084611f9a848a6040015161229c565b90612522565b90506000600188516002811115611fb957611fb9612eb1565b14611fd8576005870154600160801b90046001600160401b0316611fee565b6005870154600160c01b90046001600160401b03165b9050600061200d85611f9a846001600160401b03168c6040015161229c565b9050600060018a51600281111561202657612026612eb1565b141561203357600061204b565b8951612040908a9061165e565b546001600160801b03165b6001600160801b03169050806120618386612ede565b61206b9190612ede565b9a9950505050505050505050565b6000808383111561208f57506000905080612098565b50600190508183035b9250929050565b6120ca6040518060800160405280600081526020016000815260200160008152602001600081525090565b6000806120d8846000612531565b915091506000806120ea866001612531565b604080516080810182529687526020870192909252908501939093525050606082015292915050565b6000806000805160206131ee833981519152600484015490915060ff16600281600481111561214457612144612eb1565b14156121ca57600060016004860154600160e81b900460ff16600281111561216e5761216e612eb1565b1480156121b15750600f83015460048601546121a4916001600160401b03600160c01b909104811691600160a81b900416612f3d565b6001600160401b03164211155b9050806121bf576002611a52565b600195945050505050565b60038160048111156121de576121de612eb1565b14156121ee575060029392505050565b5060009392505050565b600080612205858461257f565b9050600184600281111561221b5761221b612eb1565b148061222e575061222c858461262e565b155b15612244576003015463ffffffff169050610b68565b60030154600160401b900463ffffffff169050610b68565b6000816001600160a01b031660a084600281111561227c5761227c612eb1565b901b179392505050565b6000612293826000612699565b50909392505050565b6000610b68826122ae6009600a6130c1565b8591905b60008082116122f65760405162461bcd60e51b815260206004820152601060248201526f4469766973696f6e206279207a65726f60801b6044820152606401610484565b8361230357506000610b68565b8383028385828161231657612316612e1a565b0414156123355782818161232c5761232c612e1a565b04915050610b68565b50600061234283866130cd565b9050600061235084876130e1565b9050600061235e85876130cd565b9050600061236c86886130e1565b9050856123798285612fa5565b61238391906130cd565b61238d8385612fa5565b6123978387612fa5565b886123a28689612fa5565b6123ac9190612fa5565b6123b69190612ede565b6123c09190612ede565b6123ca9190612ede565b98975050505050505050565b60048101546000805160206131ae83398151915280546000926000805160206131ee8339815191529291630100000090910461ffff1690811061143c5761143c612f0c565b600080600283600281111561243257612432612eb1565b141561249a5760008061244686600161241b565b9150915060006124616000805160206131ee83398151915290565b6009015463ffffffff600160b01b90910481169150612484908290849061252216565b93506124908184612522565b9450505050612098565b60018360028111156124ae576124ae612eb1565b14156124ea576124bd846123d6565b60030154600485015463ffffffff91821692506124e391600160881b9091041682612858565b9150612098565b6124f3846113f9565b60030154600485015463ffffffff918216925061251991600160681b9091041682612858565b91509250929050565b6000610b6883836127106122b2565b6000806000806125418686612868565b9150915060006125518388611bd4565b9050600061255f8389611bd4565b9050836040015194506125728282612858565b9550505050509250929050565b6000600282600281111561259557612595612eb1565b14156125a3576125a3612f8f565b6000805160206131ee83398151915260008360028111156125c6576125c6612eb1565b14156126075760048401546013820180549091610100900461ffff169081106125f1576125f1612f0c565b9060005260206000209060040201915050610228565b600484015460138201805490916301000000900461ffff169081106125f1576125f1612f0c565b60008082600281111561264357612643612eb1565b141561266057506004820154600160f01b90046001161515610228565b600182600281111561267457612674612eb1565b141561269157506004820154600160f01b90046002161515610228565b506000610228565b6000806000806000806127388860010180546126b4906130f5565b80601f01602080910402602001604051908101604052809291908181526020018280546126e0906130f5565b801561272d5780601f106127025761010080835404028352916020019161272d565b820191906000526020600020905b81548152906001019060200180831161271057829003601f168201915b5050505050886129cb565b8a549295509093509150600160f01b900460ff161561277f57875460009061276e90600160a81b900460ff166001838786612b27565b965091945084935061285192505050565b600080600061281a8b6002018054612796906130f5565b80601f01602080910402602001604051908101604052809291908181526020018280546127c2906130f5565b801561280f5780601f106127e45761010080835404028352916020019161280f565b820191906000526020600020905b8154815290600101906020018083116127f257829003601f168201915b50505050508b6129cb565b8d54929550909350915060009061283e90600160a81b900460ff1685848a89612b27565b9950949750909550612851945050505050565b9250925092565b6000818310156118465781610b68565b61288d6040805160608101909152806000815260200160008152602001600081525090565b6128b26040805160608101909152806000815260200160008152602001600081525090565b60006128be858561257f565b905060006128cc8686612bae565b905060006128d983612bf1565b6128e4576000612951565b82546040516370a0823160e01b81526001600160a01b038481166004830152909116906370a0823190602401602060405180830381865afa15801561292d573d6000803e3d6000fd5b505050506040513d601f19601f820116820180604052508101906129519190612fc4565b905060008061295f85612c28565b91509150604051806060016040528089600281111561298057612980612eb1565b815260200184815260200183815250965060405180606001604052808960028111156129ae576129ae612eb1565b815260200184815260200182815250955050505050509250929050565b7fec7e8c1c441439dd40959777f4c577ea0cd42fcc1dbe59d2bd0f5d9c55df8dbf546040516325f69abd60e21b8152600091829182916000805160206131ee8339815191529183916001600160a01b0316906397da6af490612a31908a9060040161312a565b602060405180830381865afa158015612a4e573d6000803e3d6000fd5b505050506040513d601f19601f82011682018060405250810190612a729190612e94565b90508515612ae957806001600160a01b0316633cacb3ae6040518163ffffffff1660e01b8152600401606060405180830381865afa158015612ab8573d6000803e3d6000fd5b505050506040513d601f19601f82011682018060405250810190612adc919061317f565b9450945094505050612851565b806001600160a01b03166365f5cd866040518163ffffffff1660e01b8152600401606060405180830381865afa158015612ab8573d6000803e3d6000fd5b60006000805160206131ee833981519152816009612b45878a612ede565b612b4f9190612ede565b6009830154909150600090612b6f908690600160a81b900460ff16612ede565b905080821015612b8157612b81612f8f565b612ba1612b8e8284612ec7565b612b9990600a6130c1565b87908a6122b2565b9998505050505050505050565b60006001826002811115612bc457612bc4612eb1565b14612be2576000805160206131ce833981519152831860401c610b68565b5050546001600160a01b031690565b8054600090600160b01b90046001600160401b031615806102285750815442600160b01b9091046001600160401b03161192915050565b6000806000805160206131ee833981519152818080612c478782612699565b9250925092506000806000612c5d8a6001612699565b600c8a015492955090935091506000908590612c8990600160401b90046001600160401b031684612ede565b10158015612cb65750600c8801548690612cb390600160401b90046001600160401b031685612ede565b10155b905086995080612cc65786612cc8565b835b98505050505050505050915091565b6001600160a01b03811681146113f657600080fd5b60008060408385031215612cff57600080fd5b8235612d0a81612cd7565b91506020830135612d1a81612cd7565b809150509250929050565b600060208284031215612d3757600080fd5b8135610b6881612cd7565b600080600060608486031215612d5757600080fd5b8335612d6281612cd7565b92506020840135612d7281612cd7565b929592945050506040919091013590565b600080600060608486031215612d9857600080fd5b833560038110612d6257600080fd5b60008060408385031215612dba57600080fd5b50508035926020909101359150565b604080825283519082018190526000906020906060840190828701845b82811015612e0b5781516001600160a01b031684529284019290840190600101612de6565b50505092019290925292915050565b634e487b7160e01b600052601260045260246000fd5b60006001600160401b0380841680612e4a57612e4a612e1a565b92169190910692915050565b634e487b7160e01b600052601160045260246000fd5b60006001600160401b0383811690831681811015612e8c57612e8c612e56565b039392505050565b600060208284031215612ea657600080fd5b8151610b6881612cd7565b634e487b7160e01b600052602160045260246000fd5b600082821015612ed957612ed9612e56565b500390565b60008219821115612ef157612ef1612e56565b500190565b634e487b7160e01b600052604160045260246000fd5b634e487b7160e01b600052603260045260246000fd5b6000600019821415612f3657612f36612e56565b5060010190565b60006001600160401b03808316818516808303821115612f5f57612f5f612e56565b01949350505050565b60006001600160401b0380831681811415612f8557612f85612e56565b6001019392505050565b634e487b7160e01b600052600160045260246000fd5b6000816000190483118215151615612fbf57612fbf612e56565b500290565b600060208284031215612fd657600080fd5b5051919050565b600181815b80851115613018578160001904821115612ffe57612ffe612e56565b8085161561300b57918102915b93841c9390800290612fe2565b509250929050565b60008261302f57506001610228565b8161303c57506000610228565b8160018114613052576002811461305c57613078565b6001915050610228565b60ff84111561306d5761306d612e56565b50506001821b610228565b5060208310610133831016604e8410600b841016171561309b575081810a610228565b6130a58383612fdd565b80600019048211156130b9576130b9612e56565b029392505050565b6000610b688383613020565b6000826130dc576130dc612e1a565b500490565b6000826130f0576130f0612e1a565b500690565b600181811c9082168061310957607f821691505b60208210811415610efb57634e487b7160e01b600052602260045260246000fd5b600060208083528351808285015260005b818110156131575785810183015185820160400152820161313b565b81811115613169576000604083870101525b50601f01601f1916929092016040019392505050565b60008060006060848603121561319457600080fd5b835192506020840151915060408401519050925092509256feec7e8c1c441439dd40959777f4c577ea0cd42fcc1dbe59d2bd0f5d9c55df8dc95bebac0595fee029d42bb673937f5f1cb81cf8641382bc17774635de9b7d7965ec7e8c1c441439dd40959777f4c577ea0cd42fcc1dbe59d2bd0f5d9c55df8db6a2646970667358221220f3568c45bc4472723bbc6b6bf23ca9a6c2caa64c76d00c87f4c4d79a89495e1564736f6c634300080b0033",
  "linkReferences": {},
  "deployedLinkReferences": {}
}