{
  "_format": "hh-sol-artifact-1",
  "contractName": "AgentsExternal",
  "sourceName": "contracts/fasset/library/AgentsExternal.sol",
  "abi": [
    {
      "anonymous": false,
      "inputs": [
        {
          "indexed": true,
          "internalType": "address",
          "name": "agentVault",
          "type": "address"
        },
        {
          "indexed": false,
          "internalType": "uint8",
          "name": "collateralClass",
          "type": "uint8"
        },
        {
          "indexed": false,
          "internalType": "address",
          "name": "token",
          "type": "address"
        }
      ],
      "name": "AgentCollateralTypeChanged",
      "type": "event"
    },
    {
      "anonymous": false,
      "inputs": [
        {
          "indexed": true,
          "internalType": "address",
          "name": "agentVault",
          "type": "address"
        },
        {
          "indexed": false,
          "internalType": "uint256",
          "name": "amountWei",
          "type": "uint256"
        },
        {
          "indexed": false,
          "internalType": "uint256",
          "name": "withdrawalAllowedAt",
          "type": "uint256"
        }
      ],
      "name": "Class1WithdrawalAnnounced",
      "type": "event"
    },
    {
      "anonymous": false,
      "inputs": [
        {
          "indexed": true,
          "internalType": "address",
          "name": "agentVault",
          "type": "address"
        },
        {
          "indexed": false,
          "internalType": "uint256",
          "name": "dustUBA",
          "type": "uint256"
        }
      ],
      "name": "DustChanged",
      "type": "event"
    },
    {
      "anonymous": false,
      "inputs": [
        {
          "indexed": true,
          "internalType": "address",
          "name": "agentVault",
          "type": "address"
        },
        {
          "indexed": false,
          "internalType": "uint256",
          "name": "redemptionTicketId",
          "type": "uint256"
        },
        {
          "indexed": false,
          "internalType": "uint256",
          "name": "valueUBA",
          "type": "uint256"
        }
      ],
      "name": "DustConvertedToTicket",
      "type": "event"
    },
    {
      "anonymous": false,
      "inputs": [
        {
          "indexed": true,
          "internalType": "address",
          "name": "agentVault",
          "type": "address"
        }
      ],
      "name": "LiquidationEnded",
      "type": "event"
    },
    {
      "anonymous": false,
      "inputs": [
        {
          "indexed": true,
          "internalType": "address",
          "name": "agentVault",
          "type": "address"
        },
        {
          "indexed": false,
          "internalType": "uint256",
          "name": "amountWei",
          "type": "uint256"
        },
        {
          "indexed": false,
          "internalType": "uint256",
          "name": "withdrawalAllowedAt",
          "type": "uint256"
        }
      ],
      "name": "PoolTokenRedemptionAnnounced",
      "type": "event"
    },
    {
      "inputs": [
        {
          "internalType": "address",
          "name": "_agentVault",
          "type": "address"
        }
      ],
      "name": "getAgentVaultOwner",
      "outputs": [
        {
          "internalType": "address",
          "name": "_ownerColdAddress",
          "type": "address"
        },
        {
          "internalType": "address",
          "name": "_ownerHotAddress",
          "type": "address"
        }
      ],
      "stateMutability": "view",
      "type": "function"
    },
    {
      "inputs": [
        {
          "internalType": "uint256",
          "name": "_start",
          "type": "uint256"
        },
        {
          "internalType": "uint256",
          "name": "_end",
          "type": "uint256"
        }
      ],
      "name": "getAllAgents",
      "outputs": [
        {
          "internalType": "address[]",
          "name": "_agents",
          "type": "address[]"
        },
        {
          "internalType": "uint256",
          "name": "_totalLength",
          "type": "uint256"
        }
      ],
      "stateMutability": "view",
      "type": "function"
    },
    {
      "inputs": [
        {
          "internalType": "address",
          "name": "_agentVault",
          "type": "address"
        }
      ],
      "name": "getFAssetsBackedByPool",
      "outputs": [
        {
          "internalType": "uint256",
          "name": "",
          "type": "uint256"
        }
      ],
      "stateMutability": "view",
      "type": "function"
    },
    {
      "inputs": [
        {
          "internalType": "address",
          "name": "_agentVault",
          "type": "address"
        },
        {
          "internalType": "contract IERC20",
          "name": "_token",
          "type": "IERC20"
        }
      ],
      "name": "isLockedVaultToken",
      "outputs": [
        {
          "internalType": "bool",
          "name": "",
          "type": "bool"
        }
      ],
      "stateMutability": "view",
      "type": "function"
    }
  ],
  "bytecode": "0x6133c161003a600b82828239805160001a60731461002d57634e487b7160e01b600052600060045260246000fd5b30600052607381538281f3fe73000000000000000000000000000000000000000030146080604052600436106100a85760003560e01c8063b19aec1711610070578063b19aec1714610167578063c61ce7dd14610188578063d4f3a0d2146101a8578063ed3762aa146101cb578063f4d000b2146101ec57600080fd5b806365454f94146100ad5780636e61164f146100cf57806375f4d63f146101075780637d18f88c14610127578063a43ba5ab14610147575b600080fd5b8180156100b957600080fd5b506100cd6100c8366004612e99565b61020c565b005b6100e26100dd366004612e99565b61037d565b604080516001600160a01b039384168152929091166020830152015b60405180910390f35b81801561011357600080fd5b506100cd610122366004612eb6565b6103d9565b81801561013357600080fd5b506100cd610142366004612eef565b61047f565b81801561015357600080fd5b506100cd610162366004612f30565b610744565b61017a610175366004612f54565b6109f7565b6040516100fe929190612f76565b81801561019457600080fd5b506100cd6101a3366004612eb6565b610b12565b6101bb6101b6366004612eb6565b610ba3565b60405190151581526020016100fe565b6101de6101d9366004612e99565b610c60565b6040519081526020016100fe565b8180156101f857600080fd5b506100cd610207366004612e99565b610cb4565b60008051602061336c833981519152600061022683610faf565b600b83015460068201549192506001600160401b03600160801b909104811691161061037857600b8201546006820154600091610276916001600160401b03600160801b90920482169116612fdd565b60068301549091506000906102959083906001600160401b0316613019565b905060006102a7601b86018784611044565b60068501805467ffffffffffffffff19166001600160401b038616179055905060006102d28361144e565b604080516001600160401b0385168152602081018390529192506001600160a01b038916917f431b2ade30b3ff33dff1b07ffe3f765406b0038260ee4e0170c47a38fa8e38d4910160405180910390a2600061032d8561144e565b9050876001600160a01b03167fa3db2bc927901a1d3ba09ad51d84609457b98443be9132a0a936a47c5a1081b58260405161036a91815260200190565b60405180910390a250505050505b505050565b6000806103d061038c84610faf565b600101546001600160a01b0390811660008181527fec7e8c1c441439dd40959777f4c577ea0cd42fcc1dbe59d2bd0f5d9c55df8dcc60205260409020549092911690565b91509150915091565b816103e3816114a1565b60006103ee84610faf565b905060006103fb826114fb565b8054909150600160b01b90046001600160401b031660000361046e5760405162461bcd60e51b815260206004820152602160248201527f63757272656e7420636f6c6c61746572616c206e6f74206465707265636174656044820152601960fa1b60648201526084015b60405180910390fd5b6104788285611554565b5050505050565b600061048a83610faf565b90506000610497826116fc565b6001600160a01b0316856001600160a01b0316036104b757506000610540565b8154604080516332f7ce0b60e21b815290516001600160a01b039092169163cbdf382c916004808201926020929091908290030181865afa158015610500573d6000803e3d6000fd5b505050506040513d601f19601f820116820180604052508101906105249190613039565b6001600160a01b0316856001600160a01b031603610478575060025b600061054c8383611760565b9050600160048085015460ff169081111561056957610569613056565b14806105845750610579836117ad565b6001600160401b0316155b6105d05760405162461bcd60e51b815260206004820152601a60248201527f7769746864726177616c3a20696e76616c6964207374617475730000000000006044820152606401610465565b8054600160801b90046001600160401b03166000036106315760405162461bcd60e51b815260206004820152601960248201527f7769746864726177616c3a206e6f7420616e6e6f756e636564000000000000006044820152606401610465565b80546001600160801b031684111561068b5760405162461bcd60e51b815260206004820152601f60248201527f7769746864726177616c3a206d6f7265207468616e20616e6e6f756e636564006044820152606401610465565b8054600160801b90046001600160401b031642116106eb5760405162461bcd60e51b815260206004820152601b60248201527f7769746864726177616c3a206e6f7420616c6c6f7765642079657400000000006044820152606401610465565b80546000906107049086906001600160801b031661306c565b82546001600160801b0319166001600160801b0382161783559050600081900361073b57815467ffffffffffffffff60801b191682555b50505050505050565b8161074e816114a1565b600061075984610faf565b9050600160048083015460ff169081111561077657610776613056565b14806107915750610786816117ad565b6001600160401b0316155b6107dd5760405162461bcd60e51b815260206004820152601e60248201527f7769746864726177616c20616e6e3a20696e76616c69642073746174757300006044820152606401610465565b60006107e98287611760565b80549091506001600160801b03168411156108e75760008051602061336c83398151915260006108198489611813565b8354909150600090610834906001600160801b03168861306c565b90506108408286611895565b81111561088f5760405162461bcd60e51b815260206004820152601a60248201527f7769746864726177616c3a2076616c756520746f6f20686967680000000000006044820152606401610465565b600f8301546108b7906108b290600160801b90046001600160401b03164261307f565b6118c7565b84546001600160401b0391909116600160801b0267ffffffffffffffff60801b1990911617845550610902915050565b8360000361090257805467ffffffffffffffff60801b191681555b61090b84611933565b81546001600160801b0319166001600160801b0391909116178155600086600281111561093a5761093a613056565b0361099957805460408051868152600160801b9092046001600160401b031660208301526001600160a01b038716917f6d6c69762d6465dac8ef5a1994f86eace3f44f0ed0ee2e5419eaa8416da90d09910160405180910390a26109ef565b805460408051868152600160801b9092046001600160401b031660208301526001600160a01b038716917fd8af9ece0435675178bfc0aba18c040e3bd5ad88eabd3d313cd0b469a8e1d06b910160405180910390a25b505050505050565b7fec7e8c1c441439dd40959777f4c577ea0cd42fcc1dbe59d2bd0f5d9c55df8dcd5460609060008051602061336c833981519152610a35848361199c565b9350610a41858561199c565b9450610a4d858561306c565b6001600160401b03811115610a6457610a64613092565b604051908082528060200260200182016040528015610a8d578160200160208202803683370190505b509250845b84811015610b0957816017018181548110610aaf57610aaf6130a8565b6000918252602090912001546001600160a01b031684610acf888461306c565b81518110610adf57610adf6130a8565b6001600160a01b039092166020928302919091019091015280610b01816130be565b915050610a92565b50509250929050565b6000610b1d83610faf565b9050336001600160a01b0384161480610b3f575080546001600160a01b031633145b610b8b5760405162461bcd60e51b815260206004820152601860248201527f6f6e6c79206167656e74207661756c74206f7220706f6f6c00000000000000006044820152606401610465565b610b9581836119b2565b1561037857610378816119fc565b600080610baf84610faf565b9050610bba816116fc565b6001600160a01b0316836001600160a01b03161480610c5657508054604080516332f7ce0b60e21b815290516001600160a01b039092169163cbdf382c916004808201926020929091908290030181865afa158015610c1d573d6000803e3d6000fd5b505050506040513d601f19601f82011682018060405250810190610c419190613039565b6001600160a01b0316836001600160a01b0316145b9150505b92915050565b600080610c6c83610faf565b6005810154909150610cad906001600160401b03600160c01b8204811691610c9e91600160401b8204811691166130d7565b610ca891906130d7565b61144e565b9392505050565b80610cbe816114a1565b6000610cc983610faf565b7fec7e8c1c441439dd40959777f4c577ea0cd42fcc1dbe59d2bd0f5d9c55df8dd95460008051602061332c833981519152805492935060008051602061336c8339815191529260009261ffff16908110610d2557610d256130a8565b60009182526020909120600491820201546023840154918501546001600160a01b0390911692506301000000900461ffff908116911614610e2d5760238201546004848101805464ffff000000191661ffff909316630100000002929092179091558354604051637a68005960e11b81526001600160a01b038481169382019390935291169063f4d000b290602401600060405180830381600087803b158015610dce57600080fd5b505af1158015610de2573d6000803e3d6000fd5b505060408051600181526001600160a01b038581166020830152891693507f88b6ac79ad99776ae32e236db624ff70afc6aedfaa56430d9924c5165ceadef692500160405180910390a25b6000856001600160a01b0316639edbf0076040518163ffffffff1660e01b8152600401602060405180830381865afa158015610e6d573d6000803e3d6000fd5b505050506040513d601f19601f82011682018060405250810190610e919190613039565b9050816001600160a01b0316816001600160a01b0316146109ef57604051637a68005960e11b81526001600160a01b03838116600483015287169063f4d000b290602401600060405180830381600087803b158015610eef57600080fd5b505af1158015610f03573d6000803e3d6000fd5b50505050610f10846116fc565b6001600160a01b0316816001600160a01b0316036109ef57600080610f36600284611af3565b915091508115610fa55760048601805462ffff00191661010061ffff8416021790556001600160a01b0388167f88b6ac79ad99776ae32e236db624ff70afc6aedfaa56430d9924c5165ceadef660026040805160ff90921682526001600160a01b03881660208301520161036a565b5050505050505050565b60008051602061334c83398151915268010000000000000000600160e01b03604083901b161880600060048084015460ff1690811115610ff157610ff1613056565b0361103e5760405162461bcd60e51b815260206004820152601b60248201527f696e76616c6964206167656e74207661756c74206164647265737300000000006044820152606401610465565b50919050565b6001600160a01b0382166000908152600184016020526040812060028501805483919060109061108390600160801b90046001600160401b03166130f7565b91906101000a8154816001600160401b0302191690836001600160401b03160217905590506040518060c00160405280866001600160a01b03168152602001856001600160401b031681526020018760020160089054906101000a90046001600160401b03166001600160401b0316815260200160006001600160401b031681526020018360000160089054906101000a90046001600160401b03166001600160401b0316815260200160006001600160401b0316815250866000016000836001600160401b03166001600160401b0316815260200190815260200160002060008201518160000160006101000a8154816001600160a01b0302191690836001600160a01b0316021790555060208201518160000160146101000a8154816001600160401b0302191690836001600160401b0316021790555060408201518160010160006101000a8154816001600160401b0302191690836001600160401b0316021790555060608201518160010160086101000a8154816001600160401b0302191690836001600160401b0316021790555060808201518160010160106101000a8154816001600160401b0302191690836001600160401b0316021790555060a08201518160010160186101000a8154816001600160401b0302191690836001600160401b031602179055509050508560020160009054906101000a90046001600160401b03166001600160401b03166000036112e0576002860154600160401b90046001600160401b0316156112bd576112bd61311d565b60028601805467ffffffffffffffff19166001600160401b038316179055611348565b6002860154600160401b90046001600160401b03166000036113045761130461311d565b6002860154600160401b908190046001600160401b039081166000908152602089905260409020600101805467ffffffffffffffff60401b19169184169092021790555b6002860180546001600160401b03808416600160401b0267ffffffffffffffff60401b19909216919091179091558254166000036113be578154600160401b90046001600160401b03161561139f5761139f61311d565b815467ffffffffffffffff19166001600160401b038216178255611421565b8154600160401b90046001600160401b03166000036113df576113df61311d565b81546001600160401b03600160401b909104811660009081526020889052604090206001018054918316600160c01b026001600160c01b039092169190911790555b815467ffffffffffffffff60401b1916600160401b6001600160401b038316021790915590509392505050565b7fec7e8c1c441439dd40959777f4c577ea0cd42fcc1dbe59d2bd0f5d9c55df8dc15460009060008051602061336c83398151915290610cad90600160401b90046001600160401b03908116908516613133565b6114b36114ad82610faf565b33611b6b565b6114f85760405162461bcd60e51b815260206004820152601660248201527537b7363c9030b3b2b73a103b30bab63a1037bbb732b960511b6044820152606401610465565b50565b600481015460008051602061332c833981519152805460009260008051602061336c833981519152929161010090910461ffff1690811061153e5761153e6130a8565b9060005260206000209060040201915050919050565b60008051602061336c8339815191526000611570600284611bc5565b90506000826013018281548110611589576115896130a8565b60009182526020909120600490910201905060028154600160a01b900460ff1660028111156115ba576115ba613056565b146116075760405162461bcd60e51b815260206004820152601b60248201527f6e6f7420636c6173733120636f6c6c61746572616c20746f6b656e00000000006044820152606401610465565b8054600160b01b90046001600160401b03161561165e5760405162461bcd60e51b815260206004820152601560248201527418dbdb1b185d195c985b0819195c1c9958d85d1959605a1b6044820152606401610465565b600061166986611c5f565b905060006116778288611d3e565b600384015490915063ffffffff168110156116cc5760405162461bcd60e51b81526020600482015260156024820152741b9bdd08195b9bdd59da0818dbdb1b185d195c985b605a1b6044820152606401610465565b6116d584611dff565b8760040160016101000a81548161ffff021916908361ffff16021790555050505050505050565b600481015460008051602061332c833981519152805460009260008051602061336c833981519152929161010090910461ffff1690811061173f5761173f6130a8565b60009182526020909120600490910201546001600160a01b03169392505050565b6000600182600281111561177657611776613056565b036117835761178361311d565b600082600281111561179757611797613056565b146117a55782600901610cad565b505060080190565b60058101546000906001600160401b03600160801b82048116600160c01b9092041611156117dd576117dd61311d565b60058201546001600160401b03600160801b82048116916118099180821691600160401b9004166130d7565b610c5a91906130d7565b6118386040805160608101909152806000815260200160008152602001600081525090565b600082600281111561184c5761184c613056565b036118615761185a83611c5f565b9050610c5a565b600182600281111561187557611875613056565b036118835761185a83611e62565b61185a8361189085611e62565b611edd565b6000806118a284846120b4565b905060006118bd8286602001516121e490919063ffffffff16565b9695505050505050565b60006001600160401b0382111561192f5760405162461bcd60e51b815260206004820152602660248201527f53616665436173743a2076616c756520646f65736e27742066697420696e203660448201526534206269747360d01b6064820152608401610465565b5090565b60006001600160801b0382111561192f5760405162461bcd60e51b815260206004820152602760248201527f53616665436173743a2076616c756520646f65736e27742066697420696e20316044820152663238206269747360c81b6064820152608401610465565b60008183106119ab5781610cad565b5090919050565b60006119bd8361220a565b6001600160a01b0316826001600160a01b03161480610cad57506119e0836116fc565b6001600160a01b0316826001600160a01b031614905092915050565b600260048083015460ff1690811115611a1757611a17613056565b14611a1f5750565b6000611a2a8261224f565b90506000611a37836122c3565b90506000611a47848360006123a6565b90506000611a57858460016123a6565b905081846000015110158015611a71575080846020015110155b15610478576004850180547fff00000000000000000000ffffffffffffffffffffffffffffffffffffffff0016600117905560008051602061334c833981519152851860401c6001600160a01b03167fe513b42585b0ceec0d56d56fe3a23861c15a2f74eb4c32c94334d63d68ff4dcf60405160405180910390a25050505050565b60008060008051602061336c833981519152817fec7e8c1c441439dd40959777f4c577ea0cd42fcc1dbe59d2bd0f5d9c55df8dca81611b32888861240a565b815260200190815260200160002054905060008111935083611b55576000611b60565b611b6060018261306c565b925050509250929050565b600182015460009060008051602061336c833981519152906001600160a01b03908116908416811480611bbc57506001600160a01b0380821660009081526016840160205260409020548582169116145b95945050505050565b600060008051602061336c833981519152817fec7e8c1c441439dd40959777f4c577ea0cd42fcc1dbe59d2bd0f5d9c55df8dca81611c03878761240a565b815260200190815260200160002054905060008111611c545760405162461bcd60e51b815260206004820152600d60248201526c3ab735b737bbb7103a37b5b2b760991b6044820152606401610465565b611bbc60018261306c565b611c846040805160608101909152806000815260200160008152602001600081525090565b6000611c8f836114fb565b6040805160608101825260008152825482516370a0823160e01b815260008051602061334c833981519152881890931c6001600160a01b039081166004850152939450909260208401929116906370a08231906024015b602060405180830381865afa158015611d03573d6000803e3d6000fd5b505050506040513d601f19601f82011682018060405250810190611d27919061314a565b8152602001611d3583612434565b90529392505050565b600080600184516002811115611d5657611d56613056565b14611d75576005830154600160801b90046001600160401b0316611d8b565b6005830154600160c01b90046001600160401b03165b60058401546001600160401b0391821692506000918391611db79181811691600160401b90041661307f565b611dc1919061307f565b905080600003611dda576402540be40092505050610c5a565b6000611dea82876040015161244a565b60208701519091506118bd9061271083612460565b600061ffff82111561192f5760405162461bcd60e51b815260206004820152602660248201527f53616665436173743a2076616c756520646f65736e27742066697420696e203160448201526536206269747360d01b6064820152608401610465565b611e876040805160608101909152806000815260200160008152602001600081525090565b6000611e9283612586565b60408051606081019091529091508060018152825485546040516370a0823160e01b81526001600160a01b0391821660048201526020909301929116906370a0823190602401611ce6565b611f026040805160608101909152806000815260200160008152602001600081525090565b8254604080516332f7ce0b60e21b815290516000926001600160a01b03169163cbdf382c9160048083019260209291908290030181865afa158015611f4b573d6000803e3d6000fd5b505050506040513d601f19601f82011682018060405250810190611f6f9190613039565b905060006001600160a01b0382166370a0823160008051602061334c833981519152871860401c6040516001600160e01b031960e084901b1681526001600160a01b039091166004820152602401602060405180830381865afa158015611fda573d6000803e3d6000fd5b505050506040513d601f19601f82011682018060405250810190611ffe919061314a565b90506000826001600160a01b03166318160ddd6040518163ffffffff1660e01b8152600401602060405180830381865afa158015612040573d6000803e3d6000fd5b505050506040513d601f19601f82011682018060405250810190612064919061314a565b90506000856020015160000361207b576000612090565b60208601516040870151612090918490612460565b60408051606081018252600281526020810195909552840152509095945050505050565b60008060006120c78486600001516125cb565b600586015491935091506000906120f0906001600160401b03600160401b82048116911661307f565b9050600061210c84612106848a6040015161244a565b906126d0565b9050600060018851600281111561212557612125613056565b14612144576005870154600160801b90046001600160401b031661215a565b6005870154600160c01b90046001600160401b03165b9050600061217985612106846001600160401b03168c6040015161244a565b9050600060018a51600281111561219257612192613056565b0361219e5760006121b6565b89516121ab908a90611760565b546001600160801b03165b6001600160801b03169050806121cc838661307f565b6121d6919061307f565b9a9950505050505050505050565b600080838311156121fa57506000905080612203565b50600190508183035b9250929050565b600481015460008051602061332c833981519152805460009260008051602061336c8339815191529291630100000090910461ffff1690811061173f5761173f6130a8565b61227a6040518060800160405280600081526020016000815260200160008152602001600081525090565b6000806122888460006126df565b9150915060008061229a8660016126df565b604080516080810182529687526020870192909252908501939093525050606082015292915050565b60008060008051602061336c833981519152600484015490915060ff1660028160048111156122f4576122f4613056565b0361237957600060016004860154600160e81b900460ff16600281111561231d5761231d613056565b1480156123605750600f8301546004860154612353916001600160401b03600160c01b909104811691600160a81b9004166130d7565b6001600160401b03164211155b90508061236e576002611bbc565b600195945050505050565b600381600481111561238d5761238d613056565b0361239c575060029392505050565b5060009392505050565b6000806123b3858461272d565b905060018460028111156123c9576123c9613056565b14806123dc57506123da85846127e1565b155b156123f2576003015463ffffffff169050610cad565b60030154600160401b900463ffffffff169050610cad565b6000816001600160a01b031660a084600281111561242a5761242a613056565b901b179392505050565b600061244182600061284a565b50909392505050565b6000610cad8261245c6009600a613247565b8591905b60008082116124a45760405162461bcd60e51b815260206004820152601060248201526f4469766973696f6e206279207a65726f60801b6044820152606401610465565b836000036124b457506000610cad565b838302838582816124c7576124c7612fc7565b04036124e5578281816124dc576124dc612fc7565b04915050610cad565b5060006124f28386613253565b905060006125008487613267565b9050600061250e8587613253565b9050600061251c8688613267565b9050856125298285613133565b6125339190613253565b61253d8385613133565b6125478387613133565b886125528689613133565b61255c9190613133565b612566919061307f565b612570919061307f565b61257a919061307f565b98975050505050505050565b600481015460008051602061332c833981519152805460009260008051602061336c8339815191529291630100000090910461ffff1690811061153e5761153e6130a8565b60008060028360028111156125e2576125e2613056565b03612649576000806125f58660016125cb565b91509150600061261060008051602061336c83398151915290565b6009015463ffffffff600160b01b9091048116915061263390829084906126d016565b935061263f81846126d0565b9450505050612203565b600183600281111561265d5761265d613056565b036126985761266b84612586565b60030154600485015463ffffffff918216925061269191600160881b9091041682612a09565b9150612203565b6126a1846114fb565b60030154600485015463ffffffff91821692506126c791600160681b9091041682612a09565b91509250929050565b6000610cad8383612710612460565b6000806000806126ef8686612a18565b9150915060006126ff8388611d3e565b9050600061270d8389611d3e565b9050836040015194506127208282612a09565b9550505050509250929050565b6000600282600281111561274357612743613056565b036127505761275061311d565b60008051602061336c833981519152600083600281111561277357612773613056565b036127b35760048401546013820180549091610100900461ffff1690811061279d5761279d6130a8565b9060005260206000209060040201915050610c5a565b600484015460138201805490916301000000900461ffff1690811061279d5761279d6130a8565b5092915050565b6000808260028111156127f6576127f6613056565b0361281257506004820154600160f01b90046001161515610c5a565b600182600281111561282657612826613056565b146128335761283361311d565b506004820154600160f01b90046002161515610c5a565b6000806000806000806128e98860010180546128659061327b565b80601f01602080910402602001604051908101604052809291908181526020018280546128919061327b565b80156128de5780601f106128b3576101008083540402835291602001916128de565b820191906000526020600020905b8154815290600101906020018083116128c157829003601f168201915b505050505088612b7b565b8a549295509093509150600160f01b900460ff161561293057875460009061291f90600160a81b900460ff166001838786612cd7565b9650919450849350612a0292505050565b60008060006129cb8b60020180546129479061327b565b80601f01602080910402602001604051908101604052809291908181526020018280546129739061327b565b80156129c05780601f10612995576101008083540402835291602001916129c0565b820191906000526020600020905b8154815290600101906020018083116129a357829003601f168201915b50505050508b612b7b565b8d5492955090935091506000906129ef90600160a81b900460ff1685848a89612cd7565b9950949750909550612a02945050505050565b9250925092565b60008183116119ab5781610cad565b612a3d6040805160608101909152806000815260200160008152602001600081525090565b612a626040805160608101909152806000815260200160008152602001600081525090565b6000612a6e858561272d565b90506000612a7c8686612d5e565b90506000612a8983612da1565b612a94576000612b01565b82546040516370a0823160e01b81526001600160a01b038481166004830152909116906370a0823190602401602060405180830381865afa158015612add573d6000803e3d6000fd5b505050506040513d601f19601f82011682018060405250810190612b01919061314a565b9050600080612b0f85612dd5565b915091506040518060600160405280896002811115612b3057612b30613056565b81526020018481526020018381525096506040518060600160405280896002811115612b5e57612b5e613056565b815260200184815260200182815250955050505050509250929050565b7fec7e8c1c441439dd40959777f4c577ea0cd42fcc1dbe59d2bd0f5d9c55df8dbf546040516325f69abd60e21b81526000918291829160008051602061336c8339815191529183916001600160a01b0316906397da6af490612be1908a906004016132af565b602060405180830381865afa158015612bfe573d6000803e3d6000fd5b505050506040513d601f19601f82011682018060405250810190612c229190613039565b90508515612c9957806001600160a01b0316633cacb3ae6040518163ffffffff1660e01b8152600401606060405180830381865afa158015612c68573d6000803e3d6000fd5b505050506040513d601f19601f82011682018060405250810190612c8c91906132fd565b9450945094505050612a02565b806001600160a01b03166365f5cd866040518163ffffffff1660e01b8152600401606060405180830381865afa158015612c68573d6000803e3d6000fd5b600060008051602061336c833981519152816009612cf5878a61307f565b612cff919061307f565b6009830154909150600090612d1f908690600160a81b900460ff1661307f565b905080821015612d3157612d3161311d565b612d51612d3e828461306c565b612d4990600a613247565b87908a612460565b9998505050505050505050565b60006001826002811115612d7457612d74613056565b14612d925760008051602061334c833981519152831860401c610cad565b5050546001600160a01b031690565b8054600090600160b01b90046001600160401b03161580610c5a5750505442600160b01b9091046001600160401b03161190565b60008060008051602061336c833981519152818080612df4878261284a565b9250925092506000806000612e0a8a600161284a565b600c8a015492955090935091506000908590612e3690600160401b90046001600160401b03168461307f565b10158015612e635750600c8801548690612e6090600160401b90046001600160401b03168561307f565b10155b905086995080612e735786612e75565b835b98505050505050505050915091565b6001600160a01b03811681146114f857600080fd5b600060208284031215612eab57600080fd5b8135610cad81612e84565b60008060408385031215612ec957600080fd5b8235612ed481612e84565b91506020830135612ee481612e84565b809150509250929050565b600080600060608486031215612f0457600080fd5b8335612f0f81612e84565b92506020840135612f1f81612e84565b929592945050506040919091013590565b600080600060608486031215612f4557600080fd5b833560038110612f0f57600080fd5b60008060408385031215612f6757600080fd5b50508035926020909101359150565b604080825283519082018190526000906020906060840190828701845b82811015612fb85781516001600160a01b031684529284019290840190600101612f93565b50505092019290925292915050565b634e487b7160e01b600052601260045260246000fd5b60006001600160401b0380841680612ff757612ff7612fc7565b92169190910692915050565b634e487b7160e01b600052601160045260246000fd5b6001600160401b038281168282160390808211156127da576127da613003565b60006020828403121561304b57600080fd5b8151610cad81612e84565b634e487b7160e01b600052602160045260246000fd5b81810381811115610c5a57610c5a613003565b80820180821115610c5a57610c5a613003565b634e487b7160e01b600052604160045260246000fd5b634e487b7160e01b600052603260045260246000fd5b6000600182016130d0576130d0613003565b5060010190565b6001600160401b038181168382160190808211156127da576127da613003565b60006001600160401b0380831681810361311357613113613003565b6001019392505050565b634e487b7160e01b600052600160045260246000fd5b8082028115828204841417610c5a57610c5a613003565b60006020828403121561315c57600080fd5b5051919050565b600181815b8085111561319e57816000190482111561318457613184613003565b8085161561319157918102915b93841c9390800290613168565b509250929050565b6000826131b557506001610c5a565b816131c257506000610c5a565b81600181146131d857600281146131e2576131fe565b6001915050610c5a565b60ff8411156131f3576131f3613003565b50506001821b610c5a565b5060208310610133831016604e8410600b8410161715613221575081810a610c5a565b61322b8383613163565b806000190482111561323f5761323f613003565b029392505050565b6000610cad83836131a6565b60008261326257613262612fc7565b500490565b60008261327657613276612fc7565b500690565b600181811c9082168061328f57607f821691505b60208210810361103e57634e487b7160e01b600052602260045260246000fd5b600060208083528351808285015260005b818110156132dc578581018301518582016040015282016132c0565b506000604082860101526040601f19601f8301168501019250505092915050565b60008060006060848603121561331257600080fd5b835192506020840151915060408401519050925092509256feec7e8c1c441439dd40959777f4c577ea0cd42fcc1dbe59d2bd0f5d9c55df8dc95bebac0595fee029d42bb673937f5f1cb81cf8641382bc17774635de9b7d7965ec7e8c1c441439dd40959777f4c577ea0cd42fcc1dbe59d2bd0f5d9c55df8db6a2646970667358221220a09c44d8a4b5281139d7b5f335cb62f59983fe68fc39a2d2b71eae13560a577064736f6c63430008140033",
  "linkReferences": {},
  "deployedLinkReferences": {}
}