{
  "_format": "hh-sol-artifact-1",
  "contractName": "CollateralTokens",
  "sourceName": "contracts/fasset/library/CollateralTokens.sol",
  "abi": [
    {
      "inputs": [],
      "name": "getAllTokenInfos",
      "outputs": [
        {
          "components": [
            {
              "internalType": "enum IAssetManager.CollateralTokenClass",
              "name": "tokenClass",
              "type": "IAssetManager.CollateralTokenClass"
            },
            {
              "internalType": "contract IERC20",
              "name": "token",
              "type": "IERC20"
            },
            {
              "internalType": "uint256",
              "name": "decimals",
              "type": "uint256"
            },
            {
              "internalType": "uint256",
              "name": "validUntil",
              "type": "uint256"
            },
            {
              "internalType": "bool",
              "name": "directPricePair",
              "type": "bool"
            },
            {
              "internalType": "string",
              "name": "assetFtsoSymbol",
              "type": "string"
            },
            {
              "internalType": "string",
              "name": "tokenFtsoSymbol",
              "type": "string"
            },
            {
              "internalType": "uint256",
              "name": "minCollateralRatioBIPS",
              "type": "uint256"
            },
            {
              "internalType": "uint256",
              "name": "ccbMinCollateralRatioBIPS",
              "type": "uint256"
            },
            {
              "internalType": "uint256",
              "name": "safetyMinCollateralRatioBIPS",
              "type": "uint256"
            }
          ],
          "internalType": "struct IAssetManager.CollateralTokenInfo[]",
          "name": "_result",
          "type": "tuple[]"
        }
      ],
      "stateMutability": "view",
      "type": "function"
    },
    {
      "inputs": [
        {
          "internalType": "enum IAssetManager.CollateralTokenClass",
          "name": "_tokenClass",
          "type": "IAssetManager.CollateralTokenClass"
        },
        {
          "internalType": "contract IERC20",
          "name": "_token",
          "type": "IERC20"
        }
      ],
      "name": "getInfo",
      "outputs": [
        {
          "components": [
            {
              "internalType": "enum IAssetManager.CollateralTokenClass",
              "name": "tokenClass",
              "type": "IAssetManager.CollateralTokenClass"
            },
            {
              "internalType": "contract IERC20",
              "name": "token",
              "type": "IERC20"
            },
            {
              "internalType": "uint256",
              "name": "decimals",
              "type": "uint256"
            },
            {
              "internalType": "uint256",
              "name": "validUntil",
              "type": "uint256"
            },
            {
              "internalType": "bool",
              "name": "directPricePair",
              "type": "bool"
            },
            {
              "internalType": "string",
              "name": "assetFtsoSymbol",
              "type": "string"
            },
            {
              "internalType": "string",
              "name": "tokenFtsoSymbol",
              "type": "string"
            },
            {
              "internalType": "uint256",
              "name": "minCollateralRatioBIPS",
              "type": "uint256"
            },
            {
              "internalType": "uint256",
              "name": "ccbMinCollateralRatioBIPS",
              "type": "uint256"
            },
            {
              "internalType": "uint256",
              "name": "safetyMinCollateralRatioBIPS",
              "type": "uint256"
            }
          ],
          "internalType": "struct IAssetManager.CollateralTokenInfo",
          "name": "",
          "type": "tuple"
        }
      ],
      "stateMutability": "view",
      "type": "function"
    }
  ],
  "bytecode": "0x61199261003a600b82828239805160001a60731461002d57634e487b7160e01b600052600060045260246000fd5b30600052607381538281f3fe73000000000000000000000000000000000000000030146080604052600436106100875760003560e01c80638d19717a116100655780638d19717a146100f75780638d38cb2c1461010c578063e456a51d1461012c578063fd94d7a01461014c57600080fd5b80632cc7e2b21461008c57806346532e07146100ae5780634f27f8e7146100d7575b600080fd5b81801561009857600080fd5b506100ac6100a73660046114bd565b61016c565b005b6100c16100bc3660046114f1565b6101da565b6040516100ce9190611659565b60405180910390f35b8180156100e357600080fd5b506100ac6100f2366004611673565b610201565b6100ff610368565b6040516100ce91906116c0565b81801561011857600080fd5b506100ac6101273660046114bd565b61045d565b81801561013857600080fd5b506100ac610147366004611722565b6104cd565b81801561015857600080fd5b506100ac6101673660046117e4565b610682565b60028151600281111561018157610181611524565b146101cd5760405162461bcd60e51b81526020600482015260176024820152761b9bdd08184818db185cdccc4818dbdb1b185d195c985b604a1b60448201526064015b60405180910390fd5b6101d6816107e6565b5050565b6101e26111dd565b60006101ee8484610c5a565b90506101f981610d20565b949350505050565b6000826127101080156102145750838311155b80156102205750818411155b90508061026b5760405162461bcd60e51b8152602060048201526019602482015278696e76616c696420636f6c6c61746572616c20726174696f7360381b60448201526064016101c4565b60006102778787610c5a565b905061028285610efb565b60038201805463ffffffff191663ffffffff929092169190911790556102a784610efb565b8160030160046101000a81548163ffffffff021916908363ffffffff1602179055506102d283610efb565b8160030160086101000a81548163ffffffff021916908363ffffffff1602179055507f0cc80f30a71a15baa7a4ed8c3e42a30a341911892b134e5c1b50048d323e9da887600281111561032757610327611524565b6040805160ff90921682526001600160a01b03891660208301528101879052606081018690526080810185905260a00160405180910390a150505050505050565b7fec7e8c1c441439dd40959777f4c577ea0cd42fcc1dbe59d2bd0f5d9c55df8dc95460609060008051602061193d83398151915290806001600160401b038111156103b5576103b56112cc565b6040519080825280602002602001820160405280156103ee57816020015b6103db6111dd565b8152602001906001900390816103d35790505b50925060005b818110156104575761042783601301828154811061041457610414611820565b9060005260206000209060040201610d20565b84828151811061043957610439611820565b6020026020010181905250808061044f9061184c565b9150506103f4565b50505090565b60018151600281111561047257610472611524565b146104b75760405162461bcd60e51b81526020600482015260156024820152741b9bdd0818481c1bdbdb0818dbdb1b185d195c985b605a1b60448201526064016101c4565b60006104c2826107e6565b90506101d681610f64565b6002815110156105295760405162461bcd60e51b815260206004820152602160248201527f6174206c656173742074776f20636f6c6c61746572616c7320726571756972656044820152601960fa1b60648201526084016101c4565b60018160008151811061053e5761053e611820565b602002602001015160000151600281111561055b5761055b611524565b146105a85760405162461bcd60e51b815260206004820152601a60248201527f6e6f74206120706f6f6c20636f6c6c61746572616c206174203000000000000060448201526064016101c4565b6105cb816000815181106105be576105be611820565b60200260200101516107e6565b506105d66000610f64565b60015b81518110156101d65760028282815181106105f6576105f6611820565b602002602001015160000151600281111561061357610613611524565b1461065a5760405162461bcd60e51b81526020600482015260176024820152761b9bdd08184818db185cdccc4818dbdb1b185d195c985b604a1b60448201526064016101c4565b61066f8282815181106105be576105be611820565b508061067a8161184c565b9150506105d9565b60008051602061193d833981519152600061069d8585610c5a565b90506106a88161104f565b6106e65760405162461bcd60e51b815260206004820152600f60248201526e1d1bdad95b881b9bdd081d985b1a59608a1b60448201526064016101c4565b60118201546001600160401b03168310156107435760405162461bcd60e51b815260206004820152601960248201527f6465707265636174696f6e2074696d6520746f2073686f72740000000000000060448201526064016101c4565b600061074f8442611867565b905061075a81611087565b82546001600160401b0391909116600160b01b0267ffffffffffffffff60b01b199091161782557fb7eefc7cdc340604dd567970481c1a18a84f63d191ecc45cfd6120f0760d1d5b8660028111156107b4576107b4611524565b6040805160ff90921682526001600160a01b0388166020830152810183905260600160405180910390a1505050505050565b602081015160009060008051602061193d833981519152906001600160a01b03166108405760405162461bcd60e51b815260206004820152600a602482015269746f6b656e207a65726f60b01b60448201526064016101c4565b6000610854846000015185602001516110ef565b6000818152601484016020526040902054909150156108ac5760405162461bcd60e51b8152602060048201526014602482015273746f6b656e20616c72656164792065786973747360601b60448201526064016101c4565b6060840151156108fe5760405162461bcd60e51b815260206004820152601b60248201527f63616e6e6f7420616464206465707265636174656420746f6b656e000000000060448201526064016101c4565b600084610100015161271010801561091f57508460e0015185610100015111155b801561093457508461012001518560e0015111155b90508061097f5760405162461bcd60e51b8152602060048201526019602482015278696e76616c696420636f6c6c61746572616c20726174696f7360381b60448201526064016101c4565b6013830180546040805161014081019091526020808901516001600160a01b0316825288519293929082019060028111156109bc576109bc611524565b81526020016109ce8960400151611119565b60ff1681526020016109e38960600151611087565b6001600160401b031681526020018860800151151581526020018860a0015181526020018860c001518152602001610a1e8960e00151610efb565b63ffffffff168152602001610a37896101000151610efb565b63ffffffff168152602001610a50896101200151610efb565b63ffffffff16905281546001810183556000928352602092839020825160049092020180546001600160a01b031981166001600160a01b03909316928317825593830151929390929183916001600160a81b03191617600160a01b836002811115610abd57610abd611524565b021790555060408201518154606084015160808501511515600160f01b0260ff60f01b196001600160401b03909216600160b01b0267ffffffffffffffff60b01b1960ff909516600160a81b029490941668ffffffffffffffffff60a81b1990931692909217929092179190911617815560a08201518051610b4991600184019160209091019061123c565b5060c08201518051610b6591600284019160209091019061123c565b5060e0820151600390910180546101008401516101209094015163ffffffff908116600160401b026bffffffff0000000000000000199582166401000000000267ffffffffffffffff1990931691909416171792909216179055610bca816001611867565b600084815260148601602052604090205585517f8ec149361a93053fca7dd7ce11e969efc21ebee4504e633c2563e7a12108845f906002811115610c1057610c10611524565b876020015188608001518960a001518a60c001518b60e001518c61010001518d6101200151604051610c4998979695949392919061187f565b60405180910390a195945050505050565b600060008051602061193d833981519152817fec7e8c1c441439dd40959777f4c577ea0cd42fcc1dbe59d2bd0f5d9c55df8dca81610c9887876110ef565b815260200190815260200160002054905060008111610ce95760405162461bcd60e51b815260206004820152600d60248201526c3ab735b737bbb7103a37b5b2b760991b60448201526064016101c4565b60138201610cf86001836118ea565b81548110610d0857610d08611820565b90600052602060002090600402019250505092915050565b610d286111dd565b60408051610140810190915282548190600160a01b900460ff166002811115610d5357610d53611524565b815283546001600160a01b038116602083015260ff600160a81b8204811660408401526001600160401b03600160b01b8304166060840152600160f01b909104161515608082015260018401805460a090920191610db090611901565b80601f0160208091040260200160405190810160405280929190818152602001828054610ddc90611901565b8015610e295780601f10610dfe57610100808354040283529160200191610e29565b820191906000526020600020905b815481529060010190602001808311610e0c57829003601f168201915b50505050508152602001836002018054610e4290611901565b80601f0160208091040260200160405190810160405280929190818152602001828054610e6e90611901565b8015610ebb5780601f10610e9057610100808354040283529160200191610ebb565b820191906000526020600020905b815481529060010190602001808311610e9e57829003601f168201915b505050918352505060039093015463ffffffff8082166020860152640100000000820481166040860152600160401b909104166060909301929092525090565b600063ffffffff821115610f605760405162461bcd60e51b815260206004820152602660248201527f53616665436173743a2076616c756520646f65736e27742066697420696e203360448201526532206269747360d01b60648201526084016101c4565b5090565b7fec7e8c1c441439dd40959777f4c577ea0cd42fcc1dbe59d2bd0f5d9c55df8dc9805460008051602061193d8339815191529160009184908110610faa57610faa611820565b60009182526020909120600490910201905060018154600160a01b900460ff166002811115610fdb57610fdb611524565b146110285760405162461bcd60e51b815260206004820152601b60248201527f6e6f74206120706f6f6c20636f6c6c61746572616c20746f6b656e000000000060448201526064016101c4565b6110318361117a565b602392909201805461ffff191661ffff909316929092179091555050565b8054600090600160b01b90046001600160401b031615806110815750815442600160b01b9091046001600160401b0316115b92915050565b60006001600160401b03821115610f605760405162461bcd60e51b815260206004820152602660248201527f53616665436173743a2076616c756520646f65736e27742066697420696e203660448201526534206269747360d01b60648201526084016101c4565b6000816001600160a01b031660a084600281111561110f5761110f611524565b901b179392505050565b600060ff821115610f605760405162461bcd60e51b815260206004820152602560248201527f53616665436173743a2076616c756520646f65736e27742066697420696e2038604482015264206269747360d81b60648201526084016101c4565b600061ffff821115610f605760405162461bcd60e51b815260206004820152602660248201527f53616665436173743a2076616c756520646f65736e27742066697420696e203160448201526536206269747360d01b60648201526084016101c4565b604080516101408101909152806000815260200160006001600160a01b03168152602001600081526020016000815260200160001515815260200160608152602001606081526020016000815260200160008152602001600081525090565b82805461124890611901565b90600052602060002090601f01602090048101928261126a57600085556112b0565b82601f1061128357805160ff19168380011785556112b0565b828001600101855582156112b0579182015b828111156112b0578251825591602001919060010190611295565b50610f609291505b80821115610f6057600081556001016112b8565b634e487b7160e01b600052604160045260246000fd5b60405161014081016001600160401b0381118282101715611305576113056112cc565b60405290565b604051601f8201601f191681016001600160401b0381118282101715611333576113336112cc565b604052919050565b80356003811061134a57600080fd5b919050565b80356001600160a01b038116811461134a57600080fd5b8035801515811461134a57600080fd5b600082601f83011261138757600080fd5b81356001600160401b038111156113a0576113a06112cc565b6113b3601f8201601f191660200161130b565b8181528460208386010111156113c857600080fd5b816020850160208301376000918101602001919091529392505050565b600061014082840312156113f857600080fd5b6114006112e2565b905061140b8261133b565b81526114196020830161134f565b6020820152604082013560408201526060820135606082015261143e60808301611366565b608082015260a08201356001600160401b038082111561145d57600080fd5b61146985838601611376565b60a084015260c084013591508082111561148257600080fd5b5061148f84828501611376565b60c08301525060e082013560e082015261010080830135818301525061012080830135818301525092915050565b6000602082840312156114cf57600080fd5b81356001600160401b038111156114e557600080fd5b6101f9848285016113e5565b6000806040838503121561150457600080fd5b61150d8361133b565b915061151b6020840161134f565b90509250929050565b634e487b7160e01b600052602160045260246000fd5b6003811061155857634e487b7160e01b600052602160045260246000fd5b9052565b6000815180845260005b8181101561158257602081850181015186830182015201611566565b81811115611594576000602083870101525b50601f01601f19169290920160200192915050565b60006101406115b984845161153a565b60208301516115d360208601826001600160a01b03169052565b50604083015160408501526060830151606085015260808301516115fb608086018215159052565b5060a08301518160a08601526116138286018261155c565b91505060c083015184820360c086015261162d828261155c565b60e085810151908701526101008086015190870152610120948501519490950193909352509192915050565b60208152600061166c60208301846115a9565b9392505050565b600080600080600060a0868803121561168b57600080fd5b6116948661133b565b94506116a26020870161134f565b94979496505050506040830135926060810135926080909101359150565b6000602080830181845280855180835260408601915060408160051b870101925083870160005b8281101561171557603f198886030184526117038583516115a9565b945092850192908501906001016116e7565b5092979650505050505050565b6000602080838503121561173557600080fd5b82356001600160401b038082111561174c57600080fd5b818501915085601f83011261176057600080fd5b813581811115611772576117726112cc565b8060051b61178185820161130b565b918252838101850191858101908984111561179b57600080fd5b86860192505b838310156117d7578235858111156117b95760008081fd5b6117c78b89838a01016113e5565b83525091860191908601906117a1565b9998505050505050505050565b6000806000606084860312156117f957600080fd5b6118028461133b565b92506118106020850161134f565b9150604084013590509250925092565b634e487b7160e01b600052603260045260246000fd5b634e487b7160e01b600052601160045260246000fd5b600060001982141561186057611860611836565b5060010190565b6000821982111561187a5761187a611836565b500190565b60ff891681526001600160a01b03881660208201528615156040820152610100606082018190526000906118b58382018961155c565b905082810360808401526118c9818861155c565b60a0840196909652505060c081019290925260e09091015295945050505050565b6000828210156118fc576118fc611836565b500390565b600181811c9082168061191557607f821691505b6020821081141561193657634e487b7160e01b600052602260045260246000fd5b5091905056feec7e8c1c441439dd40959777f4c577ea0cd42fcc1dbe59d2bd0f5d9c55df8db6a2646970667358221220aa8bbffbafdb4e8d27fa0b2eac74ef6aa5227ec22f30e7699dbea3841f9e4d9f64736f6c634300080b0033",
  "linkReferences": {},
  "deployedLinkReferences": {}
}