{
  "_format": "hh-sol-artifact-1",
  "contractName": "RedemptionConfirmationsFacet",
  "sourceName": "contracts/assetManager/facets/RedemptionConfirmationsFacet.sol",
  "abi": [
    {
      "anonymous": false,
      "inputs": [
        {
          "indexed": true,
          "internalType": "address",
          "name": "agentVault",
          "type": "address"
        },
        {
          "indexed": false,
          "internalType": "uint256",
          "name": "dustUBA",
          "type": "uint256"
        }
      ],
      "name": "DustChanged",
      "type": "event"
    },
    {
      "anonymous": false,
      "inputs": [
        {
          "indexed": true,
          "internalType": "address",
          "name": "agentVault",
          "type": "address"
        },
        {
          "indexed": false,
          "internalType": "uint256",
          "name": "timestamp",
          "type": "uint256"
        }
      ],
      "name": "FullLiquidationStarted",
      "type": "event"
    },
    {
      "anonymous": false,
      "inputs": [
        {
          "indexed": true,
          "internalType": "address",
          "name": "agentVault",
          "type": "address"
        }
      ],
      "name": "LiquidationEnded",
      "type": "event"
    },
    {
      "anonymous": false,
      "inputs": [
        {
          "indexed": true,
          "internalType": "address",
          "name": "agentVault",
          "type": "address"
        },
        {
          "indexed": true,
          "internalType": "address",
          "name": "redeemer",
          "type": "address"
        },
        {
          "indexed": true,
          "internalType": "uint64",
          "name": "requestId",
          "type": "uint64"
        },
        {
          "indexed": false,
          "internalType": "uint256",
          "name": "redemptionAmountUBA",
          "type": "uint256"
        },
        {
          "indexed": false,
          "internalType": "uint256",
          "name": "redeemedVaultCollateralWei",
          "type": "uint256"
        },
        {
          "indexed": false,
          "internalType": "uint256",
          "name": "redeemedPoolCollateralWei",
          "type": "uint256"
        }
      ],
      "name": "RedemptionDefault",
      "type": "event"
    },
    {
      "anonymous": false,
      "inputs": [
        {
          "indexed": true,
          "internalType": "address",
          "name": "agentVault",
          "type": "address"
        },
        {
          "indexed": true,
          "internalType": "address",
          "name": "redeemer",
          "type": "address"
        },
        {
          "indexed": true,
          "internalType": "uint64",
          "name": "requestId",
          "type": "uint64"
        },
        {
          "indexed": false,
          "internalType": "bytes32",
          "name": "transactionHash",
          "type": "bytes32"
        },
        {
          "indexed": false,
          "internalType": "uint256",
          "name": "redemptionAmountUBA",
          "type": "uint256"
        },
        {
          "indexed": false,
          "internalType": "int256",
          "name": "spentUnderlyingUBA",
          "type": "int256"
        }
      ],
      "name": "RedemptionPaymentBlocked",
      "type": "event"
    },
    {
      "anonymous": false,
      "inputs": [
        {
          "indexed": true,
          "internalType": "address",
          "name": "agentVault",
          "type": "address"
        },
        {
          "indexed": true,
          "internalType": "address",
          "name": "redeemer",
          "type": "address"
        },
        {
          "indexed": true,
          "internalType": "uint64",
          "name": "requestId",
          "type": "uint64"
        },
        {
          "indexed": false,
          "internalType": "bytes32",
          "name": "transactionHash",
          "type": "bytes32"
        },
        {
          "indexed": false,
          "internalType": "int256",
          "name": "spentUnderlyingUBA",
          "type": "int256"
        },
        {
          "indexed": false,
          "internalType": "string",
          "name": "failureReason",
          "type": "string"
        }
      ],
      "name": "RedemptionPaymentFailed",
      "type": "event"
    },
    {
      "anonymous": false,
      "inputs": [
        {
          "indexed": true,
          "internalType": "address",
          "name": "agentVault",
          "type": "address"
        },
        {
          "indexed": true,
          "internalType": "address",
          "name": "redeemer",
          "type": "address"
        },
        {
          "indexed": true,
          "internalType": "uint64",
          "name": "requestId",
          "type": "uint64"
        },
        {
          "indexed": false,
          "internalType": "bytes32",
          "name": "transactionHash",
          "type": "bytes32"
        },
        {
          "indexed": false,
          "internalType": "uint256",
          "name": "redemptionAmountUBA",
          "type": "uint256"
        },
        {
          "indexed": false,
          "internalType": "int256",
          "name": "spentUnderlyingUBA",
          "type": "int256"
        }
      ],
      "name": "RedemptionPerformed",
      "type": "event"
    },
    {
      "anonymous": false,
      "inputs": [
        {
          "indexed": true,
          "internalType": "address",
          "name": "agentVault",
          "type": "address"
        },
        {
          "indexed": true,
          "internalType": "uint256",
          "name": "redemptionTicketId",
          "type": "uint256"
        },
        {
          "indexed": false,
          "internalType": "uint256",
          "name": "ticketValueUBA",
          "type": "uint256"
        }
      ],
      "name": "RedemptionTicketCreated",
      "type": "event"
    },
    {
      "anonymous": false,
      "inputs": [
        {
          "indexed": true,
          "internalType": "address",
          "name": "agentVault",
          "type": "address"
        },
        {
          "indexed": true,
          "internalType": "uint256",
          "name": "redemptionTicketId",
          "type": "uint256"
        },
        {
          "indexed": false,
          "internalType": "uint256",
          "name": "ticketValueUBA",
          "type": "uint256"
        }
      ],
      "name": "RedemptionTicketUpdated",
      "type": "event"
    },
    {
      "anonymous": false,
      "inputs": [
        {
          "indexed": true,
          "internalType": "address",
          "name": "agentVault",
          "type": "address"
        },
        {
          "indexed": true,
          "internalType": "uint256",
          "name": "transferRedemptionRequestId",
          "type": "uint256"
        },
        {
          "indexed": false,
          "internalType": "uint256",
          "name": "valueUBA",
          "type": "uint256"
        }
      ],
      "name": "TransferToCoreVaultSuccessful",
      "type": "event"
    },
    {
      "anonymous": false,
      "inputs": [
        {
          "indexed": true,
          "internalType": "address",
          "name": "agentVault",
          "type": "address"
        },
        {
          "indexed": false,
          "internalType": "int256",
          "name": "underlyingBalanceUBA",
          "type": "int256"
        }
      ],
      "name": "UnderlyingBalanceChanged",
      "type": "event"
    },
    {
      "anonymous": false,
      "inputs": [
        {
          "indexed": true,
          "internalType": "address",
          "name": "agentVault",
          "type": "address"
        },
        {
          "indexed": false,
          "internalType": "int256",
          "name": "balance",
          "type": "int256"
        },
        {
          "indexed": false,
          "internalType": "uint256",
          "name": "requiredBalance",
          "type": "uint256"
        }
      ],
      "name": "UnderlyingBalanceTooLow",
      "type": "event"
    },
    {
      "inputs": [
        {
          "components": [
            {
              "internalType": "bytes32[]",
              "name": "merkleProof",
              "type": "bytes32[]"
            },
            {
              "components": [
                {
                  "internalType": "bytes32",
                  "name": "attestationType",
                  "type": "bytes32"
                },
                {
                  "internalType": "bytes32",
                  "name": "sourceId",
                  "type": "bytes32"
                },
                {
                  "internalType": "uint64",
                  "name": "votingRound",
                  "type": "uint64"
                },
                {
                  "internalType": "uint64",
                  "name": "lowestUsedTimestamp",
                  "type": "uint64"
                },
                {
                  "components": [
                    {
                      "internalType": "bytes32",
                      "name": "transactionId",
                      "type": "bytes32"
                    },
                    {
                      "internalType": "uint256",
                      "name": "inUtxo",
                      "type": "uint256"
                    },
                    {
                      "internalType": "uint256",
                      "name": "utxo",
                      "type": "uint256"
                    }
                  ],
                  "internalType": "struct IPayment.RequestBody",
                  "name": "requestBody",
                  "type": "tuple"
                },
                {
                  "components": [
                    {
                      "internalType": "uint64",
                      "name": "blockNumber",
                      "type": "uint64"
                    },
                    {
                      "internalType": "uint64",
                      "name": "blockTimestamp",
                      "type": "uint64"
                    },
                    {
                      "internalType": "bytes32",
                      "name": "sourceAddressHash",
                      "type": "bytes32"
                    },
                    {
                      "internalType": "bytes32",
                      "name": "sourceAddressesRoot",
                      "type": "bytes32"
                    },
                    {
                      "internalType": "bytes32",
                      "name": "receivingAddressHash",
                      "type": "bytes32"
                    },
                    {
                      "internalType": "bytes32",
                      "name": "intendedReceivingAddressHash",
                      "type": "bytes32"
                    },
                    {
                      "internalType": "int256",
                      "name": "spentAmount",
                      "type": "int256"
                    },
                    {
                      "internalType": "int256",
                      "name": "intendedSpentAmount",
                      "type": "int256"
                    },
                    {
                      "internalType": "int256",
                      "name": "receivedAmount",
                      "type": "int256"
                    },
                    {
                      "internalType": "int256",
                      "name": "intendedReceivedAmount",
                      "type": "int256"
                    },
                    {
                      "internalType": "bytes32",
                      "name": "standardPaymentReference",
                      "type": "bytes32"
                    },
                    {
                      "internalType": "bool",
                      "name": "oneToOne",
                      "type": "bool"
                    },
                    {
                      "internalType": "uint8",
                      "name": "status",
                      "type": "uint8"
                    }
                  ],
                  "internalType": "struct IPayment.ResponseBody",
                  "name": "responseBody",
                  "type": "tuple"
                }
              ],
              "internalType": "struct IPayment.Response",
              "name": "data",
              "type": "tuple"
            }
          ],
          "internalType": "struct IPayment.Proof",
          "name": "_payment",
          "type": "tuple"
        },
        {
          "internalType": "uint256",
          "name": "_redemptionRequestId",
          "type": "uint256"
        }
      ],
      "name": "confirmRedemptionPayment",
      "outputs": [],
      "stateMutability": "nonpayable",
      "type": "function"
    }
  ],
  "bytecode": "0x608060405234801561001057600080fd5b50614650806100206000396000f3fe608060405234801561001057600080fd5b506004361061002b5760003560e01c8063bf9a243814610030575b600080fd5b61004361003e366004613f30565b610045565b005b61004d61008c565b61005f8261005a8361010a565b610176565b61008860017f0cd2207518cd3e5213e2c6dbe63d55b60aa893c194a427b7d7f1600408fd5bde55565b5050565b7f0cd2207518cd3e5213e2c6dbe63d55b60aa893c194a427b7d7f1600408fd5bde8054600119016101045760405162461bcd60e51b815260206004820152601f60248201527f5265656e7472616e637947756172643a207265656e7472616e742063616c6c0060448201526064015b60405180910390fd5b60029055565b60006001600160401b038211156101725760405162461bcd60e51b815260206004820152602660248201527f53616665436173743a2076616c756520646f65736e27742066697420696e203660448201526534206269747360d01b60648201526084016100fb565b5090565b6000610181826106f2565b600481015490915060009061019e906001600160a01b03166107d4565b905060006101ac8233610875565b905080806101c057506101c0828487610949565b6102055760405162461bcd60e51b815260206004820152601660248201527537b7363c9030b3b2b73a103b30bab63a1037bbb732b960511b60448201526064016100fb565b60068301546001600160401b0316156102705760405162461bcd60e51b815260206004820152602760248201527f72656a656374656420726564656d7074696f6e2063616e6e6f7420626520636f6044820152661b999a5c9b595960ca1b60648201526084016100fb565b610279856109d6565b67232128293320800160c11b6001600160401b03851617610240860135146102e35760405162461bcd60e51b815260206004820152601c60248201527f696e76616c696420726564656d7074696f6e207265666572656e63650000000060448201526064016100fb565b60028301546001600160401b031661030361012087016101008801613f91565b6001600160401b0316101561035a5760405162461bcd60e51b815260206004820152601a60248201527f726564656d7074696f6e207061796d656e7420746f6f206f6c6400000000000060448201526064016100fb565b6000806103678588610ba3565b91509150811561051f5760016004860154600160a01b900460ff16600281111561039357610393613fac565b146103a0576103a0613fc2565b6103d3848660020160189054906101000a90046001600160401b03168760040160159054906101000a900460ff16610e12565b60006103e76102a089016102808a01613fe9565b60ff1603610495576003850154600486015460018701546040805160a08c013581526001600160801b0390921660208301526101c08b0135908201526001600160401b038916926001600160a01b039081169216907f80b49fdd7580ee833ccd36349a80427cff16f09d4520f8a2b49983e6b106b5da9060600160405180910390a4600885015460ff16156104905760048501546104909088906001600160a01b031688610f08565b610510565b6003850154600486015460018701546040805160a08c013581526001600160801b0390921660208301526101c08b0135908201526001600160401b038916926001600160a01b039081169216907ffb906fe496d7cd76f9cb7fc32a500151904d485c60ca47eddf28658c1b91dfb19060600160405180910390a45b61051a8486610ffa565b610647565b6003840154610140880135146105905760405162461bcd60e51b815260206004820152603060248201527f636f6e6669726d206661696c6564207061796d656e74206f6e6c792066726f6d60448201526f206167656e742773206164647265737360801b60648201526084016100fb565b60016004860154600160a01b900460ff1660028111156105b2576105b2613fac565b036105de57600885015460ff16156105d3576105ce8486611135565b6105de565b6105de848688611188565b600385015460048601546040516001600160401b038916926001600160a01b039081169216907f1d10df0b0434a3335f99483eee41a4f643f9a967c5bcef37b65b85e77b7f3bef9061063e9060a08d0135906101c08e013590889061404a565b60405180910390a45b61065e846106596101c08a013561407f565b6112d4565b6000805160206145fb8339815191526106977fec7e8c1c441439dd40959777f4c577ea0cd42fcc1dbe59d2bd0f5d9c55df8dc18961140f565b836106cd576106cb85336106c6826000805160206145db833981519152600f01546001600160801b031661144b565b61145f565b505b6106d686611569565b6106df85611637565b6106e887611724565b5050505050505050565b60006000805160206145fb8339815191526001600160401b03831682036107505760405162461bcd60e51b81526020600482015260126024820152711a5b9d985b1a59081c995c5d595cdd081a5960721b60448201526064016100fb565b6001600160401b0383166000908152600a82016020526040812092506004830154600160a01b900460ff16600281111561078c5761078c613fac565b036107ce5760405162461bcd60e51b81526020600482015260126024820152711a5b9d985b1a59081c995c5d595cdd081a5960721b60448201526064016100fb565b50919050565b7f5bebac0595fee029d42bb673937f5f1cb81cf8641382bc17774635de9b7d796568010000000000000000600160e01b03604083901b161880600060048084015460ff169081111561082857610828613fac565b036107ce5760405162461bcd60e51b815260206004820152601b60248201527f696e76616c6964206167656e74207661756c742061646472657373000000000060448201526064016100fb565b60018201546000906001600160a01b0390811690831681148061093f57507f4f24f5c433db0962dac0d2c8b84197a6e6c7cc4e5d9ebe1916a1b6193da2f341546001600160a01b0316604051631f86345d60e31b81526001600160a01b038381166004830152919091169063fc31a2e890602401602060405180830381865afa158015610906573d6000803e3d6000fd5b505050506040513d601f19601f8201168201806040525081019061092a919061409b565b6001600160a01b0316836001600160a01b0316145b9150505b92915050565b7f4f24f5c433db0962dac0d2c8b84197a6e6c7cc4e5d9ebe1916a1b6193da2f3485460038301546000916000805160206145db833981519152916109a791600160901b90046001600160401b0390811691600160a01b9004166140c4565b6001600160401b031642116109c05760009150506109cf565b50506003830154610140820135145b9392505050565b7f4f24f5c433db0962dac0d2c8b84197a6e6c7cc4e5d9ebe1916a1b6193da2f342547f4f24f5c433db0962dac0d2c8b84197a6e6c7cc4e5d9ebe1916a1b6193da2f345546000805160206145db833981519152916001600160a01b031690604084013514610a765760405162461bcd60e51b815260206004820152600d60248201526c34b73b30b634b21031b430b4b760991b60448201526064016100fb565b60405163a7a3797560e01b81526001600160a01b0382169063a7a3797590610aa2908690600401614227565b602060405180830381865afa158015610abf573d6000803e3d6000fd5b505050506040513d601f19601f82011682018060405250810190610ae391906142ba565b610b2f5760405162461bcd60e51b815260206004820152601860248201527f6c6567616c207061796d656e74206e6f742070726f766564000000000000000060448201526064016100fb565b610b52610b4461014085016101208601613f91565b6001600160401b03166117f1565b610b9e5760405162461bcd60e51b815260206004820152601c60248201527f7665726966696564207472616e73616374696f6e20746f6f206f6c640000000060448201526064016100fb565b505050565b60018201546000906060908290610bcc906001600160801b03600160801b8204811691166142d7565b90506001610be26102a086016102808701613fe9565b60ff1603610c1e5750506040805180820190915260128152711d1c985b9cd858dd1a5bdb8819985a5b195960721b602082015260009150610e0b565b845461018085013514610c635750506040805180820190915260168152756e6f742072656465656d65722773206164647265737360501b602082015260009150610e0b565b610200840135811315610cd0576002610c846102a086016102808701613fe9565b60ff1614610ccb57505060408051808201909152601c81527f726564656d7074696f6e207061796d656e7420746f6f20736d616c6c00000000602082015260009150610e0b565b610df5565b600885015460ff16158015610d1257506002850154600160401b90046001600160401b0316610d0761012086016101008701613f91565b6001600160401b0316115b8015610d4b57506002850154600160801b90046001600160401b0316610d4061014086016101208701613f91565b6001600160401b0316115b15610d8f57505060408051808201909152601b81527f726564656d7074696f6e207061796d656e7420746f6f206c6174650000000000602082015260009150610e0b565b60026004860154600160a01b900460ff166002811115610db157610db1613fac565b03610df557505060408051808201909152601c81527f726564656d7074696f6e20616c72656164792064656661756c74656400000000602082015260009150610e0b565b5050604080516020810190915260008152600191505b9250929050565b610e608360050160109054906101000a90046001600160401b031683604051806040016040528060148152602001736e6f7420656e6f7567682072656465656d696e6760601b815250611814565b8360050160106101000a8154816001600160401b0302191690836001600160401b0316021790555080610b9e57610edb8360050160189054906101000a90046001600160401b031683604051806040016040528060148152602001736e6f7420656e6f7567682072656465656d696e6760601b815250611814565b8360050160186101000a8154816001600160401b0302191690836001600160401b03160217905550505050565b610f1061185f565b7f908500188c8f91f50d58dffac83eda18fc06d9da0208fc6b66c78a4c3fec74f28054604051630da7a59560e31b81526001600160a01b0390911690636d3d2ca890610f60908790600401614227565b600060405180830381600087803b158015610f7a57600080fd5b505af1158015610f8e573d6000803e3d6000fd5b5060009250610fa49150506102008601356118d3565b9050826001600160401b0316846001600160a01b03167f312f6f8967bb430e84de79db107c9118070da08cf521286593df37852612499383604051610feb91815260200190565b60405180910390a35050505050565b6008810154600182015460009161102a91600160801b90046001600160801b031690610100900461ffff16611925565b90508015610b9e576110448361103f83611934565b61198c565b7f4f24f5c433db0962dac0d2c8b84197a6e6c7cc4e5d9ebe1916a1b6193da2f33b546001600160a01b031683546040516340c10f1960e01b81526001600160a01b039182166004820152602481018490529116906340c10f1990604401600060405180830381600087803b1580156110bb57600080fd5b505af11580156110cf573d6000803e3d6000fd5b5050845460405163542a535160e11b8152600481018590526001600160a01b03909116925063a854a6a29150602401600060405180830381600087803b15801561111857600080fd5b505af115801561112c573d6000803e3d6000fd5b50505050505050565b611168828260020160189054906101000a90046001600160401b03168360040160159054906101000a900460ff16610e12565b6002810154610088908390600160c01b90046001600160401b031661198c565b60016004830154600160a01b900460ff1660028111156111aa576111aa613fac565b146111b7576111b7613fc2565b600882015460ff16156111cc576111cc613fc2565b6000806111d98585611a1b565b600386015491935091506111f89086906001600160a01b03168461145f565b50801561121c57600384015461121a9086906001600160a01b03168380611c3a565b505b61124f858560020160189054906101000a90046001600160401b03168660040160159054906101000a900460ff16610e12565b60038401546001600160401b038416906001600160a01b031661127187611d40565b6001870154604080516001600160801b0390921682526020820187905281018590526001600160a01b0391909116907f3d88a018be66851f57adfd6fde7c19c103407f95df0b7c2640baf28a0330c6949060600160405180910390a45050505050565b60068201546000906112f1908390600160401b9004600f0b6142ea565b905060006112fe84611d68565b905061130981611e0b565b82121561136d5761131984611d40565b6001600160a01b03167f3232fdbb55664d655aff08d1cc31318b51047d1178a5cea499006d9f9d4c07ae838360405161135c929190918252602082015260400190565b60405180910390a261136d84611e75565b61137682611f84565b6006850180546001600160801b0392909216600160401b0277ffffffffffffffffffffffffffffffff0000000000000000199092169190911790556113ba84611d40565b6006850154604051600160401b909104600f0b81526001600160a01b0391909116907f73da6891cb86668451f612d2555e88650888a0133a30b1d226b2d1f955e62bca9060200160405180910390a250505050565b6040805161014083013560208083019190915260a08401358284015282518083038401815260609092019092528051910120610b9e8382611fad565b60006109cf8261145a85612076565b6120c3565b60008061146b85612076565b9050600061147886611d40565b82546040516370a0823160e01b81526001600160a01b0380841660048301529293506114f192879216906370a0823190602401602060405180830381865afa1580156114c8573d6000803e3d6000fd5b505050506040513d601f19601f820116820180604052508101906114ec9190614312565b6121cd565b825460405163083e007560e21b81526001600160a01b0391821660048201528782166024820152604481018390529194508216906320f801d490606401600060405180830381600087803b15801561154857600080fd5b505af115801561155c573d6000803e3d6000fd5b5050505050509392505050565b6005810154600160a01b90046001600160401b03166000036115885750565b60058101546001600160a01b031633036115d95760058101546115d4906001600160a01b038116906115cf90633b9aca0090600160a01b90046001600160401b031661432b565b6121e3565b611620565b6005810154600160a01b90046001600160401b0316156116205760058101546116209061161b90633b9aca0090600160a01b90046001600160401b031661432b565b61228c565b600501805467ffffffffffffffff60a01b19169055565b600260048083015460ff169081111561165257611652613fac565b1461165a5750565b6000611665826122f3565b9050600061167283612367565b9050600061168284836000612444565b9050600061169285846001612444565b9050818460000151101580156116ac575080846020015110155b1561171d576004850180547fff00000000000000000000ffffffffffffffffffffffffffffffffffffffff001660011790556116e785611d40565b6001600160a01b03167fe513b42585b0ceec0d56d56fe3a23861c15a2f74eb4c32c94334d63d68ff4dcf60405160405180910390a25b5050505050565b61172d816124a8565b6001600160401b03811660009081527fec7e8c1c441439dd40959777f4c577ea0cd42fcc1dbe59d2bd0f5d9c55df8dc06020526040812081815560018101829055600281018290556003810180546001600160e01b03199081169091556004820180546001600160b01b031916905560058201805490911690556006810180546fffffffffffffffffffffffffffffffff191690556000805160206145fb833981519152916117df6007830182613ee6565b50600801805462ffffff191690555050565b6000611801600e6201518061432b565b61180b90426142d7565b90911015919050565b6000826001600160401b0316846001600160401b03161015829061184b5760405162461bcd60e51b81526004016100fb9190614342565b5050506001600160401b0390811691160390565b7f908500188c8f91f50d58dffac83eda18fc06d9da0208fc6b66c78a4c3fec74f280546001600160a01b03166118d05760405162461bcd60e51b815260206004820152601660248201527518dbdc99481d985d5b1d081b9bdd08195b98589b195960521b60448201526064016100fb565b50565b6000808212156101725760405162461bcd60e51b815260206004820181905260248201527f53616665436173743a2076616c7565206d75737420626520706f73697469766560448201526064016100fb565b60006109cf8383612710612519565b7f4f24f5c433db0962dac0d2c8b84197a6e6c7cc4e5d9ebe1916a1b6193da2f346546000906000805160206145db833981519152906109cf9061198790600160901b90046001600160401b03168561436b565b61010a565b60068201546000805160206145db833981519152906000906119b89084906001600160401b03166140c4565b600d8301549091506000906119d6906001600160401b03168361437f565b905060006119e482846143a5565b90506119f0868661263f565b6001600160401b03811615611a0957611a0986826126ad565b611a13868361283a565b505050505050565b6000806000805160206145db83398151915281611a37866128d0565b6002860154909150600090611a5f9083908990600160c01b90046001600160401b03166129b1565b6004870154909150600160a81b900460ff1615611ab15760028601546040830151611a9a91600160c01b90046001600160401b031690612a6e565b945060009350611aaa85826121cd565b9450611c30565b60068601546001600160401b03161515611b2d81611ae057600e850154600160501b900463ffffffff16611af3565b6018850154600160901b900463ffffffff165b63ffffffff16611b278960020160189054906101000a90046001600160401b03166001600160401b03168660400151612a6e565b90611925565b95506000611b3a89612a88565b9050611ba282611b5b57600e860154600160701b900463ffffffff16611b6e565b6018860154600160b01b900463ffffffff165b63ffffffff16611b278a60020160189054906101000a90046001600160401b03166001600160401b03168460400151612a6e565b6002890154909650600090611bca9083908c90600160c01b90046001600160401b03166129b1565b905083881115611c20576000611bff611be3868b6142d7565b60028c0154600160c01b90046001600160401b0316908b612b03565b9050611c0f818460400151612a6e565b611c1990896143c5565b9750849850505b611c2a87826121cd565b96505050505b5050509250929050565b600080611c45612b40565b86546040516370a0823160e01b81526001600160a01b0391821660048201529116906370a0823190602401602060405180830381865afa158015611c8d573d6000803e3d6000fd5b505050506040513d601f19601f82011682018060405250810190611cb19190614312565b9050611cbd84826121cd565b9150611cc983836121cd565b865460405163adf58c1560e01b81526001600160a01b038881166004830152602482018690526044820184905292955091169063adf58c1590606401600060405180830381600087803b158015611d1f57600080fd5b505af1158015611d33573d6000803e3d6000fd5b5050505050949350505050565b7f5bebac0595fee029d42bb673937f5f1cb81cf8641382bc17774635de9b7d79651860401c90565b7f4f24f5c433db0962dac0d2c8b84197a6e6c7cc4e5d9ebe1916a1b6193da2f3465460058201546000916000805160206145db833981519152918391600160901b90046001600160401b0390811691611dd291600160801b8204811691600160401b9004166140c4565b6001600160401b0316611de5919061432b565b600d830154909150611e03908290600160401b900461ffff16611925565b949350505050565b60006001600160ff1b038211156101725760405162461bcd60e51b815260206004820152602860248201527f53616665436173743a2076616c756520646f65736e27742066697420696e2061604482015267371034b73a191a9b60c11b60648201526084016100fb565b600360048083015460ff1690811115611e9057611e90613fac565b1480611eb2575060048181015460ff1681811115611eb057611eb0613fac565b145b15611eba5750565b6000611ec582612367565b90506002816002811115611edb57611edb613fac565b14611f2657611ee94261010a565b6004830180546001600160401b0392909216600160a81b0260ff60e81b191668ffffffffffffffffff60a81b1990921691909117600160e91b1790555b60048201805460ff19166003179055611f3e82611d40565b6001600160a01b03167fa3bf539465c1a8746950e123769affaff9097155e9e8cb9e079e1d55d6ba349742604051611f7891815260200190565b60405180910390a25050565b80600f81900b8114611fa85760405162461bcd60e51b81526004016100fb906143d8565b919050565b600081815260208390526040902054156120095760405162461bcd60e51b815260206004820152601960248201527f7061796d656e7420616c726561647920636f6e6669726d65640000000000000060448201526064016100fb565b6000612018620151804261436b565b6000818152600185016020526040812054919250819003612039578261203b565b805b600084815260208681526040808320939093558482526001870190529081208490556002850154900361207057600284018290555b50505050565b6000806000805160206145fb83398151915260048401548154919250829161010090910461ffff169081106120ad576120ad61441f565b9060005260206000209060040201915050919050565b60008160020180546120d490614435565b90506000036120e4575081610943565b60008061217e8460020180546120f990614435565b80601f016020809104026020016040519081016040528092919081815260200182805461212590614435565b80156121725780601f1061214757610100808354040283529160200191612172565b820191906000526020600020905b81548152906001019060200180831161215557829003601f168201915b50505050506000612bad565b86549294509250600091600591506121a1908490600160a81b900460ff166143c5565b6121ab91906142d7565b90506121c36121bb82600a61454d565b879085612519565b9695505050505050565b60008183106121dc57816109cf565b5090919050565b6121eb612ca2565b8015610088576000826001600160a01b031682620186a090604051600060405180830381858888f193505050503d8060008114612244576040519150601f19603f3d011682016040523d82523d6000602084013e612249565b606091505b5050905080610b9e5760405162461bcd60e51b815260206004820152600f60248201526e1d1c985b9cd9995c8819985a5b1959608a1b60448201526064016100fb565b7f4f24f5c433db0962dac0d2c8b84197a6e6c7cc4e5d9ebe1916a1b6193da2f343546040516000805160206145db833981519152916001600160a01b0316906108fc8415029084906000818181858888f19350505050158015610b9e573d6000803e3d6000fd5b61231e6040518060800160405280600081526020016000815260200160008152602001600081525090565b60008061232c846000612d15565b9150915060008061233e866001612d15565b604080516080810182529687526020870192909252908501939093525050606082015292915050565b6000806000805160206145db833981519152600484015490915060ff16600281600481111561239857612398613fac565b0361241757600060016004860154600160e81b900460ff1660028111156123c1576123c1613fac565b1480156123fd5750601183015460048601546123f0916001600160401b0390811691600160a81b9004166140c4565b6001600160401b03164211155b90508061240b57600261240e565b60015b95945050505050565b600381600481111561242b5761242b613fac565b0361243a575060029392505050565b5060009392505050565b6000806124518584612d63565b9050600184600281111561246757612467613fac565b148061247a57506124788584612e0f565b155b15612490576003015463ffffffff1690506109cf565b60030154600160401b900463ffffffff1690506109cf565b60006124b3826106f2565b600881015490915060ff16156100885760048101546000906124dd906001600160a01b03166107d4565b600c8101549091506001600160401b038085166401000000009092041603610b9e57600c0180546bffffffffffffffff00000000191690555050565b600080821161255d5760405162461bcd60e51b815260206004820152601060248201526f4469766973696f6e206279207a65726f60801b60448201526064016100fb565b8360000361256d575060006109cf565b8383028385828161258057612580614355565b040361259e5782818161259557612595614355565b049150506109cf565b5060006125ab838661436b565b905060006125b98487614559565b905060006125c7858761436b565b905060006125d58688614559565b9050856125e2828561432b565b6125ec919061436b565b6125f6838561432b565b612600838761432b565b8861260b868961432b565b612615919061432b565b61261f91906143c5565b61262991906143c5565b61263391906143c5565b98975050505050505050565b600582015461265f908290600160401b90046001600160401b03166140c4565b8260050160086101000a8154816001600160401b0302191690836001600160401b0316021790555061008861269383611d40565b6005840154600160401b90046001600160401b0316612e78565b6000805160206145fb83398151915260006126c784611d40565b6009830154600160401b90046001600160401b031660008181526007850160205260409020805492935090916001600160a01b038085169116036127c457805485908290601490612729908490600160a01b90046001600160401b03166140c4565b92506101000a8154816001600160401b0302191690836001600160401b03160217905550600061276f8260000160149054906101000a90046001600160401b0316612ec4565b9050826001600160401b0316846001600160a01b03167f9d2e72c50be7927e999d37329649af37a863df77bcb25361699ce021d3d7475d836040516127b691815260200190565b60405180910390a350611a13565b60006127d4600786018588612f17565b905060006127e187612ec4565b9050816001600160401b0316856001600160a01b03167f631f8f2039090539b2ea4ef7dc567f7f1939ef4dd3e790b1ca7bc548a1fada588360405161282891815260200190565b60405180910390a35050505050505050565b60068201546001600160401b03808316911603612855575050565b60068201805467ffffffffffffffff19166001600160401b038316179055600061287e82612ec4565b905061288983611d40565b6001600160a01b03167fa3db2bc927901a1d3ba09ad51d84609457b98443be9132a0a936a47c5a1081b5826040516128c391815260200190565b60405180910390a2505050565b6128f56040805160608101909152806000815260200160008152602001600081525090565b600061290083612076565b60408051606081019091526000815281549192509060208201906001600160a01b03166370a0823161293187611d40565b6040516001600160e01b031960e084901b1681526001600160a01b0390911660048201526024015b602060405180830381865afa158015612976573d6000803e3d6000fd5b505050506040513d601f19601f8201168201806040525081019061299a9190614312565b81526020016129a883613320565b90529392505050565b6000816000036129c3575060006109cf565b60006001855160028111156129da576129da613fac565b146129f9576005840154600160801b90046001600160401b0316612a0f565b6005840154600160c01b90046001600160401b03165b6001600160401b0316905080831115612a2a57612a2a613fc2565b60058401546000908290612a51906001600160401b0380821691600160401b9004166143c5565b612a5b91906143c5565b60208701519091506121c3908583612519565b60006109cf82612a806009600a61454d565b859190612519565b612aad6040805160608101909152806000815260200160008152602001600081525090565b6000612ab883613336565b60408051606081019091529091508060018152825485546040516370a0823160e01b81526001600160a01b0391821660048201526020909301929116906370a0823190602401612959565b600080612b11858585612519565b905060008380612b2357612b23614355565b85870990508015612b3757816001016121c3565b50949350505050565b7fec7e8c1c441439dd40959777f4c577ea0cd42fcc1dbe59d2bd0f5d9c55df8dc5546000805160206145fb8339815191528054600092829161ffff909116908110612b8d57612b8d61441f565b60009182526020909120600490910201546001600160a01b031692915050565b7f4f24f5c433db0962dac0d2c8b84197a6e6c7cc4e5d9ebe1916a1b6193da2f34454600090819081906000805160206145db833981519152906001600160a01b03168515612c6f5760405163e4a0a55b60e01b81526001600160a01b0382169063e4a0a55b90612c21908a90600401614342565b606060405180830381865afa158015612c3e573d6000803e3d6000fd5b505050506040513d601f19601f82011682018060405250810190612c62919061456d565b9450945094505050612c9b565b60405163524f388960e01b81526001600160a01b0382169063524f388990612c21908a90600401614342565b9250925092565b7f0cd2207518cd3e5213e2c6dbe63d55b60aa893c194a427b7d7f1600408fd5bde54600214612d135760405162461bcd60e51b815260206004820152601f60248201527f5265656e7472616e637947756172643a2067756172642072657175697265640060448201526064016100fb565b565b600080600080612d25868661336f565b915091506000612d3583886134d2565b90506000612d4383896134d2565b905083604001519450612d568282613593565b9550505050509250929050565b60006002826002811115612d7957612d79613fac565b03612d8657612d86613fc2565b6000805160206145fb8339815191526000836002811115612da957612da9613fac565b03612de557600484015481548291610100900461ffff16908110612dcf57612dcf61441f565b9060005260206000209060040201915050610943565b6004840154815482916301000000900461ffff16908110612dcf57612dcf61441f565b5092915050565b600080826002811115612e2457612e24613fac565b03612e4057506004820154600160f01b90046001161515610943565b6001826002811115612e5457612e54613fac565b14612e6157612e61613fc2565b506004820154600160f01b90046002161515610943565b7f341c6685fdb8ed7133465b64f545b9fbc5699a59cbd1ad98992e5c070a74c510610b9e7f341c6685fdb8ed7133465b64f545b9fbc5699a59cbd1ad98992e5c070a74c51184846135a2565b7f4f24f5c433db0962dac0d2c8b84197a6e6c7cc4e5d9ebe1916a1b6193da2f346546000906000805160206145db833981519152906109cf90600160901b90046001600160401b0390811690851661432b565b6001600160a01b03821660009081526001840160205260408120600285018054839190601090612f5690600160801b90046001600160401b031661459b565b91906101000a8154816001600160401b0302191690836001600160401b03160217905590506040518060c00160405280866001600160a01b03168152602001856001600160401b031681526020018760020160089054906101000a90046001600160401b03166001600160401b0316815260200160006001600160401b031681526020018360000160089054906101000a90046001600160401b03166001600160401b0316815260200160006001600160401b0316815250866000016000836001600160401b03166001600160401b0316815260200190815260200160002060008201518160000160006101000a8154816001600160a01b0302191690836001600160a01b0316021790555060208201518160000160146101000a8154816001600160401b0302191690836001600160401b0316021790555060408201518160010160006101000a8154816001600160401b0302191690836001600160401b0316021790555060608201518160010160086101000a8154816001600160401b0302191690836001600160401b0316021790555060808201518160010160106101000a8154816001600160401b0302191690836001600160401b0316021790555060a08201518160010160186101000a8154816001600160401b0302191690836001600160401b031602179055509050508560020160009054906101000a90046001600160401b03166001600160401b03166000036131b3576002860154600160401b90046001600160401b03161561319057613190613fc2565b60028601805467ffffffffffffffff19166001600160401b03831617905561321b565b6002860154600160401b90046001600160401b03166000036131d7576131d7613fc2565b6002860154600160401b908190046001600160401b039081166000908152602089905260409020600101805467ffffffffffffffff60401b19169184169092021790555b6002860180546001600160401b03808416600160401b0267ffffffffffffffff60401b1990921691909117909155825416600003613291578154600160401b90046001600160401b03161561327257613272613fc2565b815467ffffffffffffffff19166001600160401b0382161782556132f4565b8154600160401b90046001600160401b03166000036132b2576132b2613fc2565b81546001600160401b03600160401b909104811660009081526020889052604090206001018054918316600160c01b026001600160c01b039092169190911790555b815467ffffffffffffffff60401b1916600160401b6001600160401b0383160217909155949350505050565b600061332d82600061360b565b50909392505050565b6000806000805160206145fb833981519152600484015481549192508291630100000090910461ffff169081106120ad576120ad61441f565b6133946040805160608101909152806000815260200160008152602001600081525090565b6133b96040805160608101909152806000815260200160008152602001600081525090565b60006133c58585612d63565b905060006133d386866137c3565b905060006133e0836137fb565b6133eb576000613458565b82546040516370a0823160e01b81526001600160a01b038481166004830152909116906370a0823190602401602060405180830381865afa158015613434573d6000803e3d6000fd5b505050506040513d601f19601f820116820180604052508101906134589190614312565b905060008061346685613832565b91509150604051806060016040528089600281111561348757613487613fac565b815260200184815260200183815250965060405180606001604052808960028111156134b5576134b5613fac565b815260200184815260200182815250955050505050509250929050565b6000806001845160028111156134ea576134ea613fac565b14613509576005830154600160801b90046001600160401b031661351f565b6005830154600160c01b90046001600160401b03165b60058401546001600160401b039182169250600091839161354b9181811691600160401b9004166143c5565b61355591906143c5565b90506000613567828760400151612a6e565b905080600003613581576402540be4009350505050610943565b60208601516121c39061271083612519565b60008183116121dc57816109cf565b6001600160a01b03821660009081526004840160205260408120906135c6826138e1565b905060006135d3866138e1565b90506135e083428661397c565b61360142836135ef87856140c4565b6135f991906143a5565b88919061397c565b611a138684613ced565b6000806000806000806136aa88600101805461362690614435565b80601f016020809104026020016040519081016040528092919081815260200182805461365290614435565b801561369f5780601f106136745761010080835404028352916020019161369f565b820191906000526020600020905b81548152906001019060200180831161368257829003601f168201915b505050505088612bad565b8a549295509093509150600160f01b900460ff16156136f15787546000906136e090600160a81b900460ff166001838786613d2a565b9650919450849350612c9b92505050565b600080600061378c8b600201805461370890614435565b80601f016020809104026020016040519081016040528092919081815260200182805461373490614435565b80156137815780601f1061375657610100808354040283529160200191613781565b820191906000526020600020905b81548152906001019060200180831161376457829003601f168201915b50505050508b612bad565b8d5492955090935091506000906137b090600160a81b900460ff1685848a89613d2a565b9950949750909550612c9b945050505050565b600060018260028111156137d9576137d9613fac565b146137ec576137e783611d40565b6109cf565b5050546001600160a01b031690565b8054600090600160b01b90046001600160401b031615806109435750815442600160b01b9091046001600160401b03161192915050565b6000806000805160206145db833981519152818080613851878261360b565b92509250925060008060006138678a600161360b565b60108a01549295509093509150600090859061389390600160c01b90046001600160401b0316846143c5565b101580156138c05750601088015486906138bd90600160c01b90046001600160401b0316856143c5565b10155b9050869950806138d057866138d2565b835b98505050505050505050915091565b6001810154600090600160401b90046001600160401b0316810361390757506000919050565b60018201546001600160401b03808216600160401b909204161161392d5761392d613fc2565b60018281015483916000916139529190600160401b90046001600160401b03166143a5565b6001600160401b039081168252602082019290925260400160002054600160c01b90041692915050565b6001830154600160401b90046001600160401b0316600003613a9b5760018301546001600160401b0316156139b3576139b3613fc2565b604051806060016040528060006001600160801b031681526020016139d78461010a565b6001600160401b0390811682528381166020909201919091526001850180548692600092600160401b90920416906008613a108361459b565b82546001600160401b039182166101009390930a92830292820219169190911790915590811682526020808301939093526040918201600020845181549486015195909301518216600160c01b026001600160c01b0395909216600160801b026001600160c01b03199094166001600160801b03909316929092179290921792909216179055505050565b60018301546001600160401b03808216600160401b9092041611613ac157613ac1613fc2565b60018381015460009185918391613ae791600160401b90046001600160401b03166143a5565b6001600160401b03908116825260208201929092526040016000208054909250600160801b900416839003613b395780546001600160c01b0316600160c01b6001600160401b03841602178155612070565b8054600160801b90046001600160401b03168311613baa5760405162461bcd60e51b815260206004820152602860248201527f54696d6543756d756c61746976653a2074696d657374616d70206e6f7420696e6044820152676372656173696e6760c01b60648201526084016100fb565b8054600090613bc990600160801b90046001600160401b0316856142d7565b8254613be59190600160c01b90046001600160401b031661432b565b8254613bfa91906001600160801b03166143c5565b90506040518060600160405280613c1083613db1565b6001600160801b03168152602001613c278661010a565b6001600160401b0390811682528581166020909201919091526001870180548892600092600160401b90920416906008613c608361459b565b82546001600160401b039182166101009390930a92830292820219169190911790915590811682526020808301939093526040918201600020845181549486015195909301518216600160c01b026001600160c01b0395909216600160801b026001600160c01b03199094166001600160801b039093169290921792909217929092161790555050505050565b6003820154600090613d10908490600160c01b90046001600160401b0316613dda565b9050613d1e82826002613e15565b610b9e83826002613e15565b60006000805160206145db833981519152816009613d48878a6143c5565b613d5291906143c5565b600a830154909150600090613d72908690600160a81b900460ff166143c5565b905080821015613d8457613d84613fc2565b613da4613d9182846142d7565b613d9c90600a61454d565b87908a612519565b9998505050505050505050565b60006001600160801b038211156101725760405162461bcd60e51b81526004016100fb906143d8565b6003820154600090613dfd908390600160401b90046001600160401b031661432b565b60038401546109cf91906001600160401b03166143c5565b60018301546001600160401b0380821691600160401b90041660005b8381108015613e49575081613e478460016143c5565b105b8015613e82575084866000613e5f8660016143c5565b8152602081019190915260400160002054600160801b90046001600160401b0316105b15613eb157600083815260208790526040812055613e9f836145c1565b9250613eaa816145c1565b9050613e31565b613eba8361010a565b600196909601805467ffffffffffffffff19166001600160401b03909716969096179095555050505050565b508054613ef290614435565b6000825580601f10613f02575050565b601f0160209004906000526020600020908101906118d091905b808211156101725760008155600101613f1c565b60008060408385031215613f4357600080fd5b82356001600160401b03811115613f5957600080fd5b83016102a08186031215613f6c57600080fd5b946020939093013593505050565b80356001600160401b0381168114611fa857600080fd5b600060208284031215613fa357600080fd5b6109cf82613f7a565b634e487b7160e01b600052602160045260246000fd5b634e487b7160e01b600052600160045260246000fd5b803560ff81168114611fa857600080fd5b600060208284031215613ffb57600080fd5b6109cf82613fd8565b6000815180845260005b8181101561402a5760208185018101518683018201520161400e565b506000602082860101526020601f19601f83011685010191505092915050565b83815282602082015260606040820152600061240e6060830184614004565b634e487b7160e01b600052601160045260246000fd5b6000600160ff1b820161409457614094614069565b5060000390565b6000602082840312156140ad57600080fd5b81516001600160a01b03811681146109cf57600080fd5b6001600160401b03818116838216019080821115612e0857612e08614069565b80151581146118d057600080fd5b8035611fa8816140e4565b803582526020810135602083015261411760408201613f7a565b6001600160401b0380821660408501528061413460608501613f7a565b16606085015250506080810135608083015260a081013560a083015260c081013560c083015261417a60e0830161416d60e08401613f7a565b6001600160401b03169052565b610100614188818301613f7a565b6001600160401b03169083015261012081810135908301526101408082013590830152610160808201359083015261018080820135908301526101a080820135908301526101c080820135908301526101e08082013590830152610200808201359083015261022080820135908301526102406142068183016140f2565b15159083015261026061421a828201613fd8565b60ff811684830152612070565b6020815260008235601e1984360301811261424157600080fd5b83016020810190356001600160401b0381111561425d57600080fd5b8060051b80360383131561427057600080fd5b6102a060208601526102c085018290526102e06001600160fb1b0383111561429757600080fd5b8184828801376142ad60408701602089016140fd565b9401909301949350505050565b6000602082840312156142cc57600080fd5b81516109cf816140e4565b8181038181111561094357610943614069565b808201828112600083128015821682158216171561430a5761430a614069565b505092915050565b60006020828403121561432457600080fd5b5051919050565b808202811582820484141761094357610943614069565b6020815260006109cf6020830184614004565b634e487b7160e01b600052601260045260246000fd5b60008261437a5761437a614355565b500490565b60006001600160401b038084168061439957614399614355565b92169190910692915050565b6001600160401b03828116828216039080821115612e0857612e08614069565b8082018082111561094357610943614069565b60208082526027908201527f53616665436173743a2076616c756520646f65736e27742066697420696e20316040820152663238206269747360c81b606082015260800190565b634e487b7160e01b600052603260045260246000fd5b600181811c9082168061444957607f821691505b6020821081036107ce57634e487b7160e01b600052602260045260246000fd5b600181815b808511156144a457816000190482111561448a5761448a614069565b8085161561449757918102915b93841c939080029061446e565b509250929050565b6000826144bb57506001610943565b816144c857506000610943565b81600181146144de57600281146144e857614504565b6001915050610943565b60ff8411156144f9576144f9614069565b50506001821b610943565b5060208310610133831016604e8410600b8410161715614527575081810a610943565b6145318383614469565b806000190482111561454557614545614069565b029392505050565b60006109cf83836144ac565b60008261456857614568614355565b500690565b60008060006060848603121561458257600080fd5b8351925060208401519150604084015190509250925092565b60006001600160401b038083168181036145b7576145b7614069565b6001019392505050565b6000600182016145d3576145d3614069565b506001019056fe4f24f5c433db0962dac0d2c8b84197a6e6c7cc4e5d9ebe1916a1b6193da2f33aec7e8c1c441439dd40959777f4c577ea0cd42fcc1dbe59d2bd0f5d9c55df8db6a2646970667358221220502ec3c014b3169668107f5223585eae26af3e0cb02d23a17c8ef2538d98ff8864736f6c63430008170033",
  "linkReferences": {},
  "deployedLinkReferences": {}
}