{
  "_format": "hh-sol-artifact-1",
  "contractName": "RedemptionConfirmationsFacet",
  "sourceName": "contracts/assetManager/facets/RedemptionConfirmationsFacet.sol",
  "abi": [
    {
      "anonymous": false,
      "inputs": [
        {
          "indexed": true,
          "internalType": "address",
          "name": "agentVault",
          "type": "address"
        },
        {
          "indexed": false,
          "internalType": "uint256",
          "name": "timestamp",
          "type": "uint256"
        }
      ],
      "name": "FullLiquidationStarted",
      "type": "event"
    },
    {
      "anonymous": false,
      "inputs": [
        {
          "indexed": true,
          "internalType": "address",
          "name": "agentVault",
          "type": "address"
        }
      ],
      "name": "LiquidationEnded",
      "type": "event"
    },
    {
      "anonymous": false,
      "inputs": [
        {
          "indexed": true,
          "internalType": "address",
          "name": "agentVault",
          "type": "address"
        },
        {
          "indexed": true,
          "internalType": "address",
          "name": "redeemer",
          "type": "address"
        },
        {
          "indexed": true,
          "internalType": "uint64",
          "name": "requestId",
          "type": "uint64"
        },
        {
          "indexed": false,
          "internalType": "uint256",
          "name": "redemptionAmountUBA",
          "type": "uint256"
        },
        {
          "indexed": false,
          "internalType": "uint256",
          "name": "redeemedVaultCollateralWei",
          "type": "uint256"
        },
        {
          "indexed": false,
          "internalType": "uint256",
          "name": "redeemedPoolCollateralWei",
          "type": "uint256"
        }
      ],
      "name": "RedemptionDefault",
      "type": "event"
    },
    {
      "anonymous": false,
      "inputs": [
        {
          "indexed": true,
          "internalType": "address",
          "name": "agentVault",
          "type": "address"
        },
        {
          "indexed": true,
          "internalType": "address",
          "name": "redeemer",
          "type": "address"
        },
        {
          "indexed": true,
          "internalType": "uint64",
          "name": "requestId",
          "type": "uint64"
        },
        {
          "indexed": false,
          "internalType": "bytes32",
          "name": "transactionHash",
          "type": "bytes32"
        },
        {
          "indexed": false,
          "internalType": "uint256",
          "name": "redemptionAmountUBA",
          "type": "uint256"
        },
        {
          "indexed": false,
          "internalType": "int256",
          "name": "spentUnderlyingUBA",
          "type": "int256"
        }
      ],
      "name": "RedemptionPaymentBlocked",
      "type": "event"
    },
    {
      "anonymous": false,
      "inputs": [
        {
          "indexed": true,
          "internalType": "address",
          "name": "agentVault",
          "type": "address"
        },
        {
          "indexed": true,
          "internalType": "address",
          "name": "redeemer",
          "type": "address"
        },
        {
          "indexed": true,
          "internalType": "uint64",
          "name": "requestId",
          "type": "uint64"
        },
        {
          "indexed": false,
          "internalType": "bytes32",
          "name": "transactionHash",
          "type": "bytes32"
        },
        {
          "indexed": false,
          "internalType": "int256",
          "name": "spentUnderlyingUBA",
          "type": "int256"
        },
        {
          "indexed": false,
          "internalType": "string",
          "name": "failureReason",
          "type": "string"
        }
      ],
      "name": "RedemptionPaymentFailed",
      "type": "event"
    },
    {
      "anonymous": false,
      "inputs": [
        {
          "indexed": true,
          "internalType": "address",
          "name": "agentVault",
          "type": "address"
        },
        {
          "indexed": true,
          "internalType": "address",
          "name": "redeemer",
          "type": "address"
        },
        {
          "indexed": true,
          "internalType": "uint64",
          "name": "requestId",
          "type": "uint64"
        },
        {
          "indexed": false,
          "internalType": "bytes32",
          "name": "transactionHash",
          "type": "bytes32"
        },
        {
          "indexed": false,
          "internalType": "uint256",
          "name": "redemptionAmountUBA",
          "type": "uint256"
        },
        {
          "indexed": false,
          "internalType": "int256",
          "name": "spentUnderlyingUBA",
          "type": "int256"
        }
      ],
      "name": "RedemptionPerformed",
      "type": "event"
    },
    {
      "anonymous": false,
      "inputs": [
        {
          "indexed": true,
          "internalType": "address",
          "name": "agentVault",
          "type": "address"
        },
        {
          "indexed": false,
          "internalType": "int256",
          "name": "underlyingBalanceUBA",
          "type": "int256"
        }
      ],
      "name": "UnderlyingBalanceChanged",
      "type": "event"
    },
    {
      "anonymous": false,
      "inputs": [
        {
          "indexed": true,
          "internalType": "address",
          "name": "agentVault",
          "type": "address"
        },
        {
          "indexed": false,
          "internalType": "int256",
          "name": "balance",
          "type": "int256"
        },
        {
          "indexed": false,
          "internalType": "uint256",
          "name": "requiredBalance",
          "type": "uint256"
        }
      ],
      "name": "UnderlyingBalanceTooLow",
      "type": "event"
    },
    {
      "inputs": [
        {
          "components": [
            {
              "internalType": "bytes32[]",
              "name": "merkleProof",
              "type": "bytes32[]"
            },
            {
              "components": [
                {
                  "internalType": "bytes32",
                  "name": "attestationType",
                  "type": "bytes32"
                },
                {
                  "internalType": "bytes32",
                  "name": "sourceId",
                  "type": "bytes32"
                },
                {
                  "internalType": "uint64",
                  "name": "votingRound",
                  "type": "uint64"
                },
                {
                  "internalType": "uint64",
                  "name": "lowestUsedTimestamp",
                  "type": "uint64"
                },
                {
                  "components": [
                    {
                      "internalType": "bytes32",
                      "name": "transactionId",
                      "type": "bytes32"
                    },
                    {
                      "internalType": "uint256",
                      "name": "inUtxo",
                      "type": "uint256"
                    },
                    {
                      "internalType": "uint256",
                      "name": "utxo",
                      "type": "uint256"
                    }
                  ],
                  "internalType": "struct IPayment.RequestBody",
                  "name": "requestBody",
                  "type": "tuple"
                },
                {
                  "components": [
                    {
                      "internalType": "uint64",
                      "name": "blockNumber",
                      "type": "uint64"
                    },
                    {
                      "internalType": "uint64",
                      "name": "blockTimestamp",
                      "type": "uint64"
                    },
                    {
                      "internalType": "bytes32",
                      "name": "sourceAddressHash",
                      "type": "bytes32"
                    },
                    {
                      "internalType": "bytes32",
                      "name": "sourceAddressesRoot",
                      "type": "bytes32"
                    },
                    {
                      "internalType": "bytes32",
                      "name": "receivingAddressHash",
                      "type": "bytes32"
                    },
                    {
                      "internalType": "bytes32",
                      "name": "intendedReceivingAddressHash",
                      "type": "bytes32"
                    },
                    {
                      "internalType": "int256",
                      "name": "spentAmount",
                      "type": "int256"
                    },
                    {
                      "internalType": "int256",
                      "name": "intendedSpentAmount",
                      "type": "int256"
                    },
                    {
                      "internalType": "int256",
                      "name": "receivedAmount",
                      "type": "int256"
                    },
                    {
                      "internalType": "int256",
                      "name": "intendedReceivedAmount",
                      "type": "int256"
                    },
                    {
                      "internalType": "bytes32",
                      "name": "standardPaymentReference",
                      "type": "bytes32"
                    },
                    {
                      "internalType": "bool",
                      "name": "oneToOne",
                      "type": "bool"
                    },
                    {
                      "internalType": "uint8",
                      "name": "status",
                      "type": "uint8"
                    }
                  ],
                  "internalType": "struct IPayment.ResponseBody",
                  "name": "responseBody",
                  "type": "tuple"
                }
              ],
              "internalType": "struct IPayment.Response",
              "name": "data",
              "type": "tuple"
            }
          ],
          "internalType": "struct IPayment.Proof",
          "name": "_payment",
          "type": "tuple"
        },
        {
          "internalType": "uint256",
          "name": "_redemptionRequestId",
          "type": "uint256"
        }
      ],
      "name": "confirmRedemptionPayment",
      "outputs": [],
      "stateMutability": "nonpayable",
      "type": "function"
    }
  ],
  "bytecode": "0x608060405234801561001057600080fd5b506131f4806100206000396000f3fe608060405234801561001057600080fd5b506004361061002b5760003560e01c8063bf9a243814610030575b600080fd5b61004361003e366004612ba0565b610045565b005b610057826100528361005b565b6100cc565b5050565b60006001600160401b038211156100c85760405162461bcd60e51b815260206004820152602660248201527f53616665436173743a2076616c756520646f65736e27742066697420696e203660448201526534206269747360d01b60648201526084015b60405180910390fd5b5090565b60006100d7826105c4565b60048101549091506000906100f4906001600160a01b03166106a6565b905060006101028233610747565b90508080610116575061011682848761081b565b61015b5760405162461bcd60e51b815260206004820152601660248201527537b7363c9030b3b2b73a103b30bab63a1037bbb732b960511b60448201526064016100bf565b60068301546001600160401b0316156101c65760405162461bcd60e51b815260206004820152602760248201527f72656a656374656420726564656d7074696f6e2063616e6e6f7420626520636f6044820152661b999a5c9b595960ca1b60648201526084016100bf565b6101cf856108a8565b67232128293320800160c11b6001600160401b03851617610240860135146102395760405162461bcd60e51b815260206004820152601c60248201527f696e76616c696420726564656d7074696f6e207265666572656e63650000000060448201526064016100bf565b60028301546001600160401b031661025961012087016101008801612c01565b6001600160401b031610156102b05760405162461bcd60e51b815260206004820152601a60248201527f726564656d7074696f6e207061796d656e7420746f6f206f6c6400000000000060448201526064016100bf565b6000806102bd8588610a75565b91509150811561040d576102fa848660020160189054906101000a90046001600160401b03168760040160159054906101000a900460ff16610cd3565b600061030e6102a089016102808a01612c2d565b60ff1603610396576003850154600486015460018701546040805160a08c013581526001600160801b0390921660208301526101c08b0135908201526001600160401b038916926001600160a01b039081169216907f80b49fdd7580ee833ccd36349a80427cff16f09d4520f8a2b49983e6b106b5da906060015b60405180910390a4610519565b6003850154600486015460018701546040805160a08c013581526001600160801b0390921660208301526101c08b0135908201526001600160401b038916926001600160a01b039081169216907ffb906fe496d7cd76f9cb7fc32a500151904d485c60ca47eddf28658c1b91dfb190606001610389565b60038401546101408801351461047e5760405162461bcd60e51b815260206004820152603060248201527f636f6e6669726d206661696c6564207061796d656e74206f6e6c792066726f6d60448201526f206167656e742773206164647265737360801b60648201526084016100bf565b60016004860154600160a01b900460ff1660028111156104a0576104a0612c48565b036104b0576104b0848688610dc9565b600385015460048601546040516001600160401b038916926001600160a01b039081169216907f1d10df0b0434a3335f99483eee41a4f643f9a967c5bcef37b65b85e77b7f3bef906105109060a08d0135906101c08e0135908890612ca4565b60405180910390a45b6105308461052b6101c08a0135612cd9565b610ed1565b60008051602061319f8339815191526105697fec7e8c1c441439dd40959777f4c577ea0cd42fcc1dbe59d2bd0f5d9c55df8dc18961100c565b8361059f5761059d85336105988260008051602061317f833981519152600f01546001600160801b0316611048565b61105c565b505b6105a886611166565b6105b185611234565b6105ba87611321565b5050505050505050565b600060008051602061319f8339815191526001600160401b03831682036106225760405162461bcd60e51b81526020600482015260126024820152711a5b9d985b1a59081c995c5d595cdd081a5960721b60448201526064016100bf565b6001600160401b0383166000908152600a82016020526040812092506004830154600160a01b900460ff16600281111561065e5761065e612c48565b036106a05760405162461bcd60e51b81526020600482015260126024820152711a5b9d985b1a59081c995c5d595cdd081a5960721b60448201526064016100bf565b50919050565b7f5bebac0595fee029d42bb673937f5f1cb81cf8641382bc17774635de9b7d796568010000000000000000600160e01b03604083901b161880600060048084015460ff16908111156106fa576106fa612c48565b036106a05760405162461bcd60e51b815260206004820152601b60248201527f696e76616c6964206167656e74207661756c742061646472657373000000000060448201526064016100bf565b60018201546000906001600160a01b0390811690831681148061081157507f4f24f5c433db0962dac0d2c8b84197a6e6c7cc4e5d9ebe1916a1b6193da2f341546001600160a01b0316604051631f86345d60e31b81526001600160a01b038381166004830152919091169063fc31a2e890602401602060405180830381865afa1580156107d8573d6000803e3d6000fd5b505050506040513d601f19601f820116820180604052508101906107fc9190612cf5565b6001600160a01b0316836001600160a01b0316145b9150505b92915050565b7f4f24f5c433db0962dac0d2c8b84197a6e6c7cc4e5d9ebe1916a1b6193da2f34854600383015460009160008051602061317f8339815191529161087991600160901b90046001600160401b0390811691600160a01b900416612d1e565b6001600160401b031642116108925760009150506108a1565b50506003830154610140820135145b9392505050565b7f4f24f5c433db0962dac0d2c8b84197a6e6c7cc4e5d9ebe1916a1b6193da2f342547f4f24f5c433db0962dac0d2c8b84197a6e6c7cc4e5d9ebe1916a1b6193da2f3455460008051602061317f833981519152916001600160a01b0316906040840135146109485760405162461bcd60e51b815260206004820152600d60248201526c34b73b30b634b21031b430b4b760991b60448201526064016100bf565b60405163a7a3797560e01b81526001600160a01b0382169063a7a3797590610974908690600401612e81565b602060405180830381865afa158015610991573d6000803e3d6000fd5b505050506040513d601f19601f820116820180604052508101906109b59190612f14565b610a015760405162461bcd60e51b815260206004820152601860248201527f6c6567616c207061796d656e74206e6f742070726f766564000000000000000060448201526064016100bf565b610a24610a1661014085016101208601612c01565b6001600160401b03166113d9565b610a705760405162461bcd60e51b815260206004820152601c60248201527f7665726966696564207472616e73616374696f6e20746f6f206f6c640000000060448201526064016100bf565b505050565b60018201546000906060908290610a9e906001600160801b03600160801b820481169116612f31565b90506001610ab46102a086016102808701612c2d565b60ff1603610af05750506040805180820190915260128152711d1c985b9cd858dd1a5bdb8819985a5b195960721b602082015260009150610ccc565b845461018085013514610b355750506040805180820190915260168152756e6f742072656465656d65722773206164647265737360501b602082015260009150610ccc565b610200840135811315610ba2576002610b566102a086016102808701612c2d565b60ff1614610b9d57505060408051808201909152601c81527f726564656d7074696f6e207061796d656e7420746f6f20736d616c6c00000000602082015260009150610ccc565b610cb6565b6002850154600160401b90046001600160401b0316610bc961012086016101008701612c01565b6001600160401b0316118015610c0c57506002850154600160801b90046001600160401b0316610c0161014086016101208701612c01565b6001600160401b0316115b15610c5057505060408051808201909152601b81527f726564656d7074696f6e207061796d656e7420746f6f206c6174650000000000602082015260009150610ccc565b60026004860154600160a01b900460ff166002811115610c7257610c72612c48565b03610cb657505060408051808201909152601b81527f726564656d7074696f6e207061796d656e7420746f6f206c6174650000000000602082015260009150610ccc565b5050604080516020810190915260008152600191505b9250929050565b610d218360050160109054906101000a90046001600160401b031683604051806040016040528060148152602001736e6f7420656e6f7567682072656465656d696e6760601b8152506113fc565b8360050160106101000a8154816001600160401b0302191690836001600160401b0316021790555080610a7057610d9c8360050160189054906101000a90046001600160401b031683604051806040016040528060148152602001736e6f7420656e6f7567682072656465656d696e6760601b8152506113fc565b8360050160186101000a8154816001600160401b0302191690836001600160401b03160217905550505050565b600080610dd68585611447565b60038601549193509150610df59086906001600160a01b03168461105c565b508015610e19576003840154610e179086906001600160a01b03168380611666565b505b610e4c858560020160189054906101000a90046001600160401b03168660040160159054906101000a900460ff16610cd3565b60038401546001600160401b038416906001600160a01b0316610e6e8761176c565b6001870154604080516001600160801b0390921682526020820187905281018590526001600160a01b0391909116907f3d88a018be66851f57adfd6fde7c19c103407f95df0b7c2640baf28a0330c6949060600160405180910390a45050505050565b6006820154600090610eee908390600160401b9004600f0b612f44565b90506000610efb84611794565b9050610f0681611837565b821215610f6a57610f168461176c565b6001600160a01b03167f3232fdbb55664d655aff08d1cc31318b51047d1178a5cea499006d9f9d4c07ae8383604051610f59929190918252602082015260400190565b60405180910390a2610f6a846118a1565b610f73826119b0565b6006850180546001600160801b0392909216600160401b0277ffffffffffffffffffffffffffffffff000000000000000019909216919091179055610fb78461176c565b6006850154604051600160401b909104600f0b81526001600160a01b0391909116907f73da6891cb86668451f612d2555e88650888a0133a30b1d226b2d1f955e62bca9060200160405180910390a250505050565b6040805161014083013560208083019190915260a08401358284015282518083038401815260609092019092528051910120610a708382611a19565b60006108a18261105785611ae1565b611b2e565b60008061106885611ae1565b905060006110758661176c565b82546040516370a0823160e01b81526001600160a01b0380841660048301529293506110ee92879216906370a0823190602401602060405180830381865afa1580156110c5573d6000803e3d6000fd5b505050506040513d601f19601f820116820180604052508101906110e99190612f6c565b611c38565b825460405163083e007560e21b81526001600160a01b0391821660048201528782166024820152604481018390529194508216906320f801d490606401600060405180830381600087803b15801561114557600080fd5b505af1158015611159573d6000803e3d6000fd5b5050505050509392505050565b6005810154600160a01b90046001600160401b03166000036111855750565b60058101546001600160a01b031633036111d65760058101546111d1906001600160a01b038116906111cc90633b9aca0090600160a01b90046001600160401b0316612f85565b611c4e565b61121d565b6005810154600160a01b90046001600160401b03161561121d57600581015461121d9061121890633b9aca0090600160a01b90046001600160401b0316612f85565b611ce9565b600501805467ffffffffffffffff60a01b19169055565b600260048083015460ff169081111561124f5761124f612c48565b146112575750565b600061126282611d50565b9050600061126f83611dc4565b9050600061127f84836000611ea1565b9050600061128f85846001611ea1565b9050818460000151101580156112a9575080846020015110155b1561131a576004850180547fff00000000000000000000ffffffffffffffffffffffffffffffffffffffff001660011790556112e48561176c565b6001600160a01b03167fe513b42585b0ceec0d56d56fe3a23861c15a2f74eb4c32c94334d63d68ff4dcf60405160405180910390a25b5050505050565b6001600160401b03811660009081527fec7e8c1c441439dd40959777f4c577ea0cd42fcc1dbe59d2bd0f5d9c55df8dc06020526040812081815560018101829055600281018290556003810180546001600160e01b03199081169091556004820180546001600160b01b031916905560058201805490911690556006810180546fffffffffffffffffffffffffffffffff1916905560008051602061319f833981519152916113d36007830182612b4e565b50505050565b60006113e9600e62015180612f85565b6113f39042612f31565b90911015919050565b6000826001600160401b0316846001600160401b0316101582906114335760405162461bcd60e51b81526004016100bf9190612f9c565b5050506001600160401b0390811691160390565b60008060008051602061317f8339815191528161146386611f05565b600286015490915060009061148b9083908990600160c01b90046001600160401b0316611fe6565b6004870154909150600160a81b900460ff16156114dd57600286015460408301516114c691600160c01b90046001600160401b0316906120a3565b9450600093506114d68582611c38565b945061165c565b60068601546001600160401b031615156115598161150c57600e850154600160501b900463ffffffff1661151f565b6018850154600160801b900463ffffffff165b63ffffffff166115538960020160189054906101000a90046001600160401b03166001600160401b031686604001516120a3565b906120bd565b95506000611566896120cc565b90506115ce8261158757600e860154600160701b900463ffffffff1661159a565b6018860154600160a01b900463ffffffff165b63ffffffff166115538a60020160189054906101000a90046001600160401b03166001600160401b031684604001516120a3565b60028901549096506000906115f69083908c90600160c01b90046001600160401b0316611fe6565b90508388111561164c57600061162b61160f868b612f31565b60028c0154600160c01b90046001600160401b0316908b612147565b905061163b8184604001516120a3565b6116459089612faf565b9750849850505b6116568782611c38565b96505050505b5050509250929050565b600080611671612184565b86546040516370a0823160e01b81526001600160a01b0391821660048201529116906370a0823190602401602060405180830381865afa1580156116b9573d6000803e3d6000fd5b505050506040513d601f19601f820116820180604052508101906116dd9190612f6c565b90506116e98482611c38565b91506116f58383611c38565b865460405163adf58c1560e01b81526001600160a01b038881166004830152602482018690526044820184905292955091169063adf58c1590606401600060405180830381600087803b15801561174b57600080fd5b505af115801561175f573d6000803e3d6000fd5b5050505050949350505050565b7f5bebac0595fee029d42bb673937f5f1cb81cf8641382bc17774635de9b7d79651860401c90565b7f4f24f5c433db0962dac0d2c8b84197a6e6c7cc4e5d9ebe1916a1b6193da2f34654600582015460009160008051602061317f833981519152918391600160901b90046001600160401b03908116916117fe91600160801b8204811691600160401b900416612d1e565b6001600160401b03166118119190612f85565b600d83015490915061182f908290600160401b900461ffff166120bd565b949350505050565b60006001600160ff1b038211156100c85760405162461bcd60e51b815260206004820152602860248201527f53616665436173743a2076616c756520646f65736e27742066697420696e2061604482015267371034b73a191a9b60c11b60648201526084016100bf565b600360048083015460ff16908111156118bc576118bc612c48565b14806118de575060048181015460ff16818111156118dc576118dc612c48565b145b156118e65750565b60006118f182611dc4565b9050600281600281111561190757611907612c48565b14611952576119154261005b565b6004830180546001600160401b0392909216600160a81b0260ff60e81b191668ffffffffffffffffff60a81b1990921691909117600160e91b1790555b60048201805460ff1916600317905561196a8261176c565b6001600160a01b03167fa3bf539465c1a8746950e123769affaff9097155e9e8cb9e079e1d55d6ba3497426040516119a491815260200190565b60405180910390a25050565b80600f81900b8114611a145760405162461bcd60e51b815260206004820152602760248201527f53616665436173743a2076616c756520646f65736e27742066697420696e20316044820152663238206269747360c81b60648201526084016100bf565b919050565b60008181526020839052604090205415611a755760405162461bcd60e51b815260206004820152601960248201527f7061796d656e7420616c726561647920636f6e6669726d65640000000000000060448201526064016100bf565b6000611a846201518042612fd8565b6000818152600185016020526040812054919250819003611aa55782611aa7565b805b60008481526020868152604080832093909355848252600187019052908120849055600285015490036113d3576002840182905550505050565b60008060008051602061319f83398151915260048401548154919250829161010090910461ffff16908110611b1857611b18612fec565b9060005260206000209060040201915050919050565b6000816002018054611b3f90613002565b9050600003611b4f575081610815565b600080611be9846002018054611b6490613002565b80601f0160208091040260200160405190810160405280929190818152602001828054611b9090613002565b8015611bdd5780601f10611bb257610100808354040283529160200191611bdd565b820191906000526020600020905b815481529060010190602001808311611bc057829003601f168201915b505050505060006121f1565b8654929450925060009160059150611c0c908490600160a81b900460ff16612faf565b611c169190612f31565b9050611c2e611c2682600a61311a565b8790856122e6565b9695505050505050565b6000818310611c4757816108a1565b5090919050565b8015610057576000826001600160a01b03168260405160006040518083038185875af1925050503d8060008114611ca1576040519150601f19603f3d011682016040523d82523d6000602084013e611ca6565b606091505b5050905080610a705760405162461bcd60e51b815260206004820152600f60248201526e1d1c985b9cd9995c8819985a5b1959608a1b60448201526064016100bf565b7f4f24f5c433db0962dac0d2c8b84197a6e6c7cc4e5d9ebe1916a1b6193da2f3435460405160008051602061317f833981519152916001600160a01b0316906108fc8415029084906000818181858888f19350505050158015610a70573d6000803e3d6000fd5b611d7b6040518060800160405280600081526020016000815260200160008152602001600081525090565b600080611d8984600061240c565b91509150600080611d9b86600161240c565b604080516080810182529687526020870192909252908501939093525050606082015292915050565b60008060008051602061317f833981519152600484015490915060ff166002816004811115611df557611df5612c48565b03611e7457600060016004860154600160e81b900460ff166002811115611e1e57611e1e612c48565b148015611e5a575060118301546004860154611e4d916001600160401b0390811691600160a81b900416612d1e565b6001600160401b03164211155b905080611e68576002611e6b565b60015b95945050505050565b6003816004811115611e8857611e88612c48565b03611e97575060029392505050565b5060009392505050565b600080611eae858461245a565b90506001846002811115611ec457611ec4612c48565b1480611ed75750611ed58584612506565b155b15611eed576003015463ffffffff1690506108a1565b60030154600160401b900463ffffffff1690506108a1565b611f2a6040805160608101909152806000815260200160008152602001600081525090565b6000611f3583611ae1565b60408051606081019091526000815281549192509060208201906001600160a01b03166370a08231611f668761176c565b6040516001600160e01b031960e084901b1681526001600160a01b0390911660048201526024015b602060405180830381865afa158015611fab573d6000803e3d6000fd5b505050506040513d601f19601f82011682018060405250810190611fcf9190612f6c565b8152602001611fdd8361256f565b90529392505050565b600081600003611ff8575060006108a1565b600060018551600281111561200f5761200f612c48565b1461202e576005840154600160801b90046001600160401b0316612044565b6005840154600160c01b90046001600160401b03165b6001600160401b031690508083111561205f5761205f613126565b60058401546000908290612086906001600160401b0380821691600160401b900416612faf565b6120909190612faf565b6020870151909150611c2e9085836122e6565b60006108a1826120b56009600a61311a565b8591906122e6565b60006108a183836127106122e6565b6120f16040805160608101909152806000815260200160008152602001600081525090565b60006120fc83612585565b60408051606081019091529091508060018152825485546040516370a0823160e01b81526001600160a01b0391821660048201526020909301929116906370a0823190602401611f8e565b6000806121558585856122e6565b90506000838061216757612167612fc2565b8587099050801561217b5781600101611c2e565b50949350505050565b7fec7e8c1c441439dd40959777f4c577ea0cd42fcc1dbe59d2bd0f5d9c55df8dc55460008051602061319f8339815191528054600092829161ffff9091169081106121d1576121d1612fec565b60009182526020909120600490910201546001600160a01b031692915050565b7f4f24f5c433db0962dac0d2c8b84197a6e6c7cc4e5d9ebe1916a1b6193da2f344546000908190819060008051602061317f833981519152906001600160a01b031685156122b35760405163e4a0a55b60e01b81526001600160a01b0382169063e4a0a55b90612265908a90600401612f9c565b606060405180830381865afa158015612282573d6000803e3d6000fd5b505050506040513d601f19601f820116820180604052508101906122a6919061313c565b94509450945050506122df565b60405163524f388960e01b81526001600160a01b0382169063524f388990612265908a90600401612f9c565b9250925092565b600080821161232a5760405162461bcd60e51b815260206004820152601060248201526f4469766973696f6e206279207a65726f60801b60448201526064016100bf565b8360000361233a575060006108a1565b8383028385828161234d5761234d612fc2565b040361236b5782818161236257612362612fc2565b049150506108a1565b5060006123788386612fd8565b90506000612386848761316a565b905060006123948587612fd8565b905060006123a2868861316a565b9050856123af8285612f85565b6123b99190612fd8565b6123c38385612f85565b6123cd8387612f85565b886123d88689612f85565b6123e29190612f85565b6123ec9190612faf565b6123f69190612faf565b6124009190612faf565b98975050505050505050565b60008060008061241c86866125be565b91509150600061242c8388612721565b9050600061243a8389612721565b90508360400151945061244d82826127e2565b9550505050509250929050565b6000600282600281111561247057612470612c48565b0361247d5761247d613126565b60008051602061319f83398151915260008360028111156124a0576124a0612c48565b036124dc57600484015481548291610100900461ffff169081106124c6576124c6612fec565b9060005260206000209060040201915050610815565b6004840154815482916301000000900461ffff169081106124c6576124c6612fec565b5092915050565b60008082600281111561251b5761251b612c48565b0361253757506004820154600160f01b90046001161515610815565b600182600281111561254b5761254b612c48565b1461255857612558613126565b506004820154600160f01b90046002161515610815565b600061257c8260006127f1565b50909392505050565b60008060008051602061319f833981519152600484015481549192508291630100000090910461ffff16908110611b1857611b18612fec565b6125e36040805160608101909152806000815260200160008152602001600081525090565b6126086040805160608101909152806000815260200160008152602001600081525090565b6000612614858561245a565b9050600061262286866129a9565b9050600061262f836129e1565b61263a5760006126a7565b82546040516370a0823160e01b81526001600160a01b038481166004830152909116906370a0823190602401602060405180830381865afa158015612683573d6000803e3d6000fd5b505050506040513d601f19601f820116820180604052508101906126a79190612f6c565b90506000806126b585612a18565b9150915060405180606001604052808960028111156126d6576126d6612c48565b8152602001848152602001838152509650604051806060016040528089600281111561270457612704612c48565b815260200184815260200182815250955050505050509250929050565b60008060018451600281111561273957612739612c48565b14612758576005830154600160801b90046001600160401b031661276e565b6005830154600160c01b90046001600160401b03165b60058401546001600160401b039182169250600091839161279a9181811691600160401b900416612faf565b6127a49190612faf565b9050806000036127bd576402540be40092505050610815565b60006127cd8287604001516120a3565b6020870151909150611c2e90612710836122e6565b6000818311611c4757816108a1565b60008060008060008061289088600101805461280c90613002565b80601f016020809104026020016040519081016040528092919081815260200182805461283890613002565b80156128855780601f1061285a57610100808354040283529160200191612885565b820191906000526020600020905b81548152906001019060200180831161286857829003601f168201915b5050505050886121f1565b8a549295509093509150600160f01b900460ff16156128d75787546000906128c690600160a81b900460ff166001838786612ac7565b96509194508493506122df92505050565b60008060006129728b60020180546128ee90613002565b80601f016020809104026020016040519081016040528092919081815260200182805461291a90613002565b80156129675780601f1061293c57610100808354040283529160200191612967565b820191906000526020600020905b81548152906001019060200180831161294a57829003601f168201915b50505050508b6121f1565b8d54929550909350915060009061299690600160a81b900460ff1685848a89612ac7565b99509497509095506122df945050505050565b600060018260028111156129bf576129bf612c48565b146129d2576129cd8361176c565b6108a1565b5050546001600160a01b031690565b8054600090600160b01b90046001600160401b031615806108155750815442600160b01b9091046001600160401b03161192915050565b60008060008051602061317f833981519152818080612a3787826127f1565b9250925092506000806000612a4d8a60016127f1565b60108a015492955090935091506000908590612a7990600160c01b90046001600160401b031684612faf565b10158015612aa6575060108801548690612aa390600160c01b90046001600160401b031685612faf565b10155b905086995080612ab65786612ab8565b835b98505050505050505050915091565b600060008051602061317f833981519152816009612ae5878a612faf565b612aef9190612faf565b600a830154909150600090612b0f908690600160a81b900460ff16612faf565b905080821015612b2157612b21613126565b612b41612b2e8284612f31565b612b3990600a61311a565b87908a6122e6565b9998505050505050505050565b508054612b5a90613002565b6000825580601f10612b6a575050565b601f016020900490600052602060002090810190612b889190612b8b565b50565b5b808211156100c85760008155600101612b8c565b60008060408385031215612bb357600080fd5b82356001600160401b03811115612bc957600080fd5b83016102a08186031215612bdc57600080fd5b946020939093013593505050565b80356001600160401b0381168114611a1457600080fd5b600060208284031215612c1357600080fd5b6108a182612bea565b803560ff81168114611a1457600080fd5b600060208284031215612c3f57600080fd5b6108a182612c1c565b634e487b7160e01b600052602160045260246000fd5b6000815180845260005b81811015612c8457602081850181015186830182015201612c68565b506000602082860101526020601f19601f83011685010191505092915050565b838152826020820152606060408201526000611e6b6060830184612c5e565b634e487b7160e01b600052601160045260246000fd5b6000600160ff1b8201612cee57612cee612cc3565b5060000390565b600060208284031215612d0757600080fd5b81516001600160a01b03811681146108a157600080fd5b6001600160401b038181168382160190808211156124ff576124ff612cc3565b8015158114612b8857600080fd5b8035611a1481612d3e565b8035825260208101356020830152612d7160408201612bea565b6001600160401b03808216604085015280612d8e60608501612bea565b16606085015250506080810135608083015260a081013560a083015260c081013560c0830152612dd460e08301612dc760e08401612bea565b6001600160401b03169052565b610100612de2818301612bea565b6001600160401b03169083015261012081810135908301526101408082013590830152610160808201359083015261018080820135908301526101a080820135908301526101c080820135908301526101e0808201359083015261020080820135908301526102208082013590830152610240612e60818301612d4c565b151590830152610260612e74828201612c1c565b60ff8116848301526113d3565b6020815260008235601e19843603018112612e9b57600080fd5b83016020810190356001600160401b03811115612eb757600080fd5b8060051b803603831315612eca57600080fd5b6102a060208601526102c085018290526102e06001600160fb1b03831115612ef157600080fd5b818482880137612f076040870160208901612d57565b9401909301949350505050565b600060208284031215612f2657600080fd5b81516108a181612d3e565b8181038181111561081557610815612cc3565b8082018281126000831280158216821582161715612f6457612f64612cc3565b505092915050565b600060208284031215612f7e57600080fd5b5051919050565b808202811582820484141761081557610815612cc3565b6020815260006108a16020830184612c5e565b8082018082111561081557610815612cc3565b634e487b7160e01b600052601260045260246000fd5b600082612fe757612fe7612fc2565b500490565b634e487b7160e01b600052603260045260246000fd5b600181811c9082168061301657607f821691505b6020821081036106a057634e487b7160e01b600052602260045260246000fd5b600181815b8085111561307157816000190482111561305757613057612cc3565b8085161561306457918102915b93841c939080029061303b565b509250929050565b60008261308857506001610815565b8161309557506000610815565b81600181146130ab57600281146130b5576130d1565b6001915050610815565b60ff8411156130c6576130c6612cc3565b50506001821b610815565b5060208310610133831016604e8410600b84101617156130f4575081810a610815565b6130fe8383613036565b806000190482111561311257613112612cc3565b029392505050565b60006108a18383613079565b634e487b7160e01b600052600160045260246000fd5b60008060006060848603121561315157600080fd5b8351925060208401519150604084015190509250925092565b60008261317957613179612fc2565b50069056fe4f24f5c433db0962dac0d2c8b84197a6e6c7cc4e5d9ebe1916a1b6193da2f33aec7e8c1c441439dd40959777f4c577ea0cd42fcc1dbe59d2bd0f5d9c55df8db6a26469706673582212201750c6bcbe119b266f9612159ee67aeef0b15e6c41fb878eb336cad431268d4964736f6c63430008170033",
  "linkReferences": {},
  "deployedLinkReferences": {}
}