{
  "_format": "hh-sol-artifact-1",
  "contractName": "RedemptionTimeExtensionFacet",
  "sourceName": "contracts/assetManager/facets/RedemptionTimeExtensionFacet.sol",
  "abi": [
    {
      "anonymous": false,
      "inputs": [
        {
          "indexed": false,
          "internalType": "string",
          "name": "name",
          "type": "string"
        },
        {
          "indexed": false,
          "internalType": "uint256",
          "name": "value",
          "type": "uint256"
        }
      ],
      "name": "SettingChanged",
      "type": "event"
    },
    {
      "inputs": [
        {
          "internalType": "uint256",
          "name": "_redemptionPaymentExtensionSeconds",
          "type": "uint256"
        }
      ],
      "name": "initRedemptionTimeExtensionFacet",
      "outputs": [],
      "stateMutability": "nonpayable",
      "type": "function"
    },
    {
      "inputs": [],
      "name": "redemptionPaymentExtensionSeconds",
      "outputs": [
        {
          "internalType": "uint256",
          "name": "",
          "type": "uint256"
        }
      ],
      "stateMutability": "view",
      "type": "function"
    },
    {
      "inputs": [
        {
          "internalType": "uint256",
          "name": "_value",
          "type": "uint256"
        }
      ],
      "name": "setRedemptionPaymentExtensionSeconds",
      "outputs": [],
      "stateMutability": "nonpayable",
      "type": "function"
    }
  ],
  "bytecode": "0x608060405234801561001057600080fd5b5061066e806100206000396000f3fe608060405234801561001057600080fd5b50600436106100415760003560e01c80632a926491146100465780636ae2d86f1461005b57806375afe6381461006e575b600080fd5b61005961005436600461058c565b610088565b005b61005961006936600461058c565b610235565b610076610327565b60405190815260200160405180910390f35b610090610360565b6100986103dd565b7f4f24f5c433db0962dac0d2c8b84197a6e6c7cc4e5d9ebe1916a1b6193da2f33a60006100ed7f1309a575a1ebd5e5ca64d58e63b864f1d06aed3e31a021b0eabae653c215fb065467ffffffffffffffff1690565b600c830154909150610108906103e89063ffffffff166105d1565b63ffffffff166101198260046105f4565b6101239190610611565b83111561016a5760405162461bcd60e51b815260206004820152601060248201526f696e63726561736520746f6f2062696760801b60448201526064015b60405180910390fd5b610175600482610624565b8310156101b75760405162461bcd60e51b815260206004820152601060248201526f646563726561736520746f6f2062696760801b6044820152606401610161565b6101c0836104d5565b604080518181526021818301527f726564656d7074696f6e5061796d656e74457874656e73696f6e5365636f6e646060820152607360f81b60808201526020810185905290517fac1fb27759c1e6f9e4a24d4f8c320be6091becb03cea5a95398fa220fca4ac0e9181900360a00190a1505050565b6301ffc9a760e01b6000527fc8fcad8db84d3cc18b4c41d551ea0ee66dd599cde068d998e57d5e09332c131e6020527f673a26ab9c976db950bbe987aa80c5e387f329563bb0afe093ddccc970489e31547fc8fcad8db84d3cc18b4c41d551ea0ee66dd599cde068d998e57d5e09332c131c9060ff166102f75760405162461bcd60e51b815260206004820152601760248201527f6469616d6f6e64206e6f7420696e697469616c697a65640000000000000000006044820152606401610161565b635f3d82a960e01b60009081526002820160205260409020805460ff19166001179055610323826104d5565b5050565b600061035b7f1309a575a1ebd5e5ca64d58e63b864f1d06aed3e31a021b0eabae653c215fb065467ffffffffffffffff1690565b905090565b7f4f24f5c433db0962dac0d2c8b84197a6e6c7cc4e5d9ebe1916a1b6193da2f33a80546001600160a01b031633146103da5760405162461bcd60e51b815260206004820152601d60248201527f6f6e6c79206173736574206d616e6167657220636f6e74726f6c6c65720000006044820152606401610161565b50565b600080356001600160e01b0319168082527fc6aafbe0f74bbe68eec7559401d7d311a092b5c4d8feb0452323e4ba73d8d8d160208190526040909220547f4f24f5c433db0962dac0d2c8b84197a6e6c7cc4e5d9ebe1916a1b6193da2f33a91908015806104695750601183015461046590600160801b900467ffffffffffffffff1682610611565b4210155b6104b55760405162461bcd60e51b815260206004820152601c60248201527f746f6f20636c6f736520746f2070726576696f757320757064617465000000006044820152606401610161565b506001600160e01b03191660009081526020929092525060409020429055565b7f1309a575a1ebd5e5ca64d58e63b864f1d06aed3e31a021b0eabae653c215fb066104ff8261051f565b815467ffffffffffffffff191667ffffffffffffffff9190911617905550565b600067ffffffffffffffff8211156105885760405162461bcd60e51b815260206004820152602660248201527f53616665436173743a2076616c756520646f65736e27742066697420696e203660448201526534206269747360d01b6064820152608401610161565b5090565b60006020828403121561059e57600080fd5b5035919050565b634e487b7160e01b600052601260045260246000fd5b634e487b7160e01b600052601160045260246000fd5b600063ffffffff808416806105e8576105e86105a5565b92169190910492915050565b808202811582820484141761060b5761060b6105bb565b92915050565b8082018082111561060b5761060b6105bb565b600082610633576106336105a5565b50049056fea26469706673582212203fe6125db4d45360efbece1181a4895b1e09c7fe7a8fb2f227e0cfc5006a768164736f6c63430008170033",
  "linkReferences": {},
  "deployedLinkReferences": {}
}