{
  "_format": "hh-sol-artifact-1",
  "contractName": "RedemptionTimeExtensionFacet",
  "sourceName": "contracts/assetManager/facets/RedemptionTimeExtensionFacet.sol",
  "abi": [
    {
      "anonymous": false,
      "inputs": [
        {
          "indexed": false,
          "internalType": "bytes",
          "name": "encodedCall",
          "type": "bytes"
        },
        {
          "indexed": false,
          "internalType": "bytes32",
          "name": "encodedCallHash",
          "type": "bytes32"
        },
        {
          "indexed": false,
          "internalType": "uint256",
          "name": "allowedAfterTimestamp",
          "type": "uint256"
        }
      ],
      "name": "GovernanceCallTimelocked",
      "type": "event"
    },
    {
      "anonymous": false,
      "inputs": [
        {
          "indexed": false,
          "internalType": "address",
          "name": "initialGovernance",
          "type": "address"
        }
      ],
      "name": "GovernanceInitialised",
      "type": "event"
    },
    {
      "anonymous": false,
      "inputs": [
        {
          "indexed": false,
          "internalType": "address",
          "name": "governanceSettings",
          "type": "address"
        }
      ],
      "name": "GovernedProductionModeEntered",
      "type": "event"
    },
    {
      "anonymous": false,
      "inputs": [
        {
          "indexed": false,
          "internalType": "uint256",
          "name": "value",
          "type": "uint256"
        }
      ],
      "name": "RedemptionPaymentExtensionSecondsChanged",
      "type": "event"
    },
    {
      "anonymous": false,
      "inputs": [
        {
          "indexed": false,
          "internalType": "bytes32",
          "name": "encodedCallHash",
          "type": "bytes32"
        }
      ],
      "name": "TimelockedGovernanceCallCanceled",
      "type": "event"
    },
    {
      "anonymous": false,
      "inputs": [
        {
          "indexed": false,
          "internalType": "bytes32",
          "name": "encodedCallHash",
          "type": "bytes32"
        }
      ],
      "name": "TimelockedGovernanceCallExecuted",
      "type": "event"
    },
    {
      "inputs": [
        {
          "internalType": "bytes",
          "name": "_encodedCall",
          "type": "bytes"
        }
      ],
      "name": "cancelGovernanceCall",
      "outputs": [],
      "stateMutability": "nonpayable",
      "type": "function"
    },
    {
      "inputs": [
        {
          "internalType": "bytes",
          "name": "_encodedCall",
          "type": "bytes"
        }
      ],
      "name": "executeGovernanceCall",
      "outputs": [],
      "stateMutability": "nonpayable",
      "type": "function"
    },
    {
      "inputs": [],
      "name": "governance",
      "outputs": [
        {
          "internalType": "address",
          "name": "",
          "type": "address"
        }
      ],
      "stateMutability": "view",
      "type": "function"
    },
    {
      "inputs": [],
      "name": "governanceSettings",
      "outputs": [
        {
          "internalType": "contract IGovernanceSettings",
          "name": "",
          "type": "address"
        }
      ],
      "stateMutability": "view",
      "type": "function"
    },
    {
      "inputs": [
        {
          "internalType": "uint256",
          "name": "_redemptionPaymentExtensionSeconds",
          "type": "uint256"
        }
      ],
      "name": "initRedemptionTimeExtensionFacet",
      "outputs": [],
      "stateMutability": "nonpayable",
      "type": "function"
    },
    {
      "inputs": [
        {
          "internalType": "contract IGovernanceSettings",
          "name": "_governanceSettings",
          "type": "address"
        },
        {
          "internalType": "address",
          "name": "_initialGovernance",
          "type": "address"
        }
      ],
      "name": "initialise",
      "outputs": [],
      "stateMutability": "nonpayable",
      "type": "function"
    },
    {
      "inputs": [
        {
          "internalType": "address",
          "name": "_address",
          "type": "address"
        }
      ],
      "name": "isExecutor",
      "outputs": [
        {
          "internalType": "bool",
          "name": "",
          "type": "bool"
        }
      ],
      "stateMutability": "view",
      "type": "function"
    },
    {
      "inputs": [],
      "name": "productionMode",
      "outputs": [
        {
          "internalType": "bool",
          "name": "",
          "type": "bool"
        }
      ],
      "stateMutability": "view",
      "type": "function"
    },
    {
      "inputs": [],
      "name": "redemptionPaymentExtensionSeconds",
      "outputs": [
        {
          "internalType": "uint256",
          "name": "",
          "type": "uint256"
        }
      ],
      "stateMutability": "view",
      "type": "function"
    },
    {
      "inputs": [
        {
          "internalType": "uint256",
          "name": "_value",
          "type": "uint256"
        }
      ],
      "name": "setRedemptionPaymentExtensionSeconds",
      "outputs": [],
      "stateMutability": "nonpayable",
      "type": "function"
    },
    {
      "inputs": [],
      "name": "switchToProductionMode",
      "outputs": [],
      "stateMutability": "nonpayable",
      "type": "function"
    }
  ],
  "bytecode": "0x608060405234801561001057600080fd5b5061001d61111180610022565b6101b6565b7f2aa47ee5db910f3b2a06970c443249cc77dbd9f96100cfebc1775ab7fb1d18248054600160a01b900460ff16156100a15760405162461bcd60e51b815260206004820152601460248201527f696e697469616c6973656420213d2066616c736500000000000000000000000060448201526064015b60405180910390fd5b6001600160a01b0383166100f75760405162461bcd60e51b815260206004820152601860248201527f676f7665726e616e63652073657474696e6773207a65726f00000000000000006044820152606401610098565b6001600160a01b0382166101405760405162461bcd60e51b815260206004820152601060248201526f5f676f7665726e616e6365207a65726f60801b6044820152606401610098565b80546001600160a01b038481166001600160a81b031990921691909117600160a01b1782556001820180549184166001600160a01b0319909216821790556040519081527f9789733827840833afc031fb2ef9ab6894271f77bad2085687cf4ae5c7bee4db9060200160405180910390a1505050565b610f03806101c56000396000f3fe608060405234801561001057600080fd5b50600436106100a95760003560e01c80636ae2d86f116100715780636ae2d86f1461012c57806375afe6381461013f578063debfda3014610155578063e17f212e14610178578063ef88bf1314610197578063f5a98383146101aa57600080fd5b806316fc2f6d146100ae57806320c5f99d146100c35780632a926491146100d65780635aa6e675146100e957806362354e031461010e575b600080fd5b6100c16100bc366004610cd2565b6101b2565b005b6100c16100d1366004610cd2565b61029a565b6100c16100e4366004610d44565b610489565b6100f1610616565b6040516001600160a01b0390911681526020015b60405180910390f35b600080516020610eae833981519152546001600160a01b03166100f1565b6100c161013a366004610d44565b6106bf565b6101476107b1565b604051908152602001610105565b610168610163366004610d75565b6107ea565b6040519015158152602001610105565b600080516020610eae83398151915254600160a81b900460ff16610168565b6100c16101a5366004610d92565b610884565b6100c16109f0565b6101ba610ac4565b604051600080516020610eae833981519152906000906101dd9085908590610dcb565b60405180910390209050816002016000828152602001908152602001600020546000036102515760405162461bcd60e51b815260206004820152601a60248201527f74696d656c6f636b3a20696e76616c69642073656c6563746f7200000000000060448201526064015b60405180910390fd5b6040518181527f69b058d6225c01c1f2a25801ca5b05705fa2e9118e93d518390ba804398c87b19060200160405180910390a16000908152600290910160205260408120555050565b600080516020610eae8339815191526102b2336107ea565b6102ee5760405162461bcd60e51b815260206004820152600d60248201526c37b7363c9032bc32b1baba37b960991b6044820152606401610248565b60008383604051610300929190610dcb565b6040805191829003909120600081815260028501602052918220549092509081900361036e5760405162461bcd60e51b815260206004820152601a60248201527f74696d656c6f636b3a20696e76616c69642073656c6563746f720000000000006044820152606401610248565b804210156103be5760405162461bcd60e51b815260206004820152601960248201527f74696d656c6f636b3a206e6f7420616c6c6f77656420796574000000000000006044820152606401610248565b6000828152600284016020526040808220829055845460ff60b01b1916600160b01b1785555130906103f39088908890610dcb565b6000604051808303816000865af19150503d8060008114610430576040519150601f19603f3d011682016040523d82523d6000602084013e610435565b606091505b5050845460ff60b01b191685556040518481529091507fec1225e5a8a8acb91e03ce648c683c74f5d152a775b9715980999441d714c44f9060200160405180910390a161048181610b20565b505050505050565b610491610ac4565b6104ba7f53fcbb5cbd2c55b271409ca9a348019bdd7a586f97505ecec63ccc357421e04d610b3d565b7f4f24f5c433db0962dac0d2c8b84197a6e6c7cc4e5d9ebe1916a1b6193da2f33a600061050f7f1309a575a1ebd5e5ca64d58e63b864f1d06aed3e31a021b0eabae653c215fb065467ffffffffffffffff1690565b600c83015490915061052a906103e89063ffffffff16610e07565b63ffffffff1661053b826004610e2a565b6105459190610e47565b8311156105875760405162461bcd60e51b815260206004820152601060248201526f696e63726561736520746f6f2062696760801b6044820152606401610248565b610592600482610e5a565b8310156105d45760405162461bcd60e51b815260206004820152601060248201526f646563726561736520746f6f2062696760801b6044820152606401610248565b6105dd83610c1b565b6040518381527f5f238d8cb884e2572aa44d8616f54eb40ec6ea609a10be61b7e3220165548859906020015b60405180910390a1505050565b600080516020610eae833981519152805460009190600160a81b900460ff1661064c5760018101546001600160a01b03166106b9565b805460408051631cc9492560e21b815290516001600160a01b03909216916373252494916004808201926020929091908290030181865afa158015610695573d6000803e3d6000fd5b505050506040513d601f19601f820116820180604052508101906106b99190610e6e565b91505090565b6301ffc9a760e01b6000527fc8fcad8db84d3cc18b4c41d551ea0ee66dd599cde068d998e57d5e09332c131e6020527f673a26ab9c976db950bbe987aa80c5e387f329563bb0afe093ddccc970489e31547fc8fcad8db84d3cc18b4c41d551ea0ee66dd599cde068d998e57d5e09332c131c9060ff166107815760405162461bcd60e51b815260206004820152601760248201527f6469616d6f6e64206e6f7420696e697469616c697a65640000000000000000006044820152606401610248565b635f3d82a960e01b60009081526002820160205260409020805460ff191660011790556107ad82610c1b565b5050565b60006107e57f1309a575a1ebd5e5ca64d58e63b864f1d06aed3e31a021b0eabae653c215fb065467ffffffffffffffff1690565b905090565b600080516020610eae833981519152805460009190600160a01b900460ff16801561087d57508054604051630debfda360e41b81526001600160a01b0385811660048301529091169063debfda3090602401602060405180830381865afa158015610859573d6000803e3d6000fd5b505050506040513d601f19601f8201168201806040525081019061087d9190610e8b565b9392505050565b600080516020610eae8339815191528054600160a01b900460ff16156108e35760405162461bcd60e51b8152602060048201526014602482015273696e697469616c6973656420213d2066616c736560601b6044820152606401610248565b6001600160a01b0383166109395760405162461bcd60e51b815260206004820152601860248201527f676f7665726e616e63652073657474696e6773207a65726f00000000000000006044820152606401610248565b6001600160a01b0382166109825760405162461bcd60e51b815260206004820152601060248201526f5f676f7665726e616e6365207a65726f60801b6044820152606401610248565b80546001600160a01b038481166001600160a81b031990921691909117600160a01b1782556001820180549184166001600160a01b0319909216821790556040519081527f9789733827840833afc031fb2ef9ab6894271f77bad2085687cf4ae5c7bee4db90602001610609565b6109f8610ac4565b600080516020610eae8339815191528054600160a81b900460ff1615610a605760405162461bcd60e51b815260206004820152601a60248201527f616c726561647920696e2070726f64756374696f6e206d6f64650000000000006044820152606401610248565b6001810180546001600160a01b03191690558054600160a81b60ff60a81b1982161782556040516001600160a01b0390911681527f83af113638b5422f9e977cebc0aaf0eaf2188eb9a8baae7f9d46c42b33a1560c9060200160405180910390a150565b610acc610616565b6001600160a01b0316336001600160a01b031614610b1e5760405162461bcd60e51b815260206004820152600f60248201526e6f6e6c7920676f7665726e616e636560881b6044820152606401610248565b565b3d604051818101604052816000823e8215610b39578181f35b8181fd5b60008181527fc6aafbe0f74bbe68eec7559401d7d311a092b5c4d8feb0452323e4ba73d8d8d160208190526040909120547f4f24f5c433db0962dac0d2c8b84197a6e6c7cc4e5d9ebe1916a1b6193da2f33a90801580610bbc57506011820154610bb890600160801b900467ffffffffffffffff1682610e47565b4210155b610c085760405162461bcd60e51b815260206004820152601c60248201527f746f6f20636c6f736520746f2070726576696f757320757064617465000000006044820152606401610248565b5050600091825260205260409020429055565b7f1309a575a1ebd5e5ca64d58e63b864f1d06aed3e31a021b0eabae653c215fb06610c4582610c65565b815467ffffffffffffffff191667ffffffffffffffff9190911617905550565b600067ffffffffffffffff821115610cce5760405162461bcd60e51b815260206004820152602660248201527f53616665436173743a2076616c756520646f65736e27742066697420696e203660448201526534206269747360d01b6064820152608401610248565b5090565b60008060208385031215610ce557600080fd5b823567ffffffffffffffff80821115610cfd57600080fd5b818501915085601f830112610d1157600080fd5b813581811115610d2057600080fd5b866020828501011115610d3257600080fd5b60209290920196919550909350505050565b600060208284031215610d5657600080fd5b5035919050565b6001600160a01b0381168114610d7257600080fd5b50565b600060208284031215610d8757600080fd5b813561087d81610d5d565b60008060408385031215610da557600080fd5b8235610db081610d5d565b91506020830135610dc081610d5d565b809150509250929050565b8183823760009101908152919050565b634e487b7160e01b600052601260045260246000fd5b634e487b7160e01b600052601160045260246000fd5b600063ffffffff80841680610e1e57610e1e610ddb565b92169190910492915050565b8082028115828204841417610e4157610e41610df1565b92915050565b80820180821115610e4157610e41610df1565b600082610e6957610e69610ddb565b500490565b600060208284031215610e8057600080fd5b815161087d81610d5d565b600060208284031215610e9d57600080fd5b8151801515811461087d57600080fdfe2aa47ee5db910f3b2a06970c443249cc77dbd9f96100cfebc1775ab7fb1d1824a26469706673582212205ca5ddd55f1a63a7b366a6bb395717e845f1e4df4b7367b04625f836d6dec84064736f6c63430008170033",
  "linkReferences": {},
  "deployedLinkReferences": {}
}