{
  "_format": "hh-sol-artifact-1",
  "contractName": "SCProofVerifier",
  "sourceName": "contracts/stateConnector/implementation/SCProofVerifier.sol",
  "abi": [
    {
      "inputs": [
        {
          "internalType": "contract IMerkleRootStorage",
          "name": "_merkleRootStorage",
          "type": "address"
        }
      ],
      "stateMutability": "nonpayable",
      "type": "constructor"
    },
    {
      "inputs": [],
      "name": "merkleRootStorage",
      "outputs": [
        {
          "internalType": "contract IMerkleRootStorage",
          "name": "",
          "type": "address"
        }
      ],
      "stateMutability": "view",
      "type": "function"
    },
    {
      "inputs": [
        {
          "components": [
            {
              "internalType": "bytes32[]",
              "name": "merkleProof",
              "type": "bytes32[]"
            },
            {
              "components": [
                {
                  "internalType": "bytes32",
                  "name": "attestationType",
                  "type": "bytes32"
                },
                {
                  "internalType": "bytes32",
                  "name": "sourceId",
                  "type": "bytes32"
                },
                {
                  "internalType": "uint64",
                  "name": "votingRound",
                  "type": "uint64"
                },
                {
                  "internalType": "uint64",
                  "name": "lowestUsedTimestamp",
                  "type": "uint64"
                },
                {
                  "components": [
                    {
                      "internalType": "bytes32",
                      "name": "transactionId",
                      "type": "bytes32"
                    },
                    {
                      "internalType": "bytes32",
                      "name": "sourceAddressIndicator",
                      "type": "bytes32"
                    }
                  ],
                  "internalType": "struct BalanceDecreasingTransaction.RequestBody",
                  "name": "requestBody",
                  "type": "tuple"
                },
                {
                  "components": [
                    {
                      "internalType": "uint64",
                      "name": "blockNumber",
                      "type": "uint64"
                    },
                    {
                      "internalType": "uint64",
                      "name": "blockTimestamp",
                      "type": "uint64"
                    },
                    {
                      "internalType": "bytes32",
                      "name": "sourceAddressHash",
                      "type": "bytes32"
                    },
                    {
                      "internalType": "int256",
                      "name": "spentAmount",
                      "type": "int256"
                    },
                    {
                      "internalType": "bytes32",
                      "name": "standardPaymentReference",
                      "type": "bytes32"
                    }
                  ],
                  "internalType": "struct BalanceDecreasingTransaction.ResponseBody",
                  "name": "responseBody",
                  "type": "tuple"
                }
              ],
              "internalType": "struct BalanceDecreasingTransaction.Response",
              "name": "data",
              "type": "tuple"
            }
          ],
          "internalType": "struct BalanceDecreasingTransaction.Proof",
          "name": "_proof",
          "type": "tuple"
        }
      ],
      "name": "verifyBalanceDecreasingTransaction",
      "outputs": [
        {
          "internalType": "bool",
          "name": "_proved",
          "type": "bool"
        }
      ],
      "stateMutability": "view",
      "type": "function"
    },
    {
      "inputs": [
        {
          "components": [
            {
              "internalType": "bytes32[]",
              "name": "merkleProof",
              "type": "bytes32[]"
            },
            {
              "components": [
                {
                  "internalType": "bytes32",
                  "name": "attestationType",
                  "type": "bytes32"
                },
                {
                  "internalType": "bytes32",
                  "name": "sourceId",
                  "type": "bytes32"
                },
                {
                  "internalType": "uint64",
                  "name": "votingRound",
                  "type": "uint64"
                },
                {
                  "internalType": "uint64",
                  "name": "lowestUsedTimestamp",
                  "type": "uint64"
                },
                {
                  "components": [
                    {
                      "internalType": "uint64",
                      "name": "blockNumber",
                      "type": "uint64"
                    },
                    {
                      "internalType": "uint64",
                      "name": "queryWindow",
                      "type": "uint64"
                    }
                  ],
                  "internalType": "struct ConfirmedBlockHeightExists.RequestBody",
                  "name": "requestBody",
                  "type": "tuple"
                },
                {
                  "components": [
                    {
                      "internalType": "uint64",
                      "name": "blockTimestamp",
                      "type": "uint64"
                    },
                    {
                      "internalType": "uint64",
                      "name": "numberOfConfirmations",
                      "type": "uint64"
                    },
                    {
                      "internalType": "uint64",
                      "name": "lowestQueryWindowBlockNumber",
                      "type": "uint64"
                    },
                    {
                      "internalType": "uint64",
                      "name": "lowestQueryWindowBlockTimestamp",
                      "type": "uint64"
                    }
                  ],
                  "internalType": "struct ConfirmedBlockHeightExists.ResponseBody",
                  "name": "responseBody",
                  "type": "tuple"
                }
              ],
              "internalType": "struct ConfirmedBlockHeightExists.Response",
              "name": "data",
              "type": "tuple"
            }
          ],
          "internalType": "struct ConfirmedBlockHeightExists.Proof",
          "name": "_proof",
          "type": "tuple"
        }
      ],
      "name": "verifyConfirmedBlockHeightExists",
      "outputs": [
        {
          "internalType": "bool",
          "name": "_proved",
          "type": "bool"
        }
      ],
      "stateMutability": "view",
      "type": "function"
    },
    {
      "inputs": [
        {
          "components": [
            {
              "internalType": "bytes32[]",
              "name": "merkleProof",
              "type": "bytes32[]"
            },
            {
              "components": [
                {
                  "internalType": "bytes32",
                  "name": "attestationType",
                  "type": "bytes32"
                },
                {
                  "internalType": "bytes32",
                  "name": "sourceId",
                  "type": "bytes32"
                },
                {
                  "internalType": "uint64",
                  "name": "votingRound",
                  "type": "uint64"
                },
                {
                  "internalType": "uint64",
                  "name": "lowestUsedTimestamp",
                  "type": "uint64"
                },
                {
                  "components": [
                    {
                      "internalType": "bytes32",
                      "name": "transactionId",
                      "type": "bytes32"
                    },
                    {
                      "internalType": "uint256",
                      "name": "inUtxo",
                      "type": "uint256"
                    },
                    {
                      "internalType": "uint256",
                      "name": "utxo",
                      "type": "uint256"
                    }
                  ],
                  "internalType": "struct Payment.RequestBody",
                  "name": "requestBody",
                  "type": "tuple"
                },
                {
                  "components": [
                    {
                      "internalType": "uint64",
                      "name": "blockNumber",
                      "type": "uint64"
                    },
                    {
                      "internalType": "uint64",
                      "name": "blockTimestamp",
                      "type": "uint64"
                    },
                    {
                      "internalType": "bytes32",
                      "name": "sourceAddressHash",
                      "type": "bytes32"
                    },
                    {
                      "internalType": "bytes32",
                      "name": "receivingAddressHash",
                      "type": "bytes32"
                    },
                    {
                      "internalType": "bytes32",
                      "name": "intendedReceivingAddressHash",
                      "type": "bytes32"
                    },
                    {
                      "internalType": "int256",
                      "name": "spentAmount",
                      "type": "int256"
                    },
                    {
                      "internalType": "int256",
                      "name": "intendedSpentAmount",
                      "type": "int256"
                    },
                    {
                      "internalType": "int256",
                      "name": "receivedAmount",
                      "type": "int256"
                    },
                    {
                      "internalType": "int256",
                      "name": "intendedReceivedAmount",
                      "type": "int256"
                    },
                    {
                      "internalType": "bytes32",
                      "name": "standardPaymentReference",
                      "type": "bytes32"
                    },
                    {
                      "internalType": "bool",
                      "name": "oneToOne",
                      "type": "bool"
                    },
                    {
                      "internalType": "uint8",
                      "name": "status",
                      "type": "uint8"
                    }
                  ],
                  "internalType": "struct Payment.ResponseBody",
                  "name": "responseBody",
                  "type": "tuple"
                }
              ],
              "internalType": "struct Payment.Response",
              "name": "data",
              "type": "tuple"
            }
          ],
          "internalType": "struct Payment.Proof",
          "name": "_proof",
          "type": "tuple"
        }
      ],
      "name": "verifyPayment",
      "outputs": [
        {
          "internalType": "bool",
          "name": "_proved",
          "type": "bool"
        }
      ],
      "stateMutability": "view",
      "type": "function"
    },
    {
      "inputs": [
        {
          "components": [
            {
              "internalType": "bytes32[]",
              "name": "merkleProof",
              "type": "bytes32[]"
            },
            {
              "components": [
                {
                  "internalType": "bytes32",
                  "name": "attestationType",
                  "type": "bytes32"
                },
                {
                  "internalType": "bytes32",
                  "name": "sourceId",
                  "type": "bytes32"
                },
                {
                  "internalType": "uint64",
                  "name": "votingRound",
                  "type": "uint64"
                },
                {
                  "internalType": "uint64",
                  "name": "lowestUsedTimestamp",
                  "type": "uint64"
                },
                {
                  "components": [
                    {
                      "internalType": "uint64",
                      "name": "minimalBlockNumber",
                      "type": "uint64"
                    },
                    {
                      "internalType": "uint64",
                      "name": "deadlineBlockNumber",
                      "type": "uint64"
                    },
                    {
                      "internalType": "uint64",
                      "name": "deadlineTimestamp",
                      "type": "uint64"
                    },
                    {
                      "internalType": "bytes32",
                      "name": "destinationAddressHash",
                      "type": "bytes32"
                    },
                    {
                      "internalType": "uint256",
                      "name": "amount",
                      "type": "uint256"
                    },
                    {
                      "internalType": "bytes32",
                      "name": "standardPaymentReference",
                      "type": "bytes32"
                    }
                  ],
                  "internalType": "struct ReferencedPaymentNonexistence.RequestBody",
                  "name": "requestBody",
                  "type": "tuple"
                },
                {
                  "components": [
                    {
                      "internalType": "uint64",
                      "name": "minimalBlockTimestamp",
                      "type": "uint64"
                    },
                    {
                      "internalType": "uint64",
                      "name": "firstOverflowBlockNumber",
                      "type": "uint64"
                    },
                    {
                      "internalType": "uint64",
                      "name": "firstOverflowBlockTimestamp",
                      "type": "uint64"
                    }
                  ],
                  "internalType": "struct ReferencedPaymentNonexistence.ResponseBody",
                  "name": "responseBody",
                  "type": "tuple"
                }
              ],
              "internalType": "struct ReferencedPaymentNonexistence.Response",
              "name": "data",
              "type": "tuple"
            }
          ],
          "internalType": "struct ReferencedPaymentNonexistence.Proof",
          "name": "_proof",
          "type": "tuple"
        }
      ],
      "name": "verifyReferencedPaymentNonexistence",
      "outputs": [
        {
          "internalType": "bool",
          "name": "_proved",
          "type": "bool"
        }
      ],
      "stateMutability": "view",
      "type": "function"
    }
  ],
  "bytecode": "0x60a060405234801561001057600080fd5b50604051610b3c380380610b3c83398101604081905261002f91610040565b6001600160a01b0316608052610070565b60006020828403121561005257600080fd5b81516001600160a01b038116811461006957600080fd5b9392505050565b608051610a966100a660003960008181609c0152818161010b0152818161022e015281816102ee01526103ae0152610a966000f3fe608060405234801561001057600080fd5b50600436106100575760003560e01c80635e30ebfb1461005c5780636ec659c71461008457806377387b30146100975780638cc386ce146100d6578063be4b1ed8146100e9575b600080fd5b61006f61006a3660046104f4565b6100fc565b60405190151581526020015b60405180910390f35b61006f61009236600461052f565b61021f565b6100be7f000000000000000000000000000000000000000000000000000000000000000081565b6040516001600160a01b03909116815260200161007b565b61006f6100e436600461056a565b6102df565b61006f6100f73660046105a5565b61039f565b60006102196001600160a01b037f000000000000000000000000000000000000000000000000000000000000000016633c70b35761014060808601606087016105fc565b6040516001600160e01b031960e084901b1681526001600160401b039091166004820152602401602060405180830381865afa158015610184573d6000803e3d6000fd5b505050506040513d601f19601f820116820180604052508101906101a89190610617565b836020016040516020016101bc9190610630565b60408051601f1981840301815291905280516020909101206101de85806106f2565b8080602002602001604051908101604052809392919081815260200183836020028082843760009201919091525092949392505061045f9050565b92915050565b60006102196001600160a01b037f000000000000000000000000000000000000000000000000000000000000000016633c70b35761026360808601606087016105fc565b6040516001600160e01b031960e084901b1681526001600160401b039091166004820152602401602060405180830381865afa1580156102a7573d6000803e3d6000fd5b505050506040513d601f19601f820116820180604052508101906102cb9190610617565b836020016040516020016101bc9190610742565b60006102196001600160a01b037f000000000000000000000000000000000000000000000000000000000000000016633c70b35761032360808601606087016105fc565b6040516001600160e01b031960e084901b1681526001600160401b039091166004820152602401602060405180830381865afa158015610367573d6000803e3d6000fd5b505050506040513d601f19601f8201168201806040525081019061038b9190610617565b836020016040516020016101bc9190610809565b60006102196001600160a01b037f000000000000000000000000000000000000000000000000000000000000000016633c70b3576103e360808601606087016105fc565b6040516001600160e01b031960e084901b1681526001600160401b039091166004820152602401602060405180830381865afa158015610427573d6000803e3d6000fd5b505050506040513d601f19601f8201168201806040525081019061044b9190610617565b836020016040516020016101bc919061096e565b60008261046c8584610475565b14949350505050565b600081815b84518110156104ba576104a68286838151811061049957610499610a23565b60200260200101516104c2565b9150806104b281610a39565b91505061047a565b509392505050565b60008183106104de5760008281526020849052604090206104ed565b60008381526020839052604090205b9392505050565b60006020828403121561050657600080fd5b81356001600160401b0381111561051c57600080fd5b820161016081850312156104ed57600080fd5b60006020828403121561054157600080fd5b81356001600160401b0381111561055757600080fd5b820161018081850312156104ed57600080fd5b60006020828403121561057c57600080fd5b81356001600160401b0381111561059257600080fd5b820161028081850312156104ed57600080fd5b6000602082840312156105b757600080fd5b81356001600160401b038111156105cd57600080fd5b82016101c081850312156104ed57600080fd5b80356001600160401b03811681146105f757600080fd5b919050565b60006020828403121561060e57600080fd5b6104ed826105e0565b60006020828403121561062957600080fd5b5051919050565b8135815260208083013590820152610140810161064f604084016105e0565b6001600160401b0380821660408501528061066c606087016105e0565b1660608501528061067f608087016105e0565b1660808501528061069260a087016105e0565b1660a0850152806106a560c087016105e0565b1660c0850152806106b860e087016105e0565b1660e08501526101009150806106cf8387016105e0565b16828501526101209150806106e58387016105e0565b1682850152505092915050565b6000808335601e1984360301811261070957600080fd5b8301803591506001600160401b0382111561072357600080fd5b6020019150600581901b360382131561073b57600080fd5b9250929050565b81358152602080830135908201526101608101610761604084016105e0565b6001600160401b0380821660408501528061077e606087016105e0565b1660608501526080850135608085015260a085013560a0850152806107a560c087016105e0565b1660c0850152806107b860e087016105e0565b1660e085015250506101008381013590830152610120808401359083015261014092830135929091019190915290565b803580151581146105f757600080fd5b803560ff811681146105f757600080fd5b81358152602080830135908201526102608101610828604084016105e0565b6001600160401b03808216604085015280610845606087016105e0565b16606085015250506080830135608083015260a083013560a083015260c083013560c083015261088b60e0830161087e60e086016105e0565b6001600160401b03169052565b6101006108998185016105e0565b6001600160401b03169083015261012083810135908301526101408084013590830152610160808401359083015261018080840135908301526101a080840135908301526101c080840135908301526101e08084013590830152610200808401359083015261022061090c8185016107e8565b1515908301526102406109208482016107f8565b60ff16920191909152919050565b6001600160401b0380610940836105e0565b16835280610950602084016105e0565b16602084015280610963604084016105e0565b166040840152505050565b81358152602080830135908201526101a0810161098d604084016105e0565b6001600160401b038082166040850152806109aa606087016105e0565b166060850152806109bd608087016105e0565b166080850152806109d060a087016105e0565b1660a0850152806109e360c087016105e0565b1660c0850152505060e0838101359083015261010080840135908301526101208084013590830152610140610a1c81840182860161092e565b5092915050565b634e487b7160e01b600052603260045260246000fd5b600060018201610a5957634e487b7160e01b600052601160045260246000fd5b506001019056fea26469706673582212203784b7512b089903ec29bf3eb303e29d6fb9f0e59d9ab0bae6fa02ad23c089c364736f6c63430008140033",
  "linkReferences": {},
  "deployedLinkReferences": {}
}