{
  "_format": "hh-sol-artifact-1",
  "contractName": "FtsoRegistryMock",
  "sourceName": "contracts/fasset/mock/FtsoRegistryMock.sol",
  "abi": [
    {
      "inputs": [
        {
          "internalType": "contract IIFtso",
          "name": "_ftsoContract",
          "type": "address"
        }
      ],
      "name": "addFtso",
      "outputs": [
        {
          "internalType": "uint256",
          "name": "",
          "type": "uint256"
        }
      ],
      "stateMutability": "nonpayable",
      "type": "function"
    },
    {
      "inputs": [
        {
          "internalType": "string",
          "name": "_symbol",
          "type": "string"
        }
      ],
      "name": "getCurrentPrice",
      "outputs": [
        {
          "internalType": "uint256",
          "name": "_price",
          "type": "uint256"
        },
        {
          "internalType": "uint256",
          "name": "_timestamp",
          "type": "uint256"
        }
      ],
      "stateMutability": "view",
      "type": "function"
    },
    {
      "inputs": [
        {
          "internalType": "uint256",
          "name": "_ftsoIndex",
          "type": "uint256"
        }
      ],
      "name": "getCurrentPrice",
      "outputs": [
        {
          "internalType": "uint256",
          "name": "_price",
          "type": "uint256"
        },
        {
          "internalType": "uint256",
          "name": "_timestamp",
          "type": "uint256"
        }
      ],
      "stateMutability": "view",
      "type": "function"
    },
    {
      "inputs": [
        {
          "internalType": "uint256",
          "name": "_ftsoIndex",
          "type": "uint256"
        }
      ],
      "name": "getFtso",
      "outputs": [
        {
          "internalType": "contract IIFtso",
          "name": "_activeFtsoAddress",
          "type": "address"
        }
      ],
      "stateMutability": "view",
      "type": "function"
    },
    {
      "inputs": [
        {
          "internalType": "string",
          "name": "_symbol",
          "type": "string"
        }
      ],
      "name": "getFtsoBySymbol",
      "outputs": [
        {
          "internalType": "contract IIFtso",
          "name": "_activeFtsoAddress",
          "type": "address"
        }
      ],
      "stateMutability": "view",
      "type": "function"
    },
    {
      "inputs": [
        {
          "internalType": "string",
          "name": "_symbol",
          "type": "string"
        }
      ],
      "name": "getFtsoIndex",
      "outputs": [
        {
          "internalType": "uint256",
          "name": "",
          "type": "uint256"
        }
      ],
      "stateMutability": "view",
      "type": "function"
    },
    {
      "inputs": [
        {
          "internalType": "uint256",
          "name": "_ftsoIndex",
          "type": "uint256"
        }
      ],
      "name": "getFtsoSymbol",
      "outputs": [
        {
          "internalType": "string",
          "name": "_symbol",
          "type": "string"
        }
      ],
      "stateMutability": "view",
      "type": "function"
    },
    {
      "inputs": [
        {
          "internalType": "uint256[]",
          "name": "_indices",
          "type": "uint256[]"
        }
      ],
      "name": "getFtsos",
      "outputs": [
        {
          "internalType": "contract IFtsoGenesis[]",
          "name": "_ftsos",
          "type": "address[]"
        }
      ],
      "stateMutability": "view",
      "type": "function"
    },
    {
      "inputs": [],
      "name": "getSupportedFtsos",
      "outputs": [
        {
          "internalType": "contract IIFtso[]",
          "name": "_ftsos",
          "type": "address[]"
        }
      ],
      "stateMutability": "view",
      "type": "function"
    },
    {
      "inputs": [],
      "name": "getSupportedIndices",
      "outputs": [
        {
          "internalType": "uint256[]",
          "name": "_supportedIndices",
          "type": "uint256[]"
        }
      ],
      "stateMutability": "view",
      "type": "function"
    },
    {
      "inputs": [],
      "name": "getSupportedIndicesAndFtsos",
      "outputs": [
        {
          "internalType": "uint256[]",
          "name": "_supportedIndices",
          "type": "uint256[]"
        },
        {
          "internalType": "contract IIFtso[]",
          "name": "_ftsos",
          "type": "address[]"
        }
      ],
      "stateMutability": "view",
      "type": "function"
    },
    {
      "inputs": [],
      "name": "getSupportedIndicesAndSymbols",
      "outputs": [
        {
          "internalType": "uint256[]",
          "name": "_supportedIndices",
          "type": "uint256[]"
        },
        {
          "internalType": "string[]",
          "name": "_supportedSymbols",
          "type": "string[]"
        }
      ],
      "stateMutability": "view",
      "type": "function"
    },
    {
      "inputs": [],
      "name": "getSupportedIndicesSymbolsAndFtsos",
      "outputs": [
        {
          "internalType": "uint256[]",
          "name": "_supportedIndices",
          "type": "uint256[]"
        },
        {
          "internalType": "string[]",
          "name": "_supportedSymbols",
          "type": "string[]"
        },
        {
          "internalType": "contract IIFtso[]",
          "name": "_ftsos",
          "type": "address[]"
        }
      ],
      "stateMutability": "view",
      "type": "function"
    },
    {
      "inputs": [],
      "name": "getSupportedSymbols",
      "outputs": [
        {
          "internalType": "string[]",
          "name": "_supportedSymbols",
          "type": "string[]"
        }
      ],
      "stateMutability": "view",
      "type": "function"
    },
    {
      "inputs": [],
      "name": "getSupportedSymbolsAndFtsos",
      "outputs": [
        {
          "internalType": "string[]",
          "name": "_supportedSymbols",
          "type": "string[]"
        },
        {
          "internalType": "contract IIFtso[]",
          "name": "_ftsos",
          "type": "address[]"
        }
      ],
      "stateMutability": "view",
      "type": "function"
    }
  ],
  "bytecode": "0x608060405234801561001057600080fd5b50610ca2806100206000396000f3fe608060405234801561001057600080fd5b50600436106100f55760003560e01c806397da6af411610097578063ce1c0e4d11610066578063ce1c0e4d14610229578063d75f6d811461023e578063e68f283b14610251578063e848da301461026257600080fd5b806397da6af4146101ba5780639cb47538146101e6578063a40060ba14610206578063c55d0f561461021b57600080fd5b80632663f1b4116100d35780632663f1b41461014657806342a0f243146101675780637687542c14610192578063798aac5b146101a557600080fd5b806306a2ba29146100fa5780630cf4849714610114578063136d3f6414610125575b600080fd5b60608060405161010b92919061079f565b60405180910390f35b60608060405161010b929190610881565b610139610133366004610894565b50606090565b60405161010b91906108ad565b6101596101543660046108c0565b610275565b60405190815260200161010b565b61017d610175366004610958565b600080915091565b6040805192835260208301919091520161010b565b6060808060405161010b939291906109d8565b6101ad610356565b60405161010b9190610a1b565b6101ce6101c8366004610958565b50600090565b6040516001600160a01b03909116815260200161010b565b6101f96101f4366004610a2e565b6103ea565b60405161010b9190610ad4565b61020e6104f3565b60405161010b9190610b21565b61017d610175366004610894565b610231610555565b60405161010b9190610b34565b6101ce61024c366004610894565b61066c565b60608060405161010b929190610b47565b610159610270366004610958565b6106ab565b60018054808201825560008281527fb10e2d527612073b26eecdfd717e6a320cf44b4afac2b0732d9fcbe2b7fa0cf6820180546001600160a01b0319166001600160a01b038616179055916102cb908290610b82565b6000846001600160a01b03166395d89b416040518163ffffffff1660e01b8152600401600060405180830381865afa15801561030b573d6000803e3d6000fd5b505050506040513d6000823e601f3d908101601f191682016040526103339190810190610b9a565b6040516103409190610c08565b9081526040519081900360200190205592915050565b60015460609067ffffffffffffffff811115610374576103746108e9565b60405190808252806020026020018201604052801561039d578160200160208202803683370190505b50905060005b81518110156103e6576103b7816001610b82565b8282815181106103c9576103c9610c24565b6020908102919091010152806103de81610c3a565b9150506103a3565b5090565b6060815167ffffffffffffffff811115610406576104066108e9565b60405190808252806020026020018201604052801561042f578160200160208202803683370190505b50905060005b82518110156104ed57600154835184908390811061045557610455610c24565b60200260200101511061046757600080fd5b600183828151811061047b5761047b610c24565b60200260200101518154811061049357610493610c24565b9060005260206000200160009054906101000a90046001600160a01b03168282815181106104c3576104c3610c24565b6001600160a01b0390921660209283029190910190910152806104e581610c3a565b915050610435565b50919050565b6060600180548060200260200160405190810160405280929190818152602001828054801561054b57602002820191906000526020600020905b81546001600160a01b0316815260019091019060200180831161052d575b5050505050905090565b60015460609067ffffffffffffffff811115610573576105736108e9565b6040519080825280602002602001820160405280156105a657816020015b60608152602001906001900390816105915790505b50905060005b81518110156103e657600181815481106105c8576105c8610c24565b6000918252602082200154604080516395d89b4160e01b815290516001600160a01b03909216926395d89b41926004808401938290030181865afa158015610614573d6000803e3d6000fd5b505050506040513d6000823e601f3d908101601f1916820160405261063c9190810190610b9a565b82828151811061064e5761064e610c24565b6020026020010181905250808061066490610c3a565b9150506105ac565b600154600090821061067d57600080fd5b6001828154811061069057610690610c24565b6000918252602090912001546001600160a01b031692915050565b6000806000836040516106be9190610c08565b9081526020016040518091039020549050600081116107195760405162461bcd60e51b81526020600482015260136024820152721d5b9adb9bdddb88199d1cdbc81cde5b589bdb606a1b604482015260640160405180910390fd5b610724600182610c55565b9392505050565b600081518084526020808501945080840160005b8381101561075b5781518752958201959082019060010161073f565b509495945050505050565b600081518084526020808501945080840160005b8381101561075b5781516001600160a01b03168752958201959082019060010161077a565b6040815260006107b2604083018561072b565b82810360208401526107c48185610766565b95945050505050565b60005b838110156107e85781810151838201526020016107d0565b838111156107f7576000848401525b50505050565b600081518084526108158160208601602086016107cd565b601f01601f19169290920160200192915050565b600082825180855260208086019550808260051b84010181860160005b8481101561087457601f198684030189526108628383516107fd565b98840198925090830190600101610846565b5090979650505050505050565b6040815260006107b26040830185610829565b6000602082840312156108a657600080fd5b5035919050565b60208152600061072460208301846107fd565b6000602082840312156108d257600080fd5b81356001600160a01b038116811461072457600080fd5b634e487b7160e01b600052604160045260246000fd5b604051601f8201601f1916810167ffffffffffffffff81118282101715610928576109286108e9565b604052919050565b600067ffffffffffffffff82111561094a5761094a6108e9565b50601f01601f191660200190565b60006020828403121561096a57600080fd5b813567ffffffffffffffff81111561098157600080fd5b8201601f8101841361099257600080fd5b80356109a56109a082610930565b6108ff565b8181528560208385010111156109ba57600080fd5b81602084016020830137600091810160200191909152949350505050565b6060815260006109eb606083018661072b565b82810360208401526109fd8186610829565b90508281036040840152610a118185610766565b9695505050505050565b602081526000610724602083018461072b565b60006020808385031215610a4157600080fd5b823567ffffffffffffffff80821115610a5957600080fd5b818501915085601f830112610a6d57600080fd5b813581811115610a7f57610a7f6108e9565b8060051b9150610a908483016108ff565b8181529183018401918481019088841115610aaa57600080fd5b938501935b83851015610ac857843582529385019390850190610aaf565b98975050505050505050565b6020808252825182820181905260009190848201906040850190845b81811015610b155783516001600160a01b031683529284019291840191600101610af0565b50909695505050505050565b6020815260006107246020830184610766565b6020815260006107246020830184610829565b604081526000610b5a604083018561072b565b82810360208401526107c48185610829565b634e487b7160e01b600052601160045260246000fd5b60008219821115610b9557610b95610b6c565b500190565b600060208284031215610bac57600080fd5b815167ffffffffffffffff811115610bc357600080fd5b8201601f81018413610bd457600080fd5b8051610be26109a082610930565b818152856020838501011115610bf757600080fd5b6107c48260208301602086016107cd565b60008251610c1a8184602087016107cd565b9190910192915050565b634e487b7160e01b600052603260045260246000fd5b6000600019821415610c4e57610c4e610b6c565b5060010190565b600082821015610c6757610c67610b6c565b50039056fea26469706673582212208cf4ef9fb10b5f593ffaf6bca48a3e13cb37dd581c7bbaa4f8fef455438ce6ec64736f6c634300080b0033",
  "linkReferences": {},
  "deployedLinkReferences": {}
}