{
  "_format": "hh-sol-artifact-1",
  "contractName": "FtsoRegistryMock",
  "sourceName": "contracts/fasset/mock/FtsoRegistryMock.sol",
  "abi": [
    {
      "inputs": [
        {
          "internalType": "contract IIFtso",
          "name": "_ftsoContract",
          "type": "address"
        }
      ],
      "name": "addFtso",
      "outputs": [
        {
          "internalType": "uint256",
          "name": "",
          "type": "uint256"
        }
      ],
      "stateMutability": "nonpayable",
      "type": "function"
    },
    {
      "inputs": [],
      "name": "getAllCurrentPrices",
      "outputs": [
        {
          "components": [
            {
              "internalType": "uint256",
              "name": "ftsoIndex",
              "type": "uint256"
            },
            {
              "internalType": "uint256",
              "name": "price",
              "type": "uint256"
            },
            {
              "internalType": "uint256",
              "name": "decimals",
              "type": "uint256"
            },
            {
              "internalType": "uint256",
              "name": "timestamp",
              "type": "uint256"
            }
          ],
          "internalType": "struct IFtsoRegistry.PriceInfo[]",
          "name": "",
          "type": "tuple[]"
        }
      ],
      "stateMutability": "view",
      "type": "function"
    },
    {
      "inputs": [
        {
          "internalType": "string",
          "name": "_symbol",
          "type": "string"
        }
      ],
      "name": "getCurrentPrice",
      "outputs": [
        {
          "internalType": "uint256",
          "name": "_price",
          "type": "uint256"
        },
        {
          "internalType": "uint256",
          "name": "_timestamp",
          "type": "uint256"
        }
      ],
      "stateMutability": "view",
      "type": "function"
    },
    {
      "inputs": [
        {
          "internalType": "uint256",
          "name": "_ftsoIndex",
          "type": "uint256"
        }
      ],
      "name": "getCurrentPrice",
      "outputs": [
        {
          "internalType": "uint256",
          "name": "_price",
          "type": "uint256"
        },
        {
          "internalType": "uint256",
          "name": "_timestamp",
          "type": "uint256"
        }
      ],
      "stateMutability": "view",
      "type": "function"
    },
    {
      "inputs": [
        {
          "internalType": "uint256",
          "name": "_ftsoIndex",
          "type": "uint256"
        }
      ],
      "name": "getCurrentPriceWithDecimals",
      "outputs": [
        {
          "internalType": "uint256",
          "name": "_price",
          "type": "uint256"
        },
        {
          "internalType": "uint256",
          "name": "_timestamp",
          "type": "uint256"
        },
        {
          "internalType": "uint256",
          "name": "_assetPriceUsdDecimals",
          "type": "uint256"
        }
      ],
      "stateMutability": "view",
      "type": "function"
    },
    {
      "inputs": [
        {
          "internalType": "string",
          "name": "_symbol",
          "type": "string"
        }
      ],
      "name": "getCurrentPriceWithDecimals",
      "outputs": [
        {
          "internalType": "uint256",
          "name": "_price",
          "type": "uint256"
        },
        {
          "internalType": "uint256",
          "name": "_timestamp",
          "type": "uint256"
        },
        {
          "internalType": "uint256",
          "name": "_assetPriceUsdDecimals",
          "type": "uint256"
        }
      ],
      "stateMutability": "view",
      "type": "function"
    },
    {
      "inputs": [
        {
          "internalType": "uint256[]",
          "name": "_indices",
          "type": "uint256[]"
        }
      ],
      "name": "getCurrentPricesByIndices",
      "outputs": [
        {
          "components": [
            {
              "internalType": "uint256",
              "name": "ftsoIndex",
              "type": "uint256"
            },
            {
              "internalType": "uint256",
              "name": "price",
              "type": "uint256"
            },
            {
              "internalType": "uint256",
              "name": "decimals",
              "type": "uint256"
            },
            {
              "internalType": "uint256",
              "name": "timestamp",
              "type": "uint256"
            }
          ],
          "internalType": "struct IFtsoRegistry.PriceInfo[]",
          "name": "",
          "type": "tuple[]"
        }
      ],
      "stateMutability": "view",
      "type": "function"
    },
    {
      "inputs": [
        {
          "internalType": "string[]",
          "name": "_symbols",
          "type": "string[]"
        }
      ],
      "name": "getCurrentPricesBySymbols",
      "outputs": [
        {
          "components": [
            {
              "internalType": "uint256",
              "name": "ftsoIndex",
              "type": "uint256"
            },
            {
              "internalType": "uint256",
              "name": "price",
              "type": "uint256"
            },
            {
              "internalType": "uint256",
              "name": "decimals",
              "type": "uint256"
            },
            {
              "internalType": "uint256",
              "name": "timestamp",
              "type": "uint256"
            }
          ],
          "internalType": "struct IFtsoRegistry.PriceInfo[]",
          "name": "",
          "type": "tuple[]"
        }
      ],
      "stateMutability": "view",
      "type": "function"
    },
    {
      "inputs": [
        {
          "internalType": "uint256",
          "name": "_ftsoIndex",
          "type": "uint256"
        }
      ],
      "name": "getFtso",
      "outputs": [
        {
          "internalType": "contract IIFtso",
          "name": "_activeFtsoAddress",
          "type": "address"
        }
      ],
      "stateMutability": "view",
      "type": "function"
    },
    {
      "inputs": [
        {
          "internalType": "string",
          "name": "_symbol",
          "type": "string"
        }
      ],
      "name": "getFtsoBySymbol",
      "outputs": [
        {
          "internalType": "contract IIFtso",
          "name": "_activeFtsoAddress",
          "type": "address"
        }
      ],
      "stateMutability": "view",
      "type": "function"
    },
    {
      "inputs": [
        {
          "internalType": "string",
          "name": "_symbol",
          "type": "string"
        }
      ],
      "name": "getFtsoIndex",
      "outputs": [
        {
          "internalType": "uint256",
          "name": "",
          "type": "uint256"
        }
      ],
      "stateMutability": "view",
      "type": "function"
    },
    {
      "inputs": [
        {
          "internalType": "uint256",
          "name": "_ftsoIndex",
          "type": "uint256"
        }
      ],
      "name": "getFtsoSymbol",
      "outputs": [
        {
          "internalType": "string",
          "name": "_symbol",
          "type": "string"
        }
      ],
      "stateMutability": "view",
      "type": "function"
    },
    {
      "inputs": [
        {
          "internalType": "uint256[]",
          "name": "_indices",
          "type": "uint256[]"
        }
      ],
      "name": "getFtsos",
      "outputs": [
        {
          "internalType": "contract IFtsoGenesis[]",
          "name": "_ftsos",
          "type": "address[]"
        }
      ],
      "stateMutability": "view",
      "type": "function"
    },
    {
      "inputs": [],
      "name": "getSupportedFtsos",
      "outputs": [
        {
          "internalType": "contract IIFtso[]",
          "name": "_ftsos",
          "type": "address[]"
        }
      ],
      "stateMutability": "view",
      "type": "function"
    },
    {
      "inputs": [],
      "name": "getSupportedIndices",
      "outputs": [
        {
          "internalType": "uint256[]",
          "name": "_supportedIndices",
          "type": "uint256[]"
        }
      ],
      "stateMutability": "view",
      "type": "function"
    },
    {
      "inputs": [],
      "name": "getSupportedIndicesAndFtsos",
      "outputs": [
        {
          "internalType": "uint256[]",
          "name": "_supportedIndices",
          "type": "uint256[]"
        },
        {
          "internalType": "contract IIFtso[]",
          "name": "_ftsos",
          "type": "address[]"
        }
      ],
      "stateMutability": "view",
      "type": "function"
    },
    {
      "inputs": [],
      "name": "getSupportedIndicesAndSymbols",
      "outputs": [
        {
          "internalType": "uint256[]",
          "name": "_supportedIndices",
          "type": "uint256[]"
        },
        {
          "internalType": "string[]",
          "name": "_supportedSymbols",
          "type": "string[]"
        }
      ],
      "stateMutability": "view",
      "type": "function"
    },
    {
      "inputs": [],
      "name": "getSupportedIndicesSymbolsAndFtsos",
      "outputs": [
        {
          "internalType": "uint256[]",
          "name": "_supportedIndices",
          "type": "uint256[]"
        },
        {
          "internalType": "string[]",
          "name": "_supportedSymbols",
          "type": "string[]"
        },
        {
          "internalType": "contract IIFtso[]",
          "name": "_ftsos",
          "type": "address[]"
        }
      ],
      "stateMutability": "view",
      "type": "function"
    },
    {
      "inputs": [],
      "name": "getSupportedSymbols",
      "outputs": [
        {
          "internalType": "string[]",
          "name": "_supportedSymbols",
          "type": "string[]"
        }
      ],
      "stateMutability": "view",
      "type": "function"
    },
    {
      "inputs": [],
      "name": "getSupportedSymbolsAndFtsos",
      "outputs": [
        {
          "internalType": "string[]",
          "name": "_supportedSymbols",
          "type": "string[]"
        },
        {
          "internalType": "contract IIFtso[]",
          "name": "_ftsos",
          "type": "address[]"
        }
      ],
      "stateMutability": "view",
      "type": "function"
    }
  ],
  "bytecode": "0x608060405234801561001057600080fd5b50610fc8806100206000396000f3fe608060405234801561001057600080fd5b506004361061012c5760003560e01c806379d5ea4b116100ad578063c55d0f5611610071578063c55d0f56146102bb578063ce1c0e4d146102ce578063d75f6d81146102e3578063e68f283b146102f6578063e848da301461030757600080fd5b806379d5ea4b1461023a57806397da6af4146102485780639cb4753814610273578063a40060ba14610293578063a69afdc6146102a857600080fd5b806342a0f243116100f457806342a0f243146101cc57806358f9296f146101f45780636ba31fa1146102045780637687542c14610212578063798aac5b1461022557600080fd5b806306a2ba29146101315780630cf484971461014b578063136d3f641461015c578063257cbd3a1461017d5780632663f1b4146101ab575b600080fd5b606080604051610142929190610963565b60405180910390f35b606080604051610142929190610a36565b61017061016a366004610a49565b50606090565b6040516101429190610a62565b61019061018b366004610a49565b61031a565b60408051938452602084019290925290820152606001610142565b6101be6101b9366004610a75565b610396565b604051908152602001610142565b6101df6101da366004610b63565b610477565b60408051928352602083019190915201610142565b60605b6040516101429190610ba0565b6101f761016a366004610c1b565b6060808060405161014293929190610cac565b61022d6104ec565b6040516101429190610cef565b6101f761016a366004610d02565b61025b610256366004610b63565b610580565b6040516001600160a01b039091168152602001610142565b610286610281366004610c1b565b610594565b6040516101429190610db3565b61029b61069d565b6040516101429190610e00565b6101906102b6366004610b63565b6106ff565b6101df6102c9366004610a49565b61070d565b6102d6610719565b6040516101429190610e13565b61025b6102f1366004610a49565b610830565b606080604051610142929190610e26565b6101be610315366004610b63565b61086f565b600080600061032884610830565b6001600160a01b03166365f5cd866040518163ffffffff1660e01b8152600401606060405180830381865afa158015610365573d6000803e3d6000fd5b505050506040513d601f19601f820116820180604052508101906103899190610e4b565b9250925092509193909250565b60018054808201825560008281527fb10e2d527612073b26eecdfd717e6a320cf44b4afac2b0732d9fcbe2b7fa0cf6820180546001600160a01b0319166001600160a01b038616179055916103ec908290610e8f565b6000846001600160a01b03166395d89b416040518163ffffffff1660e01b8152600401600060405180830381865afa15801561042c573d6000803e3d6000fd5b505050506040513d6000823e601f3d908101601f191682016040526104549190810190610ea2565b6040516104619190610f10565b9081526040519081900360200190205592915050565b60008061048383610580565b6001600160a01b031663eb91d37e6040518163ffffffff1660e01b81526004016040805180830381865afa1580156104bf573d6000803e3d6000fd5b505050506040513d601f19601f820116820180604052508101906104e39190610f2c565b91509150915091565b60015460609067ffffffffffffffff81111561050a5761050a610a9e565b604051908082528060200260200182016040528015610533578160200160208202803683370190505b50905060005b815181101561057c5761054d816001610e8f565b82828151811061055f5761055f610f50565b60209081029190910101528061057481610f66565b915050610539565b5090565b600061058e6102f18361086f565b92915050565b6060815167ffffffffffffffff8111156105b0576105b0610a9e565b6040519080825280602002602001820160405280156105d9578160200160208202803683370190505b50905060005b82518110156106975760015483518490839081106105ff576105ff610f50565b60200260200101511061061157600080fd5b600183828151811061062557610625610f50565b60200260200101518154811061063d5761063d610f50565b9060005260206000200160009054906101000a90046001600160a01b031682828151811061066d5761066d610f50565b6001600160a01b03909216602092830291909101909101528061068f81610f66565b9150506105df565b50919050565b606060018054806020026020016040519081016040528092919081815260200182805480156106f557602002820191906000526020600020905b81546001600160a01b031681526001909101906020018083116106d7575b5050505050905090565b600080600061032884610580565b60008061048383610830565b60015460609067ffffffffffffffff81111561073757610737610a9e565b60405190808252806020026020018201604052801561076a57816020015b60608152602001906001900390816107555790505b50905060005b815181101561057c576001818154811061078c5761078c610f50565b6000918252602082200154604080516395d89b4160e01b815290516001600160a01b03909216926395d89b41926004808401938290030181865afa1580156107d8573d6000803e3d6000fd5b505050506040513d6000823e601f3d908101601f191682016040526108009190810190610ea2565b82828151811061081257610812610f50565b6020026020010181905250808061082890610f66565b915050610770565b600154600090821061084157600080fd5b6001828154811061085457610854610f50565b6000918252602090912001546001600160a01b031692915050565b6000806000836040516108829190610f10565b9081526020016040518091039020549050600081116108dd5760405162461bcd60e51b81526020600482015260136024820152721d5b9adb9bdddb88199d1cdbc81cde5b589bdb606a1b604482015260640160405180910390fd5b6108e8600182610f7f565b9392505050565b600081518084526020808501945080840160005b8381101561091f57815187529582019590820190600101610903565b509495945050505050565b600081518084526020808501945080840160005b8381101561091f5781516001600160a01b03168752958201959082019060010161093e565b60408152600061097660408301856108ef565b8281036020840152610988818561092a565b95945050505050565b60005b838110156109ac578181015183820152602001610994565b50506000910152565b600081518084526109cd816020860160208601610991565b601f01601f19169290920160200192915050565b600081518084526020808501808196508360051b8101915082860160005b85811015610a29578284038952610a178483516109b5565b988501989350908401906001016109ff565b5091979650505050505050565b60408152600061097660408301856109e1565b600060208284031215610a5b57600080fd5b5035919050565b6020815260006108e860208301846109b5565b600060208284031215610a8757600080fd5b81356001600160a01b03811681146108e857600080fd5b634e487b7160e01b600052604160045260246000fd5b604051601f8201601f1916810167ffffffffffffffff81118282101715610add57610add610a9e565b604052919050565b600067ffffffffffffffff821115610aff57610aff610a9e565b50601f01601f191660200190565b600082601f830112610b1e57600080fd5b8135610b31610b2c82610ae5565b610ab4565b818152846020838601011115610b4657600080fd5b816020850160208301376000918101602001919091529392505050565b600060208284031215610b7557600080fd5b813567ffffffffffffffff811115610b8c57600080fd5b610b9884828501610b0d565b949350505050565b602080825282518282018190526000919060409081850190868401855b82811015610a2957815180518552868101518786015285810151868601526060908101519085015260809093019290850190600101610bbd565b600067ffffffffffffffff821115610c1157610c11610a9e565b5060051b60200190565b60006020808385031215610c2e57600080fd5b823567ffffffffffffffff811115610c4557600080fd5b8301601f81018513610c5657600080fd5b8035610c64610b2c82610bf7565b81815260059190911b82018301908381019087831115610c8357600080fd5b928401925b82841015610ca157833582529284019290840190610c88565b979650505050505050565b606081526000610cbf60608301866108ef565b8281036020840152610cd181866109e1565b90508281036040840152610ce5818561092a565b9695505050505050565b6020815260006108e860208301846108ef565b60006020808385031215610d1557600080fd5b823567ffffffffffffffff80821115610d2d57600080fd5b818501915085601f830112610d4157600080fd5b8135610d4f610b2c82610bf7565b81815260059190911b83018401908481019088831115610d6e57600080fd5b8585015b83811015610da657803585811115610d8a5760008081fd5b610d988b89838a0101610b0d565b845250918601918601610d72565b5098975050505050505050565b6020808252825182820181905260009190848201906040850190845b81811015610df45783516001600160a01b031683529284019291840191600101610dcf565b50909695505050505050565b6020815260006108e8602083018461092a565b6020815260006108e860208301846109e1565b604081526000610e3960408301856108ef565b828103602084015261098881856109e1565b600080600060608486031215610e6057600080fd5b8351925060208401519150604084015190509250925092565b634e487b7160e01b600052601160045260246000fd5b8082018082111561058e5761058e610e79565b600060208284031215610eb457600080fd5b815167ffffffffffffffff811115610ecb57600080fd5b8201601f81018413610edc57600080fd5b8051610eea610b2c82610ae5565b818152856020838501011115610eff57600080fd5b610988826020830160208601610991565b60008251610f22818460208701610991565b9190910192915050565b60008060408385031215610f3f57600080fd5b505080516020909101519092909150565b634e487b7160e01b600052603260045260246000fd5b600060018201610f7857610f78610e79565b5060010190565b8181038181111561058e5761058e610e7956fea264697066735822122072cd41687e7044b1b3cd70e592b5be55c7f53d988c1b8d3c3f278891b1a60e6864736f6c63430008140033",
  "linkReferences": {},
  "deployedLinkReferences": {}
}