{
  "_format": "hh-sol-artifact-1",
  "contractName": "FtsoRegistryMock",
  "sourceName": "contracts/fasset/mock/FtsoRegistryMock.sol",
  "abi": [
    {
      "inputs": [
        {
          "internalType": "contract IIFtso",
          "name": "_ftsoContract",
          "type": "address"
        }
      ],
      "name": "addFtso",
      "outputs": [
        {
          "internalType": "uint256",
          "name": "",
          "type": "uint256"
        }
      ],
      "stateMutability": "nonpayable",
      "type": "function"
    },
    {
      "inputs": [
        {
          "internalType": "string",
          "name": "_symbol",
          "type": "string"
        }
      ],
      "name": "getCurrentPrice",
      "outputs": [
        {
          "internalType": "uint256",
          "name": "_price",
          "type": "uint256"
        },
        {
          "internalType": "uint256",
          "name": "_timestamp",
          "type": "uint256"
        }
      ],
      "stateMutability": "view",
      "type": "function"
    },
    {
      "inputs": [
        {
          "internalType": "uint256",
          "name": "_ftsoIndex",
          "type": "uint256"
        }
      ],
      "name": "getCurrentPrice",
      "outputs": [
        {
          "internalType": "uint256",
          "name": "_price",
          "type": "uint256"
        },
        {
          "internalType": "uint256",
          "name": "_timestamp",
          "type": "uint256"
        }
      ],
      "stateMutability": "view",
      "type": "function"
    },
    {
      "inputs": [
        {
          "internalType": "uint256",
          "name": "_ftsoIndex",
          "type": "uint256"
        }
      ],
      "name": "getFtso",
      "outputs": [
        {
          "internalType": "contract IIFtso",
          "name": "_activeFtsoAddress",
          "type": "address"
        }
      ],
      "stateMutability": "view",
      "type": "function"
    },
    {
      "inputs": [
        {
          "internalType": "string",
          "name": "_symbol",
          "type": "string"
        }
      ],
      "name": "getFtsoBySymbol",
      "outputs": [
        {
          "internalType": "contract IIFtso",
          "name": "_activeFtsoAddress",
          "type": "address"
        }
      ],
      "stateMutability": "view",
      "type": "function"
    },
    {
      "inputs": [
        {
          "internalType": "string",
          "name": "_symbol",
          "type": "string"
        }
      ],
      "name": "getFtsoIndex",
      "outputs": [
        {
          "internalType": "uint256",
          "name": "",
          "type": "uint256"
        }
      ],
      "stateMutability": "view",
      "type": "function"
    },
    {
      "inputs": [
        {
          "internalType": "uint256",
          "name": "_ftsoIndex",
          "type": "uint256"
        }
      ],
      "name": "getFtsoSymbol",
      "outputs": [
        {
          "internalType": "string",
          "name": "_symbol",
          "type": "string"
        }
      ],
      "stateMutability": "view",
      "type": "function"
    },
    {
      "inputs": [
        {
          "internalType": "uint256[]",
          "name": "_indices",
          "type": "uint256[]"
        }
      ],
      "name": "getFtsos",
      "outputs": [
        {
          "internalType": "contract IFtsoGenesis[]",
          "name": "_ftsos",
          "type": "address[]"
        }
      ],
      "stateMutability": "view",
      "type": "function"
    },
    {
      "inputs": [],
      "name": "getSupportedFtsos",
      "outputs": [
        {
          "internalType": "contract IIFtso[]",
          "name": "_ftsos",
          "type": "address[]"
        }
      ],
      "stateMutability": "view",
      "type": "function"
    },
    {
      "inputs": [],
      "name": "getSupportedIndices",
      "outputs": [
        {
          "internalType": "uint256[]",
          "name": "_supportedIndices",
          "type": "uint256[]"
        }
      ],
      "stateMutability": "view",
      "type": "function"
    },
    {
      "inputs": [],
      "name": "getSupportedIndicesAndFtsos",
      "outputs": [
        {
          "internalType": "uint256[]",
          "name": "_supportedIndices",
          "type": "uint256[]"
        },
        {
          "internalType": "contract IIFtso[]",
          "name": "_ftsos",
          "type": "address[]"
        }
      ],
      "stateMutability": "view",
      "type": "function"
    },
    {
      "inputs": [],
      "name": "getSupportedIndicesAndSymbols",
      "outputs": [
        {
          "internalType": "uint256[]",
          "name": "_supportedIndices",
          "type": "uint256[]"
        },
        {
          "internalType": "string[]",
          "name": "_supportedSymbols",
          "type": "string[]"
        }
      ],
      "stateMutability": "view",
      "type": "function"
    },
    {
      "inputs": [],
      "name": "getSupportedIndicesSymbolsAndFtsos",
      "outputs": [
        {
          "internalType": "uint256[]",
          "name": "_supportedIndices",
          "type": "uint256[]"
        },
        {
          "internalType": "string[]",
          "name": "_supportedSymbols",
          "type": "string[]"
        },
        {
          "internalType": "contract IIFtso[]",
          "name": "_ftsos",
          "type": "address[]"
        }
      ],
      "stateMutability": "view",
      "type": "function"
    },
    {
      "inputs": [],
      "name": "getSupportedSymbols",
      "outputs": [
        {
          "internalType": "string[]",
          "name": "_supportedSymbols",
          "type": "string[]"
        }
      ],
      "stateMutability": "view",
      "type": "function"
    },
    {
      "inputs": [],
      "name": "getSupportedSymbolsAndFtsos",
      "outputs": [
        {
          "internalType": "string[]",
          "name": "_supportedSymbols",
          "type": "string[]"
        },
        {
          "internalType": "contract IIFtso[]",
          "name": "_ftsos",
          "type": "address[]"
        }
      ],
      "stateMutability": "view",
      "type": "function"
    }
  ],
  "bytecode": "0x608060405234801561001057600080fd5b50610cb5806100206000396000f3fe608060405234801561001057600080fd5b50600436106100f55760003560e01c806397da6af411610097578063ce1c0e4d11610066578063ce1c0e4d14610228578063d75f6d811461023d578063e68f283b14610250578063e848da301461026157600080fd5b806397da6af4146101ba5780639cb47538146101e5578063a40060ba14610205578063c55d0f561461021a57600080fd5b80632663f1b4116100d35780632663f1b41461014657806342a0f243146101675780637687542c14610192578063798aac5b146101a557600080fd5b806306a2ba29146100fa5780630cf4849714610114578063136d3f6414610125575b600080fd5b60608060405161010b9291906107b2565b60405180910390f35b60608060405161010b929190610894565b6101396101333660046108a7565b50606090565b60405161010b91906108c0565b6101596101543660046108d3565b610274565b60405190815260200161010b565b61017d61017536600461096b565b600080915091565b6040805192835260208301919091520161010b565b6060808060405161010b939291906109eb565b6101ad610355565b60405161010b9190610a2e565b6101cd6101c836600461096b565b6103e9565b6040516001600160a01b03909116815260200161010b565b6101f86101f3366004610a41565b6103fd565b60405161010b9190610ae7565b61020d610506565b60405161010b9190610b34565b61017d6101753660046108a7565b610230610568565b60405161010b9190610b47565b6101cd61024b3660046108a7565b61067f565b60608060405161010b929190610b5a565b61015961026f36600461096b565b6106be565b60018054808201825560008281527fb10e2d527612073b26eecdfd717e6a320cf44b4afac2b0732d9fcbe2b7fa0cf6820180546001600160a01b0319166001600160a01b038616179055916102ca908290610b95565b6000846001600160a01b03166395d89b416040518163ffffffff1660e01b8152600401600060405180830381865afa15801561030a573d6000803e3d6000fd5b505050506040513d6000823e601f3d908101601f191682016040526103329190810190610bad565b60405161033f9190610c1b565b9081526040519081900360200190205592915050565b60015460609067ffffffffffffffff811115610373576103736108fc565b60405190808252806020026020018201604052801561039c578160200160208202803683370190505b50905060005b81518110156103e5576103b6816001610b95565b8282815181106103c8576103c8610c37565b6020908102919091010152806103dd81610c4d565b9150506103a2565b5090565b60006103f761024b836106be565b92915050565b6060815167ffffffffffffffff811115610419576104196108fc565b604051908082528060200260200182016040528015610442578160200160208202803683370190505b50905060005b825181101561050057600154835184908390811061046857610468610c37565b60200260200101511061047a57600080fd5b600183828151811061048e5761048e610c37565b6020026020010151815481106104a6576104a6610c37565b9060005260206000200160009054906101000a90046001600160a01b03168282815181106104d6576104d6610c37565b6001600160a01b0390921660209283029190910190910152806104f881610c4d565b915050610448565b50919050565b6060600180548060200260200160405190810160405280929190818152602001828054801561055e57602002820191906000526020600020905b81546001600160a01b03168152600190910190602001808311610540575b5050505050905090565b60015460609067ffffffffffffffff811115610586576105866108fc565b6040519080825280602002602001820160405280156105b957816020015b60608152602001906001900390816105a45790505b50905060005b81518110156103e557600181815481106105db576105db610c37565b6000918252602082200154604080516395d89b4160e01b815290516001600160a01b03909216926395d89b41926004808401938290030181865afa158015610627573d6000803e3d6000fd5b505050506040513d6000823e601f3d908101601f1916820160405261064f9190810190610bad565b82828151811061066157610661610c37565b6020026020010181905250808061067790610c4d565b9150506105bf565b600154600090821061069057600080fd5b600182815481106106a3576106a3610c37565b6000918252602090912001546001600160a01b031692915050565b6000806000836040516106d19190610c1b565b90815260200160405180910390205490506000811161072c5760405162461bcd60e51b81526020600482015260136024820152721d5b9adb9bdddb88199d1cdbc81cde5b589bdb606a1b604482015260640160405180910390fd5b610737600182610c68565b9392505050565b600081518084526020808501945080840160005b8381101561076e57815187529582019590820190600101610752565b509495945050505050565b600081518084526020808501945080840160005b8381101561076e5781516001600160a01b03168752958201959082019060010161078d565b6040815260006107c5604083018561073e565b82810360208401526107d78185610779565b95945050505050565b60005b838110156107fb5781810151838201526020016107e3565b8381111561080a576000848401525b50505050565b600081518084526108288160208601602086016107e0565b601f01601f19169290920160200192915050565b600082825180855260208086019550808260051b84010181860160005b8481101561088757601f19868403018952610875838351610810565b98840198925090830190600101610859565b5090979650505050505050565b6040815260006107c5604083018561083c565b6000602082840312156108b957600080fd5b5035919050565b6020815260006107376020830184610810565b6000602082840312156108e557600080fd5b81356001600160a01b038116811461073757600080fd5b634e487b7160e01b600052604160045260246000fd5b604051601f8201601f1916810167ffffffffffffffff8111828210171561093b5761093b6108fc565b604052919050565b600067ffffffffffffffff82111561095d5761095d6108fc565b50601f01601f191660200190565b60006020828403121561097d57600080fd5b813567ffffffffffffffff81111561099457600080fd5b8201601f810184136109a557600080fd5b80356109b86109b382610943565b610912565b8181528560208385010111156109cd57600080fd5b81602084016020830137600091810160200191909152949350505050565b6060815260006109fe606083018661073e565b8281036020840152610a10818661083c565b90508281036040840152610a248185610779565b9695505050505050565b602081526000610737602083018461073e565b60006020808385031215610a5457600080fd5b823567ffffffffffffffff80821115610a6c57600080fd5b818501915085601f830112610a8057600080fd5b813581811115610a9257610a926108fc565b8060051b9150610aa3848301610912565b8181529183018401918481019088841115610abd57600080fd5b938501935b83851015610adb57843582529385019390850190610ac2565b98975050505050505050565b6020808252825182820181905260009190848201906040850190845b81811015610b285783516001600160a01b031683529284019291840191600101610b03565b50909695505050505050565b6020815260006107376020830184610779565b602081526000610737602083018461083c565b604081526000610b6d604083018561073e565b82810360208401526107d7818561083c565b634e487b7160e01b600052601160045260246000fd5b60008219821115610ba857610ba8610b7f565b500190565b600060208284031215610bbf57600080fd5b815167ffffffffffffffff811115610bd657600080fd5b8201601f81018413610be757600080fd5b8051610bf56109b382610943565b818152856020838501011115610c0a57600080fd5b6107d78260208301602086016107e0565b60008251610c2d8184602087016107e0565b9190910192915050565b634e487b7160e01b600052603260045260246000fd5b6000600019821415610c6157610c61610b7f565b5060010190565b600082821015610c7a57610c7a610b7f565b50039056fea2646970667358221220bd126c9ddfda887ed939650f049cacf407a547d5cc408c217135eef45634d7a464736f6c634300080b0033",
  "linkReferences": {},
  "deployedLinkReferences": {}
}