{
  "_format": "hh-sol-artifact-1",
  "contractName": "Governed",
  "sourceName": "contracts/governance/implementation/Governed.sol",
  "abi": [
    {
      "inputs": [
        {
          "internalType": "address",
          "name": "_governance",
          "type": "address"
        }
      ],
      "stateMutability": "nonpayable",
      "type": "constructor"
    },
    {
      "anonymous": false,
      "inputs": [
        {
          "indexed": false,
          "internalType": "address",
          "name": "proposedGovernance",
          "type": "address"
        }
      ],
      "name": "GovernanceProposed",
      "type": "event"
    },
    {
      "anonymous": false,
      "inputs": [
        {
          "indexed": false,
          "internalType": "address",
          "name": "oldGovernance",
          "type": "address"
        },
        {
          "indexed": false,
          "internalType": "address",
          "name": "newGoveranance",
          "type": "address"
        }
      ],
      "name": "GovernanceUpdated",
      "type": "event"
    },
    {
      "inputs": [],
      "name": "claimGovernance",
      "outputs": [],
      "stateMutability": "nonpayable",
      "type": "function"
    },
    {
      "inputs": [],
      "name": "governance",
      "outputs": [
        {
          "internalType": "address",
          "name": "",
          "type": "address"
        }
      ],
      "stateMutability": "view",
      "type": "function"
    },
    {
      "inputs": [
        {
          "internalType": "address",
          "name": "_governance",
          "type": "address"
        }
      ],
      "name": "initialise",
      "outputs": [],
      "stateMutability": "nonpayable",
      "type": "function"
    },
    {
      "inputs": [
        {
          "internalType": "address",
          "name": "_governance",
          "type": "address"
        }
      ],
      "name": "proposeGovernance",
      "outputs": [],
      "stateMutability": "nonpayable",
      "type": "function"
    },
    {
      "inputs": [],
      "name": "proposedGovernance",
      "outputs": [
        {
          "internalType": "address",
          "name": "",
          "type": "address"
        }
      ],
      "stateMutability": "view",
      "type": "function"
    },
    {
      "inputs": [
        {
          "internalType": "address",
          "name": "_governance",
          "type": "address"
        }
      ],
      "name": "transferGovernance",
      "outputs": [],
      "stateMutability": "nonpayable",
      "type": "function"
    }
  ],
  "bytecode": "0x608060405234801561001057600080fd5b5060405161059738038061059783398101604081905261002f9161017a565b806001600160a01b03811615610048576100488161009d565b506001600160a01b0381166100975760405162461bcd60e51b815260206004820152601060248201526f5f676f7665726e616e6365207a65726f60801b60448201526064015b60405180910390fd5b506101aa565b600154600160a01b900460ff16156100f75760405162461bcd60e51b815260206004820152601460248201527f696e697469616c6973656420213d2066616c7365000000000000000000000000604482015260640161008e565b6001805460ff60a01b1916600160a01b179055600054604080516001600160a01b03928316815291831660208301527f434a2db650703b36c824e745330d6397cdaa9ee2cc891a4938ae853e1c50b68d910160405180910390a1600080546001600160a01b039092166001600160a01b0319928316179055600180549091169055565b60006020828403121561018c57600080fd5b81516001600160a01b03811681146101a357600080fd5b9392505050565b6103de806101b96000396000f3fe608060405234801561001057600080fd5b50600436106100625760003560e01c80635aa6e675146100675780635d36b1901461009657806360f7ac97146100a05780639d6a890f146100b3578063c373a08e146100c6578063d38bfff4146100d9575b600080fd5b60005461007a906001600160a01b031681565b6040516001600160a01b03909116815260200160405180910390f35b61009e6100ec565b005b60015461007a906001600160a01b031681565b61009e6100c1366004610378565b6101ad565b61009e6100d4366004610378565b610282565b61009e6100e7366004610378565b6102de565b6001546001600160a01b0316331461013b5760405162461bcd60e51b815260206004820152600d60248201526c1b9bdd0818db185a5b585a5b9d609a1b60448201526064015b60405180910390fd5b600054600154604080516001600160a01b0393841681529290911660208301527f434a2db650703b36c824e745330d6397cdaa9ee2cc891a4938ae853e1c50b68d910160405180910390a160018054600080546001600160a01b03199081166001600160a01b03841617909155169055565b600154600160a01b900460ff16156101fe5760405162461bcd60e51b8152602060048201526014602482015273696e697469616c6973656420213d2066616c736560601b6044820152606401610132565b6001805460ff60a01b1916600160a01b179055600054604080516001600160a01b03928316815291831660208301527f434a2db650703b36c824e745330d6397cdaa9ee2cc891a4938ae853e1c50b68d91015b60405180910390a1600080546001600160a01b039092166001600160a01b0319928316179055600180549091169055565b61028a61032a565b600180546001600160a01b0319166001600160a01b0383169081179091556040519081527f1f95fb40be3a947982072902a887b521248d1d8931a39eb38f84f4d6fd758b699060200160405180910390a150565b6102e661032a565b600054604080516001600160a01b03928316815291831660208301527f434a2db650703b36c824e745330d6397cdaa9ee2cc891a4938ae853e1c50b68d9101610251565b6000546001600160a01b031633146103765760405162461bcd60e51b815260206004820152600f60248201526e6f6e6c7920676f7665726e616e636560881b6044820152606401610132565b565b60006020828403121561038a57600080fd5b81356001600160a01b03811681146103a157600080fd5b939250505056fea264697066735822122096e5f4890d15446cdbbbd3e55d7f05685b3cfce282f5201e79bc1303dac42f5764736f6c634300080b0033",
  "linkReferences": {},
  "deployedLinkReferences": {}
}