{
  "_format": "hh-sol-artifact-1",
  "contractName": "FtsoV1PriceReader",
  "sourceName": "contracts/assetManager/implementation/FtsoV1PriceReader.sol",
  "abi": [
    {
      "inputs": [
        {
          "internalType": "address",
          "name": "_addressUpdater",
          "type": "address"
        },
        {
          "internalType": "contract IFtsoRegistry",
          "name": "_ftsoRegistry",
          "type": "address"
        }
      ],
      "stateMutability": "nonpayable",
      "type": "constructor"
    },
    {
      "inputs": [],
      "name": "ftsoRegistry",
      "outputs": [
        {
          "internalType": "contract IFtsoRegistry",
          "name": "",
          "type": "address"
        }
      ],
      "stateMutability": "view",
      "type": "function"
    },
    {
      "inputs": [],
      "name": "getAddressUpdater",
      "outputs": [
        {
          "internalType": "address",
          "name": "_addressUpdater",
          "type": "address"
        }
      ],
      "stateMutability": "view",
      "type": "function"
    },
    {
      "inputs": [
        {
          "internalType": "string",
          "name": "_symbol",
          "type": "string"
        }
      ],
      "name": "getPrice",
      "outputs": [
        {
          "internalType": "uint256",
          "name": "_price",
          "type": "uint256"
        },
        {
          "internalType": "uint256",
          "name": "_timestamp",
          "type": "uint256"
        },
        {
          "internalType": "uint256",
          "name": "_priceDecimals",
          "type": "uint256"
        }
      ],
      "stateMutability": "view",
      "type": "function"
    },
    {
      "inputs": [
        {
          "internalType": "string",
          "name": "_symbol",
          "type": "string"
        }
      ],
      "name": "getPriceFromTrustedProviders",
      "outputs": [
        {
          "internalType": "uint256",
          "name": "_price",
          "type": "uint256"
        },
        {
          "internalType": "uint256",
          "name": "_timestamp",
          "type": "uint256"
        },
        {
          "internalType": "uint256",
          "name": "_priceDecimals",
          "type": "uint256"
        }
      ],
      "stateMutability": "view",
      "type": "function"
    },
    {
      "inputs": [
        {
          "internalType": "string",
          "name": "_symbol",
          "type": "string"
        }
      ],
      "name": "getPriceFromTrustedProvidersWithQuality",
      "outputs": [
        {
          "internalType": "uint256",
          "name": "_price",
          "type": "uint256"
        },
        {
          "internalType": "uint256",
          "name": "_timestamp",
          "type": "uint256"
        },
        {
          "internalType": "uint256",
          "name": "_priceDecimals",
          "type": "uint256"
        },
        {
          "internalType": "uint8",
          "name": "_numberOfSubmits",
          "type": "uint8"
        }
      ],
      "stateMutability": "view",
      "type": "function"
    },
    {
      "inputs": [
        {
          "internalType": "bytes4",
          "name": "_interfaceId",
          "type": "bytes4"
        }
      ],
      "name": "supportsInterface",
      "outputs": [
        {
          "internalType": "bool",
          "name": "",
          "type": "bool"
        }
      ],
      "stateMutability": "pure",
      "type": "function"
    },
    {
      "inputs": [
        {
          "internalType": "bytes32[]",
          "name": "_contractNameHashes",
          "type": "bytes32[]"
        },
        {
          "internalType": "address[]",
          "name": "_contractAddresses",
          "type": "address[]"
        }
      ],
      "name": "updateContractAddresses",
      "outputs": [],
      "stateMutability": "nonpayable",
      "type": "function"
    }
  ],
  "bytecode": "0x608060405234801561001057600080fd5b50604051610aab380380610aab83398101604081905261002f916100e0565b81610058817f714f205b2abd25bef1d06a1af944e38c113fe6160375c4e1d6d5cf28848e771955565b506001600160a01b0381166100a25760405162461bcd60e51b815260206004820152600c60248201526b7a65726f206164647265737360a01b604482015260640160405180910390fd5b600080546001600160a01b0319166001600160a01b03929092169190911790555061011a565b6001600160a01b03811681146100dd57600080fd5b50565b600080604083850312156100f357600080fd5b82516100fe816100c8565b602084015190925061010f816100c8565b809150509250929050565b610982806101296000396000f3fe608060405234801561001057600080fd5b506004361061007d5760003560e01c80635267a15d1161005b5780635267a15d14610103578063b00c0b761461012a578063e4a0a55b1461013f578063e731a1bc1461015257600080fd5b806301ffc9a71461008257806338b5f869146100aa578063524f3889146100d5575b600080fd5b610095610090366004610622565b610188565b60405190151581526020015b60405180910390f35b6000546100bd906001600160a01b031681565b6040516001600160a01b0390911681526020016100a1565b6100e86100e336600461069a565b6101bf565b604080519384526020840192909252908201526060016100a1565b7f714f205b2abd25bef1d06a1af944e38c113fe6160375c4e1d6d5cf28848e7719546100bd565b61013d6101383660046107e3565b610242565b005b6100e861014d36600461069a565b610326565b61016561016036600461069a565b61040e565b6040805194855260208501939093529183015260ff1660608201526080016100a1565b60006001600160e01b031982166301ffc9a760e01b14806101b957506001600160e01b031982166328ef1e3760e11b145b92915050565b6000805460405163534d7ee360e11b8152829182916001600160a01b039091169063a69afdc6906101f490879060040161089c565b606060405180830381865afa158015610211573d6000803e3d6000fd5b505050506040513d601f19601f8201168201806040525081019061023591906108eb565b9250925092509193909250565b7f714f205b2abd25bef1d06a1af944e38c113fe6160375c4e1d6d5cf28848e7719546001600160a01b0316336001600160a01b0316146102c05760405162461bcd60e51b815260206004820152601460248201527337b7363c9030b2323932b9b9903ab83230ba32b960611b60448201526064015b60405180910390fd5b6103186102f483836040518060400160405280600e81526020016d20b2323932b9b9aab83230ba32b960911b8152506104fe565b7f714f205b2abd25bef1d06a1af944e38c113fe6160375c4e1d6d5cf28848e771955565b61032282826105cf565b5050565b600080546040516325f69abd60e21b81528291829182916001600160a01b0316906397da6af49061035b90889060040161089c565b602060405180830381865afa158015610378573d6000803e3d6000fd5b505050506040513d601f19601f8201168201806040525081019061039c9190610919565b9050806001600160a01b0316633cacb3ae6040518163ffffffff1660e01b8152600401606060405180830381865afa1580156103dc573d6000803e3d6000fd5b505050506040513d601f19601f8201168201806040525081019061040091906108eb565b935093509350509193909250565b600080546040516325f69abd60e21b815282918291829182916001600160a01b03909116906397da6af49061044790899060040161089c565b602060405180830381865afa158015610464573d6000803e3d6000fd5b505050506040513d601f19601f820116820180604052508101906104889190610919565b9050806001600160a01b0316633cacb3ae6040518163ffffffff1660e01b8152600401606060405180830381865afa1580156104c8573d6000803e3d6000fd5b505050506040513d601f19601f820116820180604052508101906104ec91906108eb565b91989097509095506000945092505050565b60008082604051602001610512919061089c565b6040516020818303038152906040528051906020012090506000805b86518110156105805786818151811061054957610549610936565b602002602001015183036105785785818151811061056957610569610936565b60200260200101519150610580565b60010161052e565b506001600160a01b0381166105c65760405162461bcd60e51b815260206004820152600c60248201526b61646472657373207a65726f60a01b60448201526064016102b7565b95945050505050565b6105fe82826040518060400160405280600c81526020016b4674736f526567697374727960a01b8152506104fe565b600080546001600160a01b0319166001600160a01b03929092169190911790555050565b60006020828403121561063457600080fd5b81356001600160e01b03198116811461064c57600080fd5b9392505050565b634e487b7160e01b600052604160045260246000fd5b604051601f8201601f1916810167ffffffffffffffff8111828210171561069257610692610653565b604052919050565b600060208083850312156106ad57600080fd5b823567ffffffffffffffff808211156106c557600080fd5b818501915085601f8301126106d957600080fd5b8135818111156106eb576106eb610653565b6106fd601f8201601f19168501610669565b9150808252868482850101111561071357600080fd5b8084840185840137600090820190930192909252509392505050565b600067ffffffffffffffff82111561074957610749610653565b5060051b60200190565b6001600160a01b038116811461076857600080fd5b50565b600082601f83011261077c57600080fd5b8135602061079161078c8361072f565b610669565b8083825260208201915060208460051b8701019350868411156107b357600080fd5b602086015b848110156107d85780356107cb81610753565b83529183019183016107b8565b509695505050505050565b600080604083850312156107f657600080fd5b823567ffffffffffffffff8082111561080e57600080fd5b818501915085601f83011261082257600080fd5b8135602061083261078c8361072f565b82815260059290921b8401810191818101908984111561085157600080fd5b948201945b8386101561086f57853582529482019490820190610856565b9650508601359250508082111561088557600080fd5b506108928582860161076b565b9150509250929050565b60006020808352835180602085015260005b818110156108ca578581018301518582016040015282016108ae565b506000604082860101526040601f19601f8301168501019250505092915050565b60008060006060848603121561090057600080fd5b8351925060208401519150604084015190509250925092565b60006020828403121561092b57600080fd5b815161064c81610753565b634e487b7160e01b600052603260045260246000fdfea26469706673582212207daf5bcda992ded2f7ad06fd23d60839bb0fd70afb668122bb161c406f2f765b64736f6c63430008170033",
  "linkReferences": {},
  "deployedLinkReferences": {}
}