{
  "_format": "hh-sol-artifact-1",
  "contractName": "FtsoV1PriceReader",
  "sourceName": "contracts/assetManager/implementation/FtsoV1PriceReader.sol",
  "abi": [
    {
      "inputs": [
        {
          "internalType": "address",
          "name": "_addressUpdater",
          "type": "address"
        },
        {
          "internalType": "contract IFtsoRegistry",
          "name": "_ftsoRegistry",
          "type": "address"
        }
      ],
      "stateMutability": "nonpayable",
      "type": "constructor"
    },
    {
      "inputs": [],
      "name": "ftsoRegistry",
      "outputs": [
        {
          "internalType": "contract IFtsoRegistry",
          "name": "",
          "type": "address"
        }
      ],
      "stateMutability": "view",
      "type": "function"
    },
    {
      "inputs": [],
      "name": "getAddressUpdater",
      "outputs": [
        {
          "internalType": "address",
          "name": "_addressUpdater",
          "type": "address"
        }
      ],
      "stateMutability": "view",
      "type": "function"
    },
    {
      "inputs": [
        {
          "internalType": "string",
          "name": "_symbol",
          "type": "string"
        }
      ],
      "name": "getPrice",
      "outputs": [
        {
          "internalType": "uint256",
          "name": "_price",
          "type": "uint256"
        },
        {
          "internalType": "uint256",
          "name": "_timestamp",
          "type": "uint256"
        },
        {
          "internalType": "uint256",
          "name": "_priceDecimals",
          "type": "uint256"
        }
      ],
      "stateMutability": "view",
      "type": "function"
    },
    {
      "inputs": [
        {
          "internalType": "string",
          "name": "_symbol",
          "type": "string"
        }
      ],
      "name": "getPriceFromTrustedProviders",
      "outputs": [
        {
          "internalType": "uint256",
          "name": "_price",
          "type": "uint256"
        },
        {
          "internalType": "uint256",
          "name": "_timestamp",
          "type": "uint256"
        },
        {
          "internalType": "uint256",
          "name": "_priceDecimals",
          "type": "uint256"
        }
      ],
      "stateMutability": "view",
      "type": "function"
    },
    {
      "inputs": [
        {
          "internalType": "bytes4",
          "name": "_interfaceId",
          "type": "bytes4"
        }
      ],
      "name": "supportsInterface",
      "outputs": [
        {
          "internalType": "bool",
          "name": "",
          "type": "bool"
        }
      ],
      "stateMutability": "pure",
      "type": "function"
    },
    {
      "inputs": [
        {
          "internalType": "bytes32[]",
          "name": "_contractNameHashes",
          "type": "bytes32[]"
        },
        {
          "internalType": "address[]",
          "name": "_contractAddresses",
          "type": "address[]"
        }
      ],
      "name": "updateContractAddresses",
      "outputs": [],
      "stateMutability": "nonpayable",
      "type": "function"
    }
  ],
  "bytecode": "0x608060405234801561001057600080fd5b5060405161096a38038061096a83398101604081905261002f916100e0565b81610058817f714f205b2abd25bef1d06a1af944e38c113fe6160375c4e1d6d5cf28848e771955565b506001600160a01b0381166100a25760405162461bcd60e51b815260206004820152600c60248201526b7a65726f206164647265737360a01b604482015260640160405180910390fd5b600080546001600160a01b0319166001600160a01b03929092169190911790555061011a565b6001600160a01b03811681146100dd57600080fd5b50565b600080604083850312156100f357600080fd5b82516100fe816100c8565b602084015190925061010f816100c8565b809150509250929050565b610841806101296000396000f3fe608060405234801561001057600080fd5b50600436106100625760003560e01c806301ffc9a71461006757806338b5f8691461008f578063524f3889146100ba5780635267a15d146100e8578063b00c0b761461010f578063e4a0a55b14610124575b600080fd5b61007a6100753660046104e1565b610137565b60405190151581526020015b60405180910390f35b6000546100a2906001600160a01b031681565b6040516001600160a01b039091168152602001610086565b6100cd6100c8366004610559565b61016e565b60408051938452602084019290925290820152606001610086565b7f714f205b2abd25bef1d06a1af944e38c113fe6160375c4e1d6d5cf28848e7719546100a2565b61012261011d3660046106a2565b6101f1565b005b6100cd610132366004610559565b6102d5565b60006001600160e01b031982166301ffc9a760e01b148061016857506001600160e01b03198216635b77cee960e11b145b92915050565b6000805460405163534d7ee360e11b8152829182916001600160a01b039091169063a69afdc6906101a390879060040161075b565b606060405180830381865afa1580156101c0573d6000803e3d6000fd5b505050506040513d601f19601f820116820180604052508101906101e491906107aa565b9250925092509193909250565b7f714f205b2abd25bef1d06a1af944e38c113fe6160375c4e1d6d5cf28848e7719546001600160a01b0316336001600160a01b03161461026f5760405162461bcd60e51b815260206004820152601460248201527337b7363c9030b2323932b9b9903ab83230ba32b960611b60448201526064015b60405180910390fd5b6102c76102a383836040518060400160405280600e81526020016d20b2323932b9b9aab83230ba32b960911b8152506103bd565b7f714f205b2abd25bef1d06a1af944e38c113fe6160375c4e1d6d5cf28848e771955565b6102d1828261048e565b5050565b600080546040516325f69abd60e21b81528291829182916001600160a01b0316906397da6af49061030a90889060040161075b565b602060405180830381865afa158015610327573d6000803e3d6000fd5b505050506040513d601f19601f8201168201806040525081019061034b91906107d8565b9050806001600160a01b0316633cacb3ae6040518163ffffffff1660e01b8152600401606060405180830381865afa15801561038b573d6000803e3d6000fd5b505050506040513d601f19601f820116820180604052508101906103af91906107aa565b935093509350509193909250565b600080826040516020016103d1919061075b565b6040516020818303038152906040528051906020012090506000805b865181101561043f57868181518110610408576104086107f5565b6020026020010151830361043757858181518110610428576104286107f5565b6020026020010151915061043f565b6001016103ed565b506001600160a01b0381166104855760405162461bcd60e51b815260206004820152600c60248201526b61646472657373207a65726f60a01b6044820152606401610266565b95945050505050565b6104bd82826040518060400160405280600c81526020016b4674736f526567697374727960a01b8152506103bd565b600080546001600160a01b0319166001600160a01b03929092169190911790555050565b6000602082840312156104f357600080fd5b81356001600160e01b03198116811461050b57600080fd5b9392505050565b634e487b7160e01b600052604160045260246000fd5b604051601f8201601f1916810167ffffffffffffffff8111828210171561055157610551610512565b604052919050565b6000602080838503121561056c57600080fd5b823567ffffffffffffffff8082111561058457600080fd5b818501915085601f83011261059857600080fd5b8135818111156105aa576105aa610512565b6105bc601f8201601f19168501610528565b915080825286848285010111156105d257600080fd5b8084840185840137600090820190930192909252509392505050565b600067ffffffffffffffff82111561060857610608610512565b5060051b60200190565b6001600160a01b038116811461062757600080fd5b50565b600082601f83011261063b57600080fd5b8135602061065061064b836105ee565b610528565b8083825260208201915060208460051b87010193508684111561067257600080fd5b602086015b8481101561069757803561068a81610612565b8352918301918301610677565b509695505050505050565b600080604083850312156106b557600080fd5b823567ffffffffffffffff808211156106cd57600080fd5b818501915085601f8301126106e157600080fd5b813560206106f161064b836105ee565b82815260059290921b8401810191818101908984111561071057600080fd5b948201945b8386101561072e57853582529482019490820190610715565b9650508601359250508082111561074457600080fd5b506107518582860161062a565b9150509250929050565b60006020808352835180602085015260005b818110156107895785810183015185820160400152820161076d565b506000604082860101526040601f19601f8301168501019250505092915050565b6000806000606084860312156107bf57600080fd5b8351925060208401519150604084015190509250925092565b6000602082840312156107ea57600080fd5b815161050b81610612565b634e487b7160e01b600052603260045260246000fdfea264697066735822122056e4fd133fcd1848238d1a47444c7bab6971621b1071945476a39a60fb5d479e64736f6c63430008170033",
  "linkReferences": {},
  "deployedLinkReferences": {}
}