{
  "_format": "hh-sol-artifact-1",
  "contractName": "CollateralReservationsFacet",
  "sourceName": "contracts/assetManager/facets/CollateralReservationsFacet.sol",
  "abi": [
    {
      "anonymous": false,
      "inputs": [
        {
          "indexed": true,
          "internalType": "address",
          "name": "agentVault",
          "type": "address"
        },
        {
          "indexed": true,
          "internalType": "address",
          "name": "minter",
          "type": "address"
        },
        {
          "indexed": true,
          "internalType": "uint256",
          "name": "collateralReservationId",
          "type": "uint256"
        }
      ],
      "name": "CollateralReservationCancelled",
      "type": "event"
    },
    {
      "anonymous": false,
      "inputs": [
        {
          "indexed": true,
          "internalType": "address",
          "name": "agentVault",
          "type": "address"
        },
        {
          "indexed": true,
          "internalType": "address",
          "name": "minter",
          "type": "address"
        },
        {
          "indexed": true,
          "internalType": "uint256",
          "name": "collateralReservationId",
          "type": "uint256"
        },
        {
          "indexed": false,
          "internalType": "uint256",
          "name": "reservedAmountUBA",
          "type": "uint256"
        }
      ],
      "name": "CollateralReservationDeleted",
      "type": "event"
    },
    {
      "anonymous": false,
      "inputs": [
        {
          "indexed": true,
          "internalType": "address",
          "name": "agentVault",
          "type": "address"
        },
        {
          "indexed": true,
          "internalType": "address",
          "name": "minter",
          "type": "address"
        },
        {
          "indexed": true,
          "internalType": "uint256",
          "name": "collateralReservationId",
          "type": "uint256"
        }
      ],
      "name": "CollateralReservationRejected",
      "type": "event"
    },
    {
      "anonymous": false,
      "inputs": [
        {
          "indexed": true,
          "internalType": "address",
          "name": "agentVault",
          "type": "address"
        },
        {
          "indexed": true,
          "internalType": "address",
          "name": "minter",
          "type": "address"
        },
        {
          "indexed": true,
          "internalType": "uint256",
          "name": "collateralReservationId",
          "type": "uint256"
        },
        {
          "indexed": false,
          "internalType": "uint256",
          "name": "valueUBA",
          "type": "uint256"
        },
        {
          "indexed": false,
          "internalType": "uint256",
          "name": "feeUBA",
          "type": "uint256"
        },
        {
          "indexed": false,
          "internalType": "uint256",
          "name": "firstUnderlyingBlock",
          "type": "uint256"
        },
        {
          "indexed": false,
          "internalType": "uint256",
          "name": "lastUnderlyingBlock",
          "type": "uint256"
        },
        {
          "indexed": false,
          "internalType": "uint256",
          "name": "lastUnderlyingTimestamp",
          "type": "uint256"
        },
        {
          "indexed": false,
          "internalType": "string",
          "name": "paymentAddress",
          "type": "string"
        },
        {
          "indexed": false,
          "internalType": "bytes32",
          "name": "paymentReference",
          "type": "bytes32"
        },
        {
          "indexed": false,
          "internalType": "address",
          "name": "executor",
          "type": "address"
        },
        {
          "indexed": false,
          "internalType": "uint256",
          "name": "executorFeeNatWei",
          "type": "uint256"
        }
      ],
      "name": "CollateralReserved",
      "type": "event"
    },
    {
      "anonymous": false,
      "inputs": [
        {
          "indexed": true,
          "internalType": "address",
          "name": "agentVault",
          "type": "address"
        },
        {
          "indexed": true,
          "internalType": "address",
          "name": "minter",
          "type": "address"
        },
        {
          "indexed": true,
          "internalType": "uint256",
          "name": "collateralReservationId",
          "type": "uint256"
        },
        {
          "indexed": false,
          "internalType": "string[]",
          "name": "minterUnderlyingAddresses",
          "type": "string[]"
        },
        {
          "indexed": false,
          "internalType": "uint256",
          "name": "valueUBA",
          "type": "uint256"
        },
        {
          "indexed": false,
          "internalType": "uint256",
          "name": "feeUBA",
          "type": "uint256"
        }
      ],
      "name": "HandshakeRequired",
      "type": "event"
    },
    {
      "anonymous": false,
      "inputs": [
        {
          "indexed": true,
          "internalType": "address",
          "name": "agentVault",
          "type": "address"
        },
        {
          "indexed": true,
          "internalType": "address",
          "name": "minter",
          "type": "address"
        },
        {
          "indexed": true,
          "internalType": "uint256",
          "name": "collateralReservationId",
          "type": "uint256"
        },
        {
          "indexed": false,
          "internalType": "uint256",
          "name": "reservedAmountUBA",
          "type": "uint256"
        }
      ],
      "name": "MintingPaymentDefault",
      "type": "event"
    },
    {
      "inputs": [
        {
          "internalType": "uint256",
          "name": "_collateralReservationId",
          "type": "uint256"
        }
      ],
      "name": "approveCollateralReservation",
      "outputs": [],
      "stateMutability": "nonpayable",
      "type": "function"
    },
    {
      "inputs": [
        {
          "internalType": "uint256",
          "name": "_collateralReservationId",
          "type": "uint256"
        }
      ],
      "name": "cancelCollateralReservation",
      "outputs": [],
      "stateMutability": "nonpayable",
      "type": "function"
    },
    {
      "inputs": [
        {
          "internalType": "uint256",
          "name": "_lots",
          "type": "uint256"
        }
      ],
      "name": "collateralReservationFee",
      "outputs": [
        {
          "internalType": "uint256",
          "name": "_reservationFeeNATWei",
          "type": "uint256"
        }
      ],
      "stateMutability": "view",
      "type": "function"
    },
    {
      "inputs": [
        {
          "components": [
            {
              "internalType": "bytes32[]",
              "name": "merkleProof",
              "type": "bytes32[]"
            },
            {
              "components": [
                {
                  "internalType": "bytes32",
                  "name": "attestationType",
                  "type": "bytes32"
                },
                {
                  "internalType": "bytes32",
                  "name": "sourceId",
                  "type": "bytes32"
                },
                {
                  "internalType": "uint64",
                  "name": "votingRound",
                  "type": "uint64"
                },
                {
                  "internalType": "uint64",
                  "name": "lowestUsedTimestamp",
                  "type": "uint64"
                },
                {
                  "components": [
                    {
                      "internalType": "uint64",
                      "name": "minimalBlockNumber",
                      "type": "uint64"
                    },
                    {
                      "internalType": "uint64",
                      "name": "deadlineBlockNumber",
                      "type": "uint64"
                    },
                    {
                      "internalType": "uint64",
                      "name": "deadlineTimestamp",
                      "type": "uint64"
                    },
                    {
                      "internalType": "bytes32",
                      "name": "destinationAddressHash",
                      "type": "bytes32"
                    },
                    {
                      "internalType": "uint256",
                      "name": "amount",
                      "type": "uint256"
                    },
                    {
                      "internalType": "bytes32",
                      "name": "standardPaymentReference",
                      "type": "bytes32"
                    },
                    {
                      "internalType": "bool",
                      "name": "checkSourceAddresses",
                      "type": "bool"
                    },
                    {
                      "internalType": "bytes32",
                      "name": "sourceAddressesRoot",
                      "type": "bytes32"
                    }
                  ],
                  "internalType": "struct IReferencedPaymentNonexistence.RequestBody",
                  "name": "requestBody",
                  "type": "tuple"
                },
                {
                  "components": [
                    {
                      "internalType": "uint64",
                      "name": "minimalBlockTimestamp",
                      "type": "uint64"
                    },
                    {
                      "internalType": "uint64",
                      "name": "firstOverflowBlockNumber",
                      "type": "uint64"
                    },
                    {
                      "internalType": "uint64",
                      "name": "firstOverflowBlockTimestamp",
                      "type": "uint64"
                    }
                  ],
                  "internalType": "struct IReferencedPaymentNonexistence.ResponseBody",
                  "name": "responseBody",
                  "type": "tuple"
                }
              ],
              "internalType": "struct IReferencedPaymentNonexistence.Response",
              "name": "data",
              "type": "tuple"
            }
          ],
          "internalType": "struct IReferencedPaymentNonexistence.Proof",
          "name": "_proof",
          "type": "tuple"
        },
        {
          "internalType": "uint256",
          "name": "_collateralReservationId",
          "type": "uint256"
        }
      ],
      "name": "mintingPaymentDefault",
      "outputs": [],
      "stateMutability": "nonpayable",
      "type": "function"
    },
    {
      "inputs": [
        {
          "internalType": "uint256",
          "name": "_collateralReservationId",
          "type": "uint256"
        }
      ],
      "name": "rejectCollateralReservation",
      "outputs": [],
      "stateMutability": "nonpayable",
      "type": "function"
    },
    {
      "inputs": [
        {
          "internalType": "address",
          "name": "_agentVault",
          "type": "address"
        },
        {
          "internalType": "uint256",
          "name": "_lots",
          "type": "uint256"
        },
        {
          "internalType": "uint256",
          "name": "_maxMintingFeeBIPS",
          "type": "uint256"
        },
        {
          "internalType": "address payable",
          "name": "_executor",
          "type": "address"
        },
        {
          "internalType": "string[]",
          "name": "_minterUnderlyingAddresses",
          "type": "string[]"
        }
      ],
      "name": "reserveCollateral",
      "outputs": [],
      "stateMutability": "payable",
      "type": "function"
    },
    {
      "inputs": [
        {
          "components": [
            {
              "internalType": "bytes32[]",
              "name": "merkleProof",
              "type": "bytes32[]"
            },
            {
              "components": [
                {
                  "internalType": "bytes32",
                  "name": "attestationType",
                  "type": "bytes32"
                },
                {
                  "internalType": "bytes32",
                  "name": "sourceId",
                  "type": "bytes32"
                },
                {
                  "internalType": "uint64",
                  "name": "votingRound",
                  "type": "uint64"
                },
                {
                  "internalType": "uint64",
                  "name": "lowestUsedTimestamp",
                  "type": "uint64"
                },
                {
                  "components": [
                    {
                      "internalType": "uint64",
                      "name": "blockNumber",
                      "type": "uint64"
                    },
                    {
                      "internalType": "uint64",
                      "name": "queryWindow",
                      "type": "uint64"
                    }
                  ],
                  "internalType": "struct IConfirmedBlockHeightExists.RequestBody",
                  "name": "requestBody",
                  "type": "tuple"
                },
                {
                  "components": [
                    {
                      "internalType": "uint64",
                      "name": "blockTimestamp",
                      "type": "uint64"
                    },
                    {
                      "internalType": "uint64",
                      "name": "numberOfConfirmations",
                      "type": "uint64"
                    },
                    {
                      "internalType": "uint64",
                      "name": "lowestQueryWindowBlockNumber",
                      "type": "uint64"
                    },
                    {
                      "internalType": "uint64",
                      "name": "lowestQueryWindowBlockTimestamp",
                      "type": "uint64"
                    }
                  ],
                  "internalType": "struct IConfirmedBlockHeightExists.ResponseBody",
                  "name": "responseBody",
                  "type": "tuple"
                }
              ],
              "internalType": "struct IConfirmedBlockHeightExists.Response",
              "name": "data",
              "type": "tuple"
            }
          ],
          "internalType": "struct IConfirmedBlockHeightExists.Proof",
          "name": "_proof",
          "type": "tuple"
        },
        {
          "internalType": "uint256",
          "name": "_collateralReservationId",
          "type": "uint256"
        }
      ],
      "name": "unstickMinting",
      "outputs": [],
      "stateMutability": "payable",
      "type": "function"
    }
  ],
  "bytecode": "0x608060405234801561001057600080fd5b50614af1806100206000396000f3fe6080604052600436106100705760003560e01c806369bd4e811161004e57806369bd4e81146100dc57806384807e8d146100fc578063b3efcbfa1461010f578063b5a051c71461012f57600080fd5b8063058517b5146100755780631a7b5ff714610097578063368a3593146100aa575b600080fd5b34801561008157600080fd5b50610095610090366004613fae565b61014f565b005b6100956100a5366004613fdc565b610182565b3480156100b657600080fd5b506100ca6100c5366004613fae565b6101e0565b60405190815260200160405180910390f35b3480156100e857600080fd5b506100956100f7366004614088565b6101f9565b61009561010a3660046140d2565b61022e565b34801561011b57600080fd5b5061009561012a366004613fae565b610248565b34801561013b57600080fd5b5061009561014a366004613fae565b610261565b61015761027a565b610168610163826102e6565b610352565b61017f6001600080516020614a9c83398151915255565b50565b61018a610514565b61019261057d565b61019a610649565b6101a261027a565b6101c133876101b0886102e6565b6101b9886102e6565b8787876106d4565b6101d86001600080516020614a9c83398151915255565b505050505050565b60006101f36101ee836102e6565b6110ba565b92915050565b61020161027a565b6102138261020e836102e6565b61111b565b61022a6001600080516020614a9c83398151915255565b5050565b61023661027a565b61021382610243836102e6565b61150a565b61025061027a565b61016861025c826102e6565b6117bd565b610269610649565b61017f610275826102e6565b6118d3565b600080516020614a9c8339815191528054600119016102e05760405162461bcd60e51b815260206004820152601f60248201527f5265656e7472616e637947756172643a207265656e7472616e742063616c6c0060448201526064015b60405180910390fd5b60029055565b60006001600160401b0382111561034e5760405162461bcd60e51b815260206004820152602660248201527f53616665436173743a2076616c756520646f65736e27742066697420696e203660448201526534206269747360d01b60648201526084016102d7565b5090565b600061035d82611ac4565b60038101549091506001600160a01b031633146103aa5760405162461bcd60e51b815260206004820152600b60248201526a37b7363c9036b4b73a32b960a91b60448201526064016102d7565b60058101546001600160401b03166000036104175760405162461bcd60e51b815260206004820152602760248201527f636f6c6c61746572616c207265736572766174696f6e20616c726561647920616044820152661c1c1c9bdd995960ca1b60648201526084016102d7565b6000610421611b65565b60178101546005840154919250429161044d916001600160401b03600160c01b90910481169116614124565b6001600160401b0316106104b95760405162461bcd60e51b815260206004820152602d60248201527f636f6c6c61746572616c207265736572766174696f6e2063616e63656c6c617460448201526c696f6e20746f6f206561726c7960981b60648201526084016102d7565b600382015460028301546040516001600160401b038616926001600160a01b039081169216907f5b8396e9ca9d86e29fd05a7792854c392411845219abf084a300c0510dd3bd1890600090a461050f8284611b89565b505050565b7fec7e8c1c441439dd40959777f4c577ea0cd42fcc1dbe59d2bd0f5d9c55df8dc754600160881b900460ff1661057b5760405162461bcd60e51b815260206004820152600c60248201526b1b9bdd08185d1d1858da195960a21b60448201526064016102d7565b565b6000610587611b65565b60068101549091506001600160a01b03161561017f576006810154604051633af32abf60e01b81523360048201526001600160a01b0390911690633af32abf90602401602060405180830381865afa1580156105e7573d6000803e3d6000fd5b505050506040513d601f19601f8201168201806040525081019061060b9190614159565b61017f5760405162461bcd60e51b815260206004820152600f60248201526e1b9bdd081dda1a5d195b1a5cdd1959608a1b60448201526064016102d7565b7fec7e8c1c441439dd40959777f4c577ea0cd42fcc1dbe59d2bd0f5d9c55df8dc654600080516020614a7c8339815191529042600160401b9091046001600160401b0316111561017f5760405162461bcd60e51b8152602060048201526016602482015275656d657267656e63792070617573652061637469766560501b60448201526064016102d7565b60006106df87611c46565b90506106ea81611ced565b60006106f582611d04565b7fec7e8c1c441439dd40959777f4c577ea0cd42fcc1dbe59d2bd0f5d9c55df8dc654909150600080516020614a7c833981519152906001600160401b0316156107715760405162461bcd60e51b815260206004820152600e60248201526d1b5a5b9d1a5b99c81c185d5cd95960921b60448201526064016102d7565b600483015465010000000000900463ffffffff1615158061079a575061079a600d84018b611dae565b6107e65760405162461bcd60e51b815260206004820152601760248201527f6167656e74206e6f7420696e206d696e7420717565756500000000000000000060448201526064016102d7565b6000886001600160401b0316116108345760405162461bcd60e51b815260206004820152601260248201527163616e6e6f74206d696e742030206c6f747360701b60448201526064016102d7565b600160048085015460ff169081111561084f5761084f614176565b1461089c5760405162461bcd60e51b815260206004820152601860248201527f72633a20696e76616c6964206167656e7420737461747573000000000000000060448201526064016102d7565b6001600160401b0388166108b08385611dd3565b10156108fe5760405162461bcd60e51b815260206004820152601a60248201527f6e6f7420656e6f756768206672656520636f6c6c61746572616c00000000000060448201526064016102d7565b6004830154600160481b900461ffff166001600160401b038816101561095d5760405162461bcd60e51b81526020600482015260146024820152730c2cecadce84ee640cccaca40e8dede40d0d2ced60631b60448201526064016102d7565b6000610967611b65565b600d015461097e906001600160401b03168a61418c565b9050600061098b82611e27565b60048601549091506000906109ac908390600160481b900461ffff16611e58565b90506109b9868483611e67565b600486015460009065010000000000900463ffffffff1681036109dd5760006109ef565b6109ef86602001516040015185611f23565b905080341015610a415760405162461bcd60e51b815260206004820152601860248201527f696e617070726f7072696174652066656520616d6f756e74000000000000000060448201526064016102d7565b610a49611f64565b600e86018054600090610a669084906001600160401b0316614124565b82546001600160401b0391821661010093840a9081029083021990911617909255600e8801546040805161018081018252600060208201819052918101829052606081018290526080810182905260a0810182905260c0810182905260e081018290529283018190526101208301819052610140830181905261016083015287831682529091169150610af884611f82565b6001600160801b03166080820152610b0f83611f82565b8160a001906001600160801b031690816001600160801b0316815250508e8160c001906001600160a01b031690816001600160a01b0316815250508f8160e001906001600160a01b031690816001600160a01b0316815250508b8161010001906001600160a01b031690816001600160a01b031681525050610baa633b9aca008434610b9b91906141b7565b610ba591906141e0565b6102e6565b6001600160401b0316610120820152600c89015463ffffffff1615610f215789610c225760405162461bcd60e51b8152602060048201526024808201527f6d696e74657220756e6465726c79696e672061646472657373657320726571756044820152631a5c995960e21b60648201526084016102d7565b60008a6001600160401b03811115610c3c57610c3c6141f4565b604051908082528060200260200182016040528015610c65578160200160208202803683370190505b509050610cca8c8c6000818110610c7e57610c7e61420a565b9050602002810190610c909190614220565b8080601f016020809104026020016040519081016040528093929190818152602001838380828437600092019190915250611feb92505050565b81600081518110610cdd57610cdd61420a565b6020908102919091018101919091526040805180830182526000905251610d2a917fc5d2460186f7233c927e7db2dcc703c0e500b653ca82273b7bfad8045d85a470910190815260200190565b6040516020818303038152906040528051906020012081600081518110610d5357610d5361420a565b602002602001015103610d785760405162461bcd60e51b81526004016102d790614266565b60015b8b811015610ee657610d988d8d83818110610c7e57610c7e61420a565b828281518110610daa57610daa61420a565b6020908102919091018101919091526040805180830182526000905251610df7917fc5d2460186f7233c927e7db2dcc703c0e500b653ca82273b7bfad8045d85a470910190815260200190565b60405160208183030381529060405280519060200120828281518110610e1f57610e1f61420a565b602002602001015103610e445760405162461bcd60e51b81526004016102d790614266565b81610e506001836141b7565b81518110610e6057610e6061420a565b6020026020010151828281518110610e7a57610e7a61420a565b602002602001015111610ede5760405162461bcd60e51b815260206004820152602660248201527f6d696e74657220756e6465726c79696e6720616464726573736573206e6f74206044820152651cdbdc9d195960d21b60648201526084016102d7565b600101610d7b565b50610ef081612024565b610160830152610eff426102e6565b6001600160401b0316610140830152610f1b8a83858f8f6124cb565b50610f69565b600080610f2c612549565b600f8b01546001600160401b0362010000909104811660208701528083166040870152811660608601529092509050610f668b8486612638565b50505b6001600160401b0391821660009081526006978801602090815260409182902083518154928501519385015160608601518716600160c01b026001600160c01b03918816600160801b908102929092166001600160801b03968916600160401b026fffffffffffffffffffffffffffffffff199096169389169390931794909417851691909117929092178155608084015160a085015184169092029190921617600182015560c08201516002820180546001600160a01b039283166001600160a01b03199182161790915560e0840151600384018054918416919092161790556101008301516004830180546101208601518716600160a01b026001600160e01b031990911692909316919091179190911790556101408201516005820180549190941667ffffffffffffffff199190911617909255610160015195019490945550505050505050505050505050565b6000600080516020614a7c833981519152816110d4611b65565b600f8301549091506000906110ec9061ffff16612705565b600d83015490915061111290829061110d906001600160401b03168861418c565b611f23565b95945050505050565b600061112682611ac4565b60058101549091506001600160401b0316156111545760405162461bcd60e51b81526004016102d7906142a7565b611166610180840161016085016142fa565b15801561117557506006810154155b806111a1575061118d610180840161016085016142fa565b80156111a157506006810154610180840135145b6111fc5760405162461bcd60e51b815260206004820152602660248201527f696e76616c696420636865636b206f7220736f757263652061646472657373656044820152651cc81c9bdbdd60d21b60648201526084016102d7565b6002810154600090611216906001600160a01b0316611c46565b905061122181612750565b61122a8461279f565b8154600090611241906001600160401b0316611e27565b905067464250526641000160c01b6001600160401b0385161761014086013514801561127557506003820154610100860135145b801561129c57506001830154611294906001600160801b031682614317565b610120860135145b6112e85760405162461bcd60e51b815260206004820152601c60248201527f6d696e74696e67206e6f6e2d7061796d656e74206d69736d617463680000000060448201526064016102d7565b8254600160801b90046001600160401b031661130c6101e087016101c08801614341565b6001600160401b031611801561134c57508254600160c01b90046001600160401b031661134161020087016101e08801614341565b6001600160401b0316115b6113985760405162461bcd60e51b815260206004820152601960248201527f6d696e74696e672064656661756c7420746f6f206561726c790000000000000060448201526064016102d7565b8254600160401b90046001600160401b03166113ba60c0870160a08801614341565b6001600160401b031611156114245760405162461bcd60e51b815260206004820152602a60248201527f6d696e74696e67206e6f6e2d7061796d656e742070726f6f662077696e646f77604482015269081d1bdbc81cda1bdc9d60b21b60648201526084016102d7565b60018301546000906114409084906001600160801b03166128b4565b61144a9083614317565b600385015460028601546040518381529293506001600160401b038816926001600160a01b0392831692909116907f9bcf1e111381daaf8ec9ce1420115fc2bb960d5dd94b1e871256cb2e6cbd5aa09060200160405180910390a460048401546000906114cc90633b9aca0090600160a01b90046001600160401b031661435c565b60018601546114eb9190600160801b90046001600160801b0316614317565b90506114f784826128db565b61150185876129e4565b50505050505050565b6000611514611b65565b9050600061152183611ac4565b60058101549091506001600160401b03161561154f5760405162461bcd60e51b81526004016102d7906142a7565b6002810154600090611569906001600160a01b0316611c46565b905061157481612750565b61157d85612b52565b8154600160801b90046001600160401b03166115a161014087016101208801614341565b6001600160401b03161180156115e157508154600160c01b90046001600160401b03166115d661016087016101408801614341565b6001600160401b0316115b801561163b57506115f9610100860160e08701614341565b60118401546001600160401b0391821691600160401b9091041661162561016088016101408901614341565b61162f9190614124565b6001600160401b031611155b6116875760405162461bcd60e51b815260206004820152601a60248201527f63616e6e6f7420756e737469636b206d696e74696e672079657400000000000060448201526064016102d7565b60048201546116d3906116af90633b9aca0090600160a01b90046001600160401b031661435c565b60018401546116ce9190600160801b90046001600160801b0316614317565b612c6e565b60048101546000906116ed90610100900461ffff16612705565b8354909150600090611708906001600160401b031683612cb5565b90506117148382612ccf565b60018401546000906117309085906001600160801b03166128b4565b8554611744906001600160401b0316611e27565b61174e9190614317565b600386015460028701546040518381529293506001600160401b038a16926001600160a01b0392831692909116907f8989bc1e07f872f783e99c06825dfe6c20f9ca1bc2501de1e931a5872f0e88149060200160405180910390a46117b385886129e4565b5050505050505050565b60006117c882611ac4565b60028101549091506000906117e5906001600160a01b0316611c46565b90506117f081612750565b60058201546001600160401b031660000361187d5760405162461bcd60e51b815260206004820152604160248201527f68616e647368616b65206e6f74207265717569726564206f7220636f6c6c617460448201527f6572616c207265736572766174696f6e20616c726561647920617070726f76656064820152601960fa1b608482015260a4016102d7565b600382015460028301546040516001600160401b038616926001600160a01b039081169216907fdf194311e4e0a37be30f91892d0eee4b9147166f3faf63d8e42a97639db502b590600090a461050f8284611b89565b60006118de82611ac4565b60028101549091506000906118fb906001600160a01b0316611c46565b905061190681612750565b60058201546001600160401b031660000361195c5760405162461bcd60e51b81526020600482015260166024820152751a185b991cda185ad9481b9bdd081c995c5d5a5c995960521b60448201526064016102d7565b60058201805467ffffffffffffffff1916905560008061197a612549565b915091506000611995600080516020614a7c83398151915290565b600f81015486546001600160401b03858116600160c01b9081026001600160c01b03898416600160801b90810267ffffffffffffffff60801b19600160401b62010000909904871689021677ffffffffffffffffffffffffffffffff00000000000000001990971696909617959095179081168217808d5560408051610180810182529386169286169290921783529586048416602083015284860484169082015293048116606084015260018901546001600160801b03808216608086015292900490911660a083015260028801546001600160a01b0390811660c08401526003890154811660e08401526004890154908116610100840152600160a01b9004811661012083015260058801541661014082015260068701546101608201529091506101d890859088612638565b6000600080516020614a7c8339815191526001600160401b03831615801590611b0857506001600160401b0380841660009081526006830160205260409020541615155b611b455760405162461bcd60e51b815260206004820152600e60248201526d1a5b9d985b1a590818dc9d081a5960921b60448201526064016102d7565b6001600160401b0390921660009081526006909201602052506040902090565b7f4f24f5c433db0962dac0d2c8b84197a6e6c7cc4e5d9ebe1916a1b6193da2f33a90565b6004820154600090611bb090633b9aca0090600160a01b90046001600160401b031661435c565b6001840154611bcf9190600160801b90046001600160801b0316614317565b90506000611bdb611b65565b6018810154909150600090611bf590849061ffff16611e58565b60038601549091506001600160a01b0316611c1086866129e4565b6000611c1c8284612eac565b905080611c3157611c2c85612c6e565b611501565b82851115611501576115016116ce84876141b7565b7f5bebac0595fee029d42bb673937f5f1cb81cf8641382bc17774635de9b7d796568010000000000000000600160e01b03604083901b161880600060048084015460ff1690811115611c9a57611c9a614176565b03611ce75760405162461bcd60e51b815260206004820152601b60248201527f696e76616c6964206167656e74207661756c742061646472657373000000000060448201526064016102d7565b50919050565b600181015461017f906001600160a01b0316612f29565b611d6f6040805160c081019091526000606082018181526080830182905260a083019190915281908152604080516060810182526000808252602082810182905292820152910190815260408051606081018252600080825260208281018290529282015291015290565b6000611d7a83612fe1565b90506040518060600160405280611d90856130a7565b8152602001828152602001611da58584613134565b90529392505050565b6001600160a01b038116600090815260018301602052604081205415155b9392505050565b600080611de4846000015184613300565b90506000611df6856020015185613300565b90506000611e08866040015186613300565b9050611e1d83611e188484613336565b613336565b9695505050505050565b600080611e32611b65565b600c810154909150611dcc906001600160401b03600160901b909104811690851661435c565b6000611dcc838361271061334c565b600080516020614a7c8339815191526000611e83858585613472565b9050611e8e816134a7565b600585018054829190600090611eae9084906001600160401b0316614124565b92506101000a8154816001600160401b0302191690836001600160401b031602179055508082600e0160188282829054906101000a90046001600160401b0316611ef89190614124565b92506101000a8154816001600160401b0302191690836001600160401b031602179055505050505050565b600080611f39836001600160401b031685612cb5565b9050611f5c611f46611b65565b600c01548290600160401b900461ffff16611e58565b949350505050565b6000611f726103e843614373565b611f7d906001614317565b905090565b60006001600160801b0382111561034e5760405162461bcd60e51b815260206004820152602760248201527f53616665436173743a2076616c756520646f65736e27742066697420696e20316044820152663238206269747360c81b60648201526084016102d7565b6000818051906020012060405160200161200791815260200190565b604051602081830303815290604052805190602001209050919050565b6000808251116120765760405162461bcd60e51b815260206004820152601b60248201527f4d7573742068617665206174206c65617374206f6e65206c656166000000000060448201526064016102d7565b81516001036120a157816000815181106120925761209261420a565b60200260200101519050919050565b6040805180820190915260008082526020820152825181525b8051600110156120f157602081018051906120d482614387565b905250805160029082906120e99083906141e0565b9052506120ba565b825181526020810151600090612108906001614317565b6001600160401b0381111561211f5761211f6141f4565b604051908082528060200260200182016040528015612148578160200160208202803683370190505b50905060008260200151600161215e9190614317565b6001600160401b03811115612175576121756141f4565b60405190808252806020026020018201604052801561219e578160200160208202803683370190505b509050600083602001516001901b84600001516121bb9190614373565b84602001516001901b6121ce91906141b7565b90506000805b600281101561249357600080826000036121f25750508751836121f9565b5083905060005b8181108061225957506001841180156122595750856122196002866141b7565b815181106122295761222961420a565b60200260200101518660018661223f91906141b7565b8151811061224f5761224f61420a565b6020026020010151145b15612489576001841180156122b55750856122756002866141b7565b815181106122855761228561420a565b60200260200101518660018661229b91906141b7565b815181106122ab576122ab61420a565b6020026020010151145b156123fe57866122c66002866141b7565b815181106122d6576122d661420a565b6020026020010151876001866122ec91906141b7565b815181106122fc576122fc61420a565b602002602001015110156123a757866123166002866141b7565b815181106123265761232661420a565b60200260200101518760018661233c91906141b7565b8151811061234c5761234c61420a565b60200260200101518860018761236291906141b7565b815181106123725761237261420a565b602002602001018960028861238791906141b7565b815181106123975761239761420a565b6020908102919091010191909152525b6040600019850160200288019081209052856123c46002866141b7565b815181106123d4576123d461420a565b6020026020010180518091906123e990614387565b905250836123f6816143a0565b9450506121f9565b8181101561247c578981815181106124185761241861420a565b60200260200101518785815181106124325761243261420a565b602002602001018181525050828685815181106124515761245161420a565b60209081029190910101528361246681614387565b945050808061247490614387565b9150506121f9565b6124846143b7565b6121f9565b50506001016121d4565b50806001146124a4576124a46143b7565b836000815181106124b7576124b761420a565b602002602001015195505050505050919050565b826001600160401b03168460e001516001600160a01b03166124ec876135e9565b6001600160a01b03167f34abd615afc02c31fa99ded1778ea60d36a99bf892c68e54beddb16007d9e96385856125258a60000151611e27565b8a6080015160405161253a94939291906143f6565b60405180910390a45050505050565b600080600080516020614a7c83398151915281612564611b65565b600f830154909150600090600160901b90046001600160401b0316612588426102e6565b61259291906144a6565b600c8301549091506000906125bc9063ffffffff16610b9b6001600160401b0385166103e861435c565b600d840154600f8601549192506001600160401b03600160981b9091048116916125ee91849162010000900416614124565b6125f89190614124565b600e840154600f8601549197506001600160401b0390811691612624918591600160501b900416614124565b61262e9190614124565b9450505050509091565b806001600160401b03168260e001516001600160a01b0316612659856135e9565b6001600160a01b03167f7e28eb3b9a2077a4fa0559357b1647ec5eabf18d7adf1539c4e8fb1445a5fc096126908660000151611e27565b60808701516020880151604089015160608a015160028c0167464250526641000160c01b6001600160401b038c16178c6101000151633b9aca008e61012001516001600160401b03166126e3919061435c565b6040516126f8999897969594939291906144fa565b60405180910390a4505050565b600080600080516020614a7c83398151915290506127468160000184815481106127315761273161420a565b90600052602060002090600402016000613611565b5090949350505050565b61275a81336137d0565b61017f5760405162461bcd60e51b815260206004820152601660248201527537b7363c9030b3b2b73a103b30bab63a1037bbb732b960511b60448201526064016102d7565b60006127a9611b65565b6008810154600b8201549192506001600160a01b0316906040840135146128025760405162461bcd60e51b815260206004820152600d60248201526c34b73b30b634b21031b430b4b760991b60448201526064016102d7565b60405163d577275160e01b81526001600160a01b0382169063d57727519061282e9086906004016146c8565b602060405180830381865afa15801561284b573d6000803e3d6000fd5b505050506040513d601f19601f8201168201806040525081019061286f9190614159565b61050f5760405162461bcd60e51b81526020600482015260166024820152751b9bdb8b5c185e5b595b9d081b9bdd081c1c9bdd995960521b60448201526064016102d7565b6004820154600090611dcc906128d6908490600160581b900461ffff16611e58565b61387f565b806000036128e7575050565b6004820154600090612905908390600160581b900461ffff16611e58565b8354604080516368dc448760e11b815290519293506001600160a01b039091169163d1b8890e918491600480830192600092919082900301818588803b15801561294e57600080fd5b505af1158015612962573d6000803e3d6000fd5b5050505050612970836135e9565b6001600160a01b031663677fa23261298883856141b7565b6129906138b6565b6040516001600160e01b031960e085901b1681526001600160a01b0390911660048201526024016000604051808303818588803b1580156129d057600080fd5b505af11580156117b3573d6000803e3d6000fd5b6002820154600080516020614a7c83398151915290600090612a0e906001600160a01b0316611c46565b84546001860154919250600091612a3b9184916001600160401b03909116906001600160801b0316613472565b600583015460408051808201909152601381527234b73b30b634b2103932b9b2b93b30ba34b7b760691b6020820152919250612a84916001600160401b03909116908390613923565b60058301805467ffffffffffffffff19166001600160401b03928316179055600e840180548392601891612ac1918591600160c01b9004166144a6565b82546101009290920a6001600160401b03818102199093169183160217909155949094166000908152600693840160205260408120818155600181018290556002810180546001600160a01b031990811690915560038201805490911690556004810180546001600160e01b031916905560058101805467ffffffffffffffff191690559093019290925550505050565b6000612b5c611b65565b6008810154600b8201549192506001600160a01b031690604084013514612bb55760405162461bcd60e51b815260206004820152600d60248201526c34b73b30b634b21031b430b4b760991b60448201526064016102d7565b604051635e30ebfb60e01b81526001600160a01b03821690635e30ebfb90612be19086906004016147de565b602060405180830381865afa158015612bfe573d6000803e3d6000fd5b505050506040513d601f19601f82011682018060405250810190612c229190614159565b61050f5760405162461bcd60e51b815260206004820152601760248201527f626c6f636b20686569676874206e6f742070726f76656400000000000000000060448201526064016102d7565b6000612c78611b65565b60098101546040519192506001600160a01b03169083156108fc029084906000818181858888f1935050505015801561050f573d6000803e3d6000fd5b6000611dcc82612cc76009600a6149bc565b85919061334c565b6000612cda8361396e565b90506000612ce7846139bb565b805483549192506001600160a01b03908116911603612d0f57612d0a84846139f4565b612ea6565b6000612d19611b65565b90506000612d26866135e9565b6012830154909150600090612d5390600160801b900463ffffffff16612d4d888888613a78565b90611e58565b8554600189015460405163083e007560e21b81526001600160a01b0392831660048201529082166024820152604481018990529192508316906320f801d490606401600060405180830381600087803b158015612daf57600080fd5b505af1158015612dc3573d6000803e3d6000fd5b5050505080341015612e175760405162461bcd60e51b815260206004820152601960248201527f6e6f7420656e6f7567682066756e64732070726f76696465640000000000000060448201526064016102d7565b612e2081612c6e565b80341115611501576001600160a01b03821663677fa232612e4183346141b7565b612e496138b6565b6040516001600160e01b031960e085901b1681526001600160a01b0390911660048201526024016000604051808303818588803b158015612e8957600080fd5b505af1158015612e9d573d6000803e3d6000fd5b50505050505050505b50505050565b6000612eb6613a9e565b8115612f20576000836001600160a01b031683620186a090604051600060405180830381858888f193505050503d8060008114612f0f576040519150601f19603f3d011682016040523d82523d6000602084013e612f14565b606091505b509092506101f3915050565b50600192915050565b612f31613afd565b604051633af32abf60e01b81526001600160a01b0383811660048301529190911690633af32abf90602401602060405180830381865afa158015612f79573d6000803e3d6000fd5b505050506040513d601f19601f82011682018060405250810190612f9d9190614159565b61017f5760405162461bcd60e51b81526020600482015260156024820152741859d95b9d081b9bdd081dda1a5d195b1a5cdd1959605a1b60448201526064016102d7565b6130066040805160608101909152806000815260200160008152602001600081525090565b6000613011836139bb565b60408051606081019091529091508060018152825485546040516370a0823160e01b81526001600160a01b0391821660048201526020909301929116906370a08231906024015b602060405180830381865afa158015613075573d6000803e3d6000fd5b505050506040513d601f19601f8201168201806040525081019061309991906149c8565b8152602001611da583613b1b565b6130cc6040805160608101909152806000815260200160008152602001600081525090565b60006130d78361396e565b60408051606081019091526000815281549192509060208201906001600160a01b03166370a08231613108876135e9565b6040516001600160e01b031960e084901b1681526001600160a01b039091166004820152602401613058565b6131596040805160608101909152806000815260200160008152602001600081525090565b8254604080516332f7ce0b60e21b815290516000926001600160a01b03169163cbdf382c9160048083019260209291908290030181865afa1580156131a2573d6000803e3d6000fd5b505050506040513d601f19601f820116820180604052508101906131c691906149e1565b90506000816001600160a01b03166370a082316131e2876135e9565b6040516001600160e01b031960e084901b1681526001600160a01b039091166004820152602401602060405180830381865afa158015613226573d6000803e3d6000fd5b505050506040513d601f19601f8201168201806040525081019061324a91906149c8565b90506000826001600160a01b03166318160ddd6040518163ffffffff1660e01b8152600401602060405180830381865afa15801561328c573d6000803e3d6000fd5b505050506040513d601f19601f820116820180604052508101906132b091906149c8565b9050600085602001516000036132c75760006132dc565b602086015160408701516132dc91849061334c565b60408051606081018252600281526020810195909552840152509095945050505050565b60008061330d8484613b31565b9050600061331b8585613b4e565b90508060000361332c576000611112565b61111281836141e0565b60008183106133455781611dcc565b5090919050565b60008082116133905760405162461bcd60e51b815260206004820152601060248201526f4469766973696f6e206279207a65726f60801b60448201526064016102d7565b836000036133a057506000611dcc565b838302838582816133b3576133b36141ca565b04036133d1578281816133c8576133c86141ca565b04915050611dcc565b5060006133de83866141e0565b905060006133ec8487614373565b905060006133fa85876141e0565b905060006134088688614373565b905085613415828561435c565b61341f91906141e0565b613429838561435c565b613433838761435c565b8861343e868961435c565b613448919061435c565b6134529190614317565b61345c9190614317565b6134669190614317565b98975050505050505050565b60048301546000908190613492908490600160581b900461ffff16611e58565b905061349d81613b94565b6111129085614124565b600080516020614a7c83398151915260006134c0611b65565b600d810154909150600160581b90046001600160401b031660008190036134e75750505050565b6001820154604080516318160ddd60e01b815290516000926001600160a01b0316916318160ddd9160048083019260209291908290030181865afa158015613533573d6000803e3d6000fd5b505050506040513d601f19601f8201168201806040525081019061355791906149c8565b9050600061356482613b94565b600e8601546135839190600160c01b90046001600160401b0316614124565b6001600160401b0316905082866001600160401b0316826135a49190614317565b11156101d85760405162461bcd60e51b81526020600482015260146024820152731b5a5b9d1a5b99c818d85c08195e18d95959195960621b60448201526064016102d7565b7f5bebac0595fee029d42bb673937f5f1cb81cf8641382bc17774635de9b7d79651860401c90565b6000806000806000806136b088600101805461362c906144c6565b80601f0160208091040260200160405190810160405280929190818152602001828054613658906144c6565b80156136a55780601f1061367a576101008083540402835291602001916136a5565b820191906000526020600020905b81548152906001019060200180831161368857829003601f168201915b505050505088613bc5565b8a549295509093509150600160f01b900460ff16156136f75787546000906136e690600160a81b900460ff166001838786613c90565b96509194508493506137c992505050565b60008060006137928b600201805461370e906144c6565b80601f016020809104026020016040519081016040528092919081815260200182805461373a906144c6565b80156137875780601f1061375c57610100808354040283529160200191613787565b820191906000526020600020905b81548152906001019060200180831161376a57829003601f168201915b50505050508b613bc5565b8d5492955090935091506000906137b690600160a81b900460ff1685848a89613c90565b99509497509095506137c9945050505050565b9250925092565b60018201546000906001600160a01b03908116908316811480611f5c57506137f6613afd565b604051631f86345d60e31b81526001600160a01b038381166004830152919091169063fc31a2e890602401602060405180830381865afa15801561383e573d6000803e3d6000fd5b505050506040513d601f19601f8201168201806040525081019061386291906149e1565b6001600160a01b0316836001600160a01b03161491505092915050565b60008061388a611b65565b600c8101549091506138ac90600160901b90046001600160401b031684614373565b611dcc90846141b7565b7fec7e8c1c441439dd40959777f4c577ea0cd42fcc1dbe59d2bd0f5d9c55df8dc554600080516020614a7c8339815191528054600092829161ffff9091169081106139035761390361420a565b60009182526020909120600490910201546001600160a01b031692915050565b6000826001600160401b0316846001600160401b03161015829061395a5760405162461bcd60e51b81526004016102d791906149fe565b5050506001600160401b0390811691160390565b600080600080516020614a7c83398151915260048401548154919250829161010090910461ffff169081106139a5576139a561420a565b9060005260206000209060040201915050919050565b600080600080516020614a7c833981519152600484015481549192508291630100000090910461ffff169081106139a5576139a561420a565b60006139fe611b65565b90506000613a0b846135e9565b9050806001600160a01b031663648d0878613a246138b6565b600985015460405160e084901b6001600160e01b03191681526001600160a01b0392831660048201529116602482015260448101869052606401600060405180830381600087803b1580156129d057600080fd5b600080613a8483613b1b565b90506000613a9185613b1b565b9050611e1d86838361334c565b600080516020614a9c8339815191525460021461057b5760405162461bcd60e51b815260206004820152601f60248201527f5265656e7472616e637947756172643a2067756172642072657175697265640060448201526064016102d7565b600080613b08611b65565b600701546001600160a01b031692915050565b6000613b28826000613611565b50909392505050565b600080613b3e8484613d14565b9050611f5c846020015182613e3e565b600080613b59611b65565b90506000613b6b848660000151613e58565b50600d8301546040870151919250611112918391612d4d916001600160401b0390911690612cb5565b600080613b9f611b65565b600c810154909150611dcc90610ba590600160901b90046001600160401b0316856141e0565b600080600080613bd3611b65565b600a8101549091506001600160a01b03168515613c645760405163e4a0a55b60e01b81526001600160a01b0382169063e4a0a55b90613c16908a906004016149fe565b606060405180830381865afa158015613c33573d6000803e3d6000fd5b505050506040513d601f19601f82011682018060405250810190613c579190614a4d565b94509450945050506137c9565b60405163524f388960e01b81526001600160a01b0382169063524f388990613c16908a906004016149fe565b600080613c9b611b65565b905060006009613cab878a614317565b613cb59190614317565b600a830154909150600090613cd5908690600160a81b900460ff16614317565b905080821015613ce757613ce76143b7565b613d07613cf482846141b7565b613cff90600a6149bc565b87908a61334c565b9998505050505050505050565b6000806000613d27848660000151613e58565b60058601549193509150600090613d50906001600160401b03600160401b820481169116614317565b90506000613d6684612d4d848a60400151612cb5565b90506000600188516002811115613d7f57613d7f614176565b14613d9e576005870154600160801b90046001600160401b0316613db4565b6005870154600160c01b90046001600160401b03165b90506000613dd385612d4d846001600160401b03168c60400151612cb5565b9050600060018a516002811115613dec57613dec614176565b03613df8576000613e10565b8951613e05908a90613f52565b546001600160801b03165b6001600160801b0316905080613e268386614317565b613e309190614317565b9a9950505050505050505050565b6000818311613e4e576000611dcc565b611dcc82846141b7565b6000806002836002811115613e6f57613e6f614176565b03613eca57600080613e82866001613e58565b915091506000613e90611b65565b600c015463ffffffff64010000000090910481169150613eb49082908490611e5816565b9350613ec08184611e58565b9450505050613f4b565b6001836002811115613ede57613ede614176565b03613f1957613eec846139bb565b60030154600485015463ffffffff9182169250613f1291600160881b9091041682613f9f565b9150613f4b565b613f228461396e565b60030154600485015463ffffffff9182169250613f4891600160681b9091041682613f9f565b91505b9250929050565b60006001826002811115613f6857613f68614176565b03613f7557613f756143b7565b6000826002811115613f8957613f89614176565b14613f975782600901611dcc565b505060080190565b60008183116133455781611dcc565b600060208284031215613fc057600080fd5b5035919050565b6001600160a01b038116811461017f57600080fd5b60008060008060008060a08789031215613ff557600080fd5b863561400081613fc7565b95506020870135945060408701359350606087013561401e81613fc7565b925060808701356001600160401b038082111561403a57600080fd5b818901915089601f83011261404e57600080fd5b81358181111561405d57600080fd5b8a60208260051b850101111561407257600080fd5b6020830194508093505050509295509295509295565b6000806040838503121561409b57600080fd5b82356001600160401b038111156140b157600080fd5b830161020081860312156140c457600080fd5b946020939093013593505050565b600080604083850312156140e557600080fd5b82356001600160401b038111156140fb57600080fd5b830161016081860312156140c457600080fd5b634e487b7160e01b600052601160045260246000fd5b6001600160401b038181168382160190808211156141445761414461410e565b5092915050565b801515811461017f57600080fd5b60006020828403121561416b57600080fd5b8151611dcc8161414b565b634e487b7160e01b600052602160045260246000fd5b6001600160401b038181168382160280821691908281146141af576141af61410e565b505092915050565b818103818111156101f3576101f361410e565b634e487b7160e01b600052601260045260246000fd5b6000826141ef576141ef6141ca565b500490565b634e487b7160e01b600052604160045260246000fd5b634e487b7160e01b600052603260045260246000fd5b6000808335601e1984360301811261423757600080fd5b8301803591506001600160401b0382111561425157600080fd5b602001915036819003821315613f4b57600080fd5b60208082526021908201527f6d696e74657220756e6465726c79696e67206164647265737320696e76616c696040820152601960fa1b606082015260800190565b60208082526023908201527f636f6c6c61746572616c207265736572766174696f6e206e6f7420617070726f6040820152621d995960ea1b606082015260800190565b80356142f58161414b565b919050565b60006020828403121561430c57600080fd5b8135611dcc8161414b565b808201808211156101f3576101f361410e565b80356001600160401b03811681146142f557600080fd5b60006020828403121561435357600080fd5b611dcc8261432a565b80820281158282048414176101f3576101f361410e565b600082614382576143826141ca565b500690565b6000600182016143995761439961410e565b5060010190565b6000816143af576143af61410e565b506000190190565b634e487b7160e01b600052600160045260246000fd5b81835281816020850137506000828201602090810191909152601f909101601f19169091010190565b6060808252810184905260006080600586901b8301810190830187835b8881101561448657858403607f190183528135368b9003601e1901811261443957600080fd5b8a0160208181019135906001600160401b0382111561445757600080fd5b81360383131561446657600080fd5b6144718783856143cd565b96509485019493909301925050600101614413565b505050602083018590526001600160801b03841660408401529050611112565b6001600160401b038281168282160390808211156141445761414461410e565b600181811c908216806144da57607f821691505b602082108103611ce757634e487b7160e01b600052602260045260246000fd5b60006101208b835260206001600160801b038c1660208501526001600160401b03808c166040860152808b166060860152808a166080860152508160a0850152600088548160018260011c9150600183168061455757607f831692505b60208310810361457557634e487b7160e01b85526022600452602485fd5b9588018281526020019580801561459357600181146145a9576145d4565b60ff198516885283151560051b880195506145d4565b60008e81526020902060005b858110156145ce5781548a8201529084019088016145b5565b89019650505b505050505060c085018890526001600160a01b03871660e086015292506145f9915050565b826101008301529a9950505050505050505050565b6000808335601e1984360301811261462557600080fd5b83016020810192503590506001600160401b0381111561464457600080fd5b8060051b3603821315613f4b57600080fd5b81835260006001600160fb1b0383111561466f57600080fd5b8260051b80836020870137939093016020019392505050565b6001600160401b038061469a8361432a565b168352806146aa6020840161432a565b166020840152806146bd6040840161432a565b166040840152505050565b6020815260006146d8838461460e565b61020060208501526146ef61022085018284614656565b91505060208401356040840152604084013560608401526147126060850161432a565b6001600160401b0380821660808601528061472f6080880161432a565b1660a08601528061474260a0880161432a565b1660c08601528061475560c0880161432a565b1660e086015261476760e0870161432a565b915061010081831681870152610120925080870135838701525050610140818601358186015261016091508086013582860152506147a68186016142ea565b90506101806147b88186018315159052565b6101a091508086013582860152506147d66101c08501828701614688565b509392505050565b6020815260006147ee838461460e565b61016080602086015261480661018086018385614656565b925060208601356040860152604086013560608601526148286060870161432a565b91506001600160401b038083166080870152806148476080890161432a565b1660a08701528061485a60a0890161432a565b1660c08701528061486d60c0890161432a565b1660e087015261010092508061488560e0890161432a565b168387015261489583880161432a565b9250610120818416818801526148ac81890161432a565b93505061014081841681880152816148c5828a0161432a565b1683880152505050508091505092915050565b600181815b808511156149135781600019048211156148f9576148f961410e565b8085161561490657918102915b93841c93908002906148dd565b509250929050565b60008261492a575060016101f3565b81614937575060006101f3565b816001811461494d576002811461495757614973565b60019150506101f3565b60ff8411156149685761496861410e565b50506001821b6101f3565b5060208310610133831016604e8410600b8410161715614996575081810a6101f3565b6149a083836148d8565b80600019048211156149b4576149b461410e565b029392505050565b6000611dcc838361491b565b6000602082840312156149da57600080fd5b5051919050565b6000602082840312156149f357600080fd5b8151611dcc81613fc7565b60006020808352835180602085015260005b81811015614a2c57858101830151858201604001528201614a10565b506000604082860101526040601f19601f8301168501019250505092915050565b600080600060608486031215614a6257600080fd5b835192506020840151915060408401519050925092509256feec7e8c1c441439dd40959777f4c577ea0cd42fcc1dbe59d2bd0f5d9c55df8db60cd2207518cd3e5213e2c6dbe63d55b60aa893c194a427b7d7f1600408fd5bdea26469706673582212209ddbf1b8497bc85e8bd08fefd021bb7e12300d5c489abddc538539f19e9a789764736f6c63430008170033",
  "linkReferences": {},
  "deployedLinkReferences": {}
}