{
  "_format": "hh-sol-artifact-1",
  "contractName": "CollateralReservationsFacet",
  "sourceName": "contracts/assetManager/facets/CollateralReservationsFacet.sol",
  "abi": [
    {
      "anonymous": false,
      "inputs": [
        {
          "indexed": true,
          "internalType": "address",
          "name": "agentVault",
          "type": "address"
        },
        {
          "indexed": true,
          "internalType": "address",
          "name": "minter",
          "type": "address"
        },
        {
          "indexed": true,
          "internalType": "uint256",
          "name": "collateralReservationId",
          "type": "uint256"
        }
      ],
      "name": "CollateralReservationCancelled",
      "type": "event"
    },
    {
      "anonymous": false,
      "inputs": [
        {
          "indexed": true,
          "internalType": "address",
          "name": "agentVault",
          "type": "address"
        },
        {
          "indexed": true,
          "internalType": "address",
          "name": "minter",
          "type": "address"
        },
        {
          "indexed": true,
          "internalType": "uint256",
          "name": "collateralReservationId",
          "type": "uint256"
        },
        {
          "indexed": false,
          "internalType": "uint256",
          "name": "reservedAmountUBA",
          "type": "uint256"
        }
      ],
      "name": "CollateralReservationDeleted",
      "type": "event"
    },
    {
      "anonymous": false,
      "inputs": [
        {
          "indexed": true,
          "internalType": "address",
          "name": "agentVault",
          "type": "address"
        },
        {
          "indexed": true,
          "internalType": "address",
          "name": "minter",
          "type": "address"
        },
        {
          "indexed": true,
          "internalType": "uint256",
          "name": "collateralReservationId",
          "type": "uint256"
        }
      ],
      "name": "CollateralReservationRejected",
      "type": "event"
    },
    {
      "anonymous": false,
      "inputs": [
        {
          "indexed": true,
          "internalType": "address",
          "name": "agentVault",
          "type": "address"
        },
        {
          "indexed": true,
          "internalType": "address",
          "name": "minter",
          "type": "address"
        },
        {
          "indexed": true,
          "internalType": "uint256",
          "name": "collateralReservationId",
          "type": "uint256"
        },
        {
          "indexed": false,
          "internalType": "uint256",
          "name": "valueUBA",
          "type": "uint256"
        },
        {
          "indexed": false,
          "internalType": "uint256",
          "name": "feeUBA",
          "type": "uint256"
        },
        {
          "indexed": false,
          "internalType": "uint256",
          "name": "firstUnderlyingBlock",
          "type": "uint256"
        },
        {
          "indexed": false,
          "internalType": "uint256",
          "name": "lastUnderlyingBlock",
          "type": "uint256"
        },
        {
          "indexed": false,
          "internalType": "uint256",
          "name": "lastUnderlyingTimestamp",
          "type": "uint256"
        },
        {
          "indexed": false,
          "internalType": "string",
          "name": "paymentAddress",
          "type": "string"
        },
        {
          "indexed": false,
          "internalType": "bytes32",
          "name": "paymentReference",
          "type": "bytes32"
        },
        {
          "indexed": false,
          "internalType": "address",
          "name": "executor",
          "type": "address"
        },
        {
          "indexed": false,
          "internalType": "uint256",
          "name": "executorFeeNatWei",
          "type": "uint256"
        }
      ],
      "name": "CollateralReserved",
      "type": "event"
    },
    {
      "anonymous": false,
      "inputs": [
        {
          "indexed": true,
          "internalType": "address",
          "name": "agentVault",
          "type": "address"
        },
        {
          "indexed": true,
          "internalType": "address",
          "name": "minter",
          "type": "address"
        },
        {
          "indexed": true,
          "internalType": "uint256",
          "name": "collateralReservationId",
          "type": "uint256"
        },
        {
          "indexed": false,
          "internalType": "string[]",
          "name": "minterUnderlyingAddresses",
          "type": "string[]"
        },
        {
          "indexed": false,
          "internalType": "uint256",
          "name": "valueUBA",
          "type": "uint256"
        },
        {
          "indexed": false,
          "internalType": "uint256",
          "name": "feeUBA",
          "type": "uint256"
        }
      ],
      "name": "HandshakeRequired",
      "type": "event"
    },
    {
      "anonymous": false,
      "inputs": [
        {
          "indexed": true,
          "internalType": "address",
          "name": "agentVault",
          "type": "address"
        },
        {
          "indexed": true,
          "internalType": "address",
          "name": "minter",
          "type": "address"
        },
        {
          "indexed": true,
          "internalType": "uint256",
          "name": "collateralReservationId",
          "type": "uint256"
        },
        {
          "indexed": false,
          "internalType": "uint256",
          "name": "reservedAmountUBA",
          "type": "uint256"
        }
      ],
      "name": "MintingPaymentDefault",
      "type": "event"
    },
    {
      "inputs": [
        {
          "internalType": "uint256",
          "name": "_collateralReservationId",
          "type": "uint256"
        }
      ],
      "name": "approveCollateralReservation",
      "outputs": [],
      "stateMutability": "nonpayable",
      "type": "function"
    },
    {
      "inputs": [
        {
          "internalType": "uint256",
          "name": "_collateralReservationId",
          "type": "uint256"
        }
      ],
      "name": "cancelCollateralReservation",
      "outputs": [],
      "stateMutability": "nonpayable",
      "type": "function"
    },
    {
      "inputs": [
        {
          "internalType": "uint256",
          "name": "_lots",
          "type": "uint256"
        }
      ],
      "name": "collateralReservationFee",
      "outputs": [
        {
          "internalType": "uint256",
          "name": "_reservationFeeNATWei",
          "type": "uint256"
        }
      ],
      "stateMutability": "view",
      "type": "function"
    },
    {
      "inputs": [
        {
          "components": [
            {
              "internalType": "bytes32[]",
              "name": "merkleProof",
              "type": "bytes32[]"
            },
            {
              "components": [
                {
                  "internalType": "bytes32",
                  "name": "attestationType",
                  "type": "bytes32"
                },
                {
                  "internalType": "bytes32",
                  "name": "sourceId",
                  "type": "bytes32"
                },
                {
                  "internalType": "uint64",
                  "name": "votingRound",
                  "type": "uint64"
                },
                {
                  "internalType": "uint64",
                  "name": "lowestUsedTimestamp",
                  "type": "uint64"
                },
                {
                  "components": [
                    {
                      "internalType": "uint64",
                      "name": "minimalBlockNumber",
                      "type": "uint64"
                    },
                    {
                      "internalType": "uint64",
                      "name": "deadlineBlockNumber",
                      "type": "uint64"
                    },
                    {
                      "internalType": "uint64",
                      "name": "deadlineTimestamp",
                      "type": "uint64"
                    },
                    {
                      "internalType": "bytes32",
                      "name": "destinationAddressHash",
                      "type": "bytes32"
                    },
                    {
                      "internalType": "uint256",
                      "name": "amount",
                      "type": "uint256"
                    },
                    {
                      "internalType": "bytes32",
                      "name": "standardPaymentReference",
                      "type": "bytes32"
                    },
                    {
                      "internalType": "bool",
                      "name": "checkSourceAddresses",
                      "type": "bool"
                    },
                    {
                      "internalType": "bytes32",
                      "name": "sourceAddressesRoot",
                      "type": "bytes32"
                    }
                  ],
                  "internalType": "struct IReferencedPaymentNonexistence.RequestBody",
                  "name": "requestBody",
                  "type": "tuple"
                },
                {
                  "components": [
                    {
                      "internalType": "uint64",
                      "name": "minimalBlockTimestamp",
                      "type": "uint64"
                    },
                    {
                      "internalType": "uint64",
                      "name": "firstOverflowBlockNumber",
                      "type": "uint64"
                    },
                    {
                      "internalType": "uint64",
                      "name": "firstOverflowBlockTimestamp",
                      "type": "uint64"
                    }
                  ],
                  "internalType": "struct IReferencedPaymentNonexistence.ResponseBody",
                  "name": "responseBody",
                  "type": "tuple"
                }
              ],
              "internalType": "struct IReferencedPaymentNonexistence.Response",
              "name": "data",
              "type": "tuple"
            }
          ],
          "internalType": "struct IReferencedPaymentNonexistence.Proof",
          "name": "_proof",
          "type": "tuple"
        },
        {
          "internalType": "uint256",
          "name": "_collateralReservationId",
          "type": "uint256"
        }
      ],
      "name": "mintingPaymentDefault",
      "outputs": [],
      "stateMutability": "nonpayable",
      "type": "function"
    },
    {
      "inputs": [
        {
          "internalType": "uint256",
          "name": "_collateralReservationId",
          "type": "uint256"
        }
      ],
      "name": "rejectCollateralReservation",
      "outputs": [],
      "stateMutability": "nonpayable",
      "type": "function"
    },
    {
      "inputs": [
        {
          "internalType": "address",
          "name": "_agentVault",
          "type": "address"
        },
        {
          "internalType": "uint256",
          "name": "_lots",
          "type": "uint256"
        },
        {
          "internalType": "uint256",
          "name": "_maxMintingFeeBIPS",
          "type": "uint256"
        },
        {
          "internalType": "address payable",
          "name": "_executor",
          "type": "address"
        },
        {
          "internalType": "string[]",
          "name": "_minterUnderlyingAddresses",
          "type": "string[]"
        }
      ],
      "name": "reserveCollateral",
      "outputs": [],
      "stateMutability": "payable",
      "type": "function"
    },
    {
      "inputs": [
        {
          "components": [
            {
              "internalType": "bytes32[]",
              "name": "merkleProof",
              "type": "bytes32[]"
            },
            {
              "components": [
                {
                  "internalType": "bytes32",
                  "name": "attestationType",
                  "type": "bytes32"
                },
                {
                  "internalType": "bytes32",
                  "name": "sourceId",
                  "type": "bytes32"
                },
                {
                  "internalType": "uint64",
                  "name": "votingRound",
                  "type": "uint64"
                },
                {
                  "internalType": "uint64",
                  "name": "lowestUsedTimestamp",
                  "type": "uint64"
                },
                {
                  "components": [
                    {
                      "internalType": "uint64",
                      "name": "blockNumber",
                      "type": "uint64"
                    },
                    {
                      "internalType": "uint64",
                      "name": "queryWindow",
                      "type": "uint64"
                    }
                  ],
                  "internalType": "struct IConfirmedBlockHeightExists.RequestBody",
                  "name": "requestBody",
                  "type": "tuple"
                },
                {
                  "components": [
                    {
                      "internalType": "uint64",
                      "name": "blockTimestamp",
                      "type": "uint64"
                    },
                    {
                      "internalType": "uint64",
                      "name": "numberOfConfirmations",
                      "type": "uint64"
                    },
                    {
                      "internalType": "uint64",
                      "name": "lowestQueryWindowBlockNumber",
                      "type": "uint64"
                    },
                    {
                      "internalType": "uint64",
                      "name": "lowestQueryWindowBlockTimestamp",
                      "type": "uint64"
                    }
                  ],
                  "internalType": "struct IConfirmedBlockHeightExists.ResponseBody",
                  "name": "responseBody",
                  "type": "tuple"
                }
              ],
              "internalType": "struct IConfirmedBlockHeightExists.Response",
              "name": "data",
              "type": "tuple"
            }
          ],
          "internalType": "struct IConfirmedBlockHeightExists.Proof",
          "name": "_proof",
          "type": "tuple"
        },
        {
          "internalType": "uint256",
          "name": "_collateralReservationId",
          "type": "uint256"
        }
      ],
      "name": "unstickMinting",
      "outputs": [],
      "stateMutability": "payable",
      "type": "function"
    }
  ],
  "bytecode": "0x608060405234801561001057600080fd5b506149bb806100206000396000f3fe6080604052600436106100705760003560e01c806369bd4e811161004e57806369bd4e81146100dc57806384807e8d146100fc578063b3efcbfa1461010f578063b5a051c71461012f57600080fd5b8063058517b5146100755780631a7b5ff714610097578063368a3593146100aa575b600080fd5b34801561008157600080fd5b50610095610090366004613e98565b61014f565b005b6100956100a5366004613ec6565b610194565b3480156100b657600080fd5b506100ca6100c5366004613e98565b6101d3565b60405190815260200160405180910390f35b3480156100e857600080fd5b506100956100f7366004613f72565b6101ec565b61009561010a366004613fbc565b610202565b34801561011b57600080fd5b5061009561012a366004613e98565b610245565b34801561013b57600080fd5b5061009561014a366004613e98565b61025e565b610157610277565b610168610163826102f5565b610361565b61019160017f0cd2207518cd3e5213e2c6dbe63d55b60aa893c194a427b7d7f1600408fd5bde55565b50565b61019c610523565b6101a461058c565b6101ac610658565b6101cb33876101ba886102f5565b6101c3886102f5565b8787876106e3565b505050505050565b60006101e66101e1836102f5565b611095565b92915050565b6101fe826101f9836102f5565b6110f6565b5050565b61020a610277565b61021c82610217836102f5565b6114e5565b6101fe60017f0cd2207518cd3e5213e2c6dbe63d55b60aa893c194a427b7d7f1600408fd5bde55565b61024d610277565b610168610259826102f5565b611798565b610266610658565b610191610272826102f5565b6118ae565b7f0cd2207518cd3e5213e2c6dbe63d55b60aa893c194a427b7d7f1600408fd5bde8054600119016102ef5760405162461bcd60e51b815260206004820152601f60248201527f5265656e7472616e637947756172643a207265656e7472616e742063616c6c0060448201526064015b60405180910390fd5b60029055565b60006001600160401b0382111561035d5760405162461bcd60e51b815260206004820152602660248201527f53616665436173743a2076616c756520646f65736e27742066697420696e203660448201526534206269747360d01b60648201526084016102e6565b5090565b600061036c82611a9f565b60038101549091506001600160a01b031633146103b95760405162461bcd60e51b815260206004820152600b60248201526a37b7363c9036b4b73a32b960a91b60448201526064016102e6565b60058101546001600160401b03166000036104265760405162461bcd60e51b815260206004820152602760248201527f636f6c6c61746572616c207265736572766174696f6e20616c726561647920616044820152661c1c1c9bdd995960ca1b60648201526084016102e6565b6000610430611b40565b60178101546005840154919250429161045c916001600160401b03600160c01b9091048116911661400e565b6001600160401b0316106104c85760405162461bcd60e51b815260206004820152602d60248201527f636f6c6c61746572616c207265736572766174696f6e2063616e63656c6c617460448201526c696f6e20746f6f206561726c7960981b60648201526084016102e6565b600382015460028301546040516001600160401b038616926001600160a01b039081169216907f5b8396e9ca9d86e29fd05a7792854c392411845219abf084a300c0510dd3bd1890600090a461051e8284611b64565b505050565b7fec7e8c1c441439dd40959777f4c577ea0cd42fcc1dbe59d2bd0f5d9c55df8dc654600160c81b900460ff1661058a5760405162461bcd60e51b815260206004820152600c60248201526b1b9bdd08185d1d1858da195960a21b60448201526064016102e6565b565b6000610596611b40565b60068101549091506001600160a01b031615610191576006810154604051633af32abf60e01b81523360048201526001600160a01b0390911690633af32abf90602401602060405180830381865afa1580156105f6573d6000803e3d6000fd5b505050506040513d601f19601f8201168201806040525081019061061a9190614043565b6101915760405162461bcd60e51b815260206004820152600f60248201526e1b9bdd081dda1a5d195b1a5cdd1959608a1b60448201526064016102e6565b7fec7e8c1c441439dd40959777f4c577ea0cd42fcc1dbe59d2bd0f5d9c55df8dc6546000805160206149668339815191529042600160401b9091046001600160401b031611156101915760405162461bcd60e51b8152602060048201526016602482015275656d657267656e63792070617573652061637469766560501b60448201526064016102e6565b60006106ee87611c36565b90506106f981611cdd565b600061070482611cf4565b7fec7e8c1c441439dd40959777f4c577ea0cd42fcc1dbe59d2bd0f5d9c55df8dc654909150600080516020614966833981519152906001600160401b0316156107805760405162461bcd60e51b815260206004820152600e60248201526d1b5a5b9d1a5b99c81c185d5cd95960921b60448201526064016102e6565b600483015465010000000000900463ffffffff166000036107e35760405162461bcd60e51b815260206004820152601760248201527f6167656e74206e6f7420696e206d696e7420717565756500000000000000000060448201526064016102e6565b6000886001600160401b0316116108315760405162461bcd60e51b815260206004820152601260248201527163616e6e6f74206d696e742030206c6f747360701b60448201526064016102e6565b600160048085015460ff169081111561084c5761084c614060565b146108995760405162461bcd60e51b815260206004820152601860248201527f72633a20696e76616c6964206167656e7420737461747573000000000000000060448201526064016102e6565b6001600160401b0388166108ad8385611d9e565b10156108fb5760405162461bcd60e51b815260206004820152601a60248201527f6e6f7420656e6f756768206672656520636f6c6c61746572616c00000000000060448201526064016102e6565b6004830154600160481b900461ffff166001600160401b038816101561095a5760405162461bcd60e51b81526020600482015260146024820152730c2cecadce84ee640cccaca40e8dede40d0d2ced60631b60448201526064016102e6565b6000610964611b40565b600d015461097b906001600160401b03168a614076565b9050600061098882611df2565b60048601549091506000906109a9908390600160481b900461ffff16611e2a565b90506109b6868483611e39565b60006109ca86602001516040015185611ef5565b905080341015610a1c5760405162461bcd60e51b815260206004820152601860248201527f696e617070726f7072696174652066656520616d6f756e74000000000000000060448201526064016102e6565b610a24611f36565b600e86018054600090610a419084906001600160401b031661400e565b82546001600160401b0391821661010093840a9081029083021990911617909255600e8801546040805161018081018252600060208201819052918101829052606081018290526080810182905260a0810182905260c0810182905260e081018290529283018190526101208301819052610140830181905261016083015287831682529091169150610ad384611f54565b6001600160801b03166080820152610aea83611f54565b8160a001906001600160801b031690816001600160801b0316815250508e8160c001906001600160a01b031690816001600160a01b0316815250508f8160e001906001600160a01b031690816001600160a01b0316815250508b8161010001906001600160a01b031690816001600160a01b031681525050610b85633b9aca008434610b7691906140a1565b610b8091906140ca565b6102f5565b6001600160401b0316610120820152600c89015463ffffffff1615610efc5789610bfd5760405162461bcd60e51b8152602060048201526024808201527f6d696e74657220756e6465726c79696e672061646472657373657320726571756044820152631a5c995960e21b60648201526084016102e6565b60008a6001600160401b03811115610c1757610c176140de565b604051908082528060200260200182016040528015610c40578160200160208202803683370190505b509050610ca58c8c6000818110610c5957610c596140f4565b9050602002810190610c6b919061410a565b8080601f016020809104026020016040519081016040528093929190818152602001838380828437600092019190915250611fbd92505050565b81600081518110610cb857610cb86140f4565b6020908102919091018101919091526040805180830182526000905251610d05917fc5d2460186f7233c927e7db2dcc703c0e500b653ca82273b7bfad8045d85a470910190815260200190565b6040516020818303038152906040528051906020012081600081518110610d2e57610d2e6140f4565b602002602001015103610d535760405162461bcd60e51b81526004016102e690614150565b60015b8b811015610ec157610d738d8d83818110610c5957610c596140f4565b828281518110610d8557610d856140f4565b6020908102919091018101919091526040805180830182526000905251610dd2917fc5d2460186f7233c927e7db2dcc703c0e500b653ca82273b7bfad8045d85a470910190815260200190565b60405160208183030381529060405280519060200120828281518110610dfa57610dfa6140f4565b602002602001015103610e1f5760405162461bcd60e51b81526004016102e690614150565b81610e2b6001836140a1565b81518110610e3b57610e3b6140f4565b6020026020010151828281518110610e5557610e556140f4565b602002602001015111610eb95760405162461bcd60e51b815260206004820152602660248201527f6d696e74657220756e6465726c79696e6720616464726573736573206e6f74206044820152651cdbdc9d195960d21b60648201526084016102e6565b600101610d56565b50610ecb81611ff6565b610160830152610eda426102f5565b6001600160401b0316610140830152610ef68a83858f8f61249d565b50610f44565b600080610f0761251b565b600f8b01546001600160401b0362010000909104811660208701528083166040870152811660608601529092509050610f418b848661260a565b50505b6001600160401b0391821660009081526006978801602090815260409182902083518154928501519385015160608601518716600160c01b026001600160c01b03918816600160801b908102929092166001600160801b03968916600160401b026fffffffffffffffffffffffffffffffff199096169389169390931794909417851691909117929092178155608084015160a085015184169092029190921617600182015560c08201516002820180546001600160a01b039283166001600160a01b03199182161790915560e0840151600384018054918416919092161790556101008301516004830180546101208601518716600160a01b026001600160e01b031990911692909316919091179190911790556101408201516005820180549190941667ffffffffffffffff199190911617909255610160015195019490945550505050505050505050505050565b6000600080516020614966833981519152816110af611b40565b600f8301549091506000906110c79061ffff166126d7565b600d8301549091506110ed9082906110e8906001600160401b031688614076565b611ef5565b95945050505050565b600061110182611a9f565b60058101549091506001600160401b03161561112f5760405162461bcd60e51b81526004016102e690614191565b611141610180840161016085016141e4565b15801561115057506006810154155b8061117c5750611168610180840161016085016141e4565b801561117c57506006810154610180840135145b6111d75760405162461bcd60e51b815260206004820152602660248201527f696e76616c696420636865636b206f7220736f757263652061646472657373656044820152651cc81c9bdbdd60d21b60648201526084016102e6565b60028101546000906111f1906001600160a01b0316611c36565b90506111fc81612722565b61120584612771565b815460009061121c906001600160401b0316611df2565b905067464250526641000160c01b6001600160401b0385161761014086013514801561125057506003820154610100860135145b80156112775750600183015461126f906001600160801b031682614201565b610120860135145b6112c35760405162461bcd60e51b815260206004820152601c60248201527f6d696e74696e67206e6f6e2d7061796d656e74206d69736d617463680000000060448201526064016102e6565b8254600160801b90046001600160401b03166112e76101e087016101c0880161422b565b6001600160401b031611801561132757508254600160c01b90046001600160401b031661131c61020087016101e0880161422b565b6001600160401b0316115b6113735760405162461bcd60e51b815260206004820152601960248201527f6d696e74696e672064656661756c7420746f6f206561726c790000000000000060448201526064016102e6565b8254600160401b90046001600160401b031661139560c0870160a0880161422b565b6001600160401b031611156113ff5760405162461bcd60e51b815260206004820152602a60248201527f6d696e74696e67206e6f6e2d7061796d656e742070726f6f662077696e646f77604482015269081d1bdbc81cda1bdc9d60b21b60648201526084016102e6565b600183015460009061141b9084906001600160801b0316612886565b6114259083614201565b600385015460028601546040518381529293506001600160401b038816926001600160a01b0392831692909116907f9bcf1e111381daaf8ec9ce1420115fc2bb960d5dd94b1e871256cb2e6cbd5aa09060200160405180910390a460048401546000906114a790633b9aca0090600160a01b90046001600160401b0316614246565b60018601546114c69190600160801b90046001600160801b0316614201565b90506114d284826128ad565b6114dc85876129aa565b50505050505050565b60006114ef611b40565b905060006114fc83611a9f565b60058101549091506001600160401b03161561152a5760405162461bcd60e51b81526004016102e690614191565b6002810154600090611544906001600160a01b0316611c36565b905061154f81612722565b61155885612b18565b8154600160801b90046001600160401b031661157c6101408701610120880161422b565b6001600160401b03161180156115bc57508154600160c01b90046001600160401b03166115b16101608701610140880161422b565b6001600160401b0316115b801561161657506115d4610100860160e0870161422b565b60118401546001600160401b0391821691600160401b909104166116006101608801610140890161422b565b61160a919061400e565b6001600160401b031611155b6116625760405162461bcd60e51b815260206004820152601a60248201527f63616e6e6f7420756e737469636b206d696e74696e672079657400000000000060448201526064016102e6565b60048201546116ae9061168a90633b9aca0090600160a01b90046001600160401b0316614246565b60018401546116a99190600160801b90046001600160801b0316614201565b612c34565b60048101546000906116c890610100900461ffff166126d7565b83549091506000906116e3906001600160401b031683612c7b565b90506116ef8382612c95565b600184015460009061170b9085906001600160801b0316612886565b855461171f906001600160401b0316611df2565b6117299190614201565b600386015460028701546040518381529293506001600160401b038a16926001600160a01b0392831692909116907f8989bc1e07f872f783e99c06825dfe6c20f9ca1bc2501de1e931a5872f0e88149060200160405180910390a461178e85886129aa565b5050505050505050565b60006117a382611a9f565b60028101549091506000906117c0906001600160a01b0316611c36565b90506117cb81612722565b60058201546001600160401b03166000036118585760405162461bcd60e51b815260206004820152604160248201527f68616e647368616b65206e6f74207265717569726564206f7220636f6c6c617460448201527f6572616c207265736572766174696f6e20616c726561647920617070726f76656064820152601960fa1b608482015260a4016102e6565b600382015460028301546040516001600160401b038616926001600160a01b039081169216907fdf194311e4e0a37be30f91892d0eee4b9147166f3faf63d8e42a97639db502b590600090a461051e8284611b64565b60006118b982611a9f565b60028101549091506000906118d6906001600160a01b0316611c36565b90506118e181612722565b60058201546001600160401b03166000036119375760405162461bcd60e51b81526020600482015260166024820152751a185b991cda185ad9481b9bdd081c995c5d5a5c995960521b60448201526064016102e6565b60058201805467ffffffffffffffff1916905560008061195561251b565b91509150600061197060008051602061496683398151915290565b600f81015486546001600160401b03858116600160c01b9081026001600160c01b03898416600160801b90810267ffffffffffffffff60801b19600160401b62010000909904871689021677ffffffffffffffffffffffffffffffff00000000000000001990971696909617959095179081168217808d5560408051610180810182529386169286169290921783529586048416602083015284860484169082015293048116606084015260018901546001600160801b03808216608086015292900490911660a083015260028801546001600160a01b0390811660c08401526003890154811660e08401526004890154908116610100840152600160a01b9004811661012083015260058801541661014082015260068701546101608201529091506101cb9085908861260a565b60006000805160206149668339815191526001600160401b03831615801590611ae357506001600160401b0380841660009081526006830160205260409020541615155b611b205760405162461bcd60e51b815260206004820152600e60248201526d1a5b9d985b1a590818dc9d081a5960921b60448201526064016102e6565b6001600160401b0390921660009081526006909201602052506040902090565b7f4f24f5c433db0962dac0d2c8b84197a6e6c7cc4e5d9ebe1916a1b6193da2f33a90565b6004820154600090611b8b90633b9aca0090600160a01b90046001600160401b0316614246565b6001840154611baa9190600160801b90046001600160801b0316614201565b60038401549091506001600160a01b0316611bc584846129aa565b6000816001600160a01b031683620186a090604051600060405180830381858888f193505050503d8060008114611c18576040519150601f19603f3d011682016040523d82523d6000602084013e611c1d565b606091505b5050905080611c2f57611c2f83612c34565b5050505050565b7f5bebac0595fee029d42bb673937f5f1cb81cf8641382bc17774635de9b7d796568010000000000000000600160e01b03604083901b161880600060048084015460ff1690811115611c8a57611c8a614060565b03611cd75760405162461bcd60e51b815260206004820152601b60248201527f696e76616c6964206167656e74207661756c742061646472657373000000000060448201526064016102e6565b50919050565b6001810154610191906001600160a01b0316612e72565b611d5f6040805160c081019091526000606082018181526080830182905260a083019190915281908152604080516060810182526000808252602082810182905292820152910190815260408051606081018252600080825260208281018290529282015291015290565b6000611d6a83612f2a565b90506040518060600160405280611d8085612ff0565b8152602001828152602001611d95858461307d565b90529392505050565b600080611daf846000015184613249565b90506000611dc1856020015185613249565b90506000611dd3866040015186613249565b9050611de883611de3848461327f565b61327f565b9695505050505050565b600080611dfd611b40565b600c810154909150611e23906001600160401b03600160901b9091048116908516614246565b9392505050565b6000611e238383612710613295565b6000805160206149668339815191526000611e558585856133bb565b9050611e60816133f0565b600585018054829190600090611e809084906001600160401b031661400e565b92506101000a8154816001600160401b0302191690836001600160401b031602179055508082600e0160188282829054906101000a90046001600160401b0316611eca919061400e565b92506101000a8154816001600160401b0302191690836001600160401b031602179055505050505050565b600080611f0b836001600160401b031685612c7b565b9050611f2e611f18611b40565b600c01548290600160401b900461ffff16611e2a565b949350505050565b6000611f446103e84361425d565b611f4f906001614201565b905090565b60006001600160801b0382111561035d5760405162461bcd60e51b815260206004820152602760248201527f53616665436173743a2076616c756520646f65736e27742066697420696e20316044820152663238206269747360c81b60648201526084016102e6565b60008180519060200120604051602001611fd991815260200190565b604051602081830303815290604052805190602001209050919050565b6000808251116120485760405162461bcd60e51b815260206004820152601b60248201527f4d7573742068617665206174206c65617374206f6e65206c656166000000000060448201526064016102e6565b81516001036120735781600081518110612064576120646140f4565b60200260200101519050919050565b6040805180820190915260008082526020820152825181525b8051600110156120c357602081018051906120a682614271565b905250805160029082906120bb9083906140ca565b90525061208c565b8251815260208101516000906120da906001614201565b6001600160401b038111156120f1576120f16140de565b60405190808252806020026020018201604052801561211a578160200160208202803683370190505b5090506000826020015160016121309190614201565b6001600160401b03811115612147576121476140de565b604051908082528060200260200182016040528015612170578160200160208202803683370190505b509050600083602001516001901b846000015161218d919061425d565b84602001516001901b6121a091906140a1565b90506000805b600281101561246557600080826000036121c45750508751836121cb565b5083905060005b8181108061222b575060018411801561222b5750856121eb6002866140a1565b815181106121fb576121fb6140f4565b60200260200101518660018661221191906140a1565b81518110612221576122216140f4565b6020026020010151145b1561245b576001841180156122875750856122476002866140a1565b81518110612257576122576140f4565b60200260200101518660018661226d91906140a1565b8151811061227d5761227d6140f4565b6020026020010151145b156123d057866122986002866140a1565b815181106122a8576122a86140f4565b6020026020010151876001866122be91906140a1565b815181106122ce576122ce6140f4565b6020026020010151101561237957866122e86002866140a1565b815181106122f8576122f86140f4565b60200260200101518760018661230e91906140a1565b8151811061231e5761231e6140f4565b60200260200101518860018761233491906140a1565b81518110612344576123446140f4565b602002602001018960028861235991906140a1565b81518110612369576123696140f4565b6020908102919091010191909152525b6040600019850160200288019081209052856123966002866140a1565b815181106123a6576123a66140f4565b6020026020010180518091906123bb90614271565b905250836123c88161428a565b9450506121cb565b8181101561244e578981815181106123ea576123ea6140f4565b6020026020010151878581518110612404576124046140f4565b60200260200101818152505082868581518110612423576124236140f4565b60209081029190910101528361243881614271565b945050808061244690614271565b9150506121cb565b6124566142a1565b6121cb565b50506001016121a6565b5080600114612476576124766142a1565b83600081518110612489576124896140f4565b602002602001015195505050505050919050565b826001600160401b03168460e001516001600160a01b03166124be87613532565b6001600160a01b03167f34abd615afc02c31fa99ded1778ea60d36a99bf892c68e54beddb16007d9e96385856124f78a60000151611df2565b8a6080015160405161250c94939291906142e0565b60405180910390a45050505050565b60008060008051602061496683398151915281612536611b40565b600f830154909150600090600160901b90046001600160401b031661255a426102f5565b6125649190614390565b600c83015490915060009061258e9063ffffffff16610b766001600160401b0385166103e8614246565b600d840154600f8601549192506001600160401b03600160981b9091048116916125c09184916201000090041661400e565b6125ca919061400e565b600e840154600f8601549197506001600160401b03908116916125f6918591600160501b90041661400e565b612600919061400e565b9450505050509091565b806001600160401b03168260e001516001600160a01b031661262b85613532565b6001600160a01b03167f7e28eb3b9a2077a4fa0559357b1647ec5eabf18d7adf1539c4e8fb1445a5fc096126628660000151611df2565b60808701516020880151604089015160608a015160028c0167464250526641000160c01b6001600160401b038c16178c6101000151633b9aca008e61012001516001600160401b03166126b59190614246565b6040516126ca999897969594939291906143e4565b60405180910390a4505050565b6000806000805160206149668339815191529050612718816000018481548110612703576127036140f4565b9060005260206000209060040201600061355a565b5090949350505050565b61272c8133613719565b6101915760405162461bcd60e51b815260206004820152601660248201527537b7363c9030b3b2b73a103b30bab63a1037bbb732b960511b60448201526064016102e6565b600061277b611b40565b6008810154600b8201549192506001600160a01b0316906040840135146127d45760405162461bcd60e51b815260206004820152600d60248201526c34b73b30b634b21031b430b4b760991b60448201526064016102e6565b60405163d577275160e01b81526001600160a01b0382169063d5772751906128009086906004016145b2565b602060405180830381865afa15801561281d573d6000803e3d6000fd5b505050506040513d601f19601f820116820180604052508101906128419190614043565b61051e5760405162461bcd60e51b81526020600482015260166024820152751b9bdb8b5c185e5b595b9d081b9bdd081c1c9bdd995960521b60448201526064016102e6565b6004820154600090611e23906128a8908490600160581b900461ffff16611e2a565b6137c8565b60048201546000906128cb908390600160581b900461ffff16611e2a565b8354604080516368dc448760e11b815290519293506001600160a01b039091169163d1b8890e918491600480830192600092919082900301818588803b15801561291457600080fd5b505af1158015612928573d6000803e3d6000fd5b505050505061293683613532565b6001600160a01b031663677fa23261294e83856140a1565b6129566137ff565b6040516001600160e01b031960e085901b1681526001600160a01b0390911660048201526024016000604051808303818588803b15801561299657600080fd5b505af115801561178e573d6000803e3d6000fd5b6002820154600080516020614966833981519152906000906129d4906001600160a01b0316611c36565b84546001860154919250600091612a019184916001600160401b03909116906001600160801b03166133bb565b600583015460408051808201909152601381527234b73b30b634b2103932b9b2b93b30ba34b7b760691b6020820152919250612a4a916001600160401b0390911690839061386c565b60058301805467ffffffffffffffff19166001600160401b03928316179055600e840180548392601891612a87918591600160c01b900416614390565b82546101009290920a6001600160401b03818102199093169183160217909155949094166000908152600693840160205260408120818155600181018290556002810180546001600160a01b031990811690915560038201805490911690556004810180546001600160e01b031916905560058101805467ffffffffffffffff191690559093019290925550505050565b6000612b22611b40565b6008810154600b8201549192506001600160a01b031690604084013514612b7b5760405162461bcd60e51b815260206004820152600d60248201526c34b73b30b634b21031b430b4b760991b60448201526064016102e6565b604051635e30ebfb60e01b81526001600160a01b03821690635e30ebfb90612ba79086906004016146c8565b602060405180830381865afa158015612bc4573d6000803e3d6000fd5b505050506040513d601f19601f82011682018060405250810190612be89190614043565b61051e5760405162461bcd60e51b815260206004820152601760248201527f626c6f636b20686569676874206e6f742070726f76656400000000000000000060448201526064016102e6565b6000612c3e611b40565b60098101546040519192506001600160a01b03169083156108fc029084906000818181858888f1935050505015801561051e573d6000803e3d6000fd5b6000611e2382612c8d6009600a6148a6565b859190613295565b6000612ca0836138b7565b90506000612cad84613904565b805483549192506001600160a01b03908116911603612cd557612cd0848461393d565b612e6c565b6000612cdf611b40565b90506000612cec86613532565b6012830154909150600090612d1990600160801b900463ffffffff16612d138888886139c1565b90611e2a565b8554600189015460405163083e007560e21b81526001600160a01b0392831660048201529082166024820152604481018990529192508316906320f801d490606401600060405180830381600087803b158015612d7557600080fd5b505af1158015612d89573d6000803e3d6000fd5b5050505080341015612ddd5760405162461bcd60e51b815260206004820152601960248201527f6e6f7420656e6f7567682066756e64732070726f76696465640000000000000060448201526064016102e6565b612de681612c34565b803411156114dc576001600160a01b03821663677fa232612e0783346140a1565b612e0f6137ff565b6040516001600160e01b031960e085901b1681526001600160a01b0390911660048201526024016000604051808303818588803b158015612e4f57600080fd5b505af1158015612e63573d6000803e3d6000fd5b50505050505050505b50505050565b612e7a6139e7565b604051633af32abf60e01b81526001600160a01b0383811660048301529190911690633af32abf90602401602060405180830381865afa158015612ec2573d6000803e3d6000fd5b505050506040513d601f19601f82011682018060405250810190612ee69190614043565b6101915760405162461bcd60e51b81526020600482015260156024820152741859d95b9d081b9bdd081dda1a5d195b1a5cdd1959605a1b60448201526064016102e6565b612f4f6040805160608101909152806000815260200160008152602001600081525090565b6000612f5a83613904565b60408051606081019091529091508060018152825485546040516370a0823160e01b81526001600160a01b0391821660048201526020909301929116906370a08231906024015b602060405180830381865afa158015612fbe573d6000803e3d6000fd5b505050506040513d601f19601f82011682018060405250810190612fe291906148b2565b8152602001611d9583613a05565b6130156040805160608101909152806000815260200160008152602001600081525090565b6000613020836138b7565b60408051606081019091526000815281549192509060208201906001600160a01b03166370a0823161305187613532565b6040516001600160e01b031960e084901b1681526001600160a01b039091166004820152602401612fa1565b6130a26040805160608101909152806000815260200160008152602001600081525090565b8254604080516332f7ce0b60e21b815290516000926001600160a01b03169163cbdf382c9160048083019260209291908290030181865afa1580156130eb573d6000803e3d6000fd5b505050506040513d601f19601f8201168201806040525081019061310f91906148cb565b90506000816001600160a01b03166370a0823161312b87613532565b6040516001600160e01b031960e084901b1681526001600160a01b039091166004820152602401602060405180830381865afa15801561316f573d6000803e3d6000fd5b505050506040513d601f19601f8201168201806040525081019061319391906148b2565b90506000826001600160a01b03166318160ddd6040518163ffffffff1660e01b8152600401602060405180830381865afa1580156131d5573d6000803e3d6000fd5b505050506040513d601f19601f820116820180604052508101906131f991906148b2565b905060008560200151600003613210576000613225565b60208601516040870151613225918490613295565b60408051606081018252600281526020810195909552840152509095945050505050565b6000806132568484613a1b565b905060006132648585613a38565b9050806000036132755760006110ed565b6110ed81836140ca565b600081831061328e5781611e23565b5090919050565b60008082116132d95760405162461bcd60e51b815260206004820152601060248201526f4469766973696f6e206279207a65726f60801b60448201526064016102e6565b836000036132e957506000611e23565b838302838582816132fc576132fc6140b4565b040361331a57828181613311576133116140b4565b04915050611e23565b50600061332783866140ca565b90506000613335848761425d565b9050600061334385876140ca565b90506000613351868861425d565b90508561335e8285614246565b61336891906140ca565b6133728385614246565b61337c8387614246565b886133878689614246565b6133919190614246565b61339b9190614201565b6133a59190614201565b6133af9190614201565b98975050505050505050565b600483015460009081906133db908490600160581b900461ffff16611e2a565b90506133e681613a7e565b6110ed908561400e565b6000805160206149668339815191526000613409611b40565b600d810154909150600160581b90046001600160401b031660008190036134305750505050565b6001820154604080516318160ddd60e01b815290516000926001600160a01b0316916318160ddd9160048083019260209291908290030181865afa15801561347c573d6000803e3d6000fd5b505050506040513d601f19601f820116820180604052508101906134a091906148b2565b905060006134ad82613a7e565b600e8601546134cc9190600160c01b90046001600160401b031661400e565b6001600160401b0316905082866001600160401b0316826134ed9190614201565b11156101cb5760405162461bcd60e51b81526020600482015260146024820152731b5a5b9d1a5b99c818d85c08195e18d95959195960621b60448201526064016102e6565b7f5bebac0595fee029d42bb673937f5f1cb81cf8641382bc17774635de9b7d79651860401c90565b6000806000806000806135f9886001018054613575906143b0565b80601f01602080910402602001604051908101604052809291908181526020018280546135a1906143b0565b80156135ee5780601f106135c3576101008083540402835291602001916135ee565b820191906000526020600020905b8154815290600101906020018083116135d157829003601f168201915b505050505088613aaf565b8a549295509093509150600160f01b900460ff161561364057875460009061362f90600160a81b900460ff166001838786613b7a565b965091945084935061371292505050565b60008060006136db8b6002018054613657906143b0565b80601f0160208091040260200160405190810160405280929190818152602001828054613683906143b0565b80156136d05780601f106136a5576101008083540402835291602001916136d0565b820191906000526020600020905b8154815290600101906020018083116136b357829003601f168201915b50505050508b613aaf565b8d5492955090935091506000906136ff90600160a81b900460ff1685848a89613b7a565b9950949750909550613712945050505050565b9250925092565b60018201546000906001600160a01b03908116908316811480611f2e575061373f6139e7565b604051631f86345d60e31b81526001600160a01b038381166004830152919091169063fc31a2e890602401602060405180830381865afa158015613787573d6000803e3d6000fd5b505050506040513d601f19601f820116820180604052508101906137ab91906148cb565b6001600160a01b0316836001600160a01b03161491505092915050565b6000806137d3611b40565b600c8101549091506137f590600160901b90046001600160401b03168461425d565b611e2390846140a1565b7fec7e8c1c441439dd40959777f4c577ea0cd42fcc1dbe59d2bd0f5d9c55df8dc5546000805160206149668339815191528054600092829161ffff90911690811061384c5761384c6140f4565b60009182526020909120600490910201546001600160a01b031692915050565b6000826001600160401b0316846001600160401b0316101582906138a35760405162461bcd60e51b81526004016102e691906148e8565b5050506001600160401b0390811691160390565b60008060008051602061496683398151915260048401548154919250829161010090910461ffff169081106138ee576138ee6140f4565b9060005260206000209060040201915050919050565b600080600080516020614966833981519152600484015481549192508291630100000090910461ffff169081106138ee576138ee6140f4565b6000613947611b40565b9050600061395484613532565b9050806001600160a01b031663648d087861396d6137ff565b600985015460405160e084901b6001600160e01b03191681526001600160a01b0392831660048201529116602482015260448101869052606401600060405180830381600087803b15801561299657600080fd5b6000806139cd83613a05565b905060006139da85613a05565b9050611de8868383613295565b6000806139f2611b40565b600701546001600160a01b031692915050565b6000613a1282600061355a565b50909392505050565b600080613a288484613bfe565b9050611f2e846020015182613d28565b600080613a43611b40565b90506000613a55848660000151613d42565b50600d83015460408701519192506110ed918391612d13916001600160401b0390911690612c7b565b600080613a89611b40565b600c810154909150611e2390610b8090600160901b90046001600160401b0316856140ca565b600080600080613abd611b40565b600a8101549091506001600160a01b03168515613b4e5760405163e4a0a55b60e01b81526001600160a01b0382169063e4a0a55b90613b00908a906004016148e8565b606060405180830381865afa158015613b1d573d6000803e3d6000fd5b505050506040513d601f19601f82011682018060405250810190613b419190614937565b9450945094505050613712565b60405163524f388960e01b81526001600160a01b0382169063524f388990613b00908a906004016148e8565b600080613b85611b40565b905060006009613b95878a614201565b613b9f9190614201565b600a830154909150600090613bbf908690600160a81b900460ff16614201565b905080821015613bd157613bd16142a1565b613bf1613bde82846140a1565b613be990600a6148a6565b87908a613295565b9998505050505050505050565b6000806000613c11848660000151613d42565b60058601549193509150600090613c3a906001600160401b03600160401b820481169116614201565b90506000613c5084612d13848a60400151612c7b565b90506000600188516002811115613c6957613c69614060565b14613c88576005870154600160801b90046001600160401b0316613c9e565b6005870154600160c01b90046001600160401b03165b90506000613cbd85612d13846001600160401b03168c60400151612c7b565b9050600060018a516002811115613cd657613cd6614060565b03613ce2576000613cfa565b8951613cef908a90613e3c565b546001600160801b03165b6001600160801b0316905080613d108386614201565b613d1a9190614201565b9a9950505050505050505050565b6000818311613d38576000611e23565b611e2382846140a1565b6000806002836002811115613d5957613d59614060565b03613db457600080613d6c866001613d42565b915091506000613d7a611b40565b600c015463ffffffff64010000000090910481169150613d9e9082908490611e2a16565b9350613daa8184611e2a565b9450505050613e35565b6001836002811115613dc857613dc8614060565b03613e0357613dd684613904565b60030154600485015463ffffffff9182169250613dfc91600160881b9091041682613e89565b9150613e35565b613e0c846138b7565b60030154600485015463ffffffff9182169250613e3291600160681b9091041682613e89565b91505b9250929050565b60006001826002811115613e5257613e52614060565b03613e5f57613e5f6142a1565b6000826002811115613e7357613e73614060565b14613e815782600901611e23565b505060080190565b600081831161328e5781611e23565b600060208284031215613eaa57600080fd5b5035919050565b6001600160a01b038116811461019157600080fd5b60008060008060008060a08789031215613edf57600080fd5b8635613eea81613eb1565b955060208701359450604087013593506060870135613f0881613eb1565b925060808701356001600160401b0380821115613f2457600080fd5b818901915089601f830112613f3857600080fd5b813581811115613f4757600080fd5b8a60208260051b8501011115613f5c57600080fd5b6020830194508093505050509295509295509295565b60008060408385031215613f8557600080fd5b82356001600160401b03811115613f9b57600080fd5b83016102008186031215613fae57600080fd5b946020939093013593505050565b60008060408385031215613fcf57600080fd5b82356001600160401b03811115613fe557600080fd5b83016101608186031215613fae57600080fd5b634e487b7160e01b600052601160045260246000fd5b6001600160401b0381811683821601908082111561402e5761402e613ff8565b5092915050565b801515811461019157600080fd5b60006020828403121561405557600080fd5b8151611e2381614035565b634e487b7160e01b600052602160045260246000fd5b6001600160401b0381811683821602808216919082811461409957614099613ff8565b505092915050565b818103818111156101e6576101e6613ff8565b634e487b7160e01b600052601260045260246000fd5b6000826140d9576140d96140b4565b500490565b634e487b7160e01b600052604160045260246000fd5b634e487b7160e01b600052603260045260246000fd5b6000808335601e1984360301811261412157600080fd5b8301803591506001600160401b0382111561413b57600080fd5b602001915036819003821315613e3557600080fd5b60208082526021908201527f6d696e74657220756e6465726c79696e67206164647265737320696e76616c696040820152601960fa1b606082015260800190565b60208082526023908201527f636f6c6c61746572616c207265736572766174696f6e206e6f7420617070726f6040820152621d995960ea1b606082015260800190565b80356141df81614035565b919050565b6000602082840312156141f657600080fd5b8135611e2381614035565b808201808211156101e6576101e6613ff8565b80356001600160401b03811681146141df57600080fd5b60006020828403121561423d57600080fd5b611e2382614214565b80820281158282048414176101e6576101e6613ff8565b60008261426c5761426c6140b4565b500690565b60006001820161428357614283613ff8565b5060010190565b60008161429957614299613ff8565b506000190190565b634e487b7160e01b600052600160045260246000fd5b81835281816020850137506000828201602090810191909152601f909101601f19169091010190565b6060808252810184905260006080600586901b8301810190830187835b8881101561437057858403607f190183528135368b9003601e1901811261432357600080fd5b8a0160208181019135906001600160401b0382111561434157600080fd5b81360383131561435057600080fd5b61435b8783856142b7565b965094850194939093019250506001016142fd565b505050602083018590526001600160801b038416604084015290506110ed565b6001600160401b0382811682821603908082111561402e5761402e613ff8565b600181811c908216806143c457607f821691505b602082108103611cd757634e487b7160e01b600052602260045260246000fd5b60006101208b835260206001600160801b038c1660208501526001600160401b03808c166040860152808b166060860152808a166080860152508160a0850152600088548160018260011c9150600183168061444157607f831692505b60208310810361445f57634e487b7160e01b85526022600452602485fd5b9588018281526020019580801561447d5760018114614493576144be565b60ff198516885283151560051b880195506144be565b60008e81526020902060005b858110156144b85781548a82015290840190880161449f565b89019650505b505050505060c085018890526001600160a01b03871660e086015292506144e3915050565b826101008301529a9950505050505050505050565b6000808335601e1984360301811261450f57600080fd5b83016020810192503590506001600160401b0381111561452e57600080fd5b8060051b3603821315613e3557600080fd5b81835260006001600160fb1b0383111561455957600080fd5b8260051b80836020870137939093016020019392505050565b6001600160401b038061458483614214565b1683528061459460208401614214565b166020840152806145a760408401614214565b166040840152505050565b6020815260006145c283846144f8565b61020060208501526145d961022085018284614540565b91505060208401356040840152604084013560608401526145fc60608501614214565b6001600160401b0380821660808601528061461960808801614214565b1660a08601528061462c60a08801614214565b1660c08601528061463f60c08801614214565b1660e086015261465160e08701614214565b915061010081831681870152610120925080870135838701525050610140818601358186015261016091508086013582860152506146908186016141d4565b90506101806146a28186018315159052565b6101a091508086013582860152506146c06101c08501828701614572565b509392505050565b6020815260006146d883846144f8565b6101608060208601526146f061018086018385614540565b9250602086013560408601526040860135606086015261471260608701614214565b91506001600160401b0380831660808701528061473160808901614214565b1660a08701528061474460a08901614214565b1660c08701528061475760c08901614214565b1660e087015261010092508061476f60e08901614214565b168387015261477f838801614214565b925061012081841681880152614796818901614214565b93505061014081841681880152816147af828a01614214565b1683880152505050508091505092915050565b600181815b808511156147fd5781600019048211156147e3576147e3613ff8565b808516156147f057918102915b93841c93908002906147c7565b509250929050565b600082614814575060016101e6565b81614821575060006101e6565b816001811461483757600281146148415761485d565b60019150506101e6565b60ff84111561485257614852613ff8565b50506001821b6101e6565b5060208310610133831016604e8410600b8410161715614880575081810a6101e6565b61488a83836147c2565b806000190482111561489e5761489e613ff8565b029392505050565b6000611e238383614805565b6000602082840312156148c457600080fd5b5051919050565b6000602082840312156148dd57600080fd5b8151611e2381613eb1565b60006020808352835180602085015260005b81811015614916578581018301518582016040015282016148fa565b506000604082860101526040601f19601f8301168501019250505092915050565b60008060006060848603121561494c57600080fd5b835192506020840151915060408401519050925092509256feec7e8c1c441439dd40959777f4c577ea0cd42fcc1dbe59d2bd0f5d9c55df8db6a2646970667358221220664cdc66e54d9d97c4ffec3b62e6fcaab9bd08706a76bf70de62ca8f58e987ac64736f6c63430008170033",
  "linkReferences": {},
  "deployedLinkReferences": {}
}