{
  "_format": "hh-sol-artifact-1",
  "contractName": "SettingsManagementFacet",
  "sourceName": "contracts/assetManager/facets/SettingsManagementFacet.sol",
  "abi": [
    {
      "anonymous": false,
      "inputs": [
        {
          "indexed": true,
          "internalType": "address",
          "name": "agentVault",
          "type": "address"
        },
        {
          "indexed": false,
          "internalType": "uint256",
          "name": "feeBIPS",
          "type": "uint256"
        },
        {
          "indexed": false,
          "internalType": "uint256",
          "name": "mintingVaultCollateralRatioBIPS",
          "type": "uint256"
        },
        {
          "indexed": false,
          "internalType": "uint256",
          "name": "mintingPoolCollateralRatioBIPS",
          "type": "uint256"
        },
        {
          "indexed": false,
          "internalType": "uint256",
          "name": "freeCollateralLots",
          "type": "uint256"
        }
      ],
      "name": "AgentAvailable",
      "type": "event"
    },
    {
      "anonymous": false,
      "inputs": [
        {
          "indexed": true,
          "internalType": "address",
          "name": "agentVault",
          "type": "address"
        },
        {
          "indexed": false,
          "internalType": "uint8",
          "name": "collateralClass",
          "type": "uint8"
        },
        {
          "indexed": false,
          "internalType": "address",
          "name": "token",
          "type": "address"
        }
      ],
      "name": "AgentCollateralTypeChanged",
      "type": "event"
    },
    {
      "anonymous": false,
      "inputs": [
        {
          "indexed": true,
          "internalType": "address",
          "name": "agentVault",
          "type": "address"
        },
        {
          "indexed": false,
          "internalType": "uint256",
          "name": "destroyAllowedAt",
          "type": "uint256"
        }
      ],
      "name": "AgentDestroyAnnounced",
      "type": "event"
    },
    {
      "anonymous": false,
      "inputs": [
        {
          "indexed": true,
          "internalType": "address",
          "name": "agentVault",
          "type": "address"
        }
      ],
      "name": "AgentDestroyed",
      "type": "event"
    },
    {
      "anonymous": false,
      "inputs": [
        {
          "indexed": true,
          "internalType": "address",
          "name": "agentVault",
          "type": "address"
        },
        {
          "indexed": false,
          "internalType": "uint256",
          "name": "timestamp",
          "type": "uint256"
        }
      ],
      "name": "AgentInCCB",
      "type": "event"
    },
    {
      "anonymous": false,
      "inputs": [
        {
          "indexed": true,
          "internalType": "address",
          "name": "agentVault",
          "type": "address"
        },
        {
          "indexed": false,
          "internalType": "string",
          "name": "name",
          "type": "string"
        },
        {
          "indexed": false,
          "internalType": "uint256",
          "name": "value",
          "type": "uint256"
        },
        {
          "indexed": false,
          "internalType": "uint256",
          "name": "validAt",
          "type": "uint256"
        }
      ],
      "name": "AgentSettingChangeAnnounced",
      "type": "event"
    },
    {
      "anonymous": false,
      "inputs": [
        {
          "indexed": true,
          "internalType": "address",
          "name": "agentVault",
          "type": "address"
        },
        {
          "indexed": false,
          "internalType": "string",
          "name": "name",
          "type": "string"
        },
        {
          "indexed": false,
          "internalType": "uint256",
          "name": "value",
          "type": "uint256"
        }
      ],
      "name": "AgentSettingChanged",
      "type": "event"
    },
    {
      "anonymous": false,
      "inputs": [
        {
          "indexed": true,
          "internalType": "address",
          "name": "owner",
          "type": "address"
        },
        {
          "indexed": true,
          "internalType": "address",
          "name": "agentVault",
          "type": "address"
        },
        {
          "components": [
            {
              "internalType": "address",
              "name": "collateralPool",
              "type": "address"
            },
            {
              "internalType": "address",
              "name": "collateralPoolToken",
              "type": "address"
            },
            {
              "internalType": "string",
              "name": "underlyingAddress",
              "type": "string"
            },
            {
              "internalType": "address",
              "name": "vaultCollateralToken",
              "type": "address"
            },
            {
              "internalType": "address",
              "name": "poolWNatToken",
              "type": "address"
            },
            {
              "internalType": "uint256",
              "name": "feeBIPS",
              "type": "uint256"
            },
            {
              "internalType": "uint256",
              "name": "poolFeeShareBIPS",
              "type": "uint256"
            },
            {
              "internalType": "uint256",
              "name": "mintingVaultCollateralRatioBIPS",
              "type": "uint256"
            },
            {
              "internalType": "uint256",
              "name": "mintingPoolCollateralRatioBIPS",
              "type": "uint256"
            },
            {
              "internalType": "uint256",
              "name": "buyFAssetByAgentFactorBIPS",
              "type": "uint256"
            },
            {
              "internalType": "uint256",
              "name": "poolExitCollateralRatioBIPS",
              "type": "uint256"
            },
            {
              "internalType": "uint256",
              "name": "poolTopupCollateralRatioBIPS",
              "type": "uint256"
            },
            {
              "internalType": "uint256",
              "name": "poolTopupTokenPriceFactorBIPS",
              "type": "uint256"
            },
            {
              "internalType": "uint256",
              "name": "handshakeType",
              "type": "uint256"
            }
          ],
          "indexed": false,
          "internalType": "struct IAssetManagerEvents.AgentVaultCreationData",
          "name": "creationData",
          "type": "tuple"
        }
      ],
      "name": "AgentVaultCreated",
      "type": "event"
    },
    {
      "anonymous": false,
      "inputs": [
        {
          "indexed": true,
          "internalType": "address",
          "name": "agentVault",
          "type": "address"
        },
        {
          "indexed": false,
          "internalType": "uint256",
          "name": "exitAllowedAt",
          "type": "uint256"
        }
      ],
      "name": "AvailableAgentExitAnnounced",
      "type": "event"
    },
    {
      "anonymous": false,
      "inputs": [
        {
          "indexed": true,
          "internalType": "address",
          "name": "agentVault",
          "type": "address"
        }
      ],
      "name": "AvailableAgentExited",
      "type": "event"
    },
    {
      "anonymous": false,
      "inputs": [
        {
          "indexed": false,
          "internalType": "uint8",
          "name": "collateralClass",
          "type": "uint8"
        },
        {
          "indexed": false,
          "internalType": "address",
          "name": "collateralToken",
          "type": "address"
        },
        {
          "indexed": false,
          "internalType": "uint256",
          "name": "minCollateralRatioBIPS",
          "type": "uint256"
        },
        {
          "indexed": false,
          "internalType": "uint256",
          "name": "ccbMinCollateralRatioBIPS",
          "type": "uint256"
        },
        {
          "indexed": false,
          "internalType": "uint256",
          "name": "safetyMinCollateralRatioBIPS",
          "type": "uint256"
        }
      ],
      "name": "CollateralRatiosChanged",
      "type": "event"
    },
    {
      "anonymous": false,
      "inputs": [
        {
          "indexed": true,
          "internalType": "address",
          "name": "agentVault",
          "type": "address"
        },
        {
          "indexed": true,
          "internalType": "address",
          "name": "minter",
          "type": "address"
        },
        {
          "indexed": true,
          "internalType": "uint256",
          "name": "collateralReservationId",
          "type": "uint256"
        }
      ],
      "name": "CollateralReservationCancelled",
      "type": "event"
    },
    {
      "anonymous": false,
      "inputs": [
        {
          "indexed": true,
          "internalType": "address",
          "name": "agentVault",
          "type": "address"
        },
        {
          "indexed": true,
          "internalType": "address",
          "name": "minter",
          "type": "address"
        },
        {
          "indexed": true,
          "internalType": "uint256",
          "name": "collateralReservationId",
          "type": "uint256"
        },
        {
          "indexed": false,
          "internalType": "uint256",
          "name": "reservedAmountUBA",
          "type": "uint256"
        }
      ],
      "name": "CollateralReservationDeleted",
      "type": "event"
    },
    {
      "anonymous": false,
      "inputs": [
        {
          "indexed": true,
          "internalType": "address",
          "name": "agentVault",
          "type": "address"
        },
        {
          "indexed": true,
          "internalType": "address",
          "name": "minter",
          "type": "address"
        },
        {
          "indexed": true,
          "internalType": "uint256",
          "name": "collateralReservationId",
          "type": "uint256"
        }
      ],
      "name": "CollateralReservationRejected",
      "type": "event"
    },
    {
      "anonymous": false,
      "inputs": [
        {
          "indexed": true,
          "internalType": "address",
          "name": "agentVault",
          "type": "address"
        },
        {
          "indexed": true,
          "internalType": "address",
          "name": "minter",
          "type": "address"
        },
        {
          "indexed": true,
          "internalType": "uint256",
          "name": "collateralReservationId",
          "type": "uint256"
        },
        {
          "indexed": false,
          "internalType": "uint256",
          "name": "valueUBA",
          "type": "uint256"
        },
        {
          "indexed": false,
          "internalType": "uint256",
          "name": "feeUBA",
          "type": "uint256"
        },
        {
          "indexed": false,
          "internalType": "uint256",
          "name": "firstUnderlyingBlock",
          "type": "uint256"
        },
        {
          "indexed": false,
          "internalType": "uint256",
          "name": "lastUnderlyingBlock",
          "type": "uint256"
        },
        {
          "indexed": false,
          "internalType": "uint256",
          "name": "lastUnderlyingTimestamp",
          "type": "uint256"
        },
        {
          "indexed": false,
          "internalType": "string",
          "name": "paymentAddress",
          "type": "string"
        },
        {
          "indexed": false,
          "internalType": "bytes32",
          "name": "paymentReference",
          "type": "bytes32"
        },
        {
          "indexed": false,
          "internalType": "address",
          "name": "executor",
          "type": "address"
        },
        {
          "indexed": false,
          "internalType": "uint256",
          "name": "executorFeeNatWei",
          "type": "uint256"
        }
      ],
      "name": "CollateralReserved",
      "type": "event"
    },
    {
      "anonymous": false,
      "inputs": [
        {
          "indexed": false,
          "internalType": "uint8",
          "name": "collateralClass",
          "type": "uint8"
        },
        {
          "indexed": false,
          "internalType": "address",
          "name": "token",
          "type": "address"
        },
        {
          "indexed": false,
          "internalType": "uint256",
          "name": "decimals",
          "type": "uint256"
        },
        {
          "indexed": false,
          "internalType": "bool",
          "name": "directPricePair",
          "type": "bool"
        },
        {
          "indexed": false,
          "internalType": "string",
          "name": "assetFtsoSymbol",
          "type": "string"
        },
        {
          "indexed": false,
          "internalType": "string",
          "name": "tokenFtsoSymbol",
          "type": "string"
        },
        {
          "indexed": false,
          "internalType": "uint256",
          "name": "minCollateralRatioBIPS",
          "type": "uint256"
        },
        {
          "indexed": false,
          "internalType": "uint256",
          "name": "ccbMinCollateralRatioBIPS",
          "type": "uint256"
        },
        {
          "indexed": false,
          "internalType": "uint256",
          "name": "safetyMinCollateralRatioBIPS",
          "type": "uint256"
        }
      ],
      "name": "CollateralTypeAdded",
      "type": "event"
    },
    {
      "anonymous": false,
      "inputs": [
        {
          "indexed": false,
          "internalType": "uint8",
          "name": "collateralClass",
          "type": "uint8"
        },
        {
          "indexed": false,
          "internalType": "address",
          "name": "collateralToken",
          "type": "address"
        },
        {
          "indexed": false,
          "internalType": "uint256",
          "name": "validUntil",
          "type": "uint256"
        }
      ],
      "name": "CollateralTypeDeprecated",
      "type": "event"
    },
    {
      "anonymous": false,
      "inputs": [
        {
          "indexed": false,
          "internalType": "string",
          "name": "name",
          "type": "string"
        },
        {
          "indexed": false,
          "internalType": "address",
          "name": "value",
          "type": "address"
        }
      ],
      "name": "ContractChanged",
      "type": "event"
    },
    {
      "anonymous": false,
      "inputs": [
        {
          "indexed": false,
          "internalType": "uint256",
          "name": "underlyingBlockNumber",
          "type": "uint256"
        },
        {
          "indexed": false,
          "internalType": "uint256",
          "name": "underlyingBlockTimestamp",
          "type": "uint256"
        },
        {
          "indexed": false,
          "internalType": "uint256",
          "name": "updatedAt",
          "type": "uint256"
        }
      ],
      "name": "CurrentUnderlyingBlockUpdated",
      "type": "event"
    },
    {
      "anonymous": false,
      "inputs": [
        {
          "indexed": true,
          "internalType": "address",
          "name": "agentVault",
          "type": "address"
        },
        {
          "indexed": false,
          "internalType": "bytes32",
          "name": "transactionHash1",
          "type": "bytes32"
        },
        {
          "indexed": false,
          "internalType": "bytes32",
          "name": "transactionHash2",
          "type": "bytes32"
        }
      ],
      "name": "DuplicatePaymentConfirmed",
      "type": "event"
    },
    {
      "anonymous": false,
      "inputs": [
        {
          "indexed": true,
          "internalType": "address",
          "name": "agentVault",
          "type": "address"
        },
        {
          "indexed": false,
          "internalType": "uint256",
          "name": "dustUBA",
          "type": "uint256"
        }
      ],
      "name": "DustChanged",
      "type": "event"
    },
    {
      "anonymous": false,
      "inputs": [],
      "name": "EmergencyPauseCanceled",
      "type": "event"
    },
    {
      "anonymous": false,
      "inputs": [
        {
          "indexed": false,
          "internalType": "uint256",
          "name": "pausedUntil",
          "type": "uint256"
        }
      ],
      "name": "EmergencyPauseTriggered",
      "type": "event"
    },
    {
      "anonymous": false,
      "inputs": [
        {
          "indexed": true,
          "internalType": "address",
          "name": "agentVault",
          "type": "address"
        },
        {
          "indexed": false,
          "internalType": "uint256",
          "name": "timestamp",
          "type": "uint256"
        }
      ],
      "name": "FullLiquidationStarted",
      "type": "event"
    },
    {
      "anonymous": false,
      "inputs": [
        {
          "indexed": true,
          "internalType": "address",
          "name": "agentVault",
          "type": "address"
        },
        {
          "indexed": true,
          "internalType": "address",
          "name": "minter",
          "type": "address"
        },
        {
          "indexed": true,
          "internalType": "uint256",
          "name": "collateralReservationId",
          "type": "uint256"
        },
        {
          "indexed": false,
          "internalType": "string[]",
          "name": "minterUnderlyingAddresses",
          "type": "string[]"
        },
        {
          "indexed": false,
          "internalType": "uint256",
          "name": "valueUBA",
          "type": "uint256"
        },
        {
          "indexed": false,
          "internalType": "uint256",
          "name": "feeUBA",
          "type": "uint256"
        }
      ],
      "name": "HandshakeRequired",
      "type": "event"
    },
    {
      "anonymous": false,
      "inputs": [
        {
          "indexed": true,
          "internalType": "address",
          "name": "agentVault",
          "type": "address"
        },
        {
          "indexed": false,
          "internalType": "bytes32",
          "name": "transactionHash",
          "type": "bytes32"
        }
      ],
      "name": "IllegalPaymentConfirmed",
      "type": "event"
    },
    {
      "anonymous": false,
      "inputs": [
        {
          "indexed": true,
          "internalType": "address",
          "name": "agentVault",
          "type": "address"
        }
      ],
      "name": "LiquidationEnded",
      "type": "event"
    },
    {
      "anonymous": false,
      "inputs": [
        {
          "indexed": true,
          "internalType": "address",
          "name": "agentVault",
          "type": "address"
        },
        {
          "indexed": true,
          "internalType": "address",
          "name": "liquidator",
          "type": "address"
        },
        {
          "indexed": false,
          "internalType": "uint256",
          "name": "valueUBA",
          "type": "uint256"
        },
        {
          "indexed": false,
          "internalType": "uint256",
          "name": "paidVaultCollateralWei",
          "type": "uint256"
        },
        {
          "indexed": false,
          "internalType": "uint256",
          "name": "paidPoolCollateralWei",
          "type": "uint256"
        }
      ],
      "name": "LiquidationPerformed",
      "type": "event"
    },
    {
      "anonymous": false,
      "inputs": [
        {
          "indexed": true,
          "internalType": "address",
          "name": "agentVault",
          "type": "address"
        },
        {
          "indexed": false,
          "internalType": "uint256",
          "name": "timestamp",
          "type": "uint256"
        }
      ],
      "name": "LiquidationStarted",
      "type": "event"
    },
    {
      "anonymous": false,
      "inputs": [
        {
          "indexed": true,
          "internalType": "address",
          "name": "agentVault",
          "type": "address"
        },
        {
          "indexed": true,
          "internalType": "uint256",
          "name": "collateralReservationId",
          "type": "uint256"
        },
        {
          "indexed": false,
          "internalType": "uint256",
          "name": "mintedAmountUBA",
          "type": "uint256"
        },
        {
          "indexed": false,
          "internalType": "uint256",
          "name": "agentFeeUBA",
          "type": "uint256"
        },
        {
          "indexed": false,
          "internalType": "uint256",
          "name": "poolFeeUBA",
          "type": "uint256"
        }
      ],
      "name": "MintingExecuted",
      "type": "event"
    },
    {
      "anonymous": false,
      "inputs": [
        {
          "indexed": true,
          "internalType": "address",
          "name": "agentVault",
          "type": "address"
        },
        {
          "indexed": true,
          "internalType": "address",
          "name": "minter",
          "type": "address"
        },
        {
          "indexed": true,
          "internalType": "uint256",
          "name": "collateralReservationId",
          "type": "uint256"
        },
        {
          "indexed": false,
          "internalType": "uint256",
          "name": "reservedAmountUBA",
          "type": "uint256"
        }
      ],
      "name": "MintingPaymentDefault",
      "type": "event"
    },
    {
      "anonymous": false,
      "inputs": [
        {
          "indexed": true,
          "internalType": "address",
          "name": "agentVault",
          "type": "address"
        },
        {
          "indexed": false,
          "internalType": "uint256",
          "name": "amountWei",
          "type": "uint256"
        },
        {
          "indexed": false,
          "internalType": "uint256",
          "name": "withdrawalAllowedAt",
          "type": "uint256"
        }
      ],
      "name": "PoolTokenRedemptionAnnounced",
      "type": "event"
    },
    {
      "anonymous": false,
      "inputs": [
        {
          "indexed": true,
          "internalType": "address",
          "name": "agentVault",
          "type": "address"
        },
        {
          "indexed": true,
          "internalType": "address",
          "name": "redeemer",
          "type": "address"
        },
        {
          "indexed": false,
          "internalType": "uint256",
          "name": "redemptionAmountUBA",
          "type": "uint256"
        },
        {
          "indexed": false,
          "internalType": "uint256",
          "name": "paidVaultCollateralWei",
          "type": "uint256"
        }
      ],
      "name": "RedeemedInCollateral",
      "type": "event"
    },
    {
      "anonymous": false,
      "inputs": [
        {
          "indexed": true,
          "internalType": "address",
          "name": "agentVault",
          "type": "address"
        },
        {
          "indexed": true,
          "internalType": "address",
          "name": "redeemer",
          "type": "address"
        },
        {
          "indexed": true,
          "internalType": "uint64",
          "name": "requestId",
          "type": "uint64"
        },
        {
          "indexed": false,
          "internalType": "uint256",
          "name": "redemptionAmountUBA",
          "type": "uint256"
        },
        {
          "indexed": false,
          "internalType": "uint256",
          "name": "redeemedVaultCollateralWei",
          "type": "uint256"
        },
        {
          "indexed": false,
          "internalType": "uint256",
          "name": "redeemedPoolCollateralWei",
          "type": "uint256"
        }
      ],
      "name": "RedemptionDefault",
      "type": "event"
    },
    {
      "anonymous": false,
      "inputs": [
        {
          "indexed": true,
          "internalType": "address",
          "name": "agentVault",
          "type": "address"
        },
        {
          "indexed": true,
          "internalType": "address",
          "name": "redeemer",
          "type": "address"
        },
        {
          "indexed": true,
          "internalType": "uint64",
          "name": "requestId",
          "type": "uint64"
        },
        {
          "indexed": false,
          "internalType": "bytes32",
          "name": "transactionHash",
          "type": "bytes32"
        },
        {
          "indexed": false,
          "internalType": "uint256",
          "name": "redemptionAmountUBA",
          "type": "uint256"
        },
        {
          "indexed": false,
          "internalType": "int256",
          "name": "spentUnderlyingUBA",
          "type": "int256"
        }
      ],
      "name": "RedemptionPaymentBlocked",
      "type": "event"
    },
    {
      "anonymous": false,
      "inputs": [
        {
          "indexed": true,
          "internalType": "address",
          "name": "agentVault",
          "type": "address"
        },
        {
          "indexed": true,
          "internalType": "address",
          "name": "redeemer",
          "type": "address"
        },
        {
          "indexed": true,
          "internalType": "uint64",
          "name": "requestId",
          "type": "uint64"
        },
        {
          "indexed": false,
          "internalType": "bytes32",
          "name": "transactionHash",
          "type": "bytes32"
        },
        {
          "indexed": false,
          "internalType": "int256",
          "name": "spentUnderlyingUBA",
          "type": "int256"
        },
        {
          "indexed": false,
          "internalType": "string",
          "name": "failureReason",
          "type": "string"
        }
      ],
      "name": "RedemptionPaymentFailed",
      "type": "event"
    },
    {
      "anonymous": false,
      "inputs": [
        {
          "indexed": true,
          "internalType": "address",
          "name": "agentVault",
          "type": "address"
        },
        {
          "indexed": true,
          "internalType": "address",
          "name": "redeemer",
          "type": "address"
        },
        {
          "indexed": true,
          "internalType": "uint64",
          "name": "requestId",
          "type": "uint64"
        },
        {
          "indexed": false,
          "internalType": "bytes32",
          "name": "transactionHash",
          "type": "bytes32"
        },
        {
          "indexed": false,
          "internalType": "uint256",
          "name": "redemptionAmountUBA",
          "type": "uint256"
        },
        {
          "indexed": false,
          "internalType": "int256",
          "name": "spentUnderlyingUBA",
          "type": "int256"
        }
      ],
      "name": "RedemptionPerformed",
      "type": "event"
    },
    {
      "anonymous": false,
      "inputs": [
        {
          "indexed": true,
          "internalType": "address",
          "name": "agentVault",
          "type": "address"
        },
        {
          "indexed": true,
          "internalType": "address",
          "name": "redeemer",
          "type": "address"
        },
        {
          "indexed": true,
          "internalType": "uint64",
          "name": "requestId",
          "type": "uint64"
        },
        {
          "indexed": false,
          "internalType": "uint256",
          "name": "redemptionAmountUBA",
          "type": "uint256"
        }
      ],
      "name": "RedemptionRejected",
      "type": "event"
    },
    {
      "anonymous": false,
      "inputs": [
        {
          "indexed": true,
          "internalType": "address",
          "name": "redeemer",
          "type": "address"
        },
        {
          "indexed": false,
          "internalType": "uint256",
          "name": "remainingLots",
          "type": "uint256"
        }
      ],
      "name": "RedemptionRequestIncomplete",
      "type": "event"
    },
    {
      "anonymous": false,
      "inputs": [
        {
          "indexed": true,
          "internalType": "address",
          "name": "agentVault",
          "type": "address"
        },
        {
          "indexed": true,
          "internalType": "address",
          "name": "redeemer",
          "type": "address"
        },
        {
          "indexed": true,
          "internalType": "uint64",
          "name": "requestId",
          "type": "uint64"
        }
      ],
      "name": "RedemptionRequestRejected",
      "type": "event"
    },
    {
      "anonymous": false,
      "inputs": [
        {
          "indexed": true,
          "internalType": "address",
          "name": "agentVault",
          "type": "address"
        },
        {
          "indexed": true,
          "internalType": "address",
          "name": "redeemer",
          "type": "address"
        },
        {
          "indexed": true,
          "internalType": "uint64",
          "name": "requestId",
          "type": "uint64"
        },
        {
          "indexed": false,
          "internalType": "uint256",
          "name": "valueTakenOverUBA",
          "type": "uint256"
        },
        {
          "indexed": false,
          "internalType": "address",
          "name": "newAgentVault",
          "type": "address"
        },
        {
          "indexed": false,
          "internalType": "uint64",
          "name": "newRequestId",
          "type": "uint64"
        }
      ],
      "name": "RedemptionRequestTakenOver",
      "type": "event"
    },
    {
      "anonymous": false,
      "inputs": [
        {
          "indexed": true,
          "internalType": "address",
          "name": "agentVault",
          "type": "address"
        },
        {
          "indexed": true,
          "internalType": "address",
          "name": "redeemer",
          "type": "address"
        },
        {
          "indexed": true,
          "internalType": "uint256",
          "name": "requestId",
          "type": "uint256"
        },
        {
          "indexed": false,
          "internalType": "string",
          "name": "paymentAddress",
          "type": "string"
        },
        {
          "indexed": false,
          "internalType": "uint256",
          "name": "valueUBA",
          "type": "uint256"
        },
        {
          "indexed": false,
          "internalType": "uint256",
          "name": "feeUBA",
          "type": "uint256"
        },
        {
          "indexed": false,
          "internalType": "uint256",
          "name": "firstUnderlyingBlock",
          "type": "uint256"
        },
        {
          "indexed": false,
          "internalType": "uint256",
          "name": "lastUnderlyingBlock",
          "type": "uint256"
        },
        {
          "indexed": false,
          "internalType": "uint256",
          "name": "lastUnderlyingTimestamp",
          "type": "uint256"
        },
        {
          "indexed": false,
          "internalType": "bytes32",
          "name": "paymentReference",
          "type": "bytes32"
        },
        {
          "indexed": false,
          "internalType": "address",
          "name": "executor",
          "type": "address"
        },
        {
          "indexed": false,
          "internalType": "uint256",
          "name": "executorFeeNatWei",
          "type": "uint256"
        }
      ],
      "name": "RedemptionRequested",
      "type": "event"
    },
    {
      "anonymous": false,
      "inputs": [
        {
          "indexed": true,
          "internalType": "address",
          "name": "agentVault",
          "type": "address"
        },
        {
          "indexed": true,
          "internalType": "uint256",
          "name": "redemptionTicketId",
          "type": "uint256"
        },
        {
          "indexed": false,
          "internalType": "uint256",
          "name": "ticketValueUBA",
          "type": "uint256"
        }
      ],
      "name": "RedemptionTicketCreated",
      "type": "event"
    },
    {
      "anonymous": false,
      "inputs": [
        {
          "indexed": true,
          "internalType": "address",
          "name": "agentVault",
          "type": "address"
        },
        {
          "indexed": true,
          "internalType": "uint256",
          "name": "redemptionTicketId",
          "type": "uint256"
        }
      ],
      "name": "RedemptionTicketDeleted",
      "type": "event"
    },
    {
      "anonymous": false,
      "inputs": [
        {
          "indexed": true,
          "internalType": "address",
          "name": "agentVault",
          "type": "address"
        },
        {
          "indexed": true,
          "internalType": "uint256",
          "name": "redemptionTicketId",
          "type": "uint256"
        },
        {
          "indexed": false,
          "internalType": "uint256",
          "name": "ticketValueUBA",
          "type": "uint256"
        }
      ],
      "name": "RedemptionTicketUpdated",
      "type": "event"
    },
    {
      "anonymous": false,
      "inputs": [
        {
          "indexed": true,
          "internalType": "address",
          "name": "agentVault",
          "type": "address"
        },
        {
          "indexed": false,
          "internalType": "uint256",
          "name": "valueUBA",
          "type": "uint256"
        }
      ],
      "name": "SelfClose",
      "type": "event"
    },
    {
      "anonymous": false,
      "inputs": [
        {
          "indexed": true,
          "internalType": "address",
          "name": "agentVault",
          "type": "address"
        },
        {
          "indexed": false,
          "internalType": "bool",
          "name": "mintFromFreeUnderlying",
          "type": "bool"
        },
        {
          "indexed": false,
          "internalType": "uint256",
          "name": "mintedAmountUBA",
          "type": "uint256"
        },
        {
          "indexed": false,
          "internalType": "uint256",
          "name": "depositedAmountUBA",
          "type": "uint256"
        },
        {
          "indexed": false,
          "internalType": "uint256",
          "name": "poolFeeUBA",
          "type": "uint256"
        }
      ],
      "name": "SelfMint",
      "type": "event"
    },
    {
      "anonymous": false,
      "inputs": [
        {
          "indexed": false,
          "internalType": "string",
          "name": "name",
          "type": "string"
        },
        {
          "indexed": false,
          "internalType": "uint256[]",
          "name": "value",
          "type": "uint256[]"
        }
      ],
      "name": "SettingArrayChanged",
      "type": "event"
    },
    {
      "anonymous": false,
      "inputs": [
        {
          "indexed": false,
          "internalType": "string",
          "name": "name",
          "type": "string"
        },
        {
          "indexed": false,
          "internalType": "uint256",
          "name": "value",
          "type": "uint256"
        }
      ],
      "name": "SettingChanged",
      "type": "event"
    },
    {
      "anonymous": false,
      "inputs": [
        {
          "indexed": true,
          "internalType": "address",
          "name": "agentVault",
          "type": "address"
        },
        {
          "indexed": false,
          "internalType": "int256",
          "name": "underlyingBalanceUBA",
          "type": "int256"
        }
      ],
      "name": "UnderlyingBalanceChanged",
      "type": "event"
    },
    {
      "anonymous": false,
      "inputs": [
        {
          "indexed": true,
          "internalType": "address",
          "name": "agentVault",
          "type": "address"
        },
        {
          "indexed": false,
          "internalType": "int256",
          "name": "balance",
          "type": "int256"
        },
        {
          "indexed": false,
          "internalType": "uint256",
          "name": "requiredBalance",
          "type": "uint256"
        }
      ],
      "name": "UnderlyingBalanceTooLow",
      "type": "event"
    },
    {
      "anonymous": false,
      "inputs": [
        {
          "indexed": true,
          "internalType": "address",
          "name": "agentVault",
          "type": "address"
        },
        {
          "indexed": false,
          "internalType": "bytes32",
          "name": "transactionHash",
          "type": "bytes32"
        },
        {
          "indexed": false,
          "internalType": "uint256",
          "name": "depositedUBA",
          "type": "uint256"
        }
      ],
      "name": "UnderlyingBalanceToppedUp",
      "type": "event"
    },
    {
      "anonymous": false,
      "inputs": [
        {
          "indexed": true,
          "internalType": "address",
          "name": "agentVault",
          "type": "address"
        },
        {
          "indexed": true,
          "internalType": "uint64",
          "name": "announcementId",
          "type": "uint64"
        },
        {
          "indexed": false,
          "internalType": "bytes32",
          "name": "paymentReference",
          "type": "bytes32"
        }
      ],
      "name": "UnderlyingWithdrawalAnnounced",
      "type": "event"
    },
    {
      "anonymous": false,
      "inputs": [
        {
          "indexed": true,
          "internalType": "address",
          "name": "agentVault",
          "type": "address"
        },
        {
          "indexed": true,
          "internalType": "uint64",
          "name": "announcementId",
          "type": "uint64"
        }
      ],
      "name": "UnderlyingWithdrawalCancelled",
      "type": "event"
    },
    {
      "anonymous": false,
      "inputs": [
        {
          "indexed": true,
          "internalType": "address",
          "name": "agentVault",
          "type": "address"
        },
        {
          "indexed": true,
          "internalType": "uint64",
          "name": "announcementId",
          "type": "uint64"
        },
        {
          "indexed": false,
          "internalType": "int256",
          "name": "spentUBA",
          "type": "int256"
        },
        {
          "indexed": false,
          "internalType": "bytes32",
          "name": "transactionHash",
          "type": "bytes32"
        }
      ],
      "name": "UnderlyingWithdrawalConfirmed",
      "type": "event"
    },
    {
      "anonymous": false,
      "inputs": [
        {
          "indexed": true,
          "internalType": "address",
          "name": "agentVault",
          "type": "address"
        },
        {
          "indexed": false,
          "internalType": "uint256",
          "name": "amountWei",
          "type": "uint256"
        },
        {
          "indexed": false,
          "internalType": "uint256",
          "name": "withdrawalAllowedAt",
          "type": "uint256"
        }
      ],
      "name": "VaultCollateralWithdrawalAnnounced",
      "type": "event"
    },
    {
      "inputs": [
        {
          "internalType": "uint256",
          "name": "_value",
          "type": "uint256"
        }
      ],
      "name": "setAgentExitAvailableTimelockSeconds",
      "outputs": [],
      "stateMutability": "nonpayable",
      "type": "function"
    },
    {
      "inputs": [
        {
          "internalType": "uint256",
          "name": "_value",
          "type": "uint256"
        }
      ],
      "name": "setAgentFeeChangeTimelockSeconds",
      "outputs": [],
      "stateMutability": "nonpayable",
      "type": "function"
    },
    {
      "inputs": [
        {
          "internalType": "uint256",
          "name": "_value",
          "type": "uint256"
        }
      ],
      "name": "setAgentMintingCRChangeTimelockSeconds",
      "outputs": [],
      "stateMutability": "nonpayable",
      "type": "function"
    },
    {
      "inputs": [
        {
          "internalType": "address",
          "name": "_value",
          "type": "address"
        }
      ],
      "name": "setAgentOwnerRegistry",
      "outputs": [],
      "stateMutability": "nonpayable",
      "type": "function"
    },
    {
      "inputs": [
        {
          "internalType": "uint256",
          "name": "_value",
          "type": "uint256"
        }
      ],
      "name": "setAgentTimelockedOperationWindowSeconds",
      "outputs": [],
      "stateMutability": "nonpayable",
      "type": "function"
    },
    {
      "inputs": [
        {
          "internalType": "address",
          "name": "_value",
          "type": "address"
        }
      ],
      "name": "setAgentVaultFactory",
      "outputs": [],
      "stateMutability": "nonpayable",
      "type": "function"
    },
    {
      "inputs": [
        {
          "internalType": "uint256",
          "name": "_value",
          "type": "uint256"
        }
      ],
      "name": "setAnnouncedUnderlyingConfirmationMinSeconds",
      "outputs": [],
      "stateMutability": "nonpayable",
      "type": "function"
    },
    {
      "inputs": [
        {
          "internalType": "uint256",
          "name": "_value",
          "type": "uint256"
        }
      ],
      "name": "setAttestationWindowSeconds",
      "outputs": [],
      "stateMutability": "nonpayable",
      "type": "function"
    },
    {
      "inputs": [
        {
          "internalType": "uint256",
          "name": "_value",
          "type": "uint256"
        }
      ],
      "name": "setAverageBlockTimeMS",
      "outputs": [],
      "stateMutability": "nonpayable",
      "type": "function"
    },
    {
      "inputs": [
        {
          "internalType": "uint256",
          "name": "_value",
          "type": "uint256"
        }
      ],
      "name": "setCancelCollateralReservationAfterSeconds",
      "outputs": [],
      "stateMutability": "nonpayable",
      "type": "function"
    },
    {
      "inputs": [
        {
          "internalType": "uint256",
          "name": "_value",
          "type": "uint256"
        }
      ],
      "name": "setCcbTimeSeconds",
      "outputs": [],
      "stateMutability": "nonpayable",
      "type": "function"
    },
    {
      "inputs": [
        {
          "internalType": "address",
          "name": "_value",
          "type": "address"
        }
      ],
      "name": "setCleanerContract",
      "outputs": [],
      "stateMutability": "nonpayable",
      "type": "function"
    },
    {
      "inputs": [
        {
          "internalType": "address",
          "name": "_value",
          "type": "address"
        }
      ],
      "name": "setCleanupBlockNumberManager",
      "outputs": [],
      "stateMutability": "nonpayable",
      "type": "function"
    },
    {
      "inputs": [
        {
          "internalType": "address",
          "name": "_value",
          "type": "address"
        }
      ],
      "name": "setCollateralPoolFactory",
      "outputs": [],
      "stateMutability": "nonpayable",
      "type": "function"
    },
    {
      "inputs": [
        {
          "internalType": "address",
          "name": "_value",
          "type": "address"
        }
      ],
      "name": "setCollateralPoolTokenFactory",
      "outputs": [],
      "stateMutability": "nonpayable",
      "type": "function"
    },
    {
      "inputs": [
        {
          "internalType": "uint256",
          "name": "_value",
          "type": "uint256"
        }
      ],
      "name": "setCollateralPoolTokenTimelockSeconds",
      "outputs": [],
      "stateMutability": "nonpayable",
      "type": "function"
    },
    {
      "inputs": [
        {
          "internalType": "uint256",
          "name": "_value",
          "type": "uint256"
        }
      ],
      "name": "setCollateralReservationFeeBips",
      "outputs": [],
      "stateMutability": "nonpayable",
      "type": "function"
    },
    {
      "inputs": [
        {
          "internalType": "uint256",
          "name": "_value",
          "type": "uint256"
        }
      ],
      "name": "setConfirmationByOthersAfterSeconds",
      "outputs": [],
      "stateMutability": "nonpayable",
      "type": "function"
    },
    {
      "inputs": [
        {
          "internalType": "uint256",
          "name": "_value",
          "type": "uint256"
        }
      ],
      "name": "setConfirmationByOthersRewardUSD5",
      "outputs": [],
      "stateMutability": "nonpayable",
      "type": "function"
    },
    {
      "inputs": [
        {
          "internalType": "uint256",
          "name": "_value",
          "type": "uint256"
        }
      ],
      "name": "setEmergencyPauseDurationResetAfterSeconds",
      "outputs": [],
      "stateMutability": "nonpayable",
      "type": "function"
    },
    {
      "inputs": [
        {
          "internalType": "address",
          "name": "_value",
          "type": "address"
        }
      ],
      "name": "setFdcVerification",
      "outputs": [],
      "stateMutability": "nonpayable",
      "type": "function"
    },
    {
      "inputs": [
        {
          "internalType": "uint256[]",
          "name": "_liquidationFactors",
          "type": "uint256[]"
        },
        {
          "internalType": "uint256[]",
          "name": "_vaultCollateralFactors",
          "type": "uint256[]"
        }
      ],
      "name": "setLiquidationPaymentFactors",
      "outputs": [],
      "stateMutability": "nonpayable",
      "type": "function"
    },
    {
      "inputs": [
        {
          "internalType": "uint256",
          "name": "_stepSeconds",
          "type": "uint256"
        }
      ],
      "name": "setLiquidationStepSeconds",
      "outputs": [],
      "stateMutability": "nonpayable",
      "type": "function"
    },
    {
      "inputs": [
        {
          "internalType": "uint256",
          "name": "_value",
          "type": "uint256"
        }
      ],
      "name": "setLotSizeAmg",
      "outputs": [],
      "stateMutability": "nonpayable",
      "type": "function"
    },
    {
      "inputs": [
        {
          "internalType": "uint256",
          "name": "_value",
          "type": "uint256"
        }
      ],
      "name": "setMaxEmergencyPauseDurationSeconds",
      "outputs": [],
      "stateMutability": "nonpayable",
      "type": "function"
    },
    {
      "inputs": [
        {
          "internalType": "uint256",
          "name": "_value",
          "type": "uint256"
        }
      ],
      "name": "setMaxRedeemedTickets",
      "outputs": [],
      "stateMutability": "nonpayable",
      "type": "function"
    },
    {
      "inputs": [
        {
          "internalType": "uint256",
          "name": "_value",
          "type": "uint256"
        }
      ],
      "name": "setMaxTrustedPriceAgeSeconds",
      "outputs": [],
      "stateMutability": "nonpayable",
      "type": "function"
    },
    {
      "inputs": [
        {
          "internalType": "uint256",
          "name": "_value",
          "type": "uint256"
        }
      ],
      "name": "setMinUnderlyingBackingBips",
      "outputs": [],
      "stateMutability": "nonpayable",
      "type": "function"
    },
    {
      "inputs": [
        {
          "internalType": "uint256",
          "name": "_value",
          "type": "uint256"
        }
      ],
      "name": "setMinUpdateRepeatTimeSeconds",
      "outputs": [],
      "stateMutability": "nonpayable",
      "type": "function"
    },
    {
      "inputs": [
        {
          "internalType": "uint256",
          "name": "_value",
          "type": "uint256"
        }
      ],
      "name": "setMintingCapAmg",
      "outputs": [],
      "stateMutability": "nonpayable",
      "type": "function"
    },
    {
      "inputs": [
        {
          "internalType": "uint256",
          "name": "_value",
          "type": "uint256"
        }
      ],
      "name": "setMintingPoolHoldingsRequiredBIPS",
      "outputs": [],
      "stateMutability": "nonpayable",
      "type": "function"
    },
    {
      "inputs": [
        {
          "internalType": "uint256",
          "name": "_rewardNATWei",
          "type": "uint256"
        },
        {
          "internalType": "uint256",
          "name": "_rewardBIPS",
          "type": "uint256"
        }
      ],
      "name": "setPaymentChallengeReward",
      "outputs": [],
      "stateMutability": "nonpayable",
      "type": "function"
    },
    {
      "inputs": [
        {
          "internalType": "uint256",
          "name": "_value",
          "type": "uint256"
        }
      ],
      "name": "setPoolExitAndTopupChangeTimelockSeconds",
      "outputs": [],
      "stateMutability": "nonpayable",
      "type": "function"
    },
    {
      "inputs": [
        {
          "internalType": "address",
          "name": "_value",
          "type": "address"
        }
      ],
      "name": "setPriceReader",
      "outputs": [],
      "stateMutability": "nonpayable",
      "type": "function"
    },
    {
      "inputs": [
        {
          "internalType": "uint256",
          "name": "_vaultFactor",
          "type": "uint256"
        },
        {
          "internalType": "uint256",
          "name": "_poolFactor",
          "type": "uint256"
        }
      ],
      "name": "setRedemptionDefaultFactorBips",
      "outputs": [],
      "stateMutability": "nonpayable",
      "type": "function"
    },
    {
      "inputs": [
        {
          "internalType": "uint256",
          "name": "_value",
          "type": "uint256"
        }
      ],
      "name": "setRedemptionFeeBips",
      "outputs": [],
      "stateMutability": "nonpayable",
      "type": "function"
    },
    {
      "inputs": [
        {
          "internalType": "uint256",
          "name": "_value",
          "type": "uint256"
        }
      ],
      "name": "setRejectRedemptionRequestWindowSeconds",
      "outputs": [],
      "stateMutability": "nonpayable",
      "type": "function"
    },
    {
      "inputs": [
        {
          "internalType": "uint256",
          "name": "_vaultF",
          "type": "uint256"
        },
        {
          "internalType": "uint256",
          "name": "_poolF",
          "type": "uint256"
        }
      ],
      "name": "setRejectedRedemptionDefaultFactorBips",
      "outputs": [],
      "stateMutability": "nonpayable",
      "type": "function"
    },
    {
      "inputs": [
        {
          "internalType": "uint256",
          "name": "_value",
          "type": "uint256"
        }
      ],
      "name": "setTakeOverRedemptionRequestWindowSeconds",
      "outputs": [],
      "stateMutability": "nonpayable",
      "type": "function"
    },
    {
      "inputs": [
        {
          "internalType": "uint256",
          "name": "_underlyingBlocks",
          "type": "uint256"
        },
        {
          "internalType": "uint256",
          "name": "_underlyingSeconds",
          "type": "uint256"
        }
      ],
      "name": "setTimeForPayment",
      "outputs": [],
      "stateMutability": "nonpayable",
      "type": "function"
    },
    {
      "inputs": [
        {
          "internalType": "uint256",
          "name": "_value",
          "type": "uint256"
        }
      ],
      "name": "setTokenInvalidationTimeMinSeconds",
      "outputs": [],
      "stateMutability": "nonpayable",
      "type": "function"
    },
    {
      "inputs": [
        {
          "internalType": "uint256",
          "name": "_value",
          "type": "uint256"
        }
      ],
      "name": "setVaultCollateralBuyForFlareFactorBIPS",
      "outputs": [],
      "stateMutability": "nonpayable",
      "type": "function"
    },
    {
      "inputs": [
        {
          "internalType": "address",
          "name": "_value",
          "type": "address"
        }
      ],
      "name": "setWhitelist",
      "outputs": [],
      "stateMutability": "nonpayable",
      "type": "function"
    },
    {
      "inputs": [
        {
          "internalType": "uint256",
          "name": "_value",
          "type": "uint256"
        }
      ],
      "name": "setWithdrawalOrDestroyWaitMinSeconds",
      "outputs": [],
      "stateMutability": "nonpayable",
      "type": "function"
    },
    {
      "inputs": [
        {
          "internalType": "address",
          "name": "_controller",
          "type": "address"
        },
        {
          "internalType": "contract IWNat",
          "name": "_wNat",
          "type": "address"
        }
      ],
      "name": "updateSystemContracts",
      "outputs": [],
      "stateMutability": "nonpayable",
      "type": "function"
    },
    {
      "inputs": [
        {
          "internalType": "address",
          "name": "_value",
          "type": "address"
        },
        {
          "internalType": "bytes",
          "name": "callData",
          "type": "bytes"
        }
      ],
      "name": "upgradeFAssetImplementation",
      "outputs": [],
      "stateMutability": "nonpayable",
      "type": "function"
    }
  ],
  "bytecode": "0x608060405234801561001057600080fd5b5061550d806100206000396000f3fe608060405234801561001057600080fd5b506004361061028a5760003560e01c8063812e7d2e1161015c578063d0743395116100ce578063e443147f11610087578063e443147f14610589578063e68f3fbf1461059c578063ec516d24146105af578063f35653f1146105c2578063f6a494af146105d5578063f9b9b446146105e857600080fd5b8063d074339514610517578063d57d25c51461052a578063db8617d61461053d578063dd64bd0414610550578063df06ea9614610563578063dfc594171461057657600080fd5b8063ad74c72d11610120578063ad74c72d146104a5578063af5f2b98146104b8578063b2e6a2b5146104cb578063be069719146104de578063cda4c541146104f1578063cfcb991d1461050457600080fd5b8063812e7d2e14610446578063854cff2f146104595780638d94510a1461046c5780639db27f551461047f578063a36bf7ce1461049257600080fd5b80635ac5c11e116102005780636b38c643116101b95780636b38c643146103d45780636dd3d589146103e75780636df310d6146103fa5780637800a11f1461040d5780637b6fa762146104205780637f4fcaa91461043357600080fd5b80635ac5c11e146103625780636075765d1461037557806368f224ba1461038857806369b89e7e1461039b5780636a598609146103ae5780636ad6fb4f146103c157600080fd5b80632ae535ab116102525780632ae535ab146102f05780632c06abf01461030357806335b35f4b146103165780633703cfe01461032957806347814c061461033c578063568ae58e1461034f57600080fd5b8063050f44391461028f5780630a9ad520146102a457806313d6a5e2146102b75780631529264f146102ca5780632779aaaa146102dd575b600080fd5b6102a261029d366004614bb0565b6105fb565b005b6102a26102b2366004614bb0565b6106ab565b6102a26102c5366004614bde565b6107a4565b6102a26102d8366004614bfb565b610859565b6102a26102eb366004614bb0565b610b0a565b6102a26102fe366004614bb0565b610bf8565b6102a2610311366004614bb0565b610d67565b6102a2610324366004614bfb565b610e5e565b6102a2610337366004614bb0565b61111e565b6102a261034a366004614bb0565b611291565b6102a261035d366004614bb0565b6113c0565b6102a2610370366004614bb0565b611514565b6102a2610383366004614c1d565b611696565b6102a2610396366004614bfb565b6117c7565b6102a26103a9366004614bfb565b611a03565b6102a26103bc366004614c9c565b611b7e565b6102a26103cf366004614bb0565b611c67565b6102a26103e2366004614bb0565b611d29565b6102a26103f5366004614bde565b611df9565b6102a2610408366004614bb0565b611ea9565b6102a261041b366004614bb0565b61200b565b6102a261042e366004614bb0565b612180565b6102a2610441366004614bde565b612275565b6102a2610454366004614bb0565b61234c565b6102a2610467366004614bde565b61241e565b6102a261047a366004614bb0565b61249d565b6102a261048d366004614bb0565b6125f0565b6102a26104a0366004614bb0565b612766565b6102a26104b3366004614bb0565b6128be565b6102a26104c6366004614bb0565b612997565b6102a26104d9366004614bb0565b612ba5565b6102a26104ec366004614bde565b612c6f565b6102a26104ff366004614bde565b612d15565b6102a2610512366004614bb0565b612dc2565b6102a2610525366004614bb0565b612ee4565b6102a2610538366004614bb0565b613023565b6102a261054b366004614bb0565b6130eb565b6102a261055e366004614bb0565b6131ec565b6102a2610571366004614bde565b6132fd565b6102a2610584366004614bb0565b6133b5565b6102a2610597366004614bde565b6134ad565b6102a26105aa366004614bb0565b613557565b6102a26105bd366004614dc2565b61366a565b6102a26105d0366004614bb0565b6137a3565b6102a26105e3366004614bde565b613921565b6102a26105f6366004614bb0565b6139ea565b610603613b1b565b61060b613b84565b6000610615613c66565b905061062082613c8a565b6012820180546001600160401b0392909216600160401b0267ffffffffffffffff60401b1990921691909117905560408051818152601f918101919091527f746f6b656e496e76616c69646174696f6e54696d654d696e5365636f6e6473006060820152602081018390526000805160206154b8833981519152906080015b60405180910390a15050565b6106b3613b1b565b6106bb613b84565b60006106c5613c66565b60138101549091506106e890600160801b90046001600160401b03166004614e3b565b6106f59062015180614e66565b6001600160401b031682111561070a57600080fd5b61071382613c8a565b6013820180546001600160401b0392909216600160801b0267ffffffffffffffff60801b19909216919091179055604080518181526025918101919091527f706f6f6c45786974416e64546f7075704368616e676554696d656c6f636b5365606082015264636f6e647360d81b6080820152602081018390526000805160206154b88339815191529060a00161069f565b6107ac613b1b565b6107b4613b84565b60006107be613c66565b90506001600160a01b0382166107ef5760405162461bcd60e51b81526004016107e690614e8d565b60405180910390fd5b6002810180546001600160a01b0319166001600160a01b03841690811790915560408051818152601191810191909152706167656e745661756c74466163746f727960781b606082015260208101919091526000805160206154988339815191529060800161069f565b610861613b1b565b610869613b84565b6000610873613c66565b90506127106108828385614eb3565b116108c45760405162461bcd60e51b8152602060048201526012602482015271626970732076616c756520746f6f206c6f7760701b60448201526064016107e6565b600e8101546108e79063ffffffff600160501b909104811690612ee090613cf616565b6108f3906103e8614eb3565b8311156109125760405162461bcd60e51b81526004016107e690614ec6565b600e8101546109359063ffffffff600160501b90910481169061208d90613cf616565b8310156109545760405162461bcd60e51b81526004016107e690614ef4565b600e8101546109779063ffffffff600160701b909104811690612ee090613cf616565b610983906103e8614eb3565b8211156109a25760405162461bcd60e51b81526004016107e690614ec6565b600e8101546109c59063ffffffff600160701b90910481169061208d90613cf616565b8210156109e45760405162461bcd60e51b81526004016107e690614ef4565b6109ed83613d0e565b600e8201805463ffffffff60501b1916600160501b63ffffffff939093169290920291909117905560408051818152602a818301527f726564656d7074696f6e44656661756c74466163746f725661756c74436f6c6c60608201526961746572616c4249505360b01b60808201526020810185905290516000805160206154b88339815191529181900360a00190a1610a8582613d0e565b600e8201805463ffffffff92909216600160701b0263ffffffff60701b1990921691909117905560408051818152601f918101919091527f726564656d7074696f6e44656661756c74466163746f72506f6f6c42495053006060820152602081018390526000805160206154b8833981519152906080015b60405180910390a1505050565b610b12613b1b565b610b1a613b84565b6000610b24613c66565b905062015180821015610b6c5760405162461bcd60e51b815260206004820152601060248201526f1dda5b991bddc81d1bdbc81cdb585b1b60821b60448201526064016107e6565b610b7582613c8a565b6011820180546001600160401b0392909216600160401b0267ffffffffffffffff60401b19909216919091179055604080518181526018918101919091527f6174746573746174696f6e57696e646f775365636f6e647300000000000000006060820152602081018390526000805160206154b88339815191529060800161069f565b610c00613b1b565b610c08613b84565b6000610c12613c66565b905060008211610c345760405162461bcd60e51b81526004016107e690614f22565b6017810154610c5490600160c01b90046001600160401b03166004614e3b565b610c5f90603c614e66565b6001600160401b0316821115610c875760405162461bcd60e51b81526004016107e690614f4a565b6017810154610ca890600490600160c01b90046001600160401b0316614f8a565b6001600160401b0316821015610cd05760405162461bcd60e51b81526004016107e690614fb0565b610cd982613c8a565b6017820180546001600160401b0392909216600160c01b026001600160c01b03909216919091179055604080518181526027918101919091527f63616e63656c436f6c6c61746572616c5265736572766174696f6e41667465726060820152665365636f6e647360c81b6080820152602081018390526000805160206154b88339815191529060a00161069f565b610d6f613b1b565b610d77613b84565b6000610d81613c66565b6013810154909150610da490600160401b90046001600160401b03166004614e3b565b610db19062015180614e66565b6001600160401b0316821115610dc657600080fd5b610dcf82613c8a565b6013820180546001600160401b0392909216600160401b0267ffffffffffffffff60401b19909216919091179055604080518181526023918101919091527f6167656e744d696e74696e6743524368616e676554696d656c6f636b5365636f6060820152626e647360e81b6080820152602081018390526000805160206154b88339815191529060a00161069f565b610e66613b1b565b610e6e613b84565b6000610e78613c66565b9050612710610e878385614eb3565b11610ec95760405162461bcd60e51b8152602060048201526012602482015271626970732076616c756520746f6f206c6f7760701b60448201526064016107e6565b6018810154610eec9063ffffffff600160801b909104811690612ee090613cf616565b610ef8906103e8614eb3565b831115610f175760405162461bcd60e51b81526004016107e690614ec6565b6018810154610f3a9063ffffffff600160801b90910481169061208d90613cf616565b831015610f595760405162461bcd60e51b81526004016107e690614ef4565b6018810154610f7c9063ffffffff600160a01b909104811690612ee090613cf616565b610f88906103e8614eb3565b821115610fa75760405162461bcd60e51b81526004016107e690614ec6565b6018810154610fca9063ffffffff600160a01b90910481169061208d90613cf616565b821015610fe95760405162461bcd60e51b81526004016107e690614ef4565b610ff283613d0e565b60188201805463ffffffff60801b1916600160801b63ffffffff9390931692909202919091179055604080518181526032818301527f72656a6563746564526564656d7074696f6e44656661756c74466163746f725660608201527161756c74436f6c6c61746572616c4249505360701b60808201526020810185905290516000805160206154b88339815191529181900360a00190a161109282613d0e565b60188201805463ffffffff92909216600160a01b0263ffffffff60a01b19909216919091179055604080518181526027918101919091527f72656a6563746564526564656d7074696f6e44656661756c74466163746f72506060820152666f6f6c4249505360c81b6080820152602081018390526000805160206154b88339815191529060a001610afd565b611126613b1b565b61112e613b84565b6000611138613c66565b90506000821161115a5760405162461bcd60e51b81526004016107e690614f22565b601881015461117a90600160401b90046001600160401b03166004614e3b565b61118590603c614e66565b6001600160401b03168211156111ad5760405162461bcd60e51b81526004016107e690614f4a565b60188101546111ce90600490600160401b90046001600160401b0316614f8a565b6001600160401b03168210156111f65760405162461bcd60e51b81526004016107e690614fb0565b6111ff82613c8a565b6018820180546001600160401b0392909216600160401b0267ffffffffffffffff60401b19909216919091179055604080518181526026918101919091527f74616b654f766572526564656d7074696f6e5265717565737457696e646f775360608201526565636f6e647360d01b6080820152602081018390526000805160206154b88339815191529060a00161069f565b611299613b1b565b6112a1613b84565b60006112ab613c66565b9050600082116112cd5760405162461bcd60e51b81526004016107e690614f22565b600f8101546112e890600160801b900461ffff166002614fda565b61ffff1682111561130b5760405162461bcd60e51b81526004016107e690614f4a565b600f81015461132790600490600160801b900461ffff16614ff8565b61ffff1682101561134a5760405162461bcd60e51b81526004016107e690614fb0565b61135382613d73565b600f8201805461ffff92909216600160801b0261ffff60801b1990921691909117905560408051818152601291810191909152716d617852656465656d65645469636b65747360701b6060820152602081018390526000805160206154b88339815191529060800161069f565b6113c8613b1b565b6113d0613b84565b60006113da613c66565b9050600082116113fc5760405162461bcd60e51b81526004016107e690614f22565b601081015461141c90600160c01b90046001600160401b03166002614e3b565b6001600160401b03168211156114445760405162461bcd60e51b81526004016107e690614ec6565b601081015461146590600290600160c01b90046001600160401b0316614f8a565b6001600160401b031682101561148d5760405162461bcd60e51b81526004016107e690614ef4565b61149682613c8a565b6010820180546001600160401b0392909216600160c01b026001600160c01b03909216919091179055604080518181526019918101919091527f6d61785472757374656450726963654167655365636f6e6473000000000000006060820152602081018390526000805160206154b88339815191529060800161069f565b61151c613b1b565b611524613b84565b600061152e613c66565b9050600082116115505760405162461bcd60e51b81526004016107e690614f22565b6127108211156115985760405162461bcd60e51b81526020600482015260136024820152720c4d2e0e640ecc2d8eaca40e8dede40d0d2ced606b1b60448201526064016107e6565b600c8101546115b390600160401b900461ffff166004614fda565b61ffff168211156115d65760405162461bcd60e51b81526004016107e690614ec6565b600c8101546115f290600490600160401b900461ffff16614ff8565b61ffff168210156116155760405162461bcd60e51b81526004016107e690614ef4565b61161e82613d73565b600c8201805461ffff92909216600160401b0261ffff60401b1990921691909117905560408051818152601c918101919091527f636f6c6c61746572616c5265736572766174696f6e46656542495053000000006060820152602081018390526000805160206154b88339815191529060800161069f565b61169e613b1b565b60006116a8613c66565b80549091506001600160a01b038481169116146117295780546001600160a01b0384166001600160a01b031990911681178255604080518181526016818301527530b9b9b2ba26b0b730b3b2b921b7b73a3937b63632b960511b60608201526020810192909252516000805160206154988339815191529181900360800190a15b6000611733613dd6565b9050826001600160a01b0316816001600160a01b0316146117c157600061175b600183613e43565b600060608201526001600160a01b0385166020820152905061177c81613e6a565b60408051818152600481830152631dd3985d60e21b60608201526001600160a01b038616602082015290516000805160206154988339815191529181900360800190a1505b50505050565b6117cf613b1b565b6117d7613b84565b60006117e1613c66565b60108101549091506117fd906001600160801b0316600461500d565b6118109068056bc75e2d63100000615030565b6001600160801b03168311156118385760405162461bcd60e51b81526004016107e690614f4a565b6010810154611852906004906001600160801b0316615050565b6001600160801b031683101561187a5760405162461bcd60e51b81526004016107e690614fb0565b600f81015461189590600160901b900461ffff166004614fda565b6118a090606461506a565b61ffff168211156118c35760405162461bcd60e51b81526004016107e690614f4a565b600f8101546118df90600490600160901b900461ffff16614ff8565b61ffff168210156119025760405162461bcd60e51b81526004016107e690614fb0565b61190b83613e84565b6010820180546001600160801b0319166001600160801b039290921691909117905561193682613d73565b600f8201805461ffff60901b1916600160901b61ffff939093169290920291909117905560408051818152601a818301527f7061796d656e744368616c6c656e67655265776172645553443500000000000060608201526020810185905290516000805160206154b88339815191529181900360800190a160408051818152601a918101919091527f7061796d656e744368616c6c656e6765526577617264424950530000000000006060820152602081018390526000805160206154b883398151915290608001610afd565b611a0b613b1b565b611a13613b84565b6000611a1d613c66565b905060008211611a3f5760405162461bcd60e51b81526004016107e690614f22565b60008311611a5f5760405162461bcd60e51b81526004016107e690614f22565b600c810154611a77908490849063ffffffff16613eed565b611a8083613c8a565b81600d0160136101000a8154816001600160401b0302191690836001600160401b03160217905550611ab182613c8a565b600e8201805467ffffffffffffffff19166001600160401b039290921691909117905560408051818152601a818301527f756e6465726c79696e67426c6f636b73466f725061796d656e7400000000000060608201526020810185905290516000805160206154b8833981519152916080908290030190a160408051818152601b918101919091527f756e6465726c79696e675365636f6e6473466f725061796d656e7400000000006060820152602081018390526000805160206154b883398151915290608001610afd565b611b86613b1b565b611b8e613b84565b6000611b98613f90565b90506001600160a01b038316611bc05760405162461bcd60e51b81526004016107e690614e8d565b60405163278f794360e11b81526001600160a01b03821690634f1ef28690611bee90869086906004016150cb565b600060405180830381600087803b158015611c0857600080fd5b505af1158015611c1c573d6000803e3d6000fd5b5050604080518181526006918101919091526519905cdcd95d60d21b60608201526001600160a01b038616602082015260008051602061549883398151915292506080019050610afd565b611c6f613b1b565b611c77613b84565b6000611c81613c66565b9050603c821015611ca45760405162461bcd60e51b81526004016107e6906150ef565b611cad82613d0e565b60148201805463ffffffff191663ffffffff92909216919091179055604080518181526022918101919091527f636f6c6c61746572616c506f6f6c546f6b656e54696d656c6f636b5365636f6e606082015261647360f01b6080820152602081018390526000805160206154b88339815191529060a00161069f565b611d31613b1b565b611d39613b84565b6000611d43613c66565b9050612710821015611d675760405162461bcd60e51b81526004016107e6906150ef565b611d7082613d0e565b60128201805463ffffffff92909216600160801b0263ffffffff60801b19909216919091179055604080518181526024918101919091527f7661756c74436f6c6c61746572616c427579466f72466c617265466163746f726060820152634249505360e01b6080820152602081018390526000805160206154b88339815191529060a00161069f565b611e01613b1b565b611e09613b84565b6000611e13613c66565b90506001600160a01b038216611e3b5760405162461bcd60e51b81526004016107e690614e8d565b6003810180546001600160a01b0319166001600160a01b0384169081179091556040805181815260159181019190915274636f6c6c61746572616c506f6f6c466163746f727960581b606082015260208101919091526000805160206154988339815191529060800161069f565b611eb1613b1b565b611eb9613b84565b6000611ec3613c66565b905060008211611ee55760405162461bcd60e51b81526004016107e690614f22565b6017810154611f0590600160401b90046001600160401b03166004614e3b565b611f1090603c614e66565b6001600160401b0316821115611f385760405162461bcd60e51b81526004016107e690614f4a565b6017810154611f5990600490600160401b90046001600160401b0316614f8a565b6001600160401b0316821015611f815760405162461bcd60e51b81526004016107e690614fb0565b611f8a82613c8a565b6017820180546001600160401b0392909216600160401b0267ffffffffffffffff60401b199092169190911790556040805181815260209181018290527f6d6178456d657267656e637950617573654475726174696f6e5365636f6e647360608201529081018390526000805160206154b88339815191529060800161069f565b612013613b1b565b61201b613b84565b6000612025613c66565b9050600082116120475760405162461bcd60e51b81526004016107e690614f22565b601781015461206790600160801b90046001600160401b03166004614e3b565b61207390610e10614e66565b6001600160401b031682111561209b5760405162461bcd60e51b81526004016107e690614f4a565b60178101546120bc90600490600160801b90046001600160401b0316614f8a565b6001600160401b03168210156120e45760405162461bcd60e51b81526004016107e690614fb0565b6120ed82613c8a565b6017820180546001600160401b0392909216600160801b0267ffffffffffffffff60801b19909216919091179055604080518181526027918101919091527f656d657267656e637950617573654475726174696f6e526573657441667465726060820152665365636f6e647360c81b6080820152602081018390526000805160206154b88339815191529060a00161069f565b612188613b1b565b612190613b84565b600061219a613c66565b60128101549091506121bd90600160a01b90046001600160401b03166004614e3b565b6121ca9062093a80614e66565b6001600160401b03168211156121df57600080fd5b6121e882613c8a565b6012820180546001600160401b0392909216600160a01b0267ffffffffffffffff60a01b19909216919091179055604080518181526021918101919091527f6167656e7445786974417661696c61626c6554696d656c6f636b5365636f6e646060820152607360f81b6080820152602081018390526000805160206154b88339815191529060a00161069f565b61227d613b1b565b612285613b84565b600061228f613f90565b604051637f4fcaa960e01b81526001600160a01b03848116600483015291925090821690637f4fcaa990602401600060405180830381600087803b1580156122d657600080fd5b505af11580156122ea573d6000803e3d6000fd5b5050604080518181526019918101919091527f636c65616e7570426c6f636b4e756d6265724d616e616765720000000000000060608201526001600160a01b03851660208201526000805160206154988339815191529250608001905061069f565b612354613b1b565b61235c613b84565b6000612366613c66565b9050603c8210156123895760405162461bcd60e51b81526004016107e6906150ef565b61239282613c8a565b6013820180546001600160401b0392909216600160c01b026001600160c01b03909216919091179055604080518181526025918101919091527f6167656e7454696d656c6f636b65644f7065726174696f6e57696e646f775365606082015264636f6e647360d81b6080820152602081018390526000805160206154b88339815191529060a00161069f565b612426613b1b565b61242e613b84565b6000612438613c66565b6006810180546001600160a01b0319166001600160a01b03851690811790915560408051818152600991810191909152681dda1a5d195b1a5cdd60ba1b606082015260208101919091529091506000805160206154988339815191529060800161069f565b6124a5613b1b565b6124ad613b84565b60006124b7613c66565b9050600082116124d95760405162461bcd60e51b81526004016107e690614f22565b60148101546124f990600160201b90046001600160401b03166002614e3b565b6001600160401b03168211156125215760405162461bcd60e51b81526004016107e690614f4a565b601481015461254290600290600160201b90046001600160401b0316614f8a565b6001600160401b031682101561256a5760405162461bcd60e51b81526004016107e690614fb0565b61257382613c8a565b6014820180546001600160401b0392909216600160201b026bffffffffffffffff000000001990921691909117905560408051818152601691810191909152756c69717569646174696f6e537465705365636f6e647360501b6060820152602081018390526000805160206154b88339815191529060800161069f565b6125f8613b1b565b612600613b84565b600061260a613c66565b90506000821161262c5760405162461bcd60e51b81526004016107e690614f22565b6127108211156126745760405162461bcd60e51b81526020600482015260136024820152720c4d2e0e640ecc2d8eaca40e8dede40d0d2ced606b1b60448201526064016107e6565b600e81015461268f90600160401b900461ffff166004614fda565b61ffff168211156126b25760405162461bcd60e51b81526004016107e690614ec6565b600e8101546126ce90600490600160401b900461ffff16614ff8565b61ffff168210156126f15760405162461bcd60e51b81526004016107e690614ef4565b6126fa82613d73565b600e8201805461ffff92909216600160401b0261ffff60401b199092169190911790556040805181815260119181019190915270726564656d7074696f6e4665654249505360781b6060820152602081018390526000805160206154b88339815191529060800161069f565b61276e613b1b565b612776613b84565b6000612780613c66565b9050600082116127a25760405162461bcd60e51b81526004016107e690614f22565b60188101546127bb906001600160401b03166004614e3b565b6127c690603c614e66565b6001600160401b03168211156127ee5760405162461bcd60e51b81526004016107e690614f4a565b6018810154612808906004906001600160401b0316614f8a565b6001600160401b03168210156128305760405162461bcd60e51b81526004016107e690614fb0565b61283982613c8a565b60188201805467ffffffffffffffff19166001600160401b0392909216919091179055604080518181526024918101919091527f72656a656374526564656d7074696f6e5265717565737457696e646f775365636060820152636f6e647360e01b6080820152602081018390526000805160206154b88339815191529060a00161069f565b6128c6613b1b565b6128ce613b84565b60006128d8613c66565b60138101549091506128f4906001600160401b03166004614e3b565b6129019062015180614e66565b6001600160401b031682111561291657600080fd5b61291f82613c8a565b60138201805467ffffffffffffffff19166001600160401b039290921691909117905560408051818152601d918101919091527f6167656e744665654368616e676554696d656c6f636b5365636f6e64730000006060820152602081018390526000805160206154b88339815191529060800161069f565b61299f613b1b565b6129a7613b84565b60006129b1613c66565b9050600082116129d35760405162461bcd60e51b81526004016107e690614f22565b600d8101546129ec906001600160401b03166004614e3b565b6001600160401b0316821115612a445760405162461bcd60e51b815260206004820152601960248201527f6c6f742073697a6520696e63726561736520746f6f206269670000000000000060448201526064016107e6565b600d810154612a5e906004906001600160401b0316614f8a565b6001600160401b0316821015612ab65760405162461bcd60e51b815260206004820152601960248201527f6c6f742073697a6520646563726561736520746f6f206269670000000000000060448201526064016107e6565b600d810154600160581b90046001600160401b03161580612aeb5750600d810154600160581b90046001600160401b03168211155b612b375760405162461bcd60e51b815260206004820181905260248201527f6c6f742073697a6520626967676572207468616e206d696e74696e672063617060448201526064016107e6565b612b4082613c8a565b600d8201805467ffffffffffffffff19166001600160401b039290921691909117905560408051818152600a91810191909152696c6f7453697a65414d4760b01b6060820152602081018390526000805160206154b88339815191529060800161069f565b612bad613b1b565b612bb5613b84565b6000612bbf613c66565b9050811580612bdb5750600d8101546001600160401b03168210155b612bf75760405162461bcd60e51b81526004016107e6906150ef565b612c0082613c8a565b81600d01600b6101000a8154816001600160401b0302191690836001600160401b031602179055506000805160206154b88339815191528260405161069f91906040808252600d908201526c6d696e74696e67436170414d4760981b6060820152602081019190915260800190565b612c77613b1b565b612c7f613b84565b6000612c89613c66565b90506001600160a01b038216612cb15760405162461bcd60e51b81526004016107e690614e8d565b600a810180546001600160a01b0319166001600160a01b03841690811790915560408051818152600b918101919091526a383934b1b2a932b0b232b960a91b606082015260208101919091526000805160206154988339815191529060800161069f565b612d1d613b1b565b612d25613b84565b6000612d2f613c66565b90506001600160a01b038216612d575760405162461bcd60e51b81526004016107e690614e8d565b6007810180546001600160a01b0319166001600160a01b03841690811790915560408051818152601291810191909152716167656e744f776e6572526567697374727960701b606082015260208101919091526000805160206154988339815191529060800161069f565b612dca613b1b565b612dd2613b84565b6000612ddc613c66565b905060008211612dfe5760405162461bcd60e51b81526004016107e690614f22565b600c810154612e149063ffffffff166002615118565b63ffffffff16821115612e395760405162461bcd60e51b81526004016107e690614f4a565b600c810154612e509060029063ffffffff16615138565b63ffffffff16821015612e755760405162461bcd60e51b81526004016107e690614fb0565b612e7e82613d0e565b600c8201805463ffffffff191663ffffffff92909216919091179055604080518181526012918101919091527161766572616765426c6f636b54696d654d5360701b6060820152602081018390526000805160206154b88339815191529060800161069f565b612eec613b1b565b612ef4613b84565b6000612efe613c66565b905060008211612f205760405162461bcd60e51b81526004016107e690614f22565b600f810154612f39906001600160801b0316600461500d565b6001600160801b0316821115612f615760405162461bcd60e51b81526004016107e690614ec6565b600f810154612f7b906004906001600160801b0316615050565b6001600160801b0316821015612fa35760405162461bcd60e51b81526004016107e690614ef4565b612fac82613e84565b600f820180546001600160801b0319166001600160801b039290921691909117905560408051818152601e918101919091527f636f6e6669726d6174696f6e42794f74686572735265776172645553443500006060820152602081018390526000805160206154b88339815191529060800161069f565b61302b613b1b565b613033613b84565b600061303d613c66565b90506000821161305f5760405162461bcd60e51b81526004016107e690614f22565b61306882613c8a565b6011820180546001600160401b0392909216600160801b0267ffffffffffffffff60801b1990921691909117905560408051818152601a918101919091527f6d696e55706461746552657065617454696d655365636f6e64730000000000006060820152602081018390526000805160206154b88339815191529060800161069f565b6130f3613b1b565b6130fb613b84565b6000613105613c66565b9050610e108211156131595760405162461bcd60e51b815260206004820152601960248201527f636f6e6669726d6174696f6e2074696d6520746f6f206269670000000000000060448201526064016107e6565b61316282613c8a565b60128201805467ffffffffffffffff19166001600160401b0392909216919091179055604080518181526029918101919091527f616e6e6f756e636564556e6465726c79696e67436f6e6669726d6174696f6e4d606082015268696e5365636f6e647360b81b6080820152602081018390526000805160206154b88339815191529060a00161069f565b6131f4613b1b565b6131fc613b84565b6000613206613c66565b9050600082116132285760405162461bcd60e51b81526004016107e690614f22565b601081015461324990600160801b90046001600160401b0316610258614e66565b6001600160401b03168211156132715760405162461bcd60e51b81526004016107e690614f4a565b61327a82613c8a565b6010820180546001600160401b0392909216600160801b0267ffffffffffffffff60801b19909216919091179055604080518181526018918101919091527f7769746864726177616c576169744d696e5365636f6e647300000000000000006060820152602081018390526000805160206154b88339815191529060800161069f565b613305613b1b565b61330d613b84565b6000613317613c66565b90506001600160a01b03821661333f5760405162461bcd60e51b81526004016107e690614e8d565b6004810180546001600160a01b0319166001600160a01b03841690811790915560408051818152601a918101919091527f636f6c6c61746572616c506f6f6c546f6b656e466163746f7279000000000000606082015260208101919091526000805160206154988339815191529060800161069f565b6133bd613b1b565b6133c5613b84565b60006133cf613c66565b9050611c208210156134235760405162461bcd60e51b815260206004820152601a60248201527f6d757374206265206174206c656173742074776f20686f75727300000000000060448201526064016107e6565b61342c82613c8a565b600e820180546001600160401b0392909216600160901b0267ffffffffffffffff60901b199092169190911790556040805181815260209181018290527f636f6e6669726d6174696f6e42794f746865727341667465725365636f6e647360608201529081018390526000805160206154b88339815191529060800161069f565b6134b5613b1b565b6134bd613b84565b60006134c7613c66565b90506001600160a01b0382166134ef5760405162461bcd60e51b81526004016107e690614e8d565b6008810180546001600160a01b0319166001600160a01b03841690811790915560408051818152600f918101919091526e333231ab32b934b334b1b0ba34b7b760891b606082015260208101919091526000805160206154988339815191529060800161069f565b61355f613b1b565b613567613b84565b6000613571613c66565b600c8101549091506127109061359590600160201b900463ffffffff166004615118565b63ffffffff166135a59190614eb3565b8211156135e45760405162461bcd60e51b815260206004820152600d60248201526c76616c756520746f6f2062696760981b60448201526064016107e6565b6135ed82613d0e565b600c8201805463ffffffff92909216600160201b0267ffffffff000000001990921691909117905560408051818152601f918101919091527f6d696e74696e67506f6f6c486f6c64696e6773526571756972656442495053006060820152602081018390526000805160206154b88339815191529060800161069f565b613672613b1b565b61367a613b84565b6000613684613c66565b90506136908383613fae565b61369e601582016000614b1e565b6136ac601682016000614b1e565b60005b835181101561373c57816015016136de8583815181106136d1576136d161514f565b6020026020010151613d0e565b81546001810183556000928352602090922063ffffffff90911691015582516016830190613718908590849081106136d1576136d161514f565b8154600181810184556000938452602090932063ffffffff909216910155016136af565b507ff8df5a8f8fc0ea5cc0d8aff70643ac14b7353b936a843e23cb08ff282ba747398360405161376c91906151a1565b60405180910390a17ff8df5a8f8fc0ea5cc0d8aff70643ac14b7353b936a843e23cb08ff282ba7473982604051610afd91906151e8565b6137ab613b1b565b6137b3613b84565b60006137bd613c66565b9050600082116137df5760405162461bcd60e51b81526004016107e690614f22565b6127108211156138235760405162461bcd60e51b815260206004820152600f60248201526e6d7573742062652062656c6f77203160881b60448201526064016107e6565b600d81015461383e90600160401b900461ffff166002614fda565b61ffff168211156138615760405162461bcd60e51b81526004016107e690614f4a565b600d81015461387d90600290600160401b900461ffff16614ff8565b61ffff168210156138a05760405162461bcd60e51b81526004016107e690614fb0565b6138a982613d73565b600d8201805461ffff92909216600160401b0261ffff60401b19909216919091179055604080518181526018918101919091527f6d696e556e6465726c79696e674261636b696e674249505300000000000000006060820152602081018390526000805160206154b88339815191529060800161069f565b613929613b1b565b613931613b84565b600061393b613f90565b60405163f6a494af60e01b81526001600160a01b0384811660048301529192509082169063f6a494af90602401600060405180830381600087803b15801561398257600080fd5b505af1158015613996573d6000803e3d6000fd5b505060408051818152600f918101919091526e18db19585b995c90dbdb9d1c9858dd608a1b60608201526001600160a01b03851660208201526000805160206154988339815191529250608001905061069f565b6139f2613b1b565b6139fa613b84565b6000613a04613c66565b905060008211613a265760405162461bcd60e51b81526004016107e690614f22565b6011810154613a3f906001600160401b03166002614e3b565b6001600160401b0316821115613a675760405162461bcd60e51b81526004016107e690614f4a565b6011810154613a81906002906001600160401b0316614f8a565b6001600160401b0316821015613aa95760405162461bcd60e51b81526004016107e690614fb0565b613ab282613c8a565b60118201805467ffffffffffffffff19166001600160401b039290921691909117905560408051818152600e918101919091526d63636254696d655365636f6e647360901b6060820152602081018390526000805160206154b88339815191529060800161069f565b6000613b25613c66565b80549091506001600160a01b03163314613b815760405162461bcd60e51b815260206004820152601d60248201527f6f6e6c79206173736574206d616e6167657220636f6e74726f6c6c657200000060448201526064016107e6565b50565b7fc6aafbe0f74bbe68eec7559401d7d311a092b5c4d8feb0452323e4ba73d8d8d16000613baf613c66565b600080356001600160e01b031916808252602085905260409091205491925090801580613bfa57506011830154613bf690600160801b90046001600160401b031682614eb3565b4210155b613c465760405162461bcd60e51b815260206004820152601c60248201527f746f6f20636c6f736520746f2070726576696f7573207570646174650000000060448201526064016107e6565b506001600160e01b03191660009081526020929092525060409020429055565b7f4f24f5c433db0962dac0d2c8b84197a6e6c7cc4e5d9ebe1916a1b6193da2f33a90565b60006001600160401b03821115613cf25760405162461bcd60e51b815260206004820152602660248201527f53616665436173743a2076616c756520646f65736e27742066697420696e203660448201526534206269747360d01b60648201526084016107e6565b5090565b6000613d0583836127106141d9565b90505b92915050565b600063ffffffff821115613cf25760405162461bcd60e51b815260206004820152602660248201527f53616665436173743a2076616c756520646f65736e27742066697420696e203360448201526532206269747360d01b60648201526084016107e6565b600061ffff821115613cf25760405162461bcd60e51b815260206004820152602660248201527f53616665436173743a2076616c756520646f65736e27742066697420696e203160448201526536206269747360d01b60648201526084016107e6565b7fec7e8c1c441439dd40959777f4c577ea0cd42fcc1dbe59d2bd0f5d9c55df8dc5546000805160206154788339815191528054600092829161ffff909116908110613e2357613e2361514f565b60009182526020909120600490910201546001600160a01b031692915050565b613e4b614b3c565b6000613e578484614301565b9050613e62816143c4565b949350505050565b6000613e758261459e565b9050613e8081614a08565b5050565b60006001600160801b03821115613cf25760405162461bcd60e51b815260206004820152602760248201527f53616665436173743a2076616c756520646f65736e27742066697420696e20316044820152663238206269747360c81b60648201526084016107e6565b62015180821115613f315760405162461bcd60e51b815260206004820152600e60248201526d0ecc2d8eaca40e8dede40d0d2ced60931b60448201526064016107e6565b620151806103e8613f42838661523c565b613f4c9190615253565b1115613f8b5760405162461bcd60e51b815260206004820152600e60248201526d0ecc2d8eaca40e8dede40d0d2ced60931b60448201526064016107e6565b505050565b600080613f9b613c66565b600101546001600160a01b031692915050565b8051825114613ff35760405162461bcd60e51b81526020600482015260116024820152701b195b99dd1a1cc81b9bdd08195c5d585b607a1b60448201526064016107e6565b6001825110156140455760405162461bcd60e51b815260206004820152601c60248201527f6174206c65617374206f6e6520666163746f722072657175697265640000000060448201526064016107e6565b60005b8251811015613f8b576127108382815181106140665761406661514f565b6020026020010151116140b05760405162461bcd60e51b8152602060048201526012602482015271666163746f72206e6f742061626f7665203160701b60448201526064016107e6565b8281815181106140c2576140c261514f565b60200260200101518282815181106140dc576140dc61514f565b602002602001015111156141445760405162461bcd60e51b815260206004820152602960248201527f7661756c7420636f6c6c61746572616c20666163746f722068696768657220746044820152681a185b881d1bdd185b60ba1b60648201526084016107e6565b80158061418c575082614158600183615267565b815181106141685761416861514f565b60200260200101518382815181106141825761418261514f565b6020026020010151115b6141d15760405162461bcd60e51b8152602060048201526016602482015275666163746f7273206e6f7420696e6372656173696e6760501b60448201526064016107e6565b600101614048565b600080821161421d5760405162461bcd60e51b815260206004820152601060248201526f4469766973696f6e206279207a65726f60801b60448201526064016107e6565b8360000361422d575060006142fa565b8383028385828161424057614240614f74565b040361425e5782818161425557614255614f74565b049150506142fa565b50600061426b8386615253565b90506000614279848761527a565b905060006142878587615253565b90506000614295868861527a565b9050856142a2828561523c565b6142ac9190615253565b6142b6838561523c565b6142c0838761523c565b886142cb868961523c565b6142d5919061523c565b6142df9190614eb3565b6142e99190614eb3565b6142f39190614eb3565b9450505050505b9392505050565b6000600080516020615478833981519152817fec7e8c1c441439dd40959777f4c577ea0cd42fcc1dbe59d2bd0f5d9c55df8db78161433f8787614a93565b8152602001908152602001600020549050600081116143905760405162461bcd60e51b815260206004820152600d60248201526c3ab735b737bbb7103a37b5b2b760991b60448201526064016107e6565b8161439c600183615267565b815481106143ac576143ac61514f565b90600052602060002090600402019250505092915050565b6143cc614b3c565b60408051610140810190915282548190600160a01b900460ff1660028111156143f7576143f761528e565b815283546001600160a01b038116602083015260ff600160a81b8204811660408401526001600160401b03600160b01b8304166060840152600160f01b909104161515608082015260018401805460a090920191614454906152a4565b80601f0160208091040260200160405190810160405280929190818152602001828054614480906152a4565b80156144cd5780601f106144a2576101008083540402835291602001916144cd565b820191906000526020600020905b8154815290600101906020018083116144b057829003601f168201915b505050505081526020018360020180546144e6906152a4565b80601f0160208091040260200160405190810160405280929190818152602001828054614512906152a4565b801561455f5780601f106145345761010080835404028352916020019161455f565b820191906000526020600020905b81548152906001019060200180831161454257829003601f168201915b505050918352505060039093015463ffffffff8082166020860152600160201b820481166040860152600160401b909104166060909301929092525090565b6020810151600090600080516020615478833981519152906001600160a01b03166145f85760405162461bcd60e51b815260206004820152600a602482015269746f6b656e207a65726f60b01b60448201526064016107e6565b600061460c84600001518560200151614a93565b6000818152600184016020526040902054909150156146645760405162461bcd60e51b8152602060048201526014602482015273746f6b656e20616c72656164792065786973747360601b60448201526064016107e6565b6060840151156146b65760405162461bcd60e51b815260206004820152601b60248201527f63616e6e6f7420616464206465707265636174656420746f6b656e000000000060448201526064016107e6565b60008461010001516127101080156146d757508460e0015185610100015111155b80156146ec57508461012001518560e0015111155b90508061473b5760405162461bcd60e51b815260206004820152601960248201527f696e76616c696420636f6c6c61746572616c20726174696f730000000000000060448201526064016107e6565b82546040805161014081019091526020808801516001600160a01b03168252875186929182019060028111156147735761477361528e565b81526020016147858960400151614abd565b60ff16815260200161479a8960600151613c8a565b6001600160401b031681526020018860800151151581526020018860a0015181526020018860c0015181526020016147d58960e00151613d0e565b63ffffffff1681526020016147ee896101000151613d0e565b63ffffffff168152602001614807896101200151613d0e565b63ffffffff16905281546001810183556000928352602092839020825160049092020180546001600160a01b031981166001600160a01b03909316928317825593830151929390929183916001600160a81b03191617600160a01b8360028111156148745761487461528e565b021790555060408201518154606084015160808501511515600160f01b0260ff60f01b196001600160401b03909216600160b01b0267ffffffffffffffff60b01b1960ff909516600160a81b029490941668ffffffffffffffffff60a81b1990931692909217929092179190911617815560a082015160018201906148f9908261532e565b5060c0820151600282019061490e908261532e565b5060e0820151600390910180546101008401516101209094015163ffffffff908116600160401b026bffffffff000000000000000019958216600160201b0267ffffffffffffffff1990931691909416171792909216179055614972816001614eb3565b600084815260018601602052604090205585517fbef4c272617e8773ee6209dd5f05e50ca5be37232b0c94cb8439d8a56bfdb7ce9060028111156149b8576149b861528e565b8760200151886040015189608001518a60a001518b60c001518c60e001518d61010001518e61012001516040516149f7999897969594939291906153ed565b60405180910390a195945050505050565b6000805160206154788339815191528054600090829084908110614a2e57614a2e61514f565b60009182526020909120600490910201905060018154600160a01b900460ff166002811115614a5f57614a5f61528e565b14614a6c57614a6c615461565b614a7583613d73565b600f92909201805461ffff191661ffff909316929092179091555050565b6000816001600160a01b031660a0846002811115614ab357614ab361528e565b901b179392505050565b600060ff821115613cf25760405162461bcd60e51b815260206004820152602560248201527f53616665436173743a2076616c756520646f65736e27742066697420696e2038604482015264206269747360d81b60648201526084016107e6565b5080546000825590600052602060002090810190613b819190614b9b565b604080516101408101909152806000815260200160006001600160a01b03168152602001600081526020016000815260200160001515815260200160608152602001606081526020016000815260200160008152602001600081525090565b5b80821115613cf25760008155600101614b9c565b600060208284031215614bc257600080fd5b5035919050565b6001600160a01b0381168114613b8157600080fd5b600060208284031215614bf057600080fd5b81356142fa81614bc9565b60008060408385031215614c0e57600080fd5b50508035926020909101359150565b60008060408385031215614c3057600080fd5b8235614c3b81614bc9565b91506020830135614c4b81614bc9565b809150509250929050565b634e487b7160e01b600052604160045260246000fd5b604051601f8201601f191681016001600160401b0381118282101715614c9457614c94614c56565b604052919050565b60008060408385031215614caf57600080fd5b8235614cba81614bc9565b91506020838101356001600160401b0380821115614cd757600080fd5b818601915086601f830112614ceb57600080fd5b813581811115614cfd57614cfd614c56565b614d0f601f8201601f19168501614c6c565b91508082528784828501011115614d2557600080fd5b80848401858401376000848284010152508093505050509250929050565b600082601f830112614d5457600080fd5b813560206001600160401b03821115614d6f57614d6f614c56565b8160051b614d7e828201614c6c565b9283528481018201928281019087851115614d9857600080fd5b83870192505b84831015614db757823582529183019190830190614d9e565b979650505050505050565b60008060408385031215614dd557600080fd5b82356001600160401b0380821115614dec57600080fd5b614df886838701614d43565b93506020850135915080821115614e0e57600080fd5b50614e1b85828601614d43565b9150509250929050565b634e487b7160e01b600052601160045260246000fd5b6001600160401b03818116838216028082169190828114614e5e57614e5e614e25565b505092915050565b6001600160401b03818116838216019080821115614e8657614e86614e25565b5092915050565b6020808252600c908201526b61646472657373207a65726f60a01b604082015260600190565b80820180821115613d0857613d08614e25565b60208082526014908201527366656520696e63726561736520746f6f2062696760601b604082015260600190565b60208082526014908201527366656520646563726561736520746f6f2062696760601b604082015260600190565b6020808252600e908201526d63616e6e6f74206265207a65726f60901b604082015260600190565b60208082526010908201526f696e63726561736520746f6f2062696760801b604082015260600190565b634e487b7160e01b600052601260045260246000fd5b60006001600160401b0380841680614fa457614fa4614f74565b92169190910492915050565b60208082526010908201526f646563726561736520746f6f2062696760801b604082015260600190565b61ffff818116838216028082169190828114614e5e57614e5e614e25565b600061ffff80841680614fa457614fa4614f74565b6001600160801b03818116838216028082169190828114614e5e57614e5e614e25565b6001600160801b03818116838216019080821115614e8657614e86614e25565b60006001600160801b0380841680614fa457614fa4614f74565b61ffff818116838216019080821115614e8657614e86614e25565b6000815180845260005b818110156150ab5760208185018101518683018201520161508f565b506000602082860101526020601f19601f83011685010191505092915050565b6001600160a01b0383168152604060208201819052600090613e6290830184615085565b6020808252600f908201526e1d985b1d59481d1bdbc81cdb585b1b608a1b604082015260600190565b63ffffffff818116838216028082169190828114614e5e57614e5e614e25565b600063ffffffff80841680614fa457614fa4614f74565b634e487b7160e01b600052603260045260246000fd5b60008151808452602080850194506020840160005b838110156151965781518752958201959082019060010161517a565b509495945050505050565b60408152601f60408201527f6c69717569646174696f6e436f6c6c61746572616c466163746f7242495053006060820152608060208201526000613d056080830184615165565b60408152602460408201527f6c69717569646174696f6e466163746f725661756c74436f6c6c61746572616c6060820152634249505360e01b608082015260a060208201526000613d0560a0830184615165565b8082028115828204841417613d0857613d08614e25565b60008261526257615262614f74565b500490565b81810381811115613d0857613d08614e25565b60008261528957615289614f74565b500690565b634e487b7160e01b600052602160045260246000fd5b600181811c908216806152b857607f821691505b6020821081036152d857634e487b7160e01b600052602260045260246000fd5b50919050565b601f821115613f8b576000816000526020600020601f850160051c810160208610156153075750805b601f850160051c820191505b8181101561532657828155600101615313565b505050505050565b81516001600160401b0381111561534757615347614c56565b61535b8161535584546152a4565b846152de565b602080601f83116001811461539057600084156153785750858301515b600019600386901b1c1916600185901b178555615326565b600085815260208120601f198616915b828110156153bf578886015182559484019460019091019084016153a0565b50858210156153dd5787850151600019600388901b60f8161c191681555b5050505050600190811b01905550565b60ff8a1681526001600160a01b03891660208201526040810188905286151560608201526101206080820181905260009061542a83820189615085565b905082810360a084015261543e8188615085565b60c0840196909652505060e0810192909252610100909101529695505050505050565b634e487b7160e01b600052600160045260246000fdfeec7e8c1c441439dd40959777f4c577ea0cd42fcc1dbe59d2bd0f5d9c55df8db6cb274d507e7a9978f5a8c15929fd58c472b8addc1a9bba454b0c0a49a05c9152ac1fb27759c1e6f9e4a24d4f8c320be6091becb03cea5a95398fa220fca4ac0ea26469706673582212207a085f1e65812958fcf1ecd0b988ff5f57440e2022cef2ad80423d648031c47664736f6c63430008170033",
  "linkReferences": {},
  "deployedLinkReferences": {}
}