{
  "_format": "hh-sol-artifact-1",
  "contractName": "SettingsManagementFacet",
  "sourceName": "contracts/assetManager/facets/SettingsManagementFacet.sol",
  "abi": [
    {
      "anonymous": false,
      "inputs": [
        {
          "indexed": true,
          "internalType": "address",
          "name": "agentVault",
          "type": "address"
        },
        {
          "indexed": false,
          "internalType": "uint256",
          "name": "feeBIPS",
          "type": "uint256"
        },
        {
          "indexed": false,
          "internalType": "uint256",
          "name": "mintingVaultCollateralRatioBIPS",
          "type": "uint256"
        },
        {
          "indexed": false,
          "internalType": "uint256",
          "name": "mintingPoolCollateralRatioBIPS",
          "type": "uint256"
        },
        {
          "indexed": false,
          "internalType": "uint256",
          "name": "freeCollateralLots",
          "type": "uint256"
        }
      ],
      "name": "AgentAvailable",
      "type": "event"
    },
    {
      "anonymous": false,
      "inputs": [
        {
          "indexed": true,
          "internalType": "address",
          "name": "agentVault",
          "type": "address"
        },
        {
          "indexed": false,
          "internalType": "uint8",
          "name": "collateralClass",
          "type": "uint8"
        },
        {
          "indexed": false,
          "internalType": "address",
          "name": "token",
          "type": "address"
        }
      ],
      "name": "AgentCollateralTypeChanged",
      "type": "event"
    },
    {
      "anonymous": false,
      "inputs": [
        {
          "indexed": true,
          "internalType": "address",
          "name": "agentVault",
          "type": "address"
        },
        {
          "indexed": false,
          "internalType": "uint256",
          "name": "destroyAllowedAt",
          "type": "uint256"
        }
      ],
      "name": "AgentDestroyAnnounced",
      "type": "event"
    },
    {
      "anonymous": false,
      "inputs": [
        {
          "indexed": true,
          "internalType": "address",
          "name": "agentVault",
          "type": "address"
        }
      ],
      "name": "AgentDestroyed",
      "type": "event"
    },
    {
      "anonymous": false,
      "inputs": [
        {
          "indexed": true,
          "internalType": "address",
          "name": "agentVault",
          "type": "address"
        },
        {
          "indexed": false,
          "internalType": "uint256",
          "name": "timestamp",
          "type": "uint256"
        }
      ],
      "name": "AgentInCCB",
      "type": "event"
    },
    {
      "anonymous": false,
      "inputs": [
        {
          "indexed": true,
          "internalType": "address",
          "name": "agentVault",
          "type": "address"
        },
        {
          "indexed": false,
          "internalType": "string",
          "name": "name",
          "type": "string"
        },
        {
          "indexed": false,
          "internalType": "uint256",
          "name": "value",
          "type": "uint256"
        },
        {
          "indexed": false,
          "internalType": "uint256",
          "name": "validAt",
          "type": "uint256"
        }
      ],
      "name": "AgentSettingChangeAnnounced",
      "type": "event"
    },
    {
      "anonymous": false,
      "inputs": [
        {
          "indexed": true,
          "internalType": "address",
          "name": "agentVault",
          "type": "address"
        },
        {
          "indexed": false,
          "internalType": "string",
          "name": "name",
          "type": "string"
        },
        {
          "indexed": false,
          "internalType": "uint256",
          "name": "value",
          "type": "uint256"
        }
      ],
      "name": "AgentSettingChanged",
      "type": "event"
    },
    {
      "anonymous": false,
      "inputs": [
        {
          "indexed": true,
          "internalType": "address",
          "name": "owner",
          "type": "address"
        },
        {
          "indexed": true,
          "internalType": "address",
          "name": "agentVault",
          "type": "address"
        },
        {
          "components": [
            {
              "internalType": "address",
              "name": "collateralPool",
              "type": "address"
            },
            {
              "internalType": "address",
              "name": "collateralPoolToken",
              "type": "address"
            },
            {
              "internalType": "string",
              "name": "underlyingAddress",
              "type": "string"
            },
            {
              "internalType": "address",
              "name": "vaultCollateralToken",
              "type": "address"
            },
            {
              "internalType": "address",
              "name": "poolWNatToken",
              "type": "address"
            },
            {
              "internalType": "uint256",
              "name": "feeBIPS",
              "type": "uint256"
            },
            {
              "internalType": "uint256",
              "name": "poolFeeShareBIPS",
              "type": "uint256"
            },
            {
              "internalType": "uint256",
              "name": "mintingVaultCollateralRatioBIPS",
              "type": "uint256"
            },
            {
              "internalType": "uint256",
              "name": "mintingPoolCollateralRatioBIPS",
              "type": "uint256"
            },
            {
              "internalType": "uint256",
              "name": "buyFAssetByAgentFactorBIPS",
              "type": "uint256"
            },
            {
              "internalType": "uint256",
              "name": "poolExitCollateralRatioBIPS",
              "type": "uint256"
            },
            {
              "internalType": "uint256",
              "name": "poolTopupCollateralRatioBIPS",
              "type": "uint256"
            },
            {
              "internalType": "uint256",
              "name": "poolTopupTokenPriceFactorBIPS",
              "type": "uint256"
            },
            {
              "internalType": "uint256",
              "name": "handshakeType",
              "type": "uint256"
            }
          ],
          "indexed": false,
          "internalType": "struct IAssetManagerEvents.AgentVaultCreationData",
          "name": "creationData",
          "type": "tuple"
        }
      ],
      "name": "AgentVaultCreated",
      "type": "event"
    },
    {
      "anonymous": false,
      "inputs": [
        {
          "indexed": true,
          "internalType": "address",
          "name": "agentVault",
          "type": "address"
        },
        {
          "indexed": false,
          "internalType": "uint256",
          "name": "exitAllowedAt",
          "type": "uint256"
        }
      ],
      "name": "AvailableAgentExitAnnounced",
      "type": "event"
    },
    {
      "anonymous": false,
      "inputs": [
        {
          "indexed": true,
          "internalType": "address",
          "name": "agentVault",
          "type": "address"
        }
      ],
      "name": "AvailableAgentExited",
      "type": "event"
    },
    {
      "anonymous": false,
      "inputs": [
        {
          "indexed": false,
          "internalType": "uint8",
          "name": "collateralClass",
          "type": "uint8"
        },
        {
          "indexed": false,
          "internalType": "address",
          "name": "collateralToken",
          "type": "address"
        },
        {
          "indexed": false,
          "internalType": "uint256",
          "name": "minCollateralRatioBIPS",
          "type": "uint256"
        },
        {
          "indexed": false,
          "internalType": "uint256",
          "name": "ccbMinCollateralRatioBIPS",
          "type": "uint256"
        },
        {
          "indexed": false,
          "internalType": "uint256",
          "name": "safetyMinCollateralRatioBIPS",
          "type": "uint256"
        }
      ],
      "name": "CollateralRatiosChanged",
      "type": "event"
    },
    {
      "anonymous": false,
      "inputs": [
        {
          "indexed": true,
          "internalType": "address",
          "name": "agentVault",
          "type": "address"
        },
        {
          "indexed": true,
          "internalType": "address",
          "name": "minter",
          "type": "address"
        },
        {
          "indexed": true,
          "internalType": "uint256",
          "name": "collateralReservationId",
          "type": "uint256"
        }
      ],
      "name": "CollateralReservationCancelled",
      "type": "event"
    },
    {
      "anonymous": false,
      "inputs": [
        {
          "indexed": true,
          "internalType": "address",
          "name": "agentVault",
          "type": "address"
        },
        {
          "indexed": true,
          "internalType": "address",
          "name": "minter",
          "type": "address"
        },
        {
          "indexed": true,
          "internalType": "uint256",
          "name": "collateralReservationId",
          "type": "uint256"
        },
        {
          "indexed": false,
          "internalType": "uint256",
          "name": "reservedAmountUBA",
          "type": "uint256"
        }
      ],
      "name": "CollateralReservationDeleted",
      "type": "event"
    },
    {
      "anonymous": false,
      "inputs": [
        {
          "indexed": true,
          "internalType": "address",
          "name": "agentVault",
          "type": "address"
        },
        {
          "indexed": true,
          "internalType": "address",
          "name": "minter",
          "type": "address"
        },
        {
          "indexed": true,
          "internalType": "uint256",
          "name": "collateralReservationId",
          "type": "uint256"
        }
      ],
      "name": "CollateralReservationRejected",
      "type": "event"
    },
    {
      "anonymous": false,
      "inputs": [
        {
          "indexed": true,
          "internalType": "address",
          "name": "agentVault",
          "type": "address"
        },
        {
          "indexed": true,
          "internalType": "address",
          "name": "minter",
          "type": "address"
        },
        {
          "indexed": true,
          "internalType": "uint256",
          "name": "collateralReservationId",
          "type": "uint256"
        },
        {
          "indexed": false,
          "internalType": "uint256",
          "name": "valueUBA",
          "type": "uint256"
        },
        {
          "indexed": false,
          "internalType": "uint256",
          "name": "feeUBA",
          "type": "uint256"
        },
        {
          "indexed": false,
          "internalType": "uint256",
          "name": "firstUnderlyingBlock",
          "type": "uint256"
        },
        {
          "indexed": false,
          "internalType": "uint256",
          "name": "lastUnderlyingBlock",
          "type": "uint256"
        },
        {
          "indexed": false,
          "internalType": "uint256",
          "name": "lastUnderlyingTimestamp",
          "type": "uint256"
        },
        {
          "indexed": false,
          "internalType": "string",
          "name": "paymentAddress",
          "type": "string"
        },
        {
          "indexed": false,
          "internalType": "bytes32",
          "name": "paymentReference",
          "type": "bytes32"
        },
        {
          "indexed": false,
          "internalType": "address",
          "name": "executor",
          "type": "address"
        },
        {
          "indexed": false,
          "internalType": "uint256",
          "name": "executorFeeNatWei",
          "type": "uint256"
        }
      ],
      "name": "CollateralReserved",
      "type": "event"
    },
    {
      "anonymous": false,
      "inputs": [
        {
          "indexed": false,
          "internalType": "uint8",
          "name": "collateralClass",
          "type": "uint8"
        },
        {
          "indexed": false,
          "internalType": "address",
          "name": "token",
          "type": "address"
        },
        {
          "indexed": false,
          "internalType": "uint256",
          "name": "decimals",
          "type": "uint256"
        },
        {
          "indexed": false,
          "internalType": "bool",
          "name": "directPricePair",
          "type": "bool"
        },
        {
          "indexed": false,
          "internalType": "string",
          "name": "assetFtsoSymbol",
          "type": "string"
        },
        {
          "indexed": false,
          "internalType": "string",
          "name": "tokenFtsoSymbol",
          "type": "string"
        },
        {
          "indexed": false,
          "internalType": "uint256",
          "name": "minCollateralRatioBIPS",
          "type": "uint256"
        },
        {
          "indexed": false,
          "internalType": "uint256",
          "name": "ccbMinCollateralRatioBIPS",
          "type": "uint256"
        },
        {
          "indexed": false,
          "internalType": "uint256",
          "name": "safetyMinCollateralRatioBIPS",
          "type": "uint256"
        }
      ],
      "name": "CollateralTypeAdded",
      "type": "event"
    },
    {
      "anonymous": false,
      "inputs": [
        {
          "indexed": false,
          "internalType": "uint8",
          "name": "collateralClass",
          "type": "uint8"
        },
        {
          "indexed": false,
          "internalType": "address",
          "name": "collateralToken",
          "type": "address"
        },
        {
          "indexed": false,
          "internalType": "uint256",
          "name": "validUntil",
          "type": "uint256"
        }
      ],
      "name": "CollateralTypeDeprecated",
      "type": "event"
    },
    {
      "anonymous": false,
      "inputs": [
        {
          "indexed": false,
          "internalType": "string",
          "name": "name",
          "type": "string"
        },
        {
          "indexed": false,
          "internalType": "address",
          "name": "value",
          "type": "address"
        }
      ],
      "name": "ContractChanged",
      "type": "event"
    },
    {
      "anonymous": false,
      "inputs": [
        {
          "indexed": false,
          "internalType": "uint256",
          "name": "underlyingBlockNumber",
          "type": "uint256"
        },
        {
          "indexed": false,
          "internalType": "uint256",
          "name": "underlyingBlockTimestamp",
          "type": "uint256"
        },
        {
          "indexed": false,
          "internalType": "uint256",
          "name": "updatedAt",
          "type": "uint256"
        }
      ],
      "name": "CurrentUnderlyingBlockUpdated",
      "type": "event"
    },
    {
      "anonymous": false,
      "inputs": [
        {
          "indexed": true,
          "internalType": "address",
          "name": "agentVault",
          "type": "address"
        },
        {
          "indexed": false,
          "internalType": "bytes32",
          "name": "transactionHash1",
          "type": "bytes32"
        },
        {
          "indexed": false,
          "internalType": "bytes32",
          "name": "transactionHash2",
          "type": "bytes32"
        }
      ],
      "name": "DuplicatePaymentConfirmed",
      "type": "event"
    },
    {
      "anonymous": false,
      "inputs": [
        {
          "indexed": true,
          "internalType": "address",
          "name": "agentVault",
          "type": "address"
        },
        {
          "indexed": false,
          "internalType": "uint256",
          "name": "dustUBA",
          "type": "uint256"
        }
      ],
      "name": "DustChanged",
      "type": "event"
    },
    {
      "anonymous": false,
      "inputs": [],
      "name": "EmergencyPauseCanceled",
      "type": "event"
    },
    {
      "anonymous": false,
      "inputs": [],
      "name": "EmergencyPauseTransfersCanceled",
      "type": "event"
    },
    {
      "anonymous": false,
      "inputs": [
        {
          "indexed": false,
          "internalType": "uint256",
          "name": "pausedUntil",
          "type": "uint256"
        }
      ],
      "name": "EmergencyPauseTransfersTriggered",
      "type": "event"
    },
    {
      "anonymous": false,
      "inputs": [
        {
          "indexed": false,
          "internalType": "uint256",
          "name": "pausedUntil",
          "type": "uint256"
        }
      ],
      "name": "EmergencyPauseTriggered",
      "type": "event"
    },
    {
      "anonymous": false,
      "inputs": [
        {
          "indexed": true,
          "internalType": "address",
          "name": "agentVault",
          "type": "address"
        },
        {
          "indexed": false,
          "internalType": "uint256",
          "name": "timestamp",
          "type": "uint256"
        }
      ],
      "name": "FullLiquidationStarted",
      "type": "event"
    },
    {
      "anonymous": false,
      "inputs": [
        {
          "indexed": true,
          "internalType": "address",
          "name": "agentVault",
          "type": "address"
        },
        {
          "indexed": true,
          "internalType": "address",
          "name": "minter",
          "type": "address"
        },
        {
          "indexed": true,
          "internalType": "uint256",
          "name": "collateralReservationId",
          "type": "uint256"
        },
        {
          "indexed": false,
          "internalType": "string[]",
          "name": "minterUnderlyingAddresses",
          "type": "string[]"
        },
        {
          "indexed": false,
          "internalType": "uint256",
          "name": "valueUBA",
          "type": "uint256"
        },
        {
          "indexed": false,
          "internalType": "uint256",
          "name": "feeUBA",
          "type": "uint256"
        }
      ],
      "name": "HandshakeRequired",
      "type": "event"
    },
    {
      "anonymous": false,
      "inputs": [
        {
          "indexed": true,
          "internalType": "address",
          "name": "agentVault",
          "type": "address"
        },
        {
          "indexed": false,
          "internalType": "bytes32",
          "name": "transactionHash",
          "type": "bytes32"
        }
      ],
      "name": "IllegalPaymentConfirmed",
      "type": "event"
    },
    {
      "anonymous": false,
      "inputs": [
        {
          "indexed": true,
          "internalType": "address",
          "name": "agentVault",
          "type": "address"
        }
      ],
      "name": "LiquidationEnded",
      "type": "event"
    },
    {
      "anonymous": false,
      "inputs": [
        {
          "indexed": true,
          "internalType": "address",
          "name": "agentVault",
          "type": "address"
        },
        {
          "indexed": true,
          "internalType": "address",
          "name": "liquidator",
          "type": "address"
        },
        {
          "indexed": false,
          "internalType": "uint256",
          "name": "valueUBA",
          "type": "uint256"
        },
        {
          "indexed": false,
          "internalType": "uint256",
          "name": "paidVaultCollateralWei",
          "type": "uint256"
        },
        {
          "indexed": false,
          "internalType": "uint256",
          "name": "paidPoolCollateralWei",
          "type": "uint256"
        }
      ],
      "name": "LiquidationPerformed",
      "type": "event"
    },
    {
      "anonymous": false,
      "inputs": [
        {
          "indexed": true,
          "internalType": "address",
          "name": "agentVault",
          "type": "address"
        },
        {
          "indexed": false,
          "internalType": "uint256",
          "name": "timestamp",
          "type": "uint256"
        }
      ],
      "name": "LiquidationStarted",
      "type": "event"
    },
    {
      "anonymous": false,
      "inputs": [
        {
          "indexed": true,
          "internalType": "address",
          "name": "agentVault",
          "type": "address"
        },
        {
          "indexed": true,
          "internalType": "uint256",
          "name": "collateralReservationId",
          "type": "uint256"
        },
        {
          "indexed": false,
          "internalType": "uint256",
          "name": "mintedAmountUBA",
          "type": "uint256"
        },
        {
          "indexed": false,
          "internalType": "uint256",
          "name": "agentFeeUBA",
          "type": "uint256"
        },
        {
          "indexed": false,
          "internalType": "uint256",
          "name": "poolFeeUBA",
          "type": "uint256"
        }
      ],
      "name": "MintingExecuted",
      "type": "event"
    },
    {
      "anonymous": false,
      "inputs": [
        {
          "indexed": true,
          "internalType": "address",
          "name": "agentVault",
          "type": "address"
        },
        {
          "indexed": true,
          "internalType": "address",
          "name": "minter",
          "type": "address"
        },
        {
          "indexed": true,
          "internalType": "uint256",
          "name": "collateralReservationId",
          "type": "uint256"
        },
        {
          "indexed": false,
          "internalType": "uint256",
          "name": "reservedAmountUBA",
          "type": "uint256"
        }
      ],
      "name": "MintingPaymentDefault",
      "type": "event"
    },
    {
      "anonymous": false,
      "inputs": [
        {
          "indexed": true,
          "internalType": "address",
          "name": "agentVault",
          "type": "address"
        },
        {
          "indexed": false,
          "internalType": "uint256",
          "name": "amountWei",
          "type": "uint256"
        },
        {
          "indexed": false,
          "internalType": "uint256",
          "name": "withdrawalAllowedAt",
          "type": "uint256"
        }
      ],
      "name": "PoolTokenRedemptionAnnounced",
      "type": "event"
    },
    {
      "anonymous": false,
      "inputs": [
        {
          "indexed": true,
          "internalType": "address",
          "name": "agentVault",
          "type": "address"
        },
        {
          "indexed": true,
          "internalType": "address",
          "name": "redeemer",
          "type": "address"
        },
        {
          "indexed": false,
          "internalType": "uint256",
          "name": "redemptionAmountUBA",
          "type": "uint256"
        },
        {
          "indexed": false,
          "internalType": "uint256",
          "name": "paidVaultCollateralWei",
          "type": "uint256"
        }
      ],
      "name": "RedeemedInCollateral",
      "type": "event"
    },
    {
      "anonymous": false,
      "inputs": [
        {
          "indexed": true,
          "internalType": "address",
          "name": "agentVault",
          "type": "address"
        },
        {
          "indexed": true,
          "internalType": "address",
          "name": "redeemer",
          "type": "address"
        },
        {
          "indexed": true,
          "internalType": "uint64",
          "name": "requestId",
          "type": "uint64"
        },
        {
          "indexed": false,
          "internalType": "uint256",
          "name": "redemptionAmountUBA",
          "type": "uint256"
        },
        {
          "indexed": false,
          "internalType": "uint256",
          "name": "redeemedVaultCollateralWei",
          "type": "uint256"
        },
        {
          "indexed": false,
          "internalType": "uint256",
          "name": "redeemedPoolCollateralWei",
          "type": "uint256"
        }
      ],
      "name": "RedemptionDefault",
      "type": "event"
    },
    {
      "anonymous": false,
      "inputs": [
        {
          "indexed": true,
          "internalType": "address",
          "name": "agentVault",
          "type": "address"
        },
        {
          "indexed": true,
          "internalType": "address",
          "name": "redeemer",
          "type": "address"
        },
        {
          "indexed": true,
          "internalType": "uint64",
          "name": "requestId",
          "type": "uint64"
        },
        {
          "indexed": false,
          "internalType": "bytes32",
          "name": "transactionHash",
          "type": "bytes32"
        },
        {
          "indexed": false,
          "internalType": "uint256",
          "name": "redemptionAmountUBA",
          "type": "uint256"
        },
        {
          "indexed": false,
          "internalType": "int256",
          "name": "spentUnderlyingUBA",
          "type": "int256"
        }
      ],
      "name": "RedemptionPaymentBlocked",
      "type": "event"
    },
    {
      "anonymous": false,
      "inputs": [
        {
          "indexed": true,
          "internalType": "address",
          "name": "agentVault",
          "type": "address"
        },
        {
          "indexed": true,
          "internalType": "address",
          "name": "redeemer",
          "type": "address"
        },
        {
          "indexed": true,
          "internalType": "uint64",
          "name": "requestId",
          "type": "uint64"
        },
        {
          "indexed": false,
          "internalType": "bytes32",
          "name": "transactionHash",
          "type": "bytes32"
        },
        {
          "indexed": false,
          "internalType": "int256",
          "name": "spentUnderlyingUBA",
          "type": "int256"
        },
        {
          "indexed": false,
          "internalType": "string",
          "name": "failureReason",
          "type": "string"
        }
      ],
      "name": "RedemptionPaymentFailed",
      "type": "event"
    },
    {
      "anonymous": false,
      "inputs": [
        {
          "indexed": true,
          "internalType": "address",
          "name": "agentVault",
          "type": "address"
        },
        {
          "indexed": true,
          "internalType": "address",
          "name": "redeemer",
          "type": "address"
        },
        {
          "indexed": true,
          "internalType": "uint64",
          "name": "requestId",
          "type": "uint64"
        },
        {
          "indexed": false,
          "internalType": "bytes32",
          "name": "transactionHash",
          "type": "bytes32"
        },
        {
          "indexed": false,
          "internalType": "uint256",
          "name": "redemptionAmountUBA",
          "type": "uint256"
        },
        {
          "indexed": false,
          "internalType": "int256",
          "name": "spentUnderlyingUBA",
          "type": "int256"
        }
      ],
      "name": "RedemptionPerformed",
      "type": "event"
    },
    {
      "anonymous": false,
      "inputs": [
        {
          "indexed": true,
          "internalType": "address",
          "name": "agentVault",
          "type": "address"
        },
        {
          "indexed": true,
          "internalType": "uint64",
          "name": "requestId",
          "type": "uint64"
        },
        {
          "indexed": false,
          "internalType": "uint256",
          "name": "poolFeeUBA",
          "type": "uint256"
        }
      ],
      "name": "RedemptionPoolFeeMinted",
      "type": "event"
    },
    {
      "anonymous": false,
      "inputs": [
        {
          "indexed": true,
          "internalType": "address",
          "name": "agentVault",
          "type": "address"
        },
        {
          "indexed": true,
          "internalType": "address",
          "name": "redeemer",
          "type": "address"
        },
        {
          "indexed": true,
          "internalType": "uint64",
          "name": "requestId",
          "type": "uint64"
        },
        {
          "indexed": false,
          "internalType": "uint256",
          "name": "redemptionAmountUBA",
          "type": "uint256"
        }
      ],
      "name": "RedemptionRejected",
      "type": "event"
    },
    {
      "anonymous": false,
      "inputs": [
        {
          "indexed": true,
          "internalType": "address",
          "name": "redeemer",
          "type": "address"
        },
        {
          "indexed": false,
          "internalType": "uint256",
          "name": "remainingLots",
          "type": "uint256"
        }
      ],
      "name": "RedemptionRequestIncomplete",
      "type": "event"
    },
    {
      "anonymous": false,
      "inputs": [
        {
          "indexed": true,
          "internalType": "address",
          "name": "agentVault",
          "type": "address"
        },
        {
          "indexed": true,
          "internalType": "address",
          "name": "redeemer",
          "type": "address"
        },
        {
          "indexed": true,
          "internalType": "uint64",
          "name": "requestId",
          "type": "uint64"
        },
        {
          "indexed": false,
          "internalType": "string",
          "name": "paymentAddress",
          "type": "string"
        },
        {
          "indexed": false,
          "internalType": "uint256",
          "name": "valueUBA",
          "type": "uint256"
        }
      ],
      "name": "RedemptionRequestRejected",
      "type": "event"
    },
    {
      "anonymous": false,
      "inputs": [
        {
          "indexed": true,
          "internalType": "address",
          "name": "agentVault",
          "type": "address"
        },
        {
          "indexed": true,
          "internalType": "address",
          "name": "redeemer",
          "type": "address"
        },
        {
          "indexed": true,
          "internalType": "uint64",
          "name": "requestId",
          "type": "uint64"
        },
        {
          "indexed": false,
          "internalType": "uint256",
          "name": "valueTakenOverUBA",
          "type": "uint256"
        },
        {
          "indexed": false,
          "internalType": "address",
          "name": "newAgentVault",
          "type": "address"
        },
        {
          "indexed": false,
          "internalType": "uint64",
          "name": "newRequestId",
          "type": "uint64"
        }
      ],
      "name": "RedemptionRequestTakenOver",
      "type": "event"
    },
    {
      "anonymous": false,
      "inputs": [
        {
          "indexed": true,
          "internalType": "address",
          "name": "agentVault",
          "type": "address"
        },
        {
          "indexed": true,
          "internalType": "address",
          "name": "redeemer",
          "type": "address"
        },
        {
          "indexed": true,
          "internalType": "uint256",
          "name": "requestId",
          "type": "uint256"
        },
        {
          "indexed": false,
          "internalType": "string",
          "name": "paymentAddress",
          "type": "string"
        },
        {
          "indexed": false,
          "internalType": "uint256",
          "name": "valueUBA",
          "type": "uint256"
        },
        {
          "indexed": false,
          "internalType": "uint256",
          "name": "feeUBA",
          "type": "uint256"
        },
        {
          "indexed": false,
          "internalType": "uint256",
          "name": "firstUnderlyingBlock",
          "type": "uint256"
        },
        {
          "indexed": false,
          "internalType": "uint256",
          "name": "lastUnderlyingBlock",
          "type": "uint256"
        },
        {
          "indexed": false,
          "internalType": "uint256",
          "name": "lastUnderlyingTimestamp",
          "type": "uint256"
        },
        {
          "indexed": false,
          "internalType": "bytes32",
          "name": "paymentReference",
          "type": "bytes32"
        },
        {
          "indexed": false,
          "internalType": "address",
          "name": "executor",
          "type": "address"
        },
        {
          "indexed": false,
          "internalType": "uint256",
          "name": "executorFeeNatWei",
          "type": "uint256"
        }
      ],
      "name": "RedemptionRequested",
      "type": "event"
    },
    {
      "anonymous": false,
      "inputs": [
        {
          "indexed": true,
          "internalType": "address",
          "name": "agentVault",
          "type": "address"
        },
        {
          "indexed": true,
          "internalType": "uint256",
          "name": "redemptionTicketId",
          "type": "uint256"
        },
        {
          "indexed": false,
          "internalType": "uint256",
          "name": "ticketValueUBA",
          "type": "uint256"
        }
      ],
      "name": "RedemptionTicketCreated",
      "type": "event"
    },
    {
      "anonymous": false,
      "inputs": [
        {
          "indexed": true,
          "internalType": "address",
          "name": "agentVault",
          "type": "address"
        },
        {
          "indexed": true,
          "internalType": "uint256",
          "name": "redemptionTicketId",
          "type": "uint256"
        }
      ],
      "name": "RedemptionTicketDeleted",
      "type": "event"
    },
    {
      "anonymous": false,
      "inputs": [
        {
          "indexed": true,
          "internalType": "address",
          "name": "agentVault",
          "type": "address"
        },
        {
          "indexed": true,
          "internalType": "uint256",
          "name": "redemptionTicketId",
          "type": "uint256"
        },
        {
          "indexed": false,
          "internalType": "uint256",
          "name": "ticketValueUBA",
          "type": "uint256"
        }
      ],
      "name": "RedemptionTicketUpdated",
      "type": "event"
    },
    {
      "anonymous": false,
      "inputs": [
        {
          "indexed": true,
          "internalType": "address",
          "name": "agentVault",
          "type": "address"
        },
        {
          "indexed": false,
          "internalType": "uint256",
          "name": "valueUBA",
          "type": "uint256"
        }
      ],
      "name": "SelfClose",
      "type": "event"
    },
    {
      "anonymous": false,
      "inputs": [
        {
          "indexed": true,
          "internalType": "address",
          "name": "agentVault",
          "type": "address"
        },
        {
          "indexed": false,
          "internalType": "bool",
          "name": "mintFromFreeUnderlying",
          "type": "bool"
        },
        {
          "indexed": false,
          "internalType": "uint256",
          "name": "mintedAmountUBA",
          "type": "uint256"
        },
        {
          "indexed": false,
          "internalType": "uint256",
          "name": "depositedAmountUBA",
          "type": "uint256"
        },
        {
          "indexed": false,
          "internalType": "uint256",
          "name": "poolFeeUBA",
          "type": "uint256"
        }
      ],
      "name": "SelfMint",
      "type": "event"
    },
    {
      "anonymous": false,
      "inputs": [
        {
          "indexed": false,
          "internalType": "string",
          "name": "name",
          "type": "string"
        },
        {
          "indexed": false,
          "internalType": "uint256[]",
          "name": "value",
          "type": "uint256[]"
        }
      ],
      "name": "SettingArrayChanged",
      "type": "event"
    },
    {
      "anonymous": false,
      "inputs": [
        {
          "indexed": false,
          "internalType": "string",
          "name": "name",
          "type": "string"
        },
        {
          "indexed": false,
          "internalType": "uint256",
          "name": "value",
          "type": "uint256"
        }
      ],
      "name": "SettingChanged",
      "type": "event"
    },
    {
      "anonymous": false,
      "inputs": [
        {
          "indexed": true,
          "internalType": "address",
          "name": "agentVault",
          "type": "address"
        },
        {
          "indexed": false,
          "internalType": "int256",
          "name": "underlyingBalanceUBA",
          "type": "int256"
        }
      ],
      "name": "UnderlyingBalanceChanged",
      "type": "event"
    },
    {
      "anonymous": false,
      "inputs": [
        {
          "indexed": true,
          "internalType": "address",
          "name": "agentVault",
          "type": "address"
        },
        {
          "indexed": false,
          "internalType": "int256",
          "name": "balance",
          "type": "int256"
        },
        {
          "indexed": false,
          "internalType": "uint256",
          "name": "requiredBalance",
          "type": "uint256"
        }
      ],
      "name": "UnderlyingBalanceTooLow",
      "type": "event"
    },
    {
      "anonymous": false,
      "inputs": [
        {
          "indexed": true,
          "internalType": "address",
          "name": "agentVault",
          "type": "address"
        },
        {
          "indexed": false,
          "internalType": "bytes32",
          "name": "transactionHash",
          "type": "bytes32"
        },
        {
          "indexed": false,
          "internalType": "uint256",
          "name": "depositedUBA",
          "type": "uint256"
        }
      ],
      "name": "UnderlyingBalanceToppedUp",
      "type": "event"
    },
    {
      "anonymous": false,
      "inputs": [
        {
          "indexed": true,
          "internalType": "address",
          "name": "agentVault",
          "type": "address"
        },
        {
          "indexed": true,
          "internalType": "uint64",
          "name": "announcementId",
          "type": "uint64"
        },
        {
          "indexed": false,
          "internalType": "bytes32",
          "name": "paymentReference",
          "type": "bytes32"
        }
      ],
      "name": "UnderlyingWithdrawalAnnounced",
      "type": "event"
    },
    {
      "anonymous": false,
      "inputs": [
        {
          "indexed": true,
          "internalType": "address",
          "name": "agentVault",
          "type": "address"
        },
        {
          "indexed": true,
          "internalType": "uint64",
          "name": "announcementId",
          "type": "uint64"
        }
      ],
      "name": "UnderlyingWithdrawalCancelled",
      "type": "event"
    },
    {
      "anonymous": false,
      "inputs": [
        {
          "indexed": true,
          "internalType": "address",
          "name": "agentVault",
          "type": "address"
        },
        {
          "indexed": true,
          "internalType": "uint64",
          "name": "announcementId",
          "type": "uint64"
        },
        {
          "indexed": false,
          "internalType": "int256",
          "name": "spentUBA",
          "type": "int256"
        },
        {
          "indexed": false,
          "internalType": "bytes32",
          "name": "transactionHash",
          "type": "bytes32"
        }
      ],
      "name": "UnderlyingWithdrawalConfirmed",
      "type": "event"
    },
    {
      "anonymous": false,
      "inputs": [
        {
          "indexed": true,
          "internalType": "address",
          "name": "agentVault",
          "type": "address"
        },
        {
          "indexed": false,
          "internalType": "uint256",
          "name": "amountWei",
          "type": "uint256"
        },
        {
          "indexed": false,
          "internalType": "uint256",
          "name": "withdrawalAllowedAt",
          "type": "uint256"
        }
      ],
      "name": "VaultCollateralWithdrawalAnnounced",
      "type": "event"
    },
    {
      "inputs": [
        {
          "internalType": "uint256",
          "name": "_value",
          "type": "uint256"
        }
      ],
      "name": "setAgentExitAvailableTimelockSeconds",
      "outputs": [],
      "stateMutability": "nonpayable",
      "type": "function"
    },
    {
      "inputs": [
        {
          "internalType": "uint256",
          "name": "_value",
          "type": "uint256"
        }
      ],
      "name": "setAgentFeeChangeTimelockSeconds",
      "outputs": [],
      "stateMutability": "nonpayable",
      "type": "function"
    },
    {
      "inputs": [
        {
          "internalType": "uint256",
          "name": "_value",
          "type": "uint256"
        }
      ],
      "name": "setAgentMintingCRChangeTimelockSeconds",
      "outputs": [],
      "stateMutability": "nonpayable",
      "type": "function"
    },
    {
      "inputs": [
        {
          "internalType": "address",
          "name": "_value",
          "type": "address"
        }
      ],
      "name": "setAgentOwnerRegistry",
      "outputs": [],
      "stateMutability": "nonpayable",
      "type": "function"
    },
    {
      "inputs": [
        {
          "internalType": "uint256",
          "name": "_value",
          "type": "uint256"
        }
      ],
      "name": "setAgentTimelockedOperationWindowSeconds",
      "outputs": [],
      "stateMutability": "nonpayable",
      "type": "function"
    },
    {
      "inputs": [
        {
          "internalType": "address",
          "name": "_value",
          "type": "address"
        }
      ],
      "name": "setAgentVaultFactory",
      "outputs": [],
      "stateMutability": "nonpayable",
      "type": "function"
    },
    {
      "inputs": [
        {
          "internalType": "uint256",
          "name": "_value",
          "type": "uint256"
        }
      ],
      "name": "setAnnouncedUnderlyingConfirmationMinSeconds",
      "outputs": [],
      "stateMutability": "nonpayable",
      "type": "function"
    },
    {
      "inputs": [
        {
          "internalType": "uint256",
          "name": "_value",
          "type": "uint256"
        }
      ],
      "name": "setAttestationWindowSeconds",
      "outputs": [],
      "stateMutability": "nonpayable",
      "type": "function"
    },
    {
      "inputs": [
        {
          "internalType": "uint256",
          "name": "_value",
          "type": "uint256"
        }
      ],
      "name": "setAverageBlockTimeMS",
      "outputs": [],
      "stateMutability": "nonpayable",
      "type": "function"
    },
    {
      "inputs": [
        {
          "internalType": "uint256",
          "name": "_value",
          "type": "uint256"
        }
      ],
      "name": "setCancelCollateralReservationAfterSeconds",
      "outputs": [],
      "stateMutability": "nonpayable",
      "type": "function"
    },
    {
      "inputs": [
        {
          "internalType": "uint256",
          "name": "_value",
          "type": "uint256"
        }
      ],
      "name": "setCcbTimeSeconds",
      "outputs": [],
      "stateMutability": "nonpayable",
      "type": "function"
    },
    {
      "inputs": [
        {
          "internalType": "address",
          "name": "_value",
          "type": "address"
        }
      ],
      "name": "setCleanerContract",
      "outputs": [],
      "stateMutability": "nonpayable",
      "type": "function"
    },
    {
      "inputs": [
        {
          "internalType": "address",
          "name": "_value",
          "type": "address"
        }
      ],
      "name": "setCleanupBlockNumberManager",
      "outputs": [],
      "stateMutability": "nonpayable",
      "type": "function"
    },
    {
      "inputs": [
        {
          "internalType": "address",
          "name": "_value",
          "type": "address"
        }
      ],
      "name": "setCollateralPoolFactory",
      "outputs": [],
      "stateMutability": "nonpayable",
      "type": "function"
    },
    {
      "inputs": [
        {
          "internalType": "address",
          "name": "_value",
          "type": "address"
        }
      ],
      "name": "setCollateralPoolTokenFactory",
      "outputs": [],
      "stateMutability": "nonpayable",
      "type": "function"
    },
    {
      "inputs": [
        {
          "internalType": "uint256",
          "name": "_value",
          "type": "uint256"
        }
      ],
      "name": "setCollateralPoolTokenTimelockSeconds",
      "outputs": [],
      "stateMutability": "nonpayable",
      "type": "function"
    },
    {
      "inputs": [
        {
          "internalType": "uint256",
          "name": "_value",
          "type": "uint256"
        }
      ],
      "name": "setCollateralReservationFeeBips",
      "outputs": [],
      "stateMutability": "nonpayable",
      "type": "function"
    },
    {
      "inputs": [
        {
          "internalType": "uint256",
          "name": "_value",
          "type": "uint256"
        }
      ],
      "name": "setConfirmationByOthersAfterSeconds",
      "outputs": [],
      "stateMutability": "nonpayable",
      "type": "function"
    },
    {
      "inputs": [
        {
          "internalType": "uint256",
          "name": "_value",
          "type": "uint256"
        }
      ],
      "name": "setConfirmationByOthersRewardUSD5",
      "outputs": [],
      "stateMutability": "nonpayable",
      "type": "function"
    },
    {
      "inputs": [
        {
          "internalType": "uint256",
          "name": "_value",
          "type": "uint256"
        }
      ],
      "name": "setEmergencyPauseDurationResetAfterSeconds",
      "outputs": [],
      "stateMutability": "nonpayable",
      "type": "function"
    },
    {
      "inputs": [
        {
          "internalType": "address",
          "name": "_value",
          "type": "address"
        }
      ],
      "name": "setFdcVerification",
      "outputs": [],
      "stateMutability": "nonpayable",
      "type": "function"
    },
    {
      "inputs": [
        {
          "internalType": "uint256[]",
          "name": "_liquidationFactors",
          "type": "uint256[]"
        },
        {
          "internalType": "uint256[]",
          "name": "_vaultCollateralFactors",
          "type": "uint256[]"
        }
      ],
      "name": "setLiquidationPaymentFactors",
      "outputs": [],
      "stateMutability": "nonpayable",
      "type": "function"
    },
    {
      "inputs": [
        {
          "internalType": "uint256",
          "name": "_stepSeconds",
          "type": "uint256"
        }
      ],
      "name": "setLiquidationStepSeconds",
      "outputs": [],
      "stateMutability": "nonpayable",
      "type": "function"
    },
    {
      "inputs": [
        {
          "internalType": "uint256",
          "name": "_value",
          "type": "uint256"
        }
      ],
      "name": "setLotSizeAmg",
      "outputs": [],
      "stateMutability": "nonpayable",
      "type": "function"
    },
    {
      "inputs": [
        {
          "internalType": "uint256",
          "name": "_value",
          "type": "uint256"
        }
      ],
      "name": "setMaxEmergencyPauseDurationSeconds",
      "outputs": [],
      "stateMutability": "nonpayable",
      "type": "function"
    },
    {
      "inputs": [
        {
          "internalType": "uint256",
          "name": "_value",
          "type": "uint256"
        }
      ],
      "name": "setMaxRedeemedTickets",
      "outputs": [],
      "stateMutability": "nonpayable",
      "type": "function"
    },
    {
      "inputs": [
        {
          "internalType": "uint256",
          "name": "_value",
          "type": "uint256"
        }
      ],
      "name": "setMaxTrustedPriceAgeSeconds",
      "outputs": [],
      "stateMutability": "nonpayable",
      "type": "function"
    },
    {
      "inputs": [
        {
          "internalType": "uint256",
          "name": "_value",
          "type": "uint256"
        }
      ],
      "name": "setMinUnderlyingBackingBips",
      "outputs": [],
      "stateMutability": "nonpayable",
      "type": "function"
    },
    {
      "inputs": [
        {
          "internalType": "uint256",
          "name": "_value",
          "type": "uint256"
        }
      ],
      "name": "setMinUpdateRepeatTimeSeconds",
      "outputs": [],
      "stateMutability": "nonpayable",
      "type": "function"
    },
    {
      "inputs": [
        {
          "internalType": "uint256",
          "name": "_value",
          "type": "uint256"
        }
      ],
      "name": "setMintingCapAmg",
      "outputs": [],
      "stateMutability": "nonpayable",
      "type": "function"
    },
    {
      "inputs": [
        {
          "internalType": "uint256",
          "name": "_value",
          "type": "uint256"
        }
      ],
      "name": "setMintingPoolHoldingsRequiredBIPS",
      "outputs": [],
      "stateMutability": "nonpayable",
      "type": "function"
    },
    {
      "inputs": [
        {
          "internalType": "uint256",
          "name": "_rewardNATWei",
          "type": "uint256"
        },
        {
          "internalType": "uint256",
          "name": "_rewardBIPS",
          "type": "uint256"
        }
      ],
      "name": "setPaymentChallengeReward",
      "outputs": [],
      "stateMutability": "nonpayable",
      "type": "function"
    },
    {
      "inputs": [
        {
          "internalType": "uint256",
          "name": "_value",
          "type": "uint256"
        }
      ],
      "name": "setPoolExitAndTopupChangeTimelockSeconds",
      "outputs": [],
      "stateMutability": "nonpayable",
      "type": "function"
    },
    {
      "inputs": [
        {
          "internalType": "address",
          "name": "_value",
          "type": "address"
        }
      ],
      "name": "setPriceReader",
      "outputs": [],
      "stateMutability": "nonpayable",
      "type": "function"
    },
    {
      "inputs": [
        {
          "internalType": "uint256",
          "name": "_vaultFactor",
          "type": "uint256"
        },
        {
          "internalType": "uint256",
          "name": "_poolFactor",
          "type": "uint256"
        }
      ],
      "name": "setRedemptionDefaultFactorBips",
      "outputs": [],
      "stateMutability": "nonpayable",
      "type": "function"
    },
    {
      "inputs": [
        {
          "internalType": "uint256",
          "name": "_value",
          "type": "uint256"
        }
      ],
      "name": "setRedemptionFeeBips",
      "outputs": [],
      "stateMutability": "nonpayable",
      "type": "function"
    },
    {
      "inputs": [
        {
          "internalType": "uint256",
          "name": "_value",
          "type": "uint256"
        }
      ],
      "name": "setRejectOrCancelCollateralReservationReturnFactorBIPS",
      "outputs": [],
      "stateMutability": "nonpayable",
      "type": "function"
    },
    {
      "inputs": [
        {
          "internalType": "uint256",
          "name": "_value",
          "type": "uint256"
        }
      ],
      "name": "setRejectRedemptionRequestWindowSeconds",
      "outputs": [],
      "stateMutability": "nonpayable",
      "type": "function"
    },
    {
      "inputs": [
        {
          "internalType": "uint256",
          "name": "_vaultF",
          "type": "uint256"
        },
        {
          "internalType": "uint256",
          "name": "_poolF",
          "type": "uint256"
        }
      ],
      "name": "setRejectedRedemptionDefaultFactorBips",
      "outputs": [],
      "stateMutability": "nonpayable",
      "type": "function"
    },
    {
      "inputs": [
        {
          "internalType": "uint256",
          "name": "_value",
          "type": "uint256"
        }
      ],
      "name": "setTakeOverRedemptionRequestWindowSeconds",
      "outputs": [],
      "stateMutability": "nonpayable",
      "type": "function"
    },
    {
      "inputs": [
        {
          "internalType": "uint256",
          "name": "_underlyingBlocks",
          "type": "uint256"
        },
        {
          "internalType": "uint256",
          "name": "_underlyingSeconds",
          "type": "uint256"
        }
      ],
      "name": "setTimeForPayment",
      "outputs": [],
      "stateMutability": "nonpayable",
      "type": "function"
    },
    {
      "inputs": [
        {
          "internalType": "uint256",
          "name": "_value",
          "type": "uint256"
        }
      ],
      "name": "setTokenInvalidationTimeMinSeconds",
      "outputs": [],
      "stateMutability": "nonpayable",
      "type": "function"
    },
    {
      "inputs": [
        {
          "internalType": "uint256",
          "name": "_value",
          "type": "uint256"
        }
      ],
      "name": "setVaultCollateralBuyForFlareFactorBIPS",
      "outputs": [],
      "stateMutability": "nonpayable",
      "type": "function"
    },
    {
      "inputs": [
        {
          "internalType": "address",
          "name": "_value",
          "type": "address"
        }
      ],
      "name": "setWhitelist",
      "outputs": [],
      "stateMutability": "nonpayable",
      "type": "function"
    },
    {
      "inputs": [
        {
          "internalType": "uint256",
          "name": "_value",
          "type": "uint256"
        }
      ],
      "name": "setWithdrawalOrDestroyWaitMinSeconds",
      "outputs": [],
      "stateMutability": "nonpayable",
      "type": "function"
    },
    {
      "inputs": [
        {
          "internalType": "address",
          "name": "_controller",
          "type": "address"
        },
        {
          "internalType": "contract IWNat",
          "name": "_wNat",
          "type": "address"
        }
      ],
      "name": "updateSystemContracts",
      "outputs": [],
      "stateMutability": "nonpayable",
      "type": "function"
    },
    {
      "inputs": [
        {
          "internalType": "address",
          "name": "_value",
          "type": "address"
        },
        {
          "internalType": "bytes",
          "name": "callData",
          "type": "bytes"
        }
      ],
      "name": "upgradeFAssetImplementation",
      "outputs": [],
      "stateMutability": "nonpayable",
      "type": "function"
    }
  ],
  "bytecode": "0x608060405234801561001057600080fd5b506156d380620000216000396000f3fe608060405234801561001057600080fd5b50600436106102955760003560e01c8063812e7d2e11610167578063d57d25c5116100ce578063e443147f11610087578063e443147f146105a7578063e68f3fbf146105ba578063ec516d24146105cd578063f35653f1146105e0578063f6a494af146105f3578063f9b9b4461461060657600080fd5b8063d57d25c514610535578063db8617d614610548578063dd64bd041461055b578063de034c701461056e578063df06ea9614610581578063dfc594171461059457600080fd5b8063af5f2b9811610120578063af5f2b98146104c3578063b2e6a2b5146104d6578063be069719146104e9578063cda4c541146104fc578063cfcb991d1461050f578063d07433951461052257600080fd5b8063812e7d2e14610451578063854cff2f146104645780638d94510a146104775780639db27f551461048a578063a36bf7ce1461049d578063ad74c72d146104b057600080fd5b80635ac5c11e1161020b5780636b38c643116101c45780636b38c643146103df5780636dd3d589146103f25780636df310d6146104055780637800a11f146104185780637b6fa7621461042b5780637f4fcaa91461043e57600080fd5b80635ac5c11e1461036d5780636075765d1461038057806368f224ba1461039357806369b89e7e146103a65780636a598609146103b95780636ad6fb4f146103cc57600080fd5b80632ae535ab1161025d5780632ae535ab146102fb5780632c06abf01461030e57806335b35f4b146103215780633703cfe01461033457806347814c0614610347578063568ae58e1461035a57600080fd5b8063050f44391461029a5780630a9ad520146102af57806313d6a5e2146102c25780631529264f146102d55780632779aaaa146102e8575b600080fd5b6102ad6102a8366004614d49565b610619565b005b6102ad6102bd366004614d49565b6106c9565b6102ad6102d0366004614d77565b6107c2565b6102ad6102e3366004614d94565b610877565b6102ad6102f6366004614d49565b610b28565b6102ad610309366004614d49565b610c16565b6102ad61031c366004614d49565b610d85565b6102ad61032f366004614d94565b610e7c565b6102ad610342366004614d49565b61113c565b6102ad610355366004614d49565b6112af565b6102ad610368366004614d49565b6113de565b6102ad61037b366004614d49565b611532565b6102ad61038e366004614db6565b61168e565b6102ad6103a1366004614d94565b6117bf565b6102ad6103b4366004614d94565b6119fb565b6102ad6103c7366004614e35565b611b76565b6102ad6103da366004614d49565b611cc6565b6102ad6103ed366004614d49565b611d88565b6102ad610400366004614d77565b611e58565b6102ad610413366004614d49565b611f08565b6102ad610426366004614d49565b61206a565b6102ad610439366004614d49565b6121df565b6102ad61044c366004614d77565b6122d4565b6102ad61045f366004614d49565b6123ab565b6102ad610472366004614d77565b61247d565b6102ad610485366004614d49565b6124fc565b6102ad610498366004614d49565b61264f565b6102ad6104ab366004614d49565b61279f565b6102ad6104be366004614d49565b61290c565b6102ad6104d1366004614d49565b6129e5565b6102ad6104e4366004614d49565b612bf3565b6102ad6104f7366004614d77565b612cbd565b6102ad61050a366004614d77565b612d63565b6102ad61051d366004614d49565b612e10565b6102ad610530366004614d49565b612f32565b6102ad610543366004614d49565b613071565b6102ad610556366004614d49565b613139565b6102ad610569366004614d49565b61323a565b6102ad61057c366004614d49565b61334b565b6102ad61058f366004614d77565b613496565b6102ad6105a2366004614d49565b61354e565b6102ad6105b5366004614d77565b613646565b6102ad6105c8366004614d49565b6136f0565b6102ad6105db366004614f5b565b613803565b6102ad6105ee366004614d49565b61393c565b6102ad610601366004614d77565b613aba565b6102ad610614366004614d49565b613b83565b610621613cb4565b610629613d1d565b6000610633613dff565b905061063e82613e23565b6012820180546001600160401b0392909216600160401b0267ffffffffffffffff60401b1990921691909117905560408051818152601f918101919091527f746f6b656e496e76616c69646174696f6e54696d654d696e5365636f6e64730060608201526020810183905260008051602061567e833981519152906080015b60405180910390a15050565b6106d1613cb4565b6106d9613d1d565b60006106e3613dff565b601381015490915061070690600160801b90046001600160401b03166004614fd4565b6107139062015180614fff565b6001600160401b031682111561072857600080fd5b61073182613e23565b6013820180546001600160401b0392909216600160801b0267ffffffffffffffff60801b19909216919091179055604080518181526025918101919091527f706f6f6c45786974416e64546f7075704368616e676554696d656c6f636b5365606082015264636f6e647360d81b60808201526020810183905260008051602061567e8339815191529060a0016106bd565b6107ca613cb4565b6107d2613d1d565b60006107dc613dff565b90506001600160a01b03821661080d5760405162461bcd60e51b815260040161080490615026565b60405180910390fd5b6002810180546001600160a01b0319166001600160a01b03841690811790915560408051818152601191810191909152706167656e745661756c74466163746f727960781b6060820152602081019190915260008051602061565e833981519152906080016106bd565b61087f613cb4565b610887613d1d565b6000610891613dff565b90506127106108a0838561504c565b116108e25760405162461bcd60e51b8152602060048201526012602482015271626970732076616c756520746f6f206c6f7760701b6044820152606401610804565b600e8101546109059063ffffffff600160501b909104811690612ee090613e8f16565b610911906103e861504c565b8311156109305760405162461bcd60e51b81526004016108049061505f565b600e8101546109539063ffffffff600160501b90910481169061208d90613e8f16565b8310156109725760405162461bcd60e51b81526004016108049061508d565b600e8101546109959063ffffffff600160701b909104811690612ee090613e8f16565b6109a1906103e861504c565b8211156109c05760405162461bcd60e51b81526004016108049061505f565b600e8101546109e39063ffffffff600160701b90910481169061208d90613e8f16565b821015610a025760405162461bcd60e51b81526004016108049061508d565b610a0b83613ea7565b600e8201805463ffffffff60501b1916600160501b63ffffffff939093169290920291909117905560408051818152602a818301527f726564656d7074696f6e44656661756c74466163746f725661756c74436f6c6c60608201526961746572616c4249505360b01b608082015260208101859052905160008051602061567e8339815191529181900360a00190a1610aa382613ea7565b600e8201805463ffffffff92909216600160701b0263ffffffff60701b1990921691909117905560408051818152601f918101919091527f726564656d7074696f6e44656661756c74466163746f72506f6f6c424950530060608201526020810183905260008051602061567e833981519152906080015b60405180910390a1505050565b610b30613cb4565b610b38613d1d565b6000610b42613dff565b905062015180821015610b8a5760405162461bcd60e51b815260206004820152601060248201526f1dda5b991bddc81d1bdbc81cdb585b1b60821b6044820152606401610804565b610b9382613e23565b6011820180546001600160401b0392909216600160401b0267ffffffffffffffff60401b19909216919091179055604080518181526018918101919091527f6174746573746174696f6e57696e646f775365636f6e6473000000000000000060608201526020810183905260008051602061567e833981519152906080016106bd565b610c1e613cb4565b610c26613d1d565b6000610c30613dff565b905060008211610c525760405162461bcd60e51b8152600401610804906150bb565b6017810154610c7290600160c01b90046001600160401b03166004614fd4565b610c7d90603c614fff565b6001600160401b0316821115610ca55760405162461bcd60e51b8152600401610804906150e3565b6017810154610cc690600490600160c01b90046001600160401b0316615123565b6001600160401b0316821015610cee5760405162461bcd60e51b815260040161080490615149565b610cf782613e23565b6017820180546001600160401b0392909216600160c01b026001600160c01b03909216919091179055604080518181526027918101919091527f63616e63656c436f6c6c61746572616c5265736572766174696f6e41667465726060820152665365636f6e647360c81b60808201526020810183905260008051602061567e8339815191529060a0016106bd565b610d8d613cb4565b610d95613d1d565b6000610d9f613dff565b6013810154909150610dc290600160401b90046001600160401b03166004614fd4565b610dcf9062015180614fff565b6001600160401b0316821115610de457600080fd5b610ded82613e23565b6013820180546001600160401b0392909216600160401b0267ffffffffffffffff60401b19909216919091179055604080518181526023918101919091527f6167656e744d696e74696e6743524368616e676554696d656c6f636b5365636f6060820152626e647360e81b60808201526020810183905260008051602061567e8339815191529060a0016106bd565b610e84613cb4565b610e8c613d1d565b6000610e96613dff565b9050612710610ea5838561504c565b11610ee75760405162461bcd60e51b8152602060048201526012602482015271626970732076616c756520746f6f206c6f7760701b6044820152606401610804565b6018810154610f0a9063ffffffff600160901b909104811690612ee090613e8f16565b610f16906103e861504c565b831115610f355760405162461bcd60e51b81526004016108049061505f565b6018810154610f589063ffffffff600160901b90910481169061208d90613e8f16565b831015610f775760405162461bcd60e51b81526004016108049061508d565b6018810154610f9a9063ffffffff600160b01b909104811690612ee090613e8f16565b610fa6906103e861504c565b821115610fc55760405162461bcd60e51b81526004016108049061505f565b6018810154610fe89063ffffffff600160b01b90910481169061208d90613e8f16565b8210156110075760405162461bcd60e51b81526004016108049061508d565b61101083613ea7565b60188201805463ffffffff60901b1916600160901b63ffffffff9390931692909202919091179055604080518181526032818301527f72656a6563746564526564656d7074696f6e44656661756c74466163746f725660608201527161756c74436f6c6c61746572616c4249505360701b608082015260208101859052905160008051602061567e8339815191529181900360a00190a16110b082613ea7565b60188201805463ffffffff92909216600160b01b0263ffffffff60b01b19909216919091179055604080518181526027918101919091527f72656a6563746564526564656d7074696f6e44656661756c74466163746f72506060820152666f6f6c4249505360c81b60808201526020810183905260008051602061567e8339815191529060a001610b1b565b611144613cb4565b61114c613d1d565b6000611156613dff565b9050600082116111785760405162461bcd60e51b8152600401610804906150bb565b601881015461119890600160501b90046001600160401b03166004614fd4565b6111a390603c614fff565b6001600160401b03168211156111cb5760405162461bcd60e51b8152600401610804906150e3565b60188101546111ec90600490600160501b90046001600160401b0316615123565b6001600160401b03168210156112145760405162461bcd60e51b815260040161080490615149565b61121d82613e23565b6018820180546001600160401b0392909216600160501b0267ffffffffffffffff60501b19909216919091179055604080518181526026918101919091527f74616b654f766572526564656d7074696f6e5265717565737457696e646f775360608201526565636f6e647360d01b60808201526020810183905260008051602061567e8339815191529060a0016106bd565b6112b7613cb4565b6112bf613d1d565b60006112c9613dff565b9050600082116112eb5760405162461bcd60e51b8152600401610804906150bb565b600f81015461130690600160801b900461ffff166002615173565b61ffff168211156113295760405162461bcd60e51b8152600401610804906150e3565b600f81015461134590600490600160801b900461ffff16615191565b61ffff168210156113685760405162461bcd60e51b815260040161080490615149565b61137182613f0c565b600f8201805461ffff92909216600160801b0261ffff60801b1990921691909117905560408051818152601291810191909152716d617852656465656d65645469636b65747360701b60608201526020810183905260008051602061567e833981519152906080016106bd565b6113e6613cb4565b6113ee613d1d565b60006113f8613dff565b90506000821161141a5760405162461bcd60e51b8152600401610804906150bb565b601081015461143a90600160c01b90046001600160401b03166002614fd4565b6001600160401b03168211156114625760405162461bcd60e51b81526004016108049061505f565b601081015461148390600290600160c01b90046001600160401b0316615123565b6001600160401b03168210156114ab5760405162461bcd60e51b81526004016108049061508d565b6114b482613e23565b6010820180546001600160401b0392909216600160c01b026001600160c01b03909216919091179055604080518181526019918101919091527f6d61785472757374656450726963654167655365636f6e64730000000000000060608201526020810183905260008051602061567e833981519152906080016106bd565b61153a613cb4565b611542613d1d565b600061154c613dff565b90506000821161156e5760405162461bcd60e51b8152600401610804906150bb565b6127108211156115905760405162461bcd60e51b8152600401610804906151a6565b600c8101546115ab90600160401b900461ffff166004615173565b61ffff168211156115ce5760405162461bcd60e51b81526004016108049061505f565b600c8101546115ea90600490600160401b900461ffff16615191565b61ffff1682101561160d5760405162461bcd60e51b81526004016108049061508d565b61161682613f0c565b600c8201805461ffff92909216600160401b0261ffff60401b1990921691909117905560408051818152601c918101919091527f636f6c6c61746572616c5265736572766174696f6e466565424950530000000060608201526020810183905260008051602061567e833981519152906080016106bd565b611696613cb4565b60006116a0613dff565b80549091506001600160a01b038481169116146117215780546001600160a01b0384166001600160a01b031990911681178255604080518181526016818301527530b9b9b2ba26b0b730b3b2b921b7b73a3937b63632b960511b606082015260208101929092525160008051602061565e8339815191529181900360800190a15b600061172b613f6f565b9050826001600160a01b0316816001600160a01b0316146117b9576000611753600183613fdc565b600060608201526001600160a01b0385166020820152905061177481614003565b60408051818152600481830152631dd3985d60e21b60608201526001600160a01b0386166020820152905160008051602061565e8339815191529181900360800190a1505b50505050565b6117c7613cb4565b6117cf613d1d565b60006117d9613dff565b60108101549091506117f5906001600160801b031660046151d3565b6118089068056bc75e2d631000006151f6565b6001600160801b03168311156118305760405162461bcd60e51b8152600401610804906150e3565b601081015461184a906004906001600160801b0316615216565b6001600160801b03168310156118725760405162461bcd60e51b815260040161080490615149565b600f81015461188d90600160901b900461ffff166004615173565b611898906064615230565b61ffff168211156118bb5760405162461bcd60e51b8152600401610804906150e3565b600f8101546118d790600490600160901b900461ffff16615191565b61ffff168210156118fa5760405162461bcd60e51b815260040161080490615149565b6119038361401d565b6010820180546001600160801b0319166001600160801b039290921691909117905561192e82613f0c565b600f8201805461ffff60901b1916600160901b61ffff939093169290920291909117905560408051818152601a818301527f7061796d656e744368616c6c656e676552657761726455534435000000000000606082015260208101859052905160008051602061567e8339815191529181900360800190a160408051818152601a918101919091527f7061796d656e744368616c6c656e67655265776172644249505300000000000060608201526020810183905260008051602061567e83398151915290608001610b1b565b611a03613cb4565b611a0b613d1d565b6000611a15613dff565b905060008211611a375760405162461bcd60e51b8152600401610804906150bb565b60008311611a575760405162461bcd60e51b8152600401610804906150bb565b600c810154611a6f908490849063ffffffff16614086565b611a7883613e23565b81600d0160136101000a8154816001600160401b0302191690836001600160401b03160217905550611aa982613e23565b600e8201805467ffffffffffffffff19166001600160401b039290921691909117905560408051818152601a818301527f756e6465726c79696e67426c6f636b73466f725061796d656e74000000000000606082015260208101859052905160008051602061567e833981519152916080908290030190a160408051818152601b918101919091527f756e6465726c79696e675365636f6e6473466f725061796d656e74000000000060608201526020810183905260008051602061567e83398151915290608001610b1b565b611b7e613cb4565b611b86613d1d565b6000611b90614129565b90506001600160a01b038316611bb85760405162461bcd60e51b815260040161080490615026565b815115611c245760405163278f794360e11b81526001600160a01b03821690634f1ef28690611bed9086908690600401615291565b600060405180830381600087803b158015611c0757600080fd5b505af1158015611c1b573d6000803e3d6000fd5b50505050611c80565b604051631b2ce7f360e11b81526001600160a01b038481166004830152821690633659cfe690602401600060405180830381600087803b158015611c6757600080fd5b505af1158015611c7b573d6000803e3d6000fd5b505050505b604080518181526006918101919091526519905cdcd95d60d21b60608201526001600160a01b038416602082015260008051602061565e83398151915290608001610b1b565b611cce613cb4565b611cd6613d1d565b6000611ce0613dff565b9050603c821015611d035760405162461bcd60e51b8152600401610804906152b5565b611d0c82613ea7565b60148201805463ffffffff191663ffffffff92909216919091179055604080518181526022918101919091527f636f6c6c61746572616c506f6f6c546f6b656e54696d656c6f636b5365636f6e606082015261647360f01b60808201526020810183905260008051602061567e8339815191529060a0016106bd565b611d90613cb4565b611d98613d1d565b6000611da2613dff565b9050612710821015611dc65760405162461bcd60e51b8152600401610804906152b5565b611dcf82613ea7565b60128201805463ffffffff92909216600160801b0263ffffffff60801b19909216919091179055604080518181526024918101919091527f7661756c74436f6c6c61746572616c427579466f72466c617265466163746f726060820152634249505360e01b60808201526020810183905260008051602061567e8339815191529060a0016106bd565b611e60613cb4565b611e68613d1d565b6000611e72613dff565b90506001600160a01b038216611e9a5760405162461bcd60e51b815260040161080490615026565b6003810180546001600160a01b0319166001600160a01b0384169081179091556040805181815260159181019190915274636f6c6c61746572616c506f6f6c466163746f727960581b6060820152602081019190915260008051602061565e833981519152906080016106bd565b611f10613cb4565b611f18613d1d565b6000611f22613dff565b905060008211611f445760405162461bcd60e51b8152600401610804906150bb565b6017810154611f6490600160401b90046001600160401b03166004614fd4565b611f6f90603c614fff565b6001600160401b0316821115611f975760405162461bcd60e51b8152600401610804906150e3565b6017810154611fb890600490600160401b90046001600160401b0316615123565b6001600160401b0316821015611fe05760405162461bcd60e51b815260040161080490615149565b611fe982613e23565b6017820180546001600160401b0392909216600160401b0267ffffffffffffffff60401b199092169190911790556040805181815260209181018290527f6d6178456d657267656e637950617573654475726174696f6e5365636f6e6473606082015290810183905260008051602061567e833981519152906080016106bd565b612072613cb4565b61207a613d1d565b6000612084613dff565b9050600082116120a65760405162461bcd60e51b8152600401610804906150bb565b60178101546120c690600160801b90046001600160401b03166004614fd4565b6120d290610e10614fff565b6001600160401b03168211156120fa5760405162461bcd60e51b8152600401610804906150e3565b601781015461211b90600490600160801b90046001600160401b0316615123565b6001600160401b03168210156121435760405162461bcd60e51b815260040161080490615149565b61214c82613e23565b6017820180546001600160401b0392909216600160801b0267ffffffffffffffff60801b19909216919091179055604080518181526027918101919091527f656d657267656e637950617573654475726174696f6e526573657441667465726060820152665365636f6e647360c81b60808201526020810183905260008051602061567e8339815191529060a0016106bd565b6121e7613cb4565b6121ef613d1d565b60006121f9613dff565b601281015490915061221c90600160a01b90046001600160401b03166004614fd4565b6122299062093a80614fff565b6001600160401b031682111561223e57600080fd5b61224782613e23565b6012820180546001600160401b0392909216600160a01b0267ffffffffffffffff60a01b19909216919091179055604080518181526021918101919091527f6167656e7445786974417661696c61626c6554696d656c6f636b5365636f6e646060820152607360f81b60808201526020810183905260008051602061567e8339815191529060a0016106bd565b6122dc613cb4565b6122e4613d1d565b60006122ee614129565b604051637f4fcaa960e01b81526001600160a01b03848116600483015291925090821690637f4fcaa990602401600060405180830381600087803b15801561233557600080fd5b505af1158015612349573d6000803e3d6000fd5b5050604080518181526019918101919091527f636c65616e7570426c6f636b4e756d6265724d616e616765720000000000000060608201526001600160a01b038516602082015260008051602061565e833981519152925060800190506106bd565b6123b3613cb4565b6123bb613d1d565b60006123c5613dff565b9050603c8210156123e85760405162461bcd60e51b8152600401610804906152b5565b6123f182613e23565b6013820180546001600160401b0392909216600160c01b026001600160c01b03909216919091179055604080518181526025918101919091527f6167656e7454696d656c6f636b65644f7065726174696f6e57696e646f775365606082015264636f6e647360d81b60808201526020810183905260008051602061567e8339815191529060a0016106bd565b612485613cb4565b61248d613d1d565b6000612497613dff565b6006810180546001600160a01b0319166001600160a01b03851690811790915560408051818152600991810191909152681dda1a5d195b1a5cdd60ba1b6060820152602081019190915290915060008051602061565e833981519152906080016106bd565b612504613cb4565b61250c613d1d565b6000612516613dff565b9050600082116125385760405162461bcd60e51b8152600401610804906150bb565b601481015461255890600160201b90046001600160401b03166002614fd4565b6001600160401b03168211156125805760405162461bcd60e51b8152600401610804906150e3565b60148101546125a190600290600160201b90046001600160401b0316615123565b6001600160401b03168210156125c95760405162461bcd60e51b815260040161080490615149565b6125d282613e23565b6014820180546001600160401b0392909216600160201b026bffffffffffffffff000000001990921691909117905560408051818152601691810191909152756c69717569646174696f6e537465705365636f6e647360501b60608201526020810183905260008051602061567e833981519152906080016106bd565b612657613cb4565b61265f613d1d565b6000612669613dff565b90506000821161268b5760405162461bcd60e51b8152600401610804906150bb565b6127108211156126ad5760405162461bcd60e51b8152600401610804906151a6565b600e8101546126c890600160401b900461ffff166004615173565b61ffff168211156126eb5760405162461bcd60e51b81526004016108049061505f565b600e81015461270790600490600160401b900461ffff16615191565b61ffff1682101561272a5760405162461bcd60e51b81526004016108049061508d565b61273382613f0c565b600e8201805461ffff92909216600160401b0261ffff60401b199092169190911790556040805181815260119181019190915270726564656d7074696f6e4665654249505360781b60608201526020810183905260008051602061567e833981519152906080016106bd565b6127a7613cb4565b6127af613d1d565b60006127b9613dff565b9050600082116127db5760405162461bcd60e51b8152600401610804906150bb565b60188101546127fa906201000090046001600160401b03166004614fd4565b61280590603c614fff565b6001600160401b031682111561282d5760405162461bcd60e51b8152600401610804906150e3565b601881015461284d906004906201000090046001600160401b0316615123565b6001600160401b03168210156128755760405162461bcd60e51b815260040161080490615149565b61287e82613e23565b6018820180546001600160401b0392909216620100000269ffffffffffffffff000019909216919091179055604080518181526024918101919091527f72656a656374526564656d7074696f6e5265717565737457696e646f775365636060820152636f6e647360e01b60808201526020810183905260008051602061567e8339815191529060a0016106bd565b612914613cb4565b61291c613d1d565b6000612926613dff565b6013810154909150612942906001600160401b03166004614fd4565b61294f9062015180614fff565b6001600160401b031682111561296457600080fd5b61296d82613e23565b60138201805467ffffffffffffffff19166001600160401b039290921691909117905560408051818152601d918101919091527f6167656e744665654368616e676554696d656c6f636b5365636f6e647300000060608201526020810183905260008051602061567e833981519152906080016106bd565b6129ed613cb4565b6129f5613d1d565b60006129ff613dff565b905060008211612a215760405162461bcd60e51b8152600401610804906150bb565b600d810154612a3a906001600160401b0316600a614fd4565b6001600160401b0316821115612a925760405162461bcd60e51b815260206004820152601960248201527f6c6f742073697a6520696e63726561736520746f6f20626967000000000000006044820152606401610804565b600d810154612aac90600a906001600160401b0316615123565b6001600160401b0316821015612b045760405162461bcd60e51b815260206004820152601960248201527f6c6f742073697a6520646563726561736520746f6f20626967000000000000006044820152606401610804565b600d810154600160581b90046001600160401b03161580612b395750600d810154600160581b90046001600160401b03168211155b612b855760405162461bcd60e51b815260206004820181905260248201527f6c6f742073697a6520626967676572207468616e206d696e74696e67206361706044820152606401610804565b612b8e82613e23565b600d8201805467ffffffffffffffff19166001600160401b039290921691909117905560408051818152600a91810191909152696c6f7453697a65414d4760b01b60608201526020810183905260008051602061567e833981519152906080016106bd565b612bfb613cb4565b612c03613d1d565b6000612c0d613dff565b9050811580612c295750600d8101546001600160401b03168210155b612c455760405162461bcd60e51b8152600401610804906152b5565b612c4e82613e23565b81600d01600b6101000a8154816001600160401b0302191690836001600160401b0316021790555060008051602061567e833981519152826040516106bd91906040808252600d908201526c6d696e74696e67436170414d4760981b6060820152602081019190915260800190565b612cc5613cb4565b612ccd613d1d565b6000612cd7613dff565b90506001600160a01b038216612cff5760405162461bcd60e51b815260040161080490615026565b600a810180546001600160a01b0319166001600160a01b03841690811790915560408051818152600b918101919091526a383934b1b2a932b0b232b960a91b6060820152602081019190915260008051602061565e833981519152906080016106bd565b612d6b613cb4565b612d73613d1d565b6000612d7d613dff565b90506001600160a01b038216612da55760405162461bcd60e51b815260040161080490615026565b6007810180546001600160a01b0319166001600160a01b03841690811790915560408051818152601291810191909152716167656e744f776e6572526567697374727960701b6060820152602081019190915260008051602061565e833981519152906080016106bd565b612e18613cb4565b612e20613d1d565b6000612e2a613dff565b905060008211612e4c5760405162461bcd60e51b8152600401610804906150bb565b600c810154612e629063ffffffff1660026152de565b63ffffffff16821115612e875760405162461bcd60e51b8152600401610804906150e3565b600c810154612e9e9060029063ffffffff166152fe565b63ffffffff16821015612ec35760405162461bcd60e51b815260040161080490615149565b612ecc82613ea7565b600c8201805463ffffffff191663ffffffff92909216919091179055604080518181526012918101919091527161766572616765426c6f636b54696d654d5360701b60608201526020810183905260008051602061567e833981519152906080016106bd565b612f3a613cb4565b612f42613d1d565b6000612f4c613dff565b905060008211612f6e5760405162461bcd60e51b8152600401610804906150bb565b600f810154612f87906001600160801b031660046151d3565b6001600160801b0316821115612faf5760405162461bcd60e51b81526004016108049061505f565b600f810154612fc9906004906001600160801b0316615216565b6001600160801b0316821015612ff15760405162461bcd60e51b81526004016108049061508d565b612ffa8261401d565b600f820180546001600160801b0319166001600160801b039290921691909117905560408051818152601e918101919091527f636f6e6669726d6174696f6e42794f746865727352657761726455534435000060608201526020810183905260008051602061567e833981519152906080016106bd565b613079613cb4565b613081613d1d565b600061308b613dff565b9050600082116130ad5760405162461bcd60e51b8152600401610804906150bb565b6130b682613e23565b6011820180546001600160401b0392909216600160801b0267ffffffffffffffff60801b1990921691909117905560408051818152601a918101919091527f6d696e55706461746552657065617454696d655365636f6e647300000000000060608201526020810183905260008051602061567e833981519152906080016106bd565b613141613cb4565b613149613d1d565b6000613153613dff565b9050610e108211156131a75760405162461bcd60e51b815260206004820152601960248201527f636f6e6669726d6174696f6e2074696d6520746f6f20626967000000000000006044820152606401610804565b6131b082613e23565b60128201805467ffffffffffffffff19166001600160401b0392909216919091179055604080518181526029918101919091527f616e6e6f756e636564556e6465726c79696e67436f6e6669726d6174696f6e4d606082015268696e5365636f6e647360b81b60808201526020810183905260008051602061567e8339815191529060a0016106bd565b613242613cb4565b61324a613d1d565b6000613254613dff565b9050600082116132765760405162461bcd60e51b8152600401610804906150bb565b601081015461329790600160801b90046001600160401b0316610258614fff565b6001600160401b03168211156132bf5760405162461bcd60e51b8152600401610804906150e3565b6132c882613e23565b6010820180546001600160401b0392909216600160801b0267ffffffffffffffff60801b19909216919091179055604080518181526018918101919091527f7769746864726177616c576169744d696e5365636f6e6473000000000000000060608201526020810183905260008051602061567e833981519152906080016106bd565b613353613cb4565b61335b613d1d565b6000613365613dff565b90506127108211156133895760405162461bcd60e51b8152600401610804906151a6565b601881015461339d9061ffff166002615173565b6133a9906109c4615230565b61ffff168211156133cc5760405162461bcd60e51b8152600401610804906150e3565b60188101546133e19060029061ffff16615191565b61ffff168210156134045760405162461bcd60e51b815260040161080490615149565b61340d82613f0c565b60188201805461ffff191661ffff92909216919091179055604080518181526033918101919091527f72656a6563744f7243616e63656c436f6c6c61746572616c5265736572766174606082015272696f6e52657475726e466163746f724249505360681b60808201526020810183905260008051602061567e8339815191529060a0016106bd565b61349e613cb4565b6134a6613d1d565b60006134b0613dff565b90506001600160a01b0382166134d85760405162461bcd60e51b815260040161080490615026565b6004810180546001600160a01b0319166001600160a01b03841690811790915560408051818152601a918101919091527f636f6c6c61746572616c506f6f6c546f6b656e466163746f72790000000000006060820152602081019190915260008051602061565e833981519152906080016106bd565b613556613cb4565b61355e613d1d565b6000613568613dff565b9050611c208210156135bc5760405162461bcd60e51b815260206004820152601a60248201527f6d757374206265206174206c656173742074776f20686f7572730000000000006044820152606401610804565b6135c582613e23565b600e820180546001600160401b0392909216600160901b0267ffffffffffffffff60901b199092169190911790556040805181815260209181018290527f636f6e6669726d6174696f6e42794f746865727341667465725365636f6e6473606082015290810183905260008051602061567e833981519152906080016106bd565b61364e613cb4565b613656613d1d565b6000613660613dff565b90506001600160a01b0382166136885760405162461bcd60e51b815260040161080490615026565b6008810180546001600160a01b0319166001600160a01b03841690811790915560408051818152600f918101919091526e333231ab32b934b334b1b0ba34b7b760891b6060820152602081019190915260008051602061565e833981519152906080016106bd565b6136f8613cb4565b613700613d1d565b600061370a613dff565b600c8101549091506127109061372e90600160201b900463ffffffff1660046152de565b63ffffffff1661373e919061504c565b82111561377d5760405162461bcd60e51b815260206004820152600d60248201526c76616c756520746f6f2062696760981b6044820152606401610804565b61378682613ea7565b600c8201805463ffffffff92909216600160201b0267ffffffff000000001990921691909117905560408051818152601f918101919091527f6d696e74696e67506f6f6c486f6c64696e67735265717569726564424950530060608201526020810183905260008051602061567e833981519152906080016106bd565b61380b613cb4565b613813613d1d565b600061381d613dff565b90506138298383614147565b613837601582016000614cb7565b613845601682016000614cb7565b60005b83518110156138d5578160150161387785838151811061386a5761386a615315565b6020026020010151613ea7565b81546001810183556000928352602090922063ffffffff909116910155825160168301906138b19085908490811061386a5761386a615315565b8154600181810184556000938452602090932063ffffffff90921691015501613848565b507ff8df5a8f8fc0ea5cc0d8aff70643ac14b7353b936a843e23cb08ff282ba74739836040516139059190615367565b60405180910390a17ff8df5a8f8fc0ea5cc0d8aff70643ac14b7353b936a843e23cb08ff282ba7473982604051610b1b91906153ae565b613944613cb4565b61394c613d1d565b6000613956613dff565b9050600082116139785760405162461bcd60e51b8152600401610804906150bb565b6127108211156139bc5760405162461bcd60e51b815260206004820152600f60248201526e6d7573742062652062656c6f77203160881b6044820152606401610804565b600d8101546139d790600160401b900461ffff166002615173565b61ffff168211156139fa5760405162461bcd60e51b8152600401610804906150e3565b600d810154613a1690600290600160401b900461ffff16615191565b61ffff16821015613a395760405162461bcd60e51b815260040161080490615149565b613a4282613f0c565b600d8201805461ffff92909216600160401b0261ffff60401b19909216919091179055604080518181526018918101919091527f6d696e556e6465726c79696e674261636b696e6742495053000000000000000060608201526020810183905260008051602061567e833981519152906080016106bd565b613ac2613cb4565b613aca613d1d565b6000613ad4614129565b60405163f6a494af60e01b81526001600160a01b0384811660048301529192509082169063f6a494af90602401600060405180830381600087803b158015613b1b57600080fd5b505af1158015613b2f573d6000803e3d6000fd5b505060408051818152600f918101919091526e18db19585b995c90dbdb9d1c9858dd608a1b60608201526001600160a01b038516602082015260008051602061565e833981519152925060800190506106bd565b613b8b613cb4565b613b93613d1d565b6000613b9d613dff565b905060008211613bbf5760405162461bcd60e51b8152600401610804906150bb565b6011810154613bd8906001600160401b03166002614fd4565b6001600160401b0316821115613c005760405162461bcd60e51b8152600401610804906150e3565b6011810154613c1a906002906001600160401b0316615123565b6001600160401b0316821015613c425760405162461bcd60e51b815260040161080490615149565b613c4b82613e23565b60118201805467ffffffffffffffff19166001600160401b039290921691909117905560408051818152600e918101919091526d63636254696d655365636f6e647360901b60608201526020810183905260008051602061567e833981519152906080016106bd565b6000613cbe613dff565b80549091506001600160a01b03163314613d1a5760405162461bcd60e51b815260206004820152601d60248201527f6f6e6c79206173736574206d616e6167657220636f6e74726f6c6c65720000006044820152606401610804565b50565b7fc6aafbe0f74bbe68eec7559401d7d311a092b5c4d8feb0452323e4ba73d8d8d16000613d48613dff565b600080356001600160e01b031916808252602085905260409091205491925090801580613d9357506011830154613d8f90600160801b90046001600160401b03168261504c565b4210155b613ddf5760405162461bcd60e51b815260206004820152601c60248201527f746f6f20636c6f736520746f2070726576696f757320757064617465000000006044820152606401610804565b506001600160e01b03191660009081526020929092525060409020429055565b7f4f24f5c433db0962dac0d2c8b84197a6e6c7cc4e5d9ebe1916a1b6193da2f33a90565b60006001600160401b03821115613e8b5760405162461bcd60e51b815260206004820152602660248201527f53616665436173743a2076616c756520646f65736e27742066697420696e203660448201526534206269747360d01b6064820152608401610804565b5090565b6000613e9e8383612710614372565b90505b92915050565b600063ffffffff821115613e8b5760405162461bcd60e51b815260206004820152602660248201527f53616665436173743a2076616c756520646f65736e27742066697420696e203360448201526532206269747360d01b6064820152608401610804565b600061ffff821115613e8b5760405162461bcd60e51b815260206004820152602660248201527f53616665436173743a2076616c756520646f65736e27742066697420696e203160448201526536206269747360d01b6064820152608401610804565b7fec7e8c1c441439dd40959777f4c577ea0cd42fcc1dbe59d2bd0f5d9c55df8dc55460008051602061563e8339815191528054600092829161ffff909116908110613fbc57613fbc615315565b60009182526020909120600490910201546001600160a01b031692915050565b613fe4614cd5565b6000613ff0848461449a565b9050613ffb8161455d565b949350505050565b600061400e82614737565b905061401981614ba1565b5050565b60006001600160801b03821115613e8b5760405162461bcd60e51b815260206004820152602760248201527f53616665436173743a2076616c756520646f65736e27742066697420696e20316044820152663238206269747360c81b6064820152608401610804565b620151808211156140ca5760405162461bcd60e51b815260206004820152600e60248201526d0ecc2d8eaca40e8dede40d0d2ced60931b6044820152606401610804565b620151806103e86140db8386615402565b6140e59190615419565b11156141245760405162461bcd60e51b815260206004820152600e60248201526d0ecc2d8eaca40e8dede40d0d2ced60931b6044820152606401610804565b505050565b600080614134613dff565b600101546001600160a01b031692915050565b805182511461418c5760405162461bcd60e51b81526020600482015260116024820152701b195b99dd1a1cc81b9bdd08195c5d585b607a1b6044820152606401610804565b6001825110156141de5760405162461bcd60e51b815260206004820152601c60248201527f6174206c65617374206f6e6520666163746f72207265717569726564000000006044820152606401610804565b60005b8251811015614124576127108382815181106141ff576141ff615315565b6020026020010151116142495760405162461bcd60e51b8152602060048201526012602482015271666163746f72206e6f742061626f7665203160701b6044820152606401610804565b82818151811061425b5761425b615315565b602002602001015182828151811061427557614275615315565b602002602001015111156142dd5760405162461bcd60e51b815260206004820152602960248201527f7661756c7420636f6c6c61746572616c20666163746f722068696768657220746044820152681a185b881d1bdd185b60ba1b6064820152608401610804565b8015806143255750826142f160018361542d565b8151811061430157614301615315565b602002602001015183828151811061431b5761431b615315565b6020026020010151115b61436a5760405162461bcd60e51b8152602060048201526016602482015275666163746f7273206e6f7420696e6372656173696e6760501b6044820152606401610804565b6001016141e1565b60008082116143b65760405162461bcd60e51b815260206004820152601060248201526f4469766973696f6e206279207a65726f60801b6044820152606401610804565b836000036143c657506000614493565b838302838582816143d9576143d961510d565b04036143f7578281816143ee576143ee61510d565b04915050614493565b5060006144048386615419565b905060006144128487615440565b905060006144208587615419565b9050600061442e8688615440565b90508561443b8285615402565b6144459190615419565b61444f8385615402565b6144598387615402565b886144648689615402565b61446e9190615402565b614478919061504c565b614482919061504c565b61448c919061504c565b9450505050505b9392505050565b600060008051602061563e833981519152817fec7e8c1c441439dd40959777f4c577ea0cd42fcc1dbe59d2bd0f5d9c55df8db7816144d88787614c2c565b8152602001908152602001600020549050600081116145295760405162461bcd60e51b815260206004820152600d60248201526c3ab735b737bbb7103a37b5b2b760991b6044820152606401610804565b8161453560018361542d565b8154811061454557614545615315565b90600052602060002090600402019250505092915050565b614565614cd5565b60408051610140810190915282548190600160a01b900460ff16600281111561459057614590615454565b815283546001600160a01b038116602083015260ff600160a81b8204811660408401526001600160401b03600160b01b8304166060840152600160f01b909104161515608082015260018401805460a0909201916145ed9061546a565b80601f01602080910402602001604051908101604052809291908181526020018280546146199061546a565b80156146665780601f1061463b57610100808354040283529160200191614666565b820191906000526020600020905b81548152906001019060200180831161464957829003601f168201915b5050505050815260200183600201805461467f9061546a565b80601f01602080910402602001604051908101604052809291908181526020018280546146ab9061546a565b80156146f85780601f106146cd576101008083540402835291602001916146f8565b820191906000526020600020905b8154815290600101906020018083116146db57829003601f168201915b505050918352505060039093015463ffffffff8082166020860152600160201b820481166040860152600160401b909104166060909301929092525090565b602081015160009060008051602061563e833981519152906001600160a01b03166147915760405162461bcd60e51b815260206004820152600a602482015269746f6b656e207a65726f60b01b6044820152606401610804565b60006147a584600001518560200151614c2c565b6000818152600184016020526040902054909150156147fd5760405162461bcd60e51b8152602060048201526014602482015273746f6b656e20616c72656164792065786973747360601b6044820152606401610804565b60608401511561484f5760405162461bcd60e51b815260206004820152601b60248201527f63616e6e6f7420616464206465707265636174656420746f6b656e00000000006044820152606401610804565b600084610100015161271010801561487057508460e0015185610100015111155b801561488557508461012001518560e0015111155b9050806148d45760405162461bcd60e51b815260206004820152601960248201527f696e76616c696420636f6c6c61746572616c20726174696f73000000000000006044820152606401610804565b82546040805161014081019091526020808801516001600160a01b031682528751869291820190600281111561490c5761490c615454565b815260200161491e8960400151614c56565b60ff1681526020016149338960600151613e23565b6001600160401b031681526020018860800151151581526020018860a0015181526020018860c00151815260200161496e8960e00151613ea7565b63ffffffff168152602001614987896101000151613ea7565b63ffffffff1681526020016149a0896101200151613ea7565b63ffffffff16905281546001810183556000928352602092839020825160049092020180546001600160a01b031981166001600160a01b03909316928317825593830151929390929183916001600160a81b03191617600160a01b836002811115614a0d57614a0d615454565b021790555060408201518154606084015160808501511515600160f01b0260ff60f01b196001600160401b03909216600160b01b0267ffffffffffffffff60b01b1960ff909516600160a81b029490941668ffffffffffffffffff60a81b1990931692909217929092179190911617815560a08201516001820190614a9290826154f4565b5060c08201516002820190614aa790826154f4565b5060e0820151600390910180546101008401516101209094015163ffffffff908116600160401b026bffffffff000000000000000019958216600160201b0267ffffffffffffffff1990931691909416171792909216179055614b0b81600161504c565b600084815260018601602052604090205585517fbef4c272617e8773ee6209dd5f05e50ca5be37232b0c94cb8439d8a56bfdb7ce906002811115614b5157614b51615454565b8760200151886040015189608001518a60a001518b60c001518c60e001518d61010001518e6101200151604051614b90999897969594939291906155b3565b60405180910390a195945050505050565b60008051602061563e8339815191528054600090829084908110614bc757614bc7615315565b60009182526020909120600490910201905060018154600160a01b900460ff166002811115614bf857614bf8615454565b14614c0557614c05615627565b614c0e83613f0c565b600f92909201805461ffff191661ffff909316929092179091555050565b6000816001600160a01b031660a0846002811115614c4c57614c4c615454565b901b179392505050565b600060ff821115613e8b5760405162461bcd60e51b815260206004820152602560248201527f53616665436173743a2076616c756520646f65736e27742066697420696e2038604482015264206269747360d81b6064820152608401610804565b5080546000825590600052602060002090810190613d1a9190614d34565b604080516101408101909152806000815260200160006001600160a01b03168152602001600081526020016000815260200160001515815260200160608152602001606081526020016000815260200160008152602001600081525090565b5b80821115613e8b5760008155600101614d35565b600060208284031215614d5b57600080fd5b5035919050565b6001600160a01b0381168114613d1a57600080fd5b600060208284031215614d8957600080fd5b813561449381614d62565b60008060408385031215614da757600080fd5b50508035926020909101359150565b60008060408385031215614dc957600080fd5b8235614dd481614d62565b91506020830135614de481614d62565b809150509250929050565b634e487b7160e01b600052604160045260246000fd5b604051601f8201601f191681016001600160401b0381118282101715614e2d57614e2d614def565b604052919050565b60008060408385031215614e4857600080fd5b8235614e5381614d62565b91506020838101356001600160401b0380821115614e7057600080fd5b818601915086601f830112614e8457600080fd5b813581811115614e9657614e96614def565b614ea8601f8201601f19168501614e05565b91508082528784828501011115614ebe57600080fd5b80848401858401376000848284010152508093505050509250929050565b600082601f830112614eed57600080fd5b813560206001600160401b03821115614f0857614f08614def565b8160051b614f17828201614e05565b9283528481018201928281019087851115614f3157600080fd5b83870192505b84831015614f5057823582529183019190830190614f37565b979650505050505050565b60008060408385031215614f6e57600080fd5b82356001600160401b0380821115614f8557600080fd5b614f9186838701614edc565b93506020850135915080821115614fa757600080fd5b50614fb485828601614edc565b9150509250929050565b634e487b7160e01b600052601160045260246000fd5b6001600160401b03818116838216028082169190828114614ff757614ff7614fbe565b505092915050565b6001600160401b0381811683821601908082111561501f5761501f614fbe565b5092915050565b6020808252600c908201526b61646472657373207a65726f60a01b604082015260600190565b80820180821115613ea157613ea1614fbe565b60208082526014908201527366656520696e63726561736520746f6f2062696760601b604082015260600190565b60208082526014908201527366656520646563726561736520746f6f2062696760601b604082015260600190565b6020808252600e908201526d63616e6e6f74206265207a65726f60901b604082015260600190565b60208082526010908201526f696e63726561736520746f6f2062696760801b604082015260600190565b634e487b7160e01b600052601260045260246000fd5b60006001600160401b038084168061513d5761513d61510d565b92169190910492915050565b60208082526010908201526f646563726561736520746f6f2062696760801b604082015260600190565b61ffff818116838216028082169190828114614ff757614ff7614fbe565b600061ffff8084168061513d5761513d61510d565b6020808252601390820152720c4d2e0e640ecc2d8eaca40e8dede40d0d2ced606b1b604082015260600190565b6001600160801b03818116838216028082169190828114614ff757614ff7614fbe565b6001600160801b0381811683821601908082111561501f5761501f614fbe565b60006001600160801b038084168061513d5761513d61510d565b61ffff81811683821601908082111561501f5761501f614fbe565b6000815180845260005b8181101561527157602081850181015186830182015201615255565b506000602082860101526020601f19601f83011685010191505092915050565b6001600160a01b0383168152604060208201819052600090613ffb9083018461524b565b6020808252600f908201526e1d985b1d59481d1bdbc81cdb585b1b608a1b604082015260600190565b63ffffffff818116838216028082169190828114614ff757614ff7614fbe565b600063ffffffff8084168061513d5761513d61510d565b634e487b7160e01b600052603260045260246000fd5b60008151808452602080850194506020840160005b8381101561535c57815187529582019590820190600101615340565b509495945050505050565b60408152601f60408201527f6c69717569646174696f6e436f6c6c61746572616c466163746f7242495053006060820152608060208201526000613e9e608083018461532b565b60408152602460408201527f6c69717569646174696f6e466163746f725661756c74436f6c6c61746572616c6060820152634249505360e01b608082015260a060208201526000613e9e60a083018461532b565b8082028115828204841417613ea157613ea1614fbe565b6000826154285761542861510d565b500490565b81810381811115613ea157613ea1614fbe565b60008261544f5761544f61510d565b500690565b634e487b7160e01b600052602160045260246000fd5b600181811c9082168061547e57607f821691505b60208210810361549e57634e487b7160e01b600052602260045260246000fd5b50919050565b601f821115614124576000816000526020600020601f850160051c810160208610156154cd5750805b601f850160051c820191505b818110156154ec578281556001016154d9565b505050505050565b81516001600160401b0381111561550d5761550d614def565b6155218161551b845461546a565b846154a4565b602080601f831160018114615556576000841561553e5750858301515b600019600386901b1c1916600185901b1785556154ec565b600085815260208120601f198616915b8281101561558557888601518255948401946001909101908401615566565b50858210156155a35787850151600019600388901b60f8161c191681555b5050505050600190811b01905550565b60ff8a1681526001600160a01b0389166020820152604081018890528615156060820152610120608082018190526000906155f08382018961524b565b905082810360a0840152615604818861524b565b60c0840196909652505060e0810192909252610100909101529695505050505050565b634e487b7160e01b600052600160045260246000fdfeec7e8c1c441439dd40959777f4c577ea0cd42fcc1dbe59d2bd0f5d9c55df8db6cb274d507e7a9978f5a8c15929fd58c472b8addc1a9bba454b0c0a49a05c9152ac1fb27759c1e6f9e4a24d4f8c320be6091becb03cea5a95398fa220fca4ac0ea264697066735822122003a937e66dab886cf75f28137e7a1c8874b333e14cd71a9bda14b85741b1cc5a64736f6c63430008170033",
  "linkReferences": {},
  "deployedLinkReferences": {}
}