{
  "_format": "hh-sol-artifact-1",
  "contractName": "SettingsManagementFacet",
  "sourceName": "contracts/assetManager/facets/SettingsManagementFacet.sol",
  "abi": [
    {
      "anonymous": false,
      "inputs": [
        {
          "indexed": false,
          "internalType": "uint8",
          "name": "collateralClass",
          "type": "uint8"
        },
        {
          "indexed": false,
          "internalType": "address",
          "name": "token",
          "type": "address"
        },
        {
          "indexed": false,
          "internalType": "uint256",
          "name": "decimals",
          "type": "uint256"
        },
        {
          "indexed": false,
          "internalType": "bool",
          "name": "directPricePair",
          "type": "bool"
        },
        {
          "indexed": false,
          "internalType": "string",
          "name": "assetFtsoSymbol",
          "type": "string"
        },
        {
          "indexed": false,
          "internalType": "string",
          "name": "tokenFtsoSymbol",
          "type": "string"
        },
        {
          "indexed": false,
          "internalType": "uint256",
          "name": "minCollateralRatioBIPS",
          "type": "uint256"
        },
        {
          "indexed": false,
          "internalType": "uint256",
          "name": "ccbMinCollateralRatioBIPS",
          "type": "uint256"
        },
        {
          "indexed": false,
          "internalType": "uint256",
          "name": "safetyMinCollateralRatioBIPS",
          "type": "uint256"
        }
      ],
      "name": "CollateralTypeAdded",
      "type": "event"
    },
    {
      "anonymous": false,
      "inputs": [
        {
          "indexed": false,
          "internalType": "string",
          "name": "name",
          "type": "string"
        },
        {
          "indexed": false,
          "internalType": "address",
          "name": "value",
          "type": "address"
        }
      ],
      "name": "ContractChanged",
      "type": "event"
    },
    {
      "anonymous": false,
      "inputs": [
        {
          "indexed": false,
          "internalType": "string",
          "name": "name",
          "type": "string"
        },
        {
          "indexed": false,
          "internalType": "uint256[]",
          "name": "value",
          "type": "uint256[]"
        }
      ],
      "name": "SettingArrayChanged",
      "type": "event"
    },
    {
      "anonymous": false,
      "inputs": [
        {
          "indexed": false,
          "internalType": "string",
          "name": "name",
          "type": "string"
        },
        {
          "indexed": false,
          "internalType": "uint256",
          "name": "value",
          "type": "uint256"
        }
      ],
      "name": "SettingChanged",
      "type": "event"
    },
    {
      "inputs": [
        {
          "internalType": "bytes32",
          "name": "_method",
          "type": "bytes32"
        },
        {
          "internalType": "bytes",
          "name": "_params",
          "type": "bytes"
        }
      ],
      "name": "updateSettings",
      "outputs": [],
      "stateMutability": "nonpayable",
      "type": "function"
    }
  ],
  "bytecode": "0x608060405234801561001057600080fd5b5061521d806100206000396000f3fe608060405234801561001057600080fd5b506004361061002b5760003560e01c8063f19d3c0614610030575b600080fd5b61004361003e366004614845565b610045565b005b61004d61005d565b6100588383836100cb565b505050565b6000610067610a4d565b80549091506001600160a01b031633146100c85760405162461bcd60e51b815260206004820152601d60248201527f6f6e6c79206173736574206d616e6167657220636f6e74726f6c6c657200000060448201526064015b60405180910390fd5b50565b7f98d4740d142b60ed8b5406840c42cc27af11aa519fed871c9276ea711331454383036100fc576100588282610a71565b7f69b89e7ecda74b156ebb6553c166323512e616eb5e0a3d77b3e376086c891f7e83036101365761012c83610baf565b6100588282610c76565b7f68f224ba1b1345ef831341b77bb145c7ff885cf1c8ce6f35dfa089079d38dd1883036101705761016683610baf565b6100588282610dff565b7f854cff2f06134808792749e4c9e6efde176603ff5656cbb2cda605578a5e6dc283036101aa576101a083610baf565b610058828261103e565b7fcda4c541af241973f55d9f04122488b0e8bb0a374625422fb564fd2a2f233af583036101e4576101da83610baf565b61005882826110c7565b7f13d6a5e25fb62370430ae75c7288645ab675293a216337c6579449dae495ca07830361021e5761021483610baf565b6100588282611174565b7f6dd3d5890781dccec88a387799c9132d0552124a770d12680fb289cac28d77c483036102585761024e83610baf565b6100588282611220565b7fdf06ea96f34c4b924cb722cc7b502fff4895bddce12b805d5778a9cd3ae2241383036102925761028883610baf565b61005882826112d0565b7fbe06971979bbc89a786ccfb7ab4127e6bab93518d7e34a3600219f74c02a912b83036102cc576102c283610baf565b6100588282611388565b7f89ef27d6045eca6b22da580f7a126a285ef62527e9553a8d9b632b0f5e26c3af8303610306576102fc83610baf565b610058828261142e565b7ff6a494af89ba3d71863492c5dfb4cdf1cf9788c79fdbc3d6252210ab5986bf1583036103405761033683610baf565b61005882826114d8565b7f7f4fcaa925ba078b2d946f102707922a4ebb16164b6c67bc75e440b8a31e2df3830361037a5761037083610baf565b61005882826115a6565b7f6366436fb2d229fea0e79c2da2a92741a06bc993fed0f7a8d524f291778bde6f83036103b4576103aa83610baf565b6100588282611679565b7fd57d25c52236f43d429cb6932e0bdfb00c2fc7ee9aaddccd2ccee1b24a90e72483036103ee576103e483610baf565b6100588282611761565b7faf5f2b98f83ec754c2468c6f795cd14e63ea828a68b271c17461d623661e8d0c83036104285761041e83610baf565b6100588282611829565b7ff35653f1a2f3028179f583cb5399707d5358006fa6c9242ac649d0a1336c1a5083036104625761045883610baf565b6100588282611a37565b7f5ac5c11e3be51a3b2f1c18cb30a2917c10f24fdee614a595d151c820e854756d830361049c5761049283610baf565b6100588282611bb5565b7f9db27f55d4910a7a49292d8345f039e6266f7dc44269477125dfdf9c0a20bda283036104d6576104cc83610baf565b6100588282611d37565b7f1529264fcbf2bf5cf598b2450b293923f6c0d9f9cdf587da5a1c31f05102bc0783036105105761050683610baf565b6100588282611ead565b7fdfc5941748b75983d6817917ceea4fb882f2d1482879fb7842e0c15d7c0f2a81830361054a5761054083610baf565b6100588282612141565b7fd074339531c0c426f419e40c630fba3e9e49d8640b542935b487a324e3fa647683036105845761057a83610baf565b6100588282612239565b7f47814c0626f9db4541c2626f398ce27bbf58b6f2fbe51e47c992fc40c99c2f1483036105be576105b483610baf565b6100588282612378565b7fdd64bd048b711cc14ce05eb540d2dbb9001521d5365cdac63643f90be13128a783036105f8576105ee83610baf565b61005882826124a7565b7ff9b9b44651521fa32e45f527b7392825f165c03571fd1485e7dc0e2a3e460a6f83036106325761062883610baf565b61005882826125b8565b7f2779aaaa0a4aba6761d05634679205836858e31b3d82fff3dc5a6b4b1f32c1a1830361066c5761066283610baf565b61005882826126e9565b7fcfcb991d8ac2c7b21f03e1f09ee4750b1a3a5353cde79bdb89bf474ca9691ea183036106a65761069c83610baf565b61005882826127d7565b7f568ae58ed29d3123b07c83375be93831571baa4efa6eca219a665b6edcce3bd283036106e0576106d683610baf565b61005882826128f9565b7fdb8617d6427f99a93c9a0c29cea5de59ff5e46d6b670defb2621832b9ecf8e73830361071a5761071083610baf565b6100588282612a4d565b7fe68f3fbf4ad77dbdde396018458d8aba3b95af4072435bca39d1d730c5c6e51383036107545761074a83610baf565b6100588282612b4e565b7f68b8152118efa822e4b6e874b05eeb80cae7a7a0fb186f4744ea3534248a5039830361078e5761078483610baf565b6100588282612c61565b7f050f443969b2678def88f73499f65fc20c63f7ef1434527c0e4805bf4e954d5b83036107c8576107be83610baf565b6100588282612d2b565b7f6b38c643b02cdcd56e61e494f9e80a66cd537c2f5df81ff1af1c8f6f6d74905c8303610802576107f883610baf565b6100588282612dd3565b7f7b6fa76214e7e1b3f45e7f23b6e12f9ac09b96582463d5435874896fdc1c3f10830361083c5761083283610baf565b6100588282612ea3565b7fad74c72d3a9ecc81c30dce111cf9e9f725496a3d56b15b1059731c76a580380383036108765761086c83610baf565b6100588282612f98565b7f2c06abf041f687c7911db2166ff51cba76ef5194c9270ad01a2ef5ce5056b6c483036108b0576108a683610baf565b6100588282613071565b7f0a9ad520d11738fdd8de340da5afb4068153f96920f73f2c89978a6ae23601b683036108ea576108e083610baf565b6100588282613168565b7f812e7d2eb4db05f34e7cb0393794c3db6c355247813ffd0c917c681d1be46e5883036109245761091a83610baf565b6100588282613261565b7f6ad6fb4f7ff728761a98a62a2175c5aacbbd751a147eca6167583019ca19e6f4830361095e5761095483610baf565b6100588282613333565b7f8d94510abc431bcb13b2a3c387606705f4fa6805ce72c0ae8a76f02a2e60990a83036109985761098e83610baf565b61005882826133f5565b7fec516d24a199316200456bf66f692cd33011e2fd0ccd562ee901c546dc0b40c583036109d2576109c883610baf565b6100588282613548565b7f75d362211db467ad9cec5c8d93b9ad3ba2810e47ba8085b8fcaf4c437e75f58c8303610a0c57610a0283610baf565b6100588282613684565b60405162461bcd60e51b81526020600482015260166024820152751d5c19185d194e881a5b9d985b1a59081b595d1a1bd960521b60448201526064016100bf565b7f4f24f5c433db0962dac0d2c8b84197a6e6c7cc4e5d9ebe1916a1b6193da2f33a90565b6000610a7b610a4d565b9050600080610a8c848601866148d5565b845491935091506001600160a01b03808416911614610b0f5782546001600160a01b0383166001600160a01b031990911681178455604080518181526016818301527530b9b9b2ba26b0b730b3b2b921b7b73a3937b63632b960511b60608201526020810192909252516000805160206151a88339815191529181900360800190a15b6000610b19613928565b9050816001600160a01b0316816001600160a01b031614610ba7576000610b41600183613995565b600060608201526001600160a01b03841660208201529050610b62816139be565b60408051818152600481830152631dd3985d60e21b60608201526001600160a01b038516602082015290516000805160206151a88339815191529181900360800190a1505b505050505050565b7fc6aafbe0f74bbe68eec7559401d7d311a092b5c4d8feb0452323e4ba73d8d8d16000610bda610a4d565b600084815260208490526040902054909150801580610c1757506011820154610c1390600160801b90046001600160401b031682614924565b4210155b610c635760405162461bcd60e51b815260206004820152601c60248201527f746f6f20636c6f736520746f2070726576696f7573207570646174650000000060448201526064016100bf565b5050600091825260205260409020429055565b6000610c80610a4d565b9050600080610c9184860186614937565b9150915060008111610cb55760405162461bcd60e51b81526004016100bf90614959565b60008211610cd55760405162461bcd60e51b81526004016100bf90614959565b600c830154610ced908390839063ffffffff166139d8565b610cf682613a74565b83600d0160136101000a8154816001600160401b0302191690836001600160401b03160217905550610d2781613a74565b600e8401805467ffffffffffffffff19166001600160401b039290921691909117905560408051818152601a818301527f756e6465726c79696e67426c6f636b73466f725061796d656e7400000000000060608201526020810184905290516000805160206151c8833981519152916080908290030190a160408051818152601b918101919091527f756e6465726c79696e675365636f6e6473466f725061796d656e7400000000006060820152602081018290526000805160206151c8833981519152906080015b60405180910390a15050505050565b6000610e09610a4d565b9050600080610e1a84860186614937565b60108501549193509150610e38906001600160801b03166004614981565b610e4b9068056bc75e2d631000006149ac565b6001600160801b0316821115610e735760405162461bcd60e51b81526004016100bf906149d3565b6010830154610e8d906004906001600160801b0316614a13565b6001600160801b0316821015610eb55760405162461bcd60e51b81526004016100bf90614a39565b600f830154610ed090600160901b900461ffff166004614a63565b610edb906064614a81565b61ffff16811115610efe5760405162461bcd60e51b81526004016100bf906149d3565b600f830154610f1a90600490600160901b900461ffff16614a9c565b61ffff16811015610f3d5760405162461bcd60e51b81526004016100bf90614a39565b610f4682613ae0565b6010840180546001600160801b0319166001600160801b0392909216919091179055610f7181613b49565b600f8401805461ffff60901b1916600160901b61ffff939093169290920291909117905560408051818152601a818301527f7061796d656e744368616c6c656e67655265776172645553443500000000000060608201526020810184905290516000805160206151c88339815191529181900360800190a160408051818152601a918101919091527f7061796d656e744368616c6c656e6765526577617264424950530000000000006060820152602081018290526000805160206151c883398151915290608001610df0565b6000611048610a4d565b9050600061105883850185614ab1565b6006830180546001600160a01b0319166001600160a01b03831690811790915560408051818152600991810191909152681dda1a5d195b1a5cdd60ba1b606082015260208101919091529091506000805160206151a8833981519152906080015b60405180910390a150505050565b60006110d1610a4d565b905060006110e183850185614ab1565b90506001600160a01b0381166111095760405162461bcd60e51b81526004016100bf90614ace565b6007820180546001600160a01b0319166001600160a01b03831690811790915560408051818152601291810191909152716167656e744f776e6572526567697374727960701b606082015260208101919091526000805160206151a8833981519152906080016110b9565b600061117e610a4d565b9050600061118e83850185614ab1565b90506001600160a01b0381166111b65760405162461bcd60e51b81526004016100bf90614ace565b6002820180546001600160a01b0319166001600160a01b03831690811790915560408051818152601191810191909152706167656e745661756c74466163746f727960781b606082015260208101919091526000805160206151a8833981519152906080016110b9565b600061122a610a4d565b9050600061123a83850185614ab1565b90506001600160a01b0381166112625760405162461bcd60e51b81526004016100bf90614ace565b6003820180546001600160a01b0319166001600160a01b0383169081179091556040805181815260159181019190915274636f6c6c61746572616c506f6f6c466163746f727960581b606082015260208101919091526000805160206151a8833981519152906080016110b9565b60006112da610a4d565b905060006112ea83850185614ab1565b90506001600160a01b0381166113125760405162461bcd60e51b81526004016100bf90614ace565b6004820180546001600160a01b0319166001600160a01b03831690811790915560408051818152601a918101919091527f636f6c6c61746572616c506f6f6c546f6b656e466163746f7279000000000000606082015260208101919091526000805160206151a8833981519152906080016110b9565b6000611392610a4d565b905060006113a283850185614ab1565b90506001600160a01b0381166113ca5760405162461bcd60e51b81526004016100bf90614ace565b600a820180546001600160a01b0319166001600160a01b03831690811790915560408051818152600b918101919091526a383934b1b2a932b0b232b960a91b606082015260208101919091526000805160206151a8833981519152906080016110b9565b6000611438610a4d565b9050600061144883850185614ab1565b90506001600160a01b0381166114705760405162461bcd60e51b81526004016100bf90614ace565b6008820180546001600160a01b0319166001600160a01b03831690811790915560408051818152600f918101919091526e39b1a83937b7b32b32b934b334b2b960891b606082015260208101919091526000805160206151a8833981519152906080016110b9565b60006114e682840184614ab1565b90506114f0613bac565b60405163f6a494af60e01b81526001600160a01b038381166004830152919091169063f6a494af90602401600060405180830381600087803b15801561153557600080fd5b505af1158015611549573d6000803e3d6000fd5b505060408051818152600f918101919091526e18db19585b995c90dbdb9d1c9858dd608a1b60608201526001600160a01b03841660208201526000805160206151a8833981519152925060800190505b60405180910390a1505050565b60006115b482840184614ab1565b90506115be613bac565b604051637f4fcaa960e01b81526001600160a01b0383811660048301529190911690637f4fcaa990602401600060405180830381600087803b15801561160357600080fd5b505af1158015611617573d6000803e3d6000fd5b5050604080518181526019918101919091527f636c65616e7570426c6f636b4e756d6265724d616e616765720000000000000060608201526001600160a01b03841660208201526000805160206151a883398151915292506080019050611599565b60008061168883850185614b3a565b90925090506001600160a01b0382166116b35760405162461bcd60e51b81526004016100bf90614ace565b6116bb613bac565b6001600160a01b0316634f1ef28683836040518363ffffffff1660e01b81526004016116e8929190614c27565b600060405180830381600087803b15801561170257600080fd5b505af1158015611716573d6000803e3d6000fd5b5050604080518181526006918101919091526519905cdcd95d60d21b60608201526001600160a01b03851660208201526000805160206151a8833981519152925060800190506110b9565b600061176b610a4d565b9050600061177b83850185614c53565b90506000811161179d5760405162461bcd60e51b81526004016100bf90614959565b6117a681613a74565b6011830180546001600160401b0392909216600160801b0267ffffffffffffffff60801b1990921691909117905560408051818152601a918101919091527f6d696e55706461746552657065617454696d655365636f6e64730000000000006060820152602081018290526000805160206151c8833981519152906080016110b9565b6000611833610a4d565b9050600061184383850185614c53565b9050600081116118655760405162461bcd60e51b81526004016100bf90614959565b600d82015461187e906001600160401b03166004614c6c565b6001600160401b03168111156118d65760405162461bcd60e51b815260206004820152601960248201527f6c6f742073697a6520696e63726561736520746f6f206269670000000000000060448201526064016100bf565b600d8201546118f0906004906001600160401b0316614c8f565b6001600160401b03168110156119485760405162461bcd60e51b815260206004820152601960248201527f6c6f742073697a6520646563726561736520746f6f206269670000000000000060448201526064016100bf565b600d820154600160581b90046001600160401b0316158061197d5750600d820154600160581b90046001600160401b03168111155b6119c95760405162461bcd60e51b815260206004820181905260248201527f6c6f742073697a6520626967676572207468616e206d696e74696e672063617060448201526064016100bf565b6119d281613a74565b600d8301805467ffffffffffffffff19166001600160401b039290921691909117905560408051818152600a91810191909152696c6f7453697a65414d4760b01b6060820152602081018290526000805160206151c8833981519152906080016110b9565b6000611a41610a4d565b90506000611a5183850185614c53565b905060008111611a735760405162461bcd60e51b81526004016100bf90614959565b612710811115611ab75760405162461bcd60e51b815260206004820152600f60248201526e6d7573742062652062656c6f77203160881b60448201526064016100bf565b600d820154611ad290600160401b900461ffff166002614a63565b61ffff16811115611af55760405162461bcd60e51b81526004016100bf906149d3565b600d820154611b1190600290600160401b900461ffff16614a9c565b61ffff16811015611b345760405162461bcd60e51b81526004016100bf90614a39565b611b3d81613b49565b600d8301805461ffff92909216600160401b0261ffff60401b19909216919091179055604080518181526018918101919091527f6d696e556e6465726c79696e674261636b696e674249505300000000000000006060820152602081018290526000805160206151c8833981519152906080016110b9565b6000611bbf610a4d565b90506000611bcf83850185614c53565b905060008111611bf15760405162461bcd60e51b81526004016100bf90614959565b612710811115611c395760405162461bcd60e51b81526020600482015260136024820152720c4d2e0e640ecc2d8eaca40e8dede40d0d2ced606b1b60448201526064016100bf565b600c820154611c5490600160401b900461ffff166004614a63565b61ffff16811115611c775760405162461bcd60e51b81526004016100bf90614ca9565b600c820154611c9390600490600160401b900461ffff16614a9c565b61ffff16811015611cb65760405162461bcd60e51b81526004016100bf90614cd7565b611cbf81613b49565b600c8301805461ffff92909216600160401b0261ffff60401b1990921691909117905560408051818152601c918101919091527f636f6c6c61746572616c5265736572766174696f6e46656542495053000000006060820152602081018290526000805160206151c8833981519152906080016110b9565b6000611d41610a4d565b90506000611d5183850185614c53565b905060008111611d735760405162461bcd60e51b81526004016100bf90614959565b612710811115611dbb5760405162461bcd60e51b81526020600482015260136024820152720c4d2e0e640ecc2d8eaca40e8dede40d0d2ced606b1b60448201526064016100bf565b600e820154611dd690600160401b900461ffff166004614a63565b61ffff16811115611df95760405162461bcd60e51b81526004016100bf90614ca9565b600e820154611e1590600490600160401b900461ffff16614a9c565b61ffff16811015611e385760405162461bcd60e51b81526004016100bf90614cd7565b611e4181613b49565b600e8301805461ffff92909216600160401b0261ffff60401b199092169190911790556040805181815260119181019190915270726564656d7074696f6e4665654249505360781b6060820152602081018290526000805160206151c8833981519152906080016110b9565b6000611eb7610a4d565b9050600080611ec884860186614937565b9092509050612710611eda8284614924565b11611f1c5760405162461bcd60e51b8152602060048201526012602482015271626970732076616c756520746f6f206c6f7760701b60448201526064016100bf565b600e830154611f3f9063ffffffff600160501b909104811690612ee090613bca16565b821115611f5e5760405162461bcd60e51b81526004016100bf90614ca9565b600e830154611f819063ffffffff600160501b90910481169061208d90613bca16565b821015611fa05760405162461bcd60e51b81526004016100bf90614cd7565b600e830154611fc39063ffffffff600160701b909104811690612ee090613bca16565b811115611fe25760405162461bcd60e51b81526004016100bf90614ca9565b600e8301546120059063ffffffff600160701b90910481169061208d90613bca16565b8110156120245760405162461bcd60e51b81526004016100bf90614cd7565b61202d82613be0565b600e8401805463ffffffff60501b1916600160501b63ffffffff939093169290920291909117905560408051818152602a818301527f726564656d7074696f6e44656661756c74466163746f725661756c74436f6c6c60608201526961746572616c4249505360b01b60808201526020810184905290516000805160206151c88339815191529181900360a00190a16120c581613be0565b600e8401805463ffffffff92909216600160701b0263ffffffff60701b1990921691909117905560408051818152601f918101919091527f726564656d7074696f6e44656661756c74466163746f72506f6f6c42495053006060820152602081018290526000805160206151c883398151915290608001610df0565b600061214b610a4d565b9050600061215b83850185614c53565b9050611c208110156121af5760405162461bcd60e51b815260206004820152601a60248201527f6d757374206265206174206c656173742074776f20686f75727300000000000060448201526064016100bf565b6121b881613a74565b600e830180546001600160401b0392909216600160901b0267ffffffffffffffff60901b199092169190911790556040805181815260209181018290527f636f6e6669726d6174696f6e42794f746865727341667465725365636f6e647360608201529081018290526000805160206151c8833981519152906080016110b9565b6000612243610a4d565b9050600061225383850185614c53565b9050600081116122755760405162461bcd60e51b81526004016100bf90614959565b600f82015461228e906001600160801b03166004614981565b6001600160801b03168111156122b65760405162461bcd60e51b81526004016100bf90614ca9565b600f8201546122d0906004906001600160801b0316614a13565b6001600160801b03168110156122f85760405162461bcd60e51b81526004016100bf90614cd7565b61230181613ae0565b600f830180546001600160801b0319166001600160801b039290921691909117905560408051818152601e918101919091527f636f6e6669726d6174696f6e42794f74686572735265776172645553443500006060820152602081018290526000805160206151c8833981519152906080016110b9565b6000612382610a4d565b9050600061239283850185614c53565b9050600081116123b45760405162461bcd60e51b81526004016100bf90614959565b600f8201546123cf90600160801b900461ffff166002614a63565b61ffff168111156123f25760405162461bcd60e51b81526004016100bf906149d3565b600f82015461240e90600490600160801b900461ffff16614a9c565b61ffff168110156124315760405162461bcd60e51b81526004016100bf90614a39565b61243a81613b49565b600f8301805461ffff92909216600160801b0261ffff60801b1990921691909117905560408051818152601291810191909152716d617852656465656d65645469636b65747360701b6060820152602081018290526000805160206151c8833981519152906080016110b9565b60006124b1610a4d565b905060006124c183850185614c53565b9050600081116124e35760405162461bcd60e51b81526004016100bf90614959565b601082015461250490600160801b90046001600160401b0316610258614d05565b6001600160401b031681111561252c5760405162461bcd60e51b81526004016100bf906149d3565b61253581613a74565b6010830180546001600160401b0392909216600160801b0267ffffffffffffffff60801b19909216919091179055604080518181526018918101919091527f7769746864726177616c576169744d696e5365636f6e647300000000000000006060820152602081018290526000805160206151c8833981519152906080016110b9565b60006125c2610a4d565b905060006125d283850185614c53565b9050600081116125f45760405162461bcd60e51b81526004016100bf90614959565b601182015461260d906001600160401b03166002614c6c565b6001600160401b03168111156126355760405162461bcd60e51b81526004016100bf906149d3565b601182015461264f906002906001600160401b0316614c8f565b6001600160401b03168110156126775760405162461bcd60e51b81526004016100bf90614a39565b61268081613a74565b60118301805467ffffffffffffffff19166001600160401b039290921691909117905560408051818152600e918101919091526d63636254696d655365636f6e647360901b6060820152602081018290526000805160206151c8833981519152906080016110b9565b60006126f3610a4d565b9050600061270383850185614c53565b90506201518081101561274b5760405162461bcd60e51b815260206004820152601060248201526f1dda5b991bddc81d1bdbc81cdb585b1b60821b60448201526064016100bf565b61275481613a74565b6011830180546001600160401b0392909216600160401b0267ffffffffffffffff60401b19909216919091179055604080518181526018918101919091527f6174746573746174696f6e57696e646f775365636f6e647300000000000000006060820152602081018290526000805160206151c8833981519152906080016110b9565b60006127e1610a4d565b905060006127f183850185614c53565b9050600081116128135760405162461bcd60e51b81526004016100bf90614959565b600c8201546128299063ffffffff166002614d25565b63ffffffff1681111561284e5760405162461bcd60e51b81526004016100bf906149d3565b600c8201546128659060029063ffffffff16614d45565b63ffffffff1681101561288a5760405162461bcd60e51b81526004016100bf90614a39565b61289381613be0565b600c8301805463ffffffff191663ffffffff92909216919091179055604080518181526012918101919091527161766572616765426c6f636b54696d654d5360701b6060820152602081018290526000805160206151c8833981519152906080016110b9565b6000612903610a4d565b9050600061291383850185614c53565b9050600081116129355760405162461bcd60e51b81526004016100bf90614959565b601082015461295590600160c01b90046001600160401b03166002614c6c565b6001600160401b031681111561297d5760405162461bcd60e51b81526004016100bf90614ca9565b601082015461299e90600290600160c01b90046001600160401b0316614c8f565b6001600160401b03168110156129c65760405162461bcd60e51b81526004016100bf90614cd7565b6129cf81613a74565b6010830180546001600160401b0392909216600160c01b026001600160c01b03909216919091179055604080518181526019918101919091527f6d61785472757374656450726963654167655365636f6e6473000000000000006060820152602081018290526000805160206151c8833981519152906080016110b9565b6000612a57610a4d565b90506000612a6783850185614c53565b9050610e10811115612abb5760405162461bcd60e51b815260206004820152601960248201527f636f6e6669726d6174696f6e2074696d6520746f6f206269670000000000000060448201526064016100bf565b612ac481613a74565b60128301805467ffffffffffffffff19166001600160401b0392909216919091179055604080518181526029918101919091527f616e6e6f756e636564556e6465726c79696e67436f6e6669726d6174696f6e4d606082015268696e5365636f6e647360b81b6080820152602081018290526000805160206151c88339815191529060a0016110b9565b6000612b58610a4d565b90506000612b6883850185614c53565b600c83015490915061271090612b8c90600160201b900463ffffffff166004614d25565b63ffffffff16612b9c9190614924565b811115612bdb5760405162461bcd60e51b815260206004820152600d60248201526c76616c756520746f6f2062696760981b60448201526064016100bf565b612be481613be0565b600c8301805463ffffffff92909216600160201b0267ffffffff000000001990921691909117905560408051818152601f918101919091527f6d696e74696e67506f6f6c486f6c64696e6773526571756972656442495053006060820152602081018290526000805160206151c8833981519152906080016110b9565b6000612c6b610a4d565b90506000612c7b83850185614c53565b9050801580612c975750600d8201546001600160401b03168110155b612cb35760405162461bcd60e51b81526004016100bf90614d5c565b612cbc81613a74565b82600d01600b6101000a8154816001600160401b0302191690836001600160401b031602179055506000805160206151c8833981519152816040516110b991906040808252600d908201526c6d696e74696e67436170414d4760981b6060820152602081019190915260800190565b6000612d35610a4d565b90506000612d4583850185614c53565b9050612d5081613a74565b6012830180546001600160401b0392909216600160401b0267ffffffffffffffff60401b1990921691909117905560408051818152601f918101919091527f746f6b656e496e76616c69646174696f6e54696d654d696e5365636f6e6473006060820152602081018290526000805160206151c8833981519152906080016110b9565b6000612ddd610a4d565b90506000612ded83850185614c53565b9050612710811015612e115760405162461bcd60e51b81526004016100bf90614d5c565b612e1a81613be0565b60128301805463ffffffff92909216600160801b0263ffffffff60801b19909216919091179055604080518181526024918101919091527f7661756c74436f6c6c61746572616c427579466f72466c617265466163746f726060820152634249505360e01b6080820152602081018290526000805160206151c88339815191529060a0016110b9565b6000612ead610a4d565b90506000612ebd83850185614c53565b6012830154909150612ee090600160a01b90046001600160401b03166004614c6c565b612eed9062093a80614d05565b6001600160401b0316811115612f0257600080fd5b612f0b81613a74565b6012830180546001600160401b0392909216600160a01b0267ffffffffffffffff60a01b19909216919091179055604080518181526021918101919091527f6167656e7445786974417661696c61626c6554696d656c6f636b5365636f6e646060820152607360f81b6080820152602081018290526000805160206151c88339815191529060a0016110b9565b6000612fa2610a4d565b90506000612fb283850185614c53565b6013830154909150612fce906001600160401b03166004614c6c565b612fdb9062015180614d05565b6001600160401b0316811115612ff057600080fd5b612ff981613a74565b60138301805467ffffffffffffffff19166001600160401b039290921691909117905560408051818152601d918101919091527f6167656e744665654368616e676554696d656c6f636b5365636f6e64730000006060820152602081018290526000805160206151c8833981519152906080016110b9565b600061307b610a4d565b9050600061308b83850185614c53565b60138301549091506130ae90600160401b90046001600160401b03166004614c6c565b6130bb9062015180614d05565b6001600160401b03168111156130d057600080fd5b6130d981613a74565b6013830180546001600160401b0392909216600160401b0267ffffffffffffffff60401b19909216919091179055604080518181526023918101919091527f6167656e744d696e74696e6743524368616e676554696d656c6f636b5365636f6060820152626e647360e81b6080820152602081018290526000805160206151c88339815191529060a0016110b9565b6000613172610a4d565b9050600061318283850185614c53565b60138301549091506131a590600160801b90046001600160401b03166004614c6c565b6131b29062015180614d05565b6001600160401b03168111156131c757600080fd5b6131d081613a74565b6013830180546001600160401b0392909216600160801b0267ffffffffffffffff60801b19909216919091179055604080518181526025918101919091527f706f6f6c45786974416e64546f7075704368616e676554696d656c6f636b5365606082015264636f6e647360d81b6080820152602081018290526000805160206151c88339815191529060a0016110b9565b600061326b610a4d565b9050600061327b83850185614c53565b9050603c81101561329e5760405162461bcd60e51b81526004016100bf90614d5c565b6132a781613a74565b6013830180546001600160401b0392909216600160c01b026001600160c01b03909216919091179055604080518181526025918101919091527f6167656e7454696d656c6f636b65644f7065726174696f6e57696e646f775365606082015264636f6e647360d81b6080820152602081018290526000805160206151c88339815191529060a0016110b9565b600061333d610a4d565b9050600061334d83850185614c53565b9050603c8110156133705760405162461bcd60e51b81526004016100bf90614d5c565b61337981613be0565b60148301805463ffffffff191663ffffffff92909216919091179055604080518181526022918101919091527f636f6c6c61746572616c506f6f6c546f6b656e54696d656c6f636b5365636f6e606082015261647360f01b6080820152602081018290526000805160206151c88339815191529060a0016110b9565b60006133ff610a4d565b9050600061340f83850185614c53565b9050600081116134315760405162461bcd60e51b81526004016100bf90614959565b601482015461345190600160201b90046001600160401b03166002614c6c565b6001600160401b03168111156134795760405162461bcd60e51b81526004016100bf906149d3565b601482015461349a90600290600160201b90046001600160401b0316614c8f565b6001600160401b03168110156134c25760405162461bcd60e51b81526004016100bf90614a39565b6134cb81613a74565b6014830180546001600160401b0392909216600160201b026bffffffffffffffff000000001990921691909117905560408051818152601691810191909152756c69717569646174696f6e537465705365636f6e647360501b6060820152602081018290526000805160206151c8833981519152906080016110b9565b6000613552610a4d565b905060008061356384860186614e04565b915091506135718282613c45565b61357f6015840160006147b3565b61358d6016840160006147b3565b60005b825181101561361d57836015016135bf8483815181106135b2576135b2614e67565b6020026020010151613be0565b81546001810183556000928352602090922063ffffffff909116910155815160168501906135f9908490849081106135b2576135b2614e67565b8154600181810184556000938452602090932063ffffffff90921691015501613590565b507ff8df5a8f8fc0ea5cc0d8aff70643ac14b7353b936a843e23cb08ff282ba747398260405161364d9190614eb9565b60405180910390a17ff8df5a8f8fc0ea5cc0d8aff70643ac14b7353b936a843e23cb08ff282ba7473981604051610df09190614f00565b600061368e610a4d565b905060008061369f84860186614937565b91509150600082116136c35760405162461bcd60e51b81526004016100bf90614959565b60178301546136e390600160401b90046001600160401b03166004614c6c565b6001600160401b031682111561370b5760405162461bcd60e51b81526004016100bf906149d3565b601783015461372c90600490600160401b90046001600160401b0316614c8f565b6001600160401b03168210156137545760405162461bcd60e51b81526004016100bf90614a39565b600081116137745760405162461bcd60e51b81526004016100bf90614959565b601783015461379490600160801b90046001600160401b03166004614c6c565b6001600160401b03168111156137bc5760405162461bcd60e51b81526004016100bf906149d3565b60178301546137dd90600490600160801b90046001600160401b0316614c8f565b6001600160401b03168110156138055760405162461bcd60e51b81526004016100bf90614a39565b61380e82613a74565b8360170160086101000a8154816001600160401b0302191690836001600160401b0316021790555061383f81613a74565b6017840180546001600160401b0392909216600160801b0267ffffffffffffffff60801b199092169190911790556040805181815260209181018290527f6d6178456d657267656e637950617573654475726174696f6e5365636f6e647360608201529081018390526000805160206151c88339815191529060800160405180910390a1604080518181526027918101919091527f656d657267656e637950617573654475726174696f6e526573657441667465726060820152665365636f6e647360c81b6080820152602081018290526000805160206151c88339815191529060a001610df0565b7fec7e8c1c441439dd40959777f4c577ea0cd42fcc1dbe59d2bd0f5d9c55df8dc5546000805160206151888339815191528054600092829161ffff90911690811061397557613975614e67565b60009182526020909120600490910201546001600160a01b031692915050565b61399d6147d1565b60006139a98484613e70565b90506139b481613f33565b9150505b92915050565b60006139c98261410d565b90506139d481614577565b5050565b62015180821115613a1b5760405162461bcd60e51b815260206004820152600d60248201526c0ecc2d8eaca40e8de40d0d2ced609b1b60448201526064016100bf565b620151806103e8613a2c8386614f54565b613a369190614f6b565b11156100585760405162461bcd60e51b815260206004820152600d60248201526c0ecc2d8eaca40e8de40d0d2ced609b1b60448201526064016100bf565b60006001600160401b03821115613adc5760405162461bcd60e51b815260206004820152602660248201527f53616665436173743a2076616c756520646f65736e27742066697420696e203660448201526534206269747360d01b60648201526084016100bf565b5090565b60006001600160801b03821115613adc5760405162461bcd60e51b815260206004820152602760248201527f53616665436173743a2076616c756520646f65736e27742066697420696e20316044820152663238206269747360c81b60648201526084016100bf565b600061ffff821115613adc5760405162461bcd60e51b815260206004820152602660248201527f53616665436173743a2076616c756520646f65736e27742066697420696e203160448201526536206269747360d01b60648201526084016100bf565b600080613bb7610a4d565b600101546001600160a01b031692915050565b6000613bd98383612710614602565b9392505050565b600063ffffffff821115613adc5760405162461bcd60e51b815260206004820152602660248201527f53616665436173743a2076616c756520646f65736e27742066697420696e203360448201526532206269747360d01b60648201526084016100bf565b8051825114613c8a5760405162461bcd60e51b81526020600482015260116024820152701b195b99dd1a1cc81b9bdd08195c5d585b607a1b60448201526064016100bf565b600182511015613cdc5760405162461bcd60e51b815260206004820152601c60248201527f6174206c65617374206f6e6520666163746f722072657175697265640000000060448201526064016100bf565b60005b825181101561005857612710838281518110613cfd57613cfd614e67565b602002602001015111613d475760405162461bcd60e51b8152602060048201526012602482015271666163746f72206e6f742061626f7665203160701b60448201526064016100bf565b828181518110613d5957613d59614e67565b6020026020010151828281518110613d7357613d73614e67565b60200260200101511115613ddb5760405162461bcd60e51b815260206004820152602960248201527f7661756c7420636f6c6c61746572616c20666163746f722068696768657220746044820152681a185b881d1bdd185b60ba1b60648201526084016100bf565b801580613e23575082613def600183614f7f565b81518110613dff57613dff614e67565b6020026020010151838281518110613e1957613e19614e67565b6020026020010151115b613e685760405162461bcd60e51b8152602060048201526016602482015275666163746f7273206e6f7420696e6372656173696e6760501b60448201526064016100bf565b600101613cdf565b6000600080516020615188833981519152817fec7e8c1c441439dd40959777f4c577ea0cd42fcc1dbe59d2bd0f5d9c55df8db781613eae8787614728565b815260200190815260200160002054905060008111613eff5760405162461bcd60e51b815260206004820152600d60248201526c3ab735b737bbb7103a37b5b2b760991b60448201526064016100bf565b81613f0b600183614f7f565b81548110613f1b57613f1b614e67565b90600052602060002090600402019250505092915050565b613f3b6147d1565b60408051610140810190915282548190600160a01b900460ff166002811115613f6657613f66614f92565b815283546001600160a01b038116602083015260ff600160a81b8204811660408401526001600160401b03600160b01b8304166060840152600160f01b909104161515608082015260018401805460a090920191613fc390614fa8565b80601f0160208091040260200160405190810160405280929190818152602001828054613fef90614fa8565b801561403c5780601f106140115761010080835404028352916020019161403c565b820191906000526020600020905b81548152906001019060200180831161401f57829003601f168201915b5050505050815260200183600201805461405590614fa8565b80601f016020809104026020016040519081016040528092919081815260200182805461408190614fa8565b80156140ce5780601f106140a3576101008083540402835291602001916140ce565b820191906000526020600020905b8154815290600101906020018083116140b157829003601f168201915b505050918352505060039093015463ffffffff8082166020860152600160201b820481166040860152600160401b909104166060909301929092525090565b6020810151600090600080516020615188833981519152906001600160a01b03166141675760405162461bcd60e51b815260206004820152600a602482015269746f6b656e207a65726f60b01b60448201526064016100bf565b600061417b84600001518560200151614728565b6000818152600184016020526040902054909150156141d35760405162461bcd60e51b8152602060048201526014602482015273746f6b656e20616c72656164792065786973747360601b60448201526064016100bf565b6060840151156142255760405162461bcd60e51b815260206004820152601b60248201527f63616e6e6f7420616464206465707265636174656420746f6b656e000000000060448201526064016100bf565b600084610100015161271010801561424657508460e0015185610100015111155b801561425b57508461012001518560e0015111155b9050806142aa5760405162461bcd60e51b815260206004820152601960248201527f696e76616c696420636f6c6c61746572616c20726174696f730000000000000060448201526064016100bf565b82546040805161014081019091526020808801516001600160a01b03168252875186929182019060028111156142e2576142e2614f92565b81526020016142f48960400151614752565b60ff1681526020016143098960600151613a74565b6001600160401b031681526020018860800151151581526020018860a0015181526020018860c0015181526020016143448960e00151613be0565b63ffffffff16815260200161435d896101000151613be0565b63ffffffff168152602001614376896101200151613be0565b63ffffffff16905281546001810183556000928352602092839020825160049092020180546001600160a01b031981166001600160a01b03909316928317825593830151929390929183916001600160a81b03191617600160a01b8360028111156143e3576143e3614f92565b021790555060408201518154606084015160808501511515600160f01b0260ff60f01b196001600160401b03909216600160b01b0267ffffffffffffffff60b01b1960ff909516600160a81b029490941668ffffffffffffffffff60a81b1990931692909217929092179190911617815560a08201516001820190614468908261502a565b5060c0820151600282019061447d908261502a565b5060e0820151600390910180546101008401516101209094015163ffffffff908116600160401b026bffffffff000000000000000019958216600160201b0267ffffffffffffffff19909316919094161717929092161790556144e1816001614924565b600084815260018601602052604090205585517fbef4c272617e8773ee6209dd5f05e50ca5be37232b0c94cb8439d8a56bfdb7ce90600281111561452757614527614f92565b8760200151886040015189608001518a60a001518b60c001518c60e001518d61010001518e6101200151604051614566999897969594939291906150e9565b60405180910390a195945050505050565b600080516020615188833981519152805460009082908490811061459d5761459d614e67565b60009182526020909120600490910201905060018154600160a01b900460ff1660028111156145ce576145ce614f92565b146145db576145db61515d565b6145e483613b49565b600f92909201805461ffff191661ffff909316929092179091555050565b60008082116146465760405162461bcd60e51b815260206004820152601060248201526f4469766973696f6e206279207a65726f60801b60448201526064016100bf565b8360000361465657506000613bd9565b83830283858281614669576146696149fd565b04036146875782818161467e5761467e6149fd565b04915050613bd9565b5060006146948386614f6b565b905060006146a28487615173565b905060006146b08587614f6b565b905060006146be8688615173565b9050856146cb8285614f54565b6146d59190614f6b565b6146df8385614f54565b6146e98387614f54565b886146f48689614f54565b6146fe9190614f54565b6147089190614924565b6147129190614924565b61471c9190614924565b98975050505050505050565b6000816001600160a01b031660a084600281111561474857614748614f92565b901b179392505050565b600060ff821115613adc5760405162461bcd60e51b815260206004820152602560248201527f53616665436173743a2076616c756520646f65736e27742066697420696e2038604482015264206269747360d81b60648201526084016100bf565b50805460008255906000526020600020908101906100c89190614830565b604080516101408101909152806000815260200160006001600160a01b03168152602001600081526020016000815260200160001515815260200160608152602001606081526020016000815260200160008152602001600081525090565b5b80821115613adc5760008155600101614831565b60008060006040848603121561485a57600080fd5b8335925060208401356001600160401b038082111561487857600080fd5b818601915086601f83011261488c57600080fd5b81358181111561489b57600080fd5b8760208285010111156148ad57600080fd5b6020830194508093505050509250925092565b6001600160a01b03811681146100c857600080fd5b600080604083850312156148e857600080fd5b82356148f3816148c0565b91506020830135614903816148c0565b809150509250929050565b634e487b7160e01b600052601160045260246000fd5b808201808211156139b8576139b861490e565b6000806040838503121561494a57600080fd5b50508035926020909101359150565b6020808252600e908201526d63616e6e6f74206265207a65726f60901b604082015260600190565b6001600160801b038181168382160280821691908281146149a4576149a461490e565b505092915050565b6001600160801b038181168382160190808211156149cc576149cc61490e565b5092915050565b60208082526010908201526f696e63726561736520746f6f2062696760801b604082015260600190565b634e487b7160e01b600052601260045260246000fd5b60006001600160801b0380841680614a2d57614a2d6149fd565b92169190910492915050565b60208082526010908201526f646563726561736520746f6f2062696760801b604082015260600190565b61ffff8181168382160280821691908281146149a4576149a461490e565b61ffff8181168382160190808211156149cc576149cc61490e565b600061ffff80841680614a2d57614a2d6149fd565b600060208284031215614ac357600080fd5b8135613bd9816148c0565b6020808252600c908201526b61646472657373207a65726f60a01b604082015260600190565b634e487b7160e01b600052604160045260246000fd5b604051601f8201601f191681016001600160401b0381118282101715614b3257614b32614af4565b604052919050565b60008060408385031215614b4d57600080fd5b8235614b58816148c0565b91506020838101356001600160401b0380821115614b7557600080fd5b818601915086601f830112614b8957600080fd5b813581811115614b9b57614b9b614af4565b614bad601f8201601f19168501614b0a565b91508082528784828501011115614bc357600080fd5b80848401858401376000848284010152508093505050509250929050565b6000815180845260005b81811015614c0757602081850181015186830182015201614beb565b506000602082860101526020601f19601f83011685010191505092915050565b6001600160a01b0383168152604060208201819052600090614c4b90830184614be1565b949350505050565b600060208284031215614c6557600080fd5b5035919050565b6001600160401b038181168382160280821691908281146149a4576149a461490e565b60006001600160401b0380841680614a2d57614a2d6149fd565b60208082526014908201527366656520696e63726561736520746f6f2062696760601b604082015260600190565b60208082526014908201527366656520646563726561736520746f6f2062696760601b604082015260600190565b6001600160401b038181168382160190808211156149cc576149cc61490e565b63ffffffff8181168382160280821691908281146149a4576149a461490e565b600063ffffffff80841680614a2d57614a2d6149fd565b6020808252600f908201526e1d985b1d59481d1bdbc81cdb585b1b608a1b604082015260600190565b600082601f830112614d9657600080fd5b813560206001600160401b03821115614db157614db1614af4565b8160051b614dc0828201614b0a565b9283528481018201928281019087851115614dda57600080fd5b83870192505b84831015614df957823582529183019190830190614de0565b979650505050505050565b60008060408385031215614e1757600080fd5b82356001600160401b0380821115614e2e57600080fd5b614e3a86838701614d85565b93506020850135915080821115614e5057600080fd5b50614e5d85828601614d85565b9150509250929050565b634e487b7160e01b600052603260045260246000fd5b60008151808452602080850194506020840160005b83811015614eae57815187529582019590820190600101614e92565b509495945050505050565b60408152601f60408201527f6c69717569646174696f6e436f6c6c61746572616c466163746f7242495053006060820152608060208201526000613bd96080830184614e7d565b60408152602460408201527f6c69717569646174696f6e466163746f725661756c74436f6c6c61746572616c6060820152634249505360e01b608082015260a060208201526000613bd960a0830184614e7d565b80820281158282048414176139b8576139b861490e565b600082614f7a57614f7a6149fd565b500490565b818103818111156139b8576139b861490e565b634e487b7160e01b600052602160045260246000fd5b600181811c90821680614fbc57607f821691505b602082108103614fdc57634e487b7160e01b600052602260045260246000fd5b50919050565b601f821115610058576000816000526020600020601f850160051c8101602086101561500b5750805b601f850160051c820191505b81811015610ba757828155600101615017565b81516001600160401b0381111561504357615043614af4565b615057816150518454614fa8565b84614fe2565b602080601f83116001811461508c57600084156150745750858301515b600019600386901b1c1916600185901b178555610ba7565b600085815260208120601f198616915b828110156150bb5788860151825594840194600190910190840161509c565b50858210156150d95787850151600019600388901b60f8161c191681555b5050505050600190811b01905550565b60ff8a1681526001600160a01b03891660208201526040810188905286151560608201526101206080820181905260009061512683820189614be1565b905082810360a084015261513a8188614be1565b60c0840196909652505060e0810192909252610100909101529695505050505050565b634e487b7160e01b600052600160045260246000fd5b600082615182576151826149fd565b50069056feec7e8c1c441439dd40959777f4c577ea0cd42fcc1dbe59d2bd0f5d9c55df8db6cb274d507e7a9978f5a8c15929fd58c472b8addc1a9bba454b0c0a49a05c9152ac1fb27759c1e6f9e4a24d4f8c320be6091becb03cea5a95398fa220fca4ac0ea2646970667358221220cf6309dac9324d630b17597aa849b1c512b478d88c48cdf1669a832662e8015664736f6c63430008170033",
  "linkReferences": {},
  "deployedLinkReferences": {}
}