{
  "_format": "hh-sol-artifact-1",
  "contractName": "CollateralTypes",
  "sourceName": "contracts/fasset/library/CollateralTypes.sol",
  "abi": [
    {
      "inputs": [],
      "name": "getAllInfos",
      "outputs": [
        {
          "components": [
            {
              "internalType": "enum IAssetManager.CollateralClass",
              "name": "collateralClass",
              "type": "IAssetManager.CollateralClass"
            },
            {
              "internalType": "contract IERC20",
              "name": "token",
              "type": "IERC20"
            },
            {
              "internalType": "uint256",
              "name": "decimals",
              "type": "uint256"
            },
            {
              "internalType": "uint256",
              "name": "validUntil",
              "type": "uint256"
            },
            {
              "internalType": "bool",
              "name": "directPricePair",
              "type": "bool"
            },
            {
              "internalType": "string",
              "name": "assetFtsoSymbol",
              "type": "string"
            },
            {
              "internalType": "string",
              "name": "tokenFtsoSymbol",
              "type": "string"
            },
            {
              "internalType": "uint256",
              "name": "minCollateralRatioBIPS",
              "type": "uint256"
            },
            {
              "internalType": "uint256",
              "name": "ccbMinCollateralRatioBIPS",
              "type": "uint256"
            },
            {
              "internalType": "uint256",
              "name": "safetyMinCollateralRatioBIPS",
              "type": "uint256"
            }
          ],
          "internalType": "struct IAssetManager.CollateralType[]",
          "name": "_result",
          "type": "tuple[]"
        }
      ],
      "stateMutability": "view",
      "type": "function"
    },
    {
      "inputs": [
        {
          "internalType": "enum IAssetManager.CollateralClass",
          "name": "_collateralClass",
          "type": "IAssetManager.CollateralClass"
        },
        {
          "internalType": "contract IERC20",
          "name": "_token",
          "type": "IERC20"
        }
      ],
      "name": "getInfo",
      "outputs": [
        {
          "components": [
            {
              "internalType": "enum IAssetManager.CollateralClass",
              "name": "collateralClass",
              "type": "IAssetManager.CollateralClass"
            },
            {
              "internalType": "contract IERC20",
              "name": "token",
              "type": "IERC20"
            },
            {
              "internalType": "uint256",
              "name": "decimals",
              "type": "uint256"
            },
            {
              "internalType": "uint256",
              "name": "validUntil",
              "type": "uint256"
            },
            {
              "internalType": "bool",
              "name": "directPricePair",
              "type": "bool"
            },
            {
              "internalType": "string",
              "name": "assetFtsoSymbol",
              "type": "string"
            },
            {
              "internalType": "string",
              "name": "tokenFtsoSymbol",
              "type": "string"
            },
            {
              "internalType": "uint256",
              "name": "minCollateralRatioBIPS",
              "type": "uint256"
            },
            {
              "internalType": "uint256",
              "name": "ccbMinCollateralRatioBIPS",
              "type": "uint256"
            },
            {
              "internalType": "uint256",
              "name": "safetyMinCollateralRatioBIPS",
              "type": "uint256"
            }
          ],
          "internalType": "struct IAssetManager.CollateralType",
          "name": "",
          "type": "tuple"
        }
      ],
      "stateMutability": "view",
      "type": "function"
    }
  ],
  "bytecode": "0x6119a161003a600b82828239805160001a60731461002d57634e487b7160e01b600052600060045260246000fd5b30600052607381538281f3fe73000000000000000000000000000000000000000030146080604052600436106100875760003560e01c80637e61077c116100655780637e61077c146100f7578063a9527ae114610117578063d80516a514610137578063f79900b11461014c57600080fd5b80631a61fad11461008c578063568487cf146100ae57806371a1f4f6146100ce575b600080fd5b81801561009857600080fd5b506100ac6100a73660046114c3565b61016c565b005b8180156100ba57600080fd5b506100ac6100c9366004611585565b61032a565b6100e16100dc3660046115b9565b61038f565b6040516100ee9190611721565b60405180910390f35b81801561010357600080fd5b506100ac610112366004611585565b6103b6565b81801561012357600080fd5b506100ac61013236600461173b565b610426565b61013f61058a565b6040516100ee9190611777565b81801561015857600080fd5b506100ac6101673660046117d9565b61067f565b6002815110156101cd5760405162461bcd60e51b815260206004820152602160248201527f6174206c656173742074776f20636f6c6c61746572616c7320726571756972656044820152601960fa1b60648201526084015b60405180910390fd5b6001816000815181106101e2576101e2611826565b60200260200101516000015160028111156101ff576101ff6115ec565b1461024c5760405162461bcd60e51b815260206004820152601a60248201527f6e6f74206120706f6f6c20636f6c6c61746572616c206174203000000000000060448201526064016101c4565b61026f8160008151811061026257610262611826565b60200260200101516107e6565b5061027a6000610c60565b60015b815181101561032657600282828151811061029a5761029a611826565b60200260200101516000015160028111156102b7576102b76115ec565b146102fe5760405162461bcd60e51b81526020600482015260176024820152761b9bdd08184818db185cdccc4818dbdb1b185d195c985b604a1b60448201526064016101c4565b61031382828151811061026257610262611826565b508061031e81611852565b91505061027d565b5050565b60028151600281111561033f5761033f6115ec565b146103865760405162461bcd60e51b81526020600482015260176024820152761b9bdd08184818db185cdccc4818dbdb1b185d195c985b604a1b60448201526064016101c4565b610326816107e6565b6103976111e3565b60006103a38484610d4b565b90506103ae81610e11565b949350505050565b6001815160028111156103cb576103cb6115ec565b146104105760405162461bcd60e51b81526020600482015260156024820152741b9bdd0818481c1bdbdb0818dbdb1b185d195c985b605a1b60448201526064016101c4565b600061041b826107e6565b905061032681610c60565b60008051602061194c83398151915260006104418585610d4b565b905061044c81610fec565b61048a5760405162461bcd60e51b815260206004820152600f60248201526e1d1bdad95b881b9bdd081d985b1a59608a1b60448201526064016101c4565b60118201546001600160401b03168310156104e75760405162461bcd60e51b815260206004820152601960248201527f6465707265636174696f6e2074696d6520746f2073686f72740000000000000060448201526064016101c4565b60006104f3844261186d565b90506104fe81611024565b82546001600160401b0391909116600160b01b0267ffffffffffffffff60b01b199091161782557ffa93c441628a8345854526201d5fec9110fe2e4ad5a0822eb6eda950864075e6866002811115610558576105586115ec565b6040805160ff90921682526001600160a01b0388166020830152810183905260600160405180910390a1505050505050565b7fec7e8c1c441439dd40959777f4c577ea0cd42fcc1dbe59d2bd0f5d9c55df8dc95460609060008051602061194c83398151915290806001600160401b038111156105d7576105d76112d2565b60405190808252806020026020018201604052801561061057816020015b6105fd6111e3565b8152602001906001900390816105f55790505b50925060005b818110156106795761064983601301828154811061063657610636611826565b9060005260206000209060040201610e11565b84828151811061065b5761065b611826565b6020026020010181905250808061067190611852565b915050610616565b50505090565b6000826127101080156106925750838311155b801561069e5750818411155b9050806106e95760405162461bcd60e51b8152602060048201526019602482015278696e76616c696420636f6c6c61746572616c20726174696f7360381b60448201526064016101c4565b60006106f58787610d4b565b905061070085611090565b60038201805463ffffffff191663ffffffff9290921691909117905561072584611090565b8160030160046101000a81548163ffffffff021916908363ffffffff16021790555061075083611090565b8160030160086101000a81548163ffffffff021916908363ffffffff1602179055507fbaa56ba61f3fbb73cc7723520ea5139b9300100910496d3dc525d0344858cac88760028111156107a5576107a56115ec565b6040805160ff90921682526001600160a01b03891660208301528101879052606081018690526080810185905260a00160405180910390a150505050505050565b602081015160009060008051602061194c833981519152906001600160a01b03166108405760405162461bcd60e51b815260206004820152600a602482015269746f6b656e207a65726f60b01b60448201526064016101c4565b6000610854846000015185602001516110f5565b6000818152601484016020526040902054909150156108ac5760405162461bcd60e51b8152602060048201526014602482015273746f6b656e20616c72656164792065786973747360601b60448201526064016101c4565b6060840151156108fe5760405162461bcd60e51b815260206004820152601b60248201527f63616e6e6f7420616464206465707265636174656420746f6b656e000000000060448201526064016101c4565b600084610100015161271010801561091f57508460e0015185610100015111155b801561093457508461012001518560e0015111155b90508061097f5760405162461bcd60e51b8152602060048201526019602482015278696e76616c696420636f6c6c61746572616c20726174696f7360381b60448201526064016101c4565b6013830180546040805161014081019091526020808901516001600160a01b0316825288519293929082019060028111156109bc576109bc6115ec565b81526020016109ce896040015161111f565b60ff1681526020016109e38960600151611024565b6001600160401b031681526020018860800151151581526020018860a0015181526020018860c001518152602001610a1e8960e00151611090565b63ffffffff168152602001610a37896101000151611090565b63ffffffff168152602001610a50896101200151611090565b63ffffffff16905281546001810183556000928352602092839020825160049092020180546001600160a01b031981166001600160a01b03909316928317825593830151929390929183916001600160a81b03191617600160a01b836002811115610abd57610abd6115ec565b021790555060408201518154606084015160808501511515600160f01b0260ff60f01b196001600160401b03909216600160b01b0267ffffffffffffffff60b01b1960ff909516600160a81b029490941668ffffffffffffffffff60a81b1990931692909217929092179190911617815560a08201518051610b49916001840191602090910190611242565b5060c08201518051610b65916002840191602090910190611242565b5060e0820151600390910180546101008401516101209094015163ffffffff908116600160401b026bffffffff0000000000000000199582166401000000000267ffffffffffffffff1990931691909416171792909216179055610bca81600161186d565b600084815260148601602052604090205585517fbef4c272617e8773ee6209dd5f05e50ca5be37232b0c94cb8439d8a56bfdb7ce906002811115610c1057610c106115ec565b8760200151886040015189608001518a60a001518b60c001518c60e001518d61010001518e6101200151604051610c4f99989796959493929190611885565b60405180910390a195945050505050565b7fec7e8c1c441439dd40959777f4c577ea0cd42fcc1dbe59d2bd0f5d9c55df8dc9805460008051602061194c8339815191529160009184908110610ca657610ca6611826565b60009182526020909120600490910201905060018154600160a01b900460ff166002811115610cd757610cd76115ec565b14610d245760405162461bcd60e51b815260206004820152601b60248201527f6e6f74206120706f6f6c20636f6c6c61746572616c20746f6b656e000000000060448201526064016101c4565b610d2d83611180565b602392909201805461ffff191661ffff909316929092179091555050565b600060008051602061194c833981519152817fec7e8c1c441439dd40959777f4c577ea0cd42fcc1dbe59d2bd0f5d9c55df8dca81610d8987876110f5565b815260200190815260200160002054905060008111610dda5760405162461bcd60e51b815260206004820152600d60248201526c3ab735b737bbb7103a37b5b2b760991b60448201526064016101c4565b60138201610de96001836118f9565b81548110610df957610df9611826565b90600052602060002090600402019250505092915050565b610e196111e3565b60408051610140810190915282548190600160a01b900460ff166002811115610e4457610e446115ec565b815283546001600160a01b038116602083015260ff600160a81b8204811660408401526001600160401b03600160b01b8304166060840152600160f01b909104161515608082015260018401805460a090920191610ea190611910565b80601f0160208091040260200160405190810160405280929190818152602001828054610ecd90611910565b8015610f1a5780601f10610eef57610100808354040283529160200191610f1a565b820191906000526020600020905b815481529060010190602001808311610efd57829003601f168201915b50505050508152602001836002018054610f3390611910565b80601f0160208091040260200160405190810160405280929190818152602001828054610f5f90611910565b8015610fac5780601f10610f8157610100808354040283529160200191610fac565b820191906000526020600020905b815481529060010190602001808311610f8f57829003601f168201915b505050918352505060039093015463ffffffff8082166020860152640100000000820481166040860152600160401b909104166060909301929092525090565b8054600090600160b01b90046001600160401b0316158061101e5750815442600160b01b9091046001600160401b0316115b92915050565b60006001600160401b0382111561108c5760405162461bcd60e51b815260206004820152602660248201527f53616665436173743a2076616c756520646f65736e27742066697420696e203660448201526534206269747360d01b60648201526084016101c4565b5090565b600063ffffffff82111561108c5760405162461bcd60e51b815260206004820152602660248201527f53616665436173743a2076616c756520646f65736e27742066697420696e203360448201526532206269747360d01b60648201526084016101c4565b6000816001600160a01b031660a0846002811115611115576111156115ec565b901b179392505050565b600060ff82111561108c5760405162461bcd60e51b815260206004820152602560248201527f53616665436173743a2076616c756520646f65736e27742066697420696e2038604482015264206269747360d81b60648201526084016101c4565b600061ffff82111561108c5760405162461bcd60e51b815260206004820152602660248201527f53616665436173743a2076616c756520646f65736e27742066697420696e203160448201526536206269747360d01b60648201526084016101c4565b604080516101408101909152806000815260200160006001600160a01b03168152602001600081526020016000815260200160001515815260200160608152602001606081526020016000815260200160008152602001600081525090565b82805461124e90611910565b90600052602060002090601f01602090048101928261127057600085556112b6565b82601f1061128957805160ff19168380011785556112b6565b828001600101855582156112b6579182015b828111156112b657825182559160200191906001019061129b565b5061108c9291505b8082111561108c57600081556001016112be565b634e487b7160e01b600052604160045260246000fd5b60405161014081016001600160401b038111828210171561130b5761130b6112d2565b60405290565b604051601f8201601f191681016001600160401b0381118282101715611339576113396112d2565b604052919050565b80356003811061135057600080fd5b919050565b80356001600160a01b038116811461135057600080fd5b8035801515811461135057600080fd5b600082601f83011261138d57600080fd5b81356001600160401b038111156113a6576113a66112d2565b6113b9601f8201601f1916602001611311565b8181528460208386010111156113ce57600080fd5b816020850160208301376000918101602001919091529392505050565b600061014082840312156113fe57600080fd5b6114066112e8565b905061141182611341565b815261141f60208301611355565b602082015260408201356040820152606082013560608201526114446080830161136c565b608082015260a08201356001600160401b038082111561146357600080fd5b61146f8583860161137c565b60a084015260c084013591508082111561148857600080fd5b506114958482850161137c565b60c08301525060e082013560e082015261010080830135818301525061012080830135818301525092915050565b600060208083850312156114d657600080fd5b82356001600160401b03808211156114ed57600080fd5b818501915085601f83011261150157600080fd5b813581811115611513576115136112d2565b8060051b611522858201611311565b918252838101850191858101908984111561153c57600080fd5b86860192505b838310156115785782358581111561155a5760008081fd5b6115688b89838a01016113eb565b8352509186019190860190611542565b9998505050505050505050565b60006020828403121561159757600080fd5b81356001600160401b038111156115ad57600080fd5b6103ae848285016113eb565b600080604083850312156115cc57600080fd5b6115d583611341565b91506115e360208401611355565b90509250929050565b634e487b7160e01b600052602160045260246000fd5b6003811061162057634e487b7160e01b600052602160045260246000fd5b9052565b6000815180845260005b8181101561164a5760208185018101518683018201520161162e565b8181111561165c576000602083870101525b50601f01601f19169290920160200192915050565b6000610140611681848451611602565b602083015161169b60208601826001600160a01b03169052565b50604083015160408501526060830151606085015260808301516116c3608086018215159052565b5060a08301518160a08601526116db82860182611624565b91505060c083015184820360c08601526116f58282611624565b60e085810151908701526101008086015190870152610120948501519490950193909352509192915050565b6020815260006117346020830184611671565b9392505050565b60008060006060848603121561175057600080fd5b61175984611341565b925061176760208501611355565b9150604084013590509250925092565b6000602080830181845280855180835260408601915060408160051b870101925083870160005b828110156117cc57603f198886030184526117ba858351611671565b9450928501929085019060010161179e565b5092979650505050505050565b600080600080600060a086880312156117f157600080fd5b6117fa86611341565b945061180860208701611355565b94979496505050506040830135926060810135926080909101359150565b634e487b7160e01b600052603260045260246000fd5b634e487b7160e01b600052601160045260246000fd5b60006000198214156118665761186661183c565b5060010190565b600082198211156118805761188061183c565b500190565b60ff8a1681526001600160a01b0389166020820152604081018890528615156060820152610120608082018190526000906118c283820189611624565b905082810360a08401526118d68188611624565b60c0840196909652505060e0810192909252610100909101529695505050505050565b60008282101561190b5761190b61183c565b500390565b600181811c9082168061192457607f821691505b6020821081141561194557634e487b7160e01b600052602260045260246000fd5b5091905056feec7e8c1c441439dd40959777f4c577ea0cd42fcc1dbe59d2bd0f5d9c55df8db6a2646970667358221220c9607983db06ad6619775088aba8fbb5436c422685555b665ee5edf2ef2b723864736f6c634300080b0033",
  "linkReferences": {},
  "deployedLinkReferences": {}
}