{
  "_format": "hh-sol-artifact-1",
  "contractName": "CollateralTypes",
  "sourceName": "contracts/fasset/library/CollateralTypes.sol",
  "abi": [
    {
      "anonymous": false,
      "inputs": [
        {
          "indexed": false,
          "internalType": "uint8",
          "name": "collateralClass",
          "type": "uint8"
        },
        {
          "indexed": false,
          "internalType": "address",
          "name": "collateralToken",
          "type": "address"
        },
        {
          "indexed": false,
          "internalType": "uint256",
          "name": "minCollateralRatioBIPS",
          "type": "uint256"
        },
        {
          "indexed": false,
          "internalType": "uint256",
          "name": "ccbMinCollateralRatioBIPS",
          "type": "uint256"
        },
        {
          "indexed": false,
          "internalType": "uint256",
          "name": "safetyMinCollateralRatioBIPS",
          "type": "uint256"
        }
      ],
      "name": "CollateralRatiosChanged",
      "type": "event"
    },
    {
      "anonymous": false,
      "inputs": [
        {
          "indexed": false,
          "internalType": "uint8",
          "name": "collateralClass",
          "type": "uint8"
        },
        {
          "indexed": false,
          "internalType": "address",
          "name": "token",
          "type": "address"
        },
        {
          "indexed": false,
          "internalType": "uint256",
          "name": "decimals",
          "type": "uint256"
        },
        {
          "indexed": false,
          "internalType": "bool",
          "name": "directPricePair",
          "type": "bool"
        },
        {
          "indexed": false,
          "internalType": "string",
          "name": "assetFtsoSymbol",
          "type": "string"
        },
        {
          "indexed": false,
          "internalType": "string",
          "name": "tokenFtsoSymbol",
          "type": "string"
        },
        {
          "indexed": false,
          "internalType": "uint256",
          "name": "minCollateralRatioBIPS",
          "type": "uint256"
        },
        {
          "indexed": false,
          "internalType": "uint256",
          "name": "ccbMinCollateralRatioBIPS",
          "type": "uint256"
        },
        {
          "indexed": false,
          "internalType": "uint256",
          "name": "safetyMinCollateralRatioBIPS",
          "type": "uint256"
        }
      ],
      "name": "CollateralTypeAdded",
      "type": "event"
    },
    {
      "anonymous": false,
      "inputs": [
        {
          "indexed": false,
          "internalType": "uint8",
          "name": "collateralClass",
          "type": "uint8"
        },
        {
          "indexed": false,
          "internalType": "address",
          "name": "collateralToken",
          "type": "address"
        },
        {
          "indexed": false,
          "internalType": "uint256",
          "name": "validUntil",
          "type": "uint256"
        }
      ],
      "name": "CollateralTypeDeprecated",
      "type": "event"
    },
    {
      "inputs": [],
      "name": "getAllInfos",
      "outputs": [
        {
          "components": [
            {
              "internalType": "enum CollateralType.Class",
              "name": "collateralClass",
              "type": "CollateralType.Class"
            },
            {
              "internalType": "contract IERC20",
              "name": "token",
              "type": "IERC20"
            },
            {
              "internalType": "uint256",
              "name": "decimals",
              "type": "uint256"
            },
            {
              "internalType": "uint256",
              "name": "validUntil",
              "type": "uint256"
            },
            {
              "internalType": "bool",
              "name": "directPricePair",
              "type": "bool"
            },
            {
              "internalType": "string",
              "name": "assetFtsoSymbol",
              "type": "string"
            },
            {
              "internalType": "string",
              "name": "tokenFtsoSymbol",
              "type": "string"
            },
            {
              "internalType": "uint256",
              "name": "minCollateralRatioBIPS",
              "type": "uint256"
            },
            {
              "internalType": "uint256",
              "name": "ccbMinCollateralRatioBIPS",
              "type": "uint256"
            },
            {
              "internalType": "uint256",
              "name": "safetyMinCollateralRatioBIPS",
              "type": "uint256"
            }
          ],
          "internalType": "struct CollateralType.Data[]",
          "name": "_result",
          "type": "tuple[]"
        }
      ],
      "stateMutability": "view",
      "type": "function"
    },
    {
      "inputs": [
        {
          "internalType": "enum CollateralType.Class",
          "name": "_collateralClass",
          "type": "CollateralType.Class"
        },
        {
          "internalType": "contract IERC20",
          "name": "_token",
          "type": "IERC20"
        }
      ],
      "name": "getInfo",
      "outputs": [
        {
          "components": [
            {
              "internalType": "enum CollateralType.Class",
              "name": "collateralClass",
              "type": "CollateralType.Class"
            },
            {
              "internalType": "contract IERC20",
              "name": "token",
              "type": "IERC20"
            },
            {
              "internalType": "uint256",
              "name": "decimals",
              "type": "uint256"
            },
            {
              "internalType": "uint256",
              "name": "validUntil",
              "type": "uint256"
            },
            {
              "internalType": "bool",
              "name": "directPricePair",
              "type": "bool"
            },
            {
              "internalType": "string",
              "name": "assetFtsoSymbol",
              "type": "string"
            },
            {
              "internalType": "string",
              "name": "tokenFtsoSymbol",
              "type": "string"
            },
            {
              "internalType": "uint256",
              "name": "minCollateralRatioBIPS",
              "type": "uint256"
            },
            {
              "internalType": "uint256",
              "name": "ccbMinCollateralRatioBIPS",
              "type": "uint256"
            },
            {
              "internalType": "uint256",
              "name": "safetyMinCollateralRatioBIPS",
              "type": "uint256"
            }
          ],
          "internalType": "struct CollateralType.Data",
          "name": "",
          "type": "tuple"
        }
      ],
      "stateMutability": "view",
      "type": "function"
    }
  ],
  "bytecode": "0x611a0661003a600b82828239805160001a60731461002d57634e487b7160e01b600052600060045260246000fd5b30600052607381538281f3fe73000000000000000000000000000000000000000030146080604052600436106100875760003560e01c8063839eddcd11610065578063839eddcd146100f7578063cbcf339b14610117578063d80516a514610137578063ecabc6e81461014c57600080fd5b8063110736151461008c57806331836db0146100b5578063628ed1e2146100d7575b600080fd5b61009f61009a366004611267565b61016c565b6040516100ac91906113c8565b60405180910390f35b8180156100c157600080fd5b506100d56100d03660046113e2565b610195565b005b8180156100e357600080fd5b506100d56100f236600461141e565b610305565b81801561010357600080fd5b506100d5610112366004611631565b61046c565b81801561012357600080fd5b506100d5610132366004611665565b6104d5565b61013f61068a565b6040516100ac9190611727565b81801561015857600080fd5b506100d5610167366004611631565b61077f565b6101746111dd565b600061018084846107ef565b905061018b816108b5565b9150505b92915050565b6000805160206119b183398151915260006101b085856107ef565b90506101bb81610a90565b6101fe5760405162461bcd60e51b815260206004820152600f60248201526e1d1bdad95b881b9bdd081d985b1a59608a1b60448201526064015b60405180910390fd5b6011820154600160401b90046001600160401b03168310156102625760405162461bcd60e51b815260206004820152601960248201527f6465707265636174696f6e2074696d6520746f2073686f72740000000000000060448201526064016101f5565b600061026e844261179f565b905061027981610ac7565b82546001600160401b0391909116600160b01b0267ffffffffffffffff60b01b199091161782557ffa93c441628a8345854526201d5fec9110fe2e4ad5a0822eb6eda950864075e68660028111156102d3576102d361129a565b6040805160ff90921682526001600160a01b0388166020830152810183905260600160405180910390a1505050505050565b6000826127101080156103185750838311155b80156103245750818411155b90508061036f5760405162461bcd60e51b8152602060048201526019602482015278696e76616c696420636f6c6c61746572616c20726174696f7360381b60448201526064016101f5565b600061037b87876107ef565b905061038685610b33565b60038201805463ffffffff191663ffffffff929092169190911790556103ab84610b33565b8160030160046101000a81548163ffffffff021916908363ffffffff1602179055506103d683610b33565b8160030160086101000a81548163ffffffff021916908363ffffffff1602179055507fbaa56ba61f3fbb73cc7723520ea5139b9300100910496d3dc525d0344858cac887600281111561042b5761042b61129a565b6040805160ff90921682526001600160a01b03891660208301528101879052606081018690526080810185905260a00160405180910390a150505050505050565b6002815160028111156104815761048161129a565b146104c85760405162461bcd60e51b81526020600482015260176024820152761b9bdd08184818db185cdccc4818dbdb1b185d195c985b604a1b60448201526064016101f5565b6104d181610b98565b5050565b6002815110156105315760405162461bcd60e51b815260206004820152602160248201527f6174206c656173742074776f20636f6c6c61746572616c7320726571756972656044820152601960fa1b60648201526084016101f5565b600181600081518110610546576105466117b2565b60200260200101516000015160028111156105635761056361129a565b146105b05760405162461bcd60e51b815260206004820152601a60248201527f6e6f74206120706f6f6c20636f6c6c61746572616c206174203000000000000060448201526064016101f5565b6105d3816000815181106105c6576105c66117b2565b6020026020010151610b98565b506105de6000611004565b60015b81518110156104d15760028282815181106105fe576105fe6117b2565b602002602001015160000151600281111561061b5761061b61129a565b146106625760405162461bcd60e51b81526020600482015260176024820152761b9bdd08184818db185cdccc4818dbdb1b185d195c985b604a1b60448201526064016101f5565b6106778282815181106105c6576105c66117b2565b5080610682816117c8565b9150506105e1565b7fec7e8c1c441439dd40959777f4c577ea0cd42fcc1dbe59d2bd0f5d9c55df8dc9546060906000805160206119b183398151915290806001600160401b038111156106d7576106d761146b565b60405190808252806020026020018201604052801561071057816020015b6106fd6111dd565b8152602001906001900390816106f55790505b50925060005b8181101561077957610749836013018281548110610736576107366117b2565b90600052602060002090600402016108b5565b84828151811061075b5761075b6117b2565b60200260200101819052508080610771906117c8565b915050610716565b50505090565b6001815160028111156107945761079461129a565b146107d95760405162461bcd60e51b81526020600482015260156024820152741b9bdd0818481c1bdbdb0818dbdb1b185d195c985b605a1b60448201526064016101f5565b60006107e482610b98565b90506104d181611004565b60006000805160206119b1833981519152817fec7e8c1c441439dd40959777f4c577ea0cd42fcc1dbe59d2bd0f5d9c55df8dca8161082d87876110ef565b81526020019081526020016000205490506000811161087e5760405162461bcd60e51b815260206004820152600d60248201526c3ab735b737bbb7103a37b5b2b760991b60448201526064016101f5565b6013820161088d6001836117e1565b8154811061089d5761089d6117b2565b90600052602060002090600402019250505092915050565b6108bd6111dd565b60408051610140810190915282548190600160a01b900460ff1660028111156108e8576108e861129a565b815283546001600160a01b038116602083015260ff600160a81b8204811660408401526001600160401b03600160b01b8304166060840152600160f01b909104161515608082015260018401805460a090920191610945906117f4565b80601f0160208091040260200160405190810160405280929190818152602001828054610971906117f4565b80156109be5780601f10610993576101008083540402835291602001916109be565b820191906000526020600020905b8154815290600101906020018083116109a157829003601f168201915b505050505081526020018360020180546109d7906117f4565b80601f0160208091040260200160405190810160405280929190818152602001828054610a03906117f4565b8015610a505780601f10610a2557610100808354040283529160200191610a50565b820191906000526020600020905b815481529060010190602001808311610a3357829003601f168201915b505050918352505060039093015463ffffffff8082166020860152640100000000820481166040860152600160401b909104166060909301929092525090565b8054600090600160b01b90046001600160401b0316158061018f5750815442600160b01b9091046001600160401b03161192915050565b60006001600160401b03821115610b2f5760405162461bcd60e51b815260206004820152602660248201527f53616665436173743a2076616c756520646f65736e27742066697420696e203660448201526534206269747360d01b60648201526084016101f5565b5090565b600063ffffffff821115610b2f5760405162461bcd60e51b815260206004820152602660248201527f53616665436173743a2076616c756520646f65736e27742066697420696e203360448201526532206269747360d01b60648201526084016101f5565b60208101516000906000805160206119b1833981519152906001600160a01b0316610bf25760405162461bcd60e51b815260206004820152600a602482015269746f6b656e207a65726f60b01b60448201526064016101f5565b6000610c06846000015185602001516110ef565b600081815260148401602052604090205490915015610c5e5760405162461bcd60e51b8152602060048201526014602482015273746f6b656e20616c72656164792065786973747360601b60448201526064016101f5565b606084015115610cb05760405162461bcd60e51b815260206004820152601b60248201527f63616e6e6f7420616464206465707265636174656420746f6b656e000000000060448201526064016101f5565b6000846101000151612710108015610cd157508460e0015185610100015111155b8015610ce657508461012001518560e0015111155b905080610d315760405162461bcd60e51b8152602060048201526019602482015278696e76616c696420636f6c6c61746572616c20726174696f7360381b60448201526064016101f5565b6013830180546040805161014081019091526020808901516001600160a01b031682528851929392908201906002811115610d6e57610d6e61129a565b8152602001610d808960400151611119565b60ff168152602001610d958960600151610ac7565b6001600160401b031681526020018860800151151581526020018860a0015181526020018860c001518152602001610dd08960e00151610b33565b63ffffffff168152602001610de9896101000151610b33565b63ffffffff168152602001610e02896101200151610b33565b63ffffffff16905281546001810183556000928352602092839020825160049092020180546001600160a01b031981166001600160a01b03909316928317825593830151929390929183916001600160a81b03191617600160a01b836002811115610e6f57610e6f61129a565b021790555060408201518154606084015160808501511515600160f01b0260ff60f01b196001600160401b03909216600160b01b0267ffffffffffffffff60b01b1960ff909516600160a81b029490941668ffffffffffffffffff60a81b1990931692909217929092179190911617815560a08201516001820190610ef4908261187d565b5060c08201516002820190610f09908261187d565b5060e0820151600390910180546101008401516101209094015163ffffffff908116600160401b026bffffffff0000000000000000199582166401000000000267ffffffffffffffff1990931691909416171792909216179055610f6e81600161179f565b600084815260148601602052604090205585517fbef4c272617e8773ee6209dd5f05e50ca5be37232b0c94cb8439d8a56bfdb7ce906002811115610fb457610fb461129a565b8760200151886040015189608001518a60a001518b60c001518c60e001518d61010001518e6101200151604051610ff39998979695949392919061193c565b60405180910390a195945050505050565b7fec7e8c1c441439dd40959777f4c577ea0cd42fcc1dbe59d2bd0f5d9c55df8dc980546000805160206119b1833981519152916000918490811061104a5761104a6117b2565b60009182526020909120600490910201905060018154600160a01b900460ff16600281111561107b5761107b61129a565b146110c85760405162461bcd60e51b815260206004820152601b60248201527f6e6f74206120706f6f6c20636f6c6c61746572616c20746f6b656e000000000060448201526064016101f5565b6110d18361117a565b602392909201805461ffff191661ffff909316929092179091555050565b6000816001600160a01b031660a084600281111561110f5761110f61129a565b901b179392505050565b600060ff821115610b2f5760405162461bcd60e51b815260206004820152602560248201527f53616665436173743a2076616c756520646f65736e27742066697420696e2038604482015264206269747360d81b60648201526084016101f5565b600061ffff821115610b2f5760405162461bcd60e51b815260206004820152602660248201527f53616665436173743a2076616c756520646f65736e27742066697420696e203160448201526536206269747360d01b60648201526084016101f5565b604080516101408101909152806000815260200160006001600160a01b03168152602001600081526020016000815260200160001515815260200160608152602001606081526020016000815260200160008152602001600081525090565b80356003811061124b57600080fd5b919050565b80356001600160a01b038116811461124b57600080fd5b6000806040838503121561127a57600080fd5b6112838361123c565b915061129160208401611250565b90509250929050565b634e487b7160e01b600052602160045260246000fd5b600381106112ce57634e487b7160e01b600052602160045260246000fd5b9052565b6000815180845260005b818110156112f8576020818501810151868301820152016112dc565b506000602082860101526020601f19601f83011685010191505092915050565b60006101406113288484516112b0565b602083015161134260208601826001600160a01b03169052565b506040830151604085015260608301516060850152608083015161136a608086018215159052565b5060a08301518160a0860152611382828601826112d2565b91505060c083015184820360c086015261139c82826112d2565b60e085810151908701526101008086015190870152610120948501519490950193909352509192915050565b6020815260006113db6020830184611318565b9392505050565b6000806000606084860312156113f757600080fd5b6114008461123c565b925061140e60208501611250565b9150604084013590509250925092565b600080600080600060a0868803121561143657600080fd5b61143f8661123c565b945061144d60208701611250565b94979496505050506040830135926060810135926080909101359150565b634e487b7160e01b600052604160045260246000fd5b60405161014081016001600160401b03811182821017156114a4576114a461146b565b60405290565b604051601f8201601f191681016001600160401b03811182821017156114d2576114d261146b565b604052919050565b8035801515811461124b57600080fd5b600082601f8301126114fb57600080fd5b81356001600160401b038111156115145761151461146b565b611527601f8201601f19166020016114aa565b81815284602083860101111561153c57600080fd5b816020850160208301376000918101602001919091529392505050565b6000610140828403121561156c57600080fd5b611574611481565b905061157f8261123c565b815261158d60208301611250565b602082015260408201356040820152606082013560608201526115b2608083016114da565b608082015260a08201356001600160401b03808211156115d157600080fd5b6115dd858386016114ea565b60a084015260c08401359150808211156115f657600080fd5b50611603848285016114ea565b60c08301525060e082013560e082015261010080830135818301525061012080830135818301525092915050565b60006020828403121561164357600080fd5b81356001600160401b0381111561165957600080fd5b61018b84828501611559565b6000602080838503121561167857600080fd5b82356001600160401b038082111561168f57600080fd5b818501915085601f8301126116a357600080fd5b8135818111156116b5576116b561146b565b8060051b6116c48582016114aa565b91825283810185019185810190898411156116de57600080fd5b86860192505b8383101561171a578235858111156116fc5760008081fd5b61170a8b89838a0101611559565b83525091860191908601906116e4565b9998505050505050505050565b6000602080830181845280855180835260408601915060408160051b870101925083870160005b8281101561177c57603f1988860301845261176a858351611318565b9450928501929085019060010161174e565b5092979650505050505050565b634e487b7160e01b600052601160045260246000fd5b8082018082111561018f5761018f611789565b634e487b7160e01b600052603260045260246000fd5b6000600182016117da576117da611789565b5060010190565b8181038181111561018f5761018f611789565b600181811c9082168061180857607f821691505b60208210810361182857634e487b7160e01b600052602260045260246000fd5b50919050565b601f82111561187857600081815260208120601f850160051c810160208610156118555750805b601f850160051c820191505b8181101561187457828155600101611861565b5050505b505050565b81516001600160401b038111156118965761189661146b565b6118aa816118a484546117f4565b8461182e565b602080601f8311600181146118df57600084156118c75750858301515b600019600386901b1c1916600185901b178555611874565b600085815260208120601f198616915b8281101561190e578886015182559484019460019091019084016118ef565b508582101561192c5787850151600019600388901b60f8161c191681555b5050505050600190811b01905550565b60ff8a1681526001600160a01b038916602082015260408101889052861515606082015261012060808201819052600090611979838201896112d2565b905082810360a084015261198d81886112d2565b60c0840196909652505060e081019290925261010090910152969550505050505056feec7e8c1c441439dd40959777f4c577ea0cd42fcc1dbe59d2bd0f5d9c55df8db6a2646970667358221220f8a4175da50e26525533ee9bbc80ac27551297a8403b4cf2db288816be97098064736f6c63430008140033",
  "linkReferences": {},
  "deployedLinkReferences": {}
}