{
  "_format": "hh-sol-artifact-1",
  "contractName": "AssetManagerMock",
  "sourceName": "contracts/fasset/mock/AssetManagerMock.sol",
  "abi": [
    {
      "inputs": [
        {
          "internalType": "contract IWNat",
          "name": "_wNat",
          "type": "address"
        }
      ],
      "stateMutability": "nonpayable",
      "type": "constructor"
    },
    {
      "anonymous": false,
      "inputs": [
        {
          "indexed": false,
          "internalType": "uint256",
          "name": "_amountUBA",
          "type": "uint256"
        }
      ],
      "name": "AgentRedemption",
      "type": "event"
    },
    {
      "anonymous": false,
      "inputs": [
        {
          "indexed": false,
          "internalType": "uint256",
          "name": "_amountUBA",
          "type": "uint256"
        }
      ],
      "name": "AgentRedemptionInCollateral",
      "type": "event"
    },
    {
      "inputs": [],
      "name": "assetPriceNatWei",
      "outputs": [
        {
          "internalType": "uint256",
          "name": "",
          "type": "uint256"
        },
        {
          "internalType": "uint256",
          "name": "",
          "type": "uint256"
        }
      ],
      "stateMutability": "pure",
      "type": "function"
    },
    {
      "inputs": [
        {
          "internalType": "address",
          "name": "_contract",
          "type": "address"
        },
        {
          "internalType": "bytes",
          "name": "_payload",
          "type": "bytes"
        }
      ],
      "name": "callFunctionAt",
      "outputs": [],
      "stateMutability": "nonpayable",
      "type": "function"
    },
    {
      "inputs": [
        {
          "internalType": "contract IERC20",
          "name": "",
          "type": "address"
        }
      ],
      "name": "collateralDeposited",
      "outputs": [],
      "stateMutability": "nonpayable",
      "type": "function"
    },
    {
      "inputs": [],
      "name": "fAsset",
      "outputs": [
        {
          "internalType": "contract IERC20",
          "name": "",
          "type": "address"
        }
      ],
      "stateMutability": "view",
      "type": "function"
    },
    {
      "inputs": [],
      "name": "fasset",
      "outputs": [
        {
          "internalType": "contract ERC20Mock",
          "name": "",
          "type": "address"
        }
      ],
      "stateMutability": "view",
      "type": "function"
    },
    {
      "inputs": [
        {
          "internalType": "address",
          "name": "",
          "type": "address"
        }
      ],
      "name": "getAgentVaultOwner",
      "outputs": [
        {
          "internalType": "address",
          "name": "_ownerColdAddress",
          "type": "address"
        },
        {
          "internalType": "address",
          "name": "_ownerHotAddress",
          "type": "address"
        }
      ],
      "stateMutability": "view",
      "type": "function"
    },
    {
      "inputs": [
        {
          "internalType": "address",
          "name": "",
          "type": "address"
        }
      ],
      "name": "getCollateralPool",
      "outputs": [
        {
          "internalType": "address",
          "name": "",
          "type": "address"
        }
      ],
      "stateMutability": "view",
      "type": "function"
    },
    {
      "inputs": [
        {
          "internalType": "address",
          "name": "",
          "type": "address"
        }
      ],
      "name": "getFAssetsBackedByPool",
      "outputs": [
        {
          "internalType": "uint256",
          "name": "",
          "type": "uint256"
        }
      ],
      "stateMutability": "view",
      "type": "function"
    },
    {
      "inputs": [],
      "name": "getLotSize",
      "outputs": [
        {
          "internalType": "uint256",
          "name": "",
          "type": "uint256"
        }
      ],
      "stateMutability": "pure",
      "type": "function"
    },
    {
      "inputs": [],
      "name": "getWNat",
      "outputs": [
        {
          "internalType": "contract IWNat",
          "name": "",
          "type": "address"
        }
      ],
      "stateMutability": "view",
      "type": "function"
    },
    {
      "inputs": [
        {
          "internalType": "address",
          "name": "",
          "type": "address"
        },
        {
          "internalType": "address",
          "name": "_address",
          "type": "address"
        }
      ],
      "name": "isAgentVaultOwner",
      "outputs": [
        {
          "internalType": "bool",
          "name": "",
          "type": "bool"
        }
      ],
      "stateMutability": "view",
      "type": "function"
    },
    {
      "inputs": [
        {
          "internalType": "contract IAgentVault",
          "name": "_agentVault",
          "type": "address"
        },
        {
          "internalType": "address payable",
          "name": "_recipient",
          "type": "address"
        },
        {
          "internalType": "uint256",
          "name": "_amount",
          "type": "uint256"
        }
      ],
      "name": "payoutNAT",
      "outputs": [],
      "stateMutability": "nonpayable",
      "type": "function"
    },
    {
      "inputs": [
        {
          "internalType": "address",
          "name": "",
          "type": "address"
        },
        {
          "internalType": "address",
          "name": "",
          "type": "address"
        },
        {
          "internalType": "uint256",
          "name": "_amountUBA",
          "type": "uint256"
        },
        {
          "internalType": "string",
          "name": "",
          "type": "string"
        }
      ],
      "name": "redeemFromAgent",
      "outputs": [],
      "stateMutability": "nonpayable",
      "type": "function"
    },
    {
      "inputs": [
        {
          "internalType": "address",
          "name": "",
          "type": "address"
        },
        {
          "internalType": "address",
          "name": "",
          "type": "address"
        },
        {
          "internalType": "uint256",
          "name": "_amountUBA",
          "type": "uint256"
        }
      ],
      "name": "redeemFromAgentInCollateral",
      "outputs": [],
      "stateMutability": "nonpayable",
      "type": "function"
    },
    {
      "inputs": [
        {
          "internalType": "contract ERC20Mock",
          "name": "_fasset",
          "type": "address"
        }
      ],
      "name": "registerFAssetForCollateralPool",
      "outputs": [],
      "stateMutability": "nonpayable",
      "type": "function"
    },
    {
      "inputs": [
        {
          "internalType": "bool",
          "name": "_check",
          "type": "bool"
        }
      ],
      "name": "setCheckForValidAgentVaultAddress",
      "outputs": [],
      "stateMutability": "nonpayable",
      "type": "function"
    },
    {
      "inputs": [
        {
          "internalType": "address",
          "name": "pool",
          "type": "address"
        }
      ],
      "name": "setCollateralPool",
      "outputs": [],
      "stateMutability": "nonpayable",
      "type": "function"
    },
    {
      "inputs": [
        {
          "internalType": "address",
          "name": "_owner",
          "type": "address"
        }
      ],
      "name": "setCommonOwner",
      "outputs": [],
      "stateMutability": "nonpayable",
      "type": "function"
    }
  ],
  "bytecode": "0x60806040526002805460ff60a01b1916600160a01b17905534801561002357600080fd5b5060405161096238038061096283398101604081905261004291610067565b600080546001600160a01b0319166001600160a01b0392909216919091179055610097565b60006020828403121561007957600080fd5b81516001600160a01b038116811461009057600080fd5b9392505050565b6108bc806100a66000396000f3fe608060405234801561001057600080fd5b50600436106101165760003560e01c80637c7db1a5116100a2578063d6b93a9f11610071578063d6b93a9f146102d8578063ecaf1cdf1461030c578063ed000b301461031d578063ed3762aa14610330578063f060b3f11461034357600080fd5b80637c7db1a5146102905780639193e95a146102a1578063a5b0baac146102b4578063b5a488a6146102c757600080fd5b80635252f3a2116100e95780635252f3a2146101aa578063648d0878146101e05780636e61164f146101f3578063716a5eb41461023457806373461c311461026457600080fd5b806302312aec1461011b5780630a4b9ec2146101355780631ba288781461014a57806337bf13ad1461017a575b600080fd5b604080516001815260026020820152015b60405180910390f35b6101486101433660046105be565b610356565b005b6101486101583660046105be565b600380546001600160a01b0319166001600160a01b0392909216919091179055565b6101486101883660046105be565b600180546001600160a01b0319166001600160a01b0392909216919091179055565b6101c86101b83660046105be565b506003546001600160a01b031690565b6040516001600160a01b03909116815260200161012c565b6101486101ee3660046105e2565b6103d4565b6102146102013660046105be565b506002546001600160a01b031690600090565b604080516001600160a01b0393841681529290911660208301520161012c565b6101486102423660046105be565b600280546001600160a01b0319166001600160a01b0392909216919091179055565b610148610272366004610623565b60028054911515600160a01b0260ff60a01b19909216919091179055565b6001546001600160a01b03166101c8565b6101486102af3660046106d1565b61043b565b6001546101c8906001600160a01b031681565b6000546001600160a01b03166101c8565b6102fc6102e6366004610735565b6002546001600160a01b03908116911614919050565b604051901515815260200161012c565b60015b60405190815260200161012c565b61014861032b3660046105e2565b6104c4565b61030f61033e3660046105be565b6104fc565b61014861035136600461076e565b610570565b600280546001600160a01b0381166001600160a01b03199091161790819055600160a01b900460ff16156103d15760405162461bcd60e51b815260206004820152601b60248201527f696e76616c6964206167656e74207661756c742061646472657373000000000060448201526064015b60405180910390fd5b50565b60405163a0fe8afb60e01b81526001600160a01b0383811660048301526024820183905284169063a0fe8afb90604401600060405180830381600087803b15801561041e57600080fd5b505af1158015610432573d6000803e3d6000fd5b50505050505050565b600080836001600160a01b031683604051610456919061081e565b6000604051808303816000865af19150503d8060008114610493576040519150601f19603f3d011682016040523d82523d6000602084013e610498565b606091505b50915091508181906104bd5760405162461bcd60e51b81526004016103c8919061083a565b5050505050565b6040518181527fffeb190f8352ac1065983b3497e5e86f5113112de90fe8a9b9c65441ff0227619060200160405180910390a1505050565b600154604080516318160ddd60e01b815290516000926001600160a01b0316916318160ddd9160048083019260209291908290030181865afa158015610546573d6000803e3d6000fd5b505050506040513d601f19601f8201168201806040525081019061056a919061086d565b92915050565b6040518281527f234aa8d59026b7399dfd9652a55955addf8ab03f8cecf08bae9dd898cc5e94889060200160405180910390a150505050565b6001600160a01b03811681146103d157600080fd5b6000602082840312156105d057600080fd5b81356105db816105a9565b9392505050565b6000806000606084860312156105f757600080fd5b8335610602816105a9565b92506020840135610612816105a9565b929592945050506040919091013590565b60006020828403121561063557600080fd5b813580151581146105db57600080fd5b634e487b7160e01b600052604160045260246000fd5b600067ffffffffffffffff8084111561067657610676610645565b604051601f8501601f19908116603f0116810190828211818310171561069e5761069e610645565b816040528093508581528686860111156106b757600080fd5b858560208301376000602087830101525050509392505050565b600080604083850312156106e457600080fd5b82356106ef816105a9565b9150602083013567ffffffffffffffff81111561070b57600080fd5b8301601f8101851361071c57600080fd5b61072b8582356020840161065b565b9150509250929050565b6000806040838503121561074857600080fd5b8235610753816105a9565b91506020830135610763816105a9565b809150509250929050565b6000806000806080858703121561078457600080fd5b843561078f816105a9565b9350602085013561079f816105a9565b925060408501359150606085013567ffffffffffffffff8111156107c257600080fd5b8501601f810187136107d357600080fd5b6107e28782356020840161065b565b91505092959194509250565b60005b838110156108095781810151838201526020016107f1565b83811115610818576000848401525b50505050565b600082516108308184602087016107ee565b9190910192915050565b60208152600082518060208401526108598160408501602087016107ee565b601f01601f19169190910160400192915050565b60006020828403121561087f57600080fd5b505191905056fea264697066735822122037d25d0e6695decaa37b67f9e338cfe723e8556dc970bb1ead1a580b4f8bb85164736f6c634300080b0033",
  "linkReferences": {},
  "deployedLinkReferences": {}
}