{
  "_format": "hh-sol-artifact-1",
  "contractName": "AssetManagerMock",
  "sourceName": "contracts/fasset/mock/AssetManagerMock.sol",
  "abi": [
    {
      "inputs": [
        {
          "internalType": "contract IWNat",
          "name": "_wNat",
          "type": "address"
        }
      ],
      "stateMutability": "nonpayable",
      "type": "constructor"
    },
    {
      "inputs": [],
      "name": "getWNat",
      "outputs": [
        {
          "internalType": "contract IWNat",
          "name": "",
          "type": "address"
        }
      ],
      "stateMutability": "view",
      "type": "function"
    },
    {
      "inputs": [
        {
          "internalType": "contract IAgentVault",
          "name": "_agentVault",
          "type": "address"
        },
        {
          "internalType": "address payable",
          "name": "_recipient",
          "type": "address"
        },
        {
          "internalType": "uint256",
          "name": "_amount",
          "type": "uint256"
        }
      ],
      "name": "payoutNAT",
      "outputs": [],
      "stateMutability": "nonpayable",
      "type": "function"
    }
  ],
  "bytecode": "0x608060405234801561001057600080fd5b5060405161020438038061020483398101604081905261002f91610054565b600080546001600160a01b0319166001600160a01b0392909216919091179055610084565b60006020828403121561006657600080fd5b81516001600160a01b038116811461007d57600080fd5b9392505050565b610171806100936000396000f3fe608060405234801561001057600080fd5b50600436106100365760003560e01c8063648d08781461003b578063b5a488a614610050575b600080fd5b61004e6100493660046100fa565b61006f565b005b600054604080516001600160a01b039092168252519081900360200190f35b600054604051630c91a10f60e31b81526001600160a01b0391821660048201528382166024820152604481018390529084169063648d087890606401600060405180830381600087803b1580156100c557600080fd5b505af11580156100d9573d6000803e3d6000fd5b50505050505050565b6001600160a01b03811681146100f757600080fd5b50565b60008060006060848603121561010f57600080fd5b833561011a816100e2565b9250602084013561012a816100e2565b92959294505050604091909101359056fea2646970667358221220165eebceb3d0b349160e1d808d5a8a8f9ed3741c2882066dd0ffddcd89f5e4f164736f6c634300080b0033",
  "linkReferences": {},
  "deployedLinkReferences": {}
}