{
  "_format": "hh-sol-artifact-1",
  "contractName": "AssetManagerMock",
  "sourceName": "contracts/fasset/mock/AssetManagerMock.sol",
  "abi": [
    {
      "inputs": [
        {
          "internalType": "contract IWNat",
          "name": "_wNat",
          "type": "address"
        }
      ],
      "stateMutability": "nonpayable",
      "type": "constructor"
    },
    {
      "anonymous": false,
      "inputs": [
        {
          "indexed": false,
          "internalType": "uint256",
          "name": "_amountUBA",
          "type": "uint256"
        }
      ],
      "name": "AgentRedemption",
      "type": "event"
    },
    {
      "anonymous": false,
      "inputs": [
        {
          "indexed": false,
          "internalType": "uint256",
          "name": "_amountUBA",
          "type": "uint256"
        }
      ],
      "name": "AgentRedemptionInCollateral",
      "type": "event"
    },
    {
      "inputs": [],
      "name": "assetPriceNatWei",
      "outputs": [
        {
          "internalType": "uint256",
          "name": "",
          "type": "uint256"
        },
        {
          "internalType": "uint256",
          "name": "",
          "type": "uint256"
        }
      ],
      "stateMutability": "pure",
      "type": "function"
    },
    {
      "inputs": [
        {
          "internalType": "address",
          "name": "_contract",
          "type": "address"
        },
        {
          "internalType": "bytes",
          "name": "_payload",
          "type": "bytes"
        }
      ],
      "name": "callFunctionAt",
      "outputs": [],
      "stateMutability": "nonpayable",
      "type": "function"
    },
    {
      "inputs": [],
      "name": "fasset",
      "outputs": [
        {
          "internalType": "contract ERC20Mock",
          "name": "",
          "type": "address"
        }
      ],
      "stateMutability": "view",
      "type": "function"
    },
    {
      "inputs": [
        {
          "internalType": "address",
          "name": "",
          "type": "address"
        }
      ],
      "name": "getFAssetsBackedByPool",
      "outputs": [
        {
          "internalType": "uint256",
          "name": "",
          "type": "uint256"
        }
      ],
      "stateMutability": "view",
      "type": "function"
    },
    {
      "inputs": [],
      "name": "getLotSize",
      "outputs": [
        {
          "internalType": "uint256",
          "name": "",
          "type": "uint256"
        }
      ],
      "stateMutability": "pure",
      "type": "function"
    },
    {
      "inputs": [],
      "name": "getWNat",
      "outputs": [
        {
          "internalType": "contract IWNat",
          "name": "",
          "type": "address"
        }
      ],
      "stateMutability": "view",
      "type": "function"
    },
    {
      "inputs": [
        {
          "internalType": "contract IAgentVault",
          "name": "_agentVault",
          "type": "address"
        },
        {
          "internalType": "address payable",
          "name": "_recipient",
          "type": "address"
        },
        {
          "internalType": "uint256",
          "name": "_amount",
          "type": "uint256"
        }
      ],
      "name": "payoutNAT",
      "outputs": [],
      "stateMutability": "nonpayable",
      "type": "function"
    },
    {
      "inputs": [
        {
          "internalType": "address",
          "name": "",
          "type": "address"
        },
        {
          "internalType": "address",
          "name": "",
          "type": "address"
        },
        {
          "internalType": "uint256",
          "name": "_amountUBA",
          "type": "uint256"
        },
        {
          "internalType": "string",
          "name": "",
          "type": "string"
        }
      ],
      "name": "redeemFromAgent",
      "outputs": [],
      "stateMutability": "nonpayable",
      "type": "function"
    },
    {
      "inputs": [
        {
          "internalType": "address",
          "name": "",
          "type": "address"
        },
        {
          "internalType": "address",
          "name": "",
          "type": "address"
        },
        {
          "internalType": "uint256",
          "name": "_amountUBA",
          "type": "uint256"
        }
      ],
      "name": "redeemFromAgentInCollateral",
      "outputs": [],
      "stateMutability": "nonpayable",
      "type": "function"
    },
    {
      "inputs": [
        {
          "internalType": "contract ERC20Mock",
          "name": "_fasset",
          "type": "address"
        }
      ],
      "name": "registerFAssetForCollateralPool",
      "outputs": [],
      "stateMutability": "nonpayable",
      "type": "function"
    }
  ],
  "bytecode": "0x608060405234801561001057600080fd5b506040516106c73803806106c783398101604081905261002f91610054565b600080546001600160a01b0319166001600160a01b0392909216919091179055610084565b60006020828403121561006657600080fd5b81516001600160a01b038116811461007d57600080fd5b9392505050565b610634806100936000396000f3fe608060405234801561001057600080fd5b506004361061009e5760003560e01c8063b5a488a611610066578063b5a488a614610140578063ecaf1cdf14610151578063ed000b3014610162578063ed3762aa14610175578063f060b3f11461018857600080fd5b806302312aec146100a357806337bf13ad146100bd578063648d0878146100ef5780639193e95a14610102578063a5b0baac14610115575b600080fd5b604080516001815260026020820152015b60405180910390f35b6100ed6100cb366004610391565b600180546001600160a01b0319166001600160a01b0392909216919091179055565b005b6100ed6100fd3660046103b5565b61019b565b6100ed610110366004610482565b610202565b600154610128906001600160a01b031681565b6040516001600160a01b0390911681526020016100b4565b6000546001600160a01b0316610128565b60015b6040519081526020016100b4565b6100ed6101703660046103b5565b610294565b610154610183366004610391565b6102cc565b6100ed6101963660046104e6565b610340565b60405163a0fe8afb60e01b81526001600160a01b0383811660048301526024820183905284169063a0fe8afb90604401600060405180830381600087803b1580156101e557600080fd5b505af11580156101f9573d6000803e3d6000fd5b50505050505050565b600080836001600160a01b03168360405161021d9190610596565b6000604051808303816000865af19150503d806000811461025a576040519150601f19603f3d011682016040523d82523d6000602084013e61025f565b606091505b509150915081819061028d5760405162461bcd60e51b815260040161028491906105b2565b60405180910390fd5b5050505050565b6040518181527fffeb190f8352ac1065983b3497e5e86f5113112de90fe8a9b9c65441ff0227619060200160405180910390a1505050565b600154604080516318160ddd60e01b815290516000926001600160a01b0316916318160ddd9160048083019260209291908290030181865afa158015610316573d6000803e3d6000fd5b505050506040513d601f19601f8201168201806040525081019061033a91906105e5565b92915050565b6040518281527f234aa8d59026b7399dfd9652a55955addf8ab03f8cecf08bae9dd898cc5e94889060200160405180910390a150505050565b6001600160a01b038116811461038e57600080fd5b50565b6000602082840312156103a357600080fd5b81356103ae81610379565b9392505050565b6000806000606084860312156103ca57600080fd5b83356103d581610379565b925060208401356103e581610379565b929592945050506040919091013590565b634e487b7160e01b600052604160045260246000fd5b600067ffffffffffffffff80841115610427576104276103f6565b604051601f8501601f19908116603f0116810190828211818310171561044f5761044f6103f6565b8160405280935085815286868601111561046857600080fd5b858560208301376000602087830101525050509392505050565b6000806040838503121561049557600080fd5b82356104a081610379565b9150602083013567ffffffffffffffff8111156104bc57600080fd5b8301601f810185136104cd57600080fd5b6104dc8582356020840161040c565b9150509250929050565b600080600080608085870312156104fc57600080fd5b843561050781610379565b9350602085013561051781610379565b925060408501359150606085013567ffffffffffffffff81111561053a57600080fd5b8501601f8101871361054b57600080fd5b61055a8782356020840161040c565b91505092959194509250565b60005b83811015610581578181015183820152602001610569565b83811115610590576000848401525b50505050565b600082516105a8818460208701610566565b9190910192915050565b60208152600082518060208401526105d1816040850160208701610566565b601f01601f19169190910160400192915050565b6000602082840312156105f757600080fd5b505191905056fea26469706673582212206e7b0a7d39cfb67a3665c5ff7b78182751918948146baf26dfc83f563c2a8a4c64736f6c634300080b0033",
  "linkReferences": {},
  "deployedLinkReferences": {}
}