{
  "_format": "hh-sol-artifact-1",
  "contractName": "AssetManagerMock",
  "sourceName": "contracts/fasset/mock/AssetManagerMock.sol",
  "abi": [
    {
      "inputs": [
        {
          "internalType": "contract IWNat",
          "name": "_wNat",
          "type": "address"
        }
      ],
      "stateMutability": "nonpayable",
      "type": "constructor"
    },
    {
      "anonymous": false,
      "inputs": [
        {
          "indexed": false,
          "internalType": "uint256",
          "name": "_amountUBA",
          "type": "uint256"
        }
      ],
      "name": "AgentRedemption",
      "type": "event"
    },
    {
      "anonymous": false,
      "inputs": [
        {
          "indexed": false,
          "internalType": "uint256",
          "name": "_amountUBA",
          "type": "uint256"
        }
      ],
      "name": "AgentRedemptionInCollateral",
      "type": "event"
    },
    {
      "inputs": [],
      "name": "assetPriceNatWei",
      "outputs": [
        {
          "internalType": "uint256",
          "name": "",
          "type": "uint256"
        },
        {
          "internalType": "uint256",
          "name": "",
          "type": "uint256"
        }
      ],
      "stateMutability": "pure",
      "type": "function"
    },
    {
      "inputs": [
        {
          "internalType": "address",
          "name": "_contract",
          "type": "address"
        },
        {
          "internalType": "bytes",
          "name": "_payload",
          "type": "bytes"
        }
      ],
      "name": "callFunctionAt",
      "outputs": [],
      "stateMutability": "nonpayable",
      "type": "function"
    },
    {
      "inputs": [
        {
          "internalType": "address",
          "name": "",
          "type": "address"
        },
        {
          "internalType": "contract IERC20",
          "name": "",
          "type": "address"
        }
      ],
      "name": "collateralDeposited",
      "outputs": [],
      "stateMutability": "nonpayable",
      "type": "function"
    },
    {
      "inputs": [],
      "name": "fAsset",
      "outputs": [
        {
          "internalType": "contract IERC20",
          "name": "",
          "type": "address"
        }
      ],
      "stateMutability": "view",
      "type": "function"
    },
    {
      "inputs": [],
      "name": "fasset",
      "outputs": [
        {
          "internalType": "contract ERC20Mock",
          "name": "",
          "type": "address"
        }
      ],
      "stateMutability": "view",
      "type": "function"
    },
    {
      "inputs": [
        {
          "internalType": "address",
          "name": "",
          "type": "address"
        }
      ],
      "name": "getAgentVaultOwner",
      "outputs": [
        {
          "internalType": "address",
          "name": "_ownerColdAddress",
          "type": "address"
        },
        {
          "internalType": "address",
          "name": "_ownerHotAddress",
          "type": "address"
        }
      ],
      "stateMutability": "view",
      "type": "function"
    },
    {
      "inputs": [
        {
          "internalType": "address",
          "name": "",
          "type": "address"
        }
      ],
      "name": "getCollateralPool",
      "outputs": [
        {
          "internalType": "address",
          "name": "",
          "type": "address"
        }
      ],
      "stateMutability": "view",
      "type": "function"
    },
    {
      "inputs": [
        {
          "internalType": "address",
          "name": "",
          "type": "address"
        }
      ],
      "name": "getFAssetsBackedByPool",
      "outputs": [
        {
          "internalType": "uint256",
          "name": "",
          "type": "uint256"
        }
      ],
      "stateMutability": "view",
      "type": "function"
    },
    {
      "inputs": [],
      "name": "getWNat",
      "outputs": [
        {
          "internalType": "contract IWNat",
          "name": "",
          "type": "address"
        }
      ],
      "stateMutability": "view",
      "type": "function"
    },
    {
      "inputs": [
        {
          "internalType": "address",
          "name": "",
          "type": "address"
        },
        {
          "internalType": "address",
          "name": "_address",
          "type": "address"
        }
      ],
      "name": "isAgentVaultOwner",
      "outputs": [
        {
          "internalType": "bool",
          "name": "",
          "type": "bool"
        }
      ],
      "stateMutability": "view",
      "type": "function"
    },
    {
      "inputs": [],
      "name": "lotSize",
      "outputs": [
        {
          "internalType": "uint256",
          "name": "",
          "type": "uint256"
        }
      ],
      "stateMutability": "pure",
      "type": "function"
    },
    {
      "inputs": [
        {
          "internalType": "address",
          "name": "",
          "type": "address"
        }
      ],
      "name": "maxRedemptionFromAgent",
      "outputs": [
        {
          "internalType": "uint256",
          "name": "",
          "type": "uint256"
        }
      ],
      "stateMutability": "pure",
      "type": "function"
    },
    {
      "inputs": [
        {
          "internalType": "contract IIAgentVault",
          "name": "_agentVault",
          "type": "address"
        },
        {
          "internalType": "address payable",
          "name": "_recipient",
          "type": "address"
        },
        {
          "internalType": "uint256",
          "name": "_amount",
          "type": "uint256"
        }
      ],
      "name": "payoutNAT",
      "outputs": [],
      "stateMutability": "nonpayable",
      "type": "function"
    },
    {
      "inputs": [
        {
          "internalType": "address",
          "name": "",
          "type": "address"
        },
        {
          "internalType": "address",
          "name": "",
          "type": "address"
        },
        {
          "internalType": "uint256",
          "name": "_amountUBA",
          "type": "uint256"
        },
        {
          "internalType": "string",
          "name": "",
          "type": "string"
        }
      ],
      "name": "redeemFromAgent",
      "outputs": [],
      "stateMutability": "nonpayable",
      "type": "function"
    },
    {
      "inputs": [
        {
          "internalType": "address",
          "name": "",
          "type": "address"
        },
        {
          "internalType": "address",
          "name": "",
          "type": "address"
        },
        {
          "internalType": "uint256",
          "name": "_amountUBA",
          "type": "uint256"
        }
      ],
      "name": "redeemFromAgentInCollateral",
      "outputs": [],
      "stateMutability": "nonpayable",
      "type": "function"
    },
    {
      "inputs": [
        {
          "internalType": "contract ERC20Mock",
          "name": "_fasset",
          "type": "address"
        }
      ],
      "name": "registerFAssetForCollateralPool",
      "outputs": [],
      "stateMutability": "nonpayable",
      "type": "function"
    },
    {
      "inputs": [
        {
          "internalType": "bool",
          "name": "_check",
          "type": "bool"
        }
      ],
      "name": "setCheckForValidAgentVaultAddress",
      "outputs": [],
      "stateMutability": "nonpayable",
      "type": "function"
    },
    {
      "inputs": [
        {
          "internalType": "address",
          "name": "pool",
          "type": "address"
        }
      ],
      "name": "setCollateralPool",
      "outputs": [],
      "stateMutability": "nonpayable",
      "type": "function"
    },
    {
      "inputs": [
        {
          "internalType": "address",
          "name": "_owner",
          "type": "address"
        }
      ],
      "name": "setCommonOwner",
      "outputs": [],
      "stateMutability": "nonpayable",
      "type": "function"
    }
  ],
  "bytecode": "0x60806040526002805460ff60a01b1916600160a01b17905534801561002357600080fd5b50604051610a52380380610a5283398101604081905261004291610067565b600080546001600160a01b0319166001600160a01b0392909216919091179055610097565b60006020828403121561007957600080fd5b81516001600160a01b038116811461009057600080fd5b9392505050565b6109ac806100a66000396000f3fe608060405234801561001057600080fd5b50600436106101215760003560e01c8063716a5eb4116100ad578063b5a488a611610071578063b5a488a6146102fc578063d6b93a9f1461030d578063ed000b3014610341578063ed3762aa14610354578063f060b3f11461036757600080fd5b8063716a5eb41461026957806373461c31146102995780637c7db1a5146102c55780639193e95a146102d6578063a5b0baac146102e957600080fd5b80634942f65f116100f45780634942f65f146101c557806351c452bf146101cc5780635252f3a2146101df578063648d0878146102155780636e61164f1461022857600080fd5b806302312aec146101265780631ba28878146101405780631e8bee011461017257806337bf13ad14610195575b600080fd5b604080516001815260026020820152015b60405180910390f35b61017061014e3660046106ba565b600380546001600160a01b0319166001600160a01b0392909216919091179055565b005b6101876101803660046106ba565b5060001990565b604051908152602001610137565b6101706101a33660046106ba565b600180546001600160a01b0319166001600160a01b0392909216919091179055565b6001610187565b6101706101da3660046106de565b61037a565b6101fd6101ed3660046106ba565b506003546001600160a01b031690565b6040516001600160a01b039091168152602001610137565b610170610223366004610717565b6103f9565b6102496102363660046106ba565b506002546001600160a01b031690600090565b604080516001600160a01b03938416815292909116602083015201610137565b6101706102773660046106ba565b600280546001600160a01b0319166001600160a01b0392909216919091179055565b6101706102a7366004610758565b60028054911515600160a01b0260ff60a01b19909216919091179055565b6001546001600160a01b03166101fd565b6101706102e4366004610806565b610460565b6001546101fd906001600160a01b031681565b6000546001600160a01b03166101fd565b61033161031b3660046106de565b6002546001600160a01b03908116911614919050565b6040519015158152602001610137565b61017061034f366004610717565b6104e9565b6101876103623660046106ba565b61058b565b61017061037536600461086a565b6105ff565b600280546001600160a01b0381166001600160a01b03199091161790819055600160a01b900460ff16156103f55760405162461bcd60e51b815260206004820152601b60248201527f696e76616c6964206167656e74207661756c742061646472657373000000000060448201526064015b60405180910390fd5b5050565b60405163a0fe8afb60e01b81526001600160a01b0383811660048301526024820183905284169063a0fe8afb90604401600060405180830381600087803b15801561044357600080fd5b505af1158015610457573d6000803e3d6000fd5b50505050505050565b600080836001600160a01b03168360405161047b919061090e565b6000604051808303816000865af19150503d80600081146104b8576040519150601f19603f3d011682016040523d82523d6000602084013e6104bd565b606091505b50915091508181906104e25760405162461bcd60e51b81526004016103ec919061092a565b5050505050565b60015460405163fb8bd26f60e01b8152336004820152602481018390526001600160a01b039091169063fb8bd26f90604401600060405180830381600087803b15801561053557600080fd5b505af1158015610549573d6000803e3d6000fd5b505050507fffeb190f8352ac1065983b3497e5e86f5113112de90fe8a9b9c65441ff0227618160405161057e91815260200190565b60405180910390a1505050565b600154604080516318160ddd60e01b815290516000926001600160a01b0316916318160ddd9160048083019260209291908290030181865afa1580156105d5573d6000803e3d6000fd5b505050506040513d601f19601f820116820180604052508101906105f9919061095d565b92915050565b60015460405163fb8bd26f60e01b8152336004820152602481018490526001600160a01b039091169063fb8bd26f90604401600060405180830381600087803b15801561064b57600080fd5b505af115801561065f573d6000803e3d6000fd5b505050507f234aa8d59026b7399dfd9652a55955addf8ab03f8cecf08bae9dd898cc5e94888260405161069491815260200190565b60405180910390a150505050565b6001600160a01b03811681146106b757600080fd5b50565b6000602082840312156106cc57600080fd5b81356106d7816106a2565b9392505050565b600080604083850312156106f157600080fd5b82356106fc816106a2565b9150602083013561070c816106a2565b809150509250929050565b60008060006060848603121561072c57600080fd5b8335610737816106a2565b92506020840135610747816106a2565b929592945050506040919091013590565b60006020828403121561076a57600080fd5b813580151581146106d757600080fd5b634e487b7160e01b600052604160045260246000fd5b600067ffffffffffffffff808411156107ab576107ab61077a565b604051601f8501601f19908116603f011681019082821181831017156107d3576107d361077a565b816040528093508581528686860111156107ec57600080fd5b858560208301376000602087830101525050509392505050565b6000806040838503121561081957600080fd5b8235610824816106a2565b9150602083013567ffffffffffffffff81111561084057600080fd5b8301601f8101851361085157600080fd5b61086085823560208401610790565b9150509250929050565b6000806000806080858703121561088057600080fd5b843561088b816106a2565b9350602085013561089b816106a2565b925060408501359150606085013567ffffffffffffffff8111156108be57600080fd5b8501601f810187136108cf57600080fd5b6108de87823560208401610790565b91505092959194509250565b60005b838110156109055781810151838201526020016108ed565b50506000910152565b600082516109208184602087016108ea565b9190910192915050565b60208152600082518060208401526109498160408501602087016108ea565b601f01601f19169190910160400192915050565b60006020828403121561096f57600080fd5b505191905056fea26469706673582212203408169ccb0f5042f23abf85b50ae3b7b8ade1de8388c393aaaa863cdf25d73264736f6c63430008140033",
  "linkReferences": {},
  "deployedLinkReferences": {}
}