{
  "_format": "hh-sol-artifact-1",
  "contractName": "AssetManagerMock",
  "sourceName": "contracts/fasset/mock/AssetManagerMock.sol",
  "abi": [
    {
      "inputs": [
        {
          "internalType": "contract IWNat",
          "name": "_wNat",
          "type": "address"
        }
      ],
      "stateMutability": "nonpayable",
      "type": "constructor"
    },
    {
      "anonymous": false,
      "inputs": [
        {
          "indexed": false,
          "internalType": "uint256",
          "name": "_amountUBA",
          "type": "uint256"
        }
      ],
      "name": "AgentRedemption",
      "type": "event"
    },
    {
      "anonymous": false,
      "inputs": [
        {
          "indexed": false,
          "internalType": "uint256",
          "name": "_amountUBA",
          "type": "uint256"
        }
      ],
      "name": "AgentRedemptionInCollateral",
      "type": "event"
    },
    {
      "inputs": [],
      "name": "assetPriceNatWei",
      "outputs": [
        {
          "internalType": "uint256",
          "name": "",
          "type": "uint256"
        },
        {
          "internalType": "uint256",
          "name": "",
          "type": "uint256"
        }
      ],
      "stateMutability": "pure",
      "type": "function"
    },
    {
      "inputs": [
        {
          "internalType": "address",
          "name": "_contract",
          "type": "address"
        },
        {
          "internalType": "bytes",
          "name": "_payload",
          "type": "bytes"
        }
      ],
      "name": "callFunctionAt",
      "outputs": [],
      "stateMutability": "nonpayable",
      "type": "function"
    },
    {
      "inputs": [
        {
          "internalType": "contract IERC20",
          "name": "",
          "type": "address"
        }
      ],
      "name": "collateralDeposited",
      "outputs": [],
      "stateMutability": "nonpayable",
      "type": "function"
    },
    {
      "inputs": [],
      "name": "fasset",
      "outputs": [
        {
          "internalType": "contract ERC20Mock",
          "name": "",
          "type": "address"
        }
      ],
      "stateMutability": "view",
      "type": "function"
    },
    {
      "inputs": [
        {
          "internalType": "address",
          "name": "",
          "type": "address"
        }
      ],
      "name": "getAgentVaultOwner",
      "outputs": [
        {
          "internalType": "address",
          "name": "_ownerColdAddress",
          "type": "address"
        },
        {
          "internalType": "address",
          "name": "_ownerHotAddress",
          "type": "address"
        }
      ],
      "stateMutability": "view",
      "type": "function"
    },
    {
      "inputs": [
        {
          "internalType": "address",
          "name": "",
          "type": "address"
        }
      ],
      "name": "getFAssetsBackedByPool",
      "outputs": [
        {
          "internalType": "uint256",
          "name": "",
          "type": "uint256"
        }
      ],
      "stateMutability": "view",
      "type": "function"
    },
    {
      "inputs": [],
      "name": "getLotSize",
      "outputs": [
        {
          "internalType": "uint256",
          "name": "",
          "type": "uint256"
        }
      ],
      "stateMutability": "pure",
      "type": "function"
    },
    {
      "inputs": [],
      "name": "getWNat",
      "outputs": [
        {
          "internalType": "contract IWNat",
          "name": "",
          "type": "address"
        }
      ],
      "stateMutability": "view",
      "type": "function"
    },
    {
      "inputs": [
        {
          "internalType": "address",
          "name": "",
          "type": "address"
        },
        {
          "internalType": "address",
          "name": "_address",
          "type": "address"
        }
      ],
      "name": "isAgentVaultOwner",
      "outputs": [
        {
          "internalType": "bool",
          "name": "",
          "type": "bool"
        }
      ],
      "stateMutability": "view",
      "type": "function"
    },
    {
      "inputs": [
        {
          "internalType": "contract IAgentVault",
          "name": "_agentVault",
          "type": "address"
        },
        {
          "internalType": "address payable",
          "name": "_recipient",
          "type": "address"
        },
        {
          "internalType": "uint256",
          "name": "_amount",
          "type": "uint256"
        }
      ],
      "name": "payoutNAT",
      "outputs": [],
      "stateMutability": "nonpayable",
      "type": "function"
    },
    {
      "inputs": [
        {
          "internalType": "address",
          "name": "",
          "type": "address"
        },
        {
          "internalType": "address",
          "name": "",
          "type": "address"
        },
        {
          "internalType": "uint256",
          "name": "_amountUBA",
          "type": "uint256"
        },
        {
          "internalType": "string",
          "name": "",
          "type": "string"
        }
      ],
      "name": "redeemFromAgent",
      "outputs": [],
      "stateMutability": "nonpayable",
      "type": "function"
    },
    {
      "inputs": [
        {
          "internalType": "address",
          "name": "",
          "type": "address"
        },
        {
          "internalType": "address",
          "name": "",
          "type": "address"
        },
        {
          "internalType": "uint256",
          "name": "_amountUBA",
          "type": "uint256"
        }
      ],
      "name": "redeemFromAgentInCollateral",
      "outputs": [],
      "stateMutability": "nonpayable",
      "type": "function"
    },
    {
      "inputs": [
        {
          "internalType": "contract ERC20Mock",
          "name": "_fasset",
          "type": "address"
        }
      ],
      "name": "registerFAssetForCollateralPool",
      "outputs": [],
      "stateMutability": "nonpayable",
      "type": "function"
    },
    {
      "inputs": [
        {
          "internalType": "address",
          "name": "_owner",
          "type": "address"
        }
      ],
      "name": "setCommonOwner",
      "outputs": [],
      "stateMutability": "nonpayable",
      "type": "function"
    }
  ],
  "bytecode": "0x608060405234801561001057600080fd5b5060405161086538038061086583398101604081905261002f91610054565b600080546001600160a01b0319166001600160a01b0392909216919091179055610084565b60006020828403121561006657600080fd5b81516001600160a01b038116811461007d57600080fd5b9392505050565b6107d2806100936000396000f3fe608060405234801561001057600080fd5b50600436106100ea5760003560e01c8063a5b0baac1161008c578063ecaf1cdf11610066578063ecaf1cdf14610255578063ed000b3014610266578063ed3762aa14610279578063f060b3f11461028c57600080fd5b8063a5b0baac146101e5578063b5a488a614610210578063d6b93a9f1461022157600080fd5b8063648d0878116100c8578063648d08781461014e5780636e61164f14610161578063716a5eb4146101a25780639193e95a146101d257600080fd5b806302312aec146100ef5780630a4b9ec21461010957806337bf13ad1461011e575b600080fd5b604080516001815260026020820152015b60405180910390f35b61011c6101173660046104f6565b61029f565b005b61011c61012c3660046104f6565b600280546001600160a01b0319166001600160a01b0392909216919091179055565b61011c61015c36600461051a565b610309565b61018261016f3660046104f6565b506001546001600160a01b031690600090565b604080516001600160a01b03938416815292909116602083015201610100565b61011c6101b03660046104f6565b600180546001600160a01b0319166001600160a01b0392909216919091179055565b61011c6101e03660046105e7565b610370565b6002546101f8906001600160a01b031681565b6040516001600160a01b039091168152602001610100565b6000546001600160a01b03166101f8565b61024561022f36600461064b565b6001546001600160a01b03908116911614919050565b6040519015158152602001610100565b60015b604051908152602001610100565b61011c61027436600461051a565b6103f9565b6102586102873660046104f6565b610431565b61011c61029a366004610684565b6104a5565b600180546001600160a01b0381166001600160a01b031990911617905560405162461bcd60e51b815260206004820152601b60248201527f696e76616c6964206167656e74207661756c742061646472657373000000000060448201526064015b60405180910390fd5b60405163a0fe8afb60e01b81526001600160a01b0383811660048301526024820183905284169063a0fe8afb90604401600060405180830381600087803b15801561035357600080fd5b505af1158015610367573d6000803e3d6000fd5b50505050505050565b600080836001600160a01b03168360405161038b9190610734565b6000604051808303816000865af19150503d80600081146103c8576040519150601f19603f3d011682016040523d82523d6000602084013e6103cd565b606091505b50915091508181906103f25760405162461bcd60e51b81526004016103009190610750565b5050505050565b6040518181527fffeb190f8352ac1065983b3497e5e86f5113112de90fe8a9b9c65441ff0227619060200160405180910390a1505050565b600254604080516318160ddd60e01b815290516000926001600160a01b0316916318160ddd9160048083019260209291908290030181865afa15801561047b573d6000803e3d6000fd5b505050506040513d601f19601f8201168201806040525081019061049f9190610783565b92915050565b6040518281527f234aa8d59026b7399dfd9652a55955addf8ab03f8cecf08bae9dd898cc5e94889060200160405180910390a150505050565b6001600160a01b03811681146104f357600080fd5b50565b60006020828403121561050857600080fd5b8135610513816104de565b9392505050565b60008060006060848603121561052f57600080fd5b833561053a816104de565b9250602084013561054a816104de565b929592945050506040919091013590565b634e487b7160e01b600052604160045260246000fd5b600067ffffffffffffffff8084111561058c5761058c61055b565b604051601f8501601f19908116603f011681019082821181831017156105b4576105b461055b565b816040528093508581528686860111156105cd57600080fd5b858560208301376000602087830101525050509392505050565b600080604083850312156105fa57600080fd5b8235610605816104de565b9150602083013567ffffffffffffffff81111561062157600080fd5b8301601f8101851361063257600080fd5b61064185823560208401610571565b9150509250929050565b6000806040838503121561065e57600080fd5b8235610669816104de565b91506020830135610679816104de565b809150509250929050565b6000806000806080858703121561069a57600080fd5b84356106a5816104de565b935060208501356106b5816104de565b925060408501359150606085013567ffffffffffffffff8111156106d857600080fd5b8501601f810187136106e957600080fd5b6106f887823560208401610571565b91505092959194509250565b60005b8381101561071f578181015183820152602001610707565b8381111561072e576000848401525b50505050565b60008251610746818460208701610704565b9190910192915050565b602081526000825180602084015261076f816040850160208701610704565b601f01601f19169190910160400192915050565b60006020828403121561079557600080fd5b505191905056fea2646970667358221220a685e55e8f49a16fed08863d78d18493b790d1ab4d355e66d262772f8b758e6264736f6c634300080b0033",
  "linkReferences": {},
  "deployedLinkReferences": {}
}