{
  "_format": "hh-sol-artifact-1",
  "contractName": "AgentVaultManagementFacet",
  "sourceName": "contracts/assetManager/facets/AgentVaultManagementFacet.sol",
  "abi": [
    {
      "anonymous": false,
      "inputs": [
        {
          "indexed": true,
          "internalType": "address",
          "name": "agentVault",
          "type": "address"
        },
        {
          "indexed": false,
          "internalType": "uint256",
          "name": "destroyAllowedAt",
          "type": "uint256"
        }
      ],
      "name": "AgentDestroyAnnounced",
      "type": "event"
    },
    {
      "anonymous": false,
      "inputs": [
        {
          "indexed": true,
          "internalType": "address",
          "name": "agentVault",
          "type": "address"
        }
      ],
      "name": "AgentDestroyed",
      "type": "event"
    },
    {
      "anonymous": false,
      "inputs": [
        {
          "indexed": true,
          "internalType": "address",
          "name": "owner",
          "type": "address"
        },
        {
          "indexed": true,
          "internalType": "address",
          "name": "agentVault",
          "type": "address"
        },
        {
          "components": [
            {
              "internalType": "address",
              "name": "collateralPool",
              "type": "address"
            },
            {
              "internalType": "address",
              "name": "collateralPoolToken",
              "type": "address"
            },
            {
              "internalType": "string",
              "name": "underlyingAddress",
              "type": "string"
            },
            {
              "internalType": "address",
              "name": "vaultCollateralToken",
              "type": "address"
            },
            {
              "internalType": "address",
              "name": "poolWNatToken",
              "type": "address"
            },
            {
              "internalType": "uint256",
              "name": "feeBIPS",
              "type": "uint256"
            },
            {
              "internalType": "uint256",
              "name": "poolFeeShareBIPS",
              "type": "uint256"
            },
            {
              "internalType": "uint256",
              "name": "mintingVaultCollateralRatioBIPS",
              "type": "uint256"
            },
            {
              "internalType": "uint256",
              "name": "mintingPoolCollateralRatioBIPS",
              "type": "uint256"
            },
            {
              "internalType": "uint256",
              "name": "buyFAssetByAgentFactorBIPS",
              "type": "uint256"
            },
            {
              "internalType": "uint256",
              "name": "poolExitCollateralRatioBIPS",
              "type": "uint256"
            },
            {
              "internalType": "uint256",
              "name": "poolTopupCollateralRatioBIPS",
              "type": "uint256"
            },
            {
              "internalType": "uint256",
              "name": "poolTopupTokenPriceFactorBIPS",
              "type": "uint256"
            },
            {
              "internalType": "uint256",
              "name": "handshakeType",
              "type": "uint256"
            }
          ],
          "indexed": false,
          "internalType": "struct IAssetManagerEvents.AgentVaultCreationData",
          "name": "creationData",
          "type": "tuple"
        }
      ],
      "name": "AgentVaultCreated",
      "type": "event"
    },
    {
      "anonymous": false,
      "inputs": [
        {
          "indexed": false,
          "internalType": "uint256",
          "name": "underlyingBlockNumber",
          "type": "uint256"
        },
        {
          "indexed": false,
          "internalType": "uint256",
          "name": "underlyingBlockTimestamp",
          "type": "uint256"
        },
        {
          "indexed": false,
          "internalType": "uint256",
          "name": "updatedAt",
          "type": "uint256"
        }
      ],
      "name": "CurrentUnderlyingBlockUpdated",
      "type": "event"
    },
    {
      "inputs": [
        {
          "internalType": "address",
          "name": "_agentVault",
          "type": "address"
        }
      ],
      "name": "announceDestroyAgent",
      "outputs": [
        {
          "internalType": "uint256",
          "name": "_destroyAllowedAt",
          "type": "uint256"
        }
      ],
      "stateMutability": "nonpayable",
      "type": "function"
    },
    {
      "inputs": [
        {
          "components": [
            {
              "internalType": "bytes32[]",
              "name": "merkleProof",
              "type": "bytes32[]"
            },
            {
              "components": [
                {
                  "internalType": "bytes32",
                  "name": "attestationType",
                  "type": "bytes32"
                },
                {
                  "internalType": "bytes32",
                  "name": "sourceId",
                  "type": "bytes32"
                },
                {
                  "internalType": "uint64",
                  "name": "votingRound",
                  "type": "uint64"
                },
                {
                  "internalType": "uint64",
                  "name": "lowestUsedTimestamp",
                  "type": "uint64"
                },
                {
                  "components": [
                    {
                      "internalType": "string",
                      "name": "addressStr",
                      "type": "string"
                    }
                  ],
                  "internalType": "struct IAddressValidity.RequestBody",
                  "name": "requestBody",
                  "type": "tuple"
                },
                {
                  "components": [
                    {
                      "internalType": "bool",
                      "name": "isValid",
                      "type": "bool"
                    },
                    {
                      "internalType": "string",
                      "name": "standardAddress",
                      "type": "string"
                    },
                    {
                      "internalType": "bytes32",
                      "name": "standardAddressHash",
                      "type": "bytes32"
                    }
                  ],
                  "internalType": "struct IAddressValidity.ResponseBody",
                  "name": "responseBody",
                  "type": "tuple"
                }
              ],
              "internalType": "struct IAddressValidity.Response",
              "name": "data",
              "type": "tuple"
            }
          ],
          "internalType": "struct IAddressValidity.Proof",
          "name": "_addressProof",
          "type": "tuple"
        },
        {
          "components": [
            {
              "internalType": "contract IERC20",
              "name": "vaultCollateralToken",
              "type": "address"
            },
            {
              "internalType": "string",
              "name": "poolTokenSuffix",
              "type": "string"
            },
            {
              "internalType": "uint256",
              "name": "feeBIPS",
              "type": "uint256"
            },
            {
              "internalType": "uint256",
              "name": "poolFeeShareBIPS",
              "type": "uint256"
            },
            {
              "internalType": "uint256",
              "name": "mintingVaultCollateralRatioBIPS",
              "type": "uint256"
            },
            {
              "internalType": "uint256",
              "name": "mintingPoolCollateralRatioBIPS",
              "type": "uint256"
            },
            {
              "internalType": "uint256",
              "name": "buyFAssetByAgentFactorBIPS",
              "type": "uint256"
            },
            {
              "internalType": "uint256",
              "name": "poolExitCollateralRatioBIPS",
              "type": "uint256"
            },
            {
              "internalType": "uint256",
              "name": "poolTopupCollateralRatioBIPS",
              "type": "uint256"
            },
            {
              "internalType": "uint256",
              "name": "poolTopupTokenPriceFactorBIPS",
              "type": "uint256"
            },
            {
              "internalType": "uint256",
              "name": "handshakeType",
              "type": "uint256"
            }
          ],
          "internalType": "struct AgentSettings.Data",
          "name": "_settings",
          "type": "tuple"
        }
      ],
      "name": "createAgentVault",
      "outputs": [
        {
          "internalType": "address",
          "name": "_agentVault",
          "type": "address"
        }
      ],
      "stateMutability": "nonpayable",
      "type": "function"
    },
    {
      "inputs": [
        {
          "internalType": "address",
          "name": "_agentVault",
          "type": "address"
        },
        {
          "internalType": "address payable",
          "name": "_recipient",
          "type": "address"
        }
      ],
      "name": "destroyAgent",
      "outputs": [],
      "stateMutability": "nonpayable",
      "type": "function"
    },
    {
      "inputs": [
        {
          "components": [
            {
              "internalType": "bytes32[]",
              "name": "merkleProof",
              "type": "bytes32[]"
            },
            {
              "components": [
                {
                  "internalType": "bytes32",
                  "name": "attestationType",
                  "type": "bytes32"
                },
                {
                  "internalType": "bytes32",
                  "name": "sourceId",
                  "type": "bytes32"
                },
                {
                  "internalType": "uint64",
                  "name": "votingRound",
                  "type": "uint64"
                },
                {
                  "internalType": "uint64",
                  "name": "lowestUsedTimestamp",
                  "type": "uint64"
                },
                {
                  "components": [
                    {
                      "internalType": "bytes32",
                      "name": "transactionId",
                      "type": "bytes32"
                    },
                    {
                      "internalType": "uint256",
                      "name": "inUtxo",
                      "type": "uint256"
                    },
                    {
                      "internalType": "uint256",
                      "name": "utxo",
                      "type": "uint256"
                    }
                  ],
                  "internalType": "struct IPayment.RequestBody",
                  "name": "requestBody",
                  "type": "tuple"
                },
                {
                  "components": [
                    {
                      "internalType": "uint64",
                      "name": "blockNumber",
                      "type": "uint64"
                    },
                    {
                      "internalType": "uint64",
                      "name": "blockTimestamp",
                      "type": "uint64"
                    },
                    {
                      "internalType": "bytes32",
                      "name": "sourceAddressHash",
                      "type": "bytes32"
                    },
                    {
                      "internalType": "bytes32",
                      "name": "sourceAddressesRoot",
                      "type": "bytes32"
                    },
                    {
                      "internalType": "bytes32",
                      "name": "receivingAddressHash",
                      "type": "bytes32"
                    },
                    {
                      "internalType": "bytes32",
                      "name": "intendedReceivingAddressHash",
                      "type": "bytes32"
                    },
                    {
                      "internalType": "int256",
                      "name": "spentAmount",
                      "type": "int256"
                    },
                    {
                      "internalType": "int256",
                      "name": "intendedSpentAmount",
                      "type": "int256"
                    },
                    {
                      "internalType": "int256",
                      "name": "receivedAmount",
                      "type": "int256"
                    },
                    {
                      "internalType": "int256",
                      "name": "intendedReceivedAmount",
                      "type": "int256"
                    },
                    {
                      "internalType": "bytes32",
                      "name": "standardPaymentReference",
                      "type": "bytes32"
                    },
                    {
                      "internalType": "bool",
                      "name": "oneToOne",
                      "type": "bool"
                    },
                    {
                      "internalType": "uint8",
                      "name": "status",
                      "type": "uint8"
                    }
                  ],
                  "internalType": "struct IPayment.ResponseBody",
                  "name": "responseBody",
                  "type": "tuple"
                }
              ],
              "internalType": "struct IPayment.Response",
              "name": "data",
              "type": "tuple"
            }
          ],
          "internalType": "struct IPayment.Proof",
          "name": "_payment",
          "type": "tuple"
        }
      ],
      "name": "proveUnderlyingAddressEOA",
      "outputs": [],
      "stateMutability": "nonpayable",
      "type": "function"
    },
    {
      "inputs": [
        {
          "internalType": "address",
          "name": "_agentVault",
          "type": "address"
        }
      ],
      "name": "upgradeAgentVaultAndPool",
      "outputs": [],
      "stateMutability": "nonpayable",
      "type": "function"
    }
  ],
  "bytecode": "0x608060405234801561001057600080fd5b50614175806100206000396000f3fe608060405234801561001057600080fd5b50600436106100575760003560e01c80635e71055c1461005c578063778aadd514610082578063ae87b37f14610097578063b356adc7146100aa578063b9a2ddb1146100d5575b600080fd5b61006f61006a366004613234565b6100e8565b6040519081526020015b60405180910390f35b610095610090366004613251565b6100f9565b005b6100956100a536600461328a565b610107565b6100bd6100b83660046132c5565b610113565b6040516001600160a01b039091168152602001610079565b6100956100e3366004613234565b61012f565b60006100f382610138565b92915050565b61010382826102f9565b5050565b610110816107d6565b50565b600061011d610854565b6101283084846108bd565b9392505050565b61011081610cec565b60008161014481610dd3565b600080516020614100833981519152600061015e85610e2a565b600481015490915065010000000000900463ffffffff16156101bf5760405162461bcd60e51b81526020600482015260156024820152746167656e74207374696c6c20617661696c61626c6560581b60448201526064015b60405180910390fd5b6101c881610ec6565b6001600160401b0316156102135760405162461bcd60e51b81526020600482015260126024820152716167656e74207374696c6c2061637469766560701b60448201526064016101b6565b60048181015460ff168181111561022c5761022c61332d565b146102db576004818101805460ff19169091179055601082015460009061026390600160801b90046001600160401b031642613359565b905061026e81610f2c565b82600a0160086101000a8154816001600160401b0302191690836001600160401b03160217905550856001600160a01b03167f86bbd7101c8a4494b25e559dee68314c4bc85dd8eae43137811ebcc8bb26a69c826040516102d191815260200190565b60405180910390a2505b600a0154600160401b90046001600160401b03169250505b50919050565b8161030381610dd3565b600080516020614120833981519152600061031d85610e2a565b90506004808083015460ff16908111156103395761033961332d565b1461037e5760405162461bcd60e51b815260206004820152601560248201527419195cdd1c9bde481b9bdd08185b9b9bdd5b98d959605a1b60448201526064016101b6565b600a810154600160401b90046001600160401b031642116103e15760405162461bcd60e51b815260206004820152601860248201527f64657374726f793a206e6f7420616c6c6f77656420796574000000000000000060448201526064016101b6565b6103ea81610ec6565b6001600160401b0316156104005761040061336c565b805460405162f55d9d60e01b81526001600160a01b0386811660048301529091169062f55d9d90602401600060405180830381600087803b15801561044457600080fd5b505af1158015610458573d6000803e3d6000fd5b505060405162f55d9d60e01b81526001600160a01b0387811660048301528816925062f55d9d9150602401600060405180830381600087803b15801561049d57600080fd5b505af11580156104b1573d6000803e3d6000fd5b50505050600a8101546003830154600160d01b90910463ffffffff16906104d9826001613359565b10156105b2576003830180546104f190600190613382565b8154811061050157610501613395565b6000918252602090912001546003840180546001600160a01b03909216918390811061052f5761052f613395565b9060005260206000200160006101000a8154816001600160a01b0302191690836001600160a01b03160217905550600061059184600301838154811061057757610577613395565b6000918252602090912001546001600160a01b0316610e2a565b600a01805463ffffffff60d01b1916600160d01b63ffffffff851602179055505b826003018054806105c5576105c56133ab565b600082815260209020810160001990810180546001600160a01b0319169055019055610791827f87971da2ffd60f015ef85ead0fa62169ee9c342d8f1db03babee919d33ccf8196000908152600b909101602052604080822080546001600160c01b03199081169091557fe0243e58c76a12071b4a375d5f283eaf01d6025bbabcdabd4ca2d0d3f67c5e3283528183208054821690557f381f724f6ecd2a24d4a619016614db98defae86152186d60beff19b685ea2b5a83528183208054821690557f061115fe294a09236be45875a15a7800403f95fde525547c9662b92a6359932e83528183208054821690557f9aea190d2b3dd7d1d8e8d055952c2e9923c067928667db7f47b1f818b830cba483528183208054821690557f50c491cb85c5de272af4bdee937deba8bfb8efc757876ce0671faf286198be9583528183208054821690557feb57753c1b4e94880186635dfc9185be51406a9179ca76e095563b00d9ef41d683528183208054821690557f98d367e8e159b82e76c08eb9e8367ae98bb11d65de64fdcde63c3a6a50e1756583528183208054821690557f88c9c5a9542135d89e93b19972c3c03dc735891e5c01c49b7bf7f869ba18b1bd8352912080549091169055565b61079a82610f98565b6040516001600160a01b038716907fc3eb286975d067e136d2d07c4c04700fbc1f72bf6b0778de0c99e95f4385661790600090a2505050505050565b6000805160206141208339815191526107ee82610fbc565b60006107f93361101a565b9050610804816110a7565b6108166005830184600b85018461115f565b61084f61082b610120850161010086016133dd565b6108369060016133f8565b610848610140860161012087016133dd565b60006112b4565b505050565b7fec7e8c1c441439dd40959777f4c577ea0cd42fcc1dbe59d2bd0f5d9c55df8dc654600160c81b900460ff166108bb5760405162461bcd60e51b815260206004820152600c60248201526b1b9bdd08185d1d1858da195960a21b60448201526064016101b6565b565b60006000805160206141208339815191526109186108de602085018561341f565b8080601f01602080910402602001604051908101604052809392919081815260200183838082843760009201919091525061144292505050565b60006109233361101a565b905061092e816110a7565b6109378561166d565b6000610946602087018761346c565b6109549060a081019061348c565b61095d90613550565b80519091506109a05760405162461bcd60e51b815260206004820152600f60248201526e1859191c995cdcc81a5b9d985b1a59608a1b60448201526064016101b6565b6000600080516020614100833981519152600201546040516313db266360e31b81526001600160a01b038a8116600483015290911691506000908290639ed93318906024016020604051808303816000875af1158015610a04573d6000803e3d6000fd5b505050506040513d601f19601f82011682018060405250810190610a2891906135f5565b90506000604082901b600160401b600160e01b03167f5bebac0595fee029d42bb673937f5f1cb81cf8641382bc17774635de9b7d7965189050600060048083015460ff1690811115610a7c57610a7c61332d565b14610a8957610a8961336c565b600481018054600160ff199091168117909155810180546001600160a01b0319166001600160a01b038716179055610ace610ac760208a018a613234565b82906117d2565b600f86015460048201805464ffff000000191661ffff909216630100000002919091179055610b018160808a0135611931565b610b0f8160a08a01356119c9565b610b1d8160408a0135611a61565b610b2b8160608a0135611acc565b610b398160c08a0135611b39565b610b7385838660400151610b5860008051602061410083398151915290565b600d015460058b0193929190600160501b900460ff16611b64565b60208401516002820190610b879082613699565b50604084810151600383018190556000908152600588016020522054600f8701546001600160401b03600160a01b909204821691610bd69162010000900416610bd18360016133f8565b611c6a565b600a8301805467ffffffffffffffff19166001600160401b0392909216919091179055610c048b848b611c93565b82546001600160a01b0319166001600160a01b0391909116178255610c2d8260e08b0135611e58565b610c3c826101008b0135612001565b610c4b826101208b01356120b2565b610c5a826101408b0135612113565b6003870154610c689061213d565b600a8301805463ffffffff60d01b1916600160d01b63ffffffff939093169290920291909117905560038701805460018101825560009182526020918290200180546001600160a01b0319166001600160a01b0386811691909117909155835491870151610cdd92899287929116908d6121a2565b50909998505050505050505050565b80610cf681610dd3565b6000805160206141008339815191526000610d1084610e2a565b54604080516332f7ce0b60e21b815290516001600160a01b039092169250600091839163cbdf382c9160048083019260209291908290030181865afa158015610d5d573d6000803e3d6000fd5b505050506040513d601f19601f82011682018060405250810190610d8191906135f5565b6002840154909150610d9c906001600160a01b031686612411565b6003830154610db4906001600160a01b031683612411565b6004830154610dcc906001600160a01b031682612411565b5050505050565b610de5610ddf82610e2a565b3361263f565b6101105760405162461bcd60e51b815260206004820152601660248201527537b7363c9030b3b2b73a103b30bab63a1037bbb732b960511b60448201526064016101b6565b7f5bebac0595fee029d42bb673937f5f1cb81cf8641382bc17774635de9b7d7965600160401b600160e01b03604083901b161880600060048084015460ff1690811115610e7957610e7961332d565b036102f35760405162461bcd60e51b815260206004820152601b60248201527f696e76616c6964206167656e74207661756c742061646472657373000000000060448201526064016101b6565b60058101546000906001600160401b03600160801b82048116600160c01b909204161115610ef657610ef661336c565b60058201546001600160401b03600160801b8204811691610f229180821691600160401b9004166133f8565b6100f391906133f8565b60006001600160401b03821115610f945760405162461bcd60e51b815260206004820152602660248201527f53616665436173743a2076616c756520646f65736e27742066697420696e203660448201526534206269747360d01b60648201526084016101b6565b5090565b600d810181815b80821015610fb65760008255600182019150610f9f565b50505050565b6000610fd06102a083016102808401613769565b60ff16146110115760405162461bcd60e51b815260206004820152600e60248201526d1c185e5b595b9d0819985a5b195960921b60448201526064016101b6565b610110816126ee565b6000806110256128b6565b60405163039f412760e11b81526001600160a01b038581166004830152919091169063073e824e90602401602060405180830381865afa15801561106d573d6000803e3d6000fd5b505050506040513d601f19601f8201168201806040525081019061109191906135f5565b90506001600160a01b0381166100f35782610128565b6110af6128b6565b604051633af32abf60e01b81526001600160a01b0383811660048301529190911690633af32abf90602401602060405180830381865afa1580156110f7573d6000803e3d6000fd5b505050506040513d601f19601f8201168201806040525081019061111b9190613784565b6101105760405162461bcd60e51b81526020600482015260156024820152741859d95b9d081b9bdd081dda1a5d195b1a5cdd1959605a1b60448201526064016101b6565b6101408301356000036111745761117461336c565b610140830135600090815260208590526040902080546001600160a01b0316156111da5760405162461bcd60e51b81526020600482015260176024820152761859191c995cdcc8185b1c9958591e4818db185a5b5959604a1b60448201526064016101b6565b67464250526641001360c01b6001600160a01b03831617610240850135146112445760405162461bcd60e51b815260206004820152601f60248201527f696e76616c69642061646472657373206f776e6572736869702070726f6f660060448201526064016101b6565b61124e83856128e4565b8054600168ff000000000000000160a01b0319166001600160a01b03831617600160e01b178155611287610120850161010086016133dd565b81546001600160401b0391909116600160a01b0267ffffffffffffffff60a01b1990911617905550505050565b6000805160206141208339815191526000806112d084876133f8565b600f8401549091506001600160401b03620100009091048116908216111561131c57600f8301805469ffffffffffffffff00001916620100006001600160401b03841602179055600191505b60006103e8600080516020614100833981519152600c01546113449063ffffffff16876137a1565b61134e91906137e2565b61135890876133f8565b600f8501546001600160401b039182169250600160501b9004168111156113af5761138281610f2c565b84600f01600a6101000a8154816001600160401b0302191690836001600160401b03160217905550600192505b8215611439576113be42610f2c565b600f8501805467ffffffffffffffff60901b1916600160901b6001600160401b039384160217908190556040805162010000830484168152600160501b9092049092166020820152428183015290517f2078549e3faec355556787458d744ad19765bbb953b3f71801333f29abdce1c8916060908290030190a15b50505050505050565b604051600080516020614120833981519152907fec7e8c1c441439dd40959777f4c577ea0cd42fcc1dbe59d2bd0f5d9c55df8db89061148290849061382c565b9081526040519081900360200190205460ff16156114e25760405162461bcd60e51b815260206004820152601760248201527f73756666697820616c726561647920726573657276656400000000000000000060448201526064016101b6565b600181600201836040516114f6919061382c565b908152604051908190036020019020805491151560ff19909216919091179055815182906014811061155c5760405162461bcd60e51b815260206004820152600f60248201526e73756666697820746f6f206c6f6e6760881b60448201526064016101b6565b60005b81811015610dcc57600083828151811061157b5761157b613395565b01602001516001600160f81b0319169050604160f81b81108015906115ae5750602d60f91b6001600160f81b0319821611155b806115e05750600360fc1b6001600160f81b03198216108015906115e05750603960f81b6001600160f81b0319821611155b8061161857506000821180156115ff57506115fc600184613382565b82105b80156116185750602d60f81b6001600160f81b03198216145b6116645760405162461bcd60e51b815260206004820152601b60248201527f696e76616c69642063686172616374657220696e20737566666978000000000060448201526064016101b6565b5060010161155f565b7f4f24f5c433db0962dac0d2c8b84197a6e6c7cc4e5d9ebe1916a1b6193da2f342547f4f24f5c433db0962dac0d2c8b84197a6e6c7cc4e5d9ebe1916a1b6193da2f34554600080516020614100833981519152916001600160a01b0316906116d8602085018561346c565b60200135146117195760405162461bcd60e51b815260206004820152600d60248201526c34b73b30b634b21031b430b4b760991b60448201526064016101b6565b60405163f34ef58760e01b81526001600160a01b0382169063f34ef587906117459086906004016139ad565b602060405180830381865afa158015611762573d6000803e3d6000fd5b505050506040513d601f19601f820116820180604052508101906117869190613784565b61084f5760405162461bcd60e51b815260206004820152601b60248201527f616464726573732076616c6964697479206e6f742070726f766564000000000060448201526064016101b6565b60008051602061412083398151915260006117ee600284612920565b9050600082600001828154811061180757611807613395565b60009182526020909120600490910201905060028154600160a01b900460ff1660028111156118385761183861332d565b146118455761184561336c565b8054600160b01b90046001600160401b03161561189c5760405162461bcd60e51b815260206004820152601560248201527418dbdb1b185d195c985b0819195c1c9958d85d1959605a1b60448201526064016101b6565b6118a5826129c3565b8560040160016101000a81548161ffff021916908361ffff16021790555060006118ce86612a26565b905060006118dc8288612b24565b600384015490915063ffffffff168110156114395760405162461bcd60e51b81526020600482015260156024820152741b9bdd08195b9bdd59da0818dbdb1b185d195c985b605a1b60448201526064016101b6565b600061193c83612bef565b600381015490915063ffffffff168210156119995760405162461bcd60e51b815260206004820152601a60248201527f636f6c6c61746572616c20726174696f20746f6f20736d616c6c00000000000060448201526064016101b6565b6119a28261213d565b83600401600d6101000a81548163ffffffff021916908363ffffffff160217905550505050565b60006119d483612c3c565b600381015490915063ffffffff16821015611a315760405162461bcd60e51b815260206004820152601a60248201527f636f6c6c61746572616c20726174696f20746f6f20736d616c6c00000000000060448201526064016101b6565b611a3a8261213d565b8360040160116101000a81548163ffffffff021916908363ffffffff160217905550505050565b6127108110611aa15760405162461bcd60e51b815260206004820152600c60248201526b0cccaca40e8dede40d0d2ced60a31b60448201526064016101b6565b611aaa816129c3565b8260040160096101000a81548161ffff021916908361ffff1602179055505050565b6127108110611b0e5760405162461bcd60e51b815260206004820152600e60248201526d0ecc2d8eaca40e8dede40d0d2ced60931b60448201526064016101b6565b611b17816129c3565b82600401600b6101000a81548161ffff021916908361ffff1602179055505050565b611b42816129c3565b82600a0160106101000a81548161ffff021916908361ffff1602179055505050565b600082815260208690526040902080546001600160a01b0316611b9957805468ffffffffffffffffff60a01b19168155611bef565b80546001600160a01b03868116911614611bef5760405162461bcd60e51b81526020600482015260176024820152761859191c995cdcc8185b1c9958591e4818db185a5b5959604a1b60448201526064016101b6565b811580611c0457508054600160e01b900460ff165b611c455760405162461bcd60e51b81526020600482015260126024820152711153d0481c1c9bdbd9881c995c5d5a5c995960721b60448201526064016101b6565b80546001600160a01b0319166001600160a01b03949094169390931790925550505050565b6000816001600160401b0316836001600160401b03161015611c8c5781610128565b5090919050565b7f4f24f5c433db0962dac0d2c8b84197a6e6c7cc4e5d9ebe1916a1b6193da2f33d547f4f24f5c433db0962dac0d2c8b84197a6e6c7cc4e5d9ebe1916a1b6193da2f33e546040516309825b9560e01b8152600092600080516020614100833981519152926001600160a01b0391821692911690849083906309825b9590611d22908b908b908b90600401613a8c565b6020604051808303816000875af1158015611d41573d6000803e3d6000fd5b505050506040513d601f19601f82011682018060405250810190611d6591906135f5565b905060006001600160a01b03831663796d58368360058801611d8a60208c018c61341f565b6040518563ffffffff1660e01b8152600401611da99493929190613b5f565b6020604051808303816000875af1158015611dc8573d6000803e3d6000fd5b505050506040513d601f19601f82011682018060405250810190611dec91906135f5565b6040516333ce01fd60e01b81526001600160a01b038083166004830152919250908316906333ce01fd90602401600060405180830381600087803b158015611e3357600080fd5b505af1158015611e47573d6000803e3d6000fd5b50939b9a5050505050505050505050565b6000611e6383612c3c565b60048401546003820154919250600091611e8d9163ffffffff600160881b90910481169116612c75565b905080831015611ecf5760405162461bcd60e51b815260206004820152600d60248201526c76616c756520746f6f206c6f7760981b60448201526064016101b6565b835460408051633cfc747d60e01b815290516000926001600160a01b031691633cfc747d9160048083019260209291908290030181865afa158015611f18573d6000803e3d6000fd5b505050506040513d601f19601f82011682018060405250810190611f3c9190613c08565b63ffffffff1690506002611f51826003613c2e565b611f5b9190613c45565b841115611f9d5760405162461bcd60e51b815260206004820152601060248201526f696e63726561736520746f6f2062696760801b60448201526064016101b6565b8454604051630f0f739560e31b8152600481018690526001600160a01b039091169063787b9ca890602401600060405180830381600087803b158015611fe257600080fd5b505af1158015611ff6573d6000803e3d6000fd5b505050505050505050565b600061200c83612c3c565b600381015490915063ffffffff168210156120595760405162461bcd60e51b815260206004820152600d60248201526c76616c756520746f6f206c6f7760981b60448201526064016101b6565b825460405163444c2e6b60e11b8152600481018490526001600160a01b03909116906388985cd690602401600060405180830381600087803b15801561209e57600080fd5b505af1158015611439573d6000803e3d6000fd5b8154604051634d2123f360e11b8152600481018390526001600160a01b0390911690639a4247e690602401600060405180830381600087803b1580156120f757600080fd5b505af115801561210b573d6000803e3d6000fd5b505050505050565b61211c8161213d565b600c92909201805463ffffffff191663ffffffff9093169290921790915550565b600063ffffffff821115610f945760405162461bcd60e51b815260206004820152602660248201527f53616665436173743a2076616c756520646f65736e27742066697420696e203360448201526532206269747360d01b60648201526084016101b6565b612238604051806101c0016040528060006001600160a01b0316815260200160006001600160a01b031681526020016060815260200160006001600160a01b0316815260200160006001600160a01b031681526020016000815260200160008152602001600081526020016000815260200160008152602001600081526020016000815260200160008152602001600081525090565b6001600160a01b038416808252604080516332f7ce0b60e21b8152905163cbdf382c916004808201926020929091908290030181865afa158015612280573d6000803e3d6000fd5b505050506040513d601f19601f820116820180604052508101906122a491906135f5565b6001600160a01b03166020808301919091526122c290830183613234565b81606001906001600160a01b031690816001600160a01b031681525050836001600160a01b0316639edbf0076040518163ffffffff1660e01b8152600401602060405180830381865afa15801561231d573d6000803e3d6000fd5b505050506040513d601f19601f8201168201806040525081019061234191906135f5565b6001600160a01b0390811660808084019190915260408084018690528481013560a080860191909152606086013560c0808701919091529286013560e08087019190915290860135610100808701919091529286013561012080870191909152908601356101408087019190915292860135610160860152850135610180850152908401356101a084015251868216918816907fdde4e1391087a23dd1b24107a9e3848e2e1297449a6d212092d3162dbf2340bc90612401908590613c85565b60405180910390a3505050505050565b60008190506000836001600160a01b0316635c60da1b6040518163ffffffff1660e01b8152600401602060405180830381865afa158015612456573d6000803e3d6000fd5b505050506040513d601f19601f8201168201806040525081019061247a91906135f5565b90506000826001600160a01b0316635c60da1b6040518163ffffffff1660e01b8152600401602060405180830381865afa1580156124bc573d6000803e3d6000fd5b505050506040513d601f19601f820116820180604052508101906124e091906135f5565b9050816001600160a01b0316816001600160a01b031614610dcc57604051630422b7e960e11b81526001600160a01b038581166004830152600091908716906308456fd290602401600060405180830381865afa158015612545573d6000803e3d6000fd5b505050506040513d6000823e601f3d908101601f1916820160405261256d9190810190613d83565b8051909150156125dc5760405163278f794360e11b81526001600160a01b03851690634f1ef286906125a59086908590600401613df0565b600060405180830381600087803b1580156125bf57600080fd5b505af11580156125d3573d6000803e3d6000fd5b5050505061210b565b604051631b2ce7f360e11b81526001600160a01b038481166004830152851690633659cfe690602401600060405180830381600087803b15801561261f57600080fd5b505af1158015612633573d6000803e3d6000fd5b50505050505050505050565b60018201546000906001600160a01b039081169083168114806126e657506126656128b6565b604051631f86345d60e31b81526001600160a01b038381166004830152919091169063fc31a2e890602401602060405180830381865afa1580156126ad573d6000803e3d6000fd5b505050506040513d601f19601f820116820180604052508101906126d191906135f5565b6001600160a01b0316836001600160a01b0316145b949350505050565b7f4f24f5c433db0962dac0d2c8b84197a6e6c7cc4e5d9ebe1916a1b6193da2f342547f4f24f5c433db0962dac0d2c8b84197a6e6c7cc4e5d9ebe1916a1b6193da2f34554600080516020614100833981519152916001600160a01b03169060408401351461278e5760405162461bcd60e51b815260206004820152600d60248201526c34b73b30b634b21031b430b4b760991b60448201526064016101b6565b60405163a7a3797560e01b81526001600160a01b0382169063a7a37975906127ba908690600401613e14565b602060405180830381865afa1580156127d7573d6000803e3d6000fd5b505050506040513d601f19601f820116820180604052508101906127fb9190613784565b6128475760405162461bcd60e51b815260206004820152601860248201527f6c6567616c207061796d656e74206e6f742070726f766564000000000000000060448201526064016101b6565b61286a61285c610140850161012086016133dd565b6001600160401b0316612c84565b61084f5760405162461bcd60e51b815260206004820152601c60248201527f7665726966696564207472616e73616374696f6e20746f6f206f6c640000000060448201526064016101b6565b7f4f24f5c433db0962dac0d2c8b84197a6e6c7cc4e5d9ebe1916a1b6193da2f341546001600160a01b031690565b6040805161014083013560208083019190915260a0840135828401528251808303840181526060909201909252805191012061084f8382612ca7565b6000600080516020614120833981519152817fec7e8c1c441439dd40959777f4c577ea0cd42fcc1dbe59d2bd0f5d9c55df8db78161295e8787612d6f565b8152602001908152602001600020549050600081116129af5760405162461bcd60e51b815260206004820152600d60248201526c3ab735b737bbb7103a37b5b2b760991b60448201526064016101b6565b6129ba600182613382565b95945050505050565b600061ffff821115610f945760405162461bcd60e51b815260206004820152602660248201527f53616665436173743a2076616c756520646f65736e27742066697420696e203160448201526536206269747360d01b60648201526084016101b6565b612a4b6040805160608101909152806000815260200160008152602001600081525090565b6000612a5683612bef565b6040805160608101909152909150806000815282546020909101906001600160a01b03166370a082317f5bebac0595fee029d42bb673937f5f1cb81cf8641382bc17774635de9b7d7965871860401c6040516001600160e01b031960e084901b1681526001600160a01b039091166004820152602401602060405180830381865afa158015612ae9573d6000803e3d6000fd5b505050506040513d601f19601f82011682018060405250810190612b0d9190613fa1565b8152602001612b1b83612d99565b90529392505050565b600080600184516002811115612b3c57612b3c61332d565b14612b5b576005830154600160801b90046001600160401b0316612b71565b6005830154600160c01b90046001600160401b03165b60058401546001600160401b0391821692506000918391612b9d9181811691600160401b900416613359565b612ba79190613359565b905080600003612bc0576402540be400925050506100f3565b6000612bd0828760400151612daf565b6020870151909150612be59061271083612dc5565b9695505050505050565b60008060008051602061412083398151915260048401548154919250829161010090910461ffff16908110612c2657612c26613395565b9060005260206000209060040201915050919050565b600080600080516020614120833981519152600484015481549192508291630100000090910461ffff16908110612c2657612c26613395565b6000818311611c8c5781610128565b6000612c94600e62015180613c2e565b612c9e9042613382565b90911015919050565b60008181526020839052604090205415612d035760405162461bcd60e51b815260206004820152601960248201527f7061796d656e7420616c726561647920636f6e6669726d65640000000000000060448201526064016101b6565b6000612d126201518042613c45565b6000818152600185016020526040812054919250819003612d335782612d35565b805b6000848152602086815260408083209390935584825260018701905290812084905560028501549003610fb6576002840182905550505050565b6000816001600160a01b031660a0846002811115612d8f57612d8f61332d565b901b179392505050565b6000612da6826000612eeb565b50909392505050565b600061012882612dc16009600a61409e565b8591905b6000808211612e095760405162461bcd60e51b815260206004820152601060248201526f4469766973696f6e206279207a65726f60801b60448201526064016101b6565b83600003612e1957506000610128565b83830283858281612e2c57612e2c6137cc565b0403612e4a57828181612e4157612e416137cc565b04915050610128565b506000612e578386613c45565b90506000612e6584876140aa565b90506000612e738587613c45565b90506000612e8186886140aa565b905085612e8e8285613c2e565b612e989190613c45565b612ea28385613c2e565b612eac8387613c2e565b88612eb78689613c2e565b612ec19190613c2e565b612ecb9190613359565b612ed59190613359565b612edf9190613359565b98975050505050505050565b600080600080600080612f8a886001018054612f069061361d565b80601f0160208091040260200160405190810160405280929190818152602001828054612f329061361d565b8015612f7f5780601f10612f5457610100808354040283529160200191612f7f565b820191906000526020600020905b815481529060010190602001808311612f6257829003601f168201915b5050505050886130aa565b8a549295509093509150600160f01b900460ff1615612fd1578754600090612fc090600160a81b900460ff166001838786613198565b96509194508493506130a392505050565b600080600061306c8b6002018054612fe89061361d565b80601f01602080910402602001604051908101604052809291908181526020018280546130149061361d565b80156130615780601f1061303657610100808354040283529160200191613061565b820191906000526020600020905b81548152906001019060200180831161304457829003601f168201915b50505050508b6130aa565b8d54929550909350915060009061309090600160a81b900460ff1685848a89613198565b99509497509095506130a3945050505050565b9250925092565b7f4f24f5c433db0962dac0d2c8b84197a6e6c7cc4e5d9ebe1916a1b6193da2f3445460009081908190600080516020614100833981519152906001600160a01b0316851561316c5760405163e4a0a55b60e01b81526001600160a01b0382169063e4a0a55b9061311e908a906004016140be565b606060405180830381865afa15801561313b573d6000803e3d6000fd5b505050506040513d601f19601f8201168201806040525081019061315f91906140d1565b94509450945050506130a3565b60405163524f388960e01b81526001600160a01b0382169063524f38899061311e908a906004016140be565b60006000805160206141008339815191528160096131b6878a613359565b6131c09190613359565b600a8301549091506000906131e0908690600160a81b900460ff16613359565b9050808210156131f2576131f261336c565b6132126131ff8284613382565b61320a90600a61409e565b87908a612dc5565b9998505050505050505050565b6001600160a01b038116811461011057600080fd5b60006020828403121561324657600080fd5b81356101288161321f565b6000806040838503121561326457600080fd5b823561326f8161321f565b9150602083013561327f8161321f565b809150509250929050565b60006020828403121561329c57600080fd5b81356001600160401b038111156132b257600080fd5b82016102a0818503121561012857600080fd5b600080604083850312156132d857600080fd5b82356001600160401b03808211156132ef57600080fd5b908401906040828703121561330357600080fd5b9092506020840135908082111561331957600080fd5b508301610160818603121561327f57600080fd5b634e487b7160e01b600052602160045260246000fd5b634e487b7160e01b600052601160045260246000fd5b808201808211156100f3576100f3613343565b634e487b7160e01b600052600160045260246000fd5b818103818111156100f3576100f3613343565b634e487b7160e01b600052603260045260246000fd5b634e487b7160e01b600052603160045260246000fd5b80356001600160401b03811681146133d857600080fd5b919050565b6000602082840312156133ef57600080fd5b610128826133c1565b6001600160401b0381811683821601908082111561341857613418613343565b5092915050565b6000808335601e1984360301811261343657600080fd5b8301803591506001600160401b0382111561345057600080fd5b60200191503681900382131561346557600080fd5b9250929050565b6000823560be1983360301811261348257600080fd5b9190910192915050565b60008235605e1983360301811261348257600080fd5b634e487b7160e01b600052604160045260246000fd5b604051606081016001600160401b03811182821017156134da576134da6134a2565b60405290565b604051601f8201601f191681016001600160401b0381118282101715613508576135086134a2565b604052919050565b801515811461011057600080fd5b80356133d881613510565b60006001600160401b03821115613542576135426134a2565b50601f01601f191660200190565b60006060823603121561356257600080fd5b61356a6134b8565b823561357581613510565b81526020838101356001600160401b0381111561359157600080fd5b840136601f8201126135a257600080fd5b80356135b56135b082613529565b6134e0565b81815236848385010111156135c957600080fd5b818484018583013760008483830101528084860152505050506040830135604082015280915050919050565b60006020828403121561360757600080fd5b81516101288161321f565b80356133d88161321f565b600181811c9082168061363157607f821691505b6020821081036102f357634e487b7160e01b600052602260045260246000fd5b601f82111561084f576000816000526020600020601f850160051c8101602086101561367a5750805b601f850160051c820191505b8181101561210b57828155600101613686565b81516001600160401b038111156136b2576136b26134a2565b6136c6816136c0845461361d565b84613651565b602080601f8311600181146136fb57600084156136e35750858301515b600019600386901b1c1916600185901b17855561210b565b600085815260208120601f198616915b8281101561372a5788860151825594840194600190910190840161370b565b50858210156137485787850151600019600388901b60f8161c191681555b5050505050600190811b01905550565b803560ff811681146133d857600080fd5b60006020828403121561377b57600080fd5b61012882613758565b60006020828403121561379657600080fd5b815161012881613510565b6001600160401b038181168382160280821691908281146137c4576137c4613343565b505092915050565b634e487b7160e01b600052601260045260246000fd5b60006001600160401b03808416806137fc576137fc6137cc565b92169190910492915050565b60005b8381101561382357818101518382015260200161380b565b50506000910152565b60008251613482818460208701613808565b6000808335601e1984360301811261385557600080fd5b83016020810192503590506001600160401b0381111561387457600080fd5b8060051b360382131561346557600080fd5b81835260006001600160fb1b0383111561389f57600080fd5b8260051b80836020870137939093016020019392505050565b6000808335601e198436030181126138cf57600080fd5b83016020810192503590506001600160401b038111156138ee57600080fd5b80360382131561346557600080fd5b81835281816020850137506000828201602090810191909152601f909101601f19169091010190565b600061393282836138b8565b602085526129ba6020860182846138fd565b60008235605e1983360301811261395a57600080fd5b90910192915050565b6000813561397081613510565b1515835261398160208301836138b8565b606060208601526139966060860182846138fd565b915050604083013560408501528091505092915050565b6020815260006139bd838461383e565b604060208501526139d2606085018284613886565b915050602084013560be198536030181126139ec57600080fd5b8481019050601f198483030160408501528035825260208101356020830152613a17604082016133c1565b6001600160401b03808216604085015280613a34606085016133c1565b16606085015250506080810135601e19823603018112613a5357600080fd5b60c06080840152613a6960c08401838301613926565b9050613a7860a0830183613944565b915082810360a0840152612be58183613963565b6001600160a01b03848116825283166020820152606060408201819052600090613ac8908301613abb85613612565b6001600160a01b03169052565b613ad560208401846138b8565b610160806080860152613aed6101c0860183856138fd565b9250604086013560a0860152606086013560c0860152608086013560e0860152610100915060a08601358286015261012060c08701358187015261014060e088013581880152838801358388015281880135610180880152808801356101a08801525050505080915050949350505050565b60018060a01b0385168152600060206060602084015260008654613b828161361d565b8060608701526080600180841660008114613ba45760018114613bc057613bf0565b60ff19851660808a0152608084151560051b8a01019550613bf0565b8b600052602060002060005b85811015613be75781548b8201860152908301908801613bcc565b8a016080019650505b50505050508381036040850152612edf8186886138fd565b600060208284031215613c1a57600080fd5b815163ffffffff8116811461012857600080fd5b80820281158282048414176100f3576100f3613343565b600082613c5457613c546137cc565b500490565b60008151808452613c71816020860160208601613808565b601f01601f19169290920160200192915050565b60208152613c9f6020820183516001600160a01b03169052565b60006020830151613cbb60408401826001600160a01b03169052565b5060408301516101c0806060850152613cd86101e0850183613c59565b91506060850151613cf460808601826001600160a01b03169052565b5060808501516001600160a01b03811660a08601525060a085015160c08581019190915285015160e08086019190915285015161010080860191909152850151610120808601919091528501516101408086019190915285015161016080860191909152850151610180808601919091528501516101a080860191909152909401519390920192909252919050565b600060208284031215613d9557600080fd5b81516001600160401b03811115613dab57600080fd5b8201601f81018413613dbc57600080fd5b8051613dca6135b082613529565b818152856020838501011115613ddf57600080fd5b6129ba826020830160208601613808565b6001600160a01b03831681526040602082018190526000906126e690830184613c59565b602081526000613e24838461383e565b6102a0806020860152613e3c6102c086018385613886565b92506020860135604086015260408601356060860152613e5e606087016133c1565b91506001600160401b03808316608087015280613e7d608089016133c1565b1660a08701525060a086013560c086015260c086013560e0860152610100915060e086013582860152610120613ec7818701613eba858a016133c1565b6001600160401b03169052565b613ed28188016133c1565b925050610140613eec818701846001600160401b03169052565b610160925080870135838701525061018082870135818701526101a092508087013583870152506101c082870135818701526101e092508087013583870152506102008287013581870152610220925080870135838701525061024082870135818701526102609250808701358387015250613f6982870161351e565b9150610280613f7b8187018415159052565b613f86818801613758565b925050613f978186018360ff169052565b5090949350505050565b600060208284031215613fb357600080fd5b5051919050565b600181815b80851115613ff5578160001904821115613fdb57613fdb613343565b80851615613fe857918102915b93841c9390800290613fbf565b509250929050565b60008261400c575060016100f3565b81614019575060006100f3565b816001811461402f576002811461403957614055565b60019150506100f3565b60ff84111561404a5761404a613343565b50506001821b6100f3565b5060208310610133831016604e8410600b8410161715614078575081810a6100f3565b6140828383613fba565b806000190482111561409657614096613343565b029392505050565b60006101288383613ffd565b6000826140b9576140b96137cc565b500690565b6020815260006101286020830184613c59565b6000806000606084860312156140e657600080fd5b835192506020840151915060408401519050925092509256fe4f24f5c433db0962dac0d2c8b84197a6e6c7cc4e5d9ebe1916a1b6193da2f33aec7e8c1c441439dd40959777f4c577ea0cd42fcc1dbe59d2bd0f5d9c55df8db6a2646970667358221220763a31cd82cce206a0a366049c4471b36d49e1753acb5ab162f587be4f935ef864736f6c63430008170033",
  "linkReferences": {},
  "deployedLinkReferences": {}
}