{
  "_format": "hh-sol-artifact-1",
  "contractName": "AgentVaultManagementFacet",
  "sourceName": "contracts/assetManager/facets/AgentVaultManagementFacet.sol",
  "abi": [
    {
      "anonymous": false,
      "inputs": [
        {
          "indexed": true,
          "internalType": "address",
          "name": "agentVault",
          "type": "address"
        },
        {
          "indexed": false,
          "internalType": "uint256",
          "name": "destroyAllowedAt",
          "type": "uint256"
        }
      ],
      "name": "AgentDestroyAnnounced",
      "type": "event"
    },
    {
      "anonymous": false,
      "inputs": [
        {
          "indexed": true,
          "internalType": "address",
          "name": "agentVault",
          "type": "address"
        }
      ],
      "name": "AgentDestroyed",
      "type": "event"
    },
    {
      "anonymous": false,
      "inputs": [
        {
          "indexed": true,
          "internalType": "address",
          "name": "owner",
          "type": "address"
        },
        {
          "indexed": true,
          "internalType": "address",
          "name": "agentVault",
          "type": "address"
        },
        {
          "components": [
            {
              "internalType": "address",
              "name": "collateralPool",
              "type": "address"
            },
            {
              "internalType": "address",
              "name": "collateralPoolToken",
              "type": "address"
            },
            {
              "internalType": "string",
              "name": "underlyingAddress",
              "type": "string"
            },
            {
              "internalType": "address",
              "name": "vaultCollateralToken",
              "type": "address"
            },
            {
              "internalType": "address",
              "name": "poolWNatToken",
              "type": "address"
            },
            {
              "internalType": "uint256",
              "name": "feeBIPS",
              "type": "uint256"
            },
            {
              "internalType": "uint256",
              "name": "poolFeeShareBIPS",
              "type": "uint256"
            },
            {
              "internalType": "uint256",
              "name": "mintingVaultCollateralRatioBIPS",
              "type": "uint256"
            },
            {
              "internalType": "uint256",
              "name": "mintingPoolCollateralRatioBIPS",
              "type": "uint256"
            },
            {
              "internalType": "uint256",
              "name": "buyFAssetByAgentFactorBIPS",
              "type": "uint256"
            },
            {
              "internalType": "uint256",
              "name": "poolExitCollateralRatioBIPS",
              "type": "uint256"
            },
            {
              "internalType": "uint256",
              "name": "poolTopupCollateralRatioBIPS",
              "type": "uint256"
            },
            {
              "internalType": "uint256",
              "name": "poolTopupTokenPriceFactorBIPS",
              "type": "uint256"
            }
          ],
          "indexed": false,
          "internalType": "struct AMEvents.AgentVaultCreationData",
          "name": "creationData",
          "type": "tuple"
        }
      ],
      "name": "AgentVaultCreated",
      "type": "event"
    },
    {
      "anonymous": false,
      "inputs": [
        {
          "indexed": false,
          "internalType": "uint256",
          "name": "underlyingBlockNumber",
          "type": "uint256"
        },
        {
          "indexed": false,
          "internalType": "uint256",
          "name": "underlyingBlockTimestamp",
          "type": "uint256"
        },
        {
          "indexed": false,
          "internalType": "uint256",
          "name": "updatedAt",
          "type": "uint256"
        }
      ],
      "name": "CurrentUnderlyingBlockUpdated",
      "type": "event"
    },
    {
      "inputs": [
        {
          "internalType": "address",
          "name": "_agentVault",
          "type": "address"
        }
      ],
      "name": "announceDestroyAgent",
      "outputs": [
        {
          "internalType": "uint256",
          "name": "_destroyAllowedAt",
          "type": "uint256"
        }
      ],
      "stateMutability": "nonpayable",
      "type": "function"
    },
    {
      "inputs": [
        {
          "components": [
            {
              "internalType": "bytes32[]",
              "name": "merkleProof",
              "type": "bytes32[]"
            },
            {
              "components": [
                {
                  "internalType": "bytes32",
                  "name": "attestationType",
                  "type": "bytes32"
                },
                {
                  "internalType": "bytes32",
                  "name": "sourceId",
                  "type": "bytes32"
                },
                {
                  "internalType": "uint64",
                  "name": "votingRound",
                  "type": "uint64"
                },
                {
                  "internalType": "uint64",
                  "name": "lowestUsedTimestamp",
                  "type": "uint64"
                },
                {
                  "components": [
                    {
                      "internalType": "string",
                      "name": "addressStr",
                      "type": "string"
                    }
                  ],
                  "internalType": "struct AddressValidity.RequestBody",
                  "name": "requestBody",
                  "type": "tuple"
                },
                {
                  "components": [
                    {
                      "internalType": "bool",
                      "name": "isValid",
                      "type": "bool"
                    },
                    {
                      "internalType": "string",
                      "name": "standardAddress",
                      "type": "string"
                    },
                    {
                      "internalType": "bytes32",
                      "name": "standardAddressHash",
                      "type": "bytes32"
                    }
                  ],
                  "internalType": "struct AddressValidity.ResponseBody",
                  "name": "responseBody",
                  "type": "tuple"
                }
              ],
              "internalType": "struct AddressValidity.Response",
              "name": "data",
              "type": "tuple"
            }
          ],
          "internalType": "struct AddressValidity.Proof",
          "name": "_addressProof",
          "type": "tuple"
        },
        {
          "components": [
            {
              "internalType": "contract IERC20",
              "name": "vaultCollateralToken",
              "type": "address"
            },
            {
              "internalType": "string",
              "name": "poolTokenSuffix",
              "type": "string"
            },
            {
              "internalType": "uint256",
              "name": "feeBIPS",
              "type": "uint256"
            },
            {
              "internalType": "uint256",
              "name": "poolFeeShareBIPS",
              "type": "uint256"
            },
            {
              "internalType": "uint256",
              "name": "mintingVaultCollateralRatioBIPS",
              "type": "uint256"
            },
            {
              "internalType": "uint256",
              "name": "mintingPoolCollateralRatioBIPS",
              "type": "uint256"
            },
            {
              "internalType": "uint256",
              "name": "buyFAssetByAgentFactorBIPS",
              "type": "uint256"
            },
            {
              "internalType": "uint256",
              "name": "poolExitCollateralRatioBIPS",
              "type": "uint256"
            },
            {
              "internalType": "uint256",
              "name": "poolTopupCollateralRatioBIPS",
              "type": "uint256"
            },
            {
              "internalType": "uint256",
              "name": "poolTopupTokenPriceFactorBIPS",
              "type": "uint256"
            }
          ],
          "internalType": "struct AgentSettings.Data",
          "name": "_settings",
          "type": "tuple"
        }
      ],
      "name": "createAgentVault",
      "outputs": [
        {
          "internalType": "address",
          "name": "_agentVault",
          "type": "address"
        }
      ],
      "stateMutability": "nonpayable",
      "type": "function"
    },
    {
      "inputs": [
        {
          "internalType": "address",
          "name": "_agentVault",
          "type": "address"
        },
        {
          "internalType": "address payable",
          "name": "_recipient",
          "type": "address"
        }
      ],
      "name": "destroyAgent",
      "outputs": [],
      "stateMutability": "nonpayable",
      "type": "function"
    },
    {
      "inputs": [
        {
          "components": [
            {
              "internalType": "bytes32[]",
              "name": "merkleProof",
              "type": "bytes32[]"
            },
            {
              "components": [
                {
                  "internalType": "bytes32",
                  "name": "attestationType",
                  "type": "bytes32"
                },
                {
                  "internalType": "bytes32",
                  "name": "sourceId",
                  "type": "bytes32"
                },
                {
                  "internalType": "uint64",
                  "name": "votingRound",
                  "type": "uint64"
                },
                {
                  "internalType": "uint64",
                  "name": "lowestUsedTimestamp",
                  "type": "uint64"
                },
                {
                  "components": [
                    {
                      "internalType": "bytes32",
                      "name": "transactionId",
                      "type": "bytes32"
                    },
                    {
                      "internalType": "uint256",
                      "name": "inUtxo",
                      "type": "uint256"
                    },
                    {
                      "internalType": "uint256",
                      "name": "utxo",
                      "type": "uint256"
                    }
                  ],
                  "internalType": "struct Payment.RequestBody",
                  "name": "requestBody",
                  "type": "tuple"
                },
                {
                  "components": [
                    {
                      "internalType": "uint64",
                      "name": "blockNumber",
                      "type": "uint64"
                    },
                    {
                      "internalType": "uint64",
                      "name": "blockTimestamp",
                      "type": "uint64"
                    },
                    {
                      "internalType": "bytes32",
                      "name": "sourceAddressHash",
                      "type": "bytes32"
                    },
                    {
                      "internalType": "bytes32",
                      "name": "receivingAddressHash",
                      "type": "bytes32"
                    },
                    {
                      "internalType": "bytes32",
                      "name": "intendedReceivingAddressHash",
                      "type": "bytes32"
                    },
                    {
                      "internalType": "int256",
                      "name": "spentAmount",
                      "type": "int256"
                    },
                    {
                      "internalType": "int256",
                      "name": "intendedSpentAmount",
                      "type": "int256"
                    },
                    {
                      "internalType": "int256",
                      "name": "receivedAmount",
                      "type": "int256"
                    },
                    {
                      "internalType": "int256",
                      "name": "intendedReceivedAmount",
                      "type": "int256"
                    },
                    {
                      "internalType": "bytes32",
                      "name": "standardPaymentReference",
                      "type": "bytes32"
                    },
                    {
                      "internalType": "bool",
                      "name": "oneToOne",
                      "type": "bool"
                    },
                    {
                      "internalType": "uint8",
                      "name": "status",
                      "type": "uint8"
                    }
                  ],
                  "internalType": "struct Payment.ResponseBody",
                  "name": "responseBody",
                  "type": "tuple"
                }
              ],
              "internalType": "struct Payment.Response",
              "name": "data",
              "type": "tuple"
            }
          ],
          "internalType": "struct Payment.Proof",
          "name": "_payment",
          "type": "tuple"
        }
      ],
      "name": "proveUnderlyingAddressEOA",
      "outputs": [],
      "stateMutability": "nonpayable",
      "type": "function"
    }
  ],
  "bytecode": "0x608060405234801561001057600080fd5b50613d04806100206000396000f3fe608060405234801561001057600080fd5b506004361061004c5760003560e01c80635e71055c14610051578063778aadd51461007757806388b7b3361461008c578063f6073bdf146100b7575b600080fd5b61006461005f366004612e8e565b6100ca565b6040519081526020015b60405180910390f35b61008a610085366004612eab565b6100db565b005b61009f61009a366004612ee4565b6100e9565b6040516001600160a01b03909116815260200161006e565b61008a6100c5366004612f4c565b610105565b60006100d582610111565b92915050565b6100e582826102d2565b5050565b60006100f3610783565b6100fe3084846107ec565b9392505050565b61010e81610c0c565b50565b60008161011d81610c8a565b600080516020613c8f833981519152600061013785610ce1565b600481015490915065010000000000900463ffffffff16156101985760405162461bcd60e51b81526020600482015260156024820152746167656e74207374696c6c20617661696c61626c6560581b60448201526064015b60405180910390fd5b6101a181610d7d565b6001600160401b0316156101ec5760405162461bcd60e51b81526020600482015260126024820152716167656e74207374696c6c2061637469766560701b604482015260640161018f565b60048181015460ff168181111561020557610205612f87565b146102b4576004818101805460ff19169091179055601082015460009061023c90600160801b90046001600160401b031642612fb3565b905061024781610de3565b82600a0160086101000a8154816001600160401b0302191690836001600160401b03160217905550856001600160a01b03167f86bbd7101c8a4494b25e559dee68314c4bc85dd8eae43137811ebcc8bb26a69c826040516102aa91815260200190565b60405180910390a2505b600a0154600160401b90046001600160401b03169250505b50919050565b816102dc81610c8a565b600080516020613caf83398151915260006102f685610ce1565b90506004808083015460ff169081111561031257610312612f87565b146103575760405162461bcd60e51b815260206004820152601560248201527419195cdd1c9bde481b9bdd08185b9b9bdd5b98d959605a1b604482015260640161018f565b600a810154600160401b90046001600160401b031642116103ba5760405162461bcd60e51b815260206004820152601860248201527f64657374726f793a206e6f7420616c6c6f776564207965740000000000000000604482015260640161018f565b6103c381610d7d565b6001600160401b0316156103d9576103d9612fc6565b805460405162f55d9d60e01b81526001600160a01b0386811660048301529091169062f55d9d90602401600060405180830381600087803b15801561041d57600080fd5b505af1158015610431573d6000803e3d6000fd5b505060405162f55d9d60e01b81526001600160a01b0387811660048301528816925062f55d9d9150602401600060405180830381600087803b15801561047657600080fd5b505af115801561048a573d6000803e3d6000fd5b50505050600a8101546003830154600160d01b90910463ffffffff16906104b2826001612fb3565b101561058b576003830180546104ca90600190612fdc565b815481106104da576104da612fef565b6000918252602090912001546003840180546001600160a01b03909216918390811061050857610508612fef565b9060005260206000200160006101000a8154816001600160a01b0302191690836001600160a01b03160217905550600061056a84600301838154811061055057610550612fef565b6000918252602090912001546001600160a01b0316610ce1565b600a01805463ffffffff60d01b1916600160d01b63ffffffff851602179055505b8260030180548061059e5761059e613005565b600082815260209020810160001990810180546001600160a01b031916905501905561073e827f87971da2ffd60f015ef85ead0fa62169ee9c342d8f1db03babee919d33ccf8196000908152600b909101602052604080822080546001600160c01b03199081169091557fe0243e58c76a12071b4a375d5f283eaf01d6025bbabcdabd4ca2d0d3f67c5e3283528183208054821690557f381f724f6ecd2a24d4a619016614db98defae86152186d60beff19b685ea2b5a83528183208054821690557f061115fe294a09236be45875a15a7800403f95fde525547c9662b92a6359932e83528183208054821690557f9aea190d2b3dd7d1d8e8d055952c2e9923c067928667db7f47b1f818b830cba483528183208054821690557f50c491cb85c5de272af4bdee937deba8bfb8efc757876ce0671faf286198be9583528183208054821690557feb57753c1b4e94880186635dfc9185be51406a9179ca76e095563b00d9ef41d683528183208054821690557f98d367e8e159b82e76c08eb9e8367ae98bb11d65de64fdcde63c3a6a50e175658352912080549091169055565b61074782610e4f565b6040516001600160a01b038716907fc3eb286975d067e136d2d07c4c04700fbc1f72bf6b0778de0c99e95f4385661790600090a2505050505050565b7fec7e8c1c441439dd40959777f4c577ea0cd42fcc1dbe59d2bd0f5d9c55df8dc654600160c81b900460ff166107ea5760405162461bcd60e51b815260206004820152600c60248201526b1b9bdd08185d1d1858da195960a21b604482015260640161018f565b565b6000600080516020613caf83398151915261084761080d602085018561301b565b8080601f016020809104026020016040519081016040528093929190818152602001838380828437600092019190915250610e7392505050565b6000610852336110a5565b905061085d81611132565b610866856111ea565b60006108756020870187613068565b6108839060a0810190613088565b61088c9061312a565b80519091506108cf5760405162461bcd60e51b815260206004820152600f60248201526e1859191c995cdcc81a5b9d985b1a59608a1b604482015260640161018f565b6000600080516020613c8f833981519152600201546040516313db266360e31b81526001600160a01b038a8116600483015290911691506000908290639ed93318906024016020604051808303816000875af1158015610933573d6000803e3d6000fd5b505050506040513d601f19601f8201168201806040525081019061095791906131e2565b90506000604082901b600160401b600160e01b03167f5bebac0595fee029d42bb673937f5f1cb81cf8641382bc17774635de9b7d7965189050600060048083015460ff16908111156109ab576109ab612f87565b146109b8576109b8612fc6565b600481018054600160ff199091168117909155810180546001600160a01b0319166001600160a01b0387161790556109fd6109f660208a018a612e8e565b829061134f565b600f86015460048201805464ffff000000191661ffff909216630100000002919091179055610a308160808a01356114b7565b610a3e8160a08a013561154f565b610a4c8160408a01356115e7565b610a5a8160608a0135611652565b610a688160c08a01356116bf565b610aa285838660400151610a87600080516020613c8f83398151915290565b600d015460058b0193929190600160501b900460ff166116ea565b60208401516002820190610ab69082613286565b50604084810151600383018190556000908152600588016020522054600f8701546001600160401b03600160a01b909204821691610b059162010000900416610b00836001613345565b6117f0565b600a8301805467ffffffffffffffff19166001600160401b0392909216919091179055610b338b848b611819565b82546001600160a01b0319166001600160a01b0391909116178255610b5c8260e08b01356119de565b610b6b826101008b0135611b87565b610b7a826101208b0135611c38565b6003870154610b8890611c99565b600a8301805463ffffffff60d01b1916600160d01b63ffffffff939093169290920291909117905560038701805460018101825560009182526020918290200180546001600160a01b0319166001600160a01b0386811691909117909155835491870151610bfd92899287929116908d611cfe565b50909998505050505050505050565b600080516020613caf833981519152610c2482611f59565b6000610c2f336110a5565b9050610c3a81611132565b610c4c6005830184600b850184611fb7565b610c85610c6161012085016101008601613383565b610c6c906001613345565b610c7e61014086016101208701613383565b600061210c565b505050565b610c9c610c9682610ce1565b33612299565b61010e5760405162461bcd60e51b815260206004820152601660248201527537b7363c9030b3b2b73a103b30bab63a1037bbb732b960511b604482015260640161018f565b7f5bebac0595fee029d42bb673937f5f1cb81cf8641382bc17774635de9b7d7965600160401b600160e01b03604083901b161880600060048084015460ff1690811115610d3057610d30612f87565b036102cc5760405162461bcd60e51b815260206004820152601b60248201527f696e76616c6964206167656e74207661756c7420616464726573730000000000604482015260640161018f565b60058101546000906001600160401b03600160801b82048116600160c01b909204161115610dad57610dad612fc6565b60058201546001600160401b03600160801b8204811691610dd99180821691600160401b900416613345565b6100d59190613345565b60006001600160401b03821115610e4b5760405162461bcd60e51b815260206004820152602660248201527f53616665436173743a2076616c756520646f65736e27742066697420696e203660448201526534206269747360d01b606482015260840161018f565b5090565b600c810181815b80821015610e6d5760008255600182019150610e56565b50505050565b604051600080516020613caf833981519152907fec7e8c1c441439dd40959777f4c577ea0cd42fcc1dbe59d2bd0f5d9c55df8db890610eb39084906133c2565b9081526040519081900360200190205460ff1615610f135760405162461bcd60e51b815260206004820152601760248201527f73756666697820616c7265616479207265736572766564000000000000000000604482015260640161018f565b60018160020183604051610f2791906133c2565b908152604051908190036020019020805491151560ff199092169190911790558151829060148110610f8d5760405162461bcd60e51b815260206004820152600f60248201526e73756666697820746f6f206c6f6e6760881b604482015260640161018f565b60005b8181101561109e576000838281518110610fac57610fac612fef565b01602001516001600160f81b0319169050604160f81b8110801590610fdf5750602d60f91b6001600160f81b0319821611155b806110115750600360fc1b6001600160f81b03198216108015906110115750603960f81b6001600160f81b0319821611155b806110495750600082118015611030575061102d600184612fdc565b82105b80156110495750602d60f81b6001600160f81b03198216145b6110955760405162461bcd60e51b815260206004820152601b60248201527f696e76616c69642063686172616374657220696e207375666669780000000000604482015260640161018f565b50600101610f90565b5050505050565b6000806110b0612348565b60405163039f412760e11b81526001600160a01b038581166004830152919091169063073e824e90602401602060405180830381865afa1580156110f8573d6000803e3d6000fd5b505050506040513d601f19601f8201168201806040525081019061111c91906131e2565b90506001600160a01b0381166100d557826100fe565b61113a612348565b604051633af32abf60e01b81526001600160a01b0383811660048301529190911690633af32abf90602401602060405180830381865afa158015611182573d6000803e3d6000fd5b505050506040513d601f19601f820116820180604052508101906111a691906133d4565b61010e5760405162461bcd60e51b81526020600482015260156024820152741859d95b9d081b9bdd081dda1a5d195b1a5cdd1959605a1b604482015260640161018f565b7f4f24f5c433db0962dac0d2c8b84197a6e6c7cc4e5d9ebe1916a1b6193da2f342547f4f24f5c433db0962dac0d2c8b84197a6e6c7cc4e5d9ebe1916a1b6193da2f34554600080516020613c8f833981519152916001600160a01b0316906112556020850185613068565b60200135146112965760405162461bcd60e51b815260206004820152600d60248201526c34b73b30b634b21031b430b4b760991b604482015260640161018f565b60405163f34ef58760e01b81526001600160a01b0382169063f34ef587906112c2908690600401613560565b602060405180830381865afa1580156112df573d6000803e3d6000fd5b505050506040513d601f19601f8201168201806040525081019061130391906133d4565b610c855760405162461bcd60e51b815260206004820152601b60248201527f616464726573732076616c6964697479206e6f742070726f7665640000000000604482015260640161018f565b600080516020613caf833981519152600061136b600284612376565b9050600082600001828154811061138457611384612fef565b60009182526020909120600490910201905060028154600160a01b900460ff1660028111156113b5576113b5612f87565b146113c2576113c2612fc6565b8054600160b01b90046001600160401b0316156114195760405162461bcd60e51b815260206004820152601560248201527418dbdb1b185d195c985b0819195c1c9958d85d1959605a1b604482015260640161018f565b61142282612419565b8560040160016101000a81548161ffff021916908361ffff160217905550600061144b8661247c565b90506000611459828861257a565b600384015490915063ffffffff168110156114ae5760405162461bcd60e51b81526020600482015260156024820152741b9bdd08195b9bdd59da0818dbdb1b185d195c985b605a1b604482015260640161018f565b50505050505050565b60006114c283612645565b600381015490915063ffffffff1682101561151f5760405162461bcd60e51b815260206004820152601a60248201527f636f6c6c61746572616c20726174696f20746f6f20736d616c6c000000000000604482015260640161018f565b61152882611c99565b83600401600d6101000a81548163ffffffff021916908363ffffffff160217905550505050565b600061155a83612692565b600381015490915063ffffffff168210156115b75760405162461bcd60e51b815260206004820152601a60248201527f636f6c6c61746572616c20726174696f20746f6f20736d616c6c000000000000604482015260640161018f565b6115c082611c99565b8360040160116101000a81548163ffffffff021916908363ffffffff160217905550505050565b61271081106116275760405162461bcd60e51b815260206004820152600c60248201526b0cccaca40e8dede40d0d2ced60a31b604482015260640161018f565b61163081612419565b8260040160096101000a81548161ffff021916908361ffff1602179055505050565b61271081106116945760405162461bcd60e51b815260206004820152600e60248201526d0ecc2d8eaca40e8dede40d0d2ced60931b604482015260640161018f565b61169d81612419565b82600401600b6101000a81548161ffff021916908361ffff1602179055505050565b6116c881612419565b82600a0160106101000a81548161ffff021916908361ffff1602179055505050565b600082815260208690526040902080546001600160a01b031661171f57805468ffffffffffffffffff60a01b19168155611775565b80546001600160a01b038681169116146117755760405162461bcd60e51b81526020600482015260176024820152761859191c995cdcc8185b1c9958591e4818db185a5b5959604a1b604482015260640161018f565b81158061178a57508054600160e01b900460ff165b6117cb5760405162461bcd60e51b81526020600482015260126024820152711153d0481c1c9bdbd9881c995c5d5a5c995960721b604482015260640161018f565b80546001600160a01b0319166001600160a01b03949094169390931790925550505050565b6000816001600160401b0316836001600160401b0316101561181257816100fe565b5090919050565b7f4f24f5c433db0962dac0d2c8b84197a6e6c7cc4e5d9ebe1916a1b6193da2f33d547f4f24f5c433db0962dac0d2c8b84197a6e6c7cc4e5d9ebe1916a1b6193da2f33e5460405163c09832d160e01b8152600092600080516020613c8f833981519152926001600160a01b03918216929116908490839063c09832d1906118a8908b908b908b9060040161363f565b6020604051808303816000875af11580156118c7573d6000803e3d6000fd5b505050506040513d601f19601f820116820180604052508101906118eb91906131e2565b905060006001600160a01b03831663796d5836836005880161191060208c018c61301b565b6040518563ffffffff1660e01b815260040161192f9493929190613706565b6020604051808303816000875af115801561194e573d6000803e3d6000fd5b505050506040513d601f19601f8201168201806040525081019061197291906131e2565b6040516333ce01fd60e01b81526001600160a01b038083166004830152919250908316906333ce01fd90602401600060405180830381600087803b1580156119b957600080fd5b505af11580156119cd573d6000803e3d6000fd5b50939b9a5050505050505050505050565b60006119e983612692565b60048401546003820154919250600091611a139163ffffffff600160881b909104811691166126cb565b905080831015611a555760405162461bcd60e51b815260206004820152600d60248201526c76616c756520746f6f206c6f7760981b604482015260640161018f565b835460408051633cfc747d60e01b815290516000926001600160a01b031691633cfc747d9160048083019260209291908290030181865afa158015611a9e573d6000803e3d6000fd5b505050506040513d601f19601f82011682018060405250810190611ac291906137af565b63ffffffff1690506002611ad78260036137d5565b611ae19190613802565b841115611b235760405162461bcd60e51b815260206004820152601060248201526f696e63726561736520746f6f2062696760801b604482015260640161018f565b8454604051630f0f739560e31b8152600481018690526001600160a01b039091169063787b9ca890602401600060405180830381600087803b158015611b6857600080fd5b505af1158015611b7c573d6000803e3d6000fd5b505050505050505050565b6000611b9283612692565b600381015490915063ffffffff16821015611bdf5760405162461bcd60e51b815260206004820152600d60248201526c76616c756520746f6f206c6f7760981b604482015260640161018f565b825460405163444c2e6b60e11b8152600481018490526001600160a01b03909116906388985cd690602401600060405180830381600087803b158015611c2457600080fd5b505af11580156114ae573d6000803e3d6000fd5b8154604051634d2123f360e11b8152600481018390526001600160a01b0390911690639a4247e690602401600060405180830381600087803b158015611c7d57600080fd5b505af1158015611c91573d6000803e3d6000fd5b505050505050565b600063ffffffff821115610e4b5760405162461bcd60e51b815260206004820152602660248201527f53616665436173743a2076616c756520646f65736e27742066697420696e203360448201526532206269747360d01b606482015260840161018f565b611d8d604051806101a0016040528060006001600160a01b0316815260200160006001600160a01b031681526020016060815260200160006001600160a01b0316815260200160006001600160a01b0316815260200160008152602001600081526020016000815260200160008152602001600081526020016000815260200160008152602001600081525090565b6001600160a01b038416808252604080516332f7ce0b60e21b8152905163cbdf382c916004808201926020929091908290030181865afa158015611dd5573d6000803e3d6000fd5b505050506040513d601f19601f82011682018060405250810190611df991906131e2565b6001600160a01b0316602080830191909152611e1790830183612e8e565b81606001906001600160a01b031690816001600160a01b031681525050836001600160a01b0316639edbf0076040518163ffffffff1660e01b8152600401602060405180830381865afa158015611e72573d6000803e3d6000fd5b505050506040513d601f19601f82011682018060405250810190611e9691906131e2565b6001600160a01b0390811660808084019190915260408084018690528481013560a080860191909152606086013560c0808701919091529286013560e0808701919091529086013561010080870191909152928601356101208087019190915290860135610140860152918501356101608501529084013561018084015251868216918816907fa9667fe512a5d2eb5becbb38264e4af02187050b57937a4591d4624827b83d3e90611f49908590613842565b60405180910390a3505050505050565b6000611f6d61028083016102608401613944565b60ff1614611fae5760405162461bcd60e51b815260206004820152600e60248201526d1c185e5b595b9d0819985a5b195960921b604482015260640161018f565b61010e816126da565b610140830135600003611fcc57611fcc612fc6565b610140830135600090815260208590526040902080546001600160a01b0316156120325760405162461bcd60e51b81526020600482015260176024820152761859191c995cdcc8185b1c9958591e4818db185a5b5959604a1b604482015260640161018f565b67464250526641001360c01b6001600160a01b038316176102208501351461209c5760405162461bcd60e51b815260206004820152601f60248201527f696e76616c69642061646472657373206f776e6572736869702070726f6f6600604482015260640161018f565b6120a683856128a2565b8054600168ff000000000000000160a01b0319166001600160a01b03831617600160e01b1781556120df61012085016101008601613383565b81546001600160401b0391909116600160a01b0267ffffffffffffffff60a01b1990911617905550505050565b600080516020613caf8339815191526000806121288487613345565b600f8401549091506001600160401b03620100009091048116908216111561217457600f8301805469ffffffffffffffff00001916620100006001600160401b03841602179055600191505b60006103e8600080516020613c8f833981519152600c015461219c9063ffffffff168761395f565b6121a6919061398a565b6121b09087613345565b600f8501546001600160401b039182169250600160501b900416811115612207576121da81610de3565b84600f01600a6101000a8154816001600160401b0302191690836001600160401b03160217905550600192505b82156114ae5761221642610de3565b600f8501805467ffffffffffffffff60901b1916600160901b6001600160401b039384160217908190556040805162010000830484168152600160501b9092049092166020820152428183015290517f2078549e3faec355556787458d744ad19765bbb953b3f71801333f29abdce1c8916060908290030190a150505050505050565b60018201546000906001600160a01b0390811690831681148061234057506122bf612348565b604051631f86345d60e31b81526001600160a01b038381166004830152919091169063fc31a2e890602401602060405180830381865afa158015612307573d6000803e3d6000fd5b505050506040513d601f19601f8201168201806040525081019061232b91906131e2565b6001600160a01b0316836001600160a01b0316145b949350505050565b7f4f24f5c433db0962dac0d2c8b84197a6e6c7cc4e5d9ebe1916a1b6193da2f341546001600160a01b031690565b6000600080516020613caf833981519152817fec7e8c1c441439dd40959777f4c577ea0cd42fcc1dbe59d2bd0f5d9c55df8db7816123b487876128de565b8152602001908152602001600020549050600081116124055760405162461bcd60e51b815260206004820152600d60248201526c3ab735b737bbb7103a37b5b2b760991b604482015260640161018f565b612410600182612fdc565b95945050505050565b600061ffff821115610e4b5760405162461bcd60e51b815260206004820152602660248201527f53616665436173743a2076616c756520646f65736e27742066697420696e203160448201526536206269747360d01b606482015260840161018f565b6124a16040805160608101909152806000815260200160008152602001600081525090565b60006124ac83612645565b6040805160608101909152909150806000815282546020909101906001600160a01b03166370a082317f5bebac0595fee029d42bb673937f5f1cb81cf8641382bc17774635de9b7d7965871860401c6040516001600160e01b031960e084901b1681526001600160a01b039091166004820152602401602060405180830381865afa15801561253f573d6000803e3d6000fd5b505050506040513d601f19601f8201168201806040525081019061256391906139b0565b815260200161257183612908565b90529392505050565b60008060018451600281111561259257612592612f87565b146125b1576005830154600160801b90046001600160401b03166125c7565b6005830154600160c01b90046001600160401b03165b60058401546001600160401b03918216925060009183916125f39181811691600160401b900416612fb3565b6125fd9190612fb3565b905080600003612616576402540be400925050506100d5565b600061262682876040015161291e565b602087015190915061263b9061271083612934565b9695505050505050565b600080600080516020613caf83398151915260048401548154919250829161010090910461ffff1690811061267c5761267c612fef565b9060005260206000209060040201915050919050565b600080600080516020613caf833981519152600484015481549192508291630100000090910461ffff1690811061267c5761267c612fef565b600081831161181257816100fe565b7f4f24f5c433db0962dac0d2c8b84197a6e6c7cc4e5d9ebe1916a1b6193da2f342547f4f24f5c433db0962dac0d2c8b84197a6e6c7cc4e5d9ebe1916a1b6193da2f34554600080516020613c8f833981519152916001600160a01b03169060408401351461277a5760405162461bcd60e51b815260206004820152600d60248201526c34b73b30b634b21031b430b4b760991b604482015260640161018f565b604051634661c36760e11b81526001600160a01b03821690638cc386ce906127a69086906004016139c9565b602060405180830381865afa1580156127c3573d6000803e3d6000fd5b505050506040513d601f19601f820116820180604052508101906127e791906133d4565b6128335760405162461bcd60e51b815260206004820152601860248201527f6c6567616c207061796d656e74206e6f742070726f7665640000000000000000604482015260640161018f565b61285661284861014085016101208601613383565b6001600160401b0316612a5a565b610c855760405162461bcd60e51b815260206004820152601c60248201527f7665726966696564207472616e73616374696f6e20746f6f206f6c6400000000604482015260640161018f565b6040805161014083013560208083019190915260a08401358284015282518083038401815260609092019092528051910120610c858382612a7d565b6000816001600160a01b031660a08460028111156128fe576128fe612f87565b901b179392505050565b6000612915826000612b45565b50909392505050565b60006100fe826129306009600a613c2d565b8591905b60008082116129785760405162461bcd60e51b815260206004820152601060248201526f4469766973696f6e206279207a65726f60801b604482015260640161018f565b83600003612988575060006100fe565b8383028385828161299b5761299b6137ec565b04036129b9578281816129b0576129b06137ec565b049150506100fe565b5060006129c68386613802565b905060006129d48487613c39565b905060006129e28587613802565b905060006129f08688613c39565b9050856129fd82856137d5565b612a079190613802565b612a1183856137d5565b612a1b83876137d5565b88612a2686896137d5565b612a3091906137d5565b612a3a9190612fb3565b612a449190612fb3565b612a4e9190612fb3565b98975050505050505050565b6000612a6a600e620151806137d5565b612a749042612fdc565b90911015919050565b60008181526020839052604090205415612ad95760405162461bcd60e51b815260206004820152601960248201527f7061796d656e7420616c726561647920636f6e6669726d656400000000000000604482015260640161018f565b6000612ae86201518042613802565b6000818152600185016020526040812054919250819003612b095782612b0b565b805b6000848152602086815260408083209390935584825260018701905290812084905560028501549003610e6d576002840182905550505050565b600080600080600080612be4886001018054612b609061320a565b80601f0160208091040260200160405190810160405280929190818152602001828054612b8c9061320a565b8015612bd95780601f10612bae57610100808354040283529160200191612bd9565b820191906000526020600020905b815481529060010190602001808311612bbc57829003601f168201915b505050505088612d04565b8a549295509093509150600160f01b900460ff1615612c2b578754600090612c1a90600160a81b900460ff166001838786612df2565b9650919450849350612cfd92505050565b6000806000612cc68b6002018054612c429061320a565b80601f0160208091040260200160405190810160405280929190818152602001828054612c6e9061320a565b8015612cbb5780601f10612c9057610100808354040283529160200191612cbb565b820191906000526020600020905b815481529060010190602001808311612c9e57829003601f168201915b50505050508b612d04565b8d549295509093509150600090612cea90600160a81b900460ff1685848a89612df2565b9950949750909550612cfd945050505050565b9250925092565b7f4f24f5c433db0962dac0d2c8b84197a6e6c7cc4e5d9ebe1916a1b6193da2f3445460009081908190600080516020613c8f833981519152906001600160a01b03168515612dc65760405163e4a0a55b60e01b81526001600160a01b0382169063e4a0a55b90612d78908a90600401613c4d565b606060405180830381865afa158015612d95573d6000803e3d6000fd5b505050506040513d601f19601f82011682018060405250810190612db99190613c60565b9450945094505050612cfd565b60405163524f388960e01b81526001600160a01b0382169063524f388990612d78908a90600401613c4d565b6000600080516020613c8f833981519152816009612e10878a612fb3565b612e1a9190612fb3565b600a830154909150600090612e3a908690600160a81b900460ff16612fb3565b905080821015612e4c57612e4c612fc6565b612e6c612e598284612fdc565b612e6490600a613c2d565b87908a612934565b9998505050505050505050565b6001600160a01b038116811461010e57600080fd5b600060208284031215612ea057600080fd5b81356100fe81612e79565b60008060408385031215612ebe57600080fd5b8235612ec981612e79565b91506020830135612ed981612e79565b809150509250929050565b60008060408385031215612ef757600080fd5b82356001600160401b0380821115612f0e57600080fd5b9084019060408287031215612f2257600080fd5b90925060208401359080821115612f3857600080fd5b5083016101408186031215612ed957600080fd5b600060208284031215612f5e57600080fd5b81356001600160401b03811115612f7457600080fd5b820161028081850312156100fe57600080fd5b634e487b7160e01b600052602160045260246000fd5b634e487b7160e01b600052601160045260246000fd5b808201808211156100d5576100d5612f9d565b634e487b7160e01b600052600160045260246000fd5b818103818111156100d5576100d5612f9d565b634e487b7160e01b600052603260045260246000fd5b634e487b7160e01b600052603160045260246000fd5b6000808335601e1984360301811261303257600080fd5b8301803591506001600160401b0382111561304c57600080fd5b60200191503681900382131561306157600080fd5b9250929050565b6000823560be1983360301811261307e57600080fd5b9190910192915050565b60008235605e1983360301811261307e57600080fd5b634e487b7160e01b600052604160045260246000fd5b604051606081016001600160401b03811182821017156130d6576130d661309e565b60405290565b604051601f8201601f191681016001600160401b03811182821017156131045761310461309e565b604052919050565b801515811461010e57600080fd5b80356131258161310c565b919050565b60006060823603121561313c57600080fd5b6131446130b4565b823561314f8161310c565b81526020838101356001600160401b038082111561316c57600080fd5b9085019036601f83011261317f57600080fd5b8135818111156131915761319161309e565b6131a3601f8201601f191685016130dc565b915080825236848285010111156131b957600080fd5b808484018584013760009082018401529183019190915250604092830135928101929092525090565b6000602082840312156131f457600080fd5b81516100fe81612e79565b803561312581612e79565b600181811c9082168061321e57607f821691505b6020821081036102cc57634e487b7160e01b600052602260045260246000fd5b601f821115610c85576000816000526020600020601f850160051c810160208610156132675750805b601f850160051c820191505b81811015611c9157828155600101613273565b81516001600160401b0381111561329f5761329f61309e565b6132b3816132ad845461320a565b8461323e565b602080601f8311600181146132e857600084156132d05750858301515b600019600386901b1c1916600185901b178555611c91565b600085815260208120601f198616915b82811015613317578886015182559484019460019091019084016132f8565b50858210156133355787850151600019600388901b60f8161c191681555b5050505050600190811b01905550565b6001600160401b0381811683821601908082111561336557613365612f9d565b5092915050565b80356001600160401b038116811461312557600080fd5b60006020828403121561339557600080fd5b6100fe8261336c565b60005b838110156133b95781810151838201526020016133a1565b50506000910152565b6000825161307e81846020870161339e565b6000602082840312156133e657600080fd5b81516100fe8161310c565b6000808335601e1984360301811261340857600080fd5b83016020810192503590506001600160401b0381111561342757600080fd5b8060051b360382131561306157600080fd5b81835260006001600160fb1b0383111561345257600080fd5b8260051b80836020870137939093016020019392505050565b6000808335601e1984360301811261348257600080fd5b83016020810192503590506001600160401b038111156134a157600080fd5b80360382131561306157600080fd5b81835281816020850137506000828201602090810191909152601f909101601f19169091010190565b60006134e5828361346b565b602085526124106020860182846134b0565b60008235605e1983360301811261350d57600080fd5b90910192915050565b600081356135238161310c565b15158352613534602083018361346b565b606060208601526135496060860182846134b0565b915050604083013560408501528091505092915050565b60208152600061357083846133f1565b60406020850152613585606085018284613439565b915050602084013560be1985360301811261359f57600080fd5b8481019050601f1984830301604085015280358252602081013560208301526135ca6040820161336c565b6001600160401b038082166040850152806135e76060850161336c565b16606085015250506080810135601e1982360301811261360657600080fd5b60c0608084015261361c60c084018383016134d9565b905061362b60a08301836134f7565b915082810360a084015261263b8183613516565b6001600160a01b0384811682528316602082015260606040820181905260009061367b90830161366e856131ff565b6001600160a01b03169052565b613688602084018461346b565b6101408060808601526136a06101a0860183856134b0565b9250604086013560a0860152606086013560c0860152608086013560e0860152610100915060a08601358286015261012060c08701358187015260e087013582870152828701356101608701528087013561018087015250505080915050949350505050565b60018060a01b03851681526000602060606020840152600086546137298161320a565b806060870152608060018084166000811461374b576001811461376757613797565b60ff19851660808a0152608084151560051b8a01019550613797565b8b600052602060002060005b8581101561378e5781548b8201860152908301908801613773565b8a016080019650505b50505050508381036040850152612a4e8186886134b0565b6000602082840312156137c157600080fd5b815163ffffffff811681146100fe57600080fd5b80820281158282048414176100d5576100d5612f9d565b634e487b7160e01b600052601260045260246000fd5b600082613811576138116137ec565b500490565b6000815180845261382e81602086016020860161339e565b601f01601f19169290920160200192915050565b6020815261385c6020820183516001600160a01b03169052565b6000602083015161387860408401826001600160a01b03169052565b5060408301516101a08060608501526138956101c0850183613816565b915060608501516138b160808601826001600160a01b03169052565b5060808501516001600160a01b03811660a08601525060a085015160c08581019190915285015160e0808601919091528501516101008086019190915285015161012080860191909152850151610140808601919091528501516101608086019190915285015161018080860191909152909401519390920192909252919050565b803560ff8116811461312557600080fd5b60006020828403121561395657600080fd5b6100fe82613933565b6001600160401b0381811683821602808216919082811461398257613982612f9d565b505092915050565b60006001600160401b03808416806139a4576139a46137ec565b92169190910492915050565b6000602082840312156139c257600080fd5b5051919050565b6020815260006139d983846133f1565b6102808060208601526139f16102a086018385613439565b92506020860135604086015260408601356060860152613a136060870161336c565b91506001600160401b03808316608087015280613a326080890161336c565b1660a08701525060a086013560c086015260c086013560e0860152610100915060e086013582860152610120613a7c818701613a6f858a0161336c565b6001600160401b03169052565b613a8781880161336c565b925050610140613aa1818701846001600160401b03169052565b610160925080870135838701525061018082870135818701526101a092508087013583870152506101c082870135818701526101e09250808701358387015250610200828701358187015261022092508087013583870152506102408287013581870152613b1081880161311a565b925050610260613b238187018415159052565b613b2e818801613933565b925050613b3f8186018360ff169052565b5090949350505050565b600181815b80851115613b84578160001904821115613b6a57613b6a612f9d565b80851615613b7757918102915b93841c9390800290613b4e565b509250929050565b600082613b9b575060016100d5565b81613ba8575060006100d5565b8160018114613bbe5760028114613bc857613be4565b60019150506100d5565b60ff841115613bd957613bd9612f9d565b50506001821b6100d5565b5060208310610133831016604e8410600b8410161715613c07575081810a6100d5565b613c118383613b49565b8060001904821115613c2557613c25612f9d565b029392505050565b60006100fe8383613b8c565b600082613c4857613c486137ec565b500690565b6020815260006100fe6020830184613816565b600080600060608486031215613c7557600080fd5b835192506020840151915060408401519050925092509256fe4f24f5c433db0962dac0d2c8b84197a6e6c7cc4e5d9ebe1916a1b6193da2f33aec7e8c1c441439dd40959777f4c577ea0cd42fcc1dbe59d2bd0f5d9c55df8db6a2646970667358221220cf0693f923b4c6bed4f2390058167a868ab6b34f8057be3dbe48e86dcdcd778c64736f6c63430008170033",
  "linkReferences": {},
  "deployedLinkReferences": {}
}