{
  "_format": "hh-sol-artifact-1",
  "contractName": "AgentVaultManagementFacet",
  "sourceName": "contracts/assetManager/facets/AgentVaultManagementFacet.sol",
  "abi": [
    {
      "anonymous": false,
      "inputs": [
        {
          "indexed": true,
          "internalType": "address",
          "name": "agentVault",
          "type": "address"
        },
        {
          "indexed": false,
          "internalType": "uint256",
          "name": "destroyAllowedAt",
          "type": "uint256"
        }
      ],
      "name": "AgentDestroyAnnounced",
      "type": "event"
    },
    {
      "anonymous": false,
      "inputs": [
        {
          "indexed": true,
          "internalType": "address",
          "name": "agentVault",
          "type": "address"
        }
      ],
      "name": "AgentDestroyed",
      "type": "event"
    },
    {
      "anonymous": false,
      "inputs": [
        {
          "indexed": true,
          "internalType": "address",
          "name": "owner",
          "type": "address"
        },
        {
          "indexed": true,
          "internalType": "address",
          "name": "agentVault",
          "type": "address"
        },
        {
          "components": [
            {
              "internalType": "address",
              "name": "collateralPool",
              "type": "address"
            },
            {
              "internalType": "address",
              "name": "collateralPoolToken",
              "type": "address"
            },
            {
              "internalType": "string",
              "name": "underlyingAddress",
              "type": "string"
            },
            {
              "internalType": "address",
              "name": "vaultCollateralToken",
              "type": "address"
            },
            {
              "internalType": "address",
              "name": "poolWNatToken",
              "type": "address"
            },
            {
              "internalType": "uint256",
              "name": "feeBIPS",
              "type": "uint256"
            },
            {
              "internalType": "uint256",
              "name": "poolFeeShareBIPS",
              "type": "uint256"
            },
            {
              "internalType": "uint256",
              "name": "mintingVaultCollateralRatioBIPS",
              "type": "uint256"
            },
            {
              "internalType": "uint256",
              "name": "mintingPoolCollateralRatioBIPS",
              "type": "uint256"
            },
            {
              "internalType": "uint256",
              "name": "buyFAssetByAgentFactorBIPS",
              "type": "uint256"
            },
            {
              "internalType": "uint256",
              "name": "poolExitCollateralRatioBIPS",
              "type": "uint256"
            },
            {
              "internalType": "uint256",
              "name": "poolTopupCollateralRatioBIPS",
              "type": "uint256"
            },
            {
              "internalType": "uint256",
              "name": "poolTopupTokenPriceFactorBIPS",
              "type": "uint256"
            },
            {
              "internalType": "uint256",
              "name": "handshakeType",
              "type": "uint256"
            }
          ],
          "indexed": false,
          "internalType": "struct IAssetManagerEvents.AgentVaultCreationData",
          "name": "creationData",
          "type": "tuple"
        }
      ],
      "name": "AgentVaultCreated",
      "type": "event"
    },
    {
      "anonymous": false,
      "inputs": [
        {
          "indexed": false,
          "internalType": "uint256",
          "name": "underlyingBlockNumber",
          "type": "uint256"
        },
        {
          "indexed": false,
          "internalType": "uint256",
          "name": "underlyingBlockTimestamp",
          "type": "uint256"
        },
        {
          "indexed": false,
          "internalType": "uint256",
          "name": "updatedAt",
          "type": "uint256"
        }
      ],
      "name": "CurrentUnderlyingBlockUpdated",
      "type": "event"
    },
    {
      "inputs": [
        {
          "internalType": "address",
          "name": "_agentVault",
          "type": "address"
        }
      ],
      "name": "announceDestroyAgent",
      "outputs": [
        {
          "internalType": "uint256",
          "name": "_destroyAllowedAt",
          "type": "uint256"
        }
      ],
      "stateMutability": "nonpayable",
      "type": "function"
    },
    {
      "inputs": [
        {
          "components": [
            {
              "internalType": "bytes32[]",
              "name": "merkleProof",
              "type": "bytes32[]"
            },
            {
              "components": [
                {
                  "internalType": "bytes32",
                  "name": "attestationType",
                  "type": "bytes32"
                },
                {
                  "internalType": "bytes32",
                  "name": "sourceId",
                  "type": "bytes32"
                },
                {
                  "internalType": "uint64",
                  "name": "votingRound",
                  "type": "uint64"
                },
                {
                  "internalType": "uint64",
                  "name": "lowestUsedTimestamp",
                  "type": "uint64"
                },
                {
                  "components": [
                    {
                      "internalType": "string",
                      "name": "addressStr",
                      "type": "string"
                    }
                  ],
                  "internalType": "struct IAddressValidity.RequestBody",
                  "name": "requestBody",
                  "type": "tuple"
                },
                {
                  "components": [
                    {
                      "internalType": "bool",
                      "name": "isValid",
                      "type": "bool"
                    },
                    {
                      "internalType": "string",
                      "name": "standardAddress",
                      "type": "string"
                    },
                    {
                      "internalType": "bytes32",
                      "name": "standardAddressHash",
                      "type": "bytes32"
                    }
                  ],
                  "internalType": "struct IAddressValidity.ResponseBody",
                  "name": "responseBody",
                  "type": "tuple"
                }
              ],
              "internalType": "struct IAddressValidity.Response",
              "name": "data",
              "type": "tuple"
            }
          ],
          "internalType": "struct IAddressValidity.Proof",
          "name": "_addressProof",
          "type": "tuple"
        },
        {
          "components": [
            {
              "internalType": "contract IERC20",
              "name": "vaultCollateralToken",
              "type": "address"
            },
            {
              "internalType": "string",
              "name": "poolTokenSuffix",
              "type": "string"
            },
            {
              "internalType": "uint256",
              "name": "feeBIPS",
              "type": "uint256"
            },
            {
              "internalType": "uint256",
              "name": "poolFeeShareBIPS",
              "type": "uint256"
            },
            {
              "internalType": "uint256",
              "name": "mintingVaultCollateralRatioBIPS",
              "type": "uint256"
            },
            {
              "internalType": "uint256",
              "name": "mintingPoolCollateralRatioBIPS",
              "type": "uint256"
            },
            {
              "internalType": "uint256",
              "name": "buyFAssetByAgentFactorBIPS",
              "type": "uint256"
            },
            {
              "internalType": "uint256",
              "name": "poolExitCollateralRatioBIPS",
              "type": "uint256"
            },
            {
              "internalType": "uint256",
              "name": "poolTopupCollateralRatioBIPS",
              "type": "uint256"
            },
            {
              "internalType": "uint256",
              "name": "poolTopupTokenPriceFactorBIPS",
              "type": "uint256"
            },
            {
              "internalType": "uint256",
              "name": "handshakeType",
              "type": "uint256"
            }
          ],
          "internalType": "struct AgentSettings.Data",
          "name": "_settings",
          "type": "tuple"
        }
      ],
      "name": "createAgentVault",
      "outputs": [
        {
          "internalType": "address",
          "name": "_agentVault",
          "type": "address"
        }
      ],
      "stateMutability": "nonpayable",
      "type": "function"
    },
    {
      "inputs": [
        {
          "internalType": "address",
          "name": "_agentVault",
          "type": "address"
        },
        {
          "internalType": "address payable",
          "name": "_recipient",
          "type": "address"
        }
      ],
      "name": "destroyAgent",
      "outputs": [],
      "stateMutability": "nonpayable",
      "type": "function"
    },
    {
      "inputs": [
        {
          "components": [
            {
              "internalType": "bytes32[]",
              "name": "merkleProof",
              "type": "bytes32[]"
            },
            {
              "components": [
                {
                  "internalType": "bytes32",
                  "name": "attestationType",
                  "type": "bytes32"
                },
                {
                  "internalType": "bytes32",
                  "name": "sourceId",
                  "type": "bytes32"
                },
                {
                  "internalType": "uint64",
                  "name": "votingRound",
                  "type": "uint64"
                },
                {
                  "internalType": "uint64",
                  "name": "lowestUsedTimestamp",
                  "type": "uint64"
                },
                {
                  "components": [
                    {
                      "internalType": "bytes32",
                      "name": "transactionId",
                      "type": "bytes32"
                    },
                    {
                      "internalType": "uint256",
                      "name": "inUtxo",
                      "type": "uint256"
                    },
                    {
                      "internalType": "uint256",
                      "name": "utxo",
                      "type": "uint256"
                    }
                  ],
                  "internalType": "struct IPayment.RequestBody",
                  "name": "requestBody",
                  "type": "tuple"
                },
                {
                  "components": [
                    {
                      "internalType": "uint64",
                      "name": "blockNumber",
                      "type": "uint64"
                    },
                    {
                      "internalType": "uint64",
                      "name": "blockTimestamp",
                      "type": "uint64"
                    },
                    {
                      "internalType": "bytes32",
                      "name": "sourceAddressHash",
                      "type": "bytes32"
                    },
                    {
                      "internalType": "bytes32",
                      "name": "sourceAddressesRoot",
                      "type": "bytes32"
                    },
                    {
                      "internalType": "bytes32",
                      "name": "receivingAddressHash",
                      "type": "bytes32"
                    },
                    {
                      "internalType": "bytes32",
                      "name": "intendedReceivingAddressHash",
                      "type": "bytes32"
                    },
                    {
                      "internalType": "int256",
                      "name": "spentAmount",
                      "type": "int256"
                    },
                    {
                      "internalType": "int256",
                      "name": "intendedSpentAmount",
                      "type": "int256"
                    },
                    {
                      "internalType": "int256",
                      "name": "receivedAmount",
                      "type": "int256"
                    },
                    {
                      "internalType": "int256",
                      "name": "intendedReceivedAmount",
                      "type": "int256"
                    },
                    {
                      "internalType": "bytes32",
                      "name": "standardPaymentReference",
                      "type": "bytes32"
                    },
                    {
                      "internalType": "bool",
                      "name": "oneToOne",
                      "type": "bool"
                    },
                    {
                      "internalType": "uint8",
                      "name": "status",
                      "type": "uint8"
                    }
                  ],
                  "internalType": "struct IPayment.ResponseBody",
                  "name": "responseBody",
                  "type": "tuple"
                }
              ],
              "internalType": "struct IPayment.Response",
              "name": "data",
              "type": "tuple"
            }
          ],
          "internalType": "struct IPayment.Proof",
          "name": "_payment",
          "type": "tuple"
        }
      ],
      "name": "proveUnderlyingAddressEOA",
      "outputs": [],
      "stateMutability": "nonpayable",
      "type": "function"
    },
    {
      "inputs": [
        {
          "internalType": "address",
          "name": "_agentVault",
          "type": "address"
        }
      ],
      "name": "upgradeAgentVaultAndPool",
      "outputs": [],
      "stateMutability": "nonpayable",
      "type": "function"
    }
  ],
  "bytecode": "0x608060405234801561001057600080fd5b50614169806100206000396000f3fe608060405234801561001057600080fd5b50600436106100575760003560e01c80635e71055c1461005c578063778aadd514610082578063ae87b37f14610097578063b356adc7146100aa578063b9a2ddb1146100d5575b600080fd5b61006f61006a366004613228565b6100e8565b6040519081526020015b60405180910390f35b610095610090366004613245565b6100f9565b005b6100956100a536600461327e565b610107565b6100bd6100b83660046132b9565b610113565b6040516001600160a01b039091168152602001610079565b6100956100e3366004613228565b61012f565b60006100f382610138565b92915050565b61010382826102f9565b5050565b610110816107d6565b50565b600061011d610854565b6101283084846108bd565b9392505050565b61011081610cec565b60008161014481610dd3565b6000805160206140f4833981519152600061015e85610e2a565b600481015490915065010000000000900463ffffffff16156101bf5760405162461bcd60e51b81526020600482015260156024820152746167656e74207374696c6c20617661696c61626c6560581b60448201526064015b60405180910390fd5b6101c881610ec6565b6001600160401b0316156102135760405162461bcd60e51b81526020600482015260126024820152716167656e74207374696c6c2061637469766560701b60448201526064016101b6565b60048181015460ff168181111561022c5761022c613321565b146102db576004818101805460ff19169091179055601082015460009061026390600160801b90046001600160401b03164261334d565b905061026e81610f2c565b82600a0160086101000a8154816001600160401b0302191690836001600160401b03160217905550856001600160a01b03167f86bbd7101c8a4494b25e559dee68314c4bc85dd8eae43137811ebcc8bb26a69c826040516102d191815260200190565b60405180910390a2505b600a0154600160401b90046001600160401b03169250505b50919050565b8161030381610dd3565b600080516020614114833981519152600061031d85610e2a565b90506004808083015460ff169081111561033957610339613321565b1461037e5760405162461bcd60e51b815260206004820152601560248201527419195cdd1c9bde481b9bdd08185b9b9bdd5b98d959605a1b60448201526064016101b6565b600a810154600160401b90046001600160401b031642116103e15760405162461bcd60e51b815260206004820152601860248201527f64657374726f793a206e6f7420616c6c6f77656420796574000000000000000060448201526064016101b6565b6103ea81610ec6565b6001600160401b03161561040057610400613360565b805460405162f55d9d60e01b81526001600160a01b0386811660048301529091169062f55d9d90602401600060405180830381600087803b15801561044457600080fd5b505af1158015610458573d6000803e3d6000fd5b505060405162f55d9d60e01b81526001600160a01b0387811660048301528816925062f55d9d9150602401600060405180830381600087803b15801561049d57600080fd5b505af11580156104b1573d6000803e3d6000fd5b50505050600a8101546003830154600160d01b90910463ffffffff16906104d982600161334d565b10156105b2576003830180546104f190600190613376565b8154811061050157610501613389565b6000918252602090912001546003840180546001600160a01b03909216918390811061052f5761052f613389565b9060005260206000200160006101000a8154816001600160a01b0302191690836001600160a01b03160217905550600061059184600301838154811061057757610577613389565b6000918252602090912001546001600160a01b0316610e2a565b600a01805463ffffffff60d01b1916600160d01b63ffffffff851602179055505b826003018054806105c5576105c561339f565b600082815260209020810160001990810180546001600160a01b0319169055019055610791827f87971da2ffd60f015ef85ead0fa62169ee9c342d8f1db03babee919d33ccf8196000908152600b909101602052604080822080546001600160c01b03199081169091557fe0243e58c76a12071b4a375d5f283eaf01d6025bbabcdabd4ca2d0d3f67c5e3283528183208054821690557f381f724f6ecd2a24d4a619016614db98defae86152186d60beff19b685ea2b5a83528183208054821690557f061115fe294a09236be45875a15a7800403f95fde525547c9662b92a6359932e83528183208054821690557f9aea190d2b3dd7d1d8e8d055952c2e9923c067928667db7f47b1f818b830cba483528183208054821690557f50c491cb85c5de272af4bdee937deba8bfb8efc757876ce0671faf286198be9583528183208054821690557feb57753c1b4e94880186635dfc9185be51406a9179ca76e095563b00d9ef41d683528183208054821690557f98d367e8e159b82e76c08eb9e8367ae98bb11d65de64fdcde63c3a6a50e1756583528183208054821690557f88c9c5a9542135d89e93b19972c3c03dc735891e5c01c49b7bf7f869ba18b1bd8352912080549091169055565b61079a82610f98565b6040516001600160a01b038716907fc3eb286975d067e136d2d07c4c04700fbc1f72bf6b0778de0c99e95f4385661790600090a2505050505050565b6000805160206141148339815191526107ee82610fbc565b60006107f93361101a565b9050610804816110a7565b6108166005830184600b85018461115f565b61084f61082b610120850161010086016133d1565b6108369060016133ec565b610848610140860161012087016133d1565b60006112b4565b505050565b7fec7e8c1c441439dd40959777f4c577ea0cd42fcc1dbe59d2bd0f5d9c55df8dc654600160c81b900460ff166108bb5760405162461bcd60e51b815260206004820152600c60248201526b1b9bdd08185d1d1858da195960a21b60448201526064016101b6565b565b60006000805160206141148339815191526109186108de6020850185613413565b8080601f01602080910402602001604051908101604052809392919081815260200183838082843760009201919091525061144292505050565b60006109233361101a565b905061092e816110a7565b6109378561166d565b60006109466020870187613460565b6109549060a0810190613480565b61095d90613544565b80519091506109a05760405162461bcd60e51b815260206004820152600f60248201526e1859191c995cdcc81a5b9d985b1a59608a1b60448201526064016101b6565b60006000805160206140f4833981519152600201546040516313db266360e31b81526001600160a01b038a8116600483015290911691506000908290639ed93318906024016020604051808303816000875af1158015610a04573d6000803e3d6000fd5b505050506040513d601f19601f82011682018060405250810190610a2891906135e9565b90506000604082901b600160401b600160e01b03167f5bebac0595fee029d42bb673937f5f1cb81cf8641382bc17774635de9b7d7965189050600060048083015460ff1690811115610a7c57610a7c613321565b14610a8957610a89613360565b600481018054600160ff199091168117909155810180546001600160a01b0319166001600160a01b038716179055610ace610ac760208a018a613228565b82906117d2565b600f86015460048201805464ffff000000191661ffff909216630100000002919091179055610b018160808a0135611931565b610b0f8160a08a01356119c9565b610b1d8160408a0135611a61565b610b2b8160608a0135611acc565b610b398160c08a0135611b39565b610b7385838660400151610b586000805160206140f483398151915290565b600d015460058b0193929190600160501b900460ff16611b64565b60208401516002820190610b87908261368d565b50604084810151600383018190556000908152600588016020522054600f8701546001600160401b03600160a01b909204821691610bd69162010000900416610bd18360016133ec565b611c6a565b600a8301805467ffffffffffffffff19166001600160401b0392909216919091179055610c048b848b611c93565b82546001600160a01b0319166001600160a01b0391909116178255610c2d8260e08b0135611e58565b610c3c826101008b0135612004565b610c4b826101208b01356120b5565b610c5a826101408b0135612116565b6003870154610c6890612140565b600a8301805463ffffffff60d01b1916600160d01b63ffffffff939093169290920291909117905560038701805460018101825560009182526020918290200180546001600160a01b0319166001600160a01b0386811691909117909155835491870151610cdd92899287929116908d6121a5565b50909998505050505050505050565b80610cf681610dd3565b6000805160206140f48339815191526000610d1084610e2a565b54604080516332f7ce0b60e21b815290516001600160a01b039092169250600091839163cbdf382c9160048083019260209291908290030181865afa158015610d5d573d6000803e3d6000fd5b505050506040513d601f19601f82011682018060405250810190610d8191906135e9565b6002840154909150610d9c906001600160a01b031686612414565b6003830154610db4906001600160a01b031683612414565b6004830154610dcc906001600160a01b031682612414565b5050505050565b610de5610ddf82610e2a565b33612642565b6101105760405162461bcd60e51b815260206004820152601660248201527537b7363c9030b3b2b73a103b30bab63a1037bbb732b960511b60448201526064016101b6565b7f5bebac0595fee029d42bb673937f5f1cb81cf8641382bc17774635de9b7d7965600160401b600160e01b03604083901b161880600060048084015460ff1690811115610e7957610e79613321565b036102f35760405162461bcd60e51b815260206004820152601b60248201527f696e76616c6964206167656e74207661756c742061646472657373000000000060448201526064016101b6565b60058101546000906001600160401b03600160801b82048116600160c01b909204161115610ef657610ef6613360565b60058201546001600160401b03600160801b8204811691610f229180821691600160401b9004166133ec565b6100f391906133ec565b60006001600160401b03821115610f945760405162461bcd60e51b815260206004820152602660248201527f53616665436173743a2076616c756520646f65736e27742066697420696e203660448201526534206269747360d01b60648201526084016101b6565b5090565b600d810181815b80821015610fb65760008255600182019150610f9f565b50505050565b6000610fd06102a08301610280840161375d565b60ff16146110115760405162461bcd60e51b815260206004820152600e60248201526d1c185e5b595b9d0819985a5b195960921b60448201526064016101b6565b610110816126f1565b6000806110256128b9565b60405163039f412760e11b81526001600160a01b038581166004830152919091169063073e824e90602401602060405180830381865afa15801561106d573d6000803e3d6000fd5b505050506040513d601f19601f8201168201806040525081019061109191906135e9565b90506001600160a01b0381166100f35782610128565b6110af6128b9565b604051633af32abf60e01b81526001600160a01b0383811660048301529190911690633af32abf90602401602060405180830381865afa1580156110f7573d6000803e3d6000fd5b505050506040513d601f19601f8201168201806040525081019061111b9190613778565b6101105760405162461bcd60e51b81526020600482015260156024820152741859d95b9d081b9bdd081dda1a5d195b1a5cdd1959605a1b60448201526064016101b6565b61014083013560000361117457611174613360565b610140830135600090815260208590526040902080546001600160a01b0316156111da5760405162461bcd60e51b81526020600482015260176024820152761859191c995cdcc8185b1c9958591e4818db185a5b5959604a1b60448201526064016101b6565b67464250526641001360c01b6001600160a01b03831617610240850135146112445760405162461bcd60e51b815260206004820152601f60248201527f696e76616c69642061646472657373206f776e6572736869702070726f6f660060448201526064016101b6565b61124e83856128e7565b8054600168ff000000000000000160a01b0319166001600160a01b03831617600160e01b178155611287610120850161010086016133d1565b81546001600160401b0391909116600160a01b0267ffffffffffffffff60a01b1990911617905550505050565b6000805160206141148339815191526000806112d084876133ec565b600f8401549091506001600160401b03620100009091048116908216111561131c57600f8301805469ffffffffffffffff00001916620100006001600160401b03841602179055600191505b60006103e86000805160206140f4833981519152600c01546113449063ffffffff1687613795565b61134e91906137d6565b61135890876133ec565b600f8501546001600160401b039182169250600160501b9004168111156113af5761138281610f2c565b84600f01600a6101000a8154816001600160401b0302191690836001600160401b03160217905550600192505b8215611439576113be42610f2c565b600f8501805467ffffffffffffffff60901b1916600160901b6001600160401b039384160217908190556040805162010000830484168152600160501b9092049092166020820152428183015290517f2078549e3faec355556787458d744ad19765bbb953b3f71801333f29abdce1c8916060908290030190a15b50505050505050565b604051600080516020614114833981519152907fec7e8c1c441439dd40959777f4c577ea0cd42fcc1dbe59d2bd0f5d9c55df8db890611482908490613820565b9081526040519081900360200190205460ff16156114e25760405162461bcd60e51b815260206004820152601760248201527f73756666697820616c726561647920726573657276656400000000000000000060448201526064016101b6565b600181600201836040516114f69190613820565b908152604051908190036020019020805491151560ff19909216919091179055815182906014811061155c5760405162461bcd60e51b815260206004820152600f60248201526e73756666697820746f6f206c6f6e6760881b60448201526064016101b6565b60005b81811015610dcc57600083828151811061157b5761157b613389565b01602001516001600160f81b0319169050604160f81b81108015906115ae5750602d60f91b6001600160f81b0319821611155b806115e05750600360fc1b6001600160f81b03198216108015906115e05750603960f81b6001600160f81b0319821611155b8061161857506000821180156115ff57506115fc600184613376565b82105b80156116185750602d60f81b6001600160f81b03198216145b6116645760405162461bcd60e51b815260206004820152601b60248201527f696e76616c69642063686172616374657220696e20737566666978000000000060448201526064016101b6565b5060010161155f565b7f4f24f5c433db0962dac0d2c8b84197a6e6c7cc4e5d9ebe1916a1b6193da2f342547f4f24f5c433db0962dac0d2c8b84197a6e6c7cc4e5d9ebe1916a1b6193da2f345546000805160206140f4833981519152916001600160a01b0316906116d86020850185613460565b60200135146117195760405162461bcd60e51b815260206004820152600d60248201526c34b73b30b634b21031b430b4b760991b60448201526064016101b6565b60405163f34ef58760e01b81526001600160a01b0382169063f34ef587906117459086906004016139a1565b602060405180830381865afa158015611762573d6000803e3d6000fd5b505050506040513d601f19601f820116820180604052508101906117869190613778565b61084f5760405162461bcd60e51b815260206004820152601b60248201527f616464726573732076616c6964697479206e6f742070726f766564000000000060448201526064016101b6565b60008051602061411483398151915260006117ee600284612923565b9050600082600001828154811061180757611807613389565b60009182526020909120600490910201905060028154600160a01b900460ff16600281111561183857611838613321565b1461184557611845613360565b8054600160b01b90046001600160401b03161561189c5760405162461bcd60e51b815260206004820152601560248201527418dbdb1b185d195c985b0819195c1c9958d85d1959605a1b60448201526064016101b6565b6118a5826129c6565b8560040160016101000a81548161ffff021916908361ffff16021790555060006118ce86612a29565b905060006118dc8288612b27565b600384015490915063ffffffff168110156114395760405162461bcd60e51b81526020600482015260156024820152741b9bdd08195b9bdd59da0818dbdb1b185d195c985b605a1b60448201526064016101b6565b600061193c83612bf2565b600381015490915063ffffffff168210156119995760405162461bcd60e51b815260206004820152601a60248201527f636f6c6c61746572616c20726174696f20746f6f20736d616c6c00000000000060448201526064016101b6565b6119a282612140565b83600401600d6101000a81548163ffffffff021916908363ffffffff160217905550505050565b60006119d483612c3f565b600381015490915063ffffffff16821015611a315760405162461bcd60e51b815260206004820152601a60248201527f636f6c6c61746572616c20726174696f20746f6f20736d616c6c00000000000060448201526064016101b6565b611a3a82612140565b8360040160116101000a81548163ffffffff021916908363ffffffff160217905550505050565b6127108110611aa15760405162461bcd60e51b815260206004820152600c60248201526b0cccaca40e8dede40d0d2ced60a31b60448201526064016101b6565b611aaa816129c6565b8260040160096101000a81548161ffff021916908361ffff1602179055505050565b6127108110611b0e5760405162461bcd60e51b815260206004820152600e60248201526d0ecc2d8eaca40e8dede40d0d2ced60931b60448201526064016101b6565b611b17816129c6565b82600401600b6101000a81548161ffff021916908361ffff1602179055505050565b611b42816129c6565b82600a0160106101000a81548161ffff021916908361ffff1602179055505050565b600082815260208690526040902080546001600160a01b0316611b9957805468ffffffffffffffffff60a01b19168155611bef565b80546001600160a01b03868116911614611bef5760405162461bcd60e51b81526020600482015260176024820152761859191c995cdcc8185b1c9958591e4818db185a5b5959604a1b60448201526064016101b6565b811580611c0457508054600160e01b900460ff165b611c455760405162461bcd60e51b81526020600482015260126024820152711153d0481c1c9bdbd9881c995c5d5a5c995960721b60448201526064016101b6565b80546001600160a01b0319166001600160a01b03949094169390931790925550505050565b6000816001600160401b0316836001600160401b03161015611c8c5781610128565b5090919050565b7f4f24f5c433db0962dac0d2c8b84197a6e6c7cc4e5d9ebe1916a1b6193da2f33d547f4f24f5c433db0962dac0d2c8b84197a6e6c7cc4e5d9ebe1916a1b6193da2f33e546040516309825b9560e01b81526000926000805160206140f4833981519152926001600160a01b0391821692911690849083906309825b9590611d22908b908b908b90600401613a80565b6020604051808303816000875af1158015611d41573d6000803e3d6000fd5b505050506040513d601f19601f82011682018060405250810190611d6591906135e9565b905060006001600160a01b03831663796d58368360058801611d8a60208c018c613413565b6040518563ffffffff1660e01b8152600401611da99493929190613b53565b6020604051808303816000875af1158015611dc8573d6000803e3d6000fd5b505050506040513d601f19601f82011682018060405250810190611dec91906135e9565b6040516333ce01fd60e01b81526001600160a01b038083166004830152919250908316906333ce01fd90602401600060405180830381600087803b158015611e3357600080fd5b505af1158015611e47573d6000803e3d6000fd5b50939b9a5050505050505050505050565b6000611e6383612c3f565b600381015490915063ffffffff1680831015611eb15760405162461bcd60e51b815260206004820152600d60248201526c76616c756520746f6f206c6f7760981b60448201526064016101b6565b835460408051633cfc747d60e01b815290516000926001600160a01b031691633cfc747d9160048083019260209291908290030181865afa158015611efa573d6000803e3d6000fd5b505050506040513d601f19601f82011682018060405250810190611f1e9190613bfc565b63ffffffff1690506002611f33826003613c22565b611f3d9190613c39565b84111580611f615750600a611f5383600c613c22565b611f5d9190613c39565b8411155b611fa05760405162461bcd60e51b815260206004820152601060248201526f696e63726561736520746f6f2062696760801b60448201526064016101b6565b8454604051630f0f739560e31b8152600481018690526001600160a01b039091169063787b9ca890602401600060405180830381600087803b158015611fe557600080fd5b505af1158015611ff9573d6000803e3d6000fd5b505050505050505050565b600061200f83612c3f565b600381015490915063ffffffff1682101561205c5760405162461bcd60e51b815260206004820152600d60248201526c76616c756520746f6f206c6f7760981b60448201526064016101b6565b825460405163444c2e6b60e11b8152600481018490526001600160a01b03909116906388985cd690602401600060405180830381600087803b1580156120a157600080fd5b505af1158015611439573d6000803e3d6000fd5b8154604051634d2123f360e11b8152600481018390526001600160a01b0390911690639a4247e690602401600060405180830381600087803b1580156120fa57600080fd5b505af115801561210e573d6000803e3d6000fd5b505050505050565b61211f81612140565b600c92909201805463ffffffff191663ffffffff9093169290921790915550565b600063ffffffff821115610f945760405162461bcd60e51b815260206004820152602660248201527f53616665436173743a2076616c756520646f65736e27742066697420696e203360448201526532206269747360d01b60648201526084016101b6565b61223b604051806101c0016040528060006001600160a01b0316815260200160006001600160a01b031681526020016060815260200160006001600160a01b0316815260200160006001600160a01b031681526020016000815260200160008152602001600081526020016000815260200160008152602001600081526020016000815260200160008152602001600081525090565b6001600160a01b038416808252604080516332f7ce0b60e21b8152905163cbdf382c916004808201926020929091908290030181865afa158015612283573d6000803e3d6000fd5b505050506040513d601f19601f820116820180604052508101906122a791906135e9565b6001600160a01b03166020808301919091526122c590830183613228565b81606001906001600160a01b031690816001600160a01b031681525050836001600160a01b0316639edbf0076040518163ffffffff1660e01b8152600401602060405180830381865afa158015612320573d6000803e3d6000fd5b505050506040513d601f19601f8201168201806040525081019061234491906135e9565b6001600160a01b0390811660808084019190915260408084018690528481013560a080860191909152606086013560c0808701919091529286013560e08087019190915290860135610100808701919091529286013561012080870191909152908601356101408087019190915292860135610160860152850135610180850152908401356101a084015251868216918816907fdde4e1391087a23dd1b24107a9e3848e2e1297449a6d212092d3162dbf2340bc90612404908590613c79565b60405180910390a3505050505050565b60008190506000836001600160a01b0316635c60da1b6040518163ffffffff1660e01b8152600401602060405180830381865afa158015612459573d6000803e3d6000fd5b505050506040513d601f19601f8201168201806040525081019061247d91906135e9565b90506000826001600160a01b0316635c60da1b6040518163ffffffff1660e01b8152600401602060405180830381865afa1580156124bf573d6000803e3d6000fd5b505050506040513d601f19601f820116820180604052508101906124e391906135e9565b9050816001600160a01b0316816001600160a01b031614610dcc57604051630422b7e960e11b81526001600160a01b038581166004830152600091908716906308456fd290602401600060405180830381865afa158015612548573d6000803e3d6000fd5b505050506040513d6000823e601f3d908101601f191682016040526125709190810190613d77565b8051909150156125df5760405163278f794360e11b81526001600160a01b03851690634f1ef286906125a89086908590600401613de4565b600060405180830381600087803b1580156125c257600080fd5b505af11580156125d6573d6000803e3d6000fd5b5050505061210e565b604051631b2ce7f360e11b81526001600160a01b038481166004830152851690633659cfe690602401600060405180830381600087803b15801561262257600080fd5b505af1158015612636573d6000803e3d6000fd5b50505050505050505050565b60018201546000906001600160a01b039081169083168114806126e957506126686128b9565b604051631f86345d60e31b81526001600160a01b038381166004830152919091169063fc31a2e890602401602060405180830381865afa1580156126b0573d6000803e3d6000fd5b505050506040513d601f19601f820116820180604052508101906126d491906135e9565b6001600160a01b0316836001600160a01b0316145b949350505050565b7f4f24f5c433db0962dac0d2c8b84197a6e6c7cc4e5d9ebe1916a1b6193da2f342547f4f24f5c433db0962dac0d2c8b84197a6e6c7cc4e5d9ebe1916a1b6193da2f345546000805160206140f4833981519152916001600160a01b0316906040840135146127915760405162461bcd60e51b815260206004820152600d60248201526c34b73b30b634b21031b430b4b760991b60448201526064016101b6565b60405163a7a3797560e01b81526001600160a01b0382169063a7a37975906127bd908690600401613e08565b602060405180830381865afa1580156127da573d6000803e3d6000fd5b505050506040513d601f19601f820116820180604052508101906127fe9190613778565b61284a5760405162461bcd60e51b815260206004820152601860248201527f6c6567616c207061796d656e74206e6f742070726f766564000000000000000060448201526064016101b6565b61286d61285f610140850161012086016133d1565b6001600160401b0316612c78565b61084f5760405162461bcd60e51b815260206004820152601c60248201527f7665726966696564207472616e73616374696f6e20746f6f206f6c640000000060448201526064016101b6565b7f4f24f5c433db0962dac0d2c8b84197a6e6c7cc4e5d9ebe1916a1b6193da2f341546001600160a01b031690565b6040805161014083013560208083019190915260a0840135828401528251808303840181526060909201909252805191012061084f8382612c9b565b6000600080516020614114833981519152817fec7e8c1c441439dd40959777f4c577ea0cd42fcc1dbe59d2bd0f5d9c55df8db7816129618787612d63565b8152602001908152602001600020549050600081116129b25760405162461bcd60e51b815260206004820152600d60248201526c3ab735b737bbb7103a37b5b2b760991b60448201526064016101b6565b6129bd600182613376565b95945050505050565b600061ffff821115610f945760405162461bcd60e51b815260206004820152602660248201527f53616665436173743a2076616c756520646f65736e27742066697420696e203160448201526536206269747360d01b60648201526084016101b6565b612a4e6040805160608101909152806000815260200160008152602001600081525090565b6000612a5983612bf2565b6040805160608101909152909150806000815282546020909101906001600160a01b03166370a082317f5bebac0595fee029d42bb673937f5f1cb81cf8641382bc17774635de9b7d7965871860401c6040516001600160e01b031960e084901b1681526001600160a01b039091166004820152602401602060405180830381865afa158015612aec573d6000803e3d6000fd5b505050506040513d601f19601f82011682018060405250810190612b109190613f95565b8152602001612b1e83612d8d565b90529392505050565b600080600184516002811115612b3f57612b3f613321565b14612b5e576005830154600160801b90046001600160401b0316612b74565b6005830154600160c01b90046001600160401b03165b60058401546001600160401b0391821692506000918391612ba09181811691600160401b90041661334d565b612baa919061334d565b905080600003612bc3576402540be400925050506100f3565b6000612bd3828760400151612da3565b6020870151909150612be89061271083612db9565b9695505050505050565b60008060008051602061411483398151915260048401548154919250829161010090910461ffff16908110612c2957612c29613389565b9060005260206000209060040201915050919050565b600080600080516020614114833981519152600484015481549192508291630100000090910461ffff16908110612c2957612c29613389565b6000612c88600e62015180613c22565b612c929042613376565b90911015919050565b60008181526020839052604090205415612cf75760405162461bcd60e51b815260206004820152601960248201527f7061796d656e7420616c726561647920636f6e6669726d65640000000000000060448201526064016101b6565b6000612d066201518042613c39565b6000818152600185016020526040812054919250819003612d275782612d29565b805b6000848152602086815260408083209390935584825260018701905290812084905560028501549003610fb6576002840182905550505050565b6000816001600160a01b031660a0846002811115612d8357612d83613321565b901b179392505050565b6000612d9a826000612edf565b50909392505050565b600061012882612db56009600a614092565b8591905b6000808211612dfd5760405162461bcd60e51b815260206004820152601060248201526f4469766973696f6e206279207a65726f60801b60448201526064016101b6565b83600003612e0d57506000610128565b83830283858281612e2057612e206137c0565b0403612e3e57828181612e3557612e356137c0565b04915050610128565b506000612e4b8386613c39565b90506000612e59848761409e565b90506000612e678587613c39565b90506000612e75868861409e565b905085612e828285613c22565b612e8c9190613c39565b612e968385613c22565b612ea08387613c22565b88612eab8689613c22565b612eb59190613c22565b612ebf919061334d565b612ec9919061334d565b612ed3919061334d565b98975050505050505050565b600080600080600080612f7e886001018054612efa90613611565b80601f0160208091040260200160405190810160405280929190818152602001828054612f2690613611565b8015612f735780601f10612f4857610100808354040283529160200191612f73565b820191906000526020600020905b815481529060010190602001808311612f5657829003601f168201915b50505050508861309e565b8a549295509093509150600160f01b900460ff1615612fc5578754600090612fb490600160a81b900460ff16600183878661318c565b965091945084935061309792505050565b60008060006130608b6002018054612fdc90613611565b80601f016020809104026020016040519081016040528092919081815260200182805461300890613611565b80156130555780601f1061302a57610100808354040283529160200191613055565b820191906000526020600020905b81548152906001019060200180831161303857829003601f168201915b50505050508b61309e565b8d54929550909350915060009061308490600160a81b900460ff1685848a8961318c565b9950949750909550613097945050505050565b9250925092565b7f4f24f5c433db0962dac0d2c8b84197a6e6c7cc4e5d9ebe1916a1b6193da2f34454600090819081906000805160206140f4833981519152906001600160a01b031685156131605760405163e4a0a55b60e01b81526001600160a01b0382169063e4a0a55b90613112908a906004016140b2565b606060405180830381865afa15801561312f573d6000803e3d6000fd5b505050506040513d601f19601f8201168201806040525081019061315391906140c5565b9450945094505050613097565b60405163524f388960e01b81526001600160a01b0382169063524f388990613112908a906004016140b2565b60006000805160206140f48339815191528160096131aa878a61334d565b6131b4919061334d565b600a8301549091506000906131d4908690600160a81b900460ff1661334d565b9050808210156131e6576131e6613360565b6132066131f38284613376565b6131fe90600a614092565b87908a612db9565b9998505050505050505050565b6001600160a01b038116811461011057600080fd5b60006020828403121561323a57600080fd5b813561012881613213565b6000806040838503121561325857600080fd5b823561326381613213565b9150602083013561327381613213565b809150509250929050565b60006020828403121561329057600080fd5b81356001600160401b038111156132a657600080fd5b82016102a0818503121561012857600080fd5b600080604083850312156132cc57600080fd5b82356001600160401b03808211156132e357600080fd5b90840190604082870312156132f757600080fd5b9092506020840135908082111561330d57600080fd5b508301610160818603121561327357600080fd5b634e487b7160e01b600052602160045260246000fd5b634e487b7160e01b600052601160045260246000fd5b808201808211156100f3576100f3613337565b634e487b7160e01b600052600160045260246000fd5b818103818111156100f3576100f3613337565b634e487b7160e01b600052603260045260246000fd5b634e487b7160e01b600052603160045260246000fd5b80356001600160401b03811681146133cc57600080fd5b919050565b6000602082840312156133e357600080fd5b610128826133b5565b6001600160401b0381811683821601908082111561340c5761340c613337565b5092915050565b6000808335601e1984360301811261342a57600080fd5b8301803591506001600160401b0382111561344457600080fd5b60200191503681900382131561345957600080fd5b9250929050565b6000823560be1983360301811261347657600080fd5b9190910192915050565b60008235605e1983360301811261347657600080fd5b634e487b7160e01b600052604160045260246000fd5b604051606081016001600160401b03811182821017156134ce576134ce613496565b60405290565b604051601f8201601f191681016001600160401b03811182821017156134fc576134fc613496565b604052919050565b801515811461011057600080fd5b80356133cc81613504565b60006001600160401b0382111561353657613536613496565b50601f01601f191660200190565b60006060823603121561355657600080fd5b61355e6134ac565b823561356981613504565b81526020838101356001600160401b0381111561358557600080fd5b840136601f82011261359657600080fd5b80356135a96135a48261351d565b6134d4565b81815236848385010111156135bd57600080fd5b818484018583013760008483830101528084860152505050506040830135604082015280915050919050565b6000602082840312156135fb57600080fd5b815161012881613213565b80356133cc81613213565b600181811c9082168061362557607f821691505b6020821081036102f357634e487b7160e01b600052602260045260246000fd5b601f82111561084f576000816000526020600020601f850160051c8101602086101561366e5750805b601f850160051c820191505b8181101561210e5782815560010161367a565b81516001600160401b038111156136a6576136a6613496565b6136ba816136b48454613611565b84613645565b602080601f8311600181146136ef57600084156136d75750858301515b600019600386901b1c1916600185901b17855561210e565b600085815260208120601f198616915b8281101561371e578886015182559484019460019091019084016136ff565b508582101561373c5787850151600019600388901b60f8161c191681555b5050505050600190811b01905550565b803560ff811681146133cc57600080fd5b60006020828403121561376f57600080fd5b6101288261374c565b60006020828403121561378a57600080fd5b815161012881613504565b6001600160401b038181168382160280821691908281146137b8576137b8613337565b505092915050565b634e487b7160e01b600052601260045260246000fd5b60006001600160401b03808416806137f0576137f06137c0565b92169190910492915050565b60005b838110156138175781810151838201526020016137ff565b50506000910152565b600082516134768184602087016137fc565b6000808335601e1984360301811261384957600080fd5b83016020810192503590506001600160401b0381111561386857600080fd5b8060051b360382131561345957600080fd5b81835260006001600160fb1b0383111561389357600080fd5b8260051b80836020870137939093016020019392505050565b6000808335601e198436030181126138c357600080fd5b83016020810192503590506001600160401b038111156138e257600080fd5b80360382131561345957600080fd5b81835281816020850137506000828201602090810191909152601f909101601f19169091010190565b600061392682836138ac565b602085526129bd6020860182846138f1565b60008235605e1983360301811261394e57600080fd5b90910192915050565b6000813561396481613504565b1515835261397560208301836138ac565b6060602086015261398a6060860182846138f1565b915050604083013560408501528091505092915050565b6020815260006139b18384613832565b604060208501526139c660608501828461387a565b915050602084013560be198536030181126139e057600080fd5b8481019050601f198483030160408501528035825260208101356020830152613a0b604082016133b5565b6001600160401b03808216604085015280613a28606085016133b5565b16606085015250506080810135601e19823603018112613a4757600080fd5b60c06080840152613a5d60c0840183830161391a565b9050613a6c60a0830183613938565b915082810360a0840152612be88183613957565b6001600160a01b03848116825283166020820152606060408201819052600090613abc908301613aaf85613606565b6001600160a01b03169052565b613ac960208401846138ac565b610160806080860152613ae16101c0860183856138f1565b9250604086013560a0860152606086013560c0860152608086013560e0860152610100915060a08601358286015261012060c08701358187015261014060e088013581880152838801358388015281880135610180880152808801356101a08801525050505080915050949350505050565b60018060a01b0385168152600060206060602084015260008654613b7681613611565b8060608701526080600180841660008114613b985760018114613bb457613be4565b60ff19851660808a0152608084151560051b8a01019550613be4565b8b600052602060002060005b85811015613bdb5781548b8201860152908301908801613bc0565b8a016080019650505b50505050508381036040850152612ed38186886138f1565b600060208284031215613c0e57600080fd5b815163ffffffff8116811461012857600080fd5b80820281158282048414176100f3576100f3613337565b600082613c4857613c486137c0565b500490565b60008151808452613c658160208601602086016137fc565b601f01601f19169290920160200192915050565b60208152613c936020820183516001600160a01b03169052565b60006020830151613caf60408401826001600160a01b03169052565b5060408301516101c0806060850152613ccc6101e0850183613c4d565b91506060850151613ce860808601826001600160a01b03169052565b5060808501516001600160a01b03811660a08601525060a085015160c08581019190915285015160e08086019190915285015161010080860191909152850151610120808601919091528501516101408086019190915285015161016080860191909152850151610180808601919091528501516101a080860191909152909401519390920192909252919050565b600060208284031215613d8957600080fd5b81516001600160401b03811115613d9f57600080fd5b8201601f81018413613db057600080fd5b8051613dbe6135a48261351d565b818152856020838501011115613dd357600080fd5b6129bd8260208301602086016137fc565b6001600160a01b03831681526040602082018190526000906126e990830184613c4d565b602081526000613e188384613832565b6102a0806020860152613e306102c08601838561387a565b92506020860135604086015260408601356060860152613e52606087016133b5565b91506001600160401b03808316608087015280613e71608089016133b5565b1660a08701525060a086013560c086015260c086013560e0860152610100915060e086013582860152610120613ebb818701613eae858a016133b5565b6001600160401b03169052565b613ec68188016133b5565b925050610140613ee0818701846001600160401b03169052565b610160925080870135838701525061018082870135818701526101a092508087013583870152506101c082870135818701526101e092508087013583870152506102008287013581870152610220925080870135838701525061024082870135818701526102609250808701358387015250613f5d828701613512565b9150610280613f6f8187018415159052565b613f7a81880161374c565b925050613f8b8186018360ff169052565b5090949350505050565b600060208284031215613fa757600080fd5b5051919050565b600181815b80851115613fe9578160001904821115613fcf57613fcf613337565b80851615613fdc57918102915b93841c9390800290613fb3565b509250929050565b600082614000575060016100f3565b8161400d575060006100f3565b8160018114614023576002811461402d57614049565b60019150506100f3565b60ff84111561403e5761403e613337565b50506001821b6100f3565b5060208310610133831016604e8410600b841016171561406c575081810a6100f3565b6140768383613fae565b806000190482111561408a5761408a613337565b029392505050565b60006101288383613ff1565b6000826140ad576140ad6137c0565b500690565b6020815260006101286020830184613c4d565b6000806000606084860312156140da57600080fd5b835192506020840151915060408401519050925092509256fe4f24f5c433db0962dac0d2c8b84197a6e6c7cc4e5d9ebe1916a1b6193da2f33aec7e8c1c441439dd40959777f4c577ea0cd42fcc1dbe59d2bd0f5d9c55df8db6a264697066735822122074d89ca8385fafaee50f779f96ca7b46d4d3a6765feed9b4c361d2eeea0b555f64736f6c63430008170033",
  "linkReferences": {},
  "deployedLinkReferences": {}
}