{
  "_format": "hh-sol-artifact-1",
  "contractName": "AgentVaultManagementFacet",
  "sourceName": "contracts/assetManager/facets/AgentVaultManagementFacet.sol",
  "abi": [
    {
      "anonymous": false,
      "inputs": [
        {
          "indexed": true,
          "internalType": "address",
          "name": "agentVault",
          "type": "address"
        },
        {
          "indexed": false,
          "internalType": "uint256",
          "name": "destroyAllowedAt",
          "type": "uint256"
        }
      ],
      "name": "AgentDestroyAnnounced",
      "type": "event"
    },
    {
      "anonymous": false,
      "inputs": [
        {
          "indexed": true,
          "internalType": "address",
          "name": "agentVault",
          "type": "address"
        }
      ],
      "name": "AgentDestroyed",
      "type": "event"
    },
    {
      "anonymous": false,
      "inputs": [
        {
          "indexed": true,
          "internalType": "address",
          "name": "owner",
          "type": "address"
        },
        {
          "indexed": true,
          "internalType": "address",
          "name": "agentVault",
          "type": "address"
        },
        {
          "components": [
            {
              "internalType": "address",
              "name": "collateralPool",
              "type": "address"
            },
            {
              "internalType": "address",
              "name": "collateralPoolToken",
              "type": "address"
            },
            {
              "internalType": "string",
              "name": "underlyingAddress",
              "type": "string"
            },
            {
              "internalType": "address",
              "name": "vaultCollateralToken",
              "type": "address"
            },
            {
              "internalType": "address",
              "name": "poolWNatToken",
              "type": "address"
            },
            {
              "internalType": "uint256",
              "name": "feeBIPS",
              "type": "uint256"
            },
            {
              "internalType": "uint256",
              "name": "poolFeeShareBIPS",
              "type": "uint256"
            },
            {
              "internalType": "uint256",
              "name": "mintingVaultCollateralRatioBIPS",
              "type": "uint256"
            },
            {
              "internalType": "uint256",
              "name": "mintingPoolCollateralRatioBIPS",
              "type": "uint256"
            },
            {
              "internalType": "uint256",
              "name": "buyFAssetByAgentFactorBIPS",
              "type": "uint256"
            },
            {
              "internalType": "uint256",
              "name": "poolExitCollateralRatioBIPS",
              "type": "uint256"
            },
            {
              "internalType": "uint256",
              "name": "poolTopupCollateralRatioBIPS",
              "type": "uint256"
            },
            {
              "internalType": "uint256",
              "name": "poolTopupTokenPriceFactorBIPS",
              "type": "uint256"
            },
            {
              "internalType": "uint256",
              "name": "handshakeType",
              "type": "uint256"
            }
          ],
          "indexed": false,
          "internalType": "struct IAssetManagerEvents.AgentVaultCreationData",
          "name": "creationData",
          "type": "tuple"
        }
      ],
      "name": "AgentVaultCreated",
      "type": "event"
    },
    {
      "anonymous": false,
      "inputs": [
        {
          "indexed": false,
          "internalType": "uint256",
          "name": "underlyingBlockNumber",
          "type": "uint256"
        },
        {
          "indexed": false,
          "internalType": "uint256",
          "name": "underlyingBlockTimestamp",
          "type": "uint256"
        },
        {
          "indexed": false,
          "internalType": "uint256",
          "name": "updatedAt",
          "type": "uint256"
        }
      ],
      "name": "CurrentUnderlyingBlockUpdated",
      "type": "event"
    },
    {
      "inputs": [
        {
          "internalType": "address",
          "name": "_agentVault",
          "type": "address"
        }
      ],
      "name": "announceDestroyAgent",
      "outputs": [
        {
          "internalType": "uint256",
          "name": "_destroyAllowedAt",
          "type": "uint256"
        }
      ],
      "stateMutability": "nonpayable",
      "type": "function"
    },
    {
      "inputs": [
        {
          "components": [
            {
              "internalType": "bytes32[]",
              "name": "merkleProof",
              "type": "bytes32[]"
            },
            {
              "components": [
                {
                  "internalType": "bytes32",
                  "name": "attestationType",
                  "type": "bytes32"
                },
                {
                  "internalType": "bytes32",
                  "name": "sourceId",
                  "type": "bytes32"
                },
                {
                  "internalType": "uint64",
                  "name": "votingRound",
                  "type": "uint64"
                },
                {
                  "internalType": "uint64",
                  "name": "lowestUsedTimestamp",
                  "type": "uint64"
                },
                {
                  "components": [
                    {
                      "internalType": "string",
                      "name": "addressStr",
                      "type": "string"
                    }
                  ],
                  "internalType": "struct IAddressValidity.RequestBody",
                  "name": "requestBody",
                  "type": "tuple"
                },
                {
                  "components": [
                    {
                      "internalType": "bool",
                      "name": "isValid",
                      "type": "bool"
                    },
                    {
                      "internalType": "string",
                      "name": "standardAddress",
                      "type": "string"
                    },
                    {
                      "internalType": "bytes32",
                      "name": "standardAddressHash",
                      "type": "bytes32"
                    }
                  ],
                  "internalType": "struct IAddressValidity.ResponseBody",
                  "name": "responseBody",
                  "type": "tuple"
                }
              ],
              "internalType": "struct IAddressValidity.Response",
              "name": "data",
              "type": "tuple"
            }
          ],
          "internalType": "struct IAddressValidity.Proof",
          "name": "_addressProof",
          "type": "tuple"
        },
        {
          "components": [
            {
              "internalType": "contract IERC20",
              "name": "vaultCollateralToken",
              "type": "address"
            },
            {
              "internalType": "string",
              "name": "poolTokenSuffix",
              "type": "string"
            },
            {
              "internalType": "uint256",
              "name": "feeBIPS",
              "type": "uint256"
            },
            {
              "internalType": "uint256",
              "name": "poolFeeShareBIPS",
              "type": "uint256"
            },
            {
              "internalType": "uint256",
              "name": "mintingVaultCollateralRatioBIPS",
              "type": "uint256"
            },
            {
              "internalType": "uint256",
              "name": "mintingPoolCollateralRatioBIPS",
              "type": "uint256"
            },
            {
              "internalType": "uint256",
              "name": "buyFAssetByAgentFactorBIPS",
              "type": "uint256"
            },
            {
              "internalType": "uint256",
              "name": "poolExitCollateralRatioBIPS",
              "type": "uint256"
            },
            {
              "internalType": "uint256",
              "name": "poolTopupCollateralRatioBIPS",
              "type": "uint256"
            },
            {
              "internalType": "uint256",
              "name": "poolTopupTokenPriceFactorBIPS",
              "type": "uint256"
            },
            {
              "internalType": "uint256",
              "name": "handshakeType",
              "type": "uint256"
            }
          ],
          "internalType": "struct AgentSettings.Data",
          "name": "_settings",
          "type": "tuple"
        }
      ],
      "name": "createAgentVault",
      "outputs": [
        {
          "internalType": "address",
          "name": "_agentVault",
          "type": "address"
        }
      ],
      "stateMutability": "nonpayable",
      "type": "function"
    },
    {
      "inputs": [
        {
          "internalType": "address",
          "name": "_agentVault",
          "type": "address"
        },
        {
          "internalType": "address payable",
          "name": "_recipient",
          "type": "address"
        }
      ],
      "name": "destroyAgent",
      "outputs": [],
      "stateMutability": "nonpayable",
      "type": "function"
    },
    {
      "inputs": [
        {
          "components": [
            {
              "internalType": "bytes32[]",
              "name": "merkleProof",
              "type": "bytes32[]"
            },
            {
              "components": [
                {
                  "internalType": "bytes32",
                  "name": "attestationType",
                  "type": "bytes32"
                },
                {
                  "internalType": "bytes32",
                  "name": "sourceId",
                  "type": "bytes32"
                },
                {
                  "internalType": "uint64",
                  "name": "votingRound",
                  "type": "uint64"
                },
                {
                  "internalType": "uint64",
                  "name": "lowestUsedTimestamp",
                  "type": "uint64"
                },
                {
                  "components": [
                    {
                      "internalType": "bytes32",
                      "name": "transactionId",
                      "type": "bytes32"
                    },
                    {
                      "internalType": "uint256",
                      "name": "inUtxo",
                      "type": "uint256"
                    },
                    {
                      "internalType": "uint256",
                      "name": "utxo",
                      "type": "uint256"
                    }
                  ],
                  "internalType": "struct IPayment.RequestBody",
                  "name": "requestBody",
                  "type": "tuple"
                },
                {
                  "components": [
                    {
                      "internalType": "uint64",
                      "name": "blockNumber",
                      "type": "uint64"
                    },
                    {
                      "internalType": "uint64",
                      "name": "blockTimestamp",
                      "type": "uint64"
                    },
                    {
                      "internalType": "bytes32",
                      "name": "sourceAddressHash",
                      "type": "bytes32"
                    },
                    {
                      "internalType": "bytes32",
                      "name": "sourceAddressesRoot",
                      "type": "bytes32"
                    },
                    {
                      "internalType": "bytes32",
                      "name": "receivingAddressHash",
                      "type": "bytes32"
                    },
                    {
                      "internalType": "bytes32",
                      "name": "intendedReceivingAddressHash",
                      "type": "bytes32"
                    },
                    {
                      "internalType": "int256",
                      "name": "spentAmount",
                      "type": "int256"
                    },
                    {
                      "internalType": "int256",
                      "name": "intendedSpentAmount",
                      "type": "int256"
                    },
                    {
                      "internalType": "int256",
                      "name": "receivedAmount",
                      "type": "int256"
                    },
                    {
                      "internalType": "int256",
                      "name": "intendedReceivedAmount",
                      "type": "int256"
                    },
                    {
                      "internalType": "bytes32",
                      "name": "standardPaymentReference",
                      "type": "bytes32"
                    },
                    {
                      "internalType": "bool",
                      "name": "oneToOne",
                      "type": "bool"
                    },
                    {
                      "internalType": "uint8",
                      "name": "status",
                      "type": "uint8"
                    }
                  ],
                  "internalType": "struct IPayment.ResponseBody",
                  "name": "responseBody",
                  "type": "tuple"
                }
              ],
              "internalType": "struct IPayment.Response",
              "name": "data",
              "type": "tuple"
            }
          ],
          "internalType": "struct IPayment.Proof",
          "name": "_payment",
          "type": "tuple"
        }
      ],
      "name": "proveUnderlyingAddressEOA",
      "outputs": [],
      "stateMutability": "nonpayable",
      "type": "function"
    }
  ],
  "bytecode": "0x608060405234801561001057600080fd5b50613d9b806100206000396000f3fe608060405234801561001057600080fd5b506004361061004c5760003560e01c80635e71055c14610051578063778aadd514610077578063ae87b37f1461008c578063b356adc71461009f575b600080fd5b61006461005f366004612eff565b6100ca565b6040519081526020015b60405180910390f35b61008a610085366004612f1c565b6100db565b005b61008a61009a366004612f55565b6100e9565b6100b26100ad366004612f90565b6100f5565b6040516001600160a01b03909116815260200161006e565b60006100d582610111565b92915050565b6100e582826102d2565b5050565b6100f2816107af565b50565b60006100ff61082d565b61010a308484610896565b9392505050565b60008161011d81610cc5565b600080516020613d26833981519152600061013785610d1c565b600481015490915065010000000000900463ffffffff16156101985760405162461bcd60e51b81526020600482015260156024820152746167656e74207374696c6c20617661696c61626c6560581b60448201526064015b60405180910390fd5b6101a181610db8565b6001600160401b0316156101ec5760405162461bcd60e51b81526020600482015260126024820152716167656e74207374696c6c2061637469766560701b604482015260640161018f565b60048181015460ff168181111561020557610205612ff8565b146102b4576004818101805460ff19169091179055601082015460009061023c90600160801b90046001600160401b031642613024565b905061024781610e1e565b82600a0160086101000a8154816001600160401b0302191690836001600160401b03160217905550856001600160a01b03167f86bbd7101c8a4494b25e559dee68314c4bc85dd8eae43137811ebcc8bb26a69c826040516102aa91815260200190565b60405180910390a2505b600a0154600160401b90046001600160401b03169250505b50919050565b816102dc81610cc5565b600080516020613d4683398151915260006102f685610d1c565b90506004808083015460ff169081111561031257610312612ff8565b146103575760405162461bcd60e51b815260206004820152601560248201527419195cdd1c9bde481b9bdd08185b9b9bdd5b98d959605a1b604482015260640161018f565b600a810154600160401b90046001600160401b031642116103ba5760405162461bcd60e51b815260206004820152601860248201527f64657374726f793a206e6f7420616c6c6f776564207965740000000000000000604482015260640161018f565b6103c381610db8565b6001600160401b0316156103d9576103d9613037565b805460405162f55d9d60e01b81526001600160a01b0386811660048301529091169062f55d9d90602401600060405180830381600087803b15801561041d57600080fd5b505af1158015610431573d6000803e3d6000fd5b505060405162f55d9d60e01b81526001600160a01b0387811660048301528816925062f55d9d9150602401600060405180830381600087803b15801561047657600080fd5b505af115801561048a573d6000803e3d6000fd5b50505050600a8101546003830154600160d01b90910463ffffffff16906104b2826001613024565b101561058b576003830180546104ca9060019061304d565b815481106104da576104da613060565b6000918252602090912001546003840180546001600160a01b03909216918390811061050857610508613060565b9060005260206000200160006101000a8154816001600160a01b0302191690836001600160a01b03160217905550600061056a84600301838154811061055057610550613060565b6000918252602090912001546001600160a01b0316610d1c565b600a01805463ffffffff60d01b1916600160d01b63ffffffff851602179055505b8260030180548061059e5761059e613076565b600082815260209020810160001990810180546001600160a01b031916905501905561076a827f87971da2ffd60f015ef85ead0fa62169ee9c342d8f1db03babee919d33ccf8196000908152600b909101602052604080822080546001600160c01b03199081169091557fe0243e58c76a12071b4a375d5f283eaf01d6025bbabcdabd4ca2d0d3f67c5e3283528183208054821690557f381f724f6ecd2a24d4a619016614db98defae86152186d60beff19b685ea2b5a83528183208054821690557f061115fe294a09236be45875a15a7800403f95fde525547c9662b92a6359932e83528183208054821690557f9aea190d2b3dd7d1d8e8d055952c2e9923c067928667db7f47b1f818b830cba483528183208054821690557f50c491cb85c5de272af4bdee937deba8bfb8efc757876ce0671faf286198be9583528183208054821690557feb57753c1b4e94880186635dfc9185be51406a9179ca76e095563b00d9ef41d683528183208054821690557f98d367e8e159b82e76c08eb9e8367ae98bb11d65de64fdcde63c3a6a50e1756583528183208054821690557f88c9c5a9542135d89e93b19972c3c03dc735891e5c01c49b7bf7f869ba18b1bd8352912080549091169055565b61077382610e8a565b6040516001600160a01b038716907fc3eb286975d067e136d2d07c4c04700fbc1f72bf6b0778de0c99e95f4385661790600090a2505050505050565b600080516020613d468339815191526107c782610eae565b60006107d233610f0c565b90506107dd81610f99565b6107ef6005830184600b850184611051565b610828610804610120850161010086016130a8565b61080f9060016130c3565b610821610140860161012087016130a8565b60006111a6565b505050565b7fec7e8c1c441439dd40959777f4c577ea0cd42fcc1dbe59d2bd0f5d9c55df8dc654600160c81b900460ff166108945760405162461bcd60e51b815260206004820152600c60248201526b1b9bdd08185d1d1858da195960a21b604482015260640161018f565b565b6000600080516020613d468339815191526108f16108b760208501856130ea565b8080601f01602080910402602001604051908101604052809392919081815260200183838082843760009201919091525061133492505050565b60006108fc33610f0c565b905061090781610f99565b61091085611566565b600061091f6020870187613137565b61092d9060a0810190613157565b610936906131f4565b80519091506109795760405162461bcd60e51b815260206004820152600f60248201526e1859191c995cdcc81a5b9d985b1a59608a1b604482015260640161018f565b6000600080516020613d26833981519152600201546040516313db266360e31b81526001600160a01b038a8116600483015290911691506000908290639ed93318906024016020604051808303816000875af11580156109dd573d6000803e3d6000fd5b505050506040513d601f19601f82011682018060405250810190610a0191906132ac565b90506000604082901b600160401b600160e01b03167f5bebac0595fee029d42bb673937f5f1cb81cf8641382bc17774635de9b7d7965189050600060048083015460ff1690811115610a5557610a55612ff8565b14610a6257610a62613037565b600481018054600160ff199091168117909155810180546001600160a01b0319166001600160a01b038716179055610aa7610aa060208a018a612eff565b82906116cb565b600f86015460048201805464ffff000000191661ffff909216630100000002919091179055610ada8160808a013561182a565b610ae88160a08a01356118c2565b610af68160408a013561195a565b610b048160608a01356119c5565b610b128160c08a0135611a32565b610b4c85838660400151610b31600080516020613d2683398151915290565b600d015460058b0193929190600160501b900460ff16611a5d565b60208401516002820190610b609082613350565b50604084810151600383018190556000908152600588016020522054600f8701546001600160401b03600160a01b909204821691610baf9162010000900416610baa8360016130c3565b611b63565b600a8301805467ffffffffffffffff19166001600160401b0392909216919091179055610bdd8b848b611b8c565b82546001600160a01b0319166001600160a01b0391909116178255610c068260e08b0135611d51565b610c15826101008b0135611efa565b610c24826101208b0135611fab565b610c33826101408b013561200c565b6003870154610c4190612036565b600a8301805463ffffffff60d01b1916600160d01b63ffffffff939093169290920291909117905560038701805460018101825560009182526020918290200180546001600160a01b0319166001600160a01b0386811691909117909155835491870151610cb692899287929116908d61209b565b50909998505050505050505050565b610cd7610cd182610d1c565b3361230a565b6100f25760405162461bcd60e51b815260206004820152601660248201527537b7363c9030b3b2b73a103b30bab63a1037bbb732b960511b604482015260640161018f565b7f5bebac0595fee029d42bb673937f5f1cb81cf8641382bc17774635de9b7d7965600160401b600160e01b03604083901b161880600060048084015460ff1690811115610d6b57610d6b612ff8565b036102cc5760405162461bcd60e51b815260206004820152601b60248201527f696e76616c6964206167656e74207661756c7420616464726573730000000000604482015260640161018f565b60058101546000906001600160401b03600160801b82048116600160c01b909204161115610de857610de8613037565b60058201546001600160401b03600160801b8204811691610e149180821691600160401b9004166130c3565b6100d591906130c3565b60006001600160401b03821115610e865760405162461bcd60e51b815260206004820152602660248201527f53616665436173743a2076616c756520646f65736e27742066697420696e203660448201526534206269747360d01b606482015260840161018f565b5090565b600d810181815b80821015610ea85760008255600182019150610e91565b50505050565b6000610ec26102a083016102808401613420565b60ff1614610f035760405162461bcd60e51b815260206004820152600e60248201526d1c185e5b595b9d0819985a5b195960921b604482015260640161018f565b6100f2816123b9565b600080610f17612581565b60405163039f412760e11b81526001600160a01b038581166004830152919091169063073e824e90602401602060405180830381865afa158015610f5f573d6000803e3d6000fd5b505050506040513d601f19601f82011682018060405250810190610f8391906132ac565b90506001600160a01b0381166100d5578261010a565b610fa1612581565b604051633af32abf60e01b81526001600160a01b0383811660048301529190911690633af32abf90602401602060405180830381865afa158015610fe9573d6000803e3d6000fd5b505050506040513d601f19601f8201168201806040525081019061100d919061343b565b6100f25760405162461bcd60e51b81526020600482015260156024820152741859d95b9d081b9bdd081dda1a5d195b1a5cdd1959605a1b604482015260640161018f565b61014083013560000361106657611066613037565b610140830135600090815260208590526040902080546001600160a01b0316156110cc5760405162461bcd60e51b81526020600482015260176024820152761859191c995cdcc8185b1c9958591e4818db185a5b5959604a1b604482015260640161018f565b67464250526641001360c01b6001600160a01b03831617610240850135146111365760405162461bcd60e51b815260206004820152601f60248201527f696e76616c69642061646472657373206f776e6572736869702070726f6f6600604482015260640161018f565b61114083856125af565b8054600168ff000000000000000160a01b0319166001600160a01b03831617600160e01b178155611179610120850161010086016130a8565b81546001600160401b0391909116600160a01b0267ffffffffffffffff60a01b1990911617905550505050565b600080516020613d468339815191526000806111c284876130c3565b600f8401549091506001600160401b03620100009091048116908216111561120e57600f8301805469ffffffffffffffff00001916620100006001600160401b03841602179055600191505b60006103e8600080516020613d26833981519152600c01546112369063ffffffff1687613458565b6112409190613499565b61124a90876130c3565b600f8501546001600160401b039182169250600160501b9004168111156112a15761127481610e1e565b84600f01600a6101000a8154816001600160401b0302191690836001600160401b03160217905550600192505b821561132b576112b042610e1e565b600f8501805467ffffffffffffffff60901b1916600160901b6001600160401b039384160217908190556040805162010000830484168152600160501b9092049092166020820152428183015290517f2078549e3faec355556787458d744ad19765bbb953b3f71801333f29abdce1c8916060908290030190a15b50505050505050565b604051600080516020613d46833981519152907fec7e8c1c441439dd40959777f4c577ea0cd42fcc1dbe59d2bd0f5d9c55df8db8906113749084906134e3565b9081526040519081900360200190205460ff16156113d45760405162461bcd60e51b815260206004820152601760248201527f73756666697820616c7265616479207265736572766564000000000000000000604482015260640161018f565b600181600201836040516113e891906134e3565b908152604051908190036020019020805491151560ff19909216919091179055815182906014811061144e5760405162461bcd60e51b815260206004820152600f60248201526e73756666697820746f6f206c6f6e6760881b604482015260640161018f565b60005b8181101561155f57600083828151811061146d5761146d613060565b01602001516001600160f81b0319169050604160f81b81108015906114a05750602d60f91b6001600160f81b0319821611155b806114d25750600360fc1b6001600160f81b03198216108015906114d25750603960f81b6001600160f81b0319821611155b8061150a57506000821180156114f157506114ee60018461304d565b82105b801561150a5750602d60f81b6001600160f81b03198216145b6115565760405162461bcd60e51b815260206004820152601b60248201527f696e76616c69642063686172616374657220696e207375666669780000000000604482015260640161018f565b50600101611451565b5050505050565b7f4f24f5c433db0962dac0d2c8b84197a6e6c7cc4e5d9ebe1916a1b6193da2f342547f4f24f5c433db0962dac0d2c8b84197a6e6c7cc4e5d9ebe1916a1b6193da2f34554600080516020613d26833981519152916001600160a01b0316906115d16020850185613137565b60200135146116125760405162461bcd60e51b815260206004820152600d60248201526c34b73b30b634b21031b430b4b760991b604482015260640161018f565b60405163f34ef58760e01b81526001600160a01b0382169063f34ef5879061163e908690600401613664565b602060405180830381865afa15801561165b573d6000803e3d6000fd5b505050506040513d601f19601f8201168201806040525081019061167f919061343b565b6108285760405162461bcd60e51b815260206004820152601b60248201527f616464726573732076616c6964697479206e6f742070726f7665640000000000604482015260640161018f565b600080516020613d4683398151915260006116e76002846125eb565b9050600082600001828154811061170057611700613060565b60009182526020909120600490910201905060028154600160a01b900460ff16600281111561173157611731612ff8565b1461173e5761173e613037565b8054600160b01b90046001600160401b0316156117955760405162461bcd60e51b815260206004820152601560248201527418dbdb1b185d195c985b0819195c1c9958d85d1959605a1b604482015260640161018f565b61179e8261268e565b8560040160016101000a81548161ffff021916908361ffff16021790555060006117c7866126f1565b905060006117d582886127ef565b600384015490915063ffffffff1681101561132b5760405162461bcd60e51b81526020600482015260156024820152741b9bdd08195b9bdd59da0818dbdb1b185d195c985b605a1b604482015260640161018f565b6000611835836128ba565b600381015490915063ffffffff168210156118925760405162461bcd60e51b815260206004820152601a60248201527f636f6c6c61746572616c20726174696f20746f6f20736d616c6c000000000000604482015260640161018f565b61189b82612036565b83600401600d6101000a81548163ffffffff021916908363ffffffff160217905550505050565b60006118cd83612907565b600381015490915063ffffffff1682101561192a5760405162461bcd60e51b815260206004820152601a60248201527f636f6c6c61746572616c20726174696f20746f6f20736d616c6c000000000000604482015260640161018f565b61193382612036565b8360040160116101000a81548163ffffffff021916908363ffffffff160217905550505050565b612710811061199a5760405162461bcd60e51b815260206004820152600c60248201526b0cccaca40e8dede40d0d2ced60a31b604482015260640161018f565b6119a38161268e565b8260040160096101000a81548161ffff021916908361ffff1602179055505050565b6127108110611a075760405162461bcd60e51b815260206004820152600e60248201526d0ecc2d8eaca40e8dede40d0d2ced60931b604482015260640161018f565b611a108161268e565b82600401600b6101000a81548161ffff021916908361ffff1602179055505050565b611a3b8161268e565b82600a0160106101000a81548161ffff021916908361ffff1602179055505050565b600082815260208690526040902080546001600160a01b0316611a9257805468ffffffffffffffffff60a01b19168155611ae8565b80546001600160a01b03868116911614611ae85760405162461bcd60e51b81526020600482015260176024820152761859191c995cdcc8185b1c9958591e4818db185a5b5959604a1b604482015260640161018f565b811580611afd57508054600160e01b900460ff165b611b3e5760405162461bcd60e51b81526020600482015260126024820152711153d0481c1c9bdbd9881c995c5d5a5c995960721b604482015260640161018f565b80546001600160a01b0319166001600160a01b03949094169390931790925550505050565b6000816001600160401b0316836001600160401b03161015611b85578161010a565b5090919050565b7f4f24f5c433db0962dac0d2c8b84197a6e6c7cc4e5d9ebe1916a1b6193da2f33d547f4f24f5c433db0962dac0d2c8b84197a6e6c7cc4e5d9ebe1916a1b6193da2f33e546040516309825b9560e01b8152600092600080516020613d26833981519152926001600160a01b0391821692911690849083906309825b9590611c1b908b908b908b90600401613743565b6020604051808303816000875af1158015611c3a573d6000803e3d6000fd5b505050506040513d601f19601f82011682018060405250810190611c5e91906132ac565b905060006001600160a01b03831663796d58368360058801611c8360208c018c6130ea565b6040518563ffffffff1660e01b8152600401611ca29493929190613816565b6020604051808303816000875af1158015611cc1573d6000803e3d6000fd5b505050506040513d601f19601f82011682018060405250810190611ce591906132ac565b6040516333ce01fd60e01b81526001600160a01b038083166004830152919250908316906333ce01fd90602401600060405180830381600087803b158015611d2c57600080fd5b505af1158015611d40573d6000803e3d6000fd5b50939b9a5050505050505050505050565b6000611d5c83612907565b60048401546003820154919250600091611d869163ffffffff600160881b90910481169116612940565b905080831015611dc85760405162461bcd60e51b815260206004820152600d60248201526c76616c756520746f6f206c6f7760981b604482015260640161018f565b835460408051633cfc747d60e01b815290516000926001600160a01b031691633cfc747d9160048083019260209291908290030181865afa158015611e11573d6000803e3d6000fd5b505050506040513d601f19601f82011682018060405250810190611e3591906138bf565b63ffffffff1690506002611e4a8260036138e5565b611e5491906138fc565b841115611e965760405162461bcd60e51b815260206004820152601060248201526f696e63726561736520746f6f2062696760801b604482015260640161018f565b8454604051630f0f739560e31b8152600481018690526001600160a01b039091169063787b9ca890602401600060405180830381600087803b158015611edb57600080fd5b505af1158015611eef573d6000803e3d6000fd5b505050505050505050565b6000611f0583612907565b600381015490915063ffffffff16821015611f525760405162461bcd60e51b815260206004820152600d60248201526c76616c756520746f6f206c6f7760981b604482015260640161018f565b825460405163444c2e6b60e11b8152600481018490526001600160a01b03909116906388985cd690602401600060405180830381600087803b158015611f9757600080fd5b505af115801561132b573d6000803e3d6000fd5b8154604051634d2123f360e11b8152600481018390526001600160a01b0390911690639a4247e690602401600060405180830381600087803b158015611ff057600080fd5b505af1158015612004573d6000803e3d6000fd5b505050505050565b61201581612036565b600c92909201805463ffffffff191663ffffffff9093169290921790915550565b600063ffffffff821115610e865760405162461bcd60e51b815260206004820152602660248201527f53616665436173743a2076616c756520646f65736e27742066697420696e203360448201526532206269747360d01b606482015260840161018f565b612131604051806101c0016040528060006001600160a01b0316815260200160006001600160a01b031681526020016060815260200160006001600160a01b0316815260200160006001600160a01b031681526020016000815260200160008152602001600081526020016000815260200160008152602001600081526020016000815260200160008152602001600081525090565b6001600160a01b038416808252604080516332f7ce0b60e21b8152905163cbdf382c916004808201926020929091908290030181865afa158015612179573d6000803e3d6000fd5b505050506040513d601f19601f8201168201806040525081019061219d91906132ac565b6001600160a01b03166020808301919091526121bb90830183612eff565b81606001906001600160a01b031690816001600160a01b031681525050836001600160a01b0316639edbf0076040518163ffffffff1660e01b8152600401602060405180830381865afa158015612216573d6000803e3d6000fd5b505050506040513d601f19601f8201168201806040525081019061223a91906132ac565b6001600160a01b0390811660808084019190915260408084018690528481013560a080860191909152606086013560c0808701919091529286013560e08087019190915290860135610100808701919091529286013561012080870191909152908601356101408087019190915292860135610160860152850135610180850152908401356101a084015251868216918816907fdde4e1391087a23dd1b24107a9e3848e2e1297449a6d212092d3162dbf2340bc906122fa90859061393c565b60405180910390a3505050505050565b60018201546000906001600160a01b039081169083168114806123b15750612330612581565b604051631f86345d60e31b81526001600160a01b038381166004830152919091169063fc31a2e890602401602060405180830381865afa158015612378573d6000803e3d6000fd5b505050506040513d601f19601f8201168201806040525081019061239c91906132ac565b6001600160a01b0316836001600160a01b0316145b949350505050565b7f4f24f5c433db0962dac0d2c8b84197a6e6c7cc4e5d9ebe1916a1b6193da2f342547f4f24f5c433db0962dac0d2c8b84197a6e6c7cc4e5d9ebe1916a1b6193da2f34554600080516020613d26833981519152916001600160a01b0316906040840135146124595760405162461bcd60e51b815260206004820152600d60248201526c34b73b30b634b21031b430b4b760991b604482015260640161018f565b60405163a7a3797560e01b81526001600160a01b0382169063a7a3797590612485908690600401613a3a565b602060405180830381865afa1580156124a2573d6000803e3d6000fd5b505050506040513d601f19601f820116820180604052508101906124c6919061343b565b6125125760405162461bcd60e51b815260206004820152601860248201527f6c6567616c207061796d656e74206e6f742070726f7665640000000000000000604482015260640161018f565b612535612527610140850161012086016130a8565b6001600160401b031661294f565b6108285760405162461bcd60e51b815260206004820152601c60248201527f7665726966696564207472616e73616374696f6e20746f6f206f6c6400000000604482015260640161018f565b7f4f24f5c433db0962dac0d2c8b84197a6e6c7cc4e5d9ebe1916a1b6193da2f341546001600160a01b031690565b6040805161014083013560208083019190915260a084013582840152825180830384018152606090920190925280519101206108288382612972565b6000600080516020613d46833981519152817fec7e8c1c441439dd40959777f4c577ea0cd42fcc1dbe59d2bd0f5d9c55df8db7816126298787612a3a565b81526020019081526020016000205490506000811161267a5760405162461bcd60e51b815260206004820152600d60248201526c3ab735b737bbb7103a37b5b2b760991b604482015260640161018f565b61268560018261304d565b95945050505050565b600061ffff821115610e865760405162461bcd60e51b815260206004820152602660248201527f53616665436173743a2076616c756520646f65736e27742066697420696e203160448201526536206269747360d01b606482015260840161018f565b6127166040805160608101909152806000815260200160008152602001600081525090565b6000612721836128ba565b6040805160608101909152909150806000815282546020909101906001600160a01b03166370a082317f5bebac0595fee029d42bb673937f5f1cb81cf8641382bc17774635de9b7d7965871860401c6040516001600160e01b031960e084901b1681526001600160a01b039091166004820152602401602060405180830381865afa1580156127b4573d6000803e3d6000fd5b505050506040513d601f19601f820116820180604052508101906127d89190613bc7565b81526020016127e683612a64565b90529392505050565b60008060018451600281111561280757612807612ff8565b14612826576005830154600160801b90046001600160401b031661283c565b6005830154600160c01b90046001600160401b03165b60058401546001600160401b03918216925060009183916128689181811691600160401b900416613024565b6128729190613024565b90508060000361288b576402540be400925050506100d5565b600061289b828760400151612a7a565b60208701519091506128b09061271083612a90565b9695505050505050565b600080600080516020613d4683398151915260048401548154919250829161010090910461ffff169081106128f1576128f1613060565b9060005260206000209060040201915050919050565b600080600080516020613d46833981519152600484015481549192508291630100000090910461ffff169081106128f1576128f1613060565b6000818311611b85578161010a565b600061295f600e620151806138e5565b612969904261304d565b90911015919050565b600081815260208390526040902054156129ce5760405162461bcd60e51b815260206004820152601960248201527f7061796d656e7420616c726561647920636f6e6669726d656400000000000000604482015260640161018f565b60006129dd62015180426138fc565b60008181526001850160205260408120549192508190036129fe5782612a00565b805b6000848152602086815260408083209390935584825260018701905290812084905560028501549003610ea8576002840182905550505050565b6000816001600160a01b031660a0846002811115612a5a57612a5a612ff8565b901b179392505050565b6000612a71826000612bb6565b50909392505050565b600061010a82612a8c6009600a613cc4565b8591905b6000808211612ad45760405162461bcd60e51b815260206004820152601060248201526f4469766973696f6e206279207a65726f60801b604482015260640161018f565b83600003612ae45750600061010a565b83830283858281612af757612af7613483565b0403612b1557828181612b0c57612b0c613483565b0491505061010a565b506000612b2283866138fc565b90506000612b308487613cd0565b90506000612b3e85876138fc565b90506000612b4c8688613cd0565b905085612b5982856138e5565b612b6391906138fc565b612b6d83856138e5565b612b7783876138e5565b88612b8286896138e5565b612b8c91906138e5565b612b969190613024565b612ba09190613024565b612baa9190613024565b98975050505050505050565b600080600080600080612c55886001018054612bd1906132d4565b80601f0160208091040260200160405190810160405280929190818152602001828054612bfd906132d4565b8015612c4a5780601f10612c1f57610100808354040283529160200191612c4a565b820191906000526020600020905b815481529060010190602001808311612c2d57829003601f168201915b505050505088612d75565b8a549295509093509150600160f01b900460ff1615612c9c578754600090612c8b90600160a81b900460ff166001838786612e63565b9650919450849350612d6e92505050565b6000806000612d378b6002018054612cb3906132d4565b80601f0160208091040260200160405190810160405280929190818152602001828054612cdf906132d4565b8015612d2c5780601f10612d0157610100808354040283529160200191612d2c565b820191906000526020600020905b815481529060010190602001808311612d0f57829003601f168201915b50505050508b612d75565b8d549295509093509150600090612d5b90600160a81b900460ff1685848a89612e63565b9950949750909550612d6e945050505050565b9250925092565b7f4f24f5c433db0962dac0d2c8b84197a6e6c7cc4e5d9ebe1916a1b6193da2f3445460009081908190600080516020613d26833981519152906001600160a01b03168515612e375760405163e4a0a55b60e01b81526001600160a01b0382169063e4a0a55b90612de9908a90600401613ce4565b606060405180830381865afa158015612e06573d6000803e3d6000fd5b505050506040513d601f19601f82011682018060405250810190612e2a9190613cf7565b9450945094505050612d6e565b60405163524f388960e01b81526001600160a01b0382169063524f388990612de9908a90600401613ce4565b6000600080516020613d26833981519152816009612e81878a613024565b612e8b9190613024565b600a830154909150600090612eab908690600160a81b900460ff16613024565b905080821015612ebd57612ebd613037565b612edd612eca828461304d565b612ed590600a613cc4565b87908a612a90565b9998505050505050505050565b6001600160a01b03811681146100f257600080fd5b600060208284031215612f1157600080fd5b813561010a81612eea565b60008060408385031215612f2f57600080fd5b8235612f3a81612eea565b91506020830135612f4a81612eea565b809150509250929050565b600060208284031215612f6757600080fd5b81356001600160401b03811115612f7d57600080fd5b82016102a0818503121561010a57600080fd5b60008060408385031215612fa357600080fd5b82356001600160401b0380821115612fba57600080fd5b9084019060408287031215612fce57600080fd5b90925060208401359080821115612fe457600080fd5b5083016101608186031215612f4a57600080fd5b634e487b7160e01b600052602160045260246000fd5b634e487b7160e01b600052601160045260246000fd5b808201808211156100d5576100d561300e565b634e487b7160e01b600052600160045260246000fd5b818103818111156100d5576100d561300e565b634e487b7160e01b600052603260045260246000fd5b634e487b7160e01b600052603160045260246000fd5b80356001600160401b03811681146130a357600080fd5b919050565b6000602082840312156130ba57600080fd5b61010a8261308c565b6001600160401b038181168382160190808211156130e3576130e361300e565b5092915050565b6000808335601e1984360301811261310157600080fd5b8301803591506001600160401b0382111561311b57600080fd5b60200191503681900382131561313057600080fd5b9250929050565b6000823560be1983360301811261314d57600080fd5b9190910192915050565b60008235605e1983360301811261314d57600080fd5b634e487b7160e01b600052604160045260246000fd5b604051606081016001600160401b03811182821017156131a5576131a561316d565b60405290565b604051601f8201601f191681016001600160401b03811182821017156131d3576131d361316d565b604052919050565b80151581146100f257600080fd5b80356130a3816131db565b60006060823603121561320657600080fd5b61320e613183565b8235613219816131db565b81526020838101356001600160401b038082111561323657600080fd5b9085019036601f83011261324957600080fd5b81358181111561325b5761325b61316d565b61326d601f8201601f191685016131ab565b9150808252368482850101111561328357600080fd5b808484018584013760009082018401529183019190915250604092830135928101929092525090565b6000602082840312156132be57600080fd5b815161010a81612eea565b80356130a381612eea565b600181811c908216806132e857607f821691505b6020821081036102cc57634e487b7160e01b600052602260045260246000fd5b601f821115610828576000816000526020600020601f850160051c810160208610156133315750805b601f850160051c820191505b818110156120045782815560010161333d565b81516001600160401b038111156133695761336961316d565b61337d8161337784546132d4565b84613308565b602080601f8311600181146133b2576000841561339a5750858301515b600019600386901b1c1916600185901b178555612004565b600085815260208120601f198616915b828110156133e1578886015182559484019460019091019084016133c2565b50858210156133ff5787850151600019600388901b60f8161c191681555b5050505050600190811b01905550565b803560ff811681146130a357600080fd5b60006020828403121561343257600080fd5b61010a8261340f565b60006020828403121561344d57600080fd5b815161010a816131db565b6001600160401b0381811683821602808216919082811461347b5761347b61300e565b505092915050565b634e487b7160e01b600052601260045260246000fd5b60006001600160401b03808416806134b3576134b3613483565b92169190910492915050565b60005b838110156134da5781810151838201526020016134c2565b50506000910152565b6000825161314d8184602087016134bf565b6000808335601e1984360301811261350c57600080fd5b83016020810192503590506001600160401b0381111561352b57600080fd5b8060051b360382131561313057600080fd5b81835260006001600160fb1b0383111561355657600080fd5b8260051b80836020870137939093016020019392505050565b6000808335601e1984360301811261358657600080fd5b83016020810192503590506001600160401b038111156135a557600080fd5b80360382131561313057600080fd5b81835281816020850137506000828201602090810191909152601f909101601f19169091010190565b60006135e9828361356f565b602085526126856020860182846135b4565b60008235605e1983360301811261361157600080fd5b90910192915050565b60008135613627816131db565b15158352613638602083018361356f565b6060602086015261364d6060860182846135b4565b915050604083013560408501528091505092915050565b60208152600061367483846134f5565b6040602085015261368960608501828461353d565b915050602084013560be198536030181126136a357600080fd5b8481019050601f1984830301604085015280358252602081013560208301526136ce6040820161308c565b6001600160401b038082166040850152806136eb6060850161308c565b16606085015250506080810135601e1982360301811261370a57600080fd5b60c0608084015261372060c084018383016135dd565b905061372f60a08301836135fb565b915082810360a08401526128b0818361361a565b6001600160a01b0384811682528316602082015260606040820181905260009061377f908301613772856132c9565b6001600160a01b03169052565b61378c602084018461356f565b6101608060808601526137a46101c0860183856135b4565b9250604086013560a0860152606086013560c0860152608086013560e0860152610100915060a08601358286015261012060c08701358187015261014060e088013581880152838801358388015281880135610180880152808801356101a08801525050505080915050949350505050565b60018060a01b0385168152600060206060602084015260008654613839816132d4565b806060870152608060018084166000811461385b5760018114613877576138a7565b60ff19851660808a0152608084151560051b8a010195506138a7565b8b600052602060002060005b8581101561389e5781548b8201860152908301908801613883565b8a016080019650505b50505050508381036040850152612baa8186886135b4565b6000602082840312156138d157600080fd5b815163ffffffff8116811461010a57600080fd5b80820281158282048414176100d5576100d561300e565b60008261390b5761390b613483565b500490565b600081518084526139288160208601602086016134bf565b601f01601f19169290920160200192915050565b602081526139566020820183516001600160a01b03169052565b6000602083015161397260408401826001600160a01b03169052565b5060408301516101c080606085015261398f6101e0850183613910565b915060608501516139ab60808601826001600160a01b03169052565b5060808501516001600160a01b03811660a08601525060a085015160c08581019190915285015160e08086019190915285015161010080860191909152850151610120808601919091528501516101408086019190915285015161016080860191909152850151610180808601919091528501516101a080860191909152909401519390920192909252919050565b602081526000613a4a83846134f5565b6102a0806020860152613a626102c08601838561353d565b92506020860135604086015260408601356060860152613a846060870161308c565b91506001600160401b03808316608087015280613aa36080890161308c565b1660a08701525060a086013560c086015260c086013560e0860152610100915060e086013582860152610120613aed818701613ae0858a0161308c565b6001600160401b03169052565b613af881880161308c565b925050610140613b12818701846001600160401b03169052565b610160925080870135838701525061018082870135818701526101a092508087013583870152506101c082870135818701526101e092508087013583870152506102008287013581870152610220925080870135838701525061024082870135818701526102609250808701358387015250613b8f8287016131e9565b9150610280613ba18187018415159052565b613bac81880161340f565b925050613bbd8186018360ff169052565b5090949350505050565b600060208284031215613bd957600080fd5b5051919050565b600181815b80851115613c1b578160001904821115613c0157613c0161300e565b80851615613c0e57918102915b93841c9390800290613be5565b509250929050565b600082613c32575060016100d5565b81613c3f575060006100d5565b8160018114613c555760028114613c5f57613c7b565b60019150506100d5565b60ff841115613c7057613c7061300e565b50506001821b6100d5565b5060208310610133831016604e8410600b8410161715613c9e575081810a6100d5565b613ca88383613be0565b8060001904821115613cbc57613cbc61300e565b029392505050565b600061010a8383613c23565b600082613cdf57613cdf613483565b500690565b60208152600061010a6020830184613910565b600080600060608486031215613d0c57600080fd5b835192506020840151915060408401519050925092509256fe4f24f5c433db0962dac0d2c8b84197a6e6c7cc4e5d9ebe1916a1b6193da2f33aec7e8c1c441439dd40959777f4c577ea0cd42fcc1dbe59d2bd0f5d9c55df8db6a26469706673582212208641f000879acd287fd4967c7d9db487967e818abc7040941bd6f959ff823f3564736f6c63430008170033",
  "linkReferences": {},
  "deployedLinkReferences": {}
}