{
  "_format": "hh-sol-artifact-1",
  "contractName": "VPToken",
  "sourceName": "flattened/FlareSmartContracts.sol",
  "abi": [
    {
      "inputs": [
        {
          "internalType": "address",
          "name": "_governance",
          "type": "address"
        },
        {
          "internalType": "string",
          "name": "_name",
          "type": "string"
        },
        {
          "internalType": "string",
          "name": "_symbol",
          "type": "string"
        }
      ],
      "stateMutability": "nonpayable",
      "type": "constructor"
    },
    {
      "anonymous": false,
      "inputs": [
        {
          "indexed": true,
          "internalType": "address",
          "name": "owner",
          "type": "address"
        },
        {
          "indexed": true,
          "internalType": "address",
          "name": "spender",
          "type": "address"
        },
        {
          "indexed": false,
          "internalType": "uint256",
          "name": "value",
          "type": "uint256"
        }
      ],
      "name": "Approval",
      "type": "event"
    },
    {
      "anonymous": false,
      "inputs": [
        {
          "indexed": false,
          "internalType": "uint256",
          "name": "_blockNumber",
          "type": "uint256"
        }
      ],
      "name": "CreatedTotalSupplyCache",
      "type": "event"
    },
    {
      "anonymous": false,
      "inputs": [
        {
          "indexed": false,
          "internalType": "bytes4",
          "name": "selector",
          "type": "bytes4"
        },
        {
          "indexed": false,
          "internalType": "uint256",
          "name": "allowedAfterTimestamp",
          "type": "uint256"
        },
        {
          "indexed": false,
          "internalType": "bytes",
          "name": "encodedCall",
          "type": "bytes"
        }
      ],
      "name": "GovernanceCallTimelocked",
      "type": "event"
    },
    {
      "anonymous": false,
      "inputs": [
        {
          "indexed": false,
          "internalType": "address",
          "name": "initialGovernance",
          "type": "address"
        }
      ],
      "name": "GovernanceInitialised",
      "type": "event"
    },
    {
      "anonymous": false,
      "inputs": [
        {
          "indexed": false,
          "internalType": "address",
          "name": "governanceSettings",
          "type": "address"
        }
      ],
      "name": "GovernedProductionModeEntered",
      "type": "event"
    },
    {
      "anonymous": false,
      "inputs": [
        {
          "indexed": false,
          "internalType": "bytes4",
          "name": "selector",
          "type": "bytes4"
        },
        {
          "indexed": false,
          "internalType": "uint256",
          "name": "timestamp",
          "type": "uint256"
        }
      ],
      "name": "TimelockedGovernanceCallCanceled",
      "type": "event"
    },
    {
      "anonymous": false,
      "inputs": [
        {
          "indexed": false,
          "internalType": "bytes4",
          "name": "selector",
          "type": "bytes4"
        },
        {
          "indexed": false,
          "internalType": "uint256",
          "name": "timestamp",
          "type": "uint256"
        }
      ],
      "name": "TimelockedGovernanceCallExecuted",
      "type": "event"
    },
    {
      "anonymous": false,
      "inputs": [
        {
          "indexed": true,
          "internalType": "address",
          "name": "from",
          "type": "address"
        },
        {
          "indexed": true,
          "internalType": "address",
          "name": "to",
          "type": "address"
        },
        {
          "indexed": false,
          "internalType": "uint256",
          "name": "value",
          "type": "uint256"
        }
      ],
      "name": "Transfer",
      "type": "event"
    },
    {
      "anonymous": false,
      "inputs": [
        {
          "indexed": false,
          "internalType": "uint256",
          "name": "_contractType",
          "type": "uint256"
        },
        {
          "indexed": false,
          "internalType": "address",
          "name": "_oldContractAddress",
          "type": "address"
        },
        {
          "indexed": false,
          "internalType": "address",
          "name": "_newContractAddress",
          "type": "address"
        }
      ],
      "name": "VotePowerContractChanged",
      "type": "event"
    },
    {
      "inputs": [
        {
          "internalType": "address",
          "name": "owner",
          "type": "address"
        },
        {
          "internalType": "address",
          "name": "spender",
          "type": "address"
        }
      ],
      "name": "allowance",
      "outputs": [
        {
          "internalType": "uint256",
          "name": "",
          "type": "uint256"
        }
      ],
      "stateMutability": "view",
      "type": "function"
    },
    {
      "inputs": [
        {
          "internalType": "address",
          "name": "spender",
          "type": "address"
        },
        {
          "internalType": "uint256",
          "name": "amount",
          "type": "uint256"
        }
      ],
      "name": "approve",
      "outputs": [
        {
          "internalType": "bool",
          "name": "",
          "type": "bool"
        }
      ],
      "stateMutability": "nonpayable",
      "type": "function"
    },
    {
      "inputs": [
        {
          "internalType": "address",
          "name": "_owner",
          "type": "address"
        },
        {
          "internalType": "uint256",
          "name": "_count",
          "type": "uint256"
        }
      ],
      "name": "balanceHistoryCleanup",
      "outputs": [
        {
          "internalType": "uint256",
          "name": "",
          "type": "uint256"
        }
      ],
      "stateMutability": "nonpayable",
      "type": "function"
    },
    {
      "inputs": [
        {
          "internalType": "address",
          "name": "account",
          "type": "address"
        }
      ],
      "name": "balanceOf",
      "outputs": [
        {
          "internalType": "uint256",
          "name": "",
          "type": "uint256"
        }
      ],
      "stateMutability": "view",
      "type": "function"
    },
    {
      "inputs": [
        {
          "internalType": "address",
          "name": "_owner",
          "type": "address"
        },
        {
          "internalType": "uint256",
          "name": "_blockNumber",
          "type": "uint256"
        }
      ],
      "name": "balanceOfAt",
      "outputs": [
        {
          "internalType": "uint256",
          "name": "",
          "type": "uint256"
        }
      ],
      "stateMutability": "view",
      "type": "function"
    },
    {
      "inputs": [
        {
          "internalType": "address[]",
          "name": "_delegatees",
          "type": "address[]"
        },
        {
          "internalType": "uint256[]",
          "name": "_bips",
          "type": "uint256[]"
        }
      ],
      "name": "batchDelegate",
      "outputs": [],
      "stateMutability": "nonpayable",
      "type": "function"
    },
    {
      "inputs": [
        {
          "internalType": "address[]",
          "name": "_owners",
          "type": "address[]"
        },
        {
          "internalType": "uint256",
          "name": "_blockNumber",
          "type": "uint256"
        }
      ],
      "name": "batchVotePowerOfAt",
      "outputs": [
        {
          "internalType": "uint256[]",
          "name": "",
          "type": "uint256[]"
        }
      ],
      "stateMutability": "view",
      "type": "function"
    },
    {
      "inputs": [
        {
          "internalType": "bytes4",
          "name": "_selector",
          "type": "bytes4"
        }
      ],
      "name": "cancelGovernanceCall",
      "outputs": [],
      "stateMutability": "nonpayable",
      "type": "function"
    },
    {
      "inputs": [],
      "name": "cleanerContract",
      "outputs": [
        {
          "internalType": "address",
          "name": "",
          "type": "address"
        }
      ],
      "stateMutability": "view",
      "type": "function"
    },
    {
      "inputs": [],
      "name": "cleanupBlockNumber",
      "outputs": [
        {
          "internalType": "uint256",
          "name": "",
          "type": "uint256"
        }
      ],
      "stateMutability": "view",
      "type": "function"
    },
    {
      "inputs": [],
      "name": "cleanupBlockNumberManager",
      "outputs": [
        {
          "internalType": "address",
          "name": "",
          "type": "address"
        }
      ],
      "stateMutability": "view",
      "type": "function"
    },
    {
      "inputs": [],
      "name": "decimals",
      "outputs": [
        {
          "internalType": "uint8",
          "name": "",
          "type": "uint8"
        }
      ],
      "stateMutability": "view",
      "type": "function"
    },
    {
      "inputs": [
        {
          "internalType": "address",
          "name": "spender",
          "type": "address"
        },
        {
          "internalType": "uint256",
          "name": "subtractedValue",
          "type": "uint256"
        }
      ],
      "name": "decreaseAllowance",
      "outputs": [
        {
          "internalType": "bool",
          "name": "",
          "type": "bool"
        }
      ],
      "stateMutability": "nonpayable",
      "type": "function"
    },
    {
      "inputs": [
        {
          "internalType": "address",
          "name": "_to",
          "type": "address"
        },
        {
          "internalType": "uint256",
          "name": "_bips",
          "type": "uint256"
        }
      ],
      "name": "delegate",
      "outputs": [],
      "stateMutability": "nonpayable",
      "type": "function"
    },
    {
      "inputs": [
        {
          "internalType": "address",
          "name": "_to",
          "type": "address"
        },
        {
          "internalType": "uint256",
          "name": "_amount",
          "type": "uint256"
        }
      ],
      "name": "delegateExplicit",
      "outputs": [],
      "stateMutability": "nonpayable",
      "type": "function"
    },
    {
      "inputs": [
        {
          "internalType": "address",
          "name": "_owner",
          "type": "address"
        }
      ],
      "name": "delegatesOf",
      "outputs": [
        {
          "internalType": "address[]",
          "name": "_delegateAddresses",
          "type": "address[]"
        },
        {
          "internalType": "uint256[]",
          "name": "_bips",
          "type": "uint256[]"
        },
        {
          "internalType": "uint256",
          "name": "_count",
          "type": "uint256"
        },
        {
          "internalType": "uint256",
          "name": "_delegationMode",
          "type": "uint256"
        }
      ],
      "stateMutability": "view",
      "type": "function"
    },
    {
      "inputs": [
        {
          "internalType": "address",
          "name": "_owner",
          "type": "address"
        },
        {
          "internalType": "uint256",
          "name": "_blockNumber",
          "type": "uint256"
        }
      ],
      "name": "delegatesOfAt",
      "outputs": [
        {
          "internalType": "address[]",
          "name": "_delegateAddresses",
          "type": "address[]"
        },
        {
          "internalType": "uint256[]",
          "name": "_bips",
          "type": "uint256[]"
        },
        {
          "internalType": "uint256",
          "name": "_count",
          "type": "uint256"
        },
        {
          "internalType": "uint256",
          "name": "_delegationMode",
          "type": "uint256"
        }
      ],
      "stateMutability": "view",
      "type": "function"
    },
    {
      "inputs": [
        {
          "internalType": "address",
          "name": "_who",
          "type": "address"
        }
      ],
      "name": "delegationModeOf",
      "outputs": [
        {
          "internalType": "uint256",
          "name": "",
          "type": "uint256"
        }
      ],
      "stateMutability": "view",
      "type": "function"
    },
    {
      "inputs": [
        {
          "internalType": "bytes4",
          "name": "_selector",
          "type": "bytes4"
        }
      ],
      "name": "executeGovernanceCall",
      "outputs": [],
      "stateMutability": "nonpayable",
      "type": "function"
    },
    {
      "inputs": [],
      "name": "governance",
      "outputs": [
        {
          "internalType": "address",
          "name": "",
          "type": "address"
        }
      ],
      "stateMutability": "view",
      "type": "function"
    },
    {
      "inputs": [],
      "name": "governanceSettings",
      "outputs": [
        {
          "internalType": "contract IGovernanceSettings",
          "name": "",
          "type": "address"
        }
      ],
      "stateMutability": "view",
      "type": "function"
    },
    {
      "inputs": [],
      "name": "governanceVotePower",
      "outputs": [
        {
          "internalType": "contract IGovernanceVotePower",
          "name": "",
          "type": "address"
        }
      ],
      "stateMutability": "view",
      "type": "function"
    },
    {
      "inputs": [
        {
          "internalType": "address",
          "name": "spender",
          "type": "address"
        },
        {
          "internalType": "uint256",
          "name": "addedValue",
          "type": "uint256"
        }
      ],
      "name": "increaseAllowance",
      "outputs": [
        {
          "internalType": "bool",
          "name": "",
          "type": "bool"
        }
      ],
      "stateMutability": "nonpayable",
      "type": "function"
    },
    {
      "inputs": [
        {
          "internalType": "address",
          "name": "_initialGovernance",
          "type": "address"
        }
      ],
      "name": "initialise",
      "outputs": [],
      "stateMutability": "nonpayable",
      "type": "function"
    },
    {
      "inputs": [],
      "name": "name",
      "outputs": [
        {
          "internalType": "string",
          "name": "",
          "type": "string"
        }
      ],
      "stateMutability": "view",
      "type": "function"
    },
    {
      "inputs": [],
      "name": "productionMode",
      "outputs": [
        {
          "internalType": "bool",
          "name": "",
          "type": "bool"
        }
      ],
      "stateMutability": "view",
      "type": "function"
    },
    {
      "inputs": [],
      "name": "readVotePowerContract",
      "outputs": [
        {
          "internalType": "contract IVPContractEvents",
          "name": "",
          "type": "address"
        }
      ],
      "stateMutability": "view",
      "type": "function"
    },
    {
      "inputs": [
        {
          "internalType": "address",
          "name": "_who",
          "type": "address"
        },
        {
          "internalType": "uint256",
          "name": "_blockNumber",
          "type": "uint256"
        }
      ],
      "name": "revokeDelegationAt",
      "outputs": [],
      "stateMutability": "nonpayable",
      "type": "function"
    },
    {
      "inputs": [
        {
          "internalType": "address",
          "name": "_cleanerContract",
          "type": "address"
        }
      ],
      "name": "setCleanerContract",
      "outputs": [],
      "stateMutability": "nonpayable",
      "type": "function"
    },
    {
      "inputs": [
        {
          "internalType": "uint256",
          "name": "_blockNumber",
          "type": "uint256"
        }
      ],
      "name": "setCleanupBlockNumber",
      "outputs": [],
      "stateMutability": "nonpayable",
      "type": "function"
    },
    {
      "inputs": [
        {
          "internalType": "address",
          "name": "_cleanupBlockNumberManager",
          "type": "address"
        }
      ],
      "name": "setCleanupBlockNumberManager",
      "outputs": [],
      "stateMutability": "nonpayable",
      "type": "function"
    },
    {
      "inputs": [
        {
          "internalType": "contract IIGovernanceVotePower",
          "name": "_governanceVotePower",
          "type": "address"
        }
      ],
      "name": "setGovernanceVotePower",
      "outputs": [],
      "stateMutability": "nonpayable",
      "type": "function"
    },
    {
      "inputs": [
        {
          "internalType": "contract IIVPContract",
          "name": "_vpContract",
          "type": "address"
        }
      ],
      "name": "setReadVpContract",
      "outputs": [],
      "stateMutability": "nonpayable",
      "type": "function"
    },
    {
      "inputs": [
        {
          "internalType": "contract IIVPContract",
          "name": "_vpContract",
          "type": "address"
        }
      ],
      "name": "setWriteVpContract",
      "outputs": [],
      "stateMutability": "nonpayable",
      "type": "function"
    },
    {
      "inputs": [],
      "name": "switchToProductionMode",
      "outputs": [],
      "stateMutability": "nonpayable",
      "type": "function"
    },
    {
      "inputs": [],
      "name": "symbol",
      "outputs": [
        {
          "internalType": "string",
          "name": "",
          "type": "string"
        }
      ],
      "stateMutability": "view",
      "type": "function"
    },
    {
      "inputs": [
        {
          "internalType": "bytes4",
          "name": "",
          "type": "bytes4"
        }
      ],
      "name": "timelockedCalls",
      "outputs": [
        {
          "internalType": "uint256",
          "name": "allowedAfterTimestamp",
          "type": "uint256"
        },
        {
          "internalType": "bytes",
          "name": "encodedCall",
          "type": "bytes"
        }
      ],
      "stateMutability": "view",
      "type": "function"
    },
    {
      "inputs": [],
      "name": "totalSupply",
      "outputs": [
        {
          "internalType": "uint256",
          "name": "",
          "type": "uint256"
        }
      ],
      "stateMutability": "view",
      "type": "function"
    },
    {
      "inputs": [
        {
          "internalType": "uint256",
          "name": "_blockNumber",
          "type": "uint256"
        }
      ],
      "name": "totalSupplyAt",
      "outputs": [
        {
          "internalType": "uint256",
          "name": "",
          "type": "uint256"
        }
      ],
      "stateMutability": "view",
      "type": "function"
    },
    {
      "inputs": [
        {
          "internalType": "uint256",
          "name": "_blockNumber",
          "type": "uint256"
        }
      ],
      "name": "totalSupplyCacheCleanup",
      "outputs": [
        {
          "internalType": "uint256",
          "name": "",
          "type": "uint256"
        }
      ],
      "stateMutability": "nonpayable",
      "type": "function"
    },
    {
      "inputs": [
        {
          "internalType": "uint256",
          "name": "_count",
          "type": "uint256"
        }
      ],
      "name": "totalSupplyHistoryCleanup",
      "outputs": [
        {
          "internalType": "uint256",
          "name": "",
          "type": "uint256"
        }
      ],
      "stateMutability": "nonpayable",
      "type": "function"
    },
    {
      "inputs": [],
      "name": "totalVotePower",
      "outputs": [
        {
          "internalType": "uint256",
          "name": "",
          "type": "uint256"
        }
      ],
      "stateMutability": "view",
      "type": "function"
    },
    {
      "inputs": [
        {
          "internalType": "uint256",
          "name": "_blockNumber",
          "type": "uint256"
        }
      ],
      "name": "totalVotePowerAt",
      "outputs": [
        {
          "internalType": "uint256",
          "name": "",
          "type": "uint256"
        }
      ],
      "stateMutability": "view",
      "type": "function"
    },
    {
      "inputs": [
        {
          "internalType": "uint256",
          "name": "_blockNumber",
          "type": "uint256"
        }
      ],
      "name": "totalVotePowerAtCached",
      "outputs": [
        {
          "internalType": "uint256",
          "name": "",
          "type": "uint256"
        }
      ],
      "stateMutability": "nonpayable",
      "type": "function"
    },
    {
      "inputs": [
        {
          "internalType": "address",
          "name": "recipient",
          "type": "address"
        },
        {
          "internalType": "uint256",
          "name": "amount",
          "type": "uint256"
        }
      ],
      "name": "transfer",
      "outputs": [
        {
          "internalType": "bool",
          "name": "",
          "type": "bool"
        }
      ],
      "stateMutability": "nonpayable",
      "type": "function"
    },
    {
      "inputs": [
        {
          "internalType": "address",
          "name": "sender",
          "type": "address"
        },
        {
          "internalType": "address",
          "name": "recipient",
          "type": "address"
        },
        {
          "internalType": "uint256",
          "name": "amount",
          "type": "uint256"
        }
      ],
      "name": "transferFrom",
      "outputs": [
        {
          "internalType": "bool",
          "name": "",
          "type": "bool"
        }
      ],
      "stateMutability": "nonpayable",
      "type": "function"
    },
    {
      "inputs": [],
      "name": "undelegateAll",
      "outputs": [],
      "stateMutability": "nonpayable",
      "type": "function"
    },
    {
      "inputs": [
        {
          "internalType": "address[]",
          "name": "_delegateAddresses",
          "type": "address[]"
        }
      ],
      "name": "undelegateAllExplicit",
      "outputs": [
        {
          "internalType": "uint256",
          "name": "_remainingDelegation",
          "type": "uint256"
        }
      ],
      "stateMutability": "nonpayable",
      "type": "function"
    },
    {
      "inputs": [
        {
          "internalType": "address",
          "name": "_owner",
          "type": "address"
        }
      ],
      "name": "undelegatedVotePowerOf",
      "outputs": [
        {
          "internalType": "uint256",
          "name": "",
          "type": "uint256"
        }
      ],
      "stateMutability": "view",
      "type": "function"
    },
    {
      "inputs": [
        {
          "internalType": "address",
          "name": "_owner",
          "type": "address"
        },
        {
          "internalType": "uint256",
          "name": "_blockNumber",
          "type": "uint256"
        }
      ],
      "name": "undelegatedVotePowerOfAt",
      "outputs": [
        {
          "internalType": "uint256",
          "name": "",
          "type": "uint256"
        }
      ],
      "stateMutability": "view",
      "type": "function"
    },
    {
      "inputs": [
        {
          "internalType": "address",
          "name": "_from",
          "type": "address"
        },
        {
          "internalType": "address",
          "name": "_to",
          "type": "address"
        }
      ],
      "name": "votePowerFromTo",
      "outputs": [
        {
          "internalType": "uint256",
          "name": "",
          "type": "uint256"
        }
      ],
      "stateMutability": "view",
      "type": "function"
    },
    {
      "inputs": [
        {
          "internalType": "address",
          "name": "_from",
          "type": "address"
        },
        {
          "internalType": "address",
          "name": "_to",
          "type": "address"
        },
        {
          "internalType": "uint256",
          "name": "_blockNumber",
          "type": "uint256"
        }
      ],
      "name": "votePowerFromToAt",
      "outputs": [
        {
          "internalType": "uint256",
          "name": "",
          "type": "uint256"
        }
      ],
      "stateMutability": "view",
      "type": "function"
    },
    {
      "inputs": [
        {
          "internalType": "address",
          "name": "_owner",
          "type": "address"
        }
      ],
      "name": "votePowerOf",
      "outputs": [
        {
          "internalType": "uint256",
          "name": "",
          "type": "uint256"
        }
      ],
      "stateMutability": "view",
      "type": "function"
    },
    {
      "inputs": [
        {
          "internalType": "address",
          "name": "_owner",
          "type": "address"
        },
        {
          "internalType": "uint256",
          "name": "_blockNumber",
          "type": "uint256"
        }
      ],
      "name": "votePowerOfAt",
      "outputs": [
        {
          "internalType": "uint256",
          "name": "",
          "type": "uint256"
        }
      ],
      "stateMutability": "view",
      "type": "function"
    },
    {
      "inputs": [
        {
          "internalType": "address",
          "name": "_owner",
          "type": "address"
        },
        {
          "internalType": "uint256",
          "name": "_blockNumber",
          "type": "uint256"
        }
      ],
      "name": "votePowerOfAtCached",
      "outputs": [
        {
          "internalType": "uint256",
          "name": "",
          "type": "uint256"
        }
      ],
      "stateMutability": "nonpayable",
      "type": "function"
    },
    {
      "inputs": [
        {
          "internalType": "address",
          "name": "_owner",
          "type": "address"
        },
        {
          "internalType": "uint256",
          "name": "_blockNumber",
          "type": "uint256"
        }
      ],
      "name": "votePowerOfAtIgnoringRevocation",
      "outputs": [
        {
          "internalType": "uint256",
          "name": "",
          "type": "uint256"
        }
      ],
      "stateMutability": "view",
      "type": "function"
    },
    {
      "inputs": [],
      "name": "vpContractInitialized",
      "outputs": [
        {
          "internalType": "bool",
          "name": "",
          "type": "bool"
        }
      ],
      "stateMutability": "view",
      "type": "function"
    },
    {
      "inputs": [],
      "name": "writeVotePowerContract",
      "outputs": [
        {
          "internalType": "contract IVPContractEvents",
          "name": "",
          "type": "address"
        }
      ],
      "stateMutability": "view",
      "type": "function"
    }
  ],
  "bytecode": "0x60806040526011805460ff60a01b191690553480156200001e57600080fd5b506040516200479d3803806200479d8339810160408190526200004191620002b6565b8280838381600390805190602001906200005d9291906200016f565b508051620000739060049060208401906200016f565b50506005805460ff19166012179055506001600160a01b038116156200009e576200009e81620000db565b506001600160a01b038116620000d15760405162461bcd60e51b8152600401620000c89062000350565b60405180910390fd5b50505050620003b1565b600c54600160a01b900460ff1615620001085760405162461bcd60e51b8152600401620000c8906200037a565b600c8054600160a01b60ff60a01b19909116176001600160a01b0319166001600160a01b0383161790556040517f9789733827840833afc031fb2ef9ab6894271f77bad2085687cf4ae5c7bee4db90620001649083906200033c565b60405180910390a150565b828054600181600116156101000203166002900490600052602060002090601f016020900481019282620001a75760008555620001f2565b82601f10620001c257805160ff1916838001178555620001f2565b82800160010185558215620001f2579182015b82811115620001f2578251825591602001919060010190620001d5565b506200020092915062000204565b5090565b5b8082111562000200576000815560010162000205565b600082601f8301126200022c578081fd5b81516001600160401b03808211156200024157fe5b6040516020601f8401601f19168201810183811183821017156200026157fe5b604052838252858401810187101562000278578485fd5b8492505b838310156200029b57858301810151828401820152918201916200027c565b83831115620002ac57848185840101525b5095945050505050565b600080600060608486031215620002cb578283fd5b83516001600160a01b0381168114620002e2578384fd5b60208501519093506001600160401b0380821115620002ff578384fd5b6200030d878388016200021b565b9350604086015191508082111562000323578283fd5b5062000332868287016200021b565b9150509250925092565b6001600160a01b0391909116815260200190565b60208082526010908201526f5f676f7665726e616e6365207a65726f60801b604082015260600190565b60208082526014908201527f696e697469616c6973656420213d2066616c7365000000000000000000000000604082015260600190565b6143dc80620003c16000396000f3fe608060405234801561001057600080fd5b506004361061038e5760003560e01c806392bfe6d8116101de578063d06dc3ad1161010f578063e64767aa116100ad578063f5f3d4f71161007c578063f5f3d4f71461075c578063f62f8f3a14610764578063f683776714610777578063f6a494af1461078a5761038e565b8063e64767aa1461071b578063ed475a791461072e578063f0e292c914610741578063f5a98383146107545761038e565b8063dd62ed3e116100e9578063dd62ed3e146106e5578063deea13e7146106f8578063e17f212e14610700578063e587497e146107085761038e565b8063d06dc3ad146106ac578063d6aa0b77146106bf578063dc4fcda7146106d25761038e565b8063a457c2d71161017c578063bbd6fbf811610156578063bbd6fbf81461066b578063be0ca7471461067e578063c787a8fc14610691578063caeb942b146106995761038e565b8063a457c2d71461063d578063a9059cbb14610650578063b302f393146106635761038e565b80639b3baa0e116101b85780639b3baa0e146106075780639ca20e4e1461060f5780639ca2231a146106175780639d6a890f1461062a5761038e565b806392bfe6d8146105d957806395d89b41146105ec578063981b24d0146105f45761038e565b806349e3c7e5116102c357806367fc4029116102615780637de5b8ed116102305780637de5b8ed146105885780637f4fcaa9146105ab57806383035a82146105be5780638c2b8ae1146105d15761038e565b806367fc40291461052e57806370a082311461054157806374e6310e14610554578063755d10a4146105755761038e565b80635aa6e6751161029d5780635aa6e675146104f85780635d6d11eb146105005780635ff270791461051357806362354e03146105265761038e565b806349e3c7e5146104bd5780634eac870f146104dd5780634ee2cd7e146104e55761038e565b80631fec092a1161033057806331d12a161161030a57806331d12a161461047157806339509351146104845780633e5aa26a1461049757806343ea370b146104aa5761038e565b80631fec092a1461043457806323b872dd14610449578063313ce5671461045c5761038e565b8063095ea7b31161036c578063095ea7b3146103e657806313de97f514610406578063142d10181461041957806318160ddd1461042c5761038e565b8063026e402b1461039357806304bb4e43146103a857806306fdde03146103d1575b600080fd5b6103a66103a13660046135f3565b61079d565b005b6103bb6103b63660046135f3565b610814565b6040516103c89190614282565b60405180910390f35b6103d96108a4565b6040516103c89190613b68565b6103f96103f43660046135f3565b6108b3565b6040516103c89190613ade565b6103a6610414366004613896565b6108d0565b6103bb610427366004613543565b610a8a565b6103bb610b17565b61043c610b1d565b6040516103c89190613980565b6103f96104573660046135b3565b610b2c565b610464610bb4565b6040516103c891906142a4565b6103a661047f366004613543565b610bbe565b6103f96104923660046135f3565b610d76565b6103bb6104a5366004613896565b610dc4565b6103bb6104b8366004613896565b610dcf565b6104d06104cb3660046137da565b610e28565b6040516103c89190613acb565b61043c610eb3565b6103bb6104f33660046135f3565b610ec2565b61043c610ece565b6103bb61050e36600461361e565b610f6b565b6103a661052136600461386e565b610fd0565b61043c61124f565b6103a661053c36600461386e565b61125a565b6103bb61054f366004613543565b611300565b61056761056236600461386e565b61131b565b6040516103c892919061428b565b6103a6610583366004613543565b6113c2565b61059b610596366004613543565b611623565b6040516103c89493929190613a70565b6103a66105b9366004613543565b6116bf565b6103bb6105cc3660046135f3565b61170e565b61043c611750565b6103bb6105e73660046135f3565b61175f565b6103d9611796565b6103bb610602366004613896565b6117a0565b61043c6117ab565b61043c6117ba565b6103a6610625366004613543565b6117c9565b6103a6610638366004613543565b611901565b6103f961064b3660046135f3565b611990565b6103f961065e3660046135f3565b6119f8565b6103a6611a0c565b6103a66106793660046135f3565b611a77565b6103bb61068c36600461357b565b611b9c565b6103f9611bdd565b6103bb6106a7366004613896565b611bed565b6103a66106ba3660046135f3565b611bf8565b6103bb6106cd366004613543565b611c19565b6103a66106e0366004613650565b611c58565b6103bb6106f336600461357b565b611d95565b6103bb611dc0565b6103f9611dca565b6103bb6107163660046135f3565b611dda565b6103bb6107293660046135b3565b611e3f565b61059b61073c3660046135f3565b611edb565b6103bb61074f3660046135f3565b611f7a565b6103a6611fba565b6103bb612044565b6103bb610772366004613896565b61204e565b6103bb610785366004613543565b61208c565b6103a6610798366004613543565b6120c1565b6107a5612279565b6001600160a01b0316636230001a33846107be33611300565b856040518563ffffffff1660e01b81526004016107de9493929190613994565b600060405180830381600087803b1580156107f857600080fd5b505af115801561080c573d6000803e3d6000fd5b505050505050565b600061081e6122a5565b6001600160a01b03166304bb4e4384846040518363ffffffff1660e01b815260040161084b9291906139e1565b60206040518083038186803b15801561086357600080fd5b505afa158015610877573d6000803e3d6000fd5b505050506040513d601f19601f8201168201806040525081019061089b91906138ae565b90505b92915050565b60606108ae6122d1565b905090565b60006108c76108c0612367565b848461236b565b50600192915050565b6011546001600160a01b031633146109035760405162461bcd60e51b81526004016108fa90614174565b60405180910390fd5b61090c8161241f565b600e546001600160a01b03161561098057600e546040516313de97f560e01b81526001600160a01b03909116906313de97f59061094d908490600401614282565b600060405180830381600087803b15801561096757600080fd5b505af115801561097b573d6000803e3d6000fd5b505050505b600f546001600160a01b0316158015906109ab5750600e54600f546001600160a01b03908116911614155b15610a1357600f546040516313de97f560e01b81526001600160a01b03909116906313de97f5906109e0908490600401614282565b600060405180830381600087803b1580156109fa57600080fd5b505af1158015610a0e573d6000803e3d6000fd5b505050505b6010546001600160a01b031615610a87576010546040516313de97f560e01b81526001600160a01b03909116906313de97f590610a54908490600401614282565b600060405180830381600087803b158015610a6e57600080fd5b505af1158015610a82573d6000803e3d6000fd5b505050505b50565b6000610a946122a5565b6001600160a01b031663142d1018836040518263ffffffff1660e01b8152600401610abf9190613980565b60206040518083038186803b158015610ad757600080fd5b505afa158015610aeb573d6000803e3d6000fd5b505050506040513d601f19601f82011682018060405250810190610b0f91906138ae565b90505b919050565b60025490565b600f546001600160a01b031690565b6000610b39848484612465565b610ba984610b45612367565b610ba48560405180606001604052806028815260200161435a602891396001600160a01b038a16600090815260016020526040812090610b83612367565b6001600160a01b03168152602081019190915260400160002054919061257a565b61236b565b5060015b9392505050565b60006108ae6125a6565b600c54600160b01b900460ff1680610be05750600c54600160a81b900460ff16155b15610d6b57610bed6125af565b6001600160a01b03811615610d0357306001600160a01b0316816001600160a01b031663653718836040518163ffffffff1660e01b815260040160206040518083038186803b158015610c3f57600080fd5b505afa158015610c53573d6000803e3d6000fd5b505050506040513d601f19601f82011682018060405250810190610c77919061355f565b6001600160a01b031614610c9d5760405162461bcd60e51b81526004016108fa90614240565b806001600160a01b03166313de97f5610cb46125e6565b6040518263ffffffff1660e01b8152600401610cd09190614282565b600060405180830381600087803b158015610cea57600080fd5b505af1158015610cfe573d6000803e3d6000fd5b505050505b600e546040517fbec98a6c0f609cda6b9f23b95824ba6ac733cb57edd17d344f2f27968440073991610d43916000916001600160a01b0316908590613b49565b60405180910390a1600e80546001600160a01b0319166001600160a01b038316179055610a87565b610a876000366125ec565b60006108c7610d83612367565b84610ba48560016000610d94612367565b6001600160a01b03908116825260208083019390935260409182016000908120918c168152925290205490612745565b6000610b0f826117a0565b600b546000906001600160a01b03163314610dfc5760405162461bcd60e51b81526004016108fa90613ebf565b600a548210610e1d5760405162461bcd60e51b81526004016108fa90614088565b610b0f60098361276a565b6060610e326122a5565b6001600160a01b03166349e3c7e584846040518363ffffffff1660e01b8152600401610e5f929190613aa9565b60006040518083038186803b158015610e7757600080fd5b505afa158015610e8b573d6000803e3d6000fd5b505050506040513d6000823e601f3d908101601f1916820160405261089b919081019061381c565b6011546001600160a01b031681565b600061089b838361279e565b600c54600090600160a81b900460ff16610ef357600c546001600160a01b03166108ae565b60076001609c1b016001600160a01b031663732524946040518163ffffffff1660e01b815260040160206040518083038186803b158015610f3357600080fd5b505afa158015610f47573d6000803e3d6000fd5b505050506040513d601f19601f820116820180604052508101906108ae919061355f565b6000610f75612279565b6001600160a01b0316630f8b8af733846040518363ffffffff1660e01b8152600401610fa29291906139bd565b602060405180830381600087803b158015610fbc57600080fd5b505af1158015610aeb573d6000803e3d6000fd5b604051630debfda360e41b815260076001609c1b019063debfda3090610ffa903390600401613980565b60206040518083038186803b15801561101257600080fd5b505afa158015611026573d6000803e3d6000fd5b505050506040513d601f19601f8201168201806040525081019061104a919061384e565b6110665760405162461bcd60e51b81526004016108fa906141ab565b6001600160e01b031981166000908152600d60205260409020805461109d5760405162461bcd60e51b81526004016108fa906141d2565b80544210156110be5760405162461bcd60e51b81526004016108fa90613f6b565b6000816001018054600181600116156101000203166002900480601f0160208091040260200160405190810160405280929190818152602001828054600181600116156101000203166002900480156111585780601f1061112d57610100808354040283529160200191611158565b820191906000526020600020905b81548152906001019060200180831161113b57829003601f168201915b505050506001600160e01b031985166000908152600d60205260408120818155929350905061118a6001830182613397565b5050600c805460ff60b01b1916600160b01b17905560405160009030906111b2908490613964565b6000604051808303816000865af19150503d80600081146111ef576040519150601f19603f3d011682016040523d82523d6000602084013e6111f4565b606091505b5050600c805460ff60b01b191690556040519091507fa7326b57fc9cfe267aaea5e7f0b01757154d265620a0585819416ee9ddd2c438906112389086904290613ae9565b60405180910390a1611249816127cf565b50505050565b60076001609c1b0181565b6112626127ec565b6001600160e01b031981166000908152600d60205260409020546112985760405162461bcd60e51b81526004016108fa906141d2565b7f7735b2391c38a81419c513e30ca578db7158eadd7101511b23e221c654d19cf881426040516112c9929190613ae9565b60405180910390a16001600160e01b031981166000908152600d60205260408120818155906112fb6001830182613397565b505050565b6001600160a01b031660009081526020819052604090205490565b600d602090815260009182526040918290208054600180830180548651600293821615610100026000190190911692909204601f8101869004860283018601909652858252919492939092908301828280156113b85780601f1061138d576101008083540402835291602001916113b8565b820191906000526020600020905b81548152906001019060200180831161139b57829003601f168201915b5050505050905082565b600c54600160b01b900460ff16806113e45750600c54600160a81b900460ff16155b15610d6b576113f16125af565b6001600160a01b038116156115bb57306001600160a01b0316816001600160a01b031663653718836040518163ffffffff1660e01b815260040160206040518083038186803b15801561144357600080fd5b505afa158015611457573d6000803e3d6000fd5b505050506040513d601f19601f8201168201806040525081019061147b919061355f565b6001600160a01b0316146114a15760405162461bcd60e51b81526004016108fa90614240565b601154600160a01b900460ff1615806115265750806001600160a01b031663aa94d3f26040518163ffffffff1660e01b815260040160206040518083038186803b1580156114ee57600080fd5b505afa158015611502573d6000803e3d6000fd5b505050506040513d601f19601f82011682018060405250810190611526919061384e565b6115425760405162461bcd60e51b81526004016108fa90613e3f565b806001600160a01b03166313de97f56115596125e6565b6040518263ffffffff1660e01b81526004016115759190614282565b600060405180830381600087803b15801561158f57600080fd5b505af11580156115a3573d6000803e3d6000fd5b50506011805460ff60a01b1916600160a01b17905550505b600f546040517fbec98a6c0f609cda6b9f23b95824ba6ac733cb57edd17d344f2f279684400739916115fb916001916001600160a01b0316908590613b49565b60405180910390a1600f80546001600160a01b0319166001600160a01b038316179055610a87565b6060806000806116316122a5565b6001600160a01b0316637de5b8ed866040518263ffffffff1660e01b815260040161165c9190613980565b60006040518083038186803b15801561167457600080fd5b505afa158015611688573d6000803e3d6000fd5b505050506040513d6000823e601f3d908101601f191682016040526116b09190810190613708565b93509350935093509193509193565b600c54600160b01b900460ff16806116e15750600c54600160a81b900460ff16155b15610d6b576116ee6125af565b601180546001600160a01b0319166001600160a01b038316179055610a87565b60006117186122a5565b6001600160a01b03166331503927846117318686610ec2565b856040518463ffffffff1660e01b815260040161084b93929190613a4f565b6010546001600160a01b031690565b60006117696122a5565b6001600160a01b03166392bfe6d884846040518363ffffffff1660e01b815260040161084b9291906139e1565b60606108ae612824565b6000610b0f82612885565b600e546001600160a01b031690565b600b546001600160a01b031681565b600c54600160b01b900460ff16806117eb5750600c54600160a81b900460ff16155b15610d6b576117f86125af565b306001600160a01b0316816001600160a01b031663653718836040518163ffffffff1660e01b815260040160206040518083038186803b15801561183b57600080fd5b505afa15801561184f573d6000803e3d6000fd5b505050506040513d601f19601f82011682018060405250810190611873919061355f565b6001600160a01b0316146118995760405162461bcd60e51b81526004016108fa90613fa2565b6010546040517fbec98a6c0f609cda6b9f23b95824ba6ac733cb57edd17d344f2f279684400739916118d9916002916001600160a01b0316908590613b49565b60405180910390a1601080546001600160a01b0319166001600160a01b038316179055610a87565b600c54600160a01b900460ff161561192b5760405162461bcd60e51b81526004016108fa9061410f565b600c8054600160a01b60ff60a01b19909116176001600160a01b0319166001600160a01b0383161790556040517f9789733827840833afc031fb2ef9ab6894271f77bad2085687cf4ae5c7bee4db90611985908390613980565b60405180910390a150565b60006108c761199d612367565b84610ba48560405180606001604052806025815260200161438260259139600160006119c7612367565b6001600160a01b03908116825260208083019390935260409182016000908120918d1681529252902054919061257a565b60006108c7611a05612367565b8484612465565b611a14612279565b6001600160a01b03166305109ecf33611a2c33611300565b6040518363ffffffff1660e01b8152600401611a499291906139e1565b600060405180830381600087803b158015611a6357600080fd5b505af1158015611249573d6000803e3d6000fd5b600f54600e546001600160a01b0391821691168115611afe57816001600160a01b031663c7c62fab3386611aab3388610ec2565b876040518563ffffffff1660e01b8152600401611acb9493929190613994565b600060405180830381600087803b158015611ae557600080fd5b505af1158015611af9573d6000803e3d6000fd5b505050505b816001600160a01b0316816001600160a01b031614158015611b2857506001600160a01b03811615155b1561124957806001600160a01b031663c7c62fab3386611b483388610ec2565b876040518563ffffffff1660e01b8152600401611b689493929190613994565b600060405180830381600087803b158015611b8257600080fd5b505af1925050508015611b93575060015b61124957611249565b6000611ba66122a5565b6001600160a01b0316639dc6b9f28484611bbf87611300565b6040518463ffffffff1660e01b815260040161084b939291906139fa565b601154600160a01b900460ff1681565b6000610b0f826128b5565b611c00612279565b6001600160a01b031663404d9e8233846107be33611300565b6000611c236122a5565b6001600160a01b0316634a03d55683611c3b85611300565b6040518363ffffffff1660e01b8152600401610abf9291906139e1565b8051825114611c795760405162461bcd60e51b81526004016108fa90613bff565b6000611c83612279565b90506000611c9033611300565b6040516305109ecf60e01b81529091506001600160a01b038316906305109ecf90611cc190339085906004016139e1565b600060405180830381600087803b158015611cdb57600080fd5b505af1158015611cef573d6000803e3d6000fd5b5050505060005b8451811015610a8257826001600160a01b0316636230001a33878481518110611d1b57fe5b602002602001015185888681518110611d3057fe5b60200260200101516040518563ffffffff1660e01b8152600401611d579493929190613994565b600060405180830381600087803b158015611d7157600080fd5b505af1158015611d85573d6000803e3d6000fd5b505060019092019150611cf69050565b6001600160a01b03918216600090815260016020908152604080832093909416825291909152205490565b60006108ae6125e6565b600c54600160a81b900460ff1681565b6000611de46122a5565b6001600160a01b031663e587497e84846040518363ffffffff1660e01b8152600401611e119291906139e1565b602060405180830381600087803b158015611e2b57600080fd5b505af1158015610877573d6000803e3d6000fd5b6000611e496122a5565b6001600160a01b031663833aca928585611e638887610ec2565b866040518563ffffffff1660e01b8152600401611e839493929190613994565b60206040518083038186803b158015611e9b57600080fd5b505afa158015611eaf573d6000803e3d6000fd5b505050506040513d601f19601f82011682018060405250810190611ed391906138ae565b949350505050565b606080600080611ee96122a5565b6001600160a01b031663ed475a7987876040518363ffffffff1660e01b8152600401611f169291906139e1565b60006040518083038186803b158015611f2e57600080fd5b505afa158015611f42573d6000803e3d6000fd5b505050506040513d6000823e601f3d908101601f19168201604052611f6a9190810190613708565b9299919850965090945092505050565b600b546000906001600160a01b03163314611fa75760405162461bcd60e51b81526004016108fa90613ebf565b600a5461089b9060069085908590612953565b611fc26127ec565b600c54600160a81b900460ff1615611fec5760405162461bcd60e51b81526004016108fa90613d5b565b600c8054600161ff0160a01b031916600160a81b1790556040517f83af113638b5422f9e977cebc0aaf0eaf2188eb9a8baae7f9d46c42b33a1560c9061203a9060076001609c1b0190613980565b60405180910390a1565b60006108ae610b17565b600b546000906001600160a01b0316331461207b5760405162461bcd60e51b81526004016108fa90613ebf565b600a54610b0f906007908490612999565b60006120966122a5565b6001600160a01b031663f6837767836040518263ffffffff1660e01b8152600401610abf9190613980565b600c54600160b01b900460ff16806120e35750600c54600160a81b900460ff16155b15610d6b576120f06125af565b6120f981612a86565b600e546001600160a01b03161561216d57600e5460405163f6a494af60e01b81526001600160a01b039091169063f6a494af9061213a908490600401613980565b600060405180830381600087803b15801561215457600080fd5b505af1158015612168573d6000803e3d6000fd5b505050505b600f546001600160a01b0316158015906121985750600e54600f546001600160a01b03908116911614155b1561220057600f5460405163f6a494af60e01b81526001600160a01b039091169063f6a494af906121cd908490600401613980565b600060405180830381600087803b1580156121e757600080fd5b505af11580156121fb573d6000803e3d6000fd5b505050505b6010546001600160a01b0316156122745760105460405163f6a494af60e01b81526001600160a01b039091169063f6a494af90612241908490600401613980565b600060405180830381600087803b15801561225b57600080fd5b505af115801561226f573d6000803e3d6000fd5b505050505b610a87565b600f546000906001600160a01b0316806108ae5760405162461bcd60e51b81526004016108fa90613eee565b600e546000906001600160a01b0316806108ae5760405162461bcd60e51b81526004016108fa90614209565b60038054604080516020601f600260001961010060018816150201909516949094049384018190048102820181019092528281526060939092909183018282801561235d5780601f106123325761010080835404028352916020019161235d565b820191906000526020600020905b81548152906001019060200180831161234057829003601f168201915b5050505050905090565b3390565b6001600160a01b0383166123915760405162461bcd60e51b81526004016108fa90614044565b6001600160a01b0382166123b75760405162461bcd60e51b81526004016108fa90613c2e565b6001600160a01b0380841660008181526001602090815260408083209487168084529490915290819020849055517f8c5be1e5ebec7d5bd14f71427d1e84f3dd0314c0f7b2291e5b200ac8c7c3b92590612412908590614282565b60405180910390a3505050565b600a548110156124415760405162461bcd60e51b81526004016108fa90613ca7565b4381106124605760405162461bcd60e51b81526004016108fa90613bbe565b600a55565b6001600160a01b03831661248b5760405162461bcd60e51b81526004016108fa90613fff565b6001600160a01b0382166124b15760405162461bcd60e51b81526004016108fa90613b7b565b6124bc838383612aa8565b6124f981604051806060016040528060268152602001614334602691396001600160a01b038616600090815260208190526040902054919061257a565b6001600160a01b0380851660009081526020819052604080822093909355908416815220546125289082612745565b6001600160a01b0380841660008181526020819052604090819020939093559151908516907fddf252ad1be2c89b69c2b068fc378daa952ba7f163c4a11628f55a4df523b3ef90612412908590614282565b6000818484111561259e5760405162461bcd60e51b81526004016108fa9190613b68565b505050900390565b60055460ff1690565b600c54600160b01b900460ff16156125dc573330146125ca57fe5b600c805460ff60b01b191690556125e4565b6125e46127ec565b565b600a5490565b6125f46127ec565b600082359050600060076001609c1b016001600160a01b0316636221a54b6040518163ffffffff1660e01b815260040160206040518083038186803b15801561263c57600080fd5b505afa158015612650573d6000803e3d6000fd5b505050506040513d601f19601f8201168201806040525081019061267491906138ae565b905060008142019050604051806040016040528082815260200186868080601f01602080910402602001604051908101604052809392919081815260200183838082843760009201829052509390945250506001600160e01b031986168152600d60209081526040909120835181558382015180519193506126fd9260018501929101906133db565b509050507fed948300a3694aa01d4a6b258bfd664350193d770c0b51f8387277f6d83ea3b6838287876040516127369493929190613b03565b60405180910390a15050505050565b60008282018381101561089b5760405162461bcd60e51b81526004016108fa90613c70565b600081815260208390526040812054156127955750600081815260208390526040812055600161089e565b50600092915050565b600081600a548110156127c35760405162461bcd60e51b81526004016108fa90613df2565b611ed360068585612c4e565b3d604051818101604052816000823e82156127e8578181f35b8181fd5b6127f4610ece565b6001600160a01b0316336001600160a01b0316146125e45760405162461bcd60e51b81526004016108fa90613d92565b60048054604080516020601f600260001961010060018816150201909516949094049384018190048102820181019092528281526060939092909183018282801561235d5780601f106123325761010080835404028352916020019161235d565b600081600a548110156128aa5760405162461bcd60e51b81526004016108fa90613df2565b610bad600784612c79565b600081600a548110156128da5760405162461bcd60e51b81526004016108fa90613df2565b4383106128f95760405162461bcd60e51b81526004016108fa90613cef565b6000806129096009600787612d9d565b91509150801561294b577ffec477a10b4fcdfdf1114eb32b3caf6118b2d76d20e1fcb70007274bb4b616be856040516129429190614282565b60405180910390a15b509392505050565b60006001600160a01b0384161561298e576001600160a01b0384166000908152602086905260409020612987908484612999565b9050611ed3565b506000949350505050565b6000816129a857506000610bad565b6001840154600160401b90046001600160401b0316806129cc576000915050610bad565b60018501546001600160401b031660006129f26129e98388612745565b60018503612dfb565b9050815b8181108015612a27575060018101600090815260208990526040902054600160c01b90046001600160401b03168610155b15612a43576000818152602089905260408120556001016129f6565b82811115612a7857612a5481612e11565b60018901805467ffffffffffffffff19166001600160401b03929092169190911790555b919091039695505050505050565b600b80546001600160a01b0319166001600160a01b0392909216919091179055565b816001600160a01b0316836001600160a01b03161415612ada5760405162461bcd60e51b81526004016108fa9061413d565b60006001600160a01b038416612af1576000612afa565b612afa84611300565b905060006001600160a01b038416612b13576000612b1c565b612b1c84611300565b600f549091506001600160a01b03168015612b9c5760405163756da1b160e11b81526001600160a01b0382169063eadb436290612b659089908990889088908b90600401613a1e565b600060405180830381600087803b158015612b7f57600080fd5b505af1158015612b93573d6000803e3d6000fd5b50505050612bc1565b601154600160a01b900460ff16612bc1576011805460ff60a01b1916600160a01b1790555b6010546001600160a01b03168015612c3a5760405163756da1b160e11b81526001600160a01b0382169063eadb436290612c07908a908a90899089908c90600401613a1e565b600060405180830381600087803b158015612c2157600080fd5b505af1158015612c35573d6000803e3d6000fd5b505050505b612c45878787612e3a565b50505050505050565b6001600160a01b0382166000908152602084905260408120612c708184612c79565b95945050505050565b6001820154600090600160401b90046001600160401b031680612ca057600091505061089e565b4383101580612cd257506000198101600090815260208590526040902054600160c01b90046001600160401b03168310155b15612cfa57600019016000908152602084905260409020546001600160c01b0316905061089e565b60018401546001600160401b039081166000818152602087905260409020549091600160c01b90910416841015612d54578015612d495760405162461bcd60e51b81526004016108fa906140bf565b60009250505061089e565b6001850154600090612d7a9087908490600160401b90046001600160401b031688612e7a565b6000908152602087905260409020546001600160c01b0316935050505092915050565b60008181526020849052604081205481908015612dc35760001901915060009050612df3565b6000612dcf8686612c79565b9050612ddc816001612745565b600086815260208990526040902055925060019150505b935093915050565b6000818310612e0a578161089b565b5090919050565b6000600160401b8210612e365760405162461bcd60e51b81526004016108fa90613f25565b5090565b6001600160a01b038316612e5757612e528282612f04565b6112fb565b6001600160a01b038216612e6f57612e528382612f61565b6112fb838383613010565b60008381612e89856001613046565b90505b81811115612efa576000612eb66002612eb06001612eaa8688612745565b90612745565b9061306e565b600081815260208a90526040902054909150600160c01b90046001600160401b03168510612ee657809250612ef4565b612ef1816001613046565b91505b50612e8c565b5095945050505050565b6000612f1482612eaa8543610ec2565b9050612f22600684836130a0565b600a54612f36906006908590600290612953565b50612f4f612f4783612eaa436117a0565b6007906130be565b600a5461124990600790600290612999565b6000612fa78260405180604001604052806016815260200175213ab937103a37b7903134b3903337b91037bbb732b960511b815250612fa08643610ec2565b919061257a565b9050612fb5600684836130a0565b600a54612fc9906006908590600290612953565b50612f4f612f47836040518060400160405280601d81526020017f4275726e20746f6f2062696720666f7220746f74616c20737570706c79000000815250612fa0436117a0565b61301d600684848461327f565b600a54613031906006908590600290612953565b50600a54611249906006908490600290612953565b6000828211156130685760405162461bcd60e51b81526004016108fa90613d24565b50900390565b600080821161308f5760405162461bcd60e51b81526004016108fa90613dbb565b81838161309857fe5b049392505050565b6001600160a01b038216600090815260208490526040902061124981835b6001820154600160401b90046001600160401b0316806131755760405180604001604052806130ec8461330e565b6001600160c01b0316815260200161310343612e11565b6001600160401b03908116909152600080805260208681526040909120835181549490920151909216600160c01b026001600160c01b039182166001600160c01b0319909416939093171691909117905560018301805467ffffffffffffffff60401b1916600160401b1790556112fb565b600019810160009081526020849052604090208054600160c01b90046001600160401b0316438114156131cb576131ab8461330e565b82546001600160c01b0319166001600160c01b0391909116178255610a82565b8043116131d457fe5b60405180604001604052806131e88661330e565b6001600160c01b031681526020016131ff43612e11565b6001600160401b039081169091526000858152602088815260409091208351815494909201518316600160c01b026001600160c01b039283166001600160c01b0319909516949094179091169290921790915560018087018054918601909216600160401b0267ffffffffffffffff60401b199091161790555050505050565b8061328957611249565b6001600160a01b0383161580156132a757506001600160a01b038216155b156132ae57fe5b6001600160a01b038316156132e25760006132d3826132cd8787613333565b90613046565b90506132e08585836130a0565b505b6001600160a01b0382161561124957600061330182612eaa8786613333565b9050610a828584836130a0565b6000600160c01b8210612e365760405162461bcd60e51b81526004016108fa90613e88565b6001600160a01b0381166000908152602083905260408120611ed3816001810154600090600160401b90046001600160401b031680613376576000915050610b12565b6000190160009081526020929092525060409020546001600160c01b031690565b50805460018160011615610100020316600290046000825580601f106133bd5750610a87565b601f016020900490600052602060002090810190610a87919061345f565b828054600181600116156101000203166002900490600052602060002090601f0160209004810192826134115760008555613457565b82601f1061342a57805160ff1916838001178555613457565b82800160010185558215613457579182015b8281111561345757825182559160200191906001019061343c565b50612e369291505b5b80821115612e365760008155600101613460565b600082601f830112613484578081fd5b81356020613499613494836142d5565b6142b2565b82815281810190858301838502870184018810156134b5578586fd5b855b858110156134dc5781356134ca8161431e565b845292840192908401906001016134b7565b5090979650505050505050565b600082601f8301126134f9578081fd5b81516020613509613494836142d5565b8281528181019085830183850287018401881015613525578586fd5b855b858110156134dc57815184529284019290840190600101613527565b600060208284031215613554578081fd5b813561089b8161431e565b600060208284031215613570578081fd5b815161089b8161431e565b6000806040838503121561358d578081fd5b82356135988161431e565b915060208301356135a88161431e565b809150509250929050565b6000806000606084860312156135c7578081fd5b83356135d28161431e565b925060208401356135e28161431e565b929592945050506040919091013590565b60008060408385031215613605578182fd5b82356136108161431e565b946020939093013593505050565b60006020828403121561362f578081fd5b81356001600160401b03811115613644578182fd5b611ed384828501613474565b60008060408385031215613662578182fd5b82356001600160401b0380821115613678578384fd5b61368486838701613474565b935060209150818501358181111561369a578384fd5b85019050601f810186136136ac578283fd5b80356136ba613494826142d5565b81815283810190838501858402850186018a10156136d6578687fd5b8694505b838510156136f85780358352600194909401939185019185016136da565b5080955050505050509250929050565b6000806000806080858703121561371d578182fd5b84516001600160401b0380821115613733578384fd5b818701915087601f830112613746578384fd5b81516020613756613494836142d5565b82815281810190858301838502870184018d1015613772578889fd5b8896505b8487101561379d5780516137898161431e565b835260019690960195918301918301613776565b50918a01519198509093505050808211156137b6578384fd5b506137c3878288016134e9565b604087015160609097015195989097509350505050565b600080604083850312156137ec578182fd5b82356001600160401b03811115613801578283fd5b61380d85828601613474565b95602094909401359450505050565b60006020828403121561382d578081fd5b81516001600160401b03811115613842578182fd5b611ed3848285016134e9565b60006020828403121561385f578081fd5b8151801515811461089b578182fd5b60006020828403121561387f578081fd5b81356001600160e01b03198116811461089b578182fd5b6000602082840312156138a7578081fd5b5035919050565b6000602082840312156138bf578081fd5b5051919050565b6000815180845260208085019450808401835b838110156138fe5781516001600160a01b0316875295820195908201906001016138d9565b509495945050505050565b6000815180845260208085019450808401835b838110156138fe5781518752958201959082019060010161391c565b600081518084526139508160208601602086016142f2565b601f01601f19169290920160200192915050565b600082516139768184602087016142f2565b9190910192915050565b6001600160a01b0391909116815260200190565b6001600160a01b0394851681529290931660208301526040820152606081019190915260800190565b6001600160a01b0383168152604060208201819052600090611ed3908301846138c6565b6001600160a01b03929092168252602082015260400190565b6001600160a01b039384168152919092166020820152604081019190915260600190565b6001600160a01b03958616815293909416602084015260408301919091526060820152608081019190915260a00190565b6001600160a01b039390931683526020830191909152604082015260600190565b600060808252613a8360808301876138c6565b8281036020840152613a958187613909565b604084019590955250506060015292915050565b600060408252613abc60408301856138c6565b90508260208301529392505050565b60006020825261089b6020830184613909565b901515815260200190565b6001600160e01b0319929092168252602082015260400190565b600063ffffffff60e01b861682528460208301526060604083015282606083015282846080840137818301608090810191909152601f909201601f191601019392505050565b9283526001600160a01b03918216602084015216604082015260600190565b60006020825261089b6020830184613938565b60208082526023908201527f45524332303a207472616e7366657220746f20746865207a65726f206164647260408201526265737360e81b606082015260800190565b60208082526021908201527f436c65616e757020626c6f636b206d75737420626520696e20746865207061736040820152601d60fa1b606082015260800190565b602080825260159082015274082e4e4c2f240d8cadccee8d040dad2e6dac2e8c6d605b1b604082015260600190565b60208082526022908201527f45524332303a20617070726f766520746f20746865207a65726f206164647265604082015261737360f01b606082015260800190565b6020808252601b908201527f536166654d6174683a206164646974696f6e206f766572666c6f770000000000604082015260600190565b60208082526028908201527f436c65616e757020626c6f636b206e756d626572206d757374206e6576657220604082015267646563726561736560c01b606082015260800190565b6020808252818101527f43616e206f6e6c79206265207573656420666f72207061737420626c6f636b73604082015260600190565b6020808252601e908201527f536166654d6174683a207375627472616374696f6e206f766572666c6f770000604082015260600190565b6020808252601a908201527f616c726561647920696e2070726f64756374696f6e206d6f6465000000000000604082015260600190565b6020808252600f908201526e6f6e6c7920676f7665726e616e636560881b604082015260600190565b6020808252601a908201527f536166654d6174683a206469766973696f6e206279207a65726f000000000000604082015260600190565b6020808252602d908201527f436865636b506f696e7461626c653a2072656164696e672066726f6d20636c6560408201526c616e65642d757020626c6f636b60981b606082015260800190565b60208082526029908201527f5650436f6e7472616374206e6f7420636f6e6669677572656420666f722072656040820152681c1b1858d95b595b9d60ba1b606082015260800190565b6020808252601d908201527f76616c756520646f65736e27742066697420696e203139322062697473000000604082015260600190565b60208082526015908201527413db9b1e4818db19585b995c8818dbdb9d1c9858dd605a1b604082015260600190565b6020808252601e908201527f546f6b656e206d697373696e67207772697465205650436f6e74726163740000604082015260600190565b60208082526026908201527f53616665436173743a2076616c756520646f65736e27742066697420696e203660408201526534206269747360d01b606082015260800190565b60208082526019908201527f74696d656c6f636b3a206e6f7420616c6c6f7765642079657400000000000000604082015260600190565b6020808252603d908201527f476f7665726e616e636520766f746520706f77657220636f6e7472616374206460408201527f6f6573206e6f742062656c6f6e6720746f207468697320746f6b656e2e000000606082015260800190565b60208082526025908201527f45524332303a207472616e736665722066726f6d20746865207a65726f206164604082015264647265737360d81b606082015260800190565b60208082526024908201527f45524332303a20617070726f76652066726f6d20746865207a65726f206164646040820152637265737360e01b606082015260800190565b6020808252601e908201527f4e6f20636c65616e757020616674657220636c65616e757020626c6f636b0000604082015260600190565b60208082526030908201527f436865636b506f696e74486973746f72793a2072656164696e672066726f6d2060408201526f636c65616e65642d757020626c6f636b60801b606082015260800190565b602080825260149082015273696e697469616c6973656420213d2066616c736560601b604082015260600190565b60208082526017908201527f43616e6e6f74207472616e7366657220746f2073656c66000000000000000000604082015260600190565b6020808252601a908201527f6f6e6c7920636c65616e757020626c6f636b206d616e61676572000000000000604082015260600190565b6020808252600d908201526c37b7363c9032bc32b1baba37b960991b604082015260600190565b6020808252601a908201527f74696d656c6f636b3a20696e76616c69642073656c6563746f72000000000000604082015260600190565b6020808252601d908201527f546f6b656e206d697373696e672072656164205650436f6e7472616374000000604082015260600190565b60208082526022908201527f5650436f6e7472616374206e6f74206f776e6564206279207468697320746f6b60408201526132b760f11b606082015260800190565b90815260200190565b600083825260406020830152611ed36040830184613938565b60ff91909116815260200190565b6040518181016001600160401b03811182821017156142cd57fe5b604052919050565b60006001600160401b038211156142e857fe5b5060209081020190565b60005b8381101561430d5781810151838201526020016142f5565b838111156112495750506000910152565b6001600160a01b0381168114610a8757600080fdfe45524332303a207472616e7366657220616d6f756e7420657863656564732062616c616e636545524332303a207472616e7366657220616d6f756e74206578636565647320616c6c6f77616e636545524332303a2064656372656173656420616c6c6f77616e63652062656c6f77207a65726fa264697066735822122015666c80d19644ba85927052955fb6ad870885c1902a1df6da59e9e8a870e7be64736f6c63430007060033",
  "linkReferences": {},
  "deployedLinkReferences": {}
}