{
  "_format": "hh-sol-artifact-1",
  "contractName": "RedemptionRequests",
  "sourceName": "contracts/fasset/library/RedemptionRequests.sol",
  "abi": [
    {
      "anonymous": false,
      "inputs": [
        {
          "indexed": true,
          "internalType": "address",
          "name": "agentVault",
          "type": "address"
        },
        {
          "indexed": false,
          "internalType": "uint256",
          "name": "dustUBA",
          "type": "uint256"
        }
      ],
      "name": "DustChanged",
      "type": "event"
    },
    {
      "anonymous": false,
      "inputs": [
        {
          "indexed": true,
          "internalType": "address",
          "name": "agentVault",
          "type": "address"
        }
      ],
      "name": "LiquidationEnded",
      "type": "event"
    },
    {
      "anonymous": false,
      "inputs": [
        {
          "indexed": true,
          "internalType": "address",
          "name": "agentVault",
          "type": "address"
        },
        {
          "indexed": true,
          "internalType": "address",
          "name": "redeemer",
          "type": "address"
        },
        {
          "indexed": false,
          "internalType": "uint256",
          "name": "redemptionAmountUBA",
          "type": "uint256"
        },
        {
          "indexed": false,
          "internalType": "uint256",
          "name": "paidVaultCollateralWei",
          "type": "uint256"
        }
      ],
      "name": "RedeemedInCollateral",
      "type": "event"
    },
    {
      "anonymous": false,
      "inputs": [
        {
          "indexed": true,
          "internalType": "address",
          "name": "agentVault",
          "type": "address"
        },
        {
          "indexed": true,
          "internalType": "address",
          "name": "redeemer",
          "type": "address"
        },
        {
          "indexed": true,
          "internalType": "uint64",
          "name": "requestId",
          "type": "uint64"
        },
        {
          "indexed": false,
          "internalType": "uint256",
          "name": "redemptionAmountUBA",
          "type": "uint256"
        }
      ],
      "name": "RedemptionRejected",
      "type": "event"
    },
    {
      "anonymous": false,
      "inputs": [
        {
          "indexed": true,
          "internalType": "address",
          "name": "redeemer",
          "type": "address"
        },
        {
          "indexed": false,
          "internalType": "uint256",
          "name": "remainingLots",
          "type": "uint256"
        }
      ],
      "name": "RedemptionRequestIncomplete",
      "type": "event"
    },
    {
      "anonymous": false,
      "inputs": [
        {
          "indexed": true,
          "internalType": "address",
          "name": "agentVault",
          "type": "address"
        },
        {
          "indexed": true,
          "internalType": "address",
          "name": "redeemer",
          "type": "address"
        },
        {
          "indexed": true,
          "internalType": "uint256",
          "name": "requestId",
          "type": "uint256"
        },
        {
          "indexed": false,
          "internalType": "string",
          "name": "paymentAddress",
          "type": "string"
        },
        {
          "indexed": false,
          "internalType": "uint256",
          "name": "valueUBA",
          "type": "uint256"
        },
        {
          "indexed": false,
          "internalType": "uint256",
          "name": "feeUBA",
          "type": "uint256"
        },
        {
          "indexed": false,
          "internalType": "uint256",
          "name": "firstUnderlyingBlock",
          "type": "uint256"
        },
        {
          "indexed": false,
          "internalType": "uint256",
          "name": "lastUnderlyingBlock",
          "type": "uint256"
        },
        {
          "indexed": false,
          "internalType": "uint256",
          "name": "lastUnderlyingTimestamp",
          "type": "uint256"
        },
        {
          "indexed": false,
          "internalType": "bytes32",
          "name": "paymentReference",
          "type": "bytes32"
        },
        {
          "indexed": false,
          "internalType": "address",
          "name": "executor",
          "type": "address"
        },
        {
          "indexed": false,
          "internalType": "uint256",
          "name": "executorFeeNatWei",
          "type": "uint256"
        }
      ],
      "name": "RedemptionRequested",
      "type": "event"
    },
    {
      "anonymous": false,
      "inputs": [
        {
          "indexed": true,
          "internalType": "address",
          "name": "agentVault",
          "type": "address"
        },
        {
          "indexed": true,
          "internalType": "uint256",
          "name": "redemptionTicketId",
          "type": "uint256"
        }
      ],
      "name": "RedemptionTicketDeleted",
      "type": "event"
    },
    {
      "anonymous": false,
      "inputs": [
        {
          "indexed": true,
          "internalType": "address",
          "name": "agentVault",
          "type": "address"
        },
        {
          "indexed": true,
          "internalType": "uint256",
          "name": "redemptionTicketId",
          "type": "uint256"
        },
        {
          "indexed": false,
          "internalType": "uint256",
          "name": "ticketValueUBA",
          "type": "uint256"
        }
      ],
      "name": "RedemptionTicketUpdated",
      "type": "event"
    },
    {
      "anonymous": false,
      "inputs": [
        {
          "indexed": true,
          "internalType": "address",
          "name": "agentVault",
          "type": "address"
        },
        {
          "indexed": false,
          "internalType": "uint256",
          "name": "valueUBA",
          "type": "uint256"
        }
      ],
      "name": "SelfClose",
      "type": "event"
    },
    {
      "inputs": [
        {
          "internalType": "address",
          "name": "_agentVault",
          "type": "address"
        }
      ],
      "name": "maxRedemptionFromAgent",
      "outputs": [
        {
          "internalType": "uint256",
          "name": "",
          "type": "uint256"
        }
      ],
      "stateMutability": "view",
      "type": "function"
    }
  ],
  "bytecode": "0x613c3c61003a600b82828239805160001a60731461002d57634e487b7160e01b600052600060045260246000fd5b30600052607381538281f3fe730000000000000000000000000000000000000000301460806040526004361061006c5760003560e01c80631e8bee0114610071578063480167f8146100965780639584da2a146100b6578063997be0f4146100d6578063da8e273d146100f8578063ed000b3014610118575b600080fd5b61008461007f36600461324e565b610138565b60405190815260200160405180910390f35b8180156100a257600080fd5b506100846100b1366004613329565b610156565b8180156100c257600080fd5b506100846100d136600461339b565b6103cc565b8180156100e257600080fd5b506100f66100f13660046133c7565b6104a4565b005b81801561010457600080fd5b506100f6610113366004613447565b610577565b81801561012457600080fd5b506100f6610133366004613499565b610849565b60008061014483610988565b905061014f81610a1d565b9392505050565b7fec7e8c1c441439dd40959777f4c577ea0cd42fcc1dbe59d2bd0f5d9c55df8dc65460408051808201909152600091600160801b900461ffff1690829080836001600160401b038111156101ac576101ac613287565b6040519080825280602002602001820160405280156101f157816020015b60408051808201909152600080825260208201528152602001906001900390816101ca5790505b508152602001600081525090506000805b83811080156102225750876001600160401b0316826001600160401b0316105b1561027557600061023c610236848b6134f0565b85610b4d565b9050806001600160401b03166000036102555750610275565b61025f8184613510565b925050808061026d90613530565b915050610202565b50806001600160401b03166000036102c45760405162461bcd60e51b815260206004820152600d60248201526c72656465656d2030206c6f747360981b60448201526064015b60405180910390fd5b60006102ed633b9aca008460200151346102de919061355f565b6102e8919061355f565b610d4b565b905060005b836020015181101561033c5761032a8460000151828151811061031757610317613573565b60200260200101518b8a60008b87610db7565b8061033481613530565b9150506102f2565b50876001600160401b0316826001600160401b031610156103a8576001600160a01b0389167fffb29516defd624d1f4ff8436cc96282ba7b4294c3a18cf274c3bdf21c9ccd9961038c848b6134f0565b6040516001600160401b03909116815260200160405180910390a25b60006103b38361112f565b90506103bf33826111b1565b9998505050505050505050565b6000806103d884610988565b90506103e384611244565b826000036104255760405162461bcd60e51b815260206004820152600f60248201526e073656c6620636c6f7365206f66203608c1b60448201526064016102bb565b60006104308461129e565b90506000610440838360016112f1565b91505061044d33826111b1565b6104568361144b565b856001600160a01b03167f27a9c0ea115e1a078f8a4ddd385379102c3138ded0ddd00bf9cc5ee197457dc88260405161049191815260200190565b60405180910390a2925050505b92915050565b60006104af86610988565b90506104ba81611543565b836000036104fc5760405162461bcd60e51b815260206004820152600f60248201526e0726564656d7074696f6e206f66203608c1b60448201526064016102bb565b60006105078561129e565b9050600080610518848460006112f1565b604080518082019091526001600160a01b038c1681526001600160401b03831660208201529193509150610561818a8960018a61055c6102e8633b9aca003461355f565b610db7565b61056b33836111b1565b50505050505050505050565b600061058282611593565b600481015490915060009061059f906001600160a01b0316610988565b90506105ab813361166f565b6105f05760405162461bcd60e51b815260206004820152601660248201527537b7363c9030b3b2b73a103b30bab63a1037bbb732b960511b60448201526064016102bb565b6105f984611741565b60006106086020860186613589565b6106169060808101906135a9565b61062090806135bf565b60405161062e92919061360c565b604051809103902090508260000154811461067b5760405162461bcd60e51b815260206004820152600d60248201526c77726f6e67206164647265737360981b60448201526064016102bb565b600061068a6020870187613589565b6106989060a081019061361c565b6106a6906020810190613640565b80156106d0575083546106bc6020880188613589565b6106ca9060a081019061361c565b60400135145b905080156107105760405162461bcd60e51b815260206004820152600d60248201526c1859191c995cdcc81d985b1a59609a1b60448201526064016102bb565b610743838560020160189054906101000a90046001600160401b03168660040160159054906101000a900460ff166118ab565b600284015460009061076490600160c01b90046001600160401b03166119a1565b600386015460048701546040518381529293506001600160401b038916926001600160a01b0392831692909116907f546ca4504281c4fdf80e86f89160accd6da6cea9b105796337a515103ec70a6f9060200160405180910390a4610840866001600160401b031660009081527fec7e8c1c441439dd40959777f4c577ea0cd42fcc1dbe59d2bd0f5d9c55df8dd6602052604081208181556001810182905560028101919091556003810180546001600160e01b03199081169091556004820180546001600160b01b0319169055600590910180549091169055565b50505050505050565b600061085484610988565b905061085f81611543565b816000036108a15760405162461bcd60e51b815260206004820152600f60248201526e0726564656d7074696f6e206f66203608c1b60448201526064016102bb565b60006108ac8361129e565b90506000806108bd848460016112f1565b600486015491935091506000906108dc90610100900461ffff166119f4565b600a86015490915060009061090f90600160801b900461ffff166109096001600160401b03871685611a3f565b90611a59565b905061091c868983611a68565b50876001600160a01b0316896001600160a01b03167f25c177efe505ee9dd8e37b9825d729e1a27b6ac048c6e55ba91841d9a7fa9ecc858460405161096b929190918252602082015260400190565b60405180910390a361097d33846111b1565b505050505050505050565b600080516020613bc783398151915268010000000000000000600160e01b03604083901b161880600060048084015460ff16908111156109ca576109ca61365d565b03610a175760405162461bcd60e51b815260206004820152601b60248201527f696e76616c6964206167656e74207661756c742061646472657373000000000060448201526064016102bb565b50919050565b60068101547fec7e8c1c441439dd40959777f4c577ea0cd42fcc1dbe59d2bd0f5d9c55df8dc654600080516020613bc78339815191528318604090811c6001600160a01b031660009081527fec7e8c1c441439dd40959777f4c577ea0cd42fcc1dbe59d2bd0f5d9c55df8dd4602052908120549092600080516020613be7833981519152926001600160401b0391821692600160801b90910461ffff169116845b6001600160401b03821615801590610ad557508281105b15610b39576001600160401b038281166000908152601d87016020526040902080549091610b0b91600160a01b90041686613510565b6001909101549094506001600160401b03600160c01b90910416915080610b3181613530565b915050610abe565b50610b43836119a1565b9695505050505050565b7fec7e8c1c441439dd40959777f4c577ea0cd42fcc1dbe59d2bd0f5d9c55df8dd554600090600080516020613be7833981519152906001600160401b0316808303610b9d5760009250505061049e565b6001600160401b038181166000908152601d840160205260408120600e85015481549193610bd69291811691600160a01b900416613673565b9050610be28782611b7d565b600e850154909550600090610c00906001600160401b031687613699565b83549091506001600160a01b031660005b886020015181108015610c575750816001600160a01b031689600001518281518110610c3f57610c3f613573565b6020026020010151600001516001600160a01b031614155b15610c6c57610c6581613530565b9050610c11565b8860200151811015610cd8578289600001518281518110610c8f57610c8f613573565b602002602001015160200151610ca59190613510565b8951805183908110610cb957610cb9613573565b6020908102919091018101516001600160401b03909216910152610d34565b6040518060400160405280836001600160a01b03168152602001846001600160401b031681525089600001518a6020018051809190610d1690613530565b905281518110610d2857610d28613573565b60200260200101819052505b610d3e8684611ba6565b5050505050505092915050565b60006001600160401b03821115610db35760405162461bcd60e51b815260206004820152602660248201527f53616665436173743a2076616c756520646f65736e27742066697420696e203660448201526534206269747360d01b60648201526084016102bb565b5090565b6000600080516020613be783398151915290506000858051906020012090506000610ded610de88a602001516119a1565b611d80565b90506000610dfa87611de9565b9050610e71604080516101c081018252600080825260208201819052918101829052606081018290526080810182905260a0810182905260c0810182905260e08101829052610100810182905261012081018290529061014082019081526000602082018190526040820181905260609091015290565b8381526001600160801b038316602082015260258501546201000090046001600160401b03166060820152610ea4611e7e565b6001600160401b0390811660a0840152166080820152610ec342610d4b565b6001600160401b0316610100820152600f850154610efa90610de8906001600160801b03861690600160401b900461ffff16611a59565b6001600160801b031660408201526001600160a01b038a811660e08301528b511661012082015260208b01516001600160401b031660c082015260016101408201819052508715156101608201526001600160a01b038781166101808301526001600160401b038781166101a08401528381166000908152602088810181526040918290208551815590850151918501516001600160801b03928316600160801b918416820217600183015560608601516002808401805460808a015160a08b015160c08c0151958a166fffffffffffffffffffffffffffffffff1990931692909217600160401b918a1691909102179096169587169093026001600160c01b031694909417600160c01b9186169190910217905560e08501516003820180546101008801519287166001600160e01b031990911617600160a01b929095168202949094179093556101208501516004820180546001600160a01b0319811692909616918217815561014087015187969395909491936001600160a81b031916909217919084908111156110905761109061365d565b0217905550610160820151600482018054911515600160a81b0260ff60a81b19909216919091179055610180820151600590910180546101a0909301516001600160401b0316600160a01b026001600160e01b03199093166001600160a01b03909216919091179190911790558a516111179061110c90610988565b8c602001518a611f49565b61112281838b61205b565b5050505050505050505050565b7fec7e8c1c441439dd40959777f4c577ea0cd42fcc1dbe59d2bd0f5d9c55df8dc3547fec7e8c1c441439dd40959777f4c577ea0cd42fcc1dbe59d2bd0f5d9c55df8dc454600091600080516020613be7833981519152916001600160401b03600160901b9092048216916111a79181169086166136c4565b61014f91906136c4565b7fec7e8c1c441439dd40959777f4c577ea0cd42fcc1dbe59d2bd0f5d9c55df8db7546001600160a01b0316604051632770a7eb60e21b81526001600160a01b038481166004830152602482018490529190911690639dc29fac90604401600060405180830381600087803b15801561122857600080fd5b505af115801561123c573d6000803e3d6000fd5b505050505050565b61125661125082610988565b3361166f565b61129b5760405162461bcd60e51b815260206004820152601660248201527537b7363c9030b3b2b73a103b30bab63a1037bbb732b960511b60448201526064016102bb565b50565b7fec7e8c1c441439dd40959777f4c577ea0cd42fcc1dbe59d2bd0f5d9c55df8dc354600090600080516020613be78339815191529061014f906102e890600160901b90046001600160401b03168561355f565b60068301546000908190600080516020613be78339815191529061131f9086906001600160401b0316611b7d565b92506001600160401b0383161561133a5761133a8684612120565b6010810154600160801b900461ffff1660005b818110801561136d5750866001600160401b0316856001600160401b0316105b1561142557600080516020613bc78339815191528818604090811c6001600160a01b03166000908152601e8501602052908120546001600160401b0316908190036113b85750611425565b6001600160401b0381166000908152601d850160205260408120906113f76113e0898c6134f0565b8354600160a01b90046001600160401b0316611b7d565b90506114038382611ba6565b61140d8189613510565b9750505050808061141d90613530565b91505061134d565b5061142f846119a1565b92508415611441576114418785612171565b5050935093915050565b600260048083015460ff16908111156114665761146661365d565b1461146e5750565b6000611479826121e8565b905060006114868361225c565b9050600061149684836000612339565b905060006114a685846001612339565b9050818460000151101580156114c0575080846020015110155b1561153c576004850180547fff00000000000000000000ffffffffffffffffffffffffffffffffffffffff00166001179055600080516020613bc7833981519152851860401c6001600160a01b03167fe513b42585b0ceec0d56d56fe3a23861c15a2f74eb4c32c94334d63d68ff4dcf60405160405180910390a25b5050505050565b80546001600160a01b0316331461129b5760405162461bcd60e51b81526020600482015260146024820152731bdb9b1e4818dbdb1b185d195c985b081c1bdbdb60621b60448201526064016102bb565b6000600080516020613be78339815191526001600160401b03831682036115f15760405162461bcd60e51b81526020600482015260126024820152711a5b9d985b1a59081c995c5d595cdd081a5960721b60448201526064016102bb565b6001600160401b0383166000908152602080830190526040812092506004830154600160a01b900460ff16600281111561162d5761162d61365d565b03610a175760405162461bcd60e51b81526020600482015260126024820152711a5b9d985b1a59081c995c5d595cdd081a5960721b60448201526064016102bb565b60018201546000906001600160a01b0390811690831681148061173957507fec7e8c1c441439dd40959777f4c577ea0cd42fcc1dbe59d2bd0f5d9c55df8dbd546001600160a01b0316604051631f86345d60e31b81526001600160a01b038381166004830152919091169063fc31a2e890602401602060405180830381865afa158015611700573d6000803e3d6000fd5b505050506040513d601f19601f8201168201806040525081019061172491906136db565b6001600160a01b0316836001600160a01b0316145b949350505050565b7fec7e8c1c441439dd40959777f4c577ea0cd42fcc1dbe59d2bd0f5d9c55df8dbe547fec7e8c1c441439dd40959777f4c577ea0cd42fcc1dbe59d2bd0f5d9c55df8dc254600080516020613be7833981519152916001600160a01b0316906117ac6020850185613589565b60200135146117ed5760405162461bcd60e51b815260206004820152600d60248201526c34b73b30b634b21031b430b4b760991b60448201526064016102bb565b60405163f34ef58760e01b81526001600160a01b0382169063f34ef58790611819908690600401613889565b602060405180830381865afa158015611836573d6000803e3d6000fd5b505050506040513d601f19601f8201168201806040525081019061185a9190613926565b6118a65760405162461bcd60e51b815260206004820152601b60248201527f616464726573732076616c6964697479206e6f742070726f766564000000000060448201526064016102bb565b505050565b6118f98360050160109054906101000a90046001600160401b031683604051806040016040528060148152602001736e6f7420656e6f7567682072656465656d696e6760601b81525061239f565b8360050160106101000a8154816001600160401b0302191690836001600160401b03160217905550806118a6576119748360050160189054906101000a90046001600160401b031683604051806040016040528060148152602001736e6f7420656e6f7567682072656465656d696e6760601b81525061239f565b8360050160186101000a8154816001600160401b0302191690836001600160401b03160217905550505050565b7fec7e8c1c441439dd40959777f4c577ea0cd42fcc1dbe59d2bd0f5d9c55df8dc354600090600080516020613be78339815191529061014f90600160901b90046001600160401b039081169085166136c4565b600080600080516020613be78339815191529050611a35816016018481548110611a2057611a20613573565b906000526020600020906004020160006123ea565b5090949350505050565b600061014f82611a516009600a613a27565b8591906125a9565b600061014f83836127106125a9565b600080611a74856126cf565b90506000600080516020613bc7833981519152861860401c82546040516370a0823160e01b81526001600160a01b038084166004830152929350611b0592879216906370a0823190602401602060405180830381865afa158015611adc573d6000803e3d6000fd5b505050506040513d601f19601f82011682018060405250810190611b009190613a33565b61273a565b825460405163083e007560e21b81526001600160a01b0391821660048201528782166024820152604481018390529194508216906320f801d490606401600060405180830381600087803b158015611b5c57600080fd5b505af1158015611b70573d6000803e3d6000fd5b5050505050509392505050565b6000816001600160401b0316836001600160401b03161115611b9f578161014f565b5090919050565b6001600160401b0382811660009081527fec7e8c1c441439dd40959777f4c577ea0cd42fcc1dbe59d2bd0f5d9c55df8dd3602052604081208054600080516020613be783398151915293919291611c07918691600160a01b909104166134f0565b9050806001600160401b0316600003611c6c5781546040516001600160401b038716916001600160a01b0316907fb7f65e70a51658e24800516a5dc90e2dd65176e18381adda77f58e2044482b1990600090a3611c67601d840186612749565b61153c565b600e8301546001600160401b039081169082161015611cfb578154600090611c9c906001600160a01b0316610988565b9050611ca88183612b23565b82546040516001600160401b038816916001600160a01b0316907fb7f65e70a51658e24800516a5dc90e2dd65176e18381adda77f58e2044482b1990600090a3611cf5601d850187612749565b5061153c565b815467ffffffffffffffff60a01b1916600160a01b6001600160401b038316021782556000611d29826119a1565b83546040518281529192506001600160401b038816916001600160a01b03909116907f9d2e72c50be7927e999d37329649af37a863df77bcb25361699ce021d3d7475d9060200160405180910390a3505050505050565b60006001600160801b03821115610db35760405162461bcd60e51b815260206004820152602760248201527f53616665436173743a2076616c756520646f65736e27742066697420696e20316044820152663238206269747360c81b60648201526084016102bb565b6000600080516020613be783398151915281611e03612b4b565b6024830154611e229190600160401b90046001600160401b0316613510565b9050600084611e32576000611e35565b60015b60ff16600119611e46846001613510565b16179050808360240160086101000a8154816001600160401b0302191690836001600160401b03160217905550809350505050919050565b7fec7e8c1c441439dd40959777f4c577ea0cd42fcc1dbe59d2bd0f5d9c55df8ddb546000908190600080516020613be7833981519152908290600160901b90046001600160401b0316611ed042610d4b565b611eda91906134f0565b600e8301546025840154919250611f0b916001600160401b03600160981b9092048216916201000090910416613510565b600f83015460258401549195506001600160401b0390811691611f37918491600160501b900416613510565b611f419190613510565b925050509091565b818360050160108282829054906101000a90046001600160401b0316611f6f9190613510565b92506101000a8154816001600160401b0302191690836001600160401b0316021790555080611fe357818360050160188282829054906101000a90046001600160401b0316611fbe9190613510565b92506101000a8154816001600160401b0302191690836001600160401b031602179055505b61202e8360050160089054906101000a90046001600160401b031683604051806040016040528060118152602001701b9bdd08195b9bdd59da081b5a5b9d1959607a1b81525061239f565b8360050160086101000a8154816001600160401b0302191690836001600160401b03160217905550505050565b816001600160401b03168360e001516001600160a01b03168461012001516001600160a01b03167f8cbbd73a8d1b8b02a53c4c3b0ee34b472fe3099cc19bcfb57f1aae09e8a9847e848760200151886040015189606001518a608001518b60a001516120da8c6001600160401b031667232128293320800160c11b1790565b8d6101800151633b9aca008f6101a001516001600160401b03166120fe91906136c4565b60405161211399989796959493929190613a92565b60405180910390a4505050565b600682015460408051808201909152600f81526e1b9bdd08195b9bdd59da08191d5cdd608a1b6020820152600091612165916001600160401b0390911690849061239f565b90506118a68382612b69565b6121bc8260050160089054906101000a90046001600160401b031682604051806040016040528060118152602001701b9bdd08195b9bdd59da081b5a5b9d1959607a1b81525061239f565b8260050160086101000a8154816001600160401b0302191690836001600160401b031602179055505050565b6122136040518060800160405280600081526020016000815260200160008152602001600081525090565b600080612221846000612c0a565b91509150600080612233866001612c0a565b604080516080810182529687526020870192909252908501939093525050606082015292915050565b600080600080516020613be7833981519152600484015490915060ff16600281600481111561228d5761228d61365d565b0361230c57600060016004860154600160e81b900460ff1660028111156122b6576122b661365d565b1480156122f25750601283015460048601546122e5916001600160401b0390811691600160a81b900416613510565b6001600160401b03164211155b905080612300576002612303565b60015b95945050505050565b60038160048111156123205761232061365d565b0361232f575060029392505050565b5060009392505050565b6000806123468584612c58565b9050600184600281111561235c5761235c61365d565b148061236f575061236d8584612d0c565b155b15612385576003015463ffffffff16905061014f565b60030154600160401b900463ffffffff1690509392505050565b6000826001600160401b0316846001600160401b0316101582906123d65760405162461bcd60e51b81526004016102bb9190613b01565b5050506001600160401b0390811691160390565b60008060008060008061248988600101805461240590613b14565b80601f016020809104026020016040519081016040528092919081815260200182805461243190613b14565b801561247e5780601f106124535761010080835404028352916020019161247e565b820191906000526020600020905b81548152906001019060200180831161246157829003601f168201915b505050505088612d75565b8a549295509093509150600160f01b900460ff16156124d05787546000906124bf90600160a81b900460ff166001838786612e63565b96509194508493506125a292505050565b600080600061256b8b60020180546124e790613b14565b80601f016020809104026020016040519081016040528092919081815260200182805461251390613b14565b80156125605780601f1061253557610100808354040283529160200191612560565b820191906000526020600020905b81548152906001019060200180831161254357829003601f168201915b50505050508b612d75565b8d54929550909350915060009061258f90600160a81b900460ff1685848a89612e63565b99509497509095506125a2945050505050565b9250925092565b60008082116125ed5760405162461bcd60e51b815260206004820152601060248201526f4469766973696f6e206279207a65726f60801b60448201526064016102bb565b836000036125fd5750600061014f565b8383028385828161261057612610613549565b040361262e5782818161262557612625613549565b0491505061014f565b50600061263b838661355f565b905060006126498487613b48565b90506000612657858761355f565b905060006126658688613b48565b90508561267282856136c4565b61267c919061355f565b61268683856136c4565b61269083876136c4565b8861269b86896136c4565b6126a591906136c4565b6126af9190613b5c565b6126b99190613b5c565b6126c39190613b5c565b98975050505050505050565b60048101547fec7e8c1c441439dd40959777f4c577ea0cd42fcc1dbe59d2bd0f5d9c55df8dcc8054600092600080516020613be7833981519152929161010090910461ffff1690811061272457612724613573565b9060005260206000209060040201915050919050565b6000818310611b9f578161014f565b6001600160401b038116600090815260208390526040902080546001600160a01b031661277857612778613b6f565b80546001600160a01b031660009081526001808501602052604082209083015490916001600160401b0390911690036127fe5760028401546001600160401b038481169116146127ca576127ca613b6f565b6001820154600285018054600160401b9092046001600160401b031667ffffffffffffffff19909216919091179055612866565b60028401546001600160401b039081169084160361281e5761281e613b6f565b6001828101546001600160401b038082166000908152602088905260409020909201805467ffffffffffffffff60401b1916600160401b928390049093169091029190911790555b6001820154600160401b90046001600160401b03166000036128dd5760028401546001600160401b03848116600160401b90920416146128a8576128a8613b6f565b600182015460028501805467ffffffffffffffff60401b19166001600160401b03909216600160401b02919091179055612945565b60028401546001600160401b03600160401b90910481169084160361290457612904613b6f565b600180830154600160401b81046001600160401b039081166000908152602088905260409020909201805467ffffffffffffffff1916929091169190911790555b6001820154600160801b90046001600160401b03166000036129aa5780546001600160401b0384811691161461297d5761297d613b6f565b60018201548154600160c01b9091046001600160401b031667ffffffffffffffff19909116178155612a10565b80546001600160401b03908116908416036129c7576129c7613b6f565b6001828101546001600160401b03600160801b82048116600090815260208890526040902090920180546001600160c01b0316600160c01b928390049093169091029190911790555b6001820154600160c01b90046001600160401b0316600003612a835780546001600160401b03848116600160401b9092041614612a4f57612a4f613b6f565b6001820154815467ffffffffffffffff60401b1916600160801b9091046001600160401b0316600160401b02178155612af5565b80546001600160401b03600160401b909104811690841603612aa757612aa7613b6f565b6001828101546001600160401b03600160c01b820481166000908152602088905260409020909201805467ffffffffffffffff60801b1916600160801b928390049093169091029190911790555b50506001600160401b031660009081526020919091526040812080546001600160e01b031916815560010155565b6006820154612b47908390612b429084906001600160401b0316613510565b612b69565b5050565b6000612b596103e843613b48565b612b64906001613b5c565b905090565b60068201546001600160401b03808316911603612b84575050565b60068201805467ffffffffffffffff19166001600160401b0383161790556000612bad826119a1565b9050600080516020613bc7833981519152831860401c6001600160a01b03167fa3db2bc927901a1d3ba09ad51d84609457b98443be9132a0a936a47c5a1081b582604051612bfd91815260200190565b60405180910390a2505050565b600080600080612c1a8686612edd565b915091506000612c2a8388613040565b90506000612c388389613040565b905083604001519450612c4b8282613101565b9550505050509250929050565b60006002826002811115612c6e57612c6e61365d565b03612c7b57612c7b613b6f565b600080516020613be78339815191526000836002811115612c9e57612c9e61365d565b03612cde5760048401546016820180549091610100900461ffff16908110612cc857612cc8613573565b906000526020600020906004020191505061049e565b600484015460168201805490916301000000900461ffff16908110612cc857612cc8613573565b5092915050565b600080826002811115612d2157612d2161365d565b03612d3d57506004820154600160f01b9004600116151561049e565b6001826002811115612d5157612d5161365d565b14612d5e57612d5e613b6f565b506004820154600160f01b9004600216151561049e565b7fec7e8c1c441439dd40959777f4c577ea0cd42fcc1dbe59d2bd0f5d9c55df8dc15460009081908190600080516020613be7833981519152906001600160a01b03168515612e375760405163e4a0a55b60e01b81526001600160a01b0382169063e4a0a55b90612de9908a90600401613b01565b606060405180830381865afa158015612e06573d6000803e3d6000fd5b505050506040513d601f19601f82011682018060405250810190612e2a9190613b85565b94509450945050506125a2565b60405163524f388960e01b81526001600160a01b0382169063524f388990612de9908a90600401613b01565b6000600080516020613be7833981519152816009612e81878a613b5c565b612e8b9190613b5c565b600b830154909150600090612eab908690600160a81b900460ff16613b5c565b905080821015612ebd57612ebd613b6f565b6103bf612eca8284613bb3565b612ed590600a613a27565b87908a6125a9565b612f026040805160608101909152806000815260200160008152602001600081525090565b612f276040805160608101909152806000815260200160008152602001600081525090565b6000612f338585612c58565b90506000612f418686613110565b90506000612f4e83613153565b612f59576000612fc6565b82546040516370a0823160e01b81526001600160a01b038481166004830152909116906370a0823190602401602060405180830381865afa158015612fa2573d6000803e3d6000fd5b505050506040513d601f19601f82011682018060405250810190612fc69190613a33565b9050600080612fd48561318a565b915091506040518060600160405280896002811115612ff557612ff561365d565b815260200184815260200183815250965060405180606001604052808960028111156130235761302361365d565b815260200184815260200182815250955050505050509250929050565b6000806001845160028111156130585761305861365d565b14613077576005830154600160801b90046001600160401b031661308d565b6005830154600160c01b90046001600160401b03165b60058401546001600160401b03918216925060009183916130b99181811691600160401b900416613b5c565b6130c39190613b5c565b9050806000036130dc576402540be4009250505061049e565b60006130ec828760400151611a3f565b6020870151909150610b4390612710836125a9565b6000818311611b9f578161014f565b600060018260028111156131265761312661365d565b1461314457600080516020613bc7833981519152831860401c61014f565b5050546001600160a01b031690565b8054600090600160b01b90046001600160401b0316158061049e5750815442600160b01b9091046001600160401b03161192915050565b600080600080516020613be78339815191528180806131a987826123ea565b92509250925060008060006131bf8a60016123ea565b60118a0154929550909350915060009085906131eb90600160c01b90046001600160401b031684613b5c565b1015801561321857506011880154869061321590600160c01b90046001600160401b031685613b5c565b10155b905086995080613228578661322a565b835b98505050505050505050915091565b6001600160a01b038116811461129b57600080fd5b60006020828403121561326057600080fd5b813561014f81613239565b80356001600160401b038116811461328257600080fd5b919050565b634e487b7160e01b600052604160045260246000fd5b600082601f8301126132ae57600080fd5b81356001600160401b03808211156132c8576132c8613287565b604051601f8301601f19908116603f011681019082821181831017156132f0576132f0613287565b8160405283815286602085880101111561330957600080fd5b836020870160208301376000602085830101528094505050505092915050565b6000806000806080858703121561333f57600080fd5b843561334a81613239565b93506133586020860161326b565b925060408501356001600160401b0381111561337357600080fd5b61337f8782880161329d565b925050606085013561339081613239565b939692955090935050565b600080604083850312156133ae57600080fd5b82356133b981613239565b946020939093013593505050565b600080600080600060a086880312156133df57600080fd5b85356133ea81613239565b945060208601356133fa81613239565b93506040860135925060608601356001600160401b0381111561341c57600080fd5b6134288882890161329d565b925050608086013561343981613239565b809150509295509295909350565b6000806040838503121561345a57600080fd5b82356001600160401b0381111561347057600080fd5b83016040818603121561348257600080fd5b91506134906020840161326b565b90509250929050565b6000806000606084860312156134ae57600080fd5b83356134b981613239565b925060208401356134c981613239565b929592945050506040919091013590565b634e487b7160e01b600052601160045260246000fd5b6001600160401b03828116828216039080821115612d0557612d056134da565b6001600160401b03818116838216019080821115612d0557612d056134da565b600060018201613542576135426134da565b5060010190565b634e487b7160e01b600052601260045260246000fd5b60008261356e5761356e613549565b500490565b634e487b7160e01b600052603260045260246000fd5b6000823560be1983360301811261359f57600080fd5b9190910192915050565b60008235601e1983360301811261359f57600080fd5b6000808335601e198436030181126135d657600080fd5b8301803591506001600160401b038211156135f057600080fd5b60200191503681900382131561360557600080fd5b9250929050565b8183823760009101908152919050565b60008235605e1983360301811261359f57600080fd5b801515811461129b57600080fd5b60006020828403121561365257600080fd5b813561014f81613632565b634e487b7160e01b600052602160045260246000fd5b60006001600160401b038084168061368d5761368d613549565b92169190910492915050565b6001600160401b038181168382160280821691908281146136bc576136bc6134da565b505092915050565b808202811582820484141761049e5761049e6134da565b6000602082840312156136ed57600080fd5b815161014f81613239565b6000823560be1983360301811261370e57600080fd5b90910192915050565b6000808335601e1984360301811261372e57600080fd5b83016020810192503590506001600160401b0381111561374d57600080fd5b80360382131561360557600080fd5b81835281816020850137506000828201602090810191909152601f909101601f19169091010190565b60008235605e1983360301811261370e57600080fd5b600081356137a881613632565b151583526137b96020830183613717565b606060208601526137ce60608601828461375c565b915050604083013560408501528091505092915050565b803582526020810135602083015260006138016040830161326b565b6001600160401b0380821660408601528061381e6060860161326b565b16606086015250506080820135601e1983360301811261383d57600080fd5b60c0608085015282016138508180613717565b9150602060c086015261386760e08601838361375c565b91505061387760a0840184613785565b84820360a0860152612303828261379b565b6020815260008235601e198436030181126138a357600080fd5b83016020810190356001600160401b038111156138bf57600080fd5b8060051b8036038313156138d257600080fd5b60406020860152606085018290526001600160fb1b038211156138f457600080fd5b808360808701378401915061390e905060208501856136f8565b606084830301604085015261230360808301826137e5565b60006020828403121561393857600080fd5b815161014f81613632565b600181815b8085111561397e578160001904821115613964576139646134da565b8085161561397157918102915b93841c9390800290613948565b509250929050565b6000826139955750600161049e565b816139a25750600061049e565b81600181146139b857600281146139c2576139de565b600191505061049e565b60ff8411156139d3576139d36134da565b50506001821b61049e565b5060208310610133831016604e8410600b8410161715613a01575081810a61049e565b613a0b8383613943565b8060001904821115613a1f57613a1f6134da565b029392505050565b600061014f8383613986565b600060208284031215613a4557600080fd5b5051919050565b6000815180845260005b81811015613a7257602081850181015186830182015201613a56565b506000602082860101526020601f19601f83011685010191505092915050565b6000610120808352613aa68184018d613a4c565b6001600160801b039b8c16602085015299909a166040830152506001600160401b03968716606082015294861660808601529290941660a084015260c08301526001600160a01b0390921660e0820152610100015292915050565b60208152600061014f6020830184613a4c565b600181811c90821680613b2857607f821691505b602082108103610a1757634e487b7160e01b600052602260045260246000fd5b600082613b5757613b57613549565b500690565b8082018082111561049e5761049e6134da565b634e487b7160e01b600052600160045260246000fd5b600080600060608486031215613b9a57600080fd5b8351925060208401519150604084015190509250925092565b8181038181111561049e5761049e6134da56fe5bebac0595fee029d42bb673937f5f1cb81cf8641382bc17774635de9b7d7965ec7e8c1c441439dd40959777f4c577ea0cd42fcc1dbe59d2bd0f5d9c55df8db6a26469706673582212206ffce961fcb0d05b0667f9246ab00a89832688a066e9d499cb76971aea47bfef64736f6c63430008140033",
  "linkReferences": {},
  "deployedLinkReferences": {}
}