{
  "_format": "hh-sol-artifact-1",
  "contractName": "AssetManager",
  "sourceName": "contracts/fasset/implementation/AssetManager.sol",
  "abi": [
    {
      "inputs": [
        {
          "components": [
            {
              "internalType": "address",
              "name": "assetManagerController",
              "type": "address"
            },
            {
              "internalType": "contract IFAsset",
              "name": "fAsset",
              "type": "address"
            },
            {
              "internalType": "contract IAgentVaultFactory",
              "name": "agentVaultFactory",
              "type": "address"
            },
            {
              "internalType": "contract ICollateralPoolFactory",
              "name": "collateralPoolFactory",
              "type": "address"
            },
            {
              "internalType": "contract IWhitelist",
              "name": "whitelist",
              "type": "address"
            },
            {
              "internalType": "contract IWhitelist",
              "name": "agentWhitelist",
              "type": "address"
            },
            {
              "internalType": "contract IAttestationClient",
              "name": "attestationClient",
              "type": "address"
            },
            {
              "internalType": "contract IAddressValidator",
              "name": "underlyingAddressValidator",
              "type": "address"
            },
            {
              "internalType": "address",
              "name": "liquidationStrategy",
              "type": "address"
            },
            {
              "internalType": "contract IFtsoRegistry",
              "name": "ftsoRegistry",
              "type": "address"
            },
            {
              "internalType": "uint32",
              "name": "assetFtsoIndex",
              "type": "uint32"
            },
            {
              "internalType": "uint8",
              "name": "assetDecimals",
              "type": "uint8"
            },
            {
              "internalType": "uint8",
              "name": "assetMintingDecimals",
              "type": "uint8"
            },
            {
              "internalType": "uint32",
              "name": "mintingPoolHoldingsRequiredBIPS",
              "type": "uint32"
            },
            {
              "internalType": "string",
              "name": "assetFtsoSymbol",
              "type": "string"
            },
            {
              "internalType": "address payable",
              "name": "burnAddress",
              "type": "address"
            },
            {
              "internalType": "bool",
              "name": "burnWithSelfDestruct",
              "type": "bool"
            },
            {
              "internalType": "uint32",
              "name": "chainId",
              "type": "uint32"
            },
            {
              "internalType": "uint16",
              "name": "collateralReservationFeeBIPS",
              "type": "uint16"
            },
            {
              "internalType": "uint64",
              "name": "assetUnitUBA",
              "type": "uint64"
            },
            {
              "internalType": "uint64",
              "name": "assetMintingGranularityUBA",
              "type": "uint64"
            },
            {
              "internalType": "uint64",
              "name": "lotSizeAMG",
              "type": "uint64"
            },
            {
              "internalType": "uint64",
              "name": "mintingCapAMG",
              "type": "uint64"
            },
            {
              "internalType": "uint64",
              "name": "maxTrustedPriceAgeSeconds",
              "type": "uint64"
            },
            {
              "internalType": "bool",
              "name": "requireEOAAddressProof",
              "type": "bool"
            },
            {
              "internalType": "uint64",
              "name": "underlyingBlocksForPayment",
              "type": "uint64"
            },
            {
              "internalType": "uint64",
              "name": "underlyingSecondsForPayment",
              "type": "uint64"
            },
            {
              "internalType": "uint16",
              "name": "redemptionFeeBIPS",
              "type": "uint16"
            },
            {
              "internalType": "uint32",
              "name": "redemptionDefaultFactorAgentC1BIPS",
              "type": "uint32"
            },
            {
              "internalType": "uint32",
              "name": "redemptionDefaultFactorPoolBIPS",
              "type": "uint32"
            },
            {
              "internalType": "uint64",
              "name": "confirmationByOthersAfterSeconds",
              "type": "uint64"
            },
            {
              "internalType": "uint128",
              "name": "confirmationByOthersRewardUSD5",
              "type": "uint128"
            },
            {
              "internalType": "uint16",
              "name": "maxRedeemedTickets",
              "type": "uint16"
            },
            {
              "internalType": "uint16",
              "name": "paymentChallengeRewardBIPS",
              "type": "uint16"
            },
            {
              "internalType": "uint128",
              "name": "paymentChallengeRewardUSD5",
              "type": "uint128"
            },
            {
              "internalType": "uint64",
              "name": "withdrawalWaitMinSeconds",
              "type": "uint64"
            },
            {
              "internalType": "uint64",
              "name": "ccbTimeSeconds",
              "type": "uint64"
            },
            {
              "internalType": "uint64",
              "name": "attestationWindowSeconds",
              "type": "uint64"
            },
            {
              "internalType": "uint64",
              "name": "minUpdateRepeatTimeSeconds",
              "type": "uint64"
            },
            {
              "internalType": "uint64",
              "name": "buybackCollateralFactorBIPS",
              "type": "uint64"
            },
            {
              "internalType": "uint64",
              "name": "announcedUnderlyingConfirmationMinSeconds",
              "type": "uint64"
            },
            {
              "internalType": "uint64",
              "name": "tokenInvalidationTimeMinSeconds",
              "type": "uint64"
            },
            {
              "internalType": "uint32",
              "name": "class1BuyForFlareFactorBIPS",
              "type": "uint32"
            },
            {
              "internalType": "uint64",
              "name": "agentExitAvailableTimelockSeconds",
              "type": "uint64"
            },
            {
              "internalType": "uint64",
              "name": "agentFeeChangeTimelockSeconds",
              "type": "uint64"
            },
            {
              "internalType": "uint64",
              "name": "agentCollateralRatioChangeTimelockSeconds",
              "type": "uint64"
            }
          ],
          "internalType": "struct AssetManagerSettings.Data",
          "name": "_settings",
          "type": "tuple"
        },
        {
          "components": [
            {
              "internalType": "enum IAssetManager.CollateralTokenClass",
              "name": "tokenClass",
              "type": "uint8"
            },
            {
              "internalType": "contract IERC20",
              "name": "token",
              "type": "address"
            },
            {
              "internalType": "uint256",
              "name": "decimals",
              "type": "uint256"
            },
            {
              "internalType": "uint256",
              "name": "validUntil",
              "type": "uint256"
            },
            {
              "internalType": "string",
              "name": "ftsoSymbol",
              "type": "string"
            },
            {
              "internalType": "uint256",
              "name": "minCollateralRatioBIPS",
              "type": "uint256"
            },
            {
              "internalType": "uint256",
              "name": "ccbMinCollateralRatioBIPS",
              "type": "uint256"
            },
            {
              "internalType": "uint256",
              "name": "safetyMinCollateralRatioBIPS",
              "type": "uint256"
            }
          ],
          "internalType": "struct IAssetManager.CollateralTokenInfo[]",
          "name": "_initialCollateralTypes",
          "type": "tuple[]"
        },
        {
          "internalType": "bytes",
          "name": "_initialLiquidationSettings",
          "type": "bytes"
        }
      ],
      "stateMutability": "nonpayable",
      "type": "constructor"
    },
    {
      "anonymous": false,
      "inputs": [
        {
          "indexed": true,
          "internalType": "address",
          "name": "agentVault",
          "type": "address"
        },
        {
          "indexed": false,
          "internalType": "uint256",
          "name": "feeBIPS",
          "type": "uint256"
        },
        {
          "indexed": false,
          "internalType": "uint256",
          "name": "mintingClass1CollateralRatioBIPS",
          "type": "uint256"
        },
        {
          "indexed": false,
          "internalType": "uint256",
          "name": "mintingPoolCollateralRatioBIPS",
          "type": "uint256"
        },
        {
          "indexed": false,
          "internalType": "uint256",
          "name": "freeCollateralLots",
          "type": "uint256"
        }
      ],
      "name": "AgentAvailable",
      "type": "event"
    },
    {
      "anonymous": false,
      "inputs": [
        {
          "indexed": true,
          "internalType": "address",
          "name": "owner",
          "type": "address"
        },
        {
          "indexed": false,
          "internalType": "uint8",
          "name": "agentType",
          "type": "uint8"
        },
        {
          "indexed": false,
          "internalType": "address",
          "name": "agentVault",
          "type": "address"
        },
        {
          "indexed": false,
          "internalType": "string",
          "name": "underlyingAddress",
          "type": "string"
        },
        {
          "indexed": false,
          "internalType": "address",
          "name": "collateralPool",
          "type": "address"
        }
      ],
      "name": "AgentCreated",
      "type": "event"
    },
    {
      "anonymous": false,
      "inputs": [
        {
          "indexed": true,
          "internalType": "address",
          "name": "agentVault",
          "type": "address"
        },
        {
          "indexed": false,
          "internalType": "uint256",
          "name": "destroyAllowedAt",
          "type": "uint256"
        }
      ],
      "name": "AgentDestroyAnnounced",
      "type": "event"
    },
    {
      "anonymous": false,
      "inputs": [
        {
          "indexed": true,
          "internalType": "address",
          "name": "agentVault",
          "type": "address"
        }
      ],
      "name": "AgentDestroyed",
      "type": "event"
    },
    {
      "anonymous": false,
      "inputs": [
        {
          "indexed": true,
          "internalType": "address",
          "name": "agentVault",
          "type": "address"
        },
        {
          "indexed": false,
          "internalType": "uint256",
          "name": "timestamp",
          "type": "uint256"
        }
      ],
      "name": "AgentInCCB",
      "type": "event"
    },
    {
      "anonymous": false,
      "inputs": [
        {
          "indexed": false,
          "internalType": "address",
          "name": "agentVault",
          "type": "address"
        },
        {
          "indexed": false,
          "internalType": "string",
          "name": "name",
          "type": "string"
        },
        {
          "indexed": false,
          "internalType": "uint256",
          "name": "value",
          "type": "uint256"
        },
        {
          "indexed": false,
          "internalType": "uint256",
          "name": "validAt",
          "type": "uint256"
        }
      ],
      "name": "AgentSettingChangeAnnounced",
      "type": "event"
    },
    {
      "anonymous": false,
      "inputs": [
        {
          "indexed": false,
          "internalType": "address",
          "name": "agentVault",
          "type": "address"
        },
        {
          "indexed": false,
          "internalType": "string",
          "name": "name",
          "type": "string"
        },
        {
          "indexed": false,
          "internalType": "uint256",
          "name": "value",
          "type": "uint256"
        }
      ],
      "name": "AgentSettingChanged",
      "type": "event"
    },
    {
      "anonymous": false,
      "inputs": [
        {
          "indexed": true,
          "internalType": "address",
          "name": "agentVault",
          "type": "address"
        },
        {
          "indexed": false,
          "internalType": "uint256",
          "name": "exitAllowedAt",
          "type": "uint256"
        }
      ],
      "name": "AvailableAgentExitAnnounced",
      "type": "event"
    },
    {
      "anonymous": false,
      "inputs": [
        {
          "indexed": true,
          "internalType": "address",
          "name": "agentVault",
          "type": "address"
        }
      ],
      "name": "AvailableAgentExited",
      "type": "event"
    },
    {
      "anonymous": false,
      "inputs": [
        {
          "indexed": true,
          "internalType": "address",
          "name": "agentVault",
          "type": "address"
        },
        {
          "indexed": false,
          "internalType": "uint256",
          "name": "amountWei",
          "type": "uint256"
        },
        {
          "indexed": false,
          "internalType": "uint256",
          "name": "withdrawalAllowedAt",
          "type": "uint256"
        }
      ],
      "name": "Class1WithdrawalAnnounced",
      "type": "event"
    },
    {
      "anonymous": false,
      "inputs": [
        {
          "indexed": true,
          "internalType": "address",
          "name": "agentVault",
          "type": "address"
        },
        {
          "indexed": true,
          "internalType": "address",
          "name": "minter",
          "type": "address"
        },
        {
          "indexed": false,
          "internalType": "uint256",
          "name": "collateralReservationId",
          "type": "uint256"
        },
        {
          "indexed": false,
          "internalType": "uint256",
          "name": "reservedAmountUBA",
          "type": "uint256"
        }
      ],
      "name": "CollateralReservationDeleted",
      "type": "event"
    },
    {
      "anonymous": false,
      "inputs": [
        {
          "indexed": true,
          "internalType": "address",
          "name": "agentVault",
          "type": "address"
        },
        {
          "indexed": true,
          "internalType": "address",
          "name": "minter",
          "type": "address"
        },
        {
          "indexed": false,
          "internalType": "uint256",
          "name": "collateralReservationId",
          "type": "uint256"
        },
        {
          "indexed": false,
          "internalType": "uint256",
          "name": "valueUBA",
          "type": "uint256"
        },
        {
          "indexed": false,
          "internalType": "uint256",
          "name": "feeUBA",
          "type": "uint256"
        },
        {
          "indexed": false,
          "internalType": "uint256",
          "name": "lastUnderlyingBlock",
          "type": "uint256"
        },
        {
          "indexed": false,
          "internalType": "uint256",
          "name": "lastUnderlyingTimestamp",
          "type": "uint256"
        },
        {
          "indexed": false,
          "internalType": "string",
          "name": "paymentAddress",
          "type": "string"
        },
        {
          "indexed": false,
          "internalType": "bytes32",
          "name": "paymentReference",
          "type": "bytes32"
        }
      ],
      "name": "CollateralReserved",
      "type": "event"
    },
    {
      "anonymous": false,
      "inputs": [
        {
          "indexed": false,
          "internalType": "uint8",
          "name": "tokenClass",
          "type": "uint8"
        },
        {
          "indexed": false,
          "internalType": "address",
          "name": "tokenContract",
          "type": "address"
        },
        {
          "indexed": false,
          "internalType": "string",
          "name": "ftsoSymbol",
          "type": "string"
        },
        {
          "indexed": false,
          "internalType": "uint256",
          "name": "minCollateralRatioBIPS",
          "type": "uint256"
        },
        {
          "indexed": false,
          "internalType": "uint256",
          "name": "ccbMinCollateralRatioBIPS",
          "type": "uint256"
        },
        {
          "indexed": false,
          "internalType": "uint256",
          "name": "safetyMinCollateralRatioBIPS",
          "type": "uint256"
        }
      ],
      "name": "CollateralTokenAdded",
      "type": "event"
    },
    {
      "anonymous": false,
      "inputs": [
        {
          "indexed": false,
          "internalType": "uint8",
          "name": "tokenClass",
          "type": "uint8"
        },
        {
          "indexed": false,
          "internalType": "address",
          "name": "tokenContract",
          "type": "address"
        },
        {
          "indexed": false,
          "internalType": "uint256",
          "name": "validUntil",
          "type": "uint256"
        }
      ],
      "name": "CollateralTokenDeprecated",
      "type": "event"
    },
    {
      "anonymous": false,
      "inputs": [
        {
          "indexed": false,
          "internalType": "uint8",
          "name": "tokenClass",
          "type": "uint8"
        },
        {
          "indexed": false,
          "internalType": "address",
          "name": "tokenContract",
          "type": "address"
        },
        {
          "indexed": false,
          "internalType": "uint256",
          "name": "minCollateralRatioBIPS",
          "type": "uint256"
        },
        {
          "indexed": false,
          "internalType": "uint256",
          "name": "ccbMinCollateralRatioBIPS",
          "type": "uint256"
        },
        {
          "indexed": false,
          "internalType": "uint256",
          "name": "safetyMinCollateralRatioBIPS",
          "type": "uint256"
        }
      ],
      "name": "CollateralTokenRatiosChanged",
      "type": "event"
    },
    {
      "anonymous": false,
      "inputs": [
        {
          "indexed": false,
          "internalType": "string",
          "name": "name",
          "type": "string"
        },
        {
          "indexed": false,
          "internalType": "address",
          "name": "value",
          "type": "address"
        }
      ],
      "name": "ContractChanged",
      "type": "event"
    },
    {
      "anonymous": false,
      "inputs": [
        {
          "indexed": true,
          "internalType": "address",
          "name": "agentVault",
          "type": "address"
        },
        {
          "indexed": false,
          "internalType": "bytes32",
          "name": "transactionHash1",
          "type": "bytes32"
        },
        {
          "indexed": false,
          "internalType": "bytes32",
          "name": "transactionHash2",
          "type": "bytes32"
        }
      ],
      "name": "DuplicatePaymentConfirmed",
      "type": "event"
    },
    {
      "anonymous": false,
      "inputs": [
        {
          "indexed": true,
          "internalType": "address",
          "name": "agentVault",
          "type": "address"
        },
        {
          "indexed": false,
          "internalType": "uint256",
          "name": "dustUBA",
          "type": "uint256"
        }
      ],
      "name": "DustChanged",
      "type": "event"
    },
    {
      "anonymous": false,
      "inputs": [
        {
          "indexed": true,
          "internalType": "address",
          "name": "agentVault",
          "type": "address"
        },
        {
          "indexed": false,
          "internalType": "uint256",
          "name": "redemptionTicketId",
          "type": "uint256"
        },
        {
          "indexed": false,
          "internalType": "uint256",
          "name": "valueUBA",
          "type": "uint256"
        }
      ],
      "name": "DustConvertedToTicket",
      "type": "event"
    },
    {
      "anonymous": false,
      "inputs": [
        {
          "indexed": true,
          "internalType": "address",
          "name": "agentVault",
          "type": "address"
        },
        {
          "indexed": false,
          "internalType": "uint256",
          "name": "timestamp",
          "type": "uint256"
        }
      ],
      "name": "FullLiquidationStarted",
      "type": "event"
    },
    {
      "anonymous": false,
      "inputs": [
        {
          "indexed": true,
          "internalType": "address",
          "name": "agentVault",
          "type": "address"
        },
        {
          "indexed": false,
          "internalType": "bytes32",
          "name": "transactionHash",
          "type": "bytes32"
        }
      ],
      "name": "IllegalPaymentConfirmed",
      "type": "event"
    },
    {
      "anonymous": false,
      "inputs": [
        {
          "indexed": true,
          "internalType": "address",
          "name": "agentVault",
          "type": "address"
        }
      ],
      "name": "LiquidationEnded",
      "type": "event"
    },
    {
      "anonymous": false,
      "inputs": [
        {
          "indexed": true,
          "internalType": "address",
          "name": "agentVault",
          "type": "address"
        },
        {
          "indexed": true,
          "internalType": "address",
          "name": "liquidator",
          "type": "address"
        },
        {
          "indexed": false,
          "internalType": "uint256",
          "name": "valueUBA",
          "type": "uint256"
        }
      ],
      "name": "LiquidationPerformed",
      "type": "event"
    },
    {
      "anonymous": false,
      "inputs": [
        {
          "indexed": true,
          "internalType": "address",
          "name": "agentVault",
          "type": "address"
        },
        {
          "indexed": false,
          "internalType": "uint256",
          "name": "timestamp",
          "type": "uint256"
        }
      ],
      "name": "LiquidationStarted",
      "type": "event"
    },
    {
      "anonymous": false,
      "inputs": [
        {
          "indexed": true,
          "internalType": "address",
          "name": "agentVault",
          "type": "address"
        },
        {
          "indexed": false,
          "internalType": "uint256",
          "name": "collateralReservationId",
          "type": "uint256"
        },
        {
          "indexed": false,
          "internalType": "uint256",
          "name": "redemptionTicketId",
          "type": "uint256"
        },
        {
          "indexed": false,
          "internalType": "uint256",
          "name": "mintedAmountUBA",
          "type": "uint256"
        },
        {
          "indexed": false,
          "internalType": "uint256",
          "name": "agentFeeUBA",
          "type": "uint256"
        },
        {
          "indexed": false,
          "internalType": "uint256",
          "name": "poolFeeUBA",
          "type": "uint256"
        }
      ],
      "name": "MintingExecuted",
      "type": "event"
    },
    {
      "anonymous": false,
      "inputs": [
        {
          "indexed": true,
          "internalType": "address",
          "name": "agentVault",
          "type": "address"
        },
        {
          "indexed": true,
          "internalType": "address",
          "name": "minter",
          "type": "address"
        },
        {
          "indexed": false,
          "internalType": "uint256",
          "name": "collateralReservationId",
          "type": "uint256"
        },
        {
          "indexed": false,
          "internalType": "uint256",
          "name": "reservedAmountUBA",
          "type": "uint256"
        }
      ],
      "name": "MintingPaymentDefault",
      "type": "event"
    },
    {
      "anonymous": false,
      "inputs": [
        {
          "indexed": true,
          "internalType": "address",
          "name": "agentVault",
          "type": "address"
        },
        {
          "indexed": false,
          "internalType": "uint256",
          "name": "amountWei",
          "type": "uint256"
        },
        {
          "indexed": false,
          "internalType": "uint256",
          "name": "withdrawalAllowedAt",
          "type": "uint256"
        }
      ],
      "name": "PoolTokenRedemptionAnnounced",
      "type": "event"
    },
    {
      "anonymous": false,
      "inputs": [
        {
          "indexed": true,
          "internalType": "address",
          "name": "agentVault",
          "type": "address"
        },
        {
          "indexed": true,
          "internalType": "address",
          "name": "redeemer",
          "type": "address"
        },
        {
          "indexed": false,
          "internalType": "uint256",
          "name": "redemptionAmountUBA",
          "type": "uint256"
        },
        {
          "indexed": false,
          "internalType": "uint256",
          "name": "redeemedClass1CollateralWei",
          "type": "uint256"
        },
        {
          "indexed": false,
          "internalType": "uint256",
          "name": "redeemedPoolCollateralWei",
          "type": "uint256"
        },
        {
          "indexed": false,
          "internalType": "uint64",
          "name": "requestId",
          "type": "uint64"
        }
      ],
      "name": "RedemptionDefault",
      "type": "event"
    },
    {
      "anonymous": false,
      "inputs": [
        {
          "indexed": true,
          "internalType": "address",
          "name": "agentVault",
          "type": "address"
        },
        {
          "indexed": false,
          "internalType": "int256",
          "name": "freedUnderlyingBalanceUBA",
          "type": "int256"
        },
        {
          "indexed": false,
          "internalType": "uint64",
          "name": "requestId",
          "type": "uint64"
        }
      ],
      "name": "RedemptionFinished",
      "type": "event"
    },
    {
      "anonymous": false,
      "inputs": [
        {
          "indexed": true,
          "internalType": "address",
          "name": "agentVault",
          "type": "address"
        },
        {
          "indexed": true,
          "internalType": "address",
          "name": "redeemer",
          "type": "address"
        },
        {
          "indexed": false,
          "internalType": "bytes32",
          "name": "transactionHash",
          "type": "bytes32"
        },
        {
          "indexed": false,
          "internalType": "uint256",
          "name": "redemptionAmountUBA",
          "type": "uint256"
        },
        {
          "indexed": false,
          "internalType": "uint64",
          "name": "requestId",
          "type": "uint64"
        }
      ],
      "name": "RedemptionPaymentBlocked",
      "type": "event"
    },
    {
      "anonymous": false,
      "inputs": [
        {
          "indexed": true,
          "internalType": "address",
          "name": "agentVault",
          "type": "address"
        },
        {
          "indexed": true,
          "internalType": "address",
          "name": "redeemer",
          "type": "address"
        },
        {
          "indexed": false,
          "internalType": "bytes32",
          "name": "transactionHash",
          "type": "bytes32"
        },
        {
          "indexed": false,
          "internalType": "uint64",
          "name": "requestId",
          "type": "uint64"
        },
        {
          "indexed": false,
          "internalType": "string",
          "name": "failureReason",
          "type": "string"
        }
      ],
      "name": "RedemptionPaymentFailed",
      "type": "event"
    },
    {
      "anonymous": false,
      "inputs": [
        {
          "indexed": true,
          "internalType": "address",
          "name": "agentVault",
          "type": "address"
        },
        {
          "indexed": true,
          "internalType": "address",
          "name": "redeemer",
          "type": "address"
        },
        {
          "indexed": false,
          "internalType": "bytes32",
          "name": "transactionHash",
          "type": "bytes32"
        },
        {
          "indexed": false,
          "internalType": "uint256",
          "name": "valueUBA",
          "type": "uint256"
        },
        {
          "indexed": false,
          "internalType": "uint64",
          "name": "requestId",
          "type": "uint64"
        }
      ],
      "name": "RedemptionPerformed",
      "type": "event"
    },
    {
      "anonymous": false,
      "inputs": [
        {
          "indexed": true,
          "internalType": "address",
          "name": "redeemer",
          "type": "address"
        },
        {
          "indexed": false,
          "internalType": "uint256",
          "name": "remainingLots",
          "type": "uint256"
        }
      ],
      "name": "RedemptionRequestIncomplete",
      "type": "event"
    },
    {
      "anonymous": false,
      "inputs": [
        {
          "indexed": true,
          "internalType": "address",
          "name": "agentVault",
          "type": "address"
        },
        {
          "indexed": false,
          "internalType": "uint256",
          "name": "requestId",
          "type": "uint256"
        },
        {
          "indexed": false,
          "internalType": "string",
          "name": "paymentAddress",
          "type": "string"
        },
        {
          "indexed": false,
          "internalType": "uint256",
          "name": "valueUBA",
          "type": "uint256"
        },
        {
          "indexed": false,
          "internalType": "uint256",
          "name": "feeUBA",
          "type": "uint256"
        },
        {
          "indexed": false,
          "internalType": "uint256",
          "name": "lastUnderlyingBlock",
          "type": "uint256"
        },
        {
          "indexed": false,
          "internalType": "uint256",
          "name": "lastUnderlyingTimestamp",
          "type": "uint256"
        },
        {
          "indexed": false,
          "internalType": "bytes32",
          "name": "paymentReference",
          "type": "bytes32"
        }
      ],
      "name": "RedemptionRequested",
      "type": "event"
    },
    {
      "anonymous": false,
      "inputs": [
        {
          "indexed": true,
          "internalType": "address",
          "name": "agentVault",
          "type": "address"
        },
        {
          "indexed": false,
          "internalType": "uint256",
          "name": "valueUBA",
          "type": "uint256"
        }
      ],
      "name": "SelfClose",
      "type": "event"
    },
    {
      "anonymous": false,
      "inputs": [
        {
          "indexed": false,
          "internalType": "string",
          "name": "name",
          "type": "string"
        },
        {
          "indexed": false,
          "internalType": "uint256[]",
          "name": "value",
          "type": "uint256[]"
        }
      ],
      "name": "SettingArrayChanged",
      "type": "event"
    },
    {
      "anonymous": false,
      "inputs": [
        {
          "indexed": false,
          "internalType": "string",
          "name": "name",
          "type": "string"
        },
        {
          "indexed": false,
          "internalType": "uint256",
          "name": "value",
          "type": "uint256"
        }
      ],
      "name": "SettingChanged",
      "type": "event"
    },
    {
      "anonymous": false,
      "inputs": [
        {
          "indexed": false,
          "internalType": "address",
          "name": "agentVault",
          "type": "address"
        },
        {
          "indexed": false,
          "internalType": "uint256",
          "name": "freeBalanceChangeUBA",
          "type": "uint256"
        }
      ],
      "name": "UnderlyingBalanceToppedUp",
      "type": "event"
    },
    {
      "anonymous": false,
      "inputs": [
        {
          "indexed": true,
          "internalType": "address",
          "name": "agentVault",
          "type": "address"
        },
        {
          "indexed": false,
          "internalType": "int256",
          "name": "freeBalance",
          "type": "int256"
        }
      ],
      "name": "UnderlyingFreeBalanceNegative",
      "type": "event"
    },
    {
      "anonymous": false,
      "inputs": [
        {
          "indexed": false,
          "internalType": "address",
          "name": "agentVault",
          "type": "address"
        },
        {
          "indexed": false,
          "internalType": "uint64",
          "name": "announcementId",
          "type": "uint64"
        },
        {
          "indexed": false,
          "internalType": "bytes32",
          "name": "paymentReference",
          "type": "bytes32"
        }
      ],
      "name": "UnderlyingWithdrawalAnnounced",
      "type": "event"
    },
    {
      "anonymous": false,
      "inputs": [
        {
          "indexed": false,
          "internalType": "address",
          "name": "agentVault",
          "type": "address"
        },
        {
          "indexed": false,
          "internalType": "uint64",
          "name": "announcementId",
          "type": "uint64"
        }
      ],
      "name": "UnderlyingWithdrawalCancelled",
      "type": "event"
    },
    {
      "anonymous": false,
      "inputs": [
        {
          "indexed": false,
          "internalType": "address",
          "name": "agentVault",
          "type": "address"
        },
        {
          "indexed": false,
          "internalType": "int256",
          "name": "spentUBA",
          "type": "int256"
        },
        {
          "indexed": false,
          "internalType": "bytes32",
          "name": "transactionHash",
          "type": "bytes32"
        },
        {
          "indexed": false,
          "internalType": "uint64",
          "name": "announcementId",
          "type": "uint64"
        }
      ],
      "name": "UnderlyingWithdrawalConfirmed",
      "type": "event"
    },
    {
      "inputs": [
        {
          "components": [
            {
              "internalType": "enum IAssetManager.CollateralTokenClass",
              "name": "tokenClass",
              "type": "uint8"
            },
            {
              "internalType": "contract IERC20",
              "name": "token",
              "type": "address"
            },
            {
              "internalType": "uint256",
              "name": "decimals",
              "type": "uint256"
            },
            {
              "internalType": "uint256",
              "name": "validUntil",
              "type": "uint256"
            },
            {
              "internalType": "string",
              "name": "ftsoSymbol",
              "type": "string"
            },
            {
              "internalType": "uint256",
              "name": "minCollateralRatioBIPS",
              "type": "uint256"
            },
            {
              "internalType": "uint256",
              "name": "ccbMinCollateralRatioBIPS",
              "type": "uint256"
            },
            {
              "internalType": "uint256",
              "name": "safetyMinCollateralRatioBIPS",
              "type": "uint256"
            }
          ],
          "internalType": "struct IAssetManager.CollateralTokenInfo",
          "name": "_data",
          "type": "tuple"
        }
      ],
      "name": "addCollateralToken",
      "outputs": [],
      "stateMutability": "nonpayable",
      "type": "function"
    },
    {
      "inputs": [
        {
          "internalType": "address",
          "name": "_agentVault",
          "type": "address"
        },
        {
          "internalType": "uint256",
          "name": "_valueNATWei",
          "type": "uint256"
        }
      ],
      "name": "announceAgentPoolTokenRedemption",
      "outputs": [],
      "stateMutability": "nonpayable",
      "type": "function"
    },
    {
      "inputs": [
        {
          "internalType": "address",
          "name": "_agentVault",
          "type": "address"
        },
        {
          "internalType": "string",
          "name": "_name",
          "type": "string"
        },
        {
          "internalType": "uint256",
          "name": "_value",
          "type": "uint256"
        }
      ],
      "name": "announceAgentSettingUpdate",
      "outputs": [],
      "stateMutability": "nonpayable",
      "type": "function"
    },
    {
      "inputs": [
        {
          "internalType": "address",
          "name": "_agentVault",
          "type": "address"
        },
        {
          "internalType": "uint256",
          "name": "_valueNATWei",
          "type": "uint256"
        }
      ],
      "name": "announceClass1CollateralWithdrawal",
      "outputs": [],
      "stateMutability": "nonpayable",
      "type": "function"
    },
    {
      "inputs": [
        {
          "internalType": "address",
          "name": "_agentVault",
          "type": "address"
        }
      ],
      "name": "announceDestroyAgent",
      "outputs": [],
      "stateMutability": "nonpayable",
      "type": "function"
    },
    {
      "inputs": [
        {
          "internalType": "address",
          "name": "_agentVault",
          "type": "address"
        }
      ],
      "name": "announceExitAvailableAgentList",
      "outputs": [],
      "stateMutability": "nonpayable",
      "type": "function"
    },
    {
      "inputs": [
        {
          "internalType": "address",
          "name": "_agentVault",
          "type": "address"
        }
      ],
      "name": "announceUnderlyingWithdrawal",
      "outputs": [],
      "stateMutability": "nonpayable",
      "type": "function"
    },
    {
      "inputs": [],
      "name": "assetManagerController",
      "outputs": [
        {
          "internalType": "address",
          "name": "",
          "type": "address"
        }
      ],
      "stateMutability": "view",
      "type": "function"
    },
    {
      "inputs": [],
      "name": "assetPriceNatWei",
      "outputs": [
        {
          "internalType": "uint256",
          "name": "_multiplier",
          "type": "uint256"
        },
        {
          "internalType": "uint256",
          "name": "_divisor",
          "type": "uint256"
        }
      ],
      "stateMutability": "view",
      "type": "function"
    },
    {
      "inputs": [
        {
          "internalType": "bool",
          "name": "attached",
          "type": "bool"
        }
      ],
      "name": "attachController",
      "outputs": [],
      "stateMutability": "nonpayable",
      "type": "function"
    },
    {
      "inputs": [
        {
          "internalType": "address",
          "name": "_agentVault",
          "type": "address"
        }
      ],
      "name": "buybackAgentCollateral",
      "outputs": [],
      "stateMutability": "nonpayable",
      "type": "function"
    },
    {
      "inputs": [
        {
          "internalType": "address",
          "name": "_agentVault",
          "type": "address"
        }
      ],
      "name": "cancelUnderlyingWithdrawal",
      "outputs": [],
      "stateMutability": "nonpayable",
      "type": "function"
    },
    {
      "inputs": [
        {
          "internalType": "contract IERC20",
          "name": "_token",
          "type": "address"
        }
      ],
      "name": "collateralDeposited",
      "outputs": [],
      "stateMutability": "nonpayable",
      "type": "function"
    },
    {
      "inputs": [
        {
          "internalType": "uint256",
          "name": "_lots",
          "type": "uint256"
        }
      ],
      "name": "collateralReservationFee",
      "outputs": [
        {
          "internalType": "uint256",
          "name": "_reservationFeeNATWei",
          "type": "uint256"
        }
      ],
      "stateMutability": "view",
      "type": "function"
    },
    {
      "inputs": [
        {
          "components": [
            {
              "internalType": "uint256",
              "name": "stateConnectorRound",
              "type": "uint256"
            },
            {
              "internalType": "bytes32[]",
              "name": "merkleProof",
              "type": "bytes32[]"
            },
            {
              "internalType": "uint64",
              "name": "blockNumber",
              "type": "uint64"
            },
            {
              "internalType": "uint64",
              "name": "blockTimestamp",
              "type": "uint64"
            },
            {
              "internalType": "bytes32",
              "name": "transactionHash",
              "type": "bytes32"
            },
            {
              "internalType": "uint8",
              "name": "inUtxo",
              "type": "uint8"
            },
            {
              "internalType": "uint8",
              "name": "utxo",
              "type": "uint8"
            },
            {
              "internalType": "bytes32",
              "name": "sourceAddressHash",
              "type": "bytes32"
            },
            {
              "internalType": "bytes32",
              "name": "receivingAddressHash",
              "type": "bytes32"
            },
            {
              "internalType": "int256",
              "name": "spentAmount",
              "type": "int256"
            },
            {
              "internalType": "int256",
              "name": "receivedAmount",
              "type": "int256"
            },
            {
              "internalType": "bytes32",
              "name": "paymentReference",
              "type": "bytes32"
            },
            {
              "internalType": "bool",
              "name": "oneToOne",
              "type": "bool"
            },
            {
              "internalType": "uint8",
              "name": "status",
              "type": "uint8"
            }
          ],
          "internalType": "struct IAttestationClient.Payment",
          "name": "_payment",
          "type": "tuple"
        },
        {
          "internalType": "uint256",
          "name": "_redemptionRequestId",
          "type": "uint256"
        }
      ],
      "name": "confirmRedemptionPayment",
      "outputs": [],
      "stateMutability": "nonpayable",
      "type": "function"
    },
    {
      "inputs": [
        {
          "components": [
            {
              "internalType": "uint256",
              "name": "stateConnectorRound",
              "type": "uint256"
            },
            {
              "internalType": "bytes32[]",
              "name": "merkleProof",
              "type": "bytes32[]"
            },
            {
              "internalType": "uint64",
              "name": "blockNumber",
              "type": "uint64"
            },
            {
              "internalType": "uint64",
              "name": "blockTimestamp",
              "type": "uint64"
            },
            {
              "internalType": "bytes32",
              "name": "transactionHash",
              "type": "bytes32"
            },
            {
              "internalType": "uint8",
              "name": "inUtxo",
              "type": "uint8"
            },
            {
              "internalType": "uint8",
              "name": "utxo",
              "type": "uint8"
            },
            {
              "internalType": "bytes32",
              "name": "sourceAddressHash",
              "type": "bytes32"
            },
            {
              "internalType": "bytes32",
              "name": "receivingAddressHash",
              "type": "bytes32"
            },
            {
              "internalType": "int256",
              "name": "spentAmount",
              "type": "int256"
            },
            {
              "internalType": "int256",
              "name": "receivedAmount",
              "type": "int256"
            },
            {
              "internalType": "bytes32",
              "name": "paymentReference",
              "type": "bytes32"
            },
            {
              "internalType": "bool",
              "name": "oneToOne",
              "type": "bool"
            },
            {
              "internalType": "uint8",
              "name": "status",
              "type": "uint8"
            }
          ],
          "internalType": "struct IAttestationClient.Payment",
          "name": "_payment",
          "type": "tuple"
        },
        {
          "internalType": "address",
          "name": "_agentVault",
          "type": "address"
        }
      ],
      "name": "confirmTopupPayment",
      "outputs": [],
      "stateMutability": "nonpayable",
      "type": "function"
    },
    {
      "inputs": [
        {
          "components": [
            {
              "internalType": "uint256",
              "name": "stateConnectorRound",
              "type": "uint256"
            },
            {
              "internalType": "bytes32[]",
              "name": "merkleProof",
              "type": "bytes32[]"
            },
            {
              "internalType": "uint64",
              "name": "blockNumber",
              "type": "uint64"
            },
            {
              "internalType": "uint64",
              "name": "blockTimestamp",
              "type": "uint64"
            },
            {
              "internalType": "bytes32",
              "name": "transactionHash",
              "type": "bytes32"
            },
            {
              "internalType": "uint8",
              "name": "inUtxo",
              "type": "uint8"
            },
            {
              "internalType": "uint8",
              "name": "utxo",
              "type": "uint8"
            },
            {
              "internalType": "bytes32",
              "name": "sourceAddressHash",
              "type": "bytes32"
            },
            {
              "internalType": "bytes32",
              "name": "receivingAddressHash",
              "type": "bytes32"
            },
            {
              "internalType": "int256",
              "name": "spentAmount",
              "type": "int256"
            },
            {
              "internalType": "int256",
              "name": "receivedAmount",
              "type": "int256"
            },
            {
              "internalType": "bytes32",
              "name": "paymentReference",
              "type": "bytes32"
            },
            {
              "internalType": "bool",
              "name": "oneToOne",
              "type": "bool"
            },
            {
              "internalType": "uint8",
              "name": "status",
              "type": "uint8"
            }
          ],
          "internalType": "struct IAttestationClient.Payment",
          "name": "_payment",
          "type": "tuple"
        },
        {
          "internalType": "address",
          "name": "_agentVault",
          "type": "address"
        }
      ],
      "name": "confirmUnderlyingWithdrawal",
      "outputs": [],
      "stateMutability": "nonpayable",
      "type": "function"
    },
    {
      "inputs": [],
      "name": "controllerAttached",
      "outputs": [
        {
          "internalType": "bool",
          "name": "",
          "type": "bool"
        }
      ],
      "stateMutability": "view",
      "type": "function"
    },
    {
      "inputs": [
        {
          "internalType": "address",
          "name": "_agentVault",
          "type": "address"
        }
      ],
      "name": "convertDustToTicket",
      "outputs": [],
      "stateMutability": "nonpayable",
      "type": "function"
    },
    {
      "inputs": [
        {
          "components": [
            {
              "internalType": "string",
              "name": "underlyingAddressString",
              "type": "string"
            },
            {
              "internalType": "contract IERC20",
              "name": "class1CollateralToken",
              "type": "address"
            },
            {
              "internalType": "uint256",
              "name": "feeBIPS",
              "type": "uint256"
            },
            {
              "internalType": "uint256",
              "name": "poolFeeShareBIPS",
              "type": "uint256"
            },
            {
              "internalType": "uint256",
              "name": "mintingClass1CollateralRatioBIPS",
              "type": "uint256"
            },
            {
              "internalType": "uint256",
              "name": "mintingPoolCollateralRatioBIPS",
              "type": "uint256"
            },
            {
              "internalType": "uint256",
              "name": "buyFAssetByAgentFactorBIPS",
              "type": "uint256"
            },
            {
              "internalType": "uint256",
              "name": "poolExitCollateralRatioBIPS",
              "type": "uint256"
            },
            {
              "internalType": "uint256",
              "name": "poolTopupCollateralRatioBIPS",
              "type": "uint256"
            },
            {
              "internalType": "uint256",
              "name": "poolTopupTokenPriceFactorBIPS",
              "type": "uint256"
            }
          ],
          "internalType": "struct IAssetManager.InitialAgentSettings",
          "name": "_settings",
          "type": "tuple"
        }
      ],
      "name": "createAgent",
      "outputs": [],
      "stateMutability": "nonpayable",
      "type": "function"
    },
    {
      "inputs": [],
      "name": "currentUnderlyingBlock",
      "outputs": [
        {
          "internalType": "uint256",
          "name": "_blockNumber",
          "type": "uint256"
        },
        {
          "internalType": "uint256",
          "name": "_blockTimestamp",
          "type": "uint256"
        }
      ],
      "stateMutability": "view",
      "type": "function"
    },
    {
      "inputs": [
        {
          "internalType": "enum IAssetManager.CollateralTokenClass",
          "name": "_tokenClass",
          "type": "uint8"
        },
        {
          "internalType": "contract IERC20",
          "name": "_token",
          "type": "address"
        },
        {
          "internalType": "uint256",
          "name": "_invalidationTimeSec",
          "type": "uint256"
        }
      ],
      "name": "deprecateCollateralToken",
      "outputs": [],
      "stateMutability": "nonpayable",
      "type": "function"
    },
    {
      "inputs": [
        {
          "internalType": "address",
          "name": "_agentVault",
          "type": "address"
        },
        {
          "internalType": "address payable",
          "name": "_recipient",
          "type": "address"
        }
      ],
      "name": "destroyAgent",
      "outputs": [],
      "stateMutability": "nonpayable",
      "type": "function"
    },
    {
      "inputs": [
        {
          "components": [
            {
              "internalType": "uint256",
              "name": "stateConnectorRound",
              "type": "uint256"
            },
            {
              "internalType": "bytes32[]",
              "name": "merkleProof",
              "type": "bytes32[]"
            },
            {
              "internalType": "uint64",
              "name": "blockNumber",
              "type": "uint64"
            },
            {
              "internalType": "uint64",
              "name": "blockTimestamp",
              "type": "uint64"
            },
            {
              "internalType": "bytes32",
              "name": "transactionHash",
              "type": "bytes32"
            },
            {
              "internalType": "uint8",
              "name": "inUtxo",
              "type": "uint8"
            },
            {
              "internalType": "bytes32",
              "name": "sourceAddressHash",
              "type": "bytes32"
            },
            {
              "internalType": "int256",
              "name": "spentAmount",
              "type": "int256"
            },
            {
              "internalType": "bytes32",
              "name": "paymentReference",
              "type": "bytes32"
            }
          ],
          "internalType": "struct IAttestationClient.BalanceDecreasingTransaction",
          "name": "_payment1",
          "type": "tuple"
        },
        {
          "components": [
            {
              "internalType": "uint256",
              "name": "stateConnectorRound",
              "type": "uint256"
            },
            {
              "internalType": "bytes32[]",
              "name": "merkleProof",
              "type": "bytes32[]"
            },
            {
              "internalType": "uint64",
              "name": "blockNumber",
              "type": "uint64"
            },
            {
              "internalType": "uint64",
              "name": "blockTimestamp",
              "type": "uint64"
            },
            {
              "internalType": "bytes32",
              "name": "transactionHash",
              "type": "bytes32"
            },
            {
              "internalType": "uint8",
              "name": "inUtxo",
              "type": "uint8"
            },
            {
              "internalType": "bytes32",
              "name": "sourceAddressHash",
              "type": "bytes32"
            },
            {
              "internalType": "int256",
              "name": "spentAmount",
              "type": "int256"
            },
            {
              "internalType": "bytes32",
              "name": "paymentReference",
              "type": "bytes32"
            }
          ],
          "internalType": "struct IAttestationClient.BalanceDecreasingTransaction",
          "name": "_payment2",
          "type": "tuple"
        },
        {
          "internalType": "address",
          "name": "_agentVault",
          "type": "address"
        }
      ],
      "name": "doublePaymentChallenge",
      "outputs": [],
      "stateMutability": "nonpayable",
      "type": "function"
    },
    {
      "inputs": [
        {
          "internalType": "address",
          "name": "_agentVault",
          "type": "address"
        }
      ],
      "name": "endLiquidation",
      "outputs": [],
      "stateMutability": "nonpayable",
      "type": "function"
    },
    {
      "inputs": [
        {
          "internalType": "address",
          "name": "_agentVault",
          "type": "address"
        },
        {
          "internalType": "string",
          "name": "_name",
          "type": "string"
        }
      ],
      "name": "executeAgentSettingUpdate",
      "outputs": [],
      "stateMutability": "nonpayable",
      "type": "function"
    },
    {
      "inputs": [
        {
          "components": [
            {
              "internalType": "uint256",
              "name": "stateConnectorRound",
              "type": "uint256"
            },
            {
              "internalType": "bytes32[]",
              "name": "merkleProof",
              "type": "bytes32[]"
            },
            {
              "internalType": "uint64",
              "name": "blockNumber",
              "type": "uint64"
            },
            {
              "internalType": "uint64",
              "name": "blockTimestamp",
              "type": "uint64"
            },
            {
              "internalType": "bytes32",
              "name": "transactionHash",
              "type": "bytes32"
            },
            {
              "internalType": "uint8",
              "name": "inUtxo",
              "type": "uint8"
            },
            {
              "internalType": "uint8",
              "name": "utxo",
              "type": "uint8"
            },
            {
              "internalType": "bytes32",
              "name": "sourceAddressHash",
              "type": "bytes32"
            },
            {
              "internalType": "bytes32",
              "name": "receivingAddressHash",
              "type": "bytes32"
            },
            {
              "internalType": "int256",
              "name": "spentAmount",
              "type": "int256"
            },
            {
              "internalType": "int256",
              "name": "receivedAmount",
              "type": "int256"
            },
            {
              "internalType": "bytes32",
              "name": "paymentReference",
              "type": "bytes32"
            },
            {
              "internalType": "bool",
              "name": "oneToOne",
              "type": "bool"
            },
            {
              "internalType": "uint8",
              "name": "status",
              "type": "uint8"
            }
          ],
          "internalType": "struct IAttestationClient.Payment",
          "name": "_payment",
          "type": "tuple"
        },
        {
          "internalType": "uint256",
          "name": "_collateralReservationId",
          "type": "uint256"
        }
      ],
      "name": "executeMinting",
      "outputs": [],
      "stateMutability": "nonpayable",
      "type": "function"
    },
    {
      "inputs": [
        {
          "internalType": "address",
          "name": "_agentVault",
          "type": "address"
        }
      ],
      "name": "exitAvailableAgentList",
      "outputs": [],
      "stateMutability": "nonpayable",
      "type": "function"
    },
    {
      "inputs": [],
      "name": "fAsset",
      "outputs": [
        {
          "internalType": "contract IERC20",
          "name": "",
          "type": "address"
        }
      ],
      "stateMutability": "view",
      "type": "function"
    },
    {
      "inputs": [
        {
          "components": [
            {
              "internalType": "uint256",
              "name": "stateConnectorRound",
              "type": "uint256"
            },
            {
              "internalType": "bytes32[]",
              "name": "merkleProof",
              "type": "bytes32[]"
            },
            {
              "internalType": "uint64",
              "name": "blockNumber",
              "type": "uint64"
            },
            {
              "internalType": "uint64",
              "name": "blockTimestamp",
              "type": "uint64"
            },
            {
              "internalType": "uint8",
              "name": "numberOfConfirmations",
              "type": "uint8"
            },
            {
              "internalType": "uint64",
              "name": "averageBlockProductionTimeMs",
              "type": "uint64"
            },
            {
              "internalType": "uint64",
              "name": "lowestQueryWindowBlockNumber",
              "type": "uint64"
            },
            {
              "internalType": "uint64",
              "name": "lowestQueryWindowBlockTimestamp",
              "type": "uint64"
            }
          ],
          "internalType": "struct IAttestationClient.ConfirmedBlockHeightExists",
          "name": "_proof",
          "type": "tuple"
        },
        {
          "internalType": "uint256",
          "name": "_redemptionRequestId",
          "type": "uint256"
        }
      ],
      "name": "finishRedemptionWithoutPayment",
      "outputs": [],
      "stateMutability": "nonpayable",
      "type": "function"
    },
    {
      "inputs": [
        {
          "components": [
            {
              "internalType": "uint256",
              "name": "stateConnectorRound",
              "type": "uint256"
            },
            {
              "internalType": "bytes32[]",
              "name": "merkleProof",
              "type": "bytes32[]"
            },
            {
              "internalType": "uint64",
              "name": "blockNumber",
              "type": "uint64"
            },
            {
              "internalType": "uint64",
              "name": "blockTimestamp",
              "type": "uint64"
            },
            {
              "internalType": "bytes32",
              "name": "transactionHash",
              "type": "bytes32"
            },
            {
              "internalType": "uint8",
              "name": "inUtxo",
              "type": "uint8"
            },
            {
              "internalType": "bytes32",
              "name": "sourceAddressHash",
              "type": "bytes32"
            },
            {
              "internalType": "int256",
              "name": "spentAmount",
              "type": "int256"
            },
            {
              "internalType": "bytes32",
              "name": "paymentReference",
              "type": "bytes32"
            }
          ],
          "internalType": "struct IAttestationClient.BalanceDecreasingTransaction[]",
          "name": "_payments",
          "type": "tuple[]"
        },
        {
          "internalType": "address",
          "name": "_agentVault",
          "type": "address"
        }
      ],
      "name": "freeBalanceNegativeChallenge",
      "outputs": [],
      "stateMutability": "nonpayable",
      "type": "function"
    },
    {
      "inputs": [
        {
          "internalType": "address",
          "name": "_agentVault",
          "type": "address"
        }
      ],
      "name": "getAgentInfo",
      "outputs": [
        {
          "components": [
            {
              "internalType": "enum FullAgentInfo.AgentStatusInfo",
              "name": "status",
              "type": "uint8"
            },
            {
              "internalType": "address",
              "name": "ownerColdAddressAddress",
              "type": "address"
            },
            {
              "internalType": "address",
              "name": "ownerHotAddressAddress",
              "type": "address"
            },
            {
              "internalType": "address",
              "name": "collateralPool",
              "type": "address"
            },
            {
              "internalType": "string",
              "name": "underlyingAddressString",
              "type": "string"
            },
            {
              "internalType": "bool",
              "name": "publiclyAvailable",
              "type": "bool"
            },
            {
              "internalType": "uint256",
              "name": "feeBIPS",
              "type": "uint256"
            },
            {
              "internalType": "uint256",
              "name": "poolFeeShareBIPS",
              "type": "uint256"
            },
            {
              "internalType": "contract IERC20",
              "name": "class1CollateralToken",
              "type": "address"
            },
            {
              "internalType": "uint256",
              "name": "mintingClass1CollateralRatioBIPS",
              "type": "uint256"
            },
            {
              "internalType": "uint256",
              "name": "mintingPoolCollateralRatioBIPS",
              "type": "uint256"
            },
            {
              "internalType": "uint256",
              "name": "freeCollateralLots",
              "type": "uint256"
            },
            {
              "internalType": "uint256",
              "name": "totalClass1CollateralWei",
              "type": "uint256"
            },
            {
              "internalType": "uint256",
              "name": "freeClass1CollateralWei",
              "type": "uint256"
            },
            {
              "internalType": "uint256",
              "name": "class1CollateralRatioBIPS",
              "type": "uint256"
            },
            {
              "internalType": "uint256",
              "name": "totalPoolCollateralNATWei",
              "type": "uint256"
            },
            {
              "internalType": "uint256",
              "name": "freePoolCollateralNATWei",
              "type": "uint256"
            },
            {
              "internalType": "uint256",
              "name": "poolCollateralRatioBIPS",
              "type": "uint256"
            },
            {
              "internalType": "uint256",
              "name": "totalAgentPoolTokensWei",
              "type": "uint256"
            },
            {
              "internalType": "uint256",
              "name": "freeAgentPoolTokensWei",
              "type": "uint256"
            },
            {
              "internalType": "uint256",
              "name": "mintedUBA",
              "type": "uint256"
            },
            {
              "internalType": "uint256",
              "name": "reservedUBA",
              "type": "uint256"
            },
            {
              "internalType": "uint256",
              "name": "redeemingUBA",
              "type": "uint256"
            },
            {
              "internalType": "uint256",
              "name": "poolRedeemingUBA",
              "type": "uint256"
            },
            {
              "internalType": "uint256",
              "name": "dustUBA",
              "type": "uint256"
            },
            {
              "internalType": "uint256",
              "name": "ccbStartTimestamp",
              "type": "uint256"
            },
            {
              "internalType": "uint256",
              "name": "liquidationStartTimestamp",
              "type": "uint256"
            },
            {
              "internalType": "int256",
              "name": "freeUnderlyingBalanceUBA",
              "type": "int256"
            },
            {
              "internalType": "uint256",
              "name": "announcedUnderlyingWithdrawalId",
              "type": "uint256"
            },
            {
              "internalType": "uint256",
              "name": "buyFAssetByAgentFactorBIPS",
              "type": "uint256"
            },
            {
              "internalType": "uint256",
              "name": "poolExitCollateralRatioBIPS",
              "type": "uint256"
            },
            {
              "internalType": "uint256",
              "name": "poolTopupCollateralRatioBIPS",
              "type": "uint256"
            },
            {
              "internalType": "uint256",
              "name": "poolTopupTokenPriceFactorBIPS",
              "type": "uint256"
            }
          ],
          "internalType": "struct FullAgentInfo.AgentInfo",
          "name": "",
          "type": "tuple"
        }
      ],
      "stateMutability": "view",
      "type": "function"
    },
    {
      "inputs": [
        {
          "internalType": "address",
          "name": "_agentVault",
          "type": "address"
        }
      ],
      "name": "getAgentVaultOwner",
      "outputs": [
        {
          "internalType": "address",
          "name": "_ownerColdAddress",
          "type": "address"
        },
        {
          "internalType": "address",
          "name": "_ownerHotAddress",
          "type": "address"
        }
      ],
      "stateMutability": "view",
      "type": "function"
    },
    {
      "inputs": [
        {
          "internalType": "uint256",
          "name": "_start",
          "type": "uint256"
        },
        {
          "internalType": "uint256",
          "name": "_end",
          "type": "uint256"
        }
      ],
      "name": "getAvailableAgentsDetailedList",
      "outputs": [
        {
          "components": [
            {
              "internalType": "address",
              "name": "agentVault",
              "type": "address"
            },
            {
              "internalType": "uint256",
              "name": "feeBIPS",
              "type": "uint256"
            },
            {
              "internalType": "uint256",
              "name": "mintingClass1CollateralRatioBIPS",
              "type": "uint256"
            },
            {
              "internalType": "uint256",
              "name": "mintingPoolCollateralRatioBIPS",
              "type": "uint256"
            },
            {
              "internalType": "uint256",
              "name": "freeCollateralLots",
              "type": "uint256"
            }
          ],
          "internalType": "struct AvailableAgents.AgentInfo[]",
          "name": "_agents",
          "type": "tuple[]"
        },
        {
          "internalType": "uint256",
          "name": "_totalLength",
          "type": "uint256"
        }
      ],
      "stateMutability": "view",
      "type": "function"
    },
    {
      "inputs": [
        {
          "internalType": "uint256",
          "name": "_start",
          "type": "uint256"
        },
        {
          "internalType": "uint256",
          "name": "_end",
          "type": "uint256"
        }
      ],
      "name": "getAvailableAgentsList",
      "outputs": [
        {
          "internalType": "address[]",
          "name": "_agents",
          "type": "address[]"
        },
        {
          "internalType": "uint256",
          "name": "_totalLength",
          "type": "uint256"
        }
      ],
      "stateMutability": "view",
      "type": "function"
    },
    {
      "inputs": [
        {
          "internalType": "address",
          "name": "_agentVault",
          "type": "address"
        }
      ],
      "name": "getCollateralPool",
      "outputs": [
        {
          "internalType": "address",
          "name": "",
          "type": "address"
        }
      ],
      "stateMutability": "view",
      "type": "function"
    },
    {
      "inputs": [
        {
          "internalType": "enum IAssetManager.CollateralTokenClass",
          "name": "_tokenClass",
          "type": "uint8"
        },
        {
          "internalType": "contract IERC20",
          "name": "_token",
          "type": "address"
        }
      ],
      "name": "getCollateralToken",
      "outputs": [
        {
          "components": [
            {
              "internalType": "enum IAssetManager.CollateralTokenClass",
              "name": "tokenClass",
              "type": "uint8"
            },
            {
              "internalType": "contract IERC20",
              "name": "token",
              "type": "address"
            },
            {
              "internalType": "uint256",
              "name": "decimals",
              "type": "uint256"
            },
            {
              "internalType": "uint256",
              "name": "validUntil",
              "type": "uint256"
            },
            {
              "internalType": "string",
              "name": "ftsoSymbol",
              "type": "string"
            },
            {
              "internalType": "uint256",
              "name": "minCollateralRatioBIPS",
              "type": "uint256"
            },
            {
              "internalType": "uint256",
              "name": "ccbMinCollateralRatioBIPS",
              "type": "uint256"
            },
            {
              "internalType": "uint256",
              "name": "safetyMinCollateralRatioBIPS",
              "type": "uint256"
            }
          ],
          "internalType": "struct IAssetManager.CollateralTokenInfo",
          "name": "",
          "type": "tuple"
        }
      ],
      "stateMutability": "view",
      "type": "function"
    },
    {
      "inputs": [],
      "name": "getCollateralTokens",
      "outputs": [
        {
          "components": [
            {
              "internalType": "enum IAssetManager.CollateralTokenClass",
              "name": "tokenClass",
              "type": "uint8"
            },
            {
              "internalType": "contract IERC20",
              "name": "token",
              "type": "address"
            },
            {
              "internalType": "uint256",
              "name": "decimals",
              "type": "uint256"
            },
            {
              "internalType": "uint256",
              "name": "validUntil",
              "type": "uint256"
            },
            {
              "internalType": "string",
              "name": "ftsoSymbol",
              "type": "string"
            },
            {
              "internalType": "uint256",
              "name": "minCollateralRatioBIPS",
              "type": "uint256"
            },
            {
              "internalType": "uint256",
              "name": "ccbMinCollateralRatioBIPS",
              "type": "uint256"
            },
            {
              "internalType": "uint256",
              "name": "safetyMinCollateralRatioBIPS",
              "type": "uint256"
            }
          ],
          "internalType": "struct IAssetManager.CollateralTokenInfo[]",
          "name": "",
          "type": "tuple[]"
        }
      ],
      "stateMutability": "view",
      "type": "function"
    },
    {
      "inputs": [
        {
          "internalType": "address",
          "name": "_agentVault",
          "type": "address"
        }
      ],
      "name": "getFAssetsBackedByPool",
      "outputs": [
        {
          "internalType": "uint256",
          "name": "",
          "type": "uint256"
        }
      ],
      "stateMutability": "view",
      "type": "function"
    },
    {
      "inputs": [],
      "name": "getLotSize",
      "outputs": [
        {
          "internalType": "uint256",
          "name": "_lotSizeUBA",
          "type": "uint256"
        }
      ],
      "stateMutability": "view",
      "type": "function"
    },
    {
      "inputs": [],
      "name": "getSettings",
      "outputs": [
        {
          "components": [
            {
              "internalType": "address",
              "name": "assetManagerController",
              "type": "address"
            },
            {
              "internalType": "contract IFAsset",
              "name": "fAsset",
              "type": "address"
            },
            {
              "internalType": "contract IAgentVaultFactory",
              "name": "agentVaultFactory",
              "type": "address"
            },
            {
              "internalType": "contract ICollateralPoolFactory",
              "name": "collateralPoolFactory",
              "type": "address"
            },
            {
              "internalType": "contract IWhitelist",
              "name": "whitelist",
              "type": "address"
            },
            {
              "internalType": "contract IWhitelist",
              "name": "agentWhitelist",
              "type": "address"
            },
            {
              "internalType": "contract IAttestationClient",
              "name": "attestationClient",
              "type": "address"
            },
            {
              "internalType": "contract IAddressValidator",
              "name": "underlyingAddressValidator",
              "type": "address"
            },
            {
              "internalType": "address",
              "name": "liquidationStrategy",
              "type": "address"
            },
            {
              "internalType": "contract IFtsoRegistry",
              "name": "ftsoRegistry",
              "type": "address"
            },
            {
              "internalType": "uint32",
              "name": "assetFtsoIndex",
              "type": "uint32"
            },
            {
              "internalType": "uint8",
              "name": "assetDecimals",
              "type": "uint8"
            },
            {
              "internalType": "uint8",
              "name": "assetMintingDecimals",
              "type": "uint8"
            },
            {
              "internalType": "uint32",
              "name": "mintingPoolHoldingsRequiredBIPS",
              "type": "uint32"
            },
            {
              "internalType": "string",
              "name": "assetFtsoSymbol",
              "type": "string"
            },
            {
              "internalType": "address payable",
              "name": "burnAddress",
              "type": "address"
            },
            {
              "internalType": "bool",
              "name": "burnWithSelfDestruct",
              "type": "bool"
            },
            {
              "internalType": "uint32",
              "name": "chainId",
              "type": "uint32"
            },
            {
              "internalType": "uint16",
              "name": "collateralReservationFeeBIPS",
              "type": "uint16"
            },
            {
              "internalType": "uint64",
              "name": "assetUnitUBA",
              "type": "uint64"
            },
            {
              "internalType": "uint64",
              "name": "assetMintingGranularityUBA",
              "type": "uint64"
            },
            {
              "internalType": "uint64",
              "name": "lotSizeAMG",
              "type": "uint64"
            },
            {
              "internalType": "uint64",
              "name": "mintingCapAMG",
              "type": "uint64"
            },
            {
              "internalType": "uint64",
              "name": "maxTrustedPriceAgeSeconds",
              "type": "uint64"
            },
            {
              "internalType": "bool",
              "name": "requireEOAAddressProof",
              "type": "bool"
            },
            {
              "internalType": "uint64",
              "name": "underlyingBlocksForPayment",
              "type": "uint64"
            },
            {
              "internalType": "uint64",
              "name": "underlyingSecondsForPayment",
              "type": "uint64"
            },
            {
              "internalType": "uint16",
              "name": "redemptionFeeBIPS",
              "type": "uint16"
            },
            {
              "internalType": "uint32",
              "name": "redemptionDefaultFactorAgentC1BIPS",
              "type": "uint32"
            },
            {
              "internalType": "uint32",
              "name": "redemptionDefaultFactorPoolBIPS",
              "type": "uint32"
            },
            {
              "internalType": "uint64",
              "name": "confirmationByOthersAfterSeconds",
              "type": "uint64"
            },
            {
              "internalType": "uint128",
              "name": "confirmationByOthersRewardUSD5",
              "type": "uint128"
            },
            {
              "internalType": "uint16",
              "name": "maxRedeemedTickets",
              "type": "uint16"
            },
            {
              "internalType": "uint16",
              "name": "paymentChallengeRewardBIPS",
              "type": "uint16"
            },
            {
              "internalType": "uint128",
              "name": "paymentChallengeRewardUSD5",
              "type": "uint128"
            },
            {
              "internalType": "uint64",
              "name": "withdrawalWaitMinSeconds",
              "type": "uint64"
            },
            {
              "internalType": "uint64",
              "name": "ccbTimeSeconds",
              "type": "uint64"
            },
            {
              "internalType": "uint64",
              "name": "attestationWindowSeconds",
              "type": "uint64"
            },
            {
              "internalType": "uint64",
              "name": "minUpdateRepeatTimeSeconds",
              "type": "uint64"
            },
            {
              "internalType": "uint64",
              "name": "buybackCollateralFactorBIPS",
              "type": "uint64"
            },
            {
              "internalType": "uint64",
              "name": "announcedUnderlyingConfirmationMinSeconds",
              "type": "uint64"
            },
            {
              "internalType": "uint64",
              "name": "tokenInvalidationTimeMinSeconds",
              "type": "uint64"
            },
            {
              "internalType": "uint32",
              "name": "class1BuyForFlareFactorBIPS",
              "type": "uint32"
            },
            {
              "internalType": "uint64",
              "name": "agentExitAvailableTimelockSeconds",
              "type": "uint64"
            },
            {
              "internalType": "uint64",
              "name": "agentFeeChangeTimelockSeconds",
              "type": "uint64"
            },
            {
              "internalType": "uint64",
              "name": "agentCollateralRatioChangeTimelockSeconds",
              "type": "uint64"
            }
          ],
          "internalType": "struct AssetManagerSettings.Data",
          "name": "",
          "type": "tuple"
        }
      ],
      "stateMutability": "view",
      "type": "function"
    },
    {
      "inputs": [],
      "name": "getWNat",
      "outputs": [
        {
          "internalType": "contract IWNat",
          "name": "",
          "type": "address"
        }
      ],
      "stateMutability": "view",
      "type": "function"
    },
    {
      "inputs": [
        {
          "components": [
            {
              "internalType": "uint256",
              "name": "stateConnectorRound",
              "type": "uint256"
            },
            {
              "internalType": "bytes32[]",
              "name": "merkleProof",
              "type": "bytes32[]"
            },
            {
              "internalType": "uint64",
              "name": "blockNumber",
              "type": "uint64"
            },
            {
              "internalType": "uint64",
              "name": "blockTimestamp",
              "type": "uint64"
            },
            {
              "internalType": "bytes32",
              "name": "transactionHash",
              "type": "bytes32"
            },
            {
              "internalType": "uint8",
              "name": "inUtxo",
              "type": "uint8"
            },
            {
              "internalType": "bytes32",
              "name": "sourceAddressHash",
              "type": "bytes32"
            },
            {
              "internalType": "int256",
              "name": "spentAmount",
              "type": "int256"
            },
            {
              "internalType": "bytes32",
              "name": "paymentReference",
              "type": "bytes32"
            }
          ],
          "internalType": "struct IAttestationClient.BalanceDecreasingTransaction",
          "name": "_transaction",
          "type": "tuple"
        },
        {
          "internalType": "address",
          "name": "_agentVault",
          "type": "address"
        }
      ],
      "name": "illegalPaymentChallenge",
      "outputs": [],
      "stateMutability": "nonpayable",
      "type": "function"
    },
    {
      "inputs": [
        {
          "internalType": "address",
          "name": "_agentVault",
          "type": "address"
        },
        {
          "internalType": "address",
          "name": "_address",
          "type": "address"
        }
      ],
      "name": "isAgentVaultOwner",
      "outputs": [
        {
          "internalType": "bool",
          "name": "",
          "type": "bool"
        }
      ],
      "stateMutability": "view",
      "type": "function"
    },
    {
      "inputs": [
        {
          "internalType": "address",
          "name": "_agentVault",
          "type": "address"
        },
        {
          "internalType": "contract IERC20",
          "name": "_token",
          "type": "address"
        }
      ],
      "name": "isCollateralToken",
      "outputs": [
        {
          "internalType": "bool",
          "name": "",
          "type": "bool"
        }
      ],
      "stateMutability": "view",
      "type": "function"
    },
    {
      "inputs": [
        {
          "internalType": "address",
          "name": "_agentVault",
          "type": "address"
        },
        {
          "internalType": "uint256",
          "name": "_amountUBA",
          "type": "uint256"
        }
      ],
      "name": "liquidate",
      "outputs": [
        {
          "internalType": "uint256",
          "name": "_liquidatedAmountUBA",
          "type": "uint256"
        },
        {
          "internalType": "uint256",
          "name": "_amountPaidClass1",
          "type": "uint256"
        },
        {
          "internalType": "uint256",
          "name": "_amountPaidPool",
          "type": "uint256"
        }
      ],
      "stateMutability": "nonpayable",
      "type": "function"
    },
    {
      "inputs": [
        {
          "internalType": "address",
          "name": "_agentVault",
          "type": "address"
        }
      ],
      "name": "makeAgentAvailable",
      "outputs": [],
      "stateMutability": "nonpayable",
      "type": "function"
    },
    {
      "inputs": [
        {
          "components": [
            {
              "internalType": "uint256",
              "name": "stateConnectorRound",
              "type": "uint256"
            },
            {
              "internalType": "bytes32[]",
              "name": "merkleProof",
              "type": "bytes32[]"
            },
            {
              "internalType": "uint64",
              "name": "deadlineBlockNumber",
              "type": "uint64"
            },
            {
              "internalType": "uint64",
              "name": "deadlineTimestamp",
              "type": "uint64"
            },
            {
              "internalType": "bytes32",
              "name": "destinationAddressHash",
              "type": "bytes32"
            },
            {
              "internalType": "bytes32",
              "name": "paymentReference",
              "type": "bytes32"
            },
            {
              "internalType": "uint128",
              "name": "amount",
              "type": "uint128"
            },
            {
              "internalType": "uint64",
              "name": "lowerBoundaryBlockNumber",
              "type": "uint64"
            },
            {
              "internalType": "uint64",
              "name": "lowerBoundaryBlockTimestamp",
              "type": "uint64"
            },
            {
              "internalType": "uint64",
              "name": "firstOverflowBlockNumber",
              "type": "uint64"
            },
            {
              "internalType": "uint64",
              "name": "firstOverflowBlockTimestamp",
              "type": "uint64"
            }
          ],
          "internalType": "struct IAttestationClient.ReferencedPaymentNonexistence",
          "name": "_proof",
          "type": "tuple"
        },
        {
          "internalType": "uint256",
          "name": "_collateralReservationId",
          "type": "uint256"
        }
      ],
      "name": "mintingPaymentDefault",
      "outputs": [],
      "stateMutability": "nonpayable",
      "type": "function"
    },
    {
      "inputs": [],
      "name": "pause",
      "outputs": [],
      "stateMutability": "nonpayable",
      "type": "function"
    },
    {
      "inputs": [],
      "name": "paused",
      "outputs": [
        {
          "internalType": "bool",
          "name": "",
          "type": "bool"
        }
      ],
      "stateMutability": "view",
      "type": "function"
    },
    {
      "inputs": [
        {
          "components": [
            {
              "internalType": "uint256",
              "name": "stateConnectorRound",
              "type": "uint256"
            },
            {
              "internalType": "bytes32[]",
              "name": "merkleProof",
              "type": "bytes32[]"
            },
            {
              "internalType": "uint64",
              "name": "blockNumber",
              "type": "uint64"
            },
            {
              "internalType": "uint64",
              "name": "blockTimestamp",
              "type": "uint64"
            },
            {
              "internalType": "bytes32",
              "name": "transactionHash",
              "type": "bytes32"
            },
            {
              "internalType": "uint8",
              "name": "inUtxo",
              "type": "uint8"
            },
            {
              "internalType": "uint8",
              "name": "utxo",
              "type": "uint8"
            },
            {
              "internalType": "bytes32",
              "name": "sourceAddressHash",
              "type": "bytes32"
            },
            {
              "internalType": "bytes32",
              "name": "receivingAddressHash",
              "type": "bytes32"
            },
            {
              "internalType": "int256",
              "name": "spentAmount",
              "type": "int256"
            },
            {
              "internalType": "int256",
              "name": "receivedAmount",
              "type": "int256"
            },
            {
              "internalType": "bytes32",
              "name": "paymentReference",
              "type": "bytes32"
            },
            {
              "internalType": "bool",
              "name": "oneToOne",
              "type": "bool"
            },
            {
              "internalType": "uint8",
              "name": "status",
              "type": "uint8"
            }
          ],
          "internalType": "struct IAttestationClient.Payment",
          "name": "_payment",
          "type": "tuple"
        }
      ],
      "name": "proveUnderlyingAddressEOA",
      "outputs": [],
      "stateMutability": "nonpayable",
      "type": "function"
    },
    {
      "inputs": [
        {
          "internalType": "uint256",
          "name": "_lots",
          "type": "uint256"
        },
        {
          "internalType": "string",
          "name": "_redeemerUnderlyingAddressString",
          "type": "string"
        }
      ],
      "name": "redeem",
      "outputs": [],
      "stateMutability": "nonpayable",
      "type": "function"
    },
    {
      "inputs": [
        {
          "internalType": "address",
          "name": "_agentVault",
          "type": "address"
        },
        {
          "internalType": "address",
          "name": "_receiver",
          "type": "address"
        },
        {
          "internalType": "uint256",
          "name": "_amountUBA",
          "type": "uint256"
        },
        {
          "internalType": "string",
          "name": "_receiverUnderlyingAddress",
          "type": "string"
        }
      ],
      "name": "redeemFromAgent",
      "outputs": [],
      "stateMutability": "nonpayable",
      "type": "function"
    },
    {
      "inputs": [
        {
          "internalType": "address",
          "name": "_agentVault",
          "type": "address"
        },
        {
          "internalType": "address",
          "name": "_receiver",
          "type": "address"
        },
        {
          "internalType": "uint256",
          "name": "_amountUBA",
          "type": "uint256"
        }
      ],
      "name": "redeemFromAgentInCollateral",
      "outputs": [],
      "stateMutability": "nonpayable",
      "type": "function"
    },
    {
      "inputs": [
        {
          "components": [
            {
              "internalType": "uint256",
              "name": "stateConnectorRound",
              "type": "uint256"
            },
            {
              "internalType": "bytes32[]",
              "name": "merkleProof",
              "type": "bytes32[]"
            },
            {
              "internalType": "uint64",
              "name": "deadlineBlockNumber",
              "type": "uint64"
            },
            {
              "internalType": "uint64",
              "name": "deadlineTimestamp",
              "type": "uint64"
            },
            {
              "internalType": "bytes32",
              "name": "destinationAddressHash",
              "type": "bytes32"
            },
            {
              "internalType": "bytes32",
              "name": "paymentReference",
              "type": "bytes32"
            },
            {
              "internalType": "uint128",
              "name": "amount",
              "type": "uint128"
            },
            {
              "internalType": "uint64",
              "name": "lowerBoundaryBlockNumber",
              "type": "uint64"
            },
            {
              "internalType": "uint64",
              "name": "lowerBoundaryBlockTimestamp",
              "type": "uint64"
            },
            {
              "internalType": "uint64",
              "name": "firstOverflowBlockNumber",
              "type": "uint64"
            },
            {
              "internalType": "uint64",
              "name": "firstOverflowBlockTimestamp",
              "type": "uint64"
            }
          ],
          "internalType": "struct IAttestationClient.ReferencedPaymentNonexistence",
          "name": "_proof",
          "type": "tuple"
        },
        {
          "internalType": "uint256",
          "name": "_redemptionRequestId",
          "type": "uint256"
        }
      ],
      "name": "redemptionPaymentDefault",
      "outputs": [],
      "stateMutability": "nonpayable",
      "type": "function"
    },
    {
      "inputs": [
        {
          "internalType": "address",
          "name": "_agentVault",
          "type": "address"
        },
        {
          "internalType": "uint256",
          "name": "_lots",
          "type": "uint256"
        },
        {
          "internalType": "uint256",
          "name": "_maxMintingFeeBIPS",
          "type": "uint256"
        }
      ],
      "name": "reserveCollateral",
      "outputs": [],
      "stateMutability": "payable",
      "type": "function"
    },
    {
      "inputs": [
        {
          "internalType": "address",
          "name": "_agentVault",
          "type": "address"
        },
        {
          "internalType": "uint256",
          "name": "_amountUBA",
          "type": "uint256"
        }
      ],
      "name": "selfClose",
      "outputs": [],
      "stateMutability": "nonpayable",
      "type": "function"
    },
    {
      "inputs": [
        {
          "components": [
            {
              "internalType": "uint256",
              "name": "stateConnectorRound",
              "type": "uint256"
            },
            {
              "internalType": "bytes32[]",
              "name": "merkleProof",
              "type": "bytes32[]"
            },
            {
              "internalType": "uint64",
              "name": "blockNumber",
              "type": "uint64"
            },
            {
              "internalType": "uint64",
              "name": "blockTimestamp",
              "type": "uint64"
            },
            {
              "internalType": "bytes32",
              "name": "transactionHash",
              "type": "bytes32"
            },
            {
              "internalType": "uint8",
              "name": "inUtxo",
              "type": "uint8"
            },
            {
              "internalType": "uint8",
              "name": "utxo",
              "type": "uint8"
            },
            {
              "internalType": "bytes32",
              "name": "sourceAddressHash",
              "type": "bytes32"
            },
            {
              "internalType": "bytes32",
              "name": "receivingAddressHash",
              "type": "bytes32"
            },
            {
              "internalType": "int256",
              "name": "spentAmount",
              "type": "int256"
            },
            {
              "internalType": "int256",
              "name": "receivedAmount",
              "type": "int256"
            },
            {
              "internalType": "bytes32",
              "name": "paymentReference",
              "type": "bytes32"
            },
            {
              "internalType": "bool",
              "name": "oneToOne",
              "type": "bool"
            },
            {
              "internalType": "uint8",
              "name": "status",
              "type": "uint8"
            }
          ],
          "internalType": "struct IAttestationClient.Payment",
          "name": "_payment",
          "type": "tuple"
        },
        {
          "internalType": "address",
          "name": "_agentVault",
          "type": "address"
        },
        {
          "internalType": "uint256",
          "name": "_lots",
          "type": "uint256"
        }
      ],
      "name": "selfMint",
      "outputs": [],
      "stateMutability": "nonpayable",
      "type": "function"
    },
    {
      "inputs": [
        {
          "internalType": "enum IAssetManager.CollateralTokenClass",
          "name": "_tokenClass",
          "type": "uint8"
        },
        {
          "internalType": "contract IERC20",
          "name": "_token",
          "type": "address"
        },
        {
          "internalType": "uint256",
          "name": "_minCollateralRatioBIPS",
          "type": "uint256"
        },
        {
          "internalType": "uint256",
          "name": "_ccbMinCollateralRatioBIPS",
          "type": "uint256"
        },
        {
          "internalType": "uint256",
          "name": "_safetyMinCollateralRatioBIPS",
          "type": "uint256"
        }
      ],
      "name": "setCollateralRatiosForToken",
      "outputs": [],
      "stateMutability": "nonpayable",
      "type": "function"
    },
    {
      "inputs": [
        {
          "internalType": "address",
          "name": "_ownerHotAddress",
          "type": "address"
        }
      ],
      "name": "setOwnerHotAddress",
      "outputs": [],
      "stateMutability": "nonpayable",
      "type": "function"
    },
    {
      "inputs": [
        {
          "components": [
            {
              "internalType": "enum IAssetManager.CollateralTokenClass",
              "name": "tokenClass",
              "type": "uint8"
            },
            {
              "internalType": "contract IERC20",
              "name": "token",
              "type": "address"
            },
            {
              "internalType": "uint256",
              "name": "decimals",
              "type": "uint256"
            },
            {
              "internalType": "uint256",
              "name": "validUntil",
              "type": "uint256"
            },
            {
              "internalType": "string",
              "name": "ftsoSymbol",
              "type": "string"
            },
            {
              "internalType": "uint256",
              "name": "minCollateralRatioBIPS",
              "type": "uint256"
            },
            {
              "internalType": "uint256",
              "name": "ccbMinCollateralRatioBIPS",
              "type": "uint256"
            },
            {
              "internalType": "uint256",
              "name": "safetyMinCollateralRatioBIPS",
              "type": "uint256"
            }
          ],
          "internalType": "struct IAssetManager.CollateralTokenInfo",
          "name": "_data",
          "type": "tuple"
        }
      ],
      "name": "setPoolCollateralToken",
      "outputs": [],
      "stateMutability": "nonpayable",
      "type": "function"
    },
    {
      "inputs": [
        {
          "internalType": "address",
          "name": "_agentVault",
          "type": "address"
        }
      ],
      "name": "startLiquidation",
      "outputs": [],
      "stateMutability": "nonpayable",
      "type": "function"
    },
    {
      "inputs": [],
      "name": "terminate",
      "outputs": [],
      "stateMutability": "nonpayable",
      "type": "function"
    },
    {
      "inputs": [],
      "name": "unpause",
      "outputs": [],
      "stateMutability": "nonpayable",
      "type": "function"
    },
    {
      "inputs": [
        {
          "components": [
            {
              "internalType": "uint256",
              "name": "stateConnectorRound",
              "type": "uint256"
            },
            {
              "internalType": "bytes32[]",
              "name": "merkleProof",
              "type": "bytes32[]"
            },
            {
              "internalType": "uint64",
              "name": "blockNumber",
              "type": "uint64"
            },
            {
              "internalType": "uint64",
              "name": "blockTimestamp",
              "type": "uint64"
            },
            {
              "internalType": "uint8",
              "name": "numberOfConfirmations",
              "type": "uint8"
            },
            {
              "internalType": "uint64",
              "name": "averageBlockProductionTimeMs",
              "type": "uint64"
            },
            {
              "internalType": "uint64",
              "name": "lowestQueryWindowBlockNumber",
              "type": "uint64"
            },
            {
              "internalType": "uint64",
              "name": "lowestQueryWindowBlockTimestamp",
              "type": "uint64"
            }
          ],
          "internalType": "struct IAttestationClient.ConfirmedBlockHeightExists",
          "name": "_proof",
          "type": "tuple"
        },
        {
          "internalType": "uint256",
          "name": "_collateralReservationId",
          "type": "uint256"
        }
      ],
      "name": "unstickMinting",
      "outputs": [],
      "stateMutability": "nonpayable",
      "type": "function"
    },
    {
      "inputs": [
        {
          "components": [
            {
              "internalType": "uint256",
              "name": "stateConnectorRound",
              "type": "uint256"
            },
            {
              "internalType": "bytes32[]",
              "name": "merkleProof",
              "type": "bytes32[]"
            },
            {
              "internalType": "uint64",
              "name": "blockNumber",
              "type": "uint64"
            },
            {
              "internalType": "uint64",
              "name": "blockTimestamp",
              "type": "uint64"
            },
            {
              "internalType": "uint8",
              "name": "numberOfConfirmations",
              "type": "uint8"
            },
            {
              "internalType": "uint64",
              "name": "averageBlockProductionTimeMs",
              "type": "uint64"
            },
            {
              "internalType": "uint64",
              "name": "lowestQueryWindowBlockNumber",
              "type": "uint64"
            },
            {
              "internalType": "uint64",
              "name": "lowestQueryWindowBlockTimestamp",
              "type": "uint64"
            }
          ],
          "internalType": "struct IAttestationClient.ConfirmedBlockHeightExists",
          "name": "_proof",
          "type": "tuple"
        }
      ],
      "name": "updateCurrentBlock",
      "outputs": [],
      "stateMutability": "nonpayable",
      "type": "function"
    },
    {
      "inputs": [
        {
          "internalType": "bytes32",
          "name": "_method",
          "type": "bytes32"
        },
        {
          "internalType": "bytes",
          "name": "_params",
          "type": "bytes"
        }
      ],
      "name": "updateSettings",
      "outputs": [],
      "stateMutability": "nonpayable",
      "type": "function"
    },
    {
      "inputs": [
        {
          "internalType": "address",
          "name": "_agentVault",
          "type": "address"
        }
      ],
      "name": "upgradeWNatContract",
      "outputs": [],
      "stateMutability": "nonpayable",
      "type": "function"
    },
    {
      "inputs": [
        {
          "internalType": "contract IERC20",
          "name": "_token",
          "type": "address"
        },
        {
          "internalType": "uint256",
          "name": "_valueNATWei",
          "type": "uint256"
        }
      ],
      "name": "withdrawCollateral",
      "outputs": [],
      "stateMutability": "nonpayable",
      "type": "function"
    }
  ],
  "bytecode": "0x60806040523480156200001157600080fd5b5060405162006757380380620067578339810160408190526200003491620005a1565b600160005560405163658f4c6160e01b815273__$498fae630e5f9e2b0d2f5a14b70bbf8a29$__9063658f4c61906200007290869060040162000a12565b60006040518083038186803b1580156200008b57600080fd5b505af4158015620000a0573d6000803e3d6000fd5b505060405163e456a51d60e01b815273__$a539d901bea57a4b73d19093d1e9882040$__925063e456a51d9150620000dd90859060040162000ee2565b60006040518083038186803b158015620000f657600080fd5b505af41580156200010b573d6000803e3d6000fd5b5050505062000125816200012e60201b62002a5b1760201c565b50505062000ffe565b600062000145620001c060201b62002acb1760201c565b600801546040516001600160a01b039091169150600090829063439fab91906200017490869060240162000fc4565b604051602081830303815290604052915060e01b6020820180516001600160e01b0383818316178352505050509050620001ba8282620001e460201b62002add1760201c565b50505050565b7fec7e8c1c441439dd40959777f4c577ea0cd42fcc1dbe59d2bd0f5d9c55df8db690565b6060600080846001600160a01b03168460405162000203919062000fe0565b600060405180830381855af49150503d806000811462000240576040519150601f19603f3d011682016040523d82523d6000602084013e62000245565b606091505b509150915081156200025b5791506200026e9050565b3d604051818101604052816000823e8181fd5b92915050565b634e487b7160e01b600052604160045260246000fd5b60405161010081016001600160401b0381118282101715620002b057620002b062000274565b60405290565b6040516105c081016001600160401b0381118282101715620002b057620002b062000274565b604051601f8201601f191681016001600160401b038111828210171562000307576200030762000274565b604052919050565b80516001600160a01b03811681146200032757600080fd5b919050565b805163ffffffff811681146200032757600080fd5b805160ff811681146200032757600080fd5b60005b838110156200037057818101518382015260200162000356565b83811115620001ba5750506000910152565b600082601f8301126200039457600080fd5b81516001600160401b03811115620003b057620003b062000274565b620003c5601f8201601f1916602001620002dc565b818152846020838601011115620003db57600080fd5b620003ee82602083016020870162000353565b949350505050565b805180151581146200032757600080fd5b805161ffff811681146200032757600080fd5b80516001600160401b03811681146200032757600080fd5b80516001600160801b03811681146200032757600080fd5b8051600381106200032757600080fd5b600082601f8301126200046c57600080fd5b815160206001600160401b03808311156200048b576200048b62000274565b8260051b6200049c838201620002dc565b9384528581018301938381019088861115620004b757600080fd5b84880192505b858310156200059557825184811115620004d75760008081fd5b8801610100818b03601f1901811315620004f15760008081fd5b620004fb6200028a565b620005088884016200044a565b81526040620005198185016200030f565b89830152606080850151828401526080915081850151818401525060a08085015189811115620005495760008081fd5b620005598f8c8389010162000382565b838501525060c0915081850151818401525060e080850151828401528385015181840152505080855250505084820191508483019250620004bd565b98975050505050505050565b600080600060608486031215620005b757600080fd5b83516001600160401b0380821115620005cf57600080fd5b908501906105c08288031215620005e557600080fd5b620005ef620002b6565b620005fa836200030f565b81526200060a602084016200030f565b60208201526200061d604084016200030f565b604082015262000630606084016200030f565b606082015262000643608084016200030f565b60808201526200065660a084016200030f565b60a08201526200066960c084016200030f565b60c08201526200067c60e084016200030f565b60e0820152610100620006918185016200030f565b90820152610120620006a58482016200030f565b90820152610140620006b98482016200032c565b90820152610160620006cd84820162000341565b90820152610180620006e184820162000341565b908201526101a0620006f58482016200032c565b908201526101c083810151838111156200070e57600080fd5b6200071c8a82870162000382565b8284015250506101e0620007328185016200030f565b9082015261020062000746848201620003f6565b908201526102206200075a8482016200032c565b908201526102406200076e84820162000407565b90820152610260620007828482016200041a565b90820152610280620007968482016200041a565b908201526102a0620007aa8482016200041a565b908201526102c0620007be8482016200041a565b908201526102e0620007d28482016200041a565b90820152610300620007e6848201620003f6565b90820152610320620007fa8482016200041a565b908201526103406200080e8482016200041a565b908201526103606200082284820162000407565b90820152610380620008368482016200032c565b908201526103a06200084a8482016200032c565b908201526103c06200085e8482016200041a565b908201526103e06200087284820162000432565b908201526104006200088684820162000407565b908201526104206200089a84820162000407565b90820152610440620008ae84820162000432565b90820152610460620008c28482016200041a565b90820152610480620008d68482016200041a565b908201526104a0620008ea8482016200041a565b908201526104c0620008fe8482016200041a565b908201526104e0620009128482016200041a565b90820152610500620009268482016200041a565b908201526105206200093a8482016200041a565b908201526105406200094e8482016200032c565b90820152610560620009628482016200041a565b90820152610580620009768482016200041a565b908201526105a06200098a8482016200041a565b908201526020870151909550915080821115620009a657600080fd5b620009b4878388016200045a565b93506040860151915080821115620009cb57600080fd5b50620009da8682870162000382565b9150509250925092565b60008151808452620009fe81602086016020860162000353565b601f01601f19169290920160200192915050565b6020815262000a2d6020820183516001600160a01b03169052565b6000602083015162000a4a60408401826001600160a01b03169052565b5060408301516001600160a01b03811660608401525060608301516001600160a01b03811660808401525060808301516001600160a01b03811660a08401525060a08301516001600160a01b03811660c08401525060c08301516001600160a01b03811660e08401525060e083015161010062000ad1818501836001600160a01b03169052565b840151905061012062000aee848201836001600160a01b03169052565b840151905061014062000b0b848201836001600160a01b03169052565b840151905061016062000b258482018363ffffffff169052565b840151905061018062000b3c8482018360ff169052565b84015190506101a062000b538482018360ff169052565b84015190506101c062000b6d8482018363ffffffff169052565b808501519150506105c06101e0818186015262000b8f6105e0860184620009e4565b9086015190925061020062000bae868201836001600160a01b03169052565b860151905061022062000bc48682018315159052565b860151905061024062000bde8682018363ffffffff169052565b860151905061026062000bf68682018361ffff169052565b860151905061028062000c13868201836001600160401b03169052565b86015190506102a062000c30868201836001600160401b03169052565b86015190506102c062000c4d868201836001600160401b03169052565b86015190506102e062000c6a868201836001600160401b03169052565b860151905061030062000c87868201836001600160401b03169052565b860151905061032062000c9d8682018315159052565b860151905061034062000cba868201836001600160401b03169052565b860151905061036062000cd7868201836001600160401b03169052565b860151905061038062000cef8682018361ffff169052565b86015190506103a062000d098682018363ffffffff169052565b86015190506103c062000d238682018363ffffffff169052565b86015190506103e062000d40868201836001600160401b03169052565b860151905061040062000d5d868201836001600160801b03169052565b860151905061042062000d758682018361ffff169052565b860151905061044062000d8d8682018361ffff169052565b860151905061046062000daa868201836001600160801b03169052565b860151905061048062000dc7868201836001600160401b03169052565b86015190506104a062000de4868201836001600160401b03169052565b86015190506104c062000e01868201836001600160401b03169052565b86015190506104e062000e1e868201836001600160401b03169052565b860151905061050062000e3b868201836001600160401b03169052565b860151905061052062000e58868201836001600160401b03169052565b860151905061054062000e75868201836001600160401b03169052565b860151905061056062000e8f8682018363ffffffff169052565b860151905061058062000eac868201836001600160401b03169052565b86015190506105a062000ec9868201836001600160401b03169052565b909501516001600160401b031693019290925250919050565b60006020808301818452808551808352604092508286019150828160051b8701018488016000805b8481101562000fb557603f198a8503018652825161010081516003811062000f4057634e487b7160e01b85526021600452602485fd5b8652818a01516001600160a01b03168a87015288820151898701526060808301519087015260808083015181880183905262000f7f83890182620009e4565b60a085810151908a015260c080860151908a015260e0948501519490980193909352505050948701949187019160010162000f0a565b50919998505050505050505050565b60208152600062000fd96020830184620009e4565b9392505050565b6000825162000ff481846020870162000353565b9190910192915050565b615749806200100e6000396000f3fe6080604052600436106103fa5760003560e01c80638ad2a95011610213578063d6b93a9f11610123578063ed3762aa116100ab578063f19d3c061161007a578063f19d3c0614610c96578063f1d5133f14610cb6578063f4d000b214610ce3578063f54ff23014610d03578063fd41d8ea14610d2357600080fd5b8063ed3762aa14610c21578063ee80a23014610c41578063f060b3f114610c61578063f0c0b72514610c8157600080fd5b8063e415339c116100f2578063e415339c14610b7e578063e7732f9114610bac578063eb5abafc14610bcc578063ecaf1cdf14610bec578063ed000b3014610c0157600080fd5b8063d6b93a9f14610afe578063dda4921314610b1e578063e1c5010014610b3e578063e38fd8f414610b5e57600080fd5b8063b5a488a6116101a6578063ba657a3611610175578063ba657a3614610a50578063bcbaf48714610a70578063bd60353514610aab578063bfead88714610abe578063c0674b4614610ade57600080fd5b8063b5a488a6146109db578063b68af97e146109f0578063b7f658ab14610a10578063b928b53314610a3057600080fd5b8063a07ea7af116101e2578063a07ea7af14610959578063a4ea4b1d14610979578063b046cd1714610999578063b58eb63f146109b957600080fd5b80638ad2a950146108d95780638bf11326146108f95780638c9ea976146109195780639584da2a1461093957600080fd5b80633f4ba83a1161030e57806365454f94116102a15780637c7db1a5116102705780637c7db1a51461083f5780638003314d1461085457806383c57d14146108825780638456cb59146108a257806385b4bb53146108b757600080fd5b806365454f941461079f5780636e61164f146107bf578063753923f0146107ff578063778aadd51461081f57600080fd5b80635c975abb116102dd5780635c975abb146107125780635cdf04b31461073f5780635e71055c1461075f578063612007e51461077f57600080fd5b80633f4ba83a1461066d5780635252f3a21461068257806353777730146106ba57806353ed178e146106f257600080fd5b80631f819490116103915780632a4c48a8116103605780632a4c48a8146105bf5780632dabf2d0146105df578063350c35e9146105ff578063368a35931461061f5780633851b6141461064d57600080fd5b80631f8194901461053f578063249f1b591461055f57806324b76fd51461057f578063268b2ec11461059f57600080fd5b80630a4b9ec2116103cd5780630a4b9ec2146104bd5780630c08bf88146104dd5780630ffb0e86146104f2578063152052b01461051257600080fd5b806302312aec146103ff578063025dfeb21461042e57806304203930146104505780630877acff14610470575b600080fd5b34801561040b57600080fd5b50610414610d43565b604080519283526020830191909152015b60405180910390f35b34801561043a57600080fd5b5061044e61044936600461335b565b610d97565b005b34801561045c57600080fd5b5061044e61046b3660046133ab565b610e0e565b34801561047c57600080fd5b507fec7e8c1c441439dd40959777f4c577ea0cd42fcc1dbe59d2bd0f5d9c55df8dd8546001600160401b03620100008204811691600160501b900416610414565b3480156104c957600080fd5b5061044e6104d83660046133ab565b610e4e565b3480156104e957600080fd5b5061044e610e94565b3480156104fe57600080fd5b5061044e61050d366004613509565b610f9a565b34801561051e57600080fd5b5061053261052d3660046133ab565b61101c565b60405161042591906135e3565b34801561054b57600080fd5b5061044e61055a3660046137f1565b6111c0565b34801561056b57600080fd5b5061044e61057a366004613842565b611235565b34801561058b57600080fd5b5061044e61059a366004613893565b6112b3565b3480156105ab57600080fd5b5061044e6105ba3660046138d9565b6112fe565b3480156105cb57600080fd5b5061044e6105da366004613936565b61133f565b3480156105eb57600080fd5b5061044e6105fa366004613972565b611376565b34801561060b57600080fd5b5061044e61061a366004613972565b6113b2565b34801561062b57600080fd5b5061063f61063a366004613990565b6113ff565b604051908152602001610425565b34801561065957600080fd5b5061044e6106683660046133ab565b61148d565b34801561067957600080fd5b5061044e6114cd565b34801561068e57600080fd5b506106a261069d3660046133ab565b6115c5565b6040516001600160a01b039091168152602001610425565b3480156106c657600080fd5b506000805160206156f483398151915254600160401b900460ff165b6040519015158152602001610425565b3480156106fe57600080fd5b5061044e61070d3660046139a9565b6115e0565b34801561071e57600080fd5b506000805160206156f4833981519152546001600160401b031615156106e2565b34801561074b57600080fd5b5061044e61075a3660046139f1565b611621565b34801561076b57600080fd5b5061044e61077a3660046133ab565b611662565b34801561078b57600080fd5b5061044e61079a3660046133ab565b6116a2565b3480156107ab57600080fd5b5061044e6107ba3660046133ab565b6116e2565b3480156107cb57600080fd5b506107df6107da3660046133ab565b611722565b604080516001600160a01b03938416815292909116602083015201610425565b34801561080b57600080fd5b5061044e61081a3660046138d9565b6117ab565b34801561082b57600080fd5b5061044e61083a366004613a42565b6117cf565b34801561084b57600080fd5b506106a2611817565b34801561086057600080fd5b5061087461086f366004613a70565b611826565b604051610425929190613a92565b34801561088e57600080fd5b5061044e61089d366004613b10565b6118b7565b3480156108ae57600080fd5b5061044e61192f565b3480156108c357600080fd5b506108cc611994565b6040516104259190613b95565b3480156108e557600080fd5b5061044e6108f4366004614041565b611e4d565b34801561090557600080fd5b5061044e610914366004614075565b611e84565b34801561092557600080fd5b506106e2610934366004613a42565b611f31565b34801561094557600080fd5b5061044e610954366004613972565b611fbe565b34801561096557600080fd5b5061044e6109743660046133ab565b612005565b34801561098557600080fd5b5061044e610994366004613936565b612045565b3480156109a557600080fd5b5061044e6109b43660046140ce565b612084565b3480156109c557600080fd5b506109ce6120bd565b604051610425919061418f565b3480156109e757600080fd5b506106a2612130565b3480156109fc57600080fd5b5061044e610a0b3660046133ab565b61213a565b348015610a1c57600080fd5b5061044e610a2b3660046133ab565b612228565b348015610a3c57600080fd5b5061044e610a4b36600461420a565b612268565b348015610a5c57600080fd5b5061044e610a6b3660046133ab565b6122a0565b348015610a7c57600080fd5b50610a90610a8b366004613972565b6122e0565b60408051938452602084019290925290820152606001610425565b61044e610ab9366004614227565b61237e565b348015610aca57600080fd5b5061044e610ad93660046137f1565b612407565b348015610aea57600080fd5b5061044e610af93660046133ab565b6124a9565b348015610b0a57600080fd5b506106e2610b19366004613a42565b6124e9565b348015610b2a57600080fd5b5061044e610b393660046139a9565b6124fd565b348015610b4a57600080fd5b5061044e610b593660046133ab565b612566565b348015610b6a57600080fd5b5061044e610b79366004613936565b6125ad565b348015610b8a57600080fd5b50610b9e610b99366004613a70565b6125ec565b60405161042592919061425c565b348015610bb857600080fd5b5061044e610bc73660046142ad565b612671565b348015610bd857600080fd5b5061044e610be73660046142e6565b6126aa565b348015610bf857600080fd5b5061063f6126ed565b348015610c0d57600080fd5b5061044e610c1c366004614352565b612732565b348015610c2d57600080fd5b5061063f610c3c3660046133ab565b612781565b348015610c4d57600080fd5b5061044e610c5c3660046140ce565b6127c4565b348015610c6d57600080fd5b5061044e610c7c366004614382565b6127fd565b348015610c8d57600080fd5b506106a2612870565b348015610ca257600080fd5b5061044e610cb13660046143ed565b612889565b348015610cc257600080fd5b50610cd6610cd1366004614468565b6128cc565b6040516104259190614486565b348015610cef57600080fd5b5061044e610cfe3660046133ab565b61299c565b348015610d0f57600080fd5b5061044e610d1e366004613972565b6129dc565b348015610d2f57600080fd5b5061044e610d3e366004614499565b612a18565b6000806000610d50612acb565b9050610d62610d5d612b61565b612be3565b600c820154909350600160401b90046001600160401b0316610d866009600a6145b3565b610d9091906145bf565b9150509091565b610d9f612bf7565b6040516307c8308b60e21b815273__$8ed6b3b04009dff171844b9d72c92eddd0$__90631f20c22c90610ddb906001903090869060040161464c565b60006040518083038186803b158015610df357600080fd5b505af4158015610e07573d6000803e3d6000fd5b5050505050565b60405163b42652e960e01b81526001600160a01b038216600482015273__$4054b81dd018f00b16b0262e280b71bd3d$__9063b42652e990602401610ddb565b60405163c7be12eb60e01b81526001600160a01b038216600482015233602482015273__$c7446ca28182994c6c0135601399c1b584$__9063c7be12eb90604401610ddb565b610e9c612c4e565b6000805160206156f4833981519152546000805160206156d4833981519152906001600160401b031615801590610eed57506023810154610eea9062278d00906001600160401b0316614715565b42115b610f3e5760405162461bcd60e51b815260206004820152601f60248201527f6173736574206d616e61676572206e6f742070617573656420656e6f7567680060448201526064015b60405180910390fd5b60018101546040805163018117f160e31b815290516001600160a01b0390921691630c08bf889160048082019260009290919082900301818387803b158015610f8657600080fd5b505af1158015610e07573d6000803e3d6000fd5b60405163ccfb491360e01b815273__$df85e949fff37977e0d300eb10fcbb4998$__9063ccfb491390610fd59086908690869060040161472d565b602060405180830381865af4158015610ff2573d6000803e3d6000fd5b505050506040513d601f19601f820116820180604052508101906110169190614761565b50505050565b61113a604080516104208101909152806000815260200160006001600160a01b0316815260200160006001600160a01b0316815260200160006001600160a01b0316815260200160608152602001600015158152602001600081526020016000815260200160006001600160a01b031681526020016000815260200160008152602001600081526020016000815260200160008152602001600081526020016000815260200160008152602001600081526020016000815260200160008152602001600081526020016000815260200160008152602001600081526020016000815260200160008152602001600081526020016000815260200160008152602001600081526020016000815260200160008152602001600081525090565b604051630152052b60e41b81526001600160a01b038316600482015273__$ec55c6bae1638b00bbedb6b751f1f84e77$__9063152052b090602401600060405180830381865af4158015611192573d6000803e3d6000fd5b505050506040513d6000823e601f3d908101601f191682016040526111ba91908101906147e4565b92915050565b73__$305ac64b111b0d775ac583a3c3f22849b9$__634e1b6cd6836111e484612cae565b6040518363ffffffff1660e01b8152600401611201929190614b78565b60006040518083038186803b15801561121957600080fd5b505af415801561122d573d6000803e3d6000fd5b505050505050565b61123d612c4e565b604051634f27f8e760e01b815273__$a539d901bea57a4b73d19093d1e9882040$__90634f27f8e79061127c9088908890889088908890600401614ba3565b60006040518083038186803b15801561129457600080fd5b505af41580156112a8573d6000803e3d6000fd5b505050505050505050565b6112bb612d1a565b73__$4ff30c53c077284d3b777228e6ae31216c$__6326e68cd4336112df85612cae565b846040518463ffffffff1660e01b815260040161120193929190614bda565b73__$2121826b9482dc4a95d5f1c5bc0ffbdf06$__63c20025058361132284612cae565b6040518363ffffffff1660e01b8152600401611201929190614c24565b60405163e70e767f60e01b815273__$722590fcf677171437eb48cf082465d6d7$__9063e70e767f90610ddb908490600401614e36565b60405163a43ba5ab60e01b815273__$c7446ca28182994c6c0135601399c1b584$__9063a43ba5ab906112019060029086908690600401614e49565b604051631f463e2360e21b81526001600160a01b03831660048201523360248201526044810182905273__$c7446ca28182994c6c0135601399c1b584$__90637d18f88c90606401611201565b600073__$f7c9c0d01068167c22df35ff5943b62148$__630c7dcd1561142484612cae565b6040516001600160e01b031960e084901b1681526001600160401b0390911660048201526024015b602060405180830381865af4158015611469573d6000803e3d6000fd5b505050506040513d601f19601f820116820180604052508101906111ba9190614761565b60405163fdf6b37560e01b81526001600160a01b038216600482015273__$4054b81dd018f00b16b0262e280b71bd3d$__9063fdf6b37590602401610ddb565b6114d5612c4e565b7fec7e8c1c441439dd40959777f4c577ea0cd42fcc1dbe59d2bd0f5d9c55df8db7546040805163194307bf60e01b815290516000805160206156d4833981519152926001600160a01b03169163194307bf9160048083019260209291908290030181865afa15801561154b573d6000803e3d6000fd5b505050506040513d601f19601f8201168201806040525081019061156f9190614e73565b156115b15760405162461bcd60e51b8152602060048201526012602482015271198b585cdcd95d081d195c9b5a5b985d195960721b6044820152606401610f35565b602301805467ffffffffffffffff19169055565b60006115d082612de7565b546001600160a01b031692915050565b73__$2121826b9482dc4a95d5f1c5bc0ffbdf06$__630fec40b68361160484612cae565b6040518363ffffffff1660e01b8152600401611201929190614e90565b611629612d1a565b60405163ed99865b60e01b815273__$d15fd82c1987b4adc4c1dba5cf0be762b0$__9063ed99865b906112019085908590600401614f49565b60405163e4c5e4e960e01b81526001600160a01b038216600482015273__$8ed6b3b04009dff171844b9d72c92eddd0$__9063e4c5e4e990602401610ddb565b604051630877cd8160e41b81526001600160a01b038216600482015273__$4054b81dd018f00b16b0262e280b71bd3d$__9063877cd81090602401610ddb565b60405163195153e560e21b81526001600160a01b038216600482015273__$c7446ca28182994c6c0135601399c1b584$__906365454f9490602401610ddb565b604051636e61164f60e01b81526001600160a01b0382166004820152600090819073__$c7446ca28182994c6c0135601399c1b584$__90636e61164f906024016040805180830381865af415801561177e573d6000803e3d6000fd5b505050506040513d601f19601f820116820180604052508101906117a29190614f73565b91509150915091565b73__$f7c9c0d01068167c22df35ff5943b62148$__6355c4ef8f8361132284612cae565b60405163778aadd560e01b81526001600160a01b0380841660048301528216602482015273__$8ed6b3b04009dff171844b9d72c92eddd0$__9063778aadd590604401611201565b6000611821612e8f565b905090565b60405163825378af60e01b8152600481018390526024810182905260609060009073__$4054b81dd018f00b16b0262e280b71bd3d$__9063825378af90604401600060405180830381865af4158015611883573d6000803e3d6000fd5b505050506040513d6000823e601f3d908101601f191682016040526118ab9190810190614fc5565b915091505b9250929050565b6118bf612d1a565b6040516366a1b64560e11b815273__$d15fd82c1987b4adc4c1dba5cf0be762b0$__9063cd436c8a906118fa908690869086906004016150a7565b60006040518083038186803b15801561191257600080fd5b505af4158015611926573d6000803e3d6000fd5b50505050505050565b611937612c4e565b6000805160206156f4833981519152546000805160206156d4833981519152906001600160401b03166119915761196d42612cae565b60238201805467ffffffffffffffff19166001600160401b03929092169190911790555b50565b604080516105c08101825260008082526020820181905291810182905260608082018390526080820183905260a0820183905260c0820183905260e08201839052610100820183905261012082018390526101408201839052610160820183905261018082018390526101a082018390526101c08201526101e08101829052610200810182905261022081018290526102408101829052610260810182905261028081018290526102a081018290526102c081018290526102e08101829052610300810182905261032081018290526103408101829052610360810182905261038081018290526103a081018290526103c081018290526103e08101829052610400810182905261042081018290526104408101829052610460810182905261048081018290526104a081018290526104c081018290526104e08101829052610500810182905261052081018290526105408101829052610560810182905261058081018290526105a0810191909152611b0c612acb565b604080516105c08101825282546001600160a01b03908116825260018401548116602083015260028401548116928201929092526003830154821660608201526004830154821660808201526005830154821660a08201526006830154821660c08201526007830154821660e082015260088301548216610100820152600983015491821661012082015263ffffffff600160a01b8304811661014083015260ff600160c01b84048116610160840152600160c81b840416610180830152600160d01b9092049091166101a0820152600a820180549192916101c084019190611bf49061512e565b80601f0160208091040260200160405190810160405280929190818152602001828054611c209061512e565b8015611c6d5780601f10611c4257610100808354040283529160200191611c6d565b820191906000526020600020905b815481529060010190602001808311611c5057829003601f168201915b5050509183525050600b8201546001600160a01b038116602083015260ff600160a01b80830482161515604085015263ffffffff600160a81b84048116606086015261ffff600160c81b9485900481166080870152600c8701546001600160401b0380821660a0890152600160401b808304821660c08a0152600160801b808404831660e08b0152600160c01b9384900483166101008b0152600d8b01548084166101208c015282810490981615156101408b01526901000000000000000000880483166101608b0152600160881b880483166101808b015297870484166101a08a0152600160d81b90960484166101c0890152600e8901548085166101e08a0152640100000000810482166102008a01526001600160801b03600160601b80830482166102208c0152600160e01b830486166102408c0152600160f01b9092049094166102608a0152600f8a01549384166102808a015287840482166102a08a01529282900481166102c089015260108901548082166102e08a015286810482166103008a01529687048116610320890152950485166103408701526011870154808616610360880152938404909116610380860152820483166103a0850152900481166103c08301526012909201549091166103e090910152919050565b604051632560e1bd60e01b815273__$8ed6b3b04009dff171844b9d72c92eddd0$__90632560e1bd90610ddb908490600401615163565b611e8c612bf7565b60026000541415611eaf5760405162461bcd60e51b8152600401610f3590615176565b600260005573__$db99a4b0b1a8936beb7122d8143ea3b698$__634c1411578484611ed985612cae565b6040518463ffffffff1660e01b8152600401611ef7939291906151ad565b60006040518083038186803b158015611f0f57600080fd5b505af4158015611f23573d6000803e3d6000fd5b505060016000555050505050565b60405162cb3d5f60e31b81526001600160a01b0380841660048301528216602482015260009073__$c7446ca28182994c6c0135601399c1b584$__90630659eaf890604401602060405180830381865af4158015611f93573d6000803e3d6000fd5b505050506040513d601f19601f82011682018060405250810190611fb79190614e73565b9392505050565b604051634ac26d1560e11b81526001600160a01b03831660048201526024810182905273__$4ff30c53c077284d3b777228e6ae31216c$__90639584da2a90604401611201565b60405163a07ea7af60e01b81526001600160a01b038216600482015273__$900ca2dd89aa7bd7c22612e1484fcfb277$__9063a07ea7af90602401610ddb565b61204d612c4e565b60405163234e32cb60e21b815273__$a539d901bea57a4b73d19093d1e9882040$__90638d38cb2c90610ddb9084906004016151e9565b60405163364a99d160e21b815273__$900ca2dd89aa7bd7c22612e1484fcfb277$__9063d92a674490611201908590859060040161528c565b606073__$a539d901bea57a4b73d19093d1e9882040$__638d19717a6040518163ffffffff1660e01b8152600401600060405180830381865af4158015612108573d6000803e3d6000fd5b505050506040513d6000823e601f3d908101601f191682016040526118219190810190615346565b6000611821612ead565b612142612e8f565b6001600160a01b031663194307bf6040518163ffffffff1660e01b8152600401602060405180830381865afa15801561217f573d6000803e3d6000fd5b505050506040513d601f19601f820116820180604052508101906121a39190614e73565b6121e85760405162461bcd60e51b8152602060048201526016602482015275198b585cdcd95d081b9bdd081d195c9b5a5b985d195960521b6044820152606401610f35565b604051635b457cbf60e11b81526001600160a01b038216600482015273__$8ed6b3b04009dff171844b9d72c92eddd0$__9063b68af97e90602401610ddb565b60405163b7f658ab60e01b81526001600160a01b038216600482015273__$55e854ab37cd1bbaf9fa5a4f99ff154ced$__9063b7f658ab90602401610ddb565b612270612c4e565b6000805160206156f48339815191528054911515600160401b0268ff000000000000000019909216919091179055565b604051635d32bd1b60e11b81526001600160a01b038216600482015273__$8ed6b3b04009dff171844b9d72c92eddd0$__9063ba657a3690602401610ddb565b60008060006122ed612d1a565b60405163bcbaf48760e01b81526001600160a01b03861660048201526024810185905273__$55e854ab37cd1bbaf9fa5a4f99ff154ced$__9063bcbaf48790604401606060405180830381865af415801561234c573d6000803e3d6000fd5b505050506040513d601f19601f8201168201806040525081019061237091906153f6565b919790965090945092505050565b612386612bf7565b61238e612d1a565b73__$f7c9c0d01068167c22df35ff5943b62148$__63f2821a6233856123b386612cae565b6123bc86612cae565b6040516001600160e01b031960e087901b1681526001600160a01b0394851660048201529390921660248401526001600160401b0390811660448401521660648201526084016118fa565b6002600054141561242a5760405162461bcd60e51b8152600401610f3590615176565b600260005573__$db99a4b0b1a8936beb7122d8143ea3b698$__63aeeb13a08361245384612cae565b6040518363ffffffff1660e01b8152600401612470929190614b78565b60006040518083038186803b15801561248857600080fd5b505af415801561249c573d6000803e3d6000fd5b5050600160005550505050565b604051636033a5a360e11b81526001600160a01b038216600482015273__$900ca2dd89aa7bd7c22612e1484fcfb277$__9063c0674b4690602401610ddb565b6000611fb76124f784612de7565b83612f3b565b600260005414156125205760405162461bcd60e51b8152600401610f3590615176565b600260005573__$f7c9c0d01068167c22df35ff5943b62148$__632d984f758361254984612cae565b6040518363ffffffff1660e01b8152600401612470929190614e90565b61256e612d1a565b60405162e1c50160e81b81526001600160a01b038216600482015273__$55e854ab37cd1bbaf9fa5a4f99ff154ced$__9063e1c5010090602401610ddb565b6125b5612c4e565b604051631663f15960e11b815273__$a539d901bea57a4b73d19093d1e9882040$__90632cc7e2b290610ddb9084906004016151e9565b6040516315302d6160e31b8152600481018390526024810182905260609060009073__$4054b81dd018f00b16b0262e280b71bd3d$__9063a9816b0890604401600060405180830381865af4158015612649573d6000803e3d6000fd5b505050506040513d6000823e601f3d908101601f191682016040526118ab9190810190615424565b6040516331ec097760e01b815273__$df85e949fff37977e0d300eb10fcbb4998$__906331ec09779061120190859085906004016154c5565b6126b2612d1a565b60405163264becd360e21b815273__$d15fd82c1987b4adc4c1dba5cf0be762b0$__9063992fb34c906118fa908690869086906004016154e9565b6000806126f8612acb565b600c810154909150612723906001600160401b03600160401b8204811691600160801b900416615527565b6001600160401b031691505090565b604051630ed000b360e41b81526001600160a01b038085166004830152831660248201526044810182905273__$4ff30c53c077284d3b777228e6ae31216c$__9063ed000b30906064016118fa565b60405163769bb15560e11b81526001600160a01b038216600482015260009073__$c7446ca28182994c6c0135601399c1b584$__9063ed3762aa9060240161144c565b604051630314945d60e41b815273__$4d3bb9bf0a42acf2b0f8f3ab5f4c1ad39c$__9063314945d090611201908590859060040161528c565b60405163f060b3f160e01b815273__$4ff30c53c077284d3b777228e6ae31216c$__9063f060b3f19061283a908790879087908790600401615556565b60006040518083038186803b15801561285257600080fd5b505af4158015612866573d6000803e3d6000fd5b5050505050505050565b600061287a612acb565b546001600160a01b0316919050565b612891612c4e565b6040516302fab52b60e01b815273__$498fae630e5f9e2b0d2f5a14b70bbf8a29$__906302fab52b906118fa90869086908690600401615593565b61291e604080516101008101909152806000815260200160006001600160a01b031681526020016000815260200160008152602001606081526020016000815260200160008152602001600081525090565b6040516346532e0760e01b815273__$a539d901bea57a4b73d19093d1e9882040$__906346532e079061295790869086906004016155ad565b600060405180830381865af4158015612974573d6000803e3d6000fd5b505050506040513d6000823e601f3d908101601f19168201604052611fb791908101906155d2565b604051637a68005960e11b81526001600160a01b038216600482015273__$c7446ca28182994c6c0135601399c1b584$__9063f4d000b290602401610ddb565b60405163a43ba5ab60e01b815273__$c7446ca28182994c6c0135601399c1b584$__9063a43ba5ab906112019060009086908690600401614e49565b612a20612c4e565b6040516307eca6bd60e51b815273__$a539d901bea57a4b73d19093d1e9882040$__9063fd94d7a0906118fa90869086908690600401614e49565b6000612a65612acb565b600801546040516001600160a01b039091169150600090829063439fab9190612a92908690602401615606565b604051602081830303815290604052915060e01b6020820180516001600160e01b03838183161783525050505090506110168282612add565b6000805160206156d483398151915290565b6060600080846001600160a01b031684604051612afa9190615619565b600060405180830381855af49150503d8060008114612b35576040519150601f19603f3d011682016040523d82523d6000602084013e612b3a565b606091505b50915091508115612b4e5791506111ba9050565b3d604051818101604052816000823e8181fd5b7fec7e8c1c441439dd40959777f4c577ea0cd42fcc1dbe59d2bd0f5d9c55df8dd8547fec7e8c1c441439dd40959777f4c577ea0cd42fcc1dbe59d2bd0f5d9c55df8dc980546000926000805160206156d4833981519152929161ffff909116908110612bcf57612bcf615635565b906000526020600020906003020191505090565b6000612bee82612f95565b50909392505050565b6000805160206156f483398151915254600160401b900460ff16612c4c5760405162461bcd60e51b815260206004820152600c60248201526b1b9bdd08185d1d1858da195960a21b6044820152606401610f35565b565b612c56612acb565b546001600160a01b03163314612c4c5760405162461bcd60e51b815260206004820152601d60248201527f6f6e6c79206173736574206d616e6167657220636f6e74726f6c6c65720000006044820152606401610f35565b60006001600160401b03821115612d165760405162461bcd60e51b815260206004820152602660248201527f53616665436173743a2076616c756520646f65736e27742066697420696e203660448201526534206269747360d01b6064820152608401610f35565b5090565b6000612d24612acb565b60048101549091506001600160a01b03161561199157600481810154604051633af32abf60e01b815233928101929092526001600160a01b031690633af32abf90602401602060405180830381865afa158015612d85573d6000803e3d6000fd5b505050506040513d601f19601f82011682018060405250810190612da99190614e73565b6119915760405162461bcd60e51b815260206004820152600f60248201526e1b9bdd081dda1a5d195b1a5cdd1959608a1b6044820152606401610f35565b7f5bebac0595fee029d42bb673937f5f1cb81cf8641382bc17774635de9b7d796568010000000000000000600160e01b03604083901b1618806000600483015460ff166002811115612e3b57612e3b613561565b1415612e895760405162461bcd60e51b815260206004820152601b60248201527f696e76616c6964206167656e74207661756c74206164647265737300000000006044820152606401610f35565b50919050565b600080612e9a612acb565b600101546001600160a01b031692915050565b7fec7e8c1c441439dd40959777f4c577ea0cd42fcc1dbe59d2bd0f5d9c55df8dd8547fec7e8c1c441439dd40959777f4c577ea0cd42fcc1dbe59d2bd0f5d9c55df8dc980546000926000805160206156d4833981519152929161ffff909116908110612f1b57612f1b615635565b60009182526020909120600390910201546001600160a01b031692915050565b60018201546000906000805160206156d4833981519152906001600160a01b03908116908416811480612f8c57506001600160a01b0380821660009081526016840160205260409020548582169116145b95945050505050565b600080600080612fa3612acb565b600981015460405163d75f6d8160e01b8152600160a01b820463ffffffff1660048201529192506001600160a01b031690600090829063d75f6d8190602401602060405180830381865afa158015612fff573d6000803e3d6000fd5b505050506040513d601f19601f82011682018060405250810190613023919061564b565b875460405163d75f6d8160e01b8152600160b01b90910461ffff1660048201529091506000906001600160a01b0384169063d75f6d8190602401602060405180830381865afa15801561307a573d6000803e3d6000fd5b505050506040513d601f19601f8201168201806040525081019061309e919061564b565b90506000806000846001600160a01b03166365f5cd866040518163ffffffff1660e01b8152600401606060405180830381865afa1580156130e3573d6000803e3d6000fd5b505050506040513d601f19601f8201168201806040525081019061310791906153f6565b9250925092506000806000866001600160a01b03166365f5cd866040518163ffffffff1660e01b8152600401606060405180830381865afa158015613150573d6000803e3d6000fd5b505050506040513d601f19601f8201168201806040525081019061317491906153f6565b925092509250600061319d8f60000160159054906101000a900460ff1660ff1685848a896131b3565b9f959e50919c50939a5050505050505050505050565b6000806131be612acb565b9050600060096131ce878a614715565b6131d89190614715565b60098301549091506000906131f8908690600160c81b900460ff16614715565b90508082101561320a5761320a615668565b61322a613217828461567e565b61322290600a6145b3565b87908a613237565b9998505050505050505050565b600080821161327b5760405162461bcd60e51b815260206004820152601060248201526f4469766973696f6e206279207a65726f60801b6044820152606401610f35565b8361328857506000611fb7565b8383028385828161329b5761329b615695565b0414156132ba578281816132b1576132b1615695565b04915050611fb7565b5060006132c783866156ab565b905060006132d584876156bf565b905060006132e385876156ab565b905060006132f186886156bf565b9050856132fe82856145bf565b61330891906156ab565b61331283856145bf565b61331c83876145bf565b8861332786896145bf565b61333191906145bf565b61333b9190614715565b6133459190614715565b61334f9190614715565b98975050505050505050565b60006020828403121561336d57600080fd5b81356001600160401b0381111561338357600080fd5b82016101408185031215611fb757600080fd5b6001600160a01b038116811461199157600080fd5b6000602082840312156133bd57600080fd5b8135611fb781613396565b80356133d381613396565b919050565b634e487b7160e01b600052604160045260246000fd5b60405161042081016001600160401b0381118282101715613411576134116133d8565b60405290565b60405160a081016001600160401b0381118282101715613411576134116133d8565b60405161010081016001600160401b0381118282101715613411576134116133d8565b604051601f8201601f191681016001600160401b0381118282101715613484576134846133d8565b604052919050565b60006001600160401b038211156134a5576134a56133d8565b50601f01601f191660200190565b600082601f8301126134c457600080fd5b81356134d76134d28261348c565b61345c565b8181528460208386010111156134ec57600080fd5b816020850160208301376000918101602001919091529392505050565b60008060006060848603121561351e57600080fd5b833561352981613396565b925060208401356001600160401b0381111561354457600080fd5b613550868287016134b3565b925050604084013590509250925092565b634e487b7160e01b600052602160045260246000fd5b6005811061358757613587613561565b9052565b60005b838110156135a657818101518382015260200161358e565b838111156110165750506000910152565b600081518084526135cf81602086016020860161358b565b601f01601f19169290920160200192915050565b602081526135f5602082018351613577565b6000602083015161361160408401826001600160a01b03169052565b5060408301516001600160a01b03811660608401525060608301516001600160a01b03811660808401525060808301516104208060a08501526136586104408501836135b7565b915060a085015161366d60c086018215159052565b5060c085015160e085015260e08501516101008181870152808701519150506101206136a3818701836001600160a01b03169052565b8601516101408681019190915286015161016080870191909152860151610180808701919091528601516101a0808701919091528601516101c0808701919091528601516101e08087019190915286015161020080870191909152860151610220808701919091528601516102408087019190915286015161026080870191909152860151610280808701919091528601516102a0808701919091528601516102c0808701919091528601516102e08087019190915286015161030080870191909152860151610320808701919091528601516103408087019190915286015161036080870191909152860151610380808701919091528601516103a0808701919091528601516103c0808701919091528601516103e080870191909152860151610400808701919091529095015193019290925250919050565b60006101c08284031215612e8957600080fd5b6000806040838503121561380457600080fd5b82356001600160401b0381111561381a57600080fd5b613826858286016137de565b95602094909401359450505050565b6003811061199157600080fd5b600080600080600060a0868803121561385a57600080fd5b853561386581613835565b9450602086013561387581613396565b94979496505050506040830135926060810135926080909101359150565b600080604083850312156138a657600080fd5b8235915060208301356001600160401b038111156138c357600080fd5b6138cf858286016134b3565b9150509250929050565b600080604083850312156138ec57600080fd5b82356001600160401b0381111561390257600080fd5b8301610160818603121561391557600080fd5b946020939093013593505050565b60006101008284031215612e8957600080fd5b60006020828403121561394857600080fd5b81356001600160401b0381111561395e57600080fd5b61396a84828501613923565b949350505050565b6000806040838503121561398557600080fd5b823561391581613396565b6000602082840312156139a257600080fd5b5035919050565b600080604083850312156139bc57600080fd5b82356001600160401b038111156139d257600080fd5b61382685828601613923565b60006101208284031215612e8957600080fd5b60008060408385031215613a0457600080fd5b82356001600160401b03811115613a1a57600080fd5b613a26858286016139de565b9250506020830135613a3781613396565b809150509250929050565b60008060408385031215613a5557600080fd5b8235613a6081613396565b91506020830135613a3781613396565b60008060408385031215613a8357600080fd5b50508035926020909101359150565b6040808252835182820181905260009190606090818501906020808901865b83811015613afc57815180516001600160a01b031686528381015184870152878101518887015286810151878701526080908101519086015260a09094019390820190600101613ab1565b505095909501959095525092949350505050565b600080600060408486031215613b2557600080fd5b83356001600160401b0380821115613b3c57600080fd5b818601915086601f830112613b5057600080fd5b813581811115613b5f57600080fd5b8760208260051b8501011115613b7457600080fd5b60209283019550935050840135613b8a81613396565b809150509250925092565b60208152613baf6020820183516001600160a01b03169052565b60006020830151613bcb60408401826001600160a01b03169052565b5060408301516001600160a01b03811660608401525060608301516001600160a01b03811660808401525060808301516001600160a01b03811660a08401525060a08301516001600160a01b03811660c08401525060c08301516001600160a01b03811660e08401525060e0830151610100613c51818501836001600160a01b03169052565b8401519050610120613c6d848201836001600160a01b03169052565b8401519050610140613c89848201836001600160a01b03169052565b8401519050610160613ca28482018363ffffffff169052565b8401519050610180613cb88482018360ff169052565b84015190506101a0613cce8482018360ff169052565b84015190506101c0613ce78482018363ffffffff169052565b808501519150506105c06101e08181860152613d076105e08601846135b7565b90860151909250610200613d25868201836001600160a01b03169052565b8601519050610220613d3a8682018315159052565b8601519050610240613d538682018363ffffffff169052565b8601519050610260613d6a8682018361ffff169052565b8601519050610280613d86868201836001600160401b03169052565b86015190506102a0613da2868201836001600160401b03169052565b86015190506102c0613dbe868201836001600160401b03169052565b86015190506102e0613dda868201836001600160401b03169052565b8601519050610300613df6868201836001600160401b03169052565b8601519050610320613e0b8682018315159052565b8601519050610340613e27868201836001600160401b03169052565b8601519050610360613e43868201836001600160401b03169052565b8601519050610380613e5a8682018361ffff169052565b86015190506103a0613e738682018363ffffffff169052565b86015190506103c0613e8c8682018363ffffffff169052565b86015190506103e0613ea8868201836001600160401b03169052565b8601519050610400613ec4868201836001600160801b03169052565b8601519050610420613edb8682018361ffff169052565b8601519050610440613ef28682018361ffff169052565b8601519050610460613f0e868201836001600160801b03169052565b8601519050610480613f2a868201836001600160401b03169052565b86015190506104a0613f46868201836001600160401b03169052565b86015190506104c0613f62868201836001600160401b03169052565b86015190506104e0613f7e868201836001600160401b03169052565b8601519050610500613f9a868201836001600160401b03169052565b8601519050610520613fb6868201836001600160401b03169052565b8601519050610540613fd2868201836001600160401b03169052565b8601519050610560613feb8682018363ffffffff169052565b8601519050610580614007868201836001600160401b03169052565b86015190506105a0614023868201836001600160401b03169052565b8601516001600160401b0381168387015290505b5090949350505050565b60006020828403121561405357600080fd5b81356001600160401b0381111561406957600080fd5b61396a848285016137de565b60008060006060848603121561408a57600080fd5b83356001600160401b038111156140a057600080fd5b6140ac868287016137de565b93505060208401356140bd81613396565b929592945050506040919091013590565b600080604083850312156140e157600080fd5b82356001600160401b038111156140f757600080fd5b613a26858286016137de565b6003811061199157611991613561565b6000610100825161412381614103565b84526020838101516001600160a01b0316908501526040808401519085015260608084015190850152608080840151908501829052614164828601826135b7565b91505060a083015160a085015260c083015160c085015260e083015160e08501528091505092915050565b6000602080830181845280855180835260408601915060408160051b870101925083870160005b828110156141e457603f198886030184526141d2858351614113565b945092850192908501906001016141b6565b5092979650505050505050565b801515811461199157600080fd5b80356133d3816141f1565b60006020828403121561421c57600080fd5b8135611fb7816141f1565b60008060006060848603121561423c57600080fd5b833561424781613396565b95602085013595506040909401359392505050565b604080825283519082018190526000906020906060840190828701845b8281101561429e5781516001600160a01b031684529284019290840190600101614279565b50505092019290925292915050565b600080604083850312156142c057600080fd5b82356142cb81613396565b915060208301356001600160401b038111156138c357600080fd5b6000806000606084860312156142fb57600080fd5b83356001600160401b038082111561431257600080fd5b61431e878388016139de565b9450602086013591508082111561433457600080fd5b50614341868287016139de565b9250506040840135613b8a81613396565b60008060006060848603121561436757600080fd5b833561437281613396565b925060208401356140bd81613396565b6000806000806080858703121561439857600080fd5b84356143a381613396565b935060208501356143b381613396565b92506040850135915060608501356001600160401b038111156143d557600080fd5b6143e1878288016134b3565b91505092959194509250565b60008060006040848603121561440257600080fd5b8335925060208401356001600160401b038082111561442057600080fd5b818601915086601f83011261443457600080fd5b81358181111561444357600080fd5b87602082850101111561445557600080fd5b6020830194508093505050509250925092565b6000806040838503121561447b57600080fd5b8235613a6081613835565b602081526000611fb76020830184614113565b6000806000606084860312156144ae57600080fd5b833561437281613835565b634e487b7160e01b600052601160045260246000fd5b600181815b8085111561450a5781600019048211156144f0576144f06144b9565b808516156144fd57918102915b93841c93908002906144d4565b509250929050565b600082614521575060016111ba565b8161452e575060006111ba565b8160018114614544576002811461454e5761456a565b60019150506111ba565b60ff84111561455f5761455f6144b9565b50506001821b6111ba565b5060208310610133831016604e8410600b841016171561458d575081810a6111ba565b61459783836144cf565b80600019048211156145ab576145ab6144b9565b029392505050565b6000611fb78383614512565b60008160001904831182151516156145d9576145d96144b9565b500290565b6000808335601e198436030181126145f557600080fd5b83016020810192503590506001600160401b0381111561461457600080fd5b8036038313156118b057600080fd5b81835281816020850137506000828201602090810191909152601f909101601f19169091010190565b61465584614103565b8381526001600160a01b038316602082015260606040820152600061467a83806145de565b6101408060608601526146926101a086018385614623565b92506146a0602087016133c8565b6001600160a01b03811660808701529150604086013560a0860152606086013560c0860152608086013560e0860152610100915060a08601358286015261012060c08701358187015260e087013582870152828701356101608701528087013561018087015250505080915050949350505050565b60008219821115614728576147286144b9565b500190565b6001600160a01b0384168152606060208201819052600090614751908301856135b7565b9050826040830152949350505050565b60006020828403121561477357600080fd5b5051919050565b8051600581106133d357600080fd5b80516133d381613396565b600082601f8301126147a557600080fd5b81516147b36134d28261348c565b8181528460208386010111156147c857600080fd5b61396a82602083016020870161358b565b80516133d3816141f1565b6000602082840312156147f657600080fd5b81516001600160401b038082111561480d57600080fd5b90830190610420828603121561482257600080fd5b61482a6133ee565b6148338361477a565b815261484160208401614789565b602082015261485260408401614789565b604082015261486360608401614789565b606082015260808301518281111561487a57600080fd5b61488687828601614794565b60808301525061489860a084016147d9565b60a082015260c083015160c082015260e083015160e082015261010091506148c1828401614789565b9181019190915261012082810151908201526101408083015190820152610160808301519082015261018080830151908201526101a080830151908201526101c080830151908201526101e08083015190820152610200808301519082015261022080830151908201526102408083015190820152610260808301519082015261028080830151908201526102a080830151908201526102c080830151908201526102e08083015190820152610300808301519082015261032080830151908201526103408083015190820152610360808301519082015261038080830151908201526103a080830151908201526103c080830151908201526103e0808301519082015261040091820151918101919091529392505050565b6000808335601e198436030181126149f157600080fd5b83016020810192503590506001600160401b03811115614a1057600080fd5b8060051b36038313156118b057600080fd5b81835260006001600160fb1b03831115614a3b57600080fd5b8260051b8083602087013760009401602001938452509192915050565b80356001600160401b03811681146133d357600080fd5b803560ff811681146133d357600080fd5b60006101c082358452614a9660208401846149da565b826020870152614aa98387018284614a22565b92505050614ab960408401614a58565b6001600160401b03166040850152614ad360608401614a58565b6001600160401b0316606085015260808381013590850152614af760a08401614a6f565b60ff1660a0850152614b0b60c08401614a6f565b60ff1660c085015260e083810135908501526101008084013590850152610120808401359085015261014080840135908501526101608084013590850152610180614b578185016141ff565b1515908501526101a0614b6b848201614a6f565b60ff811686830152614037565b604081526000614b8b6040830185614a80565b90506001600160401b03831660208301529392505050565b60a08101614bb087614103565b9581526001600160a01b039490941660208501526040840192909252606083015260809091015290565b6001600160a01b03841681526001600160401b0383166020820152606060408201819052600090612f8c908301846135b7565b80356001600160801b03811681146133d357600080fd5b60408152823560408201526000614c3e60208501856149da565b610160806060860152614c566101a086018385614a22565b9250614c6460408801614a58565b6001600160401b03811660808701529150614c8160608801614a58565b6001600160401b03811660a08701529150608087013560c086015260a087013560e0860152614cb260c08801614c0d565b9150610100614ccb818701846001600160801b03169052565b614cd760e08901614a58565b9250610120614cf0818801856001600160401b03169052565b614cfb828a01614a58565b93506101409150614d16828801856001600160401b03169052565b614d21818a01614a58565b935050614d38828701846001600160401b03169052565b614d43818901614a58565b92505050614d5d6101808501826001600160401b03169052565b506001600160401b03841660208401529050611fb7565b600061010082358452614d8a60208401846149da565b826020870152614d9d8387018284614a22565b92505050614dad60408401614a58565b6001600160401b03808216604087015280614dca60608701614a58565b16606087015260ff614dde60808701614a6f565b16608087015280614df160a08701614a58565b1660a08701525050614e0560c08401614a58565b6001600160401b031660c0850152614e1f60e08401614a58565b6001600160401b03811660e0860152509392505050565b602081526000611fb76020830184614d74565b60608101614e5685614103565b9381526001600160a01b0392909216602083015260409091015290565b600060208284031215614e8557600080fd5b8151611fb7816141f1565b604081526000614b8b6040830185614d74565b600061012082358452614eb960208401846149da565b826020870152614ecc8387018284614a22565b925050506001600160401b03614ee460408501614a58565b166040850152614ef660608401614a58565b6001600160401b0316606085015260808381013590850152614f1a60a08401614a6f565b60ff1660a085015260c0838101359085015260e080840135908501526101009283013592909301919091525090565b604081526000614f5c6040830185614ea3565b905060018060a01b03831660208301529392505050565b60008060408385031215614f8657600080fd5b8251614f9181613396565b6020840151909250613a3781613396565b60006001600160401b03821115614fbb57614fbb6133d8565b5060051b60200190565b6000806040808486031215614fd957600080fd5b83516001600160401b03811115614fef57600080fd5b8401601f8101861361500057600080fd5b805160206150106134d283614fa2565b82815260a0928302840182019282820191908a85111561502f57600080fd5b948301945b848610156150945780868c03121561504c5760008081fd5b615054613417565b865161505f81613396565b815286850151858201528787015188820152606080880151908201526080808801519082015283529485019491830191615034565b5097909101519698969750505050505050565b6040808252810183905260006060600585901b830181019083018683805b8881101561510d57868503605f190184528235368b900361011e190181126150eb578283fd5b6150f7868c8301614ea3565b95505060209384019392909201916001016150c5565b505050506001600160a01b0393909316602092909201919091525092915050565b600181811c9082168061514257607f821691505b60208210811415612e8957634e487b7160e01b600052602260045260246000fd5b602081526000611fb76020830184614a80565b6020808252601f908201527f5265656e7472616e637947756172643a207265656e7472616e742063616c6c00604082015260600190565b6060815260006151c06060830186614a80565b6001600160a01b03949094166020830152506001600160401b0391909116604090910152919050565b60208152600082356151fa81613835565b61520381614103565b80602084015250602083013561521881613396565b6001600160a01b038116604084015250604083013560608301526060830135608083015261524960808401846145de565b6101008060a086015261526161012086018385614623565b925060a086013560c086015260c086013560e086015260e08601358186015250508091505092915050565b604081526000614f5c6040830185614a80565b80516133d381613835565b600061010082840312156152bd57600080fd5b6152c5613439565b90506152d08261529f565b81526152de60208301614789565b6020820152604082015160408201526060820151606082015260808201516001600160401b0381111561531057600080fd5b61531c84828501614794565b60808301525060a082015160a082015260c082015160c082015260e082015160e082015292915050565b6000602080838503121561535957600080fd5b82516001600160401b038082111561537057600080fd5b818501915085601f83011261538457600080fd5b81516153926134d282614fa2565b81815260059190911b830184019084810190888311156153b157600080fd5b8585015b838110156153e9578051858111156153cd5760008081fd5b6153db8b89838a01016152aa565b8452509186019186016153b5565b5098975050505050505050565b60008060006060848603121561540b57600080fd5b8351925060208401519150604084015190509250925092565b6000806040838503121561543757600080fd5b82516001600160401b0381111561544d57600080fd5b8301601f8101851361545e57600080fd5b8051602061546e6134d283614fa2565b82815260059290921b8301810191818101908884111561548d57600080fd5b938201935b838510156154b45784516154a581613396565b82529382019390820190615492565b969091015195979596505050505050565b6001600160a01b038316815260406020820181905260009061396a908301846135b7565b6060815260006154fc6060830186614ea3565b828103602084015261550e8186614ea3565b91505060018060a01b0383166040830152949350505050565b60006001600160401b038083168185168183048111821515161561554d5761554d6144b9565b02949350505050565b6001600160a01b0385811682528416602082015260408101839052608060608201819052600090615589908301846135b7565b9695505050505050565b838152604060208201526000612f8c604083018486614623565b604081016155ba84614103565b9281526001600160a01b039190911660209091015290565b6000602082840312156155e457600080fd5b81516001600160401b038111156155fa57600080fd5b61396a848285016152aa565b602081526000611fb760208301846135b7565b6000825161562b81846020870161358b565b9190910192915050565b634e487b7160e01b600052603260045260246000fd5b60006020828403121561565d57600080fd5b8151611fb781613396565b634e487b7160e01b600052600160045260246000fd5b600082821015615690576156906144b9565b500390565b634e487b7160e01b600052601260045260246000fd5b6000826156ba576156ba615695565b500490565b6000826156ce576156ce615695565b50069056feec7e8c1c441439dd40959777f4c577ea0cd42fcc1dbe59d2bd0f5d9c55df8db6ec7e8c1c441439dd40959777f4c577ea0cd42fcc1dbe59d2bd0f5d9c55df8dd9a26469706673582212202be92144c65dd479f4547e2938010855ba01dab8d01ba9fc854bd2434e7ee86364736f6c634300080b0033",
  "linkReferences": {
    "contracts/fasset/library/AgentSettingsUpdater.sol": {
      "AgentSettingsUpdater": [
        {
          "length": 20,
          "start": 8119
        },
        {
          "length": 20,
          "start": 13966
        }
      ]
    },
    "contracts/fasset/library/AgentsCreateDestroy.sol": {
      "AgentsCreateDestroy": [
        {
          "length": 20,
          "start": 7612
        },
        {
          "length": 20,
          "start": 9870
        },
        {
          "length": 20,
          "start": 10243
        },
        {
          "length": 20,
          "start": 11882
        },
        {
          "length": 20,
          "start": 12820
        },
        {
          "length": 20,
          "start": 13004
        }
      ]
    },
    "contracts/fasset/library/AgentsExternal.sol": {
      "AgentsExternal": [
        {
          "length": 20,
          "start": 7808
        },
        {
          "length": 20,
          "start": 9107
        },
        {
          "length": 20,
          "start": 9195
        },
        {
          "length": 20,
          "start": 9998
        },
        {
          "length": 20,
          "start": 10067
        },
        {
          "length": 20,
          "start": 12135
        },
        {
          "length": 20,
          "start": 14256
        },
        {
          "length": 20,
          "start": 14792
        },
        {
          "length": 20,
          "start": 14841
        }
      ]
    },
    "contracts/fasset/library/AvailableAgents.sol": {
      "AvailableAgents": [
        {
          "length": 20,
          "start": 7738
        },
        {
          "length": 20,
          "start": 9401
        },
        {
          "length": 20,
          "start": 9934
        },
        {
          "length": 20,
          "start": 10327
        },
        {
          "length": 20,
          "start": 13853
        }
      ]
    },
    "contracts/fasset/library/Challenges.sol": {
      "Challenges": [
        {
          "length": 20,
          "start": 9798
        },
        {
          "length": 20,
          "start": 10460
        },
        {
          "length": 20,
          "start": 14031
        }
      ]
    },
    "contracts/fasset/library/CollateralReservations.sol": {
      "CollateralReservations": [
        {
          "length": 20,
          "start": 9233
        },
        {
          "length": 20,
          "start": 10171
        },
        {
          "length": 20,
          "start": 13214
        },
        {
          "length": 20,
          "start": 13621
        }
      ]
    },
    "contracts/fasset/library/CollateralTokens.sol": {
      "CollateralTokens": [
        {
          "length": 20,
          "start": 177
        },
        {
          "length": 20,
          "start": 8794
        },
        {
          "length": 20,
          "start": 12394
        },
        {
          "length": 20,
          "start": 12495
        },
        {
          "length": 20,
          "start": 13778
        },
        {
          "length": 20,
          "start": 14651
        },
        {
          "length": 20,
          "start": 14909
        }
      ]
    },
    "contracts/fasset/library/FullAgentInfo.sol": {
      "FullAgentInfo": [
        {
          "length": 20,
          "start": 8550
        }
      ]
    },
    "contracts/fasset/library/Liquidation.sol": {
      "Liquidation": [
        {
          "length": 20,
          "start": 12884
        },
        {
          "length": 20,
          "start": 13088
        },
        {
          "length": 20,
          "start": 13721
        }
      ]
    },
    "contracts/fasset/library/Minting.sol": {
      "Minting": [
        {
          "length": 20,
          "start": 11972
        },
        {
          "length": 20,
          "start": 13375
        }
      ]
    },
    "contracts/fasset/library/RedemptionConfirmations.sol": {
      "RedemptionConfirmations": [
        {
          "length": 20,
          "start": 8656
        }
      ]
    },
    "contracts/fasset/library/RedemptionFailures.sol": {
      "RedemptionFailures": [
        {
          "length": 20,
          "start": 8974
        },
        {
          "length": 20,
          "start": 9712
        }
      ]
    },
    "contracts/fasset/library/RedemptionRequests.sol": {
      "RedemptionRequests": [
        {
          "length": 20,
          "start": 8907
        },
        {
          "length": 20,
          "start": 12273
        },
        {
          "length": 20,
          "start": 14189
        },
        {
          "length": 20,
          "start": 14362
        }
      ]
    },
    "contracts/fasset/library/SettingsUpdater.sol": {
      "SettingsUpdater": [
        {
          "length": 20,
          "start": 72
        },
        {
          "length": 20,
          "start": 14510
        }
      ]
    },
    "contracts/fasset/library/StateUpdater.sol": {
      "StateUpdater": [
        {
          "length": 20,
          "start": 9052
        }
      ]
    },
    "contracts/fasset/library/UnderlyingFreeBalance.sol": {
      "UnderlyingFreeBalance": [
        {
          "length": 20,
          "start": 14305
        }
      ]
    },
    "contracts/fasset/library/UnderlyingWithdrawalAnnouncements.sol": {
      "UnderlyingWithdrawalAnnouncements": [
        {
          "length": 20,
          "start": 12337
        },
        {
          "length": 20,
          "start": 12449
        },
        {
          "length": 20,
          "start": 13525
        }
      ]
    }
  },
  "deployedLinkReferences": {
    "contracts/fasset/library/AgentSettingsUpdater.sol": {
      "AgentSettingsUpdater": [
        {
          "length": 20,
          "start": 4009
        },
        {
          "length": 20,
          "start": 9856
        }
      ]
    },
    "contracts/fasset/library/AgentsCreateDestroy.sol": {
      "AgentsCreateDestroy": [
        {
          "length": 20,
          "start": 3502
        },
        {
          "length": 20,
          "start": 5760
        },
        {
          "length": 20,
          "start": 6133
        },
        {
          "length": 20,
          "start": 7772
        },
        {
          "length": 20,
          "start": 8710
        },
        {
          "length": 20,
          "start": 8894
        }
      ]
    },
    "contracts/fasset/library/AgentsExternal.sol": {
      "AgentsExternal": [
        {
          "length": 20,
          "start": 3698
        },
        {
          "length": 20,
          "start": 4997
        },
        {
          "length": 20,
          "start": 5085
        },
        {
          "length": 20,
          "start": 5888
        },
        {
          "length": 20,
          "start": 5957
        },
        {
          "length": 20,
          "start": 8025
        },
        {
          "length": 20,
          "start": 10146
        },
        {
          "length": 20,
          "start": 10682
        },
        {
          "length": 20,
          "start": 10731
        }
      ]
    },
    "contracts/fasset/library/AvailableAgents.sol": {
      "AvailableAgents": [
        {
          "length": 20,
          "start": 3628
        },
        {
          "length": 20,
          "start": 5291
        },
        {
          "length": 20,
          "start": 5824
        },
        {
          "length": 20,
          "start": 6217
        },
        {
          "length": 20,
          "start": 9743
        }
      ]
    },
    "contracts/fasset/library/Challenges.sol": {
      "Challenges": [
        {
          "length": 20,
          "start": 5688
        },
        {
          "length": 20,
          "start": 6350
        },
        {
          "length": 20,
          "start": 9921
        }
      ]
    },
    "contracts/fasset/library/CollateralReservations.sol": {
      "CollateralReservations": [
        {
          "length": 20,
          "start": 5123
        },
        {
          "length": 20,
          "start": 6061
        },
        {
          "length": 20,
          "start": 9104
        },
        {
          "length": 20,
          "start": 9511
        }
      ]
    },
    "contracts/fasset/library/CollateralTokens.sol": {
      "CollateralTokens": [
        {
          "length": 20,
          "start": 4684
        },
        {
          "length": 20,
          "start": 8284
        },
        {
          "length": 20,
          "start": 8385
        },
        {
          "length": 20,
          "start": 9668
        },
        {
          "length": 20,
          "start": 10541
        },
        {
          "length": 20,
          "start": 10799
        }
      ]
    },
    "contracts/fasset/library/FullAgentInfo.sol": {
      "FullAgentInfo": [
        {
          "length": 20,
          "start": 4440
        }
      ]
    },
    "contracts/fasset/library/Liquidation.sol": {
      "Liquidation": [
        {
          "length": 20,
          "start": 8774
        },
        {
          "length": 20,
          "start": 8978
        },
        {
          "length": 20,
          "start": 9611
        }
      ]
    },
    "contracts/fasset/library/Minting.sol": {
      "Minting": [
        {
          "length": 20,
          "start": 7862
        },
        {
          "length": 20,
          "start": 9265
        }
      ]
    },
    "contracts/fasset/library/RedemptionConfirmations.sol": {
      "RedemptionConfirmations": [
        {
          "length": 20,
          "start": 4546
        }
      ]
    },
    "contracts/fasset/library/RedemptionFailures.sol": {
      "RedemptionFailures": [
        {
          "length": 20,
          "start": 4864
        },
        {
          "length": 20,
          "start": 5602
        }
      ]
    },
    "contracts/fasset/library/RedemptionRequests.sol": {
      "RedemptionRequests": [
        {
          "length": 20,
          "start": 4797
        },
        {
          "length": 20,
          "start": 8163
        },
        {
          "length": 20,
          "start": 10079
        },
        {
          "length": 20,
          "start": 10252
        }
      ]
    },
    "contracts/fasset/library/SettingsUpdater.sol": {
      "SettingsUpdater": [
        {
          "length": 20,
          "start": 10400
        }
      ]
    },
    "contracts/fasset/library/StateUpdater.sol": {
      "StateUpdater": [
        {
          "length": 20,
          "start": 4942
        }
      ]
    },
    "contracts/fasset/library/UnderlyingFreeBalance.sol": {
      "UnderlyingFreeBalance": [
        {
          "length": 20,
          "start": 10195
        }
      ]
    },
    "contracts/fasset/library/UnderlyingWithdrawalAnnouncements.sol": {
      "UnderlyingWithdrawalAnnouncements": [
        {
          "length": 20,
          "start": 8227
        },
        {
          "length": 20,
          "start": 8339
        },
        {
          "length": 20,
          "start": 9415
        }
      ]
    }
  }
}