{
  "_format": "hh-sol-artifact-1",
  "contractName": "AssetManager",
  "sourceName": "contracts/fasset/implementation/AssetManager.sol",
  "abi": [
    {
      "inputs": [
        {
          "components": [
            {
              "internalType": "address",
              "name": "assetManagerController",
              "type": "address"
            },
            {
              "internalType": "contract IFAsset",
              "name": "fAsset",
              "type": "address"
            },
            {
              "internalType": "contract IAgentVaultFactory",
              "name": "agentVaultFactory",
              "type": "address"
            },
            {
              "internalType": "contract ICollateralPoolFactory",
              "name": "collateralPoolFactory",
              "type": "address"
            },
            {
              "internalType": "contract IWhitelist",
              "name": "whitelist",
              "type": "address"
            },
            {
              "internalType": "contract IWhitelist",
              "name": "agentWhitelist",
              "type": "address"
            },
            {
              "internalType": "contract IAttestationClient",
              "name": "attestationClient",
              "type": "address"
            },
            {
              "internalType": "contract IAddressValidator",
              "name": "underlyingAddressValidator",
              "type": "address"
            },
            {
              "internalType": "address",
              "name": "liquidationStrategy",
              "type": "address"
            },
            {
              "internalType": "contract IFtsoRegistry",
              "name": "ftsoRegistry",
              "type": "address"
            },
            {
              "internalType": "uint8",
              "name": "assetDecimals",
              "type": "uint8"
            },
            {
              "internalType": "uint8",
              "name": "assetMintingDecimals",
              "type": "uint8"
            },
            {
              "internalType": "uint32",
              "name": "mintingPoolHoldingsRequiredBIPS",
              "type": "uint32"
            },
            {
              "internalType": "address payable",
              "name": "burnAddress",
              "type": "address"
            },
            {
              "internalType": "bool",
              "name": "burnWithSelfDestruct",
              "type": "bool"
            },
            {
              "internalType": "uint32",
              "name": "chainId",
              "type": "uint32"
            },
            {
              "internalType": "uint16",
              "name": "collateralReservationFeeBIPS",
              "type": "uint16"
            },
            {
              "internalType": "uint64",
              "name": "assetUnitUBA",
              "type": "uint64"
            },
            {
              "internalType": "uint64",
              "name": "assetMintingGranularityUBA",
              "type": "uint64"
            },
            {
              "internalType": "uint64",
              "name": "lotSizeAMG",
              "type": "uint64"
            },
            {
              "internalType": "uint64",
              "name": "mintingCapAMG",
              "type": "uint64"
            },
            {
              "internalType": "uint64",
              "name": "maxTrustedPriceAgeSeconds",
              "type": "uint64"
            },
            {
              "internalType": "bool",
              "name": "requireEOAAddressProof",
              "type": "bool"
            },
            {
              "internalType": "uint64",
              "name": "underlyingBlocksForPayment",
              "type": "uint64"
            },
            {
              "internalType": "uint64",
              "name": "underlyingSecondsForPayment",
              "type": "uint64"
            },
            {
              "internalType": "uint16",
              "name": "redemptionFeeBIPS",
              "type": "uint16"
            },
            {
              "internalType": "uint32",
              "name": "redemptionDefaultFactorAgentC1BIPS",
              "type": "uint32"
            },
            {
              "internalType": "uint32",
              "name": "redemptionDefaultFactorPoolBIPS",
              "type": "uint32"
            },
            {
              "internalType": "uint64",
              "name": "confirmationByOthersAfterSeconds",
              "type": "uint64"
            },
            {
              "internalType": "uint128",
              "name": "confirmationByOthersRewardUSD5",
              "type": "uint128"
            },
            {
              "internalType": "uint16",
              "name": "maxRedeemedTickets",
              "type": "uint16"
            },
            {
              "internalType": "uint16",
              "name": "paymentChallengeRewardBIPS",
              "type": "uint16"
            },
            {
              "internalType": "uint128",
              "name": "paymentChallengeRewardUSD5",
              "type": "uint128"
            },
            {
              "internalType": "uint64",
              "name": "withdrawalWaitMinSeconds",
              "type": "uint64"
            },
            {
              "internalType": "uint64",
              "name": "ccbTimeSeconds",
              "type": "uint64"
            },
            {
              "internalType": "uint64",
              "name": "attestationWindowSeconds",
              "type": "uint64"
            },
            {
              "internalType": "uint64",
              "name": "minUpdateRepeatTimeSeconds",
              "type": "uint64"
            },
            {
              "internalType": "uint64",
              "name": "buybackCollateralFactorBIPS",
              "type": "uint64"
            },
            {
              "internalType": "uint64",
              "name": "announcedUnderlyingConfirmationMinSeconds",
              "type": "uint64"
            },
            {
              "internalType": "uint64",
              "name": "tokenInvalidationTimeMinSeconds",
              "type": "uint64"
            },
            {
              "internalType": "uint32",
              "name": "class1BuyForFlareFactorBIPS",
              "type": "uint32"
            },
            {
              "internalType": "uint64",
              "name": "agentExitAvailableTimelockSeconds",
              "type": "uint64"
            },
            {
              "internalType": "uint64",
              "name": "agentFeeChangeTimelockSeconds",
              "type": "uint64"
            },
            {
              "internalType": "uint64",
              "name": "agentCollateralRatioChangeTimelockSeconds",
              "type": "uint64"
            }
          ],
          "internalType": "struct AssetManagerSettings.Data",
          "name": "_settings",
          "type": "tuple"
        },
        {
          "components": [
            {
              "internalType": "enum IAssetManager.CollateralTokenClass",
              "name": "tokenClass",
              "type": "uint8"
            },
            {
              "internalType": "contract IERC20",
              "name": "token",
              "type": "address"
            },
            {
              "internalType": "uint256",
              "name": "decimals",
              "type": "uint256"
            },
            {
              "internalType": "uint256",
              "name": "validUntil",
              "type": "uint256"
            },
            {
              "internalType": "bool",
              "name": "directPricePair",
              "type": "bool"
            },
            {
              "internalType": "string",
              "name": "assetFtsoSymbol",
              "type": "string"
            },
            {
              "internalType": "string",
              "name": "tokenFtsoSymbol",
              "type": "string"
            },
            {
              "internalType": "uint256",
              "name": "minCollateralRatioBIPS",
              "type": "uint256"
            },
            {
              "internalType": "uint256",
              "name": "ccbMinCollateralRatioBIPS",
              "type": "uint256"
            },
            {
              "internalType": "uint256",
              "name": "safetyMinCollateralRatioBIPS",
              "type": "uint256"
            }
          ],
          "internalType": "struct IAssetManager.CollateralTokenInfo[]",
          "name": "_initialCollateralTypes",
          "type": "tuple[]"
        },
        {
          "internalType": "bytes",
          "name": "_initialLiquidationSettings",
          "type": "bytes"
        }
      ],
      "stateMutability": "nonpayable",
      "type": "constructor"
    },
    {
      "anonymous": false,
      "inputs": [
        {
          "indexed": true,
          "internalType": "address",
          "name": "agentVault",
          "type": "address"
        },
        {
          "indexed": false,
          "internalType": "uint256",
          "name": "feeBIPS",
          "type": "uint256"
        },
        {
          "indexed": false,
          "internalType": "uint256",
          "name": "mintingClass1CollateralRatioBIPS",
          "type": "uint256"
        },
        {
          "indexed": false,
          "internalType": "uint256",
          "name": "mintingPoolCollateralRatioBIPS",
          "type": "uint256"
        },
        {
          "indexed": false,
          "internalType": "uint256",
          "name": "freeCollateralLots",
          "type": "uint256"
        }
      ],
      "name": "AgentAvailable",
      "type": "event"
    },
    {
      "anonymous": false,
      "inputs": [
        {
          "indexed": true,
          "internalType": "address",
          "name": "owner",
          "type": "address"
        },
        {
          "indexed": false,
          "internalType": "uint8",
          "name": "agentType",
          "type": "uint8"
        },
        {
          "indexed": false,
          "internalType": "address",
          "name": "agentVault",
          "type": "address"
        },
        {
          "indexed": false,
          "internalType": "string",
          "name": "underlyingAddress",
          "type": "string"
        },
        {
          "indexed": false,
          "internalType": "address",
          "name": "collateralPool",
          "type": "address"
        }
      ],
      "name": "AgentCreated",
      "type": "event"
    },
    {
      "anonymous": false,
      "inputs": [
        {
          "indexed": true,
          "internalType": "address",
          "name": "agentVault",
          "type": "address"
        },
        {
          "indexed": false,
          "internalType": "uint256",
          "name": "destroyAllowedAt",
          "type": "uint256"
        }
      ],
      "name": "AgentDestroyAnnounced",
      "type": "event"
    },
    {
      "anonymous": false,
      "inputs": [
        {
          "indexed": true,
          "internalType": "address",
          "name": "agentVault",
          "type": "address"
        }
      ],
      "name": "AgentDestroyed",
      "type": "event"
    },
    {
      "anonymous": false,
      "inputs": [
        {
          "indexed": true,
          "internalType": "address",
          "name": "agentVault",
          "type": "address"
        },
        {
          "indexed": false,
          "internalType": "uint256",
          "name": "timestamp",
          "type": "uint256"
        }
      ],
      "name": "AgentInCCB",
      "type": "event"
    },
    {
      "anonymous": false,
      "inputs": [
        {
          "indexed": false,
          "internalType": "address",
          "name": "agentVault",
          "type": "address"
        },
        {
          "indexed": false,
          "internalType": "string",
          "name": "name",
          "type": "string"
        },
        {
          "indexed": false,
          "internalType": "uint256",
          "name": "value",
          "type": "uint256"
        },
        {
          "indexed": false,
          "internalType": "uint256",
          "name": "validAt",
          "type": "uint256"
        }
      ],
      "name": "AgentSettingChangeAnnounced",
      "type": "event"
    },
    {
      "anonymous": false,
      "inputs": [
        {
          "indexed": false,
          "internalType": "address",
          "name": "agentVault",
          "type": "address"
        },
        {
          "indexed": false,
          "internalType": "string",
          "name": "name",
          "type": "string"
        },
        {
          "indexed": false,
          "internalType": "uint256",
          "name": "value",
          "type": "uint256"
        }
      ],
      "name": "AgentSettingChanged",
      "type": "event"
    },
    {
      "anonymous": false,
      "inputs": [
        {
          "indexed": true,
          "internalType": "address",
          "name": "agentVault",
          "type": "address"
        },
        {
          "indexed": false,
          "internalType": "uint256",
          "name": "exitAllowedAt",
          "type": "uint256"
        }
      ],
      "name": "AvailableAgentExitAnnounced",
      "type": "event"
    },
    {
      "anonymous": false,
      "inputs": [
        {
          "indexed": true,
          "internalType": "address",
          "name": "agentVault",
          "type": "address"
        }
      ],
      "name": "AvailableAgentExited",
      "type": "event"
    },
    {
      "anonymous": false,
      "inputs": [
        {
          "indexed": true,
          "internalType": "address",
          "name": "agentVault",
          "type": "address"
        },
        {
          "indexed": false,
          "internalType": "uint256",
          "name": "amountWei",
          "type": "uint256"
        },
        {
          "indexed": false,
          "internalType": "uint256",
          "name": "withdrawalAllowedAt",
          "type": "uint256"
        }
      ],
      "name": "Class1WithdrawalAnnounced",
      "type": "event"
    },
    {
      "anonymous": false,
      "inputs": [
        {
          "indexed": true,
          "internalType": "address",
          "name": "agentVault",
          "type": "address"
        },
        {
          "indexed": true,
          "internalType": "address",
          "name": "minter",
          "type": "address"
        },
        {
          "indexed": false,
          "internalType": "uint256",
          "name": "collateralReservationId",
          "type": "uint256"
        },
        {
          "indexed": false,
          "internalType": "uint256",
          "name": "reservedAmountUBA",
          "type": "uint256"
        }
      ],
      "name": "CollateralReservationDeleted",
      "type": "event"
    },
    {
      "anonymous": false,
      "inputs": [
        {
          "indexed": true,
          "internalType": "address",
          "name": "agentVault",
          "type": "address"
        },
        {
          "indexed": true,
          "internalType": "address",
          "name": "minter",
          "type": "address"
        },
        {
          "indexed": false,
          "internalType": "uint256",
          "name": "collateralReservationId",
          "type": "uint256"
        },
        {
          "indexed": false,
          "internalType": "uint256",
          "name": "valueUBA",
          "type": "uint256"
        },
        {
          "indexed": false,
          "internalType": "uint256",
          "name": "feeUBA",
          "type": "uint256"
        },
        {
          "indexed": false,
          "internalType": "uint256",
          "name": "lastUnderlyingBlock",
          "type": "uint256"
        },
        {
          "indexed": false,
          "internalType": "uint256",
          "name": "lastUnderlyingTimestamp",
          "type": "uint256"
        },
        {
          "indexed": false,
          "internalType": "string",
          "name": "paymentAddress",
          "type": "string"
        },
        {
          "indexed": false,
          "internalType": "bytes32",
          "name": "paymentReference",
          "type": "bytes32"
        }
      ],
      "name": "CollateralReserved",
      "type": "event"
    },
    {
      "anonymous": false,
      "inputs": [
        {
          "indexed": false,
          "internalType": "uint8",
          "name": "tokenClass",
          "type": "uint8"
        },
        {
          "indexed": false,
          "internalType": "address",
          "name": "tokenContract",
          "type": "address"
        },
        {
          "indexed": false,
          "internalType": "bool",
          "name": "directPricePair",
          "type": "bool"
        },
        {
          "indexed": false,
          "internalType": "string",
          "name": "assetFtsoSymbol",
          "type": "string"
        },
        {
          "indexed": false,
          "internalType": "string",
          "name": "tokenFtsoSymbol",
          "type": "string"
        },
        {
          "indexed": false,
          "internalType": "uint256",
          "name": "minCollateralRatioBIPS",
          "type": "uint256"
        },
        {
          "indexed": false,
          "internalType": "uint256",
          "name": "ccbMinCollateralRatioBIPS",
          "type": "uint256"
        },
        {
          "indexed": false,
          "internalType": "uint256",
          "name": "safetyMinCollateralRatioBIPS",
          "type": "uint256"
        }
      ],
      "name": "CollateralTokenAdded",
      "type": "event"
    },
    {
      "anonymous": false,
      "inputs": [
        {
          "indexed": false,
          "internalType": "uint8",
          "name": "tokenClass",
          "type": "uint8"
        },
        {
          "indexed": false,
          "internalType": "address",
          "name": "tokenContract",
          "type": "address"
        },
        {
          "indexed": false,
          "internalType": "uint256",
          "name": "validUntil",
          "type": "uint256"
        }
      ],
      "name": "CollateralTokenDeprecated",
      "type": "event"
    },
    {
      "anonymous": false,
      "inputs": [
        {
          "indexed": false,
          "internalType": "uint8",
          "name": "tokenClass",
          "type": "uint8"
        },
        {
          "indexed": false,
          "internalType": "address",
          "name": "tokenContract",
          "type": "address"
        },
        {
          "indexed": false,
          "internalType": "uint256",
          "name": "minCollateralRatioBIPS",
          "type": "uint256"
        },
        {
          "indexed": false,
          "internalType": "uint256",
          "name": "ccbMinCollateralRatioBIPS",
          "type": "uint256"
        },
        {
          "indexed": false,
          "internalType": "uint256",
          "name": "safetyMinCollateralRatioBIPS",
          "type": "uint256"
        }
      ],
      "name": "CollateralTokenRatiosChanged",
      "type": "event"
    },
    {
      "anonymous": false,
      "inputs": [
        {
          "indexed": false,
          "internalType": "string",
          "name": "name",
          "type": "string"
        },
        {
          "indexed": false,
          "internalType": "address",
          "name": "value",
          "type": "address"
        }
      ],
      "name": "ContractChanged",
      "type": "event"
    },
    {
      "anonymous": false,
      "inputs": [
        {
          "indexed": true,
          "internalType": "address",
          "name": "agentVault",
          "type": "address"
        },
        {
          "indexed": false,
          "internalType": "bytes32",
          "name": "transactionHash1",
          "type": "bytes32"
        },
        {
          "indexed": false,
          "internalType": "bytes32",
          "name": "transactionHash2",
          "type": "bytes32"
        }
      ],
      "name": "DuplicatePaymentConfirmed",
      "type": "event"
    },
    {
      "anonymous": false,
      "inputs": [
        {
          "indexed": true,
          "internalType": "address",
          "name": "agentVault",
          "type": "address"
        },
        {
          "indexed": false,
          "internalType": "uint256",
          "name": "dustUBA",
          "type": "uint256"
        }
      ],
      "name": "DustChanged",
      "type": "event"
    },
    {
      "anonymous": false,
      "inputs": [
        {
          "indexed": true,
          "internalType": "address",
          "name": "agentVault",
          "type": "address"
        },
        {
          "indexed": false,
          "internalType": "uint256",
          "name": "redemptionTicketId",
          "type": "uint256"
        },
        {
          "indexed": false,
          "internalType": "uint256",
          "name": "valueUBA",
          "type": "uint256"
        }
      ],
      "name": "DustConvertedToTicket",
      "type": "event"
    },
    {
      "anonymous": false,
      "inputs": [
        {
          "indexed": true,
          "internalType": "address",
          "name": "agentVault",
          "type": "address"
        },
        {
          "indexed": false,
          "internalType": "uint256",
          "name": "timestamp",
          "type": "uint256"
        }
      ],
      "name": "FullLiquidationStarted",
      "type": "event"
    },
    {
      "anonymous": false,
      "inputs": [
        {
          "indexed": true,
          "internalType": "address",
          "name": "agentVault",
          "type": "address"
        },
        {
          "indexed": false,
          "internalType": "bytes32",
          "name": "transactionHash",
          "type": "bytes32"
        }
      ],
      "name": "IllegalPaymentConfirmed",
      "type": "event"
    },
    {
      "anonymous": false,
      "inputs": [
        {
          "indexed": true,
          "internalType": "address",
          "name": "agentVault",
          "type": "address"
        }
      ],
      "name": "LiquidationEnded",
      "type": "event"
    },
    {
      "anonymous": false,
      "inputs": [
        {
          "indexed": true,
          "internalType": "address",
          "name": "agentVault",
          "type": "address"
        },
        {
          "indexed": true,
          "internalType": "address",
          "name": "liquidator",
          "type": "address"
        },
        {
          "indexed": false,
          "internalType": "uint256",
          "name": "valueUBA",
          "type": "uint256"
        }
      ],
      "name": "LiquidationPerformed",
      "type": "event"
    },
    {
      "anonymous": false,
      "inputs": [
        {
          "indexed": true,
          "internalType": "address",
          "name": "agentVault",
          "type": "address"
        },
        {
          "indexed": false,
          "internalType": "uint256",
          "name": "timestamp",
          "type": "uint256"
        }
      ],
      "name": "LiquidationStarted",
      "type": "event"
    },
    {
      "anonymous": false,
      "inputs": [
        {
          "indexed": true,
          "internalType": "address",
          "name": "agentVault",
          "type": "address"
        },
        {
          "indexed": false,
          "internalType": "uint256",
          "name": "collateralReservationId",
          "type": "uint256"
        },
        {
          "indexed": false,
          "internalType": "uint256",
          "name": "redemptionTicketId",
          "type": "uint256"
        },
        {
          "indexed": false,
          "internalType": "uint256",
          "name": "mintedAmountUBA",
          "type": "uint256"
        },
        {
          "indexed": false,
          "internalType": "uint256",
          "name": "agentFeeUBA",
          "type": "uint256"
        },
        {
          "indexed": false,
          "internalType": "uint256",
          "name": "poolFeeUBA",
          "type": "uint256"
        }
      ],
      "name": "MintingExecuted",
      "type": "event"
    },
    {
      "anonymous": false,
      "inputs": [
        {
          "indexed": true,
          "internalType": "address",
          "name": "agentVault",
          "type": "address"
        },
        {
          "indexed": true,
          "internalType": "address",
          "name": "minter",
          "type": "address"
        },
        {
          "indexed": false,
          "internalType": "uint256",
          "name": "collateralReservationId",
          "type": "uint256"
        },
        {
          "indexed": false,
          "internalType": "uint256",
          "name": "reservedAmountUBA",
          "type": "uint256"
        }
      ],
      "name": "MintingPaymentDefault",
      "type": "event"
    },
    {
      "anonymous": false,
      "inputs": [
        {
          "indexed": true,
          "internalType": "address",
          "name": "agentVault",
          "type": "address"
        },
        {
          "indexed": false,
          "internalType": "uint256",
          "name": "amountWei",
          "type": "uint256"
        },
        {
          "indexed": false,
          "internalType": "uint256",
          "name": "withdrawalAllowedAt",
          "type": "uint256"
        }
      ],
      "name": "PoolTokenRedemptionAnnounced",
      "type": "event"
    },
    {
      "anonymous": false,
      "inputs": [
        {
          "indexed": true,
          "internalType": "address",
          "name": "agentVault",
          "type": "address"
        },
        {
          "indexed": true,
          "internalType": "address",
          "name": "redeemer",
          "type": "address"
        },
        {
          "indexed": false,
          "internalType": "uint256",
          "name": "redemptionAmountUBA",
          "type": "uint256"
        },
        {
          "indexed": false,
          "internalType": "uint256",
          "name": "redeemedClass1CollateralWei",
          "type": "uint256"
        },
        {
          "indexed": false,
          "internalType": "uint256",
          "name": "redeemedPoolCollateralWei",
          "type": "uint256"
        },
        {
          "indexed": false,
          "internalType": "uint64",
          "name": "requestId",
          "type": "uint64"
        }
      ],
      "name": "RedemptionDefault",
      "type": "event"
    },
    {
      "anonymous": false,
      "inputs": [
        {
          "indexed": true,
          "internalType": "address",
          "name": "agentVault",
          "type": "address"
        },
        {
          "indexed": false,
          "internalType": "int256",
          "name": "freedUnderlyingBalanceUBA",
          "type": "int256"
        },
        {
          "indexed": false,
          "internalType": "uint64",
          "name": "requestId",
          "type": "uint64"
        }
      ],
      "name": "RedemptionFinished",
      "type": "event"
    },
    {
      "anonymous": false,
      "inputs": [
        {
          "indexed": true,
          "internalType": "address",
          "name": "agentVault",
          "type": "address"
        },
        {
          "indexed": true,
          "internalType": "address",
          "name": "redeemer",
          "type": "address"
        },
        {
          "indexed": false,
          "internalType": "bytes32",
          "name": "transactionHash",
          "type": "bytes32"
        },
        {
          "indexed": false,
          "internalType": "uint256",
          "name": "redemptionAmountUBA",
          "type": "uint256"
        },
        {
          "indexed": false,
          "internalType": "uint64",
          "name": "requestId",
          "type": "uint64"
        }
      ],
      "name": "RedemptionPaymentBlocked",
      "type": "event"
    },
    {
      "anonymous": false,
      "inputs": [
        {
          "indexed": true,
          "internalType": "address",
          "name": "agentVault",
          "type": "address"
        },
        {
          "indexed": true,
          "internalType": "address",
          "name": "redeemer",
          "type": "address"
        },
        {
          "indexed": false,
          "internalType": "bytes32",
          "name": "transactionHash",
          "type": "bytes32"
        },
        {
          "indexed": false,
          "internalType": "uint64",
          "name": "requestId",
          "type": "uint64"
        },
        {
          "indexed": false,
          "internalType": "string",
          "name": "failureReason",
          "type": "string"
        }
      ],
      "name": "RedemptionPaymentFailed",
      "type": "event"
    },
    {
      "anonymous": false,
      "inputs": [
        {
          "indexed": true,
          "internalType": "address",
          "name": "agentVault",
          "type": "address"
        },
        {
          "indexed": true,
          "internalType": "address",
          "name": "redeemer",
          "type": "address"
        },
        {
          "indexed": false,
          "internalType": "bytes32",
          "name": "transactionHash",
          "type": "bytes32"
        },
        {
          "indexed": false,
          "internalType": "uint256",
          "name": "valueUBA",
          "type": "uint256"
        },
        {
          "indexed": false,
          "internalType": "uint64",
          "name": "requestId",
          "type": "uint64"
        }
      ],
      "name": "RedemptionPerformed",
      "type": "event"
    },
    {
      "anonymous": false,
      "inputs": [
        {
          "indexed": true,
          "internalType": "address",
          "name": "redeemer",
          "type": "address"
        },
        {
          "indexed": false,
          "internalType": "uint256",
          "name": "remainingLots",
          "type": "uint256"
        }
      ],
      "name": "RedemptionRequestIncomplete",
      "type": "event"
    },
    {
      "anonymous": false,
      "inputs": [
        {
          "indexed": true,
          "internalType": "address",
          "name": "agentVault",
          "type": "address"
        },
        {
          "indexed": false,
          "internalType": "uint256",
          "name": "requestId",
          "type": "uint256"
        },
        {
          "indexed": false,
          "internalType": "string",
          "name": "paymentAddress",
          "type": "string"
        },
        {
          "indexed": false,
          "internalType": "uint256",
          "name": "valueUBA",
          "type": "uint256"
        },
        {
          "indexed": false,
          "internalType": "uint256",
          "name": "feeUBA",
          "type": "uint256"
        },
        {
          "indexed": false,
          "internalType": "uint256",
          "name": "lastUnderlyingBlock",
          "type": "uint256"
        },
        {
          "indexed": false,
          "internalType": "uint256",
          "name": "lastUnderlyingTimestamp",
          "type": "uint256"
        },
        {
          "indexed": false,
          "internalType": "bytes32",
          "name": "paymentReference",
          "type": "bytes32"
        }
      ],
      "name": "RedemptionRequested",
      "type": "event"
    },
    {
      "anonymous": false,
      "inputs": [
        {
          "indexed": true,
          "internalType": "address",
          "name": "agentVault",
          "type": "address"
        },
        {
          "indexed": false,
          "internalType": "uint256",
          "name": "valueUBA",
          "type": "uint256"
        }
      ],
      "name": "SelfClose",
      "type": "event"
    },
    {
      "anonymous": false,
      "inputs": [
        {
          "indexed": false,
          "internalType": "string",
          "name": "name",
          "type": "string"
        },
        {
          "indexed": false,
          "internalType": "uint256[]",
          "name": "value",
          "type": "uint256[]"
        }
      ],
      "name": "SettingArrayChanged",
      "type": "event"
    },
    {
      "anonymous": false,
      "inputs": [
        {
          "indexed": false,
          "internalType": "string",
          "name": "name",
          "type": "string"
        },
        {
          "indexed": false,
          "internalType": "uint256",
          "name": "value",
          "type": "uint256"
        }
      ],
      "name": "SettingChanged",
      "type": "event"
    },
    {
      "anonymous": false,
      "inputs": [
        {
          "indexed": false,
          "internalType": "address",
          "name": "agentVault",
          "type": "address"
        },
        {
          "indexed": false,
          "internalType": "uint256",
          "name": "freeBalanceChangeUBA",
          "type": "uint256"
        }
      ],
      "name": "UnderlyingBalanceToppedUp",
      "type": "event"
    },
    {
      "anonymous": false,
      "inputs": [
        {
          "indexed": true,
          "internalType": "address",
          "name": "agentVault",
          "type": "address"
        },
        {
          "indexed": false,
          "internalType": "int256",
          "name": "freeBalance",
          "type": "int256"
        }
      ],
      "name": "UnderlyingFreeBalanceNegative",
      "type": "event"
    },
    {
      "anonymous": false,
      "inputs": [
        {
          "indexed": false,
          "internalType": "address",
          "name": "agentVault",
          "type": "address"
        },
        {
          "indexed": false,
          "internalType": "uint64",
          "name": "announcementId",
          "type": "uint64"
        },
        {
          "indexed": false,
          "internalType": "bytes32",
          "name": "paymentReference",
          "type": "bytes32"
        }
      ],
      "name": "UnderlyingWithdrawalAnnounced",
      "type": "event"
    },
    {
      "anonymous": false,
      "inputs": [
        {
          "indexed": false,
          "internalType": "address",
          "name": "agentVault",
          "type": "address"
        },
        {
          "indexed": false,
          "internalType": "uint64",
          "name": "announcementId",
          "type": "uint64"
        }
      ],
      "name": "UnderlyingWithdrawalCancelled",
      "type": "event"
    },
    {
      "anonymous": false,
      "inputs": [
        {
          "indexed": false,
          "internalType": "address",
          "name": "agentVault",
          "type": "address"
        },
        {
          "indexed": false,
          "internalType": "int256",
          "name": "spentUBA",
          "type": "int256"
        },
        {
          "indexed": false,
          "internalType": "bytes32",
          "name": "transactionHash",
          "type": "bytes32"
        },
        {
          "indexed": false,
          "internalType": "uint64",
          "name": "announcementId",
          "type": "uint64"
        }
      ],
      "name": "UnderlyingWithdrawalConfirmed",
      "type": "event"
    },
    {
      "inputs": [
        {
          "components": [
            {
              "internalType": "enum IAssetManager.CollateralTokenClass",
              "name": "tokenClass",
              "type": "uint8"
            },
            {
              "internalType": "contract IERC20",
              "name": "token",
              "type": "address"
            },
            {
              "internalType": "uint256",
              "name": "decimals",
              "type": "uint256"
            },
            {
              "internalType": "uint256",
              "name": "validUntil",
              "type": "uint256"
            },
            {
              "internalType": "bool",
              "name": "directPricePair",
              "type": "bool"
            },
            {
              "internalType": "string",
              "name": "assetFtsoSymbol",
              "type": "string"
            },
            {
              "internalType": "string",
              "name": "tokenFtsoSymbol",
              "type": "string"
            },
            {
              "internalType": "uint256",
              "name": "minCollateralRatioBIPS",
              "type": "uint256"
            },
            {
              "internalType": "uint256",
              "name": "ccbMinCollateralRatioBIPS",
              "type": "uint256"
            },
            {
              "internalType": "uint256",
              "name": "safetyMinCollateralRatioBIPS",
              "type": "uint256"
            }
          ],
          "internalType": "struct IAssetManager.CollateralTokenInfo",
          "name": "_data",
          "type": "tuple"
        }
      ],
      "name": "addCollateralToken",
      "outputs": [],
      "stateMutability": "nonpayable",
      "type": "function"
    },
    {
      "inputs": [
        {
          "internalType": "address",
          "name": "_agentVault",
          "type": "address"
        },
        {
          "internalType": "uint256",
          "name": "_valueNATWei",
          "type": "uint256"
        }
      ],
      "name": "announceAgentPoolTokenRedemption",
      "outputs": [],
      "stateMutability": "nonpayable",
      "type": "function"
    },
    {
      "inputs": [
        {
          "internalType": "address",
          "name": "_agentVault",
          "type": "address"
        },
        {
          "internalType": "string",
          "name": "_name",
          "type": "string"
        },
        {
          "internalType": "uint256",
          "name": "_value",
          "type": "uint256"
        }
      ],
      "name": "announceAgentSettingUpdate",
      "outputs": [],
      "stateMutability": "nonpayable",
      "type": "function"
    },
    {
      "inputs": [
        {
          "internalType": "address",
          "name": "_agentVault",
          "type": "address"
        },
        {
          "internalType": "uint256",
          "name": "_valueNATWei",
          "type": "uint256"
        }
      ],
      "name": "announceClass1CollateralWithdrawal",
      "outputs": [],
      "stateMutability": "nonpayable",
      "type": "function"
    },
    {
      "inputs": [
        {
          "internalType": "address",
          "name": "_agentVault",
          "type": "address"
        }
      ],
      "name": "announceDestroyAgent",
      "outputs": [],
      "stateMutability": "nonpayable",
      "type": "function"
    },
    {
      "inputs": [
        {
          "internalType": "address",
          "name": "_agentVault",
          "type": "address"
        }
      ],
      "name": "announceExitAvailableAgentList",
      "outputs": [],
      "stateMutability": "nonpayable",
      "type": "function"
    },
    {
      "inputs": [
        {
          "internalType": "address",
          "name": "_agentVault",
          "type": "address"
        }
      ],
      "name": "announceUnderlyingWithdrawal",
      "outputs": [],
      "stateMutability": "nonpayable",
      "type": "function"
    },
    {
      "inputs": [],
      "name": "assetManagerController",
      "outputs": [
        {
          "internalType": "address",
          "name": "",
          "type": "address"
        }
      ],
      "stateMutability": "view",
      "type": "function"
    },
    {
      "inputs": [],
      "name": "assetPriceNatWei",
      "outputs": [
        {
          "internalType": "uint256",
          "name": "_multiplier",
          "type": "uint256"
        },
        {
          "internalType": "uint256",
          "name": "_divisor",
          "type": "uint256"
        }
      ],
      "stateMutability": "view",
      "type": "function"
    },
    {
      "inputs": [
        {
          "internalType": "bool",
          "name": "attached",
          "type": "bool"
        }
      ],
      "name": "attachController",
      "outputs": [],
      "stateMutability": "nonpayable",
      "type": "function"
    },
    {
      "inputs": [
        {
          "internalType": "address",
          "name": "_agentVault",
          "type": "address"
        }
      ],
      "name": "buybackAgentCollateral",
      "outputs": [],
      "stateMutability": "nonpayable",
      "type": "function"
    },
    {
      "inputs": [
        {
          "internalType": "address",
          "name": "_agentVault",
          "type": "address"
        }
      ],
      "name": "cancelUnderlyingWithdrawal",
      "outputs": [],
      "stateMutability": "nonpayable",
      "type": "function"
    },
    {
      "inputs": [
        {
          "internalType": "contract IERC20",
          "name": "_token",
          "type": "address"
        }
      ],
      "name": "collateralDeposited",
      "outputs": [],
      "stateMutability": "nonpayable",
      "type": "function"
    },
    {
      "inputs": [
        {
          "internalType": "uint256",
          "name": "_lots",
          "type": "uint256"
        }
      ],
      "name": "collateralReservationFee",
      "outputs": [
        {
          "internalType": "uint256",
          "name": "_reservationFeeNATWei",
          "type": "uint256"
        }
      ],
      "stateMutability": "view",
      "type": "function"
    },
    {
      "inputs": [
        {
          "components": [
            {
              "internalType": "uint256",
              "name": "stateConnectorRound",
              "type": "uint256"
            },
            {
              "internalType": "bytes32[]",
              "name": "merkleProof",
              "type": "bytes32[]"
            },
            {
              "internalType": "uint64",
              "name": "blockNumber",
              "type": "uint64"
            },
            {
              "internalType": "uint64",
              "name": "blockTimestamp",
              "type": "uint64"
            },
            {
              "internalType": "bytes32",
              "name": "transactionHash",
              "type": "bytes32"
            },
            {
              "internalType": "uint8",
              "name": "inUtxo",
              "type": "uint8"
            },
            {
              "internalType": "uint8",
              "name": "utxo",
              "type": "uint8"
            },
            {
              "internalType": "bytes32",
              "name": "sourceAddressHash",
              "type": "bytes32"
            },
            {
              "internalType": "bytes32",
              "name": "receivingAddressHash",
              "type": "bytes32"
            },
            {
              "internalType": "int256",
              "name": "spentAmount",
              "type": "int256"
            },
            {
              "internalType": "int256",
              "name": "receivedAmount",
              "type": "int256"
            },
            {
              "internalType": "bytes32",
              "name": "paymentReference",
              "type": "bytes32"
            },
            {
              "internalType": "bool",
              "name": "oneToOne",
              "type": "bool"
            },
            {
              "internalType": "uint8",
              "name": "status",
              "type": "uint8"
            }
          ],
          "internalType": "struct IAttestationClient.Payment",
          "name": "_payment",
          "type": "tuple"
        },
        {
          "internalType": "uint256",
          "name": "_redemptionRequestId",
          "type": "uint256"
        }
      ],
      "name": "confirmRedemptionPayment",
      "outputs": [],
      "stateMutability": "nonpayable",
      "type": "function"
    },
    {
      "inputs": [
        {
          "components": [
            {
              "internalType": "uint256",
              "name": "stateConnectorRound",
              "type": "uint256"
            },
            {
              "internalType": "bytes32[]",
              "name": "merkleProof",
              "type": "bytes32[]"
            },
            {
              "internalType": "uint64",
              "name": "blockNumber",
              "type": "uint64"
            },
            {
              "internalType": "uint64",
              "name": "blockTimestamp",
              "type": "uint64"
            },
            {
              "internalType": "bytes32",
              "name": "transactionHash",
              "type": "bytes32"
            },
            {
              "internalType": "uint8",
              "name": "inUtxo",
              "type": "uint8"
            },
            {
              "internalType": "uint8",
              "name": "utxo",
              "type": "uint8"
            },
            {
              "internalType": "bytes32",
              "name": "sourceAddressHash",
              "type": "bytes32"
            },
            {
              "internalType": "bytes32",
              "name": "receivingAddressHash",
              "type": "bytes32"
            },
            {
              "internalType": "int256",
              "name": "spentAmount",
              "type": "int256"
            },
            {
              "internalType": "int256",
              "name": "receivedAmount",
              "type": "int256"
            },
            {
              "internalType": "bytes32",
              "name": "paymentReference",
              "type": "bytes32"
            },
            {
              "internalType": "bool",
              "name": "oneToOne",
              "type": "bool"
            },
            {
              "internalType": "uint8",
              "name": "status",
              "type": "uint8"
            }
          ],
          "internalType": "struct IAttestationClient.Payment",
          "name": "_payment",
          "type": "tuple"
        },
        {
          "internalType": "address",
          "name": "_agentVault",
          "type": "address"
        }
      ],
      "name": "confirmTopupPayment",
      "outputs": [],
      "stateMutability": "nonpayable",
      "type": "function"
    },
    {
      "inputs": [
        {
          "components": [
            {
              "internalType": "uint256",
              "name": "stateConnectorRound",
              "type": "uint256"
            },
            {
              "internalType": "bytes32[]",
              "name": "merkleProof",
              "type": "bytes32[]"
            },
            {
              "internalType": "uint64",
              "name": "blockNumber",
              "type": "uint64"
            },
            {
              "internalType": "uint64",
              "name": "blockTimestamp",
              "type": "uint64"
            },
            {
              "internalType": "bytes32",
              "name": "transactionHash",
              "type": "bytes32"
            },
            {
              "internalType": "uint8",
              "name": "inUtxo",
              "type": "uint8"
            },
            {
              "internalType": "uint8",
              "name": "utxo",
              "type": "uint8"
            },
            {
              "internalType": "bytes32",
              "name": "sourceAddressHash",
              "type": "bytes32"
            },
            {
              "internalType": "bytes32",
              "name": "receivingAddressHash",
              "type": "bytes32"
            },
            {
              "internalType": "int256",
              "name": "spentAmount",
              "type": "int256"
            },
            {
              "internalType": "int256",
              "name": "receivedAmount",
              "type": "int256"
            },
            {
              "internalType": "bytes32",
              "name": "paymentReference",
              "type": "bytes32"
            },
            {
              "internalType": "bool",
              "name": "oneToOne",
              "type": "bool"
            },
            {
              "internalType": "uint8",
              "name": "status",
              "type": "uint8"
            }
          ],
          "internalType": "struct IAttestationClient.Payment",
          "name": "_payment",
          "type": "tuple"
        },
        {
          "internalType": "address",
          "name": "_agentVault",
          "type": "address"
        }
      ],
      "name": "confirmUnderlyingWithdrawal",
      "outputs": [],
      "stateMutability": "nonpayable",
      "type": "function"
    },
    {
      "inputs": [],
      "name": "controllerAttached",
      "outputs": [
        {
          "internalType": "bool",
          "name": "",
          "type": "bool"
        }
      ],
      "stateMutability": "view",
      "type": "function"
    },
    {
      "inputs": [
        {
          "internalType": "address",
          "name": "_agentVault",
          "type": "address"
        }
      ],
      "name": "convertDustToTicket",
      "outputs": [],
      "stateMutability": "nonpayable",
      "type": "function"
    },
    {
      "inputs": [
        {
          "components": [
            {
              "internalType": "string",
              "name": "underlyingAddressString",
              "type": "string"
            },
            {
              "internalType": "contract IERC20",
              "name": "class1CollateralToken",
              "type": "address"
            },
            {
              "internalType": "uint256",
              "name": "feeBIPS",
              "type": "uint256"
            },
            {
              "internalType": "uint256",
              "name": "poolFeeShareBIPS",
              "type": "uint256"
            },
            {
              "internalType": "uint256",
              "name": "mintingClass1CollateralRatioBIPS",
              "type": "uint256"
            },
            {
              "internalType": "uint256",
              "name": "mintingPoolCollateralRatioBIPS",
              "type": "uint256"
            },
            {
              "internalType": "uint256",
              "name": "buyFAssetByAgentFactorBIPS",
              "type": "uint256"
            },
            {
              "internalType": "uint256",
              "name": "poolExitCollateralRatioBIPS",
              "type": "uint256"
            },
            {
              "internalType": "uint256",
              "name": "poolTopupCollateralRatioBIPS",
              "type": "uint256"
            },
            {
              "internalType": "uint256",
              "name": "poolTopupTokenPriceFactorBIPS",
              "type": "uint256"
            }
          ],
          "internalType": "struct IAssetManager.InitialAgentSettings",
          "name": "_settings",
          "type": "tuple"
        }
      ],
      "name": "createAgent",
      "outputs": [],
      "stateMutability": "nonpayable",
      "type": "function"
    },
    {
      "inputs": [],
      "name": "currentUnderlyingBlock",
      "outputs": [
        {
          "internalType": "uint256",
          "name": "_blockNumber",
          "type": "uint256"
        },
        {
          "internalType": "uint256",
          "name": "_blockTimestamp",
          "type": "uint256"
        }
      ],
      "stateMutability": "view",
      "type": "function"
    },
    {
      "inputs": [
        {
          "internalType": "enum IAssetManager.CollateralTokenClass",
          "name": "_tokenClass",
          "type": "uint8"
        },
        {
          "internalType": "contract IERC20",
          "name": "_token",
          "type": "address"
        },
        {
          "internalType": "uint256",
          "name": "_invalidationTimeSec",
          "type": "uint256"
        }
      ],
      "name": "deprecateCollateralToken",
      "outputs": [],
      "stateMutability": "nonpayable",
      "type": "function"
    },
    {
      "inputs": [
        {
          "internalType": "address",
          "name": "_agentVault",
          "type": "address"
        },
        {
          "internalType": "address payable",
          "name": "_recipient",
          "type": "address"
        }
      ],
      "name": "destroyAgent",
      "outputs": [],
      "stateMutability": "nonpayable",
      "type": "function"
    },
    {
      "inputs": [
        {
          "components": [
            {
              "internalType": "uint256",
              "name": "stateConnectorRound",
              "type": "uint256"
            },
            {
              "internalType": "bytes32[]",
              "name": "merkleProof",
              "type": "bytes32[]"
            },
            {
              "internalType": "uint64",
              "name": "blockNumber",
              "type": "uint64"
            },
            {
              "internalType": "uint64",
              "name": "blockTimestamp",
              "type": "uint64"
            },
            {
              "internalType": "bytes32",
              "name": "transactionHash",
              "type": "bytes32"
            },
            {
              "internalType": "uint8",
              "name": "inUtxo",
              "type": "uint8"
            },
            {
              "internalType": "bytes32",
              "name": "sourceAddressHash",
              "type": "bytes32"
            },
            {
              "internalType": "int256",
              "name": "spentAmount",
              "type": "int256"
            },
            {
              "internalType": "bytes32",
              "name": "paymentReference",
              "type": "bytes32"
            }
          ],
          "internalType": "struct IAttestationClient.BalanceDecreasingTransaction",
          "name": "_payment1",
          "type": "tuple"
        },
        {
          "components": [
            {
              "internalType": "uint256",
              "name": "stateConnectorRound",
              "type": "uint256"
            },
            {
              "internalType": "bytes32[]",
              "name": "merkleProof",
              "type": "bytes32[]"
            },
            {
              "internalType": "uint64",
              "name": "blockNumber",
              "type": "uint64"
            },
            {
              "internalType": "uint64",
              "name": "blockTimestamp",
              "type": "uint64"
            },
            {
              "internalType": "bytes32",
              "name": "transactionHash",
              "type": "bytes32"
            },
            {
              "internalType": "uint8",
              "name": "inUtxo",
              "type": "uint8"
            },
            {
              "internalType": "bytes32",
              "name": "sourceAddressHash",
              "type": "bytes32"
            },
            {
              "internalType": "int256",
              "name": "spentAmount",
              "type": "int256"
            },
            {
              "internalType": "bytes32",
              "name": "paymentReference",
              "type": "bytes32"
            }
          ],
          "internalType": "struct IAttestationClient.BalanceDecreasingTransaction",
          "name": "_payment2",
          "type": "tuple"
        },
        {
          "internalType": "address",
          "name": "_agentVault",
          "type": "address"
        }
      ],
      "name": "doublePaymentChallenge",
      "outputs": [],
      "stateMutability": "nonpayable",
      "type": "function"
    },
    {
      "inputs": [
        {
          "internalType": "address",
          "name": "_agentVault",
          "type": "address"
        }
      ],
      "name": "endLiquidation",
      "outputs": [],
      "stateMutability": "nonpayable",
      "type": "function"
    },
    {
      "inputs": [
        {
          "internalType": "address",
          "name": "_agentVault",
          "type": "address"
        },
        {
          "internalType": "string",
          "name": "_name",
          "type": "string"
        }
      ],
      "name": "executeAgentSettingUpdate",
      "outputs": [],
      "stateMutability": "nonpayable",
      "type": "function"
    },
    {
      "inputs": [
        {
          "components": [
            {
              "internalType": "uint256",
              "name": "stateConnectorRound",
              "type": "uint256"
            },
            {
              "internalType": "bytes32[]",
              "name": "merkleProof",
              "type": "bytes32[]"
            },
            {
              "internalType": "uint64",
              "name": "blockNumber",
              "type": "uint64"
            },
            {
              "internalType": "uint64",
              "name": "blockTimestamp",
              "type": "uint64"
            },
            {
              "internalType": "bytes32",
              "name": "transactionHash",
              "type": "bytes32"
            },
            {
              "internalType": "uint8",
              "name": "inUtxo",
              "type": "uint8"
            },
            {
              "internalType": "uint8",
              "name": "utxo",
              "type": "uint8"
            },
            {
              "internalType": "bytes32",
              "name": "sourceAddressHash",
              "type": "bytes32"
            },
            {
              "internalType": "bytes32",
              "name": "receivingAddressHash",
              "type": "bytes32"
            },
            {
              "internalType": "int256",
              "name": "spentAmount",
              "type": "int256"
            },
            {
              "internalType": "int256",
              "name": "receivedAmount",
              "type": "int256"
            },
            {
              "internalType": "bytes32",
              "name": "paymentReference",
              "type": "bytes32"
            },
            {
              "internalType": "bool",
              "name": "oneToOne",
              "type": "bool"
            },
            {
              "internalType": "uint8",
              "name": "status",
              "type": "uint8"
            }
          ],
          "internalType": "struct IAttestationClient.Payment",
          "name": "_payment",
          "type": "tuple"
        },
        {
          "internalType": "uint256",
          "name": "_collateralReservationId",
          "type": "uint256"
        }
      ],
      "name": "executeMinting",
      "outputs": [],
      "stateMutability": "nonpayable",
      "type": "function"
    },
    {
      "inputs": [
        {
          "internalType": "address",
          "name": "_agentVault",
          "type": "address"
        }
      ],
      "name": "exitAvailableAgentList",
      "outputs": [],
      "stateMutability": "nonpayable",
      "type": "function"
    },
    {
      "inputs": [],
      "name": "fAsset",
      "outputs": [
        {
          "internalType": "contract IERC20",
          "name": "",
          "type": "address"
        }
      ],
      "stateMutability": "view",
      "type": "function"
    },
    {
      "inputs": [
        {
          "components": [
            {
              "internalType": "uint256",
              "name": "stateConnectorRound",
              "type": "uint256"
            },
            {
              "internalType": "bytes32[]",
              "name": "merkleProof",
              "type": "bytes32[]"
            },
            {
              "internalType": "uint64",
              "name": "blockNumber",
              "type": "uint64"
            },
            {
              "internalType": "uint64",
              "name": "blockTimestamp",
              "type": "uint64"
            },
            {
              "internalType": "uint8",
              "name": "numberOfConfirmations",
              "type": "uint8"
            },
            {
              "internalType": "uint64",
              "name": "averageBlockProductionTimeMs",
              "type": "uint64"
            },
            {
              "internalType": "uint64",
              "name": "lowestQueryWindowBlockNumber",
              "type": "uint64"
            },
            {
              "internalType": "uint64",
              "name": "lowestQueryWindowBlockTimestamp",
              "type": "uint64"
            }
          ],
          "internalType": "struct IAttestationClient.ConfirmedBlockHeightExists",
          "name": "_proof",
          "type": "tuple"
        },
        {
          "internalType": "uint256",
          "name": "_redemptionRequestId",
          "type": "uint256"
        }
      ],
      "name": "finishRedemptionWithoutPayment",
      "outputs": [],
      "stateMutability": "nonpayable",
      "type": "function"
    },
    {
      "inputs": [
        {
          "components": [
            {
              "internalType": "uint256",
              "name": "stateConnectorRound",
              "type": "uint256"
            },
            {
              "internalType": "bytes32[]",
              "name": "merkleProof",
              "type": "bytes32[]"
            },
            {
              "internalType": "uint64",
              "name": "blockNumber",
              "type": "uint64"
            },
            {
              "internalType": "uint64",
              "name": "blockTimestamp",
              "type": "uint64"
            },
            {
              "internalType": "bytes32",
              "name": "transactionHash",
              "type": "bytes32"
            },
            {
              "internalType": "uint8",
              "name": "inUtxo",
              "type": "uint8"
            },
            {
              "internalType": "bytes32",
              "name": "sourceAddressHash",
              "type": "bytes32"
            },
            {
              "internalType": "int256",
              "name": "spentAmount",
              "type": "int256"
            },
            {
              "internalType": "bytes32",
              "name": "paymentReference",
              "type": "bytes32"
            }
          ],
          "internalType": "struct IAttestationClient.BalanceDecreasingTransaction[]",
          "name": "_payments",
          "type": "tuple[]"
        },
        {
          "internalType": "address",
          "name": "_agentVault",
          "type": "address"
        }
      ],
      "name": "freeBalanceNegativeChallenge",
      "outputs": [],
      "stateMutability": "nonpayable",
      "type": "function"
    },
    {
      "inputs": [
        {
          "internalType": "address",
          "name": "_agentVault",
          "type": "address"
        }
      ],
      "name": "getAgentInfo",
      "outputs": [
        {
          "components": [
            {
              "internalType": "enum FullAgentInfo.AgentStatusInfo",
              "name": "status",
              "type": "uint8"
            },
            {
              "internalType": "address",
              "name": "ownerColdWalletAddress",
              "type": "address"
            },
            {
              "internalType": "address",
              "name": "ownerHotWalletAddress",
              "type": "address"
            },
            {
              "internalType": "address",
              "name": "collateralPool",
              "type": "address"
            },
            {
              "internalType": "string",
              "name": "underlyingAddressString",
              "type": "string"
            },
            {
              "internalType": "bool",
              "name": "publiclyAvailable",
              "type": "bool"
            },
            {
              "internalType": "uint256",
              "name": "feeBIPS",
              "type": "uint256"
            },
            {
              "internalType": "uint256",
              "name": "poolFeeShareBIPS",
              "type": "uint256"
            },
            {
              "internalType": "contract IERC20",
              "name": "class1CollateralToken",
              "type": "address"
            },
            {
              "internalType": "uint256",
              "name": "mintingClass1CollateralRatioBIPS",
              "type": "uint256"
            },
            {
              "internalType": "uint256",
              "name": "mintingPoolCollateralRatioBIPS",
              "type": "uint256"
            },
            {
              "internalType": "uint256",
              "name": "freeCollateralLots",
              "type": "uint256"
            },
            {
              "internalType": "uint256",
              "name": "totalClass1CollateralWei",
              "type": "uint256"
            },
            {
              "internalType": "uint256",
              "name": "freeClass1CollateralWei",
              "type": "uint256"
            },
            {
              "internalType": "uint256",
              "name": "class1CollateralRatioBIPS",
              "type": "uint256"
            },
            {
              "internalType": "uint256",
              "name": "totalPoolCollateralNATWei",
              "type": "uint256"
            },
            {
              "internalType": "uint256",
              "name": "freePoolCollateralNATWei",
              "type": "uint256"
            },
            {
              "internalType": "uint256",
              "name": "poolCollateralRatioBIPS",
              "type": "uint256"
            },
            {
              "internalType": "uint256",
              "name": "totalAgentPoolTokensWei",
              "type": "uint256"
            },
            {
              "internalType": "uint256",
              "name": "freeAgentPoolTokensWei",
              "type": "uint256"
            },
            {
              "internalType": "uint256",
              "name": "mintedUBA",
              "type": "uint256"
            },
            {
              "internalType": "uint256",
              "name": "reservedUBA",
              "type": "uint256"
            },
            {
              "internalType": "uint256",
              "name": "redeemingUBA",
              "type": "uint256"
            },
            {
              "internalType": "uint256",
              "name": "poolRedeemingUBA",
              "type": "uint256"
            },
            {
              "internalType": "uint256",
              "name": "dustUBA",
              "type": "uint256"
            },
            {
              "internalType": "uint256",
              "name": "ccbStartTimestamp",
              "type": "uint256"
            },
            {
              "internalType": "uint256",
              "name": "liquidationStartTimestamp",
              "type": "uint256"
            },
            {
              "internalType": "int256",
              "name": "freeUnderlyingBalanceUBA",
              "type": "int256"
            },
            {
              "internalType": "uint256",
              "name": "announcedUnderlyingWithdrawalId",
              "type": "uint256"
            },
            {
              "internalType": "uint256",
              "name": "buyFAssetByAgentFactorBIPS",
              "type": "uint256"
            },
            {
              "internalType": "uint256",
              "name": "poolExitCollateralRatioBIPS",
              "type": "uint256"
            },
            {
              "internalType": "uint256",
              "name": "poolTopupCollateralRatioBIPS",
              "type": "uint256"
            },
            {
              "internalType": "uint256",
              "name": "poolTopupTokenPriceFactorBIPS",
              "type": "uint256"
            }
          ],
          "internalType": "struct FullAgentInfo.AgentInfo",
          "name": "",
          "type": "tuple"
        }
      ],
      "stateMutability": "view",
      "type": "function"
    },
    {
      "inputs": [
        {
          "internalType": "address",
          "name": "_agentVault",
          "type": "address"
        }
      ],
      "name": "getAgentVaultOwner",
      "outputs": [
        {
          "internalType": "address",
          "name": "_ownerColdAddress",
          "type": "address"
        },
        {
          "internalType": "address",
          "name": "_ownerHotAddress",
          "type": "address"
        }
      ],
      "stateMutability": "view",
      "type": "function"
    },
    {
      "inputs": [
        {
          "internalType": "uint256",
          "name": "_start",
          "type": "uint256"
        },
        {
          "internalType": "uint256",
          "name": "_end",
          "type": "uint256"
        }
      ],
      "name": "getAvailableAgentsDetailedList",
      "outputs": [
        {
          "components": [
            {
              "internalType": "address",
              "name": "agentVault",
              "type": "address"
            },
            {
              "internalType": "uint256",
              "name": "feeBIPS",
              "type": "uint256"
            },
            {
              "internalType": "uint256",
              "name": "mintingClass1CollateralRatioBIPS",
              "type": "uint256"
            },
            {
              "internalType": "uint256",
              "name": "mintingPoolCollateralRatioBIPS",
              "type": "uint256"
            },
            {
              "internalType": "uint256",
              "name": "freeCollateralLots",
              "type": "uint256"
            }
          ],
          "internalType": "struct AvailableAgents.AgentInfo[]",
          "name": "_agents",
          "type": "tuple[]"
        },
        {
          "internalType": "uint256",
          "name": "_totalLength",
          "type": "uint256"
        }
      ],
      "stateMutability": "view",
      "type": "function"
    },
    {
      "inputs": [
        {
          "internalType": "uint256",
          "name": "_start",
          "type": "uint256"
        },
        {
          "internalType": "uint256",
          "name": "_end",
          "type": "uint256"
        }
      ],
      "name": "getAvailableAgentsList",
      "outputs": [
        {
          "internalType": "address[]",
          "name": "_agents",
          "type": "address[]"
        },
        {
          "internalType": "uint256",
          "name": "_totalLength",
          "type": "uint256"
        }
      ],
      "stateMutability": "view",
      "type": "function"
    },
    {
      "inputs": [
        {
          "internalType": "address",
          "name": "_agentVault",
          "type": "address"
        }
      ],
      "name": "getCollateralPool",
      "outputs": [
        {
          "internalType": "address",
          "name": "",
          "type": "address"
        }
      ],
      "stateMutability": "view",
      "type": "function"
    },
    {
      "inputs": [
        {
          "internalType": "enum IAssetManager.CollateralTokenClass",
          "name": "_tokenClass",
          "type": "uint8"
        },
        {
          "internalType": "contract IERC20",
          "name": "_token",
          "type": "address"
        }
      ],
      "name": "getCollateralToken",
      "outputs": [
        {
          "components": [
            {
              "internalType": "enum IAssetManager.CollateralTokenClass",
              "name": "tokenClass",
              "type": "uint8"
            },
            {
              "internalType": "contract IERC20",
              "name": "token",
              "type": "address"
            },
            {
              "internalType": "uint256",
              "name": "decimals",
              "type": "uint256"
            },
            {
              "internalType": "uint256",
              "name": "validUntil",
              "type": "uint256"
            },
            {
              "internalType": "bool",
              "name": "directPricePair",
              "type": "bool"
            },
            {
              "internalType": "string",
              "name": "assetFtsoSymbol",
              "type": "string"
            },
            {
              "internalType": "string",
              "name": "tokenFtsoSymbol",
              "type": "string"
            },
            {
              "internalType": "uint256",
              "name": "minCollateralRatioBIPS",
              "type": "uint256"
            },
            {
              "internalType": "uint256",
              "name": "ccbMinCollateralRatioBIPS",
              "type": "uint256"
            },
            {
              "internalType": "uint256",
              "name": "safetyMinCollateralRatioBIPS",
              "type": "uint256"
            }
          ],
          "internalType": "struct IAssetManager.CollateralTokenInfo",
          "name": "",
          "type": "tuple"
        }
      ],
      "stateMutability": "view",
      "type": "function"
    },
    {
      "inputs": [],
      "name": "getCollateralTokens",
      "outputs": [
        {
          "components": [
            {
              "internalType": "enum IAssetManager.CollateralTokenClass",
              "name": "tokenClass",
              "type": "uint8"
            },
            {
              "internalType": "contract IERC20",
              "name": "token",
              "type": "address"
            },
            {
              "internalType": "uint256",
              "name": "decimals",
              "type": "uint256"
            },
            {
              "internalType": "uint256",
              "name": "validUntil",
              "type": "uint256"
            },
            {
              "internalType": "bool",
              "name": "directPricePair",
              "type": "bool"
            },
            {
              "internalType": "string",
              "name": "assetFtsoSymbol",
              "type": "string"
            },
            {
              "internalType": "string",
              "name": "tokenFtsoSymbol",
              "type": "string"
            },
            {
              "internalType": "uint256",
              "name": "minCollateralRatioBIPS",
              "type": "uint256"
            },
            {
              "internalType": "uint256",
              "name": "ccbMinCollateralRatioBIPS",
              "type": "uint256"
            },
            {
              "internalType": "uint256",
              "name": "safetyMinCollateralRatioBIPS",
              "type": "uint256"
            }
          ],
          "internalType": "struct IAssetManager.CollateralTokenInfo[]",
          "name": "",
          "type": "tuple[]"
        }
      ],
      "stateMutability": "view",
      "type": "function"
    },
    {
      "inputs": [
        {
          "internalType": "address",
          "name": "_agentVault",
          "type": "address"
        }
      ],
      "name": "getFAssetsBackedByPool",
      "outputs": [
        {
          "internalType": "uint256",
          "name": "",
          "type": "uint256"
        }
      ],
      "stateMutability": "view",
      "type": "function"
    },
    {
      "inputs": [],
      "name": "getLiquidationSettings",
      "outputs": [
        {
          "internalType": "bytes",
          "name": "",
          "type": "bytes"
        }
      ],
      "stateMutability": "view",
      "type": "function"
    },
    {
      "inputs": [],
      "name": "getLotSize",
      "outputs": [
        {
          "internalType": "uint256",
          "name": "_lotSizeUBA",
          "type": "uint256"
        }
      ],
      "stateMutability": "view",
      "type": "function"
    },
    {
      "inputs": [],
      "name": "getSettings",
      "outputs": [
        {
          "components": [
            {
              "internalType": "address",
              "name": "assetManagerController",
              "type": "address"
            },
            {
              "internalType": "contract IFAsset",
              "name": "fAsset",
              "type": "address"
            },
            {
              "internalType": "contract IAgentVaultFactory",
              "name": "agentVaultFactory",
              "type": "address"
            },
            {
              "internalType": "contract ICollateralPoolFactory",
              "name": "collateralPoolFactory",
              "type": "address"
            },
            {
              "internalType": "contract IWhitelist",
              "name": "whitelist",
              "type": "address"
            },
            {
              "internalType": "contract IWhitelist",
              "name": "agentWhitelist",
              "type": "address"
            },
            {
              "internalType": "contract IAttestationClient",
              "name": "attestationClient",
              "type": "address"
            },
            {
              "internalType": "contract IAddressValidator",
              "name": "underlyingAddressValidator",
              "type": "address"
            },
            {
              "internalType": "address",
              "name": "liquidationStrategy",
              "type": "address"
            },
            {
              "internalType": "contract IFtsoRegistry",
              "name": "ftsoRegistry",
              "type": "address"
            },
            {
              "internalType": "uint8",
              "name": "assetDecimals",
              "type": "uint8"
            },
            {
              "internalType": "uint8",
              "name": "assetMintingDecimals",
              "type": "uint8"
            },
            {
              "internalType": "uint32",
              "name": "mintingPoolHoldingsRequiredBIPS",
              "type": "uint32"
            },
            {
              "internalType": "address payable",
              "name": "burnAddress",
              "type": "address"
            },
            {
              "internalType": "bool",
              "name": "burnWithSelfDestruct",
              "type": "bool"
            },
            {
              "internalType": "uint32",
              "name": "chainId",
              "type": "uint32"
            },
            {
              "internalType": "uint16",
              "name": "collateralReservationFeeBIPS",
              "type": "uint16"
            },
            {
              "internalType": "uint64",
              "name": "assetUnitUBA",
              "type": "uint64"
            },
            {
              "internalType": "uint64",
              "name": "assetMintingGranularityUBA",
              "type": "uint64"
            },
            {
              "internalType": "uint64",
              "name": "lotSizeAMG",
              "type": "uint64"
            },
            {
              "internalType": "uint64",
              "name": "mintingCapAMG",
              "type": "uint64"
            },
            {
              "internalType": "uint64",
              "name": "maxTrustedPriceAgeSeconds",
              "type": "uint64"
            },
            {
              "internalType": "bool",
              "name": "requireEOAAddressProof",
              "type": "bool"
            },
            {
              "internalType": "uint64",
              "name": "underlyingBlocksForPayment",
              "type": "uint64"
            },
            {
              "internalType": "uint64",
              "name": "underlyingSecondsForPayment",
              "type": "uint64"
            },
            {
              "internalType": "uint16",
              "name": "redemptionFeeBIPS",
              "type": "uint16"
            },
            {
              "internalType": "uint32",
              "name": "redemptionDefaultFactorAgentC1BIPS",
              "type": "uint32"
            },
            {
              "internalType": "uint32",
              "name": "redemptionDefaultFactorPoolBIPS",
              "type": "uint32"
            },
            {
              "internalType": "uint64",
              "name": "confirmationByOthersAfterSeconds",
              "type": "uint64"
            },
            {
              "internalType": "uint128",
              "name": "confirmationByOthersRewardUSD5",
              "type": "uint128"
            },
            {
              "internalType": "uint16",
              "name": "maxRedeemedTickets",
              "type": "uint16"
            },
            {
              "internalType": "uint16",
              "name": "paymentChallengeRewardBIPS",
              "type": "uint16"
            },
            {
              "internalType": "uint128",
              "name": "paymentChallengeRewardUSD5",
              "type": "uint128"
            },
            {
              "internalType": "uint64",
              "name": "withdrawalWaitMinSeconds",
              "type": "uint64"
            },
            {
              "internalType": "uint64",
              "name": "ccbTimeSeconds",
              "type": "uint64"
            },
            {
              "internalType": "uint64",
              "name": "attestationWindowSeconds",
              "type": "uint64"
            },
            {
              "internalType": "uint64",
              "name": "minUpdateRepeatTimeSeconds",
              "type": "uint64"
            },
            {
              "internalType": "uint64",
              "name": "buybackCollateralFactorBIPS",
              "type": "uint64"
            },
            {
              "internalType": "uint64",
              "name": "announcedUnderlyingConfirmationMinSeconds",
              "type": "uint64"
            },
            {
              "internalType": "uint64",
              "name": "tokenInvalidationTimeMinSeconds",
              "type": "uint64"
            },
            {
              "internalType": "uint32",
              "name": "class1BuyForFlareFactorBIPS",
              "type": "uint32"
            },
            {
              "internalType": "uint64",
              "name": "agentExitAvailableTimelockSeconds",
              "type": "uint64"
            },
            {
              "internalType": "uint64",
              "name": "agentFeeChangeTimelockSeconds",
              "type": "uint64"
            },
            {
              "internalType": "uint64",
              "name": "agentCollateralRatioChangeTimelockSeconds",
              "type": "uint64"
            }
          ],
          "internalType": "struct AssetManagerSettings.Data",
          "name": "",
          "type": "tuple"
        }
      ],
      "stateMutability": "view",
      "type": "function"
    },
    {
      "inputs": [],
      "name": "getWNat",
      "outputs": [
        {
          "internalType": "contract IWNat",
          "name": "",
          "type": "address"
        }
      ],
      "stateMutability": "view",
      "type": "function"
    },
    {
      "inputs": [
        {
          "components": [
            {
              "internalType": "uint256",
              "name": "stateConnectorRound",
              "type": "uint256"
            },
            {
              "internalType": "bytes32[]",
              "name": "merkleProof",
              "type": "bytes32[]"
            },
            {
              "internalType": "uint64",
              "name": "blockNumber",
              "type": "uint64"
            },
            {
              "internalType": "uint64",
              "name": "blockTimestamp",
              "type": "uint64"
            },
            {
              "internalType": "bytes32",
              "name": "transactionHash",
              "type": "bytes32"
            },
            {
              "internalType": "uint8",
              "name": "inUtxo",
              "type": "uint8"
            },
            {
              "internalType": "bytes32",
              "name": "sourceAddressHash",
              "type": "bytes32"
            },
            {
              "internalType": "int256",
              "name": "spentAmount",
              "type": "int256"
            },
            {
              "internalType": "bytes32",
              "name": "paymentReference",
              "type": "bytes32"
            }
          ],
          "internalType": "struct IAttestationClient.BalanceDecreasingTransaction",
          "name": "_transaction",
          "type": "tuple"
        },
        {
          "internalType": "address",
          "name": "_agentVault",
          "type": "address"
        }
      ],
      "name": "illegalPaymentChallenge",
      "outputs": [],
      "stateMutability": "nonpayable",
      "type": "function"
    },
    {
      "inputs": [
        {
          "internalType": "address",
          "name": "_agentVault",
          "type": "address"
        },
        {
          "internalType": "address",
          "name": "_address",
          "type": "address"
        }
      ],
      "name": "isAgentVaultOwner",
      "outputs": [
        {
          "internalType": "bool",
          "name": "",
          "type": "bool"
        }
      ],
      "stateMutability": "view",
      "type": "function"
    },
    {
      "inputs": [
        {
          "internalType": "address",
          "name": "_agentVault",
          "type": "address"
        },
        {
          "internalType": "contract IERC20",
          "name": "_token",
          "type": "address"
        }
      ],
      "name": "isCollateralToken",
      "outputs": [
        {
          "internalType": "bool",
          "name": "",
          "type": "bool"
        }
      ],
      "stateMutability": "view",
      "type": "function"
    },
    {
      "inputs": [
        {
          "internalType": "address",
          "name": "_agentVault",
          "type": "address"
        },
        {
          "internalType": "uint256",
          "name": "_amountUBA",
          "type": "uint256"
        }
      ],
      "name": "liquidate",
      "outputs": [
        {
          "internalType": "uint256",
          "name": "_liquidatedAmountUBA",
          "type": "uint256"
        },
        {
          "internalType": "uint256",
          "name": "_amountPaidClass1",
          "type": "uint256"
        },
        {
          "internalType": "uint256",
          "name": "_amountPaidPool",
          "type": "uint256"
        }
      ],
      "stateMutability": "nonpayable",
      "type": "function"
    },
    {
      "inputs": [
        {
          "internalType": "address",
          "name": "_agentVault",
          "type": "address"
        }
      ],
      "name": "makeAgentAvailable",
      "outputs": [],
      "stateMutability": "nonpayable",
      "type": "function"
    },
    {
      "inputs": [
        {
          "components": [
            {
              "internalType": "uint256",
              "name": "stateConnectorRound",
              "type": "uint256"
            },
            {
              "internalType": "bytes32[]",
              "name": "merkleProof",
              "type": "bytes32[]"
            },
            {
              "internalType": "uint64",
              "name": "deadlineBlockNumber",
              "type": "uint64"
            },
            {
              "internalType": "uint64",
              "name": "deadlineTimestamp",
              "type": "uint64"
            },
            {
              "internalType": "bytes32",
              "name": "destinationAddressHash",
              "type": "bytes32"
            },
            {
              "internalType": "bytes32",
              "name": "paymentReference",
              "type": "bytes32"
            },
            {
              "internalType": "uint128",
              "name": "amount",
              "type": "uint128"
            },
            {
              "internalType": "uint64",
              "name": "lowerBoundaryBlockNumber",
              "type": "uint64"
            },
            {
              "internalType": "uint64",
              "name": "lowerBoundaryBlockTimestamp",
              "type": "uint64"
            },
            {
              "internalType": "uint64",
              "name": "firstOverflowBlockNumber",
              "type": "uint64"
            },
            {
              "internalType": "uint64",
              "name": "firstOverflowBlockTimestamp",
              "type": "uint64"
            }
          ],
          "internalType": "struct IAttestationClient.ReferencedPaymentNonexistence",
          "name": "_proof",
          "type": "tuple"
        },
        {
          "internalType": "uint256",
          "name": "_collateralReservationId",
          "type": "uint256"
        }
      ],
      "name": "mintingPaymentDefault",
      "outputs": [],
      "stateMutability": "nonpayable",
      "type": "function"
    },
    {
      "inputs": [],
      "name": "pause",
      "outputs": [],
      "stateMutability": "nonpayable",
      "type": "function"
    },
    {
      "inputs": [],
      "name": "paused",
      "outputs": [
        {
          "internalType": "bool",
          "name": "",
          "type": "bool"
        }
      ],
      "stateMutability": "view",
      "type": "function"
    },
    {
      "inputs": [
        {
          "components": [
            {
              "internalType": "uint256",
              "name": "stateConnectorRound",
              "type": "uint256"
            },
            {
              "internalType": "bytes32[]",
              "name": "merkleProof",
              "type": "bytes32[]"
            },
            {
              "internalType": "uint64",
              "name": "blockNumber",
              "type": "uint64"
            },
            {
              "internalType": "uint64",
              "name": "blockTimestamp",
              "type": "uint64"
            },
            {
              "internalType": "bytes32",
              "name": "transactionHash",
              "type": "bytes32"
            },
            {
              "internalType": "uint8",
              "name": "inUtxo",
              "type": "uint8"
            },
            {
              "internalType": "uint8",
              "name": "utxo",
              "type": "uint8"
            },
            {
              "internalType": "bytes32",
              "name": "sourceAddressHash",
              "type": "bytes32"
            },
            {
              "internalType": "bytes32",
              "name": "receivingAddressHash",
              "type": "bytes32"
            },
            {
              "internalType": "int256",
              "name": "spentAmount",
              "type": "int256"
            },
            {
              "internalType": "int256",
              "name": "receivedAmount",
              "type": "int256"
            },
            {
              "internalType": "bytes32",
              "name": "paymentReference",
              "type": "bytes32"
            },
            {
              "internalType": "bool",
              "name": "oneToOne",
              "type": "bool"
            },
            {
              "internalType": "uint8",
              "name": "status",
              "type": "uint8"
            }
          ],
          "internalType": "struct IAttestationClient.Payment",
          "name": "_payment",
          "type": "tuple"
        }
      ],
      "name": "proveUnderlyingAddressEOA",
      "outputs": [],
      "stateMutability": "nonpayable",
      "type": "function"
    },
    {
      "inputs": [
        {
          "internalType": "uint256",
          "name": "_lots",
          "type": "uint256"
        },
        {
          "internalType": "string",
          "name": "_redeemerUnderlyingAddressString",
          "type": "string"
        }
      ],
      "name": "redeem",
      "outputs": [],
      "stateMutability": "nonpayable",
      "type": "function"
    },
    {
      "inputs": [
        {
          "internalType": "address",
          "name": "_agentVault",
          "type": "address"
        },
        {
          "internalType": "address",
          "name": "_receiver",
          "type": "address"
        },
        {
          "internalType": "uint256",
          "name": "_amountUBA",
          "type": "uint256"
        },
        {
          "internalType": "string",
          "name": "_receiverUnderlyingAddress",
          "type": "string"
        }
      ],
      "name": "redeemFromAgent",
      "outputs": [],
      "stateMutability": "nonpayable",
      "type": "function"
    },
    {
      "inputs": [
        {
          "internalType": "address",
          "name": "_agentVault",
          "type": "address"
        },
        {
          "internalType": "address",
          "name": "_receiver",
          "type": "address"
        },
        {
          "internalType": "uint256",
          "name": "_amountUBA",
          "type": "uint256"
        }
      ],
      "name": "redeemFromAgentInCollateral",
      "outputs": [],
      "stateMutability": "nonpayable",
      "type": "function"
    },
    {
      "inputs": [
        {
          "components": [
            {
              "internalType": "uint256",
              "name": "stateConnectorRound",
              "type": "uint256"
            },
            {
              "internalType": "bytes32[]",
              "name": "merkleProof",
              "type": "bytes32[]"
            },
            {
              "internalType": "uint64",
              "name": "deadlineBlockNumber",
              "type": "uint64"
            },
            {
              "internalType": "uint64",
              "name": "deadlineTimestamp",
              "type": "uint64"
            },
            {
              "internalType": "bytes32",
              "name": "destinationAddressHash",
              "type": "bytes32"
            },
            {
              "internalType": "bytes32",
              "name": "paymentReference",
              "type": "bytes32"
            },
            {
              "internalType": "uint128",
              "name": "amount",
              "type": "uint128"
            },
            {
              "internalType": "uint64",
              "name": "lowerBoundaryBlockNumber",
              "type": "uint64"
            },
            {
              "internalType": "uint64",
              "name": "lowerBoundaryBlockTimestamp",
              "type": "uint64"
            },
            {
              "internalType": "uint64",
              "name": "firstOverflowBlockNumber",
              "type": "uint64"
            },
            {
              "internalType": "uint64",
              "name": "firstOverflowBlockTimestamp",
              "type": "uint64"
            }
          ],
          "internalType": "struct IAttestationClient.ReferencedPaymentNonexistence",
          "name": "_proof",
          "type": "tuple"
        },
        {
          "internalType": "uint256",
          "name": "_redemptionRequestId",
          "type": "uint256"
        }
      ],
      "name": "redemptionPaymentDefault",
      "outputs": [],
      "stateMutability": "nonpayable",
      "type": "function"
    },
    {
      "inputs": [
        {
          "internalType": "address",
          "name": "_agentVault",
          "type": "address"
        },
        {
          "internalType": "uint256",
          "name": "_lots",
          "type": "uint256"
        },
        {
          "internalType": "uint256",
          "name": "_maxMintingFeeBIPS",
          "type": "uint256"
        }
      ],
      "name": "reserveCollateral",
      "outputs": [],
      "stateMutability": "payable",
      "type": "function"
    },
    {
      "inputs": [
        {
          "internalType": "address",
          "name": "_agentVault",
          "type": "address"
        },
        {
          "internalType": "uint256",
          "name": "_amountUBA",
          "type": "uint256"
        }
      ],
      "name": "selfClose",
      "outputs": [],
      "stateMutability": "nonpayable",
      "type": "function"
    },
    {
      "inputs": [
        {
          "components": [
            {
              "internalType": "uint256",
              "name": "stateConnectorRound",
              "type": "uint256"
            },
            {
              "internalType": "bytes32[]",
              "name": "merkleProof",
              "type": "bytes32[]"
            },
            {
              "internalType": "uint64",
              "name": "blockNumber",
              "type": "uint64"
            },
            {
              "internalType": "uint64",
              "name": "blockTimestamp",
              "type": "uint64"
            },
            {
              "internalType": "bytes32",
              "name": "transactionHash",
              "type": "bytes32"
            },
            {
              "internalType": "uint8",
              "name": "inUtxo",
              "type": "uint8"
            },
            {
              "internalType": "uint8",
              "name": "utxo",
              "type": "uint8"
            },
            {
              "internalType": "bytes32",
              "name": "sourceAddressHash",
              "type": "bytes32"
            },
            {
              "internalType": "bytes32",
              "name": "receivingAddressHash",
              "type": "bytes32"
            },
            {
              "internalType": "int256",
              "name": "spentAmount",
              "type": "int256"
            },
            {
              "internalType": "int256",
              "name": "receivedAmount",
              "type": "int256"
            },
            {
              "internalType": "bytes32",
              "name": "paymentReference",
              "type": "bytes32"
            },
            {
              "internalType": "bool",
              "name": "oneToOne",
              "type": "bool"
            },
            {
              "internalType": "uint8",
              "name": "status",
              "type": "uint8"
            }
          ],
          "internalType": "struct IAttestationClient.Payment",
          "name": "_payment",
          "type": "tuple"
        },
        {
          "internalType": "address",
          "name": "_agentVault",
          "type": "address"
        },
        {
          "internalType": "uint256",
          "name": "_lots",
          "type": "uint256"
        }
      ],
      "name": "selfMint",
      "outputs": [],
      "stateMutability": "nonpayable",
      "type": "function"
    },
    {
      "inputs": [
        {
          "internalType": "enum IAssetManager.CollateralTokenClass",
          "name": "_tokenClass",
          "type": "uint8"
        },
        {
          "internalType": "contract IERC20",
          "name": "_token",
          "type": "address"
        },
        {
          "internalType": "uint256",
          "name": "_minCollateralRatioBIPS",
          "type": "uint256"
        },
        {
          "internalType": "uint256",
          "name": "_ccbMinCollateralRatioBIPS",
          "type": "uint256"
        },
        {
          "internalType": "uint256",
          "name": "_safetyMinCollateralRatioBIPS",
          "type": "uint256"
        }
      ],
      "name": "setCollateralRatiosForToken",
      "outputs": [],
      "stateMutability": "nonpayable",
      "type": "function"
    },
    {
      "inputs": [
        {
          "internalType": "address",
          "name": "_ownerHotAddress",
          "type": "address"
        }
      ],
      "name": "setOwnerHotAddress",
      "outputs": [],
      "stateMutability": "nonpayable",
      "type": "function"
    },
    {
      "inputs": [
        {
          "components": [
            {
              "internalType": "enum IAssetManager.CollateralTokenClass",
              "name": "tokenClass",
              "type": "uint8"
            },
            {
              "internalType": "contract IERC20",
              "name": "token",
              "type": "address"
            },
            {
              "internalType": "uint256",
              "name": "decimals",
              "type": "uint256"
            },
            {
              "internalType": "uint256",
              "name": "validUntil",
              "type": "uint256"
            },
            {
              "internalType": "bool",
              "name": "directPricePair",
              "type": "bool"
            },
            {
              "internalType": "string",
              "name": "assetFtsoSymbol",
              "type": "string"
            },
            {
              "internalType": "string",
              "name": "tokenFtsoSymbol",
              "type": "string"
            },
            {
              "internalType": "uint256",
              "name": "minCollateralRatioBIPS",
              "type": "uint256"
            },
            {
              "internalType": "uint256",
              "name": "ccbMinCollateralRatioBIPS",
              "type": "uint256"
            },
            {
              "internalType": "uint256",
              "name": "safetyMinCollateralRatioBIPS",
              "type": "uint256"
            }
          ],
          "internalType": "struct IAssetManager.CollateralTokenInfo",
          "name": "_data",
          "type": "tuple"
        }
      ],
      "name": "setPoolCollateralToken",
      "outputs": [],
      "stateMutability": "nonpayable",
      "type": "function"
    },
    {
      "inputs": [
        {
          "internalType": "address",
          "name": "_agentVault",
          "type": "address"
        }
      ],
      "name": "startLiquidation",
      "outputs": [],
      "stateMutability": "nonpayable",
      "type": "function"
    },
    {
      "inputs": [],
      "name": "terminate",
      "outputs": [],
      "stateMutability": "nonpayable",
      "type": "function"
    },
    {
      "inputs": [],
      "name": "unpause",
      "outputs": [],
      "stateMutability": "nonpayable",
      "type": "function"
    },
    {
      "inputs": [
        {
          "components": [
            {
              "internalType": "uint256",
              "name": "stateConnectorRound",
              "type": "uint256"
            },
            {
              "internalType": "bytes32[]",
              "name": "merkleProof",
              "type": "bytes32[]"
            },
            {
              "internalType": "uint64",
              "name": "blockNumber",
              "type": "uint64"
            },
            {
              "internalType": "uint64",
              "name": "blockTimestamp",
              "type": "uint64"
            },
            {
              "internalType": "uint8",
              "name": "numberOfConfirmations",
              "type": "uint8"
            },
            {
              "internalType": "uint64",
              "name": "averageBlockProductionTimeMs",
              "type": "uint64"
            },
            {
              "internalType": "uint64",
              "name": "lowestQueryWindowBlockNumber",
              "type": "uint64"
            },
            {
              "internalType": "uint64",
              "name": "lowestQueryWindowBlockTimestamp",
              "type": "uint64"
            }
          ],
          "internalType": "struct IAttestationClient.ConfirmedBlockHeightExists",
          "name": "_proof",
          "type": "tuple"
        },
        {
          "internalType": "uint256",
          "name": "_collateralReservationId",
          "type": "uint256"
        }
      ],
      "name": "unstickMinting",
      "outputs": [],
      "stateMutability": "nonpayable",
      "type": "function"
    },
    {
      "inputs": [
        {
          "components": [
            {
              "internalType": "uint256",
              "name": "stateConnectorRound",
              "type": "uint256"
            },
            {
              "internalType": "bytes32[]",
              "name": "merkleProof",
              "type": "bytes32[]"
            },
            {
              "internalType": "uint64",
              "name": "blockNumber",
              "type": "uint64"
            },
            {
              "internalType": "uint64",
              "name": "blockTimestamp",
              "type": "uint64"
            },
            {
              "internalType": "uint8",
              "name": "numberOfConfirmations",
              "type": "uint8"
            },
            {
              "internalType": "uint64",
              "name": "averageBlockProductionTimeMs",
              "type": "uint64"
            },
            {
              "internalType": "uint64",
              "name": "lowestQueryWindowBlockNumber",
              "type": "uint64"
            },
            {
              "internalType": "uint64",
              "name": "lowestQueryWindowBlockTimestamp",
              "type": "uint64"
            }
          ],
          "internalType": "struct IAttestationClient.ConfirmedBlockHeightExists",
          "name": "_proof",
          "type": "tuple"
        }
      ],
      "name": "updateCurrentBlock",
      "outputs": [],
      "stateMutability": "nonpayable",
      "type": "function"
    },
    {
      "inputs": [
        {
          "internalType": "bytes32",
          "name": "_method",
          "type": "bytes32"
        },
        {
          "internalType": "bytes",
          "name": "_params",
          "type": "bytes"
        }
      ],
      "name": "updateSettings",
      "outputs": [],
      "stateMutability": "nonpayable",
      "type": "function"
    },
    {
      "inputs": [
        {
          "internalType": "address",
          "name": "_agentVault",
          "type": "address"
        }
      ],
      "name": "upgradeWNatContract",
      "outputs": [],
      "stateMutability": "nonpayable",
      "type": "function"
    },
    {
      "inputs": [
        {
          "internalType": "contract IERC20",
          "name": "_token",
          "type": "address"
        },
        {
          "internalType": "uint256",
          "name": "_valueNATWei",
          "type": "uint256"
        }
      ],
      "name": "withdrawCollateral",
      "outputs": [],
      "stateMutability": "nonpayable",
      "type": "function"
    }
  ],
  "bytecode": "0x60806040523480156200001157600080fd5b50604051620065f1380380620065f18339810160408190526200003491620005e3565b600160005560405163658f4c6160e01b815273__$498fae630e5f9e2b0d2f5a14b70bbf8a29$__9063658f4c619062000072908690600401620009d5565b60006040518083038186803b1580156200008b57600080fd5b505af4158015620000a0573d6000803e3d6000fd5b505060405163e456a51d60e01b815273__$a539d901bea57a4b73d19093d1e9882040$__925063e456a51d9150620000dd90859060040162000d21565b60006040518083038186803b158015620000f657600080fd5b505af41580156200010b573d6000803e3d6000fd5b5050505062000125816200012e60201b620029d81760201c565b50505062000e52565b600062000145620001c060201b62002a481760201c565b600801546040516001600160a01b039091169150600090829063439fab91906200017490869060240162000e18565b604051602081830303815290604052915060e01b6020820180516001600160e01b0383818316178352505050509050620001ba8282620001e460201b62002a5a1760201c565b50505050565b7fec7e8c1c441439dd40959777f4c577ea0cd42fcc1dbe59d2bd0f5d9c55df8db690565b6060600080846001600160a01b03168460405162000203919062000e34565b600060405180830381855af49150503d806000811462000240576040519150601f19603f3d011682016040523d82523d6000602084013e62000245565b606091505b509150915081156200025b5791506200026e9050565b3d604051818101604052816000823e8181fd5b92915050565b634e487b7160e01b600052604160045260246000fd5b60405161014081016001600160401b0381118282101715620002b057620002b062000274565b60405290565b60405161058081016001600160401b0381118282101715620002b057620002b062000274565b604051601f8201601f191681016001600160401b038111828210171562000307576200030762000274565b604052919050565b80516001600160a01b03811681146200032757600080fd5b919050565b805160ff811681146200032757600080fd5b805163ffffffff811681146200032757600080fd5b805180151581146200032757600080fd5b805161ffff811681146200032757600080fd5b80516001600160401b03811681146200032757600080fd5b80516001600160801b03811681146200032757600080fd5b8051600381106200032757600080fd5b60005b83811015620003d4578181015183820152602001620003ba565b83811115620001ba5750506000910152565b600082601f830112620003f857600080fd5b81516001600160401b0381111562000414576200041462000274565b62000429601f8201601f1916602001620002dc565b8181528460208386010111156200043f57600080fd5b62000452826020830160208701620003b7565b949350505050565b600082601f8301126200046c57600080fd5b815160206001600160401b03808311156200048b576200048b62000274565b8260051b6200049c838201620002dc565b9384528581018301938381019088861115620004b757600080fd5b84880192505b85831015620005d757825184811115620004d75760008081fd5b8801610140818b03601f1901811315620004f15760008081fd5b620004fb6200028a565b62000508888401620003a7565b81526040620005198185016200030f565b89830152606080850151828401526080915081850151818401525060a06200054381860162000353565b8284015260c0915081850151898111156200055e5760008081fd5b6200056e8f8c83890101620003e6565b82850152505060e08085015189811115620005895760008081fd5b620005998f8c83890101620003e6565b8385015250610100915081850151818401525061012080850151828401528385015181840152505080855250505084820191508483019250620004bd565b98975050505050505050565b60008060008385036105c0811215620005fb57600080fd5b610580808212156200060c57600080fd5b62000616620002b6565b915062000623866200030f565b825262000633602087016200030f565b602083015262000646604087016200030f565b604083015262000659606087016200030f565b60608301526200066c608087016200030f565b60808301526200067f60a087016200030f565b60a08301526200069260c087016200030f565b60c0830152620006a560e087016200030f565b60e0830152610100620006ba8188016200030f565b90830152610120620006ce8782016200030f565b90830152610140620006e28782016200032c565b90830152610160620006f68782016200032c565b908301526101806200070a8782016200033e565b908301526101a06200071e8782016200030f565b908301526101c06200073287820162000353565b908301526101e0620007468782016200033e565b908301526102006200075a87820162000364565b908301526102206200076e87820162000377565b908301526102406200078287820162000377565b908301526102606200079687820162000377565b90830152610280620007aa87820162000377565b908301526102a0620007be87820162000377565b908301526102c0620007d287820162000353565b908301526102e0620007e687820162000377565b90830152610300620007fa87820162000377565b908301526103206200080e87820162000364565b90830152610340620008228782016200033e565b90830152610360620008368782016200033e565b908301526103806200084a87820162000377565b908301526103a06200085e8782016200038f565b908301526103c06200087287820162000364565b908301526103e06200088687820162000364565b908301526104006200089a8782016200038f565b90830152610420620008ae87820162000377565b90830152610440620008c287820162000377565b90830152610460620008d687820162000377565b90830152610480620008ea87820162000377565b908301526104a0620008fe87820162000377565b908301526104c06200091287820162000377565b908301526104e06200092687820162000377565b908301526105006200093a8782016200033e565b908301526105206200094e87820162000377565b908301526105406200096287820162000377565b908301526105606200097687820162000377565b908301528501519093506001600160401b03808211156200099657600080fd5b620009a4878388016200045a565b93506105a0860151915080821115620009bc57600080fd5b50620009cb86828701620003e6565b9150509250925092565b81516001600160a01b031681526105808101602083015162000a0260208401826001600160a01b03169052565b50604083015162000a1e60408401826001600160a01b03169052565b50606083015162000a3a60608401826001600160a01b03169052565b50608083015162000a5660808401826001600160a01b03169052565b5060a083015162000a7260a08401826001600160a01b03169052565b5060c083015162000a8e60c08401826001600160a01b03169052565b5060e083015162000aaa60e08401826001600160a01b03169052565b50610100838101516001600160a01b0390811691840191909152610120808501518216908401526101408085015160ff9081169185019190915261016080860151909116908401526101808085015163ffffffff908116918501919091526101a080860151909216918401919091526101c0808501511515908401526101e0808501518216908401526102008085015161ffff90811691850191909152610220808601516001600160401b03908116918601919091526102408087015182169086015261026080870151821690860152610280808701518216908601526102a0808701518216908601526102c0808701511515908601526102e08087015182169086015261030080870151821690860152610320808701518316908601526103408087015184169086015261036080870151841690860152610380808701518216908601526103a0808701516001600160801b03908116918701919091526103c0808801518416908701526103e080880151909316928601929092526104008087015190921691850191909152610420808601518216908501526104408086015182169085015261046080860151821690850152610480808601518216908501526104a0808601518216908501526104c0808601518216908501526104e080860151821690850152610500808601519092169184019190915261052080850151821690840152610540808501518216908401526105609384015116929091019190915290565b6003811062000cef57634e487b7160e01b600052602160045260246000fd5b9052565b6000815180845262000d0d816020860160208601620003b7565b601f01601f19169290920160200192915050565b60006020808301818452808551808352604092508286019150828160051b87010184880160005b8381101562000e0a57603f19898403018552815161014062000d6c85835162000cd0565b888201516001600160a01b0316858a015287820151888601526060808301519086015260808083015115159086015260a08083015181870183905262000db58388018262000cf3565b9250505060c0808301518683038288015262000dd2838262000cf3565b60e085810151908901526101008086015190890152610120948501519490970193909352505050938601939086019060010162000d48565b509098975050505050505050565b60208152600062000e2d602083018462000cf3565b9392505050565b6000825162000e48818460208701620003b7565b9190910192915050565b61578f8062000e626000396000f3fe6080604052600436106104055760003560e01c80638bf1132611610213578063d6b93a9f11610123578063ed3762aa116100ab578063f19d3c061161007a578063f19d3c0614610cc3578063f1d5133f14610ce3578063f4d000b214610d10578063f54ff23014610d30578063fd41d8ea14610d5057600080fd5b8063ed3762aa14610c4e578063ee80a23014610c6e578063f060b3f114610c8e578063f0c0b72514610cae57600080fd5b8063e7732f91116100f2578063e7732f9114610bb7578063eb5abafc14610bd7578063ec96c1c914610bf7578063ecaf1cdf14610c19578063ed000b3014610c2e57600080fd5b8063d6b93a9f14610b29578063dda4921314610b49578063e1c5010014610b69578063e415339c14610b8957600080fd5b8063b68af97e116101a6578063bcbaf48711610175578063bcbaf48714610a7b578063bd60353514610ab6578063bfead88714610ac9578063c0674b4614610ae9578063c4a5123e14610b0957600080fd5b8063b68af97e146109fb578063b7f658ab14610a1b578063b928b53314610a3b578063ba657a3614610a5b57600080fd5b8063a07ea7af116101e2578063a07ea7af14610984578063b046cd17146109a4578063b58eb63f146109c4578063b5a488a6146109e657600080fd5b80638bf11326146109045780638c9ea976146109245780639584da2a146109445780639928d99c1461096457600080fd5b80633f4ba83a116103195780636e61164f116102a15780638003314d116102705780638003314d1461085f57806383c57d141461088d5780638456cb59146108ad57806385b4bb53146108c25780638ad2a950146108e457600080fd5b80636e61164f146107ca578063753923f01461080a578063778aadd51461082a5780637c7db1a51461084a57600080fd5b80635c975abb116102e85780635c975abb1461071d5780635cdf04b31461074a5780635e71055c1461076a578063612007e51461078a57806365454f94146107aa57600080fd5b80633f4ba83a146106785780635252f3a21461068d57806353777730146106c557806353ed178e146106fd57600080fd5b80631f8194901161039c5780632a4c48a81161036b5780632a4c48a8146105ca5780632dabf2d0146105ea578063350c35e91461060a578063368a35931461062a5780633851b6141461065857600080fd5b80631f8194901461054a578063249f1b591461056a57806324b76fd51461058a578063268b2ec1146105aa57600080fd5b80630a4b9ec2116103d85780630a4b9ec2146104c85780630c08bf88146104e85780630ffb0e86146104fd578063152052b01461051d57600080fd5b806302312aec1461040a578063025dfeb214610439578063042039301461045b5780630877acff1461047b575b600080fd5b34801561041657600080fd5b5061041f610d70565b604080519283526020830191909152015b60405180910390f35b34801561044557600080fd5b5061045961045436600461344e565b610dc4565b005b34801561046757600080fd5b5061045961047636600461349f565b610e3b565b34801561048757600080fd5b507fec7e8c1c441439dd40959777f4c577ea0cd42fcc1dbe59d2bd0f5d9c55df8dd7546001600160401b03620100008204811691600160501b90041661041f565b3480156104d457600080fd5b506104596104e336600461349f565b610e7b565b3480156104f457600080fd5b50610459610ec1565b34801561050957600080fd5b506104596105183660046135fd565b610fc7565b34801561052957600080fd5b5061053d61053836600461349f565b611049565b60405161043091906136d7565b34801561055657600080fd5b506104596105653660046138e5565b6111ed565b34801561057657600080fd5b50610459610585366004613941565b611262565b34801561059657600080fd5b506104596105a5366004613992565b6112e0565b3480156105b657600080fd5b506104596105c53660046139d8565b61132b565b3480156105d657600080fd5b506104596105e5366004613a35565b61136c565b3480156105f657600080fd5b50610459610605366004613a69565b6113a3565b34801561061657600080fd5b50610459610625366004613a69565b6113df565b34801561063657600080fd5b5061064a610645366004613a87565b61142c565b604051908152602001610430565b34801561066457600080fd5b5061045961067336600461349f565b6114ba565b34801561068457600080fd5b506104596114fa565b34801561069957600080fd5b506106ad6106a836600461349f565b6115f2565b6040516001600160a01b039091168152602001610430565b3480156106d157600080fd5b5060008051602061571a83398151915254600160401b900460ff165b6040519015158152602001610430565b34801561070957600080fd5b50610459610718366004613aa0565b61160d565b34801561072957600080fd5b5060008051602061571a833981519152546001600160401b031615156106ed565b34801561075657600080fd5b50610459610765366004613ae8565b61164e565b34801561077657600080fd5b5061045961078536600461349f565b61168f565b34801561079657600080fd5b506104596107a536600461349f565b6116cf565b3480156107b657600080fd5b506104596107c536600461349f565b61170f565b3480156107d657600080fd5b506107ea6107e536600461349f565b61174f565b604080516001600160a01b03938416815292909116602083015201610430565b34801561081657600080fd5b506104596108253660046139d8565b6117d8565b34801561083657600080fd5b50610459610845366004613b39565b6117fc565b34801561085657600080fd5b506106ad611844565b34801561086b57600080fd5b5061087f61087a366004613b67565b611853565b604051610430929190613b89565b34801561089957600080fd5b506104596108a8366004613c07565b6118e4565b3480156108b957600080fd5b5061045961195c565b3480156108ce57600080fd5b506108d76119c1565b6040516104309190613c8c565b3480156108f057600080fd5b506104596108ff366004613f80565b611db0565b34801561091057600080fd5b5061045961091f366004613fb4565b611de7565b34801561093057600080fd5b506106ed61093f366004613b39565b611e94565b34801561095057600080fd5b5061045961095f366004613a69565b611f21565b34801561097057600080fd5b5061045961097f36600461344e565b611f68565b34801561099057600080fd5b5061045961099f36600461349f565b611fa7565b3480156109b057600080fd5b506104596109bf36600461400d565b611fe7565b3480156109d057600080fd5b506109d9612020565b604051610430919061410b565b3480156109f257600080fd5b506106ad612093565b348015610a0757600080fd5b50610459610a1636600461349f565b61209d565b348015610a2757600080fd5b50610459610a3636600461349f565b61218b565b348015610a4757600080fd5b50610459610a56366004614186565b6121cb565b348015610a6757600080fd5b50610459610a7636600461349f565b612203565b348015610a8757600080fd5b50610a9b610a96366004613a69565b612243565b60408051938452602084019290925290820152606001610430565b610459610ac43660046141a3565b6122e1565b348015610ad557600080fd5b50610459610ae43660046138e5565b61236a565b348015610af557600080fd5b50610459610b0436600461349f565b61240c565b348015610b1557600080fd5b50610459610b2436600461344e565b61244c565b348015610b3557600080fd5b506106ed610b44366004613b39565b61248b565b348015610b5557600080fd5b50610459610b64366004613aa0565b61249f565b348015610b7557600080fd5b50610459610b8436600461349f565b612508565b348015610b9557600080fd5b50610ba9610ba4366004613b67565b61254f565b6040516104309291906141d8565b348015610bc357600080fd5b50610459610bd2366004614229565b6125d4565b348015610be357600080fd5b50610459610bf2366004614262565b61260d565b348015610c0357600080fd5b50610c0c612650565b60405161043091906142ce565b348015610c2557600080fd5b5061064a61265a565b348015610c3a57600080fd5b50610459610c493660046142e1565b61269f565b348015610c5a57600080fd5b5061064a610c6936600461349f565b6126ee565b348015610c7a57600080fd5b50610459610c8936600461400d565b612731565b348015610c9a57600080fd5b50610459610ca9366004614311565b61276a565b348015610cba57600080fd5b506106ad6127dd565b348015610ccf57600080fd5b50610459610cde36600461437c565b6127f6565b348015610cef57600080fd5b50610d03610cfe3660046143f7565b612839565b6040516104309190614415565b348015610d1c57600080fd5b50610459610d2b36600461349f565b612919565b348015610d3c57600080fd5b50610459610d4b366004613a69565b612959565b348015610d5c57600080fd5b50610459610d6b366004614428565b612995565b6000806000610d7d612a48565b9050610d8f610d8a612ade565b612b60565b600b820154909350600160401b90046001600160401b0316610db36009600a614542565b610dbd919061454e565b9150509091565b610dcc612b76565b6040516307c8308b60e21b815273__$8ed6b3b04009dff171844b9d72c92eddd0$__90631f20c22c90610e0890600190309086906004016145db565b60006040518083038186803b158015610e2057600080fd5b505af4158015610e34573d6000803e3d6000fd5b5050505050565b60405163b42652e960e01b81526001600160a01b038216600482015273__$4054b81dd018f00b16b0262e280b71bd3d$__9063b42652e990602401610e08565b60405163c7be12eb60e01b81526001600160a01b038216600482015233602482015273__$c7446ca28182994c6c0135601399c1b584$__9063c7be12eb90604401610e08565b610ec9612bcd565b60008051602061571a8339815191525460008051602061573a833981519152906001600160401b031615801590610f1a57506022810154610f179062278d00906001600160401b03166146a4565b42115b610f6b5760405162461bcd60e51b815260206004820152601f60248201527f6173736574206d616e61676572206e6f742070617573656420656e6f7567680060448201526064015b60405180910390fd5b60018101546040805163018117f160e31b815290516001600160a01b0390921691630c08bf889160048082019260009290919082900301818387803b158015610fb357600080fd5b505af1158015610e34573d6000803e3d6000fd5b60405163ccfb491360e01b815273__$df85e949fff37977e0d300eb10fcbb4998$__9063ccfb491390611002908690869086906004016146bc565b602060405180830381865af415801561101f573d6000803e3d6000fd5b505050506040513d601f19601f8201168201806040525081019061104391906146f0565b50505050565b611167604080516104208101909152806000815260200160006001600160a01b0316815260200160006001600160a01b0316815260200160006001600160a01b0316815260200160608152602001600015158152602001600081526020016000815260200160006001600160a01b031681526020016000815260200160008152602001600081526020016000815260200160008152602001600081526020016000815260200160008152602001600081526020016000815260200160008152602001600081526020016000815260200160008152602001600081526020016000815260200160008152602001600081526020016000815260200160008152602001600081526020016000815260200160008152602001600081525090565b604051630152052b60e41b81526001600160a01b038316600482015273__$ec55c6bae1638b00bbedb6b751f1f84e77$__9063152052b090602401600060405180830381865af41580156111bf573d6000803e3d6000fd5b505050506040513d6000823e601f3d908101601f191682016040526111e7919081019061477e565b92915050565b73__$305ac64b111b0d775ac583a3c3f22849b9$__634e1b6cd68361121184612c2d565b6040518363ffffffff1660e01b815260040161122e929190614b15565b60006040518083038186803b15801561124657600080fd5b505af415801561125a573d6000803e3d6000fd5b505050505050565b61126a612bcd565b604051634f27f8e760e01b815273__$a539d901bea57a4b73d19093d1e9882040$__90634f27f8e7906112a99088908890889088908890600401614b40565b60006040518083038186803b1580156112c157600080fd5b505af41580156112d5573d6000803e3d6000fd5b505050505050505050565b6112e8612c99565b73__$4ff30c53c077284d3b777228e6ae31216c$__6326e68cd43361130c85612c2d565b846040518463ffffffff1660e01b815260040161122e93929190614b77565b73__$2121826b9482dc4a95d5f1c5bc0ffbdf06$__63c20025058361134f84612c2d565b6040518363ffffffff1660e01b815260040161122e929190614bc1565b60405163e70e767f60e01b815273__$722590fcf677171437eb48cf082465d6d7$__9063e70e767f90610e08908490600401614dd3565b60405163a43ba5ab60e01b815273__$c7446ca28182994c6c0135601399c1b584$__9063a43ba5ab9061122e9060029086908690600401614de6565b604051631f463e2360e21b81526001600160a01b03831660048201523360248201526044810182905273__$c7446ca28182994c6c0135601399c1b584$__90637d18f88c9060640161122e565b600073__$f7c9c0d01068167c22df35ff5943b62148$__630c7dcd1561145184612c2d565b6040516001600160e01b031960e084901b1681526001600160401b0390911660048201526024015b602060405180830381865af4158015611496573d6000803e3d6000fd5b505050506040513d601f19601f820116820180604052508101906111e791906146f0565b60405163fdf6b37560e01b81526001600160a01b038216600482015273__$4054b81dd018f00b16b0262e280b71bd3d$__9063fdf6b37590602401610e08565b611502612bcd565b7fec7e8c1c441439dd40959777f4c577ea0cd42fcc1dbe59d2bd0f5d9c55df8db7546040805163194307bf60e01b8152905160008051602061573a833981519152926001600160a01b03169163194307bf9160048083019260209291908290030181865afa158015611578573d6000803e3d6000fd5b505050506040513d601f19601f8201168201806040525081019061159c9190614e10565b156115de5760405162461bcd60e51b8152602060048201526012602482015271198b585cdcd95d081d195c9b5a5b985d195960721b6044820152606401610f62565b602201805467ffffffffffffffff19169055565b60006115fd82612d66565b546001600160a01b031692915050565b73__$2121826b9482dc4a95d5f1c5bc0ffbdf06$__630fec40b68361163184612c2d565b6040518363ffffffff1660e01b815260040161122e929190614e2d565b611656612c99565b60405163ed99865b60e01b815273__$d15fd82c1987b4adc4c1dba5cf0be762b0$__9063ed99865b9061122e9085908590600401614ee6565b60405163e4c5e4e960e01b81526001600160a01b038216600482015273__$8ed6b3b04009dff171844b9d72c92eddd0$__9063e4c5e4e990602401610e08565b604051630877cd8160e41b81526001600160a01b038216600482015273__$4054b81dd018f00b16b0262e280b71bd3d$__9063877cd81090602401610e08565b60405163195153e560e21b81526001600160a01b038216600482015273__$c7446ca28182994c6c0135601399c1b584$__906365454f9490602401610e08565b604051636e61164f60e01b81526001600160a01b0382166004820152600090819073__$c7446ca28182994c6c0135601399c1b584$__90636e61164f906024016040805180830381865af41580156117ab573d6000803e3d6000fd5b505050506040513d601f19601f820116820180604052508101906117cf9190614f10565b91509150915091565b73__$f7c9c0d01068167c22df35ff5943b62148$__6355c4ef8f8361134f84612c2d565b60405163778aadd560e01b81526001600160a01b0380841660048301528216602482015273__$8ed6b3b04009dff171844b9d72c92eddd0$__9063778aadd59060440161122e565b600061184e612e0e565b905090565b60405163825378af60e01b8152600481018390526024810182905260609060009073__$4054b81dd018f00b16b0262e280b71bd3d$__9063825378af90604401600060405180830381865af41580156118b0573d6000803e3d6000fd5b505050506040513d6000823e601f3d908101601f191682016040526118d89190810190614f62565b915091505b9250929050565b6118ec612c99565b6040516366a1b64560e11b815273__$d15fd82c1987b4adc4c1dba5cf0be762b0$__9063cd436c8a9061192790869086908690600401615044565b60006040518083038186803b15801561193f57600080fd5b505af4158015611953573d6000803e3d6000fd5b50505050505050565b611964612bcd565b60008051602061571a8339815191525460008051602061573a833981519152906001600160401b03166119be5761199a42612c2d565b60228201805467ffffffffffffffff19166001600160401b03929092169190911790555b50565b6040805161058081018252600080825260208201819052918101829052606081018290526080810182905260a0810182905260c0810182905260e08101829052610100810182905261012081018290526101408101829052610160810182905261018081018290526101a081018290526101c081018290526101e08101829052610200810182905261022081018290526102408101829052610260810182905261028081018290526102a081018290526102c081018290526102e08101829052610300810182905261032081018290526103408101829052610360810182905261038081018290526103a081018290526103c081018290526103e08101829052610400810182905261042081018290526104408101829052610460810182905261048081018290526104a081018290526104c081018290526104e08101829052610500810182905261052081018290526105408101829052610560810191909152611b2a612a48565b604080516105808101825282546001600160a01b03908116825260018401548116602083015260028401548116928201929092526003830154821660608201526004830154821660808201526005830154821660a08201526006830154821660c08201526007830154821660e082015260088301548216610100820152600983015480831661012083015260ff600160a01b8083048216610140850152600160a81b808404831661016086015263ffffffff600160b01b9094048416610180860152600a8701549586166101a0860152818604831615156101c0860152850483166101e085015261ffff600160c81b958690048116610200860152600b8701546001600160401b03808216610220880152600160401b8083048216610240890152600160801b80840483166102608a0152600160c01b9384900483166102808a0152600c8b01548084166102a08b015282810490971615156102c08a01526901000000000000000000870483166102e08a0152600160881b870483166103008a01529886048416610320890152600160d81b9095048616610340880152600d890154808716610360890152640100000000810482166103808901526001600160801b03600160601b80830482166103a08b0152600160e01b830486166103c08b0152600160f01b9092049094166103e0890152600e8a01549384166104008901528884048216610420890152928290048116610440880152600f890154808216610460890152858104821661048089015297880481166104a0880152960486166104c086015260108701548087166104e0870152928304909316610500850152918104841661052084015204821661054082015260119092015416610560820152919050565b604051632560e1bd60e01b815273__$8ed6b3b04009dff171844b9d72c92eddd0$__90632560e1bd90610e089084906004016150cb565b611def612b76565b60026000541415611e125760405162461bcd60e51b8152600401610f62906150de565b600260005573__$db99a4b0b1a8936beb7122d8143ea3b698$__634c1411578484611e3c85612c2d565b6040518463ffffffff1660e01b8152600401611e5a93929190615115565b60006040518083038186803b158015611e7257600080fd5b505af4158015611e86573d6000803e3d6000fd5b505060016000555050505050565b60405162cb3d5f60e31b81526001600160a01b0380841660048301528216602482015260009073__$c7446ca28182994c6c0135601399c1b584$__90630659eaf890604401602060405180830381865af4158015611ef6573d6000803e3d6000fd5b505050506040513d601f19601f82011682018060405250810190611f1a9190614e10565b9392505050565b604051634ac26d1560e11b81526001600160a01b03831660048201526024810182905273__$4ff30c53c077284d3b777228e6ae31216c$__90639584da2a9060440161122e565b611f70612bcd565b60405163234e32cb60e21b815273__$a539d901bea57a4b73d19093d1e9882040$__90638d38cb2c90610e08908490600401615151565b60405163a07ea7af60e01b81526001600160a01b038216600482015273__$900ca2dd89aa7bd7c22612e1484fcfb277$__9063a07ea7af90602401610e08565b60405163364a99d160e21b815273__$900ca2dd89aa7bd7c22612e1484fcfb277$__9063d92a67449061122e908590859060040161522c565b606073__$a539d901bea57a4b73d19093d1e9882040$__638d19717a6040518163ffffffff1660e01b8152600401600060405180830381865af415801561206b573d6000803e3d6000fd5b505050506040513d6000823e601f3d908101601f1916820160405261184e9190810190615322565b600061184e612e2c565b6120a5612e0e565b6001600160a01b031663194307bf6040518163ffffffff1660e01b8152600401602060405180830381865afa1580156120e2573d6000803e3d6000fd5b505050506040513d601f19601f820116820180604052508101906121069190614e10565b61214b5760405162461bcd60e51b8152602060048201526016602482015275198b585cdcd95d081b9bdd081d195c9b5a5b985d195960521b6044820152606401610f62565b604051635b457cbf60e11b81526001600160a01b038216600482015273__$8ed6b3b04009dff171844b9d72c92eddd0$__9063b68af97e90602401610e08565b60405163b7f658ab60e01b81526001600160a01b038216600482015273__$55e854ab37cd1bbaf9fa5a4f99ff154ced$__9063b7f658ab90602401610e08565b6121d3612bcd565b60008051602061571a8339815191528054911515600160401b0268ff000000000000000019909216919091179055565b604051635d32bd1b60e11b81526001600160a01b038216600482015273__$8ed6b3b04009dff171844b9d72c92eddd0$__9063ba657a3690602401610e08565b6000806000612250612c99565b60405163bcbaf48760e01b81526001600160a01b03861660048201526024810185905273__$55e854ab37cd1bbaf9fa5a4f99ff154ced$__9063bcbaf48790604401606060405180830381865af41580156122af573d6000803e3d6000fd5b505050506040513d601f19601f820116820180604052508101906122d391906153d2565b919790965090945092505050565b6122e9612b76565b6122f1612c99565b73__$f7c9c0d01068167c22df35ff5943b62148$__63f2821a62338561231686612c2d565b61231f86612c2d565b6040516001600160e01b031960e087901b1681526001600160a01b0394851660048201529390921660248401526001600160401b039081166044840152166064820152608401611927565b6002600054141561238d5760405162461bcd60e51b8152600401610f62906150de565b600260005573__$db99a4b0b1a8936beb7122d8143ea3b698$__63aeeb13a0836123b684612c2d565b6040518363ffffffff1660e01b81526004016123d3929190614b15565b60006040518083038186803b1580156123eb57600080fd5b505af41580156123ff573d6000803e3d6000fd5b5050600160005550505050565b604051636033a5a360e11b81526001600160a01b038216600482015273__$900ca2dd89aa7bd7c22612e1484fcfb277$__9063c0674b4690602401610e08565b612454612bcd565b604051631663f15960e11b815273__$a539d901bea57a4b73d19093d1e9882040$__90632cc7e2b290610e08908490600401615151565b6000611f1a61249984612d66565b83612eba565b600260005414156124c25760405162461bcd60e51b8152600401610f62906150de565b600260005573__$f7c9c0d01068167c22df35ff5943b62148$__632d984f75836124eb84612c2d565b6040518363ffffffff1660e01b81526004016123d3929190614e2d565b612510612c99565b60405162e1c50160e81b81526001600160a01b038216600482015273__$55e854ab37cd1bbaf9fa5a4f99ff154ced$__9063e1c5010090602401610e08565b6040516315302d6160e31b8152600481018390526024810182905260609060009073__$4054b81dd018f00b16b0262e280b71bd3d$__9063a9816b0890604401600060405180830381865af41580156125ac573d6000803e3d6000fd5b505050506040513d6000823e601f3d908101601f191682016040526118d89190810190615400565b6040516331ec097760e01b815273__$df85e949fff37977e0d300eb10fcbb4998$__906331ec09779061122e90859085906004016154a1565b612615612c99565b60405163264becd360e21b815273__$d15fd82c1987b4adc4c1dba5cf0be762b0$__9063992fb34c90611927908690869086906004016154c5565b606061184e612f14565b600080612665612a48565b600b810154909150612690906001600160401b03600160401b8204811691600160801b900416615503565b6001600160401b031691505090565b604051630ed000b360e41b81526001600160a01b038085166004830152831660248201526044810182905273__$4ff30c53c077284d3b777228e6ae31216c$__9063ed000b3090606401611927565b60405163769bb15560e11b81526001600160a01b038216600482015260009073__$c7446ca28182994c6c0135601399c1b584$__9063ed3762aa90602401611479565b604051630314945d60e41b815273__$4d3bb9bf0a42acf2b0f8f3ab5f4c1ad39c$__9063314945d09061122e908590859060040161522c565b60405163f060b3f160e01b815273__$4ff30c53c077284d3b777228e6ae31216c$__9063f060b3f1906127a7908790879087908790600401615532565b60006040518083038186803b1580156127bf57600080fd5b505af41580156127d3573d6000803e3d6000fd5b5050505050505050565b60006127e7612a48565b546001600160a01b0316919050565b6127fe612bcd565b6040516302fab52b60e01b815273__$498fae630e5f9e2b0d2f5a14b70bbf8a29$__906302fab52b906119279086908690869060040161556f565b61289b604080516101408101909152806000815260200160006001600160a01b03168152602001600081526020016000815260200160001515815260200160608152602001606081526020016000815260200160008152602001600081525090565b6040516346532e0760e01b815273__$a539d901bea57a4b73d19093d1e9882040$__906346532e07906128d49086908690600401615589565b600060405180830381865af41580156128f1573d6000803e3d6000fd5b505050506040513d6000823e601f3d908101601f19168201604052611f1a91908101906155ae565b604051637a68005960e11b81526001600160a01b038216600482015273__$c7446ca28182994c6c0135601399c1b584$__9063f4d000b290602401610e08565b60405163a43ba5ab60e01b815273__$c7446ca28182994c6c0135601399c1b584$__9063a43ba5ab9061122e9060009086908690600401614de6565b61299d612bcd565b6040516307eca6bd60e51b815273__$a539d901bea57a4b73d19093d1e9882040$__9063fd94d7a09061192790869086908690600401614de6565b60006129e2612a48565b600801546040516001600160a01b039091169150600090829063439fab9190612a0f9086906024016142ce565b604051602081830303815290604052915060e01b6020820180516001600160e01b03838183161783525050505090506110438282612a5a565b60008051602061573a83398151915290565b6060600080846001600160a01b031684604051612a7791906155e2565b600060405180830381855af49150503d8060008114612ab2576040519150601f19603f3d011682016040523d82523d6000602084013e612ab7565b606091505b50915091508115612acb5791506111e79050565b3d604051818101604052816000823e8181fd5b7fec7e8c1c441439dd40959777f4c577ea0cd42fcc1dbe59d2bd0f5d9c55df8dd7547fec7e8c1c441439dd40959777f4c577ea0cd42fcc1dbe59d2bd0f5d9c55df8dc8805460009260008051602061573a833981519152929161ffff909116908110612b4c57612b4c6155fe565b906000526020600020906004020191505090565b6000612b6d826000612f84565b50909392505050565b60008051602061571a83398151915254600160401b900460ff16612bcb5760405162461bcd60e51b815260206004820152600c60248201526b1b9bdd08185d1d1858da195960a21b6044820152606401610f62565b565b612bd5612a48565b546001600160a01b03163314612bcb5760405162461bcd60e51b815260206004820152601d60248201527f6f6e6c79206173736574206d616e6167657220636f6e74726f6c6c65720000006044820152606401610f62565b60006001600160401b03821115612c955760405162461bcd60e51b815260206004820152602660248201527f53616665436173743a2076616c756520646f65736e27742066697420696e203660448201526534206269747360d01b6064820152608401610f62565b5090565b6000612ca3612a48565b60048101549091506001600160a01b0316156119be57600481810154604051633af32abf60e01b815233928101929092526001600160a01b031690633af32abf90602401602060405180830381865afa158015612d04573d6000803e3d6000fd5b505050506040513d601f19601f82011682018060405250810190612d289190614e10565b6119be5760405162461bcd60e51b815260206004820152600f60248201526e1b9bdd081dda1a5d195b1a5cdd1959608a1b6044820152606401610f62565b7f5bebac0595fee029d42bb673937f5f1cb81cf8641382bc17774635de9b7d796568010000000000000000600160e01b03604083901b1618806000600483015460ff166002811115612dba57612dba613655565b1415612e085760405162461bcd60e51b815260206004820152601b60248201527f696e76616c6964206167656e74207661756c74206164647265737300000000006044820152606401610f62565b50919050565b600080612e19612a48565b600101546001600160a01b031692915050565b7fec7e8c1c441439dd40959777f4c577ea0cd42fcc1dbe59d2bd0f5d9c55df8dd7547fec7e8c1c441439dd40959777f4c577ea0cd42fcc1dbe59d2bd0f5d9c55df8dc8805460009260008051602061573a833981519152929161ffff909116908110612e9a57612e9a6155fe565b60009182526020909120600490910201546001600160a01b031692915050565b600182015460009060008051602061573a833981519152906001600160a01b03908116908416811480612f0b57506001600160a01b0380821660009081526015840160205260409020548582169116145b95945050505050565b60606000612f20612a48565b600801546040805160048152602481019091526020810180516001600160e01b03166385b4bb5360e01b1790526001600160a01b0390911691506000612f668383613143565b905080806020019051810190612f7c9190615614565b935050505090565b600080600080600080613023886001018054612f9f9061565c565b80601f0160208091040260200160405190810160405280929190818152602001828054612fcb9061565c565b80156130185780601f10612fed57610100808354040283529160200191613018565b820191906000526020600020905b815481529060010190602001808311612ffb57829003601f168201915b505050505088613157565b8a549295509093509150600160f01b900460ff161561306a57875460009061305990600160a81b900460ff166001838786613293565b965091945084935061313c92505050565b60008060006131058b60020180546130819061565c565b80601f01602080910402602001604051908101604052809291908181526020018280546130ad9061565c565b80156130fa5780601f106130cf576101008083540402835291602001916130fa565b820191906000526020600020905b8154815290600101906020018083116130dd57829003601f168201915b50505050508b613157565b8d54929550909350915060009061312990600160a81b900460ff1685848a89613293565b995094975090955061313c945050505050565b9250925092565b6060612a5a80612f0b858563ffffffff8416565b600080600080613165612a48565b60098101546040516325f69abd60e21b81529192506000916001600160a01b03909116906397da6af49061319d908a906004016142ce565b602060405180830381865afa1580156131ba573d6000803e3d6000fd5b505050506040513d601f19601f820116820180604052508101906131de9190615691565b9050851561325557806001600160a01b0316633cacb3ae6040518163ffffffff1660e01b8152600401606060405180830381865afa158015613224573d6000803e3d6000fd5b505050506040513d601f19601f8201168201806040525081019061324891906153d2565b945094509450505061313c565b806001600160a01b03166365f5cd866040518163ffffffff1660e01b8152600401606060405180830381865afa158015613224573d6000803e3d6000fd5b60008061329e612a48565b9050600060096132ae878a6146a4565b6132b891906146a4565b60098301549091506000906132d8908690600160a81b900460ff166146a4565b9050808210156132ea576132ea6156ae565b61330a6132f782846156c4565b61330290600a614542565b87908a613317565b9998505050505050505050565b600080821161335b5760405162461bcd60e51b815260206004820152601060248201526f4469766973696f6e206279207a65726f60801b6044820152606401610f62565b8361336857506000611f1a565b8383028385828161337b5761337b6156db565b04141561339a57828181613391576133916156db565b04915050611f1a565b5060006133a783866156f1565b905060006133b58487615705565b905060006133c385876156f1565b905060006133d18688615705565b9050856133de828561454e565b6133e891906156f1565b6133f2838561454e565b6133fc838761454e565b88613407868961454e565b613411919061454e565b61341b91906146a4565b61342591906146a4565b61342f91906146a4565b98975050505050505050565b60006101408284031215612e0857600080fd5b60006020828403121561346057600080fd5b81356001600160401b0381111561347657600080fd5b6134828482850161343b565b949350505050565b6001600160a01b03811681146119be57600080fd5b6000602082840312156134b157600080fd5b8135611f1a8161348a565b80356134c78161348a565b919050565b634e487b7160e01b600052604160045260246000fd5b60405161042081016001600160401b0381118282101715613505576135056134cc565b60405290565b60405160a081016001600160401b0381118282101715613505576135056134cc565b60405161014081016001600160401b0381118282101715613505576135056134cc565b604051601f8201601f191681016001600160401b0381118282101715613578576135786134cc565b604052919050565b60006001600160401b03821115613599576135996134cc565b50601f01601f191660200190565b600082601f8301126135b857600080fd5b81356135cb6135c682613580565b613550565b8181528460208386010111156135e057600080fd5b816020850160208301376000918101602001919091529392505050565b60008060006060848603121561361257600080fd5b833561361d8161348a565b925060208401356001600160401b0381111561363857600080fd5b613644868287016135a7565b925050604084013590509250925092565b634e487b7160e01b600052602160045260246000fd5b6005811061367b5761367b613655565b9052565b60005b8381101561369a578181015183820152602001613682565b838111156110435750506000910152565b600081518084526136c381602086016020860161367f565b601f01601f19169290920160200192915050565b602081526136e960208201835161366b565b6000602083015161370560408401826001600160a01b03169052565b5060408301516001600160a01b03811660608401525060608301516001600160a01b03811660808401525060808301516104208060a085015261374c6104408501836136ab565b915060a085015161376160c086018215159052565b5060c085015160e085015260e0850151610100818187015280870151915050610120613797818701836001600160a01b03169052565b8601516101408681019190915286015161016080870191909152860151610180808701919091528601516101a0808701919091528601516101c0808701919091528601516101e08087019190915286015161020080870191909152860151610220808701919091528601516102408087019190915286015161026080870191909152860151610280808701919091528601516102a0808701919091528601516102c0808701919091528601516102e08087019190915286015161030080870191909152860151610320808701919091528601516103408087019190915286015161036080870191909152860151610380808701919091528601516103a0808701919091528601516103c0808701919091528601516103e080870191909152860151610400808701919091529095015193019290925250919050565b60006101c08284031215612e0857600080fd5b600080604083850312156138f857600080fd5b82356001600160401b0381111561390e57600080fd5b61391a858286016138d2565b95602094909401359450505050565b600381106119be57600080fd5b80356134c781613929565b600080600080600060a0868803121561395957600080fd5b853561396481613929565b945060208601356139748161348a565b94979496505050506040830135926060810135926080909101359150565b600080604083850312156139a557600080fd5b8235915060208301356001600160401b038111156139c257600080fd5b6139ce858286016135a7565b9150509250929050565b600080604083850312156139eb57600080fd5b82356001600160401b03811115613a0157600080fd5b83016101608186031215613a1457600080fd5b946020939093013593505050565b60006101008284031215612e0857600080fd5b600060208284031215613a4757600080fd5b81356001600160401b03811115613a5d57600080fd5b61348284828501613a22565b60008060408385031215613a7c57600080fd5b8235613a148161348a565b600060208284031215613a9957600080fd5b5035919050565b60008060408385031215613ab357600080fd5b82356001600160401b03811115613ac957600080fd5b61391a85828601613a22565b60006101208284031215612e0857600080fd5b60008060408385031215613afb57600080fd5b82356001600160401b03811115613b1157600080fd5b613b1d85828601613ad5565b9250506020830135613b2e8161348a565b809150509250929050565b60008060408385031215613b4c57600080fd5b8235613b578161348a565b91506020830135613b2e8161348a565b60008060408385031215613b7a57600080fd5b50508035926020909101359150565b6040808252835182820181905260009190606090818501906020808901865b83811015613bf357815180516001600160a01b031686528381015184870152878101518887015286810151878701526080908101519086015260a09094019390820190600101613ba8565b505095909501959095525092949350505050565b600080600060408486031215613c1c57600080fd5b83356001600160401b0380821115613c3357600080fd5b818601915086601f830112613c4757600080fd5b813581811115613c5657600080fd5b8760208260051b8501011115613c6b57600080fd5b60209283019550935050840135613c818161348a565b809150509250925092565b81516001600160a01b0316815261058081016020830151613cb860208401826001600160a01b03169052565b506040830151613cd360408401826001600160a01b03169052565b506060830151613cee60608401826001600160a01b03169052565b506080830151613d0960808401826001600160a01b03169052565b5060a0830151613d2460a08401826001600160a01b03169052565b5060c0830151613d3f60c08401826001600160a01b03169052565b5060e0830151613d5a60e08401826001600160a01b03169052565b50610100838101516001600160a01b0390811691840191909152610120808501518216908401526101408085015160ff9081169185019190915261016080860151909116908401526101808085015163ffffffff908116918501919091526101a080860151909216918401919091526101c0808501511515908401526101e0808501518216908401526102008085015161ffff90811691850191909152610220808601516001600160401b03908116918601919091526102408087015182169086015261026080870151821690860152610280808701518216908601526102a0808701518216908601526102c0808701511515908601526102e08087015182169086015261030080870151821690860152610320808701518316908601526103408087015184169086015261036080870151841690860152610380808701518216908601526103a0808701516001600160801b03908116918701919091526103c0808801518416908701526103e080880151909316928601929092526104008087015190921691850191909152610420808601518216908501526104408086015182169085015261046080860151821690850152610480808601518216908501526104a0808601518216908501526104c0808601518216908501526104e080860151821690850152610500808601519092169184019190915261052080850151821690840152610540808501518216908401526105609384015116929091019190915290565b600060208284031215613f9257600080fd5b81356001600160401b03811115613fa857600080fd5b613482848285016138d2565b600080600060608486031215613fc957600080fd5b83356001600160401b03811115613fdf57600080fd5b613feb868287016138d2565b9350506020840135613ffc8161348a565b929592945050506040919091013590565b6000806040838503121561402057600080fd5b82356001600160401b0381111561403657600080fd5b613b1d858286016138d2565b600381106119be576119be613655565b61367b81614042565b600061014061406b848451614052565b602083015161408560208601826001600160a01b03169052565b50604083015160408501526060830151606085015260808301516140ad608086018215159052565b5060a08301518160a08601526140c5828601826136ab565b91505060c083015184820360c08601526140df82826136ab565b60e085810151908701526101008086015190870152610120948501519490950193909352509192915050565b6000602080830181845280855180835260408601915060408160051b870101925083870160005b8281101561416057603f1988860301845261414e85835161405b565b94509285019290850190600101614132565b5092979650505050505050565b80151581146119be57600080fd5b80356134c78161416d565b60006020828403121561419857600080fd5b8135611f1a8161416d565b6000806000606084860312156141b857600080fd5b83356141c38161348a565b95602085013595506040909401359392505050565b604080825283519082018190526000906020906060840190828701845b8281101561421a5781516001600160a01b0316845292840192908401906001016141f5565b50505092019290925292915050565b6000806040838503121561423c57600080fd5b82356142478161348a565b915060208301356001600160401b038111156139c257600080fd5b60008060006060848603121561427757600080fd5b83356001600160401b038082111561428e57600080fd5b61429a87838801613ad5565b945060208601359150808211156142b057600080fd5b506142bd86828701613ad5565b9250506040840135613c818161348a565b602081526000611f1a60208301846136ab565b6000806000606084860312156142f657600080fd5b83356143018161348a565b92506020840135613ffc8161348a565b6000806000806080858703121561432757600080fd5b84356143328161348a565b935060208501356143428161348a565b92506040850135915060608501356001600160401b0381111561436457600080fd5b614370878288016135a7565b91505092959194509250565b60008060006040848603121561439157600080fd5b8335925060208401356001600160401b03808211156143af57600080fd5b818601915086601f8301126143c357600080fd5b8135818111156143d257600080fd5b8760208285010111156143e457600080fd5b6020830194508093505050509250925092565b6000806040838503121561440a57600080fd5b8235613b5781613929565b602081526000611f1a602083018461405b565b60008060006060848603121561443d57600080fd5b833561430181613929565b634e487b7160e01b600052601160045260246000fd5b600181815b8085111561449957816000190482111561447f5761447f614448565b8085161561448c57918102915b93841c9390800290614463565b509250929050565b6000826144b0575060016111e7565b816144bd575060006111e7565b81600181146144d357600281146144dd576144f9565b60019150506111e7565b60ff8411156144ee576144ee614448565b50506001821b6111e7565b5060208310610133831016604e8410600b841016171561451c575081810a6111e7565b614526838361445e565b806000190482111561453a5761453a614448565b029392505050565b6000611f1a83836144a1565b600081600019048311821515161561456857614568614448565b500290565b6000808335601e1984360301811261458457600080fd5b83016020810192503590506001600160401b038111156145a357600080fd5b8036038313156118dd57600080fd5b81835281816020850137506000828201602090810191909152601f909101601f19169091010190565b6145e484614042565b8381526001600160a01b0383166020820152606060408201526000614609838061456d565b6101408060608601526146216101a0860183856145b2565b925061462f602087016134bc565b6001600160a01b03811660808701529150604086013560a0860152606086013560c0860152608086013560e0860152610100915060a08601358286015261012060c08701358187015260e087013582870152828701356101608701528087013561018087015250505080915050949350505050565b600082198211156146b7576146b7614448565b500190565b6001600160a01b03841681526060602082018190526000906146e0908301856136ab565b9050826040830152949350505050565b60006020828403121561470257600080fd5b5051919050565b8051600581106134c757600080fd5b80516134c78161348a565b60006147316135c684613580565b905082815283838301111561474557600080fd5b611f1a83602083018461367f565b600082601f83011261476457600080fd5b611f1a83835160208501614723565b80516134c78161416d565b60006020828403121561479057600080fd5b81516001600160401b03808211156147a757600080fd5b9083019061042082860312156147bc57600080fd5b6147c46134e2565b6147cd83614709565b81526147db60208401614718565b60208201526147ec60408401614718565b60408201526147fd60608401614718565b606082015260808301518281111561481457600080fd5b61482087828601614753565b60808301525061483260a08401614773565b60a082015260c083015160c082015260e083015160e0820152610100915061485b828401614718565b9181019190915261012082810151908201526101408083015190820152610160808301519082015261018080830151908201526101a080830151908201526101c080830151908201526101e08083015190820152610200808301519082015261022080830151908201526102408083015190820152610260808301519082015261028080830151908201526102a080830151908201526102c080830151908201526102e08083015190820152610300808301519082015261032080830151908201526103408083015190820152610360808301519082015261038080830151908201526103a080830151908201526103c080830151908201526103e0808301519082015261040091820151918101919091529392505050565b6000808335601e1984360301811261498b57600080fd5b83016020810192503590506001600160401b038111156149aa57600080fd5b8060051b36038313156118dd57600080fd5b81835260006001600160fb1b038311156149d557600080fd5b8260051b8083602087013760009401602001938452509192915050565b80356001600160401b03811681146134c757600080fd5b803560ff811681146134c757600080fd5b60006101c082358452614a306020840184614974565b826020870152614a4383870182846149bc565b92505050614a53604084016149f2565b6001600160401b03166040850152614a6d606084016149f2565b6001600160401b0316606085015260808381013590850152614a9160a08401614a09565b60ff1660a0850152614aa560c08401614a09565b60ff1660c085015260e083810135908501526101008084013590850152610120808401359085015261014080840135908501526101608084013590850152610180614af181850161417b565b1515908501526101a0614b05848201614a09565b60ff169401939093525090919050565b604081526000614b286040830185614a1a565b90506001600160401b03831660208301529392505050565b60a08101614b4d87614042565b9581526001600160a01b039490941660208501526040840192909252606083015260809091015290565b6001600160a01b03841681526001600160401b0383166020820152606060408201819052600090612f0b908301846136ab565b80356001600160801b03811681146134c757600080fd5b60408152823560408201526000614bdb6020850185614974565b610160806060860152614bf36101a0860183856149bc565b9250614c01604088016149f2565b6001600160401b03811660808701529150614c1e606088016149f2565b6001600160401b03811660a08701529150608087013560c086015260a087013560e0860152614c4f60c08801614baa565b9150610100614c68818701846001600160801b03169052565b614c7460e089016149f2565b9250610120614c8d818801856001600160401b03169052565b614c98828a016149f2565b93506101409150614cb3828801856001600160401b03169052565b614cbe818a016149f2565b935050614cd5828701846001600160401b03169052565b614ce08189016149f2565b92505050614cfa6101808501826001600160401b03169052565b506001600160401b03841660208401529050611f1a565b600061010082358452614d276020840184614974565b826020870152614d3a83870182846149bc565b92505050614d4a604084016149f2565b6001600160401b03808216604087015280614d67606087016149f2565b16606087015260ff614d7b60808701614a09565b16608087015280614d8e60a087016149f2565b1660a08701525050614da260c084016149f2565b6001600160401b031660c0850152614dbc60e084016149f2565b6001600160401b03811660e0860152509392505050565b602081526000611f1a6020830184614d11565b60608101614df385614042565b9381526001600160a01b0392909216602083015260409091015290565b600060208284031215614e2257600080fd5b8151611f1a8161416d565b604081526000614b286040830185614d11565b600061012082358452614e566020840184614974565b826020870152614e6983870182846149bc565b925050506001600160401b03614e81604085016149f2565b166040850152614e93606084016149f2565b6001600160401b0316606085015260808381013590850152614eb760a08401614a09565b60ff1660a085015260c0838101359085015260e080840135908501526101009283013592909301919091525090565b604081526000614ef96040830185614e40565b905060018060a01b03831660208301529392505050565b60008060408385031215614f2357600080fd5b8251614f2e8161348a565b6020840151909250613b2e8161348a565b60006001600160401b03821115614f5857614f586134cc565b5060051b60200190565b6000806040808486031215614f7657600080fd5b83516001600160401b03811115614f8c57600080fd5b8401601f81018613614f9d57600080fd5b80516020614fad6135c683614f3f565b82815260a0928302840182019282820191908a851115614fcc57600080fd5b948301945b848610156150315780868c031215614fe95760008081fd5b614ff161350b565b8651614ffc8161348a565b815286850151858201528787015188820152606080880151908201526080808801519082015283529485019491830191614fd1565b5097909101519698969750505050505050565b6040808252810183905260006060600585901b830181019083018683805b888110156150aa57868503605f190184528235368b900361011e19018112615088578283fd5b615094868c8301614e40565b9550506020938401939290920191600101615062565b505050506001600160a01b0393909316602092909201919091525092915050565b602081526000611f1a6020830184614a1a565b6020808252601f908201527f5265656e7472616e637947756172643a207265656e7472616e742063616c6c00604082015260600190565b6060815260006151286060830186614a1a565b6001600160a01b03949094166020830152506001600160401b0391909116604090910152919050565b6020815261516a6020820161516584613936565b614052565b6000615178602084016134bc565b6001600160a01b03811660408401525060408301356060830152606083013560808301526151a86080840161417b565b80151560a0840152506151be60a084018461456d565b6101408060c08601526151d6610160860183856145b2565b92506151e560c087018761456d565b868503601f190160e088015292506151fe8484836145b2565b60e0880135610100888101919091528801356101208089019190915290970135919095015250929392505050565b604081526000614ef96040830185614a1a565b80516134c781613929565b6000610140828403121561525d57600080fd5b61526561352d565b90506152708261523f565b815261527e60208301614718565b602082015260408201516040820152606082015160608201526152a360808301614773565b608082015260a08201516001600160401b03808211156152c257600080fd5b6152ce85838601614753565b60a084015260c08401519150808211156152e757600080fd5b506152f484828501614753565b60c08301525060e082015160e082015261010080830151818301525061012080830151818301525092915050565b6000602080838503121561533557600080fd5b82516001600160401b038082111561534c57600080fd5b818501915085601f83011261536057600080fd5b815161536e6135c682614f3f565b81815260059190911b8301840190848101908883111561538d57600080fd5b8585015b838110156153c5578051858111156153a95760008081fd5b6153b78b89838a010161524a565b845250918601918601615391565b5098975050505050505050565b6000806000606084860312156153e757600080fd5b8351925060208401519150604084015190509250925092565b6000806040838503121561541357600080fd5b82516001600160401b0381111561542957600080fd5b8301601f8101851361543a57600080fd5b8051602061544a6135c683614f3f565b82815260059290921b8301810191818101908884111561546957600080fd5b938201935b838510156154905784516154818161348a565b8252938201939082019061546e565b969091015195979596505050505050565b6001600160a01b0383168152604060208201819052600090613482908301846136ab565b6060815260006154d86060830186614e40565b82810360208401526154ea8186614e40565b91505060018060a01b0383166040830152949350505050565b60006001600160401b038083168185168183048111821515161561552957615529614448565b02949350505050565b6001600160a01b0385811682528416602082015260408101839052608060608201819052600090615565908301846136ab565b9695505050505050565b838152604060208201526000612f0b6040830184866145b2565b6040810161559684614042565b9281526001600160a01b039190911660209091015290565b6000602082840312156155c057600080fd5b81516001600160401b038111156155d657600080fd5b6134828482850161524a565b600082516155f481846020870161367f565b9190910192915050565b634e487b7160e01b600052603260045260246000fd5b60006020828403121561562657600080fd5b81516001600160401b0381111561563c57600080fd5b8201601f8101841361564d57600080fd5b61348284825160208401614723565b600181811c9082168061567057607f821691505b60208210811415612e0857634e487b7160e01b600052602260045260246000fd5b6000602082840312156156a357600080fd5b8151611f1a8161348a565b634e487b7160e01b600052600160045260246000fd5b6000828210156156d6576156d6614448565b500390565b634e487b7160e01b600052601260045260246000fd5b600082615700576157006156db565b500490565b600082615714576157146156db565b50069056feec7e8c1c441439dd40959777f4c577ea0cd42fcc1dbe59d2bd0f5d9c55df8dd8ec7e8c1c441439dd40959777f4c577ea0cd42fcc1dbe59d2bd0f5d9c55df8db6a2646970667358221220eab37b1516542f68cd8f741e774d8fb49e58f00739c558d9d5d5d446e1919bfb64736f6c634300080b0033",
  "linkReferences": {
    "contracts/fasset/library/AgentSettingsUpdater.sol": {
      "AgentSettingsUpdater": [
        {
          "length": 20,
          "start": 7736
        },
        {
          "length": 20,
          "start": 13381
        }
      ]
    },
    "contracts/fasset/library/AgentsCreateDestroy.sol": {
      "AgentsCreateDestroy": [
        {
          "length": 20,
          "start": 7229
        },
        {
          "length": 20,
          "start": 9487
        },
        {
          "length": 20,
          "start": 9860
        },
        {
          "length": 20,
          "start": 11297
        },
        {
          "length": 20,
          "start": 12235
        },
        {
          "length": 20,
          "start": 12419
        }
      ]
    },
    "contracts/fasset/library/AgentsExternal.sol": {
      "AgentsExternal": [
        {
          "length": 20,
          "start": 7425
        },
        {
          "length": 20,
          "start": 8724
        },
        {
          "length": 20,
          "start": 8812
        },
        {
          "length": 20,
          "start": 9615
        },
        {
          "length": 20,
          "start": 9684
        },
        {
          "length": 20,
          "start": 11550
        },
        {
          "length": 20,
          "start": 13681
        },
        {
          "length": 20,
          "start": 14233
        },
        {
          "length": 20,
          "start": 14282
        }
      ]
    },
    "contracts/fasset/library/AvailableAgents.sol": {
      "AvailableAgents": [
        {
          "length": 20,
          "start": 7355
        },
        {
          "length": 20,
          "start": 9018
        },
        {
          "length": 20,
          "start": 9551
        },
        {
          "length": 20,
          "start": 9944
        },
        {
          "length": 20,
          "start": 13268
        }
      ]
    },
    "contracts/fasset/library/Challenges.sol": {
      "Challenges": [
        {
          "length": 20,
          "start": 9415
        },
        {
          "length": 20,
          "start": 10077
        },
        {
          "length": 20,
          "start": 13446
        }
      ]
    },
    "contracts/fasset/library/CollateralReservations.sol": {
      "CollateralReservations": [
        {
          "length": 20,
          "start": 8850
        },
        {
          "length": 20,
          "start": 9788
        },
        {
          "length": 20,
          "start": 12629
        },
        {
          "length": 20,
          "start": 13099
        }
      ]
    },
    "contracts/fasset/library/CollateralTokens.sol": {
      "CollateralTokens": [
        {
          "length": 20,
          "start": 177
        },
        {
          "length": 20,
          "start": 8411
        },
        {
          "length": 20,
          "start": 11745
        },
        {
          "length": 20,
          "start": 11910
        },
        {
          "length": 20,
          "start": 12997
        },
        {
          "length": 20,
          "start": 14092
        },
        {
          "length": 20,
          "start": 14350
        }
      ]
    },
    "contracts/fasset/library/FullAgentInfo.sol": {
      "FullAgentInfo": [
        {
          "length": 20,
          "start": 8167
        }
      ]
    },
    "contracts/fasset/library/Liquidation.sol": {
      "Liquidation": [
        {
          "length": 20,
          "start": 12299
        },
        {
          "length": 20,
          "start": 12503
        },
        {
          "length": 20,
          "start": 13199
        }
      ]
    },
    "contracts/fasset/library/Minting.sol": {
      "Minting": [
        {
          "length": 20,
          "start": 11387
        },
        {
          "length": 20,
          "start": 12790
        }
      ]
    },
    "contracts/fasset/library/RedemptionConfirmations.sol": {
      "RedemptionConfirmations": [
        {
          "length": 20,
          "start": 8273
        }
      ]
    },
    "contracts/fasset/library/RedemptionFailures.sol": {
      "RedemptionFailures": [
        {
          "length": 20,
          "start": 8591
        },
        {
          "length": 20,
          "start": 9329
        }
      ]
    },
    "contracts/fasset/library/RedemptionRequests.sol": {
      "RedemptionRequests": [
        {
          "length": 20,
          "start": 8524
        },
        {
          "length": 20,
          "start": 11688
        },
        {
          "length": 20,
          "start": 13614
        },
        {
          "length": 20,
          "start": 13787
        }
      ]
    },
    "contracts/fasset/library/SettingsUpdater.sol": {
      "SettingsUpdater": [
        {
          "length": 20,
          "start": 72
        },
        {
          "length": 20,
          "start": 13935
        }
      ]
    },
    "contracts/fasset/library/StateUpdater.sol": {
      "StateUpdater": [
        {
          "length": 20,
          "start": 8669
        }
      ]
    },
    "contracts/fasset/library/UnderlyingFreeBalance.sol": {
      "UnderlyingFreeBalance": [
        {
          "length": 20,
          "start": 13730
        }
      ]
    },
    "contracts/fasset/library/UnderlyingWithdrawalAnnouncements.sol": {
      "UnderlyingWithdrawalAnnouncements": [
        {
          "length": 20,
          "start": 11815
        },
        {
          "length": 20,
          "start": 11864
        },
        {
          "length": 20,
          "start": 12940
        }
      ]
    }
  },
  "deployedLinkReferences": {
    "contracts/fasset/library/AgentSettingsUpdater.sol": {
      "AgentSettingsUpdater": [
        {
          "length": 20,
          "start": 4054
        },
        {
          "length": 20,
          "start": 9699
        }
      ]
    },
    "contracts/fasset/library/AgentsCreateDestroy.sol": {
      "AgentsCreateDestroy": [
        {
          "length": 20,
          "start": 3547
        },
        {
          "length": 20,
          "start": 5805
        },
        {
          "length": 20,
          "start": 6178
        },
        {
          "length": 20,
          "start": 7615
        },
        {
          "length": 20,
          "start": 8553
        },
        {
          "length": 20,
          "start": 8737
        }
      ]
    },
    "contracts/fasset/library/AgentsExternal.sol": {
      "AgentsExternal": [
        {
          "length": 20,
          "start": 3743
        },
        {
          "length": 20,
          "start": 5042
        },
        {
          "length": 20,
          "start": 5130
        },
        {
          "length": 20,
          "start": 5933
        },
        {
          "length": 20,
          "start": 6002
        },
        {
          "length": 20,
          "start": 7868
        },
        {
          "length": 20,
          "start": 9999
        },
        {
          "length": 20,
          "start": 10551
        },
        {
          "length": 20,
          "start": 10600
        }
      ]
    },
    "contracts/fasset/library/AvailableAgents.sol": {
      "AvailableAgents": [
        {
          "length": 20,
          "start": 3673
        },
        {
          "length": 20,
          "start": 5336
        },
        {
          "length": 20,
          "start": 5869
        },
        {
          "length": 20,
          "start": 6262
        },
        {
          "length": 20,
          "start": 9586
        }
      ]
    },
    "contracts/fasset/library/Challenges.sol": {
      "Challenges": [
        {
          "length": 20,
          "start": 5733
        },
        {
          "length": 20,
          "start": 6395
        },
        {
          "length": 20,
          "start": 9764
        }
      ]
    },
    "contracts/fasset/library/CollateralReservations.sol": {
      "CollateralReservations": [
        {
          "length": 20,
          "start": 5168
        },
        {
          "length": 20,
          "start": 6106
        },
        {
          "length": 20,
          "start": 8947
        },
        {
          "length": 20,
          "start": 9417
        }
      ]
    },
    "contracts/fasset/library/CollateralTokens.sol": {
      "CollateralTokens": [
        {
          "length": 20,
          "start": 4729
        },
        {
          "length": 20,
          "start": 8063
        },
        {
          "length": 20,
          "start": 8228
        },
        {
          "length": 20,
          "start": 9315
        },
        {
          "length": 20,
          "start": 10410
        },
        {
          "length": 20,
          "start": 10668
        }
      ]
    },
    "contracts/fasset/library/FullAgentInfo.sol": {
      "FullAgentInfo": [
        {
          "length": 20,
          "start": 4485
        }
      ]
    },
    "contracts/fasset/library/Liquidation.sol": {
      "Liquidation": [
        {
          "length": 20,
          "start": 8617
        },
        {
          "length": 20,
          "start": 8821
        },
        {
          "length": 20,
          "start": 9517
        }
      ]
    },
    "contracts/fasset/library/Minting.sol": {
      "Minting": [
        {
          "length": 20,
          "start": 7705
        },
        {
          "length": 20,
          "start": 9108
        }
      ]
    },
    "contracts/fasset/library/RedemptionConfirmations.sol": {
      "RedemptionConfirmations": [
        {
          "length": 20,
          "start": 4591
        }
      ]
    },
    "contracts/fasset/library/RedemptionFailures.sol": {
      "RedemptionFailures": [
        {
          "length": 20,
          "start": 4909
        },
        {
          "length": 20,
          "start": 5647
        }
      ]
    },
    "contracts/fasset/library/RedemptionRequests.sol": {
      "RedemptionRequests": [
        {
          "length": 20,
          "start": 4842
        },
        {
          "length": 20,
          "start": 8006
        },
        {
          "length": 20,
          "start": 9932
        },
        {
          "length": 20,
          "start": 10105
        }
      ]
    },
    "contracts/fasset/library/SettingsUpdater.sol": {
      "SettingsUpdater": [
        {
          "length": 20,
          "start": 10253
        }
      ]
    },
    "contracts/fasset/library/StateUpdater.sol": {
      "StateUpdater": [
        {
          "length": 20,
          "start": 4987
        }
      ]
    },
    "contracts/fasset/library/UnderlyingFreeBalance.sol": {
      "UnderlyingFreeBalance": [
        {
          "length": 20,
          "start": 10048
        }
      ]
    },
    "contracts/fasset/library/UnderlyingWithdrawalAnnouncements.sol": {
      "UnderlyingWithdrawalAnnouncements": [
        {
          "length": 20,
          "start": 8133
        },
        {
          "length": 20,
          "start": 8182
        },
        {
          "length": 20,
          "start": 9258
        }
      ]
    }
  }
}