{
  "_format": "hh-sol-artifact-1",
  "contractName": "AssetManager",
  "sourceName": "contracts/fasset/implementation/AssetManager.sol",
  "abi": [
    {
      "inputs": [
        {
          "components": [
            {
              "internalType": "address",
              "name": "assetManagerController",
              "type": "address"
            },
            {
              "internalType": "address",
              "name": "fAsset",
              "type": "address"
            },
            {
              "internalType": "address",
              "name": "agentVaultFactory",
              "type": "address"
            },
            {
              "internalType": "address",
              "name": "collateralPoolFactory",
              "type": "address"
            },
            {
              "internalType": "address",
              "name": "whitelist",
              "type": "address"
            },
            {
              "internalType": "address",
              "name": "agentWhitelist",
              "type": "address"
            },
            {
              "internalType": "address",
              "name": "attestationClient",
              "type": "address"
            },
            {
              "internalType": "address",
              "name": "underlyingAddressValidator",
              "type": "address"
            },
            {
              "internalType": "address",
              "name": "liquidationStrategy",
              "type": "address"
            },
            {
              "internalType": "address payable",
              "name": "burnAddress",
              "type": "address"
            },
            {
              "internalType": "address",
              "name": "ftsoRegistry",
              "type": "address"
            },
            {
              "internalType": "uint8",
              "name": "assetDecimals",
              "type": "uint8"
            },
            {
              "internalType": "uint8",
              "name": "assetMintingDecimals",
              "type": "uint8"
            },
            {
              "internalType": "uint32",
              "name": "chainId",
              "type": "uint32"
            },
            {
              "internalType": "uint32",
              "name": "averageBlockTimeMS",
              "type": "uint32"
            },
            {
              "internalType": "uint32",
              "name": "mintingPoolHoldingsRequiredBIPS",
              "type": "uint32"
            },
            {
              "internalType": "uint16",
              "name": "collateralReservationFeeBIPS",
              "type": "uint16"
            },
            {
              "internalType": "uint64",
              "name": "assetUnitUBA",
              "type": "uint64"
            },
            {
              "internalType": "uint64",
              "name": "assetMintingGranularityUBA",
              "type": "uint64"
            },
            {
              "internalType": "uint64",
              "name": "lotSizeAMG",
              "type": "uint64"
            },
            {
              "internalType": "uint16",
              "name": "minUnderlyingBackingBIPS",
              "type": "uint16"
            },
            {
              "internalType": "bool",
              "name": "requireEOAAddressProof",
              "type": "bool"
            },
            {
              "internalType": "uint64",
              "name": "mintingCapAMG",
              "type": "uint64"
            },
            {
              "internalType": "uint64",
              "name": "underlyingBlocksForPayment",
              "type": "uint64"
            },
            {
              "internalType": "uint64",
              "name": "underlyingSecondsForPayment",
              "type": "uint64"
            },
            {
              "internalType": "uint16",
              "name": "redemptionFeeBIPS",
              "type": "uint16"
            },
            {
              "internalType": "uint32",
              "name": "redemptionDefaultFactorAgentC1BIPS",
              "type": "uint32"
            },
            {
              "internalType": "uint32",
              "name": "redemptionDefaultFactorPoolBIPS",
              "type": "uint32"
            },
            {
              "internalType": "uint64",
              "name": "confirmationByOthersAfterSeconds",
              "type": "uint64"
            },
            {
              "internalType": "uint128",
              "name": "confirmationByOthersRewardUSD5",
              "type": "uint128"
            },
            {
              "internalType": "uint16",
              "name": "maxRedeemedTickets",
              "type": "uint16"
            },
            {
              "internalType": "uint16",
              "name": "paymentChallengeRewardBIPS",
              "type": "uint16"
            },
            {
              "internalType": "uint128",
              "name": "paymentChallengeRewardUSD5",
              "type": "uint128"
            },
            {
              "internalType": "uint64",
              "name": "withdrawalWaitMinSeconds",
              "type": "uint64"
            },
            {
              "internalType": "uint64",
              "name": "maxTrustedPriceAgeSeconds",
              "type": "uint64"
            },
            {
              "internalType": "uint64",
              "name": "ccbTimeSeconds",
              "type": "uint64"
            },
            {
              "internalType": "uint64",
              "name": "attestationWindowSeconds",
              "type": "uint64"
            },
            {
              "internalType": "uint64",
              "name": "minUpdateRepeatTimeSeconds",
              "type": "uint64"
            },
            {
              "internalType": "uint64",
              "name": "buybackCollateralFactorBIPS",
              "type": "uint64"
            },
            {
              "internalType": "uint64",
              "name": "announcedUnderlyingConfirmationMinSeconds",
              "type": "uint64"
            },
            {
              "internalType": "uint64",
              "name": "tokenInvalidationTimeMinSeconds",
              "type": "uint64"
            },
            {
              "internalType": "uint32",
              "name": "class1BuyForFlareFactorBIPS",
              "type": "uint32"
            },
            {
              "internalType": "uint64",
              "name": "agentExitAvailableTimelockSeconds",
              "type": "uint64"
            },
            {
              "internalType": "uint64",
              "name": "agentFeeChangeTimelockSeconds",
              "type": "uint64"
            },
            {
              "internalType": "uint64",
              "name": "agentCollateralRatioChangeTimelockSeconds",
              "type": "uint64"
            }
          ],
          "internalType": "struct AssetManagerSettings.Data",
          "name": "_settings",
          "type": "tuple"
        },
        {
          "components": [
            {
              "internalType": "enum CollateralType.Class",
              "name": "collateralClass",
              "type": "uint8"
            },
            {
              "internalType": "contract IERC20",
              "name": "token",
              "type": "address"
            },
            {
              "internalType": "uint256",
              "name": "decimals",
              "type": "uint256"
            },
            {
              "internalType": "uint256",
              "name": "validUntil",
              "type": "uint256"
            },
            {
              "internalType": "bool",
              "name": "directPricePair",
              "type": "bool"
            },
            {
              "internalType": "string",
              "name": "assetFtsoSymbol",
              "type": "string"
            },
            {
              "internalType": "string",
              "name": "tokenFtsoSymbol",
              "type": "string"
            },
            {
              "internalType": "uint256",
              "name": "minCollateralRatioBIPS",
              "type": "uint256"
            },
            {
              "internalType": "uint256",
              "name": "ccbMinCollateralRatioBIPS",
              "type": "uint256"
            },
            {
              "internalType": "uint256",
              "name": "safetyMinCollateralRatioBIPS",
              "type": "uint256"
            }
          ],
          "internalType": "struct CollateralType.Data[]",
          "name": "_initialCollateralTypes",
          "type": "tuple[]"
        },
        {
          "internalType": "bytes",
          "name": "_initialLiquidationSettings",
          "type": "bytes"
        }
      ],
      "stateMutability": "nonpayable",
      "type": "constructor"
    },
    {
      "anonymous": false,
      "inputs": [
        {
          "indexed": true,
          "internalType": "address",
          "name": "agentVault",
          "type": "address"
        },
        {
          "indexed": false,
          "internalType": "uint256",
          "name": "feeBIPS",
          "type": "uint256"
        },
        {
          "indexed": false,
          "internalType": "uint256",
          "name": "mintingClass1CollateralRatioBIPS",
          "type": "uint256"
        },
        {
          "indexed": false,
          "internalType": "uint256",
          "name": "mintingPoolCollateralRatioBIPS",
          "type": "uint256"
        },
        {
          "indexed": false,
          "internalType": "uint256",
          "name": "freeCollateralLots",
          "type": "uint256"
        }
      ],
      "name": "AgentAvailable",
      "type": "event"
    },
    {
      "anonymous": false,
      "inputs": [
        {
          "indexed": true,
          "internalType": "address",
          "name": "agentVault",
          "type": "address"
        },
        {
          "indexed": false,
          "internalType": "uint8",
          "name": "collateralClass",
          "type": "uint8"
        },
        {
          "indexed": false,
          "internalType": "address",
          "name": "token",
          "type": "address"
        }
      ],
      "name": "AgentCollateralTypeChanged",
      "type": "event"
    },
    {
      "anonymous": false,
      "inputs": [
        {
          "indexed": true,
          "internalType": "address",
          "name": "owner",
          "type": "address"
        },
        {
          "indexed": false,
          "internalType": "address",
          "name": "agentVault",
          "type": "address"
        },
        {
          "indexed": false,
          "internalType": "address",
          "name": "collateralPool",
          "type": "address"
        },
        {
          "indexed": false,
          "internalType": "string",
          "name": "underlyingAddress",
          "type": "string"
        },
        {
          "indexed": false,
          "internalType": "address",
          "name": "class1CollateralToken",
          "type": "address"
        },
        {
          "indexed": false,
          "internalType": "uint256",
          "name": "feeBIPS",
          "type": "uint256"
        },
        {
          "indexed": false,
          "internalType": "uint256",
          "name": "poolFeeShareBIPS",
          "type": "uint256"
        },
        {
          "indexed": false,
          "internalType": "uint256",
          "name": "mintingClass1CollateralRatioBIPS",
          "type": "uint256"
        },
        {
          "indexed": false,
          "internalType": "uint256",
          "name": "mintingPoolCollateralRatioBIPS",
          "type": "uint256"
        },
        {
          "indexed": false,
          "internalType": "uint256",
          "name": "buyFAssetByAgentFactorBIPS",
          "type": "uint256"
        },
        {
          "indexed": false,
          "internalType": "uint256",
          "name": "poolExitCollateralRatioBIPS",
          "type": "uint256"
        },
        {
          "indexed": false,
          "internalType": "uint256",
          "name": "poolTopupCollateralRatioBIPS",
          "type": "uint256"
        },
        {
          "indexed": false,
          "internalType": "uint256",
          "name": "poolTopupTokenPriceFactorBIPS",
          "type": "uint256"
        }
      ],
      "name": "AgentCreated",
      "type": "event"
    },
    {
      "anonymous": false,
      "inputs": [
        {
          "indexed": true,
          "internalType": "address",
          "name": "agentVault",
          "type": "address"
        },
        {
          "indexed": false,
          "internalType": "uint256",
          "name": "destroyAllowedAt",
          "type": "uint256"
        }
      ],
      "name": "AgentDestroyAnnounced",
      "type": "event"
    },
    {
      "anonymous": false,
      "inputs": [
        {
          "indexed": true,
          "internalType": "address",
          "name": "agentVault",
          "type": "address"
        }
      ],
      "name": "AgentDestroyed",
      "type": "event"
    },
    {
      "anonymous": false,
      "inputs": [
        {
          "indexed": true,
          "internalType": "address",
          "name": "agentVault",
          "type": "address"
        },
        {
          "indexed": false,
          "internalType": "uint256",
          "name": "timestamp",
          "type": "uint256"
        }
      ],
      "name": "AgentInCCB",
      "type": "event"
    },
    {
      "anonymous": false,
      "inputs": [
        {
          "indexed": true,
          "internalType": "address",
          "name": "agentVault",
          "type": "address"
        },
        {
          "indexed": false,
          "internalType": "string",
          "name": "name",
          "type": "string"
        },
        {
          "indexed": false,
          "internalType": "uint256",
          "name": "value",
          "type": "uint256"
        },
        {
          "indexed": false,
          "internalType": "uint256",
          "name": "validAt",
          "type": "uint256"
        }
      ],
      "name": "AgentSettingChangeAnnounced",
      "type": "event"
    },
    {
      "anonymous": false,
      "inputs": [
        {
          "indexed": true,
          "internalType": "address",
          "name": "agentVault",
          "type": "address"
        },
        {
          "indexed": false,
          "internalType": "string",
          "name": "name",
          "type": "string"
        },
        {
          "indexed": false,
          "internalType": "uint256",
          "name": "value",
          "type": "uint256"
        }
      ],
      "name": "AgentSettingChanged",
      "type": "event"
    },
    {
      "anonymous": false,
      "inputs": [
        {
          "indexed": true,
          "internalType": "address",
          "name": "agentVault",
          "type": "address"
        },
        {
          "indexed": false,
          "internalType": "uint256",
          "name": "exitAllowedAt",
          "type": "uint256"
        }
      ],
      "name": "AvailableAgentExitAnnounced",
      "type": "event"
    },
    {
      "anonymous": false,
      "inputs": [
        {
          "indexed": true,
          "internalType": "address",
          "name": "agentVault",
          "type": "address"
        }
      ],
      "name": "AvailableAgentExited",
      "type": "event"
    },
    {
      "anonymous": false,
      "inputs": [
        {
          "indexed": true,
          "internalType": "address",
          "name": "agentVault",
          "type": "address"
        },
        {
          "indexed": false,
          "internalType": "uint256",
          "name": "amountWei",
          "type": "uint256"
        },
        {
          "indexed": false,
          "internalType": "uint256",
          "name": "withdrawalAllowedAt",
          "type": "uint256"
        }
      ],
      "name": "Class1WithdrawalAnnounced",
      "type": "event"
    },
    {
      "anonymous": false,
      "inputs": [
        {
          "indexed": false,
          "internalType": "uint8",
          "name": "collateralClass",
          "type": "uint8"
        },
        {
          "indexed": false,
          "internalType": "address",
          "name": "collateralToken",
          "type": "address"
        },
        {
          "indexed": false,
          "internalType": "uint256",
          "name": "minCollateralRatioBIPS",
          "type": "uint256"
        },
        {
          "indexed": false,
          "internalType": "uint256",
          "name": "ccbMinCollateralRatioBIPS",
          "type": "uint256"
        },
        {
          "indexed": false,
          "internalType": "uint256",
          "name": "safetyMinCollateralRatioBIPS",
          "type": "uint256"
        }
      ],
      "name": "CollateralRatiosChanged",
      "type": "event"
    },
    {
      "anonymous": false,
      "inputs": [
        {
          "indexed": true,
          "internalType": "address",
          "name": "agentVault",
          "type": "address"
        },
        {
          "indexed": true,
          "internalType": "address",
          "name": "minter",
          "type": "address"
        },
        {
          "indexed": false,
          "internalType": "uint256",
          "name": "collateralReservationId",
          "type": "uint256"
        },
        {
          "indexed": false,
          "internalType": "uint256",
          "name": "reservedAmountUBA",
          "type": "uint256"
        }
      ],
      "name": "CollateralReservationDeleted",
      "type": "event"
    },
    {
      "anonymous": false,
      "inputs": [
        {
          "indexed": true,
          "internalType": "address",
          "name": "agentVault",
          "type": "address"
        },
        {
          "indexed": true,
          "internalType": "address",
          "name": "minter",
          "type": "address"
        },
        {
          "indexed": false,
          "internalType": "uint256",
          "name": "collateralReservationId",
          "type": "uint256"
        },
        {
          "indexed": false,
          "internalType": "uint256",
          "name": "valueUBA",
          "type": "uint256"
        },
        {
          "indexed": false,
          "internalType": "uint256",
          "name": "feeUBA",
          "type": "uint256"
        },
        {
          "indexed": false,
          "internalType": "uint256",
          "name": "firstUnderlyingBlock",
          "type": "uint256"
        },
        {
          "indexed": false,
          "internalType": "uint256",
          "name": "lastUnderlyingBlock",
          "type": "uint256"
        },
        {
          "indexed": false,
          "internalType": "uint256",
          "name": "lastUnderlyingTimestamp",
          "type": "uint256"
        },
        {
          "indexed": false,
          "internalType": "string",
          "name": "paymentAddress",
          "type": "string"
        },
        {
          "indexed": false,
          "internalType": "bytes32",
          "name": "paymentReference",
          "type": "bytes32"
        }
      ],
      "name": "CollateralReserved",
      "type": "event"
    },
    {
      "anonymous": false,
      "inputs": [
        {
          "indexed": false,
          "internalType": "uint8",
          "name": "collateralClass",
          "type": "uint8"
        },
        {
          "indexed": false,
          "internalType": "address",
          "name": "token",
          "type": "address"
        },
        {
          "indexed": false,
          "internalType": "uint256",
          "name": "decimals",
          "type": "uint256"
        },
        {
          "indexed": false,
          "internalType": "bool",
          "name": "directPricePair",
          "type": "bool"
        },
        {
          "indexed": false,
          "internalType": "string",
          "name": "assetFtsoSymbol",
          "type": "string"
        },
        {
          "indexed": false,
          "internalType": "string",
          "name": "tokenFtsoSymbol",
          "type": "string"
        },
        {
          "indexed": false,
          "internalType": "uint256",
          "name": "minCollateralRatioBIPS",
          "type": "uint256"
        },
        {
          "indexed": false,
          "internalType": "uint256",
          "name": "ccbMinCollateralRatioBIPS",
          "type": "uint256"
        },
        {
          "indexed": false,
          "internalType": "uint256",
          "name": "safetyMinCollateralRatioBIPS",
          "type": "uint256"
        }
      ],
      "name": "CollateralTypeAdded",
      "type": "event"
    },
    {
      "anonymous": false,
      "inputs": [
        {
          "indexed": false,
          "internalType": "uint8",
          "name": "collateralClass",
          "type": "uint8"
        },
        {
          "indexed": false,
          "internalType": "address",
          "name": "collateralToken",
          "type": "address"
        },
        {
          "indexed": false,
          "internalType": "uint256",
          "name": "validUntil",
          "type": "uint256"
        }
      ],
      "name": "CollateralTypeDeprecated",
      "type": "event"
    },
    {
      "anonymous": false,
      "inputs": [
        {
          "indexed": false,
          "internalType": "string",
          "name": "name",
          "type": "string"
        },
        {
          "indexed": false,
          "internalType": "address",
          "name": "value",
          "type": "address"
        }
      ],
      "name": "ContractChanged",
      "type": "event"
    },
    {
      "anonymous": false,
      "inputs": [
        {
          "indexed": true,
          "internalType": "address",
          "name": "agentVault",
          "type": "address"
        },
        {
          "indexed": false,
          "internalType": "bytes32",
          "name": "transactionHash1",
          "type": "bytes32"
        },
        {
          "indexed": false,
          "internalType": "bytes32",
          "name": "transactionHash2",
          "type": "bytes32"
        }
      ],
      "name": "DuplicatePaymentConfirmed",
      "type": "event"
    },
    {
      "anonymous": false,
      "inputs": [
        {
          "indexed": true,
          "internalType": "address",
          "name": "agentVault",
          "type": "address"
        },
        {
          "indexed": false,
          "internalType": "uint256",
          "name": "dustUBA",
          "type": "uint256"
        }
      ],
      "name": "DustChanged",
      "type": "event"
    },
    {
      "anonymous": false,
      "inputs": [
        {
          "indexed": true,
          "internalType": "address",
          "name": "agentVault",
          "type": "address"
        },
        {
          "indexed": false,
          "internalType": "uint256",
          "name": "redemptionTicketId",
          "type": "uint256"
        },
        {
          "indexed": false,
          "internalType": "uint256",
          "name": "valueUBA",
          "type": "uint256"
        }
      ],
      "name": "DustConvertedToTicket",
      "type": "event"
    },
    {
      "anonymous": false,
      "inputs": [
        {
          "indexed": true,
          "internalType": "address",
          "name": "agentVault",
          "type": "address"
        },
        {
          "indexed": false,
          "internalType": "uint256",
          "name": "timestamp",
          "type": "uint256"
        }
      ],
      "name": "FullLiquidationStarted",
      "type": "event"
    },
    {
      "anonymous": false,
      "inputs": [
        {
          "indexed": true,
          "internalType": "address",
          "name": "agentVault",
          "type": "address"
        },
        {
          "indexed": false,
          "internalType": "bytes32",
          "name": "transactionHash",
          "type": "bytes32"
        }
      ],
      "name": "IllegalPaymentConfirmed",
      "type": "event"
    },
    {
      "anonymous": false,
      "inputs": [
        {
          "indexed": true,
          "internalType": "address",
          "name": "agentVault",
          "type": "address"
        }
      ],
      "name": "LiquidationEnded",
      "type": "event"
    },
    {
      "anonymous": false,
      "inputs": [
        {
          "indexed": true,
          "internalType": "address",
          "name": "agentVault",
          "type": "address"
        },
        {
          "indexed": true,
          "internalType": "address",
          "name": "liquidator",
          "type": "address"
        },
        {
          "indexed": false,
          "internalType": "uint256",
          "name": "valueUBA",
          "type": "uint256"
        }
      ],
      "name": "LiquidationPerformed",
      "type": "event"
    },
    {
      "anonymous": false,
      "inputs": [
        {
          "indexed": true,
          "internalType": "address",
          "name": "agentVault",
          "type": "address"
        },
        {
          "indexed": false,
          "internalType": "uint256",
          "name": "timestamp",
          "type": "uint256"
        }
      ],
      "name": "LiquidationStarted",
      "type": "event"
    },
    {
      "anonymous": false,
      "inputs": [
        {
          "indexed": true,
          "internalType": "address",
          "name": "agentVault",
          "type": "address"
        },
        {
          "indexed": false,
          "internalType": "uint256",
          "name": "collateralReservationId",
          "type": "uint256"
        },
        {
          "indexed": false,
          "internalType": "uint256",
          "name": "redemptionTicketId",
          "type": "uint256"
        },
        {
          "indexed": false,
          "internalType": "uint256",
          "name": "mintedAmountUBA",
          "type": "uint256"
        },
        {
          "indexed": false,
          "internalType": "uint256",
          "name": "agentFeeUBA",
          "type": "uint256"
        },
        {
          "indexed": false,
          "internalType": "uint256",
          "name": "poolFeeUBA",
          "type": "uint256"
        }
      ],
      "name": "MintingExecuted",
      "type": "event"
    },
    {
      "anonymous": false,
      "inputs": [
        {
          "indexed": true,
          "internalType": "address",
          "name": "agentVault",
          "type": "address"
        },
        {
          "indexed": true,
          "internalType": "address",
          "name": "minter",
          "type": "address"
        },
        {
          "indexed": false,
          "internalType": "uint256",
          "name": "collateralReservationId",
          "type": "uint256"
        },
        {
          "indexed": false,
          "internalType": "uint256",
          "name": "reservedAmountUBA",
          "type": "uint256"
        }
      ],
      "name": "MintingPaymentDefault",
      "type": "event"
    },
    {
      "anonymous": false,
      "inputs": [
        {
          "indexed": true,
          "internalType": "address",
          "name": "agentVault",
          "type": "address"
        },
        {
          "indexed": false,
          "internalType": "uint256",
          "name": "amountWei",
          "type": "uint256"
        },
        {
          "indexed": false,
          "internalType": "uint256",
          "name": "withdrawalAllowedAt",
          "type": "uint256"
        }
      ],
      "name": "PoolTokenRedemptionAnnounced",
      "type": "event"
    },
    {
      "anonymous": false,
      "inputs": [
        {
          "indexed": true,
          "internalType": "address",
          "name": "agentVault",
          "type": "address"
        },
        {
          "indexed": true,
          "internalType": "address",
          "name": "redeemer",
          "type": "address"
        },
        {
          "indexed": false,
          "internalType": "uint256",
          "name": "redemptionAmountUBA",
          "type": "uint256"
        },
        {
          "indexed": false,
          "internalType": "uint256",
          "name": "redeemedClass1CollateralWei",
          "type": "uint256"
        },
        {
          "indexed": false,
          "internalType": "uint256",
          "name": "redeemedPoolCollateralWei",
          "type": "uint256"
        },
        {
          "indexed": false,
          "internalType": "uint64",
          "name": "requestId",
          "type": "uint64"
        }
      ],
      "name": "RedemptionDefault",
      "type": "event"
    },
    {
      "anonymous": false,
      "inputs": [
        {
          "indexed": true,
          "internalType": "address",
          "name": "agentVault",
          "type": "address"
        },
        {
          "indexed": true,
          "internalType": "address",
          "name": "redeemer",
          "type": "address"
        },
        {
          "indexed": false,
          "internalType": "bytes32",
          "name": "transactionHash",
          "type": "bytes32"
        },
        {
          "indexed": false,
          "internalType": "uint256",
          "name": "redemptionAmountUBA",
          "type": "uint256"
        },
        {
          "indexed": false,
          "internalType": "int256",
          "name": "spentUnderlyingUBA",
          "type": "int256"
        },
        {
          "indexed": false,
          "internalType": "uint64",
          "name": "requestId",
          "type": "uint64"
        }
      ],
      "name": "RedemptionPaymentBlocked",
      "type": "event"
    },
    {
      "anonymous": false,
      "inputs": [
        {
          "indexed": true,
          "internalType": "address",
          "name": "agentVault",
          "type": "address"
        },
        {
          "indexed": true,
          "internalType": "address",
          "name": "redeemer",
          "type": "address"
        },
        {
          "indexed": false,
          "internalType": "bytes32",
          "name": "transactionHash",
          "type": "bytes32"
        },
        {
          "indexed": false,
          "internalType": "int256",
          "name": "spentUnderlyingUBA",
          "type": "int256"
        },
        {
          "indexed": false,
          "internalType": "uint64",
          "name": "requestId",
          "type": "uint64"
        },
        {
          "indexed": false,
          "internalType": "string",
          "name": "failureReason",
          "type": "string"
        }
      ],
      "name": "RedemptionPaymentFailed",
      "type": "event"
    },
    {
      "anonymous": false,
      "inputs": [
        {
          "indexed": true,
          "internalType": "address",
          "name": "agentVault",
          "type": "address"
        },
        {
          "indexed": true,
          "internalType": "address",
          "name": "redeemer",
          "type": "address"
        },
        {
          "indexed": false,
          "internalType": "bytes32",
          "name": "transactionHash",
          "type": "bytes32"
        },
        {
          "indexed": false,
          "internalType": "uint256",
          "name": "redemptionAmountUBA",
          "type": "uint256"
        },
        {
          "indexed": false,
          "internalType": "int256",
          "name": "spentUnderlyingUBA",
          "type": "int256"
        },
        {
          "indexed": false,
          "internalType": "uint64",
          "name": "requestId",
          "type": "uint64"
        }
      ],
      "name": "RedemptionPerformed",
      "type": "event"
    },
    {
      "anonymous": false,
      "inputs": [
        {
          "indexed": true,
          "internalType": "address",
          "name": "redeemer",
          "type": "address"
        },
        {
          "indexed": false,
          "internalType": "uint256",
          "name": "remainingLots",
          "type": "uint256"
        }
      ],
      "name": "RedemptionRequestIncomplete",
      "type": "event"
    },
    {
      "anonymous": false,
      "inputs": [
        {
          "indexed": true,
          "internalType": "address",
          "name": "agentVault",
          "type": "address"
        },
        {
          "indexed": false,
          "internalType": "uint256",
          "name": "requestId",
          "type": "uint256"
        },
        {
          "indexed": false,
          "internalType": "string",
          "name": "paymentAddress",
          "type": "string"
        },
        {
          "indexed": false,
          "internalType": "uint256",
          "name": "valueUBA",
          "type": "uint256"
        },
        {
          "indexed": false,
          "internalType": "uint256",
          "name": "feeUBA",
          "type": "uint256"
        },
        {
          "indexed": false,
          "internalType": "uint256",
          "name": "firstUnderlyingBlock",
          "type": "uint256"
        },
        {
          "indexed": false,
          "internalType": "uint256",
          "name": "lastUnderlyingBlock",
          "type": "uint256"
        },
        {
          "indexed": false,
          "internalType": "uint256",
          "name": "lastUnderlyingTimestamp",
          "type": "uint256"
        },
        {
          "indexed": false,
          "internalType": "bytes32",
          "name": "paymentReference",
          "type": "bytes32"
        }
      ],
      "name": "RedemptionRequested",
      "type": "event"
    },
    {
      "anonymous": false,
      "inputs": [
        {
          "indexed": true,
          "internalType": "address",
          "name": "agentVault",
          "type": "address"
        },
        {
          "indexed": false,
          "internalType": "uint256",
          "name": "valueUBA",
          "type": "uint256"
        }
      ],
      "name": "SelfClose",
      "type": "event"
    },
    {
      "anonymous": false,
      "inputs": [
        {
          "indexed": false,
          "internalType": "string",
          "name": "name",
          "type": "string"
        },
        {
          "indexed": false,
          "internalType": "uint256[]",
          "name": "value",
          "type": "uint256[]"
        }
      ],
      "name": "SettingArrayChanged",
      "type": "event"
    },
    {
      "anonymous": false,
      "inputs": [
        {
          "indexed": false,
          "internalType": "string",
          "name": "name",
          "type": "string"
        },
        {
          "indexed": false,
          "internalType": "uint256",
          "name": "value",
          "type": "uint256"
        }
      ],
      "name": "SettingChanged",
      "type": "event"
    },
    {
      "anonymous": false,
      "inputs": [
        {
          "indexed": true,
          "internalType": "address",
          "name": "agentVault",
          "type": "address"
        },
        {
          "indexed": false,
          "internalType": "int256",
          "name": "underlyingBalanceUBA",
          "type": "int256"
        }
      ],
      "name": "UnderlyingBalanceChanged",
      "type": "event"
    },
    {
      "anonymous": false,
      "inputs": [
        {
          "indexed": true,
          "internalType": "address",
          "name": "agentVault",
          "type": "address"
        },
        {
          "indexed": false,
          "internalType": "int256",
          "name": "balance",
          "type": "int256"
        },
        {
          "indexed": false,
          "internalType": "uint256",
          "name": "requiredBalance",
          "type": "uint256"
        }
      ],
      "name": "UnderlyingBalanceTooLow",
      "type": "event"
    },
    {
      "anonymous": false,
      "inputs": [
        {
          "indexed": true,
          "internalType": "address",
          "name": "agentVault",
          "type": "address"
        },
        {
          "indexed": false,
          "internalType": "bytes32",
          "name": "transactionHash",
          "type": "bytes32"
        },
        {
          "indexed": false,
          "internalType": "uint256",
          "name": "depositedUBA",
          "type": "uint256"
        }
      ],
      "name": "UnderlyingBalanceToppedUp",
      "type": "event"
    },
    {
      "anonymous": false,
      "inputs": [
        {
          "indexed": true,
          "internalType": "address",
          "name": "agentVault",
          "type": "address"
        },
        {
          "indexed": false,
          "internalType": "uint64",
          "name": "announcementId",
          "type": "uint64"
        },
        {
          "indexed": false,
          "internalType": "bytes32",
          "name": "paymentReference",
          "type": "bytes32"
        }
      ],
      "name": "UnderlyingWithdrawalAnnounced",
      "type": "event"
    },
    {
      "anonymous": false,
      "inputs": [
        {
          "indexed": true,
          "internalType": "address",
          "name": "agentVault",
          "type": "address"
        },
        {
          "indexed": false,
          "internalType": "uint64",
          "name": "announcementId",
          "type": "uint64"
        }
      ],
      "name": "UnderlyingWithdrawalCancelled",
      "type": "event"
    },
    {
      "anonymous": false,
      "inputs": [
        {
          "indexed": true,
          "internalType": "address",
          "name": "agentVault",
          "type": "address"
        },
        {
          "indexed": false,
          "internalType": "int256",
          "name": "spentUBA",
          "type": "int256"
        },
        {
          "indexed": false,
          "internalType": "bytes32",
          "name": "transactionHash",
          "type": "bytes32"
        },
        {
          "indexed": false,
          "internalType": "uint64",
          "name": "announcementId",
          "type": "uint64"
        }
      ],
      "name": "UnderlyingWithdrawalConfirmed",
      "type": "event"
    },
    {
      "inputs": [
        {
          "components": [
            {
              "internalType": "enum CollateralType.Class",
              "name": "collateralClass",
              "type": "uint8"
            },
            {
              "internalType": "contract IERC20",
              "name": "token",
              "type": "address"
            },
            {
              "internalType": "uint256",
              "name": "decimals",
              "type": "uint256"
            },
            {
              "internalType": "uint256",
              "name": "validUntil",
              "type": "uint256"
            },
            {
              "internalType": "bool",
              "name": "directPricePair",
              "type": "bool"
            },
            {
              "internalType": "string",
              "name": "assetFtsoSymbol",
              "type": "string"
            },
            {
              "internalType": "string",
              "name": "tokenFtsoSymbol",
              "type": "string"
            },
            {
              "internalType": "uint256",
              "name": "minCollateralRatioBIPS",
              "type": "uint256"
            },
            {
              "internalType": "uint256",
              "name": "ccbMinCollateralRatioBIPS",
              "type": "uint256"
            },
            {
              "internalType": "uint256",
              "name": "safetyMinCollateralRatioBIPS",
              "type": "uint256"
            }
          ],
          "internalType": "struct CollateralType.Data",
          "name": "_data",
          "type": "tuple"
        }
      ],
      "name": "addCollateralType",
      "outputs": [],
      "stateMutability": "nonpayable",
      "type": "function"
    },
    {
      "inputs": [
        {
          "internalType": "address",
          "name": "_agentVault",
          "type": "address"
        },
        {
          "internalType": "uint256",
          "name": "_valueNATWei",
          "type": "uint256"
        }
      ],
      "name": "announceAgentPoolTokenRedemption",
      "outputs": [],
      "stateMutability": "nonpayable",
      "type": "function"
    },
    {
      "inputs": [
        {
          "internalType": "address",
          "name": "_agentVault",
          "type": "address"
        },
        {
          "internalType": "string",
          "name": "_name",
          "type": "string"
        },
        {
          "internalType": "uint256",
          "name": "_value",
          "type": "uint256"
        }
      ],
      "name": "announceAgentSettingUpdate",
      "outputs": [],
      "stateMutability": "nonpayable",
      "type": "function"
    },
    {
      "inputs": [
        {
          "internalType": "address",
          "name": "_agentVault",
          "type": "address"
        },
        {
          "internalType": "uint256",
          "name": "_valueNATWei",
          "type": "uint256"
        }
      ],
      "name": "announceClass1CollateralWithdrawal",
      "outputs": [],
      "stateMutability": "nonpayable",
      "type": "function"
    },
    {
      "inputs": [
        {
          "internalType": "address",
          "name": "_agentVault",
          "type": "address"
        }
      ],
      "name": "announceDestroyAgent",
      "outputs": [],
      "stateMutability": "nonpayable",
      "type": "function"
    },
    {
      "inputs": [
        {
          "internalType": "address",
          "name": "_agentVault",
          "type": "address"
        }
      ],
      "name": "announceExitAvailableAgentList",
      "outputs": [],
      "stateMutability": "nonpayable",
      "type": "function"
    },
    {
      "inputs": [
        {
          "internalType": "address",
          "name": "_agentVault",
          "type": "address"
        }
      ],
      "name": "announceUnderlyingWithdrawal",
      "outputs": [],
      "stateMutability": "nonpayable",
      "type": "function"
    },
    {
      "inputs": [],
      "name": "assetManagerController",
      "outputs": [
        {
          "internalType": "address",
          "name": "",
          "type": "address"
        }
      ],
      "stateMutability": "view",
      "type": "function"
    },
    {
      "inputs": [],
      "name": "assetPriceNatWei",
      "outputs": [
        {
          "internalType": "uint256",
          "name": "_multiplier",
          "type": "uint256"
        },
        {
          "internalType": "uint256",
          "name": "_divisor",
          "type": "uint256"
        }
      ],
      "stateMutability": "view",
      "type": "function"
    },
    {
      "inputs": [
        {
          "internalType": "bool",
          "name": "attached",
          "type": "bool"
        }
      ],
      "name": "attachController",
      "outputs": [],
      "stateMutability": "nonpayable",
      "type": "function"
    },
    {
      "inputs": [
        {
          "internalType": "address",
          "name": "_agentVault",
          "type": "address"
        }
      ],
      "name": "buybackAgentCollateral",
      "outputs": [],
      "stateMutability": "payable",
      "type": "function"
    },
    {
      "inputs": [
        {
          "internalType": "address",
          "name": "_agentVault",
          "type": "address"
        }
      ],
      "name": "cancelUnderlyingWithdrawal",
      "outputs": [],
      "stateMutability": "nonpayable",
      "type": "function"
    },
    {
      "inputs": [
        {
          "internalType": "address",
          "name": "_agentVault",
          "type": "address"
        },
        {
          "internalType": "contract IERC20",
          "name": "_token",
          "type": "address"
        }
      ],
      "name": "collateralDeposited",
      "outputs": [],
      "stateMutability": "nonpayable",
      "type": "function"
    },
    {
      "inputs": [
        {
          "internalType": "uint256",
          "name": "_lots",
          "type": "uint256"
        }
      ],
      "name": "collateralReservationFee",
      "outputs": [
        {
          "internalType": "uint256",
          "name": "_reservationFeeNATWei",
          "type": "uint256"
        }
      ],
      "stateMutability": "view",
      "type": "function"
    },
    {
      "inputs": [
        {
          "components": [
            {
              "internalType": "bytes32[]",
              "name": "merkleProof",
              "type": "bytes32[]"
            },
            {
              "internalType": "uint256",
              "name": "stateConnectorRound",
              "type": "uint256"
            },
            {
              "internalType": "uint64",
              "name": "blockNumber",
              "type": "uint64"
            },
            {
              "internalType": "uint64",
              "name": "blockTimestamp",
              "type": "uint64"
            },
            {
              "internalType": "bytes32",
              "name": "transactionHash",
              "type": "bytes32"
            },
            {
              "internalType": "uint8",
              "name": "inUtxo",
              "type": "uint8"
            },
            {
              "internalType": "uint8",
              "name": "utxo",
              "type": "uint8"
            },
            {
              "internalType": "bytes32",
              "name": "sourceAddressHash",
              "type": "bytes32"
            },
            {
              "internalType": "bytes32",
              "name": "intendedSourceAddressHash",
              "type": "bytes32"
            },
            {
              "internalType": "bytes32",
              "name": "receivingAddressHash",
              "type": "bytes32"
            },
            {
              "internalType": "bytes32",
              "name": "intendedReceivingAddressHash",
              "type": "bytes32"
            },
            {
              "internalType": "int256",
              "name": "spentAmount",
              "type": "int256"
            },
            {
              "internalType": "int256",
              "name": "intendedSpentAmount",
              "type": "int256"
            },
            {
              "internalType": "int256",
              "name": "receivedAmount",
              "type": "int256"
            },
            {
              "internalType": "int256",
              "name": "intendedReceivedAmount",
              "type": "int256"
            },
            {
              "internalType": "bytes32",
              "name": "paymentReference",
              "type": "bytes32"
            },
            {
              "internalType": "bool",
              "name": "oneToOne",
              "type": "bool"
            },
            {
              "internalType": "uint8",
              "name": "status",
              "type": "uint8"
            }
          ],
          "internalType": "struct ISCProofVerifier.Payment",
          "name": "_payment",
          "type": "tuple"
        },
        {
          "internalType": "uint256",
          "name": "_redemptionRequestId",
          "type": "uint256"
        }
      ],
      "name": "confirmRedemptionPayment",
      "outputs": [],
      "stateMutability": "nonpayable",
      "type": "function"
    },
    {
      "inputs": [
        {
          "components": [
            {
              "internalType": "bytes32[]",
              "name": "merkleProof",
              "type": "bytes32[]"
            },
            {
              "internalType": "uint256",
              "name": "stateConnectorRound",
              "type": "uint256"
            },
            {
              "internalType": "uint64",
              "name": "blockNumber",
              "type": "uint64"
            },
            {
              "internalType": "uint64",
              "name": "blockTimestamp",
              "type": "uint64"
            },
            {
              "internalType": "bytes32",
              "name": "transactionHash",
              "type": "bytes32"
            },
            {
              "internalType": "uint8",
              "name": "inUtxo",
              "type": "uint8"
            },
            {
              "internalType": "uint8",
              "name": "utxo",
              "type": "uint8"
            },
            {
              "internalType": "bytes32",
              "name": "sourceAddressHash",
              "type": "bytes32"
            },
            {
              "internalType": "bytes32",
              "name": "intendedSourceAddressHash",
              "type": "bytes32"
            },
            {
              "internalType": "bytes32",
              "name": "receivingAddressHash",
              "type": "bytes32"
            },
            {
              "internalType": "bytes32",
              "name": "intendedReceivingAddressHash",
              "type": "bytes32"
            },
            {
              "internalType": "int256",
              "name": "spentAmount",
              "type": "int256"
            },
            {
              "internalType": "int256",
              "name": "intendedSpentAmount",
              "type": "int256"
            },
            {
              "internalType": "int256",
              "name": "receivedAmount",
              "type": "int256"
            },
            {
              "internalType": "int256",
              "name": "intendedReceivedAmount",
              "type": "int256"
            },
            {
              "internalType": "bytes32",
              "name": "paymentReference",
              "type": "bytes32"
            },
            {
              "internalType": "bool",
              "name": "oneToOne",
              "type": "bool"
            },
            {
              "internalType": "uint8",
              "name": "status",
              "type": "uint8"
            }
          ],
          "internalType": "struct ISCProofVerifier.Payment",
          "name": "_payment",
          "type": "tuple"
        },
        {
          "internalType": "address",
          "name": "_agentVault",
          "type": "address"
        }
      ],
      "name": "confirmTopupPayment",
      "outputs": [],
      "stateMutability": "nonpayable",
      "type": "function"
    },
    {
      "inputs": [
        {
          "components": [
            {
              "internalType": "bytes32[]",
              "name": "merkleProof",
              "type": "bytes32[]"
            },
            {
              "internalType": "uint256",
              "name": "stateConnectorRound",
              "type": "uint256"
            },
            {
              "internalType": "uint64",
              "name": "blockNumber",
              "type": "uint64"
            },
            {
              "internalType": "uint64",
              "name": "blockTimestamp",
              "type": "uint64"
            },
            {
              "internalType": "bytes32",
              "name": "transactionHash",
              "type": "bytes32"
            },
            {
              "internalType": "uint8",
              "name": "inUtxo",
              "type": "uint8"
            },
            {
              "internalType": "uint8",
              "name": "utxo",
              "type": "uint8"
            },
            {
              "internalType": "bytes32",
              "name": "sourceAddressHash",
              "type": "bytes32"
            },
            {
              "internalType": "bytes32",
              "name": "intendedSourceAddressHash",
              "type": "bytes32"
            },
            {
              "internalType": "bytes32",
              "name": "receivingAddressHash",
              "type": "bytes32"
            },
            {
              "internalType": "bytes32",
              "name": "intendedReceivingAddressHash",
              "type": "bytes32"
            },
            {
              "internalType": "int256",
              "name": "spentAmount",
              "type": "int256"
            },
            {
              "internalType": "int256",
              "name": "intendedSpentAmount",
              "type": "int256"
            },
            {
              "internalType": "int256",
              "name": "receivedAmount",
              "type": "int256"
            },
            {
              "internalType": "int256",
              "name": "intendedReceivedAmount",
              "type": "int256"
            },
            {
              "internalType": "bytes32",
              "name": "paymentReference",
              "type": "bytes32"
            },
            {
              "internalType": "bool",
              "name": "oneToOne",
              "type": "bool"
            },
            {
              "internalType": "uint8",
              "name": "status",
              "type": "uint8"
            }
          ],
          "internalType": "struct ISCProofVerifier.Payment",
          "name": "_payment",
          "type": "tuple"
        },
        {
          "internalType": "address",
          "name": "_agentVault",
          "type": "address"
        }
      ],
      "name": "confirmUnderlyingWithdrawal",
      "outputs": [],
      "stateMutability": "nonpayable",
      "type": "function"
    },
    {
      "inputs": [],
      "name": "controllerAttached",
      "outputs": [
        {
          "internalType": "bool",
          "name": "",
          "type": "bool"
        }
      ],
      "stateMutability": "view",
      "type": "function"
    },
    {
      "inputs": [
        {
          "internalType": "address",
          "name": "_agentVault",
          "type": "address"
        }
      ],
      "name": "convertDustToTicket",
      "outputs": [],
      "stateMutability": "nonpayable",
      "type": "function"
    },
    {
      "inputs": [
        {
          "components": [
            {
              "internalType": "string",
              "name": "underlyingAddressString",
              "type": "string"
            },
            {
              "internalType": "contract IERC20",
              "name": "class1CollateralToken",
              "type": "address"
            },
            {
              "internalType": "uint256",
              "name": "feeBIPS",
              "type": "uint256"
            },
            {
              "internalType": "uint256",
              "name": "poolFeeShareBIPS",
              "type": "uint256"
            },
            {
              "internalType": "uint256",
              "name": "mintingClass1CollateralRatioBIPS",
              "type": "uint256"
            },
            {
              "internalType": "uint256",
              "name": "mintingPoolCollateralRatioBIPS",
              "type": "uint256"
            },
            {
              "internalType": "uint256",
              "name": "buyFAssetByAgentFactorBIPS",
              "type": "uint256"
            },
            {
              "internalType": "uint256",
              "name": "poolExitCollateralRatioBIPS",
              "type": "uint256"
            },
            {
              "internalType": "uint256",
              "name": "poolTopupCollateralRatioBIPS",
              "type": "uint256"
            },
            {
              "internalType": "uint256",
              "name": "poolTopupTokenPriceFactorBIPS",
              "type": "uint256"
            }
          ],
          "internalType": "struct AgentSettings.Data",
          "name": "_settings",
          "type": "tuple"
        }
      ],
      "name": "createAgent",
      "outputs": [],
      "stateMutability": "nonpayable",
      "type": "function"
    },
    {
      "inputs": [],
      "name": "currentUnderlyingBlock",
      "outputs": [
        {
          "internalType": "uint256",
          "name": "_blockNumber",
          "type": "uint256"
        },
        {
          "internalType": "uint256",
          "name": "_blockTimestamp",
          "type": "uint256"
        }
      ],
      "stateMutability": "view",
      "type": "function"
    },
    {
      "inputs": [
        {
          "internalType": "enum CollateralType.Class",
          "name": "_collateralClass",
          "type": "uint8"
        },
        {
          "internalType": "contract IERC20",
          "name": "_token",
          "type": "address"
        },
        {
          "internalType": "uint256",
          "name": "_invalidationTimeSec",
          "type": "uint256"
        }
      ],
      "name": "deprecateCollateralType",
      "outputs": [],
      "stateMutability": "nonpayable",
      "type": "function"
    },
    {
      "inputs": [
        {
          "internalType": "address",
          "name": "_agentVault",
          "type": "address"
        },
        {
          "internalType": "address payable",
          "name": "_recipient",
          "type": "address"
        }
      ],
      "name": "destroyAgent",
      "outputs": [],
      "stateMutability": "nonpayable",
      "type": "function"
    },
    {
      "inputs": [
        {
          "components": [
            {
              "internalType": "bytes32[]",
              "name": "merkleProof",
              "type": "bytes32[]"
            },
            {
              "internalType": "uint256",
              "name": "stateConnectorRound",
              "type": "uint256"
            },
            {
              "internalType": "uint64",
              "name": "blockNumber",
              "type": "uint64"
            },
            {
              "internalType": "uint64",
              "name": "blockTimestamp",
              "type": "uint64"
            },
            {
              "internalType": "bytes32",
              "name": "transactionHash",
              "type": "bytes32"
            },
            {
              "internalType": "bytes32",
              "name": "sourceAddressIndicator",
              "type": "bytes32"
            },
            {
              "internalType": "bytes32",
              "name": "sourceAddressHash",
              "type": "bytes32"
            },
            {
              "internalType": "int256",
              "name": "spentAmount",
              "type": "int256"
            },
            {
              "internalType": "bytes32",
              "name": "paymentReference",
              "type": "bytes32"
            }
          ],
          "internalType": "struct ISCProofVerifier.BalanceDecreasingTransaction",
          "name": "_payment1",
          "type": "tuple"
        },
        {
          "components": [
            {
              "internalType": "bytes32[]",
              "name": "merkleProof",
              "type": "bytes32[]"
            },
            {
              "internalType": "uint256",
              "name": "stateConnectorRound",
              "type": "uint256"
            },
            {
              "internalType": "uint64",
              "name": "blockNumber",
              "type": "uint64"
            },
            {
              "internalType": "uint64",
              "name": "blockTimestamp",
              "type": "uint64"
            },
            {
              "internalType": "bytes32",
              "name": "transactionHash",
              "type": "bytes32"
            },
            {
              "internalType": "bytes32",
              "name": "sourceAddressIndicator",
              "type": "bytes32"
            },
            {
              "internalType": "bytes32",
              "name": "sourceAddressHash",
              "type": "bytes32"
            },
            {
              "internalType": "int256",
              "name": "spentAmount",
              "type": "int256"
            },
            {
              "internalType": "bytes32",
              "name": "paymentReference",
              "type": "bytes32"
            }
          ],
          "internalType": "struct ISCProofVerifier.BalanceDecreasingTransaction",
          "name": "_payment2",
          "type": "tuple"
        },
        {
          "internalType": "address",
          "name": "_agentVault",
          "type": "address"
        }
      ],
      "name": "doublePaymentChallenge",
      "outputs": [],
      "stateMutability": "nonpayable",
      "type": "function"
    },
    {
      "inputs": [
        {
          "internalType": "address",
          "name": "_agentVault",
          "type": "address"
        }
      ],
      "name": "endLiquidation",
      "outputs": [],
      "stateMutability": "nonpayable",
      "type": "function"
    },
    {
      "inputs": [
        {
          "internalType": "address",
          "name": "_agentVault",
          "type": "address"
        },
        {
          "internalType": "string",
          "name": "_name",
          "type": "string"
        }
      ],
      "name": "executeAgentSettingUpdate",
      "outputs": [],
      "stateMutability": "nonpayable",
      "type": "function"
    },
    {
      "inputs": [
        {
          "components": [
            {
              "internalType": "bytes32[]",
              "name": "merkleProof",
              "type": "bytes32[]"
            },
            {
              "internalType": "uint256",
              "name": "stateConnectorRound",
              "type": "uint256"
            },
            {
              "internalType": "uint64",
              "name": "blockNumber",
              "type": "uint64"
            },
            {
              "internalType": "uint64",
              "name": "blockTimestamp",
              "type": "uint64"
            },
            {
              "internalType": "bytes32",
              "name": "transactionHash",
              "type": "bytes32"
            },
            {
              "internalType": "uint8",
              "name": "inUtxo",
              "type": "uint8"
            },
            {
              "internalType": "uint8",
              "name": "utxo",
              "type": "uint8"
            },
            {
              "internalType": "bytes32",
              "name": "sourceAddressHash",
              "type": "bytes32"
            },
            {
              "internalType": "bytes32",
              "name": "intendedSourceAddressHash",
              "type": "bytes32"
            },
            {
              "internalType": "bytes32",
              "name": "receivingAddressHash",
              "type": "bytes32"
            },
            {
              "internalType": "bytes32",
              "name": "intendedReceivingAddressHash",
              "type": "bytes32"
            },
            {
              "internalType": "int256",
              "name": "spentAmount",
              "type": "int256"
            },
            {
              "internalType": "int256",
              "name": "intendedSpentAmount",
              "type": "int256"
            },
            {
              "internalType": "int256",
              "name": "receivedAmount",
              "type": "int256"
            },
            {
              "internalType": "int256",
              "name": "intendedReceivedAmount",
              "type": "int256"
            },
            {
              "internalType": "bytes32",
              "name": "paymentReference",
              "type": "bytes32"
            },
            {
              "internalType": "bool",
              "name": "oneToOne",
              "type": "bool"
            },
            {
              "internalType": "uint8",
              "name": "status",
              "type": "uint8"
            }
          ],
          "internalType": "struct ISCProofVerifier.Payment",
          "name": "_payment",
          "type": "tuple"
        },
        {
          "internalType": "uint256",
          "name": "_collateralReservationId",
          "type": "uint256"
        }
      ],
      "name": "executeMinting",
      "outputs": [],
      "stateMutability": "nonpayable",
      "type": "function"
    },
    {
      "inputs": [
        {
          "internalType": "address",
          "name": "_agentVault",
          "type": "address"
        }
      ],
      "name": "exitAvailableAgentList",
      "outputs": [],
      "stateMutability": "nonpayable",
      "type": "function"
    },
    {
      "inputs": [],
      "name": "fAsset",
      "outputs": [
        {
          "internalType": "contract IERC20",
          "name": "",
          "type": "address"
        }
      ],
      "stateMutability": "view",
      "type": "function"
    },
    {
      "inputs": [
        {
          "components": [
            {
              "internalType": "bytes32[]",
              "name": "merkleProof",
              "type": "bytes32[]"
            },
            {
              "internalType": "uint256",
              "name": "stateConnectorRound",
              "type": "uint256"
            },
            {
              "internalType": "uint64",
              "name": "blockNumber",
              "type": "uint64"
            },
            {
              "internalType": "uint64",
              "name": "blockTimestamp",
              "type": "uint64"
            },
            {
              "internalType": "uint8",
              "name": "numberOfConfirmations",
              "type": "uint8"
            },
            {
              "internalType": "uint64",
              "name": "lowestQueryWindowBlockNumber",
              "type": "uint64"
            },
            {
              "internalType": "uint64",
              "name": "lowestQueryWindowBlockTimestamp",
              "type": "uint64"
            }
          ],
          "internalType": "struct ISCProofVerifier.ConfirmedBlockHeightExists",
          "name": "_proof",
          "type": "tuple"
        },
        {
          "internalType": "uint256",
          "name": "_redemptionRequestId",
          "type": "uint256"
        }
      ],
      "name": "finishRedemptionWithoutPayment",
      "outputs": [],
      "stateMutability": "nonpayable",
      "type": "function"
    },
    {
      "inputs": [
        {
          "components": [
            {
              "internalType": "bytes32[]",
              "name": "merkleProof",
              "type": "bytes32[]"
            },
            {
              "internalType": "uint256",
              "name": "stateConnectorRound",
              "type": "uint256"
            },
            {
              "internalType": "uint64",
              "name": "blockNumber",
              "type": "uint64"
            },
            {
              "internalType": "uint64",
              "name": "blockTimestamp",
              "type": "uint64"
            },
            {
              "internalType": "bytes32",
              "name": "transactionHash",
              "type": "bytes32"
            },
            {
              "internalType": "bytes32",
              "name": "sourceAddressIndicator",
              "type": "bytes32"
            },
            {
              "internalType": "bytes32",
              "name": "sourceAddressHash",
              "type": "bytes32"
            },
            {
              "internalType": "int256",
              "name": "spentAmount",
              "type": "int256"
            },
            {
              "internalType": "bytes32",
              "name": "paymentReference",
              "type": "bytes32"
            }
          ],
          "internalType": "struct ISCProofVerifier.BalanceDecreasingTransaction[]",
          "name": "_payments",
          "type": "tuple[]"
        },
        {
          "internalType": "address",
          "name": "_agentVault",
          "type": "address"
        }
      ],
      "name": "freeBalanceNegativeChallenge",
      "outputs": [],
      "stateMutability": "nonpayable",
      "type": "function"
    },
    {
      "inputs": [
        {
          "internalType": "address",
          "name": "_agentVault",
          "type": "address"
        }
      ],
      "name": "getAgentInfo",
      "outputs": [
        {
          "components": [
            {
              "internalType": "enum AgentInfo.Status",
              "name": "status",
              "type": "uint8"
            },
            {
              "internalType": "address",
              "name": "ownerColdWalletAddress",
              "type": "address"
            },
            {
              "internalType": "address",
              "name": "ownerHotWalletAddress",
              "type": "address"
            },
            {
              "internalType": "address",
              "name": "collateralPool",
              "type": "address"
            },
            {
              "internalType": "string",
              "name": "underlyingAddressString",
              "type": "string"
            },
            {
              "internalType": "bool",
              "name": "publiclyAvailable",
              "type": "bool"
            },
            {
              "internalType": "uint256",
              "name": "feeBIPS",
              "type": "uint256"
            },
            {
              "internalType": "uint256",
              "name": "poolFeeShareBIPS",
              "type": "uint256"
            },
            {
              "internalType": "contract IERC20",
              "name": "class1CollateralToken",
              "type": "address"
            },
            {
              "internalType": "uint256",
              "name": "mintingClass1CollateralRatioBIPS",
              "type": "uint256"
            },
            {
              "internalType": "uint256",
              "name": "mintingPoolCollateralRatioBIPS",
              "type": "uint256"
            },
            {
              "internalType": "uint256",
              "name": "freeCollateralLots",
              "type": "uint256"
            },
            {
              "internalType": "uint256",
              "name": "totalClass1CollateralWei",
              "type": "uint256"
            },
            {
              "internalType": "uint256",
              "name": "freeClass1CollateralWei",
              "type": "uint256"
            },
            {
              "internalType": "uint256",
              "name": "class1CollateralRatioBIPS",
              "type": "uint256"
            },
            {
              "internalType": "uint256",
              "name": "totalPoolCollateralNATWei",
              "type": "uint256"
            },
            {
              "internalType": "uint256",
              "name": "freePoolCollateralNATWei",
              "type": "uint256"
            },
            {
              "internalType": "uint256",
              "name": "poolCollateralRatioBIPS",
              "type": "uint256"
            },
            {
              "internalType": "uint256",
              "name": "totalAgentPoolTokensWei",
              "type": "uint256"
            },
            {
              "internalType": "uint256",
              "name": "announcedClass1WithdrawalWei",
              "type": "uint256"
            },
            {
              "internalType": "uint256",
              "name": "announcedPoolTokensWithdrawalWei",
              "type": "uint256"
            },
            {
              "internalType": "uint256",
              "name": "freeAgentPoolTokensWei",
              "type": "uint256"
            },
            {
              "internalType": "uint256",
              "name": "mintedUBA",
              "type": "uint256"
            },
            {
              "internalType": "uint256",
              "name": "reservedUBA",
              "type": "uint256"
            },
            {
              "internalType": "uint256",
              "name": "redeemingUBA",
              "type": "uint256"
            },
            {
              "internalType": "uint256",
              "name": "poolRedeemingUBA",
              "type": "uint256"
            },
            {
              "internalType": "uint256",
              "name": "dustUBA",
              "type": "uint256"
            },
            {
              "internalType": "uint256",
              "name": "ccbStartTimestamp",
              "type": "uint256"
            },
            {
              "internalType": "uint256",
              "name": "liquidationStartTimestamp",
              "type": "uint256"
            },
            {
              "internalType": "int256",
              "name": "underlyingBalanceUBA",
              "type": "int256"
            },
            {
              "internalType": "uint256",
              "name": "requiredUnderlyingBalanceUBA",
              "type": "uint256"
            },
            {
              "internalType": "int256",
              "name": "freeUnderlyingBalanceUBA",
              "type": "int256"
            },
            {
              "internalType": "uint256",
              "name": "announcedUnderlyingWithdrawalId",
              "type": "uint256"
            },
            {
              "internalType": "uint256",
              "name": "buyFAssetByAgentFactorBIPS",
              "type": "uint256"
            },
            {
              "internalType": "uint256",
              "name": "poolExitCollateralRatioBIPS",
              "type": "uint256"
            },
            {
              "internalType": "uint256",
              "name": "poolTopupCollateralRatioBIPS",
              "type": "uint256"
            },
            {
              "internalType": "uint256",
              "name": "poolTopupTokenPriceFactorBIPS",
              "type": "uint256"
            }
          ],
          "internalType": "struct AgentInfo.Info",
          "name": "",
          "type": "tuple"
        }
      ],
      "stateMutability": "view",
      "type": "function"
    },
    {
      "inputs": [
        {
          "internalType": "address",
          "name": "_agentVault",
          "type": "address"
        }
      ],
      "name": "getAgentVaultOwner",
      "outputs": [
        {
          "internalType": "address",
          "name": "_ownerColdAddress",
          "type": "address"
        },
        {
          "internalType": "address",
          "name": "_ownerHotAddress",
          "type": "address"
        }
      ],
      "stateMutability": "view",
      "type": "function"
    },
    {
      "inputs": [
        {
          "internalType": "uint256",
          "name": "_start",
          "type": "uint256"
        },
        {
          "internalType": "uint256",
          "name": "_end",
          "type": "uint256"
        }
      ],
      "name": "getAllAgents",
      "outputs": [
        {
          "internalType": "address[]",
          "name": "_agents",
          "type": "address[]"
        },
        {
          "internalType": "uint256",
          "name": "_totalLength",
          "type": "uint256"
        }
      ],
      "stateMutability": "view",
      "type": "function"
    },
    {
      "inputs": [
        {
          "internalType": "uint256",
          "name": "_start",
          "type": "uint256"
        },
        {
          "internalType": "uint256",
          "name": "_end",
          "type": "uint256"
        }
      ],
      "name": "getAvailableAgentsDetailedList",
      "outputs": [
        {
          "components": [
            {
              "internalType": "address",
              "name": "agentVault",
              "type": "address"
            },
            {
              "internalType": "uint256",
              "name": "feeBIPS",
              "type": "uint256"
            },
            {
              "internalType": "uint256",
              "name": "mintingClass1CollateralRatioBIPS",
              "type": "uint256"
            },
            {
              "internalType": "uint256",
              "name": "mintingPoolCollateralRatioBIPS",
              "type": "uint256"
            },
            {
              "internalType": "uint256",
              "name": "freeCollateralLots",
              "type": "uint256"
            }
          ],
          "internalType": "struct AvailableAgentInfo.Data[]",
          "name": "_agents",
          "type": "tuple[]"
        },
        {
          "internalType": "uint256",
          "name": "_totalLength",
          "type": "uint256"
        }
      ],
      "stateMutability": "view",
      "type": "function"
    },
    {
      "inputs": [
        {
          "internalType": "uint256",
          "name": "_start",
          "type": "uint256"
        },
        {
          "internalType": "uint256",
          "name": "_end",
          "type": "uint256"
        }
      ],
      "name": "getAvailableAgentsList",
      "outputs": [
        {
          "internalType": "address[]",
          "name": "_agents",
          "type": "address[]"
        },
        {
          "internalType": "uint256",
          "name": "_totalLength",
          "type": "uint256"
        }
      ],
      "stateMutability": "view",
      "type": "function"
    },
    {
      "inputs": [
        {
          "internalType": "address",
          "name": "_agentVault",
          "type": "address"
        }
      ],
      "name": "getCollateralPool",
      "outputs": [
        {
          "internalType": "address",
          "name": "",
          "type": "address"
        }
      ],
      "stateMutability": "view",
      "type": "function"
    },
    {
      "inputs": [
        {
          "internalType": "enum CollateralType.Class",
          "name": "_collateralClass",
          "type": "uint8"
        },
        {
          "internalType": "contract IERC20",
          "name": "_token",
          "type": "address"
        }
      ],
      "name": "getCollateralType",
      "outputs": [
        {
          "components": [
            {
              "internalType": "enum CollateralType.Class",
              "name": "collateralClass",
              "type": "uint8"
            },
            {
              "internalType": "contract IERC20",
              "name": "token",
              "type": "address"
            },
            {
              "internalType": "uint256",
              "name": "decimals",
              "type": "uint256"
            },
            {
              "internalType": "uint256",
              "name": "validUntil",
              "type": "uint256"
            },
            {
              "internalType": "bool",
              "name": "directPricePair",
              "type": "bool"
            },
            {
              "internalType": "string",
              "name": "assetFtsoSymbol",
              "type": "string"
            },
            {
              "internalType": "string",
              "name": "tokenFtsoSymbol",
              "type": "string"
            },
            {
              "internalType": "uint256",
              "name": "minCollateralRatioBIPS",
              "type": "uint256"
            },
            {
              "internalType": "uint256",
              "name": "ccbMinCollateralRatioBIPS",
              "type": "uint256"
            },
            {
              "internalType": "uint256",
              "name": "safetyMinCollateralRatioBIPS",
              "type": "uint256"
            }
          ],
          "internalType": "struct CollateralType.Data",
          "name": "",
          "type": "tuple"
        }
      ],
      "stateMutability": "view",
      "type": "function"
    },
    {
      "inputs": [],
      "name": "getCollateralTypes",
      "outputs": [
        {
          "components": [
            {
              "internalType": "enum CollateralType.Class",
              "name": "collateralClass",
              "type": "uint8"
            },
            {
              "internalType": "contract IERC20",
              "name": "token",
              "type": "address"
            },
            {
              "internalType": "uint256",
              "name": "decimals",
              "type": "uint256"
            },
            {
              "internalType": "uint256",
              "name": "validUntil",
              "type": "uint256"
            },
            {
              "internalType": "bool",
              "name": "directPricePair",
              "type": "bool"
            },
            {
              "internalType": "string",
              "name": "assetFtsoSymbol",
              "type": "string"
            },
            {
              "internalType": "string",
              "name": "tokenFtsoSymbol",
              "type": "string"
            },
            {
              "internalType": "uint256",
              "name": "minCollateralRatioBIPS",
              "type": "uint256"
            },
            {
              "internalType": "uint256",
              "name": "ccbMinCollateralRatioBIPS",
              "type": "uint256"
            },
            {
              "internalType": "uint256",
              "name": "safetyMinCollateralRatioBIPS",
              "type": "uint256"
            }
          ],
          "internalType": "struct CollateralType.Data[]",
          "name": "",
          "type": "tuple[]"
        }
      ],
      "stateMutability": "view",
      "type": "function"
    },
    {
      "inputs": [
        {
          "internalType": "address",
          "name": "_agentVault",
          "type": "address"
        }
      ],
      "name": "getFAssetsBackedByPool",
      "outputs": [
        {
          "internalType": "uint256",
          "name": "",
          "type": "uint256"
        }
      ],
      "stateMutability": "view",
      "type": "function"
    },
    {
      "inputs": [],
      "name": "getLiquidationSettings",
      "outputs": [
        {
          "internalType": "bytes",
          "name": "",
          "type": "bytes"
        }
      ],
      "stateMutability": "view",
      "type": "function"
    },
    {
      "inputs": [],
      "name": "getSettings",
      "outputs": [
        {
          "components": [
            {
              "internalType": "address",
              "name": "assetManagerController",
              "type": "address"
            },
            {
              "internalType": "address",
              "name": "fAsset",
              "type": "address"
            },
            {
              "internalType": "address",
              "name": "agentVaultFactory",
              "type": "address"
            },
            {
              "internalType": "address",
              "name": "collateralPoolFactory",
              "type": "address"
            },
            {
              "internalType": "address",
              "name": "whitelist",
              "type": "address"
            },
            {
              "internalType": "address",
              "name": "agentWhitelist",
              "type": "address"
            },
            {
              "internalType": "address",
              "name": "attestationClient",
              "type": "address"
            },
            {
              "internalType": "address",
              "name": "underlyingAddressValidator",
              "type": "address"
            },
            {
              "internalType": "address",
              "name": "liquidationStrategy",
              "type": "address"
            },
            {
              "internalType": "address payable",
              "name": "burnAddress",
              "type": "address"
            },
            {
              "internalType": "address",
              "name": "ftsoRegistry",
              "type": "address"
            },
            {
              "internalType": "uint8",
              "name": "assetDecimals",
              "type": "uint8"
            },
            {
              "internalType": "uint8",
              "name": "assetMintingDecimals",
              "type": "uint8"
            },
            {
              "internalType": "uint32",
              "name": "chainId",
              "type": "uint32"
            },
            {
              "internalType": "uint32",
              "name": "averageBlockTimeMS",
              "type": "uint32"
            },
            {
              "internalType": "uint32",
              "name": "mintingPoolHoldingsRequiredBIPS",
              "type": "uint32"
            },
            {
              "internalType": "uint16",
              "name": "collateralReservationFeeBIPS",
              "type": "uint16"
            },
            {
              "internalType": "uint64",
              "name": "assetUnitUBA",
              "type": "uint64"
            },
            {
              "internalType": "uint64",
              "name": "assetMintingGranularityUBA",
              "type": "uint64"
            },
            {
              "internalType": "uint64",
              "name": "lotSizeAMG",
              "type": "uint64"
            },
            {
              "internalType": "uint16",
              "name": "minUnderlyingBackingBIPS",
              "type": "uint16"
            },
            {
              "internalType": "bool",
              "name": "requireEOAAddressProof",
              "type": "bool"
            },
            {
              "internalType": "uint64",
              "name": "mintingCapAMG",
              "type": "uint64"
            },
            {
              "internalType": "uint64",
              "name": "underlyingBlocksForPayment",
              "type": "uint64"
            },
            {
              "internalType": "uint64",
              "name": "underlyingSecondsForPayment",
              "type": "uint64"
            },
            {
              "internalType": "uint16",
              "name": "redemptionFeeBIPS",
              "type": "uint16"
            },
            {
              "internalType": "uint32",
              "name": "redemptionDefaultFactorAgentC1BIPS",
              "type": "uint32"
            },
            {
              "internalType": "uint32",
              "name": "redemptionDefaultFactorPoolBIPS",
              "type": "uint32"
            },
            {
              "internalType": "uint64",
              "name": "confirmationByOthersAfterSeconds",
              "type": "uint64"
            },
            {
              "internalType": "uint128",
              "name": "confirmationByOthersRewardUSD5",
              "type": "uint128"
            },
            {
              "internalType": "uint16",
              "name": "maxRedeemedTickets",
              "type": "uint16"
            },
            {
              "internalType": "uint16",
              "name": "paymentChallengeRewardBIPS",
              "type": "uint16"
            },
            {
              "internalType": "uint128",
              "name": "paymentChallengeRewardUSD5",
              "type": "uint128"
            },
            {
              "internalType": "uint64",
              "name": "withdrawalWaitMinSeconds",
              "type": "uint64"
            },
            {
              "internalType": "uint64",
              "name": "maxTrustedPriceAgeSeconds",
              "type": "uint64"
            },
            {
              "internalType": "uint64",
              "name": "ccbTimeSeconds",
              "type": "uint64"
            },
            {
              "internalType": "uint64",
              "name": "attestationWindowSeconds",
              "type": "uint64"
            },
            {
              "internalType": "uint64",
              "name": "minUpdateRepeatTimeSeconds",
              "type": "uint64"
            },
            {
              "internalType": "uint64",
              "name": "buybackCollateralFactorBIPS",
              "type": "uint64"
            },
            {
              "internalType": "uint64",
              "name": "announcedUnderlyingConfirmationMinSeconds",
              "type": "uint64"
            },
            {
              "internalType": "uint64",
              "name": "tokenInvalidationTimeMinSeconds",
              "type": "uint64"
            },
            {
              "internalType": "uint32",
              "name": "class1BuyForFlareFactorBIPS",
              "type": "uint32"
            },
            {
              "internalType": "uint64",
              "name": "agentExitAvailableTimelockSeconds",
              "type": "uint64"
            },
            {
              "internalType": "uint64",
              "name": "agentFeeChangeTimelockSeconds",
              "type": "uint64"
            },
            {
              "internalType": "uint64",
              "name": "agentCollateralRatioChangeTimelockSeconds",
              "type": "uint64"
            }
          ],
          "internalType": "struct AssetManagerSettings.Data",
          "name": "",
          "type": "tuple"
        }
      ],
      "stateMutability": "view",
      "type": "function"
    },
    {
      "inputs": [],
      "name": "getWNat",
      "outputs": [
        {
          "internalType": "contract IWNat",
          "name": "",
          "type": "address"
        }
      ],
      "stateMutability": "view",
      "type": "function"
    },
    {
      "inputs": [
        {
          "components": [
            {
              "internalType": "bytes32[]",
              "name": "merkleProof",
              "type": "bytes32[]"
            },
            {
              "internalType": "uint256",
              "name": "stateConnectorRound",
              "type": "uint256"
            },
            {
              "internalType": "uint64",
              "name": "blockNumber",
              "type": "uint64"
            },
            {
              "internalType": "uint64",
              "name": "blockTimestamp",
              "type": "uint64"
            },
            {
              "internalType": "bytes32",
              "name": "transactionHash",
              "type": "bytes32"
            },
            {
              "internalType": "bytes32",
              "name": "sourceAddressIndicator",
              "type": "bytes32"
            },
            {
              "internalType": "bytes32",
              "name": "sourceAddressHash",
              "type": "bytes32"
            },
            {
              "internalType": "int256",
              "name": "spentAmount",
              "type": "int256"
            },
            {
              "internalType": "bytes32",
              "name": "paymentReference",
              "type": "bytes32"
            }
          ],
          "internalType": "struct ISCProofVerifier.BalanceDecreasingTransaction",
          "name": "_transaction",
          "type": "tuple"
        },
        {
          "internalType": "address",
          "name": "_agentVault",
          "type": "address"
        }
      ],
      "name": "illegalPaymentChallenge",
      "outputs": [],
      "stateMutability": "nonpayable",
      "type": "function"
    },
    {
      "inputs": [
        {
          "internalType": "address",
          "name": "_agentVault",
          "type": "address"
        },
        {
          "internalType": "address",
          "name": "_address",
          "type": "address"
        }
      ],
      "name": "isAgentVaultOwner",
      "outputs": [
        {
          "internalType": "bool",
          "name": "",
          "type": "bool"
        }
      ],
      "stateMutability": "view",
      "type": "function"
    },
    {
      "inputs": [
        {
          "internalType": "address",
          "name": "_agentVault",
          "type": "address"
        },
        {
          "internalType": "contract IERC20",
          "name": "_token",
          "type": "address"
        }
      ],
      "name": "isLockedVaultToken",
      "outputs": [
        {
          "internalType": "bool",
          "name": "",
          "type": "bool"
        }
      ],
      "stateMutability": "view",
      "type": "function"
    },
    {
      "inputs": [
        {
          "internalType": "address",
          "name": "_agentVault",
          "type": "address"
        },
        {
          "internalType": "uint256",
          "name": "_amountUBA",
          "type": "uint256"
        }
      ],
      "name": "liquidate",
      "outputs": [
        {
          "internalType": "uint256",
          "name": "_liquidatedAmountUBA",
          "type": "uint256"
        },
        {
          "internalType": "uint256",
          "name": "_amountPaidClass1",
          "type": "uint256"
        },
        {
          "internalType": "uint256",
          "name": "_amountPaidPool",
          "type": "uint256"
        }
      ],
      "stateMutability": "nonpayable",
      "type": "function"
    },
    {
      "inputs": [],
      "name": "lotSize",
      "outputs": [
        {
          "internalType": "uint256",
          "name": "_lotSizeUBA",
          "type": "uint256"
        }
      ],
      "stateMutability": "view",
      "type": "function"
    },
    {
      "inputs": [
        {
          "internalType": "address",
          "name": "_agentVault",
          "type": "address"
        }
      ],
      "name": "makeAgentAvailable",
      "outputs": [],
      "stateMutability": "nonpayable",
      "type": "function"
    },
    {
      "inputs": [
        {
          "internalType": "address",
          "name": "_agentVault",
          "type": "address"
        }
      ],
      "name": "maxRedemptionFromAgent",
      "outputs": [
        {
          "internalType": "uint256",
          "name": "",
          "type": "uint256"
        }
      ],
      "stateMutability": "view",
      "type": "function"
    },
    {
      "inputs": [
        {
          "components": [
            {
              "internalType": "bytes32[]",
              "name": "merkleProof",
              "type": "bytes32[]"
            },
            {
              "internalType": "uint256",
              "name": "stateConnectorRound",
              "type": "uint256"
            },
            {
              "internalType": "uint64",
              "name": "deadlineBlockNumber",
              "type": "uint64"
            },
            {
              "internalType": "uint64",
              "name": "deadlineTimestamp",
              "type": "uint64"
            },
            {
              "internalType": "bytes32",
              "name": "destinationAddressHash",
              "type": "bytes32"
            },
            {
              "internalType": "bytes32",
              "name": "paymentReference",
              "type": "bytes32"
            },
            {
              "internalType": "uint128",
              "name": "amount",
              "type": "uint128"
            },
            {
              "internalType": "uint64",
              "name": "lowerBoundaryBlockNumber",
              "type": "uint64"
            },
            {
              "internalType": "uint64",
              "name": "lowerBoundaryBlockTimestamp",
              "type": "uint64"
            },
            {
              "internalType": "uint64",
              "name": "firstOverflowBlockNumber",
              "type": "uint64"
            },
            {
              "internalType": "uint64",
              "name": "firstOverflowBlockTimestamp",
              "type": "uint64"
            }
          ],
          "internalType": "struct ISCProofVerifier.ReferencedPaymentNonexistence",
          "name": "_proof",
          "type": "tuple"
        },
        {
          "internalType": "uint256",
          "name": "_collateralReservationId",
          "type": "uint256"
        }
      ],
      "name": "mintingPaymentDefault",
      "outputs": [],
      "stateMutability": "nonpayable",
      "type": "function"
    },
    {
      "inputs": [],
      "name": "pause",
      "outputs": [],
      "stateMutability": "nonpayable",
      "type": "function"
    },
    {
      "inputs": [],
      "name": "paused",
      "outputs": [
        {
          "internalType": "bool",
          "name": "",
          "type": "bool"
        }
      ],
      "stateMutability": "view",
      "type": "function"
    },
    {
      "inputs": [
        {
          "components": [
            {
              "internalType": "bytes32[]",
              "name": "merkleProof",
              "type": "bytes32[]"
            },
            {
              "internalType": "uint256",
              "name": "stateConnectorRound",
              "type": "uint256"
            },
            {
              "internalType": "uint64",
              "name": "blockNumber",
              "type": "uint64"
            },
            {
              "internalType": "uint64",
              "name": "blockTimestamp",
              "type": "uint64"
            },
            {
              "internalType": "bytes32",
              "name": "transactionHash",
              "type": "bytes32"
            },
            {
              "internalType": "uint8",
              "name": "inUtxo",
              "type": "uint8"
            },
            {
              "internalType": "uint8",
              "name": "utxo",
              "type": "uint8"
            },
            {
              "internalType": "bytes32",
              "name": "sourceAddressHash",
              "type": "bytes32"
            },
            {
              "internalType": "bytes32",
              "name": "intendedSourceAddressHash",
              "type": "bytes32"
            },
            {
              "internalType": "bytes32",
              "name": "receivingAddressHash",
              "type": "bytes32"
            },
            {
              "internalType": "bytes32",
              "name": "intendedReceivingAddressHash",
              "type": "bytes32"
            },
            {
              "internalType": "int256",
              "name": "spentAmount",
              "type": "int256"
            },
            {
              "internalType": "int256",
              "name": "intendedSpentAmount",
              "type": "int256"
            },
            {
              "internalType": "int256",
              "name": "receivedAmount",
              "type": "int256"
            },
            {
              "internalType": "int256",
              "name": "intendedReceivedAmount",
              "type": "int256"
            },
            {
              "internalType": "bytes32",
              "name": "paymentReference",
              "type": "bytes32"
            },
            {
              "internalType": "bool",
              "name": "oneToOne",
              "type": "bool"
            },
            {
              "internalType": "uint8",
              "name": "status",
              "type": "uint8"
            }
          ],
          "internalType": "struct ISCProofVerifier.Payment",
          "name": "_payment",
          "type": "tuple"
        }
      ],
      "name": "proveUnderlyingAddressEOA",
      "outputs": [],
      "stateMutability": "nonpayable",
      "type": "function"
    },
    {
      "inputs": [
        {
          "internalType": "uint256",
          "name": "_lots",
          "type": "uint256"
        },
        {
          "internalType": "string",
          "name": "_redeemerUnderlyingAddressString",
          "type": "string"
        }
      ],
      "name": "redeem",
      "outputs": [],
      "stateMutability": "nonpayable",
      "type": "function"
    },
    {
      "inputs": [
        {
          "internalType": "address",
          "name": "_agentVault",
          "type": "address"
        },
        {
          "internalType": "address",
          "name": "_receiver",
          "type": "address"
        },
        {
          "internalType": "uint256",
          "name": "_amountUBA",
          "type": "uint256"
        },
        {
          "internalType": "string",
          "name": "_receiverUnderlyingAddress",
          "type": "string"
        }
      ],
      "name": "redeemFromAgent",
      "outputs": [],
      "stateMutability": "nonpayable",
      "type": "function"
    },
    {
      "inputs": [
        {
          "internalType": "address",
          "name": "_agentVault",
          "type": "address"
        },
        {
          "internalType": "address",
          "name": "_receiver",
          "type": "address"
        },
        {
          "internalType": "uint256",
          "name": "_amountUBA",
          "type": "uint256"
        }
      ],
      "name": "redeemFromAgentInCollateral",
      "outputs": [],
      "stateMutability": "nonpayable",
      "type": "function"
    },
    {
      "inputs": [
        {
          "components": [
            {
              "internalType": "bytes32[]",
              "name": "merkleProof",
              "type": "bytes32[]"
            },
            {
              "internalType": "uint256",
              "name": "stateConnectorRound",
              "type": "uint256"
            },
            {
              "internalType": "uint64",
              "name": "deadlineBlockNumber",
              "type": "uint64"
            },
            {
              "internalType": "uint64",
              "name": "deadlineTimestamp",
              "type": "uint64"
            },
            {
              "internalType": "bytes32",
              "name": "destinationAddressHash",
              "type": "bytes32"
            },
            {
              "internalType": "bytes32",
              "name": "paymentReference",
              "type": "bytes32"
            },
            {
              "internalType": "uint128",
              "name": "amount",
              "type": "uint128"
            },
            {
              "internalType": "uint64",
              "name": "lowerBoundaryBlockNumber",
              "type": "uint64"
            },
            {
              "internalType": "uint64",
              "name": "lowerBoundaryBlockTimestamp",
              "type": "uint64"
            },
            {
              "internalType": "uint64",
              "name": "firstOverflowBlockNumber",
              "type": "uint64"
            },
            {
              "internalType": "uint64",
              "name": "firstOverflowBlockTimestamp",
              "type": "uint64"
            }
          ],
          "internalType": "struct ISCProofVerifier.ReferencedPaymentNonexistence",
          "name": "_proof",
          "type": "tuple"
        },
        {
          "internalType": "uint256",
          "name": "_redemptionRequestId",
          "type": "uint256"
        }
      ],
      "name": "redemptionPaymentDefault",
      "outputs": [],
      "stateMutability": "nonpayable",
      "type": "function"
    },
    {
      "inputs": [
        {
          "internalType": "address",
          "name": "_agentVault",
          "type": "address"
        },
        {
          "internalType": "uint256",
          "name": "_lots",
          "type": "uint256"
        },
        {
          "internalType": "uint256",
          "name": "_maxMintingFeeBIPS",
          "type": "uint256"
        }
      ],
      "name": "reserveCollateral",
      "outputs": [],
      "stateMutability": "payable",
      "type": "function"
    },
    {
      "inputs": [
        {
          "internalType": "address",
          "name": "_agentVault",
          "type": "address"
        },
        {
          "internalType": "uint256",
          "name": "_amountUBA",
          "type": "uint256"
        }
      ],
      "name": "selfClose",
      "outputs": [],
      "stateMutability": "nonpayable",
      "type": "function"
    },
    {
      "inputs": [
        {
          "components": [
            {
              "internalType": "bytes32[]",
              "name": "merkleProof",
              "type": "bytes32[]"
            },
            {
              "internalType": "uint256",
              "name": "stateConnectorRound",
              "type": "uint256"
            },
            {
              "internalType": "uint64",
              "name": "blockNumber",
              "type": "uint64"
            },
            {
              "internalType": "uint64",
              "name": "blockTimestamp",
              "type": "uint64"
            },
            {
              "internalType": "bytes32",
              "name": "transactionHash",
              "type": "bytes32"
            },
            {
              "internalType": "uint8",
              "name": "inUtxo",
              "type": "uint8"
            },
            {
              "internalType": "uint8",
              "name": "utxo",
              "type": "uint8"
            },
            {
              "internalType": "bytes32",
              "name": "sourceAddressHash",
              "type": "bytes32"
            },
            {
              "internalType": "bytes32",
              "name": "intendedSourceAddressHash",
              "type": "bytes32"
            },
            {
              "internalType": "bytes32",
              "name": "receivingAddressHash",
              "type": "bytes32"
            },
            {
              "internalType": "bytes32",
              "name": "intendedReceivingAddressHash",
              "type": "bytes32"
            },
            {
              "internalType": "int256",
              "name": "spentAmount",
              "type": "int256"
            },
            {
              "internalType": "int256",
              "name": "intendedSpentAmount",
              "type": "int256"
            },
            {
              "internalType": "int256",
              "name": "receivedAmount",
              "type": "int256"
            },
            {
              "internalType": "int256",
              "name": "intendedReceivedAmount",
              "type": "int256"
            },
            {
              "internalType": "bytes32",
              "name": "paymentReference",
              "type": "bytes32"
            },
            {
              "internalType": "bool",
              "name": "oneToOne",
              "type": "bool"
            },
            {
              "internalType": "uint8",
              "name": "status",
              "type": "uint8"
            }
          ],
          "internalType": "struct ISCProofVerifier.Payment",
          "name": "_payment",
          "type": "tuple"
        },
        {
          "internalType": "address",
          "name": "_agentVault",
          "type": "address"
        },
        {
          "internalType": "uint256",
          "name": "_lots",
          "type": "uint256"
        }
      ],
      "name": "selfMint",
      "outputs": [],
      "stateMutability": "nonpayable",
      "type": "function"
    },
    {
      "inputs": [
        {
          "internalType": "enum CollateralType.Class",
          "name": "_collateralClass",
          "type": "uint8"
        },
        {
          "internalType": "contract IERC20",
          "name": "_token",
          "type": "address"
        },
        {
          "internalType": "uint256",
          "name": "_minCollateralRatioBIPS",
          "type": "uint256"
        },
        {
          "internalType": "uint256",
          "name": "_ccbMinCollateralRatioBIPS",
          "type": "uint256"
        },
        {
          "internalType": "uint256",
          "name": "_safetyMinCollateralRatioBIPS",
          "type": "uint256"
        }
      ],
      "name": "setCollateralRatiosForToken",
      "outputs": [],
      "stateMutability": "nonpayable",
      "type": "function"
    },
    {
      "inputs": [
        {
          "internalType": "address",
          "name": "_ownerHotAddress",
          "type": "address"
        }
      ],
      "name": "setOwnerHotAddress",
      "outputs": [],
      "stateMutability": "nonpayable",
      "type": "function"
    },
    {
      "inputs": [
        {
          "components": [
            {
              "internalType": "enum CollateralType.Class",
              "name": "collateralClass",
              "type": "uint8"
            },
            {
              "internalType": "contract IERC20",
              "name": "token",
              "type": "address"
            },
            {
              "internalType": "uint256",
              "name": "decimals",
              "type": "uint256"
            },
            {
              "internalType": "uint256",
              "name": "validUntil",
              "type": "uint256"
            },
            {
              "internalType": "bool",
              "name": "directPricePair",
              "type": "bool"
            },
            {
              "internalType": "string",
              "name": "assetFtsoSymbol",
              "type": "string"
            },
            {
              "internalType": "string",
              "name": "tokenFtsoSymbol",
              "type": "string"
            },
            {
              "internalType": "uint256",
              "name": "minCollateralRatioBIPS",
              "type": "uint256"
            },
            {
              "internalType": "uint256",
              "name": "ccbMinCollateralRatioBIPS",
              "type": "uint256"
            },
            {
              "internalType": "uint256",
              "name": "safetyMinCollateralRatioBIPS",
              "type": "uint256"
            }
          ],
          "internalType": "struct CollateralType.Data",
          "name": "_data",
          "type": "tuple"
        }
      ],
      "name": "setPoolWNatCollateralType",
      "outputs": [],
      "stateMutability": "nonpayable",
      "type": "function"
    },
    {
      "inputs": [
        {
          "internalType": "address",
          "name": "_agentVault",
          "type": "address"
        }
      ],
      "name": "startLiquidation",
      "outputs": [],
      "stateMutability": "nonpayable",
      "type": "function"
    },
    {
      "inputs": [
        {
          "internalType": "bytes4",
          "name": "_interfaceId",
          "type": "bytes4"
        }
      ],
      "name": "supportsInterface",
      "outputs": [
        {
          "internalType": "bool",
          "name": "",
          "type": "bool"
        }
      ],
      "stateMutability": "pure",
      "type": "function"
    },
    {
      "inputs": [
        {
          "internalType": "address",
          "name": "_agentVault",
          "type": "address"
        },
        {
          "internalType": "contract IERC20",
          "name": "_token",
          "type": "address"
        }
      ],
      "name": "switchClass1Collateral",
      "outputs": [],
      "stateMutability": "nonpayable",
      "type": "function"
    },
    {
      "inputs": [],
      "name": "terminate",
      "outputs": [],
      "stateMutability": "nonpayable",
      "type": "function"
    },
    {
      "inputs": [],
      "name": "terminated",
      "outputs": [
        {
          "internalType": "bool",
          "name": "",
          "type": "bool"
        }
      ],
      "stateMutability": "view",
      "type": "function"
    },
    {
      "inputs": [],
      "name": "unpause",
      "outputs": [],
      "stateMutability": "nonpayable",
      "type": "function"
    },
    {
      "inputs": [
        {
          "components": [
            {
              "internalType": "bytes32[]",
              "name": "merkleProof",
              "type": "bytes32[]"
            },
            {
              "internalType": "uint256",
              "name": "stateConnectorRound",
              "type": "uint256"
            },
            {
              "internalType": "uint64",
              "name": "blockNumber",
              "type": "uint64"
            },
            {
              "internalType": "uint64",
              "name": "blockTimestamp",
              "type": "uint64"
            },
            {
              "internalType": "uint8",
              "name": "numberOfConfirmations",
              "type": "uint8"
            },
            {
              "internalType": "uint64",
              "name": "lowestQueryWindowBlockNumber",
              "type": "uint64"
            },
            {
              "internalType": "uint64",
              "name": "lowestQueryWindowBlockTimestamp",
              "type": "uint64"
            }
          ],
          "internalType": "struct ISCProofVerifier.ConfirmedBlockHeightExists",
          "name": "_proof",
          "type": "tuple"
        },
        {
          "internalType": "uint256",
          "name": "_collateralReservationId",
          "type": "uint256"
        }
      ],
      "name": "unstickMinting",
      "outputs": [],
      "stateMutability": "payable",
      "type": "function"
    },
    {
      "inputs": [
        {
          "components": [
            {
              "internalType": "bytes32[]",
              "name": "merkleProof",
              "type": "bytes32[]"
            },
            {
              "internalType": "uint256",
              "name": "stateConnectorRound",
              "type": "uint256"
            },
            {
              "internalType": "uint64",
              "name": "blockNumber",
              "type": "uint64"
            },
            {
              "internalType": "uint64",
              "name": "blockTimestamp",
              "type": "uint64"
            },
            {
              "internalType": "uint8",
              "name": "numberOfConfirmations",
              "type": "uint8"
            },
            {
              "internalType": "uint64",
              "name": "lowestQueryWindowBlockNumber",
              "type": "uint64"
            },
            {
              "internalType": "uint64",
              "name": "lowestQueryWindowBlockTimestamp",
              "type": "uint64"
            }
          ],
          "internalType": "struct ISCProofVerifier.ConfirmedBlockHeightExists",
          "name": "_proof",
          "type": "tuple"
        }
      ],
      "name": "updateCurrentBlock",
      "outputs": [],
      "stateMutability": "nonpayable",
      "type": "function"
    },
    {
      "inputs": [
        {
          "internalType": "bytes32",
          "name": "_method",
          "type": "bytes32"
        },
        {
          "internalType": "bytes",
          "name": "_params",
          "type": "bytes"
        }
      ],
      "name": "updateSettings",
      "outputs": [],
      "stateMutability": "nonpayable",
      "type": "function"
    },
    {
      "inputs": [
        {
          "internalType": "address",
          "name": "_agentVault",
          "type": "address"
        }
      ],
      "name": "upgradeWNatContract",
      "outputs": [],
      "stateMutability": "nonpayable",
      "type": "function"
    },
    {
      "inputs": [
        {
          "internalType": "contract IERC20",
          "name": "_token",
          "type": "address"
        },
        {
          "internalType": "uint256",
          "name": "_valueNATWei",
          "type": "uint256"
        }
      ],
      "name": "withdrawCollateral",
      "outputs": [],
      "stateMutability": "nonpayable",
      "type": "function"
    }
  ],
  "bytecode": "0x60806040523480156200001157600080fd5b50604051620067ea380380620067ea8339810160408190526200003491620005b2565b600160005560405163658f4c6160e01b815273__$498fae630e5f9e2b0d2f5a14b70bbf8a29$__9063658f4c619062000072908690600401620009b8565b60006040518083038186803b1580156200008b57600080fd5b505af4158015620000a0573d6000803e3d6000fd5b505060405163cbcf339b60e01b815273__$b5cdffcf5b8f8ae6fa06e08eee0b808a00$__925063cbcf339b9150620000dd90859060040162000d0e565b60006040518083038186803b158015620000f657600080fd5b505af41580156200010b573d6000803e3d6000fd5b5050505062000120816200012960201b60201c565b50505062000e3f565b7fec7e8c1c441439dd40959777f4c577ea0cd42fcc1dbe59d2bd0f5d9c55df8dbe546040516001600160a01b0390911690600090829063439fab91906200017590869060240162000e05565b604051602081830303815290604052915060e01b6020820180516001600160e01b0383818316178352505050509050620001b68282620001bc60201b60201c565b50505050565b6060600080846001600160a01b031684604051620001db919062000e21565b600060405180830381855af49150503d806000811462000218576040519150601f19603f3d011682016040523d82523d6000602084013e6200021d565b606091505b5091509150811562000233579150620002469050565b3d604051818101604052816000823e8181fd5b92915050565b634e487b7160e01b600052604160045260246000fd5b60405161014081016001600160401b03811182821017156200028857620002886200024c565b60405290565b6040516105a081016001600160401b03811182821017156200028857620002886200024c565b604051601f8201601f191681016001600160401b0381118282101715620002df57620002df6200024c565b604052919050565b80516001600160a01b0381168114620002ff57600080fd5b919050565b805160ff81168114620002ff57600080fd5b805163ffffffff81168114620002ff57600080fd5b805161ffff81168114620002ff57600080fd5b80516001600160401b0381168114620002ff57600080fd5b80518015158114620002ff57600080fd5b80516001600160801b0381168114620002ff57600080fd5b805160038110620002ff57600080fd5b60005b83811015620003ac57818101518382015260200162000392565b50506000910152565b600082601f830112620003c757600080fd5b81516001600160401b03811115620003e357620003e36200024c565b620003f8601f8201601f1916602001620002b4565b8181528460208386010111156200040e57600080fd5b620004218260208301602087016200038f565b949350505050565b600082601f8301126200043b57600080fd5b815160206001600160401b03808311156200045a576200045a6200024c565b8260051b6200046b838201620002b4565b93845285810183019383810190888611156200048657600080fd5b84880192505b85831015620005a657825184811115620004a65760008081fd5b8801610140818b03601f1901811315620004c05760008081fd5b620004ca62000262565b620004d78884016200037f565b81526040620004e8818501620002e7565b89830152606080850151828401526080915081850151818401525060a06200051281860162000356565b8284015260c0915081850151898111156200052d5760008081fd5b6200053d8f8c83890101620003b5565b82850152505060e08085015189811115620005585760008081fd5b620005688f8c83890101620003b5565b83850152506101009150818501518184015250610120808501518284015283850151818401525050808552505050848201915084830192506200048c565b98975050505050505050565b60008060008385036105e0811215620005ca57600080fd5b6105a080821215620005db57600080fd5b620005e56200028e565b9150620005f286620002e7565b82526200060260208701620002e7565b60208301526200061560408701620002e7565b60408301526200062860608701620002e7565b60608301526200063b60808701620002e7565b60808301526200064e60a08701620002e7565b60a08301526200066160c08701620002e7565b60c08301526200067460e08701620002e7565b60e083015261010062000689818801620002e7565b908301526101206200069d878201620002e7565b90830152610140620006b1878201620002e7565b90830152610160620006c587820162000304565b90830152610180620006d987820162000304565b908301526101a0620006ed87820162000316565b908301526101c06200070187820162000316565b908301526101e06200071587820162000316565b90830152610200620007298782016200032b565b908301526102206200073d8782016200033e565b90830152610240620007518782016200033e565b90830152610260620007658782016200033e565b90830152610280620007798782016200032b565b908301526102a06200078d87820162000356565b908301526102c0620007a18782016200033e565b908301526102e0620007b58782016200033e565b90830152610300620007c98782016200033e565b90830152610320620007dd8782016200032b565b90830152610340620007f187820162000316565b908301526103606200080587820162000316565b90830152610380620008198782016200033e565b908301526103a06200082d87820162000367565b908301526103c0620008418782016200032b565b908301526103e0620008558782016200032b565b908301526104006200086987820162000367565b908301526104206200087d8782016200033e565b90830152610440620008918782016200033e565b90830152610460620008a58782016200033e565b90830152610480620008b98782016200033e565b908301526104a0620008cd8782016200033e565b908301526104c0620008e18782016200033e565b908301526104e0620008f58782016200033e565b90830152610500620009098782016200033e565b908301526105206200091d87820162000316565b90830152610540620009318782016200033e565b90830152610560620009458782016200033e565b90830152610580620009598782016200033e565b908301528501519093506001600160401b03808211156200097957600080fd5b620009878783880162000429565b93506105c08601519150808211156200099f57600080fd5b50620009ae86828701620003b5565b9150509250925092565b81516001600160a01b031681526105a081016020830151620009e560208401826001600160a01b03169052565b50604083015162000a0160408401826001600160a01b03169052565b50606083015162000a1d60608401826001600160a01b03169052565b50608083015162000a3960808401826001600160a01b03169052565b5060a083015162000a5560a08401826001600160a01b03169052565b5060c083015162000a7160c08401826001600160a01b03169052565b5060e083015162000a8d60e08401826001600160a01b03169052565b50610100838101516001600160a01b03908116918401919091526101208085015182169084015261014080850151909116908301526101608084015160ff9081169184019190915261018080850151909116908301526101a08084015163ffffffff908116918401919091526101c0808501518216908401526101e0808501518216908401526102008085015161ffff90811691850191909152610220808601516001600160401b03908116918601919091526102408087015182169086015261026080870151821690860152610280808701518316908601526102a0808701511515908601526102c0808701518216908601526102e08087015182169086015261030080870151821690860152610320808701518316908601526103408087015184169086015261036080870151841690860152610380808701518216908601526103a0808701516001600160801b03908116918701919091526103c0808801518416908701526103e080880151909316928601929092526104008087015190921691850191909152610420808601518216908501526104408086015182169085015261046080860151821690850152610480808601518216908501526104a0808601518216908501526104c0808601518216908501526104e08086015182169085015261050080860151821690850152610520808601519092169184019190915261054080850151821690840152610560808501518216908401526105809384015116929091019190915290565b6003811062000cdc57634e487b7160e01b600052602160045260246000fd5b9052565b6000815180845262000cfa8160208601602086016200038f565b601f01601f19169290920160200192915050565b60006020808301818452808551808352604092508286019150828160051b87010184880160005b8381101562000df757603f19898403018552815161014062000d5985835162000cbd565b888201516001600160a01b0316858a015287820151888601526060808301519086015260808083015115159086015260a08083015181870183905262000da28388018262000ce0565b9250505060c0808301518683038288015262000dbf838262000ce0565b60e085810151908901526101008086015190890152610120948501519490970193909352505050938601939086019060010162000d35565b509098975050505050505050565b60208152600062000e1a602083018462000ce0565b9392505050565b6000825162000e358184602087016200038f565b9190910192915050565b61599b8062000e4f6000396000f3fe60806040526004361061043c5760003560e01c80637c7db1a511610234578063bd6035351161012e578063ed000b30116100b6578063f19d3c061161007a578063f19d3c06146111b1578063f4d000b2146111d1578063f54ff230146111f1578063fa14761214611211578063fe005d221461123157600080fd5b8063ed000b3014611106578063ed3762aa14611126578063eebbcd5514611146578063f060b3f114611166578063f0c0b7251461118657600080fd5b8063d8a67e75116100fd578063d8a67e7514611071578063e1c5010014611084578063e415339c146110a4578063e7732f91146110c4578063ec96c1c9146110e457600080fd5b8063bd60353514610ffe578063be506e6714611011578063c0674b4614611031578063d6b93a9f1461105157600080fd5b80639e1675f6116101bc578063b68af97e11610180578063b68af97e14610f50578063b7f658ab14610f63578063b928b53314610f83578063ba657a3614610fa3578063bcbaf48714610fc357600080fd5b80639e1675f614610ead5780639eae95bf14610ecd578063a07ea7af14610eed578063b19aec1714610f0d578063b5a488a614610f3b57600080fd5b80638456cb59116102035780638456cb5914610a0157806385b4bb5314610a165780638a1914fe14610e4d5780639584da2a14610e6d5780639a570aff14610e8d57600080fd5b80637c7db1a51461097c5780637d7e1f50146109915780638003314d146109b157806382dede26146109df57600080fd5b80633f4ba83a116103455780635e71055c116102cd5780636a26fb97116102915780636a26fb97146108bc5780636a990403146108dc5780636e61164f146108fc578063700104f71461093c578063778aadd51461095c57600080fd5b80635e71055c1461081c578063612007e51461083c57806365454f941461085c5780636563392c1461087c578063659854941461089c57600080fd5b80635252f3a2116103145780635252f3a21461074b578063537777301461078357806353ddb973146107af57806358366b8c146107cf5780635c975abb146107ef57600080fd5b80633f4ba83a146106d45780634610bc23146106e95780634942f65f1461071657806351c452bf1461072b57600080fd5b8063194307bf116103c85780632dabf2d0116103975780632dabf2d014610634578063350c35e914610654578063368a3593146106745780633851b614146106945780633ae06b11146106b457600080fd5b8063194307bf146105b15780631e8bee01146105c6578063249f1b59146105f457806324b76fd51461061457600080fd5b80630877acff1161040f5780630877acff146104e25780630c08bf881461052f5780630ffb0e861461054457806313199ee014610564578063152052b01461058457600080fd5b806301ffc9a71461044157806302312aec14610476578063025dfeb2146104a057806304203930146104c2575b600080fd5b34801561044d57600080fd5b5061046161045c366004613621565b611251565b60405190151581526020015b60405180910390f35b34801561048257600080fd5b5061048b6112a3565b6040805192835260208301919091520161046d565b3480156104ac57600080fd5b506104c06104bb36600461365e565b6112fa565b005b3480156104ce57600080fd5b506104c06104dd3660046136af565b61136e565b3480156104ee57600080fd5b507fec7e8c1c441439dd40959777f4c577ea0cd42fcc1dbe59d2bd0f5d9c55df8dd8546001600160401b03620100008204811691600160501b90041661048b565b34801561053b57600080fd5b506104c06113ae565b34801561055057600080fd5b506104c061055f3660046137fd565b6114ae565b34801561057057600080fd5b506104c061057f36600461387d565b611530565b34801561059057600080fd5b506105a461059f3660046136af565b6115a8565b60405161046d9190613938565b3480156105bd57600080fd5b50610461611762565b3480156105d257600080fd5b506105e66105e13660046136af565b6117d2565b60405190815260200161046d565b34801561060057600080fd5b506104c061060f366004613b67565b611852565b34801561062057600080fd5b506104c061062f366004613bb8565b6118d0565b34801561064057600080fd5b506104c061064f366004613bfe565b61194f565b34801561066057600080fd5b506104c061066f366004613bfe565b61198b565b34801561068057600080fd5b506105e661068f366004613c2a565b6119d8565b3480156106a057600080fd5b506104c06106af3660046136af565b611a29565b3480156106c057600080fd5b506104c06106cf366004613c56565b611a69565b3480156106e057600080fd5b506104c0611afb565b3480156106f557600080fd5b50610709610704366004613c9e565b611b70565b60405161046d9190613da0565b34801561072257600080fd5b506105e6611c57565b34801561073757600080fd5b506104c0610746366004613db3565b611cbe565b34801561075757600080fd5b5061076b6107663660046136af565b611d06565b6040516001600160a01b03909116815260200161046d565b34801561078f57600080fd5b5060008051602061594683398151915254600160401b900460ff16610461565b3480156107bb57600080fd5b506104c06107ca366004613de4565b611d21565b3480156107db57600080fd5b506104c06107ea366004613e5b565b611d64565b3480156107fb57600080fd5b50600080516020615946833981519152546001600160401b03161515610461565b34801561082857600080fd5b506104c06108373660046136af565b611da5565b34801561084857600080fd5b506104c06108573660046136af565b611de5565b34801561086857600080fd5b506104c06108773660046136af565b611e25565b34801561088857600080fd5b506104c0610897366004613eb1565b611e65565b3480156108a857600080fd5b506104c06108b7366004613ee6565b611ea6565b3480156108c857600080fd5b506104c06108d7366004613db3565b611ee9565b3480156108e857600080fd5b506104c06108f7366004613f60565b611f31565b34801561090857600080fd5b5061091c6109173660046136af565b611f6a565b604080516001600160a01b0393841681529290911660208301520161046d565b34801561094857600080fd5b50610461610957366004613db3565b611ff3565b34801561096857600080fd5b506104c0610977366004613db3565b61207a565b34801561098857600080fd5b5061076b6120c2565b34801561099d57600080fd5b506104c06109ac366004613fa6565b6120cc565b3480156109bd57600080fd5b506109d16109cc366004613fda565b612103565b60405161046d929190613ffc565b3480156109eb57600080fd5b506109f4612194565b60405161046d919061407a565b348015610a0d57600080fd5b506104c0612207565b348015610a2257600080fd5b50610e40604080516105a081018252600080825260208201819052918101829052606081018290526080810182905260a0810182905260c0810182905260e08101829052610100810182905261012081018290526101408101829052610160810182905261018081018290526101a081018290526101c081018290526101e08101829052610200810182905261022081018290526102408101829052610260810182905261028081018290526102a081018290526102c081018290526102e08101829052610300810182905261032081018290526103408101829052610360810182905261038081018290526103a081018290526103c081018290526103e08101829052610400810182905261042081018290526104408101829052610460810182905261048081018290526104a081018290526104c081018290526104e081018290526105008101829052610520810182905261054081018290526105608101829052610580810191909152600080516020615926833981519152604080516105a08101825282546001600160a01b03908116825260018401548116602083015260028401548116928201929092526003830154821660608201526004830154821660808201526005830154821660a08201526006830154821660c08201526007830154821660e0820152600883015482166101008083019190915260098401548316610120830152600a84015492831661014083015260ff600160a01b8085048216610160850152600160a81b8504821661018085015263ffffffff600160b01b80870482166101a0870152600160d01b90960481166101c0860152600b8701548082166101e087015261ffff64010000000080830482166102008901526001600160401b036601000000000000840481166102208a0152600160701b840481166102408a01529883048916610260890152600160f01b928390048216610280890152600c8a015495861615156102a089015295850488166102c08801526901000000000000000000850488166102e0880152600160881b85048816610300880152600160c81b85048116610320880152600160d81b9094048216610340870152600d88015480831661036088015294850487166103808701526001600160801b03600160601b860481166103a0880152600160e01b860485166103c088015294049092166103e0850152600e860154928316610400850152600160801b8084048616610420860152600160c01b938490048616610440860152600f870154808716610460870152600160401b808204881661048088015282820488166104a088015294900486166104c086015260108701548087166104e08701528481048716610500870152908104909216610520850152900483166105408301526011909301548083166105608301529290920416610580820152919050565b60405161046d91906140dc565b348015610e5957600080fd5b506104c0610e683660046143df565b61226f565b348015610e7957600080fd5b506104c0610e88366004613bfe565b6122b0565b348015610e9957600080fd5b506104c0610ea836600461441b565b6122f7565b348015610eb957600080fd5b506104c0610ec8366004613f60565b61232e565b348015610ed957600080fd5b506104c0610ee836600461365e565b612367565b348015610ef957600080fd5b506104c0610f083660046136af565b6123a6565b348015610f1957600080fd5b50610f2d610f28366004613fda565b6123e6565b60405161046d92919061444f565b348015610f4757600080fd5b5061076b61246c565b6104c0610f5e3660046136af565b612476565b348015610f6f57600080fd5b506104c0610f7e3660046136af565b612540565b348015610f8f57600080fd5b506104c0610f9e3660046144b9565b612580565b348015610faf57600080fd5b506104c0610fbe3660046136af565b6125b8565b348015610fcf57600080fd5b50610fe3610fde366004613bfe565b6125f8565b6040805193845260208401929092529082015260600161046d565b6104c061100c3660046144d6565b612696565b34801561101d57600080fd5b506104c061102c36600461450b565b61271f565b34801561103d57600080fd5b506104c061104c3660046136af565b612760565b34801561105d57600080fd5b5061046161106c366004613db3565b6127a0565b6104c061107f366004613eb1565b6127b4565b34801561109057600080fd5b506104c061109f3660046136af565b61283b565b3480156110b057600080fd5b50610f2d6110bf366004613fda565b612882565b3480156110d057600080fd5b506104c06110df366004614540565b6128c7565b3480156110f057600080fd5b506110f9612900565b60405161046d9190614579565b34801561111257600080fd5b506104c061112136600461458c565b61290a565b34801561113257600080fd5b506105e66111413660046136af565b612959565b34801561115257600080fd5b506104c061116136600461365e565b61299c565b34801561117257600080fd5b506104c06111813660046145ac565b6129db565b34801561119257600080fd5b50600080516020615926833981519152546001600160a01b031661076b565b3480156111bd57600080fd5b506104c06111cc366004614617565b612a4e565b3480156111dd57600080fd5b506104c06111ec3660046136af565b612a91565b3480156111fd57600080fd5b506104c061120c366004613bfe565b612ad1565b34801561121d57600080fd5b506104c061122c366004613e5b565b612b0d565b34801561123d57600080fd5b506104c061124c3660046143df565b612b56565b60006001600160e01b031982166301ffc9a760e01b148061128257506001600160e01b0319821663082f729560e31b145b8061129d57506001600160e01b0319821663230a479360e01b145b92915050565b6000806000805160206159268339815191526112c56112c0612b7a565b612bfc565b600b820154909350600160701b90046001600160401b03166112e96009600a61478c565b6112f39190614798565b9150509091565b611302612c12565b604051635cb1433f60e01b815273__$8ed6b3b04009dff171844b9d72c92eddd0$__90635cb1433f9061133b903090859060040161481d565b60006040518083038186803b15801561135357600080fd5b505af4158015611367573d6000803e3d6000fd5b5050505050565b60405163b42652e960e01b81526001600160a01b038216600482015273__$4054b81dd018f00b16b0262e280b71bd3d$__9063b42652e99060240161133b565b6113b6612c69565b60008051602061594683398151915254600080516020615926833981519152906001600160401b031615801590611407575060238101546114049062278d00906001600160401b03166148d5565b42115b6114585760405162461bcd60e51b815260206004820152601f60248201527f6173736574206d616e61676572206e6f742070617573656420656e6f7567680060448201526064015b60405180910390fd5b611460612cd0565b6001600160a01b0316630c08bf886040518163ffffffff1660e01b8152600401600060405180830381600087803b15801561149a57600080fd5b505af1158015611367573d6000803e3d6000fd5b60405163ccfb491360e01b815273__$df85e949fff37977e0d300eb10fcbb4998$__9063ccfb4913906114e9908690869086906004016148e8565b602060405180830381865af4158015611506573d6000803e3d6000fd5b505050506040513d601f19601f8201168201806040525081019061152a919061491c565b50505050565b611538612c69565b60405163031836db60e41b815273__$b5cdffcf5b8f8ae6fa06e08eee0b808a00$__906331836db09061157390869086908690600401614935565b60006040518083038186803b15801561158b57600080fd5b505af415801561159f573d6000803e3d6000fd5b50505050505050565b6116e2604080516104a08101909152806000815260200160006001600160a01b0316815260200160006001600160a01b0316815260200160006001600160a01b0316815260200160608152602001600015158152602001600081526020016000815260200160006001600160a01b03168152602001600081526020016000815260200160008152602001600081526020016000815260200160008152602001600081526020016000815260200160008152602001600081526020016000815260200160008152602001600081526020016000815260200160008152602001600081526020016000815260200160008152602001600081526020016000815260200160008152602001600081526020016000815260200160008152602001600081526020016000815260200160008152602001600081525090565b604051630152052b60e41b81526001600160a01b038316600482015273__$ec55c6bae1638b00bbedb6b751f1f84e77$__9063152052b090602401600060405180830381865af415801561173a573d6000803e3d6000fd5b505050506040513d6000823e601f3d908101601f1916820160405261129d91908101906149d4565b600061176c612cd0565b6001600160a01b031663194307bf6040518163ffffffff1660e01b8152600401602060405180830381865afa1580156117a9573d6000803e3d6000fd5b505050506040513d601f19601f820116820180604052508101906117cd9190614bf6565b905090565b604051631e8bee0160e01b81526001600160a01b038216600482015260009073__$4ff30c53c077284d3b777228e6ae31216c$__90631e8bee01906024015b602060405180830381865af415801561182e573d6000803e3d6000fd5b505050506040513d601f19601f8201168201806040525081019061129d919061491c565b61185a612c69565b60405163314768f160e11b815273__$b5cdffcf5b8f8ae6fa06e08eee0b808a00$__9063628ed1e2906118999088908890889088908890600401614c13565b60006040518083038186803b1580156118b157600080fd5b505af41580156118c5573d6000803e3d6000fd5b505050505050505050565b6118d8612cfe565b73__$4ff30c53c077284d3b777228e6ae31216c$__6326e68cd4336118fc85612deb565b846040518463ffffffff1660e01b815260040161191b93929190614c4a565b60006040518083038186803b15801561193357600080fd5b505af4158015611947573d6000803e3d6000fd5b505050505050565b60405163a43ba5ab60e01b815273__$c7446ca28182994c6c0135601399c1b584$__9063a43ba5ab9061191b9060029086908690600401614935565b604051631f463e2360e21b81526001600160a01b03831660048201523360248201526044810182905273__$c7446ca28182994c6c0135601399c1b584$__90637d18f88c9060640161191b565b600073__$f7c9c0d01068167c22df35ff5943b62148$__630c7dcd156119fd84612deb565b6040516001600160e01b031960e084901b1681526001600160401b039091166004820152602401611811565b60405163fdf6b37560e01b81526001600160a01b038216600482015273__$4054b81dd018f00b16b0262e280b71bd3d$__9063fdf6b3759060240161133b565b611a71612c12565b611a79612e57565b73__$db99a4b0b1a8936beb7122d8143ea3b698$__631449cfbd8484611a9e85612deb565b6040518463ffffffff1660e01b8152600401611abc93929190614e46565b60006040518083038186803b158015611ad457600080fd5b505af4158015611ae8573d6000803e3d6000fd5b50505050611af66001600055565b505050565b611b03612c69565b600080516020615926833981519152611b1a611762565b15611b5c5760405162461bcd60e51b8152602060048201526012602482015271198b585cdcd95d081d195c9b5a5b985d195960721b604482015260640161144f565b602301805467ffffffffffffffff19169055565b611bd2604080516101408101909152806000815260200160006001600160a01b03168152602001600081526020016000815260200160001515815260200160608152602001606081526020016000815260200160008152602001600081525090565b604051631107361560e01b815273__$b5cdffcf5b8f8ae6fa06e08eee0b808a00$__90631107361590611c0b9086908690600401614e82565b600060405180830381865af4158015611c28573d6000803e3d6000fd5b505050506040513d6000823e601f3d908101601f19168201604052611c509190810190614f8a565b9392505050565b7fec7e8c1c441439dd40959777f4c577ea0cd42fcc1dbe59d2bd0f5d9c55df8dc15460009060008051602061592683398151915290611caf906001600160401b03600160701b8204811691600160b01b900416614fbe565b6001600160401b031691505090565b60405163c61ce7dd60e01b81526001600160a01b0380841660048301528216602482015273__$c7446ca28182994c6c0135601399c1b584$__9063c61ce7dd9060440161191b565b6000611d1182612eb0565b546001600160a01b031692915050565b611d29612cfe565b604051634190855360e11b815273__$d15fd82c1987b4adc4c1dba5cf0be762b0$__906383210aa6906115739086908690869060040161507d565b73__$305ac64b111b0d775ac583a3c3f22849b9$__63cfc6004b83611d8884612deb565b6040518363ffffffff1660e01b815260040161191b9291906150bb565b60405163e4c5e4e960e01b81526001600160a01b038216600482015273__$8ed6b3b04009dff171844b9d72c92eddd0$__9063e4c5e4e99060240161133b565b604051630877cd8160e41b81526001600160a01b038216600482015273__$4054b81dd018f00b16b0262e280b71bd3d$__9063877cd8109060240161133b565b60405163195153e560e21b81526001600160a01b038216600482015273__$c7446ca28182994c6c0135601399c1b584$__906365454f949060240161133b565b73__$2121826b9482dc4a95d5f1c5bc0ffbdf06$__63bf52cc8c83611e8984612deb565b6040518363ffffffff1660e01b815260040161191b929190615186565b611eae612cfe565b604051633d6d00d960e21b815273__$d15fd82c1987b4adc4c1dba5cf0be762b0$__9063f5b403649061157390869086908690600401615199565b6040516375f4d63f60e01b81526001600160a01b0380841660048301528216602482015273__$c7446ca28182994c6c0135601399c1b584$__906375f4d63f9060440161191b565b60405163220417df60e11b815273__$1c6dbe76071682217e38af6fe7e8685bd4$__906344082fbe9061191b9085908590600401615220565b604051636e61164f60e01b81526001600160a01b0382166004820152600090819073__$c7446ca28182994c6c0135601399c1b584$__90636e61164f906024016040805180830381865af4158015611fc6573d6000803e3d6000fd5b505050506040513d601f19601f82011682018060405250810190611fea919061524a565b91509150915091565b604051636a79d06960e11b81526001600160a01b0380841660048301528216602482015260009073__$c7446ca28182994c6c0135601399c1b584$__9063d4f3a0d290604401602060405180830381865af4158015612056573d6000803e3d6000fd5b505050506040513d601f19601f82011682018060405250810190611c509190614bf6565b60405163778aadd560e01b81526001600160a01b0380841660048301528216602482015273__$8ed6b3b04009dff171844b9d72c92eddd0$__9063778aadd59060440161191b565b60006117cd612cd0565b604051633a8a9c4760e11b815273__$8ed6b3b04009dff171844b9d72c92eddd0$__90637515388e9061133b908490600401615279565b60405163825378af60e01b8152600481018390526024810182905260609060009073__$4054b81dd018f00b16b0262e280b71bd3d$__9063825378af90604401600060405180830381865af4158015612160573d6000803e3d6000fd5b505050506040513d6000823e601f3d908101601f1916820160405261218891908101906152af565b915091505b9250929050565b606073__$b5cdffcf5b8f8ae6fa06e08eee0b808a00$__63d80516a56040518163ffffffff1660e01b8152600401600060405180830381865af41580156121df573d6000803e3d6000fd5b505050506040513d6000823e601f3d908101601f191682016040526117cd9190810190615391565b61220f612c69565b60008051602061594683398151915254600080516020615926833981519152906001600160401b031660000361226c5761224842612deb565b60238201805467ffffffffffffffff19166001600160401b03929092169190911790555b50565b73__$2121826b9482dc4a95d5f1c5bc0ffbdf06$__63503225be8361229384612deb565b6040518363ffffffff1660e01b815260040161191b929190615458565b604051634ac26d1560e11b81526001600160a01b03831660048201526024810182905273__$4ff30c53c077284d3b777228e6ae31216c$__90639584da2a9060440161191b565b6040516341c16dd760e11b815273__$722590fcf677171437eb48cf082465d6d7$__90638382dbae9061133b9084906004016155a8565b60405163717488af60e01b815273__$900ca2dd89aa7bd7c22612e1484fcfb277$__9063717488af9061191b9085908590600401615220565b61236f612c69565b604051631d9578dd60e31b815273__$b5cdffcf5b8f8ae6fa06e08eee0b808a00$__9063ecabc6e89061133b9084906004016155bb565b60405163a07ea7af60e01b81526001600160a01b038216600482015273__$900ca2dd89aa7bd7c22612e1484fcfb277$__9063a07ea7af9060240161133b565b60405163b19aec1760e01b8152600481018390526024810182905260609060009073__$c7446ca28182994c6c0135601399c1b584$__9063b19aec17906044015b600060405180830381865af4158015612444573d6000803e3d6000fd5b505050506040513d6000823e601f3d908101601f191682016040526121889190810190615696565b60006117cd612f57565b61247e612e57565b612486611762565b6124cb5760405162461bcd60e51b8152602060048201526016602482015275198b585cdcd95d081b9bdd081d195c9b5a5b985d195960521b604482015260640161144f565b604051635b457cbf60e11b81526001600160a01b038216600482015273__$8ed6b3b04009dff171844b9d72c92eddd0$__9063b68af97e9060240160006040518083038186803b15801561251e57600080fd5b505af4158015612532573d6000803e3d6000fd5b5050505061226c6001600055565b60405163b7f658ab60e01b81526001600160a01b038216600482015273__$55e854ab37cd1bbaf9fa5a4f99ff154ced$__9063b7f658ab9060240161133b565b612588612c69565b6000805160206159468339815191528054911515600160401b0268ff000000000000000019909216919091179055565b604051635d32bd1b60e11b81526001600160a01b038216600482015273__$8ed6b3b04009dff171844b9d72c92eddd0$__9063ba657a369060240161133b565b6000806000612605612cfe565b60405163bcbaf48760e01b81526001600160a01b03861660048201526024810185905273__$55e854ab37cd1bbaf9fa5a4f99ff154ced$__9063bcbaf48790604401606060405180830381865af4158015612664573d6000803e3d6000fd5b505050506040513d601f19601f820116820180604052508101906126889190615737565b919790965090945092505050565b61269e612c12565b6126a6612cfe565b73__$f7c9c0d01068167c22df35ff5943b62148$__63f2821a6233856126cb86612deb565b6126d486612deb565b6040516001600160e01b031960e087901b1681526001600160a01b0394851660048201529390921660248401526001600160401b039081166044840152166064820152608401611573565b612727612cfe565b604051635b4482eb60e11b815273__$d15fd82c1987b4adc4c1dba5cf0be762b0$__9063b68905d69061191b9085908590600401615765565b604051636033a5a360e11b81526001600160a01b038216600482015273__$900ca2dd89aa7bd7c22612e1484fcfb277$__9063c0674b469060240161133b565b6000611c506127ae84612eb0565b83612fe5565b6127bc612e57565b73__$f7c9c0d01068167c22df35ff5943b62148$__635e2c2ead836127e084612deb565b6040518363ffffffff1660e01b81526004016127fd929190615186565b60006040518083038186803b15801561281557600080fd5b505af4158015612829573d6000803e3d6000fd5b505050506128376001600055565b5050565b612843612cfe565b60405162e1c50160e81b81526001600160a01b038216600482015273__$55e854ab37cd1bbaf9fa5a4f99ff154ced$__9063e1c501009060240161133b565b6040516315302d6160e31b8152600481018390526024810182905260609060009073__$4054b81dd018f00b16b0262e280b71bd3d$__9063a9816b0890604401612427565b6040516331ec097760e01b815273__$df85e949fff37977e0d300eb10fcbb4998$__906331ec09779061191b9085908590600401615778565b60606117cd61303f565b604051630ed000b360e41b81526001600160a01b038085166004830152831660248201526044810182905273__$4ff30c53c077284d3b777228e6ae31216c$__9063ed000b3090606401611573565b60405163769bb15560e11b81526001600160a01b038216600482015260009073__$c7446ca28182994c6c0135601399c1b584$__9063ed3762aa90602401611811565b6129a4612c69565b60405163839eddcd60e01b815273__$b5cdffcf5b8f8ae6fa06e08eee0b808a00$__9063839eddcd9061133b9084906004016155bb565b60405163f060b3f160e01b815273__$4ff30c53c077284d3b777228e6ae31216c$__9063f060b3f190612a1890879087908790879060040161579c565b60006040518083038186803b158015612a3057600080fd5b505af4158015612a44573d6000803e3d6000fd5b5050505050505050565b612a56612c69565b6040516302fab52b60e01b815273__$498fae630e5f9e2b0d2f5a14b70bbf8a29$__906302fab52b90611573908690869086906004016157d9565b604051637a68005960e11b81526001600160a01b038216600482015273__$c7446ca28182994c6c0135601399c1b584$__9063f4d000b29060240161133b565b60405163a43ba5ab60e01b815273__$c7446ca28182994c6c0135601399c1b584$__9063a43ba5ab9061191b9060009086908690600401614935565b612b15612e57565b73__$db99a4b0b1a8936beb7122d8143ea3b698$__635aaf5a7783612b3984612deb565b6040518363ffffffff1660e01b81526004016127fd9291906150bb565b73__$f7c9c0d01068167c22df35ff5943b62148$__63322e1ae38361229384612deb565b7fec7e8c1c441439dd40959777f4c577ea0cd42fcc1dbe59d2bd0f5d9c55df8dd8547fec7e8c1c441439dd40959777f4c577ea0cd42fcc1dbe59d2bd0f5d9c55df8dc88054600092600080516020615926833981519152929161ffff909116908110612be857612be86157f3565b906000526020600020906004020191505090565b6000612c098260006130c1565b50909392505050565b60008051602061594683398151915254600160401b900460ff16612c675760405162461bcd60e51b815260206004820152600c60248201526b1b9bdd08185d1d1858da195960a21b604482015260640161144f565b565b600080516020615926833981519152546001600160a01b03163314612c675760405162461bcd60e51b815260206004820152601d60248201527f6f6e6c79206173736574206d616e6167657220636f6e74726f6c6c6572000000604482015260640161144f565b7fec7e8c1c441439dd40959777f4c577ea0cd42fcc1dbe59d2bd0f5d9c55df8db7546001600160a01b031690565b7fec7e8c1c441439dd40959777f4c577ea0cd42fcc1dbe59d2bd0f5d9c55df8dba54600080516020615926833981519152906001600160a01b03161561226c57600481810154604051633af32abf60e01b815233928101929092526001600160a01b031690633af32abf90602401602060405180830381865afa158015612d89573d6000803e3d6000fd5b505050506040513d601f19601f82011682018060405250810190612dad9190614bf6565b61226c5760405162461bcd60e51b815260206004820152600f60248201526e1b9bdd081dda1a5d195b1a5cdd1959608a1b604482015260640161144f565b60006001600160401b03821115612e535760405162461bcd60e51b815260206004820152602660248201527f53616665436173743a2076616c756520646f65736e27742066697420696e203660448201526534206269747360d01b606482015260840161144f565b5090565b600260005403612ea95760405162461bcd60e51b815260206004820152601f60248201527f5265656e7472616e637947756172643a207265656e7472616e742063616c6c00604482015260640161144f565b6002600055565b7f5bebac0595fee029d42bb673937f5f1cb81cf8641382bc17774635de9b7d796568010000000000000000600160e01b03604083901b161880600060048084015460ff1690811115612f0457612f046138be565b03612f515760405162461bcd60e51b815260206004820152601b60248201527f696e76616c6964206167656e74207661756c7420616464726573730000000000604482015260640161144f565b50919050565b7fec7e8c1c441439dd40959777f4c577ea0cd42fcc1dbe59d2bd0f5d9c55df8dd8547fec7e8c1c441439dd40959777f4c577ea0cd42fcc1dbe59d2bd0f5d9c55df8dc88054600092600080516020615926833981519152929161ffff909116908110612fc557612fc56157f3565b60009182526020909120600490910201546001600160a01b031692915050565b6001820154600090600080516020615926833981519152906001600160a01b0390811690841681148061303657506001600160a01b0380821660009081526015840160205260409020548582169116145b95945050505050565b7fec7e8c1c441439dd40959777f4c577ea0cd42fcc1dbe59d2bd0f5d9c55df8dbe546040805160048152602481019091526020810180516001600160e01b03166385b4bb5360e01b1790526060916001600160a01b03169060006130a38383613280565b9050808060200190518101906130b99190615809565b935050505090565b6000806000806000806131608860010180546130dc90615851565b80601f016020809104026020016040519081016040528092919081815260200182805461310890615851565b80156131555780601f1061312a57610100808354040283529160200191613155565b820191906000526020600020905b81548152906001019060200180831161313857829003601f168201915b505050505088613294565b8a549295509093509150600160f01b900460ff16156131a757875460009061319690600160a81b900460ff1660018387866133f0565b965091945084935061327992505050565b60008060006132428b60020180546131be90615851565b80601f01602080910402602001604051908101604052809291908181526020018280546131ea90615851565b80156132375780601f1061320c57610100808354040283529160200191613237565b820191906000526020600020905b81548152906001019060200180831161321a57829003601f168201915b50505050508b613294565b8d54929550909350915060009061326690600160a81b900460ff1685848a896133f0565b9950949750909550613279945050505050565b9250925092565b606061347780613036858563ffffffff8416565b7fec7e8c1c441439dd40959777f4c577ea0cd42fcc1dbe59d2bd0f5d9c55df8dc0546040516325f69abd60e21b8152600091829182916000805160206159268339815191529183916001600160a01b0316906397da6af4906132fa908a90600401614579565b602060405180830381865afa158015613317573d6000803e3d6000fd5b505050506040513d601f19601f8201168201806040525081019061333b9190615885565b905085156133b257806001600160a01b0316633cacb3ae6040518163ffffffff1660e01b8152600401606060405180830381865afa158015613381573d6000803e3d6000fd5b505050506040513d601f19601f820116820180604052508101906133a59190615737565b9450945094505050613279565b806001600160a01b03166365f5cd866040518163ffffffff1660e01b8152600401606060405180830381865afa158015613381573d6000803e3d6000fd5b600060008051602061592683398151915281600961340e878a6148d5565b61341891906148d5565b600a830154909150600090613438908690600160a81b900460ff166148d5565b90508082101561344a5761344a6158a2565b61346a61345782846158b8565b61346290600a61478c565b87908a6134fb565b9998505050505050505050565b6060600080846001600160a01b03168460405161349491906158cb565b600060405180830381855af49150503d80600081146134cf576040519150601f19603f3d011682016040523d82523d6000602084013e6134d4565b606091505b509150915081156134e857915061129d9050565b3d604051818101604052816000823e8181fd5b600080821161353f5760405162461bcd60e51b815260206004820152601060248201526f4469766973696f6e206279207a65726f60801b604482015260640161144f565b8360000361354f57506000611c50565b83830283858281613562576135626158e7565b040361358057828181613577576135776158e7565b04915050611c50565b50600061358d83866158fd565b9050600061359b8487615911565b905060006135a985876158fd565b905060006135b78688615911565b9050856135c48285614798565b6135ce91906158fd565b6135d88385614798565b6135e28387614798565b886135ed8689614798565b6135f79190614798565b61360191906148d5565b61360b91906148d5565b61361591906148d5565b98975050505050505050565b60006020828403121561363357600080fd5b81356001600160e01b031981168114611c5057600080fd5b60006101408284031215612f5157600080fd5b60006020828403121561367057600080fd5b81356001600160401b0381111561368657600080fd5b6136928482850161364b565b949350505050565b6001600160a01b038116811461226c57600080fd5b6000602082840312156136c157600080fd5b8135611c508161369a565b634e487b7160e01b600052604160045260246000fd5b6040516104a081016001600160401b0381118282101715613705576137056136cc565b60405290565b60405161014081016001600160401b0381118282101715613705576137056136cc565b60405160a081016001600160401b0381118282101715613705576137056136cc565b604051601f8201601f191681016001600160401b0381118282101715613778576137786136cc565b604052919050565b60006001600160401b03821115613799576137996136cc565b50601f01601f191660200190565b600082601f8301126137b857600080fd5b81356137cb6137c682613780565b613750565b8181528460208386010111156137e057600080fd5b816020850160208301376000918101602001919091529392505050565b60008060006060848603121561381257600080fd5b833561381d8161369a565b925060208401356001600160401b0381111561383857600080fd5b613844868287016137a7565b925050604084013590509250925092565b6003811061226c57600080fd5b803561386d81613855565b919050565b803561386d8161369a565b60008060006060848603121561389257600080fd5b833561389d81613855565b925060208401356138ad8161369a565b929592945050506040919091013590565b634e487b7160e01b600052602160045260246000fd5b600581106138e4576138e46138be565b9052565b60005b838110156139035781810151838201526020016138eb565b50506000910152565b600081518084526139248160208601602086016138e8565b601f01601f19169290920160200192915050565b6020815261394a6020820183516138d4565b6000602083015161396660408401826001600160a01b03169052565b5060408301516001600160a01b03811660608401525060608301516001600160a01b03811660808401525060808301516104a08060a08501526139ad6104c085018361390c565b915060a08501516139c260c086018215159052565b5060c085015160e085015260e08501516101008181870152808701519150506101206139f8818701836001600160a01b03169052565b8601516101408681019190915286015161016080870191909152860151610180808701919091528601516101a0808701919091528601516101c0808701919091528601516101e08087019190915286015161020080870191909152860151610220808701919091528601516102408087019190915286015161026080870191909152860151610280808701919091528601516102a0808701919091528601516102c0808701919091528601516102e08087019190915286015161030080870191909152860151610320808701919091528601516103408087019190915286015161036080870191909152860151610380808701919091528601516103a0808701919091528601516103c0808701919091528601516103e08087019190915286015161040080870191909152860151610420808701919091528601516104408087019190915286015161046080870191909152860151610480808701919091529095015193019290925250919050565b600080600080600060a08688031215613b7f57600080fd5b8535613b8a81613855565b94506020860135613b9a8161369a565b94979496505050506040830135926060810135926080909101359150565b60008060408385031215613bcb57600080fd5b8235915060208301356001600160401b03811115613be857600080fd5b613bf4858286016137a7565b9150509250929050565b60008060408385031215613c1157600080fd5b8235613c1c8161369a565b946020939093013593505050565b600060208284031215613c3c57600080fd5b5035919050565b60006102408284031215612f5157600080fd5b600080600060608486031215613c6b57600080fd5b83356001600160401b03811115613c8157600080fd5b613c8d86828701613c43565b93505060208401356138ad8161369a565b60008060408385031215613cb157600080fd5b8235613cbc81613855565b91506020830135613ccc8161369a565b809150509250929050565b6003811061226c5761226c6138be565b6138e481613cd7565b6000610140613d00848451613ce7565b6020830151613d1a60208601826001600160a01b03169052565b5060408301516040850152606083015160608501526080830151613d42608086018215159052565b5060a08301518160a0860152613d5a8286018261390c565b91505060c083015184820360c0860152613d74828261390c565b60e085810151908701526101008086015190870152610120948501519490950193909352509192915050565b602081526000611c506020830184613cf0565b60008060408385031215613dc657600080fd5b8235613cbc8161369a565b60006101208284031215612f5157600080fd5b600080600060608486031215613df957600080fd5b83356001600160401b0380821115613e1057600080fd5b613e1c87838801613dd1565b94506020860135915080821115613e3257600080fd5b50613e3f86828701613dd1565b9250506040840135613e508161369a565b809150509250925092565b60008060408385031215613e6e57600080fd5b82356001600160401b03811115613e8457600080fd5b613e9085828601613c43565b95602094909401359450505050565b600060e08284031215612f5157600080fd5b60008060408385031215613ec457600080fd5b82356001600160401b03811115613eda57600080fd5b613e9085828601613e9f565b600080600060408486031215613efb57600080fd5b83356001600160401b0380821115613f1257600080fd5b818601915086601f830112613f2657600080fd5b813581811115613f3557600080fd5b8760208260051b8501011115613f4a57600080fd5b60209283019550935050840135613e508161369a565b60008060408385031215613f7357600080fd5b82356001600160401b03811115613f8957600080fd5b613f9585828601613c43565b9250506020830135613ccc8161369a565b600060208284031215613fb857600080fd5b81356001600160401b03811115613fce57600080fd5b61369284828501613c43565b60008060408385031215613fed57600080fd5b50508035926020909101359150565b6040808252835182820181905260009190606090818501906020808901865b8381101561406657815180516001600160a01b031686528381015184870152878101518887015286810151878701526080908101519086015260a0909401939082019060010161401b565b505095909501959095525092949350505050565b6000602080830181845280855180835260408601915060408160051b870101925083870160005b828110156140cf57603f198886030184526140bd858351613cf0565b945092850192908501906001016140a1565b5092979650505050505050565b81516001600160a01b031681526105a08101602083015161410860208401826001600160a01b03169052565b50604083015161412360408401826001600160a01b03169052565b50606083015161413e60608401826001600160a01b03169052565b50608083015161415960808401826001600160a01b03169052565b5060a083015161417460a08401826001600160a01b03169052565b5060c083015161418f60c08401826001600160a01b03169052565b5060e08301516141aa60e08401826001600160a01b03169052565b50610100838101516001600160a01b03908116918401919091526101208085015182169084015261014080850151909116908301526101608084015160ff9081169184019190915261018080850151909116908301526101a08084015163ffffffff908116918401919091526101c0808501518216908401526101e0808501518216908401526102008085015161ffff90811691850191909152610220808601516001600160401b03908116918601919091526102408087015182169086015261026080870151821690860152610280808701518316908601526102a0808701511515908601526102c0808701518216908601526102e08087015182169086015261030080870151821690860152610320808701518316908601526103408087015184169086015261036080870151841690860152610380808701518216908601526103a0808701516001600160801b03908116918701919091526103c0808801518416908701526103e080880151909316928601929092526104008087015190921691850191909152610420808601518216908501526104408086015182169085015261046080860151821690850152610480808601518216908501526104a0808601518216908501526104c0808601518216908501526104e08086015182169085015261050080860151821690850152610520808601519092169184019190915261054080850151821690840152610560808501518216908401526105808085015191821681850152905b505092915050565b600080604083850312156143f257600080fd5b82356001600160401b0381111561440857600080fd5b83016101608186031215613c1c57600080fd5b60006020828403121561442d57600080fd5b81356001600160401b0381111561444357600080fd5b61369284828501613e9f565b604080825283519082018190526000906020906060840190828701845b828110156144915781516001600160a01b03168452928401929084019060010161446c565b50505092019290925292915050565b801515811461226c57600080fd5b803561386d816144a0565b6000602082840312156144cb57600080fd5b8135611c50816144a0565b6000806000606084860312156144eb57600080fd5b83356144f68161369a565b95602085013595506040909401359392505050565b6000806040838503121561451e57600080fd5b82356001600160401b0381111561453457600080fd5b613f9585828601613dd1565b6000806040838503121561455357600080fd5b823561455e8161369a565b915060208301356001600160401b03811115613be857600080fd5b602081526000611c50602083018461390c565b6000806000606084860312156145a157600080fd5b833561389d8161369a565b600080600080608085870312156145c257600080fd5b84356145cd8161369a565b935060208501356145dd8161369a565b92506040850135915060608501356001600160401b038111156145ff57600080fd5b61460b878288016137a7565b91505092959194509250565b60008060006040848603121561462c57600080fd5b8335925060208401356001600160401b038082111561464a57600080fd5b818601915086601f83011261465e57600080fd5b81358181111561466d57600080fd5b87602082850101111561467f57600080fd5b6020830194508093505050509250925092565b634e487b7160e01b600052601160045260246000fd5b600181815b808511156146e35781600019048211156146c9576146c9614692565b808516156146d657918102915b93841c93908002906146ad565b509250929050565b6000826146fa5750600161129d565b816147075750600061129d565b816001811461471d576002811461472757614743565b600191505061129d565b60ff84111561473857614738614692565b50506001821b61129d565b5060208310610133831016604e8410600b8410161715614766575081810a61129d565b61477083836146a8565b806000190482111561478457614784614692565b029392505050565b6000611c5083836146eb565b808202811582820484141761129d5761129d614692565b6000808335601e198436030181126147c657600080fd5b83016020810192503590506001600160401b038111156147e557600080fd5b80360382131561218d57600080fd5b81835281816020850137506000828201602090810191909152601f909101601f19169091010190565b6001600160a01b038316815260406020820152600061483c83806147af565b610140806040860152614854610180860183856147f4565b925061486260208701613872565b6001600160a01b0381166060870152915060408601356080860152606086013560a0860152608086013560c086015260a086013560e0860152610100915060c08601358286015261012060e087013581870152828701358287015280870135610160870152505050809150509392505050565b8082018082111561129d5761129d614692565b6001600160a01b038416815260606020820181905260009061490c9083018561390c565b9050826040830152949350505050565b60006020828403121561492e57600080fd5b5051919050565b6060810161494285613cd7565b9381526001600160a01b0392909216602083015260409091015290565b80516005811061386d57600080fd5b805161386d8161369a565b60006149876137c684613780565b905082815283838301111561499b57600080fd5b611c508360208301846138e8565b600082601f8301126149ba57600080fd5b611c5083835160208501614979565b805161386d816144a0565b6000602082840312156149e657600080fd5b81516001600160401b03808211156149fd57600080fd5b908301906104a08286031215614a1257600080fd5b614a1a6136e2565b614a238361495f565b8152614a316020840161496e565b6020820152614a426040840161496e565b6040820152614a536060840161496e565b6060820152608083015182811115614a6a57600080fd5b614a76878286016149a9565b608083015250614a8860a084016149c9565b60a082015260c083015160c082015260e083015160e08201526101009150614ab182840161496e565b9181019190915261012082810151908201526101408083015190820152610160808301519082015261018080830151908201526101a080830151908201526101c080830151908201526101e08083015190820152610200808301519082015261022080830151908201526102408083015190820152610260808301519082015261028080830151908201526102a080830151908201526102c080830151908201526102e08083015190820152610300808301519082015261032080830151908201526103408083015190820152610360808301519082015261038080830151908201526103a080830151908201526103c080830151908201526103e08083015190820152610400808301519082015261042080830151908201526104408083015190820152610460808301519082015261048091820151918101919091529392505050565b600060208284031215614c0857600080fd5b8151611c50816144a0565b60a08101614c2087613cd7565b9581526001600160a01b039490941660208501526040840192909252606083015260809091015290565b6001600160a01b03841681526001600160401b03831660208201526060604082018190526000906130369083018461390c565b6000808335601e19843603018112614c9457600080fd5b83016020810192503590506001600160401b03811115614cb357600080fd5b8060051b360382131561218d57600080fd5b81835260006001600160fb1b03831115614cde57600080fd5b8260051b80836020870137939093016020019392505050565b80356001600160401b038116811461386d57600080fd5b803560ff8116811461386d57600080fd5b6000610240614d2e8384614c7d565b828652614d3e8387018284614cc5565b9250505060208301356020850152614d5860408401614cf7565b6001600160401b03166040850152614d7260608401614cf7565b6001600160401b0316606085015260808381013590850152614d9660a08401614d0e565b60ff1660a0850152614daa60c08401614d0e565b60ff1660c085015260e08381013590850152610100808401359085015261012080840135908501526101408084013590850152610160808401359085015261018080840135908501526101a080840135908501526101c080840135908501526101e08084013590850152610200614e228185016144ae565b151590850152610220614e36848201614d0e565b60ff169401939093525090919050565b606081526000614e596060830186614d1f565b6001600160a01b03949094166020830152506001600160401b0391909116604090910152919050565b60408101614e8f84613cd7565b9281526001600160a01b039190911660209091015290565b805161386d81613855565b60006101408284031215614ec557600080fd5b614ecd61370b565b9050614ed882614ea7565b8152614ee66020830161496e565b60208201526040820151604082015260608201516060820152614f0b608083016149c9565b608082015260a08201516001600160401b0380821115614f2a57600080fd5b614f36858386016149a9565b60a084015260c0840151915080821115614f4f57600080fd5b50614f5c848285016149a9565b60c08301525060e082015160e082015261010080830151818301525061012080830151818301525092915050565b600060208284031215614f9c57600080fd5b81516001600160401b03811115614fb257600080fd5b61369284828501614eb2565b6001600160401b038181168382160280821691908281146143d7576143d7614692565b6000610120614ff08384614c7d565b8286526150008387018284614cc5565b92505050602083013560208501526001600160401b0361502260408501614cf7565b16604085015261503460608401614cf7565b6001600160401b031660608501526080838101359085015260a0808401359085015260c0808401359085015260e080840135908501526101009283013592909301919091525090565b6060815260006150906060830186614fe1565b82810360208401526150a28186614fe1565b91505060018060a01b0383166040830152949350505050565b6040815260006150ce6040830185614d1f565b90506001600160401b03831660208301529392505050565b60006150f28283614c7d565b60e0855261510460e086018284614cc5565b9150506020830135602085015261511d60408401614cf7565b6001600160401b0380821660408701528061513a60608701614cf7565b16606087015260ff61514e60808701614d0e565b1660808701528061516160a08701614cf7565b1660a08701528061517460c08701614cf7565b1660c087015250508091505092915050565b6040815260006150ce60408301856150e6565b6040808252810183905260006060600585901b830181019083018683805b888110156151ff57868503605f190184528235368b900361011e190181126151dd578283fd5b6151e9868c8301614fe1565b95505060209384019392909201916001016151b7565b505050506001600160a01b0393909316602092909201919091525092915050565b6040815260006152336040830185614d1f565b905060018060a01b03831660208301529392505050565b6000806040838503121561525d57600080fd5b82516152688161369a565b6020840151909250613ccc8161369a565b602081526000611c506020830184614d1f565b60006001600160401b038211156152a5576152a56136cc565b5060051b60200190565b60008060408084860312156152c357600080fd5b83516001600160401b038111156152d957600080fd5b8401601f810186136152ea57600080fd5b805160206152fa6137c68361528c565b82815260a0928302840182019282820191908a85111561531957600080fd5b948301945b8486101561537e5780868c0312156153365760008081fd5b61533e61372e565b86516153498161369a565b81528685015185820152878701518882015260608088015190820152608080880151908201528352948501949183019161531e565b5097909101519698969750505050505050565b600060208083850312156153a457600080fd5b82516001600160401b03808211156153bb57600080fd5b818501915085601f8301126153cf57600080fd5b81516153dd6137c68261528c565b81815260059190911b830184019084810190888311156153fc57600080fd5b8585015b83811015615434578051858111156154185760008081fd5b6154268b89838a0101614eb2565b845250918601918601615400565b5098975050505050505050565b80356001600160801b038116811461386d57600080fd5b6040815260006154688485614c7d565b6101608060408601526154806101a086018385614cc5565b92506020870135606086015261549860408801614cf7565b6001600160401b038116608087015291506154b560608801614cf7565b6001600160401b03811660a08701529150608087013560c086015260a087013560e08601526154e660c08801615441565b91506101006154ff818701846001600160801b03169052565b61550b60e08901614cf7565b9250610120615524818801856001600160401b03169052565b61552f828a01614cf7565b9350610140915061554a828801856001600160401b03169052565b615555818a01614cf7565b93505061556c828701846001600160401b03169052565b615577818901614cf7565b925050506155916101808501826001600160401b03169052565b506001600160401b03841660208401529050611c50565b602081526000611c5060208301846150e6565b602081526155d4602082016155cf84613862565b613ce7565b60006155e260208401613872565b6001600160a01b0381166040840152506040830135606083015260608301356080830152615612608084016144ae565b80151560a08401525061562860a08401846147af565b6101408060c0860152615640610160860183856147f4565b925061564f60c08701876147af565b868503601f190160e088015292506156688484836147f4565b60e0880135610100888101919091528801356101208089019190915290970135919095015250929392505050565b600080604083850312156156a957600080fd5b82516001600160401b038111156156bf57600080fd5b8301601f810185136156d057600080fd5b805160206156e06137c68361528c565b82815260059290921b830181019181810190888411156156ff57600080fd5b938201935b838510156157265784516157178161369a565b82529382019390820190615704565b969091015195979596505050505050565b60008060006060848603121561574c57600080fd5b8351925060208401519150604084015190509250925092565b6040815260006152336040830185614fe1565b6001600160a01b03831681526040602082018190526000906136929083018461390c565b6001600160a01b03858116825284166020820152604081018390526080606082018190526000906157cf9083018461390c565b9695505050505050565b8381526040602082015260006130366040830184866147f4565b634e487b7160e01b600052603260045260246000fd5b60006020828403121561581b57600080fd5b81516001600160401b0381111561583157600080fd5b8201601f8101841361584257600080fd5b61369284825160208401614979565b600181811c9082168061586557607f821691505b602082108103612f5157634e487b7160e01b600052602260045260246000fd5b60006020828403121561589757600080fd5b8151611c508161369a565b634e487b7160e01b600052600160045260246000fd5b8181038181111561129d5761129d614692565b600082516158dd8184602087016138e8565b9190910192915050565b634e487b7160e01b600052601260045260246000fd5b60008261590c5761590c6158e7565b500490565b600082615920576159206158e7565b50069056feec7e8c1c441439dd40959777f4c577ea0cd42fcc1dbe59d2bd0f5d9c55df8db6ec7e8c1c441439dd40959777f4c577ea0cd42fcc1dbe59d2bd0f5d9c55df8dd9a264697066735822122014262a36d2b4a8306c66c99f05e4f7717e2803d14b489bb5c5db13d67d7d4f8164736f6c63430008140033",
  "linkReferences": {
    "contracts/fasset/library/AgentSettingsUpdater.sol": {
      "AgentSettingsUpdater": [
        {
          "length": 20,
          "start": 8972
        },
        {
          "length": 20,
          "start": 14117
        }
      ]
    },
    "contracts/fasset/library/AgentsCreateDestroy.sol": {
      "AgentsCreateDestroy": [
        {
          "length": 20,
          "start": 8544
        },
        {
          "length": 20,
          "start": 11282
        },
        {
          "length": 20,
          "start": 12015
        },
        {
          "length": 20,
          "start": 12074
        },
        {
          "length": 20,
          "start": 13112
        },
        {
          "length": 20,
          "start": 13349
        }
      ]
    },
    "contracts/fasset/library/AgentsExternal.sol": {
      "AgentsExternal": [
        {
          "length": 20,
          "start": 10157
        },
        {
          "length": 20,
          "start": 10245
        },
        {
          "length": 20,
          "start": 11059
        },
        {
          "length": 20,
          "start": 11410
        },
        {
          "length": 20,
          "start": 11614
        },
        {
          "length": 20,
          "start": 11740
        },
        {
          "length": 20,
          "start": 11883
        },
        {
          "length": 20,
          "start": 12888
        },
        {
          "length": 20,
          "start": 14281
        },
        {
          "length": 20,
          "start": 14590
        },
        {
          "length": 20,
          "start": 14639
        }
      ]
    },
    "contracts/fasset/library/AvailableAgents.sol": {
      "AvailableAgents": [
        {
          "length": 20,
          "start": 8667
        },
        {
          "length": 20,
          "start": 10390
        },
        {
          "length": 20,
          "start": 11346
        },
        {
          "length": 20,
          "start": 12149
        },
        {
          "length": 20,
          "start": 14068
        }
      ]
    },
    "contracts/fasset/library/Challenges.sol": {
      "Challenges": [
        {
          "length": 20,
          "start": 11143
        },
        {
          "length": 20,
          "start": 11532
        },
        {
          "length": 20,
          "start": 13701
        }
      ]
    },
    "contracts/fasset/library/CollateralReservations.sol": {
      "CollateralReservations": [
        {
          "length": 20,
          "start": 10283
        },
        {
          "length": 20,
          "start": 13559
        },
        {
          "length": 20,
          "start": 13837
        },
        {
          "length": 20,
          "start": 14759
        }
      ]
    },
    "contracts/fasset/library/CollateralTypes.sol": {
      "CollateralTypes": [
        {
          "length": 20,
          "start": 177
        },
        {
          "length": 20,
          "start": 9110
        },
        {
          "length": 20,
          "start": 9912
        },
        {
          "length": 20,
          "start": 10800
        },
        {
          "length": 20,
          "start": 12263
        },
        {
          "length": 20,
          "start": 12749
        },
        {
          "length": 20,
          "start": 14338
        }
      ]
    },
    "contracts/fasset/library/FullAgentInfo.sol": {
      "FullAgentInfo": [
        {
          "length": 20,
          "start": 9551
        }
      ]
    },
    "contracts/fasset/library/Liquidation.sol": {
      "Liquidation": [
        {
          "length": 20,
          "start": 13229
        },
        {
          "length": 20,
          "start": 13433
        },
        {
          "length": 20,
          "start": 13999
        }
      ]
    },
    "contracts/fasset/library/Minting.sol": {
      "Minting": [
        {
          "length": 20,
          "start": 10442
        },
        {
          "length": 20,
          "start": 14694
        }
      ]
    },
    "contracts/fasset/library/RedemptionConfirmations.sol": {
      "RedemptionConfirmations": [
        {
          "length": 20,
          "start": 11189
        }
      ]
    },
    "contracts/fasset/library/RedemptionFailures.sol": {
      "RedemptionFailures": [
        {
          "length": 20,
          "start": 11446
        },
        {
          "length": 20,
          "start": 12480
        }
      ]
    },
    "contracts/fasset/library/RedemptionRequests.sol": {
      "RedemptionRequests": [
        {
          "length": 20,
          "start": 9794
        },
        {
          "length": 20,
          "start": 10025
        },
        {
          "length": 20,
          "start": 12580
        },
        {
          "length": 20,
          "start": 14214
        },
        {
          "length": 20,
          "start": 14393
        }
      ]
    },
    "contracts/fasset/library/SettingsUpdater.sol": {
      "SettingsUpdater": [
        {
          "length": 20,
          "start": 72
        },
        {
          "length": 20,
          "start": 14516
        }
      ]
    },
    "contracts/fasset/library/StateUpdater.sol": {
      "StateUpdater": [
        {
          "length": 20,
          "start": 12629
        }
      ]
    },
    "contracts/fasset/library/UnderlyingBalance.sol": {
      "UnderlyingBalance": [
        {
          "length": 20,
          "start": 11663
        }
      ]
    },
    "contracts/fasset/library/UnderlyingWithdrawalAnnouncements.sol": {
      "UnderlyingWithdrawalAnnouncements": [
        {
          "length": 20,
          "start": 12684
        },
        {
          "length": 20,
          "start": 12819
        },
        {
          "length": 20,
          "start": 13773
        }
      ]
    }
  },
  "deployedLinkReferences": {
    "contracts/fasset/library/AgentSettingsUpdater.sol": {
      "AgentSettingsUpdater": [
        {
          "length": 20,
          "start": 5309
        },
        {
          "length": 20,
          "start": 10454
        }
      ]
    },
    "contracts/fasset/library/AgentsCreateDestroy.sol": {
      "AgentsCreateDestroy": [
        {
          "length": 20,
          "start": 4881
        },
        {
          "length": 20,
          "start": 7619
        },
        {
          "length": 20,
          "start": 8352
        },
        {
          "length": 20,
          "start": 8411
        },
        {
          "length": 20,
          "start": 9449
        },
        {
          "length": 20,
          "start": 9686
        }
      ]
    },
    "contracts/fasset/library/AgentsExternal.sol": {
      "AgentsExternal": [
        {
          "length": 20,
          "start": 6494
        },
        {
          "length": 20,
          "start": 6582
        },
        {
          "length": 20,
          "start": 7396
        },
        {
          "length": 20,
          "start": 7747
        },
        {
          "length": 20,
          "start": 7951
        },
        {
          "length": 20,
          "start": 8077
        },
        {
          "length": 20,
          "start": 8220
        },
        {
          "length": 20,
          "start": 9225
        },
        {
          "length": 20,
          "start": 10618
        },
        {
          "length": 20,
          "start": 10927
        },
        {
          "length": 20,
          "start": 10976
        }
      ]
    },
    "contracts/fasset/library/AvailableAgents.sol": {
      "AvailableAgents": [
        {
          "length": 20,
          "start": 5004
        },
        {
          "length": 20,
          "start": 6727
        },
        {
          "length": 20,
          "start": 7683
        },
        {
          "length": 20,
          "start": 8486
        },
        {
          "length": 20,
          "start": 10405
        }
      ]
    },
    "contracts/fasset/library/Challenges.sol": {
      "Challenges": [
        {
          "length": 20,
          "start": 7480
        },
        {
          "length": 20,
          "start": 7869
        },
        {
          "length": 20,
          "start": 10038
        }
      ]
    },
    "contracts/fasset/library/CollateralReservations.sol": {
      "CollateralReservations": [
        {
          "length": 20,
          "start": 6620
        },
        {
          "length": 20,
          "start": 9896
        },
        {
          "length": 20,
          "start": 10174
        },
        {
          "length": 20,
          "start": 11096
        }
      ]
    },
    "contracts/fasset/library/CollateralTypes.sol": {
      "CollateralTypes": [
        {
          "length": 20,
          "start": 5447
        },
        {
          "length": 20,
          "start": 6249
        },
        {
          "length": 20,
          "start": 7137
        },
        {
          "length": 20,
          "start": 8600
        },
        {
          "length": 20,
          "start": 9086
        },
        {
          "length": 20,
          "start": 10675
        }
      ]
    },
    "contracts/fasset/library/FullAgentInfo.sol": {
      "FullAgentInfo": [
        {
          "length": 20,
          "start": 5888
        }
      ]
    },
    "contracts/fasset/library/Liquidation.sol": {
      "Liquidation": [
        {
          "length": 20,
          "start": 9566
        },
        {
          "length": 20,
          "start": 9770
        },
        {
          "length": 20,
          "start": 10336
        }
      ]
    },
    "contracts/fasset/library/Minting.sol": {
      "Minting": [
        {
          "length": 20,
          "start": 6779
        },
        {
          "length": 20,
          "start": 11031
        }
      ]
    },
    "contracts/fasset/library/RedemptionConfirmations.sol": {
      "RedemptionConfirmations": [
        {
          "length": 20,
          "start": 7526
        }
      ]
    },
    "contracts/fasset/library/RedemptionFailures.sol": {
      "RedemptionFailures": [
        {
          "length": 20,
          "start": 7783
        },
        {
          "length": 20,
          "start": 8817
        }
      ]
    },
    "contracts/fasset/library/RedemptionRequests.sol": {
      "RedemptionRequests": [
        {
          "length": 20,
          "start": 6131
        },
        {
          "length": 20,
          "start": 6362
        },
        {
          "length": 20,
          "start": 8917
        },
        {
          "length": 20,
          "start": 10551
        },
        {
          "length": 20,
          "start": 10730
        }
      ]
    },
    "contracts/fasset/library/SettingsUpdater.sol": {
      "SettingsUpdater": [
        {
          "length": 20,
          "start": 10853
        }
      ]
    },
    "contracts/fasset/library/StateUpdater.sol": {
      "StateUpdater": [
        {
          "length": 20,
          "start": 8966
        }
      ]
    },
    "contracts/fasset/library/UnderlyingBalance.sol": {
      "UnderlyingBalance": [
        {
          "length": 20,
          "start": 8000
        }
      ]
    },
    "contracts/fasset/library/UnderlyingWithdrawalAnnouncements.sol": {
      "UnderlyingWithdrawalAnnouncements": [
        {
          "length": 20,
          "start": 9021
        },
        {
          "length": 20,
          "start": 9156
        },
        {
          "length": 20,
          "start": 10110
        }
      ]
    }
  }
}