{
  "_format": "hh-sol-artifact-1",
  "contractName": "AssetManager",
  "sourceName": "contracts/fasset/implementation/AssetManager.sol",
  "abi": [
    {
      "inputs": [
        {
          "components": [
            {
              "internalType": "address",
              "name": "assetManagerController",
              "type": "address"
            },
            {
              "internalType": "contract IFAsset",
              "name": "fAsset",
              "type": "address"
            },
            {
              "internalType": "contract IAgentVaultFactory",
              "name": "agentVaultFactory",
              "type": "address"
            },
            {
              "internalType": "contract ICollateralPoolFactory",
              "name": "collateralPoolFactory",
              "type": "address"
            },
            {
              "internalType": "contract IWhitelist",
              "name": "whitelist",
              "type": "address"
            },
            {
              "internalType": "contract IWhitelist",
              "name": "agentWhitelist",
              "type": "address"
            },
            {
              "internalType": "contract IAttestationClient",
              "name": "attestationClient",
              "type": "address"
            },
            {
              "internalType": "contract IAddressValidator",
              "name": "underlyingAddressValidator",
              "type": "address"
            },
            {
              "internalType": "address",
              "name": "liquidationStrategy",
              "type": "address"
            },
            {
              "internalType": "contract IFtsoRegistry",
              "name": "ftsoRegistry",
              "type": "address"
            },
            {
              "internalType": "uint32",
              "name": "assetFtsoIndex",
              "type": "uint32"
            },
            {
              "internalType": "uint8",
              "name": "assetDecimals",
              "type": "uint8"
            },
            {
              "internalType": "uint8",
              "name": "assetMintingDecimals",
              "type": "uint8"
            },
            {
              "internalType": "uint32",
              "name": "mintingPoolHoldingsRequiredBIPS",
              "type": "uint32"
            },
            {
              "internalType": "string",
              "name": "assetFtsoSymbol",
              "type": "string"
            },
            {
              "internalType": "address payable",
              "name": "burnAddress",
              "type": "address"
            },
            {
              "internalType": "bool",
              "name": "burnWithSelfDestruct",
              "type": "bool"
            },
            {
              "internalType": "uint32",
              "name": "chainId",
              "type": "uint32"
            },
            {
              "internalType": "uint16",
              "name": "collateralReservationFeeBIPS",
              "type": "uint16"
            },
            {
              "internalType": "uint64",
              "name": "assetUnitUBA",
              "type": "uint64"
            },
            {
              "internalType": "uint64",
              "name": "assetMintingGranularityUBA",
              "type": "uint64"
            },
            {
              "internalType": "uint64",
              "name": "lotSizeAMG",
              "type": "uint64"
            },
            {
              "internalType": "uint64",
              "name": "mintingCapAMG",
              "type": "uint64"
            },
            {
              "internalType": "uint64",
              "name": "maxTrustedPriceAgeSeconds",
              "type": "uint64"
            },
            {
              "internalType": "bool",
              "name": "requireEOAAddressProof",
              "type": "bool"
            },
            {
              "internalType": "uint64",
              "name": "underlyingBlocksForPayment",
              "type": "uint64"
            },
            {
              "internalType": "uint64",
              "name": "underlyingSecondsForPayment",
              "type": "uint64"
            },
            {
              "internalType": "uint16",
              "name": "redemptionFeeBIPS",
              "type": "uint16"
            },
            {
              "internalType": "uint32",
              "name": "redemptionDefaultFactorAgentC1BIPS",
              "type": "uint32"
            },
            {
              "internalType": "uint32",
              "name": "redemptionDefaultFactorPoolBIPS",
              "type": "uint32"
            },
            {
              "internalType": "uint64",
              "name": "confirmationByOthersAfterSeconds",
              "type": "uint64"
            },
            {
              "internalType": "uint128",
              "name": "confirmationByOthersRewardUSD5",
              "type": "uint128"
            },
            {
              "internalType": "uint16",
              "name": "maxRedeemedTickets",
              "type": "uint16"
            },
            {
              "internalType": "uint16",
              "name": "paymentChallengeRewardBIPS",
              "type": "uint16"
            },
            {
              "internalType": "uint128",
              "name": "paymentChallengeRewardUSD5",
              "type": "uint128"
            },
            {
              "internalType": "uint64",
              "name": "withdrawalWaitMinSeconds",
              "type": "uint64"
            },
            {
              "internalType": "uint64",
              "name": "ccbTimeSeconds",
              "type": "uint64"
            },
            {
              "internalType": "uint64",
              "name": "attestationWindowSeconds",
              "type": "uint64"
            },
            {
              "internalType": "uint64",
              "name": "minUpdateRepeatTimeSeconds",
              "type": "uint64"
            },
            {
              "internalType": "uint64",
              "name": "buybackCollateralFactorBIPS",
              "type": "uint64"
            },
            {
              "internalType": "uint64",
              "name": "announcedUnderlyingConfirmationMinSeconds",
              "type": "uint64"
            },
            {
              "internalType": "uint64",
              "name": "tokenInvalidationTimeMinSeconds",
              "type": "uint64"
            },
            {
              "internalType": "uint32",
              "name": "class1BuyForFlareFactorBIPS",
              "type": "uint32"
            },
            {
              "internalType": "uint64",
              "name": "agentExitAvailableTimelockSeconds",
              "type": "uint64"
            },
            {
              "internalType": "uint64",
              "name": "agentFeeChangeTimelockSeconds",
              "type": "uint64"
            },
            {
              "internalType": "uint64",
              "name": "agentCollateralRatioChangeTimelockSeconds",
              "type": "uint64"
            }
          ],
          "internalType": "struct AssetManagerSettings.Data",
          "name": "_settings",
          "type": "tuple"
        },
        {
          "components": [
            {
              "internalType": "enum IAssetManager.CollateralTokenClass",
              "name": "tokenClass",
              "type": "uint8"
            },
            {
              "internalType": "contract IERC20",
              "name": "token",
              "type": "address"
            },
            {
              "internalType": "uint256",
              "name": "decimals",
              "type": "uint256"
            },
            {
              "internalType": "uint256",
              "name": "validUntil",
              "type": "uint256"
            },
            {
              "internalType": "string",
              "name": "ftsoSymbol",
              "type": "string"
            },
            {
              "internalType": "uint256",
              "name": "minCollateralRatioBIPS",
              "type": "uint256"
            },
            {
              "internalType": "uint256",
              "name": "ccbMinCollateralRatioBIPS",
              "type": "uint256"
            },
            {
              "internalType": "uint256",
              "name": "safetyMinCollateralRatioBIPS",
              "type": "uint256"
            }
          ],
          "internalType": "struct IAssetManager.CollateralTokenInfo[]",
          "name": "_initialCollateralTypes",
          "type": "tuple[]"
        },
        {
          "internalType": "bytes",
          "name": "_initialLiquidationSettings",
          "type": "bytes"
        }
      ],
      "stateMutability": "nonpayable",
      "type": "constructor"
    },
    {
      "anonymous": false,
      "inputs": [
        {
          "indexed": true,
          "internalType": "address",
          "name": "agentVault",
          "type": "address"
        },
        {
          "indexed": false,
          "internalType": "uint256",
          "name": "feeBIPS",
          "type": "uint256"
        },
        {
          "indexed": false,
          "internalType": "uint256",
          "name": "mintingClass1CollateralRatioBIPS",
          "type": "uint256"
        },
        {
          "indexed": false,
          "internalType": "uint256",
          "name": "mintingPoolCollateralRatioBIPS",
          "type": "uint256"
        },
        {
          "indexed": false,
          "internalType": "uint256",
          "name": "freeCollateralLots",
          "type": "uint256"
        }
      ],
      "name": "AgentAvailable",
      "type": "event"
    },
    {
      "anonymous": false,
      "inputs": [
        {
          "indexed": true,
          "internalType": "address",
          "name": "owner",
          "type": "address"
        },
        {
          "indexed": false,
          "internalType": "uint8",
          "name": "agentType",
          "type": "uint8"
        },
        {
          "indexed": false,
          "internalType": "address",
          "name": "agentVault",
          "type": "address"
        },
        {
          "indexed": false,
          "internalType": "string",
          "name": "underlyingAddress",
          "type": "string"
        },
        {
          "indexed": false,
          "internalType": "address",
          "name": "collateralPool",
          "type": "address"
        }
      ],
      "name": "AgentCreated",
      "type": "event"
    },
    {
      "anonymous": false,
      "inputs": [
        {
          "indexed": true,
          "internalType": "address",
          "name": "agentVault",
          "type": "address"
        },
        {
          "indexed": false,
          "internalType": "uint256",
          "name": "destroyAllowedAt",
          "type": "uint256"
        }
      ],
      "name": "AgentDestroyAnnounced",
      "type": "event"
    },
    {
      "anonymous": false,
      "inputs": [
        {
          "indexed": true,
          "internalType": "address",
          "name": "agentVault",
          "type": "address"
        }
      ],
      "name": "AgentDestroyed",
      "type": "event"
    },
    {
      "anonymous": false,
      "inputs": [
        {
          "indexed": true,
          "internalType": "address",
          "name": "agentVault",
          "type": "address"
        },
        {
          "indexed": false,
          "internalType": "uint256",
          "name": "timestamp",
          "type": "uint256"
        }
      ],
      "name": "AgentInCCB",
      "type": "event"
    },
    {
      "anonymous": false,
      "inputs": [
        {
          "indexed": false,
          "internalType": "address",
          "name": "agentVault",
          "type": "address"
        },
        {
          "indexed": false,
          "internalType": "string",
          "name": "name",
          "type": "string"
        },
        {
          "indexed": false,
          "internalType": "uint256",
          "name": "value",
          "type": "uint256"
        },
        {
          "indexed": false,
          "internalType": "uint256",
          "name": "validAt",
          "type": "uint256"
        }
      ],
      "name": "AgentSettingChangeAnnounced",
      "type": "event"
    },
    {
      "anonymous": false,
      "inputs": [
        {
          "indexed": false,
          "internalType": "address",
          "name": "agentVault",
          "type": "address"
        },
        {
          "indexed": false,
          "internalType": "string",
          "name": "name",
          "type": "string"
        },
        {
          "indexed": false,
          "internalType": "uint256",
          "name": "value",
          "type": "uint256"
        }
      ],
      "name": "AgentSettingChanged",
      "type": "event"
    },
    {
      "anonymous": false,
      "inputs": [
        {
          "indexed": true,
          "internalType": "address",
          "name": "agentVault",
          "type": "address"
        },
        {
          "indexed": false,
          "internalType": "uint256",
          "name": "exitAllowedAt",
          "type": "uint256"
        }
      ],
      "name": "AvailableAgentExitAnnounced",
      "type": "event"
    },
    {
      "anonymous": false,
      "inputs": [
        {
          "indexed": true,
          "internalType": "address",
          "name": "agentVault",
          "type": "address"
        }
      ],
      "name": "AvailableAgentExited",
      "type": "event"
    },
    {
      "anonymous": false,
      "inputs": [
        {
          "indexed": true,
          "internalType": "address",
          "name": "agentVault",
          "type": "address"
        },
        {
          "indexed": false,
          "internalType": "uint256",
          "name": "amountWei",
          "type": "uint256"
        },
        {
          "indexed": false,
          "internalType": "uint256",
          "name": "withdrawalAllowedAt",
          "type": "uint256"
        }
      ],
      "name": "Class1WithdrawalAnnounced",
      "type": "event"
    },
    {
      "anonymous": false,
      "inputs": [
        {
          "indexed": true,
          "internalType": "address",
          "name": "agentVault",
          "type": "address"
        },
        {
          "indexed": true,
          "internalType": "address",
          "name": "minter",
          "type": "address"
        },
        {
          "indexed": false,
          "internalType": "uint256",
          "name": "collateralReservationId",
          "type": "uint256"
        },
        {
          "indexed": false,
          "internalType": "uint256",
          "name": "reservedAmountUBA",
          "type": "uint256"
        }
      ],
      "name": "CollateralReservationDeleted",
      "type": "event"
    },
    {
      "anonymous": false,
      "inputs": [
        {
          "indexed": true,
          "internalType": "address",
          "name": "agentVault",
          "type": "address"
        },
        {
          "indexed": true,
          "internalType": "address",
          "name": "minter",
          "type": "address"
        },
        {
          "indexed": false,
          "internalType": "uint256",
          "name": "collateralReservationId",
          "type": "uint256"
        },
        {
          "indexed": false,
          "internalType": "uint256",
          "name": "valueUBA",
          "type": "uint256"
        },
        {
          "indexed": false,
          "internalType": "uint256",
          "name": "feeUBA",
          "type": "uint256"
        },
        {
          "indexed": false,
          "internalType": "uint256",
          "name": "lastUnderlyingBlock",
          "type": "uint256"
        },
        {
          "indexed": false,
          "internalType": "uint256",
          "name": "lastUnderlyingTimestamp",
          "type": "uint256"
        },
        {
          "indexed": false,
          "internalType": "string",
          "name": "paymentAddress",
          "type": "string"
        },
        {
          "indexed": false,
          "internalType": "bytes32",
          "name": "paymentReference",
          "type": "bytes32"
        }
      ],
      "name": "CollateralReserved",
      "type": "event"
    },
    {
      "anonymous": false,
      "inputs": [
        {
          "indexed": false,
          "internalType": "uint8",
          "name": "tokenClass",
          "type": "uint8"
        },
        {
          "indexed": false,
          "internalType": "address",
          "name": "tokenContract",
          "type": "address"
        },
        {
          "indexed": false,
          "internalType": "string",
          "name": "ftsoSymbol",
          "type": "string"
        },
        {
          "indexed": false,
          "internalType": "uint256",
          "name": "minCollateralRatioBIPS",
          "type": "uint256"
        },
        {
          "indexed": false,
          "internalType": "uint256",
          "name": "ccbMinCollateralRatioBIPS",
          "type": "uint256"
        },
        {
          "indexed": false,
          "internalType": "uint256",
          "name": "safetyMinCollateralRatioBIPS",
          "type": "uint256"
        }
      ],
      "name": "CollateralTokenAdded",
      "type": "event"
    },
    {
      "anonymous": false,
      "inputs": [
        {
          "indexed": false,
          "internalType": "uint8",
          "name": "tokenClass",
          "type": "uint8"
        },
        {
          "indexed": false,
          "internalType": "address",
          "name": "tokenContract",
          "type": "address"
        },
        {
          "indexed": false,
          "internalType": "uint256",
          "name": "validUntil",
          "type": "uint256"
        }
      ],
      "name": "CollateralTokenDeprecated",
      "type": "event"
    },
    {
      "anonymous": false,
      "inputs": [
        {
          "indexed": false,
          "internalType": "uint8",
          "name": "tokenClass",
          "type": "uint8"
        },
        {
          "indexed": false,
          "internalType": "address",
          "name": "tokenContract",
          "type": "address"
        },
        {
          "indexed": false,
          "internalType": "uint256",
          "name": "minCollateralRatioBIPS",
          "type": "uint256"
        },
        {
          "indexed": false,
          "internalType": "uint256",
          "name": "ccbMinCollateralRatioBIPS",
          "type": "uint256"
        },
        {
          "indexed": false,
          "internalType": "uint256",
          "name": "safetyMinCollateralRatioBIPS",
          "type": "uint256"
        }
      ],
      "name": "CollateralTokenRatiosChanged",
      "type": "event"
    },
    {
      "anonymous": false,
      "inputs": [
        {
          "indexed": false,
          "internalType": "string",
          "name": "name",
          "type": "string"
        },
        {
          "indexed": false,
          "internalType": "address",
          "name": "value",
          "type": "address"
        }
      ],
      "name": "ContractChanged",
      "type": "event"
    },
    {
      "anonymous": false,
      "inputs": [
        {
          "indexed": true,
          "internalType": "address",
          "name": "agentVault",
          "type": "address"
        },
        {
          "indexed": false,
          "internalType": "bytes32",
          "name": "transactionHash1",
          "type": "bytes32"
        },
        {
          "indexed": false,
          "internalType": "bytes32",
          "name": "transactionHash2",
          "type": "bytes32"
        }
      ],
      "name": "DuplicatePaymentConfirmed",
      "type": "event"
    },
    {
      "anonymous": false,
      "inputs": [
        {
          "indexed": true,
          "internalType": "address",
          "name": "agentVault",
          "type": "address"
        },
        {
          "indexed": false,
          "internalType": "uint256",
          "name": "dustUBA",
          "type": "uint256"
        }
      ],
      "name": "DustChanged",
      "type": "event"
    },
    {
      "anonymous": false,
      "inputs": [
        {
          "indexed": true,
          "internalType": "address",
          "name": "agentVault",
          "type": "address"
        },
        {
          "indexed": false,
          "internalType": "uint256",
          "name": "redemptionTicketId",
          "type": "uint256"
        },
        {
          "indexed": false,
          "internalType": "uint256",
          "name": "valueUBA",
          "type": "uint256"
        }
      ],
      "name": "DustConvertedToTicket",
      "type": "event"
    },
    {
      "anonymous": false,
      "inputs": [
        {
          "indexed": true,
          "internalType": "address",
          "name": "agentVault",
          "type": "address"
        },
        {
          "indexed": false,
          "internalType": "uint256",
          "name": "timestamp",
          "type": "uint256"
        }
      ],
      "name": "FullLiquidationStarted",
      "type": "event"
    },
    {
      "anonymous": false,
      "inputs": [
        {
          "indexed": true,
          "internalType": "address",
          "name": "agentVault",
          "type": "address"
        },
        {
          "indexed": false,
          "internalType": "bytes32",
          "name": "transactionHash",
          "type": "bytes32"
        }
      ],
      "name": "IllegalPaymentConfirmed",
      "type": "event"
    },
    {
      "anonymous": false,
      "inputs": [
        {
          "indexed": true,
          "internalType": "address",
          "name": "agentVault",
          "type": "address"
        }
      ],
      "name": "LiquidationEnded",
      "type": "event"
    },
    {
      "anonymous": false,
      "inputs": [
        {
          "indexed": true,
          "internalType": "address",
          "name": "agentVault",
          "type": "address"
        },
        {
          "indexed": true,
          "internalType": "address",
          "name": "liquidator",
          "type": "address"
        },
        {
          "indexed": false,
          "internalType": "uint256",
          "name": "valueUBA",
          "type": "uint256"
        }
      ],
      "name": "LiquidationPerformed",
      "type": "event"
    },
    {
      "anonymous": false,
      "inputs": [
        {
          "indexed": true,
          "internalType": "address",
          "name": "agentVault",
          "type": "address"
        },
        {
          "indexed": false,
          "internalType": "uint256",
          "name": "timestamp",
          "type": "uint256"
        }
      ],
      "name": "LiquidationStarted",
      "type": "event"
    },
    {
      "anonymous": false,
      "inputs": [
        {
          "indexed": true,
          "internalType": "address",
          "name": "agentVault",
          "type": "address"
        },
        {
          "indexed": false,
          "internalType": "uint256",
          "name": "collateralReservationId",
          "type": "uint256"
        },
        {
          "indexed": false,
          "internalType": "uint256",
          "name": "redemptionTicketId",
          "type": "uint256"
        },
        {
          "indexed": false,
          "internalType": "uint256",
          "name": "mintedAmountUBA",
          "type": "uint256"
        },
        {
          "indexed": false,
          "internalType": "uint256",
          "name": "agentFeeUBA",
          "type": "uint256"
        },
        {
          "indexed": false,
          "internalType": "uint256",
          "name": "poolFeeUBA",
          "type": "uint256"
        }
      ],
      "name": "MintingExecuted",
      "type": "event"
    },
    {
      "anonymous": false,
      "inputs": [
        {
          "indexed": true,
          "internalType": "address",
          "name": "agentVault",
          "type": "address"
        },
        {
          "indexed": true,
          "internalType": "address",
          "name": "minter",
          "type": "address"
        },
        {
          "indexed": false,
          "internalType": "uint256",
          "name": "collateralReservationId",
          "type": "uint256"
        },
        {
          "indexed": false,
          "internalType": "uint256",
          "name": "reservedAmountUBA",
          "type": "uint256"
        }
      ],
      "name": "MintingPaymentDefault",
      "type": "event"
    },
    {
      "anonymous": false,
      "inputs": [
        {
          "indexed": true,
          "internalType": "address",
          "name": "agentVault",
          "type": "address"
        },
        {
          "indexed": false,
          "internalType": "uint256",
          "name": "amountWei",
          "type": "uint256"
        },
        {
          "indexed": false,
          "internalType": "uint256",
          "name": "withdrawalAllowedAt",
          "type": "uint256"
        }
      ],
      "name": "PoolTokenRedemptionAnnounced",
      "type": "event"
    },
    {
      "anonymous": false,
      "inputs": [
        {
          "indexed": true,
          "internalType": "address",
          "name": "agentVault",
          "type": "address"
        },
        {
          "indexed": true,
          "internalType": "address",
          "name": "redeemer",
          "type": "address"
        },
        {
          "indexed": false,
          "internalType": "uint256",
          "name": "redemptionAmountUBA",
          "type": "uint256"
        },
        {
          "indexed": false,
          "internalType": "uint256",
          "name": "redeemedClass1CollateralWei",
          "type": "uint256"
        },
        {
          "indexed": false,
          "internalType": "uint256",
          "name": "redeemedPoolCollateralWei",
          "type": "uint256"
        },
        {
          "indexed": false,
          "internalType": "uint64",
          "name": "requestId",
          "type": "uint64"
        }
      ],
      "name": "RedemptionDefault",
      "type": "event"
    },
    {
      "anonymous": false,
      "inputs": [
        {
          "indexed": true,
          "internalType": "address",
          "name": "agentVault",
          "type": "address"
        },
        {
          "indexed": false,
          "internalType": "int256",
          "name": "freedUnderlyingBalanceUBA",
          "type": "int256"
        },
        {
          "indexed": false,
          "internalType": "uint64",
          "name": "requestId",
          "type": "uint64"
        }
      ],
      "name": "RedemptionFinished",
      "type": "event"
    },
    {
      "anonymous": false,
      "inputs": [
        {
          "indexed": true,
          "internalType": "address",
          "name": "agentVault",
          "type": "address"
        },
        {
          "indexed": true,
          "internalType": "address",
          "name": "redeemer",
          "type": "address"
        },
        {
          "indexed": false,
          "internalType": "bytes32",
          "name": "transactionHash",
          "type": "bytes32"
        },
        {
          "indexed": false,
          "internalType": "uint256",
          "name": "redemptionAmountUBA",
          "type": "uint256"
        },
        {
          "indexed": false,
          "internalType": "uint64",
          "name": "requestId",
          "type": "uint64"
        }
      ],
      "name": "RedemptionPaymentBlocked",
      "type": "event"
    },
    {
      "anonymous": false,
      "inputs": [
        {
          "indexed": true,
          "internalType": "address",
          "name": "agentVault",
          "type": "address"
        },
        {
          "indexed": true,
          "internalType": "address",
          "name": "redeemer",
          "type": "address"
        },
        {
          "indexed": false,
          "internalType": "bytes32",
          "name": "transactionHash",
          "type": "bytes32"
        },
        {
          "indexed": false,
          "internalType": "uint64",
          "name": "requestId",
          "type": "uint64"
        },
        {
          "indexed": false,
          "internalType": "string",
          "name": "failureReason",
          "type": "string"
        }
      ],
      "name": "RedemptionPaymentFailed",
      "type": "event"
    },
    {
      "anonymous": false,
      "inputs": [
        {
          "indexed": true,
          "internalType": "address",
          "name": "agentVault",
          "type": "address"
        },
        {
          "indexed": true,
          "internalType": "address",
          "name": "redeemer",
          "type": "address"
        },
        {
          "indexed": false,
          "internalType": "bytes32",
          "name": "transactionHash",
          "type": "bytes32"
        },
        {
          "indexed": false,
          "internalType": "uint256",
          "name": "valueUBA",
          "type": "uint256"
        },
        {
          "indexed": false,
          "internalType": "uint64",
          "name": "requestId",
          "type": "uint64"
        }
      ],
      "name": "RedemptionPerformed",
      "type": "event"
    },
    {
      "anonymous": false,
      "inputs": [
        {
          "indexed": true,
          "internalType": "address",
          "name": "redeemer",
          "type": "address"
        },
        {
          "indexed": false,
          "internalType": "uint256",
          "name": "remainingLots",
          "type": "uint256"
        }
      ],
      "name": "RedemptionRequestIncomplete",
      "type": "event"
    },
    {
      "anonymous": false,
      "inputs": [
        {
          "indexed": true,
          "internalType": "address",
          "name": "agentVault",
          "type": "address"
        },
        {
          "indexed": false,
          "internalType": "uint256",
          "name": "requestId",
          "type": "uint256"
        },
        {
          "indexed": false,
          "internalType": "string",
          "name": "paymentAddress",
          "type": "string"
        },
        {
          "indexed": false,
          "internalType": "uint256",
          "name": "valueUBA",
          "type": "uint256"
        },
        {
          "indexed": false,
          "internalType": "uint256",
          "name": "feeUBA",
          "type": "uint256"
        },
        {
          "indexed": false,
          "internalType": "uint256",
          "name": "lastUnderlyingBlock",
          "type": "uint256"
        },
        {
          "indexed": false,
          "internalType": "uint256",
          "name": "lastUnderlyingTimestamp",
          "type": "uint256"
        },
        {
          "indexed": false,
          "internalType": "bytes32",
          "name": "paymentReference",
          "type": "bytes32"
        }
      ],
      "name": "RedemptionRequested",
      "type": "event"
    },
    {
      "anonymous": false,
      "inputs": [
        {
          "indexed": true,
          "internalType": "address",
          "name": "agentVault",
          "type": "address"
        },
        {
          "indexed": false,
          "internalType": "uint256",
          "name": "valueUBA",
          "type": "uint256"
        }
      ],
      "name": "SelfClose",
      "type": "event"
    },
    {
      "anonymous": false,
      "inputs": [
        {
          "indexed": false,
          "internalType": "string",
          "name": "name",
          "type": "string"
        },
        {
          "indexed": false,
          "internalType": "uint256[]",
          "name": "value",
          "type": "uint256[]"
        }
      ],
      "name": "SettingArrayChanged",
      "type": "event"
    },
    {
      "anonymous": false,
      "inputs": [
        {
          "indexed": false,
          "internalType": "string",
          "name": "name",
          "type": "string"
        },
        {
          "indexed": false,
          "internalType": "uint256",
          "name": "value",
          "type": "uint256"
        }
      ],
      "name": "SettingChanged",
      "type": "event"
    },
    {
      "anonymous": false,
      "inputs": [
        {
          "indexed": false,
          "internalType": "address",
          "name": "agentVault",
          "type": "address"
        },
        {
          "indexed": false,
          "internalType": "uint256",
          "name": "freeBalanceChangeUBA",
          "type": "uint256"
        }
      ],
      "name": "UnderlyingBalanceToppedUp",
      "type": "event"
    },
    {
      "anonymous": false,
      "inputs": [
        {
          "indexed": true,
          "internalType": "address",
          "name": "agentVault",
          "type": "address"
        },
        {
          "indexed": false,
          "internalType": "int256",
          "name": "freeBalance",
          "type": "int256"
        }
      ],
      "name": "UnderlyingFreeBalanceNegative",
      "type": "event"
    },
    {
      "anonymous": false,
      "inputs": [
        {
          "indexed": false,
          "internalType": "address",
          "name": "agentVault",
          "type": "address"
        },
        {
          "indexed": false,
          "internalType": "uint64",
          "name": "announcementId",
          "type": "uint64"
        },
        {
          "indexed": false,
          "internalType": "bytes32",
          "name": "paymentReference",
          "type": "bytes32"
        }
      ],
      "name": "UnderlyingWithdrawalAnnounced",
      "type": "event"
    },
    {
      "anonymous": false,
      "inputs": [
        {
          "indexed": false,
          "internalType": "address",
          "name": "agentVault",
          "type": "address"
        },
        {
          "indexed": false,
          "internalType": "uint64",
          "name": "announcementId",
          "type": "uint64"
        }
      ],
      "name": "UnderlyingWithdrawalCancelled",
      "type": "event"
    },
    {
      "anonymous": false,
      "inputs": [
        {
          "indexed": false,
          "internalType": "address",
          "name": "agentVault",
          "type": "address"
        },
        {
          "indexed": false,
          "internalType": "int256",
          "name": "spentUBA",
          "type": "int256"
        },
        {
          "indexed": false,
          "internalType": "bytes32",
          "name": "transactionHash",
          "type": "bytes32"
        },
        {
          "indexed": false,
          "internalType": "uint64",
          "name": "announcementId",
          "type": "uint64"
        }
      ],
      "name": "UnderlyingWithdrawalConfirmed",
      "type": "event"
    },
    {
      "inputs": [
        {
          "components": [
            {
              "internalType": "enum IAssetManager.CollateralTokenClass",
              "name": "tokenClass",
              "type": "uint8"
            },
            {
              "internalType": "contract IERC20",
              "name": "token",
              "type": "address"
            },
            {
              "internalType": "uint256",
              "name": "decimals",
              "type": "uint256"
            },
            {
              "internalType": "uint256",
              "name": "validUntil",
              "type": "uint256"
            },
            {
              "internalType": "string",
              "name": "ftsoSymbol",
              "type": "string"
            },
            {
              "internalType": "uint256",
              "name": "minCollateralRatioBIPS",
              "type": "uint256"
            },
            {
              "internalType": "uint256",
              "name": "ccbMinCollateralRatioBIPS",
              "type": "uint256"
            },
            {
              "internalType": "uint256",
              "name": "safetyMinCollateralRatioBIPS",
              "type": "uint256"
            }
          ],
          "internalType": "struct IAssetManager.CollateralTokenInfo",
          "name": "_data",
          "type": "tuple"
        }
      ],
      "name": "addCollateralToken",
      "outputs": [],
      "stateMutability": "nonpayable",
      "type": "function"
    },
    {
      "inputs": [
        {
          "internalType": "address",
          "name": "_agentVault",
          "type": "address"
        },
        {
          "internalType": "uint256",
          "name": "_valueNATWei",
          "type": "uint256"
        }
      ],
      "name": "announceAgentPoolTokenRedemption",
      "outputs": [],
      "stateMutability": "nonpayable",
      "type": "function"
    },
    {
      "inputs": [
        {
          "internalType": "address",
          "name": "_agentVault",
          "type": "address"
        },
        {
          "internalType": "string",
          "name": "_name",
          "type": "string"
        },
        {
          "internalType": "uint256",
          "name": "_value",
          "type": "uint256"
        }
      ],
      "name": "announceAgentSettingUpdate",
      "outputs": [],
      "stateMutability": "nonpayable",
      "type": "function"
    },
    {
      "inputs": [
        {
          "internalType": "address",
          "name": "_agentVault",
          "type": "address"
        },
        {
          "internalType": "uint256",
          "name": "_valueNATWei",
          "type": "uint256"
        }
      ],
      "name": "announceClass1CollateralWithdrawal",
      "outputs": [],
      "stateMutability": "nonpayable",
      "type": "function"
    },
    {
      "inputs": [
        {
          "internalType": "address",
          "name": "_agentVault",
          "type": "address"
        }
      ],
      "name": "announceDestroyAgent",
      "outputs": [],
      "stateMutability": "nonpayable",
      "type": "function"
    },
    {
      "inputs": [
        {
          "internalType": "address",
          "name": "_agentVault",
          "type": "address"
        }
      ],
      "name": "announceExitAvailableAgentList",
      "outputs": [],
      "stateMutability": "nonpayable",
      "type": "function"
    },
    {
      "inputs": [
        {
          "internalType": "address",
          "name": "_agentVault",
          "type": "address"
        }
      ],
      "name": "announceUnderlyingWithdrawal",
      "outputs": [],
      "stateMutability": "nonpayable",
      "type": "function"
    },
    {
      "inputs": [],
      "name": "assetManagerController",
      "outputs": [
        {
          "internalType": "address",
          "name": "",
          "type": "address"
        }
      ],
      "stateMutability": "view",
      "type": "function"
    },
    {
      "inputs": [],
      "name": "assetPriceNatWei",
      "outputs": [
        {
          "internalType": "uint256",
          "name": "_multiplier",
          "type": "uint256"
        },
        {
          "internalType": "uint256",
          "name": "_divisor",
          "type": "uint256"
        }
      ],
      "stateMutability": "view",
      "type": "function"
    },
    {
      "inputs": [
        {
          "internalType": "bool",
          "name": "attached",
          "type": "bool"
        }
      ],
      "name": "attachController",
      "outputs": [],
      "stateMutability": "nonpayable",
      "type": "function"
    },
    {
      "inputs": [
        {
          "internalType": "address",
          "name": "_agentVault",
          "type": "address"
        }
      ],
      "name": "buybackAgentCollateral",
      "outputs": [],
      "stateMutability": "nonpayable",
      "type": "function"
    },
    {
      "inputs": [
        {
          "internalType": "address",
          "name": "_agentVault",
          "type": "address"
        }
      ],
      "name": "cancelUnderlyingWithdrawal",
      "outputs": [],
      "stateMutability": "nonpayable",
      "type": "function"
    },
    {
      "inputs": [
        {
          "internalType": "contract IERC20",
          "name": "_token",
          "type": "address"
        }
      ],
      "name": "collateralDeposited",
      "outputs": [],
      "stateMutability": "nonpayable",
      "type": "function"
    },
    {
      "inputs": [
        {
          "internalType": "uint256",
          "name": "_lots",
          "type": "uint256"
        }
      ],
      "name": "collateralReservationFee",
      "outputs": [
        {
          "internalType": "uint256",
          "name": "_reservationFeeNATWei",
          "type": "uint256"
        }
      ],
      "stateMutability": "view",
      "type": "function"
    },
    {
      "inputs": [
        {
          "components": [
            {
              "internalType": "uint256",
              "name": "stateConnectorRound",
              "type": "uint256"
            },
            {
              "internalType": "bytes32[]",
              "name": "merkleProof",
              "type": "bytes32[]"
            },
            {
              "internalType": "uint64",
              "name": "blockNumber",
              "type": "uint64"
            },
            {
              "internalType": "uint64",
              "name": "blockTimestamp",
              "type": "uint64"
            },
            {
              "internalType": "bytes32",
              "name": "transactionHash",
              "type": "bytes32"
            },
            {
              "internalType": "uint8",
              "name": "inUtxo",
              "type": "uint8"
            },
            {
              "internalType": "uint8",
              "name": "utxo",
              "type": "uint8"
            },
            {
              "internalType": "bytes32",
              "name": "sourceAddressHash",
              "type": "bytes32"
            },
            {
              "internalType": "bytes32",
              "name": "receivingAddressHash",
              "type": "bytes32"
            },
            {
              "internalType": "int256",
              "name": "spentAmount",
              "type": "int256"
            },
            {
              "internalType": "int256",
              "name": "receivedAmount",
              "type": "int256"
            },
            {
              "internalType": "bytes32",
              "name": "paymentReference",
              "type": "bytes32"
            },
            {
              "internalType": "bool",
              "name": "oneToOne",
              "type": "bool"
            },
            {
              "internalType": "uint8",
              "name": "status",
              "type": "uint8"
            }
          ],
          "internalType": "struct IAttestationClient.Payment",
          "name": "_payment",
          "type": "tuple"
        },
        {
          "internalType": "uint256",
          "name": "_redemptionRequestId",
          "type": "uint256"
        }
      ],
      "name": "confirmRedemptionPayment",
      "outputs": [],
      "stateMutability": "nonpayable",
      "type": "function"
    },
    {
      "inputs": [
        {
          "components": [
            {
              "internalType": "uint256",
              "name": "stateConnectorRound",
              "type": "uint256"
            },
            {
              "internalType": "bytes32[]",
              "name": "merkleProof",
              "type": "bytes32[]"
            },
            {
              "internalType": "uint64",
              "name": "blockNumber",
              "type": "uint64"
            },
            {
              "internalType": "uint64",
              "name": "blockTimestamp",
              "type": "uint64"
            },
            {
              "internalType": "bytes32",
              "name": "transactionHash",
              "type": "bytes32"
            },
            {
              "internalType": "uint8",
              "name": "inUtxo",
              "type": "uint8"
            },
            {
              "internalType": "uint8",
              "name": "utxo",
              "type": "uint8"
            },
            {
              "internalType": "bytes32",
              "name": "sourceAddressHash",
              "type": "bytes32"
            },
            {
              "internalType": "bytes32",
              "name": "receivingAddressHash",
              "type": "bytes32"
            },
            {
              "internalType": "int256",
              "name": "spentAmount",
              "type": "int256"
            },
            {
              "internalType": "int256",
              "name": "receivedAmount",
              "type": "int256"
            },
            {
              "internalType": "bytes32",
              "name": "paymentReference",
              "type": "bytes32"
            },
            {
              "internalType": "bool",
              "name": "oneToOne",
              "type": "bool"
            },
            {
              "internalType": "uint8",
              "name": "status",
              "type": "uint8"
            }
          ],
          "internalType": "struct IAttestationClient.Payment",
          "name": "_payment",
          "type": "tuple"
        },
        {
          "internalType": "address",
          "name": "_agentVault",
          "type": "address"
        }
      ],
      "name": "confirmTopupPayment",
      "outputs": [],
      "stateMutability": "nonpayable",
      "type": "function"
    },
    {
      "inputs": [
        {
          "components": [
            {
              "internalType": "uint256",
              "name": "stateConnectorRound",
              "type": "uint256"
            },
            {
              "internalType": "bytes32[]",
              "name": "merkleProof",
              "type": "bytes32[]"
            },
            {
              "internalType": "uint64",
              "name": "blockNumber",
              "type": "uint64"
            },
            {
              "internalType": "uint64",
              "name": "blockTimestamp",
              "type": "uint64"
            },
            {
              "internalType": "bytes32",
              "name": "transactionHash",
              "type": "bytes32"
            },
            {
              "internalType": "uint8",
              "name": "inUtxo",
              "type": "uint8"
            },
            {
              "internalType": "uint8",
              "name": "utxo",
              "type": "uint8"
            },
            {
              "internalType": "bytes32",
              "name": "sourceAddressHash",
              "type": "bytes32"
            },
            {
              "internalType": "bytes32",
              "name": "receivingAddressHash",
              "type": "bytes32"
            },
            {
              "internalType": "int256",
              "name": "spentAmount",
              "type": "int256"
            },
            {
              "internalType": "int256",
              "name": "receivedAmount",
              "type": "int256"
            },
            {
              "internalType": "bytes32",
              "name": "paymentReference",
              "type": "bytes32"
            },
            {
              "internalType": "bool",
              "name": "oneToOne",
              "type": "bool"
            },
            {
              "internalType": "uint8",
              "name": "status",
              "type": "uint8"
            }
          ],
          "internalType": "struct IAttestationClient.Payment",
          "name": "_payment",
          "type": "tuple"
        },
        {
          "internalType": "address",
          "name": "_agentVault",
          "type": "address"
        }
      ],
      "name": "confirmUnderlyingWithdrawal",
      "outputs": [],
      "stateMutability": "nonpayable",
      "type": "function"
    },
    {
      "inputs": [],
      "name": "controllerAttached",
      "outputs": [
        {
          "internalType": "bool",
          "name": "",
          "type": "bool"
        }
      ],
      "stateMutability": "view",
      "type": "function"
    },
    {
      "inputs": [
        {
          "internalType": "address",
          "name": "_agentVault",
          "type": "address"
        }
      ],
      "name": "convertDustToTicket",
      "outputs": [],
      "stateMutability": "nonpayable",
      "type": "function"
    },
    {
      "inputs": [
        {
          "components": [
            {
              "internalType": "string",
              "name": "underlyingAddressString",
              "type": "string"
            },
            {
              "internalType": "contract IERC20",
              "name": "class1CollateralToken",
              "type": "address"
            },
            {
              "internalType": "uint256",
              "name": "feeBIPS",
              "type": "uint256"
            },
            {
              "internalType": "uint256",
              "name": "poolFeeShareBIPS",
              "type": "uint256"
            },
            {
              "internalType": "uint256",
              "name": "mintingClass1CollateralRatioBIPS",
              "type": "uint256"
            },
            {
              "internalType": "uint256",
              "name": "mintingPoolCollateralRatioBIPS",
              "type": "uint256"
            },
            {
              "internalType": "uint256",
              "name": "buyFAssetByAgentFactorBIPS",
              "type": "uint256"
            },
            {
              "internalType": "uint256",
              "name": "poolExitCollateralRatioBIPS",
              "type": "uint256"
            },
            {
              "internalType": "uint256",
              "name": "poolTopupCollateralRatioBIPS",
              "type": "uint256"
            },
            {
              "internalType": "uint256",
              "name": "poolTopupTokenPriceFactorBIPS",
              "type": "uint256"
            }
          ],
          "internalType": "struct IAssetManager.InitialAgentSettings",
          "name": "_settings",
          "type": "tuple"
        }
      ],
      "name": "createAgent",
      "outputs": [],
      "stateMutability": "nonpayable",
      "type": "function"
    },
    {
      "inputs": [],
      "name": "currentUnderlyingBlock",
      "outputs": [
        {
          "internalType": "uint256",
          "name": "_blockNumber",
          "type": "uint256"
        },
        {
          "internalType": "uint256",
          "name": "_blockTimestamp",
          "type": "uint256"
        }
      ],
      "stateMutability": "view",
      "type": "function"
    },
    {
      "inputs": [
        {
          "internalType": "enum IAssetManager.CollateralTokenClass",
          "name": "_tokenClass",
          "type": "uint8"
        },
        {
          "internalType": "contract IERC20",
          "name": "_token",
          "type": "address"
        },
        {
          "internalType": "uint256",
          "name": "_invalidationTimeSec",
          "type": "uint256"
        }
      ],
      "name": "deprecateCollateralToken",
      "outputs": [],
      "stateMutability": "nonpayable",
      "type": "function"
    },
    {
      "inputs": [
        {
          "internalType": "address",
          "name": "_agentVault",
          "type": "address"
        }
      ],
      "name": "destroyAgent",
      "outputs": [],
      "stateMutability": "nonpayable",
      "type": "function"
    },
    {
      "inputs": [
        {
          "components": [
            {
              "internalType": "uint256",
              "name": "stateConnectorRound",
              "type": "uint256"
            },
            {
              "internalType": "bytes32[]",
              "name": "merkleProof",
              "type": "bytes32[]"
            },
            {
              "internalType": "uint64",
              "name": "blockNumber",
              "type": "uint64"
            },
            {
              "internalType": "uint64",
              "name": "blockTimestamp",
              "type": "uint64"
            },
            {
              "internalType": "bytes32",
              "name": "transactionHash",
              "type": "bytes32"
            },
            {
              "internalType": "uint8",
              "name": "inUtxo",
              "type": "uint8"
            },
            {
              "internalType": "bytes32",
              "name": "sourceAddressHash",
              "type": "bytes32"
            },
            {
              "internalType": "int256",
              "name": "spentAmount",
              "type": "int256"
            },
            {
              "internalType": "bytes32",
              "name": "paymentReference",
              "type": "bytes32"
            }
          ],
          "internalType": "struct IAttestationClient.BalanceDecreasingTransaction",
          "name": "_payment1",
          "type": "tuple"
        },
        {
          "components": [
            {
              "internalType": "uint256",
              "name": "stateConnectorRound",
              "type": "uint256"
            },
            {
              "internalType": "bytes32[]",
              "name": "merkleProof",
              "type": "bytes32[]"
            },
            {
              "internalType": "uint64",
              "name": "blockNumber",
              "type": "uint64"
            },
            {
              "internalType": "uint64",
              "name": "blockTimestamp",
              "type": "uint64"
            },
            {
              "internalType": "bytes32",
              "name": "transactionHash",
              "type": "bytes32"
            },
            {
              "internalType": "uint8",
              "name": "inUtxo",
              "type": "uint8"
            },
            {
              "internalType": "bytes32",
              "name": "sourceAddressHash",
              "type": "bytes32"
            },
            {
              "internalType": "int256",
              "name": "spentAmount",
              "type": "int256"
            },
            {
              "internalType": "bytes32",
              "name": "paymentReference",
              "type": "bytes32"
            }
          ],
          "internalType": "struct IAttestationClient.BalanceDecreasingTransaction",
          "name": "_payment2",
          "type": "tuple"
        },
        {
          "internalType": "address",
          "name": "_agentVault",
          "type": "address"
        }
      ],
      "name": "doublePaymentChallenge",
      "outputs": [],
      "stateMutability": "nonpayable",
      "type": "function"
    },
    {
      "inputs": [
        {
          "internalType": "address",
          "name": "_agentVault",
          "type": "address"
        }
      ],
      "name": "endLiquidation",
      "outputs": [],
      "stateMutability": "nonpayable",
      "type": "function"
    },
    {
      "inputs": [
        {
          "internalType": "address",
          "name": "_agentVault",
          "type": "address"
        },
        {
          "internalType": "string",
          "name": "_name",
          "type": "string"
        }
      ],
      "name": "executeAgentSettingUpdate",
      "outputs": [],
      "stateMutability": "nonpayable",
      "type": "function"
    },
    {
      "inputs": [
        {
          "components": [
            {
              "internalType": "uint256",
              "name": "stateConnectorRound",
              "type": "uint256"
            },
            {
              "internalType": "bytes32[]",
              "name": "merkleProof",
              "type": "bytes32[]"
            },
            {
              "internalType": "uint64",
              "name": "blockNumber",
              "type": "uint64"
            },
            {
              "internalType": "uint64",
              "name": "blockTimestamp",
              "type": "uint64"
            },
            {
              "internalType": "bytes32",
              "name": "transactionHash",
              "type": "bytes32"
            },
            {
              "internalType": "uint8",
              "name": "inUtxo",
              "type": "uint8"
            },
            {
              "internalType": "uint8",
              "name": "utxo",
              "type": "uint8"
            },
            {
              "internalType": "bytes32",
              "name": "sourceAddressHash",
              "type": "bytes32"
            },
            {
              "internalType": "bytes32",
              "name": "receivingAddressHash",
              "type": "bytes32"
            },
            {
              "internalType": "int256",
              "name": "spentAmount",
              "type": "int256"
            },
            {
              "internalType": "int256",
              "name": "receivedAmount",
              "type": "int256"
            },
            {
              "internalType": "bytes32",
              "name": "paymentReference",
              "type": "bytes32"
            },
            {
              "internalType": "bool",
              "name": "oneToOne",
              "type": "bool"
            },
            {
              "internalType": "uint8",
              "name": "status",
              "type": "uint8"
            }
          ],
          "internalType": "struct IAttestationClient.Payment",
          "name": "_payment",
          "type": "tuple"
        },
        {
          "internalType": "uint256",
          "name": "_collateralReservationId",
          "type": "uint256"
        }
      ],
      "name": "executeMinting",
      "outputs": [],
      "stateMutability": "nonpayable",
      "type": "function"
    },
    {
      "inputs": [
        {
          "internalType": "address",
          "name": "_agentVault",
          "type": "address"
        }
      ],
      "name": "exitAvailableAgentList",
      "outputs": [],
      "stateMutability": "nonpayable",
      "type": "function"
    },
    {
      "inputs": [],
      "name": "fAsset",
      "outputs": [
        {
          "internalType": "contract IERC20",
          "name": "",
          "type": "address"
        }
      ],
      "stateMutability": "view",
      "type": "function"
    },
    {
      "inputs": [
        {
          "components": [
            {
              "internalType": "uint256",
              "name": "stateConnectorRound",
              "type": "uint256"
            },
            {
              "internalType": "bytes32[]",
              "name": "merkleProof",
              "type": "bytes32[]"
            },
            {
              "internalType": "uint64",
              "name": "blockNumber",
              "type": "uint64"
            },
            {
              "internalType": "uint64",
              "name": "blockTimestamp",
              "type": "uint64"
            },
            {
              "internalType": "uint8",
              "name": "numberOfConfirmations",
              "type": "uint8"
            },
            {
              "internalType": "uint64",
              "name": "averageBlockProductionTimeMs",
              "type": "uint64"
            },
            {
              "internalType": "uint64",
              "name": "lowestQueryWindowBlockNumber",
              "type": "uint64"
            },
            {
              "internalType": "uint64",
              "name": "lowestQueryWindowBlockTimestamp",
              "type": "uint64"
            }
          ],
          "internalType": "struct IAttestationClient.ConfirmedBlockHeightExists",
          "name": "_proof",
          "type": "tuple"
        },
        {
          "internalType": "uint256",
          "name": "_redemptionRequestId",
          "type": "uint256"
        }
      ],
      "name": "finishRedemptionWithoutPayment",
      "outputs": [],
      "stateMutability": "nonpayable",
      "type": "function"
    },
    {
      "inputs": [
        {
          "components": [
            {
              "internalType": "uint256",
              "name": "stateConnectorRound",
              "type": "uint256"
            },
            {
              "internalType": "bytes32[]",
              "name": "merkleProof",
              "type": "bytes32[]"
            },
            {
              "internalType": "uint64",
              "name": "blockNumber",
              "type": "uint64"
            },
            {
              "internalType": "uint64",
              "name": "blockTimestamp",
              "type": "uint64"
            },
            {
              "internalType": "bytes32",
              "name": "transactionHash",
              "type": "bytes32"
            },
            {
              "internalType": "uint8",
              "name": "inUtxo",
              "type": "uint8"
            },
            {
              "internalType": "bytes32",
              "name": "sourceAddressHash",
              "type": "bytes32"
            },
            {
              "internalType": "int256",
              "name": "spentAmount",
              "type": "int256"
            },
            {
              "internalType": "bytes32",
              "name": "paymentReference",
              "type": "bytes32"
            }
          ],
          "internalType": "struct IAttestationClient.BalanceDecreasingTransaction[]",
          "name": "_payments",
          "type": "tuple[]"
        },
        {
          "internalType": "address",
          "name": "_agentVault",
          "type": "address"
        }
      ],
      "name": "freeBalanceNegativeChallenge",
      "outputs": [],
      "stateMutability": "nonpayable",
      "type": "function"
    },
    {
      "inputs": [
        {
          "internalType": "address",
          "name": "_agentVault",
          "type": "address"
        }
      ],
      "name": "getAgentInfo",
      "outputs": [
        {
          "components": [
            {
              "internalType": "enum FullAgentInfo.AgentStatusInfo",
              "name": "status",
              "type": "uint8"
            },
            {
              "internalType": "address",
              "name": "ownerAddress",
              "type": "address"
            },
            {
              "internalType": "address",
              "name": "collateralPool",
              "type": "address"
            },
            {
              "internalType": "string",
              "name": "underlyingAddressString",
              "type": "string"
            },
            {
              "internalType": "bool",
              "name": "publiclyAvailable",
              "type": "bool"
            },
            {
              "internalType": "uint256",
              "name": "feeBIPS",
              "type": "uint256"
            },
            {
              "internalType": "uint256",
              "name": "poolFeeShareBIPS",
              "type": "uint256"
            },
            {
              "internalType": "contract IERC20",
              "name": "class1CollateralToken",
              "type": "address"
            },
            {
              "internalType": "uint256",
              "name": "mintingClass1CollateralRatioBIPS",
              "type": "uint256"
            },
            {
              "internalType": "uint256",
              "name": "mintingPoolCollateralRatioBIPS",
              "type": "uint256"
            },
            {
              "internalType": "uint256",
              "name": "freeCollateralLots",
              "type": "uint256"
            },
            {
              "internalType": "uint256",
              "name": "totalClass1CollateralWei",
              "type": "uint256"
            },
            {
              "internalType": "uint256",
              "name": "freeClass1CollateralWei",
              "type": "uint256"
            },
            {
              "internalType": "uint256",
              "name": "class1CollateralRatioBIPS",
              "type": "uint256"
            },
            {
              "internalType": "uint256",
              "name": "totalPoolCollateralNATWei",
              "type": "uint256"
            },
            {
              "internalType": "uint256",
              "name": "freePoolCollateralNATWei",
              "type": "uint256"
            },
            {
              "internalType": "uint256",
              "name": "poolCollateralRatioBIPS",
              "type": "uint256"
            },
            {
              "internalType": "uint256",
              "name": "totalAgentPoolTokensWei",
              "type": "uint256"
            },
            {
              "internalType": "uint256",
              "name": "freeAgentPoolTokensWei",
              "type": "uint256"
            },
            {
              "internalType": "uint256",
              "name": "mintedUBA",
              "type": "uint256"
            },
            {
              "internalType": "uint256",
              "name": "reservedUBA",
              "type": "uint256"
            },
            {
              "internalType": "uint256",
              "name": "redeemingUBA",
              "type": "uint256"
            },
            {
              "internalType": "uint256",
              "name": "poolRedeemingUBA",
              "type": "uint256"
            },
            {
              "internalType": "uint256",
              "name": "dustUBA",
              "type": "uint256"
            },
            {
              "internalType": "uint256",
              "name": "ccbStartTimestamp",
              "type": "uint256"
            },
            {
              "internalType": "uint256",
              "name": "liquidationStartTimestamp",
              "type": "uint256"
            },
            {
              "internalType": "int256",
              "name": "freeUnderlyingBalanceUBA",
              "type": "int256"
            },
            {
              "internalType": "uint256",
              "name": "announcedUnderlyingWithdrawalId",
              "type": "uint256"
            },
            {
              "internalType": "uint256",
              "name": "buyFAssetByAgentFactorBIPS",
              "type": "uint256"
            },
            {
              "internalType": "uint256",
              "name": "poolExitCollateralRatioBIPS",
              "type": "uint256"
            },
            {
              "internalType": "uint256",
              "name": "poolTopupCollateralRatioBIPS",
              "type": "uint256"
            },
            {
              "internalType": "uint256",
              "name": "poolTopupTokenPriceFactorBIPS",
              "type": "uint256"
            }
          ],
          "internalType": "struct FullAgentInfo.AgentInfo",
          "name": "",
          "type": "tuple"
        }
      ],
      "stateMutability": "view",
      "type": "function"
    },
    {
      "inputs": [
        {
          "internalType": "uint256",
          "name": "_start",
          "type": "uint256"
        },
        {
          "internalType": "uint256",
          "name": "_end",
          "type": "uint256"
        }
      ],
      "name": "getAvailableAgentsDetailedList",
      "outputs": [
        {
          "components": [
            {
              "internalType": "address",
              "name": "agentVault",
              "type": "address"
            },
            {
              "internalType": "uint256",
              "name": "feeBIPS",
              "type": "uint256"
            },
            {
              "internalType": "uint256",
              "name": "mintingClass1CollateralRatioBIPS",
              "type": "uint256"
            },
            {
              "internalType": "uint256",
              "name": "mintingPoolCollateralRatioBIPS",
              "type": "uint256"
            },
            {
              "internalType": "uint256",
              "name": "freeCollateralLots",
              "type": "uint256"
            }
          ],
          "internalType": "struct AvailableAgents.AgentInfo[]",
          "name": "_agents",
          "type": "tuple[]"
        },
        {
          "internalType": "uint256",
          "name": "_totalLength",
          "type": "uint256"
        }
      ],
      "stateMutability": "view",
      "type": "function"
    },
    {
      "inputs": [
        {
          "internalType": "uint256",
          "name": "_start",
          "type": "uint256"
        },
        {
          "internalType": "uint256",
          "name": "_end",
          "type": "uint256"
        }
      ],
      "name": "getAvailableAgentsList",
      "outputs": [
        {
          "internalType": "address[]",
          "name": "_agents",
          "type": "address[]"
        },
        {
          "internalType": "uint256",
          "name": "_totalLength",
          "type": "uint256"
        }
      ],
      "stateMutability": "view",
      "type": "function"
    },
    {
      "inputs": [
        {
          "internalType": "address",
          "name": "_agentVault",
          "type": "address"
        }
      ],
      "name": "getCollateralPool",
      "outputs": [
        {
          "internalType": "address",
          "name": "",
          "type": "address"
        }
      ],
      "stateMutability": "view",
      "type": "function"
    },
    {
      "inputs": [
        {
          "internalType": "enum IAssetManager.CollateralTokenClass",
          "name": "_tokenClass",
          "type": "uint8"
        },
        {
          "internalType": "contract IERC20",
          "name": "_token",
          "type": "address"
        }
      ],
      "name": "getCollateralToken",
      "outputs": [
        {
          "components": [
            {
              "internalType": "enum IAssetManager.CollateralTokenClass",
              "name": "tokenClass",
              "type": "uint8"
            },
            {
              "internalType": "contract IERC20",
              "name": "token",
              "type": "address"
            },
            {
              "internalType": "uint256",
              "name": "decimals",
              "type": "uint256"
            },
            {
              "internalType": "uint256",
              "name": "validUntil",
              "type": "uint256"
            },
            {
              "internalType": "string",
              "name": "ftsoSymbol",
              "type": "string"
            },
            {
              "internalType": "uint256",
              "name": "minCollateralRatioBIPS",
              "type": "uint256"
            },
            {
              "internalType": "uint256",
              "name": "ccbMinCollateralRatioBIPS",
              "type": "uint256"
            },
            {
              "internalType": "uint256",
              "name": "safetyMinCollateralRatioBIPS",
              "type": "uint256"
            }
          ],
          "internalType": "struct IAssetManager.CollateralTokenInfo",
          "name": "",
          "type": "tuple"
        }
      ],
      "stateMutability": "view",
      "type": "function"
    },
    {
      "inputs": [],
      "name": "getCollateralTokens",
      "outputs": [
        {
          "components": [
            {
              "internalType": "enum IAssetManager.CollateralTokenClass",
              "name": "tokenClass",
              "type": "uint8"
            },
            {
              "internalType": "contract IERC20",
              "name": "token",
              "type": "address"
            },
            {
              "internalType": "uint256",
              "name": "decimals",
              "type": "uint256"
            },
            {
              "internalType": "uint256",
              "name": "validUntil",
              "type": "uint256"
            },
            {
              "internalType": "string",
              "name": "ftsoSymbol",
              "type": "string"
            },
            {
              "internalType": "uint256",
              "name": "minCollateralRatioBIPS",
              "type": "uint256"
            },
            {
              "internalType": "uint256",
              "name": "ccbMinCollateralRatioBIPS",
              "type": "uint256"
            },
            {
              "internalType": "uint256",
              "name": "safetyMinCollateralRatioBIPS",
              "type": "uint256"
            }
          ],
          "internalType": "struct IAssetManager.CollateralTokenInfo[]",
          "name": "",
          "type": "tuple[]"
        }
      ],
      "stateMutability": "view",
      "type": "function"
    },
    {
      "inputs": [
        {
          "internalType": "address",
          "name": "_agentVault",
          "type": "address"
        }
      ],
      "name": "getFAssetsBackedByPool",
      "outputs": [
        {
          "internalType": "uint256",
          "name": "",
          "type": "uint256"
        }
      ],
      "stateMutability": "view",
      "type": "function"
    },
    {
      "inputs": [],
      "name": "getLotSize",
      "outputs": [
        {
          "internalType": "uint256",
          "name": "_lotSizeUBA",
          "type": "uint256"
        }
      ],
      "stateMutability": "view",
      "type": "function"
    },
    {
      "inputs": [],
      "name": "getSettings",
      "outputs": [
        {
          "components": [
            {
              "internalType": "address",
              "name": "assetManagerController",
              "type": "address"
            },
            {
              "internalType": "contract IFAsset",
              "name": "fAsset",
              "type": "address"
            },
            {
              "internalType": "contract IAgentVaultFactory",
              "name": "agentVaultFactory",
              "type": "address"
            },
            {
              "internalType": "contract ICollateralPoolFactory",
              "name": "collateralPoolFactory",
              "type": "address"
            },
            {
              "internalType": "contract IWhitelist",
              "name": "whitelist",
              "type": "address"
            },
            {
              "internalType": "contract IWhitelist",
              "name": "agentWhitelist",
              "type": "address"
            },
            {
              "internalType": "contract IAttestationClient",
              "name": "attestationClient",
              "type": "address"
            },
            {
              "internalType": "contract IAddressValidator",
              "name": "underlyingAddressValidator",
              "type": "address"
            },
            {
              "internalType": "address",
              "name": "liquidationStrategy",
              "type": "address"
            },
            {
              "internalType": "contract IFtsoRegistry",
              "name": "ftsoRegistry",
              "type": "address"
            },
            {
              "internalType": "uint32",
              "name": "assetFtsoIndex",
              "type": "uint32"
            },
            {
              "internalType": "uint8",
              "name": "assetDecimals",
              "type": "uint8"
            },
            {
              "internalType": "uint8",
              "name": "assetMintingDecimals",
              "type": "uint8"
            },
            {
              "internalType": "uint32",
              "name": "mintingPoolHoldingsRequiredBIPS",
              "type": "uint32"
            },
            {
              "internalType": "string",
              "name": "assetFtsoSymbol",
              "type": "string"
            },
            {
              "internalType": "address payable",
              "name": "burnAddress",
              "type": "address"
            },
            {
              "internalType": "bool",
              "name": "burnWithSelfDestruct",
              "type": "bool"
            },
            {
              "internalType": "uint32",
              "name": "chainId",
              "type": "uint32"
            },
            {
              "internalType": "uint16",
              "name": "collateralReservationFeeBIPS",
              "type": "uint16"
            },
            {
              "internalType": "uint64",
              "name": "assetUnitUBA",
              "type": "uint64"
            },
            {
              "internalType": "uint64",
              "name": "assetMintingGranularityUBA",
              "type": "uint64"
            },
            {
              "internalType": "uint64",
              "name": "lotSizeAMG",
              "type": "uint64"
            },
            {
              "internalType": "uint64",
              "name": "mintingCapAMG",
              "type": "uint64"
            },
            {
              "internalType": "uint64",
              "name": "maxTrustedPriceAgeSeconds",
              "type": "uint64"
            },
            {
              "internalType": "bool",
              "name": "requireEOAAddressProof",
              "type": "bool"
            },
            {
              "internalType": "uint64",
              "name": "underlyingBlocksForPayment",
              "type": "uint64"
            },
            {
              "internalType": "uint64",
              "name": "underlyingSecondsForPayment",
              "type": "uint64"
            },
            {
              "internalType": "uint16",
              "name": "redemptionFeeBIPS",
              "type": "uint16"
            },
            {
              "internalType": "uint32",
              "name": "redemptionDefaultFactorAgentC1BIPS",
              "type": "uint32"
            },
            {
              "internalType": "uint32",
              "name": "redemptionDefaultFactorPoolBIPS",
              "type": "uint32"
            },
            {
              "internalType": "uint64",
              "name": "confirmationByOthersAfterSeconds",
              "type": "uint64"
            },
            {
              "internalType": "uint128",
              "name": "confirmationByOthersRewardUSD5",
              "type": "uint128"
            },
            {
              "internalType": "uint16",
              "name": "maxRedeemedTickets",
              "type": "uint16"
            },
            {
              "internalType": "uint16",
              "name": "paymentChallengeRewardBIPS",
              "type": "uint16"
            },
            {
              "internalType": "uint128",
              "name": "paymentChallengeRewardUSD5",
              "type": "uint128"
            },
            {
              "internalType": "uint64",
              "name": "withdrawalWaitMinSeconds",
              "type": "uint64"
            },
            {
              "internalType": "uint64",
              "name": "ccbTimeSeconds",
              "type": "uint64"
            },
            {
              "internalType": "uint64",
              "name": "attestationWindowSeconds",
              "type": "uint64"
            },
            {
              "internalType": "uint64",
              "name": "minUpdateRepeatTimeSeconds",
              "type": "uint64"
            },
            {
              "internalType": "uint64",
              "name": "buybackCollateralFactorBIPS",
              "type": "uint64"
            },
            {
              "internalType": "uint64",
              "name": "announcedUnderlyingConfirmationMinSeconds",
              "type": "uint64"
            },
            {
              "internalType": "uint64",
              "name": "tokenInvalidationTimeMinSeconds",
              "type": "uint64"
            },
            {
              "internalType": "uint32",
              "name": "class1BuyForFlareFactorBIPS",
              "type": "uint32"
            },
            {
              "internalType": "uint64",
              "name": "agentExitAvailableTimelockSeconds",
              "type": "uint64"
            },
            {
              "internalType": "uint64",
              "name": "agentFeeChangeTimelockSeconds",
              "type": "uint64"
            },
            {
              "internalType": "uint64",
              "name": "agentCollateralRatioChangeTimelockSeconds",
              "type": "uint64"
            }
          ],
          "internalType": "struct AssetManagerSettings.Data",
          "name": "",
          "type": "tuple"
        }
      ],
      "stateMutability": "view",
      "type": "function"
    },
    {
      "inputs": [],
      "name": "getWNat",
      "outputs": [
        {
          "internalType": "contract IWNat",
          "name": "",
          "type": "address"
        }
      ],
      "stateMutability": "view",
      "type": "function"
    },
    {
      "inputs": [
        {
          "components": [
            {
              "internalType": "uint256",
              "name": "stateConnectorRound",
              "type": "uint256"
            },
            {
              "internalType": "bytes32[]",
              "name": "merkleProof",
              "type": "bytes32[]"
            },
            {
              "internalType": "uint64",
              "name": "blockNumber",
              "type": "uint64"
            },
            {
              "internalType": "uint64",
              "name": "blockTimestamp",
              "type": "uint64"
            },
            {
              "internalType": "bytes32",
              "name": "transactionHash",
              "type": "bytes32"
            },
            {
              "internalType": "uint8",
              "name": "inUtxo",
              "type": "uint8"
            },
            {
              "internalType": "bytes32",
              "name": "sourceAddressHash",
              "type": "bytes32"
            },
            {
              "internalType": "int256",
              "name": "spentAmount",
              "type": "int256"
            },
            {
              "internalType": "bytes32",
              "name": "paymentReference",
              "type": "bytes32"
            }
          ],
          "internalType": "struct IAttestationClient.BalanceDecreasingTransaction",
          "name": "_transaction",
          "type": "tuple"
        },
        {
          "internalType": "address",
          "name": "_agentVault",
          "type": "address"
        }
      ],
      "name": "illegalPaymentChallenge",
      "outputs": [],
      "stateMutability": "nonpayable",
      "type": "function"
    },
    {
      "inputs": [
        {
          "internalType": "address",
          "name": "_agentVault",
          "type": "address"
        },
        {
          "internalType": "contract IERC20",
          "name": "_token",
          "type": "address"
        }
      ],
      "name": "isCollateralToken",
      "outputs": [
        {
          "internalType": "bool",
          "name": "",
          "type": "bool"
        }
      ],
      "stateMutability": "view",
      "type": "function"
    },
    {
      "inputs": [
        {
          "internalType": "address",
          "name": "_agentVault",
          "type": "address"
        },
        {
          "internalType": "uint256",
          "name": "_amountUBA",
          "type": "uint256"
        }
      ],
      "name": "liquidate",
      "outputs": [
        {
          "internalType": "uint256",
          "name": "_liquidatedAmountUBA",
          "type": "uint256"
        },
        {
          "internalType": "uint256",
          "name": "_amountPaidClass1",
          "type": "uint256"
        },
        {
          "internalType": "uint256",
          "name": "_amountPaidPool",
          "type": "uint256"
        }
      ],
      "stateMutability": "nonpayable",
      "type": "function"
    },
    {
      "inputs": [
        {
          "internalType": "address",
          "name": "_agentVault",
          "type": "address"
        }
      ],
      "name": "makeAgentAvailable",
      "outputs": [],
      "stateMutability": "nonpayable",
      "type": "function"
    },
    {
      "inputs": [
        {
          "components": [
            {
              "internalType": "uint256",
              "name": "stateConnectorRound",
              "type": "uint256"
            },
            {
              "internalType": "bytes32[]",
              "name": "merkleProof",
              "type": "bytes32[]"
            },
            {
              "internalType": "uint64",
              "name": "deadlineBlockNumber",
              "type": "uint64"
            },
            {
              "internalType": "uint64",
              "name": "deadlineTimestamp",
              "type": "uint64"
            },
            {
              "internalType": "bytes32",
              "name": "destinationAddressHash",
              "type": "bytes32"
            },
            {
              "internalType": "bytes32",
              "name": "paymentReference",
              "type": "bytes32"
            },
            {
              "internalType": "uint128",
              "name": "amount",
              "type": "uint128"
            },
            {
              "internalType": "uint64",
              "name": "lowerBoundaryBlockNumber",
              "type": "uint64"
            },
            {
              "internalType": "uint64",
              "name": "lowerBoundaryBlockTimestamp",
              "type": "uint64"
            },
            {
              "internalType": "uint64",
              "name": "firstOverflowBlockNumber",
              "type": "uint64"
            },
            {
              "internalType": "uint64",
              "name": "firstOverflowBlockTimestamp",
              "type": "uint64"
            }
          ],
          "internalType": "struct IAttestationClient.ReferencedPaymentNonexistence",
          "name": "_proof",
          "type": "tuple"
        },
        {
          "internalType": "uint256",
          "name": "_collateralReservationId",
          "type": "uint256"
        }
      ],
      "name": "mintingPaymentDefault",
      "outputs": [],
      "stateMutability": "nonpayable",
      "type": "function"
    },
    {
      "inputs": [],
      "name": "pause",
      "outputs": [],
      "stateMutability": "nonpayable",
      "type": "function"
    },
    {
      "inputs": [],
      "name": "paused",
      "outputs": [
        {
          "internalType": "bool",
          "name": "",
          "type": "bool"
        }
      ],
      "stateMutability": "view",
      "type": "function"
    },
    {
      "inputs": [
        {
          "components": [
            {
              "internalType": "uint256",
              "name": "stateConnectorRound",
              "type": "uint256"
            },
            {
              "internalType": "bytes32[]",
              "name": "merkleProof",
              "type": "bytes32[]"
            },
            {
              "internalType": "uint64",
              "name": "blockNumber",
              "type": "uint64"
            },
            {
              "internalType": "uint64",
              "name": "blockTimestamp",
              "type": "uint64"
            },
            {
              "internalType": "bytes32",
              "name": "transactionHash",
              "type": "bytes32"
            },
            {
              "internalType": "uint8",
              "name": "inUtxo",
              "type": "uint8"
            },
            {
              "internalType": "uint8",
              "name": "utxo",
              "type": "uint8"
            },
            {
              "internalType": "bytes32",
              "name": "sourceAddressHash",
              "type": "bytes32"
            },
            {
              "internalType": "bytes32",
              "name": "receivingAddressHash",
              "type": "bytes32"
            },
            {
              "internalType": "int256",
              "name": "spentAmount",
              "type": "int256"
            },
            {
              "internalType": "int256",
              "name": "receivedAmount",
              "type": "int256"
            },
            {
              "internalType": "bytes32",
              "name": "paymentReference",
              "type": "bytes32"
            },
            {
              "internalType": "bool",
              "name": "oneToOne",
              "type": "bool"
            },
            {
              "internalType": "uint8",
              "name": "status",
              "type": "uint8"
            }
          ],
          "internalType": "struct IAttestationClient.Payment",
          "name": "_payment",
          "type": "tuple"
        }
      ],
      "name": "proveUnderlyingAddressEOA",
      "outputs": [],
      "stateMutability": "nonpayable",
      "type": "function"
    },
    {
      "inputs": [
        {
          "internalType": "uint256",
          "name": "_lots",
          "type": "uint256"
        },
        {
          "internalType": "string",
          "name": "_redeemerUnderlyingAddressString",
          "type": "string"
        }
      ],
      "name": "redeem",
      "outputs": [],
      "stateMutability": "nonpayable",
      "type": "function"
    },
    {
      "inputs": [
        {
          "internalType": "address",
          "name": "_agentVault",
          "type": "address"
        },
        {
          "internalType": "address",
          "name": "_receiver",
          "type": "address"
        },
        {
          "internalType": "uint256",
          "name": "_amountUBA",
          "type": "uint256"
        },
        {
          "internalType": "string",
          "name": "_receiverUnderlyingAddress",
          "type": "string"
        }
      ],
      "name": "redeemFromAgent",
      "outputs": [],
      "stateMutability": "nonpayable",
      "type": "function"
    },
    {
      "inputs": [
        {
          "internalType": "address",
          "name": "_agentVault",
          "type": "address"
        },
        {
          "internalType": "address",
          "name": "_receiver",
          "type": "address"
        },
        {
          "internalType": "uint256",
          "name": "_amountUBA",
          "type": "uint256"
        }
      ],
      "name": "redeemFromAgentInCollateral",
      "outputs": [],
      "stateMutability": "nonpayable",
      "type": "function"
    },
    {
      "inputs": [
        {
          "components": [
            {
              "internalType": "uint256",
              "name": "stateConnectorRound",
              "type": "uint256"
            },
            {
              "internalType": "bytes32[]",
              "name": "merkleProof",
              "type": "bytes32[]"
            },
            {
              "internalType": "uint64",
              "name": "deadlineBlockNumber",
              "type": "uint64"
            },
            {
              "internalType": "uint64",
              "name": "deadlineTimestamp",
              "type": "uint64"
            },
            {
              "internalType": "bytes32",
              "name": "destinationAddressHash",
              "type": "bytes32"
            },
            {
              "internalType": "bytes32",
              "name": "paymentReference",
              "type": "bytes32"
            },
            {
              "internalType": "uint128",
              "name": "amount",
              "type": "uint128"
            },
            {
              "internalType": "uint64",
              "name": "lowerBoundaryBlockNumber",
              "type": "uint64"
            },
            {
              "internalType": "uint64",
              "name": "lowerBoundaryBlockTimestamp",
              "type": "uint64"
            },
            {
              "internalType": "uint64",
              "name": "firstOverflowBlockNumber",
              "type": "uint64"
            },
            {
              "internalType": "uint64",
              "name": "firstOverflowBlockTimestamp",
              "type": "uint64"
            }
          ],
          "internalType": "struct IAttestationClient.ReferencedPaymentNonexistence",
          "name": "_proof",
          "type": "tuple"
        },
        {
          "internalType": "uint256",
          "name": "_redemptionRequestId",
          "type": "uint256"
        }
      ],
      "name": "redemptionPaymentDefault",
      "outputs": [],
      "stateMutability": "nonpayable",
      "type": "function"
    },
    {
      "inputs": [
        {
          "internalType": "address",
          "name": "_agentVault",
          "type": "address"
        },
        {
          "internalType": "uint256",
          "name": "_lots",
          "type": "uint256"
        },
        {
          "internalType": "uint256",
          "name": "_maxMintingFeeBIPS",
          "type": "uint256"
        }
      ],
      "name": "reserveCollateral",
      "outputs": [],
      "stateMutability": "payable",
      "type": "function"
    },
    {
      "inputs": [
        {
          "internalType": "address",
          "name": "_agentVault",
          "type": "address"
        },
        {
          "internalType": "uint256",
          "name": "_amountUBA",
          "type": "uint256"
        }
      ],
      "name": "selfClose",
      "outputs": [],
      "stateMutability": "nonpayable",
      "type": "function"
    },
    {
      "inputs": [
        {
          "components": [
            {
              "internalType": "uint256",
              "name": "stateConnectorRound",
              "type": "uint256"
            },
            {
              "internalType": "bytes32[]",
              "name": "merkleProof",
              "type": "bytes32[]"
            },
            {
              "internalType": "uint64",
              "name": "blockNumber",
              "type": "uint64"
            },
            {
              "internalType": "uint64",
              "name": "blockTimestamp",
              "type": "uint64"
            },
            {
              "internalType": "bytes32",
              "name": "transactionHash",
              "type": "bytes32"
            },
            {
              "internalType": "uint8",
              "name": "inUtxo",
              "type": "uint8"
            },
            {
              "internalType": "uint8",
              "name": "utxo",
              "type": "uint8"
            },
            {
              "internalType": "bytes32",
              "name": "sourceAddressHash",
              "type": "bytes32"
            },
            {
              "internalType": "bytes32",
              "name": "receivingAddressHash",
              "type": "bytes32"
            },
            {
              "internalType": "int256",
              "name": "spentAmount",
              "type": "int256"
            },
            {
              "internalType": "int256",
              "name": "receivedAmount",
              "type": "int256"
            },
            {
              "internalType": "bytes32",
              "name": "paymentReference",
              "type": "bytes32"
            },
            {
              "internalType": "bool",
              "name": "oneToOne",
              "type": "bool"
            },
            {
              "internalType": "uint8",
              "name": "status",
              "type": "uint8"
            }
          ],
          "internalType": "struct IAttestationClient.Payment",
          "name": "_payment",
          "type": "tuple"
        },
        {
          "internalType": "address",
          "name": "_agentVault",
          "type": "address"
        },
        {
          "internalType": "uint256",
          "name": "_lots",
          "type": "uint256"
        }
      ],
      "name": "selfMint",
      "outputs": [],
      "stateMutability": "nonpayable",
      "type": "function"
    },
    {
      "inputs": [
        {
          "internalType": "enum IAssetManager.CollateralTokenClass",
          "name": "_tokenClass",
          "type": "uint8"
        },
        {
          "internalType": "contract IERC20",
          "name": "_token",
          "type": "address"
        },
        {
          "internalType": "uint256",
          "name": "_minCollateralRatioBIPS",
          "type": "uint256"
        },
        {
          "internalType": "uint256",
          "name": "_ccbMinCollateralRatioBIPS",
          "type": "uint256"
        },
        {
          "internalType": "uint256",
          "name": "_safetyMinCollateralRatioBIPS",
          "type": "uint256"
        }
      ],
      "name": "setCollateralRatiosForToken",
      "outputs": [],
      "stateMutability": "nonpayable",
      "type": "function"
    },
    {
      "inputs": [
        {
          "components": [
            {
              "internalType": "enum IAssetManager.CollateralTokenClass",
              "name": "tokenClass",
              "type": "uint8"
            },
            {
              "internalType": "contract IERC20",
              "name": "token",
              "type": "address"
            },
            {
              "internalType": "uint256",
              "name": "decimals",
              "type": "uint256"
            },
            {
              "internalType": "uint256",
              "name": "validUntil",
              "type": "uint256"
            },
            {
              "internalType": "string",
              "name": "ftsoSymbol",
              "type": "string"
            },
            {
              "internalType": "uint256",
              "name": "minCollateralRatioBIPS",
              "type": "uint256"
            },
            {
              "internalType": "uint256",
              "name": "ccbMinCollateralRatioBIPS",
              "type": "uint256"
            },
            {
              "internalType": "uint256",
              "name": "safetyMinCollateralRatioBIPS",
              "type": "uint256"
            }
          ],
          "internalType": "struct IAssetManager.CollateralTokenInfo",
          "name": "_data",
          "type": "tuple"
        }
      ],
      "name": "setPoolCollateralToken",
      "outputs": [],
      "stateMutability": "nonpayable",
      "type": "function"
    },
    {
      "inputs": [
        {
          "internalType": "address",
          "name": "_agentVault",
          "type": "address"
        }
      ],
      "name": "startLiquidation",
      "outputs": [],
      "stateMutability": "nonpayable",
      "type": "function"
    },
    {
      "inputs": [],
      "name": "terminate",
      "outputs": [],
      "stateMutability": "nonpayable",
      "type": "function"
    },
    {
      "inputs": [],
      "name": "unpause",
      "outputs": [],
      "stateMutability": "nonpayable",
      "type": "function"
    },
    {
      "inputs": [
        {
          "components": [
            {
              "internalType": "uint256",
              "name": "stateConnectorRound",
              "type": "uint256"
            },
            {
              "internalType": "bytes32[]",
              "name": "merkleProof",
              "type": "bytes32[]"
            },
            {
              "internalType": "uint64",
              "name": "blockNumber",
              "type": "uint64"
            },
            {
              "internalType": "uint64",
              "name": "blockTimestamp",
              "type": "uint64"
            },
            {
              "internalType": "uint8",
              "name": "numberOfConfirmations",
              "type": "uint8"
            },
            {
              "internalType": "uint64",
              "name": "averageBlockProductionTimeMs",
              "type": "uint64"
            },
            {
              "internalType": "uint64",
              "name": "lowestQueryWindowBlockNumber",
              "type": "uint64"
            },
            {
              "internalType": "uint64",
              "name": "lowestQueryWindowBlockTimestamp",
              "type": "uint64"
            }
          ],
          "internalType": "struct IAttestationClient.ConfirmedBlockHeightExists",
          "name": "_proof",
          "type": "tuple"
        },
        {
          "internalType": "uint256",
          "name": "_collateralReservationId",
          "type": "uint256"
        }
      ],
      "name": "unstickMinting",
      "outputs": [],
      "stateMutability": "nonpayable",
      "type": "function"
    },
    {
      "inputs": [
        {
          "components": [
            {
              "internalType": "uint256",
              "name": "stateConnectorRound",
              "type": "uint256"
            },
            {
              "internalType": "bytes32[]",
              "name": "merkleProof",
              "type": "bytes32[]"
            },
            {
              "internalType": "uint64",
              "name": "blockNumber",
              "type": "uint64"
            },
            {
              "internalType": "uint64",
              "name": "blockTimestamp",
              "type": "uint64"
            },
            {
              "internalType": "uint8",
              "name": "numberOfConfirmations",
              "type": "uint8"
            },
            {
              "internalType": "uint64",
              "name": "averageBlockProductionTimeMs",
              "type": "uint64"
            },
            {
              "internalType": "uint64",
              "name": "lowestQueryWindowBlockNumber",
              "type": "uint64"
            },
            {
              "internalType": "uint64",
              "name": "lowestQueryWindowBlockTimestamp",
              "type": "uint64"
            }
          ],
          "internalType": "struct IAttestationClient.ConfirmedBlockHeightExists",
          "name": "_proof",
          "type": "tuple"
        }
      ],
      "name": "updateCurrentBlock",
      "outputs": [],
      "stateMutability": "nonpayable",
      "type": "function"
    },
    {
      "inputs": [
        {
          "internalType": "bytes32",
          "name": "_method",
          "type": "bytes32"
        },
        {
          "internalType": "bytes",
          "name": "_params",
          "type": "bytes"
        }
      ],
      "name": "updateSettings",
      "outputs": [],
      "stateMutability": "nonpayable",
      "type": "function"
    },
    {
      "inputs": [
        {
          "internalType": "address",
          "name": "_agentVault",
          "type": "address"
        }
      ],
      "name": "upgradeWNatContract",
      "outputs": [],
      "stateMutability": "nonpayable",
      "type": "function"
    },
    {
      "inputs": [
        {
          "internalType": "contract IERC20",
          "name": "_token",
          "type": "address"
        },
        {
          "internalType": "uint256",
          "name": "_valueNATWei",
          "type": "uint256"
        }
      ],
      "name": "withdrawCollateral",
      "outputs": [],
      "stateMutability": "nonpayable",
      "type": "function"
    }
  ],
  "bytecode": "0x60806040523480156200001157600080fd5b5060405162006511380380620065118339810160408190526200003491620005a1565b600160005560405163658f4c6160e01b815273__$498fae630e5f9e2b0d2f5a14b70bbf8a29$__9063658f4c61906200007290869060040162000a12565b60006040518083038186803b1580156200008b57600080fd5b505af4158015620000a0573d6000803e3d6000fd5b505060405163e456a51d60e01b815273__$a539d901bea57a4b73d19093d1e9882040$__925063e456a51d9150620000dd90859060040162000ee2565b60006040518083038186803b158015620000f657600080fd5b505af41580156200010b573d6000803e3d6000fd5b5050505062000125816200012e60201b620028c51760201c565b50505062000ffe565b600062000145620001c060201b620029351760201c565b600801546040516001600160a01b039091169150600090829063439fab91906200017490869060240162000fc4565b604051602081830303815290604052915060e01b6020820180516001600160e01b0383818316178352505050509050620001ba8282620001e460201b620029471760201c565b50505050565b7fec7e8c1c441439dd40959777f4c577ea0cd42fcc1dbe59d2bd0f5d9c55df8db690565b6060600080846001600160a01b03168460405162000203919062000fe0565b600060405180830381855af49150503d806000811462000240576040519150601f19603f3d011682016040523d82523d6000602084013e62000245565b606091505b509150915081156200025b5791506200026e9050565b3d604051818101604052816000823e8181fd5b92915050565b634e487b7160e01b600052604160045260246000fd5b60405161010081016001600160401b0381118282101715620002b057620002b062000274565b60405290565b6040516105c081016001600160401b0381118282101715620002b057620002b062000274565b604051601f8201601f191681016001600160401b038111828210171562000307576200030762000274565b604052919050565b80516001600160a01b03811681146200032757600080fd5b919050565b805163ffffffff811681146200032757600080fd5b805160ff811681146200032757600080fd5b60005b838110156200037057818101518382015260200162000356565b83811115620001ba5750506000910152565b600082601f8301126200039457600080fd5b81516001600160401b03811115620003b057620003b062000274565b620003c5601f8201601f1916602001620002dc565b818152846020838601011115620003db57600080fd5b620003ee82602083016020870162000353565b949350505050565b805180151581146200032757600080fd5b805161ffff811681146200032757600080fd5b80516001600160401b03811681146200032757600080fd5b80516001600160801b03811681146200032757600080fd5b8051600381106200032757600080fd5b600082601f8301126200046c57600080fd5b815160206001600160401b03808311156200048b576200048b62000274565b8260051b6200049c838201620002dc565b9384528581018301938381019088861115620004b757600080fd5b84880192505b858310156200059557825184811115620004d75760008081fd5b8801610100818b03601f1901811315620004f15760008081fd5b620004fb6200028a565b620005088884016200044a565b81526040620005198185016200030f565b89830152606080850151828401526080915081850151818401525060a08085015189811115620005495760008081fd5b620005598f8c8389010162000382565b838501525060c0915081850151818401525060e080850151828401528385015181840152505080855250505084820191508483019250620004bd565b98975050505050505050565b600080600060608486031215620005b757600080fd5b83516001600160401b0380821115620005cf57600080fd5b908501906105c08288031215620005e557600080fd5b620005ef620002b6565b620005fa836200030f565b81526200060a602084016200030f565b60208201526200061d604084016200030f565b604082015262000630606084016200030f565b606082015262000643608084016200030f565b60808201526200065660a084016200030f565b60a08201526200066960c084016200030f565b60c08201526200067c60e084016200030f565b60e0820152610100620006918185016200030f565b90820152610120620006a58482016200030f565b90820152610140620006b98482016200032c565b90820152610160620006cd84820162000341565b90820152610180620006e184820162000341565b908201526101a0620006f58482016200032c565b908201526101c083810151838111156200070e57600080fd5b6200071c8a82870162000382565b8284015250506101e0620007328185016200030f565b9082015261020062000746848201620003f6565b908201526102206200075a8482016200032c565b908201526102406200076e84820162000407565b90820152610260620007828482016200041a565b90820152610280620007968482016200041a565b908201526102a0620007aa8482016200041a565b908201526102c0620007be8482016200041a565b908201526102e0620007d28482016200041a565b90820152610300620007e6848201620003f6565b90820152610320620007fa8482016200041a565b908201526103406200080e8482016200041a565b908201526103606200082284820162000407565b90820152610380620008368482016200032c565b908201526103a06200084a8482016200032c565b908201526103c06200085e8482016200041a565b908201526103e06200087284820162000432565b908201526104006200088684820162000407565b908201526104206200089a84820162000407565b90820152610440620008ae84820162000432565b90820152610460620008c28482016200041a565b90820152610480620008d68482016200041a565b908201526104a0620008ea8482016200041a565b908201526104c0620008fe8482016200041a565b908201526104e0620009128482016200041a565b90820152610500620009268482016200041a565b908201526105206200093a8482016200041a565b908201526105406200094e8482016200032c565b90820152610560620009628482016200041a565b90820152610580620009768482016200041a565b908201526105a06200098a8482016200041a565b908201526020870151909550915080821115620009a657600080fd5b620009b4878388016200045a565b93506040860151915080821115620009cb57600080fd5b50620009da8682870162000382565b9150509250925092565b60008151808452620009fe81602086016020860162000353565b601f01601f19169290920160200192915050565b6020815262000a2d6020820183516001600160a01b03169052565b6000602083015162000a4a60408401826001600160a01b03169052565b5060408301516001600160a01b03811660608401525060608301516001600160a01b03811660808401525060808301516001600160a01b03811660a08401525060a08301516001600160a01b03811660c08401525060c08301516001600160a01b03811660e08401525060e083015161010062000ad1818501836001600160a01b03169052565b840151905061012062000aee848201836001600160a01b03169052565b840151905061014062000b0b848201836001600160a01b03169052565b840151905061016062000b258482018363ffffffff169052565b840151905061018062000b3c8482018360ff169052565b84015190506101a062000b538482018360ff169052565b84015190506101c062000b6d8482018363ffffffff169052565b808501519150506105c06101e0818186015262000b8f6105e0860184620009e4565b9086015190925061020062000bae868201836001600160a01b03169052565b860151905061022062000bc48682018315159052565b860151905061024062000bde8682018363ffffffff169052565b860151905061026062000bf68682018361ffff169052565b860151905061028062000c13868201836001600160401b03169052565b86015190506102a062000c30868201836001600160401b03169052565b86015190506102c062000c4d868201836001600160401b03169052565b86015190506102e062000c6a868201836001600160401b03169052565b860151905061030062000c87868201836001600160401b03169052565b860151905061032062000c9d8682018315159052565b860151905061034062000cba868201836001600160401b03169052565b860151905061036062000cd7868201836001600160401b03169052565b860151905061038062000cef8682018361ffff169052565b86015190506103a062000d098682018363ffffffff169052565b86015190506103c062000d238682018363ffffffff169052565b86015190506103e062000d40868201836001600160401b03169052565b860151905061040062000d5d868201836001600160801b03169052565b860151905061042062000d758682018361ffff169052565b860151905061044062000d8d8682018361ffff169052565b860151905061046062000daa868201836001600160801b03169052565b860151905061048062000dc7868201836001600160401b03169052565b86015190506104a062000de4868201836001600160401b03169052565b86015190506104c062000e01868201836001600160401b03169052565b86015190506104e062000e1e868201836001600160401b03169052565b860151905061050062000e3b868201836001600160401b03169052565b860151905061052062000e58868201836001600160401b03169052565b860151905061054062000e75868201836001600160401b03169052565b860151905061056062000e8f8682018363ffffffff169052565b860151905061058062000eac868201836001600160401b03169052565b86015190506105a062000ec9868201836001600160401b03169052565b909501516001600160401b031693019290925250919050565b60006020808301818452808551808352604092508286019150828160051b8701018488016000805b8481101562000fb557603f198a8503018652825161010081516003811062000f4057634e487b7160e01b85526021600452602485fd5b8652818a01516001600160a01b03168a87015288820151898701526060808301519087015260808083015181880183905262000f7f83890182620009e4565b60a085810151908a015260c080860151908a015260e0948501519490980193909352505050948701949187019160010162000f0a565b50919998505050505050505050565b60208152600062000fd96020830184620009e4565b9392505050565b6000825162000ff481846020870162000353565b9190910192915050565b615503806200100e6000396000f3fe6080604052600436106103d95760003560e01c80638ad2a950116101fd578063dda4921311610118578063ed3762aa116100ab578063f19d3c061161007a578063f19d3c0614610bf5578063f1d5133f14610c15578063f4d000b214610c42578063f54ff23014610c62578063fd41d8ea14610c8257600080fd5b8063ed3762aa14610b80578063ee80a23014610ba0578063f060b3f114610bc0578063f0c0b72514610be057600080fd5b8063e7732f91116100e7578063e7732f9114610b0b578063eb5abafc14610b2b578063ecaf1cdf14610b4b578063ed000b3014610b6057600080fd5b8063dda4921314610a7d578063e1c5010014610a9d578063e38fd8f414610abd578063e415339c14610add57600080fd5b8063b5a488a611610190578063bcbaf4871161015f578063bcbaf487146109ef578063bd60353514610a2a578063bfead88714610a3d578063c0674b4614610a5d57600080fd5b8063b5a488a61461097a578063b68af97e1461098f578063b7f658ab146109af578063b928b533146109cf57600080fd5b8063a07ea7af116101cc578063a07ea7af146108f8578063a4ea4b1d14610918578063b046cd1714610938578063b58eb63f1461095857600080fd5b80638ad2a950146108785780638bf11326146108985780638c9ea976146108b85780639584da2a146108d857600080fd5b8063368a3593116102f85780635e71055c1161028b5780637c7db1a51161025a5780637c7db1a5146107de5780638003314d146107f357806383c57d14146108215780638456cb591461084157806385b4bb531461085657600080fd5b80635e71055c1461075e578063612007e51461077e57806365454f941461079e578063753923f0146107be57600080fd5b806353777730116102c757806353777730146106b957806353ed178e146106f15780635c975abb146107115780635cdf04b31461073e57600080fd5b8063368a35931461061e5780633851b6141461064c5780633f4ba83a1461066c5780635252f3a21461068157600080fd5b80631f81949011610370578063283f2e241161033f578063283f2e241461059e5780632a4c48a8146105be5780632dabf2d0146105de578063350c35e9146105fe57600080fd5b80631f8194901461051e578063249f1b591461053e57806324b76fd51461055e578063268b2ec11461057e57600080fd5b80630a4b9ec2116103ac5780630a4b9ec21461049c5780630c08bf88146104bc5780630ffb0e86146104d1578063152052b0146104f157600080fd5b806302312aec146103de578063025dfeb21461040d578063042039301461042f5780630877acff1461044f575b600080fd5b3480156103ea57600080fd5b506103f3610ca2565b604080519283526020830191909152015b60405180910390f35b34801561041957600080fd5b5061042d61042836600461316b565b610cf6565b005b34801561043b57600080fd5b5061042d61044a3660046131bb565b610d6d565b34801561045b57600080fd5b507fec7e8c1c441439dd40959777f4c577ea0cd42fcc1dbe59d2bd0f5d9c55df8dd6546001600160401b03620100008204811691600160501b9004166103f3565b3480156104a857600080fd5b5061042d6104b73660046131bb565b610dad565b3480156104c857600080fd5b5061042d610df3565b3480156104dd57600080fd5b5061042d6104ec366004613319565b610ef9565b3480156104fd57600080fd5b5061051161050c3660046131bb565b610f7b565b60405161040491906133f3565b34801561052a57600080fd5b5061042d6105393660046135e7565b61110f565b34801561054a57600080fd5b5061042d610559366004613638565b611184565b34801561056a57600080fd5b5061042d610579366004613689565b611202565b34801561058a57600080fd5b5061042d6105993660046136cf565b61124d565b3480156105aa57600080fd5b5061042d6105b93660046131bb565b61128e565b3480156105ca57600080fd5b5061042d6105d936600461372c565b6112ce565b3480156105ea57600080fd5b5061042d6105f9366004613768565b611305565b34801561060a57600080fd5b5061042d610619366004613768565b611341565b34801561062a57600080fd5b5061063e610639366004613786565b61138e565b604051908152602001610404565b34801561065857600080fd5b5061042d6106673660046131bb565b61141c565b34801561067857600080fd5b5061042d61145c565b34801561068d57600080fd5b506106a161069c3660046131bb565b611554565b6040516001600160a01b039091168152602001610404565b3480156106c557600080fd5b5060008051602061548e83398151915254600160401b900460ff165b6040519015158152602001610404565b3480156106fd57600080fd5b5061042d61070c36600461379f565b61156f565b34801561071d57600080fd5b5060008051602061548e833981519152546001600160401b031615156106e1565b34801561074a57600080fd5b5061042d6107593660046137e7565b6115b0565b34801561076a57600080fd5b5061042d6107793660046131bb565b6115f1565b34801561078a57600080fd5b5061042d6107993660046131bb565b611631565b3480156107aa57600080fd5b5061042d6107b93660046131bb565b611671565b3480156107ca57600080fd5b5061042d6107d93660046136cf565b6116b1565b3480156107ea57600080fd5b506106a16116d5565b3480156107ff57600080fd5b5061081361080e366004613838565b6116e4565b60405161040492919061385a565b34801561082d57600080fd5b5061042d61083c3660046138d8565b611775565b34801561084d57600080fd5b5061042d6117ed565b34801561086257600080fd5b5061086b611852565b604051610404919061395d565b34801561088457600080fd5b5061042d610893366004613e09565b611d0b565b3480156108a457600080fd5b5061042d6108b3366004613e3d565b611d42565b3480156108c457600080fd5b506106e16108d3366004613e96565b611def565b3480156108e457600080fd5b5061042d6108f3366004613768565b611e7c565b34801561090457600080fd5b5061042d6109133660046131bb565b611ec3565b34801561092457600080fd5b5061042d61093336600461372c565b611f03565b34801561094457600080fd5b5061042d610953366004613ec4565b611f42565b34801561096457600080fd5b5061096d611f7b565b6040516104049190613f85565b34801561098657600080fd5b506106a1611fee565b34801561099b57600080fd5b5061042d6109aa3660046131bb565b611ff8565b3480156109bb57600080fd5b5061042d6109ca3660046131bb565b6120e6565b3480156109db57600080fd5b5061042d6109ea366004614000565b612126565b3480156109fb57600080fd5b50610a0f610a0a366004613768565b61215e565b60408051938452602084019290925290820152606001610404565b61042d610a3836600461401d565b6121fc565b348015610a4957600080fd5b5061042d610a583660046135e7565b612285565b348015610a6957600080fd5b5061042d610a783660046131bb565b612327565b348015610a8957600080fd5b5061042d610a9836600461379f565b612367565b348015610aa957600080fd5b5061042d610ab83660046131bb565b6123d0565b348015610ac957600080fd5b5061042d610ad836600461372c565b612417565b348015610ae957600080fd5b50610afd610af8366004613838565b612456565b604051610404929190614052565b348015610b1757600080fd5b5061042d610b263660046140a3565b6124db565b348015610b3757600080fd5b5061042d610b463660046140dc565b612514565b348015610b5757600080fd5b5061063e612557565b348015610b6c57600080fd5b5061042d610b7b366004614148565b61259c565b348015610b8c57600080fd5b5061063e610b9b3660046131bb565b6125eb565b348015610bac57600080fd5b5061042d610bbb366004613ec4565b61262e565b348015610bcc57600080fd5b5061042d610bdb366004614178565b612667565b348015610bec57600080fd5b506106a16126da565b348015610c0157600080fd5b5061042d610c103660046141e3565b6126f3565b348015610c2157600080fd5b50610c35610c3036600461425e565b612736565b604051610404919061427c565b348015610c4e57600080fd5b5061042d610c5d3660046131bb565b612806565b348015610c6e57600080fd5b5061042d610c7d366004613768565b612846565b348015610c8e57600080fd5b5061042d610c9d36600461428f565b612882565b6000806000610caf612935565b9050610cc1610cbc6129cb565b612a4d565b600c820154909350600160401b90046001600160401b0316610ce56009600a6143a9565b610cef91906143b5565b9150509091565b610cfe612a61565b6040516307c8308b60e21b815273__$8ed6b3b04009dff171844b9d72c92eddd0$__90631f20c22c90610d3a9060019030908690600401614442565b60006040518083038186803b158015610d5257600080fd5b505af4158015610d66573d6000803e3d6000fd5b5050505050565b60405163b42652e960e01b81526001600160a01b038216600482015273__$4054b81dd018f00b16b0262e280b71bd3d$__9063b42652e990602401610d3a565b60405163c7be12eb60e01b81526001600160a01b038216600482015233602482015273__$c7446ca28182994c6c0135601399c1b584$__9063c7be12eb90604401610d3a565b610dfb612ab8565b60008051602061548e833981519152546000805160206154ae833981519152906001600160401b031615801590610e4c57506021810154610e499062278d00906001600160401b031661450b565b42115b610e9d5760405162461bcd60e51b815260206004820152601f60248201527f6173736574206d616e61676572206e6f742070617573656420656e6f7567680060448201526064015b60405180910390fd5b60018101546040805163018117f160e31b815290516001600160a01b0390921691630c08bf889160048082019260009290919082900301818387803b158015610ee557600080fd5b505af1158015610d66573d6000803e3d6000fd5b60405163ccfb491360e01b815273__$df85e949fff37977e0d300eb10fcbb4998$__9063ccfb491390610f3490869086908690600401614523565b602060405180830381865af4158015610f51573d6000803e3d6000fd5b505050506040513d601f19601f82011682018060405250810190610f759190614557565b50505050565b611089604080516104008101909152806000815260200160006001600160a01b0316815260200160006001600160a01b0316815260200160608152602001600015158152602001600081526020016000815260200160006001600160a01b031681526020016000815260200160008152602001600081526020016000815260200160008152602001600081526020016000815260200160008152602001600081526020016000815260200160008152602001600081526020016000815260200160008152602001600081526020016000815260200160008152602001600081526020016000815260200160008152602001600081526020016000815260200160008152602001600081525090565b604051630152052b60e41b81526001600160a01b038316600482015273__$ec55c6bae1638b00bbedb6b751f1f84e77$__9063152052b090602401600060405180830381865af41580156110e1573d6000803e3d6000fd5b505050506040513d6000823e601f3d908101601f1916820160405261110991908101906145da565b92915050565b73__$305ac64b111b0d775ac583a3c3f22849b9$__634e1b6cd68361113384612b18565b6040518363ffffffff1660e01b8152600401611150929190614958565b60006040518083038186803b15801561116857600080fd5b505af415801561117c573d6000803e3d6000fd5b505050505050565b61118c612ab8565b604051634f27f8e760e01b815273__$a539d901bea57a4b73d19093d1e9882040$__90634f27f8e7906111cb9088908890889088908890600401614983565b60006040518083038186803b1580156111e357600080fd5b505af41580156111f7573d6000803e3d6000fd5b505050505050505050565b61120a612b84565b73__$4ff30c53c077284d3b777228e6ae31216c$__6326e68cd43361122e85612b18565b846040518463ffffffff1660e01b8152600401611150939291906149ba565b73__$2121826b9482dc4a95d5f1c5bc0ffbdf06$__63c20025058361127184612b18565b6040518363ffffffff1660e01b8152600401611150929190614a0d565b604051630a0fcb8960e21b81526001600160a01b038216600482015273__$8ed6b3b04009dff171844b9d72c92eddd0$__9063283f2e2490602401610d3a565b60405163e70e767f60e01b815273__$722590fcf677171437eb48cf082465d6d7$__9063e70e767f90610d3a908490600401614c1f565b60405163a43ba5ab60e01b815273__$c7446ca28182994c6c0135601399c1b584$__9063a43ba5ab906111509060029086908690600401614c32565b604051631f463e2360e21b81526001600160a01b03831660048201523360248201526044810182905273__$c7446ca28182994c6c0135601399c1b584$__90637d18f88c90606401611150565b600073__$f7c9c0d01068167c22df35ff5943b62148$__630c7dcd156113b384612b18565b6040516001600160e01b031960e084901b1681526001600160401b0390911660048201526024015b602060405180830381865af41580156113f8573d6000803e3d6000fd5b505050506040513d601f19601f820116820180604052508101906111099190614557565b60405163fdf6b37560e01b81526001600160a01b038216600482015273__$4054b81dd018f00b16b0262e280b71bd3d$__9063fdf6b37590602401610d3a565b611464612ab8565b7fec7e8c1c441439dd40959777f4c577ea0cd42fcc1dbe59d2bd0f5d9c55df8db7546040805163194307bf60e01b815290516000805160206154ae833981519152926001600160a01b03169163194307bf9160048083019260209291908290030181865afa1580156114da573d6000803e3d6000fd5b505050506040513d601f19601f820116820180604052508101906114fe9190614c5c565b156115405760405162461bcd60e51b8152602060048201526012602482015271198b585cdcd95d081d195c9b5a5b985d195960721b6044820152606401610e94565b602101805467ffffffffffffffff19169055565b600061155f82612c51565b546001600160a01b031692915050565b73__$2121826b9482dc4a95d5f1c5bc0ffbdf06$__630fec40b68361159384612b18565b6040518363ffffffff1660e01b8152600401611150929190614c79565b6115b8612b84565b60405163ed99865b60e01b815273__$d15fd82c1987b4adc4c1dba5cf0be762b0$__9063ed99865b906111509085908590600401614d32565b60405163e4c5e4e960e01b81526001600160a01b038216600482015273__$8ed6b3b04009dff171844b9d72c92eddd0$__9063e4c5e4e990602401610d3a565b604051630877cd8160e41b81526001600160a01b038216600482015273__$4054b81dd018f00b16b0262e280b71bd3d$__9063877cd81090602401610d3a565b60405163195153e560e21b81526001600160a01b038216600482015273__$c7446ca28182994c6c0135601399c1b584$__906365454f9490602401610d3a565b73__$f7c9c0d01068167c22df35ff5943b62148$__6355c4ef8f8361127184612b18565b60006116df612cf9565b905090565b60405163825378af60e01b8152600481018390526024810182905260609060009073__$4054b81dd018f00b16b0262e280b71bd3d$__9063825378af90604401600060405180830381865af4158015611741573d6000803e3d6000fd5b505050506040513d6000823e601f3d908101601f191682016040526117699190810190614d7f565b915091505b9250929050565b61177d612b84565b6040516366a1b64560e11b815273__$d15fd82c1987b4adc4c1dba5cf0be762b0$__9063cd436c8a906117b890869086908690600401614e61565b60006040518083038186803b1580156117d057600080fd5b505af41580156117e4573d6000803e3d6000fd5b50505050505050565b6117f5612ab8565b60008051602061548e833981519152546000805160206154ae833981519152906001600160401b031661184f5761182b42612b18565b60218201805467ffffffffffffffff19166001600160401b03929092169190911790555b50565b604080516105c08101825260008082526020820181905291810182905260608082018390526080820183905260a0820183905260c0820183905260e08201839052610100820183905261012082018390526101408201839052610160820183905261018082018390526101a082018390526101c08201526101e08101829052610200810182905261022081018290526102408101829052610260810182905261028081018290526102a081018290526102c081018290526102e08101829052610300810182905261032081018290526103408101829052610360810182905261038081018290526103a081018290526103c081018290526103e08101829052610400810182905261042081018290526104408101829052610460810182905261048081018290526104a081018290526104c081018290526104e08101829052610500810182905261052081018290526105408101829052610560810182905261058081018290526105a08101919091526119ca612935565b604080516105c08101825282546001600160a01b03908116825260018401548116602083015260028401548116928201929092526003830154821660608201526004830154821660808201526005830154821660a08201526006830154821660c08201526007830154821660e082015260088301548216610100820152600983015491821661012082015263ffffffff600160a01b8304811661014083015260ff600160c01b84048116610160840152600160c81b840416610180830152600160d01b9092049091166101a0820152600a820180549192916101c084019190611ab290614ee8565b80601f0160208091040260200160405190810160405280929190818152602001828054611ade90614ee8565b8015611b2b5780601f10611b0057610100808354040283529160200191611b2b565b820191906000526020600020905b815481529060010190602001808311611b0e57829003601f168201915b5050509183525050600b8201546001600160a01b038116602083015260ff600160a01b80830482161515604085015263ffffffff600160a81b84048116606086015261ffff600160c81b9485900481166080870152600c8701546001600160401b0380821660a0890152600160401b808304821660c08a0152600160801b808404831660e08b0152600160c01b9384900483166101008b0152600d8b01548084166101208c015282810490981615156101408b01526901000000000000000000880483166101608b0152600160881b880483166101808b015297870484166101a08a0152600160d81b90960484166101c0890152600e8901548085166101e08a0152640100000000810482166102008a01526001600160801b03600160601b80830482166102208c0152600160e01b830486166102408c0152600160f01b9092049094166102608a0152600f8a01549384166102808a015287840482166102a08a01529282900481166102c089015260108901548082166102e08a015286810482166103008a01529687048116610320890152950485166103408701526011870154808616610360880152938404909116610380860152820483166103a0850152900481166103c08301526012909201549091166103e090910152919050565b604051632560e1bd60e01b815273__$8ed6b3b04009dff171844b9d72c92eddd0$__90632560e1bd90610d3a908490600401614f1d565b611d4a612a61565b60026000541415611d6d5760405162461bcd60e51b8152600401610e9490614f30565b600260005573__$db99a4b0b1a8936beb7122d8143ea3b698$__634c1411578484611d9785612b18565b6040518463ffffffff1660e01b8152600401611db593929190614f67565b60006040518083038186803b158015611dcd57600080fd5b505af4158015611de1573d6000803e3d6000fd5b505060016000555050505050565b60405162cb3d5f60e31b81526001600160a01b0380841660048301528216602482015260009073__$c7446ca28182994c6c0135601399c1b584$__90630659eaf890604401602060405180830381865af4158015611e51573d6000803e3d6000fd5b505050506040513d601f19601f82011682018060405250810190611e759190614c5c565b9392505050565b604051634ac26d1560e11b81526001600160a01b03831660048201526024810182905273__$4ff30c53c077284d3b777228e6ae31216c$__90639584da2a90604401611150565b60405163a07ea7af60e01b81526001600160a01b038216600482015273__$900ca2dd89aa7bd7c22612e1484fcfb277$__9063a07ea7af90602401610d3a565b611f0b612ab8565b60405163234e32cb60e21b815273__$a539d901bea57a4b73d19093d1e9882040$__90638d38cb2c90610d3a908490600401614fa3565b60405163364a99d160e21b815273__$900ca2dd89aa7bd7c22612e1484fcfb277$__9063d92a6744906111509085908590600401615046565b606073__$a539d901bea57a4b73d19093d1e9882040$__638d19717a6040518163ffffffff1660e01b8152600401600060405180830381865af4158015611fc6573d6000803e3d6000fd5b505050506040513d6000823e601f3d908101601f191682016040526116df9190810190615100565b60006116df612d17565b612000612cf9565b6001600160a01b031663194307bf6040518163ffffffff1660e01b8152600401602060405180830381865afa15801561203d573d6000803e3d6000fd5b505050506040513d601f19601f820116820180604052508101906120619190614c5c565b6120a65760405162461bcd60e51b8152602060048201526016602482015275198b585cdcd95d081b9bdd081d195c9b5a5b985d195960521b6044820152606401610e94565b604051635b457cbf60e11b81526001600160a01b038216600482015273__$8ed6b3b04009dff171844b9d72c92eddd0$__9063b68af97e90602401610d3a565b60405163b7f658ab60e01b81526001600160a01b038216600482015273__$55e854ab37cd1bbaf9fa5a4f99ff154ced$__9063b7f658ab90602401610d3a565b61212e612ab8565b60008051602061548e8339815191528054911515600160401b0268ff000000000000000019909216919091179055565b600080600061216b612b84565b60405163bcbaf48760e01b81526001600160a01b03861660048201526024810185905273__$55e854ab37cd1bbaf9fa5a4f99ff154ced$__9063bcbaf48790604401606060405180830381865af41580156121ca573d6000803e3d6000fd5b505050506040513d601f19601f820116820180604052508101906121ee91906151b0565b919790965090945092505050565b612204612a61565b61220c612b84565b73__$f7c9c0d01068167c22df35ff5943b62148$__63f2821a62338561223186612b18565b61223a86612b18565b6040516001600160e01b031960e087901b1681526001600160a01b0394851660048201529390921660248401526001600160401b0390811660448401521660648201526084016117b8565b600260005414156122a85760405162461bcd60e51b8152600401610e9490614f30565b600260005573__$db99a4b0b1a8936beb7122d8143ea3b698$__63aeeb13a0836122d184612b18565b6040518363ffffffff1660e01b81526004016122ee929190614958565b60006040518083038186803b15801561230657600080fd5b505af415801561231a573d6000803e3d6000fd5b5050600160005550505050565b604051636033a5a360e11b81526001600160a01b038216600482015273__$900ca2dd89aa7bd7c22612e1484fcfb277$__9063c0674b4690602401610d3a565b6002600054141561238a5760405162461bcd60e51b8152600401610e9490614f30565b600260005573__$f7c9c0d01068167c22df35ff5943b62148$__632d984f75836123b384612b18565b6040518363ffffffff1660e01b81526004016122ee929190614c79565b6123d8612b84565b60405162e1c50160e81b81526001600160a01b038216600482015273__$55e854ab37cd1bbaf9fa5a4f99ff154ced$__9063e1c5010090602401610d3a565b61241f612ab8565b604051631663f15960e11b815273__$a539d901bea57a4b73d19093d1e9882040$__90632cc7e2b290610d3a908490600401614fa3565b6040516315302d6160e31b8152600481018390526024810182905260609060009073__$4054b81dd018f00b16b0262e280b71bd3d$__9063a9816b0890604401600060405180830381865af41580156124b3573d6000803e3d6000fd5b505050506040513d6000823e601f3d908101601f1916820160405261176991908101906151de565b6040516331ec097760e01b815273__$df85e949fff37977e0d300eb10fcbb4998$__906331ec097790611150908590859060040161527f565b61251c612b84565b60405163264becd360e21b815273__$d15fd82c1987b4adc4c1dba5cf0be762b0$__9063992fb34c906117b8908690869086906004016152a3565b600080612562612935565b600c81015490915061258d906001600160401b03600160401b8204811691600160801b9004166152e1565b6001600160401b031691505090565b604051630ed000b360e41b81526001600160a01b038085166004830152831660248201526044810182905273__$4ff30c53c077284d3b777228e6ae31216c$__9063ed000b30906064016117b8565b60405163769bb15560e11b81526001600160a01b038216600482015260009073__$c7446ca28182994c6c0135601399c1b584$__9063ed3762aa906024016113db565b604051630314945d60e41b815273__$4d3bb9bf0a42acf2b0f8f3ab5f4c1ad39c$__9063314945d0906111509085908590600401615046565b60405163f060b3f160e01b815273__$4ff30c53c077284d3b777228e6ae31216c$__9063f060b3f1906126a4908790879087908790600401615310565b60006040518083038186803b1580156126bc57600080fd5b505af41580156126d0573d6000803e3d6000fd5b5050505050505050565b60006126e4612935565b546001600160a01b0316919050565b6126fb612ab8565b6040516302fab52b60e01b815273__$498fae630e5f9e2b0d2f5a14b70bbf8a29$__906302fab52b906117b89086908690869060040161534d565b612788604080516101008101909152806000815260200160006001600160a01b031681526020016000815260200160008152602001606081526020016000815260200160008152602001600081525090565b6040516346532e0760e01b815273__$a539d901bea57a4b73d19093d1e9882040$__906346532e07906127c19086908690600401615367565b600060405180830381865af41580156127de573d6000803e3d6000fd5b505050506040513d6000823e601f3d908101601f19168201604052611e75919081019061538c565b604051637a68005960e11b81526001600160a01b038216600482015273__$c7446ca28182994c6c0135601399c1b584$__9063f4d000b290602401610d3a565b60405163a43ba5ab60e01b815273__$c7446ca28182994c6c0135601399c1b584$__9063a43ba5ab906111509060009086908690600401614c32565b61288a612ab8565b6040516307eca6bd60e51b815273__$a539d901bea57a4b73d19093d1e9882040$__9063fd94d7a0906117b890869086908690600401614c32565b60006128cf612935565b600801546040516001600160a01b039091169150600090829063439fab91906128fc9086906024016153c0565b604051602081830303815290604052915060e01b6020820180516001600160e01b0383818316178352505050509050610f758282612947565b6000805160206154ae83398151915290565b6060600080846001600160a01b03168460405161296491906153d3565b600060405180830381855af49150503d806000811461299f576040519150601f19603f3d011682016040523d82523d6000602084013e6129a4565b606091505b509150915081156129b85791506111099050565b3d604051818101604052816000823e8181fd5b7fec7e8c1c441439dd40959777f4c577ea0cd42fcc1dbe59d2bd0f5d9c55df8dd6547fec7e8c1c441439dd40959777f4c577ea0cd42fcc1dbe59d2bd0f5d9c55df8dc980546000926000805160206154ae833981519152929161ffff909116908110612a3957612a396153ef565b906000526020600020906003020191505090565b6000612a5882612da5565b50909392505050565b60008051602061548e83398151915254600160401b900460ff16612ab65760405162461bcd60e51b815260206004820152600c60248201526b1b9bdd08185d1d1858da195960a21b6044820152606401610e94565b565b612ac0612935565b546001600160a01b03163314612ab65760405162461bcd60e51b815260206004820152601d60248201527f6f6e6c79206173736574206d616e6167657220636f6e74726f6c6c65720000006044820152606401610e94565b60006001600160401b03821115612b805760405162461bcd60e51b815260206004820152602660248201527f53616665436173743a2076616c756520646f65736e27742066697420696e203660448201526534206269747360d01b6064820152608401610e94565b5090565b6000612b8e612935565b60048101549091506001600160a01b03161561184f57600481810154604051633af32abf60e01b815233928101929092526001600160a01b031690633af32abf90602401602060405180830381865afa158015612bef573d6000803e3d6000fd5b505050506040513d601f19601f82011682018060405250810190612c139190614c5c565b61184f5760405162461bcd60e51b815260206004820152600f60248201526e1b9bdd081dda1a5d195b1a5cdd1959608a1b6044820152606401610e94565b7f5bebac0595fee029d42bb673937f5f1cb81cf8641382bc17774635de9b7d796568010000000000000000600160e01b03604083901b1618806000600383015460ff166002811115612ca557612ca5613371565b1415612cf35760405162461bcd60e51b815260206004820152601b60248201527f696e76616c6964206167656e74207661756c74206164647265737300000000006044820152606401610e94565b50919050565b600080612d04612935565b600101546001600160a01b031692915050565b7fec7e8c1c441439dd40959777f4c577ea0cd42fcc1dbe59d2bd0f5d9c55df8dd6547fec7e8c1c441439dd40959777f4c577ea0cd42fcc1dbe59d2bd0f5d9c55df8dc980546000926000805160206154ae833981519152929161ffff909116908110612d8557612d856153ef565b60009182526020909120600390910201546001600160a01b031692915050565b600080600080612db3612935565b600981015460405163d75f6d8160e01b8152600160a01b820463ffffffff1660048201529192506001600160a01b031690600090829063d75f6d8190602401602060405180830381865afa158015612e0f573d6000803e3d6000fd5b505050506040513d601f19601f82011682018060405250810190612e339190615405565b875460405163d75f6d8160e01b8152600160b01b90910461ffff1660048201529091506000906001600160a01b0384169063d75f6d8190602401602060405180830381865afa158015612e8a573d6000803e3d6000fd5b505050506040513d601f19601f82011682018060405250810190612eae9190615405565b90506000806000846001600160a01b03166365f5cd866040518163ffffffff1660e01b8152600401606060405180830381865afa158015612ef3573d6000803e3d6000fd5b505050506040513d601f19601f82011682018060405250810190612f1791906151b0565b9250925092506000806000866001600160a01b03166365f5cd866040518163ffffffff1660e01b8152600401606060405180830381865afa158015612f60573d6000803e3d6000fd5b505050506040513d601f19601f82011682018060405250810190612f8491906151b0565b9250925092506000612fad8f60000160159054906101000a900460ff1660ff1685848a89612fc3565b9f959e50919c50939a5050505050505050505050565b600080612fce612935565b905060006009612fde878a61450b565b612fe8919061450b565b6009830154909150600090613008908690600160c81b900460ff1661450b565b90508082101561301a5761301a615422565b61303a6130278284615438565b61303290600a6143a9565b87908a613047565b9998505050505050505050565b600080821161308b5760405162461bcd60e51b815260206004820152601060248201526f4469766973696f6e206279207a65726f60801b6044820152606401610e94565b8361309857506000611e75565b838302838582816130ab576130ab61544f565b0414156130ca578281816130c1576130c161544f565b04915050611e75565b5060006130d78386615465565b905060006130e58487615479565b905060006130f38587615465565b905060006131018688615479565b90508561310e82856143b5565b6131189190615465565b61312283856143b5565b61312c83876143b5565b8861313786896143b5565b61314191906143b5565b61314b919061450b565b613155919061450b565b61315f919061450b565b98975050505050505050565b60006020828403121561317d57600080fd5b81356001600160401b0381111561319357600080fd5b82016101408185031215611e7557600080fd5b6001600160a01b038116811461184f57600080fd5b6000602082840312156131cd57600080fd5b8135611e75816131a6565b80356131e3816131a6565b919050565b634e487b7160e01b600052604160045260246000fd5b60405161040081016001600160401b0381118282101715613221576132216131e8565b60405290565b60405160a081016001600160401b0381118282101715613221576132216131e8565b60405161010081016001600160401b0381118282101715613221576132216131e8565b604051601f8201601f191681016001600160401b0381118282101715613294576132946131e8565b604052919050565b60006001600160401b038211156132b5576132b56131e8565b50601f01601f191660200190565b600082601f8301126132d457600080fd5b81356132e76132e28261329c565b61326c565b8181528460208386010111156132fc57600080fd5b816020850160208301376000918101602001919091529392505050565b60008060006060848603121561332e57600080fd5b8335613339816131a6565b925060208401356001600160401b0381111561335457600080fd5b613360868287016132c3565b925050604084013590509250925092565b634e487b7160e01b600052602160045260246000fd5b6005811061339757613397613371565b9052565b60005b838110156133b657818101518382015260200161339e565b83811115610f755750506000910152565b600081518084526133df81602086016020860161339b565b601f01601f19169290920160200192915050565b60208152613405602082018351613387565b6000602083015161342160408401826001600160a01b03169052565b5060408301516001600160a01b03811660608401525060608301516104008060808501526134536104208501836133c7565b9150608085015161346860a086018215159052565b5060a085015160c085015260c085015160e085015260e0850151610100613499818701836001600160a01b03169052565b860151610120868101919091528601516101408087019190915286015161016080870191909152860151610180808701919091528601516101a0808701919091528601516101c0808701919091528601516101e08087019190915286015161020080870191909152860151610220808701919091528601516102408087019190915286015161026080870191909152860151610280808701919091528601516102a0808701919091528601516102c0808701919091528601516102e08087019190915286015161030080870191909152860151610320808701919091528601516103408087019190915286015161036080870191909152860151610380808701919091528601516103a0808701919091528601516103c0808701919091528601516103e0808701919091529095015193019290925250919050565b60006101c08284031215612cf357600080fd5b600080604083850312156135fa57600080fd5b82356001600160401b0381111561361057600080fd5b61361c858286016135d4565b95602094909401359450505050565b6003811061184f57600080fd5b600080600080600060a0868803121561365057600080fd5b853561365b8161362b565b9450602086013561366b816131a6565b94979496505050506040830135926060810135926080909101359150565b6000806040838503121561369c57600080fd5b8235915060208301356001600160401b038111156136b957600080fd5b6136c5858286016132c3565b9150509250929050565b600080604083850312156136e257600080fd5b82356001600160401b038111156136f857600080fd5b8301610160818603121561370b57600080fd5b946020939093013593505050565b60006101008284031215612cf357600080fd5b60006020828403121561373e57600080fd5b81356001600160401b0381111561375457600080fd5b61376084828501613719565b949350505050565b6000806040838503121561377b57600080fd5b823561370b816131a6565b60006020828403121561379857600080fd5b5035919050565b600080604083850312156137b257600080fd5b82356001600160401b038111156137c857600080fd5b61361c85828601613719565b60006101208284031215612cf357600080fd5b600080604083850312156137fa57600080fd5b82356001600160401b0381111561381057600080fd5b61381c858286016137d4565b925050602083013561382d816131a6565b809150509250929050565b6000806040838503121561384b57600080fd5b50508035926020909101359150565b6040808252835182820181905260009190606090818501906020808901865b838110156138c457815180516001600160a01b031686528381015184870152878101518887015286810151878701526080908101519086015260a09094019390820190600101613879565b505095909501959095525092949350505050565b6000806000604084860312156138ed57600080fd5b83356001600160401b038082111561390457600080fd5b818601915086601f83011261391857600080fd5b81358181111561392757600080fd5b8760208260051b850101111561393c57600080fd5b60209283019550935050840135613952816131a6565b809150509250925092565b602081526139776020820183516001600160a01b03169052565b6000602083015161399360408401826001600160a01b03169052565b5060408301516001600160a01b03811660608401525060608301516001600160a01b03811660808401525060808301516001600160a01b03811660a08401525060a08301516001600160a01b03811660c08401525060c08301516001600160a01b03811660e08401525060e0830151610100613a19818501836001600160a01b03169052565b8401519050610120613a35848201836001600160a01b03169052565b8401519050610140613a51848201836001600160a01b03169052565b8401519050610160613a6a8482018363ffffffff169052565b8401519050610180613a808482018360ff169052565b84015190506101a0613a968482018360ff169052565b84015190506101c0613aaf8482018363ffffffff169052565b808501519150506105c06101e08181860152613acf6105e08601846133c7565b90860151909250610200613aed868201836001600160a01b03169052565b8601519050610220613b028682018315159052565b8601519050610240613b1b8682018363ffffffff169052565b8601519050610260613b328682018361ffff169052565b8601519050610280613b4e868201836001600160401b03169052565b86015190506102a0613b6a868201836001600160401b03169052565b86015190506102c0613b86868201836001600160401b03169052565b86015190506102e0613ba2868201836001600160401b03169052565b8601519050610300613bbe868201836001600160401b03169052565b8601519050610320613bd38682018315159052565b8601519050610340613bef868201836001600160401b03169052565b8601519050610360613c0b868201836001600160401b03169052565b8601519050610380613c228682018361ffff169052565b86015190506103a0613c3b8682018363ffffffff169052565b86015190506103c0613c548682018363ffffffff169052565b86015190506103e0613c70868201836001600160401b03169052565b8601519050610400613c8c868201836001600160801b03169052565b8601519050610420613ca38682018361ffff169052565b8601519050610440613cba8682018361ffff169052565b8601519050610460613cd6868201836001600160801b03169052565b8601519050610480613cf2868201836001600160401b03169052565b86015190506104a0613d0e868201836001600160401b03169052565b86015190506104c0613d2a868201836001600160401b03169052565b86015190506104e0613d46868201836001600160401b03169052565b8601519050610500613d62868201836001600160401b03169052565b8601519050610520613d7e868201836001600160401b03169052565b8601519050610540613d9a868201836001600160401b03169052565b8601519050610560613db38682018363ffffffff169052565b8601519050610580613dcf868201836001600160401b03169052565b86015190506105a0613deb868201836001600160401b03169052565b8601516001600160401b0381168387015290505b5090949350505050565b600060208284031215613e1b57600080fd5b81356001600160401b03811115613e3157600080fd5b613760848285016135d4565b600080600060608486031215613e5257600080fd5b83356001600160401b03811115613e6857600080fd5b613e74868287016135d4565b9350506020840135613e85816131a6565b929592945050506040919091013590565b60008060408385031215613ea957600080fd5b8235613eb4816131a6565b9150602083013561382d816131a6565b60008060408385031215613ed757600080fd5b82356001600160401b03811115613eed57600080fd5b61381c858286016135d4565b6003811061184f5761184f613371565b60006101008251613f1981613ef9565b84526020838101516001600160a01b0316908501526040808401519085015260608084015190850152608080840151908501829052613f5a828601826133c7565b91505060a083015160a085015260c083015160c085015260e083015160e08501528091505092915050565b6000602080830181845280855180835260408601915060408160051b870101925083870160005b82811015613fda57603f19888603018452613fc8858351613f09565b94509285019290850190600101613fac565b5092979650505050505050565b801515811461184f57600080fd5b80356131e381613fe7565b60006020828403121561401257600080fd5b8135611e7581613fe7565b60008060006060848603121561403257600080fd5b833561403d816131a6565b95602085013595506040909401359392505050565b604080825283519082018190526000906020906060840190828701845b828110156140945781516001600160a01b03168452928401929084019060010161406f565b50505092019290925292915050565b600080604083850312156140b657600080fd5b82356140c1816131a6565b915060208301356001600160401b038111156136b957600080fd5b6000806000606084860312156140f157600080fd5b83356001600160401b038082111561410857600080fd5b614114878388016137d4565b9450602086013591508082111561412a57600080fd5b50614137868287016137d4565b9250506040840135613952816131a6565b60008060006060848603121561415d57600080fd5b8335614168816131a6565b92506020840135613e85816131a6565b6000806000806080858703121561418e57600080fd5b8435614199816131a6565b935060208501356141a9816131a6565b92506040850135915060608501356001600160401b038111156141cb57600080fd5b6141d7878288016132c3565b91505092959194509250565b6000806000604084860312156141f857600080fd5b8335925060208401356001600160401b038082111561421657600080fd5b818601915086601f83011261422a57600080fd5b81358181111561423957600080fd5b87602082850101111561424b57600080fd5b6020830194508093505050509250925092565b6000806040838503121561427157600080fd5b8235613eb48161362b565b602081526000611e756020830184613f09565b6000806000606084860312156142a457600080fd5b83356141688161362b565b634e487b7160e01b600052601160045260246000fd5b600181815b808511156143005781600019048211156142e6576142e66142af565b808516156142f357918102915b93841c93908002906142ca565b509250929050565b60008261431757506001611109565b8161432457506000611109565b816001811461433a576002811461434457614360565b6001915050611109565b60ff841115614355576143556142af565b50506001821b611109565b5060208310610133831016604e8410600b8410161715614383575081810a611109565b61438d83836142c5565b80600019048211156143a1576143a16142af565b029392505050565b6000611e758383614308565b60008160001904831182151516156143cf576143cf6142af565b500290565b6000808335601e198436030181126143eb57600080fd5b83016020810192503590506001600160401b0381111561440a57600080fd5b80360383131561176e57600080fd5b81835281816020850137506000828201602090810191909152601f909101601f19169091010190565b61444b84613ef9565b8381526001600160a01b038316602082015260606040820152600061447083806143d4565b6101408060608601526144886101a086018385614419565b9250614496602087016131d8565b6001600160a01b03811660808701529150604086013560a0860152606086013560c0860152608086013560e0860152610100915060a08601358286015261012060c08701358187015260e087013582870152828701356101608701528087013561018087015250505080915050949350505050565b6000821982111561451e5761451e6142af565b500190565b6001600160a01b0384168152606060208201819052600090614547908301856133c7565b9050826040830152949350505050565b60006020828403121561456957600080fd5b5051919050565b8051600581106131e357600080fd5b80516131e3816131a6565b600082601f83011261459b57600080fd5b81516145a96132e28261329c565b8181528460208386010111156145be57600080fd5b61376082602083016020870161339b565b80516131e381613fe7565b6000602082840312156145ec57600080fd5b81516001600160401b038082111561460357600080fd5b90830190610400828603121561461857600080fd5b6146206131fe565b61462983614570565b81526146376020840161457f565b60208201526146486040840161457f565b604082015260608301518281111561465f57600080fd5b61466b8782860161458a565b60608301525061467d608084016145cf565b608082015260a083015160a082015260c083015160c08201526146a260e0840161457f565b60e0820152610100838101519082015261012080840151908201526101408084015190820152610160808401519082015261018080840151908201526101a080840151908201526101c080840151908201526101e08084015190820152610200808401519082015261022080840151908201526102408084015190820152610260808401519082015261028080840151908201526102a080840151908201526102c080840151908201526102e08084015190820152610300808401519082015261032080840151908201526103408084015190820152610360808401519082015261038080840151908201526103a080840151908201526103c080840151908201526103e09283015192810192909252509392505050565b6000808335601e198436030181126147d157600080fd5b83016020810192503590506001600160401b038111156147f057600080fd5b8060051b360383131561176e57600080fd5b81835260006001600160fb1b0383111561481b57600080fd5b8260051b8083602087013760009401602001938452509192915050565b80356001600160401b03811681146131e357600080fd5b803560ff811681146131e357600080fd5b60006101c08235845261487660208401846147ba565b8260208701526148898387018284614802565b9250505061489960408401614838565b6001600160401b031660408501526148b360608401614838565b6001600160401b03166060850152608083810135908501526148d760a0840161484f565b60ff1660a08501526148eb60c0840161484f565b60ff1660c085015260e083810135908501526101008084013590850152610120808401359085015261014080840135908501526101608084013590850152610180614937818501613ff5565b1515908501526101a061494b84820161484f565b60ff811686830152613dff565b60408152600061496b6040830185614860565b90506001600160401b03831660208301529392505050565b60a0810161499087613ef9565b9581526001600160a01b039490941660208501526040840192909252606083015260809091015290565b6001600160a01b03841681526001600160401b03831660208201526060604082018190526000906149ed908301846133c7565b95945050505050565b80356001600160801b03811681146131e357600080fd5b60408152823560408201526000614a2760208501856147ba565b610160806060860152614a3f6101a086018385614802565b9250614a4d60408801614838565b6001600160401b03811660808701529150614a6a60608801614838565b6001600160401b03811660a08701529150608087013560c086015260a087013560e0860152614a9b60c088016149f6565b9150610100614ab4818701846001600160801b03169052565b614ac060e08901614838565b9250610120614ad9818801856001600160401b03169052565b614ae4828a01614838565b93506101409150614aff828801856001600160401b03169052565b614b0a818a01614838565b935050614b21828701846001600160401b03169052565b614b2c818901614838565b92505050614b466101808501826001600160401b03169052565b506001600160401b03841660208401529050611e75565b600061010082358452614b7360208401846147ba565b826020870152614b868387018284614802565b92505050614b9660408401614838565b6001600160401b03808216604087015280614bb360608701614838565b16606087015260ff614bc76080870161484f565b16608087015280614bda60a08701614838565b1660a08701525050614bee60c08401614838565b6001600160401b031660c0850152614c0860e08401614838565b6001600160401b03811660e0860152509392505050565b602081526000611e756020830184614b5d565b60608101614c3f85613ef9565b9381526001600160a01b0392909216602083015260409091015290565b600060208284031215614c6e57600080fd5b8151611e7581613fe7565b60408152600061496b6040830185614b5d565b600061012082358452614ca260208401846147ba565b826020870152614cb58387018284614802565b925050506001600160401b03614ccd60408501614838565b166040850152614cdf60608401614838565b6001600160401b0316606085015260808381013590850152614d0360a0840161484f565b60ff1660a085015260c0838101359085015260e080840135908501526101009283013592909301919091525090565b604081526000614d456040830185614c8c565b905060018060a01b03831660208301529392505050565b60006001600160401b03821115614d7557614d756131e8565b5060051b60200190565b6000806040808486031215614d9357600080fd5b83516001600160401b03811115614da957600080fd5b8401601f81018613614dba57600080fd5b80516020614dca6132e283614d5c565b82815260a0928302840182019282820191908a851115614de957600080fd5b948301945b84861015614e4e5780868c031215614e065760008081fd5b614e0e613227565b8651614e19816131a6565b815286850151858201528787015188820152606080880151908201526080808801519082015283529485019491830191614dee565b5097909101519698969750505050505050565b6040808252810183905260006060600585901b830181019083018683805b88811015614ec757868503605f190184528235368b900361011e19018112614ea5578283fd5b614eb1868c8301614c8c565b9550506020938401939290920191600101614e7f565b505050506001600160a01b0393909316602092909201919091525092915050565b600181811c90821680614efc57607f821691505b60208210811415612cf357634e487b7160e01b600052602260045260246000fd5b602081526000611e756020830184614860565b6020808252601f908201527f5265656e7472616e637947756172643a207265656e7472616e742063616c6c00604082015260600190565b606081526000614f7a6060830186614860565b6001600160a01b03949094166020830152506001600160401b0391909116604090910152919050565b6020815260008235614fb48161362b565b614fbd81613ef9565b806020840152506020830135614fd2816131a6565b6001600160a01b038116604084015250604083013560608301526060830135608083015261500360808401846143d4565b6101008060a086015261501b61012086018385614419565b925060a086013560c086015260c086013560e086015260e08601358186015250508091505092915050565b604081526000614d456040830185614860565b80516131e38161362b565b6000610100828403121561507757600080fd5b61507f613249565b905061508a82615059565b81526150986020830161457f565b6020820152604082015160408201526060820151606082015260808201516001600160401b038111156150ca57600080fd5b6150d68482850161458a565b60808301525060a082015160a082015260c082015160c082015260e082015160e082015292915050565b6000602080838503121561511357600080fd5b82516001600160401b038082111561512a57600080fd5b818501915085601f83011261513e57600080fd5b815161514c6132e282614d5c565b81815260059190911b8301840190848101908883111561516b57600080fd5b8585015b838110156151a3578051858111156151875760008081fd5b6151958b89838a0101615064565b84525091860191860161516f565b5098975050505050505050565b6000806000606084860312156151c557600080fd5b8351925060208401519150604084015190509250925092565b600080604083850312156151f157600080fd5b82516001600160401b0381111561520757600080fd5b8301601f8101851361521857600080fd5b805160206152286132e283614d5c565b82815260059290921b8301810191818101908884111561524757600080fd5b938201935b8385101561526e57845161525f816131a6565b8252938201939082019061524c565b969091015195979596505050505050565b6001600160a01b0383168152604060208201819052600090613760908301846133c7565b6060815260006152b66060830186614c8c565b82810360208401526152c88186614c8c565b91505060018060a01b0383166040830152949350505050565b60006001600160401b0380831681851681830481118215151615615307576153076142af565b02949350505050565b6001600160a01b0385811682528416602082015260408101839052608060608201819052600090615343908301846133c7565b9695505050505050565b8381526040602082015260006149ed604083018486614419565b6040810161537484613ef9565b9281526001600160a01b039190911660209091015290565b60006020828403121561539e57600080fd5b81516001600160401b038111156153b457600080fd5b61376084828501615064565b602081526000611e7560208301846133c7565b600082516153e581846020870161339b565b9190910192915050565b634e487b7160e01b600052603260045260246000fd5b60006020828403121561541757600080fd5b8151611e75816131a6565b634e487b7160e01b600052600160045260246000fd5b60008282101561544a5761544a6142af565b500390565b634e487b7160e01b600052601260045260246000fd5b6000826154745761547461544f565b500490565b6000826154885761548861544f565b50069056feec7e8c1c441439dd40959777f4c577ea0cd42fcc1dbe59d2bd0f5d9c55df8dd7ec7e8c1c441439dd40959777f4c577ea0cd42fcc1dbe59d2bd0f5d9c55df8db6a264697066735822122098be380f752d7482aa772afdcd643319ef73d145fa9a3a92a11ff52e9f6ca48b64736f6c634300080b0033",
  "linkReferences": {
    "contracts/fasset/library/AgentSettingsUpdater.sol": {
      "AgentSettingsUpdater": [
        {
          "length": 20,
          "start": 7958
        },
        {
          "length": 20,
          "start": 13560
        }
      ]
    },
    "contracts/fasset/library/AgentsCreateDestroy.sol": {
      "AgentsCreateDestroy": [
        {
          "length": 20,
          "start": 7451
        },
        {
          "length": 20,
          "start": 8890
        },
        {
          "length": 20,
          "start": 9757
        },
        {
          "length": 20,
          "start": 11560
        },
        {
          "length": 20,
          "start": 12498
        }
      ]
    },
    "contracts/fasset/library/AgentsExternal.sol": {
      "AgentsExternal": [
        {
          "length": 20,
          "start": 7647
        },
        {
          "length": 20,
          "start": 8994
        },
        {
          "length": 20,
          "start": 9082
        },
        {
          "length": 20,
          "start": 9885
        },
        {
          "length": 20,
          "start": 11813
        },
        {
          "length": 20,
          "start": 13850
        },
        {
          "length": 20,
          "start": 14386
        },
        {
          "length": 20,
          "start": 14435
        }
      ]
    },
    "contracts/fasset/library/AvailableAgents.sol": {
      "AvailableAgents": [
        {
          "length": 20,
          "start": 7577
        },
        {
          "length": 20,
          "start": 9288
        },
        {
          "length": 20,
          "start": 9821
        },
        {
          "length": 20,
          "start": 10005
        },
        {
          "length": 20,
          "start": 13447
        }
      ]
    },
    "contracts/fasset/library/Challenges.sol": {
      "Challenges": [
        {
          "length": 20,
          "start": 9685
        },
        {
          "length": 20,
          "start": 10138
        },
        {
          "length": 20,
          "start": 13625
        }
      ]
    },
    "contracts/fasset/library/CollateralReservations.sol": {
      "CollateralReservations": [
        {
          "length": 20,
          "start": 9120
        },
        {
          "length": 20,
          "start": 9921
        },
        {
          "length": 20,
          "start": 12828
        },
        {
          "length": 20,
          "start": 13215
        }
      ]
    },
    "contracts/fasset/library/CollateralTokens.sol": {
      "CollateralTokens": [
        {
          "length": 20,
          "start": 177
        },
        {
          "length": 20,
          "start": 8617
        },
        {
          "length": 20,
          "start": 12072
        },
        {
          "length": 20,
          "start": 12173
        },
        {
          "length": 20,
          "start": 13372
        },
        {
          "length": 20,
          "start": 14245
        },
        {
          "length": 20,
          "start": 14503
        }
      ]
    },
    "contracts/fasset/library/FullAgentInfo.sol": {
      "FullAgentInfo": [
        {
          "length": 20,
          "start": 8373
        }
      ]
    },
    "contracts/fasset/library/Liquidation.sol": {
      "Liquidation": [
        {
          "length": 20,
          "start": 12562
        },
        {
          "length": 20,
          "start": 12702
        },
        {
          "length": 20,
          "start": 13315
        }
      ]
    },
    "contracts/fasset/library/Minting.sol": {
      "Minting": [
        {
          "length": 20,
          "start": 11650
        },
        {
          "length": 20,
          "start": 12989
        }
      ]
    },
    "contracts/fasset/library/RedemptionConfirmations.sol": {
      "RedemptionConfirmations": [
        {
          "length": 20,
          "start": 8479
        }
      ]
    },
    "contracts/fasset/library/RedemptionFailures.sol": {
      "RedemptionFailures": [
        {
          "length": 20,
          "start": 8797
        },
        {
          "length": 20,
          "start": 9599
        }
      ]
    },
    "contracts/fasset/library/RedemptionRequests.sol": {
      "RedemptionRequests": [
        {
          "length": 20,
          "start": 8730
        },
        {
          "length": 20,
          "start": 11951
        },
        {
          "length": 20,
          "start": 13783
        },
        {
          "length": 20,
          "start": 13956
        }
      ]
    },
    "contracts/fasset/library/SettingsUpdater.sol": {
      "SettingsUpdater": [
        {
          "length": 20,
          "start": 72
        },
        {
          "length": 20,
          "start": 14104
        }
      ]
    },
    "contracts/fasset/library/StateUpdater.sol": {
      "StateUpdater": [
        {
          "length": 20,
          "start": 8939
        }
      ]
    },
    "contracts/fasset/library/UnderlyingFreeBalance.sol": {
      "UnderlyingFreeBalance": [
        {
          "length": 20,
          "start": 13899
        }
      ]
    },
    "contracts/fasset/library/UnderlyingWithdrawalAnnouncements.sol": {
      "UnderlyingWithdrawalAnnouncements": [
        {
          "length": 20,
          "start": 12015
        },
        {
          "length": 20,
          "start": 12127
        },
        {
          "length": 20,
          "start": 13139
        }
      ]
    }
  },
  "deployedLinkReferences": {
    "contracts/fasset/library/AgentSettingsUpdater.sol": {
      "AgentSettingsUpdater": [
        {
          "length": 20,
          "start": 3848
        },
        {
          "length": 20,
          "start": 9450
        }
      ]
    },
    "contracts/fasset/library/AgentsCreateDestroy.sol": {
      "AgentsCreateDestroy": [
        {
          "length": 20,
          "start": 3341
        },
        {
          "length": 20,
          "start": 4780
        },
        {
          "length": 20,
          "start": 5647
        },
        {
          "length": 20,
          "start": 7450
        },
        {
          "length": 20,
          "start": 8388
        }
      ]
    },
    "contracts/fasset/library/AgentsExternal.sol": {
      "AgentsExternal": [
        {
          "length": 20,
          "start": 3537
        },
        {
          "length": 20,
          "start": 4884
        },
        {
          "length": 20,
          "start": 4972
        },
        {
          "length": 20,
          "start": 5775
        },
        {
          "length": 20,
          "start": 7703
        },
        {
          "length": 20,
          "start": 9740
        },
        {
          "length": 20,
          "start": 10276
        },
        {
          "length": 20,
          "start": 10325
        }
      ]
    },
    "contracts/fasset/library/AvailableAgents.sol": {
      "AvailableAgents": [
        {
          "length": 20,
          "start": 3467
        },
        {
          "length": 20,
          "start": 5178
        },
        {
          "length": 20,
          "start": 5711
        },
        {
          "length": 20,
          "start": 5895
        },
        {
          "length": 20,
          "start": 9337
        }
      ]
    },
    "contracts/fasset/library/Challenges.sol": {
      "Challenges": [
        {
          "length": 20,
          "start": 5575
        },
        {
          "length": 20,
          "start": 6028
        },
        {
          "length": 20,
          "start": 9515
        }
      ]
    },
    "contracts/fasset/library/CollateralReservations.sol": {
      "CollateralReservations": [
        {
          "length": 20,
          "start": 5010
        },
        {
          "length": 20,
          "start": 5811
        },
        {
          "length": 20,
          "start": 8718
        },
        {
          "length": 20,
          "start": 9105
        }
      ]
    },
    "contracts/fasset/library/CollateralTokens.sol": {
      "CollateralTokens": [
        {
          "length": 20,
          "start": 4507
        },
        {
          "length": 20,
          "start": 7962
        },
        {
          "length": 20,
          "start": 8063
        },
        {
          "length": 20,
          "start": 9262
        },
        {
          "length": 20,
          "start": 10135
        },
        {
          "length": 20,
          "start": 10393
        }
      ]
    },
    "contracts/fasset/library/FullAgentInfo.sol": {
      "FullAgentInfo": [
        {
          "length": 20,
          "start": 4263
        }
      ]
    },
    "contracts/fasset/library/Liquidation.sol": {
      "Liquidation": [
        {
          "length": 20,
          "start": 8452
        },
        {
          "length": 20,
          "start": 8592
        },
        {
          "length": 20,
          "start": 9205
        }
      ]
    },
    "contracts/fasset/library/Minting.sol": {
      "Minting": [
        {
          "length": 20,
          "start": 7540
        },
        {
          "length": 20,
          "start": 8879
        }
      ]
    },
    "contracts/fasset/library/RedemptionConfirmations.sol": {
      "RedemptionConfirmations": [
        {
          "length": 20,
          "start": 4369
        }
      ]
    },
    "contracts/fasset/library/RedemptionFailures.sol": {
      "RedemptionFailures": [
        {
          "length": 20,
          "start": 4687
        },
        {
          "length": 20,
          "start": 5489
        }
      ]
    },
    "contracts/fasset/library/RedemptionRequests.sol": {
      "RedemptionRequests": [
        {
          "length": 20,
          "start": 4620
        },
        {
          "length": 20,
          "start": 7841
        },
        {
          "length": 20,
          "start": 9673
        },
        {
          "length": 20,
          "start": 9846
        }
      ]
    },
    "contracts/fasset/library/SettingsUpdater.sol": {
      "SettingsUpdater": [
        {
          "length": 20,
          "start": 9994
        }
      ]
    },
    "contracts/fasset/library/StateUpdater.sol": {
      "StateUpdater": [
        {
          "length": 20,
          "start": 4829
        }
      ]
    },
    "contracts/fasset/library/UnderlyingFreeBalance.sol": {
      "UnderlyingFreeBalance": [
        {
          "length": 20,
          "start": 9789
        }
      ]
    },
    "contracts/fasset/library/UnderlyingWithdrawalAnnouncements.sol": {
      "UnderlyingWithdrawalAnnouncements": [
        {
          "length": 20,
          "start": 7905
        },
        {
          "length": 20,
          "start": 8017
        },
        {
          "length": 20,
          "start": 9029
        }
      ]
    }
  }
}