{
  "_format": "hh-sol-artifact-1",
  "contractName": "AssetManager",
  "sourceName": "contracts/fasset/implementation/AssetManager.sol",
  "abi": [
    {
      "inputs": [
        {
          "components": [
            {
              "internalType": "address",
              "name": "assetManagerController",
              "type": "address"
            },
            {
              "internalType": "contract IFAsset",
              "name": "fAsset",
              "type": "address"
            },
            {
              "internalType": "contract IAgentVaultFactory",
              "name": "agentVaultFactory",
              "type": "address"
            },
            {
              "internalType": "contract ICollateralPoolFactory",
              "name": "collateralPoolFactory",
              "type": "address"
            },
            {
              "internalType": "contract IWhitelist",
              "name": "whitelist",
              "type": "address"
            },
            {
              "internalType": "contract IWhitelist",
              "name": "agentWhitelist",
              "type": "address"
            },
            {
              "internalType": "contract IAttestationClient",
              "name": "attestationClient",
              "type": "address"
            },
            {
              "internalType": "contract IAddressValidator",
              "name": "underlyingAddressValidator",
              "type": "address"
            },
            {
              "internalType": "address",
              "name": "liquidationStrategy",
              "type": "address"
            },
            {
              "internalType": "contract IFtsoRegistry",
              "name": "ftsoRegistry",
              "type": "address"
            },
            {
              "internalType": "uint8",
              "name": "assetDecimals",
              "type": "uint8"
            },
            {
              "internalType": "uint8",
              "name": "assetMintingDecimals",
              "type": "uint8"
            },
            {
              "internalType": "uint32",
              "name": "mintingPoolHoldingsRequiredBIPS",
              "type": "uint32"
            },
            {
              "internalType": "address payable",
              "name": "burnAddress",
              "type": "address"
            },
            {
              "internalType": "bool",
              "name": "burnWithSelfDestruct",
              "type": "bool"
            },
            {
              "internalType": "uint32",
              "name": "chainId",
              "type": "uint32"
            },
            {
              "internalType": "uint16",
              "name": "collateralReservationFeeBIPS",
              "type": "uint16"
            },
            {
              "internalType": "uint64",
              "name": "assetUnitUBA",
              "type": "uint64"
            },
            {
              "internalType": "uint64",
              "name": "assetMintingGranularityUBA",
              "type": "uint64"
            },
            {
              "internalType": "uint64",
              "name": "lotSizeAMG",
              "type": "uint64"
            },
            {
              "internalType": "uint16",
              "name": "minUnderlyingBackingBIPS",
              "type": "uint16"
            },
            {
              "internalType": "uint64",
              "name": "mintingCapAMG",
              "type": "uint64"
            },
            {
              "internalType": "uint64",
              "name": "maxTrustedPriceAgeSeconds",
              "type": "uint64"
            },
            {
              "internalType": "bool",
              "name": "requireEOAAddressProof",
              "type": "bool"
            },
            {
              "internalType": "uint64",
              "name": "underlyingBlocksForPayment",
              "type": "uint64"
            },
            {
              "internalType": "uint64",
              "name": "underlyingSecondsForPayment",
              "type": "uint64"
            },
            {
              "internalType": "uint16",
              "name": "redemptionFeeBIPS",
              "type": "uint16"
            },
            {
              "internalType": "uint32",
              "name": "redemptionDefaultFactorAgentC1BIPS",
              "type": "uint32"
            },
            {
              "internalType": "uint32",
              "name": "redemptionDefaultFactorPoolBIPS",
              "type": "uint32"
            },
            {
              "internalType": "uint64",
              "name": "confirmationByOthersAfterSeconds",
              "type": "uint64"
            },
            {
              "internalType": "uint128",
              "name": "confirmationByOthersRewardUSD5",
              "type": "uint128"
            },
            {
              "internalType": "uint16",
              "name": "maxRedeemedTickets",
              "type": "uint16"
            },
            {
              "internalType": "uint16",
              "name": "paymentChallengeRewardBIPS",
              "type": "uint16"
            },
            {
              "internalType": "uint128",
              "name": "paymentChallengeRewardUSD5",
              "type": "uint128"
            },
            {
              "internalType": "uint64",
              "name": "withdrawalWaitMinSeconds",
              "type": "uint64"
            },
            {
              "internalType": "uint64",
              "name": "ccbTimeSeconds",
              "type": "uint64"
            },
            {
              "internalType": "uint64",
              "name": "attestationWindowSeconds",
              "type": "uint64"
            },
            {
              "internalType": "uint64",
              "name": "minUpdateRepeatTimeSeconds",
              "type": "uint64"
            },
            {
              "internalType": "uint64",
              "name": "buybackCollateralFactorBIPS",
              "type": "uint64"
            },
            {
              "internalType": "uint64",
              "name": "announcedUnderlyingConfirmationMinSeconds",
              "type": "uint64"
            },
            {
              "internalType": "uint64",
              "name": "tokenInvalidationTimeMinSeconds",
              "type": "uint64"
            },
            {
              "internalType": "uint32",
              "name": "class1BuyForFlareFactorBIPS",
              "type": "uint32"
            },
            {
              "internalType": "uint64",
              "name": "agentExitAvailableTimelockSeconds",
              "type": "uint64"
            },
            {
              "internalType": "uint64",
              "name": "agentFeeChangeTimelockSeconds",
              "type": "uint64"
            },
            {
              "internalType": "uint64",
              "name": "agentCollateralRatioChangeTimelockSeconds",
              "type": "uint64"
            }
          ],
          "internalType": "struct AssetManagerSettings.Data",
          "name": "_settings",
          "type": "tuple"
        },
        {
          "components": [
            {
              "internalType": "enum IAssetManager.CollateralClass",
              "name": "collateralClass",
              "type": "uint8"
            },
            {
              "internalType": "contract IERC20",
              "name": "token",
              "type": "address"
            },
            {
              "internalType": "uint256",
              "name": "decimals",
              "type": "uint256"
            },
            {
              "internalType": "uint256",
              "name": "validUntil",
              "type": "uint256"
            },
            {
              "internalType": "bool",
              "name": "directPricePair",
              "type": "bool"
            },
            {
              "internalType": "string",
              "name": "assetFtsoSymbol",
              "type": "string"
            },
            {
              "internalType": "string",
              "name": "tokenFtsoSymbol",
              "type": "string"
            },
            {
              "internalType": "uint256",
              "name": "minCollateralRatioBIPS",
              "type": "uint256"
            },
            {
              "internalType": "uint256",
              "name": "ccbMinCollateralRatioBIPS",
              "type": "uint256"
            },
            {
              "internalType": "uint256",
              "name": "safetyMinCollateralRatioBIPS",
              "type": "uint256"
            }
          ],
          "internalType": "struct IAssetManager.CollateralType[]",
          "name": "_initialCollateralTypes",
          "type": "tuple[]"
        },
        {
          "internalType": "bytes",
          "name": "_initialLiquidationSettings",
          "type": "bytes"
        }
      ],
      "stateMutability": "nonpayable",
      "type": "constructor"
    },
    {
      "anonymous": false,
      "inputs": [
        {
          "indexed": true,
          "internalType": "address",
          "name": "agentVault",
          "type": "address"
        },
        {
          "indexed": false,
          "internalType": "uint256",
          "name": "feeBIPS",
          "type": "uint256"
        },
        {
          "indexed": false,
          "internalType": "uint256",
          "name": "mintingClass1CollateralRatioBIPS",
          "type": "uint256"
        },
        {
          "indexed": false,
          "internalType": "uint256",
          "name": "mintingPoolCollateralRatioBIPS",
          "type": "uint256"
        },
        {
          "indexed": false,
          "internalType": "uint256",
          "name": "freeCollateralLots",
          "type": "uint256"
        }
      ],
      "name": "AgentAvailable",
      "type": "event"
    },
    {
      "anonymous": false,
      "inputs": [
        {
          "indexed": true,
          "internalType": "address",
          "name": "agentVault",
          "type": "address"
        },
        {
          "indexed": false,
          "internalType": "uint8",
          "name": "collateralClass",
          "type": "uint8"
        },
        {
          "indexed": false,
          "internalType": "address",
          "name": "token",
          "type": "address"
        }
      ],
      "name": "AgentCollateralTypeChanged",
      "type": "event"
    },
    {
      "anonymous": false,
      "inputs": [
        {
          "indexed": true,
          "internalType": "address",
          "name": "owner",
          "type": "address"
        },
        {
          "indexed": false,
          "internalType": "address",
          "name": "agentVault",
          "type": "address"
        },
        {
          "indexed": false,
          "internalType": "address",
          "name": "collateralPool",
          "type": "address"
        },
        {
          "indexed": false,
          "internalType": "string",
          "name": "underlyingAddress",
          "type": "string"
        },
        {
          "indexed": false,
          "internalType": "address",
          "name": "class1CollateralToken",
          "type": "address"
        },
        {
          "indexed": false,
          "internalType": "uint256",
          "name": "feeBIPS",
          "type": "uint256"
        },
        {
          "indexed": false,
          "internalType": "uint256",
          "name": "poolFeeShareBIPS",
          "type": "uint256"
        },
        {
          "indexed": false,
          "internalType": "uint256",
          "name": "mintingClass1CollateralRatioBIPS",
          "type": "uint256"
        },
        {
          "indexed": false,
          "internalType": "uint256",
          "name": "mintingPoolCollateralRatioBIPS",
          "type": "uint256"
        },
        {
          "indexed": false,
          "internalType": "uint256",
          "name": "buyFAssetByAgentFactorBIPS",
          "type": "uint256"
        },
        {
          "indexed": false,
          "internalType": "uint256",
          "name": "poolExitCollateralRatioBIPS",
          "type": "uint256"
        },
        {
          "indexed": false,
          "internalType": "uint256",
          "name": "poolTopupCollateralRatioBIPS",
          "type": "uint256"
        },
        {
          "indexed": false,
          "internalType": "uint256",
          "name": "poolTopupTokenPriceFactorBIPS",
          "type": "uint256"
        }
      ],
      "name": "AgentCreated",
      "type": "event"
    },
    {
      "anonymous": false,
      "inputs": [
        {
          "indexed": true,
          "internalType": "address",
          "name": "agentVault",
          "type": "address"
        },
        {
          "indexed": false,
          "internalType": "uint256",
          "name": "destroyAllowedAt",
          "type": "uint256"
        }
      ],
      "name": "AgentDestroyAnnounced",
      "type": "event"
    },
    {
      "anonymous": false,
      "inputs": [
        {
          "indexed": true,
          "internalType": "address",
          "name": "agentVault",
          "type": "address"
        }
      ],
      "name": "AgentDestroyed",
      "type": "event"
    },
    {
      "anonymous": false,
      "inputs": [
        {
          "indexed": true,
          "internalType": "address",
          "name": "agentVault",
          "type": "address"
        },
        {
          "indexed": false,
          "internalType": "uint256",
          "name": "timestamp",
          "type": "uint256"
        }
      ],
      "name": "AgentInCCB",
      "type": "event"
    },
    {
      "anonymous": false,
      "inputs": [
        {
          "indexed": true,
          "internalType": "address",
          "name": "agentVault",
          "type": "address"
        },
        {
          "indexed": false,
          "internalType": "string",
          "name": "name",
          "type": "string"
        },
        {
          "indexed": false,
          "internalType": "uint256",
          "name": "value",
          "type": "uint256"
        },
        {
          "indexed": false,
          "internalType": "uint256",
          "name": "validAt",
          "type": "uint256"
        }
      ],
      "name": "AgentSettingChangeAnnounced",
      "type": "event"
    },
    {
      "anonymous": false,
      "inputs": [
        {
          "indexed": true,
          "internalType": "address",
          "name": "agentVault",
          "type": "address"
        },
        {
          "indexed": false,
          "internalType": "string",
          "name": "name",
          "type": "string"
        },
        {
          "indexed": false,
          "internalType": "uint256",
          "name": "value",
          "type": "uint256"
        }
      ],
      "name": "AgentSettingChanged",
      "type": "event"
    },
    {
      "anonymous": false,
      "inputs": [
        {
          "indexed": true,
          "internalType": "address",
          "name": "agentVault",
          "type": "address"
        },
        {
          "indexed": false,
          "internalType": "uint256",
          "name": "exitAllowedAt",
          "type": "uint256"
        }
      ],
      "name": "AvailableAgentExitAnnounced",
      "type": "event"
    },
    {
      "anonymous": false,
      "inputs": [
        {
          "indexed": true,
          "internalType": "address",
          "name": "agentVault",
          "type": "address"
        }
      ],
      "name": "AvailableAgentExited",
      "type": "event"
    },
    {
      "anonymous": false,
      "inputs": [
        {
          "indexed": true,
          "internalType": "address",
          "name": "agentVault",
          "type": "address"
        },
        {
          "indexed": false,
          "internalType": "uint256",
          "name": "amountWei",
          "type": "uint256"
        },
        {
          "indexed": false,
          "internalType": "uint256",
          "name": "withdrawalAllowedAt",
          "type": "uint256"
        }
      ],
      "name": "Class1WithdrawalAnnounced",
      "type": "event"
    },
    {
      "anonymous": false,
      "inputs": [
        {
          "indexed": false,
          "internalType": "uint8",
          "name": "collateralClass",
          "type": "uint8"
        },
        {
          "indexed": false,
          "internalType": "address",
          "name": "collateralToken",
          "type": "address"
        },
        {
          "indexed": false,
          "internalType": "uint256",
          "name": "minCollateralRatioBIPS",
          "type": "uint256"
        },
        {
          "indexed": false,
          "internalType": "uint256",
          "name": "ccbMinCollateralRatioBIPS",
          "type": "uint256"
        },
        {
          "indexed": false,
          "internalType": "uint256",
          "name": "safetyMinCollateralRatioBIPS",
          "type": "uint256"
        }
      ],
      "name": "CollateralRatiosChanged",
      "type": "event"
    },
    {
      "anonymous": false,
      "inputs": [
        {
          "indexed": true,
          "internalType": "address",
          "name": "agentVault",
          "type": "address"
        },
        {
          "indexed": true,
          "internalType": "address",
          "name": "minter",
          "type": "address"
        },
        {
          "indexed": false,
          "internalType": "uint256",
          "name": "collateralReservationId",
          "type": "uint256"
        },
        {
          "indexed": false,
          "internalType": "uint256",
          "name": "reservedAmountUBA",
          "type": "uint256"
        }
      ],
      "name": "CollateralReservationDeleted",
      "type": "event"
    },
    {
      "anonymous": false,
      "inputs": [
        {
          "indexed": true,
          "internalType": "address",
          "name": "agentVault",
          "type": "address"
        },
        {
          "indexed": true,
          "internalType": "address",
          "name": "minter",
          "type": "address"
        },
        {
          "indexed": false,
          "internalType": "uint256",
          "name": "collateralReservationId",
          "type": "uint256"
        },
        {
          "indexed": false,
          "internalType": "uint256",
          "name": "valueUBA",
          "type": "uint256"
        },
        {
          "indexed": false,
          "internalType": "uint256",
          "name": "feeUBA",
          "type": "uint256"
        },
        {
          "indexed": false,
          "internalType": "uint256",
          "name": "lastUnderlyingBlock",
          "type": "uint256"
        },
        {
          "indexed": false,
          "internalType": "uint256",
          "name": "lastUnderlyingTimestamp",
          "type": "uint256"
        },
        {
          "indexed": false,
          "internalType": "string",
          "name": "paymentAddress",
          "type": "string"
        },
        {
          "indexed": false,
          "internalType": "bytes32",
          "name": "paymentReference",
          "type": "bytes32"
        }
      ],
      "name": "CollateralReserved",
      "type": "event"
    },
    {
      "anonymous": false,
      "inputs": [
        {
          "indexed": false,
          "internalType": "uint8",
          "name": "collateralClass",
          "type": "uint8"
        },
        {
          "indexed": false,
          "internalType": "address",
          "name": "token",
          "type": "address"
        },
        {
          "indexed": false,
          "internalType": "uint256",
          "name": "decimals",
          "type": "uint256"
        },
        {
          "indexed": false,
          "internalType": "bool",
          "name": "directPricePair",
          "type": "bool"
        },
        {
          "indexed": false,
          "internalType": "string",
          "name": "assetFtsoSymbol",
          "type": "string"
        },
        {
          "indexed": false,
          "internalType": "string",
          "name": "tokenFtsoSymbol",
          "type": "string"
        },
        {
          "indexed": false,
          "internalType": "uint256",
          "name": "minCollateralRatioBIPS",
          "type": "uint256"
        },
        {
          "indexed": false,
          "internalType": "uint256",
          "name": "ccbMinCollateralRatioBIPS",
          "type": "uint256"
        },
        {
          "indexed": false,
          "internalType": "uint256",
          "name": "safetyMinCollateralRatioBIPS",
          "type": "uint256"
        }
      ],
      "name": "CollateralTypeAdded",
      "type": "event"
    },
    {
      "anonymous": false,
      "inputs": [
        {
          "indexed": false,
          "internalType": "uint8",
          "name": "collateralClass",
          "type": "uint8"
        },
        {
          "indexed": false,
          "internalType": "address",
          "name": "collateralToken",
          "type": "address"
        },
        {
          "indexed": false,
          "internalType": "uint256",
          "name": "validUntil",
          "type": "uint256"
        }
      ],
      "name": "CollateralTypeDeprecated",
      "type": "event"
    },
    {
      "anonymous": false,
      "inputs": [
        {
          "indexed": false,
          "internalType": "string",
          "name": "name",
          "type": "string"
        },
        {
          "indexed": false,
          "internalType": "address",
          "name": "value",
          "type": "address"
        }
      ],
      "name": "ContractChanged",
      "type": "event"
    },
    {
      "anonymous": false,
      "inputs": [
        {
          "indexed": true,
          "internalType": "address",
          "name": "agentVault",
          "type": "address"
        },
        {
          "indexed": false,
          "internalType": "bytes32",
          "name": "transactionHash1",
          "type": "bytes32"
        },
        {
          "indexed": false,
          "internalType": "bytes32",
          "name": "transactionHash2",
          "type": "bytes32"
        }
      ],
      "name": "DuplicatePaymentConfirmed",
      "type": "event"
    },
    {
      "anonymous": false,
      "inputs": [
        {
          "indexed": true,
          "internalType": "address",
          "name": "agentVault",
          "type": "address"
        },
        {
          "indexed": false,
          "internalType": "uint256",
          "name": "dustUBA",
          "type": "uint256"
        }
      ],
      "name": "DustChanged",
      "type": "event"
    },
    {
      "anonymous": false,
      "inputs": [
        {
          "indexed": true,
          "internalType": "address",
          "name": "agentVault",
          "type": "address"
        },
        {
          "indexed": false,
          "internalType": "uint256",
          "name": "redemptionTicketId",
          "type": "uint256"
        },
        {
          "indexed": false,
          "internalType": "uint256",
          "name": "valueUBA",
          "type": "uint256"
        }
      ],
      "name": "DustConvertedToTicket",
      "type": "event"
    },
    {
      "anonymous": false,
      "inputs": [
        {
          "indexed": true,
          "internalType": "address",
          "name": "agentVault",
          "type": "address"
        },
        {
          "indexed": false,
          "internalType": "uint256",
          "name": "timestamp",
          "type": "uint256"
        }
      ],
      "name": "FullLiquidationStarted",
      "type": "event"
    },
    {
      "anonymous": false,
      "inputs": [
        {
          "indexed": true,
          "internalType": "address",
          "name": "agentVault",
          "type": "address"
        },
        {
          "indexed": false,
          "internalType": "bytes32",
          "name": "transactionHash",
          "type": "bytes32"
        }
      ],
      "name": "IllegalPaymentConfirmed",
      "type": "event"
    },
    {
      "anonymous": false,
      "inputs": [
        {
          "indexed": true,
          "internalType": "address",
          "name": "agentVault",
          "type": "address"
        }
      ],
      "name": "LiquidationEnded",
      "type": "event"
    },
    {
      "anonymous": false,
      "inputs": [
        {
          "indexed": true,
          "internalType": "address",
          "name": "agentVault",
          "type": "address"
        },
        {
          "indexed": true,
          "internalType": "address",
          "name": "liquidator",
          "type": "address"
        },
        {
          "indexed": false,
          "internalType": "uint256",
          "name": "valueUBA",
          "type": "uint256"
        }
      ],
      "name": "LiquidationPerformed",
      "type": "event"
    },
    {
      "anonymous": false,
      "inputs": [
        {
          "indexed": true,
          "internalType": "address",
          "name": "agentVault",
          "type": "address"
        },
        {
          "indexed": false,
          "internalType": "uint256",
          "name": "timestamp",
          "type": "uint256"
        }
      ],
      "name": "LiquidationStarted",
      "type": "event"
    },
    {
      "anonymous": false,
      "inputs": [
        {
          "indexed": true,
          "internalType": "address",
          "name": "agentVault",
          "type": "address"
        },
        {
          "indexed": false,
          "internalType": "uint256",
          "name": "collateralReservationId",
          "type": "uint256"
        },
        {
          "indexed": false,
          "internalType": "uint256",
          "name": "redemptionTicketId",
          "type": "uint256"
        },
        {
          "indexed": false,
          "internalType": "uint256",
          "name": "mintedAmountUBA",
          "type": "uint256"
        },
        {
          "indexed": false,
          "internalType": "uint256",
          "name": "agentFeeUBA",
          "type": "uint256"
        },
        {
          "indexed": false,
          "internalType": "uint256",
          "name": "poolFeeUBA",
          "type": "uint256"
        }
      ],
      "name": "MintingExecuted",
      "type": "event"
    },
    {
      "anonymous": false,
      "inputs": [
        {
          "indexed": true,
          "internalType": "address",
          "name": "agentVault",
          "type": "address"
        },
        {
          "indexed": true,
          "internalType": "address",
          "name": "minter",
          "type": "address"
        },
        {
          "indexed": false,
          "internalType": "uint256",
          "name": "collateralReservationId",
          "type": "uint256"
        },
        {
          "indexed": false,
          "internalType": "uint256",
          "name": "reservedAmountUBA",
          "type": "uint256"
        }
      ],
      "name": "MintingPaymentDefault",
      "type": "event"
    },
    {
      "anonymous": false,
      "inputs": [
        {
          "indexed": true,
          "internalType": "address",
          "name": "agentVault",
          "type": "address"
        },
        {
          "indexed": false,
          "internalType": "uint256",
          "name": "amountWei",
          "type": "uint256"
        },
        {
          "indexed": false,
          "internalType": "uint256",
          "name": "withdrawalAllowedAt",
          "type": "uint256"
        }
      ],
      "name": "PoolTokenRedemptionAnnounced",
      "type": "event"
    },
    {
      "anonymous": false,
      "inputs": [
        {
          "indexed": true,
          "internalType": "address",
          "name": "agentVault",
          "type": "address"
        },
        {
          "indexed": true,
          "internalType": "address",
          "name": "redeemer",
          "type": "address"
        },
        {
          "indexed": false,
          "internalType": "uint256",
          "name": "redemptionAmountUBA",
          "type": "uint256"
        },
        {
          "indexed": false,
          "internalType": "uint256",
          "name": "redeemedClass1CollateralWei",
          "type": "uint256"
        },
        {
          "indexed": false,
          "internalType": "uint256",
          "name": "redeemedPoolCollateralWei",
          "type": "uint256"
        },
        {
          "indexed": false,
          "internalType": "uint64",
          "name": "requestId",
          "type": "uint64"
        }
      ],
      "name": "RedemptionDefault",
      "type": "event"
    },
    {
      "anonymous": false,
      "inputs": [
        {
          "indexed": true,
          "internalType": "address",
          "name": "agentVault",
          "type": "address"
        },
        {
          "indexed": true,
          "internalType": "address",
          "name": "redeemer",
          "type": "address"
        },
        {
          "indexed": false,
          "internalType": "bytes32",
          "name": "transactionHash",
          "type": "bytes32"
        },
        {
          "indexed": false,
          "internalType": "uint256",
          "name": "redemptionAmountUBA",
          "type": "uint256"
        },
        {
          "indexed": false,
          "internalType": "int256",
          "name": "spentUnderlyingUBA",
          "type": "int256"
        },
        {
          "indexed": false,
          "internalType": "uint64",
          "name": "requestId",
          "type": "uint64"
        }
      ],
      "name": "RedemptionPaymentBlocked",
      "type": "event"
    },
    {
      "anonymous": false,
      "inputs": [
        {
          "indexed": true,
          "internalType": "address",
          "name": "agentVault",
          "type": "address"
        },
        {
          "indexed": true,
          "internalType": "address",
          "name": "redeemer",
          "type": "address"
        },
        {
          "indexed": false,
          "internalType": "bytes32",
          "name": "transactionHash",
          "type": "bytes32"
        },
        {
          "indexed": false,
          "internalType": "int256",
          "name": "spentUnderlyingUBA",
          "type": "int256"
        },
        {
          "indexed": false,
          "internalType": "uint64",
          "name": "requestId",
          "type": "uint64"
        },
        {
          "indexed": false,
          "internalType": "string",
          "name": "failureReason",
          "type": "string"
        }
      ],
      "name": "RedemptionPaymentFailed",
      "type": "event"
    },
    {
      "anonymous": false,
      "inputs": [
        {
          "indexed": true,
          "internalType": "address",
          "name": "agentVault",
          "type": "address"
        },
        {
          "indexed": true,
          "internalType": "address",
          "name": "redeemer",
          "type": "address"
        },
        {
          "indexed": false,
          "internalType": "bytes32",
          "name": "transactionHash",
          "type": "bytes32"
        },
        {
          "indexed": false,
          "internalType": "uint256",
          "name": "redemptionAmountUBA",
          "type": "uint256"
        },
        {
          "indexed": false,
          "internalType": "int256",
          "name": "spentUnderlyingUBA",
          "type": "int256"
        },
        {
          "indexed": false,
          "internalType": "uint64",
          "name": "requestId",
          "type": "uint64"
        }
      ],
      "name": "RedemptionPerformed",
      "type": "event"
    },
    {
      "anonymous": false,
      "inputs": [
        {
          "indexed": true,
          "internalType": "address",
          "name": "redeemer",
          "type": "address"
        },
        {
          "indexed": false,
          "internalType": "uint256",
          "name": "remainingLots",
          "type": "uint256"
        }
      ],
      "name": "RedemptionRequestIncomplete",
      "type": "event"
    },
    {
      "anonymous": false,
      "inputs": [
        {
          "indexed": true,
          "internalType": "address",
          "name": "agentVault",
          "type": "address"
        },
        {
          "indexed": false,
          "internalType": "uint256",
          "name": "requestId",
          "type": "uint256"
        },
        {
          "indexed": false,
          "internalType": "string",
          "name": "paymentAddress",
          "type": "string"
        },
        {
          "indexed": false,
          "internalType": "uint256",
          "name": "valueUBA",
          "type": "uint256"
        },
        {
          "indexed": false,
          "internalType": "uint256",
          "name": "feeUBA",
          "type": "uint256"
        },
        {
          "indexed": false,
          "internalType": "uint256",
          "name": "lastUnderlyingBlock",
          "type": "uint256"
        },
        {
          "indexed": false,
          "internalType": "uint256",
          "name": "lastUnderlyingTimestamp",
          "type": "uint256"
        },
        {
          "indexed": false,
          "internalType": "bytes32",
          "name": "paymentReference",
          "type": "bytes32"
        }
      ],
      "name": "RedemptionRequested",
      "type": "event"
    },
    {
      "anonymous": false,
      "inputs": [
        {
          "indexed": true,
          "internalType": "address",
          "name": "agentVault",
          "type": "address"
        },
        {
          "indexed": false,
          "internalType": "uint256",
          "name": "valueUBA",
          "type": "uint256"
        }
      ],
      "name": "SelfClose",
      "type": "event"
    },
    {
      "anonymous": false,
      "inputs": [
        {
          "indexed": false,
          "internalType": "string",
          "name": "name",
          "type": "string"
        },
        {
          "indexed": false,
          "internalType": "uint256[]",
          "name": "value",
          "type": "uint256[]"
        }
      ],
      "name": "SettingArrayChanged",
      "type": "event"
    },
    {
      "anonymous": false,
      "inputs": [
        {
          "indexed": false,
          "internalType": "string",
          "name": "name",
          "type": "string"
        },
        {
          "indexed": false,
          "internalType": "uint256",
          "name": "value",
          "type": "uint256"
        }
      ],
      "name": "SettingChanged",
      "type": "event"
    },
    {
      "anonymous": false,
      "inputs": [
        {
          "indexed": true,
          "internalType": "address",
          "name": "agentVault",
          "type": "address"
        },
        {
          "indexed": false,
          "internalType": "int256",
          "name": "underlyingBalanceUBA",
          "type": "int256"
        }
      ],
      "name": "UnderlyingBalanceChanged",
      "type": "event"
    },
    {
      "anonymous": false,
      "inputs": [
        {
          "indexed": true,
          "internalType": "address",
          "name": "agentVault",
          "type": "address"
        },
        {
          "indexed": false,
          "internalType": "int256",
          "name": "balance",
          "type": "int256"
        },
        {
          "indexed": false,
          "internalType": "uint256",
          "name": "requiredBalance",
          "type": "uint256"
        }
      ],
      "name": "UnderlyingBalanceTooLow",
      "type": "event"
    },
    {
      "anonymous": false,
      "inputs": [
        {
          "indexed": true,
          "internalType": "address",
          "name": "agentVault",
          "type": "address"
        },
        {
          "indexed": false,
          "internalType": "bytes32",
          "name": "transactionHash",
          "type": "bytes32"
        },
        {
          "indexed": false,
          "internalType": "uint256",
          "name": "depositedUBA",
          "type": "uint256"
        }
      ],
      "name": "UnderlyingBalanceToppedUp",
      "type": "event"
    },
    {
      "anonymous": false,
      "inputs": [
        {
          "indexed": true,
          "internalType": "address",
          "name": "agentVault",
          "type": "address"
        },
        {
          "indexed": false,
          "internalType": "uint64",
          "name": "announcementId",
          "type": "uint64"
        },
        {
          "indexed": false,
          "internalType": "bytes32",
          "name": "paymentReference",
          "type": "bytes32"
        }
      ],
      "name": "UnderlyingWithdrawalAnnounced",
      "type": "event"
    },
    {
      "anonymous": false,
      "inputs": [
        {
          "indexed": true,
          "internalType": "address",
          "name": "agentVault",
          "type": "address"
        },
        {
          "indexed": false,
          "internalType": "uint64",
          "name": "announcementId",
          "type": "uint64"
        }
      ],
      "name": "UnderlyingWithdrawalCancelled",
      "type": "event"
    },
    {
      "anonymous": false,
      "inputs": [
        {
          "indexed": true,
          "internalType": "address",
          "name": "agentVault",
          "type": "address"
        },
        {
          "indexed": false,
          "internalType": "int256",
          "name": "spentUBA",
          "type": "int256"
        },
        {
          "indexed": false,
          "internalType": "bytes32",
          "name": "transactionHash",
          "type": "bytes32"
        },
        {
          "indexed": false,
          "internalType": "uint64",
          "name": "announcementId",
          "type": "uint64"
        }
      ],
      "name": "UnderlyingWithdrawalConfirmed",
      "type": "event"
    },
    {
      "inputs": [
        {
          "components": [
            {
              "internalType": "enum IAssetManager.CollateralClass",
              "name": "collateralClass",
              "type": "uint8"
            },
            {
              "internalType": "contract IERC20",
              "name": "token",
              "type": "address"
            },
            {
              "internalType": "uint256",
              "name": "decimals",
              "type": "uint256"
            },
            {
              "internalType": "uint256",
              "name": "validUntil",
              "type": "uint256"
            },
            {
              "internalType": "bool",
              "name": "directPricePair",
              "type": "bool"
            },
            {
              "internalType": "string",
              "name": "assetFtsoSymbol",
              "type": "string"
            },
            {
              "internalType": "string",
              "name": "tokenFtsoSymbol",
              "type": "string"
            },
            {
              "internalType": "uint256",
              "name": "minCollateralRatioBIPS",
              "type": "uint256"
            },
            {
              "internalType": "uint256",
              "name": "ccbMinCollateralRatioBIPS",
              "type": "uint256"
            },
            {
              "internalType": "uint256",
              "name": "safetyMinCollateralRatioBIPS",
              "type": "uint256"
            }
          ],
          "internalType": "struct IAssetManager.CollateralType",
          "name": "_data",
          "type": "tuple"
        }
      ],
      "name": "addCollateralType",
      "outputs": [],
      "stateMutability": "nonpayable",
      "type": "function"
    },
    {
      "inputs": [
        {
          "internalType": "address",
          "name": "_agentVault",
          "type": "address"
        },
        {
          "internalType": "uint256",
          "name": "_valueNATWei",
          "type": "uint256"
        }
      ],
      "name": "announceAgentPoolTokenRedemption",
      "outputs": [],
      "stateMutability": "nonpayable",
      "type": "function"
    },
    {
      "inputs": [
        {
          "internalType": "address",
          "name": "_agentVault",
          "type": "address"
        },
        {
          "internalType": "string",
          "name": "_name",
          "type": "string"
        },
        {
          "internalType": "uint256",
          "name": "_value",
          "type": "uint256"
        }
      ],
      "name": "announceAgentSettingUpdate",
      "outputs": [],
      "stateMutability": "nonpayable",
      "type": "function"
    },
    {
      "inputs": [
        {
          "internalType": "address",
          "name": "_agentVault",
          "type": "address"
        },
        {
          "internalType": "uint256",
          "name": "_valueNATWei",
          "type": "uint256"
        }
      ],
      "name": "announceClass1CollateralWithdrawal",
      "outputs": [],
      "stateMutability": "nonpayable",
      "type": "function"
    },
    {
      "inputs": [
        {
          "internalType": "address",
          "name": "_agentVault",
          "type": "address"
        }
      ],
      "name": "announceDestroyAgent",
      "outputs": [],
      "stateMutability": "nonpayable",
      "type": "function"
    },
    {
      "inputs": [
        {
          "internalType": "address",
          "name": "_agentVault",
          "type": "address"
        }
      ],
      "name": "announceExitAvailableAgentList",
      "outputs": [],
      "stateMutability": "nonpayable",
      "type": "function"
    },
    {
      "inputs": [
        {
          "internalType": "address",
          "name": "_agentVault",
          "type": "address"
        }
      ],
      "name": "announceUnderlyingWithdrawal",
      "outputs": [],
      "stateMutability": "nonpayable",
      "type": "function"
    },
    {
      "inputs": [],
      "name": "assetManagerController",
      "outputs": [
        {
          "internalType": "address",
          "name": "",
          "type": "address"
        }
      ],
      "stateMutability": "view",
      "type": "function"
    },
    {
      "inputs": [],
      "name": "assetPriceNatWei",
      "outputs": [
        {
          "internalType": "uint256",
          "name": "_multiplier",
          "type": "uint256"
        },
        {
          "internalType": "uint256",
          "name": "_divisor",
          "type": "uint256"
        }
      ],
      "stateMutability": "view",
      "type": "function"
    },
    {
      "inputs": [
        {
          "internalType": "bool",
          "name": "attached",
          "type": "bool"
        }
      ],
      "name": "attachController",
      "outputs": [],
      "stateMutability": "nonpayable",
      "type": "function"
    },
    {
      "inputs": [
        {
          "internalType": "address",
          "name": "_agentVault",
          "type": "address"
        }
      ],
      "name": "buybackAgentCollateral",
      "outputs": [],
      "stateMutability": "payable",
      "type": "function"
    },
    {
      "inputs": [
        {
          "internalType": "address",
          "name": "_agentVault",
          "type": "address"
        }
      ],
      "name": "cancelUnderlyingWithdrawal",
      "outputs": [],
      "stateMutability": "nonpayable",
      "type": "function"
    },
    {
      "inputs": [
        {
          "internalType": "contract IERC20",
          "name": "_token",
          "type": "address"
        }
      ],
      "name": "collateralDeposited",
      "outputs": [],
      "stateMutability": "nonpayable",
      "type": "function"
    },
    {
      "inputs": [
        {
          "internalType": "uint256",
          "name": "_lots",
          "type": "uint256"
        }
      ],
      "name": "collateralReservationFee",
      "outputs": [
        {
          "internalType": "uint256",
          "name": "_reservationFeeNATWei",
          "type": "uint256"
        }
      ],
      "stateMutability": "view",
      "type": "function"
    },
    {
      "inputs": [
        {
          "components": [
            {
              "internalType": "uint256",
              "name": "stateConnectorRound",
              "type": "uint256"
            },
            {
              "internalType": "bytes32[]",
              "name": "merkleProof",
              "type": "bytes32[]"
            },
            {
              "internalType": "uint64",
              "name": "blockNumber",
              "type": "uint64"
            },
            {
              "internalType": "uint64",
              "name": "blockTimestamp",
              "type": "uint64"
            },
            {
              "internalType": "bytes32",
              "name": "transactionHash",
              "type": "bytes32"
            },
            {
              "internalType": "uint8",
              "name": "inUtxo",
              "type": "uint8"
            },
            {
              "internalType": "uint8",
              "name": "utxo",
              "type": "uint8"
            },
            {
              "internalType": "bytes32",
              "name": "sourceAddressHash",
              "type": "bytes32"
            },
            {
              "internalType": "bytes32",
              "name": "receivingAddressHash",
              "type": "bytes32"
            },
            {
              "internalType": "int256",
              "name": "spentAmount",
              "type": "int256"
            },
            {
              "internalType": "int256",
              "name": "receivedAmount",
              "type": "int256"
            },
            {
              "internalType": "bytes32",
              "name": "paymentReference",
              "type": "bytes32"
            },
            {
              "internalType": "bool",
              "name": "oneToOne",
              "type": "bool"
            },
            {
              "internalType": "uint8",
              "name": "status",
              "type": "uint8"
            }
          ],
          "internalType": "struct IAttestationClient.Payment",
          "name": "_payment",
          "type": "tuple"
        },
        {
          "internalType": "uint256",
          "name": "_redemptionRequestId",
          "type": "uint256"
        }
      ],
      "name": "confirmRedemptionPayment",
      "outputs": [],
      "stateMutability": "nonpayable",
      "type": "function"
    },
    {
      "inputs": [
        {
          "components": [
            {
              "internalType": "uint256",
              "name": "stateConnectorRound",
              "type": "uint256"
            },
            {
              "internalType": "bytes32[]",
              "name": "merkleProof",
              "type": "bytes32[]"
            },
            {
              "internalType": "uint64",
              "name": "blockNumber",
              "type": "uint64"
            },
            {
              "internalType": "uint64",
              "name": "blockTimestamp",
              "type": "uint64"
            },
            {
              "internalType": "bytes32",
              "name": "transactionHash",
              "type": "bytes32"
            },
            {
              "internalType": "uint8",
              "name": "inUtxo",
              "type": "uint8"
            },
            {
              "internalType": "uint8",
              "name": "utxo",
              "type": "uint8"
            },
            {
              "internalType": "bytes32",
              "name": "sourceAddressHash",
              "type": "bytes32"
            },
            {
              "internalType": "bytes32",
              "name": "receivingAddressHash",
              "type": "bytes32"
            },
            {
              "internalType": "int256",
              "name": "spentAmount",
              "type": "int256"
            },
            {
              "internalType": "int256",
              "name": "receivedAmount",
              "type": "int256"
            },
            {
              "internalType": "bytes32",
              "name": "paymentReference",
              "type": "bytes32"
            },
            {
              "internalType": "bool",
              "name": "oneToOne",
              "type": "bool"
            },
            {
              "internalType": "uint8",
              "name": "status",
              "type": "uint8"
            }
          ],
          "internalType": "struct IAttestationClient.Payment",
          "name": "_payment",
          "type": "tuple"
        },
        {
          "internalType": "address",
          "name": "_agentVault",
          "type": "address"
        }
      ],
      "name": "confirmTopupPayment",
      "outputs": [],
      "stateMutability": "nonpayable",
      "type": "function"
    },
    {
      "inputs": [
        {
          "components": [
            {
              "internalType": "uint256",
              "name": "stateConnectorRound",
              "type": "uint256"
            },
            {
              "internalType": "bytes32[]",
              "name": "merkleProof",
              "type": "bytes32[]"
            },
            {
              "internalType": "uint64",
              "name": "blockNumber",
              "type": "uint64"
            },
            {
              "internalType": "uint64",
              "name": "blockTimestamp",
              "type": "uint64"
            },
            {
              "internalType": "bytes32",
              "name": "transactionHash",
              "type": "bytes32"
            },
            {
              "internalType": "uint8",
              "name": "inUtxo",
              "type": "uint8"
            },
            {
              "internalType": "uint8",
              "name": "utxo",
              "type": "uint8"
            },
            {
              "internalType": "bytes32",
              "name": "sourceAddressHash",
              "type": "bytes32"
            },
            {
              "internalType": "bytes32",
              "name": "receivingAddressHash",
              "type": "bytes32"
            },
            {
              "internalType": "int256",
              "name": "spentAmount",
              "type": "int256"
            },
            {
              "internalType": "int256",
              "name": "receivedAmount",
              "type": "int256"
            },
            {
              "internalType": "bytes32",
              "name": "paymentReference",
              "type": "bytes32"
            },
            {
              "internalType": "bool",
              "name": "oneToOne",
              "type": "bool"
            },
            {
              "internalType": "uint8",
              "name": "status",
              "type": "uint8"
            }
          ],
          "internalType": "struct IAttestationClient.Payment",
          "name": "_payment",
          "type": "tuple"
        },
        {
          "internalType": "address",
          "name": "_agentVault",
          "type": "address"
        }
      ],
      "name": "confirmUnderlyingWithdrawal",
      "outputs": [],
      "stateMutability": "nonpayable",
      "type": "function"
    },
    {
      "inputs": [],
      "name": "controllerAttached",
      "outputs": [
        {
          "internalType": "bool",
          "name": "",
          "type": "bool"
        }
      ],
      "stateMutability": "view",
      "type": "function"
    },
    {
      "inputs": [
        {
          "internalType": "address",
          "name": "_agentVault",
          "type": "address"
        }
      ],
      "name": "convertDustToTicket",
      "outputs": [],
      "stateMutability": "nonpayable",
      "type": "function"
    },
    {
      "inputs": [
        {
          "components": [
            {
              "internalType": "string",
              "name": "underlyingAddressString",
              "type": "string"
            },
            {
              "internalType": "contract IERC20",
              "name": "class1CollateralToken",
              "type": "address"
            },
            {
              "internalType": "uint256",
              "name": "feeBIPS",
              "type": "uint256"
            },
            {
              "internalType": "uint256",
              "name": "poolFeeShareBIPS",
              "type": "uint256"
            },
            {
              "internalType": "uint256",
              "name": "mintingClass1CollateralRatioBIPS",
              "type": "uint256"
            },
            {
              "internalType": "uint256",
              "name": "mintingPoolCollateralRatioBIPS",
              "type": "uint256"
            },
            {
              "internalType": "uint256",
              "name": "buyFAssetByAgentFactorBIPS",
              "type": "uint256"
            },
            {
              "internalType": "uint256",
              "name": "poolExitCollateralRatioBIPS",
              "type": "uint256"
            },
            {
              "internalType": "uint256",
              "name": "poolTopupCollateralRatioBIPS",
              "type": "uint256"
            },
            {
              "internalType": "uint256",
              "name": "poolTopupTokenPriceFactorBIPS",
              "type": "uint256"
            }
          ],
          "internalType": "struct IAssetManager.InitialAgentSettings",
          "name": "_settings",
          "type": "tuple"
        }
      ],
      "name": "createAgent",
      "outputs": [],
      "stateMutability": "nonpayable",
      "type": "function"
    },
    {
      "inputs": [],
      "name": "currentUnderlyingBlock",
      "outputs": [
        {
          "internalType": "uint256",
          "name": "_blockNumber",
          "type": "uint256"
        },
        {
          "internalType": "uint256",
          "name": "_blockTimestamp",
          "type": "uint256"
        }
      ],
      "stateMutability": "view",
      "type": "function"
    },
    {
      "inputs": [
        {
          "internalType": "enum IAssetManager.CollateralClass",
          "name": "_collateralClass",
          "type": "uint8"
        },
        {
          "internalType": "contract IERC20",
          "name": "_token",
          "type": "address"
        },
        {
          "internalType": "uint256",
          "name": "_invalidationTimeSec",
          "type": "uint256"
        }
      ],
      "name": "deprecateCollateralType",
      "outputs": [],
      "stateMutability": "nonpayable",
      "type": "function"
    },
    {
      "inputs": [
        {
          "internalType": "address",
          "name": "_agentVault",
          "type": "address"
        },
        {
          "internalType": "address payable",
          "name": "_recipient",
          "type": "address"
        }
      ],
      "name": "destroyAgent",
      "outputs": [],
      "stateMutability": "nonpayable",
      "type": "function"
    },
    {
      "inputs": [
        {
          "components": [
            {
              "internalType": "uint256",
              "name": "stateConnectorRound",
              "type": "uint256"
            },
            {
              "internalType": "bytes32[]",
              "name": "merkleProof",
              "type": "bytes32[]"
            },
            {
              "internalType": "uint64",
              "name": "blockNumber",
              "type": "uint64"
            },
            {
              "internalType": "uint64",
              "name": "blockTimestamp",
              "type": "uint64"
            },
            {
              "internalType": "bytes32",
              "name": "transactionHash",
              "type": "bytes32"
            },
            {
              "internalType": "uint8",
              "name": "inUtxo",
              "type": "uint8"
            },
            {
              "internalType": "bytes32",
              "name": "sourceAddressHash",
              "type": "bytes32"
            },
            {
              "internalType": "int256",
              "name": "spentAmount",
              "type": "int256"
            },
            {
              "internalType": "bytes32",
              "name": "paymentReference",
              "type": "bytes32"
            }
          ],
          "internalType": "struct IAttestationClient.BalanceDecreasingTransaction",
          "name": "_payment1",
          "type": "tuple"
        },
        {
          "components": [
            {
              "internalType": "uint256",
              "name": "stateConnectorRound",
              "type": "uint256"
            },
            {
              "internalType": "bytes32[]",
              "name": "merkleProof",
              "type": "bytes32[]"
            },
            {
              "internalType": "uint64",
              "name": "blockNumber",
              "type": "uint64"
            },
            {
              "internalType": "uint64",
              "name": "blockTimestamp",
              "type": "uint64"
            },
            {
              "internalType": "bytes32",
              "name": "transactionHash",
              "type": "bytes32"
            },
            {
              "internalType": "uint8",
              "name": "inUtxo",
              "type": "uint8"
            },
            {
              "internalType": "bytes32",
              "name": "sourceAddressHash",
              "type": "bytes32"
            },
            {
              "internalType": "int256",
              "name": "spentAmount",
              "type": "int256"
            },
            {
              "internalType": "bytes32",
              "name": "paymentReference",
              "type": "bytes32"
            }
          ],
          "internalType": "struct IAttestationClient.BalanceDecreasingTransaction",
          "name": "_payment2",
          "type": "tuple"
        },
        {
          "internalType": "address",
          "name": "_agentVault",
          "type": "address"
        }
      ],
      "name": "doublePaymentChallenge",
      "outputs": [],
      "stateMutability": "nonpayable",
      "type": "function"
    },
    {
      "inputs": [
        {
          "internalType": "address",
          "name": "_agentVault",
          "type": "address"
        }
      ],
      "name": "endLiquidation",
      "outputs": [],
      "stateMutability": "nonpayable",
      "type": "function"
    },
    {
      "inputs": [
        {
          "internalType": "address",
          "name": "_agentVault",
          "type": "address"
        },
        {
          "internalType": "string",
          "name": "_name",
          "type": "string"
        }
      ],
      "name": "executeAgentSettingUpdate",
      "outputs": [],
      "stateMutability": "nonpayable",
      "type": "function"
    },
    {
      "inputs": [
        {
          "components": [
            {
              "internalType": "uint256",
              "name": "stateConnectorRound",
              "type": "uint256"
            },
            {
              "internalType": "bytes32[]",
              "name": "merkleProof",
              "type": "bytes32[]"
            },
            {
              "internalType": "uint64",
              "name": "blockNumber",
              "type": "uint64"
            },
            {
              "internalType": "uint64",
              "name": "blockTimestamp",
              "type": "uint64"
            },
            {
              "internalType": "bytes32",
              "name": "transactionHash",
              "type": "bytes32"
            },
            {
              "internalType": "uint8",
              "name": "inUtxo",
              "type": "uint8"
            },
            {
              "internalType": "uint8",
              "name": "utxo",
              "type": "uint8"
            },
            {
              "internalType": "bytes32",
              "name": "sourceAddressHash",
              "type": "bytes32"
            },
            {
              "internalType": "bytes32",
              "name": "receivingAddressHash",
              "type": "bytes32"
            },
            {
              "internalType": "int256",
              "name": "spentAmount",
              "type": "int256"
            },
            {
              "internalType": "int256",
              "name": "receivedAmount",
              "type": "int256"
            },
            {
              "internalType": "bytes32",
              "name": "paymentReference",
              "type": "bytes32"
            },
            {
              "internalType": "bool",
              "name": "oneToOne",
              "type": "bool"
            },
            {
              "internalType": "uint8",
              "name": "status",
              "type": "uint8"
            }
          ],
          "internalType": "struct IAttestationClient.Payment",
          "name": "_payment",
          "type": "tuple"
        },
        {
          "internalType": "uint256",
          "name": "_collateralReservationId",
          "type": "uint256"
        }
      ],
      "name": "executeMinting",
      "outputs": [],
      "stateMutability": "nonpayable",
      "type": "function"
    },
    {
      "inputs": [
        {
          "internalType": "address",
          "name": "_agentVault",
          "type": "address"
        }
      ],
      "name": "exitAvailableAgentList",
      "outputs": [],
      "stateMutability": "nonpayable",
      "type": "function"
    },
    {
      "inputs": [],
      "name": "fAsset",
      "outputs": [
        {
          "internalType": "contract IERC20",
          "name": "",
          "type": "address"
        }
      ],
      "stateMutability": "view",
      "type": "function"
    },
    {
      "inputs": [
        {
          "components": [
            {
              "internalType": "uint256",
              "name": "stateConnectorRound",
              "type": "uint256"
            },
            {
              "internalType": "bytes32[]",
              "name": "merkleProof",
              "type": "bytes32[]"
            },
            {
              "internalType": "uint64",
              "name": "blockNumber",
              "type": "uint64"
            },
            {
              "internalType": "uint64",
              "name": "blockTimestamp",
              "type": "uint64"
            },
            {
              "internalType": "uint8",
              "name": "numberOfConfirmations",
              "type": "uint8"
            },
            {
              "internalType": "uint64",
              "name": "averageBlockProductionTimeMs",
              "type": "uint64"
            },
            {
              "internalType": "uint64",
              "name": "lowestQueryWindowBlockNumber",
              "type": "uint64"
            },
            {
              "internalType": "uint64",
              "name": "lowestQueryWindowBlockTimestamp",
              "type": "uint64"
            }
          ],
          "internalType": "struct IAttestationClient.ConfirmedBlockHeightExists",
          "name": "_proof",
          "type": "tuple"
        },
        {
          "internalType": "uint256",
          "name": "_redemptionRequestId",
          "type": "uint256"
        }
      ],
      "name": "finishRedemptionWithoutPayment",
      "outputs": [],
      "stateMutability": "nonpayable",
      "type": "function"
    },
    {
      "inputs": [
        {
          "components": [
            {
              "internalType": "uint256",
              "name": "stateConnectorRound",
              "type": "uint256"
            },
            {
              "internalType": "bytes32[]",
              "name": "merkleProof",
              "type": "bytes32[]"
            },
            {
              "internalType": "uint64",
              "name": "blockNumber",
              "type": "uint64"
            },
            {
              "internalType": "uint64",
              "name": "blockTimestamp",
              "type": "uint64"
            },
            {
              "internalType": "bytes32",
              "name": "transactionHash",
              "type": "bytes32"
            },
            {
              "internalType": "uint8",
              "name": "inUtxo",
              "type": "uint8"
            },
            {
              "internalType": "bytes32",
              "name": "sourceAddressHash",
              "type": "bytes32"
            },
            {
              "internalType": "int256",
              "name": "spentAmount",
              "type": "int256"
            },
            {
              "internalType": "bytes32",
              "name": "paymentReference",
              "type": "bytes32"
            }
          ],
          "internalType": "struct IAttestationClient.BalanceDecreasingTransaction[]",
          "name": "_payments",
          "type": "tuple[]"
        },
        {
          "internalType": "address",
          "name": "_agentVault",
          "type": "address"
        }
      ],
      "name": "freeBalanceNegativeChallenge",
      "outputs": [],
      "stateMutability": "nonpayable",
      "type": "function"
    },
    {
      "inputs": [
        {
          "internalType": "address",
          "name": "_agentVault",
          "type": "address"
        }
      ],
      "name": "getAgentInfo",
      "outputs": [
        {
          "components": [
            {
              "internalType": "enum FullAgentInfo.AgentStatusInfo",
              "name": "status",
              "type": "uint8"
            },
            {
              "internalType": "address",
              "name": "ownerColdWalletAddress",
              "type": "address"
            },
            {
              "internalType": "address",
              "name": "ownerHotWalletAddress",
              "type": "address"
            },
            {
              "internalType": "address",
              "name": "collateralPool",
              "type": "address"
            },
            {
              "internalType": "string",
              "name": "underlyingAddressString",
              "type": "string"
            },
            {
              "internalType": "bool",
              "name": "publiclyAvailable",
              "type": "bool"
            },
            {
              "internalType": "uint256",
              "name": "feeBIPS",
              "type": "uint256"
            },
            {
              "internalType": "uint256",
              "name": "poolFeeShareBIPS",
              "type": "uint256"
            },
            {
              "internalType": "contract IERC20",
              "name": "class1CollateralToken",
              "type": "address"
            },
            {
              "internalType": "uint256",
              "name": "mintingClass1CollateralRatioBIPS",
              "type": "uint256"
            },
            {
              "internalType": "uint256",
              "name": "mintingPoolCollateralRatioBIPS",
              "type": "uint256"
            },
            {
              "internalType": "uint256",
              "name": "freeCollateralLots",
              "type": "uint256"
            },
            {
              "internalType": "uint256",
              "name": "totalClass1CollateralWei",
              "type": "uint256"
            },
            {
              "internalType": "uint256",
              "name": "freeClass1CollateralWei",
              "type": "uint256"
            },
            {
              "internalType": "uint256",
              "name": "class1CollateralRatioBIPS",
              "type": "uint256"
            },
            {
              "internalType": "uint256",
              "name": "totalPoolCollateralNATWei",
              "type": "uint256"
            },
            {
              "internalType": "uint256",
              "name": "freePoolCollateralNATWei",
              "type": "uint256"
            },
            {
              "internalType": "uint256",
              "name": "poolCollateralRatioBIPS",
              "type": "uint256"
            },
            {
              "internalType": "uint256",
              "name": "totalAgentPoolTokensWei",
              "type": "uint256"
            },
            {
              "internalType": "uint256",
              "name": "announcedClass1WithdrawalWei",
              "type": "uint256"
            },
            {
              "internalType": "uint256",
              "name": "announcedPoolTokensWithdrawalWei",
              "type": "uint256"
            },
            {
              "internalType": "uint256",
              "name": "freeAgentPoolTokensWei",
              "type": "uint256"
            },
            {
              "internalType": "uint256",
              "name": "mintedUBA",
              "type": "uint256"
            },
            {
              "internalType": "uint256",
              "name": "reservedUBA",
              "type": "uint256"
            },
            {
              "internalType": "uint256",
              "name": "redeemingUBA",
              "type": "uint256"
            },
            {
              "internalType": "uint256",
              "name": "poolRedeemingUBA",
              "type": "uint256"
            },
            {
              "internalType": "uint256",
              "name": "dustUBA",
              "type": "uint256"
            },
            {
              "internalType": "uint256",
              "name": "ccbStartTimestamp",
              "type": "uint256"
            },
            {
              "internalType": "uint256",
              "name": "liquidationStartTimestamp",
              "type": "uint256"
            },
            {
              "internalType": "int256",
              "name": "underlyingBalanceUBA",
              "type": "int256"
            },
            {
              "internalType": "uint256",
              "name": "requiredUnderlyingBalanceUBA",
              "type": "uint256"
            },
            {
              "internalType": "int256",
              "name": "freeUnderlyingBalanceUBA",
              "type": "int256"
            },
            {
              "internalType": "uint256",
              "name": "announcedUnderlyingWithdrawalId",
              "type": "uint256"
            },
            {
              "internalType": "uint256",
              "name": "buyFAssetByAgentFactorBIPS",
              "type": "uint256"
            },
            {
              "internalType": "uint256",
              "name": "poolExitCollateralRatioBIPS",
              "type": "uint256"
            },
            {
              "internalType": "uint256",
              "name": "poolTopupCollateralRatioBIPS",
              "type": "uint256"
            },
            {
              "internalType": "uint256",
              "name": "poolTopupTokenPriceFactorBIPS",
              "type": "uint256"
            }
          ],
          "internalType": "struct FullAgentInfo.AgentInfo",
          "name": "",
          "type": "tuple"
        }
      ],
      "stateMutability": "view",
      "type": "function"
    },
    {
      "inputs": [
        {
          "internalType": "address",
          "name": "_agentVault",
          "type": "address"
        }
      ],
      "name": "getAgentVaultOwner",
      "outputs": [
        {
          "internalType": "address",
          "name": "_ownerColdAddress",
          "type": "address"
        },
        {
          "internalType": "address",
          "name": "_ownerHotAddress",
          "type": "address"
        }
      ],
      "stateMutability": "view",
      "type": "function"
    },
    {
      "inputs": [
        {
          "internalType": "uint256",
          "name": "_start",
          "type": "uint256"
        },
        {
          "internalType": "uint256",
          "name": "_end",
          "type": "uint256"
        }
      ],
      "name": "getAllAgents",
      "outputs": [
        {
          "internalType": "address[]",
          "name": "_agents",
          "type": "address[]"
        },
        {
          "internalType": "uint256",
          "name": "_totalLength",
          "type": "uint256"
        }
      ],
      "stateMutability": "view",
      "type": "function"
    },
    {
      "inputs": [
        {
          "internalType": "uint256",
          "name": "_start",
          "type": "uint256"
        },
        {
          "internalType": "uint256",
          "name": "_end",
          "type": "uint256"
        }
      ],
      "name": "getAvailableAgentsDetailedList",
      "outputs": [
        {
          "components": [
            {
              "internalType": "address",
              "name": "agentVault",
              "type": "address"
            },
            {
              "internalType": "uint256",
              "name": "feeBIPS",
              "type": "uint256"
            },
            {
              "internalType": "uint256",
              "name": "mintingClass1CollateralRatioBIPS",
              "type": "uint256"
            },
            {
              "internalType": "uint256",
              "name": "mintingPoolCollateralRatioBIPS",
              "type": "uint256"
            },
            {
              "internalType": "uint256",
              "name": "freeCollateralLots",
              "type": "uint256"
            }
          ],
          "internalType": "struct AvailableAgents.AgentInfo[]",
          "name": "_agents",
          "type": "tuple[]"
        },
        {
          "internalType": "uint256",
          "name": "_totalLength",
          "type": "uint256"
        }
      ],
      "stateMutability": "view",
      "type": "function"
    },
    {
      "inputs": [
        {
          "internalType": "uint256",
          "name": "_start",
          "type": "uint256"
        },
        {
          "internalType": "uint256",
          "name": "_end",
          "type": "uint256"
        }
      ],
      "name": "getAvailableAgentsList",
      "outputs": [
        {
          "internalType": "address[]",
          "name": "_agents",
          "type": "address[]"
        },
        {
          "internalType": "uint256",
          "name": "_totalLength",
          "type": "uint256"
        }
      ],
      "stateMutability": "view",
      "type": "function"
    },
    {
      "inputs": [
        {
          "internalType": "address",
          "name": "_agentVault",
          "type": "address"
        }
      ],
      "name": "getCollateralPool",
      "outputs": [
        {
          "internalType": "address",
          "name": "",
          "type": "address"
        }
      ],
      "stateMutability": "view",
      "type": "function"
    },
    {
      "inputs": [
        {
          "internalType": "enum IAssetManager.CollateralClass",
          "name": "_collateralClass",
          "type": "uint8"
        },
        {
          "internalType": "contract IERC20",
          "name": "_token",
          "type": "address"
        }
      ],
      "name": "getCollateralType",
      "outputs": [
        {
          "components": [
            {
              "internalType": "enum IAssetManager.CollateralClass",
              "name": "collateralClass",
              "type": "uint8"
            },
            {
              "internalType": "contract IERC20",
              "name": "token",
              "type": "address"
            },
            {
              "internalType": "uint256",
              "name": "decimals",
              "type": "uint256"
            },
            {
              "internalType": "uint256",
              "name": "validUntil",
              "type": "uint256"
            },
            {
              "internalType": "bool",
              "name": "directPricePair",
              "type": "bool"
            },
            {
              "internalType": "string",
              "name": "assetFtsoSymbol",
              "type": "string"
            },
            {
              "internalType": "string",
              "name": "tokenFtsoSymbol",
              "type": "string"
            },
            {
              "internalType": "uint256",
              "name": "minCollateralRatioBIPS",
              "type": "uint256"
            },
            {
              "internalType": "uint256",
              "name": "ccbMinCollateralRatioBIPS",
              "type": "uint256"
            },
            {
              "internalType": "uint256",
              "name": "safetyMinCollateralRatioBIPS",
              "type": "uint256"
            }
          ],
          "internalType": "struct IAssetManager.CollateralType",
          "name": "",
          "type": "tuple"
        }
      ],
      "stateMutability": "view",
      "type": "function"
    },
    {
      "inputs": [],
      "name": "getCollateralTypes",
      "outputs": [
        {
          "components": [
            {
              "internalType": "enum IAssetManager.CollateralClass",
              "name": "collateralClass",
              "type": "uint8"
            },
            {
              "internalType": "contract IERC20",
              "name": "token",
              "type": "address"
            },
            {
              "internalType": "uint256",
              "name": "decimals",
              "type": "uint256"
            },
            {
              "internalType": "uint256",
              "name": "validUntil",
              "type": "uint256"
            },
            {
              "internalType": "bool",
              "name": "directPricePair",
              "type": "bool"
            },
            {
              "internalType": "string",
              "name": "assetFtsoSymbol",
              "type": "string"
            },
            {
              "internalType": "string",
              "name": "tokenFtsoSymbol",
              "type": "string"
            },
            {
              "internalType": "uint256",
              "name": "minCollateralRatioBIPS",
              "type": "uint256"
            },
            {
              "internalType": "uint256",
              "name": "ccbMinCollateralRatioBIPS",
              "type": "uint256"
            },
            {
              "internalType": "uint256",
              "name": "safetyMinCollateralRatioBIPS",
              "type": "uint256"
            }
          ],
          "internalType": "struct IAssetManager.CollateralType[]",
          "name": "",
          "type": "tuple[]"
        }
      ],
      "stateMutability": "view",
      "type": "function"
    },
    {
      "inputs": [
        {
          "internalType": "address",
          "name": "_agentVault",
          "type": "address"
        }
      ],
      "name": "getFAssetsBackedByPool",
      "outputs": [
        {
          "internalType": "uint256",
          "name": "",
          "type": "uint256"
        }
      ],
      "stateMutability": "view",
      "type": "function"
    },
    {
      "inputs": [],
      "name": "getLiquidationSettings",
      "outputs": [
        {
          "internalType": "bytes",
          "name": "",
          "type": "bytes"
        }
      ],
      "stateMutability": "view",
      "type": "function"
    },
    {
      "inputs": [],
      "name": "getLotSize",
      "outputs": [
        {
          "internalType": "uint256",
          "name": "_lotSizeUBA",
          "type": "uint256"
        }
      ],
      "stateMutability": "view",
      "type": "function"
    },
    {
      "inputs": [],
      "name": "getSettings",
      "outputs": [
        {
          "components": [
            {
              "internalType": "address",
              "name": "assetManagerController",
              "type": "address"
            },
            {
              "internalType": "contract IFAsset",
              "name": "fAsset",
              "type": "address"
            },
            {
              "internalType": "contract IAgentVaultFactory",
              "name": "agentVaultFactory",
              "type": "address"
            },
            {
              "internalType": "contract ICollateralPoolFactory",
              "name": "collateralPoolFactory",
              "type": "address"
            },
            {
              "internalType": "contract IWhitelist",
              "name": "whitelist",
              "type": "address"
            },
            {
              "internalType": "contract IWhitelist",
              "name": "agentWhitelist",
              "type": "address"
            },
            {
              "internalType": "contract IAttestationClient",
              "name": "attestationClient",
              "type": "address"
            },
            {
              "internalType": "contract IAddressValidator",
              "name": "underlyingAddressValidator",
              "type": "address"
            },
            {
              "internalType": "address",
              "name": "liquidationStrategy",
              "type": "address"
            },
            {
              "internalType": "contract IFtsoRegistry",
              "name": "ftsoRegistry",
              "type": "address"
            },
            {
              "internalType": "uint8",
              "name": "assetDecimals",
              "type": "uint8"
            },
            {
              "internalType": "uint8",
              "name": "assetMintingDecimals",
              "type": "uint8"
            },
            {
              "internalType": "uint32",
              "name": "mintingPoolHoldingsRequiredBIPS",
              "type": "uint32"
            },
            {
              "internalType": "address payable",
              "name": "burnAddress",
              "type": "address"
            },
            {
              "internalType": "bool",
              "name": "burnWithSelfDestruct",
              "type": "bool"
            },
            {
              "internalType": "uint32",
              "name": "chainId",
              "type": "uint32"
            },
            {
              "internalType": "uint16",
              "name": "collateralReservationFeeBIPS",
              "type": "uint16"
            },
            {
              "internalType": "uint64",
              "name": "assetUnitUBA",
              "type": "uint64"
            },
            {
              "internalType": "uint64",
              "name": "assetMintingGranularityUBA",
              "type": "uint64"
            },
            {
              "internalType": "uint64",
              "name": "lotSizeAMG",
              "type": "uint64"
            },
            {
              "internalType": "uint16",
              "name": "minUnderlyingBackingBIPS",
              "type": "uint16"
            },
            {
              "internalType": "uint64",
              "name": "mintingCapAMG",
              "type": "uint64"
            },
            {
              "internalType": "uint64",
              "name": "maxTrustedPriceAgeSeconds",
              "type": "uint64"
            },
            {
              "internalType": "bool",
              "name": "requireEOAAddressProof",
              "type": "bool"
            },
            {
              "internalType": "uint64",
              "name": "underlyingBlocksForPayment",
              "type": "uint64"
            },
            {
              "internalType": "uint64",
              "name": "underlyingSecondsForPayment",
              "type": "uint64"
            },
            {
              "internalType": "uint16",
              "name": "redemptionFeeBIPS",
              "type": "uint16"
            },
            {
              "internalType": "uint32",
              "name": "redemptionDefaultFactorAgentC1BIPS",
              "type": "uint32"
            },
            {
              "internalType": "uint32",
              "name": "redemptionDefaultFactorPoolBIPS",
              "type": "uint32"
            },
            {
              "internalType": "uint64",
              "name": "confirmationByOthersAfterSeconds",
              "type": "uint64"
            },
            {
              "internalType": "uint128",
              "name": "confirmationByOthersRewardUSD5",
              "type": "uint128"
            },
            {
              "internalType": "uint16",
              "name": "maxRedeemedTickets",
              "type": "uint16"
            },
            {
              "internalType": "uint16",
              "name": "paymentChallengeRewardBIPS",
              "type": "uint16"
            },
            {
              "internalType": "uint128",
              "name": "paymentChallengeRewardUSD5",
              "type": "uint128"
            },
            {
              "internalType": "uint64",
              "name": "withdrawalWaitMinSeconds",
              "type": "uint64"
            },
            {
              "internalType": "uint64",
              "name": "ccbTimeSeconds",
              "type": "uint64"
            },
            {
              "internalType": "uint64",
              "name": "attestationWindowSeconds",
              "type": "uint64"
            },
            {
              "internalType": "uint64",
              "name": "minUpdateRepeatTimeSeconds",
              "type": "uint64"
            },
            {
              "internalType": "uint64",
              "name": "buybackCollateralFactorBIPS",
              "type": "uint64"
            },
            {
              "internalType": "uint64",
              "name": "announcedUnderlyingConfirmationMinSeconds",
              "type": "uint64"
            },
            {
              "internalType": "uint64",
              "name": "tokenInvalidationTimeMinSeconds",
              "type": "uint64"
            },
            {
              "internalType": "uint32",
              "name": "class1BuyForFlareFactorBIPS",
              "type": "uint32"
            },
            {
              "internalType": "uint64",
              "name": "agentExitAvailableTimelockSeconds",
              "type": "uint64"
            },
            {
              "internalType": "uint64",
              "name": "agentFeeChangeTimelockSeconds",
              "type": "uint64"
            },
            {
              "internalType": "uint64",
              "name": "agentCollateralRatioChangeTimelockSeconds",
              "type": "uint64"
            }
          ],
          "internalType": "struct AssetManagerSettings.Data",
          "name": "",
          "type": "tuple"
        }
      ],
      "stateMutability": "view",
      "type": "function"
    },
    {
      "inputs": [],
      "name": "getWNat",
      "outputs": [
        {
          "internalType": "contract IWNat",
          "name": "",
          "type": "address"
        }
      ],
      "stateMutability": "view",
      "type": "function"
    },
    {
      "inputs": [
        {
          "components": [
            {
              "internalType": "uint256",
              "name": "stateConnectorRound",
              "type": "uint256"
            },
            {
              "internalType": "bytes32[]",
              "name": "merkleProof",
              "type": "bytes32[]"
            },
            {
              "internalType": "uint64",
              "name": "blockNumber",
              "type": "uint64"
            },
            {
              "internalType": "uint64",
              "name": "blockTimestamp",
              "type": "uint64"
            },
            {
              "internalType": "bytes32",
              "name": "transactionHash",
              "type": "bytes32"
            },
            {
              "internalType": "uint8",
              "name": "inUtxo",
              "type": "uint8"
            },
            {
              "internalType": "bytes32",
              "name": "sourceAddressHash",
              "type": "bytes32"
            },
            {
              "internalType": "int256",
              "name": "spentAmount",
              "type": "int256"
            },
            {
              "internalType": "bytes32",
              "name": "paymentReference",
              "type": "bytes32"
            }
          ],
          "internalType": "struct IAttestationClient.BalanceDecreasingTransaction",
          "name": "_transaction",
          "type": "tuple"
        },
        {
          "internalType": "address",
          "name": "_agentVault",
          "type": "address"
        }
      ],
      "name": "illegalPaymentChallenge",
      "outputs": [],
      "stateMutability": "nonpayable",
      "type": "function"
    },
    {
      "inputs": [
        {
          "internalType": "address",
          "name": "_agentVault",
          "type": "address"
        },
        {
          "internalType": "address",
          "name": "_address",
          "type": "address"
        }
      ],
      "name": "isAgentVaultOwner",
      "outputs": [
        {
          "internalType": "bool",
          "name": "",
          "type": "bool"
        }
      ],
      "stateMutability": "view",
      "type": "function"
    },
    {
      "inputs": [
        {
          "internalType": "address",
          "name": "_agentVault",
          "type": "address"
        },
        {
          "internalType": "contract IERC20",
          "name": "_token",
          "type": "address"
        }
      ],
      "name": "isCollateralToken",
      "outputs": [
        {
          "internalType": "bool",
          "name": "",
          "type": "bool"
        }
      ],
      "stateMutability": "view",
      "type": "function"
    },
    {
      "inputs": [
        {
          "internalType": "address",
          "name": "_agentVault",
          "type": "address"
        },
        {
          "internalType": "uint256",
          "name": "_amountUBA",
          "type": "uint256"
        }
      ],
      "name": "liquidate",
      "outputs": [
        {
          "internalType": "uint256",
          "name": "_liquidatedAmountUBA",
          "type": "uint256"
        },
        {
          "internalType": "uint256",
          "name": "_amountPaidClass1",
          "type": "uint256"
        },
        {
          "internalType": "uint256",
          "name": "_amountPaidPool",
          "type": "uint256"
        }
      ],
      "stateMutability": "nonpayable",
      "type": "function"
    },
    {
      "inputs": [
        {
          "internalType": "address",
          "name": "_agentVault",
          "type": "address"
        }
      ],
      "name": "makeAgentAvailable",
      "outputs": [],
      "stateMutability": "nonpayable",
      "type": "function"
    },
    {
      "inputs": [
        {
          "components": [
            {
              "internalType": "uint256",
              "name": "stateConnectorRound",
              "type": "uint256"
            },
            {
              "internalType": "bytes32[]",
              "name": "merkleProof",
              "type": "bytes32[]"
            },
            {
              "internalType": "uint64",
              "name": "deadlineBlockNumber",
              "type": "uint64"
            },
            {
              "internalType": "uint64",
              "name": "deadlineTimestamp",
              "type": "uint64"
            },
            {
              "internalType": "bytes32",
              "name": "destinationAddressHash",
              "type": "bytes32"
            },
            {
              "internalType": "bytes32",
              "name": "paymentReference",
              "type": "bytes32"
            },
            {
              "internalType": "uint128",
              "name": "amount",
              "type": "uint128"
            },
            {
              "internalType": "uint64",
              "name": "lowerBoundaryBlockNumber",
              "type": "uint64"
            },
            {
              "internalType": "uint64",
              "name": "lowerBoundaryBlockTimestamp",
              "type": "uint64"
            },
            {
              "internalType": "uint64",
              "name": "firstOverflowBlockNumber",
              "type": "uint64"
            },
            {
              "internalType": "uint64",
              "name": "firstOverflowBlockTimestamp",
              "type": "uint64"
            }
          ],
          "internalType": "struct IAttestationClient.ReferencedPaymentNonexistence",
          "name": "_proof",
          "type": "tuple"
        },
        {
          "internalType": "uint256",
          "name": "_collateralReservationId",
          "type": "uint256"
        }
      ],
      "name": "mintingPaymentDefault",
      "outputs": [],
      "stateMutability": "nonpayable",
      "type": "function"
    },
    {
      "inputs": [],
      "name": "pause",
      "outputs": [],
      "stateMutability": "nonpayable",
      "type": "function"
    },
    {
      "inputs": [],
      "name": "paused",
      "outputs": [
        {
          "internalType": "bool",
          "name": "",
          "type": "bool"
        }
      ],
      "stateMutability": "view",
      "type": "function"
    },
    {
      "inputs": [
        {
          "components": [
            {
              "internalType": "uint256",
              "name": "stateConnectorRound",
              "type": "uint256"
            },
            {
              "internalType": "bytes32[]",
              "name": "merkleProof",
              "type": "bytes32[]"
            },
            {
              "internalType": "uint64",
              "name": "blockNumber",
              "type": "uint64"
            },
            {
              "internalType": "uint64",
              "name": "blockTimestamp",
              "type": "uint64"
            },
            {
              "internalType": "bytes32",
              "name": "transactionHash",
              "type": "bytes32"
            },
            {
              "internalType": "uint8",
              "name": "inUtxo",
              "type": "uint8"
            },
            {
              "internalType": "uint8",
              "name": "utxo",
              "type": "uint8"
            },
            {
              "internalType": "bytes32",
              "name": "sourceAddressHash",
              "type": "bytes32"
            },
            {
              "internalType": "bytes32",
              "name": "receivingAddressHash",
              "type": "bytes32"
            },
            {
              "internalType": "int256",
              "name": "spentAmount",
              "type": "int256"
            },
            {
              "internalType": "int256",
              "name": "receivedAmount",
              "type": "int256"
            },
            {
              "internalType": "bytes32",
              "name": "paymentReference",
              "type": "bytes32"
            },
            {
              "internalType": "bool",
              "name": "oneToOne",
              "type": "bool"
            },
            {
              "internalType": "uint8",
              "name": "status",
              "type": "uint8"
            }
          ],
          "internalType": "struct IAttestationClient.Payment",
          "name": "_payment",
          "type": "tuple"
        }
      ],
      "name": "proveUnderlyingAddressEOA",
      "outputs": [],
      "stateMutability": "nonpayable",
      "type": "function"
    },
    {
      "inputs": [
        {
          "internalType": "uint256",
          "name": "_lots",
          "type": "uint256"
        },
        {
          "internalType": "string",
          "name": "_redeemerUnderlyingAddressString",
          "type": "string"
        }
      ],
      "name": "redeem",
      "outputs": [],
      "stateMutability": "nonpayable",
      "type": "function"
    },
    {
      "inputs": [
        {
          "internalType": "address",
          "name": "_agentVault",
          "type": "address"
        },
        {
          "internalType": "address",
          "name": "_receiver",
          "type": "address"
        },
        {
          "internalType": "uint256",
          "name": "_amountUBA",
          "type": "uint256"
        },
        {
          "internalType": "string",
          "name": "_receiverUnderlyingAddress",
          "type": "string"
        }
      ],
      "name": "redeemFromAgent",
      "outputs": [],
      "stateMutability": "nonpayable",
      "type": "function"
    },
    {
      "inputs": [
        {
          "internalType": "address",
          "name": "_agentVault",
          "type": "address"
        },
        {
          "internalType": "address",
          "name": "_receiver",
          "type": "address"
        },
        {
          "internalType": "uint256",
          "name": "_amountUBA",
          "type": "uint256"
        }
      ],
      "name": "redeemFromAgentInCollateral",
      "outputs": [],
      "stateMutability": "nonpayable",
      "type": "function"
    },
    {
      "inputs": [
        {
          "components": [
            {
              "internalType": "uint256",
              "name": "stateConnectorRound",
              "type": "uint256"
            },
            {
              "internalType": "bytes32[]",
              "name": "merkleProof",
              "type": "bytes32[]"
            },
            {
              "internalType": "uint64",
              "name": "deadlineBlockNumber",
              "type": "uint64"
            },
            {
              "internalType": "uint64",
              "name": "deadlineTimestamp",
              "type": "uint64"
            },
            {
              "internalType": "bytes32",
              "name": "destinationAddressHash",
              "type": "bytes32"
            },
            {
              "internalType": "bytes32",
              "name": "paymentReference",
              "type": "bytes32"
            },
            {
              "internalType": "uint128",
              "name": "amount",
              "type": "uint128"
            },
            {
              "internalType": "uint64",
              "name": "lowerBoundaryBlockNumber",
              "type": "uint64"
            },
            {
              "internalType": "uint64",
              "name": "lowerBoundaryBlockTimestamp",
              "type": "uint64"
            },
            {
              "internalType": "uint64",
              "name": "firstOverflowBlockNumber",
              "type": "uint64"
            },
            {
              "internalType": "uint64",
              "name": "firstOverflowBlockTimestamp",
              "type": "uint64"
            }
          ],
          "internalType": "struct IAttestationClient.ReferencedPaymentNonexistence",
          "name": "_proof",
          "type": "tuple"
        },
        {
          "internalType": "uint256",
          "name": "_redemptionRequestId",
          "type": "uint256"
        }
      ],
      "name": "redemptionPaymentDefault",
      "outputs": [],
      "stateMutability": "nonpayable",
      "type": "function"
    },
    {
      "inputs": [
        {
          "internalType": "address",
          "name": "_agentVault",
          "type": "address"
        },
        {
          "internalType": "uint256",
          "name": "_lots",
          "type": "uint256"
        },
        {
          "internalType": "uint256",
          "name": "_maxMintingFeeBIPS",
          "type": "uint256"
        }
      ],
      "name": "reserveCollateral",
      "outputs": [],
      "stateMutability": "payable",
      "type": "function"
    },
    {
      "inputs": [
        {
          "internalType": "address",
          "name": "_agentVault",
          "type": "address"
        },
        {
          "internalType": "uint256",
          "name": "_amountUBA",
          "type": "uint256"
        }
      ],
      "name": "selfClose",
      "outputs": [],
      "stateMutability": "nonpayable",
      "type": "function"
    },
    {
      "inputs": [
        {
          "components": [
            {
              "internalType": "uint256",
              "name": "stateConnectorRound",
              "type": "uint256"
            },
            {
              "internalType": "bytes32[]",
              "name": "merkleProof",
              "type": "bytes32[]"
            },
            {
              "internalType": "uint64",
              "name": "blockNumber",
              "type": "uint64"
            },
            {
              "internalType": "uint64",
              "name": "blockTimestamp",
              "type": "uint64"
            },
            {
              "internalType": "bytes32",
              "name": "transactionHash",
              "type": "bytes32"
            },
            {
              "internalType": "uint8",
              "name": "inUtxo",
              "type": "uint8"
            },
            {
              "internalType": "uint8",
              "name": "utxo",
              "type": "uint8"
            },
            {
              "internalType": "bytes32",
              "name": "sourceAddressHash",
              "type": "bytes32"
            },
            {
              "internalType": "bytes32",
              "name": "receivingAddressHash",
              "type": "bytes32"
            },
            {
              "internalType": "int256",
              "name": "spentAmount",
              "type": "int256"
            },
            {
              "internalType": "int256",
              "name": "receivedAmount",
              "type": "int256"
            },
            {
              "internalType": "bytes32",
              "name": "paymentReference",
              "type": "bytes32"
            },
            {
              "internalType": "bool",
              "name": "oneToOne",
              "type": "bool"
            },
            {
              "internalType": "uint8",
              "name": "status",
              "type": "uint8"
            }
          ],
          "internalType": "struct IAttestationClient.Payment",
          "name": "_payment",
          "type": "tuple"
        },
        {
          "internalType": "address",
          "name": "_agentVault",
          "type": "address"
        },
        {
          "internalType": "uint256",
          "name": "_lots",
          "type": "uint256"
        }
      ],
      "name": "selfMint",
      "outputs": [],
      "stateMutability": "nonpayable",
      "type": "function"
    },
    {
      "inputs": [
        {
          "internalType": "enum IAssetManager.CollateralClass",
          "name": "_collateralClass",
          "type": "uint8"
        },
        {
          "internalType": "contract IERC20",
          "name": "_token",
          "type": "address"
        },
        {
          "internalType": "uint256",
          "name": "_minCollateralRatioBIPS",
          "type": "uint256"
        },
        {
          "internalType": "uint256",
          "name": "_ccbMinCollateralRatioBIPS",
          "type": "uint256"
        },
        {
          "internalType": "uint256",
          "name": "_safetyMinCollateralRatioBIPS",
          "type": "uint256"
        }
      ],
      "name": "setCollateralRatiosForToken",
      "outputs": [],
      "stateMutability": "nonpayable",
      "type": "function"
    },
    {
      "inputs": [
        {
          "internalType": "address",
          "name": "_ownerHotAddress",
          "type": "address"
        }
      ],
      "name": "setOwnerHotAddress",
      "outputs": [],
      "stateMutability": "nonpayable",
      "type": "function"
    },
    {
      "inputs": [
        {
          "components": [
            {
              "internalType": "enum IAssetManager.CollateralClass",
              "name": "collateralClass",
              "type": "uint8"
            },
            {
              "internalType": "contract IERC20",
              "name": "token",
              "type": "address"
            },
            {
              "internalType": "uint256",
              "name": "decimals",
              "type": "uint256"
            },
            {
              "internalType": "uint256",
              "name": "validUntil",
              "type": "uint256"
            },
            {
              "internalType": "bool",
              "name": "directPricePair",
              "type": "bool"
            },
            {
              "internalType": "string",
              "name": "assetFtsoSymbol",
              "type": "string"
            },
            {
              "internalType": "string",
              "name": "tokenFtsoSymbol",
              "type": "string"
            },
            {
              "internalType": "uint256",
              "name": "minCollateralRatioBIPS",
              "type": "uint256"
            },
            {
              "internalType": "uint256",
              "name": "ccbMinCollateralRatioBIPS",
              "type": "uint256"
            },
            {
              "internalType": "uint256",
              "name": "safetyMinCollateralRatioBIPS",
              "type": "uint256"
            }
          ],
          "internalType": "struct IAssetManager.CollateralType",
          "name": "_data",
          "type": "tuple"
        }
      ],
      "name": "setPoolCollateralType",
      "outputs": [],
      "stateMutability": "nonpayable",
      "type": "function"
    },
    {
      "inputs": [
        {
          "internalType": "address",
          "name": "_agentVault",
          "type": "address"
        }
      ],
      "name": "startLiquidation",
      "outputs": [],
      "stateMutability": "nonpayable",
      "type": "function"
    },
    {
      "inputs": [],
      "name": "terminate",
      "outputs": [],
      "stateMutability": "nonpayable",
      "type": "function"
    },
    {
      "inputs": [],
      "name": "unpause",
      "outputs": [],
      "stateMutability": "nonpayable",
      "type": "function"
    },
    {
      "inputs": [
        {
          "components": [
            {
              "internalType": "uint256",
              "name": "stateConnectorRound",
              "type": "uint256"
            },
            {
              "internalType": "bytes32[]",
              "name": "merkleProof",
              "type": "bytes32[]"
            },
            {
              "internalType": "uint64",
              "name": "blockNumber",
              "type": "uint64"
            },
            {
              "internalType": "uint64",
              "name": "blockTimestamp",
              "type": "uint64"
            },
            {
              "internalType": "uint8",
              "name": "numberOfConfirmations",
              "type": "uint8"
            },
            {
              "internalType": "uint64",
              "name": "averageBlockProductionTimeMs",
              "type": "uint64"
            },
            {
              "internalType": "uint64",
              "name": "lowestQueryWindowBlockNumber",
              "type": "uint64"
            },
            {
              "internalType": "uint64",
              "name": "lowestQueryWindowBlockTimestamp",
              "type": "uint64"
            }
          ],
          "internalType": "struct IAttestationClient.ConfirmedBlockHeightExists",
          "name": "_proof",
          "type": "tuple"
        },
        {
          "internalType": "uint256",
          "name": "_collateralReservationId",
          "type": "uint256"
        }
      ],
      "name": "unstickMinting",
      "outputs": [],
      "stateMutability": "payable",
      "type": "function"
    },
    {
      "inputs": [
        {
          "components": [
            {
              "internalType": "uint256",
              "name": "stateConnectorRound",
              "type": "uint256"
            },
            {
              "internalType": "bytes32[]",
              "name": "merkleProof",
              "type": "bytes32[]"
            },
            {
              "internalType": "uint64",
              "name": "blockNumber",
              "type": "uint64"
            },
            {
              "internalType": "uint64",
              "name": "blockTimestamp",
              "type": "uint64"
            },
            {
              "internalType": "uint8",
              "name": "numberOfConfirmations",
              "type": "uint8"
            },
            {
              "internalType": "uint64",
              "name": "averageBlockProductionTimeMs",
              "type": "uint64"
            },
            {
              "internalType": "uint64",
              "name": "lowestQueryWindowBlockNumber",
              "type": "uint64"
            },
            {
              "internalType": "uint64",
              "name": "lowestQueryWindowBlockTimestamp",
              "type": "uint64"
            }
          ],
          "internalType": "struct IAttestationClient.ConfirmedBlockHeightExists",
          "name": "_proof",
          "type": "tuple"
        }
      ],
      "name": "updateCurrentBlock",
      "outputs": [],
      "stateMutability": "nonpayable",
      "type": "function"
    },
    {
      "inputs": [
        {
          "internalType": "bytes32",
          "name": "_method",
          "type": "bytes32"
        },
        {
          "internalType": "bytes",
          "name": "_params",
          "type": "bytes"
        }
      ],
      "name": "updateSettings",
      "outputs": [],
      "stateMutability": "nonpayable",
      "type": "function"
    },
    {
      "inputs": [
        {
          "internalType": "address",
          "name": "_agentVault",
          "type": "address"
        }
      ],
      "name": "upgradeWNatContract",
      "outputs": [],
      "stateMutability": "nonpayable",
      "type": "function"
    },
    {
      "inputs": [
        {
          "internalType": "contract IERC20",
          "name": "_token",
          "type": "address"
        },
        {
          "internalType": "uint256",
          "name": "_valueNATWei",
          "type": "uint256"
        }
      ],
      "name": "withdrawCollateral",
      "outputs": [],
      "stateMutability": "nonpayable",
      "type": "function"
    }
  ],
  "bytecode": "0x60806040523480156200001157600080fd5b5060405162006740380380620067408339810160408190526200003491620005e3565b600160005560405163658f4c6160e01b815273__$498fae630e5f9e2b0d2f5a14b70bbf8a29$__9063658f4c619062000072908690600401620009e9565b60006040518083038186803b1580156200008b57600080fd5b505af4158015620000a0573d6000803e3d6000fd5b5050604051631a61fad160e01b815273__$b5cdffcf5b8f8ae6fa06e08eee0b808a00$__9250631a61fad19150620000dd90859060040162000d42565b60006040518083038186803b158015620000f657600080fd5b505af41580156200010b573d6000803e3d6000fd5b5050505062000125816200012e60201b62002aaa1760201c565b50505062000e73565b600062000145620001c060201b62002b1a1760201c565b600801546040516001600160a01b039091169150600090829063439fab91906200017490869060240162000e39565b604051602081830303815290604052915060e01b6020820180516001600160e01b0383818316178352505050509050620001ba8282620001e460201b62002b2c1760201c565b50505050565b7fec7e8c1c441439dd40959777f4c577ea0cd42fcc1dbe59d2bd0f5d9c55df8db690565b6060600080846001600160a01b03168460405162000203919062000e55565b600060405180830381855af49150503d806000811462000240576040519150601f19603f3d011682016040523d82523d6000602084013e62000245565b606091505b509150915081156200025b5791506200026e9050565b3d604051818101604052816000823e8181fd5b92915050565b634e487b7160e01b600052604160045260246000fd5b60405161014081016001600160401b0381118282101715620002b057620002b062000274565b60405290565b6040516105a081016001600160401b0381118282101715620002b057620002b062000274565b604051601f8201601f191681016001600160401b038111828210171562000307576200030762000274565b604052919050565b80516001600160a01b03811681146200032757600080fd5b919050565b805160ff811681146200032757600080fd5b805163ffffffff811681146200032757600080fd5b805180151581146200032757600080fd5b805161ffff811681146200032757600080fd5b80516001600160401b03811681146200032757600080fd5b80516001600160801b03811681146200032757600080fd5b8051600381106200032757600080fd5b60005b83811015620003d4578181015183820152602001620003ba565b83811115620001ba5750506000910152565b600082601f830112620003f857600080fd5b81516001600160401b0381111562000414576200041462000274565b62000429601f8201601f1916602001620002dc565b8181528460208386010111156200043f57600080fd5b62000452826020830160208701620003b7565b949350505050565b600082601f8301126200046c57600080fd5b815160206001600160401b03808311156200048b576200048b62000274565b8260051b6200049c838201620002dc565b9384528581018301938381019088861115620004b757600080fd5b84880192505b85831015620005d757825184811115620004d75760008081fd5b8801610140818b03601f1901811315620004f15760008081fd5b620004fb6200028a565b62000508888401620003a7565b81526040620005198185016200030f565b89830152606080850151828401526080915081850151818401525060a06200054381860162000353565b8284015260c0915081850151898111156200055e5760008081fd5b6200056e8f8c83890101620003e6565b82850152505060e08085015189811115620005895760008081fd5b620005998f8c83890101620003e6565b8385015250610100915081850151818401525061012080850151828401528385015181840152505080855250505084820191508483019250620004bd565b98975050505050505050565b60008060008385036105e0811215620005fb57600080fd5b6105a0808212156200060c57600080fd5b62000616620002b6565b915062000623866200030f565b825262000633602087016200030f565b602083015262000646604087016200030f565b604083015262000659606087016200030f565b60608301526200066c608087016200030f565b60808301526200067f60a087016200030f565b60a08301526200069260c087016200030f565b60c0830152620006a560e087016200030f565b60e0830152610100620006ba8188016200030f565b90830152610120620006ce8782016200030f565b90830152610140620006e28782016200032c565b90830152610160620006f68782016200032c565b908301526101806200070a8782016200033e565b908301526101a06200071e8782016200030f565b908301526101c06200073287820162000353565b908301526101e0620007468782016200033e565b908301526102006200075a87820162000364565b908301526102206200076e87820162000377565b908301526102406200078287820162000377565b908301526102606200079687820162000377565b90830152610280620007aa87820162000364565b908301526102a0620007be87820162000377565b908301526102c0620007d287820162000377565b908301526102e0620007e687820162000353565b90830152610300620007fa87820162000377565b908301526103206200080e87820162000377565b908301526103406200082287820162000364565b90830152610360620008368782016200033e565b908301526103806200084a8782016200033e565b908301526103a06200085e87820162000377565b908301526103c0620008728782016200038f565b908301526103e06200088687820162000364565b908301526104006200089a87820162000364565b90830152610420620008ae8782016200038f565b90830152610440620008c287820162000377565b90830152610460620008d687820162000377565b90830152610480620008ea87820162000377565b908301526104a0620008fe87820162000377565b908301526104c06200091287820162000377565b908301526104e06200092687820162000377565b908301526105006200093a87820162000377565b908301526105206200094e8782016200033e565b908301526105406200096287820162000377565b908301526105606200097687820162000377565b908301526105806200098a87820162000377565b908301528501519093506001600160401b0380821115620009aa57600080fd5b620009b8878388016200045a565b93506105c0860151915080821115620009d057600080fd5b50620009df86828701620003e6565b9150509250925092565b81516001600160a01b031681526105a08101602083015162000a1660208401826001600160a01b03169052565b50604083015162000a3260408401826001600160a01b03169052565b50606083015162000a4e60608401826001600160a01b03169052565b50608083015162000a6a60808401826001600160a01b03169052565b5060a083015162000a8660a08401826001600160a01b03169052565b5060c083015162000aa260c08401826001600160a01b03169052565b5060e083015162000abe60e08401826001600160a01b03169052565b50610100838101516001600160a01b0390811691840191909152610120808501518216908401526101408085015160ff9081169185019190915261016080860151909116908401526101808085015163ffffffff908116918501919091526101a080860151909216918401919091526101c0808501511515908401526101e0808501518216908401526102008085015161ffff90811691850191909152610220808601516001600160401b03908116918601919091526102408087015182169086015261026080870151821690860152610280808701518316908601526102a0808701518216908601526102c0808701518216908601526102e08087015115159086015261030080870151821690860152610320808701518216908601526103408087015183169086015261036080870151841690860152610380808701518416908601526103a0808701518216908601526103c0808701516001600160801b03908116918701919091526103e080880151841690870152610400808801519093169286019290925261042080870151909216918501919091526104408086015182169085015261046080860151821690850152610480808601518216908501526104a0808601518216908501526104c0808601518216908501526104e08086015182169085015261050080860151821690850152610520808601519092169184019190915261054080850151821690840152610560808501518216908401526105809384015116929091019190915290565b6003811062000d1057634e487b7160e01b600052602160045260246000fd5b9052565b6000815180845262000d2e816020860160208601620003b7565b601f01601f19169290920160200192915050565b60006020808301818452808551808352604092508286019150828160051b87010184880160005b8381101562000e2b57603f19898403018552815161014062000d8d85835162000cf1565b888201516001600160a01b0316858a015287820151888601526060808301519086015260808083015115159086015260a08083015181870183905262000dd68388018262000d14565b9250505060c0808301518683038288015262000df3838262000d14565b60e085810151908901526101008086015190890152610120948501519490970193909352505050938601939086019060010162000d69565b509098975050505050505050565b60208152600062000e4e602083018462000d14565b9392505050565b6000825162000e69818460208701620003b7565b9190910192915050565b6158bd8062000e836000396000f3fe6080604052600436106104105760003560e01c806383c57d141161021e578063c0674b4611610123578063ed000b30116100ab578063f060b3f11161007a578063f060b3f114610cec578063f0c0b72514610d0c578063f19d3c0614610d21578063f4d000b214610d41578063f54ff23014610d6157600080fd5b8063ed000b3014610c6c578063ed3762aa14610c8c578063ee80a23014610cac578063eebbcd5514610ccc57600080fd5b8063e415339c116100f2578063e415339c14610bd5578063e7732f9114610bf5578063eb5abafc14610c15578063ec96c1c914610c35578063ecaf1cdf14610c5757600080fd5b8063c0674b4614610b62578063d6b93a9f14610b82578063dda4921314610ba2578063e1c5010014610bb557600080fd5b8063b19aec17116101a6578063b928b53311610175578063b928b53314610ab4578063ba657a3614610ad4578063bcbaf48714610af4578063bd60353514610b2f578063bfead88714610b4257600080fd5b8063b19aec1714610a3e578063b5a488a614610a6c578063b68af97e14610a81578063b7f658ab14610a9457600080fd5b80638bf11326116101ed5780638bf113261461099e5780638c9ea976146109be5780639584da2a146109de578063a07ea7af146109fe578063b046cd1714610a1e57600080fd5b806383c57d14146109275780638456cb591461094757806385b4bb531461095c5780638ad2a9501461097e57600080fd5b80633851b61411610324578063612007e5116102ac578063753923f01161027b578063753923f014610882578063778aadd5146108a25780637c7db1a5146108c25780638003314d146108d757806382dede261461090557600080fd5b8063612007e5146107e257806365454f9414610802578063672ab4e1146108225780636e61164f1461084257600080fd5b806353777730116102f3578063537777301461071d57806353ed178e146107555780635c975abb146107755780635cdf04b3146107a25780635e71055c146107c257600080fd5b80633851b614146106835780633f4ba83a146106a35780634610bc23146106b85780635252f3a2146106e557600080fd5b8063152052b0116103a7578063268b2ec111610376578063268b2ec1146105d55780632a4c48a8146105f55780632dabf2d014610615578063350c35e914610635578063368a35931461065557600080fd5b8063152052b0146105485780631f81949014610575578063249f1b591461059557806324b76fd5146105b557600080fd5b80630a4b9ec2116103e35780630a4b9ec2146104d35780630c08bf88146104f35780630ffb0e861461050857806313199ee01461052857600080fd5b806302312aec14610415578063025dfeb21461044457806304203930146104665780630877acff14610486575b600080fd5b34801561042157600080fd5b5061042a610d81565b604080519283526020830191909152015b60405180910390f35b34801561045057600080fd5b5061046461045f366004613520565b610dd5565b005b34801561047257600080fd5b50610464610481366004613571565b610e49565b34801561049257600080fd5b507fec7e8c1c441439dd40959777f4c577ea0cd42fcc1dbe59d2bd0f5d9c55df8dd9546001600160401b03620100008204811691600160501b90041661042a565b3480156104df57600080fd5b506104646104ee366004613571565b610e89565b3480156104ff57600080fd5b50610464610ecf565b34801561051457600080fd5b506104646105233660046136cf565b610fd5565b34801561053457600080fd5b5061046461054336600461373f565b611057565b34801561055457600080fd5b50610568610563366004613571565b6110cf565b60405161043b9190613802565b34801561058157600080fd5b50610464610590366004613a44565b61128f565b3480156105a157600080fd5b506104646105b0366004613a88565b611304565b3480156105c157600080fd5b506104646105d0366004613ad9565b611382565b3480156105e157600080fd5b506104646105f0366004613b1f565b6113cd565b34801561060157600080fd5b50610464610610366004613b7c565b61140e565b34801561062157600080fd5b50610464610630366004613bb0565b611445565b34801561064157600080fd5b50610464610650366004613bb0565b611481565b34801561066157600080fd5b50610675610670366004613bce565b6114ce565b60405190815260200161043b565b34801561068f57600080fd5b5061046461069e366004613571565b61155c565b3480156106af57600080fd5b5061046461159c565b3480156106c457600080fd5b506106d86106d3366004613be7565b611694565b60405161043b9190613ce9565b3480156106f157600080fd5b50610705610700366004613571565b61177b565b6040516001600160a01b03909116815260200161043b565b34801561072957600080fd5b5060008051602061586883398151915254600160401b900460ff165b604051901515815260200161043b565b34801561076157600080fd5b50610464610770366004613cfc565b611796565b34801561078157600080fd5b50600080516020615868833981519152546001600160401b03161515610745565b3480156107ae57600080fd5b506104646107bd366004613d44565b6117d7565b3480156107ce57600080fd5b506104646107dd366004613571565b611818565b3480156107ee57600080fd5b506104646107fd366004613571565b611858565b34801561080e57600080fd5b5061046461081d366004613571565b611898565b34801561082e57600080fd5b5061046461083d366004613520565b6118d8565b34801561084e57600080fd5b5061086261085d366004613571565b611917565b604080516001600160a01b0393841681529290911660208301520161043b565b34801561088e57600080fd5b5061046461089d366004613b1f565b6119a0565b3480156108ae57600080fd5b506104646108bd366004613d8a565b6119c4565b3480156108ce57600080fd5b50610705611a0c565b3480156108e357600080fd5b506108f76108f2366004613da8565b611a1b565b60405161043b929190613dca565b34801561091157600080fd5b5061091a611aac565b60405161043b9190613e48565b34801561093357600080fd5b50610464610942366004613eaa565b611b1f565b34801561095357600080fd5b50610464611b62565b34801561096857600080fd5b50610971611bc7565b60405161043b9190613f2f565b34801561098a57600080fd5b50610464610999366004614230565b611fbd565b3480156109aa57600080fd5b506104646109b9366004614264565b611ff4565b3480156109ca57600080fd5b506107456109d9366004613d8a565b6120a1565b3480156109ea57600080fd5b506104646109f9366004613bb0565b612127565b348015610a0a57600080fd5b50610464610a19366004613571565b61216e565b348015610a2a57600080fd5b50610464610a393660046142ac565b6121ae565b348015610a4a57600080fd5b50610a5e610a59366004613da8565b6121e7565b60405161043b9291906142e1565b348015610a7857600080fd5b5061070561226d565b610464610a8f366004613571565b612277565b348015610aa057600080fd5b50610464610aaf366004613571565b6123c0565b348015610ac057600080fd5b50610464610acf36600461434b565b612400565b348015610ae057600080fd5b50610464610aef366004613571565b612438565b348015610b0057600080fd5b50610b14610b0f366004613bb0565b612478565b6040805193845260208401929092529082015260600161043b565b610464610b3d366004614368565b612516565b348015610b4e57600080fd5b50610464610b5d366004613a44565b61259f565b348015610b6e57600080fd5b50610464610b7d366004613571565b612641565b348015610b8e57600080fd5b50610745610b9d366004613d8a565b612681565b610464610bb0366004613cfc565b612695565b348015610bc157600080fd5b50610464610bd0366004613571565b6126fe565b348015610be157600080fd5b50610a5e610bf0366004613da8565b612745565b348015610c0157600080fd5b50610464610c1036600461439d565b61278a565b348015610c2157600080fd5b50610464610c303660046143d6565b6127c3565b348015610c4157600080fd5b50610c4a612806565b60405161043b9190614442565b348015610c6357600080fd5b50610675612810565b348015610c7857600080fd5b50610464610c87366004614455565b612855565b348015610c9857600080fd5b50610675610ca7366004613571565b6128a4565b348015610cb857600080fd5b50610464610cc73660046142ac565b6128e7565b348015610cd857600080fd5b50610464610ce7366004613520565b612920565b348015610cf857600080fd5b50610464610d07366004614475565b61295f565b348015610d1857600080fd5b506107056129d2565b348015610d2d57600080fd5b50610464610d3c3660046144e0565b6129eb565b348015610d4d57600080fd5b50610464610d5c366004613571565b612a2e565b348015610d6d57600080fd5b50610464610d7c366004613bb0565b612a6e565b6000806000610d8e612b1a565b9050610da0610d9b612bb0565b612c32565b600b820154909350600160401b90046001600160401b0316610dc46009600a614655565b610dce9190614661565b9150509091565b610ddd612c48565b6040516366e8dca360e01b815273__$8ed6b3b04009dff171844b9d72c92eddd0$__906366e8dca390610e1690309085906004016146ee565b60006040518083038186803b158015610e2e57600080fd5b505af4158015610e42573d6000803e3d6000fd5b5050505050565b60405163b42652e960e01b81526001600160a01b038216600482015273__$4054b81dd018f00b16b0262e280b71bd3d$__9063b42652e990602401610e16565b60405163c7be12eb60e01b81526001600160a01b038216600482015233602482015273__$c7446ca28182994c6c0135601399c1b584$__9063c7be12eb90604401610e16565b610ed7612c9f565b60008051602061586883398151915254600080516020615848833981519152906001600160401b031615801590610f2857506024810154610f259062278d00906001600160401b03166147a6565b42115b610f795760405162461bcd60e51b815260206004820152601f60248201527f6173736574206d616e61676572206e6f742070617573656420656e6f7567680060448201526064015b60405180910390fd5b60018101546040805163018117f160e31b815290516001600160a01b0390921691630c08bf889160048082019260009290919082900301818387803b158015610fc157600080fd5b505af1158015610e42573d6000803e3d6000fd5b60405163ccfb491360e01b815273__$df85e949fff37977e0d300eb10fcbb4998$__9063ccfb491390611010908690869086906004016147be565b602060405180830381865af415801561102d573d6000803e3d6000fd5b505050506040513d601f19601f8201168201806040525081019061105191906147f2565b50505050565b61105f612c9f565b60405163a9527ae160e01b815273__$b5cdffcf5b8f8ae6fa06e08eee0b808a00$__9063a9527ae19061109a9086908690869060040161480b565b60006040518083038186803b1580156110b257600080fd5b505af41580156110c6573d6000803e3d6000fd5b50505050505050565b611209604080516104a08101909152806000815260200160006001600160a01b0316815260200160006001600160a01b0316815260200160006001600160a01b0316815260200160608152602001600015158152602001600081526020016000815260200160006001600160a01b03168152602001600081526020016000815260200160008152602001600081526020016000815260200160008152602001600081526020016000815260200160008152602001600081526020016000815260200160008152602001600081526020016000815260200160008152602001600081526020016000815260200160008152602001600081526020016000815260200160008152602001600081526020016000815260200160008152602001600081526020016000815260200160008152602001600081525090565b604051630152052b60e41b81526001600160a01b038316600482015273__$ec55c6bae1638b00bbedb6b751f1f84e77$__9063152052b090602401600060405180830381865af4158015611261573d6000803e3d6000fd5b505050506040513d6000823e601f3d908101601f1916820160405261128991908101906148aa565b92915050565b73__$305ac64b111b0d775ac583a3c3f22849b9$__634e1b6cd6836112b384612cff565b6040518363ffffffff1660e01b81526004016112d0929190614c6d565b60006040518083038186803b1580156112e857600080fd5b505af41580156112fc573d6000803e3d6000fd5b505050505050565b61130c612c9f565b60405163f79900b160e01b815273__$b5cdffcf5b8f8ae6fa06e08eee0b808a00$__9063f79900b19061134b9088908890889088908890600401614c98565b60006040518083038186803b15801561136357600080fd5b505af4158015611377573d6000803e3d6000fd5b505050505050505050565b61138a612d6b565b73__$4ff30c53c077284d3b777228e6ae31216c$__6326e68cd4336113ae85612cff565b846040518463ffffffff1660e01b81526004016112d093929190614ccf565b73__$2121826b9482dc4a95d5f1c5bc0ffbdf06$__63c2002505836113f184612cff565b6040518363ffffffff1660e01b81526004016112d0929190614d19565b60405163e70e767f60e01b815273__$722590fcf677171437eb48cf082465d6d7$__9063e70e767f90610e16908490600401614f2b565b60405163a43ba5ab60e01b815273__$c7446ca28182994c6c0135601399c1b584$__9063a43ba5ab906112d0906002908690869060040161480b565b604051631f463e2360e21b81526001600160a01b03831660048201523360248201526044810182905273__$c7446ca28182994c6c0135601399c1b584$__90637d18f88c906064016112d0565b600073__$f7c9c0d01068167c22df35ff5943b62148$__630c7dcd156114f384612cff565b6040516001600160e01b031960e084901b1681526001600160401b0390911660048201526024015b602060405180830381865af4158015611538573d6000803e3d6000fd5b505050506040513d601f19601f8201168201806040525081019061128991906147f2565b60405163fdf6b37560e01b81526001600160a01b038216600482015273__$4054b81dd018f00b16b0262e280b71bd3d$__9063fdf6b37590602401610e16565b6115a4612c9f565b7fec7e8c1c441439dd40959777f4c577ea0cd42fcc1dbe59d2bd0f5d9c55df8db7546040805163194307bf60e01b81529051600080516020615848833981519152926001600160a01b03169163194307bf9160048083019260209291908290030181865afa15801561161a573d6000803e3d6000fd5b505050506040513d601f19601f8201168201806040525081019061163e9190614f3e565b156116805760405162461bcd60e51b8152602060048201526012602482015271198b585cdcd95d081d195c9b5a5b985d195960721b6044820152606401610f70565b602401805467ffffffffffffffff19169055565b6116f6604080516101408101909152806000815260200160006001600160a01b03168152602001600081526020016000815260200160001515815260200160608152602001606081526020016000815260200160008152602001600081525090565b6040516338d0fa7b60e11b815273__$b5cdffcf5b8f8ae6fa06e08eee0b808a00$__906371a1f4f69061172f9086908690600401614f5b565b600060405180830381865af415801561174c573d6000803e3d6000fd5b505050506040513d6000823e601f3d908101601f191682016040526117749190810190615063565b9392505050565b600061178682612e38565b546001600160a01b031692915050565b73__$2121826b9482dc4a95d5f1c5bc0ffbdf06$__630fec40b6836117ba84612cff565b6040518363ffffffff1660e01b81526004016112d0929190615097565b6117df612d6b565b60405163ed99865b60e01b815273__$d15fd82c1987b4adc4c1dba5cf0be762b0$__9063ed99865b906112d09085908590600401615150565b60405163e4c5e4e960e01b81526001600160a01b038216600482015273__$8ed6b3b04009dff171844b9d72c92eddd0$__9063e4c5e4e990602401610e16565b604051630877cd8160e41b81526001600160a01b038216600482015273__$4054b81dd018f00b16b0262e280b71bd3d$__9063877cd81090602401610e16565b60405163195153e560e21b81526001600160a01b038216600482015273__$c7446ca28182994c6c0135601399c1b584$__906365454f9490602401610e16565b6118e0612c9f565b604051631f9841df60e21b815273__$b5cdffcf5b8f8ae6fa06e08eee0b808a00$__90637e61077c90610e1690849060040161517a565b604051636e61164f60e01b81526001600160a01b0382166004820152600090819073__$c7446ca28182994c6c0135601399c1b584$__90636e61164f906024016040805180830381865af4158015611973573d6000803e3d6000fd5b505050506040513d601f19601f820116820180604052508101906119979190615255565b91509150915091565b73__$f7c9c0d01068167c22df35ff5943b62148$__6355c4ef8f836113f184612cff565b60405163778aadd560e01b81526001600160a01b0380841660048301528216602482015273__$8ed6b3b04009dff171844b9d72c92eddd0$__9063778aadd5906044016112d0565b6000611a16612ee0565b905090565b60405163825378af60e01b8152600481018390526024810182905260609060009073__$4054b81dd018f00b16b0262e280b71bd3d$__9063825378af90604401600060405180830381865af4158015611a78573d6000803e3d6000fd5b505050506040513d6000823e601f3d908101601f19168201604052611aa091908101906152a7565b915091505b9250929050565b606073__$b5cdffcf5b8f8ae6fa06e08eee0b808a00$__63d80516a56040518163ffffffff1660e01b8152600401600060405180830381865af4158015611af7573d6000803e3d6000fd5b505050506040513d6000823e601f3d908101601f19168201604052611a169190810190615389565b611b27612d6b565b6040516366a1b64560e11b815273__$d15fd82c1987b4adc4c1dba5cf0be762b0$__9063cd436c8a9061109a90869086908690600401615439565b611b6a612c9f565b60008051602061586883398151915254600080516020615848833981519152906001600160401b0316611bc457611ba042612cff565b60248201805467ffffffffffffffff19166001600160401b03929092169190911790555b50565b604080516105a081018252600080825260208201819052918101829052606081018290526080810182905260a0810182905260c0810182905260e08101829052610100810182905261012081018290526101408101829052610160810182905261018081018290526101a081018290526101c081018290526101e08101829052610200810182905261022081018290526102408101829052610260810182905261028081018290526102a081018290526102c081018290526102e08101829052610300810182905261032081018290526103408101829052610360810182905261038081018290526103a081018290526103c081018290526103e08101829052610400810182905261042081018290526104408101829052610460810182905261048081018290526104a081018290526104c081018290526104e081018290526105008101829052610520810182905261054081018290526105608101829052610580810191909152611d38612b1a565b604080516105a08101825282546001600160a01b03908116825260018401548116602083015260028401548116928201929092526003830154821660608201526004830154821660808201526005830154821660a08201526006830154821660c08201526007830154821660e082015260088301548216610100820152600983015480831661012083015260ff600160a01b8083048216610140850152600160a81b808404831661016086015263ffffffff600160b01b9094048416610180860152600a8701549586166101a0860152818604831615156101c0860152850483166101e085015261ffff600160c81b9095048516610200850152600b8601546001600160401b03808216610220870152600160401b8083048216610240880152600160801b8084048316610260890152600160c01b938490048916610280890152600c8a01548084166102a08a015282810484166102c08a015281810490961615156102e0890152600160881b9095048216610300880152600d8901548083166103208901528181048916610340890152600160501b81048716610360890152600160701b81048716610380890152600160901b9081900483166103a0890152600e8a01546001600160801b038082166103c08b01528782048b166103e08b0152919004909816610400880152600f8901549788166104208801528488048216610440880152968290048116610460870152601088015480821661048088015287810482166104a088015293840481166104c0870152920482166104e08501526011860154808316610500860152948504909216610520840152600160601b840481166105408401529204821661056082015260129092015416610580820152919050565b604051632560e1bd60e01b815273__$8ed6b3b04009dff171844b9d72c92eddd0$__90632560e1bd90610e169084906004016154c0565b611ffc612c48565b6002600054141561201f5760405162461bcd60e51b8152600401610f70906154d3565b600260005573__$db99a4b0b1a8936beb7122d8143ea3b698$__634c141157848461204985612cff565b6040518463ffffffff1660e01b81526004016120679392919061550a565b60006040518083038186803b15801561207f57600080fd5b505af4158015612093573d6000803e3d6000fd5b505060016000555050505050565b60405162cb3d5f60e31b81526001600160a01b0380841660048301528216602482015260009073__$c7446ca28182994c6c0135601399c1b584$__90630659eaf890604401602060405180830381865af4158015612103573d6000803e3d6000fd5b505050506040513d601f19601f820116820180604052508101906117749190614f3e565b604051634ac26d1560e11b81526001600160a01b03831660048201526024810182905273__$4ff30c53c077284d3b777228e6ae31216c$__90639584da2a906044016112d0565b60405163a07ea7af60e01b81526001600160a01b038216600482015273__$900ca2dd89aa7bd7c22612e1484fcfb277$__9063a07ea7af90602401610e16565b60405163364a99d160e21b815273__$900ca2dd89aa7bd7c22612e1484fcfb277$__9063d92a6744906112d09085908590600401615546565b60405163b19aec1760e01b8152600481018390526024810182905260609060009073__$c7446ca28182994c6c0135601399c1b584$__9063b19aec17906044015b600060405180830381865af4158015612245573d6000803e3d6000fd5b505050506040513d6000823e601f3d908101601f19168201604052611aa09190810190615559565b6000611a16612efe565b6002600054141561229a5760405162461bcd60e51b8152600401610f70906154d3565b60026000556122a7612ee0565b6001600160a01b031663194307bf6040518163ffffffff1660e01b8152600401602060405180830381865afa1580156122e4573d6000803e3d6000fd5b505050506040513d601f19601f820116820180604052508101906123089190614f3e565b61234d5760405162461bcd60e51b8152602060048201526016602482015275198b585cdcd95d081b9bdd081d195c9b5a5b985d195960521b6044820152606401610f70565b604051635b457cbf60e11b81526001600160a01b038216600482015273__$8ed6b3b04009dff171844b9d72c92eddd0$__9063b68af97e9060240160006040518083038186803b1580156123a057600080fd5b505af41580156123b4573d6000803e3d6000fd5b50506001600055505050565b60405163b7f658ab60e01b81526001600160a01b038216600482015273__$55e854ab37cd1bbaf9fa5a4f99ff154ced$__9063b7f658ab90602401610e16565b612408612c9f565b6000805160206158688339815191528054911515600160401b0268ff000000000000000019909216919091179055565b604051635d32bd1b60e11b81526001600160a01b038216600482015273__$8ed6b3b04009dff171844b9d72c92eddd0$__9063ba657a3690602401610e16565b6000806000612485612d6b565b60405163bcbaf48760e01b81526001600160a01b03861660048201526024810185905273__$55e854ab37cd1bbaf9fa5a4f99ff154ced$__9063bcbaf48790604401606060405180830381865af41580156124e4573d6000803e3d6000fd5b505050506040513d601f19601f8201168201806040525081019061250891906155fa565b919790965090945092505050565b61251e612c48565b612526612d6b565b73__$f7c9c0d01068167c22df35ff5943b62148$__63f2821a62338561254b86612cff565b61255486612cff565b6040516001600160e01b031960e087901b1681526001600160a01b0394851660048201529390921660248401526001600160401b03908116604484015216606482015260840161109a565b600260005414156125c25760405162461bcd60e51b8152600401610f70906154d3565b600260005573__$db99a4b0b1a8936beb7122d8143ea3b698$__63aeeb13a0836125eb84612cff565b6040518363ffffffff1660e01b8152600401612608929190614c6d565b60006040518083038186803b15801561262057600080fd5b505af4158015612634573d6000803e3d6000fd5b5050600160005550505050565b604051636033a5a360e11b81526001600160a01b038216600482015273__$900ca2dd89aa7bd7c22612e1484fcfb277$__9063c0674b4690602401610e16565b600061177461268f84612e38565b83612f8c565b600260005414156126b85760405162461bcd60e51b8152600401610f70906154d3565b600260005573__$f7c9c0d01068167c22df35ff5943b62148$__632d984f75836126e184612cff565b6040518363ffffffff1660e01b8152600401612608929190615097565b612706612d6b565b60405162e1c50160e81b81526001600160a01b038216600482015273__$55e854ab37cd1bbaf9fa5a4f99ff154ced$__9063e1c5010090602401610e16565b6040516315302d6160e31b8152600481018390526024810182905260609060009073__$4054b81dd018f00b16b0262e280b71bd3d$__9063a9816b0890604401612228565b6040516331ec097760e01b815273__$df85e949fff37977e0d300eb10fcbb4998$__906331ec0977906112d09085908590600401615628565b6127cb612d6b565b60405163264becd360e21b815273__$d15fd82c1987b4adc4c1dba5cf0be762b0$__9063992fb34c9061109a9086908690869060040161564c565b6060611a16612fe6565b60008061281b612b1a565b600b810154909150612846906001600160401b03600160401b8204811691600160801b90041661568a565b6001600160401b031691505090565b604051630ed000b360e41b81526001600160a01b038085166004830152831660248201526044810182905273__$4ff30c53c077284d3b777228e6ae31216c$__9063ed000b309060640161109a565b60405163769bb15560e11b81526001600160a01b038216600482015260009073__$c7446ca28182994c6c0135601399c1b584$__9063ed3762aa9060240161151b565b604051630314945d60e41b815273__$1c6dbe76071682217e38af6fe7e8685bd4$__9063314945d0906112d09085908590600401615546565b612928612c9f565b60405163568487cf60e01b815273__$b5cdffcf5b8f8ae6fa06e08eee0b808a00$__9063568487cf90610e1690849060040161517a565b60405163f060b3f160e01b815273__$4ff30c53c077284d3b777228e6ae31216c$__9063f060b3f19061299c9087908790879087906004016156b9565b60006040518083038186803b1580156129b457600080fd5b505af41580156129c8573d6000803e3d6000fd5b5050505050505050565b60006129dc612b1a565b546001600160a01b0316919050565b6129f3612c9f565b6040516302fab52b60e01b815273__$498fae630e5f9e2b0d2f5a14b70bbf8a29$__906302fab52b9061109a908690869086906004016156f6565b604051637a68005960e11b81526001600160a01b038216600482015273__$c7446ca28182994c6c0135601399c1b584$__9063f4d000b290602401610e16565b60405163a43ba5ab60e01b815273__$c7446ca28182994c6c0135601399c1b584$__9063a43ba5ab906112d0906000908690869060040161480b565b6000612ab4612b1a565b600801546040516001600160a01b039091169150600090829063439fab9190612ae1908690602401614442565b604051602081830303815290604052915060e01b6020820180516001600160e01b03838183161783525050505090506110518282612b2c565b60008051602061584883398151915290565b6060600080846001600160a01b031684604051612b499190615710565b600060405180830381855af49150503d8060008114612b84576040519150601f19603f3d011682016040523d82523d6000602084013e612b89565b606091505b50915091508115612b9d5791506112899050565b3d604051818101604052816000823e8181fd5b7fec7e8c1c441439dd40959777f4c577ea0cd42fcc1dbe59d2bd0f5d9c55df8dd9547fec7e8c1c441439dd40959777f4c577ea0cd42fcc1dbe59d2bd0f5d9c55df8dc98054600092600080516020615848833981519152929161ffff909116908110612c1e57612c1e61572c565b906000526020600020906004020191505090565b6000612c3f826000613056565b50909392505050565b60008051602061586883398151915254600160401b900460ff16612c9d5760405162461bcd60e51b815260206004820152600c60248201526b1b9bdd08185d1d1858da195960a21b6044820152606401610f70565b565b612ca7612b1a565b546001600160a01b03163314612c9d5760405162461bcd60e51b815260206004820152601d60248201527f6f6e6c79206173736574206d616e6167657220636f6e74726f6c6c65720000006044820152606401610f70565b60006001600160401b03821115612d675760405162461bcd60e51b815260206004820152602660248201527f53616665436173743a2076616c756520646f65736e27742066697420696e203660448201526534206269747360d01b6064820152608401610f70565b5090565b6000612d75612b1a565b60048101549091506001600160a01b031615611bc457600481810154604051633af32abf60e01b815233928101929092526001600160a01b031690633af32abf90602401602060405180830381865afa158015612dd6573d6000803e3d6000fd5b505050506040513d601f19601f82011682018060405250810190612dfa9190614f3e565b611bc45760405162461bcd60e51b815260206004820152600f60248201526e1b9bdd081dda1a5d195b1a5cdd1959608a1b6044820152606401610f70565b7f5bebac0595fee029d42bb673937f5f1cb81cf8641382bc17774635de9b7d796568010000000000000000600160e01b03604083901b161880600060048084015460ff1690811115612e8c57612e8c613780565b1415612eda5760405162461bcd60e51b815260206004820152601b60248201527f696e76616c6964206167656e74207661756c74206164647265737300000000006044820152606401610f70565b50919050565b600080612eeb612b1a565b600101546001600160a01b031692915050565b7fec7e8c1c441439dd40959777f4c577ea0cd42fcc1dbe59d2bd0f5d9c55df8dd9547fec7e8c1c441439dd40959777f4c577ea0cd42fcc1dbe59d2bd0f5d9c55df8dc98054600092600080516020615848833981519152929161ffff909116908110612f6c57612f6c61572c565b60009182526020909120600490910201546001600160a01b031692915050565b6001820154600090600080516020615848833981519152906001600160a01b03908116908416811480612fdd57506001600160a01b0380821660009081526016840160205260409020548582169116145b95945050505050565b60606000612ff2612b1a565b600801546040805160048152602481019091526020810180516001600160e01b03166385b4bb5360e01b1790526001600160a01b03909116915060006130388383613215565b90508080602001905181019061304e9190615742565b935050505090565b6000806000806000806130f58860010180546130719061578a565b80601f016020809104026020016040519081016040528092919081815260200182805461309d9061578a565b80156130ea5780601f106130bf576101008083540402835291602001916130ea565b820191906000526020600020905b8154815290600101906020018083116130cd57829003601f168201915b505050505088613229565b8a549295509093509150600160f01b900460ff161561313c57875460009061312b90600160a81b900460ff166001838786613365565b965091945084935061320e92505050565b60008060006131d78b60020180546131539061578a565b80601f016020809104026020016040519081016040528092919081815260200182805461317f9061578a565b80156131cc5780601f106131a1576101008083540402835291602001916131cc565b820191906000526020600020905b8154815290600101906020018083116131af57829003601f168201915b50505050508b613229565b8d5492955090935091506000906131fb90600160a81b900460ff1685848a89613365565b995094975090955061320e945050505050565b9250925092565b6060612b2c80612fdd858563ffffffff8416565b600080600080613237612b1a565b60098101546040516325f69abd60e21b81529192506000916001600160a01b03909116906397da6af49061326f908a90600401614442565b602060405180830381865afa15801561328c573d6000803e3d6000fd5b505050506040513d601f19601f820116820180604052508101906132b091906157bf565b9050851561332757806001600160a01b0316633cacb3ae6040518163ffffffff1660e01b8152600401606060405180830381865afa1580156132f6573d6000803e3d6000fd5b505050506040513d601f19601f8201168201806040525081019061331a91906155fa565b945094509450505061320e565b806001600160a01b03166365f5cd866040518163ffffffff1660e01b8152600401606060405180830381865afa1580156132f6573d6000803e3d6000fd5b600080613370612b1a565b905060006009613380878a6147a6565b61338a91906147a6565b60098301549091506000906133aa908690600160a81b900460ff166147a6565b9050808210156133bc576133bc6157dc565b6133dc6133c982846157f2565b6133d490600a614655565b87908a6133e9565b9998505050505050505050565b600080821161342d5760405162461bcd60e51b815260206004820152601060248201526f4469766973696f6e206279207a65726f60801b6044820152606401610f70565b8361343a57506000611774565b8383028385828161344d5761344d615809565b04141561346c5782818161346357613463615809565b04915050611774565b506000613479838661581f565b905060006134878487615833565b90506000613495858761581f565b905060006134a38688615833565b9050856134b08285614661565b6134ba919061581f565b6134c48385614661565b6134ce8387614661565b886134d98689614661565b6134e39190614661565b6134ed91906147a6565b6134f791906147a6565b61350191906147a6565b98975050505050505050565b60006101408284031215612eda57600080fd5b60006020828403121561353257600080fd5b81356001600160401b0381111561354857600080fd5b6135548482850161350d565b949350505050565b6001600160a01b0381168114611bc457600080fd5b60006020828403121561358357600080fd5b81356117748161355c565b80356135998161355c565b919050565b634e487b7160e01b600052604160045260246000fd5b6040516104a081016001600160401b03811182821017156135d7576135d761359e565b60405290565b60405161014081016001600160401b03811182821017156135d7576135d761359e565b60405160a081016001600160401b03811182821017156135d7576135d761359e565b604051601f8201601f191681016001600160401b038111828210171561364a5761364a61359e565b604052919050565b60006001600160401b0382111561366b5761366b61359e565b50601f01601f191660200190565b600082601f83011261368a57600080fd5b813561369d61369882613652565b613622565b8181528460208386010111156136b257600080fd5b816020850160208301376000918101602001919091529392505050565b6000806000606084860312156136e457600080fd5b83356136ef8161355c565b925060208401356001600160401b0381111561370a57600080fd5b61371686828701613679565b925050604084013590509250925092565b60038110611bc457600080fd5b803561359981613727565b60008060006060848603121561375457600080fd5b833561375f81613727565b9250602084013561376f8161355c565b929592945050506040919091013590565b634e487b7160e01b600052602160045260246000fd5b600581106137a6576137a6613780565b9052565b60005b838110156137c55781810151838201526020016137ad565b838111156110515750506000910152565b600081518084526137ee8160208601602086016137aa565b601f01601f19169290920160200192915050565b60208152613814602082018351613796565b6000602083015161383060408401826001600160a01b03169052565b5060408301516001600160a01b03811660608401525060608301516001600160a01b03811660808401525060808301516104a08060a08501526138776104c08501836137d6565b915060a085015161388c60c086018215159052565b5060c085015160e085015260e08501516101008181870152808701519150506101206138c2818701836001600160a01b03169052565b8601516101408681019190915286015161016080870191909152860151610180808701919091528601516101a0808701919091528601516101c0808701919091528601516101e08087019190915286015161020080870191909152860151610220808701919091528601516102408087019190915286015161026080870191909152860151610280808701919091528601516102a0808701919091528601516102c0808701919091528601516102e08087019190915286015161030080870191909152860151610320808701919091528601516103408087019190915286015161036080870191909152860151610380808701919091528601516103a0808701919091528601516103c0808701919091528601516103e08087019190915286015161040080870191909152860151610420808701919091528601516104408087019190915286015161046080870191909152860151610480808701919091529095015193019290925250919050565b60006101c08284031215612eda57600080fd5b60008060408385031215613a5757600080fd5b82356001600160401b03811115613a6d57600080fd5b613a7985828601613a31565b95602094909401359450505050565b600080600080600060a08688031215613aa057600080fd5b8535613aab81613727565b94506020860135613abb8161355c565b94979496505050506040830135926060810135926080909101359150565b60008060408385031215613aec57600080fd5b8235915060208301356001600160401b03811115613b0957600080fd5b613b1585828601613679565b9150509250929050565b60008060408385031215613b3257600080fd5b82356001600160401b03811115613b4857600080fd5b83016101608186031215613b5b57600080fd5b946020939093013593505050565b60006101008284031215612eda57600080fd5b600060208284031215613b8e57600080fd5b81356001600160401b03811115613ba457600080fd5b61355484828501613b69565b60008060408385031215613bc357600080fd5b8235613b5b8161355c565b600060208284031215613be057600080fd5b5035919050565b60008060408385031215613bfa57600080fd5b8235613c0581613727565b91506020830135613c158161355c565b809150509250929050565b60038110611bc457611bc4613780565b6137a681613c20565b6000610140613c49848451613c30565b6020830151613c6360208601826001600160a01b03169052565b5060408301516040850152606083015160608501526080830151613c8b608086018215159052565b5060a08301518160a0860152613ca3828601826137d6565b91505060c083015184820360c0860152613cbd82826137d6565b60e085810151908701526101008086015190870152610120948501519490950193909352509192915050565b6020815260006117746020830184613c39565b60008060408385031215613d0f57600080fd5b82356001600160401b03811115613d2557600080fd5b613a7985828601613b69565b60006101208284031215612eda57600080fd5b60008060408385031215613d5757600080fd5b82356001600160401b03811115613d6d57600080fd5b613d7985828601613d31565b9250506020830135613c158161355c565b60008060408385031215613d9d57600080fd5b8235613c058161355c565b60008060408385031215613dbb57600080fd5b50508035926020909101359150565b6040808252835182820181905260009190606090818501906020808901865b83811015613e3457815180516001600160a01b031686528381015184870152878101518887015286810151878701526080908101519086015260a09094019390820190600101613de9565b505095909501959095525092949350505050565b6000602080830181845280855180835260408601915060408160051b870101925083870160005b82811015613e9d57603f19888603018452613e8b858351613c39565b94509285019290850190600101613e6f565b5092979650505050505050565b600080600060408486031215613ebf57600080fd5b83356001600160401b0380821115613ed657600080fd5b818601915086601f830112613eea57600080fd5b813581811115613ef957600080fd5b8760208260051b8501011115613f0e57600080fd5b60209283019550935050840135613f248161355c565b809150509250925092565b81516001600160a01b031681526105a081016020830151613f5b60208401826001600160a01b03169052565b506040830151613f7660408401826001600160a01b03169052565b506060830151613f9160608401826001600160a01b03169052565b506080830151613fac60808401826001600160a01b03169052565b5060a0830151613fc760a08401826001600160a01b03169052565b5060c0830151613fe260c08401826001600160a01b03169052565b5060e0830151613ffd60e08401826001600160a01b03169052565b50610100838101516001600160a01b0390811691840191909152610120808501518216908401526101408085015160ff9081169185019190915261016080860151909116908401526101808085015163ffffffff908116918501919091526101a080860151909216918401919091526101c0808501511515908401526101e0808501518216908401526102008085015161ffff90811691850191909152610220808601516001600160401b03908116918601919091526102408087015182169086015261026080870151821690860152610280808701518316908601526102a0808701518216908601526102c0808701518216908601526102e08087015115159086015261030080870151821690860152610320808701518216908601526103408087015183169086015261036080870151841690860152610380808701518416908601526103a0808701518216908601526103c0808701516001600160801b03908116918701919091526103e080880151841690870152610400808801519093169286019290925261042080870151909216918501919091526104408086015182169085015261046080860151821690850152610480808601518216908501526104a0808601518216908501526104c0808601518216908501526104e08086015182169085015261050080860151821690850152610520808601519092169184019190915261054080850151821690840152610560808501518216908401526105809384015116929091019190915290565b60006020828403121561424257600080fd5b81356001600160401b0381111561425857600080fd5b61355484828501613a31565b60008060006060848603121561427957600080fd5b83356001600160401b0381111561428f57600080fd5b61429b86828701613a31565b935050602084013561376f8161355c565b600080604083850312156142bf57600080fd5b82356001600160401b038111156142d557600080fd5b613d7985828601613a31565b604080825283519082018190526000906020906060840190828701845b828110156143235781516001600160a01b0316845292840192908401906001016142fe565b50505092019290925292915050565b8015158114611bc457600080fd5b803561359981614332565b60006020828403121561435d57600080fd5b813561177481614332565b60008060006060848603121561437d57600080fd5b83356143888161355c565b95602085013595506040909401359392505050565b600080604083850312156143b057600080fd5b82356143bb8161355c565b915060208301356001600160401b03811115613b0957600080fd5b6000806000606084860312156143eb57600080fd5b83356001600160401b038082111561440257600080fd5b61440e87838801613d31565b9450602086013591508082111561442457600080fd5b5061443186828701613d31565b9250506040840135613f248161355c565b60208152600061177460208301846137d6565b60008060006060848603121561446a57600080fd5b833561375f8161355c565b6000806000806080858703121561448b57600080fd5b84356144968161355c565b935060208501356144a68161355c565b92506040850135915060608501356001600160401b038111156144c857600080fd5b6144d487828801613679565b91505092959194509250565b6000806000604084860312156144f557600080fd5b8335925060208401356001600160401b038082111561451357600080fd5b818601915086601f83011261452757600080fd5b81358181111561453657600080fd5b87602082850101111561454857600080fd5b6020830194508093505050509250925092565b634e487b7160e01b600052601160045260246000fd5b600181815b808511156145ac5781600019048211156145925761459261455b565b8085161561459f57918102915b93841c9390800290614576565b509250929050565b6000826145c357506001611289565b816145d057506000611289565b81600181146145e657600281146145f05761460c565b6001915050611289565b60ff8411156146015761460161455b565b50506001821b611289565b5060208310610133831016604e8410600b841016171561462f575081810a611289565b6146398383614571565b806000190482111561464d5761464d61455b565b029392505050565b600061177483836145b4565b600081600019048311821515161561467b5761467b61455b565b500290565b6000808335601e1984360301811261469757600080fd5b83016020810192503590506001600160401b038111156146b657600080fd5b803603831315611aa557600080fd5b81835281816020850137506000828201602090810191909152601f909101601f19169091010190565b6001600160a01b038316815260406020820152600061470d8380614680565b610140806040860152614725610180860183856146c5565b92506147336020870161358e565b6001600160a01b0381166060870152915060408601356080860152606086013560a0860152608086013560c086015260a086013560e0860152610100915060c08601358286015261012060e087013581870152828701358287015280870135610160870152505050809150509392505050565b600082198211156147b9576147b961455b565b500190565b6001600160a01b03841681526060602082018190526000906147e2908301856137d6565b9050826040830152949350505050565b60006020828403121561480457600080fd5b5051919050565b6060810161481885613c20565b9381526001600160a01b0392909216602083015260409091015290565b80516005811061359957600080fd5b80516135998161355c565b600061485d61369884613652565b905082815283838301111561487157600080fd5b6117748360208301846137aa565b600082601f83011261489057600080fd5b6117748383516020850161484f565b805161359981614332565b6000602082840312156148bc57600080fd5b81516001600160401b03808211156148d357600080fd5b908301906104a082860312156148e857600080fd5b6148f06135b4565b6148f983614835565b815261490760208401614844565b602082015261491860408401614844565b604082015261492960608401614844565b606082015260808301518281111561494057600080fd5b61494c8782860161487f565b60808301525061495e60a0840161489f565b60a082015260c083015160c082015260e083015160e08201526101009150614987828401614844565b9181019190915261012082810151908201526101408083015190820152610160808301519082015261018080830151908201526101a080830151908201526101c080830151908201526101e08083015190820152610200808301519082015261022080830151908201526102408083015190820152610260808301519082015261028080830151908201526102a080830151908201526102c080830151908201526102e08083015190820152610300808301519082015261032080830151908201526103408083015190820152610360808301519082015261038080830151908201526103a080830151908201526103c080830151908201526103e08083015190820152610400808301519082015261042080830151908201526104408083015190820152610460808301519082015261048091820151918101919091529392505050565b6000808335601e19843603018112614ae357600080fd5b83016020810192503590506001600160401b03811115614b0257600080fd5b8060051b3603831315611aa557600080fd5b81835260006001600160fb1b03831115614b2d57600080fd5b8260051b8083602087013760009401602001938452509192915050565b80356001600160401b038116811461359957600080fd5b803560ff8116811461359957600080fd5b60006101c082358452614b886020840184614acc565b826020870152614b9b8387018284614b14565b92505050614bab60408401614b4a565b6001600160401b03166040850152614bc560608401614b4a565b6001600160401b0316606085015260808381013590850152614be960a08401614b61565b60ff1660a0850152614bfd60c08401614b61565b60ff1660c085015260e083810135908501526101008084013590850152610120808401359085015261014080840135908501526101608084013590850152610180614c49818501614340565b1515908501526101a0614c5d848201614b61565b60ff169401939093525090919050565b604081526000614c806040830185614b72565b90506001600160401b03831660208301529392505050565b60a08101614ca587613c20565b9581526001600160a01b039490941660208501526040840192909252606083015260809091015290565b6001600160a01b03841681526001600160401b0383166020820152606060408201819052600090612fdd908301846137d6565b80356001600160801b038116811461359957600080fd5b60408152823560408201526000614d336020850185614acc565b610160806060860152614d4b6101a086018385614b14565b9250614d5960408801614b4a565b6001600160401b03811660808701529150614d7660608801614b4a565b6001600160401b03811660a08701529150608087013560c086015260a087013560e0860152614da760c08801614d02565b9150610100614dc0818701846001600160801b03169052565b614dcc60e08901614b4a565b9250610120614de5818801856001600160401b03169052565b614df0828a01614b4a565b93506101409150614e0b828801856001600160401b03169052565b614e16818a01614b4a565b935050614e2d828701846001600160401b03169052565b614e38818901614b4a565b92505050614e526101808501826001600160401b03169052565b506001600160401b03841660208401529050611774565b600061010082358452614e7f6020840184614acc565b826020870152614e928387018284614b14565b92505050614ea260408401614b4a565b6001600160401b03808216604087015280614ebf60608701614b4a565b16606087015260ff614ed360808701614b61565b16608087015280614ee660a08701614b4a565b1660a08701525050614efa60c08401614b4a565b6001600160401b031660c0850152614f1460e08401614b4a565b6001600160401b03811660e0860152509392505050565b6020815260006117746020830184614e69565b600060208284031215614f5057600080fd5b815161177481614332565b60408101614f6884613c20565b9281526001600160a01b039190911660209091015290565b805161359981613727565b60006101408284031215614f9e57600080fd5b614fa66135dd565b9050614fb182614f80565b8152614fbf60208301614844565b60208201526040820151604082015260608201516060820152614fe46080830161489f565b608082015260a08201516001600160401b038082111561500357600080fd5b61500f8583860161487f565b60a084015260c084015191508082111561502857600080fd5b506150358482850161487f565b60c08301525060e082015160e082015261010080830151818301525061012080830151818301525092915050565b60006020828403121561507557600080fd5b81516001600160401b0381111561508b57600080fd5b61355484828501614f8b565b604081526000614c806040830185614e69565b6000610120823584526150c06020840184614acc565b8260208701526150d38387018284614b14565b925050506001600160401b036150eb60408501614b4a565b1660408501526150fd60608401614b4a565b6001600160401b031660608501526080838101359085015261512160a08401614b61565b60ff1660a085015260c0838101359085015260e080840135908501526101009283013592909301919091525090565b60408152600061516360408301856150aa565b905060018060a01b03831660208301529392505050565b602081526151936020820161518e84613734565b613c30565b60006151a16020840161358e565b6001600160a01b03811660408401525060408301356060830152606083013560808301526151d160808401614340565b80151560a0840152506151e760a0840184614680565b6101408060c08601526151ff610160860183856146c5565b925061520e60c0870187614680565b868503601f190160e088015292506152278484836146c5565b60e0880135610100888101919091528801356101208089019190915290970135919095015250929392505050565b6000806040838503121561526857600080fd5b82516152738161355c565b6020840151909250613c158161355c565b60006001600160401b0382111561529d5761529d61359e565b5060051b60200190565b60008060408084860312156152bb57600080fd5b83516001600160401b038111156152d157600080fd5b8401601f810186136152e257600080fd5b805160206152f261369883615284565b82815260a0928302840182019282820191908a85111561531157600080fd5b948301945b848610156153765780868c03121561532e5760008081fd5b615336613600565b86516153418161355c565b815286850151858201528787015188820152606080880151908201526080808801519082015283529485019491830191615316565b5097909101519698969750505050505050565b6000602080838503121561539c57600080fd5b82516001600160401b03808211156153b357600080fd5b818501915085601f8301126153c757600080fd5b81516153d561369882615284565b81815260059190911b830184019084810190888311156153f457600080fd5b8585015b8381101561542c578051858111156154105760008081fd5b61541e8b89838a0101614f8b565b8452509186019186016153f8565b5098975050505050505050565b6040808252810183905260006060600585901b830181019083018683805b8881101561549f57868503605f190184528235368b900361011e1901811261547d578283fd5b615489868c83016150aa565b9550506020938401939290920191600101615457565b505050506001600160a01b0393909316602092909201919091525092915050565b6020815260006117746020830184614b72565b6020808252601f908201527f5265656e7472616e637947756172643a207265656e7472616e742063616c6c00604082015260600190565b60608152600061551d6060830186614b72565b6001600160a01b03949094166020830152506001600160401b0391909116604090910152919050565b6040815260006151636040830185614b72565b6000806040838503121561556c57600080fd5b82516001600160401b0381111561558257600080fd5b8301601f8101851361559357600080fd5b805160206155a361369883615284565b82815260059290921b830181019181810190888411156155c257600080fd5b938201935b838510156155e95784516155da8161355c565b825293820193908201906155c7565b969091015195979596505050505050565b60008060006060848603121561560f57600080fd5b8351925060208401519150604084015190509250925092565b6001600160a01b0383168152604060208201819052600090613554908301846137d6565b60608152600061565f60608301866150aa565b828103602084015261567181866150aa565b91505060018060a01b0383166040830152949350505050565b60006001600160401b03808316818516818304811182151516156156b0576156b061455b565b02949350505050565b6001600160a01b03858116825284166020820152604081018390526080606082018190526000906156ec908301846137d6565b9695505050505050565b838152604060208201526000612fdd6040830184866146c5565b600082516157228184602087016137aa565b9190910192915050565b634e487b7160e01b600052603260045260246000fd5b60006020828403121561575457600080fd5b81516001600160401b0381111561576a57600080fd5b8201601f8101841361577b57600080fd5b6135548482516020840161484f565b600181811c9082168061579e57607f821691505b60208210811415612eda57634e487b7160e01b600052602260045260246000fd5b6000602082840312156157d157600080fd5b81516117748161355c565b634e487b7160e01b600052600160045260246000fd5b6000828210156158045761580461455b565b500390565b634e487b7160e01b600052601260045260246000fd5b60008261582e5761582e615809565b500490565b60008261584257615842615809565b50069056feec7e8c1c441439dd40959777f4c577ea0cd42fcc1dbe59d2bd0f5d9c55df8db6ec7e8c1c441439dd40959777f4c577ea0cd42fcc1dbe59d2bd0f5d9c55df8ddaa2646970667358221220326fb4be2a1f9e5dac5c8bdf12609bcb3dd02d902f09a058716cb3314a8b80c864736f6c634300080b0033",
  "linkReferences": {
    "contracts/fasset/library/AgentSettingsUpdater.sol": {
      "AgentSettingsUpdater": [
        {
          "length": 20,
          "start": 7783
        },
        {
          "length": 20,
          "start": 13852
        }
      ]
    },
    "contracts/fasset/library/AgentsCreateDestroy.sol": {
      "AgentsCreateDestroy": [
        {
          "length": 20,
          "start": 7279
        },
        {
          "length": 20,
          "start": 9913
        },
        {
          "length": 20,
          "start": 10349
        },
        {
          "length": 20,
          "start": 11855
        },
        {
          "length": 20,
          "start": 12782
        },
        {
          "length": 20,
          "start": 13017
        }
      ]
    },
    "contracts/fasset/library/AgentsExternal.sol": {
      "AgentsExternal": [
        {
          "length": 20,
          "start": 7472
        },
        {
          "length": 20,
          "start": 8919
        },
        {
          "length": 20,
          "start": 9007
        },
        {
          "length": 20,
          "start": 10041
        },
        {
          "length": 20,
          "start": 10173
        },
        {
          "length": 20,
          "start": 12108
        },
        {
          "length": 20,
          "start": 12429
        },
        {
          "length": 20,
          "start": 14152
        },
        {
          "length": 20,
          "start": 14543
        },
        {
          "length": 20,
          "start": 14592
        }
      ]
    },
    "contracts/fasset/library/AvailableAgents.sol": {
      "AvailableAgents": [
        {
          "length": 20,
          "start": 7402
        },
        {
          "length": 20,
          "start": 9213
        },
        {
          "length": 20,
          "start": 9977
        },
        {
          "length": 20,
          "start": 10433
        },
        {
          "length": 20,
          "start": 13803
        }
      ]
    },
    "contracts/fasset/library/Challenges.sol": {
      "Challenges": [
        {
          "length": 20,
          "start": 9841
        },
        {
          "length": 20,
          "start": 10681
        },
        {
          "length": 20,
          "start": 13917
        }
      ]
    },
    "contracts/fasset/library/CollateralReservations.sol": {
      "CollateralReservations": [
        {
          "length": 20,
          "start": 9045
        },
        {
          "length": 20,
          "start": 10277
        },
        {
          "length": 20,
          "start": 13227
        },
        {
          "length": 20,
          "start": 13634
        }
      ]
    },
    "contracts/fasset/library/CollateralTypes.sol": {
      "CollateralTypes": [
        {
          "length": 20,
          "start": 177
        },
        {
          "length": 20,
          "start": 7921
        },
        {
          "length": 20,
          "start": 8606
        },
        {
          "length": 20,
          "start": 9608
        },
        {
          "length": 20,
          "start": 10098
        },
        {
          "length": 20,
          "start": 10547
        },
        {
          "length": 20,
          "start": 14266
        }
      ]
    },
    "contracts/fasset/library/FullAgentInfo.sol": {
      "FullAgentInfo": [
        {
          "length": 20,
          "start": 8362
        }
      ]
    },
    "contracts/fasset/library/Liquidation.sol": {
      "Liquidation": [
        {
          "length": 20,
          "start": 12897
        },
        {
          "length": 20,
          "start": 13101
        },
        {
          "length": 20,
          "start": 13734
        }
      ]
    },
    "contracts/fasset/library/Minting.sol": {
      "Minting": [
        {
          "length": 20,
          "start": 11945
        },
        {
          "length": 20,
          "start": 13388
        }
      ]
    },
    "contracts/fasset/library/RedemptionConfirmations.sol": {
      "RedemptionConfirmations": [
        {
          "length": 20,
          "start": 8468
        }
      ]
    },
    "contracts/fasset/library/RedemptionFailures.sol": {
      "RedemptionFailures": [
        {
          "length": 20,
          "start": 8786
        },
        {
          "length": 20,
          "start": 9755
        }
      ]
    },
    "contracts/fasset/library/RedemptionRequests.sol": {
      "RedemptionRequests": [
        {
          "length": 20,
          "start": 8719
        },
        {
          "length": 20,
          "start": 12239
        },
        {
          "length": 20,
          "start": 14085
        },
        {
          "length": 20,
          "start": 14321
        }
      ]
    },
    "contracts/fasset/library/SettingsUpdater.sol": {
      "SettingsUpdater": [
        {
          "length": 20,
          "start": 72
        },
        {
          "length": 20,
          "start": 14469
        }
      ]
    },
    "contracts/fasset/library/StateUpdater.sol": {
      "StateUpdater": [
        {
          "length": 20,
          "start": 8864
        }
      ]
    },
    "contracts/fasset/library/UnderlyingBalance.sol": {
      "UnderlyingBalance": [
        {
          "length": 20,
          "start": 14201
        }
      ]
    },
    "contracts/fasset/library/UnderlyingWithdrawalAnnouncements.sol": {
      "UnderlyingWithdrawalAnnouncements": [
        {
          "length": 20,
          "start": 12303
        },
        {
          "length": 20,
          "start": 12352
        },
        {
          "length": 20,
          "start": 13538
        }
      ]
    }
  },
  "deployedLinkReferences": {
    "contracts/fasset/library/AgentSettingsUpdater.sol": {
      "AgentSettingsUpdater": [
        {
          "length": 20,
          "start": 4068
        },
        {
          "length": 20,
          "start": 10137
        }
      ]
    },
    "contracts/fasset/library/AgentsCreateDestroy.sol": {
      "AgentsCreateDestroy": [
        {
          "length": 20,
          "start": 3564
        },
        {
          "length": 20,
          "start": 6198
        },
        {
          "length": 20,
          "start": 6634
        },
        {
          "length": 20,
          "start": 8140
        },
        {
          "length": 20,
          "start": 9067
        },
        {
          "length": 20,
          "start": 9302
        }
      ]
    },
    "contracts/fasset/library/AgentsExternal.sol": {
      "AgentsExternal": [
        {
          "length": 20,
          "start": 3757
        },
        {
          "length": 20,
          "start": 5204
        },
        {
          "length": 20,
          "start": 5292
        },
        {
          "length": 20,
          "start": 6326
        },
        {
          "length": 20,
          "start": 6458
        },
        {
          "length": 20,
          "start": 8393
        },
        {
          "length": 20,
          "start": 8714
        },
        {
          "length": 20,
          "start": 10437
        },
        {
          "length": 20,
          "start": 10828
        },
        {
          "length": 20,
          "start": 10877
        }
      ]
    },
    "contracts/fasset/library/AvailableAgents.sol": {
      "AvailableAgents": [
        {
          "length": 20,
          "start": 3687
        },
        {
          "length": 20,
          "start": 5498
        },
        {
          "length": 20,
          "start": 6262
        },
        {
          "length": 20,
          "start": 6718
        },
        {
          "length": 20,
          "start": 10088
        }
      ]
    },
    "contracts/fasset/library/Challenges.sol": {
      "Challenges": [
        {
          "length": 20,
          "start": 6126
        },
        {
          "length": 20,
          "start": 6966
        },
        {
          "length": 20,
          "start": 10202
        }
      ]
    },
    "contracts/fasset/library/CollateralReservations.sol": {
      "CollateralReservations": [
        {
          "length": 20,
          "start": 5330
        },
        {
          "length": 20,
          "start": 6562
        },
        {
          "length": 20,
          "start": 9512
        },
        {
          "length": 20,
          "start": 9919
        }
      ]
    },
    "contracts/fasset/library/CollateralTypes.sol": {
      "CollateralTypes": [
        {
          "length": 20,
          "start": 4206
        },
        {
          "length": 20,
          "start": 4891
        },
        {
          "length": 20,
          "start": 5893
        },
        {
          "length": 20,
          "start": 6383
        },
        {
          "length": 20,
          "start": 6832
        },
        {
          "length": 20,
          "start": 10551
        }
      ]
    },
    "contracts/fasset/library/FullAgentInfo.sol": {
      "FullAgentInfo": [
        {
          "length": 20,
          "start": 4647
        }
      ]
    },
    "contracts/fasset/library/Liquidation.sol": {
      "Liquidation": [
        {
          "length": 20,
          "start": 9182
        },
        {
          "length": 20,
          "start": 9386
        },
        {
          "length": 20,
          "start": 10019
        }
      ]
    },
    "contracts/fasset/library/Minting.sol": {
      "Minting": [
        {
          "length": 20,
          "start": 8230
        },
        {
          "length": 20,
          "start": 9673
        }
      ]
    },
    "contracts/fasset/library/RedemptionConfirmations.sol": {
      "RedemptionConfirmations": [
        {
          "length": 20,
          "start": 4753
        }
      ]
    },
    "contracts/fasset/library/RedemptionFailures.sol": {
      "RedemptionFailures": [
        {
          "length": 20,
          "start": 5071
        },
        {
          "length": 20,
          "start": 6040
        }
      ]
    },
    "contracts/fasset/library/RedemptionRequests.sol": {
      "RedemptionRequests": [
        {
          "length": 20,
          "start": 5004
        },
        {
          "length": 20,
          "start": 8524
        },
        {
          "length": 20,
          "start": 10370
        },
        {
          "length": 20,
          "start": 10606
        }
      ]
    },
    "contracts/fasset/library/SettingsUpdater.sol": {
      "SettingsUpdater": [
        {
          "length": 20,
          "start": 10754
        }
      ]
    },
    "contracts/fasset/library/StateUpdater.sol": {
      "StateUpdater": [
        {
          "length": 20,
          "start": 5149
        }
      ]
    },
    "contracts/fasset/library/UnderlyingBalance.sol": {
      "UnderlyingBalance": [
        {
          "length": 20,
          "start": 10486
        }
      ]
    },
    "contracts/fasset/library/UnderlyingWithdrawalAnnouncements.sol": {
      "UnderlyingWithdrawalAnnouncements": [
        {
          "length": 20,
          "start": 8588
        },
        {
          "length": 20,
          "start": 8637
        },
        {
          "length": 20,
          "start": 9823
        }
      ]
    }
  }
}