{
  "_format": "hh-sol-artifact-1",
  "contractName": "AssetManager",
  "sourceName": "contracts/fasset/implementation/AssetManager.sol",
  "abi": [
    {
      "inputs": [
        {
          "components": [
            {
              "internalType": "address",
              "name": "assetManagerController",
              "type": "address"
            },
            {
              "internalType": "address",
              "name": "fAsset",
              "type": "address"
            },
            {
              "internalType": "address",
              "name": "agentVaultFactory",
              "type": "address"
            },
            {
              "internalType": "address",
              "name": "collateralPoolFactory",
              "type": "address"
            },
            {
              "internalType": "address",
              "name": "whitelist",
              "type": "address"
            },
            {
              "internalType": "address",
              "name": "agentWhitelist",
              "type": "address"
            },
            {
              "internalType": "address",
              "name": "attestationClient",
              "type": "address"
            },
            {
              "internalType": "address",
              "name": "underlyingAddressValidator",
              "type": "address"
            },
            {
              "internalType": "address",
              "name": "liquidationStrategy",
              "type": "address"
            },
            {
              "internalType": "address",
              "name": "ftsoRegistry",
              "type": "address"
            },
            {
              "internalType": "uint8",
              "name": "assetDecimals",
              "type": "uint8"
            },
            {
              "internalType": "uint8",
              "name": "assetMintingDecimals",
              "type": "uint8"
            },
            {
              "internalType": "uint32",
              "name": "mintingPoolHoldingsRequiredBIPS",
              "type": "uint32"
            },
            {
              "internalType": "address payable",
              "name": "burnAddress",
              "type": "address"
            },
            {
              "internalType": "uint32",
              "name": "chainId",
              "type": "uint32"
            },
            {
              "internalType": "uint16",
              "name": "collateralReservationFeeBIPS",
              "type": "uint16"
            },
            {
              "internalType": "uint64",
              "name": "assetUnitUBA",
              "type": "uint64"
            },
            {
              "internalType": "uint64",
              "name": "assetMintingGranularityUBA",
              "type": "uint64"
            },
            {
              "internalType": "uint64",
              "name": "lotSizeAMG",
              "type": "uint64"
            },
            {
              "internalType": "uint16",
              "name": "minUnderlyingBackingBIPS",
              "type": "uint16"
            },
            {
              "internalType": "uint64",
              "name": "mintingCapAMG",
              "type": "uint64"
            },
            {
              "internalType": "uint64",
              "name": "maxTrustedPriceAgeSeconds",
              "type": "uint64"
            },
            {
              "internalType": "bool",
              "name": "requireEOAAddressProof",
              "type": "bool"
            },
            {
              "internalType": "uint64",
              "name": "underlyingBlocksForPayment",
              "type": "uint64"
            },
            {
              "internalType": "uint64",
              "name": "underlyingSecondsForPayment",
              "type": "uint64"
            },
            {
              "internalType": "uint16",
              "name": "redemptionFeeBIPS",
              "type": "uint16"
            },
            {
              "internalType": "uint32",
              "name": "redemptionDefaultFactorAgentC1BIPS",
              "type": "uint32"
            },
            {
              "internalType": "uint32",
              "name": "redemptionDefaultFactorPoolBIPS",
              "type": "uint32"
            },
            {
              "internalType": "uint64",
              "name": "confirmationByOthersAfterSeconds",
              "type": "uint64"
            },
            {
              "internalType": "uint128",
              "name": "confirmationByOthersRewardUSD5",
              "type": "uint128"
            },
            {
              "internalType": "uint16",
              "name": "maxRedeemedTickets",
              "type": "uint16"
            },
            {
              "internalType": "uint16",
              "name": "paymentChallengeRewardBIPS",
              "type": "uint16"
            },
            {
              "internalType": "uint128",
              "name": "paymentChallengeRewardUSD5",
              "type": "uint128"
            },
            {
              "internalType": "uint64",
              "name": "withdrawalWaitMinSeconds",
              "type": "uint64"
            },
            {
              "internalType": "uint64",
              "name": "ccbTimeSeconds",
              "type": "uint64"
            },
            {
              "internalType": "uint64",
              "name": "attestationWindowSeconds",
              "type": "uint64"
            },
            {
              "internalType": "uint64",
              "name": "minUpdateRepeatTimeSeconds",
              "type": "uint64"
            },
            {
              "internalType": "uint64",
              "name": "buybackCollateralFactorBIPS",
              "type": "uint64"
            },
            {
              "internalType": "uint64",
              "name": "announcedUnderlyingConfirmationMinSeconds",
              "type": "uint64"
            },
            {
              "internalType": "uint64",
              "name": "tokenInvalidationTimeMinSeconds",
              "type": "uint64"
            },
            {
              "internalType": "uint32",
              "name": "class1BuyForFlareFactorBIPS",
              "type": "uint32"
            },
            {
              "internalType": "uint64",
              "name": "agentExitAvailableTimelockSeconds",
              "type": "uint64"
            },
            {
              "internalType": "uint64",
              "name": "agentFeeChangeTimelockSeconds",
              "type": "uint64"
            },
            {
              "internalType": "uint64",
              "name": "agentCollateralRatioChangeTimelockSeconds",
              "type": "uint64"
            }
          ],
          "internalType": "struct AssetManagerSettings.Data",
          "name": "_settings",
          "type": "tuple"
        },
        {
          "components": [
            {
              "internalType": "enum CollateralType.Class",
              "name": "collateralClass",
              "type": "uint8"
            },
            {
              "internalType": "contract IERC20",
              "name": "token",
              "type": "address"
            },
            {
              "internalType": "uint256",
              "name": "decimals",
              "type": "uint256"
            },
            {
              "internalType": "uint256",
              "name": "validUntil",
              "type": "uint256"
            },
            {
              "internalType": "bool",
              "name": "directPricePair",
              "type": "bool"
            },
            {
              "internalType": "string",
              "name": "assetFtsoSymbol",
              "type": "string"
            },
            {
              "internalType": "string",
              "name": "tokenFtsoSymbol",
              "type": "string"
            },
            {
              "internalType": "uint256",
              "name": "minCollateralRatioBIPS",
              "type": "uint256"
            },
            {
              "internalType": "uint256",
              "name": "ccbMinCollateralRatioBIPS",
              "type": "uint256"
            },
            {
              "internalType": "uint256",
              "name": "safetyMinCollateralRatioBIPS",
              "type": "uint256"
            }
          ],
          "internalType": "struct CollateralType.Data[]",
          "name": "_initialCollateralTypes",
          "type": "tuple[]"
        },
        {
          "internalType": "bytes",
          "name": "_initialLiquidationSettings",
          "type": "bytes"
        }
      ],
      "stateMutability": "nonpayable",
      "type": "constructor"
    },
    {
      "anonymous": false,
      "inputs": [
        {
          "indexed": true,
          "internalType": "address",
          "name": "agentVault",
          "type": "address"
        },
        {
          "indexed": false,
          "internalType": "uint256",
          "name": "feeBIPS",
          "type": "uint256"
        },
        {
          "indexed": false,
          "internalType": "uint256",
          "name": "mintingClass1CollateralRatioBIPS",
          "type": "uint256"
        },
        {
          "indexed": false,
          "internalType": "uint256",
          "name": "mintingPoolCollateralRatioBIPS",
          "type": "uint256"
        },
        {
          "indexed": false,
          "internalType": "uint256",
          "name": "freeCollateralLots",
          "type": "uint256"
        }
      ],
      "name": "AgentAvailable",
      "type": "event"
    },
    {
      "anonymous": false,
      "inputs": [
        {
          "indexed": true,
          "internalType": "address",
          "name": "agentVault",
          "type": "address"
        },
        {
          "indexed": false,
          "internalType": "uint8",
          "name": "collateralClass",
          "type": "uint8"
        },
        {
          "indexed": false,
          "internalType": "address",
          "name": "token",
          "type": "address"
        }
      ],
      "name": "AgentCollateralTypeChanged",
      "type": "event"
    },
    {
      "anonymous": false,
      "inputs": [
        {
          "indexed": true,
          "internalType": "address",
          "name": "owner",
          "type": "address"
        },
        {
          "indexed": false,
          "internalType": "address",
          "name": "agentVault",
          "type": "address"
        },
        {
          "indexed": false,
          "internalType": "address",
          "name": "collateralPool",
          "type": "address"
        },
        {
          "indexed": false,
          "internalType": "string",
          "name": "underlyingAddress",
          "type": "string"
        },
        {
          "indexed": false,
          "internalType": "address",
          "name": "class1CollateralToken",
          "type": "address"
        },
        {
          "indexed": false,
          "internalType": "uint256",
          "name": "feeBIPS",
          "type": "uint256"
        },
        {
          "indexed": false,
          "internalType": "uint256",
          "name": "poolFeeShareBIPS",
          "type": "uint256"
        },
        {
          "indexed": false,
          "internalType": "uint256",
          "name": "mintingClass1CollateralRatioBIPS",
          "type": "uint256"
        },
        {
          "indexed": false,
          "internalType": "uint256",
          "name": "mintingPoolCollateralRatioBIPS",
          "type": "uint256"
        },
        {
          "indexed": false,
          "internalType": "uint256",
          "name": "buyFAssetByAgentFactorBIPS",
          "type": "uint256"
        },
        {
          "indexed": false,
          "internalType": "uint256",
          "name": "poolExitCollateralRatioBIPS",
          "type": "uint256"
        },
        {
          "indexed": false,
          "internalType": "uint256",
          "name": "poolTopupCollateralRatioBIPS",
          "type": "uint256"
        },
        {
          "indexed": false,
          "internalType": "uint256",
          "name": "poolTopupTokenPriceFactorBIPS",
          "type": "uint256"
        }
      ],
      "name": "AgentCreated",
      "type": "event"
    },
    {
      "anonymous": false,
      "inputs": [
        {
          "indexed": true,
          "internalType": "address",
          "name": "agentVault",
          "type": "address"
        },
        {
          "indexed": false,
          "internalType": "uint256",
          "name": "destroyAllowedAt",
          "type": "uint256"
        }
      ],
      "name": "AgentDestroyAnnounced",
      "type": "event"
    },
    {
      "anonymous": false,
      "inputs": [
        {
          "indexed": true,
          "internalType": "address",
          "name": "agentVault",
          "type": "address"
        }
      ],
      "name": "AgentDestroyed",
      "type": "event"
    },
    {
      "anonymous": false,
      "inputs": [
        {
          "indexed": true,
          "internalType": "address",
          "name": "agentVault",
          "type": "address"
        },
        {
          "indexed": false,
          "internalType": "uint256",
          "name": "timestamp",
          "type": "uint256"
        }
      ],
      "name": "AgentInCCB",
      "type": "event"
    },
    {
      "anonymous": false,
      "inputs": [
        {
          "indexed": true,
          "internalType": "address",
          "name": "agentVault",
          "type": "address"
        },
        {
          "indexed": false,
          "internalType": "string",
          "name": "name",
          "type": "string"
        },
        {
          "indexed": false,
          "internalType": "uint256",
          "name": "value",
          "type": "uint256"
        },
        {
          "indexed": false,
          "internalType": "uint256",
          "name": "validAt",
          "type": "uint256"
        }
      ],
      "name": "AgentSettingChangeAnnounced",
      "type": "event"
    },
    {
      "anonymous": false,
      "inputs": [
        {
          "indexed": true,
          "internalType": "address",
          "name": "agentVault",
          "type": "address"
        },
        {
          "indexed": false,
          "internalType": "string",
          "name": "name",
          "type": "string"
        },
        {
          "indexed": false,
          "internalType": "uint256",
          "name": "value",
          "type": "uint256"
        }
      ],
      "name": "AgentSettingChanged",
      "type": "event"
    },
    {
      "anonymous": false,
      "inputs": [
        {
          "indexed": true,
          "internalType": "address",
          "name": "agentVault",
          "type": "address"
        },
        {
          "indexed": false,
          "internalType": "uint256",
          "name": "exitAllowedAt",
          "type": "uint256"
        }
      ],
      "name": "AvailableAgentExitAnnounced",
      "type": "event"
    },
    {
      "anonymous": false,
      "inputs": [
        {
          "indexed": true,
          "internalType": "address",
          "name": "agentVault",
          "type": "address"
        }
      ],
      "name": "AvailableAgentExited",
      "type": "event"
    },
    {
      "anonymous": false,
      "inputs": [
        {
          "indexed": true,
          "internalType": "address",
          "name": "agentVault",
          "type": "address"
        },
        {
          "indexed": false,
          "internalType": "uint256",
          "name": "amountWei",
          "type": "uint256"
        },
        {
          "indexed": false,
          "internalType": "uint256",
          "name": "withdrawalAllowedAt",
          "type": "uint256"
        }
      ],
      "name": "Class1WithdrawalAnnounced",
      "type": "event"
    },
    {
      "anonymous": false,
      "inputs": [
        {
          "indexed": false,
          "internalType": "uint8",
          "name": "collateralClass",
          "type": "uint8"
        },
        {
          "indexed": false,
          "internalType": "address",
          "name": "collateralToken",
          "type": "address"
        },
        {
          "indexed": false,
          "internalType": "uint256",
          "name": "minCollateralRatioBIPS",
          "type": "uint256"
        },
        {
          "indexed": false,
          "internalType": "uint256",
          "name": "ccbMinCollateralRatioBIPS",
          "type": "uint256"
        },
        {
          "indexed": false,
          "internalType": "uint256",
          "name": "safetyMinCollateralRatioBIPS",
          "type": "uint256"
        }
      ],
      "name": "CollateralRatiosChanged",
      "type": "event"
    },
    {
      "anonymous": false,
      "inputs": [
        {
          "indexed": true,
          "internalType": "address",
          "name": "agentVault",
          "type": "address"
        },
        {
          "indexed": true,
          "internalType": "address",
          "name": "minter",
          "type": "address"
        },
        {
          "indexed": false,
          "internalType": "uint256",
          "name": "collateralReservationId",
          "type": "uint256"
        },
        {
          "indexed": false,
          "internalType": "uint256",
          "name": "reservedAmountUBA",
          "type": "uint256"
        }
      ],
      "name": "CollateralReservationDeleted",
      "type": "event"
    },
    {
      "anonymous": false,
      "inputs": [
        {
          "indexed": true,
          "internalType": "address",
          "name": "agentVault",
          "type": "address"
        },
        {
          "indexed": true,
          "internalType": "address",
          "name": "minter",
          "type": "address"
        },
        {
          "indexed": false,
          "internalType": "uint256",
          "name": "collateralReservationId",
          "type": "uint256"
        },
        {
          "indexed": false,
          "internalType": "uint256",
          "name": "valueUBA",
          "type": "uint256"
        },
        {
          "indexed": false,
          "internalType": "uint256",
          "name": "feeUBA",
          "type": "uint256"
        },
        {
          "indexed": false,
          "internalType": "uint256",
          "name": "lastUnderlyingBlock",
          "type": "uint256"
        },
        {
          "indexed": false,
          "internalType": "uint256",
          "name": "lastUnderlyingTimestamp",
          "type": "uint256"
        },
        {
          "indexed": false,
          "internalType": "string",
          "name": "paymentAddress",
          "type": "string"
        },
        {
          "indexed": false,
          "internalType": "bytes32",
          "name": "paymentReference",
          "type": "bytes32"
        }
      ],
      "name": "CollateralReserved",
      "type": "event"
    },
    {
      "anonymous": false,
      "inputs": [
        {
          "indexed": false,
          "internalType": "uint8",
          "name": "collateralClass",
          "type": "uint8"
        },
        {
          "indexed": false,
          "internalType": "address",
          "name": "token",
          "type": "address"
        },
        {
          "indexed": false,
          "internalType": "uint256",
          "name": "decimals",
          "type": "uint256"
        },
        {
          "indexed": false,
          "internalType": "bool",
          "name": "directPricePair",
          "type": "bool"
        },
        {
          "indexed": false,
          "internalType": "string",
          "name": "assetFtsoSymbol",
          "type": "string"
        },
        {
          "indexed": false,
          "internalType": "string",
          "name": "tokenFtsoSymbol",
          "type": "string"
        },
        {
          "indexed": false,
          "internalType": "uint256",
          "name": "minCollateralRatioBIPS",
          "type": "uint256"
        },
        {
          "indexed": false,
          "internalType": "uint256",
          "name": "ccbMinCollateralRatioBIPS",
          "type": "uint256"
        },
        {
          "indexed": false,
          "internalType": "uint256",
          "name": "safetyMinCollateralRatioBIPS",
          "type": "uint256"
        }
      ],
      "name": "CollateralTypeAdded",
      "type": "event"
    },
    {
      "anonymous": false,
      "inputs": [
        {
          "indexed": false,
          "internalType": "uint8",
          "name": "collateralClass",
          "type": "uint8"
        },
        {
          "indexed": false,
          "internalType": "address",
          "name": "collateralToken",
          "type": "address"
        },
        {
          "indexed": false,
          "internalType": "uint256",
          "name": "validUntil",
          "type": "uint256"
        }
      ],
      "name": "CollateralTypeDeprecated",
      "type": "event"
    },
    {
      "anonymous": false,
      "inputs": [
        {
          "indexed": false,
          "internalType": "string",
          "name": "name",
          "type": "string"
        },
        {
          "indexed": false,
          "internalType": "address",
          "name": "value",
          "type": "address"
        }
      ],
      "name": "ContractChanged",
      "type": "event"
    },
    {
      "anonymous": false,
      "inputs": [
        {
          "indexed": true,
          "internalType": "address",
          "name": "agentVault",
          "type": "address"
        },
        {
          "indexed": false,
          "internalType": "bytes32",
          "name": "transactionHash1",
          "type": "bytes32"
        },
        {
          "indexed": false,
          "internalType": "bytes32",
          "name": "transactionHash2",
          "type": "bytes32"
        }
      ],
      "name": "DuplicatePaymentConfirmed",
      "type": "event"
    },
    {
      "anonymous": false,
      "inputs": [
        {
          "indexed": true,
          "internalType": "address",
          "name": "agentVault",
          "type": "address"
        },
        {
          "indexed": false,
          "internalType": "uint256",
          "name": "dustUBA",
          "type": "uint256"
        }
      ],
      "name": "DustChanged",
      "type": "event"
    },
    {
      "anonymous": false,
      "inputs": [
        {
          "indexed": true,
          "internalType": "address",
          "name": "agentVault",
          "type": "address"
        },
        {
          "indexed": false,
          "internalType": "uint256",
          "name": "redemptionTicketId",
          "type": "uint256"
        },
        {
          "indexed": false,
          "internalType": "uint256",
          "name": "valueUBA",
          "type": "uint256"
        }
      ],
      "name": "DustConvertedToTicket",
      "type": "event"
    },
    {
      "anonymous": false,
      "inputs": [
        {
          "indexed": true,
          "internalType": "address",
          "name": "agentVault",
          "type": "address"
        },
        {
          "indexed": false,
          "internalType": "uint256",
          "name": "timestamp",
          "type": "uint256"
        }
      ],
      "name": "FullLiquidationStarted",
      "type": "event"
    },
    {
      "anonymous": false,
      "inputs": [
        {
          "indexed": true,
          "internalType": "address",
          "name": "agentVault",
          "type": "address"
        },
        {
          "indexed": false,
          "internalType": "bytes32",
          "name": "transactionHash",
          "type": "bytes32"
        }
      ],
      "name": "IllegalPaymentConfirmed",
      "type": "event"
    },
    {
      "anonymous": false,
      "inputs": [
        {
          "indexed": true,
          "internalType": "address",
          "name": "agentVault",
          "type": "address"
        }
      ],
      "name": "LiquidationEnded",
      "type": "event"
    },
    {
      "anonymous": false,
      "inputs": [
        {
          "indexed": true,
          "internalType": "address",
          "name": "agentVault",
          "type": "address"
        },
        {
          "indexed": true,
          "internalType": "address",
          "name": "liquidator",
          "type": "address"
        },
        {
          "indexed": false,
          "internalType": "uint256",
          "name": "valueUBA",
          "type": "uint256"
        }
      ],
      "name": "LiquidationPerformed",
      "type": "event"
    },
    {
      "anonymous": false,
      "inputs": [
        {
          "indexed": true,
          "internalType": "address",
          "name": "agentVault",
          "type": "address"
        },
        {
          "indexed": false,
          "internalType": "uint256",
          "name": "timestamp",
          "type": "uint256"
        }
      ],
      "name": "LiquidationStarted",
      "type": "event"
    },
    {
      "anonymous": false,
      "inputs": [
        {
          "indexed": true,
          "internalType": "address",
          "name": "agentVault",
          "type": "address"
        },
        {
          "indexed": false,
          "internalType": "uint256",
          "name": "collateralReservationId",
          "type": "uint256"
        },
        {
          "indexed": false,
          "internalType": "uint256",
          "name": "redemptionTicketId",
          "type": "uint256"
        },
        {
          "indexed": false,
          "internalType": "uint256",
          "name": "mintedAmountUBA",
          "type": "uint256"
        },
        {
          "indexed": false,
          "internalType": "uint256",
          "name": "agentFeeUBA",
          "type": "uint256"
        },
        {
          "indexed": false,
          "internalType": "uint256",
          "name": "poolFeeUBA",
          "type": "uint256"
        }
      ],
      "name": "MintingExecuted",
      "type": "event"
    },
    {
      "anonymous": false,
      "inputs": [
        {
          "indexed": true,
          "internalType": "address",
          "name": "agentVault",
          "type": "address"
        },
        {
          "indexed": true,
          "internalType": "address",
          "name": "minter",
          "type": "address"
        },
        {
          "indexed": false,
          "internalType": "uint256",
          "name": "collateralReservationId",
          "type": "uint256"
        },
        {
          "indexed": false,
          "internalType": "uint256",
          "name": "reservedAmountUBA",
          "type": "uint256"
        }
      ],
      "name": "MintingPaymentDefault",
      "type": "event"
    },
    {
      "anonymous": false,
      "inputs": [
        {
          "indexed": true,
          "internalType": "address",
          "name": "agentVault",
          "type": "address"
        },
        {
          "indexed": false,
          "internalType": "uint256",
          "name": "amountWei",
          "type": "uint256"
        },
        {
          "indexed": false,
          "internalType": "uint256",
          "name": "withdrawalAllowedAt",
          "type": "uint256"
        }
      ],
      "name": "PoolTokenRedemptionAnnounced",
      "type": "event"
    },
    {
      "anonymous": false,
      "inputs": [
        {
          "indexed": true,
          "internalType": "address",
          "name": "agentVault",
          "type": "address"
        },
        {
          "indexed": true,
          "internalType": "address",
          "name": "redeemer",
          "type": "address"
        },
        {
          "indexed": false,
          "internalType": "uint256",
          "name": "redemptionAmountUBA",
          "type": "uint256"
        },
        {
          "indexed": false,
          "internalType": "uint256",
          "name": "redeemedClass1CollateralWei",
          "type": "uint256"
        },
        {
          "indexed": false,
          "internalType": "uint256",
          "name": "redeemedPoolCollateralWei",
          "type": "uint256"
        },
        {
          "indexed": false,
          "internalType": "uint64",
          "name": "requestId",
          "type": "uint64"
        }
      ],
      "name": "RedemptionDefault",
      "type": "event"
    },
    {
      "anonymous": false,
      "inputs": [
        {
          "indexed": true,
          "internalType": "address",
          "name": "agentVault",
          "type": "address"
        },
        {
          "indexed": true,
          "internalType": "address",
          "name": "redeemer",
          "type": "address"
        },
        {
          "indexed": false,
          "internalType": "bytes32",
          "name": "transactionHash",
          "type": "bytes32"
        },
        {
          "indexed": false,
          "internalType": "uint256",
          "name": "redemptionAmountUBA",
          "type": "uint256"
        },
        {
          "indexed": false,
          "internalType": "int256",
          "name": "spentUnderlyingUBA",
          "type": "int256"
        },
        {
          "indexed": false,
          "internalType": "uint64",
          "name": "requestId",
          "type": "uint64"
        }
      ],
      "name": "RedemptionPaymentBlocked",
      "type": "event"
    },
    {
      "anonymous": false,
      "inputs": [
        {
          "indexed": true,
          "internalType": "address",
          "name": "agentVault",
          "type": "address"
        },
        {
          "indexed": true,
          "internalType": "address",
          "name": "redeemer",
          "type": "address"
        },
        {
          "indexed": false,
          "internalType": "bytes32",
          "name": "transactionHash",
          "type": "bytes32"
        },
        {
          "indexed": false,
          "internalType": "int256",
          "name": "spentUnderlyingUBA",
          "type": "int256"
        },
        {
          "indexed": false,
          "internalType": "uint64",
          "name": "requestId",
          "type": "uint64"
        },
        {
          "indexed": false,
          "internalType": "string",
          "name": "failureReason",
          "type": "string"
        }
      ],
      "name": "RedemptionPaymentFailed",
      "type": "event"
    },
    {
      "anonymous": false,
      "inputs": [
        {
          "indexed": true,
          "internalType": "address",
          "name": "agentVault",
          "type": "address"
        },
        {
          "indexed": true,
          "internalType": "address",
          "name": "redeemer",
          "type": "address"
        },
        {
          "indexed": false,
          "internalType": "bytes32",
          "name": "transactionHash",
          "type": "bytes32"
        },
        {
          "indexed": false,
          "internalType": "uint256",
          "name": "redemptionAmountUBA",
          "type": "uint256"
        },
        {
          "indexed": false,
          "internalType": "int256",
          "name": "spentUnderlyingUBA",
          "type": "int256"
        },
        {
          "indexed": false,
          "internalType": "uint64",
          "name": "requestId",
          "type": "uint64"
        }
      ],
      "name": "RedemptionPerformed",
      "type": "event"
    },
    {
      "anonymous": false,
      "inputs": [
        {
          "indexed": true,
          "internalType": "address",
          "name": "redeemer",
          "type": "address"
        },
        {
          "indexed": false,
          "internalType": "uint256",
          "name": "remainingLots",
          "type": "uint256"
        }
      ],
      "name": "RedemptionRequestIncomplete",
      "type": "event"
    },
    {
      "anonymous": false,
      "inputs": [
        {
          "indexed": true,
          "internalType": "address",
          "name": "agentVault",
          "type": "address"
        },
        {
          "indexed": false,
          "internalType": "uint256",
          "name": "requestId",
          "type": "uint256"
        },
        {
          "indexed": false,
          "internalType": "string",
          "name": "paymentAddress",
          "type": "string"
        },
        {
          "indexed": false,
          "internalType": "uint256",
          "name": "valueUBA",
          "type": "uint256"
        },
        {
          "indexed": false,
          "internalType": "uint256",
          "name": "feeUBA",
          "type": "uint256"
        },
        {
          "indexed": false,
          "internalType": "uint256",
          "name": "lastUnderlyingBlock",
          "type": "uint256"
        },
        {
          "indexed": false,
          "internalType": "uint256",
          "name": "lastUnderlyingTimestamp",
          "type": "uint256"
        },
        {
          "indexed": false,
          "internalType": "bytes32",
          "name": "paymentReference",
          "type": "bytes32"
        }
      ],
      "name": "RedemptionRequested",
      "type": "event"
    },
    {
      "anonymous": false,
      "inputs": [
        {
          "indexed": true,
          "internalType": "address",
          "name": "agentVault",
          "type": "address"
        },
        {
          "indexed": false,
          "internalType": "uint256",
          "name": "valueUBA",
          "type": "uint256"
        }
      ],
      "name": "SelfClose",
      "type": "event"
    },
    {
      "anonymous": false,
      "inputs": [
        {
          "indexed": false,
          "internalType": "string",
          "name": "name",
          "type": "string"
        },
        {
          "indexed": false,
          "internalType": "uint256[]",
          "name": "value",
          "type": "uint256[]"
        }
      ],
      "name": "SettingArrayChanged",
      "type": "event"
    },
    {
      "anonymous": false,
      "inputs": [
        {
          "indexed": false,
          "internalType": "string",
          "name": "name",
          "type": "string"
        },
        {
          "indexed": false,
          "internalType": "uint256",
          "name": "value",
          "type": "uint256"
        }
      ],
      "name": "SettingChanged",
      "type": "event"
    },
    {
      "anonymous": false,
      "inputs": [
        {
          "indexed": true,
          "internalType": "address",
          "name": "agentVault",
          "type": "address"
        },
        {
          "indexed": false,
          "internalType": "int256",
          "name": "underlyingBalanceUBA",
          "type": "int256"
        }
      ],
      "name": "UnderlyingBalanceChanged",
      "type": "event"
    },
    {
      "anonymous": false,
      "inputs": [
        {
          "indexed": true,
          "internalType": "address",
          "name": "agentVault",
          "type": "address"
        },
        {
          "indexed": false,
          "internalType": "int256",
          "name": "balance",
          "type": "int256"
        },
        {
          "indexed": false,
          "internalType": "uint256",
          "name": "requiredBalance",
          "type": "uint256"
        }
      ],
      "name": "UnderlyingBalanceTooLow",
      "type": "event"
    },
    {
      "anonymous": false,
      "inputs": [
        {
          "indexed": true,
          "internalType": "address",
          "name": "agentVault",
          "type": "address"
        },
        {
          "indexed": false,
          "internalType": "bytes32",
          "name": "transactionHash",
          "type": "bytes32"
        },
        {
          "indexed": false,
          "internalType": "uint256",
          "name": "depositedUBA",
          "type": "uint256"
        }
      ],
      "name": "UnderlyingBalanceToppedUp",
      "type": "event"
    },
    {
      "anonymous": false,
      "inputs": [
        {
          "indexed": true,
          "internalType": "address",
          "name": "agentVault",
          "type": "address"
        },
        {
          "indexed": false,
          "internalType": "uint64",
          "name": "announcementId",
          "type": "uint64"
        },
        {
          "indexed": false,
          "internalType": "bytes32",
          "name": "paymentReference",
          "type": "bytes32"
        }
      ],
      "name": "UnderlyingWithdrawalAnnounced",
      "type": "event"
    },
    {
      "anonymous": false,
      "inputs": [
        {
          "indexed": true,
          "internalType": "address",
          "name": "agentVault",
          "type": "address"
        },
        {
          "indexed": false,
          "internalType": "uint64",
          "name": "announcementId",
          "type": "uint64"
        }
      ],
      "name": "UnderlyingWithdrawalCancelled",
      "type": "event"
    },
    {
      "anonymous": false,
      "inputs": [
        {
          "indexed": true,
          "internalType": "address",
          "name": "agentVault",
          "type": "address"
        },
        {
          "indexed": false,
          "internalType": "int256",
          "name": "spentUBA",
          "type": "int256"
        },
        {
          "indexed": false,
          "internalType": "bytes32",
          "name": "transactionHash",
          "type": "bytes32"
        },
        {
          "indexed": false,
          "internalType": "uint64",
          "name": "announcementId",
          "type": "uint64"
        }
      ],
      "name": "UnderlyingWithdrawalConfirmed",
      "type": "event"
    },
    {
      "inputs": [
        {
          "components": [
            {
              "internalType": "enum CollateralType.Class",
              "name": "collateralClass",
              "type": "uint8"
            },
            {
              "internalType": "contract IERC20",
              "name": "token",
              "type": "address"
            },
            {
              "internalType": "uint256",
              "name": "decimals",
              "type": "uint256"
            },
            {
              "internalType": "uint256",
              "name": "validUntil",
              "type": "uint256"
            },
            {
              "internalType": "bool",
              "name": "directPricePair",
              "type": "bool"
            },
            {
              "internalType": "string",
              "name": "assetFtsoSymbol",
              "type": "string"
            },
            {
              "internalType": "string",
              "name": "tokenFtsoSymbol",
              "type": "string"
            },
            {
              "internalType": "uint256",
              "name": "minCollateralRatioBIPS",
              "type": "uint256"
            },
            {
              "internalType": "uint256",
              "name": "ccbMinCollateralRatioBIPS",
              "type": "uint256"
            },
            {
              "internalType": "uint256",
              "name": "safetyMinCollateralRatioBIPS",
              "type": "uint256"
            }
          ],
          "internalType": "struct CollateralType.Data",
          "name": "_data",
          "type": "tuple"
        }
      ],
      "name": "addCollateralType",
      "outputs": [],
      "stateMutability": "nonpayable",
      "type": "function"
    },
    {
      "inputs": [
        {
          "internalType": "address",
          "name": "_agentVault",
          "type": "address"
        },
        {
          "internalType": "uint256",
          "name": "_valueNATWei",
          "type": "uint256"
        }
      ],
      "name": "announceAgentPoolTokenRedemption",
      "outputs": [],
      "stateMutability": "nonpayable",
      "type": "function"
    },
    {
      "inputs": [
        {
          "internalType": "address",
          "name": "_agentVault",
          "type": "address"
        },
        {
          "internalType": "string",
          "name": "_name",
          "type": "string"
        },
        {
          "internalType": "uint256",
          "name": "_value",
          "type": "uint256"
        }
      ],
      "name": "announceAgentSettingUpdate",
      "outputs": [],
      "stateMutability": "nonpayable",
      "type": "function"
    },
    {
      "inputs": [
        {
          "internalType": "address",
          "name": "_agentVault",
          "type": "address"
        },
        {
          "internalType": "uint256",
          "name": "_valueNATWei",
          "type": "uint256"
        }
      ],
      "name": "announceClass1CollateralWithdrawal",
      "outputs": [],
      "stateMutability": "nonpayable",
      "type": "function"
    },
    {
      "inputs": [
        {
          "internalType": "address",
          "name": "_agentVault",
          "type": "address"
        }
      ],
      "name": "announceDestroyAgent",
      "outputs": [],
      "stateMutability": "nonpayable",
      "type": "function"
    },
    {
      "inputs": [
        {
          "internalType": "address",
          "name": "_agentVault",
          "type": "address"
        }
      ],
      "name": "announceExitAvailableAgentList",
      "outputs": [],
      "stateMutability": "nonpayable",
      "type": "function"
    },
    {
      "inputs": [
        {
          "internalType": "address",
          "name": "_agentVault",
          "type": "address"
        }
      ],
      "name": "announceUnderlyingWithdrawal",
      "outputs": [],
      "stateMutability": "nonpayable",
      "type": "function"
    },
    {
      "inputs": [],
      "name": "assetManagerController",
      "outputs": [
        {
          "internalType": "address",
          "name": "",
          "type": "address"
        }
      ],
      "stateMutability": "view",
      "type": "function"
    },
    {
      "inputs": [],
      "name": "assetPriceNatWei",
      "outputs": [
        {
          "internalType": "uint256",
          "name": "_multiplier",
          "type": "uint256"
        },
        {
          "internalType": "uint256",
          "name": "_divisor",
          "type": "uint256"
        }
      ],
      "stateMutability": "view",
      "type": "function"
    },
    {
      "inputs": [
        {
          "internalType": "bool",
          "name": "attached",
          "type": "bool"
        }
      ],
      "name": "attachController",
      "outputs": [],
      "stateMutability": "nonpayable",
      "type": "function"
    },
    {
      "inputs": [
        {
          "internalType": "address",
          "name": "_agentVault",
          "type": "address"
        }
      ],
      "name": "buybackAgentCollateral",
      "outputs": [],
      "stateMutability": "payable",
      "type": "function"
    },
    {
      "inputs": [
        {
          "internalType": "address",
          "name": "_agentVault",
          "type": "address"
        }
      ],
      "name": "cancelUnderlyingWithdrawal",
      "outputs": [],
      "stateMutability": "nonpayable",
      "type": "function"
    },
    {
      "inputs": [
        {
          "internalType": "address",
          "name": "_agentVault",
          "type": "address"
        },
        {
          "internalType": "contract IERC20",
          "name": "_token",
          "type": "address"
        }
      ],
      "name": "collateralDeposited",
      "outputs": [],
      "stateMutability": "nonpayable",
      "type": "function"
    },
    {
      "inputs": [
        {
          "internalType": "uint256",
          "name": "_lots",
          "type": "uint256"
        }
      ],
      "name": "collateralReservationFee",
      "outputs": [
        {
          "internalType": "uint256",
          "name": "_reservationFeeNATWei",
          "type": "uint256"
        }
      ],
      "stateMutability": "view",
      "type": "function"
    },
    {
      "inputs": [
        {
          "components": [
            {
              "internalType": "uint256",
              "name": "stateConnectorRound",
              "type": "uint256"
            },
            {
              "internalType": "bytes32[]",
              "name": "merkleProof",
              "type": "bytes32[]"
            },
            {
              "internalType": "uint64",
              "name": "blockNumber",
              "type": "uint64"
            },
            {
              "internalType": "uint64",
              "name": "blockTimestamp",
              "type": "uint64"
            },
            {
              "internalType": "bytes32",
              "name": "transactionHash",
              "type": "bytes32"
            },
            {
              "internalType": "uint8",
              "name": "inUtxo",
              "type": "uint8"
            },
            {
              "internalType": "uint8",
              "name": "utxo",
              "type": "uint8"
            },
            {
              "internalType": "bytes32",
              "name": "sourceAddressHash",
              "type": "bytes32"
            },
            {
              "internalType": "bytes32",
              "name": "receivingAddressHash",
              "type": "bytes32"
            },
            {
              "internalType": "int256",
              "name": "spentAmount",
              "type": "int256"
            },
            {
              "internalType": "int256",
              "name": "receivedAmount",
              "type": "int256"
            },
            {
              "internalType": "bytes32",
              "name": "paymentReference",
              "type": "bytes32"
            },
            {
              "internalType": "bool",
              "name": "oneToOne",
              "type": "bool"
            },
            {
              "internalType": "uint8",
              "name": "status",
              "type": "uint8"
            }
          ],
          "internalType": "struct IAttestationClient.Payment",
          "name": "_payment",
          "type": "tuple"
        },
        {
          "internalType": "uint256",
          "name": "_redemptionRequestId",
          "type": "uint256"
        }
      ],
      "name": "confirmRedemptionPayment",
      "outputs": [],
      "stateMutability": "nonpayable",
      "type": "function"
    },
    {
      "inputs": [
        {
          "components": [
            {
              "internalType": "uint256",
              "name": "stateConnectorRound",
              "type": "uint256"
            },
            {
              "internalType": "bytes32[]",
              "name": "merkleProof",
              "type": "bytes32[]"
            },
            {
              "internalType": "uint64",
              "name": "blockNumber",
              "type": "uint64"
            },
            {
              "internalType": "uint64",
              "name": "blockTimestamp",
              "type": "uint64"
            },
            {
              "internalType": "bytes32",
              "name": "transactionHash",
              "type": "bytes32"
            },
            {
              "internalType": "uint8",
              "name": "inUtxo",
              "type": "uint8"
            },
            {
              "internalType": "uint8",
              "name": "utxo",
              "type": "uint8"
            },
            {
              "internalType": "bytes32",
              "name": "sourceAddressHash",
              "type": "bytes32"
            },
            {
              "internalType": "bytes32",
              "name": "receivingAddressHash",
              "type": "bytes32"
            },
            {
              "internalType": "int256",
              "name": "spentAmount",
              "type": "int256"
            },
            {
              "internalType": "int256",
              "name": "receivedAmount",
              "type": "int256"
            },
            {
              "internalType": "bytes32",
              "name": "paymentReference",
              "type": "bytes32"
            },
            {
              "internalType": "bool",
              "name": "oneToOne",
              "type": "bool"
            },
            {
              "internalType": "uint8",
              "name": "status",
              "type": "uint8"
            }
          ],
          "internalType": "struct IAttestationClient.Payment",
          "name": "_payment",
          "type": "tuple"
        },
        {
          "internalType": "address",
          "name": "_agentVault",
          "type": "address"
        }
      ],
      "name": "confirmTopupPayment",
      "outputs": [],
      "stateMutability": "nonpayable",
      "type": "function"
    },
    {
      "inputs": [
        {
          "components": [
            {
              "internalType": "uint256",
              "name": "stateConnectorRound",
              "type": "uint256"
            },
            {
              "internalType": "bytes32[]",
              "name": "merkleProof",
              "type": "bytes32[]"
            },
            {
              "internalType": "uint64",
              "name": "blockNumber",
              "type": "uint64"
            },
            {
              "internalType": "uint64",
              "name": "blockTimestamp",
              "type": "uint64"
            },
            {
              "internalType": "bytes32",
              "name": "transactionHash",
              "type": "bytes32"
            },
            {
              "internalType": "uint8",
              "name": "inUtxo",
              "type": "uint8"
            },
            {
              "internalType": "uint8",
              "name": "utxo",
              "type": "uint8"
            },
            {
              "internalType": "bytes32",
              "name": "sourceAddressHash",
              "type": "bytes32"
            },
            {
              "internalType": "bytes32",
              "name": "receivingAddressHash",
              "type": "bytes32"
            },
            {
              "internalType": "int256",
              "name": "spentAmount",
              "type": "int256"
            },
            {
              "internalType": "int256",
              "name": "receivedAmount",
              "type": "int256"
            },
            {
              "internalType": "bytes32",
              "name": "paymentReference",
              "type": "bytes32"
            },
            {
              "internalType": "bool",
              "name": "oneToOne",
              "type": "bool"
            },
            {
              "internalType": "uint8",
              "name": "status",
              "type": "uint8"
            }
          ],
          "internalType": "struct IAttestationClient.Payment",
          "name": "_payment",
          "type": "tuple"
        },
        {
          "internalType": "address",
          "name": "_agentVault",
          "type": "address"
        }
      ],
      "name": "confirmUnderlyingWithdrawal",
      "outputs": [],
      "stateMutability": "nonpayable",
      "type": "function"
    },
    {
      "inputs": [],
      "name": "controllerAttached",
      "outputs": [
        {
          "internalType": "bool",
          "name": "",
          "type": "bool"
        }
      ],
      "stateMutability": "view",
      "type": "function"
    },
    {
      "inputs": [
        {
          "internalType": "address",
          "name": "_agentVault",
          "type": "address"
        }
      ],
      "name": "convertDustToTicket",
      "outputs": [],
      "stateMutability": "nonpayable",
      "type": "function"
    },
    {
      "inputs": [
        {
          "components": [
            {
              "internalType": "string",
              "name": "underlyingAddressString",
              "type": "string"
            },
            {
              "internalType": "contract IERC20",
              "name": "class1CollateralToken",
              "type": "address"
            },
            {
              "internalType": "uint256",
              "name": "feeBIPS",
              "type": "uint256"
            },
            {
              "internalType": "uint256",
              "name": "poolFeeShareBIPS",
              "type": "uint256"
            },
            {
              "internalType": "uint256",
              "name": "mintingClass1CollateralRatioBIPS",
              "type": "uint256"
            },
            {
              "internalType": "uint256",
              "name": "mintingPoolCollateralRatioBIPS",
              "type": "uint256"
            },
            {
              "internalType": "uint256",
              "name": "buyFAssetByAgentFactorBIPS",
              "type": "uint256"
            },
            {
              "internalType": "uint256",
              "name": "poolExitCollateralRatioBIPS",
              "type": "uint256"
            },
            {
              "internalType": "uint256",
              "name": "poolTopupCollateralRatioBIPS",
              "type": "uint256"
            },
            {
              "internalType": "uint256",
              "name": "poolTopupTokenPriceFactorBIPS",
              "type": "uint256"
            }
          ],
          "internalType": "struct AgentSettings.Data",
          "name": "_settings",
          "type": "tuple"
        }
      ],
      "name": "createAgent",
      "outputs": [],
      "stateMutability": "nonpayable",
      "type": "function"
    },
    {
      "inputs": [],
      "name": "currentUnderlyingBlock",
      "outputs": [
        {
          "internalType": "uint256",
          "name": "_blockNumber",
          "type": "uint256"
        },
        {
          "internalType": "uint256",
          "name": "_blockTimestamp",
          "type": "uint256"
        }
      ],
      "stateMutability": "view",
      "type": "function"
    },
    {
      "inputs": [
        {
          "internalType": "enum CollateralType.Class",
          "name": "_collateralClass",
          "type": "uint8"
        },
        {
          "internalType": "contract IERC20",
          "name": "_token",
          "type": "address"
        },
        {
          "internalType": "uint256",
          "name": "_invalidationTimeSec",
          "type": "uint256"
        }
      ],
      "name": "deprecateCollateralType",
      "outputs": [],
      "stateMutability": "nonpayable",
      "type": "function"
    },
    {
      "inputs": [
        {
          "internalType": "address",
          "name": "_agentVault",
          "type": "address"
        },
        {
          "internalType": "address payable",
          "name": "_recipient",
          "type": "address"
        }
      ],
      "name": "destroyAgent",
      "outputs": [],
      "stateMutability": "nonpayable",
      "type": "function"
    },
    {
      "inputs": [
        {
          "components": [
            {
              "internalType": "uint256",
              "name": "stateConnectorRound",
              "type": "uint256"
            },
            {
              "internalType": "bytes32[]",
              "name": "merkleProof",
              "type": "bytes32[]"
            },
            {
              "internalType": "uint64",
              "name": "blockNumber",
              "type": "uint64"
            },
            {
              "internalType": "uint64",
              "name": "blockTimestamp",
              "type": "uint64"
            },
            {
              "internalType": "bytes32",
              "name": "transactionHash",
              "type": "bytes32"
            },
            {
              "internalType": "uint8",
              "name": "inUtxo",
              "type": "uint8"
            },
            {
              "internalType": "bytes32",
              "name": "sourceAddressHash",
              "type": "bytes32"
            },
            {
              "internalType": "int256",
              "name": "spentAmount",
              "type": "int256"
            },
            {
              "internalType": "bytes32",
              "name": "paymentReference",
              "type": "bytes32"
            }
          ],
          "internalType": "struct IAttestationClient.BalanceDecreasingTransaction",
          "name": "_payment1",
          "type": "tuple"
        },
        {
          "components": [
            {
              "internalType": "uint256",
              "name": "stateConnectorRound",
              "type": "uint256"
            },
            {
              "internalType": "bytes32[]",
              "name": "merkleProof",
              "type": "bytes32[]"
            },
            {
              "internalType": "uint64",
              "name": "blockNumber",
              "type": "uint64"
            },
            {
              "internalType": "uint64",
              "name": "blockTimestamp",
              "type": "uint64"
            },
            {
              "internalType": "bytes32",
              "name": "transactionHash",
              "type": "bytes32"
            },
            {
              "internalType": "uint8",
              "name": "inUtxo",
              "type": "uint8"
            },
            {
              "internalType": "bytes32",
              "name": "sourceAddressHash",
              "type": "bytes32"
            },
            {
              "internalType": "int256",
              "name": "spentAmount",
              "type": "int256"
            },
            {
              "internalType": "bytes32",
              "name": "paymentReference",
              "type": "bytes32"
            }
          ],
          "internalType": "struct IAttestationClient.BalanceDecreasingTransaction",
          "name": "_payment2",
          "type": "tuple"
        },
        {
          "internalType": "address",
          "name": "_agentVault",
          "type": "address"
        }
      ],
      "name": "doublePaymentChallenge",
      "outputs": [],
      "stateMutability": "nonpayable",
      "type": "function"
    },
    {
      "inputs": [
        {
          "internalType": "address",
          "name": "_agentVault",
          "type": "address"
        }
      ],
      "name": "endLiquidation",
      "outputs": [],
      "stateMutability": "nonpayable",
      "type": "function"
    },
    {
      "inputs": [
        {
          "internalType": "address",
          "name": "_agentVault",
          "type": "address"
        },
        {
          "internalType": "string",
          "name": "_name",
          "type": "string"
        }
      ],
      "name": "executeAgentSettingUpdate",
      "outputs": [],
      "stateMutability": "nonpayable",
      "type": "function"
    },
    {
      "inputs": [
        {
          "components": [
            {
              "internalType": "uint256",
              "name": "stateConnectorRound",
              "type": "uint256"
            },
            {
              "internalType": "bytes32[]",
              "name": "merkleProof",
              "type": "bytes32[]"
            },
            {
              "internalType": "uint64",
              "name": "blockNumber",
              "type": "uint64"
            },
            {
              "internalType": "uint64",
              "name": "blockTimestamp",
              "type": "uint64"
            },
            {
              "internalType": "bytes32",
              "name": "transactionHash",
              "type": "bytes32"
            },
            {
              "internalType": "uint8",
              "name": "inUtxo",
              "type": "uint8"
            },
            {
              "internalType": "uint8",
              "name": "utxo",
              "type": "uint8"
            },
            {
              "internalType": "bytes32",
              "name": "sourceAddressHash",
              "type": "bytes32"
            },
            {
              "internalType": "bytes32",
              "name": "receivingAddressHash",
              "type": "bytes32"
            },
            {
              "internalType": "int256",
              "name": "spentAmount",
              "type": "int256"
            },
            {
              "internalType": "int256",
              "name": "receivedAmount",
              "type": "int256"
            },
            {
              "internalType": "bytes32",
              "name": "paymentReference",
              "type": "bytes32"
            },
            {
              "internalType": "bool",
              "name": "oneToOne",
              "type": "bool"
            },
            {
              "internalType": "uint8",
              "name": "status",
              "type": "uint8"
            }
          ],
          "internalType": "struct IAttestationClient.Payment",
          "name": "_payment",
          "type": "tuple"
        },
        {
          "internalType": "uint256",
          "name": "_collateralReservationId",
          "type": "uint256"
        }
      ],
      "name": "executeMinting",
      "outputs": [],
      "stateMutability": "nonpayable",
      "type": "function"
    },
    {
      "inputs": [
        {
          "internalType": "address",
          "name": "_agentVault",
          "type": "address"
        }
      ],
      "name": "exitAvailableAgentList",
      "outputs": [],
      "stateMutability": "nonpayable",
      "type": "function"
    },
    {
      "inputs": [],
      "name": "fAsset",
      "outputs": [
        {
          "internalType": "contract IERC20",
          "name": "",
          "type": "address"
        }
      ],
      "stateMutability": "view",
      "type": "function"
    },
    {
      "inputs": [
        {
          "components": [
            {
              "internalType": "uint256",
              "name": "stateConnectorRound",
              "type": "uint256"
            },
            {
              "internalType": "bytes32[]",
              "name": "merkleProof",
              "type": "bytes32[]"
            },
            {
              "internalType": "uint64",
              "name": "blockNumber",
              "type": "uint64"
            },
            {
              "internalType": "uint64",
              "name": "blockTimestamp",
              "type": "uint64"
            },
            {
              "internalType": "uint8",
              "name": "numberOfConfirmations",
              "type": "uint8"
            },
            {
              "internalType": "uint64",
              "name": "averageBlockProductionTimeMs",
              "type": "uint64"
            },
            {
              "internalType": "uint64",
              "name": "lowestQueryWindowBlockNumber",
              "type": "uint64"
            },
            {
              "internalType": "uint64",
              "name": "lowestQueryWindowBlockTimestamp",
              "type": "uint64"
            }
          ],
          "internalType": "struct IAttestationClient.ConfirmedBlockHeightExists",
          "name": "_proof",
          "type": "tuple"
        },
        {
          "internalType": "uint256",
          "name": "_redemptionRequestId",
          "type": "uint256"
        }
      ],
      "name": "finishRedemptionWithoutPayment",
      "outputs": [],
      "stateMutability": "nonpayable",
      "type": "function"
    },
    {
      "inputs": [
        {
          "components": [
            {
              "internalType": "uint256",
              "name": "stateConnectorRound",
              "type": "uint256"
            },
            {
              "internalType": "bytes32[]",
              "name": "merkleProof",
              "type": "bytes32[]"
            },
            {
              "internalType": "uint64",
              "name": "blockNumber",
              "type": "uint64"
            },
            {
              "internalType": "uint64",
              "name": "blockTimestamp",
              "type": "uint64"
            },
            {
              "internalType": "bytes32",
              "name": "transactionHash",
              "type": "bytes32"
            },
            {
              "internalType": "uint8",
              "name": "inUtxo",
              "type": "uint8"
            },
            {
              "internalType": "bytes32",
              "name": "sourceAddressHash",
              "type": "bytes32"
            },
            {
              "internalType": "int256",
              "name": "spentAmount",
              "type": "int256"
            },
            {
              "internalType": "bytes32",
              "name": "paymentReference",
              "type": "bytes32"
            }
          ],
          "internalType": "struct IAttestationClient.BalanceDecreasingTransaction[]",
          "name": "_payments",
          "type": "tuple[]"
        },
        {
          "internalType": "address",
          "name": "_agentVault",
          "type": "address"
        }
      ],
      "name": "freeBalanceNegativeChallenge",
      "outputs": [],
      "stateMutability": "nonpayable",
      "type": "function"
    },
    {
      "inputs": [
        {
          "internalType": "address",
          "name": "_agentVault",
          "type": "address"
        }
      ],
      "name": "getAgentInfo",
      "outputs": [
        {
          "components": [
            {
              "internalType": "enum AgentInfo.Status",
              "name": "status",
              "type": "uint8"
            },
            {
              "internalType": "address",
              "name": "ownerColdWalletAddress",
              "type": "address"
            },
            {
              "internalType": "address",
              "name": "ownerHotWalletAddress",
              "type": "address"
            },
            {
              "internalType": "address",
              "name": "collateralPool",
              "type": "address"
            },
            {
              "internalType": "string",
              "name": "underlyingAddressString",
              "type": "string"
            },
            {
              "internalType": "bool",
              "name": "publiclyAvailable",
              "type": "bool"
            },
            {
              "internalType": "uint256",
              "name": "feeBIPS",
              "type": "uint256"
            },
            {
              "internalType": "uint256",
              "name": "poolFeeShareBIPS",
              "type": "uint256"
            },
            {
              "internalType": "contract IERC20",
              "name": "class1CollateralToken",
              "type": "address"
            },
            {
              "internalType": "uint256",
              "name": "mintingClass1CollateralRatioBIPS",
              "type": "uint256"
            },
            {
              "internalType": "uint256",
              "name": "mintingPoolCollateralRatioBIPS",
              "type": "uint256"
            },
            {
              "internalType": "uint256",
              "name": "freeCollateralLots",
              "type": "uint256"
            },
            {
              "internalType": "uint256",
              "name": "totalClass1CollateralWei",
              "type": "uint256"
            },
            {
              "internalType": "uint256",
              "name": "freeClass1CollateralWei",
              "type": "uint256"
            },
            {
              "internalType": "uint256",
              "name": "class1CollateralRatioBIPS",
              "type": "uint256"
            },
            {
              "internalType": "uint256",
              "name": "totalPoolCollateralNATWei",
              "type": "uint256"
            },
            {
              "internalType": "uint256",
              "name": "freePoolCollateralNATWei",
              "type": "uint256"
            },
            {
              "internalType": "uint256",
              "name": "poolCollateralRatioBIPS",
              "type": "uint256"
            },
            {
              "internalType": "uint256",
              "name": "totalAgentPoolTokensWei",
              "type": "uint256"
            },
            {
              "internalType": "uint256",
              "name": "announcedClass1WithdrawalWei",
              "type": "uint256"
            },
            {
              "internalType": "uint256",
              "name": "announcedPoolTokensWithdrawalWei",
              "type": "uint256"
            },
            {
              "internalType": "uint256",
              "name": "freeAgentPoolTokensWei",
              "type": "uint256"
            },
            {
              "internalType": "uint256",
              "name": "mintedUBA",
              "type": "uint256"
            },
            {
              "internalType": "uint256",
              "name": "reservedUBA",
              "type": "uint256"
            },
            {
              "internalType": "uint256",
              "name": "redeemingUBA",
              "type": "uint256"
            },
            {
              "internalType": "uint256",
              "name": "poolRedeemingUBA",
              "type": "uint256"
            },
            {
              "internalType": "uint256",
              "name": "dustUBA",
              "type": "uint256"
            },
            {
              "internalType": "uint256",
              "name": "ccbStartTimestamp",
              "type": "uint256"
            },
            {
              "internalType": "uint256",
              "name": "liquidationStartTimestamp",
              "type": "uint256"
            },
            {
              "internalType": "int256",
              "name": "underlyingBalanceUBA",
              "type": "int256"
            },
            {
              "internalType": "uint256",
              "name": "requiredUnderlyingBalanceUBA",
              "type": "uint256"
            },
            {
              "internalType": "int256",
              "name": "freeUnderlyingBalanceUBA",
              "type": "int256"
            },
            {
              "internalType": "uint256",
              "name": "announcedUnderlyingWithdrawalId",
              "type": "uint256"
            },
            {
              "internalType": "uint256",
              "name": "buyFAssetByAgentFactorBIPS",
              "type": "uint256"
            },
            {
              "internalType": "uint256",
              "name": "poolExitCollateralRatioBIPS",
              "type": "uint256"
            },
            {
              "internalType": "uint256",
              "name": "poolTopupCollateralRatioBIPS",
              "type": "uint256"
            },
            {
              "internalType": "uint256",
              "name": "poolTopupTokenPriceFactorBIPS",
              "type": "uint256"
            }
          ],
          "internalType": "struct AgentInfo.Info",
          "name": "",
          "type": "tuple"
        }
      ],
      "stateMutability": "view",
      "type": "function"
    },
    {
      "inputs": [
        {
          "internalType": "address",
          "name": "_agentVault",
          "type": "address"
        }
      ],
      "name": "getAgentVaultOwner",
      "outputs": [
        {
          "internalType": "address",
          "name": "_ownerColdAddress",
          "type": "address"
        },
        {
          "internalType": "address",
          "name": "_ownerHotAddress",
          "type": "address"
        }
      ],
      "stateMutability": "view",
      "type": "function"
    },
    {
      "inputs": [
        {
          "internalType": "uint256",
          "name": "_start",
          "type": "uint256"
        },
        {
          "internalType": "uint256",
          "name": "_end",
          "type": "uint256"
        }
      ],
      "name": "getAllAgents",
      "outputs": [
        {
          "internalType": "address[]",
          "name": "_agents",
          "type": "address[]"
        },
        {
          "internalType": "uint256",
          "name": "_totalLength",
          "type": "uint256"
        }
      ],
      "stateMutability": "view",
      "type": "function"
    },
    {
      "inputs": [
        {
          "internalType": "uint256",
          "name": "_start",
          "type": "uint256"
        },
        {
          "internalType": "uint256",
          "name": "_end",
          "type": "uint256"
        }
      ],
      "name": "getAvailableAgentsDetailedList",
      "outputs": [
        {
          "components": [
            {
              "internalType": "address",
              "name": "agentVault",
              "type": "address"
            },
            {
              "internalType": "uint256",
              "name": "feeBIPS",
              "type": "uint256"
            },
            {
              "internalType": "uint256",
              "name": "mintingClass1CollateralRatioBIPS",
              "type": "uint256"
            },
            {
              "internalType": "uint256",
              "name": "mintingPoolCollateralRatioBIPS",
              "type": "uint256"
            },
            {
              "internalType": "uint256",
              "name": "freeCollateralLots",
              "type": "uint256"
            }
          ],
          "internalType": "struct AvailableAgentInfo.Data[]",
          "name": "_agents",
          "type": "tuple[]"
        },
        {
          "internalType": "uint256",
          "name": "_totalLength",
          "type": "uint256"
        }
      ],
      "stateMutability": "view",
      "type": "function"
    },
    {
      "inputs": [
        {
          "internalType": "uint256",
          "name": "_start",
          "type": "uint256"
        },
        {
          "internalType": "uint256",
          "name": "_end",
          "type": "uint256"
        }
      ],
      "name": "getAvailableAgentsList",
      "outputs": [
        {
          "internalType": "address[]",
          "name": "_agents",
          "type": "address[]"
        },
        {
          "internalType": "uint256",
          "name": "_totalLength",
          "type": "uint256"
        }
      ],
      "stateMutability": "view",
      "type": "function"
    },
    {
      "inputs": [
        {
          "internalType": "address",
          "name": "_agentVault",
          "type": "address"
        }
      ],
      "name": "getCollateralPool",
      "outputs": [
        {
          "internalType": "address",
          "name": "",
          "type": "address"
        }
      ],
      "stateMutability": "view",
      "type": "function"
    },
    {
      "inputs": [
        {
          "internalType": "enum CollateralType.Class",
          "name": "_collateralClass",
          "type": "uint8"
        },
        {
          "internalType": "contract IERC20",
          "name": "_token",
          "type": "address"
        }
      ],
      "name": "getCollateralType",
      "outputs": [
        {
          "components": [
            {
              "internalType": "enum CollateralType.Class",
              "name": "collateralClass",
              "type": "uint8"
            },
            {
              "internalType": "contract IERC20",
              "name": "token",
              "type": "address"
            },
            {
              "internalType": "uint256",
              "name": "decimals",
              "type": "uint256"
            },
            {
              "internalType": "uint256",
              "name": "validUntil",
              "type": "uint256"
            },
            {
              "internalType": "bool",
              "name": "directPricePair",
              "type": "bool"
            },
            {
              "internalType": "string",
              "name": "assetFtsoSymbol",
              "type": "string"
            },
            {
              "internalType": "string",
              "name": "tokenFtsoSymbol",
              "type": "string"
            },
            {
              "internalType": "uint256",
              "name": "minCollateralRatioBIPS",
              "type": "uint256"
            },
            {
              "internalType": "uint256",
              "name": "ccbMinCollateralRatioBIPS",
              "type": "uint256"
            },
            {
              "internalType": "uint256",
              "name": "safetyMinCollateralRatioBIPS",
              "type": "uint256"
            }
          ],
          "internalType": "struct CollateralType.Data",
          "name": "",
          "type": "tuple"
        }
      ],
      "stateMutability": "view",
      "type": "function"
    },
    {
      "inputs": [],
      "name": "getCollateralTypes",
      "outputs": [
        {
          "components": [
            {
              "internalType": "enum CollateralType.Class",
              "name": "collateralClass",
              "type": "uint8"
            },
            {
              "internalType": "contract IERC20",
              "name": "token",
              "type": "address"
            },
            {
              "internalType": "uint256",
              "name": "decimals",
              "type": "uint256"
            },
            {
              "internalType": "uint256",
              "name": "validUntil",
              "type": "uint256"
            },
            {
              "internalType": "bool",
              "name": "directPricePair",
              "type": "bool"
            },
            {
              "internalType": "string",
              "name": "assetFtsoSymbol",
              "type": "string"
            },
            {
              "internalType": "string",
              "name": "tokenFtsoSymbol",
              "type": "string"
            },
            {
              "internalType": "uint256",
              "name": "minCollateralRatioBIPS",
              "type": "uint256"
            },
            {
              "internalType": "uint256",
              "name": "ccbMinCollateralRatioBIPS",
              "type": "uint256"
            },
            {
              "internalType": "uint256",
              "name": "safetyMinCollateralRatioBIPS",
              "type": "uint256"
            }
          ],
          "internalType": "struct CollateralType.Data[]",
          "name": "",
          "type": "tuple[]"
        }
      ],
      "stateMutability": "view",
      "type": "function"
    },
    {
      "inputs": [
        {
          "internalType": "address",
          "name": "_agentVault",
          "type": "address"
        }
      ],
      "name": "getFAssetsBackedByPool",
      "outputs": [
        {
          "internalType": "uint256",
          "name": "",
          "type": "uint256"
        }
      ],
      "stateMutability": "view",
      "type": "function"
    },
    {
      "inputs": [],
      "name": "getLiquidationSettings",
      "outputs": [
        {
          "internalType": "bytes",
          "name": "",
          "type": "bytes"
        }
      ],
      "stateMutability": "view",
      "type": "function"
    },
    {
      "inputs": [],
      "name": "getSettings",
      "outputs": [
        {
          "components": [
            {
              "internalType": "address",
              "name": "assetManagerController",
              "type": "address"
            },
            {
              "internalType": "address",
              "name": "fAsset",
              "type": "address"
            },
            {
              "internalType": "address",
              "name": "agentVaultFactory",
              "type": "address"
            },
            {
              "internalType": "address",
              "name": "collateralPoolFactory",
              "type": "address"
            },
            {
              "internalType": "address",
              "name": "whitelist",
              "type": "address"
            },
            {
              "internalType": "address",
              "name": "agentWhitelist",
              "type": "address"
            },
            {
              "internalType": "address",
              "name": "attestationClient",
              "type": "address"
            },
            {
              "internalType": "address",
              "name": "underlyingAddressValidator",
              "type": "address"
            },
            {
              "internalType": "address",
              "name": "liquidationStrategy",
              "type": "address"
            },
            {
              "internalType": "address",
              "name": "ftsoRegistry",
              "type": "address"
            },
            {
              "internalType": "uint8",
              "name": "assetDecimals",
              "type": "uint8"
            },
            {
              "internalType": "uint8",
              "name": "assetMintingDecimals",
              "type": "uint8"
            },
            {
              "internalType": "uint32",
              "name": "mintingPoolHoldingsRequiredBIPS",
              "type": "uint32"
            },
            {
              "internalType": "address payable",
              "name": "burnAddress",
              "type": "address"
            },
            {
              "internalType": "uint32",
              "name": "chainId",
              "type": "uint32"
            },
            {
              "internalType": "uint16",
              "name": "collateralReservationFeeBIPS",
              "type": "uint16"
            },
            {
              "internalType": "uint64",
              "name": "assetUnitUBA",
              "type": "uint64"
            },
            {
              "internalType": "uint64",
              "name": "assetMintingGranularityUBA",
              "type": "uint64"
            },
            {
              "internalType": "uint64",
              "name": "lotSizeAMG",
              "type": "uint64"
            },
            {
              "internalType": "uint16",
              "name": "minUnderlyingBackingBIPS",
              "type": "uint16"
            },
            {
              "internalType": "uint64",
              "name": "mintingCapAMG",
              "type": "uint64"
            },
            {
              "internalType": "uint64",
              "name": "maxTrustedPriceAgeSeconds",
              "type": "uint64"
            },
            {
              "internalType": "bool",
              "name": "requireEOAAddressProof",
              "type": "bool"
            },
            {
              "internalType": "uint64",
              "name": "underlyingBlocksForPayment",
              "type": "uint64"
            },
            {
              "internalType": "uint64",
              "name": "underlyingSecondsForPayment",
              "type": "uint64"
            },
            {
              "internalType": "uint16",
              "name": "redemptionFeeBIPS",
              "type": "uint16"
            },
            {
              "internalType": "uint32",
              "name": "redemptionDefaultFactorAgentC1BIPS",
              "type": "uint32"
            },
            {
              "internalType": "uint32",
              "name": "redemptionDefaultFactorPoolBIPS",
              "type": "uint32"
            },
            {
              "internalType": "uint64",
              "name": "confirmationByOthersAfterSeconds",
              "type": "uint64"
            },
            {
              "internalType": "uint128",
              "name": "confirmationByOthersRewardUSD5",
              "type": "uint128"
            },
            {
              "internalType": "uint16",
              "name": "maxRedeemedTickets",
              "type": "uint16"
            },
            {
              "internalType": "uint16",
              "name": "paymentChallengeRewardBIPS",
              "type": "uint16"
            },
            {
              "internalType": "uint128",
              "name": "paymentChallengeRewardUSD5",
              "type": "uint128"
            },
            {
              "internalType": "uint64",
              "name": "withdrawalWaitMinSeconds",
              "type": "uint64"
            },
            {
              "internalType": "uint64",
              "name": "ccbTimeSeconds",
              "type": "uint64"
            },
            {
              "internalType": "uint64",
              "name": "attestationWindowSeconds",
              "type": "uint64"
            },
            {
              "internalType": "uint64",
              "name": "minUpdateRepeatTimeSeconds",
              "type": "uint64"
            },
            {
              "internalType": "uint64",
              "name": "buybackCollateralFactorBIPS",
              "type": "uint64"
            },
            {
              "internalType": "uint64",
              "name": "announcedUnderlyingConfirmationMinSeconds",
              "type": "uint64"
            },
            {
              "internalType": "uint64",
              "name": "tokenInvalidationTimeMinSeconds",
              "type": "uint64"
            },
            {
              "internalType": "uint32",
              "name": "class1BuyForFlareFactorBIPS",
              "type": "uint32"
            },
            {
              "internalType": "uint64",
              "name": "agentExitAvailableTimelockSeconds",
              "type": "uint64"
            },
            {
              "internalType": "uint64",
              "name": "agentFeeChangeTimelockSeconds",
              "type": "uint64"
            },
            {
              "internalType": "uint64",
              "name": "agentCollateralRatioChangeTimelockSeconds",
              "type": "uint64"
            }
          ],
          "internalType": "struct AssetManagerSettings.Data",
          "name": "",
          "type": "tuple"
        }
      ],
      "stateMutability": "view",
      "type": "function"
    },
    {
      "inputs": [],
      "name": "getWNat",
      "outputs": [
        {
          "internalType": "contract IWNat",
          "name": "",
          "type": "address"
        }
      ],
      "stateMutability": "view",
      "type": "function"
    },
    {
      "inputs": [
        {
          "components": [
            {
              "internalType": "uint256",
              "name": "stateConnectorRound",
              "type": "uint256"
            },
            {
              "internalType": "bytes32[]",
              "name": "merkleProof",
              "type": "bytes32[]"
            },
            {
              "internalType": "uint64",
              "name": "blockNumber",
              "type": "uint64"
            },
            {
              "internalType": "uint64",
              "name": "blockTimestamp",
              "type": "uint64"
            },
            {
              "internalType": "bytes32",
              "name": "transactionHash",
              "type": "bytes32"
            },
            {
              "internalType": "uint8",
              "name": "inUtxo",
              "type": "uint8"
            },
            {
              "internalType": "bytes32",
              "name": "sourceAddressHash",
              "type": "bytes32"
            },
            {
              "internalType": "int256",
              "name": "spentAmount",
              "type": "int256"
            },
            {
              "internalType": "bytes32",
              "name": "paymentReference",
              "type": "bytes32"
            }
          ],
          "internalType": "struct IAttestationClient.BalanceDecreasingTransaction",
          "name": "_transaction",
          "type": "tuple"
        },
        {
          "internalType": "address",
          "name": "_agentVault",
          "type": "address"
        }
      ],
      "name": "illegalPaymentChallenge",
      "outputs": [],
      "stateMutability": "nonpayable",
      "type": "function"
    },
    {
      "inputs": [
        {
          "internalType": "address",
          "name": "_agentVault",
          "type": "address"
        },
        {
          "internalType": "address",
          "name": "_address",
          "type": "address"
        }
      ],
      "name": "isAgentVaultOwner",
      "outputs": [
        {
          "internalType": "bool",
          "name": "",
          "type": "bool"
        }
      ],
      "stateMutability": "view",
      "type": "function"
    },
    {
      "inputs": [
        {
          "internalType": "address",
          "name": "_agentVault",
          "type": "address"
        },
        {
          "internalType": "contract IERC20",
          "name": "_token",
          "type": "address"
        }
      ],
      "name": "isLockedVaultToken",
      "outputs": [
        {
          "internalType": "bool",
          "name": "",
          "type": "bool"
        }
      ],
      "stateMutability": "view",
      "type": "function"
    },
    {
      "inputs": [
        {
          "internalType": "address",
          "name": "_agentVault",
          "type": "address"
        },
        {
          "internalType": "uint256",
          "name": "_amountUBA",
          "type": "uint256"
        }
      ],
      "name": "liquidate",
      "outputs": [
        {
          "internalType": "uint256",
          "name": "_liquidatedAmountUBA",
          "type": "uint256"
        },
        {
          "internalType": "uint256",
          "name": "_amountPaidClass1",
          "type": "uint256"
        },
        {
          "internalType": "uint256",
          "name": "_amountPaidPool",
          "type": "uint256"
        }
      ],
      "stateMutability": "nonpayable",
      "type": "function"
    },
    {
      "inputs": [],
      "name": "lotSize",
      "outputs": [
        {
          "internalType": "uint256",
          "name": "_lotSizeUBA",
          "type": "uint256"
        }
      ],
      "stateMutability": "view",
      "type": "function"
    },
    {
      "inputs": [
        {
          "internalType": "address",
          "name": "_agentVault",
          "type": "address"
        }
      ],
      "name": "makeAgentAvailable",
      "outputs": [],
      "stateMutability": "nonpayable",
      "type": "function"
    },
    {
      "inputs": [
        {
          "internalType": "address",
          "name": "_agentVault",
          "type": "address"
        }
      ],
      "name": "maxRedemptionFromAgent",
      "outputs": [
        {
          "internalType": "uint256",
          "name": "",
          "type": "uint256"
        }
      ],
      "stateMutability": "view",
      "type": "function"
    },
    {
      "inputs": [
        {
          "components": [
            {
              "internalType": "uint256",
              "name": "stateConnectorRound",
              "type": "uint256"
            },
            {
              "internalType": "bytes32[]",
              "name": "merkleProof",
              "type": "bytes32[]"
            },
            {
              "internalType": "uint64",
              "name": "deadlineBlockNumber",
              "type": "uint64"
            },
            {
              "internalType": "uint64",
              "name": "deadlineTimestamp",
              "type": "uint64"
            },
            {
              "internalType": "bytes32",
              "name": "destinationAddressHash",
              "type": "bytes32"
            },
            {
              "internalType": "bytes32",
              "name": "paymentReference",
              "type": "bytes32"
            },
            {
              "internalType": "uint128",
              "name": "amount",
              "type": "uint128"
            },
            {
              "internalType": "uint64",
              "name": "lowerBoundaryBlockNumber",
              "type": "uint64"
            },
            {
              "internalType": "uint64",
              "name": "lowerBoundaryBlockTimestamp",
              "type": "uint64"
            },
            {
              "internalType": "uint64",
              "name": "firstOverflowBlockNumber",
              "type": "uint64"
            },
            {
              "internalType": "uint64",
              "name": "firstOverflowBlockTimestamp",
              "type": "uint64"
            }
          ],
          "internalType": "struct IAttestationClient.ReferencedPaymentNonexistence",
          "name": "_proof",
          "type": "tuple"
        },
        {
          "internalType": "uint256",
          "name": "_collateralReservationId",
          "type": "uint256"
        }
      ],
      "name": "mintingPaymentDefault",
      "outputs": [],
      "stateMutability": "nonpayable",
      "type": "function"
    },
    {
      "inputs": [],
      "name": "pause",
      "outputs": [],
      "stateMutability": "nonpayable",
      "type": "function"
    },
    {
      "inputs": [],
      "name": "paused",
      "outputs": [
        {
          "internalType": "bool",
          "name": "",
          "type": "bool"
        }
      ],
      "stateMutability": "view",
      "type": "function"
    },
    {
      "inputs": [
        {
          "components": [
            {
              "internalType": "uint256",
              "name": "stateConnectorRound",
              "type": "uint256"
            },
            {
              "internalType": "bytes32[]",
              "name": "merkleProof",
              "type": "bytes32[]"
            },
            {
              "internalType": "uint64",
              "name": "blockNumber",
              "type": "uint64"
            },
            {
              "internalType": "uint64",
              "name": "blockTimestamp",
              "type": "uint64"
            },
            {
              "internalType": "bytes32",
              "name": "transactionHash",
              "type": "bytes32"
            },
            {
              "internalType": "uint8",
              "name": "inUtxo",
              "type": "uint8"
            },
            {
              "internalType": "uint8",
              "name": "utxo",
              "type": "uint8"
            },
            {
              "internalType": "bytes32",
              "name": "sourceAddressHash",
              "type": "bytes32"
            },
            {
              "internalType": "bytes32",
              "name": "receivingAddressHash",
              "type": "bytes32"
            },
            {
              "internalType": "int256",
              "name": "spentAmount",
              "type": "int256"
            },
            {
              "internalType": "int256",
              "name": "receivedAmount",
              "type": "int256"
            },
            {
              "internalType": "bytes32",
              "name": "paymentReference",
              "type": "bytes32"
            },
            {
              "internalType": "bool",
              "name": "oneToOne",
              "type": "bool"
            },
            {
              "internalType": "uint8",
              "name": "status",
              "type": "uint8"
            }
          ],
          "internalType": "struct IAttestationClient.Payment",
          "name": "_payment",
          "type": "tuple"
        }
      ],
      "name": "proveUnderlyingAddressEOA",
      "outputs": [],
      "stateMutability": "nonpayable",
      "type": "function"
    },
    {
      "inputs": [
        {
          "internalType": "uint256",
          "name": "_lots",
          "type": "uint256"
        },
        {
          "internalType": "string",
          "name": "_redeemerUnderlyingAddressString",
          "type": "string"
        }
      ],
      "name": "redeem",
      "outputs": [],
      "stateMutability": "nonpayable",
      "type": "function"
    },
    {
      "inputs": [
        {
          "internalType": "address",
          "name": "_agentVault",
          "type": "address"
        },
        {
          "internalType": "address",
          "name": "_receiver",
          "type": "address"
        },
        {
          "internalType": "uint256",
          "name": "_amountUBA",
          "type": "uint256"
        },
        {
          "internalType": "string",
          "name": "_receiverUnderlyingAddress",
          "type": "string"
        }
      ],
      "name": "redeemFromAgent",
      "outputs": [],
      "stateMutability": "nonpayable",
      "type": "function"
    },
    {
      "inputs": [
        {
          "internalType": "address",
          "name": "_agentVault",
          "type": "address"
        },
        {
          "internalType": "address",
          "name": "_receiver",
          "type": "address"
        },
        {
          "internalType": "uint256",
          "name": "_amountUBA",
          "type": "uint256"
        }
      ],
      "name": "redeemFromAgentInCollateral",
      "outputs": [],
      "stateMutability": "nonpayable",
      "type": "function"
    },
    {
      "inputs": [
        {
          "components": [
            {
              "internalType": "uint256",
              "name": "stateConnectorRound",
              "type": "uint256"
            },
            {
              "internalType": "bytes32[]",
              "name": "merkleProof",
              "type": "bytes32[]"
            },
            {
              "internalType": "uint64",
              "name": "deadlineBlockNumber",
              "type": "uint64"
            },
            {
              "internalType": "uint64",
              "name": "deadlineTimestamp",
              "type": "uint64"
            },
            {
              "internalType": "bytes32",
              "name": "destinationAddressHash",
              "type": "bytes32"
            },
            {
              "internalType": "bytes32",
              "name": "paymentReference",
              "type": "bytes32"
            },
            {
              "internalType": "uint128",
              "name": "amount",
              "type": "uint128"
            },
            {
              "internalType": "uint64",
              "name": "lowerBoundaryBlockNumber",
              "type": "uint64"
            },
            {
              "internalType": "uint64",
              "name": "lowerBoundaryBlockTimestamp",
              "type": "uint64"
            },
            {
              "internalType": "uint64",
              "name": "firstOverflowBlockNumber",
              "type": "uint64"
            },
            {
              "internalType": "uint64",
              "name": "firstOverflowBlockTimestamp",
              "type": "uint64"
            }
          ],
          "internalType": "struct IAttestationClient.ReferencedPaymentNonexistence",
          "name": "_proof",
          "type": "tuple"
        },
        {
          "internalType": "uint256",
          "name": "_redemptionRequestId",
          "type": "uint256"
        }
      ],
      "name": "redemptionPaymentDefault",
      "outputs": [],
      "stateMutability": "nonpayable",
      "type": "function"
    },
    {
      "inputs": [
        {
          "internalType": "address",
          "name": "_agentVault",
          "type": "address"
        },
        {
          "internalType": "uint256",
          "name": "_lots",
          "type": "uint256"
        },
        {
          "internalType": "uint256",
          "name": "_maxMintingFeeBIPS",
          "type": "uint256"
        }
      ],
      "name": "reserveCollateral",
      "outputs": [],
      "stateMutability": "payable",
      "type": "function"
    },
    {
      "inputs": [
        {
          "internalType": "address",
          "name": "_agentVault",
          "type": "address"
        },
        {
          "internalType": "uint256",
          "name": "_amountUBA",
          "type": "uint256"
        }
      ],
      "name": "selfClose",
      "outputs": [],
      "stateMutability": "nonpayable",
      "type": "function"
    },
    {
      "inputs": [
        {
          "components": [
            {
              "internalType": "uint256",
              "name": "stateConnectorRound",
              "type": "uint256"
            },
            {
              "internalType": "bytes32[]",
              "name": "merkleProof",
              "type": "bytes32[]"
            },
            {
              "internalType": "uint64",
              "name": "blockNumber",
              "type": "uint64"
            },
            {
              "internalType": "uint64",
              "name": "blockTimestamp",
              "type": "uint64"
            },
            {
              "internalType": "bytes32",
              "name": "transactionHash",
              "type": "bytes32"
            },
            {
              "internalType": "uint8",
              "name": "inUtxo",
              "type": "uint8"
            },
            {
              "internalType": "uint8",
              "name": "utxo",
              "type": "uint8"
            },
            {
              "internalType": "bytes32",
              "name": "sourceAddressHash",
              "type": "bytes32"
            },
            {
              "internalType": "bytes32",
              "name": "receivingAddressHash",
              "type": "bytes32"
            },
            {
              "internalType": "int256",
              "name": "spentAmount",
              "type": "int256"
            },
            {
              "internalType": "int256",
              "name": "receivedAmount",
              "type": "int256"
            },
            {
              "internalType": "bytes32",
              "name": "paymentReference",
              "type": "bytes32"
            },
            {
              "internalType": "bool",
              "name": "oneToOne",
              "type": "bool"
            },
            {
              "internalType": "uint8",
              "name": "status",
              "type": "uint8"
            }
          ],
          "internalType": "struct IAttestationClient.Payment",
          "name": "_payment",
          "type": "tuple"
        },
        {
          "internalType": "address",
          "name": "_agentVault",
          "type": "address"
        },
        {
          "internalType": "uint256",
          "name": "_lots",
          "type": "uint256"
        }
      ],
      "name": "selfMint",
      "outputs": [],
      "stateMutability": "nonpayable",
      "type": "function"
    },
    {
      "inputs": [
        {
          "internalType": "enum CollateralType.Class",
          "name": "_collateralClass",
          "type": "uint8"
        },
        {
          "internalType": "contract IERC20",
          "name": "_token",
          "type": "address"
        },
        {
          "internalType": "uint256",
          "name": "_minCollateralRatioBIPS",
          "type": "uint256"
        },
        {
          "internalType": "uint256",
          "name": "_ccbMinCollateralRatioBIPS",
          "type": "uint256"
        },
        {
          "internalType": "uint256",
          "name": "_safetyMinCollateralRatioBIPS",
          "type": "uint256"
        }
      ],
      "name": "setCollateralRatiosForToken",
      "outputs": [],
      "stateMutability": "nonpayable",
      "type": "function"
    },
    {
      "inputs": [
        {
          "internalType": "address",
          "name": "_ownerHotAddress",
          "type": "address"
        }
      ],
      "name": "setOwnerHotAddress",
      "outputs": [],
      "stateMutability": "nonpayable",
      "type": "function"
    },
    {
      "inputs": [
        {
          "components": [
            {
              "internalType": "enum CollateralType.Class",
              "name": "collateralClass",
              "type": "uint8"
            },
            {
              "internalType": "contract IERC20",
              "name": "token",
              "type": "address"
            },
            {
              "internalType": "uint256",
              "name": "decimals",
              "type": "uint256"
            },
            {
              "internalType": "uint256",
              "name": "validUntil",
              "type": "uint256"
            },
            {
              "internalType": "bool",
              "name": "directPricePair",
              "type": "bool"
            },
            {
              "internalType": "string",
              "name": "assetFtsoSymbol",
              "type": "string"
            },
            {
              "internalType": "string",
              "name": "tokenFtsoSymbol",
              "type": "string"
            },
            {
              "internalType": "uint256",
              "name": "minCollateralRatioBIPS",
              "type": "uint256"
            },
            {
              "internalType": "uint256",
              "name": "ccbMinCollateralRatioBIPS",
              "type": "uint256"
            },
            {
              "internalType": "uint256",
              "name": "safetyMinCollateralRatioBIPS",
              "type": "uint256"
            }
          ],
          "internalType": "struct CollateralType.Data",
          "name": "_data",
          "type": "tuple"
        }
      ],
      "name": "setPoolWNatCollateralType",
      "outputs": [],
      "stateMutability": "nonpayable",
      "type": "function"
    },
    {
      "inputs": [
        {
          "internalType": "address",
          "name": "_agentVault",
          "type": "address"
        }
      ],
      "name": "startLiquidation",
      "outputs": [],
      "stateMutability": "nonpayable",
      "type": "function"
    },
    {
      "inputs": [
        {
          "internalType": "bytes4",
          "name": "_interfaceId",
          "type": "bytes4"
        }
      ],
      "name": "supportsInterface",
      "outputs": [
        {
          "internalType": "bool",
          "name": "",
          "type": "bool"
        }
      ],
      "stateMutability": "pure",
      "type": "function"
    },
    {
      "inputs": [],
      "name": "terminate",
      "outputs": [],
      "stateMutability": "nonpayable",
      "type": "function"
    },
    {
      "inputs": [],
      "name": "terminated",
      "outputs": [
        {
          "internalType": "bool",
          "name": "",
          "type": "bool"
        }
      ],
      "stateMutability": "view",
      "type": "function"
    },
    {
      "inputs": [],
      "name": "unpause",
      "outputs": [],
      "stateMutability": "nonpayable",
      "type": "function"
    },
    {
      "inputs": [
        {
          "components": [
            {
              "internalType": "uint256",
              "name": "stateConnectorRound",
              "type": "uint256"
            },
            {
              "internalType": "bytes32[]",
              "name": "merkleProof",
              "type": "bytes32[]"
            },
            {
              "internalType": "uint64",
              "name": "blockNumber",
              "type": "uint64"
            },
            {
              "internalType": "uint64",
              "name": "blockTimestamp",
              "type": "uint64"
            },
            {
              "internalType": "uint8",
              "name": "numberOfConfirmations",
              "type": "uint8"
            },
            {
              "internalType": "uint64",
              "name": "averageBlockProductionTimeMs",
              "type": "uint64"
            },
            {
              "internalType": "uint64",
              "name": "lowestQueryWindowBlockNumber",
              "type": "uint64"
            },
            {
              "internalType": "uint64",
              "name": "lowestQueryWindowBlockTimestamp",
              "type": "uint64"
            }
          ],
          "internalType": "struct IAttestationClient.ConfirmedBlockHeightExists",
          "name": "_proof",
          "type": "tuple"
        },
        {
          "internalType": "uint256",
          "name": "_collateralReservationId",
          "type": "uint256"
        }
      ],
      "name": "unstickMinting",
      "outputs": [],
      "stateMutability": "payable",
      "type": "function"
    },
    {
      "inputs": [
        {
          "components": [
            {
              "internalType": "uint256",
              "name": "stateConnectorRound",
              "type": "uint256"
            },
            {
              "internalType": "bytes32[]",
              "name": "merkleProof",
              "type": "bytes32[]"
            },
            {
              "internalType": "uint64",
              "name": "blockNumber",
              "type": "uint64"
            },
            {
              "internalType": "uint64",
              "name": "blockTimestamp",
              "type": "uint64"
            },
            {
              "internalType": "uint8",
              "name": "numberOfConfirmations",
              "type": "uint8"
            },
            {
              "internalType": "uint64",
              "name": "averageBlockProductionTimeMs",
              "type": "uint64"
            },
            {
              "internalType": "uint64",
              "name": "lowestQueryWindowBlockNumber",
              "type": "uint64"
            },
            {
              "internalType": "uint64",
              "name": "lowestQueryWindowBlockTimestamp",
              "type": "uint64"
            }
          ],
          "internalType": "struct IAttestationClient.ConfirmedBlockHeightExists",
          "name": "_proof",
          "type": "tuple"
        }
      ],
      "name": "updateCurrentBlock",
      "outputs": [],
      "stateMutability": "nonpayable",
      "type": "function"
    },
    {
      "inputs": [
        {
          "internalType": "bytes32",
          "name": "_method",
          "type": "bytes32"
        },
        {
          "internalType": "bytes",
          "name": "_params",
          "type": "bytes"
        }
      ],
      "name": "updateSettings",
      "outputs": [],
      "stateMutability": "nonpayable",
      "type": "function"
    },
    {
      "inputs": [
        {
          "internalType": "address",
          "name": "_agentVault",
          "type": "address"
        }
      ],
      "name": "upgradeWNatContract",
      "outputs": [],
      "stateMutability": "nonpayable",
      "type": "function"
    },
    {
      "inputs": [
        {
          "internalType": "contract IERC20",
          "name": "_token",
          "type": "address"
        },
        {
          "internalType": "uint256",
          "name": "_valueNATWei",
          "type": "uint256"
        }
      ],
      "name": "withdrawCollateral",
      "outputs": [],
      "stateMutability": "nonpayable",
      "type": "function"
    }
  ],
  "bytecode": "0x60806040523480156200001157600080fd5b506040516200671b3803806200671b8339810160408190526200003491620005b2565b600160005560405163658f4c6160e01b815273__$498fae630e5f9e2b0d2f5a14b70bbf8a29$__9063658f4c619062000072908690600401620009a4565b60006040518083038186803b1580156200008b57600080fd5b505af4158015620000a0573d6000803e3d6000fd5b505060405163cbcf339b60e01b815273__$b5cdffcf5b8f8ae6fa06e08eee0b808a00$__925063cbcf339b9150620000dd90859060040162000cf0565b60006040518083038186803b158015620000f657600080fd5b505af41580156200010b573d6000803e3d6000fd5b5050505062000120816200012960201b60201c565b50505062000e21565b7fec7e8c1c441439dd40959777f4c577ea0cd42fcc1dbe59d2bd0f5d9c55df8dbe546040516001600160a01b0390911690600090829063439fab91906200017590869060240162000de7565b604051602081830303815290604052915060e01b6020820180516001600160e01b0383818316178352505050509050620001b68282620001bc60201b60201c565b50505050565b6060600080846001600160a01b031684604051620001db919062000e03565b600060405180830381855af49150503d806000811462000218576040519150601f19603f3d011682016040523d82523d6000602084013e6200021d565b606091505b5091509150811562000233579150620002469050565b3d604051818101604052816000823e8181fd5b92915050565b634e487b7160e01b600052604160045260246000fd5b60405161014081016001600160401b03811182821017156200028857620002886200024c565b60405290565b60405161058081016001600160401b03811182821017156200028857620002886200024c565b604051601f8201601f191681016001600160401b0381118282101715620002df57620002df6200024c565b604052919050565b80516001600160a01b0381168114620002ff57600080fd5b919050565b805160ff81168114620002ff57600080fd5b805163ffffffff81168114620002ff57600080fd5b805161ffff81168114620002ff57600080fd5b80516001600160401b0381168114620002ff57600080fd5b80518015158114620002ff57600080fd5b80516001600160801b0381168114620002ff57600080fd5b805160038110620002ff57600080fd5b60005b83811015620003ac57818101518382015260200162000392565b50506000910152565b600082601f830112620003c757600080fd5b81516001600160401b03811115620003e357620003e36200024c565b620003f8601f8201601f1916602001620002b4565b8181528460208386010111156200040e57600080fd5b620004218260208301602087016200038f565b949350505050565b600082601f8301126200043b57600080fd5b815160206001600160401b03808311156200045a576200045a6200024c565b8260051b6200046b838201620002b4565b93845285810183019383810190888611156200048657600080fd5b84880192505b85831015620005a657825184811115620004a65760008081fd5b8801610140818b03601f1901811315620004c05760008081fd5b620004ca62000262565b620004d78884016200037f565b81526040620004e8818501620002e7565b89830152606080850151828401526080915081850151818401525060a06200051281860162000356565b8284015260c0915081850151898111156200052d5760008081fd5b6200053d8f8c83890101620003b5565b82850152505060e08085015189811115620005585760008081fd5b620005688f8c83890101620003b5565b83850152506101009150818501518184015250610120808501518284015283850151818401525050808552505050848201915084830192506200048c565b98975050505050505050565b60008060008385036105c0811215620005ca57600080fd5b61058080821215620005db57600080fd5b620005e56200028e565b9150620005f286620002e7565b82526200060260208701620002e7565b60208301526200061560408701620002e7565b60408301526200062860608701620002e7565b60608301526200063b60808701620002e7565b60808301526200064e60a08701620002e7565b60a08301526200066160c08701620002e7565b60c08301526200067460e08701620002e7565b60e083015261010062000689818801620002e7565b908301526101206200069d878201620002e7565b90830152610140620006b187820162000304565b90830152610160620006c587820162000304565b90830152610180620006d987820162000316565b908301526101a0620006ed878201620002e7565b908301526101c06200070187820162000316565b908301526101e0620007158782016200032b565b90830152610200620007298782016200033e565b908301526102206200073d8782016200033e565b90830152610240620007518782016200033e565b90830152610260620007658782016200032b565b90830152610280620007798782016200033e565b908301526102a06200078d8782016200033e565b908301526102c0620007a187820162000356565b908301526102e0620007b58782016200033e565b90830152610300620007c98782016200033e565b90830152610320620007dd8782016200032b565b90830152610340620007f187820162000316565b908301526103606200080587820162000316565b90830152610380620008198782016200033e565b908301526103a06200082d87820162000367565b908301526103c0620008418782016200032b565b908301526103e0620008558782016200032b565b908301526104006200086987820162000367565b908301526104206200087d8782016200033e565b90830152610440620008918782016200033e565b90830152610460620008a58782016200033e565b90830152610480620008b98782016200033e565b908301526104a0620008cd8782016200033e565b908301526104c0620008e18782016200033e565b908301526104e0620008f58782016200033e565b908301526105006200090987820162000316565b908301526105206200091d8782016200033e565b90830152610540620009318782016200033e565b90830152610560620009458782016200033e565b908301528501519093506001600160401b03808211156200096557600080fd5b620009738783880162000429565b93506105a08601519150808211156200098b57600080fd5b506200099a86828701620003b5565b9150509250925092565b81516001600160a01b0316815261058081016020830151620009d160208401826001600160a01b03169052565b506040830151620009ed60408401826001600160a01b03169052565b50606083015162000a0960608401826001600160a01b03169052565b50608083015162000a2560808401826001600160a01b03169052565b5060a083015162000a4160a08401826001600160a01b03169052565b5060c083015162000a5d60c08401826001600160a01b03169052565b5060e083015162000a7960e08401826001600160a01b03169052565b50610100838101516001600160a01b0390811691840191909152610120808501518216908401526101408085015160ff9081169185019190915261016080860151909116908401526101808085015163ffffffff908116918501919091526101a080860151909216918401919091526101c0808501518216908401526101e08085015161ffff90811691850191909152610200808601516001600160401b0390811691860191909152610220808701518216908601526102408087015182169086015261026080870151831690860152610280808701518216908601526102a0808701518216908601526102c0808701511515908601526102e08087015182169086015261030080870151821690860152610320808701518316908601526103408087015184169086015261036080870151841690860152610380808701518216908601526103a0808701516001600160801b03908116918701919091526103c0808801518416908701526103e080880151909316928601929092526104008087015190921691850191909152610420808601518216908501526104408086015182169085015261046080860151821690850152610480808601518216908501526104a0808601518216908501526104c0808601518216908501526104e080860151821690850152610500808601519092169184019190915261052080850151821690840152610540808501518216908401526105609384015116929091019190915290565b6003811062000cbe57634e487b7160e01b600052602160045260246000fd5b9052565b6000815180845262000cdc8160208601602086016200038f565b601f01601f19169290920160200192915050565b60006020808301818452808551808352604092508286019150828160051b87010184880160005b8381101562000dd957603f19898403018552815161014062000d3b85835162000c9f565b888201516001600160a01b0316858a015287820151888601526060808301519086015260808083015115159086015260a08083015181870183905262000d848388018262000cc2565b9250505060c0808301518683038288015262000da1838262000cc2565b60e085810151908901526101008086015190890152610120948501519490970193909352505050938601939086019060010162000d17565b509098975050505050505050565b60208152600062000dfc602083018462000cc2565b9392505050565b6000825162000e178184602087016200038f565b9190910192915050565b6158ea8062000e316000396000f3fe6080604052600436106104315760003560e01c80638003314d11610229578063bd6035351161012e578063ec96c1c9116100b6578063f060b3f11161007a578063f060b3f114611146578063f0c0b72514611166578063f19d3c0614611191578063f4d000b2146111b1578063f54ff230146111d157600080fd5b8063ec96c1c9146110a4578063ed000b30146110c6578063ed3762aa146110e6578063ee80a23014611106578063eebbcd551461112657600080fd5b8063dda49213116100fd578063dda4921314611011578063e1c5010014611024578063e415339c14611044578063e7732f9114611064578063eb5abafc1461108457600080fd5b8063bd60353514610f9e578063bfead88714610fb1578063c0674b4614610fd1578063d6b93a9f14610ff157600080fd5b8063a07ea7af116101b1578063b68af97e11610180578063b68af97e14610ef0578063b7f658ab14610f03578063b928b53314610f23578063ba657a3614610f43578063bcbaf48714610f6357600080fd5b8063a07ea7af14610e6d578063b046cd1714610e8d578063b19aec1714610ead578063b5a488a614610edb57600080fd5b806385b4bb53116101f857806385b4bb53146109eb5780638ad2a95014610ded5780638bf1132614610e0d5780639584da2a14610e2d5780639eae95bf14610e4d57600080fd5b80638003314d1461096657806382dede261461099457806383c57d14146109b65780638456cb59146109d657600080fd5b8063368a35931161033a5780635c975abb116102c25780636e61164f116102865780636e61164f146108b1578063700104f7146108f1578063753923f014610911578063778aadd5146109315780637c7db1a51461095157600080fd5b80635c975abb146108045780635cdf04b3146108315780635e71055c14610851578063612007e51461087157806365454f941461089157600080fd5b80634942f65f116103095780634942f65f1461074b57806351c452bf146107605780635252f3a21461078057806353777730146107b857806353ed178e146107e457600080fd5b8063368a3593146106c95780633851b614146106e95780633f4ba83a146107095780634610bc231461071e57600080fd5b8063194307bf116103bd57806324b76fd51161038c57806324b76fd514610629578063268b2ec1146106495780632a4c48a8146106695780632dabf2d014610689578063350c35e9146106a957600080fd5b8063194307bf146105a65780631e8bee01146105bb5780631f819490146105e9578063249f1b591461060957600080fd5b80630877acff116104045780630877acff146104d75780630c08bf88146105245780630ffb0e861461053957806313199ee014610559578063152052b01461057957600080fd5b806301ffc9a71461043657806302312aec1461046b578063025dfeb21461049557806304203930146104b7575b600080fd5b34801561044257600080fd5b50610456610451366004613579565b6111f1565b60405190151581526020015b60405180910390f35b34801561047757600080fd5b50610480611243565b60408051928352602083019190915201610462565b3480156104a157600080fd5b506104b56104b03660046135b6565b61129a565b005b3480156104c357600080fd5b506104b56104d2366004613607565b61130e565b3480156104e357600080fd5b507fec7e8c1c441439dd40959777f4c577ea0cd42fcc1dbe59d2bd0f5d9c55df8dd9546001600160401b03620100008204811691600160501b900416610480565b34801561053057600080fd5b506104b561134e565b34801561054557600080fd5b506104b5610554366004613755565b61144e565b34801561056557600080fd5b506104b56105743660046137d5565b6114d0565b34801561058557600080fd5b50610599610594366004613607565b611548565b6040516104629190613890565b3480156105b257600080fd5b50610456611702565b3480156105c757600080fd5b506105db6105d6366004613607565b611772565b604051908152602001610462565b3480156105f557600080fd5b506104b5610604366004613ad2565b6117f2565b34801561061557600080fd5b506104b5610624366004613b16565b611867565b34801561063557600080fd5b506104b5610644366004613b67565b6118e5565b34801561065557600080fd5b506104b5610664366004613bad565b611930565b34801561067557600080fd5b506104b5610684366004613c0a565b611971565b34801561069557600080fd5b506104b56106a4366004613c3e565b6119a8565b3480156106b557600080fd5b506104b56106c4366004613c3e565b6119e4565b3480156106d557600080fd5b506105db6106e4366004613c5c565b611a31565b3480156106f557600080fd5b506104b5610704366004613607565b611a82565b34801561071557600080fd5b506104b5611ac2565b34801561072a57600080fd5b5061073e610739366004613c75565b611b37565b6040516104629190613d77565b34801561075757600080fd5b506105db611c1e565b34801561076c57600080fd5b506104b561077b366004613d8a565b611c85565b34801561078c57600080fd5b506107a061079b366004613607565b611ccd565b6040516001600160a01b039091168152602001610462565b3480156107c457600080fd5b5060008051602061589583398151915254600160401b900460ff16610456565b3480156107f057600080fd5b506104b56107ff366004613da8565b611ce8565b34801561081057600080fd5b50600080516020615895833981519152546001600160401b03161515610456565b34801561083d57600080fd5b506104b561084c366004613df0565b611d29565b34801561085d57600080fd5b506104b561086c366004613607565b611d6a565b34801561087d57600080fd5b506104b561088c366004613607565b611daa565b34801561089d57600080fd5b506104b56108ac366004613607565b611dea565b3480156108bd57600080fd5b506108d16108cc366004613607565b611e2a565b604080516001600160a01b03938416815292909116602083015201610462565b3480156108fd57600080fd5b5061045661090c366004613d8a565b611eb3565b34801561091d57600080fd5b506104b561092c366004613bad565b611f3a565b34801561093d57600080fd5b506104b561094c366004613d8a565b611f5e565b34801561095d57600080fd5b506107a0611fa6565b34801561097257600080fd5b50610986610981366004613e36565b611fb0565b604051610462929190613e58565b3480156109a057600080fd5b506109a9612041565b6040516104629190613ed6565b3480156109c257600080fd5b506104b56109d1366004613f38565b6120b4565b3480156109e257600080fd5b506104b56120f7565b3480156109f757600080fd5b50610de06040805161058081018252600080825260208201819052918101829052606081018290526080810182905260a0810182905260c0810182905260e08101829052610100810182905261012081018290526101408101829052610160810182905261018081018290526101a081018290526101c081018290526101e08101829052610200810182905261022081018290526102408101829052610260810182905261028081018290526102a081018290526102c081018290526102e08101829052610300810182905261032081018290526103408101829052610360810182905261038081018290526103a081018290526103c081018290526103e08101829052610400810182905261042081018290526104408101829052610460810182905261048081018290526104a081018290526104c081018290526104e08101829052610500810182905261052081018290526105408101829052610560810191909152600080516020615875833981519152604080516105808101825282546001600160a01b03908116825260018401548116602083015260028401548116928201929092526003830154821660608201526004830154821660808201526005830154821660a08201526006830154821660c08201526007830154821660e082015260088301548216610100820152600983015480831661012083015260ff600160a01b8083048216610140850152600160a81b8304821661016085015263ffffffff600160b01b9093048316610180850152600a8601549485166101a085015280850483166101c085015261ffff600160c01b9586900481166101e0860152600b8701546001600160401b03808216610200880152600160401b8083048216610220890152600160801b80840483166102408a0152928990048416610260890152600c8a01548083166102808a015281810483166102a08a015283810490961615156102c0890152600160881b90950481166102e0880152600d8901548082166103008901528581048416610320890152600160501b81048716610340890152600160701b81048716610360890152600160901b908190048216610380890152600e8a01546001600160801b038082166103a08b015284820486166103c08b01529190049093166103e0880152600f89015492831661040088015281830481166104208801529187900482166104408701526010880154808316610460880152848104831661048088015290810482166104a08701529590950485166104c085015260118601548086166104e0860152918204909216610500840152600160601b8104841661052084015204821661054082015260129092015416610560820152919050565b6040516104629190613fbd565b348015610df957600080fd5b506104b5610e083660046142b6565b61215f565b348015610e1957600080fd5b506104b5610e283660046142ea565b612196565b348015610e3957600080fd5b506104b5610e48366004613c3e565b612228565b348015610e5957600080fd5b506104b5610e683660046135b6565b61226f565b348015610e7957600080fd5b506104b5610e88366004613607565b6122ae565b348015610e9957600080fd5b506104b5610ea8366004614332565b6122ee565b348015610eb957600080fd5b50610ecd610ec8366004613e36565b612327565b604051610462929190614367565b348015610ee757600080fd5b506107a06123ad565b6104b5610efe366004613607565b6123b7565b348015610f0f57600080fd5b506104b5610f1e366004613607565b612481565b348015610f2f57600080fd5b506104b5610f3e3660046143d1565b6124c1565b348015610f4f57600080fd5b506104b5610f5e366004613607565b6124f9565b348015610f6f57600080fd5b50610f83610f7e366004613c3e565b612539565b60408051938452602084019290925290820152606001610462565b6104b5610fac3660046143ee565b6125d7565b348015610fbd57600080fd5b506104b5610fcc366004613ad2565b612660565b348015610fdd57600080fd5b506104b5610fec366004613607565b6126e7565b348015610ffd57600080fd5b5061045661100c366004613d8a565b612727565b6104b561101f366004613da8565b61273b565b34801561103057600080fd5b506104b561103f366004613607565b612784565b34801561105057600080fd5b50610ecd61105f366004613e36565b6127cb565b34801561107057600080fd5b506104b561107f366004614423565b612810565b34801561109057600080fd5b506104b561109f36600461445c565b612849565b3480156110b057600080fd5b506110b961288c565b60405161046291906144c8565b3480156110d257600080fd5b506104b56110e13660046144db565b612896565b3480156110f257600080fd5b506105db611101366004613607565b6128e5565b34801561111257600080fd5b506104b5611121366004614332565b612928565b34801561113257600080fd5b506104b56111413660046135b6565b612961565b34801561115257600080fd5b506104b56111613660046144fb565b6129a0565b34801561117257600080fd5b50600080516020615875833981519152546001600160a01b03166107a0565b34801561119d57600080fd5b506104b56111ac366004614566565b612a13565b3480156111bd57600080fd5b506104b56111cc366004613607565b612a56565b3480156111dd57600080fd5b506104b56111ec366004613c3e565b612a96565b60006001600160e01b031982166301ffc9a760e01b148061122257506001600160e01b03198216636ec4b57b60e11b145b8061123d57506001600160e01b0319821663230a479360e01b145b92915050565b600080600080516020615875833981519152611265611260612ad2565b612b54565b600b820154909350600160401b90046001600160401b03166112896009600a6146db565b61129391906146e7565b9150509091565b6112a2612b6a565b604051635cb1433f60e01b815273__$8ed6b3b04009dff171844b9d72c92eddd0$__90635cb1433f906112db903090859060040161476c565b60006040518083038186803b1580156112f357600080fd5b505af4158015611307573d6000803e3d6000fd5b5050505050565b60405163b42652e960e01b81526001600160a01b038216600482015273__$4054b81dd018f00b16b0262e280b71bd3d$__9063b42652e9906024016112db565b611356612bc1565b60008051602061589583398151915254600080516020615875833981519152906001600160401b0316158015906113a7575060248101546113a49062278d00906001600160401b0316614824565b42115b6113f85760405162461bcd60e51b815260206004820152601f60248201527f6173736574206d616e61676572206e6f742070617573656420656e6f7567680060448201526064015b60405180910390fd5b611400612c28565b6001600160a01b0316630c08bf886040518163ffffffff1660e01b8152600401600060405180830381600087803b15801561143a57600080fd5b505af1158015611307573d6000803e3d6000fd5b60405163ccfb491360e01b815273__$df85e949fff37977e0d300eb10fcbb4998$__9063ccfb49139061148990869086908690600401614837565b602060405180830381865af41580156114a6573d6000803e3d6000fd5b505050506040513d601f19601f820116820180604052508101906114ca919061486b565b50505050565b6114d8612bc1565b60405163031836db60e41b815273__$b5cdffcf5b8f8ae6fa06e08eee0b808a00$__906331836db09061151390869086908690600401614884565b60006040518083038186803b15801561152b57600080fd5b505af415801561153f573d6000803e3d6000fd5b50505050505050565b611682604080516104a08101909152806000815260200160006001600160a01b0316815260200160006001600160a01b0316815260200160006001600160a01b0316815260200160608152602001600015158152602001600081526020016000815260200160006001600160a01b03168152602001600081526020016000815260200160008152602001600081526020016000815260200160008152602001600081526020016000815260200160008152602001600081526020016000815260200160008152602001600081526020016000815260200160008152602001600081526020016000815260200160008152602001600081526020016000815260200160008152602001600081526020016000815260200160008152602001600081526020016000815260200160008152602001600081525090565b604051630152052b60e41b81526001600160a01b038316600482015273__$ec55c6bae1638b00bbedb6b751f1f84e77$__9063152052b090602401600060405180830381865af41580156116da573d6000803e3d6000fd5b505050506040513d6000823e601f3d908101601f1916820160405261123d9190810190614923565b600061170c612c28565b6001600160a01b031663194307bf6040518163ffffffff1660e01b8152600401602060405180830381865afa158015611749573d6000803e3d6000fd5b505050506040513d601f19601f8201168201806040525081019061176d9190614b45565b905090565b604051631e8bee0160e01b81526001600160a01b038216600482015260009073__$4ff30c53c077284d3b777228e6ae31216c$__90631e8bee01906024015b602060405180830381865af41580156117ce573d6000803e3d6000fd5b505050506040513d601f19601f8201168201806040525081019061123d919061486b565b73__$305ac64b111b0d775ac583a3c3f22849b9$__634e1b6cd68361181684612c56565b6040518363ffffffff1660e01b8152600401611833929190614cff565b60006040518083038186803b15801561184b57600080fd5b505af415801561185f573d6000803e3d6000fd5b505050505050565b61186f612bc1565b60405163314768f160e11b815273__$b5cdffcf5b8f8ae6fa06e08eee0b808a00$__9063628ed1e2906118ae9088908890889088908890600401614d2a565b60006040518083038186803b1580156118c657600080fd5b505af41580156118da573d6000803e3d6000fd5b505050505050505050565b6118ed612cc2565b73__$4ff30c53c077284d3b777228e6ae31216c$__6326e68cd43361191185612c56565b846040518463ffffffff1660e01b815260040161183393929190614d61565b73__$2121826b9482dc4a95d5f1c5bc0ffbdf06$__63c20025058361195484612c56565b6040518363ffffffff1660e01b8152600401611833929190614dab565b60405163e70e767f60e01b815273__$722590fcf677171437eb48cf082465d6d7$__9063e70e767f906112db908490600401614fbd565b60405163a43ba5ab60e01b815273__$c7446ca28182994c6c0135601399c1b584$__9063a43ba5ab906118339060029086908690600401614884565b604051631f463e2360e21b81526001600160a01b03831660048201523360248201526044810182905273__$c7446ca28182994c6c0135601399c1b584$__90637d18f88c90606401611833565b600073__$f7c9c0d01068167c22df35ff5943b62148$__630c7dcd15611a5684612c56565b6040516001600160e01b031960e084901b1681526001600160401b0390911660048201526024016117b1565b60405163fdf6b37560e01b81526001600160a01b038216600482015273__$4054b81dd018f00b16b0262e280b71bd3d$__9063fdf6b375906024016112db565b611aca612bc1565b600080516020615875833981519152611ae1611702565b15611b235760405162461bcd60e51b8152602060048201526012602482015271198b585cdcd95d081d195c9b5a5b985d195960721b60448201526064016113ef565b602401805467ffffffffffffffff19169055565b611b99604080516101408101909152806000815260200160006001600160a01b03168152602001600081526020016000815260200160001515815260200160608152602001606081526020016000815260200160008152602001600081525090565b604051631107361560e01b815273__$b5cdffcf5b8f8ae6fa06e08eee0b808a00$__90631107361590611bd29086908690600401614fd0565b600060405180830381865af4158015611bef573d6000803e3d6000fd5b505050506040513d6000823e601f3d908101601f19168201604052611c1791908101906150d8565b9392505050565b7fec7e8c1c441439dd40959777f4c577ea0cd42fcc1dbe59d2bd0f5d9c55df8dc15460009060008051602061587583398151915290611c76906001600160401b03600160401b8204811691600160801b90041661510c565b6001600160401b031691505090565b60405163c61ce7dd60e01b81526001600160a01b0380841660048301528216602482015273__$c7446ca28182994c6c0135601399c1b584$__9063c61ce7dd90604401611833565b6000611cd882612daf565b546001600160a01b031692915050565b73__$2121826b9482dc4a95d5f1c5bc0ffbdf06$__630fec40b683611d0c84612c56565b6040518363ffffffff1660e01b815260040161183392919061512f565b611d31612cc2565b60405163ed99865b60e01b815273__$d15fd82c1987b4adc4c1dba5cf0be762b0$__9063ed99865b9061183390859085906004016151e8565b60405163e4c5e4e960e01b81526001600160a01b038216600482015273__$8ed6b3b04009dff171844b9d72c92eddd0$__9063e4c5e4e9906024016112db565b604051630877cd8160e41b81526001600160a01b038216600482015273__$4054b81dd018f00b16b0262e280b71bd3d$__9063877cd810906024016112db565b60405163195153e560e21b81526001600160a01b038216600482015273__$c7446ca28182994c6c0135601399c1b584$__906365454f94906024016112db565b604051636e61164f60e01b81526001600160a01b0382166004820152600090819073__$c7446ca28182994c6c0135601399c1b584$__90636e61164f906024016040805180830381865af4158015611e86573d6000803e3d6000fd5b505050506040513d601f19601f82011682018060405250810190611eaa9190615212565b91509150915091565b604051636a79d06960e11b81526001600160a01b0380841660048301528216602482015260009073__$c7446ca28182994c6c0135601399c1b584$__9063d4f3a0d290604401602060405180830381865af4158015611f16573d6000803e3d6000fd5b505050506040513d601f19601f82011682018060405250810190611c179190614b45565b73__$f7c9c0d01068167c22df35ff5943b62148$__6355c4ef8f8361195484612c56565b60405163778aadd560e01b81526001600160a01b0380841660048301528216602482015273__$8ed6b3b04009dff171844b9d72c92eddd0$__9063778aadd590604401611833565b600061176d612c28565b60405163825378af60e01b8152600481018390526024810182905260609060009073__$4054b81dd018f00b16b0262e280b71bd3d$__9063825378af90604401600060405180830381865af415801561200d573d6000803e3d6000fd5b505050506040513d6000823e601f3d908101601f191682016040526120359190810190615264565b915091505b9250929050565b606073__$b5cdffcf5b8f8ae6fa06e08eee0b808a00$__63d80516a56040518163ffffffff1660e01b8152600401600060405180830381865af415801561208c573d6000803e3d6000fd5b505050506040513d6000823e601f3d908101601f1916820160405261176d9190810190615346565b6120bc612cc2565b6040516366a1b64560e11b815273__$d15fd82c1987b4adc4c1dba5cf0be762b0$__9063cd436c8a90611513908690869086906004016153f6565b6120ff612bc1565b60008051602061589583398151915254600080516020615875833981519152906001600160401b031660000361215c5761213842612c56565b60248201805467ffffffffffffffff19166001600160401b03929092169190911790555b50565b604051632560e1bd60e01b815273__$8ed6b3b04009dff171844b9d72c92eddd0$__90632560e1bd906112db90849060040161547d565b61219e612b6a565b6121a6612e56565b73__$db99a4b0b1a8936beb7122d8143ea3b698$__634c14115784846121cb85612c56565b6040518463ffffffff1660e01b81526004016121e993929190615490565b60006040518083038186803b15801561220157600080fd5b505af4158015612215573d6000803e3d6000fd5b505050506122236001600055565b505050565b604051634ac26d1560e11b81526001600160a01b03831660048201526024810182905273__$4ff30c53c077284d3b777228e6ae31216c$__90639584da2a90604401611833565b612277612bc1565b604051631d9578dd60e31b815273__$b5cdffcf5b8f8ae6fa06e08eee0b808a00$__9063ecabc6e8906112db9084906004016154cc565b60405163a07ea7af60e01b81526001600160a01b038216600482015273__$900ca2dd89aa7bd7c22612e1484fcfb277$__9063a07ea7af906024016112db565b60405163364a99d160e21b815273__$900ca2dd89aa7bd7c22612e1484fcfb277$__9063d92a67449061183390859085906004016155a7565b60405163b19aec1760e01b8152600481018390526024810182905260609060009073__$c7446ca28182994c6c0135601399c1b584$__9063b19aec17906044015b600060405180830381865af4158015612385573d6000803e3d6000fd5b505050506040513d6000823e601f3d908101601f1916820160405261203591908101906155ba565b600061176d612eaf565b6123bf612e56565b6123c7611702565b61240c5760405162461bcd60e51b8152602060048201526016602482015275198b585cdcd95d081b9bdd081d195c9b5a5b985d195960521b60448201526064016113ef565b604051635b457cbf60e11b81526001600160a01b038216600482015273__$8ed6b3b04009dff171844b9d72c92eddd0$__9063b68af97e9060240160006040518083038186803b15801561245f57600080fd5b505af4158015612473573d6000803e3d6000fd5b5050505061215c6001600055565b60405163b7f658ab60e01b81526001600160a01b038216600482015273__$55e854ab37cd1bbaf9fa5a4f99ff154ced$__9063b7f658ab906024016112db565b6124c9612bc1565b6000805160206158958339815191528054911515600160401b0268ff000000000000000019909216919091179055565b604051635d32bd1b60e11b81526001600160a01b038216600482015273__$8ed6b3b04009dff171844b9d72c92eddd0$__9063ba657a36906024016112db565b6000806000612546612cc2565b60405163bcbaf48760e01b81526001600160a01b03861660048201526024810185905273__$55e854ab37cd1bbaf9fa5a4f99ff154ced$__9063bcbaf48790604401606060405180830381865af41580156125a5573d6000803e3d6000fd5b505050506040513d601f19601f820116820180604052508101906125c9919061565b565b919790965090945092505050565b6125df612b6a565b6125e7612cc2565b73__$f7c9c0d01068167c22df35ff5943b62148$__63f2821a62338561260c86612c56565b61261586612c56565b6040516001600160e01b031960e087901b1681526001600160a01b0394851660048201529390921660248401526001600160401b039081166044840152166064820152608401611513565b612668612e56565b73__$db99a4b0b1a8936beb7122d8143ea3b698$__63aeeb13a08361268c84612c56565b6040518363ffffffff1660e01b81526004016126a9929190614cff565b60006040518083038186803b1580156126c157600080fd5b505af41580156126d5573d6000803e3d6000fd5b505050506126e36001600055565b5050565b604051636033a5a360e11b81526001600160a01b038216600482015273__$900ca2dd89aa7bd7c22612e1484fcfb277$__9063c0674b46906024016112db565b6000611c1761273584612daf565b83612f3d565b612743612e56565b73__$f7c9c0d01068167c22df35ff5943b62148$__632d984f758361276784612c56565b6040518363ffffffff1660e01b81526004016126a992919061512f565b61278c612cc2565b60405162e1c50160e81b81526001600160a01b038216600482015273__$55e854ab37cd1bbaf9fa5a4f99ff154ced$__9063e1c50100906024016112db565b6040516315302d6160e31b8152600481018390526024810182905260609060009073__$4054b81dd018f00b16b0262e280b71bd3d$__9063a9816b0890604401612368565b6040516331ec097760e01b815273__$df85e949fff37977e0d300eb10fcbb4998$__906331ec0977906118339085908590600401615689565b612851612cc2565b60405163264becd360e21b815273__$d15fd82c1987b4adc4c1dba5cf0be762b0$__9063992fb34c90611513908690869086906004016156ad565b606061176d612f97565b604051630ed000b360e41b81526001600160a01b038085166004830152831660248201526044810182905273__$4ff30c53c077284d3b777228e6ae31216c$__9063ed000b3090606401611513565b60405163769bb15560e11b81526001600160a01b038216600482015260009073__$c7446ca28182994c6c0135601399c1b584$__9063ed3762aa906024016117b1565b604051630314945d60e41b815273__$1c6dbe76071682217e38af6fe7e8685bd4$__9063314945d09061183390859085906004016155a7565b612969612bc1565b60405163839eddcd60e01b815273__$b5cdffcf5b8f8ae6fa06e08eee0b808a00$__9063839eddcd906112db9084906004016154cc565b60405163f060b3f160e01b815273__$4ff30c53c077284d3b777228e6ae31216c$__9063f060b3f1906129dd9087908790879087906004016156eb565b60006040518083038186803b1580156129f557600080fd5b505af4158015612a09573d6000803e3d6000fd5b5050505050505050565b612a1b612bc1565b6040516302fab52b60e01b815273__$498fae630e5f9e2b0d2f5a14b70bbf8a29$__906302fab52b9061151390869086908690600401615728565b604051637a68005960e11b81526001600160a01b038216600482015273__$c7446ca28182994c6c0135601399c1b584$__9063f4d000b2906024016112db565b60405163a43ba5ab60e01b815273__$c7446ca28182994c6c0135601399c1b584$__9063a43ba5ab906118339060009086908690600401614884565b7fec7e8c1c441439dd40959777f4c577ea0cd42fcc1dbe59d2bd0f5d9c55df8dd9547fec7e8c1c441439dd40959777f4c577ea0cd42fcc1dbe59d2bd0f5d9c55df8dc98054600092600080516020615875833981519152929161ffff909116908110612b4057612b40615742565b906000526020600020906004020191505090565b6000612b61826000613019565b50909392505050565b60008051602061589583398151915254600160401b900460ff16612bbf5760405162461bcd60e51b815260206004820152600c60248201526b1b9bdd08185d1d1858da195960a21b60448201526064016113ef565b565b600080516020615875833981519152546001600160a01b03163314612bbf5760405162461bcd60e51b815260206004820152601d60248201527f6f6e6c79206173736574206d616e6167657220636f6e74726f6c6c657200000060448201526064016113ef565b7fec7e8c1c441439dd40959777f4c577ea0cd42fcc1dbe59d2bd0f5d9c55df8db7546001600160a01b031690565b60006001600160401b03821115612cbe5760405162461bcd60e51b815260206004820152602660248201527f53616665436173743a2076616c756520646f65736e27742066697420696e203660448201526534206269747360d01b60648201526084016113ef565b5090565b7fec7e8c1c441439dd40959777f4c577ea0cd42fcc1dbe59d2bd0f5d9c55df8dba54600080516020615875833981519152906001600160a01b03161561215c57600481810154604051633af32abf60e01b815233928101929092526001600160a01b031690633af32abf90602401602060405180830381865afa158015612d4d573d6000803e3d6000fd5b505050506040513d601f19601f82011682018060405250810190612d719190614b45565b61215c5760405162461bcd60e51b815260206004820152600f60248201526e1b9bdd081dda1a5d195b1a5cdd1959608a1b60448201526064016113ef565b7f5bebac0595fee029d42bb673937f5f1cb81cf8641382bc17774635de9b7d796568010000000000000000600160e01b03604083901b161880600060048084015460ff1690811115612e0357612e03613816565b03612e505760405162461bcd60e51b815260206004820152601b60248201527f696e76616c6964206167656e74207661756c742061646472657373000000000060448201526064016113ef565b50919050565b600260005403612ea85760405162461bcd60e51b815260206004820152601f60248201527f5265656e7472616e637947756172643a207265656e7472616e742063616c6c0060448201526064016113ef565b6002600055565b7fec7e8c1c441439dd40959777f4c577ea0cd42fcc1dbe59d2bd0f5d9c55df8dd9547fec7e8c1c441439dd40959777f4c577ea0cd42fcc1dbe59d2bd0f5d9c55df8dc98054600092600080516020615875833981519152929161ffff909116908110612f1d57612f1d615742565b60009182526020909120600490910201546001600160a01b031692915050565b6001820154600090600080516020615875833981519152906001600160a01b03908116908416811480612f8e57506001600160a01b0380821660009081526016840160205260409020548582169116145b95945050505050565b7fec7e8c1c441439dd40959777f4c577ea0cd42fcc1dbe59d2bd0f5d9c55df8dbe546040805160048152602481019091526020810180516001600160e01b03166385b4bb5360e01b1790526060916001600160a01b0316906000612ffb83836131d8565b9050808060200190518101906130119190615758565b935050505090565b6000806000806000806130b8886001018054613034906157a0565b80601f0160208091040260200160405190810160405280929190818152602001828054613060906157a0565b80156130ad5780601f10613082576101008083540402835291602001916130ad565b820191906000526020600020905b81548152906001019060200180831161309057829003601f168201915b5050505050886131ec565b8a549295509093509150600160f01b900460ff16156130ff5787546000906130ee90600160a81b900460ff166001838786613348565b96509194508493506131d192505050565b600080600061319a8b6002018054613116906157a0565b80601f0160208091040260200160405190810160405280929190818152602001828054613142906157a0565b801561318f5780601f106131645761010080835404028352916020019161318f565b820191906000526020600020905b81548152906001019060200180831161317257829003601f168201915b50505050508b6131ec565b8d5492955090935091506000906131be90600160a81b900460ff1685848a89613348565b99509497509095506131d1945050505050565b9250925092565b60606133cf80612f8e858563ffffffff8416565b7fec7e8c1c441439dd40959777f4c577ea0cd42fcc1dbe59d2bd0f5d9c55df8dbf546040516325f69abd60e21b8152600091829182916000805160206158758339815191529183916001600160a01b0316906397da6af490613252908a906004016144c8565b602060405180830381865afa15801561326f573d6000803e3d6000fd5b505050506040513d601f19601f8201168201806040525081019061329391906157d4565b9050851561330a57806001600160a01b0316633cacb3ae6040518163ffffffff1660e01b8152600401606060405180830381865afa1580156132d9573d6000803e3d6000fd5b505050506040513d601f19601f820116820180604052508101906132fd919061565b565b94509450945050506131d1565b806001600160a01b03166365f5cd866040518163ffffffff1660e01b8152600401606060405180830381865afa1580156132d9573d6000803e3d6000fd5b6000600080516020615875833981519152816009613366878a614824565b6133709190614824565b6009830154909150600090613390908690600160a81b900460ff16614824565b9050808210156133a2576133a26157f1565b6133c26133af8284615807565b6133ba90600a6146db565b87908a613453565b9998505050505050505050565b6060600080846001600160a01b0316846040516133ec919061581a565b600060405180830381855af49150503d8060008114613427576040519150601f19603f3d011682016040523d82523d6000602084013e61342c565b606091505b5091509150811561344057915061123d9050565b3d604051818101604052816000823e8181fd5b60008082116134975760405162461bcd60e51b815260206004820152601060248201526f4469766973696f6e206279207a65726f60801b60448201526064016113ef565b836000036134a757506000611c17565b838302838582816134ba576134ba615836565b04036134d8578281816134cf576134cf615836565b04915050611c17565b5060006134e5838661584c565b905060006134f38487615860565b90506000613501858761584c565b9050600061350f8688615860565b90508561351c82856146e7565b613526919061584c565b61353083856146e7565b61353a83876146e7565b8861354586896146e7565b61354f91906146e7565b6135599190614824565b6135639190614824565b61356d9190614824565b98975050505050505050565b60006020828403121561358b57600080fd5b81356001600160e01b031981168114611c1757600080fd5b60006101408284031215612e5057600080fd5b6000602082840312156135c857600080fd5b81356001600160401b038111156135de57600080fd5b6135ea848285016135a3565b949350505050565b6001600160a01b038116811461215c57600080fd5b60006020828403121561361957600080fd5b8135611c17816135f2565b634e487b7160e01b600052604160045260246000fd5b6040516104a081016001600160401b038111828210171561365d5761365d613624565b60405290565b60405161014081016001600160401b038111828210171561365d5761365d613624565b60405160a081016001600160401b038111828210171561365d5761365d613624565b604051601f8201601f191681016001600160401b03811182821017156136d0576136d0613624565b604052919050565b60006001600160401b038211156136f1576136f1613624565b50601f01601f191660200190565b600082601f83011261371057600080fd5b813561372361371e826136d8565b6136a8565b81815284602083860101111561373857600080fd5b816020850160208301376000918101602001919091529392505050565b60008060006060848603121561376a57600080fd5b8335613775816135f2565b925060208401356001600160401b0381111561379057600080fd5b61379c868287016136ff565b925050604084013590509250925092565b6003811061215c57600080fd5b80356137c5816137ad565b919050565b80356137c5816135f2565b6000806000606084860312156137ea57600080fd5b83356137f5816137ad565b92506020840135613805816135f2565b929592945050506040919091013590565b634e487b7160e01b600052602160045260246000fd5b6005811061383c5761383c613816565b9052565b60005b8381101561385b578181015183820152602001613843565b50506000910152565b6000815180845261387c816020860160208601613840565b601f01601f19169290920160200192915050565b602081526138a260208201835161382c565b600060208301516138be60408401826001600160a01b03169052565b5060408301516001600160a01b03811660608401525060608301516001600160a01b03811660808401525060808301516104a08060a08501526139056104c0850183613864565b915060a085015161391a60c086018215159052565b5060c085015160e085015260e0850151610100818187015280870151915050610120613950818701836001600160a01b03169052565b8601516101408681019190915286015161016080870191909152860151610180808701919091528601516101a0808701919091528601516101c0808701919091528601516101e08087019190915286015161020080870191909152860151610220808701919091528601516102408087019190915286015161026080870191909152860151610280808701919091528601516102a0808701919091528601516102c0808701919091528601516102e08087019190915286015161030080870191909152860151610320808701919091528601516103408087019190915286015161036080870191909152860151610380808701919091528601516103a0808701919091528601516103c0808701919091528601516103e08087019190915286015161040080870191909152860151610420808701919091528601516104408087019190915286015161046080870191909152860151610480808701919091529095015193019290925250919050565b60006101c08284031215612e5057600080fd5b60008060408385031215613ae557600080fd5b82356001600160401b03811115613afb57600080fd5b613b0785828601613abf565b95602094909401359450505050565b600080600080600060a08688031215613b2e57600080fd5b8535613b39816137ad565b94506020860135613b49816135f2565b94979496505050506040830135926060810135926080909101359150565b60008060408385031215613b7a57600080fd5b8235915060208301356001600160401b03811115613b9757600080fd5b613ba3858286016136ff565b9150509250929050565b60008060408385031215613bc057600080fd5b82356001600160401b03811115613bd657600080fd5b83016101608186031215613be957600080fd5b946020939093013593505050565b60006101008284031215612e5057600080fd5b600060208284031215613c1c57600080fd5b81356001600160401b03811115613c3257600080fd5b6135ea84828501613bf7565b60008060408385031215613c5157600080fd5b8235613be9816135f2565b600060208284031215613c6e57600080fd5b5035919050565b60008060408385031215613c8857600080fd5b8235613c93816137ad565b91506020830135613ca3816135f2565b809150509250929050565b6003811061215c5761215c613816565b61383c81613cae565b6000610140613cd7848451613cbe565b6020830151613cf160208601826001600160a01b03169052565b5060408301516040850152606083015160608501526080830151613d19608086018215159052565b5060a08301518160a0860152613d3182860182613864565b91505060c083015184820360c0860152613d4b8282613864565b60e085810151908701526101008086015190870152610120948501519490950193909352509192915050565b602081526000611c176020830184613cc7565b60008060408385031215613d9d57600080fd5b8235613c93816135f2565b60008060408385031215613dbb57600080fd5b82356001600160401b03811115613dd157600080fd5b613b0785828601613bf7565b60006101208284031215612e5057600080fd5b60008060408385031215613e0357600080fd5b82356001600160401b03811115613e1957600080fd5b613e2585828601613ddd565b9250506020830135613ca3816135f2565b60008060408385031215613e4957600080fd5b50508035926020909101359150565b6040808252835182820181905260009190606090818501906020808901865b83811015613ec257815180516001600160a01b031686528381015184870152878101518887015286810151878701526080908101519086015260a09094019390820190600101613e77565b505095909501959095525092949350505050565b6000602080830181845280855180835260408601915060408160051b870101925083870160005b82811015613f2b57603f19888603018452613f19858351613cc7565b94509285019290850190600101613efd565b5092979650505050505050565b600080600060408486031215613f4d57600080fd5b83356001600160401b0380821115613f6457600080fd5b818601915086601f830112613f7857600080fd5b813581811115613f8757600080fd5b8760208260051b8501011115613f9c57600080fd5b60209283019550935050840135613fb2816135f2565b809150509250925092565b81516001600160a01b0316815261058081016020830151613fe960208401826001600160a01b03169052565b50604083015161400460408401826001600160a01b03169052565b50606083015161401f60608401826001600160a01b03169052565b50608083015161403a60808401826001600160a01b03169052565b5060a083015161405560a08401826001600160a01b03169052565b5060c083015161407060c08401826001600160a01b03169052565b5060e083015161408b60e08401826001600160a01b03169052565b50610100838101516001600160a01b0390811691840191909152610120808501518216908401526101408085015160ff9081169185019190915261016080860151909116908401526101808085015163ffffffff908116918501919091526101a080860151909216918401919091526101c0808501518216908401526101e08085015161ffff90811691850191909152610200808601516001600160401b0390811691860191909152610220808701518216908601526102408087015182169086015261026080870151831690860152610280808701518216908601526102a0808701518216908601526102c0808701511515908601526102e08087015182169086015261030080870151821690860152610320808701518316908601526103408087015184169086015261036080870151841690860152610380808701518216908601526103a0808701516001600160801b03908116918701919091526103c0808801518416908701526103e080880151909316928601929092526104008087015190921691850191909152610420808601518216908501526104408086015182169085015261046080860151821690850152610480808601518216908501526104a0808601518216908501526104c0808601518216908501526104e080860151821690850152610500808601519092169184019190915261052080850151821690840152610540808501518216908401526105608085015191821681850152905b505092915050565b6000602082840312156142c857600080fd5b81356001600160401b038111156142de57600080fd5b6135ea84828501613abf565b6000806000606084860312156142ff57600080fd5b83356001600160401b0381111561431557600080fd5b61432186828701613abf565b9350506020840135613805816135f2565b6000806040838503121561434557600080fd5b82356001600160401b0381111561435b57600080fd5b613e2585828601613abf565b604080825283519082018190526000906020906060840190828701845b828110156143a95781516001600160a01b031684529284019290840190600101614384565b50505092019290925292915050565b801515811461215c57600080fd5b80356137c5816143b8565b6000602082840312156143e357600080fd5b8135611c17816143b8565b60008060006060848603121561440357600080fd5b833561440e816135f2565b95602085013595506040909401359392505050565b6000806040838503121561443657600080fd5b8235614441816135f2565b915060208301356001600160401b03811115613b9757600080fd5b60008060006060848603121561447157600080fd5b83356001600160401b038082111561448857600080fd5b61449487838801613ddd565b945060208601359150808211156144aa57600080fd5b506144b786828701613ddd565b9250506040840135613fb2816135f2565b602081526000611c176020830184613864565b6000806000606084860312156144f057600080fd5b83356137f5816135f2565b6000806000806080858703121561451157600080fd5b843561451c816135f2565b9350602085013561452c816135f2565b92506040850135915060608501356001600160401b0381111561454e57600080fd5b61455a878288016136ff565b91505092959194509250565b60008060006040848603121561457b57600080fd5b8335925060208401356001600160401b038082111561459957600080fd5b818601915086601f8301126145ad57600080fd5b8135818111156145bc57600080fd5b8760208285010111156145ce57600080fd5b6020830194508093505050509250925092565b634e487b7160e01b600052601160045260246000fd5b600181815b80851115614632578160001904821115614618576146186145e1565b8085161561462557918102915b93841c93908002906145fc565b509250929050565b6000826146495750600161123d565b816146565750600061123d565b816001811461466c576002811461467657614692565b600191505061123d565b60ff841115614687576146876145e1565b50506001821b61123d565b5060208310610133831016604e8410600b84101617156146b5575081810a61123d565b6146bf83836145f7565b80600019048211156146d3576146d36145e1565b029392505050565b6000611c17838361463a565b808202811582820484141761123d5761123d6145e1565b6000808335601e1984360301811261471557600080fd5b83016020810192503590506001600160401b0381111561473457600080fd5b80360382131561203a57600080fd5b81835281816020850137506000828201602090810191909152601f909101601f19169091010190565b6001600160a01b038316815260406020820152600061478b83806146fe565b6101408060408601526147a361018086018385614743565b92506147b1602087016137ca565b6001600160a01b0381166060870152915060408601356080860152606086013560a0860152608086013560c086015260a086013560e0860152610100915060c08601358286015261012060e087013581870152828701358287015280870135610160870152505050809150509392505050565b8082018082111561123d5761123d6145e1565b6001600160a01b038416815260606020820181905260009061485b90830185613864565b9050826040830152949350505050565b60006020828403121561487d57600080fd5b5051919050565b6060810161489185613cae565b9381526001600160a01b0392909216602083015260409091015290565b8051600581106137c557600080fd5b80516137c5816135f2565b60006148d661371e846136d8565b90508281528383830111156148ea57600080fd5b611c17836020830184613840565b600082601f83011261490957600080fd5b611c17838351602085016148c8565b80516137c5816143b8565b60006020828403121561493557600080fd5b81516001600160401b038082111561494c57600080fd5b908301906104a0828603121561496157600080fd5b61496961363a565b614972836148ae565b8152614980602084016148bd565b6020820152614991604084016148bd565b60408201526149a2606084016148bd565b60608201526080830151828111156149b957600080fd5b6149c5878286016148f8565b6080830152506149d760a08401614918565b60a082015260c083015160c082015260e083015160e08201526101009150614a008284016148bd565b9181019190915261012082810151908201526101408083015190820152610160808301519082015261018080830151908201526101a080830151908201526101c080830151908201526101e08083015190820152610200808301519082015261022080830151908201526102408083015190820152610260808301519082015261028080830151908201526102a080830151908201526102c080830151908201526102e08083015190820152610300808301519082015261032080830151908201526103408083015190820152610360808301519082015261038080830151908201526103a080830151908201526103c080830151908201526103e08083015190820152610400808301519082015261042080830151908201526104408083015190820152610460808301519082015261048091820151918101919091529392505050565b600060208284031215614b5757600080fd5b8151611c17816143b8565b6000808335601e19843603018112614b7957600080fd5b83016020810192503590506001600160401b03811115614b9857600080fd5b8060051b360382131561203a57600080fd5b81835260006001600160fb1b03831115614bc357600080fd5b8260051b80836020870137939093016020019392505050565b80356001600160401b03811681146137c557600080fd5b803560ff811681146137c557600080fd5b60006101c082358452614c1a6020840184614b62565b826020870152614c2d8387018284614baa565b92505050614c3d60408401614bdc565b6001600160401b03166040850152614c5760608401614bdc565b6001600160401b0316606085015260808381013590850152614c7b60a08401614bf3565b60ff1660a0850152614c8f60c08401614bf3565b60ff1660c085015260e083810135908501526101008084013590850152610120808401359085015261014080840135908501526101608084013590850152610180614cdb8185016143c6565b1515908501526101a0614cef848201614bf3565b60ff169401939093525090919050565b604081526000614d126040830185614c04565b90506001600160401b03831660208301529392505050565b60a08101614d3787613cae565b9581526001600160a01b039490941660208501526040840192909252606083015260809091015290565b6001600160a01b03841681526001600160401b0383166020820152606060408201819052600090612f8e90830184613864565b80356001600160801b03811681146137c557600080fd5b60408152823560408201526000614dc56020850185614b62565b610160806060860152614ddd6101a086018385614baa565b9250614deb60408801614bdc565b6001600160401b03811660808701529150614e0860608801614bdc565b6001600160401b03811660a08701529150608087013560c086015260a087013560e0860152614e3960c08801614d94565b9150610100614e52818701846001600160801b03169052565b614e5e60e08901614bdc565b9250610120614e77818801856001600160401b03169052565b614e82828a01614bdc565b93506101409150614e9d828801856001600160401b03169052565b614ea8818a01614bdc565b935050614ebf828701846001600160401b03169052565b614eca818901614bdc565b92505050614ee46101808501826001600160401b03169052565b506001600160401b03841660208401529050611c17565b600061010082358452614f116020840184614b62565b826020870152614f248387018284614baa565b92505050614f3460408401614bdc565b6001600160401b03808216604087015280614f5160608701614bdc565b16606087015260ff614f6560808701614bf3565b16608087015280614f7860a08701614bdc565b1660a08701525050614f8c60c08401614bdc565b6001600160401b031660c0850152614fa660e08401614bdc565b6001600160401b03811660e0860152509392505050565b602081526000611c176020830184614efb565b60408101614fdd84613cae565b9281526001600160a01b039190911660209091015290565b80516137c5816137ad565b6000610140828403121561501357600080fd5b61501b613663565b905061502682614ff5565b8152615034602083016148bd565b6020820152604082015160408201526060820151606082015261505960808301614918565b608082015260a08201516001600160401b038082111561507857600080fd5b615084858386016148f8565b60a084015260c084015191508082111561509d57600080fd5b506150aa848285016148f8565b60c08301525060e082015160e082015261010080830151818301525061012080830151818301525092915050565b6000602082840312156150ea57600080fd5b81516001600160401b0381111561510057600080fd5b6135ea84828501615000565b6001600160401b038181168382160280821691908281146142ae576142ae6145e1565b604081526000614d126040830185614efb565b6000610120823584526151586020840184614b62565b82602087015261516b8387018284614baa565b925050506001600160401b0361518360408501614bdc565b16604085015261519560608401614bdc565b6001600160401b03166060850152608083810135908501526151b960a08401614bf3565b60ff1660a085015260c0838101359085015260e080840135908501526101009283013592909301919091525090565b6040815260006151fb6040830185615142565b905060018060a01b03831660208301529392505050565b6000806040838503121561522557600080fd5b8251615230816135f2565b6020840151909250613ca3816135f2565b60006001600160401b0382111561525a5761525a613624565b5060051b60200190565b600080604080848603121561527857600080fd5b83516001600160401b0381111561528e57600080fd5b8401601f8101861361529f57600080fd5b805160206152af61371e83615241565b82815260a0928302840182019282820191908a8511156152ce57600080fd5b948301945b848610156153335780868c0312156152eb5760008081fd5b6152f3613686565b86516152fe816135f2565b8152868501518582015287870151888201526060808801519082015260808088015190820152835294850194918301916152d3565b5097909101519698969750505050505050565b6000602080838503121561535957600080fd5b82516001600160401b038082111561537057600080fd5b818501915085601f83011261538457600080fd5b815161539261371e82615241565b81815260059190911b830184019084810190888311156153b157600080fd5b8585015b838110156153e9578051858111156153cd5760008081fd5b6153db8b89838a0101615000565b8452509186019186016153b5565b5098975050505050505050565b6040808252810183905260006060600585901b830181019083018683805b8881101561545c57868503605f190184528235368b900361011e1901811261543a578283fd5b615446868c8301615142565b9550506020938401939290920191600101615414565b505050506001600160a01b0393909316602092909201919091525092915050565b602081526000611c176020830184614c04565b6060815260006154a36060830186614c04565b6001600160a01b03949094166020830152506001600160401b0391909116604090910152919050565b602081526154e5602082016154e0846137ba565b613cbe565b60006154f3602084016137ca565b6001600160a01b0381166040840152506040830135606083015260608301356080830152615523608084016143c6565b80151560a08401525061553960a08401846146fe565b6101408060c086015261555161016086018385614743565b925061556060c08701876146fe565b868503601f190160e08801529250615579848483614743565b60e0880135610100888101919091528801356101208089019190915290970135919095015250929392505050565b6040815260006151fb6040830185614c04565b600080604083850312156155cd57600080fd5b82516001600160401b038111156155e357600080fd5b8301601f810185136155f457600080fd5b8051602061560461371e83615241565b82815260059290921b8301810191818101908884111561562357600080fd5b938201935b8385101561564a57845161563b816135f2565b82529382019390820190615628565b969091015195979596505050505050565b60008060006060848603121561567057600080fd5b8351925060208401519150604084015190509250925092565b6001600160a01b03831681526040602082018190526000906135ea90830184613864565b6060815260006156c06060830186615142565b82810360208401526156d28186615142565b91505060018060a01b0383166040830152949350505050565b6001600160a01b038581168252841660208201526040810183905260806060820181905260009061571e90830184613864565b9695505050505050565b838152604060208201526000612f8e604083018486614743565b634e487b7160e01b600052603260045260246000fd5b60006020828403121561576a57600080fd5b81516001600160401b0381111561578057600080fd5b8201601f8101841361579157600080fd5b6135ea848251602084016148c8565b600181811c908216806157b457607f821691505b602082108103612e5057634e487b7160e01b600052602260045260246000fd5b6000602082840312156157e657600080fd5b8151611c17816135f2565b634e487b7160e01b600052600160045260246000fd5b8181038181111561123d5761123d6145e1565b6000825161582c818460208701613840565b9190910192915050565b634e487b7160e01b600052601260045260246000fd5b60008261585b5761585b615836565b500490565b60008261586f5761586f615836565b50069056feec7e8c1c441439dd40959777f4c577ea0cd42fcc1dbe59d2bd0f5d9c55df8db6ec7e8c1c441439dd40959777f4c577ea0cd42fcc1dbe59d2bd0f5d9c55df8ddaa2646970667358221220568abee11e2ce4f1291ace489357a0796cdc8b4b398d015434fd57700bbfa92064736f6c63430008140033",
  "linkReferences": {
    "contracts/fasset/library/AgentSettingsUpdater.sol": {
      "AgentSettingsUpdater": [
        {
          "length": 20,
          "start": 8846
        },
        {
          "length": 20,
          "start": 13904
        }
      ]
    },
    "contracts/fasset/library/AgentsCreateDestroy.sol": {
      "AgentsCreateDestroy": [
        {
          "length": 20,
          "start": 8418
        },
        {
          "length": 20,
          "start": 11193
        },
        {
          "length": 20,
          "start": 11701
        },
        {
          "length": 20,
          "start": 12191
        },
        {
          "length": 20,
          "start": 12891
        },
        {
          "length": 20,
          "start": 13128
        }
      ]
    },
    "contracts/fasset/library/AgentsExternal.sol": {
      "AgentsExternal": [
        {
          "length": 20,
          "start": 10216
        },
        {
          "length": 20,
          "start": 10304
        },
        {
          "length": 20,
          "start": 10972
        },
        {
          "length": 20,
          "start": 11321
        },
        {
          "length": 20,
          "start": 11390
        },
        {
          "length": 20,
          "start": 11533
        },
        {
          "length": 20,
          "start": 12667
        },
        {
          "length": 20,
          "start": 14135
        },
        {
          "length": 20,
          "start": 14501
        },
        {
          "length": 20,
          "start": 14550
        }
      ]
    },
    "contracts/fasset/library/AvailableAgents.sol": {
      "AvailableAgents": [
        {
          "length": 20,
          "start": 8541
        },
        {
          "length": 20,
          "start": 10449
        },
        {
          "length": 20,
          "start": 11257
        },
        {
          "length": 20,
          "start": 11780
        },
        {
          "length": 20,
          "start": 13855
        }
      ]
    },
    "contracts/fasset/library/Challenges.sol": {
      "Challenges": [
        {
          "length": 20,
          "start": 11121
        },
        {
          "length": 20,
          "start": 12028
        },
        {
          "length": 20,
          "start": 13969
        }
      ]
    },
    "contracts/fasset/library/CollateralReservations.sol": {
      "CollateralReservations": [
        {
          "length": 20,
          "start": 10342
        },
        {
          "length": 20,
          "start": 11629
        },
        {
          "length": 20,
          "start": 13338
        },
        {
          "length": 20,
          "start": 13686
        }
      ]
    },
    "contracts/fasset/library/CollateralTypes.sol": {
      "CollateralTypes": [
        {
          "length": 20,
          "start": 177
        },
        {
          "length": 20,
          "start": 8984
        },
        {
          "length": 20,
          "start": 9903
        },
        {
          "length": 20,
          "start": 10713
        },
        {
          "length": 20,
          "start": 11894
        },
        {
          "length": 20,
          "start": 12471
        },
        {
          "length": 20,
          "start": 14249
        }
      ]
    },
    "contracts/fasset/library/FullAgentInfo.sol": {
      "FullAgentInfo": [
        {
          "length": 20,
          "start": 9425
        }
      ]
    },
    "contracts/fasset/library/Liquidation.sol": {
      "Liquidation": [
        {
          "length": 20,
          "start": 13008
        },
        {
          "length": 20,
          "start": 13212
        },
        {
          "length": 20,
          "start": 13786
        }
      ]
    },
    "contracts/fasset/library/Minting.sol": {
      "Minting": [
        {
          "length": 20,
          "start": 12249
        },
        {
          "length": 20,
          "start": 13467
        }
      ]
    },
    "contracts/fasset/library/RedemptionConfirmations.sol": {
      "RedemptionConfirmations": [
        {
          "length": 20,
          "start": 9765
        }
      ]
    },
    "contracts/fasset/library/RedemptionFailures.sol": {
      "RedemptionFailures": [
        {
          "length": 20,
          "start": 10083
        },
        {
          "length": 20,
          "start": 11035
        }
      ]
    },
    "contracts/fasset/library/RedemptionRequests.sol": {
      "RedemptionRequests": [
        {
          "length": 20,
          "start": 9668
        },
        {
          "length": 20,
          "start": 10016
        },
        {
          "length": 20,
          "start": 12414
        },
        {
          "length": 20,
          "start": 14068
        },
        {
          "length": 20,
          "start": 14304
        }
      ]
    },
    "contracts/fasset/library/SettingsUpdater.sol": {
      "SettingsUpdater": [
        {
          "length": 20,
          "start": 72
        },
        {
          "length": 20,
          "start": 14427
        }
      ]
    },
    "contracts/fasset/library/StateUpdater.sol": {
      "StateUpdater": [
        {
          "length": 20,
          "start": 10161
        }
      ]
    },
    "contracts/fasset/library/UnderlyingBalance.sol": {
      "UnderlyingBalance": [
        {
          "length": 20,
          "start": 14184
        }
      ]
    },
    "contracts/fasset/library/UnderlyingWithdrawalAnnouncements.sol": {
      "UnderlyingWithdrawalAnnouncements": [
        {
          "length": 20,
          "start": 12541
        },
        {
          "length": 20,
          "start": 12590
        },
        {
          "length": 20,
          "start": 13622
        }
      ]
    }
  },
  "deployedLinkReferences": {
    "contracts/fasset/library/AgentSettingsUpdater.sol": {
      "AgentSettingsUpdater": [
        {
          "length": 20,
          "start": 5213
        },
        {
          "length": 20,
          "start": 10271
        }
      ]
    },
    "contracts/fasset/library/AgentsCreateDestroy.sol": {
      "AgentsCreateDestroy": [
        {
          "length": 20,
          "start": 4785
        },
        {
          "length": 20,
          "start": 7560
        },
        {
          "length": 20,
          "start": 8068
        },
        {
          "length": 20,
          "start": 8558
        },
        {
          "length": 20,
          "start": 9258
        },
        {
          "length": 20,
          "start": 9495
        }
      ]
    },
    "contracts/fasset/library/AgentsExternal.sol": {
      "AgentsExternal": [
        {
          "length": 20,
          "start": 6583
        },
        {
          "length": 20,
          "start": 6671
        },
        {
          "length": 20,
          "start": 7339
        },
        {
          "length": 20,
          "start": 7688
        },
        {
          "length": 20,
          "start": 7757
        },
        {
          "length": 20,
          "start": 7900
        },
        {
          "length": 20,
          "start": 9034
        },
        {
          "length": 20,
          "start": 10502
        },
        {
          "length": 20,
          "start": 10868
        },
        {
          "length": 20,
          "start": 10917
        }
      ]
    },
    "contracts/fasset/library/AvailableAgents.sol": {
      "AvailableAgents": [
        {
          "length": 20,
          "start": 4908
        },
        {
          "length": 20,
          "start": 6816
        },
        {
          "length": 20,
          "start": 7624
        },
        {
          "length": 20,
          "start": 8147
        },
        {
          "length": 20,
          "start": 10222
        }
      ]
    },
    "contracts/fasset/library/Challenges.sol": {
      "Challenges": [
        {
          "length": 20,
          "start": 7488
        },
        {
          "length": 20,
          "start": 8395
        },
        {
          "length": 20,
          "start": 10336
        }
      ]
    },
    "contracts/fasset/library/CollateralReservations.sol": {
      "CollateralReservations": [
        {
          "length": 20,
          "start": 6709
        },
        {
          "length": 20,
          "start": 7996
        },
        {
          "length": 20,
          "start": 9705
        },
        {
          "length": 20,
          "start": 10053
        }
      ]
    },
    "contracts/fasset/library/CollateralTypes.sol": {
      "CollateralTypes": [
        {
          "length": 20,
          "start": 5351
        },
        {
          "length": 20,
          "start": 6270
        },
        {
          "length": 20,
          "start": 7080
        },
        {
          "length": 20,
          "start": 8261
        },
        {
          "length": 20,
          "start": 8838
        },
        {
          "length": 20,
          "start": 10616
        }
      ]
    },
    "contracts/fasset/library/FullAgentInfo.sol": {
      "FullAgentInfo": [
        {
          "length": 20,
          "start": 5792
        }
      ]
    },
    "contracts/fasset/library/Liquidation.sol": {
      "Liquidation": [
        {
          "length": 20,
          "start": 9375
        },
        {
          "length": 20,
          "start": 9579
        },
        {
          "length": 20,
          "start": 10153
        }
      ]
    },
    "contracts/fasset/library/Minting.sol": {
      "Minting": [
        {
          "length": 20,
          "start": 8616
        },
        {
          "length": 20,
          "start": 9834
        }
      ]
    },
    "contracts/fasset/library/RedemptionConfirmations.sol": {
      "RedemptionConfirmations": [
        {
          "length": 20,
          "start": 6132
        }
      ]
    },
    "contracts/fasset/library/RedemptionFailures.sol": {
      "RedemptionFailures": [
        {
          "length": 20,
          "start": 6450
        },
        {
          "length": 20,
          "start": 7402
        }
      ]
    },
    "contracts/fasset/library/RedemptionRequests.sol": {
      "RedemptionRequests": [
        {
          "length": 20,
          "start": 6035
        },
        {
          "length": 20,
          "start": 6383
        },
        {
          "length": 20,
          "start": 8781
        },
        {
          "length": 20,
          "start": 10435
        },
        {
          "length": 20,
          "start": 10671
        }
      ]
    },
    "contracts/fasset/library/SettingsUpdater.sol": {
      "SettingsUpdater": [
        {
          "length": 20,
          "start": 10794
        }
      ]
    },
    "contracts/fasset/library/StateUpdater.sol": {
      "StateUpdater": [
        {
          "length": 20,
          "start": 6528
        }
      ]
    },
    "contracts/fasset/library/UnderlyingBalance.sol": {
      "UnderlyingBalance": [
        {
          "length": 20,
          "start": 10551
        }
      ]
    },
    "contracts/fasset/library/UnderlyingWithdrawalAnnouncements.sol": {
      "UnderlyingWithdrawalAnnouncements": [
        {
          "length": 20,
          "start": 8908
        },
        {
          "length": 20,
          "start": 8957
        },
        {
          "length": 20,
          "start": 9989
        }
      ]
    }
  }
}