{
  "_format": "hh-sol-artifact-1",
  "contractName": "AssetManager",
  "sourceName": "contracts/fasset/implementation/AssetManager.sol",
  "abi": [
    {
      "inputs": [
        {
          "components": [
            {
              "internalType": "address",
              "name": "assetManagerController",
              "type": "address"
            },
            {
              "internalType": "contract IFAsset",
              "name": "fAsset",
              "type": "address"
            },
            {
              "internalType": "contract IAgentVaultFactory",
              "name": "agentVaultFactory",
              "type": "address"
            },
            {
              "internalType": "contract ICollateralPoolFactory",
              "name": "collateralPoolFactory",
              "type": "address"
            },
            {
              "internalType": "contract IWhitelist",
              "name": "whitelist",
              "type": "address"
            },
            {
              "internalType": "contract IWhitelist",
              "name": "agentWhitelist",
              "type": "address"
            },
            {
              "internalType": "contract IAttestationClient",
              "name": "attestationClient",
              "type": "address"
            },
            {
              "internalType": "contract IAddressValidator",
              "name": "underlyingAddressValidator",
              "type": "address"
            },
            {
              "internalType": "address",
              "name": "liquidationStrategy",
              "type": "address"
            },
            {
              "internalType": "contract IFtsoRegistry",
              "name": "ftsoRegistry",
              "type": "address"
            },
            {
              "internalType": "uint8",
              "name": "assetDecimals",
              "type": "uint8"
            },
            {
              "internalType": "uint8",
              "name": "assetMintingDecimals",
              "type": "uint8"
            },
            {
              "internalType": "uint32",
              "name": "mintingPoolHoldingsRequiredBIPS",
              "type": "uint32"
            },
            {
              "internalType": "address payable",
              "name": "burnAddress",
              "type": "address"
            },
            {
              "internalType": "bool",
              "name": "burnWithSelfDestruct",
              "type": "bool"
            },
            {
              "internalType": "uint32",
              "name": "chainId",
              "type": "uint32"
            },
            {
              "internalType": "uint16",
              "name": "collateralReservationFeeBIPS",
              "type": "uint16"
            },
            {
              "internalType": "uint64",
              "name": "assetUnitUBA",
              "type": "uint64"
            },
            {
              "internalType": "uint64",
              "name": "assetMintingGranularityUBA",
              "type": "uint64"
            },
            {
              "internalType": "uint64",
              "name": "lotSizeAMG",
              "type": "uint64"
            },
            {
              "internalType": "uint16",
              "name": "minUnderlyingBackingBIPS",
              "type": "uint16"
            },
            {
              "internalType": "uint64",
              "name": "mintingCapAMG",
              "type": "uint64"
            },
            {
              "internalType": "uint64",
              "name": "maxTrustedPriceAgeSeconds",
              "type": "uint64"
            },
            {
              "internalType": "bool",
              "name": "requireEOAAddressProof",
              "type": "bool"
            },
            {
              "internalType": "uint64",
              "name": "underlyingBlocksForPayment",
              "type": "uint64"
            },
            {
              "internalType": "uint64",
              "name": "underlyingSecondsForPayment",
              "type": "uint64"
            },
            {
              "internalType": "uint16",
              "name": "redemptionFeeBIPS",
              "type": "uint16"
            },
            {
              "internalType": "uint32",
              "name": "redemptionDefaultFactorAgentC1BIPS",
              "type": "uint32"
            },
            {
              "internalType": "uint32",
              "name": "redemptionDefaultFactorPoolBIPS",
              "type": "uint32"
            },
            {
              "internalType": "uint64",
              "name": "confirmationByOthersAfterSeconds",
              "type": "uint64"
            },
            {
              "internalType": "uint128",
              "name": "confirmationByOthersRewardUSD5",
              "type": "uint128"
            },
            {
              "internalType": "uint16",
              "name": "maxRedeemedTickets",
              "type": "uint16"
            },
            {
              "internalType": "uint16",
              "name": "paymentChallengeRewardBIPS",
              "type": "uint16"
            },
            {
              "internalType": "uint128",
              "name": "paymentChallengeRewardUSD5",
              "type": "uint128"
            },
            {
              "internalType": "uint64",
              "name": "withdrawalWaitMinSeconds",
              "type": "uint64"
            },
            {
              "internalType": "uint64",
              "name": "ccbTimeSeconds",
              "type": "uint64"
            },
            {
              "internalType": "uint64",
              "name": "attestationWindowSeconds",
              "type": "uint64"
            },
            {
              "internalType": "uint64",
              "name": "minUpdateRepeatTimeSeconds",
              "type": "uint64"
            },
            {
              "internalType": "uint64",
              "name": "buybackCollateralFactorBIPS",
              "type": "uint64"
            },
            {
              "internalType": "uint64",
              "name": "announcedUnderlyingConfirmationMinSeconds",
              "type": "uint64"
            },
            {
              "internalType": "uint64",
              "name": "tokenInvalidationTimeMinSeconds",
              "type": "uint64"
            },
            {
              "internalType": "uint32",
              "name": "class1BuyForFlareFactorBIPS",
              "type": "uint32"
            },
            {
              "internalType": "uint64",
              "name": "agentExitAvailableTimelockSeconds",
              "type": "uint64"
            },
            {
              "internalType": "uint64",
              "name": "agentFeeChangeTimelockSeconds",
              "type": "uint64"
            },
            {
              "internalType": "uint64",
              "name": "agentCollateralRatioChangeTimelockSeconds",
              "type": "uint64"
            }
          ],
          "internalType": "struct AssetManagerSettings.Data",
          "name": "_settings",
          "type": "tuple"
        },
        {
          "components": [
            {
              "internalType": "enum IAssetManager.CollateralTokenClass",
              "name": "tokenClass",
              "type": "uint8"
            },
            {
              "internalType": "contract IERC20",
              "name": "token",
              "type": "address"
            },
            {
              "internalType": "uint256",
              "name": "decimals",
              "type": "uint256"
            },
            {
              "internalType": "uint256",
              "name": "validUntil",
              "type": "uint256"
            },
            {
              "internalType": "bool",
              "name": "directPricePair",
              "type": "bool"
            },
            {
              "internalType": "string",
              "name": "assetFtsoSymbol",
              "type": "string"
            },
            {
              "internalType": "string",
              "name": "tokenFtsoSymbol",
              "type": "string"
            },
            {
              "internalType": "uint256",
              "name": "minCollateralRatioBIPS",
              "type": "uint256"
            },
            {
              "internalType": "uint256",
              "name": "ccbMinCollateralRatioBIPS",
              "type": "uint256"
            },
            {
              "internalType": "uint256",
              "name": "safetyMinCollateralRatioBIPS",
              "type": "uint256"
            }
          ],
          "internalType": "struct IAssetManager.CollateralTokenInfo[]",
          "name": "_initialCollateralTypes",
          "type": "tuple[]"
        },
        {
          "internalType": "bytes",
          "name": "_initialLiquidationSettings",
          "type": "bytes"
        }
      ],
      "stateMutability": "nonpayable",
      "type": "constructor"
    },
    {
      "anonymous": false,
      "inputs": [
        {
          "indexed": true,
          "internalType": "address",
          "name": "agentVault",
          "type": "address"
        },
        {
          "indexed": false,
          "internalType": "uint256",
          "name": "feeBIPS",
          "type": "uint256"
        },
        {
          "indexed": false,
          "internalType": "uint256",
          "name": "mintingClass1CollateralRatioBIPS",
          "type": "uint256"
        },
        {
          "indexed": false,
          "internalType": "uint256",
          "name": "mintingPoolCollateralRatioBIPS",
          "type": "uint256"
        },
        {
          "indexed": false,
          "internalType": "uint256",
          "name": "freeCollateralLots",
          "type": "uint256"
        }
      ],
      "name": "AgentAvailable",
      "type": "event"
    },
    {
      "anonymous": false,
      "inputs": [
        {
          "indexed": true,
          "internalType": "address",
          "name": "owner",
          "type": "address"
        },
        {
          "indexed": false,
          "internalType": "uint8",
          "name": "agentType",
          "type": "uint8"
        },
        {
          "indexed": false,
          "internalType": "address",
          "name": "agentVault",
          "type": "address"
        },
        {
          "indexed": false,
          "internalType": "string",
          "name": "underlyingAddress",
          "type": "string"
        },
        {
          "indexed": false,
          "internalType": "address",
          "name": "collateralPool",
          "type": "address"
        }
      ],
      "name": "AgentCreated",
      "type": "event"
    },
    {
      "anonymous": false,
      "inputs": [
        {
          "indexed": true,
          "internalType": "address",
          "name": "agentVault",
          "type": "address"
        },
        {
          "indexed": false,
          "internalType": "uint256",
          "name": "destroyAllowedAt",
          "type": "uint256"
        }
      ],
      "name": "AgentDestroyAnnounced",
      "type": "event"
    },
    {
      "anonymous": false,
      "inputs": [
        {
          "indexed": true,
          "internalType": "address",
          "name": "agentVault",
          "type": "address"
        }
      ],
      "name": "AgentDestroyed",
      "type": "event"
    },
    {
      "anonymous": false,
      "inputs": [
        {
          "indexed": true,
          "internalType": "address",
          "name": "agentVault",
          "type": "address"
        },
        {
          "indexed": false,
          "internalType": "uint256",
          "name": "timestamp",
          "type": "uint256"
        }
      ],
      "name": "AgentInCCB",
      "type": "event"
    },
    {
      "anonymous": false,
      "inputs": [
        {
          "indexed": false,
          "internalType": "address",
          "name": "agentVault",
          "type": "address"
        },
        {
          "indexed": false,
          "internalType": "string",
          "name": "name",
          "type": "string"
        },
        {
          "indexed": false,
          "internalType": "uint256",
          "name": "value",
          "type": "uint256"
        },
        {
          "indexed": false,
          "internalType": "uint256",
          "name": "validAt",
          "type": "uint256"
        }
      ],
      "name": "AgentSettingChangeAnnounced",
      "type": "event"
    },
    {
      "anonymous": false,
      "inputs": [
        {
          "indexed": false,
          "internalType": "address",
          "name": "agentVault",
          "type": "address"
        },
        {
          "indexed": false,
          "internalType": "string",
          "name": "name",
          "type": "string"
        },
        {
          "indexed": false,
          "internalType": "uint256",
          "name": "value",
          "type": "uint256"
        }
      ],
      "name": "AgentSettingChanged",
      "type": "event"
    },
    {
      "anonymous": false,
      "inputs": [
        {
          "indexed": true,
          "internalType": "address",
          "name": "agentVault",
          "type": "address"
        },
        {
          "indexed": false,
          "internalType": "uint256",
          "name": "exitAllowedAt",
          "type": "uint256"
        }
      ],
      "name": "AvailableAgentExitAnnounced",
      "type": "event"
    },
    {
      "anonymous": false,
      "inputs": [
        {
          "indexed": true,
          "internalType": "address",
          "name": "agentVault",
          "type": "address"
        }
      ],
      "name": "AvailableAgentExited",
      "type": "event"
    },
    {
      "anonymous": false,
      "inputs": [
        {
          "indexed": true,
          "internalType": "address",
          "name": "agentVault",
          "type": "address"
        },
        {
          "indexed": false,
          "internalType": "uint256",
          "name": "amountWei",
          "type": "uint256"
        },
        {
          "indexed": false,
          "internalType": "uint256",
          "name": "withdrawalAllowedAt",
          "type": "uint256"
        }
      ],
      "name": "Class1WithdrawalAnnounced",
      "type": "event"
    },
    {
      "anonymous": false,
      "inputs": [
        {
          "indexed": true,
          "internalType": "address",
          "name": "agentVault",
          "type": "address"
        },
        {
          "indexed": true,
          "internalType": "address",
          "name": "minter",
          "type": "address"
        },
        {
          "indexed": false,
          "internalType": "uint256",
          "name": "collateralReservationId",
          "type": "uint256"
        },
        {
          "indexed": false,
          "internalType": "uint256",
          "name": "reservedAmountUBA",
          "type": "uint256"
        }
      ],
      "name": "CollateralReservationDeleted",
      "type": "event"
    },
    {
      "anonymous": false,
      "inputs": [
        {
          "indexed": true,
          "internalType": "address",
          "name": "agentVault",
          "type": "address"
        },
        {
          "indexed": true,
          "internalType": "address",
          "name": "minter",
          "type": "address"
        },
        {
          "indexed": false,
          "internalType": "uint256",
          "name": "collateralReservationId",
          "type": "uint256"
        },
        {
          "indexed": false,
          "internalType": "uint256",
          "name": "valueUBA",
          "type": "uint256"
        },
        {
          "indexed": false,
          "internalType": "uint256",
          "name": "feeUBA",
          "type": "uint256"
        },
        {
          "indexed": false,
          "internalType": "uint256",
          "name": "lastUnderlyingBlock",
          "type": "uint256"
        },
        {
          "indexed": false,
          "internalType": "uint256",
          "name": "lastUnderlyingTimestamp",
          "type": "uint256"
        },
        {
          "indexed": false,
          "internalType": "string",
          "name": "paymentAddress",
          "type": "string"
        },
        {
          "indexed": false,
          "internalType": "bytes32",
          "name": "paymentReference",
          "type": "bytes32"
        }
      ],
      "name": "CollateralReserved",
      "type": "event"
    },
    {
      "anonymous": false,
      "inputs": [
        {
          "indexed": false,
          "internalType": "uint8",
          "name": "tokenClass",
          "type": "uint8"
        },
        {
          "indexed": false,
          "internalType": "address",
          "name": "tokenContract",
          "type": "address"
        },
        {
          "indexed": false,
          "internalType": "bool",
          "name": "directPricePair",
          "type": "bool"
        },
        {
          "indexed": false,
          "internalType": "string",
          "name": "assetFtsoSymbol",
          "type": "string"
        },
        {
          "indexed": false,
          "internalType": "string",
          "name": "tokenFtsoSymbol",
          "type": "string"
        },
        {
          "indexed": false,
          "internalType": "uint256",
          "name": "minCollateralRatioBIPS",
          "type": "uint256"
        },
        {
          "indexed": false,
          "internalType": "uint256",
          "name": "ccbMinCollateralRatioBIPS",
          "type": "uint256"
        },
        {
          "indexed": false,
          "internalType": "uint256",
          "name": "safetyMinCollateralRatioBIPS",
          "type": "uint256"
        }
      ],
      "name": "CollateralTokenAdded",
      "type": "event"
    },
    {
      "anonymous": false,
      "inputs": [
        {
          "indexed": false,
          "internalType": "uint8",
          "name": "tokenClass",
          "type": "uint8"
        },
        {
          "indexed": false,
          "internalType": "address",
          "name": "tokenContract",
          "type": "address"
        },
        {
          "indexed": false,
          "internalType": "uint256",
          "name": "validUntil",
          "type": "uint256"
        }
      ],
      "name": "CollateralTokenDeprecated",
      "type": "event"
    },
    {
      "anonymous": false,
      "inputs": [
        {
          "indexed": false,
          "internalType": "uint8",
          "name": "tokenClass",
          "type": "uint8"
        },
        {
          "indexed": false,
          "internalType": "address",
          "name": "tokenContract",
          "type": "address"
        },
        {
          "indexed": false,
          "internalType": "uint256",
          "name": "minCollateralRatioBIPS",
          "type": "uint256"
        },
        {
          "indexed": false,
          "internalType": "uint256",
          "name": "ccbMinCollateralRatioBIPS",
          "type": "uint256"
        },
        {
          "indexed": false,
          "internalType": "uint256",
          "name": "safetyMinCollateralRatioBIPS",
          "type": "uint256"
        }
      ],
      "name": "CollateralTokenRatiosChanged",
      "type": "event"
    },
    {
      "anonymous": false,
      "inputs": [
        {
          "indexed": false,
          "internalType": "string",
          "name": "name",
          "type": "string"
        },
        {
          "indexed": false,
          "internalType": "address",
          "name": "value",
          "type": "address"
        }
      ],
      "name": "ContractChanged",
      "type": "event"
    },
    {
      "anonymous": false,
      "inputs": [
        {
          "indexed": true,
          "internalType": "address",
          "name": "agentVault",
          "type": "address"
        },
        {
          "indexed": false,
          "internalType": "bytes32",
          "name": "transactionHash1",
          "type": "bytes32"
        },
        {
          "indexed": false,
          "internalType": "bytes32",
          "name": "transactionHash2",
          "type": "bytes32"
        }
      ],
      "name": "DuplicatePaymentConfirmed",
      "type": "event"
    },
    {
      "anonymous": false,
      "inputs": [
        {
          "indexed": true,
          "internalType": "address",
          "name": "agentVault",
          "type": "address"
        },
        {
          "indexed": false,
          "internalType": "uint256",
          "name": "dustUBA",
          "type": "uint256"
        }
      ],
      "name": "DustChanged",
      "type": "event"
    },
    {
      "anonymous": false,
      "inputs": [
        {
          "indexed": true,
          "internalType": "address",
          "name": "agentVault",
          "type": "address"
        },
        {
          "indexed": false,
          "internalType": "uint256",
          "name": "redemptionTicketId",
          "type": "uint256"
        },
        {
          "indexed": false,
          "internalType": "uint256",
          "name": "valueUBA",
          "type": "uint256"
        }
      ],
      "name": "DustConvertedToTicket",
      "type": "event"
    },
    {
      "anonymous": false,
      "inputs": [
        {
          "indexed": true,
          "internalType": "address",
          "name": "agentVault",
          "type": "address"
        },
        {
          "indexed": false,
          "internalType": "uint256",
          "name": "timestamp",
          "type": "uint256"
        }
      ],
      "name": "FullLiquidationStarted",
      "type": "event"
    },
    {
      "anonymous": false,
      "inputs": [
        {
          "indexed": true,
          "internalType": "address",
          "name": "agentVault",
          "type": "address"
        },
        {
          "indexed": false,
          "internalType": "bytes32",
          "name": "transactionHash",
          "type": "bytes32"
        }
      ],
      "name": "IllegalPaymentConfirmed",
      "type": "event"
    },
    {
      "anonymous": false,
      "inputs": [
        {
          "indexed": true,
          "internalType": "address",
          "name": "agentVault",
          "type": "address"
        }
      ],
      "name": "LiquidationEnded",
      "type": "event"
    },
    {
      "anonymous": false,
      "inputs": [
        {
          "indexed": true,
          "internalType": "address",
          "name": "agentVault",
          "type": "address"
        },
        {
          "indexed": true,
          "internalType": "address",
          "name": "liquidator",
          "type": "address"
        },
        {
          "indexed": false,
          "internalType": "uint256",
          "name": "valueUBA",
          "type": "uint256"
        }
      ],
      "name": "LiquidationPerformed",
      "type": "event"
    },
    {
      "anonymous": false,
      "inputs": [
        {
          "indexed": true,
          "internalType": "address",
          "name": "agentVault",
          "type": "address"
        },
        {
          "indexed": false,
          "internalType": "uint256",
          "name": "timestamp",
          "type": "uint256"
        }
      ],
      "name": "LiquidationStarted",
      "type": "event"
    },
    {
      "anonymous": false,
      "inputs": [
        {
          "indexed": true,
          "internalType": "address",
          "name": "agentVault",
          "type": "address"
        },
        {
          "indexed": false,
          "internalType": "uint256",
          "name": "collateralReservationId",
          "type": "uint256"
        },
        {
          "indexed": false,
          "internalType": "uint256",
          "name": "redemptionTicketId",
          "type": "uint256"
        },
        {
          "indexed": false,
          "internalType": "uint256",
          "name": "mintedAmountUBA",
          "type": "uint256"
        },
        {
          "indexed": false,
          "internalType": "uint256",
          "name": "agentFeeUBA",
          "type": "uint256"
        },
        {
          "indexed": false,
          "internalType": "uint256",
          "name": "poolFeeUBA",
          "type": "uint256"
        }
      ],
      "name": "MintingExecuted",
      "type": "event"
    },
    {
      "anonymous": false,
      "inputs": [
        {
          "indexed": true,
          "internalType": "address",
          "name": "agentVault",
          "type": "address"
        },
        {
          "indexed": true,
          "internalType": "address",
          "name": "minter",
          "type": "address"
        },
        {
          "indexed": false,
          "internalType": "uint256",
          "name": "collateralReservationId",
          "type": "uint256"
        },
        {
          "indexed": false,
          "internalType": "uint256",
          "name": "reservedAmountUBA",
          "type": "uint256"
        }
      ],
      "name": "MintingPaymentDefault",
      "type": "event"
    },
    {
      "anonymous": false,
      "inputs": [
        {
          "indexed": true,
          "internalType": "address",
          "name": "agentVault",
          "type": "address"
        },
        {
          "indexed": false,
          "internalType": "uint256",
          "name": "amountWei",
          "type": "uint256"
        },
        {
          "indexed": false,
          "internalType": "uint256",
          "name": "withdrawalAllowedAt",
          "type": "uint256"
        }
      ],
      "name": "PoolTokenRedemptionAnnounced",
      "type": "event"
    },
    {
      "anonymous": false,
      "inputs": [
        {
          "indexed": true,
          "internalType": "address",
          "name": "agentVault",
          "type": "address"
        },
        {
          "indexed": true,
          "internalType": "address",
          "name": "redeemer",
          "type": "address"
        },
        {
          "indexed": false,
          "internalType": "uint256",
          "name": "redemptionAmountUBA",
          "type": "uint256"
        },
        {
          "indexed": false,
          "internalType": "uint256",
          "name": "redeemedClass1CollateralWei",
          "type": "uint256"
        },
        {
          "indexed": false,
          "internalType": "uint256",
          "name": "redeemedPoolCollateralWei",
          "type": "uint256"
        },
        {
          "indexed": false,
          "internalType": "uint64",
          "name": "requestId",
          "type": "uint64"
        }
      ],
      "name": "RedemptionDefault",
      "type": "event"
    },
    {
      "anonymous": false,
      "inputs": [
        {
          "indexed": true,
          "internalType": "address",
          "name": "agentVault",
          "type": "address"
        },
        {
          "indexed": true,
          "internalType": "address",
          "name": "redeemer",
          "type": "address"
        },
        {
          "indexed": false,
          "internalType": "bytes32",
          "name": "transactionHash",
          "type": "bytes32"
        },
        {
          "indexed": false,
          "internalType": "uint256",
          "name": "redemptionAmountUBA",
          "type": "uint256"
        },
        {
          "indexed": false,
          "internalType": "int256",
          "name": "spentUnderlyingUBA",
          "type": "int256"
        },
        {
          "indexed": false,
          "internalType": "uint64",
          "name": "requestId",
          "type": "uint64"
        }
      ],
      "name": "RedemptionPaymentBlocked",
      "type": "event"
    },
    {
      "anonymous": false,
      "inputs": [
        {
          "indexed": true,
          "internalType": "address",
          "name": "agentVault",
          "type": "address"
        },
        {
          "indexed": true,
          "internalType": "address",
          "name": "redeemer",
          "type": "address"
        },
        {
          "indexed": false,
          "internalType": "bytes32",
          "name": "transactionHash",
          "type": "bytes32"
        },
        {
          "indexed": false,
          "internalType": "int256",
          "name": "spentUnderlyingUBA",
          "type": "int256"
        },
        {
          "indexed": false,
          "internalType": "uint64",
          "name": "requestId",
          "type": "uint64"
        },
        {
          "indexed": false,
          "internalType": "string",
          "name": "failureReason",
          "type": "string"
        }
      ],
      "name": "RedemptionPaymentFailed",
      "type": "event"
    },
    {
      "anonymous": false,
      "inputs": [
        {
          "indexed": true,
          "internalType": "address",
          "name": "agentVault",
          "type": "address"
        },
        {
          "indexed": true,
          "internalType": "address",
          "name": "redeemer",
          "type": "address"
        },
        {
          "indexed": false,
          "internalType": "bytes32",
          "name": "transactionHash",
          "type": "bytes32"
        },
        {
          "indexed": false,
          "internalType": "uint256",
          "name": "redemptionAmountUBA",
          "type": "uint256"
        },
        {
          "indexed": false,
          "internalType": "int256",
          "name": "spentUnderlyingUBA",
          "type": "int256"
        },
        {
          "indexed": false,
          "internalType": "uint64",
          "name": "requestId",
          "type": "uint64"
        }
      ],
      "name": "RedemptionPerformed",
      "type": "event"
    },
    {
      "anonymous": false,
      "inputs": [
        {
          "indexed": true,
          "internalType": "address",
          "name": "redeemer",
          "type": "address"
        },
        {
          "indexed": false,
          "internalType": "uint256",
          "name": "remainingLots",
          "type": "uint256"
        }
      ],
      "name": "RedemptionRequestIncomplete",
      "type": "event"
    },
    {
      "anonymous": false,
      "inputs": [
        {
          "indexed": true,
          "internalType": "address",
          "name": "agentVault",
          "type": "address"
        },
        {
          "indexed": false,
          "internalType": "uint256",
          "name": "requestId",
          "type": "uint256"
        },
        {
          "indexed": false,
          "internalType": "string",
          "name": "paymentAddress",
          "type": "string"
        },
        {
          "indexed": false,
          "internalType": "uint256",
          "name": "valueUBA",
          "type": "uint256"
        },
        {
          "indexed": false,
          "internalType": "uint256",
          "name": "feeUBA",
          "type": "uint256"
        },
        {
          "indexed": false,
          "internalType": "uint256",
          "name": "lastUnderlyingBlock",
          "type": "uint256"
        },
        {
          "indexed": false,
          "internalType": "uint256",
          "name": "lastUnderlyingTimestamp",
          "type": "uint256"
        },
        {
          "indexed": false,
          "internalType": "bytes32",
          "name": "paymentReference",
          "type": "bytes32"
        }
      ],
      "name": "RedemptionRequested",
      "type": "event"
    },
    {
      "anonymous": false,
      "inputs": [
        {
          "indexed": true,
          "internalType": "address",
          "name": "agentVault",
          "type": "address"
        },
        {
          "indexed": false,
          "internalType": "uint256",
          "name": "valueUBA",
          "type": "uint256"
        }
      ],
      "name": "SelfClose",
      "type": "event"
    },
    {
      "anonymous": false,
      "inputs": [
        {
          "indexed": false,
          "internalType": "string",
          "name": "name",
          "type": "string"
        },
        {
          "indexed": false,
          "internalType": "uint256[]",
          "name": "value",
          "type": "uint256[]"
        }
      ],
      "name": "SettingArrayChanged",
      "type": "event"
    },
    {
      "anonymous": false,
      "inputs": [
        {
          "indexed": false,
          "internalType": "string",
          "name": "name",
          "type": "string"
        },
        {
          "indexed": false,
          "internalType": "uint256",
          "name": "value",
          "type": "uint256"
        }
      ],
      "name": "SettingChanged",
      "type": "event"
    },
    {
      "anonymous": false,
      "inputs": [
        {
          "indexed": true,
          "internalType": "address",
          "name": "agentVault",
          "type": "address"
        },
        {
          "indexed": false,
          "internalType": "uint256",
          "name": "balance",
          "type": "uint256"
        },
        {
          "indexed": false,
          "internalType": "uint256",
          "name": "requiredBalance",
          "type": "uint256"
        }
      ],
      "name": "UnderlyingBalanceTooLow",
      "type": "event"
    },
    {
      "anonymous": false,
      "inputs": [
        {
          "indexed": false,
          "internalType": "address",
          "name": "agentVault",
          "type": "address"
        },
        {
          "indexed": false,
          "internalType": "uint256",
          "name": "freeBalanceChangeUBA",
          "type": "uint256"
        }
      ],
      "name": "UnderlyingBalanceToppedUp",
      "type": "event"
    },
    {
      "anonymous": false,
      "inputs": [
        {
          "indexed": false,
          "internalType": "address",
          "name": "agentVault",
          "type": "address"
        },
        {
          "indexed": false,
          "internalType": "uint64",
          "name": "announcementId",
          "type": "uint64"
        },
        {
          "indexed": false,
          "internalType": "bytes32",
          "name": "paymentReference",
          "type": "bytes32"
        }
      ],
      "name": "UnderlyingWithdrawalAnnounced",
      "type": "event"
    },
    {
      "anonymous": false,
      "inputs": [
        {
          "indexed": false,
          "internalType": "address",
          "name": "agentVault",
          "type": "address"
        },
        {
          "indexed": false,
          "internalType": "uint64",
          "name": "announcementId",
          "type": "uint64"
        }
      ],
      "name": "UnderlyingWithdrawalCancelled",
      "type": "event"
    },
    {
      "anonymous": false,
      "inputs": [
        {
          "indexed": false,
          "internalType": "address",
          "name": "agentVault",
          "type": "address"
        },
        {
          "indexed": false,
          "internalType": "int256",
          "name": "spentUBA",
          "type": "int256"
        },
        {
          "indexed": false,
          "internalType": "bytes32",
          "name": "transactionHash",
          "type": "bytes32"
        },
        {
          "indexed": false,
          "internalType": "uint64",
          "name": "announcementId",
          "type": "uint64"
        }
      ],
      "name": "UnderlyingWithdrawalConfirmed",
      "type": "event"
    },
    {
      "inputs": [
        {
          "components": [
            {
              "internalType": "enum IAssetManager.CollateralTokenClass",
              "name": "tokenClass",
              "type": "uint8"
            },
            {
              "internalType": "contract IERC20",
              "name": "token",
              "type": "address"
            },
            {
              "internalType": "uint256",
              "name": "decimals",
              "type": "uint256"
            },
            {
              "internalType": "uint256",
              "name": "validUntil",
              "type": "uint256"
            },
            {
              "internalType": "bool",
              "name": "directPricePair",
              "type": "bool"
            },
            {
              "internalType": "string",
              "name": "assetFtsoSymbol",
              "type": "string"
            },
            {
              "internalType": "string",
              "name": "tokenFtsoSymbol",
              "type": "string"
            },
            {
              "internalType": "uint256",
              "name": "minCollateralRatioBIPS",
              "type": "uint256"
            },
            {
              "internalType": "uint256",
              "name": "ccbMinCollateralRatioBIPS",
              "type": "uint256"
            },
            {
              "internalType": "uint256",
              "name": "safetyMinCollateralRatioBIPS",
              "type": "uint256"
            }
          ],
          "internalType": "struct IAssetManager.CollateralTokenInfo",
          "name": "_data",
          "type": "tuple"
        }
      ],
      "name": "addCollateralToken",
      "outputs": [],
      "stateMutability": "nonpayable",
      "type": "function"
    },
    {
      "inputs": [
        {
          "internalType": "address",
          "name": "_agentVault",
          "type": "address"
        },
        {
          "internalType": "uint256",
          "name": "_valueNATWei",
          "type": "uint256"
        }
      ],
      "name": "announceAgentPoolTokenRedemption",
      "outputs": [],
      "stateMutability": "nonpayable",
      "type": "function"
    },
    {
      "inputs": [
        {
          "internalType": "address",
          "name": "_agentVault",
          "type": "address"
        },
        {
          "internalType": "string",
          "name": "_name",
          "type": "string"
        },
        {
          "internalType": "uint256",
          "name": "_value",
          "type": "uint256"
        }
      ],
      "name": "announceAgentSettingUpdate",
      "outputs": [],
      "stateMutability": "nonpayable",
      "type": "function"
    },
    {
      "inputs": [
        {
          "internalType": "address",
          "name": "_agentVault",
          "type": "address"
        },
        {
          "internalType": "uint256",
          "name": "_valueNATWei",
          "type": "uint256"
        }
      ],
      "name": "announceClass1CollateralWithdrawal",
      "outputs": [],
      "stateMutability": "nonpayable",
      "type": "function"
    },
    {
      "inputs": [
        {
          "internalType": "address",
          "name": "_agentVault",
          "type": "address"
        }
      ],
      "name": "announceDestroyAgent",
      "outputs": [],
      "stateMutability": "nonpayable",
      "type": "function"
    },
    {
      "inputs": [
        {
          "internalType": "address",
          "name": "_agentVault",
          "type": "address"
        }
      ],
      "name": "announceExitAvailableAgentList",
      "outputs": [],
      "stateMutability": "nonpayable",
      "type": "function"
    },
    {
      "inputs": [
        {
          "internalType": "address",
          "name": "_agentVault",
          "type": "address"
        }
      ],
      "name": "announceUnderlyingWithdrawal",
      "outputs": [],
      "stateMutability": "nonpayable",
      "type": "function"
    },
    {
      "inputs": [],
      "name": "assetManagerController",
      "outputs": [
        {
          "internalType": "address",
          "name": "",
          "type": "address"
        }
      ],
      "stateMutability": "view",
      "type": "function"
    },
    {
      "inputs": [],
      "name": "assetPriceNatWei",
      "outputs": [
        {
          "internalType": "uint256",
          "name": "_multiplier",
          "type": "uint256"
        },
        {
          "internalType": "uint256",
          "name": "_divisor",
          "type": "uint256"
        }
      ],
      "stateMutability": "view",
      "type": "function"
    },
    {
      "inputs": [
        {
          "internalType": "bool",
          "name": "attached",
          "type": "bool"
        }
      ],
      "name": "attachController",
      "outputs": [],
      "stateMutability": "nonpayable",
      "type": "function"
    },
    {
      "inputs": [
        {
          "internalType": "address",
          "name": "_agentVault",
          "type": "address"
        }
      ],
      "name": "buybackAgentCollateral",
      "outputs": [],
      "stateMutability": "payable",
      "type": "function"
    },
    {
      "inputs": [
        {
          "internalType": "address",
          "name": "_agentVault",
          "type": "address"
        }
      ],
      "name": "cancelUnderlyingWithdrawal",
      "outputs": [],
      "stateMutability": "nonpayable",
      "type": "function"
    },
    {
      "inputs": [
        {
          "internalType": "contract IERC20",
          "name": "_token",
          "type": "address"
        }
      ],
      "name": "collateralDeposited",
      "outputs": [],
      "stateMutability": "nonpayable",
      "type": "function"
    },
    {
      "inputs": [
        {
          "internalType": "uint256",
          "name": "_lots",
          "type": "uint256"
        }
      ],
      "name": "collateralReservationFee",
      "outputs": [
        {
          "internalType": "uint256",
          "name": "_reservationFeeNATWei",
          "type": "uint256"
        }
      ],
      "stateMutability": "view",
      "type": "function"
    },
    {
      "inputs": [
        {
          "components": [
            {
              "internalType": "uint256",
              "name": "stateConnectorRound",
              "type": "uint256"
            },
            {
              "internalType": "bytes32[]",
              "name": "merkleProof",
              "type": "bytes32[]"
            },
            {
              "internalType": "uint64",
              "name": "blockNumber",
              "type": "uint64"
            },
            {
              "internalType": "uint64",
              "name": "blockTimestamp",
              "type": "uint64"
            },
            {
              "internalType": "bytes32",
              "name": "transactionHash",
              "type": "bytes32"
            },
            {
              "internalType": "uint8",
              "name": "inUtxo",
              "type": "uint8"
            },
            {
              "internalType": "uint8",
              "name": "utxo",
              "type": "uint8"
            },
            {
              "internalType": "bytes32",
              "name": "sourceAddressHash",
              "type": "bytes32"
            },
            {
              "internalType": "bytes32",
              "name": "receivingAddressHash",
              "type": "bytes32"
            },
            {
              "internalType": "int256",
              "name": "spentAmount",
              "type": "int256"
            },
            {
              "internalType": "int256",
              "name": "receivedAmount",
              "type": "int256"
            },
            {
              "internalType": "bytes32",
              "name": "paymentReference",
              "type": "bytes32"
            },
            {
              "internalType": "bool",
              "name": "oneToOne",
              "type": "bool"
            },
            {
              "internalType": "uint8",
              "name": "status",
              "type": "uint8"
            }
          ],
          "internalType": "struct IAttestationClient.Payment",
          "name": "_payment",
          "type": "tuple"
        },
        {
          "internalType": "uint256",
          "name": "_redemptionRequestId",
          "type": "uint256"
        }
      ],
      "name": "confirmRedemptionPayment",
      "outputs": [],
      "stateMutability": "nonpayable",
      "type": "function"
    },
    {
      "inputs": [
        {
          "components": [
            {
              "internalType": "uint256",
              "name": "stateConnectorRound",
              "type": "uint256"
            },
            {
              "internalType": "bytes32[]",
              "name": "merkleProof",
              "type": "bytes32[]"
            },
            {
              "internalType": "uint64",
              "name": "blockNumber",
              "type": "uint64"
            },
            {
              "internalType": "uint64",
              "name": "blockTimestamp",
              "type": "uint64"
            },
            {
              "internalType": "bytes32",
              "name": "transactionHash",
              "type": "bytes32"
            },
            {
              "internalType": "uint8",
              "name": "inUtxo",
              "type": "uint8"
            },
            {
              "internalType": "uint8",
              "name": "utxo",
              "type": "uint8"
            },
            {
              "internalType": "bytes32",
              "name": "sourceAddressHash",
              "type": "bytes32"
            },
            {
              "internalType": "bytes32",
              "name": "receivingAddressHash",
              "type": "bytes32"
            },
            {
              "internalType": "int256",
              "name": "spentAmount",
              "type": "int256"
            },
            {
              "internalType": "int256",
              "name": "receivedAmount",
              "type": "int256"
            },
            {
              "internalType": "bytes32",
              "name": "paymentReference",
              "type": "bytes32"
            },
            {
              "internalType": "bool",
              "name": "oneToOne",
              "type": "bool"
            },
            {
              "internalType": "uint8",
              "name": "status",
              "type": "uint8"
            }
          ],
          "internalType": "struct IAttestationClient.Payment",
          "name": "_payment",
          "type": "tuple"
        },
        {
          "internalType": "address",
          "name": "_agentVault",
          "type": "address"
        }
      ],
      "name": "confirmTopupPayment",
      "outputs": [],
      "stateMutability": "nonpayable",
      "type": "function"
    },
    {
      "inputs": [
        {
          "components": [
            {
              "internalType": "uint256",
              "name": "stateConnectorRound",
              "type": "uint256"
            },
            {
              "internalType": "bytes32[]",
              "name": "merkleProof",
              "type": "bytes32[]"
            },
            {
              "internalType": "uint64",
              "name": "blockNumber",
              "type": "uint64"
            },
            {
              "internalType": "uint64",
              "name": "blockTimestamp",
              "type": "uint64"
            },
            {
              "internalType": "bytes32",
              "name": "transactionHash",
              "type": "bytes32"
            },
            {
              "internalType": "uint8",
              "name": "inUtxo",
              "type": "uint8"
            },
            {
              "internalType": "uint8",
              "name": "utxo",
              "type": "uint8"
            },
            {
              "internalType": "bytes32",
              "name": "sourceAddressHash",
              "type": "bytes32"
            },
            {
              "internalType": "bytes32",
              "name": "receivingAddressHash",
              "type": "bytes32"
            },
            {
              "internalType": "int256",
              "name": "spentAmount",
              "type": "int256"
            },
            {
              "internalType": "int256",
              "name": "receivedAmount",
              "type": "int256"
            },
            {
              "internalType": "bytes32",
              "name": "paymentReference",
              "type": "bytes32"
            },
            {
              "internalType": "bool",
              "name": "oneToOne",
              "type": "bool"
            },
            {
              "internalType": "uint8",
              "name": "status",
              "type": "uint8"
            }
          ],
          "internalType": "struct IAttestationClient.Payment",
          "name": "_payment",
          "type": "tuple"
        },
        {
          "internalType": "address",
          "name": "_agentVault",
          "type": "address"
        }
      ],
      "name": "confirmUnderlyingWithdrawal",
      "outputs": [],
      "stateMutability": "nonpayable",
      "type": "function"
    },
    {
      "inputs": [],
      "name": "controllerAttached",
      "outputs": [
        {
          "internalType": "bool",
          "name": "",
          "type": "bool"
        }
      ],
      "stateMutability": "view",
      "type": "function"
    },
    {
      "inputs": [
        {
          "internalType": "address",
          "name": "_agentVault",
          "type": "address"
        }
      ],
      "name": "convertDustToTicket",
      "outputs": [],
      "stateMutability": "nonpayable",
      "type": "function"
    },
    {
      "inputs": [
        {
          "components": [
            {
              "internalType": "string",
              "name": "underlyingAddressString",
              "type": "string"
            },
            {
              "internalType": "contract IERC20",
              "name": "class1CollateralToken",
              "type": "address"
            },
            {
              "internalType": "uint256",
              "name": "feeBIPS",
              "type": "uint256"
            },
            {
              "internalType": "uint256",
              "name": "poolFeeShareBIPS",
              "type": "uint256"
            },
            {
              "internalType": "uint256",
              "name": "mintingClass1CollateralRatioBIPS",
              "type": "uint256"
            },
            {
              "internalType": "uint256",
              "name": "mintingPoolCollateralRatioBIPS",
              "type": "uint256"
            },
            {
              "internalType": "uint256",
              "name": "buyFAssetByAgentFactorBIPS",
              "type": "uint256"
            },
            {
              "internalType": "uint256",
              "name": "poolExitCollateralRatioBIPS",
              "type": "uint256"
            },
            {
              "internalType": "uint256",
              "name": "poolTopupCollateralRatioBIPS",
              "type": "uint256"
            },
            {
              "internalType": "uint256",
              "name": "poolTopupTokenPriceFactorBIPS",
              "type": "uint256"
            }
          ],
          "internalType": "struct IAssetManager.InitialAgentSettings",
          "name": "_settings",
          "type": "tuple"
        }
      ],
      "name": "createAgent",
      "outputs": [],
      "stateMutability": "nonpayable",
      "type": "function"
    },
    {
      "inputs": [],
      "name": "currentUnderlyingBlock",
      "outputs": [
        {
          "internalType": "uint256",
          "name": "_blockNumber",
          "type": "uint256"
        },
        {
          "internalType": "uint256",
          "name": "_blockTimestamp",
          "type": "uint256"
        }
      ],
      "stateMutability": "view",
      "type": "function"
    },
    {
      "inputs": [
        {
          "internalType": "enum IAssetManager.CollateralTokenClass",
          "name": "_tokenClass",
          "type": "uint8"
        },
        {
          "internalType": "contract IERC20",
          "name": "_token",
          "type": "address"
        },
        {
          "internalType": "uint256",
          "name": "_invalidationTimeSec",
          "type": "uint256"
        }
      ],
      "name": "deprecateCollateralToken",
      "outputs": [],
      "stateMutability": "nonpayable",
      "type": "function"
    },
    {
      "inputs": [
        {
          "internalType": "address",
          "name": "_agentVault",
          "type": "address"
        },
        {
          "internalType": "address payable",
          "name": "_recipient",
          "type": "address"
        }
      ],
      "name": "destroyAgent",
      "outputs": [],
      "stateMutability": "nonpayable",
      "type": "function"
    },
    {
      "inputs": [
        {
          "components": [
            {
              "internalType": "uint256",
              "name": "stateConnectorRound",
              "type": "uint256"
            },
            {
              "internalType": "bytes32[]",
              "name": "merkleProof",
              "type": "bytes32[]"
            },
            {
              "internalType": "uint64",
              "name": "blockNumber",
              "type": "uint64"
            },
            {
              "internalType": "uint64",
              "name": "blockTimestamp",
              "type": "uint64"
            },
            {
              "internalType": "bytes32",
              "name": "transactionHash",
              "type": "bytes32"
            },
            {
              "internalType": "uint8",
              "name": "inUtxo",
              "type": "uint8"
            },
            {
              "internalType": "bytes32",
              "name": "sourceAddressHash",
              "type": "bytes32"
            },
            {
              "internalType": "int256",
              "name": "spentAmount",
              "type": "int256"
            },
            {
              "internalType": "bytes32",
              "name": "paymentReference",
              "type": "bytes32"
            }
          ],
          "internalType": "struct IAttestationClient.BalanceDecreasingTransaction",
          "name": "_payment1",
          "type": "tuple"
        },
        {
          "components": [
            {
              "internalType": "uint256",
              "name": "stateConnectorRound",
              "type": "uint256"
            },
            {
              "internalType": "bytes32[]",
              "name": "merkleProof",
              "type": "bytes32[]"
            },
            {
              "internalType": "uint64",
              "name": "blockNumber",
              "type": "uint64"
            },
            {
              "internalType": "uint64",
              "name": "blockTimestamp",
              "type": "uint64"
            },
            {
              "internalType": "bytes32",
              "name": "transactionHash",
              "type": "bytes32"
            },
            {
              "internalType": "uint8",
              "name": "inUtxo",
              "type": "uint8"
            },
            {
              "internalType": "bytes32",
              "name": "sourceAddressHash",
              "type": "bytes32"
            },
            {
              "internalType": "int256",
              "name": "spentAmount",
              "type": "int256"
            },
            {
              "internalType": "bytes32",
              "name": "paymentReference",
              "type": "bytes32"
            }
          ],
          "internalType": "struct IAttestationClient.BalanceDecreasingTransaction",
          "name": "_payment2",
          "type": "tuple"
        },
        {
          "internalType": "address",
          "name": "_agentVault",
          "type": "address"
        }
      ],
      "name": "doublePaymentChallenge",
      "outputs": [],
      "stateMutability": "nonpayable",
      "type": "function"
    },
    {
      "inputs": [
        {
          "internalType": "address",
          "name": "_agentVault",
          "type": "address"
        }
      ],
      "name": "endLiquidation",
      "outputs": [],
      "stateMutability": "nonpayable",
      "type": "function"
    },
    {
      "inputs": [
        {
          "internalType": "address",
          "name": "_agentVault",
          "type": "address"
        },
        {
          "internalType": "string",
          "name": "_name",
          "type": "string"
        }
      ],
      "name": "executeAgentSettingUpdate",
      "outputs": [],
      "stateMutability": "nonpayable",
      "type": "function"
    },
    {
      "inputs": [
        {
          "components": [
            {
              "internalType": "uint256",
              "name": "stateConnectorRound",
              "type": "uint256"
            },
            {
              "internalType": "bytes32[]",
              "name": "merkleProof",
              "type": "bytes32[]"
            },
            {
              "internalType": "uint64",
              "name": "blockNumber",
              "type": "uint64"
            },
            {
              "internalType": "uint64",
              "name": "blockTimestamp",
              "type": "uint64"
            },
            {
              "internalType": "bytes32",
              "name": "transactionHash",
              "type": "bytes32"
            },
            {
              "internalType": "uint8",
              "name": "inUtxo",
              "type": "uint8"
            },
            {
              "internalType": "uint8",
              "name": "utxo",
              "type": "uint8"
            },
            {
              "internalType": "bytes32",
              "name": "sourceAddressHash",
              "type": "bytes32"
            },
            {
              "internalType": "bytes32",
              "name": "receivingAddressHash",
              "type": "bytes32"
            },
            {
              "internalType": "int256",
              "name": "spentAmount",
              "type": "int256"
            },
            {
              "internalType": "int256",
              "name": "receivedAmount",
              "type": "int256"
            },
            {
              "internalType": "bytes32",
              "name": "paymentReference",
              "type": "bytes32"
            },
            {
              "internalType": "bool",
              "name": "oneToOne",
              "type": "bool"
            },
            {
              "internalType": "uint8",
              "name": "status",
              "type": "uint8"
            }
          ],
          "internalType": "struct IAttestationClient.Payment",
          "name": "_payment",
          "type": "tuple"
        },
        {
          "internalType": "uint256",
          "name": "_collateralReservationId",
          "type": "uint256"
        }
      ],
      "name": "executeMinting",
      "outputs": [],
      "stateMutability": "nonpayable",
      "type": "function"
    },
    {
      "inputs": [
        {
          "internalType": "address",
          "name": "_agentVault",
          "type": "address"
        }
      ],
      "name": "exitAvailableAgentList",
      "outputs": [],
      "stateMutability": "nonpayable",
      "type": "function"
    },
    {
      "inputs": [],
      "name": "fAsset",
      "outputs": [
        {
          "internalType": "contract IERC20",
          "name": "",
          "type": "address"
        }
      ],
      "stateMutability": "view",
      "type": "function"
    },
    {
      "inputs": [
        {
          "components": [
            {
              "internalType": "uint256",
              "name": "stateConnectorRound",
              "type": "uint256"
            },
            {
              "internalType": "bytes32[]",
              "name": "merkleProof",
              "type": "bytes32[]"
            },
            {
              "internalType": "uint64",
              "name": "blockNumber",
              "type": "uint64"
            },
            {
              "internalType": "uint64",
              "name": "blockTimestamp",
              "type": "uint64"
            },
            {
              "internalType": "uint8",
              "name": "numberOfConfirmations",
              "type": "uint8"
            },
            {
              "internalType": "uint64",
              "name": "averageBlockProductionTimeMs",
              "type": "uint64"
            },
            {
              "internalType": "uint64",
              "name": "lowestQueryWindowBlockNumber",
              "type": "uint64"
            },
            {
              "internalType": "uint64",
              "name": "lowestQueryWindowBlockTimestamp",
              "type": "uint64"
            }
          ],
          "internalType": "struct IAttestationClient.ConfirmedBlockHeightExists",
          "name": "_proof",
          "type": "tuple"
        },
        {
          "internalType": "uint256",
          "name": "_redemptionRequestId",
          "type": "uint256"
        }
      ],
      "name": "finishRedemptionWithoutPayment",
      "outputs": [],
      "stateMutability": "nonpayable",
      "type": "function"
    },
    {
      "inputs": [
        {
          "components": [
            {
              "internalType": "uint256",
              "name": "stateConnectorRound",
              "type": "uint256"
            },
            {
              "internalType": "bytes32[]",
              "name": "merkleProof",
              "type": "bytes32[]"
            },
            {
              "internalType": "uint64",
              "name": "blockNumber",
              "type": "uint64"
            },
            {
              "internalType": "uint64",
              "name": "blockTimestamp",
              "type": "uint64"
            },
            {
              "internalType": "bytes32",
              "name": "transactionHash",
              "type": "bytes32"
            },
            {
              "internalType": "uint8",
              "name": "inUtxo",
              "type": "uint8"
            },
            {
              "internalType": "bytes32",
              "name": "sourceAddressHash",
              "type": "bytes32"
            },
            {
              "internalType": "int256",
              "name": "spentAmount",
              "type": "int256"
            },
            {
              "internalType": "bytes32",
              "name": "paymentReference",
              "type": "bytes32"
            }
          ],
          "internalType": "struct IAttestationClient.BalanceDecreasingTransaction[]",
          "name": "_payments",
          "type": "tuple[]"
        },
        {
          "internalType": "address",
          "name": "_agentVault",
          "type": "address"
        }
      ],
      "name": "freeBalanceNegativeChallenge",
      "outputs": [],
      "stateMutability": "nonpayable",
      "type": "function"
    },
    {
      "inputs": [
        {
          "internalType": "address",
          "name": "_agentVault",
          "type": "address"
        }
      ],
      "name": "getAgentInfo",
      "outputs": [
        {
          "components": [
            {
              "internalType": "enum FullAgentInfo.AgentStatusInfo",
              "name": "status",
              "type": "uint8"
            },
            {
              "internalType": "address",
              "name": "ownerColdWalletAddress",
              "type": "address"
            },
            {
              "internalType": "address",
              "name": "ownerHotWalletAddress",
              "type": "address"
            },
            {
              "internalType": "address",
              "name": "collateralPool",
              "type": "address"
            },
            {
              "internalType": "string",
              "name": "underlyingAddressString",
              "type": "string"
            },
            {
              "internalType": "bool",
              "name": "publiclyAvailable",
              "type": "bool"
            },
            {
              "internalType": "uint256",
              "name": "feeBIPS",
              "type": "uint256"
            },
            {
              "internalType": "uint256",
              "name": "poolFeeShareBIPS",
              "type": "uint256"
            },
            {
              "internalType": "contract IERC20",
              "name": "class1CollateralToken",
              "type": "address"
            },
            {
              "internalType": "uint256",
              "name": "mintingClass1CollateralRatioBIPS",
              "type": "uint256"
            },
            {
              "internalType": "uint256",
              "name": "mintingPoolCollateralRatioBIPS",
              "type": "uint256"
            },
            {
              "internalType": "uint256",
              "name": "freeCollateralLots",
              "type": "uint256"
            },
            {
              "internalType": "uint256",
              "name": "totalClass1CollateralWei",
              "type": "uint256"
            },
            {
              "internalType": "uint256",
              "name": "freeClass1CollateralWei",
              "type": "uint256"
            },
            {
              "internalType": "uint256",
              "name": "class1CollateralRatioBIPS",
              "type": "uint256"
            },
            {
              "internalType": "uint256",
              "name": "totalPoolCollateralNATWei",
              "type": "uint256"
            },
            {
              "internalType": "uint256",
              "name": "freePoolCollateralNATWei",
              "type": "uint256"
            },
            {
              "internalType": "uint256",
              "name": "poolCollateralRatioBIPS",
              "type": "uint256"
            },
            {
              "internalType": "uint256",
              "name": "totalAgentPoolTokensWei",
              "type": "uint256"
            },
            {
              "internalType": "uint256",
              "name": "announcedClass1WithdrawalWei",
              "type": "uint256"
            },
            {
              "internalType": "uint256",
              "name": "announcedPoolTokensWithdrawalWei",
              "type": "uint256"
            },
            {
              "internalType": "uint256",
              "name": "freeAgentPoolTokensWei",
              "type": "uint256"
            },
            {
              "internalType": "uint256",
              "name": "mintedUBA",
              "type": "uint256"
            },
            {
              "internalType": "uint256",
              "name": "reservedUBA",
              "type": "uint256"
            },
            {
              "internalType": "uint256",
              "name": "redeemingUBA",
              "type": "uint256"
            },
            {
              "internalType": "uint256",
              "name": "poolRedeemingUBA",
              "type": "uint256"
            },
            {
              "internalType": "uint256",
              "name": "dustUBA",
              "type": "uint256"
            },
            {
              "internalType": "uint256",
              "name": "ccbStartTimestamp",
              "type": "uint256"
            },
            {
              "internalType": "uint256",
              "name": "liquidationStartTimestamp",
              "type": "uint256"
            },
            {
              "internalType": "uint256",
              "name": "underlyingBalanceUBA",
              "type": "uint256"
            },
            {
              "internalType": "uint256",
              "name": "requiredUnderlyingBalanceUBA",
              "type": "uint256"
            },
            {
              "internalType": "int256",
              "name": "freeUnderlyingBalanceUBA",
              "type": "int256"
            },
            {
              "internalType": "uint256",
              "name": "announcedUnderlyingWithdrawalId",
              "type": "uint256"
            },
            {
              "internalType": "uint256",
              "name": "buyFAssetByAgentFactorBIPS",
              "type": "uint256"
            },
            {
              "internalType": "uint256",
              "name": "poolExitCollateralRatioBIPS",
              "type": "uint256"
            },
            {
              "internalType": "uint256",
              "name": "poolTopupCollateralRatioBIPS",
              "type": "uint256"
            },
            {
              "internalType": "uint256",
              "name": "poolTopupTokenPriceFactorBIPS",
              "type": "uint256"
            }
          ],
          "internalType": "struct FullAgentInfo.AgentInfo",
          "name": "",
          "type": "tuple"
        }
      ],
      "stateMutability": "view",
      "type": "function"
    },
    {
      "inputs": [
        {
          "internalType": "address",
          "name": "_agentVault",
          "type": "address"
        }
      ],
      "name": "getAgentVaultOwner",
      "outputs": [
        {
          "internalType": "address",
          "name": "_ownerColdAddress",
          "type": "address"
        },
        {
          "internalType": "address",
          "name": "_ownerHotAddress",
          "type": "address"
        }
      ],
      "stateMutability": "view",
      "type": "function"
    },
    {
      "inputs": [
        {
          "internalType": "uint256",
          "name": "_start",
          "type": "uint256"
        },
        {
          "internalType": "uint256",
          "name": "_end",
          "type": "uint256"
        }
      ],
      "name": "getAllAgents",
      "outputs": [
        {
          "internalType": "address[]",
          "name": "_agents",
          "type": "address[]"
        },
        {
          "internalType": "uint256",
          "name": "_totalLength",
          "type": "uint256"
        }
      ],
      "stateMutability": "view",
      "type": "function"
    },
    {
      "inputs": [
        {
          "internalType": "uint256",
          "name": "_start",
          "type": "uint256"
        },
        {
          "internalType": "uint256",
          "name": "_end",
          "type": "uint256"
        }
      ],
      "name": "getAvailableAgentsDetailedList",
      "outputs": [
        {
          "components": [
            {
              "internalType": "address",
              "name": "agentVault",
              "type": "address"
            },
            {
              "internalType": "uint256",
              "name": "feeBIPS",
              "type": "uint256"
            },
            {
              "internalType": "uint256",
              "name": "mintingClass1CollateralRatioBIPS",
              "type": "uint256"
            },
            {
              "internalType": "uint256",
              "name": "mintingPoolCollateralRatioBIPS",
              "type": "uint256"
            },
            {
              "internalType": "uint256",
              "name": "freeCollateralLots",
              "type": "uint256"
            }
          ],
          "internalType": "struct AvailableAgents.AgentInfo[]",
          "name": "_agents",
          "type": "tuple[]"
        },
        {
          "internalType": "uint256",
          "name": "_totalLength",
          "type": "uint256"
        }
      ],
      "stateMutability": "view",
      "type": "function"
    },
    {
      "inputs": [
        {
          "internalType": "uint256",
          "name": "_start",
          "type": "uint256"
        },
        {
          "internalType": "uint256",
          "name": "_end",
          "type": "uint256"
        }
      ],
      "name": "getAvailableAgentsList",
      "outputs": [
        {
          "internalType": "address[]",
          "name": "_agents",
          "type": "address[]"
        },
        {
          "internalType": "uint256",
          "name": "_totalLength",
          "type": "uint256"
        }
      ],
      "stateMutability": "view",
      "type": "function"
    },
    {
      "inputs": [
        {
          "internalType": "address",
          "name": "_agentVault",
          "type": "address"
        }
      ],
      "name": "getCollateralPool",
      "outputs": [
        {
          "internalType": "address",
          "name": "",
          "type": "address"
        }
      ],
      "stateMutability": "view",
      "type": "function"
    },
    {
      "inputs": [
        {
          "internalType": "enum IAssetManager.CollateralTokenClass",
          "name": "_tokenClass",
          "type": "uint8"
        },
        {
          "internalType": "contract IERC20",
          "name": "_token",
          "type": "address"
        }
      ],
      "name": "getCollateralToken",
      "outputs": [
        {
          "components": [
            {
              "internalType": "enum IAssetManager.CollateralTokenClass",
              "name": "tokenClass",
              "type": "uint8"
            },
            {
              "internalType": "contract IERC20",
              "name": "token",
              "type": "address"
            },
            {
              "internalType": "uint256",
              "name": "decimals",
              "type": "uint256"
            },
            {
              "internalType": "uint256",
              "name": "validUntil",
              "type": "uint256"
            },
            {
              "internalType": "bool",
              "name": "directPricePair",
              "type": "bool"
            },
            {
              "internalType": "string",
              "name": "assetFtsoSymbol",
              "type": "string"
            },
            {
              "internalType": "string",
              "name": "tokenFtsoSymbol",
              "type": "string"
            },
            {
              "internalType": "uint256",
              "name": "minCollateralRatioBIPS",
              "type": "uint256"
            },
            {
              "internalType": "uint256",
              "name": "ccbMinCollateralRatioBIPS",
              "type": "uint256"
            },
            {
              "internalType": "uint256",
              "name": "safetyMinCollateralRatioBIPS",
              "type": "uint256"
            }
          ],
          "internalType": "struct IAssetManager.CollateralTokenInfo",
          "name": "",
          "type": "tuple"
        }
      ],
      "stateMutability": "view",
      "type": "function"
    },
    {
      "inputs": [],
      "name": "getCollateralTokens",
      "outputs": [
        {
          "components": [
            {
              "internalType": "enum IAssetManager.CollateralTokenClass",
              "name": "tokenClass",
              "type": "uint8"
            },
            {
              "internalType": "contract IERC20",
              "name": "token",
              "type": "address"
            },
            {
              "internalType": "uint256",
              "name": "decimals",
              "type": "uint256"
            },
            {
              "internalType": "uint256",
              "name": "validUntil",
              "type": "uint256"
            },
            {
              "internalType": "bool",
              "name": "directPricePair",
              "type": "bool"
            },
            {
              "internalType": "string",
              "name": "assetFtsoSymbol",
              "type": "string"
            },
            {
              "internalType": "string",
              "name": "tokenFtsoSymbol",
              "type": "string"
            },
            {
              "internalType": "uint256",
              "name": "minCollateralRatioBIPS",
              "type": "uint256"
            },
            {
              "internalType": "uint256",
              "name": "ccbMinCollateralRatioBIPS",
              "type": "uint256"
            },
            {
              "internalType": "uint256",
              "name": "safetyMinCollateralRatioBIPS",
              "type": "uint256"
            }
          ],
          "internalType": "struct IAssetManager.CollateralTokenInfo[]",
          "name": "",
          "type": "tuple[]"
        }
      ],
      "stateMutability": "view",
      "type": "function"
    },
    {
      "inputs": [
        {
          "internalType": "address",
          "name": "_agentVault",
          "type": "address"
        }
      ],
      "name": "getFAssetsBackedByPool",
      "outputs": [
        {
          "internalType": "uint256",
          "name": "",
          "type": "uint256"
        }
      ],
      "stateMutability": "view",
      "type": "function"
    },
    {
      "inputs": [],
      "name": "getLiquidationSettings",
      "outputs": [
        {
          "internalType": "bytes",
          "name": "",
          "type": "bytes"
        }
      ],
      "stateMutability": "view",
      "type": "function"
    },
    {
      "inputs": [],
      "name": "getLotSize",
      "outputs": [
        {
          "internalType": "uint256",
          "name": "_lotSizeUBA",
          "type": "uint256"
        }
      ],
      "stateMutability": "view",
      "type": "function"
    },
    {
      "inputs": [],
      "name": "getSettings",
      "outputs": [
        {
          "components": [
            {
              "internalType": "address",
              "name": "assetManagerController",
              "type": "address"
            },
            {
              "internalType": "contract IFAsset",
              "name": "fAsset",
              "type": "address"
            },
            {
              "internalType": "contract IAgentVaultFactory",
              "name": "agentVaultFactory",
              "type": "address"
            },
            {
              "internalType": "contract ICollateralPoolFactory",
              "name": "collateralPoolFactory",
              "type": "address"
            },
            {
              "internalType": "contract IWhitelist",
              "name": "whitelist",
              "type": "address"
            },
            {
              "internalType": "contract IWhitelist",
              "name": "agentWhitelist",
              "type": "address"
            },
            {
              "internalType": "contract IAttestationClient",
              "name": "attestationClient",
              "type": "address"
            },
            {
              "internalType": "contract IAddressValidator",
              "name": "underlyingAddressValidator",
              "type": "address"
            },
            {
              "internalType": "address",
              "name": "liquidationStrategy",
              "type": "address"
            },
            {
              "internalType": "contract IFtsoRegistry",
              "name": "ftsoRegistry",
              "type": "address"
            },
            {
              "internalType": "uint8",
              "name": "assetDecimals",
              "type": "uint8"
            },
            {
              "internalType": "uint8",
              "name": "assetMintingDecimals",
              "type": "uint8"
            },
            {
              "internalType": "uint32",
              "name": "mintingPoolHoldingsRequiredBIPS",
              "type": "uint32"
            },
            {
              "internalType": "address payable",
              "name": "burnAddress",
              "type": "address"
            },
            {
              "internalType": "bool",
              "name": "burnWithSelfDestruct",
              "type": "bool"
            },
            {
              "internalType": "uint32",
              "name": "chainId",
              "type": "uint32"
            },
            {
              "internalType": "uint16",
              "name": "collateralReservationFeeBIPS",
              "type": "uint16"
            },
            {
              "internalType": "uint64",
              "name": "assetUnitUBA",
              "type": "uint64"
            },
            {
              "internalType": "uint64",
              "name": "assetMintingGranularityUBA",
              "type": "uint64"
            },
            {
              "internalType": "uint64",
              "name": "lotSizeAMG",
              "type": "uint64"
            },
            {
              "internalType": "uint16",
              "name": "minUnderlyingBackingBIPS",
              "type": "uint16"
            },
            {
              "internalType": "uint64",
              "name": "mintingCapAMG",
              "type": "uint64"
            },
            {
              "internalType": "uint64",
              "name": "maxTrustedPriceAgeSeconds",
              "type": "uint64"
            },
            {
              "internalType": "bool",
              "name": "requireEOAAddressProof",
              "type": "bool"
            },
            {
              "internalType": "uint64",
              "name": "underlyingBlocksForPayment",
              "type": "uint64"
            },
            {
              "internalType": "uint64",
              "name": "underlyingSecondsForPayment",
              "type": "uint64"
            },
            {
              "internalType": "uint16",
              "name": "redemptionFeeBIPS",
              "type": "uint16"
            },
            {
              "internalType": "uint32",
              "name": "redemptionDefaultFactorAgentC1BIPS",
              "type": "uint32"
            },
            {
              "internalType": "uint32",
              "name": "redemptionDefaultFactorPoolBIPS",
              "type": "uint32"
            },
            {
              "internalType": "uint64",
              "name": "confirmationByOthersAfterSeconds",
              "type": "uint64"
            },
            {
              "internalType": "uint128",
              "name": "confirmationByOthersRewardUSD5",
              "type": "uint128"
            },
            {
              "internalType": "uint16",
              "name": "maxRedeemedTickets",
              "type": "uint16"
            },
            {
              "internalType": "uint16",
              "name": "paymentChallengeRewardBIPS",
              "type": "uint16"
            },
            {
              "internalType": "uint128",
              "name": "paymentChallengeRewardUSD5",
              "type": "uint128"
            },
            {
              "internalType": "uint64",
              "name": "withdrawalWaitMinSeconds",
              "type": "uint64"
            },
            {
              "internalType": "uint64",
              "name": "ccbTimeSeconds",
              "type": "uint64"
            },
            {
              "internalType": "uint64",
              "name": "attestationWindowSeconds",
              "type": "uint64"
            },
            {
              "internalType": "uint64",
              "name": "minUpdateRepeatTimeSeconds",
              "type": "uint64"
            },
            {
              "internalType": "uint64",
              "name": "buybackCollateralFactorBIPS",
              "type": "uint64"
            },
            {
              "internalType": "uint64",
              "name": "announcedUnderlyingConfirmationMinSeconds",
              "type": "uint64"
            },
            {
              "internalType": "uint64",
              "name": "tokenInvalidationTimeMinSeconds",
              "type": "uint64"
            },
            {
              "internalType": "uint32",
              "name": "class1BuyForFlareFactorBIPS",
              "type": "uint32"
            },
            {
              "internalType": "uint64",
              "name": "agentExitAvailableTimelockSeconds",
              "type": "uint64"
            },
            {
              "internalType": "uint64",
              "name": "agentFeeChangeTimelockSeconds",
              "type": "uint64"
            },
            {
              "internalType": "uint64",
              "name": "agentCollateralRatioChangeTimelockSeconds",
              "type": "uint64"
            }
          ],
          "internalType": "struct AssetManagerSettings.Data",
          "name": "",
          "type": "tuple"
        }
      ],
      "stateMutability": "view",
      "type": "function"
    },
    {
      "inputs": [],
      "name": "getWNat",
      "outputs": [
        {
          "internalType": "contract IWNat",
          "name": "",
          "type": "address"
        }
      ],
      "stateMutability": "view",
      "type": "function"
    },
    {
      "inputs": [
        {
          "components": [
            {
              "internalType": "uint256",
              "name": "stateConnectorRound",
              "type": "uint256"
            },
            {
              "internalType": "bytes32[]",
              "name": "merkleProof",
              "type": "bytes32[]"
            },
            {
              "internalType": "uint64",
              "name": "blockNumber",
              "type": "uint64"
            },
            {
              "internalType": "uint64",
              "name": "blockTimestamp",
              "type": "uint64"
            },
            {
              "internalType": "bytes32",
              "name": "transactionHash",
              "type": "bytes32"
            },
            {
              "internalType": "uint8",
              "name": "inUtxo",
              "type": "uint8"
            },
            {
              "internalType": "bytes32",
              "name": "sourceAddressHash",
              "type": "bytes32"
            },
            {
              "internalType": "int256",
              "name": "spentAmount",
              "type": "int256"
            },
            {
              "internalType": "bytes32",
              "name": "paymentReference",
              "type": "bytes32"
            }
          ],
          "internalType": "struct IAttestationClient.BalanceDecreasingTransaction",
          "name": "_transaction",
          "type": "tuple"
        },
        {
          "internalType": "address",
          "name": "_agentVault",
          "type": "address"
        }
      ],
      "name": "illegalPaymentChallenge",
      "outputs": [],
      "stateMutability": "nonpayable",
      "type": "function"
    },
    {
      "inputs": [
        {
          "internalType": "address",
          "name": "_agentVault",
          "type": "address"
        },
        {
          "internalType": "address",
          "name": "_address",
          "type": "address"
        }
      ],
      "name": "isAgentVaultOwner",
      "outputs": [
        {
          "internalType": "bool",
          "name": "",
          "type": "bool"
        }
      ],
      "stateMutability": "view",
      "type": "function"
    },
    {
      "inputs": [
        {
          "internalType": "address",
          "name": "_agentVault",
          "type": "address"
        },
        {
          "internalType": "contract IERC20",
          "name": "_token",
          "type": "address"
        }
      ],
      "name": "isCollateralToken",
      "outputs": [
        {
          "internalType": "bool",
          "name": "",
          "type": "bool"
        }
      ],
      "stateMutability": "view",
      "type": "function"
    },
    {
      "inputs": [
        {
          "internalType": "address",
          "name": "_agentVault",
          "type": "address"
        },
        {
          "internalType": "uint256",
          "name": "_amountUBA",
          "type": "uint256"
        }
      ],
      "name": "liquidate",
      "outputs": [
        {
          "internalType": "uint256",
          "name": "_liquidatedAmountUBA",
          "type": "uint256"
        },
        {
          "internalType": "uint256",
          "name": "_amountPaidClass1",
          "type": "uint256"
        },
        {
          "internalType": "uint256",
          "name": "_amountPaidPool",
          "type": "uint256"
        }
      ],
      "stateMutability": "nonpayable",
      "type": "function"
    },
    {
      "inputs": [
        {
          "internalType": "address",
          "name": "_agentVault",
          "type": "address"
        }
      ],
      "name": "makeAgentAvailable",
      "outputs": [],
      "stateMutability": "nonpayable",
      "type": "function"
    },
    {
      "inputs": [
        {
          "components": [
            {
              "internalType": "uint256",
              "name": "stateConnectorRound",
              "type": "uint256"
            },
            {
              "internalType": "bytes32[]",
              "name": "merkleProof",
              "type": "bytes32[]"
            },
            {
              "internalType": "uint64",
              "name": "deadlineBlockNumber",
              "type": "uint64"
            },
            {
              "internalType": "uint64",
              "name": "deadlineTimestamp",
              "type": "uint64"
            },
            {
              "internalType": "bytes32",
              "name": "destinationAddressHash",
              "type": "bytes32"
            },
            {
              "internalType": "bytes32",
              "name": "paymentReference",
              "type": "bytes32"
            },
            {
              "internalType": "uint128",
              "name": "amount",
              "type": "uint128"
            },
            {
              "internalType": "uint64",
              "name": "lowerBoundaryBlockNumber",
              "type": "uint64"
            },
            {
              "internalType": "uint64",
              "name": "lowerBoundaryBlockTimestamp",
              "type": "uint64"
            },
            {
              "internalType": "uint64",
              "name": "firstOverflowBlockNumber",
              "type": "uint64"
            },
            {
              "internalType": "uint64",
              "name": "firstOverflowBlockTimestamp",
              "type": "uint64"
            }
          ],
          "internalType": "struct IAttestationClient.ReferencedPaymentNonexistence",
          "name": "_proof",
          "type": "tuple"
        },
        {
          "internalType": "uint256",
          "name": "_collateralReservationId",
          "type": "uint256"
        }
      ],
      "name": "mintingPaymentDefault",
      "outputs": [],
      "stateMutability": "nonpayable",
      "type": "function"
    },
    {
      "inputs": [],
      "name": "pause",
      "outputs": [],
      "stateMutability": "nonpayable",
      "type": "function"
    },
    {
      "inputs": [],
      "name": "paused",
      "outputs": [
        {
          "internalType": "bool",
          "name": "",
          "type": "bool"
        }
      ],
      "stateMutability": "view",
      "type": "function"
    },
    {
      "inputs": [
        {
          "components": [
            {
              "internalType": "uint256",
              "name": "stateConnectorRound",
              "type": "uint256"
            },
            {
              "internalType": "bytes32[]",
              "name": "merkleProof",
              "type": "bytes32[]"
            },
            {
              "internalType": "uint64",
              "name": "blockNumber",
              "type": "uint64"
            },
            {
              "internalType": "uint64",
              "name": "blockTimestamp",
              "type": "uint64"
            },
            {
              "internalType": "bytes32",
              "name": "transactionHash",
              "type": "bytes32"
            },
            {
              "internalType": "uint8",
              "name": "inUtxo",
              "type": "uint8"
            },
            {
              "internalType": "uint8",
              "name": "utxo",
              "type": "uint8"
            },
            {
              "internalType": "bytes32",
              "name": "sourceAddressHash",
              "type": "bytes32"
            },
            {
              "internalType": "bytes32",
              "name": "receivingAddressHash",
              "type": "bytes32"
            },
            {
              "internalType": "int256",
              "name": "spentAmount",
              "type": "int256"
            },
            {
              "internalType": "int256",
              "name": "receivedAmount",
              "type": "int256"
            },
            {
              "internalType": "bytes32",
              "name": "paymentReference",
              "type": "bytes32"
            },
            {
              "internalType": "bool",
              "name": "oneToOne",
              "type": "bool"
            },
            {
              "internalType": "uint8",
              "name": "status",
              "type": "uint8"
            }
          ],
          "internalType": "struct IAttestationClient.Payment",
          "name": "_payment",
          "type": "tuple"
        }
      ],
      "name": "proveUnderlyingAddressEOA",
      "outputs": [],
      "stateMutability": "nonpayable",
      "type": "function"
    },
    {
      "inputs": [
        {
          "internalType": "uint256",
          "name": "_lots",
          "type": "uint256"
        },
        {
          "internalType": "string",
          "name": "_redeemerUnderlyingAddressString",
          "type": "string"
        }
      ],
      "name": "redeem",
      "outputs": [],
      "stateMutability": "nonpayable",
      "type": "function"
    },
    {
      "inputs": [
        {
          "internalType": "address",
          "name": "_agentVault",
          "type": "address"
        },
        {
          "internalType": "address",
          "name": "_receiver",
          "type": "address"
        },
        {
          "internalType": "uint256",
          "name": "_amountUBA",
          "type": "uint256"
        },
        {
          "internalType": "string",
          "name": "_receiverUnderlyingAddress",
          "type": "string"
        }
      ],
      "name": "redeemFromAgent",
      "outputs": [],
      "stateMutability": "nonpayable",
      "type": "function"
    },
    {
      "inputs": [
        {
          "internalType": "address",
          "name": "_agentVault",
          "type": "address"
        },
        {
          "internalType": "address",
          "name": "_receiver",
          "type": "address"
        },
        {
          "internalType": "uint256",
          "name": "_amountUBA",
          "type": "uint256"
        }
      ],
      "name": "redeemFromAgentInCollateral",
      "outputs": [],
      "stateMutability": "nonpayable",
      "type": "function"
    },
    {
      "inputs": [
        {
          "components": [
            {
              "internalType": "uint256",
              "name": "stateConnectorRound",
              "type": "uint256"
            },
            {
              "internalType": "bytes32[]",
              "name": "merkleProof",
              "type": "bytes32[]"
            },
            {
              "internalType": "uint64",
              "name": "deadlineBlockNumber",
              "type": "uint64"
            },
            {
              "internalType": "uint64",
              "name": "deadlineTimestamp",
              "type": "uint64"
            },
            {
              "internalType": "bytes32",
              "name": "destinationAddressHash",
              "type": "bytes32"
            },
            {
              "internalType": "bytes32",
              "name": "paymentReference",
              "type": "bytes32"
            },
            {
              "internalType": "uint128",
              "name": "amount",
              "type": "uint128"
            },
            {
              "internalType": "uint64",
              "name": "lowerBoundaryBlockNumber",
              "type": "uint64"
            },
            {
              "internalType": "uint64",
              "name": "lowerBoundaryBlockTimestamp",
              "type": "uint64"
            },
            {
              "internalType": "uint64",
              "name": "firstOverflowBlockNumber",
              "type": "uint64"
            },
            {
              "internalType": "uint64",
              "name": "firstOverflowBlockTimestamp",
              "type": "uint64"
            }
          ],
          "internalType": "struct IAttestationClient.ReferencedPaymentNonexistence",
          "name": "_proof",
          "type": "tuple"
        },
        {
          "internalType": "uint256",
          "name": "_redemptionRequestId",
          "type": "uint256"
        }
      ],
      "name": "redemptionPaymentDefault",
      "outputs": [],
      "stateMutability": "nonpayable",
      "type": "function"
    },
    {
      "inputs": [
        {
          "internalType": "address",
          "name": "_agentVault",
          "type": "address"
        },
        {
          "internalType": "uint256",
          "name": "_lots",
          "type": "uint256"
        },
        {
          "internalType": "uint256",
          "name": "_maxMintingFeeBIPS",
          "type": "uint256"
        }
      ],
      "name": "reserveCollateral",
      "outputs": [],
      "stateMutability": "payable",
      "type": "function"
    },
    {
      "inputs": [
        {
          "internalType": "address",
          "name": "_agentVault",
          "type": "address"
        },
        {
          "internalType": "uint256",
          "name": "_amountUBA",
          "type": "uint256"
        }
      ],
      "name": "selfClose",
      "outputs": [],
      "stateMutability": "nonpayable",
      "type": "function"
    },
    {
      "inputs": [
        {
          "components": [
            {
              "internalType": "uint256",
              "name": "stateConnectorRound",
              "type": "uint256"
            },
            {
              "internalType": "bytes32[]",
              "name": "merkleProof",
              "type": "bytes32[]"
            },
            {
              "internalType": "uint64",
              "name": "blockNumber",
              "type": "uint64"
            },
            {
              "internalType": "uint64",
              "name": "blockTimestamp",
              "type": "uint64"
            },
            {
              "internalType": "bytes32",
              "name": "transactionHash",
              "type": "bytes32"
            },
            {
              "internalType": "uint8",
              "name": "inUtxo",
              "type": "uint8"
            },
            {
              "internalType": "uint8",
              "name": "utxo",
              "type": "uint8"
            },
            {
              "internalType": "bytes32",
              "name": "sourceAddressHash",
              "type": "bytes32"
            },
            {
              "internalType": "bytes32",
              "name": "receivingAddressHash",
              "type": "bytes32"
            },
            {
              "internalType": "int256",
              "name": "spentAmount",
              "type": "int256"
            },
            {
              "internalType": "int256",
              "name": "receivedAmount",
              "type": "int256"
            },
            {
              "internalType": "bytes32",
              "name": "paymentReference",
              "type": "bytes32"
            },
            {
              "internalType": "bool",
              "name": "oneToOne",
              "type": "bool"
            },
            {
              "internalType": "uint8",
              "name": "status",
              "type": "uint8"
            }
          ],
          "internalType": "struct IAttestationClient.Payment",
          "name": "_payment",
          "type": "tuple"
        },
        {
          "internalType": "address",
          "name": "_agentVault",
          "type": "address"
        },
        {
          "internalType": "uint256",
          "name": "_lots",
          "type": "uint256"
        }
      ],
      "name": "selfMint",
      "outputs": [],
      "stateMutability": "nonpayable",
      "type": "function"
    },
    {
      "inputs": [
        {
          "internalType": "enum IAssetManager.CollateralTokenClass",
          "name": "_tokenClass",
          "type": "uint8"
        },
        {
          "internalType": "contract IERC20",
          "name": "_token",
          "type": "address"
        },
        {
          "internalType": "uint256",
          "name": "_minCollateralRatioBIPS",
          "type": "uint256"
        },
        {
          "internalType": "uint256",
          "name": "_ccbMinCollateralRatioBIPS",
          "type": "uint256"
        },
        {
          "internalType": "uint256",
          "name": "_safetyMinCollateralRatioBIPS",
          "type": "uint256"
        }
      ],
      "name": "setCollateralRatiosForToken",
      "outputs": [],
      "stateMutability": "nonpayable",
      "type": "function"
    },
    {
      "inputs": [
        {
          "internalType": "address",
          "name": "_ownerHotAddress",
          "type": "address"
        }
      ],
      "name": "setOwnerHotAddress",
      "outputs": [],
      "stateMutability": "nonpayable",
      "type": "function"
    },
    {
      "inputs": [
        {
          "components": [
            {
              "internalType": "enum IAssetManager.CollateralTokenClass",
              "name": "tokenClass",
              "type": "uint8"
            },
            {
              "internalType": "contract IERC20",
              "name": "token",
              "type": "address"
            },
            {
              "internalType": "uint256",
              "name": "decimals",
              "type": "uint256"
            },
            {
              "internalType": "uint256",
              "name": "validUntil",
              "type": "uint256"
            },
            {
              "internalType": "bool",
              "name": "directPricePair",
              "type": "bool"
            },
            {
              "internalType": "string",
              "name": "assetFtsoSymbol",
              "type": "string"
            },
            {
              "internalType": "string",
              "name": "tokenFtsoSymbol",
              "type": "string"
            },
            {
              "internalType": "uint256",
              "name": "minCollateralRatioBIPS",
              "type": "uint256"
            },
            {
              "internalType": "uint256",
              "name": "ccbMinCollateralRatioBIPS",
              "type": "uint256"
            },
            {
              "internalType": "uint256",
              "name": "safetyMinCollateralRatioBIPS",
              "type": "uint256"
            }
          ],
          "internalType": "struct IAssetManager.CollateralTokenInfo",
          "name": "_data",
          "type": "tuple"
        }
      ],
      "name": "setPoolCollateralToken",
      "outputs": [],
      "stateMutability": "nonpayable",
      "type": "function"
    },
    {
      "inputs": [
        {
          "internalType": "address",
          "name": "_agentVault",
          "type": "address"
        }
      ],
      "name": "startLiquidation",
      "outputs": [],
      "stateMutability": "nonpayable",
      "type": "function"
    },
    {
      "inputs": [],
      "name": "terminate",
      "outputs": [],
      "stateMutability": "nonpayable",
      "type": "function"
    },
    {
      "inputs": [],
      "name": "unpause",
      "outputs": [],
      "stateMutability": "nonpayable",
      "type": "function"
    },
    {
      "inputs": [
        {
          "components": [
            {
              "internalType": "uint256",
              "name": "stateConnectorRound",
              "type": "uint256"
            },
            {
              "internalType": "bytes32[]",
              "name": "merkleProof",
              "type": "bytes32[]"
            },
            {
              "internalType": "uint64",
              "name": "blockNumber",
              "type": "uint64"
            },
            {
              "internalType": "uint64",
              "name": "blockTimestamp",
              "type": "uint64"
            },
            {
              "internalType": "uint8",
              "name": "numberOfConfirmations",
              "type": "uint8"
            },
            {
              "internalType": "uint64",
              "name": "averageBlockProductionTimeMs",
              "type": "uint64"
            },
            {
              "internalType": "uint64",
              "name": "lowestQueryWindowBlockNumber",
              "type": "uint64"
            },
            {
              "internalType": "uint64",
              "name": "lowestQueryWindowBlockTimestamp",
              "type": "uint64"
            }
          ],
          "internalType": "struct IAttestationClient.ConfirmedBlockHeightExists",
          "name": "_proof",
          "type": "tuple"
        },
        {
          "internalType": "uint256",
          "name": "_collateralReservationId",
          "type": "uint256"
        }
      ],
      "name": "unstickMinting",
      "outputs": [],
      "stateMutability": "payable",
      "type": "function"
    },
    {
      "inputs": [
        {
          "components": [
            {
              "internalType": "uint256",
              "name": "stateConnectorRound",
              "type": "uint256"
            },
            {
              "internalType": "bytes32[]",
              "name": "merkleProof",
              "type": "bytes32[]"
            },
            {
              "internalType": "uint64",
              "name": "blockNumber",
              "type": "uint64"
            },
            {
              "internalType": "uint64",
              "name": "blockTimestamp",
              "type": "uint64"
            },
            {
              "internalType": "uint8",
              "name": "numberOfConfirmations",
              "type": "uint8"
            },
            {
              "internalType": "uint64",
              "name": "averageBlockProductionTimeMs",
              "type": "uint64"
            },
            {
              "internalType": "uint64",
              "name": "lowestQueryWindowBlockNumber",
              "type": "uint64"
            },
            {
              "internalType": "uint64",
              "name": "lowestQueryWindowBlockTimestamp",
              "type": "uint64"
            }
          ],
          "internalType": "struct IAttestationClient.ConfirmedBlockHeightExists",
          "name": "_proof",
          "type": "tuple"
        }
      ],
      "name": "updateCurrentBlock",
      "outputs": [],
      "stateMutability": "nonpayable",
      "type": "function"
    },
    {
      "inputs": [
        {
          "internalType": "bytes32",
          "name": "_method",
          "type": "bytes32"
        },
        {
          "internalType": "bytes",
          "name": "_params",
          "type": "bytes"
        }
      ],
      "name": "updateSettings",
      "outputs": [],
      "stateMutability": "nonpayable",
      "type": "function"
    },
    {
      "inputs": [
        {
          "internalType": "address",
          "name": "_agentVault",
          "type": "address"
        }
      ],
      "name": "upgradeWNatContract",
      "outputs": [],
      "stateMutability": "nonpayable",
      "type": "function"
    },
    {
      "inputs": [
        {
          "internalType": "contract IERC20",
          "name": "_token",
          "type": "address"
        },
        {
          "internalType": "uint256",
          "name": "_valueNATWei",
          "type": "uint256"
        }
      ],
      "name": "withdrawCollateral",
      "outputs": [],
      "stateMutability": "nonpayable",
      "type": "function"
    }
  ],
  "bytecode": "0x60806040523480156200001157600080fd5b5060405162006754380380620067548339810160408190526200003491620005e3565b600160005560405163658f4c6160e01b815273__$498fae630e5f9e2b0d2f5a14b70bbf8a29$__9063658f4c619062000072908690600401620009e9565b60006040518083038186803b1580156200008b57600080fd5b505af4158015620000a0573d6000803e3d6000fd5b505060405163e456a51d60e01b815273__$a539d901bea57a4b73d19093d1e9882040$__925063e456a51d9150620000dd90859060040162000d42565b60006040518083038186803b158015620000f657600080fd5b505af41580156200010b573d6000803e3d6000fd5b5050505062000125816200012e60201b62002aad1760201c565b50505062000e73565b600062000145620001c060201b62002b1d1760201c565b600801546040516001600160a01b039091169150600090829063439fab91906200017490869060240162000e39565b604051602081830303815290604052915060e01b6020820180516001600160e01b0383818316178352505050509050620001ba8282620001e460201b62002b2f1760201c565b50505050565b7fec7e8c1c441439dd40959777f4c577ea0cd42fcc1dbe59d2bd0f5d9c55df8db690565b6060600080846001600160a01b03168460405162000203919062000e55565b600060405180830381855af49150503d806000811462000240576040519150601f19603f3d011682016040523d82523d6000602084013e62000245565b606091505b509150915081156200025b5791506200026e9050565b3d604051818101604052816000823e8181fd5b92915050565b634e487b7160e01b600052604160045260246000fd5b60405161014081016001600160401b0381118282101715620002b057620002b062000274565b60405290565b6040516105a081016001600160401b0381118282101715620002b057620002b062000274565b604051601f8201601f191681016001600160401b038111828210171562000307576200030762000274565b604052919050565b80516001600160a01b03811681146200032757600080fd5b919050565b805160ff811681146200032757600080fd5b805163ffffffff811681146200032757600080fd5b805180151581146200032757600080fd5b805161ffff811681146200032757600080fd5b80516001600160401b03811681146200032757600080fd5b80516001600160801b03811681146200032757600080fd5b8051600381106200032757600080fd5b60005b83811015620003d4578181015183820152602001620003ba565b83811115620001ba5750506000910152565b600082601f830112620003f857600080fd5b81516001600160401b0381111562000414576200041462000274565b62000429601f8201601f1916602001620002dc565b8181528460208386010111156200043f57600080fd5b62000452826020830160208701620003b7565b949350505050565b600082601f8301126200046c57600080fd5b815160206001600160401b03808311156200048b576200048b62000274565b8260051b6200049c838201620002dc565b9384528581018301938381019088861115620004b757600080fd5b84880192505b85831015620005d757825184811115620004d75760008081fd5b8801610140818b03601f1901811315620004f15760008081fd5b620004fb6200028a565b62000508888401620003a7565b81526040620005198185016200030f565b89830152606080850151828401526080915081850151818401525060a06200054381860162000353565b8284015260c0915081850151898111156200055e5760008081fd5b6200056e8f8c83890101620003e6565b82850152505060e08085015189811115620005895760008081fd5b620005998f8c83890101620003e6565b8385015250610100915081850151818401525061012080850151828401528385015181840152505080855250505084820191508483019250620004bd565b98975050505050505050565b60008060008385036105e0811215620005fb57600080fd5b6105a0808212156200060c57600080fd5b62000616620002b6565b915062000623866200030f565b825262000633602087016200030f565b602083015262000646604087016200030f565b604083015262000659606087016200030f565b60608301526200066c608087016200030f565b60808301526200067f60a087016200030f565b60a08301526200069260c087016200030f565b60c0830152620006a560e087016200030f565b60e0830152610100620006ba8188016200030f565b90830152610120620006ce8782016200030f565b90830152610140620006e28782016200032c565b90830152610160620006f68782016200032c565b908301526101806200070a8782016200033e565b908301526101a06200071e8782016200030f565b908301526101c06200073287820162000353565b908301526101e0620007468782016200033e565b908301526102006200075a87820162000364565b908301526102206200076e87820162000377565b908301526102406200078287820162000377565b908301526102606200079687820162000377565b90830152610280620007aa87820162000364565b908301526102a0620007be87820162000377565b908301526102c0620007d287820162000377565b908301526102e0620007e687820162000353565b90830152610300620007fa87820162000377565b908301526103206200080e87820162000377565b908301526103406200082287820162000364565b90830152610360620008368782016200033e565b908301526103806200084a8782016200033e565b908301526103a06200085e87820162000377565b908301526103c0620008728782016200038f565b908301526103e06200088687820162000364565b908301526104006200089a87820162000364565b90830152610420620008ae8782016200038f565b90830152610440620008c287820162000377565b90830152610460620008d687820162000377565b90830152610480620008ea87820162000377565b908301526104a0620008fe87820162000377565b908301526104c06200091287820162000377565b908301526104e06200092687820162000377565b908301526105006200093a87820162000377565b908301526105206200094e8782016200033e565b908301526105406200096287820162000377565b908301526105606200097687820162000377565b908301526105806200098a87820162000377565b908301528501519093506001600160401b0380821115620009aa57600080fd5b620009b8878388016200045a565b93506105c0860151915080821115620009d057600080fd5b50620009df86828701620003e6565b9150509250925092565b81516001600160a01b031681526105a08101602083015162000a1660208401826001600160a01b03169052565b50604083015162000a3260408401826001600160a01b03169052565b50606083015162000a4e60608401826001600160a01b03169052565b50608083015162000a6a60808401826001600160a01b03169052565b5060a083015162000a8660a08401826001600160a01b03169052565b5060c083015162000aa260c08401826001600160a01b03169052565b5060e083015162000abe60e08401826001600160a01b03169052565b50610100838101516001600160a01b0390811691840191909152610120808501518216908401526101408085015160ff9081169185019190915261016080860151909116908401526101808085015163ffffffff908116918501919091526101a080860151909216918401919091526101c0808501511515908401526101e0808501518216908401526102008085015161ffff90811691850191909152610220808601516001600160401b03908116918601919091526102408087015182169086015261026080870151821690860152610280808701518316908601526102a0808701518216908601526102c0808701518216908601526102e08087015115159086015261030080870151821690860152610320808701518216908601526103408087015183169086015261036080870151841690860152610380808701518416908601526103a0808701518216908601526103c0808701516001600160801b03908116918701919091526103e080880151841690870152610400808801519093169286019290925261042080870151909216918501919091526104408086015182169085015261046080860151821690850152610480808601518216908501526104a0808601518216908501526104c0808601518216908501526104e08086015182169085015261050080860151821690850152610520808601519092169184019190915261054080850151821690840152610560808501518216908401526105809384015116929091019190915290565b6003811062000d1057634e487b7160e01b600052602160045260246000fd5b9052565b6000815180845262000d2e816020860160208601620003b7565b601f01601f19169290920160200192915050565b60006020808301818452808551808352604092508286019150828160051b87010184880160005b8381101562000e2b57603f19898403018552815161014062000d8d85835162000cf1565b888201516001600160a01b0316858a015287820151888601526060808301519086015260808083015115159086015260a08083015181870183905262000dd68388018262000d14565b9250505060c0808301518683038288015262000df3838262000d14565b60e085810151908901526101008086015190890152610120948501519490970193909352505050938601939086019060010162000d69565b509098975050505050505050565b60208152600062000e4e602083018462000d14565b9392505050565b6000825162000e69818460208701620003b7565b9190910192915050565b6158d18062000e836000396000f3fe6080604052600436106104105760003560e01c80638bf113261161021e578063d6b93a9f11610123578063ed3762aa116100ab578063f19d3c061161007a578063f19d3c0614610cd4578063f1d5133f14610cf4578063f4d000b214610d21578063f54ff23014610d41578063fd41d8ea14610d6157600080fd5b8063ed3762aa14610c5f578063ee80a23014610c7f578063f060b3f114610c9f578063f0c0b72514610cbf57600080fd5b8063e7732f91116100f2578063e7732f9114610bc8578063eb5abafc14610be8578063ec96c1c914610c08578063ecaf1cdf14610c2a578063ed000b3014610c3f57600080fd5b8063d6b93a9f14610b55578063dda4921314610b75578063e1c5010014610b88578063e415339c14610ba857600080fd5b8063b68af97e116101a6578063bcbaf48711610175578063bcbaf48714610aa7578063bd60353514610ae2578063bfead88714610af5578063c0674b4614610b15578063c4a5123e14610b3557600080fd5b8063b68af97e14610a34578063b7f658ab14610a47578063b928b53314610a67578063ba657a3614610a8757600080fd5b8063a07ea7af116101ed578063a07ea7af1461098f578063b046cd17146109af578063b19aec17146109cf578063b58eb63f146109fd578063b5a488a614610a1f57600080fd5b80638bf113261461090f5780638c9ea9761461092f5780639584da2a1461094f5780639928d99c1461096f57600080fd5b80633f4ba83a116103245780636e61164f116102ac5780638003314d1161027b5780638003314d1461086a57806383c57d14146108985780638456cb59146108b857806385b4bb53146108cd5780638ad2a950146108ef57600080fd5b80636e61164f146107d5578063753923f014610815578063778aadd5146108355780637c7db1a51461085557600080fd5b80635c975abb116102f35780635c975abb146107285780635cdf04b3146107555780635e71055c14610775578063612007e51461079557806365454f94146107b557600080fd5b80633f4ba83a146106835780635252f3a21461069857806353777730146106d057806353ed178e1461070857600080fd5b80631f819490116103a75780632a4c48a8116103765780632a4c48a8146105d55780632dabf2d0146105f5578063350c35e914610615578063368a3593146106355780633851b6141461066357600080fd5b80631f81949014610555578063249f1b591461057557806324b76fd514610595578063268b2ec1146105b557600080fd5b80630a4b9ec2116103e35780630a4b9ec2146104d35780630c08bf88146104f35780630ffb0e8614610508578063152052b01461052857600080fd5b806302312aec14610415578063025dfeb21461044457806304203930146104665780630877acff14610486575b600080fd5b34801561042157600080fd5b5061042a610d81565b604080519283526020830191909152015b60405180910390f35b34801561045057600080fd5b5061046461045f366004613523565b610dd5565b005b34801561047257600080fd5b50610464610481366004613574565b610e4c565b34801561049257600080fd5b507fec7e8c1c441439dd40959777f4c577ea0cd42fcc1dbe59d2bd0f5d9c55df8dd9546001600160401b03620100008204811691600160501b90041661042a565b3480156104df57600080fd5b506104646104ee366004613574565b610e8c565b3480156104ff57600080fd5b50610464610ed2565b34801561051457600080fd5b506104646105233660046136d2565b610fd8565b34801561053457600080fd5b50610548610543366004613574565b61105a565b60405161043b91906137ac565b34801561056157600080fd5b506104646105703660046139ee565b61121a565b34801561058157600080fd5b50610464610590366004613a4a565b61128f565b3480156105a157600080fd5b506104646105b0366004613a9b565b61130d565b3480156105c157600080fd5b506104646105d0366004613ae1565b611358565b3480156105e157600080fd5b506104646105f0366004613b3e565b611399565b34801561060157600080fd5b50610464610610366004613b72565b6113d0565b34801561062157600080fd5b50610464610630366004613b72565b61140c565b34801561064157600080fd5b50610655610650366004613b90565b611459565b60405190815260200161043b565b34801561066f57600080fd5b5061046461067e366004613574565b6114e7565b34801561068f57600080fd5b50610464611527565b3480156106a457600080fd5b506106b86106b3366004613574565b61161f565b6040516001600160a01b03909116815260200161043b565b3480156106dc57600080fd5b5060008051602061587c83398151915254600160401b900460ff165b604051901515815260200161043b565b34801561071457600080fd5b50610464610723366004613ba9565b61163a565b34801561073457600080fd5b5060008051602061587c833981519152546001600160401b031615156106f8565b34801561076157600080fd5b50610464610770366004613bf1565b61167b565b34801561078157600080fd5b50610464610790366004613574565b6116bc565b3480156107a157600080fd5b506104646107b0366004613574565b6116fc565b3480156107c157600080fd5b506104646107d0366004613574565b61173c565b3480156107e157600080fd5b506107f56107f0366004613574565b61177c565b604080516001600160a01b0393841681529290911660208301520161043b565b34801561082157600080fd5b50610464610830366004613ae1565b611805565b34801561084157600080fd5b50610464610850366004613c42565b611829565b34801561086157600080fd5b506106b8611871565b34801561087657600080fd5b5061088a610885366004613c70565b611880565b60405161043b929190613c92565b3480156108a457600080fd5b506104646108b3366004613d10565b611911565b3480156108c457600080fd5b50610464611989565b3480156108d957600080fd5b506108e26119ee565b60405161043b9190613d95565b3480156108fb57600080fd5b5061046461090a366004614096565b611de4565b34801561091b57600080fd5b5061046461092a3660046140ca565b611e1b565b34801561093b57600080fd5b506106f861094a366004613c42565b611ec8565b34801561095b57600080fd5b5061046461096a366004613b72565b611f55565b34801561097b57600080fd5b5061046461098a366004613523565b611f9c565b34801561099b57600080fd5b506104646109aa366004613574565b611fdb565b3480156109bb57600080fd5b506104646109ca366004614123565b61201b565b3480156109db57600080fd5b506109ef6109ea366004613c70565b612054565b60405161043b929190614158565b348015610a0957600080fd5b50610a126120da565b60405161043b9190614272565b348015610a2b57600080fd5b506106b861214d565b610464610a42366004613574565b612157565b348015610a5357600080fd5b50610464610a62366004613574565b6122a0565b348015610a7357600080fd5b50610464610a823660046142ed565b6122e0565b348015610a9357600080fd5b50610464610aa2366004613574565b612318565b348015610ab357600080fd5b50610ac7610ac2366004613b72565b612358565b6040805193845260208401929092529082015260600161043b565b610464610af036600461430a565b6123f6565b348015610b0157600080fd5b50610464610b103660046139ee565b61247f565b348015610b2157600080fd5b50610464610b30366004613574565b612521565b348015610b4157600080fd5b50610464610b50366004613523565b612561565b348015610b6157600080fd5b506106f8610b70366004613c42565b6125a0565b610464610b83366004613ba9565b6125b4565b348015610b9457600080fd5b50610464610ba3366004613574565b61261d565b348015610bb457600080fd5b506109ef610bc3366004613c70565b612664565b348015610bd457600080fd5b50610464610be336600461433f565b6126a9565b348015610bf457600080fd5b50610464610c03366004614378565b6126e2565b348015610c1457600080fd5b50610c1d612725565b60405161043b91906143e4565b348015610c3657600080fd5b5061065561272f565b348015610c4b57600080fd5b50610464610c5a3660046143f7565b612774565b348015610c6b57600080fd5b50610655610c7a366004613574565b6127c3565b348015610c8b57600080fd5b50610464610c9a366004614123565b612806565b348015610cab57600080fd5b50610464610cba366004614427565b61283f565b348015610ccb57600080fd5b506106b86128b2565b348015610ce057600080fd5b50610464610cef366004614492565b6128cb565b348015610d0057600080fd5b50610d14610d0f36600461450d565b61290e565b60405161043b919061452b565b348015610d2d57600080fd5b50610464610d3c366004613574565b6129ee565b348015610d4d57600080fd5b50610464610d5c366004613b72565b612a2e565b348015610d6d57600080fd5b50610464610d7c36600461453e565b612a6a565b6000806000610d8e612b1d565b9050610da0610d9b612bb3565b612c35565b600b820154909350600160401b90046001600160401b0316610dc46009600a614658565b610dce9190614664565b9150509091565b610ddd612c4b565b6040516307c8308b60e21b815273__$8ed6b3b04009dff171844b9d72c92eddd0$__90631f20c22c90610e1990600190309086906004016146f1565b60006040518083038186803b158015610e3157600080fd5b505af4158015610e45573d6000803e3d6000fd5b5050505050565b60405163b42652e960e01b81526001600160a01b038216600482015273__$4054b81dd018f00b16b0262e280b71bd3d$__9063b42652e990602401610e19565b60405163c7be12eb60e01b81526001600160a01b038216600482015233602482015273__$c7446ca28182994c6c0135601399c1b584$__9063c7be12eb90604401610e19565b610eda612ca2565b60008051602061587c8339815191525460008051602061585c833981519152906001600160401b031615801590610f2b57506024810154610f289062278d00906001600160401b03166147ba565b42115b610f7c5760405162461bcd60e51b815260206004820152601f60248201527f6173736574206d616e61676572206e6f742070617573656420656e6f7567680060448201526064015b60405180910390fd5b60018101546040805163018117f160e31b815290516001600160a01b0390921691630c08bf889160048082019260009290919082900301818387803b158015610fc457600080fd5b505af1158015610e45573d6000803e3d6000fd5b60405163ccfb491360e01b815273__$df85e949fff37977e0d300eb10fcbb4998$__9063ccfb491390611013908690869086906004016147d2565b602060405180830381865af4158015611030573d6000803e3d6000fd5b505050506040513d601f19601f820116820180604052508101906110549190614806565b50505050565b611194604080516104a08101909152806000815260200160006001600160a01b0316815260200160006001600160a01b0316815260200160006001600160a01b0316815260200160608152602001600015158152602001600081526020016000815260200160006001600160a01b03168152602001600081526020016000815260200160008152602001600081526020016000815260200160008152602001600081526020016000815260200160008152602001600081526020016000815260200160008152602001600081526020016000815260200160008152602001600081526020016000815260200160008152602001600081526020016000815260200160008152602001600081526020016000815260200160008152602001600081526020016000815260200160008152602001600081525090565b604051630152052b60e41b81526001600160a01b038316600482015273__$ec55c6bae1638b00bbedb6b751f1f84e77$__9063152052b090602401600060405180830381865af41580156111ec573d6000803e3d6000fd5b505050506040513d6000823e601f3d908101601f191682016040526112149190810190614894565b92915050565b73__$305ac64b111b0d775ac583a3c3f22849b9$__634e1b6cd68361123e84612d02565b6040518363ffffffff1660e01b815260040161125b929190614c57565b60006040518083038186803b15801561127357600080fd5b505af4158015611287573d6000803e3d6000fd5b505050505050565b611297612ca2565b604051634f27f8e760e01b815273__$a539d901bea57a4b73d19093d1e9882040$__90634f27f8e7906112d69088908890889088908890600401614c82565b60006040518083038186803b1580156112ee57600080fd5b505af4158015611302573d6000803e3d6000fd5b505050505050505050565b611315612d6e565b73__$4ff30c53c077284d3b777228e6ae31216c$__6326e68cd43361133985612d02565b846040518463ffffffff1660e01b815260040161125b93929190614cb9565b73__$2121826b9482dc4a95d5f1c5bc0ffbdf06$__63c20025058361137c84612d02565b6040518363ffffffff1660e01b815260040161125b929190614d03565b60405163e70e767f60e01b815273__$722590fcf677171437eb48cf082465d6d7$__9063e70e767f90610e19908490600401614f15565b60405163a43ba5ab60e01b815273__$c7446ca28182994c6c0135601399c1b584$__9063a43ba5ab9061125b9060029086908690600401614f28565b604051631f463e2360e21b81526001600160a01b03831660048201523360248201526044810182905273__$c7446ca28182994c6c0135601399c1b584$__90637d18f88c9060640161125b565b600073__$f7c9c0d01068167c22df35ff5943b62148$__630c7dcd1561147e84612d02565b6040516001600160e01b031960e084901b1681526001600160401b0390911660048201526024015b602060405180830381865af41580156114c3573d6000803e3d6000fd5b505050506040513d601f19601f820116820180604052508101906112149190614806565b60405163fdf6b37560e01b81526001600160a01b038216600482015273__$4054b81dd018f00b16b0262e280b71bd3d$__9063fdf6b37590602401610e19565b61152f612ca2565b7fec7e8c1c441439dd40959777f4c577ea0cd42fcc1dbe59d2bd0f5d9c55df8db7546040805163194307bf60e01b8152905160008051602061585c833981519152926001600160a01b03169163194307bf9160048083019260209291908290030181865afa1580156115a5573d6000803e3d6000fd5b505050506040513d601f19601f820116820180604052508101906115c99190614f52565b1561160b5760405162461bcd60e51b8152602060048201526012602482015271198b585cdcd95d081d195c9b5a5b985d195960721b6044820152606401610f73565b602401805467ffffffffffffffff19169055565b600061162a82612e3b565b546001600160a01b031692915050565b73__$2121826b9482dc4a95d5f1c5bc0ffbdf06$__630fec40b68361165e84612d02565b6040518363ffffffff1660e01b815260040161125b929190614f6f565b611683612d6e565b60405163ed99865b60e01b815273__$d15fd82c1987b4adc4c1dba5cf0be762b0$__9063ed99865b9061125b9085908590600401615028565b60405163e4c5e4e960e01b81526001600160a01b038216600482015273__$8ed6b3b04009dff171844b9d72c92eddd0$__9063e4c5e4e990602401610e19565b604051630877cd8160e41b81526001600160a01b038216600482015273__$4054b81dd018f00b16b0262e280b71bd3d$__9063877cd81090602401610e19565b60405163195153e560e21b81526001600160a01b038216600482015273__$c7446ca28182994c6c0135601399c1b584$__906365454f9490602401610e19565b604051636e61164f60e01b81526001600160a01b0382166004820152600090819073__$c7446ca28182994c6c0135601399c1b584$__90636e61164f906024016040805180830381865af41580156117d8573d6000803e3d6000fd5b505050506040513d601f19601f820116820180604052508101906117fc9190615052565b91509150915091565b73__$f7c9c0d01068167c22df35ff5943b62148$__6355c4ef8f8361137c84612d02565b60405163778aadd560e01b81526001600160a01b0380841660048301528216602482015273__$8ed6b3b04009dff171844b9d72c92eddd0$__9063778aadd59060440161125b565b600061187b612ee3565b905090565b60405163825378af60e01b8152600481018390526024810182905260609060009073__$4054b81dd018f00b16b0262e280b71bd3d$__9063825378af90604401600060405180830381865af41580156118dd573d6000803e3d6000fd5b505050506040513d6000823e601f3d908101601f1916820160405261190591908101906150a4565b915091505b9250929050565b611919612d6e565b6040516366a1b64560e11b815273__$d15fd82c1987b4adc4c1dba5cf0be762b0$__9063cd436c8a9061195490869086908690600401615186565b60006040518083038186803b15801561196c57600080fd5b505af4158015611980573d6000803e3d6000fd5b50505050505050565b611991612ca2565b60008051602061587c8339815191525460008051602061585c833981519152906001600160401b03166119eb576119c742612d02565b60248201805467ffffffffffffffff19166001600160401b03929092169190911790555b50565b604080516105a081018252600080825260208201819052918101829052606081018290526080810182905260a0810182905260c0810182905260e08101829052610100810182905261012081018290526101408101829052610160810182905261018081018290526101a081018290526101c081018290526101e08101829052610200810182905261022081018290526102408101829052610260810182905261028081018290526102a081018290526102c081018290526102e08101829052610300810182905261032081018290526103408101829052610360810182905261038081018290526103a081018290526103c081018290526103e08101829052610400810182905261042081018290526104408101829052610460810182905261048081018290526104a081018290526104c081018290526104e081018290526105008101829052610520810182905261054081018290526105608101829052610580810191909152611b5f612b1d565b604080516105a08101825282546001600160a01b03908116825260018401548116602083015260028401548116928201929092526003830154821660608201526004830154821660808201526005830154821660a08201526006830154821660c08201526007830154821660e082015260088301548216610100820152600983015480831661012083015260ff600160a01b8083048216610140850152600160a81b808404831661016086015263ffffffff600160b01b9094048416610180860152600a8701549586166101a0860152818604831615156101c0860152850483166101e085015261ffff600160c81b9095048516610200850152600b8601546001600160401b03808216610220870152600160401b8083048216610240880152600160801b8084048316610260890152600160c01b938490048916610280890152600c8a01548084166102a08a015282810484166102c08a015281810490961615156102e0890152600160881b9095048216610300880152600d8901548083166103208901528181048916610340890152600160501b81048716610360890152600160701b81048716610380890152600160901b9081900483166103a0890152600e8a01546001600160801b038082166103c08b01528782048b166103e08b0152919004909816610400880152600f8901549788166104208801528488048216610440880152968290048116610460870152601088015480821661048088015287810482166104a088015293840481166104c0870152920482166104e08501526011860154808316610500860152948504909216610520840152600160601b840481166105408401529204821661056082015260129092015416610580820152919050565b604051632560e1bd60e01b815273__$8ed6b3b04009dff171844b9d72c92eddd0$__90632560e1bd90610e1990849060040161520d565b611e23612c4b565b60026000541415611e465760405162461bcd60e51b8152600401610f7390615220565b600260005573__$db99a4b0b1a8936beb7122d8143ea3b698$__634c1411578484611e7085612d02565b6040518463ffffffff1660e01b8152600401611e8e93929190615257565b60006040518083038186803b158015611ea657600080fd5b505af4158015611eba573d6000803e3d6000fd5b505060016000555050505050565b60405162cb3d5f60e31b81526001600160a01b0380841660048301528216602482015260009073__$c7446ca28182994c6c0135601399c1b584$__90630659eaf890604401602060405180830381865af4158015611f2a573d6000803e3d6000fd5b505050506040513d601f19601f82011682018060405250810190611f4e9190614f52565b9392505050565b604051634ac26d1560e11b81526001600160a01b03831660048201526024810182905273__$4ff30c53c077284d3b777228e6ae31216c$__90639584da2a9060440161125b565b611fa4612ca2565b60405163234e32cb60e21b815273__$a539d901bea57a4b73d19093d1e9882040$__90638d38cb2c90610e19908490600401615293565b60405163a07ea7af60e01b81526001600160a01b038216600482015273__$900ca2dd89aa7bd7c22612e1484fcfb277$__9063a07ea7af90602401610e19565b60405163364a99d160e21b815273__$900ca2dd89aa7bd7c22612e1484fcfb277$__9063d92a67449061125b908590859060040161536e565b60405163b19aec1760e01b8152600481018390526024810182905260609060009073__$c7446ca28182994c6c0135601399c1b584$__9063b19aec17906044015b600060405180830381865af41580156120b2573d6000803e3d6000fd5b505050506040513d6000823e601f3d908101601f191682016040526119059190810190615381565b606073__$a539d901bea57a4b73d19093d1e9882040$__638d19717a6040518163ffffffff1660e01b8152600401600060405180830381865af4158015612125573d6000803e3d6000fd5b505050506040513d6000823e601f3d908101601f1916820160405261187b9190810190615505565b600061187b612f01565b6002600054141561217a5760405162461bcd60e51b8152600401610f7390615220565b6002600055612187612ee3565b6001600160a01b031663194307bf6040518163ffffffff1660e01b8152600401602060405180830381865afa1580156121c4573d6000803e3d6000fd5b505050506040513d601f19601f820116820180604052508101906121e89190614f52565b61222d5760405162461bcd60e51b8152602060048201526016602482015275198b585cdcd95d081b9bdd081d195c9b5a5b985d195960521b6044820152606401610f73565b604051635b457cbf60e11b81526001600160a01b038216600482015273__$8ed6b3b04009dff171844b9d72c92eddd0$__9063b68af97e9060240160006040518083038186803b15801561228057600080fd5b505af4158015612294573d6000803e3d6000fd5b50506001600055505050565b60405163b7f658ab60e01b81526001600160a01b038216600482015273__$55e854ab37cd1bbaf9fa5a4f99ff154ced$__9063b7f658ab90602401610e19565b6122e8612ca2565b60008051602061587c8339815191528054911515600160401b0268ff000000000000000019909216919091179055565b604051635d32bd1b60e11b81526001600160a01b038216600482015273__$8ed6b3b04009dff171844b9d72c92eddd0$__9063ba657a3690602401610e19565b6000806000612365612d6e565b60405163bcbaf48760e01b81526001600160a01b03861660048201526024810185905273__$55e854ab37cd1bbaf9fa5a4f99ff154ced$__9063bcbaf48790604401606060405180830381865af41580156123c4573d6000803e3d6000fd5b505050506040513d601f19601f820116820180604052508101906123e891906155b5565b919790965090945092505050565b6123fe612c4b565b612406612d6e565b73__$f7c9c0d01068167c22df35ff5943b62148$__63f2821a62338561242b86612d02565b61243486612d02565b6040516001600160e01b031960e087901b1681526001600160a01b0394851660048201529390921660248401526001600160401b039081166044840152166064820152608401611954565b600260005414156124a25760405162461bcd60e51b8152600401610f7390615220565b600260005573__$db99a4b0b1a8936beb7122d8143ea3b698$__63aeeb13a0836124cb84612d02565b6040518363ffffffff1660e01b81526004016124e8929190614c57565b60006040518083038186803b15801561250057600080fd5b505af4158015612514573d6000803e3d6000fd5b5050600160005550505050565b604051636033a5a360e11b81526001600160a01b038216600482015273__$900ca2dd89aa7bd7c22612e1484fcfb277$__9063c0674b4690602401610e19565b612569612ca2565b604051631663f15960e11b815273__$a539d901bea57a4b73d19093d1e9882040$__90632cc7e2b290610e19908490600401615293565b6000611f4e6125ae84612e3b565b83612f8f565b600260005414156125d75760405162461bcd60e51b8152600401610f7390615220565b600260005573__$f7c9c0d01068167c22df35ff5943b62148$__632d984f758361260084612d02565b6040518363ffffffff1660e01b81526004016124e8929190614f6f565b612625612d6e565b60405162e1c50160e81b81526001600160a01b038216600482015273__$55e854ab37cd1bbaf9fa5a4f99ff154ced$__9063e1c5010090602401610e19565b6040516315302d6160e31b8152600481018390526024810182905260609060009073__$4054b81dd018f00b16b0262e280b71bd3d$__9063a9816b0890604401612095565b6040516331ec097760e01b815273__$df85e949fff37977e0d300eb10fcbb4998$__906331ec09779061125b90859085906004016155e3565b6126ea612d6e565b60405163264becd360e21b815273__$d15fd82c1987b4adc4c1dba5cf0be762b0$__9063992fb34c9061195490869086908690600401615607565b606061187b612fe9565b60008061273a612b1d565b600b810154909150612765906001600160401b03600160401b8204811691600160801b900416615645565b6001600160401b031691505090565b604051630ed000b360e41b81526001600160a01b038085166004830152831660248201526044810182905273__$4ff30c53c077284d3b777228e6ae31216c$__9063ed000b3090606401611954565b60405163769bb15560e11b81526001600160a01b038216600482015260009073__$c7446ca28182994c6c0135601399c1b584$__9063ed3762aa906024016114a6565b604051630314945d60e41b815273__$1c6dbe76071682217e38af6fe7e8685bd4$__9063314945d09061125b908590859060040161536e565b60405163f060b3f160e01b815273__$4ff30c53c077284d3b777228e6ae31216c$__9063f060b3f19061287c908790879087908790600401615674565b60006040518083038186803b15801561289457600080fd5b505af41580156128a8573d6000803e3d6000fd5b5050505050505050565b60006128bc612b1d565b546001600160a01b0316919050565b6128d3612ca2565b6040516302fab52b60e01b815273__$498fae630e5f9e2b0d2f5a14b70bbf8a29$__906302fab52b90611954908690869086906004016156b1565b612970604080516101408101909152806000815260200160006001600160a01b03168152602001600081526020016000815260200160001515815260200160608152602001606081526020016000815260200160008152602001600081525090565b6040516346532e0760e01b815273__$a539d901bea57a4b73d19093d1e9882040$__906346532e07906129a990869086906004016156cb565b600060405180830381865af41580156129c6573d6000803e3d6000fd5b505050506040513d6000823e601f3d908101601f19168201604052611f4e91908101906156f0565b604051637a68005960e11b81526001600160a01b038216600482015273__$c7446ca28182994c6c0135601399c1b584$__9063f4d000b290602401610e19565b60405163a43ba5ab60e01b815273__$c7446ca28182994c6c0135601399c1b584$__9063a43ba5ab9061125b9060009086908690600401614f28565b612a72612ca2565b6040516307eca6bd60e51b815273__$a539d901bea57a4b73d19093d1e9882040$__9063fd94d7a09061195490869086908690600401614f28565b6000612ab7612b1d565b600801546040516001600160a01b039091169150600090829063439fab9190612ae49086906024016143e4565b604051602081830303815290604052915060e01b6020820180516001600160e01b03838183161783525050505090506110548282612b2f565b60008051602061585c83398151915290565b6060600080846001600160a01b031684604051612b4c9190615724565b600060405180830381855af49150503d8060008114612b87576040519150601f19603f3d011682016040523d82523d6000602084013e612b8c565b606091505b50915091508115612ba05791506112149050565b3d604051818101604052816000823e8181fd5b7fec7e8c1c441439dd40959777f4c577ea0cd42fcc1dbe59d2bd0f5d9c55df8dd9547fec7e8c1c441439dd40959777f4c577ea0cd42fcc1dbe59d2bd0f5d9c55df8dc9805460009260008051602061585c833981519152929161ffff909116908110612c2157612c21615740565b906000526020600020906004020191505090565b6000612c42826000613059565b50909392505050565b60008051602061587c83398151915254600160401b900460ff16612ca05760405162461bcd60e51b815260206004820152600c60248201526b1b9bdd08185d1d1858da195960a21b6044820152606401610f73565b565b612caa612b1d565b546001600160a01b03163314612ca05760405162461bcd60e51b815260206004820152601d60248201527f6f6e6c79206173736574206d616e6167657220636f6e74726f6c6c65720000006044820152606401610f73565b60006001600160401b03821115612d6a5760405162461bcd60e51b815260206004820152602660248201527f53616665436173743a2076616c756520646f65736e27742066697420696e203660448201526534206269747360d01b6064820152608401610f73565b5090565b6000612d78612b1d565b60048101549091506001600160a01b0316156119eb57600481810154604051633af32abf60e01b815233928101929092526001600160a01b031690633af32abf90602401602060405180830381865afa158015612dd9573d6000803e3d6000fd5b505050506040513d601f19601f82011682018060405250810190612dfd9190614f52565b6119eb5760405162461bcd60e51b815260206004820152600f60248201526e1b9bdd081dda1a5d195b1a5cdd1959608a1b6044820152606401610f73565b7f5bebac0595fee029d42bb673937f5f1cb81cf8641382bc17774635de9b7d796568010000000000000000600160e01b03604083901b1618806000600483015460ff166002811115612e8f57612e8f61372a565b1415612edd5760405162461bcd60e51b815260206004820152601b60248201527f696e76616c6964206167656e74207661756c74206164647265737300000000006044820152606401610f73565b50919050565b600080612eee612b1d565b600101546001600160a01b031692915050565b7fec7e8c1c441439dd40959777f4c577ea0cd42fcc1dbe59d2bd0f5d9c55df8dd9547fec7e8c1c441439dd40959777f4c577ea0cd42fcc1dbe59d2bd0f5d9c55df8dc9805460009260008051602061585c833981519152929161ffff909116908110612f6f57612f6f615740565b60009182526020909120600490910201546001600160a01b031692915050565b600182015460009060008051602061585c833981519152906001600160a01b03908116908416811480612fe057506001600160a01b0380821660009081526016840160205260409020548582169116145b95945050505050565b60606000612ff5612b1d565b600801546040805160048152602481019091526020810180516001600160e01b03166385b4bb5360e01b1790526001600160a01b039091169150600061303b8383613218565b9050808060200190518101906130519190615756565b935050505090565b6000806000806000806130f88860010180546130749061579e565b80601f01602080910402602001604051908101604052809291908181526020018280546130a09061579e565b80156130ed5780601f106130c2576101008083540402835291602001916130ed565b820191906000526020600020905b8154815290600101906020018083116130d057829003601f168201915b50505050508861322c565b8a549295509093509150600160f01b900460ff161561313f57875460009061312e90600160a81b900460ff166001838786613368565b965091945084935061321192505050565b60008060006131da8b60020180546131569061579e565b80601f01602080910402602001604051908101604052809291908181526020018280546131829061579e565b80156131cf5780601f106131a4576101008083540402835291602001916131cf565b820191906000526020600020905b8154815290600101906020018083116131b257829003601f168201915b50505050508b61322c565b8d5492955090935091506000906131fe90600160a81b900460ff1685848a89613368565b9950949750909550613211945050505050565b9250925092565b6060612b2f80612fe0858563ffffffff8416565b60008060008061323a612b1d565b60098101546040516325f69abd60e21b81529192506000916001600160a01b03909116906397da6af490613272908a906004016143e4565b602060405180830381865afa15801561328f573d6000803e3d6000fd5b505050506040513d601f19601f820116820180604052508101906132b391906157d3565b9050851561332a57806001600160a01b0316633cacb3ae6040518163ffffffff1660e01b8152600401606060405180830381865afa1580156132f9573d6000803e3d6000fd5b505050506040513d601f19601f8201168201806040525081019061331d91906155b5565b9450945094505050613211565b806001600160a01b03166365f5cd866040518163ffffffff1660e01b8152600401606060405180830381865afa1580156132f9573d6000803e3d6000fd5b600080613373612b1d565b905060006009613383878a6147ba565b61338d91906147ba565b60098301549091506000906133ad908690600160a81b900460ff166147ba565b9050808210156133bf576133bf6157f0565b6133df6133cc8284615806565b6133d790600a614658565b87908a6133ec565b9998505050505050505050565b60008082116134305760405162461bcd60e51b815260206004820152601060248201526f4469766973696f6e206279207a65726f60801b6044820152606401610f73565b8361343d57506000611f4e565b838302838582816134505761345061581d565b04141561346f578281816134665761346661581d565b04915050611f4e565b50600061347c8386615833565b9050600061348a8487615847565b905060006134988587615833565b905060006134a68688615847565b9050856134b38285614664565b6134bd9190615833565b6134c78385614664565b6134d18387614664565b886134dc8689614664565b6134e69190614664565b6134f091906147ba565b6134fa91906147ba565b61350491906147ba565b98975050505050505050565b60006101408284031215612edd57600080fd5b60006020828403121561353557600080fd5b81356001600160401b0381111561354b57600080fd5b61355784828501613510565b949350505050565b6001600160a01b03811681146119eb57600080fd5b60006020828403121561358657600080fd5b8135611f4e8161355f565b803561359c8161355f565b919050565b634e487b7160e01b600052604160045260246000fd5b6040516104a081016001600160401b03811182821017156135da576135da6135a1565b60405290565b60405160a081016001600160401b03811182821017156135da576135da6135a1565b60405161014081016001600160401b03811182821017156135da576135da6135a1565b604051601f8201601f191681016001600160401b038111828210171561364d5761364d6135a1565b604052919050565b60006001600160401b0382111561366e5761366e6135a1565b50601f01601f191660200190565b600082601f83011261368d57600080fd5b81356136a061369b82613655565b613625565b8181528460208386010111156136b557600080fd5b816020850160208301376000918101602001919091529392505050565b6000806000606084860312156136e757600080fd5b83356136f28161355f565b925060208401356001600160401b0381111561370d57600080fd5b6137198682870161367c565b925050604084013590509250925092565b634e487b7160e01b600052602160045260246000fd5b600581106137505761375061372a565b9052565b60005b8381101561376f578181015183820152602001613757565b838111156110545750506000910152565b60008151808452613798816020860160208601613754565b601f01601f19169290920160200192915050565b602081526137be602082018351613740565b600060208301516137da60408401826001600160a01b03169052565b5060408301516001600160a01b03811660608401525060608301516001600160a01b03811660808401525060808301516104a08060a08501526138216104c0850183613780565b915060a085015161383660c086018215159052565b5060c085015160e085015260e085015161010081818701528087015191505061012061386c818701836001600160a01b03169052565b8601516101408681019190915286015161016080870191909152860151610180808701919091528601516101a0808701919091528601516101c0808701919091528601516101e08087019190915286015161020080870191909152860151610220808701919091528601516102408087019190915286015161026080870191909152860151610280808701919091528601516102a0808701919091528601516102c0808701919091528601516102e08087019190915286015161030080870191909152860151610320808701919091528601516103408087019190915286015161036080870191909152860151610380808701919091528601516103a0808701919091528601516103c0808701919091528601516103e08087019190915286015161040080870191909152860151610420808701919091528601516104408087019190915286015161046080870191909152860151610480808701919091529095015193019290925250919050565b60006101c08284031215612edd57600080fd5b60008060408385031215613a0157600080fd5b82356001600160401b03811115613a1757600080fd5b613a23858286016139db565b95602094909401359450505050565b600381106119eb57600080fd5b803561359c81613a32565b600080600080600060a08688031215613a6257600080fd5b8535613a6d81613a32565b94506020860135613a7d8161355f565b94979496505050506040830135926060810135926080909101359150565b60008060408385031215613aae57600080fd5b8235915060208301356001600160401b03811115613acb57600080fd5b613ad78582860161367c565b9150509250929050565b60008060408385031215613af457600080fd5b82356001600160401b03811115613b0a57600080fd5b83016101608186031215613b1d57600080fd5b946020939093013593505050565b60006101008284031215612edd57600080fd5b600060208284031215613b5057600080fd5b81356001600160401b03811115613b6657600080fd5b61355784828501613b2b565b60008060408385031215613b8557600080fd5b8235613b1d8161355f565b600060208284031215613ba257600080fd5b5035919050565b60008060408385031215613bbc57600080fd5b82356001600160401b03811115613bd257600080fd5b613a2385828601613b2b565b60006101208284031215612edd57600080fd5b60008060408385031215613c0457600080fd5b82356001600160401b03811115613c1a57600080fd5b613c2685828601613bde565b9250506020830135613c378161355f565b809150509250929050565b60008060408385031215613c5557600080fd5b8235613c608161355f565b91506020830135613c378161355f565b60008060408385031215613c8357600080fd5b50508035926020909101359150565b6040808252835182820181905260009190606090818501906020808901865b83811015613cfc57815180516001600160a01b031686528381015184870152878101518887015286810151878701526080908101519086015260a09094019390820190600101613cb1565b505095909501959095525092949350505050565b600080600060408486031215613d2557600080fd5b83356001600160401b0380821115613d3c57600080fd5b818601915086601f830112613d5057600080fd5b813581811115613d5f57600080fd5b8760208260051b8501011115613d7457600080fd5b60209283019550935050840135613d8a8161355f565b809150509250925092565b81516001600160a01b031681526105a081016020830151613dc160208401826001600160a01b03169052565b506040830151613ddc60408401826001600160a01b03169052565b506060830151613df760608401826001600160a01b03169052565b506080830151613e1260808401826001600160a01b03169052565b5060a0830151613e2d60a08401826001600160a01b03169052565b5060c0830151613e4860c08401826001600160a01b03169052565b5060e0830151613e6360e08401826001600160a01b03169052565b50610100838101516001600160a01b0390811691840191909152610120808501518216908401526101408085015160ff9081169185019190915261016080860151909116908401526101808085015163ffffffff908116918501919091526101a080860151909216918401919091526101c0808501511515908401526101e0808501518216908401526102008085015161ffff90811691850191909152610220808601516001600160401b03908116918601919091526102408087015182169086015261026080870151821690860152610280808701518316908601526102a0808701518216908601526102c0808701518216908601526102e08087015115159086015261030080870151821690860152610320808701518216908601526103408087015183169086015261036080870151841690860152610380808701518416908601526103a0808701518216908601526103c0808701516001600160801b03908116918701919091526103e080880151841690870152610400808801519093169286019290925261042080870151909216918501919091526104408086015182169085015261046080860151821690850152610480808601518216908501526104a0808601518216908501526104c0808601518216908501526104e08086015182169085015261050080860151821690850152610520808601519092169184019190915261054080850151821690840152610560808501518216908401526105809384015116929091019190915290565b6000602082840312156140a857600080fd5b81356001600160401b038111156140be57600080fd5b613557848285016139db565b6000806000606084860312156140df57600080fd5b83356001600160401b038111156140f557600080fd5b614101868287016139db565b93505060208401356141128161355f565b929592945050506040919091013590565b6000806040838503121561413657600080fd5b82356001600160401b0381111561414c57600080fd5b613c26858286016139db565b604080825283519082018190526000906020906060840190828701845b8281101561419a5781516001600160a01b031684529284019290840190600101614175565b50505092019290925292915050565b600381106119eb576119eb61372a565b613750816141a9565b60006101406141d28484516141b9565b60208301516141ec60208601826001600160a01b03169052565b5060408301516040850152606083015160608501526080830151614214608086018215159052565b5060a08301518160a086015261422c82860182613780565b91505060c083015184820360c08601526142468282613780565b60e085810151908701526101008086015190870152610120948501519490950193909352509192915050565b6000602080830181845280855180835260408601915060408160051b870101925083870160005b828110156142c757603f198886030184526142b58583516141c2565b94509285019290850190600101614299565b5092979650505050505050565b80151581146119eb57600080fd5b803561359c816142d4565b6000602082840312156142ff57600080fd5b8135611f4e816142d4565b60008060006060848603121561431f57600080fd5b833561432a8161355f565b95602085013595506040909401359392505050565b6000806040838503121561435257600080fd5b823561435d8161355f565b915060208301356001600160401b03811115613acb57600080fd5b60008060006060848603121561438d57600080fd5b83356001600160401b03808211156143a457600080fd5b6143b087838801613bde565b945060208601359150808211156143c657600080fd5b506143d386828701613bde565b9250506040840135613d8a8161355f565b602081526000611f4e6020830184613780565b60008060006060848603121561440c57600080fd5b83356144178161355f565b925060208401356141128161355f565b6000806000806080858703121561443d57600080fd5b84356144488161355f565b935060208501356144588161355f565b92506040850135915060608501356001600160401b0381111561447a57600080fd5b6144868782880161367c565b91505092959194509250565b6000806000604084860312156144a757600080fd5b8335925060208401356001600160401b03808211156144c557600080fd5b818601915086601f8301126144d957600080fd5b8135818111156144e857600080fd5b8760208285010111156144fa57600080fd5b6020830194508093505050509250925092565b6000806040838503121561452057600080fd5b8235613c6081613a32565b602081526000611f4e60208301846141c2565b60008060006060848603121561455357600080fd5b833561441781613a32565b634e487b7160e01b600052601160045260246000fd5b600181815b808511156145af5781600019048211156145955761459561455e565b808516156145a257918102915b93841c9390800290614579565b509250929050565b6000826145c657506001611214565b816145d357506000611214565b81600181146145e957600281146145f35761460f565b6001915050611214565b60ff8411156146045761460461455e565b50506001821b611214565b5060208310610133831016604e8410600b8410161715614632575081810a611214565b61463c8383614574565b80600019048211156146505761465061455e565b029392505050565b6000611f4e83836145b7565b600081600019048311821515161561467e5761467e61455e565b500290565b6000808335601e1984360301811261469a57600080fd5b83016020810192503590506001600160401b038111156146b957600080fd5b80360383131561190a57600080fd5b81835281816020850137506000828201602090810191909152601f909101601f19169091010190565b6146fa846141a9565b8381526001600160a01b038316602082015260606040820152600061471f8380614683565b6101408060608601526147376101a0860183856146c8565b925061474560208701613591565b6001600160a01b03811660808701529150604086013560a0860152606086013560c0860152608086013560e0860152610100915060a08601358286015261012060c08701358187015260e087013582870152828701356101608701528087013561018087015250505080915050949350505050565b600082198211156147cd576147cd61455e565b500190565b6001600160a01b03841681526060602082018190526000906147f690830185613780565b9050826040830152949350505050565b60006020828403121561481857600080fd5b5051919050565b80516005811061359c57600080fd5b805161359c8161355f565b600061484761369b84613655565b905082815283838301111561485b57600080fd5b611f4e836020830184613754565b600082601f83011261487a57600080fd5b611f4e83835160208501614839565b805161359c816142d4565b6000602082840312156148a657600080fd5b81516001600160401b03808211156148bd57600080fd5b908301906104a082860312156148d257600080fd5b6148da6135b7565b6148e38361481f565b81526148f16020840161482e565b60208201526149026040840161482e565b60408201526149136060840161482e565b606082015260808301518281111561492a57600080fd5b61493687828601614869565b60808301525061494860a08401614889565b60a082015260c083015160c082015260e083015160e0820152610100915061497182840161482e565b9181019190915261012082810151908201526101408083015190820152610160808301519082015261018080830151908201526101a080830151908201526101c080830151908201526101e08083015190820152610200808301519082015261022080830151908201526102408083015190820152610260808301519082015261028080830151908201526102a080830151908201526102c080830151908201526102e08083015190820152610300808301519082015261032080830151908201526103408083015190820152610360808301519082015261038080830151908201526103a080830151908201526103c080830151908201526103e08083015190820152610400808301519082015261042080830151908201526104408083015190820152610460808301519082015261048091820151918101919091529392505050565b6000808335601e19843603018112614acd57600080fd5b83016020810192503590506001600160401b03811115614aec57600080fd5b8060051b360383131561190a57600080fd5b81835260006001600160fb1b03831115614b1757600080fd5b8260051b8083602087013760009401602001938452509192915050565b80356001600160401b038116811461359c57600080fd5b803560ff8116811461359c57600080fd5b60006101c082358452614b726020840184614ab6565b826020870152614b858387018284614afe565b92505050614b9560408401614b34565b6001600160401b03166040850152614baf60608401614b34565b6001600160401b0316606085015260808381013590850152614bd360a08401614b4b565b60ff1660a0850152614be760c08401614b4b565b60ff1660c085015260e083810135908501526101008084013590850152610120808401359085015261014080840135908501526101608084013590850152610180614c338185016142e2565b1515908501526101a0614c47848201614b4b565b60ff169401939093525090919050565b604081526000614c6a6040830185614b5c565b90506001600160401b03831660208301529392505050565b60a08101614c8f876141a9565b9581526001600160a01b039490941660208501526040840192909252606083015260809091015290565b6001600160a01b03841681526001600160401b0383166020820152606060408201819052600090612fe090830184613780565b80356001600160801b038116811461359c57600080fd5b60408152823560408201526000614d1d6020850185614ab6565b610160806060860152614d356101a086018385614afe565b9250614d4360408801614b34565b6001600160401b03811660808701529150614d6060608801614b34565b6001600160401b03811660a08701529150608087013560c086015260a087013560e0860152614d9160c08801614cec565b9150610100614daa818701846001600160801b03169052565b614db660e08901614b34565b9250610120614dcf818801856001600160401b03169052565b614dda828a01614b34565b93506101409150614df5828801856001600160401b03169052565b614e00818a01614b34565b935050614e17828701846001600160401b03169052565b614e22818901614b34565b92505050614e3c6101808501826001600160401b03169052565b506001600160401b03841660208401529050611f4e565b600061010082358452614e696020840184614ab6565b826020870152614e7c8387018284614afe565b92505050614e8c60408401614b34565b6001600160401b03808216604087015280614ea960608701614b34565b16606087015260ff614ebd60808701614b4b565b16608087015280614ed060a08701614b34565b1660a08701525050614ee460c08401614b34565b6001600160401b031660c0850152614efe60e08401614b34565b6001600160401b03811660e0860152509392505050565b602081526000611f4e6020830184614e53565b60608101614f35856141a9565b9381526001600160a01b0392909216602083015260409091015290565b600060208284031215614f6457600080fd5b8151611f4e816142d4565b604081526000614c6a6040830185614e53565b600061012082358452614f986020840184614ab6565b826020870152614fab8387018284614afe565b925050506001600160401b03614fc360408501614b34565b166040850152614fd560608401614b34565b6001600160401b0316606085015260808381013590850152614ff960a08401614b4b565b60ff1660a085015260c0838101359085015260e080840135908501526101009283013592909301919091525090565b60408152600061503b6040830185614f82565b905060018060a01b03831660208301529392505050565b6000806040838503121561506557600080fd5b82516150708161355f565b6020840151909250613c378161355f565b60006001600160401b0382111561509a5761509a6135a1565b5060051b60200190565b60008060408084860312156150b857600080fd5b83516001600160401b038111156150ce57600080fd5b8401601f810186136150df57600080fd5b805160206150ef61369b83615081565b82815260a0928302840182019282820191908a85111561510e57600080fd5b948301945b848610156151735780868c03121561512b5760008081fd5b6151336135e0565b865161513e8161355f565b815286850151858201528787015188820152606080880151908201526080808801519082015283529485019491830191615113565b5097909101519698969750505050505050565b6040808252810183905260006060600585901b830181019083018683805b888110156151ec57868503605f190184528235368b900361011e190181126151ca578283fd5b6151d6868c8301614f82565b95505060209384019392909201916001016151a4565b505050506001600160a01b0393909316602092909201919091525092915050565b602081526000611f4e6020830184614b5c565b6020808252601f908201527f5265656e7472616e637947756172643a207265656e7472616e742063616c6c00604082015260600190565b60608152600061526a6060830186614b5c565b6001600160a01b03949094166020830152506001600160401b0391909116604090910152919050565b602081526152ac602082016152a784613a3f565b6141b9565b60006152ba60208401613591565b6001600160a01b03811660408401525060408301356060830152606083013560808301526152ea608084016142e2565b80151560a08401525061530060a0840184614683565b6101408060c0860152615318610160860183856146c8565b925061532760c0870187614683565b868503601f190160e088015292506153408484836146c8565b60e0880135610100888101919091528801356101208089019190915290970135919095015250929392505050565b60408152600061503b6040830185614b5c565b6000806040838503121561539457600080fd5b82516001600160401b038111156153aa57600080fd5b8301601f810185136153bb57600080fd5b805160206153cb61369b83615081565b82815260059290921b830181019181810190888411156153ea57600080fd5b938201935b838510156154115784516154028161355f565b825293820193908201906153ef565b969091015195979596505050505050565b805161359c81613a32565b6000610140828403121561544057600080fd5b615448613602565b905061545382615422565b81526154616020830161482e565b6020820152604082015160408201526060820151606082015261548660808301614889565b608082015260a08201516001600160401b03808211156154a557600080fd5b6154b185838601614869565b60a084015260c08401519150808211156154ca57600080fd5b506154d784828501614869565b60c08301525060e082015160e082015261010080830151818301525061012080830151818301525092915050565b6000602080838503121561551857600080fd5b82516001600160401b038082111561552f57600080fd5b818501915085601f83011261554357600080fd5b815161555161369b82615081565b81815260059190911b8301840190848101908883111561557057600080fd5b8585015b838110156155a85780518581111561558c5760008081fd5b61559a8b89838a010161542d565b845250918601918601615574565b5098975050505050505050565b6000806000606084860312156155ca57600080fd5b8351925060208401519150604084015190509250925092565b6001600160a01b038316815260406020820181905260009061355790830184613780565b60608152600061561a6060830186614f82565b828103602084015261562c8186614f82565b91505060018060a01b0383166040830152949350505050565b60006001600160401b038083168185168183048111821515161561566b5761566b61455e565b02949350505050565b6001600160a01b03858116825284166020820152604081018390526080606082018190526000906156a790830184613780565b9695505050505050565b838152604060208201526000612fe06040830184866146c8565b604081016156d8846141a9565b9281526001600160a01b039190911660209091015290565b60006020828403121561570257600080fd5b81516001600160401b0381111561571857600080fd5b6135578482850161542d565b60008251615736818460208701613754565b9190910192915050565b634e487b7160e01b600052603260045260246000fd5b60006020828403121561576857600080fd5b81516001600160401b0381111561577e57600080fd5b8201601f8101841361578f57600080fd5b61355784825160208401614839565b600181811c908216806157b257607f821691505b60208210811415612edd57634e487b7160e01b600052602260045260246000fd5b6000602082840312156157e557600080fd5b8151611f4e8161355f565b634e487b7160e01b600052600160045260246000fd5b6000828210156158185761581861455e565b500390565b634e487b7160e01b600052601260045260246000fd5b6000826158425761584261581d565b500490565b6000826158565761585661581d565b50069056feec7e8c1c441439dd40959777f4c577ea0cd42fcc1dbe59d2bd0f5d9c55df8db6ec7e8c1c441439dd40959777f4c577ea0cd42fcc1dbe59d2bd0f5d9c55df8ddaa264697066735822122015ab95f2c5ea2a2dcf7e896e74c6a76af3cdb24b13ea339f6215575e6776f2f764736f6c634300080b0033",
  "linkReferences": {
    "contracts/fasset/library/AgentSettingsUpdater.sol": {
      "AgentSettingsUpdater": [
        {
          "length": 20,
          "start": 7786
        },
        {
          "length": 20,
          "start": 13627
        }
      ]
    },
    "contracts/fasset/library/AgentsCreateDestroy.sol": {
      "AgentsCreateDestroy": [
        {
          "length": 20,
          "start": 7279
        },
        {
          "length": 20,
          "start": 9565
        },
        {
          "length": 20,
          "start": 9938
        },
        {
          "length": 20,
          "start": 11382
        },
        {
          "length": 20,
          "start": 12494
        },
        {
          "length": 20,
          "start": 12729
        }
      ]
    },
    "contracts/fasset/library/AgentsExternal.sol": {
      "AgentsExternal": [
        {
          "length": 20,
          "start": 7475
        },
        {
          "length": 20,
          "start": 8802
        },
        {
          "length": 20,
          "start": 8890
        },
        {
          "length": 20,
          "start": 9693
        },
        {
          "length": 20,
          "start": 9762
        },
        {
          "length": 20,
          "start": 11635
        },
        {
          "length": 20,
          "start": 12026
        },
        {
          "length": 20,
          "start": 13927
        },
        {
          "length": 20,
          "start": 14479
        },
        {
          "length": 20,
          "start": 14528
        }
      ]
    },
    "contracts/fasset/library/AvailableAgents.sol": {
      "AvailableAgents": [
        {
          "length": 20,
          "start": 7405
        },
        {
          "length": 20,
          "start": 9096
        },
        {
          "length": 20,
          "start": 9629
        },
        {
          "length": 20,
          "start": 10022
        },
        {
          "length": 20,
          "start": 13578
        }
      ]
    },
    "contracts/fasset/library/Challenges.sol": {
      "Challenges": [
        {
          "length": 20,
          "start": 9493
        },
        {
          "length": 20,
          "start": 10155
        },
        {
          "length": 20,
          "start": 13692
        }
      ]
    },
    "contracts/fasset/library/CollateralReservations.sol": {
      "CollateralReservations": [
        {
          "length": 20,
          "start": 8928
        },
        {
          "length": 20,
          "start": 9866
        },
        {
          "length": 20,
          "start": 12939
        },
        {
          "length": 20,
          "start": 13409
        }
      ]
    },
    "contracts/fasset/library/CollateralTokens.sol": {
      "CollateralTokens": [
        {
          "length": 20,
          "start": 177
        },
        {
          "length": 20,
          "start": 8489
        },
        {
          "length": 20,
          "start": 11830
        },
        {
          "length": 20,
          "start": 12129
        },
        {
          "length": 20,
          "start": 13307
        },
        {
          "length": 20,
          "start": 14338
        },
        {
          "length": 20,
          "start": 14596
        }
      ]
    },
    "contracts/fasset/library/FullAgentInfo.sol": {
      "FullAgentInfo": [
        {
          "length": 20,
          "start": 8245
        }
      ]
    },
    "contracts/fasset/library/Liquidation.sol": {
      "Liquidation": [
        {
          "length": 20,
          "start": 12609
        },
        {
          "length": 20,
          "start": 12813
        },
        {
          "length": 20,
          "start": 13509
        }
      ]
    },
    "contracts/fasset/library/Minting.sol": {
      "Minting": [
        {
          "length": 20,
          "start": 11472
        },
        {
          "length": 20,
          "start": 13100
        }
      ]
    },
    "contracts/fasset/library/RedemptionConfirmations.sol": {
      "RedemptionConfirmations": [
        {
          "length": 20,
          "start": 8351
        }
      ]
    },
    "contracts/fasset/library/RedemptionFailures.sol": {
      "RedemptionFailures": [
        {
          "length": 20,
          "start": 8669
        },
        {
          "length": 20,
          "start": 9407
        }
      ]
    },
    "contracts/fasset/library/RedemptionRequests.sol": {
      "RedemptionRequests": [
        {
          "length": 20,
          "start": 8602
        },
        {
          "length": 20,
          "start": 11773
        },
        {
          "length": 20,
          "start": 13860
        },
        {
          "length": 20,
          "start": 14033
        }
      ]
    },
    "contracts/fasset/library/SettingsUpdater.sol": {
      "SettingsUpdater": [
        {
          "length": 20,
          "start": 72
        },
        {
          "length": 20,
          "start": 14181
        }
      ]
    },
    "contracts/fasset/library/StateUpdater.sol": {
      "StateUpdater": [
        {
          "length": 20,
          "start": 8747
        }
      ]
    },
    "contracts/fasset/library/UnderlyingBalance.sol": {
      "UnderlyingBalance": [
        {
          "length": 20,
          "start": 13976
        }
      ]
    },
    "contracts/fasset/library/UnderlyingWithdrawalAnnouncements.sol": {
      "UnderlyingWithdrawalAnnouncements": [
        {
          "length": 20,
          "start": 11900
        },
        {
          "length": 20,
          "start": 11949
        },
        {
          "length": 20,
          "start": 13250
        }
      ]
    }
  },
  "deployedLinkReferences": {
    "contracts/fasset/library/AgentSettingsUpdater.sol": {
      "AgentSettingsUpdater": [
        {
          "length": 20,
          "start": 4071
        },
        {
          "length": 20,
          "start": 9912
        }
      ]
    },
    "contracts/fasset/library/AgentsCreateDestroy.sol": {
      "AgentsCreateDestroy": [
        {
          "length": 20,
          "start": 3564
        },
        {
          "length": 20,
          "start": 5850
        },
        {
          "length": 20,
          "start": 6223
        },
        {
          "length": 20,
          "start": 7667
        },
        {
          "length": 20,
          "start": 8779
        },
        {
          "length": 20,
          "start": 9014
        }
      ]
    },
    "contracts/fasset/library/AgentsExternal.sol": {
      "AgentsExternal": [
        {
          "length": 20,
          "start": 3760
        },
        {
          "length": 20,
          "start": 5087
        },
        {
          "length": 20,
          "start": 5175
        },
        {
          "length": 20,
          "start": 5978
        },
        {
          "length": 20,
          "start": 6047
        },
        {
          "length": 20,
          "start": 7920
        },
        {
          "length": 20,
          "start": 8311
        },
        {
          "length": 20,
          "start": 10212
        },
        {
          "length": 20,
          "start": 10764
        },
        {
          "length": 20,
          "start": 10813
        }
      ]
    },
    "contracts/fasset/library/AvailableAgents.sol": {
      "AvailableAgents": [
        {
          "length": 20,
          "start": 3690
        },
        {
          "length": 20,
          "start": 5381
        },
        {
          "length": 20,
          "start": 5914
        },
        {
          "length": 20,
          "start": 6307
        },
        {
          "length": 20,
          "start": 9863
        }
      ]
    },
    "contracts/fasset/library/Challenges.sol": {
      "Challenges": [
        {
          "length": 20,
          "start": 5778
        },
        {
          "length": 20,
          "start": 6440
        },
        {
          "length": 20,
          "start": 9977
        }
      ]
    },
    "contracts/fasset/library/CollateralReservations.sol": {
      "CollateralReservations": [
        {
          "length": 20,
          "start": 5213
        },
        {
          "length": 20,
          "start": 6151
        },
        {
          "length": 20,
          "start": 9224
        },
        {
          "length": 20,
          "start": 9694
        }
      ]
    },
    "contracts/fasset/library/CollateralTokens.sol": {
      "CollateralTokens": [
        {
          "length": 20,
          "start": 4774
        },
        {
          "length": 20,
          "start": 8115
        },
        {
          "length": 20,
          "start": 8414
        },
        {
          "length": 20,
          "start": 9592
        },
        {
          "length": 20,
          "start": 10623
        },
        {
          "length": 20,
          "start": 10881
        }
      ]
    },
    "contracts/fasset/library/FullAgentInfo.sol": {
      "FullAgentInfo": [
        {
          "length": 20,
          "start": 4530
        }
      ]
    },
    "contracts/fasset/library/Liquidation.sol": {
      "Liquidation": [
        {
          "length": 20,
          "start": 8894
        },
        {
          "length": 20,
          "start": 9098
        },
        {
          "length": 20,
          "start": 9794
        }
      ]
    },
    "contracts/fasset/library/Minting.sol": {
      "Minting": [
        {
          "length": 20,
          "start": 7757
        },
        {
          "length": 20,
          "start": 9385
        }
      ]
    },
    "contracts/fasset/library/RedemptionConfirmations.sol": {
      "RedemptionConfirmations": [
        {
          "length": 20,
          "start": 4636
        }
      ]
    },
    "contracts/fasset/library/RedemptionFailures.sol": {
      "RedemptionFailures": [
        {
          "length": 20,
          "start": 4954
        },
        {
          "length": 20,
          "start": 5692
        }
      ]
    },
    "contracts/fasset/library/RedemptionRequests.sol": {
      "RedemptionRequests": [
        {
          "length": 20,
          "start": 4887
        },
        {
          "length": 20,
          "start": 8058
        },
        {
          "length": 20,
          "start": 10145
        },
        {
          "length": 20,
          "start": 10318
        }
      ]
    },
    "contracts/fasset/library/SettingsUpdater.sol": {
      "SettingsUpdater": [
        {
          "length": 20,
          "start": 10466
        }
      ]
    },
    "contracts/fasset/library/StateUpdater.sol": {
      "StateUpdater": [
        {
          "length": 20,
          "start": 5032
        }
      ]
    },
    "contracts/fasset/library/UnderlyingBalance.sol": {
      "UnderlyingBalance": [
        {
          "length": 20,
          "start": 10261
        }
      ]
    },
    "contracts/fasset/library/UnderlyingWithdrawalAnnouncements.sol": {
      "UnderlyingWithdrawalAnnouncements": [
        {
          "length": 20,
          "start": 8185
        },
        {
          "length": 20,
          "start": 8234
        },
        {
          "length": 20,
          "start": 9535
        }
      ]
    }
  }
}