{
  "_format": "hh-sol-artifact-1",
  "contractName": "AssetManager",
  "sourceName": "contracts/fasset/implementation/AssetManager.sol",
  "abi": [
    {
      "inputs": [
        {
          "components": [
            {
              "internalType": "address",
              "name": "assetManagerController",
              "type": "address"
            },
            {
              "internalType": "address",
              "name": "fAsset",
              "type": "address"
            },
            {
              "internalType": "address",
              "name": "agentVaultFactory",
              "type": "address"
            },
            {
              "internalType": "address",
              "name": "collateralPoolFactory",
              "type": "address"
            },
            {
              "internalType": "address",
              "name": "collateralPoolTokenFactory",
              "type": "address"
            },
            {
              "internalType": "string",
              "name": "poolTokenSuffix",
              "type": "string"
            },
            {
              "internalType": "address",
              "name": "whitelist",
              "type": "address"
            },
            {
              "internalType": "address",
              "name": "agentWhitelist",
              "type": "address"
            },
            {
              "internalType": "address",
              "name": "scProofVerifier",
              "type": "address"
            },
            {
              "internalType": "address",
              "name": "underlyingAddressValidator",
              "type": "address"
            },
            {
              "internalType": "address",
              "name": "liquidationStrategy",
              "type": "address"
            },
            {
              "internalType": "address payable",
              "name": "burnAddress",
              "type": "address"
            },
            {
              "internalType": "address",
              "name": "priceReader",
              "type": "address"
            },
            {
              "internalType": "uint8",
              "name": "assetDecimals",
              "type": "uint8"
            },
            {
              "internalType": "uint8",
              "name": "assetMintingDecimals",
              "type": "uint8"
            },
            {
              "internalType": "bytes32",
              "name": "chainId",
              "type": "bytes32"
            },
            {
              "internalType": "uint32",
              "name": "averageBlockTimeMS",
              "type": "uint32"
            },
            {
              "internalType": "uint32",
              "name": "mintingPoolHoldingsRequiredBIPS",
              "type": "uint32"
            },
            {
              "internalType": "uint16",
              "name": "collateralReservationFeeBIPS",
              "type": "uint16"
            },
            {
              "internalType": "uint64",
              "name": "assetUnitUBA",
              "type": "uint64"
            },
            {
              "internalType": "uint64",
              "name": "assetMintingGranularityUBA",
              "type": "uint64"
            },
            {
              "internalType": "uint64",
              "name": "lotSizeAMG",
              "type": "uint64"
            },
            {
              "internalType": "uint16",
              "name": "minUnderlyingBackingBIPS",
              "type": "uint16"
            },
            {
              "internalType": "bool",
              "name": "requireEOAAddressProof",
              "type": "bool"
            },
            {
              "internalType": "uint64",
              "name": "mintingCapAMG",
              "type": "uint64"
            },
            {
              "internalType": "uint64",
              "name": "underlyingBlocksForPayment",
              "type": "uint64"
            },
            {
              "internalType": "uint64",
              "name": "underlyingSecondsForPayment",
              "type": "uint64"
            },
            {
              "internalType": "uint16",
              "name": "redemptionFeeBIPS",
              "type": "uint16"
            },
            {
              "internalType": "uint32",
              "name": "redemptionDefaultFactorVaultCollateralBIPS",
              "type": "uint32"
            },
            {
              "internalType": "uint32",
              "name": "redemptionDefaultFactorPoolBIPS",
              "type": "uint32"
            },
            {
              "internalType": "uint64",
              "name": "confirmationByOthersAfterSeconds",
              "type": "uint64"
            },
            {
              "internalType": "uint128",
              "name": "confirmationByOthersRewardUSD5",
              "type": "uint128"
            },
            {
              "internalType": "uint16",
              "name": "maxRedeemedTickets",
              "type": "uint16"
            },
            {
              "internalType": "uint16",
              "name": "paymentChallengeRewardBIPS",
              "type": "uint16"
            },
            {
              "internalType": "uint128",
              "name": "paymentChallengeRewardUSD5",
              "type": "uint128"
            },
            {
              "internalType": "uint64",
              "name": "withdrawalWaitMinSeconds",
              "type": "uint64"
            },
            {
              "internalType": "uint64",
              "name": "maxTrustedPriceAgeSeconds",
              "type": "uint64"
            },
            {
              "internalType": "uint64",
              "name": "ccbTimeSeconds",
              "type": "uint64"
            },
            {
              "internalType": "uint64",
              "name": "attestationWindowSeconds",
              "type": "uint64"
            },
            {
              "internalType": "uint64",
              "name": "minUpdateRepeatTimeSeconds",
              "type": "uint64"
            },
            {
              "internalType": "uint64",
              "name": "buybackCollateralFactorBIPS",
              "type": "uint64"
            },
            {
              "internalType": "uint64",
              "name": "announcedUnderlyingConfirmationMinSeconds",
              "type": "uint64"
            },
            {
              "internalType": "uint64",
              "name": "tokenInvalidationTimeMinSeconds",
              "type": "uint64"
            },
            {
              "internalType": "uint32",
              "name": "vaultCollateralBuyForFlareFactorBIPS",
              "type": "uint32"
            },
            {
              "internalType": "uint64",
              "name": "agentExitAvailableTimelockSeconds",
              "type": "uint64"
            },
            {
              "internalType": "uint64",
              "name": "agentFeeChangeTimelockSeconds",
              "type": "uint64"
            },
            {
              "internalType": "uint64",
              "name": "agentMintingCRChangeTimelockSeconds",
              "type": "uint64"
            },
            {
              "internalType": "uint64",
              "name": "poolExitAndTopupChangeTimelockSeconds",
              "type": "uint64"
            },
            {
              "internalType": "uint64",
              "name": "agentTimelockedOperationWindowSeconds",
              "type": "uint64"
            },
            {
              "internalType": "uint32",
              "name": "collateralPoolTokenTimelockSeconds",
              "type": "uint32"
            }
          ],
          "internalType": "struct AssetManagerSettings.Data",
          "name": "_settings",
          "type": "tuple"
        },
        {
          "components": [
            {
              "internalType": "enum CollateralType.Class",
              "name": "collateralClass",
              "type": "uint8"
            },
            {
              "internalType": "contract IERC20",
              "name": "token",
              "type": "address"
            },
            {
              "internalType": "uint256",
              "name": "decimals",
              "type": "uint256"
            },
            {
              "internalType": "uint256",
              "name": "validUntil",
              "type": "uint256"
            },
            {
              "internalType": "bool",
              "name": "directPricePair",
              "type": "bool"
            },
            {
              "internalType": "string",
              "name": "assetFtsoSymbol",
              "type": "string"
            },
            {
              "internalType": "string",
              "name": "tokenFtsoSymbol",
              "type": "string"
            },
            {
              "internalType": "uint256",
              "name": "minCollateralRatioBIPS",
              "type": "uint256"
            },
            {
              "internalType": "uint256",
              "name": "ccbMinCollateralRatioBIPS",
              "type": "uint256"
            },
            {
              "internalType": "uint256",
              "name": "safetyMinCollateralRatioBIPS",
              "type": "uint256"
            }
          ],
          "internalType": "struct CollateralType.Data[]",
          "name": "_initialCollateralTypes",
          "type": "tuple[]"
        },
        {
          "internalType": "bytes",
          "name": "_initialLiquidationSettings",
          "type": "bytes"
        }
      ],
      "stateMutability": "nonpayable",
      "type": "constructor"
    },
    {
      "anonymous": false,
      "inputs": [
        {
          "indexed": true,
          "internalType": "address",
          "name": "agentVault",
          "type": "address"
        },
        {
          "indexed": false,
          "internalType": "uint256",
          "name": "feeBIPS",
          "type": "uint256"
        },
        {
          "indexed": false,
          "internalType": "uint256",
          "name": "mintingVaultCollateralRatioBIPS",
          "type": "uint256"
        },
        {
          "indexed": false,
          "internalType": "uint256",
          "name": "mintingPoolCollateralRatioBIPS",
          "type": "uint256"
        },
        {
          "indexed": false,
          "internalType": "uint256",
          "name": "freeCollateralLots",
          "type": "uint256"
        }
      ],
      "name": "AgentAvailable",
      "type": "event"
    },
    {
      "anonymous": false,
      "inputs": [
        {
          "indexed": true,
          "internalType": "address",
          "name": "agentVault",
          "type": "address"
        },
        {
          "indexed": false,
          "internalType": "uint8",
          "name": "collateralClass",
          "type": "uint8"
        },
        {
          "indexed": false,
          "internalType": "address",
          "name": "token",
          "type": "address"
        }
      ],
      "name": "AgentCollateralTypeChanged",
      "type": "event"
    },
    {
      "anonymous": false,
      "inputs": [
        {
          "indexed": true,
          "internalType": "address",
          "name": "agentVault",
          "type": "address"
        },
        {
          "indexed": false,
          "internalType": "uint256",
          "name": "destroyAllowedAt",
          "type": "uint256"
        }
      ],
      "name": "AgentDestroyAnnounced",
      "type": "event"
    },
    {
      "anonymous": false,
      "inputs": [
        {
          "indexed": true,
          "internalType": "address",
          "name": "agentVault",
          "type": "address"
        }
      ],
      "name": "AgentDestroyed",
      "type": "event"
    },
    {
      "anonymous": false,
      "inputs": [
        {
          "indexed": true,
          "internalType": "address",
          "name": "agentVault",
          "type": "address"
        },
        {
          "indexed": false,
          "internalType": "uint256",
          "name": "timestamp",
          "type": "uint256"
        }
      ],
      "name": "AgentInCCB",
      "type": "event"
    },
    {
      "anonymous": false,
      "inputs": [
        {
          "indexed": true,
          "internalType": "address",
          "name": "agentVault",
          "type": "address"
        },
        {
          "indexed": false,
          "internalType": "string",
          "name": "name",
          "type": "string"
        },
        {
          "indexed": false,
          "internalType": "uint256",
          "name": "value",
          "type": "uint256"
        },
        {
          "indexed": false,
          "internalType": "uint256",
          "name": "validAt",
          "type": "uint256"
        }
      ],
      "name": "AgentSettingChangeAnnounced",
      "type": "event"
    },
    {
      "anonymous": false,
      "inputs": [
        {
          "indexed": true,
          "internalType": "address",
          "name": "agentVault",
          "type": "address"
        },
        {
          "indexed": false,
          "internalType": "string",
          "name": "name",
          "type": "string"
        },
        {
          "indexed": false,
          "internalType": "uint256",
          "name": "value",
          "type": "uint256"
        }
      ],
      "name": "AgentSettingChanged",
      "type": "event"
    },
    {
      "anonymous": false,
      "inputs": [
        {
          "indexed": true,
          "internalType": "address",
          "name": "owner",
          "type": "address"
        },
        {
          "indexed": false,
          "internalType": "address",
          "name": "agentVault",
          "type": "address"
        },
        {
          "indexed": false,
          "internalType": "address",
          "name": "collateralPool",
          "type": "address"
        },
        {
          "indexed": false,
          "internalType": "string",
          "name": "underlyingAddress",
          "type": "string"
        },
        {
          "indexed": false,
          "internalType": "address",
          "name": "vaultCollateralToken",
          "type": "address"
        },
        {
          "indexed": false,
          "internalType": "uint256",
          "name": "feeBIPS",
          "type": "uint256"
        },
        {
          "indexed": false,
          "internalType": "uint256",
          "name": "poolFeeShareBIPS",
          "type": "uint256"
        },
        {
          "indexed": false,
          "internalType": "uint256",
          "name": "mintingVaultCollateralRatioBIPS",
          "type": "uint256"
        },
        {
          "indexed": false,
          "internalType": "uint256",
          "name": "mintingPoolCollateralRatioBIPS",
          "type": "uint256"
        },
        {
          "indexed": false,
          "internalType": "uint256",
          "name": "buyFAssetByAgentFactorBIPS",
          "type": "uint256"
        },
        {
          "indexed": false,
          "internalType": "uint256",
          "name": "poolExitCollateralRatioBIPS",
          "type": "uint256"
        },
        {
          "indexed": false,
          "internalType": "uint256",
          "name": "poolTopupCollateralRatioBIPS",
          "type": "uint256"
        },
        {
          "indexed": false,
          "internalType": "uint256",
          "name": "poolTopupTokenPriceFactorBIPS",
          "type": "uint256"
        }
      ],
      "name": "AgentVaultCreated",
      "type": "event"
    },
    {
      "anonymous": false,
      "inputs": [
        {
          "indexed": true,
          "internalType": "address",
          "name": "agentVault",
          "type": "address"
        },
        {
          "indexed": false,
          "internalType": "uint256",
          "name": "exitAllowedAt",
          "type": "uint256"
        }
      ],
      "name": "AvailableAgentExitAnnounced",
      "type": "event"
    },
    {
      "anonymous": false,
      "inputs": [
        {
          "indexed": true,
          "internalType": "address",
          "name": "agentVault",
          "type": "address"
        }
      ],
      "name": "AvailableAgentExited",
      "type": "event"
    },
    {
      "anonymous": false,
      "inputs": [
        {
          "indexed": false,
          "internalType": "uint8",
          "name": "collateralClass",
          "type": "uint8"
        },
        {
          "indexed": false,
          "internalType": "address",
          "name": "collateralToken",
          "type": "address"
        },
        {
          "indexed": false,
          "internalType": "uint256",
          "name": "minCollateralRatioBIPS",
          "type": "uint256"
        },
        {
          "indexed": false,
          "internalType": "uint256",
          "name": "ccbMinCollateralRatioBIPS",
          "type": "uint256"
        },
        {
          "indexed": false,
          "internalType": "uint256",
          "name": "safetyMinCollateralRatioBIPS",
          "type": "uint256"
        }
      ],
      "name": "CollateralRatiosChanged",
      "type": "event"
    },
    {
      "anonymous": false,
      "inputs": [
        {
          "indexed": true,
          "internalType": "address",
          "name": "agentVault",
          "type": "address"
        },
        {
          "indexed": true,
          "internalType": "address",
          "name": "minter",
          "type": "address"
        },
        {
          "indexed": false,
          "internalType": "uint256",
          "name": "collateralReservationId",
          "type": "uint256"
        },
        {
          "indexed": false,
          "internalType": "uint256",
          "name": "reservedAmountUBA",
          "type": "uint256"
        }
      ],
      "name": "CollateralReservationDeleted",
      "type": "event"
    },
    {
      "anonymous": false,
      "inputs": [
        {
          "indexed": true,
          "internalType": "address",
          "name": "agentVault",
          "type": "address"
        },
        {
          "indexed": true,
          "internalType": "address",
          "name": "minter",
          "type": "address"
        },
        {
          "indexed": false,
          "internalType": "uint256",
          "name": "collateralReservationId",
          "type": "uint256"
        },
        {
          "indexed": false,
          "internalType": "uint256",
          "name": "valueUBA",
          "type": "uint256"
        },
        {
          "indexed": false,
          "internalType": "uint256",
          "name": "feeUBA",
          "type": "uint256"
        },
        {
          "indexed": false,
          "internalType": "uint256",
          "name": "firstUnderlyingBlock",
          "type": "uint256"
        },
        {
          "indexed": false,
          "internalType": "uint256",
          "name": "lastUnderlyingBlock",
          "type": "uint256"
        },
        {
          "indexed": false,
          "internalType": "uint256",
          "name": "lastUnderlyingTimestamp",
          "type": "uint256"
        },
        {
          "indexed": false,
          "internalType": "string",
          "name": "paymentAddress",
          "type": "string"
        },
        {
          "indexed": false,
          "internalType": "bytes32",
          "name": "paymentReference",
          "type": "bytes32"
        }
      ],
      "name": "CollateralReserved",
      "type": "event"
    },
    {
      "anonymous": false,
      "inputs": [
        {
          "indexed": false,
          "internalType": "uint8",
          "name": "collateralClass",
          "type": "uint8"
        },
        {
          "indexed": false,
          "internalType": "address",
          "name": "token",
          "type": "address"
        },
        {
          "indexed": false,
          "internalType": "uint256",
          "name": "decimals",
          "type": "uint256"
        },
        {
          "indexed": false,
          "internalType": "bool",
          "name": "directPricePair",
          "type": "bool"
        },
        {
          "indexed": false,
          "internalType": "string",
          "name": "assetFtsoSymbol",
          "type": "string"
        },
        {
          "indexed": false,
          "internalType": "string",
          "name": "tokenFtsoSymbol",
          "type": "string"
        },
        {
          "indexed": false,
          "internalType": "uint256",
          "name": "minCollateralRatioBIPS",
          "type": "uint256"
        },
        {
          "indexed": false,
          "internalType": "uint256",
          "name": "ccbMinCollateralRatioBIPS",
          "type": "uint256"
        },
        {
          "indexed": false,
          "internalType": "uint256",
          "name": "safetyMinCollateralRatioBIPS",
          "type": "uint256"
        }
      ],
      "name": "CollateralTypeAdded",
      "type": "event"
    },
    {
      "anonymous": false,
      "inputs": [
        {
          "indexed": false,
          "internalType": "uint8",
          "name": "collateralClass",
          "type": "uint8"
        },
        {
          "indexed": false,
          "internalType": "address",
          "name": "collateralToken",
          "type": "address"
        },
        {
          "indexed": false,
          "internalType": "uint256",
          "name": "validUntil",
          "type": "uint256"
        }
      ],
      "name": "CollateralTypeDeprecated",
      "type": "event"
    },
    {
      "anonymous": false,
      "inputs": [
        {
          "indexed": false,
          "internalType": "string",
          "name": "name",
          "type": "string"
        },
        {
          "indexed": false,
          "internalType": "address",
          "name": "value",
          "type": "address"
        }
      ],
      "name": "ContractChanged",
      "type": "event"
    },
    {
      "anonymous": false,
      "inputs": [
        {
          "indexed": false,
          "internalType": "uint256",
          "name": "underlyingBlockNumber",
          "type": "uint256"
        },
        {
          "indexed": false,
          "internalType": "uint256",
          "name": "underlyingBlockTimestamp",
          "type": "uint256"
        },
        {
          "indexed": false,
          "internalType": "uint256",
          "name": "updatedAt",
          "type": "uint256"
        }
      ],
      "name": "CurrentUnderlyingBlockUpdated",
      "type": "event"
    },
    {
      "anonymous": false,
      "inputs": [
        {
          "indexed": true,
          "internalType": "address",
          "name": "agentVault",
          "type": "address"
        },
        {
          "indexed": false,
          "internalType": "bytes32",
          "name": "transactionHash1",
          "type": "bytes32"
        },
        {
          "indexed": false,
          "internalType": "bytes32",
          "name": "transactionHash2",
          "type": "bytes32"
        }
      ],
      "name": "DuplicatePaymentConfirmed",
      "type": "event"
    },
    {
      "anonymous": false,
      "inputs": [
        {
          "indexed": true,
          "internalType": "address",
          "name": "agentVault",
          "type": "address"
        },
        {
          "indexed": false,
          "internalType": "uint256",
          "name": "dustUBA",
          "type": "uint256"
        }
      ],
      "name": "DustChanged",
      "type": "event"
    },
    {
      "anonymous": false,
      "inputs": [
        {
          "indexed": true,
          "internalType": "address",
          "name": "agentVault",
          "type": "address"
        },
        {
          "indexed": false,
          "internalType": "uint256",
          "name": "redemptionTicketId",
          "type": "uint256"
        },
        {
          "indexed": false,
          "internalType": "uint256",
          "name": "valueUBA",
          "type": "uint256"
        }
      ],
      "name": "DustConvertedToTicket",
      "type": "event"
    },
    {
      "anonymous": false,
      "inputs": [
        {
          "indexed": true,
          "internalType": "address",
          "name": "agentVault",
          "type": "address"
        },
        {
          "indexed": false,
          "internalType": "uint256",
          "name": "timestamp",
          "type": "uint256"
        }
      ],
      "name": "FullLiquidationStarted",
      "type": "event"
    },
    {
      "anonymous": false,
      "inputs": [
        {
          "indexed": true,
          "internalType": "address",
          "name": "agentVault",
          "type": "address"
        },
        {
          "indexed": false,
          "internalType": "bytes32",
          "name": "transactionHash",
          "type": "bytes32"
        }
      ],
      "name": "IllegalPaymentConfirmed",
      "type": "event"
    },
    {
      "anonymous": false,
      "inputs": [
        {
          "indexed": true,
          "internalType": "address",
          "name": "agentVault",
          "type": "address"
        }
      ],
      "name": "LiquidationEnded",
      "type": "event"
    },
    {
      "anonymous": false,
      "inputs": [
        {
          "indexed": true,
          "internalType": "address",
          "name": "agentVault",
          "type": "address"
        },
        {
          "indexed": true,
          "internalType": "address",
          "name": "liquidator",
          "type": "address"
        },
        {
          "indexed": false,
          "internalType": "uint256",
          "name": "valueUBA",
          "type": "uint256"
        }
      ],
      "name": "LiquidationPerformed",
      "type": "event"
    },
    {
      "anonymous": false,
      "inputs": [
        {
          "indexed": true,
          "internalType": "address",
          "name": "agentVault",
          "type": "address"
        },
        {
          "indexed": false,
          "internalType": "uint256",
          "name": "timestamp",
          "type": "uint256"
        }
      ],
      "name": "LiquidationStarted",
      "type": "event"
    },
    {
      "anonymous": false,
      "inputs": [
        {
          "indexed": true,
          "internalType": "address",
          "name": "agentVault",
          "type": "address"
        },
        {
          "indexed": false,
          "internalType": "uint256",
          "name": "collateralReservationId",
          "type": "uint256"
        },
        {
          "indexed": false,
          "internalType": "uint256",
          "name": "redemptionTicketId",
          "type": "uint256"
        },
        {
          "indexed": false,
          "internalType": "uint256",
          "name": "mintedAmountUBA",
          "type": "uint256"
        },
        {
          "indexed": false,
          "internalType": "uint256",
          "name": "agentFeeUBA",
          "type": "uint256"
        },
        {
          "indexed": false,
          "internalType": "uint256",
          "name": "poolFeeUBA",
          "type": "uint256"
        }
      ],
      "name": "MintingExecuted",
      "type": "event"
    },
    {
      "anonymous": false,
      "inputs": [
        {
          "indexed": true,
          "internalType": "address",
          "name": "agentVault",
          "type": "address"
        },
        {
          "indexed": true,
          "internalType": "address",
          "name": "minter",
          "type": "address"
        },
        {
          "indexed": false,
          "internalType": "uint256",
          "name": "collateralReservationId",
          "type": "uint256"
        },
        {
          "indexed": false,
          "internalType": "uint256",
          "name": "reservedAmountUBA",
          "type": "uint256"
        }
      ],
      "name": "MintingPaymentDefault",
      "type": "event"
    },
    {
      "anonymous": false,
      "inputs": [
        {
          "indexed": true,
          "internalType": "address",
          "name": "agentVault",
          "type": "address"
        },
        {
          "indexed": false,
          "internalType": "uint256",
          "name": "amountWei",
          "type": "uint256"
        },
        {
          "indexed": false,
          "internalType": "uint256",
          "name": "withdrawalAllowedAt",
          "type": "uint256"
        }
      ],
      "name": "PoolTokenRedemptionAnnounced",
      "type": "event"
    },
    {
      "anonymous": false,
      "inputs": [
        {
          "indexed": true,
          "internalType": "address",
          "name": "agentVault",
          "type": "address"
        },
        {
          "indexed": true,
          "internalType": "address",
          "name": "redeemer",
          "type": "address"
        },
        {
          "indexed": false,
          "internalType": "uint256",
          "name": "redemptionAmountUBA",
          "type": "uint256"
        },
        {
          "indexed": false,
          "internalType": "uint256",
          "name": "paidVaultCollateralWei",
          "type": "uint256"
        }
      ],
      "name": "RedeemedInCollateral",
      "type": "event"
    },
    {
      "anonymous": false,
      "inputs": [
        {
          "indexed": true,
          "internalType": "address",
          "name": "agentVault",
          "type": "address"
        },
        {
          "indexed": true,
          "internalType": "address",
          "name": "redeemer",
          "type": "address"
        },
        {
          "indexed": false,
          "internalType": "uint256",
          "name": "redemptionAmountUBA",
          "type": "uint256"
        },
        {
          "indexed": false,
          "internalType": "uint256",
          "name": "redeemedVaultCollateralWei",
          "type": "uint256"
        },
        {
          "indexed": false,
          "internalType": "uint256",
          "name": "redeemedPoolCollateralWei",
          "type": "uint256"
        },
        {
          "indexed": false,
          "internalType": "uint64",
          "name": "requestId",
          "type": "uint64"
        }
      ],
      "name": "RedemptionDefault",
      "type": "event"
    },
    {
      "anonymous": false,
      "inputs": [
        {
          "indexed": true,
          "internalType": "address",
          "name": "agentVault",
          "type": "address"
        },
        {
          "indexed": true,
          "internalType": "address",
          "name": "redeemer",
          "type": "address"
        },
        {
          "indexed": false,
          "internalType": "bytes32",
          "name": "transactionHash",
          "type": "bytes32"
        },
        {
          "indexed": false,
          "internalType": "uint256",
          "name": "redemptionAmountUBA",
          "type": "uint256"
        },
        {
          "indexed": false,
          "internalType": "int256",
          "name": "spentUnderlyingUBA",
          "type": "int256"
        },
        {
          "indexed": false,
          "internalType": "uint64",
          "name": "requestId",
          "type": "uint64"
        }
      ],
      "name": "RedemptionPaymentBlocked",
      "type": "event"
    },
    {
      "anonymous": false,
      "inputs": [
        {
          "indexed": true,
          "internalType": "address",
          "name": "agentVault",
          "type": "address"
        },
        {
          "indexed": true,
          "internalType": "address",
          "name": "redeemer",
          "type": "address"
        },
        {
          "indexed": false,
          "internalType": "bytes32",
          "name": "transactionHash",
          "type": "bytes32"
        },
        {
          "indexed": false,
          "internalType": "int256",
          "name": "spentUnderlyingUBA",
          "type": "int256"
        },
        {
          "indexed": false,
          "internalType": "uint64",
          "name": "requestId",
          "type": "uint64"
        },
        {
          "indexed": false,
          "internalType": "string",
          "name": "failureReason",
          "type": "string"
        }
      ],
      "name": "RedemptionPaymentFailed",
      "type": "event"
    },
    {
      "anonymous": false,
      "inputs": [
        {
          "indexed": true,
          "internalType": "address",
          "name": "agentVault",
          "type": "address"
        },
        {
          "indexed": true,
          "internalType": "address",
          "name": "redeemer",
          "type": "address"
        },
        {
          "indexed": false,
          "internalType": "bytes32",
          "name": "transactionHash",
          "type": "bytes32"
        },
        {
          "indexed": false,
          "internalType": "uint256",
          "name": "redemptionAmountUBA",
          "type": "uint256"
        },
        {
          "indexed": false,
          "internalType": "int256",
          "name": "spentUnderlyingUBA",
          "type": "int256"
        },
        {
          "indexed": false,
          "internalType": "uint64",
          "name": "requestId",
          "type": "uint64"
        }
      ],
      "name": "RedemptionPerformed",
      "type": "event"
    },
    {
      "anonymous": false,
      "inputs": [
        {
          "indexed": true,
          "internalType": "address",
          "name": "redeemer",
          "type": "address"
        },
        {
          "indexed": false,
          "internalType": "uint256",
          "name": "remainingLots",
          "type": "uint256"
        }
      ],
      "name": "RedemptionRequestIncomplete",
      "type": "event"
    },
    {
      "anonymous": false,
      "inputs": [
        {
          "indexed": true,
          "internalType": "address",
          "name": "agentVault",
          "type": "address"
        },
        {
          "indexed": true,
          "internalType": "address",
          "name": "redeemer",
          "type": "address"
        },
        {
          "indexed": false,
          "internalType": "uint256",
          "name": "requestId",
          "type": "uint256"
        },
        {
          "indexed": false,
          "internalType": "string",
          "name": "paymentAddress",
          "type": "string"
        },
        {
          "indexed": false,
          "internalType": "uint256",
          "name": "valueUBA",
          "type": "uint256"
        },
        {
          "indexed": false,
          "internalType": "uint256",
          "name": "feeUBA",
          "type": "uint256"
        },
        {
          "indexed": false,
          "internalType": "uint256",
          "name": "firstUnderlyingBlock",
          "type": "uint256"
        },
        {
          "indexed": false,
          "internalType": "uint256",
          "name": "lastUnderlyingBlock",
          "type": "uint256"
        },
        {
          "indexed": false,
          "internalType": "uint256",
          "name": "lastUnderlyingTimestamp",
          "type": "uint256"
        },
        {
          "indexed": false,
          "internalType": "bytes32",
          "name": "paymentReference",
          "type": "bytes32"
        }
      ],
      "name": "RedemptionRequested",
      "type": "event"
    },
    {
      "anonymous": false,
      "inputs": [
        {
          "indexed": true,
          "internalType": "address",
          "name": "agentVault",
          "type": "address"
        },
        {
          "indexed": false,
          "internalType": "uint256",
          "name": "valueUBA",
          "type": "uint256"
        }
      ],
      "name": "SelfClose",
      "type": "event"
    },
    {
      "anonymous": false,
      "inputs": [
        {
          "indexed": false,
          "internalType": "string",
          "name": "name",
          "type": "string"
        },
        {
          "indexed": false,
          "internalType": "uint256[]",
          "name": "value",
          "type": "uint256[]"
        }
      ],
      "name": "SettingArrayChanged",
      "type": "event"
    },
    {
      "anonymous": false,
      "inputs": [
        {
          "indexed": false,
          "internalType": "string",
          "name": "name",
          "type": "string"
        },
        {
          "indexed": false,
          "internalType": "uint256",
          "name": "value",
          "type": "uint256"
        }
      ],
      "name": "SettingChanged",
      "type": "event"
    },
    {
      "anonymous": false,
      "inputs": [
        {
          "indexed": true,
          "internalType": "address",
          "name": "agentVault",
          "type": "address"
        },
        {
          "indexed": false,
          "internalType": "int256",
          "name": "underlyingBalanceUBA",
          "type": "int256"
        }
      ],
      "name": "UnderlyingBalanceChanged",
      "type": "event"
    },
    {
      "anonymous": false,
      "inputs": [
        {
          "indexed": true,
          "internalType": "address",
          "name": "agentVault",
          "type": "address"
        },
        {
          "indexed": false,
          "internalType": "int256",
          "name": "balance",
          "type": "int256"
        },
        {
          "indexed": false,
          "internalType": "uint256",
          "name": "requiredBalance",
          "type": "uint256"
        }
      ],
      "name": "UnderlyingBalanceTooLow",
      "type": "event"
    },
    {
      "anonymous": false,
      "inputs": [
        {
          "indexed": true,
          "internalType": "address",
          "name": "agentVault",
          "type": "address"
        },
        {
          "indexed": false,
          "internalType": "bytes32",
          "name": "transactionHash",
          "type": "bytes32"
        },
        {
          "indexed": false,
          "internalType": "uint256",
          "name": "depositedUBA",
          "type": "uint256"
        }
      ],
      "name": "UnderlyingBalanceToppedUp",
      "type": "event"
    },
    {
      "anonymous": false,
      "inputs": [
        {
          "indexed": true,
          "internalType": "address",
          "name": "agentVault",
          "type": "address"
        },
        {
          "indexed": false,
          "internalType": "uint64",
          "name": "announcementId",
          "type": "uint64"
        },
        {
          "indexed": false,
          "internalType": "bytes32",
          "name": "paymentReference",
          "type": "bytes32"
        }
      ],
      "name": "UnderlyingWithdrawalAnnounced",
      "type": "event"
    },
    {
      "anonymous": false,
      "inputs": [
        {
          "indexed": true,
          "internalType": "address",
          "name": "agentVault",
          "type": "address"
        },
        {
          "indexed": false,
          "internalType": "uint64",
          "name": "announcementId",
          "type": "uint64"
        }
      ],
      "name": "UnderlyingWithdrawalCancelled",
      "type": "event"
    },
    {
      "anonymous": false,
      "inputs": [
        {
          "indexed": true,
          "internalType": "address",
          "name": "agentVault",
          "type": "address"
        },
        {
          "indexed": false,
          "internalType": "int256",
          "name": "spentUBA",
          "type": "int256"
        },
        {
          "indexed": false,
          "internalType": "bytes32",
          "name": "transactionHash",
          "type": "bytes32"
        },
        {
          "indexed": false,
          "internalType": "uint64",
          "name": "announcementId",
          "type": "uint64"
        }
      ],
      "name": "UnderlyingWithdrawalConfirmed",
      "type": "event"
    },
    {
      "anonymous": false,
      "inputs": [
        {
          "indexed": true,
          "internalType": "address",
          "name": "agentVault",
          "type": "address"
        },
        {
          "indexed": false,
          "internalType": "uint256",
          "name": "amountWei",
          "type": "uint256"
        },
        {
          "indexed": false,
          "internalType": "uint256",
          "name": "withdrawalAllowedAt",
          "type": "uint256"
        }
      ],
      "name": "VaultCollateralWithdrawalAnnounced",
      "type": "event"
    },
    {
      "inputs": [
        {
          "components": [
            {
              "internalType": "enum CollateralType.Class",
              "name": "collateralClass",
              "type": "uint8"
            },
            {
              "internalType": "contract IERC20",
              "name": "token",
              "type": "address"
            },
            {
              "internalType": "uint256",
              "name": "decimals",
              "type": "uint256"
            },
            {
              "internalType": "uint256",
              "name": "validUntil",
              "type": "uint256"
            },
            {
              "internalType": "bool",
              "name": "directPricePair",
              "type": "bool"
            },
            {
              "internalType": "string",
              "name": "assetFtsoSymbol",
              "type": "string"
            },
            {
              "internalType": "string",
              "name": "tokenFtsoSymbol",
              "type": "string"
            },
            {
              "internalType": "uint256",
              "name": "minCollateralRatioBIPS",
              "type": "uint256"
            },
            {
              "internalType": "uint256",
              "name": "ccbMinCollateralRatioBIPS",
              "type": "uint256"
            },
            {
              "internalType": "uint256",
              "name": "safetyMinCollateralRatioBIPS",
              "type": "uint256"
            }
          ],
          "internalType": "struct CollateralType.Data",
          "name": "_data",
          "type": "tuple"
        }
      ],
      "name": "addCollateralType",
      "outputs": [],
      "stateMutability": "nonpayable",
      "type": "function"
    },
    {
      "inputs": [
        {
          "internalType": "address",
          "name": "_agentVault",
          "type": "address"
        },
        {
          "internalType": "uint256",
          "name": "_valueNATWei",
          "type": "uint256"
        }
      ],
      "name": "announceAgentPoolTokenRedemption",
      "outputs": [
        {
          "internalType": "uint256",
          "name": "_redemptionAllowedAt",
          "type": "uint256"
        }
      ],
      "stateMutability": "nonpayable",
      "type": "function"
    },
    {
      "inputs": [
        {
          "internalType": "address",
          "name": "_agentVault",
          "type": "address"
        },
        {
          "internalType": "string",
          "name": "_name",
          "type": "string"
        },
        {
          "internalType": "uint256",
          "name": "_value",
          "type": "uint256"
        }
      ],
      "name": "announceAgentSettingUpdate",
      "outputs": [
        {
          "internalType": "uint256",
          "name": "_updateAllowedAt",
          "type": "uint256"
        }
      ],
      "stateMutability": "nonpayable",
      "type": "function"
    },
    {
      "inputs": [
        {
          "internalType": "address",
          "name": "_agentVault",
          "type": "address"
        }
      ],
      "name": "announceDestroyAgent",
      "outputs": [
        {
          "internalType": "uint256",
          "name": "_destroyAllowedAt",
          "type": "uint256"
        }
      ],
      "stateMutability": "nonpayable",
      "type": "function"
    },
    {
      "inputs": [
        {
          "internalType": "address",
          "name": "_agentVault",
          "type": "address"
        }
      ],
      "name": "announceExitAvailableAgentList",
      "outputs": [
        {
          "internalType": "uint256",
          "name": "_exitAllowedAt",
          "type": "uint256"
        }
      ],
      "stateMutability": "nonpayable",
      "type": "function"
    },
    {
      "inputs": [
        {
          "internalType": "address",
          "name": "_agentVault",
          "type": "address"
        }
      ],
      "name": "announceUnderlyingWithdrawal",
      "outputs": [],
      "stateMutability": "nonpayable",
      "type": "function"
    },
    {
      "inputs": [
        {
          "internalType": "address",
          "name": "_agentVault",
          "type": "address"
        },
        {
          "internalType": "uint256",
          "name": "_valueNATWei",
          "type": "uint256"
        }
      ],
      "name": "announceVaultCollateralWithdrawal",
      "outputs": [
        {
          "internalType": "uint256",
          "name": "_withdrawalAllowedAt",
          "type": "uint256"
        }
      ],
      "stateMutability": "nonpayable",
      "type": "function"
    },
    {
      "inputs": [],
      "name": "assetManagerController",
      "outputs": [
        {
          "internalType": "address",
          "name": "",
          "type": "address"
        }
      ],
      "stateMutability": "view",
      "type": "function"
    },
    {
      "inputs": [],
      "name": "assetPriceNatWei",
      "outputs": [
        {
          "internalType": "uint256",
          "name": "_multiplier",
          "type": "uint256"
        },
        {
          "internalType": "uint256",
          "name": "_divisor",
          "type": "uint256"
        }
      ],
      "stateMutability": "view",
      "type": "function"
    },
    {
      "inputs": [
        {
          "internalType": "bool",
          "name": "attached",
          "type": "bool"
        }
      ],
      "name": "attachController",
      "outputs": [],
      "stateMutability": "nonpayable",
      "type": "function"
    },
    {
      "inputs": [
        {
          "internalType": "contract IERC20",
          "name": "_token",
          "type": "address"
        },
        {
          "internalType": "uint256",
          "name": "_valueNATWei",
          "type": "uint256"
        }
      ],
      "name": "beforeCollateralWithdrawal",
      "outputs": [],
      "stateMutability": "nonpayable",
      "type": "function"
    },
    {
      "inputs": [
        {
          "internalType": "address",
          "name": "_agentVault",
          "type": "address"
        }
      ],
      "name": "buybackAgentCollateral",
      "outputs": [],
      "stateMutability": "payable",
      "type": "function"
    },
    {
      "inputs": [
        {
          "internalType": "address",
          "name": "_agentVault",
          "type": "address"
        }
      ],
      "name": "cancelUnderlyingWithdrawal",
      "outputs": [],
      "stateMutability": "nonpayable",
      "type": "function"
    },
    {
      "inputs": [
        {
          "internalType": "uint256",
          "name": "_lots",
          "type": "uint256"
        }
      ],
      "name": "collateralReservationFee",
      "outputs": [
        {
          "internalType": "uint256",
          "name": "_reservationFeeNATWei",
          "type": "uint256"
        }
      ],
      "stateMutability": "view",
      "type": "function"
    },
    {
      "inputs": [
        {
          "components": [
            {
              "internalType": "bytes32[]",
              "name": "merkleProof",
              "type": "bytes32[]"
            },
            {
              "components": [
                {
                  "internalType": "bytes32",
                  "name": "attestationType",
                  "type": "bytes32"
                },
                {
                  "internalType": "bytes32",
                  "name": "sourceId",
                  "type": "bytes32"
                },
                {
                  "internalType": "uint64",
                  "name": "votingRound",
                  "type": "uint64"
                },
                {
                  "internalType": "uint64",
                  "name": "lowestUsedTimestamp",
                  "type": "uint64"
                },
                {
                  "components": [
                    {
                      "internalType": "bytes32",
                      "name": "transactionId",
                      "type": "bytes32"
                    },
                    {
                      "internalType": "uint256",
                      "name": "inUtxo",
                      "type": "uint256"
                    },
                    {
                      "internalType": "uint16",
                      "name": "utxo",
                      "type": "uint16"
                    }
                  ],
                  "internalType": "struct Payment.RequestBody",
                  "name": "requestBody",
                  "type": "tuple"
                },
                {
                  "components": [
                    {
                      "internalType": "uint64",
                      "name": "blockNumber",
                      "type": "uint64"
                    },
                    {
                      "internalType": "uint64",
                      "name": "blockTimestamp",
                      "type": "uint64"
                    },
                    {
                      "internalType": "bytes32",
                      "name": "sourceAddressHash",
                      "type": "bytes32"
                    },
                    {
                      "internalType": "bytes32",
                      "name": "receivingAddressHash",
                      "type": "bytes32"
                    },
                    {
                      "internalType": "bytes32",
                      "name": "intendedReceivingAddressHash",
                      "type": "bytes32"
                    },
                    {
                      "internalType": "int256",
                      "name": "spentAmount",
                      "type": "int256"
                    },
                    {
                      "internalType": "int256",
                      "name": "intendedSpentAmount",
                      "type": "int256"
                    },
                    {
                      "internalType": "int256",
                      "name": "receivedAmount",
                      "type": "int256"
                    },
                    {
                      "internalType": "int256",
                      "name": "intendedReceivedAmount",
                      "type": "int256"
                    },
                    {
                      "internalType": "bytes32",
                      "name": "standardPaymentReference",
                      "type": "bytes32"
                    },
                    {
                      "internalType": "bool",
                      "name": "oneToOne",
                      "type": "bool"
                    },
                    {
                      "internalType": "uint8",
                      "name": "status",
                      "type": "uint8"
                    }
                  ],
                  "internalType": "struct Payment.ResponseBody",
                  "name": "responseBody",
                  "type": "tuple"
                }
              ],
              "internalType": "struct Payment.Response",
              "name": "data",
              "type": "tuple"
            }
          ],
          "internalType": "struct Payment.Proof",
          "name": "_payment",
          "type": "tuple"
        },
        {
          "internalType": "uint256",
          "name": "_redemptionRequestId",
          "type": "uint256"
        }
      ],
      "name": "confirmRedemptionPayment",
      "outputs": [],
      "stateMutability": "nonpayable",
      "type": "function"
    },
    {
      "inputs": [
        {
          "components": [
            {
              "internalType": "bytes32[]",
              "name": "merkleProof",
              "type": "bytes32[]"
            },
            {
              "components": [
                {
                  "internalType": "bytes32",
                  "name": "attestationType",
                  "type": "bytes32"
                },
                {
                  "internalType": "bytes32",
                  "name": "sourceId",
                  "type": "bytes32"
                },
                {
                  "internalType": "uint64",
                  "name": "votingRound",
                  "type": "uint64"
                },
                {
                  "internalType": "uint64",
                  "name": "lowestUsedTimestamp",
                  "type": "uint64"
                },
                {
                  "components": [
                    {
                      "internalType": "bytes32",
                      "name": "transactionId",
                      "type": "bytes32"
                    },
                    {
                      "internalType": "uint256",
                      "name": "inUtxo",
                      "type": "uint256"
                    },
                    {
                      "internalType": "uint16",
                      "name": "utxo",
                      "type": "uint16"
                    }
                  ],
                  "internalType": "struct Payment.RequestBody",
                  "name": "requestBody",
                  "type": "tuple"
                },
                {
                  "components": [
                    {
                      "internalType": "uint64",
                      "name": "blockNumber",
                      "type": "uint64"
                    },
                    {
                      "internalType": "uint64",
                      "name": "blockTimestamp",
                      "type": "uint64"
                    },
                    {
                      "internalType": "bytes32",
                      "name": "sourceAddressHash",
                      "type": "bytes32"
                    },
                    {
                      "internalType": "bytes32",
                      "name": "receivingAddressHash",
                      "type": "bytes32"
                    },
                    {
                      "internalType": "bytes32",
                      "name": "intendedReceivingAddressHash",
                      "type": "bytes32"
                    },
                    {
                      "internalType": "int256",
                      "name": "spentAmount",
                      "type": "int256"
                    },
                    {
                      "internalType": "int256",
                      "name": "intendedSpentAmount",
                      "type": "int256"
                    },
                    {
                      "internalType": "int256",
                      "name": "receivedAmount",
                      "type": "int256"
                    },
                    {
                      "internalType": "int256",
                      "name": "intendedReceivedAmount",
                      "type": "int256"
                    },
                    {
                      "internalType": "bytes32",
                      "name": "standardPaymentReference",
                      "type": "bytes32"
                    },
                    {
                      "internalType": "bool",
                      "name": "oneToOne",
                      "type": "bool"
                    },
                    {
                      "internalType": "uint8",
                      "name": "status",
                      "type": "uint8"
                    }
                  ],
                  "internalType": "struct Payment.ResponseBody",
                  "name": "responseBody",
                  "type": "tuple"
                }
              ],
              "internalType": "struct Payment.Response",
              "name": "data",
              "type": "tuple"
            }
          ],
          "internalType": "struct Payment.Proof",
          "name": "_payment",
          "type": "tuple"
        },
        {
          "internalType": "address",
          "name": "_agentVault",
          "type": "address"
        }
      ],
      "name": "confirmTopupPayment",
      "outputs": [],
      "stateMutability": "nonpayable",
      "type": "function"
    },
    {
      "inputs": [
        {
          "components": [
            {
              "internalType": "bytes32[]",
              "name": "merkleProof",
              "type": "bytes32[]"
            },
            {
              "components": [
                {
                  "internalType": "bytes32",
                  "name": "attestationType",
                  "type": "bytes32"
                },
                {
                  "internalType": "bytes32",
                  "name": "sourceId",
                  "type": "bytes32"
                },
                {
                  "internalType": "uint64",
                  "name": "votingRound",
                  "type": "uint64"
                },
                {
                  "internalType": "uint64",
                  "name": "lowestUsedTimestamp",
                  "type": "uint64"
                },
                {
                  "components": [
                    {
                      "internalType": "bytes32",
                      "name": "transactionId",
                      "type": "bytes32"
                    },
                    {
                      "internalType": "uint256",
                      "name": "inUtxo",
                      "type": "uint256"
                    },
                    {
                      "internalType": "uint16",
                      "name": "utxo",
                      "type": "uint16"
                    }
                  ],
                  "internalType": "struct Payment.RequestBody",
                  "name": "requestBody",
                  "type": "tuple"
                },
                {
                  "components": [
                    {
                      "internalType": "uint64",
                      "name": "blockNumber",
                      "type": "uint64"
                    },
                    {
                      "internalType": "uint64",
                      "name": "blockTimestamp",
                      "type": "uint64"
                    },
                    {
                      "internalType": "bytes32",
                      "name": "sourceAddressHash",
                      "type": "bytes32"
                    },
                    {
                      "internalType": "bytes32",
                      "name": "receivingAddressHash",
                      "type": "bytes32"
                    },
                    {
                      "internalType": "bytes32",
                      "name": "intendedReceivingAddressHash",
                      "type": "bytes32"
                    },
                    {
                      "internalType": "int256",
                      "name": "spentAmount",
                      "type": "int256"
                    },
                    {
                      "internalType": "int256",
                      "name": "intendedSpentAmount",
                      "type": "int256"
                    },
                    {
                      "internalType": "int256",
                      "name": "receivedAmount",
                      "type": "int256"
                    },
                    {
                      "internalType": "int256",
                      "name": "intendedReceivedAmount",
                      "type": "int256"
                    },
                    {
                      "internalType": "bytes32",
                      "name": "standardPaymentReference",
                      "type": "bytes32"
                    },
                    {
                      "internalType": "bool",
                      "name": "oneToOne",
                      "type": "bool"
                    },
                    {
                      "internalType": "uint8",
                      "name": "status",
                      "type": "uint8"
                    }
                  ],
                  "internalType": "struct Payment.ResponseBody",
                  "name": "responseBody",
                  "type": "tuple"
                }
              ],
              "internalType": "struct Payment.Response",
              "name": "data",
              "type": "tuple"
            }
          ],
          "internalType": "struct Payment.Proof",
          "name": "_payment",
          "type": "tuple"
        },
        {
          "internalType": "address",
          "name": "_agentVault",
          "type": "address"
        }
      ],
      "name": "confirmUnderlyingWithdrawal",
      "outputs": [],
      "stateMutability": "nonpayable",
      "type": "function"
    },
    {
      "inputs": [],
      "name": "controllerAttached",
      "outputs": [
        {
          "internalType": "bool",
          "name": "",
          "type": "bool"
        }
      ],
      "stateMutability": "view",
      "type": "function"
    },
    {
      "inputs": [
        {
          "internalType": "address",
          "name": "_agentVault",
          "type": "address"
        }
      ],
      "name": "convertDustToTicket",
      "outputs": [],
      "stateMutability": "nonpayable",
      "type": "function"
    },
    {
      "inputs": [
        {
          "components": [
            {
              "internalType": "string",
              "name": "underlyingAddressString",
              "type": "string"
            },
            {
              "internalType": "contract IERC20",
              "name": "vaultCollateralToken",
              "type": "address"
            },
            {
              "internalType": "string",
              "name": "poolTokenSuffix",
              "type": "string"
            },
            {
              "internalType": "uint256",
              "name": "feeBIPS",
              "type": "uint256"
            },
            {
              "internalType": "uint256",
              "name": "poolFeeShareBIPS",
              "type": "uint256"
            },
            {
              "internalType": "uint256",
              "name": "mintingVaultCollateralRatioBIPS",
              "type": "uint256"
            },
            {
              "internalType": "uint256",
              "name": "mintingPoolCollateralRatioBIPS",
              "type": "uint256"
            },
            {
              "internalType": "uint256",
              "name": "buyFAssetByAgentFactorBIPS",
              "type": "uint256"
            },
            {
              "internalType": "uint256",
              "name": "poolExitCollateralRatioBIPS",
              "type": "uint256"
            },
            {
              "internalType": "uint256",
              "name": "poolTopupCollateralRatioBIPS",
              "type": "uint256"
            },
            {
              "internalType": "uint256",
              "name": "poolTopupTokenPriceFactorBIPS",
              "type": "uint256"
            }
          ],
          "internalType": "struct AgentSettings.Data",
          "name": "_settings",
          "type": "tuple"
        }
      ],
      "name": "createAgentVault",
      "outputs": [
        {
          "internalType": "address",
          "name": "_agentVault",
          "type": "address"
        }
      ],
      "stateMutability": "nonpayable",
      "type": "function"
    },
    {
      "inputs": [],
      "name": "currentUnderlyingBlock",
      "outputs": [
        {
          "internalType": "uint256",
          "name": "_blockNumber",
          "type": "uint256"
        },
        {
          "internalType": "uint256",
          "name": "_blockTimestamp",
          "type": "uint256"
        }
      ],
      "stateMutability": "view",
      "type": "function"
    },
    {
      "inputs": [
        {
          "internalType": "enum CollateralType.Class",
          "name": "_collateralClass",
          "type": "uint8"
        },
        {
          "internalType": "contract IERC20",
          "name": "_token",
          "type": "address"
        },
        {
          "internalType": "uint256",
          "name": "_invalidationTimeSec",
          "type": "uint256"
        }
      ],
      "name": "deprecateCollateralType",
      "outputs": [],
      "stateMutability": "nonpayable",
      "type": "function"
    },
    {
      "inputs": [
        {
          "internalType": "address",
          "name": "_agentVault",
          "type": "address"
        },
        {
          "internalType": "address payable",
          "name": "_recipient",
          "type": "address"
        }
      ],
      "name": "destroyAgent",
      "outputs": [],
      "stateMutability": "nonpayable",
      "type": "function"
    },
    {
      "inputs": [
        {
          "components": [
            {
              "internalType": "bytes32[]",
              "name": "merkleProof",
              "type": "bytes32[]"
            },
            {
              "components": [
                {
                  "internalType": "bytes32",
                  "name": "attestationType",
                  "type": "bytes32"
                },
                {
                  "internalType": "bytes32",
                  "name": "sourceId",
                  "type": "bytes32"
                },
                {
                  "internalType": "uint64",
                  "name": "votingRound",
                  "type": "uint64"
                },
                {
                  "internalType": "uint64",
                  "name": "lowestUsedTimestamp",
                  "type": "uint64"
                },
                {
                  "components": [
                    {
                      "internalType": "bytes32",
                      "name": "transactionId",
                      "type": "bytes32"
                    },
                    {
                      "internalType": "bytes32",
                      "name": "sourceAddressIndicator",
                      "type": "bytes32"
                    }
                  ],
                  "internalType": "struct BalanceDecreasingTransaction.RequestBody",
                  "name": "requestBody",
                  "type": "tuple"
                },
                {
                  "components": [
                    {
                      "internalType": "uint64",
                      "name": "blockNumber",
                      "type": "uint64"
                    },
                    {
                      "internalType": "uint64",
                      "name": "blockTimestamp",
                      "type": "uint64"
                    },
                    {
                      "internalType": "bytes32",
                      "name": "sourceAddressHash",
                      "type": "bytes32"
                    },
                    {
                      "internalType": "int256",
                      "name": "spentAmount",
                      "type": "int256"
                    },
                    {
                      "internalType": "bytes32",
                      "name": "standardPaymentReference",
                      "type": "bytes32"
                    }
                  ],
                  "internalType": "struct BalanceDecreasingTransaction.ResponseBody",
                  "name": "responseBody",
                  "type": "tuple"
                }
              ],
              "internalType": "struct BalanceDecreasingTransaction.Response",
              "name": "data",
              "type": "tuple"
            }
          ],
          "internalType": "struct BalanceDecreasingTransaction.Proof",
          "name": "_payment1",
          "type": "tuple"
        },
        {
          "components": [
            {
              "internalType": "bytes32[]",
              "name": "merkleProof",
              "type": "bytes32[]"
            },
            {
              "components": [
                {
                  "internalType": "bytes32",
                  "name": "attestationType",
                  "type": "bytes32"
                },
                {
                  "internalType": "bytes32",
                  "name": "sourceId",
                  "type": "bytes32"
                },
                {
                  "internalType": "uint64",
                  "name": "votingRound",
                  "type": "uint64"
                },
                {
                  "internalType": "uint64",
                  "name": "lowestUsedTimestamp",
                  "type": "uint64"
                },
                {
                  "components": [
                    {
                      "internalType": "bytes32",
                      "name": "transactionId",
                      "type": "bytes32"
                    },
                    {
                      "internalType": "bytes32",
                      "name": "sourceAddressIndicator",
                      "type": "bytes32"
                    }
                  ],
                  "internalType": "struct BalanceDecreasingTransaction.RequestBody",
                  "name": "requestBody",
                  "type": "tuple"
                },
                {
                  "components": [
                    {
                      "internalType": "uint64",
                      "name": "blockNumber",
                      "type": "uint64"
                    },
                    {
                      "internalType": "uint64",
                      "name": "blockTimestamp",
                      "type": "uint64"
                    },
                    {
                      "internalType": "bytes32",
                      "name": "sourceAddressHash",
                      "type": "bytes32"
                    },
                    {
                      "internalType": "int256",
                      "name": "spentAmount",
                      "type": "int256"
                    },
                    {
                      "internalType": "bytes32",
                      "name": "standardPaymentReference",
                      "type": "bytes32"
                    }
                  ],
                  "internalType": "struct BalanceDecreasingTransaction.ResponseBody",
                  "name": "responseBody",
                  "type": "tuple"
                }
              ],
              "internalType": "struct BalanceDecreasingTransaction.Response",
              "name": "data",
              "type": "tuple"
            }
          ],
          "internalType": "struct BalanceDecreasingTransaction.Proof",
          "name": "_payment2",
          "type": "tuple"
        },
        {
          "internalType": "address",
          "name": "_agentVault",
          "type": "address"
        }
      ],
      "name": "doublePaymentChallenge",
      "outputs": [],
      "stateMutability": "nonpayable",
      "type": "function"
    },
    {
      "inputs": [
        {
          "internalType": "address",
          "name": "_agentVault",
          "type": "address"
        }
      ],
      "name": "endLiquidation",
      "outputs": [],
      "stateMutability": "nonpayable",
      "type": "function"
    },
    {
      "inputs": [
        {
          "internalType": "address",
          "name": "_agentVault",
          "type": "address"
        },
        {
          "internalType": "string",
          "name": "_name",
          "type": "string"
        }
      ],
      "name": "executeAgentSettingUpdate",
      "outputs": [],
      "stateMutability": "nonpayable",
      "type": "function"
    },
    {
      "inputs": [
        {
          "components": [
            {
              "internalType": "bytes32[]",
              "name": "merkleProof",
              "type": "bytes32[]"
            },
            {
              "components": [
                {
                  "internalType": "bytes32",
                  "name": "attestationType",
                  "type": "bytes32"
                },
                {
                  "internalType": "bytes32",
                  "name": "sourceId",
                  "type": "bytes32"
                },
                {
                  "internalType": "uint64",
                  "name": "votingRound",
                  "type": "uint64"
                },
                {
                  "internalType": "uint64",
                  "name": "lowestUsedTimestamp",
                  "type": "uint64"
                },
                {
                  "components": [
                    {
                      "internalType": "bytes32",
                      "name": "transactionId",
                      "type": "bytes32"
                    },
                    {
                      "internalType": "uint256",
                      "name": "inUtxo",
                      "type": "uint256"
                    },
                    {
                      "internalType": "uint16",
                      "name": "utxo",
                      "type": "uint16"
                    }
                  ],
                  "internalType": "struct Payment.RequestBody",
                  "name": "requestBody",
                  "type": "tuple"
                },
                {
                  "components": [
                    {
                      "internalType": "uint64",
                      "name": "blockNumber",
                      "type": "uint64"
                    },
                    {
                      "internalType": "uint64",
                      "name": "blockTimestamp",
                      "type": "uint64"
                    },
                    {
                      "internalType": "bytes32",
                      "name": "sourceAddressHash",
                      "type": "bytes32"
                    },
                    {
                      "internalType": "bytes32",
                      "name": "receivingAddressHash",
                      "type": "bytes32"
                    },
                    {
                      "internalType": "bytes32",
                      "name": "intendedReceivingAddressHash",
                      "type": "bytes32"
                    },
                    {
                      "internalType": "int256",
                      "name": "spentAmount",
                      "type": "int256"
                    },
                    {
                      "internalType": "int256",
                      "name": "intendedSpentAmount",
                      "type": "int256"
                    },
                    {
                      "internalType": "int256",
                      "name": "receivedAmount",
                      "type": "int256"
                    },
                    {
                      "internalType": "int256",
                      "name": "intendedReceivedAmount",
                      "type": "int256"
                    },
                    {
                      "internalType": "bytes32",
                      "name": "standardPaymentReference",
                      "type": "bytes32"
                    },
                    {
                      "internalType": "bool",
                      "name": "oneToOne",
                      "type": "bool"
                    },
                    {
                      "internalType": "uint8",
                      "name": "status",
                      "type": "uint8"
                    }
                  ],
                  "internalType": "struct Payment.ResponseBody",
                  "name": "responseBody",
                  "type": "tuple"
                }
              ],
              "internalType": "struct Payment.Response",
              "name": "data",
              "type": "tuple"
            }
          ],
          "internalType": "struct Payment.Proof",
          "name": "_payment",
          "type": "tuple"
        },
        {
          "internalType": "uint256",
          "name": "_collateralReservationId",
          "type": "uint256"
        }
      ],
      "name": "executeMinting",
      "outputs": [],
      "stateMutability": "nonpayable",
      "type": "function"
    },
    {
      "inputs": [
        {
          "internalType": "address",
          "name": "_agentVault",
          "type": "address"
        }
      ],
      "name": "exitAvailableAgentList",
      "outputs": [],
      "stateMutability": "nonpayable",
      "type": "function"
    },
    {
      "inputs": [],
      "name": "fAsset",
      "outputs": [
        {
          "internalType": "contract IERC20",
          "name": "",
          "type": "address"
        }
      ],
      "stateMutability": "view",
      "type": "function"
    },
    {
      "inputs": [
        {
          "components": [
            {
              "internalType": "bytes32[]",
              "name": "merkleProof",
              "type": "bytes32[]"
            },
            {
              "components": [
                {
                  "internalType": "bytes32",
                  "name": "attestationType",
                  "type": "bytes32"
                },
                {
                  "internalType": "bytes32",
                  "name": "sourceId",
                  "type": "bytes32"
                },
                {
                  "internalType": "uint64",
                  "name": "votingRound",
                  "type": "uint64"
                },
                {
                  "internalType": "uint64",
                  "name": "lowestUsedTimestamp",
                  "type": "uint64"
                },
                {
                  "components": [
                    {
                      "internalType": "uint64",
                      "name": "blockNumber",
                      "type": "uint64"
                    },
                    {
                      "internalType": "uint64",
                      "name": "queryWindow",
                      "type": "uint64"
                    }
                  ],
                  "internalType": "struct ConfirmedBlockHeightExists.RequestBody",
                  "name": "requestBody",
                  "type": "tuple"
                },
                {
                  "components": [
                    {
                      "internalType": "uint64",
                      "name": "blockTimestamp",
                      "type": "uint64"
                    },
                    {
                      "internalType": "uint64",
                      "name": "numberOfConfirmations",
                      "type": "uint64"
                    },
                    {
                      "internalType": "uint64",
                      "name": "lowestQueryWindowBlockNumber",
                      "type": "uint64"
                    },
                    {
                      "internalType": "uint64",
                      "name": "lowestQueryWindowBlockTimestamp",
                      "type": "uint64"
                    }
                  ],
                  "internalType": "struct ConfirmedBlockHeightExists.ResponseBody",
                  "name": "responseBody",
                  "type": "tuple"
                }
              ],
              "internalType": "struct ConfirmedBlockHeightExists.Response",
              "name": "data",
              "type": "tuple"
            }
          ],
          "internalType": "struct ConfirmedBlockHeightExists.Proof",
          "name": "_proof",
          "type": "tuple"
        },
        {
          "internalType": "uint256",
          "name": "_redemptionRequestId",
          "type": "uint256"
        }
      ],
      "name": "finishRedemptionWithoutPayment",
      "outputs": [],
      "stateMutability": "nonpayable",
      "type": "function"
    },
    {
      "inputs": [
        {
          "components": [
            {
              "internalType": "bytes32[]",
              "name": "merkleProof",
              "type": "bytes32[]"
            },
            {
              "components": [
                {
                  "internalType": "bytes32",
                  "name": "attestationType",
                  "type": "bytes32"
                },
                {
                  "internalType": "bytes32",
                  "name": "sourceId",
                  "type": "bytes32"
                },
                {
                  "internalType": "uint64",
                  "name": "votingRound",
                  "type": "uint64"
                },
                {
                  "internalType": "uint64",
                  "name": "lowestUsedTimestamp",
                  "type": "uint64"
                },
                {
                  "components": [
                    {
                      "internalType": "bytes32",
                      "name": "transactionId",
                      "type": "bytes32"
                    },
                    {
                      "internalType": "bytes32",
                      "name": "sourceAddressIndicator",
                      "type": "bytes32"
                    }
                  ],
                  "internalType": "struct BalanceDecreasingTransaction.RequestBody",
                  "name": "requestBody",
                  "type": "tuple"
                },
                {
                  "components": [
                    {
                      "internalType": "uint64",
                      "name": "blockNumber",
                      "type": "uint64"
                    },
                    {
                      "internalType": "uint64",
                      "name": "blockTimestamp",
                      "type": "uint64"
                    },
                    {
                      "internalType": "bytes32",
                      "name": "sourceAddressHash",
                      "type": "bytes32"
                    },
                    {
                      "internalType": "int256",
                      "name": "spentAmount",
                      "type": "int256"
                    },
                    {
                      "internalType": "bytes32",
                      "name": "standardPaymentReference",
                      "type": "bytes32"
                    }
                  ],
                  "internalType": "struct BalanceDecreasingTransaction.ResponseBody",
                  "name": "responseBody",
                  "type": "tuple"
                }
              ],
              "internalType": "struct BalanceDecreasingTransaction.Response",
              "name": "data",
              "type": "tuple"
            }
          ],
          "internalType": "struct BalanceDecreasingTransaction.Proof[]",
          "name": "_payments",
          "type": "tuple[]"
        },
        {
          "internalType": "address",
          "name": "_agentVault",
          "type": "address"
        }
      ],
      "name": "freeBalanceNegativeChallenge",
      "outputs": [],
      "stateMutability": "nonpayable",
      "type": "function"
    },
    {
      "inputs": [
        {
          "internalType": "address",
          "name": "_agentVault",
          "type": "address"
        }
      ],
      "name": "getAgentInfo",
      "outputs": [
        {
          "components": [
            {
              "internalType": "enum AgentInfo.Status",
              "name": "status",
              "type": "uint8"
            },
            {
              "internalType": "address",
              "name": "ownerManagementAddress",
              "type": "address"
            },
            {
              "internalType": "address",
              "name": "ownerWorkAddress",
              "type": "address"
            },
            {
              "internalType": "address",
              "name": "collateralPool",
              "type": "address"
            },
            {
              "internalType": "string",
              "name": "underlyingAddressString",
              "type": "string"
            },
            {
              "internalType": "bool",
              "name": "publiclyAvailable",
              "type": "bool"
            },
            {
              "internalType": "uint256",
              "name": "feeBIPS",
              "type": "uint256"
            },
            {
              "internalType": "uint256",
              "name": "poolFeeShareBIPS",
              "type": "uint256"
            },
            {
              "internalType": "contract IERC20",
              "name": "vaultCollateralToken",
              "type": "address"
            },
            {
              "internalType": "uint256",
              "name": "mintingVaultCollateralRatioBIPS",
              "type": "uint256"
            },
            {
              "internalType": "uint256",
              "name": "mintingPoolCollateralRatioBIPS",
              "type": "uint256"
            },
            {
              "internalType": "uint256",
              "name": "freeCollateralLots",
              "type": "uint256"
            },
            {
              "internalType": "uint256",
              "name": "totalVaultCollateralWei",
              "type": "uint256"
            },
            {
              "internalType": "uint256",
              "name": "freeVaultCollateralWei",
              "type": "uint256"
            },
            {
              "internalType": "uint256",
              "name": "vaultCollateralRatioBIPS",
              "type": "uint256"
            },
            {
              "internalType": "uint256",
              "name": "totalPoolCollateralNATWei",
              "type": "uint256"
            },
            {
              "internalType": "uint256",
              "name": "freePoolCollateralNATWei",
              "type": "uint256"
            },
            {
              "internalType": "uint256",
              "name": "poolCollateralRatioBIPS",
              "type": "uint256"
            },
            {
              "internalType": "uint256",
              "name": "totalAgentPoolTokensWei",
              "type": "uint256"
            },
            {
              "internalType": "uint256",
              "name": "announcedVaultCollateralWithdrawalWei",
              "type": "uint256"
            },
            {
              "internalType": "uint256",
              "name": "announcedPoolTokensWithdrawalWei",
              "type": "uint256"
            },
            {
              "internalType": "uint256",
              "name": "freeAgentPoolTokensWei",
              "type": "uint256"
            },
            {
              "internalType": "uint256",
              "name": "mintedUBA",
              "type": "uint256"
            },
            {
              "internalType": "uint256",
              "name": "reservedUBA",
              "type": "uint256"
            },
            {
              "internalType": "uint256",
              "name": "redeemingUBA",
              "type": "uint256"
            },
            {
              "internalType": "uint256",
              "name": "poolRedeemingUBA",
              "type": "uint256"
            },
            {
              "internalType": "uint256",
              "name": "dustUBA",
              "type": "uint256"
            },
            {
              "internalType": "uint256",
              "name": "ccbStartTimestamp",
              "type": "uint256"
            },
            {
              "internalType": "uint256",
              "name": "liquidationStartTimestamp",
              "type": "uint256"
            },
            {
              "internalType": "uint256",
              "name": "maxLiquidationAmountUBA",
              "type": "uint256"
            },
            {
              "internalType": "uint256",
              "name": "liquidationPaymentFactorVaultBIPS",
              "type": "uint256"
            },
            {
              "internalType": "uint256",
              "name": "liquidationPaymentFactorPoolBIPS",
              "type": "uint256"
            },
            {
              "internalType": "int256",
              "name": "underlyingBalanceUBA",
              "type": "int256"
            },
            {
              "internalType": "uint256",
              "name": "requiredUnderlyingBalanceUBA",
              "type": "uint256"
            },
            {
              "internalType": "int256",
              "name": "freeUnderlyingBalanceUBA",
              "type": "int256"
            },
            {
              "internalType": "uint256",
              "name": "announcedUnderlyingWithdrawalId",
              "type": "uint256"
            },
            {
              "internalType": "uint256",
              "name": "buyFAssetByAgentFactorBIPS",
              "type": "uint256"
            },
            {
              "internalType": "uint256",
              "name": "poolExitCollateralRatioBIPS",
              "type": "uint256"
            },
            {
              "internalType": "uint256",
              "name": "poolTopupCollateralRatioBIPS",
              "type": "uint256"
            },
            {
              "internalType": "uint256",
              "name": "poolTopupTokenPriceFactorBIPS",
              "type": "uint256"
            }
          ],
          "internalType": "struct AgentInfo.Info",
          "name": "",
          "type": "tuple"
        }
      ],
      "stateMutability": "view",
      "type": "function"
    },
    {
      "inputs": [
        {
          "internalType": "address",
          "name": "_agentVault",
          "type": "address"
        }
      ],
      "name": "getAgentVaultOwner",
      "outputs": [
        {
          "internalType": "address",
          "name": "_ownerManagementAddress",
          "type": "address"
        },
        {
          "internalType": "address",
          "name": "_ownerWorkAddress",
          "type": "address"
        }
      ],
      "stateMutability": "view",
      "type": "function"
    },
    {
      "inputs": [
        {
          "internalType": "uint256",
          "name": "_start",
          "type": "uint256"
        },
        {
          "internalType": "uint256",
          "name": "_end",
          "type": "uint256"
        }
      ],
      "name": "getAllAgents",
      "outputs": [
        {
          "internalType": "address[]",
          "name": "_agents",
          "type": "address[]"
        },
        {
          "internalType": "uint256",
          "name": "_totalLength",
          "type": "uint256"
        }
      ],
      "stateMutability": "view",
      "type": "function"
    },
    {
      "inputs": [
        {
          "internalType": "uint256",
          "name": "_start",
          "type": "uint256"
        },
        {
          "internalType": "uint256",
          "name": "_end",
          "type": "uint256"
        }
      ],
      "name": "getAvailableAgentsDetailedList",
      "outputs": [
        {
          "components": [
            {
              "internalType": "address",
              "name": "agentVault",
              "type": "address"
            },
            {
              "internalType": "uint256",
              "name": "feeBIPS",
              "type": "uint256"
            },
            {
              "internalType": "uint256",
              "name": "mintingVaultCollateralRatioBIPS",
              "type": "uint256"
            },
            {
              "internalType": "uint256",
              "name": "mintingPoolCollateralRatioBIPS",
              "type": "uint256"
            },
            {
              "internalType": "uint256",
              "name": "freeCollateralLots",
              "type": "uint256"
            }
          ],
          "internalType": "struct AvailableAgentInfo.Data[]",
          "name": "_agents",
          "type": "tuple[]"
        },
        {
          "internalType": "uint256",
          "name": "_totalLength",
          "type": "uint256"
        }
      ],
      "stateMutability": "view",
      "type": "function"
    },
    {
      "inputs": [
        {
          "internalType": "uint256",
          "name": "_start",
          "type": "uint256"
        },
        {
          "internalType": "uint256",
          "name": "_end",
          "type": "uint256"
        }
      ],
      "name": "getAvailableAgentsList",
      "outputs": [
        {
          "internalType": "address[]",
          "name": "_agents",
          "type": "address[]"
        },
        {
          "internalType": "uint256",
          "name": "_totalLength",
          "type": "uint256"
        }
      ],
      "stateMutability": "view",
      "type": "function"
    },
    {
      "inputs": [
        {
          "internalType": "address",
          "name": "_agentVault",
          "type": "address"
        }
      ],
      "name": "getCollateralPool",
      "outputs": [
        {
          "internalType": "address",
          "name": "",
          "type": "address"
        }
      ],
      "stateMutability": "view",
      "type": "function"
    },
    {
      "inputs": [],
      "name": "getCollateralPoolTokenTimelockSeconds",
      "outputs": [
        {
          "internalType": "uint256",
          "name": "",
          "type": "uint256"
        }
      ],
      "stateMutability": "view",
      "type": "function"
    },
    {
      "inputs": [
        {
          "internalType": "enum CollateralType.Class",
          "name": "_collateralClass",
          "type": "uint8"
        },
        {
          "internalType": "contract IERC20",
          "name": "_token",
          "type": "address"
        }
      ],
      "name": "getCollateralType",
      "outputs": [
        {
          "components": [
            {
              "internalType": "enum CollateralType.Class",
              "name": "collateralClass",
              "type": "uint8"
            },
            {
              "internalType": "contract IERC20",
              "name": "token",
              "type": "address"
            },
            {
              "internalType": "uint256",
              "name": "decimals",
              "type": "uint256"
            },
            {
              "internalType": "uint256",
              "name": "validUntil",
              "type": "uint256"
            },
            {
              "internalType": "bool",
              "name": "directPricePair",
              "type": "bool"
            },
            {
              "internalType": "string",
              "name": "assetFtsoSymbol",
              "type": "string"
            },
            {
              "internalType": "string",
              "name": "tokenFtsoSymbol",
              "type": "string"
            },
            {
              "internalType": "uint256",
              "name": "minCollateralRatioBIPS",
              "type": "uint256"
            },
            {
              "internalType": "uint256",
              "name": "ccbMinCollateralRatioBIPS",
              "type": "uint256"
            },
            {
              "internalType": "uint256",
              "name": "safetyMinCollateralRatioBIPS",
              "type": "uint256"
            }
          ],
          "internalType": "struct CollateralType.Data",
          "name": "",
          "type": "tuple"
        }
      ],
      "stateMutability": "view",
      "type": "function"
    },
    {
      "inputs": [],
      "name": "getCollateralTypes",
      "outputs": [
        {
          "components": [
            {
              "internalType": "enum CollateralType.Class",
              "name": "collateralClass",
              "type": "uint8"
            },
            {
              "internalType": "contract IERC20",
              "name": "token",
              "type": "address"
            },
            {
              "internalType": "uint256",
              "name": "decimals",
              "type": "uint256"
            },
            {
              "internalType": "uint256",
              "name": "validUntil",
              "type": "uint256"
            },
            {
              "internalType": "bool",
              "name": "directPricePair",
              "type": "bool"
            },
            {
              "internalType": "string",
              "name": "assetFtsoSymbol",
              "type": "string"
            },
            {
              "internalType": "string",
              "name": "tokenFtsoSymbol",
              "type": "string"
            },
            {
              "internalType": "uint256",
              "name": "minCollateralRatioBIPS",
              "type": "uint256"
            },
            {
              "internalType": "uint256",
              "name": "ccbMinCollateralRatioBIPS",
              "type": "uint256"
            },
            {
              "internalType": "uint256",
              "name": "safetyMinCollateralRatioBIPS",
              "type": "uint256"
            }
          ],
          "internalType": "struct CollateralType.Data[]",
          "name": "",
          "type": "tuple[]"
        }
      ],
      "stateMutability": "view",
      "type": "function"
    },
    {
      "inputs": [
        {
          "internalType": "address",
          "name": "_agentVault",
          "type": "address"
        }
      ],
      "name": "getFAssetsBackedByPool",
      "outputs": [
        {
          "internalType": "uint256",
          "name": "",
          "type": "uint256"
        }
      ],
      "stateMutability": "view",
      "type": "function"
    },
    {
      "inputs": [],
      "name": "getLiquidationSettings",
      "outputs": [
        {
          "internalType": "bytes",
          "name": "",
          "type": "bytes"
        }
      ],
      "stateMutability": "view",
      "type": "function"
    },
    {
      "inputs": [],
      "name": "getSettings",
      "outputs": [
        {
          "components": [
            {
              "internalType": "address",
              "name": "assetManagerController",
              "type": "address"
            },
            {
              "internalType": "address",
              "name": "fAsset",
              "type": "address"
            },
            {
              "internalType": "address",
              "name": "agentVaultFactory",
              "type": "address"
            },
            {
              "internalType": "address",
              "name": "collateralPoolFactory",
              "type": "address"
            },
            {
              "internalType": "address",
              "name": "collateralPoolTokenFactory",
              "type": "address"
            },
            {
              "internalType": "string",
              "name": "poolTokenSuffix",
              "type": "string"
            },
            {
              "internalType": "address",
              "name": "whitelist",
              "type": "address"
            },
            {
              "internalType": "address",
              "name": "agentWhitelist",
              "type": "address"
            },
            {
              "internalType": "address",
              "name": "scProofVerifier",
              "type": "address"
            },
            {
              "internalType": "address",
              "name": "underlyingAddressValidator",
              "type": "address"
            },
            {
              "internalType": "address",
              "name": "liquidationStrategy",
              "type": "address"
            },
            {
              "internalType": "address payable",
              "name": "burnAddress",
              "type": "address"
            },
            {
              "internalType": "address",
              "name": "priceReader",
              "type": "address"
            },
            {
              "internalType": "uint8",
              "name": "assetDecimals",
              "type": "uint8"
            },
            {
              "internalType": "uint8",
              "name": "assetMintingDecimals",
              "type": "uint8"
            },
            {
              "internalType": "bytes32",
              "name": "chainId",
              "type": "bytes32"
            },
            {
              "internalType": "uint32",
              "name": "averageBlockTimeMS",
              "type": "uint32"
            },
            {
              "internalType": "uint32",
              "name": "mintingPoolHoldingsRequiredBIPS",
              "type": "uint32"
            },
            {
              "internalType": "uint16",
              "name": "collateralReservationFeeBIPS",
              "type": "uint16"
            },
            {
              "internalType": "uint64",
              "name": "assetUnitUBA",
              "type": "uint64"
            },
            {
              "internalType": "uint64",
              "name": "assetMintingGranularityUBA",
              "type": "uint64"
            },
            {
              "internalType": "uint64",
              "name": "lotSizeAMG",
              "type": "uint64"
            },
            {
              "internalType": "uint16",
              "name": "minUnderlyingBackingBIPS",
              "type": "uint16"
            },
            {
              "internalType": "bool",
              "name": "requireEOAAddressProof",
              "type": "bool"
            },
            {
              "internalType": "uint64",
              "name": "mintingCapAMG",
              "type": "uint64"
            },
            {
              "internalType": "uint64",
              "name": "underlyingBlocksForPayment",
              "type": "uint64"
            },
            {
              "internalType": "uint64",
              "name": "underlyingSecondsForPayment",
              "type": "uint64"
            },
            {
              "internalType": "uint16",
              "name": "redemptionFeeBIPS",
              "type": "uint16"
            },
            {
              "internalType": "uint32",
              "name": "redemptionDefaultFactorVaultCollateralBIPS",
              "type": "uint32"
            },
            {
              "internalType": "uint32",
              "name": "redemptionDefaultFactorPoolBIPS",
              "type": "uint32"
            },
            {
              "internalType": "uint64",
              "name": "confirmationByOthersAfterSeconds",
              "type": "uint64"
            },
            {
              "internalType": "uint128",
              "name": "confirmationByOthersRewardUSD5",
              "type": "uint128"
            },
            {
              "internalType": "uint16",
              "name": "maxRedeemedTickets",
              "type": "uint16"
            },
            {
              "internalType": "uint16",
              "name": "paymentChallengeRewardBIPS",
              "type": "uint16"
            },
            {
              "internalType": "uint128",
              "name": "paymentChallengeRewardUSD5",
              "type": "uint128"
            },
            {
              "internalType": "uint64",
              "name": "withdrawalWaitMinSeconds",
              "type": "uint64"
            },
            {
              "internalType": "uint64",
              "name": "maxTrustedPriceAgeSeconds",
              "type": "uint64"
            },
            {
              "internalType": "uint64",
              "name": "ccbTimeSeconds",
              "type": "uint64"
            },
            {
              "internalType": "uint64",
              "name": "attestationWindowSeconds",
              "type": "uint64"
            },
            {
              "internalType": "uint64",
              "name": "minUpdateRepeatTimeSeconds",
              "type": "uint64"
            },
            {
              "internalType": "uint64",
              "name": "buybackCollateralFactorBIPS",
              "type": "uint64"
            },
            {
              "internalType": "uint64",
              "name": "announcedUnderlyingConfirmationMinSeconds",
              "type": "uint64"
            },
            {
              "internalType": "uint64",
              "name": "tokenInvalidationTimeMinSeconds",
              "type": "uint64"
            },
            {
              "internalType": "uint32",
              "name": "vaultCollateralBuyForFlareFactorBIPS",
              "type": "uint32"
            },
            {
              "internalType": "uint64",
              "name": "agentExitAvailableTimelockSeconds",
              "type": "uint64"
            },
            {
              "internalType": "uint64",
              "name": "agentFeeChangeTimelockSeconds",
              "type": "uint64"
            },
            {
              "internalType": "uint64",
              "name": "agentMintingCRChangeTimelockSeconds",
              "type": "uint64"
            },
            {
              "internalType": "uint64",
              "name": "poolExitAndTopupChangeTimelockSeconds",
              "type": "uint64"
            },
            {
              "internalType": "uint64",
              "name": "agentTimelockedOperationWindowSeconds",
              "type": "uint64"
            },
            {
              "internalType": "uint32",
              "name": "collateralPoolTokenTimelockSeconds",
              "type": "uint32"
            }
          ],
          "internalType": "struct AssetManagerSettings.Data",
          "name": "",
          "type": "tuple"
        }
      ],
      "stateMutability": "view",
      "type": "function"
    },
    {
      "inputs": [],
      "name": "getWNat",
      "outputs": [
        {
          "internalType": "contract IWNat",
          "name": "",
          "type": "address"
        }
      ],
      "stateMutability": "view",
      "type": "function"
    },
    {
      "inputs": [
        {
          "components": [
            {
              "internalType": "bytes32[]",
              "name": "merkleProof",
              "type": "bytes32[]"
            },
            {
              "components": [
                {
                  "internalType": "bytes32",
                  "name": "attestationType",
                  "type": "bytes32"
                },
                {
                  "internalType": "bytes32",
                  "name": "sourceId",
                  "type": "bytes32"
                },
                {
                  "internalType": "uint64",
                  "name": "votingRound",
                  "type": "uint64"
                },
                {
                  "internalType": "uint64",
                  "name": "lowestUsedTimestamp",
                  "type": "uint64"
                },
                {
                  "components": [
                    {
                      "internalType": "bytes32",
                      "name": "transactionId",
                      "type": "bytes32"
                    },
                    {
                      "internalType": "bytes32",
                      "name": "sourceAddressIndicator",
                      "type": "bytes32"
                    }
                  ],
                  "internalType": "struct BalanceDecreasingTransaction.RequestBody",
                  "name": "requestBody",
                  "type": "tuple"
                },
                {
                  "components": [
                    {
                      "internalType": "uint64",
                      "name": "blockNumber",
                      "type": "uint64"
                    },
                    {
                      "internalType": "uint64",
                      "name": "blockTimestamp",
                      "type": "uint64"
                    },
                    {
                      "internalType": "bytes32",
                      "name": "sourceAddressHash",
                      "type": "bytes32"
                    },
                    {
                      "internalType": "int256",
                      "name": "spentAmount",
                      "type": "int256"
                    },
                    {
                      "internalType": "bytes32",
                      "name": "standardPaymentReference",
                      "type": "bytes32"
                    }
                  ],
                  "internalType": "struct BalanceDecreasingTransaction.ResponseBody",
                  "name": "responseBody",
                  "type": "tuple"
                }
              ],
              "internalType": "struct BalanceDecreasingTransaction.Response",
              "name": "data",
              "type": "tuple"
            }
          ],
          "internalType": "struct BalanceDecreasingTransaction.Proof",
          "name": "_transaction",
          "type": "tuple"
        },
        {
          "internalType": "address",
          "name": "_agentVault",
          "type": "address"
        }
      ],
      "name": "illegalPaymentChallenge",
      "outputs": [],
      "stateMutability": "nonpayable",
      "type": "function"
    },
    {
      "inputs": [
        {
          "internalType": "address",
          "name": "_agentVault",
          "type": "address"
        },
        {
          "internalType": "address",
          "name": "_address",
          "type": "address"
        }
      ],
      "name": "isAgentVaultOwner",
      "outputs": [
        {
          "internalType": "bool",
          "name": "",
          "type": "bool"
        }
      ],
      "stateMutability": "view",
      "type": "function"
    },
    {
      "inputs": [
        {
          "internalType": "address",
          "name": "_agentVault",
          "type": "address"
        },
        {
          "internalType": "contract IERC20",
          "name": "_token",
          "type": "address"
        }
      ],
      "name": "isLockedVaultToken",
      "outputs": [
        {
          "internalType": "bool",
          "name": "",
          "type": "bool"
        }
      ],
      "stateMutability": "view",
      "type": "function"
    },
    {
      "inputs": [
        {
          "internalType": "address",
          "name": "_agentVault",
          "type": "address"
        },
        {
          "internalType": "uint256",
          "name": "_amountUBA",
          "type": "uint256"
        }
      ],
      "name": "liquidate",
      "outputs": [
        {
          "internalType": "uint256",
          "name": "_liquidatedAmountUBA",
          "type": "uint256"
        },
        {
          "internalType": "uint256",
          "name": "_amountPaidVault",
          "type": "uint256"
        },
        {
          "internalType": "uint256",
          "name": "_amountPaidPool",
          "type": "uint256"
        }
      ],
      "stateMutability": "nonpayable",
      "type": "function"
    },
    {
      "inputs": [],
      "name": "lotSize",
      "outputs": [
        {
          "internalType": "uint256",
          "name": "_lotSizeUBA",
          "type": "uint256"
        }
      ],
      "stateMutability": "view",
      "type": "function"
    },
    {
      "inputs": [
        {
          "internalType": "address",
          "name": "_agentVault",
          "type": "address"
        }
      ],
      "name": "makeAgentAvailable",
      "outputs": [],
      "stateMutability": "nonpayable",
      "type": "function"
    },
    {
      "inputs": [
        {
          "internalType": "address",
          "name": "_agentVault",
          "type": "address"
        }
      ],
      "name": "maxRedemptionFromAgent",
      "outputs": [
        {
          "internalType": "uint256",
          "name": "",
          "type": "uint256"
        }
      ],
      "stateMutability": "view",
      "type": "function"
    },
    {
      "inputs": [
        {
          "components": [
            {
              "internalType": "bytes32[]",
              "name": "merkleProof",
              "type": "bytes32[]"
            },
            {
              "components": [
                {
                  "internalType": "bytes32",
                  "name": "attestationType",
                  "type": "bytes32"
                },
                {
                  "internalType": "bytes32",
                  "name": "sourceId",
                  "type": "bytes32"
                },
                {
                  "internalType": "uint64",
                  "name": "votingRound",
                  "type": "uint64"
                },
                {
                  "internalType": "uint64",
                  "name": "lowestUsedTimestamp",
                  "type": "uint64"
                },
                {
                  "components": [
                    {
                      "internalType": "uint64",
                      "name": "minimalBlockNumber",
                      "type": "uint64"
                    },
                    {
                      "internalType": "uint64",
                      "name": "deadlineBlockNumber",
                      "type": "uint64"
                    },
                    {
                      "internalType": "uint64",
                      "name": "deadlineTimestamp",
                      "type": "uint64"
                    },
                    {
                      "internalType": "bytes32",
                      "name": "destinationAddressHash",
                      "type": "bytes32"
                    },
                    {
                      "internalType": "uint256",
                      "name": "amount",
                      "type": "uint256"
                    },
                    {
                      "internalType": "bytes32",
                      "name": "standardPaymentReference",
                      "type": "bytes32"
                    }
                  ],
                  "internalType": "struct ReferencedPaymentNonexistence.RequestBody",
                  "name": "requestBody",
                  "type": "tuple"
                },
                {
                  "components": [
                    {
                      "internalType": "uint64",
                      "name": "minimalBlockTimestamp",
                      "type": "uint64"
                    },
                    {
                      "internalType": "uint64",
                      "name": "firstOverflowBlockNumber",
                      "type": "uint64"
                    },
                    {
                      "internalType": "uint64",
                      "name": "firstOverflowBlockTimestamp",
                      "type": "uint64"
                    }
                  ],
                  "internalType": "struct ReferencedPaymentNonexistence.ResponseBody",
                  "name": "responseBody",
                  "type": "tuple"
                }
              ],
              "internalType": "struct ReferencedPaymentNonexistence.Response",
              "name": "data",
              "type": "tuple"
            }
          ],
          "internalType": "struct ReferencedPaymentNonexistence.Proof",
          "name": "_proof",
          "type": "tuple"
        },
        {
          "internalType": "uint256",
          "name": "_collateralReservationId",
          "type": "uint256"
        }
      ],
      "name": "mintingPaymentDefault",
      "outputs": [],
      "stateMutability": "nonpayable",
      "type": "function"
    },
    {
      "inputs": [],
      "name": "pause",
      "outputs": [],
      "stateMutability": "nonpayable",
      "type": "function"
    },
    {
      "inputs": [],
      "name": "paused",
      "outputs": [
        {
          "internalType": "bool",
          "name": "",
          "type": "bool"
        }
      ],
      "stateMutability": "view",
      "type": "function"
    },
    {
      "inputs": [
        {
          "components": [
            {
              "internalType": "bytes32[]",
              "name": "merkleProof",
              "type": "bytes32[]"
            },
            {
              "components": [
                {
                  "internalType": "bytes32",
                  "name": "attestationType",
                  "type": "bytes32"
                },
                {
                  "internalType": "bytes32",
                  "name": "sourceId",
                  "type": "bytes32"
                },
                {
                  "internalType": "uint64",
                  "name": "votingRound",
                  "type": "uint64"
                },
                {
                  "internalType": "uint64",
                  "name": "lowestUsedTimestamp",
                  "type": "uint64"
                },
                {
                  "components": [
                    {
                      "internalType": "bytes32",
                      "name": "transactionId",
                      "type": "bytes32"
                    },
                    {
                      "internalType": "uint256",
                      "name": "inUtxo",
                      "type": "uint256"
                    },
                    {
                      "internalType": "uint16",
                      "name": "utxo",
                      "type": "uint16"
                    }
                  ],
                  "internalType": "struct Payment.RequestBody",
                  "name": "requestBody",
                  "type": "tuple"
                },
                {
                  "components": [
                    {
                      "internalType": "uint64",
                      "name": "blockNumber",
                      "type": "uint64"
                    },
                    {
                      "internalType": "uint64",
                      "name": "blockTimestamp",
                      "type": "uint64"
                    },
                    {
                      "internalType": "bytes32",
                      "name": "sourceAddressHash",
                      "type": "bytes32"
                    },
                    {
                      "internalType": "bytes32",
                      "name": "receivingAddressHash",
                      "type": "bytes32"
                    },
                    {
                      "internalType": "bytes32",
                      "name": "intendedReceivingAddressHash",
                      "type": "bytes32"
                    },
                    {
                      "internalType": "int256",
                      "name": "spentAmount",
                      "type": "int256"
                    },
                    {
                      "internalType": "int256",
                      "name": "intendedSpentAmount",
                      "type": "int256"
                    },
                    {
                      "internalType": "int256",
                      "name": "receivedAmount",
                      "type": "int256"
                    },
                    {
                      "internalType": "int256",
                      "name": "intendedReceivedAmount",
                      "type": "int256"
                    },
                    {
                      "internalType": "bytes32",
                      "name": "standardPaymentReference",
                      "type": "bytes32"
                    },
                    {
                      "internalType": "bool",
                      "name": "oneToOne",
                      "type": "bool"
                    },
                    {
                      "internalType": "uint8",
                      "name": "status",
                      "type": "uint8"
                    }
                  ],
                  "internalType": "struct Payment.ResponseBody",
                  "name": "responseBody",
                  "type": "tuple"
                }
              ],
              "internalType": "struct Payment.Response",
              "name": "data",
              "type": "tuple"
            }
          ],
          "internalType": "struct Payment.Proof",
          "name": "_payment",
          "type": "tuple"
        }
      ],
      "name": "proveUnderlyingAddressEOA",
      "outputs": [],
      "stateMutability": "nonpayable",
      "type": "function"
    },
    {
      "inputs": [
        {
          "internalType": "uint256",
          "name": "_lots",
          "type": "uint256"
        },
        {
          "internalType": "string",
          "name": "_redeemerUnderlyingAddressString",
          "type": "string"
        }
      ],
      "name": "redeem",
      "outputs": [
        {
          "internalType": "uint256",
          "name": "_redeemedAmountUBA",
          "type": "uint256"
        }
      ],
      "stateMutability": "nonpayable",
      "type": "function"
    },
    {
      "inputs": [
        {
          "internalType": "address",
          "name": "_agentVault",
          "type": "address"
        },
        {
          "internalType": "address",
          "name": "_receiver",
          "type": "address"
        },
        {
          "internalType": "uint256",
          "name": "_amountUBA",
          "type": "uint256"
        },
        {
          "internalType": "string",
          "name": "_receiverUnderlyingAddress",
          "type": "string"
        }
      ],
      "name": "redeemFromAgent",
      "outputs": [],
      "stateMutability": "nonpayable",
      "type": "function"
    },
    {
      "inputs": [
        {
          "internalType": "address",
          "name": "_agentVault",
          "type": "address"
        },
        {
          "internalType": "address",
          "name": "_receiver",
          "type": "address"
        },
        {
          "internalType": "uint256",
          "name": "_amountUBA",
          "type": "uint256"
        }
      ],
      "name": "redeemFromAgentInCollateral",
      "outputs": [],
      "stateMutability": "nonpayable",
      "type": "function"
    },
    {
      "inputs": [
        {
          "components": [
            {
              "internalType": "bytes32[]",
              "name": "merkleProof",
              "type": "bytes32[]"
            },
            {
              "components": [
                {
                  "internalType": "bytes32",
                  "name": "attestationType",
                  "type": "bytes32"
                },
                {
                  "internalType": "bytes32",
                  "name": "sourceId",
                  "type": "bytes32"
                },
                {
                  "internalType": "uint64",
                  "name": "votingRound",
                  "type": "uint64"
                },
                {
                  "internalType": "uint64",
                  "name": "lowestUsedTimestamp",
                  "type": "uint64"
                },
                {
                  "components": [
                    {
                      "internalType": "uint64",
                      "name": "minimalBlockNumber",
                      "type": "uint64"
                    },
                    {
                      "internalType": "uint64",
                      "name": "deadlineBlockNumber",
                      "type": "uint64"
                    },
                    {
                      "internalType": "uint64",
                      "name": "deadlineTimestamp",
                      "type": "uint64"
                    },
                    {
                      "internalType": "bytes32",
                      "name": "destinationAddressHash",
                      "type": "bytes32"
                    },
                    {
                      "internalType": "uint256",
                      "name": "amount",
                      "type": "uint256"
                    },
                    {
                      "internalType": "bytes32",
                      "name": "standardPaymentReference",
                      "type": "bytes32"
                    }
                  ],
                  "internalType": "struct ReferencedPaymentNonexistence.RequestBody",
                  "name": "requestBody",
                  "type": "tuple"
                },
                {
                  "components": [
                    {
                      "internalType": "uint64",
                      "name": "minimalBlockTimestamp",
                      "type": "uint64"
                    },
                    {
                      "internalType": "uint64",
                      "name": "firstOverflowBlockNumber",
                      "type": "uint64"
                    },
                    {
                      "internalType": "uint64",
                      "name": "firstOverflowBlockTimestamp",
                      "type": "uint64"
                    }
                  ],
                  "internalType": "struct ReferencedPaymentNonexistence.ResponseBody",
                  "name": "responseBody",
                  "type": "tuple"
                }
              ],
              "internalType": "struct ReferencedPaymentNonexistence.Response",
              "name": "data",
              "type": "tuple"
            }
          ],
          "internalType": "struct ReferencedPaymentNonexistence.Proof",
          "name": "_proof",
          "type": "tuple"
        },
        {
          "internalType": "uint256",
          "name": "_redemptionRequestId",
          "type": "uint256"
        }
      ],
      "name": "redemptionPaymentDefault",
      "outputs": [],
      "stateMutability": "nonpayable",
      "type": "function"
    },
    {
      "inputs": [
        {
          "internalType": "address",
          "name": "_agentVault",
          "type": "address"
        },
        {
          "internalType": "uint256",
          "name": "_lots",
          "type": "uint256"
        },
        {
          "internalType": "uint256",
          "name": "_maxMintingFeeBIPS",
          "type": "uint256"
        }
      ],
      "name": "reserveCollateral",
      "outputs": [],
      "stateMutability": "payable",
      "type": "function"
    },
    {
      "inputs": [
        {
          "internalType": "address",
          "name": "_agentVault",
          "type": "address"
        },
        {
          "internalType": "uint256",
          "name": "_amountUBA",
          "type": "uint256"
        }
      ],
      "name": "selfClose",
      "outputs": [
        {
          "internalType": "uint256",
          "name": "_closedAmountUBA",
          "type": "uint256"
        }
      ],
      "stateMutability": "nonpayable",
      "type": "function"
    },
    {
      "inputs": [
        {
          "components": [
            {
              "internalType": "bytes32[]",
              "name": "merkleProof",
              "type": "bytes32[]"
            },
            {
              "components": [
                {
                  "internalType": "bytes32",
                  "name": "attestationType",
                  "type": "bytes32"
                },
                {
                  "internalType": "bytes32",
                  "name": "sourceId",
                  "type": "bytes32"
                },
                {
                  "internalType": "uint64",
                  "name": "votingRound",
                  "type": "uint64"
                },
                {
                  "internalType": "uint64",
                  "name": "lowestUsedTimestamp",
                  "type": "uint64"
                },
                {
                  "components": [
                    {
                      "internalType": "bytes32",
                      "name": "transactionId",
                      "type": "bytes32"
                    },
                    {
                      "internalType": "uint256",
                      "name": "inUtxo",
                      "type": "uint256"
                    },
                    {
                      "internalType": "uint16",
                      "name": "utxo",
                      "type": "uint16"
                    }
                  ],
                  "internalType": "struct Payment.RequestBody",
                  "name": "requestBody",
                  "type": "tuple"
                },
                {
                  "components": [
                    {
                      "internalType": "uint64",
                      "name": "blockNumber",
                      "type": "uint64"
                    },
                    {
                      "internalType": "uint64",
                      "name": "blockTimestamp",
                      "type": "uint64"
                    },
                    {
                      "internalType": "bytes32",
                      "name": "sourceAddressHash",
                      "type": "bytes32"
                    },
                    {
                      "internalType": "bytes32",
                      "name": "receivingAddressHash",
                      "type": "bytes32"
                    },
                    {
                      "internalType": "bytes32",
                      "name": "intendedReceivingAddressHash",
                      "type": "bytes32"
                    },
                    {
                      "internalType": "int256",
                      "name": "spentAmount",
                      "type": "int256"
                    },
                    {
                      "internalType": "int256",
                      "name": "intendedSpentAmount",
                      "type": "int256"
                    },
                    {
                      "internalType": "int256",
                      "name": "receivedAmount",
                      "type": "int256"
                    },
                    {
                      "internalType": "int256",
                      "name": "intendedReceivedAmount",
                      "type": "int256"
                    },
                    {
                      "internalType": "bytes32",
                      "name": "standardPaymentReference",
                      "type": "bytes32"
                    },
                    {
                      "internalType": "bool",
                      "name": "oneToOne",
                      "type": "bool"
                    },
                    {
                      "internalType": "uint8",
                      "name": "status",
                      "type": "uint8"
                    }
                  ],
                  "internalType": "struct Payment.ResponseBody",
                  "name": "responseBody",
                  "type": "tuple"
                }
              ],
              "internalType": "struct Payment.Response",
              "name": "data",
              "type": "tuple"
            }
          ],
          "internalType": "struct Payment.Proof",
          "name": "_payment",
          "type": "tuple"
        },
        {
          "internalType": "address",
          "name": "_agentVault",
          "type": "address"
        },
        {
          "internalType": "uint256",
          "name": "_lots",
          "type": "uint256"
        }
      ],
      "name": "selfMint",
      "outputs": [],
      "stateMutability": "nonpayable",
      "type": "function"
    },
    {
      "inputs": [
        {
          "internalType": "enum CollateralType.Class",
          "name": "_collateralClass",
          "type": "uint8"
        },
        {
          "internalType": "contract IERC20",
          "name": "_token",
          "type": "address"
        },
        {
          "internalType": "uint256",
          "name": "_minCollateralRatioBIPS",
          "type": "uint256"
        },
        {
          "internalType": "uint256",
          "name": "_ccbMinCollateralRatioBIPS",
          "type": "uint256"
        },
        {
          "internalType": "uint256",
          "name": "_safetyMinCollateralRatioBIPS",
          "type": "uint256"
        }
      ],
      "name": "setCollateralRatiosForToken",
      "outputs": [],
      "stateMutability": "nonpayable",
      "type": "function"
    },
    {
      "inputs": [
        {
          "internalType": "address",
          "name": "_ownerWorkAddress",
          "type": "address"
        }
      ],
      "name": "setOwnerWorkAddress",
      "outputs": [],
      "stateMutability": "nonpayable",
      "type": "function"
    },
    {
      "inputs": [
        {
          "internalType": "address",
          "name": "_agentVault",
          "type": "address"
        }
      ],
      "name": "startLiquidation",
      "outputs": [
        {
          "internalType": "uint8",
          "name": "_liquidationStatus",
          "type": "uint8"
        },
        {
          "internalType": "uint256",
          "name": "_liquidationStartAt",
          "type": "uint256"
        }
      ],
      "stateMutability": "nonpayable",
      "type": "function"
    },
    {
      "inputs": [
        {
          "internalType": "bytes4",
          "name": "_interfaceId",
          "type": "bytes4"
        }
      ],
      "name": "supportsInterface",
      "outputs": [
        {
          "internalType": "bool",
          "name": "",
          "type": "bool"
        }
      ],
      "stateMutability": "pure",
      "type": "function"
    },
    {
      "inputs": [
        {
          "internalType": "address",
          "name": "_agentVault",
          "type": "address"
        },
        {
          "internalType": "contract IERC20",
          "name": "_token",
          "type": "address"
        }
      ],
      "name": "switchVaultCollateral",
      "outputs": [],
      "stateMutability": "nonpayable",
      "type": "function"
    },
    {
      "inputs": [],
      "name": "terminate",
      "outputs": [],
      "stateMutability": "nonpayable",
      "type": "function"
    },
    {
      "inputs": [],
      "name": "terminated",
      "outputs": [
        {
          "internalType": "bool",
          "name": "",
          "type": "bool"
        }
      ],
      "stateMutability": "view",
      "type": "function"
    },
    {
      "inputs": [],
      "name": "unpause",
      "outputs": [],
      "stateMutability": "nonpayable",
      "type": "function"
    },
    {
      "inputs": [
        {
          "components": [
            {
              "internalType": "bytes32[]",
              "name": "merkleProof",
              "type": "bytes32[]"
            },
            {
              "components": [
                {
                  "internalType": "bytes32",
                  "name": "attestationType",
                  "type": "bytes32"
                },
                {
                  "internalType": "bytes32",
                  "name": "sourceId",
                  "type": "bytes32"
                },
                {
                  "internalType": "uint64",
                  "name": "votingRound",
                  "type": "uint64"
                },
                {
                  "internalType": "uint64",
                  "name": "lowestUsedTimestamp",
                  "type": "uint64"
                },
                {
                  "components": [
                    {
                      "internalType": "uint64",
                      "name": "blockNumber",
                      "type": "uint64"
                    },
                    {
                      "internalType": "uint64",
                      "name": "queryWindow",
                      "type": "uint64"
                    }
                  ],
                  "internalType": "struct ConfirmedBlockHeightExists.RequestBody",
                  "name": "requestBody",
                  "type": "tuple"
                },
                {
                  "components": [
                    {
                      "internalType": "uint64",
                      "name": "blockTimestamp",
                      "type": "uint64"
                    },
                    {
                      "internalType": "uint64",
                      "name": "numberOfConfirmations",
                      "type": "uint64"
                    },
                    {
                      "internalType": "uint64",
                      "name": "lowestQueryWindowBlockNumber",
                      "type": "uint64"
                    },
                    {
                      "internalType": "uint64",
                      "name": "lowestQueryWindowBlockTimestamp",
                      "type": "uint64"
                    }
                  ],
                  "internalType": "struct ConfirmedBlockHeightExists.ResponseBody",
                  "name": "responseBody",
                  "type": "tuple"
                }
              ],
              "internalType": "struct ConfirmedBlockHeightExists.Response",
              "name": "data",
              "type": "tuple"
            }
          ],
          "internalType": "struct ConfirmedBlockHeightExists.Proof",
          "name": "_proof",
          "type": "tuple"
        },
        {
          "internalType": "uint256",
          "name": "_collateralReservationId",
          "type": "uint256"
        }
      ],
      "name": "unstickMinting",
      "outputs": [],
      "stateMutability": "payable",
      "type": "function"
    },
    {
      "inputs": [
        {
          "internalType": "address",
          "name": "_agentVault",
          "type": "address"
        },
        {
          "internalType": "contract IERC20",
          "name": "_token",
          "type": "address"
        }
      ],
      "name": "updateCollateral",
      "outputs": [],
      "stateMutability": "nonpayable",
      "type": "function"
    },
    {
      "inputs": [
        {
          "components": [
            {
              "internalType": "bytes32[]",
              "name": "merkleProof",
              "type": "bytes32[]"
            },
            {
              "components": [
                {
                  "internalType": "bytes32",
                  "name": "attestationType",
                  "type": "bytes32"
                },
                {
                  "internalType": "bytes32",
                  "name": "sourceId",
                  "type": "bytes32"
                },
                {
                  "internalType": "uint64",
                  "name": "votingRound",
                  "type": "uint64"
                },
                {
                  "internalType": "uint64",
                  "name": "lowestUsedTimestamp",
                  "type": "uint64"
                },
                {
                  "components": [
                    {
                      "internalType": "uint64",
                      "name": "blockNumber",
                      "type": "uint64"
                    },
                    {
                      "internalType": "uint64",
                      "name": "queryWindow",
                      "type": "uint64"
                    }
                  ],
                  "internalType": "struct ConfirmedBlockHeightExists.RequestBody",
                  "name": "requestBody",
                  "type": "tuple"
                },
                {
                  "components": [
                    {
                      "internalType": "uint64",
                      "name": "blockTimestamp",
                      "type": "uint64"
                    },
                    {
                      "internalType": "uint64",
                      "name": "numberOfConfirmations",
                      "type": "uint64"
                    },
                    {
                      "internalType": "uint64",
                      "name": "lowestQueryWindowBlockNumber",
                      "type": "uint64"
                    },
                    {
                      "internalType": "uint64",
                      "name": "lowestQueryWindowBlockTimestamp",
                      "type": "uint64"
                    }
                  ],
                  "internalType": "struct ConfirmedBlockHeightExists.ResponseBody",
                  "name": "responseBody",
                  "type": "tuple"
                }
              ],
              "internalType": "struct ConfirmedBlockHeightExists.Response",
              "name": "data",
              "type": "tuple"
            }
          ],
          "internalType": "struct ConfirmedBlockHeightExists.Proof",
          "name": "_proof",
          "type": "tuple"
        }
      ],
      "name": "updateCurrentBlock",
      "outputs": [],
      "stateMutability": "nonpayable",
      "type": "function"
    },
    {
      "inputs": [
        {
          "internalType": "bytes32",
          "name": "_method",
          "type": "bytes32"
        },
        {
          "internalType": "bytes",
          "name": "_params",
          "type": "bytes"
        }
      ],
      "name": "updateSettings",
      "outputs": [],
      "stateMutability": "nonpayable",
      "type": "function"
    },
    {
      "inputs": [
        {
          "internalType": "address",
          "name": "_agentVault",
          "type": "address"
        }
      ],
      "name": "upgradeWNatContract",
      "outputs": [],
      "stateMutability": "nonpayable",
      "type": "function"
    }
  ],
  "bytecode": "0x60806040523480156200001157600080fd5b5060405162006f7238038062006f728339810160408190526200003491620005b2565b600160005560405163658f4c6160e01b815273__$498fae630e5f9e2b0d2f5a14b70bbf8a29$__9063658f4c61906200007290869060040162000a69565b60006040518083038186803b1580156200008b57600080fd5b505af4158015620000a0573d6000803e3d6000fd5b505060405163cbcf339b60e01b815273__$b5cdffcf5b8f8ae6fa06e08eee0b808a00$__925063cbcf339b9150620000dd90859060040162000fcd565b60006040518083038186803b158015620000f657600080fd5b505af41580156200010b573d6000803e3d6000fd5b5050505062000120816200012960201b60201c565b505050620010fe565b7fec7e8c1c441439dd40959777f4c577ea0cd42fcc1dbe59d2bd0f5d9c55df8dc0546040516001600160a01b0390911690600090829063439fab919062000175908690602401620010c4565b604051602081830303815290604052915060e01b6020820180516001600160e01b0383818316178352505050509050620001b68282620001bc60201b60201c565b50505050565b6060600080846001600160a01b031684604051620001db9190620010e0565b600060405180830381855af49150503d806000811462000218576040519150601f19603f3d011682016040523d82523d6000602084013e6200021d565b606091505b5091509150811562000233579150620002469050565b3d604051818101604052816000823e8181fd5b92915050565b634e487b7160e01b600052604160045260246000fd5b60405161014081016001600160401b03811182821017156200028857620002886200024c565b60405290565b60405161064081016001600160401b03811182821017156200028857620002886200024c565b604051601f8201601f191681016001600160401b0381118282101715620002df57620002df6200024c565b604052919050565b80516001600160a01b0381168114620002ff57600080fd5b919050565b60005b838110156200032157818101518382015260200162000307565b50506000910152565b600082601f8301126200033c57600080fd5b81516001600160401b038111156200035857620003586200024c565b6200036d601f8201601f1916602001620002b4565b8181528460208386010111156200038357600080fd5b6200039682602083016020870162000304565b949350505050565b805160ff81168114620002ff57600080fd5b805163ffffffff81168114620002ff57600080fd5b805161ffff81168114620002ff57600080fd5b80516001600160401b0381168114620002ff57600080fd5b80518015158114620002ff57600080fd5b80516001600160801b0381168114620002ff57600080fd5b805160038110620002ff57600080fd5b600082601f8301126200043b57600080fd5b815160206001600160401b03808311156200045a576200045a6200024c565b8260051b6200046b838201620002b4565b93845285810183019383810190888611156200048657600080fd5b84880192505b85831015620005a657825184811115620004a65760008081fd5b8801610140818b03601f1901811315620004c05760008081fd5b620004ca62000262565b620004d788840162000419565b81526040620004e8818501620002e7565b89830152606080850151828401526080915081850151818401525060a062000512818601620003f0565b8284015260c0915081850151898111156200052d5760008081fd5b6200053d8f8c838901016200032a565b82850152505060e08085015189811115620005585760008081fd5b620005688f8c838901016200032a565b83850152506101009150818501518184015250610120808501518284015283850151818401525050808552505050848201915084830192506200048c565b98975050505050505050565b600080600060608486031215620005c857600080fd5b83516001600160401b0380821115620005e057600080fd5b908501906106408288031215620005f657600080fd5b620006006200028e565b6200060b83620002e7565b81526200061b60208401620002e7565b60208201526200062e60408401620002e7565b60408201526200064160608401620002e7565b60608201526200065460808401620002e7565b608082015260a0830151828111156200066c57600080fd5b6200067a898286016200032a565b60a0830152506200068e60c08401620002e7565b60c0820152620006a160e08401620002e7565b60e0820152610100620006b6818501620002e7565b90820152610120620006ca848201620002e7565b90820152610140620006de848201620002e7565b90820152610160620006f2848201620002e7565b9082015261018062000706848201620002e7565b908201526101a06200071a8482016200039e565b908201526101c06200072e8482016200039e565b908201526101e083810151908201526102006200074d818501620003b0565b9082015261022062000761848201620003b0565b9082015261024062000775848201620003c5565b9082015261026062000789848201620003d8565b908201526102806200079d848201620003d8565b908201526102a0620007b1848201620003d8565b908201526102c0620007c5848201620003c5565b908201526102e0620007d9848201620003f0565b90820152610300620007ed848201620003d8565b9082015261032062000801848201620003d8565b9082015261034062000815848201620003d8565b9082015261036062000829848201620003c5565b908201526103806200083d848201620003b0565b908201526103a062000851848201620003b0565b908201526103c062000865848201620003d8565b908201526103e06200087984820162000401565b908201526104006200088d848201620003c5565b90820152610420620008a1848201620003c5565b90820152610440620008b584820162000401565b90820152610460620008c9848201620003d8565b90820152610480620008dd848201620003d8565b908201526104a0620008f1848201620003d8565b908201526104c062000905848201620003d8565b908201526104e062000919848201620003d8565b908201526105006200092d848201620003d8565b9082015261052062000941848201620003d8565b9082015261054062000955848201620003d8565b9082015261056062000969848201620003b0565b908201526105806200097d848201620003d8565b908201526105a062000991848201620003d8565b908201526105c0620009a5848201620003d8565b908201526105e0620009b9848201620003d8565b90820152610600620009cd848201620003d8565b90820152610620620009e1848201620003b0565b908201526020870151909550915080821115620009fd57600080fd5b62000a0b8783880162000429565b9350604086015191508082111562000a2257600080fd5b5062000a31868287016200032a565b9150509250925092565b6000815180845262000a5581602086016020860162000304565b601f01601f19169290920160200192915050565b6020815262000a846020820183516001600160a01b03169052565b6000602083015162000aa160408401826001600160a01b03169052565b5060408301516001600160a01b03811660608401525060608301516001600160a01b03811660808401525060808301516001600160a01b03811660a08401525060a08301516106408060c085015262000aff61066085018362000a3b565b915060c085015162000b1c60e08601826001600160a01b03169052565b5060e085015161010062000b3a818701836001600160a01b03169052565b860151905061012062000b57868201836001600160a01b03169052565b860151905061014062000b74868201836001600160a01b03169052565b860151905061016062000b91868201836001600160a01b03169052565b860151905061018062000bae868201836001600160a01b03169052565b86015190506101a062000bcb868201836001600160a01b03169052565b86015190506101c062000be28682018360ff169052565b86015190506101e062000bf98682018360ff169052565b86015161020086810191909152860151905061022062000c208187018363ffffffff169052565b860151905061024062000c3a8682018363ffffffff169052565b860151905061026062000c528682018361ffff169052565b860151905061028062000c6f868201836001600160401b03169052565b86015190506102a062000c8c868201836001600160401b03169052565b86015190506102c062000ca9868201836001600160401b03169052565b86015190506102e062000cc18682018361ffff169052565b860151905061030062000cd78682018315159052565b860151905061032062000cf4868201836001600160401b03169052565b860151905061034062000d11868201836001600160401b03169052565b860151905061036062000d2e868201836001600160401b03169052565b860151905061038062000d468682018361ffff169052565b86015190506103a062000d608682018363ffffffff169052565b86015190506103c062000d7a8682018363ffffffff169052565b86015190506103e062000d97868201836001600160401b03169052565b860151905061040062000db4868201836001600160801b03169052565b860151905061042062000dcc8682018361ffff169052565b860151905061044062000de48682018361ffff169052565b860151905061046062000e01868201836001600160801b03169052565b860151905061048062000e1e868201836001600160401b03169052565b86015190506104a062000e3b868201836001600160401b03169052565b86015190506104c062000e58868201836001600160401b03169052565b86015190506104e062000e75868201836001600160401b03169052565b860151905061050062000e92868201836001600160401b03169052565b860151905061052062000eaf868201836001600160401b03169052565b860151905061054062000ecc868201836001600160401b03169052565b860151905061056062000ee9868201836001600160401b03169052565b860151905061058062000f038682018363ffffffff169052565b86015190506105a062000f20868201836001600160401b03169052565b86015190506105c062000f3d868201836001600160401b03169052565b86015190506105e062000f5a868201836001600160401b03169052565b860151905061060062000f77868201836001600160401b03169052565b860151905061062062000f94868201836001600160401b03169052565b9095015163ffffffff1693019290925250919050565b6003811062000fc957634e487b7160e01b600052602160045260246000fd5b9052565b60006020808301818452808551808352604092508286019150828160051b87010184880160005b83811015620010b657603f1989840301855281516101406200101885835162000faa565b888201516001600160a01b0316858a015287820151888601526060808301519086015260808083015115159086015260a080830151818701839052620010618388018262000a3b565b9250505060c080830151868303828801526200107e838262000a3b565b60e085810151908901526101008086015190890152610120948501519490970193909352505050938601939086019060010162000ff4565b509098975050505050505050565b602081526000620010d9602083018462000a3b565b9392505050565b60008251620010f481846020870162000304565b9190910192915050565b615e64806200110e6000396000f3fe60806040526004361061043c5760003560e01c80637b3477c311610234578063bd6035351161012e578063eb81ca63116100b6578063f060b3f11161007a578063f060b3f114610dc4578063f0c0b72514610de4578063f19d3c0614610e0f578063f480d9fd14610e2f578063f4d000b214610e4f57600080fd5b8063eb81ca6314610d22578063ec96c1c914610d42578063ed000b3014610d64578063ed3762aa14610d84578063eebbcd5514610da457600080fd5b8063d9d71463116100fd578063d9d7146314610c69578063e1c5010014610c89578063e415339c14610cc2578063e7732f9114610ce2578063e95a0bfd14610d0257600080fd5b8063bd60353514610bf6578063c0674b4614610c09578063c45d0ffe14610c29578063d6b93a9f14610c4957600080fd5b8063947e22f3116101bc578063b5a488a611610180578063b5a488a614610b53578063b68af97e14610b68578063b7f658ab14610b7b578063b928b53314610b9b578063bcbaf48714610bbb57600080fd5b8063947e22f314610aa55780639584da2a14610ac5578063a07ea7af14610ae5578063ace244ca14610b05578063b19aec1714610b2557600080fd5b806382dede261161020357806382dede2614610a195780638456cb5914610a3b578063845ade3914610a5057806384807e8d14610a7057806385b4bb5314610a8357600080fd5b80637b3477c3146109965780637c7db1a5146109b65780637e7bfdc6146109cb5780638003314d146109eb57600080fd5b8063368a3593116103455780635c975abb116102cd5780636e61164f116102915780636e61164f146108d6578063700104f71461091657806375a5346a14610936578063778aadd5146109565780637a2cf4121461097657600080fd5b80635c975abb146108295780635e71055c14610856578063612007e51461087657806365454f941461089657806366a37046146108b657600080fd5b8063469052ad11610314578063469052ad146107705780634942f65f146107905780634f4fbfca146107a55780635252f3a2146107c557806353777730146107fd57600080fd5b8063368a3593146106ee5780633851b6141461070e5780633f4ba83a1461072e5780634610bc231461074357600080fd5b8063152052b0116103c8578063249f1b5911610397578063249f1b591461064e57806324b76fd51461066e57806329ff13081461068e5780632dabf2d0146106ae57806334f49dd3146106ce57600080fd5b8063152052b0146105b2578063177d0307146105df578063194307bf146106195780631e8bee011461062e57600080fd5b80630877acff1161040f5780630877acff146104e25780630c08bf881461052f5780630c3cdae7146105445780630ffb0e861461056457806313199ee01461059257600080fd5b806301ffc9a71461044157806302312aec1461047657806304203930146104a057806304be8840146104c2575b600080fd5b34801561044d57600080fd5b5061046161045c3660046137ab565b610e6f565b60405190151581526020015b60405180910390f35b34801561048257600080fd5b5061048b610ec1565b6040805192835260208301919091520161046d565b3480156104ac57600080fd5b506104c06104bb3660046137ea565b610f18565b005b3480156104ce57600080fd5b506104c06104dd36600461381a565b610f87565b3480156104ee57600080fd5b507fec7e8c1c441439dd40959777f4c577ea0cd42fcc1dbe59d2bd0f5d9c55df8dde546001600160401b03620100008204811691600160501b90041661048b565b34801561053b57600080fd5b506104c0610ff4565b34801561055057600080fd5b506104c061055f36600461386b565b6110f4565b34801561057057600080fd5b5061058461057f3660046139e6565b611135565b60405190815260200161046d565b34801561059e57600080fd5b506104c06105ad366004613a61565b6111be565b3480156105be57600080fd5b506105d26105cd3660046137ea565b611236565b60405161046d9190613b1c565b3480156105eb57600080fd5b507fec7e8c1c441439dd40959777f4c577ea0cd42fcc1dbe59d2bd0f5d9c55df8dcc5463ffffffff16610584565b34801561062557600080fd5b50610461611405565b34801561063a57600080fd5b506105846106493660046137ea565b611475565b34801561065a57600080fd5b506104c0610669366004613d72565b6114f5565b34801561067a57600080fd5b50610584610689366004613dc3565b611573565b34801561069a57600080fd5b506104c06106a9366004613e09565b611601565b3480156106ba57600080fd5b506105846106c9366004613e37565b611649565b3480156106da57600080fd5b506104c06106e9366004613e55565b611688565b3480156106fa57600080fd5b50610584610709366004613e99565b61170f565b34801561071a57600080fd5b506105846107293660046137ea565b611760565b34801561073a57600080fd5b506104c06117a3565b34801561074f57600080fd5b5061076361075e366004613eb2565b611818565b60405161046d9190613f99565b34801561077c57600080fd5b506104c061078b366004613e37565b6118f8565b34801561079c57600080fd5b50610584611945565b3480156107b157600080fd5b506104c06107c0366004613fbf565b6119c8565b3480156107d157600080fd5b506107e56107e03660046137ea565b6119ff565b6040516001600160a01b03909116815260200161046d565b34801561080957600080fd5b50600080516020615e0f83398151915254600160401b900460ff16610461565b34801561083557600080fd5b50600080516020615e0f833981519152546001600160401b03161515610461565b34801561086257600080fd5b506105846108713660046137ea565b611a1a565b34801561088257600080fd5b506104c06108913660046137ea565b611a5d565b3480156108a257600080fd5b506104c06108b13660046137ea565b611a9d565b3480156108c257600080fd5b506104c06108d136600461400e565b611add565b3480156108e257600080fd5b506108f66108f13660046137ea565b611b1e565b604080516001600160a01b0393841681529290911660208301520161046d565b34801561092257600080fd5b50610461610931366004613e09565b611ba7565b34801561094257600080fd5b506104c06109513660046137ea565b611c2e565b34801561096257600080fd5b506104c0610971366004613e09565b611c6e565b34801561098257600080fd5b506104c0610991366004613e09565b611cb6565b3480156109a257600080fd5b506104c06109b1366004614043565b611cfe565b3480156109c257600080fd5b506107e5611d3f565b3480156109d757600080fd5b506104c06109e6366004614078565b611d49565b3480156109f757600080fd5b50610a0b610a063660046140fd565b611d8c565b60405161046d92919061411f565b348015610a2557600080fd5b50610a2e611e1d565b60405161046d919061419d565b348015610a4757600080fd5b506104c0611e90565b348015610a5c57600080fd5b506104c0610a6b3660046141ff565b611ef8565b6104c0610a7e366004614043565b611f8a565b348015610a8f57600080fd5b50610a98611fd3565b60405161046d9190614247565b348015610ab157600080fd5b506104c0610ac036600461381a565b6124c5565b348015610ad157600080fd5b50610584610ae0366004613e37565b6124fe565b348015610af157600080fd5b506104c0610b003660046137ea565b612548565b348015610b1157600080fd5b506104c0610b20366004613e55565b612588565b348015610b3157600080fd5b50610b45610b403660046140fd565b6125c8565b60405161046d92919061475a565b348015610b5f57600080fd5b506107e561264e565b6104c0610b763660046137ea565b612658565b348015610b8757600080fd5b506104c0610b963660046137ea565b612722565b348015610ba757600080fd5b506104c0610bb63660046147c4565b612762565b348015610bc757600080fd5b50610bdb610bd6366004613e37565b61279a565b6040805193845260208401929092529082015260600161046d565b6104c0610c043660046147e1565b612838565b348015610c1557600080fd5b506104c0610c243660046137ea565b6128c1565b348015610c3557600080fd5b506107e5610c44366004613fbf565b612901565b348015610c5557600080fd5b50610461610c64366004613e09565b61298a565b348015610c7557600080fd5b50610584610c84366004613e37565b61299e565b348015610c9557600080fd5b50610ca9610ca43660046137ea565b6129dc565b6040805160ff909316835260208301919091520161046d565b348015610cce57600080fd5b50610b45610cdd3660046140fd565b612a86565b348015610cee57600080fd5b506104c0610cfd366004614816565b612acb565b348015610d0e57600080fd5b506104c0610d1d36600461386b565b612b04565b348015610d2e57600080fd5b506104c0610d3d36600461484f565b612b28565b348015610d4e57600080fd5b50610d57612b6b565b60405161046d91906148bb565b348015610d7057600080fd5b506104c0610d7f3660046148ce565b612b75565b348015610d9057600080fd5b50610584610d9f3660046137ea565b612bc4565b348015610db057600080fd5b506104c0610dbf3660046148ee565b612c07565b348015610dd057600080fd5b506104c0610ddf366004614929565b612c46565b348015610df057600080fd5b50600080516020615def833981519152546001600160a01b03166107e5565b348015610e1b57600080fd5b506104c0610e2a366004614994565b612cb9565b348015610e3b57600080fd5b506104c0610e4a366004614a0f565b612cfc565b348015610e5b57600080fd5b506104c0610e6a3660046137ea565b612d33565b60006001600160e01b031982166301ffc9a760e01b1480610ea057506001600160e01b0319821663604c09ad60e01b145b80610ebb57506001600160e01b0319821663142fdefb60e31b145b92915050565b600080600080516020615def833981519152610ee3610ede612d73565b612df5565b600e820154909350600160901b90046001600160401b0316610f076009600a614b3d565b610f119190614b49565b9150509091565b60405163b42652e960e01b81526001600160a01b038216600482015273__$4054b81dd018f00b16b0262e280b71bd3d$__9063b42652e9906024015b60006040518083038186803b158015610f6c57600080fd5b505af4158015610f80573d6000803e3d6000fd5b5050505050565b60405163961b008960e01b815273__$900ca2dd89aa7bd7c22612e1484fcfb277$__9063961b008990610fc09085908590600401614d6b565b60006040518083038186803b158015610fd857600080fd5b505af4158015610fec573d6000803e3d6000fd5b505050505050565b610ffc612e0b565b600080516020615e0f83398151915254600080516020615def833981519152906001600160401b03161580159061104d5750602981015461104a9062278d00906001600160401b0316614d95565b42115b61109e5760405162461bcd60e51b815260206004820152601f60248201527f6173736574206d616e61676572206e6f742070617573656420656e6f7567680060448201526064015b60405180910390fd5b6110a6612e74565b6001600160a01b0316630c08bf886040518163ffffffff1660e01b8152600401600060405180830381600087803b1580156110e057600080fd5b505af1158015610f80573d6000803e3d6000fd5b73__$f7c9c0d01068167c22df35ff5943b62148$__63247f29bc8361111884612ea2565b6040518363ffffffff1660e01b8152600401610fc0929190614de8565b60405163ccfb491360e01b815260009073__$df85e949fff37977e0d300eb10fcbb4998$__9063ccfb49139061117390879087908790600401614ee6565b602060405180830381865af4158015611190573d6000803e3d6000fd5b505050506040513d601f19601f820116820180604052508101906111b49190614f1a565b90505b9392505050565b6111c6612e0b565b60405163031836db60e41b815273__$b5cdffcf5b8f8ae6fa06e08eee0b808a00$__906331836db09061120190869086908690600401614f33565b60006040518083038186803b15801561121957600080fd5b505af415801561122d573d6000803e3d6000fd5b50505050505050565b611385604080516105008101909152806000815260200160006001600160a01b0316815260200160006001600160a01b0316815260200160006001600160a01b0316815260200160608152602001600015158152602001600081526020016000815260200160006001600160a01b03168152602001600081526020016000815260200160008152602001600081526020016000815260200160008152602001600081526020016000815260200160008152602001600081526020016000815260200160008152602001600081526020016000815260200160008152602001600081526020016000815260200160008152602001600081526020016000815260200160008152602001600081526020016000815260200160008152602001600081526020016000815260200160008152602001600081526020016000815260200160008152602001600081525090565b604051630152052b60e41b81526001600160a01b038316600482015273__$ec55c6bae1638b00bbedb6b751f1f84e77$__9063152052b090602401600060405180830381865af41580156113dd573d6000803e3d6000fd5b505050506040513d6000823e601f3d908101601f19168201604052610ebb9190810190614fd2565b600061140f612e74565b6001600160a01b031663194307bf6040518163ffffffff1660e01b8152600401602060405180830381865afa15801561144c573d6000803e3d6000fd5b505050506040513d601f19601f820116820180604052508101906114709190615215565b905090565b604051631e8bee0160e01b81526001600160a01b038216600482015260009073__$4ff30c53c077284d3b777228e6ae31216c$__90631e8bee01906024015b602060405180830381865af41580156114d1573d6000803e3d6000fd5b505050506040513d601f19601f82011682018060405250810190610ebb9190614f1a565b6114fd612e0b565b60405163314768f160e11b815273__$b5cdffcf5b8f8ae6fa06e08eee0b808a00$__9063628ed1e29061153c9088908890889088908890600401615232565b60006040518083038186803b15801561155457600080fd5b505af4158015611568573d6000803e3d6000fd5b505050505050505050565b600061157d612f0e565b73__$4ff30c53c077284d3b777228e6ae31216c$__6326e68cd4336115a186612ea2565b856040518463ffffffff1660e01b81526004016115c093929190615269565b602060405180830381865af41580156115dd573d6000803e3d6000fd5b505050506040513d601f19601f820116820180604052508101906111b79190614f1a565b60405163c61ce7dd60e01b81526001600160a01b0380841660048301528216602482015273__$c7446ca28182994c6c0135601399c1b584$__9063c61ce7dd90604401610fc0565b60405163a43ba5ab60e01b815260009073__$c7446ca28182994c6c0135601399c1b584$__9063a43ba5ab906115c09060029087908790600401614f33565b611690612ffa565b73__$db99a4b0b1a8936beb7122d8143ea3b698$__6390606599836116b484612ea2565b6040518363ffffffff1660e01b81526004016116d192919061529c565b60006040518083038186803b1580156116e957600080fd5b505af41580156116fd573d6000803e3d6000fd5b5050505061170b6001600055565b5050565b600073__$f7c9c0d01068167c22df35ff5943b62148$__630c7dcd1561173484612ea2565b6040516001600160e01b031960e084901b1681526001600160401b0390911660048201526024016114b4565b60405163fdf6b37560e01b81526001600160a01b038216600482015260009073__$4054b81dd018f00b16b0262e280b71bd3d$__9063fdf6b375906024016114b4565b6117ab612e0b565b600080516020615def8339815191526117c2611405565b156118045760405162461bcd60e51b8152602060048201526012602482015271198b585cdcd95d081d195c9b5a5b985d195960721b6044820152606401611095565b602901805467ffffffffffffffff19169055565b61187a604080516101408101909152806000815260200160006001600160a01b03168152602001600081526020016000815260200160001515815260200160608152602001606081526020016000815260200160008152602001600081525090565b604051631107361560e01b815273__$b5cdffcf5b8f8ae6fa06e08eee0b808a00$__906311073615906118b390869086906004016152c7565b600060405180830381865af41580156118d0573d6000803e3d6000fd5b505050506040513d6000823e601f3d908101601f191682016040526111b791908101906153cf565b6040516325165ca760e11b81526001600160a01b03831660048201523360248201526044810182905273__$c7446ca28182994c6c0135601399c1b584$__90634a2cb94e90606401610fc0565b7fec7e8c1c441439dd40959777f4c577ea0cd42fcc1dbe59d2bd0f5d9c55df8dc4547fec7e8c1c441439dd40959777f4c577ea0cd42fcc1dbe59d2bd0f5d9c55df8dc554600091600080516020615def833981519152916119b991600160901b90046001600160401b039081169116615403565b6001600160401b031691505090565b604051630497cc7360e41b815273__$722590fcf677171437eb48cf082465d6d7$__9063497cc73090610f54908490600401615517565b6000611a0a82613053565b546001600160a01b031692915050565b60405163e4c5e4e960e01b81526001600160a01b038216600482015260009073__$8ed6b3b04009dff171844b9d72c92eddd0$__9063e4c5e4e9906024016114b4565b604051630877cd8160e41b81526001600160a01b038216600482015273__$4054b81dd018f00b16b0262e280b71bd3d$__9063877cd81090602401610f54565b60405163195153e560e21b81526001600160a01b038216600482015273__$c7446ca28182994c6c0135601399c1b584$__906365454f9490602401610f54565b611ae5612f0e565b60405163e512e75360e01b815273__$d15fd82c1987b4adc4c1dba5cf0be762b0$__9063e512e75390610fc090859085906004016155fa565b604051636e61164f60e01b81526001600160a01b0382166004820152600090819073__$c7446ca28182994c6c0135601399c1b584$__90636e61164f906024016040805180830381865af4158015611b7a573d6000803e3d6000fd5b505050506040513d601f19601f82011682018060405250810190611b9e919061560d565b91509150915091565b604051636a79d06960e11b81526001600160a01b0380841660048301528216602482015260009073__$c7446ca28182994c6c0135601399c1b584$__9063d4f3a0d290604401602060405180830381865af4158015611c0a573d6000803e3d6000fd5b505050506040513d601f19601f820116820180604052508101906111b79190615215565b604051633ad29a3560e11b81526001600160a01b038216600482015273__$8ed6b3b04009dff171844b9d72c92eddd0$__906375a5346a90602401610f54565b60405163778aadd560e01b81526001600160a01b0380841660048301528216602482015273__$8ed6b3b04009dff171844b9d72c92eddd0$__9063778aadd590604401610fc0565b60405163e3d7785160e01b81526001600160a01b0380841660048301528216602482015273__$c7446ca28182994c6c0135601399c1b584$__9063e3d7785190604401610fc0565b73__$2121826b9482dc4a95d5f1c5bc0ffbdf06$__634b6bee8783611d2284612ea2565b6040518363ffffffff1660e01b8152600401610fc092919061563c565b6000611470612e74565b611d51612f0e565b604051631da71bad60e11b815273__$d15fd82c1987b4adc4c1dba5cf0be762b0$__90633b4e375a906112019086908690869060040161564f565b60405163825378af60e01b8152600481018390526024810182905260609060009073__$4054b81dd018f00b16b0262e280b71bd3d$__9063825378af90604401600060405180830381865af4158015611de9573d6000803e3d6000fd5b505050506040513d6000823e601f3d908101601f19168201604052611e1191908101906156f9565b915091505b9250929050565b606073__$b5cdffcf5b8f8ae6fa06e08eee0b808a00$__63d80516a56040518163ffffffff1660e01b8152600401600060405180830381865af4158015611e68573d6000803e3d6000fd5b505050506040513d6000823e601f3d908101601f1916820160405261147091908101906157db565b611e98612e0b565b600080516020615e0f83398151915254600080516020615def833981519152906001600160401b0316600003611ef557611ed142612ea2565b60298201805467ffffffffffffffff19166001600160401b03929092169190911790555b50565b611f006130fa565b611f08612ffa565b73__$db99a4b0b1a8936beb7122d8143ea3b698$__63333203338484611f2d85612ea2565b6040518463ffffffff1660e01b8152600401611f4b9392919061588b565b60006040518083038186803b158015611f6357600080fd5b505af4158015611f77573d6000803e3d6000fd5b50505050611f856001600055565b505050565b611f92612ffa565b73__$f7c9c0d01068167c22df35ff5943b62148$__63471b421e83611fb684612ea2565b6040518363ffffffff1660e01b81526004016116d192919061563c565b604080516106408101825260008082526020820181905291810182905260608082018390526080820183905260a082015260c0810182905260e08101829052610100810182905261012081018290526101408101829052610160810182905261018081018290526101a081018290526101c081018290526101e08101829052610200810182905261022081018290526102408101829052610260810182905261028081018290526102a081018290526102c081018290526102e08101829052610300810182905261032081018290526103408101829052610360810182905261038081018290526103a081018290526103c081018290526103e08101829052610400810182905261042081018290526104408101829052610460810182905261048081018290526104a081018290526104c081018290526104e08101829052610500810182905261052081018290526105408101829052610560810182905261058081018290526105a081018290526105c081018290526105e081018290526106008101829052610620810191909152600080516020615def833981519152604080516106408101825282546001600160a01b03908116825260018401548116602083015260028401548116928201929092526003830154821660608201526004830154909116608082015260058201805491929160a0840191906121d7906158c7565b80601f0160208091040260200160405190810160405280929190818152602001828054612203906158c7565b80156122505780601f1061222557610100808354040283529160200191612250565b820191906000526020600020905b81548152906001019060200180831161223357829003601f168201915b505050918352505060068201546001600160a01b039081166020830152600783015481166040830152600883015481166060830152600983015481166080830152600a830154811660a0830152600b830154811660c0830152600c83015490811660e083015260ff600160a01b8083048216610100850152600160a81b9092048116610120840152600d840154610140840152600e84015463ffffffff8082166101608601526401000000008204811661018086015261ffff600160401b80840482166101a08801526001600160401b03600160501b80860482166101c08a0152600160901b9586900482166101e08a0152600f8a01548083166102008b015283810485166102208b015281810490971615156102408a0152600160581b870482166102608a0152600160981b909604811661028089015260108901548082166102a08a015282810484166102c08a015295860484166102e0890152600160701b8604841661030089015294849004851661032088015260118801546001600160801b038082166103408a0152600160801b80830485166103608b01529590910490921661038088015260128801549182166103a088015283820485166103c0880152600160c01b9182900485166103e08801526013880154808616610400890152818104861661042089015284810486166104408901528290048516610460880152601488015480861661048089015281810486166104a089015284810484166104c08901529590950484166104e087015260158701548085166105008801529485048416610520870152918404831661054086015292041661056083015260169092015490911661058090910152919050565b604051631b4952bf60e11b815273__$1c6dbe76071682217e38af6fe7e8685bd4$__90633692a57e90610fc09085908590600401614d6b565b604051634ac26d1560e11b81526001600160a01b03831660048201526024810182905260009073__$4ff30c53c077284d3b777228e6ae31216c$__90639584da2a906044016115c0565b60405163a07ea7af60e01b81526001600160a01b038216600482015273__$900ca2dd89aa7bd7c22612e1484fcfb277$__9063a07ea7af90602401610f54565b73__$305ac64b111b0d775ac583a3c3f22849b9$__62e97928836125ab84612ea2565b6040518363ffffffff1660e01b8152600401610fc092919061529c565b60405163b19aec1760e01b8152600481018390526024810182905260609060009073__$c7446ca28182994c6c0135601399c1b584$__9063b19aec17906044015b600060405180830381865af4158015612626573d6000803e3d6000fd5b505050506040513d6000823e601f3d908101601f19168201604052611e1191908101906158fb565b600061147061314f565b612660612ffa565b612668611405565b6126ad5760405162461bcd60e51b8152602060048201526016602482015275198b585cdcd95d081b9bdd081d195c9b5a5b985d195960521b6044820152606401611095565b604051635b457cbf60e11b81526001600160a01b038216600482015273__$8ed6b3b04009dff171844b9d72c92eddd0$__9063b68af97e9060240160006040518083038186803b15801561270057600080fd5b505af4158015612714573d6000803e3d6000fd5b50505050611ef56001600055565b60405163b7f658ab60e01b81526001600160a01b038216600482015273__$55e854ab37cd1bbaf9fa5a4f99ff154ced$__9063b7f658ab90602401610f54565b61276a612e0b565b600080516020615e0f8339815191528054911515600160401b0268ff000000000000000019909216919091179055565b60008060006127a7612f0e565b60405163bcbaf48760e01b81526001600160a01b03861660048201526024810185905273__$55e854ab37cd1bbaf9fa5a4f99ff154ced$__9063bcbaf48790604401606060405180830381865af4158015612806573d6000803e3d6000fd5b505050506040513d601f19601f8201168201806040525081019061282a919061599c565b919790965090945092505050565b6128406130fa565b612848612f0e565b73__$f7c9c0d01068167c22df35ff5943b62148$__63f2821a62338561286d86612ea2565b61287686612ea2565b6040516001600160e01b031960e087901b1681526001600160a01b0394851660048201529390921660248401526001600160401b039081166044840152166064820152608401611201565b604051636033a5a360e11b81526001600160a01b038216600482015273__$900ca2dd89aa7bd7c22612e1484fcfb277$__9063c0674b4690602401610f54565b600061290b6130fa565b604051631aa4020360e31b815273__$8ed6b3b04009dff171844b9d72c92eddd0$__9063d5201018906129449030908690600401615a38565b602060405180830381865af4158015612961573d6000803e3d6000fd5b505050506040513d601f19601f82011682018060405250810190610ebb9190615b1b565b919050565b60006111b761299884613053565b836131dd565b60405163a43ba5ab60e01b815260009073__$c7446ca28182994c6c0135601399c1b584$__9063a43ba5ab906115c090849087908790600401614f33565b6000806129e7612f0e565b60405162e1c50160e81b81526001600160a01b0384166004820152600090819073__$55e854ab37cd1bbaf9fa5a4f99ff154ced$__9063e1c50100906024016040805180830381865af4158015612a42573d6000803e3d6000fd5b505050506040513d601f19601f82011682018060405250810190612a669190615b38565b91509150816002811115612a7c57612a7c613aa2565b9590945092505050565b6040516315302d6160e31b8152600481018390526024810182905260609060009073__$4054b81dd018f00b16b0262e280b71bd3d$__9063a9816b0890604401612609565b6040516331ec097760e01b815273__$df85e949fff37977e0d300eb10fcbb4998$__906331ec097790610fc09085908590600401615b66565b73__$2121826b9482dc4a95d5f1c5bc0ffbdf06$__63f71ab4168361111884612ea2565b612b30612f0e565b604051635e9a8dfd60e11b815273__$d15fd82c1987b4adc4c1dba5cf0be762b0$__9063bd351bfa9061120190869086908690600401615b8a565b6060611470613237565b604051630ed000b360e41b81526001600160a01b038085166004830152831660248201526044810182905273__$4ff30c53c077284d3b777228e6ae31216c$__9063ed000b3090606401611201565b60405163769bb15560e11b81526001600160a01b038216600482015260009073__$c7446ca28182994c6c0135601399c1b584$__9063ed3762aa906024016114b4565b612c0f612e0b565b60405163839eddcd60e01b815273__$b5cdffcf5b8f8ae6fa06e08eee0b808a00$__9063839eddcd90610f54908490600401615bc8565b60405163f060b3f160e01b815273__$4ff30c53c077284d3b777228e6ae31216c$__9063f060b3f190612c83908790879087908790600401615ca3565b60006040518083038186803b158015612c9b57600080fd5b505af4158015612caf573d6000803e3d6000fd5b5050505050505050565b612cc1612e0b565b6040516302fab52b60e01b815273__$498fae630e5f9e2b0d2f5a14b70bbf8a29$__906302fab52b9061120190869086908690600401615ce0565b604051638323a0a960e01b815273__$8ed6b3b04009dff171844b9d72c92eddd0$__90638323a0a990610f54908490600401615cfa565b604051637a68005960e11b81526001600160a01b038216600482015273__$c7446ca28182994c6c0135601399c1b584$__9063f4d000b290602401610f54565b7fec7e8c1c441439dd40959777f4c577ea0cd42fcc1dbe59d2bd0f5d9c55df8dde547fec7e8c1c441439dd40959777f4c577ea0cd42fcc1dbe59d2bd0f5d9c55df8dcd8054600092600080516020615def833981519152929161ffff909116908110612de157612de1615d0d565b906000526020600020906004020191505090565b6000612e028260006132b9565b50909392505050565b600080516020615def833981519152546001600160a01b03163314612e725760405162461bcd60e51b815260206004820152601d60248201527f6f6e6c79206173736574206d616e6167657220636f6e74726f6c6c65720000006044820152606401611095565b565b7fec7e8c1c441439dd40959777f4c577ea0cd42fcc1dbe59d2bd0f5d9c55df8db7546001600160a01b031690565b60006001600160401b03821115612f0a5760405162461bcd60e51b815260206004820152602660248201527f53616665436173743a2076616c756520646f65736e27742066697420696e203660448201526534206269747360d01b6064820152608401611095565b5090565b7fec7e8c1c441439dd40959777f4c577ea0cd42fcc1dbe59d2bd0f5d9c55df8dbc54600080516020615def833981519152906001600160a01b031615611ef5576006810154604051633af32abf60e01b81523360048201526001600160a01b0390911690633af32abf90602401602060405180830381865afa158015612f98573d6000803e3d6000fd5b505050506040513d601f19601f82011682018060405250810190612fbc9190615215565b611ef55760405162461bcd60e51b815260206004820152600f60248201526e1b9bdd081dda1a5d195b1a5cdd1959608a1b6044820152606401611095565b60026000540361304c5760405162461bcd60e51b815260206004820152601f60248201527f5265656e7472616e637947756172643a207265656e7472616e742063616c6c006044820152606401611095565b6002600055565b7f5bebac0595fee029d42bb673937f5f1cb81cf8641382bc17774635de9b7d796568010000000000000000600160e01b03604083901b161880600060048084015460ff16908111156130a7576130a7613aa2565b036130f45760405162461bcd60e51b815260206004820152601b60248201527f696e76616c6964206167656e74207661756c74206164647265737300000000006044820152606401611095565b50919050565b600080516020615e0f83398151915254600160401b900460ff16612e725760405162461bcd60e51b815260206004820152600c60248201526b1b9bdd08185d1d1858da195960a21b6044820152606401611095565b7fec7e8c1c441439dd40959777f4c577ea0cd42fcc1dbe59d2bd0f5d9c55df8dde547fec7e8c1c441439dd40959777f4c577ea0cd42fcc1dbe59d2bd0f5d9c55df8dcd8054600092600080516020615def833981519152929161ffff9091169081106131bd576131bd615d0d565b60009182526020909120600490910201546001600160a01b031692915050565b6001820154600090600080516020615def833981519152906001600160a01b0390811690841681148061322e57506001600160a01b038082166000908152601a840160205260409020548582169116145b95945050505050565b7fec7e8c1c441439dd40959777f4c577ea0cd42fcc1dbe59d2bd0f5d9c55df8dc0546040805160048152602481019091526020810180516001600160e01b03166385b4bb5360e01b1790526060916001600160a01b031690600061329b8383613478565b9050808060200190518101906132b19190615d23565b935050505090565b6000806000806000806133588860010180546132d4906158c7565b80601f0160208091040260200160405190810160405280929190818152602001828054613300906158c7565b801561334d5780601f106133225761010080835404028352916020019161334d565b820191906000526020600020905b81548152906001019060200180831161333057829003601f168201915b50505050508861348c565b8a549295509093509150600160f01b900460ff161561339f57875460009061338e90600160a81b900460ff16600183878661357a565b965091945084935061347192505050565b600080600061343a8b60020180546133b6906158c7565b80601f01602080910402602001604051908101604052809291908181526020018280546133e2906158c7565b801561342f5780601f106134045761010080835404028352916020019161342f565b820191906000526020600020905b81548152906001019060200180831161341257829003601f168201915b50505050508b61348c565b8d54929550909350915060009061345e90600160a81b900460ff1685848a8961357a565b9950949750909550613471945050505050565b9250925092565b60606136018061322e858563ffffffff8416565b7fec7e8c1c441439dd40959777f4c577ea0cd42fcc1dbe59d2bd0f5d9c55df8dc25460009081908190600080516020615def833981519152906001600160a01b0316851561354e5760405163e4a0a55b60e01b81526001600160a01b0382169063e4a0a55b90613500908a906004016148bb565b606060405180830381865afa15801561351d573d6000803e3d6000fd5b505050506040513d601f19601f82011682018060405250810190613541919061599c565b9450945094505050613471565b60405163524f388960e01b81526001600160a01b0382169063524f388990613500908a906004016148bb565b6000600080516020615def833981519152816009613598878a614d95565b6135a29190614d95565b600c8301549091506000906135c2908690600160a81b900460ff16614d95565b9050808210156135d4576135d4615d6b565b6135f46135e18284615d81565b6135ec90600a614b3d565b87908a613685565b9998505050505050505050565b6060600080846001600160a01b03168460405161361e9190615d94565b600060405180830381855af49150503d8060008114613659576040519150601f19603f3d011682016040523d82523d6000602084013e61365e565b606091505b50915091508115613672579150610ebb9050565b3d604051818101604052816000823e8181fd5b60008082116136c95760405162461bcd60e51b815260206004820152601060248201526f4469766973696f6e206279207a65726f60801b6044820152606401611095565b836000036136d9575060006111b7565b838302838582816136ec576136ec615db0565b040361370a5782818161370157613701615db0565b049150506111b7565b5060006137178386615dc6565b905060006137258487615dda565b905060006137338587615dc6565b905060006137418688615dda565b90508561374e8285614b49565b6137589190615dc6565b6137628385614b49565b61376c8387614b49565b886137778689614b49565b6137819190614b49565b61378b9190614d95565b6137959190614d95565b61379f9190614d95565b98975050505050505050565b6000602082840312156137bd57600080fd5b81356001600160e01b0319811681146111b757600080fd5b6001600160a01b0381168114611ef557600080fd5b6000602082840312156137fc57600080fd5b81356111b7816137d5565b600061028082840312156130f457600080fd5b6000806040838503121561382d57600080fd5b82356001600160401b0381111561384357600080fd5b61384f85828601613807565b9250506020830135613860816137d5565b809150509250929050565b6000806040838503121561387e57600080fd5b82356001600160401b0381111561389457600080fd5b83016101c081860312156138a757600080fd5b946020939093013593505050565b634e487b7160e01b600052604160045260246000fd5b60405161050081016001600160401b03811182821017156138ee576138ee6138b5565b60405290565b60405161014081016001600160401b03811182821017156138ee576138ee6138b5565b60405160a081016001600160401b03811182821017156138ee576138ee6138b5565b604051601f8201601f191681016001600160401b0381118282101715613961576139616138b5565b604052919050565b60006001600160401b03821115613982576139826138b5565b50601f01601f191660200190565b600082601f8301126139a157600080fd5b81356139b46139af82613969565b613939565b8181528460208386010111156139c957600080fd5b816020850160208301376000918101602001919091529392505050565b6000806000606084860312156139fb57600080fd5b8335613a06816137d5565b925060208401356001600160401b03811115613a2157600080fd5b613a2d86828701613990565b925050604084013590509250925092565b60038110611ef557600080fd5b803561298581613a3e565b8035612985816137d5565b600080600060608486031215613a7657600080fd5b8335613a8181613a3e565b92506020840135613a91816137d5565b929592945050506040919091013590565b634e487b7160e01b600052602160045260246000fd5b60058110613ac857613ac8613aa2565b9052565b60005b83811015613ae7578181015183820152602001613acf565b50506000910152565b60008151808452613b08816020860160208601613acc565b601f01601f19169290920160200192915050565b60208152613b2e602082018351613ab8565b60006020830151613b4a60408401826001600160a01b03169052565b5060408301516001600160a01b03811660608401525060608301516001600160a01b03811660808401525060808301516105008060a0850152613b91610520850183613af0565b915060a0850151613ba660c086018215159052565b5060c085015160e085015260e0850151610100818187015280870151915050610120613bdc818701836001600160a01b03169052565b8601516101408681019190915286015161016080870191909152860151610180808701919091528601516101a0808701919091528601516101c0808701919091528601516101e08087019190915286015161020080870191909152860151610220808701919091528601516102408087019190915286015161026080870191909152860151610280808701919091528601516102a0808701919091528601516102c0808701919091528601516102e08087019190915286015161030080870191909152860151610320808701919091528601516103408087019190915286015161036080870191909152860151610380808701919091528601516103a0808701919091528601516103c0808701919091528601516103e08087019190915286015161040080870191909152860151610420808701919091528601516104408087019190915286015161046080870191909152860151610480808701919091528601516104a0808701919091528601516104c0808701919091528601516104e0808701919091529095015193019290925250919050565b600080600080600060a08688031215613d8a57600080fd5b8535613d9581613a3e565b94506020860135613da5816137d5565b94979496505050506040830135926060810135926080909101359150565b60008060408385031215613dd657600080fd5b8235915060208301356001600160401b03811115613df357600080fd5b613dff85828601613990565b9150509250929050565b60008060408385031215613e1c57600080fd5b8235613e27816137d5565b91506020830135613860816137d5565b60008060408385031215613e4a57600080fd5b82356138a7816137d5565b60008060408385031215613e6857600080fd5b82356001600160401b03811115613e7e57600080fd5b613e8a85828601613807565b95602094909401359450505050565b600060208284031215613eab57600080fd5b5035919050565b60008060408385031215613ec557600080fd5b8235613e2781613a3e565b60038110611ef557611ef5613aa2565b613ac881613ed0565b6000610140613ef9848451613ee0565b6020830151613f1360208601826001600160a01b03169052565b5060408301516040850152606083015160608501526080830151613f3b608086018215159052565b5060a08301518160a0860152613f5382860182613af0565b91505060c083015184820360c0860152613f6d8282613af0565b60e085810151908701526101008086015190870152610120948501519490950193909352509192915050565b6020815260006111b76020830184613ee9565b600061016082840312156130f457600080fd5b600060208284031215613fd157600080fd5b81356001600160401b03811115613fe757600080fd5b613ff384828501613fac565b949350505050565b600061018082840312156130f457600080fd5b6000806040838503121561402157600080fd5b82356001600160401b0381111561403757600080fd5b61384f85828601613ffb565b6000806040838503121561405657600080fd5b82356001600160401b0381111561406c57600080fd5b613e8a85828601613fac565b60008060006040848603121561408d57600080fd5b83356001600160401b03808211156140a457600080fd5b818601915086601f8301126140b857600080fd5b8135818111156140c757600080fd5b8760208260051b85010111156140dc57600080fd5b602092830195509350508401356140f2816137d5565b809150509250925092565b6000806040838503121561411057600080fd5b50508035926020909101359150565b6040808252835182820181905260009190606090818501906020808901865b8381101561418957815180516001600160a01b031686528381015184870152878101518887015286810151878701526080908101519086015260a0909401939082019060010161413e565b505095909501959095525092949350505050565b6000602080830181845280855180835260408601915060408160051b870101925083870160005b828110156141f257603f198886030184526141e0858351613ee9565b945092850192908501906001016141c4565b5092979650505050505050565b60008060006060848603121561421457600080fd5b83356001600160401b0381111561422a57600080fd5b61423686828701613807565b9350506020840135613a91816137d5565b602081526142616020820183516001600160a01b03169052565b6000602083015161427d60408401826001600160a01b03169052565b5060408301516001600160a01b03811660608401525060608301516001600160a01b03811660808401525060808301516001600160a01b03811660a08401525060a08301516106408060c08501526142d9610660850183613af0565b915060c08501516142f560e08601826001600160a01b03169052565b5060e0850151610100614312818701836001600160a01b03169052565b860151905061012061432e868201836001600160a01b03169052565b860151905061014061434a868201836001600160a01b03169052565b8601519050610160614366868201836001600160a01b03169052565b8601519050610180614382868201836001600160a01b03169052565b86015190506101a061439e868201836001600160a01b03169052565b86015190506101c06143b48682018360ff169052565b86015190506101e06143ca8682018360ff169052565b8601516102008681019190915286015190506102206143f08187018363ffffffff169052565b86015190506102406144098682018363ffffffff169052565b86015190506102606144208682018361ffff169052565b860151905061028061443c868201836001600160401b03169052565b86015190506102a0614458868201836001600160401b03169052565b86015190506102c0614474868201836001600160401b03169052565b86015190506102e061448b8682018361ffff169052565b86015190506103006144a08682018315159052565b86015190506103206144bc868201836001600160401b03169052565b86015190506103406144d8868201836001600160401b03169052565b86015190506103606144f4868201836001600160401b03169052565b860151905061038061450b8682018361ffff169052565b86015190506103a06145248682018363ffffffff169052565b86015190506103c061453d8682018363ffffffff169052565b86015190506103e0614559868201836001600160401b03169052565b8601519050610400614575868201836001600160801b03169052565b860151905061042061458c8682018361ffff169052565b86015190506104406145a38682018361ffff169052565b86015190506104606145bf868201836001600160801b03169052565b86015190506104806145db868201836001600160401b03169052565b86015190506104a06145f7868201836001600160401b03169052565b86015190506104c0614613868201836001600160401b03169052565b86015190506104e061462f868201836001600160401b03169052565b860151905061050061464b868201836001600160401b03169052565b8601519050610520614667868201836001600160401b03169052565b8601519050610540614683868201836001600160401b03169052565b860151905061056061469f868201836001600160401b03169052565b86015190506105806146b88682018363ffffffff169052565b86015190506105a06146d4868201836001600160401b03169052565b86015190506105c06146f0868201836001600160401b03169052565b86015190506105e061470c868201836001600160401b03169052565b8601519050610600614728868201836001600160401b03169052565b8601519050610620614744868201836001600160401b03169052565b9095015163ffffffff1693019290925250919050565b604080825283519082018190526000906020906060840190828701845b8281101561479c5781516001600160a01b031684529284019290840190600101614777565b50505092019290925292915050565b8015158114611ef557600080fd5b8035612985816147ab565b6000602082840312156147d657600080fd5b81356111b7816147ab565b6000806000606084860312156147f657600080fd5b8335614801816137d5565b95602085013595506040909401359392505050565b6000806040838503121561482957600080fd5b8235614834816137d5565b915060208301356001600160401b03811115613df357600080fd5b60008060006060848603121561486457600080fd5b83356001600160401b038082111561487b57600080fd5b61488787838801613ffb565b9450602086013591508082111561489d57600080fd5b506148aa86828701613ffb565b92505060408401356140f2816137d5565b6020815260006111b76020830184613af0565b6000806000606084860312156148e357600080fd5b8335613a81816137d5565b60006020828403121561490057600080fd5b81356001600160401b0381111561491657600080fd5b820161014081850312156111b757600080fd5b6000806000806080858703121561493f57600080fd5b843561494a816137d5565b9350602085013561495a816137d5565b92506040850135915060608501356001600160401b0381111561497c57600080fd5b61498887828801613990565b91505092959194509250565b6000806000604084860312156149a957600080fd5b8335925060208401356001600160401b03808211156149c757600080fd5b818601915086601f8301126149db57600080fd5b8135818111156149ea57600080fd5b8760208285010111156149fc57600080fd5b6020830194508093505050509250925092565b600060208284031215614a2157600080fd5b81356001600160401b03811115614a3757600080fd5b613ff384828501613807565b634e487b7160e01b600052601160045260246000fd5b600181815b80851115614a94578160001904821115614a7a57614a7a614a43565b80851615614a8757918102915b93841c9390800290614a5e565b509250929050565b600082614aab57506001610ebb565b81614ab857506000610ebb565b8160018114614ace5760028114614ad857614af4565b6001915050610ebb565b60ff841115614ae957614ae9614a43565b50506001821b610ebb565b5060208310610133831016604e8410600b8410161715614b17575081810a610ebb565b614b218383614a59565b8060001904821115614b3557614b35614a43565b029392505050565b60006111b78383614a9c565b8082028115828204841417610ebb57610ebb614a43565b6000808335601e19843603018112614b7757600080fd5b83016020810192503590506001600160401b03811115614b9657600080fd5b8060051b3603821315611e1657600080fd5b81835260006001600160fb1b03831115614bc157600080fd5b8260051b80836020870137939093016020019392505050565b80356001600160401b038116811461298557600080fd5b803560ff8116811461298557600080fd5b614c1c82614c0f83614bda565b6001600160401b03169052565b614c2860208201614bda565b6001600160401b03811660208401525060408101356040830152606081013560608301526080810135608083015260a081013560a083015260c081013560c083015260e081013560e0830152610100808201358184015250610120808201358184015250610140614c9a8183016147b9565b151590830152610160614cae828201614bf1565b60ff1692019190915250565b6000610280614cc98384614b60565b828652614cd98387018284614ba8565b925050506020830135602085015260408301356040850152614cfd60608401614bda565b6001600160401b03808216606087015280614d1a60808701614bda565b166080870152505060a083013560a085015260c083013560c085015260e083013561ffff8116808214614d4c57600080fd5b60e086015250610100614d63818601858301614c02565b509392505050565b604081526000614d7e6040830185614cba565b905060018060a01b03831660208301529392505050565b80820180821115610ebb57610ebb614a43565b6001600160401b0380614dba83614bda565b16835280614dca60208401614bda565b16602084015280614ddd60408401614bda565b166040840152505050565b604081526000614df88485614b60565b6101c06040850152614e0f61020085018284614ba8565b9150506020850135606084015260408501356080840152614e3260608601614bda565b6001600160401b0380821660a086015280614e4f60808901614bda565b1660c086015280614e6260a08901614bda565b1660e0860152614e7460c08801614bda565b915061010081831681870152614e8c60e08901614bda565b9250610120828416818801526101409350818901358488015261016092508089013583880152505081870135610180860152614ece6101a08601828901614da8565b50506001600160401b038416602084015290506111b7565b6001600160a01b0384168152606060208201819052600090614f0a90830185613af0565b9050826040830152949350505050565b600060208284031215614f2c57600080fd5b5051919050565b60608101614f4085613ed0565b9381526001600160a01b0392909216602083015260409091015290565b80516005811061298557600080fd5b8051612985816137d5565b6000614f856139af84613969565b9050828152838383011115614f9957600080fd5b6111b7836020830184613acc565b600082601f830112614fb857600080fd5b6111b783835160208501614f77565b8051612985816147ab565b600060208284031215614fe457600080fd5b81516001600160401b0380821115614ffb57600080fd5b90830190610500828603121561501057600080fd5b6150186138cb565b61502183614f5d565b815261502f60208401614f6c565b602082015261504060408401614f6c565b604082015261505160608401614f6c565b606082015260808301518281111561506857600080fd5b61507487828601614fa7565b60808301525061508660a08401614fc7565b60a082015260c083015160c082015260e083015160e082015261010091506150af828401614f6c565b9181019190915261012082810151908201526101408083015190820152610160808301519082015261018080830151908201526101a080830151908201526101c080830151908201526101e08083015190820152610200808301519082015261022080830151908201526102408083015190820152610260808301519082015261028080830151908201526102a080830151908201526102c080830151908201526102e08083015190820152610300808301519082015261032080830151908201526103408083015190820152610360808301519082015261038080830151908201526103a080830151908201526103c080830151908201526103e08083015190820152610400808301519082015261042080830151908201526104408083015190820152610460808301519082015261048080830151908201526104a080830151908201526104c080830151908201526104e091820151918101919091529392505050565b60006020828403121561522757600080fd5b81516111b7816147ab565b60a0810161523f87613ed0565b9581526001600160a01b039490941660208501526040840192909252606083015260809091015290565b6001600160a01b03841681526001600160401b038316602082015260606040820181905260009061322e90830184613af0565b6040815260006152af6040830185614cba565b90506001600160401b03831660208301529392505050565b604081016152d484613ed0565b9281526001600160a01b039190911660209091015290565b805161298581613a3e565b6000610140828403121561530a57600080fd5b6153126138f4565b905061531d826152ec565b815261532b60208301614f6c565b6020820152604082015160408201526060820151606082015261535060808301614fc7565b608082015260a08201516001600160401b038082111561536f57600080fd5b61537b85838601614fa7565b60a084015260c084015191508082111561539457600080fd5b506153a184828501614fa7565b60c08301525060e082015160e082015261010080830151818301525061012080830151818301525092915050565b6000602082840312156153e157600080fd5b81516001600160401b038111156153f757600080fd5b613ff3848285016152f7565b6001600160401b0381811683821602808216919082811461542657615426614a43565b505092915050565b600061016061543d8384614b60565b82865261544d8387018284614ba8565b92505050602083013560208501526040830135604085015261547160608401614bda565b6001600160401b0380821660608701528061548e60808701614bda565b166080870152806154a160a08701614bda565b1660a0870152806154b460c08701614bda565b1660c0870152806154c760e08701614bda565b1660e08701526101009150806154de838701614bda565b16828701526101209150806154f4838701614bda565b168287015261014091508061550a838701614bda565b1691909501529392505050565b6020815260006111b7602083018461542e565b60006101806155398384614b60565b8286526155498387018284614ba8565b92505050602083013560208501526040830135604085015261556d60608401614bda565b6001600160401b0380821660608701528061558a60808701614bda565b16608087015260a085013560a087015260c085013560c0870152806155b160e08701614bda565b1660e08701526101009150806155c8838701614bda565b169186019190915250610120838101359085015261014080840135908501526101609283013592909301919091525090565b604081526000614d7e604083018561552a565b6000806040838503121561562057600080fd5b825161562b816137d5565b6020840151909250613860816137d5565b6040815260006152af604083018561542e565b6040808252810183905260006060600585901b830181019083018683805b888110156156b557868503605f190184528235368b900361017e19018112615693578283fd5b61569f868c830161552a565b955050602093840193929092019160010161566d565b505050506001600160a01b0393909316602092909201919091525092915050565b60006001600160401b038211156156ef576156ef6138b5565b5060051b60200190565b600080604080848603121561570d57600080fd5b83516001600160401b0381111561572357600080fd5b8401601f8101861361573457600080fd5b805160206157446139af836156d6565b82815260a0928302840182019282820191908a85111561576357600080fd5b948301945b848610156157c85780868c0312156157805760008081fd5b615788613917565b8651615793816137d5565b815286850151858201528787015188820152606080880151908201526080808801519082015283529485019491830191615768565b5097909101519698969750505050505050565b600060208083850312156157ee57600080fd5b82516001600160401b038082111561580557600080fd5b818501915085601f83011261581957600080fd5b81516158276139af826156d6565b81815260059190911b8301840190848101908883111561584657600080fd5b8585015b8381101561587e578051858111156158625760008081fd5b6158708b89838a01016152f7565b84525091860191860161584a565b5098975050505050505050565b60608152600061589e6060830186614cba565b6001600160a01b03949094166020830152506001600160401b0391909116604090910152919050565b600181811c908216806158db57607f821691505b6020821081036130f457634e487b7160e01b600052602260045260246000fd5b6000806040838503121561590e57600080fd5b82516001600160401b0381111561592457600080fd5b8301601f8101851361593557600080fd5b805160206159456139af836156d6565b82815260059290921b8301810191818101908884111561596457600080fd5b938201935b8385101561598b57845161597c816137d5565b82529382019390820190615969565b969091015195979596505050505050565b6000806000606084860312156159b157600080fd5b8351925060208401519150604084015190509250925092565b6000808335601e198436030181126159e157600080fd5b83016020810192503590506001600160401b03811115615a0057600080fd5b803603821315611e1657600080fd5b81835281816020850137506000828201602090810191909152601f909101601f19169091010190565b6001600160a01b0383168152604060208201526000615a5783806159ca565b610160806040860152615a6f6101a086018385615a0f565b9250615a7d60208701613a56565b6001600160a01b03811660608701529150615a9b60408701876159ca565b868503603f190160808801529250615ab4848483615a0f565b935050606086013560a0860152608086013560c086015260a086013560e0860152610100915060c08601358286015261012060e087013581870152610140838801358188015281880135838801528088013561018088015250505050809150509392505050565b600060208284031215615b2d57600080fd5b81516111b7816137d5565b60008060408385031215615b4b57600080fd5b8251615b5681613a3e565b6020939093015192949293505050565b6001600160a01b03831681526040602082018190526000906111b490830184613af0565b606081526000615b9d606083018661552a565b8281036020840152615baf818661552a565b91505060018060a01b0383166040830152949350505050565b60208152615be160208201615bdc84613a4b565b613ee0565b6000615bef60208401613a56565b6001600160a01b0381166040840152506040830135606083015260608301356080830152615c1f608084016147b9565b80151560a084015250615c3560a08401846159ca565b6101408060c0860152615c4d61016086018385615a0f565b9250615c5c60c08701876159ca565b868503601f190160e08801529250615c75848483615a0f565b60e0880135610100888101919091528801356101208089019190915290970135919095015250929392505050565b6001600160a01b0385811682528416602082015260408101839052608060608201819052600090615cd690830184613af0565b9695505050505050565b83815260406020820152600061322e604083018486615a0f565b6020815260006111b76020830184614cba565b634e487b7160e01b600052603260045260246000fd5b600060208284031215615d3557600080fd5b81516001600160401b03811115615d4b57600080fd5b8201601f81018413615d5c57600080fd5b613ff384825160208401614f77565b634e487b7160e01b600052600160045260246000fd5b81810381811115610ebb57610ebb614a43565b60008251615da6818460208701613acc565b9190910192915050565b634e487b7160e01b600052601260045260246000fd5b600082615dd557615dd5615db0565b500490565b600082615de957615de9615db0565b50069056feec7e8c1c441439dd40959777f4c577ea0cd42fcc1dbe59d2bd0f5d9c55df8db6ec7e8c1c441439dd40959777f4c577ea0cd42fcc1dbe59d2bd0f5d9c55df8ddfa2646970667358221220697f5bb1e79da34aaa902c2ed400c17398735b4f4c8ee3dad3e5e30b3843aca564736f6c63430008140033",
  "linkReferences": {
    "contracts/fasset/library/AgentSettingsUpdater.sol": {
      "AgentSettingsUpdater": [
        {
          "length": 20,
          "start": 8789
        },
        {
          "length": 20,
          "start": 15336
        }
      ]
    },
    "contracts/fasset/library/AgentsCreateDestroy.sol": {
      "AgentsCreateDestroy": [
        {
          "length": 20,
          "start": 11081
        },
        {
          "length": 20,
          "start": 11610
        },
        {
          "length": 20,
          "start": 11682
        },
        {
          "length": 20,
          "start": 14297
        },
        {
          "length": 20,
          "start": 14888
        },
        {
          "length": 20,
          "start": 15897
        }
      ]
    },
    "contracts/fasset/library/AgentsExternal.sol": {
      "AgentsExternal": [
        {
          "length": 20,
          "start": 10037
        },
        {
          "length": 20,
          "start": 10089
        },
        {
          "length": 20,
          "start": 10801
        },
        {
          "length": 20,
          "start": 11209
        },
        {
          "length": 20,
          "start": 11343
        },
        {
          "length": 20,
          "start": 11486
        },
        {
          "length": 20,
          "start": 11754
        },
        {
          "length": 20,
          "start": 14073
        },
        {
          "length": 20,
          "start": 15038
        },
        {
          "length": 20,
          "start": 15603
        },
        {
          "length": 20,
          "start": 15967
        }
      ]
    },
    "contracts/fasset/library/AvailableAgents.sol": {
      "AvailableAgents": [
        {
          "length": 20,
          "start": 8260
        },
        {
          "length": 20,
          "start": 10383
        },
        {
          "length": 20,
          "start": 11145
        },
        {
          "length": 20,
          "start": 11965
        },
        {
          "length": 20,
          "start": 15287
        }
      ]
    },
    "contracts/fasset/library/Challenges.sol": {
      "Challenges": [
        {
          "length": 20,
          "start": 11266
        },
        {
          "length": 20,
          "start": 11886
        },
        {
          "length": 20,
          "start": 15437
        }
      ]
    },
    "contracts/fasset/library/CollateralReservations.sol": {
      "CollateralReservations": [
        {
          "length": 20,
          "start": 8708
        },
        {
          "length": 20,
          "start": 10273
        },
        {
          "length": 20,
          "start": 12450
        },
        {
          "length": 20,
          "start": 14680
        }
      ]
    },
    "contracts/fasset/library/CollateralTypes.sol": {
      "CollateralTypes": [
        {
          "length": 20,
          "start": 177
        },
        {
          "length": 20,
          "start": 8931
        },
        {
          "length": 20,
          "start": 9754
        },
        {
          "length": 20,
          "start": 10647
        },
        {
          "length": 20,
          "start": 12079
        },
        {
          "length": 20,
          "start": 15660
        }
      ]
    },
    "contracts/fasset/library/FullAgentInfo.sol": {
      "FullAgentInfo": [
        {
          "length": 20,
          "start": 9393
        }
      ]
    },
    "contracts/fasset/library/Liquidation.sol": {
      "Liquidation": [
        {
          "length": 20,
          "start": 14414
        },
        {
          "length": 20,
          "start": 14554
        },
        {
          "length": 20,
          "start": 15127
        }
      ]
    },
    "contracts/fasset/library/Minting.sol": {
      "Minting": [
        {
          "length": 20,
          "start": 10144
        },
        {
          "length": 20,
          "start": 12312
        }
      ]
    },
    "contracts/fasset/library/RedemptionConfirmations.sol": {
      "RedemptionConfirmations": [
        {
          "length": 20,
          "start": 13976
        }
      ]
    },
    "contracts/fasset/library/RedemptionFailures.sol": {
      "RedemptionFailures": [
        {
          "length": 20,
          "start": 11790
        },
        {
          "length": 20,
          "start": 15380
        }
      ]
    },
    "contracts/fasset/library/RedemptionRequests.sol": {
      "RedemptionRequests": [
        {
          "length": 20,
          "start": 9636
        },
        {
          "length": 20,
          "start": 9869
        },
        {
          "length": 20,
          "start": 13876
        },
        {
          "length": 20,
          "start": 15536
        },
        {
          "length": 20,
          "start": 15715
        }
      ]
    },
    "contracts/fasset/library/SettingsUpdater.sol": {
      "SettingsUpdater": [
        {
          "length": 20,
          "start": 72
        },
        {
          "length": 20,
          "start": 15838
        }
      ]
    },
    "contracts/fasset/library/StateUpdater.sol": {
      "StateUpdater": [
        {
          "length": 20,
          "start": 10981
        }
      ]
    },
    "contracts/fasset/library/UnderlyingBalance.sol": {
      "UnderlyingBalance": [
        {
          "length": 20,
          "start": 13794
        }
      ]
    },
    "contracts/fasset/library/UnderlyingWithdrawalAnnouncements.sol": {
      "UnderlyingWithdrawalAnnouncements": [
        {
          "length": 20,
          "start": 8356
        },
        {
          "length": 20,
          "start": 13940
        },
        {
          "length": 20,
          "start": 14829
        }
      ]
    }
  },
  "deployedLinkReferences": {
    "contracts/fasset/library/AgentSettingsUpdater.sol": {
      "AgentSettingsUpdater": [
        {
          "length": 20,
          "start": 4423
        },
        {
          "length": 20,
          "start": 10970
        }
      ]
    },
    "contracts/fasset/library/AgentsCreateDestroy.sol": {
      "AgentsCreateDestroy": [
        {
          "length": 20,
          "start": 6715
        },
        {
          "length": 20,
          "start": 7244
        },
        {
          "length": 20,
          "start": 7316
        },
        {
          "length": 20,
          "start": 9931
        },
        {
          "length": 20,
          "start": 10522
        },
        {
          "length": 20,
          "start": 11531
        }
      ]
    },
    "contracts/fasset/library/AgentsExternal.sol": {
      "AgentsExternal": [
        {
          "length": 20,
          "start": 5671
        },
        {
          "length": 20,
          "start": 5723
        },
        {
          "length": 20,
          "start": 6435
        },
        {
          "length": 20,
          "start": 6843
        },
        {
          "length": 20,
          "start": 6977
        },
        {
          "length": 20,
          "start": 7120
        },
        {
          "length": 20,
          "start": 7388
        },
        {
          "length": 20,
          "start": 9707
        },
        {
          "length": 20,
          "start": 10672
        },
        {
          "length": 20,
          "start": 11237
        },
        {
          "length": 20,
          "start": 11601
        }
      ]
    },
    "contracts/fasset/library/AvailableAgents.sol": {
      "AvailableAgents": [
        {
          "length": 20,
          "start": 3894
        },
        {
          "length": 20,
          "start": 6017
        },
        {
          "length": 20,
          "start": 6779
        },
        {
          "length": 20,
          "start": 7599
        },
        {
          "length": 20,
          "start": 10921
        }
      ]
    },
    "contracts/fasset/library/Challenges.sol": {
      "Challenges": [
        {
          "length": 20,
          "start": 6900
        },
        {
          "length": 20,
          "start": 7520
        },
        {
          "length": 20,
          "start": 11071
        }
      ]
    },
    "contracts/fasset/library/CollateralReservations.sol": {
      "CollateralReservations": [
        {
          "length": 20,
          "start": 4342
        },
        {
          "length": 20,
          "start": 5907
        },
        {
          "length": 20,
          "start": 8084
        },
        {
          "length": 20,
          "start": 10314
        }
      ]
    },
    "contracts/fasset/library/CollateralTypes.sol": {
      "CollateralTypes": [
        {
          "length": 20,
          "start": 4565
        },
        {
          "length": 20,
          "start": 5388
        },
        {
          "length": 20,
          "start": 6281
        },
        {
          "length": 20,
          "start": 7713
        },
        {
          "length": 20,
          "start": 11294
        }
      ]
    },
    "contracts/fasset/library/FullAgentInfo.sol": {
      "FullAgentInfo": [
        {
          "length": 20,
          "start": 5027
        }
      ]
    },
    "contracts/fasset/library/Liquidation.sol": {
      "Liquidation": [
        {
          "length": 20,
          "start": 10048
        },
        {
          "length": 20,
          "start": 10188
        },
        {
          "length": 20,
          "start": 10761
        }
      ]
    },
    "contracts/fasset/library/Minting.sol": {
      "Minting": [
        {
          "length": 20,
          "start": 5778
        },
        {
          "length": 20,
          "start": 7946
        }
      ]
    },
    "contracts/fasset/library/RedemptionConfirmations.sol": {
      "RedemptionConfirmations": [
        {
          "length": 20,
          "start": 9610
        }
      ]
    },
    "contracts/fasset/library/RedemptionFailures.sol": {
      "RedemptionFailures": [
        {
          "length": 20,
          "start": 7424
        },
        {
          "length": 20,
          "start": 11014
        }
      ]
    },
    "contracts/fasset/library/RedemptionRequests.sol": {
      "RedemptionRequests": [
        {
          "length": 20,
          "start": 5270
        },
        {
          "length": 20,
          "start": 5503
        },
        {
          "length": 20,
          "start": 9510
        },
        {
          "length": 20,
          "start": 11170
        },
        {
          "length": 20,
          "start": 11349
        }
      ]
    },
    "contracts/fasset/library/SettingsUpdater.sol": {
      "SettingsUpdater": [
        {
          "length": 20,
          "start": 11472
        }
      ]
    },
    "contracts/fasset/library/StateUpdater.sol": {
      "StateUpdater": [
        {
          "length": 20,
          "start": 6615
        }
      ]
    },
    "contracts/fasset/library/UnderlyingBalance.sol": {
      "UnderlyingBalance": [
        {
          "length": 20,
          "start": 9428
        }
      ]
    },
    "contracts/fasset/library/UnderlyingWithdrawalAnnouncements.sol": {
      "UnderlyingWithdrawalAnnouncements": [
        {
          "length": 20,
          "start": 3990
        },
        {
          "length": 20,
          "start": 9574
        },
        {
          "length": 20,
          "start": 10463
        }
      ]
    }
  }
}