{
  "_format": "hh-sol-artifact-1",
  "contractName": "AssetManager",
  "sourceName": "contracts/fasset/implementation/AssetManager.sol",
  "abi": [
    {
      "inputs": [
        {
          "components": [
            {
              "internalType": "address",
              "name": "assetManagerController",
              "type": "address"
            },
            {
              "internalType": "contract IFAsset",
              "name": "fAsset",
              "type": "address"
            },
            {
              "internalType": "contract IAgentVaultFactory",
              "name": "agentVaultFactory",
              "type": "address"
            },
            {
              "internalType": "contract ICollateralPoolFactory",
              "name": "collateralPoolFactory",
              "type": "address"
            },
            {
              "internalType": "contract IWhitelist",
              "name": "whitelist",
              "type": "address"
            },
            {
              "internalType": "contract IWhitelist",
              "name": "agentWhitelist",
              "type": "address"
            },
            {
              "internalType": "contract IAttestationClient",
              "name": "attestationClient",
              "type": "address"
            },
            {
              "internalType": "contract IAddressValidator",
              "name": "underlyingAddressValidator",
              "type": "address"
            },
            {
              "internalType": "address",
              "name": "liquidationStrategy",
              "type": "address"
            },
            {
              "internalType": "contract IFtsoRegistry",
              "name": "ftsoRegistry",
              "type": "address"
            },
            {
              "internalType": "uint8",
              "name": "assetDecimals",
              "type": "uint8"
            },
            {
              "internalType": "uint8",
              "name": "assetMintingDecimals",
              "type": "uint8"
            },
            {
              "internalType": "uint32",
              "name": "mintingPoolHoldingsRequiredBIPS",
              "type": "uint32"
            },
            {
              "internalType": "address payable",
              "name": "burnAddress",
              "type": "address"
            },
            {
              "internalType": "bool",
              "name": "burnWithSelfDestruct",
              "type": "bool"
            },
            {
              "internalType": "uint32",
              "name": "chainId",
              "type": "uint32"
            },
            {
              "internalType": "uint16",
              "name": "collateralReservationFeeBIPS",
              "type": "uint16"
            },
            {
              "internalType": "uint64",
              "name": "assetUnitUBA",
              "type": "uint64"
            },
            {
              "internalType": "uint64",
              "name": "assetMintingGranularityUBA",
              "type": "uint64"
            },
            {
              "internalType": "uint64",
              "name": "lotSizeAMG",
              "type": "uint64"
            },
            {
              "internalType": "uint16",
              "name": "minUnderlyingBackingBIPS",
              "type": "uint16"
            },
            {
              "internalType": "uint64",
              "name": "mintingCapAMG",
              "type": "uint64"
            },
            {
              "internalType": "uint64",
              "name": "maxTrustedPriceAgeSeconds",
              "type": "uint64"
            },
            {
              "internalType": "bool",
              "name": "requireEOAAddressProof",
              "type": "bool"
            },
            {
              "internalType": "uint64",
              "name": "underlyingBlocksForPayment",
              "type": "uint64"
            },
            {
              "internalType": "uint64",
              "name": "underlyingSecondsForPayment",
              "type": "uint64"
            },
            {
              "internalType": "uint16",
              "name": "redemptionFeeBIPS",
              "type": "uint16"
            },
            {
              "internalType": "uint32",
              "name": "redemptionDefaultFactorAgentC1BIPS",
              "type": "uint32"
            },
            {
              "internalType": "uint32",
              "name": "redemptionDefaultFactorPoolBIPS",
              "type": "uint32"
            },
            {
              "internalType": "uint64",
              "name": "confirmationByOthersAfterSeconds",
              "type": "uint64"
            },
            {
              "internalType": "uint128",
              "name": "confirmationByOthersRewardUSD5",
              "type": "uint128"
            },
            {
              "internalType": "uint16",
              "name": "maxRedeemedTickets",
              "type": "uint16"
            },
            {
              "internalType": "uint16",
              "name": "paymentChallengeRewardBIPS",
              "type": "uint16"
            },
            {
              "internalType": "uint128",
              "name": "paymentChallengeRewardUSD5",
              "type": "uint128"
            },
            {
              "internalType": "uint64",
              "name": "withdrawalWaitMinSeconds",
              "type": "uint64"
            },
            {
              "internalType": "uint64",
              "name": "ccbTimeSeconds",
              "type": "uint64"
            },
            {
              "internalType": "uint64",
              "name": "attestationWindowSeconds",
              "type": "uint64"
            },
            {
              "internalType": "uint64",
              "name": "minUpdateRepeatTimeSeconds",
              "type": "uint64"
            },
            {
              "internalType": "uint64",
              "name": "buybackCollateralFactorBIPS",
              "type": "uint64"
            },
            {
              "internalType": "uint64",
              "name": "announcedUnderlyingConfirmationMinSeconds",
              "type": "uint64"
            },
            {
              "internalType": "uint64",
              "name": "tokenInvalidationTimeMinSeconds",
              "type": "uint64"
            },
            {
              "internalType": "uint32",
              "name": "class1BuyForFlareFactorBIPS",
              "type": "uint32"
            },
            {
              "internalType": "uint64",
              "name": "agentExitAvailableTimelockSeconds",
              "type": "uint64"
            },
            {
              "internalType": "uint64",
              "name": "agentFeeChangeTimelockSeconds",
              "type": "uint64"
            },
            {
              "internalType": "uint64",
              "name": "agentCollateralRatioChangeTimelockSeconds",
              "type": "uint64"
            }
          ],
          "internalType": "struct AssetManagerSettings.Data",
          "name": "_settings",
          "type": "tuple"
        },
        {
          "components": [
            {
              "internalType": "enum IAssetManager.CollateralTokenClass",
              "name": "tokenClass",
              "type": "uint8"
            },
            {
              "internalType": "contract IERC20",
              "name": "token",
              "type": "address"
            },
            {
              "internalType": "uint256",
              "name": "decimals",
              "type": "uint256"
            },
            {
              "internalType": "uint256",
              "name": "validUntil",
              "type": "uint256"
            },
            {
              "internalType": "bool",
              "name": "directPricePair",
              "type": "bool"
            },
            {
              "internalType": "string",
              "name": "assetFtsoSymbol",
              "type": "string"
            },
            {
              "internalType": "string",
              "name": "tokenFtsoSymbol",
              "type": "string"
            },
            {
              "internalType": "uint256",
              "name": "minCollateralRatioBIPS",
              "type": "uint256"
            },
            {
              "internalType": "uint256",
              "name": "ccbMinCollateralRatioBIPS",
              "type": "uint256"
            },
            {
              "internalType": "uint256",
              "name": "safetyMinCollateralRatioBIPS",
              "type": "uint256"
            }
          ],
          "internalType": "struct IAssetManager.CollateralTokenInfo[]",
          "name": "_initialCollateralTypes",
          "type": "tuple[]"
        },
        {
          "internalType": "bytes",
          "name": "_initialLiquidationSettings",
          "type": "bytes"
        }
      ],
      "stateMutability": "nonpayable",
      "type": "constructor"
    },
    {
      "anonymous": false,
      "inputs": [
        {
          "indexed": true,
          "internalType": "address",
          "name": "agentVault",
          "type": "address"
        },
        {
          "indexed": false,
          "internalType": "uint256",
          "name": "feeBIPS",
          "type": "uint256"
        },
        {
          "indexed": false,
          "internalType": "uint256",
          "name": "mintingClass1CollateralRatioBIPS",
          "type": "uint256"
        },
        {
          "indexed": false,
          "internalType": "uint256",
          "name": "mintingPoolCollateralRatioBIPS",
          "type": "uint256"
        },
        {
          "indexed": false,
          "internalType": "uint256",
          "name": "freeCollateralLots",
          "type": "uint256"
        }
      ],
      "name": "AgentAvailable",
      "type": "event"
    },
    {
      "anonymous": false,
      "inputs": [
        {
          "indexed": true,
          "internalType": "address",
          "name": "owner",
          "type": "address"
        },
        {
          "indexed": false,
          "internalType": "uint8",
          "name": "agentType",
          "type": "uint8"
        },
        {
          "indexed": false,
          "internalType": "address",
          "name": "agentVault",
          "type": "address"
        },
        {
          "indexed": false,
          "internalType": "string",
          "name": "underlyingAddress",
          "type": "string"
        },
        {
          "indexed": false,
          "internalType": "address",
          "name": "collateralPool",
          "type": "address"
        }
      ],
      "name": "AgentCreated",
      "type": "event"
    },
    {
      "anonymous": false,
      "inputs": [
        {
          "indexed": true,
          "internalType": "address",
          "name": "agentVault",
          "type": "address"
        },
        {
          "indexed": false,
          "internalType": "uint256",
          "name": "destroyAllowedAt",
          "type": "uint256"
        }
      ],
      "name": "AgentDestroyAnnounced",
      "type": "event"
    },
    {
      "anonymous": false,
      "inputs": [
        {
          "indexed": true,
          "internalType": "address",
          "name": "agentVault",
          "type": "address"
        }
      ],
      "name": "AgentDestroyed",
      "type": "event"
    },
    {
      "anonymous": false,
      "inputs": [
        {
          "indexed": true,
          "internalType": "address",
          "name": "agentVault",
          "type": "address"
        },
        {
          "indexed": false,
          "internalType": "uint256",
          "name": "timestamp",
          "type": "uint256"
        }
      ],
      "name": "AgentInCCB",
      "type": "event"
    },
    {
      "anonymous": false,
      "inputs": [
        {
          "indexed": false,
          "internalType": "address",
          "name": "agentVault",
          "type": "address"
        },
        {
          "indexed": false,
          "internalType": "string",
          "name": "name",
          "type": "string"
        },
        {
          "indexed": false,
          "internalType": "uint256",
          "name": "value",
          "type": "uint256"
        },
        {
          "indexed": false,
          "internalType": "uint256",
          "name": "validAt",
          "type": "uint256"
        }
      ],
      "name": "AgentSettingChangeAnnounced",
      "type": "event"
    },
    {
      "anonymous": false,
      "inputs": [
        {
          "indexed": false,
          "internalType": "address",
          "name": "agentVault",
          "type": "address"
        },
        {
          "indexed": false,
          "internalType": "string",
          "name": "name",
          "type": "string"
        },
        {
          "indexed": false,
          "internalType": "uint256",
          "name": "value",
          "type": "uint256"
        }
      ],
      "name": "AgentSettingChanged",
      "type": "event"
    },
    {
      "anonymous": false,
      "inputs": [
        {
          "indexed": true,
          "internalType": "address",
          "name": "agentVault",
          "type": "address"
        },
        {
          "indexed": false,
          "internalType": "uint256",
          "name": "exitAllowedAt",
          "type": "uint256"
        }
      ],
      "name": "AvailableAgentExitAnnounced",
      "type": "event"
    },
    {
      "anonymous": false,
      "inputs": [
        {
          "indexed": true,
          "internalType": "address",
          "name": "agentVault",
          "type": "address"
        }
      ],
      "name": "AvailableAgentExited",
      "type": "event"
    },
    {
      "anonymous": false,
      "inputs": [
        {
          "indexed": true,
          "internalType": "address",
          "name": "agentVault",
          "type": "address"
        },
        {
          "indexed": false,
          "internalType": "uint256",
          "name": "amountWei",
          "type": "uint256"
        },
        {
          "indexed": false,
          "internalType": "uint256",
          "name": "withdrawalAllowedAt",
          "type": "uint256"
        }
      ],
      "name": "Class1WithdrawalAnnounced",
      "type": "event"
    },
    {
      "anonymous": false,
      "inputs": [
        {
          "indexed": true,
          "internalType": "address",
          "name": "agentVault",
          "type": "address"
        },
        {
          "indexed": true,
          "internalType": "address",
          "name": "minter",
          "type": "address"
        },
        {
          "indexed": false,
          "internalType": "uint256",
          "name": "collateralReservationId",
          "type": "uint256"
        },
        {
          "indexed": false,
          "internalType": "uint256",
          "name": "reservedAmountUBA",
          "type": "uint256"
        }
      ],
      "name": "CollateralReservationDeleted",
      "type": "event"
    },
    {
      "anonymous": false,
      "inputs": [
        {
          "indexed": true,
          "internalType": "address",
          "name": "agentVault",
          "type": "address"
        },
        {
          "indexed": true,
          "internalType": "address",
          "name": "minter",
          "type": "address"
        },
        {
          "indexed": false,
          "internalType": "uint256",
          "name": "collateralReservationId",
          "type": "uint256"
        },
        {
          "indexed": false,
          "internalType": "uint256",
          "name": "valueUBA",
          "type": "uint256"
        },
        {
          "indexed": false,
          "internalType": "uint256",
          "name": "feeUBA",
          "type": "uint256"
        },
        {
          "indexed": false,
          "internalType": "uint256",
          "name": "lastUnderlyingBlock",
          "type": "uint256"
        },
        {
          "indexed": false,
          "internalType": "uint256",
          "name": "lastUnderlyingTimestamp",
          "type": "uint256"
        },
        {
          "indexed": false,
          "internalType": "string",
          "name": "paymentAddress",
          "type": "string"
        },
        {
          "indexed": false,
          "internalType": "bytes32",
          "name": "paymentReference",
          "type": "bytes32"
        }
      ],
      "name": "CollateralReserved",
      "type": "event"
    },
    {
      "anonymous": false,
      "inputs": [
        {
          "indexed": false,
          "internalType": "uint8",
          "name": "tokenClass",
          "type": "uint8"
        },
        {
          "indexed": false,
          "internalType": "address",
          "name": "tokenContract",
          "type": "address"
        },
        {
          "indexed": false,
          "internalType": "bool",
          "name": "directPricePair",
          "type": "bool"
        },
        {
          "indexed": false,
          "internalType": "string",
          "name": "assetFtsoSymbol",
          "type": "string"
        },
        {
          "indexed": false,
          "internalType": "string",
          "name": "tokenFtsoSymbol",
          "type": "string"
        },
        {
          "indexed": false,
          "internalType": "uint256",
          "name": "minCollateralRatioBIPS",
          "type": "uint256"
        },
        {
          "indexed": false,
          "internalType": "uint256",
          "name": "ccbMinCollateralRatioBIPS",
          "type": "uint256"
        },
        {
          "indexed": false,
          "internalType": "uint256",
          "name": "safetyMinCollateralRatioBIPS",
          "type": "uint256"
        }
      ],
      "name": "CollateralTokenAdded",
      "type": "event"
    },
    {
      "anonymous": false,
      "inputs": [
        {
          "indexed": false,
          "internalType": "uint8",
          "name": "tokenClass",
          "type": "uint8"
        },
        {
          "indexed": false,
          "internalType": "address",
          "name": "tokenContract",
          "type": "address"
        },
        {
          "indexed": false,
          "internalType": "uint256",
          "name": "validUntil",
          "type": "uint256"
        }
      ],
      "name": "CollateralTokenDeprecated",
      "type": "event"
    },
    {
      "anonymous": false,
      "inputs": [
        {
          "indexed": false,
          "internalType": "uint8",
          "name": "tokenClass",
          "type": "uint8"
        },
        {
          "indexed": false,
          "internalType": "address",
          "name": "tokenContract",
          "type": "address"
        },
        {
          "indexed": false,
          "internalType": "uint256",
          "name": "minCollateralRatioBIPS",
          "type": "uint256"
        },
        {
          "indexed": false,
          "internalType": "uint256",
          "name": "ccbMinCollateralRatioBIPS",
          "type": "uint256"
        },
        {
          "indexed": false,
          "internalType": "uint256",
          "name": "safetyMinCollateralRatioBIPS",
          "type": "uint256"
        }
      ],
      "name": "CollateralTokenRatiosChanged",
      "type": "event"
    },
    {
      "anonymous": false,
      "inputs": [
        {
          "indexed": false,
          "internalType": "string",
          "name": "name",
          "type": "string"
        },
        {
          "indexed": false,
          "internalType": "address",
          "name": "value",
          "type": "address"
        }
      ],
      "name": "ContractChanged",
      "type": "event"
    },
    {
      "anonymous": false,
      "inputs": [
        {
          "indexed": true,
          "internalType": "address",
          "name": "agentVault",
          "type": "address"
        },
        {
          "indexed": false,
          "internalType": "bytes32",
          "name": "transactionHash1",
          "type": "bytes32"
        },
        {
          "indexed": false,
          "internalType": "bytes32",
          "name": "transactionHash2",
          "type": "bytes32"
        }
      ],
      "name": "DuplicatePaymentConfirmed",
      "type": "event"
    },
    {
      "anonymous": false,
      "inputs": [
        {
          "indexed": true,
          "internalType": "address",
          "name": "agentVault",
          "type": "address"
        },
        {
          "indexed": false,
          "internalType": "uint256",
          "name": "dustUBA",
          "type": "uint256"
        }
      ],
      "name": "DustChanged",
      "type": "event"
    },
    {
      "anonymous": false,
      "inputs": [
        {
          "indexed": true,
          "internalType": "address",
          "name": "agentVault",
          "type": "address"
        },
        {
          "indexed": false,
          "internalType": "uint256",
          "name": "redemptionTicketId",
          "type": "uint256"
        },
        {
          "indexed": false,
          "internalType": "uint256",
          "name": "valueUBA",
          "type": "uint256"
        }
      ],
      "name": "DustConvertedToTicket",
      "type": "event"
    },
    {
      "anonymous": false,
      "inputs": [
        {
          "indexed": true,
          "internalType": "address",
          "name": "agentVault",
          "type": "address"
        },
        {
          "indexed": false,
          "internalType": "uint256",
          "name": "timestamp",
          "type": "uint256"
        }
      ],
      "name": "FullLiquidationStarted",
      "type": "event"
    },
    {
      "anonymous": false,
      "inputs": [
        {
          "indexed": true,
          "internalType": "address",
          "name": "agentVault",
          "type": "address"
        },
        {
          "indexed": false,
          "internalType": "bytes32",
          "name": "transactionHash",
          "type": "bytes32"
        }
      ],
      "name": "IllegalPaymentConfirmed",
      "type": "event"
    },
    {
      "anonymous": false,
      "inputs": [
        {
          "indexed": true,
          "internalType": "address",
          "name": "agentVault",
          "type": "address"
        }
      ],
      "name": "LiquidationEnded",
      "type": "event"
    },
    {
      "anonymous": false,
      "inputs": [
        {
          "indexed": true,
          "internalType": "address",
          "name": "agentVault",
          "type": "address"
        },
        {
          "indexed": true,
          "internalType": "address",
          "name": "liquidator",
          "type": "address"
        },
        {
          "indexed": false,
          "internalType": "uint256",
          "name": "valueUBA",
          "type": "uint256"
        }
      ],
      "name": "LiquidationPerformed",
      "type": "event"
    },
    {
      "anonymous": false,
      "inputs": [
        {
          "indexed": true,
          "internalType": "address",
          "name": "agentVault",
          "type": "address"
        },
        {
          "indexed": false,
          "internalType": "uint256",
          "name": "timestamp",
          "type": "uint256"
        }
      ],
      "name": "LiquidationStarted",
      "type": "event"
    },
    {
      "anonymous": false,
      "inputs": [
        {
          "indexed": true,
          "internalType": "address",
          "name": "agentVault",
          "type": "address"
        },
        {
          "indexed": false,
          "internalType": "uint256",
          "name": "collateralReservationId",
          "type": "uint256"
        },
        {
          "indexed": false,
          "internalType": "uint256",
          "name": "redemptionTicketId",
          "type": "uint256"
        },
        {
          "indexed": false,
          "internalType": "uint256",
          "name": "mintedAmountUBA",
          "type": "uint256"
        },
        {
          "indexed": false,
          "internalType": "uint256",
          "name": "agentFeeUBA",
          "type": "uint256"
        },
        {
          "indexed": false,
          "internalType": "uint256",
          "name": "poolFeeUBA",
          "type": "uint256"
        }
      ],
      "name": "MintingExecuted",
      "type": "event"
    },
    {
      "anonymous": false,
      "inputs": [
        {
          "indexed": true,
          "internalType": "address",
          "name": "agentVault",
          "type": "address"
        },
        {
          "indexed": true,
          "internalType": "address",
          "name": "minter",
          "type": "address"
        },
        {
          "indexed": false,
          "internalType": "uint256",
          "name": "collateralReservationId",
          "type": "uint256"
        },
        {
          "indexed": false,
          "internalType": "uint256",
          "name": "reservedAmountUBA",
          "type": "uint256"
        }
      ],
      "name": "MintingPaymentDefault",
      "type": "event"
    },
    {
      "anonymous": false,
      "inputs": [
        {
          "indexed": true,
          "internalType": "address",
          "name": "agentVault",
          "type": "address"
        },
        {
          "indexed": false,
          "internalType": "uint256",
          "name": "amountWei",
          "type": "uint256"
        },
        {
          "indexed": false,
          "internalType": "uint256",
          "name": "withdrawalAllowedAt",
          "type": "uint256"
        }
      ],
      "name": "PoolTokenRedemptionAnnounced",
      "type": "event"
    },
    {
      "anonymous": false,
      "inputs": [
        {
          "indexed": true,
          "internalType": "address",
          "name": "agentVault",
          "type": "address"
        },
        {
          "indexed": true,
          "internalType": "address",
          "name": "redeemer",
          "type": "address"
        },
        {
          "indexed": false,
          "internalType": "uint256",
          "name": "redemptionAmountUBA",
          "type": "uint256"
        },
        {
          "indexed": false,
          "internalType": "uint256",
          "name": "redeemedClass1CollateralWei",
          "type": "uint256"
        },
        {
          "indexed": false,
          "internalType": "uint256",
          "name": "redeemedPoolCollateralWei",
          "type": "uint256"
        },
        {
          "indexed": false,
          "internalType": "uint64",
          "name": "requestId",
          "type": "uint64"
        }
      ],
      "name": "RedemptionDefault",
      "type": "event"
    },
    {
      "anonymous": false,
      "inputs": [
        {
          "indexed": true,
          "internalType": "address",
          "name": "agentVault",
          "type": "address"
        },
        {
          "indexed": false,
          "internalType": "uint64",
          "name": "requestId",
          "type": "uint64"
        }
      ],
      "name": "RedemptionFinished",
      "type": "event"
    },
    {
      "anonymous": false,
      "inputs": [
        {
          "indexed": true,
          "internalType": "address",
          "name": "agentVault",
          "type": "address"
        },
        {
          "indexed": true,
          "internalType": "address",
          "name": "redeemer",
          "type": "address"
        },
        {
          "indexed": false,
          "internalType": "bytes32",
          "name": "transactionHash",
          "type": "bytes32"
        },
        {
          "indexed": false,
          "internalType": "uint256",
          "name": "redemptionAmountUBA",
          "type": "uint256"
        },
        {
          "indexed": false,
          "internalType": "int256",
          "name": "underlyingBalanceChangeUBA",
          "type": "int256"
        },
        {
          "indexed": false,
          "internalType": "uint64",
          "name": "requestId",
          "type": "uint64"
        }
      ],
      "name": "RedemptionPaymentBlocked",
      "type": "event"
    },
    {
      "anonymous": false,
      "inputs": [
        {
          "indexed": true,
          "internalType": "address",
          "name": "agentVault",
          "type": "address"
        },
        {
          "indexed": true,
          "internalType": "address",
          "name": "redeemer",
          "type": "address"
        },
        {
          "indexed": false,
          "internalType": "bytes32",
          "name": "transactionHash",
          "type": "bytes32"
        },
        {
          "indexed": false,
          "internalType": "int256",
          "name": "underlyingBalanceChangeUBA",
          "type": "int256"
        },
        {
          "indexed": false,
          "internalType": "uint64",
          "name": "requestId",
          "type": "uint64"
        },
        {
          "indexed": false,
          "internalType": "string",
          "name": "failureReason",
          "type": "string"
        }
      ],
      "name": "RedemptionPaymentFailed",
      "type": "event"
    },
    {
      "anonymous": false,
      "inputs": [
        {
          "indexed": true,
          "internalType": "address",
          "name": "agentVault",
          "type": "address"
        },
        {
          "indexed": true,
          "internalType": "address",
          "name": "redeemer",
          "type": "address"
        },
        {
          "indexed": false,
          "internalType": "bytes32",
          "name": "transactionHash",
          "type": "bytes32"
        },
        {
          "indexed": false,
          "internalType": "uint256",
          "name": "redemptionAmountUBA",
          "type": "uint256"
        },
        {
          "indexed": false,
          "internalType": "int256",
          "name": "underlyingBalanceChangeUBA",
          "type": "int256"
        },
        {
          "indexed": false,
          "internalType": "uint64",
          "name": "requestId",
          "type": "uint64"
        }
      ],
      "name": "RedemptionPerformed",
      "type": "event"
    },
    {
      "anonymous": false,
      "inputs": [
        {
          "indexed": true,
          "internalType": "address",
          "name": "redeemer",
          "type": "address"
        },
        {
          "indexed": false,
          "internalType": "uint256",
          "name": "remainingLots",
          "type": "uint256"
        }
      ],
      "name": "RedemptionRequestIncomplete",
      "type": "event"
    },
    {
      "anonymous": false,
      "inputs": [
        {
          "indexed": true,
          "internalType": "address",
          "name": "agentVault",
          "type": "address"
        },
        {
          "indexed": false,
          "internalType": "uint256",
          "name": "requestId",
          "type": "uint256"
        },
        {
          "indexed": false,
          "internalType": "string",
          "name": "paymentAddress",
          "type": "string"
        },
        {
          "indexed": false,
          "internalType": "uint256",
          "name": "valueUBA",
          "type": "uint256"
        },
        {
          "indexed": false,
          "internalType": "uint256",
          "name": "feeUBA",
          "type": "uint256"
        },
        {
          "indexed": false,
          "internalType": "uint256",
          "name": "lastUnderlyingBlock",
          "type": "uint256"
        },
        {
          "indexed": false,
          "internalType": "uint256",
          "name": "lastUnderlyingTimestamp",
          "type": "uint256"
        },
        {
          "indexed": false,
          "internalType": "bytes32",
          "name": "paymentReference",
          "type": "bytes32"
        }
      ],
      "name": "RedemptionRequested",
      "type": "event"
    },
    {
      "anonymous": false,
      "inputs": [
        {
          "indexed": true,
          "internalType": "address",
          "name": "agentVault",
          "type": "address"
        },
        {
          "indexed": false,
          "internalType": "uint256",
          "name": "valueUBA",
          "type": "uint256"
        }
      ],
      "name": "SelfClose",
      "type": "event"
    },
    {
      "anonymous": false,
      "inputs": [
        {
          "indexed": false,
          "internalType": "string",
          "name": "name",
          "type": "string"
        },
        {
          "indexed": false,
          "internalType": "uint256[]",
          "name": "value",
          "type": "uint256[]"
        }
      ],
      "name": "SettingArrayChanged",
      "type": "event"
    },
    {
      "anonymous": false,
      "inputs": [
        {
          "indexed": false,
          "internalType": "string",
          "name": "name",
          "type": "string"
        },
        {
          "indexed": false,
          "internalType": "uint256",
          "name": "value",
          "type": "uint256"
        }
      ],
      "name": "SettingChanged",
      "type": "event"
    },
    {
      "anonymous": false,
      "inputs": [
        {
          "indexed": true,
          "internalType": "address",
          "name": "agentVault",
          "type": "address"
        },
        {
          "indexed": false,
          "internalType": "uint256",
          "name": "balance",
          "type": "uint256"
        },
        {
          "indexed": false,
          "internalType": "uint256",
          "name": "requiredBalance",
          "type": "uint256"
        }
      ],
      "name": "UnderlyingBalanceTooLow",
      "type": "event"
    },
    {
      "anonymous": false,
      "inputs": [
        {
          "indexed": false,
          "internalType": "address",
          "name": "agentVault",
          "type": "address"
        },
        {
          "indexed": false,
          "internalType": "uint256",
          "name": "freeBalanceChangeUBA",
          "type": "uint256"
        }
      ],
      "name": "UnderlyingBalanceToppedUp",
      "type": "event"
    },
    {
      "anonymous": false,
      "inputs": [
        {
          "indexed": false,
          "internalType": "address",
          "name": "agentVault",
          "type": "address"
        },
        {
          "indexed": false,
          "internalType": "uint64",
          "name": "announcementId",
          "type": "uint64"
        },
        {
          "indexed": false,
          "internalType": "bytes32",
          "name": "paymentReference",
          "type": "bytes32"
        }
      ],
      "name": "UnderlyingWithdrawalAnnounced",
      "type": "event"
    },
    {
      "anonymous": false,
      "inputs": [
        {
          "indexed": false,
          "internalType": "address",
          "name": "agentVault",
          "type": "address"
        },
        {
          "indexed": false,
          "internalType": "uint64",
          "name": "announcementId",
          "type": "uint64"
        }
      ],
      "name": "UnderlyingWithdrawalCancelled",
      "type": "event"
    },
    {
      "anonymous": false,
      "inputs": [
        {
          "indexed": false,
          "internalType": "address",
          "name": "agentVault",
          "type": "address"
        },
        {
          "indexed": false,
          "internalType": "int256",
          "name": "spentUBA",
          "type": "int256"
        },
        {
          "indexed": false,
          "internalType": "bytes32",
          "name": "transactionHash",
          "type": "bytes32"
        },
        {
          "indexed": false,
          "internalType": "uint64",
          "name": "announcementId",
          "type": "uint64"
        }
      ],
      "name": "UnderlyingWithdrawalConfirmed",
      "type": "event"
    },
    {
      "inputs": [
        {
          "components": [
            {
              "internalType": "enum IAssetManager.CollateralTokenClass",
              "name": "tokenClass",
              "type": "uint8"
            },
            {
              "internalType": "contract IERC20",
              "name": "token",
              "type": "address"
            },
            {
              "internalType": "uint256",
              "name": "decimals",
              "type": "uint256"
            },
            {
              "internalType": "uint256",
              "name": "validUntil",
              "type": "uint256"
            },
            {
              "internalType": "bool",
              "name": "directPricePair",
              "type": "bool"
            },
            {
              "internalType": "string",
              "name": "assetFtsoSymbol",
              "type": "string"
            },
            {
              "internalType": "string",
              "name": "tokenFtsoSymbol",
              "type": "string"
            },
            {
              "internalType": "uint256",
              "name": "minCollateralRatioBIPS",
              "type": "uint256"
            },
            {
              "internalType": "uint256",
              "name": "ccbMinCollateralRatioBIPS",
              "type": "uint256"
            },
            {
              "internalType": "uint256",
              "name": "safetyMinCollateralRatioBIPS",
              "type": "uint256"
            }
          ],
          "internalType": "struct IAssetManager.CollateralTokenInfo",
          "name": "_data",
          "type": "tuple"
        }
      ],
      "name": "addCollateralToken",
      "outputs": [],
      "stateMutability": "nonpayable",
      "type": "function"
    },
    {
      "inputs": [
        {
          "internalType": "address",
          "name": "_agentVault",
          "type": "address"
        },
        {
          "internalType": "uint256",
          "name": "_valueNATWei",
          "type": "uint256"
        }
      ],
      "name": "announceAgentPoolTokenRedemption",
      "outputs": [],
      "stateMutability": "nonpayable",
      "type": "function"
    },
    {
      "inputs": [
        {
          "internalType": "address",
          "name": "_agentVault",
          "type": "address"
        },
        {
          "internalType": "string",
          "name": "_name",
          "type": "string"
        },
        {
          "internalType": "uint256",
          "name": "_value",
          "type": "uint256"
        }
      ],
      "name": "announceAgentSettingUpdate",
      "outputs": [],
      "stateMutability": "nonpayable",
      "type": "function"
    },
    {
      "inputs": [
        {
          "internalType": "address",
          "name": "_agentVault",
          "type": "address"
        },
        {
          "internalType": "uint256",
          "name": "_valueNATWei",
          "type": "uint256"
        }
      ],
      "name": "announceClass1CollateralWithdrawal",
      "outputs": [],
      "stateMutability": "nonpayable",
      "type": "function"
    },
    {
      "inputs": [
        {
          "internalType": "address",
          "name": "_agentVault",
          "type": "address"
        }
      ],
      "name": "announceDestroyAgent",
      "outputs": [],
      "stateMutability": "nonpayable",
      "type": "function"
    },
    {
      "inputs": [
        {
          "internalType": "address",
          "name": "_agentVault",
          "type": "address"
        }
      ],
      "name": "announceExitAvailableAgentList",
      "outputs": [],
      "stateMutability": "nonpayable",
      "type": "function"
    },
    {
      "inputs": [
        {
          "internalType": "address",
          "name": "_agentVault",
          "type": "address"
        }
      ],
      "name": "announceUnderlyingWithdrawal",
      "outputs": [],
      "stateMutability": "nonpayable",
      "type": "function"
    },
    {
      "inputs": [],
      "name": "assetManagerController",
      "outputs": [
        {
          "internalType": "address",
          "name": "",
          "type": "address"
        }
      ],
      "stateMutability": "view",
      "type": "function"
    },
    {
      "inputs": [],
      "name": "assetPriceNatWei",
      "outputs": [
        {
          "internalType": "uint256",
          "name": "_multiplier",
          "type": "uint256"
        },
        {
          "internalType": "uint256",
          "name": "_divisor",
          "type": "uint256"
        }
      ],
      "stateMutability": "view",
      "type": "function"
    },
    {
      "inputs": [
        {
          "internalType": "bool",
          "name": "attached",
          "type": "bool"
        }
      ],
      "name": "attachController",
      "outputs": [],
      "stateMutability": "nonpayable",
      "type": "function"
    },
    {
      "inputs": [
        {
          "internalType": "address",
          "name": "_agentVault",
          "type": "address"
        }
      ],
      "name": "buybackAgentCollateral",
      "outputs": [],
      "stateMutability": "payable",
      "type": "function"
    },
    {
      "inputs": [
        {
          "internalType": "address",
          "name": "_agentVault",
          "type": "address"
        }
      ],
      "name": "cancelUnderlyingWithdrawal",
      "outputs": [],
      "stateMutability": "nonpayable",
      "type": "function"
    },
    {
      "inputs": [
        {
          "internalType": "contract IERC20",
          "name": "_token",
          "type": "address"
        }
      ],
      "name": "collateralDeposited",
      "outputs": [],
      "stateMutability": "nonpayable",
      "type": "function"
    },
    {
      "inputs": [
        {
          "internalType": "uint256",
          "name": "_lots",
          "type": "uint256"
        }
      ],
      "name": "collateralReservationFee",
      "outputs": [
        {
          "internalType": "uint256",
          "name": "_reservationFeeNATWei",
          "type": "uint256"
        }
      ],
      "stateMutability": "view",
      "type": "function"
    },
    {
      "inputs": [
        {
          "components": [
            {
              "internalType": "uint256",
              "name": "stateConnectorRound",
              "type": "uint256"
            },
            {
              "internalType": "bytes32[]",
              "name": "merkleProof",
              "type": "bytes32[]"
            },
            {
              "internalType": "uint64",
              "name": "blockNumber",
              "type": "uint64"
            },
            {
              "internalType": "uint64",
              "name": "blockTimestamp",
              "type": "uint64"
            },
            {
              "internalType": "bytes32",
              "name": "transactionHash",
              "type": "bytes32"
            },
            {
              "internalType": "uint8",
              "name": "inUtxo",
              "type": "uint8"
            },
            {
              "internalType": "uint8",
              "name": "utxo",
              "type": "uint8"
            },
            {
              "internalType": "bytes32",
              "name": "sourceAddressHash",
              "type": "bytes32"
            },
            {
              "internalType": "bytes32",
              "name": "receivingAddressHash",
              "type": "bytes32"
            },
            {
              "internalType": "int256",
              "name": "spentAmount",
              "type": "int256"
            },
            {
              "internalType": "int256",
              "name": "receivedAmount",
              "type": "int256"
            },
            {
              "internalType": "bytes32",
              "name": "paymentReference",
              "type": "bytes32"
            },
            {
              "internalType": "bool",
              "name": "oneToOne",
              "type": "bool"
            },
            {
              "internalType": "uint8",
              "name": "status",
              "type": "uint8"
            }
          ],
          "internalType": "struct IAttestationClient.Payment",
          "name": "_payment",
          "type": "tuple"
        },
        {
          "internalType": "uint256",
          "name": "_redemptionRequestId",
          "type": "uint256"
        }
      ],
      "name": "confirmRedemptionPayment",
      "outputs": [],
      "stateMutability": "nonpayable",
      "type": "function"
    },
    {
      "inputs": [
        {
          "components": [
            {
              "internalType": "uint256",
              "name": "stateConnectorRound",
              "type": "uint256"
            },
            {
              "internalType": "bytes32[]",
              "name": "merkleProof",
              "type": "bytes32[]"
            },
            {
              "internalType": "uint64",
              "name": "blockNumber",
              "type": "uint64"
            },
            {
              "internalType": "uint64",
              "name": "blockTimestamp",
              "type": "uint64"
            },
            {
              "internalType": "bytes32",
              "name": "transactionHash",
              "type": "bytes32"
            },
            {
              "internalType": "uint8",
              "name": "inUtxo",
              "type": "uint8"
            },
            {
              "internalType": "uint8",
              "name": "utxo",
              "type": "uint8"
            },
            {
              "internalType": "bytes32",
              "name": "sourceAddressHash",
              "type": "bytes32"
            },
            {
              "internalType": "bytes32",
              "name": "receivingAddressHash",
              "type": "bytes32"
            },
            {
              "internalType": "int256",
              "name": "spentAmount",
              "type": "int256"
            },
            {
              "internalType": "int256",
              "name": "receivedAmount",
              "type": "int256"
            },
            {
              "internalType": "bytes32",
              "name": "paymentReference",
              "type": "bytes32"
            },
            {
              "internalType": "bool",
              "name": "oneToOne",
              "type": "bool"
            },
            {
              "internalType": "uint8",
              "name": "status",
              "type": "uint8"
            }
          ],
          "internalType": "struct IAttestationClient.Payment",
          "name": "_payment",
          "type": "tuple"
        },
        {
          "internalType": "address",
          "name": "_agentVault",
          "type": "address"
        }
      ],
      "name": "confirmTopupPayment",
      "outputs": [],
      "stateMutability": "nonpayable",
      "type": "function"
    },
    {
      "inputs": [
        {
          "components": [
            {
              "internalType": "uint256",
              "name": "stateConnectorRound",
              "type": "uint256"
            },
            {
              "internalType": "bytes32[]",
              "name": "merkleProof",
              "type": "bytes32[]"
            },
            {
              "internalType": "uint64",
              "name": "blockNumber",
              "type": "uint64"
            },
            {
              "internalType": "uint64",
              "name": "blockTimestamp",
              "type": "uint64"
            },
            {
              "internalType": "bytes32",
              "name": "transactionHash",
              "type": "bytes32"
            },
            {
              "internalType": "uint8",
              "name": "inUtxo",
              "type": "uint8"
            },
            {
              "internalType": "uint8",
              "name": "utxo",
              "type": "uint8"
            },
            {
              "internalType": "bytes32",
              "name": "sourceAddressHash",
              "type": "bytes32"
            },
            {
              "internalType": "bytes32",
              "name": "receivingAddressHash",
              "type": "bytes32"
            },
            {
              "internalType": "int256",
              "name": "spentAmount",
              "type": "int256"
            },
            {
              "internalType": "int256",
              "name": "receivedAmount",
              "type": "int256"
            },
            {
              "internalType": "bytes32",
              "name": "paymentReference",
              "type": "bytes32"
            },
            {
              "internalType": "bool",
              "name": "oneToOne",
              "type": "bool"
            },
            {
              "internalType": "uint8",
              "name": "status",
              "type": "uint8"
            }
          ],
          "internalType": "struct IAttestationClient.Payment",
          "name": "_payment",
          "type": "tuple"
        },
        {
          "internalType": "address",
          "name": "_agentVault",
          "type": "address"
        }
      ],
      "name": "confirmUnderlyingWithdrawal",
      "outputs": [],
      "stateMutability": "nonpayable",
      "type": "function"
    },
    {
      "inputs": [],
      "name": "controllerAttached",
      "outputs": [
        {
          "internalType": "bool",
          "name": "",
          "type": "bool"
        }
      ],
      "stateMutability": "view",
      "type": "function"
    },
    {
      "inputs": [
        {
          "internalType": "address",
          "name": "_agentVault",
          "type": "address"
        }
      ],
      "name": "convertDustToTicket",
      "outputs": [],
      "stateMutability": "nonpayable",
      "type": "function"
    },
    {
      "inputs": [
        {
          "components": [
            {
              "internalType": "string",
              "name": "underlyingAddressString",
              "type": "string"
            },
            {
              "internalType": "contract IERC20",
              "name": "class1CollateralToken",
              "type": "address"
            },
            {
              "internalType": "uint256",
              "name": "feeBIPS",
              "type": "uint256"
            },
            {
              "internalType": "uint256",
              "name": "poolFeeShareBIPS",
              "type": "uint256"
            },
            {
              "internalType": "uint256",
              "name": "mintingClass1CollateralRatioBIPS",
              "type": "uint256"
            },
            {
              "internalType": "uint256",
              "name": "mintingPoolCollateralRatioBIPS",
              "type": "uint256"
            },
            {
              "internalType": "uint256",
              "name": "buyFAssetByAgentFactorBIPS",
              "type": "uint256"
            },
            {
              "internalType": "uint256",
              "name": "poolExitCollateralRatioBIPS",
              "type": "uint256"
            },
            {
              "internalType": "uint256",
              "name": "poolTopupCollateralRatioBIPS",
              "type": "uint256"
            },
            {
              "internalType": "uint256",
              "name": "poolTopupTokenPriceFactorBIPS",
              "type": "uint256"
            }
          ],
          "internalType": "struct IAssetManager.InitialAgentSettings",
          "name": "_settings",
          "type": "tuple"
        }
      ],
      "name": "createAgent",
      "outputs": [],
      "stateMutability": "nonpayable",
      "type": "function"
    },
    {
      "inputs": [],
      "name": "currentUnderlyingBlock",
      "outputs": [
        {
          "internalType": "uint256",
          "name": "_blockNumber",
          "type": "uint256"
        },
        {
          "internalType": "uint256",
          "name": "_blockTimestamp",
          "type": "uint256"
        }
      ],
      "stateMutability": "view",
      "type": "function"
    },
    {
      "inputs": [
        {
          "internalType": "enum IAssetManager.CollateralTokenClass",
          "name": "_tokenClass",
          "type": "uint8"
        },
        {
          "internalType": "contract IERC20",
          "name": "_token",
          "type": "address"
        },
        {
          "internalType": "uint256",
          "name": "_invalidationTimeSec",
          "type": "uint256"
        }
      ],
      "name": "deprecateCollateralToken",
      "outputs": [],
      "stateMutability": "nonpayable",
      "type": "function"
    },
    {
      "inputs": [
        {
          "internalType": "address",
          "name": "_agentVault",
          "type": "address"
        },
        {
          "internalType": "address payable",
          "name": "_recipient",
          "type": "address"
        }
      ],
      "name": "destroyAgent",
      "outputs": [],
      "stateMutability": "nonpayable",
      "type": "function"
    },
    {
      "inputs": [
        {
          "components": [
            {
              "internalType": "uint256",
              "name": "stateConnectorRound",
              "type": "uint256"
            },
            {
              "internalType": "bytes32[]",
              "name": "merkleProof",
              "type": "bytes32[]"
            },
            {
              "internalType": "uint64",
              "name": "blockNumber",
              "type": "uint64"
            },
            {
              "internalType": "uint64",
              "name": "blockTimestamp",
              "type": "uint64"
            },
            {
              "internalType": "bytes32",
              "name": "transactionHash",
              "type": "bytes32"
            },
            {
              "internalType": "uint8",
              "name": "inUtxo",
              "type": "uint8"
            },
            {
              "internalType": "bytes32",
              "name": "sourceAddressHash",
              "type": "bytes32"
            },
            {
              "internalType": "int256",
              "name": "spentAmount",
              "type": "int256"
            },
            {
              "internalType": "bytes32",
              "name": "paymentReference",
              "type": "bytes32"
            }
          ],
          "internalType": "struct IAttestationClient.BalanceDecreasingTransaction",
          "name": "_payment1",
          "type": "tuple"
        },
        {
          "components": [
            {
              "internalType": "uint256",
              "name": "stateConnectorRound",
              "type": "uint256"
            },
            {
              "internalType": "bytes32[]",
              "name": "merkleProof",
              "type": "bytes32[]"
            },
            {
              "internalType": "uint64",
              "name": "blockNumber",
              "type": "uint64"
            },
            {
              "internalType": "uint64",
              "name": "blockTimestamp",
              "type": "uint64"
            },
            {
              "internalType": "bytes32",
              "name": "transactionHash",
              "type": "bytes32"
            },
            {
              "internalType": "uint8",
              "name": "inUtxo",
              "type": "uint8"
            },
            {
              "internalType": "bytes32",
              "name": "sourceAddressHash",
              "type": "bytes32"
            },
            {
              "internalType": "int256",
              "name": "spentAmount",
              "type": "int256"
            },
            {
              "internalType": "bytes32",
              "name": "paymentReference",
              "type": "bytes32"
            }
          ],
          "internalType": "struct IAttestationClient.BalanceDecreasingTransaction",
          "name": "_payment2",
          "type": "tuple"
        },
        {
          "internalType": "address",
          "name": "_agentVault",
          "type": "address"
        }
      ],
      "name": "doublePaymentChallenge",
      "outputs": [],
      "stateMutability": "nonpayable",
      "type": "function"
    },
    {
      "inputs": [
        {
          "internalType": "address",
          "name": "_agentVault",
          "type": "address"
        }
      ],
      "name": "endLiquidation",
      "outputs": [],
      "stateMutability": "nonpayable",
      "type": "function"
    },
    {
      "inputs": [
        {
          "internalType": "address",
          "name": "_agentVault",
          "type": "address"
        },
        {
          "internalType": "string",
          "name": "_name",
          "type": "string"
        }
      ],
      "name": "executeAgentSettingUpdate",
      "outputs": [],
      "stateMutability": "nonpayable",
      "type": "function"
    },
    {
      "inputs": [
        {
          "components": [
            {
              "internalType": "uint256",
              "name": "stateConnectorRound",
              "type": "uint256"
            },
            {
              "internalType": "bytes32[]",
              "name": "merkleProof",
              "type": "bytes32[]"
            },
            {
              "internalType": "uint64",
              "name": "blockNumber",
              "type": "uint64"
            },
            {
              "internalType": "uint64",
              "name": "blockTimestamp",
              "type": "uint64"
            },
            {
              "internalType": "bytes32",
              "name": "transactionHash",
              "type": "bytes32"
            },
            {
              "internalType": "uint8",
              "name": "inUtxo",
              "type": "uint8"
            },
            {
              "internalType": "uint8",
              "name": "utxo",
              "type": "uint8"
            },
            {
              "internalType": "bytes32",
              "name": "sourceAddressHash",
              "type": "bytes32"
            },
            {
              "internalType": "bytes32",
              "name": "receivingAddressHash",
              "type": "bytes32"
            },
            {
              "internalType": "int256",
              "name": "spentAmount",
              "type": "int256"
            },
            {
              "internalType": "int256",
              "name": "receivedAmount",
              "type": "int256"
            },
            {
              "internalType": "bytes32",
              "name": "paymentReference",
              "type": "bytes32"
            },
            {
              "internalType": "bool",
              "name": "oneToOne",
              "type": "bool"
            },
            {
              "internalType": "uint8",
              "name": "status",
              "type": "uint8"
            }
          ],
          "internalType": "struct IAttestationClient.Payment",
          "name": "_payment",
          "type": "tuple"
        },
        {
          "internalType": "uint256",
          "name": "_collateralReservationId",
          "type": "uint256"
        }
      ],
      "name": "executeMinting",
      "outputs": [],
      "stateMutability": "nonpayable",
      "type": "function"
    },
    {
      "inputs": [
        {
          "internalType": "address",
          "name": "_agentVault",
          "type": "address"
        }
      ],
      "name": "exitAvailableAgentList",
      "outputs": [],
      "stateMutability": "nonpayable",
      "type": "function"
    },
    {
      "inputs": [],
      "name": "fAsset",
      "outputs": [
        {
          "internalType": "contract IERC20",
          "name": "",
          "type": "address"
        }
      ],
      "stateMutability": "view",
      "type": "function"
    },
    {
      "inputs": [
        {
          "components": [
            {
              "internalType": "uint256",
              "name": "stateConnectorRound",
              "type": "uint256"
            },
            {
              "internalType": "bytes32[]",
              "name": "merkleProof",
              "type": "bytes32[]"
            },
            {
              "internalType": "uint64",
              "name": "blockNumber",
              "type": "uint64"
            },
            {
              "internalType": "uint64",
              "name": "blockTimestamp",
              "type": "uint64"
            },
            {
              "internalType": "uint8",
              "name": "numberOfConfirmations",
              "type": "uint8"
            },
            {
              "internalType": "uint64",
              "name": "averageBlockProductionTimeMs",
              "type": "uint64"
            },
            {
              "internalType": "uint64",
              "name": "lowestQueryWindowBlockNumber",
              "type": "uint64"
            },
            {
              "internalType": "uint64",
              "name": "lowestQueryWindowBlockTimestamp",
              "type": "uint64"
            }
          ],
          "internalType": "struct IAttestationClient.ConfirmedBlockHeightExists",
          "name": "_proof",
          "type": "tuple"
        },
        {
          "internalType": "uint256",
          "name": "_redemptionRequestId",
          "type": "uint256"
        }
      ],
      "name": "finishRedemptionWithoutPayment",
      "outputs": [],
      "stateMutability": "nonpayable",
      "type": "function"
    },
    {
      "inputs": [
        {
          "components": [
            {
              "internalType": "uint256",
              "name": "stateConnectorRound",
              "type": "uint256"
            },
            {
              "internalType": "bytes32[]",
              "name": "merkleProof",
              "type": "bytes32[]"
            },
            {
              "internalType": "uint64",
              "name": "blockNumber",
              "type": "uint64"
            },
            {
              "internalType": "uint64",
              "name": "blockTimestamp",
              "type": "uint64"
            },
            {
              "internalType": "bytes32",
              "name": "transactionHash",
              "type": "bytes32"
            },
            {
              "internalType": "uint8",
              "name": "inUtxo",
              "type": "uint8"
            },
            {
              "internalType": "bytes32",
              "name": "sourceAddressHash",
              "type": "bytes32"
            },
            {
              "internalType": "int256",
              "name": "spentAmount",
              "type": "int256"
            },
            {
              "internalType": "bytes32",
              "name": "paymentReference",
              "type": "bytes32"
            }
          ],
          "internalType": "struct IAttestationClient.BalanceDecreasingTransaction[]",
          "name": "_payments",
          "type": "tuple[]"
        },
        {
          "internalType": "address",
          "name": "_agentVault",
          "type": "address"
        }
      ],
      "name": "freeBalanceNegativeChallenge",
      "outputs": [],
      "stateMutability": "nonpayable",
      "type": "function"
    },
    {
      "inputs": [
        {
          "internalType": "address",
          "name": "_agentVault",
          "type": "address"
        }
      ],
      "name": "getAgentInfo",
      "outputs": [
        {
          "components": [
            {
              "internalType": "enum FullAgentInfo.AgentStatusInfo",
              "name": "status",
              "type": "uint8"
            },
            {
              "internalType": "address",
              "name": "ownerColdWalletAddress",
              "type": "address"
            },
            {
              "internalType": "address",
              "name": "ownerHotWalletAddress",
              "type": "address"
            },
            {
              "internalType": "address",
              "name": "collateralPool",
              "type": "address"
            },
            {
              "internalType": "string",
              "name": "underlyingAddressString",
              "type": "string"
            },
            {
              "internalType": "bool",
              "name": "publiclyAvailable",
              "type": "bool"
            },
            {
              "internalType": "uint256",
              "name": "feeBIPS",
              "type": "uint256"
            },
            {
              "internalType": "uint256",
              "name": "poolFeeShareBIPS",
              "type": "uint256"
            },
            {
              "internalType": "contract IERC20",
              "name": "class1CollateralToken",
              "type": "address"
            },
            {
              "internalType": "uint256",
              "name": "mintingClass1CollateralRatioBIPS",
              "type": "uint256"
            },
            {
              "internalType": "uint256",
              "name": "mintingPoolCollateralRatioBIPS",
              "type": "uint256"
            },
            {
              "internalType": "uint256",
              "name": "freeCollateralLots",
              "type": "uint256"
            },
            {
              "internalType": "uint256",
              "name": "totalClass1CollateralWei",
              "type": "uint256"
            },
            {
              "internalType": "uint256",
              "name": "freeClass1CollateralWei",
              "type": "uint256"
            },
            {
              "internalType": "uint256",
              "name": "class1CollateralRatioBIPS",
              "type": "uint256"
            },
            {
              "internalType": "uint256",
              "name": "totalPoolCollateralNATWei",
              "type": "uint256"
            },
            {
              "internalType": "uint256",
              "name": "freePoolCollateralNATWei",
              "type": "uint256"
            },
            {
              "internalType": "uint256",
              "name": "poolCollateralRatioBIPS",
              "type": "uint256"
            },
            {
              "internalType": "uint256",
              "name": "totalAgentPoolTokensWei",
              "type": "uint256"
            },
            {
              "internalType": "uint256",
              "name": "announcedClass1WithdrawalWei",
              "type": "uint256"
            },
            {
              "internalType": "uint256",
              "name": "announcedPoolTokensWithdrawalWei",
              "type": "uint256"
            },
            {
              "internalType": "uint256",
              "name": "freeAgentPoolTokensWei",
              "type": "uint256"
            },
            {
              "internalType": "uint256",
              "name": "mintedUBA",
              "type": "uint256"
            },
            {
              "internalType": "uint256",
              "name": "reservedUBA",
              "type": "uint256"
            },
            {
              "internalType": "uint256",
              "name": "redeemingUBA",
              "type": "uint256"
            },
            {
              "internalType": "uint256",
              "name": "poolRedeemingUBA",
              "type": "uint256"
            },
            {
              "internalType": "uint256",
              "name": "underlyingRedeemingUBA",
              "type": "uint256"
            },
            {
              "internalType": "uint256",
              "name": "dustUBA",
              "type": "uint256"
            },
            {
              "internalType": "uint256",
              "name": "ccbStartTimestamp",
              "type": "uint256"
            },
            {
              "internalType": "uint256",
              "name": "liquidationStartTimestamp",
              "type": "uint256"
            },
            {
              "internalType": "uint256",
              "name": "underlyingBalanceUBA",
              "type": "uint256"
            },
            {
              "internalType": "uint256",
              "name": "freeUnderlyingBalanceUBA",
              "type": "uint256"
            },
            {
              "internalType": "uint256",
              "name": "requiredUnderlyingBalanceUBA",
              "type": "uint256"
            },
            {
              "internalType": "uint256",
              "name": "announcedUnderlyingWithdrawalId",
              "type": "uint256"
            },
            {
              "internalType": "uint256",
              "name": "buyFAssetByAgentFactorBIPS",
              "type": "uint256"
            },
            {
              "internalType": "uint256",
              "name": "poolExitCollateralRatioBIPS",
              "type": "uint256"
            },
            {
              "internalType": "uint256",
              "name": "poolTopupCollateralRatioBIPS",
              "type": "uint256"
            },
            {
              "internalType": "uint256",
              "name": "poolTopupTokenPriceFactorBIPS",
              "type": "uint256"
            }
          ],
          "internalType": "struct FullAgentInfo.AgentInfo",
          "name": "",
          "type": "tuple"
        }
      ],
      "stateMutability": "view",
      "type": "function"
    },
    {
      "inputs": [
        {
          "internalType": "address",
          "name": "_agentVault",
          "type": "address"
        }
      ],
      "name": "getAgentVaultOwner",
      "outputs": [
        {
          "internalType": "address",
          "name": "_ownerColdAddress",
          "type": "address"
        },
        {
          "internalType": "address",
          "name": "_ownerHotAddress",
          "type": "address"
        }
      ],
      "stateMutability": "view",
      "type": "function"
    },
    {
      "inputs": [
        {
          "internalType": "uint256",
          "name": "_start",
          "type": "uint256"
        },
        {
          "internalType": "uint256",
          "name": "_end",
          "type": "uint256"
        }
      ],
      "name": "getAllAgents",
      "outputs": [
        {
          "internalType": "address[]",
          "name": "_agents",
          "type": "address[]"
        },
        {
          "internalType": "uint256",
          "name": "_totalLength",
          "type": "uint256"
        }
      ],
      "stateMutability": "view",
      "type": "function"
    },
    {
      "inputs": [
        {
          "internalType": "uint256",
          "name": "_start",
          "type": "uint256"
        },
        {
          "internalType": "uint256",
          "name": "_end",
          "type": "uint256"
        }
      ],
      "name": "getAvailableAgentsDetailedList",
      "outputs": [
        {
          "components": [
            {
              "internalType": "address",
              "name": "agentVault",
              "type": "address"
            },
            {
              "internalType": "uint256",
              "name": "feeBIPS",
              "type": "uint256"
            },
            {
              "internalType": "uint256",
              "name": "mintingClass1CollateralRatioBIPS",
              "type": "uint256"
            },
            {
              "internalType": "uint256",
              "name": "mintingPoolCollateralRatioBIPS",
              "type": "uint256"
            },
            {
              "internalType": "uint256",
              "name": "freeCollateralLots",
              "type": "uint256"
            }
          ],
          "internalType": "struct AvailableAgents.AgentInfo[]",
          "name": "_agents",
          "type": "tuple[]"
        },
        {
          "internalType": "uint256",
          "name": "_totalLength",
          "type": "uint256"
        }
      ],
      "stateMutability": "view",
      "type": "function"
    },
    {
      "inputs": [
        {
          "internalType": "uint256",
          "name": "_start",
          "type": "uint256"
        },
        {
          "internalType": "uint256",
          "name": "_end",
          "type": "uint256"
        }
      ],
      "name": "getAvailableAgentsList",
      "outputs": [
        {
          "internalType": "address[]",
          "name": "_agents",
          "type": "address[]"
        },
        {
          "internalType": "uint256",
          "name": "_totalLength",
          "type": "uint256"
        }
      ],
      "stateMutability": "view",
      "type": "function"
    },
    {
      "inputs": [
        {
          "internalType": "address",
          "name": "_agentVault",
          "type": "address"
        }
      ],
      "name": "getCollateralPool",
      "outputs": [
        {
          "internalType": "address",
          "name": "",
          "type": "address"
        }
      ],
      "stateMutability": "view",
      "type": "function"
    },
    {
      "inputs": [
        {
          "internalType": "enum IAssetManager.CollateralTokenClass",
          "name": "_tokenClass",
          "type": "uint8"
        },
        {
          "internalType": "contract IERC20",
          "name": "_token",
          "type": "address"
        }
      ],
      "name": "getCollateralToken",
      "outputs": [
        {
          "components": [
            {
              "internalType": "enum IAssetManager.CollateralTokenClass",
              "name": "tokenClass",
              "type": "uint8"
            },
            {
              "internalType": "contract IERC20",
              "name": "token",
              "type": "address"
            },
            {
              "internalType": "uint256",
              "name": "decimals",
              "type": "uint256"
            },
            {
              "internalType": "uint256",
              "name": "validUntil",
              "type": "uint256"
            },
            {
              "internalType": "bool",
              "name": "directPricePair",
              "type": "bool"
            },
            {
              "internalType": "string",
              "name": "assetFtsoSymbol",
              "type": "string"
            },
            {
              "internalType": "string",
              "name": "tokenFtsoSymbol",
              "type": "string"
            },
            {
              "internalType": "uint256",
              "name": "minCollateralRatioBIPS",
              "type": "uint256"
            },
            {
              "internalType": "uint256",
              "name": "ccbMinCollateralRatioBIPS",
              "type": "uint256"
            },
            {
              "internalType": "uint256",
              "name": "safetyMinCollateralRatioBIPS",
              "type": "uint256"
            }
          ],
          "internalType": "struct IAssetManager.CollateralTokenInfo",
          "name": "",
          "type": "tuple"
        }
      ],
      "stateMutability": "view",
      "type": "function"
    },
    {
      "inputs": [],
      "name": "getCollateralTokens",
      "outputs": [
        {
          "components": [
            {
              "internalType": "enum IAssetManager.CollateralTokenClass",
              "name": "tokenClass",
              "type": "uint8"
            },
            {
              "internalType": "contract IERC20",
              "name": "token",
              "type": "address"
            },
            {
              "internalType": "uint256",
              "name": "decimals",
              "type": "uint256"
            },
            {
              "internalType": "uint256",
              "name": "validUntil",
              "type": "uint256"
            },
            {
              "internalType": "bool",
              "name": "directPricePair",
              "type": "bool"
            },
            {
              "internalType": "string",
              "name": "assetFtsoSymbol",
              "type": "string"
            },
            {
              "internalType": "string",
              "name": "tokenFtsoSymbol",
              "type": "string"
            },
            {
              "internalType": "uint256",
              "name": "minCollateralRatioBIPS",
              "type": "uint256"
            },
            {
              "internalType": "uint256",
              "name": "ccbMinCollateralRatioBIPS",
              "type": "uint256"
            },
            {
              "internalType": "uint256",
              "name": "safetyMinCollateralRatioBIPS",
              "type": "uint256"
            }
          ],
          "internalType": "struct IAssetManager.CollateralTokenInfo[]",
          "name": "",
          "type": "tuple[]"
        }
      ],
      "stateMutability": "view",
      "type": "function"
    },
    {
      "inputs": [
        {
          "internalType": "address",
          "name": "_agentVault",
          "type": "address"
        }
      ],
      "name": "getFAssetsBackedByPool",
      "outputs": [
        {
          "internalType": "uint256",
          "name": "",
          "type": "uint256"
        }
      ],
      "stateMutability": "view",
      "type": "function"
    },
    {
      "inputs": [],
      "name": "getLiquidationSettings",
      "outputs": [
        {
          "internalType": "bytes",
          "name": "",
          "type": "bytes"
        }
      ],
      "stateMutability": "view",
      "type": "function"
    },
    {
      "inputs": [],
      "name": "getLotSize",
      "outputs": [
        {
          "internalType": "uint256",
          "name": "_lotSizeUBA",
          "type": "uint256"
        }
      ],
      "stateMutability": "view",
      "type": "function"
    },
    {
      "inputs": [],
      "name": "getSettings",
      "outputs": [
        {
          "components": [
            {
              "internalType": "address",
              "name": "assetManagerController",
              "type": "address"
            },
            {
              "internalType": "contract IFAsset",
              "name": "fAsset",
              "type": "address"
            },
            {
              "internalType": "contract IAgentVaultFactory",
              "name": "agentVaultFactory",
              "type": "address"
            },
            {
              "internalType": "contract ICollateralPoolFactory",
              "name": "collateralPoolFactory",
              "type": "address"
            },
            {
              "internalType": "contract IWhitelist",
              "name": "whitelist",
              "type": "address"
            },
            {
              "internalType": "contract IWhitelist",
              "name": "agentWhitelist",
              "type": "address"
            },
            {
              "internalType": "contract IAttestationClient",
              "name": "attestationClient",
              "type": "address"
            },
            {
              "internalType": "contract IAddressValidator",
              "name": "underlyingAddressValidator",
              "type": "address"
            },
            {
              "internalType": "address",
              "name": "liquidationStrategy",
              "type": "address"
            },
            {
              "internalType": "contract IFtsoRegistry",
              "name": "ftsoRegistry",
              "type": "address"
            },
            {
              "internalType": "uint8",
              "name": "assetDecimals",
              "type": "uint8"
            },
            {
              "internalType": "uint8",
              "name": "assetMintingDecimals",
              "type": "uint8"
            },
            {
              "internalType": "uint32",
              "name": "mintingPoolHoldingsRequiredBIPS",
              "type": "uint32"
            },
            {
              "internalType": "address payable",
              "name": "burnAddress",
              "type": "address"
            },
            {
              "internalType": "bool",
              "name": "burnWithSelfDestruct",
              "type": "bool"
            },
            {
              "internalType": "uint32",
              "name": "chainId",
              "type": "uint32"
            },
            {
              "internalType": "uint16",
              "name": "collateralReservationFeeBIPS",
              "type": "uint16"
            },
            {
              "internalType": "uint64",
              "name": "assetUnitUBA",
              "type": "uint64"
            },
            {
              "internalType": "uint64",
              "name": "assetMintingGranularityUBA",
              "type": "uint64"
            },
            {
              "internalType": "uint64",
              "name": "lotSizeAMG",
              "type": "uint64"
            },
            {
              "internalType": "uint16",
              "name": "minUnderlyingBackingBIPS",
              "type": "uint16"
            },
            {
              "internalType": "uint64",
              "name": "mintingCapAMG",
              "type": "uint64"
            },
            {
              "internalType": "uint64",
              "name": "maxTrustedPriceAgeSeconds",
              "type": "uint64"
            },
            {
              "internalType": "bool",
              "name": "requireEOAAddressProof",
              "type": "bool"
            },
            {
              "internalType": "uint64",
              "name": "underlyingBlocksForPayment",
              "type": "uint64"
            },
            {
              "internalType": "uint64",
              "name": "underlyingSecondsForPayment",
              "type": "uint64"
            },
            {
              "internalType": "uint16",
              "name": "redemptionFeeBIPS",
              "type": "uint16"
            },
            {
              "internalType": "uint32",
              "name": "redemptionDefaultFactorAgentC1BIPS",
              "type": "uint32"
            },
            {
              "internalType": "uint32",
              "name": "redemptionDefaultFactorPoolBIPS",
              "type": "uint32"
            },
            {
              "internalType": "uint64",
              "name": "confirmationByOthersAfterSeconds",
              "type": "uint64"
            },
            {
              "internalType": "uint128",
              "name": "confirmationByOthersRewardUSD5",
              "type": "uint128"
            },
            {
              "internalType": "uint16",
              "name": "maxRedeemedTickets",
              "type": "uint16"
            },
            {
              "internalType": "uint16",
              "name": "paymentChallengeRewardBIPS",
              "type": "uint16"
            },
            {
              "internalType": "uint128",
              "name": "paymentChallengeRewardUSD5",
              "type": "uint128"
            },
            {
              "internalType": "uint64",
              "name": "withdrawalWaitMinSeconds",
              "type": "uint64"
            },
            {
              "internalType": "uint64",
              "name": "ccbTimeSeconds",
              "type": "uint64"
            },
            {
              "internalType": "uint64",
              "name": "attestationWindowSeconds",
              "type": "uint64"
            },
            {
              "internalType": "uint64",
              "name": "minUpdateRepeatTimeSeconds",
              "type": "uint64"
            },
            {
              "internalType": "uint64",
              "name": "buybackCollateralFactorBIPS",
              "type": "uint64"
            },
            {
              "internalType": "uint64",
              "name": "announcedUnderlyingConfirmationMinSeconds",
              "type": "uint64"
            },
            {
              "internalType": "uint64",
              "name": "tokenInvalidationTimeMinSeconds",
              "type": "uint64"
            },
            {
              "internalType": "uint32",
              "name": "class1BuyForFlareFactorBIPS",
              "type": "uint32"
            },
            {
              "internalType": "uint64",
              "name": "agentExitAvailableTimelockSeconds",
              "type": "uint64"
            },
            {
              "internalType": "uint64",
              "name": "agentFeeChangeTimelockSeconds",
              "type": "uint64"
            },
            {
              "internalType": "uint64",
              "name": "agentCollateralRatioChangeTimelockSeconds",
              "type": "uint64"
            }
          ],
          "internalType": "struct AssetManagerSettings.Data",
          "name": "",
          "type": "tuple"
        }
      ],
      "stateMutability": "view",
      "type": "function"
    },
    {
      "inputs": [],
      "name": "getWNat",
      "outputs": [
        {
          "internalType": "contract IWNat",
          "name": "",
          "type": "address"
        }
      ],
      "stateMutability": "view",
      "type": "function"
    },
    {
      "inputs": [
        {
          "components": [
            {
              "internalType": "uint256",
              "name": "stateConnectorRound",
              "type": "uint256"
            },
            {
              "internalType": "bytes32[]",
              "name": "merkleProof",
              "type": "bytes32[]"
            },
            {
              "internalType": "uint64",
              "name": "blockNumber",
              "type": "uint64"
            },
            {
              "internalType": "uint64",
              "name": "blockTimestamp",
              "type": "uint64"
            },
            {
              "internalType": "bytes32",
              "name": "transactionHash",
              "type": "bytes32"
            },
            {
              "internalType": "uint8",
              "name": "inUtxo",
              "type": "uint8"
            },
            {
              "internalType": "bytes32",
              "name": "sourceAddressHash",
              "type": "bytes32"
            },
            {
              "internalType": "int256",
              "name": "spentAmount",
              "type": "int256"
            },
            {
              "internalType": "bytes32",
              "name": "paymentReference",
              "type": "bytes32"
            }
          ],
          "internalType": "struct IAttestationClient.BalanceDecreasingTransaction",
          "name": "_transaction",
          "type": "tuple"
        },
        {
          "internalType": "address",
          "name": "_agentVault",
          "type": "address"
        }
      ],
      "name": "illegalPaymentChallenge",
      "outputs": [],
      "stateMutability": "nonpayable",
      "type": "function"
    },
    {
      "inputs": [
        {
          "internalType": "address",
          "name": "_agentVault",
          "type": "address"
        },
        {
          "internalType": "address",
          "name": "_address",
          "type": "address"
        }
      ],
      "name": "isAgentVaultOwner",
      "outputs": [
        {
          "internalType": "bool",
          "name": "",
          "type": "bool"
        }
      ],
      "stateMutability": "view",
      "type": "function"
    },
    {
      "inputs": [
        {
          "internalType": "address",
          "name": "_agentVault",
          "type": "address"
        },
        {
          "internalType": "contract IERC20",
          "name": "_token",
          "type": "address"
        }
      ],
      "name": "isCollateralToken",
      "outputs": [
        {
          "internalType": "bool",
          "name": "",
          "type": "bool"
        }
      ],
      "stateMutability": "view",
      "type": "function"
    },
    {
      "inputs": [
        {
          "internalType": "address",
          "name": "_agentVault",
          "type": "address"
        },
        {
          "internalType": "uint256",
          "name": "_amountUBA",
          "type": "uint256"
        }
      ],
      "name": "liquidate",
      "outputs": [
        {
          "internalType": "uint256",
          "name": "_liquidatedAmountUBA",
          "type": "uint256"
        },
        {
          "internalType": "uint256",
          "name": "_amountPaidClass1",
          "type": "uint256"
        },
        {
          "internalType": "uint256",
          "name": "_amountPaidPool",
          "type": "uint256"
        }
      ],
      "stateMutability": "nonpayable",
      "type": "function"
    },
    {
      "inputs": [
        {
          "internalType": "address",
          "name": "_agentVault",
          "type": "address"
        }
      ],
      "name": "makeAgentAvailable",
      "outputs": [],
      "stateMutability": "nonpayable",
      "type": "function"
    },
    {
      "inputs": [
        {
          "components": [
            {
              "internalType": "uint256",
              "name": "stateConnectorRound",
              "type": "uint256"
            },
            {
              "internalType": "bytes32[]",
              "name": "merkleProof",
              "type": "bytes32[]"
            },
            {
              "internalType": "uint64",
              "name": "deadlineBlockNumber",
              "type": "uint64"
            },
            {
              "internalType": "uint64",
              "name": "deadlineTimestamp",
              "type": "uint64"
            },
            {
              "internalType": "bytes32",
              "name": "destinationAddressHash",
              "type": "bytes32"
            },
            {
              "internalType": "bytes32",
              "name": "paymentReference",
              "type": "bytes32"
            },
            {
              "internalType": "uint128",
              "name": "amount",
              "type": "uint128"
            },
            {
              "internalType": "uint64",
              "name": "lowerBoundaryBlockNumber",
              "type": "uint64"
            },
            {
              "internalType": "uint64",
              "name": "lowerBoundaryBlockTimestamp",
              "type": "uint64"
            },
            {
              "internalType": "uint64",
              "name": "firstOverflowBlockNumber",
              "type": "uint64"
            },
            {
              "internalType": "uint64",
              "name": "firstOverflowBlockTimestamp",
              "type": "uint64"
            }
          ],
          "internalType": "struct IAttestationClient.ReferencedPaymentNonexistence",
          "name": "_proof",
          "type": "tuple"
        },
        {
          "internalType": "uint256",
          "name": "_collateralReservationId",
          "type": "uint256"
        }
      ],
      "name": "mintingPaymentDefault",
      "outputs": [],
      "stateMutability": "nonpayable",
      "type": "function"
    },
    {
      "inputs": [],
      "name": "pause",
      "outputs": [],
      "stateMutability": "nonpayable",
      "type": "function"
    },
    {
      "inputs": [],
      "name": "paused",
      "outputs": [
        {
          "internalType": "bool",
          "name": "",
          "type": "bool"
        }
      ],
      "stateMutability": "view",
      "type": "function"
    },
    {
      "inputs": [
        {
          "components": [
            {
              "internalType": "uint256",
              "name": "stateConnectorRound",
              "type": "uint256"
            },
            {
              "internalType": "bytes32[]",
              "name": "merkleProof",
              "type": "bytes32[]"
            },
            {
              "internalType": "uint64",
              "name": "blockNumber",
              "type": "uint64"
            },
            {
              "internalType": "uint64",
              "name": "blockTimestamp",
              "type": "uint64"
            },
            {
              "internalType": "bytes32",
              "name": "transactionHash",
              "type": "bytes32"
            },
            {
              "internalType": "uint8",
              "name": "inUtxo",
              "type": "uint8"
            },
            {
              "internalType": "uint8",
              "name": "utxo",
              "type": "uint8"
            },
            {
              "internalType": "bytes32",
              "name": "sourceAddressHash",
              "type": "bytes32"
            },
            {
              "internalType": "bytes32",
              "name": "receivingAddressHash",
              "type": "bytes32"
            },
            {
              "internalType": "int256",
              "name": "spentAmount",
              "type": "int256"
            },
            {
              "internalType": "int256",
              "name": "receivedAmount",
              "type": "int256"
            },
            {
              "internalType": "bytes32",
              "name": "paymentReference",
              "type": "bytes32"
            },
            {
              "internalType": "bool",
              "name": "oneToOne",
              "type": "bool"
            },
            {
              "internalType": "uint8",
              "name": "status",
              "type": "uint8"
            }
          ],
          "internalType": "struct IAttestationClient.Payment",
          "name": "_payment",
          "type": "tuple"
        }
      ],
      "name": "proveUnderlyingAddressEOA",
      "outputs": [],
      "stateMutability": "nonpayable",
      "type": "function"
    },
    {
      "inputs": [
        {
          "internalType": "uint256",
          "name": "_lots",
          "type": "uint256"
        },
        {
          "internalType": "string",
          "name": "_redeemerUnderlyingAddressString",
          "type": "string"
        }
      ],
      "name": "redeem",
      "outputs": [],
      "stateMutability": "nonpayable",
      "type": "function"
    },
    {
      "inputs": [
        {
          "internalType": "address",
          "name": "_agentVault",
          "type": "address"
        },
        {
          "internalType": "address",
          "name": "_receiver",
          "type": "address"
        },
        {
          "internalType": "uint256",
          "name": "_amountUBA",
          "type": "uint256"
        },
        {
          "internalType": "string",
          "name": "_receiverUnderlyingAddress",
          "type": "string"
        }
      ],
      "name": "redeemFromAgent",
      "outputs": [],
      "stateMutability": "nonpayable",
      "type": "function"
    },
    {
      "inputs": [
        {
          "internalType": "address",
          "name": "_agentVault",
          "type": "address"
        },
        {
          "internalType": "address",
          "name": "_receiver",
          "type": "address"
        },
        {
          "internalType": "uint256",
          "name": "_amountUBA",
          "type": "uint256"
        }
      ],
      "name": "redeemFromAgentInCollateral",
      "outputs": [],
      "stateMutability": "nonpayable",
      "type": "function"
    },
    {
      "inputs": [
        {
          "components": [
            {
              "internalType": "uint256",
              "name": "stateConnectorRound",
              "type": "uint256"
            },
            {
              "internalType": "bytes32[]",
              "name": "merkleProof",
              "type": "bytes32[]"
            },
            {
              "internalType": "uint64",
              "name": "deadlineBlockNumber",
              "type": "uint64"
            },
            {
              "internalType": "uint64",
              "name": "deadlineTimestamp",
              "type": "uint64"
            },
            {
              "internalType": "bytes32",
              "name": "destinationAddressHash",
              "type": "bytes32"
            },
            {
              "internalType": "bytes32",
              "name": "paymentReference",
              "type": "bytes32"
            },
            {
              "internalType": "uint128",
              "name": "amount",
              "type": "uint128"
            },
            {
              "internalType": "uint64",
              "name": "lowerBoundaryBlockNumber",
              "type": "uint64"
            },
            {
              "internalType": "uint64",
              "name": "lowerBoundaryBlockTimestamp",
              "type": "uint64"
            },
            {
              "internalType": "uint64",
              "name": "firstOverflowBlockNumber",
              "type": "uint64"
            },
            {
              "internalType": "uint64",
              "name": "firstOverflowBlockTimestamp",
              "type": "uint64"
            }
          ],
          "internalType": "struct IAttestationClient.ReferencedPaymentNonexistence",
          "name": "_proof",
          "type": "tuple"
        },
        {
          "internalType": "uint256",
          "name": "_redemptionRequestId",
          "type": "uint256"
        }
      ],
      "name": "redemptionPaymentDefault",
      "outputs": [],
      "stateMutability": "nonpayable",
      "type": "function"
    },
    {
      "inputs": [
        {
          "internalType": "address",
          "name": "_agentVault",
          "type": "address"
        },
        {
          "internalType": "uint256",
          "name": "_lots",
          "type": "uint256"
        },
        {
          "internalType": "uint256",
          "name": "_maxMintingFeeBIPS",
          "type": "uint256"
        }
      ],
      "name": "reserveCollateral",
      "outputs": [],
      "stateMutability": "payable",
      "type": "function"
    },
    {
      "inputs": [
        {
          "internalType": "address",
          "name": "_agentVault",
          "type": "address"
        },
        {
          "internalType": "uint256",
          "name": "_amountUBA",
          "type": "uint256"
        }
      ],
      "name": "selfClose",
      "outputs": [],
      "stateMutability": "nonpayable",
      "type": "function"
    },
    {
      "inputs": [
        {
          "components": [
            {
              "internalType": "uint256",
              "name": "stateConnectorRound",
              "type": "uint256"
            },
            {
              "internalType": "bytes32[]",
              "name": "merkleProof",
              "type": "bytes32[]"
            },
            {
              "internalType": "uint64",
              "name": "blockNumber",
              "type": "uint64"
            },
            {
              "internalType": "uint64",
              "name": "blockTimestamp",
              "type": "uint64"
            },
            {
              "internalType": "bytes32",
              "name": "transactionHash",
              "type": "bytes32"
            },
            {
              "internalType": "uint8",
              "name": "inUtxo",
              "type": "uint8"
            },
            {
              "internalType": "uint8",
              "name": "utxo",
              "type": "uint8"
            },
            {
              "internalType": "bytes32",
              "name": "sourceAddressHash",
              "type": "bytes32"
            },
            {
              "internalType": "bytes32",
              "name": "receivingAddressHash",
              "type": "bytes32"
            },
            {
              "internalType": "int256",
              "name": "spentAmount",
              "type": "int256"
            },
            {
              "internalType": "int256",
              "name": "receivedAmount",
              "type": "int256"
            },
            {
              "internalType": "bytes32",
              "name": "paymentReference",
              "type": "bytes32"
            },
            {
              "internalType": "bool",
              "name": "oneToOne",
              "type": "bool"
            },
            {
              "internalType": "uint8",
              "name": "status",
              "type": "uint8"
            }
          ],
          "internalType": "struct IAttestationClient.Payment",
          "name": "_payment",
          "type": "tuple"
        },
        {
          "internalType": "address",
          "name": "_agentVault",
          "type": "address"
        },
        {
          "internalType": "uint256",
          "name": "_lots",
          "type": "uint256"
        }
      ],
      "name": "selfMint",
      "outputs": [],
      "stateMutability": "nonpayable",
      "type": "function"
    },
    {
      "inputs": [
        {
          "internalType": "enum IAssetManager.CollateralTokenClass",
          "name": "_tokenClass",
          "type": "uint8"
        },
        {
          "internalType": "contract IERC20",
          "name": "_token",
          "type": "address"
        },
        {
          "internalType": "uint256",
          "name": "_minCollateralRatioBIPS",
          "type": "uint256"
        },
        {
          "internalType": "uint256",
          "name": "_ccbMinCollateralRatioBIPS",
          "type": "uint256"
        },
        {
          "internalType": "uint256",
          "name": "_safetyMinCollateralRatioBIPS",
          "type": "uint256"
        }
      ],
      "name": "setCollateralRatiosForToken",
      "outputs": [],
      "stateMutability": "nonpayable",
      "type": "function"
    },
    {
      "inputs": [
        {
          "internalType": "address",
          "name": "_ownerHotAddress",
          "type": "address"
        }
      ],
      "name": "setOwnerHotAddress",
      "outputs": [],
      "stateMutability": "nonpayable",
      "type": "function"
    },
    {
      "inputs": [
        {
          "components": [
            {
              "internalType": "enum IAssetManager.CollateralTokenClass",
              "name": "tokenClass",
              "type": "uint8"
            },
            {
              "internalType": "contract IERC20",
              "name": "token",
              "type": "address"
            },
            {
              "internalType": "uint256",
              "name": "decimals",
              "type": "uint256"
            },
            {
              "internalType": "uint256",
              "name": "validUntil",
              "type": "uint256"
            },
            {
              "internalType": "bool",
              "name": "directPricePair",
              "type": "bool"
            },
            {
              "internalType": "string",
              "name": "assetFtsoSymbol",
              "type": "string"
            },
            {
              "internalType": "string",
              "name": "tokenFtsoSymbol",
              "type": "string"
            },
            {
              "internalType": "uint256",
              "name": "minCollateralRatioBIPS",
              "type": "uint256"
            },
            {
              "internalType": "uint256",
              "name": "ccbMinCollateralRatioBIPS",
              "type": "uint256"
            },
            {
              "internalType": "uint256",
              "name": "safetyMinCollateralRatioBIPS",
              "type": "uint256"
            }
          ],
          "internalType": "struct IAssetManager.CollateralTokenInfo",
          "name": "_data",
          "type": "tuple"
        }
      ],
      "name": "setPoolCollateralToken",
      "outputs": [],
      "stateMutability": "nonpayable",
      "type": "function"
    },
    {
      "inputs": [
        {
          "internalType": "address",
          "name": "_agentVault",
          "type": "address"
        }
      ],
      "name": "startLiquidation",
      "outputs": [],
      "stateMutability": "nonpayable",
      "type": "function"
    },
    {
      "inputs": [],
      "name": "terminate",
      "outputs": [],
      "stateMutability": "nonpayable",
      "type": "function"
    },
    {
      "inputs": [],
      "name": "unpause",
      "outputs": [],
      "stateMutability": "nonpayable",
      "type": "function"
    },
    {
      "inputs": [
        {
          "components": [
            {
              "internalType": "uint256",
              "name": "stateConnectorRound",
              "type": "uint256"
            },
            {
              "internalType": "bytes32[]",
              "name": "merkleProof",
              "type": "bytes32[]"
            },
            {
              "internalType": "uint64",
              "name": "blockNumber",
              "type": "uint64"
            },
            {
              "internalType": "uint64",
              "name": "blockTimestamp",
              "type": "uint64"
            },
            {
              "internalType": "uint8",
              "name": "numberOfConfirmations",
              "type": "uint8"
            },
            {
              "internalType": "uint64",
              "name": "averageBlockProductionTimeMs",
              "type": "uint64"
            },
            {
              "internalType": "uint64",
              "name": "lowestQueryWindowBlockNumber",
              "type": "uint64"
            },
            {
              "internalType": "uint64",
              "name": "lowestQueryWindowBlockTimestamp",
              "type": "uint64"
            }
          ],
          "internalType": "struct IAttestationClient.ConfirmedBlockHeightExists",
          "name": "_proof",
          "type": "tuple"
        },
        {
          "internalType": "uint256",
          "name": "_collateralReservationId",
          "type": "uint256"
        }
      ],
      "name": "unstickMinting",
      "outputs": [],
      "stateMutability": "payable",
      "type": "function"
    },
    {
      "inputs": [
        {
          "components": [
            {
              "internalType": "uint256",
              "name": "stateConnectorRound",
              "type": "uint256"
            },
            {
              "internalType": "bytes32[]",
              "name": "merkleProof",
              "type": "bytes32[]"
            },
            {
              "internalType": "uint64",
              "name": "blockNumber",
              "type": "uint64"
            },
            {
              "internalType": "uint64",
              "name": "blockTimestamp",
              "type": "uint64"
            },
            {
              "internalType": "uint8",
              "name": "numberOfConfirmations",
              "type": "uint8"
            },
            {
              "internalType": "uint64",
              "name": "averageBlockProductionTimeMs",
              "type": "uint64"
            },
            {
              "internalType": "uint64",
              "name": "lowestQueryWindowBlockNumber",
              "type": "uint64"
            },
            {
              "internalType": "uint64",
              "name": "lowestQueryWindowBlockTimestamp",
              "type": "uint64"
            }
          ],
          "internalType": "struct IAttestationClient.ConfirmedBlockHeightExists",
          "name": "_proof",
          "type": "tuple"
        }
      ],
      "name": "updateCurrentBlock",
      "outputs": [],
      "stateMutability": "nonpayable",
      "type": "function"
    },
    {
      "inputs": [
        {
          "internalType": "bytes32",
          "name": "_method",
          "type": "bytes32"
        },
        {
          "internalType": "bytes",
          "name": "_params",
          "type": "bytes"
        }
      ],
      "name": "updateSettings",
      "outputs": [],
      "stateMutability": "nonpayable",
      "type": "function"
    },
    {
      "inputs": [
        {
          "internalType": "address",
          "name": "_agentVault",
          "type": "address"
        }
      ],
      "name": "upgradeWNatContract",
      "outputs": [],
      "stateMutability": "nonpayable",
      "type": "function"
    },
    {
      "inputs": [
        {
          "internalType": "contract IERC20",
          "name": "_token",
          "type": "address"
        },
        {
          "internalType": "uint256",
          "name": "_valueNATWei",
          "type": "uint256"
        }
      ],
      "name": "withdrawCollateral",
      "outputs": [],
      "stateMutability": "nonpayable",
      "type": "function"
    }
  ],
  "bytecode": "0x60806040523480156200001157600080fd5b5060405162006773380380620067738339810160408190526200003491620005e3565b600160005560405163658f4c6160e01b815273__$498fae630e5f9e2b0d2f5a14b70bbf8a29$__9063658f4c619062000072908690600401620009e9565b60006040518083038186803b1580156200008b57600080fd5b505af4158015620000a0573d6000803e3d6000fd5b505060405163e456a51d60e01b815273__$a539d901bea57a4b73d19093d1e9882040$__925063e456a51d9150620000dd90859060040162000d42565b60006040518083038186803b158015620000f657600080fd5b505af41580156200010b573d6000803e3d6000fd5b5050505062000125816200012e60201b62002ab41760201c565b50505062000e73565b600062000145620001c060201b62002b241760201c565b600801546040516001600160a01b039091169150600090829063439fab91906200017490869060240162000e39565b604051602081830303815290604052915060e01b6020820180516001600160e01b0383818316178352505050509050620001ba8282620001e460201b62002b361760201c565b50505050565b7fec7e8c1c441439dd40959777f4c577ea0cd42fcc1dbe59d2bd0f5d9c55df8db690565b6060600080846001600160a01b03168460405162000203919062000e55565b600060405180830381855af49150503d806000811462000240576040519150601f19603f3d011682016040523d82523d6000602084013e62000245565b606091505b509150915081156200025b5791506200026e9050565b3d604051818101604052816000823e8181fd5b92915050565b634e487b7160e01b600052604160045260246000fd5b60405161014081016001600160401b0381118282101715620002b057620002b062000274565b60405290565b6040516105a081016001600160401b0381118282101715620002b057620002b062000274565b604051601f8201601f191681016001600160401b038111828210171562000307576200030762000274565b604052919050565b80516001600160a01b03811681146200032757600080fd5b919050565b805160ff811681146200032757600080fd5b805163ffffffff811681146200032757600080fd5b805180151581146200032757600080fd5b805161ffff811681146200032757600080fd5b80516001600160401b03811681146200032757600080fd5b80516001600160801b03811681146200032757600080fd5b8051600381106200032757600080fd5b60005b83811015620003d4578181015183820152602001620003ba565b83811115620001ba5750506000910152565b600082601f830112620003f857600080fd5b81516001600160401b0381111562000414576200041462000274565b62000429601f8201601f1916602001620002dc565b8181528460208386010111156200043f57600080fd5b62000452826020830160208701620003b7565b949350505050565b600082601f8301126200046c57600080fd5b815160206001600160401b03808311156200048b576200048b62000274565b8260051b6200049c838201620002dc565b9384528581018301938381019088861115620004b757600080fd5b84880192505b85831015620005d757825184811115620004d75760008081fd5b8801610140818b03601f1901811315620004f15760008081fd5b620004fb6200028a565b62000508888401620003a7565b81526040620005198185016200030f565b89830152606080850151828401526080915081850151818401525060a06200054381860162000353565b8284015260c0915081850151898111156200055e5760008081fd5b6200056e8f8c83890101620003e6565b82850152505060e08085015189811115620005895760008081fd5b620005998f8c83890101620003e6565b8385015250610100915081850151818401525061012080850151828401528385015181840152505080855250505084820191508483019250620004bd565b98975050505050505050565b60008060008385036105e0811215620005fb57600080fd5b6105a0808212156200060c57600080fd5b62000616620002b6565b915062000623866200030f565b825262000633602087016200030f565b602083015262000646604087016200030f565b604083015262000659606087016200030f565b60608301526200066c608087016200030f565b60808301526200067f60a087016200030f565b60a08301526200069260c087016200030f565b60c0830152620006a560e087016200030f565b60e0830152610100620006ba8188016200030f565b90830152610120620006ce8782016200030f565b90830152610140620006e28782016200032c565b90830152610160620006f68782016200032c565b908301526101806200070a8782016200033e565b908301526101a06200071e8782016200030f565b908301526101c06200073287820162000353565b908301526101e0620007468782016200033e565b908301526102006200075a87820162000364565b908301526102206200076e87820162000377565b908301526102406200078287820162000377565b908301526102606200079687820162000377565b90830152610280620007aa87820162000364565b908301526102a0620007be87820162000377565b908301526102c0620007d287820162000377565b908301526102e0620007e687820162000353565b90830152610300620007fa87820162000377565b908301526103206200080e87820162000377565b908301526103406200082287820162000364565b90830152610360620008368782016200033e565b908301526103806200084a8782016200033e565b908301526103a06200085e87820162000377565b908301526103c0620008728782016200038f565b908301526103e06200088687820162000364565b908301526104006200089a87820162000364565b90830152610420620008ae8782016200038f565b90830152610440620008c287820162000377565b90830152610460620008d687820162000377565b90830152610480620008ea87820162000377565b908301526104a0620008fe87820162000377565b908301526104c06200091287820162000377565b908301526104e06200092687820162000377565b908301526105006200093a87820162000377565b908301526105206200094e8782016200033e565b908301526105406200096287820162000377565b908301526105606200097687820162000377565b908301526105806200098a87820162000377565b908301528501519093506001600160401b0380821115620009aa57600080fd5b620009b8878388016200045a565b93506105c0860151915080821115620009d057600080fd5b50620009df86828701620003e6565b9150509250925092565b81516001600160a01b031681526105a08101602083015162000a1660208401826001600160a01b03169052565b50604083015162000a3260408401826001600160a01b03169052565b50606083015162000a4e60608401826001600160a01b03169052565b50608083015162000a6a60808401826001600160a01b03169052565b5060a083015162000a8660a08401826001600160a01b03169052565b5060c083015162000aa260c08401826001600160a01b03169052565b5060e083015162000abe60e08401826001600160a01b03169052565b50610100838101516001600160a01b0390811691840191909152610120808501518216908401526101408085015160ff9081169185019190915261016080860151909116908401526101808085015163ffffffff908116918501919091526101a080860151909216918401919091526101c0808501511515908401526101e0808501518216908401526102008085015161ffff90811691850191909152610220808601516001600160401b03908116918601919091526102408087015182169086015261026080870151821690860152610280808701518316908601526102a0808701518216908601526102c0808701518216908601526102e08087015115159086015261030080870151821690860152610320808701518216908601526103408087015183169086015261036080870151841690860152610380808701518416908601526103a0808701518216908601526103c0808701516001600160801b03908116918701919091526103e080880151841690870152610400808801519093169286019290925261042080870151909216918501919091526104408086015182169085015261046080860151821690850152610480808601518216908501526104a0808601518216908501526104c0808601518216908501526104e08086015182169085015261050080860151821690850152610520808601519092169184019190915261054080850151821690840152610560808501518216908401526105809384015116929091019190915290565b6003811062000d1057634e487b7160e01b600052602160045260246000fd5b9052565b6000815180845262000d2e816020860160208601620003b7565b601f01601f19169290920160200192915050565b60006020808301818452808551808352604092508286019150828160051b87010184880160005b8381101562000e2b57603f19898403018552815161014062000d8d85835162000cf1565b888201516001600160a01b0316858a015287820151888601526060808301519086015260808083015115159086015260a08083015181870183905262000dd68388018262000d14565b9250505060c0808301518683038288015262000df3838262000d14565b60e085810151908901526101008086015190890152610120948501519490970193909352505050938601939086019060010162000d69565b509098975050505050505050565b60208152600062000e4e602083018462000d14565b9392505050565b6000825162000e69818460208701620003b7565b9190910192915050565b6158f08062000e836000396000f3fe6080604052600436106104105760003560e01c80638bf113261161021e578063d6b93a9f11610123578063ed3762aa116100ab578063f19d3c061161007a578063f19d3c0614610cd4578063f1d5133f14610cf4578063f4d000b214610d21578063f54ff23014610d41578063fd41d8ea14610d6157600080fd5b8063ed3762aa14610c5f578063ee80a23014610c7f578063f060b3f114610c9f578063f0c0b72514610cbf57600080fd5b8063e7732f91116100f2578063e7732f9114610bc8578063eb5abafc14610be8578063ec96c1c914610c08578063ecaf1cdf14610c2a578063ed000b3014610c3f57600080fd5b8063d6b93a9f14610b55578063dda4921314610b75578063e1c5010014610b88578063e415339c14610ba857600080fd5b8063b68af97e116101a6578063bcbaf48711610175578063bcbaf48714610aa7578063bd60353514610ae2578063bfead88714610af5578063c0674b4614610b15578063c4a5123e14610b3557600080fd5b8063b68af97e14610a34578063b7f658ab14610a47578063b928b53314610a67578063ba657a3614610a8757600080fd5b8063a07ea7af116101ed578063a07ea7af1461098f578063b046cd17146109af578063b19aec17146109cf578063b58eb63f146109fd578063b5a488a614610a1f57600080fd5b80638bf113261461090f5780638c9ea9761461092f5780639584da2a1461094f5780639928d99c1461096f57600080fd5b80633f4ba83a116103245780636e61164f116102ac5780638003314d1161027b5780638003314d1461086a57806383c57d14146108985780638456cb59146108b857806385b4bb53146108cd5780638ad2a950146108ef57600080fd5b80636e61164f146107d5578063753923f014610815578063778aadd5146108355780637c7db1a51461085557600080fd5b80635c975abb116102f35780635c975abb146107285780635cdf04b3146107555780635e71055c14610775578063612007e51461079557806365454f94146107b557600080fd5b80633f4ba83a146106835780635252f3a21461069857806353777730146106d057806353ed178e1461070857600080fd5b80631f819490116103a75780632a4c48a8116103765780632a4c48a8146105d55780632dabf2d0146105f5578063350c35e914610615578063368a3593146106355780633851b6141461066357600080fd5b80631f81949014610555578063249f1b591461057557806324b76fd514610595578063268b2ec1146105b557600080fd5b80630a4b9ec2116103e35780630a4b9ec2146104d35780630c08bf88146104f35780630ffb0e8614610508578063152052b01461052857600080fd5b806302312aec14610415578063025dfeb21461044457806304203930146104665780630877acff14610486575b600080fd5b34801561042157600080fd5b5061042a610d81565b604080519283526020830191909152015b60405180910390f35b34801561045057600080fd5b5061046461045f36600461352a565b610dd5565b005b34801561047257600080fd5b5061046461048136600461357b565b610e4c565b34801561049257600080fd5b507fec7e8c1c441439dd40959777f4c577ea0cd42fcc1dbe59d2bd0f5d9c55df8dd9546001600160401b03620100008204811691600160501b90041661042a565b3480156104df57600080fd5b506104646104ee36600461357b565b610e8c565b3480156104ff57600080fd5b50610464610ed2565b34801561051457600080fd5b506104646105233660046136d9565b610fd8565b34801561053457600080fd5b5061054861054336600461357b565b61105a565b60405161043b91906137b3565b34801561056157600080fd5b50610464610570366004613a02565b611221565b34801561058157600080fd5b50610464610590366004613a5e565b611296565b3480156105a157600080fd5b506104646105b0366004613aaf565b611314565b3480156105c157600080fd5b506104646105d0366004613af5565b61135f565b3480156105e157600080fd5b506104646105f0366004613b52565b6113a0565b34801561060157600080fd5b50610464610610366004613b86565b6113d7565b34801561062157600080fd5b50610464610630366004613b86565b611413565b34801561064157600080fd5b50610655610650366004613ba4565b611460565b60405190815260200161043b565b34801561066f57600080fd5b5061046461067e36600461357b565b6114ee565b34801561068f57600080fd5b5061046461152e565b3480156106a457600080fd5b506106b86106b336600461357b565b611626565b6040516001600160a01b03909116815260200161043b565b3480156106dc57600080fd5b5060008051602061589b83398151915254600160401b900460ff165b604051901515815260200161043b565b34801561071457600080fd5b50610464610723366004613bbd565b611641565b34801561073457600080fd5b5060008051602061589b833981519152546001600160401b031615156106f8565b34801561076157600080fd5b50610464610770366004613c05565b611682565b34801561078157600080fd5b5061046461079036600461357b565b6116c3565b3480156107a157600080fd5b506104646107b036600461357b565b611703565b3480156107c157600080fd5b506104646107d036600461357b565b611743565b3480156107e157600080fd5b506107f56107f036600461357b565b611783565b604080516001600160a01b0393841681529290911660208301520161043b565b34801561082157600080fd5b50610464610830366004613af5565b61180c565b34801561084157600080fd5b50610464610850366004613c56565b611830565b34801561086157600080fd5b506106b8611878565b34801561087657600080fd5b5061088a610885366004613c84565b611887565b60405161043b929190613ca6565b3480156108a457600080fd5b506104646108b3366004613d24565b611918565b3480156108c457600080fd5b50610464611990565b3480156108d957600080fd5b506108e26119f5565b60405161043b9190613da9565b3480156108fb57600080fd5b5061046461090a3660046140aa565b611deb565b34801561091b57600080fd5b5061046461092a3660046140de565b611e22565b34801561093b57600080fd5b506106f861094a366004613c56565b611ecf565b34801561095b57600080fd5b5061046461096a366004613b86565b611f5c565b34801561097b57600080fd5b5061046461098a36600461352a565b611fa3565b34801561099b57600080fd5b506104646109aa36600461357b565b611fe2565b3480156109bb57600080fd5b506104646109ca366004614137565b612022565b3480156109db57600080fd5b506109ef6109ea366004613c84565b61205b565b60405161043b92919061416c565b348015610a0957600080fd5b50610a126120e1565b60405161043b9190614286565b348015610a2b57600080fd5b506106b8612154565b610464610a4236600461357b565b61215e565b348015610a5357600080fd5b50610464610a6236600461357b565b6122a7565b348015610a7357600080fd5b50610464610a82366004614301565b6122e7565b348015610a9357600080fd5b50610464610aa236600461357b565b61231f565b348015610ab357600080fd5b50610ac7610ac2366004613b86565b61235f565b6040805193845260208401929092529082015260600161043b565b610464610af036600461431e565b6123fd565b348015610b0157600080fd5b50610464610b10366004613a02565b612486565b348015610b2157600080fd5b50610464610b3036600461357b565b612528565b348015610b4157600080fd5b50610464610b5036600461352a565b612568565b348015610b6157600080fd5b506106f8610b70366004613c56565b6125a7565b610464610b83366004613bbd565b6125bb565b348015610b9457600080fd5b50610464610ba336600461357b565b612624565b348015610bb457600080fd5b506109ef610bc3366004613c84565b61266b565b348015610bd457600080fd5b50610464610be3366004614353565b6126b0565b348015610bf457600080fd5b50610464610c0336600461438c565b6126e9565b348015610c1457600080fd5b50610c1d61272c565b60405161043b91906143f8565b348015610c3657600080fd5b50610655612736565b348015610c4b57600080fd5b50610464610c5a36600461440b565b61277b565b348015610c6b57600080fd5b50610655610c7a36600461357b565b6127ca565b348015610c8b57600080fd5b50610464610c9a366004614137565b61280d565b348015610cab57600080fd5b50610464610cba36600461443b565b612846565b348015610ccb57600080fd5b506106b86128b9565b348015610ce057600080fd5b50610464610cef3660046144a6565b6128d2565b348015610d0057600080fd5b50610d14610d0f366004614521565b612915565b60405161043b919061453f565b348015610d2d57600080fd5b50610464610d3c36600461357b565b6129f5565b348015610d4d57600080fd5b50610464610d5c366004613b86565b612a35565b348015610d6d57600080fd5b50610464610d7c366004614552565b612a71565b6000806000610d8e612b24565b9050610da0610d9b612bba565b612c3c565b600b820154909350600160401b90046001600160401b0316610dc46009600a61466c565b610dce9190614678565b9150509091565b610ddd612c52565b6040516307c8308b60e21b815273__$8ed6b3b04009dff171844b9d72c92eddd0$__90631f20c22c90610e199060019030908690600401614705565b60006040518083038186803b158015610e3157600080fd5b505af4158015610e45573d6000803e3d6000fd5b5050505050565b60405163b42652e960e01b81526001600160a01b038216600482015273__$4054b81dd018f00b16b0262e280b71bd3d$__9063b42652e990602401610e19565b60405163c7be12eb60e01b81526001600160a01b038216600482015233602482015273__$c7446ca28182994c6c0135601399c1b584$__9063c7be12eb90604401610e19565b610eda612ca9565b60008051602061589b8339815191525460008051602061587b833981519152906001600160401b031615801590610f2b57506024810154610f289062278d00906001600160401b03166147ce565b42115b610f7c5760405162461bcd60e51b815260206004820152601f60248201527f6173736574206d616e61676572206e6f742070617573656420656e6f7567680060448201526064015b60405180910390fd5b60018101546040805163018117f160e31b815290516001600160a01b0390921691630c08bf889160048082019260009290919082900301818387803b158015610fc457600080fd5b505af1158015610e45573d6000803e3d6000fd5b60405163ccfb491360e01b815273__$df85e949fff37977e0d300eb10fcbb4998$__9063ccfb491390611013908690869086906004016147e6565b602060405180830381865af4158015611030573d6000803e3d6000fd5b505050506040513d601f19601f82011682018060405250810190611054919061481a565b50505050565b61119b604080516104c08101909152806000815260200160006001600160a01b0316815260200160006001600160a01b0316815260200160006001600160a01b0316815260200160608152602001600015158152602001600081526020016000815260200160006001600160a01b0316815260200160008152602001600081526020016000815260200160008152602001600081526020016000815260200160008152602001600081526020016000815260200160008152602001600081526020016000815260200160008152602001600081526020016000815260200160008152602001600081526020016000815260200160008152602001600081526020016000815260200160008152602001600081526020016000815260200160008152602001600081526020016000815260200160008152602001600081525090565b604051630152052b60e41b81526001600160a01b038316600482015273__$ec55c6bae1638b00bbedb6b751f1f84e77$__9063152052b090602401600060405180830381865af41580156111f3573d6000803e3d6000fd5b505050506040513d6000823e601f3d908101601f1916820160405261121b91908101906148a8565b92915050565b73__$305ac64b111b0d775ac583a3c3f22849b9$__634e1b6cd68361124584612d09565b6040518363ffffffff1660e01b8152600401611262929190614c76565b60006040518083038186803b15801561127a57600080fd5b505af415801561128e573d6000803e3d6000fd5b505050505050565b61129e612ca9565b604051634f27f8e760e01b815273__$a539d901bea57a4b73d19093d1e9882040$__90634f27f8e7906112dd9088908890889088908890600401614ca1565b60006040518083038186803b1580156112f557600080fd5b505af4158015611309573d6000803e3d6000fd5b505050505050505050565b61131c612d75565b73__$4ff30c53c077284d3b777228e6ae31216c$__6326e68cd43361134085612d09565b846040518463ffffffff1660e01b815260040161126293929190614cd8565b73__$2121826b9482dc4a95d5f1c5bc0ffbdf06$__63c20025058361138384612d09565b6040518363ffffffff1660e01b8152600401611262929190614d22565b60405163e70e767f60e01b815273__$722590fcf677171437eb48cf082465d6d7$__9063e70e767f90610e19908490600401614f34565b60405163a43ba5ab60e01b815273__$c7446ca28182994c6c0135601399c1b584$__9063a43ba5ab906112629060029086908690600401614f47565b604051631f463e2360e21b81526001600160a01b03831660048201523360248201526044810182905273__$c7446ca28182994c6c0135601399c1b584$__90637d18f88c90606401611262565b600073__$f7c9c0d01068167c22df35ff5943b62148$__630c7dcd1561148584612d09565b6040516001600160e01b031960e084901b1681526001600160401b0390911660048201526024015b602060405180830381865af41580156114ca573d6000803e3d6000fd5b505050506040513d601f19601f8201168201806040525081019061121b919061481a565b60405163fdf6b37560e01b81526001600160a01b038216600482015273__$4054b81dd018f00b16b0262e280b71bd3d$__9063fdf6b37590602401610e19565b611536612ca9565b7fec7e8c1c441439dd40959777f4c577ea0cd42fcc1dbe59d2bd0f5d9c55df8db7546040805163194307bf60e01b8152905160008051602061587b833981519152926001600160a01b03169163194307bf9160048083019260209291908290030181865afa1580156115ac573d6000803e3d6000fd5b505050506040513d601f19601f820116820180604052508101906115d09190614f71565b156116125760405162461bcd60e51b8152602060048201526012602482015271198b585cdcd95d081d195c9b5a5b985d195960721b6044820152606401610f73565b602401805467ffffffffffffffff19169055565b600061163182612e42565b546001600160a01b031692915050565b73__$2121826b9482dc4a95d5f1c5bc0ffbdf06$__630fec40b68361166584612d09565b6040518363ffffffff1660e01b8152600401611262929190614f8e565b61168a612d75565b60405163ed99865b60e01b815273__$d15fd82c1987b4adc4c1dba5cf0be762b0$__9063ed99865b906112629085908590600401615047565b60405163e4c5e4e960e01b81526001600160a01b038216600482015273__$8ed6b3b04009dff171844b9d72c92eddd0$__9063e4c5e4e990602401610e19565b604051630877cd8160e41b81526001600160a01b038216600482015273__$4054b81dd018f00b16b0262e280b71bd3d$__9063877cd81090602401610e19565b60405163195153e560e21b81526001600160a01b038216600482015273__$c7446ca28182994c6c0135601399c1b584$__906365454f9490602401610e19565b604051636e61164f60e01b81526001600160a01b0382166004820152600090819073__$c7446ca28182994c6c0135601399c1b584$__90636e61164f906024016040805180830381865af41580156117df573d6000803e3d6000fd5b505050506040513d601f19601f820116820180604052508101906118039190615071565b91509150915091565b73__$f7c9c0d01068167c22df35ff5943b62148$__6355c4ef8f8361138384612d09565b60405163778aadd560e01b81526001600160a01b0380841660048301528216602482015273__$8ed6b3b04009dff171844b9d72c92eddd0$__9063778aadd590604401611262565b6000611882612eea565b905090565b60405163825378af60e01b8152600481018390526024810182905260609060009073__$4054b81dd018f00b16b0262e280b71bd3d$__9063825378af90604401600060405180830381865af41580156118e4573d6000803e3d6000fd5b505050506040513d6000823e601f3d908101601f1916820160405261190c91908101906150c3565b915091505b9250929050565b611920612d75565b6040516366a1b64560e11b815273__$d15fd82c1987b4adc4c1dba5cf0be762b0$__9063cd436c8a9061195b908690869086906004016151a5565b60006040518083038186803b15801561197357600080fd5b505af4158015611987573d6000803e3d6000fd5b50505050505050565b611998612ca9565b60008051602061589b8339815191525460008051602061587b833981519152906001600160401b03166119f2576119ce42612d09565b60248201805467ffffffffffffffff19166001600160401b03929092169190911790555b50565b604080516105a081018252600080825260208201819052918101829052606081018290526080810182905260a0810182905260c0810182905260e08101829052610100810182905261012081018290526101408101829052610160810182905261018081018290526101a081018290526101c081018290526101e08101829052610200810182905261022081018290526102408101829052610260810182905261028081018290526102a081018290526102c081018290526102e08101829052610300810182905261032081018290526103408101829052610360810182905261038081018290526103a081018290526103c081018290526103e08101829052610400810182905261042081018290526104408101829052610460810182905261048081018290526104a081018290526104c081018290526104e081018290526105008101829052610520810182905261054081018290526105608101829052610580810191909152611b66612b24565b604080516105a08101825282546001600160a01b03908116825260018401548116602083015260028401548116928201929092526003830154821660608201526004830154821660808201526005830154821660a08201526006830154821660c08201526007830154821660e082015260088301548216610100820152600983015480831661012083015260ff600160a01b8083048216610140850152600160a81b808404831661016086015263ffffffff600160b01b9094048416610180860152600a8701549586166101a0860152818604831615156101c0860152850483166101e085015261ffff600160c81b9095048516610200850152600b8601546001600160401b03808216610220870152600160401b8083048216610240880152600160801b8084048316610260890152600160c01b938490048916610280890152600c8a01548084166102a08a015282810484166102c08a015281810490961615156102e0890152600160881b9095048216610300880152600d8901548083166103208901528181048916610340890152600160501b81048716610360890152600160701b81048716610380890152600160901b9081900483166103a0890152600e8a01546001600160801b038082166103c08b01528782048b166103e08b0152919004909816610400880152600f8901549788166104208801528488048216610440880152968290048116610460870152601088015480821661048088015287810482166104a088015293840481166104c0870152920482166104e08501526011860154808316610500860152948504909216610520840152600160601b840481166105408401529204821661056082015260129092015416610580820152919050565b604051632560e1bd60e01b815273__$8ed6b3b04009dff171844b9d72c92eddd0$__90632560e1bd90610e1990849060040161522c565b611e2a612c52565b60026000541415611e4d5760405162461bcd60e51b8152600401610f739061523f565b600260005573__$db99a4b0b1a8936beb7122d8143ea3b698$__634c1411578484611e7785612d09565b6040518463ffffffff1660e01b8152600401611e9593929190615276565b60006040518083038186803b158015611ead57600080fd5b505af4158015611ec1573d6000803e3d6000fd5b505060016000555050505050565b60405162cb3d5f60e31b81526001600160a01b0380841660048301528216602482015260009073__$c7446ca28182994c6c0135601399c1b584$__90630659eaf890604401602060405180830381865af4158015611f31573d6000803e3d6000fd5b505050506040513d601f19601f82011682018060405250810190611f559190614f71565b9392505050565b604051634ac26d1560e11b81526001600160a01b03831660048201526024810182905273__$4ff30c53c077284d3b777228e6ae31216c$__90639584da2a90604401611262565b611fab612ca9565b60405163234e32cb60e21b815273__$a539d901bea57a4b73d19093d1e9882040$__90638d38cb2c90610e199084906004016152b2565b60405163a07ea7af60e01b81526001600160a01b038216600482015273__$900ca2dd89aa7bd7c22612e1484fcfb277$__9063a07ea7af90602401610e19565b60405163364a99d160e21b815273__$900ca2dd89aa7bd7c22612e1484fcfb277$__9063d92a674490611262908590859060040161538d565b60405163b19aec1760e01b8152600481018390526024810182905260609060009073__$c7446ca28182994c6c0135601399c1b584$__9063b19aec17906044015b600060405180830381865af41580156120b9573d6000803e3d6000fd5b505050506040513d6000823e601f3d908101601f1916820160405261190c91908101906153a0565b606073__$a539d901bea57a4b73d19093d1e9882040$__638d19717a6040518163ffffffff1660e01b8152600401600060405180830381865af415801561212c573d6000803e3d6000fd5b505050506040513d6000823e601f3d908101601f191682016040526118829190810190615524565b6000611882612f08565b600260005414156121815760405162461bcd60e51b8152600401610f739061523f565b600260005561218e612eea565b6001600160a01b031663194307bf6040518163ffffffff1660e01b8152600401602060405180830381865afa1580156121cb573d6000803e3d6000fd5b505050506040513d601f19601f820116820180604052508101906121ef9190614f71565b6122345760405162461bcd60e51b8152602060048201526016602482015275198b585cdcd95d081b9bdd081d195c9b5a5b985d195960521b6044820152606401610f73565b604051635b457cbf60e11b81526001600160a01b038216600482015273__$8ed6b3b04009dff171844b9d72c92eddd0$__9063b68af97e9060240160006040518083038186803b15801561228757600080fd5b505af415801561229b573d6000803e3d6000fd5b50506001600055505050565b60405163b7f658ab60e01b81526001600160a01b038216600482015273__$55e854ab37cd1bbaf9fa5a4f99ff154ced$__9063b7f658ab90602401610e19565b6122ef612ca9565b60008051602061589b8339815191528054911515600160401b0268ff000000000000000019909216919091179055565b604051635d32bd1b60e11b81526001600160a01b038216600482015273__$8ed6b3b04009dff171844b9d72c92eddd0$__9063ba657a3690602401610e19565b600080600061236c612d75565b60405163bcbaf48760e01b81526001600160a01b03861660048201526024810185905273__$55e854ab37cd1bbaf9fa5a4f99ff154ced$__9063bcbaf48790604401606060405180830381865af41580156123cb573d6000803e3d6000fd5b505050506040513d601f19601f820116820180604052508101906123ef91906155d4565b919790965090945092505050565b612405612c52565b61240d612d75565b73__$f7c9c0d01068167c22df35ff5943b62148$__63f2821a62338561243286612d09565b61243b86612d09565b6040516001600160e01b031960e087901b1681526001600160a01b0394851660048201529390921660248401526001600160401b03908116604484015216606482015260840161195b565b600260005414156124a95760405162461bcd60e51b8152600401610f739061523f565b600260005573__$db99a4b0b1a8936beb7122d8143ea3b698$__63aeeb13a0836124d284612d09565b6040518363ffffffff1660e01b81526004016124ef929190614c76565b60006040518083038186803b15801561250757600080fd5b505af415801561251b573d6000803e3d6000fd5b5050600160005550505050565b604051636033a5a360e11b81526001600160a01b038216600482015273__$900ca2dd89aa7bd7c22612e1484fcfb277$__9063c0674b4690602401610e19565b612570612ca9565b604051631663f15960e11b815273__$a539d901bea57a4b73d19093d1e9882040$__90632cc7e2b290610e199084906004016152b2565b6000611f556125b584612e42565b83612f96565b600260005414156125de5760405162461bcd60e51b8152600401610f739061523f565b600260005573__$f7c9c0d01068167c22df35ff5943b62148$__632d984f758361260784612d09565b6040518363ffffffff1660e01b81526004016124ef929190614f8e565b61262c612d75565b60405162e1c50160e81b81526001600160a01b038216600482015273__$55e854ab37cd1bbaf9fa5a4f99ff154ced$__9063e1c5010090602401610e19565b6040516315302d6160e31b8152600481018390526024810182905260609060009073__$4054b81dd018f00b16b0262e280b71bd3d$__9063a9816b089060440161209c565b6040516331ec097760e01b815273__$df85e949fff37977e0d300eb10fcbb4998$__906331ec0977906112629085908590600401615602565b6126f1612d75565b60405163264becd360e21b815273__$d15fd82c1987b4adc4c1dba5cf0be762b0$__9063992fb34c9061195b90869086908690600401615626565b6060611882612ff0565b600080612741612b24565b600b81015490915061276c906001600160401b03600160401b8204811691600160801b900416615664565b6001600160401b031691505090565b604051630ed000b360e41b81526001600160a01b038085166004830152831660248201526044810182905273__$4ff30c53c077284d3b777228e6ae31216c$__9063ed000b309060640161195b565b60405163769bb15560e11b81526001600160a01b038216600482015260009073__$c7446ca28182994c6c0135601399c1b584$__9063ed3762aa906024016114ad565b604051630314945d60e41b815273__$1c6dbe76071682217e38af6fe7e8685bd4$__9063314945d090611262908590859060040161538d565b60405163f060b3f160e01b815273__$4ff30c53c077284d3b777228e6ae31216c$__9063f060b3f190612883908790879087908790600401615693565b60006040518083038186803b15801561289b57600080fd5b505af41580156128af573d6000803e3d6000fd5b5050505050505050565b60006128c3612b24565b546001600160a01b0316919050565b6128da612ca9565b6040516302fab52b60e01b815273__$498fae630e5f9e2b0d2f5a14b70bbf8a29$__906302fab52b9061195b908690869086906004016156d0565b612977604080516101408101909152806000815260200160006001600160a01b03168152602001600081526020016000815260200160001515815260200160608152602001606081526020016000815260200160008152602001600081525090565b6040516346532e0760e01b815273__$a539d901bea57a4b73d19093d1e9882040$__906346532e07906129b090869086906004016156ea565b600060405180830381865af41580156129cd573d6000803e3d6000fd5b505050506040513d6000823e601f3d908101601f19168201604052611f55919081019061570f565b604051637a68005960e11b81526001600160a01b038216600482015273__$c7446ca28182994c6c0135601399c1b584$__9063f4d000b290602401610e19565b60405163a43ba5ab60e01b815273__$c7446ca28182994c6c0135601399c1b584$__9063a43ba5ab906112629060009086908690600401614f47565b612a79612ca9565b6040516307eca6bd60e51b815273__$a539d901bea57a4b73d19093d1e9882040$__9063fd94d7a09061195b90869086908690600401614f47565b6000612abe612b24565b600801546040516001600160a01b039091169150600090829063439fab9190612aeb9086906024016143f8565b604051602081830303815290604052915060e01b6020820180516001600160e01b03838183161783525050505090506110548282612b36565b60008051602061587b83398151915290565b6060600080846001600160a01b031684604051612b539190615743565b600060405180830381855af49150503d8060008114612b8e576040519150601f19603f3d011682016040523d82523d6000602084013e612b93565b606091505b50915091508115612ba757915061121b9050565b3d604051818101604052816000823e8181fd5b7fec7e8c1c441439dd40959777f4c577ea0cd42fcc1dbe59d2bd0f5d9c55df8dd9547fec7e8c1c441439dd40959777f4c577ea0cd42fcc1dbe59d2bd0f5d9c55df8dc9805460009260008051602061587b833981519152929161ffff909116908110612c2857612c2861575f565b906000526020600020906004020191505090565b6000612c49826000613060565b50909392505050565b60008051602061589b83398151915254600160401b900460ff16612ca75760405162461bcd60e51b815260206004820152600c60248201526b1b9bdd08185d1d1858da195960a21b6044820152606401610f73565b565b612cb1612b24565b546001600160a01b03163314612ca75760405162461bcd60e51b815260206004820152601d60248201527f6f6e6c79206173736574206d616e6167657220636f6e74726f6c6c65720000006044820152606401610f73565b60006001600160401b03821115612d715760405162461bcd60e51b815260206004820152602660248201527f53616665436173743a2076616c756520646f65736e27742066697420696e203660448201526534206269747360d01b6064820152608401610f73565b5090565b6000612d7f612b24565b60048101549091506001600160a01b0316156119f257600481810154604051633af32abf60e01b815233928101929092526001600160a01b031690633af32abf90602401602060405180830381865afa158015612de0573d6000803e3d6000fd5b505050506040513d601f19601f82011682018060405250810190612e049190614f71565b6119f25760405162461bcd60e51b815260206004820152600f60248201526e1b9bdd081dda1a5d195b1a5cdd1959608a1b6044820152606401610f73565b7f5bebac0595fee029d42bb673937f5f1cb81cf8641382bc17774635de9b7d796568010000000000000000600160e01b03604083901b1618806000600483015460ff166002811115612e9657612e96613731565b1415612ee45760405162461bcd60e51b815260206004820152601b60248201527f696e76616c6964206167656e74207661756c74206164647265737300000000006044820152606401610f73565b50919050565b600080612ef5612b24565b600101546001600160a01b031692915050565b7fec7e8c1c441439dd40959777f4c577ea0cd42fcc1dbe59d2bd0f5d9c55df8dd9547fec7e8c1c441439dd40959777f4c577ea0cd42fcc1dbe59d2bd0f5d9c55df8dc9805460009260008051602061587b833981519152929161ffff909116908110612f7657612f7661575f565b60009182526020909120600490910201546001600160a01b031692915050565b600182015460009060008051602061587b833981519152906001600160a01b03908116908416811480612fe757506001600160a01b0380821660009081526016840160205260409020548582169116145b95945050505050565b60606000612ffc612b24565b600801546040805160048152602481019091526020810180516001600160e01b03166385b4bb5360e01b1790526001600160a01b0390911691506000613042838361321f565b9050808060200190518101906130589190615775565b935050505090565b6000806000806000806130ff88600101805461307b906157bd565b80601f01602080910402602001604051908101604052809291908181526020018280546130a7906157bd565b80156130f45780601f106130c9576101008083540402835291602001916130f4565b820191906000526020600020905b8154815290600101906020018083116130d757829003601f168201915b505050505088613233565b8a549295509093509150600160f01b900460ff161561314657875460009061313590600160a81b900460ff16600183878661336f565b965091945084935061321892505050565b60008060006131e18b600201805461315d906157bd565b80601f0160208091040260200160405190810160405280929190818152602001828054613189906157bd565b80156131d65780601f106131ab576101008083540402835291602001916131d6565b820191906000526020600020905b8154815290600101906020018083116131b957829003601f168201915b50505050508b613233565b8d54929550909350915060009061320590600160a81b900460ff1685848a8961336f565b9950949750909550613218945050505050565b9250925092565b6060612b3680612fe7858563ffffffff8416565b600080600080613241612b24565b60098101546040516325f69abd60e21b81529192506000916001600160a01b03909116906397da6af490613279908a906004016143f8565b602060405180830381865afa158015613296573d6000803e3d6000fd5b505050506040513d601f19601f820116820180604052508101906132ba91906157f2565b9050851561333157806001600160a01b0316633cacb3ae6040518163ffffffff1660e01b8152600401606060405180830381865afa158015613300573d6000803e3d6000fd5b505050506040513d601f19601f8201168201806040525081019061332491906155d4565b9450945094505050613218565b806001600160a01b03166365f5cd866040518163ffffffff1660e01b8152600401606060405180830381865afa158015613300573d6000803e3d6000fd5b60008061337a612b24565b90506000600961338a878a6147ce565b61339491906147ce565b60098301549091506000906133b4908690600160a81b900460ff166147ce565b9050808210156133c6576133c661580f565b6133e66133d38284615825565b6133de90600a61466c565b87908a6133f3565b9998505050505050505050565b60008082116134375760405162461bcd60e51b815260206004820152601060248201526f4469766973696f6e206279207a65726f60801b6044820152606401610f73565b8361344457506000611f55565b838302838582816134575761345761583c565b0414156134765782818161346d5761346d61583c565b04915050611f55565b5060006134838386615852565b905060006134918487615866565b9050600061349f8587615852565b905060006134ad8688615866565b9050856134ba8285614678565b6134c49190615852565b6134ce8385614678565b6134d88387614678565b886134e38689614678565b6134ed9190614678565b6134f791906147ce565b61350191906147ce565b61350b91906147ce565b98975050505050505050565b60006101408284031215612ee457600080fd5b60006020828403121561353c57600080fd5b81356001600160401b0381111561355257600080fd5b61355e84828501613517565b949350505050565b6001600160a01b03811681146119f257600080fd5b60006020828403121561358d57600080fd5b8135611f5581613566565b80356135a381613566565b919050565b634e487b7160e01b600052604160045260246000fd5b6040516104c081016001600160401b03811182821017156135e1576135e16135a8565b60405290565b60405160a081016001600160401b03811182821017156135e1576135e16135a8565b60405161014081016001600160401b03811182821017156135e1576135e16135a8565b604051601f8201601f191681016001600160401b0381118282101715613654576136546135a8565b604052919050565b60006001600160401b03821115613675576136756135a8565b50601f01601f191660200190565b600082601f83011261369457600080fd5b81356136a76136a28261365c565b61362c565b8181528460208386010111156136bc57600080fd5b816020850160208301376000918101602001919091529392505050565b6000806000606084860312156136ee57600080fd5b83356136f981613566565b925060208401356001600160401b0381111561371457600080fd5b61372086828701613683565b925050604084013590509250925092565b634e487b7160e01b600052602160045260246000fd5b6005811061375757613757613731565b9052565b60005b8381101561377657818101518382015260200161375e565b838111156110545750506000910152565b6000815180845261379f81602086016020860161375b565b601f01601f19169290920160200192915050565b602081526137c5602082018351613747565b600060208301516137e160408401826001600160a01b03169052565b5060408301516001600160a01b03811660608401525060608301516001600160a01b03811660808401525060808301516104c08060a08501526138286104e0850183613787565b915060a085015161383d60c086018215159052565b5060c085015160e085015260e0850151610100818187015280870151915050610120613873818701836001600160a01b03169052565b8601516101408681019190915286015161016080870191909152860151610180808701919091528601516101a0808701919091528601516101c0808701919091528601516101e08087019190915286015161020080870191909152860151610220808701919091528601516102408087019190915286015161026080870191909152860151610280808701919091528601516102a0808701919091528601516102c0808701919091528601516102e08087019190915286015161030080870191909152860151610320808701919091528601516103408087019190915286015161036080870191909152860151610380808701919091528601516103a0808701919091528601516103c0808701919091528601516103e08087019190915286015161040080870191909152860151610420808701919091528601516104408087019190915286015161046080870191909152860151610480808701919091528601516104a0808701919091529095015193019290925250919050565b60006101c08284031215612ee457600080fd5b60008060408385031215613a1557600080fd5b82356001600160401b03811115613a2b57600080fd5b613a37858286016139ef565b95602094909401359450505050565b600381106119f257600080fd5b80356135a381613a46565b600080600080600060a08688031215613a7657600080fd5b8535613a8181613a46565b94506020860135613a9181613566565b94979496505050506040830135926060810135926080909101359150565b60008060408385031215613ac257600080fd5b8235915060208301356001600160401b03811115613adf57600080fd5b613aeb85828601613683565b9150509250929050565b60008060408385031215613b0857600080fd5b82356001600160401b03811115613b1e57600080fd5b83016101608186031215613b3157600080fd5b946020939093013593505050565b60006101008284031215612ee457600080fd5b600060208284031215613b6457600080fd5b81356001600160401b03811115613b7a57600080fd5b61355e84828501613b3f565b60008060408385031215613b9957600080fd5b8235613b3181613566565b600060208284031215613bb657600080fd5b5035919050565b60008060408385031215613bd057600080fd5b82356001600160401b03811115613be657600080fd5b613a3785828601613b3f565b60006101208284031215612ee457600080fd5b60008060408385031215613c1857600080fd5b82356001600160401b03811115613c2e57600080fd5b613c3a85828601613bf2565b9250506020830135613c4b81613566565b809150509250929050565b60008060408385031215613c6957600080fd5b8235613c7481613566565b91506020830135613c4b81613566565b60008060408385031215613c9757600080fd5b50508035926020909101359150565b6040808252835182820181905260009190606090818501906020808901865b83811015613d1057815180516001600160a01b031686528381015184870152878101518887015286810151878701526080908101519086015260a09094019390820190600101613cc5565b505095909501959095525092949350505050565b600080600060408486031215613d3957600080fd5b83356001600160401b0380821115613d5057600080fd5b818601915086601f830112613d6457600080fd5b813581811115613d7357600080fd5b8760208260051b8501011115613d8857600080fd5b60209283019550935050840135613d9e81613566565b809150509250925092565b81516001600160a01b031681526105a081016020830151613dd560208401826001600160a01b03169052565b506040830151613df060408401826001600160a01b03169052565b506060830151613e0b60608401826001600160a01b03169052565b506080830151613e2660808401826001600160a01b03169052565b5060a0830151613e4160a08401826001600160a01b03169052565b5060c0830151613e5c60c08401826001600160a01b03169052565b5060e0830151613e7760e08401826001600160a01b03169052565b50610100838101516001600160a01b0390811691840191909152610120808501518216908401526101408085015160ff9081169185019190915261016080860151909116908401526101808085015163ffffffff908116918501919091526101a080860151909216918401919091526101c0808501511515908401526101e0808501518216908401526102008085015161ffff90811691850191909152610220808601516001600160401b03908116918601919091526102408087015182169086015261026080870151821690860152610280808701518316908601526102a0808701518216908601526102c0808701518216908601526102e08087015115159086015261030080870151821690860152610320808701518216908601526103408087015183169086015261036080870151841690860152610380808701518416908601526103a0808701518216908601526103c0808701516001600160801b03908116918701919091526103e080880151841690870152610400808801519093169286019290925261042080870151909216918501919091526104408086015182169085015261046080860151821690850152610480808601518216908501526104a0808601518216908501526104c0808601518216908501526104e08086015182169085015261050080860151821690850152610520808601519092169184019190915261054080850151821690840152610560808501518216908401526105809384015116929091019190915290565b6000602082840312156140bc57600080fd5b81356001600160401b038111156140d257600080fd5b61355e848285016139ef565b6000806000606084860312156140f357600080fd5b83356001600160401b0381111561410957600080fd5b614115868287016139ef565b935050602084013561412681613566565b929592945050506040919091013590565b6000806040838503121561414a57600080fd5b82356001600160401b0381111561416057600080fd5b613c3a858286016139ef565b604080825283519082018190526000906020906060840190828701845b828110156141ae5781516001600160a01b031684529284019290840190600101614189565b50505092019290925292915050565b600381106119f2576119f2613731565b613757816141bd565b60006101406141e68484516141cd565b602083015161420060208601826001600160a01b03169052565b5060408301516040850152606083015160608501526080830151614228608086018215159052565b5060a08301518160a086015261424082860182613787565b91505060c083015184820360c086015261425a8282613787565b60e085810151908701526101008086015190870152610120948501519490950193909352509192915050565b6000602080830181845280855180835260408601915060408160051b870101925083870160005b828110156142db57603f198886030184526142c98583516141d6565b945092850192908501906001016142ad565b5092979650505050505050565b80151581146119f257600080fd5b80356135a3816142e8565b60006020828403121561431357600080fd5b8135611f55816142e8565b60008060006060848603121561433357600080fd5b833561433e81613566565b95602085013595506040909401359392505050565b6000806040838503121561436657600080fd5b823561437181613566565b915060208301356001600160401b03811115613adf57600080fd5b6000806000606084860312156143a157600080fd5b83356001600160401b03808211156143b857600080fd5b6143c487838801613bf2565b945060208601359150808211156143da57600080fd5b506143e786828701613bf2565b9250506040840135613d9e81613566565b602081526000611f556020830184613787565b60008060006060848603121561442057600080fd5b833561442b81613566565b9250602084013561412681613566565b6000806000806080858703121561445157600080fd5b843561445c81613566565b9350602085013561446c81613566565b92506040850135915060608501356001600160401b0381111561448e57600080fd5b61449a87828801613683565b91505092959194509250565b6000806000604084860312156144bb57600080fd5b8335925060208401356001600160401b03808211156144d957600080fd5b818601915086601f8301126144ed57600080fd5b8135818111156144fc57600080fd5b87602082850101111561450e57600080fd5b6020830194508093505050509250925092565b6000806040838503121561453457600080fd5b8235613c7481613a46565b602081526000611f5560208301846141d6565b60008060006060848603121561456757600080fd5b833561442b81613a46565b634e487b7160e01b600052601160045260246000fd5b600181815b808511156145c35781600019048211156145a9576145a9614572565b808516156145b657918102915b93841c939080029061458d565b509250929050565b6000826145da5750600161121b565b816145e75750600061121b565b81600181146145fd576002811461460757614623565b600191505061121b565b60ff84111561461857614618614572565b50506001821b61121b565b5060208310610133831016604e8410600b8410161715614646575081810a61121b565b6146508383614588565b806000190482111561466457614664614572565b029392505050565b6000611f5583836145cb565b600081600019048311821515161561469257614692614572565b500290565b6000808335601e198436030181126146ae57600080fd5b83016020810192503590506001600160401b038111156146cd57600080fd5b80360383131561191157600080fd5b81835281816020850137506000828201602090810191909152601f909101601f19169091010190565b61470e846141bd565b8381526001600160a01b03831660208201526060604082015260006147338380614697565b61014080606086015261474b6101a0860183856146dc565b925061475960208701613598565b6001600160a01b03811660808701529150604086013560a0860152606086013560c0860152608086013560e0860152610100915060a08601358286015261012060c08701358187015260e087013582870152828701356101608701528087013561018087015250505080915050949350505050565b600082198211156147e1576147e1614572565b500190565b6001600160a01b038416815260606020820181905260009061480a90830185613787565b9050826040830152949350505050565b60006020828403121561482c57600080fd5b5051919050565b8051600581106135a357600080fd5b80516135a381613566565b600061485b6136a28461365c565b905082815283838301111561486f57600080fd5b611f5583602083018461375b565b600082601f83011261488e57600080fd5b611f558383516020850161484d565b80516135a3816142e8565b6000602082840312156148ba57600080fd5b81516001600160401b03808211156148d157600080fd5b908301906104c082860312156148e657600080fd5b6148ee6135be565b6148f783614833565b815261490560208401614842565b602082015261491660408401614842565b604082015261492760608401614842565b606082015260808301518281111561493e57600080fd5b61494a8782860161487d565b60808301525061495c60a0840161489d565b60a082015260c083015160c082015260e083015160e08201526101009150614985828401614842565b9181019190915261012082810151908201526101408083015190820152610160808301519082015261018080830151908201526101a080830151908201526101c080830151908201526101e08083015190820152610200808301519082015261022080830151908201526102408083015190820152610260808301519082015261028080830151908201526102a080830151908201526102c080830151908201526102e08083015190820152610300808301519082015261032080830151908201526103408083015190820152610360808301519082015261038080830151908201526103a080830151908201526103c080830151908201526103e08083015190820152610400808301519082015261042080830151908201526104408083015190820152610460808301519082015261048080830151908201526104a091820151918101919091529392505050565b6000808335601e19843603018112614aec57600080fd5b83016020810192503590506001600160401b03811115614b0b57600080fd5b8060051b360383131561191157600080fd5b81835260006001600160fb1b03831115614b3657600080fd5b8260051b8083602087013760009401602001938452509192915050565b80356001600160401b03811681146135a357600080fd5b803560ff811681146135a357600080fd5b60006101c082358452614b916020840184614ad5565b826020870152614ba48387018284614b1d565b92505050614bb460408401614b53565b6001600160401b03166040850152614bce60608401614b53565b6001600160401b0316606085015260808381013590850152614bf260a08401614b6a565b60ff1660a0850152614c0660c08401614b6a565b60ff1660c085015260e083810135908501526101008084013590850152610120808401359085015261014080840135908501526101608084013590850152610180614c528185016142f6565b1515908501526101a0614c66848201614b6a565b60ff169401939093525090919050565b604081526000614c896040830185614b7b565b90506001600160401b03831660208301529392505050565b60a08101614cae876141bd565b9581526001600160a01b039490941660208501526040840192909252606083015260809091015290565b6001600160a01b03841681526001600160401b0383166020820152606060408201819052600090612fe790830184613787565b80356001600160801b03811681146135a357600080fd5b60408152823560408201526000614d3c6020850185614ad5565b610160806060860152614d546101a086018385614b1d565b9250614d6260408801614b53565b6001600160401b03811660808701529150614d7f60608801614b53565b6001600160401b03811660a08701529150608087013560c086015260a087013560e0860152614db060c08801614d0b565b9150610100614dc9818701846001600160801b03169052565b614dd560e08901614b53565b9250610120614dee818801856001600160401b03169052565b614df9828a01614b53565b93506101409150614e14828801856001600160401b03169052565b614e1f818a01614b53565b935050614e36828701846001600160401b03169052565b614e41818901614b53565b92505050614e5b6101808501826001600160401b03169052565b506001600160401b03841660208401529050611f55565b600061010082358452614e886020840184614ad5565b826020870152614e9b8387018284614b1d565b92505050614eab60408401614b53565b6001600160401b03808216604087015280614ec860608701614b53565b16606087015260ff614edc60808701614b6a565b16608087015280614eef60a08701614b53565b1660a08701525050614f0360c08401614b53565b6001600160401b031660c0850152614f1d60e08401614b53565b6001600160401b03811660e0860152509392505050565b602081526000611f556020830184614e72565b60608101614f54856141bd565b9381526001600160a01b0392909216602083015260409091015290565b600060208284031215614f8357600080fd5b8151611f55816142e8565b604081526000614c896040830185614e72565b600061012082358452614fb76020840184614ad5565b826020870152614fca8387018284614b1d565b925050506001600160401b03614fe260408501614b53565b166040850152614ff460608401614b53565b6001600160401b031660608501526080838101359085015261501860a08401614b6a565b60ff1660a085015260c0838101359085015260e080840135908501526101009283013592909301919091525090565b60408152600061505a6040830185614fa1565b905060018060a01b03831660208301529392505050565b6000806040838503121561508457600080fd5b825161508f81613566565b6020840151909250613c4b81613566565b60006001600160401b038211156150b9576150b96135a8565b5060051b60200190565b60008060408084860312156150d757600080fd5b83516001600160401b038111156150ed57600080fd5b8401601f810186136150fe57600080fd5b8051602061510e6136a2836150a0565b82815260a0928302840182019282820191908a85111561512d57600080fd5b948301945b848610156151925780868c03121561514a5760008081fd5b6151526135e7565b865161515d81613566565b815286850151858201528787015188820152606080880151908201526080808801519082015283529485019491830191615132565b5097909101519698969750505050505050565b6040808252810183905260006060600585901b830181019083018683805b8881101561520b57868503605f190184528235368b900361011e190181126151e9578283fd5b6151f5868c8301614fa1565b95505060209384019392909201916001016151c3565b505050506001600160a01b0393909316602092909201919091525092915050565b602081526000611f556020830184614b7b565b6020808252601f908201527f5265656e7472616e637947756172643a207265656e7472616e742063616c6c00604082015260600190565b6060815260006152896060830186614b7b565b6001600160a01b03949094166020830152506001600160401b0391909116604090910152919050565b602081526152cb602082016152c684613a53565b6141cd565b60006152d960208401613598565b6001600160a01b0381166040840152506040830135606083015260608301356080830152615309608084016142f6565b80151560a08401525061531f60a0840184614697565b6101408060c0860152615337610160860183856146dc565b925061534660c0870187614697565b868503601f190160e0880152925061535f8484836146dc565b60e0880135610100888101919091528801356101208089019190915290970135919095015250929392505050565b60408152600061505a6040830185614b7b565b600080604083850312156153b357600080fd5b82516001600160401b038111156153c957600080fd5b8301601f810185136153da57600080fd5b805160206153ea6136a2836150a0565b82815260059290921b8301810191818101908884111561540957600080fd5b938201935b8385101561543057845161542181613566565b8252938201939082019061540e565b969091015195979596505050505050565b80516135a381613a46565b6000610140828403121561545f57600080fd5b615467613609565b905061547282615441565b815261548060208301614842565b602082015260408201516040820152606082015160608201526154a56080830161489d565b608082015260a08201516001600160401b03808211156154c457600080fd5b6154d08583860161487d565b60a084015260c08401519150808211156154e957600080fd5b506154f68482850161487d565b60c08301525060e082015160e082015261010080830151818301525061012080830151818301525092915050565b6000602080838503121561553757600080fd5b82516001600160401b038082111561554e57600080fd5b818501915085601f83011261556257600080fd5b81516155706136a2826150a0565b81815260059190911b8301840190848101908883111561558f57600080fd5b8585015b838110156155c7578051858111156155ab5760008081fd5b6155b98b89838a010161544c565b845250918601918601615593565b5098975050505050505050565b6000806000606084860312156155e957600080fd5b8351925060208401519150604084015190509250925092565b6001600160a01b038316815260406020820181905260009061355e90830184613787565b6060815260006156396060830186614fa1565b828103602084015261564b8186614fa1565b91505060018060a01b0383166040830152949350505050565b60006001600160401b038083168185168183048111821515161561568a5761568a614572565b02949350505050565b6001600160a01b03858116825284166020820152604081018390526080606082018190526000906156c690830184613787565b9695505050505050565b838152604060208201526000612fe76040830184866146dc565b604081016156f7846141bd565b9281526001600160a01b039190911660209091015290565b60006020828403121561572157600080fd5b81516001600160401b0381111561573757600080fd5b61355e8482850161544c565b6000825161575581846020870161375b565b9190910192915050565b634e487b7160e01b600052603260045260246000fd5b60006020828403121561578757600080fd5b81516001600160401b0381111561579d57600080fd5b8201601f810184136157ae57600080fd5b61355e8482516020840161484d565b600181811c908216806157d157607f821691505b60208210811415612ee457634e487b7160e01b600052602260045260246000fd5b60006020828403121561580457600080fd5b8151611f5581613566565b634e487b7160e01b600052600160045260246000fd5b60008282101561583757615837614572565b500390565b634e487b7160e01b600052601260045260246000fd5b6000826158615761586161583c565b500490565b6000826158755761587561583c565b50069056feec7e8c1c441439dd40959777f4c577ea0cd42fcc1dbe59d2bd0f5d9c55df8db6ec7e8c1c441439dd40959777f4c577ea0cd42fcc1dbe59d2bd0f5d9c55df8ddaa26469706673582212204338013fa62d0b869205967fa7216e4c0dcc51098420dae118e61617bae76d4964736f6c634300080b0033",
  "linkReferences": {
    "contracts/fasset/library/AgentSettingsUpdater.sol": {
      "AgentSettingsUpdater": [
        {
          "length": 20,
          "start": 7786
        },
        {
          "length": 20,
          "start": 13634
        }
      ]
    },
    "contracts/fasset/library/AgentsCreateDestroy.sol": {
      "AgentsCreateDestroy": [
        {
          "length": 20,
          "start": 7279
        },
        {
          "length": 20,
          "start": 9572
        },
        {
          "length": 20,
          "start": 9945
        },
        {
          "length": 20,
          "start": 11389
        },
        {
          "length": 20,
          "start": 12501
        },
        {
          "length": 20,
          "start": 12736
        }
      ]
    },
    "contracts/fasset/library/AgentsExternal.sol": {
      "AgentsExternal": [
        {
          "length": 20,
          "start": 7475
        },
        {
          "length": 20,
          "start": 8809
        },
        {
          "length": 20,
          "start": 8897
        },
        {
          "length": 20,
          "start": 9700
        },
        {
          "length": 20,
          "start": 9769
        },
        {
          "length": 20,
          "start": 11642
        },
        {
          "length": 20,
          "start": 12033
        },
        {
          "length": 20,
          "start": 13934
        },
        {
          "length": 20,
          "start": 14486
        },
        {
          "length": 20,
          "start": 14535
        }
      ]
    },
    "contracts/fasset/library/AvailableAgents.sol": {
      "AvailableAgents": [
        {
          "length": 20,
          "start": 7405
        },
        {
          "length": 20,
          "start": 9103
        },
        {
          "length": 20,
          "start": 9636
        },
        {
          "length": 20,
          "start": 10029
        },
        {
          "length": 20,
          "start": 13585
        }
      ]
    },
    "contracts/fasset/library/Challenges.sol": {
      "Challenges": [
        {
          "length": 20,
          "start": 9500
        },
        {
          "length": 20,
          "start": 10162
        },
        {
          "length": 20,
          "start": 13699
        }
      ]
    },
    "contracts/fasset/library/CollateralReservations.sol": {
      "CollateralReservations": [
        {
          "length": 20,
          "start": 8935
        },
        {
          "length": 20,
          "start": 9873
        },
        {
          "length": 20,
          "start": 12946
        },
        {
          "length": 20,
          "start": 13416
        }
      ]
    },
    "contracts/fasset/library/CollateralTokens.sol": {
      "CollateralTokens": [
        {
          "length": 20,
          "start": 177
        },
        {
          "length": 20,
          "start": 8496
        },
        {
          "length": 20,
          "start": 11837
        },
        {
          "length": 20,
          "start": 12136
        },
        {
          "length": 20,
          "start": 13314
        },
        {
          "length": 20,
          "start": 14345
        },
        {
          "length": 20,
          "start": 14603
        }
      ]
    },
    "contracts/fasset/library/FullAgentInfo.sol": {
      "FullAgentInfo": [
        {
          "length": 20,
          "start": 8252
        }
      ]
    },
    "contracts/fasset/library/Liquidation.sol": {
      "Liquidation": [
        {
          "length": 20,
          "start": 12616
        },
        {
          "length": 20,
          "start": 12820
        },
        {
          "length": 20,
          "start": 13516
        }
      ]
    },
    "contracts/fasset/library/Minting.sol": {
      "Minting": [
        {
          "length": 20,
          "start": 11479
        },
        {
          "length": 20,
          "start": 13107
        }
      ]
    },
    "contracts/fasset/library/RedemptionConfirmations.sol": {
      "RedemptionConfirmations": [
        {
          "length": 20,
          "start": 8358
        }
      ]
    },
    "contracts/fasset/library/RedemptionFailures.sol": {
      "RedemptionFailures": [
        {
          "length": 20,
          "start": 8676
        },
        {
          "length": 20,
          "start": 9414
        }
      ]
    },
    "contracts/fasset/library/RedemptionRequests.sol": {
      "RedemptionRequests": [
        {
          "length": 20,
          "start": 8609
        },
        {
          "length": 20,
          "start": 11780
        },
        {
          "length": 20,
          "start": 13867
        },
        {
          "length": 20,
          "start": 14040
        }
      ]
    },
    "contracts/fasset/library/SettingsUpdater.sol": {
      "SettingsUpdater": [
        {
          "length": 20,
          "start": 72
        },
        {
          "length": 20,
          "start": 14188
        }
      ]
    },
    "contracts/fasset/library/StateUpdater.sol": {
      "StateUpdater": [
        {
          "length": 20,
          "start": 8754
        }
      ]
    },
    "contracts/fasset/library/UnderlyingBalance.sol": {
      "UnderlyingBalance": [
        {
          "length": 20,
          "start": 13983
        }
      ]
    },
    "contracts/fasset/library/UnderlyingWithdrawalAnnouncements.sol": {
      "UnderlyingWithdrawalAnnouncements": [
        {
          "length": 20,
          "start": 11907
        },
        {
          "length": 20,
          "start": 11956
        },
        {
          "length": 20,
          "start": 13257
        }
      ]
    }
  },
  "deployedLinkReferences": {
    "contracts/fasset/library/AgentSettingsUpdater.sol": {
      "AgentSettingsUpdater": [
        {
          "length": 20,
          "start": 4071
        },
        {
          "length": 20,
          "start": 9919
        }
      ]
    },
    "contracts/fasset/library/AgentsCreateDestroy.sol": {
      "AgentsCreateDestroy": [
        {
          "length": 20,
          "start": 3564
        },
        {
          "length": 20,
          "start": 5857
        },
        {
          "length": 20,
          "start": 6230
        },
        {
          "length": 20,
          "start": 7674
        },
        {
          "length": 20,
          "start": 8786
        },
        {
          "length": 20,
          "start": 9021
        }
      ]
    },
    "contracts/fasset/library/AgentsExternal.sol": {
      "AgentsExternal": [
        {
          "length": 20,
          "start": 3760
        },
        {
          "length": 20,
          "start": 5094
        },
        {
          "length": 20,
          "start": 5182
        },
        {
          "length": 20,
          "start": 5985
        },
        {
          "length": 20,
          "start": 6054
        },
        {
          "length": 20,
          "start": 7927
        },
        {
          "length": 20,
          "start": 8318
        },
        {
          "length": 20,
          "start": 10219
        },
        {
          "length": 20,
          "start": 10771
        },
        {
          "length": 20,
          "start": 10820
        }
      ]
    },
    "contracts/fasset/library/AvailableAgents.sol": {
      "AvailableAgents": [
        {
          "length": 20,
          "start": 3690
        },
        {
          "length": 20,
          "start": 5388
        },
        {
          "length": 20,
          "start": 5921
        },
        {
          "length": 20,
          "start": 6314
        },
        {
          "length": 20,
          "start": 9870
        }
      ]
    },
    "contracts/fasset/library/Challenges.sol": {
      "Challenges": [
        {
          "length": 20,
          "start": 5785
        },
        {
          "length": 20,
          "start": 6447
        },
        {
          "length": 20,
          "start": 9984
        }
      ]
    },
    "contracts/fasset/library/CollateralReservations.sol": {
      "CollateralReservations": [
        {
          "length": 20,
          "start": 5220
        },
        {
          "length": 20,
          "start": 6158
        },
        {
          "length": 20,
          "start": 9231
        },
        {
          "length": 20,
          "start": 9701
        }
      ]
    },
    "contracts/fasset/library/CollateralTokens.sol": {
      "CollateralTokens": [
        {
          "length": 20,
          "start": 4781
        },
        {
          "length": 20,
          "start": 8122
        },
        {
          "length": 20,
          "start": 8421
        },
        {
          "length": 20,
          "start": 9599
        },
        {
          "length": 20,
          "start": 10630
        },
        {
          "length": 20,
          "start": 10888
        }
      ]
    },
    "contracts/fasset/library/FullAgentInfo.sol": {
      "FullAgentInfo": [
        {
          "length": 20,
          "start": 4537
        }
      ]
    },
    "contracts/fasset/library/Liquidation.sol": {
      "Liquidation": [
        {
          "length": 20,
          "start": 8901
        },
        {
          "length": 20,
          "start": 9105
        },
        {
          "length": 20,
          "start": 9801
        }
      ]
    },
    "contracts/fasset/library/Minting.sol": {
      "Minting": [
        {
          "length": 20,
          "start": 7764
        },
        {
          "length": 20,
          "start": 9392
        }
      ]
    },
    "contracts/fasset/library/RedemptionConfirmations.sol": {
      "RedemptionConfirmations": [
        {
          "length": 20,
          "start": 4643
        }
      ]
    },
    "contracts/fasset/library/RedemptionFailures.sol": {
      "RedemptionFailures": [
        {
          "length": 20,
          "start": 4961
        },
        {
          "length": 20,
          "start": 5699
        }
      ]
    },
    "contracts/fasset/library/RedemptionRequests.sol": {
      "RedemptionRequests": [
        {
          "length": 20,
          "start": 4894
        },
        {
          "length": 20,
          "start": 8065
        },
        {
          "length": 20,
          "start": 10152
        },
        {
          "length": 20,
          "start": 10325
        }
      ]
    },
    "contracts/fasset/library/SettingsUpdater.sol": {
      "SettingsUpdater": [
        {
          "length": 20,
          "start": 10473
        }
      ]
    },
    "contracts/fasset/library/StateUpdater.sol": {
      "StateUpdater": [
        {
          "length": 20,
          "start": 5039
        }
      ]
    },
    "contracts/fasset/library/UnderlyingBalance.sol": {
      "UnderlyingBalance": [
        {
          "length": 20,
          "start": 10268
        }
      ]
    },
    "contracts/fasset/library/UnderlyingWithdrawalAnnouncements.sol": {
      "UnderlyingWithdrawalAnnouncements": [
        {
          "length": 20,
          "start": 8192
        },
        {
          "length": 20,
          "start": 8241
        },
        {
          "length": 20,
          "start": 9542
        }
      ]
    }
  }
}