{
  "_format": "hh-sol-artifact-1",
  "contractName": "AssetManager",
  "sourceName": "contracts/fasset/implementation/AssetManager.sol",
  "abi": [
    {
      "inputs": [
        {
          "components": [
            {
              "internalType": "address",
              "name": "assetManagerController",
              "type": "address"
            },
            {
              "internalType": "address",
              "name": "fAsset",
              "type": "address"
            },
            {
              "internalType": "address",
              "name": "agentVaultFactory",
              "type": "address"
            },
            {
              "internalType": "address",
              "name": "collateralPoolFactory",
              "type": "address"
            },
            {
              "internalType": "address",
              "name": "collateralPoolTokenFactory",
              "type": "address"
            },
            {
              "internalType": "address",
              "name": "whitelist",
              "type": "address"
            },
            {
              "internalType": "address",
              "name": "agentWhitelist",
              "type": "address"
            },
            {
              "internalType": "address",
              "name": "scProofVerifier",
              "type": "address"
            },
            {
              "internalType": "address",
              "name": "underlyingAddressValidator",
              "type": "address"
            },
            {
              "internalType": "address",
              "name": "liquidationStrategy",
              "type": "address"
            },
            {
              "internalType": "address payable",
              "name": "burnAddress",
              "type": "address"
            },
            {
              "internalType": "address",
              "name": "priceReader",
              "type": "address"
            },
            {
              "internalType": "uint8",
              "name": "assetDecimals",
              "type": "uint8"
            },
            {
              "internalType": "uint8",
              "name": "assetMintingDecimals",
              "type": "uint8"
            },
            {
              "internalType": "uint32",
              "name": "chainId",
              "type": "uint32"
            },
            {
              "internalType": "uint32",
              "name": "averageBlockTimeMS",
              "type": "uint32"
            },
            {
              "internalType": "uint32",
              "name": "mintingPoolHoldingsRequiredBIPS",
              "type": "uint32"
            },
            {
              "internalType": "uint16",
              "name": "collateralReservationFeeBIPS",
              "type": "uint16"
            },
            {
              "internalType": "uint64",
              "name": "assetUnitUBA",
              "type": "uint64"
            },
            {
              "internalType": "uint64",
              "name": "assetMintingGranularityUBA",
              "type": "uint64"
            },
            {
              "internalType": "uint64",
              "name": "lotSizeAMG",
              "type": "uint64"
            },
            {
              "internalType": "uint16",
              "name": "minUnderlyingBackingBIPS",
              "type": "uint16"
            },
            {
              "internalType": "bool",
              "name": "requireEOAAddressProof",
              "type": "bool"
            },
            {
              "internalType": "uint64",
              "name": "mintingCapAMG",
              "type": "uint64"
            },
            {
              "internalType": "uint64",
              "name": "underlyingBlocksForPayment",
              "type": "uint64"
            },
            {
              "internalType": "uint64",
              "name": "underlyingSecondsForPayment",
              "type": "uint64"
            },
            {
              "internalType": "uint16",
              "name": "redemptionFeeBIPS",
              "type": "uint16"
            },
            {
              "internalType": "uint32",
              "name": "redemptionDefaultFactorAgentC1BIPS",
              "type": "uint32"
            },
            {
              "internalType": "uint32",
              "name": "redemptionDefaultFactorPoolBIPS",
              "type": "uint32"
            },
            {
              "internalType": "uint64",
              "name": "confirmationByOthersAfterSeconds",
              "type": "uint64"
            },
            {
              "internalType": "uint128",
              "name": "confirmationByOthersRewardUSD5",
              "type": "uint128"
            },
            {
              "internalType": "uint16",
              "name": "maxRedeemedTickets",
              "type": "uint16"
            },
            {
              "internalType": "uint16",
              "name": "paymentChallengeRewardBIPS",
              "type": "uint16"
            },
            {
              "internalType": "uint128",
              "name": "paymentChallengeRewardUSD5",
              "type": "uint128"
            },
            {
              "internalType": "uint64",
              "name": "withdrawalWaitMinSeconds",
              "type": "uint64"
            },
            {
              "internalType": "uint64",
              "name": "maxTrustedPriceAgeSeconds",
              "type": "uint64"
            },
            {
              "internalType": "uint64",
              "name": "ccbTimeSeconds",
              "type": "uint64"
            },
            {
              "internalType": "uint64",
              "name": "attestationWindowSeconds",
              "type": "uint64"
            },
            {
              "internalType": "uint64",
              "name": "minUpdateRepeatTimeSeconds",
              "type": "uint64"
            },
            {
              "internalType": "uint64",
              "name": "buybackCollateralFactorBIPS",
              "type": "uint64"
            },
            {
              "internalType": "uint64",
              "name": "announcedUnderlyingConfirmationMinSeconds",
              "type": "uint64"
            },
            {
              "internalType": "uint64",
              "name": "tokenInvalidationTimeMinSeconds",
              "type": "uint64"
            },
            {
              "internalType": "uint32",
              "name": "class1BuyForFlareFactorBIPS",
              "type": "uint32"
            },
            {
              "internalType": "uint64",
              "name": "agentExitAvailableTimelockSeconds",
              "type": "uint64"
            },
            {
              "internalType": "uint64",
              "name": "agentFeeChangeTimelockSeconds",
              "type": "uint64"
            },
            {
              "internalType": "uint64",
              "name": "agentCollateralRatioChangeTimelockSeconds",
              "type": "uint64"
            }
          ],
          "internalType": "struct AssetManagerSettings.Data",
          "name": "_settings",
          "type": "tuple"
        },
        {
          "components": [
            {
              "internalType": "enum CollateralType.Class",
              "name": "collateralClass",
              "type": "uint8"
            },
            {
              "internalType": "contract IERC20",
              "name": "token",
              "type": "address"
            },
            {
              "internalType": "uint256",
              "name": "decimals",
              "type": "uint256"
            },
            {
              "internalType": "uint256",
              "name": "validUntil",
              "type": "uint256"
            },
            {
              "internalType": "bool",
              "name": "directPricePair",
              "type": "bool"
            },
            {
              "internalType": "string",
              "name": "assetFtsoSymbol",
              "type": "string"
            },
            {
              "internalType": "string",
              "name": "tokenFtsoSymbol",
              "type": "string"
            },
            {
              "internalType": "uint256",
              "name": "minCollateralRatioBIPS",
              "type": "uint256"
            },
            {
              "internalType": "uint256",
              "name": "ccbMinCollateralRatioBIPS",
              "type": "uint256"
            },
            {
              "internalType": "uint256",
              "name": "safetyMinCollateralRatioBIPS",
              "type": "uint256"
            }
          ],
          "internalType": "struct CollateralType.Data[]",
          "name": "_initialCollateralTypes",
          "type": "tuple[]"
        },
        {
          "internalType": "bytes",
          "name": "_initialLiquidationSettings",
          "type": "bytes"
        }
      ],
      "stateMutability": "nonpayable",
      "type": "constructor"
    },
    {
      "anonymous": false,
      "inputs": [
        {
          "indexed": true,
          "internalType": "address",
          "name": "agentVault",
          "type": "address"
        },
        {
          "indexed": false,
          "internalType": "uint256",
          "name": "feeBIPS",
          "type": "uint256"
        },
        {
          "indexed": false,
          "internalType": "uint256",
          "name": "mintingClass1CollateralRatioBIPS",
          "type": "uint256"
        },
        {
          "indexed": false,
          "internalType": "uint256",
          "name": "mintingPoolCollateralRatioBIPS",
          "type": "uint256"
        },
        {
          "indexed": false,
          "internalType": "uint256",
          "name": "freeCollateralLots",
          "type": "uint256"
        }
      ],
      "name": "AgentAvailable",
      "type": "event"
    },
    {
      "anonymous": false,
      "inputs": [
        {
          "indexed": true,
          "internalType": "address",
          "name": "agentVault",
          "type": "address"
        },
        {
          "indexed": false,
          "internalType": "uint8",
          "name": "collateralClass",
          "type": "uint8"
        },
        {
          "indexed": false,
          "internalType": "address",
          "name": "token",
          "type": "address"
        }
      ],
      "name": "AgentCollateralTypeChanged",
      "type": "event"
    },
    {
      "anonymous": false,
      "inputs": [
        {
          "indexed": true,
          "internalType": "address",
          "name": "owner",
          "type": "address"
        },
        {
          "indexed": false,
          "internalType": "address",
          "name": "agentVault",
          "type": "address"
        },
        {
          "indexed": false,
          "internalType": "address",
          "name": "collateralPool",
          "type": "address"
        },
        {
          "indexed": false,
          "internalType": "string",
          "name": "underlyingAddress",
          "type": "string"
        },
        {
          "indexed": false,
          "internalType": "address",
          "name": "class1CollateralToken",
          "type": "address"
        },
        {
          "indexed": false,
          "internalType": "uint256",
          "name": "feeBIPS",
          "type": "uint256"
        },
        {
          "indexed": false,
          "internalType": "uint256",
          "name": "poolFeeShareBIPS",
          "type": "uint256"
        },
        {
          "indexed": false,
          "internalType": "uint256",
          "name": "mintingClass1CollateralRatioBIPS",
          "type": "uint256"
        },
        {
          "indexed": false,
          "internalType": "uint256",
          "name": "mintingPoolCollateralRatioBIPS",
          "type": "uint256"
        },
        {
          "indexed": false,
          "internalType": "uint256",
          "name": "buyFAssetByAgentFactorBIPS",
          "type": "uint256"
        },
        {
          "indexed": false,
          "internalType": "uint256",
          "name": "poolExitCollateralRatioBIPS",
          "type": "uint256"
        },
        {
          "indexed": false,
          "internalType": "uint256",
          "name": "poolTopupCollateralRatioBIPS",
          "type": "uint256"
        },
        {
          "indexed": false,
          "internalType": "uint256",
          "name": "poolTopupTokenPriceFactorBIPS",
          "type": "uint256"
        }
      ],
      "name": "AgentCreated",
      "type": "event"
    },
    {
      "anonymous": false,
      "inputs": [
        {
          "indexed": true,
          "internalType": "address",
          "name": "agentVault",
          "type": "address"
        },
        {
          "indexed": false,
          "internalType": "uint256",
          "name": "destroyAllowedAt",
          "type": "uint256"
        }
      ],
      "name": "AgentDestroyAnnounced",
      "type": "event"
    },
    {
      "anonymous": false,
      "inputs": [
        {
          "indexed": true,
          "internalType": "address",
          "name": "agentVault",
          "type": "address"
        }
      ],
      "name": "AgentDestroyed",
      "type": "event"
    },
    {
      "anonymous": false,
      "inputs": [
        {
          "indexed": true,
          "internalType": "address",
          "name": "agentVault",
          "type": "address"
        },
        {
          "indexed": false,
          "internalType": "uint256",
          "name": "timestamp",
          "type": "uint256"
        }
      ],
      "name": "AgentInCCB",
      "type": "event"
    },
    {
      "anonymous": false,
      "inputs": [
        {
          "indexed": true,
          "internalType": "address",
          "name": "agentVault",
          "type": "address"
        },
        {
          "indexed": false,
          "internalType": "string",
          "name": "name",
          "type": "string"
        },
        {
          "indexed": false,
          "internalType": "uint256",
          "name": "value",
          "type": "uint256"
        },
        {
          "indexed": false,
          "internalType": "uint256",
          "name": "validAt",
          "type": "uint256"
        }
      ],
      "name": "AgentSettingChangeAnnounced",
      "type": "event"
    },
    {
      "anonymous": false,
      "inputs": [
        {
          "indexed": true,
          "internalType": "address",
          "name": "agentVault",
          "type": "address"
        },
        {
          "indexed": false,
          "internalType": "string",
          "name": "name",
          "type": "string"
        },
        {
          "indexed": false,
          "internalType": "uint256",
          "name": "value",
          "type": "uint256"
        }
      ],
      "name": "AgentSettingChanged",
      "type": "event"
    },
    {
      "anonymous": false,
      "inputs": [
        {
          "indexed": true,
          "internalType": "address",
          "name": "agentVault",
          "type": "address"
        },
        {
          "indexed": false,
          "internalType": "uint256",
          "name": "exitAllowedAt",
          "type": "uint256"
        }
      ],
      "name": "AvailableAgentExitAnnounced",
      "type": "event"
    },
    {
      "anonymous": false,
      "inputs": [
        {
          "indexed": true,
          "internalType": "address",
          "name": "agentVault",
          "type": "address"
        }
      ],
      "name": "AvailableAgentExited",
      "type": "event"
    },
    {
      "anonymous": false,
      "inputs": [
        {
          "indexed": true,
          "internalType": "address",
          "name": "agentVault",
          "type": "address"
        },
        {
          "indexed": false,
          "internalType": "uint256",
          "name": "amountWei",
          "type": "uint256"
        },
        {
          "indexed": false,
          "internalType": "uint256",
          "name": "withdrawalAllowedAt",
          "type": "uint256"
        }
      ],
      "name": "Class1WithdrawalAnnounced",
      "type": "event"
    },
    {
      "anonymous": false,
      "inputs": [
        {
          "indexed": false,
          "internalType": "uint8",
          "name": "collateralClass",
          "type": "uint8"
        },
        {
          "indexed": false,
          "internalType": "address",
          "name": "collateralToken",
          "type": "address"
        },
        {
          "indexed": false,
          "internalType": "uint256",
          "name": "minCollateralRatioBIPS",
          "type": "uint256"
        },
        {
          "indexed": false,
          "internalType": "uint256",
          "name": "ccbMinCollateralRatioBIPS",
          "type": "uint256"
        },
        {
          "indexed": false,
          "internalType": "uint256",
          "name": "safetyMinCollateralRatioBIPS",
          "type": "uint256"
        }
      ],
      "name": "CollateralRatiosChanged",
      "type": "event"
    },
    {
      "anonymous": false,
      "inputs": [
        {
          "indexed": true,
          "internalType": "address",
          "name": "agentVault",
          "type": "address"
        },
        {
          "indexed": true,
          "internalType": "address",
          "name": "minter",
          "type": "address"
        },
        {
          "indexed": false,
          "internalType": "uint256",
          "name": "collateralReservationId",
          "type": "uint256"
        },
        {
          "indexed": false,
          "internalType": "uint256",
          "name": "reservedAmountUBA",
          "type": "uint256"
        }
      ],
      "name": "CollateralReservationDeleted",
      "type": "event"
    },
    {
      "anonymous": false,
      "inputs": [
        {
          "indexed": true,
          "internalType": "address",
          "name": "agentVault",
          "type": "address"
        },
        {
          "indexed": true,
          "internalType": "address",
          "name": "minter",
          "type": "address"
        },
        {
          "indexed": false,
          "internalType": "uint256",
          "name": "collateralReservationId",
          "type": "uint256"
        },
        {
          "indexed": false,
          "internalType": "uint256",
          "name": "valueUBA",
          "type": "uint256"
        },
        {
          "indexed": false,
          "internalType": "uint256",
          "name": "feeUBA",
          "type": "uint256"
        },
        {
          "indexed": false,
          "internalType": "uint256",
          "name": "firstUnderlyingBlock",
          "type": "uint256"
        },
        {
          "indexed": false,
          "internalType": "uint256",
          "name": "lastUnderlyingBlock",
          "type": "uint256"
        },
        {
          "indexed": false,
          "internalType": "uint256",
          "name": "lastUnderlyingTimestamp",
          "type": "uint256"
        },
        {
          "indexed": false,
          "internalType": "string",
          "name": "paymentAddress",
          "type": "string"
        },
        {
          "indexed": false,
          "internalType": "bytes32",
          "name": "paymentReference",
          "type": "bytes32"
        }
      ],
      "name": "CollateralReserved",
      "type": "event"
    },
    {
      "anonymous": false,
      "inputs": [
        {
          "indexed": false,
          "internalType": "uint8",
          "name": "collateralClass",
          "type": "uint8"
        },
        {
          "indexed": false,
          "internalType": "address",
          "name": "token",
          "type": "address"
        },
        {
          "indexed": false,
          "internalType": "uint256",
          "name": "decimals",
          "type": "uint256"
        },
        {
          "indexed": false,
          "internalType": "bool",
          "name": "directPricePair",
          "type": "bool"
        },
        {
          "indexed": false,
          "internalType": "string",
          "name": "assetFtsoSymbol",
          "type": "string"
        },
        {
          "indexed": false,
          "internalType": "string",
          "name": "tokenFtsoSymbol",
          "type": "string"
        },
        {
          "indexed": false,
          "internalType": "uint256",
          "name": "minCollateralRatioBIPS",
          "type": "uint256"
        },
        {
          "indexed": false,
          "internalType": "uint256",
          "name": "ccbMinCollateralRatioBIPS",
          "type": "uint256"
        },
        {
          "indexed": false,
          "internalType": "uint256",
          "name": "safetyMinCollateralRatioBIPS",
          "type": "uint256"
        }
      ],
      "name": "CollateralTypeAdded",
      "type": "event"
    },
    {
      "anonymous": false,
      "inputs": [
        {
          "indexed": false,
          "internalType": "uint8",
          "name": "collateralClass",
          "type": "uint8"
        },
        {
          "indexed": false,
          "internalType": "address",
          "name": "collateralToken",
          "type": "address"
        },
        {
          "indexed": false,
          "internalType": "uint256",
          "name": "validUntil",
          "type": "uint256"
        }
      ],
      "name": "CollateralTypeDeprecated",
      "type": "event"
    },
    {
      "anonymous": false,
      "inputs": [
        {
          "indexed": false,
          "internalType": "string",
          "name": "name",
          "type": "string"
        },
        {
          "indexed": false,
          "internalType": "address",
          "name": "value",
          "type": "address"
        }
      ],
      "name": "ContractChanged",
      "type": "event"
    },
    {
      "anonymous": false,
      "inputs": [
        {
          "indexed": true,
          "internalType": "address",
          "name": "agentVault",
          "type": "address"
        },
        {
          "indexed": false,
          "internalType": "bytes32",
          "name": "transactionHash1",
          "type": "bytes32"
        },
        {
          "indexed": false,
          "internalType": "bytes32",
          "name": "transactionHash2",
          "type": "bytes32"
        }
      ],
      "name": "DuplicatePaymentConfirmed",
      "type": "event"
    },
    {
      "anonymous": false,
      "inputs": [
        {
          "indexed": true,
          "internalType": "address",
          "name": "agentVault",
          "type": "address"
        },
        {
          "indexed": false,
          "internalType": "uint256",
          "name": "dustUBA",
          "type": "uint256"
        }
      ],
      "name": "DustChanged",
      "type": "event"
    },
    {
      "anonymous": false,
      "inputs": [
        {
          "indexed": true,
          "internalType": "address",
          "name": "agentVault",
          "type": "address"
        },
        {
          "indexed": false,
          "internalType": "uint256",
          "name": "redemptionTicketId",
          "type": "uint256"
        },
        {
          "indexed": false,
          "internalType": "uint256",
          "name": "valueUBA",
          "type": "uint256"
        }
      ],
      "name": "DustConvertedToTicket",
      "type": "event"
    },
    {
      "anonymous": false,
      "inputs": [
        {
          "indexed": true,
          "internalType": "address",
          "name": "agentVault",
          "type": "address"
        },
        {
          "indexed": false,
          "internalType": "uint256",
          "name": "timestamp",
          "type": "uint256"
        }
      ],
      "name": "FullLiquidationStarted",
      "type": "event"
    },
    {
      "anonymous": false,
      "inputs": [
        {
          "indexed": true,
          "internalType": "address",
          "name": "agentVault",
          "type": "address"
        },
        {
          "indexed": false,
          "internalType": "bytes32",
          "name": "transactionHash",
          "type": "bytes32"
        }
      ],
      "name": "IllegalPaymentConfirmed",
      "type": "event"
    },
    {
      "anonymous": false,
      "inputs": [
        {
          "indexed": true,
          "internalType": "address",
          "name": "agentVault",
          "type": "address"
        }
      ],
      "name": "LiquidationEnded",
      "type": "event"
    },
    {
      "anonymous": false,
      "inputs": [
        {
          "indexed": true,
          "internalType": "address",
          "name": "agentVault",
          "type": "address"
        },
        {
          "indexed": true,
          "internalType": "address",
          "name": "liquidator",
          "type": "address"
        },
        {
          "indexed": false,
          "internalType": "uint256",
          "name": "valueUBA",
          "type": "uint256"
        }
      ],
      "name": "LiquidationPerformed",
      "type": "event"
    },
    {
      "anonymous": false,
      "inputs": [
        {
          "indexed": true,
          "internalType": "address",
          "name": "agentVault",
          "type": "address"
        },
        {
          "indexed": false,
          "internalType": "uint256",
          "name": "timestamp",
          "type": "uint256"
        }
      ],
      "name": "LiquidationStarted",
      "type": "event"
    },
    {
      "anonymous": false,
      "inputs": [
        {
          "indexed": true,
          "internalType": "address",
          "name": "agentVault",
          "type": "address"
        },
        {
          "indexed": false,
          "internalType": "uint256",
          "name": "collateralReservationId",
          "type": "uint256"
        },
        {
          "indexed": false,
          "internalType": "uint256",
          "name": "redemptionTicketId",
          "type": "uint256"
        },
        {
          "indexed": false,
          "internalType": "uint256",
          "name": "mintedAmountUBA",
          "type": "uint256"
        },
        {
          "indexed": false,
          "internalType": "uint256",
          "name": "agentFeeUBA",
          "type": "uint256"
        },
        {
          "indexed": false,
          "internalType": "uint256",
          "name": "poolFeeUBA",
          "type": "uint256"
        }
      ],
      "name": "MintingExecuted",
      "type": "event"
    },
    {
      "anonymous": false,
      "inputs": [
        {
          "indexed": true,
          "internalType": "address",
          "name": "agentVault",
          "type": "address"
        },
        {
          "indexed": true,
          "internalType": "address",
          "name": "minter",
          "type": "address"
        },
        {
          "indexed": false,
          "internalType": "uint256",
          "name": "collateralReservationId",
          "type": "uint256"
        },
        {
          "indexed": false,
          "internalType": "uint256",
          "name": "reservedAmountUBA",
          "type": "uint256"
        }
      ],
      "name": "MintingPaymentDefault",
      "type": "event"
    },
    {
      "anonymous": false,
      "inputs": [
        {
          "indexed": true,
          "internalType": "address",
          "name": "agentVault",
          "type": "address"
        },
        {
          "indexed": false,
          "internalType": "uint256",
          "name": "amountWei",
          "type": "uint256"
        },
        {
          "indexed": false,
          "internalType": "uint256",
          "name": "withdrawalAllowedAt",
          "type": "uint256"
        }
      ],
      "name": "PoolTokenRedemptionAnnounced",
      "type": "event"
    },
    {
      "anonymous": false,
      "inputs": [
        {
          "indexed": true,
          "internalType": "address",
          "name": "agentVault",
          "type": "address"
        },
        {
          "indexed": true,
          "internalType": "address",
          "name": "redeemer",
          "type": "address"
        },
        {
          "indexed": false,
          "internalType": "uint256",
          "name": "redemptionAmountUBA",
          "type": "uint256"
        },
        {
          "indexed": false,
          "internalType": "uint256",
          "name": "paidClass1Wei",
          "type": "uint256"
        }
      ],
      "name": "RedeemedInCollateral",
      "type": "event"
    },
    {
      "anonymous": false,
      "inputs": [
        {
          "indexed": true,
          "internalType": "address",
          "name": "agentVault",
          "type": "address"
        },
        {
          "indexed": true,
          "internalType": "address",
          "name": "redeemer",
          "type": "address"
        },
        {
          "indexed": false,
          "internalType": "uint256",
          "name": "redemptionAmountUBA",
          "type": "uint256"
        },
        {
          "indexed": false,
          "internalType": "uint256",
          "name": "redeemedClass1CollateralWei",
          "type": "uint256"
        },
        {
          "indexed": false,
          "internalType": "uint256",
          "name": "redeemedPoolCollateralWei",
          "type": "uint256"
        },
        {
          "indexed": false,
          "internalType": "uint64",
          "name": "requestId",
          "type": "uint64"
        }
      ],
      "name": "RedemptionDefault",
      "type": "event"
    },
    {
      "anonymous": false,
      "inputs": [
        {
          "indexed": true,
          "internalType": "address",
          "name": "agentVault",
          "type": "address"
        },
        {
          "indexed": true,
          "internalType": "address",
          "name": "redeemer",
          "type": "address"
        },
        {
          "indexed": false,
          "internalType": "bytes32",
          "name": "transactionHash",
          "type": "bytes32"
        },
        {
          "indexed": false,
          "internalType": "uint256",
          "name": "redemptionAmountUBA",
          "type": "uint256"
        },
        {
          "indexed": false,
          "internalType": "int256",
          "name": "spentUnderlyingUBA",
          "type": "int256"
        },
        {
          "indexed": false,
          "internalType": "uint64",
          "name": "requestId",
          "type": "uint64"
        }
      ],
      "name": "RedemptionPaymentBlocked",
      "type": "event"
    },
    {
      "anonymous": false,
      "inputs": [
        {
          "indexed": true,
          "internalType": "address",
          "name": "agentVault",
          "type": "address"
        },
        {
          "indexed": true,
          "internalType": "address",
          "name": "redeemer",
          "type": "address"
        },
        {
          "indexed": false,
          "internalType": "bytes32",
          "name": "transactionHash",
          "type": "bytes32"
        },
        {
          "indexed": false,
          "internalType": "int256",
          "name": "spentUnderlyingUBA",
          "type": "int256"
        },
        {
          "indexed": false,
          "internalType": "uint64",
          "name": "requestId",
          "type": "uint64"
        },
        {
          "indexed": false,
          "internalType": "string",
          "name": "failureReason",
          "type": "string"
        }
      ],
      "name": "RedemptionPaymentFailed",
      "type": "event"
    },
    {
      "anonymous": false,
      "inputs": [
        {
          "indexed": true,
          "internalType": "address",
          "name": "agentVault",
          "type": "address"
        },
        {
          "indexed": true,
          "internalType": "address",
          "name": "redeemer",
          "type": "address"
        },
        {
          "indexed": false,
          "internalType": "bytes32",
          "name": "transactionHash",
          "type": "bytes32"
        },
        {
          "indexed": false,
          "internalType": "uint256",
          "name": "redemptionAmountUBA",
          "type": "uint256"
        },
        {
          "indexed": false,
          "internalType": "int256",
          "name": "spentUnderlyingUBA",
          "type": "int256"
        },
        {
          "indexed": false,
          "internalType": "uint64",
          "name": "requestId",
          "type": "uint64"
        }
      ],
      "name": "RedemptionPerformed",
      "type": "event"
    },
    {
      "anonymous": false,
      "inputs": [
        {
          "indexed": true,
          "internalType": "address",
          "name": "redeemer",
          "type": "address"
        },
        {
          "indexed": false,
          "internalType": "uint256",
          "name": "remainingLots",
          "type": "uint256"
        }
      ],
      "name": "RedemptionRequestIncomplete",
      "type": "event"
    },
    {
      "anonymous": false,
      "inputs": [
        {
          "indexed": true,
          "internalType": "address",
          "name": "agentVault",
          "type": "address"
        },
        {
          "indexed": true,
          "internalType": "address",
          "name": "redeemer",
          "type": "address"
        },
        {
          "indexed": false,
          "internalType": "uint256",
          "name": "requestId",
          "type": "uint256"
        },
        {
          "indexed": false,
          "internalType": "string",
          "name": "paymentAddress",
          "type": "string"
        },
        {
          "indexed": false,
          "internalType": "uint256",
          "name": "valueUBA",
          "type": "uint256"
        },
        {
          "indexed": false,
          "internalType": "uint256",
          "name": "feeUBA",
          "type": "uint256"
        },
        {
          "indexed": false,
          "internalType": "uint256",
          "name": "firstUnderlyingBlock",
          "type": "uint256"
        },
        {
          "indexed": false,
          "internalType": "uint256",
          "name": "lastUnderlyingBlock",
          "type": "uint256"
        },
        {
          "indexed": false,
          "internalType": "uint256",
          "name": "lastUnderlyingTimestamp",
          "type": "uint256"
        },
        {
          "indexed": false,
          "internalType": "bytes32",
          "name": "paymentReference",
          "type": "bytes32"
        }
      ],
      "name": "RedemptionRequested",
      "type": "event"
    },
    {
      "anonymous": false,
      "inputs": [
        {
          "indexed": true,
          "internalType": "address",
          "name": "agentVault",
          "type": "address"
        },
        {
          "indexed": false,
          "internalType": "uint256",
          "name": "valueUBA",
          "type": "uint256"
        }
      ],
      "name": "SelfClose",
      "type": "event"
    },
    {
      "anonymous": false,
      "inputs": [
        {
          "indexed": false,
          "internalType": "string",
          "name": "name",
          "type": "string"
        },
        {
          "indexed": false,
          "internalType": "uint256[]",
          "name": "value",
          "type": "uint256[]"
        }
      ],
      "name": "SettingArrayChanged",
      "type": "event"
    },
    {
      "anonymous": false,
      "inputs": [
        {
          "indexed": false,
          "internalType": "string",
          "name": "name",
          "type": "string"
        },
        {
          "indexed": false,
          "internalType": "uint256",
          "name": "value",
          "type": "uint256"
        }
      ],
      "name": "SettingChanged",
      "type": "event"
    },
    {
      "anonymous": false,
      "inputs": [
        {
          "indexed": true,
          "internalType": "address",
          "name": "agentVault",
          "type": "address"
        },
        {
          "indexed": false,
          "internalType": "int256",
          "name": "underlyingBalanceUBA",
          "type": "int256"
        }
      ],
      "name": "UnderlyingBalanceChanged",
      "type": "event"
    },
    {
      "anonymous": false,
      "inputs": [
        {
          "indexed": true,
          "internalType": "address",
          "name": "agentVault",
          "type": "address"
        },
        {
          "indexed": false,
          "internalType": "int256",
          "name": "balance",
          "type": "int256"
        },
        {
          "indexed": false,
          "internalType": "uint256",
          "name": "requiredBalance",
          "type": "uint256"
        }
      ],
      "name": "UnderlyingBalanceTooLow",
      "type": "event"
    },
    {
      "anonymous": false,
      "inputs": [
        {
          "indexed": true,
          "internalType": "address",
          "name": "agentVault",
          "type": "address"
        },
        {
          "indexed": false,
          "internalType": "bytes32",
          "name": "transactionHash",
          "type": "bytes32"
        },
        {
          "indexed": false,
          "internalType": "uint256",
          "name": "depositedUBA",
          "type": "uint256"
        }
      ],
      "name": "UnderlyingBalanceToppedUp",
      "type": "event"
    },
    {
      "anonymous": false,
      "inputs": [
        {
          "indexed": true,
          "internalType": "address",
          "name": "agentVault",
          "type": "address"
        },
        {
          "indexed": false,
          "internalType": "uint64",
          "name": "announcementId",
          "type": "uint64"
        },
        {
          "indexed": false,
          "internalType": "bytes32",
          "name": "paymentReference",
          "type": "bytes32"
        }
      ],
      "name": "UnderlyingWithdrawalAnnounced",
      "type": "event"
    },
    {
      "anonymous": false,
      "inputs": [
        {
          "indexed": true,
          "internalType": "address",
          "name": "agentVault",
          "type": "address"
        },
        {
          "indexed": false,
          "internalType": "uint64",
          "name": "announcementId",
          "type": "uint64"
        }
      ],
      "name": "UnderlyingWithdrawalCancelled",
      "type": "event"
    },
    {
      "anonymous": false,
      "inputs": [
        {
          "indexed": true,
          "internalType": "address",
          "name": "agentVault",
          "type": "address"
        },
        {
          "indexed": false,
          "internalType": "int256",
          "name": "spentUBA",
          "type": "int256"
        },
        {
          "indexed": false,
          "internalType": "bytes32",
          "name": "transactionHash",
          "type": "bytes32"
        },
        {
          "indexed": false,
          "internalType": "uint64",
          "name": "announcementId",
          "type": "uint64"
        }
      ],
      "name": "UnderlyingWithdrawalConfirmed",
      "type": "event"
    },
    {
      "inputs": [
        {
          "components": [
            {
              "internalType": "enum CollateralType.Class",
              "name": "collateralClass",
              "type": "uint8"
            },
            {
              "internalType": "contract IERC20",
              "name": "token",
              "type": "address"
            },
            {
              "internalType": "uint256",
              "name": "decimals",
              "type": "uint256"
            },
            {
              "internalType": "uint256",
              "name": "validUntil",
              "type": "uint256"
            },
            {
              "internalType": "bool",
              "name": "directPricePair",
              "type": "bool"
            },
            {
              "internalType": "string",
              "name": "assetFtsoSymbol",
              "type": "string"
            },
            {
              "internalType": "string",
              "name": "tokenFtsoSymbol",
              "type": "string"
            },
            {
              "internalType": "uint256",
              "name": "minCollateralRatioBIPS",
              "type": "uint256"
            },
            {
              "internalType": "uint256",
              "name": "ccbMinCollateralRatioBIPS",
              "type": "uint256"
            },
            {
              "internalType": "uint256",
              "name": "safetyMinCollateralRatioBIPS",
              "type": "uint256"
            }
          ],
          "internalType": "struct CollateralType.Data",
          "name": "_data",
          "type": "tuple"
        }
      ],
      "name": "addCollateralType",
      "outputs": [],
      "stateMutability": "nonpayable",
      "type": "function"
    },
    {
      "inputs": [
        {
          "internalType": "address",
          "name": "_agentVault",
          "type": "address"
        },
        {
          "internalType": "uint256",
          "name": "_valueNATWei",
          "type": "uint256"
        }
      ],
      "name": "announceAgentPoolTokenRedemption",
      "outputs": [
        {
          "internalType": "uint256",
          "name": "_redemptionAllowedAt",
          "type": "uint256"
        }
      ],
      "stateMutability": "nonpayable",
      "type": "function"
    },
    {
      "inputs": [
        {
          "internalType": "address",
          "name": "_agentVault",
          "type": "address"
        },
        {
          "internalType": "string",
          "name": "_name",
          "type": "string"
        },
        {
          "internalType": "uint256",
          "name": "_value",
          "type": "uint256"
        }
      ],
      "name": "announceAgentSettingUpdate",
      "outputs": [
        {
          "internalType": "uint256",
          "name": "_updateAllowedAt",
          "type": "uint256"
        }
      ],
      "stateMutability": "nonpayable",
      "type": "function"
    },
    {
      "inputs": [
        {
          "internalType": "address",
          "name": "_agentVault",
          "type": "address"
        },
        {
          "internalType": "uint256",
          "name": "_valueNATWei",
          "type": "uint256"
        }
      ],
      "name": "announceClass1CollateralWithdrawal",
      "outputs": [
        {
          "internalType": "uint256",
          "name": "_withdrawalAllowedAt",
          "type": "uint256"
        }
      ],
      "stateMutability": "nonpayable",
      "type": "function"
    },
    {
      "inputs": [
        {
          "internalType": "address",
          "name": "_agentVault",
          "type": "address"
        }
      ],
      "name": "announceDestroyAgent",
      "outputs": [
        {
          "internalType": "uint256",
          "name": "_destroyAllowedAt",
          "type": "uint256"
        }
      ],
      "stateMutability": "nonpayable",
      "type": "function"
    },
    {
      "inputs": [
        {
          "internalType": "address",
          "name": "_agentVault",
          "type": "address"
        }
      ],
      "name": "announceExitAvailableAgentList",
      "outputs": [
        {
          "internalType": "uint256",
          "name": "_exitAllowedAt",
          "type": "uint256"
        }
      ],
      "stateMutability": "nonpayable",
      "type": "function"
    },
    {
      "inputs": [
        {
          "internalType": "address",
          "name": "_agentVault",
          "type": "address"
        }
      ],
      "name": "announceUnderlyingWithdrawal",
      "outputs": [],
      "stateMutability": "nonpayable",
      "type": "function"
    },
    {
      "inputs": [],
      "name": "assetManagerController",
      "outputs": [
        {
          "internalType": "address",
          "name": "",
          "type": "address"
        }
      ],
      "stateMutability": "view",
      "type": "function"
    },
    {
      "inputs": [],
      "name": "assetPriceNatWei",
      "outputs": [
        {
          "internalType": "uint256",
          "name": "_multiplier",
          "type": "uint256"
        },
        {
          "internalType": "uint256",
          "name": "_divisor",
          "type": "uint256"
        }
      ],
      "stateMutability": "view",
      "type": "function"
    },
    {
      "inputs": [
        {
          "internalType": "bool",
          "name": "attached",
          "type": "bool"
        }
      ],
      "name": "attachController",
      "outputs": [],
      "stateMutability": "nonpayable",
      "type": "function"
    },
    {
      "inputs": [
        {
          "internalType": "address",
          "name": "_agentVault",
          "type": "address"
        }
      ],
      "name": "buybackAgentCollateral",
      "outputs": [],
      "stateMutability": "payable",
      "type": "function"
    },
    {
      "inputs": [
        {
          "internalType": "address",
          "name": "_agentVault",
          "type": "address"
        }
      ],
      "name": "cancelUnderlyingWithdrawal",
      "outputs": [],
      "stateMutability": "nonpayable",
      "type": "function"
    },
    {
      "inputs": [
        {
          "internalType": "address",
          "name": "_agentVault",
          "type": "address"
        },
        {
          "internalType": "contract IERC20",
          "name": "_token",
          "type": "address"
        }
      ],
      "name": "collateralDeposited",
      "outputs": [],
      "stateMutability": "nonpayable",
      "type": "function"
    },
    {
      "inputs": [
        {
          "internalType": "uint256",
          "name": "_lots",
          "type": "uint256"
        }
      ],
      "name": "collateralReservationFee",
      "outputs": [
        {
          "internalType": "uint256",
          "name": "_reservationFeeNATWei",
          "type": "uint256"
        }
      ],
      "stateMutability": "view",
      "type": "function"
    },
    {
      "inputs": [
        {
          "components": [
            {
              "internalType": "bytes32[]",
              "name": "merkleProof",
              "type": "bytes32[]"
            },
            {
              "internalType": "uint256",
              "name": "stateConnectorRound",
              "type": "uint256"
            },
            {
              "internalType": "uint64",
              "name": "blockNumber",
              "type": "uint64"
            },
            {
              "internalType": "uint64",
              "name": "blockTimestamp",
              "type": "uint64"
            },
            {
              "internalType": "bytes32",
              "name": "transactionHash",
              "type": "bytes32"
            },
            {
              "internalType": "uint8",
              "name": "inUtxo",
              "type": "uint8"
            },
            {
              "internalType": "uint8",
              "name": "utxo",
              "type": "uint8"
            },
            {
              "internalType": "bytes32",
              "name": "sourceAddressHash",
              "type": "bytes32"
            },
            {
              "internalType": "bytes32",
              "name": "intendedSourceAddressHash",
              "type": "bytes32"
            },
            {
              "internalType": "bytes32",
              "name": "receivingAddressHash",
              "type": "bytes32"
            },
            {
              "internalType": "bytes32",
              "name": "intendedReceivingAddressHash",
              "type": "bytes32"
            },
            {
              "internalType": "int256",
              "name": "spentAmount",
              "type": "int256"
            },
            {
              "internalType": "int256",
              "name": "intendedSpentAmount",
              "type": "int256"
            },
            {
              "internalType": "int256",
              "name": "receivedAmount",
              "type": "int256"
            },
            {
              "internalType": "int256",
              "name": "intendedReceivedAmount",
              "type": "int256"
            },
            {
              "internalType": "bytes32",
              "name": "paymentReference",
              "type": "bytes32"
            },
            {
              "internalType": "bool",
              "name": "oneToOne",
              "type": "bool"
            },
            {
              "internalType": "uint8",
              "name": "status",
              "type": "uint8"
            }
          ],
          "internalType": "struct ISCProofVerifier.Payment",
          "name": "_payment",
          "type": "tuple"
        },
        {
          "internalType": "uint256",
          "name": "_redemptionRequestId",
          "type": "uint256"
        }
      ],
      "name": "confirmRedemptionPayment",
      "outputs": [],
      "stateMutability": "nonpayable",
      "type": "function"
    },
    {
      "inputs": [
        {
          "components": [
            {
              "internalType": "bytes32[]",
              "name": "merkleProof",
              "type": "bytes32[]"
            },
            {
              "internalType": "uint256",
              "name": "stateConnectorRound",
              "type": "uint256"
            },
            {
              "internalType": "uint64",
              "name": "blockNumber",
              "type": "uint64"
            },
            {
              "internalType": "uint64",
              "name": "blockTimestamp",
              "type": "uint64"
            },
            {
              "internalType": "bytes32",
              "name": "transactionHash",
              "type": "bytes32"
            },
            {
              "internalType": "uint8",
              "name": "inUtxo",
              "type": "uint8"
            },
            {
              "internalType": "uint8",
              "name": "utxo",
              "type": "uint8"
            },
            {
              "internalType": "bytes32",
              "name": "sourceAddressHash",
              "type": "bytes32"
            },
            {
              "internalType": "bytes32",
              "name": "intendedSourceAddressHash",
              "type": "bytes32"
            },
            {
              "internalType": "bytes32",
              "name": "receivingAddressHash",
              "type": "bytes32"
            },
            {
              "internalType": "bytes32",
              "name": "intendedReceivingAddressHash",
              "type": "bytes32"
            },
            {
              "internalType": "int256",
              "name": "spentAmount",
              "type": "int256"
            },
            {
              "internalType": "int256",
              "name": "intendedSpentAmount",
              "type": "int256"
            },
            {
              "internalType": "int256",
              "name": "receivedAmount",
              "type": "int256"
            },
            {
              "internalType": "int256",
              "name": "intendedReceivedAmount",
              "type": "int256"
            },
            {
              "internalType": "bytes32",
              "name": "paymentReference",
              "type": "bytes32"
            },
            {
              "internalType": "bool",
              "name": "oneToOne",
              "type": "bool"
            },
            {
              "internalType": "uint8",
              "name": "status",
              "type": "uint8"
            }
          ],
          "internalType": "struct ISCProofVerifier.Payment",
          "name": "_payment",
          "type": "tuple"
        },
        {
          "internalType": "address",
          "name": "_agentVault",
          "type": "address"
        }
      ],
      "name": "confirmTopupPayment",
      "outputs": [],
      "stateMutability": "nonpayable",
      "type": "function"
    },
    {
      "inputs": [
        {
          "components": [
            {
              "internalType": "bytes32[]",
              "name": "merkleProof",
              "type": "bytes32[]"
            },
            {
              "internalType": "uint256",
              "name": "stateConnectorRound",
              "type": "uint256"
            },
            {
              "internalType": "uint64",
              "name": "blockNumber",
              "type": "uint64"
            },
            {
              "internalType": "uint64",
              "name": "blockTimestamp",
              "type": "uint64"
            },
            {
              "internalType": "bytes32",
              "name": "transactionHash",
              "type": "bytes32"
            },
            {
              "internalType": "uint8",
              "name": "inUtxo",
              "type": "uint8"
            },
            {
              "internalType": "uint8",
              "name": "utxo",
              "type": "uint8"
            },
            {
              "internalType": "bytes32",
              "name": "sourceAddressHash",
              "type": "bytes32"
            },
            {
              "internalType": "bytes32",
              "name": "intendedSourceAddressHash",
              "type": "bytes32"
            },
            {
              "internalType": "bytes32",
              "name": "receivingAddressHash",
              "type": "bytes32"
            },
            {
              "internalType": "bytes32",
              "name": "intendedReceivingAddressHash",
              "type": "bytes32"
            },
            {
              "internalType": "int256",
              "name": "spentAmount",
              "type": "int256"
            },
            {
              "internalType": "int256",
              "name": "intendedSpentAmount",
              "type": "int256"
            },
            {
              "internalType": "int256",
              "name": "receivedAmount",
              "type": "int256"
            },
            {
              "internalType": "int256",
              "name": "intendedReceivedAmount",
              "type": "int256"
            },
            {
              "internalType": "bytes32",
              "name": "paymentReference",
              "type": "bytes32"
            },
            {
              "internalType": "bool",
              "name": "oneToOne",
              "type": "bool"
            },
            {
              "internalType": "uint8",
              "name": "status",
              "type": "uint8"
            }
          ],
          "internalType": "struct ISCProofVerifier.Payment",
          "name": "_payment",
          "type": "tuple"
        },
        {
          "internalType": "address",
          "name": "_agentVault",
          "type": "address"
        }
      ],
      "name": "confirmUnderlyingWithdrawal",
      "outputs": [],
      "stateMutability": "nonpayable",
      "type": "function"
    },
    {
      "inputs": [],
      "name": "controllerAttached",
      "outputs": [
        {
          "internalType": "bool",
          "name": "",
          "type": "bool"
        }
      ],
      "stateMutability": "view",
      "type": "function"
    },
    {
      "inputs": [
        {
          "internalType": "address",
          "name": "_agentVault",
          "type": "address"
        }
      ],
      "name": "convertDustToTicket",
      "outputs": [],
      "stateMutability": "nonpayable",
      "type": "function"
    },
    {
      "inputs": [
        {
          "components": [
            {
              "internalType": "string",
              "name": "underlyingAddressString",
              "type": "string"
            },
            {
              "internalType": "contract IERC20",
              "name": "class1CollateralToken",
              "type": "address"
            },
            {
              "internalType": "uint256",
              "name": "feeBIPS",
              "type": "uint256"
            },
            {
              "internalType": "uint256",
              "name": "poolFeeShareBIPS",
              "type": "uint256"
            },
            {
              "internalType": "uint256",
              "name": "mintingClass1CollateralRatioBIPS",
              "type": "uint256"
            },
            {
              "internalType": "uint256",
              "name": "mintingPoolCollateralRatioBIPS",
              "type": "uint256"
            },
            {
              "internalType": "uint256",
              "name": "buyFAssetByAgentFactorBIPS",
              "type": "uint256"
            },
            {
              "internalType": "uint256",
              "name": "poolExitCollateralRatioBIPS",
              "type": "uint256"
            },
            {
              "internalType": "uint256",
              "name": "poolTopupCollateralRatioBIPS",
              "type": "uint256"
            },
            {
              "internalType": "uint256",
              "name": "poolTopupTokenPriceFactorBIPS",
              "type": "uint256"
            }
          ],
          "internalType": "struct AgentSettings.Data",
          "name": "_settings",
          "type": "tuple"
        }
      ],
      "name": "createAgent",
      "outputs": [
        {
          "internalType": "address",
          "name": "_agentVault",
          "type": "address"
        }
      ],
      "stateMutability": "nonpayable",
      "type": "function"
    },
    {
      "inputs": [],
      "name": "currentUnderlyingBlock",
      "outputs": [
        {
          "internalType": "uint256",
          "name": "_blockNumber",
          "type": "uint256"
        },
        {
          "internalType": "uint256",
          "name": "_blockTimestamp",
          "type": "uint256"
        }
      ],
      "stateMutability": "view",
      "type": "function"
    },
    {
      "inputs": [
        {
          "internalType": "enum CollateralType.Class",
          "name": "_collateralClass",
          "type": "uint8"
        },
        {
          "internalType": "contract IERC20",
          "name": "_token",
          "type": "address"
        },
        {
          "internalType": "uint256",
          "name": "_invalidationTimeSec",
          "type": "uint256"
        }
      ],
      "name": "deprecateCollateralType",
      "outputs": [],
      "stateMutability": "nonpayable",
      "type": "function"
    },
    {
      "inputs": [
        {
          "internalType": "address",
          "name": "_agentVault",
          "type": "address"
        },
        {
          "internalType": "address payable",
          "name": "_recipient",
          "type": "address"
        }
      ],
      "name": "destroyAgent",
      "outputs": [],
      "stateMutability": "nonpayable",
      "type": "function"
    },
    {
      "inputs": [
        {
          "components": [
            {
              "internalType": "bytes32[]",
              "name": "merkleProof",
              "type": "bytes32[]"
            },
            {
              "internalType": "uint256",
              "name": "stateConnectorRound",
              "type": "uint256"
            },
            {
              "internalType": "uint64",
              "name": "blockNumber",
              "type": "uint64"
            },
            {
              "internalType": "uint64",
              "name": "blockTimestamp",
              "type": "uint64"
            },
            {
              "internalType": "bytes32",
              "name": "transactionHash",
              "type": "bytes32"
            },
            {
              "internalType": "bytes32",
              "name": "sourceAddressIndicator",
              "type": "bytes32"
            },
            {
              "internalType": "bytes32",
              "name": "sourceAddressHash",
              "type": "bytes32"
            },
            {
              "internalType": "int256",
              "name": "spentAmount",
              "type": "int256"
            },
            {
              "internalType": "bytes32",
              "name": "paymentReference",
              "type": "bytes32"
            }
          ],
          "internalType": "struct ISCProofVerifier.BalanceDecreasingTransaction",
          "name": "_payment1",
          "type": "tuple"
        },
        {
          "components": [
            {
              "internalType": "bytes32[]",
              "name": "merkleProof",
              "type": "bytes32[]"
            },
            {
              "internalType": "uint256",
              "name": "stateConnectorRound",
              "type": "uint256"
            },
            {
              "internalType": "uint64",
              "name": "blockNumber",
              "type": "uint64"
            },
            {
              "internalType": "uint64",
              "name": "blockTimestamp",
              "type": "uint64"
            },
            {
              "internalType": "bytes32",
              "name": "transactionHash",
              "type": "bytes32"
            },
            {
              "internalType": "bytes32",
              "name": "sourceAddressIndicator",
              "type": "bytes32"
            },
            {
              "internalType": "bytes32",
              "name": "sourceAddressHash",
              "type": "bytes32"
            },
            {
              "internalType": "int256",
              "name": "spentAmount",
              "type": "int256"
            },
            {
              "internalType": "bytes32",
              "name": "paymentReference",
              "type": "bytes32"
            }
          ],
          "internalType": "struct ISCProofVerifier.BalanceDecreasingTransaction",
          "name": "_payment2",
          "type": "tuple"
        },
        {
          "internalType": "address",
          "name": "_agentVault",
          "type": "address"
        }
      ],
      "name": "doublePaymentChallenge",
      "outputs": [],
      "stateMutability": "nonpayable",
      "type": "function"
    },
    {
      "inputs": [
        {
          "internalType": "address",
          "name": "_agentVault",
          "type": "address"
        }
      ],
      "name": "endLiquidation",
      "outputs": [],
      "stateMutability": "nonpayable",
      "type": "function"
    },
    {
      "inputs": [
        {
          "internalType": "address",
          "name": "_agentVault",
          "type": "address"
        },
        {
          "internalType": "string",
          "name": "_name",
          "type": "string"
        }
      ],
      "name": "executeAgentSettingUpdate",
      "outputs": [],
      "stateMutability": "nonpayable",
      "type": "function"
    },
    {
      "inputs": [
        {
          "components": [
            {
              "internalType": "bytes32[]",
              "name": "merkleProof",
              "type": "bytes32[]"
            },
            {
              "internalType": "uint256",
              "name": "stateConnectorRound",
              "type": "uint256"
            },
            {
              "internalType": "uint64",
              "name": "blockNumber",
              "type": "uint64"
            },
            {
              "internalType": "uint64",
              "name": "blockTimestamp",
              "type": "uint64"
            },
            {
              "internalType": "bytes32",
              "name": "transactionHash",
              "type": "bytes32"
            },
            {
              "internalType": "uint8",
              "name": "inUtxo",
              "type": "uint8"
            },
            {
              "internalType": "uint8",
              "name": "utxo",
              "type": "uint8"
            },
            {
              "internalType": "bytes32",
              "name": "sourceAddressHash",
              "type": "bytes32"
            },
            {
              "internalType": "bytes32",
              "name": "intendedSourceAddressHash",
              "type": "bytes32"
            },
            {
              "internalType": "bytes32",
              "name": "receivingAddressHash",
              "type": "bytes32"
            },
            {
              "internalType": "bytes32",
              "name": "intendedReceivingAddressHash",
              "type": "bytes32"
            },
            {
              "internalType": "int256",
              "name": "spentAmount",
              "type": "int256"
            },
            {
              "internalType": "int256",
              "name": "intendedSpentAmount",
              "type": "int256"
            },
            {
              "internalType": "int256",
              "name": "receivedAmount",
              "type": "int256"
            },
            {
              "internalType": "int256",
              "name": "intendedReceivedAmount",
              "type": "int256"
            },
            {
              "internalType": "bytes32",
              "name": "paymentReference",
              "type": "bytes32"
            },
            {
              "internalType": "bool",
              "name": "oneToOne",
              "type": "bool"
            },
            {
              "internalType": "uint8",
              "name": "status",
              "type": "uint8"
            }
          ],
          "internalType": "struct ISCProofVerifier.Payment",
          "name": "_payment",
          "type": "tuple"
        },
        {
          "internalType": "uint256",
          "name": "_collateralReservationId",
          "type": "uint256"
        }
      ],
      "name": "executeMinting",
      "outputs": [],
      "stateMutability": "nonpayable",
      "type": "function"
    },
    {
      "inputs": [
        {
          "internalType": "address",
          "name": "_agentVault",
          "type": "address"
        }
      ],
      "name": "exitAvailableAgentList",
      "outputs": [],
      "stateMutability": "nonpayable",
      "type": "function"
    },
    {
      "inputs": [],
      "name": "fAsset",
      "outputs": [
        {
          "internalType": "contract IERC20",
          "name": "",
          "type": "address"
        }
      ],
      "stateMutability": "view",
      "type": "function"
    },
    {
      "inputs": [
        {
          "components": [
            {
              "internalType": "bytes32[]",
              "name": "merkleProof",
              "type": "bytes32[]"
            },
            {
              "internalType": "uint256",
              "name": "stateConnectorRound",
              "type": "uint256"
            },
            {
              "internalType": "uint64",
              "name": "blockNumber",
              "type": "uint64"
            },
            {
              "internalType": "uint64",
              "name": "blockTimestamp",
              "type": "uint64"
            },
            {
              "internalType": "uint8",
              "name": "numberOfConfirmations",
              "type": "uint8"
            },
            {
              "internalType": "uint64",
              "name": "lowestQueryWindowBlockNumber",
              "type": "uint64"
            },
            {
              "internalType": "uint64",
              "name": "lowestQueryWindowBlockTimestamp",
              "type": "uint64"
            }
          ],
          "internalType": "struct ISCProofVerifier.ConfirmedBlockHeightExists",
          "name": "_proof",
          "type": "tuple"
        },
        {
          "internalType": "uint256",
          "name": "_redemptionRequestId",
          "type": "uint256"
        }
      ],
      "name": "finishRedemptionWithoutPayment",
      "outputs": [],
      "stateMutability": "nonpayable",
      "type": "function"
    },
    {
      "inputs": [
        {
          "components": [
            {
              "internalType": "bytes32[]",
              "name": "merkleProof",
              "type": "bytes32[]"
            },
            {
              "internalType": "uint256",
              "name": "stateConnectorRound",
              "type": "uint256"
            },
            {
              "internalType": "uint64",
              "name": "blockNumber",
              "type": "uint64"
            },
            {
              "internalType": "uint64",
              "name": "blockTimestamp",
              "type": "uint64"
            },
            {
              "internalType": "bytes32",
              "name": "transactionHash",
              "type": "bytes32"
            },
            {
              "internalType": "bytes32",
              "name": "sourceAddressIndicator",
              "type": "bytes32"
            },
            {
              "internalType": "bytes32",
              "name": "sourceAddressHash",
              "type": "bytes32"
            },
            {
              "internalType": "int256",
              "name": "spentAmount",
              "type": "int256"
            },
            {
              "internalType": "bytes32",
              "name": "paymentReference",
              "type": "bytes32"
            }
          ],
          "internalType": "struct ISCProofVerifier.BalanceDecreasingTransaction[]",
          "name": "_payments",
          "type": "tuple[]"
        },
        {
          "internalType": "address",
          "name": "_agentVault",
          "type": "address"
        }
      ],
      "name": "freeBalanceNegativeChallenge",
      "outputs": [],
      "stateMutability": "nonpayable",
      "type": "function"
    },
    {
      "inputs": [
        {
          "internalType": "address",
          "name": "_agentVault",
          "type": "address"
        }
      ],
      "name": "getAgentInfo",
      "outputs": [
        {
          "components": [
            {
              "internalType": "enum AgentInfo.Status",
              "name": "status",
              "type": "uint8"
            },
            {
              "internalType": "address",
              "name": "ownerColdWalletAddress",
              "type": "address"
            },
            {
              "internalType": "address",
              "name": "ownerHotWalletAddress",
              "type": "address"
            },
            {
              "internalType": "address",
              "name": "collateralPool",
              "type": "address"
            },
            {
              "internalType": "string",
              "name": "underlyingAddressString",
              "type": "string"
            },
            {
              "internalType": "bool",
              "name": "publiclyAvailable",
              "type": "bool"
            },
            {
              "internalType": "uint256",
              "name": "feeBIPS",
              "type": "uint256"
            },
            {
              "internalType": "uint256",
              "name": "poolFeeShareBIPS",
              "type": "uint256"
            },
            {
              "internalType": "contract IERC20",
              "name": "class1CollateralToken",
              "type": "address"
            },
            {
              "internalType": "uint256",
              "name": "mintingClass1CollateralRatioBIPS",
              "type": "uint256"
            },
            {
              "internalType": "uint256",
              "name": "mintingPoolCollateralRatioBIPS",
              "type": "uint256"
            },
            {
              "internalType": "uint256",
              "name": "freeCollateralLots",
              "type": "uint256"
            },
            {
              "internalType": "uint256",
              "name": "totalClass1CollateralWei",
              "type": "uint256"
            },
            {
              "internalType": "uint256",
              "name": "freeClass1CollateralWei",
              "type": "uint256"
            },
            {
              "internalType": "uint256",
              "name": "class1CollateralRatioBIPS",
              "type": "uint256"
            },
            {
              "internalType": "uint256",
              "name": "totalPoolCollateralNATWei",
              "type": "uint256"
            },
            {
              "internalType": "uint256",
              "name": "freePoolCollateralNATWei",
              "type": "uint256"
            },
            {
              "internalType": "uint256",
              "name": "poolCollateralRatioBIPS",
              "type": "uint256"
            },
            {
              "internalType": "uint256",
              "name": "totalAgentPoolTokensWei",
              "type": "uint256"
            },
            {
              "internalType": "uint256",
              "name": "announcedClass1WithdrawalWei",
              "type": "uint256"
            },
            {
              "internalType": "uint256",
              "name": "announcedPoolTokensWithdrawalWei",
              "type": "uint256"
            },
            {
              "internalType": "uint256",
              "name": "freeAgentPoolTokensWei",
              "type": "uint256"
            },
            {
              "internalType": "uint256",
              "name": "mintedUBA",
              "type": "uint256"
            },
            {
              "internalType": "uint256",
              "name": "reservedUBA",
              "type": "uint256"
            },
            {
              "internalType": "uint256",
              "name": "redeemingUBA",
              "type": "uint256"
            },
            {
              "internalType": "uint256",
              "name": "poolRedeemingUBA",
              "type": "uint256"
            },
            {
              "internalType": "uint256",
              "name": "dustUBA",
              "type": "uint256"
            },
            {
              "internalType": "uint256",
              "name": "ccbStartTimestamp",
              "type": "uint256"
            },
            {
              "internalType": "uint256",
              "name": "liquidationStartTimestamp",
              "type": "uint256"
            },
            {
              "internalType": "int256",
              "name": "underlyingBalanceUBA",
              "type": "int256"
            },
            {
              "internalType": "uint256",
              "name": "requiredUnderlyingBalanceUBA",
              "type": "uint256"
            },
            {
              "internalType": "int256",
              "name": "freeUnderlyingBalanceUBA",
              "type": "int256"
            },
            {
              "internalType": "uint256",
              "name": "announcedUnderlyingWithdrawalId",
              "type": "uint256"
            },
            {
              "internalType": "uint256",
              "name": "buyFAssetByAgentFactorBIPS",
              "type": "uint256"
            },
            {
              "internalType": "uint256",
              "name": "poolExitCollateralRatioBIPS",
              "type": "uint256"
            },
            {
              "internalType": "uint256",
              "name": "poolTopupCollateralRatioBIPS",
              "type": "uint256"
            },
            {
              "internalType": "uint256",
              "name": "poolTopupTokenPriceFactorBIPS",
              "type": "uint256"
            }
          ],
          "internalType": "struct AgentInfo.Info",
          "name": "",
          "type": "tuple"
        }
      ],
      "stateMutability": "view",
      "type": "function"
    },
    {
      "inputs": [
        {
          "internalType": "address",
          "name": "_agentVault",
          "type": "address"
        }
      ],
      "name": "getAgentVaultOwner",
      "outputs": [
        {
          "internalType": "address",
          "name": "_ownerColdAddress",
          "type": "address"
        },
        {
          "internalType": "address",
          "name": "_ownerHotAddress",
          "type": "address"
        }
      ],
      "stateMutability": "view",
      "type": "function"
    },
    {
      "inputs": [
        {
          "internalType": "uint256",
          "name": "_start",
          "type": "uint256"
        },
        {
          "internalType": "uint256",
          "name": "_end",
          "type": "uint256"
        }
      ],
      "name": "getAllAgents",
      "outputs": [
        {
          "internalType": "address[]",
          "name": "_agents",
          "type": "address[]"
        },
        {
          "internalType": "uint256",
          "name": "_totalLength",
          "type": "uint256"
        }
      ],
      "stateMutability": "view",
      "type": "function"
    },
    {
      "inputs": [
        {
          "internalType": "uint256",
          "name": "_start",
          "type": "uint256"
        },
        {
          "internalType": "uint256",
          "name": "_end",
          "type": "uint256"
        }
      ],
      "name": "getAvailableAgentsDetailedList",
      "outputs": [
        {
          "components": [
            {
              "internalType": "address",
              "name": "agentVault",
              "type": "address"
            },
            {
              "internalType": "uint256",
              "name": "feeBIPS",
              "type": "uint256"
            },
            {
              "internalType": "uint256",
              "name": "mintingClass1CollateralRatioBIPS",
              "type": "uint256"
            },
            {
              "internalType": "uint256",
              "name": "mintingPoolCollateralRatioBIPS",
              "type": "uint256"
            },
            {
              "internalType": "uint256",
              "name": "freeCollateralLots",
              "type": "uint256"
            }
          ],
          "internalType": "struct AvailableAgentInfo.Data[]",
          "name": "_agents",
          "type": "tuple[]"
        },
        {
          "internalType": "uint256",
          "name": "_totalLength",
          "type": "uint256"
        }
      ],
      "stateMutability": "view",
      "type": "function"
    },
    {
      "inputs": [
        {
          "internalType": "uint256",
          "name": "_start",
          "type": "uint256"
        },
        {
          "internalType": "uint256",
          "name": "_end",
          "type": "uint256"
        }
      ],
      "name": "getAvailableAgentsList",
      "outputs": [
        {
          "internalType": "address[]",
          "name": "_agents",
          "type": "address[]"
        },
        {
          "internalType": "uint256",
          "name": "_totalLength",
          "type": "uint256"
        }
      ],
      "stateMutability": "view",
      "type": "function"
    },
    {
      "inputs": [
        {
          "internalType": "address",
          "name": "_agentVault",
          "type": "address"
        }
      ],
      "name": "getCollateralPool",
      "outputs": [
        {
          "internalType": "address",
          "name": "",
          "type": "address"
        }
      ],
      "stateMutability": "view",
      "type": "function"
    },
    {
      "inputs": [
        {
          "internalType": "enum CollateralType.Class",
          "name": "_collateralClass",
          "type": "uint8"
        },
        {
          "internalType": "contract IERC20",
          "name": "_token",
          "type": "address"
        }
      ],
      "name": "getCollateralType",
      "outputs": [
        {
          "components": [
            {
              "internalType": "enum CollateralType.Class",
              "name": "collateralClass",
              "type": "uint8"
            },
            {
              "internalType": "contract IERC20",
              "name": "token",
              "type": "address"
            },
            {
              "internalType": "uint256",
              "name": "decimals",
              "type": "uint256"
            },
            {
              "internalType": "uint256",
              "name": "validUntil",
              "type": "uint256"
            },
            {
              "internalType": "bool",
              "name": "directPricePair",
              "type": "bool"
            },
            {
              "internalType": "string",
              "name": "assetFtsoSymbol",
              "type": "string"
            },
            {
              "internalType": "string",
              "name": "tokenFtsoSymbol",
              "type": "string"
            },
            {
              "internalType": "uint256",
              "name": "minCollateralRatioBIPS",
              "type": "uint256"
            },
            {
              "internalType": "uint256",
              "name": "ccbMinCollateralRatioBIPS",
              "type": "uint256"
            },
            {
              "internalType": "uint256",
              "name": "safetyMinCollateralRatioBIPS",
              "type": "uint256"
            }
          ],
          "internalType": "struct CollateralType.Data",
          "name": "",
          "type": "tuple"
        }
      ],
      "stateMutability": "view",
      "type": "function"
    },
    {
      "inputs": [],
      "name": "getCollateralTypes",
      "outputs": [
        {
          "components": [
            {
              "internalType": "enum CollateralType.Class",
              "name": "collateralClass",
              "type": "uint8"
            },
            {
              "internalType": "contract IERC20",
              "name": "token",
              "type": "address"
            },
            {
              "internalType": "uint256",
              "name": "decimals",
              "type": "uint256"
            },
            {
              "internalType": "uint256",
              "name": "validUntil",
              "type": "uint256"
            },
            {
              "internalType": "bool",
              "name": "directPricePair",
              "type": "bool"
            },
            {
              "internalType": "string",
              "name": "assetFtsoSymbol",
              "type": "string"
            },
            {
              "internalType": "string",
              "name": "tokenFtsoSymbol",
              "type": "string"
            },
            {
              "internalType": "uint256",
              "name": "minCollateralRatioBIPS",
              "type": "uint256"
            },
            {
              "internalType": "uint256",
              "name": "ccbMinCollateralRatioBIPS",
              "type": "uint256"
            },
            {
              "internalType": "uint256",
              "name": "safetyMinCollateralRatioBIPS",
              "type": "uint256"
            }
          ],
          "internalType": "struct CollateralType.Data[]",
          "name": "",
          "type": "tuple[]"
        }
      ],
      "stateMutability": "view",
      "type": "function"
    },
    {
      "inputs": [
        {
          "internalType": "address",
          "name": "_agentVault",
          "type": "address"
        }
      ],
      "name": "getFAssetsBackedByPool",
      "outputs": [
        {
          "internalType": "uint256",
          "name": "",
          "type": "uint256"
        }
      ],
      "stateMutability": "view",
      "type": "function"
    },
    {
      "inputs": [],
      "name": "getLiquidationSettings",
      "outputs": [
        {
          "internalType": "bytes",
          "name": "",
          "type": "bytes"
        }
      ],
      "stateMutability": "view",
      "type": "function"
    },
    {
      "inputs": [],
      "name": "getSettings",
      "outputs": [
        {
          "components": [
            {
              "internalType": "address",
              "name": "assetManagerController",
              "type": "address"
            },
            {
              "internalType": "address",
              "name": "fAsset",
              "type": "address"
            },
            {
              "internalType": "address",
              "name": "agentVaultFactory",
              "type": "address"
            },
            {
              "internalType": "address",
              "name": "collateralPoolFactory",
              "type": "address"
            },
            {
              "internalType": "address",
              "name": "collateralPoolTokenFactory",
              "type": "address"
            },
            {
              "internalType": "address",
              "name": "whitelist",
              "type": "address"
            },
            {
              "internalType": "address",
              "name": "agentWhitelist",
              "type": "address"
            },
            {
              "internalType": "address",
              "name": "scProofVerifier",
              "type": "address"
            },
            {
              "internalType": "address",
              "name": "underlyingAddressValidator",
              "type": "address"
            },
            {
              "internalType": "address",
              "name": "liquidationStrategy",
              "type": "address"
            },
            {
              "internalType": "address payable",
              "name": "burnAddress",
              "type": "address"
            },
            {
              "internalType": "address",
              "name": "priceReader",
              "type": "address"
            },
            {
              "internalType": "uint8",
              "name": "assetDecimals",
              "type": "uint8"
            },
            {
              "internalType": "uint8",
              "name": "assetMintingDecimals",
              "type": "uint8"
            },
            {
              "internalType": "uint32",
              "name": "chainId",
              "type": "uint32"
            },
            {
              "internalType": "uint32",
              "name": "averageBlockTimeMS",
              "type": "uint32"
            },
            {
              "internalType": "uint32",
              "name": "mintingPoolHoldingsRequiredBIPS",
              "type": "uint32"
            },
            {
              "internalType": "uint16",
              "name": "collateralReservationFeeBIPS",
              "type": "uint16"
            },
            {
              "internalType": "uint64",
              "name": "assetUnitUBA",
              "type": "uint64"
            },
            {
              "internalType": "uint64",
              "name": "assetMintingGranularityUBA",
              "type": "uint64"
            },
            {
              "internalType": "uint64",
              "name": "lotSizeAMG",
              "type": "uint64"
            },
            {
              "internalType": "uint16",
              "name": "minUnderlyingBackingBIPS",
              "type": "uint16"
            },
            {
              "internalType": "bool",
              "name": "requireEOAAddressProof",
              "type": "bool"
            },
            {
              "internalType": "uint64",
              "name": "mintingCapAMG",
              "type": "uint64"
            },
            {
              "internalType": "uint64",
              "name": "underlyingBlocksForPayment",
              "type": "uint64"
            },
            {
              "internalType": "uint64",
              "name": "underlyingSecondsForPayment",
              "type": "uint64"
            },
            {
              "internalType": "uint16",
              "name": "redemptionFeeBIPS",
              "type": "uint16"
            },
            {
              "internalType": "uint32",
              "name": "redemptionDefaultFactorAgentC1BIPS",
              "type": "uint32"
            },
            {
              "internalType": "uint32",
              "name": "redemptionDefaultFactorPoolBIPS",
              "type": "uint32"
            },
            {
              "internalType": "uint64",
              "name": "confirmationByOthersAfterSeconds",
              "type": "uint64"
            },
            {
              "internalType": "uint128",
              "name": "confirmationByOthersRewardUSD5",
              "type": "uint128"
            },
            {
              "internalType": "uint16",
              "name": "maxRedeemedTickets",
              "type": "uint16"
            },
            {
              "internalType": "uint16",
              "name": "paymentChallengeRewardBIPS",
              "type": "uint16"
            },
            {
              "internalType": "uint128",
              "name": "paymentChallengeRewardUSD5",
              "type": "uint128"
            },
            {
              "internalType": "uint64",
              "name": "withdrawalWaitMinSeconds",
              "type": "uint64"
            },
            {
              "internalType": "uint64",
              "name": "maxTrustedPriceAgeSeconds",
              "type": "uint64"
            },
            {
              "internalType": "uint64",
              "name": "ccbTimeSeconds",
              "type": "uint64"
            },
            {
              "internalType": "uint64",
              "name": "attestationWindowSeconds",
              "type": "uint64"
            },
            {
              "internalType": "uint64",
              "name": "minUpdateRepeatTimeSeconds",
              "type": "uint64"
            },
            {
              "internalType": "uint64",
              "name": "buybackCollateralFactorBIPS",
              "type": "uint64"
            },
            {
              "internalType": "uint64",
              "name": "announcedUnderlyingConfirmationMinSeconds",
              "type": "uint64"
            },
            {
              "internalType": "uint64",
              "name": "tokenInvalidationTimeMinSeconds",
              "type": "uint64"
            },
            {
              "internalType": "uint32",
              "name": "class1BuyForFlareFactorBIPS",
              "type": "uint32"
            },
            {
              "internalType": "uint64",
              "name": "agentExitAvailableTimelockSeconds",
              "type": "uint64"
            },
            {
              "internalType": "uint64",
              "name": "agentFeeChangeTimelockSeconds",
              "type": "uint64"
            },
            {
              "internalType": "uint64",
              "name": "agentCollateralRatioChangeTimelockSeconds",
              "type": "uint64"
            }
          ],
          "internalType": "struct AssetManagerSettings.Data",
          "name": "",
          "type": "tuple"
        }
      ],
      "stateMutability": "view",
      "type": "function"
    },
    {
      "inputs": [],
      "name": "getWNat",
      "outputs": [
        {
          "internalType": "contract IWNat",
          "name": "",
          "type": "address"
        }
      ],
      "stateMutability": "view",
      "type": "function"
    },
    {
      "inputs": [
        {
          "components": [
            {
              "internalType": "bytes32[]",
              "name": "merkleProof",
              "type": "bytes32[]"
            },
            {
              "internalType": "uint256",
              "name": "stateConnectorRound",
              "type": "uint256"
            },
            {
              "internalType": "uint64",
              "name": "blockNumber",
              "type": "uint64"
            },
            {
              "internalType": "uint64",
              "name": "blockTimestamp",
              "type": "uint64"
            },
            {
              "internalType": "bytes32",
              "name": "transactionHash",
              "type": "bytes32"
            },
            {
              "internalType": "bytes32",
              "name": "sourceAddressIndicator",
              "type": "bytes32"
            },
            {
              "internalType": "bytes32",
              "name": "sourceAddressHash",
              "type": "bytes32"
            },
            {
              "internalType": "int256",
              "name": "spentAmount",
              "type": "int256"
            },
            {
              "internalType": "bytes32",
              "name": "paymentReference",
              "type": "bytes32"
            }
          ],
          "internalType": "struct ISCProofVerifier.BalanceDecreasingTransaction",
          "name": "_transaction",
          "type": "tuple"
        },
        {
          "internalType": "address",
          "name": "_agentVault",
          "type": "address"
        }
      ],
      "name": "illegalPaymentChallenge",
      "outputs": [],
      "stateMutability": "nonpayable",
      "type": "function"
    },
    {
      "inputs": [
        {
          "internalType": "address",
          "name": "_agentVault",
          "type": "address"
        },
        {
          "internalType": "address",
          "name": "_address",
          "type": "address"
        }
      ],
      "name": "isAgentVaultOwner",
      "outputs": [
        {
          "internalType": "bool",
          "name": "",
          "type": "bool"
        }
      ],
      "stateMutability": "view",
      "type": "function"
    },
    {
      "inputs": [
        {
          "internalType": "address",
          "name": "_agentVault",
          "type": "address"
        },
        {
          "internalType": "contract IERC20",
          "name": "_token",
          "type": "address"
        }
      ],
      "name": "isLockedVaultToken",
      "outputs": [
        {
          "internalType": "bool",
          "name": "",
          "type": "bool"
        }
      ],
      "stateMutability": "view",
      "type": "function"
    },
    {
      "inputs": [
        {
          "internalType": "address",
          "name": "_agentVault",
          "type": "address"
        },
        {
          "internalType": "uint256",
          "name": "_amountUBA",
          "type": "uint256"
        }
      ],
      "name": "liquidate",
      "outputs": [
        {
          "internalType": "uint256",
          "name": "_liquidatedAmountUBA",
          "type": "uint256"
        },
        {
          "internalType": "uint256",
          "name": "_amountPaidClass1",
          "type": "uint256"
        },
        {
          "internalType": "uint256",
          "name": "_amountPaidPool",
          "type": "uint256"
        }
      ],
      "stateMutability": "nonpayable",
      "type": "function"
    },
    {
      "inputs": [],
      "name": "lotSize",
      "outputs": [
        {
          "internalType": "uint256",
          "name": "_lotSizeUBA",
          "type": "uint256"
        }
      ],
      "stateMutability": "view",
      "type": "function"
    },
    {
      "inputs": [
        {
          "internalType": "address",
          "name": "_agentVault",
          "type": "address"
        }
      ],
      "name": "makeAgentAvailable",
      "outputs": [],
      "stateMutability": "nonpayable",
      "type": "function"
    },
    {
      "inputs": [
        {
          "internalType": "address",
          "name": "_agentVault",
          "type": "address"
        }
      ],
      "name": "maxRedemptionFromAgent",
      "outputs": [
        {
          "internalType": "uint256",
          "name": "",
          "type": "uint256"
        }
      ],
      "stateMutability": "view",
      "type": "function"
    },
    {
      "inputs": [
        {
          "components": [
            {
              "internalType": "bytes32[]",
              "name": "merkleProof",
              "type": "bytes32[]"
            },
            {
              "internalType": "uint256",
              "name": "stateConnectorRound",
              "type": "uint256"
            },
            {
              "internalType": "uint64",
              "name": "deadlineBlockNumber",
              "type": "uint64"
            },
            {
              "internalType": "uint64",
              "name": "deadlineTimestamp",
              "type": "uint64"
            },
            {
              "internalType": "bytes32",
              "name": "destinationAddressHash",
              "type": "bytes32"
            },
            {
              "internalType": "bytes32",
              "name": "paymentReference",
              "type": "bytes32"
            },
            {
              "internalType": "uint128",
              "name": "amount",
              "type": "uint128"
            },
            {
              "internalType": "uint64",
              "name": "lowerBoundaryBlockNumber",
              "type": "uint64"
            },
            {
              "internalType": "uint64",
              "name": "lowerBoundaryBlockTimestamp",
              "type": "uint64"
            },
            {
              "internalType": "uint64",
              "name": "firstOverflowBlockNumber",
              "type": "uint64"
            },
            {
              "internalType": "uint64",
              "name": "firstOverflowBlockTimestamp",
              "type": "uint64"
            }
          ],
          "internalType": "struct ISCProofVerifier.ReferencedPaymentNonexistence",
          "name": "_proof",
          "type": "tuple"
        },
        {
          "internalType": "uint256",
          "name": "_collateralReservationId",
          "type": "uint256"
        }
      ],
      "name": "mintingPaymentDefault",
      "outputs": [],
      "stateMutability": "nonpayable",
      "type": "function"
    },
    {
      "inputs": [],
      "name": "pause",
      "outputs": [],
      "stateMutability": "nonpayable",
      "type": "function"
    },
    {
      "inputs": [],
      "name": "paused",
      "outputs": [
        {
          "internalType": "bool",
          "name": "",
          "type": "bool"
        }
      ],
      "stateMutability": "view",
      "type": "function"
    },
    {
      "inputs": [
        {
          "components": [
            {
              "internalType": "bytes32[]",
              "name": "merkleProof",
              "type": "bytes32[]"
            },
            {
              "internalType": "uint256",
              "name": "stateConnectorRound",
              "type": "uint256"
            },
            {
              "internalType": "uint64",
              "name": "blockNumber",
              "type": "uint64"
            },
            {
              "internalType": "uint64",
              "name": "blockTimestamp",
              "type": "uint64"
            },
            {
              "internalType": "bytes32",
              "name": "transactionHash",
              "type": "bytes32"
            },
            {
              "internalType": "uint8",
              "name": "inUtxo",
              "type": "uint8"
            },
            {
              "internalType": "uint8",
              "name": "utxo",
              "type": "uint8"
            },
            {
              "internalType": "bytes32",
              "name": "sourceAddressHash",
              "type": "bytes32"
            },
            {
              "internalType": "bytes32",
              "name": "intendedSourceAddressHash",
              "type": "bytes32"
            },
            {
              "internalType": "bytes32",
              "name": "receivingAddressHash",
              "type": "bytes32"
            },
            {
              "internalType": "bytes32",
              "name": "intendedReceivingAddressHash",
              "type": "bytes32"
            },
            {
              "internalType": "int256",
              "name": "spentAmount",
              "type": "int256"
            },
            {
              "internalType": "int256",
              "name": "intendedSpentAmount",
              "type": "int256"
            },
            {
              "internalType": "int256",
              "name": "receivedAmount",
              "type": "int256"
            },
            {
              "internalType": "int256",
              "name": "intendedReceivedAmount",
              "type": "int256"
            },
            {
              "internalType": "bytes32",
              "name": "paymentReference",
              "type": "bytes32"
            },
            {
              "internalType": "bool",
              "name": "oneToOne",
              "type": "bool"
            },
            {
              "internalType": "uint8",
              "name": "status",
              "type": "uint8"
            }
          ],
          "internalType": "struct ISCProofVerifier.Payment",
          "name": "_payment",
          "type": "tuple"
        }
      ],
      "name": "proveUnderlyingAddressEOA",
      "outputs": [],
      "stateMutability": "nonpayable",
      "type": "function"
    },
    {
      "inputs": [
        {
          "internalType": "uint256",
          "name": "_lots",
          "type": "uint256"
        },
        {
          "internalType": "string",
          "name": "_redeemerUnderlyingAddressString",
          "type": "string"
        }
      ],
      "name": "redeem",
      "outputs": [
        {
          "internalType": "uint256",
          "name": "_redeemedAmountUBA",
          "type": "uint256"
        }
      ],
      "stateMutability": "nonpayable",
      "type": "function"
    },
    {
      "inputs": [
        {
          "internalType": "address",
          "name": "_agentVault",
          "type": "address"
        },
        {
          "internalType": "address",
          "name": "_receiver",
          "type": "address"
        },
        {
          "internalType": "uint256",
          "name": "_amountUBA",
          "type": "uint256"
        },
        {
          "internalType": "string",
          "name": "_receiverUnderlyingAddress",
          "type": "string"
        }
      ],
      "name": "redeemFromAgent",
      "outputs": [],
      "stateMutability": "nonpayable",
      "type": "function"
    },
    {
      "inputs": [
        {
          "internalType": "address",
          "name": "_agentVault",
          "type": "address"
        },
        {
          "internalType": "address",
          "name": "_receiver",
          "type": "address"
        },
        {
          "internalType": "uint256",
          "name": "_amountUBA",
          "type": "uint256"
        }
      ],
      "name": "redeemFromAgentInCollateral",
      "outputs": [],
      "stateMutability": "nonpayable",
      "type": "function"
    },
    {
      "inputs": [
        {
          "components": [
            {
              "internalType": "bytes32[]",
              "name": "merkleProof",
              "type": "bytes32[]"
            },
            {
              "internalType": "uint256",
              "name": "stateConnectorRound",
              "type": "uint256"
            },
            {
              "internalType": "uint64",
              "name": "deadlineBlockNumber",
              "type": "uint64"
            },
            {
              "internalType": "uint64",
              "name": "deadlineTimestamp",
              "type": "uint64"
            },
            {
              "internalType": "bytes32",
              "name": "destinationAddressHash",
              "type": "bytes32"
            },
            {
              "internalType": "bytes32",
              "name": "paymentReference",
              "type": "bytes32"
            },
            {
              "internalType": "uint128",
              "name": "amount",
              "type": "uint128"
            },
            {
              "internalType": "uint64",
              "name": "lowerBoundaryBlockNumber",
              "type": "uint64"
            },
            {
              "internalType": "uint64",
              "name": "lowerBoundaryBlockTimestamp",
              "type": "uint64"
            },
            {
              "internalType": "uint64",
              "name": "firstOverflowBlockNumber",
              "type": "uint64"
            },
            {
              "internalType": "uint64",
              "name": "firstOverflowBlockTimestamp",
              "type": "uint64"
            }
          ],
          "internalType": "struct ISCProofVerifier.ReferencedPaymentNonexistence",
          "name": "_proof",
          "type": "tuple"
        },
        {
          "internalType": "uint256",
          "name": "_redemptionRequestId",
          "type": "uint256"
        }
      ],
      "name": "redemptionPaymentDefault",
      "outputs": [],
      "stateMutability": "nonpayable",
      "type": "function"
    },
    {
      "inputs": [
        {
          "internalType": "address",
          "name": "_agentVault",
          "type": "address"
        },
        {
          "internalType": "uint256",
          "name": "_lots",
          "type": "uint256"
        },
        {
          "internalType": "uint256",
          "name": "_maxMintingFeeBIPS",
          "type": "uint256"
        }
      ],
      "name": "reserveCollateral",
      "outputs": [],
      "stateMutability": "payable",
      "type": "function"
    },
    {
      "inputs": [
        {
          "internalType": "address",
          "name": "_agentVault",
          "type": "address"
        },
        {
          "internalType": "uint256",
          "name": "_amountUBA",
          "type": "uint256"
        }
      ],
      "name": "selfClose",
      "outputs": [
        {
          "internalType": "uint256",
          "name": "_closedAmountUBA",
          "type": "uint256"
        }
      ],
      "stateMutability": "nonpayable",
      "type": "function"
    },
    {
      "inputs": [
        {
          "components": [
            {
              "internalType": "bytes32[]",
              "name": "merkleProof",
              "type": "bytes32[]"
            },
            {
              "internalType": "uint256",
              "name": "stateConnectorRound",
              "type": "uint256"
            },
            {
              "internalType": "uint64",
              "name": "blockNumber",
              "type": "uint64"
            },
            {
              "internalType": "uint64",
              "name": "blockTimestamp",
              "type": "uint64"
            },
            {
              "internalType": "bytes32",
              "name": "transactionHash",
              "type": "bytes32"
            },
            {
              "internalType": "uint8",
              "name": "inUtxo",
              "type": "uint8"
            },
            {
              "internalType": "uint8",
              "name": "utxo",
              "type": "uint8"
            },
            {
              "internalType": "bytes32",
              "name": "sourceAddressHash",
              "type": "bytes32"
            },
            {
              "internalType": "bytes32",
              "name": "intendedSourceAddressHash",
              "type": "bytes32"
            },
            {
              "internalType": "bytes32",
              "name": "receivingAddressHash",
              "type": "bytes32"
            },
            {
              "internalType": "bytes32",
              "name": "intendedReceivingAddressHash",
              "type": "bytes32"
            },
            {
              "internalType": "int256",
              "name": "spentAmount",
              "type": "int256"
            },
            {
              "internalType": "int256",
              "name": "intendedSpentAmount",
              "type": "int256"
            },
            {
              "internalType": "int256",
              "name": "receivedAmount",
              "type": "int256"
            },
            {
              "internalType": "int256",
              "name": "intendedReceivedAmount",
              "type": "int256"
            },
            {
              "internalType": "bytes32",
              "name": "paymentReference",
              "type": "bytes32"
            },
            {
              "internalType": "bool",
              "name": "oneToOne",
              "type": "bool"
            },
            {
              "internalType": "uint8",
              "name": "status",
              "type": "uint8"
            }
          ],
          "internalType": "struct ISCProofVerifier.Payment",
          "name": "_payment",
          "type": "tuple"
        },
        {
          "internalType": "address",
          "name": "_agentVault",
          "type": "address"
        },
        {
          "internalType": "uint256",
          "name": "_lots",
          "type": "uint256"
        }
      ],
      "name": "selfMint",
      "outputs": [],
      "stateMutability": "nonpayable",
      "type": "function"
    },
    {
      "inputs": [
        {
          "internalType": "enum CollateralType.Class",
          "name": "_collateralClass",
          "type": "uint8"
        },
        {
          "internalType": "contract IERC20",
          "name": "_token",
          "type": "address"
        },
        {
          "internalType": "uint256",
          "name": "_minCollateralRatioBIPS",
          "type": "uint256"
        },
        {
          "internalType": "uint256",
          "name": "_ccbMinCollateralRatioBIPS",
          "type": "uint256"
        },
        {
          "internalType": "uint256",
          "name": "_safetyMinCollateralRatioBIPS",
          "type": "uint256"
        }
      ],
      "name": "setCollateralRatiosForToken",
      "outputs": [],
      "stateMutability": "nonpayable",
      "type": "function"
    },
    {
      "inputs": [
        {
          "internalType": "address",
          "name": "_ownerHotAddress",
          "type": "address"
        }
      ],
      "name": "setOwnerHotAddress",
      "outputs": [],
      "stateMutability": "nonpayable",
      "type": "function"
    },
    {
      "inputs": [
        {
          "internalType": "address",
          "name": "_agentVault",
          "type": "address"
        }
      ],
      "name": "startLiquidation",
      "outputs": [
        {
          "internalType": "uint8",
          "name": "_liquidationStatus",
          "type": "uint8"
        },
        {
          "internalType": "uint256",
          "name": "_liquidationStartAt",
          "type": "uint256"
        }
      ],
      "stateMutability": "nonpayable",
      "type": "function"
    },
    {
      "inputs": [
        {
          "internalType": "bytes4",
          "name": "_interfaceId",
          "type": "bytes4"
        }
      ],
      "name": "supportsInterface",
      "outputs": [
        {
          "internalType": "bool",
          "name": "",
          "type": "bool"
        }
      ],
      "stateMutability": "pure",
      "type": "function"
    },
    {
      "inputs": [
        {
          "internalType": "address",
          "name": "_agentVault",
          "type": "address"
        },
        {
          "internalType": "contract IERC20",
          "name": "_token",
          "type": "address"
        }
      ],
      "name": "switchClass1Collateral",
      "outputs": [],
      "stateMutability": "nonpayable",
      "type": "function"
    },
    {
      "inputs": [],
      "name": "terminate",
      "outputs": [],
      "stateMutability": "nonpayable",
      "type": "function"
    },
    {
      "inputs": [],
      "name": "terminated",
      "outputs": [
        {
          "internalType": "bool",
          "name": "",
          "type": "bool"
        }
      ],
      "stateMutability": "view",
      "type": "function"
    },
    {
      "inputs": [],
      "name": "unpause",
      "outputs": [],
      "stateMutability": "nonpayable",
      "type": "function"
    },
    {
      "inputs": [
        {
          "components": [
            {
              "internalType": "bytes32[]",
              "name": "merkleProof",
              "type": "bytes32[]"
            },
            {
              "internalType": "uint256",
              "name": "stateConnectorRound",
              "type": "uint256"
            },
            {
              "internalType": "uint64",
              "name": "blockNumber",
              "type": "uint64"
            },
            {
              "internalType": "uint64",
              "name": "blockTimestamp",
              "type": "uint64"
            },
            {
              "internalType": "uint8",
              "name": "numberOfConfirmations",
              "type": "uint8"
            },
            {
              "internalType": "uint64",
              "name": "lowestQueryWindowBlockNumber",
              "type": "uint64"
            },
            {
              "internalType": "uint64",
              "name": "lowestQueryWindowBlockTimestamp",
              "type": "uint64"
            }
          ],
          "internalType": "struct ISCProofVerifier.ConfirmedBlockHeightExists",
          "name": "_proof",
          "type": "tuple"
        },
        {
          "internalType": "uint256",
          "name": "_collateralReservationId",
          "type": "uint256"
        }
      ],
      "name": "unstickMinting",
      "outputs": [],
      "stateMutability": "payable",
      "type": "function"
    },
    {
      "inputs": [
        {
          "components": [
            {
              "internalType": "bytes32[]",
              "name": "merkleProof",
              "type": "bytes32[]"
            },
            {
              "internalType": "uint256",
              "name": "stateConnectorRound",
              "type": "uint256"
            },
            {
              "internalType": "uint64",
              "name": "blockNumber",
              "type": "uint64"
            },
            {
              "internalType": "uint64",
              "name": "blockTimestamp",
              "type": "uint64"
            },
            {
              "internalType": "uint8",
              "name": "numberOfConfirmations",
              "type": "uint8"
            },
            {
              "internalType": "uint64",
              "name": "lowestQueryWindowBlockNumber",
              "type": "uint64"
            },
            {
              "internalType": "uint64",
              "name": "lowestQueryWindowBlockTimestamp",
              "type": "uint64"
            }
          ],
          "internalType": "struct ISCProofVerifier.ConfirmedBlockHeightExists",
          "name": "_proof",
          "type": "tuple"
        }
      ],
      "name": "updateCurrentBlock",
      "outputs": [],
      "stateMutability": "nonpayable",
      "type": "function"
    },
    {
      "inputs": [
        {
          "internalType": "bytes32",
          "name": "_method",
          "type": "bytes32"
        },
        {
          "internalType": "bytes",
          "name": "_params",
          "type": "bytes"
        }
      ],
      "name": "updateSettings",
      "outputs": [],
      "stateMutability": "nonpayable",
      "type": "function"
    },
    {
      "inputs": [
        {
          "internalType": "address",
          "name": "_agentVault",
          "type": "address"
        }
      ],
      "name": "upgradeWNatContract",
      "outputs": [],
      "stateMutability": "nonpayable",
      "type": "function"
    },
    {
      "inputs": [
        {
          "internalType": "contract IERC20",
          "name": "_token",
          "type": "address"
        },
        {
          "internalType": "uint256",
          "name": "_valueNATWei",
          "type": "uint256"
        }
      ],
      "name": "withdrawCollateral",
      "outputs": [],
      "stateMutability": "nonpayable",
      "type": "function"
    }
  ],
  "bytecode": "0x60806040523480156200001157600080fd5b506040516200688a3803806200688a8339810160408190526200003491620005b2565b600160005560405163658f4c6160e01b815273__$498fae630e5f9e2b0d2f5a14b70bbf8a29$__9063658f4c619062000072908690600401620009cc565b60006040518083038186803b1580156200008b57600080fd5b505af4158015620000a0573d6000803e3d6000fd5b505060405163cbcf339b60e01b815273__$b5cdffcf5b8f8ae6fa06e08eee0b808a00$__925063cbcf339b9150620000dd90859060040162000d2f565b60006040518083038186803b158015620000f657600080fd5b505af41580156200010b573d6000803e3d6000fd5b5050505062000120816200012960201b60201c565b50505062000e60565b7fec7e8c1c441439dd40959777f4c577ea0cd42fcc1dbe59d2bd0f5d9c55df8dbf546040516001600160a01b0390911690600090829063439fab91906200017590869060240162000e26565b604051602081830303815290604052915060e01b6020820180516001600160e01b0383818316178352505050509050620001b68282620001bc60201b60201c565b50505050565b6060600080846001600160a01b031684604051620001db919062000e42565b600060405180830381855af49150503d806000811462000218576040519150601f19603f3d011682016040523d82523d6000602084013e6200021d565b606091505b5091509150811562000233579150620002469050565b3d604051818101604052816000823e8181fd5b92915050565b634e487b7160e01b600052604160045260246000fd5b60405161014081016001600160401b03811182821017156200028857620002886200024c565b60405290565b6040516105c081016001600160401b03811182821017156200028857620002886200024c565b604051601f8201601f191681016001600160401b0381118282101715620002df57620002df6200024c565b604052919050565b80516001600160a01b0381168114620002ff57600080fd5b919050565b805160ff81168114620002ff57600080fd5b805163ffffffff81168114620002ff57600080fd5b805161ffff81168114620002ff57600080fd5b80516001600160401b0381168114620002ff57600080fd5b80518015158114620002ff57600080fd5b80516001600160801b0381168114620002ff57600080fd5b805160038110620002ff57600080fd5b60005b83811015620003ac57818101518382015260200162000392565b50506000910152565b600082601f830112620003c757600080fd5b81516001600160401b03811115620003e357620003e36200024c565b620003f8601f8201601f1916602001620002b4565b8181528460208386010111156200040e57600080fd5b620004218260208301602087016200038f565b949350505050565b600082601f8301126200043b57600080fd5b815160206001600160401b03808311156200045a576200045a6200024c565b8260051b6200046b838201620002b4565b93845285810183019383810190888611156200048657600080fd5b84880192505b85831015620005a657825184811115620004a65760008081fd5b8801610140818b03601f1901811315620004c05760008081fd5b620004ca62000262565b620004d78884016200037f565b81526040620004e8818501620002e7565b89830152606080850151828401526080915081850151818401525060a06200051281860162000356565b8284015260c0915081850151898111156200052d5760008081fd5b6200053d8f8c83890101620003b5565b82850152505060e08085015189811115620005585760008081fd5b620005688f8c83890101620003b5565b83850152506101009150818501518184015250610120808501518284015283850151818401525050808552505050848201915084830192506200048c565b98975050505050505050565b6000806000838503610600811215620005ca57600080fd5b6105c080821215620005db57600080fd5b620005e56200028e565b9150620005f286620002e7565b82526200060260208701620002e7565b60208301526200061560408701620002e7565b60408301526200062860608701620002e7565b60608301526200063b60808701620002e7565b60808301526200064e60a08701620002e7565b60a08301526200066160c08701620002e7565b60c08301526200067460e08701620002e7565b60e083015261010062000689818801620002e7565b908301526101206200069d878201620002e7565b90830152610140620006b1878201620002e7565b90830152610160620006c5878201620002e7565b90830152610180620006d987820162000304565b908301526101a0620006ed87820162000304565b908301526101c06200070187820162000316565b908301526101e06200071587820162000316565b908301526102006200072987820162000316565b908301526102206200073d8782016200032b565b90830152610240620007518782016200033e565b90830152610260620007658782016200033e565b90830152610280620007798782016200033e565b908301526102a06200078d8782016200032b565b908301526102c0620007a187820162000356565b908301526102e0620007b58782016200033e565b90830152610300620007c98782016200033e565b90830152610320620007dd8782016200033e565b90830152610340620007f18782016200032b565b908301526103606200080587820162000316565b908301526103806200081987820162000316565b908301526103a06200082d8782016200033e565b908301526103c06200084187820162000367565b908301526103e0620008558782016200032b565b90830152610400620008698782016200032b565b908301526104206200087d87820162000367565b90830152610440620008918782016200033e565b90830152610460620008a58782016200033e565b90830152610480620008b98782016200033e565b908301526104a0620008cd8782016200033e565b908301526104c0620008e18782016200033e565b908301526104e0620008f58782016200033e565b90830152610500620009098782016200033e565b908301526105206200091d8782016200033e565b908301526105406200093187820162000316565b90830152610560620009458782016200033e565b90830152610580620009598782016200033e565b908301526105a06200096d8782016200033e565b908301528501519093506001600160401b03808211156200098d57600080fd5b6200099b8783880162000429565b93506105e0860151915080821115620009b357600080fd5b50620009c286828701620003b5565b9150509250925092565b81516001600160a01b031681526105c081016020830151620009f960208401826001600160a01b03169052565b50604083015162000a1560408401826001600160a01b03169052565b50606083015162000a3160608401826001600160a01b03169052565b50608083015162000a4d60808401826001600160a01b03169052565b5060a083015162000a6960a08401826001600160a01b03169052565b5060c083015162000a8560c08401826001600160a01b03169052565b5060e083015162000aa160e08401826001600160a01b03169052565b50610100838101516001600160a01b0390811691840191909152610120808501518216908401526101408085015182169084015261016080850151909116908301526101808084015160ff908116918401919091526101a080850151909116908301526101c08084015163ffffffff908116918401919091526101e080850151821690840152610200808501518216908401526102208085015161ffff90811691850191909152610240808601516001600160401b039081169186019190915261026080870151821690860152610280808701518216908601526102a0808701518316908601526102c0808701511515908601526102e08087015182169086015261030080870151821690860152610320808701518216908601526103408087015183169086015261036080870151841690860152610380808701518416908601526103a0808701518216908601526103c0808701516001600160801b03908116918701919091526103e080880151841690870152610400808801519093169286019290925261042080870151909216918501919091526104408086015182169085015261046080860151821690850152610480808601518216908501526104a0808601518216908501526104c0808601518216908501526104e0808601518216908501526105008086015182169085015261052080860151821690850152610540808601519092169184019190915261056080850151821690840152610580808501518216908401526105a09384015116929091019190915290565b6003811062000cfd57634e487b7160e01b600052602160045260246000fd5b9052565b6000815180845262000d1b8160208601602086016200038f565b601f01601f19169290920160200192915050565b60006020808301818452808551808352604092508286019150828160051b87010184880160005b8381101562000e1857603f19898403018552815161014062000d7a85835162000cde565b888201516001600160a01b0316858a015287820151888601526060808301519086015260808083015115159086015260a08083015181870183905262000dc38388018262000d01565b9250505060c0808301518683038288015262000de0838262000d01565b60e085810151908901526101008086015190890152610120948501519490970193909352505050938601939086019060010162000d56565b509098975050505050505050565b60208152600062000e3b602083018462000d01565b9392505050565b6000825162000e568184602087016200038f565b9190910192915050565b615a1a8062000e706000396000f3fe6080604052600436106104315760003560e01c80637c7db1a511610229578063bd6035351161012e578063ed000b30116100b6578063f19d3c061161007a578063f19d3c06146111b4578063f4d000b2146111d4578063f54ff230146111f4578063fa14761214611214578063fe005d221461123457600080fd5b8063ed000b3014611109578063ed3762aa14611129578063eebbcd5514611149578063f060b3f114611169578063f0c0b7251461118957600080fd5b8063d8a67e75116100fd578063d8a67e751461105b578063e1c501001461106e578063e415339c146110a7578063e7732f91146110c7578063ec96c1c9146110e757600080fd5b8063bd60353514610fe8578063be506e6714610ffb578063c0674b461461101b578063d6b93a9f1461103b57600080fd5b80639e1675f6116101b1578063b68af97e11610180578063b68af97e14610f3a578063b7f658ab14610f4d578063b928b53314610f6d578063ba657a3614610f8d578063bcbaf48714610fad57600080fd5b80639e1675f614610eb7578063a07ea7af14610ed7578063b19aec1714610ef7578063b5a488a614610f2557600080fd5b80638456cb59116101f85780638456cb59146109f657806385b4bb5314610a0b5780638a1914fe14610e575780639584da2a14610e775780639a570aff14610e9757600080fd5b80637c7db1a5146109715780637d7e1f50146109865780638003314d146109a657806382dede26146109d457600080fd5b80633f4ba83a1161033a5780635e71055c116102c25780636a26fb97116102865780636a26fb97146108b15780636a990403146108d15780636e61164f146108f1578063700104f714610931578063778aadd51461095157600080fd5b80635e71055c14610811578063612007e51461083157806365454f94146108515780636563392c14610871578063659854941461089157600080fd5b80635252f3a2116103095780635252f3a214610758578063537777301461077857806353ddb973146107a457806358366b8c146107c45780635c975abb146107e457600080fd5b80633f4ba83a146106e15780634610bc23146106f65780634942f65f1461072357806351c452bf1461073857600080fd5b8063194307bf116103bd5780632dabf2d01161038c5780632dabf2d014610641578063350c35e914610661578063368a3593146106815780633851b614146106a15780633ae06b11146106c157600080fd5b8063194307bf146105cc5780631e8bee01146105e1578063249f1b591461060157806324b76fd51461062157600080fd5b80630877acff116104045780630877acff146104ef5780630c08bf881461053c5780630ffb0e861461055157806313199ee01461057f578063152052b01461059f57600080fd5b806301ffc9a71461043657806302312aec1461046b578063025dfeb21461049557806304203930146104cd575b600080fd5b34801561044257600080fd5b5061045661045136600461366a565b611254565b60405190151581526020015b60405180910390f35b34801561047757600080fd5b506104806112a6565b60408051928352602083019190915201610462565b3480156104a157600080fd5b506104b56104b03660046136a7565b6112fd565b6040516001600160a01b039091168152602001610462565b3480156104d957600080fd5b506104ed6104e83660046136f8565b611386565b005b3480156104fb57600080fd5b507fec7e8c1c441439dd40959777f4c577ea0cd42fcc1dbe59d2bd0f5d9c55df8dd9546001600160401b03620100008204811691600160501b900416610480565b34801561054857600080fd5b506104ed6113f5565b34801561055d57600080fd5b5061057161056c366004613846565b6114f5565b604051908152602001610462565b34801561058b57600080fd5b506104ed61059a3660046138c1565b61157e565b3480156105ab57600080fd5b506105bf6105ba3660046136f8565b6115f6565b604051610462919061397c565b3480156105d857600080fd5b506104566117b0565b3480156105ed57600080fd5b506105716105fc3660046136f8565b611820565b34801561060d57600080fd5b506104ed61061c366004613bab565b6118a0565b34801561062d57600080fd5b5061057161063c366004613bfc565b61191e565b34801561064d57600080fd5b5061057161065c366004613c42565b6119ac565b34801561066d57600080fd5b506104ed61067c366004613c42565b6119eb565b34801561068d57600080fd5b5061057161069c366004613c6e565b611a68565b3480156106ad57600080fd5b506105716106bc3660046136f8565b611ab9565b3480156106cd57600080fd5b506104ed6106dc366004613c9a565b611afc565b3480156106ed57600080fd5b506104ed611b8e565b34801561070257600080fd5b50610716610711366004613ce2565b611c03565b6040516104629190613de4565b34801561072f57600080fd5b50610571611ce3565b34801561074457600080fd5b506104ed610753366004613df7565b611d4a565b34801561076457600080fd5b506104b56107733660046136f8565b611d92565b34801561078457600080fd5b506000805160206159c583398151915254600160401b900460ff16610456565b3480156107b057600080fd5b506104ed6107bf366004613e28565b611dad565b3480156107d057600080fd5b506104ed6107df366004613e9f565b611df0565b3480156107f057600080fd5b506000805160206159c5833981519152546001600160401b03161515610456565b34801561081d57600080fd5b5061057161082c3660046136f8565b611e31565b34801561083d57600080fd5b506104ed61084c3660046136f8565b611e74565b34801561085d57600080fd5b506104ed61086c3660046136f8565b611eb4565b34801561087d57600080fd5b506104ed61088c366004613ef5565b611ef4565b34801561089d57600080fd5b506104ed6108ac366004613f2a565b611f35565b3480156108bd57600080fd5b506104ed6108cc366004613df7565b611f78565b3480156108dd57600080fd5b506104ed6108ec366004613fa4565b611fc0565b3480156108fd57600080fd5b5061091161090c3660046136f8565b611ff9565b604080516001600160a01b03938416815292909116602083015201610462565b34801561093d57600080fd5b5061045661094c366004613df7565b612082565b34801561095d57600080fd5b506104ed61096c366004613df7565b612109565b34801561097d57600080fd5b506104b5612151565b34801561099257600080fd5b506104ed6109a1366004613fea565b61215b565b3480156109b257600080fd5b506109c66109c136600461401e565b612192565b604051610462929190614040565b3480156109e057600080fd5b506109e9612223565b60405161046291906140be565b348015610a0257600080fd5b506104ed612296565b348015610a1757600080fd5b50610e4a604080516105c081018252600080825260208201819052918101829052606081018290526080810182905260a0810182905260c0810182905260e08101829052610100810182905261012081018290526101408101829052610160810182905261018081018290526101a081018290526101c081018290526101e08101829052610200810182905261022081018290526102408101829052610260810182905261028081018290526102a081018290526102c081018290526102e08101829052610300810182905261032081018290526103408101829052610360810182905261038081018290526103a081018290526103c081018290526103e08101829052610400810182905261042081018290526104408101829052610460810182905261048081018290526104a081018290526104c081018290526104e08101829052610500810182905261052081018290526105408101829052610560810182905261058081018290526105a08101919091526000805160206159a5833981519152604080516105c08101825282546001600160a01b03908116825260018401548116602083015260028401548116928201929092526003830154821660608201526004830154821660808201526005830154821660a08201526006830154821660c08201526007830154821660e0820152600883015482166101008083019190915260098401548316610120830152600a8401548316610140830152600b84015492831661016083015260ff600160a01b8085048216610180850152600160a81b850482166101a085015263ffffffff600160b01b80870482166101c0870152600160d01b90960481166101e0860152600c87015480821661020087015261ffff64010000000080830482166102208901526001600160401b036601000000000000840481166102408a0152600160701b840481166102608a01529883048916610280890152600160f01b9283900482166102a0890152600d8a015495861615156102c089015295850488166102e0880152690100000000000000000085048816610300880152600160881b85048816610320880152600160c81b85048116610340880152600160d81b9094048216610360870152600e88015480831661038088015294850487166103a08701526001600160801b03600160601b860481166103c0880152600160e01b860485166103e08801529404909216610400850152600f860154928316610420850152600160801b8084048616610440860152600160c01b9384900486166104608601526010870154808716610480870152600160401b80820488166104a088015282820488166104c088015294900486166104e0860152601187015480871661050087015284810487166105208701529081049092166105408501529004831661056083015260129093015480831661058083015292909204166105a0820152919050565b6040516104629190614120565b348015610e6357600080fd5b506104ed610e72366004614430565b6122fe565b348015610e8357600080fd5b50610571610e92366004613c42565b61233f565b348015610ea357600080fd5b506104ed610eb236600461446c565b612389565b348015610ec357600080fd5b506104ed610ed2366004613fa4565b6123c0565b348015610ee357600080fd5b506104ed610ef23660046136f8565b6123f9565b348015610f0357600080fd5b50610f17610f1236600461401e565b612439565b6040516104629291906144a0565b348015610f3157600080fd5b506104b56124bf565b6104ed610f483660046136f8565b6124c9565b348015610f5957600080fd5b506104ed610f683660046136f8565b612593565b348015610f7957600080fd5b506104ed610f8836600461450a565b6125d3565b348015610f9957600080fd5b506104ed610fa83660046136f8565b61260b565b348015610fb957600080fd5b50610fcd610fc8366004613c42565b61264b565b60408051938452602084019290925290820152606001610462565b6104ed610ff6366004614527565b6126e9565b34801561100757600080fd5b506104ed61101636600461455c565b612772565b34801561102757600080fd5b506104ed6110363660046136f8565b6127b3565b34801561104757600080fd5b50610456611056366004613df7565b6127f3565b6104ed611069366004613ef5565b612807565b34801561107a57600080fd5b5061108e6110893660046136f8565b61288e565b6040805160ff9093168352602083019190915201610462565b3480156110b357600080fd5b50610f176110c236600461401e565b612938565b3480156110d357600080fd5b506104ed6110e2366004614591565b61297d565b3480156110f357600080fd5b506110fc6129b6565b60405161046291906145ca565b34801561111557600080fd5b506104ed6111243660046145dd565b6129c0565b34801561113557600080fd5b506105716111443660046136f8565b612a0f565b34801561115557600080fd5b506104ed6111643660046136a7565b612a52565b34801561117557600080fd5b506104ed6111843660046145fd565b612a91565b34801561119557600080fd5b506000805160206159a5833981519152546001600160a01b03166104b5565b3480156111c057600080fd5b506104ed6111cf366004614668565b612b04565b3480156111e057600080fd5b506104ed6111ef3660046136f8565b612b47565b34801561120057600080fd5b5061057161120f366004613c42565b612b87565b34801561122057600080fd5b506104ed61122f366004613e9f565b612bc5565b34801561124057600080fd5b506104ed61124f366004614430565b612c0e565b60006001600160e01b031982166301ffc9a760e01b148061128557506001600160e01b0319821663082f729560e31b145b806112a057506001600160e01b03198216632f69348b60e21b145b92915050565b6000806000805160206159a58339815191526112c86112c3612c32565b612cb4565b600c820154909350600160701b90046001600160401b03166112ec6009600a6147dd565b6112f691906147e9565b9150509091565b6000611307612cca565b604051635cb1433f60e01b815273__$8ed6b3b04009dff171844b9d72c92eddd0$__90635cb1433f90611340903090869060040161486e565b602060405180830381865af415801561135d573d6000803e3d6000fd5b505050506040513d601f19601f820116820180604052508101906112a09190614931565b919050565b60405163b42652e960e01b81526001600160a01b038216600482015273__$4054b81dd018f00b16b0262e280b71bd3d$__9063b42652e9906024015b60006040518083038186803b1580156113da57600080fd5b505af41580156113ee573d6000803e3d6000fd5b5050505050565b6113fd612d21565b6000805160206159c5833981519152546000805160206159a5833981519152906001600160401b03161580159061144e5750602481015461144b9062278d00906001600160401b031661494e565b42115b61149f5760405162461bcd60e51b815260206004820152601f60248201527f6173736574206d616e61676572206e6f742070617573656420656e6f7567680060448201526064015b60405180910390fd5b6114a7612d88565b6001600160a01b0316630c08bf886040518163ffffffff1660e01b8152600401600060405180830381600087803b1580156114e157600080fd5b505af11580156113ee573d6000803e3d6000fd5b60405163ccfb491360e01b815260009073__$df85e949fff37977e0d300eb10fcbb4998$__9063ccfb49139061153390879087908790600401614961565b602060405180830381865af4158015611550573d6000803e3d6000fd5b505050506040513d601f19601f820116820180604052508101906115749190614995565b90505b9392505050565b611586612d21565b60405163031836db60e41b815273__$b5cdffcf5b8f8ae6fa06e08eee0b808a00$__906331836db0906115c1908690869086906004016149ae565b60006040518083038186803b1580156115d957600080fd5b505af41580156115ed573d6000803e3d6000fd5b50505050505050565b611730604080516104a08101909152806000815260200160006001600160a01b0316815260200160006001600160a01b0316815260200160006001600160a01b0316815260200160608152602001600015158152602001600081526020016000815260200160006001600160a01b03168152602001600081526020016000815260200160008152602001600081526020016000815260200160008152602001600081526020016000815260200160008152602001600081526020016000815260200160008152602001600081526020016000815260200160008152602001600081526020016000815260200160008152602001600081526020016000815260200160008152602001600081526020016000815260200160008152602001600081526020016000815260200160008152602001600081525090565b604051630152052b60e41b81526001600160a01b038316600482015273__$ec55c6bae1638b00bbedb6b751f1f84e77$__9063152052b090602401600060405180830381865af4158015611788573d6000803e3d6000fd5b505050506040513d6000823e601f3d908101601f191682016040526112a09190810190614a42565b60006117ba612d88565b6001600160a01b031663194307bf6040518163ffffffff1660e01b8152600401602060405180830381865afa1580156117f7573d6000803e3d6000fd5b505050506040513d601f19601f8201168201806040525081019061181b9190614c64565b905090565b604051631e8bee0160e01b81526001600160a01b038216600482015260009073__$4ff30c53c077284d3b777228e6ae31216c$__90631e8bee01906024015b602060405180830381865af415801561187c573d6000803e3d6000fd5b505050506040513d601f19601f820116820180604052508101906112a09190614995565b6118a8612d21565b60405163314768f160e11b815273__$b5cdffcf5b8f8ae6fa06e08eee0b808a00$__9063628ed1e2906118e79088908890889088908890600401614c81565b60006040518083038186803b1580156118ff57600080fd5b505af4158015611913573d6000803e3d6000fd5b505050505050505050565b6000611928612db6565b73__$4ff30c53c077284d3b777228e6ae31216c$__6326e68cd43361194c86612ea2565b856040518463ffffffff1660e01b815260040161196b93929190614cb8565b602060405180830381865af4158015611988573d6000803e3d6000fd5b505050506040513d601f19601f820116820180604052508101906115779190614995565b60405163a43ba5ab60e01b815260009073__$c7446ca28182994c6c0135601399c1b584$__9063a43ba5ab9061196b90600290879087906004016149ae565b604051631f463e2360e21b81526001600160a01b03831660048201523360248201526044810182905273__$c7446ca28182994c6c0135601399c1b584$__90637d18f88c906064015b60006040518083038186803b158015611a4c57600080fd5b505af4158015611a60573d6000803e3d6000fd5b505050505050565b600073__$f7c9c0d01068167c22df35ff5943b62148$__630c7dcd15611a8d84612ea2565b6040516001600160e01b031960e084901b1681526001600160401b03909116600482015260240161185f565b60405163fdf6b37560e01b81526001600160a01b038216600482015260009073__$4054b81dd018f00b16b0262e280b71bd3d$__9063fdf6b3759060240161185f565b611b04612cca565b611b0c612f0e565b73__$db99a4b0b1a8936beb7122d8143ea3b698$__631449cfbd8484611b3185612ea2565b6040518463ffffffff1660e01b8152600401611b4f93929190614eb4565b60006040518083038186803b158015611b6757600080fd5b505af4158015611b7b573d6000803e3d6000fd5b50505050611b896001600055565b505050565b611b96612d21565b6000805160206159a5833981519152611bad6117b0565b15611bef5760405162461bcd60e51b8152602060048201526012602482015271198b585cdcd95d081d195c9b5a5b985d195960721b6044820152606401611496565b602401805467ffffffffffffffff19169055565b611c65604080516101408101909152806000815260200160006001600160a01b03168152602001600081526020016000815260200160001515815260200160608152602001606081526020016000815260200160008152602001600081525090565b604051631107361560e01b815273__$b5cdffcf5b8f8ae6fa06e08eee0b808a00$__90631107361590611c9e9086908690600401614ef0565b600060405180830381865af4158015611cbb573d6000803e3d6000fd5b505050506040513d6000823e601f3d908101601f191682016040526115779190810190614ff8565b7fec7e8c1c441439dd40959777f4c577ea0cd42fcc1dbe59d2bd0f5d9c55df8dc2546000906000805160206159a583398151915290611d3b906001600160401b03600160701b8204811691600160b01b90041661502c565b6001600160401b031691505090565b60405163c61ce7dd60e01b81526001600160a01b0380841660048301528216602482015273__$c7446ca28182994c6c0135601399c1b584$__9063c61ce7dd90604401611a34565b6000611d9d82612f67565b546001600160a01b031692915050565b611db5612db6565b604051634190855360e11b815273__$d15fd82c1987b4adc4c1dba5cf0be762b0$__906383210aa6906115c1908690869086906004016150eb565b73__$305ac64b111b0d775ac583a3c3f22849b9$__63cfc6004b83611e1484612ea2565b6040518363ffffffff1660e01b8152600401611a34929190615129565b60405163e4c5e4e960e01b81526001600160a01b038216600482015260009073__$8ed6b3b04009dff171844b9d72c92eddd0$__9063e4c5e4e99060240161185f565b604051630877cd8160e41b81526001600160a01b038216600482015273__$4054b81dd018f00b16b0262e280b71bd3d$__9063877cd810906024016113c2565b60405163195153e560e21b81526001600160a01b038216600482015273__$c7446ca28182994c6c0135601399c1b584$__906365454f94906024016113c2565b73__$2121826b9482dc4a95d5f1c5bc0ffbdf06$__63bf52cc8c83611f1884612ea2565b6040518363ffffffff1660e01b8152600401611a349291906151f4565b611f3d612db6565b604051633d6d00d960e21b815273__$d15fd82c1987b4adc4c1dba5cf0be762b0$__9063f5b40364906115c190869086908690600401615207565b6040516375f4d63f60e01b81526001600160a01b0380841660048301528216602482015273__$c7446ca28182994c6c0135601399c1b584$__906375f4d63f90604401611a34565b60405163220417df60e11b815273__$1c6dbe76071682217e38af6fe7e8685bd4$__906344082fbe90611a34908590859060040161528e565b604051636e61164f60e01b81526001600160a01b0382166004820152600090819073__$c7446ca28182994c6c0135601399c1b584$__90636e61164f906024016040805180830381865af4158015612055573d6000803e3d6000fd5b505050506040513d601f19601f8201168201806040525081019061207991906152b8565b91509150915091565b604051636a79d06960e11b81526001600160a01b0380841660048301528216602482015260009073__$c7446ca28182994c6c0135601399c1b584$__9063d4f3a0d290604401602060405180830381865af41580156120e5573d6000803e3d6000fd5b505050506040513d601f19601f820116820180604052508101906115779190614c64565b60405163778aadd560e01b81526001600160a01b0380841660048301528216602482015273__$8ed6b3b04009dff171844b9d72c92eddd0$__9063778aadd590604401611a34565b600061181b612d88565b604051633a8a9c4760e11b815273__$8ed6b3b04009dff171844b9d72c92eddd0$__90637515388e906113c29084906004016152e7565b60405163825378af60e01b8152600481018390526024810182905260609060009073__$4054b81dd018f00b16b0262e280b71bd3d$__9063825378af90604401600060405180830381865af41580156121ef573d6000803e3d6000fd5b505050506040513d6000823e601f3d908101601f19168201604052612217919081019061531d565b915091505b9250929050565b606073__$b5cdffcf5b8f8ae6fa06e08eee0b808a00$__63d80516a56040518163ffffffff1660e01b8152600401600060405180830381865af415801561226e573d6000803e3d6000fd5b505050506040513d6000823e601f3d908101601f1916820160405261181b91908101906153ff565b61229e612d21565b6000805160206159c5833981519152546000805160206159a5833981519152906001600160401b03166000036122fb576122d742612ea2565b60248201805467ffffffffffffffff19166001600160401b03929092169190911790555b50565b73__$2121826b9482dc4a95d5f1c5bc0ffbdf06$__63503225be8361232284612ea2565b6040518363ffffffff1660e01b8152600401611a349291906154c6565b604051634ac26d1560e11b81526001600160a01b03831660048201526024810182905260009073__$4ff30c53c077284d3b777228e6ae31216c$__90639584da2a9060440161196b565b6040516341c16dd760e11b815273__$722590fcf677171437eb48cf082465d6d7$__90638382dbae906113c2908490600401615616565b60405163717488af60e01b815273__$900ca2dd89aa7bd7c22612e1484fcfb277$__9063717488af90611a34908590859060040161528e565b60405163a07ea7af60e01b81526001600160a01b038216600482015273__$900ca2dd89aa7bd7c22612e1484fcfb277$__9063a07ea7af906024016113c2565b60405163b19aec1760e01b8152600481018390526024810182905260609060009073__$c7446ca28182994c6c0135601399c1b584$__9063b19aec17906044015b600060405180830381865af4158015612497573d6000803e3d6000fd5b505050506040513d6000823e601f3d908101601f191682016040526122179190810190615629565b600061181b61300e565b6124d1612f0e565b6124d96117b0565b61251e5760405162461bcd60e51b8152602060048201526016602482015275198b585cdcd95d081b9bdd081d195c9b5a5b985d195960521b6044820152606401611496565b604051635b457cbf60e11b81526001600160a01b038216600482015273__$8ed6b3b04009dff171844b9d72c92eddd0$__9063b68af97e9060240160006040518083038186803b15801561257157600080fd5b505af4158015612585573d6000803e3d6000fd5b505050506122fb6001600055565b60405163b7f658ab60e01b81526001600160a01b038216600482015273__$55e854ab37cd1bbaf9fa5a4f99ff154ced$__9063b7f658ab906024016113c2565b6125db612d21565b6000805160206159c58339815191528054911515600160401b0268ff000000000000000019909216919091179055565b604051635d32bd1b60e11b81526001600160a01b038216600482015273__$8ed6b3b04009dff171844b9d72c92eddd0$__9063ba657a36906024016113c2565b6000806000612658612db6565b60405163bcbaf48760e01b81526001600160a01b03861660048201526024810185905273__$55e854ab37cd1bbaf9fa5a4f99ff154ced$__9063bcbaf48790604401606060405180830381865af41580156126b7573d6000803e3d6000fd5b505050506040513d601f19601f820116820180604052508101906126db91906156ca565b919790965090945092505050565b6126f1612cca565b6126f9612db6565b73__$f7c9c0d01068167c22df35ff5943b62148$__63f2821a62338561271e86612ea2565b61272786612ea2565b6040516001600160e01b031960e087901b1681526001600160a01b0394851660048201529390921660248401526001600160401b0390811660448401521660648201526084016115c1565b61277a612db6565b604051635b4482eb60e11b815273__$d15fd82c1987b4adc4c1dba5cf0be762b0$__9063b68905d690611a3490859085906004016156f8565b604051636033a5a360e11b81526001600160a01b038216600482015273__$900ca2dd89aa7bd7c22612e1484fcfb277$__9063c0674b46906024016113c2565b600061157761280184612f67565b8361309c565b61280f612f0e565b73__$f7c9c0d01068167c22df35ff5943b62148$__635e2c2ead8361283384612ea2565b6040518363ffffffff1660e01b81526004016128509291906151f4565b60006040518083038186803b15801561286857600080fd5b505af415801561287c573d6000803e3d6000fd5b5050505061288a6001600055565b5050565b600080612899612db6565b60405162e1c50160e81b81526001600160a01b0384166004820152600090819073__$55e854ab37cd1bbaf9fa5a4f99ff154ced$__9063e1c50100906024016040805180830381865af41580156128f4573d6000803e3d6000fd5b505050506040513d601f19601f82011682018060405250810190612918919061570b565b9150915081600281111561292e5761292e613902565b9590945092505050565b6040516315302d6160e31b8152600481018390526024810182905260609060009073__$4054b81dd018f00b16b0262e280b71bd3d$__9063a9816b089060440161247a565b6040516331ec097760e01b815273__$df85e949fff37977e0d300eb10fcbb4998$__906331ec097790611a349085908590600401615739565b606061181b6130f6565b604051630ed000b360e41b81526001600160a01b038085166004830152831660248201526044810182905273__$4ff30c53c077284d3b777228e6ae31216c$__9063ed000b30906064016115c1565b60405163769bb15560e11b81526001600160a01b038216600482015260009073__$c7446ca28182994c6c0135601399c1b584$__9063ed3762aa9060240161185f565b612a5a612d21565b60405163839eddcd60e01b815273__$b5cdffcf5b8f8ae6fa06e08eee0b808a00$__9063839eddcd906113c290849060040161575d565b60405163f060b3f160e01b815273__$4ff30c53c077284d3b777228e6ae31216c$__9063f060b3f190612ace908790879087908790600401615838565b60006040518083038186803b158015612ae657600080fd5b505af4158015612afa573d6000803e3d6000fd5b5050505050505050565b612b0c612d21565b6040516302fab52b60e01b815273__$498fae630e5f9e2b0d2f5a14b70bbf8a29$__906302fab52b906115c190869086908690600401615875565b604051637a68005960e11b81526001600160a01b038216600482015273__$c7446ca28182994c6c0135601399c1b584$__9063f4d000b2906024016113c2565b60405163a43ba5ab60e01b815260009073__$c7446ca28182994c6c0135601399c1b584$__9063a43ba5ab9061196b908490879087906004016149ae565b612bcd612f0e565b73__$db99a4b0b1a8936beb7122d8143ea3b698$__635aaf5a7783612bf184612ea2565b6040518363ffffffff1660e01b8152600401612850929190615129565b73__$f7c9c0d01068167c22df35ff5943b62148$__63322e1ae38361232284612ea2565b7fec7e8c1c441439dd40959777f4c577ea0cd42fcc1dbe59d2bd0f5d9c55df8dd9547fec7e8c1c441439dd40959777f4c577ea0cd42fcc1dbe59d2bd0f5d9c55df8dc980546000926000805160206159a5833981519152929161ffff909116908110612ca057612ca061588f565b906000526020600020906004020191505090565b6000612cc1826000613178565b50909392505050565b6000805160206159c583398151915254600160401b900460ff16612d1f5760405162461bcd60e51b815260206004820152600c60248201526b1b9bdd08185d1d1858da195960a21b6044820152606401611496565b565b6000805160206159a5833981519152546001600160a01b03163314612d1f5760405162461bcd60e51b815260206004820152601d60248201527f6f6e6c79206173736574206d616e6167657220636f6e74726f6c6c65720000006044820152606401611496565b7fec7e8c1c441439dd40959777f4c577ea0cd42fcc1dbe59d2bd0f5d9c55df8db7546001600160a01b031690565b7fec7e8c1c441439dd40959777f4c577ea0cd42fcc1dbe59d2bd0f5d9c55df8dbb546000805160206159a5833981519152906001600160a01b0316156122fb576005810154604051633af32abf60e01b81523360048201526001600160a01b0390911690633af32abf90602401602060405180830381865afa158015612e40573d6000803e3d6000fd5b505050506040513d601f19601f82011682018060405250810190612e649190614c64565b6122fb5760405162461bcd60e51b815260206004820152600f60248201526e1b9bdd081dda1a5d195b1a5cdd1959608a1b6044820152606401611496565b60006001600160401b03821115612f0a5760405162461bcd60e51b815260206004820152602660248201527f53616665436173743a2076616c756520646f65736e27742066697420696e203660448201526534206269747360d01b6064820152608401611496565b5090565b600260005403612f605760405162461bcd60e51b815260206004820152601f60248201527f5265656e7472616e637947756172643a207265656e7472616e742063616c6c006044820152606401611496565b6002600055565b7f5bebac0595fee029d42bb673937f5f1cb81cf8641382bc17774635de9b7d796568010000000000000000600160e01b03604083901b161880600060048084015460ff1690811115612fbb57612fbb613902565b036130085760405162461bcd60e51b815260206004820152601b60248201527f696e76616c6964206167656e74207661756c74206164647265737300000000006044820152606401611496565b50919050565b7fec7e8c1c441439dd40959777f4c577ea0cd42fcc1dbe59d2bd0f5d9c55df8dd9547fec7e8c1c441439dd40959777f4c577ea0cd42fcc1dbe59d2bd0f5d9c55df8dc980546000926000805160206159a5833981519152929161ffff90911690811061307c5761307c61588f565b60009182526020909120600490910201546001600160a01b031692915050565b60018201546000906000805160206159a5833981519152906001600160a01b039081169084168114806130ed57506001600160a01b0380821660009081526016840160205260409020548582169116145b95945050505050565b7fec7e8c1c441439dd40959777f4c577ea0cd42fcc1dbe59d2bd0f5d9c55df8dbf546040805160048152602481019091526020810180516001600160e01b03166385b4bb5360e01b1790526060916001600160a01b031690600061315a8383613337565b90508080602001905181019061317091906158a5565b935050505090565b600080600080600080613217886001018054613193906158ed565b80601f01602080910402602001604051908101604052809291908181526020018280546131bf906158ed565b801561320c5780601f106131e15761010080835404028352916020019161320c565b820191906000526020600020905b8154815290600101906020018083116131ef57829003601f168201915b50505050508861334b565b8a549295509093509150600160f01b900460ff161561325e57875460009061324d90600160a81b900460ff166001838786613439565b965091945084935061333092505050565b60008060006132f98b6002018054613275906158ed565b80601f01602080910402602001604051908101604052809291908181526020018280546132a1906158ed565b80156132ee5780601f106132c3576101008083540402835291602001916132ee565b820191906000526020600020905b8154815290600101906020018083116132d157829003601f168201915b50505050508b61334b565b8d54929550909350915060009061331d90600160a81b900460ff1685848a89613439565b9950949750909550613330945050505050565b9250925092565b60606134c0806130ed858563ffffffff8416565b7fec7e8c1c441439dd40959777f4c577ea0cd42fcc1dbe59d2bd0f5d9c55df8dc154600090819081906000805160206159a5833981519152906001600160a01b0316851561340d5760405163e4a0a55b60e01b81526001600160a01b0382169063e4a0a55b906133bf908a906004016145ca565b606060405180830381865afa1580156133dc573d6000803e3d6000fd5b505050506040513d601f19601f8201168201806040525081019061340091906156ca565b9450945094505050613330565b60405163524f388960e01b81526001600160a01b0382169063524f3889906133bf908a906004016145ca565b60006000805160206159a5833981519152816009613457878a61494e565b613461919061494e565b600b830154909150600090613481908690600160a81b900460ff1661494e565b90508082101561349357613493615921565b6134b36134a08284615937565b6134ab90600a6147dd565b87908a613544565b9998505050505050505050565b6060600080846001600160a01b0316846040516134dd919061594a565b600060405180830381855af49150503d8060008114613518576040519150601f19603f3d011682016040523d82523d6000602084013e61351d565b606091505b509150915081156135315791506112a09050565b3d604051818101604052816000823e8181fd5b60008082116135885760405162461bcd60e51b815260206004820152601060248201526f4469766973696f6e206279207a65726f60801b6044820152606401611496565b8360000361359857506000611577565b838302838582816135ab576135ab615966565b04036135c9578281816135c0576135c0615966565b04915050611577565b5060006135d6838661597c565b905060006135e48487615990565b905060006135f2858761597c565b905060006136008688615990565b90508561360d82856147e9565b613617919061597c565b61362183856147e9565b61362b83876147e9565b8861363686896147e9565b61364091906147e9565b61364a919061494e565b613654919061494e565b61365e919061494e565b98975050505050505050565b60006020828403121561367c57600080fd5b81356001600160e01b03198116811461157757600080fd5b6000610140828403121561300857600080fd5b6000602082840312156136b957600080fd5b81356001600160401b038111156136cf57600080fd5b6136db84828501613694565b949350505050565b6001600160a01b03811681146122fb57600080fd5b60006020828403121561370a57600080fd5b8135611577816136e3565b634e487b7160e01b600052604160045260246000fd5b6040516104a081016001600160401b038111828210171561374e5761374e613715565b60405290565b60405161014081016001600160401b038111828210171561374e5761374e613715565b60405160a081016001600160401b038111828210171561374e5761374e613715565b604051601f8201601f191681016001600160401b03811182821017156137c1576137c1613715565b604052919050565b60006001600160401b038211156137e2576137e2613715565b50601f01601f191660200190565b600082601f83011261380157600080fd5b813561381461380f826137c9565b613799565b81815284602083860101111561382957600080fd5b816020850160208301376000918101602001919091529392505050565b60008060006060848603121561385b57600080fd5b8335613866816136e3565b925060208401356001600160401b0381111561388157600080fd5b61388d868287016137f0565b925050604084013590509250925092565b600381106122fb57600080fd5b80356113818161389e565b8035611381816136e3565b6000806000606084860312156138d657600080fd5b83356138e18161389e565b925060208401356138f1816136e3565b929592945050506040919091013590565b634e487b7160e01b600052602160045260246000fd5b6005811061392857613928613902565b9052565b60005b8381101561394757818101518382015260200161392f565b50506000910152565b6000815180845261396881602086016020860161392c565b601f01601f19169290920160200192915050565b6020815261398e602082018351613918565b600060208301516139aa60408401826001600160a01b03169052565b5060408301516001600160a01b03811660608401525060608301516001600160a01b03811660808401525060808301516104a08060a08501526139f16104c0850183613950565b915060a0850151613a0660c086018215159052565b5060c085015160e085015260e0850151610100818187015280870151915050610120613a3c818701836001600160a01b03169052565b8601516101408681019190915286015161016080870191909152860151610180808701919091528601516101a0808701919091528601516101c0808701919091528601516101e08087019190915286015161020080870191909152860151610220808701919091528601516102408087019190915286015161026080870191909152860151610280808701919091528601516102a0808701919091528601516102c0808701919091528601516102e08087019190915286015161030080870191909152860151610320808701919091528601516103408087019190915286015161036080870191909152860151610380808701919091528601516103a0808701919091528601516103c0808701919091528601516103e08087019190915286015161040080870191909152860151610420808701919091528601516104408087019190915286015161046080870191909152860151610480808701919091529095015193019290925250919050565b600080600080600060a08688031215613bc357600080fd5b8535613bce8161389e565b94506020860135613bde816136e3565b94979496505050506040830135926060810135926080909101359150565b60008060408385031215613c0f57600080fd5b8235915060208301356001600160401b03811115613c2c57600080fd5b613c38858286016137f0565b9150509250929050565b60008060408385031215613c5557600080fd5b8235613c60816136e3565b946020939093013593505050565b600060208284031215613c8057600080fd5b5035919050565b6000610240828403121561300857600080fd5b600080600060608486031215613caf57600080fd5b83356001600160401b03811115613cc557600080fd5b613cd186828701613c87565b93505060208401356138f1816136e3565b60008060408385031215613cf557600080fd5b8235613d008161389e565b91506020830135613d10816136e3565b809150509250929050565b600381106122fb576122fb613902565b61392881613d1b565b6000610140613d44848451613d2b565b6020830151613d5e60208601826001600160a01b03169052565b5060408301516040850152606083015160608501526080830151613d86608086018215159052565b5060a08301518160a0860152613d9e82860182613950565b91505060c083015184820360c0860152613db88282613950565b60e085810151908701526101008086015190870152610120948501519490950193909352509192915050565b6020815260006115776020830184613d34565b60008060408385031215613e0a57600080fd5b8235613d00816136e3565b6000610120828403121561300857600080fd5b600080600060608486031215613e3d57600080fd5b83356001600160401b0380821115613e5457600080fd5b613e6087838801613e15565b94506020860135915080821115613e7657600080fd5b50613e8386828701613e15565b9250506040840135613e94816136e3565b809150509250925092565b60008060408385031215613eb257600080fd5b82356001600160401b03811115613ec857600080fd5b613ed485828601613c87565b95602094909401359450505050565b600060e0828403121561300857600080fd5b60008060408385031215613f0857600080fd5b82356001600160401b03811115613f1e57600080fd5b613ed485828601613ee3565b600080600060408486031215613f3f57600080fd5b83356001600160401b0380821115613f5657600080fd5b818601915086601f830112613f6a57600080fd5b813581811115613f7957600080fd5b8760208260051b8501011115613f8e57600080fd5b60209283019550935050840135613e94816136e3565b60008060408385031215613fb757600080fd5b82356001600160401b03811115613fcd57600080fd5b613fd985828601613c87565b9250506020830135613d10816136e3565b600060208284031215613ffc57600080fd5b81356001600160401b0381111561401257600080fd5b6136db84828501613c87565b6000806040838503121561403157600080fd5b50508035926020909101359150565b6040808252835182820181905260009190606090818501906020808901865b838110156140aa57815180516001600160a01b031686528381015184870152878101518887015286810151878701526080908101519086015260a0909401939082019060010161405f565b505095909501959095525092949350505050565b6000602080830181845280855180835260408601915060408160051b870101925083870160005b8281101561411357603f19888603018452614101858351613d34565b945092850192908501906001016140e5565b5092979650505050505050565b81516001600160a01b031681526105c08101602083015161414c60208401826001600160a01b03169052565b50604083015161416760408401826001600160a01b03169052565b50606083015161418260608401826001600160a01b03169052565b50608083015161419d60808401826001600160a01b03169052565b5060a08301516141b860a08401826001600160a01b03169052565b5060c08301516141d360c08401826001600160a01b03169052565b5060e08301516141ee60e08401826001600160a01b03169052565b50610100838101516001600160a01b0390811691840191909152610120808501518216908401526101408085015182169084015261016080850151909116908301526101808084015160ff908116918401919091526101a080850151909116908301526101c08084015163ffffffff908116918401919091526101e080850151821690840152610200808501518216908401526102208085015161ffff90811691850191909152610240808601516001600160401b039081169186019190915261026080870151821690860152610280808701518216908601526102a0808701518316908601526102c0808701511515908601526102e08087015182169086015261030080870151821690860152610320808701518216908601526103408087015183169086015261036080870151841690860152610380808701518416908601526103a0808701518216908601526103c0808701516001600160801b03908116918701919091526103e080880151841690870152610400808801519093169286019290925261042080870151909216918501919091526104408086015182169085015261046080860151821690850152610480808601518216908501526104a0808601518216908501526104c0808601518216908501526104e0808601518216908501526105008086015182169085015261052080860151821690850152610540808601519092169184019190915261056080850151821690840152610580808501518216908401526105a08085015191821681850152905b505092915050565b6000806040838503121561444357600080fd5b82356001600160401b0381111561445957600080fd5b83016101608186031215613c6057600080fd5b60006020828403121561447e57600080fd5b81356001600160401b0381111561449457600080fd5b6136db84828501613ee3565b604080825283519082018190526000906020906060840190828701845b828110156144e25781516001600160a01b0316845292840192908401906001016144bd565b50505092019290925292915050565b80151581146122fb57600080fd5b8035611381816144f1565b60006020828403121561451c57600080fd5b8135611577816144f1565b60008060006060848603121561453c57600080fd5b8335614547816136e3565b95602085013595506040909401359392505050565b6000806040838503121561456f57600080fd5b82356001600160401b0381111561458557600080fd5b613fd985828601613e15565b600080604083850312156145a457600080fd5b82356145af816136e3565b915060208301356001600160401b03811115613c2c57600080fd5b6020815260006115776020830184613950565b6000806000606084860312156145f257600080fd5b83356138e1816136e3565b6000806000806080858703121561461357600080fd5b843561461e816136e3565b9350602085013561462e816136e3565b92506040850135915060608501356001600160401b0381111561465057600080fd5b61465c878288016137f0565b91505092959194509250565b60008060006040848603121561467d57600080fd5b8335925060208401356001600160401b038082111561469b57600080fd5b818601915086601f8301126146af57600080fd5b8135818111156146be57600080fd5b8760208285010111156146d057600080fd5b6020830194508093505050509250925092565b634e487b7160e01b600052601160045260246000fd5b600181815b8085111561473457816000190482111561471a5761471a6146e3565b8085161561472757918102915b93841c93908002906146fe565b509250929050565b60008261474b575060016112a0565b81614758575060006112a0565b816001811461476e576002811461477857614794565b60019150506112a0565b60ff841115614789576147896146e3565b50506001821b6112a0565b5060208310610133831016604e8410600b84101617156147b7575081810a6112a0565b6147c183836146f9565b80600019048211156147d5576147d56146e3565b029392505050565b6000611577838361473c565b80820281158282048414176112a0576112a06146e3565b6000808335601e1984360301811261481757600080fd5b83016020810192503590506001600160401b0381111561483657600080fd5b80360382131561221c57600080fd5b81835281816020850137506000828201602090810191909152601f909101601f19169091010190565b6001600160a01b038316815260406020820152600061488d8380614800565b6101408060408601526148a561018086018385614845565b92506148b3602087016138b6565b6001600160a01b0381166060870152915060408601356080860152606086013560a0860152608086013560c086015260a086013560e0860152610100915060c08601358286015261012060e087013581870152828701358287015280870135610160870152505050809150509392505050565b8051611381816136e3565b60006020828403121561494357600080fd5b8151611577816136e3565b808201808211156112a0576112a06146e3565b6001600160a01b038416815260606020820181905260009061498590830185613950565b9050826040830152949350505050565b6000602082840312156149a757600080fd5b5051919050565b606081016149bb85613d1b565b9381526001600160a01b0392909216602083015260409091015290565b80516005811061138157600080fd5b60006149f561380f846137c9565b9050828152838383011115614a0957600080fd5b61157783602083018461392c565b600082601f830112614a2857600080fd5b611577838351602085016149e7565b8051611381816144f1565b600060208284031215614a5457600080fd5b81516001600160401b0380821115614a6b57600080fd5b908301906104a08286031215614a8057600080fd5b614a8861372b565b614a91836149d8565b8152614a9f60208401614926565b6020820152614ab060408401614926565b6040820152614ac160608401614926565b6060820152608083015182811115614ad857600080fd5b614ae487828601614a17565b608083015250614af660a08401614a37565b60a082015260c083015160c082015260e083015160e08201526101009150614b1f828401614926565b9181019190915261012082810151908201526101408083015190820152610160808301519082015261018080830151908201526101a080830151908201526101c080830151908201526101e08083015190820152610200808301519082015261022080830151908201526102408083015190820152610260808301519082015261028080830151908201526102a080830151908201526102c080830151908201526102e08083015190820152610300808301519082015261032080830151908201526103408083015190820152610360808301519082015261038080830151908201526103a080830151908201526103c080830151908201526103e08083015190820152610400808301519082015261042080830151908201526104408083015190820152610460808301519082015261048091820151918101919091529392505050565b600060208284031215614c7657600080fd5b8151611577816144f1565b60a08101614c8e87613d1b565b9581526001600160a01b039490941660208501526040840192909252606083015260809091015290565b6001600160a01b03841681526001600160401b03831660208201526060604082018190526000906130ed90830184613950565b6000808335601e19843603018112614d0257600080fd5b83016020810192503590506001600160401b03811115614d2157600080fd5b8060051b360382131561221c57600080fd5b81835260006001600160fb1b03831115614d4c57600080fd5b8260051b80836020870137939093016020019392505050565b80356001600160401b038116811461138157600080fd5b803560ff8116811461138157600080fd5b6000610240614d9c8384614ceb565b828652614dac8387018284614d33565b9250505060208301356020850152614dc660408401614d65565b6001600160401b03166040850152614de060608401614d65565b6001600160401b0316606085015260808381013590850152614e0460a08401614d7c565b60ff1660a0850152614e1860c08401614d7c565b60ff1660c085015260e08381013590850152610100808401359085015261012080840135908501526101408084013590850152610160808401359085015261018080840135908501526101a080840135908501526101c080840135908501526101e08084013590850152610200614e908185016144ff565b151590850152610220614ea4848201614d7c565b60ff169401939093525090919050565b606081526000614ec76060830186614d8d565b6001600160a01b03949094166020830152506001600160401b0391909116604090910152919050565b60408101614efd84613d1b565b9281526001600160a01b039190911660209091015290565b80516113818161389e565b60006101408284031215614f3357600080fd5b614f3b613754565b9050614f4682614f15565b8152614f5460208301614926565b60208201526040820151604082015260608201516060820152614f7960808301614a37565b608082015260a08201516001600160401b0380821115614f9857600080fd5b614fa485838601614a17565b60a084015260c0840151915080821115614fbd57600080fd5b50614fca84828501614a17565b60c08301525060e082015160e082015261010080830151818301525061012080830151818301525092915050565b60006020828403121561500a57600080fd5b81516001600160401b0381111561502057600080fd5b6136db84828501614f20565b6001600160401b03818116838216028082169190828114614428576144286146e3565b600061012061505e8384614ceb565b82865261506e8387018284614d33565b92505050602083013560208501526001600160401b0361509060408501614d65565b1660408501526150a260608401614d65565b6001600160401b031660608501526080838101359085015260a0808401359085015260c0808401359085015260e080840135908501526101009283013592909301919091525090565b6060815260006150fe606083018661504f565b8281036020840152615110818661504f565b91505060018060a01b0383166040830152949350505050565b60408152600061513c6040830185614d8d565b90506001600160401b03831660208301529392505050565b60006151608283614ceb565b60e0855261517260e086018284614d33565b9150506020830135602085015261518b60408401614d65565b6001600160401b038082166040870152806151a860608701614d65565b16606087015260ff6151bc60808701614d7c565b166080870152806151cf60a08701614d65565b1660a0870152806151e260c08701614d65565b1660c087015250508091505092915050565b60408152600061513c6040830185615154565b6040808252810183905260006060600585901b830181019083018683805b8881101561526d57868503605f190184528235368b900361011e1901811261524b578283fd5b615257868c830161504f565b9550506020938401939290920191600101615225565b505050506001600160a01b0393909316602092909201919091525092915050565b6040815260006152a16040830185614d8d565b905060018060a01b03831660208301529392505050565b600080604083850312156152cb57600080fd5b82516152d6816136e3565b6020840151909250613d10816136e3565b6020815260006115776020830184614d8d565b60006001600160401b0382111561531357615313613715565b5060051b60200190565b600080604080848603121561533157600080fd5b83516001600160401b0381111561534757600080fd5b8401601f8101861361535857600080fd5b8051602061536861380f836152fa565b82815260a0928302840182019282820191908a85111561538757600080fd5b948301945b848610156153ec5780868c0312156153a45760008081fd5b6153ac613777565b86516153b7816136e3565b81528685015185820152878701518882015260608088015190820152608080880151908201528352948501949183019161538c565b5097909101519698969750505050505050565b6000602080838503121561541257600080fd5b82516001600160401b038082111561542957600080fd5b818501915085601f83011261543d57600080fd5b815161544b61380f826152fa565b81815260059190911b8301840190848101908883111561546a57600080fd5b8585015b838110156154a2578051858111156154865760008081fd5b6154948b89838a0101614f20565b84525091860191860161546e565b5098975050505050505050565b80356001600160801b038116811461138157600080fd5b6040815260006154d68485614ceb565b6101608060408601526154ee6101a086018385614d33565b92506020870135606086015261550660408801614d65565b6001600160401b0381166080870152915061552360608801614d65565b6001600160401b03811660a08701529150608087013560c086015260a087013560e086015261555460c088016154af565b915061010061556d818701846001600160801b03169052565b61557960e08901614d65565b9250610120615592818801856001600160401b03169052565b61559d828a01614d65565b935061014091506155b8828801856001600160401b03169052565b6155c3818a01614d65565b9350506155da828701846001600160401b03169052565b6155e5818901614d65565b925050506155ff6101808501826001600160401b03169052565b506001600160401b03841660208401529050611577565b6020815260006115776020830184615154565b6000806040838503121561563c57600080fd5b82516001600160401b0381111561565257600080fd5b8301601f8101851361566357600080fd5b8051602061567361380f836152fa565b82815260059290921b8301810191818101908884111561569257600080fd5b938201935b838510156156b95784516156aa816136e3565b82529382019390820190615697565b969091015195979596505050505050565b6000806000606084860312156156df57600080fd5b8351925060208401519150604084015190509250925092565b6040815260006152a1604083018561504f565b6000806040838503121561571e57600080fd5b82516157298161389e565b6020939093015192949293505050565b6001600160a01b038316815260406020820181905260009061157490830184613950565b6020815261577660208201615771846138ab565b613d2b565b6000615784602084016138b6565b6001600160a01b03811660408401525060408301356060830152606083013560808301526157b4608084016144ff565b80151560a0840152506157ca60a0840184614800565b6101408060c08601526157e261016086018385614845565b92506157f160c0870187614800565b868503601f190160e0880152925061580a848483614845565b60e0880135610100888101919091528801356101208089019190915290970135919095015250929392505050565b6001600160a01b038581168252841660208201526040810183905260806060820181905260009061586b90830184613950565b9695505050505050565b8381526040602082015260006130ed604083018486614845565b634e487b7160e01b600052603260045260246000fd5b6000602082840312156158b757600080fd5b81516001600160401b038111156158cd57600080fd5b8201601f810184136158de57600080fd5b6136db848251602084016149e7565b600181811c9082168061590157607f821691505b60208210810361300857634e487b7160e01b600052602260045260246000fd5b634e487b7160e01b600052600160045260246000fd5b818103818111156112a0576112a06146e3565b6000825161595c81846020870161392c565b9190910192915050565b634e487b7160e01b600052601260045260246000fd5b60008261598b5761598b615966565b500490565b60008261599f5761599f615966565b50069056feec7e8c1c441439dd40959777f4c577ea0cd42fcc1dbe59d2bd0f5d9c55df8db6ec7e8c1c441439dd40959777f4c577ea0cd42fcc1dbe59d2bd0f5d9c55df8ddaa26469706673582212202c5704554bf7f8fdd95584d7ce2e3fccf758d562ea756dbfa029d0eea4b008fa64736f6c63430008140033",
  "linkReferences": {
    "contracts/fasset/library/AgentSettingsUpdater.sol": {
      "AgentSettingsUpdater": [
        {
          "length": 20,
          "start": 9079
        },
        {
          "length": 20,
          "start": 14332
        }
      ]
    },
    "contracts/fasset/library/AgentsCreateDestroy.sol": {
      "AgentsCreateDestroy": [
        {
          "length": 20,
          "start": 8582
        },
        {
          "length": 20,
          "start": 11458
        },
        {
          "length": 20,
          "start": 12191
        },
        {
          "length": 20,
          "start": 12250
        },
        {
          "length": 20,
          "start": 13228
        },
        {
          "length": 20,
          "start": 13465
        }
      ]
    },
    "contracts/fasset/library/AgentsExternal.sol": {
      "AgentsExternal": [
        {
          "length": 20,
          "start": 10286
        },
        {
          "length": 20,
          "start": 10374
        },
        {
          "length": 20,
          "start": 11232
        },
        {
          "length": 20,
          "start": 11586
        },
        {
          "length": 20,
          "start": 11790
        },
        {
          "length": 20,
          "start": 11916
        },
        {
          "length": 20,
          "start": 12059
        },
        {
          "length": 20,
          "start": 13004
        },
        {
          "length": 20,
          "start": 14496
        },
        {
          "length": 20,
          "start": 14805
        },
        {
          "length": 20,
          "start": 14857
        }
      ]
    },
    "contracts/fasset/library/AvailableAgents.sol": {
      "AvailableAgents": [
        {
          "length": 20,
          "start": 8724
        },
        {
          "length": 20,
          "start": 10570
        },
        {
          "length": 20,
          "start": 11522
        },
        {
          "length": 20,
          "start": 12325
        },
        {
          "length": 20,
          "start": 14283
        }
      ]
    },
    "contracts/fasset/library/Challenges.sol": {
      "Challenges": [
        {
          "length": 20,
          "start": 11316
        },
        {
          "length": 20,
          "start": 11708
        },
        {
          "length": 20,
          "start": 13817
        }
      ]
    },
    "contracts/fasset/library/CollateralReservations.sol": {
      "CollateralReservations": [
        {
          "length": 20,
          "start": 10460
        },
        {
          "length": 20,
          "start": 13675
        },
        {
          "length": 20,
          "start": 13953
        },
        {
          "length": 20,
          "start": 14976
        }
      ]
    },
    "contracts/fasset/library/CollateralTypes.sol": {
      "CollateralTypes": [
        {
          "length": 20,
          "start": 177
        },
        {
          "length": 20,
          "start": 9221
        },
        {
          "length": 20,
          "start": 10023
        },
        {
          "length": 20,
          "start": 10980
        },
        {
          "length": 20,
          "start": 12439
        },
        {
          "length": 20,
          "start": 14553
        }
      ]
    },
    "contracts/fasset/library/FullAgentInfo.sol": {
      "FullAgentInfo": [
        {
          "length": 20,
          "start": 9662
        }
      ]
    },
    "contracts/fasset/library/Liquidation.sol": {
      "Liquidation": [
        {
          "length": 20,
          "start": 13345
        },
        {
          "length": 20,
          "start": 13549
        },
        {
          "length": 20,
          "start": 14123
        }
      ]
    },
    "contracts/fasset/library/Minting.sol": {
      "Minting": [
        {
          "length": 20,
          "start": 10622
        },
        {
          "length": 20,
          "start": 14911
        }
      ]
    },
    "contracts/fasset/library/RedemptionConfirmations.sol": {
      "RedemptionConfirmations": [
        {
          "length": 20,
          "start": 11362
        }
      ]
    },
    "contracts/fasset/library/RedemptionFailures.sol": {
      "RedemptionFailures": [
        {
          "length": 20,
          "start": 11622
        },
        {
          "length": 20,
          "start": 12656
        }
      ]
    },
    "contracts/fasset/library/RedemptionRequests.sol": {
      "RedemptionRequests": [
        {
          "length": 20,
          "start": 9905
        },
        {
          "length": 20,
          "start": 10138
        },
        {
          "length": 20,
          "start": 12759
        },
        {
          "length": 20,
          "start": 14429
        },
        {
          "length": 20,
          "start": 14608
        }
      ]
    },
    "contracts/fasset/library/SettingsUpdater.sol": {
      "SettingsUpdater": [
        {
          "length": 20,
          "start": 72
        },
        {
          "length": 20,
          "start": 14731
        }
      ]
    },
    "contracts/fasset/library/StateUpdater.sol": {
      "StateUpdater": [
        {
          "length": 20,
          "start": 12808
        }
      ]
    },
    "contracts/fasset/library/UnderlyingBalance.sol": {
      "UnderlyingBalance": [
        {
          "length": 20,
          "start": 11839
        }
      ]
    },
    "contracts/fasset/library/UnderlyingWithdrawalAnnouncements.sol": {
      "UnderlyingWithdrawalAnnouncements": [
        {
          "length": 20,
          "start": 12863
        },
        {
          "length": 20,
          "start": 12935
        },
        {
          "length": 20,
          "start": 13889
        }
      ]
    }
  },
  "deployedLinkReferences": {
    "contracts/fasset/library/AgentSettingsUpdater.sol": {
      "AgentSettingsUpdater": [
        {
          "length": 20,
          "start": 5383
        },
        {
          "length": 20,
          "start": 10636
        }
      ]
    },
    "contracts/fasset/library/AgentsCreateDestroy.sol": {
      "AgentsCreateDestroy": [
        {
          "length": 20,
          "start": 4886
        },
        {
          "length": 20,
          "start": 7762
        },
        {
          "length": 20,
          "start": 8495
        },
        {
          "length": 20,
          "start": 8554
        },
        {
          "length": 20,
          "start": 9532
        },
        {
          "length": 20,
          "start": 9769
        }
      ]
    },
    "contracts/fasset/library/AgentsExternal.sol": {
      "AgentsExternal": [
        {
          "length": 20,
          "start": 6590
        },
        {
          "length": 20,
          "start": 6678
        },
        {
          "length": 20,
          "start": 7536
        },
        {
          "length": 20,
          "start": 7890
        },
        {
          "length": 20,
          "start": 8094
        },
        {
          "length": 20,
          "start": 8220
        },
        {
          "length": 20,
          "start": 8363
        },
        {
          "length": 20,
          "start": 9308
        },
        {
          "length": 20,
          "start": 10800
        },
        {
          "length": 20,
          "start": 11109
        },
        {
          "length": 20,
          "start": 11161
        }
      ]
    },
    "contracts/fasset/library/AvailableAgents.sol": {
      "AvailableAgents": [
        {
          "length": 20,
          "start": 5028
        },
        {
          "length": 20,
          "start": 6874
        },
        {
          "length": 20,
          "start": 7826
        },
        {
          "length": 20,
          "start": 8629
        },
        {
          "length": 20,
          "start": 10587
        }
      ]
    },
    "contracts/fasset/library/Challenges.sol": {
      "Challenges": [
        {
          "length": 20,
          "start": 7620
        },
        {
          "length": 20,
          "start": 8012
        },
        {
          "length": 20,
          "start": 10121
        }
      ]
    },
    "contracts/fasset/library/CollateralReservations.sol": {
      "CollateralReservations": [
        {
          "length": 20,
          "start": 6764
        },
        {
          "length": 20,
          "start": 9979
        },
        {
          "length": 20,
          "start": 10257
        },
        {
          "length": 20,
          "start": 11280
        }
      ]
    },
    "contracts/fasset/library/CollateralTypes.sol": {
      "CollateralTypes": [
        {
          "length": 20,
          "start": 5525
        },
        {
          "length": 20,
          "start": 6327
        },
        {
          "length": 20,
          "start": 7284
        },
        {
          "length": 20,
          "start": 8743
        },
        {
          "length": 20,
          "start": 10857
        }
      ]
    },
    "contracts/fasset/library/FullAgentInfo.sol": {
      "FullAgentInfo": [
        {
          "length": 20,
          "start": 5966
        }
      ]
    },
    "contracts/fasset/library/Liquidation.sol": {
      "Liquidation": [
        {
          "length": 20,
          "start": 9649
        },
        {
          "length": 20,
          "start": 9853
        },
        {
          "length": 20,
          "start": 10427
        }
      ]
    },
    "contracts/fasset/library/Minting.sol": {
      "Minting": [
        {
          "length": 20,
          "start": 6926
        },
        {
          "length": 20,
          "start": 11215
        }
      ]
    },
    "contracts/fasset/library/RedemptionConfirmations.sol": {
      "RedemptionConfirmations": [
        {
          "length": 20,
          "start": 7666
        }
      ]
    },
    "contracts/fasset/library/RedemptionFailures.sol": {
      "RedemptionFailures": [
        {
          "length": 20,
          "start": 7926
        },
        {
          "length": 20,
          "start": 8960
        }
      ]
    },
    "contracts/fasset/library/RedemptionRequests.sol": {
      "RedemptionRequests": [
        {
          "length": 20,
          "start": 6209
        },
        {
          "length": 20,
          "start": 6442
        },
        {
          "length": 20,
          "start": 9063
        },
        {
          "length": 20,
          "start": 10733
        },
        {
          "length": 20,
          "start": 10912
        }
      ]
    },
    "contracts/fasset/library/SettingsUpdater.sol": {
      "SettingsUpdater": [
        {
          "length": 20,
          "start": 11035
        }
      ]
    },
    "contracts/fasset/library/StateUpdater.sol": {
      "StateUpdater": [
        {
          "length": 20,
          "start": 9112
        }
      ]
    },
    "contracts/fasset/library/UnderlyingBalance.sol": {
      "UnderlyingBalance": [
        {
          "length": 20,
          "start": 8143
        }
      ]
    },
    "contracts/fasset/library/UnderlyingWithdrawalAnnouncements.sol": {
      "UnderlyingWithdrawalAnnouncements": [
        {
          "length": 20,
          "start": 9167
        },
        {
          "length": 20,
          "start": 9239
        },
        {
          "length": 20,
          "start": 10193
        }
      ]
    }
  }
}