{
  "_format": "hh-sol-artifact-1",
  "contractName": "Liquidator",
  "sourceName": "liquidator/contracts/Liquidator.sol",
  "abi": [
    {
      "inputs": [
        {
          "internalType": "contract IERC3156FlashLender",
          "name": "_flashLender",
          "type": "address"
        },
        {
          "internalType": "contract IBlazeSwapRouter",
          "name": "_blazeSwapRouter",
          "type": "address"
        }
      ],
      "stateMutability": "nonpayable",
      "type": "constructor"
    },
    {
      "inputs": [],
      "name": "blazeSwapRouter",
      "outputs": [
        {
          "internalType": "contract IBlazeSwapRouter",
          "name": "",
          "type": "address"
        }
      ],
      "stateMutability": "view",
      "type": "function"
    },
    {
      "inputs": [],
      "name": "flashLender",
      "outputs": [
        {
          "internalType": "contract IERC3156FlashLender",
          "name": "",
          "type": "address"
        }
      ],
      "stateMutability": "view",
      "type": "function"
    },
    {
      "inputs": [
        {
          "internalType": "address",
          "name": "",
          "type": "address"
        },
        {
          "internalType": "address",
          "name": "_token",
          "type": "address"
        },
        {
          "internalType": "uint256",
          "name": "_amount",
          "type": "uint256"
        },
        {
          "internalType": "uint256",
          "name": "_fee",
          "type": "uint256"
        },
        {
          "internalType": "bytes",
          "name": "_data",
          "type": "bytes"
        }
      ],
      "name": "onFlashLoan",
      "outputs": [
        {
          "internalType": "bytes32",
          "name": "",
          "type": "bytes32"
        }
      ],
      "stateMutability": "nonpayable",
      "type": "function"
    },
    {
      "inputs": [
        {
          "internalType": "address",
          "name": "_agentVault",
          "type": "address"
        },
        {
          "internalType": "address",
          "name": "_to",
          "type": "address"
        }
      ],
      "name": "runArbitrage",
      "outputs": [],
      "stateMutability": "nonpayable",
      "type": "function"
    },
    {
      "inputs": [
        {
          "internalType": "address",
          "name": "_agentVault",
          "type": "address"
        },
        {
          "internalType": "contract IERC3156FlashLender",
          "name": "_flashLender",
          "type": "address"
        },
        {
          "internalType": "contract IBlazeSwapRouter",
          "name": "_blazeSwapRouter",
          "type": "address"
        },
        {
          "internalType": "address",
          "name": "_to",
          "type": "address"
        }
      ],
      "name": "runArbitrageWithCustomParams",
      "outputs": [],
      "stateMutability": "nonpayable",
      "type": "function"
    }
  ],
  "bytecode": "0x60c06040523480156200001157600080fd5b5060405162002f1c38038062002f1c833981016040819052620000349162000065565b6001600160a01b039182166080521660a052620000a4565b6001600160a01b03811681146200006257600080fd5b50565b600080604083850312156200007957600080fd5b825162000086816200004c565b602084015190925062000099816200004c565b809150509250929050565b60805160a051612e3f620000dd60003960008181607101526105a201526000818160e301528181610581015261100f0152612e3f6000f3fe608060405234801561001057600080fd5b50600436106100675760003560e01c8063a771445811610050578063a7714458146100de578063c4dc1e0114610105578063f69c90b41461011a57600080fd5b80630b1f2e641461006c57806323e30c8b146100bd575b600080fd5b6100937f000000000000000000000000000000000000000000000000000000000000000081565b60405173ffffffffffffffffffffffffffffffffffffffff90911681526020015b60405180910390f35b6100d06100cb366004611d9b565b61012d565b6040519081526020016100b4565b6100937f000000000000000000000000000000000000000000000000000000000000000081565b610118610113366004611e45565b61031b565b005b610118610128366004611ea1565b61057b565b6000600160005460ff16600281111561014857610148611eda565b146101da576040517f08c379a000000000000000000000000000000000000000000000000000000000815260206004820152602d60248201527f4c697175696461746f723a20466c617368206c6f616e207769746820696e766160448201527f6c696420696e69746961746f720000000000000000000000000000000000000060648201526084015b60405180910390fd5b600080547fffffffffffffffffffffffffffffffffffffffffffffffffffffffffffffff001660021781558080808061021588880189611f09565b9450945094509450945061022e8a868d878787876105cb565b73ffffffffffffffffffffffffffffffffffffffff8b1663095ea7b3336102558c8e611fa9565b6040517fffffffff0000000000000000000000000000000000000000000000000000000060e085901b16815273ffffffffffffffffffffffffffffffffffffffff909216600483015260248201526044016020604051808303816000875af11580156102c5573d6000803e3d6000fd5b505050506040513d601f19601f820116820180604052508101906102e99190611fd1565b507f439148f0bbc682ca079e46d6e2c2f0c1e3b820f1a291b069d8882abf8cf18dd99c9b505050505050505050505050565b60008473ffffffffffffffffffffffffffffffffffffffff166394217ad16040518163ffffffff1660e01b8152600401602060405180830381865afa158015610368573d6000803e3d6000fd5b505050506040513d601f19601f8201168201806040525081019061038c9190611fec565b6040517fe1c5010000000000000000000000000000000000000000000000000000000000815273ffffffffffffffffffffffffffffffffffffffff87811660048301529192509082169063e1c501009060240160408051808303816000875af11580156103fd573d6000803e3d6000fd5b505050506040513d601f19601f82011682018060405250810190610421919061201a565b50506000610430868587610902565b905061043b81610e86565b60a08101516040517f70a0823100000000000000000000000000000000000000000000000000000000815230600482015260009173ffffffffffffffffffffffffffffffffffffffff16906370a0823190602401602060405180830381865afa1580156104ac573d6000803e3d6000fd5b505050506040513d601f19601f820116820180604052508101906104d09190612046565b60a08301516040517fa9059cbb00000000000000000000000000000000000000000000000000000000815273ffffffffffffffffffffffffffffffffffffffff87811660048301526024820184905292935091169063a9059cbb906044016020604051808303816000875af115801561054d573d6000803e3d6000fd5b505050506040513d601f19601f820116820180604052508101906105719190611fd1565b5050505050505050565b6105c7827f00000000000000000000000000000000000000000000000000000000000000007f00000000000000000000000000000000000000000000000000000000000000008461031b565b5050565b6040517f095ea7b300000000000000000000000000000000000000000000000000000000815273ffffffffffffffffffffffffffffffffffffffff8281166004830152602482018990526060919087169063095ea7b3906044016020604051808303816000875af1158015610644573d6000803e3d6000fd5b505050506040513d601f19601f820116820180604052508101906106689190611fd1565b508173ffffffffffffffffffffffffffffffffffffffff166338ed17398960006106928a8c611362565b30426040518663ffffffff1660e01b81526004016106b495949392919061205f565b6000604051808303816000875af11580156106d3573d6000803e3d6000fd5b505050506040513d6000823e601f3d908101601f191682016040526106fb9190810190612231565b90508091505060008473ffffffffffffffffffffffffffffffffffffffff1663bcbaf487858460018151811061073357610733612295565b60200260200101516040518363ffffffff1660e01b815260040161077992919073ffffffffffffffffffffffffffffffffffffffff929092168252602082015260400190565b6060604051808303816000875af1158015610798573d6000803e3d6000fd5b505050506040513d601f19601f820116820180604052508101906107bc91906122c4565b925050811590506108f7576040517f095ea7b300000000000000000000000000000000000000000000000000000000815273ffffffffffffffffffffffffffffffffffffffff84811660048301526024820183905287169063095ea7b3906044016020604051808303816000875af115801561083c573d6000803e3d6000fd5b505050506040513d601f19601f820116820180604052508101906108609190611fd1565b508273ffffffffffffffffffffffffffffffffffffffff166338ed173982600061088a8a8c611362565b30426040518663ffffffff1660e01b81526004016108ac95949392919061205f565b6000604051808303816000875af11580156108cb573d6000803e3d6000fd5b505050506040513d6000823e601f3d908101601f191682016040526108f39190810190612231565b9250505b505050505050505050565b610a3f604051806102a00160405280600073ffffffffffffffffffffffffffffffffffffffff168152602001600073ffffffffffffffffffffffffffffffffffffffff168152602001600073ffffffffffffffffffffffffffffffffffffffff168152602001600073ffffffffffffffffffffffffffffffffffffffff168152602001600073ffffffffffffffffffffffffffffffffffffffff168152602001600073ffffffffffffffffffffffffffffffffffffffff168152602001600073ffffffffffffffffffffffffffffffffffffffff16815260200160008152602001600081526020016000815260200160008152602001600081526020016000815260200160008152602001600081526020016000815260200160008152602001600081526020016000815260200160008152602001600081525090565b60008473ffffffffffffffffffffffffffffffffffffffff166394217ad16040518163ffffffff1660e01b8152600401602060405180830381865afa158015610a8c573d6000803e3d6000fd5b505050506040513d601f19601f82011682018060405250810190610ab09190611fec565b6040517f152052b000000000000000000000000000000000000000000000000000000000815273ffffffffffffffffffffffffffffffffffffffff878116600483015291925060009183169063152052b090602401600060405180830381865afa158015610b22573d6000803e3d6000fd5b505050506040513d6000823e601f3d908101601f19168201604052610b4a9190810190612394565b905060008273ffffffffffffffffffffffffffffffffffffffff166385b4bb536040518163ffffffff1660e01b8152600401600060405180830381865afa158015610b99573d6000803e3d6000fd5b505050506040513d6000823e601f3d908101601f19168201604052610bc19190810190612636565b73ffffffffffffffffffffffffffffffffffffffff8085168087528982166020808901919091528983166040808a019190915289841660608a015281850151841660808a015261010087015190931660a089015282517fb5a488a60000000000000000000000000000000000000000000000000000000081529251939450909263b5a488a69260048082019392918290030181865afa158015610c68573d6000803e3d6000fd5b505050506040513d601f19601f82011682018060405250810190610c8c9190611fec565b73ffffffffffffffffffffffffffffffffffffffff90811660c08601526101808381015160e08701526101e08401516101008701526103a08401516101208701526103c08401516101408701526103e084015161016087015261028083015167ffffffffffffffff169086015260a085015160808601516040517fd52bb6f40000000000000000000000000000000000000000000000000000000081529183166004830152821660248201529087169063d52bb6f4906044016040805180830381865afa158015610d61573d6000803e3d6000fd5b505050506040513d601f19601f82011682018060405250810190610d859190612a5e565b6101c08601526101a085015260c084015160a08501516040517fd52bb6f400000000000000000000000000000000000000000000000000000000815273ffffffffffffffffffffffffffffffffffffffff928316600482015290821660248201529087169063d52bb6f4906044016040805180830381865afa158015610e0f573d6000803e3d6000fd5b505050506040513d601f19601f82011682018060405250810190610e339190612a5e565b6102008601526101e08501528351610180820151608086015160a087015160c0880151610e639493929190611417565b610280880152610260870152610240860152610220850152509195945050505050565b6000805460ff166002811115610e9e57610e9e611eda565b14610f05576040517f08c379a000000000000000000000000000000000000000000000000000000000815260206004820152601e60248201527f4c697175696461746f723a205265656e7472616e637920626c6f636b6564000060448201526064016101d1565b600080547fffffffffffffffffffffffffffffffffffffffffffffffffffffffffffffff00166001179055610120810151610fc2576040517f08c379a000000000000000000000000000000000000000000000000000000000815260206004820152602360248201527f4c697175696461746f723a204e6f20662d617373657420746f206c697175696460448201527f617465000000000000000000000000000000000000000000000000000000000060648201526084016101d1565b60a08101516040517f613255ab00000000000000000000000000000000000000000000000000000000815273ffffffffffffffffffffffffffffffffffffffff91821660048201526000917f0000000000000000000000000000000000000000000000000000000000000000169063613255ab90602401602060405180830381865afa158015611056573d6000803e3d6000fd5b505050506040513d601f19601f8201168201806040525081019061107a9190612046565b90506000811161110c576040517f08c379a000000000000000000000000000000000000000000000000000000000815260206004820152602260248201527f4c697175696461746f723a20466c617368206c6f616e20756e617661696c616260448201527f6c6500000000000000000000000000000000000000000000000000000000000060648201526084016101d1565b600061111783611743565b905060008111611183576040517f08c379a000000000000000000000000000000000000000000000000000000000815260206004820152601f60248201527f4c697175696461746f723a204e6f2070726f66697420617661696c61626c650060448201526064016101d1565b826060015173ffffffffffffffffffffffffffffffffffffffff16635cffe9de308560a001516111b386866117bf565b608088015160c089015189516020808c01516040808e01519051611214969594930173ffffffffffffffffffffffffffffffffffffffff95861681529385166020850152918416604084015283166060830152909116608082015260a00190565b6040516020818303038152906040526040518563ffffffff1660e01b81526004016112429493929190612aae565b6020604051808303816000875af1158015611261573d6000803e3d6000fd5b505050506040513d601f19601f820116820180604052508101906112859190611fd1565b50600291506112919050565b60005460ff1660028111156112a8576112a8611eda565b1461133757604080517f08c379a00000000000000000000000000000000000000000000000000000000081526020600482015260248101919091527f4c697175696461746f723a205265656e7472616e637920626c6f636b6564206f60448201527f7220666c617368206c6f616e207265636569766572206e6f742063616c6c656460648201526084016101d1565b50600080547fffffffffffffffffffffffffffffffffffffffffffffffffffffffffffffff00169055565b60408051600280825260608083018452926000929190602083019080368337019050509050838160008151811061139b5761139b612295565b602002602001019073ffffffffffffffffffffffffffffffffffffffff16908173ffffffffffffffffffffffffffffffffffffffff168152505082816001815181106113e9576113e9612295565b73ffffffffffffffffffffffffffffffffffffffff9092166020928302919091019091015290505b92915050565b600080600080600061142a8a88886117d7565b905060008873ffffffffffffffffffffffffffffffffffffffff1663313ce5676040518163ffffffff1660e01b8152600401602060405180830381865afa158015611479573d6000803e3d6000fd5b505050506040513d601f19601f8201168201806040525081019061149d9190612aed565b82516040517f524f3889000000000000000000000000000000000000000000000000000000008152919250600091829173ffffffffffffffffffffffffffffffffffffffff8e169163524f3889916114f791600401612b08565b606060405180830381865afa158015611514573d6000803e3d6000fd5b505050506040513d601f19601f8201168201806040525081019061153891906122c4565b92505091506000808d73ffffffffffffffffffffffffffffffffffffffff1663524f388987602001516040518263ffffffff1660e01b815260040161157d9190612b08565b606060405180830381865afa15801561159a573d6000803e3d6000fd5b505050506040513d601f19601f820116820180604052508101906115be91906122c4565b92505091506116458560ff1684868f73ffffffffffffffffffffffffffffffffffffffff1663313ce5676040518163ffffffff1660e01b8152600401602060405180830381865afa158015611617573d6000803e3d6000fd5b505050506040513d601f19601f8201168201806040525081019061163b9190612aed565b60ff168587611940565b809a50819b50505050506000808d73ffffffffffffffffffffffffffffffffffffffff1663524f388987604001516040518263ffffffff1660e01b815260040161168f9190612b08565b606060405180830381865afa1580156116ac573d6000803e3d6000fd5b505050506040513d601f19601f820116820180604052508101906116d091906122c4565b92505091506117298560ff1684868e73ffffffffffffffffffffffffffffffffffffffff1663313ce5676040518163ffffffff1660e01b8152600401602060405180830381865afa158015611617573d6000803e3d6000fd5b809850819950505050505050505095509550955095915050565b60008061174f83611990565b9050600061178461177961176e84876101a00151886101c00151611b1b565b866101800151611b6a565b8561012001516117bf565b905080156117b4576117af6117a482866101a00151876101c00151611b9c565b856101a001516117bf565b6117b7565b60005b949350505050565b60008183106117ce57816117d0565b825b9392505050565b6117fb60405180606001604052806060815260200160608152602001606081525090565b6040517f4610bc2300000000000000000000000000000000000000000000000000000000815260009073ffffffffffffffffffffffffffffffffffffffff861690634610bc2390611853906002908890600401612b1b565b600060405180830381865afa158015611870573d6000803e3d6000fd5b505050506040513d6000823e601f3d908101601f191682016040526118989190810190612b8a565b905060008573ffffffffffffffffffffffffffffffffffffffff16634610bc236001866040518363ffffffff1660e01b81526004016118d8929190612b1b565b600060405180830381865afa1580156118f5573d6000803e3d6000fd5b505050506040513d6000823e601f3d908101601f1916820160405261191d9190810190612b8a565b60a0830151845260c0928301516020850152909101516040830152509392505050565b60008061194d8486611fa9565b61195890600a612da5565b6119629087612db1565b61196c888a611fa9565b61197790600a612da5565b6119819085612db1565b91509150965096945050505050565b6000816101e001516103e8836101a001516103e56119ae9190612db1565b6119b89190612df7565b6119c29190612db1565b90506119cd81611bf0565b90506000826101e00151836102400151846102200151612710866101400151876101c001516119fc9190612db1565b611a069190612df7565b611a109190612db1565b611a1a9190612df7565b611a249190612db1565b905060008361020001516103e8856102800151866102600151612710886101600151896101c00151611a569190612db1565b611a609190612df7565b611a6a9190612db1565b611a749190612df7565b611a80906103e5612db1565b611a8a9190612df7565b611a949190612db1565b9050611aa8611aa38284611fa9565b611bf0565b611ab29084612db1565b925050506000826101e00151836101a00151611ace9190612db1565b9050818110611ae05750600092915050565b611aea8183612e0b565b9150611afa90506103e882612db1565b9050611b086103e582612df7565b9050816101e00151816114119190612df7565b600080611b2a856103e5612db1565b90506000611b388483612db1565b9050600082611b49876103e8612db1565b611b539190611fa9565b9050611b5f8183612df7565b979650505050505050565b600080611b778385612e1e565b90508015611b945780611b8a8486611fa9565b6117af9190612e0b565b509192915050565b600080611ba98585612db1565b611bb5906103e8612db1565b90506000611bc38685612e0b565b611bcf906103e5612db1565b9050611bdb8183612df7565b611be6906001611fa9565b9695505050505050565b600081600003611c0257506000919050565b8160017001000000000000000000000000000000008210611c285760809190911c9060401b5b680100000000000000008210611c435760409190911c9060201b5b6401000000008210611c5a5760209190911c9060101b5b620100008210611c6f5760109190911c9060081b5b6101008210611c835760089190911c9060041b5b60108210611c965760049190911c9060021b5b60088210611ca25760011b5b6001818581611cb357611cb3612dc8565b048201901c90506001818581611ccb57611ccb612dc8565b048201901c90506001818581611ce357611ce3612dc8565b048201901c90506001818581611cfb57611cfb612dc8565b048201901c90506001818581611d1357611d13612dc8565b048201901c90506001818581611d2b57611d2b612dc8565b048201901c90506001818581611d4357611d43612dc8565b048201901c90506000818581611d5b57611d5b612dc8565b049050808210611d6b5780611d6d565b815b95945050505050565b73ffffffffffffffffffffffffffffffffffffffff81168114611d9857600080fd5b50565b60008060008060008060a08789031215611db457600080fd5b8635611dbf81611d76565b95506020870135611dcf81611d76565b94506040870135935060608701359250608087013567ffffffffffffffff80821115611dfa57600080fd5b818901915089601f830112611e0e57600080fd5b813581811115611e1d57600080fd5b8a6020828501011115611e2f57600080fd5b6020830194508093505050509295509295509295565b60008060008060808587031215611e5b57600080fd5b8435611e6681611d76565b93506020850135611e7681611d76565b92506040850135611e8681611d76565b91506060850135611e9681611d76565b939692955090935050565b60008060408385031215611eb457600080fd5b8235611ebf81611d76565b91506020830135611ecf81611d76565b809150509250929050565b7f4e487b7100000000000000000000000000000000000000000000000000000000600052602160045260246000fd5b600080600080600060a08688031215611f2157600080fd5b8535611f2c81611d76565b94506020860135611f3c81611d76565b93506040860135611f4c81611d76565b92506060860135611f5c81611d76565b91506080860135611f6c81611d76565b809150509295509295909350565b7f4e487b7100000000000000000000000000000000000000000000000000000000600052601160045260246000fd5b8082018082111561141157611411611f7a565b80518015158114611fcc57600080fd5b919050565b600060208284031215611fe357600080fd5b6117d082611fbc565b600060208284031215611ffe57600080fd5b81516117d081611d76565b805160ff81168114611fcc57600080fd5b6000806040838503121561202d57600080fd5b61203683612009565b9150602083015190509250929050565b60006020828403121561205857600080fd5b5051919050565b600060a082018783526020878185015260a0604085015281875180845260c086019150828901935060005b818110156120bc57845173ffffffffffffffffffffffffffffffffffffffff168352938301939183019160010161208a565b505073ffffffffffffffffffffffffffffffffffffffff969096166060850152505050608001529392505050565b7f4e487b7100000000000000000000000000000000000000000000000000000000600052604160045260246000fd5b604051610500810167ffffffffffffffff8111828210171561213d5761213d6120ea565b60405290565b604051610640810167ffffffffffffffff8111828210171561213d5761213d6120ea565b604051610140810167ffffffffffffffff8111828210171561213d5761213d6120ea565b604051601f8201601f1916810167ffffffffffffffff811182821017156121b4576121b46120ea565b604052919050565b600082601f8301126121cd57600080fd5b8151602067ffffffffffffffff8211156121e9576121e96120ea565b8160051b6121f882820161218b565b928352848101820192828101908785111561221257600080fd5b83870192505b84831015611b5f57825182529183019190830190612218565b6000806040838503121561224457600080fd5b825167ffffffffffffffff8082111561225c57600080fd5b612268868387016121bc565b9350602085015191508082111561227e57600080fd5b5061228b858286016121bc565b9150509250929050565b7f4e487b7100000000000000000000000000000000000000000000000000000000600052603260045260246000fd5b6000806000606084860312156122d957600080fd5b8351925060208401519150604084015190509250925092565b805160058110611fcc57600080fd5b8051611fcc81611d76565b60005b8381101561232757818101518382015260200161230f565b50506000910152565b600082601f83011261234157600080fd5b815167ffffffffffffffff81111561235b5761235b6120ea565b61236e6020601f19601f8401160161218b565b81815284602083860101111561238357600080fd5b6117b782602083016020870161230c565b6000602082840312156123a657600080fd5b815167ffffffffffffffff808211156123be57600080fd5b9083019061050082860312156123d357600080fd5b6123db612119565b6123e4836122f2565b81526123f260208401612301565b602082015261240360408401612301565b604082015261241460608401612301565b606082015260808301518281111561242b57600080fd5b61243787828601612330565b60808301525061244960a08401611fbc565b60a082015260c083015160c082015260e083015160e08201526101009150612472828401612301565b9181019190915261012082810151908201526101408083015190820152610160808301519082015261018080830151908201526101a080830151908201526101c080830151908201526101e08083015190820152610200808301519082015261022080830151908201526102408083015190820152610260808301519082015261028080830151908201526102a080830151908201526102c080830151908201526102e08083015190820152610300808301519082015261032080830151908201526103408083015190820152610360808301519082015261038080830151908201526103a080830151908201526103c080830151908201526103e08083015190820152610400808301519082015261042080830151908201526104408083015190820152610460808301519082015261048080830151908201526104a080830151908201526104c080830151908201526104e091820151918101919091529392505050565b805163ffffffff81168114611fcc57600080fd5b805161ffff81168114611fcc57600080fd5b805167ffffffffffffffff81168114611fcc57600080fd5b80516fffffffffffffffffffffffffffffffff81168114611fcc57600080fd5b60006020828403121561264857600080fd5b815167ffffffffffffffff8082111561266057600080fd5b90830190610640828603121561267557600080fd5b61267d612143565b61268683612301565b815261269460208401612301565b60208201526126a560408401612301565b60408201526126b660608401612301565b60608201526126c760808401612301565b608082015260a0830151828111156126de57600080fd5b6126ea87828601612330565b60a0830152506126fc60c08401612301565b60c082015261270d60e08401612301565b60e08201526101009150612722828401612301565b828201526101209150612736828401612301565b82820152610140915061274a828401612301565b82820152610160915061275e828401612301565b828201526101809150612772828401612301565b828201526101a09150612786828401612009565b828201526101c0915061279a828401612009565b828201526101e09150818301518282015261020091506127bb8284016125d8565b8282015261022091506127cf8284016125d8565b8282015261024091506127e38284016125ec565b8282015261026091506127f78284016125fe565b82820152610280915061280b8284016125fe565b828201526102a0915061281f8284016125fe565b828201526102c091506128338284016125ec565b828201526102e09150612847828401611fbc565b82820152610300915061285b8284016125fe565b82820152610320915061286f8284016125fe565b8282015261034091506128838284016125fe565b8282015261036091506128978284016125ec565b8282015261038091506128ab8284016125d8565b828201526103a091506128bf8284016125d8565b828201526103c091506128d38284016125fe565b828201526103e091506128e7828401612616565b8282015261040091506128fb8284016125ec565b82820152610420915061290f8284016125ec565b828201526104409150612923828401612616565b8282015261046091506129378284016125fe565b82820152610480915061294b8284016125fe565b828201526104a0915061295f8284016125fe565b828201526104c091506129738284016125fe565b828201526104e091506129878284016125fe565b82820152610500915061299b8284016125fe565b8282015261052091506129af8284016125fe565b8282015261054091506129c38284016125fe565b8282015261056091506129d78284016125d8565b8282015261058091506129eb8284016125fe565b828201526105a091506129ff8284016125fe565b828201526105c09150612a138284016125fe565b828201526105e09150612a278284016125fe565b828201526106009150612a3b8284016125fe565b828201526106209150612a4f8284016125d8565b91810191909152949350505050565b60008060408385031215612a7157600080fd5b505080516020909101519092909150565b60008151808452612a9a81602086016020860161230c565b601f01601f19169290920160200192915050565b600073ffffffffffffffffffffffffffffffffffffffff808716835280861660208401525083604083015260806060830152611be66080830184612a82565b600060208284031215612aff57600080fd5b6117d082612009565b6020815260006117d06020830184612a82565b6040810160038410612b56577f4e487b7100000000000000000000000000000000000000000000000000000000600052602160045260246000fd5b92815273ffffffffffffffffffffffffffffffffffffffff9190911660209091015290565b805160038110611fcc57600080fd5b600060208284031215612b9c57600080fd5b815167ffffffffffffffff80821115612bb457600080fd5b908301906101408286031215612bc957600080fd5b612bd1612167565b612bda83612b7b565b8152612be860208401612301565b60208201526040830151604082015260608301516060820152612c0d60808401611fbc565b608082015260a083015182811115612c2457600080fd5b612c3087828601612330565b60a08301525060c083015182811115612c4857600080fd5b612c5487828601612330565b60c08301525060e0838101519082015261010080840151908201526101209283015192810192909252509392505050565b600181815b80851115612cde57817fffffffffffffffffffffffffffffffffffffffffffffffffffffffffffffffff04821115612cc457612cc4611f7a565b80851615612cd157918102915b93841c9390800290612c8a565b509250929050565b600082612cf557506001611411565b81612d0257506000611411565b8160018114612d185760028114612d2257612d3e565b6001915050611411565b60ff841115612d3357612d33611f7a565b50506001821b611411565b5060208310610133831016604e8410600b8410161715612d61575081810a611411565b612d6b8383612c85565b807fffffffffffffffffffffffffffffffffffffffffffffffffffffffffffffffff04821115612d9d57612d9d611f7a565b029392505050565b60006117d08383612ce6565b808202811582820484141761141157611411611f7a565b7f4e487b7100000000000000000000000000000000000000000000000000000000600052601260045260246000fd5b600082612e0657612e06612dc8565b500490565b8181038181111561141157611411611f7a565b600082612e2d57612e2d612dc8565b50069056fea164736f6c6343000814000a",
  "linkReferences": {},
  "deployedLinkReferences": {}
}