{
  "_format": "hh-sol-artifact-1",
  "contractName": "Liquidator",
  "sourceName": "liquidator/contracts/Liquidator.sol",
  "abi": [
    {
      "inputs": [
        {
          "internalType": "address",
          "name": "_flashLender",
          "type": "address"
        },
        {
          "internalType": "address",
          "name": "_dex",
          "type": "address"
        }
      ],
      "stateMutability": "nonpayable",
      "type": "constructor"
    },
    {
      "inputs": [],
      "name": "dex",
      "outputs": [
        {
          "internalType": "address",
          "name": "",
          "type": "address"
        }
      ],
      "stateMutability": "view",
      "type": "function"
    },
    {
      "inputs": [],
      "name": "flashLender",
      "outputs": [
        {
          "internalType": "address",
          "name": "",
          "type": "address"
        }
      ],
      "stateMutability": "view",
      "type": "function"
    },
    {
      "inputs": [
        {
          "internalType": "uint256",
          "name": "_maxSlippageBipsDex1",
          "type": "uint256"
        },
        {
          "internalType": "uint256",
          "name": "_maxSlippageBipsDex2",
          "type": "uint256"
        },
        {
          "internalType": "address",
          "name": "_agentVault",
          "type": "address"
        }
      ],
      "name": "maxSlippageToMinPrices",
      "outputs": [
        {
          "internalType": "uint256",
          "name": "",
          "type": "uint256"
        },
        {
          "internalType": "uint256",
          "name": "",
          "type": "uint256"
        },
        {
          "internalType": "uint256",
          "name": "",
          "type": "uint256"
        },
        {
          "internalType": "uint256",
          "name": "",
          "type": "uint256"
        }
      ],
      "stateMutability": "view",
      "type": "function"
    },
    {
      "inputs": [
        {
          "internalType": "address",
          "name": "",
          "type": "address"
        },
        {
          "internalType": "address",
          "name": "_token",
          "type": "address"
        },
        {
          "internalType": "uint256",
          "name": "_amount",
          "type": "uint256"
        },
        {
          "internalType": "uint256",
          "name": "_fee",
          "type": "uint256"
        },
        {
          "internalType": "bytes",
          "name": "_data",
          "type": "bytes"
        }
      ],
      "name": "onFlashLoan",
      "outputs": [
        {
          "internalType": "bytes32",
          "name": "",
          "type": "bytes32"
        }
      ],
      "stateMutability": "nonpayable",
      "type": "function"
    },
    {
      "inputs": [
        {
          "internalType": "address",
          "name": "_agentVault",
          "type": "address"
        },
        {
          "internalType": "address",
          "name": "_profitTo",
          "type": "address"
        },
        {
          "internalType": "uint256",
          "name": "_vaultToFAssetMinDexPriceMul",
          "type": "uint256"
        },
        {
          "internalType": "uint256",
          "name": "_vaultToFAssetMinDexPriceDiv",
          "type": "uint256"
        },
        {
          "internalType": "uint256",
          "name": "_poolToVaultMinDexPriceMul",
          "type": "uint256"
        },
        {
          "internalType": "uint256",
          "name": "_poolToVaultMinDexPriceDiv",
          "type": "uint256"
        },
        {
          "internalType": "address",
          "name": "_flashLender",
          "type": "address"
        },
        {
          "internalType": "address",
          "name": "_dex",
          "type": "address"
        },
        {
          "internalType": "address[]",
          "name": "_vaultToFAssetDexPath",
          "type": "address[]"
        },
        {
          "internalType": "address[]",
          "name": "_poolToVaultDexPath",
          "type": "address[]"
        }
      ],
      "name": "runArbitrage",
      "outputs": [],
      "stateMutability": "nonpayable",
      "type": "function"
    }
  ],
  "bytecode": "0x60c06040523480156200001157600080fd5b50604051620047d9380380620047d9833981016040819052620000349162000069565b6001600160a01b039182166080521660a052620000a1565b80516001600160a01b03811681146200006457600080fd5b919050565b600080604083850312156200007d57600080fd5b62000088836200004c565b915062000098602084016200004c565b90509250929050565b60805160a0516146ff620000da60003960008181609701528181610461015261051601526000818160d601526104e401526146ff6000f3fe608060405234801561001057600080fd5b50600436106100675760003560e01c8063a771445811610050578063a7714458146100d1578063ae405860146100f8578063ed9d4d861461012b57600080fd5b806323e30c8b1461006c578063692058c214610092575b600080fd5b61007f61007a36600461326e565b610140565b6040519081526020015b60405180910390f35b6100b97f000000000000000000000000000000000000000000000000000000000000000081565b6040516001600160a01b039091168152602001610089565b6100b97f000000000000000000000000000000000000000000000000000000000000000081565b61010b610106366004613318565b61045a565b604080519485526020850193909352918301526060820152608001610089565b61013e6101393660046134e2565b6104d4565b005b6000600160005460ff16600281111561015b5761015b6135b1565b146101d35760405162461bcd60e51b815260206004820152602d60248201527f4c697175696461746f723a20466c617368206c6f616e207769746820696e766160448201527f6c696420696e69746961746f720000000000000000000000000000000000000060648201526084015b60405180910390fd5b600080547fffffffffffffffffffffffffffffffffffffffffffffffffffffffffffffff0016600217905560405161020e90849084906135e0565b604051908190039020600054610100900460081b7fffffffffffffffffffffffffffffffffffffffffffffffffffffffffffffff009081169116146102bb5760405162461bcd60e51b815260206004820152602c60248201527f4c697175696461746f723a20466c617368206c656e646572207061737365642060448201527f696e76616c69642064617461000000000000000000000000000000000000000060648201526084016101ca565b600080806102cb85870187613669565b9250925092508060400151600001516000815181106102ec576102ec613747565b60200260200101516001600160a01b0316896001600160a01b03161461037a5760405162461bcd60e51b815260206004820152602d60248201527f4c697175696461746f723a20466c617368206c656e646572207061737365642060448201527f696e76616c696420746f6b656e0000000000000000000000000000000000000060648201526084016101ca565b610386888484846105bb565b80516001600160a01b038a169063095ea7b3906103a38a8c6137a5565b6040517fffffffff0000000000000000000000000000000000000000000000000000000060e085901b1681526001600160a01b03909216600483015260248201526044016020604051808303816000875af1158015610406573d6000803e3d6000fd5b505050506040513d601f19601f8201168201806040525081019061042a91906137c8565b507f439148f0bbc682ca079e46d6e2c2f0c1e3b820f1a291b069d8882abf8cf18dd99a9950505050505050505050565b60008080807f00000000000000000000000000000000000000000000000000000000000000008161048a876109b2565b90506000806104a3848c85606001518660400151610d09565b915091506000806104be868d87608001518860600151610d09565b949e939d509b5092995090975050505050505050565b6001600160a01b038416610506577f000000000000000000000000000000000000000000000000000000000000000093505b6001600160a01b038316610538577f000000000000000000000000000000000000000000000000000000000000000092505b60006040518060800160405280866001600160a01b03168152602001856001600160a01b0316815260200160405180606001604052808681526020018c81526020018b815250815260200160405180606001604052808581526020018a81526020018981525081525090506105ae8b8b83610d60565b5050505050505050505050565b60608060008360400151600001516000815181106105db576105db613747565b60200260200101519050600084606001516000015160008151811061060257610602613747565b602090810291909101810151908601516040517f095ea7b30000000000000000000000000000000000000000000000000000000081526001600160a01b039182166004820152602481018b905291925083169063095ea7b3906044016020604051808303816000875af115801561067d573d6000803e3d6000fd5b505050506040513d601f19601f820116820180604052508101906106a191906137c8565b506106df886106c18a8860400151602001518960400151604001516111c0565b60408801515160208901516001600160a01b031692919030426111e1565b60208701516040517f095ea7b30000000000000000000000000000000000000000000000000000000081526001600160a01b039182166004820152600060248201529196509194509083169063095ea7b3906044016020604051808303816000875af1158015610753573d6000803e3d6000fd5b505050506040513d601f19601f8201168201806040525081019061077791906137c8565b506000846001865161078991906137e3565b8151811061079957610799613747565b60209081029190910101516040517fbcbaf4870000000000000000000000000000000000000000000000000000000081526001600160a01b038981166004830152602482018390529192506000918a169063bcbaf487906044016060604051808303816000875af1158015610812573d6000803e3d6000fd5b505050506040513d601f19601f8201168201806040525081019061083691906137f6565b925050811590506109a65760208701516040517f095ea7b30000000000000000000000000000000000000000000000000000000081526001600160a01b039182166004820152602481018390529084169063095ea7b3906044016020604051808303816000875af11580156108af573d6000803e3d6000fd5b505050506040513d601f19601f820116820180604052508101906108d391906137c8565b50610911816108f3838a60600151602001518b60600151604001516111c0565b60608a01515160208b01516001600160a01b031692919030426111e1565b60208901516040517f095ea7b30000000000000000000000000000000000000000000000000000000081526001600160a01b039182166004820152600060248201529198508516915063095ea7b3906044016020604051808303816000875af1158015610982573d6000803e3d6000fd5b505050506040513d601f19601f820116820180604052508101906105ae91906137c8565b50505050505050505050565b610a6d60405180610240016040528060006001600160a01b0316815260200160006001600160a01b0316815260200160006001600160a01b0316815260200160006001600160a01b0316815260200160006001600160a01b03168152602001600081526020016000815260200160008152602001600081526020016000815260200160008152602001600081526020016000815260200160008152602001606081526020016060815260200160608152602001606081525090565b6000826001600160a01b03166394217ad16040518163ffffffff1660e01b8152600401602060405180830381865afa158015610aad573d6000803e3d6000fd5b505050506040513d601f19601f82011682018060405250810190610ad19190613824565b6040517f152052b00000000000000000000000000000000000000000000000000000000081526001600160a01b03858116600483015291925060009183169063152052b090602401600060405180830381865afa158015610b36573d6000803e3d6000fd5b505050506040513d6000823e601f3d908101601f19168201604052610b5e91908101906138e3565b90506000826001600160a01b03166385b4bb536040518163ffffffff1660e01b8152600401600060405180830381865afa158015610ba0573d6000803e3d6000fd5b505050506040513d6000823e601f3d908101601f19168201604052610bc89190810190613c1d565b6001600160a01b038085168087528782166020808901919091528084015183166040808a0191909152610120870151909316606089015282517fb5a488a60000000000000000000000000000000000000000000000000000000081529251939450909263b5a488a69260048082019392918290030181865afa158015610c52573d6000803e3d6000fd5b505050506040513d601f19601f82011682018060405250810190610c769190613824565b6001600160a01b031660808501526101a082015160a085015261022082015160c08501526103e082015160e085015261040082015161010085015261042082015161012085015261024081015167ffffffffffffffff166101408086019190915261018082015160ff16610160860152810151610cf490859061143c565b6101a086015261018085015250919392505050565b6000808080610d226001600160a01b03891687876116e5565b90925090506000610d35886127106137e3565b610d3f9083614067565b90506000610d4f84612710614067565b919a91995090975050505050505050565b6000836001600160a01b03166394217ad16040518163ffffffff1660e01b8152600401602060405180830381865afa158015610da0573d6000803e3d6000fd5b505050506040513d601f19601f82011682018060405250810190610dc49190613824565b6040517fe1c501000000000000000000000000000000000000000000000000000000000081526001600160a01b0386811660048301529192509082169063e1c501009060240160408051808303816000875af1158015610e28573d6000803e3d6000fd5b505050506040513d601f19601f82011682018060405250810190610e4c919061407e565b50506000610e59856109b2565b9050610e768360400151600001518260600151836040015161190e565b60408401515260608084015151608083015191830151610e96929061190e565b6060840151526020830151604084015151610eb191906119f0565b6101c08201526020830151606084015151610ecc91906119f0565b6101e0820152604083810151516102008301526060808501515161022084015282015190517f70a082310000000000000000000000000000000000000000000000000000000081523060048201526000916001600160a01b0316906370a0823190602401602060405180830381865afa158015610f4d573d6000803e3d6000fd5b505050506040513d601f19601f82011682018060405250810190610f7191906140aa565b60808301516040517f70a082310000000000000000000000000000000000000000000000000000000081523060048201529192506000916001600160a01b03909116906370a0823190602401602060405180830381865afa158015610fda573d6000803e3d6000fd5b505050506040513d601f19601f82011682018060405250810190610ffe91906140aa565b905061100a8584611b24565b60608301516040517f70a082310000000000000000000000000000000000000000000000000000000081523060048201526000916001600160a01b0316906370a0823190602401602060405180830381865afa15801561106e573d6000803e3d6000fd5b505050506040513d601f19601f8201168201806040525081019061109291906140aa565b60808501516040517f70a082310000000000000000000000000000000000000000000000000000000081523060048201529192506000916001600160a01b03909116906370a0823190602401602060405180830381865afa1580156110fb573d6000803e3d6000fd5b505050506040513d601f19601f8201168201806040525081019061111f91906140aa565b90508382101580156111315750828110155b6111a35760405162461bcd60e51b815260206004820152603b60248201527f4c697175696461746f723a204e656761746976652070726f66697420776f756c60448201527f6420646563726561736520636f6e74726163742062616c616e6365000000000060648201526084016101ca565b60006111af85846137e3565b90506109a686606001518a83611fde565b6000816111cd8486614067565b6111d791906140f2565b90505b9392505050565b606080876001600160a01b03166338ed173988888888886040518663ffffffff1660e01b8152600401611218959493929190614172565b6000604051808303816000875af192505050801561125857506040513d6000823e601f3d908101601f1916820160405261125591908101906141ae565b60015b61142b573d808015611286576040519150601f19603f3d011682016040523d82523d6000602084013e61128b565b606091505b5080511561129882612063565b906112b65760405162461bcd60e51b81526004016101ca919061423e565b506040517f38ed17390000000000000000000000000000000000000000000000000000000081526001600160a01b038a16906338ed173990611304908b908b908b908b908b90600401614172565b6000604051808303816000875af192505050801561134457506040513d6000823e601f3d908101601f191682016040526113419190810190614251565b60015b611411573d808015611372576040519150601f19603f3d011682016040523d82523d6000602084013e611377565b606091505b5080511561138482612063565b906113a25760405162461bcd60e51b81526004016101ca919061423e565b5060405162461bcd60e51b815260206004820152602a60248201527f556e697377617056323a20737761704578616374546f6b656e73466f72546f6b60448201527f656e73206661696c65640000000000000000000000000000000000000000000060648201526084016101ca565b604080516000815260208101909152935091506114319050565b90925090505b965096945050505050565b600080600061145885600001518660600151876080015161214b565b80516040517f524f388900000000000000000000000000000000000000000000000000000000815291925060009182916001600160a01b0388169163524f3889916114a59160040161423e565b606060405180830381865afa1580156114c2573d6000803e3d6000fd5b505050506040513d601f19601f820116820180604052508101906114e691906137f6565b9250509150600080876001600160a01b031663524f388986602001516040518263ffffffff1660e01b815260040161151e919061423e565b606060405180830381865afa15801561153b573d6000803e3d6000fd5b505050506040513d601f19601f8201168201806040525081019061155f91906137f6565b9250509150600080896001600160a01b031663524f388988604001516040518263ffffffff1660e01b8152600401611597919061423e565b606060405180830381865afa1580156115b4573d6000803e3d6000fd5b505050506040513d601f19601f820116820180604052508101906115d891906137f6565b92505091506116588b606001516001600160a01b031663313ce5676040518163ffffffff1660e01b8152600401602060405180830381865afa158015611622573d6000803e3d6000fd5b505050506040513d601f19601f820116820180604052508101906116469190614286565b60ff1685858e61016001518a8a61229a565b6116d38c608001516001600160a01b031663313ce5676040518163ffffffff1660e01b8152600401602060405180830381865afa15801561169d573d6000803e3d6000fd5b505050506040513d601f19601f820116820180604052508101906116c19190614286565b60ff1684848f61016001518b8b61229a565b98509850505050505050509250929050565b6040517fd52bb6f40000000000000000000000000000000000000000000000000000000081526001600160a01b0383811660048301528281166024830152600091829186169063d52bb6f4906044016040805180830381865afa92505050801561176c575060408051601f3d908101601f19168201909252611769918101906142a1565b60015b611900573d80801561179a576040519150601f19603f3d011682016040523d82523d6000602084013e61179f565b606091505b508051156117ac82612063565b906117ca5760405162461bcd60e51b81526004016101ca919061423e565b506040517f7f6f21780000000000000000000000000000000000000000000000000000000081526001600160a01b0386811660048301528581166024830152871690637f6f2178906044016040805180830381865afa92505050801561184d575060408051601f3d908101601f1916820190925261184a918101906142a1565b60015b6118f4573d80801561187b576040519150601f19603f3d011682016040523d82523d6000602084013e611880565b606091505b5080511561188d82612063565b906118ab5760405162461bcd60e51b81526004016101ca919061423e565b5060405162461bcd60e51b815260206004820152601d60248201527f556e697377617056323a206765745265736572766573206661696c656400000060448201526064016101ca565b90935091506119069050565b90925090505b935093915050565b6060835160000361192a57611923838361230a565b90506111da565b826001600160a01b03168460008151811061194757611947613747565b60200260200101516001600160a01b031614801561199c5750816001600160a01b0316846001865161197991906137e3565b8151811061198957611989613747565b60200260200101516001600160a01b0316145b6119e85760405162461bcd60e51b815260206004820152601e60248201527f4c697175696461746f723a20496e76616c696420746f6b656e2070617468000060448201526064016101ca565b509192915050565b606060018251611a0091906137e3565b67ffffffffffffffff811115611a1857611a18613351565b604051908082528060200260200182016040528015611a5d57816020015b6040805180820190915260008082526020820152815260200190600190039081611a365790505b50905060005b60018351611a7191906137e3565b811015611b1d57611ad4838281518110611a8d57611a8d613747565b602002602001015184836001611aa391906137a5565b81518110611ab357611ab3613747565b6020026020010151866001600160a01b03166116e59092919063ffffffff16565b838381518110611ae657611ae6613747565b6020026020010151600001848481518110611b0357611b03613747565b602090810291909101810151019190915252600101611a63565b5092915050565b6000805460ff166002811115611b3c57611b3c6135b1565b14611b895760405162461bcd60e51b815260206004820152601e60248201527f4c697175696461746f723a205265656e7472616e637920626c6f636b6564000060448201526064016101ca565b600080547fffffffffffffffffffffffffffffffffffffffffffffffffffffffffffffff0016600117905560e0810151611c2b5760405162461bcd60e51b815260206004820152602360248201527f4c697175696461746f723a204e6f20662d617373657420746f206c697175696460448201527f617465000000000000000000000000000000000000000000000000000000000060648201526084016101ca565b815160608201516040517f613255ab0000000000000000000000000000000000000000000000000000000081526001600160a01b039182166004820152600092919091169063613255ab90602401602060405180830381865afa158015611c96573d6000803e3d6000fd5b505050506040513d601f19601f82011682018060405250810190611cba91906140aa565b905060008111611d325760405162461bcd60e51b815260206004820152602260248201527f4c697175696461746f723a20466c617368206c6f616e20756e617661696c616260448201527f6c6500000000000000000000000000000000000000000000000000000000000060648201526084016101ca565b6000611d3d83612398565b905060008111611d8f5760405162461bcd60e51b815260206004820152601f60248201527f4c697175696461746f723a204e6f2070726f66697420617661696c61626c650060448201526064016101ca565b60008360000151846020015186604051602001611dae939291906142fa565b60405160208183030381529060405290508080519060200120600060016101000a8154817effffffffffffffffffffffffffffffffffffffffffffffffffffffffffffff021916908360081c021790555084600001516001600160a01b0316635cffe9de308660600151611e228787612422565b856040518563ffffffff1660e01b8152600401611e429493929190614382565b6020604051808303816000875af1158015611e61573d6000803e3d6000fd5b505050506040513d601f19601f82011682018060405250810190611e8591906137c8565b50606084015185516040517f095ea7b30000000000000000000000000000000000000000000000000000000081526001600160a01b0391821660048201526000602482015291169063095ea7b3906044016020604051808303816000875af1158015611ef5573d6000803e3d6000fd5b505050506040513d601f19601f82011682018060405250810190611f1991906137c8565b5060029250611f26915050565b60005460ff166002811115611f3d57611f3d6135b1565b14611fb2576040805162461bcd60e51b81526020600482015260248101919091527f4c697175696461746f723a205265656e7472616e637920626c6f636b6564206f60448201527f7220666c617368206c6f616e207265636569766572206e6f742063616c6c656460648201526084016101ca565b5050600080547fffffffffffffffffffffffffffffffffffffffffffffffffffffffffffffff00169055565b604080516001600160a01b038416602482015260448082018490528251808303909101815260649091019091526020810180517bffffffffffffffffffffffffffffffffffffffffffffffffffffffff167fa9059cbb0000000000000000000000000000000000000000000000000000000017905261205e908490612438565b505050565b606060006004835161207591906137e3565b67ffffffffffffffff81111561208d5761208d613351565b6040519080825280601f01601f1916602001820160405280156120b7576020820181803683370190505b50905060005b815181101561213657836120d28260046137a5565b815181106120e2576120e2613747565b602001015160f81c60f81b8282815181106120ff576120ff613747565b60200101907effffffffffffffffffffffffffffffffffffffffffffffffffffffffffffff1916908160001a9053506001016120bd565b50808060200190518101906111da91906143b4565b61216f60405180606001604052806060815260200160608152602001606081525090565b6040517f4610bc230000000000000000000000000000000000000000000000000000000081526000906001600160a01b03861690634610bc23906121ba9060029088906004016143e9565b600060405180830381865afa1580156121d7573d6000803e3d6000fd5b505050506040513d6000823e601f3d908101601f191682016040526121ff919081019061444b565b90506000856001600160a01b0316634610bc236001866040518363ffffffff1660e01b81526004016122329291906143e9565b600060405180830381865afa15801561224f573d6000803e3d6000fd5b505050506040513d6000823e601f3d908101601f19168201604052612277919081019061444b565b60a0830151845260c0928301516020850152909101516040830152509392505050565b60008060096122a9878a6137a5565b6122b391906137a5565b905060006122c184876137a5565b9050808210156122d3576122d3614546565b876122de82846137e3565b6122e990600a614695565b6122f39087614067565b6122fd91906140f2565b9998505050505050505050565b60408051600280825260608083018452926000929190602083019080368337019050509050838160008151811061234357612343613747565b60200260200101906001600160a01b031690816001600160a01b031681525050828160018151811061237757612377613747565b6001600160a01b039092166020928302919091019091015290505b92915050565b6000806001836101c001515111806123b657506001836101e0015151115b90506000816123cd576123c884612520565b6123d6565b6123d684612756565b9050806000036123ea575060009392505050565b60006124086123fe838761014001516128a5565b8660e00151612422565b905061241981866101c001516128b1565b95945050505050565b600081831061243157816111da565b5090919050565b600061248d826040518060400160405280602081526020017f5361666545524332303a206c6f772d6c6576656c2063616c6c206661696c6564815250856001600160a01b031661292b9092919063ffffffff16565b90508051600014806124ae5750808060200190518101906124ae91906137c8565b61205e5760405162461bcd60e51b815260206004820152602a60248201527f5361666545524332303a204552433230206f7065726174696f6e20646964206e60448201527f6f7420737563636565640000000000000000000000000000000000000000000060648201526084016101ca565b600080826101c0015160008151811061253b5761253b613747565b60200260200101516000015190506000836101c0015160008151811061256357612563613747565b60200260200101516020015190506000846101e0015160008151811061258b5761258b613747565b60200260200101516000015190506000856101e001516000815181106125b3576125b3613747565b6020026020010151602001519050816103e860036103e86125d491906137e3565b6125de9087614067565b6125e891906140f2565b6125f29190614067565b94506125fd8561293a565b9450600061261084886101400151612abd565b905060008361271089610100015161262d858c6101800151612ae0565b6126379190614067565b61264191906140f2565b61264b9190614067565b90506000836103e861265e6003826137e3565b6127108c6101200151612676888f6101a00151612ae0565b6126809190614067565b61268a91906140f2565b6126949190614067565b61269e91906140f2565b6126a89190614067565b90506126bc6126b782846137a5565b61293a565b6126c69089614067565b9750505050600082856126d99190614067565b90508581106126ef575060009695505050505050565b6126f981876137e3565b955061270990506103e886614067565b945061271860036103e86137e3565b61272290866140f2565b945061272e82866140f2565b945061273b858585612af8565b945061274c85876101400151612abd565b9695505050505050565b60008061276c8360e00151846101400151612abd565b9050600081815b6008811015612838576000613f3461271061278e86866137e3565b6127989190614067565b6127a291906140f2565b6127ac90846137e3565b90506000613f346127106127c087876137e3565b6127ca9190614067565b6127d491906140f2565b6127de90866137a5565b905060646127ec82866137e3565b116127f8575050612838565b60006128048984612b52565b905060006128128a84612b52565b90508082111561282457829550612828565b8396505b5050600190920191506127739050565b506000600261284783856137a5565b61285191906140f2565b9050600061285f8786612b52565b9050600061286d8884612b52565b90508015801561287b575081155b1561288e57506000979650505050505050565b818111612899578592505b50909695505050505050565b60006111da8284614067565b805182905b8015611b1d5761291782846128cc6001856137e3565b815181106128dc576128dc613747565b602002602001015160000151856001856128f691906137e3565b8151811061290657612906613747565b602002602001015160200151612f9c565b915080612923816146a1565b9150506128b6565b60606111d78484600085612ff2565b60008160000361294c57506000919050565b81600170010000000000000000000000000000000082106129725760809190911c9060401b5b68010000000000000000821061298d5760409190911c9060201b5b64010000000082106129a45760209190911c9060101b5b6201000082106129b95760109190911c9060081b5b61010082106129cd5760089190911c9060041b5b601082106129e05760049190911c9060021b5b600882106129ec5760011b5b60018185816129fd576129fd6140c3565b048201901c90506001818581612a1557612a156140c3565b048201901c90506001818581612a2d57612a2d6140c3565b048201901c90506001818581612a4557612a456140c3565b048201901c90506001818581612a5d57612a5d6140c3565b048201901c90506001818581612a7557612a756140c3565b048201901c90506001818581612a8d57612a8d6140c3565b048201901c90506000818581612aa557612aa56140c3565b049050808210612ab55780612419565b509392505050565b6000816001612acc82866137a5565b612ad691906137e3565b6111da91906140f2565b6000612aee6009600a614695565b612ad68385614067565b600080612b0860036103e86137e3565b612b129086614067565b90506000612b208483614067565b9050600082612b316103e888614067565b612b3b91906137a5565b9050612b4781836140f2565b979650505050505050565b600080836101e001515167ffffffffffffffff811115612b7457612b74613351565b604051908082528060200260200182016040528015612bb957816020015b6040805180820190915260008082526020820152815260200190600190039081612b925790505b50905060005b846101e0015151811015612c4b576040518060400160405280866101e001518381518110612bef57612bef613747565b6020026020010151600001518152602001866101e001518381518110612c1757612c17613747565b602002602001015160200151815250828281518110612c3857612c38613747565b6020908102919091010152600101612bbf565b506000612c5d848661014001516128a5565b6101c0860151519091505b8015612f56576000612cb683886101c00151600185612c8791906137e3565b81518110612c9757612c97613747565b602002602001015160000151896101c001516001866128f691906137e3565b905060015b87610220015151811015612f41578761020001518381518110612ce057612ce0613747565b60200260200101516001600160a01b0316886102200151600183612d0491906137e3565b81518110612d1457612d14613747565b60200260200101516001600160a01b0316148015612d895750610200880151612d3e6001856137e3565b81518110612d4e57612d4e613747565b60200260200101516001600160a01b03168861022001518281518110612d7657612d76613747565b60200260200101516001600160a01b0316145b15612e03578385612d9b6001846137e3565b81518110612dab57612dab613747565b6020026020010151600001818151612dc391906137e3565b9052508185612dd36001846137e3565b81518110612de357612de3613747565b6020026020010151602001818151612dfb91906137a5565b905250612f39565b610200880151612e146001856137e3565b81518110612e2457612e24613747565b60200260200101516001600160a01b0316886102200151600183612e4891906137e3565b81518110612e5857612e58613747565b60200260200101516001600160a01b0316148015612ec357508761020001518381518110612e8857612e88613747565b60200260200101516001600160a01b03168861022001518281518110612eb057612eb0613747565b60200260200101516001600160a01b0316145b15612f39578185612ed56001846137e3565b81518110612ee557612ee5613747565b6020026020010151600001818151612efd91906137e3565b9052508385612f0d6001846137e3565b81518110612f1d57612f1d613747565b6020026020010151602001818151612f3591906137a5565b9052505b600101612cbb565b50915080612f4e816146a1565b915050612c68565b50600080612f6487876130e6565b915091506000612f74828661314c565b90506000612f8282856137a5565b9050848111612f925760006122fd565b6122fd85826137e3565b6000806103e8612fac8686614067565b612fb69190614067565b90506000612fc760036103e86137e3565b612fd187866137e3565b612fdb9190614067565b9050612fe781836140f2565b61274c9060016137a5565b60608247101561306a5760405162461bcd60e51b815260206004820152602660248201527f416464726573733a20696e73756666696369656e742062616c616e636520666f60448201527f722063616c6c000000000000000000000000000000000000000000000000000060648201526084016101ca565b600080866001600160a01b0316858760405161308691906146d6565b60006040518083038185875af1925050503d80600081146130c3576040519150601f19603f3d011682016040523d82523d6000602084013e6130c8565b606091505b50915091506130d9878383876131a8565b925050505b949350505050565b600080613115612710856101000151856131009190614067565b61310a91906140f2565b856101800151612ae0565b91506131436127108561012001518561312e9190614067565b61313891906140f2565b856101a00151612ae0565b90509250929050565b8160005b8251811015611b1d5761319e8284838151811061316f5761316f613747565b60200260200101516000015185848151811061318d5761318d613747565b602002602001015160200151612af8565b9150600101613150565b60608315613217578251600003613210576001600160a01b0385163b6132105760405162461bcd60e51b815260206004820152601d60248201527f416464726573733a2063616c6c20746f206e6f6e2d636f6e747261637400000060448201526064016101ca565b50816130de565b6130de838381511561322c5781518083602001fd5b8060405162461bcd60e51b81526004016101ca919061423e565b6001600160a01b038116811461325b57600080fd5b50565b803561326981613246565b919050565b60008060008060008060a0878903121561328757600080fd5b863561329281613246565b955060208701356132a281613246565b94506040870135935060608701359250608087013567ffffffffffffffff808211156132cd57600080fd5b818901915089601f8301126132e157600080fd5b8135818111156132f057600080fd5b8a602082850101111561330257600080fd5b6020830194508093505050509295509295509295565b60008060006060848603121561332d57600080fd5b8335925060208401359150604084013561334681613246565b809150509250925092565b7f4e487b7100000000000000000000000000000000000000000000000000000000600052604160045260246000fd5b6040516080810167ffffffffffffffff811182821017156133a3576133a3613351565b60405290565b604051610540810167ffffffffffffffff811182821017156133a3576133a3613351565b6040516106c0810167ffffffffffffffff811182821017156133a3576133a3613351565b604051610140810167ffffffffffffffff811182821017156133a3576133a3613351565b604051601f8201601f1916810167ffffffffffffffff8111828210171561343e5761343e613351565b604052919050565b600067ffffffffffffffff82111561346057613460613351565b5060051b60200190565b600082601f83011261347b57600080fd5b8135602061349061348b83613446565b613415565b8083825260208201915060208460051b8701019350868411156134b257600080fd5b602086015b848110156134d75780356134ca81613246565b83529183019183016134b7565b509695505050505050565b6000806000806000806000806000806101408b8d03121561350257600080fd5b61350b8b61325e565b995061351960208c0161325e565b985060408b0135975060608b0135965060808b0135955060a08b0135945061354360c08c0161325e565b935061355160e08c0161325e565b92506101008b013567ffffffffffffffff8082111561356f57600080fd5b61357b8e838f0161346a565b93506101208d013591508082111561359257600080fd5b5061359f8d828e0161346a565b9150509295989b9194979a5092959850565b7f4e487b7100000000000000000000000000000000000000000000000000000000600052602160045260246000fd5b8183823760009101908152919050565b60006060828403121561360257600080fd5b6040516060810167ffffffffffffffff828210818311171561362657613626613351565b81604052829350843591508082111561363e57600080fd5b5061364b8582860161346a565b82525060208301356020820152604083013560408201525092915050565b60008060006060848603121561367e57600080fd5b833561368981613246565b9250602084013561369981613246565b9150604084013567ffffffffffffffff808211156136b657600080fd5b90850190608082880312156136ca57600080fd5b6136d2613380565b82356136dd81613246565b815260208301356136ed81613246565b602082015260408301358281111561370457600080fd5b613710898286016135f0565b60408301525060608301358281111561372857600080fd5b613734898286016135f0565b6060830152508093505050509250925092565b7f4e487b7100000000000000000000000000000000000000000000000000000000600052603260045260246000fd5b7f4e487b7100000000000000000000000000000000000000000000000000000000600052601160045260246000fd5b8082018082111561239257612392613776565b8051801515811461326957600080fd5b6000602082840312156137da57600080fd5b6111da826137b8565b8181038181111561239257612392613776565b60008060006060848603121561380b57600080fd5b8351925060208401519150604084015190509250925092565b60006020828403121561383657600080fd5b81516111da81613246565b80516005811061326957600080fd5b805161326981613246565b60005b8381101561387657818101518382015260200161385e565b50506000910152565b600082601f83011261389057600080fd5b815167ffffffffffffffff8111156138aa576138aa613351565b6138bd6020601f19601f84011601613415565b8181528460208386010111156138d257600080fd5b6130de82602083016020870161385b565b6000602082840312156138f557600080fd5b815167ffffffffffffffff8082111561390d57600080fd5b90830190610540828603121561392257600080fd5b61392a6133a9565b61393383613841565b815261394160208401613850565b602082015261395260408401613850565b604082015261396360608401613850565b606082015261397460808401613850565b608082015260a08301518281111561398b57600080fd5b6139978782860161387f565b60a0830152506139a960c084016137b8565b60c082015260e08381015190820152610100808401519082015261012091506139d3828401613850565b918101919091526101408281015190820152610160808301519082015261018080830151908201526101a080830151908201526101c080830151908201526101e0808301519082015261020090613a2b828401613850565b9181019190915261022082810151908201526102408083015190820152610260808301519082015261028080830151908201526102a080830151908201526102c080830151908201526102e08083015190820152610300808301519082015261032080830151908201526103408083015190820152610360808301519082015261038080830151908201526103a080830151908201526103c080830151908201526103e08083015190820152610400808301519082015261042080830151908201526104408083015190820152610460808301519082015261048080830151908201526104a080830151908201526104c080830151908201526104e08083015190820152610500808301519082015261052091820151918101919091529392505050565b805160ff8116811461326957600080fd5b805163ffffffff8116811461326957600080fd5b805161ffff8116811461326957600080fd5b805167ffffffffffffffff8116811461326957600080fd5b80516fffffffffffffffffffffffffffffffff8116811461326957600080fd5b600082601f830112613bcf57600080fd5b81516020613bdf61348b83613446565b8083825260208201915060208460051b870101935086841115613c0157600080fd5b602086015b848110156134d75780518352918301918301613c06565b600060208284031215613c2f57600080fd5b815167ffffffffffffffff80821115613c4757600080fd5b908301906106c08286031215613c5c57600080fd5b613c646133cd565b613c6d83613850565b8152613c7b60208401613850565b6020820152613c8c60408401613850565b6040820152613c9d60608401613850565b6060820152613cae60808401613850565b608082015260a083015182811115613cc557600080fd5b613cd18782860161387f565b60a083015250613ce360c08401613850565b60c0820152613cf460e08401613850565b60e0820152610100613d07818501613850565b90820152610120613d19848201613850565b90820152610140613d2b848201613850565b90820152610160613d3d848201613b4f565b90820152610180613d4f848201613b4f565b908201526101a083810151908201526101c0613d6c818501613b60565b908201526101e0613d7e848201613b60565b90820152610200613d90848201613b74565b90820152610220613da2848201613b86565b90820152610240613db4848201613b86565b90820152610260613dc6848201613b86565b90820152610280613dd8848201613b74565b908201526102a0613dea8482016137b8565b908201526102c0613dfc848201613b86565b908201526102e0613e0e848201613b86565b90820152610300613e20848201613b86565b90820152610320613e32848201613b74565b90820152610340613e44848201613b60565b90820152610360613e56848201613b60565b90820152610380613e68848201613b86565b908201526103a0613e7a848201613b9e565b908201526103c0613e8c848201613b74565b908201526103e0613e9e848201613b74565b90820152610400613eb0848201613b9e565b90820152610420613ec2848201613b86565b90820152610440613ed4848201613b86565b90820152610460613ee6848201613b86565b90820152610480613ef8848201613b86565b908201526104a0613f0a848201613b86565b908201526104c0613f1c848201613b86565b908201526104e0613f2e848201613b86565b90820152610500613f40848201613b86565b90820152610520613f52848201613b60565b90820152610540613f64848201613b86565b90820152610560613f76848201613b86565b90820152610580613f88848201613b86565b908201526105a0613f9a848201613b86565b908201526105c0613fac848201613b86565b908201526105e0613fbe848201613b60565b90820152610600613fd0848201613b86565b908201526106208381015183811115613fe857600080fd5b613ff488828701613bbe565b828401525050610640808401518381111561400e57600080fd5b61401a88828701613bbe565b8284015250506106609150614030828401613b86565b828201526106809150614044828401613b86565b828201526106a09150614058828401613b86565b91810191909152949350505050565b808202811582820484141761239257612392613776565b6000806040838503121561409157600080fd5b61409a83613b4f565b9150602083015190509250929050565b6000602082840312156140bc57600080fd5b5051919050565b7f4e487b7100000000000000000000000000000000000000000000000000000000600052601260045260246000fd5b600082614128577f4e487b7100000000000000000000000000000000000000000000000000000000600052601260045260246000fd5b500490565b60008151808452602080850194506020840160005b838110156141675781516001600160a01b031687529582019590820190600101614142565b509495945050505050565b85815284602082015260a06040820152600061419160a083018661412d565b6001600160a01b0394909416606083015250608001529392505050565b600080604083850312156141c157600080fd5b825167ffffffffffffffff808211156141d957600080fd5b6141e586838701613bbe565b935060208501519150808211156141fb57600080fd5b5061420885828601613bbe565b9150509250929050565b6000815180845261422a81602086016020860161385b565b601f01601f19169290920160200192915050565b6020815260006111da6020830184614212565b60006020828403121561426357600080fd5b815167ffffffffffffffff81111561427a57600080fd5b6130de84828501613bbe565b60006020828403121561429857600080fd5b6111da82613b4f565b600080604083850312156142b457600080fd5b505080516020909101519092909150565b60008151606084526142da606085018261412d565b905060208301516020850152604083015160408501528091505092915050565b60006001600160a01b038086168352808516602084015260606040840152808451166060840152806020850151166080840152506040830151608060a084015261434760e08401826142c5565b905060608401517fffffffffffffffffffffffffffffffffffffffffffffffffffffffffffffffa08483030160c08501526130d982826142c5565b60006001600160a01b0380871683528086166020840152508360408301526080606083015261274c6080830184614212565b6000602082840312156143c657600080fd5b815167ffffffffffffffff8111156143dd57600080fd5b6130de8482850161387f565b6040810160038410614424577f4e487b7100000000000000000000000000000000000000000000000000000000600052602160045260246000fd5b9281526001600160a01b039190911660209091015290565b80516003811061326957600080fd5b60006020828403121561445d57600080fd5b815167ffffffffffffffff8082111561447557600080fd5b90830190610140828603121561448a57600080fd5b6144926133f1565b61449b8361443c565b81526144a960208401613850565b602082015260408301516040820152606083015160608201526144ce608084016137b8565b608082015260a0830151828111156144e557600080fd5b6144f18782860161387f565b60a08301525060c08301518281111561450957600080fd5b6145158782860161387f565b60c08301525060e0838101519082015261010080840151908201526101209283015192810192909252509392505050565b7f4e487b7100000000000000000000000000000000000000000000000000000000600052600160045260246000fd5b600181815b808511156145ce57817fffffffffffffffffffffffffffffffffffffffffffffffffffffffffffffffff048211156145b4576145b4613776565b808516156145c157918102915b93841c939080029061457a565b509250929050565b6000826145e557506001612392565b816145f257506000612392565b816001811461460857600281146146125761462e565b6001915050612392565b60ff84111561462357614623613776565b50506001821b612392565b5060208310610133831016604e8410600b8410161715614651575081810a612392565b61465b8383614575565b807fffffffffffffffffffffffffffffffffffffffffffffffffffffffffffffffff0482111561468d5761468d613776565b029392505050565b60006111da83836145d6565b6000816146b0576146b0613776565b507fffffffffffffffffffffffffffffffffffffffffffffffffffffffffffffffff0190565b600082516146e881846020870161385b565b919091019291505056fea164736f6c6343000817000a",
  "linkReferences": {},
  "deployedLinkReferences": {}
}