{
  "_format": "hh-sol-artifact-1",
  "contractName": "Liquidator",
  "sourceName": "liquidator/contracts/Liquidator.sol",
  "abi": [
    {
      "inputs": [
        {
          "internalType": "address",
          "name": "_flashLender",
          "type": "address"
        },
        {
          "internalType": "address",
          "name": "_dex",
          "type": "address"
        }
      ],
      "stateMutability": "nonpayable",
      "type": "constructor"
    },
    {
      "inputs": [],
      "name": "dex",
      "outputs": [
        {
          "internalType": "address",
          "name": "",
          "type": "address"
        }
      ],
      "stateMutability": "view",
      "type": "function"
    },
    {
      "inputs": [],
      "name": "flashLender",
      "outputs": [
        {
          "internalType": "address",
          "name": "",
          "type": "address"
        }
      ],
      "stateMutability": "view",
      "type": "function"
    },
    {
      "inputs": [
        {
          "internalType": "uint256",
          "name": "_maxSlippageBipsDex1",
          "type": "uint256"
        },
        {
          "internalType": "uint256",
          "name": "_maxSlippageBipsDex2",
          "type": "uint256"
        },
        {
          "internalType": "address",
          "name": "_agentVault",
          "type": "address"
        }
      ],
      "name": "maxSlippageToMinPrices",
      "outputs": [
        {
          "internalType": "uint256",
          "name": "",
          "type": "uint256"
        },
        {
          "internalType": "uint256",
          "name": "",
          "type": "uint256"
        },
        {
          "internalType": "uint256",
          "name": "",
          "type": "uint256"
        },
        {
          "internalType": "uint256",
          "name": "",
          "type": "uint256"
        }
      ],
      "stateMutability": "view",
      "type": "function"
    },
    {
      "inputs": [
        {
          "internalType": "address",
          "name": "",
          "type": "address"
        },
        {
          "internalType": "address",
          "name": "_token",
          "type": "address"
        },
        {
          "internalType": "uint256",
          "name": "_amount",
          "type": "uint256"
        },
        {
          "internalType": "uint256",
          "name": "_fee",
          "type": "uint256"
        },
        {
          "internalType": "bytes",
          "name": "_data",
          "type": "bytes"
        }
      ],
      "name": "onFlashLoan",
      "outputs": [
        {
          "internalType": "bytes32",
          "name": "",
          "type": "bytes32"
        }
      ],
      "stateMutability": "nonpayable",
      "type": "function"
    },
    {
      "inputs": [
        {
          "internalType": "address",
          "name": "_agentVault",
          "type": "address"
        },
        {
          "internalType": "address",
          "name": "_profitTo",
          "type": "address"
        },
        {
          "internalType": "uint256",
          "name": "_vaultToFAssetMinDexPriceMul",
          "type": "uint256"
        },
        {
          "internalType": "uint256",
          "name": "_vaultToFAssetMinDexPriceDiv",
          "type": "uint256"
        },
        {
          "internalType": "uint256",
          "name": "_poolToVaultMinDexPriceMul",
          "type": "uint256"
        },
        {
          "internalType": "uint256",
          "name": "_poolToVaultMinDexPriceDiv",
          "type": "uint256"
        },
        {
          "internalType": "address",
          "name": "_flashLender",
          "type": "address"
        },
        {
          "internalType": "address",
          "name": "_dex",
          "type": "address"
        },
        {
          "internalType": "address[]",
          "name": "_vaultToFAssetDexPath",
          "type": "address[]"
        },
        {
          "internalType": "address[]",
          "name": "_poolToVaultDexPath",
          "type": "address[]"
        }
      ],
      "name": "runArbitrage",
      "outputs": [],
      "stateMutability": "nonpayable",
      "type": "function"
    }
  ],
  "bytecode": "0x60c06040523480156200001157600080fd5b50604051620047e4380380620047e4833981016040819052620000349162000069565b6001600160a01b039182166080521660a052620000a1565b80516001600160a01b03811681146200006457600080fd5b919050565b600080604083850312156200007d57600080fd5b62000088836200004c565b915062000098602084016200004c565b90509250929050565b60805160a05161470a620000da60003960008181609701528181610461015261051601526000818160d601526104e4015261470a6000f3fe608060405234801561001057600080fd5b50600436106100675760003560e01c8063a771445811610050578063a7714458146100d1578063ae405860146100f8578063ed9d4d861461012b57600080fd5b806323e30c8b1461006c578063692058c214610092575b600080fd5b61007f61007a3660046132a8565b610140565b6040519081526020015b60405180910390f35b6100b97f000000000000000000000000000000000000000000000000000000000000000081565b6040516001600160a01b039091168152602001610089565b6100b97f000000000000000000000000000000000000000000000000000000000000000081565b61010b610106366004613352565b61045a565b604080519485526020850193909352918301526060820152608001610089565b61013e610139366004613518565b6104d4565b005b6000600160005460ff16600281111561015b5761015b6135e7565b146101d35760405162461bcd60e51b815260206004820152602d60248201527f4c697175696461746f723a20466c617368206c6f616e207769746820696e766160448201527f6c696420696e69746961746f720000000000000000000000000000000000000060648201526084015b60405180910390fd5b600080547fffffffffffffffffffffffffffffffffffffffffffffffffffffffffffffff0016600217905560405161020e9084908490613616565b604051908190039020600054610100900460081b7fffffffffffffffffffffffffffffffffffffffffffffffffffffffffffffff009081169116146102bb5760405162461bcd60e51b815260206004820152602c60248201527f4c697175696461746f723a20466c617368206c656e646572207061737365642060448201527f696e76616c69642064617461000000000000000000000000000000000000000060648201526084016101ca565b600080806102cb8587018761369f565b9250925092508060400151600001516000815181106102ec576102ec61377d565b60200260200101516001600160a01b0316896001600160a01b03161461037a5760405162461bcd60e51b815260206004820152602d60248201527f4c697175696461746f723a20466c617368206c656e646572207061737365642060448201527f696e76616c696420746f6b656e0000000000000000000000000000000000000060648201526084016101ca565b610386888484846105bb565b80516001600160a01b038a169063095ea7b3906103a38a8c6137db565b6040517fffffffff0000000000000000000000000000000000000000000000000000000060e085901b1681526001600160a01b03909216600483015260248201526044016020604051808303816000875af1158015610406573d6000803e3d6000fd5b505050506040513d601f19601f8201168201806040525081019061042a91906137fe565b507f439148f0bbc682ca079e46d6e2c2f0c1e3b820f1a291b069d8882abf8cf18dd99a9950505050505050505050565b60008080807f00000000000000000000000000000000000000000000000000000000000000008161048a876109b2565b90506000806104a3848c85606001518660400151610d09565b915091506000806104be868d87608001518860600151610d09565b949e939d509b5092995090975050505050505050565b6001600160a01b038416610506577f000000000000000000000000000000000000000000000000000000000000000093505b6001600160a01b038316610538577f000000000000000000000000000000000000000000000000000000000000000092505b60006040518060800160405280866001600160a01b03168152602001856001600160a01b0316815260200160405180606001604052808681526020018c81526020018b815250815260200160405180606001604052808581526020018a81526020018981525081525090506105ae8b8b83610d60565b5050505050505050505050565b60608060008360400151600001516000815181106105db576105db61377d565b6020026020010151905060008460600151600001516000815181106106025761060261377d565b602090810291909101810151908601516040517f095ea7b30000000000000000000000000000000000000000000000000000000081526001600160a01b039182166004820152602481018b905291925083169063095ea7b3906044016020604051808303816000875af115801561067d573d6000803e3d6000fd5b505050506040513d601f19601f820116820180604052508101906106a191906137fe565b506106df886106c18a8860400151602001518960400151604001516111c0565b60408801515160208901516001600160a01b031692919030426111e1565b60208701516040517f095ea7b30000000000000000000000000000000000000000000000000000000081526001600160a01b039182166004820152600060248201529196509194509083169063095ea7b3906044016020604051808303816000875af1158015610753573d6000803e3d6000fd5b505050506040513d601f19601f8201168201806040525081019061077791906137fe565b50600084600186516107899190613819565b815181106107995761079961377d565b60209081029190910101516040517fbcbaf4870000000000000000000000000000000000000000000000000000000081526001600160a01b038981166004830152602482018390529192506000918a169063bcbaf487906044016060604051808303816000875af1158015610812573d6000803e3d6000fd5b505050506040513d601f19601f82011682018060405250810190610836919061382c565b925050811590506109a65760208701516040517f095ea7b30000000000000000000000000000000000000000000000000000000081526001600160a01b039182166004820152602481018390529084169063095ea7b3906044016020604051808303816000875af11580156108af573d6000803e3d6000fd5b505050506040513d601f19601f820116820180604052508101906108d391906137fe565b50610911816108f3838a60600151602001518b60600151604001516111c0565b60608a01515160208b01516001600160a01b031692919030426111e1565b60208901516040517f095ea7b30000000000000000000000000000000000000000000000000000000081526001600160a01b039182166004820152600060248201529198508516915063095ea7b3906044016020604051808303816000875af1158015610982573d6000803e3d6000fd5b505050506040513d601f19601f820116820180604052508101906105ae91906137fe565b50505050505050505050565b610a6d60405180610240016040528060006001600160a01b0316815260200160006001600160a01b0316815260200160006001600160a01b0316815260200160006001600160a01b0316815260200160006001600160a01b03168152602001600081526020016000815260200160008152602001600081526020016000815260200160008152602001600081526020016000815260200160008152602001606081526020016060815260200160608152602001606081525090565b6000826001600160a01b03166394217ad16040518163ffffffff1660e01b8152600401602060405180830381865afa158015610aad573d6000803e3d6000fd5b505050506040513d601f19601f82011682018060405250810190610ad1919061385a565b6040517f152052b00000000000000000000000000000000000000000000000000000000081526001600160a01b03858116600483015291925060009183169063152052b090602401600060405180830381865afa158015610b36573d6000803e3d6000fd5b505050506040513d6000823e601f3d908101601f19168201604052610b5e9190810190613919565b90506000826001600160a01b03166385b4bb536040518163ffffffff1660e01b8152600401600060405180830381865afa158015610ba0573d6000803e3d6000fd5b505050506040513d6000823e601f3d908101601f19168201604052610bc89190810190613bcc565b6001600160a01b038085168087528782166020808901919091528084015183166040808a0191909152610100870151909316606089015282517fb5a488a60000000000000000000000000000000000000000000000000000000081529251939450909263b5a488a69260048082019392918290030181865afa158015610c52573d6000803e3d6000fd5b505050506040513d601f19601f82011682018060405250810190610c76919061385a565b6001600160a01b0316608085015261018082015160a08501526101e082015160c08501526103a082015160e08501526103c08201516101008501526103e082015161012085015261026081015167ffffffffffffffff166101408501526101a081015160ff1661016080860191909152810151610cf490859061143c565b6101a086015261018085015250919392505050565b6000808080610d226001600160a01b03891687876116e5565b90925090506000610d3588612710613819565b610d3f9083613fe0565b90506000610d4f84612710613fe0565b919a91995090975050505050505050565b6000836001600160a01b03166394217ad16040518163ffffffff1660e01b8152600401602060405180830381865afa158015610da0573d6000803e3d6000fd5b505050506040513d601f19601f82011682018060405250810190610dc4919061385a565b6040517fe1c501000000000000000000000000000000000000000000000000000000000081526001600160a01b0386811660048301529192509082169063e1c501009060240160408051808303816000875af1158015610e28573d6000803e3d6000fd5b505050506040513d601f19601f82011682018060405250810190610e4c9190613ff7565b50506000610e59856109b2565b9050610e768360400151600001518260600151836040015161190e565b60408401515260608084015151608083015191830151610e96929061190e565b6060840151526020830151604084015151610eb191906119f0565b6101c08201526020830151606084015151610ecc91906119f0565b6101e0820152604083810151516102008301526060808501515161022084015282015190517f70a082310000000000000000000000000000000000000000000000000000000081523060048201526000916001600160a01b0316906370a0823190602401602060405180830381865afa158015610f4d573d6000803e3d6000fd5b505050506040513d601f19601f82011682018060405250810190610f719190614023565b60808301516040517f70a082310000000000000000000000000000000000000000000000000000000081523060048201529192506000916001600160a01b03909116906370a0823190602401602060405180830381865afa158015610fda573d6000803e3d6000fd5b505050506040513d601f19601f82011682018060405250810190610ffe9190614023565b905061100a8584611b2e565b60608301516040517f70a082310000000000000000000000000000000000000000000000000000000081523060048201526000916001600160a01b0316906370a0823190602401602060405180830381865afa15801561106e573d6000803e3d6000fd5b505050506040513d601f19601f820116820180604052508101906110929190614023565b60808501516040517f70a082310000000000000000000000000000000000000000000000000000000081523060048201529192506000916001600160a01b03909116906370a0823190602401602060405180830381865afa1580156110fb573d6000803e3d6000fd5b505050506040513d601f19601f8201168201806040525081019061111f9190614023565b90508382101580156111315750828110155b6111a35760405162461bcd60e51b815260206004820152603b60248201527f4c697175696461746f723a204e656761746976652070726f66697420776f756c60448201527f6420646563726561736520636f6e74726163742062616c616e6365000000000060648201526084016101ca565b60006111af8584613819565b90506109a686606001518a83611fe8565b6000816111cd8486613fe0565b6111d7919061406b565b90505b9392505050565b606080876001600160a01b03166338ed173988888888886040518663ffffffff1660e01b81526004016112189594939291906140ea565b6000604051808303816000875af192505050801561125857506040513d6000823e601f3d908101601f191682016040526112559190810190614181565b60015b61142b573d808015611286576040519150601f19603f3d011682016040523d82523d6000602084013e61128b565b606091505b508051156112988261206d565b906112b65760405162461bcd60e51b81526004016101ca9190614211565b506040517f38ed17390000000000000000000000000000000000000000000000000000000081526001600160a01b038a16906338ed173990611304908b908b908b908b908b906004016140ea565b6000604051808303816000875af192505050801561134457506040513d6000823e601f3d908101601f191682016040526113419190810190614224565b60015b611411573d808015611372576040519150601f19603f3d011682016040523d82523d6000602084013e611377565b606091505b508051156113848261206d565b906113a25760405162461bcd60e51b81526004016101ca9190614211565b5060405162461bcd60e51b815260206004820152602a60248201527f556e697377617056323a20737761704578616374546f6b656e73466f72546f6b60448201527f656e73206661696c65640000000000000000000000000000000000000000000060648201526084016101ca565b604080516000815260208101909152935091506114319050565b90925090505b965096945050505050565b600080600061145885600001518660600151876080015161215f565b80516040517f524f388900000000000000000000000000000000000000000000000000000000815291925060009182916001600160a01b0388169163524f3889916114a591600401614211565b606060405180830381865afa1580156114c2573d6000803e3d6000fd5b505050506040513d601f19601f820116820180604052508101906114e6919061382c565b9250509150600080876001600160a01b031663524f388986602001516040518263ffffffff1660e01b815260040161151e9190614211565b606060405180830381865afa15801561153b573d6000803e3d6000fd5b505050506040513d601f19601f8201168201806040525081019061155f919061382c565b9250509150600080896001600160a01b031663524f388988604001516040518263ffffffff1660e01b81526004016115979190614211565b606060405180830381865afa1580156115b4573d6000803e3d6000fd5b505050506040513d601f19601f820116820180604052508101906115d8919061382c565b92505091506116588b606001516001600160a01b031663313ce5676040518163ffffffff1660e01b8152600401602060405180830381865afa158015611622573d6000803e3d6000fd5b505050506040513d601f19601f820116820180604052508101906116469190614259565b60ff1685858e61016001518a8a6122ae565b6116d38c608001516001600160a01b031663313ce5676040518163ffffffff1660e01b8152600401602060405180830381865afa15801561169d573d6000803e3d6000fd5b505050506040513d601f19601f820116820180604052508101906116c19190614259565b60ff1684848f61016001518b8b6122ae565b98509850505050505050509250929050565b6040517fd52bb6f40000000000000000000000000000000000000000000000000000000081526001600160a01b0383811660048301528281166024830152600091829186169063d52bb6f4906044016040805180830381865afa92505050801561176c575060408051601f3d908101601f1916820190925261176991810190614274565b60015b611900573d80801561179a576040519150601f19603f3d011682016040523d82523d6000602084013e61179f565b606091505b508051156117ac8261206d565b906117ca5760405162461bcd60e51b81526004016101ca9190614211565b506040517f7f6f21780000000000000000000000000000000000000000000000000000000081526001600160a01b0386811660048301528581166024830152871690637f6f2178906044016040805180830381865afa92505050801561184d575060408051601f3d908101601f1916820190925261184a91810190614274565b60015b6118f4573d80801561187b576040519150601f19603f3d011682016040523d82523d6000602084013e611880565b606091505b5080511561188d8261206d565b906118ab5760405162461bcd60e51b81526004016101ca9190614211565b5060405162461bcd60e51b815260206004820152601d60248201527f556e697377617056323a206765745265736572766573206661696c656400000060448201526064016101ca565b90935091506119069050565b90925090505b935093915050565b6060835160000361192a57611923838361231e565b90506111da565b826001600160a01b0316846000815181106119475761194761377d565b60200260200101516001600160a01b031614801561199c5750816001600160a01b031684600186516119799190613819565b815181106119895761198961377d565b60200260200101516001600160a01b0316145b6119e85760405162461bcd60e51b815260206004820152601e60248201527f4c697175696461746f723a20496e76616c696420746f6b656e2070617468000060448201526064016101ca565b509192915050565b606060018251611a009190613819565b67ffffffffffffffff811115611a1857611a1861338b565b604051908082528060200260200182016040528015611a5d57816020015b6040805180820190915260008082526020820152815260200190600190039081611a365790505b50905060005b60018351611a719190613819565b811015611b2757611ad4838281518110611a8d57611a8d61377d565b602002602001015184836001611aa391906137db565b81518110611ab357611ab361377d565b6020026020010151866001600160a01b03166116e59092919063ffffffff16565b838381518110611ae657611ae661377d565b6020026020010151600001848481518110611b0357611b0361377d565b60209081029190910181015101919091525280611b1f81614298565b915050611a63565b5092915050565b6000805460ff166002811115611b4657611b466135e7565b14611b935760405162461bcd60e51b815260206004820152601e60248201527f4c697175696461746f723a205265656e7472616e637920626c6f636b6564000060448201526064016101ca565b600080547fffffffffffffffffffffffffffffffffffffffffffffffffffffffffffffff0016600117905560e0810151611c355760405162461bcd60e51b815260206004820152602360248201527f4c697175696461746f723a204e6f20662d617373657420746f206c697175696460448201527f617465000000000000000000000000000000000000000000000000000000000060648201526084016101ca565b815160608201516040517f613255ab0000000000000000000000000000000000000000000000000000000081526001600160a01b039182166004820152600092919091169063613255ab90602401602060405180830381865afa158015611ca0573d6000803e3d6000fd5b505050506040513d601f19601f82011682018060405250810190611cc49190614023565b905060008111611d3c5760405162461bcd60e51b815260206004820152602260248201527f4c697175696461746f723a20466c617368206c6f616e20756e617661696c616260448201527f6c6500000000000000000000000000000000000000000000000000000000000060648201526084016101ca565b6000611d47836123ac565b905060008111611d995760405162461bcd60e51b815260206004820152601f60248201527f4c697175696461746f723a204e6f2070726f66697420617661696c61626c650060448201526064016101ca565b60008360000151846020015186604051602001611db893929190614305565b60405160208183030381529060405290508080519060200120600060016101000a8154817effffffffffffffffffffffffffffffffffffffffffffffffffffffffffffff021916908360081c021790555084600001516001600160a01b0316635cffe9de308660600151611e2c8787612436565b856040518563ffffffff1660e01b8152600401611e4c949392919061438d565b6020604051808303816000875af1158015611e6b573d6000803e3d6000fd5b505050506040513d601f19601f82011682018060405250810190611e8f91906137fe565b50606084015185516040517f095ea7b30000000000000000000000000000000000000000000000000000000081526001600160a01b0391821660048201526000602482015291169063095ea7b3906044016020604051808303816000875af1158015611eff573d6000803e3d6000fd5b505050506040513d601f19601f82011682018060405250810190611f2391906137fe565b5060029250611f30915050565b60005460ff166002811115611f4757611f476135e7565b14611fbc576040805162461bcd60e51b81526020600482015260248101919091527f4c697175696461746f723a205265656e7472616e637920626c6f636b6564206f60448201527f7220666c617368206c6f616e207265636569766572206e6f742063616c6c656460648201526084016101ca565b5050600080547fffffffffffffffffffffffffffffffffffffffffffffffffffffffffffffff00169055565b604080516001600160a01b038416602482015260448082018490528251808303909101815260649091019091526020810180517bffffffffffffffffffffffffffffffffffffffffffffffffffffffff167fa9059cbb0000000000000000000000000000000000000000000000000000000017905261206890849061244c565b505050565b606060006004835161207f9190613819565b67ffffffffffffffff8111156120975761209761338b565b6040519080825280601f01601f1916602001820160405280156120c1576020820181803683370190505b50905060005b815181101561214a57836120dc8260046137db565b815181106120ec576120ec61377d565b602001015160f81c60f81b8282815181106121095761210961377d565b60200101907effffffffffffffffffffffffffffffffffffffffffffffffffffffffffffff1916908160001a9053508061214281614298565b9150506120c7565b50808060200190518101906111da91906143bf565b61218360405180606001604052806060815260200160608152602001606081525090565b6040517f4610bc230000000000000000000000000000000000000000000000000000000081526000906001600160a01b03861690634610bc23906121ce9060029088906004016143f4565b600060405180830381865afa1580156121eb573d6000803e3d6000fd5b505050506040513d6000823e601f3d908101601f191682016040526122139190810190614456565b90506000856001600160a01b0316634610bc236001866040518363ffffffff1660e01b81526004016122469291906143f4565b600060405180830381865afa158015612263573d6000803e3d6000fd5b505050506040513d6000823e601f3d908101601f1916820160405261228b9190810190614456565b60a0830151845260c0928301516020850152909101516040830152509392505050565b60008060096122bd878a6137db565b6122c791906137db565b905060006122d584876137db565b9050808210156122e7576122e7614551565b876122f28284613819565b6122fd90600a6146a0565b6123079087613fe0565b612311919061406b565b9998505050505050505050565b6040805160028082526060808301845292600092919060208301908036833701905050905083816000815181106123575761235761377d565b60200260200101906001600160a01b031690816001600160a01b031681525050828160018151811061238b5761238b61377d565b6001600160a01b039092166020928302919091019091015290505b92915050565b6000806001836101c001515111806123ca57506001836101e0015151115b90506000816123e1576123dc84612534565b6123ea565b6123ea8461276a565b9050806000036123fe575060009392505050565b600061241c612412838761014001516128c0565b8660e00151612436565b905061242d81866101c001516128cc565b95945050505050565b600081831061244557816111da565b5090919050565b60006124a1826040518060400160405280602081526020017f5361666545524332303a206c6f772d6c6576656c2063616c6c206661696c6564815250856001600160a01b03166129469092919063ffffffff16565b90508051600014806124c25750808060200190518101906124c291906137fe565b6120685760405162461bcd60e51b815260206004820152602a60248201527f5361666545524332303a204552433230206f7065726174696f6e20646964206e60448201527f6f7420737563636565640000000000000000000000000000000000000000000060648201526084016101ca565b600080826101c0015160008151811061254f5761254f61377d565b60200260200101516000015190506000836101c001516000815181106125775761257761377d565b60200260200101516020015190506000846101e0015160008151811061259f5761259f61377d565b60200260200101516000015190506000856101e001516000815181106125c7576125c761377d565b6020026020010151602001519050816103e860036103e86125e89190613819565b6125f29087613fe0565b6125fc919061406b565b6126069190613fe0565b945061261185612955565b9450600061262484886101400151612ad8565b9050600083612710896101000151612641858c6101800151612afb565b61264b9190613fe0565b612655919061406b565b61265f9190613fe0565b90506000836103e8612672600382613819565b6127108c610120015161268a888f6101a00151612afb565b6126949190613fe0565b61269e919061406b565b6126a89190613fe0565b6126b2919061406b565b6126bc9190613fe0565b90506126d06126cb82846137db565b612955565b6126da9089613fe0565b9750505050600082856126ed9190613fe0565b9050858110612703575060009695505050505050565b61270d8187613819565b955061271d90506103e886613fe0565b945061272c60036103e8613819565b612736908661406b565b9450612742828661406b565b945061274f858585612b13565b945061276085876101400151612ad8565b9695505050505050565b6000806127808360e00151846101400151612ad8565b9050600081815b6008811015612853576000613f346127106127a28686613819565b6127ac9190613fe0565b6127b6919061406b565b6127c09084613819565b90506000613f346127106127d48787613819565b6127de9190613fe0565b6127e8919061406b565b6127f290866137db565b905060646128008286613819565b1161280c575050612853565b60006128188984612b6d565b905060006128268a84612b6d565b9050808211156128385782955061283c565b8396505b50505050808061284b90614298565b915050612787565b506000600261286283856137db565b61286c919061406b565b9050600061287a8786612b6d565b905060006128888884612b6d565b905080158015612896575081155b156128a957506000979650505050505050565b8181116128b4578592505b50909695505050505050565b60006111da8284613fe0565b805182905b8015611b275761293282846128e7600185613819565b815181106128f7576128f761377d565b602002602001015160000151856001856129119190613819565b815181106129215761292161377d565b602002602001015160200151612fcc565b91508061293e816146ac565b9150506128d1565b60606111d78484600085613022565b60008160000361296757506000919050565b816001700100000000000000000000000000000000821061298d5760809190911c9060401b5b6801000000000000000082106129a85760409190911c9060201b5b64010000000082106129bf5760209190911c9060101b5b6201000082106129d45760109190911c9060081b5b61010082106129e85760089190911c9060041b5b601082106129fb5760049190911c9060021b5b60088210612a075760011b5b6001818581612a1857612a1861403c565b048201901c90506001818581612a3057612a3061403c565b048201901c90506001818581612a4857612a4861403c565b048201901c90506001818581612a6057612a6061403c565b048201901c90506001818581612a7857612a7861403c565b048201901c90506001818581612a9057612a9061403c565b048201901c90506001818581612aa857612aa861403c565b048201901c90506000818581612ac057612ac061403c565b049050808210612ad0578061242d565b509392505050565b6000816001612ae782866137db565b612af19190613819565b6111da919061406b565b6000612b096009600a6146a0565b612af18385613fe0565b600080612b2360036103e8613819565b612b2d9086613fe0565b90506000612b3b8483613fe0565b9050600082612b4c6103e888613fe0565b612b5691906137db565b9050612b62818361406b565b979650505050505050565b600080836101e001515167ffffffffffffffff811115612b8f57612b8f61338b565b604051908082528060200260200182016040528015612bd457816020015b6040805180820190915260008082526020820152815260200190600190039081612bad5790505b50905060005b846101e0015151811015612c71576040518060400160405280866101e001518381518110612c0a57612c0a61377d565b6020026020010151600001518152602001866101e001518381518110612c3257612c3261377d565b602002602001015160200151815250828281518110612c5357612c5361377d565b60200260200101819052508080612c6990614298565b915050612bda565b506000612c83848661014001516128c0565b6101c0860151519091505b8015612f86576000612cdc83886101c00151600185612cad9190613819565b81518110612cbd57612cbd61377d565b602002602001015160000151896101c001516001866129119190613819565b905060015b87610220015151811015612f71578761020001518381518110612d0657612d0661377d565b60200260200101516001600160a01b0316886102200151600183612d2a9190613819565b81518110612d3a57612d3a61377d565b60200260200101516001600160a01b0316148015612daf5750610200880151612d64600185613819565b81518110612d7457612d7461377d565b60200260200101516001600160a01b03168861022001518281518110612d9c57612d9c61377d565b60200260200101516001600160a01b0316145b15612e29578385612dc1600184613819565b81518110612dd157612dd161377d565b6020026020010151600001818151612de99190613819565b9052508185612df9600184613819565b81518110612e0957612e0961377d565b6020026020010151602001818151612e2191906137db565b905250612f5f565b610200880151612e3a600185613819565b81518110612e4a57612e4a61377d565b60200260200101516001600160a01b0316886102200151600183612e6e9190613819565b81518110612e7e57612e7e61377d565b60200260200101516001600160a01b0316148015612ee957508761020001518381518110612eae57612eae61377d565b60200260200101516001600160a01b03168861022001518281518110612ed657612ed661377d565b60200260200101516001600160a01b0316145b15612f5f578185612efb600184613819565b81518110612f0b57612f0b61377d565b6020026020010151600001818151612f239190613819565b9052508385612f33600184613819565b81518110612f4357612f4361377d565b6020026020010151602001818151612f5b91906137db565b9052505b80612f6981614298565b915050612ce1565b50915080612f7e816146ac565b915050612c8e565b50600080612f948787613116565b915091506000612fa4828661317c565b90506000612fb282856137db565b9050848111612fc2576000612311565b6123118582613819565b6000806103e8612fdc8686613fe0565b612fe69190613fe0565b90506000612ff760036103e8613819565b6130018786613819565b61300b9190613fe0565b9050613017818361406b565b6127609060016137db565b60608247101561309a5760405162461bcd60e51b815260206004820152602660248201527f416464726573733a20696e73756666696369656e742062616c616e636520666f60448201527f722063616c6c000000000000000000000000000000000000000000000000000060648201526084016101ca565b600080866001600160a01b031685876040516130b691906146e1565b60006040518083038185875af1925050503d80600081146130f3576040519150601f19603f3d011682016040523d82523d6000602084013e6130f8565b606091505b5091509150613109878383876131e2565b925050505b949350505050565b600080613145612710856101000151856131309190613fe0565b61313a919061406b565b856101800151612afb565b91506131736127108561012001518561315e9190613fe0565b613168919061406b565b856101a00151612afb565b90509250929050565b8160005b8251811015611b27576131ce8284838151811061319f5761319f61377d565b6020026020010151600001518584815181106131bd576131bd61377d565b602002602001015160200151612b13565b9150806131da81614298565b915050613180565b6060831561325157825160000361324a576001600160a01b0385163b61324a5760405162461bcd60e51b815260206004820152601d60248201527f416464726573733a2063616c6c20746f206e6f6e2d636f6e747261637400000060448201526064016101ca565b508161310e565b61310e83838151156132665781518083602001fd5b8060405162461bcd60e51b81526004016101ca9190614211565b6001600160a01b038116811461329557600080fd5b50565b80356132a381613280565b919050565b60008060008060008060a087890312156132c157600080fd5b86356132cc81613280565b955060208701356132dc81613280565b94506040870135935060608701359250608087013567ffffffffffffffff8082111561330757600080fd5b818901915089601f83011261331b57600080fd5b81358181111561332a57600080fd5b8a602082850101111561333c57600080fd5b6020830194508093505050509295509295509295565b60008060006060848603121561336757600080fd5b8335925060208401359150604084013561338081613280565b809150509250925092565b7f4e487b7100000000000000000000000000000000000000000000000000000000600052604160045260246000fd5b6040516080810167ffffffffffffffff811182821017156133dd576133dd61338b565b60405290565b604051610500810167ffffffffffffffff811182821017156133dd576133dd61338b565b604051610620810167ffffffffffffffff811182821017156133dd576133dd61338b565b604051610140810167ffffffffffffffff811182821017156133dd576133dd61338b565b604051601f8201601f1916810167ffffffffffffffff811182821017156134785761347861338b565b604052919050565b600067ffffffffffffffff82111561349a5761349a61338b565b5060051b60200190565b600082601f8301126134b557600080fd5b813560206134ca6134c583613480565b61344f565b82815260059290921b840181019181810190868411156134e957600080fd5b8286015b8481101561350d57803561350081613280565b83529183019183016134ed565b509695505050505050565b6000806000806000806000806000806101408b8d03121561353857600080fd5b6135418b613298565b995061354f60208c01613298565b985060408b0135975060608b0135965060808b0135955060a08b0135945061357960c08c01613298565b935061358760e08c01613298565b92506101008b013567ffffffffffffffff808211156135a557600080fd5b6135b18e838f016134a4565b93506101208d01359150808211156135c857600080fd5b506135d58d828e016134a4565b9150509295989b9194979a5092959850565b7f4e487b7100000000000000000000000000000000000000000000000000000000600052602160045260246000fd5b8183823760009101908152919050565b60006060828403121561363857600080fd5b6040516060810167ffffffffffffffff828210818311171561365c5761365c61338b565b81604052829350843591508082111561367457600080fd5b50613681858286016134a4565b82525060208301356020820152604083013560408201525092915050565b6000806000606084860312156136b457600080fd5b83356136bf81613280565b925060208401356136cf81613280565b9150604084013567ffffffffffffffff808211156136ec57600080fd5b908501906080828803121561370057600080fd5b6137086133ba565b823561371381613280565b8152602083013561372381613280565b602082015260408301358281111561373a57600080fd5b61374689828601613626565b60408301525060608301358281111561375e57600080fd5b61376a89828601613626565b6060830152508093505050509250925092565b7f4e487b7100000000000000000000000000000000000000000000000000000000600052603260045260246000fd5b7f4e487b7100000000000000000000000000000000000000000000000000000000600052601160045260246000fd5b808201808211156123a6576123a66137ac565b805180151581146132a357600080fd5b60006020828403121561381057600080fd5b6111da826137ee565b818103818111156123a6576123a66137ac565b60008060006060848603121561384157600080fd5b8351925060208401519150604084015190509250925092565b60006020828403121561386c57600080fd5b81516111da81613280565b8051600581106132a357600080fd5b80516132a381613280565b60005b838110156138ac578181015183820152602001613894565b50506000910152565b600082601f8301126138c657600080fd5b815167ffffffffffffffff8111156138e0576138e061338b565b6138f36020601f19601f8401160161344f565b81815284602083860101111561390857600080fd5b61310e826020830160208701613891565b60006020828403121561392b57600080fd5b815167ffffffffffffffff8082111561394357600080fd5b90830190610500828603121561395857600080fd5b6139606133e3565b61396983613877565b815261397760208401613886565b602082015261398860408401613886565b604082015261399960608401613886565b60608201526080830151828111156139b057600080fd5b6139bc878286016138b5565b6080830152506139ce60a084016137ee565b60a082015260c083015160c082015260e083015160e082015261010091506139f7828401613886565b9181019190915261012082810151908201526101408083015190820152610160808301519082015261018080830151908201526101a080830151908201526101c080830151908201526101e08083015190820152610200808301519082015261022080830151908201526102408083015190820152610260808301519082015261028080830151908201526102a080830151908201526102c080830151908201526102e08083015190820152610300808301519082015261032080830151908201526103408083015190820152610360808301519082015261038080830151908201526103a080830151908201526103c080830151908201526103e08083015190820152610400808301519082015261042080830151908201526104408083015190820152610460808301519082015261048080830151908201526104a080830151908201526104c080830151908201526104e091820151918101919091529392505050565b805160ff811681146132a357600080fd5b805163ffffffff811681146132a357600080fd5b805161ffff811681146132a357600080fd5b805167ffffffffffffffff811681146132a357600080fd5b80516fffffffffffffffffffffffffffffffff811681146132a357600080fd5b600060208284031215613bde57600080fd5b815167ffffffffffffffff80821115613bf657600080fd5b908301906106208286031215613c0b57600080fd5b613c13613407565b613c1c83613886565b8152613c2a60208401613886565b6020820152613c3b60408401613886565b6040820152613c4c60608401613886565b6060820152613c5d60808401613886565b608082015260a083015182811115613c7457600080fd5b613c80878286016138b5565b60a083015250613c9260c08401613886565b60c0820152613ca360e08401613886565b60e08201526101009150613cb8828401613886565b828201526101209150613ccc828401613886565b828201526101409150613ce0828401613886565b828201526101609150613cf4828401613886565b828201526101809150613d08828401613b5d565b828201526101a09150613d1c828401613b5d565b828201526101c0915081830151828201526101e09150613d3d828401613b6e565b828201526102009150613d51828401613b6e565b828201526102209150613d65828401613b82565b828201526102409150613d79828401613b94565b828201526102609150613d8d828401613b94565b828201526102809150613da1828401613b94565b828201526102a09150613db5828401613b82565b828201526102c09150613dc98284016137ee565b828201526102e09150613ddd828401613b94565b828201526103009150613df1828401613b94565b828201526103209150613e05828401613b94565b828201526103409150613e19828401613b82565b828201526103609150613e2d828401613b6e565b828201526103809150613e41828401613b6e565b828201526103a09150613e55828401613b94565b828201526103c09150613e69828401613bac565b828201526103e09150613e7d828401613b82565b828201526104009150613e91828401613b82565b828201526104209150613ea5828401613bac565b828201526104409150613eb9828401613b94565b828201526104609150613ecd828401613b94565b828201526104809150613ee1828401613b94565b828201526104a09150613ef5828401613b94565b828201526104c09150613f09828401613b94565b828201526104e09150613f1d828401613b94565b828201526105009150613f31828401613b94565b828201526105209150613f45828401613b94565b828201526105409150613f59828401613b6e565b828201526105609150613f6d828401613b94565b828201526105809150613f81828401613b94565b828201526105a09150613f95828401613b94565b828201526105c09150613fa9828401613b94565b828201526105e09150613fbd828401613b94565b828201526106009150613fd1828401613b6e565b91810191909152949350505050565b80820281158282048414176123a6576123a66137ac565b6000806040838503121561400a57600080fd5b61401383613b5d565b9150602083015190509250929050565b60006020828403121561403557600080fd5b5051919050565b7f4e487b7100000000000000000000000000000000000000000000000000000000600052601260045260246000fd5b6000826140a1577f4e487b7100000000000000000000000000000000000000000000000000000000600052601260045260246000fd5b500490565b600081518084526020808501945080840160005b838110156140df5781516001600160a01b0316875295820195908201906001016140ba565b509495945050505050565b85815284602082015260a06040820152600061410960a08301866140a6565b6001600160a01b0394909416606083015250608001529392505050565b600082601f83011261413757600080fd5b815160206141476134c583613480565b82815260059290921b8401810191818101908684111561416657600080fd5b8286015b8481101561350d578051835291830191830161416a565b6000806040838503121561419457600080fd5b825167ffffffffffffffff808211156141ac57600080fd5b6141b886838701614126565b935060208501519150808211156141ce57600080fd5b506141db85828601614126565b9150509250929050565b600081518084526141fd816020860160208601613891565b601f01601f19169290920160200192915050565b6020815260006111da60208301846141e5565b60006020828403121561423657600080fd5b815167ffffffffffffffff81111561424d57600080fd5b61310e84828501614126565b60006020828403121561426b57600080fd5b6111da82613b5d565b6000806040838503121561428757600080fd5b505080516020909101519092909150565b60007fffffffffffffffffffffffffffffffffffffffffffffffffffffffffffffffff82036142c9576142c96137ac565b5060010190565b60008151606084526142e560608501826140a6565b905060208301516020850152604083015160408501528091505092915050565b60006001600160a01b038086168352808516602084015260606040840152808451166060840152806020850151166080840152506040830151608060a084015261435260e08401826142d0565b905060608401517fffffffffffffffffffffffffffffffffffffffffffffffffffffffffffffffa08483030160c085015261310982826142d0565b60006001600160a01b0380871683528086166020840152508360408301526080606083015261276060808301846141e5565b6000602082840312156143d157600080fd5b815167ffffffffffffffff8111156143e857600080fd5b61310e848285016138b5565b604081016003841061442f577f4e487b7100000000000000000000000000000000000000000000000000000000600052602160045260246000fd5b9281526001600160a01b039190911660209091015290565b8051600381106132a357600080fd5b60006020828403121561446857600080fd5b815167ffffffffffffffff8082111561448057600080fd5b90830190610140828603121561449557600080fd5b61449d61342b565b6144a683614447565b81526144b460208401613886565b602082015260408301516040820152606083015160608201526144d9608084016137ee565b608082015260a0830151828111156144f057600080fd5b6144fc878286016138b5565b60a08301525060c08301518281111561451457600080fd5b614520878286016138b5565b60c08301525060e0838101519082015261010080840151908201526101209283015192810192909252509392505050565b7f4e487b7100000000000000000000000000000000000000000000000000000000600052600160045260246000fd5b600181815b808511156145d957817fffffffffffffffffffffffffffffffffffffffffffffffffffffffffffffffff048211156145bf576145bf6137ac565b808516156145cc57918102915b93841c9390800290614585565b509250929050565b6000826145f0575060016123a6565b816145fd575060006123a6565b8160018114614613576002811461461d57614639565b60019150506123a6565b60ff84111561462e5761462e6137ac565b50506001821b6123a6565b5060208310610133831016604e8410600b841016171561465c575081810a6123a6565b6146668383614580565b807fffffffffffffffffffffffffffffffffffffffffffffffffffffffffffffffff04821115614698576146986137ac565b029392505050565b60006111da83836145e1565b6000816146bb576146bb6137ac565b507fffffffffffffffffffffffffffffffffffffffffffffffffffffffffffffffff0190565b600082516146f3818460208701613891565b919091019291505056fea164736f6c6343000814000a",
  "linkReferences": {},
  "deployedLinkReferences": {}
}