{
  "_format": "hh-sol-artifact-1",
  "contractName": "Liquidator",
  "sourceName": "liquidator/contracts/Liquidator.sol",
  "abi": [
    {
      "inputs": [
        {
          "internalType": "address",
          "name": "_flashLender",
          "type": "address"
        },
        {
          "internalType": "address",
          "name": "_dex",
          "type": "address"
        }
      ],
      "stateMutability": "nonpayable",
      "type": "constructor"
    },
    {
      "anonymous": false,
      "inputs": [
        {
          "indexed": true,
          "internalType": "address",
          "name": "previousOwner",
          "type": "address"
        },
        {
          "indexed": true,
          "internalType": "address",
          "name": "newOwner",
          "type": "address"
        }
      ],
      "name": "OwnershipTransferred",
      "type": "event"
    },
    {
      "inputs": [],
      "name": "dex",
      "outputs": [
        {
          "internalType": "address",
          "name": "",
          "type": "address"
        }
      ],
      "stateMutability": "view",
      "type": "function"
    },
    {
      "inputs": [],
      "name": "flashLender",
      "outputs": [
        {
          "internalType": "address",
          "name": "",
          "type": "address"
        }
      ],
      "stateMutability": "view",
      "type": "function"
    },
    {
      "inputs": [
        {
          "internalType": "uint256",
          "name": "_maxSlippageBipsDex1",
          "type": "uint256"
        },
        {
          "internalType": "uint256",
          "name": "_maxSlippageBipsDex2",
          "type": "uint256"
        },
        {
          "internalType": "address",
          "name": "_agentVault",
          "type": "address"
        }
      ],
      "name": "maxSlippageToMinPrices",
      "outputs": [
        {
          "internalType": "uint256",
          "name": "",
          "type": "uint256"
        },
        {
          "internalType": "uint256",
          "name": "",
          "type": "uint256"
        },
        {
          "internalType": "uint256",
          "name": "",
          "type": "uint256"
        },
        {
          "internalType": "uint256",
          "name": "",
          "type": "uint256"
        }
      ],
      "stateMutability": "view",
      "type": "function"
    },
    {
      "inputs": [
        {
          "internalType": "address",
          "name": "",
          "type": "address"
        },
        {
          "internalType": "address",
          "name": "_token",
          "type": "address"
        },
        {
          "internalType": "uint256",
          "name": "_amount",
          "type": "uint256"
        },
        {
          "internalType": "uint256",
          "name": "_fee",
          "type": "uint256"
        },
        {
          "internalType": "bytes",
          "name": "_data",
          "type": "bytes"
        }
      ],
      "name": "onFlashLoan",
      "outputs": [
        {
          "internalType": "bytes32",
          "name": "",
          "type": "bytes32"
        }
      ],
      "stateMutability": "nonpayable",
      "type": "function"
    },
    {
      "inputs": [],
      "name": "owner",
      "outputs": [
        {
          "internalType": "address",
          "name": "",
          "type": "address"
        }
      ],
      "stateMutability": "view",
      "type": "function"
    },
    {
      "inputs": [],
      "name": "renounceOwnership",
      "outputs": [],
      "stateMutability": "nonpayable",
      "type": "function"
    },
    {
      "inputs": [
        {
          "internalType": "address",
          "name": "_agentVault",
          "type": "address"
        },
        {
          "internalType": "address",
          "name": "_profitTo",
          "type": "address"
        },
        {
          "components": [
            {
              "internalType": "address",
              "name": "flashLender",
              "type": "address"
            },
            {
              "internalType": "uint256",
              "name": "maxFlashFeeBips",
              "type": "uint256"
            },
            {
              "internalType": "address",
              "name": "dex",
              "type": "address"
            },
            {
              "components": [
                {
                  "internalType": "address[]",
                  "name": "path",
                  "type": "address[]"
                },
                {
                  "internalType": "uint256",
                  "name": "minPriceMul",
                  "type": "uint256"
                },
                {
                  "internalType": "uint256",
                  "name": "minPriceDiv",
                  "type": "uint256"
                }
              ],
              "internalType": "struct DexPairConfig",
              "name": "dexPair1",
              "type": "tuple"
            },
            {
              "components": [
                {
                  "internalType": "address[]",
                  "name": "path",
                  "type": "address[]"
                },
                {
                  "internalType": "uint256",
                  "name": "minPriceMul",
                  "type": "uint256"
                },
                {
                  "internalType": "uint256",
                  "name": "minPriceDiv",
                  "type": "uint256"
                }
              ],
              "internalType": "struct DexPairConfig",
              "name": "dexPair2",
              "type": "tuple"
            }
          ],
          "internalType": "struct ArbitrageConfig",
          "name": "_config",
          "type": "tuple"
        }
      ],
      "name": "runArbitrage",
      "outputs": [],
      "stateMutability": "nonpayable",
      "type": "function"
    },
    {
      "inputs": [
        {
          "internalType": "address",
          "name": "newOwner",
          "type": "address"
        }
      ],
      "name": "transferOwnership",
      "outputs": [],
      "stateMutability": "nonpayable",
      "type": "function"
    },
    {
      "inputs": [],
      "name": "withdrawNat",
      "outputs": [],
      "stateMutability": "nonpayable",
      "type": "function"
    },
    {
      "inputs": [
        {
          "internalType": "contract IERC20",
          "name": "token",
          "type": "address"
        }
      ],
      "name": "withdrawToken",
      "outputs": [],
      "stateMutability": "nonpayable",
      "type": "function"
    }
  ],
  "bytecode": "0x60c06040523480156200001157600080fd5b50604051620045d7380380620045d78339810160408190526200003491620000c4565b6200003f3362000057565b6001600160a01b039182166080521660a052620000fc565b600080546001600160a01b038381166001600160a01b0319831681178455604051919092169283917f8be0079c531659141344cd1fd0a4f28419497f9722a3daafe3b4186f6b6457e09190a35050565b80516001600160a01b0381168114620000bf57600080fd5b919050565b60008060408385031215620000d857600080fd5b620000e383620000a7565b9150620000f360208401620000a7565b90509250929050565b60805160a0516144a1620001366000396000818160ee0152818161066f015261128c01526000818161015b015261124d01526144a16000f3fe608060405234801561001057600080fd5b50600436106100be5760003560e01c8063a771445811610076578063ca2196bf1161005b578063ca2196bf146101b0578063d2fba798146101b8578063f2fde38b146101cb57600080fd5b8063a771445814610156578063ae4058601461017d57600080fd5b8063715018a6116100a7578063715018a61461012857806389476069146101325780638da5cb5b1461014557600080fd5b806323e30c8b146100c3578063692058c2146100e9575b600080fd5b6100d66100d1366004613772565b6101de565b6040519081526020015b60405180910390f35b6101107f000000000000000000000000000000000000000000000000000000000000000081565b6040516001600160a01b0390911681526020016100e0565b6101306105ad565b005b61013061014036600461381c565b6105c1565b6000546001600160a01b0316610110565b6101107f000000000000000000000000000000000000000000000000000000000000000081565b61019061018b366004613839565b610668565b6040805194855260208501939093529183015260608201526080016100e0565b6101306106e2565b6101306101c6366004613872565b610724565b6101306101d936600461381c565b610744565b6000600160005474010000000000000000000000000000000000000000900460ff166002811115610211576102116138d0565b146102895760405162461bcd60e51b815260206004820152602d60248201527f4c697175696461746f723a20466c617368206c6f616e207769746820696e766160448201527f6c696420696e69746961746f720000000000000000000000000000000000000060648201526084015b60405180910390fd5b600080547fffffffffffffffffffffff00ffffffffffffffffffffffffffffffffffffffff16740200000000000000000000000000000000000000001790556040516102d890849084906138ff565b60405190819003902060015460081b7fffffffffffffffffffffffffffffffffffffffffffffffffffffffffffffff009081169116146103805760405162461bcd60e51b815260206004820152602c60248201527f4c697175696461746f723a20466c617368206c656e646572207061737365642060448201527f696e76616c6964206461746100000000000000000000000000000000000000006064820152608401610280565b6000808061039085870187613b5f565b9250925092506127108882602001516103a99190613bf0565b6103b39190613c36565b8711156104285760405162461bcd60e51b815260206004820152602c60248201527f4c697175696461746f723a20466c617368206c656e646572207061737365642060448201527f746f6f20686967682066656500000000000000000000000000000000000000006064820152608401610280565b606081015151805160009061043f5761043f613c71565b60200260200101516001600160a01b0316896001600160a01b0316146104cd5760405162461bcd60e51b815260206004820152602d60248201527f4c697175696461746f723a20466c617368206c656e646572207061737365642060448201527f696e76616c696420746f6b656e000000000000000000000000000000000000006064820152608401610280565b6104d9888484846107d1565b80516001600160a01b038a169063095ea7b3906104f68a8c613ca0565b6040517fffffffff0000000000000000000000000000000000000000000000000000000060e085901b1681526001600160a01b03909216600483015260248201526044016020604051808303816000875af1158015610559573d6000803e3d6000fd5b505050506040513d601f19601f8201168201806040525081019061057d9190613cc8565b507f439148f0bbc682ca079e46d6e2c2f0c1e3b820f1a291b069d8882abf8cf18dd99a9950505050505050505050565b6105b5610bca565b6105bf6000610c24565b565b6105c9610bca565b610665816105df6000546001600160a01b031690565b6040517f70a082310000000000000000000000000000000000000000000000000000000081523060048201526001600160a01b038516906370a0823190602401602060405180830381865afa15801561063c573d6000803e3d6000fd5b505050506040513d601f19601f820116820180604052508101906106609190613ce3565b610c8c565b50565b60008080807f00000000000000000000000000000000000000000000000000000000000000008161069887610d0c565b90506000806106b1848c856060015186604001516111dd565b915091506000806106cc868d876080015188606001516111dd565b949e939d509b5092995090975050505050505050565b6106ea610bca565b600080546040516001600160a01b03909116914780156108fc02929091818181858888f19350505050158015610665573d6000803e3d6000fd5b61072c610bca565b61073f838361073a84613cfc565b611234565b505050565b61074c610bca565b6001600160a01b0381166107c85760405162461bcd60e51b815260206004820152602660248201527f4f776e61626c653a206e6577206f776e657220697320746865207a65726f206160448201527f64647265737300000000000000000000000000000000000000000000000000006064820152608401610280565b61066581610c24565b60608060008360600151600001516000815181106107f1576107f1613c71565b60200260200101519050600084608001516000015160008151811061081857610818613c71565b602090810291909101015160408087015190517f095ea7b30000000000000000000000000000000000000000000000000000000081526001600160a01b039182166004820152602481018b905291925083169063095ea7b3906044016020604051808303816000875af1158015610893573d6000803e3d6000fd5b505050506040513d601f19601f820116820180604052508101906108b79190613cc8565b506108f5886108d78a886060015160200151896060015160400151611717565b60608801515160408901516001600160a01b03169291903042611738565b60408781015190517f095ea7b30000000000000000000000000000000000000000000000000000000081526001600160a01b039182166004820152600060248201529196509194509083169063095ea7b3906044016020604051808303816000875af1158015610969573d6000803e3d6000fd5b505050506040513d601f19601f8201168201806040525081019061098d9190613cc8565b506000846001865161099f9190613d08565b815181106109af576109af613c71565b60209081029190910101516040517fbcbaf4870000000000000000000000000000000000000000000000000000000081526001600160a01b038981166004830152602482018390529192506000918a169063bcbaf487906044016060604051808303816000875af1158015610a28573d6000803e3d6000fd5b505050506040513d601f19601f82011682018060405250810190610a4c9190613d1b565b92505081159050610bbe5760408781015190517f095ea7b30000000000000000000000000000000000000000000000000000000081526001600160a01b039182166004820152602481018390529084169063095ea7b3906044016020604051808303816000875af1158015610ac5573d6000803e3d6000fd5b505050506040513d601f19601f82011682018060405250810190610ae99190613cc8565b50610b2781610b09838a60800151602001518b6080015160400151611717565b60808a01515160408b01516001600160a01b03169291903042611738565b60408981015190517f095ea7b30000000000000000000000000000000000000000000000000000000081526001600160a01b039182166004820152600060248201529198508516915063095ea7b3906044016020604051808303816000875af1158015610b98573d6000803e3d6000fd5b505050506040513d601f19601f82011682018060405250810190610bbc9190613cc8565b505b50505050505050505050565b6000546001600160a01b031633146105bf5760405162461bcd60e51b815260206004820181905260248201527f4f776e61626c653a2063616c6c6572206973206e6f7420746865206f776e65726044820152606401610280565b600080546001600160a01b038381167fffffffffffffffffffffffff0000000000000000000000000000000000000000831681178455604051919092169283917f8be0079c531659141344cd1fd0a4f28419497f9722a3daafe3b4186f6b6457e09190a35050565b604080516001600160a01b038416602482015260448082018490528251808303909101815260649091019091526020810180517bffffffffffffffffffffffffffffffffffffffffffffffffffffffff167fa9059cbb0000000000000000000000000000000000000000000000000000000017905261073f908490611993565b610db960405180610200016040528060006001600160a01b0316815260200160006001600160a01b0316815260200160006001600160a01b0316815260200160006001600160a01b0316815260200160006001600160a01b0316815260200160008152602001600081526020016000815260200160008152602001600081526020016000815260200160008152602001606081526020016060815260200160608152602001606081525090565b6000826001600160a01b03166394217ad16040518163ffffffff1660e01b8152600401602060405180830381865afa158015610df9573d6000803e3d6000fd5b505050506040513d601f19601f82011682018060405250810190610e1d9190613d49565b6001600160a01b03808216808552908516602080860191909152604080517f7c7db1a500000000000000000000000000000000000000000000000000000000815290519394509192637c7db1a59260048082019392918290030181865afa158015610e8c573d6000803e3d6000fd5b505050506040513d601f19601f82011682018060405250810190610eb09190613d49565b82604001906001600160a01b031690816001600160a01b031681525050806001600160a01b031663b5a488a66040518163ffffffff1660e01b8152600401602060405180830381865afa158015610f0b573d6000803e3d6000fd5b505050506040513d601f19601f82011682018060405250810190610f2f9190613d49565b82608001906001600160a01b031690816001600160a01b031681525050806001600160a01b031663531090f36040518163ffffffff1660e01b8152600401602060405180830381865afa158015610f8a573d6000803e3d6000fd5b505050506040513d601f19601f82011682018060405250810190610fae9190613ce3565b82610100018181525050806001600160a01b031663410418f16040518163ffffffff1660e01b8152600401602060405180830381865afa158015610ff6573d6000803e3d6000fd5b505050506040513d601f19601f8201168201806040525081019061101a9190613ce3565b6101208301526040517f5f0169060000000000000000000000000000000000000000000000000000000081526001600160a01b038481166004830152821690635f01690690602401602060405180830381865afa15801561107f573d6000803e3d6000fd5b505050506040513d601f19601f820116820180604052508101906110a39190613d49565b6001600160a01b0390811660608401526040517f529cc2b900000000000000000000000000000000000000000000000000000000815284821660048201529082169063529cc2b990602401606060405180830381865afa15801561110b573d6000803e3d6000fd5b505050506040513d601f19601f8201168201806040525081019061112f9190613d1b565b60a085015260e084015260c0830152604080517f49b5fdb400000000000000000000000000000000000000000000000000000000815290516111cb9184916001600160a01b038516916349b5fdb49160048083019260209291908290030181865afa1580156111a2573d6000803e3d6000fd5b505050506040513d601f19601f820116820180604052508101906111c69190613d49565b611a7b565b61016084015261014083015250919050565b60008080806111f66001600160a01b0389168787611d24565b9092509050600061120988612710613d08565b6112139083613bf0565b9050600061122384612710613bf0565b919a91995090975050505050505050565b80516001600160a01b0316611270576001600160a01b037f00000000000000000000000000000000000000000000000000000000000000001681525b60408101516001600160a01b03166112b2576001600160a01b037f00000000000000000000000000000000000000000000000000000000000000001660408201525b6000836001600160a01b03166394217ad16040518163ffffffff1660e01b8152600401602060405180830381865afa1580156112f2573d6000803e3d6000fd5b505050506040513d601f19601f820116820180604052508101906113169190613d49565b6040517fe1c501000000000000000000000000000000000000000000000000000000000081526001600160a01b0386811660048301529192509082169063e1c501009060240160408051808303816000875af1925050508015611396575060408051601f3d908101601f1916820190925261139391810190613d82565b60015b1561139e5750505b60006113a985610d0c565b90506113c683606001516000015182606001518360400151611f4d565b8360600151600001819052506113ed83608001516000015182608001518360600151611f4d565b6080840151526040830151606084015151611408919061202f565b6101808201526040830151608084015151611423919061202f565b6101a0820152606083810151516101c08301526080840151516101e08301528101516040517f70a082310000000000000000000000000000000000000000000000000000000081523060048201526000916001600160a01b0316906370a0823190602401602060405180830381865afa1580156114a4573d6000803e3d6000fd5b505050506040513d601f19601f820116820180604052508101906114c89190613ce3565b60808301516040517f70a082310000000000000000000000000000000000000000000000000000000081523060048201529192506000916001600160a01b03909116906370a0823190602401602060405180830381865afa158015611531573d6000803e3d6000fd5b505050506040513d601f19601f820116820180604052508101906115559190613ce3565b90506115618584612163565b60608301516040517f70a082310000000000000000000000000000000000000000000000000000000081523060048201526000916001600160a01b0316906370a0823190602401602060405180830381865afa1580156115c5573d6000803e3d6000fd5b505050506040513d601f19601f820116820180604052508101906115e99190613ce3565b60808501516040517f70a082310000000000000000000000000000000000000000000000000000000081523060048201529192506000916001600160a01b03909116906370a0823190602401602060405180830381865afa158015611652573d6000803e3d6000fd5b505050506040513d601f19601f820116820180604052508101906116769190613ce3565b90508382101580156116885750828110155b6116fa5760405162461bcd60e51b815260206004820152603b60248201527f4c697175696461746f723a204e656761746976652070726f66697420776f756c60448201527f6420646563726561736520636f6e74726163742062616c616e636500000000006064820152608401610280565b60006117068584613d08565b9050610bbe86606001518a83610c8c565b6000816117248486613bf0565b61172e9190613c36565b90505b9392505050565b606080876001600160a01b03166338ed173988888888886040518663ffffffff1660e01b815260040161176f959493929190613dae565b6000604051808303816000875af19250505080156117af57506040513d6000823e601f3d908101601f191682016040526117ac9190810190613e8b565b60015b611982573d8080156117dd576040519150601f19603f3d011682016040523d82523d6000602084013e6117e2565b606091505b508051156117ef82612661565b9061180d5760405162461bcd60e51b81526004016102809190613f3f565b506040517f38ed17390000000000000000000000000000000000000000000000000000000081526001600160a01b038a16906338ed17399061185b908b908b908b908b908b90600401613dae565b6000604051808303816000875af192505050801561189b57506040513d6000823e601f3d908101601f191682016040526118989190810190613f52565b60015b611968573d8080156118c9576040519150601f19603f3d011682016040523d82523d6000602084013e6118ce565b606091505b508051156118db82612661565b906118f95760405162461bcd60e51b81526004016102809190613f3f565b5060405162461bcd60e51b815260206004820152602a60248201527f556e697377617056323a20737761704578616374546f6b656e73466f72546f6b60448201527f656e73206661696c6564000000000000000000000000000000000000000000006064820152608401610280565b604080516000815260208101909152935091506119889050565b90925090505b965096945050505050565b60006119e8826040518060400160405280602081526020017f5361666545524332303a206c6f772d6c6576656c2063616c6c206661696c6564815250856001600160a01b03166127499092919063ffffffff16565b9050805160001480611a09575080806020019051810190611a099190613cc8565b61073f5760405162461bcd60e51b815260206004820152602a60248201527f5361666545524332303a204552433230206f7065726174696f6e20646964206e60448201527f6f742073756363656564000000000000000000000000000000000000000000006064820152608401610280565b6000806000611a97856000015186606001518760800151612758565b80516040517f524f388900000000000000000000000000000000000000000000000000000000815291925060009182916001600160a01b0388169163524f388991611ae491600401613f3f565b606060405180830381865afa158015611b01573d6000803e3d6000fd5b505050506040513d601f19601f82011682018060405250810190611b259190613d1b565b9250509150600080876001600160a01b031663524f388986602001516040518263ffffffff1660e01b8152600401611b5d9190613f3f565b606060405180830381865afa158015611b7a573d6000803e3d6000fd5b505050506040513d601f19601f82011682018060405250810190611b9e9190613d1b565b9250509150600080896001600160a01b031663524f388988604001516040518263ffffffff1660e01b8152600401611bd69190613f3f565b606060405180830381865afa158015611bf3573d6000803e3d6000fd5b505050506040513d601f19601f82011682018060405250810190611c179190613d1b565b9250509150611c978b606001516001600160a01b031663313ce5676040518163ffffffff1660e01b8152600401602060405180830381865afa158015611c61573d6000803e3d6000fd5b505050506040513d601f19601f82011682018060405250810190611c859190613f87565b60ff1685858e61012001518a8a6128a7565b611d128c608001516001600160a01b031663313ce5676040518163ffffffff1660e01b8152600401602060405180830381865afa158015611cdc573d6000803e3d6000fd5b505050506040513d601f19601f82011682018060405250810190611d009190613f87565b60ff1684848f61012001518b8b6128a7565b98509850505050505050509250929050565b6040517fd52bb6f40000000000000000000000000000000000000000000000000000000081526001600160a01b0383811660048301528281166024830152600091829186169063d52bb6f4906044016040805180830381865afa925050508015611dab575060408051601f3d908101601f19168201909252611da891810190613fa2565b60015b611f3f573d808015611dd9576040519150601f19603f3d011682016040523d82523d6000602084013e611dde565b606091505b50805115611deb82612661565b90611e095760405162461bcd60e51b81526004016102809190613f3f565b506040517f7f6f21780000000000000000000000000000000000000000000000000000000081526001600160a01b0386811660048301528581166024830152871690637f6f2178906044016040805180830381865afa925050508015611e8c575060408051601f3d908101601f19168201909252611e8991810190613fa2565b60015b611f33573d808015611eba576040519150601f19603f3d011682016040523d82523d6000602084013e611ebf565b606091505b50805115611ecc82612661565b90611eea5760405162461bcd60e51b81526004016102809190613f3f565b5060405162461bcd60e51b815260206004820152601d60248201527f556e697377617056323a206765745265736572766573206661696c65640000006044820152606401610280565b9093509150611f459050565b90925090505b935093915050565b60608351600003611f6957611f628383612917565b9050611731565b826001600160a01b031684600081518110611f8657611f86613c71565b60200260200101516001600160a01b0316148015611fdb5750816001600160a01b03168460018651611fb89190613d08565b81518110611fc857611fc8613c71565b60200260200101516001600160a01b0316145b6120275760405162461bcd60e51b815260206004820152601e60248201527f4c697175696461746f723a20496e76616c696420746f6b656e207061746800006044820152606401610280565b509192915050565b60606001825161203f9190613d08565b67ffffffffffffffff8111156120575761205761390f565b60405190808252806020026020018201604052801561209c57816020015b60408051808201909152600080825260208201528152602001906001900390816120755790505b50905060005b600183516120b09190613d08565b81101561215c576121138382815181106120cc576120cc613c71565b6020026020010151848360016120e29190613ca0565b815181106120f2576120f2613c71565b6020026020010151866001600160a01b0316611d249092919063ffffffff16565b83838151811061212557612125613c71565b602002602001015160000184848151811061214257612142613c71565b6020908102919091018101510191909152526001016120a2565b5092915050565b6000805474010000000000000000000000000000000000000000900460ff166002811115612193576121936138d0565b146121e05760405162461bcd60e51b815260206004820152601e60248201527f4c697175696461746f723a205265656e7472616e637920626c6f636b656400006044820152606401610280565b600080547fffffffffffffffffffffff00ffffffffffffffffffffffffffffffffffffffff167401000000000000000000000000000000000000000017905560a08101516122965760405162461bcd60e51b815260206004820152602360248201527f4c697175696461746f723a204e6f20662d617373657420746f206c697175696460448201527f61746500000000000000000000000000000000000000000000000000000000006064820152608401610280565b815160608201516040517f613255ab0000000000000000000000000000000000000000000000000000000081526001600160a01b039182166004820152600092919091169063613255ab90602401602060405180830381865afa158015612301573d6000803e3d6000fd5b505050506040513d601f19601f820116820180604052508101906123259190613ce3565b90506000811161239d5760405162461bcd60e51b815260206004820152602260248201527f4c697175696461746f723a20466c617368206c6f616e20756e617661696c616260448201527f6c650000000000000000000000000000000000000000000000000000000000006064820152608401610280565b60006123a8836129a5565b9050600081116123fa5760405162461bcd60e51b815260206004820152601f60248201527f4c697175696461746f723a204e6f2070726f66697420617661696c61626c65006044820152606401610280565b600083600001518460200151866040516020016124199392919061402d565b60405160208183030381529060405290508080519060200120600160006101000a8154817effffffffffffffffffffffffffffffffffffffffffffffffffffffffffffff021916908360081c021790555084600001516001600160a01b0316635cffe9de30866060015161248d8787612a2f565b856040518563ffffffff1660e01b81526004016124ad94939291906140c0565b6020604051808303816000875af11580156124cc573d6000803e3d6000fd5b505050506040513d601f19601f820116820180604052508101906124f09190613cc8565b50606084015185516040517f095ea7b30000000000000000000000000000000000000000000000000000000081526001600160a01b0391821660048201526000602482015291169063095ea7b3906044016020604051808303816000875af1158015612560573d6000803e3d6000fd5b505050506040513d601f19601f820116820180604052508101906125849190613cc8565b5060029250612591915050565b60005474010000000000000000000000000000000000000000900460ff1660028111156125c0576125c06138d0565b14612635576040805162461bcd60e51b81526020600482015260248101919091527f4c697175696461746f723a205265656e7472616e637920626c6f636b6564206f60448201527f7220666c617368206c6f616e207265636569766572206e6f742063616c6c65646064820152608401610280565b5050600080547fffffffffffffffffffffff00ffffffffffffffffffffffffffffffffffffffff169055565b60606000600483516126739190613d08565b67ffffffffffffffff81111561268b5761268b61390f565b6040519080825280601f01601f1916602001820160405280156126b5576020820181803683370190505b50905060005b815181101561273457836126d0826004613ca0565b815181106126e0576126e0613c71565b602001015160f81c60f81b8282815181106126fd576126fd613c71565b60200101907effffffffffffffffffffffffffffffffffffffffffffffffffffffffffffff1916908160001a9053506001016126bb565b50808060200190518101906117319190614156565b606061172e8484600085612a45565b61277c60405180606001604052806060815260200160608152602001606081525090565b6040517f4610bc230000000000000000000000000000000000000000000000000000000081526000906001600160a01b03861690634610bc23906127c790600290889060040161418b565b600060405180830381865afa1580156127e4573d6000803e3d6000fd5b505050506040513d6000823e601f3d908101601f1916820160405261280c91908101906141ed565b90506000856001600160a01b0316634610bc236001866040518363ffffffff1660e01b815260040161283f92919061418b565b600060405180830381865afa15801561285c573d6000803e3d6000fd5b505050506040513d6000823e601f3d908101601f1916820160405261288491908101906141ed565b60a0830151845260c0928301516020850152909101516040830152509392505050565b60008060096128b6878a613ca0565b6128c09190613ca0565b905060006128ce8487613ca0565b9050808210156128e0576128e06142e8565b876128eb8284613d08565b6128f690600a614437565b6129009087613bf0565b61290a9190613c36565b9998505050505050505050565b60408051600280825260608083018452926000929190602083019080368337019050509050838160008151811061295057612950613c71565b60200260200101906001600160a01b031690816001600160a01b031681525050828160018151811061298457612984613c71565b6001600160a01b039092166020928302919091019091015290505b92915050565b60008060018361018001515111806129c357506001836101a0015151115b90506000816129da576129d584612b39565b6129e3565b6129e384612d6d565b9050806000036129f7575060009392505050565b6000612a15612a0b83876101000151612ebc565b8660a00151612a2f565b9050612a2681866101800151612ec8565b95945050505050565b6000818310612a3e5781611731565b5090919050565b606082471015612abd5760405162461bcd60e51b815260206004820152602660248201527f416464726573733a20696e73756666696369656e742062616c616e636520666f60448201527f722063616c6c00000000000000000000000000000000000000000000000000006064820152608401610280565b600080866001600160a01b03168587604051612ad99190614443565b60006040518083038185875af1925050503d8060008114612b16576040519150601f19603f3d011682016040523d82523d6000602084013e612b1b565b606091505b5091509150612b2c87838387612f42565b925050505b949350505050565b600080826101800151600081518110612b5457612b54613c71565b60200260200101516000015190506000836101800151600081518110612b7c57612b7c613c71565b60200260200101516020015190506000846101a00151600081518110612ba457612ba4613c71565b60200260200101516000015190506000856101a00151600081518110612bcc57612bcc613c71565b6020026020010151602001519050816103e860036103e8612bed9190613d08565b612bf79087613bf0565b612c019190613c36565b612c0b9190613bf0565b9450612c1685612fbb565b94506000612c298488610100015161313e565b90506000836127108960c00151612c45858c6101400151613161565b612c4f9190613bf0565b612c599190613c36565b612c639190613bf0565b90506000836103e8612c76600382613d08565b6127108c60e00151612c8d888f6101600151613161565b612c979190613bf0565b612ca19190613c36565b612cab9190613bf0565b612cb59190613c36565b612cbf9190613bf0565b9050612cd3612cce8284613ca0565b612fbb565b612cdd9089613bf0565b975050505060008285612cf09190613bf0565b9050858110612d06575060009695505050505050565b612d108187613d08565b9550612d2090506103e886613bf0565b9450612d2f60036103e8613d08565b612d399086613c36565b9450612d458286613c36565b9450612d52858585613179565b9450612d638587610100015161313e565b9695505050505050565b600080612d838360a0015184610100015161313e565b9050600081815b6008811015612e4f576000613f34612710612da58686613d08565b612daf9190613bf0565b612db99190613c36565b612dc39084613d08565b90506000613f34612710612dd78787613d08565b612de19190613bf0565b612deb9190613c36565b612df59086613ca0565b90506064612e038286613d08565b11612e0f575050612e4f565b6000612e1b89846131d3565b90506000612e298a846131d3565b905080821115612e3b57829550612e3f565b8396505b505060019092019150612d8a9050565b5060006002612e5e8385613ca0565b612e689190613c36565b90506000612e7687866131d3565b90506000612e8488846131d3565b905080158015612e92575081155b15612ea557506000979650505050505050565b818111612eb0578592505b50909695505050505050565b60006117318284613bf0565b805182905b801561215c57612f2e8284612ee3600185613d08565b81518110612ef357612ef3613c71565b60200260200101516000015185600185612f0d9190613d08565b81518110612f1d57612f1d613c71565b60200260200101516020015161361d565b915080612f3a8161445f565b915050612ecd565b60608315612fb1578251600003612faa576001600160a01b0385163b612faa5760405162461bcd60e51b815260206004820152601d60248201527f416464726573733a2063616c6c20746f206e6f6e2d636f6e74726163740000006044820152606401610280565b5081612b31565b612b318383613673565b600081600003612fcd57506000919050565b8160017001000000000000000000000000000000008210612ff35760809190911c9060401b5b68010000000000000000821061300e5760409190911c9060201b5b64010000000082106130255760209190911c9060101b5b62010000821061303a5760109190911c9060081b5b610100821061304e5760089190911c9060041b5b601082106130615760049190911c9060021b5b6008821061306d5760011b5b600181858161307e5761307e613c07565b048201901c9050600181858161309657613096613c07565b048201901c905060018185816130ae576130ae613c07565b048201901c905060018185816130c6576130c6613c07565b048201901c905060018185816130de576130de613c07565b048201901c905060018185816130f6576130f6613c07565b048201901c9050600181858161310e5761310e613c07565b048201901c9050600081858161312657613126613c07565b0490508082106131365780612a26565b509392505050565b600081600161314d8286613ca0565b6131579190613d08565b6117319190613c36565b600061316f6009600a614437565b6131578385613bf0565b60008061318960036103e8613d08565b6131939086613bf0565b905060006131a18483613bf0565b90506000826131b26103e888613bf0565b6131bc9190613ca0565b90506131c88183613c36565b979650505050505050565b600080836101a001515167ffffffffffffffff8111156131f5576131f561390f565b60405190808252806020026020018201604052801561323a57816020015b60408051808201909152600080825260208201528152602001906001900390816132135790505b50905060005b846101a00151518110156132cc576040518060400160405280866101a00151838151811061327057613270613c71565b6020026020010151600001518152602001866101a00151838151811061329857613298613c71565b6020026020010151602001518152508282815181106132b9576132b9613c71565b6020908102919091010152600101613240565b5060006132de84866101000151612ebc565b610180860151519091505b80156135d7576000613337838861018001516001856133089190613d08565b8151811061331857613318613c71565b602002602001015160000151896101800151600186612f0d9190613d08565b905060015b876101e00151518110156135c257876101c00151838151811061336157613361613c71565b60200260200101516001600160a01b0316886101e001516001836133859190613d08565b8151811061339557613395613c71565b60200260200101516001600160a01b031614801561340a57506101c08801516133bf600185613d08565b815181106133cf576133cf613c71565b60200260200101516001600160a01b0316886101e0015182815181106133f7576133f7613c71565b60200260200101516001600160a01b0316145b1561348457838561341c600184613d08565b8151811061342c5761342c613c71565b60200260200101516000018181516134449190613d08565b9052508185613454600184613d08565b8151811061346457613464613c71565b602002602001015160200181815161347c9190613ca0565b9052506135ba565b6101c0880151613495600185613d08565b815181106134a5576134a5613c71565b60200260200101516001600160a01b0316886101e001516001836134c99190613d08565b815181106134d9576134d9613c71565b60200260200101516001600160a01b03161480156135445750876101c00151838151811061350957613509613c71565b60200260200101516001600160a01b0316886101e00151828151811061353157613531613c71565b60200260200101516001600160a01b0316145b156135ba578185613556600184613d08565b8151811061356657613566613c71565b602002602001015160000181815161357e9190613d08565b905250838561358e600184613d08565b8151811061359e5761359e613c71565b60200260200101516020018181516135b69190613ca0565b9052505b60010161333c565b509150806135cf8161445f565b9150506132e9565b506000806135e5878761369d565b9150915060006135f58286613701565b905060006136038285613ca0565b905084811161361357600061290a565b61290a8582613d08565b6000806103e861362d8686613bf0565b6136379190613bf0565b9050600061364860036103e8613d08565b6136528786613d08565b61365c9190613bf0565b90506136688183613c36565b612d63906001613ca0565b8151156136835781518083602001fd5b8060405162461bcd60e51b81526004016102809190613f3f565b6000806136cb6127108560c00151856136b69190613bf0565b6136c09190613c36565b856101400151613161565b91506136f86127108560e00151856136e39190613bf0565b6136ed9190613c36565b856101600151613161565b90509250929050565b8160005b825181101561215c576137538284838151811061372457613724613c71565b60200260200101516000015185848151811061374257613742613c71565b602002602001015160200151613179565b9150600101613705565b6001600160a01b038116811461066557600080fd5b60008060008060008060a0878903121561378b57600080fd5b86356137968161375d565b955060208701356137a68161375d565b94506040870135935060608701359250608087013567ffffffffffffffff808211156137d157600080fd5b818901915089601f8301126137e557600080fd5b8135818111156137f457600080fd5b8a602082850101111561380657600080fd5b6020830194508093505050509295509295509295565b60006020828403121561382e57600080fd5b81356117318161375d565b60008060006060848603121561384e57600080fd5b833592506020840135915060408401356138678161375d565b809150509250925092565b60008060006060848603121561388757600080fd5b83356138928161375d565b925060208401356138a28161375d565b9150604084013567ffffffffffffffff8111156138be57600080fd5b840160a0818703121561386757600080fd5b7f4e487b7100000000000000000000000000000000000000000000000000000000600052602160045260246000fd5b8183823760009101908152919050565b7f4e487b7100000000000000000000000000000000000000000000000000000000600052604160045260246000fd5b6040516060810167ffffffffffffffff811182821017156139615761396161390f565b60405290565b604051610140810167ffffffffffffffff811182821017156139615761396161390f565b604051601f8201601f1916810167ffffffffffffffff811182821017156139b4576139b461390f565b604052919050565b600067ffffffffffffffff8211156139d6576139d661390f565b5060051b60200190565b6000606082840312156139f257600080fd5b6139fa61393e565b9050813567ffffffffffffffff811115613a1357600080fd5b8201601f81018413613a2457600080fd5b80356020613a39613a34836139bc565b61398b565b82815260059290921b83018101918181019087841115613a5857600080fd5b938201935b83851015613a7f578435613a708161375d565b82529382019390820190613a5d565b808652505080850135818501525050506040820135604082015292915050565b600060a08284031215613ab157600080fd5b60405160a0810167ffffffffffffffff8282108183111715613ad557613ad561390f565b8160405282935084359150613ae98261375d565b8183526020850135602084015260408501359150613b068261375d565b8160408401526060850135915080821115613b2057600080fd5b613b2c868387016139e0565b60608401526080850135915080821115613b4557600080fd5b50613b52858286016139e0565b6080830152505092915050565b600080600060608486031215613b7457600080fd5b8335613b7f8161375d565b92506020840135613b8f8161375d565b9150604084013567ffffffffffffffff811115613bab57600080fd5b613bb786828701613a9f565b9150509250925092565b7f4e487b7100000000000000000000000000000000000000000000000000000000600052601160045260246000fd5b808202811582820484141761299f5761299f613bc1565b7f4e487b7100000000000000000000000000000000000000000000000000000000600052601260045260246000fd5b600082613c6c577f4e487b7100000000000000000000000000000000000000000000000000000000600052601260045260246000fd5b500490565b7f4e487b7100000000000000000000000000000000000000000000000000000000600052603260045260246000fd5b8082018082111561299f5761299f613bc1565b80518015158114613cc357600080fd5b919050565b600060208284031215613cda57600080fd5b61173182613cb3565b600060208284031215613cf557600080fd5b5051919050565b600061299f3683613a9f565b8181038181111561299f5761299f613bc1565b600080600060608486031215613d3057600080fd5b8351925060208401519150604084015190509250925092565b600060208284031215613d5b57600080fd5b81516117318161375d565b8051613cc38161375d565b805160ff81168114613cc357600080fd5b60008060408385031215613d9557600080fd5b613d9e83613d71565b9150602083015190509250929050565b600060a08201878352602087602085015260a0604085015281875180845260c08601915060208901935060005b81811015613e005784516001600160a01b031683529383019391830191600101613ddb565b50506001600160a01b03969096166060850152505050608001529392505050565b600082601f830112613e3257600080fd5b81516020613e42613a34836139bc565b8083825260208201915060208460051b870101935086841115613e6457600080fd5b602086015b84811015613e805780518352918301918301613e69565b509695505050505050565b60008060408385031215613e9e57600080fd5b825167ffffffffffffffff80821115613eb657600080fd5b613ec286838701613e21565b93506020850151915080821115613ed857600080fd5b50613ee585828601613e21565b9150509250929050565b60005b83811015613f0a578181015183820152602001613ef2565b50506000910152565b60008151808452613f2b816020860160208601613eef565b601f01601f19169290920160200192915050565b6020815260006117316020830184613f13565b600060208284031215613f6457600080fd5b815167ffffffffffffffff811115613f7b57600080fd5b612b3184828501613e21565b600060208284031215613f9957600080fd5b61173182613d71565b60008060408385031215613fb557600080fd5b505080516020909101519092909150565b805160608084528151908401819052600091602091908201906080860190845b8181101561400b5783516001600160a01b031683529284019291840191600101613fe6565b5050602085015160208701526040850151604087015280935050505092915050565b60006001600160a01b038086168352808516602084015260606040840152808451166060840152602084015160808401528060408501511660a084015250606083015160a060c0840152614085610100840182613fc6565b905060808401517fffffffffffffffffffffffffffffffffffffffffffffffffffffffffffffffa08483030160e0850152612b2c8282613fc6565b60006001600160a01b03808716835280861660208401525083604083015260806060830152612d636080830184613f13565b600082601f83011261410357600080fd5b815167ffffffffffffffff81111561411d5761411d61390f565b6141306020601f19601f8401160161398b565b81815284602083860101111561414557600080fd5b612b31826020830160208701613eef565b60006020828403121561416857600080fd5b815167ffffffffffffffff81111561417f57600080fd5b612b31848285016140f2565b60408101600384106141c6577f4e487b7100000000000000000000000000000000000000000000000000000000600052602160045260246000fd5b9281526001600160a01b039190911660209091015290565b805160038110613cc357600080fd5b6000602082840312156141ff57600080fd5b815167ffffffffffffffff8082111561421757600080fd5b90830190610140828603121561422c57600080fd5b614234613967565b61423d836141de565b815261424b60208401613d66565b6020820152604083015160408201526060830151606082015261427060808401613cb3565b608082015260a08301518281111561428757600080fd5b614293878286016140f2565b60a08301525060c0830151828111156142ab57600080fd5b6142b7878286016140f2565b60c08301525060e0838101519082015261010080840151908201526101209283015192810192909252509392505050565b7f4e487b7100000000000000000000000000000000000000000000000000000000600052600160045260246000fd5b600181815b8085111561437057817fffffffffffffffffffffffffffffffffffffffffffffffffffffffffffffffff0482111561435657614356613bc1565b8085161561436357918102915b93841c939080029061431c565b509250929050565b6000826143875750600161299f565b816143945750600061299f565b81600181146143aa57600281146143b4576143d0565b600191505061299f565b60ff8411156143c5576143c5613bc1565b50506001821b61299f565b5060208310610133831016604e8410600b84101617156143f3575081810a61299f565b6143fd8383614317565b807fffffffffffffffffffffffffffffffffffffffffffffffffffffffffffffffff0482111561442f5761442f613bc1565b029392505050565b60006117318383614378565b60008251614455818460208701613eef565b9190910192915050565b60008161446e5761446e613bc1565b507fffffffffffffffffffffffffffffffffffffffffffffffffffffffffffffffff019056fea164736f6c6343000817000a",
  "linkReferences": {},
  "deployedLinkReferences": {}
}