{
  "_format": "hh-sol-artifact-1",
  "contractName": "MintingFacet",
  "sourceName": "contracts/fasset/facets/MintingFacet.sol",
  "abi": [
    {
      "anonymous": false,
      "inputs": [
        {
          "indexed": true,
          "internalType": "address",
          "name": "agentVault",
          "type": "address"
        },
        {
          "indexed": true,
          "internalType": "address",
          "name": "minter",
          "type": "address"
        },
        {
          "indexed": true,
          "internalType": "uint256",
          "name": "collateralReservationId",
          "type": "uint256"
        },
        {
          "indexed": false,
          "internalType": "uint256",
          "name": "reservedAmountUBA",
          "type": "uint256"
        }
      ],
      "name": "CollateralReservationDeleted",
      "type": "event"
    },
    {
      "anonymous": false,
      "inputs": [
        {
          "indexed": true,
          "internalType": "address",
          "name": "agentVault",
          "type": "address"
        },
        {
          "indexed": true,
          "internalType": "address",
          "name": "minter",
          "type": "address"
        },
        {
          "indexed": true,
          "internalType": "uint256",
          "name": "collateralReservationId",
          "type": "uint256"
        },
        {
          "indexed": false,
          "internalType": "uint256",
          "name": "valueUBA",
          "type": "uint256"
        },
        {
          "indexed": false,
          "internalType": "uint256",
          "name": "feeUBA",
          "type": "uint256"
        },
        {
          "indexed": false,
          "internalType": "uint256",
          "name": "firstUnderlyingBlock",
          "type": "uint256"
        },
        {
          "indexed": false,
          "internalType": "uint256",
          "name": "lastUnderlyingBlock",
          "type": "uint256"
        },
        {
          "indexed": false,
          "internalType": "uint256",
          "name": "lastUnderlyingTimestamp",
          "type": "uint256"
        },
        {
          "indexed": false,
          "internalType": "string",
          "name": "paymentAddress",
          "type": "string"
        },
        {
          "indexed": false,
          "internalType": "bytes32",
          "name": "paymentReference",
          "type": "bytes32"
        },
        {
          "indexed": false,
          "internalType": "address",
          "name": "executor",
          "type": "address"
        },
        {
          "indexed": false,
          "internalType": "uint256",
          "name": "executorFeeNatWei",
          "type": "uint256"
        }
      ],
      "name": "CollateralReserved",
      "type": "event"
    },
    {
      "anonymous": false,
      "inputs": [
        {
          "indexed": true,
          "internalType": "address",
          "name": "agentVault",
          "type": "address"
        },
        {
          "indexed": false,
          "internalType": "uint256",
          "name": "dustUBA",
          "type": "uint256"
        }
      ],
      "name": "DustChanged",
      "type": "event"
    },
    {
      "anonymous": false,
      "inputs": [
        {
          "indexed": true,
          "internalType": "address",
          "name": "agentVault",
          "type": "address"
        },
        {
          "indexed": true,
          "internalType": "uint256",
          "name": "collateralReservationId",
          "type": "uint256"
        },
        {
          "indexed": false,
          "internalType": "uint256",
          "name": "mintedAmountUBA",
          "type": "uint256"
        },
        {
          "indexed": false,
          "internalType": "uint256",
          "name": "agentFeeUBA",
          "type": "uint256"
        },
        {
          "indexed": false,
          "internalType": "uint256",
          "name": "poolFeeUBA",
          "type": "uint256"
        }
      ],
      "name": "MintingExecuted",
      "type": "event"
    },
    {
      "anonymous": false,
      "inputs": [
        {
          "indexed": true,
          "internalType": "address",
          "name": "agentVault",
          "type": "address"
        },
        {
          "indexed": true,
          "internalType": "address",
          "name": "minter",
          "type": "address"
        },
        {
          "indexed": true,
          "internalType": "uint256",
          "name": "collateralReservationId",
          "type": "uint256"
        },
        {
          "indexed": false,
          "internalType": "uint256",
          "name": "reservedAmountUBA",
          "type": "uint256"
        }
      ],
      "name": "MintingPaymentDefault",
      "type": "event"
    },
    {
      "anonymous": false,
      "inputs": [
        {
          "indexed": true,
          "internalType": "address",
          "name": "agentVault",
          "type": "address"
        },
        {
          "indexed": true,
          "internalType": "uint256",
          "name": "redemptionTicketId",
          "type": "uint256"
        },
        {
          "indexed": false,
          "internalType": "uint256",
          "name": "ticketValueUBA",
          "type": "uint256"
        }
      ],
      "name": "RedemptionTicketCreated",
      "type": "event"
    },
    {
      "anonymous": false,
      "inputs": [
        {
          "indexed": true,
          "internalType": "address",
          "name": "agentVault",
          "type": "address"
        },
        {
          "indexed": false,
          "internalType": "int256",
          "name": "underlyingBalanceUBA",
          "type": "int256"
        }
      ],
      "name": "UnderlyingBalanceChanged",
      "type": "event"
    },
    {
      "inputs": [
        {
          "internalType": "uint256",
          "name": "_lots",
          "type": "uint256"
        }
      ],
      "name": "collateralReservationFee",
      "outputs": [
        {
          "internalType": "uint256",
          "name": "_reservationFeeNATWei",
          "type": "uint256"
        }
      ],
      "stateMutability": "view",
      "type": "function"
    },
    {
      "inputs": [
        {
          "components": [
            {
              "internalType": "bytes32[]",
              "name": "merkleProof",
              "type": "bytes32[]"
            },
            {
              "components": [
                {
                  "internalType": "bytes32",
                  "name": "attestationType",
                  "type": "bytes32"
                },
                {
                  "internalType": "bytes32",
                  "name": "sourceId",
                  "type": "bytes32"
                },
                {
                  "internalType": "uint64",
                  "name": "votingRound",
                  "type": "uint64"
                },
                {
                  "internalType": "uint64",
                  "name": "lowestUsedTimestamp",
                  "type": "uint64"
                },
                {
                  "components": [
                    {
                      "internalType": "bytes32",
                      "name": "transactionId",
                      "type": "bytes32"
                    },
                    {
                      "internalType": "uint256",
                      "name": "inUtxo",
                      "type": "uint256"
                    },
                    {
                      "internalType": "uint256",
                      "name": "utxo",
                      "type": "uint256"
                    }
                  ],
                  "internalType": "struct Payment.RequestBody",
                  "name": "requestBody",
                  "type": "tuple"
                },
                {
                  "components": [
                    {
                      "internalType": "uint64",
                      "name": "blockNumber",
                      "type": "uint64"
                    },
                    {
                      "internalType": "uint64",
                      "name": "blockTimestamp",
                      "type": "uint64"
                    },
                    {
                      "internalType": "bytes32",
                      "name": "sourceAddressHash",
                      "type": "bytes32"
                    },
                    {
                      "internalType": "bytes32",
                      "name": "receivingAddressHash",
                      "type": "bytes32"
                    },
                    {
                      "internalType": "bytes32",
                      "name": "intendedReceivingAddressHash",
                      "type": "bytes32"
                    },
                    {
                      "internalType": "int256",
                      "name": "spentAmount",
                      "type": "int256"
                    },
                    {
                      "internalType": "int256",
                      "name": "intendedSpentAmount",
                      "type": "int256"
                    },
                    {
                      "internalType": "int256",
                      "name": "receivedAmount",
                      "type": "int256"
                    },
                    {
                      "internalType": "int256",
                      "name": "intendedReceivedAmount",
                      "type": "int256"
                    },
                    {
                      "internalType": "bytes32",
                      "name": "standardPaymentReference",
                      "type": "bytes32"
                    },
                    {
                      "internalType": "bool",
                      "name": "oneToOne",
                      "type": "bool"
                    },
                    {
                      "internalType": "uint8",
                      "name": "status",
                      "type": "uint8"
                    }
                  ],
                  "internalType": "struct Payment.ResponseBody",
                  "name": "responseBody",
                  "type": "tuple"
                }
              ],
              "internalType": "struct Payment.Response",
              "name": "data",
              "type": "tuple"
            }
          ],
          "internalType": "struct Payment.Proof",
          "name": "_payment",
          "type": "tuple"
        },
        {
          "internalType": "uint256",
          "name": "_collateralReservationId",
          "type": "uint256"
        }
      ],
      "name": "executeMinting",
      "outputs": [],
      "stateMutability": "nonpayable",
      "type": "function"
    },
    {
      "inputs": [
        {
          "components": [
            {
              "internalType": "bytes32[]",
              "name": "merkleProof",
              "type": "bytes32[]"
            },
            {
              "components": [
                {
                  "internalType": "bytes32",
                  "name": "attestationType",
                  "type": "bytes32"
                },
                {
                  "internalType": "bytes32",
                  "name": "sourceId",
                  "type": "bytes32"
                },
                {
                  "internalType": "uint64",
                  "name": "votingRound",
                  "type": "uint64"
                },
                {
                  "internalType": "uint64",
                  "name": "lowestUsedTimestamp",
                  "type": "uint64"
                },
                {
                  "components": [
                    {
                      "internalType": "uint64",
                      "name": "minimalBlockNumber",
                      "type": "uint64"
                    },
                    {
                      "internalType": "uint64",
                      "name": "deadlineBlockNumber",
                      "type": "uint64"
                    },
                    {
                      "internalType": "uint64",
                      "name": "deadlineTimestamp",
                      "type": "uint64"
                    },
                    {
                      "internalType": "bytes32",
                      "name": "destinationAddressHash",
                      "type": "bytes32"
                    },
                    {
                      "internalType": "uint256",
                      "name": "amount",
                      "type": "uint256"
                    },
                    {
                      "internalType": "bytes32",
                      "name": "standardPaymentReference",
                      "type": "bytes32"
                    }
                  ],
                  "internalType": "struct ReferencedPaymentNonexistence.RequestBody",
                  "name": "requestBody",
                  "type": "tuple"
                },
                {
                  "components": [
                    {
                      "internalType": "uint64",
                      "name": "minimalBlockTimestamp",
                      "type": "uint64"
                    },
                    {
                      "internalType": "uint64",
                      "name": "firstOverflowBlockNumber",
                      "type": "uint64"
                    },
                    {
                      "internalType": "uint64",
                      "name": "firstOverflowBlockTimestamp",
                      "type": "uint64"
                    }
                  ],
                  "internalType": "struct ReferencedPaymentNonexistence.ResponseBody",
                  "name": "responseBody",
                  "type": "tuple"
                }
              ],
              "internalType": "struct ReferencedPaymentNonexistence.Response",
              "name": "data",
              "type": "tuple"
            }
          ],
          "internalType": "struct ReferencedPaymentNonexistence.Proof",
          "name": "_proof",
          "type": "tuple"
        },
        {
          "internalType": "uint256",
          "name": "_collateralReservationId",
          "type": "uint256"
        }
      ],
      "name": "mintingPaymentDefault",
      "outputs": [],
      "stateMutability": "nonpayable",
      "type": "function"
    },
    {
      "inputs": [
        {
          "internalType": "address",
          "name": "_agentVault",
          "type": "address"
        },
        {
          "internalType": "uint256",
          "name": "_lots",
          "type": "uint256"
        },
        {
          "internalType": "uint256",
          "name": "_maxMintingFeeBIPS",
          "type": "uint256"
        },
        {
          "internalType": "address payable",
          "name": "_executor",
          "type": "address"
        }
      ],
      "name": "reserveCollateral",
      "outputs": [],
      "stateMutability": "payable",
      "type": "function"
    },
    {
      "inputs": [
        {
          "components": [
            {
              "internalType": "bytes32[]",
              "name": "merkleProof",
              "type": "bytes32[]"
            },
            {
              "components": [
                {
                  "internalType": "bytes32",
                  "name": "attestationType",
                  "type": "bytes32"
                },
                {
                  "internalType": "bytes32",
                  "name": "sourceId",
                  "type": "bytes32"
                },
                {
                  "internalType": "uint64",
                  "name": "votingRound",
                  "type": "uint64"
                },
                {
                  "internalType": "uint64",
                  "name": "lowestUsedTimestamp",
                  "type": "uint64"
                },
                {
                  "components": [
                    {
                      "internalType": "bytes32",
                      "name": "transactionId",
                      "type": "bytes32"
                    },
                    {
                      "internalType": "uint256",
                      "name": "inUtxo",
                      "type": "uint256"
                    },
                    {
                      "internalType": "uint256",
                      "name": "utxo",
                      "type": "uint256"
                    }
                  ],
                  "internalType": "struct Payment.RequestBody",
                  "name": "requestBody",
                  "type": "tuple"
                },
                {
                  "components": [
                    {
                      "internalType": "uint64",
                      "name": "blockNumber",
                      "type": "uint64"
                    },
                    {
                      "internalType": "uint64",
                      "name": "blockTimestamp",
                      "type": "uint64"
                    },
                    {
                      "internalType": "bytes32",
                      "name": "sourceAddressHash",
                      "type": "bytes32"
                    },
                    {
                      "internalType": "bytes32",
                      "name": "receivingAddressHash",
                      "type": "bytes32"
                    },
                    {
                      "internalType": "bytes32",
                      "name": "intendedReceivingAddressHash",
                      "type": "bytes32"
                    },
                    {
                      "internalType": "int256",
                      "name": "spentAmount",
                      "type": "int256"
                    },
                    {
                      "internalType": "int256",
                      "name": "intendedSpentAmount",
                      "type": "int256"
                    },
                    {
                      "internalType": "int256",
                      "name": "receivedAmount",
                      "type": "int256"
                    },
                    {
                      "internalType": "int256",
                      "name": "intendedReceivedAmount",
                      "type": "int256"
                    },
                    {
                      "internalType": "bytes32",
                      "name": "standardPaymentReference",
                      "type": "bytes32"
                    },
                    {
                      "internalType": "bool",
                      "name": "oneToOne",
                      "type": "bool"
                    },
                    {
                      "internalType": "uint8",
                      "name": "status",
                      "type": "uint8"
                    }
                  ],
                  "internalType": "struct Payment.ResponseBody",
                  "name": "responseBody",
                  "type": "tuple"
                }
              ],
              "internalType": "struct Payment.Response",
              "name": "data",
              "type": "tuple"
            }
          ],
          "internalType": "struct Payment.Proof",
          "name": "_payment",
          "type": "tuple"
        },
        {
          "internalType": "address",
          "name": "_agentVault",
          "type": "address"
        },
        {
          "internalType": "uint256",
          "name": "_lots",
          "type": "uint256"
        }
      ],
      "name": "selfMint",
      "outputs": [],
      "stateMutability": "nonpayable",
      "type": "function"
    },
    {
      "inputs": [
        {
          "components": [
            {
              "internalType": "bytes32[]",
              "name": "merkleProof",
              "type": "bytes32[]"
            },
            {
              "components": [
                {
                  "internalType": "bytes32",
                  "name": "attestationType",
                  "type": "bytes32"
                },
                {
                  "internalType": "bytes32",
                  "name": "sourceId",
                  "type": "bytes32"
                },
                {
                  "internalType": "uint64",
                  "name": "votingRound",
                  "type": "uint64"
                },
                {
                  "internalType": "uint64",
                  "name": "lowestUsedTimestamp",
                  "type": "uint64"
                },
                {
                  "components": [
                    {
                      "internalType": "uint64",
                      "name": "blockNumber",
                      "type": "uint64"
                    },
                    {
                      "internalType": "uint64",
                      "name": "queryWindow",
                      "type": "uint64"
                    }
                  ],
                  "internalType": "struct ConfirmedBlockHeightExists.RequestBody",
                  "name": "requestBody",
                  "type": "tuple"
                },
                {
                  "components": [
                    {
                      "internalType": "uint64",
                      "name": "blockTimestamp",
                      "type": "uint64"
                    },
                    {
                      "internalType": "uint64",
                      "name": "numberOfConfirmations",
                      "type": "uint64"
                    },
                    {
                      "internalType": "uint64",
                      "name": "lowestQueryWindowBlockNumber",
                      "type": "uint64"
                    },
                    {
                      "internalType": "uint64",
                      "name": "lowestQueryWindowBlockTimestamp",
                      "type": "uint64"
                    }
                  ],
                  "internalType": "struct ConfirmedBlockHeightExists.ResponseBody",
                  "name": "responseBody",
                  "type": "tuple"
                }
              ],
              "internalType": "struct ConfirmedBlockHeightExists.Response",
              "name": "data",
              "type": "tuple"
            }
          ],
          "internalType": "struct ConfirmedBlockHeightExists.Proof",
          "name": "_proof",
          "type": "tuple"
        },
        {
          "internalType": "uint256",
          "name": "_collateralReservationId",
          "type": "uint256"
        }
      ],
      "name": "unstickMinting",
      "outputs": [],
      "stateMutability": "payable",
      "type": "function"
    }
  ],
  "bytecode": "0x608060405234801561001057600080fd5b50614e1f806100206000396000f3fe6080604052600436106100555760003560e01c80630c3cdae71461005a578063275a7bfc1461007c578063368a35931461008f57806384807e8d146100c15780638541cc05146100d4578063f056af42146100f4575b600080fd5b34801561006657600080fd5b5061007a610075366004614249565b610114565b005b61007a61008a3660046142a8565b61012a565b34801561009b57600080fd5b506100af6100aa3660046142f2565b61015d565b60405190815260200160405180910390f35b61007a6100cf36600461430b565b610176565b3480156100e057600080fd5b5061007a6100ef36600461435a565b6101b9565b34801561010057600080fd5b5061007a61010f3660046143b3565b61020a565b6101268261012183610224565b610295565b5050565b6101326106a8565b61013a610711565b610157338561014886610224565b61015186610224565b856107e0565b50505050565b600061017061016b83610224565b610e24565b92915050565b61017e610e85565b6101908261018b83610224565b610efe565b61012660017f0cd2207518cd3e5213e2c6dbe63d55b60aa893c194a427b7d7f1600408fd5bde55565b6101c16106a8565b6101c9610e85565b6101dc83836101d784610224565b61114e565b61020560017f0cd2207518cd3e5213e2c6dbe63d55b60aa893c194a427b7d7f1600408fd5bde55565b505050565b610212610e85565b6101908261021f83610224565b611547565b60006001600160401b038211156102915760405162461bcd60e51b815260206004820152602660248201527f53616665436173743a2076616c756520646f65736e27742066697420696e203660448201526534206269747360d01b60648201526084015b60405180910390fd5b5090565b60006102a0826118a5565b60028101549091506000906102bd906001600160a01b0316611946565b90506102c8816119ed565b6102d184611a3c565b81546000906102e8906001600160401b0316611b31565b905067464250526641000160c01b6001600160401b0385161761014086013514801561031c57506003820154610100860135145b80156103435750600183015461033b906001600160801b03168261440d565b610120860135145b61038f5760405162461bcd60e51b815260206004820152601c60248201527f6d696e74696e67206e6f6e2d7061796d656e74206d69736d61746368000000006044820152606401610288565b8254600160801b90046001600160401b03166103b36101a087016101808801614437565b6001600160401b03161180156103f357508254600160c01b90046001600160401b03166103e86101c087016101a08801614437565b6001600160401b0316115b61043f5760405162461bcd60e51b815260206004820152601960248201527f6d696e74696e672064656661756c7420746f6f206561726c79000000000000006044820152606401610288565b8254600160401b90046001600160401b031661046160c0870160a08801614437565b6001600160401b031611156104cb5760405162461bcd60e51b815260206004820152602a60248201527f6d696e74696e67206e6f6e2d7061796d656e742070726f6f662077696e646f77604482015269081d1bdbc81cda1bdc9d60b21b6064820152608401610288565b60018301546000906104e79084906001600160801b0316611b69565b6104f1908361440d565b600385015460028601546040518381529293506001600160401b038816926001600160a01b0392831692909116907f9bcf1e111381daaf8ec9ce1420115fc2bb960d5dd94b1e871256cb2e6cbd5aa09060200160405180910390a4600484015460009061057390633b9aca0090600160a01b90046001600160401b0316614452565b60018601546105929190600160801b90046001600160801b031661440d565b60048501549091506000906105b3908390600160581b900461ffff16611b90565b8554604080516368dc448760e11b815290519293506001600160a01b039091169163d1b8890e918491600480830192600092919082900301818588803b1580156105fc57600080fd5b505af1158015610610573d6000803e3d6000fd5b5050505060028701546001600160a01b0316905063677fa2326106338385614469565b61063b611b9f565b6040516001600160e01b031960e085901b1681526001600160a01b0390911660048201526024016000604051808303818588803b15801561067b57600080fd5b505af115801561068f573d6000803e3d6000fd5b505050505061069e8688611c0c565b5050505050505050565b7fec7e8c1c441439dd40959777f4c577ea0cd42fcc1dbe59d2bd0f5d9c55df8dc654600160401b900460ff1661070f5760405162461bcd60e51b815260206004820152600c60248201526b1b9bdd08185d1d1858da195960a21b6044820152606401610288565b565b600061071b611d61565b60068101549091506001600160a01b0316156107dd576006810154604051633af32abf60e01b81523360048201526001600160a01b0390911690633af32abf90602401602060405180830381865afa15801561077b573d6000803e3d6000fd5b505050506040513d601f19601f8201168201806040525081019061079f919061448a565b6107dd5760405162461bcd60e51b815260206004820152600f60248201526e1b9bdd081dda1a5d195b1a5cdd1959608a1b6044820152606401610288565b50565b60006107eb85611946565b90506107f681611d85565b600061080182611d9c565b7fec7e8c1c441439dd40959777f4c577ea0cd42fcc1dbe59d2bd0f5d9c55df8dc654909150600080516020614dca833981519152906001600160401b03161561087d5760405162461bcd60e51b815260206004820152600e60248201526d1b5a5b9d1a5b99c81c185d5cd95960921b6044820152606401610288565b600483015465010000000000900463ffffffff166000036108e05760405162461bcd60e51b815260206004820152601760248201527f6167656e74206e6f7420696e206d696e742071756575650000000000000000006044820152606401610288565b6000866001600160401b03161161092e5760405162461bcd60e51b815260206004820152601260248201527163616e6e6f74206d696e742030206c6f747360701b6044820152606401610288565b600160048085015460ff1690811115610949576109496144a7565b146109965760405162461bcd60e51b815260206004820152601860248201527f72633a20696e76616c6964206167656e742073746174757300000000000000006044820152606401610288565b6001600160401b0386166109aa8385611e46565b10156109f85760405162461bcd60e51b815260206004820152601a60248201527f6e6f7420656e6f756768206672656520636f6c6c61746572616c0000000000006044820152606401610288565b6004830154600160481b900461ffff166001600160401b0386161015610a575760405162461bcd60e51b81526020600482015260146024820152730c2cecadce84ee640cccaca40e8dede40d0d2ced60631b6044820152606401610288565b6000610a61611d61565b600d0154610a78906001600160401b0316886144bd565b90506000610a8582611b31565b6004860154909150600090610aa6908390600160481b900461ffff16611b90565b9050610ab3868483611e9a565b6000610ac786602001516040015185611f56565b905080341015610b195760405162461bcd60e51b815260206004820152601860248201527f696e617070726f7072696174652066656520616d6f756e7400000000000000006044820152606401610288565b600080610b24611f97565b91509150610b30612050565b600e88018054600090610b4d9084906001600160401b03166144e8565b82546001600160401b0391821661010093840a9081029083021990911617909255600e8a01546040805161014081018252600060208201819052918101829052606081018290526080810182905260a0810182905260c0810182905260e0810182905292830181905261012083015289831682529091169150610bcf8661206e565b6001600160801b03166080820152610be68561206e565b8160a001906001600160801b031690816001600160801b0316815250508e8160c001906001600160a01b031690816001600160a01b0316815250508f8160e001906001600160a01b031690816001600160a01b03168152505088600f0160029054906101000a90046001600160401b031681602001906001600160401b031690816001600160401b0316815250508381604001906001600160401b031690816001600160401b0316815250508281606001906001600160401b031690816001600160401b0316815250508b8161010001906001600160a01b031690816001600160a01b031681525050610cf2633b9aca008634610ce39190614469565b610ced9190614525565b610224565b6001600160401b039081166101208301908152838216600090815260068c01602090815260409182902085518154928701519387015160608801518716600160c01b026001600160c01b03918816600160801b908102929092166001600160801b03968916600160401b026fffffffffffffffffffffffffffffffff199096169389169390931794909417851691909117929092178155608086015160a087015184169092029190921617600182015560c08401516002820180546001600160a01b039283166001600160a01b03199182161790915560e086015160038401805491841691909216179055610100850151600490920180549351909416600160a01b026001600160e01b0319909316911617179055610e128b8284612097565b50505050505050505050505050505050565b6000600080516020614dca83398151915281610e3e611d61565b600f830154909150600090610e569061ffff16612164565b600d830154909150610e7c908290610e77906001600160401b0316886144bd565b611f56565b95945050505050565b7f0cd2207518cd3e5213e2c6dbe63d55b60aa893c194a427b7d7f1600408fd5bde805460011901610ef85760405162461bcd60e51b815260206004820152601f60248201527f5265656e7472616e637947756172643a207265656e7472616e742063616c6c006044820152606401610288565b60029055565b6000610f08611d61565b90506000610f15836118a5565b6002810154909150600090610f32906001600160a01b0316611946565b9050610f3d816119ed565b610f46856121af565b8154600160801b90046001600160401b0316610f6a61014087016101208801614437565b6001600160401b0316118015610faa57508154600160c01b90046001600160401b0316610f9f61016087016101408801614437565b6001600160401b0316115b80156110045750610fc2610100860160e08701614437565b60118401546001600160401b0391821691600160401b90910416610fee61016088016101408901614437565b610ff891906144e8565b6001600160401b031611155b6110505760405162461bcd60e51b815260206004820152601a60248201527f63616e6e6f7420756e737469636b206d696e74696e67207965740000000000006044820152606401610288565b600182015461106e90600160801b90046001600160801b03166122ab565b600481015460009061108890610100900461ffff16612164565b83549091506000906110a3906001600160401b0316836122f2565b90506110af838261230c565b60018401546000906110cb9085906001600160801b0316611b69565b85546110df906001600160401b0316611b31565b6110e9919061440d565b600386015460028701546040518381529293506001600160401b038a16926001600160a01b0392831692909116907f8989bc1e07f872f783e99c06825dfe6c20f9ca1bc2501de1e931a5872f0e88149060200160405180910390a461069e8588611c0c565b600080516020614dca833981519152600061116884611946565b9050611173816119ed565b61117c81611d85565b600061118782611d9c565b9050611192866124e9565b60108301546001600160401b0316156111de5760405162461bcd60e51b815260206004820152600e60248201526d1b5a5b9d1a5b99c81c185d5cd95960921b6044820152606401610288565b600160048084015460ff16908111156111f9576111f96144a7565b146112465760405162461bcd60e51b815260206004820152601e60248201527f73656c662d6d696e7420696e76616c6964206167656e742073746174757300006044820152606401610288565b6001600160401b03841661125a8284611e46565b10156112a85760405162461bcd60e51b815260206004820152601a60248201527f6e6f7420656e6f756768206672656520636f6c6c61746572616c0000000000006044820152606401610288565b60006112b2611d61565b600d01546112c9906001600160401b0316866144bd565b90506112d481612547565b60006112df82611b31565b600485015490915060009061130b908690611306908590600160481b900461ffff16611b90565b611b69565b905067232128293320800960c11b6001600160a01b038916176102208a0135146113775760405162461bcd60e51b815260206004820152601b60248201527f696e76616c69642073656c662d6d696e74207265666572656e636500000000006044820152606401610288565b60038501546101608a0135146113cf5760405162461bcd60e51b815260206004820152601d60248201527f73656c662d6d696e74206e6f74206167656e74277320616464726573730000006044820152606401610288565b6113e16113dc828461440d565b612689565b6101e08a013512156114355760405162461bcd60e51b815260206004820152601b60248201527f73656c662d6d696e74207061796d656e7420746f6f20736d616c6c00000000006044820152606401610288565b600a8501546001600160401b03166114556101208b016101008c01614437565b6001600160401b031610156114ac5760405162461bcd60e51b815260206004820152601960248201527f73656c662d6d696e74207061796d656e7420746f6f206f6c64000000000000006044820152606401610288565b6114b9600b87018a6126f3565b6101e08901356001600160401b038816156114e2576114dd86600033878587612701565b61153b565b6114ec8682612986565b604080516000808252602082018490529181018290526001600160a01b038b16907f0d418f2ae12260f9d0ceacf72b08fcc4b05560719443f40d3761ee90da0d8fa59060600160405180910390a35b50505050505050505050565b6000611552826118a5565b600281015490915060009061156f906001600160a01b0316611946565b905061157a846124e9565b60038201546001600160a01b03163314806115a1575060048201546001600160a01b031633145b806115b157506115b18133612a38565b6115fd5760405162461bcd60e51b815260206004820152601e60248201527f6f6e6c79206d696e7465722c206578656375746f72206f72206167656e7400006044820152606401610288565b67464250526641000160c01b6001600160401b03841617610220850135146116675760405162461bcd60e51b815260206004820152601960248201527f696e76616c6964206d696e74696e67207265666572656e6365000000000000006044820152606401610288565b6003810154610160850135146116bf5760405162461bcd60e51b815260206004820152601b60248201527f6e6f74206d696e74696e67206167656e742773206164647265737300000000006044820152606401610288565b81546000906116d6906001600160401b0316611b31565b60018401549091506116f5906113dc906001600160801b03168361440d565b6101e086013512156117495760405162461bcd60e51b815260206004820152601960248201527f6d696e74696e67207061796d656e7420746f6f20736d616c6c000000000000006044820152606401610288565b8254600160401b90046001600160401b031661176d61012087016101008801614437565b6001600160401b031610156117c45760405162461bcd60e51b815260206004820152601760248201527f6d696e74696e67207061796d656e7420746f6f206f6c640000000000000000006044820152606401610288565b60038301548354600185015461181092859288926001600160a01b03909216916001600160401b03909116906101e08b01359061180b9086906001600160801b0316611b69565b612701565b600483015460009061183790633b9aca0090600160a01b90046001600160401b0316614452565b60048501549091506001600160a01b0316330361186a576004840154611866906001600160a01b031682612ae7565b5060005b60018401546118939061188e908390600160801b90046001600160801b031661440d565b6122ab565b61189d8486611c0c565b505050505050565b6000600080516020614dca8339815191526001600160401b038316158015906118e957506001600160401b0380841660009081526006830160205260409020541615155b6119265760405162461bcd60e51b815260206004820152600e60248201526d1a5b9d985b1a590818dc9d081a5960921b6044820152606401610288565b6001600160401b0390921660009081526006909201602052506040902090565b7f5bebac0595fee029d42bb673937f5f1cb81cf8641382bc17774635de9b7d796568010000000000000000600160e01b03604083901b161880600060048084015460ff169081111561199a5761199a6144a7565b036119e75760405162461bcd60e51b815260206004820152601b60248201527f696e76616c6964206167656e74207661756c74206164647265737300000000006044820152606401610288565b50919050565b6119f78133612a38565b6107dd5760405162461bcd60e51b815260206004820152601660248201527537b7363c9030b3b2b73a103b30bab63a1037bbb732b960511b6044820152606401610288565b6000611a46611d61565b6008810154600b8201549192506001600160a01b031690604084013514611a7f5760405162461bcd60e51b815260040161028890614539565b6040516317c963db60e31b81526001600160a01b0382169063be4b1ed890611aab90869060040161461a565b602060405180830381865afa158015611ac8573d6000803e3d6000fd5b505050506040513d601f19601f82011682018060405250810190611aec919061448a565b6102055760405162461bcd60e51b81526020600482015260166024820152751b9bdb8b5c185e5b595b9d081b9bdd081c1c9bdd995960521b6044820152606401610288565b600080611b3c611d61565b600c810154909150611b62906001600160401b03600160901b9091048116908516614452565b9392505050565b6004820154600090611b6290611b8b908490600160581b900461ffff16611b90565b612b82565b6000611b628383612710612bb9565b7fec7e8c1c441439dd40959777f4c577ea0cd42fcc1dbe59d2bd0f5d9c55df8dc554600080516020614dca8339815191528054600092829161ffff909116908110611bec57611bec614705565b60009182526020909120600490910201546001600160a01b031692915050565b6002820154600080516020614dca83398151915290600090611c36906001600160a01b0316611946565b84546001860154919250600091611c639184916001600160401b03909116906001600160801b0316612cdf565b600583015460408051808201909152601381527234b73b30b634b2103932b9b2b93b30ba34b7b760691b6020820152919250611cac916001600160401b03909116908390612d14565b60058301805467ffffffffffffffff19166001600160401b03928316179055600e840180548392601891611ce9918591600160c01b90041661471b565b82546101009290920a6001600160401b0381810219909316918316021790915594909416600090815260069390930160205250506040812081815560018101919091556002810180546001600160a01b0319908116909155600382018054909116905560040180546001600160e01b03191690555050565b7f4f24f5c433db0962dac0d2c8b84197a6e6c7cc4e5d9ebe1916a1b6193da2f33a90565b60018101546107dd906001600160a01b0316612d5f565b611e076040805160c081019091526000606082018181526080830182905260a083019190915281908152604080516060810182526000808252602082810182905292820152910190815260408051606081018252600080825260208281018290529282015291015290565b6000611e1283612e17565b90506040518060600160405280611e2885612edd565b8152602001828152602001611e3d8584612f6a565b90529392505050565b600080611e57846000015184613136565b90506000611e69856020015185613136565b90506000611e7b866040015186613136565b9050611e9083611e8b848461316c565b61316c565b9695505050505050565b600080516020614dca8339815191526000611eb6858585612cdf565b9050611ec181612547565b600585018054829190600090611ee19084906001600160401b03166144e8565b92506101000a8154816001600160401b0302191690836001600160401b031602179055508082600e0160188282829054906101000a90046001600160401b0316611f2b91906144e8565b92506101000a8154816001600160401b0302191690836001600160401b031602179055505050505050565b600080611f6c836001600160401b0316856122f2565b9050611f8f611f79611d61565b600c01548290600160401b900461ffff16611b90565b949350505050565b600080600080516020614dca83398151915281611fb2611d61565b600f830154909150600090600160901b90046001600160401b0316611fd642610224565b611fe0919061471b565b600d830154600f850154919250612011916001600160401b03600160981b90920482169162010000909104166144e8565b600e830154600f8501549196506001600160401b039081169161203d918491600160501b9004166144e8565b61204791906144e8565b93505050509091565b600061205e6103e84361473b565b61206990600161440d565b905090565b60006001600160801b038211156102915760405162461bcd60e51b81526004016102889061474f565b806001600160401b03168260e001516001600160a01b03166120b885613182565b6001600160a01b03167f7e28eb3b9a2077a4fa0559357b1647ec5eabf18d7adf1539c4e8fb1445a5fc096120ef8660000151611b31565b60808701516020880151604089015160608a015160028c0167464250526641000160c01b6001600160401b038c16178c6101000151633b9aca008e61012001516001600160401b03166121429190614452565b604051612157999897969594939291906147ca565b60405180910390a4505050565b600080600080516020614dca83398151915290506121a581600001848154811061219057612190614705565b906000526020600020906004020160006131aa565b5090949350505050565b60006121b9611d61565b6008810154600b8201549192506001600160a01b0316906040840135146121f25760405162461bcd60e51b815260040161028890614539565b604051635e30ebfb60e01b81526001600160a01b03821690635e30ebfb9061221e9086906004016148de565b602060405180830381865afa15801561223b573d6000803e3d6000fd5b505050506040513d601f19601f8201168201806040525081019061225f919061448a565b6102055760405162461bcd60e51b815260206004820152601760248201527f626c6f636b20686569676874206e6f742070726f7665640000000000000000006044820152606401610288565b60006122b5611d61565b60098101546040519192506001600160a01b03169083156108fc029084906000818181858888f19350505050158015610205573d6000803e3d6000fd5b6000611b62826123046009600a614abc565b859190612bb9565b600061231783613369565b90506000612324846133b6565b805483549192506001600160a01b0390811691160361234c5761234784846133ef565b610157565b6000612356611d61565b9050600061236386613182565b601283015490915060009061239090600160801b900463ffffffff1661238a888888613487565b90611b90565b8554600189015460405163083e007560e21b81526001600160a01b0392831660048201529082166024820152604481018990529192508316906320f801d490606401600060405180830381600087803b1580156123ec57600080fd5b505af1158015612400573d6000803e3d6000fd5b50505050803410156124545760405162461bcd60e51b815260206004820152601960248201527f6e6f7420656e6f7567682066756e64732070726f7669646564000000000000006044820152606401610288565b61245d816122ab565b803411156124e0576001600160a01b03821663677fa23261247e8334614469565b612486611b9f565b6040516001600160e01b031960e085901b1681526001600160a01b0390911660048201526024016000604051808303818588803b1580156124c657600080fd5b505af11580156124da573d6000803e3d6000fd5b50505050505b50505050505050565b60006124fd61028083016102608401614ad9565b60ff161461253e5760405162461bcd60e51b815260206004820152600e60248201526d1c185e5b595b9d0819985a5b195960921b6044820152606401610288565b6107dd816134ad565b600080516020614dca8339815191526000612560611d61565b600d810154909150600160581b90046001600160401b031660008190036125875750505050565b6001820154604080516318160ddd60e01b815290516000926001600160a01b0316916318160ddd9160048083019260209291908290030181865afa1580156125d3573d6000803e3d6000fd5b505050506040513d601f19601f820116820180604052508101906125f79190614af4565b9050600061260482613618565b600e8601546126239190600160c01b90046001600160401b03166144e8565b6001600160401b0316905082866001600160401b031682612644919061440d565b111561189d5760405162461bcd60e51b81526020600482015260146024820152731b5a5b9d1a5b99c818d85c08195e18d95959195960621b6044820152606401610288565b60006001600160ff1b038211156102915760405162461bcd60e51b815260206004820152602860248201527f53616665436173743a2076616c756520646f65736e27742066697420696e2061604482015267371034b73a191a9b60c11b6064820152608401610288565b6101268260a0830135613649565b600061270b611d61565b9050600061271883613618565b60068901549091506000906127379083906001600160401b03166144e8565b600d84015490915086906001600160401b039081169083161061278b57600d84015460009061276f906001600160401b031684614b0d565b905061277b818461471b565b61278590836144e8565b90925090505b61279e8a612799858a6144e8565b613715565b6127a88a82613761565b6127b28a836137f1565b6127bc8a87612986565b60006127c788611b31565b90506000866127d6838a614469565b6127e09190614469565b90506127ea613887565b6040516340c10f1960e01b81526001600160a01b038c811660048301526024820185905291909116906340c10f1990604401600060405180830381600087803b15801561283657600080fd5b505af115801561284a573d6000803e3d6000fd5b50505050612856613887565b8c546040516340c10f1960e01b81526001600160a01b039182166004820152602481018a90529116906340c10f1990604401600060405180830381600087803b1580156128a257600080fd5b505af11580156128b6573d6000803e3d6000fd5b50508d5460405163542a535160e11b8152600481018b90526001600160a01b03909116925063a854a6a29150602401600060405180830381600087803b1580156128ff57600080fd5b505af1158015612913573d6000803e3d6000fd5b505050508a6001600160401b031661292a8d613182565b60408051858152602081018590529081018a90526001600160a01b0391909116907f0d418f2ae12260f9d0ceacf72b08fcc4b05560719443f40d3761ee90da0d8fa59060600160405180910390a3505050505050505050505050565b61299761299282612689565b6138a5565b6006830180546008906129b5908490600160401b9004600f0b614b33565b92506101000a8154816001600160801b030219169083600f0b6001600160801b031602179055506129e582613182565b6006830154604051600160401b909104600f0b81526001600160a01b0391909116907f73da6891cb86668451f612d2555e88650888a0133a30b1d226b2d1f955e62bca9060200160405180910390a25050565b60018201546000906001600160a01b03908116908316811480611f8f5750612a5e6138ce565b604051631f86345d60e31b81526001600160a01b038381166004830152919091169063fc31a2e890602401602060405180830381865afa158015612aa6573d6000803e3d6000fd5b505050506040513d601f19601f82011682018060405250810190612aca9190614b72565b6001600160a01b0316836001600160a01b03161491505092915050565b8015610126576000826001600160a01b03168260405160006040518083038185875af1925050503d8060008114612b3a576040519150601f19603f3d011682016040523d82523d6000602084013e612b3f565b606091505b50509050806102055760405162461bcd60e51b815260206004820152600f60248201526e1d1c985b9cd9995c8819985a5b1959608a1b6044820152606401610288565b600080612b8d611d61565b600c810154909150612baf90600160901b90046001600160401b03168461473b565b611b629084614469565b6000808211612bfd5760405162461bcd60e51b815260206004820152601060248201526f4469766973696f6e206279207a65726f60801b6044820152606401610288565b83600003612c0d57506000611b62565b83830283858281612c2057612c2061450f565b0403612c3e57828181612c3557612c3561450f565b04915050611b62565b506000612c4b8386614525565b90506000612c59848761473b565b90506000612c678587614525565b90506000612c75868861473b565b905085612c828285614452565b612c8c9190614525565b612c968385614452565b612ca08387614452565b88612cab8689614452565b612cb59190614452565b612cbf919061440d565b612cc9919061440d565b612cd3919061440d565b98975050505050505050565b60048301546000908190612cff908490600160581b900461ffff16611b90565b9050612d0a81613618565b610e7c90856144e8565b6000826001600160401b0316846001600160401b031610158290612d4b5760405162461bcd60e51b81526004016102889190614b8f565b5050506001600160401b0390811691160390565b612d676138ce565b604051633af32abf60e01b81526001600160a01b0383811660048301529190911690633af32abf90602401602060405180830381865afa158015612daf573d6000803e3d6000fd5b505050506040513d601f19601f82011682018060405250810190612dd3919061448a565b6107dd5760405162461bcd60e51b81526020600482015260156024820152741859d95b9d081b9bdd081dda1a5d195b1a5cdd1959605a1b6044820152606401610288565b612e3c6040805160608101909152806000815260200160008152602001600081525090565b6000612e47836133b6565b60408051606081019091529091508060018152825485546040516370a0823160e01b81526001600160a01b0391821660048201526020909301929116906370a08231906024015b602060405180830381865afa158015612eab573d6000803e3d6000fd5b505050506040513d601f19601f82011682018060405250810190612ecf9190614af4565b8152602001611e3d836138ec565b612f026040805160608101909152806000815260200160008152602001600081525090565b6000612f0d83613369565b60408051606081019091526000815281549192509060208201906001600160a01b03166370a08231612f3e87613182565b6040516001600160e01b031960e084901b1681526001600160a01b039091166004820152602401612e8e565b612f8f6040805160608101909152806000815260200160008152602001600081525090565b8254604080516332f7ce0b60e21b815290516000926001600160a01b03169163cbdf382c9160048083019260209291908290030181865afa158015612fd8573d6000803e3d6000fd5b505050506040513d601f19601f82011682018060405250810190612ffc9190614b72565b90506000816001600160a01b03166370a0823161301887613182565b6040516001600160e01b031960e084901b1681526001600160a01b039091166004820152602401602060405180830381865afa15801561305c573d6000803e3d6000fd5b505050506040513d601f19601f820116820180604052508101906130809190614af4565b90506000826001600160a01b03166318160ddd6040518163ffffffff1660e01b8152600401602060405180830381865afa1580156130c2573d6000803e3d6000fd5b505050506040513d601f19601f820116820180604052508101906130e69190614af4565b9050600085602001516000036130fd576000613112565b60208601516040870151613112918490612bb9565b60408051606081018252600281526020810195909552840152509095945050505050565b6000806131438484613902565b90506000613151858561392a565b905080600003613162576000610e7c565b610e7c8183614525565b600081831061317b5781611b62565b5090919050565b7f5bebac0595fee029d42bb673937f5f1cb81cf8641382bc17774635de9b7d79651860401c90565b6000806000806000806132498860010180546131c590614796565b80601f01602080910402602001604051908101604052809291908181526020018280546131f190614796565b801561323e5780601f106132135761010080835404028352916020019161323e565b820191906000526020600020905b81548152906001019060200180831161322157829003601f168201915b505050505088613970565b8a549295509093509150600160f01b900460ff161561329057875460009061327f90600160a81b900460ff166001838786613a3b565b965091945084935061336292505050565b600080600061332b8b60020180546132a790614796565b80601f01602080910402602001604051908101604052809291908181526020018280546132d390614796565b80156133205780601f106132f557610100808354040283529160200191613320565b820191906000526020600020905b81548152906001019060200180831161330357829003601f168201915b50505050508b613970565b8d54929550909350915060009061334f90600160a81b900460ff1685848a89613a3b565b9950949750909550613362945050505050565b9250925092565b600080600080516020614dca83398151915260048401548154919250829161010090910461ffff169081106133a0576133a0614705565b9060005260206000209060040201915050919050565b600080600080516020614dca833981519152600484015481549192508291630100000090910461ffff169081106133a0576133a0614705565b60006133f9611d61565b9050600061340684613182565b9050806001600160a01b031663648d087861341f611b9f565b600985015460405160e084901b6001600160e01b03191681526001600160a01b0392831660048201529116602482015260448101869052606401600060405180830381600087803b15801561347357600080fd5b505af115801561069e573d6000803e3d6000fd5b600080613493836138ec565b905060006134a0856138ec565b9050611e90868383612bb9565b60006134b7611d61565b6008810154600b8201549192506001600160a01b0316906040840135146134f05760405162461bcd60e51b815260040161028890614539565b604051634661c36760e11b81526001600160a01b03821690638cc386ce9061351c908690600401614be9565b602060405180830381865afa158015613539573d6000803e3d6000fd5b505050506040513d601f19601f8201168201806040525081019061355d919061448a565b6135a95760405162461bcd60e51b815260206004820152601860248201527f6c6567616c207061796d656e74206e6f742070726f76656400000000000000006044820152606401610288565b6135cc6135be61014085016101208601614437565b6001600160401b0316613abf565b6102055760405162461bcd60e51b815260206004820152601c60248201527f7665726966696564207472616e73616374696f6e20746f6f206f6c64000000006044820152606401610288565b600080613623611d61565b600c810154909150611b6290610ced90600160901b90046001600160401b031685614525565b600081815260208390526040902054156136a55760405162461bcd60e51b815260206004820152601960248201527f7061796d656e7420616c726561647920636f6e6669726d6564000000000000006044820152606401610288565b60006136b46201518042614525565b60008181526001850160205260408120549192508190036136d557826136d7565b805b600084815260208681526040808320939093558482526001870190529081208490556002850154900361370c57600284018290555b61015784613ae2565b6005820154613735908290600160401b90046001600160401b03166144e8565b8260050160086101000a8154816001600160401b0302191690836001600160401b031602179055505050565b600080516020614dca833981519152600061377b84613182565b9050600061378d600784018386613b9b565b9050600061379a85611b31565b9050816001600160401b0316836001600160a01b03167f631f8f2039090539b2ea4ef7dc567f7f1939ef4dd3e790b1ca7bc548a1fada58836040516137e191815260200190565b60405180910390a3505050505050565b60068201546001600160401b0380831691160361380c575050565b60068201805467ffffffffffffffff19166001600160401b038316179055600061383582611b31565b905061384083613182565b6001600160a01b03167fa3db2bc927901a1d3ba09ad51d84609457b98443be9132a0a936a47c5a1081b58260405161387a91815260200190565b60405180910390a2505050565b600080613892611d61565b600101546001600160a01b031692915050565b80600f81900b81146138c95760405162461bcd60e51b81526004016102889061474f565b919050565b6000806138d9611d61565b600701546001600160a01b031692915050565b60006138f98260006131aa565b50909392505050565b60008061390f8484613fa4565b90506000611e908286602001516140ce90919063ffffffff16565b600080613935611d61565b905060006139478486600001516140f4565b50600d8301546040870151919250610e7c91839161238a916001600160401b03909116906122f2565b60008060008061397e611d61565b600a8101549091506001600160a01b03168515613a0f5760405163e4a0a55b60e01b81526001600160a01b0382169063e4a0a55b906139c1908a90600401614b8f565b606060405180830381865afa1580156139de573d6000803e3d6000fd5b505050506040513d601f19601f82011682018060405250810190613a029190614d5f565b9450945094505050613362565b60405163524f388960e01b81526001600160a01b0382169063524f3889906139c1908a90600401614b8f565b600080613a46611d61565b905060006009613a56878a61440d565b613a60919061440d565b600a830154909150600090613a80908690600160a81b900460ff1661440d565b905080821015613a9257613a92614d8d565b613ab2613a9f8284614469565b613aaa90600a614abc565b87908a612bb9565b9998505050505050505050565b6000613acf600e62015180614452565b613ad99042614469565b90911015919050565b6002810154801580613b0c5750600e613afe6201518042614525565b613b089190614469565b8110155b15613b15575050565b60008181526001830160205260409020548015613b865760008181526020849052604081208054919055818103613b7057600083815260018086016020526040822091909155613b6690849061440d565b6002850155610157565b6000928352600193909301602052506040902055565b613b9182600161440d565b6002840155505050565b6001600160a01b03821660009081526001840160205260408120600285018054839190601090613bda90600160801b90046001600160401b0316614da3565b91906101000a8154816001600160401b0302191690836001600160401b03160217905590506040518060c00160405280866001600160a01b03168152602001856001600160401b031681526020018760020160089054906101000a90046001600160401b03166001600160401b0316815260200160006001600160401b031681526020018360000160089054906101000a90046001600160401b03166001600160401b0316815260200160006001600160401b0316815250866000016000836001600160401b03166001600160401b0316815260200190815260200160002060008201518160000160006101000a8154816001600160a01b0302191690836001600160a01b0316021790555060208201518160000160146101000a8154816001600160401b0302191690836001600160401b0316021790555060408201518160010160006101000a8154816001600160401b0302191690836001600160401b0316021790555060608201518160010160086101000a8154816001600160401b0302191690836001600160401b0316021790555060808201518160010160106101000a8154816001600160401b0302191690836001600160401b0316021790555060a08201518160010160186101000a8154816001600160401b0302191690836001600160401b031602179055509050508560020160009054906101000a90046001600160401b03166001600160401b0316600003613e37576002860154600160401b90046001600160401b031615613e1457613e14614d8d565b60028601805467ffffffffffffffff19166001600160401b038316179055613e9f565b6002860154600160401b90046001600160401b0316600003613e5b57613e5b614d8d565b6002860154600160401b908190046001600160401b039081166000908152602089905260409020600101805467ffffffffffffffff60401b19169184169092021790555b6002860180546001600160401b03808416600160401b0267ffffffffffffffff60401b1990921691909117909155825416600003613f15578154600160401b90046001600160401b031615613ef657613ef6614d8d565b815467ffffffffffffffff19166001600160401b038216178255613f78565b8154600160401b90046001600160401b0316600003613f3657613f36614d8d565b81546001600160401b03600160401b909104811660009081526020889052604090206001018054918316600160c01b026001600160c01b039092169190911790555b815467ffffffffffffffff60401b1916600160401b6001600160401b0383160217909155949350505050565b6000806000613fb78486600001516140f4565b60058601549193509150600090613fe0906001600160401b03600160401b82048116911661440d565b90506000613ff68461238a848a604001516122f2565b9050600060018851600281111561400f5761400f6144a7565b1461402e576005870154600160801b90046001600160401b0316614044565b6005870154600160c01b90046001600160401b03165b905060006140638561238a846001600160401b03168c604001516122f2565b9050600060018a51600281111561407c5761407c6144a7565b036140885760006140a0565b8951614095908a906141ed565b546001600160801b03165b6001600160801b03169050806140b6838661440d565b6140c0919061440d565b9a9950505050505050505050565b600080838311156140e4575060009050806140ed565b50600190508183035b9250929050565b600080600283600281111561410b5761410b6144a7565b036141665760008061411e8660016140f4565b91509150600061412c611d61565b600c015463ffffffff640100000000909104811691506141509082908490611b9016565b935061415c8184611b90565b94505050506140ed565b600183600281111561417a5761417a6144a7565b036141b557614188846133b6565b60030154600485015463ffffffff91821692506141ae91600160881b909104168261423a565b91506140ed565b6141be84613369565b60030154600485015463ffffffff91821692506141e491600160681b909104168261423a565b91509250929050565b60006001826002811115614203576142036144a7565b0361421057614210614d8d565b6000826002811115614224576142246144a7565b146142325782600901611b62565b505060080190565b600081831161317b5781611b62565b6000806040838503121561425c57600080fd5b82356001600160401b0381111561427257600080fd5b83016101c0818603121561428557600080fd5b946020939093013593505050565b6001600160a01b03811681146107dd57600080fd5b600080600080608085870312156142be57600080fd5b84356142c981614293565b9350602085013592506040850135915060608501356142e781614293565b939692955090935050565b60006020828403121561430457600080fd5b5035919050565b6000806040838503121561431e57600080fd5b82356001600160401b0381111561433457600080fd5b8301610160818603121561428557600080fd5b600061028082840312156119e757600080fd5b60008060006060848603121561436f57600080fd5b83356001600160401b0381111561438557600080fd5b61439186828701614347565b93505060208401356143a281614293565b929592945050506040919091013590565b600080604083850312156143c657600080fd5b82356001600160401b038111156143dc57600080fd5b6143e885828601614347565b95602094909401359450505050565b634e487b7160e01b600052601160045260246000fd5b80820180821115610170576101706143f7565b80356001600160401b03811681146138c957600080fd5b60006020828403121561444957600080fd5b611b6282614420565b8082028115828204841417610170576101706143f7565b81810381811115610170576101706143f7565b80151581146107dd57600080fd5b60006020828403121561449c57600080fd5b8151611b628161447c565b634e487b7160e01b600052602160045260246000fd5b6001600160401b038181168382160280821691908281146144e0576144e06143f7565b505092915050565b6001600160401b03818116838216019080821115614508576145086143f7565b5092915050565b634e487b7160e01b600052601260045260246000fd5b6000826145345761453461450f565b500490565b6020808252600d908201526c34b73b30b634b21031b430b4b760991b604082015260600190565b6000808335601e1984360301811261457757600080fd5b83016020810192503590506001600160401b0381111561459657600080fd5b8060051b36038213156140ed57600080fd5b81835260006001600160fb1b038311156145c157600080fd5b8260051b80836020870137939093016020019392505050565b6001600160401b03806145ec83614420565b168352806145fc60208401614420565b1660208401528061460f60408401614420565b166040840152505050565b60208152600061462a8384614560565b6101c060208501526146416101e0850182846145a8565b915050602084013560408401526040840135606084015261466460608501614420565b6001600160401b0380821660808601528061468160808801614420565b1660a08601528061469460a08801614420565b1660c0860152806146a760c08801614420565b1660e08601526146b960e08701614420565b915061010081831681870152610120925080870135838701525050610140818601358186015261016091508086013582860152506146fd61018085018287016145da565b509392505050565b634e487b7160e01b600052603260045260246000fd5b6001600160401b03828116828216039080821115614508576145086143f7565b60008261474a5761474a61450f565b500690565b60208082526027908201527f53616665436173743a2076616c756520646f65736e27742066697420696e20316040820152663238206269747360c81b606082015260800190565b600181811c908216806147aa57607f821691505b6020821081036119e757634e487b7160e01b600052602260045260246000fd5b60006101208b835260206001600160801b038c1660208501526001600160401b03808c166040860152808b166060860152808a166080860152508160a0850152600088548160018260011c9150600183168061482757607f831692505b60208310810361484557634e487b7160e01b85526022600452602485fd5b958801828152602001958080156148635760018114614879576148a4565b60ff198516885283151560051b880195506148a4565b60008e81526020902060005b8581101561489e5781548a820152908401908801614885565b89019650505b505050505060c085018890526001600160a01b03871660e086015292506148c9915050565b826101008301529a9950505050505050505050565b6020815260006148ee8384614560565b610160806020860152614906610180860183856145a8565b9250602086013560408601526040860135606086015261492860608701614420565b91506001600160401b0380831660808701528061494760808901614420565b1660a08701528061495a60a08901614420565b1660c08701528061496d60c08901614420565b1660e087015261010092508061498560e08901614420565b1683870152614995838801614420565b9250610120818416818801526149ac818901614420565b93505061014081841681880152816149c5828a01614420565b1683880152505050508091505092915050565b600181815b80851115614a135781600019048211156149f9576149f96143f7565b80851615614a0657918102915b93841c93908002906149dd565b509250929050565b600082614a2a57506001610170565b81614a3757506000610170565b8160018114614a4d5760028114614a5757614a73565b6001915050610170565b60ff841115614a6857614a686143f7565b50506001821b610170565b5060208310610133831016604e8410600b8410161715614a96575081810a610170565b614aa083836149d8565b8060001904821115614ab457614ab46143f7565b029392505050565b6000611b628383614a1b565b803560ff811681146138c957600080fd5b600060208284031215614aeb57600080fd5b611b6282614ac8565b600060208284031215614b0657600080fd5b5051919050565b60006001600160401b0380841680614b2757614b2761450f565b92169190910692915050565b600f81810b9083900b016f7fffffffffffffffffffffffffffffff81136f7fffffffffffffffffffffffffffffff1982121715610170576101706143f7565b600060208284031215614b8457600080fd5b8151611b6281614293565b60006020808352835180602085015260005b81811015614bbd57858101830151858201604001528201614ba1565b506000604082860101526040601f19601f8301168501019250505092915050565b80356138c98161447c565b602081526000614bf98384614560565b610280806020860152614c116102a0860183856145a8565b92506020860135604086015260408601356060860152614c3360608701614420565b91506001600160401b03808316608087015280614c5260808901614420565b1660a08701525060a086013560c086015260c086013560e0860152610100915060e086013582860152610120614c9c818701614c8f858a01614420565b6001600160401b03169052565b614ca7818801614420565b925050610140614cc1818701846001600160401b03169052565b610160925080870135838701525061018082870135818701526101a092508087013583870152506101c082870135818701526101e09250808701358387015250610200828701358187015261022092508087013583870152506102408287013581870152614d30818801614bde565b925050610260614d438187018415159052565b614d4e818801614ac8565b9250506121a58186018360ff169052565b600080600060608486031215614d7457600080fd5b8351925060208401519150604084015190509250925092565b634e487b7160e01b600052600160045260246000fd5b60006001600160401b03808316818103614dbf57614dbf6143f7565b600101939250505056feec7e8c1c441439dd40959777f4c577ea0cd42fcc1dbe59d2bd0f5d9c55df8db6a2646970667358221220670951b998e7ed6d7c29221433affa55134829ba2f887ed2925410c6d269db9d64736f6c63430008170033",
  "linkReferences": {},
  "deployedLinkReferences": {}
}