{
  "_format": "hh-sol-artifact-1",
  "contractName": "AssetManagerInit",
  "sourceName": "contracts/assetManager/facets/AssetManagerInit.sol",
  "abi": [
    {
      "anonymous": false,
      "inputs": [
        {
          "indexed": false,
          "internalType": "uint8",
          "name": "collateralClass",
          "type": "uint8"
        },
        {
          "indexed": false,
          "internalType": "address",
          "name": "token",
          "type": "address"
        },
        {
          "indexed": false,
          "internalType": "uint256",
          "name": "decimals",
          "type": "uint256"
        },
        {
          "indexed": false,
          "internalType": "bool",
          "name": "directPricePair",
          "type": "bool"
        },
        {
          "indexed": false,
          "internalType": "string",
          "name": "assetFtsoSymbol",
          "type": "string"
        },
        {
          "indexed": false,
          "internalType": "string",
          "name": "tokenFtsoSymbol",
          "type": "string"
        },
        {
          "indexed": false,
          "internalType": "uint256",
          "name": "minCollateralRatioBIPS",
          "type": "uint256"
        },
        {
          "indexed": false,
          "internalType": "uint256",
          "name": "ccbMinCollateralRatioBIPS",
          "type": "uint256"
        },
        {
          "indexed": false,
          "internalType": "uint256",
          "name": "safetyMinCollateralRatioBIPS",
          "type": "uint256"
        }
      ],
      "name": "CollateralTypeAdded",
      "type": "event"
    },
    {
      "anonymous": false,
      "inputs": [
        {
          "indexed": false,
          "internalType": "bytes",
          "name": "encodedCall",
          "type": "bytes"
        },
        {
          "indexed": false,
          "internalType": "bytes32",
          "name": "encodedCallHash",
          "type": "bytes32"
        },
        {
          "indexed": false,
          "internalType": "uint256",
          "name": "allowedAfterTimestamp",
          "type": "uint256"
        }
      ],
      "name": "GovernanceCallTimelocked",
      "type": "event"
    },
    {
      "anonymous": false,
      "inputs": [
        {
          "indexed": false,
          "internalType": "address",
          "name": "initialGovernance",
          "type": "address"
        }
      ],
      "name": "GovernanceInitialised",
      "type": "event"
    },
    {
      "anonymous": false,
      "inputs": [
        {
          "indexed": false,
          "internalType": "address",
          "name": "governanceSettings",
          "type": "address"
        }
      ],
      "name": "GovernedProductionModeEntered",
      "type": "event"
    },
    {
      "anonymous": false,
      "inputs": [
        {
          "indexed": false,
          "internalType": "bytes32",
          "name": "encodedCallHash",
          "type": "bytes32"
        }
      ],
      "name": "TimelockedGovernanceCallCanceled",
      "type": "event"
    },
    {
      "anonymous": false,
      "inputs": [
        {
          "indexed": false,
          "internalType": "bytes32",
          "name": "encodedCallHash",
          "type": "bytes32"
        }
      ],
      "name": "TimelockedGovernanceCallExecuted",
      "type": "event"
    },
    {
      "inputs": [
        {
          "internalType": "bytes",
          "name": "_encodedCall",
          "type": "bytes"
        }
      ],
      "name": "cancelGovernanceCall",
      "outputs": [],
      "stateMutability": "nonpayable",
      "type": "function"
    },
    {
      "inputs": [
        {
          "internalType": "bytes",
          "name": "_encodedCall",
          "type": "bytes"
        }
      ],
      "name": "executeGovernanceCall",
      "outputs": [],
      "stateMutability": "nonpayable",
      "type": "function"
    },
    {
      "inputs": [],
      "name": "governance",
      "outputs": [
        {
          "internalType": "address",
          "name": "",
          "type": "address"
        }
      ],
      "stateMutability": "view",
      "type": "function"
    },
    {
      "inputs": [],
      "name": "governanceSettings",
      "outputs": [
        {
          "internalType": "contract IGovernanceSettings",
          "name": "",
          "type": "address"
        }
      ],
      "stateMutability": "view",
      "type": "function"
    },
    {
      "inputs": [
        {
          "internalType": "contract IGovernanceSettings",
          "name": "_governanceSettings",
          "type": "address"
        },
        {
          "internalType": "address",
          "name": "_initialGovernance",
          "type": "address"
        },
        {
          "components": [
            {
              "internalType": "address",
              "name": "assetManagerController",
              "type": "address"
            },
            {
              "internalType": "address",
              "name": "fAsset",
              "type": "address"
            },
            {
              "internalType": "address",
              "name": "agentVaultFactory",
              "type": "address"
            },
            {
              "internalType": "address",
              "name": "collateralPoolFactory",
              "type": "address"
            },
            {
              "internalType": "address",
              "name": "collateralPoolTokenFactory",
              "type": "address"
            },
            {
              "internalType": "string",
              "name": "poolTokenSuffix",
              "type": "string"
            },
            {
              "internalType": "address",
              "name": "whitelist",
              "type": "address"
            },
            {
              "internalType": "address",
              "name": "agentOwnerRegistry",
              "type": "address"
            },
            {
              "internalType": "address",
              "name": "scProofVerifier",
              "type": "address"
            },
            {
              "internalType": "address payable",
              "name": "burnAddress",
              "type": "address"
            },
            {
              "internalType": "address",
              "name": "priceReader",
              "type": "address"
            },
            {
              "internalType": "uint8",
              "name": "assetDecimals",
              "type": "uint8"
            },
            {
              "internalType": "uint8",
              "name": "assetMintingDecimals",
              "type": "uint8"
            },
            {
              "internalType": "bytes32",
              "name": "chainId",
              "type": "bytes32"
            },
            {
              "internalType": "uint32",
              "name": "averageBlockTimeMS",
              "type": "uint32"
            },
            {
              "internalType": "uint32",
              "name": "mintingPoolHoldingsRequiredBIPS",
              "type": "uint32"
            },
            {
              "internalType": "uint16",
              "name": "collateralReservationFeeBIPS",
              "type": "uint16"
            },
            {
              "internalType": "uint64",
              "name": "assetUnitUBA",
              "type": "uint64"
            },
            {
              "internalType": "uint64",
              "name": "assetMintingGranularityUBA",
              "type": "uint64"
            },
            {
              "internalType": "uint64",
              "name": "lotSizeAMG",
              "type": "uint64"
            },
            {
              "internalType": "uint16",
              "name": "minUnderlyingBackingBIPS",
              "type": "uint16"
            },
            {
              "internalType": "bool",
              "name": "requireEOAAddressProof",
              "type": "bool"
            },
            {
              "internalType": "uint64",
              "name": "mintingCapAMG",
              "type": "uint64"
            },
            {
              "internalType": "uint64",
              "name": "underlyingBlocksForPayment",
              "type": "uint64"
            },
            {
              "internalType": "uint64",
              "name": "underlyingSecondsForPayment",
              "type": "uint64"
            },
            {
              "internalType": "uint16",
              "name": "redemptionFeeBIPS",
              "type": "uint16"
            },
            {
              "internalType": "uint32",
              "name": "redemptionDefaultFactorVaultCollateralBIPS",
              "type": "uint32"
            },
            {
              "internalType": "uint32",
              "name": "redemptionDefaultFactorPoolBIPS",
              "type": "uint32"
            },
            {
              "internalType": "uint64",
              "name": "confirmationByOthersAfterSeconds",
              "type": "uint64"
            },
            {
              "internalType": "uint128",
              "name": "confirmationByOthersRewardUSD5",
              "type": "uint128"
            },
            {
              "internalType": "uint16",
              "name": "maxRedeemedTickets",
              "type": "uint16"
            },
            {
              "internalType": "uint16",
              "name": "paymentChallengeRewardBIPS",
              "type": "uint16"
            },
            {
              "internalType": "uint128",
              "name": "paymentChallengeRewardUSD5",
              "type": "uint128"
            },
            {
              "internalType": "uint64",
              "name": "withdrawalWaitMinSeconds",
              "type": "uint64"
            },
            {
              "internalType": "uint64",
              "name": "maxTrustedPriceAgeSeconds",
              "type": "uint64"
            },
            {
              "internalType": "uint64",
              "name": "ccbTimeSeconds",
              "type": "uint64"
            },
            {
              "internalType": "uint64",
              "name": "attestationWindowSeconds",
              "type": "uint64"
            },
            {
              "internalType": "uint64",
              "name": "minUpdateRepeatTimeSeconds",
              "type": "uint64"
            },
            {
              "internalType": "uint64",
              "name": "buybackCollateralFactorBIPS",
              "type": "uint64"
            },
            {
              "internalType": "uint64",
              "name": "announcedUnderlyingConfirmationMinSeconds",
              "type": "uint64"
            },
            {
              "internalType": "uint64",
              "name": "tokenInvalidationTimeMinSeconds",
              "type": "uint64"
            },
            {
              "internalType": "uint32",
              "name": "vaultCollateralBuyForFlareFactorBIPS",
              "type": "uint32"
            },
            {
              "internalType": "uint64",
              "name": "agentExitAvailableTimelockSeconds",
              "type": "uint64"
            },
            {
              "internalType": "uint64",
              "name": "agentFeeChangeTimelockSeconds",
              "type": "uint64"
            },
            {
              "internalType": "uint64",
              "name": "agentMintingCRChangeTimelockSeconds",
              "type": "uint64"
            },
            {
              "internalType": "uint64",
              "name": "poolExitAndTopupChangeTimelockSeconds",
              "type": "uint64"
            },
            {
              "internalType": "uint64",
              "name": "agentTimelockedOperationWindowSeconds",
              "type": "uint64"
            },
            {
              "internalType": "uint32",
              "name": "collateralPoolTokenTimelockSeconds",
              "type": "uint32"
            },
            {
              "internalType": "uint64",
              "name": "liquidationStepSeconds",
              "type": "uint64"
            },
            {
              "internalType": "uint256[]",
              "name": "liquidationCollateralFactorBIPS",
              "type": "uint256[]"
            },
            {
              "internalType": "uint256[]",
              "name": "liquidationFactorVaultCollateralBIPS",
              "type": "uint256[]"
            },
            {
              "internalType": "uint64",
              "name": "diamondCutMinTimelockSeconds",
              "type": "uint64"
            },
            {
              "internalType": "uint64",
              "name": "maxEmergencyPauseDurationSeconds",
              "type": "uint64"
            },
            {
              "internalType": "uint64",
              "name": "emergencyPauseDurationResetAfterSeconds",
              "type": "uint64"
            }
          ],
          "internalType": "struct AssetManagerSettings.Data",
          "name": "_settings",
          "type": "tuple"
        },
        {
          "components": [
            {
              "internalType": "enum CollateralType.Class",
              "name": "collateralClass",
              "type": "uint8"
            },
            {
              "internalType": "contract IERC20",
              "name": "token",
              "type": "address"
            },
            {
              "internalType": "uint256",
              "name": "decimals",
              "type": "uint256"
            },
            {
              "internalType": "uint256",
              "name": "validUntil",
              "type": "uint256"
            },
            {
              "internalType": "bool",
              "name": "directPricePair",
              "type": "bool"
            },
            {
              "internalType": "string",
              "name": "assetFtsoSymbol",
              "type": "string"
            },
            {
              "internalType": "string",
              "name": "tokenFtsoSymbol",
              "type": "string"
            },
            {
              "internalType": "uint256",
              "name": "minCollateralRatioBIPS",
              "type": "uint256"
            },
            {
              "internalType": "uint256",
              "name": "ccbMinCollateralRatioBIPS",
              "type": "uint256"
            },
            {
              "internalType": "uint256",
              "name": "safetyMinCollateralRatioBIPS",
              "type": "uint256"
            }
          ],
          "internalType": "struct CollateralType.Data[]",
          "name": "_initialCollateralTypes",
          "type": "tuple[]"
        }
      ],
      "name": "init",
      "outputs": [],
      "stateMutability": "nonpayable",
      "type": "function"
    },
    {
      "inputs": [
        {
          "internalType": "contract IGovernanceSettings",
          "name": "_governanceSettings",
          "type": "address"
        },
        {
          "internalType": "address",
          "name": "_initialGovernance",
          "type": "address"
        }
      ],
      "name": "initialise",
      "outputs": [],
      "stateMutability": "nonpayable",
      "type": "function"
    },
    {
      "inputs": [
        {
          "internalType": "address",
          "name": "_address",
          "type": "address"
        }
      ],
      "name": "isExecutor",
      "outputs": [
        {
          "internalType": "bool",
          "name": "",
          "type": "bool"
        }
      ],
      "stateMutability": "view",
      "type": "function"
    },
    {
      "inputs": [],
      "name": "productionMode",
      "outputs": [
        {
          "internalType": "bool",
          "name": "",
          "type": "bool"
        }
      ],
      "stateMutability": "view",
      "type": "function"
    },
    {
      "inputs": [],
      "name": "switchToProductionMode",
      "outputs": [],
      "stateMutability": "nonpayable",
      "type": "function"
    }
  ],
  "bytecode": "0x60806040523480156200001157600080fd5b50620000206111118062000026565b620001bf565b7f2aa47ee5db910f3b2a06970c443249cc77dbd9f96100cfebc1775ab7fb1d18248054600160a01b900460ff1615620000a65760405162461bcd60e51b815260206004820152601460248201527f696e697469616c6973656420213d2066616c736500000000000000000000000060448201526064015b60405180910390fd5b6001600160a01b038316620000fe5760405162461bcd60e51b815260206004820152601860248201527f676f7665726e616e63652073657474696e6773207a65726f000000000000000060448201526064016200009d565b6001600160a01b038216620001495760405162461bcd60e51b815260206004820152601060248201526f5f676f7665726e616e6365207a65726f60801b60448201526064016200009d565b80546001600160a01b038481166001600160a81b031990921691909117600160a01b1782556001820180549184166001600160a01b0319909216821790556040519081527f9789733827840833afc031fb2ef9ab6894271f77bad2085687cf4ae5c7bee4db9060200160405180910390a1505050565b61346080620001cf6000396000f3fe608060405234801561001057600080fd5b50600436106100935760003560e01c8063ba085e6311610066578063ba085e6314610103578063debfda3014610116578063e17f212e14610139578063ef88bf1314610158578063f5a983831461016b57600080fd5b806316fc2f6d1461009857806320c5f99d146100ad5780635aa6e675146100c057806362354e03146100e5575b600080fd5b6100ab6100a636600461277e565b610173565b005b6100ab6100bb36600461277e565b61025b565b6100c861044a565b6040516001600160a01b0390911681526020015b60405180910390f35b60008051602061340b833981519152546001600160a01b03166100c8565b6100ab610111366004612b8b565b6104f3565b610129610124366004613016565b61069a565b60405190151581526020016100dc565b60008051602061340b83398151915254600160a81b900460ff16610129565b6100ab610166366004613033565b610734565b6100ab6108a8565b61017b61097c565b60405160008051602061340b8339815191529060009061019e908590859061306c565b60405180910390209050816002016000828152602001908152602001600020546000036102125760405162461bcd60e51b815260206004820152601a60248201527f74696d656c6f636b3a20696e76616c69642073656c6563746f7200000000000060448201526064015b60405180910390fd5b6040518181527f69b058d6225c01c1f2a25801ca5b05705fa2e9118e93d518390ba804398c87b19060200160405180910390a16000908152600290910160205260408120555050565b60008051602061340b8339815191526102733361069a565b6102af5760405162461bcd60e51b815260206004820152600d60248201526c37b7363c9032bc32b1baba37b960991b6044820152606401610209565b600083836040516102c192919061306c565b6040805191829003909120600081815260028501602052918220549092509081900361032f5760405162461bcd60e51b815260206004820152601a60248201527f74696d656c6f636b3a20696e76616c69642073656c6563746f720000000000006044820152606401610209565b8042101561037f5760405162461bcd60e51b815260206004820152601960248201527f74696d656c6f636b3a206e6f7420616c6c6f77656420796574000000000000006044820152606401610209565b6000828152600284016020526040808220829055845460ff60b01b1916600160b01b1785555130906103b4908890889061306c565b6000604051808303816000865af19150503d80600081146103f1576040519150601f19603f3d011682016040523d82523d6000602084013e6103f6565b606091505b5050845460ff60b01b191685556040518481529091507fec1225e5a8a8acb91e03ce648c683c74f5d152a775b9715980999441d714c44f9060200160405180910390a1610442816109d8565b505050505050565b60008051602061340b833981519152805460009190600160a81b900460ff166104805760018101546001600160a01b03166104ed565b805460408051631cc9492560e21b815290516001600160a01b03909216916373252494916004808201926020929091908290030181865afa1580156104c9573d6000803e3d6000fd5b505050506040513d601f19601f820116820180604052508101906104ed919061307c565b91505090565b6104fd8484610734565b61052660017f0cd2207518cd3e5213e2c6dbe63d55b60aa893c194a427b7d7f1600408fd5bde55565b61052f826109f5565b61053881610a0a565b6106947fc8fcad8db84d3cc18b4c41d551ea0ee66dd599cde068d998e57d5e09332c131e6020527f673a26ab9c976db950bbe987aa80c5e387f329563bb0afe093ddccc970489e318054600160ff1991821681179092557f795db15802e151b19272d3e7b72ebd9d0cedc282cc23a6e937c8c3c90d9e213780548216831790557f9bed265332efc30fa7643cc339edc91cb284a0f6566818a5788922af58c86b5080548216831790557f0e17016f77c707cc5512876feaba348b6ac4583ca05776931566ec6ff53bf1bf80548216831790557ff9d1e6e644ff09d0b10c28b7387a460366c1a7845b8194c2fb0dd9f1489591a280548216831790557f5d1f4838d0a9697aeb7cb0f4fbdc3dbb6bb0d5a99f0b0ebf62b7f1054f7f4ee5805482168317905563b6944a0760e01b6000527f4ee2dc5a87b2341cdd884cb24ac903cb3474fc8ab46d935373f1eb2142f14e5780549091169091179055565b50505050565b60008051602061340b833981519152805460009190600160a01b900460ff16801561072d57508054604051630debfda360e41b81526001600160a01b0385811660048301529091169063debfda3090602401602060405180830381865afa158015610709573d6000803e3d6000fd5b505050506040513d601f19601f8201168201806040525081019061072d9190613099565b9392505050565b60008051602061340b8339815191528054600160a01b900460ff16156107935760405162461bcd60e51b8152602060048201526014602482015273696e697469616c6973656420213d2066616c736560601b6044820152606401610209565b6001600160a01b0383166107e95760405162461bcd60e51b815260206004820152601860248201527f676f7665726e616e63652073657474696e6773207a65726f00000000000000006044820152606401610209565b6001600160a01b0382166108325760405162461bcd60e51b815260206004820152601060248201526f5f676f7665726e616e6365207a65726f60801b6044820152606401610209565b80546001600160a01b038481166001600160a81b031990921691909117600160a01b1782556001820180549184166001600160a01b0319909216821790556040519081527f9789733827840833afc031fb2ef9ab6894271f77bad2085687cf4ae5c7bee4db9060200160405180910390a1505050565b6108b061097c565b60008051602061340b8339815191528054600160a81b900460ff16156109185760405162461bcd60e51b815260206004820152601a60248201527f616c726561647920696e2070726f64756374696f6e206d6f64650000000000006044820152606401610209565b6001810180546001600160a01b03191690558054600160a81b60ff60a81b1982161782556040516001600160a01b0390911681527f83af113638b5422f9e977cebc0aaf0eaf2188eb9a8baae7f9d46c42b33a1560c9060200160405180910390a150565b61098461044a565b6001600160a01b0316336001600160a01b0316146109d65760405162461bcd60e51b815260206004820152600f60248201526e6f6e6c7920676f7665726e616e636560881b6044820152606401610209565b565b3d604051818101604052816000823e82156109f1578181f35b8181fd5b6109fe81610bb8565b610a078161147d565b50565b600281511015610a665760405162461bcd60e51b815260206004820152602160248201527f6174206c656173742074776f20636f6c6c61746572616c7320726571756972656044820152601960fa1b6064820152608401610209565b600181600081518110610a7b57610a7b6130cc565b6020026020010151600001516002811115610a9857610a986130b6565b14610ae55760405162461bcd60e51b815260206004820152601a60248201527f6e6f74206120706f6f6c20636f6c6c61746572616c20617420300000000000006044820152606401610209565b610b0881600081518110610afb57610afb6130cc565b6020026020010151611d7e565b50610b1360006121fb565b60015b8151811015610bb4576002828281518110610b3357610b336130cc565b6020026020010151600001516002811115610b5057610b506130b6565b14610b965760405162461bcd60e51b81526020600482015260166024820152751b9bdd0818481d985d5b1d0818dbdb1b185d195c985b60521b6044820152606401610209565b610bab828281518110610afb57610afb6130cc565b50600101610b16565b5050565b60208101516001600160a01b0316610c085760405162461bcd60e51b81526020600482015260136024820152727a65726f20664173736574206164647265737360681b6044820152606401610209565b60408101516001600160a01b0316610c625760405162461bcd60e51b815260206004820152601e60248201527f7a65726f206167656e745661756c74466163746f7279206164647265737300006044820152606401610209565b60608101516001600160a01b0316610cc75760405162461bcd60e51b815260206004820152602260248201527f7a65726f20636f6c6c61746572616c506f6f6c466163746f7279206164647265604482015261737360f01b6064820152608401610209565b60808101516001600160a01b0316610d315760405162461bcd60e51b815260206004820152602760248201527f7a65726f20636f6c6c61746572616c506f6f6c546f6b656e466163746f7279206044820152666164647265737360c81b6064820152608401610209565b6101008101516001600160a01b0316610d8c5760405162461bcd60e51b815260206004820152601c60248201527f7a65726f20736350726f6f6656657269666965722061646472657373000000006044820152606401610209565b6101408101516001600160a01b0316610de75760405162461bcd60e51b815260206004820152601860248201527f7a65726f207072696365526561646572206164647265737300000000000000006044820152606401610209565b60e08101516001600160a01b0316610e415760405162461bcd60e51b815260206004820152601f60248201527f7a65726f206167656e744f776e657252656769737472792061646472657373006044820152606401610209565b60008161022001516001600160401b031611610e6f5760405162461bcd60e51b8152600401610209906130e2565b60008161024001516001600160401b031611610e9d5760405162461bcd60e51b8152600401610209906130e2565b6000816102e001516001600160401b031611610ecb5760405162461bcd60e51b8152600401610209906130e2565b60008161030001516001600160401b031611610ef95760405162461bcd60e51b8152600401610209906130e2565b600081610320015161ffff1611610f225760405162461bcd60e51b8152600401610209906130e2565b600081610200015161ffff1611610f4b5760405162461bcd60e51b8152600401610209906130e2565b6000816103a001516001600160801b031611610f795760405162461bcd60e51b8152600401610209906130e2565b6000816103c0015161ffff1611610fa25760405162461bcd60e51b8152600401610209906130e2565b60008161046001516001600160401b031611610fd05760405162461bcd60e51b8152600401610209906130e2565b60008161044001516001600160401b031611610ffe5760405162461bcd60e51b8152600401610209906130e2565b6000816104a001516001600160401b03161161102c5760405162461bcd60e51b8152600401610209906130e2565b6000816104c001516001600160401b03161161105a5760405162461bcd60e51b8152600401610209906130e2565b60008161042001516001600160401b0316116110885760405162461bcd60e51b8152600401610209906130e2565b6000816101c0015163ffffffff16116110b35760405162461bcd60e51b8152600401610209906130e2565b6110e5816102e001516001600160401b03168261030001516001600160401b0316836101c0015163ffffffff16612298565b60008161026001516001600160401b0316116111135760405162461bcd60e51b8152600401610209906130e2565b6102c08101516001600160401b0316158061114a57508061026001516001600160401b0316816102c001516001600160401b031610155b61118e5760405162461bcd60e51b81526020600482015260156024820152741b5a5b9d1a5b99c818d85c081d1bdbc81cdb585b1b605a1b6044820152606401610209565b600081610280015161ffff16116111b75760405162461bcd60e51b8152600401610209906130e2565b61271081610280015161ffff1611156111e25760405162461bcd60e51b81526004016102099061310a565b61271081610200015161ffff16111561120d5760405162461bcd60e51b81526004016102099061310a565b61271081610320015161ffff1611156112385760405162461bcd60e51b81526004016102099061310a565b6000816103600151826103400151611250919061314d565b63ffffffff169050612710811161129e5760405162461bcd60e51b8152602060048201526012602482015271626970732076616c756520746f6f206c6f7760701b6044820152606401610209565b620151808261048001516001600160401b031610156112f25760405162461bcd60e51b815260206004820152601060248201526f1dda5b991bddc81d1bdbc81cdb585b1b60821b6044820152606401610209565b611c208261038001516001600160401b031610156113525760405162461bcd60e51b815260206004820152601a60248201527f6d757374206265206174206c656173742074776f20686f7572730000000000006044820152606401610209565b610e10826104e001516001600160401b031611156113b25760405162461bcd60e51b815260206004820152601960248201527f636f6e6669726d6174696f6e2074696d6520746f6f20626967000000000000006044820152606401610209565b61271082610520015163ffffffff1610156113df5760405162461bcd60e51b815260040161020990613171565b610e10826105c001516001600160401b0316101561140f5760405162461bcd60e51b815260040161020990613171565b603c826105e0015163ffffffff16101561143b5760405162461bcd60e51b815260040161020990613171565b60008261060001516001600160401b0316116114695760405162461bcd60e51b8152600401610209906130e2565b610bb482610620015183610640015161233b565b80517f4f24f5c433db0962dac0d2c8b84197a6e6c7cc4e5d9ebe1916a1b6193da2f33a80546001600160a01b03199081166001600160a01b0393841617825560208401517f4f24f5c433db0962dac0d2c8b84197a6e6c7cc4e5d9ebe1916a1b6193da2f33b8054831691851691909117905560408401517f4f24f5c433db0962dac0d2c8b84197a6e6c7cc4e5d9ebe1916a1b6193da2f33c8054831691851691909117905560608401517f4f24f5c433db0962dac0d2c8b84197a6e6c7cc4e5d9ebe1916a1b6193da2f33d8054831691851691909117905560808401517f4f24f5c433db0962dac0d2c8b84197a6e6c7cc4e5d9ebe1916a1b6193da2f33e805490921693169290921790915560a08201518190839082907f4f24f5c433db0962dac0d2c8b84197a6e6c7cc4e5d9ebe1916a1b6193da2f33f906115c0908261321c565b5060c08201518160060160006101000a8154816001600160a01b0302191690836001600160a01b0316021790555060e08201518160070160006101000a8154816001600160a01b0302191690836001600160a01b031602179055506101008201518160080160006101000a8154816001600160a01b0302191690836001600160a01b031602179055506101208201518160090160006101000a8154816001600160a01b0302191690836001600160a01b0316021790555061014082015181600a0160006101000a8154816001600160a01b0302191690836001600160a01b0316021790555061016082015181600a0160146101000a81548160ff021916908360ff16021790555061018082015181600a0160156101000a81548160ff021916908360ff1602179055506101a082015181600b01556101c082015181600c0160006101000a81548163ffffffff021916908363ffffffff1602179055506101e082015181600c0160046101000a81548163ffffffff021916908363ffffffff16021790555061020082015181600c0160086101000a81548161ffff021916908361ffff16021790555061022082015181600c01600a6101000a8154816001600160401b0302191690836001600160401b0316021790555061024082015181600c0160126101000a8154816001600160401b0302191690836001600160401b0316021790555061026082015181600d0160006101000a8154816001600160401b0302191690836001600160401b0316021790555061028082015181600d0160086101000a81548161ffff021916908361ffff1602179055506102a082015181600d01600a6101000a81548160ff0219169083151502179055506102c082015181600d01600b6101000a8154816001600160401b0302191690836001600160401b031602179055506102e082015181600d0160136101000a8154816001600160401b0302191690836001600160401b0316021790555061030082015181600e0160006101000a8154816001600160401b0302191690836001600160401b0316021790555061032082015181600e0160086101000a81548161ffff021916908361ffff16021790555061034082015181600e01600a6101000a81548163ffffffff021916908363ffffffff16021790555061036082015181600e01600e6101000a81548163ffffffff021916908363ffffffff16021790555061038082015181600e0160126101000a8154816001600160401b0302191690836001600160401b031602179055506103a082015181600f0160006101000a8154816001600160801b0302191690836001600160801b031602179055506103c082015181600f0160106101000a81548161ffff021916908361ffff1602179055506103e082015181600f0160126101000a81548161ffff021916908361ffff1602179055506104008201518160100160006101000a8154816001600160801b0302191690836001600160801b031602179055506104208201518160100160106101000a8154816001600160401b0302191690836001600160401b031602179055506104408201518160100160186101000a8154816001600160401b0302191690836001600160401b031602179055506104608201518160110160006101000a8154816001600160401b0302191690836001600160401b031602179055506104808201518160110160086101000a8154816001600160401b0302191690836001600160401b031602179055506104a08201518160110160106101000a8154816001600160401b0302191690836001600160401b031602179055506104c08201518160110160186101000a8154816001600160401b0302191690836001600160401b031602179055506104e08201518160120160006101000a8154816001600160401b0302191690836001600160401b031602179055506105008201518160120160086101000a8154816001600160401b0302191690836001600160401b031602179055506105208201518160120160106101000a81548163ffffffff021916908363ffffffff1602179055506105408201518160120160146101000a8154816001600160401b0302191690836001600160401b031602179055506105608201518160130160006101000a8154816001600160401b0302191690836001600160401b031602179055506105808201518160130160086101000a8154816001600160401b0302191690836001600160401b031602179055506105a08201518160130160106101000a8154816001600160401b0302191690836001600160401b031602179055506105c08201518160130160186101000a8154816001600160401b0302191690836001600160401b031602179055506105e08201518160140160006101000a81548163ffffffff021916908363ffffffff1602179055506106008201518160140160046101000a8154816001600160401b0302191690836001600160401b03160217905550610620820151816015019080519060200190611cf8929190612727565b506106408201518051611d15916016840191602090910190612727565b50610660820151601790910180546106808401516106a0909401516001600160401b03908116600160801b0267ffffffffffffffff60801b19958216600160401b026fffffffffffffffffffffffffffffffff1990931691909416171792909216179055505050565b60208101516000907fec7e8c1c441439dd40959777f4c577ea0cd42fcc1dbe59d2bd0f5d9c55df8db6906001600160a01b0316611dea5760405162461bcd60e51b815260206004820152600a602482015269746f6b656e207a65726f60b01b6044820152606401610209565b6000611dfe84600001518560200151612566565b600081815260018401602052604090205490915015611e565760405162461bcd60e51b8152602060048201526014602482015273746f6b656e20616c72656164792065786973747360601b6044820152606401610209565b606084015115611ea85760405162461bcd60e51b815260206004820152601b60248201527f63616e6e6f7420616464206465707265636174656420746f6b656e00000000006044820152606401610209565b6000846101000151612710108015611ec957508460e0015185610100015111155b8015611ede57508461012001518560e0015111155b905080611f2d5760405162461bcd60e51b815260206004820152601960248201527f696e76616c696420636f6c6c61746572616c20726174696f73000000000000006044820152606401610209565b82546040805161014081019091526020808801516001600160a01b0316825287518692918201906002811115611f6557611f656130b6565b8152602001611f778960400151612592565b60ff168152602001611f8c89606001516125f7565b6001600160401b031681526020018860800151151581526020018860a0015181526020018860c001518152602001611fc78960e0015161265f565b63ffffffff168152602001611fe089610100015161265f565b63ffffffff168152602001611ff989610120015161265f565b63ffffffff16905281546001810183556000928352602092839020825160049092020180546001600160a01b031981166001600160a01b03909316928317825593830151929390929183916001600160a81b03191617600160a01b836002811115612066576120666130b6565b021790555060408201518154606084015160808501511515600160f01b0260ff60f01b196001600160401b03909216600160b01b0267ffffffffffffffff60b01b1960ff909516600160a81b029490941668ffffffffffffffffff60a81b1990931692909217929092179190911617815560a082015160018201906120eb908261321c565b5060c08201516002820190612100908261321c565b5060e0820151600390910180546101008401516101209094015163ffffffff908116600160401b026bffffffff0000000000000000199582166401000000000267ffffffffffffffff19909316919094161717929092161790556121658160016132db565b600084815260018601602052604090205585517fbef4c272617e8773ee6209dd5f05e50ca5be37232b0c94cb8439d8a56bfdb7ce9060028111156121ab576121ab6130b6565b8760200151886040015189608001518a60a001518b60c001518c60e001518d61010001518e61012001516040516121ea99989796959493929190613334565b60405180910390a195945050505050565b7fec7e8c1c441439dd40959777f4c577ea0cd42fcc1dbe59d2bd0f5d9c55df8db68054600090829084908110612233576122336130cc565b60009182526020909120600490910201905060018154600160a01b900460ff166002811115612264576122646130b6565b14612271576122716133a8565b61227a836126c4565b600f92909201805461ffff191661ffff909316929092179091555050565b620151808211156122dc5760405162461bcd60e51b815260206004820152600e60248201526d0ecc2d8eaca40e8dede40d0d2ced60931b6044820152606401610209565b620151806103e86122ed83866133be565b6122f791906133d5565b11156123365760405162461bcd60e51b815260206004820152600e60248201526d0ecc2d8eaca40e8dede40d0d2ced60931b6044820152606401610209565b505050565b80518251146123805760405162461bcd60e51b81526020600482015260116024820152701b195b99dd1a1cc81b9bdd08195c5d585b607a1b6044820152606401610209565b6001825110156123d25760405162461bcd60e51b815260206004820152601c60248201527f6174206c65617374206f6e6520666163746f72207265717569726564000000006044820152606401610209565b60005b8251811015612336576127108382815181106123f3576123f36130cc565b60200260200101511161243d5760405162461bcd60e51b8152602060048201526012602482015271666163746f72206e6f742061626f7665203160701b6044820152606401610209565b82818151811061244f5761244f6130cc565b6020026020010151828281518110612469576124696130cc565b602002602001015111156124d15760405162461bcd60e51b815260206004820152602960248201527f7661756c7420636f6c6c61746572616c20666163746f722068696768657220746044820152681a185b881d1bdd185b60ba1b6064820152608401610209565b8015806125195750826124e56001836133f7565b815181106124f5576124f56130cc565b602002602001015183828151811061250f5761250f6130cc565b6020026020010151115b61255e5760405162461bcd60e51b8152602060048201526016602482015275666163746f7273206e6f7420696e6372656173696e6760501b6044820152606401610209565b6001016123d5565b6000816001600160a01b031660a0846002811115612586576125866130b6565b901b1790505b92915050565b600060ff8211156125f35760405162461bcd60e51b815260206004820152602560248201527f53616665436173743a2076616c756520646f65736e27742066697420696e2038604482015264206269747360d81b6064820152608401610209565b5090565b60006001600160401b038211156125f35760405162461bcd60e51b815260206004820152602660248201527f53616665436173743a2076616c756520646f65736e27742066697420696e203660448201526534206269747360d01b6064820152608401610209565b600063ffffffff8211156125f35760405162461bcd60e51b815260206004820152602660248201527f53616665436173743a2076616c756520646f65736e27742066697420696e203360448201526532206269747360d01b6064820152608401610209565b600061ffff8211156125f35760405162461bcd60e51b815260206004820152602660248201527f53616665436173743a2076616c756520646f65736e27742066697420696e203160448201526536206269747360d01b6064820152608401610209565b828054828255906000526020600020908101928215612762579160200282015b82811115612762578251825591602001919060010190612747565b506125f39291505b808211156125f3576000815560010161276a565b6000806020838503121561279157600080fd5b82356001600160401b03808211156127a857600080fd5b818501915085601f8301126127bc57600080fd5b8135818111156127cb57600080fd5b8660208285010111156127dd57600080fd5b60209290920196919550909350505050565b6001600160a01b0381168114610a0757600080fd5b803561280f816127ef565b919050565b634e487b7160e01b600052604160045260246000fd5b60405161014081016001600160401b038111828210171561284d5761284d612814565b60405290565b6040516106c081016001600160401b038111828210171561284d5761284d612814565b604051601f8201601f191681016001600160401b038111828210171561289e5761289e612814565b604052919050565b600082601f8301126128b757600080fd5b81356001600160401b038111156128d0576128d0612814565b6128e3601f8201601f1916602001612876565b8181528460208386010111156128f857600080fd5b816020850160208301376000918101602001919091529392505050565b803560ff8116811461280f57600080fd5b803563ffffffff8116811461280f57600080fd5b803561ffff8116811461280f57600080fd5b80356001600160401b038116811461280f57600080fd5b8015158114610a0757600080fd5b803561280f81612963565b80356001600160801b038116811461280f57600080fd5b60006001600160401b038211156129ac576129ac612814565b5060051b60200190565b600082601f8301126129c757600080fd5b813560206129dc6129d783612993565b612876565b8083825260208201915060208460051b8701019350868411156129fe57600080fd5b602086015b84811015612a1a5780358352918301918301612a03565b509695505050505050565b80356003811061280f57600080fd5b600082601f830112612a4557600080fd5b81356020612a556129d783612993565b82815260059290921b84018101918181019086841115612a7457600080fd5b8286015b84811015612a1a5780356001600160401b0380821115612a985760008081fd5b90880190610140828b03601f1901811315612ab35760008081fd5b612abb61282a565b612ac6888501612a25565b81526040612ad5818601612804565b89830152606080860135828401526080915081860135818401525060a0612afd818701612971565b8284015260c091508186013585811115612b175760008081fd5b612b258f8c838a01016128a6565b82850152505060e08086013585811115612b3f5760008081fd5b612b4d8f8c838a01016128a6565b838501525061010094508486013581840152505061012080850135848301528285013581830152508087525050505083830192508381019050612a78565b60008060008060808587031215612ba157600080fd5b8435612bac816127ef565b93506020850135612bbc816127ef565b925060408501356001600160401b0380821115612bd857600080fd5b908601906106c08289031215612bed57600080fd5b612bf5612853565b612bfe83612804565b8152612c0c60208401612804565b6020820152612c1d60408401612804565b6040820152612c2e60608401612804565b6060820152612c3f60808401612804565b608082015260a083013582811115612c5657600080fd5b612c628a8286016128a6565b60a083015250612c7460c08401612804565b60c0820152612c8560e08401612804565b60e0820152610100612c98818501612804565b90820152610120612caa848201612804565b90820152610140612cbc848201612804565b90820152610160612cce848201612915565b90820152610180612ce0848201612915565b908201526101a083810135908201526101c0612cfd818501612926565b908201526101e0612d0f848201612926565b90820152610200612d2184820161293a565b90820152610220612d3384820161294c565b90820152610240612d4584820161294c565b90820152610260612d5784820161294c565b90820152610280612d6984820161293a565b908201526102a0612d7b848201612971565b908201526102c0612d8d84820161294c565b908201526102e0612d9f84820161294c565b90820152610300612db184820161294c565b90820152610320612dc384820161293a565b90820152610340612dd5848201612926565b90820152610360612de7848201612926565b90820152610380612df984820161294c565b908201526103a0612e0b84820161297c565b908201526103c0612e1d84820161293a565b908201526103e0612e2f84820161293a565b90820152610400612e4184820161297c565b90820152610420612e5384820161294c565b90820152610440612e6584820161294c565b90820152610460612e7784820161294c565b90820152610480612e8984820161294c565b908201526104a0612e9b84820161294c565b908201526104c0612ead84820161294c565b908201526104e0612ebf84820161294c565b90820152610500612ed184820161294c565b90820152610520612ee3848201612926565b90820152610540612ef584820161294c565b90820152610560612f0784820161294c565b90820152610580612f1984820161294c565b908201526105a0612f2b84820161294c565b908201526105c0612f3d84820161294c565b908201526105e0612f4f848201612926565b90820152610600612f6184820161294c565b908201526106208381013583811115612f7957600080fd5b612f858b8287016129b6565b8284015250506106408084013583811115612f9f57600080fd5b612fab8b8287016129b6565b828401525050610660612fbf81850161294c565b90820152610680612fd184820161294c565b908201526106a0612fe384820161294c565b9082015293506060870135915080821115612ffd57600080fd5b5061300a87828801612a34565b91505092959194509250565b60006020828403121561302857600080fd5b813561072d816127ef565b6000806040838503121561304657600080fd5b8235613051816127ef565b91506020830135613061816127ef565b809150509250929050565b8183823760009101908152919050565b60006020828403121561308e57600080fd5b815161072d816127ef565b6000602082840312156130ab57600080fd5b815161072d81612963565b634e487b7160e01b600052602160045260246000fd5b634e487b7160e01b600052603260045260246000fd5b6020808252600e908201526d63616e6e6f74206265207a65726f60901b604082015260600190565b6020808252601390820152720c4d2e0e640ecc2d8eaca40e8dede40d0d2ced606b1b604082015260600190565b634e487b7160e01b600052601160045260246000fd5b63ffffffff81811683821601908082111561316a5761316a613137565b5092915050565b6020808252600f908201526e1d985b1d59481d1bdbc81cdb585b1b608a1b604082015260600190565b600181811c908216806131ae57607f821691505b6020821081036131ce57634e487b7160e01b600052602260045260246000fd5b50919050565b601f821115612336576000816000526020600020601f850160051c810160208610156131fd5750805b601f850160051c820191505b8181101561044257828155600101613209565b81516001600160401b0381111561323557613235612814565b61324981613243845461319a565b846131d4565b602080601f83116001811461327e57600084156132665750858301515b600019600386901b1c1916600185901b178555610442565b600085815260208120601f198616915b828110156132ad5788860151825594840194600190910190840161328e565b50858210156132cb5787850151600019600388901b60f8161c191681555b5050505050600190811b01905550565b8082018082111561258c5761258c613137565b6000815180845260005b81811015613314576020818501810151868301820152016132f8565b506000602082860101526020601f19601f83011685010191505092915050565b60ff8a1681526001600160a01b038916602082015260408101889052861515606082015261012060808201819052600090613371838201896132ee565b905082810360a084015261338581886132ee565b60c0840196909652505060e0810192909252610100909101529695505050505050565b634e487b7160e01b600052600160045260246000fd5b808202811582820484141761258c5761258c613137565b6000826133f257634e487b7160e01b600052601260045260246000fd5b500490565b8181038181111561258c5761258c61313756fe2aa47ee5db910f3b2a06970c443249cc77dbd9f96100cfebc1775ab7fb1d1824a2646970667358221220f99765fb0dfceac973af04fcf024b0455cda8c2e5e53c574776cc57677584c4a64736f6c63430008170033",
  "linkReferences": {},
  "deployedLinkReferences": {}
}