{
  "_format": "hh-sol-artifact-1",
  "contractName": "AgentInfoFacet",
  "sourceName": "contracts/fasset/facets/AgentInfoFacet.sol",
  "abi": [
    {
      "inputs": [
        {
          "internalType": "address",
          "name": "_agentVault",
          "type": "address"
        }
      ],
      "name": "getAgentFullPoolCollateral",
      "outputs": [
        {
          "internalType": "uint256",
          "name": "",
          "type": "uint256"
        }
      ],
      "stateMutability": "view",
      "type": "function"
    },
    {
      "inputs": [
        {
          "internalType": "address",
          "name": "_agentVault",
          "type": "address"
        }
      ],
      "name": "getAgentFullVaultCollateral",
      "outputs": [
        {
          "internalType": "uint256",
          "name": "",
          "type": "uint256"
        }
      ],
      "stateMutability": "view",
      "type": "function"
    },
    {
      "inputs": [
        {
          "internalType": "address",
          "name": "_agentVault",
          "type": "address"
        }
      ],
      "name": "getAgentInfo",
      "outputs": [
        {
          "components": [
            {
              "internalType": "enum AgentInfo.Status",
              "name": "status",
              "type": "uint8"
            },
            {
              "internalType": "address",
              "name": "ownerManagementAddress",
              "type": "address"
            },
            {
              "internalType": "address",
              "name": "ownerWorkAddress",
              "type": "address"
            },
            {
              "internalType": "address",
              "name": "collateralPool",
              "type": "address"
            },
            {
              "internalType": "string",
              "name": "underlyingAddressString",
              "type": "string"
            },
            {
              "internalType": "bool",
              "name": "publiclyAvailable",
              "type": "bool"
            },
            {
              "internalType": "uint256",
              "name": "feeBIPS",
              "type": "uint256"
            },
            {
              "internalType": "uint256",
              "name": "poolFeeShareBIPS",
              "type": "uint256"
            },
            {
              "internalType": "contract IERC20",
              "name": "vaultCollateralToken",
              "type": "address"
            },
            {
              "internalType": "uint256",
              "name": "mintingVaultCollateralRatioBIPS",
              "type": "uint256"
            },
            {
              "internalType": "uint256",
              "name": "mintingPoolCollateralRatioBIPS",
              "type": "uint256"
            },
            {
              "internalType": "uint256",
              "name": "freeCollateralLots",
              "type": "uint256"
            },
            {
              "internalType": "uint256",
              "name": "totalVaultCollateralWei",
              "type": "uint256"
            },
            {
              "internalType": "uint256",
              "name": "freeVaultCollateralWei",
              "type": "uint256"
            },
            {
              "internalType": "uint256",
              "name": "vaultCollateralRatioBIPS",
              "type": "uint256"
            },
            {
              "internalType": "uint256",
              "name": "totalPoolCollateralNATWei",
              "type": "uint256"
            },
            {
              "internalType": "uint256",
              "name": "freePoolCollateralNATWei",
              "type": "uint256"
            },
            {
              "internalType": "uint256",
              "name": "poolCollateralRatioBIPS",
              "type": "uint256"
            },
            {
              "internalType": "uint256",
              "name": "totalAgentPoolTokensWei",
              "type": "uint256"
            },
            {
              "internalType": "uint256",
              "name": "announcedVaultCollateralWithdrawalWei",
              "type": "uint256"
            },
            {
              "internalType": "uint256",
              "name": "announcedPoolTokensWithdrawalWei",
              "type": "uint256"
            },
            {
              "internalType": "uint256",
              "name": "freeAgentPoolTokensWei",
              "type": "uint256"
            },
            {
              "internalType": "uint256",
              "name": "mintedUBA",
              "type": "uint256"
            },
            {
              "internalType": "uint256",
              "name": "reservedUBA",
              "type": "uint256"
            },
            {
              "internalType": "uint256",
              "name": "redeemingUBA",
              "type": "uint256"
            },
            {
              "internalType": "uint256",
              "name": "poolRedeemingUBA",
              "type": "uint256"
            },
            {
              "internalType": "uint256",
              "name": "dustUBA",
              "type": "uint256"
            },
            {
              "internalType": "uint256",
              "name": "ccbStartTimestamp",
              "type": "uint256"
            },
            {
              "internalType": "uint256",
              "name": "liquidationStartTimestamp",
              "type": "uint256"
            },
            {
              "internalType": "uint256",
              "name": "maxLiquidationAmountUBA",
              "type": "uint256"
            },
            {
              "internalType": "uint256",
              "name": "liquidationPaymentFactorVaultBIPS",
              "type": "uint256"
            },
            {
              "internalType": "uint256",
              "name": "liquidationPaymentFactorPoolBIPS",
              "type": "uint256"
            },
            {
              "internalType": "int256",
              "name": "underlyingBalanceUBA",
              "type": "int256"
            },
            {
              "internalType": "uint256",
              "name": "requiredUnderlyingBalanceUBA",
              "type": "uint256"
            },
            {
              "internalType": "int256",
              "name": "freeUnderlyingBalanceUBA",
              "type": "int256"
            },
            {
              "internalType": "uint256",
              "name": "announcedUnderlyingWithdrawalId",
              "type": "uint256"
            },
            {
              "internalType": "uint256",
              "name": "buyFAssetByAgentFactorBIPS",
              "type": "uint256"
            },
            {
              "internalType": "uint256",
              "name": "poolExitCollateralRatioBIPS",
              "type": "uint256"
            },
            {
              "internalType": "uint256",
              "name": "poolTopupCollateralRatioBIPS",
              "type": "uint256"
            },
            {
              "internalType": "uint256",
              "name": "poolTopupTokenPriceFactorBIPS",
              "type": "uint256"
            }
          ],
          "internalType": "struct AgentInfo.Info",
          "name": "",
          "type": "tuple"
        }
      ],
      "stateMutability": "view",
      "type": "function"
    },
    {
      "inputs": [
        {
          "internalType": "address",
          "name": "_agentVault",
          "type": "address"
        }
      ],
      "name": "getAgentLiquidationFactorsAndMaxAmount",
      "outputs": [
        {
          "internalType": "uint256",
          "name": "liquidationPaymentFactorVaultBIPS",
          "type": "uint256"
        },
        {
          "internalType": "uint256",
          "name": "liquidationPaymentFactorPoolBIPS",
          "type": "uint256"
        },
        {
          "internalType": "uint256",
          "name": "maxLiquidationAmountUBA",
          "type": "uint256"
        }
      ],
      "stateMutability": "view",
      "type": "function"
    },
    {
      "inputs": [
        {
          "internalType": "address",
          "name": "_agentVault",
          "type": "address"
        }
      ],
      "name": "getAgentVaultCollateralToken",
      "outputs": [
        {
          "internalType": "contract IERC20",
          "name": "",
          "type": "address"
        }
      ],
      "stateMutability": "view",
      "type": "function"
    },
    {
      "inputs": [
        {
          "internalType": "address",
          "name": "_agentVault",
          "type": "address"
        }
      ],
      "name": "getAgentVaultOwner",
      "outputs": [
        {
          "internalType": "address",
          "name": "_ownerManagementAddress",
          "type": "address"
        }
      ],
      "stateMutability": "view",
      "type": "function"
    },
    {
      "inputs": [
        {
          "internalType": "uint256",
          "name": "_start",
          "type": "uint256"
        },
        {
          "internalType": "uint256",
          "name": "_end",
          "type": "uint256"
        }
      ],
      "name": "getAllAgents",
      "outputs": [
        {
          "internalType": "address[]",
          "name": "_agents",
          "type": "address[]"
        },
        {
          "internalType": "uint256",
          "name": "_totalLength",
          "type": "uint256"
        }
      ],
      "stateMutability": "view",
      "type": "function"
    },
    {
      "inputs": [
        {
          "internalType": "address",
          "name": "_agentVault",
          "type": "address"
        }
      ],
      "name": "getCollateralPool",
      "outputs": [
        {
          "internalType": "address",
          "name": "",
          "type": "address"
        }
      ],
      "stateMutability": "view",
      "type": "function"
    }
  ],
  "bytecode": "0x608060405234801561001057600080fd5b50612e5f806100206000396000f3fe608060405234801561001057600080fd5b50600436106100885760003560e01c80636e61164f1161005b5780636e61164f146101225780637e2ae0d714610135578063b19aec1714610156578063c97c1dcc1461017757600080fd5b8063152052b01461008d5780635252f3a2146100b6578063529cc2b9146100e15780635f0169061461010f575b600080fd5b6100a061009b366004612768565b61018a565b6040516100ad9190612803565b60405180910390f35b6100c96100c4366004612768565b6101a1565b6040516001600160a01b0390911681526020016100ad565b6100f46100ef366004612768565b6101bc565b604080519384526020840192909252908201526060016100ad565b6100c961011d366004612768565b6101d7565b6100c9610130366004612768565b6101e2565b610148610143366004612768565b6101ed565b6040519081526020016100ad565b610169610164366004612a59565b6101fa565b6040516100ad929190612a7b565b610148610185366004612768565b610214565b610192612604565b61019b82610221565b92915050565b60006101ac82610818565b546001600160a01b031692915050565b60008060006101ca846108b2565b9250925092509193909250565b600061019b826108e9565b600061019b826108fc565b600061019b82600161091a565b60606000610208848461093b565b915091505b9250929050565b600061019b82600061091a565b610229612604565b600061023483610818565b9050600061024182610a4c565b9050600061024e83610af6565b9050600061025b84610b43565b9050600061026885610b7c565b905061027385610bf0565b8690600481111561028657610286612785565b9081600481111561029957610299612785565b90525060018501546001600160a01b031660208701526102e07f4f24f5c433db0962dac0d2c8b84197a6e6c7cc4e5d9ebe1916a1b6193da2f341546001600160a01b031690565b6020870151604051631f86345d60e31b81526001600160a01b03918216600482015291169063fc31a2e890602401602060405180830381865afa15801561032b573d6000803e3d6000fd5b505050506040513d601f19601f8201168201806040525081019061034f9190612ad1565b6001600160a01b039081166040880152855416606087015260028501805461037690612aee565b80601f01602080910402602001604051908101604052809291908181526020018280546103a290612aee565b80156103ef5780601f106103c4576101008083540402835291602001916103ef565b820191906000526020600020905b8154815290600101906020018083116103d257829003601f168201915b50505050506080870152600485015463ffffffff6501000000000082048116151560a089015284546001600160a01b031661010089015261ffff69010000000000000000008304811660c08a0152600160581b83041660e0890152600385015461046392600160681b900482169116610cba565b6101208701526004850154600383015461048d9163ffffffff600160881b90910481169116610cba565b61014087015261049d8486610cd2565b61016087015283516020015161018087015283516104bb9086610d26565b6101a087015280516101c087015260208085018051909101516101e0880152516104e59086610d26565b61020087015260208082015161022088015260408501805190910151610240880152516105129086610d26565b6102a0870152610523856000610d4e565b546001600160801b031661026087015261053e856002610d4e565b546001600160801b0316610280870152600585015461056c90600160401b90046001600160401b0316610d9b565b6102c08701526005850154610589906001600160401b0316610d9b565b6102e087015260058501546105ad90600160801b90046001600160401b0316610d9b565b61030087015260058501546105d190600160c01b90046001600160401b0316610d9b565b61032087015260068501546105ee906001600160401b0316610d9b565b6103408701526105fd85610dee565b61036087015261060c85610e6b565b61038087015261061c8582610f50565b6103a08901526103e08801526103c08701526006850154600160401b9004600f0b61040087015261064c85610fee565b610420870181905261065d90611089565b86610400015161066d9190612b38565b6104408701526006850154600160c01b90046001600160401b0316610460870152600a850154600160801b900461ffff16610480870152845460408051633cfc747d60e01b815290516001600160a01b0390921691633cfc747d916004808201926020929091908290030181865afa1580156106ed573d6000803e3d6000fd5b505050506040513d601f19601f820116820180604052508101906107119190612b58565b63ffffffff166104a087015284546040805163b337929b60e01b815290516001600160a01b039092169163b337929b916004808201926020929091908290030181865afa158015610766573d6000803e3d6000fd5b505050506040513d601f19601f8201168201806040525081019061078a9190612b58565b63ffffffff166104c0870152845460408051634a4ac2ef60e01b815290516001600160a01b0390921691634a4ac2ef916004808201926020929091908290030181865afa1580156107df573d6000803e3d6000fd5b505050506040513d601f19601f820116820180604052508101906108039190612b7e565b61ffff166104e0870152509395945050505050565b600080516020612dea83398151915268010000000000000000600160e01b03604083901b161880600060048084015460ff169081111561085a5761085a612785565b036108ac5760405162461bcd60e51b815260206004820152601b60248201527f696e76616c6964206167656e74207661756c742061646472657373000000000060448201526064015b60405180910390fd5b50919050565b6000806000806108c185610818565b905060006108ce82610b7c565b90506108da8282610f50565b94509450945050509193909250565b60006101ac6108f783610818565b610af6565b600061090782610818565b600101546001600160a01b031692915050565b60008061092f61092985610818565b846110f7565b60200151949350505050565b7fec7e8c1c441439dd40959777f4c577ea0cd42fcc1dbe59d2bd0f5d9c55df8db954606090600080516020612e0a8339815191526109798483611179565b93506109858585611179565b94506109918585612ba2565b6001600160401b038111156109a8576109a8612bb5565b6040519080825280602002602001820160405280156109d1578160200160208202803683370190505b509250845b84811015610a43578160030181815481106109f3576109f3612bcb565b6000918252602090912001546001600160a01b031684610a138884612ba2565b81518110610a2357610a23612bcb565b6001600160a01b03909216602092830291909101909101526001016109d6565b50509250929050565b610ab76040805160c081019091526000606082018181526080830182905260a083019190915281908152604080516060810182526000808252602082810182905292820152910190815260408051606081018252600080825260208281018290529282015291015290565b6000610ac283611188565b90506040518060600160405280610ad88561124e565b8152602001828152602001610aed85846112d9565b90529392505050565b600080600080516020612e0a83398151915260048401548154919250829161010090910461ffff16908110610b2d57610b2d612bcb565b9060005260206000209060040201915050919050565b600080600080516020612e0a833981519152600484015481549192508291630100000090910461ffff16908110610b2d57610b2d612bcb565b610ba76040518060800160405280600081526020016000815260200160008152602001600081525090565b600080610bb58460006114b0565b91509150600080610bc78660016114b0565b604080516080810182529687526020870192909252908501939093525050606082015292915050565b600481015460009060ff166001816004811115610c0f57610c0f612785565b03610c1d5750600092915050565b6002816004811115610c3157610c31612785565b03610c6e576000610c41846114fe565b90506001816002811115610c5757610c57612785565b14610c63576002610c66565b60015b949350505050565b6003816004811115610c8257610c82612785565b03610c905750600392915050565b6004816004811115610ca457610ca4612785565b14610cb157610cb1612be1565b50600492915050565b6000818311610cc95781610ccb565b825b9392505050565b600080610ce38460000151846115db565b90506000610cf58560200151856115db565b90506000610d078660400151866115db565b9050610d1c83610d178484611179565b611179565b9695505050505050565b600080610d338484611611565b90506000610d1c82866020015161174190919063ffffffff16565b60006001826002811115610d6457610d64612785565b03610d7157610d71612be1565b6000826002811115610d8557610d85612785565b14610d935782600901610ccb565b505060080190565b7f4f24f5c433db0962dac0d2c8b84197a6e6c7cc4e5d9ebe1916a1b6193da2f34654600090600080516020612dca83398151915290610ccb90600160901b90046001600160401b03908116908516612bf7565b6000600260048084015460ff1690811115610e0b57610e0b612785565b14610e1857506000919050565b60016004830154600160e81b900460ff166002811115610e3a57610e3a612785565b14610e46576000610e5c565b6004820154600160a81b90046001600160401b03165b6001600160401b031692915050565b600481015460009060ff166002816004811115610e8a57610e8a612785565b03610f15576000600080516020612dca8339815191529050600060016004860154600160e81b900460ff166002811115610ec657610ec6612785565b14905080610ed5576000610ee4565b60118201546001600160401b03165b6004860154610f039190600160a81b90046001600160401b0316612c0e565b6001600160401b031695945050505050565b6003816004811115610f2957610f29612785565b03610f4757505060040154600160a81b90046001600160401b031690565b50600092915050565b600080600080610f5f866114fe565b90506002816002811115610f7557610f75612785565b14610f8b57600080600093509350935050610fe7565b610f9e8686600001518760200151611763565b86519195509350600090610fcf90610fb9908990888561187c565b610fca89896020015188600161187c565b610cba565b9050610fe2610fdd82611992565b610d9b565b925050505b9250925092565b7f4f24f5c433db0962dac0d2c8b84197a6e6c7cc4e5d9ebe1916a1b6193da2f346546005820154600091600080516020612dca833981519152918391600160901b90046001600160401b039081169161105891600160801b8204811691600160401b900416612c0e565b6001600160401b031661106b9190612bf7565b600d830154909150610c66908290600160401b900461ffff166119fa565b60006001600160ff1b038211156110f35760405162461bcd60e51b815260206004820152602860248201527f53616665436173743a2076616c756520646f65736e27742066697420696e2061604482015267371034b73a191a9b60c11b60648201526084016108a3565b5090565b61111c6040805160608101909152806000815260200160008152602001600081525090565b600082600281111561113057611130612785565b036111455761113e8361124e565b905061019b565b600182600281111561115957611159612785565b036111675761113e83611188565b61113e8361117485611188565b6112d9565b6000818310610cc95781610ccb565b6111ad6040805160608101909152806000815260200160008152602001600081525090565b60006111b883610b43565b60408051606081019091529091508060018152825485546040516370a0823160e01b81526001600160a01b0391821660048201526020909301929116906370a08231906024015b602060405180830381865afa15801561121c573d6000803e3d6000fd5b505050506040513d601f19601f820116820180604052508101906112409190612c2e565b8152602001610aed83611a09565b6112736040805160608101909152806000815260200160008152602001600081525090565b600061127e83610af6565b6040805160608101825260008152825482516370a0823160e01b8152600080516020612dea833981519152881890931c6001600160a01b039081166004850152939450909260208401929116906370a08231906024016111ff565b6112fe6040805160608101909152806000815260200160008152602001600081525090565b8254604080516332f7ce0b60e21b815290516000926001600160a01b03169163cbdf382c9160048083019260209291908290030181865afa158015611347573d6000803e3d6000fd5b505050506040513d601f19601f8201168201806040525081019061136b9190612ad1565b905060006001600160a01b0382166370a08231600080516020612dea833981519152871860401c6040516001600160e01b031960e084901b1681526001600160a01b039091166004820152602401602060405180830381865afa1580156113d6573d6000803e3d6000fd5b505050506040513d601f19601f820116820180604052508101906113fa9190612c2e565b90506000826001600160a01b03166318160ddd6040518163ffffffff1660e01b8152600401602060405180830381865afa15801561143c573d6000803e3d6000fd5b505050506040513d601f19601f820116820180604052508101906114609190612c2e565b90506000856020015160000361147757600061148c565b6020860151604087015161148c918490611a1f565b60408051606081018252600281526020810195909552840152509095945050505050565b6000806000806114c08686611b39565b9150915060006114d08388611c9c565b905060006114de8389611c9c565b9050836040015194506114f18282610cba565b9550505050509250929050565b600080600080516020612dca833981519152600484015490915060ff16600281600481111561152f5761152f612785565b036115ae57600060016004860154600160e81b900460ff16600281111561155857611558612785565b148015611594575060118301546004860154611587916001600160401b0390811691600160a81b900416612c0e565b6001600160401b03164211155b9050806115a25760026115a5565b60015b95945050505050565b60038160048111156115c2576115c2612785565b036115d1575060029392505050565b5060009392505050565b6000806115e88484610d26565b905060006115f68585611d5d565b9050806000036116075760006115a5565b6115a58183612c5d565b6000806000611624848660000151611daa565b6005860154919350915060009061164d906001600160401b03600160401b820481169116612c71565b9050600061166984611663848a60400151611eb0565b906119fa565b9050600060018851600281111561168257611682612785565b146116a1576005870154600160801b90046001600160401b03166116b7565b6005870154600160c01b90046001600160401b03165b905060006116d685611663846001600160401b03168c60400151611eb0565b9050600060018a5160028111156116ef576116ef612785565b036116fb576000611713565b8951611708908a90610d4e565b546001600160801b03165b6001600160801b03169050806117298386612c71565b6117339190612c71565b9a9950505050505050505050565b600080838311156117575750600090508061020d565b50600193919092039150565b600080600080516020612dca8339815191528161177f87611eca565b9050600082601501828154811061179857611798612bcb565b906000526020600020015490506117ce8360160183815481106117bd576117bd612bcb565b906000526020600020015482611179565b945060006117db89610af6565b905060006117e88a610b43565b90506117f382611fc4565b158015611804575061180481611fc4565b156118125760009650611836565b61181b82611fc4565b801561182d575061182b81611fc4565b155b15611836578296505b88871115611842578896505b61184c8784612ba2565b95508786111561186f5787955061186c6118668785612ba2565b8a611179565b96505b5050505050935093915050565b600080600080516020612dca8339815191529050600360048088015460ff16908111156118ab576118ab612785565b036118cc5750506005840154600160401b90046001600160401b0316610c66565b60006118da87600286611ff8565b90508581116118ee57600092505050610c66565b848611611912575050506005840154600160401b90046001600160401b0316610c66565b60006119476119218884612ba2565b61192b8885612ba2565b60058b0154600160401b90046001600160401b0316919061205c565b600d8401549091506119639082906001600160401b0316612099565b6005890154909150611986908290600160401b90046001600160401b0316611179565b98975050505050505050565b60006001600160401b038211156110f35760405162461bcd60e51b815260206004820152602660248201527f53616665436173743a2076616c756520646f65736e27742066697420696e203660448201526534206269747360d01b60648201526084016108a3565b6000610ccb8383612710611a1f565b6000611a168260006120d0565b50909392505050565b6000808211611a635760405162461bcd60e51b815260206004820152601060248201526f4469766973696f6e206279207a65726f60801b60448201526064016108a3565b83600003611a7357506000610ccb565b83830283858281611a8657611a86612c47565b0403611aa457828181611a9b57611a9b612c47565b04915050610ccb565b506000611ab18386612c5d565b90506000611abf8487612c84565b90506000611acd8587612c5d565b90506000611adb8688612c84565b905085611ae88285612bf7565b611af29190612c5d565b611afc8385612bf7565b611b068387612bf7565b88611b118689612bf7565b611b1b9190612bf7565b611b259190612c71565b611b2f9190612c71565b6119869190612c71565b611b5e6040805160608101909152806000815260200160008152602001600081525090565b611b836040805160608101909152806000815260200160008152602001600081525090565b6000611b8f8585612288565b90506000611b9d8686612334565b90506000611baa83611fc4565b611bb5576000611c22565b82546040516370a0823160e01b81526001600160a01b038481166004830152909116906370a0823190602401602060405180830381865afa158015611bfe573d6000803e3d6000fd5b505050506040513d601f19601f82011682018060405250810190611c229190612c2e565b9050600080611c3085612377565b915091506040518060600160405280896002811115611c5157611c51612785565b81526020018481526020018381525096506040518060600160405280896002811115611c7f57611c7f612785565b815260200184815260200182815250955050505050509250929050565b600080600184516002811115611cb457611cb4612785565b14611cd3576005830154600160801b90046001600160401b0316611ce9565b6005830154600160c01b90046001600160401b03165b60058401546001600160401b0391821692506000918391611d159181811691600160401b900416612c71565b611d1f9190612c71565b905080600003611d38576402540be4009250505061019b565b6000611d48828760400151611eb0565b6020870151909150610d1c9061271083611a1f565b600080600080516020612dca83398151915290506000611d81848660000151611daa565b50600d83015460408701519192506115a5918391611663916001600160401b0390911690611eb0565b6000806002836002811115611dc157611dc1612785565b03611e2957600080611dd4866001611daa565b915091506000611def600080516020612dca83398151915290565b600c015463ffffffff64010000000090910481169150611e1390829084906119fa16565b9350611e1f81846119fa565b945050505061020d565b6001836002811115611e3d57611e3d612785565b03611e7857611e4b84610b43565b60030154600485015463ffffffff9182169250611e7191600160881b9091041682610cba565b915061020d565b611e8184610af6565b60030154600485015463ffffffff9182169250611ea791600160681b9091041682610cba565b91509250929050565b6000610ccb82611ec26009600a612d7c565b859190611a1f565b600080600080516020612dca83398151915290506000600260048086015460ff1690811115611efb57611efb612785565b148015611f27575060016004850154600160e81b900460ff166002811115611f2557611f25612785565b145b9050600081611f37576000611f46565b60118301546001600160401b03165b60048601546001600160401b039182169250600091611f6f918491600160a81b90910416612c71565b601485015490915060009064010000000090046001600160401b0316611f958342612ba2565b611f9f9190612c5d565b9050611fb98160018760150180549050610d179190612ba2565b979650505050505050565b8054600090600160b01b90046001600160401b0316158061019b5750505442600160b01b9091046001600160401b03161190565b6000806120058584612288565b9050600184600281111561201b5761201b612785565b148061202e575061202c8584612426565b155b15612044576003015463ffffffff169050610ccb565b60030154600160401b900463ffffffff169050610ccb565b60008061206a858585611a1f565b90506000838061207c5761207c612c47565b858709905080156120905781600101610d1c565b50949350505050565b6000806120a68385612c84565b905080156120c857826120b98286612ba2565b6120c39190612c71565b610c66565b509192915050565b60008060008060008061216f8860010180546120eb90612aee565b80601f016020809104026020016040519081016040528092919081815260200182805461211790612aee565b80156121645780601f1061213957610100808354040283529160200191612164565b820191906000526020600020905b81548152906001019060200180831161214757829003601f168201915b50505050508861248f565b8a549295509093509150600160f01b900460ff16156121b65787546000906121a590600160a81b900460ff16600183878661257d565b9650919450849350610fe792505050565b60008060006122518b60020180546121cd90612aee565b80601f01602080910402602001604051908101604052809291908181526020018280546121f990612aee565b80156122465780601f1061221b57610100808354040283529160200191612246565b820191906000526020600020905b81548152906001019060200180831161222957829003601f168201915b50505050508b61248f565b8d54929550909350915060009061227590600160a81b900460ff1685848a8961257d565b9950949750909550610fe7945050505050565b6000600282600281111561229e5761229e612785565b036122ab576122ab612be1565b600080516020612e0a83398151915260008360028111156122ce576122ce612785565b0361230a57600484015481548291610100900461ffff169081106122f4576122f4612bcb565b906000526020600020906004020191505061019b565b6004840154815482916301000000900461ffff169081106122f4576122f4612bcb565b5092915050565b6000600182600281111561234a5761234a612785565b1461236857600080516020612dea833981519152831860401c610ccb565b5050546001600160a01b031690565b600080600080516020612dca83398151915281808061239687826120d0565b92509250925060008060006123ac8a60016120d0565b60108a0154929550909350915060009085906123d890600160c01b90046001600160401b031684612c71565b1015801561240557506010880154869061240290600160c01b90046001600160401b031685612c71565b10155b9050869950806124155786612417565b835b98505050505050505050915091565b60008082600281111561243b5761243b612785565b0361245757506004820154600160f01b9004600116151561019b565b600182600281111561246b5761246b612785565b1461247857612478612be1565b506004820154600160f01b9004600216151561019b565b7f4f24f5c433db0962dac0d2c8b84197a6e6c7cc4e5d9ebe1916a1b6193da2f3445460009081908190600080516020612dca833981519152906001600160a01b031685156125515760405163e4a0a55b60e01b81526001600160a01b0382169063e4a0a55b90612503908a90600401612d88565b606060405180830381865afa158015612520573d6000803e3d6000fd5b505050506040513d601f19601f820116820180604052508101906125449190612d9b565b9450945094505050610fe7565b60405163524f388960e01b81526001600160a01b0382169063524f388990612503908a90600401612d88565b6000600080516020612dca83398151915281600961259b878a612c71565b6125a59190612c71565b600a8301549091506000906125c5908690600160a81b900460ff16612c71565b9050808210156125d7576125d7612be1565b6125f76125e48284612ba2565b6125ef90600a612d7c565b87908a611a1f565b9998505050505050505050565b604080516105008101909152806000815260200160006001600160a01b0316815260200160006001600160a01b0316815260200160006001600160a01b0316815260200160608152602001600015158152602001600081526020016000815260200160006001600160a01b03168152602001600081526020016000815260200160008152602001600081526020016000815260200160008152602001600081526020016000815260200160008152602001600081526020016000815260200160008152602001600081526020016000815260200160008152602001600081526020016000815260200160008152602001600081526020016000815260200160008152602001600081526020016000815260200160008152602001600081526020016000815260200160008152602001600081526020016000815260200160008152602001600081525090565b6001600160a01b038116811461276557600080fd5b50565b60006020828403121561277a57600080fd5b8135610ccb81612750565b634e487b7160e01b600052602160045260246000fd5b600581106127b957634e487b7160e01b600052602160045260246000fd5b9052565b6000815180845260005b818110156127e3576020818501810151868301820152016127c7565b506000602082860101526020601f19601f83011685010191505092915050565b6020815261281560208201835161279b565b6000602083015161283160408401826001600160a01b03169052565b5060408301516001600160a01b03811660608401525060608301516001600160a01b03811660808401525060808301516105008060a08501526128786105208501836127bd565b915060a085015161288d60c086018215159052565b5060c085015160e085015260e08501516101008181870152808701519150506101206128c3818701836001600160a01b03169052565b8601516101408681019190915286015161016080870191909152860151610180808701919091528601516101a0808701919091528601516101c0808701919091528601516101e08087019190915286015161020080870191909152860151610220808701919091528601516102408087019190915286015161026080870191909152860151610280808701919091528601516102a0808701919091528601516102c0808701919091528601516102e08087019190915286015161030080870191909152860151610320808701919091528601516103408087019190915286015161036080870191909152860151610380808701919091528601516103a0808701919091528601516103c0808701919091528601516103e08087019190915286015161040080870191909152860151610420808701919091528601516104408087019190915286015161046080870191909152860151610480808701919091528601516104a0808701919091528601516104c0808701919091528601516104e0808701919091529095015193019290925250919050565b60008060408385031215612a6c57600080fd5b50508035926020909101359150565b604080825283519082018190526000906020906060840190828701845b82811015612abd5781516001600160a01b031684529284019290840190600101612a98565b505050602093909301939093525092915050565b600060208284031215612ae357600080fd5b8151610ccb81612750565b600181811c90821680612b0257607f821691505b6020821081036108ac57634e487b7160e01b600052602260045260246000fd5b634e487b7160e01b600052601160045260246000fd5b818103600083128015838313168383128216171561232d5761232d612b22565b600060208284031215612b6a57600080fd5b815163ffffffff81168114610ccb57600080fd5b600060208284031215612b9057600080fd5b815161ffff81168114610ccb57600080fd5b8181038181111561019b5761019b612b22565b634e487b7160e01b600052604160045260246000fd5b634e487b7160e01b600052603260045260246000fd5b634e487b7160e01b600052600160045260246000fd5b808202811582820484141761019b5761019b612b22565b6001600160401b0381811683821601908082111561232d5761232d612b22565b600060208284031215612c4057600080fd5b5051919050565b634e487b7160e01b600052601260045260246000fd5b600082612c6c57612c6c612c47565b500490565b8082018082111561019b5761019b612b22565b600082612c9357612c93612c47565b500690565b600181815b80851115612cd3578160001904821115612cb957612cb9612b22565b80851615612cc657918102915b93841c9390800290612c9d565b509250929050565b600082612cea5750600161019b565b81612cf75750600061019b565b8160018114612d0d5760028114612d1757612d33565b600191505061019b565b60ff841115612d2857612d28612b22565b50506001821b61019b565b5060208310610133831016604e8410600b8410161715612d56575081810a61019b565b612d608383612c98565b8060001904821115612d7457612d74612b22565b029392505050565b6000610ccb8383612cdb565b602081526000610ccb60208301846127bd565b600080600060608486031215612db057600080fd5b835192506020840151915060408401519050925092509256fe4f24f5c433db0962dac0d2c8b84197a6e6c7cc4e5d9ebe1916a1b6193da2f33a5bebac0595fee029d42bb673937f5f1cb81cf8641382bc17774635de9b7d7965ec7e8c1c441439dd40959777f4c577ea0cd42fcc1dbe59d2bd0f5d9c55df8db6a2646970667358221220edcc0225ff68e7ead5d20a227e6032867cf4a688ed986df19bacd24e26a631c564736f6c63430008170033",
  "linkReferences": {},
  "deployedLinkReferences": {}
}