{
  "_format": "hh-sol-artifact-1",
  "contractName": "DistributionToDelegators",
  "sourceName": "contracts/fasset/mock/DistributionToDelegators.sol",
  "abi": [
    {
      "inputs": [
        {
          "internalType": "contract IWNat",
          "name": "_wNat",
          "type": "address"
        }
      ],
      "stateMutability": "nonpayable",
      "type": "constructor"
    },
    {
      "anonymous": false,
      "inputs": [
        {
          "indexed": false,
          "internalType": "address",
          "name": "account",
          "type": "address"
        }
      ],
      "name": "OptedOutOfAirdrop",
      "type": "event"
    },
    {
      "inputs": [
        {
          "internalType": "address",
          "name": "",
          "type": "address"
        },
        {
          "internalType": "address",
          "name": "_recipient",
          "type": "address"
        },
        {
          "internalType": "uint256",
          "name": "",
          "type": "uint256"
        },
        {
          "internalType": "bool",
          "name": "",
          "type": "bool"
        }
      ],
      "name": "claim",
      "outputs": [
        {
          "internalType": "uint256",
          "name": "_rewardAmount",
          "type": "uint256"
        }
      ],
      "stateMutability": "nonpayable",
      "type": "function"
    },
    {
      "inputs": [],
      "name": "optOutOfAirdrop",
      "outputs": [],
      "stateMutability": "nonpayable",
      "type": "function"
    }
  ],
  "bytecode": "0x608060405234801561001057600080fd5b5060405161029238038061029283398101604081905261002f91610054565b600080546001600160a01b0319166001600160a01b0392909216919091179055610084565b60006020828403121561006657600080fd5b81516001600160a01b038116811461007d57600080fd5b9392505050565b6101ff806100936000396000f3fe608060405234801561001057600080fd5b50600436106100365760003560e01c8063b2c121921461003b578063f2a1f76714610060575b600080fd5b61004e610049366004610156565b61006a565b60405190815260200160405180910390f35b6100686100f4565b005b6000805460405163a9059cbb60e01b81526001600160a01b038681166004830152670de0b6b3a76400006024830181905292169063a9059cbb906044016020604051808303816000875af11580156100c6573d6000803e3d6000fd5b505050506040513d601f19601f820116820180604052508101906100ea91906101a5565b5095945050505050565b6040513381527ff9ad59095575f64b755ef471a707947375ae7b973c102582ed669e54864fb06a9060200160405180910390a1565b80356001600160a01b038116811461014057600080fd5b919050565b801515811461015357600080fd5b50565b6000806000806080858703121561016c57600080fd5b61017585610129565b935061018360208601610129565b925060408501359150606085013561019a81610145565b939692955090935050565b6000602082840312156101b757600080fd5b81516101c281610145565b939250505056fea2646970667358221220f85a303b49a8e1e4c6d97ccbce41e08a9e259ec5b24809177ffb527db7594ba264736f6c63430008140033",
  "linkReferences": {},
  "deployedLinkReferences": {}
}