{
  "_format": "hh-sol-artifact-1",
  "contractName": "AgentSettingsFacet",
  "sourceName": "contracts/fasset/facets/AgentSettingsFacet.sol",
  "abi": [
    {
      "anonymous": false,
      "inputs": [
        {
          "indexed": true,
          "internalType": "address",
          "name": "agentVault",
          "type": "address"
        },
        {
          "indexed": false,
          "internalType": "string",
          "name": "name",
          "type": "string"
        },
        {
          "indexed": false,
          "internalType": "uint256",
          "name": "value",
          "type": "uint256"
        },
        {
          "indexed": false,
          "internalType": "uint256",
          "name": "validAt",
          "type": "uint256"
        }
      ],
      "name": "AgentSettingChangeAnnounced",
      "type": "event"
    },
    {
      "anonymous": false,
      "inputs": [
        {
          "indexed": true,
          "internalType": "address",
          "name": "agentVault",
          "type": "address"
        },
        {
          "indexed": false,
          "internalType": "string",
          "name": "name",
          "type": "string"
        },
        {
          "indexed": false,
          "internalType": "uint256",
          "name": "value",
          "type": "uint256"
        }
      ],
      "name": "AgentSettingChanged",
      "type": "event"
    },
    {
      "inputs": [
        {
          "internalType": "address",
          "name": "_agentVault",
          "type": "address"
        },
        {
          "internalType": "string",
          "name": "_name",
          "type": "string"
        },
        {
          "internalType": "uint256",
          "name": "_value",
          "type": "uint256"
        }
      ],
      "name": "announceAgentSettingUpdate",
      "outputs": [
        {
          "internalType": "uint256",
          "name": "_updateAllowedAt",
          "type": "uint256"
        }
      ],
      "stateMutability": "nonpayable",
      "type": "function"
    },
    {
      "inputs": [
        {
          "internalType": "address",
          "name": "_agentVault",
          "type": "address"
        },
        {
          "internalType": "string",
          "name": "_name",
          "type": "string"
        }
      ],
      "name": "executeAgentSettingUpdate",
      "outputs": [],
      "stateMutability": "nonpayable",
      "type": "function"
    }
  ],
  "bytecode": "0x608060405234801561001057600080fd5b506114ab806100206000396000f3fe608060405234801561001057600080fd5b50600436106100365760003560e01c80630ffb0e861461003b578063e7732f9114610060575b600080fd5b61004e610049366004611231565b610075565b60405190815260200160405180910390f35b61007361006e366004611289565b61008a565b005b6000610082848484610098565b949350505050565b61009482826101a8565b5050565b6000806100a4856103e0565b90506100af85610487565b60006100ba856104e1565b905060006100c782610682565b6100da906001600160401b0316426112ee565b905060405180604001604052806100f0876107bf565b6001600160801b031681526020016101078361082c565b6001600160401b039081169091526000848152600b86016020908152604091829020845181549590920151909316600160801b026001600160c01b03199094166001600160801b0390911617929092179055516001600160a01b038816907f4d36a05405b72bb52f213501e39c8a9900eb28710aaa0b6e53e88ab243ca29659061019690899089908690611347565b60405180910390a29695505050505050565b60006101b3836103e0565b90506101be83610487565b60006101c9836104e1565b6000818152600b840160205260408120805492935091600160801b90046001600160401b031690036102365760405162461bcd60e51b81526020600482015260116024820152706e6f2070656e64696e672075706461746560781b60448201526064015b60405180910390fd5b805442600160801b9091046001600160401b0316111561028f5760405162461bcd60e51b81526020600482015260146024820152731d5c19185d19481b9bdd081d985b1a59081e595d60621b604482015260640161022d565b7f4f24f5c433db0962dac0d2c8b84197a6e6c7cc4e5d9ebe1916a1b6193da2f34d5481547f4f24f5c433db0962dac0d2c8b84197a6e6c7cc4e5d9ebe1916a1b6193da2f33a9142916102fb91600160c01b90046001600160401b0390811691600160801b90041661136c565b6001600160401b031610156103525760405162461bcd60e51b815260206004820152601860248201527f757064617465206e6f742076616c696420616e796d6f72650000000000000000604482015260640161022d565b815461036a90859085906001600160801b0316610894565b81546040516001600160a01b038816917f0c8289ce774814e3ace93acb646f85019ee4146198ebb4bdc93bcdbe6465b880916103b39189916001600160801b039091169061138c565b60405180910390a250506000908152600b9091016020526040902080546001600160c01b03191690555050565b7f5bebac0595fee029d42bb673937f5f1cb81cf8641382bc17774635de9b7d796568010000000000000000600160e01b03604083901b161880600060048084015460ff1690811115610434576104346113b7565b036104815760405162461bcd60e51b815260206004820152601b60248201527f696e76616c6964206167656e74207661756c7420616464726573730000000000604482015260640161022d565b50919050565b610499610493826103e0565b33610a29565b6104de5760405162461bcd60e51b815260206004820152601660248201527537b7363c9030b3b2b73a103b30bab63a1037bbb732b960511b604482015260640161022d565b50565b80516020820120600090817f87971da2ffd60f015ef85ead0fa62169ee9c342d8f1db03babee919d33ccf81982148061053957507fe0243e58c76a12071b4a375d5f283eaf01d6025bbabcdabd4ca2d0d3f67c5e3282145b8061056357507f381f724f6ecd2a24d4a619016614db98defae86152186d60beff19b685ea2b5a82145b8061058d57507f061115fe294a09236be45875a15a7800403f95fde525547c9662b92a6359932e82145b806105b757507f9aea190d2b3dd7d1d8e8d055952c2e9923c067928667db7f47b1f818b830cba482145b806105e157507f50c491cb85c5de272af4bdee937deba8bfb8efc757876ce0671faf286198be9582145b8061060b57507feb57753c1b4e94880186635dfc9185be51406a9179ca76e095563b00d9ef41d682145b8061063557507f98d367e8e159b82e76c08eb9e8367ae98bb11d65de64fdcde63c3a6a50e1756582145b90508061067b5760405162461bcd60e51b8152602060048201526014602482015273696e76616c69642073657474696e67206e616d6560601b604482015260640161022d565b5092915050565b60007f4f24f5c433db0962dac0d2c8b84197a6e6c7cc4e5d9ebe1916a1b6193da2f33a7f87971da2ffd60f015ef85ead0fa62169ee9c342d8f1db03babee919d33ccf8198314806106f257507fe0243e58c76a12071b4a375d5f283eaf01d6025bbabcdabd4ca2d0d3f67c5e3283145b8061071c57507f9aea190d2b3dd7d1d8e8d055952c2e9923c067928667db7f47b1f818b830cba483145b1561073457601301546001600160401b031692915050565b7f381f724f6ecd2a24d4a619016614db98defae86152186d60beff19b685ea2b5a83148061078157507f061115fe294a09236be45875a15a7800403f95fde525547c9662b92a6359932e83145b156107a557601301546801000000000000000090046001600160401b031692915050565b60130154600160801b90046001600160401b031692915050565b60006001600160801b038211156108285760405162461bcd60e51b815260206004820152602760248201527f53616665436173743a2076616c756520646f65736e27742066697420696e20316044820152663238206269747360c81b606482015260840161022d565b5090565b60006001600160401b038211156108285760405162461bcd60e51b815260206004820152602660248201527f53616665436173743a2076616c756520646f65736e27742066697420696e203660448201526534206269747360d01b606482015260840161022d565b7f87971da2ffd60f015ef85ead0fa62169ee9c342d8f1db03babee919d33ccf81982036108ca576108c58382610afd565b505050565b7fe0243e58c76a12071b4a375d5f283eaf01d6025bbabcdabd4ca2d0d3f67c5e3282036108fb576108c58382610b67565b7f381f724f6ecd2a24d4a619016614db98defae86152186d60beff19b685ea2b5a820361092c576108c58382610bd3565b7f061115fe294a09236be45875a15a7800403f95fde525547c9662b92a6359932e820361095d576108c58382610c6b565b7f9aea190d2b3dd7d1d8e8d055952c2e9923c067928667db7f47b1f818b830cba4820361098e576108c58382610d03565b7f50c491cb85c5de272af4bdee937deba8bfb8efc757876ce0671faf286198be9582036109bf576108c58382610d2e565b7feb57753c1b4e94880186635dfc9185be51406a9179ca76e095563b00d9ef41d682036109f0576108c58382610ed6565b7f98d367e8e159b82e76c08eb9e8367ae98bb11d65de64fdcde63c3a6a50e175658203610a21576108c58382610f8f565b6108c56113cd565b60018201546000906001600160a01b03908116908316811480610af357507f4f24f5c433db0962dac0d2c8b84197a6e6c7cc4e5d9ebe1916a1b6193da2f341546001600160a01b0316604051631f86345d60e31b81526001600160a01b038381166004830152919091169063fc31a2e890602401602060405180830381865afa158015610aba573d6000803e3d6000fd5b505050506040513d601f19601f82011682018060405250810190610ade91906113e3565b6001600160a01b0316836001600160a01b0316145b9150505b92915050565b6127108110610b3c5760405162461bcd60e51b815260206004820152600b60248201526a0cccaca40e8de40d0d2ced60ab1b604482015260640161022d565b610b4581610ff0565b8260040160096101000a81548161ffff021916908361ffff1602179055505050565b6127108110610ba85760405162461bcd60e51b815260206004820152600d60248201526c0ecc2d8eaca40e8de40d0d2ced609b1b604482015260640161022d565b610bb181610ff0565b82600401600b6101000a81548161ffff021916908361ffff1602179055505050565b6000610bde83611053565b600381015490915063ffffffff16821015610c3b5760405162461bcd60e51b815260206004820152601a60248201527f636f6c6c61746572616c20726174696f20746f6f20736d616c6c000000000000604482015260640161022d565b610c44826110b2565b83600401600d6101000a81548163ffffffff021916908363ffffffff160217905550505050565b6000610c7683611117565b600381015490915063ffffffff16821015610cd35760405162461bcd60e51b815260206004820152601a60248201527f636f6c6c61746572616c20726174696f20746f6f20736d616c6c000000000000604482015260640161022d565b610cdc826110b2565b8360040160116101000a81548163ffffffff021916908363ffffffff160217905550505050565b610d0c81610ff0565b82600a0160106101000a81548161ffff021916908361ffff1602179055505050565b6000610d3983611117565b60048401546003820154919250600091610d639163ffffffff600160881b90910481169116611162565b905080831015610da45760405162461bcd60e51b815260206004820152600c60248201526b76616c756520746f206c6f7760a01b604482015260640161022d565b835460408051633cfc747d60e01b815290516000926001600160a01b031691633cfc747d9160048083019260209291908290030181865afa158015610ded573d6000803e3d6000fd5b505050506040513d601f19601f82011682018060405250810190610e119190611400565b63ffffffff1690506002610e26826003611426565b610e30919061143d565b841115610e725760405162461bcd60e51b815260206004820152601060248201526f696e63726561736520746f6f2062696760801b604482015260640161022d565b8454604051630f0f739560e31b8152600481018690526001600160a01b039091169063787b9ca890602401600060405180830381600087803b158015610eb757600080fd5b505af1158015610ecb573d6000803e3d6000fd5b505050505050505050565b6000610ee183611117565b600381015490915063ffffffff16821015610f2d5760405162461bcd60e51b815260206004820152600c60248201526b76616c756520746f206c6f7760a01b604482015260640161022d565b825460405163444c2e6b60e11b8152600481018490526001600160a01b03909116906388985cd690602401600060405180830381600087803b158015610f7257600080fd5b505af1158015610f86573d6000803e3d6000fd5b50505050505050565b8154604051634d2123f360e11b8152600481018390526001600160a01b0390911690639a4247e690602401600060405180830381600087803b158015610fd457600080fd5b505af1158015610fe8573d6000803e3d6000fd5b505050505050565b600061ffff8211156108285760405162461bcd60e51b815260206004820152602660248201527f53616665436173743a2076616c756520646f65736e27742066697420696e203160448201526536206269747360d01b606482015260840161022d565b6000807fec7e8c1c441439dd40959777f4c577ea0cd42fcc1dbe59d2bd0f5d9c55df8db660048401548154919250829161010090910461ffff1690811061109c5761109c61145f565b9060005260206000209060040201915050919050565b600063ffffffff8211156108285760405162461bcd60e51b815260206004820152602660248201527f53616665436173743a2076616c756520646f65736e27742066697420696e203360448201526532206269747360d01b606482015260840161022d565b6000807fec7e8c1c441439dd40959777f4c577ea0cd42fcc1dbe59d2bd0f5d9c55df8db6600484015481549192508291630100000090910461ffff1690811061109c5761109c61145f565b60008183116111715781611173565b825b9392505050565b6001600160a01b03811681146104de57600080fd5b634e487b7160e01b600052604160045260246000fd5b600082601f8301126111b657600080fd5b81356001600160401b03808211156111d0576111d061118f565b604051601f8301601f19908116603f011681019082821181831017156111f8576111f861118f565b8160405283815286602085880101111561121157600080fd5b836020870160208301376000602085830101528094505050505092915050565b60008060006060848603121561124657600080fd5b83356112518161117a565b925060208401356001600160401b0381111561126c57600080fd5b611278868287016111a5565b925050604084013590509250925092565b6000806040838503121561129c57600080fd5b82356112a78161117a565b915060208301356001600160401b038111156112c257600080fd5b6112ce858286016111a5565b9150509250929050565b634e487b7160e01b600052601160045260246000fd5b80820180821115610af757610af76112d8565b6000815180845260005b818110156113275760208185018101518683018201520161130b565b506000602082860101526020601f19601f83011685010191505092915050565b60608152600061135a6060830186611301565b60208301949094525060400152919050565b6001600160401b0381811683821601908082111561067b5761067b6112d8565b60408152600061139f6040830185611301565b90506001600160801b03831660208301529392505050565b634e487b7160e01b600052602160045260246000fd5b634e487b7160e01b600052600160045260246000fd5b6000602082840312156113f557600080fd5b81516111738161117a565b60006020828403121561141257600080fd5b815163ffffffff8116811461117357600080fd5b8082028115828204841417610af757610af76112d8565b60008261145a57634e487b7160e01b600052601260045260246000fd5b500490565b634e487b7160e01b600052603260045260246000fdfea2646970667358221220d39aa7dee68c125158f8ff6f4e1589b5601184070f3ec9adfe4b7c3c641f7eae64736f6c63430008170033",
  "linkReferences": {},
  "deployedLinkReferences": {}
}