{
  "_format": "hh-sol-artifact-1",
  "contractName": "AddressUpdatableMock",
  "sourceName": "contracts/governance/mock/AddressUpdatableMock.sol",
  "abi": [
    {
      "inputs": [
        {
          "internalType": "address",
          "name": "_addressUpdater",
          "type": "address"
        }
      ],
      "stateMutability": "nonpayable",
      "type": "constructor"
    },
    {
      "inputs": [
        {
          "internalType": "uint256",
          "name": "",
          "type": "uint256"
        }
      ],
      "name": "contractAddresses",
      "outputs": [
        {
          "internalType": "address",
          "name": "",
          "type": "address"
        }
      ],
      "stateMutability": "view",
      "type": "function"
    },
    {
      "inputs": [
        {
          "internalType": "uint256",
          "name": "",
          "type": "uint256"
        }
      ],
      "name": "contractNameHashes",
      "outputs": [
        {
          "internalType": "bytes32",
          "name": "",
          "type": "bytes32"
        }
      ],
      "stateMutability": "view",
      "type": "function"
    },
    {
      "inputs": [],
      "name": "getAddressUpdater",
      "outputs": [
        {
          "internalType": "address",
          "name": "_addressUpdater",
          "type": "address"
        }
      ],
      "stateMutability": "view",
      "type": "function"
    },
    {
      "inputs": [],
      "name": "getContractNameHashesAndAddresses",
      "outputs": [
        {
          "internalType": "bytes32[]",
          "name": "_contractNameHashes",
          "type": "bytes32[]"
        },
        {
          "internalType": "address[]",
          "name": "_contractAddresses",
          "type": "address[]"
        }
      ],
      "stateMutability": "view",
      "type": "function"
    },
    {
      "inputs": [
        {
          "internalType": "bytes32[]",
          "name": "_contractNameHashes",
          "type": "bytes32[]"
        },
        {
          "internalType": "address[]",
          "name": "_contractAddresses",
          "type": "address[]"
        }
      ],
      "name": "updateContractAddresses",
      "outputs": [],
      "stateMutability": "nonpayable",
      "type": "function"
    }
  ],
  "bytecode": "0x608060405234801561001057600080fd5b5060405161085638038061085683398101604081905261002f9161005f565b80610058817f714f205b2abd25bef1d06a1af944e38c113fe6160375c4e1d6d5cf28848e771955565b505061008f565b60006020828403121561007157600080fd5b81516001600160a01b038116811461008857600080fd5b9392505050565b6107b88061009e6000396000f3fe608060405234801561001057600080fd5b50600436106100575760003560e01c806323ccdd221461005c5780633263b5451461007b578063426c3c2d146100a65780635267a15d146100c7578063b00c0b76146100ee575b600080fd5b610064610103565b6040516100729291906104ac565b60405180910390f35b61008e610089366004610530565b6101c0565b6040516001600160a01b039091168152602001610072565b6100b96100b4366004610530565b6101ea565b604051908152602001610072565b7f714f205b2abd25bef1d06a1af944e38c113fe6160375c4e1d6d5cf28848e77195461008e565b6101016100fc366004610635565b61020b565b005b606080600060018180548060200260200160405190810160405280929190818152602001828054801561015557602002820191906000526020600020905b815481526020019060010190808311610141575b50505050509150808054806020026020016040519081016040528092919081815260200182805480156101b157602002820191906000526020600020905b81546001600160a01b03168152600190910190602001808311610193575b50505050509050915091509091565b600181815481106101d057600080fd5b6000918252602090912001546001600160a01b0316905081565b600081815481106101fa57600080fd5b600091825260209091200154905081565b7f714f205b2abd25bef1d06a1af944e38c113fe6160375c4e1d6d5cf28848e7719546001600160a01b0316336001600160a01b0316146102895760405162461bcd60e51b815260206004820152601460248201527337b7363c9030b2323932b9b9903ab83230ba32b960611b60448201526064015b60405180910390fd5b6102e16102bd83836040518060400160405280600e81526020016d20b2323932b9b9aab83230ba32b960911b8152506102ef565b7f714f205b2abd25bef1d06a1af944e38c113fe6160375c4e1d6d5cf28848e771955565b6102eb82826103cb565b5050565b6000808260405160200161030391906106ee565b6040516020818303038152906040528051906020012090506000805b865181101561037c5786818151811061033a5761033a610743565b602002602001015183141561036a5785818151811061035b5761035b610743565b6020026020010151915061037c565b8061037481610759565b91505061031f565b506001600160a01b0381166103c25760405162461bcd60e51b815260206004820152600c60248201526b61646472657373207a65726f60a01b6044820152606401610280565b95945050505050565b81516103de9060009060208501906103f7565b5080516103f2906001906020840190610442565b505050565b828054828255906000526020600020908101928215610432579160200282015b82811115610432578251825591602001919060010190610417565b5061043e929150610497565b5090565b828054828255906000526020600020908101928215610432579160200282015b8281111561043257825182546001600160a01b0319166001600160a01b03909116178255602090920191600190910190610462565b5b8082111561043e5760008155600101610498565b604080825283519082018190526000906020906060840190828701845b828110156104e5578151845292840192908401906001016104c9565b5050508381038285015284518082528583019183019060005b818110156105235783516001600160a01b0316835292840192918401916001016104fe565b5090979650505050505050565b60006020828403121561054257600080fd5b5035919050565b634e487b7160e01b600052604160045260246000fd5b604051601f8201601f1916810167ffffffffffffffff8111828210171561058857610588610549565b604052919050565b600067ffffffffffffffff8211156105aa576105aa610549565b5060051b60200190565b600082601f8301126105c557600080fd5b813560206105da6105d583610590565b61055f565b82815260059290921b840181019181810190868411156105f957600080fd5b8286015b8481101561062a5780356001600160a01b038116811461061d5760008081fd5b83529183019183016105fd565b509695505050505050565b6000806040838503121561064857600080fd5b823567ffffffffffffffff8082111561066057600080fd5b818501915085601f83011261067457600080fd5b813560206106846105d583610590565b82815260059290921b840181019181810190898411156106a357600080fd5b948201945b838610156106c1578535825294820194908201906106a8565b965050860135925050808211156106d757600080fd5b506106e4858286016105b4565b9150509250929050565b600060208083528351808285015260005b8181101561071b578581018301518582016040015282016106ff565b8181111561072d576000604083870101525b50601f01601f1916929092016040019392505050565b634e487b7160e01b600052603260045260246000fd5b600060001982141561077b57634e487b7160e01b600052601160045260246000fd5b506001019056fea26469706673582212207900c2b44cdc6afddb004c28d16676308c54273bf0a77558234411499e02453564736f6c634300080b0033",
  "linkReferences": {},
  "deployedLinkReferences": {}
}