{
  "_format": "hh-sol-artifact-1",
  "contractName": "DelegationHistory",
  "sourceName": "flattened/FlareSmartContracts.sol",
  "abi": [
    {
      "inputs": [],
      "name": "MAX_DELEGATES_BY_PERCENT",
      "outputs": [
        {
          "internalType": "uint256",
          "name": "",
          "type": "uint256"
        }
      ],
      "stateMutability": "view",
      "type": "function"
    }
  ],
  "bytecode": "0x6096610024600b82828239805160001a607314601757fe5b30600052607381538281f3fe730000000000000000000000000000000000000000301460806040526004361060335760003560e01c80632829744e146038575b600080fd5b603e6052565b604051604991906057565b60405180910390f35b600281565b9081526020019056fea2646970667358221220d5875ce8fce4e1a18c44d6cc36a0099019aa2d3d5bbba60b5d17837896ddac2464736f6c63430007060033",
  "linkReferences": {},
  "deployedLinkReferences": {}
}