{
  "_format": "hh-sol-artifact-1",
  "contractName": "GovernanceSettings",
  "sourceName": "flattened/FlareSmartContracts.sol",
  "abi": [
    {
      "anonymous": false,
      "inputs": [
        {
          "indexed": false,
          "internalType": "uint256",
          "name": "timestamp",
          "type": "uint256"
        },
        {
          "indexed": false,
          "internalType": "address",
          "name": "oldGovernanceAddress",
          "type": "address"
        },
        {
          "indexed": false,
          "internalType": "address",
          "name": "newGovernanceAddress",
          "type": "address"
        }
      ],
      "name": "GovernanceAddressUpdated",
      "type": "event"
    },
    {
      "anonymous": false,
      "inputs": [
        {
          "indexed": false,
          "internalType": "uint256",
          "name": "timestamp",
          "type": "uint256"
        },
        {
          "indexed": false,
          "internalType": "address[]",
          "name": "oldExecutors",
          "type": "address[]"
        },
        {
          "indexed": false,
          "internalType": "address[]",
          "name": "newExecutors",
          "type": "address[]"
        }
      ],
      "name": "GovernanceExecutorsUpdated",
      "type": "event"
    },
    {
      "anonymous": false,
      "inputs": [
        {
          "indexed": false,
          "internalType": "uint256",
          "name": "timestamp",
          "type": "uint256"
        },
        {
          "indexed": false,
          "internalType": "uint256",
          "name": "oldTimelock",
          "type": "uint256"
        },
        {
          "indexed": false,
          "internalType": "uint256",
          "name": "newTimelock",
          "type": "uint256"
        }
      ],
      "name": "GovernanceTimelockUpdated",
      "type": "event"
    },
    {
      "inputs": [],
      "name": "SIGNAL_COINBASE",
      "outputs": [
        {
          "internalType": "address",
          "name": "",
          "type": "address"
        }
      ],
      "stateMutability": "view",
      "type": "function"
    },
    {
      "inputs": [],
      "name": "getExecutors",
      "outputs": [
        {
          "internalType": "address[]",
          "name": "",
          "type": "address[]"
        }
      ],
      "stateMutability": "view",
      "type": "function"
    },
    {
      "inputs": [],
      "name": "getGovernanceAddress",
      "outputs": [
        {
          "internalType": "address",
          "name": "",
          "type": "address"
        }
      ],
      "stateMutability": "view",
      "type": "function"
    },
    {
      "inputs": [],
      "name": "getTimelock",
      "outputs": [
        {
          "internalType": "uint256",
          "name": "",
          "type": "uint256"
        }
      ],
      "stateMutability": "view",
      "type": "function"
    },
    {
      "inputs": [
        {
          "internalType": "address",
          "name": "_governanceAddress",
          "type": "address"
        },
        {
          "internalType": "uint256",
          "name": "_timelock",
          "type": "uint256"
        },
        {
          "internalType": "address[]",
          "name": "_executors",
          "type": "address[]"
        }
      ],
      "name": "initialise",
      "outputs": [],
      "stateMutability": "nonpayable",
      "type": "function"
    },
    {
      "inputs": [
        {
          "internalType": "address",
          "name": "_address",
          "type": "address"
        }
      ],
      "name": "isExecutor",
      "outputs": [
        {
          "internalType": "bool",
          "name": "",
          "type": "bool"
        }
      ],
      "stateMutability": "view",
      "type": "function"
    },
    {
      "inputs": [
        {
          "internalType": "address[]",
          "name": "_newExecutors",
          "type": "address[]"
        }
      ],
      "name": "setExecutors",
      "outputs": [],
      "stateMutability": "nonpayable",
      "type": "function"
    },
    {
      "inputs": [
        {
          "internalType": "address",
          "name": "_newGovernance",
          "type": "address"
        }
      ],
      "name": "setGovernanceAddress",
      "outputs": [],
      "stateMutability": "nonpayable",
      "type": "function"
    },
    {
      "inputs": [
        {
          "internalType": "uint256",
          "name": "_newTimelock",
          "type": "uint256"
        }
      ],
      "name": "setTimelock",
      "outputs": [],
      "stateMutability": "nonpayable",
      "type": "function"
    }
  ],
  "bytecode": "0x608060405234801561001057600080fd5b50610a1e806100206000396000f3fe608060405234801561001057600080fd5b50600436106100935760003560e01c80637ff6faa6116100665780637ff6faa6146100f3578063cf0ea268146100fb578063cfc162541461010e578063debfda3014610121578063ef09e78f1461014157610093565b80631d452e46146100985780631e891c0a146100ad5780636221a54b146100c057806373252494146100de575b600080fd5b6100ab6100a6366004610739565b610156565b005b6100ab6100bb366004610774565b610195565b6100c861027b565b6040516100d59190610934565b60405180910390f35b6100e6610292565b6040516100d591906107cf565b6100e66102a1565b6100ab6101093660046106e4565b6102a8565b6100ab61011c3660046106c3565b610380565b61013461012f3660046106c3565b61042b565b6040516100d591906107f6565b61014961044d565b6040516100d591906107e3565b6000546001600160a01b031633146101895760405162461bcd60e51b81526004016101809061087b565b60405180910390fd5b610192816104af565b50565b600054600160a01b900467ffffffffffffffff168114156101c85760405162461bcd60e51b8152600401610180906108fd565b6301e1338081106101eb5760405162461bcd60e51b8152600401610180906108a4565b33411480156101fc575041620dead0145b15610192576000546040517feb86fa0729fdcf66bda3d834e93bf513d3740be7f7a4a6cab0dd318f1df8514f91610248914291600160a01b900467ffffffffffffffff169085906109c8565b60405180910390a16000805467ffffffffffffffff8316600160a01b0267ffffffffffffffff60a01b1990911617905550565b600054600160a01b900467ffffffffffffffff1690565b6000546001600160a01b031690565b620dead081565b3373fffec6c83c8bf5c3f4ae0ccf8c45ce20e4560bd7146102db5760405162461bcd60e51b815260040161018090610801565b600054600160e01b900460ff16156103055760405162461bcd60e51b8152600401610180906108d0565b6301e1338082106103285760405162461bcd60e51b8152600401610180906108a4565b60008054600160e01b60ff60e01b19909116176001600160a01b0319166001600160a01b0385161767ffffffffffffffff60a01b1916600160a01b67ffffffffffffffff85160217905561037b816104af565b505050565b6000546001600160a01b03828116911614156103ae5760405162461bcd60e51b815260040161018090610838565b33411480156103bf575041620dead0145b15610192576000546040517f7e1a30031de5a45b59b70d6a9f61956645cf3cf9468588f31f4217f7c770d7cc916104039142916001600160a01b031690859061093d565b60405180910390a1600080546001600160a01b0383166001600160a01b031990911617905550565b6001600160a01b03811660009081526002602052604090205460ff165b919050565b606060018054806020026020016040519081016040528092919081815260200182805480156104a557602002820191906000526020600020905b81546001600160a01b03168152600190910190602001808311610487575b5050505050905090565b7fa2c44af5dca41c60e42e3fc93e9fc4dd6e5d2c14ededf08259d3372874ac0854426001836040516104e39392919061095c565b60405180910390a15b60015415610573576000600260006001808080549050038154811061050d57fe5b6000918252602080832091909101546001600160a01b031683528201929092526040019020805460ff1916911515919091179055600180548061054c57fe5b600082815260209020810160001990810180546001600160a01b03191690550190556104ec565b60005b815181101561061557600182828151811061058d57fe5b60209081029190910181015182546001808201855560009485529284200180546001600160a01b0319166001600160a01b03909216919091179055835190916002918590859081106105db57fe5b6020908102919091018101516001600160a01b03168252810191909152604001600020805460ff1916911515919091179055600101610576565b5050565b80356001600160a01b038116811461044857600080fd5b600082601f830112610640578081fd5b8135602067ffffffffffffffff8083111561065757fe5b8183026040518382820101818110848211171561067057fe5b6040528481528381019250868401828801850189101561068e578687fd5b8692505b858310156106b7576106a381610619565b845292840192600192909201918401610692565b50979650505050505050565b6000602082840312156106d4578081fd5b6106dd82610619565b9392505050565b6000806000606084860312156106f8578182fd5b61070184610619565b925060208401359150604084013567ffffffffffffffff811115610723578182fd5b61072f86828701610630565b9150509250925092565b60006020828403121561074a578081fd5b813567ffffffffffffffff811115610760578182fd5b61076c84828501610630565b949350505050565b600060208284031215610785578081fd5b5035919050565b6000815180845260208085019450808401835b838110156107c45781516001600160a01b03168752958201959082019060010161079f565b509495945050505050565b6001600160a01b0391909116815260200190565b6000602082526106dd602083018461078c565b901515815260200190565b60208082526017908201527f6f6e6c792067656e6573697320676f7665726e616e6365000000000000000000604082015260600190565b60208082526023908201527f676f7665726e616e636541646472657373203d3d205f6e6577476f7665726e616040820152626e636560e81b606082015260800190565b6020808252600f908201526e6f6e6c7920676f7665726e616e636560881b604082015260600190565b60208082526012908201527174696d656c6f636b20746f6f206c6172676560701b604082015260600190565b602080825260139082015272185b1c9958591e481a5b9a5d1a585b1a5cd959606a1b604082015260600190565b60208082526018908201527f74696d656c6f636b203d3d205f6e657754696d656c6f636b0000000000000000604082015260600190565b90815260200190565b9283526001600160a01b03918216602084015216604082015260600190565b60006060820185835260206060818501528186548084526080860191508785528285209350845b818110156109a85784546001600160a01b031683526001948501949284019201610983565b505084810360408601526109bc818761078c565b98975050505050505050565b92835267ffffffffffffffff91909116602083015260408201526060019056fea26469706673582212203f164efe0d5f8454abc5bb942e363ffa13050bcbfe1a13b1fa602f1d80def3ac64736f6c63430007060033",
  "linkReferences": {},
  "deployedLinkReferences": {}
}