{
  "_format": "hh-sol-artifact-1",
  "contractName": "WhitelistMock",
  "sourceName": "contracts/fasset/mock/WhitelistMock.sol",
  "abi": [
    {
      "inputs": [
        {
          "internalType": "bool",
          "name": "_allowAll",
          "type": "bool"
        }
      ],
      "stateMutability": "nonpayable",
      "type": "constructor"
    },
    {
      "anonymous": false,
      "inputs": [
        {
          "indexed": false,
          "internalType": "address",
          "name": "value",
          "type": "address"
        }
      ],
      "name": "Whitelisted",
      "type": "event"
    },
    {
      "anonymous": false,
      "inputs": [
        {
          "indexed": false,
          "internalType": "address",
          "name": "value",
          "type": "address"
        }
      ],
      "name": "WhitelistingRevoked",
      "type": "event"
    },
    {
      "inputs": [
        {
          "internalType": "address",
          "name": "_address",
          "type": "address"
        }
      ],
      "name": "addAddressToWhitelist",
      "outputs": [],
      "stateMutability": "nonpayable",
      "type": "function"
    },
    {
      "inputs": [
        {
          "internalType": "address[]",
          "name": "_addresses",
          "type": "address[]"
        }
      ],
      "name": "addAddressesToWhitelist",
      "outputs": [],
      "stateMutability": "nonpayable",
      "type": "function"
    },
    {
      "inputs": [],
      "name": "allowAll",
      "outputs": [
        {
          "internalType": "bool",
          "name": "",
          "type": "bool"
        }
      ],
      "stateMutability": "view",
      "type": "function"
    },
    {
      "inputs": [
        {
          "internalType": "address",
          "name": "_address",
          "type": "address"
        }
      ],
      "name": "isWhitelisted",
      "outputs": [
        {
          "internalType": "bool",
          "name": "",
          "type": "bool"
        }
      ],
      "stateMutability": "view",
      "type": "function"
    },
    {
      "inputs": [
        {
          "internalType": "address",
          "name": "_address",
          "type": "address"
        }
      ],
      "name": "revokeAddress",
      "outputs": [],
      "stateMutability": "nonpayable",
      "type": "function"
    },
    {
      "inputs": [
        {
          "internalType": "bool",
          "name": "_allowAll",
          "type": "bool"
        }
      ],
      "name": "setAllowAll",
      "outputs": [],
      "stateMutability": "nonpayable",
      "type": "function"
    }
  ],
  "bytecode": "0x608060405234801561001057600080fd5b506040516104a13803806104a183398101604081905261002f91610045565b6000805460ff191691151591909117905561006e565b60006020828403121561005757600080fd5b8151801515811461006757600080fd5b9392505050565b6104248061007d6000396000f3fe608060405234801561001057600080fd5b50600436106100625760003560e01c8063317a7aec146100675780633af32abf1461007c5780634d7d9c01146100a35780634ee643a5146100c45780637b9417c8146100d1578063e2ec6ec3146100e4575b600080fd5b61007a610075366004610292565b6100f7565b005b61008f61008a366004610292565b610103565b604051901515815260200160405180910390f35b61007a6100b13660046102b4565b6000805460ff1916911515919091179055565b60005461008f9060ff1681565b61007a6100df366004610292565b610133565b61007a6100f23660046102ec565b61013c565b61010081610180565b50565b6000805460ff168061012d57506001600160a01b03821660009081526001602052604090205460ff165b92915050565b610100816101d8565b60005b815181101561017c5761016a82828151811061015d5761015d6103b1565b60200260200101516101d8565b80610174816103c7565b91505061013f565b5050565b6001600160a01b038116600081815260016020908152604091829020805460ff1916905590519182527fe01091cddc91f5497c62b6d5b4ae6514036739c2528f0463485236065e1eba4a91015b60405180910390a150565b6001600160a01b0381166102215760405162461bcd60e51b815260206004820152600c60248201526b61646472657373207a65726f60a01b604482015260640160405180910390fd5b6001600160a01b038116600081815260016020818152604092839020805460ff191690921790915590519182527faab7954e9d246b167ef88aeddad35209ca2489d95a8aeb59e288d9b19fae5a5491016101cd565b80356001600160a01b038116811461028d57600080fd5b919050565b6000602082840312156102a457600080fd5b6102ad82610276565b9392505050565b6000602082840312156102c657600080fd5b813580151581146102ad57600080fd5b634e487b7160e01b600052604160045260246000fd5b600060208083850312156102ff57600080fd5b823567ffffffffffffffff8082111561031757600080fd5b818501915085601f83011261032b57600080fd5b81358181111561033d5761033d6102d6565b8060051b604051601f19603f83011681018181108582111715610362576103626102d6565b60405291825284820192508381018501918883111561038057600080fd5b938501935b828510156103a55761039685610276565b84529385019392850192610385565b98975050505050505050565b634e487b7160e01b600052603260045260246000fd5b6000600182016103e757634e487b7160e01b600052601160045260246000fd5b506001019056fea2646970667358221220d807a15639e042f78dc570303c051ca61f34eafd3a0782a76545ebb870880bbb64736f6c63430008140033",
  "linkReferences": {},
  "deployedLinkReferences": {}
}