{
  "_format": "hh-sol-artifact-1",
  "contractName": "Base58Mock",
  "sourceName": "contracts/addressValidator/mock/Base58Mock.sol",
  "abi": [
    {
      "inputs": [
        {
          "internalType": "bytes",
          "name": "_data",
          "type": "bytes"
        },
        {
          "internalType": "bytes",
          "name": "_alphabet",
          "type": "bytes"
        }
      ],
      "name": "decode",
      "outputs": [
        {
          "internalType": "bytes",
          "name": "",
          "type": "bytes"
        },
        {
          "internalType": "bool",
          "name": "",
          "type": "bool"
        }
      ],
      "stateMutability": "pure",
      "type": "function"
    }
  ],
  "bytecode": "0x61078161003a600b82828239805160001a60731461002d57634e487b7160e01b600052600060045260246000fd5b30600052607381538281f3fe73000000000000000000000000000000000000000030146080604052600436106100355760003560e01c80639a3589891461003a575b600080fd5b61004d610048366004610609565b610064565b60405161005b92919061066d565b60405180910390f35b60606000610072848461007e565b915091505b9250929050565b606060008083600081518110610096576100966106c4565b0160200151855160f89190911c915060005b81811080156100cf5750828782815181106100c5576100c56106c4565b016020015160f81c145b156100dc576001016100a8565b60006100e7876103b0565b905060006117e361209f85020460010160020267ffffffffffffffff81111561011257610112610566565b6040519080825280601f01601f19166020018201604052801561013c576020820181803683370190505b50905060006010600f86010467ffffffffffffffff81111561016057610160610566565b604051908082528060200260200182016040528015610189578160200160208202803683370190505b50905060005b8a518110156102885760008b82815181106101ac576101ac6106c4565b01602001516001600160f81b03191690506000806101ca8784610460565b91509150806101f7575050604080516000808252602082019092529a509850610077975050505050505050565b8451600019015b600081126102785760008387838151811061021b5761021b6106c4565b60200260200101516001600160801b0316603a02019050608081901c9350600160806001901b038116878381518110610256576102566106c4565b6001600160801b039092166020928302919091019091015250600019016101fe565b50506001909201915061018f9050565b506008600f861602600081900361029d575060805b600719016000805b835181101561032f575b608083101561032357828482815181106102cb576102cb6106c4565b60200260200101516001600160801b0316901c60f81b8583815181106102f3576102f36106c4565b60200101906001600160f81b031916908160001a90535060019091019060088310610323576008830392506102af565b607892506001016102a5565b50855b845181101561039057600060f81b858281518110610352576103526106c4565b01602001516001600160f81b03191611156103885761037485888303846104b4565b60019a509a50505050505050505050610077565b600101610332565b5061039d846000836104b4565b9c60019c509a5050505050505050505050565b606060ff8251106103c3576103c36106da565b60408051610100808252610120820190925260009160208201818036833701905050905060005b8351811015610459576103fe816001610706565b60f81b82858381518110610414576104146106c4565b0160200151815160f89190911c908110610430576104306106c4565b60200101906001600160f81b031916908160001a905350806104518161071f565b9150506103ea565b5092915050565b6000806000848460f81c60ff168151811061047d5761047d6106c4565b016020015160f81c9050600081900361049d576000809250925050610077565b6104a8600182610738565b95600195509350505050565b6060600083830367ffffffffffffffff8111156104d3576104d3610566565b6040519080825280601f01601f1916602001820160405280156104fd576020820181803683370190505b50905060005b84840381101561055d578585820181518110610521576105216106c4565b602001015160f81c60f81b82828151811061053e5761053e6106c4565b60200101906001600160f81b031916908160001a905350600101610503565b50949350505050565b634e487b7160e01b600052604160045260246000fd5b600082601f83011261058d57600080fd5b813567ffffffffffffffff808211156105a8576105a8610566565b604051601f8301601f19908116603f011681019082821181831017156105d0576105d0610566565b816040528381528660208588010111156105e957600080fd5b836020870160208301376000602085830101528094505050505092915050565b6000806040838503121561061c57600080fd5b823567ffffffffffffffff8082111561063457600080fd5b6106408683870161057c565b9350602085013591508082111561065657600080fd5b506106638582860161057c565b9150509250929050565b604081526000835180604084015260005b8181101561069b576020818701810151606086840101520161067e565b506000606082850101526060601f19601f83011684010191505082151560208301529392505050565b634e487b7160e01b600052603260045260246000fd5b634e487b7160e01b600052600160045260246000fd5b634e487b7160e01b600052601160045260246000fd5b80820180821115610719576107196106f0565b92915050565b600060018201610731576107316106f0565b5060010190565b81810381811115610719576107196106f056fea26469706673582212209733b88f29d9e97fecef3bdb41c4b03bf20b6275c6d57f86a243e4f662920d9664736f6c63430008140033",
  "linkReferences": {},
  "deployedLinkReferences": {}
}