{
  "_format": "hh-sol-artifact-1",
  "contractName": "TimeCumulativeMock",
  "sourceName": "contracts/utils/mock/TimeCumulativeMock.sol",
  "abi": [
    {
      "inputs": [
        {
          "internalType": "uint256",
          "name": "_timestamp",
          "type": "uint256"
        },
        {
          "internalType": "uint64",
          "name": "_value",
          "type": "uint64"
        }
      ],
      "name": "addDataPoint",
      "outputs": [],
      "stateMutability": "nonpayable",
      "type": "function"
    },
    {
      "inputs": [
        {
          "internalType": "uint256",
          "name": "_ts",
          "type": "uint256"
        }
      ],
      "name": "binarySearch",
      "outputs": [
        {
          "internalType": "uint256",
          "name": "",
          "type": "uint256"
        }
      ],
      "stateMutability": "view",
      "type": "function"
    },
    {
      "inputs": [
        {
          "internalType": "uint256",
          "name": "_untilTimestamp",
          "type": "uint256"
        },
        {
          "internalType": "uint256",
          "name": "_maxPoints",
          "type": "uint256"
        }
      ],
      "name": "cleanup",
      "outputs": [],
      "stateMutability": "nonpayable",
      "type": "function"
    },
    {
      "inputs": [
        {
          "internalType": "uint256",
          "name": "_ts",
          "type": "uint256"
        }
      ],
      "name": "cumulativeTo",
      "outputs": [
        {
          "internalType": "uint256",
          "name": "",
          "type": "uint256"
        }
      ],
      "stateMutability": "view",
      "type": "function"
    },
    {
      "inputs": [],
      "name": "getData",
      "outputs": [
        {
          "components": [
            {
              "internalType": "uint128",
              "name": "cumulative",
              "type": "uint128"
            },
            {
              "internalType": "uint64",
              "name": "timestamp",
              "type": "uint64"
            },
            {
              "internalType": "uint64",
              "name": "value",
              "type": "uint64"
            }
          ],
          "internalType": "struct TimeCumulative.DataPoint[]",
          "name": "_points",
          "type": "tuple[]"
        },
        {
          "internalType": "uint256",
          "name": "_startIndex",
          "type": "uint256"
        },
        {
          "internalType": "uint256",
          "name": "_endIndex",
          "type": "uint256"
        }
      ],
      "stateMutability": "view",
      "type": "function"
    },
    {
      "inputs": [
        {
          "internalType": "uint256",
          "name": "_fromTs",
          "type": "uint256"
        },
        {
          "internalType": "uint256",
          "name": "_toTs",
          "type": "uint256"
        }
      ],
      "name": "intervalCumulative",
      "outputs": [
        {
          "internalType": "uint256",
          "name": "",
          "type": "uint256"
        }
      ],
      "stateMutability": "view",
      "type": "function"
    },
    {
      "inputs": [
        {
          "components": [
            {
              "internalType": "uint128",
              "name": "cumulative",
              "type": "uint128"
            },
            {
              "internalType": "uint64",
              "name": "timestamp",
              "type": "uint64"
            },
            {
              "internalType": "uint64",
              "name": "value",
              "type": "uint64"
            }
          ],
          "internalType": "struct TimeCumulative.DataPoint[]",
          "name": "_points",
          "type": "tuple[]"
        },
        {
          "internalType": "uint256",
          "name": "_startIndex",
          "type": "uint256"
        },
        {
          "internalType": "uint256",
          "name": "_endIndex",
          "type": "uint256"
        }
      ],
      "name": "setData",
      "outputs": [],
      "stateMutability": "nonpayable",
      "type": "function"
    }
  ],
  "bytecode": "0x608060405234801561001057600080fd5b50610e83806100206000396000f3fe608060405234801561001057600080fd5b506004361061007d5760003560e01c80639bb3ead41161005b5780639bb3ead4146100d2578063e69981f3146100e5578063f069762f146100fa578063f469a76c1461010d57600080fd5b806306b42091146100825780633bc5de30146100a85780638b849ded146100bf575b600080fd5b610095610090366004610afc565b610120565b6040519081526020015b60405180910390f35b6100b0610137565b60405161009f93929190610b1e565b6100956100cd366004610b98565b610239565b6100956100e0366004610b98565b610246565b6100f86100f3366004610c3b565b610253565b005b6100f8610108366004610d43565b61038a565b6100f861011b366004610afc565b61039a565b600061012e600084846103a6565b90505b92915050565b6001546060906001600160401b0380821691600160401b9004811690819081111561016457610164610bb1565b6040519080825280602002602001820160405280156101af57816020015b60408051606081018252600080825260208083018290529282015282526000199092019101816101825790505b50925060005b818110156102335760008181526020818152604091829020825160608101845290546001600160801b03811682526001600160401b03600160801b8204811693830193909352600160c01b900490911691810191909152845185908390811061022057610220610d6f565b60209081029190910101526001016101b5565b50909192565b6000610131600083610435565b60006101316000836104f2565b6001546001600160401b03165b600154600160401b90046001600160401b031681101561029157600081815260208190526040812055600101610260565b5061029b826105e5565b6001805467ffffffffffffffff19166001600160401b03929092169190911790556102c5816105e5565b600180546001600160401b0392909216600160401b026fffffffffffffffff000000000000000019909216919091179055815b818110156103845783818151811061031257610312610d6f565b6020908102919091018101516000838152808352604090819020825181549484015192909301516001600160801b039093166001600160c01b031990941693909317600160801b6001600160401b0392831602176001600160c01b0316600160c01b91909216021790556001016102f8565b50505050565b61039660008383610651565b5050565b610396600083836109c2565b60008183111561040f5760405162461bcd60e51b815260206004820152602960248201527f54696d6543756d756c61746976653a20696e74657276616c20656e64206265666044820152681bdc99481cdd185c9d60ba1b60648201526084015b60405180910390fd5b61041984846104f2565b61042385846104f2565b61042d9190610d9b565b949350505050565b60018201546000906001600160401b0380821691600160401b900416808210158061047d5750600082815260208690526040902054600160801b90046001600160401b031684105b1561048e5760001992505050610131565b610499826001610dae565b8111156104ea57600060016104ae8385610dae565b901c600081815260208890526040902054909150600160801b90046001600160401b031685106104e0578092506104e4565b8091505b5061048e565b509392505050565b6000806104ff8484610435565b9050600019810361057a5760018401546001600160401b0316156105705760405162461bcd60e51b815260206004820152602260248201527f54696d6543756d756c61746976653a20616c726561647920636c65616e656420604482015261075760f41b6064820152608401610406565b6000915050610131565b600081815260208590526040902080546105a490600160801b90046001600160401b031685610d9b565b81546105c09190600160c01b90046001600160401b0316610dc1565b81546105d591906001600160801b0316610dae565b92505050610131565b5092915050565b60006001600160401b0382111561064d5760405162461bcd60e51b815260206004820152602660248201527f53616665436173743a2076616c756520646f65736e27742066697420696e203660448201526534206269747360d01b6064820152608401610406565b5090565b6001830154600160401b90046001600160401b03166000036107705760018301546001600160401b03161561068857610688610dd8565b604051806060016040528060006001600160801b031681526020016106ac846105e5565b6001600160401b0390811682528381166020909201919091526001850180548692600092600160401b909204169060086106e583610dee565b82546001600160401b039182166101009390930a92830292820219169190911790915590811682526020808301939093526040918201600020845181549486015195909301518216600160c01b026001600160c01b0395909216600160801b026001600160c01b03199094166001600160801b03909316929092179290921792909216179055505050565b60018301546001600160401b03808216600160401b909204161161079657610796610dd8565b600183810154600091859183916107bc91600160401b90046001600160401b0316610e14565b6001600160401b03908116825260208201929092526040016000208054909250600160801b90041683900361080e5780546001600160c01b0316600160c01b6001600160401b03841602178155610384565b8054600160801b90046001600160401b0316831161087f5760405162461bcd60e51b815260206004820152602860248201527f54696d6543756d756c61746976653a2074696d657374616d70206e6f7420696e6044820152676372656173696e6760c01b6064820152608401610406565b805460009061089e90600160801b90046001600160401b031685610d9b565b82546108ba9190600160c01b90046001600160401b0316610dc1565b82546108cf91906001600160801b0316610dae565b905060405180606001604052806108e583610a93565b6001600160801b031681526020016108fc866105e5565b6001600160401b0390811682528581166020909201919091526001870180548892600092600160401b9092041690600861093583610dee565b82546001600160401b039182166101009390930a92830292820219169190911790915590811682526020808301939093526040918201600020845181549486015195909301518216600160c01b026001600160c01b0395909216600160801b026001600160c01b03199094166001600160801b039093169290921792909217929092161790555050505050565b60018301546001600160401b0380821691600160401b90041660005b83811080156109f65750816109f4846001610dae565b105b8015610a2f575084866000610a0c866001610dae565b8152602081019190915260400160002054600160801b90046001600160401b0316105b15610a5e57600083815260208790526040812055610a4c83610e34565b9250610a5781610e34565b90506109de565b610a67836105e5565b600196909601805467ffffffffffffffff19166001600160401b03909716969096179095555050505050565b60006001600160801b0382111561064d5760405162461bcd60e51b815260206004820152602760248201527f53616665436173743a2076616c756520646f65736e27742066697420696e20316044820152663238206269747360c81b6064820152608401610406565b60008060408385031215610b0f57600080fd5b50508035926020909101359150565b60608082528451828201819052600091906020906080850190828901855b82811015610b8157815180516001600160801b03168552858101516001600160401b039081168787015260409182015116908501529285019290840190600101610b3c565b505050602085019690965250505060400152919050565b600060208284031215610baa57600080fd5b5035919050565b634e487b7160e01b600052604160045260246000fd5b604051606081016001600160401b0381118282101715610be957610be9610bb1565b60405290565b604051601f8201601f191681016001600160401b0381118282101715610c1757610c17610bb1565b604052919050565b80356001600160401b0381168114610c3657600080fd5b919050565b60008060006060808587031215610c5157600080fd5b84356001600160401b0380821115610c6857600080fd5b818701915087601f830112610c7c57600080fd5b8135602082821115610c9057610c90610bb1565b610c9e818360051b01610bef565b8281528181019350606090920284018101918a831115610cbd57600080fd5b938101935b82851015610d2b5785858c031215610cda5760008081fd5b610ce2610bc7565b85356001600160801b0381168114610cfa5760008081fd5b8152610d07868401610c1f565b838201526040610d18818801610c1f565b9082015284529385019392810192610cc2565b9a908901359950604090980135979650505050505050565b60008060408385031215610d5657600080fd5b82359150610d6660208401610c1f565b90509250929050565b634e487b7160e01b600052603260045260246000fd5b634e487b7160e01b600052601160045260246000fd5b8181038181111561013157610131610d85565b8082018082111561013157610131610d85565b808202811582820484141761013157610131610d85565b634e487b7160e01b600052600160045260246000fd5b60006001600160401b03808316818103610e0a57610e0a610d85565b6001019392505050565b6001600160401b038281168282160390808211156105de576105de610d85565b600060018201610e4657610e46610d85565b506001019056fea264697066735822122076f86154f8d64a3dad3b6098cb3a4bb2a194ef986ceefc2572f591c200e8707264736f6c63430008170033",
  "linkReferences": {},
  "deployedLinkReferences": {}
}