{
  "_format": "hh-sol-artifact-1",
  "contractName": "CoreVaultSettingsFacet",
  "sourceName": "contracts/assetManager/facets/CoreVaultSettingsFacet.sol",
  "abi": [
    {
      "inputs": [],
      "stateMutability": "nonpayable",
      "type": "constructor"
    },
    {
      "anonymous": false,
      "inputs": [
        {
          "indexed": false,
          "internalType": "bytes",
          "name": "encodedCall",
          "type": "bytes"
        },
        {
          "indexed": false,
          "internalType": "bytes32",
          "name": "encodedCallHash",
          "type": "bytes32"
        },
        {
          "indexed": false,
          "internalType": "uint256",
          "name": "allowedAfterTimestamp",
          "type": "uint256"
        }
      ],
      "name": "GovernanceCallTimelocked",
      "type": "event"
    },
    {
      "anonymous": false,
      "inputs": [
        {
          "indexed": false,
          "internalType": "address",
          "name": "initialGovernance",
          "type": "address"
        }
      ],
      "name": "GovernanceInitialised",
      "type": "event"
    },
    {
      "anonymous": false,
      "inputs": [
        {
          "indexed": false,
          "internalType": "address",
          "name": "governanceSettings",
          "type": "address"
        }
      ],
      "name": "GovernedProductionModeEntered",
      "type": "event"
    },
    {
      "anonymous": false,
      "inputs": [
        {
          "indexed": false,
          "internalType": "bytes32",
          "name": "encodedCallHash",
          "type": "bytes32"
        }
      ],
      "name": "TimelockedGovernanceCallCanceled",
      "type": "event"
    },
    {
      "anonymous": false,
      "inputs": [
        {
          "indexed": false,
          "internalType": "bytes32",
          "name": "encodedCallHash",
          "type": "bytes32"
        }
      ],
      "name": "TimelockedGovernanceCallExecuted",
      "type": "event"
    },
    {
      "inputs": [
        {
          "internalType": "bytes",
          "name": "_encodedCall",
          "type": "bytes"
        }
      ],
      "name": "cancelGovernanceCall",
      "outputs": [],
      "stateMutability": "nonpayable",
      "type": "function"
    },
    {
      "inputs": [
        {
          "internalType": "bytes",
          "name": "_encodedCall",
          "type": "bytes"
        }
      ],
      "name": "executeGovernanceCall",
      "outputs": [],
      "stateMutability": "nonpayable",
      "type": "function"
    },
    {
      "inputs": [],
      "name": "getCoreVaultManager",
      "outputs": [
        {
          "internalType": "address",
          "name": "",
          "type": "address"
        }
      ],
      "stateMutability": "view",
      "type": "function"
    },
    {
      "inputs": [],
      "name": "getCoreVaultMinimumAmountLeftBIPS",
      "outputs": [
        {
          "internalType": "uint256",
          "name": "",
          "type": "uint256"
        }
      ],
      "stateMutability": "view",
      "type": "function"
    },
    {
      "inputs": [],
      "name": "getCoreVaultMinimumRedeemLots",
      "outputs": [
        {
          "internalType": "uint256",
          "name": "",
          "type": "uint256"
        }
      ],
      "stateMutability": "view",
      "type": "function"
    },
    {
      "inputs": [],
      "name": "getCoreVaultNativeAddress",
      "outputs": [
        {
          "internalType": "address",
          "name": "",
          "type": "address"
        }
      ],
      "stateMutability": "view",
      "type": "function"
    },
    {
      "inputs": [],
      "name": "getCoreVaultRedemptionFeeBIPS",
      "outputs": [
        {
          "internalType": "uint256",
          "name": "",
          "type": "uint256"
        }
      ],
      "stateMutability": "view",
      "type": "function"
    },
    {
      "inputs": [],
      "name": "getCoreVaultTransferFeeBIPS",
      "outputs": [
        {
          "internalType": "uint256",
          "name": "",
          "type": "uint256"
        }
      ],
      "stateMutability": "view",
      "type": "function"
    },
    {
      "inputs": [],
      "name": "governance",
      "outputs": [
        {
          "internalType": "address",
          "name": "",
          "type": "address"
        }
      ],
      "stateMutability": "view",
      "type": "function"
    },
    {
      "inputs": [],
      "name": "governanceSettings",
      "outputs": [
        {
          "internalType": "contract IGovernanceSettings",
          "name": "",
          "type": "address"
        }
      ],
      "stateMutability": "view",
      "type": "function"
    },
    {
      "inputs": [
        {
          "internalType": "contract IICoreVaultManager",
          "name": "_coreVaultManager",
          "type": "address"
        },
        {
          "internalType": "address payable",
          "name": "_nativeAddress",
          "type": "address"
        },
        {
          "internalType": "uint256",
          "name": "_transferFeeBIPS",
          "type": "uint256"
        },
        {
          "internalType": "uint256",
          "name": "_redemptionFeeBIPS",
          "type": "uint256"
        },
        {
          "internalType": "uint256",
          "name": "_minimumAmountLeftBIPS",
          "type": "uint256"
        },
        {
          "internalType": "uint256",
          "name": "_minimumRedeemLots",
          "type": "uint256"
        }
      ],
      "name": "initCoreVaultFacet",
      "outputs": [],
      "stateMutability": "nonpayable",
      "type": "function"
    },
    {
      "inputs": [
        {
          "internalType": "contract IGovernanceSettings",
          "name": "_governanceSettings",
          "type": "address"
        },
        {
          "internalType": "address",
          "name": "_initialGovernance",
          "type": "address"
        }
      ],
      "name": "initialise",
      "outputs": [],
      "stateMutability": "nonpayable",
      "type": "function"
    },
    {
      "inputs": [
        {
          "internalType": "address",
          "name": "_address",
          "type": "address"
        }
      ],
      "name": "isExecutor",
      "outputs": [
        {
          "internalType": "bool",
          "name": "",
          "type": "bool"
        }
      ],
      "stateMutability": "view",
      "type": "function"
    },
    {
      "inputs": [],
      "name": "productionMode",
      "outputs": [
        {
          "internalType": "bool",
          "name": "",
          "type": "bool"
        }
      ],
      "stateMutability": "view",
      "type": "function"
    },
    {
      "inputs": [
        {
          "internalType": "address",
          "name": "_coreVaultManager",
          "type": "address"
        }
      ],
      "name": "setCoreVaultManager",
      "outputs": [],
      "stateMutability": "nonpayable",
      "type": "function"
    },
    {
      "inputs": [
        {
          "internalType": "uint256",
          "name": "_minimumAmountLeftBIPS",
          "type": "uint256"
        }
      ],
      "name": "setCoreVaultMinimumAmountLeftBIPS",
      "outputs": [],
      "stateMutability": "nonpayable",
      "type": "function"
    },
    {
      "inputs": [
        {
          "internalType": "uint256",
          "name": "_minimumRedeemLots",
          "type": "uint256"
        }
      ],
      "name": "setCoreVaultMinimumRedeemLots",
      "outputs": [],
      "stateMutability": "nonpayable",
      "type": "function"
    },
    {
      "inputs": [
        {
          "internalType": "address payable",
          "name": "_nativeAddress",
          "type": "address"
        }
      ],
      "name": "setCoreVaultNativeAddress",
      "outputs": [],
      "stateMutability": "nonpayable",
      "type": "function"
    },
    {
      "inputs": [
        {
          "internalType": "uint256",
          "name": "_redemptionFeeBIPS",
          "type": "uint256"
        }
      ],
      "name": "setCoreVaultRedemptionFeeBIPS",
      "outputs": [],
      "stateMutability": "nonpayable",
      "type": "function"
    },
    {
      "inputs": [
        {
          "internalType": "uint256",
          "name": "_transferFeeBIPS",
          "type": "uint256"
        }
      ],
      "name": "setCoreVaultTransferFeeBIPS",
      "outputs": [],
      "stateMutability": "nonpayable",
      "type": "function"
    },
    {
      "inputs": [],
      "name": "switchToProductionMode",
      "outputs": [],
      "stateMutability": "nonpayable",
      "type": "function"
    }
  ],
  "bytecode": "0x608060405234801561001057600080fd5b5061001d61111180610059565b7f908500188c8f91f50d58dffac83eda18fc06d9da0208fc6b66c78a4c3fec74f4805460ff60401b1916680100000000000000001790556101ed565b7f2aa47ee5db910f3b2a06970c443249cc77dbd9f96100cfebc1775ab7fb1d18248054600160a01b900460ff16156100d85760405162461bcd60e51b815260206004820152601460248201527f696e697469616c6973656420213d2066616c736500000000000000000000000060448201526064015b60405180910390fd5b6001600160a01b03831661012e5760405162461bcd60e51b815260206004820152601860248201527f676f7665726e616e63652073657474696e6773207a65726f000000000000000060448201526064016100cf565b6001600160a01b0382166101775760405162461bcd60e51b815260206004820152601060248201526f5f676f7665726e616e6365207a65726f60801b60448201526064016100cf565b80546001600160a01b038481166001600160a81b031990921691909117600160a01b1782556001820180549184166001600160a01b0319909216821790556040519081527f9789733827840833afc031fb2ef9ab6894271f77bad2085687cf4ae5c7bee4db9060200160405180910390a1505050565b6113c2806101fc6000396000f3fe608060405234801561001057600080fd5b50600436106101375760003560e01c8063a67ab2b1116100b8578063e17f212e1161007c578063e17f212e146102e2578063e6a118d514610301578063ec89390514610314578063ef88bf1314610334578063f5a9838314610347578063fe1ad6421461034f57600080fd5b8063a67ab2b114610264578063acdc026014610277578063b2a0d4201461028a578063be1e366a1461029d578063debfda30146102bf57600080fd5b80635aa6e675116100ff5780635aa6e675146101d757806362354e03146101f757806391b4624814610215578063929d71bf14610228578063a2785a711461024657600080fd5b806303094b211461013c57806316fc2f6d1461017c57806320c5f99d1461019157806343b9552e146101a457806344dcbf7b146101b7575b600080fd5b7f908500188c8f91f50d58dffac83eda18fc06d9da0208fc6b66c78a4c3fec74f45467ffffffffffffffff165b6040519081526020015b60405180910390f35b61018f61018a3660046110f8565b610362565b005b61018f61019f3660046110f8565b61044a565b61018f6101b236600461116a565b610639565b60008051602061132d83398151915254600160a01b900461ffff16610169565b6101df610681565b6040516001600160a01b039091168152602001610173565b60008051602061136d833981519152546001600160a01b03166101df565b61018f610223366004611198565b61072a565b60008051602061132d833981519152546001600160a01b03166101df565b60008051602061134d833981519152546001600160a01b03166101df565b61018f61027236600461116a565b610983565b61018f61028536600461116a565b6109c5565b61018f61029836600461116a565b610a07565b60008051602061132d83398151915254600160b01b900463ffffffff16610169565b6102d26102cd3660046111f1565b610a4d565b6040519015158152602001610173565b60008051602061136d83398151915254600160a81b900460ff166102d2565b61018f61030f3660046111f1565b610ae7565b60008051602061132d83398151915254600160d01b900461ffff16610169565b61018f61034236600461120e565b610b3a565b61018f610cae565b61018f61035d3660046111f1565b610d82565b61036a610db9565b60405160008051602061136d8339815191529060009061038d9085908590611247565b60405180910390209050816002016000828152602001908152602001600020546000036104015760405162461bcd60e51b815260206004820152601a60248201527f74696d656c6f636b3a20696e76616c69642073656c6563746f7200000000000060448201526064015b60405180910390fd5b6040518181527f69b058d6225c01c1f2a25801ca5b05705fa2e9118e93d518390ba804398c87b19060200160405180910390a16000908152600290910160205260408120555050565b60008051602061136d83398151915261046233610a4d565b61049e5760405162461bcd60e51b815260206004820152600d60248201526c37b7363c9032bc32b1baba37b960991b60448201526064016103f8565b600083836040516104b0929190611247565b6040805191829003909120600081815260028501602052918220549092509081900361051e5760405162461bcd60e51b815260206004820152601a60248201527f74696d656c6f636b3a20696e76616c69642073656c6563746f7200000000000060448201526064016103f8565b8042101561056e5760405162461bcd60e51b815260206004820152601960248201527f74696d656c6f636b3a206e6f7420616c6c6f776564207965740000000000000060448201526064016103f8565b6000828152600284016020526040808220829055845460ff60b01b1916600160b01b1785555130906105a39088908890611247565b6000604051808303816000865af19150503d80600081146105e0576040519150601f19603f3d011682016040523d82523d6000602084013e6105e5565b606091505b5050845460ff60b01b191685556040518481529091507fec1225e5a8a8acb91e03ce648c683c74f5d152a775b9715980999441d714c44f9060200160405180910390a161063181610e15565b505050505050565b610641610db9565b60008051602061134d83398151915261065982610e32565b600291909101805467ffffffffffffffff191667ffffffffffffffff90921691909117905550565b60008051602061136d833981519152805460009190600160a81b900460ff166106b75760018101546001600160a01b0316610724565b805460408051631cc9492560e21b815290516001600160a01b03909216916373252494916004808201926020929091908290030181865afa158015610700573d6000803e3d6000fd5b505050506040513d601f19601f820116820180604052508101906107249190611257565b91505090565b6301ffc9a760e01b6000527fc8fcad8db84d3cc18b4c41d551ea0ee66dd599cde068d998e57d5e09332c131e6020527f673a26ab9c976db950bbe987aa80c5e387f329563bb0afe093ddccc970489e31547fc8fcad8db84d3cc18b4c41d551ea0ee66dd599cde068d998e57d5e09332c131c9060ff166107ec5760405162461bcd60e51b815260206004820152601760248201527f6469616d6f6e64206e6f7420696e697469616c697a656400000000000000000060448201526064016103f8565b63fb081aa760e01b60009081526002820160205260408082208054600160ff19918216811790925563c6a32fb360e01b8452918320805490921617905560008051602061134d8339815191526002810154909150600160401b900460ff161561088d5760405162461bcd60e51b8152602060048201526013602482015272185b1c9958591e481a5b9a5d1a585b1a5e9959606a1b60448201526064016103f8565b60028101805468ff00000000000000001916600160401b17905580546001600160a01b03808a166001600160a01b0319928316178355600183018054918a16919092161790556108dc86610e9f565b8160010160146101000a81548161ffff021916908361ffff16021790555061090385610f02565b8160010160166101000a81548163ffffffff021916908363ffffffff16021790555061092e84610e9f565b81600101601a6101000a81548161ffff021916908361ffff16021790555061095583610e32565b600291909101805467ffffffffffffffff191667ffffffffffffffff90921691909117905550505050505050565b61098b610db9565b60008051602061134d8339815191526109a382610e9f565b81600101601a6101000a81548161ffff021916908361ffff1602179055505050565b6109cd610db9565b60008051602061134d8339815191526109e582610e9f565b8160010160146101000a81548161ffff021916908361ffff1602179055505050565b610a0f610db9565b60008051602061134d833981519152610a2782610f02565b8160010160166101000a81548163ffffffff021916908363ffffffff1602179055505050565b60008051602061136d833981519152805460009190600160a01b900460ff168015610ae057508054604051630debfda360e41b81526001600160a01b0385811660048301529091169063debfda3090602401602060405180830381865afa158015610abc573d6000803e3d6000fd5b505050506040513d601f19601f82011682018060405250810190610ae09190611274565b9392505050565b610aef610f67565b15610b2a57610afc610f9d565b600060008051602061134d83398151915280546001600160a01b0319166001600160a01b0384161790555050565b610b376000366000610fe1565b50565b60008051602061136d8339815191528054600160a01b900460ff1615610b995760405162461bcd60e51b8152602060048201526014602482015273696e697469616c6973656420213d2066616c736560601b60448201526064016103f8565b6001600160a01b038316610bef5760405162461bcd60e51b815260206004820152601860248201527f676f7665726e616e63652073657474696e6773207a65726f000000000000000060448201526064016103f8565b6001600160a01b038216610c385760405162461bcd60e51b815260206004820152601060248201526f5f676f7665726e616e6365207a65726f60801b60448201526064016103f8565b80546001600160a01b038481166001600160a81b031990921691909117600160a01b1782556001820180549184166001600160a01b0319909216821790556040519081527f9789733827840833afc031fb2ef9ab6894271f77bad2085687cf4ae5c7bee4db9060200160405180910390a1505050565b610cb6610db9565b60008051602061136d8339815191528054600160a81b900460ff1615610d1e5760405162461bcd60e51b815260206004820152601a60248201527f616c726561647920696e2070726f64756374696f6e206d6f646500000000000060448201526064016103f8565b6001810180546001600160a01b03191690558054600160a81b60ff60a81b1982161782556040516001600160a01b0390911681527f83af113638b5422f9e977cebc0aaf0eaf2188eb9a8baae7f9d46c42b33a1560c9060200160405180910390a150565b610d8a610db9565b60008051602061132d83398151915280546001600160a01b0319166001600160a01b0392909216919091179055565b610dc1610681565b6001600160a01b0316336001600160a01b031614610e135760405162461bcd60e51b815260206004820152600f60248201526e6f6e6c7920676f7665726e616e636560881b60448201526064016103f8565b565b3d604051818101604052816000823e8215610e2e578181f35b8181fd5b600067ffffffffffffffff821115610e9b5760405162461bcd60e51b815260206004820152602660248201527f53616665436173743a2076616c756520646f65736e27742066697420696e203660448201526534206269747360d01b60648201526084016103f8565b5090565b600061ffff821115610e9b5760405162461bcd60e51b815260206004820152602660248201527f53616665436173743a2076616c756520646f65736e27742066697420696e203160448201526536206269747360d01b60648201526084016103f8565b600063ffffffff821115610e9b5760405162461bcd60e51b815260206004820152602660248201527f53616665436173743a2076616c756520646f65736e27742066697420696e203360448201526532206269747360d01b60648201526084016103f8565b60008051602061136d833981519152805460009190600160b01b900460ff1680610724575054600160a81b900460ff1615919050565b60008051602061136d8339815191528054600160b01b900460ff1615610fd957333014610fcc57610fcc611296565b805460ff60b01b19169055565b610b37610db9565b60008051602061136d833981519152610ff8610db9565b6000848460405161100a929190611247565b604080519182900382208454636221a54b60e01b845291519093506000926001600160a01b0390921691636221a54b9160048083019260209291908290030181865afa15801561105e573d6000803e3d6000fd5b505050506040513d601f19601f8201168201806040525081019061108291906112ac565b90508381101561108f5750825b600061109b82426112c5565b600084815260028601602052604090819020829055519091507f8c02104dfc280f713854f25297de671710c544c58de69dbde8fb66974ce1ab9e906110e79089908990879086906112ec565b60405180910390a150505050505050565b6000806020838503121561110b57600080fd5b823567ffffffffffffffff8082111561112357600080fd5b818501915085601f83011261113757600080fd5b81358181111561114657600080fd5b86602082850101111561115857600080fd5b60209290920196919550909350505050565b60006020828403121561117c57600080fd5b5035919050565b6001600160a01b0381168114610b3757600080fd5b60008060008060008060c087890312156111b157600080fd5b86356111bc81611183565b955060208701356111cc81611183565b95989597505050506040840135936060810135936080820135935060a0909101359150565b60006020828403121561120357600080fd5b8135610ae081611183565b6000806040838503121561122157600080fd5b823561122c81611183565b9150602083013561123c81611183565b809150509250929050565b8183823760009101908152919050565b60006020828403121561126957600080fd5b8151610ae081611183565b60006020828403121561128657600080fd5b81518015158114610ae057600080fd5b634e487b7160e01b600052600160045260246000fd5b6000602082840312156112be57600080fd5b5051919050565b808201808211156112e657634e487b7160e01b600052601160045260246000fd5b92915050565b606081528360608201528385608083013760006080858301015260006080601f19601f87011683010190508360208301528260408301529594505050505056fe908500188c8f91f50d58dffac83eda18fc06d9da0208fc6b66c78a4c3fec74f3908500188c8f91f50d58dffac83eda18fc06d9da0208fc6b66c78a4c3fec74f22aa47ee5db910f3b2a06970c443249cc77dbd9f96100cfebc1775ab7fb1d1824a264697066735822122021216d5b088e52d968525ac3aeb44d23b3547ab11c10127574ee40741945c71664736f6c63430008170033",
  "linkReferences": {},
  "deployedLinkReferences": {}
}