{
  "_format": "hh-sol-artifact-1",
  "contractName": "RedemptionRequestsFacet",
  "sourceName": "contracts/assetManager/facets/RedemptionRequestsFacet.sol",
  "abi": [
    {
      "anonymous": false,
      "inputs": [
        {
          "indexed": true,
          "internalType": "address",
          "name": "agentVault",
          "type": "address"
        },
        {
          "indexed": false,
          "internalType": "uint256",
          "name": "dustUBA",
          "type": "uint256"
        }
      ],
      "name": "DustChanged",
      "type": "event"
    },
    {
      "anonymous": false,
      "inputs": [
        {
          "indexed": true,
          "internalType": "address",
          "name": "agentVault",
          "type": "address"
        }
      ],
      "name": "LiquidationEnded",
      "type": "event"
    },
    {
      "anonymous": false,
      "inputs": [
        {
          "indexed": true,
          "internalType": "address",
          "name": "agentVault",
          "type": "address"
        },
        {
          "indexed": true,
          "internalType": "address",
          "name": "redeemer",
          "type": "address"
        },
        {
          "indexed": false,
          "internalType": "uint256",
          "name": "redemptionAmountUBA",
          "type": "uint256"
        },
        {
          "indexed": false,
          "internalType": "uint256",
          "name": "paidVaultCollateralWei",
          "type": "uint256"
        }
      ],
      "name": "RedeemedInCollateral",
      "type": "event"
    },
    {
      "anonymous": false,
      "inputs": [
        {
          "indexed": true,
          "internalType": "address",
          "name": "agentVault",
          "type": "address"
        },
        {
          "indexed": true,
          "internalType": "address",
          "name": "redeemer",
          "type": "address"
        },
        {
          "indexed": true,
          "internalType": "uint64",
          "name": "requestId",
          "type": "uint64"
        },
        {
          "indexed": false,
          "internalType": "uint256",
          "name": "redemptionAmountUBA",
          "type": "uint256"
        }
      ],
      "name": "RedemptionRejected",
      "type": "event"
    },
    {
      "anonymous": false,
      "inputs": [
        {
          "indexed": true,
          "internalType": "address",
          "name": "redeemer",
          "type": "address"
        },
        {
          "indexed": false,
          "internalType": "uint256",
          "name": "remainingLots",
          "type": "uint256"
        }
      ],
      "name": "RedemptionRequestIncomplete",
      "type": "event"
    },
    {
      "anonymous": false,
      "inputs": [
        {
          "indexed": true,
          "internalType": "address",
          "name": "agentVault",
          "type": "address"
        },
        {
          "indexed": true,
          "internalType": "address",
          "name": "redeemer",
          "type": "address"
        },
        {
          "indexed": true,
          "internalType": "uint256",
          "name": "requestId",
          "type": "uint256"
        },
        {
          "indexed": false,
          "internalType": "string",
          "name": "paymentAddress",
          "type": "string"
        },
        {
          "indexed": false,
          "internalType": "uint256",
          "name": "valueUBA",
          "type": "uint256"
        },
        {
          "indexed": false,
          "internalType": "uint256",
          "name": "feeUBA",
          "type": "uint256"
        },
        {
          "indexed": false,
          "internalType": "uint256",
          "name": "firstUnderlyingBlock",
          "type": "uint256"
        },
        {
          "indexed": false,
          "internalType": "uint256",
          "name": "lastUnderlyingBlock",
          "type": "uint256"
        },
        {
          "indexed": false,
          "internalType": "uint256",
          "name": "lastUnderlyingTimestamp",
          "type": "uint256"
        },
        {
          "indexed": false,
          "internalType": "bytes32",
          "name": "paymentReference",
          "type": "bytes32"
        },
        {
          "indexed": false,
          "internalType": "address",
          "name": "executor",
          "type": "address"
        },
        {
          "indexed": false,
          "internalType": "uint256",
          "name": "executorFeeNatWei",
          "type": "uint256"
        }
      ],
      "name": "RedemptionRequested",
      "type": "event"
    },
    {
      "anonymous": false,
      "inputs": [
        {
          "indexed": true,
          "internalType": "address",
          "name": "agentVault",
          "type": "address"
        },
        {
          "indexed": true,
          "internalType": "uint256",
          "name": "redemptionTicketId",
          "type": "uint256"
        },
        {
          "indexed": false,
          "internalType": "uint256",
          "name": "ticketValueUBA",
          "type": "uint256"
        }
      ],
      "name": "RedemptionTicketCreated",
      "type": "event"
    },
    {
      "anonymous": false,
      "inputs": [
        {
          "indexed": true,
          "internalType": "address",
          "name": "agentVault",
          "type": "address"
        },
        {
          "indexed": true,
          "internalType": "uint256",
          "name": "redemptionTicketId",
          "type": "uint256"
        }
      ],
      "name": "RedemptionTicketDeleted",
      "type": "event"
    },
    {
      "anonymous": false,
      "inputs": [
        {
          "indexed": true,
          "internalType": "address",
          "name": "agentVault",
          "type": "address"
        },
        {
          "indexed": true,
          "internalType": "uint256",
          "name": "redemptionTicketId",
          "type": "uint256"
        },
        {
          "indexed": false,
          "internalType": "uint256",
          "name": "ticketValueUBA",
          "type": "uint256"
        }
      ],
      "name": "RedemptionTicketUpdated",
      "type": "event"
    },
    {
      "anonymous": false,
      "inputs": [
        {
          "indexed": true,
          "internalType": "address",
          "name": "agentVault",
          "type": "address"
        },
        {
          "indexed": false,
          "internalType": "uint256",
          "name": "valueUBA",
          "type": "uint256"
        }
      ],
      "name": "SelfClose",
      "type": "event"
    },
    {
      "inputs": [
        {
          "internalType": "address",
          "name": "_agentVault",
          "type": "address"
        }
      ],
      "name": "convertDustToTicket",
      "outputs": [],
      "stateMutability": "nonpayable",
      "type": "function"
    },
    {
      "inputs": [
        {
          "internalType": "address",
          "name": "_agentVault",
          "type": "address"
        }
      ],
      "name": "maxRedemptionFromAgent",
      "outputs": [
        {
          "internalType": "uint256",
          "name": "",
          "type": "uint256"
        }
      ],
      "stateMutability": "view",
      "type": "function"
    },
    {
      "inputs": [
        {
          "internalType": "uint256",
          "name": "_lots",
          "type": "uint256"
        },
        {
          "internalType": "string",
          "name": "_redeemerUnderlyingAddressString",
          "type": "string"
        },
        {
          "internalType": "address payable",
          "name": "_executor",
          "type": "address"
        }
      ],
      "name": "redeem",
      "outputs": [
        {
          "internalType": "uint256",
          "name": "_redeemedAmountUBA",
          "type": "uint256"
        }
      ],
      "stateMutability": "payable",
      "type": "function"
    },
    {
      "inputs": [
        {
          "internalType": "address",
          "name": "_agentVault",
          "type": "address"
        },
        {
          "internalType": "address",
          "name": "_receiver",
          "type": "address"
        },
        {
          "internalType": "uint256",
          "name": "_amountUBA",
          "type": "uint256"
        },
        {
          "internalType": "string",
          "name": "_receiverUnderlyingAddress",
          "type": "string"
        },
        {
          "internalType": "address payable",
          "name": "_executor",
          "type": "address"
        }
      ],
      "name": "redeemFromAgent",
      "outputs": [],
      "stateMutability": "payable",
      "type": "function"
    },
    {
      "inputs": [
        {
          "internalType": "address",
          "name": "_agentVault",
          "type": "address"
        },
        {
          "internalType": "address",
          "name": "_receiver",
          "type": "address"
        },
        {
          "internalType": "uint256",
          "name": "_amountUBA",
          "type": "uint256"
        }
      ],
      "name": "redeemFromAgentInCollateral",
      "outputs": [],
      "stateMutability": "nonpayable",
      "type": "function"
    },
    {
      "inputs": [
        {
          "components": [
            {
              "internalType": "bytes32[]",
              "name": "merkleProof",
              "type": "bytes32[]"
            },
            {
              "components": [
                {
                  "internalType": "bytes32",
                  "name": "attestationType",
                  "type": "bytes32"
                },
                {
                  "internalType": "bytes32",
                  "name": "sourceId",
                  "type": "bytes32"
                },
                {
                  "internalType": "uint64",
                  "name": "votingRound",
                  "type": "uint64"
                },
                {
                  "internalType": "uint64",
                  "name": "lowestUsedTimestamp",
                  "type": "uint64"
                },
                {
                  "components": [
                    {
                      "internalType": "string",
                      "name": "addressStr",
                      "type": "string"
                    }
                  ],
                  "internalType": "struct IAddressValidity.RequestBody",
                  "name": "requestBody",
                  "type": "tuple"
                },
                {
                  "components": [
                    {
                      "internalType": "bool",
                      "name": "isValid",
                      "type": "bool"
                    },
                    {
                      "internalType": "string",
                      "name": "standardAddress",
                      "type": "string"
                    },
                    {
                      "internalType": "bytes32",
                      "name": "standardAddressHash",
                      "type": "bytes32"
                    }
                  ],
                  "internalType": "struct IAddressValidity.ResponseBody",
                  "name": "responseBody",
                  "type": "tuple"
                }
              ],
              "internalType": "struct IAddressValidity.Response",
              "name": "data",
              "type": "tuple"
            }
          ],
          "internalType": "struct IAddressValidity.Proof",
          "name": "_proof",
          "type": "tuple"
        },
        {
          "internalType": "uint256",
          "name": "_redemptionRequestId",
          "type": "uint256"
        }
      ],
      "name": "rejectInvalidRedemption",
      "outputs": [],
      "stateMutability": "nonpayable",
      "type": "function"
    },
    {
      "inputs": [
        {
          "internalType": "address",
          "name": "_agentVault",
          "type": "address"
        },
        {
          "internalType": "uint256",
          "name": "_amountUBA",
          "type": "uint256"
        }
      ],
      "name": "selfClose",
      "outputs": [
        {
          "internalType": "uint256",
          "name": "_closedAmountUBA",
          "type": "uint256"
        }
      ],
      "stateMutability": "nonpayable",
      "type": "function"
    }
  ],
  "bytecode": "0x608060405234801561001057600080fd5b50614f17806100206000396000f3fe6080604052600436106100705760003560e01c80639584da2a1161004e5780639584da2a146100e957806399646d1c14610109578063997be0f41461011c578063ed000b301461012f57600080fd5b80631e8bee011461007557806365454f94146100a757806387375f27146100c9575b600080fd5b34801561008157600080fd5b50610095610090366004614405565b61014f565b60405190815260200160405180910390f35b3480156100b357600080fd5b506100c76100c2366004614405565b610160565b005b3480156100d557600080fd5b506100c76100e4366004614422565b61018b565b3480156100f557600080fd5b5061009561010436600461446b565b6101c0565b61009561011736600461452b565b6101f5565b6100c761012a366004614585565b610243565b34801561013b57600080fd5b506100c761014a366004614605565b61027e565b600061015a826102b5565b92915050565b6101686102cc565b61017181610338565b6101886001600080516020614ec283398151915255565b50565b6101936102cc565b6101a5826101a0836103c6565b610432565b6101bc6001600080516020614ec283398151915255565b5050565b60006101ca6106ca565b6101d26102cc565b6101dc8383610755565b905061015a6001600080516020614ec283398151915255565b60006101ff61082d565b6102076106ca565b61020f6102cc565b6102233361021c866103c6565b85856108f9565b905061023c6001600080516020614ec283398151915255565b9392505050565b61024b6106ca565b6102536102cc565b6102608585858585610b8a565b6102776001600080516020614ec283398151915255565b5050505050565b6102866106ca565b61028e6102cc565b610299838383610c5f565b6102b06001600080516020614ec283398151915255565b505050565b6000806102c183610da0565b905061023c81610e47565b600080516020614ec28339815191528054600119016103325760405162461bcd60e51b815260206004820152601f60248201527f5265656e7472616e637947756172643a207265656e7472616e742063616c6c0060448201526064015b60405180910390fd5b60029055565b6000610342610f49565b9050600061034f83610da0565b600d83015460068201549192506001600160401b039081169116106102b057600d8201546006820154600091610391916001600160401b03918216911661465c565b60068301549091506000906103b09083906001600160401b0316614698565b90506103bc8382610f6d565b61027783836110fb565b60006001600160401b0382111561042e5760405162461bcd60e51b815260206004820152602660248201527f53616665436173743a2076616c756520646f65736e27742066697420696e203660448201526534206269747360d01b6064820152608401610329565b5090565b600061043d82611191565b600881015490915060ff1615610455576104556146b8565b600481015460009061046f906001600160a01b0316610da0565b905060016004830154600160a01b900460ff166002811115610493576104936146ce565b146104e05760405162461bcd60e51b815260206004820152601960248201527f696e76616c696420726564656d7074696f6e20737461747573000000000000006044820152606401610329565b6104e98161126d565b6104f2846112bc565b600061050160208601866146e4565b61050f906080810190614704565b610519908061471a565b604051610527929190614767565b60405180910390209050826000015481146105745760405162461bcd60e51b815260206004820152600d60248201526c77726f6e67206164647265737360981b6044820152606401610329565b600061058360208701876146e4565b6105919060a0810190614777565b61059f90602081019061479b565b80156105c9575083546105b560208801886146e4565b6105c39060a0810190614777565b60400135145b905080156106095760405162461bcd60e51b815260206004820152600d60248201526c1859191c995cdcc81d985b1a59609a1b6044820152606401610329565b61063c838560020160189054906101000a90046001600160401b03168660040160159054906101000a900460ff166113e4565b600284015460009061065d90600160c01b90046001600160401b03166114da565b600386015460048701546040518381529293506001600160401b038916926001600160a01b0392831692909116907f546ca4504281c4fdf80e86f89160accd6da6cea9b105796337a515103ec70a6f9060200160405180910390a46106c18661150b565b50505050505050565b7fec7e8c1c441439dd40959777f4c577ea0cd42fcc1dbe59d2bd0f5d9c55df8dc654600080516020614ea28339815191529042600160401b9091046001600160401b031611156101885760405162461bcd60e51b8152602060048201526016602482015275656d657267656e63792070617573652061637469766560501b6044820152606401610329565b60008061076184610da0565b905061076c8161126d565b826000036107ae5760405162461bcd60e51b815260206004820152600f60248201526e073656c6620636c6f7365206f66203608c1b6044820152606401610329565b60006107b9846115cf565b905060006107cb838360016000611600565b9150506107d83382611766565b6107e1836117ce565b856001600160a01b03167f27a9c0ea115e1a078f8a4ddd385379102c3138ded0ddd00bf9cc5ee197457dc88260405161081c91815260200190565b60405180910390a295945050505050565b6000610837610f49565b60068101549091506001600160a01b031615610188576006810154604051633af32abf60e01b81523360048201526001600160a01b0390911690633af32abf90602401602060405180830381865afa158015610897573d6000803e3d6000fd5b505050506040513d601f19601f820116820180604052508101906108bb91906147b8565b6101885760405162461bcd60e51b815260206004820152600f60248201526e1b9bdd081dda1a5d195b1a5cdd1959608a1b6044820152606401610329565b600080610904610f49565b600f0160109054906101000a900461ffff1661ffff16905060006040518060400160405280836001600160401b0381111561094157610941614489565b60405190808252806020026020018201604052801561098657816020015b604080518082019091526000808252602082015281526020019060019003908161095f5790505b508152602001600081525090506000805b83811080156109b75750876001600160401b0316826001600160401b0316105b15610a6d577fec7e8c1c441439dd40959777f4c577ea0cd42fcc1dbe59d2bd0f5d9c55df8dbf546001600160401b0316600003610a3c57816001600160401b0316600003610a375760405162461bcd60e51b815260206004820152600d60248201526c72656465656d2030206c6f747360981b6044820152606401610329565b610a6d565b610a4f610a49838a614698565b846118ba565b610a5990836147d5565b915080610a65816147f5565b915050610997565b506000610a7e633b9aca003461480e565b905060005b8360200151811015610afa576000818560200151610aa19190614822565b610aab908461480e565b9050610ab78184614822565b9250610af085600001518381518110610ad257610ad2614835565b60200260200101518c8b60008c610ae8876103c6565b600080611ac7565b5050600101610a83565b50876001600160401b0316826001600160401b03161015610b66576001600160a01b0389167fffb29516defd624d1f4ff8436cc96282ba7b4294c3a18cf274c3bdf21c9ccd99610b4a848b614698565b6040516001600160401b03909116815260200160405180910390a25b6000610b7183611f66565b9050610b7d3382611766565b9998505050505050505050565b6000610b9586610da0565b9050610ba081611faa565b83600003610be25760405162461bcd60e51b815260206004820152600f60248201526e0726564656d7074696f6e206f66203608c1b6044820152606401610329565b6000610bed856115cf565b9050600080610bff8484600080611600565b604080518082019091526001600160a01b038c1681526001600160401b03831660208201529193509150610c48818a8960018a610ae8610c43633b9aca003461480e565b6103c6565b50610c533383611766565b50505050505050505050565b6000610c6a84610da0565b9050610c7581611faa565b81600003610cb75760405162461bcd60e51b815260206004820152600f60248201526e0726564656d7074696f6e206f66203608c1b6044820152606401610329565b6000610cc2836115cf565b9050600080610cd5848460016000611600565b60048601549193509150600090610cf490610100900461ffff16611ffa565b600a860154909150600090610d2790600160801b900461ffff16610d216001600160401b03871685612045565b9061205f565b9050610d3486898361206e565b50876001600160a01b0316896001600160a01b03167f25c177efe505ee9dd8e37b9825d729e1a27b6ac048c6e55ba91841d9a7fa9ecc8584604051610d83929190918252602082015260400190565b60405180910390a3610d953384611766565b505050505050505050565b7f5bebac0595fee029d42bb673937f5f1cb81cf8641382bc17774635de9b7d796568010000000000000000600160e01b03604083901b161880600060048084015460ff1690811115610df457610df46146ce565b03610e415760405162461bcd60e51b815260206004820152601b60248201527f696e76616c6964206167656e74207661756c74206164647265737300000000006044820152606401610329565b50919050565b6006810154600090600080516020614ea2833981519152906001600160401b031682610e71610f49565b600f0154600160801b900461ffff16905060006008840181610e9288612178565b6001600160a01b0316815260208101919091526040016000908120546001600160401b031691505b6001600160401b03821615801590610ed157508281105b15610f35576001600160401b038281166000908152600787016020526040902080549091610f0791600160a01b900416866147d5565b6001909101549094506001600160401b03600160c01b90910416915080610f2d816147f5565b915050610eba565b50610f3f836114da565b9695505050505050565b7f4f24f5c433db0962dac0d2c8b84197a6e6c7cc4e5d9ebe1916a1b6193da2f33a90565b600080516020614ea28339815191526000610f8784612178565b6009830154600160401b90046001600160401b031660008181526007850160205260409020805492935090916001600160a01b0380851691160361108457805485908290601490610fe9908490600160a01b90046001600160401b03166147d5565b92506101000a8154816001600160401b0302191690836001600160401b03160217905550600061102f8260000160149054906101000a90046001600160401b03166114da565b9050826001600160401b0316846001600160a01b03167f9d2e72c50be7927e999d37329649af37a863df77bcb25361699ce021d3d7475d8360405161107691815260200190565b60405180910390a3506110f3565b60006110946007860185886121a0565b905060006110a1876114da565b9050816001600160401b0316856001600160a01b03167f631f8f2039090539b2ea4ef7dc567f7f1939ef4dd3e790b1ca7bc548a1fada58836040516110e891815260200190565b60405180910390a350505b505050505050565b60068201546001600160401b03808316911603611116575050565b60068201805467ffffffffffffffff19166001600160401b038316179055600061113f826114da565b905061114a83612178565b6001600160a01b03167fa3db2bc927901a1d3ba09ad51d84609457b98443be9132a0a936a47c5a1081b58260405161118491815260200190565b60405180910390a2505050565b6000600080516020614ea28339815191526001600160401b03831682036111ef5760405162461bcd60e51b81526020600482015260126024820152711a5b9d985b1a59081c995c5d595cdd081a5960721b6044820152606401610329565b6001600160401b0383166000908152600a82016020526040812092506004830154600160a01b900460ff16600281111561122b5761122b6146ce565b03610e415760405162461bcd60e51b81526020600482015260126024820152711a5b9d985b1a59081c995c5d595cdd081a5960721b6044820152606401610329565b61127781336125a9565b6101885760405162461bcd60e51b815260206004820152601660248201527537b7363c9030b3b2b73a103b30bab63a1037bbb732b960511b6044820152606401610329565b60006112c6610f49565b6008810154600b8201549192506001600160a01b0316906112ea60208501856146e4565b602001351461132b5760405162461bcd60e51b815260206004820152600d60248201526c34b73b30b634b21031b430b4b760991b6044820152606401610329565b60405163f34ef58760e01b81526001600160a01b0382169063f34ef587906113579086906004016149f8565b602060405180830381865afa158015611374573d6000803e3d6000fd5b505050506040513d601f19601f8201168201806040525081019061139891906147b8565b6102b05760405162461bcd60e51b815260206004820152601b60248201527f616464726573732076616c6964697479206e6f742070726f76656400000000006044820152606401610329565b6114328360050160109054906101000a90046001600160401b031683604051806040016040528060148152602001736e6f7420656e6f7567682072656465656d696e6760601b815250612658565b8360050160106101000a8154816001600160401b0302191690836001600160401b03160217905550806102b0576114ad8360050160189054906101000a90046001600160401b031683604051806040016040528060148152602001736e6f7420656e6f7567682072656465656d696e6760601b815250612658565b8360050160186101000a8154816001600160401b0302191690836001600160401b03160217905550505050565b6000806114e5610f49565b600c81015490915061023c906001600160401b03600160901b9091048116908516614a95565b611514816126a3565b6001600160401b03811660009081527fec7e8c1c441439dd40959777f4c577ea0cd42fcc1dbe59d2bd0f5d9c55df8dc06020526040812081815560018101829055600281018290556003810180546001600160e01b03199081169091556004820180546001600160b01b031916905560058201805490911690556006810180546001600160801b0319169055600080516020614ea2833981519152916115bd60078301826143a6565b50600801805462ffffff191690555050565b6000806115da610f49565b600c81015490915061023c90610c4390600160901b90046001600160401b03168561480e565b600080600080516020614ea28339815191528361164b5760068701546116309087906001600160401b0316612714565b92506001600160401b0383161561164b5761164b878461273d565b6000611655610f49565b600f0154600160801b900461ffff16905060005b81811080156116895750876001600160401b0316856001600160401b0316105b1561173f576000600884018161169e8c612178565b6001600160a01b0316815260208101919091526040016000908120546001600160401b031691508190036116d2575061173f565b6001600160401b03811660009081526007850160205260408120906117116116fa898d614698565b8354600160a01b90046001600160401b0316612714565b905061171d838261278e565b61172781896147d5565b97505050508080611737906147f5565b915050611669565b50611749846114da565b9250851561175b5761175b888561296f565b505094509492505050565b61176e612a08565b604051632770a7eb60e21b81526001600160a01b038481166004830152602482018490529190911690639dc29fac90604401600060405180830381600087803b1580156117ba57600080fd5b505af11580156110f3573d6000803e3d6000fd5b600260048083015460ff16908111156117e9576117e96146ce565b146117f15750565b60006117fc82612a26565b9050600061180983612a9a565b9050600061181984836000612b70565b9050600061182985846001612b70565b905081846000015110158015611843575080846020015110155b15610277576004850180547fff00000000000000000000ffffffffffffffffffffffffffffffffffffffff0016600117905561187e85612178565b6001600160a01b03167fe513b42585b0ceec0d56d56fe3a23861c15a2f74eb4c32c94334d63d68ff4dcf60405160405180910390a25050505050565b6000600080516020614ea2833981519152816118d4610f49565b60098301549091506001600160401b031660008190036118fa576000935050505061015a565b6001600160401b0381811660009081526007850160205260408120600d850154815491936119339291811691600160a01b900416614aac565b905061193f8882612714565b95506001600160401b03861615611ab157600d84015460009061196b906001600160401b031688614ad2565b83549091506001600160a01b031660005b8960200151811080156119c25750816001600160a01b03168a6000015182815181106119aa576119aa614835565b6020026020010151600001516001600160a01b031614155b156119d7576119d0816147f5565b905061197c565b8960200151811015611a4357828a6000015182815181106119fa576119fa614835565b602002602001015160200151611a1091906147d5565b8a51805183908110611a2457611a24614835565b6020908102919091018101516001600160401b03909216910152611a9f565b6040518060400160405280836001600160a01b03168152602001846001600160401b03168152508a600001518b6020018051809190611a81906147f5565b905281518110611a9357611a93614835565b60200260200101819052505b611aa9868461278e565b505050611abc565b611abc83600061278e565b505050505092915050565b8751600090600080516020614ea2833981519152908290611ae790610da0565b895160208b01206003820154919250908103611b455760405162461bcd60e51b815260206004820181905260248201527f63616e6e6f742072656465656d20746f206167656e74277320616464726573736044820152606401610329565b6000611b5c611b578e602001516114da565b612bd4565b9050611b678a612c3d565b9450611c016040805161026081018252600080825260208201819052918101829052606081018290526080810182905260a0810182905260c0810182905260e08101829052610100810182905261012081018290529061014082019081526000602082018190526040820181905260608083018290526080830182905260a0830182905260c083015260e082018190526101009091015290565b8281526001600160801b0382166020820152600f8501546201000090046001600160401b031660608201528d51611c389089612cd2565b6001600160401b0390811660a0840152166080820152611c57426103c6565b6001600160401b031661010082015286611c9d57611c98611b57611c79610f49565b600e01546001600160801b03851690600160401b900461ffff1661205f565b611ca0565b60005b6001600160801b031660408201526001600160a01b038d811660e08301528e511661012082015260208e01516001600160401b031660c082015260016101408201819052508a15156101608201526001600160a01b038a81166101808301526001600160401b038a81166101a084015261020083018e9052881515610220840152600c860154600160a01b9081900461ffff166102408501528882166000908152600a890160209081526040918290208651815590860151918601516001600160801b03928316600160801b918416820217600183015560608701516002808401805460808b015160a08c015160c08d0151958b166001600160801b031990931692909217600160401b918b1691909102179096169588169093026001600160c01b031694909417600160c01b9187169190910217905560e08601516003820180546101008901519288166001600160e01b031990911617919095168402179093556101208501516004840180546001600160a01b031981169290961691821781556101408701518796909491936001600160a81b0319909116909217918490811115611e4f57611e4f6146ce565b021790555061016082015160048201805460ff60a81b1916600160a81b921515929092029190911790556101808201516005820180546101a08501516001600160a01b039093166001600160e01b031990911617600160a01b6001600160401b03938416021790556101c08301516006830180546101e08601519284166001600160801b031990911617600160401b92909316919091029190911790556102008201516007820190611f019082614b79565b50610220820151600890910180546102409093015161ffff166101000262ffff00199215159290921662ffffff199093169290921717905560208e0151611f4a9085908d612dea565b611f5581878e612e8e565b505050505098975050505050505050565b600080611f71610f49565b600c810154600d8201549192506001600160401b03600160901b909104811691611fa091908116908616614a95565b61023c9190614a95565b80546001600160a01b031633146101885760405162461bcd60e51b81526020600482015260146024820152731bdb9b1e4818dbdb1b185d195c985b081c1bdbdb60621b6044820152606401610329565b600080600080516020614ea2833981519152905061203b81600001848154811061202657612026614835565b90600052602060002090600402016000612f53565b5090949350505050565b600061023c826120576009600a614d1c565b859190613112565b600061023c8383612710613112565b60008061207a85613238565b9050600061208786612178565b82546040516370a0823160e01b81526001600160a01b03808416600483015292935061210092879216906370a0823190602401602060405180830381865afa1580156120d7573d6000803e3d6000fd5b505050506040513d601f19601f820116820180604052508101906120fb9190614d28565b613285565b825460405163083e007560e21b81526001600160a01b0391821660048201528782166024820152604481018390529194508216906320f801d490606401600060405180830381600087803b15801561215757600080fd5b505af115801561216b573d6000803e3d6000fd5b5050505050509392505050565b7f5bebac0595fee029d42bb673937f5f1cb81cf8641382bc17774635de9b7d79651860401c90565b6001600160a01b038216600090815260018401602052604081206002850180548391906010906121df90600160801b90046001600160401b0316614d41565b91906101000a8154816001600160401b0302191690836001600160401b03160217905590506040518060c00160405280866001600160a01b03168152602001856001600160401b031681526020018760020160089054906101000a90046001600160401b03166001600160401b0316815260200160006001600160401b031681526020018360000160089054906101000a90046001600160401b03166001600160401b0316815260200160006001600160401b0316815250866000016000836001600160401b03166001600160401b0316815260200190815260200160002060008201518160000160006101000a8154816001600160a01b0302191690836001600160a01b0316021790555060208201518160000160146101000a8154816001600160401b0302191690836001600160401b0316021790555060408201518160010160006101000a8154816001600160401b0302191690836001600160401b0316021790555060608201518160010160086101000a8154816001600160401b0302191690836001600160401b0316021790555060808201518160010160106101000a8154816001600160401b0302191690836001600160401b0316021790555060a08201518160010160186101000a8154816001600160401b0302191690836001600160401b031602179055509050508560020160009054906101000a90046001600160401b03166001600160401b031660000361243c576002860154600160401b90046001600160401b031615612419576124196146b8565b60028601805467ffffffffffffffff19166001600160401b0383161790556124a4565b6002860154600160401b90046001600160401b0316600003612460576124606146b8565b6002860154600160401b908190046001600160401b039081166000908152602089905260409020600101805467ffffffffffffffff60401b19169184169092021790555b6002860180546001600160401b03808416600160401b0267ffffffffffffffff60401b199092169190911790915582541660000361251a578154600160401b90046001600160401b0316156124fb576124fb6146b8565b815467ffffffffffffffff19166001600160401b03821617825561257d565b8154600160401b90046001600160401b031660000361253b5761253b6146b8565b81546001600160401b03600160401b909104811660009081526020889052604090206001018054918316600160c01b026001600160c01b039092169190911790555b815467ffffffffffffffff60401b1916600160401b6001600160401b0383160217909155949350505050565b60018201546000906001600160a01b0390811690831681148061265057506125cf613294565b604051631f86345d60e31b81526001600160a01b038381166004830152919091169063fc31a2e890602401602060405180830381865afa158015612617573d6000803e3d6000fd5b505050506040513d601f19601f8201168201806040525081019061263b9190614d67565b6001600160a01b0316836001600160a01b0316145b949350505050565b6000826001600160401b0316846001600160401b03161015829061268f5760405162461bcd60e51b81526004016103299190614dca565b5050506001600160401b0390811691160390565b60006126ae82611191565b600881015490915060ff16156101bc5760048101546000906126d8906001600160a01b0316610da0565b600c8101549091506001600160401b0380851664010000000090920416036102b057600c0180546bffffffffffffffff00000000191690555050565b6000816001600160401b0316836001600160401b03161115612736578161023c565b5090919050565b600682015460408051808201909152600f81526e1b9bdd08195b9bdd59da08191d5cdd608a1b6020820152600091612782916001600160401b03909116908490612658565b90506102b083826110fb565b6001600160401b0382811660009081527fec7e8c1c441439dd40959777f4c577ea0cd42fcc1dbe59d2bd0f5d9c55df8dbd602052604081208054600080516020614ea2833981519152939192916127ef918691600160a01b90910416614698565b9050806001600160401b03166000036128545781546040516001600160401b038716916001600160a01b0316907fb7f65e70a51658e24800516a5dc90e2dd65176e18381adda77f58e2044482b1990600090a361284f60078401866132b2565b610277565b61285c610f49565b600d01546001600160401b0390811690821610156128ea57815460009061288b906001600160a01b0316610da0565b9050612897818361368c565b82546040516001600160401b038816916001600160a01b0316907fb7f65e70a51658e24800516a5dc90e2dd65176e18381adda77f58e2044482b1990600090a36128e460078501876132b2565b50610277565b815467ffffffffffffffff60a01b1916600160a01b6001600160401b038316021782556000612918826114da565b83546040518281529192506001600160401b038816916001600160a01b03909116907f9d2e72c50be7927e999d37329649af37a863df77bcb25361699ce021d3d7475d9060200160405180910390a3505050505050565b6129ba8260050160089054906101000a90046001600160401b031682604051806040016040528060118152602001701b9bdd08195b9bdd59da081b5a5b9d1959607a1b815250612658565b8260050160086101000a8154816001600160401b0302191690836001600160401b031602179055506101bc6129ee83612178565b6005840154600160401b90046001600160401b03166136b0565b600080612a13610f49565b600101546001600160a01b031692915050565b612a516040518060800160405280600081526020016000815260200160008152602001600081525090565b600080612a5f8460006136fc565b91509150600080612a718660016136fc565b604080516080810182529687526020870192909252908501939093525050606082015292915050565b600080612aa5610f49565b600484015490915060ff166002816004811115612ac457612ac46146ce565b03612b4357600060016004860154600160e81b900460ff166002811115612aed57612aed6146ce565b148015612b29575060118301546004860154612b1c916001600160401b0390811691600160a81b9004166147d5565b6001600160401b03164211155b905080612b37576002612b3a565b60015b95945050505050565b6003816004811115612b5757612b576146ce565b03612b66575060029392505050565b5060009392505050565b600080612b7d858461374a565b90506001846002811115612b9357612b936146ce565b1480612ba65750612ba485846137f6565b155b15612bbc576003015463ffffffff16905061023c565b60030154600160401b900463ffffffff16905061023c565b60006001600160801b0382111561042e5760405162461bcd60e51b815260206004820152602760248201527f53616665436173743a2076616c756520646f65736e27742066697420696e20316044820152663238206269747360c81b6064820152608401610329565b6000600080516020614ea283398151915281612c5761385f565b600e830154612c769190600160401b90046001600160401b03166147d5565b9050600084612c86576000612c89565b60015b60ff16600119612c9a8460016147d5565b161790508083600e0160086101000a8154816001600160401b0302191690836001600160401b03160217905550809350505050919050565b600080600080516020614ea283398151915281612ced610f49565b9050600085612cfb8861387d565b600f850154600160901b90046001600160401b0316612d19426103c6565b612d239190614698565b612d2d91906147d5565b612d3791906147d5565b600c830154909150600090612d6b9063ffffffff16612d616001600160401b0385166103e8614a95565b610c43919061480e565b600d840154600f8601549192506001600160401b03600160981b909104811691612d9d918491620100009004166147d5565b612da791906147d5565b600e840154600f8601549197506001600160401b0390811691612dd3918591600160501b9004166147d5565b612ddd91906147d5565b9450505050509250929050565b818360050160108282829054906101000a90046001600160401b0316612e1091906147d5565b92506101000a8154816001600160401b0302191690836001600160401b0316021790555080612e8457818360050160188282829054906101000a90046001600160401b0316612e5f91906147d5565b92506101000a8154816001600160401b0302191690836001600160401b031602179055505b6102b0838361296f565b816001600160401b03168360e001516001600160a01b03168461012001516001600160a01b03167f8cbbd73a8d1b8b02a53c4c3b0ee34b472fe3099cc19bcfb57f1aae09e8a9847e848760200151886040015189606001518a608001518b60a00151612f0d8c6001600160401b031667232128293320800160c11b1790565b8d6101800151633b9aca008f6101a001516001600160401b0316612f319190614a95565b604051612f4699989796959493929190614ddd565b60405180910390a4505050565b600080600080600080612ff2886001018054612f6e90614afd565b80601f0160208091040260200160405190810160405280929190818152602001828054612f9a90614afd565b8015612fe75780601f10612fbc57610100808354040283529160200191612fe7565b820191906000526020600020905b815481529060010190602001808311612fca57829003601f168201915b505050505088613935565b8a549295509093509150600160f01b900460ff161561303957875460009061302890600160a81b900460ff166001838786613a00565b965091945084935061310b92505050565b60008060006130d48b600201805461305090614afd565b80601f016020809104026020016040519081016040528092919081815260200182805461307c90614afd565b80156130c95780601f1061309e576101008083540402835291602001916130c9565b820191906000526020600020905b8154815290600101906020018083116130ac57829003601f168201915b50505050508b613935565b8d5492955090935091506000906130f890600160a81b900460ff1685848a89613a00565b995094975090955061310b945050505050565b9250925092565b60008082116131565760405162461bcd60e51b815260206004820152601060248201526f4469766973696f6e206279207a65726f60801b6044820152606401610329565b836000036131665750600061023c565b8383028385828161317957613179614646565b04036131975782818161318e5761318e614646565b0491505061023c565b5060006131a4838661480e565b905060006131b28487614e4c565b905060006131c0858761480e565b905060006131ce8688614e4c565b9050856131db8285614a95565b6131e5919061480e565b6131ef8385614a95565b6131f98387614a95565b886132048689614a95565b61320e9190614a95565b6132189190614e60565b6132229190614e60565b61322c9190614e60565b98975050505050505050565b600080600080516020614ea283398151915260048401548154919250829161010090910461ffff1690811061326f5761326f614835565b9060005260206000209060040201915050919050565b6000818310612736578161023c565b60008061329f610f49565b600701546001600160a01b031692915050565b6001600160401b038116600090815260208390526040902080546001600160a01b03166132e1576132e16146b8565b80546001600160a01b031660009081526001808501602052604082209083015490916001600160401b0390911690036133675760028401546001600160401b03848116911614613333576133336146b8565b6001820154600285018054600160401b9092046001600160401b031667ffffffffffffffff199092169190911790556133cf565b60028401546001600160401b0390811690841603613387576133876146b8565b6001828101546001600160401b038082166000908152602088905260409020909201805467ffffffffffffffff60401b1916600160401b928390049093169091029190911790555b6001820154600160401b90046001600160401b03166000036134465760028401546001600160401b03848116600160401b9092041614613411576134116146b8565b600182015460028501805467ffffffffffffffff60401b19166001600160401b03909216600160401b029190911790556134ae565b60028401546001600160401b03600160401b90910481169084160361346d5761346d6146b8565b600180830154600160401b81046001600160401b039081166000908152602088905260409020909201805467ffffffffffffffff1916929091169190911790555b6001820154600160801b90046001600160401b03166000036135135780546001600160401b038481169116146134e6576134e66146b8565b60018201548154600160c01b9091046001600160401b031667ffffffffffffffff19909116178155613579565b80546001600160401b0390811690841603613530576135306146b8565b6001828101546001600160401b03600160801b82048116600090815260208890526040902090920180546001600160c01b0316600160c01b928390049093169091029190911790555b6001820154600160c01b90046001600160401b03166000036135ec5780546001600160401b03848116600160401b90920416146135b8576135b86146b8565b6001820154815467ffffffffffffffff60401b1916600160801b9091046001600160401b0316600160401b0217815561365e565b80546001600160401b03600160401b909104811690841603613610576136106146b8565b6001828101546001600160401b03600160c01b820481166000908152602088905260409020909201805467ffffffffffffffff60801b1916600160801b928390049093169091029190911790555b50506001600160401b031660009081526020919091526040812080546001600160e01b031916815560010155565b60068201546101bc9083906136ab9084906001600160401b03166147d5565b6110fb565b7f341c6685fdb8ed7133465b64f545b9fbc5699a59cbd1ad98992e5c070a74c5106102b07f341c6685fdb8ed7133465b64f545b9fbc5699a59cbd1ad98992e5c070a74c5118484613a77565b60008060008061370c8686613ae0565b91509150600061371c8388613c43565b9050600061372a8389613c43565b90508360400151945061373d8282613d04565b9550505050509250929050565b60006002826002811115613760576137606146ce565b0361376d5761376d6146b8565b600080516020614ea28339815191526000836002811115613790576137906146ce565b036137cc57600484015481548291610100900461ffff169081106137b6576137b6614835565b906000526020600020906004020191505061015a565b6004840154815482916301000000900461ffff169081106137b6576137b6614835565b5092915050565b60008082600281111561380b5761380b6146ce565b0361382757506004820154600160f01b9004600116151561015a565b600182600281111561383b5761383b6146ce565b14613848576138486146b8565b506004820154600160f01b9004600216151561015a565b600061386d6103e843614e4c565b613878906001614e60565b905090565b6001600160a01b03811660009081527f1309a575a1ebd5e5ca64d58e63b864f1d06aed3e31a021b0eabae653c215fb07602052604081207f1309a575a1ebd5e5ca64d58e63b864f1d06aed3e31a021b0eabae653c215fb0690826138e0426103c6565b83548354919250600091613900916001600160401b0390811691166147d5565b905061390c8183613d13565b835467ffffffffffffffff19166001600160401b03919091169081178455610f3f908390614698565b600080600080613943610f49565b600a8101549091506001600160a01b031685156139d45760405163e4a0a55b60e01b81526001600160a01b0382169063e4a0a55b90613986908a90600401614dca565b606060405180830381865afa1580156139a3573d6000803e3d6000fd5b505050506040513d601f19601f820116820180604052508101906139c79190614e73565b945094509450505061310b565b60405163524f388960e01b81526001600160a01b0382169063524f388990613986908a90600401614dca565b600080613a0b610f49565b905060006009613a1b878a614e60565b613a259190614e60565b600a830154909150600090613a45908690600160a81b900460ff16614e60565b905080821015613a5757613a576146b8565b610b7d613a648284614822565b613a6f90600a614d1c565b87908a613112565b6001600160a01b0382166000908152600484016020526040812090613a9b82613d35565b90506000613aa886613d35565b9050613ab5834286613dd0565b613ad64283613ac487856147d5565b613ace9190614698565b889190613dd0565b6110f38684614142565b613b056040805160608101909152806000815260200160008152602001600081525090565b613b2a6040805160608101909152806000815260200160008152602001600081525090565b6000613b36858561374a565b90506000613b44868661417f565b90506000613b51836141b7565b613b5c576000613bc9565b82546040516370a0823160e01b81526001600160a01b038481166004830152909116906370a0823190602401602060405180830381865afa158015613ba5573d6000803e3d6000fd5b505050506040513d601f19601f82011682018060405250810190613bc99190614d28565b9050600080613bd7856141eb565b915091506040518060600160405280896002811115613bf857613bf86146ce565b81526020018481526020018381525096506040518060600160405280896002811115613c2657613c266146ce565b815260200184815260200182815250955050505050509250929050565b600080600184516002811115613c5b57613c5b6146ce565b14613c7a576005830154600160801b90046001600160401b0316613c90565b6005830154600160c01b90046001600160401b03165b60058401546001600160401b0391821692506000918391613cbc9181811691600160401b900416614e60565b613cc69190614e60565b90506000613cd8828760400151612045565b905080600003613cf2576402540be400935050505061015a565b6020860151610f3f9061271083613112565b6000818311612736578161023c565b6000816001600160401b0316836001600160401b03161015612736578161023c565b6001810154600090600160401b90046001600160401b03168103613d5b57506000919050565b60018201546001600160401b03808216600160401b9092041611613d8157613d816146b8565b6001828101548391600091613da69190600160401b90046001600160401b0316614698565b6001600160401b039081168252602082019290925260400160002054600160c01b90041692915050565b6001830154600160401b90046001600160401b0316600003613eef5760018301546001600160401b031615613e0757613e076146b8565b604051806060016040528060006001600160801b03168152602001613e2b846103c6565b6001600160401b0390811682528381166020909201919091526001850180548692600092600160401b90920416906008613e6483614d41565b82546001600160401b039182166101009390930a92830292820219169190911790915590811682526020808301939093526040918201600020845181549486015195909301518216600160c01b026001600160c01b0395909216600160801b026001600160c01b03199094166001600160801b03909316929092179290921792909216179055505050565b60018301546001600160401b03808216600160401b9092041611613f1557613f156146b8565b60018381015460009185918391613f3b91600160401b90046001600160401b0316614698565b6001600160401b03908116825260208201929092526040016000208054909250600160801b900416839003613f8d5780546001600160c01b0316600160c01b6001600160401b0384160217815561413c565b8054600160801b90046001600160401b03168311613ffe5760405162461bcd60e51b815260206004820152602860248201527f54696d6543756d756c61746976653a2074696d657374616d70206e6f7420696e6044820152676372656173696e6760c01b6064820152608401610329565b805460009061401d90600160801b90046001600160401b031685614822565b82546140399190600160c01b90046001600160401b0316614a95565b825461404e91906001600160801b0316614e60565b9050604051806060016040528061406483612bd4565b6001600160801b0316815260200161407b866103c6565b6001600160401b0390811682528581166020909201919091526001870180548892600092600160401b909204169060086140b483614d41565b82546001600160401b039182166101009390930a92830292820219169190911790915590811682526020808301939093526040918201600020845181549486015195909301518216600160c01b026001600160c01b0395909216600160801b026001600160c01b03199094166001600160801b03909316929092179290921792909216179055505b50505050565b6003820154600090614165908490600160c01b90046001600160401b031661429a565b9050614173828260026142d5565b6102b0838260026142d5565b60006001826002811115614195576141956146ce565b146141a8576141a383612178565b61023c565b5050546001600160a01b031690565b8054600090600160b01b90046001600160401b0316158061015a5750505442600160b01b9091046001600160401b03161190565b60008060006141f8610f49565b9050600080600061420a876000612f53565b92509250925060008060006142208a6001612f53565b60108a01549295509093509150600090859061424c90600160c01b90046001600160401b031684614e60565b1015801561427957506010880154869061427690600160c01b90046001600160401b031685614e60565b10155b905086995080614289578661428b565b835b98505050505050505050915091565b60038201546000906142bd908390600160401b90046001600160401b0316614a95565b600384015461023c91906001600160401b0316614e60565b60018301546001600160401b0380821691600160401b90041660005b8381108015614309575081614307846001614e60565b105b801561434257508486600061431f866001614e60565b8152602081019190915260400160002054600160801b90046001600160401b0316105b156143715760008381526020879052604081205561435f836147f5565b925061436a816147f5565b90506142f1565b61437a836103c6565b600196909601805467ffffffffffffffff19166001600160401b03909716969096179095555050505050565b5080546143b290614afd565b6000825580601f106143c2575050565b601f01602090049060005260206000209081019061018891905b8082111561042e57600081556001016143dc565b6001600160a01b038116811461018857600080fd5b60006020828403121561441757600080fd5b813561023c816143f0565b6000806040838503121561443557600080fd5b82356001600160401b0381111561444b57600080fd5b83016040818603121561445d57600080fd5b946020939093013593505050565b6000806040838503121561447e57600080fd5b823561445d816143f0565b634e487b7160e01b600052604160045260246000fd5b600082601f8301126144b057600080fd5b81356001600160401b03808211156144ca576144ca614489565b604051601f8301601f19908116603f011681019082821181831017156144f2576144f2614489565b8160405283815286602085880101111561450b57600080fd5b836020870160208301376000602085830101528094505050505092915050565b60008060006060848603121561454057600080fd5b8335925060208401356001600160401b0381111561455d57600080fd5b6145698682870161449f565b925050604084013561457a816143f0565b809150509250925092565b600080600080600060a0868803121561459d57600080fd5b85356145a8816143f0565b945060208601356145b8816143f0565b93506040860135925060608601356001600160401b038111156145da57600080fd5b6145e68882890161449f565b92505060808601356145f7816143f0565b809150509295509295909350565b60008060006060848603121561461a57600080fd5b8335614625816143f0565b92506020840135614635816143f0565b929592945050506040919091013590565b634e487b7160e01b600052601260045260246000fd5b60006001600160401b038084168061467657614676614646565b92169190910692915050565b634e487b7160e01b600052601160045260246000fd5b6001600160401b038281168282160390808211156137ef576137ef614682565b634e487b7160e01b600052600160045260246000fd5b634e487b7160e01b600052602160045260246000fd5b6000823560be198336030181126146fa57600080fd5b9190910192915050565b60008235601e198336030181126146fa57600080fd5b6000808335601e1984360301811261473157600080fd5b8301803591506001600160401b0382111561474b57600080fd5b60200191503681900382131561476057600080fd5b9250929050565b8183823760009101908152919050565b60008235605e198336030181126146fa57600080fd5b801515811461018857600080fd5b6000602082840312156147ad57600080fd5b813561023c8161478d565b6000602082840312156147ca57600080fd5b815161023c8161478d565b6001600160401b038181168382160190808211156137ef576137ef614682565b60006001820161480757614807614682565b5060010190565b60008261481d5761481d614646565b500490565b8181038181111561015a5761015a614682565b634e487b7160e01b600052603260045260246000fd5b6000823560be1983360301811261486157600080fd5b90910192915050565b80356001600160401b038116811461488157600080fd5b919050565b6000808335601e1984360301811261489d57600080fd5b83016020810192503590506001600160401b038111156148bc57600080fd5b80360382131561476057600080fd5b81835281816020850137506000828201602090810191909152601f909101601f19169091010190565b60008235605e1983360301811261486157600080fd5b600081356149178161478d565b151583526149286020830183614886565b6060602086015261493d6060860182846148cb565b915050604083013560408501528091505092915050565b803582526020810135602083015260006149706040830161486a565b6001600160401b0380821660408601528061498d6060860161486a565b16606086015250506080820135601e198336030181126149ac57600080fd5b60c0608085015282016149bf8180614886565b9150602060c08601526149d660e0860183836148cb565b9150506149e660a08401846148f4565b84820360a0860152612b3a828261490a565b6020815260008235601e19843603018112614a1257600080fd5b83016020810190356001600160401b03811115614a2e57600080fd5b8060051b803603831315614a4157600080fd5b60406020860152606085018290526001600160fb1b03821115614a6357600080fd5b8083608087013784019150614a7d9050602085018561484b565b6060848303016040850152612b3a6080830182614954565b808202811582820484141761015a5761015a614682565b60006001600160401b0380841680614ac657614ac6614646565b92169190910492915050565b6001600160401b03818116838216028082169190828114614af557614af5614682565b505092915050565b600181811c90821680614b1157607f821691505b602082108103610e4157634e487b7160e01b600052602260045260246000fd5b601f8211156102b0576000816000526020600020601f850160051c81016020861015614b5a5750805b601f850160051c820191505b818110156110f357828155600101614b66565b81516001600160401b03811115614b9257614b92614489565b614ba681614ba08454614afd565b84614b31565b602080601f831160018114614bdb5760008415614bc35750858301515b600019600386901b1c1916600185901b1785556110f3565b600085815260208120601f198616915b82811015614c0a57888601518255948401946001909101908401614beb565b5085821015614c285787850151600019600388901b60f8161c191681555b5050505050600190811b01905550565b600181815b80851115614c73578160001904821115614c5957614c59614682565b80851615614c6657918102915b93841c9390800290614c3d565b509250929050565b600082614c8a5750600161015a565b81614c975750600061015a565b8160018114614cad5760028114614cb757614cd3565b600191505061015a565b60ff841115614cc857614cc8614682565b50506001821b61015a565b5060208310610133831016604e8410600b8410161715614cf6575081810a61015a565b614d008383614c38565b8060001904821115614d1457614d14614682565b029392505050565b600061023c8383614c7b565b600060208284031215614d3a57600080fd5b5051919050565b60006001600160401b03808316818103614d5d57614d5d614682565b6001019392505050565b600060208284031215614d7957600080fd5b815161023c816143f0565b6000815180845260005b81811015614daa57602081850181015186830182015201614d8e565b506000602082860101526020601f19601f83011685010191505092915050565b60208152600061023c6020830184614d84565b6000610120808352614df18184018d614d84565b6001600160801b039b8c16602085015299909a166040830152506001600160401b03968716606082015294861660808601529290941660a084015260c08301526001600160a01b0390921660e0820152610100015292915050565b600082614e5b57614e5b614646565b500690565b8082018082111561015a5761015a614682565b600080600060608486031215614e8857600080fd5b835192506020840151915060408401519050925092509256feec7e8c1c441439dd40959777f4c577ea0cd42fcc1dbe59d2bd0f5d9c55df8db60cd2207518cd3e5213e2c6dbe63d55b60aa893c194a427b7d7f1600408fd5bdea264697066735822122015bcbb89efa5041f6e3c8fe7d16c8247fcdfa72f82b70423082a41a53c20a63264736f6c63430008170033",
  "linkReferences": {},
  "deployedLinkReferences": {}
}