{
  "_format": "hh-sol-artifact-1",
  "contractName": "RedemptionRequestsFacet",
  "sourceName": "contracts/assetManager/facets/RedemptionRequestsFacet.sol",
  "abi": [
    {
      "anonymous": false,
      "inputs": [
        {
          "indexed": true,
          "internalType": "address",
          "name": "agentVault",
          "type": "address"
        },
        {
          "indexed": false,
          "internalType": "uint256",
          "name": "dustUBA",
          "type": "uint256"
        }
      ],
      "name": "DustChanged",
      "type": "event"
    },
    {
      "anonymous": false,
      "inputs": [
        {
          "indexed": true,
          "internalType": "address",
          "name": "agentVault",
          "type": "address"
        }
      ],
      "name": "LiquidationEnded",
      "type": "event"
    },
    {
      "anonymous": false,
      "inputs": [
        {
          "indexed": true,
          "internalType": "address",
          "name": "agentVault",
          "type": "address"
        },
        {
          "indexed": true,
          "internalType": "address",
          "name": "redeemer",
          "type": "address"
        },
        {
          "indexed": false,
          "internalType": "uint256",
          "name": "redemptionAmountUBA",
          "type": "uint256"
        },
        {
          "indexed": false,
          "internalType": "uint256",
          "name": "paidVaultCollateralWei",
          "type": "uint256"
        }
      ],
      "name": "RedeemedInCollateral",
      "type": "event"
    },
    {
      "anonymous": false,
      "inputs": [
        {
          "indexed": true,
          "internalType": "address",
          "name": "agentVault",
          "type": "address"
        },
        {
          "indexed": true,
          "internalType": "address",
          "name": "redeemer",
          "type": "address"
        },
        {
          "indexed": true,
          "internalType": "uint64",
          "name": "requestId",
          "type": "uint64"
        },
        {
          "indexed": false,
          "internalType": "uint256",
          "name": "redemptionAmountUBA",
          "type": "uint256"
        }
      ],
      "name": "RedemptionRejected",
      "type": "event"
    },
    {
      "anonymous": false,
      "inputs": [
        {
          "indexed": true,
          "internalType": "address",
          "name": "redeemer",
          "type": "address"
        },
        {
          "indexed": false,
          "internalType": "uint256",
          "name": "remainingLots",
          "type": "uint256"
        }
      ],
      "name": "RedemptionRequestIncomplete",
      "type": "event"
    },
    {
      "anonymous": false,
      "inputs": [
        {
          "indexed": true,
          "internalType": "address",
          "name": "agentVault",
          "type": "address"
        },
        {
          "indexed": true,
          "internalType": "address",
          "name": "redeemer",
          "type": "address"
        },
        {
          "indexed": true,
          "internalType": "uint256",
          "name": "requestId",
          "type": "uint256"
        },
        {
          "indexed": false,
          "internalType": "string",
          "name": "paymentAddress",
          "type": "string"
        },
        {
          "indexed": false,
          "internalType": "uint256",
          "name": "valueUBA",
          "type": "uint256"
        },
        {
          "indexed": false,
          "internalType": "uint256",
          "name": "feeUBA",
          "type": "uint256"
        },
        {
          "indexed": false,
          "internalType": "uint256",
          "name": "firstUnderlyingBlock",
          "type": "uint256"
        },
        {
          "indexed": false,
          "internalType": "uint256",
          "name": "lastUnderlyingBlock",
          "type": "uint256"
        },
        {
          "indexed": false,
          "internalType": "uint256",
          "name": "lastUnderlyingTimestamp",
          "type": "uint256"
        },
        {
          "indexed": false,
          "internalType": "bytes32",
          "name": "paymentReference",
          "type": "bytes32"
        },
        {
          "indexed": false,
          "internalType": "address",
          "name": "executor",
          "type": "address"
        },
        {
          "indexed": false,
          "internalType": "uint256",
          "name": "executorFeeNatWei",
          "type": "uint256"
        }
      ],
      "name": "RedemptionRequested",
      "type": "event"
    },
    {
      "anonymous": false,
      "inputs": [
        {
          "indexed": true,
          "internalType": "address",
          "name": "agentVault",
          "type": "address"
        },
        {
          "indexed": true,
          "internalType": "uint256",
          "name": "redemptionTicketId",
          "type": "uint256"
        },
        {
          "indexed": false,
          "internalType": "uint256",
          "name": "ticketValueUBA",
          "type": "uint256"
        }
      ],
      "name": "RedemptionTicketCreated",
      "type": "event"
    },
    {
      "anonymous": false,
      "inputs": [
        {
          "indexed": true,
          "internalType": "address",
          "name": "agentVault",
          "type": "address"
        },
        {
          "indexed": true,
          "internalType": "uint256",
          "name": "redemptionTicketId",
          "type": "uint256"
        }
      ],
      "name": "RedemptionTicketDeleted",
      "type": "event"
    },
    {
      "anonymous": false,
      "inputs": [
        {
          "indexed": true,
          "internalType": "address",
          "name": "agentVault",
          "type": "address"
        },
        {
          "indexed": true,
          "internalType": "uint256",
          "name": "redemptionTicketId",
          "type": "uint256"
        },
        {
          "indexed": false,
          "internalType": "uint256",
          "name": "ticketValueUBA",
          "type": "uint256"
        }
      ],
      "name": "RedemptionTicketUpdated",
      "type": "event"
    },
    {
      "anonymous": false,
      "inputs": [
        {
          "indexed": true,
          "internalType": "address",
          "name": "agentVault",
          "type": "address"
        },
        {
          "indexed": false,
          "internalType": "uint256",
          "name": "valueUBA",
          "type": "uint256"
        }
      ],
      "name": "SelfClose",
      "type": "event"
    },
    {
      "inputs": [
        {
          "internalType": "address",
          "name": "_agentVault",
          "type": "address"
        }
      ],
      "name": "convertDustToTicket",
      "outputs": [],
      "stateMutability": "nonpayable",
      "type": "function"
    },
    {
      "inputs": [
        {
          "internalType": "address",
          "name": "_agentVault",
          "type": "address"
        }
      ],
      "name": "maxRedemptionFromAgent",
      "outputs": [
        {
          "internalType": "uint256",
          "name": "",
          "type": "uint256"
        }
      ],
      "stateMutability": "view",
      "type": "function"
    },
    {
      "inputs": [
        {
          "internalType": "uint256",
          "name": "_lots",
          "type": "uint256"
        },
        {
          "internalType": "string",
          "name": "_redeemerUnderlyingAddressString",
          "type": "string"
        },
        {
          "internalType": "address payable",
          "name": "_executor",
          "type": "address"
        }
      ],
      "name": "redeem",
      "outputs": [
        {
          "internalType": "uint256",
          "name": "_redeemedAmountUBA",
          "type": "uint256"
        }
      ],
      "stateMutability": "payable",
      "type": "function"
    },
    {
      "inputs": [
        {
          "internalType": "address",
          "name": "_agentVault",
          "type": "address"
        },
        {
          "internalType": "address",
          "name": "_receiver",
          "type": "address"
        },
        {
          "internalType": "uint256",
          "name": "_amountUBA",
          "type": "uint256"
        },
        {
          "internalType": "string",
          "name": "_receiverUnderlyingAddress",
          "type": "string"
        },
        {
          "internalType": "address payable",
          "name": "_executor",
          "type": "address"
        }
      ],
      "name": "redeemFromAgent",
      "outputs": [],
      "stateMutability": "payable",
      "type": "function"
    },
    {
      "inputs": [
        {
          "internalType": "address",
          "name": "_agentVault",
          "type": "address"
        },
        {
          "internalType": "address",
          "name": "_receiver",
          "type": "address"
        },
        {
          "internalType": "uint256",
          "name": "_amountUBA",
          "type": "uint256"
        }
      ],
      "name": "redeemFromAgentInCollateral",
      "outputs": [],
      "stateMutability": "nonpayable",
      "type": "function"
    },
    {
      "inputs": [
        {
          "components": [
            {
              "internalType": "bytes32[]",
              "name": "merkleProof",
              "type": "bytes32[]"
            },
            {
              "components": [
                {
                  "internalType": "bytes32",
                  "name": "attestationType",
                  "type": "bytes32"
                },
                {
                  "internalType": "bytes32",
                  "name": "sourceId",
                  "type": "bytes32"
                },
                {
                  "internalType": "uint64",
                  "name": "votingRound",
                  "type": "uint64"
                },
                {
                  "internalType": "uint64",
                  "name": "lowestUsedTimestamp",
                  "type": "uint64"
                },
                {
                  "components": [
                    {
                      "internalType": "string",
                      "name": "addressStr",
                      "type": "string"
                    }
                  ],
                  "internalType": "struct IAddressValidity.RequestBody",
                  "name": "requestBody",
                  "type": "tuple"
                },
                {
                  "components": [
                    {
                      "internalType": "bool",
                      "name": "isValid",
                      "type": "bool"
                    },
                    {
                      "internalType": "string",
                      "name": "standardAddress",
                      "type": "string"
                    },
                    {
                      "internalType": "bytes32",
                      "name": "standardAddressHash",
                      "type": "bytes32"
                    }
                  ],
                  "internalType": "struct IAddressValidity.ResponseBody",
                  "name": "responseBody",
                  "type": "tuple"
                }
              ],
              "internalType": "struct IAddressValidity.Response",
              "name": "data",
              "type": "tuple"
            }
          ],
          "internalType": "struct IAddressValidity.Proof",
          "name": "_proof",
          "type": "tuple"
        },
        {
          "internalType": "uint256",
          "name": "_redemptionRequestId",
          "type": "uint256"
        }
      ],
      "name": "rejectInvalidRedemption",
      "outputs": [],
      "stateMutability": "nonpayable",
      "type": "function"
    },
    {
      "inputs": [
        {
          "internalType": "address",
          "name": "_agentVault",
          "type": "address"
        },
        {
          "internalType": "uint256",
          "name": "_amountUBA",
          "type": "uint256"
        }
      ],
      "name": "selfClose",
      "outputs": [
        {
          "internalType": "uint256",
          "name": "_closedAmountUBA",
          "type": "uint256"
        }
      ],
      "stateMutability": "nonpayable",
      "type": "function"
    }
  ],
  "bytecode": "0x608060405234801561001057600080fd5b50614f7f806100206000396000f3fe6080604052600436106100705760003560e01c80639584da2a1161004e5780639584da2a146100e957806399646d1c14610109578063997be0f41461011c578063ed000b301461012f57600080fd5b80631e8bee011461007557806365454f94146100a757806387375f27146100c9575b600080fd5b34801561008157600080fd5b5061009561009036600461446d565b61014f565b60405190815260200160405180910390f35b3480156100b357600080fd5b506100c76100c236600461446d565b610160565b005b3480156100d557600080fd5b506100c76100e436600461448a565b61018b565b3480156100f557600080fd5b506100956101043660046144d3565b6101c0565b610095610117366004614593565b6101f5565b6100c761012a3660046145ed565b610243565b34801561013b57600080fd5b506100c761014a36600461466d565b61027e565b600061015a826102b5565b92915050565b6101686102cc565b61017181610338565b6101886001600080516020614f2a83398151915255565b50565b6101936102cc565b6101a5826101a0836103c6565b610432565b6101bc6001600080516020614f2a83398151915255565b5050565b60006101ca6106ca565b6101d26102cc565b6101dc8383610755565b905061015a6001600080516020614f2a83398151915255565b60006101ff61082d565b6102076106ca565b61020f6102cc565b6102233361021c866103c6565b85856108f9565b905061023c6001600080516020614f2a83398151915255565b9392505050565b61024b6106ca565b6102536102cc565b6102608585858585610b8a565b6102776001600080516020614f2a83398151915255565b5050505050565b6102866106ca565b61028e6102cc565b610299838383610c5f565b6102b06001600080516020614f2a83398151915255565b505050565b6000806102c183610da0565b905061023c81610e47565b600080516020614f2a8339815191528054600119016103325760405162461bcd60e51b815260206004820152601f60248201527f5265656e7472616e637947756172643a207265656e7472616e742063616c6c0060448201526064015b60405180910390fd5b60029055565b6000610342610f49565b9050600061034f83610da0565b600d83015460068201549192506001600160401b039081169116106102b057600d8201546006820154600091610391916001600160401b0391821691166146c4565b60068301549091506000906103b09083906001600160401b0316614700565b90506103bc8382610f6d565b61027783836110fb565b60006001600160401b0382111561042e5760405162461bcd60e51b815260206004820152602660248201527f53616665436173743a2076616c756520646f65736e27742066697420696e203660448201526534206269747360d01b6064820152608401610329565b5090565b600061043d82611191565b600881015490915060ff161561045557610455614720565b600481015460009061046f906001600160a01b0316610da0565b905060016004830154600160a01b900460ff16600281111561049357610493614736565b146104e05760405162461bcd60e51b815260206004820152601960248201527f696e76616c696420726564656d7074696f6e20737461747573000000000000006044820152606401610329565b6104e98161126d565b6104f2846112bc565b6000610501602086018661474c565b61050f90608081019061476c565b6105199080614782565b6040516105279291906147cf565b60405180910390209050826000015481146105745760405162461bcd60e51b815260206004820152600d60248201526c77726f6e67206164647265737360981b6044820152606401610329565b6000610583602087018761474c565b6105919060a08101906147df565b61059f906020810190614803565b80156105c9575083546105b5602088018861474c565b6105c39060a08101906147df565b60400135145b905080156106095760405162461bcd60e51b815260206004820152600d60248201526c1859191c995cdcc81d985b1a59609a1b6044820152606401610329565b61063c838560020160189054906101000a90046001600160401b03168660040160159054906101000a900460ff166113e4565b600284015460009061065d90600160c01b90046001600160401b03166114da565b600386015460048701546040518381529293506001600160401b038916926001600160a01b0392831692909116907f546ca4504281c4fdf80e86f89160accd6da6cea9b105796337a515103ec70a6f9060200160405180910390a46106c18661150b565b50505050505050565b7fec7e8c1c441439dd40959777f4c577ea0cd42fcc1dbe59d2bd0f5d9c55df8dc654600080516020614f0a8339815191529042600160401b9091046001600160401b031611156101885760405162461bcd60e51b8152602060048201526016602482015275656d657267656e63792070617573652061637469766560501b6044820152606401610329565b60008061076184610da0565b905061076c8161126d565b826000036107ae5760405162461bcd60e51b815260206004820152600f60248201526e073656c6620636c6f7365206f66203608c1b6044820152606401610329565b60006107b9846115cf565b905060006107cb838360016000611600565b9150506107d833826117d5565b6107e18361183d565b856001600160a01b03167f27a9c0ea115e1a078f8a4ddd385379102c3138ded0ddd00bf9cc5ee197457dc88260405161081c91815260200190565b60405180910390a295945050505050565b6000610837610f49565b60068101549091506001600160a01b031615610188576006810154604051633af32abf60e01b81523360048201526001600160a01b0390911690633af32abf90602401602060405180830381865afa158015610897573d6000803e3d6000fd5b505050506040513d601f19601f820116820180604052508101906108bb9190614820565b6101885760405162461bcd60e51b815260206004820152600f60248201526e1b9bdd081dda1a5d195b1a5cdd1959608a1b6044820152606401610329565b600080610904610f49565b600f0160109054906101000a900461ffff1661ffff16905060006040518060400160405280836001600160401b03811115610941576109416144f1565b60405190808252806020026020018201604052801561098657816020015b604080518082019091526000808252602082015281526020019060019003908161095f5790505b508152602001600081525090506000805b83811080156109b75750876001600160401b0316826001600160401b0316105b15610a6d577fec7e8c1c441439dd40959777f4c577ea0cd42fcc1dbe59d2bd0f5d9c55df8dbf546001600160401b0316600003610a3c57816001600160401b0316600003610a375760405162461bcd60e51b815260206004820152600d60248201526c72656465656d2030206c6f747360981b6044820152606401610329565b610a6d565b610a4f610a49838a614700565b84611929565b610a59908361483d565b915080610a658161485d565b915050610997565b506000610a7e633b9aca0034614876565b905060005b8360200151811015610afa576000818560200151610aa1919061488a565b610aab9084614876565b9050610ab7818461488a565b9250610af085600001518381518110610ad257610ad261489d565b60200260200101518c8b60008c610ae8876103c6565b600080611b61565b5050600101610a83565b50876001600160401b0316826001600160401b03161015610b66576001600160a01b0389167fffb29516defd624d1f4ff8436cc96282ba7b4294c3a18cf274c3bdf21c9ccd99610b4a848b614700565b6040516001600160401b03909116815260200160405180910390a25b6000610b7183612007565b9050610b7d33826117d5565b9998505050505050505050565b6000610b9586610da0565b9050610ba08161204b565b83600003610be25760405162461bcd60e51b815260206004820152600f60248201526e0726564656d7074696f6e206f66203608c1b6044820152606401610329565b6000610bed856115cf565b9050600080610bff8484600080611600565b604080518082019091526001600160a01b038c1681526001600160401b03831660208201529193509150610c48818a8960018a610ae8610c43633b9aca0034614876565b6103c6565b50610c5333836117d5565b50505050505050505050565b6000610c6a84610da0565b9050610c758161204b565b81600003610cb75760405162461bcd60e51b815260206004820152600f60248201526e0726564656d7074696f6e206f66203608c1b6044820152606401610329565b6000610cc2836115cf565b9050600080610cd5848460016000611600565b60048601549193509150600090610cf490610100900461ffff1661209b565b600a860154909150600090610d2790600160801b900461ffff16610d216001600160401b038716856120e6565b90612100565b9050610d3486898361210f565b50876001600160a01b0316896001600160a01b03167f25c177efe505ee9dd8e37b9825d729e1a27b6ac048c6e55ba91841d9a7fa9ecc8584604051610d83929190918252602082015260400190565b60405180910390a3610d9533846117d5565b505050505050505050565b7f5bebac0595fee029d42bb673937f5f1cb81cf8641382bc17774635de9b7d796568010000000000000000600160e01b03604083901b161880600060048084015460ff1690811115610df457610df4614736565b03610e415760405162461bcd60e51b815260206004820152601b60248201527f696e76616c6964206167656e74207661756c74206164647265737300000000006044820152606401610329565b50919050565b6006810154600090600080516020614f0a833981519152906001600160401b031682610e71610f49565b600f0154600160801b900461ffff16905060006008840181610e9288612219565b6001600160a01b0316815260208101919091526040016000908120546001600160401b031691505b6001600160401b03821615801590610ed157508281105b15610f35576001600160401b038281166000908152600787016020526040902080549091610f0791600160a01b9004168661483d565b6001909101549094506001600160401b03600160c01b90910416915080610f2d8161485d565b915050610eba565b50610f3f836114da565b9695505050505050565b7f4f24f5c433db0962dac0d2c8b84197a6e6c7cc4e5d9ebe1916a1b6193da2f33a90565b600080516020614f0a8339815191526000610f8784612219565b6009830154600160401b90046001600160401b031660008181526007850160205260409020805492935090916001600160a01b0380851691160361108457805485908290601490610fe9908490600160a01b90046001600160401b031661483d565b92506101000a8154816001600160401b0302191690836001600160401b03160217905550600061102f8260000160149054906101000a90046001600160401b03166114da565b9050826001600160401b0316846001600160a01b03167f9d2e72c50be7927e999d37329649af37a863df77bcb25361699ce021d3d7475d8360405161107691815260200190565b60405180910390a3506110f3565b6000611094600786018588612241565b905060006110a1876114da565b9050816001600160401b0316856001600160a01b03167f631f8f2039090539b2ea4ef7dc567f7f1939ef4dd3e790b1ca7bc548a1fada58836040516110e891815260200190565b60405180910390a350505b505050505050565b60068201546001600160401b03808316911603611116575050565b60068201805467ffffffffffffffff19166001600160401b038316179055600061113f826114da565b905061114a83612219565b6001600160a01b03167fa3db2bc927901a1d3ba09ad51d84609457b98443be9132a0a936a47c5a1081b58260405161118491815260200190565b60405180910390a2505050565b6000600080516020614f0a8339815191526001600160401b03831682036111ef5760405162461bcd60e51b81526020600482015260126024820152711a5b9d985b1a59081c995c5d595cdd081a5960721b6044820152606401610329565b6001600160401b0383166000908152600a82016020526040812092506004830154600160a01b900460ff16600281111561122b5761122b614736565b03610e415760405162461bcd60e51b81526020600482015260126024820152711a5b9d985b1a59081c995c5d595cdd081a5960721b6044820152606401610329565b611277813361264a565b6101885760405162461bcd60e51b815260206004820152601660248201527537b7363c9030b3b2b73a103b30bab63a1037bbb732b960511b6044820152606401610329565b60006112c6610f49565b6008810154600b8201549192506001600160a01b0316906112ea602085018561474c565b602001351461132b5760405162461bcd60e51b815260206004820152600d60248201526c34b73b30b634b21031b430b4b760991b6044820152606401610329565b60405163f34ef58760e01b81526001600160a01b0382169063f34ef58790611357908690600401614a60565b602060405180830381865afa158015611374573d6000803e3d6000fd5b505050506040513d601f19601f820116820180604052508101906113989190614820565b6102b05760405162461bcd60e51b815260206004820152601b60248201527f616464726573732076616c6964697479206e6f742070726f76656400000000006044820152606401610329565b6114328360050160109054906101000a90046001600160401b031683604051806040016040528060148152602001736e6f7420656e6f7567682072656465656d696e6760601b8152506126f9565b8360050160106101000a8154816001600160401b0302191690836001600160401b03160217905550806102b0576114ad8360050160189054906101000a90046001600160401b031683604051806040016040528060148152602001736e6f7420656e6f7567682072656465656d696e6760601b8152506126f9565b8360050160186101000a8154816001600160401b0302191690836001600160401b03160217905550505050565b6000806114e5610f49565b600c81015490915061023c906001600160401b03600160901b9091048116908516614afd565b61151481612744565b6001600160401b03811660009081527fec7e8c1c441439dd40959777f4c577ea0cd42fcc1dbe59d2bd0f5d9c55df8dc06020526040812081815560018101829055600281018290556003810180546001600160e01b03199081169091556004820180546001600160b01b031916905560058201805490911690556006810180546001600160801b0319169055600080516020614f0a833981519152916115bd600783018261440e565b50600801805462ffffff191690555050565b6000806115da610f49565b600c81015490915061023c90610c4390600160901b90046001600160401b031685614876565b600080600080516020614f0a8339815191528161161b610f49565b600f0154600160801b900461ffff1690506000611636610f49565b600d01546001600160401b0316905060005b82811080156116685750886001600160401b0316866001600160401b0316105b15611746576000600885018161167d8d612219565b6001600160a01b0316815260208101919091526040016000908120546001600160401b031691508190036116b15750611746565b6001600160401b038181166000908152600787016020526040812060068e0154815491936116ea9291811691600160a01b90041661483d565b90506116f685826146c4565b6117009082614700565b905060006117176117118b8f614700565b836127b5565b905061172384826127de565b61172d818b61483d565b995050505050808061173e9061485d565b915050611648565b506000611769611756878b614700565b60068c01546001600160401b03166127b5565b905086156117885761177b82826146c4565b6117859082614700565b90505b6001600160401b038116156117ad576117a1818761483d565b95506117ad8a826129aa565b87156117bd576117bd8a876129fb565b6117c6866114da565b94505050505094509492505050565b6117dd612a94565b604051632770a7eb60e21b81526001600160a01b038481166004830152602482018490529190911690639dc29fac90604401600060405180830381600087803b15801561182957600080fd5b505af11580156110f3573d6000803e3d6000fd5b600260048083015460ff169081111561185857611858614736565b146118605750565b600061186b82612ab2565b9050600061187883612b26565b9050600061188884836000612bfc565b9050600061189885846001612bfc565b9050818460000151101580156118b2575080846020015110155b15610277576004850180547fff00000000000000000000ffffffffffffffffffffffffffffffffffffffff001660011790556118ed85612219565b6001600160a01b03167fe513b42585b0ceec0d56d56fe3a23861c15a2f74eb4c32c94334d63d68ff4dcf60405160405180910390a25050505050565b6000600080516020614f0a83398151915281611943610f49565b60098301549091506001600160401b03166000819003611969576000935050505061015a565b6001600160401b0381166000908152600784016020526040812080549091506001600160a01b0316600061199c82610da0565b600d860154600682015485549293506000926001600160401b03928316926119ce92811691600160a01b90041661483d565b6119d89190614b14565b90506119e48a826127b5565b97506001600160401b03881615611b4957600d860154600090611a10906001600160401b03168a614b3a565b905060005b8a6020015181108015611a5b5750846001600160a01b03168b600001518281518110611a4357611a4361489d565b6020026020010151600001516001600160a01b031614155b15611a7057611a698161485d565b9050611a15565b8a60200151811015611adc57818b600001518281518110611a9357611a9361489d565b602002602001015160200151611aa9919061483d565b8b51805183908110611abd57611abd61489d565b6020908102919091018101516001600160401b03909216910152611b38565b6040518060400160405280866001600160a01b03168152602001836001600160401b03168152508b600001518c6020018051809190611b1a9061485d565b905281518110611b2c57611b2c61489d565b60200260200101819052505b611b4287836127de565b5050611b54565b611b548560006127de565b5050505050505092915050565b8751600090600080516020614f0a833981519152908290611b8190610da0565b895160208b01206003820154919250908103611bdf5760405162461bcd60e51b815260206004820181905260248201527f63616e6e6f742072656465656d20746f206167656e74277320616464726573736044820152606401610329565b6000611bf6611bf18e602001516114da565b612c60565b9050611c018a612cc9565b9450611c9b6040805161026081018252600080825260208201819052918101829052606081018290526080810182905260a0810182905260c0810182905260e08101829052610100810182905261012081018290529061014082019081526000602082018190526040820181905260608083018290526080830182905260a0830182905260c083015260e082018190526101009091015290565b8281526001600160801b0382166020820152600f8501546201000090046001600160401b031660608201528d51611cd29089612d5e565b6001600160401b0390811660a0840152166080820152611cf1426103c6565b6001600160401b031661010082015286611d3757611d32611bf1611d13610f49565b600e01546001600160801b03851690600160401b900461ffff16612100565b611d3a565b60005b6001600160801b031660408201526001600160a01b038d811660e08301528e511661012082015260208e01516001600160401b031660c082015260016101408201819052508a15156101608201526001600160a01b038a81166101808301526001600160401b038a81166101a084015261020083018e9052881515610220840152600c860154600160e01b900461ffff166102408401528781166000908152600a880160209081526040918290208551815590850151918501516001600160801b03928316600160801b918416820217600183015560608601516002808401805460808a015160a08b015160c08c0151958a166001600160801b031990931692909217600160401b918a1691909102179096169587169093026001600160c01b031694909417600160c01b9186169190910217905560e08501516003820180546101008801519287166001600160e01b031990911617600160a01b929095168202949094179093556101208501516004820180546001600160a01b0319811692909616918217815561014087015187969395909491936001600160a81b03191690921791908490811115611ef057611ef0614736565b021790555061016082015160048201805460ff60a81b1916600160a81b921515929092029190911790556101808201516005820180546101a08501516001600160a01b039093166001600160e01b031990911617600160a01b6001600160401b03938416021790556101c08301516006830180546101e08601519284166001600160801b031990911617600160401b92909316919091029190911790556102008201516007820190611fa29082614be1565b50610220820151600890910180546102409093015161ffff166101000262ffff00199215159290921662ffffff199093169290921717905560208e0151611feb9085908d612e76565b611ff681878e612f1a565b505050505098975050505050505050565b600080612012610f49565b600c810154600d8201549192506001600160401b03600160901b90910481169161204191908116908616614afd565b61023c9190614afd565b80546001600160a01b031633146101885760405162461bcd60e51b81526020600482015260146024820152731bdb9b1e4818dbdb1b185d195c985b081c1bdbdb60621b6044820152606401610329565b600080600080516020614f0a83398151915290506120dc8160000184815481106120c7576120c761489d565b90600052602060002090600402016000612fdf565b5090949350505050565b600061023c826120f86009600a614d84565b85919061319e565b600061023c838361271061319e565b60008061211b856132c4565b9050600061212886612219565b82546040516370a0823160e01b81526001600160a01b0380841660048301529293506121a192879216906370a0823190602401602060405180830381865afa158015612178573d6000803e3d6000fd5b505050506040513d601f19601f8201168201806040525081019061219c9190614d90565b613311565b825460405163083e007560e21b81526001600160a01b0391821660048201528782166024820152604481018390529194508216906320f801d490606401600060405180830381600087803b1580156121f857600080fd5b505af115801561220c573d6000803e3d6000fd5b5050505050509392505050565b7f5bebac0595fee029d42bb673937f5f1cb81cf8641382bc17774635de9b7d79651860401c90565b6001600160a01b0382166000908152600184016020526040812060028501805483919060109061228090600160801b90046001600160401b0316614da9565b91906101000a8154816001600160401b0302191690836001600160401b03160217905590506040518060c00160405280866001600160a01b03168152602001856001600160401b031681526020018760020160089054906101000a90046001600160401b03166001600160401b0316815260200160006001600160401b031681526020018360000160089054906101000a90046001600160401b03166001600160401b0316815260200160006001600160401b0316815250866000016000836001600160401b03166001600160401b0316815260200190815260200160002060008201518160000160006101000a8154816001600160a01b0302191690836001600160a01b0316021790555060208201518160000160146101000a8154816001600160401b0302191690836001600160401b0316021790555060408201518160010160006101000a8154816001600160401b0302191690836001600160401b0316021790555060608201518160010160086101000a8154816001600160401b0302191690836001600160401b0316021790555060808201518160010160106101000a8154816001600160401b0302191690836001600160401b0316021790555060a08201518160010160186101000a8154816001600160401b0302191690836001600160401b031602179055509050508560020160009054906101000a90046001600160401b03166001600160401b03166000036124dd576002860154600160401b90046001600160401b0316156124ba576124ba614720565b60028601805467ffffffffffffffff19166001600160401b038316179055612545565b6002860154600160401b90046001600160401b031660000361250157612501614720565b6002860154600160401b908190046001600160401b039081166000908152602089905260409020600101805467ffffffffffffffff60401b19169184169092021790555b6002860180546001600160401b03808416600160401b0267ffffffffffffffff60401b19909216919091179091558254166000036125bb578154600160401b90046001600160401b03161561259c5761259c614720565b815467ffffffffffffffff19166001600160401b03821617825561261e565b8154600160401b90046001600160401b03166000036125dc576125dc614720565b81546001600160401b03600160401b909104811660009081526020889052604090206001018054918316600160c01b026001600160c01b039092169190911790555b815467ffffffffffffffff60401b1916600160401b6001600160401b0383160217909155949350505050565b60018201546000906001600160a01b039081169083168114806126f15750612670613320565b604051631f86345d60e31b81526001600160a01b038381166004830152919091169063fc31a2e890602401602060405180830381865afa1580156126b8573d6000803e3d6000fd5b505050506040513d601f19601f820116820180604052508101906126dc9190614dcf565b6001600160a01b0316836001600160a01b0316145b949350505050565b6000826001600160401b0316846001600160401b0316101582906127305760405162461bcd60e51b81526004016103299190614e32565b5050506001600160401b0390811691160390565b600061274f82611191565b600881015490915060ff16156101bc576004810154600090612779906001600160a01b0316610da0565b600c8101549091506001600160401b0380851664010000000090920416036102b057600c0180546bffffffffffffffff00000000191690555050565b6000816001600160401b0316836001600160401b031611156127d7578161023c565b5090919050565b6001600160401b03821660009081527fec7e8c1c441439dd40959777f4c577ea0cd42fcc1dbe59d2bd0f5d9c55df8dbd60208190526040822080549192909161282f906001600160a01b0316610da0565b9050600061283b610f49565b600d0154600683015484546001600160401b039283169350600092889261286e9290821691600160a01b9091041661483d565b6128789190614700565b9050600061288683836146c4565b905060006128948284614700565b9050806001600160401b03166000036128fe576128b1878a61333e565b886001600160401b03166128c486612219565b6001600160a01b03167fb7f65e70a51658e24800516a5dc90e2dd65176e18381adda77f58e2044482b1960405160405180910390a36129a0565b85546001600160401b03828116600160a01b90920416146129a057855467ffffffffffffffff60a01b1916600160a01b6001600160401b038316021786556000612947826114da565b9050896001600160401b031661295c87612219565b6001600160a01b03167f9d2e72c50be7927e999d37329649af37a863df77bcb25361699ce021d3d7475d8360405161299691815260200190565b60405180910390a3505b610d9585836110fb565b600682015460408051808201909152600f81526e1b9bdd08195b9bdd59da08191d5cdd608a1b60208201526000916129ef916001600160401b039091169084906126f9565b90506102b083826110fb565b612a468260050160089054906101000a90046001600160401b031682604051806040016040528060118152602001701b9bdd08195b9bdd59da081b5a5b9d1959607a1b8152506126f9565b8260050160086101000a8154816001600160401b0302191690836001600160401b031602179055506101bc612a7a83612219565b6005840154600160401b90046001600160401b0316613718565b600080612a9f610f49565b600101546001600160a01b031692915050565b612add6040518060800160405280600081526020016000815260200160008152602001600081525090565b600080612aeb846000613764565b91509150600080612afd866001613764565b604080516080810182529687526020870192909252908501939093525050606082015292915050565b600080612b31610f49565b600484015490915060ff166002816004811115612b5057612b50614736565b03612bcf57600060016004860154600160e81b900460ff166002811115612b7957612b79614736565b148015612bb5575060118301546004860154612ba8916001600160401b0390811691600160a81b90041661483d565b6001600160401b03164211155b905080612bc3576002612bc6565b60015b95945050505050565b6003816004811115612be357612be3614736565b03612bf2575060029392505050565b5060009392505050565b600080612c0985846137b2565b90506001846002811115612c1f57612c1f614736565b1480612c325750612c30858461385e565b155b15612c48576003015463ffffffff16905061023c565b60030154600160401b900463ffffffff16905061023c565b60006001600160801b0382111561042e5760405162461bcd60e51b815260206004820152602760248201527f53616665436173743a2076616c756520646f65736e27742066697420696e20316044820152663238206269747360c81b6064820152608401610329565b6000600080516020614f0a83398151915281612ce36138c7565b600e830154612d029190600160401b90046001600160401b031661483d565b9050600084612d12576000612d15565b60015b60ff16600119612d2684600161483d565b161790508083600e0160086101000a8154816001600160401b0302191690836001600160401b03160217905550809350505050919050565b600080600080516020614f0a83398151915281612d79610f49565b9050600085612d87886138e5565b600f850154600160901b90046001600160401b0316612da5426103c6565b612daf9190614700565b612db9919061483d565b612dc3919061483d565b600c830154909150600090612df79063ffffffff16612ded6001600160401b0385166103e8614afd565b610c439190614876565b600d840154600f8601549192506001600160401b03600160981b909104811691612e299184916201000090041661483d565b612e33919061483d565b600e840154600f8601549197506001600160401b0390811691612e5f918591600160501b90041661483d565b612e69919061483d565b9450505050509250929050565b818360050160108282829054906101000a90046001600160401b0316612e9c919061483d565b92506101000a8154816001600160401b0302191690836001600160401b0316021790555080612f1057818360050160188282829054906101000a90046001600160401b0316612eeb919061483d565b92506101000a8154816001600160401b0302191690836001600160401b031602179055505b6102b083836129fb565b816001600160401b03168360e001516001600160a01b03168461012001516001600160a01b03167f8cbbd73a8d1b8b02a53c4c3b0ee34b472fe3099cc19bcfb57f1aae09e8a9847e848760200151886040015189606001518a608001518b60a00151612f998c6001600160401b031667232128293320800160c11b1790565b8d6101800151633b9aca008f6101a001516001600160401b0316612fbd9190614afd565b604051612fd299989796959493929190614e45565b60405180910390a4505050565b60008060008060008061307e886001018054612ffa90614b65565b80601f016020809104026020016040519081016040528092919081815260200182805461302690614b65565b80156130735780601f1061304857610100808354040283529160200191613073565b820191906000526020600020905b81548152906001019060200180831161305657829003601f168201915b50505050508861399d565b8a549295509093509150600160f01b900460ff16156130c55787546000906130b490600160a81b900460ff166001838786613a68565b965091945084935061319792505050565b60008060006131608b60020180546130dc90614b65565b80601f016020809104026020016040519081016040528092919081815260200182805461310890614b65565b80156131555780601f1061312a57610100808354040283529160200191613155565b820191906000526020600020905b81548152906001019060200180831161313857829003601f168201915b50505050508b61399d565b8d54929550909350915060009061318490600160a81b900460ff1685848a89613a68565b9950949750909550613197945050505050565b9250925092565b60008082116131e25760405162461bcd60e51b815260206004820152601060248201526f4469766973696f6e206279207a65726f60801b6044820152606401610329565b836000036131f25750600061023c565b83830283858281613205576132056146ae565b04036132235782818161321a5761321a6146ae565b0491505061023c565b5060006132308386614876565b9050600061323e8487614eb4565b9050600061324c8587614876565b9050600061325a8688614eb4565b9050856132678285614afd565b6132719190614876565b61327b8385614afd565b6132858387614afd565b886132908689614afd565b61329a9190614afd565b6132a49190614ec8565b6132ae9190614ec8565b6132b89190614ec8565b98975050505050505050565b600080600080516020614f0a83398151915260048401548154919250829161010090910461ffff169081106132fb576132fb61489d565b9060005260206000209060040201915050919050565b60008183106127d7578161023c565b60008061332b610f49565b600701546001600160a01b031692915050565b6001600160401b038116600090815260208390526040902080546001600160a01b031661336d5761336d614720565b80546001600160a01b031660009081526001808501602052604082209083015490916001600160401b0390911690036133f35760028401546001600160401b038481169116146133bf576133bf614720565b6001820154600285018054600160401b9092046001600160401b031667ffffffffffffffff1990921691909117905561345b565b60028401546001600160401b039081169084160361341357613413614720565b6001828101546001600160401b038082166000908152602088905260409020909201805467ffffffffffffffff60401b1916600160401b928390049093169091029190911790555b6001820154600160401b90046001600160401b03166000036134d25760028401546001600160401b03848116600160401b909204161461349d5761349d614720565b600182015460028501805467ffffffffffffffff60401b19166001600160401b03909216600160401b0291909117905561353a565b60028401546001600160401b03600160401b9091048116908416036134f9576134f9614720565b600180830154600160401b81046001600160401b039081166000908152602088905260409020909201805467ffffffffffffffff1916929091169190911790555b6001820154600160801b90046001600160401b031660000361359f5780546001600160401b0384811691161461357257613572614720565b60018201548154600160c01b9091046001600160401b031667ffffffffffffffff19909116178155613605565b80546001600160401b03908116908416036135bc576135bc614720565b6001828101546001600160401b03600160801b82048116600090815260208890526040902090920180546001600160c01b0316600160c01b928390049093169091029190911790555b6001820154600160c01b90046001600160401b03166000036136785780546001600160401b03848116600160401b909204161461364457613644614720565b6001820154815467ffffffffffffffff60401b1916600160801b9091046001600160401b0316600160401b021781556136ea565b80546001600160401b03600160401b90910481169084160361369c5761369c614720565b6001828101546001600160401b03600160c01b820481166000908152602088905260409020909201805467ffffffffffffffff60801b1916600160801b928390049093169091029190911790555b50506001600160401b031660009081526020919091526040812080546001600160e01b031916815560010155565b7f341c6685fdb8ed7133465b64f545b9fbc5699a59cbd1ad98992e5c070a74c5106102b07f341c6685fdb8ed7133465b64f545b9fbc5699a59cbd1ad98992e5c070a74c5118484613adf565b6000806000806137748686613b48565b9150915060006137848388613cab565b905060006137928389613cab565b9050836040015194506137a58282613d6c565b9550505050509250929050565b600060028260028111156137c8576137c8614736565b036137d5576137d5614720565b600080516020614f0a83398151915260008360028111156137f8576137f8614736565b0361383457600484015481548291610100900461ffff1690811061381e5761381e61489d565b906000526020600020906004020191505061015a565b6004840154815482916301000000900461ffff1690811061381e5761381e61489d565b5092915050565b60008082600281111561387357613873614736565b0361388f57506004820154600160f01b9004600116151561015a565b60018260028111156138a3576138a3614736565b146138b0576138b0614720565b506004820154600160f01b9004600216151561015a565b60006138d56103e843614eb4565b6138e0906001614ec8565b905090565b6001600160a01b03811660009081527f1309a575a1ebd5e5ca64d58e63b864f1d06aed3e31a021b0eabae653c215fb07602052604081207f1309a575a1ebd5e5ca64d58e63b864f1d06aed3e31a021b0eabae653c215fb069082613948426103c6565b83548354919250600091613968916001600160401b03908116911661483d565b90506139748183613d7b565b835467ffffffffffffffff19166001600160401b03919091169081178455610f3f908390614700565b6000806000806139ab610f49565b600a8101549091506001600160a01b03168515613a3c5760405163e4a0a55b60e01b81526001600160a01b0382169063e4a0a55b906139ee908a90600401614e32565b606060405180830381865afa158015613a0b573d6000803e3d6000fd5b505050506040513d601f19601f82011682018060405250810190613a2f9190614edb565b9450945094505050613197565b60405163524f388960e01b81526001600160a01b0382169063524f3889906139ee908a90600401614e32565b600080613a73610f49565b905060006009613a83878a614ec8565b613a8d9190614ec8565b600a830154909150600090613aad908690600160a81b900460ff16614ec8565b905080821015613abf57613abf614720565b610b7d613acc828461488a565b613ad790600a614d84565b87908a61319e565b6001600160a01b0382166000908152600484016020526040812090613b0382613d9d565b90506000613b1086613d9d565b9050613b1d834286613e38565b613b3e4283613b2c878561483d565b613b369190614700565b889190613e38565b6110f386846141aa565b613b6d6040805160608101909152806000815260200160008152602001600081525090565b613b926040805160608101909152806000815260200160008152602001600081525090565b6000613b9e85856137b2565b90506000613bac86866141e7565b90506000613bb98361421f565b613bc4576000613c31565b82546040516370a0823160e01b81526001600160a01b038481166004830152909116906370a0823190602401602060405180830381865afa158015613c0d573d6000803e3d6000fd5b505050506040513d601f19601f82011682018060405250810190613c319190614d90565b9050600080613c3f85614253565b915091506040518060600160405280896002811115613c6057613c60614736565b81526020018481526020018381525096506040518060600160405280896002811115613c8e57613c8e614736565b815260200184815260200182815250955050505050509250929050565b600080600184516002811115613cc357613cc3614736565b14613ce2576005830154600160801b90046001600160401b0316613cf8565b6005830154600160c01b90046001600160401b03165b60058401546001600160401b0391821692506000918391613d249181811691600160401b900416614ec8565b613d2e9190614ec8565b90506000613d408287604001516120e6565b905080600003613d5a576402540be400935050505061015a565b6020860151610f3f906127108361319e565b60008183116127d7578161023c565b6000816001600160401b0316836001600160401b031610156127d7578161023c565b6001810154600090600160401b90046001600160401b03168103613dc357506000919050565b60018201546001600160401b03808216600160401b9092041611613de957613de9614720565b6001828101548391600091613e0e9190600160401b90046001600160401b0316614700565b6001600160401b039081168252602082019290925260400160002054600160c01b90041692915050565b6001830154600160401b90046001600160401b0316600003613f575760018301546001600160401b031615613e6f57613e6f614720565b604051806060016040528060006001600160801b03168152602001613e93846103c6565b6001600160401b0390811682528381166020909201919091526001850180548692600092600160401b90920416906008613ecc83614da9565b82546001600160401b039182166101009390930a92830292820219169190911790915590811682526020808301939093526040918201600020845181549486015195909301518216600160c01b026001600160c01b0395909216600160801b026001600160c01b03199094166001600160801b03909316929092179290921792909216179055505050565b60018301546001600160401b03808216600160401b9092041611613f7d57613f7d614720565b60018381015460009185918391613fa391600160401b90046001600160401b0316614700565b6001600160401b03908116825260208201929092526040016000208054909250600160801b900416839003613ff55780546001600160c01b0316600160c01b6001600160401b038416021781556141a4565b8054600160801b90046001600160401b031683116140665760405162461bcd60e51b815260206004820152602860248201527f54696d6543756d756c61746976653a2074696d657374616d70206e6f7420696e6044820152676372656173696e6760c01b6064820152608401610329565b805460009061408590600160801b90046001600160401b03168561488a565b82546140a19190600160c01b90046001600160401b0316614afd565b82546140b691906001600160801b0316614ec8565b905060405180606001604052806140cc83612c60565b6001600160801b031681526020016140e3866103c6565b6001600160401b0390811682528581166020909201919091526001870180548892600092600160401b9092041690600861411c83614da9565b82546001600160401b039182166101009390930a92830292820219169190911790915590811682526020808301939093526040918201600020845181549486015195909301518216600160c01b026001600160c01b0395909216600160801b026001600160c01b03199094166001600160801b03909316929092179290921792909216179055505b50505050565b60038201546000906141cd908490600160c01b90046001600160401b0316614302565b90506141db8282600261433d565b6102b08382600261433d565b600060018260028111156141fd576141fd614736565b146142105761420b83612219565b61023c565b5050546001600160a01b031690565b8054600090600160b01b90046001600160401b0316158061015a5750505442600160b01b9091046001600160401b03161190565b6000806000614260610f49565b90506000806000614272876000612fdf565b92509250925060008060006142888a6001612fdf565b60108a0154929550909350915060009085906142b490600160c01b90046001600160401b031684614ec8565b101580156142e15750601088015486906142de90600160c01b90046001600160401b031685614ec8565b10155b9050869950806142f157866142f3565b835b98505050505050505050915091565b6003820154600090614325908390600160401b90046001600160401b0316614afd565b600384015461023c91906001600160401b0316614ec8565b60018301546001600160401b0380821691600160401b90041660005b838110801561437157508161436f846001614ec8565b105b80156143aa575084866000614387866001614ec8565b8152602081019190915260400160002054600160801b90046001600160401b0316105b156143d9576000838152602087905260408120556143c78361485d565b92506143d28161485d565b9050614359565b6143e2836103c6565b600196909601805467ffffffffffffffff19166001600160401b03909716969096179095555050505050565b50805461441a90614b65565b6000825580601f1061442a575050565b601f01602090049060005260206000209081019061018891905b8082111561042e5760008155600101614444565b6001600160a01b038116811461018857600080fd5b60006020828403121561447f57600080fd5b813561023c81614458565b6000806040838503121561449d57600080fd5b82356001600160401b038111156144b357600080fd5b8301604081860312156144c557600080fd5b946020939093013593505050565b600080604083850312156144e657600080fd5b82356144c581614458565b634e487b7160e01b600052604160045260246000fd5b600082601f83011261451857600080fd5b81356001600160401b0380821115614532576145326144f1565b604051601f8301601f19908116603f0116810190828211818310171561455a5761455a6144f1565b8160405283815286602085880101111561457357600080fd5b836020870160208301376000602085830101528094505050505092915050565b6000806000606084860312156145a857600080fd5b8335925060208401356001600160401b038111156145c557600080fd5b6145d186828701614507565b92505060408401356145e281614458565b809150509250925092565b600080600080600060a0868803121561460557600080fd5b853561461081614458565b9450602086013561462081614458565b93506040860135925060608601356001600160401b0381111561464257600080fd5b61464e88828901614507565b925050608086013561465f81614458565b809150509295509295909350565b60008060006060848603121561468257600080fd5b833561468d81614458565b9250602084013561469d81614458565b929592945050506040919091013590565b634e487b7160e01b600052601260045260246000fd5b60006001600160401b03808416806146de576146de6146ae565b92169190910692915050565b634e487b7160e01b600052601160045260246000fd5b6001600160401b03828116828216039080821115613857576138576146ea565b634e487b7160e01b600052600160045260246000fd5b634e487b7160e01b600052602160045260246000fd5b6000823560be1983360301811261476257600080fd5b9190910192915050565b60008235601e1983360301811261476257600080fd5b6000808335601e1984360301811261479957600080fd5b8301803591506001600160401b038211156147b357600080fd5b6020019150368190038213156147c857600080fd5b9250929050565b8183823760009101908152919050565b60008235605e1983360301811261476257600080fd5b801515811461018857600080fd5b60006020828403121561481557600080fd5b813561023c816147f5565b60006020828403121561483257600080fd5b815161023c816147f5565b6001600160401b03818116838216019080821115613857576138576146ea565b60006001820161486f5761486f6146ea565b5060010190565b600082614885576148856146ae565b500490565b8181038181111561015a5761015a6146ea565b634e487b7160e01b600052603260045260246000fd5b6000823560be198336030181126148c957600080fd5b90910192915050565b80356001600160401b03811681146148e957600080fd5b919050565b6000808335601e1984360301811261490557600080fd5b83016020810192503590506001600160401b0381111561492457600080fd5b8036038213156147c857600080fd5b81835281816020850137506000828201602090810191909152601f909101601f19169091010190565b60008235605e198336030181126148c957600080fd5b6000813561497f816147f5565b1515835261499060208301836148ee565b606060208601526149a5606086018284614933565b915050604083013560408501528091505092915050565b803582526020810135602083015260006149d8604083016148d2565b6001600160401b038082166040860152806149f5606086016148d2565b16606086015250506080820135601e19833603018112614a1457600080fd5b60c060808501528201614a2781806148ee565b9150602060c0860152614a3e60e086018383614933565b915050614a4e60a084018461495c565b84820360a0860152612bc68282614972565b6020815260008235601e19843603018112614a7a57600080fd5b83016020810190356001600160401b03811115614a9657600080fd5b8060051b803603831315614aa957600080fd5b60406020860152606085018290526001600160fb1b03821115614acb57600080fd5b8083608087013784019150614ae5905060208501856148b3565b6060848303016040850152612bc660808301826149bc565b808202811582820484141761015a5761015a6146ea565b60006001600160401b0380841680614b2e57614b2e6146ae565b92169190910492915050565b6001600160401b03818116838216028082169190828114614b5d57614b5d6146ea565b505092915050565b600181811c90821680614b7957607f821691505b602082108103610e4157634e487b7160e01b600052602260045260246000fd5b601f8211156102b0576000816000526020600020601f850160051c81016020861015614bc25750805b601f850160051c820191505b818110156110f357828155600101614bce565b81516001600160401b03811115614bfa57614bfa6144f1565b614c0e81614c088454614b65565b84614b99565b602080601f831160018114614c435760008415614c2b5750858301515b600019600386901b1c1916600185901b1785556110f3565b600085815260208120601f198616915b82811015614c7257888601518255948401946001909101908401614c53565b5085821015614c905787850151600019600388901b60f8161c191681555b5050505050600190811b01905550565b600181815b80851115614cdb578160001904821115614cc157614cc16146ea565b80851615614cce57918102915b93841c9390800290614ca5565b509250929050565b600082614cf25750600161015a565b81614cff5750600061015a565b8160018114614d155760028114614d1f57614d3b565b600191505061015a565b60ff841115614d3057614d306146ea565b50506001821b61015a565b5060208310610133831016604e8410600b8410161715614d5e575081810a61015a565b614d688383614ca0565b8060001904821115614d7c57614d7c6146ea565b029392505050565b600061023c8383614ce3565b600060208284031215614da257600080fd5b5051919050565b60006001600160401b03808316818103614dc557614dc56146ea565b6001019392505050565b600060208284031215614de157600080fd5b815161023c81614458565b6000815180845260005b81811015614e1257602081850181015186830182015201614df6565b506000602082860101526020601f19601f83011685010191505092915050565b60208152600061023c6020830184614dec565b6000610120808352614e598184018d614dec565b6001600160801b039b8c16602085015299909a166040830152506001600160401b03968716606082015294861660808601529290941660a084015260c08301526001600160a01b0390921660e0820152610100015292915050565b600082614ec357614ec36146ae565b500690565b8082018082111561015a5761015a6146ea565b600080600060608486031215614ef057600080fd5b835192506020840151915060408401519050925092509256feec7e8c1c441439dd40959777f4c577ea0cd42fcc1dbe59d2bd0f5d9c55df8db60cd2207518cd3e5213e2c6dbe63d55b60aa893c194a427b7d7f1600408fd5bdea26469706673582212209383e1bb6b2e951a38d50c9e998cb3edfc6cc9141d08d87a2adf8d5bec3c5c4864736f6c63430008170033",
  "linkReferences": {},
  "deployedLinkReferences": {}
}