{
  "_format": "hh-sol-artifact-1",
  "contractName": "RedemptionRequestsFacet",
  "sourceName": "contracts/assetManager/facets/RedemptionRequestsFacet.sol",
  "abi": [
    {
      "anonymous": false,
      "inputs": [
        {
          "indexed": true,
          "internalType": "address",
          "name": "agentVault",
          "type": "address"
        },
        {
          "indexed": false,
          "internalType": "uint256",
          "name": "dustUBA",
          "type": "uint256"
        }
      ],
      "name": "DustChanged",
      "type": "event"
    },
    {
      "anonymous": false,
      "inputs": [
        {
          "indexed": true,
          "internalType": "address",
          "name": "agentVault",
          "type": "address"
        }
      ],
      "name": "LiquidationEnded",
      "type": "event"
    },
    {
      "anonymous": false,
      "inputs": [
        {
          "indexed": true,
          "internalType": "address",
          "name": "agentVault",
          "type": "address"
        },
        {
          "indexed": true,
          "internalType": "address",
          "name": "redeemer",
          "type": "address"
        },
        {
          "indexed": false,
          "internalType": "uint256",
          "name": "redemptionAmountUBA",
          "type": "uint256"
        },
        {
          "indexed": false,
          "internalType": "uint256",
          "name": "paidVaultCollateralWei",
          "type": "uint256"
        }
      ],
      "name": "RedeemedInCollateral",
      "type": "event"
    },
    {
      "anonymous": false,
      "inputs": [
        {
          "indexed": true,
          "internalType": "address",
          "name": "agentVault",
          "type": "address"
        },
        {
          "indexed": true,
          "internalType": "address",
          "name": "redeemer",
          "type": "address"
        },
        {
          "indexed": true,
          "internalType": "uint64",
          "name": "requestId",
          "type": "uint64"
        },
        {
          "indexed": false,
          "internalType": "uint256",
          "name": "redemptionAmountUBA",
          "type": "uint256"
        },
        {
          "indexed": false,
          "internalType": "uint256",
          "name": "redeemedVaultCollateralWei",
          "type": "uint256"
        },
        {
          "indexed": false,
          "internalType": "uint256",
          "name": "redeemedPoolCollateralWei",
          "type": "uint256"
        }
      ],
      "name": "RedemptionDefault",
      "type": "event"
    },
    {
      "anonymous": false,
      "inputs": [
        {
          "indexed": true,
          "internalType": "address",
          "name": "agentVault",
          "type": "address"
        },
        {
          "indexed": true,
          "internalType": "address",
          "name": "redeemer",
          "type": "address"
        },
        {
          "indexed": true,
          "internalType": "uint64",
          "name": "requestId",
          "type": "uint64"
        },
        {
          "indexed": false,
          "internalType": "uint256",
          "name": "redemptionAmountUBA",
          "type": "uint256"
        }
      ],
      "name": "RedemptionRejected",
      "type": "event"
    },
    {
      "anonymous": false,
      "inputs": [
        {
          "indexed": true,
          "internalType": "address",
          "name": "redeemer",
          "type": "address"
        },
        {
          "indexed": false,
          "internalType": "uint256",
          "name": "remainingLots",
          "type": "uint256"
        }
      ],
      "name": "RedemptionRequestIncomplete",
      "type": "event"
    },
    {
      "anonymous": false,
      "inputs": [
        {
          "indexed": true,
          "internalType": "address",
          "name": "agentVault",
          "type": "address"
        },
        {
          "indexed": true,
          "internalType": "address",
          "name": "redeemer",
          "type": "address"
        },
        {
          "indexed": true,
          "internalType": "uint64",
          "name": "requestId",
          "type": "uint64"
        },
        {
          "indexed": false,
          "internalType": "string",
          "name": "paymentAddress",
          "type": "string"
        },
        {
          "indexed": false,
          "internalType": "uint256",
          "name": "valueUBA",
          "type": "uint256"
        }
      ],
      "name": "RedemptionRequestRejected",
      "type": "event"
    },
    {
      "anonymous": false,
      "inputs": [
        {
          "indexed": true,
          "internalType": "address",
          "name": "agentVault",
          "type": "address"
        },
        {
          "indexed": true,
          "internalType": "address",
          "name": "redeemer",
          "type": "address"
        },
        {
          "indexed": true,
          "internalType": "uint64",
          "name": "requestId",
          "type": "uint64"
        },
        {
          "indexed": false,
          "internalType": "uint256",
          "name": "valueTakenOverUBA",
          "type": "uint256"
        },
        {
          "indexed": false,
          "internalType": "address",
          "name": "newAgentVault",
          "type": "address"
        },
        {
          "indexed": false,
          "internalType": "uint64",
          "name": "newRequestId",
          "type": "uint64"
        }
      ],
      "name": "RedemptionRequestTakenOver",
      "type": "event"
    },
    {
      "anonymous": false,
      "inputs": [
        {
          "indexed": true,
          "internalType": "address",
          "name": "agentVault",
          "type": "address"
        },
        {
          "indexed": true,
          "internalType": "address",
          "name": "redeemer",
          "type": "address"
        },
        {
          "indexed": true,
          "internalType": "uint256",
          "name": "requestId",
          "type": "uint256"
        },
        {
          "indexed": false,
          "internalType": "string",
          "name": "paymentAddress",
          "type": "string"
        },
        {
          "indexed": false,
          "internalType": "uint256",
          "name": "valueUBA",
          "type": "uint256"
        },
        {
          "indexed": false,
          "internalType": "uint256",
          "name": "feeUBA",
          "type": "uint256"
        },
        {
          "indexed": false,
          "internalType": "uint256",
          "name": "firstUnderlyingBlock",
          "type": "uint256"
        },
        {
          "indexed": false,
          "internalType": "uint256",
          "name": "lastUnderlyingBlock",
          "type": "uint256"
        },
        {
          "indexed": false,
          "internalType": "uint256",
          "name": "lastUnderlyingTimestamp",
          "type": "uint256"
        },
        {
          "indexed": false,
          "internalType": "bytes32",
          "name": "paymentReference",
          "type": "bytes32"
        },
        {
          "indexed": false,
          "internalType": "address",
          "name": "executor",
          "type": "address"
        },
        {
          "indexed": false,
          "internalType": "uint256",
          "name": "executorFeeNatWei",
          "type": "uint256"
        }
      ],
      "name": "RedemptionRequested",
      "type": "event"
    },
    {
      "anonymous": false,
      "inputs": [
        {
          "indexed": true,
          "internalType": "address",
          "name": "agentVault",
          "type": "address"
        },
        {
          "indexed": true,
          "internalType": "uint256",
          "name": "redemptionTicketId",
          "type": "uint256"
        },
        {
          "indexed": false,
          "internalType": "uint256",
          "name": "ticketValueUBA",
          "type": "uint256"
        }
      ],
      "name": "RedemptionTicketCreated",
      "type": "event"
    },
    {
      "anonymous": false,
      "inputs": [
        {
          "indexed": true,
          "internalType": "address",
          "name": "agentVault",
          "type": "address"
        },
        {
          "indexed": true,
          "internalType": "uint256",
          "name": "redemptionTicketId",
          "type": "uint256"
        }
      ],
      "name": "RedemptionTicketDeleted",
      "type": "event"
    },
    {
      "anonymous": false,
      "inputs": [
        {
          "indexed": true,
          "internalType": "address",
          "name": "agentVault",
          "type": "address"
        },
        {
          "indexed": true,
          "internalType": "uint256",
          "name": "redemptionTicketId",
          "type": "uint256"
        },
        {
          "indexed": false,
          "internalType": "uint256",
          "name": "ticketValueUBA",
          "type": "uint256"
        }
      ],
      "name": "RedemptionTicketUpdated",
      "type": "event"
    },
    {
      "anonymous": false,
      "inputs": [
        {
          "indexed": true,
          "internalType": "address",
          "name": "agentVault",
          "type": "address"
        },
        {
          "indexed": false,
          "internalType": "uint256",
          "name": "valueUBA",
          "type": "uint256"
        }
      ],
      "name": "SelfClose",
      "type": "event"
    },
    {
      "inputs": [
        {
          "internalType": "address",
          "name": "_agentVault",
          "type": "address"
        }
      ],
      "name": "convertDustToTicket",
      "outputs": [],
      "stateMutability": "nonpayable",
      "type": "function"
    },
    {
      "inputs": [
        {
          "internalType": "address",
          "name": "_agentVault",
          "type": "address"
        }
      ],
      "name": "maxRedemptionFromAgent",
      "outputs": [
        {
          "internalType": "uint256",
          "name": "",
          "type": "uint256"
        }
      ],
      "stateMutability": "view",
      "type": "function"
    },
    {
      "inputs": [
        {
          "internalType": "uint256",
          "name": "_lots",
          "type": "uint256"
        },
        {
          "internalType": "string",
          "name": "_redeemerUnderlyingAddressString",
          "type": "string"
        },
        {
          "internalType": "address payable",
          "name": "_executor",
          "type": "address"
        }
      ],
      "name": "redeem",
      "outputs": [
        {
          "internalType": "uint256",
          "name": "_redeemedAmountUBA",
          "type": "uint256"
        }
      ],
      "stateMutability": "payable",
      "type": "function"
    },
    {
      "inputs": [
        {
          "internalType": "address",
          "name": "_agentVault",
          "type": "address"
        },
        {
          "internalType": "address",
          "name": "_receiver",
          "type": "address"
        },
        {
          "internalType": "uint256",
          "name": "_amountUBA",
          "type": "uint256"
        },
        {
          "internalType": "string",
          "name": "_receiverUnderlyingAddress",
          "type": "string"
        },
        {
          "internalType": "address payable",
          "name": "_executor",
          "type": "address"
        }
      ],
      "name": "redeemFromAgent",
      "outputs": [],
      "stateMutability": "payable",
      "type": "function"
    },
    {
      "inputs": [
        {
          "internalType": "address",
          "name": "_agentVault",
          "type": "address"
        },
        {
          "internalType": "address",
          "name": "_receiver",
          "type": "address"
        },
        {
          "internalType": "uint256",
          "name": "_amountUBA",
          "type": "uint256"
        }
      ],
      "name": "redeemFromAgentInCollateral",
      "outputs": [],
      "stateMutability": "nonpayable",
      "type": "function"
    },
    {
      "inputs": [
        {
          "components": [
            {
              "internalType": "bytes32[]",
              "name": "merkleProof",
              "type": "bytes32[]"
            },
            {
              "components": [
                {
                  "internalType": "bytes32",
                  "name": "attestationType",
                  "type": "bytes32"
                },
                {
                  "internalType": "bytes32",
                  "name": "sourceId",
                  "type": "bytes32"
                },
                {
                  "internalType": "uint64",
                  "name": "votingRound",
                  "type": "uint64"
                },
                {
                  "internalType": "uint64",
                  "name": "lowestUsedTimestamp",
                  "type": "uint64"
                },
                {
                  "components": [
                    {
                      "internalType": "string",
                      "name": "addressStr",
                      "type": "string"
                    }
                  ],
                  "internalType": "struct IAddressValidity.RequestBody",
                  "name": "requestBody",
                  "type": "tuple"
                },
                {
                  "components": [
                    {
                      "internalType": "bool",
                      "name": "isValid",
                      "type": "bool"
                    },
                    {
                      "internalType": "string",
                      "name": "standardAddress",
                      "type": "string"
                    },
                    {
                      "internalType": "bytes32",
                      "name": "standardAddressHash",
                      "type": "bytes32"
                    }
                  ],
                  "internalType": "struct IAddressValidity.ResponseBody",
                  "name": "responseBody",
                  "type": "tuple"
                }
              ],
              "internalType": "struct IAddressValidity.Response",
              "name": "data",
              "type": "tuple"
            }
          ],
          "internalType": "struct IAddressValidity.Proof",
          "name": "_proof",
          "type": "tuple"
        },
        {
          "internalType": "uint256",
          "name": "_redemptionRequestId",
          "type": "uint256"
        }
      ],
      "name": "rejectInvalidRedemption",
      "outputs": [],
      "stateMutability": "nonpayable",
      "type": "function"
    },
    {
      "inputs": [
        {
          "internalType": "uint256",
          "name": "_redemptionRequestId",
          "type": "uint256"
        }
      ],
      "name": "rejectRedemptionRequest",
      "outputs": [],
      "stateMutability": "nonpayable",
      "type": "function"
    },
    {
      "inputs": [
        {
          "internalType": "address",
          "name": "_agentVault",
          "type": "address"
        },
        {
          "internalType": "uint256",
          "name": "_amountUBA",
          "type": "uint256"
        }
      ],
      "name": "selfClose",
      "outputs": [
        {
          "internalType": "uint256",
          "name": "_closedAmountUBA",
          "type": "uint256"
        }
      ],
      "stateMutability": "nonpayable",
      "type": "function"
    },
    {
      "inputs": [
        {
          "internalType": "address",
          "name": "_agentVault",
          "type": "address"
        },
        {
          "internalType": "uint256",
          "name": "_redemptionRequestId",
          "type": "uint256"
        }
      ],
      "name": "takeOverRedemptionRequest",
      "outputs": [],
      "stateMutability": "nonpayable",
      "type": "function"
    }
  ],
  "bytecode": "0x608060405234801561001057600080fd5b50615ecb80620000216000396000f3fe6080604052600436106100865760003560e01c80639584da2a116100595780639584da2a1461011f57806399646d1c1461013f578063997be0f414610152578063ed000b3014610165578063f826a2a01461018557600080fd5b80631e8bee011461008b5780635593e4d0146100bd57806365454f94146100df57806387375f27146100ff575b600080fd5b34801561009757600080fd5b506100ab6100a6366004615329565b6101a5565b60405190815260200160405180910390f35b3480156100c957600080fd5b506100dd6100d8366004615346565b6101b6565b005b3480156100eb57600080fd5b506100dd6100fa366004615329565b6101ca565b34801561010b57600080fd5b506100dd61011a36600461535f565b6101d3565b34801561012b57600080fd5b506100ab61013a3660046153a8565b6101e9565b6100ab61014d366004615468565b610204565b6100dd6101603660046154c2565b610232565b34801561017157600080fd5b506100dd610180366004615542565b61024e565b34801561019157600080fd5b506100dd6101a03660046153a8565b610266565b60006101b082610280565b92915050565b6101c76101c282610297565b610308565b50565b6101c781610608565b6101e5826101e083610297565b610696565b5050565b60006101f36108aa565b6101fd8383610935565b9392505050565b600061020e610a0d565b6102166108aa565b61022a3361022386610297565b8585610ad9565b949350505050565b61023a6108aa565b6102478585858585610d4d565b5050505050565b6102566108aa565b610261838383610e22565b505050565b61026e6108aa565b6101e58261027b83610297565b610f63565b60008061028c8361153a565b90506101fd816115e1565b60006001600160401b038211156103045760405162461bcd60e51b815260206004820152602660248201527f53616665436173743a2076616c756520646f65736e27742066697420696e203660448201526534206269747360d01b60648201526084015b60405180910390fd5b5090565b6000610313826116e3565b6004810154909150600090610330906001600160a01b031661153a565b905061033b816117bf565b600c81015463ffffffff1660000361038a5760405162461bcd60e51b81526020600482015260126024820152711a185b991cda185ad948191a5cd8589b195960721b60448201526064016102fb565b60016004830154600160a01b900460ff1660028111156103ac576103ac615583565b146103e65760405162461bcd60e51b815260206004820152600a6024820152696e6f742061637469766560b01b60448201526064016102fb565b60068201546001600160401b0316156104345760405162461bcd60e51b815260206004820152601060248201526f185b1c9958591e481c995a9958dd195960821b60448201526064016102fb565b6006820154600160401b90046001600160401b03161561048b5760405162461bcd60e51b815260206004820152601260248201527130b63932b0b23c903a30b5b2b71037bb32b960711b60448201526064016102fb565b600061049561180e565b6018810154600385015491925042916104c1916001600160401b0390811691600160a01b9004166155af565b6001600160401b0316116105275760405162461bcd60e51b815260206004820152602760248201527f72656a65637420726564656d7074696f6e20726571756573742077696e646f776044820152660818db1bdcd95960ca1b60648201526084016102fb565b61053042610297565b60068401805467ffffffffffffffff19166001600160401b03929092169190911790556004830154600160a81b900460ff161561058957610572828486611832565b61057b8361193a565b61058484611a08565b610602565b6003830154600484015460028501546001600160401b03808816936001600160a01b039081169316917f53dc6bb24d3e68f322621ede45a68da3b91792851d240fcbe0598d11308e75539160078901916105eb91600160c01b90910416611ab1565b6040516105f9929190615603565b60405180910390a45b50505050565b600061061261180e565b9050600061061f8361153a565b600d83015460068201549192506001600160401b0390811691161061026157600d8201546006820154600091610661916001600160401b0391821691166156b0565b60068301549091506000906106809083906001600160401b03166156d6565b905061068c8382611ae2565b6102478383611c70565b60006106a1826116e3565b60048101549091506000906106be906001600160a01b031661153a565b90506106c9816117bf565b6106d284611d06565b60006106e160208601866156f6565b6106ef906080810190615716565b6106f9908061572c565b604051610707929190615779565b60405180910390209050826000015481146107545760405162461bcd60e51b815260206004820152600d60248201526c77726f6e67206164647265737360981b60448201526064016102fb565b600061076360208701876156f6565b6107719060a0810190615789565b61077f9060208101906157ad565b80156107a95750835461079560208801886156f6565b6107a39060a0810190615789565b60400135145b905080156107e95760405162461bcd60e51b815260206004820152600d60248201526c1859191c995cdcc81d985b1a59609a1b60448201526064016102fb565b61081c838560020160189054906101000a90046001600160401b03168660040160159054906101000a900460ff16611e2e565b600284015460009061083d90600160c01b90046001600160401b0316611ab1565b600386015460048701546040518381529293506001600160401b038916926001600160a01b0392831692909116907f546ca4504281c4fdf80e86f89160accd6da6cea9b105796337a515103ec70a6f9060200160405180910390a46108a186611a08565b50505050505050565b7fec7e8c1c441439dd40959777f4c577ea0cd42fcc1dbe59d2bd0f5d9c55df8dc654600080516020615e768339815191529042600160401b9091046001600160401b031611156101c75760405162461bcd60e51b8152602060048201526016602482015275656d657267656e63792070617573652061637469766560501b60448201526064016102fb565b6000806109418461153a565b905061094c816117bf565b8260000361098e5760405162461bcd60e51b815260206004820152600f60248201526e073656c6620636c6f7365206f66203608c1b60448201526064016102fb565b600061099984611f24565b905060006109ab838360016000611f55565b9150506109b833826120bb565b6109c183612123565b856001600160a01b03167f27a9c0ea115e1a078f8a4ddd385379102c3138ded0ddd00bf9cc5ee197457dc8826040516109fc91815260200190565b60405180910390a295945050505050565b6000610a1761180e565b60068101549091506001600160a01b0316156101c7576006810154604051633af32abf60e01b81523360048201526001600160a01b0390911690633af32abf90602401602060405180830381865afa158015610a77573d6000803e3d6000fd5b505050506040513d601f19601f82011682018060405250810190610a9b91906157ca565b6101c75760405162461bcd60e51b815260206004820152600f60248201526e1b9bdd081dda1a5d195b1a5cdd1959608a1b60448201526064016102fb565b600080610ae461180e565b600f0160109054906101000a900461ffff1661ffff16905060006040518060400160405280836001600160401b03811115610b2157610b216153c6565b604051908082528060200260200182016040528015610b6657816020015b6040805180820190915260008082526020820152815260200190600190039081610b3f5790505b508152602001600081525090506000805b8381108015610b975750876001600160401b0316826001600160401b0316105b15610bea576000610bb1610bab848b6156d6565b8561220f565b9050806001600160401b0316600003610bca5750610bea565b610bd481846155af565b9250508080610be2906157e7565b915050610b77565b50806001600160401b0316600003610c345760405162461bcd60e51b815260206004820152600d60248201526c72656465656d2030206c6f747360981b60448201526064016102fb565b6000610c44633b9aca0034615800565b905060005b8360200151811015610cbd576000818560200151610c679190615814565b610c719084615800565b9050610c7d8184615814565b9250610cb385600001518381518110610c9857610c98615827565b60200260200101518c8b60008c610cae87610297565b6123fe565b5050600101610c49565b50876001600160401b0316826001600160401b03161015610d29576001600160a01b0389167fffb29516defd624d1f4ff8436cc96282ba7b4294c3a18cf274c3bdf21c9ccd99610d0d848b6156d6565b6040516001600160401b03909116815260200160405180910390a25b6000610d34836127d9565b9050610d4033826120bb565b9998505050505050505050565b6000610d588661153a565b9050610d638161281d565b83600003610da55760405162461bcd60e51b815260206004820152600f60248201526e0726564656d7074696f6e206f66203608c1b60448201526064016102fb565b6000610db085611f24565b9050600080610dc28484600080611f55565b604080518082019091526001600160a01b038c1681526001600160401b03831660208201529193509150610e0b818a8960018a610cae610e06633b9aca0034615800565b610297565b50610e1633836120bb565b50505050505050505050565b6000610e2d8461153a565b9050610e388161281d565b81600003610e7a5760405162461bcd60e51b815260206004820152600f60248201526e0726564656d7074696f6e206f66203608c1b60448201526064016102fb565b6000610e8583611f24565b9050600080610e98848460016000611f55565b60048601549193509150600090610eb790610100900461ffff1661286d565b600a860154909150600090610eea90600160801b900461ffff16610ee46001600160401b038716856128b8565b906128d2565b9050610ef78689836128e1565b50876001600160a01b0316896001600160a01b03167f25c177efe505ee9dd8e37b9825d729e1a27b6ac048c6e55ba91841d9a7fa9ecc8584604051610f46929190918252602082015260400190565b60405180910390a3610f5833846120bb565b505050505050505050565b6000610f6e826116e3565b6004810154909150600090610f8b906001600160a01b031661153a565b60048301549091506001600160a01b03808616911603610fda5760405162461bcd60e51b815260206004820152600a6024820152691cd85b59481859d95b9d60b21b60448201526064016102fb565b6000610fe58561153a565b9050610ff0816117bf565b60016004840154600160a01b900460ff16600281111561101257611012615583565b1461104c5760405162461bcd60e51b815260206004820152600a6024820152696e6f742061637469766560b01b60448201526064016102fb565b60068301546001600160401b03166000036110985760405162461bcd60e51b815260206004820152600c60248201526b1b9bdd081c995a9958dd195960a21b60448201526064016102fb565b60006110a261180e565b6018810154600686015491925042916110ce916001600160401b03600160401b909104811691166155af565b6001600160401b0316116111375760405162461bcd60e51b815260206004820152602a60248201527f74616b65206f76657220726564656d7074696f6e20726571756573742077696e604482015269191bddc818db1bdcd95960b21b60648201526084016102fb565b60008061115f848760020160189054906101000a90046001600160401b031660006001611f55565b915091506000826001600160401b0316116111a95760405162461bcd60e51b815260206004820152600a6024820152696e6f207469636b65747360b01b60448201526064016102fb565b600286015460058701546000916001600160401b03600160c01b9091048116916111de9186811691600160a01b90041661583d565b6111e89190615800565b604080518082019091526001600160a01b03808c1682526001600160401b038616602083015260038a015460078b01805494955092936000936112ca9386931691611232906155cf565b80601f016020809104026020016040519081016040528092919081815260200182805461125e906155cf565b80156112ab5780601f10611280576101008083540402835291602001916112ab565b820191906000526020600020905b81548152906001019060200180831161128e57829003601f168201915b5050505060058e0154600091506001600160a01b0316610cae89610297565b9050896001600160401b03168960030160009054906101000a90046001600160a01b03166001600160a01b03168a60040160009054906101000a90046001600160a01b03166001600160a01b03167fc716e45ba445102e4d7a69b2010b79ef00478399e0f82a9934f796f7210113bc878f8660405161136e939291909283526001600160a01b039190911660208301526001600160401b0316604082015260600190565b60405180910390a46000611381826116e3565b905061138c42610297565b60068201805467ffffffffffffffff60401b1916600160401b6001600160401b039384160217905560028b0154878216600160c01b909104909116111561150357858a60020160188282829054906101000a90046001600160401b03166113f391906156d6565b92506101000a8154816001600160401b0302191690836001600160401b0316021790555061142084610297565b60058b018054601490611444908490600160a01b90046001600160401b03166156d6565b92506101000a8154816001600160401b0302191690836001600160401b03160217905550600061149261148d8c60020160189054906101000a90046001600160401b0316611ab1565b6129eb565b60018c0180546001600160801b0319166001600160801b03831617905590506114de61148d6114bf61180e565b600e01546001600160801b03841690600160401b900461ffff166128d2565b60018c0180546001600160801b03928316600160801b0292169190911790555061150c565b61150c8b611a08565b61151889876000611e2e565b6115228987612a54565b61152c8987611ae2565b505050505050505050505050565b7f5bebac0595fee029d42bb673937f5f1cb81cf8641382bc17774635de9b7d796568010000000000000000600160e01b03604083901b161880600060048084015460ff169081111561158e5761158e615583565b036115db5760405162461bcd60e51b815260206004820152601b60248201527f696e76616c6964206167656e74207661756c742061646472657373000000000060448201526064016102fb565b50919050565b6006810154600090600080516020615e76833981519152906001600160401b03168261160b61180e565b600f0154600160801b900461ffff1690506000600884018161162c88612ac2565b6001600160a01b0316815260208101919091526040016000908120546001600160401b031691505b6001600160401b0382161580159061166b57508281105b156116cf576001600160401b0382811660009081526007870160205260409020805490916116a191600160a01b900416866155af565b6001909101549094506001600160401b03600160c01b909104169150806116c7816157e7565b915050611654565b506116d983611ab1565b9695505050505050565b6000600080516020615e768339815191526001600160401b03831682036117415760405162461bcd60e51b81526020600482015260126024820152711a5b9d985b1a59081c995c5d595cdd081a5960721b60448201526064016102fb565b6001600160401b0383166000908152600a82016020526040812092506004830154600160a01b900460ff16600281111561177d5761177d615583565b036115db5760405162461bcd60e51b81526020600482015260126024820152711a5b9d985b1a59081c995c5d595cdd081a5960721b60448201526064016102fb565b6117c98133612aea565b6101c75760405162461bcd60e51b815260206004820152601660248201527537b7363c9030b3b2b73a103b30bab63a1037bbb732b960511b60448201526064016102fb565b7f4f24f5c433db0962dac0d2c8b84197a6e6c7cc4e5d9ebe1916a1b6193da2f33a90565b60008061183f8585612b98565b6003860154919350915061185e9086906001600160a01b0316846128e1565b5080156118825760038401546118809086906001600160a01b03168380612daf565b505b6118b5858560020160189054906101000a90046001600160401b03168660040160159054906101000a900460ff16611e2e565b60038401546001600160401b038416906001600160a01b03166118d787612ac2565b6001870154604080516001600160801b0390921682526020820187905281018590526001600160a01b0391909116907f3d88a018be66851f57adfd6fde7c19c103407f95df0b7c2640baf28a0330c6949060600160405180910390a45050505050565b6005810154600160a01b90046001600160401b03166000036119595750565b60058101546001600160a01b031633036119aa5760058101546119a5906001600160a01b038116906119a090633b9aca0090600160a01b90046001600160401b031661583d565b612eb5565b6119f1565b6005810154600160a01b90046001600160401b0316156119f15760058101546119f1906119ec90633b9aca0090600160a01b90046001600160401b031661583d565b612f50565b600501805467ffffffffffffffff60a01b19169055565b6001600160401b03811660009081527fec7e8c1c441439dd40959777f4c577ea0cd42fcc1dbe59d2bd0f5d9c55df8dc06020526040812081815560018101829055600281018290556003810180546001600160e01b03199081169091556004820180546001600160b01b031916905560058201805490911690556006810180546001600160801b0319169055600080516020615e768339815191529161060260078301826152ca565b600080611abc61180e565b600c8101549091506101fd906001600160401b03600160901b909104811690851661583d565b600080516020615e768339815191526000611afc84612ac2565b6009830154600160401b90046001600160401b031660008181526007850160205260409020805492935090916001600160a01b03808516911603611bf957805485908290601490611b5e908490600160a01b90046001600160401b03166155af565b92506101000a8154816001600160401b0302191690836001600160401b031602179055506000611ba48260000160149054906101000a90046001600160401b0316611ab1565b9050826001600160401b0316846001600160a01b03167f9d2e72c50be7927e999d37329649af37a863df77bcb25361699ce021d3d7475d83604051611beb91815260200190565b60405180910390a350611c68565b6000611c09600786018588612f97565b90506000611c1687611ab1565b9050816001600160401b0316856001600160a01b03167f631f8f2039090539b2ea4ef7dc567f7f1939ef4dd3e790b1ca7bc548a1fada5883604051611c5d91815260200190565b60405180910390a350505b505050505050565b60068201546001600160401b03808316911603611c8b575050565b60068201805467ffffffffffffffff19166001600160401b0383161790556000611cb482611ab1565b9050611cbf83612ac2565b6001600160a01b03167fa3db2bc927901a1d3ba09ad51d84609457b98443be9132a0a936a47c5a1081b582604051611cf991815260200190565b60405180910390a2505050565b6000611d1061180e565b6008810154600b8201549192506001600160a01b031690611d3460208501856156f6565b6020013514611d755760405162461bcd60e51b815260206004820152600d60248201526c34b73b30b634b21031b430b4b760991b60448201526064016102fb565b60405163f34ef58760e01b81526001600160a01b0382169063f34ef58790611da1908690600401615a01565b602060405180830381865afa158015611dbe573d6000803e3d6000fd5b505050506040513d601f19601f82011682018060405250810190611de291906157ca565b6102615760405162461bcd60e51b815260206004820152601b60248201527f616464726573732076616c6964697479206e6f742070726f766564000000000060448201526064016102fb565b611e7c8360050160109054906101000a90046001600160401b031683604051806040016040528060148152602001736e6f7420656e6f7567682072656465656d696e6760601b8152506133a0565b8360050160106101000a8154816001600160401b0302191690836001600160401b031602179055508061026157611ef78360050160189054906101000a90046001600160401b031683604051806040016040528060148152602001736e6f7420656e6f7567682072656465656d696e6760601b8152506133a0565b8360050160186101000a8154816001600160401b0302191690836001600160401b03160217905550505050565b600080611f2f61180e565b600c8101549091506101fd90610e0690600160901b90046001600160401b031685615800565b600080600080516020615e7683398151915283611fa0576006870154611f859087906001600160401b03166133eb565b92506001600160401b03831615611fa057611fa08784613414565b6000611faa61180e565b600f0154600160801b900461ffff16905060005b8181108015611fde5750876001600160401b0316856001600160401b0316105b156120945760006008840181611ff38c612ac2565b6001600160a01b0316815260208101919091526040016000908120546001600160401b031691508190036120275750612094565b6001600160401b038116600090815260078501602052604081209061206661204f898d6156d6565b8354600160a01b90046001600160401b03166133eb565b90506120728382613465565b61207c81896155af565b9750505050808061208c906157e7565b915050611fbe565b5061209e84611ab1565b925085156120b0576120b08885613646565b505094509492505050565b6120c3613691565b604051632770a7eb60e21b81526001600160a01b038481166004830152602482018490529190911690639dc29fac90604401600060405180830381600087803b15801561210f57600080fd5b505af1158015611c68573d6000803e3d6000fd5b600260048083015460ff169081111561213e5761213e615583565b146121465750565b6000612151826136af565b9050600061215e83613723565b9050600061216e848360006137f9565b9050600061217e858460016137f9565b905081846000015110158015612198575080846020015110155b15610247576004850180547fff00000000000000000000ffffffffffffffffffffffffffffffffffffffff001660011790556121d385612ac2565b6001600160a01b03167fe513b42585b0ceec0d56d56fe3a23861c15a2f74eb4c32c94334d63d68ff4dcf60405160405180910390a25050505050565b6000600080516020615e768339815191528161222961180e565b60098301549091506001600160401b0316600081900361224f57600093505050506101b0565b6001600160401b0381811660009081526007850160205260408120600d850154815491936122889291811691600160a01b900416615a9e565b905061229488826133eb565b600d8501549096506000906122b2906001600160401b031688615ac4565b83549091506001600160a01b031660005b8960200151811080156123095750816001600160a01b03168a6000015182815181106122f1576122f1615827565b6020026020010151600001516001600160a01b031614155b1561231e57612317816157e7565b90506122c3565b896020015181101561238a57828a60000151828151811061234157612341615827565b60200260200101516020015161235791906155af565b8a5180518390811061236b5761236b615827565b6020908102919091018101516001600160401b039092169101526123e6565b6040518060400160405280836001600160a01b03168152602001846001600160401b03168152508a600001518b60200180518091906123c8906157e7565b9052815181106123da576123da615827565b60200260200101819052505b6123f08684613465565b505050505050505092915050565b600080600080516020615e768339815191529050600086805190602001209050600061243061148d8b60200151611ab1565b905061243b8761385d565b93506124c96040805161022081018252600080825260208201819052918101829052606081018290526080810182905260a0810182905260c0810182905260e08101829052610100810182905261012081018290529061014082019081526000602082018190526040820181905260608083018290526080830182905260a083019190915260c09091015290565b8281526001600160801b0382166020820152600f8401546201000090046001600160401b031660608201528a516124ff906138f2565b6001600160401b0390811660a084015216608082015261251e42610297565b6001600160401b031661010082015261255a61148d61253b61180e565b600e01546001600160801b03851690600160401b900461ffff166128d2565b6001600160801b031660408201526001600160a01b038a811660e08301528b511661012082015260208b01516001600160401b031660c082015260016101408201819052508715156101608201526001600160a01b038781166101808301526001600160401b038781166101a084015261020083018b90528681166000908152600a870160209081526040918290208551815590850151918501516001600160801b03928316600160801b918416820217600183015560608601516002808401805460808a015160a08b015160c08c0151958a166001600160801b031990931692909217600160401b918a1691909102179096169587169093026001600160c01b031694909417600160c01b9186169190910217905560e08501516003820180546101008801519287166001600160e01b031990911617600160a01b929095168202949094179093556101208501516004820180546001600160a01b0319811692909616918217815561014087015187969395909491936001600160a81b031916909217919084908111156126f1576126f1615583565b021790555061016082015160048201805460ff60a81b1916600160a81b921515929092029190911790556101808201516005820180546101a08501516001600160a01b039093166001600160e01b031990911617600160a01b6001600160401b03938416021790556101c08301516006830180546101e08601519284166001600160801b031990911617600160401b929093169190910291909117905561020082015160078201906127a39082615b37565b50508b516127c091506127b59061153a565b8c602001518a6139fd565b6127cb81868b613aa1565b505050509695505050505050565b6000806127e461180e565b600c810154600d8201549192506001600160401b03600160901b9091048116916128139190811690861661583d565b6101fd919061583d565b80546001600160a01b031633146101c75760405162461bcd60e51b81526020600482015260146024820152731bdb9b1e4818dbdb1b185d195c985b081c1bdbdb60621b60448201526064016102fb565b600080600080516020615e7683398151915290506128ae81600001848154811061289957612899615827565b90600052602060002090600402016000613b66565b5090949350505050565b60006101fd826128ca6009600a615cda565b859190613d25565b60006101fd8383612710613d25565b6000806128ed85613e4b565b905060006128fa86612ac2565b82546040516370a0823160e01b81526001600160a01b03808416600483015292935061297392879216906370a0823190602401602060405180830381865afa15801561294a573d6000803e3d6000fd5b505050506040513d601f19601f8201168201806040525081019061296e9190615ce6565b613e98565b825460405163083e007560e21b81526001600160a01b0391821660048201528782166024820152604481018390529194508216906320f801d490606401600060405180830381600087803b1580156129ca57600080fd5b505af11580156129de573d6000803e3d6000fd5b5050505050509392505050565b60006001600160801b038211156103045760405162461bcd60e51b815260206004820152602760248201527f53616665436173743a2076616c756520646f65736e27742066697420696e20316044820152663238206269747360c81b60648201526084016102fb565b6005820154612a74908290600160401b90046001600160401b03166155af565b8260050160086101000a8154816001600160401b0302191690836001600160401b031602179055506101e5612aa883612ac2565b6005840154600160401b90046001600160401b0316613ea7565b7f5bebac0595fee029d42bb673937f5f1cb81cf8641382bc17774635de9b7d79651860401c90565b60018201546000906001600160a01b0390811690831681148061022a5750612b10613ef3565b604051631f86345d60e31b81526001600160a01b038381166004830152919091169063fc31a2e890602401602060405180830381865afa158015612b58573d6000803e3d6000fd5b505050506040513d601f19601f82011682018060405250810190612b7c9190615cff565b6001600160a01b0316836001600160a01b031614949350505050565b6000806000612ba561180e565b90506000612bb286613f11565b6002860154909150600090612bda9083908990600160c01b90046001600160401b0316613ff2565b6004870154909150600160a81b900460ff1615612c2c5760028601546040830151612c1591600160c01b90046001600160401b0316906128b8565b945060009350612c258582613e98565b9450612da5565b60068601546001600160401b03161515612ca281612c5b57600e850154600160501b900463ffffffff16612c6e565b6018850154600160801b900463ffffffff165b63ffffffff16610ee48960020160189054906101000a90046001600160401b03166001600160401b031686604001516128b8565b95506000612caf896140af565b9050612d1782612cd057600e860154600160701b900463ffffffff16612ce3565b6018860154600160a01b900463ffffffff165b63ffffffff16610ee48a60020160189054906101000a90046001600160401b03166001600160401b031684604001516128b8565b6002890154909650600090612d3f9083908c90600160c01b90046001600160401b0316613ff2565b905083881115612d95576000612d74612d58868b615814565b60028c0154600160c01b90046001600160401b0316908b61412a565b9050612d848184604001516128b8565b612d8e9089615d1c565b9750849850505b612d9f8782613e98565b96505050505b5050509250929050565b600080612dba614167565b86546040516370a0823160e01b81526001600160a01b0391821660048201529116906370a0823190602401602060405180830381865afa158015612e02573d6000803e3d6000fd5b505050506040513d601f19601f82011682018060405250810190612e269190615ce6565b9050612e328482613e98565b9150612e3e8383613e98565b865460405163adf58c1560e01b81526001600160a01b038881166004830152602482018690526044820184905292955091169063adf58c1590606401600060405180830381600087803b158015612e9457600080fd5b505af1158015612ea8573d6000803e3d6000fd5b5050505050949350505050565b80156101e5576000826001600160a01b03168260405160006040518083038185875af1925050503d8060008114612f08576040519150601f19603f3d011682016040523d82523d6000602084013e612f0d565b606091505b50509050806102615760405162461bcd60e51b815260206004820152600f60248201526e1d1c985b9cd9995c8819985a5b1959608a1b60448201526064016102fb565b6000612f5a61180e565b60098101546040519192506001600160a01b03169083156108fc029084906000818181858888f19350505050158015610261573d6000803e3d6000fd5b6001600160a01b03821660009081526001840160205260408120600285018054839190601090612fd690600160801b90046001600160401b0316615d2f565b91906101000a8154816001600160401b0302191690836001600160401b03160217905590506040518060c00160405280866001600160a01b03168152602001856001600160401b031681526020018760020160089054906101000a90046001600160401b03166001600160401b0316815260200160006001600160401b031681526020018360000160089054906101000a90046001600160401b03166001600160401b0316815260200160006001600160401b0316815250866000016000836001600160401b03166001600160401b0316815260200190815260200160002060008201518160000160006101000a8154816001600160a01b0302191690836001600160a01b0316021790555060208201518160000160146101000a8154816001600160401b0302191690836001600160401b0316021790555060408201518160010160006101000a8154816001600160401b0302191690836001600160401b0316021790555060608201518160010160086101000a8154816001600160401b0302191690836001600160401b0316021790555060808201518160010160106101000a8154816001600160401b0302191690836001600160401b0316021790555060a08201518160010160186101000a8154816001600160401b0302191690836001600160401b031602179055509050508560020160009054906101000a90046001600160401b03166001600160401b0316600003613233576002860154600160401b90046001600160401b03161561321057613210615d55565b60028601805467ffffffffffffffff19166001600160401b03831617905561329b565b6002860154600160401b90046001600160401b031660000361325757613257615d55565b6002860154600160401b908190046001600160401b039081166000908152602089905260409020600101805467ffffffffffffffff60401b19169184169092021790555b6002860180546001600160401b03808416600160401b0267ffffffffffffffff60401b1990921691909117909155825416600003613311578154600160401b90046001600160401b0316156132f2576132f2615d55565b815467ffffffffffffffff19166001600160401b038216178255613374565b8154600160401b90046001600160401b031660000361333257613332615d55565b81546001600160401b03600160401b909104811660009081526020889052604090206001018054918316600160c01b026001600160c01b039092169190911790555b815467ffffffffffffffff60401b1916600160401b6001600160401b0383160217909155949350505050565b6000826001600160401b0316846001600160401b0316101582906133d75760405162461bcd60e51b81526004016102fb9190615db1565b5050506001600160401b0390811691160390565b6000816001600160401b0316836001600160401b0316111561340d57816101fd565b5090919050565b600682015460408051808201909152600f81526e1b9bdd08195b9bdd59da08191d5cdd608a1b6020820152600091613459916001600160401b039091169084906133a0565b90506102618382611c70565b6001600160401b0382811660009081527fec7e8c1c441439dd40959777f4c577ea0cd42fcc1dbe59d2bd0f5d9c55df8dbd602052604081208054600080516020615e76833981519152939192916134c6918691600160a01b909104166156d6565b9050806001600160401b031660000361352b5781546040516001600160401b038716916001600160a01b0316907fb7f65e70a51658e24800516a5dc90e2dd65176e18381adda77f58e2044482b1990600090a361352660078401866141d4565b610247565b61353361180e565b600d01546001600160401b0390811690821610156135c1578154600090613562906001600160a01b031661153a565b905061356e81836145ae565b82546040516001600160401b038816916001600160a01b0316907fb7f65e70a51658e24800516a5dc90e2dd65176e18381adda77f58e2044482b1990600090a36135bb60078501876141d4565b50610247565b815467ffffffffffffffff60a01b1916600160a01b6001600160401b0383160217825560006135ef82611ab1565b83546040518281529192506001600160401b038816916001600160a01b03909116907f9d2e72c50be7927e999d37329649af37a863df77bcb25361699ce021d3d7475d9060200160405180910390a3505050505050565b612a748260050160089054906101000a90046001600160401b031682604051806040016040528060118152602001701b9bdd08195b9bdd59da081b5a5b9d1959607a1b8152506133a0565b60008061369c61180e565b600101546001600160a01b031692915050565b6136da6040518060800160405280600081526020016000815260200160008152602001600081525090565b6000806136e88460006145d2565b915091506000806136fa8660016145d2565b604080516080810182529687526020870192909252908501939093525050606082015292915050565b60008061372e61180e565b600484015490915060ff16600281600481111561374d5761374d615583565b036137cc57600060016004860154600160e81b900460ff16600281111561377657613776615583565b1480156137b25750601183015460048601546137a5916001600160401b0390811691600160a81b9004166155af565b6001600160401b03164211155b9050806137c05760026137c3565b60015b95945050505050565b60038160048111156137e0576137e0615583565b036137ef575060029392505050565b5060009392505050565b6000806138068584614620565b9050600184600281111561381c5761381c615583565b148061382f575061382d85846146cc565b155b15613845576003015463ffffffff1690506101fd565b60030154600160401b900463ffffffff1690506101fd565b6000600080516020615e7683398151915281613877614735565b600e8301546138969190600160401b90046001600160401b03166155af565b90506000846138a65760006138a9565b60015b60ff166001196138ba8460016155af565b161790508083600e0160086101000a8154816001600160401b0302191690836001600160401b03160217905550809350505050919050565b600080600080516020615e768339815191528161390d61180e565b9050600061391a86614753565b600f840154600160901b90046001600160401b031661393842610297565b61394291906156d6565b61394c91906155af565b600c8301549091506000906139809063ffffffff166139766001600160401b0385166103e861583d565b610e069190615800565b600d840154600f8601549192506001600160401b03600160981b9091048116916139b2918491620100009004166155af565b6139bc91906155af565b600e840154600f8601549197506001600160401b03908116916139e8918591600160501b9004166155af565b6139f291906155af565b945050505050915091565b818360050160108282829054906101000a90046001600160401b0316613a2391906155af565b92506101000a8154816001600160401b0302191690836001600160401b0316021790555080613a9757818360050160188282829054906101000a90046001600160401b0316613a7291906155af565b92506101000a8154816001600160401b0302191690836001600160401b031602179055505b6102618383613646565b816001600160401b03168360e001516001600160a01b03168461012001516001600160a01b03167f8cbbd73a8d1b8b02a53c4c3b0ee34b472fe3099cc19bcfb57f1aae09e8a9847e848760200151886040015189606001518a608001518b60a00151613b208c6001600160401b031667232128293320800160c11b1790565b8d6101800151633b9aca008f6101a001516001600160401b0316613b44919061583d565b604051613b5999989796959493929190615dc4565b60405180910390a4505050565b600080600080600080613c05886001018054613b81906155cf565b80601f0160208091040260200160405190810160405280929190818152602001828054613bad906155cf565b8015613bfa5780601f10613bcf57610100808354040283529160200191613bfa565b820191906000526020600020905b815481529060010190602001808311613bdd57829003601f168201915b50505050508861480b565b8a549295509093509150600160f01b900460ff1615613c4c578754600090613c3b90600160a81b900460ff1660018387866148d6565b9650919450849350613d1e92505050565b6000806000613ce78b6002018054613c63906155cf565b80601f0160208091040260200160405190810160405280929190818152602001828054613c8f906155cf565b8015613cdc5780601f10613cb157610100808354040283529160200191613cdc565b820191906000526020600020905b815481529060010190602001808311613cbf57829003601f168201915b50505050508b61480b565b8d549295509093509150600090613d0b90600160a81b900460ff1685848a896148d6565b9950949750909550613d1e945050505050565b9250925092565b6000808211613d695760405162461bcd60e51b815260206004820152601060248201526f4469766973696f6e206279207a65726f60801b60448201526064016102fb565b83600003613d79575060006101fd565b83830283858281613d8c57613d8c61569a565b0403613daa57828181613da157613da161569a565b049150506101fd565b506000613db78386615800565b90506000613dc58487615e33565b90506000613dd38587615800565b90506000613de18688615e33565b905085613dee828561583d565b613df89190615800565b613e02838561583d565b613e0c838761583d565b88613e17868961583d565b613e21919061583d565b613e2b9190615d1c565b613e359190615d1c565b613e3f9190615d1c565b98975050505050505050565b600080600080516020615e7683398151915260048401548154919250829161010090910461ffff16908110613e8257613e82615827565b9060005260206000209060040201915050919050565b600081831061340d57816101fd565b7f341c6685fdb8ed7133465b64f545b9fbc5699a59cbd1ad98992e5c070a74c5106102617f341c6685fdb8ed7133465b64f545b9fbc5699a59cbd1ad98992e5c070a74c511848461494d565b600080613efe61180e565b600701546001600160a01b031692915050565b613f366040805160608101909152806000815260200160008152602001600081525090565b6000613f4183613e4b565b60408051606081019091526000815281549192509060208201906001600160a01b03166370a08231613f7287612ac2565b6040516001600160e01b031960e084901b1681526001600160a01b0390911660048201526024015b602060405180830381865afa158015613fb7573d6000803e3d6000fd5b505050506040513d601f19601f82011682018060405250810190613fdb9190615ce6565b8152602001613fe9836149b6565b90529392505050565b600081600003614004575060006101fd565b600060018551600281111561401b5761401b615583565b1461403a576005840154600160801b90046001600160401b0316614050565b6005840154600160c01b90046001600160401b03165b6001600160401b031690508083111561406b5761406b615d55565b60058401546000908290614092906001600160401b0380821691600160401b900416615d1c565b61409c9190615d1c565b60208701519091506116d9908583613d25565b6140d46040805160608101909152806000815260200160008152602001600081525090565b60006140df836149cc565b60408051606081019091529091508060018152825485546040516370a0823160e01b81526001600160a01b0391821660048201526020909301929116906370a0823190602401613f9a565b600080614138858585613d25565b90506000838061414a5761414a61569a565b8587099050801561415e57816001016116d9565b50949350505050565b7fec7e8c1c441439dd40959777f4c577ea0cd42fcc1dbe59d2bd0f5d9c55df8dc554600080516020615e768339815191528054600092829161ffff9091169081106141b4576141b4615827565b60009182526020909120600490910201546001600160a01b031692915050565b6001600160401b038116600090815260208390526040902080546001600160a01b031661420357614203615d55565b80546001600160a01b031660009081526001808501602052604082209083015490916001600160401b0390911690036142895760028401546001600160401b0384811691161461425557614255615d55565b6001820154600285018054600160401b9092046001600160401b031667ffffffffffffffff199092169190911790556142f1565b60028401546001600160401b03908116908416036142a9576142a9615d55565b6001828101546001600160401b038082166000908152602088905260409020909201805467ffffffffffffffff60401b1916600160401b928390049093169091029190911790555b6001820154600160401b90046001600160401b03166000036143685760028401546001600160401b03848116600160401b909204161461433357614333615d55565b600182015460028501805467ffffffffffffffff60401b19166001600160401b03909216600160401b029190911790556143d0565b60028401546001600160401b03600160401b90910481169084160361438f5761438f615d55565b600180830154600160401b81046001600160401b039081166000908152602088905260409020909201805467ffffffffffffffff1916929091169190911790555b6001820154600160801b90046001600160401b03166000036144355780546001600160401b0384811691161461440857614408615d55565b60018201548154600160c01b9091046001600160401b031667ffffffffffffffff1990911617815561449b565b80546001600160401b039081169084160361445257614452615d55565b6001828101546001600160401b03600160801b82048116600090815260208890526040902090920180546001600160c01b0316600160c01b928390049093169091029190911790555b6001820154600160c01b90046001600160401b031660000361450e5780546001600160401b03848116600160401b90920416146144da576144da615d55565b6001820154815467ffffffffffffffff60401b1916600160801b9091046001600160401b0316600160401b02178155614580565b80546001600160401b03600160401b90910481169084160361453257614532615d55565b6001828101546001600160401b03600160c01b820481166000908152602088905260409020909201805467ffffffffffffffff60801b1916600160801b928390049093169091029190911790555b50506001600160401b031660009081526020919091526040812080546001600160e01b031916815560010155565b60068201546101e59083906145cd9084906001600160401b03166155af565b611c70565b6000806000806145e28686614a05565b9150915060006145f28388614b68565b905060006146008389614b68565b9050836040015194506146138282614c29565b9550505050509250929050565b6000600282600281111561463657614636615583565b0361464357614643615d55565b600080516020615e76833981519152600083600281111561466657614666615583565b036146a257600484015481548291610100900461ffff1690811061468c5761468c615827565b90600052602060002090600402019150506101b0565b6004840154815482916301000000900461ffff1690811061468c5761468c615827565b5092915050565b6000808260028111156146e1576146e1615583565b036146fd57506004820154600160f01b900460011615156101b0565b600182600281111561471157614711615583565b1461471e5761471e615d55565b506004820154600160f01b900460021615156101b0565b60006147436103e843615e33565b61474e906001615d1c565b905090565b6001600160a01b03811660009081527f1309a575a1ebd5e5ca64d58e63b864f1d06aed3e31a021b0eabae653c215fb07602052604081207f1309a575a1ebd5e5ca64d58e63b864f1d06aed3e31a021b0eabae653c215fb0690826147b642610297565b835483549192506000916147d6916001600160401b0390811691166155af565b90506147e28183614c38565b835467ffffffffffffffff19166001600160401b039190911690811784556116d99083906156d6565b60008060008061481961180e565b600a8101549091506001600160a01b031685156148aa5760405163e4a0a55b60e01b81526001600160a01b0382169063e4a0a55b9061485c908a90600401615db1565b606060405180830381865afa158015614879573d6000803e3d6000fd5b505050506040513d601f19601f8201168201806040525081019061489d9190615e47565b9450945094505050613d1e565b60405163524f388960e01b81526001600160a01b0382169063524f38899061485c908a90600401615db1565b6000806148e161180e565b9050600060096148f1878a615d1c565b6148fb9190615d1c565b600a83015490915060009061491b908690600160a81b900460ff16615d1c565b90508082101561492d5761492d615d55565b610d4061493a8284615814565b61494590600a615cda565b87908a613d25565b6001600160a01b038216600090815260048401602052604081209061497182614c5a565b9050600061497e86614c5a565b905061498b834286614cf5565b6149ac428361499a87856155af565b6149a491906156d6565b889190614cf5565b611c688684615066565b60006149c3826000613b66565b50909392505050565b600080600080516020615e76833981519152600484015481549192508291630100000090910461ffff16908110613e8257613e82615827565b614a2a6040805160608101909152806000815260200160008152602001600081525090565b614a4f6040805160608101909152806000815260200160008152602001600081525090565b6000614a5b8585614620565b90506000614a6986866150a3565b90506000614a76836150db565b614a81576000614aee565b82546040516370a0823160e01b81526001600160a01b038481166004830152909116906370a0823190602401602060405180830381865afa158015614aca573d6000803e3d6000fd5b505050506040513d601f19601f82011682018060405250810190614aee9190615ce6565b9050600080614afc8561510f565b915091506040518060600160405280896002811115614b1d57614b1d615583565b81526020018481526020018381525096506040518060600160405280896002811115614b4b57614b4b615583565b815260200184815260200182815250955050505050509250929050565b600080600184516002811115614b8057614b80615583565b14614b9f576005830154600160801b90046001600160401b0316614bb5565b6005830154600160c01b90046001600160401b03165b60058401546001600160401b0391821692506000918391614be19181811691600160401b900416615d1c565b614beb9190615d1c565b90506000614bfd8287604001516128b8565b905080600003614c17576402540be40093505050506101b0565b60208601516116d99061271083613d25565b600081831161340d57816101fd565b6000816001600160401b0316836001600160401b0316101561340d57816101fd565b6001810154600090600160401b90046001600160401b03168103614c8057506000919050565b60018201546001600160401b03808216600160401b9092041611614ca657614ca6615d55565b6001828101548391600091614ccb9190600160401b90046001600160401b03166156d6565b6001600160401b039081168252602082019290925260400160002054600160c01b90041692915050565b6001830154600160401b90046001600160401b0316600003614e145760018301546001600160401b031615614d2c57614d2c615d55565b604051806060016040528060006001600160801b03168152602001614d5084610297565b6001600160401b0390811682528381166020909201919091526001850180548692600092600160401b90920416906008614d8983615d2f565b82546001600160401b039182166101009390930a92830292820219169190911790915590811682526020808301939093526040918201600020845181549486015195909301518216600160c01b026001600160c01b0395909216600160801b026001600160c01b03199094166001600160801b03909316929092179290921792909216179055505050565b60018301546001600160401b03808216600160401b9092041611614e3a57614e3a615d55565b60018381015460009185918391614e6091600160401b90046001600160401b03166156d6565b6001600160401b03908116825260208201929092526040016000208054909250600160801b900416839003614eb25780546001600160c01b0316600160c01b6001600160401b03841602178155610602565b8054600160801b90046001600160401b03168311614f235760405162461bcd60e51b815260206004820152602860248201527f54696d6543756d756c61746976653a2074696d657374616d70206e6f7420696e6044820152676372656173696e6760c01b60648201526084016102fb565b8054600090614f4290600160801b90046001600160401b031685615814565b8254614f5e9190600160c01b90046001600160401b031661583d565b8254614f7391906001600160801b0316615d1c565b90506040518060600160405280614f89836129eb565b6001600160801b03168152602001614fa086610297565b6001600160401b0390811682528581166020909201919091526001870180548892600092600160401b90920416906008614fd983615d2f565b82546001600160401b039182166101009390930a92830292820219169190911790915590811682526020808301939093526040918201600020845181549486015195909301518216600160c01b026001600160c01b0395909216600160801b026001600160c01b03199094166001600160801b039093169290921792909217929092161790555050505050565b6003820154600090615089908490600160c01b90046001600160401b03166151be565b9050615097828260026151f9565b610261838260026151f9565b600060018260028111156150b9576150b9615583565b146150cc576150c783612ac2565b6101fd565b5050546001600160a01b031690565b8054600090600160b01b90046001600160401b031615806101b05750505442600160b01b9091046001600160401b03161190565b600080600061511c61180e565b9050600080600061512e876000613b66565b92509250925060008060006151448a6001613b66565b60108a01549295509093509150600090859061517090600160c01b90046001600160401b031684615d1c565b1015801561519d57506010880154869061519a90600160c01b90046001600160401b031685615d1c565b10155b9050869950806151ad57866151af565b835b98505050505050505050915091565b60038201546000906151e1908390600160401b90046001600160401b031661583d565b60038401546101fd91906001600160401b0316615d1c565b60018301546001600160401b0380821691600160401b90041660005b838110801561522d57508161522b846001615d1c565b105b8015615266575084866000615243866001615d1c565b8152602081019190915260400160002054600160801b90046001600160401b0316105b1561529557600083815260208790526040812055615283836157e7565b925061528e816157e7565b9050615215565b61529e83610297565b600196909601805467ffffffffffffffff19166001600160401b03909716969096179095555050505050565b5080546152d6906155cf565b6000825580601f106152e6575050565b601f0160209004906000526020600020908101906101c791905b808211156103045760008155600101615300565b6001600160a01b03811681146101c757600080fd5b60006020828403121561533b57600080fd5b81356101fd81615314565b60006020828403121561535857600080fd5b5035919050565b6000806040838503121561537257600080fd5b82356001600160401b0381111561538857600080fd5b83016040818603121561539a57600080fd5b946020939093013593505050565b600080604083850312156153bb57600080fd5b823561539a81615314565b634e487b7160e01b600052604160045260246000fd5b600082601f8301126153ed57600080fd5b81356001600160401b0380821115615407576154076153c6565b604051601f8301601f19908116603f0116810190828211818310171561542f5761542f6153c6565b8160405283815286602085880101111561544857600080fd5b836020870160208301376000602085830101528094505050505092915050565b60008060006060848603121561547d57600080fd5b8335925060208401356001600160401b0381111561549a57600080fd5b6154a6868287016153dc565b92505060408401356154b781615314565b809150509250925092565b600080600080600060a086880312156154da57600080fd5b85356154e581615314565b945060208601356154f581615314565b93506040860135925060608601356001600160401b0381111561551757600080fd5b615523888289016153dc565b925050608086013561553481615314565b809150509295509295909350565b60008060006060848603121561555757600080fd5b833561556281615314565b9250602084013561557281615314565b929592945050506040919091013590565b634e487b7160e01b600052602160045260246000fd5b634e487b7160e01b600052601160045260246000fd5b6001600160401b038181168382160190808211156146c5576146c5615599565b600181811c908216806155e357607f821691505b6020821081036115db57634e487b7160e01b600052602260045260246000fd5b604081526000808454615615816155cf565b8060408601526060600180841660008114615637576001811461565357615685565b60ff1985166060890152606084151560051b8901019550615685565b8960005260208060002060005b8681101561567b5781548b8201870152908401908201615660565b8a01606001975050505b50505050506020929092019290925292915050565b634e487b7160e01b600052601260045260246000fd5b60006001600160401b03808416806156ca576156ca61569a565b92169190910692915050565b6001600160401b038281168282160390808211156146c5576146c5615599565b6000823560be1983360301811261570c57600080fd5b9190910192915050565b60008235601e1983360301811261570c57600080fd5b6000808335601e1984360301811261574357600080fd5b8301803591506001600160401b0382111561575d57600080fd5b60200191503681900382131561577257600080fd5b9250929050565b8183823760009101908152919050565b60008235605e1983360301811261570c57600080fd5b80151581146101c757600080fd5b6000602082840312156157bf57600080fd5b81356101fd8161579f565b6000602082840312156157dc57600080fd5b81516101fd8161579f565b6000600182016157f9576157f9615599565b5060010190565b60008261580f5761580f61569a565b500490565b818103818111156101b0576101b0615599565b634e487b7160e01b600052603260045260246000fd5b80820281158282048414176101b0576101b0615599565b6000823560be1983360301811261586a57600080fd5b90910192915050565b80356001600160401b038116811461588a57600080fd5b919050565b6000808335601e198436030181126158a657600080fd5b83016020810192503590506001600160401b038111156158c557600080fd5b80360382131561577257600080fd5b81835281816020850137506000828201602090810191909152601f909101601f19169091010190565b60008235605e1983360301811261586a57600080fd5b600081356159208161579f565b15158352615931602083018361588f565b606060208601526159466060860182846158d4565b915050604083013560408501528091505092915050565b8035825260208101356020830152600061597960408301615873565b6001600160401b0380821660408601528061599660608601615873565b16606086015250506080820135601e198336030181126159b557600080fd5b60c0608085015282016159c8818061588f565b9150602060c08601526159df60e0860183836158d4565b9150506159ef60a08401846158fd565b84820360a08601526137c38282615913565b6020815260008235601e19843603018112615a1b57600080fd5b83016020810190356001600160401b03811115615a3757600080fd5b8060051b803603831315615a4a57600080fd5b60406020860152606085018290526001600160fb1b03821115615a6c57600080fd5b8083608087013784019150615a8690506020850185615854565b60608483030160408501526137c3608083018261595d565b60006001600160401b0380841680615ab857615ab861569a565b92169190910492915050565b6001600160401b03818116838216028082169190828114615ae757615ae7615599565b505092915050565b601f821115610261576000816000526020600020601f850160051c81016020861015615b185750805b601f850160051c820191505b81811015611c6857828155600101615b24565b81516001600160401b03811115615b5057615b506153c6565b615b6481615b5e84546155cf565b84615aef565b602080601f831160018114615b995760008415615b815750858301515b600019600386901b1c1916600185901b178555611c68565b600085815260208120601f198616915b82811015615bc857888601518255948401946001909101908401615ba9565b5085821015615be65787850151600019600388901b60f8161c191681555b5050505050600190811b01905550565b600181815b80851115615c31578160001904821115615c1757615c17615599565b80851615615c2457918102915b93841c9390800290615bfb565b509250929050565b600082615c48575060016101b0565b81615c55575060006101b0565b8160018114615c6b5760028114615c7557615c91565b60019150506101b0565b60ff841115615c8657615c86615599565b50506001821b6101b0565b5060208310610133831016604e8410600b8410161715615cb4575081810a6101b0565b615cbe8383615bf6565b8060001904821115615cd257615cd2615599565b029392505050565b60006101fd8383615c39565b600060208284031215615cf857600080fd5b5051919050565b600060208284031215615d1157600080fd5b81516101fd81615314565b808201808211156101b0576101b0615599565b60006001600160401b03808316818103615d4b57615d4b615599565b6001019392505050565b634e487b7160e01b600052600160045260246000fd5b6000815180845260005b81811015615d9157602081850181015186830182015201615d75565b506000602082860101526020601f19601f83011685010191505092915050565b6020815260006101fd6020830184615d6b565b6000610120808352615dd88184018d615d6b565b6001600160801b039b8c16602085015299909a166040830152506001600160401b03968716606082015294861660808601529290941660a084015260c08301526001600160a01b0390921660e0820152610100015292915050565b600082615e4257615e4261569a565b500690565b600080600060608486031215615e5c57600080fd5b835192506020840151915060408401519050925092509256feec7e8c1c441439dd40959777f4c577ea0cd42fcc1dbe59d2bd0f5d9c55df8db6a2646970667358221220c886566f9f25e08524150189223e4bcf000db21d0ecbd30e8827c9f5da3a797864736f6c63430008170033",
  "linkReferences": {},
  "deployedLinkReferences": {}
}