{
  "_format": "hh-sol-artifact-1",
  "contractName": "RedemptionRequestsFacet",
  "sourceName": "contracts/assetManager/facets/RedemptionRequestsFacet.sol",
  "abi": [
    {
      "anonymous": false,
      "inputs": [
        {
          "indexed": true,
          "internalType": "address",
          "name": "agentVault",
          "type": "address"
        },
        {
          "indexed": false,
          "internalType": "uint256",
          "name": "dustUBA",
          "type": "uint256"
        }
      ],
      "name": "DustChanged",
      "type": "event"
    },
    {
      "anonymous": false,
      "inputs": [
        {
          "indexed": true,
          "internalType": "address",
          "name": "agentVault",
          "type": "address"
        }
      ],
      "name": "LiquidationEnded",
      "type": "event"
    },
    {
      "anonymous": false,
      "inputs": [
        {
          "indexed": true,
          "internalType": "address",
          "name": "agentVault",
          "type": "address"
        },
        {
          "indexed": true,
          "internalType": "address",
          "name": "redeemer",
          "type": "address"
        },
        {
          "indexed": false,
          "internalType": "uint256",
          "name": "redemptionAmountUBA",
          "type": "uint256"
        },
        {
          "indexed": false,
          "internalType": "uint256",
          "name": "paidVaultCollateralWei",
          "type": "uint256"
        }
      ],
      "name": "RedeemedInCollateral",
      "type": "event"
    },
    {
      "anonymous": false,
      "inputs": [
        {
          "indexed": true,
          "internalType": "address",
          "name": "agentVault",
          "type": "address"
        },
        {
          "indexed": true,
          "internalType": "address",
          "name": "redeemer",
          "type": "address"
        },
        {
          "indexed": true,
          "internalType": "uint64",
          "name": "requestId",
          "type": "uint64"
        },
        {
          "indexed": false,
          "internalType": "uint256",
          "name": "redemptionAmountUBA",
          "type": "uint256"
        },
        {
          "indexed": false,
          "internalType": "uint256",
          "name": "redeemedVaultCollateralWei",
          "type": "uint256"
        },
        {
          "indexed": false,
          "internalType": "uint256",
          "name": "redeemedPoolCollateralWei",
          "type": "uint256"
        }
      ],
      "name": "RedemptionDefault",
      "type": "event"
    },
    {
      "anonymous": false,
      "inputs": [
        {
          "indexed": true,
          "internalType": "address",
          "name": "agentVault",
          "type": "address"
        },
        {
          "indexed": true,
          "internalType": "address",
          "name": "redeemer",
          "type": "address"
        },
        {
          "indexed": true,
          "internalType": "uint64",
          "name": "requestId",
          "type": "uint64"
        },
        {
          "indexed": false,
          "internalType": "uint256",
          "name": "redemptionAmountUBA",
          "type": "uint256"
        }
      ],
      "name": "RedemptionRejected",
      "type": "event"
    },
    {
      "anonymous": false,
      "inputs": [
        {
          "indexed": true,
          "internalType": "address",
          "name": "redeemer",
          "type": "address"
        },
        {
          "indexed": false,
          "internalType": "uint256",
          "name": "remainingLots",
          "type": "uint256"
        }
      ],
      "name": "RedemptionRequestIncomplete",
      "type": "event"
    },
    {
      "anonymous": false,
      "inputs": [
        {
          "indexed": true,
          "internalType": "address",
          "name": "agentVault",
          "type": "address"
        },
        {
          "indexed": true,
          "internalType": "address",
          "name": "redeemer",
          "type": "address"
        },
        {
          "indexed": true,
          "internalType": "uint64",
          "name": "requestId",
          "type": "uint64"
        }
      ],
      "name": "RedemptionRequestRejected",
      "type": "event"
    },
    {
      "anonymous": false,
      "inputs": [
        {
          "indexed": true,
          "internalType": "address",
          "name": "agentVault",
          "type": "address"
        },
        {
          "indexed": true,
          "internalType": "address",
          "name": "redeemer",
          "type": "address"
        },
        {
          "indexed": true,
          "internalType": "uint64",
          "name": "requestId",
          "type": "uint64"
        },
        {
          "indexed": false,
          "internalType": "uint256",
          "name": "valueTakenOverUBA",
          "type": "uint256"
        },
        {
          "indexed": false,
          "internalType": "address",
          "name": "newAgentVault",
          "type": "address"
        },
        {
          "indexed": false,
          "internalType": "uint64",
          "name": "newRequestId",
          "type": "uint64"
        }
      ],
      "name": "RedemptionRequestTakenOver",
      "type": "event"
    },
    {
      "anonymous": false,
      "inputs": [
        {
          "indexed": true,
          "internalType": "address",
          "name": "agentVault",
          "type": "address"
        },
        {
          "indexed": true,
          "internalType": "address",
          "name": "redeemer",
          "type": "address"
        },
        {
          "indexed": true,
          "internalType": "uint256",
          "name": "requestId",
          "type": "uint256"
        },
        {
          "indexed": false,
          "internalType": "string",
          "name": "paymentAddress",
          "type": "string"
        },
        {
          "indexed": false,
          "internalType": "uint256",
          "name": "valueUBA",
          "type": "uint256"
        },
        {
          "indexed": false,
          "internalType": "uint256",
          "name": "feeUBA",
          "type": "uint256"
        },
        {
          "indexed": false,
          "internalType": "uint256",
          "name": "firstUnderlyingBlock",
          "type": "uint256"
        },
        {
          "indexed": false,
          "internalType": "uint256",
          "name": "lastUnderlyingBlock",
          "type": "uint256"
        },
        {
          "indexed": false,
          "internalType": "uint256",
          "name": "lastUnderlyingTimestamp",
          "type": "uint256"
        },
        {
          "indexed": false,
          "internalType": "bytes32",
          "name": "paymentReference",
          "type": "bytes32"
        },
        {
          "indexed": false,
          "internalType": "address",
          "name": "executor",
          "type": "address"
        },
        {
          "indexed": false,
          "internalType": "uint256",
          "name": "executorFeeNatWei",
          "type": "uint256"
        }
      ],
      "name": "RedemptionRequested",
      "type": "event"
    },
    {
      "anonymous": false,
      "inputs": [
        {
          "indexed": true,
          "internalType": "address",
          "name": "agentVault",
          "type": "address"
        },
        {
          "indexed": true,
          "internalType": "uint256",
          "name": "redemptionTicketId",
          "type": "uint256"
        },
        {
          "indexed": false,
          "internalType": "uint256",
          "name": "ticketValueUBA",
          "type": "uint256"
        }
      ],
      "name": "RedemptionTicketCreated",
      "type": "event"
    },
    {
      "anonymous": false,
      "inputs": [
        {
          "indexed": true,
          "internalType": "address",
          "name": "agentVault",
          "type": "address"
        },
        {
          "indexed": true,
          "internalType": "uint256",
          "name": "redemptionTicketId",
          "type": "uint256"
        }
      ],
      "name": "RedemptionTicketDeleted",
      "type": "event"
    },
    {
      "anonymous": false,
      "inputs": [
        {
          "indexed": true,
          "internalType": "address",
          "name": "agentVault",
          "type": "address"
        },
        {
          "indexed": true,
          "internalType": "uint256",
          "name": "redemptionTicketId",
          "type": "uint256"
        },
        {
          "indexed": false,
          "internalType": "uint256",
          "name": "ticketValueUBA",
          "type": "uint256"
        }
      ],
      "name": "RedemptionTicketUpdated",
      "type": "event"
    },
    {
      "anonymous": false,
      "inputs": [
        {
          "indexed": true,
          "internalType": "address",
          "name": "agentVault",
          "type": "address"
        },
        {
          "indexed": false,
          "internalType": "uint256",
          "name": "valueUBA",
          "type": "uint256"
        }
      ],
      "name": "SelfClose",
      "type": "event"
    },
    {
      "inputs": [
        {
          "internalType": "address",
          "name": "_agentVault",
          "type": "address"
        }
      ],
      "name": "convertDustToTicket",
      "outputs": [],
      "stateMutability": "nonpayable",
      "type": "function"
    },
    {
      "inputs": [
        {
          "internalType": "address",
          "name": "_agentVault",
          "type": "address"
        }
      ],
      "name": "maxRedemptionFromAgent",
      "outputs": [
        {
          "internalType": "uint256",
          "name": "",
          "type": "uint256"
        }
      ],
      "stateMutability": "view",
      "type": "function"
    },
    {
      "inputs": [
        {
          "internalType": "uint256",
          "name": "_lots",
          "type": "uint256"
        },
        {
          "internalType": "string",
          "name": "_redeemerUnderlyingAddressString",
          "type": "string"
        },
        {
          "internalType": "address payable",
          "name": "_executor",
          "type": "address"
        }
      ],
      "name": "redeem",
      "outputs": [
        {
          "internalType": "uint256",
          "name": "_redeemedAmountUBA",
          "type": "uint256"
        }
      ],
      "stateMutability": "payable",
      "type": "function"
    },
    {
      "inputs": [
        {
          "internalType": "address",
          "name": "_agentVault",
          "type": "address"
        },
        {
          "internalType": "address",
          "name": "_receiver",
          "type": "address"
        },
        {
          "internalType": "uint256",
          "name": "_amountUBA",
          "type": "uint256"
        },
        {
          "internalType": "string",
          "name": "_receiverUnderlyingAddress",
          "type": "string"
        },
        {
          "internalType": "address payable",
          "name": "_executor",
          "type": "address"
        }
      ],
      "name": "redeemFromAgent",
      "outputs": [],
      "stateMutability": "payable",
      "type": "function"
    },
    {
      "inputs": [
        {
          "internalType": "address",
          "name": "_agentVault",
          "type": "address"
        },
        {
          "internalType": "address",
          "name": "_receiver",
          "type": "address"
        },
        {
          "internalType": "uint256",
          "name": "_amountUBA",
          "type": "uint256"
        }
      ],
      "name": "redeemFromAgentInCollateral",
      "outputs": [],
      "stateMutability": "nonpayable",
      "type": "function"
    },
    {
      "inputs": [
        {
          "components": [
            {
              "internalType": "bytes32[]",
              "name": "merkleProof",
              "type": "bytes32[]"
            },
            {
              "components": [
                {
                  "internalType": "bytes32",
                  "name": "attestationType",
                  "type": "bytes32"
                },
                {
                  "internalType": "bytes32",
                  "name": "sourceId",
                  "type": "bytes32"
                },
                {
                  "internalType": "uint64",
                  "name": "votingRound",
                  "type": "uint64"
                },
                {
                  "internalType": "uint64",
                  "name": "lowestUsedTimestamp",
                  "type": "uint64"
                },
                {
                  "components": [
                    {
                      "internalType": "string",
                      "name": "addressStr",
                      "type": "string"
                    }
                  ],
                  "internalType": "struct IAddressValidity.RequestBody",
                  "name": "requestBody",
                  "type": "tuple"
                },
                {
                  "components": [
                    {
                      "internalType": "bool",
                      "name": "isValid",
                      "type": "bool"
                    },
                    {
                      "internalType": "string",
                      "name": "standardAddress",
                      "type": "string"
                    },
                    {
                      "internalType": "bytes32",
                      "name": "standardAddressHash",
                      "type": "bytes32"
                    }
                  ],
                  "internalType": "struct IAddressValidity.ResponseBody",
                  "name": "responseBody",
                  "type": "tuple"
                }
              ],
              "internalType": "struct IAddressValidity.Response",
              "name": "data",
              "type": "tuple"
            }
          ],
          "internalType": "struct IAddressValidity.Proof",
          "name": "_proof",
          "type": "tuple"
        },
        {
          "internalType": "uint256",
          "name": "_redemptionRequestId",
          "type": "uint256"
        }
      ],
      "name": "rejectInvalidRedemption",
      "outputs": [],
      "stateMutability": "nonpayable",
      "type": "function"
    },
    {
      "inputs": [
        {
          "internalType": "uint256",
          "name": "_redemptionRequestId",
          "type": "uint256"
        }
      ],
      "name": "rejectRedemptionRequest",
      "outputs": [],
      "stateMutability": "nonpayable",
      "type": "function"
    },
    {
      "inputs": [
        {
          "internalType": "address",
          "name": "_agentVault",
          "type": "address"
        },
        {
          "internalType": "uint256",
          "name": "_amountUBA",
          "type": "uint256"
        }
      ],
      "name": "selfClose",
      "outputs": [
        {
          "internalType": "uint256",
          "name": "_closedAmountUBA",
          "type": "uint256"
        }
      ],
      "stateMutability": "nonpayable",
      "type": "function"
    },
    {
      "inputs": [
        {
          "internalType": "address",
          "name": "_agentVault",
          "type": "address"
        },
        {
          "internalType": "uint256",
          "name": "_redemptionRequestId",
          "type": "uint256"
        }
      ],
      "name": "takeOverRedemptionRequest",
      "outputs": [],
      "stateMutability": "nonpayable",
      "type": "function"
    }
  ],
  "bytecode": "0x608060405234801561001057600080fd5b50615e0880620000216000396000f3fe6080604052600436106100865760003560e01c80639584da2a116100595780639584da2a1461011f57806399646d1c1461013f578063997be0f414610152578063ed000b3014610165578063f826a2a01461018557600080fd5b80631e8bee011461008b5780635593e4d0146100bd57806365454f94146100df57806387375f27146100ff575b600080fd5b34801561009757600080fd5b506100ab6100a63660046152fd565b6101a5565b60405190815260200160405180910390f35b3480156100c957600080fd5b506100dd6100d836600461531a565b6101b6565b005b3480156100eb57600080fd5b506100dd6100fa3660046152fd565b6101ca565b34801561010b57600080fd5b506100dd61011a366004615333565b6101d3565b34801561012b57600080fd5b506100ab61013a36600461537c565b6101e9565b6100ab61014d36600461543c565b610204565b6100dd610160366004615496565b610232565b34801561017157600080fd5b506100dd610180366004615516565b61024e565b34801561019157600080fd5b506100dd6101a036600461537c565b610266565b60006101b082610280565b92915050565b6101c76101c282610297565b610308565b50565b6101c7816105dc565b6101e5826101e083610297565b61066a565b5050565b60006101f361087e565b6101fd8383610909565b9392505050565b600061020e6109e1565b61021661087e565b61022a3361022386610297565b8585610aad565b949350505050565b61023a61087e565b6102478585858585610d21565b5050505050565b61025661087e565b610261838383610df6565b505050565b61026e61087e565b6101e58261027b83610297565b610f37565b60008061028c8361150e565b90506101fd816115b5565b60006001600160401b038211156103045760405162461bcd60e51b815260206004820152602660248201527f53616665436173743a2076616c756520646f65736e27742066697420696e203660448201526534206269747360d01b60648201526084015b60405180910390fd5b5090565b6000610313826116b7565b6004810154909150600090610330906001600160a01b031661150e565b905061033b81611793565b600c81015463ffffffff1660000361038a5760405162461bcd60e51b81526020600482015260126024820152711a185b991cda185ad948191a5cd8589b195960721b60448201526064016102fb565b60016004830154600160a01b900460ff1660028111156103ac576103ac615557565b146103e65760405162461bcd60e51b815260206004820152600a6024820152696e6f742061637469766560b01b60448201526064016102fb565b60068201546001600160401b0316156104345760405162461bcd60e51b815260206004820152601060248201526f185b1c9958591e481c995a9958dd195960821b60448201526064016102fb565b6006820154600160401b90046001600160401b03161561048b5760405162461bcd60e51b815260206004820152601260248201527130b63932b0b23c903a30b5b2b71037bb32b960711b60448201526064016102fb565b60006104956117e2565b6018810154600385015491925042916104c1916001600160401b0390811691600160a01b900416615583565b6001600160401b0316116105275760405162461bcd60e51b815260206004820152602760248201527f72656a65637420726564656d7074696f6e20726571756573742077696e646f776044820152660818db1bdcd95960ca1b60648201526084016102fb565b61053042610297565b60068401805467ffffffffffffffff19166001600160401b03929092169190911790556004830154600160a81b900460ff161561058957610572828486611806565b61057b8361190e565b610584846119dc565b6105d6565b600383015460048401546040516001600160401b038716926001600160a01b039081169216907f9afe94e5dffd4c89353f7e64d44e7c718bb6572577b95b25634074f3c484993f90600090a45b50505050565b60006105e66117e2565b905060006105f38361150e565b600d83015460068201549192506001600160401b0390811691161061026157600d8201546006820154600091610635916001600160401b0391821691166155b9565b60068301549091506000906106549083906001600160401b03166155df565b90506106608382611a85565b6102478383611c13565b6000610675826116b7565b6004810154909150600090610692906001600160a01b031661150e565b905061069d81611793565b6106a684611ca9565b60006106b560208601866155ff565b6106c390608081019061561f565b6106cd9080615635565b6040516106db929190615682565b60405180910390209050826000015481146107285760405162461bcd60e51b815260206004820152600d60248201526c77726f6e67206164647265737360981b60448201526064016102fb565b600061073760208701876155ff565b6107459060a0810190615692565b6107539060208101906156b6565b801561077d5750835461076960208801886155ff565b6107779060a0810190615692565b60400135145b905080156107bd5760405162461bcd60e51b815260206004820152600d60248201526c1859191c995cdcc81d985b1a59609a1b60448201526064016102fb565b6107f0838560020160189054906101000a90046001600160401b03168660040160159054906101000a900460ff16611dd1565b600284015460009061081190600160c01b90046001600160401b0316611ec7565b600386015460048701546040518381529293506001600160401b038916926001600160a01b0392831692909116907f546ca4504281c4fdf80e86f89160accd6da6cea9b105796337a515103ec70a6f9060200160405180910390a4610875866119dc565b50505050505050565b7fec7e8c1c441439dd40959777f4c577ea0cd42fcc1dbe59d2bd0f5d9c55df8dc654600080516020615db38339815191529042600160401b9091046001600160401b031611156101c75760405162461bcd60e51b8152602060048201526016602482015275656d657267656e63792070617573652061637469766560501b60448201526064016102fb565b6000806109158461150e565b905061092081611793565b826000036109625760405162461bcd60e51b815260206004820152600f60248201526e073656c6620636c6f7365206f66203608c1b60448201526064016102fb565b600061096d84611ef8565b9050600061097f838360016000611f29565b91505061098c338261208f565b610995836120f7565b856001600160a01b03167f27a9c0ea115e1a078f8a4ddd385379102c3138ded0ddd00bf9cc5ee197457dc8826040516109d091815260200190565b60405180910390a295945050505050565b60006109eb6117e2565b60068101549091506001600160a01b0316156101c7576006810154604051633af32abf60e01b81523360048201526001600160a01b0390911690633af32abf90602401602060405180830381865afa158015610a4b573d6000803e3d6000fd5b505050506040513d601f19601f82011682018060405250810190610a6f91906156d3565b6101c75760405162461bcd60e51b815260206004820152600f60248201526e1b9bdd081dda1a5d195b1a5cdd1959608a1b60448201526064016102fb565b600080610ab86117e2565b600f0160109054906101000a900461ffff1661ffff16905060006040518060400160405280836001600160401b03811115610af557610af561539a565b604051908082528060200260200182016040528015610b3a57816020015b6040805180820190915260008082526020820152815260200190600190039081610b135790505b508152602001600081525090506000805b8381108015610b6b5750876001600160401b0316826001600160401b0316105b15610bbe576000610b85610b7f848b6155df565b856121e3565b9050806001600160401b0316600003610b9e5750610bbe565b610ba88184615583565b9250508080610bb6906156f0565b915050610b4b565b50806001600160401b0316600003610c085760405162461bcd60e51b815260206004820152600d60248201526c72656465656d2030206c6f747360981b60448201526064016102fb565b6000610c18633b9aca0034615709565b905060005b8360200151811015610c91576000818560200151610c3b919061571d565b610c459084615709565b9050610c51818461571d565b9250610c8785600001518381518110610c6c57610c6c615730565b60200260200101518c8b60008c610c8287610297565b6123d2565b5050600101610c1d565b50876001600160401b0316826001600160401b03161015610cfd576001600160a01b0389167fffb29516defd624d1f4ff8436cc96282ba7b4294c3a18cf274c3bdf21c9ccd99610ce1848b6155df565b6040516001600160401b03909116815260200160405180910390a25b6000610d08836127ad565b9050610d14338261208f565b9998505050505050505050565b6000610d2c8661150e565b9050610d37816127f1565b83600003610d795760405162461bcd60e51b815260206004820152600f60248201526e0726564656d7074696f6e206f66203608c1b60448201526064016102fb565b6000610d8485611ef8565b9050600080610d968484600080611f29565b604080518082019091526001600160a01b038c1681526001600160401b03831660208201529193509150610ddf818a8960018a610c82610dda633b9aca0034615709565b610297565b50610dea338361208f565b50505050505050505050565b6000610e018461150e565b9050610e0c816127f1565b81600003610e4e5760405162461bcd60e51b815260206004820152600f60248201526e0726564656d7074696f6e206f66203608c1b60448201526064016102fb565b6000610e5983611ef8565b9050600080610e6c848460016000611f29565b60048601549193509150600090610e8b90610100900461ffff16612841565b600a860154909150600090610ebe90600160801b900461ffff16610eb86001600160401b0387168561288c565b906128a6565b9050610ecb8689836128b5565b50876001600160a01b0316896001600160a01b03167f25c177efe505ee9dd8e37b9825d729e1a27b6ac048c6e55ba91841d9a7fa9ecc8584604051610f1a929190918252602082015260400190565b60405180910390a3610f2c338461208f565b505050505050505050565b6000610f42826116b7565b6004810154909150600090610f5f906001600160a01b031661150e565b60048301549091506001600160a01b03808616911603610fae5760405162461bcd60e51b815260206004820152600a6024820152691cd85b59481859d95b9d60b21b60448201526064016102fb565b6000610fb98561150e565b9050610fc481611793565b60016004840154600160a01b900460ff166002811115610fe657610fe6615557565b146110205760405162461bcd60e51b815260206004820152600a6024820152696e6f742061637469766560b01b60448201526064016102fb565b60068301546001600160401b031660000361106c5760405162461bcd60e51b815260206004820152600c60248201526b1b9bdd081c995a9958dd195960a21b60448201526064016102fb565b60006110766117e2565b6018810154600686015491925042916110a2916001600160401b03600160401b90910481169116615583565b6001600160401b03161161110b5760405162461bcd60e51b815260206004820152602a60248201527f74616b65206f76657220726564656d7074696f6e20726571756573742077696e604482015269191bddc818db1bdcd95960b21b60648201526084016102fb565b600080611133848760020160189054906101000a90046001600160401b031660006001611f29565b915091506000826001600160401b03161161117d5760405162461bcd60e51b815260206004820152600a6024820152696e6f207469636b65747360b01b60448201526064016102fb565b600286015460058701546000916001600160401b03600160c01b9091048116916111b29186811691600160a01b900416615746565b6111bc9190615709565b604080518082019091526001600160a01b03808c1682526001600160401b038616602083015260038a015460078b018054949550929360009361129e93869316916112069061575d565b80601f01602080910402602001604051908101604052809291908181526020018280546112329061575d565b801561127f5780601f106112545761010080835404028352916020019161127f565b820191906000526020600020905b81548152906001019060200180831161126257829003601f168201915b5050505060058e0154600091506001600160a01b0316610c8289610297565b9050896001600160401b03168960030160009054906101000a90046001600160a01b03166001600160a01b03168a60040160009054906101000a90046001600160a01b03166001600160a01b03167fc716e45ba445102e4d7a69b2010b79ef00478399e0f82a9934f796f7210113bc878f86604051611342939291909283526001600160a01b039190911660208301526001600160401b0316604082015260600190565b60405180910390a46000611355826116b7565b905061136042610297565b60068201805467ffffffffffffffff60401b1916600160401b6001600160401b039384160217905560028b0154878216600160c01b90910490911611156114d757858a60020160188282829054906101000a90046001600160401b03166113c791906155df565b92506101000a8154816001600160401b0302191690836001600160401b031602179055506113f484610297565b60058b018054601490611418908490600160a01b90046001600160401b03166155df565b92506101000a8154816001600160401b0302191690836001600160401b0316021790555060006114666114618c60020160189054906101000a90046001600160401b0316611ec7565b6129bf565b60018c0180546001600160801b0319166001600160801b03831617905590506114b26114616114936117e2565b600e01546001600160801b03841690600160401b900461ffff166128a6565b60018c0180546001600160801b03928316600160801b029216919091179055506114e0565b6114e08b6119dc565b6114ec89876000611dd1565b6114f68987612a28565b6115008987611a85565b505050505050505050505050565b7f5bebac0595fee029d42bb673937f5f1cb81cf8641382bc17774635de9b7d796568010000000000000000600160e01b03604083901b161880600060048084015460ff169081111561156257611562615557565b036115af5760405162461bcd60e51b815260206004820152601b60248201527f696e76616c6964206167656e74207661756c742061646472657373000000000060448201526064016102fb565b50919050565b6006810154600090600080516020615db3833981519152906001600160401b0316826115df6117e2565b600f0154600160801b900461ffff1690506000600884018161160088612a96565b6001600160a01b0316815260208101919091526040016000908120546001600160401b031691505b6001600160401b0382161580159061163f57508281105b156116a3576001600160401b03828116600090815260078701602052604090208054909161167591600160a01b90041686615583565b6001909101549094506001600160401b03600160c01b9091041691508061169b816156f0565b915050611628565b506116ad83611ec7565b9695505050505050565b6000600080516020615db38339815191526001600160401b03831682036117155760405162461bcd60e51b81526020600482015260126024820152711a5b9d985b1a59081c995c5d595cdd081a5960721b60448201526064016102fb565b6001600160401b0383166000908152600a82016020526040812092506004830154600160a01b900460ff16600281111561175157611751615557565b036115af5760405162461bcd60e51b81526020600482015260126024820152711a5b9d985b1a59081c995c5d595cdd081a5960721b60448201526064016102fb565b61179d8133612abe565b6101c75760405162461bcd60e51b815260206004820152601660248201527537b7363c9030b3b2b73a103b30bab63a1037bbb732b960511b60448201526064016102fb565b7f4f24f5c433db0962dac0d2c8b84197a6e6c7cc4e5d9ebe1916a1b6193da2f33a90565b6000806118138585612b6c565b600386015491935091506118329086906001600160a01b0316846128b5565b5080156118565760038401546118549086906001600160a01b03168380612d83565b505b611889858560020160189054906101000a90046001600160401b03168660040160159054906101000a900460ff16611dd1565b60038401546001600160401b038416906001600160a01b03166118ab87612a96565b6001870154604080516001600160801b0390921682526020820187905281018590526001600160a01b0391909116907f3d88a018be66851f57adfd6fde7c19c103407f95df0b7c2640baf28a0330c6949060600160405180910390a45050505050565b6005810154600160a01b90046001600160401b031660000361192d5750565b60058101546001600160a01b0316330361197e576005810154611979906001600160a01b0381169061197490633b9aca0090600160a01b90046001600160401b0316615746565b612e89565b6119c5565b6005810154600160a01b90046001600160401b0316156119c55760058101546119c5906119c090633b9aca0090600160a01b90046001600160401b0316615746565b612f24565b600501805467ffffffffffffffff60a01b19169055565b6001600160401b03811660009081527fec7e8c1c441439dd40959777f4c577ea0cd42fcc1dbe59d2bd0f5d9c55df8dc06020526040812081815560018101829055600281018290556003810180546001600160e01b03199081169091556004820180546001600160b01b031916905560058201805490911690556006810180546001600160801b0319169055600080516020615db3833981519152916105d6600783018261529e565b600080516020615db38339815191526000611a9f84612a96565b6009830154600160401b90046001600160401b031660008181526007850160205260409020805492935090916001600160a01b03808516911603611b9c57805485908290601490611b01908490600160a01b90046001600160401b0316615583565b92506101000a8154816001600160401b0302191690836001600160401b031602179055506000611b478260000160149054906101000a90046001600160401b0316611ec7565b9050826001600160401b0316846001600160a01b03167f9d2e72c50be7927e999d37329649af37a863df77bcb25361699ce021d3d7475d83604051611b8e91815260200190565b60405180910390a350611c0b565b6000611bac600786018588612f6b565b90506000611bb987611ec7565b9050816001600160401b0316856001600160a01b03167f631f8f2039090539b2ea4ef7dc567f7f1939ef4dd3e790b1ca7bc548a1fada5883604051611c0091815260200190565b60405180910390a350505b505050505050565b60068201546001600160401b03808316911603611c2e575050565b60068201805467ffffffffffffffff19166001600160401b0383161790556000611c5782611ec7565b9050611c6283612a96565b6001600160a01b03167fa3db2bc927901a1d3ba09ad51d84609457b98443be9132a0a936a47c5a1081b582604051611c9c91815260200190565b60405180910390a2505050565b6000611cb36117e2565b6008810154600b8201549192506001600160a01b031690611cd760208501856155ff565b6020013514611d185760405162461bcd60e51b815260206004820152600d60248201526c34b73b30b634b21031b430b4b760991b60448201526064016102fb565b60405163f34ef58760e01b81526001600160a01b0382169063f34ef58790611d4490869060040161593e565b602060405180830381865afa158015611d61573d6000803e3d6000fd5b505050506040513d601f19601f82011682018060405250810190611d8591906156d3565b6102615760405162461bcd60e51b815260206004820152601b60248201527f616464726573732076616c6964697479206e6f742070726f766564000000000060448201526064016102fb565b611e1f8360050160109054906101000a90046001600160401b031683604051806040016040528060148152602001736e6f7420656e6f7567682072656465656d696e6760601b815250613374565b8360050160106101000a8154816001600160401b0302191690836001600160401b031602179055508061026157611e9a8360050160189054906101000a90046001600160401b031683604051806040016040528060148152602001736e6f7420656e6f7567682072656465656d696e6760601b815250613374565b8360050160186101000a8154816001600160401b0302191690836001600160401b03160217905550505050565b600080611ed26117e2565b600c8101549091506101fd906001600160401b03600160901b9091048116908516615746565b600080611f036117e2565b600c8101549091506101fd90610dda90600160901b90046001600160401b031685615709565b600080600080516020615db383398151915283611f74576006870154611f599087906001600160401b03166133bf565b92506001600160401b03831615611f7457611f7487846133e8565b6000611f7e6117e2565b600f0154600160801b900461ffff16905060005b8181108015611fb25750876001600160401b0316856001600160401b0316105b156120685760006008840181611fc78c612a96565b6001600160a01b0316815260208101919091526040016000908120546001600160401b03169150819003611ffb5750612068565b6001600160401b038116600090815260078501602052604081209061203a612023898d6155df565b8354600160a01b90046001600160401b03166133bf565b90506120468382613439565b6120508189615583565b97505050508080612060906156f0565b915050611f92565b5061207284611ec7565b9250851561208457612084888561361a565b505094509492505050565b612097613665565b604051632770a7eb60e21b81526001600160a01b038481166004830152602482018490529190911690639dc29fac90604401600060405180830381600087803b1580156120e357600080fd5b505af1158015611c0b573d6000803e3d6000fd5b600260048083015460ff169081111561211257612112615557565b1461211a5750565b600061212582613683565b90506000612132836136f7565b90506000612142848360006137cd565b90506000612152858460016137cd565b90508184600001511015801561216c575080846020015110155b15610247576004850180547fff00000000000000000000ffffffffffffffffffffffffffffffffffffffff001660011790556121a785612a96565b6001600160a01b03167fe513b42585b0ceec0d56d56fe3a23861c15a2f74eb4c32c94334d63d68ff4dcf60405160405180910390a25050505050565b6000600080516020615db3833981519152816121fd6117e2565b60098301549091506001600160401b0316600081900361222357600093505050506101b0565b6001600160401b0381811660009081526007850160205260408120600d8501548154919361225c9291811691600160a01b9004166159db565b905061226888826133bf565b600d850154909650600090612286906001600160401b031688615a01565b83549091506001600160a01b031660005b8960200151811080156122dd5750816001600160a01b03168a6000015182815181106122c5576122c5615730565b6020026020010151600001516001600160a01b031614155b156122f2576122eb816156f0565b9050612297565b896020015181101561235e57828a60000151828151811061231557612315615730565b60200260200101516020015161232b9190615583565b8a5180518390811061233f5761233f615730565b6020908102919091018101516001600160401b039092169101526123ba565b6040518060400160405280836001600160a01b03168152602001846001600160401b03168152508a600001518b602001805180919061239c906156f0565b9052815181106123ae576123ae615730565b60200260200101819052505b6123c48684613439565b505050505050505092915050565b600080600080516020615db3833981519152905060008680519060200120905060006124046114618b60200151611ec7565b905061240f87613831565b935061249d6040805161022081018252600080825260208201819052918101829052606081018290526080810182905260a0810182905260c0810182905260e08101829052610100810182905261012081018290529061014082019081526000602082018190526040820181905260608083018290526080830182905260a083019190915260c09091015290565b8281526001600160801b0382166020820152600f8401546201000090046001600160401b031660608201528a516124d3906138c6565b6001600160401b0390811660a08401521660808201526124f242610297565b6001600160401b031661010082015261252e61146161250f6117e2565b600e01546001600160801b03851690600160401b900461ffff166128a6565b6001600160801b031660408201526001600160a01b038a811660e08301528b511661012082015260208b01516001600160401b031660c082015260016101408201819052508715156101608201526001600160a01b038781166101808301526001600160401b038781166101a084015261020083018b90528681166000908152600a870160209081526040918290208551815590850151918501516001600160801b03928316600160801b918416820217600183015560608601516002808401805460808a015160a08b015160c08c0151958a166001600160801b031990931692909217600160401b918a1691909102179096169587169093026001600160c01b031694909417600160c01b9186169190910217905560e08501516003820180546101008801519287166001600160e01b031990911617600160a01b929095168202949094179093556101208501516004820180546001600160a01b0319811692909616918217815561014087015187969395909491936001600160a81b031916909217919084908111156126c5576126c5615557565b021790555061016082015160048201805460ff60a81b1916600160a81b921515929092029190911790556101808201516005820180546101a08501516001600160a01b039093166001600160e01b031990911617600160a01b6001600160401b03938416021790556101c08301516006830180546101e08601519284166001600160801b031990911617600160401b929093169190910291909117905561020082015160078201906127779082615a74565b50508b5161279491506127899061150e565b8c602001518a6139d1565b61279f81868b613a75565b505050509695505050505050565b6000806127b86117e2565b600c810154600d8201549192506001600160401b03600160901b9091048116916127e791908116908616615746565b6101fd9190615746565b80546001600160a01b031633146101c75760405162461bcd60e51b81526020600482015260146024820152731bdb9b1e4818dbdb1b185d195c985b081c1bdbdb60621b60448201526064016102fb565b600080600080516020615db3833981519152905061288281600001848154811061286d5761286d615730565b90600052602060002090600402016000613b3a565b5090949350505050565b60006101fd8261289e6009600a615c17565b859190613cf9565b60006101fd8383612710613cf9565b6000806128c185613e1f565b905060006128ce86612a96565b82546040516370a0823160e01b81526001600160a01b03808416600483015292935061294792879216906370a0823190602401602060405180830381865afa15801561291e573d6000803e3d6000fd5b505050506040513d601f19601f820116820180604052508101906129429190615c23565b613e6c565b825460405163083e007560e21b81526001600160a01b0391821660048201528782166024820152604481018390529194508216906320f801d490606401600060405180830381600087803b15801561299e57600080fd5b505af11580156129b2573d6000803e3d6000fd5b5050505050509392505050565b60006001600160801b038211156103045760405162461bcd60e51b815260206004820152602760248201527f53616665436173743a2076616c756520646f65736e27742066697420696e20316044820152663238206269747360c81b60648201526084016102fb565b6005820154612a48908290600160401b90046001600160401b0316615583565b8260050160086101000a8154816001600160401b0302191690836001600160401b031602179055506101e5612a7c83612a96565b6005840154600160401b90046001600160401b0316613e7b565b7f5bebac0595fee029d42bb673937f5f1cb81cf8641382bc17774635de9b7d79651860401c90565b60018201546000906001600160a01b0390811690831681148061022a5750612ae4613ec7565b604051631f86345d60e31b81526001600160a01b038381166004830152919091169063fc31a2e890602401602060405180830381865afa158015612b2c573d6000803e3d6000fd5b505050506040513d601f19601f82011682018060405250810190612b509190615c3c565b6001600160a01b0316836001600160a01b031614949350505050565b6000806000612b796117e2565b90506000612b8686613ee5565b6002860154909150600090612bae9083908990600160c01b90046001600160401b0316613fc6565b6004870154909150600160a81b900460ff1615612c005760028601546040830151612be991600160c01b90046001600160401b03169061288c565b945060009350612bf98582613e6c565b9450612d79565b60068601546001600160401b03161515612c7681612c2f57600e850154600160501b900463ffffffff16612c42565b6018850154600160801b900463ffffffff165b63ffffffff16610eb88960020160189054906101000a90046001600160401b03166001600160401b0316866040015161288c565b95506000612c8389614083565b9050612ceb82612ca457600e860154600160701b900463ffffffff16612cb7565b6018860154600160a01b900463ffffffff165b63ffffffff16610eb88a60020160189054906101000a90046001600160401b03166001600160401b0316846040015161288c565b6002890154909650600090612d139083908c90600160c01b90046001600160401b0316613fc6565b905083881115612d69576000612d48612d2c868b61571d565b60028c0154600160c01b90046001600160401b0316908b6140fe565b9050612d5881846040015161288c565b612d629089615c59565b9750849850505b612d738782613e6c565b96505050505b5050509250929050565b600080612d8e61413b565b86546040516370a0823160e01b81526001600160a01b0391821660048201529116906370a0823190602401602060405180830381865afa158015612dd6573d6000803e3d6000fd5b505050506040513d601f19601f82011682018060405250810190612dfa9190615c23565b9050612e068482613e6c565b9150612e128383613e6c565b865460405163adf58c1560e01b81526001600160a01b038881166004830152602482018690526044820184905292955091169063adf58c1590606401600060405180830381600087803b158015612e6857600080fd5b505af1158015612e7c573d6000803e3d6000fd5b5050505050949350505050565b80156101e5576000826001600160a01b03168260405160006040518083038185875af1925050503d8060008114612edc576040519150601f19603f3d011682016040523d82523d6000602084013e612ee1565b606091505b50509050806102615760405162461bcd60e51b815260206004820152600f60248201526e1d1c985b9cd9995c8819985a5b1959608a1b60448201526064016102fb565b6000612f2e6117e2565b60098101546040519192506001600160a01b03169083156108fc029084906000818181858888f19350505050158015610261573d6000803e3d6000fd5b6001600160a01b03821660009081526001840160205260408120600285018054839190601090612faa90600160801b90046001600160401b0316615c6c565b91906101000a8154816001600160401b0302191690836001600160401b03160217905590506040518060c00160405280866001600160a01b03168152602001856001600160401b031681526020018760020160089054906101000a90046001600160401b03166001600160401b0316815260200160006001600160401b031681526020018360000160089054906101000a90046001600160401b03166001600160401b0316815260200160006001600160401b0316815250866000016000836001600160401b03166001600160401b0316815260200190815260200160002060008201518160000160006101000a8154816001600160a01b0302191690836001600160a01b0316021790555060208201518160000160146101000a8154816001600160401b0302191690836001600160401b0316021790555060408201518160010160006101000a8154816001600160401b0302191690836001600160401b0316021790555060608201518160010160086101000a8154816001600160401b0302191690836001600160401b0316021790555060808201518160010160106101000a8154816001600160401b0302191690836001600160401b0316021790555060a08201518160010160186101000a8154816001600160401b0302191690836001600160401b031602179055509050508560020160009054906101000a90046001600160401b03166001600160401b0316600003613207576002860154600160401b90046001600160401b0316156131e4576131e4615c92565b60028601805467ffffffffffffffff19166001600160401b03831617905561326f565b6002860154600160401b90046001600160401b031660000361322b5761322b615c92565b6002860154600160401b908190046001600160401b039081166000908152602089905260409020600101805467ffffffffffffffff60401b19169184169092021790555b6002860180546001600160401b03808416600160401b0267ffffffffffffffff60401b19909216919091179091558254166000036132e5578154600160401b90046001600160401b0316156132c6576132c6615c92565b815467ffffffffffffffff19166001600160401b038216178255613348565b8154600160401b90046001600160401b031660000361330657613306615c92565b81546001600160401b03600160401b909104811660009081526020889052604090206001018054918316600160c01b026001600160c01b039092169190911790555b815467ffffffffffffffff60401b1916600160401b6001600160401b0383160217909155949350505050565b6000826001600160401b0316846001600160401b0316101582906133ab5760405162461bcd60e51b81526004016102fb9190615cee565b5050506001600160401b0390811691160390565b6000816001600160401b0316836001600160401b031611156133e157816101fd565b5090919050565b600682015460408051808201909152600f81526e1b9bdd08195b9bdd59da08191d5cdd608a1b602082015260009161342d916001600160401b03909116908490613374565b90506102618382611c13565b6001600160401b0382811660009081527fec7e8c1c441439dd40959777f4c577ea0cd42fcc1dbe59d2bd0f5d9c55df8dbd602052604081208054600080516020615db38339815191529391929161349a918691600160a01b909104166155df565b9050806001600160401b03166000036134ff5781546040516001600160401b038716916001600160a01b0316907fb7f65e70a51658e24800516a5dc90e2dd65176e18381adda77f58e2044482b1990600090a36134fa60078401866141a8565b610247565b6135076117e2565b600d01546001600160401b039081169082161015613595578154600090613536906001600160a01b031661150e565b90506135428183614582565b82546040516001600160401b038816916001600160a01b0316907fb7f65e70a51658e24800516a5dc90e2dd65176e18381adda77f58e2044482b1990600090a361358f60078501876141a8565b50610247565b815467ffffffffffffffff60a01b1916600160a01b6001600160401b0383160217825560006135c382611ec7565b83546040518281529192506001600160401b038816916001600160a01b03909116907f9d2e72c50be7927e999d37329649af37a863df77bcb25361699ce021d3d7475d9060200160405180910390a3505050505050565b612a488260050160089054906101000a90046001600160401b031682604051806040016040528060118152602001701b9bdd08195b9bdd59da081b5a5b9d1959607a1b815250613374565b6000806136706117e2565b600101546001600160a01b031692915050565b6136ae6040518060800160405280600081526020016000815260200160008152602001600081525090565b6000806136bc8460006145a6565b915091506000806136ce8660016145a6565b604080516080810182529687526020870192909252908501939093525050606082015292915050565b6000806137026117e2565b600484015490915060ff16600281600481111561372157613721615557565b036137a057600060016004860154600160e81b900460ff16600281111561374a5761374a615557565b148015613786575060118301546004860154613779916001600160401b0390811691600160a81b900416615583565b6001600160401b03164211155b905080613794576002613797565b60015b95945050505050565b60038160048111156137b4576137b4615557565b036137c3575060029392505050565b5060009392505050565b6000806137da85846145f4565b905060018460028111156137f0576137f0615557565b1480613803575061380185846146a0565b155b15613819576003015463ffffffff1690506101fd565b60030154600160401b900463ffffffff1690506101fd565b6000600080516020615db38339815191528161384b614709565b600e83015461386a9190600160401b90046001600160401b0316615583565b905060008461387a57600061387d565b60015b60ff1660011961388e846001615583565b161790508083600e0160086101000a8154816001600160401b0302191690836001600160401b03160217905550809350505050919050565b600080600080516020615db3833981519152816138e16117e2565b905060006138ee86614727565b600f840154600160901b90046001600160401b031661390c42610297565b61391691906155df565b6139209190615583565b600c8301549091506000906139549063ffffffff1661394a6001600160401b0385166103e8615746565b610dda9190615709565b600d840154600f8601549192506001600160401b03600160981b90910481169161398691849162010000900416615583565b6139909190615583565b600e840154600f8601549197506001600160401b03908116916139bc918591600160501b900416615583565b6139c69190615583565b945050505050915091565b818360050160108282829054906101000a90046001600160401b03166139f79190615583565b92506101000a8154816001600160401b0302191690836001600160401b0316021790555080613a6b57818360050160188282829054906101000a90046001600160401b0316613a469190615583565b92506101000a8154816001600160401b0302191690836001600160401b031602179055505b610261838361361a565b816001600160401b03168360e001516001600160a01b03168461012001516001600160a01b03167f8cbbd73a8d1b8b02a53c4c3b0ee34b472fe3099cc19bcfb57f1aae09e8a9847e848760200151886040015189606001518a608001518b60a00151613af48c6001600160401b031667232128293320800160c11b1790565b8d6101800151633b9aca008f6101a001516001600160401b0316613b189190615746565b604051613b2d99989796959493929190615d01565b60405180910390a4505050565b600080600080600080613bd9886001018054613b559061575d565b80601f0160208091040260200160405190810160405280929190818152602001828054613b819061575d565b8015613bce5780601f10613ba357610100808354040283529160200191613bce565b820191906000526020600020905b815481529060010190602001808311613bb157829003601f168201915b5050505050886147df565b8a549295509093509150600160f01b900460ff1615613c20578754600090613c0f90600160a81b900460ff1660018387866148aa565b9650919450849350613cf292505050565b6000806000613cbb8b6002018054613c379061575d565b80601f0160208091040260200160405190810160405280929190818152602001828054613c639061575d565b8015613cb05780601f10613c8557610100808354040283529160200191613cb0565b820191906000526020600020905b815481529060010190602001808311613c9357829003601f168201915b50505050508b6147df565b8d549295509093509150600090613cdf90600160a81b900460ff1685848a896148aa565b9950949750909550613cf2945050505050565b9250925092565b6000808211613d3d5760405162461bcd60e51b815260206004820152601060248201526f4469766973696f6e206279207a65726f60801b60448201526064016102fb565b83600003613d4d575060006101fd565b83830283858281613d6057613d606155a3565b0403613d7e57828181613d7557613d756155a3565b049150506101fd565b506000613d8b8386615709565b90506000613d998487615d70565b90506000613da78587615709565b90506000613db58688615d70565b905085613dc28285615746565b613dcc9190615709565b613dd68385615746565b613de08387615746565b88613deb8689615746565b613df59190615746565b613dff9190615c59565b613e099190615c59565b613e139190615c59565b98975050505050505050565b600080600080516020615db383398151915260048401548154919250829161010090910461ffff16908110613e5657613e56615730565b9060005260206000209060040201915050919050565b60008183106133e157816101fd565b7f341c6685fdb8ed7133465b64f545b9fbc5699a59cbd1ad98992e5c070a74c5106102617f341c6685fdb8ed7133465b64f545b9fbc5699a59cbd1ad98992e5c070a74c5118484614921565b600080613ed26117e2565b600701546001600160a01b031692915050565b613f0a6040805160608101909152806000815260200160008152602001600081525090565b6000613f1583613e1f565b60408051606081019091526000815281549192509060208201906001600160a01b03166370a08231613f4687612a96565b6040516001600160e01b031960e084901b1681526001600160a01b0390911660048201526024015b602060405180830381865afa158015613f8b573d6000803e3d6000fd5b505050506040513d601f19601f82011682018060405250810190613faf9190615c23565b8152602001613fbd8361498a565b90529392505050565b600081600003613fd8575060006101fd565b6000600185516002811115613fef57613fef615557565b1461400e576005840154600160801b90046001600160401b0316614024565b6005840154600160c01b90046001600160401b03165b6001600160401b031690508083111561403f5761403f615c92565b60058401546000908290614066906001600160401b0380821691600160401b900416615c59565b6140709190615c59565b60208701519091506116ad908583613cf9565b6140a86040805160608101909152806000815260200160008152602001600081525090565b60006140b3836149a0565b60408051606081019091529091508060018152825485546040516370a0823160e01b81526001600160a01b0391821660048201526020909301929116906370a0823190602401613f6e565b60008061410c858585613cf9565b90506000838061411e5761411e6155a3565b8587099050801561413257816001016116ad565b50949350505050565b7fec7e8c1c441439dd40959777f4c577ea0cd42fcc1dbe59d2bd0f5d9c55df8dc554600080516020615db38339815191528054600092829161ffff90911690811061418857614188615730565b60009182526020909120600490910201546001600160a01b031692915050565b6001600160401b038116600090815260208390526040902080546001600160a01b03166141d7576141d7615c92565b80546001600160a01b031660009081526001808501602052604082209083015490916001600160401b03909116900361425d5760028401546001600160401b0384811691161461422957614229615c92565b6001820154600285018054600160401b9092046001600160401b031667ffffffffffffffff199092169190911790556142c5565b60028401546001600160401b039081169084160361427d5761427d615c92565b6001828101546001600160401b038082166000908152602088905260409020909201805467ffffffffffffffff60401b1916600160401b928390049093169091029190911790555b6001820154600160401b90046001600160401b031660000361433c5760028401546001600160401b03848116600160401b909204161461430757614307615c92565b600182015460028501805467ffffffffffffffff60401b19166001600160401b03909216600160401b029190911790556143a4565b60028401546001600160401b03600160401b90910481169084160361436357614363615c92565b600180830154600160401b81046001600160401b039081166000908152602088905260409020909201805467ffffffffffffffff1916929091169190911790555b6001820154600160801b90046001600160401b03166000036144095780546001600160401b038481169116146143dc576143dc615c92565b60018201548154600160c01b9091046001600160401b031667ffffffffffffffff1990911617815561446f565b80546001600160401b039081169084160361442657614426615c92565b6001828101546001600160401b03600160801b82048116600090815260208890526040902090920180546001600160c01b0316600160c01b928390049093169091029190911790555b6001820154600160c01b90046001600160401b03166000036144e25780546001600160401b03848116600160401b90920416146144ae576144ae615c92565b6001820154815467ffffffffffffffff60401b1916600160801b9091046001600160401b0316600160401b02178155614554565b80546001600160401b03600160401b90910481169084160361450657614506615c92565b6001828101546001600160401b03600160c01b820481166000908152602088905260409020909201805467ffffffffffffffff60801b1916600160801b928390049093169091029190911790555b50506001600160401b031660009081526020919091526040812080546001600160e01b031916815560010155565b60068201546101e59083906145a19084906001600160401b0316615583565b611c13565b6000806000806145b686866149d9565b9150915060006145c68388614b3c565b905060006145d48389614b3c565b9050836040015194506145e78282614bfd565b9550505050509250929050565b6000600282600281111561460a5761460a615557565b0361461757614617615c92565b600080516020615db3833981519152600083600281111561463a5761463a615557565b0361467657600484015481548291610100900461ffff1690811061466057614660615730565b90600052602060002090600402019150506101b0565b6004840154815482916301000000900461ffff1690811061466057614660615730565b5092915050565b6000808260028111156146b5576146b5615557565b036146d157506004820154600160f01b900460011615156101b0565b60018260028111156146e5576146e5615557565b146146f2576146f2615c92565b506004820154600160f01b900460021615156101b0565b60006147176103e843615d70565b614722906001615c59565b905090565b6001600160a01b03811660009081527f1309a575a1ebd5e5ca64d58e63b864f1d06aed3e31a021b0eabae653c215fb07602052604081207f1309a575a1ebd5e5ca64d58e63b864f1d06aed3e31a021b0eabae653c215fb06908261478a42610297565b835483549192506000916147aa916001600160401b039081169116615583565b90506147b68183614c0c565b835467ffffffffffffffff19166001600160401b039190911690811784556116ad9083906155df565b6000806000806147ed6117e2565b600a8101549091506001600160a01b0316851561487e5760405163e4a0a55b60e01b81526001600160a01b0382169063e4a0a55b90614830908a90600401615cee565b606060405180830381865afa15801561484d573d6000803e3d6000fd5b505050506040513d601f19601f820116820180604052508101906148719190615d84565b9450945094505050613cf2565b60405163524f388960e01b81526001600160a01b0382169063524f388990614830908a90600401615cee565b6000806148b56117e2565b9050600060096148c5878a615c59565b6148cf9190615c59565b600a8301549091506000906148ef908690600160a81b900460ff16615c59565b90508082101561490157614901615c92565b610d1461490e828461571d565b61491990600a615c17565b87908a613cf9565b6001600160a01b038216600090815260048401602052604081209061494582614c2e565b9050600061495286614c2e565b905061495f834286614cc9565b614980428361496e8785615583565b61497891906155df565b889190614cc9565b611c0b868461503a565b6000614997826000613b3a565b50909392505050565b600080600080516020615db3833981519152600484015481549192508291630100000090910461ffff16908110613e5657613e56615730565b6149fe6040805160608101909152806000815260200160008152602001600081525090565b614a236040805160608101909152806000815260200160008152602001600081525090565b6000614a2f85856145f4565b90506000614a3d8686615077565b90506000614a4a836150af565b614a55576000614ac2565b82546040516370a0823160e01b81526001600160a01b038481166004830152909116906370a0823190602401602060405180830381865afa158015614a9e573d6000803e3d6000fd5b505050506040513d601f19601f82011682018060405250810190614ac29190615c23565b9050600080614ad0856150e3565b915091506040518060600160405280896002811115614af157614af1615557565b81526020018481526020018381525096506040518060600160405280896002811115614b1f57614b1f615557565b815260200184815260200182815250955050505050509250929050565b600080600184516002811115614b5457614b54615557565b14614b73576005830154600160801b90046001600160401b0316614b89565b6005830154600160c01b90046001600160401b03165b60058401546001600160401b0391821692506000918391614bb59181811691600160401b900416615c59565b614bbf9190615c59565b905080600003614bd8576402540be400925050506101b0565b6000614be882876040015161288c565b60208701519091506116ad9061271083613cf9565b60008183116133e157816101fd565b6000816001600160401b0316836001600160401b031610156133e157816101fd565b6001810154600090600160401b90046001600160401b03168103614c5457506000919050565b60018201546001600160401b03808216600160401b9092041611614c7a57614c7a615c92565b6001828101548391600091614c9f9190600160401b90046001600160401b03166155df565b6001600160401b039081168252602082019290925260400160002054600160c01b90041692915050565b6001830154600160401b90046001600160401b0316600003614de85760018301546001600160401b031615614d0057614d00615c92565b604051806060016040528060006001600160801b03168152602001614d2484610297565b6001600160401b0390811682528381166020909201919091526001850180548692600092600160401b90920416906008614d5d83615c6c565b82546001600160401b039182166101009390930a92830292820219169190911790915590811682526020808301939093526040918201600020845181549486015195909301518216600160c01b026001600160c01b0395909216600160801b026001600160c01b03199094166001600160801b03909316929092179290921792909216179055505050565b60018301546001600160401b03808216600160401b9092041611614e0e57614e0e615c92565b60018381015460009185918391614e3491600160401b90046001600160401b03166155df565b6001600160401b03908116825260208201929092526040016000208054909250600160801b900416839003614e865780546001600160c01b0316600160c01b6001600160401b038416021781556105d6565b8054600160801b90046001600160401b03168311614ef75760405162461bcd60e51b815260206004820152602860248201527f54696d6543756d756c61746976653a2074696d657374616d70206e6f7420696e6044820152676372656173696e6760c01b60648201526084016102fb565b8054600090614f1690600160801b90046001600160401b03168561571d565b8254614f329190600160c01b90046001600160401b0316615746565b8254614f4791906001600160801b0316615c59565b90506040518060600160405280614f5d836129bf565b6001600160801b03168152602001614f7486610297565b6001600160401b0390811682528581166020909201919091526001870180548892600092600160401b90920416906008614fad83615c6c565b82546001600160401b039182166101009390930a92830292820219169190911790915590811682526020808301939093526040918201600020845181549486015195909301518216600160c01b026001600160c01b0395909216600160801b026001600160c01b03199094166001600160801b039093169290921792909217929092161790555050505050565b600382015460009061505d908490600160c01b90046001600160401b0316615192565b905061506b828260026151cd565b610261838260026151cd565b6000600182600281111561508d5761508d615557565b146150a05761509b83612a96565b6101fd565b5050546001600160a01b031690565b8054600090600160b01b90046001600160401b031615806101b05750505442600160b01b9091046001600160401b03161190565b60008060006150f06117e2565b90506000806000615102876000613b3a565b92509250925060008060006151188a6001613b3a565b60108a01549295509093509150600090859061514490600160c01b90046001600160401b031684615c59565b1015801561517157506010880154869061516e90600160c01b90046001600160401b031685615c59565b10155b9050869950806151815786615183565b835b98505050505050505050915091565b60038201546000906151b5908390600160401b90046001600160401b0316615746565b60038401546101fd91906001600160401b0316615c59565b60018301546001600160401b0380821691600160401b90041660005b83811080156152015750816151ff846001615c59565b105b801561523a575084866000615217866001615c59565b8152602081019190915260400160002054600160801b90046001600160401b0316105b1561526957600083815260208790526040812055615257836156f0565b9250615262816156f0565b90506151e9565b61527283610297565b600196909601805467ffffffffffffffff19166001600160401b03909716969096179095555050505050565b5080546152aa9061575d565b6000825580601f106152ba575050565b601f0160209004906000526020600020908101906101c791905b8082111561030457600081556001016152d4565b6001600160a01b03811681146101c757600080fd5b60006020828403121561530f57600080fd5b81356101fd816152e8565b60006020828403121561532c57600080fd5b5035919050565b6000806040838503121561534657600080fd5b82356001600160401b0381111561535c57600080fd5b83016040818603121561536e57600080fd5b946020939093013593505050565b6000806040838503121561538f57600080fd5b823561536e816152e8565b634e487b7160e01b600052604160045260246000fd5b600082601f8301126153c157600080fd5b81356001600160401b03808211156153db576153db61539a565b604051601f8301601f19908116603f011681019082821181831017156154035761540361539a565b8160405283815286602085880101111561541c57600080fd5b836020870160208301376000602085830101528094505050505092915050565b60008060006060848603121561545157600080fd5b8335925060208401356001600160401b0381111561546e57600080fd5b61547a868287016153b0565b925050604084013561548b816152e8565b809150509250925092565b600080600080600060a086880312156154ae57600080fd5b85356154b9816152e8565b945060208601356154c9816152e8565b93506040860135925060608601356001600160401b038111156154eb57600080fd5b6154f7888289016153b0565b9250506080860135615508816152e8565b809150509295509295909350565b60008060006060848603121561552b57600080fd5b8335615536816152e8565b92506020840135615546816152e8565b929592945050506040919091013590565b634e487b7160e01b600052602160045260246000fd5b634e487b7160e01b600052601160045260246000fd5b6001600160401b038181168382160190808211156146995761469961556d565b634e487b7160e01b600052601260045260246000fd5b60006001600160401b03808416806155d3576155d36155a3565b92169190910692915050565b6001600160401b038281168282160390808211156146995761469961556d565b6000823560be1983360301811261561557600080fd5b9190910192915050565b60008235601e1983360301811261561557600080fd5b6000808335601e1984360301811261564c57600080fd5b8301803591506001600160401b0382111561566657600080fd5b60200191503681900382131561567b57600080fd5b9250929050565b8183823760009101908152919050565b60008235605e1983360301811261561557600080fd5b80151581146101c757600080fd5b6000602082840312156156c857600080fd5b81356101fd816156a8565b6000602082840312156156e557600080fd5b81516101fd816156a8565b6000600182016157025761570261556d565b5060010190565b600082615718576157186155a3565b500490565b818103818111156101b0576101b061556d565b634e487b7160e01b600052603260045260246000fd5b80820281158282048414176101b0576101b061556d565b600181811c9082168061577157607f821691505b6020821081036115af57634e487b7160e01b600052602260045260246000fd5b6000823560be198336030181126157a757600080fd5b90910192915050565b80356001600160401b03811681146157c757600080fd5b919050565b6000808335601e198436030181126157e357600080fd5b83016020810192503590506001600160401b0381111561580257600080fd5b80360382131561567b57600080fd5b81835281816020850137506000828201602090810191909152601f909101601f19169091010190565b60008235605e198336030181126157a757600080fd5b6000813561585d816156a8565b1515835261586e60208301836157cc565b60606020860152615883606086018284615811565b915050604083013560408501528091505092915050565b803582526020810135602083015260006158b6604083016157b0565b6001600160401b038082166040860152806158d3606086016157b0565b16606086015250506080820135601e198336030181126158f257600080fd5b60c06080850152820161590581806157cc565b9150602060c086015261591c60e086018383615811565b91505061592c60a084018461583a565b84820360a08601526137978282615850565b6020815260008235601e1984360301811261595857600080fd5b83016020810190356001600160401b0381111561597457600080fd5b8060051b80360383131561598757600080fd5b60406020860152606085018290526001600160fb1b038211156159a957600080fd5b80836080870137840191506159c390506020850185615791565b6060848303016040850152613797608083018261589a565b60006001600160401b03808416806159f5576159f56155a3565b92169190910492915050565b6001600160401b03818116838216028082169190828114615a2457615a2461556d565b505092915050565b601f821115610261576000816000526020600020601f850160051c81016020861015615a555750805b601f850160051c820191505b81811015611c0b57828155600101615a61565b81516001600160401b03811115615a8d57615a8d61539a565b615aa181615a9b845461575d565b84615a2c565b602080601f831160018114615ad65760008415615abe5750858301515b600019600386901b1c1916600185901b178555611c0b565b600085815260208120601f198616915b82811015615b0557888601518255948401946001909101908401615ae6565b5085821015615b235787850151600019600388901b60f8161c191681555b5050505050600190811b01905550565b600181815b80851115615b6e578160001904821115615b5457615b5461556d565b80851615615b6157918102915b93841c9390800290615b38565b509250929050565b600082615b85575060016101b0565b81615b92575060006101b0565b8160018114615ba85760028114615bb257615bce565b60019150506101b0565b60ff841115615bc357615bc361556d565b50506001821b6101b0565b5060208310610133831016604e8410600b8410161715615bf1575081810a6101b0565b615bfb8383615b33565b8060001904821115615c0f57615c0f61556d565b029392505050565b60006101fd8383615b76565b600060208284031215615c3557600080fd5b5051919050565b600060208284031215615c4e57600080fd5b81516101fd816152e8565b808201808211156101b0576101b061556d565b60006001600160401b03808316818103615c8857615c8861556d565b6001019392505050565b634e487b7160e01b600052600160045260246000fd5b6000815180845260005b81811015615cce57602081850181015186830182015201615cb2565b506000602082860101526020601f19601f83011685010191505092915050565b6020815260006101fd6020830184615ca8565b6000610120808352615d158184018d615ca8565b6001600160801b039b8c16602085015299909a166040830152506001600160401b03968716606082015294861660808601529290941660a084015260c08301526001600160a01b0390921660e0820152610100015292915050565b600082615d7f57615d7f6155a3565b500690565b600080600060608486031215615d9957600080fd5b835192506020840151915060408401519050925092509256feec7e8c1c441439dd40959777f4c577ea0cd42fcc1dbe59d2bd0f5d9c55df8db6a264697066735822122082ba9b4a4e340705547e778eba5827cf4ce9e6da49d2b3307af73d9d3be2663b64736f6c63430008170033",
  "linkReferences": {},
  "deployedLinkReferences": {}
}