{
  "_format": "hh-sol-artifact-1",
  "contractName": "AvailableAgentsFacet",
  "sourceName": "contracts/assetManager/facets/AvailableAgentsFacet.sol",
  "abi": [
    {
      "anonymous": false,
      "inputs": [
        {
          "indexed": true,
          "internalType": "address",
          "name": "agentVault",
          "type": "address"
        },
        {
          "indexed": false,
          "internalType": "uint256",
          "name": "feeBIPS",
          "type": "uint256"
        },
        {
          "indexed": false,
          "internalType": "uint256",
          "name": "mintingVaultCollateralRatioBIPS",
          "type": "uint256"
        },
        {
          "indexed": false,
          "internalType": "uint256",
          "name": "mintingPoolCollateralRatioBIPS",
          "type": "uint256"
        },
        {
          "indexed": false,
          "internalType": "uint256",
          "name": "freeCollateralLots",
          "type": "uint256"
        }
      ],
      "name": "AgentAvailable",
      "type": "event"
    },
    {
      "anonymous": false,
      "inputs": [
        {
          "indexed": true,
          "internalType": "address",
          "name": "agentVault",
          "type": "address"
        },
        {
          "indexed": false,
          "internalType": "uint256",
          "name": "exitAllowedAt",
          "type": "uint256"
        }
      ],
      "name": "AvailableAgentExitAnnounced",
      "type": "event"
    },
    {
      "anonymous": false,
      "inputs": [
        {
          "indexed": true,
          "internalType": "address",
          "name": "agentVault",
          "type": "address"
        }
      ],
      "name": "AvailableAgentExited",
      "type": "event"
    },
    {
      "inputs": [
        {
          "internalType": "address",
          "name": "_agentVault",
          "type": "address"
        }
      ],
      "name": "announceExitAvailableAgentList",
      "outputs": [
        {
          "internalType": "uint256",
          "name": "_exitAllowedAt",
          "type": "uint256"
        }
      ],
      "stateMutability": "nonpayable",
      "type": "function"
    },
    {
      "inputs": [
        {
          "internalType": "address",
          "name": "_agentVault",
          "type": "address"
        }
      ],
      "name": "exitAvailableAgentList",
      "outputs": [],
      "stateMutability": "nonpayable",
      "type": "function"
    },
    {
      "inputs": [
        {
          "internalType": "uint256",
          "name": "_start",
          "type": "uint256"
        },
        {
          "internalType": "uint256",
          "name": "_end",
          "type": "uint256"
        }
      ],
      "name": "getAvailableAgentsDetailedList",
      "outputs": [
        {
          "components": [
            {
              "internalType": "address",
              "name": "agentVault",
              "type": "address"
            },
            {
              "internalType": "address",
              "name": "ownerManagementAddress",
              "type": "address"
            },
            {
              "internalType": "uint256",
              "name": "feeBIPS",
              "type": "uint256"
            },
            {
              "internalType": "uint256",
              "name": "mintingVaultCollateralRatioBIPS",
              "type": "uint256"
            },
            {
              "internalType": "uint256",
              "name": "mintingPoolCollateralRatioBIPS",
              "type": "uint256"
            },
            {
              "internalType": "uint256",
              "name": "freeCollateralLots",
              "type": "uint256"
            },
            {
              "internalType": "enum AgentInfo.Status",
              "name": "status",
              "type": "uint8"
            }
          ],
          "internalType": "struct AvailableAgentInfo.Data[]",
          "name": "_agents",
          "type": "tuple[]"
        },
        {
          "internalType": "uint256",
          "name": "_totalLength",
          "type": "uint256"
        }
      ],
      "stateMutability": "view",
      "type": "function"
    },
    {
      "inputs": [
        {
          "internalType": "uint256",
          "name": "_start",
          "type": "uint256"
        },
        {
          "internalType": "uint256",
          "name": "_end",
          "type": "uint256"
        }
      ],
      "name": "getAvailableAgentsList",
      "outputs": [
        {
          "internalType": "address[]",
          "name": "_agents",
          "type": "address[]"
        },
        {
          "internalType": "uint256",
          "name": "_totalLength",
          "type": "uint256"
        }
      ],
      "stateMutability": "view",
      "type": "function"
    },
    {
      "inputs": [
        {
          "internalType": "address",
          "name": "_agentVault",
          "type": "address"
        }
      ],
      "name": "makeAgentAvailable",
      "outputs": [],
      "stateMutability": "nonpayable",
      "type": "function"
    }
  ],
  "bytecode": "0x608060405234801561001057600080fd5b5061214a806100206000396000f3fe608060405234801561001057600080fd5b50600436106100575760003560e01c8063042039301461005c5780633851b61414610071578063612007e5146100975780638003314d146100aa578063e415339c146100cb575b600080fd5b61006f61006a366004611c4f565b6100ec565b005b61008461007f366004611c4f565b6100f8565b6040519081526020015b60405180910390f35b61006f6100a5366004611c4f565b610109565b6100bd6100b8366004611c6c565b610112565b60405161008e929190611ca4565b6100de6100d9366004611c6c565b61012c565b60405161008e929190611d5a565b6100f58161013a565b50565b6000610103826104ae565b92915050565b6100f5816105ee565b606060006101208484610814565b915091505b9250929050565b6060600061012084846109fb565b8061014481610b03565b6000805160206120f58339815191526000805160206120b5833981519152600061016d85610b5a565b6004810154909150600160281b900463ffffffff166000036101cc5760405162461bcd60e51b81526020600482015260136024820152726167656e74206e6f7420617661696c61626c6560681b60448201526064015b60405180910390fd5b600a810154600160901b90046001600160401b03166000036102255760405162461bcd60e51b8152602060048201526012602482015271195e1a5d081b9bdd08185b9b9bdd5b98d95960721b60448201526064016101c3565b600a810154600160901b90046001600160401b03164210156102795760405162461bcd60e51b815260206004820152600d60248201526c32bc34ba103a37b79039b7b7b760991b60448201526064016101c3565b6013820154600a8201546102a7916001600160401b03600160c01b909104811691600160901b900416611dc6565b6001600160401b03164211156102ef5760405162461bcd60e51b815260206004820152600d60248201526c6578697420746f6f206c61746560981b60448201526064016101c3565b600481015460009061031090600190600160281b900463ffffffff16611ded565b600485015463ffffffff91909116915061032b826001611e0a565b10156104145760048401805461034390600190611e1d565b8154811061035357610353611e30565b6000918252602090912001546004850180546001600160a01b03909216918390811061038157610381611e30565b9060005260206000200160006101000a8154816001600160a01b0302191690836001600160a01b0316021790555060006103e38560040183815481106103c9576103c9611e30565b6000918252602090912001546001600160a01b0316610b5a565b90506103f0826001611e0a565b8160040160056101000a81548163ffffffff021916908363ffffffff160217905550505b6004808301805468ffffffff000000000019169055840180548061043a5761043a611e46565b600082815260208120820160001990810180546001600160a01b0319169055909101909155600a8301805467ffffffffffffffff60901b191690556040516001600160a01b038816917fc8a2aa2579bcc813e260278486f5bcff68db3ff1875f2b26f1d8e5ea4b5172c491a2505050505050565b6000816104ba81610b03565b60006104c584610b5a565b6004810154909150600160281b900463ffffffff1660000361051f5760405162461bcd60e51b81526020600482015260136024820152726167656e74206e6f7420617661696c61626c6560681b60448201526064016101c3565b600a8101546000805160206120b583398151915290600160901b90046001600160401b031660008190036105e357601282015461056c90600160a01b90046001600160401b031642611e0a565b905061057781610be4565b83600a0160126101000a8154816001600160401b0302191690836001600160401b03160217905550856001600160a01b03167f884230266c6af6bbe3f468b90afda0d08f7602e4b4f51712a164da396ff6fedd826040516105da91815260200190565b60405180910390a25b935050505b50919050565b806105f881610b03565b6000805160206120f5833981519152600061061284610b5a565b9050600160048083015460ff169081111561062f5761062f611c8e565b146106735760405162461bcd60e51b8152602060048201526014602482015273696e76616c6964206167656e742073746174757360601b60448201526064016101c3565b6004810154600160281b900463ffffffff16156106d25760405162461bcd60e51b815260206004820152601760248201527f6167656e7420616c726561647920617661696c61626c6500000000000000000060448201526064016101c3565b60006106dd82610c50565b905060006106eb8284610cf2565b9050600181101561073e5760405162461bcd60e51b815260206004820152601a60248201527f6e6f7420656e6f756768206672656520636f6c6c61746572616c00000000000060448201526064016101c3565b6004840180546001810182556000828152602090200180546001600160a01b0319166001600160a01b0389161790555461077790610d46565b60048401805468ffffffff00000000001916600160281b63ffffffff93841602179081905560408051600160481b830461ffff168152600160681b830484166020820152600160881b90920490921691810191909152606081018290526001600160a01b038716907f26d52c0d0fb1f56df34a0827f71dc5a67598c0c4dc5948f6eb45950efa3fece19060800160405180910390a2505050505050565b7fec7e8c1c441439dd40959777f4c577ea0cd42fcc1dbe59d2bd0f5d9c55df8dba546060906000805160206120f58339815191526108528483610dab565b935061085e8585610dab565b945061086a8585611e1d565b6001600160401b0381111561088157610881611e5c565b6040519080825280602002602001820160405280156108ba57816020015b6108a7611bdb565b81526020019060019003908161089f5790505b509250845b848110156109f25760008260040182815481106108de576108de611e30565b60009182526020822001546001600160a01b038116925060401b600160401b600160e01b03166000805160206120d5833981519152189050600061092182610c50565b90506000610930836000610dc3565b5090506000610940846001610dc3565b506040805160e0810182526001600160a01b03888116825260018801541660208201526004870154600160481b900461ffff1691810191909152606081018490526080810182905290915060a081016109998587610cf2565b81526020016109a786610ec9565b60048111156109b8576109b8611c8e565b9052896109c58d89611e1d565b815181106109d5576109d5611e30565b6020026020010181905250505050505080806001019150506108bf565b50509250929050565b7fec7e8c1c441439dd40959777f4c577ea0cd42fcc1dbe59d2bd0f5d9c55df8dba546060906000805160206120f5833981519152610a398483610dab565b9350610a458585610dab565b9450610a518585611e1d565b6001600160401b03811115610a6857610a68611e5c565b604051908082528060200260200182016040528015610a91578160200160208202803683370190505b509250845b848110156109f257816004018181548110610ab357610ab3611e30565b6000918252602090912001546001600160a01b031684610ad38884611e1d565b81518110610ae357610ae3611e30565b6001600160a01b0390921660209283029190910190910152600101610a96565b610b15610b0f82610b5a565b33610f93565b6100f55760405162461bcd60e51b815260206004820152601660248201527537b7363c9030b3b2b73a103b30bab63a1037bbb732b960511b60448201526064016101c3565b6000805160206120d5833981519152600160401b600160e01b03604083901b161880600060048084015460ff1690811115610b9757610b97611c8e565b036105e85760405162461bcd60e51b815260206004820152601b60248201527f696e76616c6964206167656e74207661756c742061646472657373000000000060448201526064016101c3565b60006001600160401b03821115610c4c5760405162461bcd60e51b815260206004820152602660248201527f53616665436173743a2076616c756520646f65736e27742066697420696e203660448201526534206269747360d01b60648201526084016101c3565b5090565b6040805160c081018252600060608083018281526080840183905260a0840183905283528351808201855282815260208082018490528186018490528085019190915284519182018552828252810182905280840191909152610cb39282015290565b6000610cbe83611064565b90506040518060600160405280610cd48561112a565b8152602001828152602001610ce985846111b5565b90529392505050565b600080610d0384600001518461138c565b90506000610d1585602001518561138c565b90506000610d2786604001518661138c565b9050610d3c83610d378484610dab565b610dab565b9695505050505050565b600063ffffffff821115610c4c5760405162461bcd60e51b815260206004820152602660248201527f53616665436173743a2076616c756520646f65736e27742066697420696e203360448201526532206269747360d01b60648201526084016101c3565b6000818310610dba5781610dbc565b825b9392505050565b6000806002836002811115610dda57610dda611c8e565b03610e4257600080610ded866001610dc3565b915091506000610e086000805160206120b583398151915290565b600c015463ffffffff64010000000090910481169150610e2c90829084906113cb16565b9350610e3881846113cb565b9450505050610125565b6001836002811115610e5657610e56611c8e565b03610e9157610e64846113da565b60030154600485015463ffffffff9182169250610e8a91600160881b9091041682611429565b9150610125565b610e9a84611438565b60030154600485015463ffffffff9182169250610ec091600160681b9091041682611429565b91509250929050565b600481015460009060ff166001816004811115610ee857610ee8611c8e565b03610ef65750600092915050565b6002816004811115610f0a57610f0a611c8e565b03610f47576000610f1a8461146f565b90506001816002811115610f3057610f30611c8e565b14610f3c576002610f3f565b60015b949350505050565b6003816004811115610f5b57610f5b611c8e565b03610f695750600392915050565b6004816004811115610f7d57610f7d611c8e565b14610f8a57610f8a611e72565b50600492915050565b60018201546000906001600160a01b03908116908316811480610f3f57507f4f24f5c433db0962dac0d2c8b84197a6e6c7cc4e5d9ebe1916a1b6193da2f341546001600160a01b0316604051631f86345d60e31b81526001600160a01b038381166004830152919091169063fc31a2e890602401602060405180830381865afa158015611024573d6000803e3d6000fd5b505050506040513d601f19601f820116820180604052508101906110489190611e88565b6001600160a01b0316836001600160a01b031614949350505050565b6110896040805160608101909152806000815260200160008152602001600081525090565b6000611094836113da565b60408051606081019091529091508060018152825485546040516370a0823160e01b81526001600160a01b0391821660048201526020909301929116906370a08231906024015b602060405180830381865afa1580156110f8573d6000803e3d6000fd5b505050506040513d601f19601f8201168201806040525081019061111c9190611ea5565b8152602001610ce98361154b565b61114f6040805160608101909152806000815260200160008152602001600081525090565b600061115a83611438565b6040805160608101825260008152825482516370a0823160e01b81526000805160206120d5833981519152881890931c6001600160a01b039081166004850152939450909260208401929116906370a08231906024016110db565b6111da6040805160608101909152806000815260200160008152602001600081525090565b8254604080516332f7ce0b60e21b815290516000926001600160a01b03169163cbdf382c9160048083019260209291908290030181865afa158015611223573d6000803e3d6000fd5b505050506040513d601f19601f820116820180604052508101906112479190611e88565b905060006001600160a01b0382166370a082316000805160206120d5833981519152871860401c6040516001600160e01b031960e084901b1681526001600160a01b039091166004820152602401602060405180830381865afa1580156112b2573d6000803e3d6000fd5b505050506040513d601f19601f820116820180604052508101906112d69190611ea5565b90506000826001600160a01b03166318160ddd6040518163ffffffff1660e01b8152600401602060405180830381865afa158015611318573d6000803e3d6000fd5b505050506040513d601f19601f8201168201806040525081019061133c9190611ea5565b905060008560200151600003611353576000611368565b60208601516040870151611368918490611561565b60408051606081018252600281526020810195909552840152509095945050505050565b6000806113998484611687565b905060006113a785856116a4565b9050806000036113b85760006113c2565b6113c28183611ed4565b95945050505050565b6000610dbc8383612710611561565b6000806000805160206120f5833981519152600484015481549192508291630100000090910461ffff1690811061141357611413611e30565b9060005260206000209060040201915050919050565b6000818311610dba5781610dbc565b6000806000805160206120f583398151915260048401548154919250829161010090910461ffff1690811061141357611413611e30565b6000806000805160206120b5833981519152600484015490915060ff1660028160048111156114a0576114a0611c8e565b0361151e57600060016004860154600160e81b900460ff1660028111156114c9576114c9611c8e565b1480156115055750601183015460048601546114f8916001600160401b0390811691600160a81b900416611dc6565b6001600160401b03164211155b9050806115135760026113c2565b600195945050505050565b600381600481111561153257611532611c8e565b03611541575060029392505050565b5060009392505050565b60006115588260006116f7565b50909392505050565b60008082116115a55760405162461bcd60e51b815260206004820152601060248201526f4469766973696f6e206279207a65726f60801b60448201526064016101c3565b836000036115b557506000610dbc565b838302838582816115c8576115c8611ebe565b04036115e6578281816115dd576115dd611ebe565b04915050610dbc565b5060006115f38386611ed4565b905060006116018487611ee8565b9050600061160f8587611ed4565b9050600061161d8688611ee8565b90508561162a8285611efc565b6116349190611ed4565b61163e8385611efc565b6116488387611efc565b886116538689611efc565b61165d9190611efc565b6116679190611e0a565b6116719190611e0a565b61167b9190611e0a565b98975050505050505050565b60008061169484846118b6565b9050610f3f8460200151826119e5565b6000806000805160206120b5833981519152905060006116c8848660000151610dc3565b50600d83015460408701519192506113c29183916116f1916001600160401b03909116906119ff565b906113cb565b60008060008060008061179688600101805461171290611f13565b80601f016020809104026020016040519081016040528092919081815260200182805461173e90611f13565b801561178b5780601f106117605761010080835404028352916020019161178b565b820191906000526020600020905b81548152906001019060200180831161176e57829003601f168201915b505050505088611a19565b8a549295509093509150600160f01b900460ff16156117dd5787546000906117cc90600160a81b900460ff166001838786611b07565b96509194508493506118af92505050565b60008060006118788b60020180546117f490611f13565b80601f016020809104026020016040519081016040528092919081815260200182805461182090611f13565b801561186d5780601f106118425761010080835404028352916020019161186d565b820191906000526020600020905b81548152906001019060200180831161185057829003601f168201915b50505050508b611a19565b8d54929550909350915060009061189c90600160a81b900460ff1685848a89611b07565b99509497509095506118af945050505050565b9250925092565b60008060006118c9848660000151610dc3565b600586015491935091506000906118f7906001600160401b0368010000000000000000820481169116611e0a565b9050600061190d846116f1848a604001516119ff565b9050600060018851600281111561192657611926611c8e565b14611945576005870154600160801b90046001600160401b031661195b565b6005870154600160c01b90046001600160401b03165b9050600061197a856116f1846001600160401b03168c604001516119ff565b9050600060018a51600281111561199357611993611c8e565b0361199f5760006119b7565b89516119ac908a90611b8e565b546001600160801b03165b6001600160801b03169050806119cd8386611e0a565b6119d79190611e0a565b9a9950505050505050505050565b60008183116119f5576000610dbc565b610dbc8284611e1d565b6000610dbc82611a116009600a61202b565b859190611561565b7f4f24f5c433db0962dac0d2c8b84197a6e6c7cc4e5d9ebe1916a1b6193da2f34454600090819081906000805160206120b5833981519152906001600160a01b03168515611adb5760405163e4a0a55b60e01b81526001600160a01b0382169063e4a0a55b90611a8d908a90600401612037565b606060405180830381865afa158015611aaa573d6000803e3d6000fd5b505050506040513d601f19601f82011682018060405250810190611ace9190612086565b94509450945050506118af565b60405163524f388960e01b81526001600160a01b0382169063524f388990611a8d908a90600401612037565b60006000805160206120b5833981519152816009611b25878a611e0a565b611b2f9190611e0a565b600a830154909150600090611b4f908690600160a81b900460ff16611e0a565b905080821015611b6157611b61611e72565b611b81611b6e8284611e1d565b611b7990600a61202b565b87908a611561565b9998505050505050505050565b60006001826002811115611ba457611ba4611c8e565b03611bb157611bb1611e72565b6000826002811115611bc557611bc5611c8e565b14611bd35782600901610dbc565b505060080190565b6040518060e0016040528060006001600160a01b0316815260200160006001600160a01b031681526020016000815260200160008152602001600081526020016000815260200160006004811115611c3557611c35611c8e565b905290565b6001600160a01b03811681146100f557600080fd5b600060208284031215611c6157600080fd5b8135610dbc81611c3a565b60008060408385031215611c7f57600080fd5b50508035926020909101359150565b634e487b7160e01b600052602160045260246000fd5b604080825283518282018190526000919060609081850190602080890186805b84811015611d4257825180516001600160a01b039081168852858201511685880152888101518988015287810151888801526080808201519088015260a0808201519088015260c0908101519060058210611d2d57634e487b7160e01b84526021600452602484fd5b87015260e09095019491830191600101611cc4565b50505050508093505050508260208301529392505050565b604080825283519082018190526000906020906060840190828701845b82811015611d9c5781516001600160a01b031684529284019290840190600101611d77565b505050602093909301939093525092915050565b634e487b7160e01b600052601160045260246000fd5b6001600160401b03818116838216019080821115611de657611de6611db0565b5092915050565b63ffffffff828116828216039080821115611de657611de6611db0565b8082018082111561010357610103611db0565b8181038181111561010357610103611db0565b634e487b7160e01b600052603260045260246000fd5b634e487b7160e01b600052603160045260246000fd5b634e487b7160e01b600052604160045260246000fd5b634e487b7160e01b600052600160045260246000fd5b600060208284031215611e9a57600080fd5b8151610dbc81611c3a565b600060208284031215611eb757600080fd5b5051919050565b634e487b7160e01b600052601260045260246000fd5b600082611ee357611ee3611ebe565b500490565b600082611ef757611ef7611ebe565b500690565b808202811582820484141761010357610103611db0565b600181811c90821680611f2757607f821691505b6020821081036105e857634e487b7160e01b600052602260045260246000fd5b600181815b80851115611f82578160001904821115611f6857611f68611db0565b80851615611f7557918102915b93841c9390800290611f4c565b509250929050565b600082611f9957506001610103565b81611fa657506000610103565b8160018114611fbc5760028114611fc657611fe2565b6001915050610103565b60ff841115611fd757611fd7611db0565b50506001821b610103565b5060208310610133831016604e8410600b8410161715612005575081810a610103565b61200f8383611f47565b806000190482111561202357612023611db0565b029392505050565b6000610dbc8383611f8a565b60006020808352835180602085015260005b8181101561206557858101830151858201604001528201612049565b506000604082860101526040601f19601f8301168501019250505092915050565b60008060006060848603121561209b57600080fd5b835192506020840151915060408401519050925092509256fe4f24f5c433db0962dac0d2c8b84197a6e6c7cc4e5d9ebe1916a1b6193da2f33a5bebac0595fee029d42bb673937f5f1cb81cf8641382bc17774635de9b7d7965ec7e8c1c441439dd40959777f4c577ea0cd42fcc1dbe59d2bd0f5d9c55df8db6a2646970667358221220658a7f5d48a77832a939e39e3031b184837df0fdf6fa8e9e3ee6888cb759c15664736f6c63430008170033",
  "linkReferences": {},
  "deployedLinkReferences": {}
}