{
  "_format": "hh-sol-artifact-1",
  "contractName": "AvailableAgents",
  "sourceName": "contracts/fasset/library/AvailableAgents.sol",
  "abi": [
    {
      "anonymous": false,
      "inputs": [
        {
          "indexed": true,
          "internalType": "address",
          "name": "agentVault",
          "type": "address"
        },
        {
          "indexed": false,
          "internalType": "uint256",
          "name": "feeBIPS",
          "type": "uint256"
        },
        {
          "indexed": false,
          "internalType": "uint256",
          "name": "mintingClass1CollateralRatioBIPS",
          "type": "uint256"
        },
        {
          "indexed": false,
          "internalType": "uint256",
          "name": "mintingPoolCollateralRatioBIPS",
          "type": "uint256"
        },
        {
          "indexed": false,
          "internalType": "uint256",
          "name": "freeCollateralLots",
          "type": "uint256"
        }
      ],
      "name": "AgentAvailable",
      "type": "event"
    },
    {
      "anonymous": false,
      "inputs": [
        {
          "indexed": true,
          "internalType": "address",
          "name": "agentVault",
          "type": "address"
        },
        {
          "indexed": false,
          "internalType": "uint256",
          "name": "exitAllowedAt",
          "type": "uint256"
        }
      ],
      "name": "AvailableAgentExitAnnounced",
      "type": "event"
    },
    {
      "anonymous": false,
      "inputs": [
        {
          "indexed": true,
          "internalType": "address",
          "name": "agentVault",
          "type": "address"
        }
      ],
      "name": "AvailableAgentExited",
      "type": "event"
    },
    {
      "inputs": [
        {
          "internalType": "uint256",
          "name": "_start",
          "type": "uint256"
        },
        {
          "internalType": "uint256",
          "name": "_end",
          "type": "uint256"
        }
      ],
      "name": "getList",
      "outputs": [
        {
          "internalType": "address[]",
          "name": "_agents",
          "type": "address[]"
        },
        {
          "internalType": "uint256",
          "name": "_totalLength",
          "type": "uint256"
        }
      ],
      "stateMutability": "view",
      "type": "function"
    },
    {
      "inputs": [
        {
          "internalType": "uint256",
          "name": "_start",
          "type": "uint256"
        },
        {
          "internalType": "uint256",
          "name": "_end",
          "type": "uint256"
        }
      ],
      "name": "getListWithInfo",
      "outputs": [
        {
          "components": [
            {
              "internalType": "address",
              "name": "agentVault",
              "type": "address"
            },
            {
              "internalType": "uint256",
              "name": "feeBIPS",
              "type": "uint256"
            },
            {
              "internalType": "uint256",
              "name": "mintingClass1CollateralRatioBIPS",
              "type": "uint256"
            },
            {
              "internalType": "uint256",
              "name": "mintingPoolCollateralRatioBIPS",
              "type": "uint256"
            },
            {
              "internalType": "uint256",
              "name": "freeCollateralLots",
              "type": "uint256"
            }
          ],
          "internalType": "struct AvailableAgentInfo.Data[]",
          "name": "_agents",
          "type": "tuple[]"
        },
        {
          "internalType": "uint256",
          "name": "_totalLength",
          "type": "uint256"
        }
      ],
      "stateMutability": "view",
      "type": "function"
    }
  ],
  "bytecode": "0x611eab61003a600b82828239805160001a60731461002d57634e487b7160e01b600052600060045260246000fd5b30600052607381538281f3fe73000000000000000000000000000000000000000030146080604052600436106100615760003560e01c8063825378af14610066578063877cd81014610090578063a9816b08146100b2578063b42652e9146100d3578063fdf6b375146100f3575b600080fd5b610079610074366004611a00565b610113565b604051610087929190611a22565b60405180910390f35b81801561009c57600080fd5b506100b06100ab366004611ab5565b610305565b005b6100c56100c0366004611a00565b610530565b604051610087929190611ad2565b8180156100df57600080fd5b506100b06100ee366004611ab5565b610642565b8180156100ff57600080fd5b506100b061010e366004611ab5565b61092c565b7fec7e8c1c441439dd40959777f4c577ea0cd42fcc1dbe59d2bd0f5d9c55df8dce54606090600080516020611e568339815191526101518483610a67565b935061015d8585610a67565b94506101698585611b39565b6001600160401b0381111561018057610180611b4c565b6040519080825280602002602001820160405280156101ec57816020015b6101d96040518060a0016040528060006001600160a01b03168152602001600081526020016000815260200160008152602001600081525090565b81526020019060019003908161019e5790505b509250845b848110156102fc57600082601801828154811061021057610210611b62565b60009182526020822001546001600160a01b038116925060401b600160401b600160e01b0316600080516020611e36833981519152189050600061025382610a81565b90506000610262836000610b2b565b5090506000610272846001610b2b565b506040805160a0810182526001600160a01b03881681526004870154600160481b900461ffff16602082015290810184905260608101829052909150608081016102bc8587610c31565b9052896102c98d89611b39565b815181106102d9576102d9611b62565b6020026020010181905250505050505080806102f490611b78565b9150506101f1565b50509250929050565b8061030f81610c85565b600080516020611e56833981519152600061032984610cdf565b9050600160048083015460ff169081111561034657610346611b91565b1461038f5760405162461bcd60e51b8152602060048201526014602482015273696e76616c6964206167656e742073746174757360601b60448201526064015b60405180910390fd5b6004810154600160281b900463ffffffff16156103ee5760405162461bcd60e51b815260206004820152601760248201527f6167656e7420616c726561647920617661696c61626c650000000000000000006044820152606401610386565b60006103f982610a81565b905060006104078284610c31565b9050600181101561045a5760405162461bcd60e51b815260206004820152601a60248201527f6e6f7420656e6f756768206672656520636f6c6c61746572616c0000000000006044820152606401610386565b6018840180546001810182556000828152602090200180546001600160a01b0319166001600160a01b0389161790555461049390610d6f565b60048401805468ffffffff00000000001916600160281b63ffffffff93841602179081905560408051600160481b830461ffff168152600160681b830484166020820152600160881b90920490921691810191909152606081018290526001600160a01b038716907f26d52c0d0fb1f56df34a0827f71dc5a67598c0c4dc5948f6eb45950efa3fece19060800160405180910390a2505050505050565b7fec7e8c1c441439dd40959777f4c577ea0cd42fcc1dbe59d2bd0f5d9c55df8dce54606090600080516020611e5683398151915261056e8483610a67565b935061057a8585610a67565b94506105868585611b39565b6001600160401b0381111561059d5761059d611b4c565b6040519080825280602002602001820160405280156105c6578160200160208202803683370190505b509250845b848110156102fc578160180181815481106105e8576105e8611b62565b6000918252602090912001546001600160a01b0316846106088884611b39565b8151811061061857610618611b62565b6001600160a01b03909216602092830291909101909101528061063a81611b78565b9150506105cb565b8061064c81610c85565b600080516020611e56833981519152600061066684610cdf565b6004810154909150600160281b900463ffffffff166000036106c05760405162461bcd60e51b81526020600482015260136024820152726167656e74206e6f7420617661696c61626c6560681b6044820152606401610386565b600a810154600160901b90046001600160401b03166000036107195760405162461bcd60e51b8152602060048201526012602482015271195e1a5d081b9bdd08185b9b9bdd5b98d95960721b6044820152606401610386565b600a810154600160901b90046001600160401b031642101561076d5760405162461bcd60e51b815260206004820152600d60248201526c32bc34ba103a37b79039b7b7b760991b6044820152606401610386565b600481015460009061078e90600190600160281b900463ffffffff16611ba7565b601884015463ffffffff9190911691506107a9826001611bcb565b1015610892576018830180546107c190600190611b39565b815481106107d1576107d1611b62565b6000918252602090912001546018840180546001600160a01b0390921691839081106107ff576107ff611b62565b9060005260206000200160006101000a8154816001600160a01b0302191690836001600160a01b03160217905550600061086184601801838154811061084757610847611b62565b6000918252602090912001546001600160a01b0316610cdf565b905061086e826001611bcb565b8160040160056101000a81548163ffffffff021916908363ffffffff160217905550505b60048201805468ffffffff000000000019169055601883018054806108b9576108b9611bde565b600082815260208120820160001990810180546001600160a01b0319169055909101909155600a8301805467ffffffffffffffff60901b191690556040516001600160a01b038716917fc8a2aa2579bcc813e260278486f5bcff68db3ff1875f2b26f1d8e5ea4b5172c491a25050505050565b8061093681610c85565b600061094183610cdf565b6004810154909150600160281b900463ffffffff1660000361099b5760405162461bcd60e51b81526020600482015260136024820152726167656e74206e6f7420617661696c61626c6560681b6044820152606401610386565b7fec7e8c1c441439dd40959777f4c577ea0cd42fcc1dbe59d2bd0f5d9c55df8dc754600080516020611e56833981519152906000906109ea90600160601b90046001600160401b031642611bcb565b90506109f581610dd8565b83600a0160126101000a8154816001600160401b0302191690836001600160401b03160217905550846001600160a01b03167f884230266c6af6bbe3f468b90afda0d08f7602e4b4f51712a164da396ff6fedd82604051610a5891815260200190565b60405180910390a25050505050565b6000818310610a765781610a78565b825b90505b92915050565b610aec6040805160c081019091526000606082018181526080830182905260a083019190915281908152604080516060810182526000808252602082810182905292820152910190815260408051606081018252600080825260208281018290529282015291015290565b6000610af783610e40565b90506040518060600160405280610b0d85610f06565b8152602001828152602001610b228584610f91565b90529392505050565b6000806002836002811115610b4257610b42611b91565b03610ba957600080610b55866001610b2b565b915091506000610b70600080516020611e5683398151915290565b6009015463ffffffff600160b01b90910481169150610b93908290849061116816565b9350610b9f8184611168565b9450505050610c2a565b6001836002811115610bbd57610bbd611b91565b03610bf857610bcb84611177565b60030154600485015463ffffffff9182169250610bf191600160881b90910416826111e4565b9150610c2a565b610c01846111f3565b60030154600485015463ffffffff9182169250610c2791600160681b90910416826111e4565b91505b9250929050565b600080610c42846000015184611248565b90506000610c54856020015185611248565b90506000610c66866040015186611248565b9050610c7b83610c768484610a67565b610a67565b9695505050505050565b610c97610c9182610cdf565b33611287565b610cdc5760405162461bcd60e51b815260206004820152601660248201527537b7363c9030b3b2b73a103b30bab63a1037bbb732b960511b6044820152606401610386565b50565b600080516020611e36833981519152600160401b600160e01b03604083901b161880600060048084015460ff1690811115610d1c57610d1c611b91565b03610d695760405162461bcd60e51b815260206004820152601b60248201527f696e76616c6964206167656e74207661756c74206164647265737300000000006044820152606401610386565b50919050565b600063ffffffff821115610dd45760405162461bcd60e51b815260206004820152602660248201527f53616665436173743a2076616c756520646f65736e27742066697420696e203360448201526532206269747360d01b6064820152608401610386565b5090565b60006001600160401b03821115610dd45760405162461bcd60e51b815260206004820152602660248201527f53616665436173743a2076616c756520646f65736e27742066697420696e203660448201526534206269747360d01b6064820152608401610386565b610e656040805160608101909152806000815260200160008152602001600081525090565b6000610e7083611177565b60408051606081019091529091508060018152825485546040516370a0823160e01b81526001600160a01b0391821660048201526020909301929116906370a08231906024015b602060405180830381865afa158015610ed4573d6000803e3d6000fd5b505050506040513d601f19601f82011682018060405250810190610ef89190611bf4565b8152602001610b22836112e1565b610f2b6040805160608101909152806000815260200160008152602001600081525090565b6000610f36836111f3565b6040805160608101825260008152825482516370a0823160e01b8152600080516020611e36833981519152881890931c6001600160a01b039081166004850152939450909260208401929116906370a0823190602401610eb7565b610fb66040805160608101909152806000815260200160008152602001600081525090565b8254604080516332f7ce0b60e21b815290516000926001600160a01b03169163cbdf382c9160048083019260209291908290030181865afa158015610fff573d6000803e3d6000fd5b505050506040513d601f19601f820116820180604052508101906110239190611c0d565b905060006001600160a01b0382166370a08231600080516020611e36833981519152871860401c6040516001600160e01b031960e084901b1681526001600160a01b039091166004820152602401602060405180830381865afa15801561108e573d6000803e3d6000fd5b505050506040513d601f19601f820116820180604052508101906110b29190611bf4565b90506000826001600160a01b03166318160ddd6040518163ffffffff1660e01b8152600401602060405180830381865afa1580156110f4573d6000803e3d6000fd5b505050506040513d601f19601f820116820180604052508101906111189190611bf4565b90506000856020015160000361112f576000611144565b602086015160408701516111449184906112f7565b60408051606081018252600281526020810195909552840152509095945050505050565b6000610a7883836127106112f7565b60048101547fec7e8c1c441439dd40959777f4c577ea0cd42fcc1dbe59d2bd0f5d9c55df8dc98054600092600080516020611e568339815191529291630100000090910461ffff169081106111ce576111ce611b62565b9060005260206000209060040201915050919050565b6000818311610a765781610a78565b60048101547fec7e8c1c441439dd40959777f4c577ea0cd42fcc1dbe59d2bd0f5d9c55df8dc98054600092600080516020611e56833981519152929161010090910461ffff169081106111ce576111ce611b62565b600080611255848461141f565b905060006112638585611447565b90508060000361127457600061127e565b61127e8183611c40565b95945050505050565b6001820154600090600080516020611e56833981519152906001600160a01b0390811690841681148061127e57506001600160a01b0380821660009081526016840160205260409020548582169116149250505092915050565b60006112ee8260006114a6565b50909392505050565b600080821161133b5760405162461bcd60e51b815260206004820152601060248201526f4469766973696f6e206279207a65726f60801b6044820152606401610386565b8360000361134b57506000611418565b8383028385828161135e5761135e611c2a565b040361137c5782818161137357611373611c2a565b04915050611418565b5060006113898386611c40565b905060006113978487611c54565b905060006113a58587611c40565b905060006113b38688611c54565b9050856113c08285611c68565b6113ca9190611c40565b6113d48385611c68565b6113de8387611c68565b886113e98689611c68565b6113f39190611c68565b6113fd9190611bcb565b6114079190611bcb565b6114119190611bcb565b9450505050505b9392505050565b60008061142c8484611665565b90506000610c7b82866020015161179490919063ffffffff16565b600080600080516020611e568339815191529050600061146b848660000151610b2b565b50905061127e816114a084600b0160109054906101000a90046001600160401b03166001600160401b031688604001516117b6565b90611168565b6000806000806000806115458860010180546114c190611c7f565b80601f01602080910402602001604051908101604052809291908181526020018280546114ed90611c7f565b801561153a5780601f1061150f5761010080835404028352916020019161153a565b820191906000526020600020905b81548152906001019060200180831161151d57829003601f168201915b5050505050886117d0565b8a549295509093509150600160f01b900460ff161561158c57875460009061157b90600160a81b900460ff16600183878661192c565b965091945084935061165e92505050565b60008060006116278b60020180546115a390611c7f565b80601f01602080910402602001604051908101604052809291908181526020018280546115cf90611c7f565b801561161c5780601f106115f15761010080835404028352916020019161161c565b820191906000526020600020905b8154815290600101906020018083116115ff57829003601f168201915b50505050508b6117d0565b8d54929550909350915060009061164b90600160a81b900460ff1685848a8961192c565b995094975090955061165e945050505050565b9250925092565b6000806000611678848660000151610b2b565b600586015491935091506000906116a6906001600160401b0368010000000000000000820481169116611bcb565b905060006116bc846114a0848a604001516117b6565b905060006001885160028111156116d5576116d5611b91565b146116f4576005870154600160801b90046001600160401b031661170a565b6005870154600160c01b90046001600160401b03165b90506000611729856114a0846001600160401b03168c604001516117b6565b9050600060018a51600281111561174257611742611b91565b0361174e576000611766565b895161175b908a906119b3565b546001600160801b03165b6001600160801b031690508061177c8386611bcb565b6117869190611bcb565b9a9950505050505050505050565b600080838311156117aa57506000905080610c2a565b50600193919092039150565b6000610a78826117c86009600a611d97565b8591906112f7565b7fec7e8c1c441439dd40959777f4c577ea0cd42fcc1dbe59d2bd0f5d9c55df8dbf546040516325f69abd60e21b815260009182918291600080516020611e568339815191529183916001600160a01b0316906397da6af490611836908a90600401611da3565b602060405180830381865afa158015611853573d6000803e3d6000fd5b505050506040513d601f19601f820116820180604052508101906118779190611c0d565b905085156118ee57806001600160a01b0316633cacb3ae6040518163ffffffff1660e01b8152600401606060405180830381865afa1580156118bd573d6000803e3d6000fd5b505050506040513d601f19601f820116820180604052508101906118e19190611df1565b945094509450505061165e565b806001600160a01b03166365f5cd866040518163ffffffff1660e01b8152600401606060405180830381865afa1580156118bd573d6000803e3d6000fd5b6000600080516020611e5683398151915281600961194a878a611bcb565b6119549190611bcb565b6009830154909150600090611974908690600160a81b900460ff16611bcb565b90508082101561198657611986611e1f565b6119a66119938284611b39565b61199e90600a611d97565b87908a6112f7565b9998505050505050505050565b600060018260028111156119c9576119c9611b91565b036119d6576119d6611e1f565b60008260028111156119ea576119ea611b91565b146119f85782600901610a78565b505060080190565b60008060408385031215611a1357600080fd5b50508035926020909101359150565b6040808252835182820181905260009190606090818501906020808901865b83811015611a8c57815180516001600160a01b031686528381015184870152878101518887015286810151878701526080908101519086015260a09094019390820190600101611a41565b505095909501959095525092949350505050565b6001600160a01b0381168114610cdc57600080fd5b600060208284031215611ac757600080fd5b813561141881611aa0565b604080825283519082018190526000906020906060840190828701845b82811015611b145781516001600160a01b031684529284019290840190600101611aef565b50505092019290925292915050565b634e487b7160e01b600052601160045260246000fd5b81810381811115610a7b57610a7b611b23565b634e487b7160e01b600052604160045260246000fd5b634e487b7160e01b600052603260045260246000fd5b600060018201611b8a57611b8a611b23565b5060010190565b634e487b7160e01b600052602160045260246000fd5b63ffffffff828116828216039080821115611bc457611bc4611b23565b5092915050565b80820180821115610a7b57610a7b611b23565b634e487b7160e01b600052603160045260246000fd5b600060208284031215611c0657600080fd5b5051919050565b600060208284031215611c1f57600080fd5b815161141881611aa0565b634e487b7160e01b600052601260045260246000fd5b600082611c4f57611c4f611c2a565b500490565b600082611c6357611c63611c2a565b500690565b8082028115828204841417610a7b57610a7b611b23565b600181811c90821680611c9357607f821691505b602082108103610d6957634e487b7160e01b600052602260045260246000fd5b600181815b80851115611cee578160001904821115611cd457611cd4611b23565b80851615611ce157918102915b93841c9390800290611cb8565b509250929050565b600082611d0557506001610a7b565b81611d1257506000610a7b565b8160018114611d285760028114611d3257611d4e565b6001915050610a7b565b60ff841115611d4357611d43611b23565b50506001821b610a7b565b5060208310610133831016604e8410600b8410161715611d71575081810a610a7b565b611d7b8383611cb3565b8060001904821115611d8f57611d8f611b23565b029392505050565b6000610a788383611cf6565b600060208083528351808285015260005b81811015611dd057858101830151858201604001528201611db4565b506000604082860101526040601f19601f8301168501019250505092915050565b600080600060608486031215611e0657600080fd5b8351925060208401519150604084015190509250925092565b634e487b7160e01b600052600160045260246000fdfe5bebac0595fee029d42bb673937f5f1cb81cf8641382bc17774635de9b7d7965ec7e8c1c441439dd40959777f4c577ea0cd42fcc1dbe59d2bd0f5d9c55df8db6a2646970667358221220cfc98c461acd9a302148f382b273576f9f7227b44aa53606f81326cda14a3a1564736f6c63430008140033",
  "linkReferences": {},
  "deployedLinkReferences": {}
}