{
  "_format": "hh-sol-artifact-1",
  "contractName": "AvailableAgents",
  "sourceName": "contracts/fasset/library/AvailableAgents.sol",
  "abi": [
    {
      "inputs": [
        {
          "internalType": "uint256",
          "name": "_start",
          "type": "uint256"
        },
        {
          "internalType": "uint256",
          "name": "_end",
          "type": "uint256"
        }
      ],
      "name": "getList",
      "outputs": [
        {
          "internalType": "address[]",
          "name": "_agents",
          "type": "address[]"
        },
        {
          "internalType": "uint256",
          "name": "_totalLength",
          "type": "uint256"
        }
      ],
      "stateMutability": "view",
      "type": "function"
    },
    {
      "inputs": [
        {
          "internalType": "uint256",
          "name": "_start",
          "type": "uint256"
        },
        {
          "internalType": "uint256",
          "name": "_end",
          "type": "uint256"
        }
      ],
      "name": "getListWithInfo",
      "outputs": [
        {
          "components": [
            {
              "internalType": "address",
              "name": "agentVault",
              "type": "address"
            },
            {
              "internalType": "uint256",
              "name": "feeBIPS",
              "type": "uint256"
            },
            {
              "internalType": "uint256",
              "name": "mintingClass1CollateralRatioBIPS",
              "type": "uint256"
            },
            {
              "internalType": "uint256",
              "name": "mintingPoolCollateralRatioBIPS",
              "type": "uint256"
            },
            {
              "internalType": "uint256",
              "name": "freeCollateralLots",
              "type": "uint256"
            }
          ],
          "internalType": "struct AvailableAgents.AgentInfo[]",
          "name": "_agents",
          "type": "tuple[]"
        },
        {
          "internalType": "uint256",
          "name": "_totalLength",
          "type": "uint256"
        }
      ],
      "stateMutability": "view",
      "type": "function"
    }
  ],
  "bytecode": "0x611ef161003a600b82828239805160001a60731461002d57634e487b7160e01b600052600060045260246000fd5b30600052607381538281f3fe73000000000000000000000000000000000000000030146080604052600436106100615760003560e01c8063825378af14610066578063877cd81014610090578063a9816b08146100b2578063b42652e9146100d3578063fdf6b375146100f3575b600080fd5b610079610074366004611a2a565b610113565b604051610087929190611a4c565b60405180910390f35b81801561009c57600080fd5b506100b06100ab366004611adf565b610305565b005b6100c56100c0366004611a2a565b61055e565b604051610087929190611afc565b8180156100df57600080fd5b506100b06100ee366004611adf565b610670565b8180156100ff57600080fd5b506100b061010e366004611adf565b610955565b7fec7e8c1c441439dd40959777f4c577ea0cd42fcc1dbe59d2bd0f5d9c55df8dce54606090600080516020611e9c8339815191526101518483610a8d565b935061015d8585610a8d565b94506101698585611b63565b6001600160401b0381111561018057610180611b7a565b6040519080825280602002602001820160405280156101ec57816020015b6101d96040518060a0016040528060006001600160a01b03168152602001600081526020016000815260200160008152602001600081525090565b81526020019060019003908161019e5790505b509250845b848110156102fc57600082601801828154811061021057610210611b90565b60009182526020822001546001600160a01b038116925060401b600160401b600160e01b0316600080516020611e7c833981519152189050600061025382610aa7565b90506000610262836000610b51565b5090506000610272846001610b51565b506040805160a0810182526001600160a01b03881681526004870154600160501b900461ffff16602082015290810184905260608101829052909150608081016102bc8587610c59565b9052896102c98d89611b63565b815181106102d9576102d9611b90565b6020026020010181905250505050505080806102f490611ba6565b9150506101f1565b50509250929050565b8061030f81610cad565b600080516020611e9c833981519152600061032984610d07565b90506001600482015460ff16600281111561034657610346611bc1565b1461035357610353611bd7565b60006004820154610100900460ff16600381111561037357610373611bc1565b146103bc5760405162461bcd60e51b8152602060048201526014602482015273696e76616c6964206167656e742073746174757360601b60448201526064015b60405180910390fd5b6004810154600160301b900463ffffffff161561041b5760405162461bcd60e51b815260206004820152601760248201527f6167656e7420616c726561647920617661696c61626c6500000000000000000060448201526064016103b3565b600061042682610aa7565b905060006104348284610c59565b905060018110156104875760405162461bcd60e51b815260206004820152601a60248201527f6e6f7420656e6f756768206672656520636f6c6c61746572616c00000000000060448201526064016103b3565b6018840180546001810182556000828152602090200180546001600160a01b0319166001600160a01b038916179055546104c090610d98565b60048401805469ffffffff0000000000001916600160301b63ffffffff93841602179081905560408051600160501b830461ffff168152600160701b830484166020820152600160901b90920490921691810191909152606081018290526001600160a01b038716907f26d52c0d0fb1f56df34a0827f71dc5a67598c0c4dc5948f6eb45950efa3fece19060800160405180910390a2505050505050565b7fec7e8c1c441439dd40959777f4c577ea0cd42fcc1dbe59d2bd0f5d9c55df8dce54606090600080516020611e9c83398151915261059c8483610a8d565b93506105a88585610a8d565b94506105b48585611b63565b6001600160401b038111156105cb576105cb611b7a565b6040519080825280602002602001820160405280156105f4578160200160208202803683370190505b509250845b848110156102fc5781601801818154811061061657610616611b90565b6000918252602090912001546001600160a01b0316846106368884611b63565b8151811061064657610646611b90565b6001600160a01b03909216602092830291909101909101528061066881611ba6565b9150506105f9565b8061067a81610cad565b600080516020611e9c833981519152600061069484610d07565b6004810154909150600160301b900463ffffffff166106eb5760405162461bcd60e51b81526020600482015260136024820152726167656e74206e6f7420617661696c61626c6560681b60448201526064016103b3565b600a810154600160901b90046001600160401b03166107415760405162461bcd60e51b8152602060048201526012602482015271195e1a5d081b9bdd08185b9b9bdd5b98d95960721b60448201526064016103b3565b600a810154600160901b90046001600160401b03164210156107955760405162461bcd60e51b815260206004820152600d60248201526c32bc34ba103a37b79039b7b7b760991b60448201526064016103b3565b60048101546000906107b690600190600160301b900463ffffffff16611bed565b601884015463ffffffff9190911691506107d1826001611c12565b10156108ba576018830180546107e990600190611b63565b815481106107f9576107f9611b90565b6000918252602090912001546018840180546001600160a01b03909216918390811061082757610827611b90565b9060005260206000200160006101000a8154816001600160a01b0302191690836001600160a01b03160217905550600061088984601801838154811061086f5761086f611b90565b6000918252602090912001546001600160a01b0316610d07565b9050610896826001611c12565b8160040160066101000a81548163ffffffff021916908363ffffffff160217905550505b60048201805469ffffffff00000000000019169055601883018054806108e2576108e2611c2a565b600082815260208120820160001990810180546001600160a01b0319169055909101909155600a8301805467ffffffffffffffff60901b191690556040516001600160a01b038716917fc8a2aa2579bcc813e260278486f5bcff68db3ff1875f2b26f1d8e5ea4b5172c491a25050505050565b8061095f81610cad565b600061096a83610d07565b6004810154909150600160301b900463ffffffff166109c15760405162461bcd60e51b81526020600482015260136024820152726167656e74206e6f7420617661696c61626c6560681b60448201526064016103b3565b7fec7e8c1c441439dd40959777f4c577ea0cd42fcc1dbe59d2bd0f5d9c55df8dc754600080516020611e9c83398151915290600090610a1090600160601b90046001600160401b031642611c12565b9050610a1b81610e01565b83600a0160126101000a8154816001600160401b0302191690836001600160401b03160217905550846001600160a01b03167f884230266c6af6bbe3f468b90afda0d08f7602e4b4f51712a164da396ff6fedd82604051610a7e91815260200190565b60405180910390a25050505050565b6000818310610a9c5781610a9e565b825b90505b92915050565b610b126040805160c081019091526000606082018181526080830182905260a083019190915281908152604080516060810182526000808252602082810182905292820152910190815260408051606081018252600080825260208281018290529282015291015290565b6000610b1d83610e69565b90506040518060600160405280610b3385610f2f565b8152602001828152602001610b488584610fba565b90529392505050565b6000806002836002811115610b6857610b68611bc1565b1415610bd057600080610b7c866001610b51565b915091506000610b97600080516020611e9c83398151915290565b6009015463ffffffff600160b01b90910481169150610bba908290849061119216565b9350610bc68184611192565b9450505050610c52565b6001836002811115610be457610be4611bc1565b1415610c2057610bf3846111a1565b60030154600485015463ffffffff9182169250610c1991600160901b909104168261120f565b9150610c52565b610c298461121f565b60030154600485015463ffffffff9182169250610c4f91600160701b909104168261120f565b91505b9250929050565b600080610c6a846000015184611275565b90506000610c7c856020015185611275565b90506000610c8e866040015186611275565b9050610ca383610c9e8484610a8d565b610a8d565b9695505050505050565b610cbf610cb982610d07565b336112b1565b610d045760405162461bcd60e51b815260206004820152601660248201527537b7363c9030b3b2b73a103b30bab63a1037bbb732b960511b60448201526064016103b3565b50565b600080516020611e7c833981519152600160401b600160e01b03604083901b1618806000600483015460ff166002811115610d4457610d44611bc1565b1415610d925760405162461bcd60e51b815260206004820152601b60248201527f696e76616c6964206167656e74207661756c742061646472657373000000000060448201526064016103b3565b50919050565b600063ffffffff821115610dfd5760405162461bcd60e51b815260206004820152602660248201527f53616665436173743a2076616c756520646f65736e27742066697420696e203360448201526532206269747360d01b60648201526084016103b3565b5090565b60006001600160401b03821115610dfd5760405162461bcd60e51b815260206004820152602660248201527f53616665436173743a2076616c756520646f65736e27742066697420696e203660448201526534206269747360d01b60648201526084016103b3565b610e8e6040805160608101909152806000815260200160008152602001600081525090565b6000610e99836111a1565b60408051606081019091529091508060018152825485546040516370a0823160e01b81526001600160a01b0391821660048201526020909301929116906370a08231906024015b602060405180830381865afa158015610efd573d6000803e3d6000fd5b505050506040513d601f19601f82011682018060405250810190610f219190611c40565b8152602001610b488361130b565b610f546040805160608101909152806000815260200160008152602001600081525090565b6000610f5f8361121f565b6040805160608101825260008152825482516370a0823160e01b8152600080516020611e7c833981519152881890931c6001600160a01b039081166004850152939450909260208401929116906370a0823190602401610ee0565b610fdf6040805160608101909152806000815260200160008152602001600081525090565b8254604080516332f7ce0b60e21b815290516000926001600160a01b03169163cbdf382c9160048083019260209291908290030181865afa158015611028573d6000803e3d6000fd5b505050506040513d601f19601f8201168201806040525081019061104c9190611c59565b905060006001600160a01b0382166370a08231600080516020611e7c833981519152871860401c6040516001600160e01b031960e084901b1681526001600160a01b039091166004820152602401602060405180830381865afa1580156110b7573d6000803e3d6000fd5b505050506040513d601f19601f820116820180604052508101906110db9190611c40565b90506000826001600160a01b03166318160ddd6040518163ffffffff1660e01b8152600401602060405180830381865afa15801561111d573d6000803e3d6000fd5b505050506040513d601f19601f820116820180604052508101906111419190611c40565b9050600085602001516000141561115957600061116e565b6020860151604087015161116e918490611321565b60408051606081018252600281526020810195909552840152509095945050505050565b6000610a9e8383612710611321565b60048101547fec7e8c1c441439dd40959777f4c577ea0cd42fcc1dbe59d2bd0f5d9c55df8dc98054600092600080516020611e9c833981519152929164010000000090910461ffff169081106111f9576111f9611b90565b9060005260206000209060040201915050919050565b600081831015610a9c5781610a9e565b60048101547fec7e8c1c441439dd40959777f4c577ea0cd42fcc1dbe59d2bd0f5d9c55df8dc98054600092600080516020611e9c83398151915292916201000090910461ffff169081106111f9576111f9611b90565b6000806112828484611447565b90506000611290858561146f565b90508061129e5760006112a8565b6112a88183611c8c565b95945050505050565b6001820154600090600080516020611e9c833981519152906001600160a01b039081169084168114806112a857506001600160a01b0380821660009081526016840160205260409020548582169116149250505092915050565b60006113188260006114ce565b50909392505050565b60008082116113655760405162461bcd60e51b815260206004820152601060248201526f4469766973696f6e206279207a65726f60801b60448201526064016103b3565b8361137257506000611440565b8383028385828161138557611385611c76565b0414156113a45782818161139b5761139b611c76565b04915050611440565b5060006113b18386611c8c565b905060006113bf8487611ca0565b905060006113cd8587611c8c565b905060006113db8688611ca0565b9050856113e88285611cb4565b6113f29190611c8c565b6113fc8385611cb4565b6114068387611cb4565b886114118689611cb4565b61141b9190611cb4565b6114259190611c12565b61142f9190611c12565b6114399190611c12565b9450505050505b9392505050565b600080611454848461168d565b90506000610ca38286602001516117bd90919063ffffffff16565b600080600080516020611e9c83398151915290506000611493848660000151610b51565b5090506112a8816114c884600b0160109054906101000a90046001600160401b03166001600160401b031688604001516117df565b90611192565b60008060008060008061156d8860010180546114e990611cd3565b80601f016020809104026020016040519081016040528092919081815260200182805461151590611cd3565b80156115625780601f1061153757610100808354040283529160200191611562565b820191906000526020600020905b81548152906001019060200180831161154557829003601f168201915b5050505050886117f9565b8a549295509093509150600160f01b900460ff16156115b45787546000906115a390600160a81b900460ff166001838786611955565b965091945084935061168692505050565b600080600061164f8b60020180546115cb90611cd3565b80601f01602080910402602001604051908101604052809291908181526020018280546115f790611cd3565b80156116445780601f1061161957610100808354040283529160200191611644565b820191906000526020600020905b81548152906001019060200180831161162757829003601f168201915b50505050508b6117f9565b8d54929550909350915060009061167390600160a81b900460ff1685848a89611955565b9950949750909550611686945050505050565b9250925092565b60008060006116a0848660000151610b51565b600586015491935091506000906116ce906001600160401b0368010000000000000000820481169116611c12565b905060006116e4846114c8848a604001516117df565b905060006001885160028111156116fd576116fd611bc1565b1461171c576005870154600160801b90046001600160401b0316611732565b6005870154600160c01b90046001600160401b03165b90506000611751856114c8846001600160401b03168c604001516117df565b9050600060018a51600281111561176a5761176a611bc1565b141561177757600061178f565b8951611784908a906119dc565b546001600160801b03165b6001600160801b03169050806117a58386611c12565b6117af9190611c12565b9a9950505050505050505050565b600080838311156117d357506000905080610c52565b50600193919092039150565b6000610a9e826117f16009600a611dec565b859190611321565b7fec7e8c1c441439dd40959777f4c577ea0cd42fcc1dbe59d2bd0f5d9c55df8dbf546040516325f69abd60e21b815260009182918291600080516020611e9c8339815191529183916001600160a01b0316906397da6af49061185f908a90600401611df8565b602060405180830381865afa15801561187c573d6000803e3d6000fd5b505050506040513d601f19601f820116820180604052508101906118a09190611c59565b9050851561191757806001600160a01b0316633cacb3ae6040518163ffffffff1660e01b8152600401606060405180830381865afa1580156118e6573d6000803e3d6000fd5b505050506040513d601f19601f8201168201806040525081019061190a9190611e4d565b9450945094505050611686565b806001600160a01b03166365f5cd866040518163ffffffff1660e01b8152600401606060405180830381865afa1580156118e6573d6000803e3d6000fd5b6000600080516020611e9c833981519152816009611973878a611c12565b61197d9190611c12565b600983015490915060009061199d908690600160a81b900460ff16611c12565b9050808210156119af576119af611bd7565b6119cf6119bc8284611b63565b6119c790600a611dec565b87908a611321565b9998505050505050505050565b600060018260028111156119f2576119f2611bc1565b1415611a0057611a00611bd7565b6000826002811115611a1457611a14611bc1565b14611a225782600901610a9e565b505060080190565b60008060408385031215611a3d57600080fd5b50508035926020909101359150565b6040808252835182820181905260009190606090818501906020808901865b83811015611ab657815180516001600160a01b031686528381015184870152878101518887015286810151878701526080908101519086015260a09094019390820190600101611a6b565b505095909501959095525092949350505050565b6001600160a01b0381168114610d0457600080fd5b600060208284031215611af157600080fd5b813561144081611aca565b604080825283519082018190526000906020906060840190828701845b82811015611b3e5781516001600160a01b031684529284019290840190600101611b19565b50505092019290925292915050565b634e487b7160e01b600052601160045260246000fd5b600082821015611b7557611b75611b4d565b500390565b634e487b7160e01b600052604160045260246000fd5b634e487b7160e01b600052603260045260246000fd5b6000600019821415611bba57611bba611b4d565b5060010190565b634e487b7160e01b600052602160045260246000fd5b634e487b7160e01b600052600160045260246000fd5b600063ffffffff83811690831681811015611c0a57611c0a611b4d565b039392505050565b60008219821115611c2557611c25611b4d565b500190565b634e487b7160e01b600052603160045260246000fd5b600060208284031215611c5257600080fd5b5051919050565b600060208284031215611c6b57600080fd5b815161144081611aca565b634e487b7160e01b600052601260045260246000fd5b600082611c9b57611c9b611c76565b500490565b600082611caf57611caf611c76565b500690565b6000816000190483118215151615611cce57611cce611b4d565b500290565b600181811c90821680611ce757607f821691505b60208210811415610d9257634e487b7160e01b600052602260045260246000fd5b600181815b80851115611d43578160001904821115611d2957611d29611b4d565b80851615611d3657918102915b93841c9390800290611d0d565b509250929050565b600082611d5a57506001610aa1565b81611d6757506000610aa1565b8160018114611d7d5760028114611d8757611da3565b6001915050610aa1565b60ff841115611d9857611d98611b4d565b50506001821b610aa1565b5060208310610133831016604e8410600b8410161715611dc6575081810a610aa1565b611dd08383611d08565b8060001904821115611de457611de4611b4d565b029392505050565b6000610a9e8383611d4b565b600060208083528351808285015260005b81811015611e2557858101830151858201604001528201611e09565b81811115611e37576000604083870101525b50601f01601f1916929092016040019392505050565b600080600060608486031215611e6257600080fd5b835192506020840151915060408401519050925092509256fe5bebac0595fee029d42bb673937f5f1cb81cf8641382bc17774635de9b7d7965ec7e8c1c441439dd40959777f4c577ea0cd42fcc1dbe59d2bd0f5d9c55df8db6a26469706673582212200867de40d7a0c0ca4fbb35c70207310385834b6f117eb75f3853d17a82f7cb6564736f6c634300080b0033",
  "linkReferences": {},
  "deployedLinkReferences": {}
}