{
  "_format": "hh-sol-artifact-1",
  "contractName": "DelegationHistory",
  "sourceName": "cache/flattened/FlareSmartContracts.sol",
  "abi": [
    {
      "inputs": [],
      "name": "MAX_DELEGATES_BY_PERCENT",
      "outputs": [
        {
          "internalType": "uint256",
          "name": "",
          "type": "uint256"
        }
      ],
      "stateMutability": "view",
      "type": "function"
    }
  ],
  "bytecode": "0x6096610024600b82828239805160001a607314601757fe5b30600052607381538281f3fe730000000000000000000000000000000000000000301460806040526004361060335760003560e01c80632829744e146038575b600080fd5b603e6052565b604051604991906057565b60405180910390f35b600281565b9081526020019056fea264697066735822122049474e5165f2f7388f029ec187e7a8491c4ae7f98d2ce948b09f93d0151cd90064736f6c63430007060033",
  "linkReferences": {},
  "deployedLinkReferences": {}
}