{
  "_format": "hh-sol-artifact-1",
  "contractName": "Governed",
  "sourceName": "cache/flattened/FlareSmartContracts.sol",
  "abi": [
    {
      "inputs": [
        {
          "internalType": "address",
          "name": "_governance",
          "type": "address"
        }
      ],
      "stateMutability": "nonpayable",
      "type": "constructor"
    },
    {
      "anonymous": false,
      "inputs": [
        {
          "indexed": false,
          "internalType": "address",
          "name": "proposedGovernance",
          "type": "address"
        }
      ],
      "name": "GovernanceProposed",
      "type": "event"
    },
    {
      "anonymous": false,
      "inputs": [
        {
          "indexed": false,
          "internalType": "address",
          "name": "oldGovernance",
          "type": "address"
        },
        {
          "indexed": false,
          "internalType": "address",
          "name": "newGoveranance",
          "type": "address"
        }
      ],
      "name": "GovernanceUpdated",
      "type": "event"
    },
    {
      "inputs": [],
      "name": "claimGovernance",
      "outputs": [],
      "stateMutability": "nonpayable",
      "type": "function"
    },
    {
      "inputs": [],
      "name": "governance",
      "outputs": [
        {
          "internalType": "address",
          "name": "",
          "type": "address"
        }
      ],
      "stateMutability": "view",
      "type": "function"
    },
    {
      "inputs": [
        {
          "internalType": "address",
          "name": "_governance",
          "type": "address"
        }
      ],
      "name": "initialise",
      "outputs": [],
      "stateMutability": "nonpayable",
      "type": "function"
    },
    {
      "inputs": [
        {
          "internalType": "address",
          "name": "_governance",
          "type": "address"
        }
      ],
      "name": "proposeGovernance",
      "outputs": [],
      "stateMutability": "nonpayable",
      "type": "function"
    },
    {
      "inputs": [],
      "name": "proposedGovernance",
      "outputs": [
        {
          "internalType": "address",
          "name": "",
          "type": "address"
        }
      ],
      "stateMutability": "view",
      "type": "function"
    },
    {
      "inputs": [
        {
          "internalType": "address",
          "name": "_governance",
          "type": "address"
        }
      ],
      "name": "transferGovernance",
      "outputs": [],
      "stateMutability": "nonpayable",
      "type": "function"
    }
  ],
  "bytecode": "0x608060405234801561001057600080fd5b5060405161060438038061060483398101604081905261002f9161012b565b806001600160a01b03811615610048576100488161007e565b506001600160a01b0381166100785760405162461bcd60e51b815260040161006f90610173565b60405180910390fd5b506101d4565b600154600160a01b900460ff16156100a85760405162461bcd60e51b815260040161006f9061019d565b6001805460ff60a01b1916600160a01b1790556000546040517f434a2db650703b36c824e745330d6397cdaa9ee2cc891a4938ae853e1c50b68d916100fa916001600160a01b03909116908490610159565b60405180910390a1600080546001600160a01b039092166001600160a01b0319928316179055600180549091169055565b60006020828403121561013c578081fd5b81516001600160a01b0381168114610152578182fd5b9392505050565b6001600160a01b0392831681529116602082015260400190565b60208082526010908201526f5f676f7665726e616e6365207a65726f60801b604082015260600190565b60208082526014908201527f696e697469616c6973656420213d2066616c7365000000000000000000000000604082015260600190565b610421806101e36000396000f3fe608060405234801561001057600080fd5b50600436106100625760003560e01c80635aa6e675146100675780635d36b1901461008557806360f7ac971461008f5780639d6a890f14610097578063c373a08e146100aa578063d38bfff4146100bd575b600080fd5b61006f6100d0565b60405161007c919061033f565b60405180910390f35b61008d6100df565b005b61006f610184565b61008d6100a5366004610311565b610193565b61008d6100b8366004610311565b610240565b61008d6100cb366004610311565b61029e565b6000546001600160a01b031681565b6001546001600160a01b031633146101125760405162461bcd60e51b81526004016101099061036d565b60405180910390fd5b6000546001546040517f434a2db650703b36c824e745330d6397cdaa9ee2cc891a4938ae853e1c50b68d92610155926001600160a01b0391821692911690610353565b60405180910390a160018054600080546001600160a01b03199081166001600160a01b03841617909155169055565b6001546001600160a01b031681565b600154600160a01b900460ff16156101bd5760405162461bcd60e51b8152600401610109906103bd565b6001805460ff60a01b1916600160a01b1790556000546040517f434a2db650703b36c824e745330d6397cdaa9ee2cc891a4938ae853e1c50b68d9161020f916001600160a01b03909116908490610353565b60405180910390a1600080546001600160a01b039092166001600160a01b0319928316179055600180549091169055565b6102486102e5565b600180546001600160a01b0319166001600160a01b0383161790556040517f1f95fb40be3a947982072902a887b521248d1d8931a39eb38f84f4d6fd758b699061029390839061033f565b60405180910390a150565b6102a66102e5565b6000546040517f434a2db650703b36c824e745330d6397cdaa9ee2cc891a4938ae853e1c50b68d9161020f916001600160a01b03909116908490610353565b6000546001600160a01b0316331461030f5760405162461bcd60e51b815260040161010990610394565b565b600060208284031215610322578081fd5b81356001600160a01b0381168114610338578182fd5b9392505050565b6001600160a01b0391909116815260200190565b6001600160a01b0392831681529116602082015260400190565b6020808252600d908201526c1b9bdd0818db185a5b585a5b9d609a1b604082015260600190565b6020808252600f908201526e6f6e6c7920676f7665726e616e636560881b604082015260600190565b602080825260149082015273696e697469616c6973656420213d2066616c736560601b60408201526060019056fea264697066735822122057e442c33bf2dbf158344de8f0f28d58d1d2bdf873220569f614fa492bebf0fb64736f6c63430007060033",
  "linkReferences": {},
  "deployedLinkReferences": {}
}