{
  "_format": "hh-sol-artifact-1",
  "contractName": "WNat",
  "sourceName": "cache/flattened/FlareSmartContracts.sol",
  "abi": [
    {
      "inputs": [
        {
          "internalType": "address",
          "name": "_governance",
          "type": "address"
        },
        {
          "internalType": "string",
          "name": "_name",
          "type": "string"
        },
        {
          "internalType": "string",
          "name": "_symbol",
          "type": "string"
        }
      ],
      "stateMutability": "nonpayable",
      "type": "constructor"
    },
    {
      "anonymous": false,
      "inputs": [
        {
          "indexed": true,
          "internalType": "address",
          "name": "owner",
          "type": "address"
        },
        {
          "indexed": true,
          "internalType": "address",
          "name": "spender",
          "type": "address"
        },
        {
          "indexed": false,
          "internalType": "uint256",
          "name": "value",
          "type": "uint256"
        }
      ],
      "name": "Approval",
      "type": "event"
    },
    {
      "anonymous": false,
      "inputs": [
        {
          "indexed": false,
          "internalType": "uint256",
          "name": "_blockNumber",
          "type": "uint256"
        }
      ],
      "name": "CreatedTotalSupplyCache",
      "type": "event"
    },
    {
      "anonymous": false,
      "inputs": [
        {
          "indexed": true,
          "internalType": "address",
          "name": "dst",
          "type": "address"
        },
        {
          "indexed": false,
          "internalType": "uint256",
          "name": "amount",
          "type": "uint256"
        }
      ],
      "name": "Deposit",
      "type": "event"
    },
    {
      "anonymous": false,
      "inputs": [
        {
          "indexed": false,
          "internalType": "address",
          "name": "proposedGovernance",
          "type": "address"
        }
      ],
      "name": "GovernanceProposed",
      "type": "event"
    },
    {
      "anonymous": false,
      "inputs": [
        {
          "indexed": false,
          "internalType": "address",
          "name": "oldGovernance",
          "type": "address"
        },
        {
          "indexed": false,
          "internalType": "address",
          "name": "newGoveranance",
          "type": "address"
        }
      ],
      "name": "GovernanceUpdated",
      "type": "event"
    },
    {
      "anonymous": false,
      "inputs": [
        {
          "indexed": true,
          "internalType": "address",
          "name": "from",
          "type": "address"
        },
        {
          "indexed": true,
          "internalType": "address",
          "name": "to",
          "type": "address"
        },
        {
          "indexed": false,
          "internalType": "uint256",
          "name": "value",
          "type": "uint256"
        }
      ],
      "name": "Transfer",
      "type": "event"
    },
    {
      "anonymous": false,
      "inputs": [
        {
          "indexed": false,
          "internalType": "uint256",
          "name": "_contractType",
          "type": "uint256"
        },
        {
          "indexed": false,
          "internalType": "address",
          "name": "_oldContractAddress",
          "type": "address"
        },
        {
          "indexed": false,
          "internalType": "address",
          "name": "_newContractAddress",
          "type": "address"
        }
      ],
      "name": "VotePowerContractChanged",
      "type": "event"
    },
    {
      "anonymous": false,
      "inputs": [
        {
          "indexed": true,
          "internalType": "address",
          "name": "src",
          "type": "address"
        },
        {
          "indexed": false,
          "internalType": "uint256",
          "name": "amount",
          "type": "uint256"
        }
      ],
      "name": "Withdrawal",
      "type": "event"
    },
    {
      "inputs": [
        {
          "internalType": "address",
          "name": "owner",
          "type": "address"
        },
        {
          "internalType": "address",
          "name": "spender",
          "type": "address"
        }
      ],
      "name": "allowance",
      "outputs": [
        {
          "internalType": "uint256",
          "name": "",
          "type": "uint256"
        }
      ],
      "stateMutability": "view",
      "type": "function"
    },
    {
      "inputs": [
        {
          "internalType": "address",
          "name": "spender",
          "type": "address"
        },
        {
          "internalType": "uint256",
          "name": "amount",
          "type": "uint256"
        }
      ],
      "name": "approve",
      "outputs": [
        {
          "internalType": "bool",
          "name": "",
          "type": "bool"
        }
      ],
      "stateMutability": "nonpayable",
      "type": "function"
    },
    {
      "inputs": [
        {
          "internalType": "address",
          "name": "_owner",
          "type": "address"
        },
        {
          "internalType": "uint256",
          "name": "_count",
          "type": "uint256"
        }
      ],
      "name": "balanceHistoryCleanup",
      "outputs": [
        {
          "internalType": "uint256",
          "name": "",
          "type": "uint256"
        }
      ],
      "stateMutability": "nonpayable",
      "type": "function"
    },
    {
      "inputs": [
        {
          "internalType": "address",
          "name": "account",
          "type": "address"
        }
      ],
      "name": "balanceOf",
      "outputs": [
        {
          "internalType": "uint256",
          "name": "",
          "type": "uint256"
        }
      ],
      "stateMutability": "view",
      "type": "function"
    },
    {
      "inputs": [
        {
          "internalType": "address",
          "name": "_owner",
          "type": "address"
        },
        {
          "internalType": "uint256",
          "name": "_blockNumber",
          "type": "uint256"
        }
      ],
      "name": "balanceOfAt",
      "outputs": [
        {
          "internalType": "uint256",
          "name": "",
          "type": "uint256"
        }
      ],
      "stateMutability": "view",
      "type": "function"
    },
    {
      "inputs": [
        {
          "internalType": "address[]",
          "name": "_owners",
          "type": "address[]"
        },
        {
          "internalType": "uint256",
          "name": "_blockNumber",
          "type": "uint256"
        }
      ],
      "name": "batchVotePowerOfAt",
      "outputs": [
        {
          "internalType": "uint256[]",
          "name": "",
          "type": "uint256[]"
        }
      ],
      "stateMutability": "view",
      "type": "function"
    },
    {
      "inputs": [],
      "name": "claimGovernance",
      "outputs": [],
      "stateMutability": "nonpayable",
      "type": "function"
    },
    {
      "inputs": [],
      "name": "cleanupBlockNumber",
      "outputs": [
        {
          "internalType": "uint256",
          "name": "",
          "type": "uint256"
        }
      ],
      "stateMutability": "view",
      "type": "function"
    },
    {
      "inputs": [],
      "name": "decimals",
      "outputs": [
        {
          "internalType": "uint8",
          "name": "",
          "type": "uint8"
        }
      ],
      "stateMutability": "view",
      "type": "function"
    },
    {
      "inputs": [
        {
          "internalType": "address",
          "name": "spender",
          "type": "address"
        },
        {
          "internalType": "uint256",
          "name": "subtractedValue",
          "type": "uint256"
        }
      ],
      "name": "decreaseAllowance",
      "outputs": [
        {
          "internalType": "bool",
          "name": "",
          "type": "bool"
        }
      ],
      "stateMutability": "nonpayable",
      "type": "function"
    },
    {
      "inputs": [
        {
          "internalType": "address",
          "name": "_to",
          "type": "address"
        },
        {
          "internalType": "uint256",
          "name": "_bips",
          "type": "uint256"
        }
      ],
      "name": "delegate",
      "outputs": [],
      "stateMutability": "nonpayable",
      "type": "function"
    },
    {
      "inputs": [
        {
          "internalType": "address",
          "name": "_to",
          "type": "address"
        },
        {
          "internalType": "uint256",
          "name": "_amount",
          "type": "uint256"
        }
      ],
      "name": "delegateExplicit",
      "outputs": [],
      "stateMutability": "nonpayable",
      "type": "function"
    },
    {
      "inputs": [
        {
          "internalType": "address",
          "name": "_owner",
          "type": "address"
        }
      ],
      "name": "delegatesOf",
      "outputs": [
        {
          "internalType": "address[]",
          "name": "_delegateAddresses",
          "type": "address[]"
        },
        {
          "internalType": "uint256[]",
          "name": "_bips",
          "type": "uint256[]"
        },
        {
          "internalType": "uint256",
          "name": "_count",
          "type": "uint256"
        },
        {
          "internalType": "uint256",
          "name": "_delegationMode",
          "type": "uint256"
        }
      ],
      "stateMutability": "view",
      "type": "function"
    },
    {
      "inputs": [
        {
          "internalType": "address",
          "name": "_owner",
          "type": "address"
        },
        {
          "internalType": "uint256",
          "name": "_blockNumber",
          "type": "uint256"
        }
      ],
      "name": "delegatesOfAt",
      "outputs": [
        {
          "internalType": "address[]",
          "name": "_delegateAddresses",
          "type": "address[]"
        },
        {
          "internalType": "uint256[]",
          "name": "_bips",
          "type": "uint256[]"
        },
        {
          "internalType": "uint256",
          "name": "_count",
          "type": "uint256"
        },
        {
          "internalType": "uint256",
          "name": "_delegationMode",
          "type": "uint256"
        }
      ],
      "stateMutability": "view",
      "type": "function"
    },
    {
      "inputs": [
        {
          "internalType": "address",
          "name": "_who",
          "type": "address"
        }
      ],
      "name": "delegationModeOf",
      "outputs": [
        {
          "internalType": "uint256",
          "name": "",
          "type": "uint256"
        }
      ],
      "stateMutability": "view",
      "type": "function"
    },
    {
      "inputs": [],
      "name": "deposit",
      "outputs": [],
      "stateMutability": "payable",
      "type": "function"
    },
    {
      "inputs": [
        {
          "internalType": "address",
          "name": "recipient",
          "type": "address"
        }
      ],
      "name": "depositTo",
      "outputs": [],
      "stateMutability": "payable",
      "type": "function"
    },
    {
      "inputs": [],
      "name": "governance",
      "outputs": [
        {
          "internalType": "address",
          "name": "",
          "type": "address"
        }
      ],
      "stateMutability": "view",
      "type": "function"
    },
    {
      "inputs": [],
      "name": "governanceVotePower",
      "outputs": [
        {
          "internalType": "contract IGovernanceVotePower",
          "name": "",
          "type": "address"
        }
      ],
      "stateMutability": "view",
      "type": "function"
    },
    {
      "inputs": [
        {
          "internalType": "address",
          "name": "spender",
          "type": "address"
        },
        {
          "internalType": "uint256",
          "name": "addedValue",
          "type": "uint256"
        }
      ],
      "name": "increaseAllowance",
      "outputs": [
        {
          "internalType": "bool",
          "name": "",
          "type": "bool"
        }
      ],
      "stateMutability": "nonpayable",
      "type": "function"
    },
    {
      "inputs": [
        {
          "internalType": "address",
          "name": "_governance",
          "type": "address"
        }
      ],
      "name": "initialise",
      "outputs": [],
      "stateMutability": "nonpayable",
      "type": "function"
    },
    {
      "inputs": [],
      "name": "name",
      "outputs": [
        {
          "internalType": "string",
          "name": "",
          "type": "string"
        }
      ],
      "stateMutability": "view",
      "type": "function"
    },
    {
      "inputs": [
        {
          "internalType": "address",
          "name": "_governance",
          "type": "address"
        }
      ],
      "name": "proposeGovernance",
      "outputs": [],
      "stateMutability": "nonpayable",
      "type": "function"
    },
    {
      "inputs": [],
      "name": "proposedGovernance",
      "outputs": [
        {
          "internalType": "address",
          "name": "",
          "type": "address"
        }
      ],
      "stateMutability": "view",
      "type": "function"
    },
    {
      "inputs": [],
      "name": "readVotePowerContract",
      "outputs": [
        {
          "internalType": "contract IVPContractEvents",
          "name": "",
          "type": "address"
        }
      ],
      "stateMutability": "view",
      "type": "function"
    },
    {
      "inputs": [
        {
          "internalType": "address",
          "name": "_who",
          "type": "address"
        },
        {
          "internalType": "uint256",
          "name": "_blockNumber",
          "type": "uint256"
        }
      ],
      "name": "revokeDelegationAt",
      "outputs": [],
      "stateMutability": "nonpayable",
      "type": "function"
    },
    {
      "inputs": [
        {
          "internalType": "address",
          "name": "_cleanerContract",
          "type": "address"
        }
      ],
      "name": "setCleanerContract",
      "outputs": [],
      "stateMutability": "nonpayable",
      "type": "function"
    },
    {
      "inputs": [
        {
          "internalType": "uint256",
          "name": "_blockNumber",
          "type": "uint256"
        }
      ],
      "name": "setCleanupBlockNumber",
      "outputs": [],
      "stateMutability": "nonpayable",
      "type": "function"
    },
    {
      "inputs": [
        {
          "internalType": "address",
          "name": "_cleanupBlockNumberManager",
          "type": "address"
        }
      ],
      "name": "setCleanupBlockNumberManager",
      "outputs": [],
      "stateMutability": "nonpayable",
      "type": "function"
    },
    {
      "inputs": [
        {
          "internalType": "contract IIGovernanceVotePower",
          "name": "_governanceVotePower",
          "type": "address"
        }
      ],
      "name": "setGovernanceVotePower",
      "outputs": [],
      "stateMutability": "nonpayable",
      "type": "function"
    },
    {
      "inputs": [
        {
          "internalType": "contract IIVPContract",
          "name": "_vpContract",
          "type": "address"
        }
      ],
      "name": "setReadVpContract",
      "outputs": [],
      "stateMutability": "nonpayable",
      "type": "function"
    },
    {
      "inputs": [
        {
          "internalType": "contract IIVPContract",
          "name": "_vpContract",
          "type": "address"
        }
      ],
      "name": "setWriteVpContract",
      "outputs": [],
      "stateMutability": "nonpayable",
      "type": "function"
    },
    {
      "inputs": [],
      "name": "symbol",
      "outputs": [
        {
          "internalType": "string",
          "name": "",
          "type": "string"
        }
      ],
      "stateMutability": "view",
      "type": "function"
    },
    {
      "inputs": [],
      "name": "totalSupply",
      "outputs": [
        {
          "internalType": "uint256",
          "name": "",
          "type": "uint256"
        }
      ],
      "stateMutability": "view",
      "type": "function"
    },
    {
      "inputs": [
        {
          "internalType": "uint256",
          "name": "_blockNumber",
          "type": "uint256"
        }
      ],
      "name": "totalSupplyAt",
      "outputs": [
        {
          "internalType": "uint256",
          "name": "",
          "type": "uint256"
        }
      ],
      "stateMutability": "view",
      "type": "function"
    },
    {
      "inputs": [
        {
          "internalType": "uint256",
          "name": "_blockNumber",
          "type": "uint256"
        }
      ],
      "name": "totalSupplyCacheCleanup",
      "outputs": [
        {
          "internalType": "uint256",
          "name": "",
          "type": "uint256"
        }
      ],
      "stateMutability": "nonpayable",
      "type": "function"
    },
    {
      "inputs": [
        {
          "internalType": "uint256",
          "name": "_count",
          "type": "uint256"
        }
      ],
      "name": "totalSupplyHistoryCleanup",
      "outputs": [
        {
          "internalType": "uint256",
          "name": "",
          "type": "uint256"
        }
      ],
      "stateMutability": "nonpayable",
      "type": "function"
    },
    {
      "inputs": [],
      "name": "totalVotePower",
      "outputs": [
        {
          "internalType": "uint256",
          "name": "",
          "type": "uint256"
        }
      ],
      "stateMutability": "view",
      "type": "function"
    },
    {
      "inputs": [
        {
          "internalType": "uint256",
          "name": "_blockNumber",
          "type": "uint256"
        }
      ],
      "name": "totalVotePowerAt",
      "outputs": [
        {
          "internalType": "uint256",
          "name": "",
          "type": "uint256"
        }
      ],
      "stateMutability": "view",
      "type": "function"
    },
    {
      "inputs": [
        {
          "internalType": "uint256",
          "name": "_blockNumber",
          "type": "uint256"
        }
      ],
      "name": "totalVotePowerAtCached",
      "outputs": [
        {
          "internalType": "uint256",
          "name": "",
          "type": "uint256"
        }
      ],
      "stateMutability": "nonpayable",
      "type": "function"
    },
    {
      "inputs": [
        {
          "internalType": "address",
          "name": "recipient",
          "type": "address"
        },
        {
          "internalType": "uint256",
          "name": "amount",
          "type": "uint256"
        }
      ],
      "name": "transfer",
      "outputs": [
        {
          "internalType": "bool",
          "name": "",
          "type": "bool"
        }
      ],
      "stateMutability": "nonpayable",
      "type": "function"
    },
    {
      "inputs": [
        {
          "internalType": "address",
          "name": "sender",
          "type": "address"
        },
        {
          "internalType": "address",
          "name": "recipient",
          "type": "address"
        },
        {
          "internalType": "uint256",
          "name": "amount",
          "type": "uint256"
        }
      ],
      "name": "transferFrom",
      "outputs": [
        {
          "internalType": "bool",
          "name": "",
          "type": "bool"
        }
      ],
      "stateMutability": "nonpayable",
      "type": "function"
    },
    {
      "inputs": [
        {
          "internalType": "address",
          "name": "_governance",
          "type": "address"
        }
      ],
      "name": "transferGovernance",
      "outputs": [],
      "stateMutability": "nonpayable",
      "type": "function"
    },
    {
      "inputs": [],
      "name": "undelegateAll",
      "outputs": [],
      "stateMutability": "nonpayable",
      "type": "function"
    },
    {
      "inputs": [
        {
          "internalType": "address[]",
          "name": "_delegateAddresses",
          "type": "address[]"
        }
      ],
      "name": "undelegateAllExplicit",
      "outputs": [
        {
          "internalType": "uint256",
          "name": "_remainingDelegation",
          "type": "uint256"
        }
      ],
      "stateMutability": "nonpayable",
      "type": "function"
    },
    {
      "inputs": [
        {
          "internalType": "address",
          "name": "_owner",
          "type": "address"
        }
      ],
      "name": "undelegatedVotePowerOf",
      "outputs": [
        {
          "internalType": "uint256",
          "name": "",
          "type": "uint256"
        }
      ],
      "stateMutability": "view",
      "type": "function"
    },
    {
      "inputs": [
        {
          "internalType": "address",
          "name": "_owner",
          "type": "address"
        },
        {
          "internalType": "uint256",
          "name": "_blockNumber",
          "type": "uint256"
        }
      ],
      "name": "undelegatedVotePowerOfAt",
      "outputs": [
        {
          "internalType": "uint256",
          "name": "",
          "type": "uint256"
        }
      ],
      "stateMutability": "view",
      "type": "function"
    },
    {
      "inputs": [
        {
          "internalType": "address",
          "name": "_from",
          "type": "address"
        },
        {
          "internalType": "address",
          "name": "_to",
          "type": "address"
        }
      ],
      "name": "votePowerFromTo",
      "outputs": [
        {
          "internalType": "uint256",
          "name": "",
          "type": "uint256"
        }
      ],
      "stateMutability": "view",
      "type": "function"
    },
    {
      "inputs": [
        {
          "internalType": "address",
          "name": "_from",
          "type": "address"
        },
        {
          "internalType": "address",
          "name": "_to",
          "type": "address"
        },
        {
          "internalType": "uint256",
          "name": "_blockNumber",
          "type": "uint256"
        }
      ],
      "name": "votePowerFromToAt",
      "outputs": [
        {
          "internalType": "uint256",
          "name": "",
          "type": "uint256"
        }
      ],
      "stateMutability": "view",
      "type": "function"
    },
    {
      "inputs": [
        {
          "internalType": "address",
          "name": "_owner",
          "type": "address"
        }
      ],
      "name": "votePowerOf",
      "outputs": [
        {
          "internalType": "uint256",
          "name": "",
          "type": "uint256"
        }
      ],
      "stateMutability": "view",
      "type": "function"
    },
    {
      "inputs": [
        {
          "internalType": "address",
          "name": "_owner",
          "type": "address"
        },
        {
          "internalType": "uint256",
          "name": "_blockNumber",
          "type": "uint256"
        }
      ],
      "name": "votePowerOfAt",
      "outputs": [
        {
          "internalType": "uint256",
          "name": "",
          "type": "uint256"
        }
      ],
      "stateMutability": "view",
      "type": "function"
    },
    {
      "inputs": [
        {
          "internalType": "address",
          "name": "_owner",
          "type": "address"
        },
        {
          "internalType": "uint256",
          "name": "_blockNumber",
          "type": "uint256"
        }
      ],
      "name": "votePowerOfAtCached",
      "outputs": [
        {
          "internalType": "uint256",
          "name": "",
          "type": "uint256"
        }
      ],
      "stateMutability": "nonpayable",
      "type": "function"
    },
    {
      "inputs": [
        {
          "internalType": "address",
          "name": "_owner",
          "type": "address"
        },
        {
          "internalType": "uint256",
          "name": "_blockNumber",
          "type": "uint256"
        }
      ],
      "name": "votePowerOfAtIgnoringRevocation",
      "outputs": [
        {
          "internalType": "uint256",
          "name": "",
          "type": "uint256"
        }
      ],
      "stateMutability": "view",
      "type": "function"
    },
    {
      "inputs": [],
      "name": "vpContractInitialized",
      "outputs": [
        {
          "internalType": "bool",
          "name": "",
          "type": "bool"
        }
      ],
      "stateMutability": "view",
      "type": "function"
    },
    {
      "inputs": [
        {
          "internalType": "uint256",
          "name": "amount",
          "type": "uint256"
        }
      ],
      "name": "withdraw",
      "outputs": [],
      "stateMutability": "nonpayable",
      "type": "function"
    },
    {
      "inputs": [
        {
          "internalType": "address",
          "name": "owner",
          "type": "address"
        },
        {
          "internalType": "uint256",
          "name": "amount",
          "type": "uint256"
        }
      ],
      "name": "withdrawFrom",
      "outputs": [],
      "stateMutability": "nonpayable",
      "type": "function"
    },
    {
      "inputs": [],
      "name": "writeVotePowerContract",
      "outputs": [
        {
          "internalType": "contract IVPContractEvents",
          "name": "",
          "type": "address"
        }
      ],
      "stateMutability": "view",
      "type": "function"
    },
    {
      "stateMutability": "payable",
      "type": "receive"
    }
  ],
  "bytecode": "0x60806040526011805460ff60a01b191690553480156200001e57600080fd5b5060405162004435380380620044358339810160408190526200004191620002da565b8282828280838381600390805190602001906200006092919062000193565b5080516200007690600490602084019062000193565b50506005805460ff19166012179055506001600160a01b03811615620000a157620000a181620000e1565b506001600160a01b038116620000d45760405162461bcd60e51b8152600401620000cb906200037a565b60405180910390fd5b50505050505050620003db565b600d54600160a01b900460ff16156200010e5760405162461bcd60e51b8152600401620000cb90620003a4565b600d805460ff60a01b1916600160a01b179055600c546040517f434a2db650703b36c824e745330d6397cdaa9ee2cc891a4938ae853e1c50b68d9162000162916001600160a01b0390911690849062000360565b60405180910390a1600c80546001600160a01b039092166001600160a01b0319928316179055600d80549091169055565b828054600181600116156101000203166002900490600052602060002090601f016020900481019282620001cb576000855562000216565b82601f10620001e657805160ff191683800117855562000216565b8280016001018555821562000216579182015b8281111562000216578251825591602001919060010190620001f9565b506200022492915062000228565b5090565b5b8082111562000224576000815560010162000229565b600082601f83011262000250578081fd5b81516001600160401b03808211156200026557fe5b6040516020601f8401601f19168201810183811183821017156200028557fe5b60405283825285840181018710156200029c578485fd5b8492505b83831015620002bf5785830181015182840182015291820191620002a0565b83831115620002d057848185840101525b5095945050505050565b600080600060608486031215620002ef578283fd5b83516001600160a01b038116811462000306578384fd5b60208501519093506001600160401b038082111562000323578384fd5b62000331878388016200023f565b9350604086015191508082111562000347578283fd5b5062000356868287016200023f565b9150509250925092565b6001600160a01b0392831681529116602082015260400190565b60208082526010908201526f5f676f7665726e616e6365207a65726f60801b604082015260600190565b60208082526014908201527f696e697469616c6973656420213d2066616c7365000000000000000000000000604082015260600190565b61404a80620003eb6000396000f3fe60806040526004361061037a5760003560e01c80639470b0bd116101d1578063caeb942b11610102578063e587497e116100a0578063f5f3d4f71161006f578063f5f3d4f7146109e1578063f62f8f3a146109f6578063f683776714610a16578063f6a494af14610a3657610389565b8063e587497e14610961578063e64767aa14610981578063ed475a79146109a1578063f0e292c9146109c157610389565b8063d38bfff4116100dc578063d38bfff4146108ec578063d6aa0b771461090c578063dd62ed3e1461092c578063deea13e71461094c57610389565b8063caeb942b146108a4578063d06dc3ad146108c4578063d0e30db0146108e457610389565b8063a9059cbb1161016f578063bbd6fbf811610149578063bbd6fbf81461082f578063be0ca7471461084f578063c373a08e1461086f578063c787a8fc1461088f57610389565b8063a9059cbb146107e7578063b302f39314610807578063b760faf91461081c57610389565b80639b3baa0e116101ab5780639b3baa0e146107725780639ca2231a146107875780639d6a890f146107a7578063a457c2d7146107c757610389565b80639470b0bd1461071d57806395d89b411461073d578063981b24d01461075257610389565b806343ea370b116102ab57806370a08231116102495780637f4fcaa9116102235780637f4fcaa9146106a857806383035a82146106c85780638c2b8ae1146106e857806392bfe6d8146106fd57610389565b806370a0823114610638578063755d10a4146106585780637de5b8ed1461067857610389565b80635aa6e675116102855780635aa6e675146105d95780635d36b190146105ee5780635d6d11eb1461060357806360f7ac971461062357610389565b806343ea370b1461056c57806349e3c7e51461058c5780634ee2cd7e146105b957610389565b80631fec092a11610318578063313ce567116102f2578063313ce567146104ea57806331d12a161461050c578063395093511461052c5780633e5aa26a1461054c57610389565b80631fec092a1461048857806323b872dd146104aa5780632e1a7d4d146104ca57610389565b8063095ea7b311610354578063095ea7b31461040657806313de97f514610433578063142d10181461045357806318160ddd1461047357610389565b8063026e402b1461038e57806304bb4e43146103ae57806306fdde03146103e457610389565b3661038957610387610a56565b005b600080fd5b34801561039a57600080fd5b506103876103a93660046133bb565b610aa3565b3480156103ba57600080fd5b506103ce6103c93660046133bb565b610b1a565b6040516103db9190613f13565b60405180910390f35b3480156103f057600080fd5b506103f9610baa565b6040516103db91906137de565b34801561041257600080fd5b506104266104213660046133bb565b610bb9565b6040516103db91906137b4565b34801561043f57600080fd5b5061038761044e36600461359a565b610bd6565b34801561045f57600080fd5b506103ce61046e366004613327565b610da5565b34801561047f57600080fd5b506103ce610e32565b34801561049457600080fd5b5061049d610e38565b6040516103db919061363c565b3480156104b657600080fd5b506104266104c536600461337b565b610e47565b3480156104d657600080fd5b506103876104e536600461359a565b610ecf565b3480156104f657600080fd5b506104ff610f4b565b6040516103db9190613f1c565b34801561051857600080fd5b50610387610527366004613327565b610f55565b34801561053857600080fd5b506104266105473660046133bb565b6110dd565b34801561055857600080fd5b506103ce61056736600461359a565b61112b565b34801561057857600080fd5b506103ce61058736600461359a565b611136565b34801561059857600080fd5b506105ac6105a73660046134ea565b61118f565b6040516103db91906137a1565b3480156105c557600080fd5b506103ce6105d43660046133bb565b61121a565b3480156105e557600080fd5b5061049d611226565b3480156105fa57600080fd5b50610387611235565b34801561060f57600080fd5b506103ce61061e3660046133e6565b6112d1565b34801561062f57600080fd5b5061049d611336565b34801561064457600080fd5b506103ce610653366004613327565b611345565b34801561066457600080fd5b50610387610673366004613327565b611360565b34801561068457600080fd5b50610698610693366004613327565b61159c565b6040516103db9493929190613746565b3480156106b457600080fd5b506103876106c3366004613327565b611638565b3480156106d457600080fd5b506103ce6106e33660046133bb565b611662565b3480156106f457600080fd5b5061049d6116a4565b34801561070957600080fd5b506103ce6107183660046133bb565b6116b3565b34801561072957600080fd5b506103876107383660046133bb565b6116ea565b34801561074957600080fd5b506103f96117ae565b34801561075e57600080fd5b506103ce61076d36600461359a565b6117b8565b34801561077e57600080fd5b5061049d6117c3565b34801561079357600080fd5b506103876107a2366004613327565b6117d2565b3480156107b357600080fd5b506103876107c2366004613327565b6118e5565b3480156107d357600080fd5b506104266107e23660046133bb565b611992565b3480156107f357600080fd5b506104266108023660046133bb565b6119fa565b34801561081357600080fd5b50610387611a0e565b61038761082a366004613327565b611a7f565b34801561083b57600080fd5b5061038761084a3660046133bb565b611af3565b34801561085b57600080fd5b506103ce61086a366004613343565b611c18565b34801561087b57600080fd5b5061038761088a366004613327565b611c59565b34801561089b57600080fd5b50610426611cb7565b3480156108b057600080fd5b506103ce6108bf36600461359a565b611cc7565b3480156108d057600080fd5b506103876108df3660046133bb565b611cd2565b610387610a56565b3480156108f857600080fd5b50610387610907366004613327565b611cf3565b34801561091857600080fd5b506103ce610927366004613327565b611d3a565b34801561093857600080fd5b506103ce610947366004613343565b611d79565b34801561095857600080fd5b506103ce611da4565b34801561096d57600080fd5b506103ce61097c3660046133bb565b611dae565b34801561098d57600080fd5b506103ce61099c36600461337b565b611e13565b3480156109ad57600080fd5b506106986109bc3660046133bb565b611eaf565b3480156109cd57600080fd5b506103ce6109dc3660046133bb565b611f4e565b3480156109ed57600080fd5b506103ce611f8e565b348015610a0257600080fd5b506103ce610a1136600461359a565b611f98565b348015610a2257600080fd5b506103ce610a31366004613327565b611fd6565b348015610a4257600080fd5b50610387610a51366004613327565b61200b565b610a603334612164565b336001600160a01b03167fe1fffcc4923d04b559f4d29a8bfc6cda04eb5b0d3c460751c2402c5c5cc9109c34604051610a999190613f13565b60405180910390a2565b610aab612224565b6001600160a01b0316636230001a3384610ac433611345565b856040518563ffffffff1660e01b8152600401610ae49493929190613650565b600060405180830381600087803b158015610afe57600080fd5b505af1158015610b12573d6000803e3d6000fd5b505050505050565b6000610b24612250565b6001600160a01b03166304bb4e4384846040518363ffffffff1660e01b8152600401610b5192919061369d565b60206040518083038186803b158015610b6957600080fd5b505afa158015610b7d573d6000803e3d6000fd5b505050506040513d601f19601f82011682018060405250810190610ba191906135b2565b90505b92915050565b6060610bb461227c565b905090565b6000610bcd610bc6612312565b8484612316565b50600192915050565b600c546001600160a01b0316331480610bf957506011546001600160a01b031633145b610c1e5760405162461bcd60e51b8152600401610c1590613aff565b60405180910390fd5b610c27816123ca565b600e546001600160a01b031615610c9b57600e546040516313de97f560e01b81526001600160a01b03909116906313de97f590610c68908490600401613f13565b600060405180830381600087803b158015610c8257600080fd5b505af1158015610c96573d6000803e3d6000fd5b505050505b600f546001600160a01b031615801590610cc65750600e54600f546001600160a01b03908116911614155b15610d2e57600f546040516313de97f560e01b81526001600160a01b03909116906313de97f590610cfb908490600401613f13565b600060405180830381600087803b158015610d1557600080fd5b505af1158015610d29573d6000803e3d6000fd5b505050505b6010546001600160a01b031615610da2576010546040516313de97f560e01b81526001600160a01b03909116906313de97f590610d6f908490600401613f13565b600060405180830381600087803b158015610d8957600080fd5b505af1158015610d9d573d6000803e3d6000fd5b505050505b50565b6000610daf612250565b6001600160a01b031663142d1018836040518263ffffffff1660e01b8152600401610dda919061363c565b60206040518083038186803b158015610df257600080fd5b505afa158015610e06573d6000803e3d6000fd5b505050506040513d601f19601f82011682018060405250810190610e2a91906135b2565b90505b919050565b60025490565b600f546001600160a01b031690565b6000610e54848484612410565b610ec484610e60612312565b610ebf85604051806060016040528060288152602001613fc8602891396001600160a01b038a16600090815260016020526040812090610e9e612312565b6001600160a01b031681526020810191909152604001600020549190612525565b612316565b5060015b9392505050565b610ed93382612551565b336001600160a01b03167f7fcf532c15f0a6db0bd6d0e038bea71d30d808c7d98cb3bf7268a95bf5081b6582604051610f129190613f13565b60405180910390a2604051339082156108fc029083906000818181858888f19350505050158015610f47573d6000803e3d6000fd5b5050565b6000610bb4612627565b610f5d612630565b6001600160a01b0381161561107357306001600160a01b0316816001600160a01b031663653718836040518163ffffffff1660e01b815260040160206040518083038186803b158015610faf57600080fd5b505afa158015610fc3573d6000803e3d6000fd5b505050506040513d601f19601f82011682018060405250810190610fe7919061357e565b6001600160a01b03161461100d5760405162461bcd60e51b8152600401610c1590613ed1565b806001600160a01b03166313de97f561102461265c565b6040518263ffffffff1660e01b81526004016110409190613f13565b600060405180830381600087803b15801561105a57600080fd5b505af115801561106e573d6000803e3d6000fd5b505050505b600e546040517fbec98a6c0f609cda6b9f23b95824ba6ac733cb57edd17d344f2f279684400739916110b3916000916001600160a01b03169085906137bf565b60405180910390a1600e80546001600160a01b0319166001600160a01b0392909216919091179055565b6000610bcd6110ea612312565b84610ebf85600160006110fb612312565b6001600160a01b03908116825260208083019390935260409182016000908120918c168152925290205490612662565b6000610e2a826117b8565b600b546000906001600160a01b031633146111635760405162461bcd60e51b8152600401610c1590613b6d565b600a5482106111845760405162461bcd60e51b8152600401610c1590613d77565b610e2a600983612687565b6060611199612250565b6001600160a01b03166349e3c7e584846040518363ffffffff1660e01b81526004016111c692919061377f565b60006040518083038186803b1580156111de57600080fd5b505afa1580156111f2573d6000803e3d6000fd5b505050506040513d6000823e601f3d908101601f19168201604052610ba1919081019061352c565b6000610ba183836126bb565b600c546001600160a01b031681565b600d546001600160a01b0316331461125f5760405162461bcd60e51b8152600401610c159061392e565b600c54600d546040517f434a2db650703b36c824e745330d6397cdaa9ee2cc891a4938ae853e1c50b68d926112a2926001600160a01b03918216929116906136b6565b60405180910390a1600d8054600c80546001600160a01b03199081166001600160a01b03841617909155169055565b60006112db612224565b6001600160a01b0316630f8b8af733846040518363ffffffff1660e01b8152600401611308929190613679565b602060405180830381600087803b15801561132257600080fd5b505af1158015610e06573d6000803e3d6000fd5b600d546001600160a01b031681565b6001600160a01b031660009081526020819052604090205490565b611368612630565b6001600160a01b0381161561153257306001600160a01b0316816001600160a01b031663653718836040518163ffffffff1660e01b815260040160206040518083038186803b1580156113ba57600080fd5b505afa1580156113ce573d6000803e3d6000fd5b505050506040513d601f19601f820116820180604052508101906113f2919061357e565b6001600160a01b0316146114185760405162461bcd60e51b8152600401610c1590613ed1565b601154600160a01b900460ff16158061149d5750806001600160a01b031663aa94d3f26040518163ffffffff1660e01b815260040160206040518083038186803b15801561146557600080fd5b505afa158015611479573d6000803e3d6000fd5b505050506040513d601f19601f8201168201806040525081019061149d919061355e565b6114b95760405162461bcd60e51b8152600401610c1590613ab6565b806001600160a01b03166313de97f56114d061265c565b6040518263ffffffff1660e01b81526004016114ec9190613f13565b600060405180830381600087803b15801561150657600080fd5b505af115801561151a573d6000803e3d6000fd5b50506011805460ff60a01b1916600160a01b17905550505b600f546040517fbec98a6c0f609cda6b9f23b95824ba6ac733cb57edd17d344f2f27968440073991611572916001916001600160a01b03169085906137bf565b60405180910390a1600f80546001600160a01b0319166001600160a01b0392909216919091179055565b6060806000806115aa612250565b6001600160a01b0316637de5b8ed866040518263ffffffff1660e01b81526004016115d5919061363c565b60006040518083038186803b1580156115ed57600080fd5b505afa158015611601573d6000803e3d6000fd5b505050506040513d6000823e601f3d908101601f191682016040526116299190810190613418565b93509350935093509193509193565b611640612630565b601180546001600160a01b0319166001600160a01b0392909216919091179055565b600061166c612250565b6001600160a01b0316633150392784611685868661121a565b856040518463ffffffff1660e01b8152600401610b5193929190613725565b6010546001600160a01b031690565b60006116bd612250565b6001600160a01b03166392bfe6d884846040518363ffffffff1660e01b8152600401610b5192919061369d565b6117318233610ebf8460405180604001604052806014815260200173616c6c6f77616e63652062656c6f77207a65726f60601b81525061172a8833611d79565b9190612525565b61173b8282612551565b816001600160a01b03167f7fcf532c15f0a6db0bd6d0e038bea71d30d808c7d98cb3bf7268a95bf5081b65826040516117749190613f13565b60405180910390a2604051339082156108fc029083906000818181858888f193505050501580156117a9573d6000803e3d6000fd5b505050565b6060610bb46126ec565b6000610e2a8261274d565b600e546001600160a01b031690565b6117da612630565b306001600160a01b0316816001600160a01b031663653718836040518163ffffffff1660e01b815260040160206040518083038186803b15801561181d57600080fd5b505afa158015611831573d6000803e3d6000fd5b505050506040513d601f19601f82011682018060405250810190611855919061357e565b6001600160a01b03161461187b5760405162461bcd60e51b8152600401610c1590613c19565b6010546040517fbec98a6c0f609cda6b9f23b95824ba6ac733cb57edd17d344f2f279684400739916118bb916002916001600160a01b03169085906137bf565b60405180910390a1601080546001600160a01b0319166001600160a01b0392909216919091179055565b600d54600160a01b900460ff161561190f5760405162461bcd60e51b8152600401610c1590613dfe565b600d805460ff60a01b1916600160a01b179055600c546040517f434a2db650703b36c824e745330d6397cdaa9ee2cc891a4938ae853e1c50b68d91611961916001600160a01b039091169084906136b6565b60405180910390a1600c80546001600160a01b039092166001600160a01b0319928316179055600d80549091169055565b6000610bcd61199f612312565b84610ebf85604051806060016040528060258152602001613ff060259139600160006119c9612312565b6001600160a01b03908116825260208083019390935260409182016000908120918d16815292529020549190612525565b6000610bcd611a07612312565b8484612410565b611a16612224565b6001600160a01b03166305109ecf33611a2e33611345565b6040518363ffffffff1660e01b8152600401611a4b92919061369d565b600060405180830381600087803b158015611a6557600080fd5b505af1158015611a79573d6000803e3d6000fd5b50505050565b6001600160a01b038116611aa55760405162461bcd60e51b8152600401610c1590613cb7565b611aaf8134612164565b806001600160a01b03167fe1fffcc4923d04b559f4d29a8bfc6cda04eb5b0d3c460751c2402c5c5cc9109c34604051611ae89190613f13565b60405180910390a250565b600f54600e546001600160a01b0391821691168115611b7a57816001600160a01b031663c7c62fab3386611b27338861121a565b876040518563ffffffff1660e01b8152600401611b479493929190613650565b600060405180830381600087803b158015611b6157600080fd5b505af1158015611b75573d6000803e3d6000fd5b505050505b816001600160a01b0316816001600160a01b031614158015611ba457506001600160a01b03811615155b15611a7957806001600160a01b031663c7c62fab3386611bc4338861121a565b876040518563ffffffff1660e01b8152600401611be49493929190613650565b600060405180830381600087803b158015611bfe57600080fd5b505af1925050508015611c0f575060015b611a7957611a79565b6000611c22612250565b6001600160a01b0316639dc6b9f28484611c3b87611345565b6040518463ffffffff1660e01b8152600401610b51939291906136d0565b611c61612630565b600d80546001600160a01b0319166001600160a01b0383161790556040517f1f95fb40be3a947982072902a887b521248d1d8931a39eb38f84f4d6fd758b6990611cac90839061363c565b60405180910390a150565b601154600160a01b900460ff1681565b6000610e2a8261277d565b611cda612224565b6001600160a01b031663404d9e823384610ac433611345565b611cfb612630565b600c546040517f434a2db650703b36c824e745330d6397cdaa9ee2cc891a4938ae853e1c50b68d91611961916001600160a01b039091169084906136b6565b6000611d44612250565b6001600160a01b0316634a03d55683611d5c85611345565b6040518363ffffffff1660e01b8152600401610dda92919061369d565b6001600160a01b03918216600090815260016020908152604080832093909416825291909152205490565b6000610bb461265c565b6000611db8612250565b6001600160a01b031663e587497e84846040518363ffffffff1660e01b8152600401611de592919061369d565b602060405180830381600087803b158015611dff57600080fd5b505af1158015610b7d573d6000803e3d6000fd5b6000611e1d612250565b6001600160a01b031663833aca928585611e37888761121a565b866040518563ffffffff1660e01b8152600401611e579493929190613650565b60206040518083038186803b158015611e6f57600080fd5b505afa158015611e83573d6000803e3d6000fd5b505050506040513d601f19601f82011682018060405250810190611ea791906135b2565b949350505050565b606080600080611ebd612250565b6001600160a01b031663ed475a7987876040518363ffffffff1660e01b8152600401611eea92919061369d565b60006040518083038186803b158015611f0257600080fd5b505afa158015611f16573d6000803e3d6000fd5b505050506040513d6000823e601f3d908101601f19168201604052611f3e9190810190613418565b9299919850965090945092505050565b600b546000906001600160a01b03163314611f7b5760405162461bcd60e51b8152600401610c1590613b6d565b600a54610ba1906006908590859061281b565b6000610bb4610e32565b600b546000906001600160a01b03163314611fc55760405162461bcd60e51b8152600401610c1590613b6d565b600a54610e2a906007908490612861565b6000611fe0612250565b6001600160a01b031663f6837767836040518263ffffffff1660e01b8152600401610dda919061363c565b612013612630565b61201c8161294e565b600e546001600160a01b03161561209057600e5460405163f6a494af60e01b81526001600160a01b039091169063f6a494af9061205d90849060040161363c565b600060405180830381600087803b15801561207757600080fd5b505af115801561208b573d6000803e3d6000fd5b505050505b600f546001600160a01b0316158015906120bb5750600e54600f546001600160a01b03908116911614155b1561212357600f5460405163f6a494af60e01b81526001600160a01b039091169063f6a494af906120f090849060040161363c565b600060405180830381600087803b15801561210a57600080fd5b505af115801561211e573d6000803e3d6000fd5b505050505b6010546001600160a01b031615610da25760105460405163f6a494af60e01b81526001600160a01b039091169063f6a494af90610d6f90849060040161363c565b6001600160a01b03821661218a5760405162461bcd60e51b8152600401610c1590613e9a565b61219660008383612970565b6002546121a39082612662565b6002556001600160a01b0382166000908152602081905260409020546121c99082612662565b6001600160a01b0383166000818152602081905260408082209390935591519091907fddf252ad1be2c89b69c2b068fc378daa952ba7f163c4a11628f55a4df523b3ef90612218908590613f13565b60405180910390a35050565b600f546000906001600160a01b031680610bb45760405162461bcd60e51b8152600401610c1590613b9c565b600e546000906001600160a01b031680610bb45760405162461bcd60e51b8152600401610c1590613e63565b60038054604080516020601f60026000196101006001881615020190951694909404938401819004810282018101909252828152606093909290918301828280156123085780601f106122dd57610100808354040283529160200191612308565b820191906000526020600020905b8154815290600101906020018083116122eb57829003601f168201915b5050505050905090565b3390565b6001600160a01b03831661233c5760405162461bcd60e51b8152600401610c1590613d33565b6001600160a01b0382166123625760405162461bcd60e51b8152600401610c15906138b5565b6001600160a01b0380841660008181526001602090815260408083209487168084529490915290819020849055517f8c5be1e5ebec7d5bd14f71427d1e84f3dd0314c0f7b2291e5b200ac8c7c3b925906123bd908590613f13565b60405180910390a3505050565b600a548110156123ec5760405162461bcd60e51b8152600401610c1590613955565b43811061240b5760405162461bcd60e51b8152600401610c1590613874565b600a55565b6001600160a01b0383166124365760405162461bcd60e51b8152600401610c1590613cee565b6001600160a01b03821661245c5760405162461bcd60e51b8152600401610c1590613831565b612467838383612970565b6124a481604051806060016040528060268152602001613fa2602691396001600160a01b0386166000908152602081905260409020549190612525565b6001600160a01b0380851660009081526020819052604080822093909355908416815220546124d39082612662565b6001600160a01b0380841660008181526020819052604090819020939093559151908516907fddf252ad1be2c89b69c2b068fc378daa952ba7f163c4a11628f55a4df523b3ef906123bd908590613f13565b600081848411156125495760405162461bcd60e51b8152600401610c1591906137de565b505050900390565b6001600160a01b0382166125775760405162461bcd60e51b8152600401610c1590613c76565b61258382600083612970565b6125c081604051806060016040528060228152602001613f80602291396001600160a01b0385166000908152602081905260409020549190612525565b6001600160a01b0383166000908152602081905260409020556002546125e69082612b16565b6002556040516000906001600160a01b038416907fddf252ad1be2c89b69c2b068fc378daa952ba7f163c4a11628f55a4df523b3ef90612218908590613f13565b60055460ff1690565b600c546001600160a01b0316331461265a5760405162461bcd60e51b8152600401610c1590613a09565b565b600a5490565b600082820183811015610ba15760405162461bcd60e51b8152600401610c15906138f7565b600081815260208390526040812054156126b257506000818152602083905260408120556001610ba4565b50600092915050565b600081600a548110156126e05760405162461bcd60e51b8152600401610c1590613a69565b611ea760068585612b3e565b60048054604080516020601f60026000196101006001881615020190951694909404938401819004810282018101909252828152606093909290918301828280156123085780601f106122dd57610100808354040283529160200191612308565b600081600a548110156127725760405162461bcd60e51b8152600401610c1590613a69565b610ec8600784612b69565b600081600a548110156127a25760405162461bcd60e51b8152600401610c1590613a69565b4383106127c15760405162461bcd60e51b8152600401610c159061399d565b6000806127d16009600787612c8d565b915091508015612813577ffec477a10b4fcdfdf1114eb32b3caf6118b2d76d20e1fcb70007274bb4b616be8560405161280a9190613f13565b60405180910390a15b509392505050565b60006001600160a01b03841615612856576001600160a01b038416600090815260208690526040902061284f908484612861565b9050611ea7565b506000949350505050565b60008161287057506000610ec8565b6001840154600160401b90046001600160401b031680612894576000915050610ec8565b60018501546001600160401b031660006128ba6128b18388612662565b60018503612ceb565b9050815b81811080156128ef575060018101600090815260208990526040902054600160c01b90046001600160401b03168610155b1561290b576000818152602089905260408120556001016128be565b828111156129405761291c81612d01565b60018901805467ffffffffffffffff19166001600160401b03929092169190911790555b919091039695505050505050565b600b80546001600160a01b0319166001600160a01b0392909216919091179055565b816001600160a01b0316836001600160a01b031614156129a25760405162461bcd60e51b8152600401610c1590613e2c565b60006001600160a01b0384166129b95760006129c2565b6129c284611345565b905060006001600160a01b0384166129db5760006129e4565b6129e484611345565b600f549091506001600160a01b03168015612a645760405163756da1b160e11b81526001600160a01b0382169063eadb436290612a2d9089908990889088908b906004016136f4565b600060405180830381600087803b158015612a4757600080fd5b505af1158015612a5b573d6000803e3d6000fd5b50505050612a89565b601154600160a01b900460ff16612a89576011805460ff60a01b1916600160a01b1790555b6010546001600160a01b03168015612b025760405163756da1b160e11b81526001600160a01b0382169063eadb436290612acf908a908a90899089908c906004016136f4565b600060405180830381600087803b158015612ae957600080fd5b505af1158015612afd573d6000803e3d6000fd5b505050505b612b0d878787612d2a565b50505050505050565b600082821115612b385760405162461bcd60e51b8152600401610c15906139d2565b50900390565b6001600160a01b0382166000908152602084905260408120612b608184612b69565b95945050505050565b6001820154600090600160401b90046001600160401b031680612b90576000915050610ba4565b4383101580612bc257506000198101600090815260208590526040902054600160c01b90046001600160401b03168310155b15612bea57600019016000908152602084905260409020546001600160c01b03169050610ba4565b60018401546001600160401b039081166000818152602087905260409020549091600160c01b90910416841015612c44578015612c395760405162461bcd60e51b8152600401610c1590613dae565b600092505050610ba4565b6001850154600090612c6a9087908490600160401b90046001600160401b031688612d6a565b6000908152602087905260409020546001600160c01b0316935050505092915050565b60008181526020849052604081205481908015612cb35760001901915060009050612ce3565b6000612cbf8686612b69565b9050612ccc816001612662565b600086815260208990526040902055925060019150505b935093915050565b6000818310612cfa5781610ba1565b5090919050565b6000600160401b8210612d265760405162461bcd60e51b8152600401610c1590613bd3565b5090565b6001600160a01b038316612d4757612d428282612df4565b6117a9565b6001600160a01b038216612d5f57612d428382612e51565b6117a9838383612ef9565b60008381612d79856001612b16565b90505b81811115612dea576000612da66002612da06001612d9a8688612662565b90612662565b90612f2f565b600081815260208a90526040902054909150600160c01b90046001600160401b03168510612dd657809250612de4565b612de1816001612b16565b91505b50612d7c565b5095945050505050565b6000612e0482612d9a854361121a565b9050612e1260068483612f61565b600a54612e2690600690859060029061281b565b50612e3f612e3783612d9a436117b8565b600790612f7f565b600a54611a7990600790600290612861565b6000612e908260405180604001604052806016815260200175213ab937103a37b7903134b3903337b91037bbb732b960511b81525061172a864361121a565b9050612e9e60068483612f61565b600a54612eb290600690859060029061281b565b50612e3f612e37836040518060400160405280601d81526020017f4275726e20746f6f2062696720666f7220746f74616c20737570706c7900000081525061172a436117b8565b612f066006848484613140565b600a54612f1a90600690859060029061281b565b50600a54611a7990600690849060029061281b565b6000808211612f505760405162461bcd60e51b8152600401610c1590613a32565b818381612f5957fe5b049392505050565b6001600160a01b0382166000908152602084905260409020611a7981835b6001820154600160401b90046001600160401b031680613036576040518060400160405280612fad846131cf565b6001600160c01b03168152602001612fc443612d01565b6001600160401b03908116909152600080805260208681526040909120835181549490920151909216600160c01b026001600160c01b039182166001600160c01b0319909416939093171691909117905560018301805467ffffffffffffffff60401b1916600160401b1790556117a9565b600019810160009081526020849052604090208054600160c01b90046001600160401b03164381141561308c5761306c846131cf565b82546001600160c01b0319166001600160c01b0391909116178255610d9d565b80431161309557fe5b60405180604001604052806130a9866131cf565b6001600160c01b031681526020016130c043612d01565b6001600160401b039081169091526000858152602088815260409091208351815494909201518316600160c01b026001600160c01b039283166001600160c01b0319909516949094179091169290921790915560018087018054918601909216600160401b0267ffffffffffffffff60401b199091161790555050505050565b8061314a57611a79565b6001600160a01b03831615801561316857506001600160a01b038216155b1561316f57fe5b6001600160a01b038316156131a35760006131948261318e87876131f4565b90612b16565b90506131a1858583612f61565b505b6001600160a01b03821615611a795760006131c282612d9a87866131f4565b9050610d9d858483612f61565b6000600160c01b8210612d265760405162461bcd60e51b8152600401610c1590613b36565b6001600160a01b0381166000908152602083905260408120611ea7816001810154600090600160401b90046001600160401b031680613237576000915050610e2d565b6000190160009081526020929092525060409020546001600160c01b031690565b600082601f830112613268578081fd5b8135602061327d61327883613f4d565b613f2a565b8281528181019085830183850287018401881015613299578586fd5b855b858110156132c05781356132ae81613f6a565b8452928401929084019060010161329b565b5090979650505050505050565b600082601f8301126132dd578081fd5b815160206132ed61327883613f4d565b8281528181019085830183850287018401881015613309578586fd5b855b858110156132c05781518452928401929084019060010161330b565b600060208284031215613338578081fd5b8135610ba181613f6a565b60008060408385031215613355578081fd5b823561336081613f6a565b9150602083013561337081613f6a565b809150509250929050565b60008060006060848603121561338f578081fd5b833561339a81613f6a565b925060208401356133aa81613f6a565b929592945050506040919091013590565b600080604083850312156133cd578182fd5b82356133d881613f6a565b946020939093013593505050565b6000602082840312156133f7578081fd5b81356001600160401b0381111561340c578182fd5b611ea784828501613258565b6000806000806080858703121561342d578081fd5b84516001600160401b0380821115613443578283fd5b818701915087601f830112613456578283fd5b8151602061346661327883613f4d565b82815281810190858301838502870184018d1015613482578788fd5b8796505b848710156134ad57805161349981613f6a565b835260019690960195918301918301613486565b50918a01519198509093505050808211156134c6578283fd5b506134d3878288016132cd565b604087015160609097015195989097509350505050565b600080604083850312156134fc578182fd5b82356001600160401b03811115613511578283fd5b61351d85828601613258565b95602094909401359450505050565b60006020828403121561353d578081fd5b81516001600160401b03811115613552578182fd5b611ea7848285016132cd565b60006020828403121561356f578081fd5b81518015158114610ba1578182fd5b60006020828403121561358f578081fd5b8151610ba181613f6a565b6000602082840312156135ab578081fd5b5035919050565b6000602082840312156135c3578081fd5b5051919050565b6000815180845260208085019450808401835b838110156136025781516001600160a01b0316875295820195908201906001016135dd565b509495945050505050565b6000815180845260208085019450808401835b8381101561360257815187529582019590820190600101613620565b6001600160a01b0391909116815260200190565b6001600160a01b0394851681529290931660208301526040820152606081019190915260800190565b6001600160a01b0383168152604060208201819052600090611ea7908301846135ca565b6001600160a01b03929092168252602082015260400190565b6001600160a01b0392831681529116602082015260400190565b6001600160a01b039384168152919092166020820152604081019190915260600190565b6001600160a01b03958616815293909416602084015260408301919091526060820152608081019190915260a00190565b6001600160a01b039390931683526020830191909152604082015260600190565b60006080825261375960808301876135ca565b828103602084015261376b818761360d565b604084019590955250506060015292915050565b60006040825261379260408301856135ca565b90508260208301529392505050565b600060208252610ba1602083018461360d565b901515815260200190565b9283526001600160a01b03918216602084015216604082015260600190565b6000602080835283518082850152825b8181101561380a578581018301518582016040015282016137ee565b8181111561381b5783604083870101525b50601f01601f1916929092016040019392505050565b60208082526023908201527f45524332303a207472616e7366657220746f20746865207a65726f206164647260408201526265737360e81b606082015260800190565b60208082526021908201527f436c65616e757020626c6f636b206d75737420626520696e20746865207061736040820152601d60fa1b606082015260800190565b60208082526022908201527f45524332303a20617070726f766520746f20746865207a65726f206164647265604082015261737360f01b606082015260800190565b6020808252601b908201527f536166654d6174683a206164646974696f6e206f766572666c6f770000000000604082015260600190565b6020808252600d908201526c1b9bdd0818db185a5b585a5b9d609a1b604082015260600190565b60208082526028908201527f436c65616e757020626c6f636b206e756d626572206d757374206e6576657220604082015267646563726561736560c01b606082015260800190565b6020808252818101527f43616e206f6e6c79206265207573656420666f72207061737420626c6f636b73604082015260600190565b6020808252601e908201527f536166654d6174683a207375627472616374696f6e206f766572666c6f770000604082015260600190565b6020808252600f908201526e6f6e6c7920676f7665726e616e636560881b604082015260600190565b6020808252601a908201527f536166654d6174683a206469766973696f6e206279207a65726f000000000000604082015260600190565b6020808252602d908201527f436865636b506f696e7461626c653a2072656164696e672066726f6d20636c6560408201526c616e65642d757020626c6f636b60981b606082015260800190565b60208082526029908201527f5650436f6e7472616374206e6f7420636f6e6669677572656420666f722072656040820152681c1b1858d95b595b9d60ba1b606082015260800190565b6020808252601a908201527f6f6e6c7920676f7665726e616e6365206f72206d616e61676572000000000000604082015260600190565b6020808252601d908201527f76616c756520646f65736e27742066697420696e203139322062697473000000604082015260600190565b60208082526015908201527413db9b1e4818db19585b995c8818dbdb9d1c9858dd605a1b604082015260600190565b6020808252601e908201527f546f6b656e206d697373696e67207772697465205650436f6e74726163740000604082015260600190565b60208082526026908201527f53616665436173743a2076616c756520646f65736e27742066697420696e203660408201526534206269747360d01b606082015260800190565b6020808252603d908201527f476f7665726e616e636520766f746520706f77657220636f6e7472616374206460408201527f6f6573206e6f742062656c6f6e6720746f207468697320746f6b656e2e000000606082015260800190565b60208082526021908201527f45524332303a206275726e2066726f6d20746865207a65726f206164647265736040820152607360f81b606082015260800190565b6020808252601e908201527f43616e6e6f74206465706f73697420746f207a65726f20616464726573730000604082015260600190565b60208082526025908201527f45524332303a207472616e736665722066726f6d20746865207a65726f206164604082015264647265737360d81b606082015260800190565b60208082526024908201527f45524332303a20617070726f76652066726f6d20746865207a65726f206164646040820152637265737360e01b606082015260800190565b6020808252601e908201527f4e6f20636c65616e757020616674657220636c65616e757020626c6f636b0000604082015260600190565b60208082526030908201527f436865636b506f696e74486973746f72793a2072656164696e672066726f6d2060408201526f636c65616e65642d757020626c6f636b60801b606082015260800190565b602080825260149082015273696e697469616c6973656420213d2066616c736560601b604082015260600190565b60208082526017908201527f43616e6e6f74207472616e7366657220746f2073656c66000000000000000000604082015260600190565b6020808252601d908201527f546f6b656e206d697373696e672072656164205650436f6e7472616374000000604082015260600190565b6020808252601f908201527f45524332303a206d696e7420746f20746865207a65726f206164647265737300604082015260600190565b60208082526022908201527f5650436f6e7472616374206e6f74206f776e6564206279207468697320746f6b60408201526132b760f11b606082015260800190565b90815260200190565b60ff91909116815260200190565b6040518181016001600160401b0381118282101715613f4557fe5b604052919050565b60006001600160401b03821115613f6057fe5b5060209081020190565b6001600160a01b0381168114610da257600080fdfe45524332303a206275726e20616d6f756e7420657863656564732062616c616e636545524332303a207472616e7366657220616d6f756e7420657863656564732062616c616e636545524332303a207472616e7366657220616d6f756e74206578636565647320616c6c6f77616e636545524332303a2064656372656173656420616c6c6f77616e63652062656c6f77207a65726fa264697066735822122053ce06da70e16fd5d1a000f01434e428fab07b5ca46ab0a5642303bcc0bba60764736f6c63430007060033",
  "linkReferences": {},
  "deployedLinkReferences": {}
}